{"abi":[{"type":"constructor","inputs":[{"name":"name","type":"string","internalType":"string"},{"name":"symbol","type":"string","internalType":"string"},{"name":"decimals_","type":"uint8","internalType":"uint8"},{"name":"maxSupply_","type":"uint256","internalType":"uint256"}],"stateMutability":"nonpayable"},{"type":"function","name":"acceptOwnership","inputs":[],"outputs":[],"stateMutability":"nonpayable"},{"type":"function","name":"allowance","inputs":[{"name":"owner","type":"address","internalType":"address"},{"name":"spender","type":"address","internalType":"address"}],"outputs":[{"name":"","type":"uint256","internalType":"uint256"}],"stateMutability":"view"},{"type":"function","name":"approve","inputs":[{"name":"spender","type":"address","internalType":"address"},{"name":"amount","type":"uint256","internalType":"uint256"}],"outputs":[{"name":"","type":"bool","internalType":"bool"}],"stateMutability":"nonpayable"},{"type":"function","name":"balanceOf","inputs":[{"name":"account","type":"address","internalType":"address"}],"outputs":[{"name":"","type":"uint256","internalType":"uint256"}],"stateMutability":"view"},{"type":"function","name":"burn","inputs":[{"name":"amount","type":"uint256","internalType":"uint256"}],"outputs":[],"stateMutability":"nonpayable"},{"type":"function","name":"burn","inputs":[{"name":"account","type":"address","internalType":"address"},{"name":"amount","type":"uint256","internalType":"uint256"}],"outputs":[],"stateMutability":"nonpayable"},{"type":"function","name":"burnFrom","inputs":[{"name":"account","type":"address","internalType":"address"},{"name":"amount","type":"uint256","internalType":"uint256"}],"outputs":[],"stateMutability":"nonpayable"},{"type":"function","name":"decimals","inputs":[],"outputs":[{"name":"","type":"uint8","internalType":"uint8"}],"stateMutability":"view"},{"type":"function","name":"decreaseAllowance","inputs":[{"name":"spender","type":"address","internalType":"address"},{"name":"subtractedValue","type":"uint256","internalType":"uint256"}],"outputs":[{"name":"","type":"bool","internalType":"bool"}],"stateMutability":"nonpayable"},{"type":"function","name":"decreaseApproval","inputs":[{"name":"spender","type":"address","internalType":"address"},{"name":"subtractedValue","type":"uint256","internalType":"uint256"}],"outputs":[{"name":"success","type":"bool","internalType":"bool"}],"stateMutability":"nonpayable"},{"type":"function","name":"getBurners","inputs":[],"outputs":[{"name":"","type":"address[]","internalType":"address[]"}],"stateMutability":"view"},{"type":"function","name":"getMinters","inputs":[],"outputs":[{"name":"","type":"address[]","internalType":"address[]"}],"stateMutability":"view"},{"type":"function","name":"grantBurnRole","inputs":[{"name":"burner","type":"address","internalType":"address"}],"outputs":[],"stateMutability":"nonpayable"},{"type":"function","name":"grantMintAndBurnRoles","inputs":[{"name":"burnAndMinter","type":"address","internalType":"address"}],"outputs":[],"stateMutability":"nonpayable"},{"type":"function","name":"grantMintRole","inputs":[{"name":"minter","type":"address","internalType":"address"}],"outputs":[],"stateMutability":"nonpayable"},{"type":"function","name":"increaseAllowance","inputs":[{"name":"spender","type":"address","internalType":"address"},{"name":"addedValue","type":"uint256","internalType":"uint256"}],"outputs":[{"name":"","type":"bool","internalType":"bool"}],"stateMutability":"nonpayable"},{"type":"function","name":"increaseApproval","inputs":[{"name":"spender","type":"address","internalType":"address"},{"name":"addedValue","type":"uint256","internalType":"uint256"}],"outputs":[],"stateMutability":"nonpayable"},{"type":"function","name":"isBurner","inputs":[{"name":"burner","type":"address","internalType":"address"}],"outputs":[{"name":"","type":"bool","internalType":"bool"}],"stateMutability":"view"},{"type":"function","name":"isMinter","inputs":[{"name":"minter","type":"address","internalType":"address"}],"outputs":[{"name":"","type":"bool","internalType":"bool"}],"stateMutability":"view"},{"type":"function","name":"maxSupply","inputs":[],"outputs":[{"name":"","type":"uint256","internalType":"uint256"}],"stateMutability":"view"},{"type":"function","name":"mint","inputs":[{"name":"account","type":"address","internalType":"address"},{"name":"amount","type":"uint256","internalType":"uint256"}],"outputs":[],"stateMutability":"nonpayable"},{"type":"function","name":"name","inputs":[],"outputs":[{"name":"","type":"string","internalType":"string"}],"stateMutability":"view"},{"type":"function","name":"owner","inputs":[],"outputs":[{"name":"","type":"address","internalType":"address"}],"stateMutability":"view"},{"type":"function","name":"revokeBurnRole","inputs":[{"name":"burner","type":"address","internalType":"address"}],"outputs":[],"stateMutability":"nonpayable"},{"type":"function","name":"revokeMintRole","inputs":[{"name":"minter","type":"address","internalType":"address"}],"outputs":[],"stateMutability":"nonpayable"},{"type":"function","name":"supportsInterface","inputs":[{"name":"interfaceId","type":"bytes4","internalType":"bytes4"}],"outputs":[{"name":"","type":"bool","internalType":"bool"}],"stateMutability":"pure"},{"type":"function","name":"symbol","inputs":[],"outputs":[{"name":"","type":"string","internalType":"string"}],"stateMutability":"view"},{"type":"function","name":"totalSupply","inputs":[],"outputs":[{"name":"","type":"uint256","internalType":"uint256"}],"stateMutability":"view"},{"type":"function","name":"transfer","inputs":[{"name":"to","type":"address","internalType":"address"},{"name":"amount","type":"uint256","internalType":"uint256"}],"outputs":[{"name":"","type":"bool","internalType":"bool"}],"stateMutability":"nonpayable"},{"type":"function","name":"transferAndCall","inputs":[{"name":"to","type":"address","internalType":"address"},{"name":"amount","type":"uint256","internalType":"uint256"},{"name":"data","type":"bytes","internalType":"bytes"}],"outputs":[{"name":"success","type":"bool","internalType":"bool"}],"stateMutability":"nonpayable"},{"type":"function","name":"transferFrom","inputs":[{"name":"from","type":"address","internalType":"address"},{"name":"to","type":"address","internalType":"address"},{"name":"amount","type":"uint256","internalType":"uint256"}],"outputs":[{"name":"","type":"bool","internalType":"bool"}],"stateMutability":"nonpayable"},{"type":"function","name":"transferOwnership","inputs":[{"name":"to","type":"address","internalType":"address"}],"outputs":[],"stateMutability":"nonpayable"},{"type":"event","name":"Approval","inputs":[{"name":"owner","type":"address","indexed":true,"internalType":"address"},{"name":"spender","type":"address","indexed":true,"internalType":"address"},{"name":"value","type":"uint256","indexed":false,"internalType":"uint256"}],"anonymous":false},{"type":"event","name":"BurnAccessGranted","inputs":[{"name":"burner","type":"address","indexed":true,"internalType":"address"}],"anonymous":false},{"type":"event","name":"BurnAccessRevoked","inputs":[{"name":"burner","type":"address","indexed":true,"internalType":"address"}],"anonymous":false},{"type":"event","name":"MintAccessGranted","inputs":[{"name":"minter","type":"address","indexed":true,"internalType":"address"}],"anonymous":false},{"type":"event","name":"MintAccessRevoked","inputs":[{"name":"minter","type":"address","indexed":true,"internalType":"address"}],"anonymous":false},{"type":"event","name":"OwnershipTransferRequested","inputs":[{"name":"from","type":"address","indexed":true,"internalType":"address"},{"name":"to","type":"address","indexed":true,"internalType":"address"}],"anonymous":false},{"type":"event","name":"OwnershipTransferred","inputs":[{"name":"from","type":"address","indexed":true,"internalType":"address"},{"name":"to","type":"address","indexed":true,"internalType":"address"}],"anonymous":false},{"type":"event","name":"Transfer","inputs":[{"name":"from","type":"address","indexed":true,"internalType":"address"},{"name":"to","type":"address","indexed":true,"internalType":"address"},{"name":"value","type":"uint256","indexed":false,"internalType":"uint256"},{"name":"data","type":"bytes","indexed":false,"internalType":"bytes"}],"anonymous":false},{"type":"event","name":"Transfer","inputs":[{"name":"from","type":"address","indexed":true,"internalType":"address"},{"name":"to","type":"address","indexed":true,"internalType":"address"},{"name":"value","type":"uint256","indexed":false,"internalType":"uint256"}],"anonymous":false},{"type":"error","name":"MaxSupplyExceeded","inputs":[{"name":"supplyAfterMint","type":"uint256","internalType":"uint256"}]},{"type":"error","name":"SenderNotBurner","inputs":[{"name":"sender","type":"address","internalType":"address"}]},{"type":"error","name":"SenderNotMinter","inputs":[{"name":"sender","type":"address","internalType":"address"}]}],"bytecode":{"object":"0x60c060405234801561000f575f80fd5b50604051611b03380380611b0383398101604081905261002e9161023c565b33805f8686818160036100418382610343565b50600461004e8282610343565b5050506001600160a01b03841691506100b090505760405162461bcd60e51b815260206004820152601860248201527f43616e6e6f7420736574206f776e657220746f207a65726f000000000000000060448201526064015b60405180910390fd5b600580546001600160a01b0319166001600160a01b03848116919091179091558116156100e0576100e0816100f6565b50505060ff90911660805260a052506103fd9050565b336001600160a01b0382160361014e5760405162461bcd60e51b815260206004820152601760248201527f43616e6e6f74207472616e7366657220746f2073656c6600000000000000000060448201526064016100a7565b600680546001600160a01b0319166001600160a01b03838116918217909255600554604051919216907fed8889f560326eb138920d842192f0eb3dd22b4f139c87a2c57538e05bae1278905f90a350565b634e487b7160e01b5f52604160045260245ffd5b5f82601f8301126101c2575f80fd5b81516001600160401b038111156101db576101db61019f565b604051601f8201601f19908116603f011681016001600160401b03811182821017156102095761020961019f565b604052818152838201602001851015610220575f80fd5b8160208501602083015e5f918101602001919091529392505050565b5f805f806080858703121561024f575f80fd5b84516001600160401b03811115610264575f80fd5b610270878288016101b3565b602087015190955090506001600160401b0381111561028d575f80fd5b610299878288016101b3565b935050604085015160ff811681146102af575f80fd5b6060959095015193969295505050565b600181811c908216806102d357607f821691505b6020821081036102f157634e487b7160e01b5f52602260045260245ffd5b50919050565b601f82111561033e57805f5260205f20601f840160051c8101602085101561031c5750805b601f840160051c820191505b8181101561033b575f8155600101610328565b50505b505050565b81516001600160401b0381111561035c5761035c61019f565b6103708161036a84546102bf565b846102f7565b6020601f8211600181146103a2575f831561038b5750848201515b5f19600385901b1c1916600184901b17845561033b565b5f84815260208120601f198516915b828110156103d157878501518255602094850194600190920191016103b1565b50848210156103ee57868401515f19600387901b60f8161c191681555b50505050600190811b01905550565b60805160a0516116d761042c5f395f81816103e4015281816106c301526106ed01525f61022b01526116d75ff3fe608060405234801561000f575f80fd5b50600436106101ab575f3560e01c806379cc6790116100eb578063c2e3273d1161008f578063c2e3273d146103a9578063c630948d146103bc578063c64d0ebc146103cf578063d5abeb01146103e2578063d73dd62314610408578063dd62ed3e1461041b578063f2fde38b1461042e578063f81094f314610441575f80fd5b806379cc67901461032157806386fe8b43146103345780638da5cb5b1461033c57806395d89b41146103555780639dc29fac1461035d578063a457c2d714610370578063a9059cbb14610383578063aa271e1a14610396575f80fd5b806340c10f191161015257806340c10f191461027b57806342966c68146102905780634334614a146102a35780634f5632f8146102b657806366188463146102c95780636b32810b146102dc57806370a08231146102f157806379ba509714610319575f80fd5b806301ffc9a7146101af57806306fdde03146101d7578063095ea7b3146101ec57806318160ddd146101ff57806323b872dd14610211578063313ce5671461022457806339509351146102555780634000aea014610268575b5f80fd5b6101c26101bd366004611314565b610454565b60405190151581526020015b60405180910390f35b6101df6104c0565b6040516101ce9190611369565b6101c26101fa366004611396565b610550565b6002545b6040519081526020016101ce565b6101c261021f3660046113be565b610567565b60405160ff7f00000000000000000000000000000000000000000000000000000000000000001681526020016101ce565b6101c2610263366004611396565b61058a565b6101c261027636600461140c565b6105ab565b61028e610289366004611396565b61067b565b005b61028e61029e3660046114d8565b610766565b6101c26102b13660046114ef565b61079a565b61028e6102c43660046114ef565b6107a6565b6101c26102d7366004611396565b6107f4565b6102e4610806565b6040516101ce9190611508565b6102036102ff3660046114ef565b6001600160a01b03165f9081526020819052604090205490565b61028e610817565b61028e61032f366004611396565b6108c4565b6102e46108fa565b6005546001600160a01b03166040516101ce9190611553565b6101df610906565b61028e61036b366004611396565b610915565b6101c261037e366004611396565b61091f565b6101c2610391366004611396565b610999565b6101c26103a43660046114ef565b6109a6565b61028e6103b73660046114ef565b6109b2565b61028e6103ca3660046114ef565b610a00565b61028e6103dd3660046114ef565b610a0e565b7f0000000000000000000000000000000000000000000000000000000000000000610203565b61028e610416366004611396565b610a5c565b610203610429366004611567565b610a66565b61028e61043c3660046114ef565b610a90565b61028e61044f3660046114ef565b610aa1565b5f6001600160e01b031982166336372b0760e01b148061048457506001600160e01b03198216630200057560e51b145b8061049f57506001600160e01b0319821663e6599b4d60e01b145b806104ba57506001600160e01b031982166301ffc9a760e01b145b92915050565b6060600380546104cf90611598565b80601f01602080910402602001604051908101604052809291908181526020018280546104fb90611598565b80156105465780601f1061051d57610100808354040283529160200191610546565b820191905f5260205f20905b81548152906001019060200180831161052957829003601f168201915b5050505050905090565b5f3361055d818585610aef565b5060019392505050565b5f33610574858285610b15565b61057f858585610b87565b506001949350505050565b5f3361055d81858561059c8383610a66565b6105a691906115e4565b610aef565b5f6105b68484610999565b50836001600160a01b0316336001600160a01b03167fe19260aff97b920c7df27010903aeb9c8d2be5d310a2c67824cf3f15396e4c1685856040516105fc9291906115f7565b60405180910390a36001600160a01b0384163b1561055d57604051635260769b60e11b81526001600160a01b0385169063a4c0ed369061064490339087908790600401611617565b5f604051808303815f87803b15801561065b575f80fd5b505af115801561066d573d5f803e3d5ffd5b505050505060019392505050565b610684336109a6565b6106ac573360405163e2c8c9d560e01b81526004016106a39190611553565b60405180910390fd5b81306001600160a01b038216036106c1575f80fd5b7f00000000000000000000000000000000000000000000000000000000000000001580159061072257507f00000000000000000000000000000000000000000000000000000000000000008261071660025490565b61072091906115e4565b115b15610757578161073160025490565b61073b91906115e4565b60405163cbbf111360e01b81526004016106a391815260200190565b6107618383610ba7565b505050565b61076f3361079a565b61078e573360405163c820b10b60e01b81526004016106a39190611553565b61079781610c51565b50565b5f6104ba600983610c5b565b6107ae610c7c565b6107b9600982610cd1565b15610797576040516001600160a01b038216907f0a675452746933cefe3d74182e78db7afe57ba60eaa4234b5d85e9aa41b0610c905f90a250565b5f6107ff838361091f565b9392505050565b60606108126007610ce5565b905090565b6006546001600160a01b0316331461086a5760405162461bcd60e51b815260206004820152601660248201527526bab9ba10313290383937b837b9b2b21037bbb732b960511b60448201526064016106a3565b600580546001600160a01b0319808216339081179093556006805490911690556040516001600160a01b03909116919082907f8be0079c531659141344cd1fd0a4f28419497f9722a3daafe3b4186f6b6457e0905f90a350565b6108cd3361079a565b6108ec573360405163c820b10b60e01b81526004016106a39190611553565b6108f68282610cf1565b5050565b60606108126009610ce5565b6060600480546104cf90611598565b6108f682826108c4565b5f338161092c8286610a66565b90508381101561098c5760405162461bcd60e51b815260206004820152602560248201527f45524332303a2064656372656173656420616c6c6f77616e63652062656c6f77604482015264207a65726f60d81b60648201526084016106a3565b61057f8286868403610aef565b5f3361055d818585610b87565b5f6104ba600783610c5b565b6109ba610c7c565b6109c5600782610d06565b15610797576040516001600160a01b038216907fe46fef8bbff1389d9010703cf8ebb363fb3daf5bf56edc27080b67bc8d9251ea905f90a250565b610a09816109b2565b610797815b610a16610c7c565b610a21600982610d06565b15610797576040516001600160a01b038216907f92308bb7573b2a3d17ddb868b39d8ebec433f3194421abc22d084f89658c9bad905f90a250565b610761828261058a565b6001600160a01b039182165f90815260016020908152604080832093909416825291909152205490565b610a98610c7c565b61079781610d1a565b610aa9610c7c565b610ab4600782610cd1565b15610797576040516001600160a01b038216907fed998b960f6340d045f620c119730f7aa7995e7425c2401d3a5b64ff998a59e9905f90a250565b81306001600160a01b03821603610b04575f80fd5b610b0f848484610dbd565b50505050565b5f610b208484610a66565b90505f198114610b0f5781811015610b7a5760405162461bcd60e51b815260206004820152601d60248201527f45524332303a20696e73756666696369656e7420616c6c6f77616e636500000060448201526064016106a3565b610b0f8484848403610aef565b81306001600160a01b03821603610b9c575f80fd5b610b0f848484610ee0565b6001600160a01b038216610bfd5760405162461bcd60e51b815260206004820152601f60248201527f45524332303a206d696e7420746f20746865207a65726f20616464726573730060448201526064016106a3565b8060025f828254610c0e91906115e4565b90915550506001600160a01b0382165f81815260208181526040808320805486019055518481525f80516020611682833981519152910160405180910390a35050565b610797338261106f565b6001600160a01b0381165f90815260018301602052604081205415156107ff565b6005546001600160a01b03163314610ccf5760405162461bcd60e51b815260206004820152601660248201527527b7363c9031b0b63630b1363290313c9037bbb732b960511b60448201526064016106a3565b565b5f6107ff836001600160a01b03841661118c565b60605f6107ff8361126f565b610cfc823383610b15565b6108f6828261106f565b5f6107ff836001600160a01b0384166112c8565b336001600160a01b03821603610d6c5760405162461bcd60e51b815260206004820152601760248201527621b0b73737ba103a3930b739b332b9103a379039b2b63360491b60448201526064016106a3565b600680546001600160a01b0319166001600160a01b03838116918217909255600554604051919216907fed8889f560326eb138920d842192f0eb3dd22b4f139c87a2c57538e05bae1278905f90a350565b6001600160a01b038316610e1f5760405162461bcd60e51b8152602060048201526024808201527f45524332303a20617070726f76652066726f6d20746865207a65726f206164646044820152637265737360e01b60648201526084016106a3565b6001600160a01b038216610e805760405162461bcd60e51b815260206004820152602260248201527f45524332303a20617070726f766520746f20746865207a65726f206164647265604482015261737360f01b60648201526084016106a3565b6001600160a01b038381165f8181526001602090815260408083209487168084529482529182902085905590518481527f8c5be1e5ebec7d5bd14f71427d1e84f3dd0314c0f7b2291e5b200ac8c7c3b925910160405180910390a3505050565b6001600160a01b038316610f445760405162461bcd60e51b815260206004820152602560248201527f45524332303a207472616e736665722066726f6d20746865207a65726f206164604482015264647265737360d81b60648201526084016106a3565b6001600160a01b038216610fa65760405162461bcd60e51b815260206004820152602360248201527f45524332303a207472616e7366657220746f20746865207a65726f206164647260448201526265737360e81b60648201526084016106a3565b6001600160a01b0383165f908152602081905260409020548181101561101d5760405162461bcd60e51b815260206004820152602660248201527f45524332303a207472616e7366657220616d6f756e7420657863656564732062604482015265616c616e636560d01b60648201526084016106a3565b6001600160a01b038481165f81815260208181526040808320878703905593871680835291849020805487019055925185815290925f80516020611682833981519152910160405180910390a3610b0f565b6001600160a01b0382166110cf5760405162461bcd60e51b815260206004820152602160248201527f45524332303a206275726e2066726f6d20746865207a65726f206164647265736044820152607360f81b60648201526084016106a3565b6001600160a01b0382165f90815260208190526040902054818110156111425760405162461bcd60e51b815260206004820152602260248201527f45524332303a206275726e20616d6f756e7420657863656564732062616c616e604482015261636560f01b60648201526084016106a3565b6001600160a01b0383165f818152602081815260408083208686039055600280548790039055518581529192915f80516020611682833981519152910160405180910390a3505050565b5f8181526001830160205260408120548015611266575f6111ae600183611646565b85549091505f906111c190600190611646565b9050818114611220575f865f0182815481106111df576111df611659565b905f5260205f200154905080875f0184815481106111ff576111ff611659565b5f918252602080832090910192909255918252600188019052604090208390555b85548690806112315761123161166d565b600190038181905f5260205f20015f90559055856001015f8681526020019081526020015f205f9055600193505050506104ba565b5f9150506104ba565b6060815f018054806020026020016040519081016040528092919081815260200182805480156112bc57602002820191905f5260205f20905b8154815260200190600101908083116112a8575b50505050509050919050565b5f81815260018301602052604081205461130d57508154600181810184555f8481526020808220909301849055845484825282860190935260409020919091556104ba565b505f6104ba565b5f60208284031215611324575f80fd5b81356001600160e01b0319811681146107ff575f80fd5b5f81518084528060208401602086015e5f602082860101526020601f19601f83011685010191505092915050565b602081525f6107ff602083018461133b565b80356001600160a01b0381168114611391575f80fd5b919050565b5f80604083850312156113a7575f80fd5b6113b08361137b565b946020939093013593505050565b5f805f606084860312156113d0575f80fd5b6113d98461137b565b92506113e76020850161137b565b929592945050506040919091013590565b634e487b7160e01b5f52604160045260245ffd5b5f805f6060848603121561141e575f80fd5b6114278461137b565b925060208401359150604084013567ffffffffffffffff811115611449575f80fd5b8401601f81018613611459575f80fd5b803567ffffffffffffffff811115611473576114736113f8565b604051601f8201601f19908116603f0116810167ffffffffffffffff811182821017156114a2576114a26113f8565b6040528181528282016020018810156114b9575f80fd5b816020840160208301375f602083830101528093505050509250925092565b5f602082840312156114e8575f80fd5b5035919050565b5f602082840312156114ff575f80fd5b6107ff8261137b565b602080825282518282018190525f918401906040840190835b818110156115485783516001600160a01b0316835260209384019390920191600101611521565b509095945050505050565b6001600160a01b0391909116815260200190565b5f8060408385031215611578575f80fd5b6115818361137b565b915061158f6020840161137b565b90509250929050565b600181811c908216806115ac57607f821691505b6020821081036115ca57634e487b7160e01b5f52602260045260245ffd5b50919050565b634e487b7160e01b5f52601160045260245ffd5b808201808211156104ba576104ba6115d0565b828152604060208201525f61160f604083018461133b565b949350505050565b60018060a01b0384168152826020820152606060408201525f61163d606083018461133b565b95945050505050565b818103818111156104ba576104ba6115d0565b634e487b7160e01b5f52603260045260245ffd5b634e487b7160e01b5f52603160045260245ffdfeddf252ad1be2c89b69c2b068fc378daa952ba7f163c4a11628f55a4df523b3efa264697066735822122037746ed408a6c5d5c5884b62745ab048ea1dcbebabb9418bc6b57d972d664ee364736f6c634300081a0033","linkReferences":{}},"methodIdentifiers":{"acceptOwnership()":"79ba5097","allowance(address,address)":"dd62ed3e","approve(address,uint256)":"095ea7b3","balanceOf(address)":"70a08231","burn(address,uint256)":"9dc29fac","burn(uint256)":"42966c68","burnFrom(address,uint256)":"79cc6790","decimals()":"313ce567","decreaseAllowance(address,uint256)":"a457c2d7","decreaseApproval(address,uint256)":"66188463","getBurners()":"86fe8b43","getMinters()":"6b32810b","grantBurnRole(address)":"c64d0ebc","grantMintAndBurnRoles(address)":"c630948d","grantMintRole(address)":"c2e3273d","increaseAllowance(address,uint256)":"39509351","increaseApproval(address,uint256)":"d73dd623","isBurner(address)":"4334614a","isMinter(address)":"aa271e1a","maxSupply()":"d5abeb01","mint(address,uint256)":"40c10f19","name()":"06fdde03","owner()":"8da5cb5b","revokeBurnRole(address)":"4f5632f8","revokeMintRole(address)":"f81094f3","supportsInterface(bytes4)":"01ffc9a7","symbol()":"95d89b41","totalSupply()":"18160ddd","transfer(address,uint256)":"a9059cbb","transferAndCall(address,uint256,bytes)":"4000aea0","transferFrom(address,address,uint256)":"23b872dd","transferOwnership(address)":"f2fde38b"},"id":89}