{"abi":[{"type":"constructor","inputs":[{"name":"name","type":"string","internalType":"string"},{"name":"symbol","type":"string","internalType":"string"},{"name":"decimals_","type":"uint8","internalType":"uint8"},{"name":"maxSupply_","type":"uint256","internalType":"uint256"}],"stateMutability":"nonpayable"},{"type":"function","name":"acceptOwnership","inputs":[],"outputs":[],"stateMutability":"nonpayable"},{"type":"function","name":"allowance","inputs":[{"name":"owner","type":"address","internalType":"address"},{"name":"spender","type":"address","internalType":"address"}],"outputs":[{"name":"","type":"uint256","internalType":"uint256"}],"stateMutability":"view"},{"type":"function","name":"approve","inputs":[{"name":"spender","type":"address","internalType":"address"},{"name":"amount","type":"uint256","internalType":"uint256"}],"outputs":[{"name":"","type":"bool","internalType":"bool"}],"stateMutability":"nonpayable"},{"type":"function","name":"balanceOf","inputs":[{"name":"account","type":"address","internalType":"address"}],"outputs":[{"name":"","type":"uint256","internalType":"uint256"}],"stateMutability":"view"},{"type":"function","name":"burn","inputs":[{"name":"amount","type":"uint256","internalType":"uint256"}],"outputs":[],"stateMutability":"nonpayable"},{"type":"function","name":"burn","inputs":[{"name":"account","type":"address","internalType":"address"},{"name":"amount","type":"uint256","internalType":"uint256"}],"outputs":[],"stateMutability":"nonpayable"},{"type":"function","name":"burnFrom","inputs":[{"name":"account","type":"address","internalType":"address"},{"name":"amount","type":"uint256","internalType":"uint256"}],"outputs":[],"stateMutability":"nonpayable"},{"type":"function","name":"decimals","inputs":[],"outputs":[{"name":"","type":"uint8","internalType":"uint8"}],"stateMutability":"view"},{"type":"function","name":"decreaseAllowance","inputs":[{"name":"spender","type":"address","internalType":"address"},{"name":"subtractedValue","type":"uint256","internalType":"uint256"}],"outputs":[{"name":"","type":"bool","internalType":"bool"}],"stateMutability":"nonpayable"},{"type":"function","name":"decreaseApproval","inputs":[{"name":"spender","type":"address","internalType":"address"},{"name":"subtractedValue","type":"uint256","internalType":"uint256"}],"outputs":[{"name":"success","type":"bool","internalType":"bool"}],"stateMutability":"nonpayable"},{"type":"function","name":"getBurners","inputs":[],"outputs":[{"name":"","type":"address[]","internalType":"address[]"}],"stateMutability":"view"},{"type":"function","name":"getMinters","inputs":[],"outputs":[{"name":"","type":"address[]","internalType":"address[]"}],"stateMutability":"view"},{"type":"function","name":"grantBurnRole","inputs":[{"name":"burner","type":"address","internalType":"address"}],"outputs":[],"stateMutability":"nonpayable"},{"type":"function","name":"grantMintAndBurnRoles","inputs":[{"name":"burnAndMinter","type":"address","internalType":"address"}],"outputs":[],"stateMutability":"nonpayable"},{"type":"function","name":"grantMintRole","inputs":[{"name":"minter","type":"address","internalType":"address"}],"outputs":[],"stateMutability":"nonpayable"},{"type":"function","name":"increaseAllowance","inputs":[{"name":"spender","type":"address","internalType":"address"},{"name":"addedValue","type":"uint256","internalType":"uint256"}],"outputs":[{"name":"","type":"bool","internalType":"bool"}],"stateMutability":"nonpayable"},{"type":"function","name":"increaseApproval","inputs":[{"name":"spender","type":"address","internalType":"address"},{"name":"addedValue","type":"uint256","internalType":"uint256"}],"outputs":[],"stateMutability":"nonpayable"},{"type":"function","name":"isBurner","inputs":[{"name":"burner","type":"address","internalType":"address"}],"outputs":[{"name":"","type":"bool","internalType":"bool"}],"stateMutability":"view"},{"type":"function","name":"isMinter","inputs":[{"name":"minter","type":"address","internalType":"address"}],"outputs":[{"name":"","type":"bool","internalType":"bool"}],"stateMutability":"view"},{"type":"function","name":"maxSupply","inputs":[],"outputs":[{"name":"","type":"uint256","internalType":"uint256"}],"stateMutability":"view"},{"type":"function","name":"mint","inputs":[{"name":"account","type":"address","internalType":"address"},{"name":"amount","type":"uint256","internalType":"uint256"}],"outputs":[],"stateMutability":"nonpayable"},{"type":"function","name":"name","inputs":[],"outputs":[{"name":"","type":"string","internalType":"string"}],"stateMutability":"view"},{"type":"function","name":"owner","inputs":[],"outputs":[{"name":"","type":"address","internalType":"address"}],"stateMutability":"view"},{"type":"function","name":"revokeBurnRole","inputs":[{"name":"burner","type":"address","internalType":"address"}],"outputs":[],"stateMutability":"nonpayable"},{"type":"function","name":"revokeMintRole","inputs":[{"name":"minter","type":"address","internalType":"address"}],"outputs":[],"stateMutability":"nonpayable"},{"type":"function","name":"supportsInterface","inputs":[{"name":"interfaceId","type":"bytes4","internalType":"bytes4"}],"outputs":[{"name":"","type":"bool","internalType":"bool"}],"stateMutability":"pure"},{"type":"function","name":"symbol","inputs":[],"outputs":[{"name":"","type":"string","internalType":"string"}],"stateMutability":"view"},{"type":"function","name":"totalSupply","inputs":[],"outputs":[{"name":"","type":"uint256","internalType":"uint256"}],"stateMutability":"view"},{"type":"function","name":"transfer","inputs":[{"name":"to","type":"address","internalType":"address"},{"name":"amount","type":"uint256","internalType":"uint256"}],"outputs":[{"name":"","type":"bool","internalType":"bool"}],"stateMutability":"nonpayable"},{"type":"function","name":"transferAndCall","inputs":[{"name":"to","type":"address","internalType":"address"},{"name":"amount","type":"uint256","internalType":"uint256"},{"name":"data","type":"bytes","internalType":"bytes"}],"outputs":[{"name":"success","type":"bool","internalType":"bool"}],"stateMutability":"nonpayable"},{"type":"function","name":"transferFrom","inputs":[{"name":"from","type":"address","internalType":"address"},{"name":"to","type":"address","internalType":"address"},{"name":"amount","type":"uint256","internalType":"uint256"}],"outputs":[{"name":"","type":"bool","internalType":"bool"}],"stateMutability":"nonpayable"},{"type":"function","name":"transferOwnership","inputs":[{"name":"to","type":"address","internalType":"address"}],"outputs":[],"stateMutability":"nonpayable"},{"type":"event","name":"Approval","inputs":[{"name":"owner","type":"address","indexed":true,"internalType":"address"},{"name":"spender","type":"address","indexed":true,"internalType":"address"},{"name":"value","type":"uint256","indexed":false,"internalType":"uint256"}],"anonymous":false},{"type":"event","name":"BurnAccessGranted","inputs":[{"name":"burner","type":"address","indexed":true,"internalType":"address"}],"anonymous":false},{"type":"event","name":"BurnAccessRevoked","inputs":[{"name":"burner","type":"address","indexed":true,"internalType":"address"}],"anonymous":false},{"type":"event","name":"MintAccessGranted","inputs":[{"name":"minter","type":"address","indexed":true,"internalType":"address"}],"anonymous":false},{"type":"event","name":"MintAccessRevoked","inputs":[{"name":"minter","type":"address","indexed":true,"internalType":"address"}],"anonymous":false},{"type":"event","name":"OwnershipTransferRequested","inputs":[{"name":"from","type":"address","indexed":true,"internalType":"address"},{"name":"to","type":"address","indexed":true,"internalType":"address"}],"anonymous":false},{"type":"event","name":"OwnershipTransferred","inputs":[{"name":"from","type":"address","indexed":true,"internalType":"address"},{"name":"to","type":"address","indexed":true,"internalType":"address"}],"anonymous":false},{"type":"event","name":"Transfer","inputs":[{"name":"from","type":"address","indexed":true,"internalType":"address"},{"name":"to","type":"address","indexed":true,"internalType":"address"},{"name":"value","type":"uint256","indexed":false,"internalType":"uint256"},{"name":"data","type":"bytes","indexed":false,"internalType":"bytes"}],"anonymous":false},{"type":"event","name":"Transfer","inputs":[{"name":"from","type":"address","indexed":true,"internalType":"address"},{"name":"to","type":"address","indexed":true,"internalType":"address"},{"name":"value","type":"uint256","indexed":false,"internalType":"uint256"}],"anonymous":false},{"type":"error","name":"MaxSupplyExceeded","inputs":[{"name":"supplyAfterMint","type":"uint256","internalType":"uint256"}]},{"type":"error","name":"SenderNotBurner","inputs":[{"name":"sender","type":"address","internalType":"address"}]},{"type":"error","name":"SenderNotMinter","inputs":[{"name":"sender","type":"address","internalType":"address"}]}],"bytecode":{"object":"0x60c060405234801561001057600080fd5b5060405161384238038061384283398181016040528101906100329190610486565b33806000868681818160039081610049919061073c565b508060049081610059919061073c565b5050505050600073ffffffffffffffffffffffffffffffffffffffff168273ffffffffffffffffffffffffffffffffffffffff16036100cd576040517f08c379a00000000000000000000000000000000000000000000000000000000081526004016100c49061086b565b60405180910390fd5b81600560006101000a81548173ffffffffffffffffffffffffffffffffffffffff021916908373ffffffffffffffffffffffffffffffffffffffff160217905550600073ffffffffffffffffffffffffffffffffffffffff168173ffffffffffffffffffffffffffffffffffffffff1614610152576101518161017460201b60201c565b5b5050508160ff1660808160ff16815250508060a08181525050505050506108f7565b3373ffffffffffffffffffffffffffffffffffffffff168173ffffffffffffffffffffffffffffffffffffffff16036101e2576040517f08c379a00000000000000000000000000000000000000000000000000000000081526004016101d9906108d7565b60405180910390fd5b80600660006101000a81548173ffffffffffffffffffffffffffffffffffffffff021916908373ffffffffffffffffffffffffffffffffffffffff1602179055508073ffffffffffffffffffffffffffffffffffffffff16600560009054906101000a900473ffffffffffffffffffffffffffffffffffffffff1673ffffffffffffffffffffffffffffffffffffffff167fed8889f560326eb138920d842192f0eb3dd22b4f139c87a2c57538e05bae127860405160405180910390a350565b6000604051905090565b600080fd5b600080fd5b600080fd5b600080fd5b6000601f19601f8301169050919050565b7f4e487b7100000000000000000000000000000000000000000000000000000000600052604160045260246000fd5b610309826102c0565b810181811067ffffffffffffffff82111715610328576103276102d1565b5b80604052505050565b600061033b6102a2565b90506103478282610300565b919050565b600067ffffffffffffffff821115610367576103666102d1565b5b610370826102c0565b9050602081019050919050565b60005b8381101561039b578082015181840152602081019050610380565b60008484015250505050565b60006103ba6103b58461034c565b610331565b9050828152602081018484840111156103d6576103d56102bb565b5b6103e184828561037d565b509392505050565b600082601f8301126103fe576103fd6102b6565b5b815161040e8482602086016103a7565b91505092915050565b600060ff82169050919050565b61042d81610417565b811461043857600080fd5b50565b60008151905061044a81610424565b92915050565b6000819050919050565b61046381610450565b811461046e57600080fd5b50565b6000815190506104808161045a565b92915050565b600080600080608085870312156104a05761049f6102ac565b5b600085015167ffffffffffffffff8111156104be576104bd6102b1565b5b6104ca878288016103e9565b945050602085015167ffffffffffffffff8111156104eb576104ea6102b1565b5b6104f7878288016103e9565b93505060406105088782880161043b565b925050606061051987828801610471565b91505092959194509250565b600081519050919050565b7f4e487b7100000000000000000000000000000000000000000000000000000000600052602260045260246000fd5b6000600282049050600182168061057757607f821691505b60208210810361058a57610589610530565b5b50919050565b60008190508160005260206000209050919050565b60006020601f8301049050919050565b600082821b905092915050565b6000600883026105f27fffffffffffffffffffffffffffffffffffffffffffffffffffffffffffffffff826105b5565b6105fc86836105b5565b95508019841693508086168417925050509392505050565b6000819050919050565b600061063961063461062f84610450565b610614565b610450565b9050919050565b6000819050919050565b6106538361061e565b61066761065f82610640565b8484546105c2565b825550505050565b600090565b61067c61066f565b61068781848461064a565b505050565b5b818110156106ab576106a0600082610674565b60018101905061068d565b5050565b601f8211156106f0576106c181610590565b6106ca846105a5565b810160208510156106d9578190505b6106ed6106e5856105a5565b83018261068c565b50505b505050565b600082821c905092915050565b6000610713600019846008026106f5565b1980831691505092915050565b600061072c8383610702565b9150826002028217905092915050565b61074582610525565b67ffffffffffffffff81111561075e5761075d6102d1565b5b610768825461055f565b6107738282856106af565b600060209050601f8311600181146107a65760008415610794578287015190505b61079e8582610720565b865550610806565b601f1984166107b486610590565b60005b828110156107dc578489015182556001820191506020850194506020810190506107b7565b868310156107f957848901516107f5601f891682610702565b8355505b6001600288020188555050505b505050505050565b600082825260208201905092915050565b7f43616e6e6f7420736574206f776e657220746f207a65726f0000000000000000600082015250565b600061085560188361080e565b91506108608261081f565b602082019050919050565b6000602082019050818103600083015261088481610848565b9050919050565b7f43616e6e6f74207472616e7366657220746f2073656c66000000000000000000600082015250565b60006108c160178361080e565b91506108cc8261088b565b602082019050919050565b600060208201905081810360008301526108f0816108b4565b9050919050565b60805160a051612f1861092a60003960008181610ae801528181610b12015261115b015260006108f70152612f186000f3fe608060405234801561001057600080fd5b50600436106101f05760003560e01c806379cc67901161010f578063c2e3273d116100a2578063d73dd62311610071578063d73dd623146105df578063dd62ed3e146105fb578063f2fde38b1461062b578063f81094f314610647576101f0565b8063c2e3273d1461056d578063c630948d14610589578063c64d0ebc146105a5578063d5abeb01146105c1576101f0565b80639dc29fac116100de5780639dc29fac146104c1578063a457c2d7146104dd578063a9059cbb1461050d578063aa271e1a1461053d576101f0565b806379cc67901461044b57806386fe8b43146104675780638da5cb5b1461048557806395d89b41146104a3576101f0565b806340c10f1911610187578063661884631161015657806366188463146103c35780636b32810b146103f357806370a082311461041157806379ba509714610441576101f0565b806340c10f191461033f57806342966c681461035b5780634334614a146103775780634f5632f8146103a7576101f0565b806323b872dd116101c357806323b872dd14610291578063313ce567146102c157806339509351146102df5780634000aea01461030f576101f0565b806301ffc9a7146101f557806306fdde0314610225578063095ea7b31461024357806318160ddd14610273575b600080fd5b61020f600480360381019061020a9190612039565b610663565b60405161021c9190612081565b60405180910390f35b61022d610805565b60405161023a919061212c565b60405180910390f35b61025d600480360381019061025891906121e2565b610897565b60405161026a9190612081565b60405180910390f35b61027b6108ba565b6040516102889190612231565b60405180910390f35b6102ab60048036038101906102a6919061224c565b6108c4565b6040516102b89190612081565b60405180910390f35b6102c96108f3565b6040516102d691906122bb565b60405180910390f35b6102f960048036038101906102f491906121e2565b61091b565b6040516103069190612081565b60405180910390f35b6103296004803603810190610324919061240b565b610952565b6040516103369190612081565b60405180910390f35b610359600480360381019061035491906121e2565b610a61565b005b6103756004803603810190610370919061247a565b610ba9565b005b610391600480360381019061038c91906124a7565b610bff565b60405161039e9190612081565b60405180910390f35b6103c160048036038101906103bc91906124a7565b610c1c565b005b6103dd60048036038101906103d891906121e2565b610c84565b6040516103ea9190612081565b60405180910390f35b6103fb610c98565b6040516104089190612592565b60405180910390f35b61042b600480360381019061042691906124a7565b610ca9565b6040516104389190612231565b60405180910390f35b610449610cf1565b005b610465600480360381019061046091906121e2565b610e88565b005b61046f610ee0565b60405161047c9190612592565b60405180910390f35b61048d610ef1565b60405161049a91906125c3565b60405180910390f35b6104ab610f1b565b6040516104b8919061212c565b60405180910390f35b6104db60048036038101906104d691906121e2565b610fad565b005b6104f760048036038101906104f291906121e2565b610fbb565b6040516105049190612081565b60405180910390f35b610527600480360381019061052291906121e2565b611032565b6040516105349190612081565b60405180910390f35b610557600480360381019061055291906124a7565b611055565b6040516105649190612081565b60405180910390f35b610587600480360381019061058291906124a7565b611072565b005b6105a3600480360381019061059e91906124a7565b6110da565b005b6105bf60048036038101906105ba91906124a7565b6110ef565b005b6105c9611157565b6040516105d69190612231565b60405180910390f35b6105f960048036038101906105f491906121e2565b61117f565b005b610615600480360381019061061091906125de565b61118e565b6040516106229190612231565b60405180910390f35b610645600480360381019061064091906124a7565b611215565b005b610661600480360381019061065c91906124a7565b611229565b005b60007f36372b07000000000000000000000000000000000000000000000000000000007bffffffffffffffffffffffffffffffffffffffffffffffffffffffff1916827bffffffffffffffffffffffffffffffffffffffffffffffffffffffff1916148061072e57507f4000aea0000000000000000000000000000000000000000000000000000000007bffffffffffffffffffffffffffffffffffffffffffffffffffffffff1916827bffffffffffffffffffffffffffffffffffffffffffffffffffffffff1916145b8061079657507fe6599b4d000000000000000000000000000000000000000000000000000000007bffffffffffffffffffffffffffffffffffffffffffffffffffffffff1916827bffffffffffffffffffffffffffffffffffffffffffffffffffffffff1916145b806107fe57507f01ffc9a7000000000000000000000000000000000000000000000000000000007bffffffffffffffffffffffffffffffffffffffffffffffffffffffff1916827bffffffffffffffffffffffffffffffffffffffffffffffffffffffff1916145b9050919050565b6060600380546108149061264d565b80601f01602080910402602001604051908101604052809291908181526020018280546108409061264d565b801561088d5780601f106108625761010080835404028352916020019161088d565b820191906000526020600020905b81548152906001019060200180831161087057829003601f168201915b5050505050905090565b6000806108a2611291565b90506108af818585611299565b600191505092915050565b6000600254905090565b6000806108cf611291565b90506108dc8582856112e3565b6108e785858561136f565b60019150509392505050565b60007f0000000000000000000000000000000000000000000000000000000000000000905090565b600080610926611291565b9050610947818585610938858961118e565b61094291906126ad565b611299565b600191505092915050565b600061095e8484611032565b508373ffffffffffffffffffffffffffffffffffffffff163373ffffffffffffffffffffffffffffffffffffffff167fe19260aff97b920c7df27010903aeb9c8d2be5d310a2c67824cf3f15396e4c1685856040516109be929190612736565b60405180910390a360008473ffffffffffffffffffffffffffffffffffffffff163b1115610a56578373ffffffffffffffffffffffffffffffffffffffff1663a4c0ed363385856040518463ffffffff1660e01b8152600401610a2393929190612766565b600060405180830381600087803b158015610a3d57600080fd5b505af1158015610a51573d6000803e3d6000fd5b505050505b600190509392505050565b610a6a33611055565b610aab57336040517fe2c8c9d5000000000000000000000000000000000000000000000000000000008152600401610aa291906125c3565b60405180910390fd5b813073ffffffffffffffffffffffffffffffffffffffff168173ffffffffffffffffffffffffffffffffffffffff1603610ae457600080fd5b60007f000000000000000000000000000000000000000000000000000000000000000014158015610b4657507f000000000000000000000000000000000000000000000000000000000000000082610b3a6108ba565b610b4491906126ad565b115b15610b9a5781610b546108ba565b610b5e91906126ad565b6040517fcbbf1113000000000000000000000000000000000000000000000000000000008152600401610b919190612231565b60405180910390fd5b610ba483836113b9565b505050565b610bb233610bff565b610bf357336040517fc820b10b000000000000000000000000000000000000000000000000000000008152600401610bea91906125c3565b60405180910390fd5b610bfc8161150f565b50565b6000610c1582600961152390919063ffffffff16565b9050919050565b610c24611553565b610c388160096115e590919063ffffffff16565b15610c81578073ffffffffffffffffffffffffffffffffffffffff167f0a675452746933cefe3d74182e78db7afe57ba60eaa4234b5d85e9aa41b0610c60405160405180910390a25b50565b6000610c908383610fbb565b905092915050565b6060610ca46007611615565b905090565b60008060008373ffffffffffffffffffffffffffffffffffffffff1673ffffffffffffffffffffffffffffffffffffffff168152602001908152602001600020549050919050565b600660009054906101000a900473ffffffffffffffffffffffffffffffffffffffff1673ffffffffffffffffffffffffffffffffffffffff163373ffffffffffffffffffffffffffffffffffffffff1614610d81576040517f08c379a0000000000000000000000000000000000000000000000000000000008152600401610d78906127f0565b60405180910390fd5b6000600560009054906101000a900473ffffffffffffffffffffffffffffffffffffffff16905033600560006101000a81548173ffffffffffffffffffffffffffffffffffffffff021916908373ffffffffffffffffffffffffffffffffffffffff1602179055506000600660006101000a81548173ffffffffffffffffffffffffffffffffffffffff021916908373ffffffffffffffffffffffffffffffffffffffff1602179055503373ffffffffffffffffffffffffffffffffffffffff168173ffffffffffffffffffffffffffffffffffffffff167f8be0079c531659141344cd1fd0a4f28419497f9722a3daafe3b4186f6b6457e060405160405180910390a350565b610e9133610bff565b610ed257336040517fc820b10b000000000000000000000000000000000000000000000000000000008152600401610ec991906125c3565b60405180910390fd5b610edc8282611636565b5050565b6060610eec6009611615565b905090565b6000600560009054906101000a900473ffffffffffffffffffffffffffffffffffffffff16905090565b606060048054610f2a9061264d565b80601f0160208091040260200160405190810160405280929190818152602001828054610f569061264d565b8015610fa35780601f10610f7857610100808354040283529160200191610fa3565b820191906000526020600020905b815481529060010190602001808311610f8657829003601f168201915b5050505050905090565b610fb78282610e88565b5050565b600080610fc6611291565b90506000610fd4828661118e565b905083811015611019576040517f08c379a000000000000000000000000000000000000000000000000000000000815260040161101090612882565b60405180910390fd5b6110268286868403611299565b60019250505092915050565b60008061103d611291565b905061104a81858561136f565b600191505092915050565b600061106b82600761152390919063ffffffff16565b9050919050565b61107a611553565b61108e81600761165690919063ffffffff16565b156110d7578073ffffffffffffffffffffffffffffffffffffffff167fe46fef8bbff1389d9010703cf8ebb363fb3daf5bf56edc27080b67bc8d9251ea60405160405180910390a25b50565b6110e381611072565b6110ec816110ef565b50565b6110f7611553565b61110b81600961165690919063ffffffff16565b15611154578073ffffffffffffffffffffffffffffffffffffffff167f92308bb7573b2a3d17ddb868b39d8ebec433f3194421abc22d084f89658c9bad60405160405180910390a25b50565b60007f0000000000000000000000000000000000000000000000000000000000000000905090565b611189828261091b565b505050565b6000600160008473ffffffffffffffffffffffffffffffffffffffff1673ffffffffffffffffffffffffffffffffffffffff16815260200190815260200160002060008373ffffffffffffffffffffffffffffffffffffffff1673ffffffffffffffffffffffffffffffffffffffff16815260200190815260200160002054905092915050565b61121d611553565b61122681611686565b50565b611231611553565b6112458160076115e590919063ffffffff16565b1561128e578073ffffffffffffffffffffffffffffffffffffffff167fed998b960f6340d045f620c119730f7aa7995e7425c2401d3a5b64ff998a59e960405160405180910390a25b50565b600033905090565b813073ffffffffffffffffffffffffffffffffffffffff168173ffffffffffffffffffffffffffffffffffffffff16036112d257600080fd5b6112dd8484846117b4565b50505050565b60006112ef848461118e565b90507fffffffffffffffffffffffffffffffffffffffffffffffffffffffffffffffff8114611369578181101561135b576040517f08c379a0000000000000000000000000000000000000000000000000000000008152600401611352906128ee565b60405180910390fd5b6113688484848403611299565b5b50505050565b813073ffffffffffffffffffffffffffffffffffffffff168173ffffffffffffffffffffffffffffffffffffffff16036113a857600080fd5b6113b384848461197d565b50505050565b600073ffffffffffffffffffffffffffffffffffffffff168273ffffffffffffffffffffffffffffffffffffffff1603611428576040517f08c379a000000000000000000000000000000000000000000000000000000000815260040161141f9061295a565b60405180910390fd5b61143460008383611bf3565b806002600082825461144691906126ad565b92505081905550806000808473ffffffffffffffffffffffffffffffffffffffff1673ffffffffffffffffffffffffffffffffffffffff168152602001908152602001600020600082825401925050819055508173ffffffffffffffffffffffffffffffffffffffff16600073ffffffffffffffffffffffffffffffffffffffff167fddf252ad1be2c89b69c2b068fc378daa952ba7f163c4a11628f55a4df523b3ef836040516114f79190612231565b60405180910390a361150b60008383611bf8565b5050565b61152061151a611291565b82611bfd565b50565b600061154b836000018373ffffffffffffffffffffffffffffffffffffffff1660001b611dca565b905092915050565b600560009054906101000a900473ffffffffffffffffffffffffffffffffffffffff1673ffffffffffffffffffffffffffffffffffffffff163373ffffffffffffffffffffffffffffffffffffffff16146115e3576040517f08c379a00000000000000000000000000000000000000000000000000000000081526004016115da906129c6565b60405180910390fd5b565b600061160d836000018373ffffffffffffffffffffffffffffffffffffffff1660001b611ded565b905092915050565b6060600061162583600001611f01565b905060608190508092505050919050565b61164882611642611291565b836112e3565b6116528282611bfd565b5050565b600061167e836000018373ffffffffffffffffffffffffffffffffffffffff1660001b611f5d565b905092915050565b3373ffffffffffffffffffffffffffffffffffffffff168173ffffffffffffffffffffffffffffffffffffffff16036116f4576040517f08c379a00000000000000000000000000000000000000000000000000000000081526004016116eb90612a32565b60405180910390fd5b80600660006101000a81548173ffffffffffffffffffffffffffffffffffffffff021916908373ffffffffffffffffffffffffffffffffffffffff1602179055508073ffffffffffffffffffffffffffffffffffffffff16600560009054906101000a900473ffffffffffffffffffffffffffffffffffffffff1673ffffffffffffffffffffffffffffffffffffffff167fed8889f560326eb138920d842192f0eb3dd22b4f139c87a2c57538e05bae127860405160405180910390a350565b600073ffffffffffffffffffffffffffffffffffffffff168373ffffffffffffffffffffffffffffffffffffffff1603611823576040517f08c379a000000000000000000000000000000000000000000000000000000000815260040161181a90612ac4565b60405180910390fd5b600073ffffffffffffffffffffffffffffffffffffffff168273ffffffffffffffffffffffffffffffffffffffff1603611892576040517f08c379a000000000000000000000000000000000000000000000000000000000815260040161188990612b56565b60405180910390fd5b80600160008573ffffffffffffffffffffffffffffffffffffffff1673ffffffffffffffffffffffffffffffffffffffff16815260200190815260200160002060008473ffffffffffffffffffffffffffffffffffffffff1673ffffffffffffffffffffffffffffffffffffffff168152602001908152602001600020819055508173ffffffffffffffffffffffffffffffffffffffff168373ffffffffffffffffffffffffffffffffffffffff167f8c5be1e5ebec7d5bd14f71427d1e84f3dd0314c0f7b2291e5b200ac8c7c3b925836040516119709190612231565b60405180910390a3505050565b600073ffffffffffffffffffffffffffffffffffffffff168373ffffffffffffffffffffffffffffffffffffffff16036119ec576040517f08c379a00000000000000000000000000000000000000000000000000000000081526004016119e390612be8565b60405180910390fd5b600073ffffffffffffffffffffffffffffffffffffffff168273ffffffffffffffffffffffffffffffffffffffff1603611a5b576040517f08c379a0000000000000000000000000000000000000000000000000000000008152600401611a5290612c7a565b60405180910390fd5b611a66838383611bf3565b60008060008573ffffffffffffffffffffffffffffffffffffffff1673ffffffffffffffffffffffffffffffffffffffff16815260200190815260200160002054905081811015611aec576040517f08c379a0000000000000000000000000000000000000000000000000000000008152600401611ae390612d0c565b60405180910390fd5b8181036000808673ffffffffffffffffffffffffffffffffffffffff1673ffffffffffffffffffffffffffffffffffffffff16815260200190815260200160002081905550816000808573ffffffffffffffffffffffffffffffffffffffff1673ffffffffffffffffffffffffffffffffffffffff168152602001908152602001600020600082825401925050819055508273ffffffffffffffffffffffffffffffffffffffff168473ffffffffffffffffffffffffffffffffffffffff167fddf252ad1be2c89b69c2b068fc378daa952ba7f163c4a11628f55a4df523b3ef84604051611bda9190612231565b60405180910390a3611bed848484611bf8565b50505050565b505050565b505050565b600073ffffffffffffffffffffffffffffffffffffffff168273ffffffffffffffffffffffffffffffffffffffff1603611c6c576040517f08c379a0000000000000000000000000000000000000000000000000000000008152600401611c6390612d9e565b60405180910390fd5b611c7882600083611bf3565b60008060008473ffffffffffffffffffffffffffffffffffffffff1673ffffffffffffffffffffffffffffffffffffffff16815260200190815260200160002054905081811015611cfe576040517f08c379a0000000000000000000000000000000000000000000000000000000008152600401611cf590612e30565b60405180910390fd5b8181036000808573ffffffffffffffffffffffffffffffffffffffff1673ffffffffffffffffffffffffffffffffffffffff1681526020019081526020016000208190555081600260008282540392505081905550600073ffffffffffffffffffffffffffffffffffffffff168373ffffffffffffffffffffffffffffffffffffffff167fddf252ad1be2c89b69c2b068fc378daa952ba7f163c4a11628f55a4df523b3ef84604051611db19190612231565b60405180910390a3611dc583600084611bf8565b505050565b600080836001016000848152602001908152602001600020541415905092915050565b60008083600101600084815260200190815260200160002054905060008114611ef5576000600182611e1f9190612e50565b9050600060018660000180549050611e379190612e50565b9050818114611ea6576000866000018281548110611e5857611e57612e84565b5b9060005260206000200154905080876000018481548110611e7c57611e7b612e84565b5b90600052602060002001819055508387600101600083815260200190815260200160002081905550505b85600001805480611eba57611eb9612eb3565b5b600190038181906000526020600020016000905590558560010160008681526020019081526020016000206000905560019350505050611efb565b60009150505b92915050565b606081600001805480602002602001604051908101604052809291908181526020018280548015611f5157602002820191906000526020600020905b815481526020019060010190808311611f3d575b50505050509050919050565b6000611f698383611dca565b611fc2578260000182908060018154018082558091505060019003906000526020600020016000909190919091505582600001805490508360010160008481526020019081526020016000208190555060019050611fc7565b600090505b92915050565b6000604051905090565b600080fd5b600080fd5b60007fffffffff0000000000000000000000000000000000000000000000000000000082169050919050565b61201681611fe1565b811461202157600080fd5b50565b6000813590506120338161200d565b92915050565b60006020828403121561204f5761204e611fd7565b5b600061205d84828501612024565b91505092915050565b60008115159050919050565b61207b81612066565b82525050565b60006020820190506120966000830184612072565b92915050565b600081519050919050565b600082825260208201905092915050565b60005b838110156120d65780820151818401526020810190506120bb565b60008484015250505050565b6000601f19601f8301169050919050565b60006120fe8261209c565b61210881856120a7565b93506121188185602086016120b8565b612121816120e2565b840191505092915050565b6000602082019050818103600083015261214681846120f3565b905092915050565b600073ffffffffffffffffffffffffffffffffffffffff82169050919050565b60006121798261214e565b9050919050565b6121898161216e565b811461219457600080fd5b50565b6000813590506121a681612180565b92915050565b6000819050919050565b6121bf816121ac565b81146121ca57600080fd5b50565b6000813590506121dc816121b6565b92915050565b600080604083850312156121f9576121f8611fd7565b5b600061220785828601612197565b9250506020612218858286016121cd565b9150509250929050565b61222b816121ac565b82525050565b60006020820190506122466000830184612222565b92915050565b60008060006060848603121561226557612264611fd7565b5b600061227386828701612197565b935050602061228486828701612197565b9250506040612295868287016121cd565b9150509250925092565b600060ff82169050919050565b6122b58161229f565b82525050565b60006020820190506122d060008301846122ac565b92915050565b600080fd5b600080fd5b7f4e487b7100000000000000000000000000000000000000000000000000000000600052604160045260246000fd5b612318826120e2565b810181811067ffffffffffffffff82111715612337576123366122e0565b5b80604052505050565b600061234a611fcd565b9050612356828261230f565b919050565b600067ffffffffffffffff821115612376576123756122e0565b5b61237f826120e2565b9050602081019050919050565b82818337600083830152505050565b60006123ae6123a98461235b565b612340565b9050828152602081018484840111156123ca576123c96122db565b5b6123d584828561238c565b509392505050565b600082601f8301126123f2576123f16122d6565b5b813561240284826020860161239b565b91505092915050565b60008060006060848603121561242457612423611fd7565b5b600061243286828701612197565b9350506020612443868287016121cd565b925050604084013567ffffffffffffffff81111561246457612463611fdc565b5b612470868287016123dd565b9150509250925092565b6000602082840312156124905761248f611fd7565b5b600061249e848285016121cd565b91505092915050565b6000602082840312156124bd576124bc611fd7565b5b60006124cb84828501612197565b91505092915050565b600081519050919050565b600082825260208201905092915050565b6000819050602082019050919050565b6125098161216e565b82525050565b600061251b8383612500565b60208301905092915050565b6000602082019050919050565b600061253f826124d4565b61254981856124df565b9350612554836124f0565b8060005b8381101561258557815161256c888261250f565b975061257783612527565b925050600181019050612558565b5085935050505092915050565b600060208201905081810360008301526125ac8184612534565b905092915050565b6125bd8161216e565b82525050565b60006020820190506125d860008301846125b4565b92915050565b600080604083850312156125f5576125f4611fd7565b5b600061260385828601612197565b925050602061261485828601612197565b9150509250929050565b7f4e487b7100000000000000000000000000000000000000000000000000000000600052602260045260246000fd5b6000600282049050600182168061266557607f821691505b6020821081036126785761267761261e565b5b50919050565b7f4e487b7100000000000000000000000000000000000000000000000000000000600052601160045260246000fd5b60006126b8826121ac565b91506126c3836121ac565b92508282019050808211156126db576126da61267e565b5b92915050565b600081519050919050565b600082825260208201905092915050565b6000612708826126e1565b61271281856126ec565b93506127228185602086016120b8565b61272b816120e2565b840191505092915050565b600060408201905061274b6000830185612222565b818103602083015261275d81846126fd565b90509392505050565b600060608201905061277b60008301866125b4565b6127886020830185612222565b818103604083015261279a81846126fd565b9050949350505050565b7f4d7573742062652070726f706f736564206f776e657200000000000000000000600082015250565b60006127da6016836120a7565b91506127e5826127a4565b602082019050919050565b60006020820190508181036000830152612809816127cd565b9050919050565b7f45524332303a2064656372656173656420616c6c6f77616e63652062656c6f7760008201527f207a65726f000000000000000000000000000000000000000000000000000000602082015250565b600061286c6025836120a7565b915061287782612810565b604082019050919050565b6000602082019050818103600083015261289b8161285f565b9050919050565b7f45524332303a20696e73756666696369656e7420616c6c6f77616e6365000000600082015250565b60006128d8601d836120a7565b91506128e3826128a2565b602082019050919050565b60006020820190508181036000830152612907816128cb565b9050919050565b7f45524332303a206d696e7420746f20746865207a65726f206164647265737300600082015250565b6000612944601f836120a7565b915061294f8261290e565b602082019050919050565b6000602082019050818103600083015261297381612937565b9050919050565b7f4f6e6c792063616c6c61626c65206279206f776e657200000000000000000000600082015250565b60006129b06016836120a7565b91506129bb8261297a565b602082019050919050565b600060208201905081810360008301526129df816129a3565b9050919050565b7f43616e6e6f74207472616e7366657220746f2073656c66000000000000000000600082015250565b6000612a1c6017836120a7565b9150612a27826129e6565b602082019050919050565b60006020820190508181036000830152612a4b81612a0f565b9050919050565b7f45524332303a20617070726f76652066726f6d20746865207a65726f2061646460008201527f7265737300000000000000000000000000000000000000000000000000000000602082015250565b6000612aae6024836120a7565b9150612ab982612a52565b604082019050919050565b60006020820190508181036000830152612add81612aa1565b9050919050565b7f45524332303a20617070726f766520746f20746865207a65726f20616464726560008201527f7373000000000000000000000000000000000000000000000000000000000000602082015250565b6000612b406022836120a7565b9150612b4b82612ae4565b604082019050919050565b60006020820190508181036000830152612b6f81612b33565b9050919050565b7f45524332303a207472616e736665722066726f6d20746865207a65726f20616460008201527f6472657373000000000000000000000000000000000000000000000000000000602082015250565b6000612bd26025836120a7565b9150612bdd82612b76565b604082019050919050565b60006020820190508181036000830152612c0181612bc5565b9050919050565b7f45524332303a207472616e7366657220746f20746865207a65726f206164647260008201527f6573730000000000000000000000000000000000000000000000000000000000602082015250565b6000612c646023836120a7565b9150612c6f82612c08565b604082019050919050565b60006020820190508181036000830152612c9381612c57565b9050919050565b7f45524332303a207472616e7366657220616d6f756e742065786365656473206260008201527f616c616e63650000000000000000000000000000000000000000000000000000602082015250565b6000612cf66026836120a7565b9150612d0182612c9a565b604082019050919050565b60006020820190508181036000830152612d2581612ce9565b9050919050565b7f45524332303a206275726e2066726f6d20746865207a65726f2061646472657360008201527f7300000000000000000000000000000000000000000000000000000000000000602082015250565b6000612d886021836120a7565b9150612d9382612d2c565b604082019050919050565b60006020820190508181036000830152612db781612d7b565b9050919050565b7f45524332303a206275726e20616d6f756e7420657863656564732062616c616e60008201527f6365000000000000000000000000000000000000000000000000000000000000602082015250565b6000612e1a6022836120a7565b9150612e2582612dbe565b604082019050919050565b60006020820190508181036000830152612e4981612e0d565b9050919050565b6000612e5b826121ac565b9150612e66836121ac565b9250828203905081811115612e7e57612e7d61267e565b5b92915050565b7f4e487b7100000000000000000000000000000000000000000000000000000000600052603260045260246000fd5b7f4e487b7100000000000000000000000000000000000000000000000000000000600052603160045260246000fdfea26469706673582212208dab7621a69c274518c55094607a4df542b23f4d87208114ed3ec081d719e8cc64736f6c634300081a0033","linkReferences":{}},"methodIdentifiers":{"acceptOwnership()":"79ba5097","allowance(address,address)":"dd62ed3e","approve(address,uint256)":"095ea7b3","balanceOf(address)":"70a08231","burn(address,uint256)":"9dc29fac","burn(uint256)":"42966c68","burnFrom(address,uint256)":"79cc6790","decimals()":"313ce567","decreaseAllowance(address,uint256)":"a457c2d7","decreaseApproval(address,uint256)":"66188463","getBurners()":"86fe8b43","getMinters()":"6b32810b","grantBurnRole(address)":"c64d0ebc","grantMintAndBurnRoles(address)":"c630948d","grantMintRole(address)":"c2e3273d","increaseAllowance(address,uint256)":"39509351","increaseApproval(address,uint256)":"d73dd623","isBurner(address)":"4334614a","isMinter(address)":"aa271e1a","maxSupply()":"d5abeb01","mint(address,uint256)":"40c10f19","name()":"06fdde03","owner()":"8da5cb5b","revokeBurnRole(address)":"4f5632f8","revokeMintRole(address)":"f81094f3","supportsInterface(bytes4)":"01ffc9a7","symbol()":"95d89b41","totalSupply()":"18160ddd","transfer(address,uint256)":"a9059cbb","transferAndCall(address,uint256,bytes)":"4000aea0","transferFrom(address,address,uint256)":"23b872dd","transferOwnership(address)":"f2fde38b"},"id":86}