{"abi":[{"type":"function","name":"EVM_EXTRA_ARGS_V1_TAG","inputs":[],"outputs":[{"name":"","type":"bytes4","internalType":"bytes4"}],"stateMutability":"view"},{"type":"function","name":"EVM_EXTRA_ARGS_V2_TAG","inputs":[],"outputs":[{"name":"","type":"bytes4","internalType":"bytes4"}],"stateMutability":"view"}],"bytecode":{"object":"0x60af610039600b82828239805160001a60731461002c57634e487b7160e01b600052600060045260246000fd5b30600052607381538281f3fe7300000000000000000000000000000000000000003014608060405260043610603d5760003560e01c80633ab8c0d01460425780638113c57814606c575b600080fd5b604f6397a657c960e01b81565b6040516001600160e01b0319909116815260200160405180910390f35b604f630181dcf160e41b8156fea2646970667358221220ce2c05650f82de3875a071df45e5a24174d1b275dd0cabaca071e980746e47f364736f6c63430008070033","linkReferences":{}},"methodIdentifiers":{"EVM_EXTRA_ARGS_V1_TAG()":"3ab8c0d0","EVM_EXTRA_ARGS_V2_TAG()":"8113c578"},"id":59}