{"abi":[{"type":"function","name":"EVM_EXTRA_ARGS_V1_TAG","inputs":[],"outputs":[{"name":"","type":"bytes4","internalType":"bytes4"}],"stateMutability":"view"},{"type":"function","name":"EVM_EXTRA_ARGS_V2_TAG","inputs":[],"outputs":[{"name":"","type":"bytes4","internalType":"bytes4"}],"stateMutability":"view"}],"bytecode":{"object":"0x610114610053600b82828239805160001a607314610046577f4e487b7100000000000000000000000000000000000000000000000000000000600052600060045260246000fd5b30600052607381538281f3fe7300000000000000000000000000000000000000003014608060405260043610603d5760003560e01c80633ab8c0d01460425780638113c57814605c575b600080fd5b60486076565b604051605391906099565b60405180910390f35b60626081565b604051606d91906099565b60405180910390f35b6397a657c960e01b81565b63181dcf1060e01b81565b60938160b2565b82525050565b600060208201905060ac6000830184608c565b92915050565b60007fffffffff000000000000000000000000000000000000000000000000000000008216905091905056fea26469706673582212206cfc42f8a5b9bfcf9eae934589e35c08b1fcded53e4c4a01980cb740e23c01c564736f6c63430008070033","linkReferences":{}},"methodIdentifiers":{"EVM_EXTRA_ARGS_V1_TAG()":"3ab8c0d0","EVM_EXTRA_ARGS_V2_TAG()":"8113c578"},"id":57}