{"abi":[{"type":"function","name":"encodePath","inputs":[{"name":"tokens","type":"address[]","internalType":"address[]"},{"name":"fees","type":"uint24[]","internalType":"uint24[]"}],"outputs":[{"name":"path","type":"bytes","internalType":"bytes"}],"stateMutability":"pure"}],"bytecode":{"object":"0x610460610034600b8282823980515f1a607314602857634e487b7160e01b5f525f60045260245ffd5b305f52607381538281f3fe7300000000000000000000000000000000000000003014608060405260043610610034575f3560e01c80632186620514610038575b5f80fd5b61004b61004636600461025a565b610061565b604051610058919061032a565b60405180910390f35b6060815160016100719190610373565b8351146100bb5760405162461bcd60e51b8152602060048201526014602482015273496e76616c696420696e7075742061727261797360601b604482015260640160405180910390fd5b5f5b825181101561012757818482815181106100d9576100d961038c565b60200260200101518483815181106100f3576100f361038c565b602002602001015160405160200161010d939291906103b7565b60408051601f1981840301815291905291506001016100bd565b5080836001855161013891906103f0565b815181106101485761014861038c565b6020026020010151604051602001610161929190610403565b604051602081830303815290604052905092915050565b634e487b7160e01b5f52604160045260245ffd5b604051601f8201601f1916810167ffffffffffffffff811182821017156101b5576101b5610178565b604052919050565b5f67ffffffffffffffff8211156101d6576101d6610178565b5060051b60200190565b5f82601f8301126101ef575f80fd5b81356102026101fd826101bd565b61018c565b8082825260208201915060208360051b860101925085831115610223575f80fd5b602085015b8381101561025057803562ffffff81168114610242575f80fd5b835260209283019201610228565b5095945050505050565b5f806040838503121561026b575f80fd5b823567ffffffffffffffff811115610281575f80fd5b8301601f81018513610291575f80fd5b803561029f6101fd826101bd565b8082825260208201915060208360051b8501019250878311156102c0575f80fd5b6020840193505b828410156102f65783356001600160a01b03811681146102e5575f80fd5b8252602093840193909101906102c7565b9450505050602083013567ffffffffffffffff811115610314575f80fd5b610320858286016101e0565b9150509250929050565b602081525f82518060208401528060208501604085015e5f604082850101526040601f19601f83011684010191505092915050565b634e487b7160e01b5f52601160045260245ffd5b808201808211156103865761038661035f565b92915050565b634e487b7160e01b5f52603260045260245ffd5b5f81518060208401855e5f93019283525090919050565b5f6103c282866103a0565b60609490941b6001600160601b0319168452505060e81b6001600160e81b0319166014820152601701919050565b818103818111156103865761038661035f565b5f61040e82856103a0565b60609390931b6001600160601b0319168352505060140191905056fea264697066735822122066e580eb5dea315a37715c7bdd060722d15a8cf69b6ac7e39d5e68a96f94016c64736f6c634300081a0033","linkReferences":{}},"methodIdentifiers":{"encodePath(address[],uint24[])":"21866205"},"id":28}