{"abi":[{"type":"constructor","inputs":[{"name":"name","type":"string","internalType":"string"},{"name":"symbol","type":"string","internalType":"string"}],"stateMutability":"nonpayable"},{"type":"function","name":"acceptOwnership","inputs":[],"outputs":[],"stateMutability":"nonpayable"},{"type":"function","name":"allowance","inputs":[{"name":"owner","type":"address","internalType":"address"},{"name":"spender","type":"address","internalType":"address"}],"outputs":[{"name":"","type":"uint256","internalType":"uint256"}],"stateMutability":"view"},{"type":"function","name":"approve","inputs":[{"name":"spender","type":"address","internalType":"address"},{"name":"amount","type":"uint256","internalType":"uint256"}],"outputs":[{"name":"","type":"bool","internalType":"bool"}],"stateMutability":"nonpayable"},{"type":"function","name":"balanceOf","inputs":[{"name":"account","type":"address","internalType":"address"}],"outputs":[{"name":"","type":"uint256","internalType":"uint256"}],"stateMutability":"view"},{"type":"function","name":"burn","inputs":[{"name":"amount","type":"uint256","internalType":"uint256"}],"outputs":[],"stateMutability":"nonpayable"},{"type":"function","name":"burn","inputs":[{"name":"account","type":"address","internalType":"address"},{"name":"amount","type":"uint256","internalType":"uint256"}],"outputs":[],"stateMutability":"nonpayable"},{"type":"function","name":"burnFrom","inputs":[{"name":"account","type":"address","internalType":"address"},{"name":"amount","type":"uint256","internalType":"uint256"}],"outputs":[],"stateMutability":"nonpayable"},{"type":"function","name":"decimals","inputs":[],"outputs":[{"name":"","type":"uint8","internalType":"uint8"}],"stateMutability":"view"},{"type":"function","name":"decreaseAllowance","inputs":[{"name":"spender","type":"address","internalType":"address"},{"name":"subtractedValue","type":"uint256","internalType":"uint256"}],"outputs":[{"name":"","type":"bool","internalType":"bool"}],"stateMutability":"nonpayable"},{"type":"function","name":"decreaseApproval","inputs":[{"name":"spender","type":"address","internalType":"address"},{"name":"subtractedValue","type":"uint256","internalType":"uint256"}],"outputs":[{"name":"success","type":"bool","internalType":"bool"}],"stateMutability":"nonpayable"},{"type":"function","name":"drip","inputs":[{"name":"to","type":"address","internalType":"address"}],"outputs":[],"stateMutability":"nonpayable"},{"type":"function","name":"getBurners","inputs":[],"outputs":[{"name":"","type":"address[]","internalType":"address[]"}],"stateMutability":"view"},{"type":"function","name":"getMinters","inputs":[],"outputs":[{"name":"","type":"address[]","internalType":"address[]"}],"stateMutability":"view"},{"type":"function","name":"grantBurnRole","inputs":[{"name":"burner","type":"address","internalType":"address"}],"outputs":[],"stateMutability":"nonpayable"},{"type":"function","name":"grantMintAndBurnRoles","inputs":[{"name":"burnAndMinter","type":"address","internalType":"address"}],"outputs":[],"stateMutability":"nonpayable"},{"type":"function","name":"grantMintRole","inputs":[{"name":"minter","type":"address","internalType":"address"}],"outputs":[],"stateMutability":"nonpayable"},{"type":"function","name":"increaseAllowance","inputs":[{"name":"spender","type":"address","internalType":"address"},{"name":"addedValue","type":"uint256","internalType":"uint256"}],"outputs":[{"name":"","type":"bool","internalType":"bool"}],"stateMutability":"nonpayable"},{"type":"function","name":"increaseApproval","inputs":[{"name":"spender","type":"address","internalType":"address"},{"name":"addedValue","type":"uint256","internalType":"uint256"}],"outputs":[],"stateMutability":"nonpayable"},{"type":"function","name":"isBurner","inputs":[{"name":"burner","type":"address","internalType":"address"}],"outputs":[{"name":"","type":"bool","internalType":"bool"}],"stateMutability":"view"},{"type":"function","name":"isMinter","inputs":[{"name":"minter","type":"address","internalType":"address"}],"outputs":[{"name":"","type":"bool","internalType":"bool"}],"stateMutability":"view"},{"type":"function","name":"maxSupply","inputs":[],"outputs":[{"name":"","type":"uint256","internalType":"uint256"}],"stateMutability":"view"},{"type":"function","name":"mint","inputs":[{"name":"account","type":"address","internalType":"address"},{"name":"amount","type":"uint256","internalType":"uint256"}],"outputs":[],"stateMutability":"nonpayable"},{"type":"function","name":"name","inputs":[],"outputs":[{"name":"","type":"string","internalType":"string"}],"stateMutability":"view"},{"type":"function","name":"owner","inputs":[],"outputs":[{"name":"","type":"address","internalType":"address"}],"stateMutability":"view"},{"type":"function","name":"revokeBurnRole","inputs":[{"name":"burner","type":"address","internalType":"address"}],"outputs":[],"stateMutability":"nonpayable"},{"type":"function","name":"revokeMintRole","inputs":[{"name":"minter","type":"address","internalType":"address"}],"outputs":[],"stateMutability":"nonpayable"},{"type":"function","name":"supportsInterface","inputs":[{"name":"interfaceId","type":"bytes4","internalType":"bytes4"}],"outputs":[{"name":"","type":"bool","internalType":"bool"}],"stateMutability":"pure"},{"type":"function","name":"symbol","inputs":[],"outputs":[{"name":"","type":"string","internalType":"string"}],"stateMutability":"view"},{"type":"function","name":"totalSupply","inputs":[],"outputs":[{"name":"","type":"uint256","internalType":"uint256"}],"stateMutability":"view"},{"type":"function","name":"transfer","inputs":[{"name":"to","type":"address","internalType":"address"},{"name":"amount","type":"uint256","internalType":"uint256"}],"outputs":[{"name":"","type":"bool","internalType":"bool"}],"stateMutability":"nonpayable"},{"type":"function","name":"transferAndCall","inputs":[{"name":"to","type":"address","internalType":"address"},{"name":"amount","type":"uint256","internalType":"uint256"},{"name":"data","type":"bytes","internalType":"bytes"}],"outputs":[{"name":"success","type":"bool","internalType":"bool"}],"stateMutability":"nonpayable"},{"type":"function","name":"transferFrom","inputs":[{"name":"from","type":"address","internalType":"address"},{"name":"to","type":"address","internalType":"address"},{"name":"amount","type":"uint256","internalType":"uint256"}],"outputs":[{"name":"","type":"bool","internalType":"bool"}],"stateMutability":"nonpayable"},{"type":"function","name":"transferOwnership","inputs":[{"name":"to","type":"address","internalType":"address"}],"outputs":[],"stateMutability":"nonpayable"},{"type":"event","name":"Approval","inputs":[{"name":"owner","type":"address","indexed":true,"internalType":"address"},{"name":"spender","type":"address","indexed":true,"internalType":"address"},{"name":"value","type":"uint256","indexed":false,"internalType":"uint256"}],"anonymous":false},{"type":"event","name":"BurnAccessGranted","inputs":[{"name":"burner","type":"address","indexed":true,"internalType":"address"}],"anonymous":false},{"type":"event","name":"BurnAccessRevoked","inputs":[{"name":"burner","type":"address","indexed":true,"internalType":"address"}],"anonymous":false},{"type":"event","name":"MintAccessGranted","inputs":[{"name":"minter","type":"address","indexed":true,"internalType":"address"}],"anonymous":false},{"type":"event","name":"MintAccessRevoked","inputs":[{"name":"minter","type":"address","indexed":true,"internalType":"address"}],"anonymous":false},{"type":"event","name":"OwnershipTransferRequested","inputs":[{"name":"from","type":"address","indexed":true,"internalType":"address"},{"name":"to","type":"address","indexed":true,"internalType":"address"}],"anonymous":false},{"type":"event","name":"OwnershipTransferred","inputs":[{"name":"from","type":"address","indexed":true,"internalType":"address"},{"name":"to","type":"address","indexed":true,"internalType":"address"}],"anonymous":false},{"type":"event","name":"Transfer","inputs":[{"name":"from","type":"address","indexed":true,"internalType":"address"},{"name":"to","type":"address","indexed":true,"internalType":"address"},{"name":"value","type":"uint256","indexed":false,"internalType":"uint256"},{"name":"data","type":"bytes","indexed":false,"internalType":"bytes"}],"anonymous":false},{"type":"event","name":"Transfer","inputs":[{"name":"from","type":"address","indexed":true,"internalType":"address"},{"name":"to","type":"address","indexed":true,"internalType":"address"},{"name":"value","type":"uint256","indexed":false,"internalType":"uint256"}],"anonymous":false},{"type":"error","name":"MaxSupplyExceeded","inputs":[{"name":"supplyAfterMint","type":"uint256","internalType":"uint256"}]},{"type":"error","name":"SenderNotBurner","inputs":[{"name":"sender","type":"address","internalType":"address"}]},{"type":"error","name":"SenderNotMinter","inputs":[{"name":"sender","type":"address","internalType":"address"}]}],"bytecode":{"object":"0x60c060405234801561000f575f80fd5b50604051611b61380380611b6183398101604081905261002e91610243565b818160125f338082868681816003610046838261032c565b506004610053828261032c565b5050506001600160a01b03841691506100b590505760405162461bcd60e51b815260206004820152601860248201527f43616e6e6f7420736574206f776e657220746f207a65726f000000000000000060448201526064015b60405180910390fd5b600580546001600160a01b0319166001600160a01b03848116919091179091558116156100e5576100e5816100fd565b50505060ff90911660805260a052506103e692505050565b336001600160a01b038216036101555760405162461bcd60e51b815260206004820152601760248201527f43616e6e6f74207472616e7366657220746f2073656c6600000000000000000060448201526064016100ac565b600680546001600160a01b0319166001600160a01b03838116918217909255600554604051919216907fed8889f560326eb138920d842192f0eb3dd22b4f139c87a2c57538e05bae1278905f90a350565b634e487b7160e01b5f52604160045260245ffd5b5f82601f8301126101c9575f80fd5b81516001600160401b038111156101e2576101e26101a6565b604051601f8201601f19908116603f011681016001600160401b0381118282101715610210576102106101a6565b604052818152838201602001851015610227575f80fd5b8160208501602083015e5f918101602001919091529392505050565b5f8060408385031215610254575f80fd5b82516001600160401b03811115610269575f80fd5b610275858286016101ba565b602085015190935090506001600160401b03811115610292575f80fd5b61029e858286016101ba565b9150509250929050565b600181811c908216806102bc57607f821691505b6020821081036102da57634e487b7160e01b5f52602260045260245ffd5b50919050565b601f82111561032757805f5260205f20601f840160051c810160208510156103055750805b601f840160051c820191505b81811015610324575f8155600101610311565b50505b505050565b81516001600160401b03811115610345576103456101a6565b6103598161035384546102a8565b846102e0565b6020601f82116001811461038b575f83156103745750848201515b5f19600385901b1c1916600184901b178455610324565b5f84815260208120601f198516915b828110156103ba578785015182556020948501946001909201910161039a565b50848210156103d757868401515f19600387901b60f8161c191681555b50505050600190811b01905550565b60805160a05161174c6104155f395f81816104400152818161071b015261074501525f610272015261174c5ff3fe608060405234801561000f575f80fd5b50600436106101f2575f3560e01c806379ba509711610114578063aa271e1a116100a9578063d5abeb0111610079578063d5abeb011461043e578063d73dd62314610464578063dd62ed3e14610477578063f2fde38b1461048a578063f81094f31461049d575f80fd5b8063aa271e1a146103f2578063c2e3273d14610405578063c630948d14610418578063c64d0ebc1461042b575f80fd5b806395d89b41116100e457806395d89b41146103b15780639dc29fac146103b9578063a457c2d7146103cc578063a9059cbb146103df575f80fd5b806379ba50971461037357806379cc67901461037b57806386fe8b431461038e5780638da5cb5b14610396575f80fd5b806340c10f191161018a578063661884631161015a578063661884631461031057806367a5cd06146103235780636b32810b1461033657806370a082311461034b575f80fd5b806340c10f19146102c257806342966c68146102d75780634334614a146102ea5780634f5632f8146102fd575f80fd5b806323b872dd116101c557806323b872dd14610258578063313ce5671461026b578063395093511461029c5780634000aea0146102af575f80fd5b806301ffc9a7146101f657806306fdde031461021e578063095ea7b31461023357806318160ddd14610246575b5f80fd5b6102096102043660046113bd565b6104b0565b60405190151581526020015b60405180910390f35b61022661051c565b6040516102159190611412565b61020961024136600461143f565b6105ac565b6002545b604051908152602001610215565b610209610266366004611467565b6105c3565b60405160ff7f0000000000000000000000000000000000000000000000000000000000000000168152602001610215565b6102096102aa36600461143f565b6105e6565b6102096102bd3660046114b5565b610607565b6102d56102d036600461143f565b6106d7565b005b6102d56102e5366004611581565b6107be565b6102096102f8366004611598565b6107f2565b6102d561030b366004611598565b6107fe565b61020961031e36600461143f565b61084c565b6102d5610331366004611598565b61085e565b61033e610870565b60405161021591906115b1565b61024a610359366004611598565b6001600160a01b03165f9081526020819052604090205490565b6102d5610881565b6102d561038936600461143f565b61092e565b61033e610964565b6005546040516001600160a01b039091168152602001610215565b610226610970565b6102d56103c736600461143f565b61097f565b6102096103da36600461143f565b610989565b6102096103ed36600461143f565b610a03565b610209610400366004611598565b610a10565b6102d5610413366004611598565b610a1c565b6102d5610426366004611598565b610a6a565b6102d5610439366004611598565b610a78565b7f000000000000000000000000000000000000000000000000000000000000000061024a565b6102d561047236600461143f565b610ac6565b61024a6104853660046115fc565b610ad0565b6102d5610498366004611598565b610afa565b6102d56104ab366004611598565b610b0b565b5f6001600160e01b031982166336372b0760e01b14806104e057506001600160e01b03198216630200057560e51b145b806104fb57506001600160e01b0319821663e6599b4d60e01b145b8061051657506001600160e01b031982166301ffc9a760e01b145b92915050565b60606003805461052b9061162d565b80601f01602080910402602001604051908101604052809291908181526020018280546105579061162d565b80156105a25780601f10610579576101008083540402835291602001916105a2565b820191905f5260205f20905b81548152906001019060200180831161058557829003601f168201915b5050505050905090565b5f336105b9818585610b59565b5060019392505050565b5f336105d0858285610b7f565b6105db858585610bf1565b506001949350505050565b5f336105b98185856105f88383610ad0565b6106029190611679565b610b59565b5f6106128484610a03565b50836001600160a01b0316336001600160a01b03167fe19260aff97b920c7df27010903aeb9c8d2be5d310a2c67824cf3f15396e4c16858560405161065892919061168c565b60405180910390a36001600160a01b0384163b156105b957604051635260769b60e11b81526001600160a01b0385169063a4c0ed36906106a0903390879087906004016116ac565b5f604051808303815f87803b1580156106b7575f80fd5b505af11580156106c9573d5f803e3d5ffd5b505050505060019392505050565b6106e033610a10565b6107045760405163e2c8c9d560e01b81523360048201526024015b60405180910390fd5b81306001600160a01b03821603610719575f80fd5b7f00000000000000000000000000000000000000000000000000000000000000001580159061077a57507f00000000000000000000000000000000000000000000000000000000000000008261076e60025490565b6107789190611679565b115b156107af578161078960025490565b6107939190611679565b60405163cbbf111360e01b81526004016106fb91815260200190565b6107b98383610c11565b505050565b6107c7336107f2565b6107e65760405163c820b10b60e01b81523360048201526024016106fb565b6107ef81610cce565b50565b5f610516600983610cd8565b610806610cf9565b610811600982610d4e565b156107ef576040516001600160a01b038216907f0a675452746933cefe3d74182e78db7afe57ba60eaa4234b5d85e9aa41b0610c905f90a250565b5f6108578383610989565b9392505050565b6107ef81670de0b6b3a7640000610c11565b606061087c6007610d62565b905090565b6006546001600160a01b031633146108d45760405162461bcd60e51b815260206004820152601660248201527526bab9ba10313290383937b837b9b2b21037bbb732b960511b60448201526064016106fb565b600580546001600160a01b0319808216339081179093556006805490911690556040516001600160a01b03909116919082907f8be0079c531659141344cd1fd0a4f28419497f9722a3daafe3b4186f6b6457e0905f90a350565b610937336107f2565b6109565760405163c820b10b60e01b81523360048201526024016106fb565b6109608282610d6e565b5050565b606061087c6009610d62565b60606004805461052b9061162d565b610960828261092e565b5f33816109968286610ad0565b9050838110156109f65760405162461bcd60e51b815260206004820152602560248201527f45524332303a2064656372656173656420616c6c6f77616e63652062656c6f77604482015264207a65726f60d81b60648201526084016106fb565b6105db8286868403610b59565b5f336105b9818585610bf1565b5f610516600783610cd8565b610a24610cf9565b610a2f600782610d83565b156107ef576040516001600160a01b038216907fe46fef8bbff1389d9010703cf8ebb363fb3daf5bf56edc27080b67bc8d9251ea905f90a250565b610a7381610a1c565b6107ef815b610a80610cf9565b610a8b600982610d83565b156107ef576040516001600160a01b038216907f92308bb7573b2a3d17ddb868b39d8ebec433f3194421abc22d084f89658c9bad905f90a250565b6107b982826105e6565b6001600160a01b039182165f90815260016020908152604080832093909416825291909152205490565b610b02610cf9565b6107ef81610d97565b610b13610cf9565b610b1e600782610d4e565b156107ef576040516001600160a01b038216907fed998b960f6340d045f620c119730f7aa7995e7425c2401d3a5b64ff998a59e9905f90a250565b81306001600160a01b03821603610b6e575f80fd5b610b79848484610e40565b50505050565b5f610b8a8484610ad0565b90505f198114610b795781811015610be45760405162461bcd60e51b815260206004820152601d60248201527f45524332303a20696e73756666696369656e7420616c6c6f77616e636500000060448201526064016106fb565b610b798484848403610b59565b81306001600160a01b03821603610c06575f80fd5b610b79848484610f63565b6001600160a01b038216610c675760405162461bcd60e51b815260206004820152601f60248201527f45524332303a206d696e7420746f20746865207a65726f20616464726573730060448201526064016106fb565b8060025f828254610c789190611679565b90915550506001600160a01b0382165f81815260208181526040808320805486019055518481527fddf252ad1be2c89b69c2b068fc378daa952ba7f163c4a11628f55a4df523b3ef910160405180910390a35050565b6107ef3382611105565b6001600160a01b0381165f9081526001830160205260408120541515610857565b6005546001600160a01b03163314610d4c5760405162461bcd60e51b815260206004820152601660248201527527b7363c9031b0b63630b1363290313c9037bbb732b960511b60448201526064016106fb565b565b5f610857836001600160a01b038416611235565b60605f61085783611318565b610d79823383610b7f565b6109608282611105565b5f610857836001600160a01b038416611371565b336001600160a01b03821603610def5760405162461bcd60e51b815260206004820152601760248201527f43616e6e6f74207472616e7366657220746f2073656c6600000000000000000060448201526064016106fb565b600680546001600160a01b0319166001600160a01b03838116918217909255600554604051919216907fed8889f560326eb138920d842192f0eb3dd22b4f139c87a2c57538e05bae1278905f90a350565b6001600160a01b038316610ea25760405162461bcd60e51b8152602060048201526024808201527f45524332303a20617070726f76652066726f6d20746865207a65726f206164646044820152637265737360e01b60648201526084016106fb565b6001600160a01b038216610f035760405162461bcd60e51b815260206004820152602260248201527f45524332303a20617070726f766520746f20746865207a65726f206164647265604482015261737360f01b60648201526084016106fb565b6001600160a01b038381165f8181526001602090815260408083209487168084529482529182902085905590518481527f8c5be1e5ebec7d5bd14f71427d1e84f3dd0314c0f7b2291e5b200ac8c7c3b925910160405180910390a3505050565b6001600160a01b038316610fc75760405162461bcd60e51b815260206004820152602560248201527f45524332303a207472616e736665722066726f6d20746865207a65726f206164604482015264647265737360d81b60648201526084016106fb565b6001600160a01b0382166110295760405162461bcd60e51b815260206004820152602360248201527f45524332303a207472616e7366657220746f20746865207a65726f206164647260448201526265737360e81b60648201526084016106fb565b6001600160a01b0383165f90815260208190526040902054818110156110a05760405162461bcd60e51b815260206004820152602660248201527f45524332303a207472616e7366657220616d6f756e7420657863656564732062604482015265616c616e636560d01b60648201526084016106fb565b6001600160a01b038481165f81815260208181526040808320878703905593871680835291849020805487019055925185815290927fddf252ad1be2c89b69c2b068fc378daa952ba7f163c4a11628f55a4df523b3ef910160405180910390a3610b79565b6001600160a01b0382166111655760405162461bcd60e51b815260206004820152602160248201527f45524332303a206275726e2066726f6d20746865207a65726f206164647265736044820152607360f81b60648201526084016106fb565b6001600160a01b0382165f90815260208190526040902054818110156111d85760405162461bcd60e51b815260206004820152602260248201527f45524332303a206275726e20616d6f756e7420657863656564732062616c616e604482015261636560f01b60648201526084016106fb565b6001600160a01b0383165f818152602081815260408083208686039055600280548790039055518581529192917fddf252ad1be2c89b69c2b068fc378daa952ba7f163c4a11628f55a4df523b3ef910160405180910390a3505050565b5f818152600183016020526040812054801561130f575f6112576001836116db565b85549091505f9061126a906001906116db565b90508181146112c9575f865f018281548110611288576112886116ee565b905f5260205f200154905080875f0184815481106112a8576112a86116ee565b5f918252602080832090910192909255918252600188019052604090208390555b85548690806112da576112da611702565b600190038181905f5260205f20015f90559055856001015f8681526020019081526020015f205f905560019350505050610516565b5f915050610516565b6060815f0180548060200260200160405190810160405280929190818152602001828054801561136557602002820191905f5260205f20905b815481526020019060010190808311611351575b50505050509050919050565b5f8181526001830160205260408120546113b657508154600181810184555f848152602080822090930184905584548482528286019093526040902091909155610516565b505f610516565b5f602082840312156113cd575f80fd5b81356001600160e01b031981168114610857575f80fd5b5f81518084528060208401602086015e5f602082860101526020601f19601f83011685010191505092915050565b602081525f61085760208301846113e4565b80356001600160a01b038116811461143a575f80fd5b919050565b5f8060408385031215611450575f80fd5b61145983611424565b946020939093013593505050565b5f805f60608486031215611479575f80fd5b61148284611424565b925061149060208501611424565b929592945050506040919091013590565b634e487b7160e01b5f52604160045260245ffd5b5f805f606084860312156114c7575f80fd5b6114d084611424565b925060208401359150604084013567ffffffffffffffff8111156114f2575f80fd5b8401601f81018613611502575f80fd5b803567ffffffffffffffff81111561151c5761151c6114a1565b604051601f8201601f19908116603f0116810167ffffffffffffffff8111828210171561154b5761154b6114a1565b604052818152828201602001881015611562575f80fd5b816020840160208301375f602083830101528093505050509250925092565b5f60208284031215611591575f80fd5b5035919050565b5f602082840312156115a8575f80fd5b61085782611424565b602080825282518282018190525f918401906040840190835b818110156115f15783516001600160a01b03168352602093840193909201916001016115ca565b509095945050505050565b5f806040838503121561160d575f80fd5b61161683611424565b915061162460208401611424565b90509250929050565b600181811c9082168061164157607f821691505b60208210810361165f57634e487b7160e01b5f52602260045260245ffd5b50919050565b634e487b7160e01b5f52601160045260245ffd5b8082018082111561051657610516611665565b828152604060208201525f6116a460408301846113e4565b949350505050565b60018060a01b0384168152826020820152606060408201525f6116d260608301846113e4565b95945050505050565b8181038181111561051657610516611665565b634e487b7160e01b5f52603260045260245ffd5b634e487b7160e01b5f52603160045260245ffdfea2646970667358221220a5e3437172ee0e48043d69bcaf6a73809d63c0c3f72653d179e3dabb54729ed564736f6c634300081a0033","linkReferences":{}},"methodIdentifiers":{"acceptOwnership()":"79ba5097","allowance(address,address)":"dd62ed3e","approve(address,uint256)":"095ea7b3","balanceOf(address)":"70a08231","burn(address,uint256)":"9dc29fac","burn(uint256)":"42966c68","burnFrom(address,uint256)":"79cc6790","decimals()":"313ce567","decreaseAllowance(address,uint256)":"a457c2d7","decreaseApproval(address,uint256)":"66188463","drip(address)":"67a5cd06","getBurners()":"86fe8b43","getMinters()":"6b32810b","grantBurnRole(address)":"c64d0ebc","grantMintAndBurnRoles(address)":"c630948d","grantMintRole(address)":"c2e3273d","increaseAllowance(address,uint256)":"39509351","increaseApproval(address,uint256)":"d73dd623","isBurner(address)":"4334614a","isMinter(address)":"aa271e1a","maxSupply()":"d5abeb01","mint(address,uint256)":"40c10f19","name()":"06fdde03","owner()":"8da5cb5b","revokeBurnRole(address)":"4f5632f8","revokeMintRole(address)":"f81094f3","supportsInterface(bytes4)":"01ffc9a7","symbol()":"95d89b41","totalSupply()":"18160ddd","transfer(address,uint256)":"a9059cbb","transferAndCall(address,uint256,bytes)":"4000aea0","transferFrom(address,address,uint256)":"23b872dd","transferOwnership(address)":"f2fde38b"},"id":117}