{"abi":[{"type":"receive","stateMutability":"payable"},{"type":"function","name":"askValues","inputs":[],"outputs":[],"stateMutability":"nonpayable"},{"type":"function","name":"ccipReceive","inputs":[{"name":"message","type":"tuple","internalType":"struct Client.Any2EVMMessage","components":[{"name":"messageId","type":"bytes32","internalType":"bytes32"},{"name":"sourceChainSelector","type":"uint64","internalType":"uint64"},{"name":"sender","type":"bytes","internalType":"bytes"},{"name":"data","type":"bytes","internalType":"bytes"},{"name":"destTokenAmounts","type":"tuple[]","internalType":"struct Client.EVMTokenAmount[]","components":[{"name":"token","type":"address","internalType":"address"},{"name":"amount","type":"uint256","internalType":"uint256"}]}]}],"outputs":[],"stateMutability":"nonpayable"},{"type":"function","name":"chainValueByNonce","inputs":[{"name":"","type":"uint256","internalType":"uint256"},{"name":"","type":"uint64","internalType":"uint64"}],"outputs":[{"name":"","type":"uint256","internalType":"uint256"}],"stateMutability":"view"},{"type":"function","name":"convertEthToUsd","inputs":[{"name":"_ethAmount","type":"uint256","internalType":"uint256"}],"outputs":[{"name":"","type":"uint256","internalType":"uint256"}],"stateMutability":"view"},{"type":"function","name":"crossChainFactoryBySelector","inputs":[{"name":"_chainSelector","type":"uint64","internalType":"uint64"}],"outputs":[{"name":"","type":"address","internalType":"address"}],"stateMutability":"view"},{"type":"function","name":"crossChainToken","inputs":[{"name":"_chainSelector","type":"uint64","internalType":"uint64"}],"outputs":[{"name":"","type":"address","internalType":"address"}],"stateMutability":"view"},{"type":"function","name":"currentChainSelector","inputs":[],"outputs":[{"name":"","type":"uint64","internalType":"uint64"}],"stateMutability":"view"},{"type":"function","name":"estimateAmountOut","inputs":[{"name":"tokenIn","type":"address","internalType":"address"},{"name":"tokenOut","type":"address","internalType":"address"},{"name":"amountIn","type":"uint128","internalType":"uint128"}],"outputs":[{"name":"amountOut","type":"uint256","internalType":"uint256"}],"stateMutability":"view"},{"type":"function","name":"extraWethByNonce","inputs":[{"name":"","type":"uint256","internalType":"uint256"}],"outputs":[{"name":"","type":"uint256","internalType":"uint256"}],"stateMutability":"view"},{"type":"function","name":"feeRate","inputs":[],"outputs":[{"name":"","type":"uint8","internalType":"uint8"}],"stateMutability":"view"},{"type":"function","name":"firstReweightAction","inputs":[],"outputs":[],"stateMutability":"nonpayable"},{"type":"function","name":"getAmountOut","inputs":[{"name":"tokenIn","type":"address","internalType":"address"},{"name":"tokenOut","type":"address","internalType":"address"},{"name":"amountIn","type":"uint256","internalType":"uint256"},{"name":"_swapVersion","type":"uint256","internalType":"uint256"}],"outputs":[{"name":"finalAmountOut","type":"uint256","internalType":"uint256"}],"stateMutability":"view"},{"type":"function","name":"getPortfolioBalance","inputs":[],"outputs":[{"name":"","type":"uint256","internalType":"uint256"}],"stateMutability":"view"},{"type":"function","name":"getRouter","inputs":[],"outputs":[{"name":"","type":"address","internalType":"address"}],"stateMutability":"view"},{"type":"function","name":"i_link","inputs":[],"outputs":[{"name":"","type":"address","internalType":"address"}],"stateMutability":"view"},{"type":"function","name":"i_maxTokensLength","inputs":[],"outputs":[{"name":"","type":"uint16","internalType":"uint16"}],"stateMutability":"view"},{"type":"function","name":"indexFactoryStorage","inputs":[],"outputs":[{"name":"","type":"address","internalType":"contract IndexFactoryStorage"}],"stateMutability":"view"},{"type":"function","name":"indexToken","inputs":[],"outputs":[{"name":"","type":"address","internalType":"contract IndexToken"}],"stateMutability":"view"},{"type":"function","name":"initialize","inputs":[{"name":"_currentChainSelector","type":"uint64","internalType":"uint64"},{"name":"_token","type":"address","internalType":"address payable"},{"name":"_indexFactoryStorage","type":"address","internalType":"address"},{"name":"_chainlinkToken","type":"address","internalType":"address"},{"name":"_router","type":"address","internalType":"address"},{"name":"_weth","type":"address","internalType":"address"}],"outputs":[],"stateMutability":"nonpayable"},{"type":"function","name":"latestFeeUpdate","inputs":[],"outputs":[{"name":"","type":"uint256","internalType":"uint256"}],"stateMutability":"view"},{"type":"function","name":"owner","inputs":[],"outputs":[{"name":"","type":"address","internalType":"address"}],"stateMutability":"view"},{"type":"function","name":"portfolioTotalValueByNonce","inputs":[{"name":"","type":"uint256","internalType":"uint256"}],"outputs":[{"name":"","type":"uint256","internalType":"uint256"}],"stateMutability":"view"},{"type":"function","name":"priceInWei","inputs":[],"outputs":[{"name":"","type":"uint256","internalType":"uint256"}],"stateMutability":"view"},{"type":"function","name":"proposeOwner","inputs":[{"name":"_proposedOwner","type":"address","internalType":"address"}],"outputs":[],"stateMutability":"nonpayable"},{"type":"function","name":"proposedOwner","inputs":[],"outputs":[{"name":"","type":"address","internalType":"address"}],"stateMutability":"view"},{"type":"function","name":"redemptionNonceOutputToken","inputs":[{"name":"","type":"uint256","internalType":"uint256"}],"outputs":[{"name":"","type":"address","internalType":"address"}],"stateMutability":"view"},{"type":"function","name":"redemptionNonceOutputTokenSwapVersion","inputs":[{"name":"","type":"uint256","internalType":"uint256"}],"outputs":[{"name":"","type":"uint256","internalType":"uint256"}],"stateMutability":"view"},{"type":"function","name":"renounceOwnership","inputs":[],"outputs":[],"stateMutability":"nonpayable"},{"type":"function","name":"reweightExtraPercentage","inputs":[{"name":"","type":"uint256","internalType":"uint256"}],"outputs":[{"name":"","type":"uint256","internalType":"uint256"}],"stateMutability":"view"},{"type":"function","name":"reweightTokensCount","inputs":[{"name":"","type":"uint256","internalType":"uint256"}],"outputs":[{"name":"","type":"uint256","internalType":"uint256"}],"stateMutability":"view"},{"type":"function","name":"reweightWethValueByNonce","inputs":[{"name":"","type":"uint256","internalType":"uint256"}],"outputs":[{"name":"","type":"uint256","internalType":"uint256"}],"stateMutability":"view"},{"type":"function","name":"secondReweightAction","inputs":[],"outputs":[],"stateMutability":"nonpayable"},{"type":"function","name":"sendMessage","inputs":[{"name":"destinationChainSelector","type":"uint64","internalType":"uint64"},{"name":"receiver","type":"address","internalType":"address"},{"name":"_data","type":"bytes","internalType":"bytes"},{"name":"payFeesIn","type":"uint8","internalType":"enum IndexFactoryBalancer.PayFeesIn"}],"outputs":[],"stateMutability":"nonpayable"},{"type":"function","name":"setFeeRate","inputs":[{"name":"_newFee","type":"uint8","internalType":"uint8"}],"outputs":[],"stateMutability":"nonpayable"},{"type":"function","name":"setIndexFactoryStorage","inputs":[{"name":"_indexFactoryStorage","type":"address","internalType":"address"}],"outputs":[],"stateMutability":"nonpayable"},{"type":"function","name":"supportsInterface","inputs":[{"name":"interfaceId","type":"bytes4","internalType":"bytes4"}],"outputs":[{"name":"","type":"bool","internalType":"bool"}],"stateMutability":"pure"},{"type":"function","name":"swap","inputs":[{"name":"tokenIn","type":"address","internalType":"address"},{"name":"tokenOut","type":"address","internalType":"address"},{"name":"amountIn","type":"uint256","internalType":"uint256"},{"name":"_recipient","type":"address","internalType":"address"},{"name":"_swapVersion","type":"uint256","internalType":"uint256"}],"outputs":[{"name":"","type":"uint256","internalType":"uint256"}],"stateMutability":"nonpayable"},{"type":"function","name":"tokenValueByNonce","inputs":[{"name":"","type":"uint256","internalType":"uint256"},{"name":"","type":"address","internalType":"address"}],"outputs":[{"name":"","type":"uint256","internalType":"uint256"}],"stateMutability":"view"},{"type":"function","name":"transferOwnership","inputs":[{"name":"newOwner","type":"address","internalType":"address"}],"outputs":[],"stateMutability":"nonpayable"},{"type":"function","name":"updatePortfolioNonce","inputs":[],"outputs":[{"name":"","type":"uint256","internalType":"uint256"}],"stateMutability":"view"},{"type":"function","name":"updatedTokensValueCount","inputs":[{"name":"","type":"uint256","internalType":"uint256"}],"outputs":[{"name":"","type":"uint256","internalType":"uint256"}],"stateMutability":"view"},{"type":"function","name":"weth","inputs":[],"outputs":[{"name":"","type":"address","internalType":"contract IWETH"}],"stateMutability":"view"},{"type":"event","name":"Initialized","inputs":[{"name":"version","type":"uint8","indexed":false,"internalType":"uint8"}],"anonymous":false},{"type":"event","name":"MessageSent","inputs":[{"name":"messageId","type":"bytes32","indexed":false,"internalType":"bytes32"}],"anonymous":false},{"type":"event","name":"OwnershipTransferred","inputs":[{"name":"previousOwner","type":"address","indexed":true,"internalType":"address"},{"name":"newOwner","type":"address","indexed":true,"internalType":"address"}],"anonymous":false},{"type":"error","name":"InvalidRouter","inputs":[{"name":"router","type":"address","internalType":"address"}]}],"bytecode":{"object":"0x608060405234801561001057600080fd5b5061545d806100206000396000f3fe6080604052600436106102545760003560e01c80637d253aff11610139578063bcab90b3116100b6578063d1f7a9911161007a578063d1f7a991146107af578063d79e8d65146107cf578063e7d015f2146107e4578063edba0e3114610804578063f1639b0914610824578063f2fde38b1461085157600080fd5b8063bcab90b314610702578063c070a09714610722578063c086381e1461074f578063cc8659ae1461076f578063d153b60c1461078f57600080fd5b8063978bbdb9116100fd578063978bbdb91461063e578063a8509fd814610671578063b0f479a114610686578063b316e7fd146106aa578063b5ed298a146106e257600080fd5b80637d253aff146105865780637d3546f7146105a6578063814ffd71146105d357806385572ffb146106005780638da5cb5b1461062057600080fd5b80633c8da588116101d257806363713a8b1161019657806363713a8b1461049d57806369abf538146104b2578063715018a6146104ea57806372bc260c146104ff578063756c1fd11461052c578063783244631461055957600080fd5b80633c8da588146103d45780633d54cb6f146103e95780633fc8cef3146104215780635177942a146104485780635b6a03511461046857600080fd5b806313cb1f831161021957806313cb1f831461033d57806317d88f461461035d57806319da7e2a1461037d5780632700cc861461039d578063340fbc74146103b457600080fd5b80623cf40214610260578063011ced5f1461028957806301ffc9a71461029f5780630456f9c8146102cf5780630603fb05146102ef57600080fd5b3661025b57005b600080fd5b34801561026c57600080fd5b50610276609d5481565b6040519081526020015b60405180910390f35b34801561029557600080fd5b50610276609b5481565b3480156102ab57600080fd5b506102bf6102ba366004614bf6565b610871565b6040519015158152602001610280565b3480156102db57600080fd5b506102766102ea366004614a5b565b6108a8565b3480156102fb57600080fd5b5061032561030a366004614c5a565b60a6602052600090815260409020546001600160a01b031681565b6040516001600160a01b039091168152602001610280565b34801561034957600080fd5b50610276610358366004614b0d565b610944565b34801561036957600080fd5b50610276610378366004614ab2565b6109d4565b34801561038957600080fd5b50610325610398366004614d86565b610b06565b3480156103a957600080fd5b506103b2610b8c565b005b3480156103c057600080fd5b506103256103cf366004614d86565b6112e5565b3480156103e057600080fd5b5061027661131f565b3480156103f557600080fd5b50609c54610409906001600160401b031681565b6040516001600160401b039091168152602001610280565b34801561042d57600080fd5b50609c5461032590600160401b90046001600160a01b031681565b34801561045457600080fd5b506103b2610463366004614eba565b6113a1565b34801561047457600080fd5b5060995461048a90600160a01b900461ffff1681565b60405161ffff9091168152602001610280565b3480156104a957600080fd5b506103b26114f0565b3480156104be57600080fd5b506102766104cd366004614d61565b60a260209081526000928352604080842090915290825290205481565b3480156104f657600080fd5b506103b26119f5565b34801561050b57600080fd5b5061027661051a366004614c5a565b60a76020526000908152604090205481565b34801561053857600080fd5b50610276610547366004614c5a565b609f6020526000908152604090205481565b34801561056557600080fd5b50610276610574366004614c5a565b60a46020526000908152604090205481565b34801561059257600080fd5b50609954610325906001600160a01b031681565b3480156105b257600080fd5b506102766105c1366004614c5a565b609e6020526000908152604090205481565b3480156105df57600080fd5b506102766105ee366004614c5a565b60a56020526000908152604090205481565b34801561060c57600080fd5b506103b261061b366004614c20565b611a09565b34801561062c57600080fd5b506033546001600160a01b0316610325565b34801561064a57600080fd5b50609a5461065f90600160a01b900460ff1681565b60405160ff9091168152602001610280565b34801561067d57600080fd5b50610276611a50565b34801561069257600080fd5b506000546201000090046001600160a01b0316610325565b3480156106b657600080fd5b506102766106c5366004614c73565b60a160209081526000928352604080842090915290825290205481565b3480156106ee57600080fd5b506103b26106fd366004614a1a565b611dbe565b34801561070e57600080fd5b506103b261071d366004614e42565b611e0e565b34801561072e57600080fd5b5061027661073d366004614c5a565b60a06020526000908152604090205481565b34801561075b57600080fd5b5061027661076a366004614c5a565b6120ef565b34801561077b57600080fd5b506103b261078a366004614a1a565b612116565b34801561079b57600080fd5b50606554610325906001600160a01b031681565b3480156107bb57600080fd5b50609854610325906001600160a01b031681565b3480156107db57600080fd5b506103b2612140565b3480156107f057600080fd5b50609a54610325906001600160a01b031681565b34801561081057600080fd5b506103b261081f366004614dc0565b6125ba565b34801561083057600080fd5b5061027661083f366004614c5a565b60a36020526000908152604090205481565b34801561085d57600080fd5b506103b261086c366004614a1a565b612803565b60006001600160e01b031982166385572ffb60e01b14806108a257506001600160e01b031982166301ffc9a760e01b145b92915050565b609854604051628adf3960e31b81526001600160a01b03858116600483015284811660248301526001600160801b03841660448301526000921690630456f9c89060640160206040518083038186803b15801561090457600080fd5b505afa158015610918573d6000803e3d6000fd5b505050506040513d601f19601f8201168201806040525081019061093c9190614bdd565b949350505050565b6098546040516313cb1f8360e01b81526000916001600160a01b0316906313cb1f839061097b908890889088908890600401614f9e565b60206040518083038186803b15801561099357600080fd5b505afa1580156109a7573d6000803e3d6000fd5b505050506040513d601f19601f820116820180604052508101906109cb9190614bdd565b95945050505050565b60985460405163a9059cbb60e01b81526001600160a01b0391821660048201526024810185905260009187169063a9059cbb90604401602060405180830381600087803b158015610a2457600080fd5b505af1158015610a38573d6000803e3d6000fd5b505050506040513d601f19601f82011682018060405250810190610a5c9190614bbb565b50609854604051630bec47a360e11b81526001600160a01b03888116600483015287811660248301526044820187905285811660648301526084820185905260009216906317d88f469060a401602060405180830381600087803b158015610ac357600080fd5b505af1158015610ad7573d6000803e3d6000fd5b505050506040513d601f19601f82011682018060405250810190610afb9190614bdd565b979650505050505050565b609854604051630ced3f1560e11b81526001600160401b03831660048201526000916001600160a01b0316906319da7e2a906024015b60206040518083038186803b158015610b5457600080fd5b505afa158015610b68573d6000803e3d6000fd5b505050506040513d601f19601f820116820180604052508101906108a29190614a3e565b610b94612928565b6001609d6000828254610ba7919061526e565b909155505060985460408051631a521ec760e21b815290516000926001600160a01b0316916369487b1c916004808301926020929190829003018186803b158015610bf157600080fd5b505afa158015610c05573d6000803e3d6000fd5b505050506040513d601f19601f82011682018060405250810190610c299190614bdd565b90506000609860009054906101000a90046001600160a01b03166001600160a01b031663b90b8a2a6040518163ffffffff1660e01b815260040160206040518083038186803b158015610c7b57600080fd5b505afa158015610c8f573d6000803e3d6000fd5b505050506040513d601f19601f82011682018060405250810190610cb39190614bdd565b905060005b828110156112e057609854604051636dab0c9160e11b815260048101849052602481018390526000916001600160a01b03169063db5619229060440160206040518083038186803b158015610d0c57600080fd5b505afa158015610d20573d6000803e3d6000fd5b505050506040513d601f19601f82011682018060405250810190610d449190614da3565b60985460405163b6ad185b60e01b81526001600160401b03831660048201529192506000916001600160a01b039091169063b6ad185b9060240160206040518083038186803b158015610d9657600080fd5b505afa158015610daa573d6000803e3d6000fd5b505050506040513d601f19601f82011682018060405250810190610dce9190614bdd565b609c549091506001600160401b03838116911614156111475760005b81811015611141576098546040516309c6d7f360e21b8152600481018790526001600160401b0385166024820152604481018390526000916001600160a01b03169063271b5fcc9060640160206040518083038186803b158015610e4d57600080fd5b505afa158015610e61573d6000803e3d6000fd5b505050506040513d601f19601f82011682018060405250810190610e859190614a3e565b60985460405163d90bc21160e01b81526001600160a01b0380841660048301529293506000929091169063d90bc2119060240160206040518083038186803b158015610ed057600080fd5b505afa158015610ee4573d6000803e3d6000fd5b505050506040513d601f19601f82011682018060405250810190610f089190614bdd565b609c549091506000906001600160a01b03848116600160401b909204161415610faf57609a546040516370a0823160e01b81526001600160a01b039182166004820152908416906370a082319060240160206040518083038186803b158015610f7057600080fd5b505afa158015610f84573d6000803e3d6000fd5b505050506040513d601f19601f82011682018060405250810190610fa89190614bdd565b9050611049565b609c54609a546040516370a0823160e01b81526001600160a01b039182166004820152611046928692600160401b909104811691908316906370a082319060240160206040518083038186803b15801561100857600080fd5b505afa15801561101c573d6000803e3d6000fd5b505050506040513d601f19601f820116820180604052508101906110409190614bdd565b85610944565b90505b611052816120ef565b609d546000908152609e60205260408120805490919061107390849061526e565b909155506110829050816120ef565b609d54600090815260a1602090815260408083206001600160a01b0388168452909152812080549091906110b790849061526e565b9091555050609d54600090815260a0602052604081208054600192906110de90849061526e565b909155506110ed9050816120ef565b609d54600090815260a260209081526040808320609c546001600160401b031684529091528120805490919061112490849061526e565b9250508190555050505080806111399061538a565b915050610dea565b506112cb565b6000611152836112e5565b60985460405163d1c68aa360e01b81526001600160401b03861660048201529192506000916001600160a01b039091169063d1c68aa39060240160006040518083038186803b1580156111a457600080fd5b505afa1580156111b8573d6000803e3d6000fd5b505050506040513d6000823e601f3d908101601f191682016040526111e09190810190614b53565b60985460405163221f337160e01b81526001600160401b03871660048201529192506000916001600160a01b039091169063221f33719060240160006040518083038186803b15801561123257600080fd5b505afa158015611246573d6000803e3d6000fd5b505050506040513d6000823e601f3d908101601f1916820160405261126e9190810190614b87565b60408051600080825260208201818152828401909352609d5493945090926112a6906002908790869088908790818060608601614fc7565b60405160208183030381529060405290506112c48887836001611e0e565b5050505050505b505080806112d89061538a565b915050610cb8565b505050565b609854604051630d03ef1d60e21b81526001600160401b03831660048201526000916001600160a01b03169063340fbc7490602401610b3c565b60985460408051630791b4b160e31b815290516000926001600160a01b031691633c8da588916004808301926020929190829003018186803b15801561136457600080fd5b505afa158015611378573d6000803e3d6000fd5b505050506040513d601f19601f8201168201806040525081019061139c9190614bdd565b905090565b6113a9612928565b6000609b54426113b991906152c7565b9050600c603c6113c98184615286565b6113d39190615286565b1161144b5760405162461bcd60e51b815260206004820152603960248201527f596f752073686f756c642077616974206174206c6561737420313220686f757260448201527f7320616674657220746865206c6174657374207570646174650000000000000060648201526084015b60405180910390fd5b60648260ff1611158015611463575060018260ff1610155b6114cb5760405162461bcd60e51b815260206004820152603360248201527f546865206e65774665652073686f756c64206265206265747765656e203120616044820152726e64203130302028302e303125202d2031252960681b6064820152608401611442565b50609a805460ff909216600160a01b0260ff60a01b1990921691909117905542609b55565b6114f8612928565b609d546000818152609e60209081526040808320546098548251631a521ec760e21b815292519194936001600160a01b03909116926369487b1c9260048083019392829003018186803b15801561154e57600080fd5b505afa158015611562573d6000803e3d6000fd5b505050506040513d601f19601f820116820180604052508101906115869190614bdd565b90506000609860009054906101000a90046001600160a01b03166001600160a01b031663b90b8a2a6040518163ffffffff1660e01b815260040160206040518083038186803b1580156115d857600080fd5b505afa1580156115ec573d6000803e3d6000fd5b505050506040513d601f19601f820116820180604052508101906116109190614bdd565b90506000609860009054906101000a90046001600160a01b03166001600160a01b031663f15817876040518163ffffffff1660e01b815260040160206040518083038186803b15801561166257600080fd5b505afa158015611676573d6000803e3d6000fd5b505050506040513d601f19601f8201168201806040525081019061169a9190614bdd565b905060005b838110156119ed57609854604051636dab0c9160e11b815260048101859052602481018390526000916001600160a01b03169063db5619229060440160206040518083038186803b1580156116f357600080fd5b505afa158015611707573d6000803e3d6000fd5b505050506040513d601f19601f8201168201806040525081019061172b9190614da3565b60985460405163b6ad185b60e01b81526001600160401b03831660048201529192506000916001600160a01b039091169063b6ad185b9060240160206040518083038186803b15801561177d57600080fd5b505afa158015611791573d6000803e3d6000fd5b505050506040513d601f19601f820116820180604052508101906117b59190614bdd565b609854604051637e34c5a560e11b81526001600160401b03851660048201529192506000916001600160a01b039091169063fc698b4a9060240160206040518083038186803b15801561180757600080fd5b505afa15801561181b573d6000803e3d6000fd5b505050506040513d601f19601f8201168201806040525081019061183f9190614bdd565b6098546040516377b2688f60e01b8152600481018890526001600160401b03861660248201529192506000916001600160a01b03909116906377b2688f9060440160206040518083038186803b15801561189857600080fd5b505afa1580156118ac573d6000803e3d6000fd5b505050506040513d601f19601f820116820180604052508101906118d09190614bdd565b60008b815260a2602090815260408083206001600160401b03891680855292528083205460985491516302fc352760e61b815260048101939093529394506001600160a01b03169063bf0d49c09060240160006040518083038186803b15801561193957600080fd5b505afa15801561194d573d6000803e3d6000fd5b505050506040513d6000823e601f3d908101601f191682016040526119759190810190614b87565b9050828b61198c8468056bc75e2d631000006152a8565b6119969190615286565b11156119d457609c546001600160401b03878116911614156119c6576119c1878d8d89898989612982565b6119d4565b6119d48c8c88868686612fdf565b50505050505080806119e59061538a565b91505061169f565b505050505050565b6119fd612928565b611a07600061334a565b565b6000546201000090046001600160a01b03163314611a3c576040516335fdcccd60e21b8152336004820152602401611442565b611a4d611a48826152de565b61339c565b50565b6000806000609860009054906101000a90046001600160a01b03166001600160a01b03166353fd43326040518163ffffffff1660e01b815260040160206040518083038186803b158015611aa357600080fd5b505afa158015611ab7573d6000803e3d6000fd5b505050506040513d601f19601f82011682018060405250810190611adb9190614bdd565b905060005b81811015611db65760985460405163264cae9360e21b8152600481018390526000916001600160a01b031690639932ba4c9060240160206040518083038186803b158015611b2d57600080fd5b505afa158015611b41573d6000803e3d6000fd5b505050506040513d601f19601f82011682018060405250810190611b659190614a3e565b609854604051633aa3b3c160e21b81526001600160a01b0380841660048301529293506000929091169063ea8ecf049060240160206040518083038186803b158015611bb057600080fd5b505afa158015611bc4573d6000803e3d6000fd5b505050506040513d601f19601f82011682018060405250810190611be89190614da3565b60985460405163d90bc21160e01b81526001600160a01b0385811660048301529293506000929091169063d90bc2119060240160206040518083038186803b158015611c3357600080fd5b505afa158015611c47573d6000803e3d6000fd5b505050506040513d601f19601f82011682018060405250810190611c6b9190614bdd565b609c549091506001600160401b0383811691161415611da057609854609c54609a546040516370a0823160e01b81526001600160a01b0391821660048201526000938216926313cb1f83928892600160401b909204811691908316906370a082319060240160206040518083038186803b158015611ce857600080fd5b505afa158015611cfc573d6000803e3d6000fd5b505050506040513d601f19601f82011682018060405250810190611d209190614bdd565b866040518563ffffffff1660e01b8152600401611d409493929190614f9e565b60206040518083038186803b158015611d5857600080fd5b505afa158015611d6c573d6000803e3d6000fd5b505050506040513d601f19601f82011682018060405250810190611d909190614bdd565b9050611d9c818861526e565b9650505b5050508080611dae9061538a565b915050611ae0565b509092915050565b611dc6612928565b6001600160a01b038116611dec5760405162461bcd60e51b81526004016114429061505d565b606580546001600160a01b0319166001600160a01b0392909216919091179055565b6040805160a0810182526001600160a01b03851660c0808301919091528251808303909101815260e08201835281526020808201859052825160008082529181018452909282019083611e83565b6040805180820190915260008082526020820152815260200190600190039081611e5c5790505b5081526020016001846001811115611e9d57611e9d6153bb565b14611ea9576000611eb6565b6099546001600160a01b03165b6001600160a01b03168152602001611ee76040518060400160405280620dbba081526020016000151581525061369d565b9052600080546040516320487ded60e01b81529293509091620100009091046001600160a01b0316906320487ded90611f2690899086906004016150f8565b60206040518083038186803b158015611f3e57600080fd5b505afa158015611f52573d6000803e3d6000fd5b505050506040513d601f19601f82011682018060405250810190611f769190614bdd565b905060006001846001811115611f8e57611f8e6153bb565b1415612024576000546040516396f4e9f960e01b8152620100009091046001600160a01b0316906396f4e9f990611fcb908a9087906004016150f8565b602060405180830381600087803b158015611fe557600080fd5b505af1158015611ff9573d6000803e3d6000fd5b505050506040513d601f19601f8201168201806040525081019061201d9190614bdd565b90506120b2565b6000546040516396f4e9f960e01b8152620100009091046001600160a01b0316906396f4e9f990849061205d908b9088906004016150f8565b6020604051808303818588803b15801561207657600080fd5b505af115801561208a573d6000803e3d6000fd5b50505050506040513d601f19601f820116820180604052508101906120af9190614bdd565b90505b6040518181527f54791b38f3859327992a1ca0590ad3c0f08feba98d1a4f56ab0dca74d203392a906020015b60405180910390a150505050505050565b6000670de0b6b3a764000061210261131f565b61210c90846152a8565b6108a29190615286565b61211e612928565b609880546001600160a01b0319166001600160a01b0392909216919091179055565b612148612928565b609d546000818152609e602090815260408083205460985482516311d3af8360e31b815292519194936001600160a01b0390911692638e9d7c189260048083019392829003018186803b15801561219e57600080fd5b505afa1580156121b2573d6000803e3d6000fd5b505050506040513d601f19601f820116820180604052508101906121d69190614bdd565b90506000609860009054906101000a90046001600160a01b03166001600160a01b031663f15817876040518163ffffffff1660e01b815260040160206040518083038186803b15801561222857600080fd5b505afa15801561223c573d6000803e3d6000fd5b505050506040513d601f19601f820116820180604052508101906122609190614bdd565b905060005b828110156125b3576098546040516395a7e2b360e01b815260048101849052602481018390526000916001600160a01b0316906395a7e2b39060440160206040518083038186803b1580156122b957600080fd5b505afa1580156122cd573d6000803e3d6000fd5b505050506040513d601f19601f820116820180604052508101906122f19190614da3565b60985460405163b6ad185b60e01b81526001600160401b03831660048201529192506000916001600160a01b039091169063b6ad185b9060240160206040518083038186803b15801561234357600080fd5b505afa158015612357573d6000803e3d6000fd5b505050506040513d601f19601f8201168201806040525081019061237b9190614bdd565b609854604051637e34c5a560e11b81526001600160401b03851660048201529192506000916001600160a01b039091169063fc698b4a9060240160206040518083038186803b1580156123cd57600080fd5b505afa1580156123e1573d6000803e3d6000fd5b505050506040513d601f19601f820116820180604052508101906124059190614bdd565b6098546040516377b2688f60e01b8152600481018890526001600160401b03861660248201529192506000916001600160a01b03909116906377b2688f9060440160206040518083038186803b15801561245e57600080fd5b505afa158015612472573d6000803e3d6000fd5b505050506040513d601f19601f820116820180604052508101906124969190614bdd565b60008a815260a2602090815260408083206001600160401b03891680855292528083205460985491516302fc352760e61b815260048101939093529394506001600160a01b03169063bf0d49c09060240160006040518083038186803b1580156124ff57600080fd5b505afa158015612513573d6000803e3d6000fd5b505050506040513d6000823e601f3d908101601f1916820160405261253b9190810190614b87565b9050828a6125528468056bc75e2d631000006152a8565b61255c9190615286565b101561259a57609c546001600160401b038781169116141561258c57612587878c8c898989896136e7565b61259a565b61259a8b8b88868686613d2d565b50505050505080806125ab9061538a565b915050612265565b5050505050565b600054610100900460ff16158080156125da5750600054600160ff909116105b806125f45750303b1580156125f4575060005460ff166001145b6126575760405162461bcd60e51b815260206004820152602e60248201527f496e697469616c697a61626c653a20636f6e747261637420697320616c72656160448201526d191e481a5b9a5d1a585b1a5e995960921b6064820152608401611442565b6000805460ff19166001179055801561267a576000805461ff0019166101001790555b61268383614197565b61268b614212565b609c805467ffffffffffffffff19166001600160401b038916179055609a80546001600160a01b03199081166001600160a01b038981169190911790925560988054909116878316179055609980548683166001600160b01b03199091168117600560a01b1790915560005460405163095ea7b360e01b815262010000909104909216600483015260001960248301529063095ea7b390604401602060405180830381600087803b15801561273f57600080fd5b505af1158015612753573d6000803e3d6000fd5b505050506040513d601f19601f820116820180604052508101906127779190614bbb565b50609c805468010000000000000000600160e01b031916600160401b6001600160a01b03851602179055609a805460ff60a01b1916600560a11b17905542609b5580156127fa576000805461ff0019169055604051600181527f7f26b83ff96e1f2b6a682f133852f6798a09c465da95921460cefb3847402498906020016120de565b50505050505050565b6001600160a01b0381166128295760405162461bcd60e51b81526004016114429061505d565b6065546001600160a01b038281169116146128a15760405162461bcd60e51b815260206004820152603260248201527f50726f706f7361626c654f776e61626c653a206e6577206f776e6572206973206044820152713737ba10383937b837b9b2b21037bbb732b960711b6064820152608401611442565b6001600160a01b038116331461291f5760405162461bcd60e51b815260206004820152603a60248201527f50726f706f7361626c654f776e61626c653a20746869732063616c6c206d757360448201527f74206265206d61646520627920746865206e6577206f776e65720000000000006064820152608401611442565b611a4d8161334a565b6033546001600160a01b03163314611a075760405162461bcd60e51b815260206004820181905260248201527f4f776e61626c653a2063616c6c6572206973206e6f7420746865206f776e65726044820152606401611442565b6129bd6040518060a0016040528060006001600160a01b03168152602001600081526020016000815260200160008152602001600081525090565b600087815260a2602090815260408083206001600160401b0389168452909152808220546060840152609c54609a5491516370a0823160e01b81526001600160a01b039283166004820152600160401b909104909116906370a082319060240160206040518083038186803b158015612a3557600080fd5b505afa158015612a49573d6000803e3d6000fd5b505050506040513d601f19601f82011682018060405250810190612a6d9190614bdd565b905060005b85811015612cfe5760985460405163264cae9360e21b8152600481018390526001600160a01b0390911690639932ba4c9060240160206040518083038186803b158015612abe57600080fd5b505afa158015612ad2573d6000803e3d6000fd5b505050506040513d601f19601f82011682018060405250810190612af69190614a3e565b6001600160a01b0390811680855260985460405163d90bc21160e01b815260048101929092529091169063d90bc2119060240160206040518083038186803b158015612b4157600080fd5b505afa158015612b55573d6000803e3d6000fd5b505050506040513d601f19601f82011682018060405250810190612b799190614bdd565b6020840152609854835160405162967c1760e71b81526001600160a01b039182166004820152911690634b3e0b809060240160206040518083038186803b158015612bc357600080fd5b505afa158015612bd7573d6000803e3d6000fd5b505050506040513d601f19601f82011682018060405250810190612bfb9190614bdd565b6040840152609c548351600091600160401b90046001600160a01b0390811691161415612c29575081612cd5565b8351609c54609a546040516370a0823160e01b81526001600160a01b039182166004820152612cd29392600160401b90048216918316906370a082319060240160206040518083038186803b158015612c8157600080fd5b505afa158015612c95573d6000803e3d6000fd5b505050506040513d601f19601f82011682018060405250810190612cb99190614bdd565b609a5460208901516001600160a01b0390911690614241565b90505b8084608001818151612ce7919061526e565b905250819050612cf68161538a565b915050612a72565b50600087836060015168056bc75e2d63100000612d1b91906152a8565b612d259190615286565b9050600081858560800151612d3a91906152a8565b612d449190615286565b90506000818560800151612d5891906152c7565b905060005b87811015612f7f5760985460405163239aad0d60e01b8152600481018390526000916001600160a01b03169063239aad0d9060240160206040518083038186803b158015612daa57600080fd5b505afa158015612dbe573d6000803e3d6000fd5b505050506040513d601f19601f82011682018060405250810190612de29190614a3e565b60985460405163d90bc21160e01b81526001600160a01b0380841660048301529293506000929091169063d90bc2119060240160206040518083038186803b158015612e2d57600080fd5b505afa158015612e41573d6000803e3d6000fd5b505050506040513d601f19601f82011682018060405250810190612e659190614bdd565b60985460405162967c1760e71b81526001600160a01b03858116600483015292935060009290911690634b3e0b809060240160206040518083038186803b158015612eaf57600080fd5b505afa158015612ec3573d6000803e3d6000fd5b505050506040513d601f19601f82011682018060405250810190612ee79190614bdd565b609c549091506000906001600160a01b03858116600160401b909204161415612f26578a612f1583896152a8565b612f1f9190615286565b9050612f68565b609c54612f6590600160401b90046001600160a01b0316858d612f49868c6152a8565b612f539190615286565b609a546001600160a01b031687614241565b90505b505050508080612f779061538a565b915050612d5d565b5060008b8152609f602052604081208054839290612f9e90849061526e565b90915550612fae905086846152c7565b60008c815260a5602052604081208054909190612fcc90849061526e565b9091555050505050505050505050505050565b600085612ff58468056bc75e2d631000006152a8565b612fff9190615286565b905061300b84826152c7565b600088815260a560205260408120805490919061302990849061526e565b909155506000905061303a866112e5565b60985460405163d1c68aa360e01b81526001600160401b03891660048201529192506000916001600160a01b039091169063d1c68aa39060240160006040518083038186803b15801561308c57600080fd5b505afa1580156130a0573d6000803e3d6000fd5b505050506040513d6000823e601f3d908101601f191682016040526130c89190810190614b53565b609854604051633414329f60e21b81526001600160401b038a1660048201529192506000916001600160a01b039091169063d050ca7c9060240160006040518083038186803b15801561311a57600080fd5b505afa15801561312e573d6000803e3d6000fd5b505050506040513d6000823e601f3d908101601f191682016040526131569190810190614b53565b60985460405163221f337160e01b81526001600160401b038b1660048201529192506000916001600160a01b039091169063221f33719060240160006040518083038186803b1580156131a857600080fd5b505afa1580156131bc573d6000803e3d6000fd5b505050506040513d6000823e601f3d908101601f191682016040526131e49190810190614b87565b609854604051631435bff160e31b81526001600160401b038c1660048201529192506000916001600160a01b039091169063a1adff889060240160006040518083038186803b15801561323657600080fd5b505afa15801561324a573d6000803e3d6000fd5b505050506040513d6000823e601f3d908101601f191682016040526132729190810190614b87565b60408051600280825260608201835292935060009290916020830190803683370190505090508b816000815181106132ac576132ac6153d1565b60200260200101818152505089816001815181106132cc576132cc6153d1565b60200260200101818152505088816002815181106132ec576132ec6153d1565b6020026020010181815250506000600386868686609d548e8860405160200161331c989796959493929190614fc7565b604051602081830303815290604052905061333a8c88836001611e0e565b5050505050505050505050505050565b603380546001600160a01b038381166001600160a01b0319831681179093556040519116919082907f8be0079c531659141344cd1fd0a4f28419497f9722a3daafe3b4186f6b6457e090600090a35050565b80516020808301516040840151805191926000926133c09290810182019101614a3e565b905060008060008060008089606001518060200190518101906133e39190614ca3565b95509550955095509550955085600014156133fd57613691565b856001141561340b57613691565b85600214156135735760005b825181101561356d57828181518110613432576134326153d1565b6020026020010151609e6000868152602001908152602001600020600082825461345c919061526e565b92505081905550828181518110613475576134756153d1565b602002602001015160a1600086815260200190815260200160002060008884815181106134a4576134a46153d1565b60200260200101516001600160a01b03166001600160a01b0316815260200190815260200160002060008282546134db919061526e565b925050819055508281815181106134f4576134f46153d1565b602090810291909101810151600086815260a2835260408082206001600160401b038e16835290935291822080549192909161353190849061526e565b9091555050600084815260a06020526040812080546001929061355590849061526e565b909155508190506135658161538a565b915050613417565b50613691565b85600314156136245760008a60800151905060008160008151811061359a5761359a6153d1565b60200260200101516000015190506000826000815181106135bd576135bd6153d1565b602002602001015160200151905060006135f083609c60089054906101000a90046001600160a01b0316843060036109d4565b905080609f60008981526020019081526020016000206000828254613615919061526e565b90915550613691945050505050565b856004141561369157609860009054906101000a90046001600160a01b03166001600160a01b0316638baa6bf16040518163ffffffff1660e01b8152600401600060405180830381600087803b15801561367d57600080fd5b505af115801561333a573d6000803e3d6000fd5b50505050505050505050565b6040805182516024820152602092830151151560448083019190915282518083039091018152606490910190915290810180516001600160e01b03166397a657c960e01b17905290565b6137296040518060c0016040528060006001600160a01b0316815260200160008152602001600081526020016000815260200160008152602001600081525090565b60985460405163264cae9360e21b8152600481018a90526001600160a01b0390911690639932ba4c9060240160206040518083038186803b15801561376d57600080fd5b505afa158015613781573d6000803e3d6000fd5b505050506040513d601f19601f820116820180604052508101906137a59190614a3e565b6001600160a01b0390811680835260985460405163d90bc21160e01b815260048101929092529091169063d90bc2119060240160206040518083038186803b1580156137f057600080fd5b505afa158015613804573d6000803e3d6000fd5b505050506040513d601f19601f820116820180604052508101906138289190614bdd565b6020820152609854815160405162967c1760e71b81526001600160a01b039182166004820152911690634b3e0b809060240160206040518083038186803b15801561387257600080fd5b505afa158015613886573d6000803e3d6000fd5b505050506040513d601f19601f820116820180604052508101906138aa9190614bdd565b604082810191909152600088815260a260209081528282206001600160401b038916835290528181205460608401528251609a5492516370a0823160e01b81526001600160a01b039384166004820152919216906370a082319060240160206040518083038186803b15801561391f57600080fd5b505afa158015613933573d6000803e3d6000fd5b505050506040513d601f19601f820116820180604052508101906139579190614bdd565b905060005b85811015613a6957609c5483516001600160a01b03908116600160401b90920416141561398f5760a08301829052613a3e565b8251609c54609a546040516370a0823160e01b81526001600160a01b039182166004820152613a389392600160401b90048216918316906370a082319060240160206040518083038186803b1580156139e757600080fd5b505afa1580156139fb573d6000803e3d6000fd5b505050506040513d601f19601f82011682018060405250810190613a1f9190614bdd565b609a5460208801516001600160a01b0390911690614241565b60a08401525b8260a0015183608001818151613a54919061526e565b90525080613a618161538a565b91505061395c565b50600087836060015168056bc75e2d63100000613a8691906152a8565b613a909190615286565b90506000613a9e82866152c7565b60008b815260a56020908152604080832054609f9092528220549293509091613ac89084906152a8565b613ad29190615286565b90508085608001818151613ae6919061526e565b90525060005b87811015613d1e5760985460405163264cae9360e21b8152600481018390526000916001600160a01b031690639932ba4c9060240160206040518083038186803b158015613b3957600080fd5b505afa158015613b4d573d6000803e3d6000fd5b505050506040513d601f19601f82011682018060405250810190613b719190614a3e565b60985460405163d90bc21160e01b81526001600160a01b0380841660048301529293506000929091169063d90bc2119060240160206040518083038186803b158015613bbc57600080fd5b505afa158015613bd0573d6000803e3d6000fd5b505050506040513d601f19601f82011682018060405250810190613bf49190614bdd565b60985460405162967c1760e71b81526001600160a01b03858116600483015292935060009290911690634b3e0b809060240160206040518083038186803b158015613c3e57600080fd5b505afa158015613c52573d6000803e3d6000fd5b505050506040513d601f19601f82011682018060405250810190613c769190614bdd565b609c549091506001600160a01b03848116600160401b909204161415613cbb5789818a60800151613ca791906152a8565b613cb19190615286565b60a08a0152613d08565b613d02609c60089054906101000a90046001600160a01b0316848c848d60800151613ce691906152a8565b613cf09190615286565b609a546001600160a01b031686614241565b60a08a01525b5050508080613d169061538a565b915050613aec565b50505050505050505050505050565b613d5f6040518060a0016040528060608152602001606081526020016060815260200160608152602001606081525090565b600086613d758568056bc75e2d631000006152a8565b613d7f9190615286565b90506000613d8d82876152c7565b60008a815260a56020908152604080832054609f9092528220549293509091613db79084906152a8565b613dc19190615286565b90506000613dce896112e5565b90506000613dfd609c60089054906101000a90046001600160a01b0316613df48c610b06565b85306003614241565b60985460405163d1c68aa360e01b81526001600160401b038d1660048201529192506001600160a01b03169063d1c68aa39060240160006040518083038186803b158015613e4a57600080fd5b505afa158015613e5e573d6000803e3d6000fd5b505050506040513d6000823e601f3d908101601f19168201604052613e869190810190614b53565b8652609854604051633414329f60e21b81526001600160401b038c1660048201526001600160a01b039091169063d050ca7c9060240160006040518083038186803b158015613ed457600080fd5b505afa158015613ee8573d6000803e3d6000fd5b505050506040513d6000823e601f3d908101601f19168201604052613f109190810190614b53565b602087015260985460405163221f337160e01b81526001600160401b038c1660048201526001600160a01b039091169063221f33719060240160006040518083038186803b158015613f6157600080fd5b505afa158015613f75573d6000803e3d6000fd5b505050506040513d6000823e601f3d908101601f19168201604052613f9d9190810190614b87565b6040878101919091526098549051631435bff160e31b81526001600160401b038c1660048201526001600160a01b039091169063a1adff889060240160006040518083038186803b158015613ff157600080fd5b505afa158015614005573d6000803e3d6000fd5b505050506040513d6000823e601f3d908101601f1916820160405261402d9190810190614b87565b606087810191909152604080516002808252928101825291906020830190803683375050506080870181905280518c919060009061406d5761406d6153d1565b602002602001018181525050888660800151600181518110614091576140916153d1565b6020908102919091010152604080516001808252818301909252600091816020015b60408051808201909152600080825260208201528152602001906001900390816140b35790505090506140e58b610b06565b816000815181106140f8576140f86153d1565b6020026020010151600001906001600160a01b031690816001600160a01b0316815250508181600081518110614130576141306153d1565b6020026020010151602001818152505060006004886000015189602001518a604001518b60600151609d548e8e60800151604051602001614178989796959493929190614fc7565b604051602081830303815290604052905061333a8c8286856001614390565b600054610100900460ff166141be5760405162461bcd60e51b8152600401611442906150ad565b6001600160a01b0381166141e8576040516335fdcccd60e21b815260006004820152602401611442565b600080546001600160a01b03909216620100000262010000600160b01b0319909216919091179055565b600054610100900460ff166142395760405162461bcd60e51b8152600401611442906150ad565b611a076147f6565b6098546040516313cb1f8360e01b815260009182916001600160a01b03909116906313cb1f839061427c908a908a908a908990600401614f9e565b60206040518083038186803b15801561429457600080fd5b505afa1580156142a8573d6000803e3d6000fd5b505050506040513d601f19601f820116820180604052508101906142cc9190614bdd565b90506000811561437657609a546040516305f370ed60e41b81526001600160a01b038a8116600483015289811660248301526044820189905287811660648301526084820187905290911690635f370ed09060a401602060405180830381600087803b15801561433b57600080fd5b505af115801561434f573d6000803e3d6000fd5b505050506040513d601f19601f820116820180604052508101906143739190614bdd565b90505b83600314156143885791506109cb9050565b5090506109cb565b8151609954600160a01b900461ffff168111156144155760405162461bcd60e51b815260206004820152603760248201527f4d6178696d756d203520646966666572656e7420746f6b656e732063616e206260448201527f652073656e74207065722043434950204d6573736167650000000000000000006064820152608401611442565b60005b8181101561454a5760995484516001600160a01b0390911690859083908110614443576144436153d1565b6020026020010151600001516001600160a01b0316146145425783818151811061446f5761446f6153d1565b6020026020010151600001516001600160a01b031663095ea7b3600060029054906101000a90046001600160a01b03168684815181106144b1576144b16153d1565b6020026020010151602001516040518363ffffffff1660e01b81526004016144ee9291906001600160a01b03929092168252602082015260400190565b602060405180830381600087803b15801561450857600080fd5b505af115801561451c573d6000803e3d6000fd5b505050506040513d601f19601f820116820180604052508101906145409190614bbb565b505b600101614418565b506040805160a081019091526001600160a01b03851660c08201526000908060e0810160408051601f1981840301815291815290825260208201899052810186905260600160018560018111156145a3576145a36153bb565b146145af5760006145bc565b6099546001600160a01b03165b6001600160a01b031681526020016145ed6040518060400160405280620dbba081526020016000151581525061369d565b9052600080546040516320487ded60e01b81529293509091620100009091046001600160a01b0316906320487ded9061462c908b9086906004016150f8565b60206040518083038186803b15801561464457600080fd5b505afa158015614658573d6000803e3d6000fd5b505050506040513d601f19601f8201168201806040525081019061467c9190614bdd565b905060006001856001811115614694576146946153bb565b141561472a576000546040516396f4e9f960e01b8152620100009091046001600160a01b0316906396f4e9f9906146d1908c9087906004016150f8565b602060405180830381600087803b1580156146eb57600080fd5b505af11580156146ff573d6000803e3d6000fd5b505050506040513d601f19601f820116820180604052508101906147239190614bdd565b90506147b8565b6000546040516396f4e9f960e01b8152620100009091046001600160a01b0316906396f4e9f9908490614763908d9088906004016150f8565b6020604051808303818588803b15801561477c57600080fd5b505af1158015614790573d6000803e3d6000fd5b50505050506040513d601f19601f820116820180604052508101906147b59190614bdd565b90505b6040518181527f54791b38f3859327992a1ca0590ad3c0f08feba98d1a4f56ab0dca74d203392a9060200160405180910390a1505050505050505050565b600054610100900460ff1661481d5760405162461bcd60e51b8152600401611442906150ad565b611a073361334a565b600082601f83011261483757600080fd5b8151602061484c6148478361524b565b61521b565b80838252828201915082860187848660051b890101111561486c57600080fd5b60005b85811015614894578151614882816153fd565b8452928401929084019060010161486f565b5090979650505050505050565b600082601f8301126148b257600080fd5b813560206148c26148478361524b565b80838252828201915082860187848660061b89010111156148e257600080fd5b6000805b8681101561492d57604080848c0312156148fe578283fd5b6149066151d1565b8435614911816153fd565b81528488013588820152865294860194909201916001016148e6565b509198975050505050505050565b600082601f83011261494c57600080fd5b8151602061495c6148478361524b565b80838252828201915082860187848660051b890101111561497c57600080fd5b60005b858110156148945781518452928401929084019060010161497f565b600082601f8301126149ac57600080fd5b81356001600160401b038111156149c5576149c56153e7565b6149d8601f8201601f191660200161521b565b8181528460208386010111156149ed57600080fd5b816020850160208301376000918101602001919091529392505050565b8035614a1581615412565b919050565b600060208284031215614a2c57600080fd5b8135614a37816153fd565b9392505050565b600060208284031215614a5057600080fd5b8151614a37816153fd565b600080600060608486031215614a7057600080fd5b8335614a7b816153fd565b92506020840135614a8b816153fd565b915060408401356001600160801b0381168114614aa757600080fd5b809150509250925092565b600080600080600060a08688031215614aca57600080fd5b8535614ad5816153fd565b94506020860135614ae5816153fd565b9350604086013592506060860135614afc816153fd565b949793965091946080013592915050565b60008060008060808587031215614b2357600080fd5b8435614b2e816153fd565b93506020850135614b3e816153fd565b93969395505050506040820135916060013590565b600060208284031215614b6557600080fd5b81516001600160401b03811115614b7b57600080fd5b61093c84828501614826565b600060208284031215614b9957600080fd5b81516001600160401b03811115614baf57600080fd5b61093c8482850161493b565b600060208284031215614bcd57600080fd5b81518015158114614a3757600080fd5b600060208284031215614bef57600080fd5b5051919050565b600060208284031215614c0857600080fd5b81356001600160e01b031981168114614a3757600080fd5b600060208284031215614c3257600080fd5b81356001600160401b03811115614c4857600080fd5b820160a08185031215614a3757600080fd5b600060208284031215614c6c57600080fd5b5035919050565b60008060408385031215614c8657600080fd5b823591506020830135614c98816153fd565b809150509250929050565b60008060008060008060c08789031215614cbc57600080fd5b8651955060208701516001600160401b0380821115614cda57600080fd5b614ce68a838b01614826565b96506040890151915080821115614cfc57600080fd5b614d088a838b01614826565b9550606089015194506080890151915080821115614d2557600080fd5b614d318a838b0161493b565b935060a0890151915080821115614d4757600080fd5b50614d5489828a0161493b565b9150509295509295509295565b60008060408385031215614d7457600080fd5b823591506020830135614c9881615412565b600060208284031215614d9857600080fd5b8135614a3781615412565b600060208284031215614db557600080fd5b8151614a3781615412565b60008060008060008060c08789031215614dd957600080fd5b8635614de481615412565b95506020870135614df4816153fd565b94506040870135614e04816153fd565b93506060870135614e14816153fd565b92506080870135614e24816153fd565b915060a0870135614e34816153fd565b809150509295509295509295565b60008060008060808587031215614e5857600080fd5b8435614e6381615412565b93506020850135614e73816153fd565b925060408501356001600160401b03811115614e8e57600080fd5b614e9a8782880161499b565b925050606085013560028110614eaf57600080fd5b939692955090935050565b600060208284031215614ecc57600080fd5b813560ff81168114614a3757600080fd5b600081518084526020808501945080840160005b83811015614f165781516001600160a01b031687529582019590820190600101614ef1565b509495945050505050565b600081518084526020808501945080840160005b83811015614f1657815187529582019590820190600101614f35565b6000815180845260005b81811015614f7757602081850181015186830182015201614f5b565b81811115614f89576000602083870101525b50601f01601f19169290920160200192915050565b6001600160a01b0394851681529290931660208301526040820152606081019190915260800190565b600061010060ff8b168352806020840152614fe48184018b614edd565b90508281036040840152614ff8818a614edd565b9050828103606084015261500c8189614f21565b905082810360808401526150208188614f21565b90508560a084015282810360c084015261503a8186614f21565b905082810360e084015261504e8185614f21565b9b9a5050505050505050505050565b60208082526030908201527f50726f706f7361626c654f776e61626c653a206e6577206f776e65722069732060408201526f746865207a65726f206164647265737360801b606082015260800190565b6020808252602b908201527f496e697469616c697a61626c653a20636f6e7472616374206973206e6f74206960408201526a6e697469616c697a696e6760a81b606082015260800190565b600060406001600160401b038516835260208181850152845160a08386015261512460e0860182614f51565b905081860151603f19808784030160608801526151418383614f51565b88860151888203830160808a01528051808352908601945060009350908501905b8084101561519457845180516001600160a01b0316835286015186830152938501936001939093019290860190615162565b5060608901516001600160a01b031660a08901526080890151888203830160c08a015295506151c38187614f51565b9a9950505050505050505050565b604080519081016001600160401b03811182821017156151f3576151f36153e7565b60405290565b60405160a081016001600160401b03811182821017156151f3576151f36153e7565b604051601f8201601f191681016001600160401b0381118282101715615243576152436153e7565b604052919050565b60006001600160401b03821115615264576152646153e7565b5060051b60200190565b60008219821115615281576152816153a5565b500190565b6000826152a357634e487b7160e01b600052601260045260246000fd5b500490565b60008160001904831182151516156152c2576152c26153a5565b500290565b6000828210156152d9576152d96153a5565b500390565b600060a082360312156152f057600080fd5b6152f86151f9565b8235815261530860208401614a0a565b602082015260408301356001600160401b038082111561532757600080fd5b6153333683870161499b565b6040840152606085013591508082111561534c57600080fd5b6153583683870161499b565b6060840152608085013591508082111561537157600080fd5b5061537e368286016148a1565b60808301525092915050565b600060001982141561539e5761539e6153a5565b5060010190565b634e487b7160e01b600052601160045260246000fd5b634e487b7160e01b600052602160045260246000fd5b634e487b7160e01b600052603260045260246000fd5b634e487b7160e01b600052604160045260246000fd5b6001600160a01b0381168114611a4d57600080fd5b6001600160401b0381168114611a4d57600080fdfea264697066735822122036061f56347012f6a32885d7e09c50ad4d03045430d4f9428de6d8ee38bf305764736f6c63430008070033","linkReferences":{}},"methodIdentifiers":{"askValues()":"2700cc86","ccipReceive((bytes32,uint64,bytes,bytes,(address,uint256)[]))":"85572ffb","chainValueByNonce(uint256,uint64)":"69abf538","convertEthToUsd(uint256)":"c086381e","crossChainFactoryBySelector(uint64)":"340fbc74","crossChainToken(uint64)":"19da7e2a","currentChainSelector()":"3d54cb6f","estimateAmountOut(address,address,uint128)":"0456f9c8","extraWethByNonce(uint256)":"756c1fd1","feeRate()":"978bbdb9","firstReweightAction()":"63713a8b","getAmountOut(address,address,uint256,uint256)":"13cb1f83","getPortfolioBalance()":"a8509fd8","getRouter()":"b0f479a1","i_link()":"7d253aff","i_maxTokensLength()":"5b6a0351","indexFactoryStorage()":"d1f7a991","indexToken()":"e7d015f2","initialize(uint64,address,address,address,address,address)":"edba0e31","latestFeeUpdate()":"011ced5f","owner()":"8da5cb5b","portfolioTotalValueByNonce(uint256)":"7d3546f7","priceInWei()":"3c8da588","proposeOwner(address)":"b5ed298a","proposedOwner()":"d153b60c","redemptionNonceOutputToken(uint256)":"0603fb05","redemptionNonceOutputTokenSwapVersion(uint256)":"72bc260c","renounceOwnership()":"715018a6","reweightExtraPercentage(uint256)":"814ffd71","reweightTokensCount(uint256)":"78324463","reweightWethValueByNonce(uint256)":"f1639b09","secondReweightAction()":"d79e8d65","sendMessage(uint64,address,bytes,uint8)":"bcab90b3","setFeeRate(uint8)":"5177942a","setIndexFactoryStorage(address)":"cc8659ae","supportsInterface(bytes4)":"01ffc9a7","swap(address,address,uint256,address,uint256)":"17d88f46","tokenValueByNonce(uint256,address)":"b316e7fd","transferOwnership(address)":"f2fde38b","updatePortfolioNonce()":"003cf402","updatedTokensValueCount(uint256)":"c070a097","weth()":"3fc8cef3"},"id":4}