{"abi":[{"type":"receive","stateMutability":"payable"},{"type":"function","name":"askValues","inputs":[],"outputs":[],"stateMutability":"nonpayable"},{"type":"function","name":"ccipReceive","inputs":[{"name":"message","type":"tuple","internalType":"struct Client.Any2EVMMessage","components":[{"name":"messageId","type":"bytes32","internalType":"bytes32"},{"name":"sourceChainSelector","type":"uint64","internalType":"uint64"},{"name":"sender","type":"bytes","internalType":"bytes"},{"name":"data","type":"bytes","internalType":"bytes"},{"name":"destTokenAmounts","type":"tuple[]","internalType":"struct Client.EVMTokenAmount[]","components":[{"name":"token","type":"address","internalType":"address"},{"name":"amount","type":"uint256","internalType":"uint256"}]}]}],"outputs":[],"stateMutability":"nonpayable"},{"type":"function","name":"chainValueByNonce","inputs":[{"name":"","type":"uint256","internalType":"uint256"},{"name":"","type":"uint64","internalType":"uint64"}],"outputs":[{"name":"","type":"uint256","internalType":"uint256"}],"stateMutability":"view"},{"type":"function","name":"convertEthToUsd","inputs":[{"name":"_ethAmount","type":"uint256","internalType":"uint256"}],"outputs":[{"name":"","type":"uint256","internalType":"uint256"}],"stateMutability":"view"},{"type":"function","name":"crossChainFactoryBySelector","inputs":[{"name":"_chainSelector","type":"uint64","internalType":"uint64"}],"outputs":[{"name":"","type":"address","internalType":"address"}],"stateMutability":"view"},{"type":"function","name":"crossChainToken","inputs":[{"name":"_chainSelector","type":"uint64","internalType":"uint64"}],"outputs":[{"name":"","type":"address","internalType":"address"}],"stateMutability":"view"},{"type":"function","name":"currentChainSelector","inputs":[],"outputs":[{"name":"","type":"uint64","internalType":"uint64"}],"stateMutability":"view"},{"type":"function","name":"estimateAmountOut","inputs":[{"name":"tokenIn","type":"address","internalType":"address"},{"name":"tokenOut","type":"address","internalType":"address"},{"name":"amountIn","type":"uint128","internalType":"uint128"}],"outputs":[{"name":"amountOut","type":"uint256","internalType":"uint256"}],"stateMutability":"view"},{"type":"function","name":"extraWethByNonce","inputs":[{"name":"","type":"uint256","internalType":"uint256"}],"outputs":[{"name":"","type":"uint256","internalType":"uint256"}],"stateMutability":"view"},{"type":"function","name":"feeRate","inputs":[],"outputs":[{"name":"","type":"uint8","internalType":"uint8"}],"stateMutability":"view"},{"type":"function","name":"firstReweightAction","inputs":[],"outputs":[],"stateMutability":"nonpayable"},{"type":"function","name":"getAmountOut","inputs":[{"name":"tokenIn","type":"address","internalType":"address"},{"name":"tokenOut","type":"address","internalType":"address"},{"name":"amountIn","type":"uint256","internalType":"uint256"},{"name":"_swapVersion","type":"uint256","internalType":"uint256"}],"outputs":[{"name":"finalAmountOut","type":"uint256","internalType":"uint256"}],"stateMutability":"view"},{"type":"function","name":"getPortfolioBalance","inputs":[],"outputs":[{"name":"","type":"uint256","internalType":"uint256"}],"stateMutability":"view"},{"type":"function","name":"getRouter","inputs":[],"outputs":[{"name":"","type":"address","internalType":"address"}],"stateMutability":"view"},{"type":"function","name":"i_link","inputs":[],"outputs":[{"name":"","type":"address","internalType":"address"}],"stateMutability":"view"},{"type":"function","name":"i_maxTokensLength","inputs":[],"outputs":[{"name":"","type":"uint16","internalType":"uint16"}],"stateMutability":"view"},{"type":"function","name":"indexFactoryStorage","inputs":[],"outputs":[{"name":"","type":"address","internalType":"contract IndexFactoryStorage"}],"stateMutability":"view"},{"type":"function","name":"indexToken","inputs":[],"outputs":[{"name":"","type":"address","internalType":"contract IndexToken"}],"stateMutability":"view"},{"type":"function","name":"initialize","inputs":[{"name":"_currentChainSelector","type":"uint64","internalType":"uint64"},{"name":"_token","type":"address","internalType":"address payable"},{"name":"_indexFactoryStorage","type":"address","internalType":"address"},{"name":"_chainlinkToken","type":"address","internalType":"address"},{"name":"_router","type":"address","internalType":"address"},{"name":"_weth","type":"address","internalType":"address"}],"outputs":[],"stateMutability":"nonpayable"},{"type":"function","name":"latestFeeUpdate","inputs":[],"outputs":[{"name":"","type":"uint256","internalType":"uint256"}],"stateMutability":"view"},{"type":"function","name":"owner","inputs":[],"outputs":[{"name":"","type":"address","internalType":"address"}],"stateMutability":"view"},{"type":"function","name":"portfolioTotalValueByNonce","inputs":[{"name":"","type":"uint256","internalType":"uint256"}],"outputs":[{"name":"","type":"uint256","internalType":"uint256"}],"stateMutability":"view"},{"type":"function","name":"priceInWei","inputs":[],"outputs":[{"name":"","type":"uint256","internalType":"uint256"}],"stateMutability":"view"},{"type":"function","name":"proposeOwner","inputs":[{"name":"_proposedOwner","type":"address","internalType":"address"}],"outputs":[],"stateMutability":"nonpayable"},{"type":"function","name":"proposedOwner","inputs":[],"outputs":[{"name":"","type":"address","internalType":"address"}],"stateMutability":"view"},{"type":"function","name":"redemptionNonceOutputToken","inputs":[{"name":"","type":"uint256","internalType":"uint256"}],"outputs":[{"name":"","type":"address","internalType":"address"}],"stateMutability":"view"},{"type":"function","name":"redemptionNonceOutputTokenSwapVersion","inputs":[{"name":"","type":"uint256","internalType":"uint256"}],"outputs":[{"name":"","type":"uint256","internalType":"uint256"}],"stateMutability":"view"},{"type":"function","name":"renounceOwnership","inputs":[],"outputs":[],"stateMutability":"nonpayable"},{"type":"function","name":"reweightExtraPercentage","inputs":[{"name":"","type":"uint256","internalType":"uint256"}],"outputs":[{"name":"","type":"uint256","internalType":"uint256"}],"stateMutability":"view"},{"type":"function","name":"reweightTokensCount","inputs":[{"name":"","type":"uint256","internalType":"uint256"}],"outputs":[{"name":"","type":"uint256","internalType":"uint256"}],"stateMutability":"view"},{"type":"function","name":"reweightWethValueByNonce","inputs":[{"name":"","type":"uint256","internalType":"uint256"}],"outputs":[{"name":"","type":"uint256","internalType":"uint256"}],"stateMutability":"view"},{"type":"function","name":"secondReweightAction","inputs":[],"outputs":[],"stateMutability":"nonpayable"},{"type":"function","name":"sendMessage","inputs":[{"name":"destinationChainSelector","type":"uint64","internalType":"uint64"},{"name":"receiver","type":"address","internalType":"address"},{"name":"_data","type":"bytes","internalType":"bytes"},{"name":"payFeesIn","type":"uint8","internalType":"enum IndexFactoryBalancer.PayFeesIn"}],"outputs":[],"stateMutability":"nonpayable"},{"type":"function","name":"setFeeRate","inputs":[{"name":"_newFee","type":"uint8","internalType":"uint8"}],"outputs":[],"stateMutability":"nonpayable"},{"type":"function","name":"setIndexFactoryStorage","inputs":[{"name":"_indexFactoryStorage","type":"address","internalType":"address"}],"outputs":[],"stateMutability":"nonpayable"},{"type":"function","name":"supportsInterface","inputs":[{"name":"interfaceId","type":"bytes4","internalType":"bytes4"}],"outputs":[{"name":"","type":"bool","internalType":"bool"}],"stateMutability":"pure"},{"type":"function","name":"swap","inputs":[{"name":"tokenIn","type":"address","internalType":"address"},{"name":"tokenOut","type":"address","internalType":"address"},{"name":"amountIn","type":"uint256","internalType":"uint256"},{"name":"_recipient","type":"address","internalType":"address"},{"name":"_swapVersion","type":"uint256","internalType":"uint256"}],"outputs":[{"name":"","type":"uint256","internalType":"uint256"}],"stateMutability":"nonpayable"},{"type":"function","name":"tokenValueByNonce","inputs":[{"name":"","type":"uint256","internalType":"uint256"},{"name":"","type":"address","internalType":"address"}],"outputs":[{"name":"","type":"uint256","internalType":"uint256"}],"stateMutability":"view"},{"type":"function","name":"transferOwnership","inputs":[{"name":"newOwner","type":"address","internalType":"address"}],"outputs":[],"stateMutability":"nonpayable"},{"type":"function","name":"updatePortfolioNonce","inputs":[],"outputs":[{"name":"","type":"uint256","internalType":"uint256"}],"stateMutability":"view"},{"type":"function","name":"updatedTokensValueCount","inputs":[{"name":"","type":"uint256","internalType":"uint256"}],"outputs":[{"name":"","type":"uint256","internalType":"uint256"}],"stateMutability":"view"},{"type":"function","name":"weth","inputs":[],"outputs":[{"name":"","type":"address","internalType":"contract IWETH"}],"stateMutability":"view"},{"type":"event","name":"Initialized","inputs":[{"name":"version","type":"uint8","indexed":false,"internalType":"uint8"}],"anonymous":false},{"type":"event","name":"MessageSent","inputs":[{"name":"messageId","type":"bytes32","indexed":false,"internalType":"bytes32"}],"anonymous":false},{"type":"event","name":"OwnershipTransferred","inputs":[{"name":"previousOwner","type":"address","indexed":true,"internalType":"address"},{"name":"newOwner","type":"address","indexed":true,"internalType":"address"}],"anonymous":false},{"type":"error","name":"InvalidRouter","inputs":[{"name":"router","type":"address","internalType":"address"}]}],"bytecode":{"object":"0x60806040523480156200001157600080fd5b506183b680620000226000396000f3fe6080604052600436106102545760003560e01c80637d253aff11610139578063bcab90b3116100b6578063d1f7a9911161007a578063d1f7a99114610946578063d79e8d6514610971578063e7d015f214610988578063edba0e31146109b3578063f1639b09146109dc578063f2fde38b14610a195761025b565b8063bcab90b31461084f578063c070a09714610878578063c086381e146108b5578063cc8659ae146108f2578063d153b60c1461091b5761025b565b8063978bbdb9116100fd578063978bbdb914610768578063a8509fd814610793578063b0f479a1146107be578063b316e7fd146107e9578063b5ed298a146108265761025b565b80637d253aff1461066f5780637d3546f71461069a578063814ffd71146106d757806385572ffb146107145780638da5cb5b1461073d5761025b565b80633c8da588116101d257806363713a8b1161019657806363713a8b1461054d57806369abf53814610564578063715018a6146105a157806372bc260c146105b8578063756c1fd1146105f557806378324463146106325761025b565b80633c8da588146104785780633d54cb6f146104a35780633fc8cef3146104ce5780635177942a146104f95780635b6a0351146105225761025b565b806313cb1f831161021957806313cb1f831461036d57806317d88f46146103aa57806319da7e2a146103e75780632700cc8614610424578063340fbc741461043b5761025b565b80623cf40214610260578063011ced5f1461028b57806301ffc9a7146102b65780630456f9c8146102f35780630603fb05146103305761025b565b3661025b57005b600080fd5b34801561026c57600080fd5b50610275610a42565b60405161028291906178ad565b60405180910390f35b34801561029757600080fd5b506102a0610a48565b6040516102ad91906178ad565b60405180910390f35b3480156102c257600080fd5b506102dd60048036038101906102d89190616af9565b610a4e565b6040516102ea91906174bd565b60405180910390f35b3480156102ff57600080fd5b5061031a600480360381019061031591906168d8565b610b20565b60405161032791906178ad565b60405180910390f35b34801561033c57600080fd5b5061035760048036038101906103529190616b6f565b610bda565b60405161036491906173aa565b60405180910390f35b34801561037957600080fd5b50610394600480360381019061038f91906169a6565b610c0d565b6040516103a191906178ad565b60405180910390f35b3480156103b657600080fd5b506103d160048036038101906103cc919061692b565b610cca565b6040516103de91906178ad565b60405180910390f35b3480156103f357600080fd5b5061040e60048036038101906104099190616d46565b610e42565b60405161041b91906173aa565b60405180910390f35b34801561043057600080fd5b50610439610ef6565b005b34801561044757600080fd5b50610462600480360381019061045d9190616d46565b61191e565b60405161046f91906173aa565b60405180910390f35b34801561048457600080fd5b5061048d6119d2565b60405161049a91906178ad565b60405180910390f35b3480156104af57600080fd5b506104b8611a79565b6040516104c59190617951565b60405180910390f35b3480156104da57600080fd5b506104e3611a93565b6040516104f091906174f3565b60405180910390f35b34801561050557600080fd5b50610520600480360381019061051b9190616eb0565b611ab9565b005b34801561052e57600080fd5b50610537611baa565b6040516105449190617892565b60405180910390f35b34801561055957600080fd5b50610562611bbe565b005b34801561057057600080fd5b5061058b60048036038101906105869190616d06565b61222b565b60405161059891906178ad565b60405180910390f35b3480156105ad57600080fd5b506105b6612250565b005b3480156105c457600080fd5b506105df60048036038101906105da9190616b6f565b612264565b6040516105ec91906178ad565b60405180910390f35b34801561060157600080fd5b5061061c60048036038101906106179190616b6f565b61227c565b60405161062991906178ad565b60405180910390f35b34801561063e57600080fd5b5061065960048036038101906106549190616b6f565b612294565b60405161066691906178ad565b60405180910390f35b34801561067b57600080fd5b506106846122ac565b60405161069191906173aa565b60405180910390f35b3480156106a657600080fd5b506106c160048036038101906106bc9190616b6f565b6122d2565b6040516106ce91906178ad565b60405180910390f35b3480156106e357600080fd5b506106fe60048036038101906106f99190616b6f565b6122ea565b60405161070b91906178ad565b60405180910390f35b34801561072057600080fd5b5061073b60048036038101906107369190616b26565b612302565b005b34801561074957600080fd5b506107526123a9565b60405161075f91906173aa565b60405180910390f35b34801561077457600080fd5b5061077d6123d3565b60405161078a919061799c565b60405180910390f35b34801561079f57600080fd5b506107a86123e6565b6040516107b591906178ad565b60405180910390f35b3480156107ca57600080fd5b506107d3612887565b6040516107e091906173aa565b60405180910390f35b3480156107f557600080fd5b50610810600480360381019061080b9190616bc9565b6128b0565b60405161081d91906178ad565b60405180910390f35b34801561083257600080fd5b5061084d60048036038101906108489190616851565b6128d5565b005b34801561085b57600080fd5b5061087660048036038101906108719190616e2d565b612991565b005b34801561088457600080fd5b5061089f600480360381019061089a9190616b6f565b612d43565b6040516108ac91906178ad565b60405180910390f35b3480156108c157600080fd5b506108dc60048036038101906108d79190616b6f565b612d5b565b6040516108e991906178ad565b60405180910390f35b3480156108fe57600080fd5b5061091960048036038101906109149190616851565b612d8a565b005b34801561092757600080fd5b50610930612dd6565b60405161093d91906173aa565b60405180910390f35b34801561095257600080fd5b5061095b612dfc565b604051610968919061750e565b60405180910390f35b34801561097d57600080fd5b50610986612e22565b005b34801561099457600080fd5b5061099d6133ea565b6040516109aa9190617529565b60405180910390f35b3480156109bf57600080fd5b506109da60048036038101906109d59190616da0565b613410565b005b3480156109e857600080fd5b50610a0360048036038101906109fe9190616b6f565b61379b565b604051610a1091906178ad565b60405180910390f35b348015610a2557600080fd5b50610a406004803603810190610a3b9190616851565b6137b3565b005b609d5481565b609b5481565b60007f85572ffb000000000000000000000000000000000000000000000000000000007bffffffffffffffffffffffffffffffffffffffffffffffffffffffff1916827bffffffffffffffffffffffffffffffffffffffffffffffffffffffff19161480610b1957507f01ffc9a7000000000000000000000000000000000000000000000000000000007bffffffffffffffffffffffffffffffffffffffffffffffffffffffff1916827bffffffffffffffffffffffffffffffffffffffffffffffffffffffff1916145b9050919050565b6000609860009054906101000a900473ffffffffffffffffffffffffffffffffffffffff1673ffffffffffffffffffffffffffffffffffffffff16630456f9c88585856040518463ffffffff1660e01b8152600401610b81939291906173c5565b60206040518083038186803b158015610b9957600080fd5b505afa158015610bad573d6000803e3d6000fd5b505050506040513d601f19601f82011682018060405250810190610bd19190616b9c565b90509392505050565b60a66020528060005260406000206000915054906101000a900473ffffffffffffffffffffffffffffffffffffffff1681565b6000609860009054906101000a900473ffffffffffffffffffffffffffffffffffffffff1673ffffffffffffffffffffffffffffffffffffffff166313cb1f83868686866040518563ffffffff1660e01b8152600401610c70949392919061744f565b60206040518083038186803b158015610c8857600080fd5b505afa158015610c9c573d6000803e3d6000fd5b505050506040513d601f19601f82011682018060405250810190610cc09190616b9c565b9050949350505050565b60008573ffffffffffffffffffffffffffffffffffffffff1663a9059cbb609860009054906101000a900473ffffffffffffffffffffffffffffffffffffffff16866040518363ffffffff1660e01b8152600401610d29929190617494565b602060405180830381600087803b158015610d4357600080fd5b505af1158015610d57573d6000803e3d6000fd5b505050506040513d601f19601f82011682018060405250810190610d7b9190616a9f565b506000609860009054906101000a900473ffffffffffffffffffffffffffffffffffffffff1673ffffffffffffffffffffffffffffffffffffffff166317d88f4688888888886040518663ffffffff1660e01b8152600401610de19594939291906173fc565b602060405180830381600087803b158015610dfb57600080fd5b505af1158015610e0f573d6000803e3d6000fd5b505050506040513d601f19601f82011682018060405250810190610e339190616b9c565b90508091505095945050505050565b6000609860009054906101000a900473ffffffffffffffffffffffffffffffffffffffff1673ffffffffffffffffffffffffffffffffffffffff166319da7e2a836040518263ffffffff1660e01b8152600401610e9f9190617951565b60206040518083038186803b158015610eb757600080fd5b505afa158015610ecb573d6000803e3d6000fd5b505050506040513d601f19601f82011682018060405250810190610eef919061687e565b9050919050565b610efe61392d565b6001609d6000828254610f119190617b69565b925050819055506000609860009054906101000a900473ffffffffffffffffffffffffffffffffffffffff1673ffffffffffffffffffffffffffffffffffffffff166369487b1c6040518163ffffffff1660e01b815260040160206040518083038186803b158015610f8257600080fd5b505afa158015610f96573d6000803e3d6000fd5b505050506040513d601f19601f82011682018060405250810190610fba9190616b9c565b90506000609860009054906101000a900473ffffffffffffffffffffffffffffffffffffffff1673ffffffffffffffffffffffffffffffffffffffff1663b90b8a2a6040518163ffffffff1660e01b815260040160206040518083038186803b15801561102657600080fd5b505afa15801561103a573d6000803e3d6000fd5b505050506040513d601f19601f8201168201806040525081019061105e9190616b9c565b905060005b82811015611919576000609860009054906101000a900473ffffffffffffffffffffffffffffffffffffffff1673ffffffffffffffffffffffffffffffffffffffff1663db56192284846040518363ffffffff1660e01b81526004016110ca9291906178c8565b60206040518083038186803b1580156110e257600080fd5b505afa1580156110f6573d6000803e3d6000fd5b505050506040513d601f19601f8201168201806040525081019061111a9190616d73565b90506000609860009054906101000a900473ffffffffffffffffffffffffffffffffffffffff1673ffffffffffffffffffffffffffffffffffffffff1663b6ad185b836040518263ffffffff1660e01b81526004016111799190617951565b60206040518083038186803b15801561119157600080fd5b505afa1580156111a5573d6000803e3d6000fd5b505050506040513d601f19601f820116820180604052508101906111c99190616b9c565b9050609c60009054906101000a900467ffffffffffffffff1667ffffffffffffffff168267ffffffffffffffff1614156116ac5760005b818110156116a6576000609860009054906101000a900473ffffffffffffffffffffffffffffffffffffffff1673ffffffffffffffffffffffffffffffffffffffff1663271b5fcc8786856040518463ffffffff1660e01b81526004016112699392919061791a565b60206040518083038186803b15801561128157600080fd5b505afa158015611295573d6000803e3d6000fd5b505050506040513d601f19601f820116820180604052508101906112b9919061687e565b90506000609860009054906101000a900473ffffffffffffffffffffffffffffffffffffffff1673ffffffffffffffffffffffffffffffffffffffff1663d90bc211836040518263ffffffff1660e01b815260040161131891906173aa565b60206040518083038186803b15801561133057600080fd5b505afa158015611344573d6000803e3d6000fd5b505050506040513d601f19601f820116820180604052508101906113689190616b9c565b90506000609c60089054906101000a900473ffffffffffffffffffffffffffffffffffffffff1673ffffffffffffffffffffffffffffffffffffffff168373ffffffffffffffffffffffffffffffffffffffff161415611474578273ffffffffffffffffffffffffffffffffffffffff166370a08231609a60009054906101000a900473ffffffffffffffffffffffffffffffffffffffff166040518263ffffffff1660e01b815260040161141d91906173aa565b60206040518083038186803b15801561143557600080fd5b505afa158015611449573d6000803e3d6000fd5b505050506040513d601f19601f8201168201806040525081019061146d9190616b9c565b905061154f565b61154c83609c60089054906101000a900473ffffffffffffffffffffffffffffffffffffffff168573ffffffffffffffffffffffffffffffffffffffff166370a08231609a60009054906101000a900473ffffffffffffffffffffffffffffffffffffffff166040518263ffffffff1660e01b81526004016114f691906173aa565b60206040518083038186803b15801561150e57600080fd5b505afa158015611522573d6000803e3d6000fd5b505050506040513d601f19601f820116820180604052508101906115469190616b9c565b85610c0d565b90505b61155881612d5b565b609e6000609d548152602001908152602001600020600082825461157c9190617b69565b9250508190555061158c81612d5b565b60a16000609d54815260200190815260200160002060008573ffffffffffffffffffffffffffffffffffffffff1673ffffffffffffffffffffffffffffffffffffffff16815260200190815260200160002060008282546115ed9190617b69565b92505081905550600160a06000609d548152602001908152602001600020600082825461161a9190617b69565b9250508190555061162a81612d5b565b60a26000609d5481526020019081526020016000206000609c60009054906101000a900467ffffffffffffffff1667ffffffffffffffff1667ffffffffffffffff16815260200190815260200160002060008282546116899190617b69565b92505081905550505050808061169e90617e93565b915050611200565b50611904565b60006116b78361191e565b90506000609860009054906101000a900473ffffffffffffffffffffffffffffffffffffffff1673ffffffffffffffffffffffffffffffffffffffff1663d1c68aa3856040518263ffffffff1660e01b81526004016117169190617951565b60006040518083038186803b15801561172e57600080fd5b505afa158015611742573d6000803e3d6000fd5b505050506040513d6000823e3d601f19601f8201168201806040525081019061176b9190616a0d565b90506000609860009054906101000a900473ffffffffffffffffffffffffffffffffffffffff1673ffffffffffffffffffffffffffffffffffffffff1663221f3371866040518263ffffffff1660e01b81526004016117ca9190617951565b60006040518083038186803b1580156117e257600080fd5b505afa1580156117f6573d6000803e3d6000fd5b505050506040513d6000823e3d601f19601f8201168201806040525081019061181f9190616a56565b905060008067ffffffffffffffff81111561183d5761183c617f98565b5b60405190808252806020026020018201604052801561186b5781602001602082028036833780820191505090505b50905060008067ffffffffffffffff81111561188a57611889617f98565b5b6040519080825280602002602001820160405280156118b85781602001602082028036833780820191505090505b5090506000600285848685609d5487886040516020016118df98979695949392919061755f565b60405160208183030381529060405290506118fd8887836001612991565b5050505050505b5050808061191190617e93565b915050611063565b505050565b6000609860009054906101000a900473ffffffffffffffffffffffffffffffffffffffff1673ffffffffffffffffffffffffffffffffffffffff1663340fbc74836040518263ffffffff1660e01b815260040161197b9190617951565b60206040518083038186803b15801561199357600080fd5b505afa1580156119a7573d6000803e3d6000fd5b505050506040513d601f19601f820116820180604052508101906119cb919061687e565b9050919050565b6000609860009054906101000a900473ffffffffffffffffffffffffffffffffffffffff1673ffffffffffffffffffffffffffffffffffffffff16633c8da5886040518163ffffffff1660e01b815260040160206040518083038186803b158015611a3c57600080fd5b505afa158015611a50573d6000803e3d6000fd5b505050506040513d601f19601f82011682018060405250810190611a749190616b9c565b905090565b609c60009054906101000a900467ffffffffffffffff1681565b609c60089054906101000a900473ffffffffffffffffffffffffffffffffffffffff1681565b611ac161392d565b6000609b5442611ad19190617c4a565b9050600c603c8083611ae39190617bbf565b611aed9190617bbf565b11611b2d576040517f08c379a0000000000000000000000000000000000000000000000000000000008152600401611b2490617857565b60405180910390fd5b60648260ff1611158015611b45575060018260ff1610155b611b84576040517f08c379a0000000000000000000000000000000000000000000000000000000008152600401611b7b90617757565b60405180910390fd5b81609a60146101000a81548160ff021916908360ff16021790555042609b819055505050565b609960149054906101000a900461ffff1681565b611bc661392d565b6000609d5490506000609e60008381526020019081526020016000205490506000609860009054906101000a900473ffffffffffffffffffffffffffffffffffffffff1673ffffffffffffffffffffffffffffffffffffffff166369487b1c6040518163ffffffff1660e01b815260040160206040518083038186803b158015611c4f57600080fd5b505afa158015611c63573d6000803e3d6000fd5b505050506040513d601f19601f82011682018060405250810190611c879190616b9c565b90506000609860009054906101000a900473ffffffffffffffffffffffffffffffffffffffff1673ffffffffffffffffffffffffffffffffffffffff1663b90b8a2a6040518163ffffffff1660e01b815260040160206040518083038186803b158015611cf357600080fd5b505afa158015611d07573d6000803e3d6000fd5b505050506040513d601f19601f82011682018060405250810190611d2b9190616b9c565b90506000609860009054906101000a900473ffffffffffffffffffffffffffffffffffffffff1673ffffffffffffffffffffffffffffffffffffffff1663f15817876040518163ffffffff1660e01b815260040160206040518083038186803b158015611d9757600080fd5b505afa158015611dab573d6000803e3d6000fd5b505050506040513d601f19601f82011682018060405250810190611dcf9190616b9c565b905060005b83811015612223576000609860009054906101000a900473ffffffffffffffffffffffffffffffffffffffff1673ffffffffffffffffffffffffffffffffffffffff1663db56192285846040518363ffffffff1660e01b8152600401611e3b9291906178c8565b60206040518083038186803b158015611e5357600080fd5b505afa158015611e67573d6000803e3d6000fd5b505050506040513d601f19601f82011682018060405250810190611e8b9190616d73565b90506000609860009054906101000a900473ffffffffffffffffffffffffffffffffffffffff1673ffffffffffffffffffffffffffffffffffffffff1663b6ad185b836040518263ffffffff1660e01b8152600401611eea9190617951565b60206040518083038186803b158015611f0257600080fd5b505afa158015611f16573d6000803e3d6000fd5b505050506040513d601f19601f82011682018060405250810190611f3a9190616b9c565b90506000609860009054906101000a900473ffffffffffffffffffffffffffffffffffffffff1673ffffffffffffffffffffffffffffffffffffffff1663fc698b4a846040518263ffffffff1660e01b8152600401611f999190617951565b60206040518083038186803b158015611fb157600080fd5b505afa158015611fc5573d6000803e3d6000fd5b505050506040513d601f19601f82011682018060405250810190611fe99190616b9c565b90506000609860009054906101000a900473ffffffffffffffffffffffffffffffffffffffff1673ffffffffffffffffffffffffffffffffffffffff166377b2688f87866040518363ffffffff1660e01b815260040161204a9291906178f1565b60206040518083038186803b15801561206257600080fd5b505afa158015612076573d6000803e3d6000fd5b505050506040513d601f19601f8201168201806040525081019061209a9190616b9c565b9050600060a260008c815260200190815260200160002060008667ffffffffffffffff1667ffffffffffffffff1681526020019081526020016000205490506000609860009054906101000a900473ffffffffffffffffffffffffffffffffffffffff1673ffffffffffffffffffffffffffffffffffffffff1663bf0d49c0876040518263ffffffff1660e01b81526004016121369190617951565b60006040518083038186803b15801561214e57600080fd5b505afa158015612162573d6000803e3d6000fd5b505050506040513d6000823e3d601f19601f8201168201806040525081019061218b9190616a56565b9050828b68056bc75e2d63100000846121a49190617bf0565b6121ae9190617bbf565b111561220a57609c60009054906101000a900467ffffffffffffffff1667ffffffffffffffff168667ffffffffffffffff1614156121fa576121f5878d8d898989896139ab565b612209565b6122088c8c88868686614297565b5b5b505050505050808061221b90617e93565b915050611dd4565b505050505050565b60a2602052816000526040600020602052806000526040600020600091509150505481565b61225861392d565b61226260006146d0565b565b60a76020528060005260406000206000915090505481565b609f6020528060005260406000206000915090505481565b60a46020528060005260406000206000915090505481565b609960009054906101000a900473ffffffffffffffffffffffffffffffffffffffff1681565b609e6020528060005260406000206000915090505481565b60a56020528060005260406000206000915090505481565b600060029054906101000a900473ffffffffffffffffffffffffffffffffffffffff1673ffffffffffffffffffffffffffffffffffffffff163373ffffffffffffffffffffffffffffffffffffffff161461239457336040517fd7f7333400000000000000000000000000000000000000000000000000000000815260040161238b91906173aa565b60405180910390fd5b6123a6816123a190617dd7565b614796565b50565b6000603360009054906101000a900473ffffffffffffffffffffffffffffffffffffffff16905090565b609a60149054906101000a900460ff1681565b6000806000609860009054906101000a900473ffffffffffffffffffffffffffffffffffffffff1673ffffffffffffffffffffffffffffffffffffffff166353fd43326040518163ffffffff1660e01b815260040160206040518083038186803b15801561245357600080fd5b505afa158015612467573d6000803e3d6000fd5b505050506040513d601f19601f8201168201806040525081019061248b9190616b9c565b905060005b8181101561287e576000609860009054906101000a900473ffffffffffffffffffffffffffffffffffffffff1673ffffffffffffffffffffffffffffffffffffffff16639932ba4c836040518263ffffffff1660e01b81526004016124f591906178ad565b60206040518083038186803b15801561250d57600080fd5b505afa158015612521573d6000803e3d6000fd5b505050506040513d601f19601f82011682018060405250810190612545919061687e565b90506000609860009054906101000a900473ffffffffffffffffffffffffffffffffffffffff1673ffffffffffffffffffffffffffffffffffffffff1663ea8ecf04836040518263ffffffff1660e01b81526004016125a491906173aa565b60206040518083038186803b1580156125bc57600080fd5b505afa1580156125d0573d6000803e3d6000fd5b505050506040513d601f19601f820116820180604052508101906125f49190616d73565b90506000609860009054906101000a900473ffffffffffffffffffffffffffffffffffffffff1673ffffffffffffffffffffffffffffffffffffffff1663d90bc211846040518263ffffffff1660e01b815260040161265391906173aa565b60206040518083038186803b15801561266b57600080fd5b505afa15801561267f573d6000803e3d6000fd5b505050506040513d601f19601f820116820180604052508101906126a39190616b9c565b9050609c60009054906101000a900467ffffffffffffffff1667ffffffffffffffff168267ffffffffffffffff161415612868576000609860009054906101000a900473ffffffffffffffffffffffffffffffffffffffff1673ffffffffffffffffffffffffffffffffffffffff166313cb1f8385609c60089054906101000a900473ffffffffffffffffffffffffffffffffffffffff168773ffffffffffffffffffffffffffffffffffffffff166370a08231609a60009054906101000a900473ffffffffffffffffffffffffffffffffffffffff166040518263ffffffff1660e01b815260040161279691906173aa565b60206040518083038186803b1580156127ae57600080fd5b505afa1580156127c2573d6000803e3d6000fd5b505050506040513d601f19601f820116820180604052508101906127e69190616b9c565b866040518563ffffffff1660e01b8152600401612806949392919061744f565b60206040518083038186803b15801561281e57600080fd5b505afa158015612832573d6000803e3d6000fd5b505050506040513d601f19601f820116820180604052508101906128569190616b9c565b905080876128649190617b69565b9650505b505050808061287690617e93565b915050612490565b50819250505090565b60008060029054906101000a900473ffffffffffffffffffffffffffffffffffffffff16905090565b60a1602052816000526040600020602052806000526040600020600091509150505481565b6128dd61392d565b600073ffffffffffffffffffffffffffffffffffffffff168173ffffffffffffffffffffffffffffffffffffffff16141561294d576040517f08c379a000000000000000000000000000000000000000000000000000000000815260040161294490617817565b60405180910390fd5b80606560006101000a81548173ffffffffffffffffffffffffffffffffffffffff021916908373ffffffffffffffffffffffffffffffffffffffff16021790555050565b60006040518060a00160405280856040516020016129af91906173aa565b6040516020818303038152906040528152602001848152602001600067ffffffffffffffff8111156129e4576129e3617f98565b5b604051908082528060200260200182016040528015612a1d57816020015b612a0a61628d565b815260200190600190039081612a025790505b508152602001600180811115612a3657612a35617f3a565b5b846001811115612a4957612a48617f3a565b5b14612a55576000612a79565b609960009054906101000a900473ffffffffffffffffffffffffffffffffffffffff165b73ffffffffffffffffffffffffffffffffffffffff168152602001612ab76040518060400160405280620dbba0815260200160001515815250614b0b565b815250905060008060029054906101000a900473ffffffffffffffffffffffffffffffffffffffff1673ffffffffffffffffffffffffffffffffffffffff166320487ded87846040518363ffffffff1660e01b8152600401612b1a92919061796c565b60206040518083038186803b158015612b3257600080fd5b505afa158015612b46573d6000803e3d6000fd5b505050506040513d601f19601f82011682018060405250810190612b6a9190616b9c565b90506000600180811115612b8157612b80617f3a565b5b846001811115612b9457612b93617f3a565b5b1415612c5057600060029054906101000a900473ffffffffffffffffffffffffffffffffffffffff1673ffffffffffffffffffffffffffffffffffffffff166396f4e9f988856040518363ffffffff1660e01b8152600401612bf792919061796c565b602060405180830381600087803b158015612c1157600080fd5b505af1158015612c25573d6000803e3d6000fd5b505050506040513d601f19601f82011682018060405250810190612c499190616acc565b9050612d03565b600060029054906101000a900473ffffffffffffffffffffffffffffffffffffffff1673ffffffffffffffffffffffffffffffffffffffff166396f4e9f98389866040518463ffffffff1660e01b8152600401612cae92919061796c565b6020604051808303818588803b158015612cc757600080fd5b505af1158015612cdb573d6000803e3d6000fd5b50505050506040513d601f19601f82011682018060405250810190612d009190616acc565b90505b7f54791b38f3859327992a1ca0590ad3c0f08feba98d1a4f56ab0dca74d203392a81604051612d3291906174d8565b60405180910390a150505050505050565b60a06020528060005260406000206000915090505481565b6000670de0b6b3a7640000612d6e6119d2565b83612d799190617bf0565b612d839190617bbf565b9050919050565b612d9261392d565b80609860006101000a81548173ffffffffffffffffffffffffffffffffffffffff021916908373ffffffffffffffffffffffffffffffffffffffff16021790555050565b606560009054906101000a900473ffffffffffffffffffffffffffffffffffffffff1681565b609860009054906101000a900473ffffffffffffffffffffffffffffffffffffffff1681565b612e2a61392d565b6000609d5490506000609e60008381526020019081526020016000205490506000609860009054906101000a900473ffffffffffffffffffffffffffffffffffffffff1673ffffffffffffffffffffffffffffffffffffffff16638e9d7c186040518163ffffffff1660e01b815260040160206040518083038186803b158015612eb357600080fd5b505afa158015612ec7573d6000803e3d6000fd5b505050506040513d601f19601f82011682018060405250810190612eeb9190616b9c565b90506000609860009054906101000a900473ffffffffffffffffffffffffffffffffffffffff1673ffffffffffffffffffffffffffffffffffffffff1663f15817876040518163ffffffff1660e01b815260040160206040518083038186803b158015612f5757600080fd5b505afa158015612f6b573d6000803e3d6000fd5b505050506040513d601f19601f82011682018060405250810190612f8f9190616b9c565b905060005b828110156133e3576000609860009054906101000a900473ffffffffffffffffffffffffffffffffffffffff1673ffffffffffffffffffffffffffffffffffffffff166395a7e2b384846040518363ffffffff1660e01b8152600401612ffb9291906178c8565b60206040518083038186803b15801561301357600080fd5b505afa158015613027573d6000803e3d6000fd5b505050506040513d601f19601f8201168201806040525081019061304b9190616d73565b90506000609860009054906101000a900473ffffffffffffffffffffffffffffffffffffffff1673ffffffffffffffffffffffffffffffffffffffff1663b6ad185b836040518263ffffffff1660e01b81526004016130aa9190617951565b60206040518083038186803b1580156130c257600080fd5b505afa1580156130d6573d6000803e3d6000fd5b505050506040513d601f19601f820116820180604052508101906130fa9190616b9c565b90506000609860009054906101000a900473ffffffffffffffffffffffffffffffffffffffff1673ffffffffffffffffffffffffffffffffffffffff1663fc698b4a846040518263ffffffff1660e01b81526004016131599190617951565b60206040518083038186803b15801561317157600080fd5b505afa158015613185573d6000803e3d6000fd5b505050506040513d601f19601f820116820180604052508101906131a99190616b9c565b90506000609860009054906101000a900473ffffffffffffffffffffffffffffffffffffffff1673ffffffffffffffffffffffffffffffffffffffff166377b2688f87866040518363ffffffff1660e01b815260040161320a9291906178f1565b60206040518083038186803b15801561322257600080fd5b505afa158015613236573d6000803e3d6000fd5b505050506040513d601f19601f8201168201806040525081019061325a9190616b9c565b9050600060a260008b815260200190815260200160002060008667ffffffffffffffff1667ffffffffffffffff1681526020019081526020016000205490506000609860009054906101000a900473ffffffffffffffffffffffffffffffffffffffff1673ffffffffffffffffffffffffffffffffffffffff1663bf0d49c0876040518263ffffffff1660e01b81526004016132f69190617951565b60006040518083038186803b15801561330e57600080fd5b505afa158015613322573d6000803e3d6000fd5b505050506040513d6000823e3d601f19601f8201168201806040525081019061334b9190616a56565b9050828a68056bc75e2d63100000846133649190617bf0565b61336e9190617bbf565b10156133ca57609c60009054906101000a900467ffffffffffffffff1667ffffffffffffffff168667ffffffffffffffff1614156133ba576133b5878c8c89898989614b8a565b6133c9565b6133c88b8b88868686615452565b5b5b50505050505080806133db90617e93565b915050612f94565b5050505050565b609a60009054906101000a900473ffffffffffffffffffffffffffffffffffffffff1681565b60008060019054906101000a900460ff161590508080156134415750600160008054906101000a900460ff1660ff16105b8061346e5750613450306159d4565b15801561346d5750600160008054906101000a900460ff1660ff16145b5b6134ad576040517f08c379a00000000000000000000000000000000000000000000000000000000081526004016134a4906177d7565b60405180910390fd5b60016000806101000a81548160ff021916908360ff16021790555080156134ea576001600060016101000a81548160ff0219169083151502179055505b6134f3836159f7565b6134fb615afd565b86609c60006101000a81548167ffffffffffffffff021916908367ffffffffffffffff16021790555085609a60006101000a81548173ffffffffffffffffffffffffffffffffffffffff021916908373ffffffffffffffffffffffffffffffffffffffff16021790555084609860006101000a81548173ffffffffffffffffffffffffffffffffffffffff021916908373ffffffffffffffffffffffffffffffffffffffff16021790555083609960006101000a81548173ffffffffffffffffffffffffffffffffffffffff021916908373ffffffffffffffffffffffffffffffffffffffff1602179055506005609960146101000a81548161ffff021916908361ffff1602179055508373ffffffffffffffffffffffffffffffffffffffff1663095ea7b3600060029054906101000a900473ffffffffffffffffffffffffffffffffffffffff167fffffffffffffffffffffffffffffffffffffffffffffffffffffffffffffffff6040518363ffffffff1660e01b8152600401613682929190617494565b602060405180830381600087803b15801561369c57600080fd5b505af11580156136b0573d6000803e3d6000fd5b505050506040513d601f19601f820116820180604052508101906136d49190616a9f565b5081609c60086101000a81548173ffffffffffffffffffffffffffffffffffffffff021916908373ffffffffffffffffffffffffffffffffffffffff160217905550600a609a60146101000a81548160ff021916908360ff16021790555042609b8190555080156137925760008060016101000a81548160ff0219169083151502179055507f7f26b83ff96e1f2b6a682f133852f6798a09c465da95921460cefb384740249860016040516137899190617544565b60405180910390a15b50505050505050565b60a36020528060005260406000206000915090505481565b600073ffffffffffffffffffffffffffffffffffffffff168173ffffffffffffffffffffffffffffffffffffffff161415613823576040517f08c379a000000000000000000000000000000000000000000000000000000000815260040161381a90617817565b60405180910390fd5b606560009054906101000a900473ffffffffffffffffffffffffffffffffffffffff1673ffffffffffffffffffffffffffffffffffffffff168173ffffffffffffffffffffffffffffffffffffffff16146138b3576040517f08c379a00000000000000000000000000000000000000000000000000000000081526004016138aa90617777565b60405180910390fd5b3373ffffffffffffffffffffffffffffffffffffffff168173ffffffffffffffffffffffffffffffffffffffff1614613921576040517f08c379a0000000000000000000000000000000000000000000000000000000008152600401613918906177b7565b60405180910390fd5b61392a816146d0565b50565b613935615b56565b73ffffffffffffffffffffffffffffffffffffffff166139536123a9565b73ffffffffffffffffffffffffffffffffffffffff16146139a9576040517f08c379a00000000000000000000000000000000000000000000000000000000081526004016139a0906177f7565b60405180910390fd5b565b6139b36162bd565b60a2600088815260200190815260200160002060008667ffffffffffffffff1667ffffffffffffffff168152602001908152602001600020548160600181815250506000609c60089054906101000a900473ffffffffffffffffffffffffffffffffffffffff1673ffffffffffffffffffffffffffffffffffffffff166370a08231609a60009054906101000a900473ffffffffffffffffffffffffffffffffffffffff166040518263ffffffff1660e01b8152600401613a7491906173aa565b60206040518083038186803b158015613a8c57600080fd5b505afa158015613aa0573d6000803e3d6000fd5b505050506040513d601f19601f82011682018060405250810190613ac49190616b9c565b905060005b85811015613ebe57609860009054906101000a900473ffffffffffffffffffffffffffffffffffffffff1673ffffffffffffffffffffffffffffffffffffffff16639932ba4c826040518263ffffffff1660e01b8152600401613b2c91906178ad565b60206040518083038186803b158015613b4457600080fd5b505afa158015613b58573d6000803e3d6000fd5b505050506040513d601f19601f82011682018060405250810190613b7c919061687e565b836000019073ffffffffffffffffffffffffffffffffffffffff16908173ffffffffffffffffffffffffffffffffffffffff1681525050609860009054906101000a900473ffffffffffffffffffffffffffffffffffffffff1673ffffffffffffffffffffffffffffffffffffffff1663d90bc21184600001516040518263ffffffff1660e01b8152600401613c1291906173aa565b60206040518083038186803b158015613c2a57600080fd5b505afa158015613c3e573d6000803e3d6000fd5b505050506040513d601f19601f82011682018060405250810190613c629190616b9c565b836020018181525050609860009054906101000a900473ffffffffffffffffffffffffffffffffffffffff1673ffffffffffffffffffffffffffffffffffffffff16634b3e0b8084600001516040518263ffffffff1660e01b8152600401613cca91906173aa565b60206040518083038186803b158015613ce257600080fd5b505afa158015613cf6573d6000803e3d6000fd5b505050506040513d601f19601f82011682018060405250810190613d1a9190616b9c565b8360400181815250506000609c60089054906101000a900473ffffffffffffffffffffffffffffffffffffffff1673ffffffffffffffffffffffffffffffffffffffff16846000015173ffffffffffffffffffffffffffffffffffffffff161415613d8757829050613e91565b613e8e8460000151609c60089054906101000a900473ffffffffffffffffffffffffffffffffffffffff16866000015173ffffffffffffffffffffffffffffffffffffffff166370a08231609a60009054906101000a900473ffffffffffffffffffffffffffffffffffffffff166040518263ffffffff1660e01b8152600401613e1191906173aa565b60206040518083038186803b158015613e2957600080fd5b505afa158015613e3d573d6000803e3d6000fd5b505050506040513d601f19601f82011682018060405250810190613e619190616b9c565b609a60009054906101000a900473ffffffffffffffffffffffffffffffffffffffff168860200151615b5e565b90505b8084608001818151613ea39190617b69565b91508181525050508080613eb690617e93565b915050613ac9565b5060008768056bc75e2d631000008460600151613edb9190617bf0565b613ee59190617bbf565b9050600081858560800151613efa9190617bf0565b613f049190617bbf565b90506000818560800151613f189190617c4a565b905060005b87811015614229576000609860009054906101000a900473ffffffffffffffffffffffffffffffffffffffff1673ffffffffffffffffffffffffffffffffffffffff1663239aad0d836040518263ffffffff1660e01b8152600401613f8291906178ad565b60206040518083038186803b158015613f9a57600080fd5b505afa158015613fae573d6000803e3d6000fd5b505050506040513d601f19601f82011682018060405250810190613fd2919061687e565b90506000609860009054906101000a900473ffffffffffffffffffffffffffffffffffffffff1673ffffffffffffffffffffffffffffffffffffffff1663d90bc211836040518263ffffffff1660e01b815260040161403191906173aa565b60206040518083038186803b15801561404957600080fd5b505afa15801561405d573d6000803e3d6000fd5b505050506040513d601f19601f820116820180604052508101906140819190616b9c565b90506000609860009054906101000a900473ffffffffffffffffffffffffffffffffffffffff1673ffffffffffffffffffffffffffffffffffffffff16634b3e0b80846040518263ffffffff1660e01b81526004016140e091906173aa565b60206040518083038186803b1580156140f857600080fd5b505afa15801561410c573d6000803e3d6000fd5b505050506040513d601f19601f820116820180604052508101906141309190616b9c565b90506000609c60089054906101000a900473ffffffffffffffffffffffffffffffffffffffff1673ffffffffffffffffffffffffffffffffffffffff168473ffffffffffffffffffffffffffffffffffffffff1614156141a8578a82886141979190617bf0565b6141a19190617bbf565b9050614212565b61420f609c60089054906101000a900473ffffffffffffffffffffffffffffffffffffffff16858d858b6141dc9190617bf0565b6141e69190617bbf565b609a60009054906101000a900473ffffffffffffffffffffffffffffffffffffffff1687615b5e565b90505b50505050808061422190617e93565b915050613f1d565b5080609f60008d8152602001908152602001600020600082825461424d9190617b69565b9250508190555085836142609190617c4a565b60a560008d815260200190815260200160002060008282546142829190617b69565b92505081905550505050505050505050505050565b60008568056bc75e2d63100000846142af9190617bf0565b6142b99190617bbf565b905083816142c79190617c4a565b60a5600089815260200190815260200160002060008282546142e99190617b69565b9250508190555060006142fb8661191e565b90506000609860009054906101000a900473ffffffffffffffffffffffffffffffffffffffff1673ffffffffffffffffffffffffffffffffffffffff1663d1c68aa3886040518263ffffffff1660e01b815260040161435a9190617951565b60006040518083038186803b15801561437257600080fd5b505afa158015614386573d6000803e3d6000fd5b505050506040513d6000823e3d601f19601f820116820180604052508101906143af9190616a0d565b90506000609860009054906101000a900473ffffffffffffffffffffffffffffffffffffffff1673ffffffffffffffffffffffffffffffffffffffff1663d050ca7c896040518263ffffffff1660e01b815260040161440e9190617951565b60006040518083038186803b15801561442657600080fd5b505afa15801561443a573d6000803e3d6000fd5b505050506040513d6000823e3d601f19601f820116820180604052508101906144639190616a0d565b90506000609860009054906101000a900473ffffffffffffffffffffffffffffffffffffffff1673ffffffffffffffffffffffffffffffffffffffff1663221f33718a6040518263ffffffff1660e01b81526004016144c29190617951565b60006040518083038186803b1580156144da57600080fd5b505afa1580156144ee573d6000803e3d6000fd5b505050506040513d6000823e3d601f19601f820116820180604052508101906145179190616a56565b90506000609860009054906101000a900473ffffffffffffffffffffffffffffffffffffffff1673ffffffffffffffffffffffffffffffffffffffff1663a1adff888b6040518263ffffffff1660e01b81526004016145769190617951565b60006040518083038186803b15801561458e57600080fd5b505afa1580156145a2573d6000803e3d6000fd5b505050506040513d6000823e3d601f19601f820116820180604052508101906145cb9190616a56565b90506000600267ffffffffffffffff8111156145ea576145e9617f98565b5b6040519080825280602002602001820160405280156146185781602001602082028036833780820191505090505b5090508b816000815181106146305761462f617f69565b5b602002602001018181525050898160018151811061465157614650617f69565b5b602002602001018181525050888160028151811061467257614671617f69565b5b6020026020010181815250506000600386868686609d548e886040516020016146a2989796959493929190617607565b60405160208183030381529060405290506146c08c88836001612991565b5050505050505050505050505050565b6000603360009054906101000a900473ffffffffffffffffffffffffffffffffffffffff16905081603360006101000a81548173ffffffffffffffffffffffffffffffffffffffff021916908373ffffffffffffffffffffffffffffffffffffffff1602179055508173ffffffffffffffffffffffffffffffffffffffff168173ffffffffffffffffffffffffffffffffffffffff167f8be0079c531659141344cd1fd0a4f28419497f9722a3daafe3b4186f6b6457e060405160405180910390a35050565b600081600001519050600082602001519050600083604001518060200190518101906147c291906168ab565b905060008060008060008089606001518060200190518101906147e59190616c09565b95509550955095509550955060008614156147ff57614aff565b600186141561480d57614afe565b60028614156149ae5760005b82518110156149a85782818151811061483557614834617f69565b5b6020026020010151609e6000868152602001908152602001600020600082825461485f9190617b69565b9250508190555082818151811061487957614878617f69565b5b602002602001015160a1600086815260200190815260200160002060008884815181106148a9576148a8617f69565b5b602002602001015173ffffffffffffffffffffffffffffffffffffffff1673ffffffffffffffffffffffffffffffffffffffff16815260200190815260200160002060008282546148fa9190617b69565b9250508190555082818151811061491457614913617f69565b5b602002602001015160a2600086815260200190815260200160002060008b67ffffffffffffffff1667ffffffffffffffff16815260200190815260200160002060008282546149639190617b69565b92505081905550600160a06000868152602001908152602001600020600082825461498e9190617b69565b9250508190555080806149a090617e93565b915050614819565b50614afd565b6003861415614a6f5760008a6080015190506000816000815181106149d6576149d5617f69565b5b60200260200101516000015190506000826000815181106149fa576149f9617f69565b5b60200260200101516020015190506000614a3a83609c60089054906101000a900473ffffffffffffffffffffffffffffffffffffffff1684306003610cca565b905080609f60008981526020019081526020016000206000828254614a5f9190617b69565b9250508190555050505050614afc565b6004861415614afb57609860009054906101000a900473ffffffffffffffffffffffffffffffffffffffff1673ffffffffffffffffffffffffffffffffffffffff16638baa6bf16040518163ffffffff1660e01b8152600401600060405180830381600087803b158015614ae257600080fd5b505af1158015614af6573d6000803e3d6000fd5b505050505b5b5b5b5b50505050505050505050565b60606397a657c960e01b82604051602401614b269190617877565b604051602081830303815290604052907bffffffffffffffffffffffffffffffffffffffffffffffffffffffff19166020820180517bffffffffffffffffffffffffffffffffffffffffffffffffffffffff83818316178352505050509050919050565b614b92616302565b609860009054906101000a900473ffffffffffffffffffffffffffffffffffffffff1673ffffffffffffffffffffffffffffffffffffffff16639932ba4c896040518263ffffffff1660e01b8152600401614bed91906178ad565b60206040518083038186803b158015614c0557600080fd5b505afa158015614c19573d6000803e3d6000fd5b505050506040513d601f19601f82011682018060405250810190614c3d919061687e565b816000019073ffffffffffffffffffffffffffffffffffffffff16908173ffffffffffffffffffffffffffffffffffffffff1681525050609860009054906101000a900473ffffffffffffffffffffffffffffffffffffffff1673ffffffffffffffffffffffffffffffffffffffff1663d90bc21182600001516040518263ffffffff1660e01b8152600401614cd391906173aa565b60206040518083038186803b158015614ceb57600080fd5b505afa158015614cff573d6000803e3d6000fd5b505050506040513d601f19601f82011682018060405250810190614d239190616b9c565b816020018181525050609860009054906101000a900473ffffffffffffffffffffffffffffffffffffffff1673ffffffffffffffffffffffffffffffffffffffff16634b3e0b8082600001516040518263ffffffff1660e01b8152600401614d8b91906173aa565b60206040518083038186803b158015614da357600080fd5b505afa158015614db7573d6000803e3d6000fd5b505050506040513d601f19601f82011682018060405250810190614ddb9190616b9c565b81604001818152505060a2600088815260200190815260200160002060008667ffffffffffffffff1667ffffffffffffffff168152602001908152602001600020548160600181815250506000816000015173ffffffffffffffffffffffffffffffffffffffff166370a08231609a60009054906101000a900473ffffffffffffffffffffffffffffffffffffffff166040518263ffffffff1660e01b8152600401614e8791906173aa565b60206040518083038186803b158015614e9f57600080fd5b505afa158015614eb3573d6000803e3d6000fd5b505050506040513d601f19601f82011682018060405250810190614ed79190616b9c565b905060005b8581101561508e57609c60089054906101000a900473ffffffffffffffffffffffffffffffffffffffff1673ffffffffffffffffffffffffffffffffffffffff16836000015173ffffffffffffffffffffffffffffffffffffffff161415614f4d57818360a001818152505061505e565b6150548360000151609c60089054906101000a900473ffffffffffffffffffffffffffffffffffffffff16856000015173ffffffffffffffffffffffffffffffffffffffff166370a08231609a60009054906101000a900473ffffffffffffffffffffffffffffffffffffffff166040518263ffffffff1660e01b8152600401614fd791906173aa565b60206040518083038186803b158015614fef57600080fd5b505afa158015615003573d6000803e3d6000fd5b505050506040513d601f19601f820116820180604052508101906150279190616b9c565b609a60009054906101000a900473ffffffffffffffffffffffffffffffffffffffff168760200151615b5e565b8360a00181815250505b8260a00151836080018181516150749190617b69565b91508181525050808061508690617e93565b915050614edc565b5060008768056bc75e2d6310000084606001516150ab9190617bf0565b6150b59190617bbf565b9050600081856150c59190617c4a565b9050600060a560008c81526020019081526020016000205482609f60008e8152602001908152602001600020546150fc9190617bf0565b6151069190617bbf565b9050808560800181815161511a9190617b69565b9150818152505060005b87811015615443576000609860009054906101000a900473ffffffffffffffffffffffffffffffffffffffff1673ffffffffffffffffffffffffffffffffffffffff16639932ba4c836040518263ffffffff1660e01b815260040161518991906178ad565b60206040518083038186803b1580156151a157600080fd5b505afa1580156151b5573d6000803e3d6000fd5b505050506040513d601f19601f820116820180604052508101906151d9919061687e565b90506000609860009054906101000a900473ffffffffffffffffffffffffffffffffffffffff1673ffffffffffffffffffffffffffffffffffffffff1663d90bc211836040518263ffffffff1660e01b815260040161523891906173aa565b60206040518083038186803b15801561525057600080fd5b505afa158015615264573d6000803e3d6000fd5b505050506040513d601f19601f820116820180604052508101906152889190616b9c565b90506000609860009054906101000a900473ffffffffffffffffffffffffffffffffffffffff1673ffffffffffffffffffffffffffffffffffffffff16634b3e0b80846040518263ffffffff1660e01b81526004016152e791906173aa565b60206040518083038186803b1580156152ff57600080fd5b505afa158015615313573d6000803e3d6000fd5b505050506040513d601f19601f820116820180604052508101906153379190616b9c565b9050609c60089054906101000a900473ffffffffffffffffffffffffffffffffffffffff1673ffffffffffffffffffffffffffffffffffffffff168373ffffffffffffffffffffffffffffffffffffffff1614156153b85789818a608001516153a09190617bf0565b6153aa9190617bbf565b8960a001818152505061542d565b615423609c60089054906101000a900473ffffffffffffffffffffffffffffffffffffffff16848c848d608001516153f09190617bf0565b6153fa9190617bbf565b609a60009054906101000a900473ffffffffffffffffffffffffffffffffffffffff1686615b5e565b8960a00181815250505b505050808061543b90617e93565b915050615124565b50505050505050505050505050565b61545a61634e565b60008668056bc75e2d63100000856154729190617bf0565b61547c9190617bbf565b90506000818661548c9190617c4a565b9050600060a560008b81526020019081526020016000205482609f60008d8152602001908152602001600020546154c39190617bf0565b6154cd9190617bbf565b905060006154da8961191e565b90506000615516609c60089054906101000a900473ffffffffffffffffffffffffffffffffffffffff1661550d8c610e42565b85306003615b5e565b9050609860009054906101000a900473ffffffffffffffffffffffffffffffffffffffff1673ffffffffffffffffffffffffffffffffffffffff1663d1c68aa38b6040518263ffffffff1660e01b81526004016155739190617951565b60006040518083038186803b15801561558b57600080fd5b505afa15801561559f573d6000803e3d6000fd5b505050506040513d6000823e3d601f19601f820116820180604052508101906155c89190616a0d565b8660000181905250609860009054906101000a900473ffffffffffffffffffffffffffffffffffffffff1673ffffffffffffffffffffffffffffffffffffffff1663d050ca7c8b6040518263ffffffff1660e01b815260040161562b9190617951565b60006040518083038186803b15801561564357600080fd5b505afa158015615657573d6000803e3d6000fd5b505050506040513d6000823e3d601f19601f820116820180604052508101906156809190616a0d565b8660200181905250609860009054906101000a900473ffffffffffffffffffffffffffffffffffffffff1673ffffffffffffffffffffffffffffffffffffffff1663221f33718b6040518263ffffffff1660e01b81526004016156e39190617951565b60006040518083038186803b1580156156fb57600080fd5b505afa15801561570f573d6000803e3d6000fd5b505050506040513d6000823e3d601f19601f820116820180604052508101906157389190616a56565b8660400181905250609860009054906101000a900473ffffffffffffffffffffffffffffffffffffffff1673ffffffffffffffffffffffffffffffffffffffff1663a1adff888b6040518263ffffffff1660e01b815260040161579b9190617951565b60006040518083038186803b1580156157b357600080fd5b505afa1580156157c7573d6000803e3d6000fd5b505050506040513d6000823e3d601f19601f820116820180604052508101906157f09190616a56565b8660600181905250600267ffffffffffffffff81111561581357615812617f98565b5b6040519080825280602002602001820160405280156158415781602001602082028036833780820191505090505b5086608001819052508a866080015160008151811061586357615862617f69565b5b60200260200101818152505088866080015160018151811061588857615887617f69565b5b6020026020010181815250506000600167ffffffffffffffff8111156158b1576158b0617f98565b5b6040519080825280602002602001820160405280156158ea57816020015b6158d761628d565b8152602001906001900390816158cf5790505b5090506158f68b610e42565b8160008151811061590a57615909617f69565b5b60200260200101516000019073ffffffffffffffffffffffffffffffffffffffff16908173ffffffffffffffffffffffffffffffffffffffff1681525050818160008151811061595d5761595c617f69565b5b6020026020010151602001818152505060006004886000015189602001518a604001518b60600151609d548e8e608001516040516020016159a59897969594939291906176af565b60405160208183030381529060405290506159c48c8286856001615cf8565b5050505050505050505050505050565b6000808273ffffffffffffffffffffffffffffffffffffffff163b119050919050565b600060019054906101000a900460ff16615a46576040517f08c379a0000000000000000000000000000000000000000000000000000000008152600401615a3d90617837565b60405180910390fd5b600073ffffffffffffffffffffffffffffffffffffffff168173ffffffffffffffffffffffffffffffffffffffff161415615ab95760006040517fd7f73334000000000000000000000000000000000000000000000000000000008152600401615ab091906173aa565b60405180910390fd5b80600060026101000a81548173ffffffffffffffffffffffffffffffffffffffff021916908373ffffffffffffffffffffffffffffffffffffffff16021790555050565b600060019054906101000a900460ff16615b4c576040517f08c379a0000000000000000000000000000000000000000000000000000000008152600401615b4390617837565b60405180910390fd5b615b5461622c565b565b600033905090565b600080609860009054906101000a900473ffffffffffffffffffffffffffffffffffffffff1673ffffffffffffffffffffffffffffffffffffffff166313cb1f83888888876040518563ffffffff1660e01b8152600401615bc2949392919061744f565b60206040518083038186803b158015615bda57600080fd5b505afa158015615bee573d6000803e3d6000fd5b505050506040513d601f19601f82011682018060405250810190615c129190616b9c565b9050600080821115615cd657609a60009054906101000a900473ffffffffffffffffffffffffffffffffffffffff1673ffffffffffffffffffffffffffffffffffffffff16635f370ed089898989896040518663ffffffff1660e01b8152600401615c819594939291906173fc565b602060405180830381600087803b158015615c9b57600080fd5b505af1158015615caf573d6000803e3d6000fd5b505050506040513d601f19601f82011682018060405250810190615cd39190616b9c565b90505b6003841415615ce9578092505050615cef565b81925050505b95945050505050565b600082519050609960149054906101000a900461ffff1661ffff16811115615d55576040517f08c379a0000000000000000000000000000000000000000000000000000000008152600401615d4c90617797565b60405180910390fd5b60005b81811015615ecb57609960009054906101000a900473ffffffffffffffffffffffffffffffffffffffff1673ffffffffffffffffffffffffffffffffffffffff16848281518110615dac57615dab617f69565b5b60200260200101516000015173ffffffffffffffffffffffffffffffffffffffff1614615ec057838181518110615de657615de5617f69565b5b60200260200101516000015173ffffffffffffffffffffffffffffffffffffffff1663095ea7b3600060029054906101000a900473ffffffffffffffffffffffffffffffffffffffff16868481518110615e4357615e42617f69565b5b6020026020010151602001516040518363ffffffff1660e01b8152600401615e6c929190617494565b602060405180830381600087803b158015615e8657600080fd5b505af1158015615e9a573d6000803e3d6000fd5b505050506040513d601f19601f82011682018060405250810190615ebe9190616a9f565b505b806001019050615d58565b5060006040518060a0016040528086604051602001615eea91906173aa565b6040516020818303038152906040528152602001878152602001858152602001600180811115615f1d57615f1c617f3a565b5b856001811115615f3057615f2f617f3a565b5b14615f3c576000615f60565b609960009054906101000a900473ffffffffffffffffffffffffffffffffffffffff165b73ffffffffffffffffffffffffffffffffffffffff168152602001615f9e6040518060400160405280620dbba0815260200160001515815250614b0b565b815250905060008060029054906101000a900473ffffffffffffffffffffffffffffffffffffffff1673ffffffffffffffffffffffffffffffffffffffff166320487ded89846040518363ffffffff1660e01b815260040161600192919061796c565b60206040518083038186803b15801561601957600080fd5b505afa15801561602d573d6000803e3d6000fd5b505050506040513d601f19601f820116820180604052508101906160519190616b9c565b9050600060018081111561606857616067617f3a565b5b85600181111561607b5761607a617f3a565b5b141561613757600060029054906101000a900473ffffffffffffffffffffffffffffffffffffffff1673ffffffffffffffffffffffffffffffffffffffff166396f4e9f98a856040518363ffffffff1660e01b81526004016160de92919061796c565b602060405180830381600087803b1580156160f857600080fd5b505af115801561610c573d6000803e3d6000fd5b505050506040513d601f19601f820116820180604052508101906161309190616acc565b90506161ea565b600060029054906101000a900473ffffffffffffffffffffffffffffffffffffffff1673ffffffffffffffffffffffffffffffffffffffff166396f4e9f9838b866040518463ffffffff1660e01b815260040161619592919061796c565b6020604051808303818588803b1580156161ae57600080fd5b505af11580156161c2573d6000803e3d6000fd5b50505050506040513d601f19601f820116820180604052508101906161e79190616acc565b90505b7f54791b38f3859327992a1ca0590ad3c0f08feba98d1a4f56ab0dca74d203392a8160405161621991906174d8565b60405180910390a1505050505050505050565b600060019054906101000a900460ff1661627b576040517f08c379a000000000000000000000000000000000000000000000000000000000815260040161627290617837565b60405180910390fd5b61628b616286615b56565b6146d0565b565b6040518060400160405280600073ffffffffffffffffffffffffffffffffffffffff168152602001600081525090565b6040518060a00160405280600073ffffffffffffffffffffffffffffffffffffffff168152602001600081526020016000815260200160008152602001600081525090565b6040518060c00160405280600073ffffffffffffffffffffffffffffffffffffffff16815260200160008152602001600081526020016000815260200160008152602001600081525090565b6040518060a0016040528060608152602001606081526020016060815260200160608152602001606081525090565b600061639061638b846179dc565b6179b7565b905080838252602082019050828560208602820111156163b3576163b2617fdb565b5b60005b858110156163e357816163c98882616524565b8452602084019350602083019250506001810190506163b6565b5050509392505050565b60006164006163fb84617a08565b6179b7565b9050808382526020820190508285604086028201111561642357616422617fdb565b5b60005b8581101561645357816164398882616783565b845260208401935060408301925050600181019050616426565b5050509392505050565b600061647061646b84617a34565b6179b7565b9050808382526020820190508285602086028201111561649357616492617fdb565b5b60005b858110156164c357816164a988826167fd565b845260208401935060208301925050600181019050616496565b5050509392505050565b60006164e06164db84617a60565b6179b7565b9050828152602081018484840111156164fc576164fb617fe0565b5b616507848285617e20565b509392505050565b60008135905061651e816182a1565b92915050565b600081519050616533816182a1565b92915050565b600081359050616548816182b8565b92915050565b60008151905061655d816182b8565b92915050565b600082601f83011261657857616577617fc7565b5b815161658884826020860161637d565b91505092915050565b600082601f8301126165a6576165a5617fc7565b5b81356165b68482602086016163ed565b91505092915050565b600082601f8301126165d4576165d3617fc7565b5b81516165e484826020860161645d565b91505092915050565b6000815190506165fc816182cf565b92915050565b600081359050616611816182e6565b92915050565b600081519050616626816182e6565b92915050565b60008135905061663b816182fd565b92915050565b600082601f83011261665657616655617fc7565b5b81356166668482602086016164cd565b91505092915050565b60008135905061667e81618314565b92915050565b600060a0828403121561669a57616699617fcc565b5b81905092915050565b600060a082840312156166b9576166b8617fd1565b5b6166c360a06179b7565b905060006166d384828501616602565b60008301525060206166e784828501616812565b602083015250604082013567ffffffffffffffff81111561670b5761670a617fd6565b5b61671784828501616641565b604083015250606082013567ffffffffffffffff81111561673b5761673a617fd6565b5b61674784828501616641565b606083015250608082013567ffffffffffffffff81111561676b5761676a617fd6565b5b61677784828501616591565b60808301525092915050565b60006040828403121561679957616798617fd1565b5b6167a360406179b7565b905060006167b38482850161650f565b60008301525060206167c7848285016167e8565b60208301525092915050565b6000813590506167e281618324565b92915050565b6000813590506167f78161833b565b92915050565b60008151905061680c8161833b565b92915050565b60008135905061682181618352565b92915050565b60008151905061683681618352565b92915050565b60008135905061684b81618369565b92915050565b60006020828403121561686757616866617fea565b5b60006168758482850161650f565b91505092915050565b60006020828403121561689457616893617fea565b5b60006168a284828501616524565b91505092915050565b6000602082840312156168c1576168c0617fea565b5b60006168cf8482850161654e565b91505092915050565b6000806000606084860312156168f1576168f0617fea565b5b60006168ff8682870161650f565b93505060206169108682870161650f565b9250506040616921868287016167d3565b9150509250925092565b600080600080600060a0868803121561694757616946617fea565b5b60006169558882890161650f565b95505060206169668882890161650f565b9450506040616977888289016167e8565b93505060606169888882890161650f565b9250506080616999888289016167e8565b9150509295509295909350565b600080600080608085870312156169c0576169bf617fea565b5b60006169ce8782880161650f565b94505060206169df8782880161650f565b93505060406169f0878288016167e8565b9250506060616a01878288016167e8565b91505092959194509250565b600060208284031215616a2357616a22617fea565b5b600082015167ffffffffffffffff811115616a4157616a40617fe5565b5b616a4d84828501616563565b91505092915050565b600060208284031215616a6c57616a6b617fea565b5b600082015167ffffffffffffffff811115616a8a57616a89617fe5565b5b616a96848285016165bf565b91505092915050565b600060208284031215616ab557616ab4617fea565b5b6000616ac3848285016165ed565b91505092915050565b600060208284031215616ae257616ae1617fea565b5b6000616af084828501616617565b91505092915050565b600060208284031215616b0f57616b0e617fea565b5b6000616b1d8482850161662c565b91505092915050565b600060208284031215616b3c57616b3b617fea565b5b600082013567ffffffffffffffff811115616b5a57616b59617fe5565b5b616b6684828501616684565b91505092915050565b600060208284031215616b8557616b84617fea565b5b6000616b93848285016167e8565b91505092915050565b600060208284031215616bb257616bb1617fea565b5b6000616bc0848285016167fd565b91505092915050565b60008060408385031215616be057616bdf617fea565b5b6000616bee858286016167e8565b9250506020616bff8582860161650f565b9150509250929050565b60008060008060008060c08789031215616c2657616c25617fea565b5b6000616c3489828a016167fd565b965050602087015167ffffffffffffffff811115616c5557616c54617fe5565b5b616c6189828a01616563565b955050604087015167ffffffffffffffff811115616c8257616c81617fe5565b5b616c8e89828a01616563565b9450506060616c9f89828a016167fd565b935050608087015167ffffffffffffffff811115616cc057616cbf617fe5565b5b616ccc89828a016165bf565b92505060a087015167ffffffffffffffff811115616ced57616cec617fe5565b5b616cf989828a016165bf565b9150509295509295509295565b60008060408385031215616d1d57616d1c617fea565b5b6000616d2b858286016167e8565b9250506020616d3c85828601616812565b9150509250929050565b600060208284031215616d5c57616d5b617fea565b5b6000616d6a84828501616812565b91505092915050565b600060208284031215616d8957616d88617fea565b5b6000616d9784828501616827565b91505092915050565b60008060008060008060c08789031215616dbd57616dbc617fea565b5b6000616dcb89828a01616812565b9650506020616ddc89828a01616539565b9550506040616ded89828a0161650f565b9450506060616dfe89828a0161650f565b9350506080616e0f89828a0161650f565b92505060a0616e2089828a0161650f565b9150509295509295509295565b60008060008060808587031215616e4757616e46617fea565b5b6000616e5587828801616812565b9450506020616e668782880161650f565b935050604085013567ffffffffffffffff811115616e8757616e86617fe5565b5b616e9387828801616641565b9250506060616ea48782880161666f565b91505092959194509250565b600060208284031215616ec657616ec5617fea565b5b6000616ed48482850161683c565b91505092915050565b6000616ee98383616f25565b60208301905092915050565b6000616f018383617321565b60408301905092915050565b6000616f19838361736e565b60208301905092915050565b616f2e81617c7e565b82525050565b616f3d81617c7e565b82525050565b6000616f4e82617ac1565b616f588185617b14565b9350616f6383617a91565b8060005b83811015616f94578151616f7b8882616edd565b9750616f8683617aed565b925050600181019050616f67565b5085935050505092915050565b6000616fac82617acc565b616fb68185617b25565b9350616fc183617aa1565b8060005b83811015616ff2578151616fd98882616ef5565b9750616fe483617afa565b925050600181019050616fc5565b5085935050505092915050565b600061700a82617ad7565b6170148185617b36565b935061701f83617ab1565b8060005b838110156170505781516170378882616f0d565b975061704283617b07565b925050600181019050617023565b5085935050505092915050565b61706681617ca2565b82525050565b61707581617ca2565b82525050565b61708481617cae565b82525050565b600061709582617ae2565b61709f8185617b47565b93506170af818560208601617e2f565b6170b881617fef565b840191505092915050565b6170cc81617d59565b82525050565b6170db81617d6b565b82525050565b6170ea81617d7d565b82525050565b6170f981617d8f565b82525050565b61710881617da1565b82525050565b61711781617db3565b82525050565b61712681617dc5565b82525050565b6000617139603383617b58565b915061714482618000565b604082019050919050565b600061715c603283617b58565b91506171678261804f565b604082019050919050565b600061717f603783617b58565b915061718a8261809e565b604082019050919050565b60006171a2603a83617b58565b91506171ad826180ed565b604082019050919050565b60006171c5602e83617b58565b91506171d08261813c565b604082019050919050565b60006171e8602083617b58565b91506171f38261818b565b602082019050919050565b600061720b603083617b58565b9150617216826181b4565b604082019050919050565b600061722e602b83617b58565b915061723982618203565b604082019050919050565b6000617251603983617b58565b915061725c82618252565b604082019050919050565b600060a0830160008301518482036000860152617284828261708a565b9150506020830151848203602086015261729e828261708a565b915050604083015184820360408601526172b88282616fa1565b91505060608301516172cd6060860182616f25565b50608083015184820360808601526172e5828261708a565b9150508091505092915050565b604082016000820151617308600085018261736e565b50602082015161731b602085018261705d565b50505050565b6040820160008201516173376000850182616f25565b50602082015161734a602085018261736e565b50505050565b61735981617ce4565b82525050565b61736881617d00565b82525050565b61737781617d2e565b82525050565b61738681617d2e565b82525050565b61739581617d38565b82525050565b6173a481617d4c565b82525050565b60006020820190506173bf6000830184616f34565b92915050565b60006060820190506173da6000830186616f34565b6173e76020830185616f34565b6173f46040830184617350565b949350505050565b600060a0820190506174116000830188616f34565b61741e6020830187616f34565b61742b604083018661737d565b6174386060830185616f34565b617445608083018461737d565b9695505050505050565b60006080820190506174646000830187616f34565b6174716020830186616f34565b61747e604083018561737d565b61748b606083018461737d565b95945050505050565b60006040820190506174a96000830185616f34565b6174b6602083018461737d565b9392505050565b60006020820190506174d2600083018461706c565b92915050565b60006020820190506174ed600083018461707b565b92915050565b600060208201905061750860008301846170c3565b92915050565b600060208201905061752360008301846170d2565b92915050565b600060208201905061753e60008301846170e1565b92915050565b600060208201905061755960008301846170f0565b92915050565b600061010082019050617575600083018b6170ff565b8181036020830152617587818a616f43565b9050818103604083015261759b8189616f43565b905081810360608301526175af8188616fff565b905081810360808301526175c38187616fff565b90506175d260a083018661737d565b81810360c08301526175e48185616fff565b905081810360e08301526175f88184616fff565b90509998505050505050505050565b60006101008201905061761d600083018b61710e565b818103602083015261762f818a616f43565b905081810360408301526176438189616f43565b905081810360608301526176578188616fff565b9050818103608083015261766b8187616fff565b905061767a60a083018661737d565b81810360c083015261768c8185616fff565b905081810360e08301526176a08184616fff565b90509998505050505050505050565b6000610100820190506176c5600083018b61711d565b81810360208301526176d7818a616f43565b905081810360408301526176eb8189616f43565b905081810360608301526176ff8188616fff565b905081810360808301526177138187616fff565b905061772260a083018661737d565b81810360c08301526177348185616fff565b905081810360e08301526177488184616fff565b90509998505050505050505050565b600060208201905081810360008301526177708161712c565b9050919050565b600060208201905081810360008301526177908161714f565b9050919050565b600060208201905081810360008301526177b081617172565b9050919050565b600060208201905081810360008301526177d081617195565b9050919050565b600060208201905081810360008301526177f0816171b8565b9050919050565b60006020820190508181036000830152617810816171db565b9050919050565b60006020820190508181036000830152617830816171fe565b9050919050565b6000602082019050818103600083015261785081617221565b9050919050565b6000602082019050818103600083015261787081617244565b9050919050565b600060408201905061788c60008301846172f2565b92915050565b60006020820190506178a7600083018461735f565b92915050565b60006020820190506178c2600083018461737d565b92915050565b60006040820190506178dd600083018561737d565b6178ea602083018461737d565b9392505050565b6000604082019050617906600083018561737d565b617913602083018461738c565b9392505050565b600060608201905061792f600083018661737d565b61793c602083018561738c565b617949604083018461737d565b949350505050565b6000602082019050617966600083018461738c565b92915050565b6000604082019050617981600083018561738c565b81810360208301526179938184617267565b90509392505050565b60006020820190506179b1600083018461739b565b92915050565b60006179c16179d2565b90506179cd8282617e62565b919050565b6000604051905090565b600067ffffffffffffffff8211156179f7576179f6617f98565b5b602082029050602081019050919050565b600067ffffffffffffffff821115617a2357617a22617f98565b5b602082029050602081019050919050565b600067ffffffffffffffff821115617a4f57617a4e617f98565b5b602082029050602081019050919050565b600067ffffffffffffffff821115617a7b57617a7a617f98565b5b617a8482617fef565b9050602081019050919050565b6000819050602082019050919050565b6000819050602082019050919050565b6000819050602082019050919050565b600081519050919050565b600081519050919050565b600081519050919050565b600081519050919050565b6000602082019050919050565b6000602082019050919050565b6000602082019050919050565b600082825260208201905092915050565b600082825260208201905092915050565b600082825260208201905092915050565b600082825260208201905092915050565b600082825260208201905092915050565b6000617b7482617d2e565b9150617b7f83617d2e565b9250827fffffffffffffffffffffffffffffffffffffffffffffffffffffffffffffffff03821115617bb457617bb3617edc565b5b828201905092915050565b6000617bca82617d2e565b9150617bd583617d2e565b925082617be557617be4617f0b565b5b828204905092915050565b6000617bfb82617d2e565b9150617c0683617d2e565b9250817fffffffffffffffffffffffffffffffffffffffffffffffffffffffffffffffff0483118215151615617c3f57617c3e617edc565b5b828202905092915050565b6000617c5582617d2e565b9150617c6083617d2e565b925082821015617c7357617c72617edc565b5b828203905092915050565b6000617c8982617d0e565b9050919050565b6000617c9b82617d0e565b9050919050565b60008115159050919050565b6000819050919050565b60007fffffffff0000000000000000000000000000000000000000000000000000000082169050919050565b60006fffffffffffffffffffffffffffffffff82169050919050565b600061ffff82169050919050565b600073ffffffffffffffffffffffffffffffffffffffff82169050919050565b6000819050919050565b600067ffffffffffffffff82169050919050565b600060ff82169050919050565b6000617d6482617dea565b9050919050565b6000617d7682617dea565b9050919050565b6000617d8882617dfc565b9050919050565b6000617d9a82617d4c565b9050919050565b6000617dac82617d4c565b9050919050565b6000617dbe82617d4c565b9050919050565b6000617dd082617d4c565b9050919050565b6000617de336836166a3565b9050919050565b6000617df582617e0e565b9050919050565b6000617e0782617e0e565b9050919050565b6000617e1982617d0e565b9050919050565b82818337600083830152505050565b60005b83811015617e4d578082015181840152602081019050617e32565b83811115617e5c576000848401525b50505050565b617e6b82617fef565b810181811067ffffffffffffffff82111715617e8a57617e89617f98565b5b80604052505050565b6000617e9e82617d2e565b91507fffffffffffffffffffffffffffffffffffffffffffffffffffffffffffffffff821415617ed157617ed0617edc565b5b600182019050919050565b7f4e487b7100000000000000000000000000000000000000000000000000000000600052601160045260246000fd5b7f4e487b7100000000000000000000000000000000000000000000000000000000600052601260045260246000fd5b7f4e487b7100000000000000000000000000000000000000000000000000000000600052602160045260246000fd5b7f4e487b7100000000000000000000000000000000000000000000000000000000600052603260045260246000fd5b7f4e487b7100000000000000000000000000000000000000000000000000000000600052604160045260246000fd5b600080fd5b600080fd5b600080fd5b600080fd5b600080fd5b600080fd5b600080fd5b600080fd5b6000601f19601f8301169050919050565b7f546865206e65774665652073686f756c64206265206265747765656e2031206160008201527f6e64203130302028302e303125202d2031252900000000000000000000000000602082015250565b7f50726f706f7361626c654f776e61626c653a206e6577206f776e65722069732060008201527f6e6f742070726f706f736564206f776e65720000000000000000000000000000602082015250565b7f4d6178696d756d203520646966666572656e7420746f6b656e732063616e206260008201527f652073656e74207065722043434950204d657373616765000000000000000000602082015250565b7f50726f706f7361626c654f776e61626c653a20746869732063616c6c206d757360008201527f74206265206d61646520627920746865206e6577206f776e6572000000000000602082015250565b7f496e697469616c697a61626c653a20636f6e747261637420697320616c72656160008201527f647920696e697469616c697a6564000000000000000000000000000000000000602082015250565b7f4f776e61626c653a2063616c6c6572206973206e6f7420746865206f776e6572600082015250565b7f50726f706f7361626c654f776e61626c653a206e6577206f776e65722069732060008201527f746865207a65726f206164647265737300000000000000000000000000000000602082015250565b7f496e697469616c697a61626c653a20636f6e7472616374206973206e6f74206960008201527f6e697469616c697a696e67000000000000000000000000000000000000000000602082015250565b7f596f752073686f756c642077616974206174206c6561737420313220686f757260008201527f7320616674657220746865206c61746573742075706461746500000000000000602082015250565b6182aa81617c7e565b81146182b557600080fd5b50565b6182c181617c90565b81146182cc57600080fd5b50565b6182d881617ca2565b81146182e357600080fd5b50565b6182ef81617cae565b81146182fa57600080fd5b50565b61830681617cb8565b811461831157600080fd5b50565b6002811061832157600080fd5b50565b61832d81617ce4565b811461833857600080fd5b50565b61834481617d2e565b811461834f57600080fd5b50565b61835b81617d38565b811461836657600080fd5b50565b61837281617d4c565b811461837d57600080fd5b5056fea26469706673582212203264f04eafbdf5abff838449d9a40ceb66cd97020f53d82cf165da8e192833f364736f6c63430008070033","linkReferences":{}},"methodIdentifiers":{"askValues()":"2700cc86","ccipReceive((bytes32,uint64,bytes,bytes,(address,uint256)[]))":"85572ffb","chainValueByNonce(uint256,uint64)":"69abf538","convertEthToUsd(uint256)":"c086381e","crossChainFactoryBySelector(uint64)":"340fbc74","crossChainToken(uint64)":"19da7e2a","currentChainSelector()":"3d54cb6f","estimateAmountOut(address,address,uint128)":"0456f9c8","extraWethByNonce(uint256)":"756c1fd1","feeRate()":"978bbdb9","firstReweightAction()":"63713a8b","getAmountOut(address,address,uint256,uint256)":"13cb1f83","getPortfolioBalance()":"a8509fd8","getRouter()":"b0f479a1","i_link()":"7d253aff","i_maxTokensLength()":"5b6a0351","indexFactoryStorage()":"d1f7a991","indexToken()":"e7d015f2","initialize(uint64,address,address,address,address,address)":"edba0e31","latestFeeUpdate()":"011ced5f","owner()":"8da5cb5b","portfolioTotalValueByNonce(uint256)":"7d3546f7","priceInWei()":"3c8da588","proposeOwner(address)":"b5ed298a","proposedOwner()":"d153b60c","redemptionNonceOutputToken(uint256)":"0603fb05","redemptionNonceOutputTokenSwapVersion(uint256)":"72bc260c","renounceOwnership()":"715018a6","reweightExtraPercentage(uint256)":"814ffd71","reweightTokensCount(uint256)":"78324463","reweightWethValueByNonce(uint256)":"f1639b09","secondReweightAction()":"d79e8d65","sendMessage(uint64,address,bytes,uint8)":"bcab90b3","setFeeRate(uint8)":"5177942a","setIndexFactoryStorage(address)":"cc8659ae","supportsInterface(bytes4)":"01ffc9a7","swap(address,address,uint256,address,uint256)":"17d88f46","tokenValueByNonce(uint256,address)":"b316e7fd","transferOwnership(address)":"f2fde38b","updatePortfolioNonce()":"003cf402","updatedTokensValueCount(uint256)":"c070a097","weth()":"3fc8cef3"},"id":4}