{"abi":[{"type":"receive","stateMutability":"payable"},{"type":"function","name":"askValues","inputs":[],"outputs":[],"stateMutability":"nonpayable"},{"type":"function","name":"ccipReceive","inputs":[{"name":"message","type":"tuple","internalType":"struct Client.Any2EVMMessage","components":[{"name":"messageId","type":"bytes32","internalType":"bytes32"},{"name":"sourceChainSelector","type":"uint64","internalType":"uint64"},{"name":"sender","type":"bytes","internalType":"bytes"},{"name":"data","type":"bytes","internalType":"bytes"},{"name":"destTokenAmounts","type":"tuple[]","internalType":"struct Client.EVMTokenAmount[]","components":[{"name":"token","type":"address","internalType":"address"},{"name":"amount","type":"uint256","internalType":"uint256"}]}]}],"outputs":[],"stateMutability":"nonpayable"},{"type":"function","name":"chainValueByNonce","inputs":[{"name":"","type":"uint256","internalType":"uint256"},{"name":"","type":"uint64","internalType":"uint64"}],"outputs":[{"name":"","type":"uint256","internalType":"uint256"}],"stateMutability":"view"},{"type":"function","name":"convertEthToUsd","inputs":[{"name":"_ethAmount","type":"uint256","internalType":"uint256"}],"outputs":[{"name":"","type":"uint256","internalType":"uint256"}],"stateMutability":"view"},{"type":"function","name":"crossChainFactoryBySelector","inputs":[{"name":"_chainSelector","type":"uint64","internalType":"uint64"}],"outputs":[{"name":"","type":"address","internalType":"address"}],"stateMutability":"view"},{"type":"function","name":"crossChainToken","inputs":[{"name":"_chainSelector","type":"uint64","internalType":"uint64"}],"outputs":[{"name":"","type":"address","internalType":"address"}],"stateMutability":"view"},{"type":"function","name":"currentChainSelector","inputs":[],"outputs":[{"name":"","type":"uint64","internalType":"uint64"}],"stateMutability":"view"},{"type":"function","name":"estimateAmountOut","inputs":[{"name":"tokenIn","type":"address","internalType":"address"},{"name":"tokenOut","type":"address","internalType":"address"},{"name":"amountIn","type":"uint128","internalType":"uint128"},{"name":"fee","type":"uint24","internalType":"uint24"}],"outputs":[{"name":"amountOut","type":"uint256","internalType":"uint256"}],"stateMutability":"view"},{"type":"function","name":"extraWethByNonce","inputs":[{"name":"","type":"uint256","internalType":"uint256"}],"outputs":[{"name":"","type":"uint256","internalType":"uint256"}],"stateMutability":"view"},{"type":"function","name":"factoryStorage","inputs":[],"outputs":[{"name":"","type":"address","internalType":"contract IndexFactoryStorage"}],"stateMutability":"view"},{"type":"function","name":"feeRate","inputs":[],"outputs":[{"name":"","type":"uint8","internalType":"uint8"}],"stateMutability":"view"},{"type":"function","name":"firstReweightAction","inputs":[],"outputs":[],"stateMutability":"nonpayable"},{"type":"function","name":"getAmountOut","inputs":[{"name":"tokenIn","type":"address","internalType":"address"},{"name":"tokenOut","type":"address","internalType":"address"},{"name":"amountIn","type":"uint256","internalType":"uint256"},{"name":"_swapFee","type":"uint24","internalType":"uint24"}],"outputs":[{"name":"finalAmountOut","type":"uint256","internalType":"uint256"}],"stateMutability":"view"},{"type":"function","name":"getPortfolioBalance","inputs":[],"outputs":[{"name":"","type":"uint256","internalType":"uint256"}],"stateMutability":"view"},{"type":"function","name":"getRouter","inputs":[],"outputs":[{"name":"","type":"address","internalType":"address"}],"stateMutability":"view"},{"type":"function","name":"i_link","inputs":[],"outputs":[{"name":"","type":"address","internalType":"address"}],"stateMutability":"view"},{"type":"function","name":"i_maxTokensLength","inputs":[],"outputs":[{"name":"","type":"uint16","internalType":"uint16"}],"stateMutability":"view"},{"type":"function","name":"indexToken","inputs":[],"outputs":[{"name":"","type":"address","internalType":"contract IndexToken"}],"stateMutability":"view"},{"type":"function","name":"initialize","inputs":[{"name":"_currentChainSelector","type":"uint64","internalType":"uint64"},{"name":"_token","type":"address","internalType":"address payable"},{"name":"_factoryStorage","type":"address","internalType":"address"},{"name":"_chainlinkToken","type":"address","internalType":"address"},{"name":"_router","type":"address","internalType":"address"},{"name":"_weth","type":"address","internalType":"address"}],"outputs":[],"stateMutability":"nonpayable"},{"type":"function","name":"latestFeeUpdate","inputs":[],"outputs":[{"name":"","type":"uint256","internalType":"uint256"}],"stateMutability":"view"},{"type":"function","name":"owner","inputs":[],"outputs":[{"name":"","type":"address","internalType":"address"}],"stateMutability":"view"},{"type":"function","name":"portfolioTotalValueByNonce","inputs":[{"name":"","type":"uint256","internalType":"uint256"}],"outputs":[{"name":"","type":"uint256","internalType":"uint256"}],"stateMutability":"view"},{"type":"function","name":"priceInWei","inputs":[],"outputs":[{"name":"","type":"uint256","internalType":"uint256"}],"stateMutability":"view"},{"type":"function","name":"proposeOwner","inputs":[{"name":"_proposedOwner","type":"address","internalType":"address"}],"outputs":[],"stateMutability":"nonpayable"},{"type":"function","name":"proposedOwner","inputs":[],"outputs":[{"name":"","type":"address","internalType":"address"}],"stateMutability":"view"},{"type":"function","name":"redemptionNonceOutputToken","inputs":[{"name":"","type":"uint256","internalType":"uint256"}],"outputs":[{"name":"","type":"address","internalType":"address"}],"stateMutability":"view"},{"type":"function","name":"redemptionNonceOutputTokenSwapFee","inputs":[{"name":"","type":"uint256","internalType":"uint256"}],"outputs":[{"name":"","type":"uint256","internalType":"uint256"}],"stateMutability":"view"},{"type":"function","name":"renounceOwnership","inputs":[],"outputs":[],"stateMutability":"nonpayable"},{"type":"function","name":"reweightExtraPercentage","inputs":[{"name":"","type":"uint256","internalType":"uint256"}],"outputs":[{"name":"","type":"uint256","internalType":"uint256"}],"stateMutability":"view"},{"type":"function","name":"reweightTokensCount","inputs":[{"name":"","type":"uint256","internalType":"uint256"}],"outputs":[{"name":"","type":"uint256","internalType":"uint256"}],"stateMutability":"view"},{"type":"function","name":"reweightWethValueByNonce","inputs":[{"name":"","type":"uint256","internalType":"uint256"}],"outputs":[{"name":"","type":"uint256","internalType":"uint256"}],"stateMutability":"view"},{"type":"function","name":"secondReweightAction","inputs":[],"outputs":[],"stateMutability":"nonpayable"},{"type":"function","name":"sendMessage","inputs":[{"name":"destinationChainSelector","type":"uint64","internalType":"uint64"},{"name":"receiver","type":"address","internalType":"address"},{"name":"_data","type":"bytes","internalType":"bytes"},{"name":"payFeesIn","type":"uint8","internalType":"enum IndexFactoryBalancer.PayFeesIn"}],"outputs":[],"stateMutability":"nonpayable"},{"type":"function","name":"setFeeRate","inputs":[{"name":"_newFee","type":"uint8","internalType":"uint8"}],"outputs":[],"stateMutability":"nonpayable"},{"type":"function","name":"setIndexFactoryStorage","inputs":[{"name":"_factoryStorage","type":"address","internalType":"address"}],"outputs":[],"stateMutability":"nonpayable"},{"type":"function","name":"setPortfolioTotalValueByNonce","inputs":[{"name":"nonce","type":"uint256","internalType":"uint256"},{"name":"value","type":"uint256","internalType":"uint256"}],"outputs":[],"stateMutability":"nonpayable"},{"type":"function","name":"supportsInterface","inputs":[{"name":"interfaceId","type":"bytes4","internalType":"bytes4"}],"outputs":[{"name":"","type":"bool","internalType":"bool"}],"stateMutability":"pure"},{"type":"function","name":"swap","inputs":[{"name":"tokenIn","type":"address","internalType":"address"},{"name":"tokenOut","type":"address","internalType":"address"},{"name":"amountIn","type":"uint256","internalType":"uint256"},{"name":"_recipient","type":"address","internalType":"address"},{"name":"_swapFee","type":"uint24","internalType":"uint24"}],"outputs":[{"name":"outputAmount","type":"uint256","internalType":"uint256"}],"stateMutability":"nonpayable"},{"type":"function","name":"tokenValueByNonce","inputs":[{"name":"","type":"uint256","internalType":"uint256"},{"name":"","type":"address","internalType":"address"}],"outputs":[{"name":"","type":"uint256","internalType":"uint256"}],"stateMutability":"view"},{"type":"function","name":"transferOwnership","inputs":[{"name":"newOwner","type":"address","internalType":"address"}],"outputs":[],"stateMutability":"nonpayable"},{"type":"function","name":"updatePortfolioNonce","inputs":[],"outputs":[{"name":"","type":"uint256","internalType":"uint256"}],"stateMutability":"view"},{"type":"function","name":"updatedTokensValueCount","inputs":[{"name":"","type":"uint256","internalType":"uint256"}],"outputs":[{"name":"","type":"uint256","internalType":"uint256"}],"stateMutability":"view"},{"type":"function","name":"weth","inputs":[],"outputs":[{"name":"","type":"address","internalType":"contract IWETH"}],"stateMutability":"view"},{"type":"event","name":"Initialized","inputs":[{"name":"version","type":"uint8","indexed":false,"internalType":"uint8"}],"anonymous":false},{"type":"event","name":"MessageSent","inputs":[{"name":"messageId","type":"bytes32","indexed":false,"internalType":"bytes32"}],"anonymous":false},{"type":"event","name":"OwnershipTransferred","inputs":[{"name":"previousOwner","type":"address","indexed":true,"internalType":"address"},{"name":"newOwner","type":"address","indexed":true,"internalType":"address"}],"anonymous":false},{"type":"error","name":"InvalidRouter","inputs":[{"name":"router","type":"address","internalType":"address"}]}],"bytecode":{"object":"0x6080604052348015600e575f80fd5b5061852e8061001c5f395ff3fe60806040526004361061025e575f3560e01c806385572ffb11610143578063c070a097116100b5578063dd811ac911610079578063dd811ac91461091b578063e7d015f214610957578063edba0e3114610981578063ee7bd3e2146109a9578063f1639b09146109e5578063f2fde38b14610a2157610265565b8063c070a0971461083b578063c086381e14610877578063cc8659ae146108b3578063d153b60c146108db578063d79e8d651461090557610265565b8063afcaa95211610107578063afcaa9521461071f578063b0f479a11461075b578063b316e7fd14610785578063b5ed298a146107c1578063bcab90b3146107e9578063c06e1ae21461081157610265565b806385572ffb146106515780638d7307d4146106795780638da5cb5b146106a1578063978bbdb9146106cb578063a8509fd8146106f557610265565b80635177942a116101dc578063756c1fd1116101a0578063756c1fd1146104fb57806378324463146105375780637d253aff146105735780637d3546f71461059d5780637e79f512146105d9578063814ffd711461061557610265565b80635177942a146104415780635b6a03511461046957806363713a8b1461049357806369abf538146104a9578063715018a6146104e557610265565b80632700cc86116102235780632700cc8614610371578063340fbc74146103875780633c8da588146103c35780633d54cb6f146103ed5780633fc8cef31461041757610265565b80623cf40214610269578063011ced5f1461029357806301ffc9a7146102bd5780630603fb05146102f957806319da7e2a1461033557610265565b3661026557005b5f80fd5b348015610274575f80fd5b5061027d610a49565b60405161028a9190616048565b60405180910390f35b34801561029e575f80fd5b506102a7610a4f565b6040516102b49190616048565b60405180910390f35b3480156102c8575f80fd5b506102e360048036038101906102de91906160c7565b610a55565b6040516102f0919061610c565b60405180910390f35b348015610304575f80fd5b5061031f600480360381019061031a919061614f565b610b26565b60405161032c91906161b9565b60405180910390f35b348015610340575f80fd5b5061035b6004803603810190610356919061620f565b610b56565b60405161036891906161b9565b60405180910390f35b34801561037c575f80fd5b50610385610bf7565b005b348015610392575f80fd5b506103ad60048036038101906103a8919061620f565b6115c8565b6040516103ba91906161b9565b60405180910390f35b3480156103ce575f80fd5b506103d7611669565b6040516103e49190616048565b60405180910390f35b3480156103f8575f80fd5b506104016116fd565b60405161040e9190616249565b60405180910390f35b348015610422575f80fd5b5061042b611716565b60405161043891906162bd565b60405180910390f35b34801561044c575f80fd5b506104676004803603810190610462919061630c565b61173c565b005b348015610474575f80fd5b5061047d61182c565b60405161048a9190616353565b60405180910390f35b34801561049e575f80fd5b506104a7611840565b005b3480156104b4575f80fd5b506104cf60048036038101906104ca919061636c565b611e24565b6040516104dc9190616048565b60405180910390f35b3480156104f0575f80fd5b506104f9611e44565b005b348015610506575f80fd5b50610521600480360381019061051c919061614f565b611e57565b60405161052e9190616048565b60405180910390f35b348015610542575f80fd5b5061055d6004803603810190610558919061614f565b611e6c565b60405161056a9190616048565b60405180910390f35b34801561057e575f80fd5b50610587611e81565b60405161059491906161b9565b60405180910390f35b3480156105a8575f80fd5b506105c360048036038101906105be919061614f565b611ea6565b6040516105d09190616048565b60405180910390f35b3480156105e4575f80fd5b506105ff60048036038101906105fa919061640c565b611ebb565b60405161060c9190616048565b60405180910390f35b348015610620575f80fd5b5061063b6004803603810190610636919061614f565b611ffa565b6040516106489190616048565b60405180910390f35b34801561065c575f80fd5b50610677600480360381019061067291906164a5565b61200f565b005b348015610684575f80fd5b5061069f600480360381019061069a91906164ec565b6120b5565b005b3480156106ac575f80fd5b506106b56120d7565b6040516106c291906161b9565b60405180910390f35b3480156106d6575f80fd5b506106df6120ff565b6040516106ec9190616539565b60405180910390f35b348015610700575f80fd5b50610709612112565b6040516107169190616048565b60405180910390f35b34801561072a575f80fd5b506107456004803603810190610740919061614f565b612538565b6040516107529190616048565b60405180910390f35b348015610766575f80fd5b5061076f61254d565b60405161077c91906161b9565b60405180910390f35b348015610790575f80fd5b506107ab60048036038101906107a69190616552565b612575565b6040516107b89190616048565b60405180910390f35b3480156107cc575f80fd5b506107e760048036038101906107e29190616590565b612595565b005b3480156107f4575f80fd5b5061080f600480360381019061080a919061671a565b61264e565b005b34801561081c575f80fd5b506108256129ba565b60405161083291906167ba565b60405180910390f35b348015610846575f80fd5b50610861600480360381019061085c919061614f565b6129df565b60405161086e9190616048565b60405180910390f35b348015610882575f80fd5b5061089d6004803603810190610898919061614f565b6129f4565b6040516108aa9190616048565b60405180910390f35b3480156108be575f80fd5b506108d960048036038101906108d49190616590565b612a22565b005b3480156108e6575f80fd5b506108ef612a6d565b6040516108fc91906161b9565b60405180910390f35b348015610910575f80fd5b50610919612a92565b005b348015610926575f80fd5b50610941600480360381019061093c91906167d3565b612fe4565b60405161094e9190616048565b60405180910390f35b348015610962575f80fd5b5061096b61308e565b6040516109789190616868565b60405180910390f35b34801561098c575f80fd5b506109a760048036038101906109a291906168bc565b6130b3565b005b3480156109b4575f80fd5b506109cf60048036038101906109ca919061698a565b613421565b6040516109dc9190616048565b60405180910390f35b3480156109f0575f80fd5b50610a0b6004803603810190610a06919061614f565b6134cb565b604051610a189190616048565b60405180910390f35b348015610a2c575f80fd5b50610a476004803603810190610a429190616590565b6134e0565b005b609d5481565b609b5481565b5f7f85572ffb000000000000000000000000000000000000000000000000000000007bffffffffffffffffffffffffffffffffffffffffffffffffffffffff1916827bffffffffffffffffffffffffffffffffffffffffffffffffffffffff19161480610b1f57507f01ffc9a7000000000000000000000000000000000000000000000000000000007bffffffffffffffffffffffffffffffffffffffffffffffffffffffff1916827bffffffffffffffffffffffffffffffffffffffffffffffffffffffff1916145b9050919050565b60a6602052805f5260405f205f915054906101000a900473ffffffffffffffffffffffffffffffffffffffff1681565b5f60985f9054906101000a900473ffffffffffffffffffffffffffffffffffffffff1673ffffffffffffffffffffffffffffffffffffffff166319da7e2a836040518263ffffffff1660e01b8152600401610bb19190616249565b602060405180830381865afa158015610bcc573d5f803e3d5ffd5b505050506040513d601f19601f82011682018060405250810190610bf09190616a02565b9050919050565b610bff613657565b6001609d5f828254610c119190616a5a565b925050819055505f60985f9054906101000a900473ffffffffffffffffffffffffffffffffffffffff1673ffffffffffffffffffffffffffffffffffffffff166369487b1c6040518163ffffffff1660e01b8152600401602060405180830381865afa158015610c83573d5f803e3d5ffd5b505050506040513d601f19601f82011682018060405250810190610ca79190616aa1565b90505f60985f9054906101000a900473ffffffffffffffffffffffffffffffffffffffff1673ffffffffffffffffffffffffffffffffffffffff1663b90b8a2a6040518163ffffffff1660e01b8152600401602060405180830381865afa158015610d14573d5f803e3d5ffd5b505050506040513d601f19601f82011682018060405250810190610d389190616aa1565b90505f5b828110156115c3575f60985f9054906101000a900473ffffffffffffffffffffffffffffffffffffffff1673ffffffffffffffffffffffffffffffffffffffff1663d3f7f266846040518263ffffffff1660e01b8152600401610d9f9190616048565b5f60405180830381865afa158015610db9573d5f803e3d5ffd5b505050506040513d5f823e3d601f19601f82011682018060405250810190610de19190616df8565b93505050505f818381518110610dfa57610df9616ecc565b5b602002602001015190505f60985f9054906101000a900473ffffffffffffffffffffffffffffffffffffffff1673ffffffffffffffffffffffffffffffffffffffff1663b6ad185b836040518263ffffffff1660e01b8152600401610e5f9190616249565b602060405180830381865afa158015610e7a573d5f803e3d5ffd5b505050506040513d601f19601f82011682018060405250810190610e9e9190616aa1565b9050609c5f9054906101000a900467ffffffffffffffff1667ffffffffffffffff168267ffffffffffffffff1603611389575f60985f9054906101000a900473ffffffffffffffffffffffffffffffffffffffff1673ffffffffffffffffffffffffffffffffffffffff1663d1c68aa3846040518263ffffffff1660e01b8152600401610f2b9190616249565b5f60405180830381865afa158015610f45573d5f803e3d5ffd5b505050506040513d5f823e3d601f19601f82011682018060405250810190610f6d9190616ef9565b90505f60985f9054906101000a900473ffffffffffffffffffffffffffffffffffffffff1673ffffffffffffffffffffffffffffffffffffffff1663fbfa77cf6040518163ffffffff1660e01b8152600401602060405180830381865afa158015610fda573d5f803e3d5ffd5b505050506040513d601f19601f82011682018060405250810190610ffe9190616f7b565b90505f5b83811015611381575f83828151811061101e5761101d616ecc565b5b602002602001015190505f60985f9054906101000a900473ffffffffffffffffffffffffffffffffffffffff1673ffffffffffffffffffffffffffffffffffffffff166332599665836040518263ffffffff1660e01b815260040161108391906161b9565b602060405180830381865afa15801561109e573d5f803e3d5ffd5b505050506040513d601f19601f820116820180604052508101906110c29190616fa6565b90505f609c60089054906101000a900473ffffffffffffffffffffffffffffffffffffffff1673ffffffffffffffffffffffffffffffffffffffff168373ffffffffffffffffffffffffffffffffffffffff1603611199578273ffffffffffffffffffffffffffffffffffffffff166370a08231866040518263ffffffff1660e01b815260040161115391906161b9565b602060405180830381865afa15801561116e573d5f803e3d5ffd5b505050506040513d601f19601f820116820180604052508101906111929190616aa1565b9050611241565b61123e83609c60089054906101000a900473ffffffffffffffffffffffffffffffffffffffff168573ffffffffffffffffffffffffffffffffffffffff166370a08231896040518263ffffffff1660e01b81526004016111f991906161b9565b602060405180830381865afa158015611214573d5f803e3d5ffd5b505050506040513d601f19601f820116820180604052508101906112389190616aa1565b85612fe4565b90505b61124a816129f4565b609e5f609d5481526020019081526020015f205f82825461126b9190616a5a565b9250508190555061127b816129f4565b60a15f609d5481526020019081526020015f205f8573ffffffffffffffffffffffffffffffffffffffff1673ffffffffffffffffffffffffffffffffffffffff1681526020019081526020015f205f8282546112d79190616a5a565b92505081905550600160a05f609d5481526020019081526020015f205f8282546113019190616a5a565b92505081905550611311816129f4565b60a25f609d5481526020019081526020015f205f609c5f9054906101000a900467ffffffffffffffff1667ffffffffffffffff1667ffffffffffffffff1681526020019081526020015f205f82825461136a9190616a5a565b925050819055505050508080600101915050611002565b5050506115b3565b5f611393836115c8565b90505f60985f9054906101000a900473ffffffffffffffffffffffffffffffffffffffff1673ffffffffffffffffffffffffffffffffffffffff1663d1c68aa3856040518263ffffffff1660e01b81526004016113f09190616249565b5f60405180830381865afa15801561140a573d5f803e3d5ffd5b505050506040513d5f823e3d601f19601f820116820180604052508101906114329190616ef9565b90505f60985f9054906101000a900473ffffffffffffffffffffffffffffffffffffffff1673ffffffffffffffffffffffffffffffffffffffff1663221f3371866040518263ffffffff1660e01b815260040161148f9190616249565b5f60405180830381865afa1580156114a9573d5f803e3d5ffd5b505050506040513d5f823e3d601f19601f820116820180604052508101906114d19190616fd1565b90505f8067ffffffffffffffff8111156114ee576114ed6165d3565b5b60405190808252806020026020018201604052801561151c5781602001602082028036833780820191505090505b5090505f8067ffffffffffffffff81111561153a576115396165d3565b5b6040519080825280602002602001820160405280156115685781602001602082028036833780820191505090505b5090505f600285848685609d54878860405160200161158e9897969594939291906171bf565b60405160208183030381529060405290506115ac888783600161264e565b5050505050505b5050508080600101915050610d3c565b505050565b5f60985f9054906101000a900473ffffffffffffffffffffffffffffffffffffffff1673ffffffffffffffffffffffffffffffffffffffff1663340fbc74836040518263ffffffff1660e01b81526004016116239190616249565b602060405180830381865afa15801561163e573d5f803e3d5ffd5b505050506040513d601f19601f820116820180604052508101906116629190616a02565b9050919050565b5f60985f9054906101000a900473ffffffffffffffffffffffffffffffffffffffff1673ffffffffffffffffffffffffffffffffffffffff16633c8da5886040518163ffffffff1660e01b8152600401602060405180830381865afa1580156116d4573d5f803e3d5ffd5b505050506040513d601f19601f820116820180604052508101906116f89190616aa1565b905090565b609c5f9054906101000a900467ffffffffffffffff1681565b609c60089054906101000a900473ffffffffffffffffffffffffffffffffffffffff1681565b611744613657565b5f609b54426117539190617265565b9050600c603c808361176591906172c5565b61176f91906172c5565b116117af576040517f08c379a00000000000000000000000000000000000000000000000000000000081526004016117a690617375565b60405180910390fd5b60648260ff16111580156117c7575060018260ff1610155b611806576040517f08c379a00000000000000000000000000000000000000000000000000000000081526004016117fd90617403565b60405180910390fd5b81609a60146101000a81548160ff021916908360ff16021790555042609b819055505050565b609960149054906101000a900461ffff1681565b611848613657565b5f609d5490505f609e5f8381526020019081526020015f205490505f60985f9054906101000a900473ffffffffffffffffffffffffffffffffffffffff1673ffffffffffffffffffffffffffffffffffffffff166369487b1c6040518163ffffffff1660e01b8152600401602060405180830381865afa1580156118ce573d5f803e3d5ffd5b505050506040513d601f19601f820116820180604052508101906118f29190616aa1565b90505f60985f9054906101000a900473ffffffffffffffffffffffffffffffffffffffff1673ffffffffffffffffffffffffffffffffffffffff1663b90b8a2a6040518163ffffffff1660e01b8152600401602060405180830381865afa15801561195f573d5f803e3d5ffd5b505050506040513d601f19601f820116820180604052508101906119839190616aa1565b90505f60985f9054906101000a900473ffffffffffffffffffffffffffffffffffffffff1673ffffffffffffffffffffffffffffffffffffffff1663f15817876040518163ffffffff1660e01b8152600401602060405180830381865afa1580156119f0573d5f803e3d5ffd5b505050506040513d601f19601f82011682018060405250810190611a149190616aa1565b90505f5b83811015611e1c575f60985f9054906101000a900473ffffffffffffffffffffffffffffffffffffffff1673ffffffffffffffffffffffffffffffffffffffff1663d3f7f266856040518263ffffffff1660e01b8152600401611a7b9190616048565b5f60405180830381865afa158015611a95573d5f803e3d5ffd5b505050506040513d5f823e3d601f19601f82011682018060405250810190611abd9190616df8565b93505050505f818381518110611ad657611ad5616ecc565b5b602002602001015190505f60985f9054906101000a900473ffffffffffffffffffffffffffffffffffffffff1673ffffffffffffffffffffffffffffffffffffffff1663b6ad185b836040518263ffffffff1660e01b8152600401611b3b9190616249565b602060405180830381865afa158015611b56573d5f803e3d5ffd5b505050506040513d601f19601f82011682018060405250810190611b7a9190616aa1565b90505f60985f9054906101000a900473ffffffffffffffffffffffffffffffffffffffff1673ffffffffffffffffffffffffffffffffffffffff1663fc698b4a846040518263ffffffff1660e01b8152600401611bd79190616249565b602060405180830381865afa158015611bf2573d5f803e3d5ffd5b505050506040513d601f19601f82011682018060405250810190611c169190616aa1565b90505f60985f9054906101000a900473ffffffffffffffffffffffffffffffffffffffff1673ffffffffffffffffffffffffffffffffffffffff16632a3ff8ad88866040518363ffffffff1660e01b8152600401611c75929190617421565b602060405180830381865afa158015611c90573d5f803e3d5ffd5b505050506040513d601f19601f82011682018060405250810190611cb49190616aa1565b90505f60a25f8d81526020019081526020015f205f8667ffffffffffffffff1667ffffffffffffffff1681526020019081526020015f205490505f60985f9054906101000a900473ffffffffffffffffffffffffffffffffffffffff1673ffffffffffffffffffffffffffffffffffffffff1663bf0d49c0876040518263ffffffff1660e01b8152600401611d499190616249565b5f60405180830381865afa158015611d63573d5f803e3d5ffd5b505050506040513d5f823e3d601f19601f82011682018060405250810190611d8b9190616fd1565b9050828c68056bc75e2d6310000084611da49190617448565b611dae91906172c5565b1115611e0857609c5f9054906101000a900467ffffffffffffffff1667ffffffffffffffff168667ffffffffffffffff1603611df857611df3888e8e898989896136d5565b611e07565b611e068d8d88868686613ed0565b5b5b505050505050508080600101915050611a18565b505050505050565b60a2602052815f5260405f20602052805f5260405f205f91509150505481565b611e4c613657565b611e555f6142ad565b565b609f602052805f5260405f205f915090505481565b60a4602052805f5260405f205f915090505481565b60995f9054906101000a900473ffffffffffffffffffffffffffffffffffffffff1681565b609e602052805f5260405f205f915090505481565b5f8060985f9054906101000a900473ffffffffffffffffffffffffffffffffffffffff1673ffffffffffffffffffffffffffffffffffffffff1663b631e80b6040518163ffffffff1660e01b8152600401602060405180830381865afa158015611f27573d5f803e3d5ffd5b505050506040513d601f19601f82011682018060405250810190611f4b91906174c4565b90505f60985f9054906101000a900473ffffffffffffffffffffffffffffffffffffffff1673ffffffffffffffffffffffffffffffffffffffff1663744fbc7a6040518163ffffffff1660e01b8152600401602060405180830381865afa158015611fb8573d5f803e3d5ffd5b505050506040513d601f19601f82011682018060405250810190611fdc919061752a565b9050611fed8282868b8b8b8b614370565b9250505095945050505050565b60a5602052805f5260405f205f915090505481565b5f60029054906101000a900473ffffffffffffffffffffffffffffffffffffffff1673ffffffffffffffffffffffffffffffffffffffff163373ffffffffffffffffffffffffffffffffffffffff16146120a057336040517fd7f7333400000000000000000000000000000000000000000000000000000000815260040161209791906161b9565b60405180910390fd5b6120b2816120ad9061777a565b6143ae565b50565b6120bd613657565b80609e5f8481526020019081526020015f20819055505050565b5f60335f9054906101000a900473ffffffffffffffffffffffffffffffffffffffff16905090565b609a60149054906101000a900460ff1681565b5f805f60985f9054906101000a900473ffffffffffffffffffffffffffffffffffffffff1673ffffffffffffffffffffffffffffffffffffffff166353fd43326040518163ffffffff1660e01b8152600401602060405180830381865afa15801561217f573d5f803e3d5ffd5b505050506040513d601f19601f820116820180604052508101906121a39190616aa1565b90505f5b8181101561252f575f60985f9054906101000a900473ffffffffffffffffffffffffffffffffffffffff1673ffffffffffffffffffffffffffffffffffffffff16639932ba4c836040518263ffffffff1660e01b815260040161220a9190616048565b602060405180830381865afa158015612225573d5f803e3d5ffd5b505050506040513d601f19601f820116820180604052508101906122499190616a02565b90505f60985f9054906101000a900473ffffffffffffffffffffffffffffffffffffffff1673ffffffffffffffffffffffffffffffffffffffff1663ea8ecf04836040518263ffffffff1660e01b81526004016122a691906161b9565b602060405180830381865afa1580156122c1573d5f803e3d5ffd5b505050506040513d601f19601f820116820180604052508101906122e5919061778c565b90505f60985f9054906101000a900473ffffffffffffffffffffffffffffffffffffffff1673ffffffffffffffffffffffffffffffffffffffff166332599665846040518263ffffffff1660e01b815260040161234291906161b9565b602060405180830381865afa15801561235d573d5f803e3d5ffd5b505050506040513d601f19601f820116820180604052508101906123819190616fa6565b9050609c5f9054906101000a900467ffffffffffffffff1667ffffffffffffffff168267ffffffffffffffff160361251f575f60985f9054906101000a900473ffffffffffffffffffffffffffffffffffffffff1673ffffffffffffffffffffffffffffffffffffffff1663dd811ac985609c60089054906101000a900473ffffffffffffffffffffffffffffffffffffffff168773ffffffffffffffffffffffffffffffffffffffff166370a08231609a5f9054906101000a900473ffffffffffffffffffffffffffffffffffffffff166040518263ffffffff1660e01b815260040161246f91906161b9565b602060405180830381865afa15801561248a573d5f803e3d5ffd5b505050506040513d601f19601f820116820180604052508101906124ae9190616aa1565b866040518563ffffffff1660e01b81526004016124ce94939291906177c6565b602060405180830381865afa1580156124e9573d5f803e3d5ffd5b505050506040513d601f19601f8201168201806040525081019061250d9190616aa1565b9050808761251b9190616a5a565b9650505b50505080806001019150506121a7565b50819250505090565b60a7602052805f5260405f205f915090505481565b5f8060029054906101000a900473ffffffffffffffffffffffffffffffffffffffff16905090565b60a1602052815f5260405f20602052805f5260405f205f91509150505481565b61259d613657565b5f73ffffffffffffffffffffffffffffffffffffffff168173ffffffffffffffffffffffffffffffffffffffff160361260b576040517f08c379a000000000000000000000000000000000000000000000000000000000815260040161260290617879565b60405180910390fd5b8060655f6101000a81548173ffffffffffffffffffffffffffffffffffffffff021916908373ffffffffffffffffffffffffffffffffffffffff16021790555050565b5f6040518060a001604052808560405160200161266b91906161b9565b60405160208183030381529060405281526020018481526020015f67ffffffffffffffff81111561269f5761269e6165d3565b5b6040519080825280602002602001820160405280156126d857816020015b6126c5615f43565b8152602001906001900390816126bd5790505b5081526020016001808111156126f1576126f0617897565b5b84600181111561270457612703617897565b5b1461270f575f612732565b60995f9054906101000a900473ffffffffffffffffffffffffffffffffffffffff165b73ffffffffffffffffffffffffffffffffffffffff1681526020016127676040518060200160405280620dbba08152506146e8565b81525090505f8060029054906101000a900473ffffffffffffffffffffffffffffffffffffffff1673ffffffffffffffffffffffffffffffffffffffff166320487ded87846040518363ffffffff1660e01b81526004016127c9929190617a81565b602060405180830381865afa1580156127e4573d5f803e3d5ffd5b505050506040513d601f19601f820116820180604052508101906128089190616aa1565b90505f60018081111561281e5761281d617897565b5b84600181111561283157612830617897565b5b036128d9575f60029054906101000a900473ffffffffffffffffffffffffffffffffffffffff1673ffffffffffffffffffffffffffffffffffffffff166396f4e9f988856040518363ffffffff1660e01b8152600401612892929190617a81565b6020604051808303815f875af11580156128ae573d5f803e3d5ffd5b505050506040513d601f19601f820116820180604052508101906128d29190617ac3565b905061297a565b5f60029054906101000a900473ffffffffffffffffffffffffffffffffffffffff1673ffffffffffffffffffffffffffffffffffffffff166396f4e9f98389866040518463ffffffff1660e01b8152600401612936929190617a81565b60206040518083038185885af1158015612952573d5f803e3d5ffd5b50505050506040513d601f19601f820116820180604052508101906129779190617ac3565b90505b7f54791b38f3859327992a1ca0590ad3c0f08feba98d1a4f56ab0dca74d203392a816040516129a99190617afd565b60405180910390a150505050505050565b60985f9054906101000a900473ffffffffffffffffffffffffffffffffffffffff1681565b60a0602052805f5260405f205f915090505481565b5f670de0b6b3a7640000612a06611669565b83612a119190617448565b612a1b91906172c5565b9050919050565b612a2a613657565b8060985f6101000a81548173ffffffffffffffffffffffffffffffffffffffff021916908373ffffffffffffffffffffffffffffffffffffffff16021790555050565b60655f9054906101000a900473ffffffffffffffffffffffffffffffffffffffff1681565b612a9a613657565b5f609d5490505f609e5f8381526020019081526020015f205490505f60985f9054906101000a900473ffffffffffffffffffffffffffffffffffffffff1673ffffffffffffffffffffffffffffffffffffffff16638e9d7c186040518163ffffffff1660e01b8152600401602060405180830381865afa158015612b20573d5f803e3d5ffd5b505050506040513d601f19601f82011682018060405250810190612b449190616aa1565b90505f60985f9054906101000a900473ffffffffffffffffffffffffffffffffffffffff1673ffffffffffffffffffffffffffffffffffffffff1663f15817876040518163ffffffff1660e01b8152600401602060405180830381865afa158015612bb1573d5f803e3d5ffd5b505050506040513d601f19601f82011682018060405250810190612bd59190616aa1565b90505f5b82811015612fdd575f60985f9054906101000a900473ffffffffffffffffffffffffffffffffffffffff1673ffffffffffffffffffffffffffffffffffffffff1663536e3f6a846040518263ffffffff1660e01b8152600401612c3c9190616048565b5f60405180830381865afa158015612c56573d5f803e3d5ffd5b505050506040513d5f823e3d601f19601f82011682018060405250810190612c7e9190617b16565b93505050505f818381518110612c9757612c96616ecc565b5b602002602001015190505f60985f9054906101000a900473ffffffffffffffffffffffffffffffffffffffff1673ffffffffffffffffffffffffffffffffffffffff1663b6ad185b836040518263ffffffff1660e01b8152600401612cfc9190616249565b602060405180830381865afa158015612d17573d5f803e3d5ffd5b505050506040513d601f19601f82011682018060405250810190612d3b9190616aa1565b90505f60985f9054906101000a900473ffffffffffffffffffffffffffffffffffffffff1673ffffffffffffffffffffffffffffffffffffffff1663fc698b4a846040518263ffffffff1660e01b8152600401612d989190616249565b602060405180830381865afa158015612db3573d5f803e3d5ffd5b505050506040513d601f19601f82011682018060405250810190612dd79190616aa1565b90505f60985f9054906101000a900473ffffffffffffffffffffffffffffffffffffffff1673ffffffffffffffffffffffffffffffffffffffff16632a3ff8ad88866040518363ffffffff1660e01b8152600401612e36929190617421565b602060405180830381865afa158015612e51573d5f803e3d5ffd5b505050506040513d601f19601f82011682018060405250810190612e759190616aa1565b90505f60a25f8c81526020019081526020015f205f8667ffffffffffffffff1667ffffffffffffffff1681526020019081526020015f205490505f60985f9054906101000a900473ffffffffffffffffffffffffffffffffffffffff1673ffffffffffffffffffffffffffffffffffffffff1663bf0d49c0876040518263ffffffff1660e01b8152600401612f0a9190616249565b5f60405180830381865afa158015612f24573d5f803e3d5ffd5b505050506040513d5f823e3d601f19601f82011682018060405250810190612f4c9190616fd1565b9050828b68056bc75e2d6310000084612f659190617448565b612f6f91906172c5565b1015612fc957609c5f9054906101000a900467ffffffffffffffff1667ffffffffffffffff168667ffffffffffffffff1603612fb957612fb4888d8d89898989614767565b612fc8565b612fc78c8c88868686614f41565b5b5b505050505050508080600101915050612bd9565b5050505050565b5f60985f9054906101000a900473ffffffffffffffffffffffffffffffffffffffff1673ffffffffffffffffffffffffffffffffffffffff1663dd811ac9868686866040518563ffffffff1660e01b815260040161304594939291906177c6565b602060405180830381865afa158015613060573d5f803e3d5ffd5b505050506040513d601f19601f820116820180604052508101906130849190616aa1565b9050949350505050565b609a5f9054906101000a900473ffffffffffffffffffffffffffffffffffffffff1681565b5f8060019054906101000a900460ff161590508080156130e2575060015f8054906101000a900460ff1660ff16105b8061310e57506130f130615462565b15801561310d575060015f8054906101000a900460ff1660ff16145b5b61314d576040517f08c379a000000000000000000000000000000000000000000000000000000000815260040161314490617c5a565b60405180910390fd5b60015f806101000a81548160ff021916908360ff16021790555080156131885760015f60016101000a81548160ff0219169083151502179055505b61319183615484565b613199615585565b86609c5f6101000a81548167ffffffffffffffff021916908367ffffffffffffffff16021790555085609a5f6101000a81548173ffffffffffffffffffffffffffffffffffffffff021916908373ffffffffffffffffffffffffffffffffffffffff1602179055508460985f6101000a81548173ffffffffffffffffffffffffffffffffffffffff021916908373ffffffffffffffffffffffffffffffffffffffff1602179055508360995f6101000a81548173ffffffffffffffffffffffffffffffffffffffff021916908373ffffffffffffffffffffffffffffffffffffffff1602179055506005609960146101000a81548161ffff021916908361ffff1602179055508373ffffffffffffffffffffffffffffffffffffffff1663095ea7b35f60029054906101000a900473ffffffffffffffffffffffffffffffffffffffff167fffffffffffffffffffffffffffffffffffffffffffffffffffffffffffffffff6040518363ffffffff1660e01b815260040161331b929190617c78565b6020604051808303815f875af1158015613337573d5f803e3d5ffd5b505050506040513d601f19601f8201168201806040525081019061335b9190617cc9565b5081609c60086101000a81548173ffffffffffffffffffffffffffffffffffffffff021916908373ffffffffffffffffffffffffffffffffffffffff160217905550600a609a60146101000a81548160ff021916908360ff16021790555042609b819055508015613418575f8060016101000a81548160ff0219169083151502179055507f7f26b83ff96e1f2b6a682f133852f6798a09c465da95921460cefb3847402498600160405161340f9190617d2d565b60405180910390a15b50505050505050565b5f60985f9054906101000a900473ffffffffffffffffffffffffffffffffffffffff1673ffffffffffffffffffffffffffffffffffffffff1663ee7bd3e2868686866040518563ffffffff1660e01b81526004016134829493929190617d55565b602060405180830381865afa15801561349d573d5f803e3d5ffd5b505050506040513d601f19601f820116820180604052508101906134c19190616aa1565b9050949350505050565b60a3602052805f5260405f205f915090505481565b5f73ffffffffffffffffffffffffffffffffffffffff168173ffffffffffffffffffffffffffffffffffffffff160361354e576040517f08c379a000000000000000000000000000000000000000000000000000000000815260040161354590617879565b60405180910390fd5b60655f9054906101000a900473ffffffffffffffffffffffffffffffffffffffff1673ffffffffffffffffffffffffffffffffffffffff168173ffffffffffffffffffffffffffffffffffffffff16146135dd576040517f08c379a00000000000000000000000000000000000000000000000000000000081526004016135d490617e08565b60405180910390fd5b3373ffffffffffffffffffffffffffffffffffffffff168173ffffffffffffffffffffffffffffffffffffffff161461364b576040517f08c379a000000000000000000000000000000000000000000000000000000000815260040161364290617e96565b60405180910390fd5b613654816142ad565b50565b61365f6155dd565b73ffffffffffffffffffffffffffffffffffffffff1661367d6120d7565b73ffffffffffffffffffffffffffffffffffffffff16146136d3576040517f08c379a00000000000000000000000000000000000000000000000000000000081526004016136ca90617efe565b60405180910390fd5b565b6136dd615f71565b60a25f8881526020019081526020015f205f8667ffffffffffffffff1667ffffffffffffffff1681526020019081526020015f20548160600181815250505f609c60089054906101000a900473ffffffffffffffffffffffffffffffffffffffff1673ffffffffffffffffffffffffffffffffffffffff166370a08231609a5f9054906101000a900473ffffffffffffffffffffffffffffffffffffffff166040518263ffffffff1660e01b815260040161379891906161b9565b602060405180830381865afa1580156137b3573d5f803e3d5ffd5b505050506040513d601f19601f820116820180604052508101906137d79190616aa1565b90505f5b85811015613b645760985f9054906101000a900473ffffffffffffffffffffffffffffffffffffffff1673ffffffffffffffffffffffffffffffffffffffff16639932ba4c826040518263ffffffff1660e01b815260040161383d9190616048565b602060405180830381865afa158015613858573d5f803e3d5ffd5b505050506040513d601f19601f8201168201806040525081019061387c9190616a02565b835f019073ffffffffffffffffffffffffffffffffffffffff16908173ffffffffffffffffffffffffffffffffffffffff168152505060985f9054906101000a900473ffffffffffffffffffffffffffffffffffffffff1673ffffffffffffffffffffffffffffffffffffffff166332599665845f01516040518263ffffffff1660e01b815260040161390f91906161b9565b602060405180830381865afa15801561392a573d5f803e3d5ffd5b505050506040513d601f19601f8201168201806040525081019061394e9190616fa6565b836020019062ffffff16908162ffffff168152505060985f9054906101000a900473ffffffffffffffffffffffffffffffffffffffff1673ffffffffffffffffffffffffffffffffffffffff16634b3e0b80845f01516040518263ffffffff1660e01b81526004016139c091906161b9565b602060405180830381865afa1580156139db573d5f803e3d5ffd5b505050506040513d601f19601f820116820180604052508101906139ff9190616aa1565b8360400181815250505f609c60089054906101000a900473ffffffffffffffffffffffffffffffffffffffff1673ffffffffffffffffffffffffffffffffffffffff16845f015173ffffffffffffffffffffffffffffffffffffffff1603613a6957829050613b3d565b613b3a845f0151609c60089054906101000a900473ffffffffffffffffffffffffffffffffffffffff16865f015173ffffffffffffffffffffffffffffffffffffffff166370a08231609a5f9054906101000a900473ffffffffffffffffffffffffffffffffffffffff166040518263ffffffff1660e01b8152600401613af091906161b9565b602060405180830381865afa158015613b0b573d5f803e3d5ffd5b505050506040513d601f19601f82011682018060405250810190613b2f9190616aa1565b308860200151611ebb565b90505b8084608001818151613b4f9190616a5a565b915081815250505080806001019150506137db565b505f8768056bc75e2d631000008460600151613b809190617448565b613b8a91906172c5565b90505f81858560800151613b9e9190617448565b613ba891906172c5565b90505f818560800151613bbb9190617265565b90505f5b87811015613e68575f60985f9054906101000a900473ffffffffffffffffffffffffffffffffffffffff1673ffffffffffffffffffffffffffffffffffffffff1663239aad0d836040518263ffffffff1660e01b8152600401613c229190616048565b602060405180830381865afa158015613c3d573d5f803e3d5ffd5b505050506040513d601f19601f82011682018060405250810190613c619190616a02565b90505f60985f9054906101000a900473ffffffffffffffffffffffffffffffffffffffff1673ffffffffffffffffffffffffffffffffffffffff166332599665836040518263ffffffff1660e01b8152600401613cbe91906161b9565b602060405180830381865afa158015613cd9573d5f803e3d5ffd5b505050506040513d601f19601f82011682018060405250810190613cfd9190616fa6565b90505f60985f9054906101000a900473ffffffffffffffffffffffffffffffffffffffff1673ffffffffffffffffffffffffffffffffffffffff16634b3e0b80846040518263ffffffff1660e01b8152600401613d5a91906161b9565b602060405180830381865afa158015613d75573d5f803e3d5ffd5b505050506040513d601f19601f82011682018060405250810190613d999190616aa1565b90505f609c60089054906101000a900473ffffffffffffffffffffffffffffffffffffffff1673ffffffffffffffffffffffffffffffffffffffff168473ffffffffffffffffffffffffffffffffffffffff1603613e0f578a8288613dfe9190617448565b613e0891906172c5565b9050613e57565b613e54609c60089054906101000a900473ffffffffffffffffffffffffffffffffffffffff16858d858b613e439190617448565b613e4d91906172c5565b3087611ebb565b90505b505050508080600101915050613bbf565b5080609f5f8d81526020019081526020015f205f828254613e899190616a5a565b925050819055508583613e9c9190617265565b60a55f8d81526020019081526020015f205f828254613ebb9190616a5a565b92505081905550505050505050505050505050565b5f8568056bc75e2d6310000084613ee79190617448565b613ef191906172c5565b90508381613eff9190617265565b60a55f8981526020019081526020015f205f828254613f1e9190616a5a565b925050819055505f613f2f866115c8565b90505f60985f9054906101000a900473ffffffffffffffffffffffffffffffffffffffff1673ffffffffffffffffffffffffffffffffffffffff1663d1c68aa3886040518263ffffffff1660e01b8152600401613f8c9190616249565b5f60405180830381865afa158015613fa6573d5f803e3d5ffd5b505050506040513d5f823e3d601f19601f82011682018060405250810190613fce9190616ef9565b90505f60985f9054906101000a900473ffffffffffffffffffffffffffffffffffffffff1673ffffffffffffffffffffffffffffffffffffffff1663d050ca7c896040518263ffffffff1660e01b815260040161402b9190616249565b5f60405180830381865afa158015614045573d5f803e3d5ffd5b505050506040513d5f823e3d601f19601f8201168201806040525081019061406d9190616ef9565b90505f60985f9054906101000a900473ffffffffffffffffffffffffffffffffffffffff1673ffffffffffffffffffffffffffffffffffffffff1663221f33718a6040518263ffffffff1660e01b81526004016140ca9190616249565b5f60405180830381865afa1580156140e4573d5f803e3d5ffd5b505050506040513d5f823e3d601f19601f8201168201806040525081019061410c9190616fd1565b90505f60985f9054906101000a900473ffffffffffffffffffffffffffffffffffffffff1673ffffffffffffffffffffffffffffffffffffffff1663a1adff888b6040518263ffffffff1660e01b81526004016141699190616249565b5f60405180830381865afa158015614183573d5f803e3d5ffd5b505050506040513d5f823e3d601f19601f820116820180604052508101906141ab9190616fd1565b90505f600267ffffffffffffffff8111156141c9576141c86165d3565b5b6040519080825280602002602001820160405280156141f75781602001602082028036833780820191505090505b5090508b815f8151811061420e5761420d616ecc565b5b602002602001018181525050898160018151811061422f5761422e616ecc565b5b60200260200101818152505088816002815181106142505761424f616ecc565b5b6020026020010181815250505f600386868686609d548e8860405160200161427f989796959493929190617f55565b604051602081830303815290604052905061429d8c8883600161264e565b5050505050505050505050505050565b5f60335f9054906101000a900473ffffffffffffffffffffffffffffffffffffffff1690508160335f6101000a81548173ffffffffffffffffffffffffffffffffffffffff021916908373ffffffffffffffffffffffffffffffffffffffff1602179055508173ffffffffffffffffffffffffffffffffffffffff168173ffffffffffffffffffffffffffffffffffffffff167f8be0079c531659141344cd1fd0a4f28419497f9722a3daafe3b4186f6b6457e060405160405180910390a35050565b5f808662ffffff1611156143935761438c8887878787876155e4565b90506143a3565b6143a0878686868661578e565b90505b979650505050505050565b5f815f015190505f826020015190505f83604001518060200190518101906143d6919061800f565b90505f805f805f8089606001518060200190518101906143f6919061803a565b9550955095509550955095505f8603156146dc5760018603156146db576002860361459c575f5b82518110156145965782818151811061443957614438616ecc565b5b6020026020010151609e5f8681526020019081526020015f205f8282546144609190616a5a565b9250508190555082818151811061447a57614479616ecc565b5b602002602001015160a15f8681526020019081526020015f205f8884815181106144a7576144a6616ecc565b5b602002602001015173ffffffffffffffffffffffffffffffffffffffff1673ffffffffffffffffffffffffffffffffffffffff1681526020019081526020015f205f8282546144f69190616a5a565b925050819055508281815181106145105761450f616ecc565b5b602002602001015160a25f8681526020019081526020015f205f8b67ffffffffffffffff1667ffffffffffffffff1681526020019081526020015f205f82825461455a9190616a5a565b92505081905550600160a05f8681526020019081526020015f205f8282546145829190616a5a565b92505081905550808060010191505061441d565b506146da565b60038603614653575f8a6080015190505f815f815181106145c0576145bf616ecc565b5b60200260200101515f015190505f825f815181106145e1576145e0616ecc565b5b60200260200101516020015190505f61462183609c60089054906101000a900473ffffffffffffffffffffffffffffffffffffffff168430610bb8611ebb565b905080609f5f8981526020019081526020015f205f8282546146439190616a5a565b92505081905550505050506146d9565b600486036146d85760985f9054906101000a900473ffffffffffffffffffffffffffffffffffffffff1673ffffffffffffffffffffffffffffffffffffffff16638baa6bf16040518163ffffffff1660e01b81526004015f604051808303815f87803b1580156146c1575f80fd5b505af11580156146d3573d5f803e3d5ffd5b505050505b5b5b5b5b50505050505050505050565b60606397a657c960e01b82604051602401614703919061814d565b604051602081830303815290604052907bffffffffffffffffffffffffffffffffffffffffffffffffffffffff19166020820180517bffffffffffffffffffffffffffffffffffffffffffffffffffffffff83818316178352505050509050919050565b61476f615fb6565b60985f9054906101000a900473ffffffffffffffffffffffffffffffffffffffff1673ffffffffffffffffffffffffffffffffffffffff16639932ba4c896040518263ffffffff1660e01b81526004016147c99190616048565b602060405180830381865afa1580156147e4573d5f803e3d5ffd5b505050506040513d601f19601f820116820180604052508101906148089190616a02565b815f019073ffffffffffffffffffffffffffffffffffffffff16908173ffffffffffffffffffffffffffffffffffffffff168152505060985f9054906101000a900473ffffffffffffffffffffffffffffffffffffffff1673ffffffffffffffffffffffffffffffffffffffff166332599665825f01516040518263ffffffff1660e01b815260040161489b91906161b9565b602060405180830381865afa1580156148b6573d5f803e3d5ffd5b505050506040513d601f19601f820116820180604052508101906148da9190616fa6565b816020019062ffffff16908162ffffff168152505060985f9054906101000a900473ffffffffffffffffffffffffffffffffffffffff1673ffffffffffffffffffffffffffffffffffffffff16634b3e0b80825f01516040518263ffffffff1660e01b815260040161494c91906161b9565b602060405180830381865afa158015614967573d5f803e3d5ffd5b505050506040513d601f19601f8201168201806040525081019061498b9190616aa1565b81604001818152505060a25f8881526020019081526020015f205f8667ffffffffffffffff1667ffffffffffffffff1681526020019081526020015f20548160600181815250505f815f015173ffffffffffffffffffffffffffffffffffffffff166370a08231609a5f9054906101000a900473ffffffffffffffffffffffffffffffffffffffff166040518263ffffffff1660e01b8152600401614a3091906161b9565b602060405180830381865afa158015614a4b573d5f803e3d5ffd5b505050506040513d601f19601f82011682018060405250810190614a6f9190616aa1565b90505f5b85811015614be757609c60089054906101000a900473ffffffffffffffffffffffffffffffffffffffff1673ffffffffffffffffffffffffffffffffffffffff16835f015173ffffffffffffffffffffffffffffffffffffffff1603614ae257818360a0018181525050614bbd565b614bb3835f0151609c60089054906101000a900473ffffffffffffffffffffffffffffffffffffffff16855f015173ffffffffffffffffffffffffffffffffffffffff166370a08231609a5f9054906101000a900473ffffffffffffffffffffffffffffffffffffffff166040518263ffffffff1660e01b8152600401614b6991906161b9565b602060405180830381865afa158015614b84573d5f803e3d5ffd5b505050506040513d601f19601f82011682018060405250810190614ba89190616aa1565b308760200151611ebb565b8360a00181815250505b8260a0015183608001818151614bd39190616a5a565b915081815250508080600101915050614a73565b505f8768056bc75e2d631000008460600151614c039190617448565b614c0d91906172c5565b90505f8185614c1c9190617265565b90505f60a55f8c81526020019081526020015f205482609f5f8e81526020019081526020015f2054614c4e9190617448565b614c5891906172c5565b90508085608001818151614c6c9190616a5a565b915081815250505f5b87811015614f32575f60985f9054906101000a900473ffffffffffffffffffffffffffffffffffffffff1673ffffffffffffffffffffffffffffffffffffffff16639932ba4c836040518263ffffffff1660e01b8152600401614cd89190616048565b602060405180830381865afa158015614cf3573d5f803e3d5ffd5b505050506040513d601f19601f82011682018060405250810190614d179190616a02565b90505f60985f9054906101000a900473ffffffffffffffffffffffffffffffffffffffff1673ffffffffffffffffffffffffffffffffffffffff166332599665836040518263ffffffff1660e01b8152600401614d7491906161b9565b602060405180830381865afa158015614d8f573d5f803e3d5ffd5b505050506040513d601f19601f82011682018060405250810190614db39190616fa6565b90505f60985f9054906101000a900473ffffffffffffffffffffffffffffffffffffffff1673ffffffffffffffffffffffffffffffffffffffff16634b3e0b80846040518263ffffffff1660e01b8152600401614e1091906161b9565b602060405180830381865afa158015614e2b573d5f803e3d5ffd5b505050506040513d601f19601f82011682018060405250810190614e4f9190616aa1565b9050609c60089054906101000a900473ffffffffffffffffffffffffffffffffffffffff1673ffffffffffffffffffffffffffffffffffffffff168373ffffffffffffffffffffffffffffffffffffffff1603614ecf5789818a60800151614eb79190617448565b614ec191906172c5565b8960a0018181525050614f22565b614f18609c60089054906101000a900473ffffffffffffffffffffffffffffffffffffffff16848c848d60800151614f079190617448565b614f1191906172c5565b3086611ebb565b8960a00181815250505b5050508080600101915050614c75565b50505050505050505050505050565b614f49616001565b5f8668056bc75e2d6310000085614f609190617448565b614f6a91906172c5565b90505f8186614f799190617265565b90505f60a55f8b81526020019081526020015f205482609f5f8d81526020019081526020015f2054614fab9190617448565b614fb591906172c5565b90505f614fc1896115c8565b90505f614ffc609c60089054906101000a900473ffffffffffffffffffffffffffffffffffffffff16614ff38c610b56565b85306003611ebb565b905060985f9054906101000a900473ffffffffffffffffffffffffffffffffffffffff1673ffffffffffffffffffffffffffffffffffffffff1663d1c68aa38b6040518263ffffffff1660e01b81526004016150589190616249565b5f60405180830381865afa158015615072573d5f803e3d5ffd5b505050506040513d5f823e3d601f19601f8201168201806040525081019061509a9190616ef9565b865f018190525060985f9054906101000a900473ffffffffffffffffffffffffffffffffffffffff1673ffffffffffffffffffffffffffffffffffffffff1663d050ca7c8b6040518263ffffffff1660e01b81526004016150fb9190616249565b5f60405180830381865afa158015615115573d5f803e3d5ffd5b505050506040513d5f823e3d601f19601f8201168201806040525081019061513d9190616ef9565b866020018190525060985f9054906101000a900473ffffffffffffffffffffffffffffffffffffffff1673ffffffffffffffffffffffffffffffffffffffff1663221f33718b6040518263ffffffff1660e01b815260040161519f9190616249565b5f60405180830381865afa1580156151b9573d5f803e3d5ffd5b505050506040513d5f823e3d601f19601f820116820180604052508101906151e19190616fd1565b866040018190525060985f9054906101000a900473ffffffffffffffffffffffffffffffffffffffff1673ffffffffffffffffffffffffffffffffffffffff1663a1adff888b6040518263ffffffff1660e01b81526004016152439190616249565b5f60405180830381865afa15801561525d573d5f803e3d5ffd5b505050506040513d5f823e3d601f19601f820116820180604052508101906152859190616fd1565b8660600181905250600267ffffffffffffffff8111156152a8576152a76165d3565b5b6040519080825280602002602001820160405280156152d65781602001602082028036833780820191505090505b5086608001819052508a86608001515f815181106152f7576152f6616ecc565b5b60200260200101818152505088866080015160018151811061531c5761531b616ecc565b5b6020026020010181815250505f600167ffffffffffffffff811115615344576153436165d3565b5b60405190808252806020026020018201604052801561537d57816020015b61536a615f43565b8152602001906001900390816153625790505b5090506153898b610b56565b815f8151811061539c5761539b616ecc565b5b60200260200101515f019073ffffffffffffffffffffffffffffffffffffffff16908173ffffffffffffffffffffffffffffffffffffffff168152505081815f815181106153ed576153ec616ecc565b5b602002602001015160200181815250505f6004885f015189602001518a604001518b60600151609d548e8e6080015160405160200161543398979695949392919061819f565b60405160208183030381529060405290506154528c8286856001615a0c565b5050505050505050505050505050565b5f808273ffffffffffffffffffffffffffffffffffffffff163b119050919050565b5f60019054906101000a900460ff166154d2576040517f08c379a00000000000000000000000000000000000000000000000000000000081526004016154c9906182b5565b60405180910390fd5b5f73ffffffffffffffffffffffffffffffffffffffff168173ffffffffffffffffffffffffffffffffffffffff1603615542575f6040517fd7f7333400000000000000000000000000000000000000000000000000000000815260040161553991906161b9565b60405180910390fd5b805f60026101000a81548173ffffffffffffffffffffffffffffffffffffffff021916908373ffffffffffffffffffffffffffffffffffffffff16021790555050565b5f60019054906101000a900460ff166155d3576040517f08c379a00000000000000000000000000000000000000000000000000000000081526004016155ca906182b5565b60405180910390fd5b6155db615ee3565b565b5f33905090565b5f8473ffffffffffffffffffffffffffffffffffffffff1663095ea7b388856040518363ffffffff1660e01b8152600401615620929190617c78565b6020604051808303815f875af115801561563c573d5f803e3d5ffd5b505050506040513d601f19601f820116820180604052508101906156609190617cc9565b505f6040518061010001604052808773ffffffffffffffffffffffffffffffffffffffff1681526020018673ffffffffffffffffffffffffffffffffffffffff1681526020018862ffffff1681526020018473ffffffffffffffffffffffffffffffffffffffff16815260200161012c426156db9190616a5a565b81526020018581526020015f81526020015f73ffffffffffffffffffffffffffffffffffffffff1681525090508773ffffffffffffffffffffffffffffffffffffffff1663414bf389826040518263ffffffff1660e01b81526004016157419190618391565b6020604051808303815f875af115801561575d573d5f803e3d5ffd5b505050506040513d601f19601f820116820180604052508101906157819190616aa1565b9150509695505050505050565b5f80600267ffffffffffffffff8111156157ab576157aa6165d3565b5b6040519080825280602002602001820160405280156157d95781602001602082028036833780820191505090505b50905085815f815181106157f0576157ef616ecc565b5b602002602001019073ffffffffffffffffffffffffffffffffffffffff16908173ffffffffffffffffffffffffffffffffffffffff1681525050848160018151811061583f5761583e616ecc565b5b602002602001019073ffffffffffffffffffffffffffffffffffffffff16908173ffffffffffffffffffffffffffffffffffffffff16815250505f8773ffffffffffffffffffffffffffffffffffffffff1663d06ca61f86846040518363ffffffff1660e01b81526004016158b59291906183ab565b5f60405180830381865afa1580156158cf573d5f803e3d5ffd5b505050506040513d5f823e3d601f19601f820116820180604052508101906158f79190616fd1565b90508673ffffffffffffffffffffffffffffffffffffffff1663095ea7b389876040518363ffffffff1660e01b8152600401615934929190617c78565b6020604051808303815f875af1158015615950573d5f803e3d5ffd5b505050506040513d601f19601f820116820180604052508101906159749190617cc9565b508773ffffffffffffffffffffffffffffffffffffffff16635c11d795865f8588426040518663ffffffff1660e01b81526004016159b6959493929190618412565b5f604051808303815f87803b1580156159cd575f80fd5b505af11580156159df573d5f803e3d5ffd5b50505050806001815181106159f7576159f6616ecc565b5b60200260200101519250505095945050505050565b5f82519050609960149054906101000a900461ffff1661ffff16811115615a68576040517f08c379a0000000000000000000000000000000000000000000000000000000008152600401615a5f906184da565b60405180910390fd5b5f5b81811015615bc75760995f9054906101000a900473ffffffffffffffffffffffffffffffffffffffff1673ffffffffffffffffffffffffffffffffffffffff16848281518110615abd57615abc616ecc565b5b60200260200101515f015173ffffffffffffffffffffffffffffffffffffffff1614615bbc57838181518110615af657615af5616ecc565b5b60200260200101515f015173ffffffffffffffffffffffffffffffffffffffff1663095ea7b35f60029054906101000a900473ffffffffffffffffffffffffffffffffffffffff16868481518110615b5157615b50616ecc565b5b6020026020010151602001516040518363ffffffff1660e01b8152600401615b7a929190617c78565b6020604051808303815f875af1158015615b96573d5f803e3d5ffd5b505050506040513d601f19601f82011682018060405250810190615bba9190617cc9565b505b806001019050615a6a565b505f6040518060a0016040528086604051602001615be591906161b9565b6040516020818303038152906040528152602001878152602001858152602001600180811115615c1857615c17617897565b5b856001811115615c2b57615c2a617897565b5b14615c36575f615c59565b60995f9054906101000a900473ffffffffffffffffffffffffffffffffffffffff165b73ffffffffffffffffffffffffffffffffffffffff168152602001615c8e6040518060200160405280620dbba08152506146e8565b81525090505f8060029054906101000a900473ffffffffffffffffffffffffffffffffffffffff1673ffffffffffffffffffffffffffffffffffffffff166320487ded89846040518363ffffffff1660e01b8152600401615cf0929190617a81565b602060405180830381865afa158015615d0b573d5f803e3d5ffd5b505050506040513d601f19601f82011682018060405250810190615d2f9190616aa1565b90505f600180811115615d4557615d44617897565b5b856001811115615d5857615d57617897565b5b03615e00575f60029054906101000a900473ffffffffffffffffffffffffffffffffffffffff1673ffffffffffffffffffffffffffffffffffffffff166396f4e9f98a856040518363ffffffff1660e01b8152600401615db9929190617a81565b6020604051808303815f875af1158015615dd5573d5f803e3d5ffd5b505050506040513d601f19601f82011682018060405250810190615df99190617ac3565b9050615ea1565b5f60029054906101000a900473ffffffffffffffffffffffffffffffffffffffff1673ffffffffffffffffffffffffffffffffffffffff166396f4e9f9838b866040518463ffffffff1660e01b8152600401615e5d929190617a81565b60206040518083038185885af1158015615e79573d5f803e3d5ffd5b50505050506040513d601f19601f82011682018060405250810190615e9e9190617ac3565b90505b7f54791b38f3859327992a1ca0590ad3c0f08feba98d1a4f56ab0dca74d203392a81604051615ed09190617afd565b60405180910390a1505050505050505050565b5f60019054906101000a900460ff16615f31576040517f08c379a0000000000000000000000000000000000000000000000000000000008152600401615f28906182b5565b60405180910390fd5b615f41615f3c6155dd565b6142ad565b565b60405180604001604052805f73ffffffffffffffffffffffffffffffffffffffff1681526020015f81525090565b6040518060a001604052805f73ffffffffffffffffffffffffffffffffffffffff1681526020015f62ffffff1681526020015f81526020015f81526020015f81525090565b6040518060c001604052805f73ffffffffffffffffffffffffffffffffffffffff1681526020015f62ffffff1681526020015f81526020015f81526020015f81526020015f81525090565b6040518060a0016040528060608152602001606081526020016060815260200160608152602001606081525090565b5f819050919050565b61604281616030565b82525050565b5f60208201905061605b5f830184616039565b92915050565b5f604051905090565b5f80fd5b5f80fd5b5f7fffffffff0000000000000000000000000000000000000000000000000000000082169050919050565b6160a681616072565b81146160b0575f80fd5b50565b5f813590506160c18161609d565b92915050565b5f602082840312156160dc576160db61606a565b5b5f6160e9848285016160b3565b91505092915050565b5f8115159050919050565b616106816160f2565b82525050565b5f60208201905061611f5f8301846160fd565b92915050565b61612e81616030565b8114616138575f80fd5b50565b5f8135905061614981616125565b92915050565b5f602082840312156161645761616361606a565b5b5f6161718482850161613b565b91505092915050565b5f73ffffffffffffffffffffffffffffffffffffffff82169050919050565b5f6161a38261617a565b9050919050565b6161b381616199565b82525050565b5f6020820190506161cc5f8301846161aa565b92915050565b5f67ffffffffffffffff82169050919050565b6161ee816161d2565b81146161f8575f80fd5b50565b5f81359050616209816161e5565b92915050565b5f602082840312156162245761622361606a565b5b5f616231848285016161fb565b91505092915050565b616243816161d2565b82525050565b5f60208201905061625c5f83018461623a565b92915050565b5f819050919050565b5f61628561628061627b8461617a565b616262565b61617a565b9050919050565b5f6162968261626b565b9050919050565b5f6162a78261628c565b9050919050565b6162b78161629d565b82525050565b5f6020820190506162d05f8301846162ae565b92915050565b5f60ff82169050919050565b6162eb816162d6565b81146162f5575f80fd5b50565b5f81359050616306816162e2565b92915050565b5f602082840312156163215761632061606a565b5b5f61632e848285016162f8565b91505092915050565b5f61ffff82169050919050565b61634d81616337565b82525050565b5f6020820190506163665f830184616344565b92915050565b5f80604083850312156163825761638161606a565b5b5f61638f8582860161613b565b92505060206163a0858286016161fb565b9150509250929050565b6163b381616199565b81146163bd575f80fd5b50565b5f813590506163ce816163aa565b92915050565b5f62ffffff82169050919050565b6163eb816163d4565b81146163f5575f80fd5b50565b5f81359050616406816163e2565b92915050565b5f805f805f60a086880312156164255761642461606a565b5b5f616432888289016163c0565b9550506020616443888289016163c0565b94505060406164548882890161613b565b9350506060616465888289016163c0565b9250506080616476888289016163f8565b9150509295509295909350565b5f80fd5b5f60a0828403121561649c5761649b616483565b5b81905092915050565b5f602082840312156164ba576164b961606a565b5b5f82013567ffffffffffffffff8111156164d7576164d661606e565b5b6164e384828501616487565b91505092915050565b5f80604083850312156165025761650161606a565b5b5f61650f8582860161613b565b92505060206165208582860161613b565b9150509250929050565b616533816162d6565b82525050565b5f60208201905061654c5f83018461652a565b92915050565b5f80604083850312156165685761656761606a565b5b5f6165758582860161613b565b9250506020616586858286016163c0565b9150509250929050565b5f602082840312156165a5576165a461606a565b5b5f6165b2848285016163c0565b91505092915050565b5f80fd5b5f80fd5b5f601f19601f8301169050919050565b7f4e487b71000000000000000000000000000000000000000000000000000000005f52604160045260245ffd5b616609826165c3565b810181811067ffffffffffffffff82111715616628576166276165d3565b5b80604052505050565b5f61663a616061565b90506166468282616600565b919050565b5f67ffffffffffffffff821115616665576166646165d3565b5b61666e826165c3565b9050602081019050919050565b828183375f83830152505050565b5f61669b6166968461664b565b616631565b9050828152602081018484840111156166b7576166b66165bf565b5b6166c284828561667b565b509392505050565b5f82601f8301126166de576166dd6165bb565b5b81356166ee848260208601616689565b91505092915050565b60028110616703575f80fd5b50565b5f81359050616714816166f7565b92915050565b5f805f80608085870312156167325761673161606a565b5b5f61673f878288016161fb565b9450506020616750878288016163c0565b935050604085013567ffffffffffffffff8111156167715761677061606e565b5b61677d878288016166ca565b925050606061678e87828801616706565b91505092959194509250565b5f6167a48261628c565b9050919050565b6167b48161679a565b82525050565b5f6020820190506167cd5f8301846167ab565b92915050565b5f805f80608085870312156167eb576167ea61606a565b5b5f6167f8878288016163c0565b9450506020616809878288016163c0565b935050604061681a8782880161613b565b925050606061682b878288016163f8565b91505092959194509250565b5f6168418261626b565b9050919050565b5f61685282616837565b9050919050565b61686281616848565b82525050565b5f60208201905061687b5f830184616859565b92915050565b5f61688b8261617a565b9050919050565b61689b81616881565b81146168a5575f80fd5b50565b5f813590506168b681616892565b92915050565b5f805f805f8060c087890312156168d6576168d561606a565b5b5f6168e389828a016161fb565b96505060206168f489828a016168a8565b955050604061690589828a016163c0565b945050606061691689828a016163c0565b935050608061692789828a016163c0565b92505060a061693889828a016163c0565b9150509295509295509295565b5f6fffffffffffffffffffffffffffffffff82169050919050565b61696981616945565b8114616973575f80fd5b50565b5f8135905061698481616960565b92915050565b5f805f80608085870312156169a2576169a161606a565b5b5f6169af878288016163c0565b94505060206169c0878288016163c0565b93505060406169d187828801616976565b92505060606169e2878288016163f8565b91505092959194509250565b5f815190506169fc816163aa565b92915050565b5f60208284031215616a1757616a1661606a565b5b5f616a24848285016169ee565b91505092915050565b7f4e487b71000000000000000000000000000000000000000000000000000000005f52601160045260245ffd5b5f616a6482616030565b9150616a6f83616030565b9250828201905080821115616a8757616a86616a2d565b5b92915050565b5f81519050616a9b81616125565b92915050565b5f60208284031215616ab657616ab561606a565b5b5f616ac384828501616a8d565b91505092915050565b5f67ffffffffffffffff821115616ae657616ae56165d3565b5b602082029050602081019050919050565b5f80fd5b5f616b0d616b0884616acc565b616631565b90508083825260208201905060208402830185811115616b3057616b2f616af7565b5b835b81811015616b595780616b4588826169ee565b845260208401935050602081019050616b32565b5050509392505050565b5f82601f830112616b7757616b766165bb565b5b8151616b87848260208601616afb565b91505092915050565b5f67ffffffffffffffff821115616baa57616ba96165d3565b5b602082029050602081019050919050565b5f616bcd616bc884616b90565b616631565b90508083825260208201905060208402830185811115616bf057616bef616af7565b5b835b81811015616c195780616c058882616a8d565b845260208401935050602081019050616bf2565b5050509392505050565b5f82601f830112616c3757616c366165bb565b5b8151616c47848260208601616bbb565b91505092915050565b5f67ffffffffffffffff821115616c6a57616c696165d3565b5b602082029050602081019050919050565b5f81519050616c89816163e2565b92915050565b5f616ca1616c9c84616c50565b616631565b90508083825260208201905060208402830185811115616cc457616cc3616af7565b5b835b81811015616ced5780616cd98882616c7b565b845260208401935050602081019050616cc6565b5050509392505050565b5f82601f830112616d0b57616d0a6165bb565b5b8151616d1b848260208601616c8f565b91505092915050565b5f67ffffffffffffffff821115616d3e57616d3d6165d3565b5b602082029050602081019050919050565b5f81519050616d5d816161e5565b92915050565b5f616d75616d7084616d24565b616631565b90508083825260208201905060208402830185811115616d9857616d97616af7565b5b835b81811015616dc15780616dad8882616d4f565b845260208401935050602081019050616d9a565b5050509392505050565b5f82601f830112616ddf57616dde6165bb565b5b8151616def848260208601616d63565b91505092915050565b5f805f8060808587031215616e1057616e0f61606a565b5b5f85015167ffffffffffffffff811115616e2d57616e2c61606e565b5b616e3987828801616b63565b945050602085015167ffffffffffffffff811115616e5a57616e5961606e565b5b616e6687828801616c23565b935050604085015167ffffffffffffffff811115616e8757616e8661606e565b5b616e9387828801616cf7565b925050606085015167ffffffffffffffff811115616eb457616eb361606e565b5b616ec087828801616dcb565b91505092959194509250565b7f4e487b71000000000000000000000000000000000000000000000000000000005f52603260045260245ffd5b5f60208284031215616f0e57616f0d61606a565b5b5f82015167ffffffffffffffff811115616f2b57616f2a61606e565b5b616f3784828501616b63565b91505092915050565b5f616f4a82616199565b9050919050565b616f5a81616f40565b8114616f64575f80fd5b50565b5f81519050616f7581616f51565b92915050565b5f60208284031215616f9057616f8f61606a565b5b5f616f9d84828501616f67565b91505092915050565b5f60208284031215616fbb57616fba61606a565b5b5f616fc884828501616c7b565b91505092915050565b5f60208284031215616fe657616fe561606a565b5b5f82015167ffffffffffffffff8111156170035761700261606e565b5b61700f84828501616c23565b91505092915050565b5f819050919050565b5f61703b61703661703184617018565b616262565b6162d6565b9050919050565b61704b81617021565b82525050565b5f81519050919050565b5f82825260208201905092915050565b5f819050602082019050919050565b61708381616199565b82525050565b5f617094838361707a565b60208301905092915050565b5f602082019050919050565b5f6170b682617051565b6170c0818561705b565b93506170cb8361706b565b805f5b838110156170fb5781516170e28882617089565b97506170ed836170a0565b9250506001810190506170ce565b5085935050505092915050565b5f81519050919050565b5f82825260208201905092915050565b5f819050602082019050919050565b61713a81616030565b82525050565b5f61714b8383617131565b60208301905092915050565b5f602082019050919050565b5f61716d82617108565b6171778185617112565b935061718283617122565b805f5b838110156171b25781516171998882617140565b97506171a483617157565b925050600181019050617185565b5085935050505092915050565b5f610100820190506171d35f83018b617042565b81810360208301526171e5818a6170ac565b905081810360408301526171f981896170ac565b9050818103606083015261720d8188617163565b905081810360808301526172218187617163565b905061723060a0830186616039565b81810360c08301526172428185617163565b905081810360e08301526172568184617163565b90509998505050505050505050565b5f61726f82616030565b915061727a83616030565b925082820390508181111561729257617291616a2d565b5b92915050565b7f4e487b71000000000000000000000000000000000000000000000000000000005f52601260045260245ffd5b5f6172cf82616030565b91506172da83616030565b9250826172ea576172e9617298565b5b828204905092915050565b5f82825260208201905092915050565b7f596f752073686f756c642077616974206174206c6561737420313220686f75725f8201527f7320616674657220746865206c61746573742075706461746500000000000000602082015250565b5f61735f6039836172f5565b915061736a82617305565b604082019050919050565b5f6020820190508181035f83015261738c81617353565b9050919050565b7f546865206e65774665652073686f756c64206265206265747765656e203120615f8201527f6e64203130302028302e303125202d2031252900000000000000000000000000602082015250565b5f6173ed6033836172f5565b91506173f882617393565b604082019050919050565b5f6020820190508181035f83015261741a816173e1565b9050919050565b5f6040820190506174345f830185616039565b617441602083018461623a565b9392505050565b5f61745282616030565b915061745d83616030565b925082820261746b81616030565b9150828204841483151761748257617481616a2d565b5b5092915050565b5f61749382616199565b9050919050565b6174a381617489565b81146174ad575f80fd5b50565b5f815190506174be8161749a565b92915050565b5f602082840312156174d9576174d861606a565b5b5f6174e6848285016174b0565b91505092915050565b5f6174f982616199565b9050919050565b617509816174ef565b8114617513575f80fd5b50565b5f8151905061752481617500565b92915050565b5f6020828403121561753f5761753e61606a565b5b5f61754c84828501617516565b91505092915050565b5f80fd5b5f80fd5b5f819050919050565b61756f8161755d565b8114617579575f80fd5b50565b5f8135905061758a81617566565b92915050565b5f67ffffffffffffffff8211156175aa576175a96165d3565b5b602082029050602081019050919050565b5f604082840312156175d0576175cf617555565b5b6175da6040616631565b90505f6175e9848285016163c0565b5f8301525060206175fc8482850161613b565b60208301525092915050565b5f61761a61761584617590565b616631565b9050808382526020820190506040840283018581111561763d5761763c616af7565b5b835b81811015617666578061765288826175bb565b84526020840193505060408101905061763f565b5050509392505050565b5f82601f830112617684576176836165bb565b5b8135617694848260208601617608565b91505092915050565b5f60a082840312156176b2576176b1617555565b5b6176bc60a0616631565b90505f6176cb8482850161757c565b5f8301525060206176de848285016161fb565b602083015250604082013567ffffffffffffffff81111561770257617701617559565b5b61770e848285016166ca565b604083015250606082013567ffffffffffffffff81111561773257617731617559565b5b61773e848285016166ca565b606083015250608082013567ffffffffffffffff81111561776257617761617559565b5b61776e84828501617670565b60808301525092915050565b5f617785368361769d565b9050919050565b5f602082840312156177a1576177a061606a565b5b5f6177ae84828501616d4f565b91505092915050565b6177c0816163d4565b82525050565b5f6080820190506177d95f8301876161aa565b6177e660208301866161aa565b6177f36040830185616039565b61780060608301846177b7565b95945050505050565b7f50726f706f7361626c654f776e61626c653a206e6577206f776e6572206973205f8201527f746865207a65726f206164647265737300000000000000000000000000000000602082015250565b5f6178636030836172f5565b915061786e82617809565b604082019050919050565b5f6020820190508181035f83015261789081617857565b9050919050565b7f4e487b71000000000000000000000000000000000000000000000000000000005f52602160045260245ffd5b5f81519050919050565b5f82825260208201905092915050565b8281835e5f83830152505050565b5f6178f6826178c4565b61790081856178ce565b93506179108185602086016178de565b617919816165c3565b840191505092915050565b5f81519050919050565b5f82825260208201905092915050565b5f819050602082019050919050565b604082015f8201516179615f85018261707a565b5060208201516179746020850182617131565b50505050565b5f617985838361794d565b60408301905092915050565b5f602082019050919050565b5f6179a782617924565b6179b1818561792e565b93506179bc8361793e565b805f5b838110156179ec5781516179d3888261797a565b97506179de83617991565b9250506001810190506179bf565b5085935050505092915050565b5f60a083015f8301518482035f860152617a1382826178ec565b91505060208301518482036020860152617a2d82826178ec565b91505060408301518482036040860152617a47828261799d565b9150506060830151617a5c606086018261707a565b5060808301518482036080860152617a7482826178ec565b9150508091505092915050565b5f604082019050617a945f83018561623a565b8181036020830152617aa681846179f9565b90509392505050565b5f81519050617abd81617566565b92915050565b5f60208284031215617ad857617ad761606a565b5b5f617ae584828501617aaf565b91505092915050565b617af78161755d565b82525050565b5f602082019050617b105f830184617aee565b92915050565b5f805f8060808587031215617b2e57617b2d61606a565b5b5f85015167ffffffffffffffff811115617b4b57617b4a61606e565b5b617b5787828801616b63565b945050602085015167ffffffffffffffff811115617b7857617b7761606e565b5b617b8487828801616c23565b935050604085015167ffffffffffffffff811115617ba557617ba461606e565b5b617bb187828801616c23565b925050606085015167ffffffffffffffff811115617bd257617bd161606e565b5b617bde87828801616dcb565b91505092959194509250565b7f496e697469616c697a61626c653a20636f6e747261637420697320616c7265615f8201527f647920696e697469616c697a6564000000000000000000000000000000000000602082015250565b5f617c44602e836172f5565b9150617c4f82617bea565b604082019050919050565b5f6020820190508181035f830152617c7181617c38565b9050919050565b5f604082019050617c8b5f8301856161aa565b617c986020830184616039565b9392505050565b617ca8816160f2565b8114617cb2575f80fd5b50565b5f81519050617cc381617c9f565b92915050565b5f60208284031215617cde57617cdd61606a565b5b5f617ceb84828501617cb5565b91505092915050565b5f819050919050565b5f617d17617d12617d0d84617cf4565b616262565b6162d6565b9050919050565b617d2781617cfd565b82525050565b5f602082019050617d405f830184617d1e565b92915050565b617d4f81616945565b82525050565b5f608082019050617d685f8301876161aa565b617d7560208301866161aa565b617d826040830185617d46565b617d8f60608301846177b7565b95945050505050565b7f50726f706f7361626c654f776e61626c653a206e6577206f776e6572206973205f8201527f6e6f742070726f706f736564206f776e65720000000000000000000000000000602082015250565b5f617df26032836172f5565b9150617dfd82617d98565b604082019050919050565b5f6020820190508181035f830152617e1f81617de6565b9050919050565b7f50726f706f7361626c654f776e61626c653a20746869732063616c6c206d75735f8201527f74206265206d61646520627920746865206e6577206f776e6572000000000000602082015250565b5f617e80603a836172f5565b9150617e8b82617e26565b604082019050919050565b5f6020820190508181035f830152617ead81617e74565b9050919050565b7f4f776e61626c653a2063616c6c6572206973206e6f7420746865206f776e65725f82015250565b5f617ee86020836172f5565b9150617ef382617eb4565b602082019050919050565b5f6020820190508181035f830152617f1581617edc565b9050919050565b5f819050919050565b5f617f3f617f3a617f3584617f1c565b616262565b6162d6565b9050919050565b617f4f81617f25565b82525050565b5f61010082019050617f695f83018b617f46565b8181036020830152617f7b818a6170ac565b90508181036040830152617f8f81896170ac565b90508181036060830152617fa38188617163565b90508181036080830152617fb78187617163565b9050617fc660a0830186616039565b81810360c0830152617fd88185617163565b905081810360e0830152617fec8184617163565b90509998505050505050505050565b5f8151905061800981616892565b92915050565b5f602082840312156180245761802361606a565b5b5f61803184828501617ffb565b91505092915050565b5f805f805f8060c087890312156180545761805361606a565b5b5f61806189828a01616a8d565b965050602087015167ffffffffffffffff8111156180825761808161606e565b5b61808e89828a01616b63565b955050604087015167ffffffffffffffff8111156180af576180ae61606e565b5b6180bb89828a01616b63565b94505060606180cc89828a01616a8d565b935050608087015167ffffffffffffffff8111156180ed576180ec61606e565b5b6180f989828a01616c23565b92505060a087015167ffffffffffffffff81111561811a5761811961606e565b5b61812689828a01616c23565b9150509295509295509295565b602082015f8201516181475f850182617131565b50505050565b5f6020820190506181605f830184618133565b92915050565b5f819050919050565b5f61818961818461817f84618166565b616262565b6162d6565b9050919050565b6181998161816f565b82525050565b5f610100820190506181b35f83018b618190565b81810360208301526181c5818a6170ac565b905081810360408301526181d981896170ac565b905081810360608301526181ed8188617163565b905081810360808301526182018187617163565b905061821060a0830186616039565b81810360c08301526182228185617163565b905081810360e08301526182368184617163565b90509998505050505050505050565b7f496e697469616c697a61626c653a20636f6e7472616374206973206e6f7420695f8201527f6e697469616c697a696e67000000000000000000000000000000000000000000602082015250565b5f61829f602b836172f5565b91506182aa82618245565b604082019050919050565b5f6020820190508181035f8301526182cc81618293565b9050919050565b6182dc816163d4565b82525050565b6182eb8161617a565b82525050565b61010082015f8201516183065f85018261707a565b506020820151618319602085018261707a565b50604082015161832c60408501826182d3565b50606082015161833f606085018261707a565b5060808201516183526080850182617131565b5060a082015161836560a0850182617131565b5060c082015161837860c0850182617131565b5060e082015161838b60e08501826182e2565b50505050565b5f610100820190506183a55f8301846182f1565b92915050565b5f6040820190506183be5f830185616039565b81810360208301526183d081846170ac565b90509392505050565b5f819050919050565b5f6183fc6183f76183f2846183d9565b616262565b616030565b9050919050565b61840c816183e2565b82525050565b5f60a0820190506184255f830188616039565b6184326020830187618403565b818103604083015261844481866170ac565b905061845360608301856161aa565b6184606080830184616039565b9695505050505050565b7f4d6178696d756d203520646966666572656e7420746f6b656e732063616e20625f8201527f652073656e74207065722043434950204d657373616765000000000000000000602082015250565b5f6184c46037836172f5565b91506184cf8261846a565b604082019050919050565b5f6020820190508181035f8301526184f1816184b8565b905091905056fea26469706673582212207466eee35dbd4a79b3da4bf1ffcbcd9b7d4f29346bb58b566e4c3ebdc06cbde764736f6c634300081a0033","linkReferences":{}},"methodIdentifiers":{"askValues()":"2700cc86","ccipReceive((bytes32,uint64,bytes,bytes,(address,uint256)[]))":"85572ffb","chainValueByNonce(uint256,uint64)":"69abf538","convertEthToUsd(uint256)":"c086381e","crossChainFactoryBySelector(uint64)":"340fbc74","crossChainToken(uint64)":"19da7e2a","currentChainSelector()":"3d54cb6f","estimateAmountOut(address,address,uint128,uint24)":"ee7bd3e2","extraWethByNonce(uint256)":"756c1fd1","factoryStorage()":"c06e1ae2","feeRate()":"978bbdb9","firstReweightAction()":"63713a8b","getAmountOut(address,address,uint256,uint24)":"dd811ac9","getPortfolioBalance()":"a8509fd8","getRouter()":"b0f479a1","i_link()":"7d253aff","i_maxTokensLength()":"5b6a0351","indexToken()":"e7d015f2","initialize(uint64,address,address,address,address,address)":"edba0e31","latestFeeUpdate()":"011ced5f","owner()":"8da5cb5b","portfolioTotalValueByNonce(uint256)":"7d3546f7","priceInWei()":"3c8da588","proposeOwner(address)":"b5ed298a","proposedOwner()":"d153b60c","redemptionNonceOutputToken(uint256)":"0603fb05","redemptionNonceOutputTokenSwapFee(uint256)":"afcaa952","renounceOwnership()":"715018a6","reweightExtraPercentage(uint256)":"814ffd71","reweightTokensCount(uint256)":"78324463","reweightWethValueByNonce(uint256)":"f1639b09","secondReweightAction()":"d79e8d65","sendMessage(uint64,address,bytes,uint8)":"bcab90b3","setFeeRate(uint8)":"5177942a","setIndexFactoryStorage(address)":"cc8659ae","setPortfolioTotalValueByNonce(uint256,uint256)":"8d7307d4","supportsInterface(bytes4)":"01ffc9a7","swap(address,address,uint256,address,uint24)":"7e79f512","tokenValueByNonce(uint256,address)":"b316e7fd","transferOwnership(address)":"f2fde38b","updatePortfolioNonce()":"003cf402","updatedTokensValueCount(uint256)":"c070a097","weth()":"3fc8cef3"},"id":4}