{"abi":[{"type":"receive","stateMutability":"payable"},{"type":"function","name":"askValues","inputs":[],"outputs":[],"stateMutability":"nonpayable"},{"type":"function","name":"ccipReceive","inputs":[{"name":"message","type":"tuple","internalType":"struct Client.Any2EVMMessage","components":[{"name":"messageId","type":"bytes32","internalType":"bytes32"},{"name":"sourceChainSelector","type":"uint64","internalType":"uint64"},{"name":"sender","type":"bytes","internalType":"bytes"},{"name":"data","type":"bytes","internalType":"bytes"},{"name":"destTokenAmounts","type":"tuple[]","internalType":"struct Client.EVMTokenAmount[]","components":[{"name":"token","type":"address","internalType":"address"},{"name":"amount","type":"uint256","internalType":"uint256"}]}]}],"outputs":[],"stateMutability":"nonpayable"},{"type":"function","name":"chainValueByNonce","inputs":[{"name":"","type":"uint256","internalType":"uint256"},{"name":"","type":"uint64","internalType":"uint64"}],"outputs":[{"name":"","type":"uint256","internalType":"uint256"}],"stateMutability":"view"},{"type":"function","name":"convertEthToUsd","inputs":[{"name":"_ethAmount","type":"uint256","internalType":"uint256"}],"outputs":[{"name":"","type":"uint256","internalType":"uint256"}],"stateMutability":"view"},{"type":"function","name":"crossChainFactoryBySelector","inputs":[{"name":"_chainSelector","type":"uint64","internalType":"uint64"}],"outputs":[{"name":"","type":"address","internalType":"address"}],"stateMutability":"view"},{"type":"function","name":"crossChainToken","inputs":[{"name":"_chainSelector","type":"uint64","internalType":"uint64"}],"outputs":[{"name":"","type":"address","internalType":"address"}],"stateMutability":"view"},{"type":"function","name":"currentChainSelector","inputs":[],"outputs":[{"name":"","type":"uint64","internalType":"uint64"}],"stateMutability":"view"},{"type":"function","name":"estimateAmountOut","inputs":[{"name":"tokenIn","type":"address","internalType":"address"},{"name":"tokenOut","type":"address","internalType":"address"},{"name":"amountIn","type":"uint128","internalType":"uint128"}],"outputs":[{"name":"amountOut","type":"uint256","internalType":"uint256"}],"stateMutability":"view"},{"type":"function","name":"extraWethByNonce","inputs":[{"name":"","type":"uint256","internalType":"uint256"}],"outputs":[{"name":"","type":"uint256","internalType":"uint256"}],"stateMutability":"view"},{"type":"function","name":"feeRate","inputs":[],"outputs":[{"name":"","type":"uint8","internalType":"uint8"}],"stateMutability":"view"},{"type":"function","name":"firstReweightAction","inputs":[],"outputs":[],"stateMutability":"nonpayable"},{"type":"function","name":"getAmountOut","inputs":[{"name":"tokenIn","type":"address","internalType":"address"},{"name":"tokenOut","type":"address","internalType":"address"},{"name":"amountIn","type":"uint256","internalType":"uint256"},{"name":"_swapFee","type":"uint24","internalType":"uint24"}],"outputs":[{"name":"finalAmountOut","type":"uint256","internalType":"uint256"}],"stateMutability":"view"},{"type":"function","name":"getPortfolioBalance","inputs":[],"outputs":[{"name":"","type":"uint256","internalType":"uint256"}],"stateMutability":"view"},{"type":"function","name":"getRouter","inputs":[],"outputs":[{"name":"","type":"address","internalType":"address"}],"stateMutability":"view"},{"type":"function","name":"i_link","inputs":[],"outputs":[{"name":"","type":"address","internalType":"address"}],"stateMutability":"view"},{"type":"function","name":"i_maxTokensLength","inputs":[],"outputs":[{"name":"","type":"uint16","internalType":"uint16"}],"stateMutability":"view"},{"type":"function","name":"indexFactoryStorage","inputs":[],"outputs":[{"name":"","type":"address","internalType":"contract IndexFactoryStorage"}],"stateMutability":"view"},{"type":"function","name":"indexToken","inputs":[],"outputs":[{"name":"","type":"address","internalType":"contract IndexToken"}],"stateMutability":"view"},{"type":"function","name":"initialize","inputs":[{"name":"_currentChainSelector","type":"uint64","internalType":"uint64"},{"name":"_token","type":"address","internalType":"address payable"},{"name":"_indexFactoryStorage","type":"address","internalType":"address"},{"name":"_chainlinkToken","type":"address","internalType":"address"},{"name":"_router","type":"address","internalType":"address"},{"name":"_weth","type":"address","internalType":"address"}],"outputs":[],"stateMutability":"nonpayable"},{"type":"function","name":"latestFeeUpdate","inputs":[],"outputs":[{"name":"","type":"uint256","internalType":"uint256"}],"stateMutability":"view"},{"type":"function","name":"owner","inputs":[],"outputs":[{"name":"","type":"address","internalType":"address"}],"stateMutability":"view"},{"type":"function","name":"portfolioTotalValueByNonce","inputs":[{"name":"","type":"uint256","internalType":"uint256"}],"outputs":[{"name":"","type":"uint256","internalType":"uint256"}],"stateMutability":"view"},{"type":"function","name":"priceInWei","inputs":[],"outputs":[{"name":"","type":"uint256","internalType":"uint256"}],"stateMutability":"view"},{"type":"function","name":"proposeOwner","inputs":[{"name":"_proposedOwner","type":"address","internalType":"address"}],"outputs":[],"stateMutability":"nonpayable"},{"type":"function","name":"proposedOwner","inputs":[],"outputs":[{"name":"","type":"address","internalType":"address"}],"stateMutability":"view"},{"type":"function","name":"redemptionNonceOutputToken","inputs":[{"name":"","type":"uint256","internalType":"uint256"}],"outputs":[{"name":"","type":"address","internalType":"address"}],"stateMutability":"view"},{"type":"function","name":"redemptionNonceOutputTokenSwapFee","inputs":[{"name":"","type":"uint256","internalType":"uint256"}],"outputs":[{"name":"","type":"uint256","internalType":"uint256"}],"stateMutability":"view"},{"type":"function","name":"renounceOwnership","inputs":[],"outputs":[],"stateMutability":"nonpayable"},{"type":"function","name":"reweightExtraPercentage","inputs":[{"name":"","type":"uint256","internalType":"uint256"}],"outputs":[{"name":"","type":"uint256","internalType":"uint256"}],"stateMutability":"view"},{"type":"function","name":"reweightTokensCount","inputs":[{"name":"","type":"uint256","internalType":"uint256"}],"outputs":[{"name":"","type":"uint256","internalType":"uint256"}],"stateMutability":"view"},{"type":"function","name":"reweightWethValueByNonce","inputs":[{"name":"","type":"uint256","internalType":"uint256"}],"outputs":[{"name":"","type":"uint256","internalType":"uint256"}],"stateMutability":"view"},{"type":"function","name":"secondReweightAction","inputs":[],"outputs":[],"stateMutability":"nonpayable"},{"type":"function","name":"sendMessage","inputs":[{"name":"destinationChainSelector","type":"uint64","internalType":"uint64"},{"name":"receiver","type":"address","internalType":"address"},{"name":"_data","type":"bytes","internalType":"bytes"},{"name":"payFeesIn","type":"uint8","internalType":"enum IndexFactoryBalancer.PayFeesIn"}],"outputs":[],"stateMutability":"nonpayable"},{"type":"function","name":"setFeeRate","inputs":[{"name":"_newFee","type":"uint8","internalType":"uint8"}],"outputs":[],"stateMutability":"nonpayable"},{"type":"function","name":"setIndexFactoryStorage","inputs":[{"name":"_indexFactoryStorage","type":"address","internalType":"address"}],"outputs":[],"stateMutability":"nonpayable"},{"type":"function","name":"supportsInterface","inputs":[{"name":"interfaceId","type":"bytes4","internalType":"bytes4"}],"outputs":[{"name":"","type":"bool","internalType":"bool"}],"stateMutability":"pure"},{"type":"function","name":"swap","inputs":[{"name":"tokenIn","type":"address","internalType":"address"},{"name":"tokenOut","type":"address","internalType":"address"},{"name":"amountIn","type":"uint256","internalType":"uint256"},{"name":"_recipient","type":"address","internalType":"address"},{"name":"_swapFee","type":"uint24","internalType":"uint24"}],"outputs":[{"name":"","type":"uint256","internalType":"uint256"}],"stateMutability":"nonpayable"},{"type":"function","name":"tokenValueByNonce","inputs":[{"name":"","type":"uint256","internalType":"uint256"},{"name":"","type":"address","internalType":"address"}],"outputs":[{"name":"","type":"uint256","internalType":"uint256"}],"stateMutability":"view"},{"type":"function","name":"transferOwnership","inputs":[{"name":"newOwner","type":"address","internalType":"address"}],"outputs":[],"stateMutability":"nonpayable"},{"type":"function","name":"updatePortfolioNonce","inputs":[],"outputs":[{"name":"","type":"uint256","internalType":"uint256"}],"stateMutability":"view"},{"type":"function","name":"updatedTokensValueCount","inputs":[{"name":"","type":"uint256","internalType":"uint256"}],"outputs":[{"name":"","type":"uint256","internalType":"uint256"}],"stateMutability":"view"},{"type":"function","name":"weth","inputs":[],"outputs":[{"name":"","type":"address","internalType":"contract IWETH"}],"stateMutability":"view"},{"type":"event","name":"Initialized","inputs":[{"name":"version","type":"uint8","indexed":false,"internalType":"uint8"}],"anonymous":false},{"type":"event","name":"MessageSent","inputs":[{"name":"messageId","type":"bytes32","indexed":false,"internalType":"bytes32"}],"anonymous":false},{"type":"event","name":"OwnershipTransferred","inputs":[{"name":"previousOwner","type":"address","indexed":true,"internalType":"address"},{"name":"newOwner","type":"address","indexed":true,"internalType":"address"}],"anonymous":false},{"type":"error","name":"InvalidRouter","inputs":[{"name":"router","type":"address","internalType":"address"}]}],"bytecode":{"object":"0x608060405234801561001057600080fd5b5061572c80620000216000396000f3fe6080604052600436106102545760003560e01c8063814ffd7111610139578063c070a097116100b6578063d79e8d651161007a578063d79e8d65146107af578063dd811ac9146107c4578063e7d015f2146107e4578063edba0e3114610804578063f1639b0914610824578063f2fde38b1461085157600080fd5b8063c070a09714610702578063c086381e1461072f578063cc8659ae1461074f578063d153b60c1461076f578063d1f7a9911461078f57600080fd5b8063afcaa952116100fd578063afcaa95214610639578063b0f479a114610666578063b316e7fd1461068a578063b5ed298a146106c2578063bcab90b3146106e257600080fd5b8063814ffd711461058657806385572ffb146105b35780638da5cb5b146105d3578063978bbdb9146105f1578063a8509fd81461062457600080fd5b80633fc8cef3116101d2578063715018a611610196578063715018a6146104aa578063756c1fd1146104bf57806378324463146104ec5780637d253aff146105195780637d3546f7146105395780637e79f5121461056657600080fd5b80633fc8cef3146103e15780635177942a146104085780635b6a03511461042857806363713a8b1461045d57806369abf5381461047257600080fd5b806319da7e2a1161021957806319da7e2a1461033d5780632700cc861461035d578063340fbc74146103745780633c8da588146103945780633d54cb6f146103a957600080fd5b80623cf40214610260578063011ced5f1461028957806301ffc9a71461029f5780630456f9c8146102cf5780630603fb05146102ef57600080fd5b3661025b57005b600080fd5b34801561026c57600080fd5b50610276609d5481565b6040519081526020015b60405180910390f35b34801561029557600080fd5b50610276609b5481565b3480156102ab57600080fd5b506102bf6102ba366004614e67565b610871565b6040519015158152602001610280565b3480156102db57600080fd5b506102766102ea366004614b0f565b6108a8565b3480156102fb57600080fd5b5061032561030a366004614ee8565b60a6602052600090815260409020546001600160a01b031681565b6040516001600160a01b039091168152602001610280565b34801561034957600080fd5b50610325610358366004615014565b610944565b34801561036957600080fd5b506103726109ca565b005b34801561038057600080fd5b5061032561038f366004615014565b61115d565b3480156103a057600080fd5b50610276611197565b3480156103b557600080fd5b50609c546103c9906001600160401b031681565b6040516001600160401b039091168152602001610280565b3480156103ed57600080fd5b50609c5461032590600160401b90046001600160a01b031681565b34801561041457600080fd5b5061037261042336600461513d565b611219565b34801561043457600080fd5b5060995461044a90600160a01b900461ffff1681565b60405161ffff9091168152602001610280565b34801561046957600080fd5b50610372611368565b34801561047e57600080fd5b5061027661048d366004614fef565b60a260209081526000928352604080842090915290825290205481565b3480156104b657600080fd5b5061037261188f565b3480156104cb57600080fd5b506102766104da366004614ee8565b609f6020526000908152604090205481565b3480156104f857600080fd5b50610276610507366004614ee8565b60a46020526000908152604090205481565b34801561052557600080fd5b50609954610325906001600160a01b031681565b34801561054557600080fd5b50610276610554366004614ee8565b609e6020526000908152604090205481565b34801561057257600080fd5b50610276610581366004614b66565b6118a3565b34801561059257600080fd5b506102766105a1366004614ee8565b60a56020526000908152604090205481565b3480156105bf57600080fd5b506103726105ce366004614e91565b6119c4565b3480156105df57600080fd5b506033546001600160a01b0316610325565b3480156105fd57600080fd5b50609a5461061290600160a01b900460ff1681565b60405160ff9091168152602001610280565b34801561063057600080fd5b50610276611a0b565b34801561064557600080fd5b50610276610654366004614ee8565b60a76020526000908152604090205481565b34801561067257600080fd5b506000546201000090046001600160a01b0316610325565b34801561069657600080fd5b506102766106a5366004614f01565b60a160209081526000928352604080842090915290825290205481565b3480156106ce57600080fd5b506103726106dd366004614ace565b611d79565b3480156106ee57600080fd5b506103726106fd3660046150d0565b611dc9565b34801561070e57600080fd5b5061027661071d366004614ee8565b60a06020526000908152604090205481565b34801561073b57600080fd5b5061027661074a366004614ee8565b6120a1565b34801561075b57600080fd5b5061037261076a366004614ace565b6120c8565b34801561077b57600080fd5b50606554610325906001600160a01b031681565b34801561079b57600080fd5b50609854610325906001600160a01b031681565b3480156107bb57600080fd5b506103726120f2565b3480156107d057600080fd5b506102766107df366004614bce565b61258e565b3480156107f057600080fd5b50609a54610325906001600160a01b031681565b34801561081057600080fd5b5061037261081f36600461504e565b612615565b34801561083057600080fd5b5061027661083f366004614ee8565b60a36020526000908152604090205481565b34801561085d57600080fd5b5061037261086c366004614ace565b61285e565b60006001600160e01b031982166385572ffb60e01b14806108a257506001600160e01b031982166301ffc9a760e01b145b92915050565b609854604051628adf3960e31b81526001600160a01b03858116600483015284811660248301526001600160801b03841660448301526000921690630456f9c89060640160206040518083038186803b15801561090457600080fd5b505afa158015610918573d6000803e3d6000fd5b505050506040513d601f19601f8201168201806040525081019061093c9190614e4e565b949350505050565b609854604051630ced3f1560e11b81526001600160401b03831660048201526000916001600160a01b0316906319da7e2a906024015b60206040518083038186803b15801561099257600080fd5b505afa1580156109a6573d6000803e3d6000fd5b505050506040513d601f19601f820116820180604052508101906108a29190614af2565b6109d2612983565b6001609d60008282546109e5919061552c565b909155505060985460408051631a521ec760e21b815290516000926001600160a01b0316916369487b1c916004808301926020929190829003018186803b158015610a2f57600080fd5b505afa158015610a43573d6000803e3d6000fd5b505050506040513d601f19601f82011682018060405250810190610a679190614e4e565b90506000609860009054906101000a90046001600160a01b03166001600160a01b031663b90b8a2a6040518163ffffffff1660e01b815260040160206040518083038186803b158015610ab957600080fd5b505afa158015610acd573d6000803e3d6000fd5b505050506040513d601f19601f82011682018060405250810190610af19190614e4e565b905060005b82811015611158576098546040516369fbf93360e11b8152600481018490526000916001600160a01b03169063d3f7f2669060240160006040518083038186803b158015610b4357600080fd5b505afa158015610b57573d6000803e3d6000fd5b505050506040513d6000823e601f3d908101601f19168201604052610b7f9190810190614c55565b93505050506000818381518110610b9857610b9861568f565b602090810291909101015160985460405163b6ad185b60e01b81526001600160401b03831660048201529192506000916001600160a01b039091169063b6ad185b9060240160206040518083038186803b158015610bf557600080fd5b505afa158015610c09573d6000803e3d6000fd5b505050506040513d601f19601f82011682018060405250810190610c2d9190614e4e565b609c549091506001600160401b0383811691161415610fbe5760985460405163d1c68aa360e01b81526001600160401b03841660048201526000916001600160a01b03169063d1c68aa39060240160006040518083038186803b158015610c9357600080fd5b505afa158015610ca7573d6000803e3d6000fd5b505050506040513d6000823e601f3d908101601f19168201604052610ccf9190810190614c21565b905060005b82811015610fb7576000828281518110610cf057610cf061568f565b6020908102919091010151609854604051633259966560e01b81526001600160a01b0380841660048301529293506000929091169063325996659060240160206040518083038186803b158015610d4657600080fd5b505afa158015610d5a573d6000803e3d6000fd5b505050506040513d601f19601f82011682018060405250810190610d7e9190614ecb565b609c549091506000906001600160a01b03848116600160401b909204161415610e2557609a546040516370a0823160e01b81526001600160a01b039182166004820152908416906370a082319060240160206040518083038186803b158015610de657600080fd5b505afa158015610dfa573d6000803e3d6000fd5b505050506040513d601f19601f82011682018060405250810190610e1e9190614e4e565b9050610ebf565b609c54609a546040516370a0823160e01b81526001600160a01b039182166004820152610ebc928692600160401b909104811691908316906370a082319060240160206040518083038186803b158015610e7e57600080fd5b505afa158015610e92573d6000803e3d6000fd5b505050506040513d601f19601f82011682018060405250810190610eb69190614e4e565b8561258e565b90505b610ec8816120a1565b609d546000908152609e602052604081208054909190610ee990849061552c565b90915550610ef89050816120a1565b609d54600090815260a1602090815260408083206001600160a01b038816845290915281208054909190610f2d90849061552c565b9091555050609d54600090815260a060205260408120805460019290610f5490849061552c565b90915550610f639050816120a1565b609d54600090815260a260209081526040808320609c546001600160401b0316845290915281208054909190610f9a90849061552c565b925050819055505050508080610faf90615648565b915050610cd4565b5050611142565b6000610fc98361115d565b60985460405163d1c68aa360e01b81526001600160401b03861660048201529192506000916001600160a01b039091169063d1c68aa39060240160006040518083038186803b15801561101b57600080fd5b505afa15801561102f573d6000803e3d6000fd5b505050506040513d6000823e601f3d908101601f191682016040526110579190810190614c21565b60985460405163221f337160e01b81526001600160401b03871660048201529192506000916001600160a01b039091169063221f33719060240160006040518083038186803b1580156110a957600080fd5b505afa1580156110bd573d6000803e3d6000fd5b505050506040513d6000823e601f3d908101601f191682016040526110e59190810190614df8565b60408051600080825260208201818152828401909352609d54939450909261111d906002908790869088908790818060608601615285565b604051602081830303815290604052905061113b8887836001611dc9565b5050505050505b505050808061115090615648565b915050610af6565b505050565b609854604051630d03ef1d60e21b81526001600160401b03831660048201526000916001600160a01b03169063340fbc749060240161097a565b60985460408051630791b4b160e31b815290516000926001600160a01b031691633c8da588916004808301926020929190829003018186803b1580156111dc57600080fd5b505afa1580156111f0573d6000803e3d6000fd5b505050506040513d601f19601f820116820180604052508101906112149190614e4e565b905090565b611221612983565b6000609b54426112319190615585565b9050600c603c6112418184615544565b61124b9190615544565b116112c35760405162461bcd60e51b815260206004820152603960248201527f596f752073686f756c642077616974206174206c6561737420313220686f757260448201527f7320616674657220746865206c6174657374207570646174650000000000000060648201526084015b60405180910390fd5b60648260ff16111580156112db575060018260ff1610155b6113435760405162461bcd60e51b815260206004820152603360248201527f546865206e65774665652073686f756c64206265206265747765656e203120616044820152726e64203130302028302e303125202d2031252960681b60648201526084016112ba565b50609a805460ff909216600160a01b0260ff60a01b1990921691909117905542609b55565b611370612983565b609d546000818152609e60209081526040808320546098548251631a521ec760e21b815292519194936001600160a01b03909116926369487b1c9260048083019392829003018186803b1580156113c657600080fd5b505afa1580156113da573d6000803e3d6000fd5b505050506040513d601f19601f820116820180604052508101906113fe9190614e4e565b90506000609860009054906101000a90046001600160a01b03166001600160a01b031663b90b8a2a6040518163ffffffff1660e01b815260040160206040518083038186803b15801561145057600080fd5b505afa158015611464573d6000803e3d6000fd5b505050506040513d601f19601f820116820180604052508101906114889190614e4e565b90506000609860009054906101000a90046001600160a01b03166001600160a01b031663f15817876040518163ffffffff1660e01b815260040160206040518083038186803b1580156114da57600080fd5b505afa1580156114ee573d6000803e3d6000fd5b505050506040513d601f19601f820116820180604052508101906115129190614e4e565b905060005b83811015611887576098546040516369fbf93360e11b8152600481018590526000916001600160a01b03169063d3f7f2669060240160006040518083038186803b15801561156457600080fd5b505afa158015611578573d6000803e3d6000fd5b505050506040513d6000823e601f3d908101601f191682016040526115a09190810190614c55565b935050505060008183815181106115b9576115b961568f565b602090810291909101015160985460405163b6ad185b60e01b81526001600160401b03831660048201529192506000916001600160a01b039091169063b6ad185b9060240160206040518083038186803b15801561161657600080fd5b505afa15801561162a573d6000803e3d6000fd5b505050506040513d601f19601f8201168201806040525081019061164e9190614e4e565b609854604051637e34c5a560e11b81526001600160401b03851660048201529192506000916001600160a01b039091169063fc698b4a9060240160206040518083038186803b1580156116a057600080fd5b505afa1580156116b4573d6000803e3d6000fd5b505050506040513d601f19601f820116820180604052508101906116d89190614e4e565b609854604051632a3ff8ad60e01b8152600481018990526001600160401b03861660248201529192506000916001600160a01b0390911690632a3ff8ad9060440160206040518083038186803b15801561173157600080fd5b505afa158015611745573d6000803e3d6000fd5b505050506040513d601f19601f820116820180604052508101906117699190614e4e565b60008c815260a2602090815260408083206001600160401b03891680855292528083205460985491516302fc352760e61b815260048101939093529394506001600160a01b03169063bf0d49c09060240160006040518083038186803b1580156117d257600080fd5b505afa1580156117e6573d6000803e3d6000fd5b505050506040513d6000823e601f3d908101601f1916820160405261180e9190810190614df8565b9050828c6118258468056bc75e2d63100000615566565b61182f9190615544565b111561186d57609c546001600160401b038781169116141561185f5761185a888e8e898989896129dd565b61186d565b61186d8d8d88868686613044565b50505050505050808061187f90615648565b915050611517565b505050505050565b611897612983565b6118a160006133af565b565b60985460405163a9059cbb60e01b81526001600160a01b0391821660048201526024810185905260009187169063a9059cbb90604401602060405180830381600087803b1580156118f357600080fd5b505af1158015611907573d6000803e3d6000fd5b505050506040513d601f19601f8201168201806040525081019061192b9190614e2c565b50609854604051633f3cfa8960e11b81526000916001600160a01b031690637e79f51290611965908a908a908a908a908a90600401615221565b602060405180830381600087803b15801561197f57600080fd5b505af1158015611993573d6000803e3d6000fd5b505050506040513d601f19601f820116820180604052508101906119b79190614e4e565b9150505b95945050505050565b6000546201000090046001600160a01b031633146119f7576040516335fdcccd60e21b81523360048201526024016112ba565b611a08611a038261559c565b613401565b50565b6000806000609860009054906101000a90046001600160a01b03166001600160a01b03166353fd43326040518163ffffffff1660e01b815260040160206040518083038186803b158015611a5e57600080fd5b505afa158015611a72573d6000803e3d6000fd5b505050506040513d601f19601f82011682018060405250810190611a969190614e4e565b905060005b81811015611d715760985460405163264cae9360e21b8152600481018390526000916001600160a01b031690639932ba4c9060240160206040518083038186803b158015611ae857600080fd5b505afa158015611afc573d6000803e3d6000fd5b505050506040513d601f19601f82011682018060405250810190611b209190614af2565b609854604051633aa3b3c160e21b81526001600160a01b0380841660048301529293506000929091169063ea8ecf049060240160206040518083038186803b158015611b6b57600080fd5b505afa158015611b7f573d6000803e3d6000fd5b505050506040513d601f19601f82011682018060405250810190611ba39190615031565b609854604051633259966560e01b81526001600160a01b0385811660048301529293506000929091169063325996659060240160206040518083038186803b158015611bee57600080fd5b505afa158015611c02573d6000803e3d6000fd5b505050506040513d601f19601f82011682018060405250810190611c269190614ecb565b609c549091506001600160401b0383811691161415611d5b57609854609c54609a546040516370a0823160e01b81526001600160a01b03918216600482015260009382169263dd811ac9928892600160401b909204811691908316906370a082319060240160206040518083038186803b158015611ca357600080fd5b505afa158015611cb7573d6000803e3d6000fd5b505050506040513d601f19601f82011682018060405250810190611cdb9190614e4e565b866040518563ffffffff1660e01b8152600401611cfb9493929190615258565b60206040518083038186803b158015611d1357600080fd5b505afa158015611d27573d6000803e3d6000fd5b505050506040513d601f19601f82011682018060405250810190611d4b9190614e4e565b9050611d57818861552c565b9650505b5050508080611d6990615648565b915050611a9b565b509092915050565b611d81612983565b6001600160a01b038116611da75760405162461bcd60e51b81526004016112ba9061531b565b606580546001600160a01b0319166001600160a01b0392909216919091179055565b6040805160a0810182526001600160a01b03851660c0808301919091528251808303909101815260e08201835281526020808201859052825160008082529181018452909282019083611e3e565b6040805180820190915260008082526020820152815260200190600190039081611e175790505b5081526020016001846001811115611e5857611e58615679565b14611e64576000611e71565b6099546001600160a01b03165b6001600160a01b03168152602001611e996040518060200160405280620dbba0815250613702565b9052600080546040516320487ded60e01b81529293509091620100009091046001600160a01b0316906320487ded90611ed890899086906004016153b6565b60206040518083038186803b158015611ef057600080fd5b505afa158015611f04573d6000803e3d6000fd5b505050506040513d601f19601f82011682018060405250810190611f289190614e4e565b905060006001846001811115611f4057611f40615679565b1415611fd6576000546040516396f4e9f960e01b8152620100009091046001600160a01b0316906396f4e9f990611f7d908a9087906004016153b6565b602060405180830381600087803b158015611f9757600080fd5b505af1158015611fab573d6000803e3d6000fd5b505050506040513d601f19601f82011682018060405250810190611fcf9190614e4e565b9050612064565b6000546040516396f4e9f960e01b8152620100009091046001600160a01b0316906396f4e9f990849061200f908b9088906004016153b6565b6020604051808303818588803b15801561202857600080fd5b505af115801561203c573d6000803e3d6000fd5b50505050506040513d601f19601f820116820180604052508101906120619190614e4e565b90505b6040518181527f54791b38f3859327992a1ca0590ad3c0f08feba98d1a4f56ab0dca74d203392a906020015b60405180910390a150505050505050565b6000670de0b6b3a76400006120b4611197565b6120be9084615566565b6108a29190615544565b6120d0612983565b609880546001600160a01b0319166001600160a01b0392909216919091179055565b6120fa612983565b609d546000818152609e602090815260408083205460985482516311d3af8360e31b815292519194936001600160a01b0390911692638e9d7c189260048083019392829003018186803b15801561215057600080fd5b505afa158015612164573d6000803e3d6000fd5b505050506040513d601f19601f820116820180604052508101906121889190614e4e565b90506000609860009054906101000a90046001600160a01b03166001600160a01b031663f15817876040518163ffffffff1660e01b815260040160206040518083038186803b1580156121da57600080fd5b505afa1580156121ee573d6000803e3d6000fd5b505050506040513d601f19601f820116820180604052508101906122129190614e4e565b905060005b82811015612587576098546040516329b71fb560e11b8152600481018490526000916001600160a01b03169063536e3f6a9060240160006040518083038186803b15801561226457600080fd5b505afa158015612278573d6000803e3d6000fd5b505050506040513d6000823e601f3d908101601f191682016040526122a09190810190614d65565b935050505060008183815181106122b9576122b961568f565b602090810291909101015160985460405163b6ad185b60e01b81526001600160401b03831660048201529192506000916001600160a01b039091169063b6ad185b9060240160206040518083038186803b15801561231657600080fd5b505afa15801561232a573d6000803e3d6000fd5b505050506040513d601f19601f8201168201806040525081019061234e9190614e4e565b609854604051637e34c5a560e11b81526001600160401b03851660048201529192506000916001600160a01b039091169063fc698b4a9060240160206040518083038186803b1580156123a057600080fd5b505afa1580156123b4573d6000803e3d6000fd5b505050506040513d601f19601f820116820180604052508101906123d89190614e4e565b609854604051632a3ff8ad60e01b8152600481018990526001600160401b03861660248201529192506000916001600160a01b0390911690632a3ff8ad9060440160206040518083038186803b15801561243157600080fd5b505afa158015612445573d6000803e3d6000fd5b505050506040513d601f19601f820116820180604052508101906124699190614e4e565b60008b815260a2602090815260408083206001600160401b03891680855292528083205460985491516302fc352760e61b815260048101939093529394506001600160a01b03169063bf0d49c09060240160006040518083038186803b1580156124d257600080fd5b505afa1580156124e6573d6000803e3d6000fd5b505050506040513d6000823e601f3d908101601f1916820160405261250e9190810190614df8565b9050828b6125258468056bc75e2d63100000615566565b61252f9190615544565b101561256d57609c546001600160401b038781169116141561255f5761255a888d8d8989898961373f565b61256d565b61256d8c8c88868686613d8f565b50505050505050808061257f90615648565b915050612217565b5050505050565b60985460405163dd811ac960e01b81526000916001600160a01b03169063dd811ac9906125c5908890889088908890600401615258565b60206040518083038186803b1580156125dd57600080fd5b505afa1580156125f1573d6000803e3d6000fd5b505050506040513d601f19601f820116820180604052508101906119bb9190614e4e565b600054610100900460ff16158080156126355750600054600160ff909116105b8061264f5750303b15801561264f575060005460ff166001145b6126b25760405162461bcd60e51b815260206004820152602e60248201527f496e697469616c697a61626c653a20636f6e747261637420697320616c72656160448201526d191e481a5b9a5d1a585b1a5e995960921b60648201526084016112ba565b6000805460ff1916600117905580156126d5576000805461ff0019166101001790555b6126de836141f9565b6126e6614274565b609c805467ffffffffffffffff19166001600160401b038916179055609a80546001600160a01b03199081166001600160a01b038981169190911790925560988054909116878316179055609980548683166001600160b01b03199091168117600560a01b1790915560005460405163095ea7b360e01b815262010000909104909216600483015260001960248301529063095ea7b390604401602060405180830381600087803b15801561279a57600080fd5b505af11580156127ae573d6000803e3d6000fd5b505050506040513d601f19601f820116820180604052508101906127d29190614e2c565b50609c805468010000000000000000600160e01b031916600160401b6001600160a01b03851602179055609a805460ff60a01b1916600560a11b17905542609b558015612855576000805461ff0019169055604051600181527f7f26b83ff96e1f2b6a682f133852f6798a09c465da95921460cefb384740249890602001612090565b50505050505050565b6001600160a01b0381166128845760405162461bcd60e51b81526004016112ba9061531b565b6065546001600160a01b038281169116146128fc5760405162461bcd60e51b815260206004820152603260248201527f50726f706f7361626c654f776e61626c653a206e6577206f776e6572206973206044820152713737ba10383937b837b9b2b21037bbb732b960711b60648201526084016112ba565b6001600160a01b038116331461297a5760405162461bcd60e51b815260206004820152603a60248201527f50726f706f7361626c654f776e61626c653a20746869732063616c6c206d757360448201527f74206265206d61646520627920746865206e6577206f776e657200000000000060648201526084016112ba565b611a08816133af565b6033546001600160a01b031633146118a15760405162461bcd60e51b815260206004820181905260248201527f4f776e61626c653a2063616c6c6572206973206e6f7420746865206f776e657260448201526064016112ba565b612a1d6040518060a0016040528060006001600160a01b03168152602001600062ffffff1681526020016000815260200160008152602001600081525090565b600087815260a2602090815260408083206001600160401b0389168452909152808220546060840152609c54609a5491516370a0823160e01b81526001600160a01b039283166004820152600160401b909104909116906370a082319060240160206040518083038186803b158015612a9557600080fd5b505afa158015612aa9573d6000803e3d6000fd5b505050506040513d601f19601f82011682018060405250810190612acd9190614e4e565b905060005b85811015612d635760985460405163264cae9360e21b8152600481018390526001600160a01b0390911690639932ba4c9060240160206040518083038186803b158015612b1e57600080fd5b505afa158015612b32573d6000803e3d6000fd5b505050506040513d601f19601f82011682018060405250810190612b569190614af2565b6001600160a01b03908116808552609854604051633259966560e01b815260048101929092529091169063325996659060240160206040518083038186803b158015612ba157600080fd5b505afa158015612bb5573d6000803e3d6000fd5b505050506040513d601f19601f82011682018060405250810190612bd99190614ecb565b62ffffff166020840152609854835160405162967c1760e71b81526001600160a01b039182166004820152911690634b3e0b809060240160206040518083038186803b158015612c2857600080fd5b505afa158015612c3c573d6000803e3d6000fd5b505050506040513d601f19601f82011682018060405250810190612c609190614e4e565b6040840152609c548351600091600160401b90046001600160a01b0390811691161415612c8e575081612d3a565b8351609c54609a546040516370a0823160e01b81526001600160a01b039182166004820152612d379392600160401b90048216918316906370a082319060240160206040518083038186803b158015612ce657600080fd5b505afa158015612cfa573d6000803e3d6000fd5b505050506040513d601f19601f82011682018060405250810190612d1e9190614e4e565b609a5460208901516001600160a01b03909116906142a3565b90505b8084608001818151612d4c919061552c565b905250819050612d5b81615648565b915050612ad2565b50600087836060015168056bc75e2d63100000612d809190615566565b612d8a9190615544565b9050600081858560800151612d9f9190615566565b612da99190615544565b90506000818560800151612dbd9190615585565b905060005b87811015612fe45760985460405163239aad0d60e01b8152600481018390526000916001600160a01b03169063239aad0d9060240160206040518083038186803b158015612e0f57600080fd5b505afa158015612e23573d6000803e3d6000fd5b505050506040513d601f19601f82011682018060405250810190612e479190614af2565b609854604051633259966560e01b81526001600160a01b0380841660048301529293506000929091169063325996659060240160206040518083038186803b158015612e9257600080fd5b505afa158015612ea6573d6000803e3d6000fd5b505050506040513d601f19601f82011682018060405250810190612eca9190614ecb565b60985460405162967c1760e71b81526001600160a01b03858116600483015292935060009290911690634b3e0b809060240160206040518083038186803b158015612f1457600080fd5b505afa158015612f28573d6000803e3d6000fd5b505050506040513d601f19601f82011682018060405250810190612f4c9190614e4e565b609c549091506000906001600160a01b03858116600160401b909204161415612f8b578a612f7a8389615566565b612f849190615544565b9050612fcd565b609c54612fca90600160401b90046001600160a01b0316858d612fae868c615566565b612fb89190615544565b609a546001600160a01b0316876142a3565b90505b505050508080612fdc90615648565b915050612dc2565b5060008b8152609f60205260408120805483929061300390849061552c565b9091555061301390508684615585565b60008c815260a560205260408120805490919061303190849061552c565b9091555050505050505050505050505050565b60008561305a8468056bc75e2d63100000615566565b6130649190615544565b90506130708482615585565b600088815260a560205260408120805490919061308e90849061552c565b909155506000905061309f8661115d565b60985460405163d1c68aa360e01b81526001600160401b03891660048201529192506000916001600160a01b039091169063d1c68aa39060240160006040518083038186803b1580156130f157600080fd5b505afa158015613105573d6000803e3d6000fd5b505050506040513d6000823e601f3d908101601f1916820160405261312d9190810190614c21565b609854604051633414329f60e21b81526001600160401b038a1660048201529192506000916001600160a01b039091169063d050ca7c9060240160006040518083038186803b15801561317f57600080fd5b505afa158015613193573d6000803e3d6000fd5b505050506040513d6000823e601f3d908101601f191682016040526131bb9190810190614c21565b60985460405163221f337160e01b81526001600160401b038b1660048201529192506000916001600160a01b039091169063221f33719060240160006040518083038186803b15801561320d57600080fd5b505afa158015613221573d6000803e3d6000fd5b505050506040513d6000823e601f3d908101601f191682016040526132499190810190614df8565b609854604051631435bff160e31b81526001600160401b038c1660048201529192506000916001600160a01b039091169063a1adff889060240160006040518083038186803b15801561329b57600080fd5b505afa1580156132af573d6000803e3d6000fd5b505050506040513d6000823e601f3d908101601f191682016040526132d79190810190614df8565b60408051600280825260608201835292935060009290916020830190803683370190505090508b816000815181106133115761331161568f565b60200260200101818152505089816001815181106133315761333161568f565b60200260200101818152505088816002815181106133515761335161568f565b6020026020010181815250506000600386868686609d548e88604051602001613381989796959493929190615285565b604051602081830303815290604052905061339f8c88836001611dc9565b5050505050505050505050505050565b603380546001600160a01b038381166001600160a01b0319831681179093556040519116919082907f8be0079c531659141344cd1fd0a4f28419497f9722a3daafe3b4186f6b6457e090600090a35050565b80516020808301516040840151805191926000926134259290810182019101614af2565b905060008060008060008089606001518060200190518101906134489190614f31565b9550955095509550955095508560001415613462576136f6565b8560011415613470576136f6565b85600214156135d85760005b82518110156135d2578281815181106134975761349761568f565b6020026020010151609e600086815260200190815260200160002060008282546134c1919061552c565b925050819055508281815181106134da576134da61568f565b602002602001015160a1600086815260200190815260200160002060008884815181106135095761350961568f565b60200260200101516001600160a01b03166001600160a01b031681526020019081526020016000206000828254613540919061552c565b925050819055508281815181106135595761355961568f565b602090810291909101810151600086815260a2835260408082206001600160401b038e16835290935291822080549192909161359690849061552c565b9091555050600084815260a0602052604081208054600192906135ba90849061552c565b909155508190506135ca81615648565b91505061347c565b506136f6565b85600314156136895760008a6080015190506000816000815181106135ff576135ff61568f565b60200260200101516000015190506000826000815181106136225761362261568f565b6020026020010151602001519050600061365583609c60089054906101000a90046001600160a01b0316843060036118a3565b905080609f6000898152602001908152602001600020600082825461367a919061552c565b909155506136f6945050505050565b85600414156136f657609860009054906101000a90046001600160a01b03166001600160a01b0316638baa6bf16040518163ffffffff1660e01b8152600401600060405180830381600087803b1580156136e257600080fd5b505af115801561339f573d6000803e3d6000fd5b50505050505050505050565b60408051915160248084019190915281518084039091018152604490920190526020810180516001600160e01b03166397a657c960e01b17905290565b6137866040518060c0016040528060006001600160a01b03168152602001600062ffffff168152602001600081526020016000815260200160008152602001600081525090565b60985460405163264cae9360e21b8152600481018a90526001600160a01b0390911690639932ba4c9060240160206040518083038186803b1580156137ca57600080fd5b505afa1580156137de573d6000803e3d6000fd5b505050506040513d601f19601f820116820180604052508101906138029190614af2565b6001600160a01b03908116808352609854604051633259966560e01b815260048101929092529091169063325996659060240160206040518083038186803b15801561384d57600080fd5b505afa158015613861573d6000803e3d6000fd5b505050506040513d601f19601f820116820180604052508101906138859190614ecb565b62ffffff166020820152609854815160405162967c1760e71b81526001600160a01b039182166004820152911690634b3e0b809060240160206040518083038186803b1580156138d457600080fd5b505afa1580156138e8573d6000803e3d6000fd5b505050506040513d601f19601f8201168201806040525081019061390c9190614e4e565b604082810191909152600088815260a260209081528282206001600160401b038916835290528181205460608401528251609a5492516370a0823160e01b81526001600160a01b039384166004820152919216906370a082319060240160206040518083038186803b15801561398157600080fd5b505afa158015613995573d6000803e3d6000fd5b505050506040513d601f19601f820116820180604052508101906139b99190614e4e565b905060005b85811015613acb57609c5483516001600160a01b03908116600160401b9092041614156139f15760a08301829052613aa0565b8251609c54609a546040516370a0823160e01b81526001600160a01b039182166004820152613a9a9392600160401b90048216918316906370a082319060240160206040518083038186803b158015613a4957600080fd5b505afa158015613a5d573d6000803e3d6000fd5b505050506040513d601f19601f82011682018060405250810190613a819190614e4e565b609a5460208801516001600160a01b03909116906142a3565b60a08401525b8260a0015183608001818151613ab6919061552c565b90525080613ac381615648565b9150506139be565b50600087836060015168056bc75e2d63100000613ae89190615566565b613af29190615544565b90506000613b008286615585565b60008b815260a56020908152604080832054609f9092528220549293509091613b2a908490615566565b613b349190615544565b90508085608001818151613b48919061552c565b90525060005b87811015613d805760985460405163264cae9360e21b8152600481018390526000916001600160a01b031690639932ba4c9060240160206040518083038186803b158015613b9b57600080fd5b505afa158015613baf573d6000803e3d6000fd5b505050506040513d601f19601f82011682018060405250810190613bd39190614af2565b609854604051633259966560e01b81526001600160a01b0380841660048301529293506000929091169063325996659060240160206040518083038186803b158015613c1e57600080fd5b505afa158015613c32573d6000803e3d6000fd5b505050506040513d601f19601f82011682018060405250810190613c569190614ecb565b60985460405162967c1760e71b81526001600160a01b03858116600483015292935060009290911690634b3e0b809060240160206040518083038186803b158015613ca057600080fd5b505afa158015613cb4573d6000803e3d6000fd5b505050506040513d601f19601f82011682018060405250810190613cd89190614e4e565b609c549091506001600160a01b03848116600160401b909204161415613d1d5789818a60800151613d099190615566565b613d139190615544565b60a08a0152613d6a565b613d64609c60089054906101000a90046001600160a01b0316848c848d60800151613d489190615566565b613d529190615544565b609a546001600160a01b0316866142a3565b60a08a01525b5050508080613d7890615648565b915050613b4e565b50505050505050505050505050565b613dc16040518060a0016040528060608152602001606081526020016060815260200160608152602001606081525090565b600086613dd78568056bc75e2d63100000615566565b613de19190615544565b90506000613def8287615585565b60008a815260a56020908152604080832054609f9092528220549293509091613e19908490615566565b613e239190615544565b90506000613e308961115d565b90506000613e5f609c60089054906101000a90046001600160a01b0316613e568c610944565b853060036142a3565b60985460405163d1c68aa360e01b81526001600160401b038d1660048201529192506001600160a01b03169063d1c68aa39060240160006040518083038186803b158015613eac57600080fd5b505afa158015613ec0573d6000803e3d6000fd5b505050506040513d6000823e601f3d908101601f19168201604052613ee89190810190614c21565b8652609854604051633414329f60e21b81526001600160401b038c1660048201526001600160a01b039091169063d050ca7c9060240160006040518083038186803b158015613f3657600080fd5b505afa158015613f4a573d6000803e3d6000fd5b505050506040513d6000823e601f3d908101601f19168201604052613f729190810190614c21565b602087015260985460405163221f337160e01b81526001600160401b038c1660048201526001600160a01b039091169063221f33719060240160006040518083038186803b158015613fc357600080fd5b505afa158015613fd7573d6000803e3d6000fd5b505050506040513d6000823e601f3d908101601f19168201604052613fff9190810190614df8565b6040878101919091526098549051631435bff160e31b81526001600160401b038c1660048201526001600160a01b039091169063a1adff889060240160006040518083038186803b15801561405357600080fd5b505afa158015614067573d6000803e3d6000fd5b505050506040513d6000823e601f3d908101601f1916820160405261408f9190810190614df8565b606087810191909152604080516002808252928101825291906020830190803683375050506080870181905280518c91906000906140cf576140cf61568f565b6020026020010181815250508886608001516001815181106140f3576140f361568f565b6020908102919091010152604080516001808252818301909252600091816020015b60408051808201909152600080825260208201528152602001906001900390816141155790505090506141478b610944565b8160008151811061415a5761415a61568f565b6020026020010151600001906001600160a01b031690816001600160a01b03168152505081816000815181106141925761419261568f565b6020026020010151602001818152505060006004886000015189602001518a604001518b60600151609d548e8e608001516040516020016141da989796959493929190615285565b604051602081830303815290604052905061339f8c82868560016143e4565b600054610100900460ff166142205760405162461bcd60e51b81526004016112ba9061536b565b6001600160a01b03811661424a576040516335fdcccd60e21b8152600060048201526024016112ba565b600080546001600160a01b03909216620100000262010000600160b01b0319909216919091179055565b600054610100900460ff1661429b5760405162461bcd60e51b81526004016112ba9061536b565b6118a1614841565b60985460405163dd811ac960e01b815260009182916001600160a01b039091169063dd811ac9906142de908a908a908a908990600401615258565b60206040518083038186803b1580156142f657600080fd5b505afa15801561430a573d6000803e3d6000fd5b505050506040513d601f19601f8201168201806040525081019061432e9190614e4e565b9050600081156143c557609a546040516305f370ed60e41b81526001600160a01b0390911690635f370ed090614370908b908b908b908b908b90600401615221565b602060405180830381600087803b15801561438a57600080fd5b505af115801561439e573d6000803e3d6000fd5b505050506040513d601f19601f820116820180604052508101906143c29190614e4e565b90505b8362ffffff16600314156143dc5791506119bb9050565b5090506119bb565b8151609954600160a01b900461ffff168111156144695760405162461bcd60e51b815260206004820152603760248201527f4d6178696d756d203520646966666572656e7420746f6b656e732063616e206260448201527f652073656e74207065722043434950204d65737361676500000000000000000060648201526084016112ba565b60005b8181101561459e5760995484516001600160a01b03909116908590839081106144975761449761568f565b6020026020010151600001516001600160a01b031614614596578381815181106144c3576144c361568f565b6020026020010151600001516001600160a01b031663095ea7b3600060029054906101000a90046001600160a01b03168684815181106145055761450561568f565b6020026020010151602001516040518363ffffffff1660e01b81526004016145429291906001600160a01b03929092168252602082015260400190565b602060405180830381600087803b15801561455c57600080fd5b505af1158015614570573d6000803e3d6000fd5b505050506040513d601f19601f820116820180604052508101906145949190614e2c565b505b60010161446c565b506040805160a081019091526001600160a01b03851660c08201526000908060e0810160408051601f1981840301815291815290825260208201899052810186905260600160018560018111156145f7576145f7615679565b14614603576000614610565b6099546001600160a01b03165b6001600160a01b031681526020016146386040518060200160405280620dbba0815250613702565b9052600080546040516320487ded60e01b81529293509091620100009091046001600160a01b0316906320487ded90614677908b9086906004016153b6565b60206040518083038186803b15801561468f57600080fd5b505afa1580156146a3573d6000803e3d6000fd5b505050506040513d601f19601f820116820180604052508101906146c79190614e4e565b9050600060018560018111156146df576146df615679565b1415614775576000546040516396f4e9f960e01b8152620100009091046001600160a01b0316906396f4e9f99061471c908c9087906004016153b6565b602060405180830381600087803b15801561473657600080fd5b505af115801561474a573d6000803e3d6000fd5b505050506040513d601f19601f8201168201806040525081019061476e9190614e4e565b9050614803565b6000546040516396f4e9f960e01b8152620100009091046001600160a01b0316906396f4e9f99084906147ae908d9088906004016153b6565b6020604051808303818588803b1580156147c757600080fd5b505af11580156147db573d6000803e3d6000fd5b50505050506040513d601f19601f820116820180604052508101906148009190614e4e565b90505b6040518181527f54791b38f3859327992a1ca0590ad3c0f08feba98d1a4f56ab0dca74d203392a9060200160405180910390a1505050505050505050565b600054610100900460ff166148685760405162461bcd60e51b81526004016112ba9061536b565b6118a1336133af565b600082601f83011261488257600080fd5b8151602061489761489283615509565b6154d9565b80838252828201915082860187848660051b89010111156148b757600080fd5b60005b858110156148df5781516148cd816156bb565b845292840192908401906001016148ba565b5090979650505050505050565b600082601f8301126148fd57600080fd5b8135602061490d61489283615509565b80838252828201915082860187848660061b890101111561492d57600080fd5b6000805b8681101561497857604080848c031215614949578283fd5b61495161548f565b843561495c816156bb565b8152848801358882015286529486019490920191600101614931565b509198975050505050505050565b600082601f83011261499757600080fd5b815160206149a761489283615509565b80838252828201915082860187848660051b89010111156149c757600080fd5b60005b858110156148df578151845292840192908401906001016149ca565b600082601f8301126149f757600080fd5b81516020614a0761489283615509565b80838252828201915082860187848660051b8901011115614a2757600080fd5b60005b858110156148df578151614a3d816156e1565b84529284019290840190600101614a2a565b600082601f830112614a6057600080fd5b81356001600160401b03811115614a7957614a796156a5565b614a8c601f8201601f19166020016154d9565b818152846020838601011115614aa157600080fd5b816020850160208301376000918101602001919091529392505050565b8035614ac9816156e1565b919050565b600060208284031215614ae057600080fd5b8135614aeb816156bb565b9392505050565b600060208284031215614b0457600080fd5b8151614aeb816156bb565b600080600060608486031215614b2457600080fd5b8335614b2f816156bb565b92506020840135614b3f816156bb565b915060408401356001600160801b0381168114614b5b57600080fd5b809150509250925092565b600080600080600060a08688031215614b7e57600080fd5b8535614b89816156bb565b94506020860135614b99816156bb565b9350604086013592506060860135614bb0816156bb565b91506080860135614bc0816156d0565b809150509295509295909350565b60008060008060808587031215614be457600080fd5b8435614bef816156bb565b93506020850135614bff816156bb565b9250604085013591506060850135614c16816156d0565b939692955090935050565b600060208284031215614c3357600080fd5b81516001600160401b03811115614c4957600080fd5b61093c84828501614871565b60008060008060808587031215614c6b57600080fd5b84516001600160401b0380821115614c8257600080fd5b614c8e88838901614871565b9550602091508187015181811115614ca557600080fd5b614cb189828a01614986565b955050604087015181811115614cc657600080fd5b8701601f81018913614cd757600080fd5b8051614ce561489282615509565b8082825285820191508584018c878560051b8701011115614d0557600080fd5b600094505b83851015614d31578051614d1d816156d0565b835260019490940193918601918601614d0a565b5060608b0151909750945050505080821115614d4c57600080fd5b50614d59878288016149e6565b91505092959194509250565b60008060008060808587031215614d7b57600080fd5b84516001600160401b0380821115614d9257600080fd5b614d9e88838901614871565b95506020870151915080821115614db457600080fd5b614dc088838901614986565b94506040870151915080821115614dd657600080fd5b614de288838901614986565b93506060870151915080821115614d4c57600080fd5b600060208284031215614e0a57600080fd5b81516001600160401b03811115614e2057600080fd5b61093c84828501614986565b600060208284031215614e3e57600080fd5b81518015158114614aeb57600080fd5b600060208284031215614e6057600080fd5b5051919050565b600060208284031215614e7957600080fd5b81356001600160e01b031981168114614aeb57600080fd5b600060208284031215614ea357600080fd5b81356001600160401b03811115614eb957600080fd5b820160a08185031215614aeb57600080fd5b600060208284031215614edd57600080fd5b8151614aeb816156d0565b600060208284031215614efa57600080fd5b5035919050565b60008060408385031215614f1457600080fd5b823591506020830135614f26816156bb565b809150509250929050565b60008060008060008060c08789031215614f4a57600080fd5b8651955060208701516001600160401b0380821115614f6857600080fd5b614f748a838b01614871565b96506040890151915080821115614f8a57600080fd5b614f968a838b01614871565b9550606089015194506080890151915080821115614fb357600080fd5b614fbf8a838b01614986565b935060a0890151915080821115614fd557600080fd5b50614fe289828a01614986565b9150509295509295509295565b6000806040838503121561500257600080fd5b823591506020830135614f26816156e1565b60006020828403121561502657600080fd5b8135614aeb816156e1565b60006020828403121561504357600080fd5b8151614aeb816156e1565b60008060008060008060c0878903121561506757600080fd5b8635615072816156e1565b95506020870135615082816156bb565b94506040870135615092816156bb565b935060608701356150a2816156bb565b925060808701356150b2816156bb565b915060a08701356150c2816156bb565b809150509295509295509295565b600080600080608085870312156150e657600080fd5b84356150f1816156e1565b93506020850135615101816156bb565b925060408501356001600160401b0381111561511c57600080fd5b61512887828801614a4f565b925050606085013560028110614c1657600080fd5b60006020828403121561514f57600080fd5b813560ff81168114614aeb57600080fd5b600081518084526020808501945080840160005b838110156151995781516001600160a01b031687529582019590820190600101615174565b509495945050505050565b600081518084526020808501945080840160005b83811015615199578151875295820195908201906001016151b8565b6000815180845260005b818110156151fa576020818501810151868301820152016151de565b8181111561520c576000602083870101525b50601f01601f19169290920160200192915050565b6001600160a01b03958616815293851660208501526040840192909252909216606082015262ffffff909116608082015260a00190565b6001600160a01b039485168152929093166020830152604082015262ffffff909116606082015260800190565b600061010060ff8b1683528060208401526152a28184018b615160565b905082810360408401526152b6818a615160565b905082810360608401526152ca81896151a4565b905082810360808401526152de81886151a4565b90508560a084015282810360c08401526152f881866151a4565b905082810360e084015261530c81856151a4565b9b9a5050505050505050505050565b60208082526030908201527f50726f706f7361626c654f776e61626c653a206e6577206f776e65722069732060408201526f746865207a65726f206164647265737360801b606082015260800190565b6020808252602b908201527f496e697469616c697a61626c653a20636f6e7472616374206973206e6f74206960408201526a6e697469616c697a696e6760a81b606082015260800190565b600060406001600160401b038516835260208181850152845160a0838601526153e260e08601826151d4565b905081860151603f19808784030160608801526153ff83836151d4565b88860151888203830160808a01528051808352908601945060009350908501905b8084101561545257845180516001600160a01b0316835286015186830152938501936001939093019290860190615420565b5060608901516001600160a01b031660a08901526080890151888203830160c08a0152955061548181876151d4565b9a9950505050505050505050565b604080519081016001600160401b03811182821017156154b1576154b16156a5565b60405290565b60405160a081016001600160401b03811182821017156154b1576154b16156a5565b604051601f8201601f191681016001600160401b0381118282101715615501576155016156a5565b604052919050565b60006001600160401b03821115615522576155226156a5565b5060051b60200190565b6000821982111561553f5761553f615663565b500190565b60008261556157634e487b7160e01b600052601260045260246000fd5b500490565b600081600019048311821515161561558057615580615663565b500290565b60008282101561559757615597615663565b500390565b600060a082360312156155ae57600080fd5b6155b66154b7565b823581526155c660208401614abe565b602082015260408301356001600160401b03808211156155e557600080fd5b6155f136838701614a4f565b6040840152606085013591508082111561560a57600080fd5b61561636838701614a4f565b6060840152608085013591508082111561562f57600080fd5b5061563c368286016148ec565b60808301525092915050565b600060001982141561565c5761565c615663565b5060010190565b634e487b7160e01b600052601160045260246000fd5b634e487b7160e01b600052602160045260246000fd5b634e487b7160e01b600052603260045260246000fd5b634e487b7160e01b600052604160045260246000fd5b6001600160a01b0381168114611a0857600080fd5b62ffffff81168114611a0857600080fd5b6001600160401b0381168114611a0857600080fdfea2646970667358221220deef45f6e655394d28e47b0086acbde4a9e7da68126afa017ac42208fac364b764736f6c63430008070033","linkReferences":{}},"methodIdentifiers":{"askValues()":"2700cc86","ccipReceive((bytes32,uint64,bytes,bytes,(address,uint256)[]))":"85572ffb","chainValueByNonce(uint256,uint64)":"69abf538","convertEthToUsd(uint256)":"c086381e","crossChainFactoryBySelector(uint64)":"340fbc74","crossChainToken(uint64)":"19da7e2a","currentChainSelector()":"3d54cb6f","estimateAmountOut(address,address,uint128)":"0456f9c8","extraWethByNonce(uint256)":"756c1fd1","feeRate()":"978bbdb9","firstReweightAction()":"63713a8b","getAmountOut(address,address,uint256,uint24)":"dd811ac9","getPortfolioBalance()":"a8509fd8","getRouter()":"b0f479a1","i_link()":"7d253aff","i_maxTokensLength()":"5b6a0351","indexFactoryStorage()":"d1f7a991","indexToken()":"e7d015f2","initialize(uint64,address,address,address,address,address)":"edba0e31","latestFeeUpdate()":"011ced5f","owner()":"8da5cb5b","portfolioTotalValueByNonce(uint256)":"7d3546f7","priceInWei()":"3c8da588","proposeOwner(address)":"b5ed298a","proposedOwner()":"d153b60c","redemptionNonceOutputToken(uint256)":"0603fb05","redemptionNonceOutputTokenSwapFee(uint256)":"afcaa952","renounceOwnership()":"715018a6","reweightExtraPercentage(uint256)":"814ffd71","reweightTokensCount(uint256)":"78324463","reweightWethValueByNonce(uint256)":"f1639b09","secondReweightAction()":"d79e8d65","sendMessage(uint64,address,bytes,uint8)":"bcab90b3","setFeeRate(uint8)":"5177942a","setIndexFactoryStorage(address)":"cc8659ae","supportsInterface(bytes4)":"01ffc9a7","swap(address,address,uint256,address,uint24)":"7e79f512","tokenValueByNonce(uint256,address)":"b316e7fd","transferOwnership(address)":"f2fde38b","updatePortfolioNonce()":"003cf402","updatedTokensValueCount(uint256)":"c070a097","weth()":"3fc8cef3"},"id":4}