{"abi":[{"type":"receive","stateMutability":"payable"},{"type":"function","name":"askValues","inputs":[],"outputs":[],"stateMutability":"nonpayable"},{"type":"function","name":"ccipReceive","inputs":[{"name":"message","type":"tuple","internalType":"struct Client.Any2EVMMessage","components":[{"name":"messageId","type":"bytes32","internalType":"bytes32"},{"name":"sourceChainSelector","type":"uint64","internalType":"uint64"},{"name":"sender","type":"bytes","internalType":"bytes"},{"name":"data","type":"bytes","internalType":"bytes"},{"name":"destTokenAmounts","type":"tuple[]","internalType":"struct Client.EVMTokenAmount[]","components":[{"name":"token","type":"address","internalType":"address"},{"name":"amount","type":"uint256","internalType":"uint256"}]}]}],"outputs":[],"stateMutability":"nonpayable"},{"type":"function","name":"chainValueByNonce","inputs":[{"name":"","type":"uint256","internalType":"uint256"},{"name":"","type":"uint64","internalType":"uint64"}],"outputs":[{"name":"","type":"uint256","internalType":"uint256"}],"stateMutability":"view"},{"type":"function","name":"convertEthToUsd","inputs":[{"name":"_ethAmount","type":"uint256","internalType":"uint256"}],"outputs":[{"name":"","type":"uint256","internalType":"uint256"}],"stateMutability":"view"},{"type":"function","name":"crossChainFactoryBySelector","inputs":[{"name":"_chainSelector","type":"uint64","internalType":"uint64"}],"outputs":[{"name":"","type":"address","internalType":"address"}],"stateMutability":"view"},{"type":"function","name":"crossChainToken","inputs":[{"name":"_chainSelector","type":"uint64","internalType":"uint64"}],"outputs":[{"name":"","type":"address","internalType":"address"}],"stateMutability":"view"},{"type":"function","name":"currentChainSelector","inputs":[],"outputs":[{"name":"","type":"uint64","internalType":"uint64"}],"stateMutability":"view"},{"type":"function","name":"estimateAmountOut","inputs":[{"name":"tokenIn","type":"address","internalType":"address"},{"name":"tokenOut","type":"address","internalType":"address"},{"name":"amountIn","type":"uint128","internalType":"uint128"},{"name":"fee","type":"uint24","internalType":"uint24"}],"outputs":[{"name":"amountOut","type":"uint256","internalType":"uint256"}],"stateMutability":"view"},{"type":"function","name":"extraWethByNonce","inputs":[{"name":"","type":"uint256","internalType":"uint256"}],"outputs":[{"name":"","type":"uint256","internalType":"uint256"}],"stateMutability":"view"},{"type":"function","name":"factoryStorage","inputs":[],"outputs":[{"name":"","type":"address","internalType":"contract IndexFactoryStorage"}],"stateMutability":"view"},{"type":"function","name":"feeRate","inputs":[],"outputs":[{"name":"","type":"uint8","internalType":"uint8"}],"stateMutability":"view"},{"type":"function","name":"firstReweightAction","inputs":[],"outputs":[],"stateMutability":"nonpayable"},{"type":"function","name":"getAmountOut","inputs":[{"name":"tokenIn","type":"address","internalType":"address"},{"name":"tokenOut","type":"address","internalType":"address"},{"name":"amountIn","type":"uint256","internalType":"uint256"},{"name":"_swapFee","type":"uint24","internalType":"uint24"}],"outputs":[{"name":"finalAmountOut","type":"uint256","internalType":"uint256"}],"stateMutability":"view"},{"type":"function","name":"getPortfolioBalance","inputs":[],"outputs":[{"name":"","type":"uint256","internalType":"uint256"}],"stateMutability":"view"},{"type":"function","name":"getRouter","inputs":[],"outputs":[{"name":"","type":"address","internalType":"address"}],"stateMutability":"view"},{"type":"function","name":"i_link","inputs":[],"outputs":[{"name":"","type":"address","internalType":"address"}],"stateMutability":"view"},{"type":"function","name":"i_maxTokensLength","inputs":[],"outputs":[{"name":"","type":"uint16","internalType":"uint16"}],"stateMutability":"view"},{"type":"function","name":"initialize","inputs":[{"name":"_currentChainSelector","type":"uint64","internalType":"uint64"},{"name":"_factoryStorage","type":"address","internalType":"address"},{"name":"_chainlinkToken","type":"address","internalType":"address"},{"name":"_router","type":"address","internalType":"address"},{"name":"_weth","type":"address","internalType":"address"}],"outputs":[],"stateMutability":"nonpayable"},{"type":"function","name":"latestFeeUpdate","inputs":[],"outputs":[{"name":"","type":"uint256","internalType":"uint256"}],"stateMutability":"view"},{"type":"function","name":"owner","inputs":[],"outputs":[{"name":"","type":"address","internalType":"address"}],"stateMutability":"view"},{"type":"function","name":"portfolioTotalValueByNonce","inputs":[{"name":"","type":"uint256","internalType":"uint256"}],"outputs":[{"name":"","type":"uint256","internalType":"uint256"}],"stateMutability":"view"},{"type":"function","name":"priceInWei","inputs":[],"outputs":[{"name":"","type":"uint256","internalType":"uint256"}],"stateMutability":"view"},{"type":"function","name":"proposeOwner","inputs":[{"name":"_proposedOwner","type":"address","internalType":"address"}],"outputs":[],"stateMutability":"nonpayable"},{"type":"function","name":"proposedOwner","inputs":[],"outputs":[{"name":"","type":"address","internalType":"address"}],"stateMutability":"view"},{"type":"function","name":"redemptionNonceOutputToken","inputs":[{"name":"","type":"uint256","internalType":"uint256"}],"outputs":[{"name":"","type":"address","internalType":"address"}],"stateMutability":"view"},{"type":"function","name":"redemptionNonceOutputTokenSwapFee","inputs":[{"name":"","type":"uint256","internalType":"uint256"}],"outputs":[{"name":"","type":"uint256","internalType":"uint256"}],"stateMutability":"view"},{"type":"function","name":"renounceOwnership","inputs":[],"outputs":[],"stateMutability":"nonpayable"},{"type":"function","name":"reweightExtraPercentage","inputs":[{"name":"","type":"uint256","internalType":"uint256"}],"outputs":[{"name":"","type":"uint256","internalType":"uint256"}],"stateMutability":"view"},{"type":"function","name":"reweightTokensCount","inputs":[{"name":"","type":"uint256","internalType":"uint256"}],"outputs":[{"name":"","type":"uint256","internalType":"uint256"}],"stateMutability":"view"},{"type":"function","name":"reweightWethValueByNonce","inputs":[{"name":"","type":"uint256","internalType":"uint256"}],"outputs":[{"name":"","type":"uint256","internalType":"uint256"}],"stateMutability":"view"},{"type":"function","name":"secondReweightAction","inputs":[],"outputs":[],"stateMutability":"nonpayable"},{"type":"function","name":"sendMessage","inputs":[{"name":"destinationChainSelector","type":"uint64","internalType":"uint64"},{"name":"receiver","type":"address","internalType":"address"},{"name":"_data","type":"bytes","internalType":"bytes"},{"name":"payFeesIn","type":"uint8","internalType":"enum MessageSender.PayFeesIn"}],"outputs":[{"name":"","type":"bytes32","internalType":"bytes32"}],"stateMutability":"nonpayable"},{"type":"function","name":"setFeeRate","inputs":[{"name":"_newFee","type":"uint8","internalType":"uint8"}],"outputs":[],"stateMutability":"nonpayable"},{"type":"function","name":"setIndexFactoryStorage","inputs":[{"name":"_factoryStorage","type":"address","internalType":"address"}],"outputs":[],"stateMutability":"nonpayable"},{"type":"function","name":"supportsInterface","inputs":[{"name":"interfaceId","type":"bytes4","internalType":"bytes4"}],"outputs":[{"name":"","type":"bool","internalType":"bool"}],"stateMutability":"pure"},{"type":"function","name":"swap","inputs":[{"name":"tokenIn","type":"address","internalType":"address"},{"name":"tokenOut","type":"address","internalType":"address"},{"name":"amountIn","type":"uint256","internalType":"uint256"},{"name":"_recipient","type":"address","internalType":"address"},{"name":"_swapFee","type":"uint24","internalType":"uint24"}],"outputs":[{"name":"outputAmount","type":"uint256","internalType":"uint256"}],"stateMutability":"nonpayable"},{"type":"function","name":"tokenValueByNonce","inputs":[{"name":"","type":"uint256","internalType":"uint256"},{"name":"","type":"address","internalType":"address"}],"outputs":[{"name":"","type":"uint256","internalType":"uint256"}],"stateMutability":"view"},{"type":"function","name":"transferOwnership","inputs":[{"name":"newOwner","type":"address","internalType":"address"}],"outputs":[],"stateMutability":"nonpayable"},{"type":"function","name":"updatePortfolioNonce","inputs":[],"outputs":[{"name":"","type":"uint256","internalType":"uint256"}],"stateMutability":"view"},{"type":"function","name":"updatedTokensValueCount","inputs":[{"name":"","type":"uint256","internalType":"uint256"}],"outputs":[{"name":"","type":"uint256","internalType":"uint256"}],"stateMutability":"view"},{"type":"function","name":"weth","inputs":[],"outputs":[{"name":"","type":"address","internalType":"contract IWETH"}],"stateMutability":"view"},{"type":"event","name":"Initialized","inputs":[{"name":"version","type":"uint8","indexed":false,"internalType":"uint8"}],"anonymous":false},{"type":"event","name":"MessageSent","inputs":[{"name":"messageId","type":"bytes32","indexed":false,"internalType":"bytes32"}],"anonymous":false},{"type":"event","name":"OwnershipTransferred","inputs":[{"name":"previousOwner","type":"address","indexed":true,"internalType":"address"},{"name":"newOwner","type":"address","indexed":true,"internalType":"address"}],"anonymous":false},{"type":"error","name":"InvalidRouter","inputs":[{"name":"router","type":"address","internalType":"address"}]}],"bytecode":{"object":"0x6080604052348015600f57600080fd5b506162748061001f6000396000f3fe6080604052600436106102495760003560e01c80637e79f51211610139578063bcab90b3116100b6578063d153b60c1161007a578063d153b60c14610784578063d79e8d65146107a4578063dd811ac9146107b9578063ee7bd3e2146107d9578063f1639b09146107f9578063f2fde38b1461082657600080fd5b8063bcab90b3146106d7578063c06e1ae2146106f7578063c070a09714610717578063c086381e14610744578063cc8659ae1461076457600080fd5b8063a8509fd8116100fd578063a8509fd814610619578063afcaa9521461062e578063b0f479a11461065b578063b316e7fd1461067f578063b5ed298a146106b757600080fd5b80637e79f5121461055b578063814ffd711461057b57806385572ffb146105a85780638da5cb5b146105c8578063978bbdb9146105e657600080fd5b80633fc8cef3116101c7578063715018a61161018b578063715018a61461049f578063756c1fd1146104b457806378324463146104e15780637d253aff1461050e5780637d3546f71461052e57600080fd5b80633fc8cef3146103d65780635177942a146103fd5780635b6a03511461041d57806363713a8b1461045257806369abf5381461046757600080fd5b806319da7e2a1161020e57806319da7e2a146103345780632700cc8614610354578063340fbc74146103695780633c8da588146103895780633d54cb6f1461039e57600080fd5b80623cf40214610255578063011ced5f1461027e57806301ffc9a7146102945780630603fb05146102c457806316b487ff1461031257600080fd5b3661025057005b600080fd5b34801561026157600080fd5b5061026b609c5481565b6040519081526020015b60405180910390f35b34801561028a57600080fd5b5061026b609a5481565b3480156102a057600080fd5b506102b46102af366004615345565b610846565b6040519015158152602001610275565b3480156102d057600080fd5b506102fa6102df366004615376565b60a5602052600090815260409020546001600160a01b031681565b6040516001600160a01b039091168152602001610275565b34801561031e57600080fd5b5061033261032d3660046153c9565b61087d565b005b34801561034057600080fd5b506102fa61034f36600461543a565b610c4a565b34801561036057600080fd5b50610332610cc1565b34801561037557600080fd5b506102fa61038436600461543a565b610f29565b34801561039557600080fd5b5061026b610f63565b3480156103aa57600080fd5b50609b546103be906001600160401b031681565b6040516001600160401b039091168152602001610275565b3480156103e257600080fd5b50609b546102fa90600160401b90046001600160a01b031681565b34801561040957600080fd5b50610332610418366004615457565b610fd6565b34801561042957600080fd5b5060995461043f90600160a01b900461ffff1681565b60405161ffff9091168152602001610275565b34801561045e57600080fd5b50610332611120565b34801561047357600080fd5b5061026b61048236600461547a565b60a160209081526000928352604080842090915290825290205481565b3480156104ab57600080fd5b5061033261164f565b3480156104c057600080fd5b5061026b6104cf366004615376565b609e6020526000908152604090205481565b3480156104ed57600080fd5b5061026b6104fc366004615376565b60a36020526000908152604090205481565b34801561051a57600080fd5b506099546102fa906001600160a01b031681565b34801561053a57600080fd5b5061026b610549366004615376565b609d6020526000908152604090205481565b34801561056757600080fd5b5061026b6105763660046154bb565b611663565b34801561058757600080fd5b5061026b610596366004615376565b60a46020526000908152604090205481565b3480156105b457600080fd5b506103326105c3366004615515565b6118b2565b3480156105d457600080fd5b506033546001600160a01b03166102fa565b3480156105f257600080fd5b5060995461060790600160b01b900460ff1681565b60405160ff9091168152602001610275565b34801561062557600080fd5b5061026b6118f9565b34801561063a57600080fd5b5061026b610649366004615376565b60a66020526000908152604090205481565b34801561066757600080fd5b506000546201000090046001600160a01b03166102fa565b34801561068b57600080fd5b5061026b61069a36600461554f565b60a060209081526000928352604080842090915290825290205481565b3480156106c357600080fd5b506103326106d2366004615574565b611c9a565b3480156106e357600080fd5b5061026b6106f2366004615690565b611cea565b34801561070357600080fd5b506098546102fa906001600160a01b031681565b34801561072357600080fd5b5061026b610732366004615376565b609f6020526000908152604090205481565b34801561075057600080fd5b5061026b61075f366004615376565b611e17565b34801561077057600080fd5b5061033261077f366004615574565b611e3e565b34801561079057600080fd5b506065546102fa906001600160a01b031681565b3480156107b057600080fd5b50610332611e68565b3480156107c557600080fd5b5061026b6107d4366004615708565b612383565b3480156107e557600080fd5b5061026b6107f4366004615750565b61240d565b34801561080557600080fd5b5061026b610814366004615376565b60a26020526000908152604090205481565b34801561083257600080fd5b50610332610841366004615574565b612462565b60006001600160e01b031982166385572ffb60e01b148061087757506001600160e01b031982166301ffc9a760e01b145b92915050565b600054610100900460ff161580801561089d5750600054600160ff909116105b806108b75750303b1580156108b7575060005460ff166001145b61091f5760405162461bcd60e51b815260206004820152602e60248201527f496e697469616c697a61626c653a20636f6e747261637420697320616c72656160448201526d191e481a5b9a5d1a585b1a5e995960921b60648201526084015b60405180910390fd5b6000805460ff191660011790558015610942576000805461ff0019166101001790555b6000866001600160401b0316116109945760405162461bcd60e51b815260206004820152601660248201527524b73b30b634b21031b430b4b71039b2b632b1ba37b960511b6044820152606401610916565b6001600160a01b0385166109ea5760405162461bcd60e51b815260206004820152601f60248201527f496e76616c696420666163746f72792073746f726167652061646472657373006044820152606401610916565b6001600160a01b038416610a405760405162461bcd60e51b815260206004820152601f60248201527f496e76616c696420436861696e6c696e6b20746f6b656e2061646472657373006044820152606401610916565b6001600160a01b038316610a8f5760405162461bcd60e51b8152602060048201526016602482015275496e76616c696420726f75746572206164647265737360501b6044820152606401610916565b6001600160a01b038216610adc5760405162461bcd60e51b8152602060048201526014602482015273496e76616c69642057455448206164647265737360601b6044820152606401610916565b610ae583612587565b610aed612602565b609b805467ffffffffffffffff19166001600160401b038816179055609880546001600160a01b0319166001600160a01b0387811691909117909155609980548683166001600160b01b03199091168117600560a01b1790915560005460405163095ea7b360e01b815262010000909104909216600483015260001960248301529063095ea7b3906044016020604051808303816000875af1158015610b97573d6000803e3d6000fd5b505050506040513d601f19601f82011682018060405250810190610bbb91906157ad565b50609b805468010000000000000000600160e01b031916600160401b6001600160a01b038516021790556099805460ff60b01b1916600560b11b17905542609a558015610c42576000805461ff0019169055604051600181527f7f26b83ff96e1f2b6a682f133852f6798a09c465da95921460cefb38474024989060200160405180910390a15b505050505050565b609854604051630ced3f1560e11b81526001600160401b03831660048201526000916001600160a01b0316906319da7e2a906024015b602060405180830381865afa158015610c9d573d6000803e3d6000fd5b505050506040513d601f19601f8201168201806040525081019061087791906157cf565b610cc9612631565b6001609c6000828254610cdc9190615802565b909155505060985460408051631a521ec760e21b815290516000926001600160a01b0316916369487b1c9160048083019260209291908290030181865afa158015610d2b573d6000803e3d6000fd5b505050506040513d601f19601f82011682018060405250810190610d4f9190615815565b90506000609860009054906101000a90046001600160a01b03166001600160a01b031663b90b8a2a6040518163ffffffff1660e01b8152600401602060405180830381865afa158015610da6573d6000803e3d6000fd5b505050506040513d601f19601f82011682018060405250810190610dca9190615815565b905060005b82811015610f24576098546040516369fbf93360e11b8152600481018490526000916001600160a01b03169063d3f7f26690602401600060405180830381865afa158015610e21573d6000803e3d6000fd5b505050506040513d6000823e601f3d908101601f19168201604052610e49919081019061598c565b93505050506000818381518110610e6257610e62615aac565b602090810291909101015160985460405163b6ad185b60e01b81526001600160401b03831660048201529192506000916001600160a01b039091169063b6ad185b90602401602060405180830381865afa158015610ec4573d6000803e3d6000fd5b505050506040513d601f19601f82011682018060405250810190610ee89190615815565b609b549091506001600160401b0390811690831603610f1057610f0b828261268b565b610f19565b610f1982612a31565b505050600101610dcf565b505050565b609854604051630d03ef1d60e21b81526001600160401b03831660048201526000916001600160a01b03169063340fbc7490602401610c80565b60985460408051630791b4b160e31b815290516000926001600160a01b031691633c8da5889160048083019260209291908290030181865afa158015610fad573d6000803e3d6000fd5b505050506040513d601f19601f82011682018060405250810190610fd19190615815565b905090565b610fde612631565b6000609a5442610fee9190615ac2565b9050600c603c610ffe8184615ad5565b6110089190615ad5565b1161107b5760405162461bcd60e51b815260206004820152603960248201527f596f752073686f756c642077616974206174206c6561737420313220686f757260448201527f7320616674657220746865206c617465737420757064617465000000000000006064820152608401610916565b60648260ff1611158015611093575060018260ff1610155b6110fb5760405162461bcd60e51b815260206004820152603360248201527f546865206e65774665652073686f756c64206265206265747765656e203120616044820152726e64203130302028302e303125202d2031252960681b6064820152608401610916565b506099805460ff909216600160b01b0260ff60b01b1990921691909117905542609a55565b611128612631565b609c546000818152609d60209081526040808320546098548251631a521ec760e21b815292519194936001600160a01b03909116926369487b1c92600480830193928290030181865afa158015611183573d6000803e3d6000fd5b505050506040513d601f19601f820116820180604052508101906111a79190615815565b90506000609860009054906101000a90046001600160a01b03166001600160a01b031663b90b8a2a6040518163ffffffff1660e01b8152600401602060405180830381865afa1580156111fe573d6000803e3d6000fd5b505050506040513d601f19601f820116820180604052508101906112229190615815565b90506000609860009054906101000a90046001600160a01b03166001600160a01b031663f15817876040518163ffffffff1660e01b8152600401602060405180830381865afa158015611279573d6000803e3d6000fd5b505050506040513d601f19601f8201168201806040525081019061129d9190615815565b6098546040516369fbf93360e11b8152600481018590529192506000916001600160a01b039091169063d3f7f26690602401600060405180830381865afa1580156112ec573d6000803e3d6000fd5b505050506040513d6000823e601f3d908101601f19168201604052611314919081019061598c565b935050505060005b8481101561164657600082828151811061133857611338615aac565b602090810291909101015160985460405163b6ad185b60e01b81526001600160401b03831660048201529192506000916001600160a01b039091169063b6ad185b90602401602060405180830381865afa15801561139a573d6000803e3d6000fd5b505050506040513d601f19601f820116820180604052508101906113be9190615815565b609854604051637e34c5a560e11b81526001600160401b03851660048201529192506000916001600160a01b039091169063fc698b4a90602401602060405180830381865afa158015611415573d6000803e3d6000fd5b505050506040513d601f19601f820116820180604052508101906114399190615815565b609854604051632a3ff8ad60e01b8152600481018990526001600160401b03861660248201529192506000916001600160a01b0390911690632a3ff8ad90604401602060405180830381865afa158015611497573d6000803e3d6000fd5b505050506040513d601f19601f820116820180604052508101906114bb9190615815565b6098546040516303b9c7bd60e31b8152600481018a90526001600160401b03871660248201529192506000916001600160a01b0390911690631dce3de890604401602060405180830381865afa158015611519573d6000803e3d6000fd5b505050506040513d601f19601f8201168201806040525081019061153d9190615815565b60008d815260a1602090815260408083206001600160401b038a1680855292528083205460985491516302fc352760e61b815260048101939093529394506001600160a01b03169063bf0d49c090602401600060405180830381865afa1580156115ab573d6000803e3d6000fd5b505050506040513d6000823e601f3d908101601f191682016040526115d39190810190615af7565b9050828d6115ea8468056bc75e2d63100000615b33565b6115f49190615ad5565b111561163357609b546001600160401b039081169088160361162557611620888f8f8a8a8a8a8a612b9a565b611633565b6116338e8e89868686612d41565b50506001909501945061131c9350505050565b50505050505050565b611657612631565b6116616000613072565b565b60006001600160a01b0386166116b55760405162461bcd60e51b8152602060048201526017602482015276496e76616c696420746f6b656e496e206164647265737360481b6044820152606401610916565b6001600160a01b0385166117065760405162461bcd60e51b8152602060048201526018602482015277496e76616c696420746f6b656e4f7574206164647265737360401b6044820152606401610916565b600084116117565760405162461bcd60e51b815260206004820181905260248201527f416d6f756e74206d7573742062652067726561746572207468616e207a65726f6044820152606401610916565b6001600160a01b0383166117ac5760405162461bcd60e51b815260206004820152601960248201527f496e76616c696420726563697069656e742061646472657373000000000000006044820152606401610916565b6098546040805163b631e80b60e01b815290516000926001600160a01b03169163b631e80b9160048083019260209291908290030181865afa1580156117f6573d6000803e3d6000fd5b505050506040513d601f19601f8201168201806040525081019061181a91906157cf565b90506000609860009054906101000a90046001600160a01b03166001600160a01b031663744fbc7a6040518163ffffffff1660e01b8152600401602060405180830381865afa158015611871573d6000803e3d6000fd5b505050506040513d601f19601f8201168201806040525081019061189591906157cf565b90506118a68282868b8b8b8b6130c4565b98975050505050505050565b6000546201000090046001600160a01b031633146118e5576040516335fdcccd60e21b8152336004820152602401610916565b6118f66118f182615bd7565b6131f2565b50565b6000806000609860009054906101000a90046001600160a01b03166001600160a01b03166353fd43326040518163ffffffff1660e01b8152600401602060405180830381865afa158015611951573d6000803e3d6000fd5b505050506040513d601f19601f820116820180604052508101906119759190615815565b90506000609860009054906101000a90046001600160a01b03166001600160a01b031663fbfa77cf6040518163ffffffff1660e01b8152600401602060405180830381865afa1580156119cc573d6000803e3d6000fd5b505050506040513d601f19601f820116820180604052508101906119f091906157cf565b905060005b82811015611c915760985460405163264cae9360e21b8152600481018390526000916001600160a01b031690639932ba4c90602401602060405180830381865afa158015611a47573d6000803e3d6000fd5b505050506040513d601f19601f82011682018060405250810190611a6b91906157cf565b609854604051633aa3b3c160e21b81526001600160a01b0380841660048301529293506000929091169063ea8ecf0490602401602060405180830381865afa158015611abb573d6000803e3d6000fd5b505050506040513d601f19601f82011682018060405250810190611adf9190615c8d565b609854604051633259966560e01b81526001600160a01b03858116600483015292935060009290911690633259966590602401602060405180830381865afa158015611b2f573d6000803e3d6000fd5b505050506040513d601f19601f82011682018060405250810190611b539190615caa565b609b549091506001600160401b0390811690831603611c8657609854609b546040516370a0823160e01b81526001600160a01b03888116600483015260009381169263dd811ac9928892600160401b9092048216918316906370a0823190602401602060405180830381865afa158015611bd1573d6000803e3d6000fd5b505050506040513d601f19601f82011682018060405250810190611bf59190615815565b6040516001600160e01b031960e086901b1681526001600160a01b039384166004820152929091166024830152604482015262ffffff85166064820152608401602060405180830381865afa158015611c52573d6000803e3d6000fd5b505050506040513d601f19601f82011682018060405250810190611c769190615815565b9050611c828189615802565b9750505b5050506001016119f5565b50919392505050565b611ca2612631565b6001600160a01b038116611cc85760405162461bcd60e51b815260040161091690615cc7565b606580546001600160a01b0319166001600160a01b0392909216919091179055565b600080856001600160401b031611611d4f5760405162461bcd60e51b815260206004820152602260248201527f496e76616c69642064657374696e6174696f6e20636861696e2073656c65637460448201526137b960f11b6064820152608401610916565b6001600160a01b038416611da05760405162461bcd60e51b8152602060048201526018602482015277496e76616c6964207265636569766572206164647265737360401b6044820152606401610916565b6000835111611de85760405162461bcd60e51b8152602060048201526014602482015273446174612063616e6e6f7420626520656d70747960601b6044820152606401610916565b600054609954611e0e916001600160a01b036201000090910481169116878787876134e0565b95945050505050565b6000670de0b6b3a7640000611e2a610f63565b611e349084615b33565b6108779190615ad5565b611e46612631565b609880546001600160a01b0319166001600160a01b0392909216919091179055565b611e70612631565b609c546000818152609d602090815260408083205460985482516311d3af8360e31b815292519194936001600160a01b0390911692638e9d7c1892600480830193928290030181865afa158015611ecb573d6000803e3d6000fd5b505050506040513d601f19601f82011682018060405250810190611eef9190615815565b90506000609860009054906101000a90046001600160a01b03166001600160a01b031663f15817876040518163ffffffff1660e01b8152600401602060405180830381865afa158015611f46573d6000803e3d6000fd5b505050506040513d601f19601f82011682018060405250810190611f6a9190615815565b90506000609860009054906101000a90046001600160a01b03166001600160a01b03166369487b1c6040518163ffffffff1660e01b8152600401602060405180830381865afa158015611fc1573d6000803e3d6000fd5b505050506040513d601f19601f82011682018060405250810190611fe59190615815565b90506000609860009054906101000a90046001600160a01b03166001600160a01b031663b90b8a2a6040518163ffffffff1660e01b8152600401602060405180830381865afa15801561203c573d6000803e3d6000fd5b505050506040513d601f19601f820116820180604052508101906120609190615815565b905060005b84811015611646576098546040516329b71fb560e11b8152600481018690526000916001600160a01b03169063536e3f6a90602401600060405180830381865afa1580156120b7573d6000803e3d6000fd5b505050506040513d6000823e601f3d908101601f191682016040526120df9190810190615d17565b935050505060008183815181106120f8576120f8615aac565b602090810291909101015160985460405163b6ad185b60e01b81526001600160401b03831660048201529192506000916001600160a01b039091169063b6ad185b90602401602060405180830381865afa15801561215a573d6000803e3d6000fd5b505050506040513d601f19601f8201168201806040525081019061217e9190615815565b609854604051637e34c5a560e11b81526001600160401b03851660048201529192506000916001600160a01b039091169063fc698b4a90602401602060405180830381865afa1580156121d5573d6000803e3d6000fd5b505050506040513d601f19601f820116820180604052508101906121f99190615815565b6098546040516303b9c7bd60e31b8152600481018b90526001600160401b03861660248201529192506000916001600160a01b0390911690631dce3de890604401602060405180830381865afa158015612257573d6000803e3d6000fd5b505050506040513d601f19601f8201168201806040525081019061227b9190615815565b60008d815260a1602090815260408083206001600160401b03891680855292528083205460985491516302fc352760e61b815260048101939093529394506001600160a01b03169063bf0d49c090602401600060405180830381865afa1580156122e9573d6000803e3d6000fd5b505050506040513d6000823e601f3d908101601f191682016040526123119190810190615af7565b9050828d6123288468056bc75e2d63100000615b33565b6123329190615ad5565b101561237057609b546001600160401b03908116908716036123625761235d888f8f898989896138c5565b612370565b6123708e8e88868686613a1e565b5050600190950194506120659350505050565b60985460405163dd811ac960e01b81526001600160a01b03868116600483015285811660248301526044820185905262ffffff84166064830152600092169063dd811ac9906084015b602060405180830381865afa1580156123e9573d6000803e3d6000fd5b505050506040513d601f19601f82011682018060405250810190611e0e9190615815565b60985460405163773de9f160e11b81526001600160a01b03868116600483015285811660248301526001600160801b038516604483015262ffffff84166064830152600092169063ee7bd3e2906084016123cc565b6001600160a01b0381166124885760405162461bcd60e51b815260040161091690615cc7565b6065546001600160a01b038281169116146125005760405162461bcd60e51b815260206004820152603260248201527f50726f706f7361626c654f776e61626c653a206e6577206f776e6572206973206044820152713737ba10383937b837b9b2b21037bbb732b960711b6064820152608401610916565b6001600160a01b038116331461257e5760405162461bcd60e51b815260206004820152603a60248201527f50726f706f7361626c654f776e61626c653a20746869732063616c6c206d757360448201527f74206265206d61646520627920746865206e6577206f776e65720000000000006064820152608401610916565b6118f681613072565b600054610100900460ff166125ae5760405162461bcd60e51b815260040161091690615dbb565b6001600160a01b0381166125d8576040516335fdcccd60e21b815260006004820152602401610916565b600080546001600160a01b03909216620100000262010000600160b01b0319909216919091179055565b600054610100900460ff166126295760405162461bcd60e51b815260040161091690615dbb565b611661613e4d565b6033546001600160a01b031633146116615760405162461bcd60e51b815260206004820181905260248201527f4f776e61626c653a2063616c6c6572206973206e6f7420746865206f776e65726044820152606401610916565b60985460405163d1c68aa360e01b81526001600160401b03841660048201526000916001600160a01b03169063d1c68aa390602401600060405180830381865afa1580156126dd573d6000803e3d6000fd5b505050506040513d6000823e601f3d908101601f191682016040526127059190810190615e06565b90506000609860009054906101000a90046001600160a01b03166001600160a01b031663fbfa77cf6040518163ffffffff1660e01b8152600401602060405180830381865afa15801561275c573d6000803e3d6000fd5b505050506040513d601f19601f8201168201806040525081019061278091906157cf565b905060005b83811015612a2a5760008382815181106127a1576127a1615aac565b6020908102919091010151609854604051633259966560e01b81526001600160a01b03808416600483015292935060009290911690633259966590602401602060405180830381865afa1580156127fc573d6000803e3d6000fd5b505050506040513d601f19601f820116820180604052508101906128209190615caa565b609b549091506000906001600160a01b03600160401b9091048116908416036128b4576040516370a0823160e01b81526001600160a01b0386811660048301528416906370a0823190602401602060405180830381865afa158015612889573d6000803e3d6000fd5b505050506040513d601f19601f820116820180604052508101906128ad9190615815565b905061293b565b609b546040516370a0823160e01b81526001600160a01b038781166004830152612938928692600160401b9091048216918316906370a0823190602401602060405180830381865afa15801561290e573d6000803e3d6000fd5b505050506040513d601f19601f820116820180604052508101906129329190615815565b85612383565b90505b61294481611e17565b609c546000908152609d602052604081208054909190612965908490615802565b90915550612974905081611e17565b609c54600090815260a0602090815260408083206001600160a01b0388168452909152812080549091906129a9908490615802565b9091555050609c546000908152609f602052604081208054600192906129d0908490615802565b909155506129df905081611e17565b609c54600090815260a160209081526040808320609b546001600160401b0316845290915281208054909190612a16908490615802565b909155505060019093019250612785915050565b5050505050565b6000612a3c82610f29565b60985460405163d1c68aa360e01b81526001600160401b03851660048201529192506000916001600160a01b039091169063d1c68aa390602401600060405180830381865afa158015612a93573d6000803e3d6000fd5b505050506040513d6000823e601f3d908101601f19168201604052612abb9190810190615e06565b60985460405163221f337160e01b81526001600160401b03861660048201529192506000916001600160a01b039091169063221f337190602401600060405180830381865afa158015612b12573d6000803e3d6000fd5b505050506040513d6000823e601f3d908101601f19168201604052612b3a9190810190615af7565b60408051600080825260208201818152828401909352609c549394509092612b72906002908790869088908790818060608601615eb1565b6040516020818303038152906040529050612b908787836001611cea565b5050505050505050565b612ba26152c4565b6098546040805163fbfa77cf60e01b815290516000926001600160a01b03169163fbfa77cf9160048083019260209291908290030181865afa158015612bec573d6000803e3d6000fd5b505050506040513d601f19601f82011682018060405250810190612c1091906157cf565b60008a815260a1602090815260408083206001600160401b038c168452909152808220546060860152609b5490516370a0823160e01b81526001600160a01b0380851660048301529394509192600160401b90910416906370a0823190602401602060405180830381865afa158015612c8d573d6000803e3d6000fd5b505050506040513d601f19601f82011682018060405250810190612cb19190615815565b90506000806000612ccc8b8d8c8b8b8a8c606001518b613e7d565b925092509250612ce08b838b8b8b8a6141cb565b60008d8152609e602052604081208054839290612cfe908490615802565b90915550612d0e90508784615ac2565b60008e815260a4602052604081208054909190612d2c908490615802565b90915550505050505050505050505050505050565b600085612d578468056bc75e2d63100000615b33565b612d619190615ad5565b9050612d6d8482615ac2565b600088815260a4602052604081208054909190612d8b908490615802565b9091555060009050612d9c86610f29565b60985460405163d1c68aa360e01b81526001600160401b03891660048201529192506000916001600160a01b039091169063d1c68aa390602401600060405180830381865afa158015612df3573d6000803e3d6000fd5b505050506040513d6000823e601f3d908101601f19168201604052612e1b9190810190615e06565b609854604051633414329f60e21b81526001600160401b038a1660048201529192506000916001600160a01b039091169063d050ca7c90602401600060405180830381865afa158015612e72573d6000803e3d6000fd5b505050506040513d6000823e601f3d908101601f19168201604052612e9a9190810190615e06565b60985460405163221f337160e01b81526001600160401b038b1660048201529192506000916001600160a01b039091169063221f337190602401600060405180830381865afa158015612ef1573d6000803e3d6000fd5b505050506040513d6000823e601f3d908101601f19168201604052612f199190810190615af7565b609854604051631435bff160e31b81526001600160401b038c1660048201529192506000916001600160a01b039091169063a1adff8890602401600060405180830381865afa158015612f70573d6000803e3d6000fd5b505050506040513d6000823e601f3d908101601f19168201604052612f989190810190615af7565b6040805160038082526080820190925291925060009190602082016060803683370190505090508b81600081518110612fd357612fd3615aac565b6020026020010181815250508981600181518110612ff357612ff3615aac565b602002602001018181525050888160028151811061301357613013615aac565b6020026020010181815250506000600386868686609c548e88604051602001613043989796959493929190615eb1565b60405160208183030381529060405290506130618c88836001611cea565b505050505050505050505050505050565b603380546001600160a01b038381166001600160a01b0319831681179093556040519116919082907f8be0079c531659141344cd1fd0a4f28419497f9722a3daafe3b4186f6b6457e090600090a35050565b60006001600160a01b0385166131165760405162461bcd60e51b8152602060048201526017602482015276496e76616c696420746f6b656e496e206164647265737360481b6044820152606401610916565b6001600160a01b0384166131675760405162461bcd60e51b8152602060048201526018602482015277496e76616c696420746f6b656e4f7574206164647265737360401b6044820152606401610916565b600083116131b75760405162461bcd60e51b815260206004820181905260248201527f416d6f756e74206d7573742062652067726561746572207468616e207a65726f6044820152606401610916565b62ffffff8616156131d7576131d0888787878787614464565b90506131e7565b6131e487868686866145b9565b90505b979650505050505050565b805160208083015160408401518051919260009261321692908101820191016157cf565b905060008060008060008089606001518060200190518101906132399190615f46565b95509550955095509550955085600003156134d457600186146134d457856002036133b25760005b82518110156133ac5782818151811061327c5761327c615aac565b6020026020010151609d600086815260200190815260200160002060008282546132a69190615802565b925050819055508281815181106132bf576132bf615aac565b602002602001015160a0600086815260200190815260200160002060008884815181106132ee576132ee615aac565b60200260200101516001600160a01b03166001600160a01b0316815260200190815260200160002060008282546133259190615802565b9250508190555082818151811061333e5761333e615aac565b602090810291909101810151600086815260a1835260408082206001600160401b038e16835290935291822080549192909161337b908490615802565b90915550506000848152609f6020526040812080546001929061339f908490615802565b9091555050600101613261565b506134d4565b856003036134635760008a6080015190506000816000815181106133d8576133d8615aac565b60200260200101516000015190506000826000815181106133fb576133fb615aac565b6020026020010151602001519050600061342f83609b60089054906101000a90046001600160a01b03168430610bb8611663565b905080609e600089815260200190815260200160002060008282546134549190615802565b909155506134d4945050505050565b856004036134d457609860009054906101000a90046001600160a01b03166001600160a01b0316638baa6bf16040518163ffffffff1660e01b8152600401600060405180830381600087803b1580156134bb57600080fd5b505af11580156134cf573d6000803e3d6000fd5b505050505b50505050505050505050565b60006001600160a01b0387166135385760405162461bcd60e51b815260206004820152601860248201527f496e76616c696420695f726f75746572206164647265737300000000000000006044820152606401610916565b6001600160a01b0386166135875760405162461bcd60e51b8152602060048201526016602482015275496e76616c696420695f6c696e6b206164647265737360501b6044820152606401610916565b846001600160401b03166000036135e05760405162461bcd60e51b815260206004820181905260248201527f496e76616c69642064657374696e6174696f6e436861696e53656c6563746f726044820152606401610916565b6001600160a01b0384166136315760405162461bcd60e51b8152602060048201526018602482015277496e76616c6964207265636569766572206164647265737360401b6044820152606401610916565b60008351116136715760405162461bcd60e51b815260206004820152600c60248201526b496e76616c6964206461746160a01b6044820152606401610916565b6040805160a0810182526001600160a01b03861660c0808301919091528251808303909101815260e082018352815260208082018690528251600080825291810184529092820190836136e6565b60408051808201909152600080825260208201528152602001906001900390816136bf5790505b508152602001600185600181111561370057613700616017565b1461370c57600061370e565b885b6001600160a01b031681526020016137366040518060200160405280622dc6c08152506147b1565b90526040516320487ded60e01b81529091506000906001600160a01b038a16906320487ded9061376c908a908690600401616073565b602060405180830381865afa158015613789573d6000803e3d6000fd5b505050506040513d601f19601f820116820180604052508101906137ad9190615815565b9050600060018560018111156137c5576137c5616017565b03613842576040516396f4e9f960e01b81526001600160a01b038b16906396f4e9f9906137f8908b908790600401616073565b6020604051808303816000875af1158015613817573d6000803e3d6000fd5b505050506040513d601f19601f8201168201806040525081019061383b9190615815565b90506138b8565b6040516396f4e9f960e01b81526001600160a01b038b16906396f4e9f9908490613872908c908890600401616073565b60206040518083038185885af1158015613890573d6000803e3d6000fd5b50505050506040513d601f19601f820116820180604052508101906138b59190615815565b90505b9998505050505050505050565b6098546040805163fbfa77cf60e01b815290516000926001600160a01b03169163fbfa77cf9160048083019260209291908290030181865afa15801561390f573d6000803e3d6000fd5b505050506040513d601f19601f8201168201806040525081019061393391906157cf565b905061393d615301565b600088815260a1602090815260408083206001600160401b038a16845290915290205460608201819052613978908390889088908b906147ee565b60808201526060810151600090889061399a9068056bc75e2d63100000615b33565b6139a49190615ad5565b905060006139b28286615ac2565b60008b815260a46020908152604080832054609e90925282205492935090916139dc908490615b33565b6139e69190615ad5565b905080846080018181516139fa9190615802565b9052506080840151613a109086908b9089614bf2565b505050505050505050505050565b613a506040518060a0016040528060608152602001606081526020016060815260200160608152602001606081525090565b600086613a668568056bc75e2d63100000615b33565b613a709190615ad5565b90506000613a7e8287615ac2565b60008a815260a46020908152604080832054609e9092528220549293509091613aa8908490615b33565b613ab29190615ad5565b90506000613abf89610f29565b90506000613aef609b60089054906101000a90046001600160a01b0316613ae58c610c4a565b8530610bb8611663565b60985460405163d1c68aa360e01b81526001600160401b038d1660048201529192506001600160a01b03169063d1c68aa390602401600060405180830381865afa158015613b41573d6000803e3d6000fd5b505050506040513d6000823e601f3d908101601f19168201604052613b699190810190615e06565b8652609854604051633414329f60e21b81526001600160401b038c1660048201526001600160a01b039091169063d050ca7c90602401600060405180830381865afa158015613bbc573d6000803e3d6000fd5b505050506040513d6000823e601f3d908101601f19168201604052613be49190810190615e06565b602087015260985460405163221f337160e01b81526001600160401b038c1660048201526001600160a01b039091169063221f337190602401600060405180830381865afa158015613c3a573d6000803e3d6000fd5b505050506040513d6000823e601f3d908101601f19168201604052613c629190810190615af7565b6040878101919091526098549051631435bff160e31b81526001600160401b038c1660048201526001600160a01b039091169063a1adff8890602401600060405180830381865afa158015613cbb573d6000803e3d6000fd5b505050506040513d6000823e601f3d908101601f19168201604052613ce39190810190615af7565b606087810191909152604080516002808252928101825291906020830190803683375050506080870181905280518c9190600090613d2357613d23615aac565b602002602001018181525050888660800151600181518110613d4757613d47615aac565b6020908102919091010152604080516001808252818301909252600091816020015b6040805180820190915260008082526020820152815260200190600190039081613d69579050509050613d9b8b610c4a565b81600081518110613dae57613dae615aac565b6020026020010151600001906001600160a01b031690816001600160a01b0316815250508181600081518110613de657613de6615aac565b6020026020010151602001818152505060006004886000015189602001518a604001518b60600151609c548e8e60800151604051602001613e2e989796959493929190615eb1565b60405160208183030381529060405290506134cf8c8286856001614ea4565b600054610100900460ff16613e745760405162461bcd60e51b815260040161091690615dbb565b61166133613072565b60985460405163d1c68aa360e01b81526001600160401b038a16600482015260009182918291829182916001600160a01b03169063d1c68aa390602401600060405180830381865afa158015613ed7573d6000803e3d6000fd5b505050506040513d6000823e601f3d908101601f19168201604052613eff9190810190615e06565b905060005b815181101561417757613f156152c4565b828281518110613f2757613f27615aac565b60209081029190910101516001600160a01b03908116808352609854604051633259966560e01b8152600481019290925290911690633259966590602401602060405180830381865afa158015613f82573d6000803e3d6000fd5b505050506040513d601f19601f82011682018060405250810190613fa69190615caa565b62ffffff166020820152609b5481516000916001600160a01b03600160401b909104811691160361404e578151604051631c20fadd60e01b81526001600160a01b038d1691631c20fadd91614002919030908e90600401616148565b6020604051808303816000875af1158015614021573d6000803e3d6000fd5b505050506040513d601f19601f8201168201806040525081019061404591906157ad565b50889050614161565b81516040516370a0823160e01b81526001600160a01b038d8116600483015260009216906370a0823190602401602060405180830381865afa158015614098573d6000803e3d6000fd5b505050506040513d601f19601f820116820180604052508101906140bc9190615815565b8351604051631c20fadd60e01b81529192506001600160a01b038e1691631c20fadd916140ef9130908690600401616148565b6020604051808303816000875af115801561410e573d6000803e3d6000fd5b505050506040513d601f19601f8201168201806040525081019061413291906157ad565b5061415d8360000151609b60089054906101000a90046001600160a01b031683308760200151611663565b9150505b61416b8186615802565b94505050600101613f04565b508b61418c8868056bc75e2d63100000615b33565b6141969190615ad5565b9450846141a38a84615b33565b6141ad9190615ad5565b93506141b98483615ac2565b92505050985098509895505050505050565b609854604051633414329f60e21b81526001600160401b03881660048201526000916001600160a01b03169063d050ca7c90602401600060405180830381865afa15801561421d573d6000803e3d6000fd5b505050506040513d6000823e601f3d908101601f191682016040526142459190810190615e06565b905060005b8151811015612b9057600082828151811061426757614267615aac565b6020908102919091010151609854604051633259966560e01b81526001600160a01b03808416600483015292935060009290911690633259966590602401602060405180830381865afa1580156142c2573d6000803e3d6000fd5b505050506040513d601f19601f820116820180604052508101906142e69190615caa565b60985460405162967c1760e71b81526001600160a01b03858116600483015292935060009290911690634b3e0b8090602401602060405180830381865afa158015614335573d6000803e3d6000fd5b505050506040513d601f19601f820116820180604052508101906143599190615815565b609b549091506000906001600160a01b03600160401b9091048116908516036144195787614387838d615b33565b6143919190615ad5565b609b5460405163a9059cbb60e01b81526001600160a01b038a8116600483015260248201849052929350600160401b9091049091169063a9059cbb906044016020604051808303816000875af11580156143ef573d6000803e3d6000fd5b505050506040513d601f19601f8201168201806040525081019061441391906157ad565b50614454565b614451609b60089054906101000a90046001600160a01b0316858a858f6144409190615b33565b61444a9190615ad5565b8a87611663565b90505b50506001909201915061424a9050565b60405163095ea7b360e01b81526001600160a01b038781166004830152602482018490526000919086169063095ea7b3906044016020604051808303816000875af11580156144b7573d6000803e3d6000fd5b505050506040513d601f19601f820116820180604052508101906144db91906157ad565b506000604051806101000160405280876001600160a01b03168152602001866001600160a01b031681526020018862ffffff168152602001846001600160a01b031681526020014261012c6145309190615802565b815260208101869052600060408083018290526060909201525163414bf38960e01b81529091506001600160a01b0389169063414bf3899061457690849060040161616c565b6020604051808303816000875af1158015614595573d6000803e3d6000fd5b505050506040513d601f19601f820116820180604052508101906118a69190615815565b6040805160028082526060820183526000928392919060208301908036833701905050905085816000815181106145f2576145f2615aac565b60200260200101906001600160a01b031690816001600160a01b031681525050848160018151811061462657614626615aac565b6001600160a01b03928316602091820292909201015260405163d06ca61f60e01b815260009189169063d06ca61f9061466590889086906004016161e9565b600060405180830381865afa158015614682573d6000803e3d6000fd5b505050506040513d6000823e601f3d908101601f191682016040526146aa9190810190615af7565b60405163095ea7b360e01b81526001600160a01b038a81166004830152602482018890529192509088169063095ea7b3906044016020604051808303816000875af11580156146fd573d6000803e3d6000fd5b505050506040513d601f19601f8201168201806040525081019061472191906157ad565b50604051635c11d79560e01b81526001600160a01b03891690635c11d7959061475790889060009087908a904290600401616202565b600060405180830381600087803b15801561477157600080fd5b505af1158015614785573d6000803e3d6000fd5b505050508060018151811061479c5761479c615aac565b60200260200101519250505095945050505050565b60408051915160248084019190915281518084039091018152604490920190526020810180516001600160e01b03166397a657c960e01b17905290565b60006147f8615301565b6098546040805163fbfa77cf60e01b815290516000926001600160a01b03169163fbfa77cf9160048083019260209291908290030181865afa158015614842573d6000803e3d6000fd5b505050506040513d601f19601f8201168201806040525081019061486691906157cf565b609b546040516370a0823160e01b81526001600160a01b038084166004830152929350600092600160401b909204909116906370a0823190602401602060405180830381865afa1580156148be573d6000803e3d6000fd5b505050506040513d601f19601f820116820180604052508101906148e29190615815565b60985460405163d1c68aa360e01b81526001600160401b038b1660048201529192506000916001600160a01b039091169063d1c68aa390602401600060405180830381865afa158015614939573d6000803e3d6000fd5b505050506040513d6000823e601f3d908101601f191682016040526149619190810190615e06565b905060005b8151811015614be05781818151811061498157614981615aac565b60209081029190910101516001600160a01b03908116808752609854604051633259966560e01b8152600481019290925290911690633259966590602401602060405180830381865afa1580156149dc573d6000803e3d6000fd5b505050506040513d601f19601f82011682018060405250810190614a009190615caa565b62ffffff166020860152609b5485516001600160a01b03600160401b9092048216911603614aa9578451604051631c20fadd60e01b81526001600160a01b03861691631c20fadd91614a59919030908890600401616148565b6020604051808303816000875af1158015614a78573d6000803e3d6000fd5b505050506040513d601f19601f82011682018060405250810190614a9c91906157ad565b5060a08501839052614bbf565b84516040516370a0823160e01b81526001600160a01b03868116600483015260009216906370a0823190602401602060405180830381865afa158015614af3573d6000803e3d6000fd5b505050506040513d601f19601f82011682018060405250810190614b179190615815565b8651604051631c20fadd60e01b81529192506001600160a01b03871691631c20fadd91614b4a9130908690600401616148565b6020604051808303816000875af1158015614b69573d6000803e3d6000fd5b505050506040513d601f19601f82011682018060405250810190614b8d91906157ad565b50614bb88660000151609b60089054906101000a90046001600160a01b031683308a60200151611663565b60a0870152505b8460a0015185608001818151614bd59190615802565b905250600101614966565b50505050608001519695505050505050565b614bfa615301565b60808101839052609854604051633414329f60e21b81526001600160401b03861660048201526000916001600160a01b03169063d050ca7c90602401600060405180830381865afa158015614c53573d6000803e3d6000fd5b505050506040513d6000823e601f3d908101601f19168201604052614c7b9190810190615e06565b905060005b8151811015611646576000828281518110614c9d57614c9d615aac565b6020908102919091010151609854604051633259966560e01b81526001600160a01b03808416600483015292935060009290911690633259966590602401602060405180830381865afa158015614cf8573d6000803e3d6000fd5b505050506040513d601f19601f82011682018060405250810190614d1c9190615caa565b60985460405162967c1760e71b81526001600160a01b03858116600483015292935060009290911690634b3e0b8090602401602060405180830381865afa158015614d6b573d6000803e3d6000fd5b505050506040513d601f19601f82011682018060405250810190614d8f9190615815565b609b549091506001600160a01b03600160401b909104811690841603614e575786818760800151614dc09190615b33565b614dca9190615ad5565b60a08701819052609b5460405163a9059cbb60e01b81526001600160a01b038d811660048301526024820193909352600160401b9091049091169063a9059cbb906044016020604051808303816000875af1158015614e2d573d6000803e3d6000fd5b505050506040513d601f19601f82011682018060405250810190614e5191906157ad565b50614e99565b614e93609b60089054906101000a90046001600160a01b03168489848a60800151614e829190615b33565b614e8c9190615ad5565b8d86611663565b60a08701525b505050600101614c80565b8151609954600160a01b900461ffff16811115614f295760405162461bcd60e51b815260206004820152603760248201527f4d6178696d756d203520646966666572656e7420746f6b656e732063616e206260448201527f652073656e74207065722043434950204d6573736167650000000000000000006064820152608401610916565b60005b8181101561504f5760995484516001600160a01b0390911690859083908110614f5757614f57615aac565b6020026020010151600001516001600160a01b03161461504757838181518110614f8357614f83615aac565b6020026020010151600001516001600160a01b031663095ea7b3600060029054906101000a90046001600160a01b0316868481518110614fc557614fc5615aac565b6020026020010151602001516040518363ffffffff1660e01b81526004016150029291906001600160a01b03929092168252602082015260400190565b6020604051808303816000875af1158015615021573d6000803e3d6000fd5b505050506040513d601f19601f8201168201806040525081019061504591906157ad565b505b600101614f2c565b506040805160a081019091526001600160a01b03851660c08201526000908060e0810160408051601f1981840301815291815290825260208201899052810186905260600160018560018111156150a8576150a8616017565b146150b45760006150c1565b6099546001600160a01b03165b6001600160a01b031681526020016150e96040518060200160405280620dbba08152506147b1565b9052600080546040516320487ded60e01b81529293509091620100009091046001600160a01b0316906320487ded90615128908b908690600401616073565b602060405180830381865afa158015615145573d6000803e3d6000fd5b505050506040513d601f19601f820116820180604052508101906151699190615815565b90506000600185600181111561518157615181616017565b03615207576000546040516396f4e9f960e01b8152620100009091046001600160a01b0316906396f4e9f9906151bd908c908790600401616073565b6020604051808303816000875af11580156151dc573d6000803e3d6000fd5b505050506040513d601f19601f820116820180604052508101906152009190615815565b9050615286565b6000546040516396f4e9f960e01b8152620100009091046001600160a01b0316906396f4e9f9908490615240908d908890600401616073565b60206040518083038185885af115801561525e573d6000803e3d6000fd5b50505050506040513d601f19601f820116820180604052508101906152839190615815565b90505b6040518181527f54791b38f3859327992a1ca0590ad3c0f08feba98d1a4f56ab0dca74d203392a9060200160405180910390a1505050505050505050565b6040518060a0016040528060006001600160a01b03168152602001600062ffffff1681526020016000815260200160008152602001600081525090565b6040518060c0016040528060006001600160a01b03168152602001600062ffffff168152602001600081526020016000815260200160008152602001600081525090565b60006020828403121561535757600080fd5b81356001600160e01b03198116811461536f57600080fd5b9392505050565b60006020828403121561538857600080fd5b5035919050565b6001600160401b03811681146118f657600080fd5b80356153af8161538f565b919050565b6001600160a01b03811681146118f657600080fd5b600080600080600060a086880312156153e157600080fd5b85356153ec8161538f565b945060208601356153fc816153b4565b9350604086013561540c816153b4565b9250606086013561541c816153b4565b9150608086013561542c816153b4565b809150509295509295909350565b60006020828403121561544c57600080fd5b813561536f8161538f565b60006020828403121561546957600080fd5b813560ff8116811461536f57600080fd5b6000806040838503121561548d57600080fd5b82359150602083013561549f8161538f565b809150509250929050565b62ffffff811681146118f657600080fd5b600080600080600060a086880312156154d357600080fd5b85356154de816153b4565b945060208601356154ee816153b4565b9350604086013592506060860135615505816153b4565b9150608086013561542c816154aa565b60006020828403121561552757600080fd5b81356001600160401b0381111561553d57600080fd5b820160a0818503121561536f57600080fd5b6000806040838503121561556257600080fd5b82359150602083013561549f816153b4565b60006020828403121561558657600080fd5b813561536f816153b4565b634e487b7160e01b600052604160045260246000fd5b604080519081016001600160401b03811182821017156155c9576155c9615591565b60405290565b60405160a081016001600160401b03811182821017156155c9576155c9615591565b604051601f8201601f191681016001600160401b038111828210171561561957615619615591565b604052919050565b600082601f83011261563257600080fd5b81356001600160401b0381111561564b5761564b615591565b61565e601f8201601f19166020016155f1565b81815284602083860101111561567357600080fd5b816020850160208301376000918101602001919091529392505050565b600080600080608085870312156156a657600080fd5b84356156b18161538f565b935060208501356156c1816153b4565b925060408501356001600160401b038111156156dc57600080fd5b6156e887828801615621565b9250506060850135600281106156fd57600080fd5b939692955090935050565b6000806000806080858703121561571e57600080fd5b8435615729816153b4565b93506020850135615739816153b4565b92506040850135915060608501356156fd816154aa565b6000806000806080858703121561576657600080fd5b8435615771816153b4565b93506020850135615781816153b4565b925060408501356001600160801b038116811461579d57600080fd5b915060608501356156fd816154aa565b6000602082840312156157bf57600080fd5b8151801515811461536f57600080fd5b6000602082840312156157e157600080fd5b815161536f816153b4565b634e487b7160e01b600052601160045260246000fd5b80820180821115610877576108776157ec565b60006020828403121561582757600080fd5b5051919050565b60006001600160401b0382111561584757615847615591565b5060051b60200190565b600082601f83011261586257600080fd5b81516158756158708261582e565b6155f1565b8082825260208201915060208360051b86010192508583111561589757600080fd5b602085015b838110156158bd5780516158af816153b4565b83526020928301920161589c565b5095945050505050565b600082601f8301126158d857600080fd5b81516158e66158708261582e565b8082825260208201915060208360051b86010192508583111561590857600080fd5b602085015b838110156158bd57805183526020928301920161590d565b600082601f83011261593657600080fd5b81516159446158708261582e565b8082825260208201915060208360051b86010192508583111561596657600080fd5b602085015b838110156158bd57805161597e8161538f565b83526020928301920161596b565b600080600080608085870312156159a257600080fd5b84516001600160401b038111156159b857600080fd5b6159c487828801615851565b94505060208501516001600160401b038111156159e057600080fd5b6159ec878288016158c7565b93505060408501516001600160401b03811115615a0857600080fd5b8501601f81018713615a1957600080fd5b8051615a276158708261582e565b8082825260208201915060208360051b850101925089831115615a4957600080fd5b6020840193505b82841015615a74578351615a63816154aa565b825260209384019390910190615a50565b8095505050505060608501516001600160401b03811115615a9457600080fd5b615aa087828801615925565b91505092959194509250565b634e487b7160e01b600052603260045260246000fd5b81810381811115610877576108776157ec565b600082615af257634e487b7160e01b600052601260045260246000fd5b500490565b600060208284031215615b0957600080fd5b81516001600160401b03811115615b1f57600080fd5b615b2b848285016158c7565b949350505050565b8082028115828204841417610877576108776157ec565b600082601f830112615b5b57600080fd5b8135615b696158708261582e565b8082825260208201915060208360061b860101925085831115615b8b57600080fd5b602085015b838110156158bd5760408188031215615ba857600080fd5b615bb06155a7565b8135615bbb816153b4565b8152602082810135818301529084529290920191604001615b90565b600060a08236031215615be957600080fd5b615bf16155cf565b82358152615c01602084016153a4565b602082015260408301356001600160401b03811115615c1f57600080fd5b615c2b36828601615621565b60408301525060608301356001600160401b03811115615c4a57600080fd5b615c5636828601615621565b60608301525060808301356001600160401b03811115615c7557600080fd5b615c8136828601615b4a565b60808301525092915050565b600060208284031215615c9f57600080fd5b815161536f8161538f565b600060208284031215615cbc57600080fd5b815161536f816154aa565b60208082526030908201527f50726f706f7361626c654f776e61626c653a206e6577206f776e65722069732060408201526f746865207a65726f206164647265737360801b606082015260800190565b60008060008060808587031215615d2d57600080fd5b84516001600160401b03811115615d4357600080fd5b615d4f87828801615851565b94505060208501516001600160401b03811115615d6b57600080fd5b615d77878288016158c7565b93505060408501516001600160401b03811115615d9357600080fd5b615d9f878288016158c7565b92505060608501516001600160401b03811115615a9457600080fd5b6020808252602b908201527f496e697469616c697a61626c653a20636f6e7472616374206973206e6f74206960408201526a6e697469616c697a696e6760a81b606082015260800190565b600060208284031215615e1857600080fd5b81516001600160401b03811115615e2e57600080fd5b615b2b84828501615851565b600081518084526020840193506020830160005b82811015615e755781516001600160a01b0316865260209586019590910190600101615e4e565b5093949350505050565b600081518084526020840193506020830160005b82811015615e75578151865260209586019590910190600101615e93565b60ff8916815261010060208201526000615ecf61010083018a615e3a565b8281036040840152615ee1818a615e3a565b90508281036060840152615ef58189615e7f565b90508281036080840152615f098188615e7f565b90508560a084015282810360c0840152615f238186615e7f565b905082810360e0840152615f378185615e7f565b9b9a5050505050505050505050565b60008060008060008060c08789031215615f5f57600080fd5b865160208801519096506001600160401b03811115615f7d57600080fd5b615f8989828a01615851565b95505060408701516001600160401b03811115615fa557600080fd5b615fb189828a01615851565b606089015160808a0151919650945090506001600160401b03811115615fd657600080fd5b615fe289828a016158c7565b92505060a08701516001600160401b03811115615ffe57600080fd5b61600a89828a016158c7565b9150509295509295509295565b634e487b7160e01b600052602160045260246000fd5b6000815180845260005b8181101561605357602081850181015186830182015201616037565b506000602082860101526020601f19601f83011685010191505092915050565b6001600160401b0383168152604060208201526000825160a0604084015261609e60e084018261602d565b90506020840151603f198483030160608501526160bb828261602d565b6040860151858203603f19016080870152805180835260209182019450600093509101905b8083101561611757835180516001600160a01b031683526020908101518184015290930192600192909201916040909101906160e0565b5060608601516001600160a01b031660a08601526080860151858203603f190160c087015292506131e7818461602d565b6001600160a01b039384168152919092166020820152604081019190915260600190565b81516001600160a01b03908116825260208084015182169083015260408084015162ffffff169083015260608084015191821690830152610100820190506080830151608083015260a083015160a083015260c083015160c083015260e08301516161e260e08401826001600160a01b03169052565b5092915050565b828152604060208201526000615b2b6040830184615e3a565b85815284602082015260a06040820152600061622160a0830186615e3a565b6001600160a01b039490941660608301525060800152939250505056fea2646970667358221220e0a78f88dc9fb0f512cf76afe8c9d9622b9c48a81f79a3436e00e2ea64b7f69564736f6c634300081a0033","linkReferences":{}},"methodIdentifiers":{"askValues()":"2700cc86","ccipReceive((bytes32,uint64,bytes,bytes,(address,uint256)[]))":"85572ffb","chainValueByNonce(uint256,uint64)":"69abf538","convertEthToUsd(uint256)":"c086381e","crossChainFactoryBySelector(uint64)":"340fbc74","crossChainToken(uint64)":"19da7e2a","currentChainSelector()":"3d54cb6f","estimateAmountOut(address,address,uint128,uint24)":"ee7bd3e2","extraWethByNonce(uint256)":"756c1fd1","factoryStorage()":"c06e1ae2","feeRate()":"978bbdb9","firstReweightAction()":"63713a8b","getAmountOut(address,address,uint256,uint24)":"dd811ac9","getPortfolioBalance()":"a8509fd8","getRouter()":"b0f479a1","i_link()":"7d253aff","i_maxTokensLength()":"5b6a0351","initialize(uint64,address,address,address,address)":"16b487ff","latestFeeUpdate()":"011ced5f","owner()":"8da5cb5b","portfolioTotalValueByNonce(uint256)":"7d3546f7","priceInWei()":"3c8da588","proposeOwner(address)":"b5ed298a","proposedOwner()":"d153b60c","redemptionNonceOutputToken(uint256)":"0603fb05","redemptionNonceOutputTokenSwapFee(uint256)":"afcaa952","renounceOwnership()":"715018a6","reweightExtraPercentage(uint256)":"814ffd71","reweightTokensCount(uint256)":"78324463","reweightWethValueByNonce(uint256)":"f1639b09","secondReweightAction()":"d79e8d65","sendMessage(uint64,address,bytes,uint8)":"bcab90b3","setFeeRate(uint8)":"5177942a","setIndexFactoryStorage(address)":"cc8659ae","supportsInterface(bytes4)":"01ffc9a7","swap(address,address,uint256,address,uint24)":"7e79f512","tokenValueByNonce(uint256,address)":"b316e7fd","transferOwnership(address)":"f2fde38b","updatePortfolioNonce()":"003cf402","updatedTokensValueCount(uint256)":"c070a097","weth()":"3fc8cef3"},"id":4}