{"abi":[{"type":"receive","stateMutability":"payable"},{"type":"function","name":"askValues","inputs":[],"outputs":[],"stateMutability":"nonpayable"},{"type":"function","name":"ccipReceive","inputs":[{"name":"message","type":"tuple","internalType":"struct Client.Any2EVMMessage","components":[{"name":"messageId","type":"bytes32","internalType":"bytes32"},{"name":"sourceChainSelector","type":"uint64","internalType":"uint64"},{"name":"sender","type":"bytes","internalType":"bytes"},{"name":"data","type":"bytes","internalType":"bytes"},{"name":"destTokenAmounts","type":"tuple[]","internalType":"struct Client.EVMTokenAmount[]","components":[{"name":"token","type":"address","internalType":"address"},{"name":"amount","type":"uint256","internalType":"uint256"}]}]}],"outputs":[],"stateMutability":"nonpayable"},{"type":"function","name":"chainValueByNonce","inputs":[{"name":"","type":"uint256","internalType":"uint256"},{"name":"","type":"uint64","internalType":"uint64"}],"outputs":[{"name":"","type":"uint256","internalType":"uint256"}],"stateMutability":"view"},{"type":"function","name":"convertEthToUsd","inputs":[{"name":"_ethAmount","type":"uint256","internalType":"uint256"}],"outputs":[{"name":"","type":"uint256","internalType":"uint256"}],"stateMutability":"view"},{"type":"function","name":"crossChainFactoryBySelector","inputs":[{"name":"_chainSelector","type":"uint64","internalType":"uint64"}],"outputs":[{"name":"","type":"address","internalType":"address"}],"stateMutability":"view"},{"type":"function","name":"crossChainToken","inputs":[{"name":"_chainSelector","type":"uint64","internalType":"uint64"}],"outputs":[{"name":"","type":"address","internalType":"address"}],"stateMutability":"view"},{"type":"function","name":"currentChainSelector","inputs":[],"outputs":[{"name":"","type":"uint64","internalType":"uint64"}],"stateMutability":"view"},{"type":"function","name":"estimateAmountOut","inputs":[{"name":"tokenIn","type":"address","internalType":"address"},{"name":"tokenOut","type":"address","internalType":"address"},{"name":"amountIn","type":"uint128","internalType":"uint128"},{"name":"fee","type":"uint24","internalType":"uint24"}],"outputs":[{"name":"amountOut","type":"uint256","internalType":"uint256"}],"stateMutability":"view"},{"type":"function","name":"extraWethByNonce","inputs":[{"name":"","type":"uint256","internalType":"uint256"}],"outputs":[{"name":"","type":"uint256","internalType":"uint256"}],"stateMutability":"view"},{"type":"function","name":"factoryStorage","inputs":[],"outputs":[{"name":"","type":"address","internalType":"contract IndexFactoryStorage"}],"stateMutability":"view"},{"type":"function","name":"feeRate","inputs":[],"outputs":[{"name":"","type":"uint8","internalType":"uint8"}],"stateMutability":"view"},{"type":"function","name":"firstReweightAction","inputs":[],"outputs":[],"stateMutability":"nonpayable"},{"type":"function","name":"getAmountOut","inputs":[{"name":"tokenIn","type":"address","internalType":"address"},{"name":"tokenOut","type":"address","internalType":"address"},{"name":"amountIn","type":"uint256","internalType":"uint256"},{"name":"_swapFee","type":"uint24","internalType":"uint24"}],"outputs":[{"name":"finalAmountOut","type":"uint256","internalType":"uint256"}],"stateMutability":"view"},{"type":"function","name":"getPortfolioBalance","inputs":[],"outputs":[{"name":"","type":"uint256","internalType":"uint256"}],"stateMutability":"view"},{"type":"function","name":"getRouter","inputs":[],"outputs":[{"name":"","type":"address","internalType":"address"}],"stateMutability":"view"},{"type":"function","name":"i_link","inputs":[],"outputs":[{"name":"","type":"address","internalType":"address"}],"stateMutability":"view"},{"type":"function","name":"i_maxTokensLength","inputs":[],"outputs":[{"name":"","type":"uint16","internalType":"uint16"}],"stateMutability":"view"},{"type":"function","name":"indexToken","inputs":[],"outputs":[{"name":"","type":"address","internalType":"contract IndexToken"}],"stateMutability":"view"},{"type":"function","name":"initialize","inputs":[{"name":"_currentChainSelector","type":"uint64","internalType":"uint64"},{"name":"_token","type":"address","internalType":"address payable"},{"name":"_factoryStorage","type":"address","internalType":"address"},{"name":"_chainlinkToken","type":"address","internalType":"address"},{"name":"_router","type":"address","internalType":"address"},{"name":"_weth","type":"address","internalType":"address"}],"outputs":[],"stateMutability":"nonpayable"},{"type":"function","name":"latestFeeUpdate","inputs":[],"outputs":[{"name":"","type":"uint256","internalType":"uint256"}],"stateMutability":"view"},{"type":"function","name":"owner","inputs":[],"outputs":[{"name":"","type":"address","internalType":"address"}],"stateMutability":"view"},{"type":"function","name":"portfolioTotalValueByNonce","inputs":[{"name":"","type":"uint256","internalType":"uint256"}],"outputs":[{"name":"","type":"uint256","internalType":"uint256"}],"stateMutability":"view"},{"type":"function","name":"priceInWei","inputs":[],"outputs":[{"name":"","type":"uint256","internalType":"uint256"}],"stateMutability":"view"},{"type":"function","name":"proposeOwner","inputs":[{"name":"_proposedOwner","type":"address","internalType":"address"}],"outputs":[],"stateMutability":"nonpayable"},{"type":"function","name":"proposedOwner","inputs":[],"outputs":[{"name":"","type":"address","internalType":"address"}],"stateMutability":"view"},{"type":"function","name":"redemptionNonceOutputToken","inputs":[{"name":"","type":"uint256","internalType":"uint256"}],"outputs":[{"name":"","type":"address","internalType":"address"}],"stateMutability":"view"},{"type":"function","name":"redemptionNonceOutputTokenSwapFee","inputs":[{"name":"","type":"uint256","internalType":"uint256"}],"outputs":[{"name":"","type":"uint256","internalType":"uint256"}],"stateMutability":"view"},{"type":"function","name":"renounceOwnership","inputs":[],"outputs":[],"stateMutability":"nonpayable"},{"type":"function","name":"reweightExtraPercentage","inputs":[{"name":"","type":"uint256","internalType":"uint256"}],"outputs":[{"name":"","type":"uint256","internalType":"uint256"}],"stateMutability":"view"},{"type":"function","name":"reweightTokensCount","inputs":[{"name":"","type":"uint256","internalType":"uint256"}],"outputs":[{"name":"","type":"uint256","internalType":"uint256"}],"stateMutability":"view"},{"type":"function","name":"reweightWethValueByNonce","inputs":[{"name":"","type":"uint256","internalType":"uint256"}],"outputs":[{"name":"","type":"uint256","internalType":"uint256"}],"stateMutability":"view"},{"type":"function","name":"secondReweightAction","inputs":[],"outputs":[],"stateMutability":"nonpayable"},{"type":"function","name":"sendMessage","inputs":[{"name":"destinationChainSelector","type":"uint64","internalType":"uint64"},{"name":"receiver","type":"address","internalType":"address"},{"name":"_data","type":"bytes","internalType":"bytes"},{"name":"payFeesIn","type":"uint8","internalType":"enum IndexFactoryBalancer.PayFeesIn"}],"outputs":[],"stateMutability":"nonpayable"},{"type":"function","name":"setFeeRate","inputs":[{"name":"_newFee","type":"uint8","internalType":"uint8"}],"outputs":[],"stateMutability":"nonpayable"},{"type":"function","name":"setIndexFactoryStorage","inputs":[{"name":"_factoryStorage","type":"address","internalType":"address"}],"outputs":[],"stateMutability":"nonpayable"},{"type":"function","name":"supportsInterface","inputs":[{"name":"interfaceId","type":"bytes4","internalType":"bytes4"}],"outputs":[{"name":"","type":"bool","internalType":"bool"}],"stateMutability":"pure"},{"type":"function","name":"swap","inputs":[{"name":"tokenIn","type":"address","internalType":"address"},{"name":"tokenOut","type":"address","internalType":"address"},{"name":"amountIn","type":"uint256","internalType":"uint256"},{"name":"_recipient","type":"address","internalType":"address"},{"name":"_swapFee","type":"uint24","internalType":"uint24"}],"outputs":[{"name":"outputAmount","type":"uint256","internalType":"uint256"}],"stateMutability":"nonpayable"},{"type":"function","name":"tokenValueByNonce","inputs":[{"name":"","type":"uint256","internalType":"uint256"},{"name":"","type":"address","internalType":"address"}],"outputs":[{"name":"","type":"uint256","internalType":"uint256"}],"stateMutability":"view"},{"type":"function","name":"transferOwnership","inputs":[{"name":"newOwner","type":"address","internalType":"address"}],"outputs":[],"stateMutability":"nonpayable"},{"type":"function","name":"updatePortfolioNonce","inputs":[],"outputs":[{"name":"","type":"uint256","internalType":"uint256"}],"stateMutability":"view"},{"type":"function","name":"updatedTokensValueCount","inputs":[{"name":"","type":"uint256","internalType":"uint256"}],"outputs":[{"name":"","type":"uint256","internalType":"uint256"}],"stateMutability":"view"},{"type":"function","name":"weth","inputs":[],"outputs":[{"name":"","type":"address","internalType":"contract IWETH"}],"stateMutability":"view"},{"type":"event","name":"Initialized","inputs":[{"name":"version","type":"uint8","indexed":false,"internalType":"uint8"}],"anonymous":false},{"type":"event","name":"MessageSent","inputs":[{"name":"messageId","type":"bytes32","indexed":false,"internalType":"bytes32"}],"anonymous":false},{"type":"event","name":"OwnershipTransferred","inputs":[{"name":"previousOwner","type":"address","indexed":true,"internalType":"address"},{"name":"newOwner","type":"address","indexed":true,"internalType":"address"}],"anonymous":false},{"type":"error","name":"InvalidRouter","inputs":[{"name":"router","type":"address","internalType":"address"}]}],"bytecode":{"object":"0x6080604052348015600f57600080fd5b506155488061001f6000396000f3fe6080604052600436106102545760003560e01c806385572ffb11610139578063c070a097116100b6578063dd811ac91161007a578063dd811ac9146107a4578063e7d015f2146107c4578063edba0e31146107e4578063ee7bd3e214610804578063f1639b0914610824578063f2fde38b1461085157600080fd5b8063c070a09714610702578063c086381e1461072f578063cc8659ae1461074f578063d153b60c1461076f578063d79e8d651461078f57600080fd5b8063b0f479a1116100fd578063b0f479a114610646578063b316e7fd1461066a578063b5ed298a146106a2578063bcab90b3146106c2578063c06e1ae2146106e257600080fd5b806385572ffb146105935780638da5cb5b146105b3578063978bbdb9146105d1578063a8509fd814610604578063afcaa9521461061957600080fd5b80635177942a116101d2578063756c1fd111610196578063756c1fd11461049f57806378324463146104cc5780637d253aff146104f95780637d3546f7146105195780637e79f51214610546578063814ffd711461056657600080fd5b80635177942a146103e85780635b6a03511461040857806363713a8b1461043d57806369abf53814610452578063715018a61461048a57600080fd5b80632700cc86116102195780632700cc861461033d578063340fbc74146103545780633c8da588146103745780633d54cb6f146103895780633fc8cef3146103c157600080fd5b80623cf40214610260578063011ced5f1461028957806301ffc9a71461029f5780630603fb05146102cf57806319da7e2a1461031d57600080fd5b3661025b57005b600080fd5b34801561026c57600080fd5b50610276609d5481565b6040519081526020015b60405180910390f35b34801561029557600080fd5b50610276609b5481565b3480156102ab57600080fd5b506102bf6102ba36600461461e565b610871565b6040519015158152602001610280565b3480156102db57600080fd5b506103056102ea36600461464f565b60a6602052600090815260409020546001600160a01b031681565b6040516001600160a01b039091168152602001610280565b34801561032957600080fd5b5061030561033836600461468d565b6108a8565b34801561034957600080fd5b5061035261091f565b005b34801561036057600080fd5b5061030561036f36600461468d565b611008565b34801561038057600080fd5b50610276611042565b34801561039557600080fd5b50609c546103a9906001600160401b031681565b6040516001600160401b039091168152602001610280565b3480156103cd57600080fd5b50609c5461030590600160401b90046001600160a01b031681565b3480156103f457600080fd5b506103526104033660046146aa565b6110b5565b34801561041457600080fd5b5060995461042a90600160a01b900461ffff1681565b60405161ffff9091168152602001610280565b34801561044957600080fd5b50610352611204565b34801561045e57600080fd5b5061027661046d3660046146cd565b60a260209081526000928352604080842090915290825290205481565b34801561049657600080fd5b506103526116ac565b3480156104ab57600080fd5b506102766104ba36600461464f565b609f6020526000908152604090205481565b3480156104d857600080fd5b506102766104e736600461464f565b60a46020526000908152604090205481565b34801561050557600080fd5b50609954610305906001600160a01b031681565b34801561052557600080fd5b5061027661053436600461464f565b609e6020526000908152604090205481565b34801561055257600080fd5b50610276610561366004614723565b6116c0565b34801561057257600080fd5b5061027661058136600461464f565b60a56020526000908152604090205481565b34801561059f57600080fd5b506103526105ae36600461478b565b6117d2565b3480156105bf57600080fd5b506033546001600160a01b0316610305565b3480156105dd57600080fd5b50609a546105f290600160a01b900460ff1681565b60405160ff9091168152602001610280565b34801561061057600080fd5b50610276611819565b34801561062557600080fd5b5061027661063436600461464f565b60a76020526000908152604090205481565b34801561065257600080fd5b506000546201000090046001600160a01b0316610305565b34801561067657600080fd5b506102766106853660046147c5565b60a160209081526000928352604080842090915290825290205481565b3480156106ae57600080fd5b506103526106bd3660046147ea565b611b42565b3480156106ce57600080fd5b506103526106dd366004614906565b611b92565b3480156106ee57600080fd5b50609854610305906001600160a01b031681565b34801561070e57600080fd5b5061027661071d36600461464f565b60a06020526000908152604090205481565b34801561073b57600080fd5b5061027661074a36600461464f565b611e3c565b34801561075b57600080fd5b5061035261076a3660046147ea565b611e63565b34801561077b57600080fd5b50606554610305906001600160a01b031681565b34801561079b57600080fd5b50610352611e8d565b3480156107b057600080fd5b506102766107bf36600461497e565b6122b9565b3480156107d057600080fd5b50609a54610305906001600160a01b031681565b3480156107f057600080fd5b506103526107ff3660046149c6565b61234c565b34801561081057600080fd5b5061027661081f366004614a48565b612586565b34801561083057600080fd5b5061027661083f36600461464f565b60a36020526000908152604090205481565b34801561085d57600080fd5b5061035261086c3660046147ea565b6125db565b60006001600160e01b031982166385572ffb60e01b14806108a257506001600160e01b031982166301ffc9a760e01b145b92915050565b609854604051630ced3f1560e11b81526001600160401b03831660048201526000916001600160a01b0316906319da7e2a906024015b602060405180830381865afa1580156108fb573d6000803e3d6000fd5b505050506040513d601f19601f820116820180604052508101906108a29190614aa5565b610927612700565b6001609d600082825461093a9190614ad8565b909155505060985460408051631a521ec760e21b815290516000926001600160a01b0316916369487b1c9160048083019260209291908290030181865afa158015610989573d6000803e3d6000fd5b505050506040513d601f19601f820116820180604052508101906109ad9190614aeb565b90506000609860009054906101000a90046001600160a01b03166001600160a01b031663b90b8a2a6040518163ffffffff1660e01b8152600401602060405180830381865afa158015610a04573d6000803e3d6000fd5b505050506040513d601f19601f82011682018060405250810190610a289190614aeb565b905060005b82811015611003576098546040516369fbf93360e11b8152600481018490526000916001600160a01b03169063d3f7f26690602401600060405180830381865afa158015610a7f573d6000803e3d6000fd5b505050506040513d6000823e601f3d908101601f19168201604052610aa79190810190614c62565b93505050506000818381518110610ac057610ac0614d82565b602090810291909101015160985460405163b6ad185b60e01b81526001600160401b03831660048201529192506000916001600160a01b039091169063b6ad185b90602401602060405180830381865afa158015610b22573d6000803e3d6000fd5b505050506040513d601f19601f82011682018060405250810190610b469190614aeb565b609c549091506001600160401b0390811690831603610e925760985460405163d1c68aa360e01b81526001600160401b03841660048201526000916001600160a01b03169063d1c68aa390602401600060405180830381865afa158015610bb1573d6000803e3d6000fd5b505050506040513d6000823e601f3d908101601f19168201604052610bd99190810190614d98565b905060005b82811015610e8b576000828281518110610bfa57610bfa614d82565b6020908102919091010151609854604051633259966560e01b81526001600160a01b03808416600483015292935060009290911690633259966590602401602060405180830381865afa158015610c55573d6000803e3d6000fd5b505050506040513d601f19601f82011682018060405250810190610c799190614dd4565b609c549091506000906001600160a01b03600160401b909104811690841603610d1157609a546040516370a0823160e01b81526001600160a01b039182166004820152908416906370a0823190602401602060405180830381865afa158015610ce6573d6000803e3d6000fd5b505050506040513d601f19601f82011682018060405250810190610d0a9190614aeb565b9050610d9c565b609c54609a546040516370a0823160e01b81526001600160a01b039182166004820152610d99928692600160401b909104811691908316906370a0823190602401602060405180830381865afa158015610d6f573d6000803e3d6000fd5b505050506040513d601f19601f82011682018060405250810190610d939190614aeb565b856122b9565b90505b610da581611e3c565b609d546000908152609e602052604081208054909190610dc6908490614ad8565b90915550610dd5905081611e3c565b609d54600090815260a1602090815260408083206001600160a01b038816845290915281208054909190610e0a908490614ad8565b9091555050609d54600090815260a060205260408120805460019290610e31908490614ad8565b90915550610e40905081611e3c565b609d54600090815260a260209081526040808320609c546001600160401b0316845290915281208054909190610e77908490614ad8565b909155505060019093019250610bde915050565b5050610ff8565b6000610e9d83611008565b60985460405163d1c68aa360e01b81526001600160401b03861660048201529192506000916001600160a01b039091169063d1c68aa390602401600060405180830381865afa158015610ef4573d6000803e3d6000fd5b505050506040513d6000823e601f3d908101601f19168201604052610f1c9190810190614d98565b60985460405163221f337160e01b81526001600160401b03871660048201529192506000916001600160a01b039091169063221f337190602401600060405180830381865afa158015610f73573d6000803e3d6000fd5b505050506040513d6000823e601f3d908101601f19168201604052610f9b9190810190614df1565b60408051600080825260208201818152828401909352609d549394509092610fd3906002908790869088908790818060608601614e9c565b6040516020818303038152906040529050610ff18887836001611b92565b5050505050505b505050600101610a2d565b505050565b609854604051630d03ef1d60e21b81526001600160401b03831660048201526000916001600160a01b03169063340fbc74906024016108de565b60985460408051630791b4b160e31b815290516000926001600160a01b031691633c8da5889160048083019260209291908290030181865afa15801561108c573d6000803e3d6000fd5b505050506040513d601f19601f820116820180604052508101906110b09190614aeb565b905090565b6110bd612700565b6000609b54426110cd9190614f31565b9050600c603c6110dd8184614f44565b6110e79190614f44565b1161115f5760405162461bcd60e51b815260206004820152603960248201527f596f752073686f756c642077616974206174206c6561737420313220686f757260448201527f7320616674657220746865206c6174657374207570646174650000000000000060648201526084015b60405180910390fd5b60648260ff1611158015611177575060018260ff1610155b6111df5760405162461bcd60e51b815260206004820152603360248201527f546865206e65774665652073686f756c64206265206265747765656e203120616044820152726e64203130302028302e303125202d2031252960681b6064820152608401611156565b50609a805460ff909216600160a01b0260ff60a01b1990921691909117905542609b55565b61120c612700565b609d546000818152609e60209081526040808320546098548251631a521ec760e21b815292519194936001600160a01b03909116926369487b1c92600480830193928290030181865afa158015611267573d6000803e3d6000fd5b505050506040513d601f19601f8201168201806040525081019061128b9190614aeb565b90506000609860009054906101000a90046001600160a01b03166001600160a01b031663b90b8a2a6040518163ffffffff1660e01b8152600401602060405180830381865afa1580156112e2573d6000803e3d6000fd5b505050506040513d601f19601f820116820180604052508101906113069190614aeb565b90506000609860009054906101000a90046001600160a01b03166001600160a01b031663f15817876040518163ffffffff1660e01b8152600401602060405180830381865afa15801561135d573d6000803e3d6000fd5b505050506040513d601f19601f820116820180604052508101906113819190614aeb565b905060005b838110156116a4576098546040516369fbf93360e11b8152600481018590526000916001600160a01b03169063d3f7f26690602401600060405180830381865afa1580156113d8573d6000803e3d6000fd5b505050506040513d6000823e601f3d908101601f191682016040526114009190810190614c62565b9350505050600081838151811061141957611419614d82565b602090810291909101015160985460405163b6ad185b60e01b81526001600160401b03831660048201529192506000916001600160a01b039091169063b6ad185b90602401602060405180830381865afa15801561147b573d6000803e3d6000fd5b505050506040513d601f19601f8201168201806040525081019061149f9190614aeb565b609854604051637e34c5a560e11b81526001600160401b03851660048201529192506000916001600160a01b039091169063fc698b4a90602401602060405180830381865afa1580156114f6573d6000803e3d6000fd5b505050506040513d601f19601f8201168201806040525081019061151a9190614aeb565b609854604051632a3ff8ad60e01b8152600481018990526001600160401b03861660248201529192506000916001600160a01b0390911690632a3ff8ad90604401602060405180830381865afa158015611578573d6000803e3d6000fd5b505050506040513d601f19601f8201168201806040525081019061159c9190614aeb565b60008c815260a2602090815260408083206001600160401b03891680855292528083205460985491516302fc352760e61b815260048101939093529394506001600160a01b03169063bf0d49c090602401600060405180830381865afa15801561160a573d6000803e3d6000fd5b505050506040513d6000823e601f3d908101601f191682016040526116329190810190614df1565b9050828c6116498468056bc75e2d63100000614f66565b6116539190614f44565b111561169157609c546001600160401b03908116908716036116835761167e888e8e8989898961275a565b611691565b6116918d8d88868686612d1d565b5050600190950194506113869350505050565b505050505050565b6116b4612700565b6116be600061304c565b565b600080609860009054906101000a90046001600160a01b03166001600160a01b031663b631e80b6040518163ffffffff1660e01b8152600401602060405180830381865afa158015611716573d6000803e3d6000fd5b505050506040513d601f19601f8201168201806040525081019061173a9190614aa5565b90506000609860009054906101000a90046001600160a01b03166001600160a01b031663744fbc7a6040518163ffffffff1660e01b8152600401602060405180830381865afa158015611791573d6000803e3d6000fd5b505050506040513d601f19601f820116820180604052508101906117b59190614aa5565b90506117c68282868b8b8b8b61309e565b98975050505050505050565b6000546201000090046001600160a01b03163314611805576040516335fdcccd60e21b8152336004820152602401611156565b6118166118118261500a565b6130db565b50565b6000806000609860009054906101000a90046001600160a01b03166001600160a01b03166353fd43326040518163ffffffff1660e01b8152600401602060405180830381865afa158015611871573d6000803e3d6000fd5b505050506040513d601f19601f820116820180604052508101906118959190614aeb565b905060005b81811015611b3a5760985460405163264cae9360e21b8152600481018390526000916001600160a01b031690639932ba4c90602401602060405180830381865afa1580156118ec573d6000803e3d6000fd5b505050506040513d601f19601f820116820180604052508101906119109190614aa5565b609854604051633aa3b3c160e21b81526001600160a01b0380841660048301529293506000929091169063ea8ecf0490602401602060405180830381865afa158015611960573d6000803e3d6000fd5b505050506040513d601f19601f8201168201806040525081019061198491906150c0565b609854604051633259966560e01b81526001600160a01b03858116600483015292935060009290911690633259966590602401602060405180830381865afa1580156119d4573d6000803e3d6000fd5b505050506040513d601f19601f820116820180604052508101906119f89190614dd4565b609c549091506001600160401b0390811690831603611b2f57609854609c54609a546040516370a0823160e01b81526001600160a01b03918216600482015260009382169263dd811ac9928892600160401b909204811691908316906370a0823190602401602060405180830381865afa158015611a7a573d6000803e3d6000fd5b505050506040513d601f19601f82011682018060405250810190611a9e9190614aeb565b6040516001600160e01b031960e086901b1681526001600160a01b039384166004820152929091166024830152604482015262ffffff85166064820152608401602060405180830381865afa158015611afb573d6000803e3d6000fd5b505050506040513d601f19601f82011682018060405250810190611b1f9190614aeb565b9050611b2b8188614ad8565b9650505b50505060010161189a565b509092915050565b611b4a612700565b6001600160a01b038116611b705760405162461bcd60e51b8152600401611156906150dd565b606580546001600160a01b0319166001600160a01b0392909216919091179055565b6040805160a0810182526001600160a01b03851660c0808301919091528251808303909101815260e08201835281526020808201859052825160008082529181018452909282019083611c07565b6040805180820190915260008082526020820152815260200190600190039081611be05790505b5081526020016001846001811115611c2157611c2161512d565b14611c2d576000611c3a565b6099546001600160a01b03165b6001600160a01b03168152602001611c626040518060200160405280620dbba08152506133c3565b9052600080546040516320487ded60e01b81529293509091620100009091046001600160a01b0316906320487ded90611ca19089908690600401615189565b602060405180830381865afa158015611cbe573d6000803e3d6000fd5b505050506040513d601f19601f82011682018060405250810190611ce29190614aeb565b905060006001846001811115611cfa57611cfa61512d565b03611d80576000546040516396f4e9f960e01b8152620100009091046001600160a01b0316906396f4e9f990611d36908a908790600401615189565b6020604051808303816000875af1158015611d55573d6000803e3d6000fd5b505050506040513d601f19601f82011682018060405250810190611d799190614aeb565b9050611dff565b6000546040516396f4e9f960e01b8152620100009091046001600160a01b0316906396f4e9f9908490611db9908b908890600401615189565b60206040518083038185885af1158015611dd7573d6000803e3d6000fd5b50505050506040513d601f19601f82011682018060405250810190611dfc9190614aeb565b90505b6040518181527f54791b38f3859327992a1ca0590ad3c0f08feba98d1a4f56ab0dca74d203392a906020015b60405180910390a150505050505050565b6000670de0b6b3a7640000611e4f611042565b611e599084614f66565b6108a29190614f44565b611e6b612700565b609880546001600160a01b0319166001600160a01b0392909216919091179055565b611e95612700565b609d546000818152609e602090815260408083205460985482516311d3af8360e31b815292519194936001600160a01b0390911692638e9d7c1892600480830193928290030181865afa158015611ef0573d6000803e3d6000fd5b505050506040513d601f19601f82011682018060405250810190611f149190614aeb565b90506000609860009054906101000a90046001600160a01b03166001600160a01b031663f15817876040518163ffffffff1660e01b8152600401602060405180830381865afa158015611f6b573d6000803e3d6000fd5b505050506040513d601f19601f82011682018060405250810190611f8f9190614aeb565b905060005b828110156122b2576098546040516329b71fb560e11b8152600481018490526000916001600160a01b03169063536e3f6a90602401600060405180830381865afa158015611fe6573d6000803e3d6000fd5b505050506040513d6000823e601f3d908101601f1916820160405261200e919081019061525e565b9350505050600081838151811061202757612027614d82565b602090810291909101015160985460405163b6ad185b60e01b81526001600160401b03831660048201529192506000916001600160a01b039091169063b6ad185b90602401602060405180830381865afa158015612089573d6000803e3d6000fd5b505050506040513d601f19601f820116820180604052508101906120ad9190614aeb565b609854604051637e34c5a560e11b81526001600160401b03851660048201529192506000916001600160a01b039091169063fc698b4a90602401602060405180830381865afa158015612104573d6000803e3d6000fd5b505050506040513d601f19601f820116820180604052508101906121289190614aeb565b609854604051632a3ff8ad60e01b8152600481018990526001600160401b03861660248201529192506000916001600160a01b0390911690632a3ff8ad90604401602060405180830381865afa158015612186573d6000803e3d6000fd5b505050506040513d601f19601f820116820180604052508101906121aa9190614aeb565b60008b815260a2602090815260408083206001600160401b03891680855292528083205460985491516302fc352760e61b815260048101939093529394506001600160a01b03169063bf0d49c090602401600060405180830381865afa158015612218573d6000803e3d6000fd5b505050506040513d6000823e601f3d908101601f191682016040526122409190810190614df1565b9050828b6122578468056bc75e2d63100000614f66565b6122619190614f44565b101561229f57609c546001600160401b03908116908716036122915761228c888d8d89898989613400565b61229f565b61229f8c8c888686866139a9565b505060019095019450611f949350505050565b5050505050565b60985460405163dd811ac960e01b81526001600160a01b03868116600483015285811660248301526044820185905262ffffff84166064830152600092169063dd811ac9906084015b602060405180830381865afa15801561231f573d6000803e3d6000fd5b505050506040513d601f19601f820116820180604052508101906123439190614aeb565b95945050505050565b600054610100900460ff161580801561236c5750600054600160ff909116105b806123865750303b158015612386575060005460ff166001145b6123e95760405162461bcd60e51b815260206004820152602e60248201527f496e697469616c697a61626c653a20636f6e747261637420697320616c72656160448201526d191e481a5b9a5d1a585b1a5e995960921b6064820152608401611156565b6000805460ff19166001179055801561240c576000805461ff0019166101001790555b61241583613dd7565b61241d613e52565b609c805467ffffffffffffffff19166001600160401b038916179055609a80546001600160a01b03199081166001600160a01b038981169190911790925560988054909116878316179055609980548683166001600160b01b03199091168117600560a01b1790915560005460405163095ea7b360e01b815262010000909104909216600483015260001960248301529063095ea7b3906044016020604051808303816000875af11580156124d6573d6000803e3d6000fd5b505050506040513d601f19601f820116820180604052508101906124fa9190615302565b50609c805468010000000000000000600160e01b031916600160401b6001600160a01b03851602179055609a805460ff60a01b1916600560a11b17905542609b55801561257d576000805461ff0019169055604051600181527f7f26b83ff96e1f2b6a682f133852f6798a09c465da95921460cefb384740249890602001611e2b565b50505050505050565b60985460405163773de9f160e11b81526001600160a01b03868116600483015285811660248301526001600160801b038516604483015262ffffff84166064830152600092169063ee7bd3e290608401612302565b6001600160a01b0381166126015760405162461bcd60e51b8152600401611156906150dd565b6065546001600160a01b038281169116146126795760405162461bcd60e51b815260206004820152603260248201527f50726f706f7361626c654f776e61626c653a206e6577206f776e6572206973206044820152713737ba10383937b837b9b2b21037bbb732b960711b6064820152608401611156565b6001600160a01b03811633146126f75760405162461bcd60e51b815260206004820152603a60248201527f50726f706f7361626c654f776e61626c653a20746869732063616c6c206d757360448201527f74206265206d61646520627920746865206e6577206f776e65720000000000006064820152608401611156565b6118168161304c565b6033546001600160a01b031633146116be5760405162461bcd60e51b815260206004820181905260248201527f4f776e61626c653a2063616c6c6572206973206e6f7420746865206f776e65726044820152606401611156565b61279a6040518060a0016040528060006001600160a01b03168152602001600062ffffff1681526020016000815260200160008152602001600081525090565b600087815260a2602090815260408083206001600160401b0389168452909152808220546060840152609c54609a5491516370a0823160e01b81526001600160a01b039283166004820152600160401b909104909116906370a0823190602401602060405180830381865afa158015612817573d6000803e3d6000fd5b505050506040513d601f19601f8201168201806040525081019061283b9190614aeb565b905060005b85811015612a7b5760985460405163264cae9360e21b8152600481018390526001600160a01b0390911690639932ba4c90602401602060405180830381865afa158015612891573d6000803e3d6000fd5b505050506040513d601f19601f820116820180604052508101906128b59190614aa5565b6001600160a01b03908116808552609854604051633259966560e01b8152600481019290925290911690633259966590602401602060405180830381865afa158015612905573d6000803e3d6000fd5b505050506040513d601f19601f820116820180604052508101906129299190614dd4565b62ffffff166020840152609854835160405162967c1760e71b81526001600160a01b039182166004820152911690634b3e0b8090602401602060405180830381865afa15801561297d573d6000803e3d6000fd5b505050506040513d601f19601f820116820180604052508101906129a19190614aeb565b6040840152609c5483516000916001600160a01b03600160401b90910481169116036129ce575081612a5d565b8351609c54609a546040516370a0823160e01b81526001600160a01b039182166004820152612a5a9392600160401b90048216918316906370a0823190602401602060405180830381865afa158015612a2b573d6000803e3d6000fd5b505050506040513d601f19601f82011682018060405250810190612a4f9190614aeb565b3088602001516116c0565b90505b8084608001818151612a6f9190614ad8565b90525050600101612840565b50600087836060015168056bc75e2d63100000612a989190614f66565b612aa29190614f44565b9050600081858560800151612ab79190614f66565b612ac19190614f44565b90506000818560800151612ad59190614f31565b905060005b87811015612cbd5760985460405163239aad0d60e01b8152600481018390526000916001600160a01b03169063239aad0d90602401602060405180830381865afa158015612b2c573d6000803e3d6000fd5b505050506040513d601f19601f82011682018060405250810190612b509190614aa5565b609854604051633259966560e01b81526001600160a01b03808416600483015292935060009290911690633259966590602401602060405180830381865afa158015612ba0573d6000803e3d6000fd5b505050506040513d601f19601f82011682018060405250810190612bc49190614dd4565b60985460405162967c1760e71b81526001600160a01b03858116600483015292935060009290911690634b3e0b8090602401602060405180830381865afa158015612c13573d6000803e3d6000fd5b505050506040513d601f19601f82011682018060405250810190612c379190614aeb565b609c549091506000906001600160a01b03600160401b909104811690851603612c76578a612c658389614f66565b612c6f9190614f44565b9050612cad565b609c54612caa90600160401b90046001600160a01b0316858d612c99868c614f66565b612ca39190614f44565b30876116c0565b90505b505060019092019150612ada9050565b5060008b8152609f602052604081208054839290612cdc908490614ad8565b90915550612cec90508684614f31565b60008c815260a5602052604081208054909190612d0a908490614ad8565b9091555050505050505050505050505050565b600085612d338468056bc75e2d63100000614f66565b612d3d9190614f44565b9050612d498482614f31565b600088815260a5602052604081208054909190612d67908490614ad8565b9091555060009050612d7886611008565b60985460405163d1c68aa360e01b81526001600160401b03891660048201529192506000916001600160a01b039091169063d1c68aa390602401600060405180830381865afa158015612dcf573d6000803e3d6000fd5b505050506040513d6000823e601f3d908101601f19168201604052612df79190810190614d98565b609854604051633414329f60e21b81526001600160401b038a1660048201529192506000916001600160a01b039091169063d050ca7c90602401600060405180830381865afa158015612e4e573d6000803e3d6000fd5b505050506040513d6000823e601f3d908101601f19168201604052612e769190810190614d98565b60985460405163221f337160e01b81526001600160401b038b1660048201529192506000916001600160a01b039091169063221f337190602401600060405180830381865afa158015612ecd573d6000803e3d6000fd5b505050506040513d6000823e601f3d908101601f19168201604052612ef59190810190614df1565b609854604051631435bff160e31b81526001600160401b038c1660048201529192506000916001600160a01b039091169063a1adff8890602401600060405180830381865afa158015612f4c573d6000803e3d6000fd5b505050506040513d6000823e601f3d908101601f19168201604052612f749190810190614df1565b60408051600280825260608201835292935060009290916020830190803683370190505090508b81600081518110612fae57612fae614d82565b6020026020010181815250508981600181518110612fce57612fce614d82565b6020026020010181815250508881600281518110612fee57612fee614d82565b6020026020010181815250506000600386868686609d548e8860405160200161301e989796959493929190614e9c565b604051602081830303815290604052905061303c8c88836001611b92565b5050505050505050505050505050565b603380546001600160a01b038381166001600160a01b0319831681179093556040519116919082907f8be0079c531659141344cd1fd0a4f28419497f9722a3daafe3b4186f6b6457e090600090a35050565b600062ffffff8616156130c0576130b9888787878787613e81565b90506130d0565b6130cd8786868686613fd6565b90505b979650505050505050565b80516020808301516040840151805191926000926130ff9290810182019101614aa5565b905060008060008060008089606001518060200190518101906131229190615324565b95509550955095509550955085600003156133b757600186146133b7578560020361329b5760005b82518110156132955782818151811061316557613165614d82565b6020026020010151609e6000868152602001908152602001600020600082825461318f9190614ad8565b925050819055508281815181106131a8576131a8614d82565b602002602001015160a1600086815260200190815260200160002060008884815181106131d7576131d7614d82565b60200260200101516001600160a01b03166001600160a01b03168152602001908152602001600020600082825461320e9190614ad8565b9250508190555082818151811061322757613227614d82565b602090810291909101810151600086815260a2835260408082206001600160401b038e168352909352918220805491929091613264908490614ad8565b9091555050600084815260a060205260408120805460019290613288908490614ad8565b909155505060010161314a565b506133b7565b8560030361334b5760008a6080015190506000816000815181106132c1576132c1614d82565b60200260200101516000015190506000826000815181106132e4576132e4614d82565b6020026020010151602001519050600061331783609c60089054906101000a90046001600160a01b0316843060036116c0565b905080609f6000898152602001908152602001600020600082825461333c9190614ad8565b909155506133b7945050505050565b856004036133b757609860009054906101000a90046001600160a01b03166001600160a01b0316638baa6bf16040518163ffffffff1660e01b8152600401600060405180830381600087803b1580156133a357600080fd5b505af115801561303c573d6000803e3d6000fd5b50505050505050505050565b60408051915160248084019190915281518084039091018152604490920190526020810180516001600160e01b03166397a657c960e01b17905290565b6134476040518060c0016040528060006001600160a01b03168152602001600062ffffff168152602001600081526020016000815260200160008152602001600081525090565b60985460405163264cae9360e21b8152600481018a90526001600160a01b0390911690639932ba4c90602401602060405180830381865afa158015613490573d6000803e3d6000fd5b505050506040513d601f19601f820116820180604052508101906134b49190614aa5565b6001600160a01b03908116808352609854604051633259966560e01b8152600481019290925290911690633259966590602401602060405180830381865afa158015613504573d6000803e3d6000fd5b505050506040513d601f19601f820116820180604052508101906135289190614dd4565b62ffffff166020820152609854815160405162967c1760e71b81526001600160a01b039182166004820152911690634b3e0b8090602401602060405180830381865afa15801561357c573d6000803e3d6000fd5b505050506040513d601f19601f820116820180604052508101906135a09190614aeb565b604082810191909152600088815260a260209081528282206001600160401b038916835290528181205460608401528251609a5492516370a0823160e01b81526001600160a01b039384166004820152919216906370a0823190602401602060405180830381865afa15801561361a573d6000803e3d6000fd5b505050506040513d601f19601f8201168201806040525081019061363e9190614aeb565b905060005b8581101561372857609c5483516001600160a01b03600160401b90920482169116036136755760a08301829052613707565b8251609c54609a546040516370a0823160e01b81526001600160a01b0391821660048201526137019392600160401b90048216918316906370a0823190602401602060405180830381865afa1580156136d2573d6000803e3d6000fd5b505050506040513d601f19601f820116820180604052508101906136f69190614aeb565b3087602001516116c0565b60a08401525b8260a001518360800181815161371d9190614ad8565b905250600101613643565b50600087836060015168056bc75e2d631000006137459190614f66565b61374f9190614f44565b9050600061375d8286614f31565b60008b815260a56020908152604080832054609f9092528220549293509091613787908490614f66565b6137919190614f44565b905080856080018181516137a59190614ad8565b90525060005b8781101561399a5760985460405163264cae9360e21b8152600481018390526000916001600160a01b031690639932ba4c90602401602060405180830381865afa1580156137fd573d6000803e3d6000fd5b505050506040513d601f19601f820116820180604052508101906138219190614aa5565b609854604051633259966560e01b81526001600160a01b03808416600483015292935060009290911690633259966590602401602060405180830381865afa158015613871573d6000803e3d6000fd5b505050506040513d601f19601f820116820180604052508101906138959190614dd4565b60985460405162967c1760e71b81526001600160a01b03858116600483015292935060009290911690634b3e0b8090602401602060405180830381865afa1580156138e4573d6000803e3d6000fd5b505050506040513d601f19601f820116820180604052508101906139089190614aeb565b609c549091506001600160a01b03600160401b90910481169084160361394d5789818a608001516139399190614f66565b6139439190614f44565b60a08a015261398f565b613989609c60089054906101000a90046001600160a01b0316848c848d608001516139789190614f66565b6139829190614f44565b30866116c0565b60a08a01525b5050506001016137ab565b50505050505050505050505050565b6139db6040518060a0016040528060608152602001606081526020016060815260200160608152602001606081525090565b6000866139f18568056bc75e2d63100000614f66565b6139fb9190614f44565b90506000613a098287614f31565b60008a815260a56020908152604080832054609f9092528220549293509091613a33908490614f66565b613a3d9190614f44565b90506000613a4a89611008565b90506000613a79609c60089054906101000a90046001600160a01b0316613a708c6108a8565b853060036116c0565b60985460405163d1c68aa360e01b81526001600160401b038d1660048201529192506001600160a01b03169063d1c68aa390602401600060405180830381865afa158015613acb573d6000803e3d6000fd5b505050506040513d6000823e601f3d908101601f19168201604052613af39190810190614d98565b8652609854604051633414329f60e21b81526001600160401b038c1660048201526001600160a01b039091169063d050ca7c90602401600060405180830381865afa158015613b46573d6000803e3d6000fd5b505050506040513d6000823e601f3d908101601f19168201604052613b6e9190810190614d98565b602087015260985460405163221f337160e01b81526001600160401b038c1660048201526001600160a01b039091169063221f337190602401600060405180830381865afa158015613bc4573d6000803e3d6000fd5b505050506040513d6000823e601f3d908101601f19168201604052613bec9190810190614df1565b6040878101919091526098549051631435bff160e31b81526001600160401b038c1660048201526001600160a01b039091169063a1adff8890602401600060405180830381865afa158015613c45573d6000803e3d6000fd5b505050506040513d6000823e601f3d908101601f19168201604052613c6d9190810190614df1565b606087810191909152604080516002808252928101825291906020830190803683375050506080870181905280518c9190600090613cad57613cad614d82565b602002602001018181525050888660800151600181518110613cd157613cd1614d82565b6020908102919091010152604080516001808252818301909252600091816020015b6040805180820190915260008082526020820152815260200190600190039081613cf3579050509050613d258b6108a8565b81600081518110613d3857613d38614d82565b6020026020010151600001906001600160a01b031690816001600160a01b0316815250508181600081518110613d7057613d70614d82565b6020026020010151602001818152505060006004886000015189602001518a604001518b60600151609d548e8e60800151604051602001613db8989796959493929190614e9c565b604051602081830303815290604052905061303c8c82868560016141ce565b600054610100900460ff16613dfe5760405162461bcd60e51b8152600401611156906153f5565b6001600160a01b038116613e28576040516335fdcccd60e21b815260006004820152602401611156565b600080546001600160a01b03909216620100000262010000600160b01b0319909216919091179055565b600054610100900460ff16613e795760405162461bcd60e51b8152600401611156906153f5565b6116be6145ee565b60405163095ea7b360e01b81526001600160a01b038781166004830152602482018490526000919086169063095ea7b3906044016020604051808303816000875af1158015613ed4573d6000803e3d6000fd5b505050506040513d601f19601f82011682018060405250810190613ef89190615302565b506000604051806101000160405280876001600160a01b03168152602001866001600160a01b031681526020018862ffffff168152602001846001600160a01b031681526020014261012c613f4d9190614ad8565b815260208101869052600060408083018290526060909201525163414bf38960e01b81529091506001600160a01b0389169063414bf38990613f93908490600401615440565b6020604051808303816000875af1158015613fb2573d6000803e3d6000fd5b505050506040513d601f19601f820116820180604052508101906117c69190614aeb565b60408051600280825260608201835260009283929190602083019080368337019050509050858160008151811061400f5761400f614d82565b60200260200101906001600160a01b031690816001600160a01b031681525050848160018151811061404357614043614d82565b6001600160a01b03928316602091820292909201015260405163d06ca61f60e01b815260009189169063d06ca61f9061408290889086906004016154bd565b600060405180830381865afa15801561409f573d6000803e3d6000fd5b505050506040513d6000823e601f3d908101601f191682016040526140c79190810190614df1565b60405163095ea7b360e01b81526001600160a01b038a81166004830152602482018890529192509088169063095ea7b3906044016020604051808303816000875af115801561411a573d6000803e3d6000fd5b505050506040513d601f19601f8201168201806040525081019061413e9190615302565b50604051635c11d79560e01b81526001600160a01b03891690635c11d7959061417490889060009087908a9042906004016154d6565b600060405180830381600087803b15801561418e57600080fd5b505af11580156141a2573d6000803e3d6000fd5b50505050806001815181106141b9576141b9614d82565b60200260200101519250505095945050505050565b8151609954600160a01b900461ffff168111156142535760405162461bcd60e51b815260206004820152603760248201527f4d6178696d756d203520646966666572656e7420746f6b656e732063616e206260448201527f652073656e74207065722043434950204d6573736167650000000000000000006064820152608401611156565b60005b818110156143795760995484516001600160a01b039091169085908390811061428157614281614d82565b6020026020010151600001516001600160a01b031614614371578381815181106142ad576142ad614d82565b6020026020010151600001516001600160a01b031663095ea7b3600060029054906101000a90046001600160a01b03168684815181106142ef576142ef614d82565b6020026020010151602001516040518363ffffffff1660e01b815260040161432c9291906001600160a01b03929092168252602082015260400190565b6020604051808303816000875af115801561434b573d6000803e3d6000fd5b505050506040513d601f19601f8201168201806040525081019061436f9190615302565b505b600101614256565b506040805160a081019091526001600160a01b03851660c08201526000908060e0810160408051601f1981840301815291815290825260208201899052810186905260600160018560018111156143d2576143d261512d565b146143de5760006143eb565b6099546001600160a01b03165b6001600160a01b031681526020016144136040518060200160405280620dbba08152506133c3565b9052600080546040516320487ded60e01b81529293509091620100009091046001600160a01b0316906320487ded90614452908b908690600401615189565b602060405180830381865afa15801561446f573d6000803e3d6000fd5b505050506040513d601f19601f820116820180604052508101906144939190614aeb565b9050600060018560018111156144ab576144ab61512d565b03614531576000546040516396f4e9f960e01b8152620100009091046001600160a01b0316906396f4e9f9906144e7908c908790600401615189565b6020604051808303816000875af1158015614506573d6000803e3d6000fd5b505050506040513d601f19601f8201168201806040525081019061452a9190614aeb565b90506145b0565b6000546040516396f4e9f960e01b8152620100009091046001600160a01b0316906396f4e9f990849061456a908d908890600401615189565b60206040518083038185885af1158015614588573d6000803e3d6000fd5b50505050506040513d601f19601f820116820180604052508101906145ad9190614aeb565b90505b6040518181527f54791b38f3859327992a1ca0590ad3c0f08feba98d1a4f56ab0dca74d203392a9060200160405180910390a1505050505050505050565b600054610100900460ff166146155760405162461bcd60e51b8152600401611156906153f5565b6116be3361304c565b60006020828403121561463057600080fd5b81356001600160e01b03198116811461464857600080fd5b9392505050565b60006020828403121561466157600080fd5b5035919050565b6001600160401b038116811461181657600080fd5b803561468881614668565b919050565b60006020828403121561469f57600080fd5b813561464881614668565b6000602082840312156146bc57600080fd5b813560ff8116811461464857600080fd5b600080604083850312156146e057600080fd5b8235915060208301356146f281614668565b809150509250929050565b6001600160a01b038116811461181657600080fd5b62ffffff8116811461181657600080fd5b600080600080600060a0868803121561473b57600080fd5b8535614746816146fd565b94506020860135614756816146fd565b935060408601359250606086013561476d816146fd565b9150608086013561477d81614712565b809150509295509295909350565b60006020828403121561479d57600080fd5b81356001600160401b038111156147b357600080fd5b820160a0818503121561464857600080fd5b600080604083850312156147d857600080fd5b8235915060208301356146f2816146fd565b6000602082840312156147fc57600080fd5b8135614648816146fd565b634e487b7160e01b600052604160045260246000fd5b604080519081016001600160401b038111828210171561483f5761483f614807565b60405290565b60405160a081016001600160401b038111828210171561483f5761483f614807565b604051601f8201601f191681016001600160401b038111828210171561488f5761488f614807565b604052919050565b600082601f8301126148a857600080fd5b81356001600160401b038111156148c1576148c1614807565b6148d4601f8201601f1916602001614867565b8181528460208386010111156148e957600080fd5b816020850160208301376000918101602001919091529392505050565b6000806000806080858703121561491c57600080fd5b843561492781614668565b93506020850135614937816146fd565b925060408501356001600160401b0381111561495257600080fd5b61495e87828801614897565b92505060608501356002811061497357600080fd5b939692955090935050565b6000806000806080858703121561499457600080fd5b843561499f816146fd565b935060208501356149af816146fd565b925060408501359150606085013561497381614712565b60008060008060008060c087890312156149df57600080fd5b86356149ea81614668565b955060208701356149fa816146fd565b94506040870135614a0a816146fd565b93506060870135614a1a816146fd565b92506080870135614a2a816146fd565b915060a0870135614a3a816146fd565b809150509295509295509295565b60008060008060808587031215614a5e57600080fd5b8435614a69816146fd565b93506020850135614a79816146fd565b925060408501356001600160801b0381168114614a9557600080fd5b9150606085013561497381614712565b600060208284031215614ab757600080fd5b8151614648816146fd565b634e487b7160e01b600052601160045260246000fd5b808201808211156108a2576108a2614ac2565b600060208284031215614afd57600080fd5b5051919050565b60006001600160401b03821115614b1d57614b1d614807565b5060051b60200190565b600082601f830112614b3857600080fd5b8151614b4b614b4682614b04565b614867565b8082825260208201915060208360051b860101925085831115614b6d57600080fd5b602085015b83811015614b93578051614b85816146fd565b835260209283019201614b72565b5095945050505050565b600082601f830112614bae57600080fd5b8151614bbc614b4682614b04565b8082825260208201915060208360051b860101925085831115614bde57600080fd5b602085015b83811015614b93578051835260209283019201614be3565b600082601f830112614c0c57600080fd5b8151614c1a614b4682614b04565b8082825260208201915060208360051b860101925085831115614c3c57600080fd5b602085015b83811015614b93578051614c5481614668565b835260209283019201614c41565b60008060008060808587031215614c7857600080fd5b84516001600160401b03811115614c8e57600080fd5b614c9a87828801614b27565b94505060208501516001600160401b03811115614cb657600080fd5b614cc287828801614b9d565b93505060408501516001600160401b03811115614cde57600080fd5b8501601f81018713614cef57600080fd5b8051614cfd614b4682614b04565b8082825260208201915060208360051b850101925089831115614d1f57600080fd5b6020840193505b82841015614d4a578351614d3981614712565b825260209384019390910190614d26565b8095505050505060608501516001600160401b03811115614d6a57600080fd5b614d7687828801614bfb565b91505092959194509250565b634e487b7160e01b600052603260045260246000fd5b600060208284031215614daa57600080fd5b81516001600160401b03811115614dc057600080fd5b614dcc84828501614b27565b949350505050565b600060208284031215614de657600080fd5b815161464881614712565b600060208284031215614e0357600080fd5b81516001600160401b03811115614e1957600080fd5b614dcc84828501614b9d565b600081518084526020840193506020830160005b82811015614e605781516001600160a01b0316865260209586019590910190600101614e39565b5093949350505050565b600081518084526020840193506020830160005b82811015614e60578151865260209586019590910190600101614e7e565b60ff8916815261010060208201526000614eba61010083018a614e25565b8281036040840152614ecc818a614e25565b90508281036060840152614ee08189614e6a565b90508281036080840152614ef48188614e6a565b90508560a084015282810360c0840152614f0e8186614e6a565b905082810360e0840152614f228185614e6a565b9b9a5050505050505050505050565b818103818111156108a2576108a2614ac2565b600082614f6157634e487b7160e01b600052601260045260246000fd5b500490565b80820281158282048414176108a2576108a2614ac2565b600082601f830112614f8e57600080fd5b8135614f9c614b4682614b04565b8082825260208201915060208360061b860101925085831115614fbe57600080fd5b602085015b83811015614b935760408188031215614fdb57600080fd5b614fe361481d565b8135614fee816146fd565b8152602082810135818301529084529290920191604001614fc3565b600060a0823603121561501c57600080fd5b615024614845565b823581526150346020840161467d565b602082015260408301356001600160401b0381111561505257600080fd5b61505e36828601614897565b60408301525060608301356001600160401b0381111561507d57600080fd5b61508936828601614897565b60608301525060808301356001600160401b038111156150a857600080fd5b6150b436828601614f7d565b60808301525092915050565b6000602082840312156150d257600080fd5b815161464881614668565b60208082526030908201527f50726f706f7361626c654f776e61626c653a206e6577206f776e65722069732060408201526f746865207a65726f206164647265737360801b606082015260800190565b634e487b7160e01b600052602160045260246000fd5b6000815180845260005b818110156151695760208185018101518683018201520161514d565b506000602082860101526020601f19601f83011685010191505092915050565b6001600160401b0383168152604060208201526000825160a060408401526151b460e0840182615143565b90506020840151603f198483030160608501526151d18282615143565b6040860151858203603f19016080870152805180835260209182019450600093509101905b8083101561522d57835180516001600160a01b031683526020908101518184015290930192600192909201916040909101906151f6565b5060608601516001600160a01b031660a08601526080860151858203603f190160c087015292506130d08184615143565b6000806000806080858703121561527457600080fd5b84516001600160401b0381111561528a57600080fd5b61529687828801614b27565b94505060208501516001600160401b038111156152b257600080fd5b6152be87828801614b9d565b93505060408501516001600160401b038111156152da57600080fd5b6152e687828801614b9d565b92505060608501516001600160401b03811115614d6a57600080fd5b60006020828403121561531457600080fd5b8151801515811461464857600080fd5b60008060008060008060c0878903121561533d57600080fd5b865160208801519096506001600160401b0381111561535b57600080fd5b61536789828a01614b27565b95505060408701516001600160401b0381111561538357600080fd5b61538f89828a01614b27565b606089015160808a0151919650945090506001600160401b038111156153b457600080fd5b6153c089828a01614b9d565b92505060a08701516001600160401b038111156153dc57600080fd5b6153e889828a01614b9d565b9150509295509295509295565b6020808252602b908201527f496e697469616c697a61626c653a20636f6e7472616374206973206e6f74206960408201526a6e697469616c697a696e6760a81b606082015260800190565b81516001600160a01b03908116825260208084015182169083015260408084015162ffffff169083015260608084015191821690830152610100820190506080830151608083015260a083015160a083015260c083015160c083015260e08301516154b660e08401826001600160a01b03169052565b5092915050565b828152604060208201526000614dcc6040830184614e25565b85815284602082015260a0604082015260006154f560a0830186614e25565b6001600160a01b039490941660608301525060800152939250505056fea2646970667358221220d8e57738fc5da93e201167a09bfea3cedbd781da9122b1da7e24ac1d1dac990d64736f6c634300081a0033","linkReferences":{}},"methodIdentifiers":{"askValues()":"2700cc86","ccipReceive((bytes32,uint64,bytes,bytes,(address,uint256)[]))":"85572ffb","chainValueByNonce(uint256,uint64)":"69abf538","convertEthToUsd(uint256)":"c086381e","crossChainFactoryBySelector(uint64)":"340fbc74","crossChainToken(uint64)":"19da7e2a","currentChainSelector()":"3d54cb6f","estimateAmountOut(address,address,uint128,uint24)":"ee7bd3e2","extraWethByNonce(uint256)":"756c1fd1","factoryStorage()":"c06e1ae2","feeRate()":"978bbdb9","firstReweightAction()":"63713a8b","getAmountOut(address,address,uint256,uint24)":"dd811ac9","getPortfolioBalance()":"a8509fd8","getRouter()":"b0f479a1","i_link()":"7d253aff","i_maxTokensLength()":"5b6a0351","indexToken()":"e7d015f2","initialize(uint64,address,address,address,address,address)":"edba0e31","latestFeeUpdate()":"011ced5f","owner()":"8da5cb5b","portfolioTotalValueByNonce(uint256)":"7d3546f7","priceInWei()":"3c8da588","proposeOwner(address)":"b5ed298a","proposedOwner()":"d153b60c","redemptionNonceOutputToken(uint256)":"0603fb05","redemptionNonceOutputTokenSwapFee(uint256)":"afcaa952","renounceOwnership()":"715018a6","reweightExtraPercentage(uint256)":"814ffd71","reweightTokensCount(uint256)":"78324463","reweightWethValueByNonce(uint256)":"f1639b09","secondReweightAction()":"d79e8d65","sendMessage(uint64,address,bytes,uint8)":"bcab90b3","setFeeRate(uint8)":"5177942a","setIndexFactoryStorage(address)":"cc8659ae","supportsInterface(bytes4)":"01ffc9a7","swap(address,address,uint256,address,uint24)":"7e79f512","tokenValueByNonce(uint256,address)":"b316e7fd","transferOwnership(address)":"f2fde38b","updatePortfolioNonce()":"003cf402","updatedTokensValueCount(uint256)":"c070a097","weth()":"3fc8cef3"},"id":4}