{"abi":[{"type":"receive","stateMutability":"payable"},{"type":"function","name":"askValues","inputs":[],"outputs":[],"stateMutability":"nonpayable"},{"type":"function","name":"ccipReceive","inputs":[{"name":"message","type":"tuple","internalType":"struct Client.Any2EVMMessage","components":[{"name":"messageId","type":"bytes32","internalType":"bytes32"},{"name":"sourceChainSelector","type":"uint64","internalType":"uint64"},{"name":"sender","type":"bytes","internalType":"bytes"},{"name":"data","type":"bytes","internalType":"bytes"},{"name":"destTokenAmounts","type":"tuple[]","internalType":"struct Client.EVMTokenAmount[]","components":[{"name":"token","type":"address","internalType":"address"},{"name":"amount","type":"uint256","internalType":"uint256"}]}]}],"outputs":[],"stateMutability":"nonpayable"},{"type":"function","name":"chainValueByNonce","inputs":[{"name":"","type":"uint256","internalType":"uint256"},{"name":"","type":"uint64","internalType":"uint64"}],"outputs":[{"name":"","type":"uint256","internalType":"uint256"}],"stateMutability":"view"},{"type":"function","name":"convertEthToUsd","inputs":[{"name":"_ethAmount","type":"uint256","internalType":"uint256"}],"outputs":[{"name":"","type":"uint256","internalType":"uint256"}],"stateMutability":"view"},{"type":"function","name":"crossChainFactoryBySelector","inputs":[{"name":"_chainSelector","type":"uint64","internalType":"uint64"}],"outputs":[{"name":"","type":"address","internalType":"address"}],"stateMutability":"view"},{"type":"function","name":"crossChainToken","inputs":[{"name":"_chainSelector","type":"uint64","internalType":"uint64"}],"outputs":[{"name":"","type":"address","internalType":"address"}],"stateMutability":"view"},{"type":"function","name":"currentChainSelector","inputs":[],"outputs":[{"name":"","type":"uint64","internalType":"uint64"}],"stateMutability":"view"},{"type":"function","name":"estimateAmountOut","inputs":[{"name":"tokenIn","type":"address","internalType":"address"},{"name":"tokenOut","type":"address","internalType":"address"},{"name":"amountIn","type":"uint128","internalType":"uint128"}],"outputs":[{"name":"amountOut","type":"uint256","internalType":"uint256"}],"stateMutability":"view"},{"type":"function","name":"extraWethByNonce","inputs":[{"name":"","type":"uint256","internalType":"uint256"}],"outputs":[{"name":"","type":"uint256","internalType":"uint256"}],"stateMutability":"view"},{"type":"function","name":"factoryStorage","inputs":[],"outputs":[{"name":"","type":"address","internalType":"contract IndexFactoryStorage"}],"stateMutability":"view"},{"type":"function","name":"feeRate","inputs":[],"outputs":[{"name":"","type":"uint8","internalType":"uint8"}],"stateMutability":"view"},{"type":"function","name":"firstReweightAction","inputs":[],"outputs":[],"stateMutability":"nonpayable"},{"type":"function","name":"getAmountOut","inputs":[{"name":"tokenIn","type":"address","internalType":"address"},{"name":"tokenOut","type":"address","internalType":"address"},{"name":"amountIn","type":"uint256","internalType":"uint256"},{"name":"_swapFee","type":"uint24","internalType":"uint24"}],"outputs":[{"name":"finalAmountOut","type":"uint256","internalType":"uint256"}],"stateMutability":"view"},{"type":"function","name":"getPortfolioBalance","inputs":[],"outputs":[{"name":"","type":"uint256","internalType":"uint256"}],"stateMutability":"view"},{"type":"function","name":"getRouter","inputs":[],"outputs":[{"name":"","type":"address","internalType":"address"}],"stateMutability":"view"},{"type":"function","name":"i_link","inputs":[],"outputs":[{"name":"","type":"address","internalType":"address"}],"stateMutability":"view"},{"type":"function","name":"i_maxTokensLength","inputs":[],"outputs":[{"name":"","type":"uint16","internalType":"uint16"}],"stateMutability":"view"},{"type":"function","name":"indexToken","inputs":[],"outputs":[{"name":"","type":"address","internalType":"contract IndexToken"}],"stateMutability":"view"},{"type":"function","name":"initialize","inputs":[{"name":"_currentChainSelector","type":"uint64","internalType":"uint64"},{"name":"_token","type":"address","internalType":"address payable"},{"name":"_factoryStorage","type":"address","internalType":"address"},{"name":"_chainlinkToken","type":"address","internalType":"address"},{"name":"_router","type":"address","internalType":"address"},{"name":"_weth","type":"address","internalType":"address"}],"outputs":[],"stateMutability":"nonpayable"},{"type":"function","name":"latestFeeUpdate","inputs":[],"outputs":[{"name":"","type":"uint256","internalType":"uint256"}],"stateMutability":"view"},{"type":"function","name":"owner","inputs":[],"outputs":[{"name":"","type":"address","internalType":"address"}],"stateMutability":"view"},{"type":"function","name":"portfolioTotalValueByNonce","inputs":[{"name":"","type":"uint256","internalType":"uint256"}],"outputs":[{"name":"","type":"uint256","internalType":"uint256"}],"stateMutability":"view"},{"type":"function","name":"priceInWei","inputs":[],"outputs":[{"name":"","type":"uint256","internalType":"uint256"}],"stateMutability":"view"},{"type":"function","name":"proposeOwner","inputs":[{"name":"_proposedOwner","type":"address","internalType":"address"}],"outputs":[],"stateMutability":"nonpayable"},{"type":"function","name":"proposedOwner","inputs":[],"outputs":[{"name":"","type":"address","internalType":"address"}],"stateMutability":"view"},{"type":"function","name":"redemptionNonceOutputToken","inputs":[{"name":"","type":"uint256","internalType":"uint256"}],"outputs":[{"name":"","type":"address","internalType":"address"}],"stateMutability":"view"},{"type":"function","name":"redemptionNonceOutputTokenSwapFee","inputs":[{"name":"","type":"uint256","internalType":"uint256"}],"outputs":[{"name":"","type":"uint256","internalType":"uint256"}],"stateMutability":"view"},{"type":"function","name":"renounceOwnership","inputs":[],"outputs":[],"stateMutability":"nonpayable"},{"type":"function","name":"reweightExtraPercentage","inputs":[{"name":"","type":"uint256","internalType":"uint256"}],"outputs":[{"name":"","type":"uint256","internalType":"uint256"}],"stateMutability":"view"},{"type":"function","name":"reweightTokensCount","inputs":[{"name":"","type":"uint256","internalType":"uint256"}],"outputs":[{"name":"","type":"uint256","internalType":"uint256"}],"stateMutability":"view"},{"type":"function","name":"reweightWethValueByNonce","inputs":[{"name":"","type":"uint256","internalType":"uint256"}],"outputs":[{"name":"","type":"uint256","internalType":"uint256"}],"stateMutability":"view"},{"type":"function","name":"secondReweightAction","inputs":[],"outputs":[],"stateMutability":"nonpayable"},{"type":"function","name":"sendMessage","inputs":[{"name":"destinationChainSelector","type":"uint64","internalType":"uint64"},{"name":"receiver","type":"address","internalType":"address"},{"name":"_data","type":"bytes","internalType":"bytes"},{"name":"payFeesIn","type":"uint8","internalType":"enum IndexFactoryBalancer.PayFeesIn"}],"outputs":[],"stateMutability":"nonpayable"},{"type":"function","name":"setFeeRate","inputs":[{"name":"_newFee","type":"uint8","internalType":"uint8"}],"outputs":[],"stateMutability":"nonpayable"},{"type":"function","name":"setIndexFactoryStorage","inputs":[{"name":"_factoryStorage","type":"address","internalType":"address"}],"outputs":[],"stateMutability":"nonpayable"},{"type":"function","name":"setPortfolioTotalValueByNonce","inputs":[{"name":"nonce","type":"uint256","internalType":"uint256"},{"name":"value","type":"uint256","internalType":"uint256"}],"outputs":[],"stateMutability":"nonpayable"},{"type":"function","name":"supportsInterface","inputs":[{"name":"interfaceId","type":"bytes4","internalType":"bytes4"}],"outputs":[{"name":"","type":"bool","internalType":"bool"}],"stateMutability":"pure"},{"type":"function","name":"swap","inputs":[{"name":"tokenIn","type":"address","internalType":"address"},{"name":"tokenOut","type":"address","internalType":"address"},{"name":"amountIn","type":"uint256","internalType":"uint256"},{"name":"_recipient","type":"address","internalType":"address"},{"name":"_swapFee","type":"uint24","internalType":"uint24"}],"outputs":[{"name":"outputAmount","type":"uint256","internalType":"uint256"}],"stateMutability":"nonpayable"},{"type":"function","name":"tokenValueByNonce","inputs":[{"name":"","type":"uint256","internalType":"uint256"},{"name":"","type":"address","internalType":"address"}],"outputs":[{"name":"","type":"uint256","internalType":"uint256"}],"stateMutability":"view"},{"type":"function","name":"transferOwnership","inputs":[{"name":"newOwner","type":"address","internalType":"address"}],"outputs":[],"stateMutability":"nonpayable"},{"type":"function","name":"updatePortfolioNonce","inputs":[],"outputs":[{"name":"","type":"uint256","internalType":"uint256"}],"stateMutability":"view"},{"type":"function","name":"updatedTokensValueCount","inputs":[{"name":"","type":"uint256","internalType":"uint256"}],"outputs":[{"name":"","type":"uint256","internalType":"uint256"}],"stateMutability":"view"},{"type":"function","name":"weth","inputs":[],"outputs":[{"name":"","type":"address","internalType":"contract IWETH"}],"stateMutability":"view"},{"type":"event","name":"Initialized","inputs":[{"name":"version","type":"uint8","indexed":false,"internalType":"uint8"}],"anonymous":false},{"type":"event","name":"MessageSent","inputs":[{"name":"messageId","type":"bytes32","indexed":false,"internalType":"bytes32"}],"anonymous":false},{"type":"event","name":"OwnershipTransferred","inputs":[{"name":"previousOwner","type":"address","indexed":true,"internalType":"address"},{"name":"newOwner","type":"address","indexed":true,"internalType":"address"}],"anonymous":false},{"type":"error","name":"InvalidRouter","inputs":[{"name":"router","type":"address","internalType":"address"}]}],"bytecode":{"object":"0x6080604052348015600e575f80fd5b5061537e8061001c5f395ff3fe608060405260043610610256575f3560e01c8063814ffd711161013f578063c06e1ae2116100b3578063d79e8d6511610078578063d79e8d65146107a1578063dd811ac9146107b5578063e7d015f2146107d4578063edba0e31146107f3578063f1639b0914610812578063f2fde38b1461083d575f80fd5b8063c06e1ae2146106fa578063c070a09714610719578063c086381e14610744578063cc8659ae14610763578063d153b60c14610782575f80fd5b8063a8509fd811610104578063a8509fd814610625578063afcaa95214610639578063b0f479a114610664578063b316e7fd14610686578063b5ed298a146106bc578063bcab90b3146106db575f80fd5b8063814ffd711461056d57806385572ffb146105985780638d7307d4146105b75780638da5cb5b146105d6578063978bbdb9146105f3575f80fd5b80633fc8cef3116101d6578063715018a61161019b578063715018a61461049a578063756c1fd1146104ae57806378324463146104d95780637d253aff146105045780637d3546f7146105235780637e79f5121461054e575f80fd5b80633fc8cef3146103d75780635177942a146103fd5780635b6a03511461041c57806363713a8b1461045057806369abf53814610464575f80fd5b806319da7e2a1161021c57806319da7e2a146103385780632700cc8614610357578063340fbc741461036d5780633c8da5881461038c5780633d54cb6f146103a0575f80fd5b80623cf40214610261578063011ced5f1461028957806301ffc9a71461029e5780630456f9c8146102cd5780630603fb05146102ec575f80fd5b3661025d57005b5f80fd5b34801561026c575f80fd5b50610276609d5481565b6040519081526020015b60405180910390f35b348015610294575f80fd5b50610276609b5481565b3480156102a9575f80fd5b506102bd6102b83660046144d9565b61085c565b6040519015158152602001610280565b3480156102d8575f80fd5b506102766102e736600461451b565b610892565b3480156102f7575f80fd5b5061032061030636600461456e565b60a66020525f90815260409020546001600160a01b031681565b6040516001600160a01b039091168152602001610280565b348015610343575f80fd5b506103206103523660046145a9565b61091c565b348015610362575f80fd5b5061036b610990565b005b348015610378575f80fd5b506103206103873660046145a9565b611048565b348015610397575f80fd5b50610276611081565b3480156103ab575f80fd5b50609c546103bf906001600160401b031681565b6040516001600160401b039091168152602001610280565b3480156103e2575f80fd5b50609c5461032090600160401b90046001600160a01b031681565b348015610408575f80fd5b5061036b6104173660046145c4565b6110f1565b348015610427575f80fd5b5060995461043d90600160a01b900461ffff1681565b60405161ffff9091168152602001610280565b34801561045b575f80fd5b5061036b61123f565b34801561046f575f80fd5b5061027661047e3660046145e4565b60a260209081525f928352604080842090915290825290205481565b3480156104a5575f80fd5b5061036b6116c7565b3480156104b9575f80fd5b506102766104c836600461456e565b609f6020525f908152604090205481565b3480156104e4575f80fd5b506102766104f336600461456e565b60a46020525f908152604090205481565b34801561050f575f80fd5b50609954610320906001600160a01b031681565b34801561052e575f80fd5b5061027661053d36600461456e565b609e6020525f908152604090205481565b348015610559575f80fd5b50610276610568366004614622565b6116da565b348015610578575f80fd5b5061027661058736600461456e565b60a56020525f908152604090205481565b3480156105a3575f80fd5b5061036b6105b2366004614686565b6117e4565b3480156105c2575f80fd5b5061036b6105d13660046146bc565b61182a565b3480156105e1575f80fd5b506033546001600160a01b0316610320565b3480156105fe575f80fd5b50609a5461061390600160a01b900460ff1681565b60405160ff9091168152602001610280565b348015610630575f80fd5b50610276611843565b348015610644575f80fd5b5061027661065336600461456e565b60a76020525f908152604090205481565b34801561066f575f80fd5b505f546201000090046001600160a01b0316610320565b348015610691575f80fd5b506102766106a03660046146dc565b60a160209081525f928352604080842090915290825290205481565b3480156106c7575f80fd5b5061036b6106d63660046146ff565b611b58565b3480156106e6575f80fd5b5061036b6106f5366004614813565b611ba8565b348015610705575f80fd5b50609854610320906001600160a01b031681565b348015610724575f80fd5b5061027661073336600461456e565b60a06020525f908152604090205481565b34801561074f575f80fd5b5061027661075e36600461456e565b611e44565b34801561076e575f80fd5b5061036b61077d3660046146ff565b611e6a565b34801561078d575f80fd5b50606554610320906001600160a01b031681565b3480156107ac575f80fd5b5061036b611e94565b3480156107c0575f80fd5b506102766107cf366004614886565b6122a4565b3480156107df575f80fd5b50609a54610320906001600160a01b031681565b3480156107fe575f80fd5b5061036b61080d3660046148cb565b612333565b34801561081d575f80fd5b5061027661082c36600461456e565b60a36020525f908152604090205481565b348015610848575f80fd5b5061036b6108573660046146ff565b612562565b5f6001600160e01b031982166385572ffb60e01b148061088c57506001600160e01b031982166301ffc9a760e01b145b92915050565b609854604051628adf3960e31b81526001600160a01b03858116600483015284811660248301526001600160801b03841660448301525f921690630456f9c890606401602060405180830381865afa1580156108f0573d5f803e3d5ffd5b505050506040513d601f19601f820116820180604052508101906109149190614949565b949350505050565b609854604051630ced3f1560e11b81526001600160401b03831660048201525f916001600160a01b0316906319da7e2a906024015b602060405180830381865afa15801561096c573d5f803e3d5ffd5b505050506040513d601f19601f8201168201806040525081019061088c9190614960565b610998612687565b6001609d5f8282546109aa919061498f565b909155505060985460408051631a521ec760e21b815290515f926001600160a01b0316916369487b1c9160048083019260209291908290030181865afa1580156109f6573d5f803e3d5ffd5b505050506040513d601f19601f82011682018060405250810190610a1a9190614949565b90505f60985f9054906101000a90046001600160a01b03166001600160a01b031663b90b8a2a6040518163ffffffff1660e01b8152600401602060405180830381865afa158015610a6d573d5f803e3d5ffd5b505050506040513d601f19601f82011682018060405250810190610a919190614949565b90505f5b82811015611043576098546040516369fbf93360e11b8152600481018490525f916001600160a01b03169063d3f7f266906024015f60405180830381865afa158015610ae3573d5f803e3d5ffd5b505050506040513d5f823e601f3d908101601f19168201604052610b0a9190810190614af6565b93505050505f818381518110610b2257610b22614c0d565b602090810291909101015160985460405163b6ad185b60e01b81526001600160401b03831660048201529192505f916001600160a01b039091169063b6ad185b90602401602060405180830381865afa158015610b81573d5f803e3d5ffd5b505050506040513d601f19601f82011682018060405250810190610ba59190614949565b609c549091506001600160401b0390811690831603610ede5760985460405163d1c68aa360e01b81526001600160401b03841660048201525f916001600160a01b03169063d1c68aa3906024015f60405180830381865afa158015610c0c573d5f803e3d5ffd5b505050506040513d5f823e601f3d908101601f19168201604052610c339190810190614c21565b90505f5b82811015610ed7575f828281518110610c5257610c52614c0d565b6020908102919091010151609854604051633259966560e01b81526001600160a01b0380841660048301529293505f9290911690633259966590602401602060405180830381865afa158015610caa573d5f803e3d5ffd5b505050506040513d601f19601f82011682018060405250810190610cce9190614c52565b609c549091505f906001600160a01b03600160401b909104811690841603610d6357609a546040516370a0823160e01b81526001600160a01b039182166004820152908416906370a0823190602401602060405180830381865afa158015610d38573d5f803e3d5ffd5b505050506040513d601f19601f82011682018060405250810190610d5c9190614949565b9050610dec565b609c54609a546040516370a0823160e01b81526001600160a01b039182166004820152610de9928692600160401b909104811691908316906370a0823190602401602060405180830381865afa158015610dbf573d5f803e3d5ffd5b505050506040513d601f19601f82011682018060405250810190610de39190614949565b856122a4565b90505b610df581611e44565b609d545f908152609e602052604081208054909190610e1590849061498f565b90915550610e24905081611e44565b609d545f90815260a1602090815260408083206001600160a01b038816845290915281208054909190610e5890849061498f565b9091555050609d545f90815260a060205260408120805460019290610e7e90849061498f565b90915550610e8d905081611e44565b609d545f90815260a260209081526040808320609c546001600160401b0316845290915281208054909190610ec390849061498f565b909155505060019093019250610c37915050565b5050611038565b5f610ee883611048565b60985460405163d1c68aa360e01b81526001600160401b03861660048201529192505f916001600160a01b039091169063d1c68aa3906024015f60405180830381865afa158015610f3b573d5f803e3d5ffd5b505050506040513d5f823e601f3d908101601f19168201604052610f629190810190614c21565b60985460405163221f337160e01b81526001600160401b03871660048201529192505f916001600160a01b039091169063221f3371906024015f60405180830381865afa158015610fb5573d5f803e3d5ffd5b505050506040513d5f823e601f3d908101601f19168201604052610fdc9190810190614c6d565b604080515f80825260208201818152828401909352609d549394509092611013906002908790869088908790818060608601614d11565b60405160208183030381529060405290506110318887836001611ba8565b5050505050505b505050600101610a95565b505050565b609854604051630d03ef1d60e21b81526001600160401b03831660048201525f916001600160a01b03169063340fbc7490602401610951565b60985460408051630791b4b160e31b815290515f926001600160a01b031691633c8da5889160048083019260209291908290030181865afa1580156110c8573d5f803e3d5ffd5b505050506040513d601f19601f820116820180604052508101906110ec9190614949565b905090565b6110f9612687565b5f609b54426111089190614da5565b9050600c603c6111188184614db8565b6111229190614db8565b1161119a5760405162461bcd60e51b815260206004820152603960248201527f596f752073686f756c642077616974206174206c6561737420313220686f757260448201527f7320616674657220746865206c6174657374207570646174650000000000000060648201526084015b60405180910390fd5b60648260ff16111580156111b2575060018260ff1610155b61121a5760405162461bcd60e51b815260206004820152603360248201527f546865206e65774665652073686f756c64206265206265747765656e203120616044820152726e64203130302028302e303125202d2031252960681b6064820152608401611191565b50609a805460ff909216600160a01b0260ff60a01b1990921691909117905542609b55565b611247612687565b609d545f818152609e60209081526040808320546098548251631a521ec760e21b815292519194936001600160a01b03909116926369487b1c92600480830193928290030181865afa15801561129f573d5f803e3d5ffd5b505050506040513d601f19601f820116820180604052508101906112c39190614949565b90505f60985f9054906101000a90046001600160a01b03166001600160a01b031663b90b8a2a6040518163ffffffff1660e01b8152600401602060405180830381865afa158015611316573d5f803e3d5ffd5b505050506040513d601f19601f8201168201806040525081019061133a9190614949565b90505f60985f9054906101000a90046001600160a01b03166001600160a01b031663f15817876040518163ffffffff1660e01b8152600401602060405180830381865afa15801561138d573d5f803e3d5ffd5b505050506040513d601f19601f820116820180604052508101906113b19190614949565b90505f5b838110156116bf576098546040516369fbf93360e11b8152600481018590525f916001600160a01b03169063d3f7f266906024015f60405180830381865afa158015611403573d5f803e3d5ffd5b505050506040513d5f823e601f3d908101601f1916820160405261142a9190810190614af6565b93505050505f81838151811061144257611442614c0d565b602090810291909101015160985460405163b6ad185b60e01b81526001600160401b03831660048201529192505f916001600160a01b039091169063b6ad185b90602401602060405180830381865afa1580156114a1573d5f803e3d5ffd5b505050506040513d601f19601f820116820180604052508101906114c59190614949565b609854604051637e34c5a560e11b81526001600160401b03851660048201529192505f916001600160a01b039091169063fc698b4a90602401602060405180830381865afa158015611519573d5f803e3d5ffd5b505050506040513d601f19601f8201168201806040525081019061153d9190614949565b609854604051632a3ff8ad60e01b8152600481018990526001600160401b03861660248201529192505f916001600160a01b0390911690632a3ff8ad90604401602060405180830381865afa158015611598573d5f803e3d5ffd5b505050506040513d601f19601f820116820180604052508101906115bc9190614949565b5f8c815260a2602090815260408083206001600160401b03891680855292528083205460985491516302fc352760e61b815260048101939093529394506001600160a01b03169063bf0d49c0906024015f60405180830381865afa158015611626573d5f803e3d5ffd5b505050506040513d5f823e601f3d908101601f1916820160405261164d9190810190614c6d565b9050828c6116648468056bc75e2d63100000614dd7565b61166e9190614db8565b11156116ac57609c546001600160401b039081169087160361169e57611699888e8e898989896126e1565b6116ac565b6116ac8d8d88868686612c82565b5050600190950194506113b59350505050565b505050505050565b6116cf612687565b6116d85f612f97565b565b5f8060985f9054906101000a90046001600160a01b03166001600160a01b031663b631e80b6040518163ffffffff1660e01b8152600401602060405180830381865afa15801561172c573d5f803e3d5ffd5b505050506040513d601f19601f820116820180604052508101906117509190614960565b90505f60985f9054906101000a90046001600160a01b03166001600160a01b031663744fbc7a6040518163ffffffff1660e01b8152600401602060405180830381865afa1580156117a3573d5f803e3d5ffd5b505050506040513d601f19601f820116820180604052508101906117c79190614960565b90506117d88282868b8b8b8b612fe8565b98975050505050505050565b5f546201000090046001600160a01b03163314611816576040516335fdcccd60e21b8152336004820152602401611191565b61182761182282614e77565b613024565b50565b611832612687565b5f918252609e602052604090912055565b5f805f60985f9054906101000a90046001600160a01b03166001600160a01b03166353fd43326040518163ffffffff1660e01b8152600401602060405180830381865afa158015611896573d5f803e3d5ffd5b505050506040513d601f19601f820116820180604052508101906118ba9190614949565b90505f5b81811015611b505760985460405163264cae9360e21b8152600481018390525f916001600160a01b031690639932ba4c90602401602060405180830381865afa15801561190d573d5f803e3d5ffd5b505050506040513d601f19601f820116820180604052508101906119319190614960565b609854604051633aa3b3c160e21b81526001600160a01b0380841660048301529293505f929091169063ea8ecf0490602401602060405180830381865afa15801561197e573d5f803e3d5ffd5b505050506040513d601f19601f820116820180604052508101906119a29190614f28565b609854604051633259966560e01b81526001600160a01b0385811660048301529293505f9290911690633259966590602401602060405180830381865afa1580156119ef573d5f803e3d5ffd5b505050506040513d601f19601f82011682018060405250810190611a139190614c52565b609c549091506001600160401b0390811690831603611b4557609854609c54609a546040516370a0823160e01b81526001600160a01b0391821660048201525f9382169263dd811ac9928892600160401b909204811691908316906370a0823190602401602060405180830381865afa158015611a92573d5f803e3d5ffd5b505050506040513d601f19601f82011682018060405250810190611ab69190614949565b6040516001600160e01b031960e086901b1681526001600160a01b039384166004820152929091166024830152604482015262ffffff85166064820152608401602060405180830381865afa158015611b11573d5f803e3d5ffd5b505050506040513d601f19601f82011682018060405250810190611b359190614949565b9050611b41818861498f565b9650505b5050506001016118be565b509092915050565b611b60612687565b6001600160a01b038116611b865760405162461bcd60e51b815260040161119190614f43565b606580546001600160a01b0319166001600160a01b0392909216919091179055565b6040805160a0810182526001600160a01b03851660c0808301919091528251808303909101815260e0820183528152602080820185905282515f8082529181018452909282019083611c1b565b604080518082019091525f8082526020820152815260200190600190039081611bf55790505b5081526020016001846001811115611c3557611c35614f93565b14611c40575f611c4d565b6099546001600160a01b03165b6001600160a01b03168152602001611c756040518060200160405280620dbba08152506132ec565b90525f80546040516320487ded60e01b81529293509091620100009091046001600160a01b0316906320487ded90611cb39089908690600401614fd5565b602060405180830381865afa158015611cce573d5f803e3d5ffd5b505050506040513d601f19601f82011682018060405250810190611cf29190614949565b90505f6001846001811115611d0957611d09614f93565b03611d8b575f546040516396f4e9f960e01b8152620100009091046001600160a01b0316906396f4e9f990611d44908a908790600401614fd5565b6020604051808303815f875af1158015611d60573d5f803e3d5ffd5b505050506040513d601f19601f82011682018060405250810190611d849190614949565b9050611e07565b5f546040516396f4e9f960e01b8152620100009091046001600160a01b0316906396f4e9f9908490611dc3908b908890600401614fd5565b60206040518083038185885af1158015611ddf573d5f803e3d5ffd5b50505050506040513d601f19601f82011682018060405250810190611e049190614949565b90505b6040518181527f54791b38f3859327992a1ca0590ad3c0f08feba98d1a4f56ab0dca74d203392a906020015b60405180910390a150505050505050565b5f670de0b6b3a7640000611e56611081565b611e609084614dd7565b61088c9190614db8565b611e72612687565b609880546001600160a01b0319166001600160a01b0392909216919091179055565b611e9c612687565b609d545f818152609e602090815260408083205460985482516311d3af8360e31b815292519194936001600160a01b0390911692638e9d7c1892600480830193928290030181865afa158015611ef4573d5f803e3d5ffd5b505050506040513d601f19601f82011682018060405250810190611f189190614949565b90505f60985f9054906101000a90046001600160a01b03166001600160a01b031663f15817876040518163ffffffff1660e01b8152600401602060405180830381865afa158015611f6b573d5f803e3d5ffd5b505050506040513d601f19601f82011682018060405250810190611f8f9190614949565b90505f5b8281101561229d576098546040516329b71fb560e11b8152600481018490525f916001600160a01b03169063536e3f6a906024015f60405180830381865afa158015611fe1573d5f803e3d5ffd5b505050506040513d5f823e601f3d908101601f1916820160405261200891908101906150a8565b93505050505f81838151811061202057612020614c0d565b602090810291909101015160985460405163b6ad185b60e01b81526001600160401b03831660048201529192505f916001600160a01b039091169063b6ad185b90602401602060405180830381865afa15801561207f573d5f803e3d5ffd5b505050506040513d601f19601f820116820180604052508101906120a39190614949565b609854604051637e34c5a560e11b81526001600160401b03851660048201529192505f916001600160a01b039091169063fc698b4a90602401602060405180830381865afa1580156120f7573d5f803e3d5ffd5b505050506040513d601f19601f8201168201806040525081019061211b9190614949565b609854604051632a3ff8ad60e01b8152600481018990526001600160401b03861660248201529192505f916001600160a01b0390911690632a3ff8ad90604401602060405180830381865afa158015612176573d5f803e3d5ffd5b505050506040513d601f19601f8201168201806040525081019061219a9190614949565b5f8b815260a2602090815260408083206001600160401b03891680855292528083205460985491516302fc352760e61b815260048101939093529394506001600160a01b03169063bf0d49c0906024015f60405180830381865afa158015612204573d5f803e3d5ffd5b505050506040513d5f823e601f3d908101601f1916820160405261222b9190810190614c6d565b9050828b6122428468056bc75e2d63100000614dd7565b61224c9190614db8565b101561228a57609c546001600160401b039081169087160361227c57612277888d8d89898989613329565b61228a565b61228a8c8c888686866138b3565b505060019095019450611f939350505050565b5050505050565b60985460405163dd811ac960e01b81526001600160a01b03868116600483015285811660248301526044820185905262ffffff841660648301525f92169063dd811ac990608401602060405180830381865afa158015612306573d5f803e3d5ffd5b505050506040513d601f19601f8201168201806040525081019061232a9190614949565b95945050505050565b5f54610100900460ff161580801561235157505f54600160ff909116105b8061236a5750303b15801561236a57505f5460ff166001145b6123cd5760405162461bcd60e51b815260206004820152602e60248201527f496e697469616c697a61626c653a20636f6e747261637420697320616c72656160448201526d191e481a5b9a5d1a585b1a5e995960921b6064820152608401611191565b5f805460ff1916600117905580156123ee575f805461ff0019166101001790555b6123f783613cc4565b6123ff613d3c565b609c805467ffffffffffffffff19166001600160401b038916179055609a80546001600160a01b03199081166001600160a01b038981169190911790925560988054909116878316179055609980548683166001600160b01b03199091168117600560a01b179091555f5460405163095ea7b360e01b81526201000090910490921660048301525f1960248301529063095ea7b3906044016020604051808303815f875af11580156124b3573d5f803e3d5ffd5b505050506040513d601f19601f820116820180604052508101906124d79190615145565b50609c805468010000000000000000600160e01b031916600160401b6001600160a01b03851602179055609a805460ff60a01b1916600560a11b17905542609b558015612559575f805461ff0019169055604051600181527f7f26b83ff96e1f2b6a682f133852f6798a09c465da95921460cefb384740249890602001611e33565b50505050505050565b6001600160a01b0381166125885760405162461bcd60e51b815260040161119190614f43565b6065546001600160a01b038281169116146126005760405162461bcd60e51b815260206004820152603260248201527f50726f706f7361626c654f776e61626c653a206e6577206f776e6572206973206044820152713737ba10383937b837b9b2b21037bbb732b960711b6064820152608401611191565b6001600160a01b038116331461267e5760405162461bcd60e51b815260206004820152603a60248201527f50726f706f7361626c654f776e61626c653a20746869732063616c6c206d757360448201527f74206265206d61646520627920746865206e6577206f776e65720000000000006064820152608401611191565b61182781612f97565b6033546001600160a01b031633146116d85760405162461bcd60e51b815260206004820181905260248201527f4f776e61626c653a2063616c6c6572206973206e6f7420746865206f776e65726044820152606401611191565b61271c6040518060a001604052805f6001600160a01b031681526020015f62ffffff1681526020015f81526020015f81526020015f81525090565b5f87815260a2602090815260408083206001600160401b0389168452909152808220546060840152609c54609a5491516370a0823160e01b81526001600160a01b039283166004820152600160401b909104909116906370a0823190602401602060405180830381865afa158015612796573d5f803e3d5ffd5b505050506040513d601f19601f820116820180604052508101906127ba9190614949565b90505f5b858110156129f05760985460405163264cae9360e21b8152600481018390526001600160a01b0390911690639932ba4c90602401602060405180830381865afa15801561280d573d5f803e3d5ffd5b505050506040513d601f19601f820116820180604052508101906128319190614960565b6001600160a01b03908116808552609854604051633259966560e01b8152600481019290925290911690633259966590602401602060405180830381865afa15801561287f573d5f803e3d5ffd5b505050506040513d601f19601f820116820180604052508101906128a39190614c52565b62ffffff166020840152609854835160405162967c1760e71b81526001600160a01b039182166004820152911690634b3e0b8090602401602060405180830381865afa1580156128f5573d5f803e3d5ffd5b505050506040513d601f19601f820116820180604052508101906129199190614949565b6040840152609c5483515f916001600160a01b03600160401b90910481169116036129455750816129d2565b8351609c54609a546040516370a0823160e01b81526001600160a01b0391821660048201526129cf9392600160401b90048216918316906370a0823190602401602060405180830381865afa1580156129a0573d5f803e3d5ffd5b505050506040513d601f19601f820116820180604052508101906129c49190614949565b3088602001516116da565b90505b80846080018181516129e4919061498f565b905250506001016127be565b505f87836060015168056bc75e2d63100000612a0c9190614dd7565b612a169190614db8565b90505f81858560800151612a2a9190614dd7565b612a349190614db8565b90505f818560800151612a479190614da5565b90505f5b87811015612c245760985460405163239aad0d60e01b8152600481018390525f916001600160a01b03169063239aad0d90602401602060405180830381865afa158015612a9a573d5f803e3d5ffd5b505050506040513d601f19601f82011682018060405250810190612abe9190614960565b609854604051633259966560e01b81526001600160a01b0380841660048301529293505f9290911690633259966590602401602060405180830381865afa158015612b0b573d5f803e3d5ffd5b505050506040513d601f19601f82011682018060405250810190612b2f9190614c52565b60985460405162967c1760e71b81526001600160a01b0385811660048301529293505f9290911690634b3e0b8090602401602060405180830381865afa158015612b7b573d5f803e3d5ffd5b505050506040513d601f19601f82011682018060405250810190612b9f9190614949565b609c549091505f906001600160a01b03600160401b909104811690851603612bdd578a612bcc8389614dd7565b612bd69190614db8565b9050612c14565b609c54612c1190600160401b90046001600160a01b0316858d612c00868c614dd7565b612c0a9190614db8565b30876116da565b90505b505060019092019150612a4b9050565b505f8b8152609f602052604081208054839290612c4290849061498f565b90915550612c5290508684614da5565b5f8c815260a5602052604081208054909190612c6f90849061498f565b9091555050505050505050505050505050565b5f85612c978468056bc75e2d63100000614dd7565b612ca19190614db8565b9050612cad8482614da5565b5f88815260a5602052604081208054909190612cca90849061498f565b909155505f9050612cda86611048565b60985460405163d1c68aa360e01b81526001600160401b03891660048201529192505f916001600160a01b039091169063d1c68aa3906024015f60405180830381865afa158015612d2d573d5f803e3d5ffd5b505050506040513d5f823e601f3d908101601f19168201604052612d549190810190614c21565b609854604051633414329f60e21b81526001600160401b038a1660048201529192505f916001600160a01b039091169063d050ca7c906024015f60405180830381865afa158015612da7573d5f803e3d5ffd5b505050506040513d5f823e601f3d908101601f19168201604052612dce9190810190614c21565b60985460405163221f337160e01b81526001600160401b038b1660048201529192505f916001600160a01b039091169063221f3371906024015f60405180830381865afa158015612e21573d5f803e3d5ffd5b505050506040513d5f823e601f3d908101601f19168201604052612e489190810190614c6d565b609854604051631435bff160e31b81526001600160401b038c1660048201529192505f916001600160a01b039091169063a1adff88906024015f60405180830381865afa158015612e9b573d5f803e3d5ffd5b505050506040513d5f823e601f3d908101601f19168201604052612ec29190810190614c6d565b6040805160028082526060820183529293505f9290916020830190803683370190505090508b815f81518110612efa57612efa614c0d565b6020026020010181815250508981600181518110612f1a57612f1a614c0d565b6020026020010181815250508881600281518110612f3a57612f3a614c0d565b6020026020010181815250505f600386868686609d548e88604051602001612f69989796959493929190614d11565b6040516020818303038152906040529050612f878c88836001611ba8565b5050505050505050505050505050565b603380546001600160a01b038381166001600160a01b0319831681179093556040519116919082907f8be0079c531659141344cd1fd0a4f28419497f9722a3daafe3b4186f6b6457e0905f90a35050565b5f62ffffff86161561300957613002888787878787613d6a565b9050613019565b6130168786868686613eb6565b90505b979650505050505050565b80516020808301516040840151805191925f926130479290810182019101614960565b90505f805f805f8089606001518060200190518101906130679190615164565b955095509550955095509550855f03156132e057600186146132e057856002036131d4575f5b82518110156131ce578281815181106130a8576130a8614c0d565b6020026020010151609e5f8681526020019081526020015f205f8282546130cf919061498f565b925050819055508281815181106130e8576130e8614c0d565b602002602001015160a15f8681526020019081526020015f205f88848151811061311457613114614c0d565b60200260200101516001600160a01b03166001600160a01b031681526020019081526020015f205f828254613149919061498f565b9250508190555082818151811061316257613162614c0d565b6020908102919091018101515f86815260a2835260408082206001600160401b038e16835290935291822080549192909161319e90849061498f565b90915550505f84815260a0602052604081208054600192906131c190849061498f565b909155505060010161308d565b506132e0565b8560030361327a575f8a6080015190505f815f815181106131f7576131f7614c0d565b60200260200101515f015190505f825f8151811061321757613217614c0d565b60200260200101516020015190505f61324983609c60089054906101000a90046001600160a01b0316843060036116da565b905080609f5f8981526020019081526020015f205f82825461326b919061498f565b909155506132e0945050505050565b856004036132e05760985f9054906101000a90046001600160a01b03166001600160a01b0316638baa6bf16040518163ffffffff1660e01b81526004015f604051808303815f87803b1580156132ce575f80fd5b505af1158015612f87573d5f803e3d5ffd5b50505050505050505050565b60408051915160248084019190915281518084039091018152604490920190526020810180516001600160e01b03166397a657c960e01b17905290565b61336a6040518060c001604052805f6001600160a01b031681526020015f62ffffff1681526020015f81526020015f81526020015f81526020015f81525090565b60985460405163264cae9360e21b8152600481018a90526001600160a01b0390911690639932ba4c90602401602060405180830381865afa1580156133b1573d5f803e3d5ffd5b505050506040513d601f19601f820116820180604052508101906133d59190614960565b6001600160a01b03908116808352609854604051633259966560e01b8152600481019290925290911690633259966590602401602060405180830381865afa158015613423573d5f803e3d5ffd5b505050506040513d601f19601f820116820180604052508101906134479190614c52565b62ffffff166020820152609854815160405162967c1760e71b81526001600160a01b039182166004820152911690634b3e0b8090602401602060405180830381865afa158015613499573d5f803e3d5ffd5b505050506040513d601f19601f820116820180604052508101906134bd9190614949565b6040828101919091525f88815260a260209081528282206001600160401b038916835290528181205460608401528251609a5492516370a0823160e01b81526001600160a01b039384166004820152919216906370a0823190602401602060405180830381865afa158015613534573d5f803e3d5ffd5b505050506040513d601f19601f820116820180604052508101906135589190614949565b90505f5b8581101561363f57609c5483516001600160a01b03600160401b909204821691160361358e5760a0830182905261361e565b8251609c54609a546040516370a0823160e01b81526001600160a01b0391821660048201526136189392600160401b90048216918316906370a0823190602401602060405180830381865afa1580156135e9573d5f803e3d5ffd5b505050506040513d601f19601f8201168201806040525081019061360d9190614949565b3087602001516116da565b60a08401525b8260a0015183608001818151613634919061498f565b90525060010161355c565b505f87836060015168056bc75e2d6310000061365b9190614dd7565b6136659190614db8565b90505f6136728286614da5565b5f8b815260a56020908152604080832054609f909252822054929350909161369b908490614dd7565b6136a59190614db8565b905080856080018181516136b9919061498f565b9052505f5b878110156138a45760985460405163264cae9360e21b8152600481018390525f916001600160a01b031690639932ba4c90602401602060405180830381865afa15801561370d573d5f803e3d5ffd5b505050506040513d601f19601f820116820180604052508101906137319190614960565b609854604051633259966560e01b81526001600160a01b0380841660048301529293505f9290911690633259966590602401602060405180830381865afa15801561377e573d5f803e3d5ffd5b505050506040513d601f19601f820116820180604052508101906137a29190614c52565b60985460405162967c1760e71b81526001600160a01b0385811660048301529293505f9290911690634b3e0b8090602401602060405180830381865afa1580156137ee573d5f803e3d5ffd5b505050506040513d601f19601f820116820180604052508101906138129190614949565b609c549091506001600160a01b03600160401b9091048116908416036138575789818a608001516138439190614dd7565b61384d9190614db8565b60a08a0152613899565b613893609c60089054906101000a90046001600160a01b0316848c848d608001516138829190614dd7565b61388c9190614db8565b30866116da565b60a08a01525b5050506001016136be565b50505050505050505050505050565b6138e56040518060a0016040528060608152602001606081526020016060815260200160608152602001606081525090565b5f866138fa8568056bc75e2d63100000614dd7565b6139049190614db8565b90505f6139118287614da5565b5f8a815260a56020908152604080832054609f909252822054929350909161393a908490614dd7565b6139449190614db8565b90505f61395089611048565b90505f61397e609c60089054906101000a90046001600160a01b03166139758c61091c565b853060036116da565b60985460405163d1c68aa360e01b81526001600160401b038d1660048201529192506001600160a01b03169063d1c68aa3906024015f60405180830381865afa1580156139cd573d5f803e3d5ffd5b505050506040513d5f823e601f3d908101601f191682016040526139f49190810190614c21565b8652609854604051633414329f60e21b81526001600160401b038c1660048201526001600160a01b039091169063d050ca7c906024015f60405180830381865afa158015613a44573d5f803e3d5ffd5b505050506040513d5f823e601f3d908101601f19168201604052613a6b9190810190614c21565b602087015260985460405163221f337160e01b81526001600160401b038c1660048201526001600160a01b039091169063221f3371906024015f60405180830381865afa158015613abe573d5f803e3d5ffd5b505050506040513d5f823e601f3d908101601f19168201604052613ae59190810190614c6d565b6040878101919091526098549051631435bff160e31b81526001600160401b038c1660048201526001600160a01b039091169063a1adff88906024015f60405180830381865afa158015613b3b573d5f803e3d5ffd5b505050506040513d5f823e601f3d908101601f19168201604052613b629190810190614c6d565b606087810191909152604080516002808252928101825291906020830190803683375050506080870181905280518c91905f90613ba157613ba1614c0d565b602002602001018181525050888660800151600181518110613bc557613bc5614c0d565b60209081029190910101526040805160018082528183019092525f91816020015b604080518082019091525f8082526020820152815260200190600190039081613be6579050509050613c178b61091c565b815f81518110613c2957613c29614c0d565b60200260200101515f01906001600160a01b031690816001600160a01b03168152505081815f81518110613c5f57613c5f614c0d565b602002602001015160200181815250505f6004885f015189602001518a604001518b60600151609d548e8e60800151604051602001613ca5989796959493929190614d11565b6040516020818303038152906040529050612f878c828685600161409e565b5f54610100900460ff16613cea5760405162461bcd60e51b81526004016111919061522d565b6001600160a01b038116613d13576040516335fdcccd60e21b81525f6004820152602401611191565b5f80546001600160a01b03909216620100000262010000600160b01b0319909216919091179055565b5f54610100900460ff16613d625760405162461bcd60e51b81526004016111919061522d565b6116d86144aa565b60405163095ea7b360e01b81526001600160a01b038781166004830152602482018490525f919086169063095ea7b3906044016020604051808303815f875af1158015613db9573d5f803e3d5ffd5b505050506040513d601f19601f82011682018060405250810190613ddd9190615145565b505f604051806101000160405280876001600160a01b03168152602001866001600160a01b031681526020018862ffffff168152602001846001600160a01b031681526020014261012c613e31919061498f565b8152602081018690525f60408083018290526060909201525163414bf38960e01b81529091506001600160a01b0389169063414bf38990613e76908490600401615278565b6020604051808303815f875af1158015613e92573d5f803e3d5ffd5b505050506040513d601f19601f820116820180604052508101906117d89190614949565b6040805160028082526060820183525f928392919060208301908036833701905050905085815f81518110613eed57613eed614c0d565b60200260200101906001600160a01b031690816001600160a01b0316815250508481600181518110613f2157613f21614c0d565b6001600160a01b03928316602091820292909201015260405163d06ca61f60e01b81525f9189169063d06ca61f90613f5f90889086906004016152f5565b5f60405180830381865afa158015613f79573d5f803e3d5ffd5b505050506040513d5f823e601f3d908101601f19168201604052613fa09190810190614c6d565b60405163095ea7b360e01b81526001600160a01b038a81166004830152602482018890529192509088169063095ea7b3906044016020604051808303815f875af1158015613ff0573d5f803e3d5ffd5b505050506040513d601f19601f820116820180604052508101906140149190615145565b50604051635c11d79560e01b81526001600160a01b03891690635c11d795906140499088905f9087908a90429060040161530d565b5f604051808303815f87803b158015614060575f80fd5b505af1158015614072573d5f803e3d5ffd5b505050508060018151811061408957614089614c0d565b60200260200101519250505095945050505050565b8151609954600160a01b900461ffff168111156141235760405162461bcd60e51b815260206004820152603760248201527f4d6178696d756d203520646966666572656e7420746f6b656e732063616e206260448201527f652073656e74207065722043434950204d6573736167650000000000000000006064820152608401611191565b5f5b818110156142425760995484516001600160a01b039091169085908390811061415057614150614c0d565b60200260200101515f01516001600160a01b03161461423a5783818151811061417b5761417b614c0d565b60200260200101515f01516001600160a01b031663095ea7b35f60029054906101000a90046001600160a01b03168684815181106141bb576141bb614c0d565b6020026020010151602001516040518363ffffffff1660e01b81526004016141f89291906001600160a01b03929092168252602082015260400190565b6020604051808303815f875af1158015614214573d5f803e3d5ffd5b505050506040513d601f19601f820116820180604052508101906142389190615145565b505b600101614125565b506040805160a081019091526001600160a01b03851660c08201525f908060e0810160408051601f19818403018152918152908252602082018990528101869052606001600185600181111561429a5761429a614f93565b146142a5575f6142b2565b6099546001600160a01b03165b6001600160a01b031681526020016142da6040518060200160405280620dbba08152506132ec565b90525f80546040516320487ded60e01b81529293509091620100009091046001600160a01b0316906320487ded90614318908b908690600401614fd5565b602060405180830381865afa158015614333573d5f803e3d5ffd5b505050506040513d601f19601f820116820180604052508101906143579190614949565b90505f600185600181111561436e5761436e614f93565b036143f0575f546040516396f4e9f960e01b8152620100009091046001600160a01b0316906396f4e9f9906143a9908c908790600401614fd5565b6020604051808303815f875af11580156143c5573d5f803e3d5ffd5b505050506040513d601f19601f820116820180604052508101906143e99190614949565b905061446c565b5f546040516396f4e9f960e01b8152620100009091046001600160a01b0316906396f4e9f9908490614428908d908890600401614fd5565b60206040518083038185885af1158015614444573d5f803e3d5ffd5b50505050506040513d601f19601f820116820180604052508101906144699190614949565b90505b6040518181527f54791b38f3859327992a1ca0590ad3c0f08feba98d1a4f56ab0dca74d203392a9060200160405180910390a1505050505050505050565b5f54610100900460ff166144d05760405162461bcd60e51b81526004016111919061522d565b6116d833612f97565b5f602082840312156144e9575f80fd5b81356001600160e01b031981168114614500575f80fd5b9392505050565b6001600160a01b0381168114611827575f80fd5b5f805f6060848603121561452d575f80fd5b833561453881614507565b9250602084013561454881614507565b915060408401356001600160801b0381168114614563575f80fd5b809150509250925092565b5f6020828403121561457e575f80fd5b5035919050565b6001600160401b0381168114611827575f80fd5b80356145a481614585565b919050565b5f602082840312156145b9575f80fd5b813561450081614585565b5f602082840312156145d4575f80fd5b813560ff81168114614500575f80fd5b5f80604083850312156145f5575f80fd5b82359150602083013561460781614585565b809150509250929050565b62ffffff81168114611827575f80fd5b5f805f805f60a08688031215614636575f80fd5b853561464181614507565b9450602086013561465181614507565b935060408601359250606086013561466881614507565b9150608086013561467881614612565b809150509295509295909350565b5f60208284031215614696575f80fd5b81356001600160401b038111156146ab575f80fd5b820160a08185031215614500575f80fd5b5f80604083850312156146cd575f80fd5b50508035926020909101359150565b5f80604083850312156146ed575f80fd5b82359150602083013561460781614507565b5f6020828403121561470f575f80fd5b813561450081614507565b634e487b7160e01b5f52604160045260245ffd5b604080519081016001600160401b03811182821017156147505761475061471a565b60405290565b60405160a081016001600160401b03811182821017156147505761475061471a565b604051601f8201601f191681016001600160401b03811182821017156147a0576147a061471a565b604052919050565b5f82601f8301126147b7575f80fd5b81356001600160401b038111156147d0576147d061471a565b6147e3601f8201601f1916602001614778565b8181528460208386010111156147f7575f80fd5b816020850160208301375f918101602001919091529392505050565b5f805f8060808587031215614826575f80fd5b843561483181614585565b9350602085013561484181614507565b925060408501356001600160401b0381111561485b575f80fd5b614867878288016147a8565b92505060608501356002811061487b575f80fd5b939692955090935050565b5f805f8060808587031215614899575f80fd5b84356148a481614507565b935060208501356148b481614507565b925060408501359150606085013561487b81614612565b5f805f805f8060c087890312156148e0575f80fd5b86356148eb81614585565b955060208701356148fb81614507565b9450604087013561490b81614507565b9350606087013561491b81614507565b9250608087013561492b81614507565b915060a087013561493b81614507565b809150509295509295509295565b5f60208284031215614959575f80fd5b5051919050565b5f60208284031215614970575f80fd5b815161450081614507565b634e487b7160e01b5f52601160045260245ffd5b8082018082111561088c5761088c61497b565b5f6001600160401b038211156149ba576149ba61471a565b5060051b60200190565b5f82601f8301126149d3575f80fd5b81516149e66149e1826149a2565b614778565b8082825260208201915060208360051b860101925085831115614a07575f80fd5b602085015b83811015614a2d578051614a1f81614507565b835260209283019201614a0c565b5095945050505050565b5f82601f830112614a46575f80fd5b8151614a546149e1826149a2565b8082825260208201915060208360051b860101925085831115614a75575f80fd5b602085015b83811015614a2d578051835260209283019201614a7a565b5f82601f830112614aa1575f80fd5b8151614aaf6149e1826149a2565b8082825260208201915060208360051b860101925085831115614ad0575f80fd5b602085015b83811015614a2d578051614ae881614585565b835260209283019201614ad5565b5f805f8060808587031215614b09575f80fd5b84516001600160401b03811115614b1e575f80fd5b614b2a878288016149c4565b94505060208501516001600160401b03811115614b45575f80fd5b614b5187828801614a37565b93505060408501516001600160401b03811115614b6c575f80fd5b8501601f81018713614b7c575f80fd5b8051614b8a6149e1826149a2565b8082825260208201915060208360051b850101925089831115614bab575f80fd5b6020840193505b82841015614bd6578351614bc581614612565b825260209384019390910190614bb2565b8095505050505060608501516001600160401b03811115614bf5575f80fd5b614c0187828801614a92565b91505092959194509250565b634e487b7160e01b5f52603260045260245ffd5b5f60208284031215614c31575f80fd5b81516001600160401b03811115614c46575f80fd5b610914848285016149c4565b5f60208284031215614c62575f80fd5b815161450081614612565b5f60208284031215614c7d575f80fd5b81516001600160401b03811115614c92575f80fd5b61091484828501614a37565b5f8151808452602084019350602083015f5b82811015614cd75781516001600160a01b0316865260209586019590910190600101614cb0565b5093949350505050565b5f8151808452602084019350602083015f5b82811015614cd7578151865260209586019590910190600101614cf3565b60ff8916815261010060208201525f614d2e61010083018a614c9e565b8281036040840152614d40818a614c9e565b90508281036060840152614d548189614ce1565b90508281036080840152614d688188614ce1565b90508560a084015282810360c0840152614d828186614ce1565b905082810360e0840152614d968185614ce1565b9b9a5050505050505050505050565b8181038181111561088c5761088c61497b565b5f82614dd257634e487b7160e01b5f52601260045260245ffd5b500490565b808202811582820484141761088c5761088c61497b565b5f82601f830112614dfd575f80fd5b8135614e0b6149e1826149a2565b8082825260208201915060208360061b860101925085831115614e2c575f80fd5b602085015b83811015614a2d5760408188031215614e48575f80fd5b614e5061472e565b8135614e5b81614507565b8152602082810135818301529084529290920191604001614e31565b5f60a08236031215614e87575f80fd5b614e8f614756565b82358152614e9f60208401614599565b602082015260408301356001600160401b03811115614ebc575f80fd5b614ec8368286016147a8565b60408301525060608301356001600160401b03811115614ee6575f80fd5b614ef2368286016147a8565b60608301525060808301356001600160401b03811115614f10575f80fd5b614f1c36828601614dee565b60808301525092915050565b5f60208284031215614f38575f80fd5b815161450081614585565b60208082526030908201527f50726f706f7361626c654f776e61626c653a206e6577206f776e65722069732060408201526f746865207a65726f206164647265737360801b606082015260800190565b634e487b7160e01b5f52602160045260245ffd5b5f81518084528060208401602086015e5f602082860101526020601f19601f83011685010191505092915050565b6001600160401b0383168152604060208201525f825160a06040840152614fff60e0840182614fa7565b90506020840151603f1984830301606085015261501c8282614fa7565b6040860151858203603f190160808701528051808352602091820194505f93509101905b8083101561507757835180516001600160a01b03168352602090810151818401529093019260019290920191604090910190615040565b5060608601516001600160a01b031660a08601526080860151858203603f190160c087015292506130198184614fa7565b5f805f80608085870312156150bb575f80fd5b84516001600160401b038111156150d0575f80fd5b6150dc878288016149c4565b94505060208501516001600160401b038111156150f7575f80fd5b61510387828801614a37565b93505060408501516001600160401b0381111561511e575f80fd5b61512a87828801614a37565b92505060608501516001600160401b03811115614bf5575f80fd5b5f60208284031215615155575f80fd5b81518015158114614500575f80fd5b5f805f805f8060c08789031215615179575f80fd5b865160208801519096506001600160401b03811115615196575f80fd5b6151a289828a016149c4565b95505060408701516001600160401b038111156151bd575f80fd5b6151c989828a016149c4565b606089015160808a0151919650945090506001600160401b038111156151ed575f80fd5b6151f989828a01614a37565b92505060a08701516001600160401b03811115615214575f80fd5b61522089828a01614a37565b9150509295509295509295565b6020808252602b908201527f496e697469616c697a61626c653a20636f6e7472616374206973206e6f74206960408201526a6e697469616c697a696e6760a81b606082015260800190565b81516001600160a01b03908116825260208084015182169083015260408084015162ffffff169083015260608084015191821690830152610100820190506080830151608083015260a083015160a083015260c083015160c083015260e08301516152ee60e08401826001600160a01b03169052565b5092915050565b828152604060208201525f6109146040830184614c9e565b85815284602082015260a060408201525f61532b60a0830186614c9e565b6001600160a01b039490941660608301525060800152939250505056fea2646970667358221220e08ace78e1276487f5933b4c2bc7dbf513d7549080b59132c2b3ef51567db4fd64736f6c634300081a0033","linkReferences":{}},"methodIdentifiers":{"askValues()":"2700cc86","ccipReceive((bytes32,uint64,bytes,bytes,(address,uint256)[]))":"85572ffb","chainValueByNonce(uint256,uint64)":"69abf538","convertEthToUsd(uint256)":"c086381e","crossChainFactoryBySelector(uint64)":"340fbc74","crossChainToken(uint64)":"19da7e2a","currentChainSelector()":"3d54cb6f","estimateAmountOut(address,address,uint128)":"0456f9c8","extraWethByNonce(uint256)":"756c1fd1","factoryStorage()":"c06e1ae2","feeRate()":"978bbdb9","firstReweightAction()":"63713a8b","getAmountOut(address,address,uint256,uint24)":"dd811ac9","getPortfolioBalance()":"a8509fd8","getRouter()":"b0f479a1","i_link()":"7d253aff","i_maxTokensLength()":"5b6a0351","indexToken()":"e7d015f2","initialize(uint64,address,address,address,address,address)":"edba0e31","latestFeeUpdate()":"011ced5f","owner()":"8da5cb5b","portfolioTotalValueByNonce(uint256)":"7d3546f7","priceInWei()":"3c8da588","proposeOwner(address)":"b5ed298a","proposedOwner()":"d153b60c","redemptionNonceOutputToken(uint256)":"0603fb05","redemptionNonceOutputTokenSwapFee(uint256)":"afcaa952","renounceOwnership()":"715018a6","reweightExtraPercentage(uint256)":"814ffd71","reweightTokensCount(uint256)":"78324463","reweightWethValueByNonce(uint256)":"f1639b09","secondReweightAction()":"d79e8d65","sendMessage(uint64,address,bytes,uint8)":"bcab90b3","setFeeRate(uint8)":"5177942a","setIndexFactoryStorage(address)":"cc8659ae","setPortfolioTotalValueByNonce(uint256,uint256)":"8d7307d4","supportsInterface(bytes4)":"01ffc9a7","swap(address,address,uint256,address,uint24)":"7e79f512","tokenValueByNonce(uint256,address)":"b316e7fd","transferOwnership(address)":"f2fde38b","updatePortfolioNonce()":"003cf402","updatedTokensValueCount(uint256)":"c070a097","weth()":"3fc8cef3"},"id":4}