{"abi":[{"type":"receive","stateMutability":"payable"},{"type":"function","name":"askValues","inputs":[],"outputs":[],"stateMutability":"nonpayable"},{"type":"function","name":"ccipReceive","inputs":[{"name":"message","type":"tuple","internalType":"struct Client.Any2EVMMessage","components":[{"name":"messageId","type":"bytes32","internalType":"bytes32"},{"name":"sourceChainSelector","type":"uint64","internalType":"uint64"},{"name":"sender","type":"bytes","internalType":"bytes"},{"name":"data","type":"bytes","internalType":"bytes"},{"name":"destTokenAmounts","type":"tuple[]","internalType":"struct Client.EVMTokenAmount[]","components":[{"name":"token","type":"address","internalType":"address"},{"name":"amount","type":"uint256","internalType":"uint256"}]}]}],"outputs":[],"stateMutability":"nonpayable"},{"type":"function","name":"chainValueByNonce","inputs":[{"name":"","type":"uint256","internalType":"uint256"},{"name":"","type":"uint64","internalType":"uint64"}],"outputs":[{"name":"","type":"uint256","internalType":"uint256"}],"stateMutability":"view"},{"type":"function","name":"convertEthToUsd","inputs":[{"name":"_ethAmount","type":"uint256","internalType":"uint256"}],"outputs":[{"name":"","type":"uint256","internalType":"uint256"}],"stateMutability":"view"},{"type":"function","name":"crossChainFactoryBySelector","inputs":[{"name":"_chainSelector","type":"uint64","internalType":"uint64"}],"outputs":[{"name":"","type":"address","internalType":"address"}],"stateMutability":"view"},{"type":"function","name":"crossChainToken","inputs":[{"name":"_chainSelector","type":"uint64","internalType":"uint64"}],"outputs":[{"name":"","type":"address","internalType":"address"}],"stateMutability":"view"},{"type":"function","name":"currentChainSelector","inputs":[],"outputs":[{"name":"","type":"uint64","internalType":"uint64"}],"stateMutability":"view"},{"type":"function","name":"estimateAmountOut","inputs":[{"name":"tokenIn","type":"address","internalType":"address"},{"name":"tokenOut","type":"address","internalType":"address"},{"name":"amountIn","type":"uint128","internalType":"uint128"},{"name":"fee","type":"uint24","internalType":"uint24"}],"outputs":[{"name":"amountOut","type":"uint256","internalType":"uint256"}],"stateMutability":"view"},{"type":"function","name":"extraWethByNonce","inputs":[{"name":"","type":"uint256","internalType":"uint256"}],"outputs":[{"name":"","type":"uint256","internalType":"uint256"}],"stateMutability":"view"},{"type":"function","name":"factoryStorage","inputs":[],"outputs":[{"name":"","type":"address","internalType":"contract IndexFactoryStorage"}],"stateMutability":"view"},{"type":"function","name":"feeRate","inputs":[],"outputs":[{"name":"","type":"uint8","internalType":"uint8"}],"stateMutability":"view"},{"type":"function","name":"firstReweightAction","inputs":[],"outputs":[],"stateMutability":"nonpayable"},{"type":"function","name":"getAmountOut","inputs":[{"name":"tokenIn","type":"address","internalType":"address"},{"name":"tokenOut","type":"address","internalType":"address"},{"name":"amountIn","type":"uint256","internalType":"uint256"},{"name":"_swapFee","type":"uint24","internalType":"uint24"}],"outputs":[{"name":"finalAmountOut","type":"uint256","internalType":"uint256"}],"stateMutability":"view"},{"type":"function","name":"getPortfolioBalance","inputs":[],"outputs":[{"name":"","type":"uint256","internalType":"uint256"}],"stateMutability":"view"},{"type":"function","name":"getRouter","inputs":[],"outputs":[{"name":"","type":"address","internalType":"address"}],"stateMutability":"view"},{"type":"function","name":"i_link","inputs":[],"outputs":[{"name":"","type":"address","internalType":"address"}],"stateMutability":"view"},{"type":"function","name":"i_maxTokensLength","inputs":[],"outputs":[{"name":"","type":"uint16","internalType":"uint16"}],"stateMutability":"view"},{"type":"function","name":"indexToken","inputs":[],"outputs":[{"name":"","type":"address","internalType":"contract IndexToken"}],"stateMutability":"view"},{"type":"function","name":"initialize","inputs":[{"name":"_currentChainSelector","type":"uint64","internalType":"uint64"},{"name":"_token","type":"address","internalType":"address payable"},{"name":"_factoryStorage","type":"address","internalType":"address"},{"name":"_chainlinkToken","type":"address","internalType":"address"},{"name":"_router","type":"address","internalType":"address"},{"name":"_weth","type":"address","internalType":"address"}],"outputs":[],"stateMutability":"nonpayable"},{"type":"function","name":"latestFeeUpdate","inputs":[],"outputs":[{"name":"","type":"uint256","internalType":"uint256"}],"stateMutability":"view"},{"type":"function","name":"owner","inputs":[],"outputs":[{"name":"","type":"address","internalType":"address"}],"stateMutability":"view"},{"type":"function","name":"portfolioTotalValueByNonce","inputs":[{"name":"","type":"uint256","internalType":"uint256"}],"outputs":[{"name":"","type":"uint256","internalType":"uint256"}],"stateMutability":"view"},{"type":"function","name":"priceInWei","inputs":[],"outputs":[{"name":"","type":"uint256","internalType":"uint256"}],"stateMutability":"view"},{"type":"function","name":"proposeOwner","inputs":[{"name":"_proposedOwner","type":"address","internalType":"address"}],"outputs":[],"stateMutability":"nonpayable"},{"type":"function","name":"proposedOwner","inputs":[],"outputs":[{"name":"","type":"address","internalType":"address"}],"stateMutability":"view"},{"type":"function","name":"redemptionNonceOutputToken","inputs":[{"name":"","type":"uint256","internalType":"uint256"}],"outputs":[{"name":"","type":"address","internalType":"address"}],"stateMutability":"view"},{"type":"function","name":"redemptionNonceOutputTokenSwapFee","inputs":[{"name":"","type":"uint256","internalType":"uint256"}],"outputs":[{"name":"","type":"uint256","internalType":"uint256"}],"stateMutability":"view"},{"type":"function","name":"renounceOwnership","inputs":[],"outputs":[],"stateMutability":"nonpayable"},{"type":"function","name":"reweightExtraPercentage","inputs":[{"name":"","type":"uint256","internalType":"uint256"}],"outputs":[{"name":"","type":"uint256","internalType":"uint256"}],"stateMutability":"view"},{"type":"function","name":"reweightTokensCount","inputs":[{"name":"","type":"uint256","internalType":"uint256"}],"outputs":[{"name":"","type":"uint256","internalType":"uint256"}],"stateMutability":"view"},{"type":"function","name":"reweightWethValueByNonce","inputs":[{"name":"","type":"uint256","internalType":"uint256"}],"outputs":[{"name":"","type":"uint256","internalType":"uint256"}],"stateMutability":"view"},{"type":"function","name":"secondReweightAction","inputs":[],"outputs":[],"stateMutability":"nonpayable"},{"type":"function","name":"sendMessage","inputs":[{"name":"destinationChainSelector","type":"uint64","internalType":"uint64"},{"name":"receiver","type":"address","internalType":"address"},{"name":"_data","type":"bytes","internalType":"bytes"},{"name":"payFeesIn","type":"uint8","internalType":"enum IndexFactoryBalancer.PayFeesIn"}],"outputs":[],"stateMutability":"nonpayable"},{"type":"function","name":"setFeeRate","inputs":[{"name":"_newFee","type":"uint8","internalType":"uint8"}],"outputs":[],"stateMutability":"nonpayable"},{"type":"function","name":"setIndexFactoryStorage","inputs":[{"name":"_factoryStorage","type":"address","internalType":"address"}],"outputs":[],"stateMutability":"nonpayable"},{"type":"function","name":"supportsInterface","inputs":[{"name":"interfaceId","type":"bytes4","internalType":"bytes4"}],"outputs":[{"name":"","type":"bool","internalType":"bool"}],"stateMutability":"pure"},{"type":"function","name":"swap","inputs":[{"name":"tokenIn","type":"address","internalType":"address"},{"name":"tokenOut","type":"address","internalType":"address"},{"name":"amountIn","type":"uint256","internalType":"uint256"},{"name":"_recipient","type":"address","internalType":"address"},{"name":"_swapFee","type":"uint24","internalType":"uint24"}],"outputs":[{"name":"outputAmount","type":"uint256","internalType":"uint256"}],"stateMutability":"nonpayable"},{"type":"function","name":"tokenValueByNonce","inputs":[{"name":"","type":"uint256","internalType":"uint256"},{"name":"","type":"address","internalType":"address"}],"outputs":[{"name":"","type":"uint256","internalType":"uint256"}],"stateMutability":"view"},{"type":"function","name":"transferOwnership","inputs":[{"name":"newOwner","type":"address","internalType":"address"}],"outputs":[],"stateMutability":"nonpayable"},{"type":"function","name":"updatePortfolioNonce","inputs":[],"outputs":[{"name":"","type":"uint256","internalType":"uint256"}],"stateMutability":"view"},{"type":"function","name":"updatedTokensValueCount","inputs":[{"name":"","type":"uint256","internalType":"uint256"}],"outputs":[{"name":"","type":"uint256","internalType":"uint256"}],"stateMutability":"view"},{"type":"function","name":"weth","inputs":[],"outputs":[{"name":"","type":"address","internalType":"contract IWETH"}],"stateMutability":"view"},{"type":"event","name":"Initialized","inputs":[{"name":"version","type":"uint8","indexed":false,"internalType":"uint8"}],"anonymous":false},{"type":"event","name":"MessageSent","inputs":[{"name":"messageId","type":"bytes32","indexed":false,"internalType":"bytes32"}],"anonymous":false},{"type":"event","name":"OwnershipTransferred","inputs":[{"name":"previousOwner","type":"address","indexed":true,"internalType":"address"},{"name":"newOwner","type":"address","indexed":true,"internalType":"address"}],"anonymous":false},{"type":"error","name":"InvalidRouter","inputs":[{"name":"router","type":"address","internalType":"address"}]}],"bytecode":{"object":"0x6080604052348015600f57600080fd5b506155bd8061001f6000396000f3fe6080604052600436106102545760003560e01c806385572ffb11610139578063c070a097116100b6578063dd811ac91161007a578063dd811ac9146107a4578063e7d015f2146107c4578063edba0e31146107e4578063ee7bd3e214610804578063f1639b0914610824578063f2fde38b1461085157600080fd5b8063c070a09714610702578063c086381e1461072f578063cc8659ae1461074f578063d153b60c1461076f578063d79e8d651461078f57600080fd5b8063b0f479a1116100fd578063b0f479a114610646578063b316e7fd1461066a578063b5ed298a146106a2578063bcab90b3146106c2578063c06e1ae2146106e257600080fd5b806385572ffb146105935780638da5cb5b146105b3578063978bbdb9146105d1578063a8509fd814610604578063afcaa9521461061957600080fd5b80635177942a116101d2578063756c1fd111610196578063756c1fd11461049f57806378324463146104cc5780637d253aff146104f95780637d3546f7146105195780637e79f51214610546578063814ffd711461056657600080fd5b80635177942a146103e85780635b6a03511461040857806363713a8b1461043d57806369abf53814610452578063715018a61461048a57600080fd5b80632700cc86116102195780632700cc861461033d578063340fbc74146103545780633c8da588146103745780633d54cb6f146103895780633fc8cef3146103c157600080fd5b80623cf40214610260578063011ced5f1461028957806301ffc9a71461029f5780630603fb05146102cf57806319da7e2a1461031d57600080fd5b3661025b57005b600080fd5b34801561026c57600080fd5b50610276609d5481565b6040519081526020015b60405180910390f35b34801561029557600080fd5b50610276609b5481565b3480156102ab57600080fd5b506102bf6102ba366004614693565b610871565b6040519015158152602001610280565b3480156102db57600080fd5b506103056102ea3660046146c4565b60a6602052600090815260409020546001600160a01b031681565b6040516001600160a01b039091168152602001610280565b34801561032957600080fd5b50610305610338366004614702565b6108a8565b34801561034957600080fd5b5061035261091f565b005b34801561036057600080fd5b5061030561036f366004614702565b61107c565b34801561038057600080fd5b506102766110b6565b34801561039557600080fd5b50609c546103a9906001600160401b031681565b6040516001600160401b039091168152602001610280565b3480156103cd57600080fd5b50609c5461030590600160401b90046001600160a01b031681565b3480156103f457600080fd5b5061035261040336600461471f565b611129565b34801561041457600080fd5b5060995461042a90600160a01b900461ffff1681565b60405161ffff9091168152602001610280565b34801561044957600080fd5b50610352611278565b34801561045e57600080fd5b5061027661046d366004614742565b60a260209081526000928352604080842090915290825290205481565b34801561049657600080fd5b50610352611720565b3480156104ab57600080fd5b506102766104ba3660046146c4565b609f6020526000908152604090205481565b3480156104d857600080fd5b506102766104e73660046146c4565b60a46020526000908152604090205481565b34801561050557600080fd5b50609954610305906001600160a01b031681565b34801561052557600080fd5b506102766105343660046146c4565b609e6020526000908152604090205481565b34801561055257600080fd5b50610276610561366004614798565b611734565b34801561057257600080fd5b506102766105813660046146c4565b60a56020526000908152604090205481565b34801561059f57600080fd5b506103526105ae366004614800565b611846565b3480156105bf57600080fd5b506033546001600160a01b0316610305565b3480156105dd57600080fd5b50609a546105f290600160a01b900460ff1681565b60405160ff9091168152602001610280565b34801561061057600080fd5b5061027661188d565b34801561062557600080fd5b506102766106343660046146c4565b60a76020526000908152604090205481565b34801561065257600080fd5b506000546201000090046001600160a01b0316610305565b34801561067657600080fd5b5061027661068536600461483a565b60a160209081526000928352604080842090915290825290205481565b3480156106ae57600080fd5b506103526106bd36600461485f565b611bb6565b3480156106ce57600080fd5b506103526106dd36600461497b565b611c06565b3480156106ee57600080fd5b50609854610305906001600160a01b031681565b34801561070e57600080fd5b5061027661071d3660046146c4565b60a06020526000908152604090205481565b34801561073b57600080fd5b5061027661074a3660046146c4565b611eb0565b34801561075b57600080fd5b5061035261076a36600461485f565b611ed7565b34801561077b57600080fd5b50606554610305906001600160a01b031681565b34801561079b57600080fd5b50610352611f01565b3480156107b057600080fd5b506102766107bf3660046149f3565b61232d565b3480156107d057600080fd5b50609a54610305906001600160a01b031681565b3480156107f057600080fd5b506103526107ff366004614a3b565b6123c0565b34801561081057600080fd5b5061027661081f366004614abd565b6125fa565b34801561083057600080fd5b5061027661083f3660046146c4565b60a36020526000908152604090205481565b34801561085d57600080fd5b5061035261086c36600461485f565b61264f565b60006001600160e01b031982166385572ffb60e01b14806108a257506001600160e01b031982166301ffc9a760e01b145b92915050565b609854604051630ced3f1560e11b81526001600160401b03831660048201526000916001600160a01b0316906319da7e2a906024015b602060405180830381865afa1580156108fb573d6000803e3d6000fd5b505050506040513d601f19601f820116820180604052508101906108a29190614b1a565b610927612774565b6001609d600082825461093a9190614b4d565b909155505060985460408051631a521ec760e21b815290516000926001600160a01b0316916369487b1c9160048083019260209291908290030181865afa158015610989573d6000803e3d6000fd5b505050506040513d601f19601f820116820180604052508101906109ad9190614b60565b90506000609860009054906101000a90046001600160a01b03166001600160a01b031663b90b8a2a6040518163ffffffff1660e01b8152600401602060405180830381865afa158015610a04573d6000803e3d6000fd5b505050506040513d601f19601f82011682018060405250810190610a289190614b60565b905060005b82811015611077576098546040516369fbf93360e11b8152600481018490526000916001600160a01b03169063d3f7f26690602401600060405180830381865afa158015610a7f573d6000803e3d6000fd5b505050506040513d6000823e601f3d908101601f19168201604052610aa79190810190614cd7565b93505050506000818381518110610ac057610ac0614df7565b602090810291909101015160985460405163b6ad185b60e01b81526001600160401b03831660048201529192506000916001600160a01b039091169063b6ad185b90602401602060405180830381865afa158015610b22573d6000803e3d6000fd5b505050506040513d601f19601f82011682018060405250810190610b469190614b60565b609c549091506001600160401b0390811690831603610f065760985460405163d1c68aa360e01b81526001600160401b03841660048201526000916001600160a01b03169063d1c68aa390602401600060405180830381865afa158015610bb1573d6000803e3d6000fd5b505050506040513d6000823e601f3d908101601f19168201604052610bd99190810190614e0d565b90506000609860009054906101000a90046001600160a01b03166001600160a01b031663fbfa77cf6040518163ffffffff1660e01b8152600401602060405180830381865afa158015610c30573d6000803e3d6000fd5b505050506040513d601f19601f82011682018060405250810190610c549190614b1a565b905060005b83811015610efe576000838281518110610c7557610c75614df7565b6020908102919091010151609854604051633259966560e01b81526001600160a01b03808416600483015292935060009290911690633259966590602401602060405180830381865afa158015610cd0573d6000803e3d6000fd5b505050506040513d601f19601f82011682018060405250810190610cf49190614e49565b609c549091506000906001600160a01b03600160401b909104811690841603610d88576040516370a0823160e01b81526001600160a01b0386811660048301528416906370a0823190602401602060405180830381865afa158015610d5d573d6000803e3d6000fd5b505050506040513d601f19601f82011682018060405250810190610d819190614b60565b9050610e0f565b609c546040516370a0823160e01b81526001600160a01b038781166004830152610e0c928692600160401b9091048216918316906370a0823190602401602060405180830381865afa158015610de2573d6000803e3d6000fd5b505050506040513d601f19601f82011682018060405250810190610e069190614b60565b8561232d565b90505b610e1881611eb0565b609d546000908152609e602052604081208054909190610e39908490614b4d565b90915550610e48905081611eb0565b609d54600090815260a1602090815260408083206001600160a01b038816845290915281208054909190610e7d908490614b4d565b9091555050609d54600090815260a060205260408120805460019290610ea4908490614b4d565b90915550610eb3905081611eb0565b609d54600090815260a260209081526040808320609c546001600160401b0316845290915281208054909190610eea908490614b4d565b909155505060019093019250610c59915050565b50505061106c565b6000610f118361107c565b60985460405163d1c68aa360e01b81526001600160401b03861660048201529192506000916001600160a01b039091169063d1c68aa390602401600060405180830381865afa158015610f68573d6000803e3d6000fd5b505050506040513d6000823e601f3d908101601f19168201604052610f909190810190614e0d565b60985460405163221f337160e01b81526001600160401b03871660048201529192506000916001600160a01b039091169063221f337190602401600060405180830381865afa158015610fe7573d6000803e3d6000fd5b505050506040513d6000823e601f3d908101601f1916820160405261100f9190810190614e66565b60408051600080825260208201818152828401909352609d549394509092611047906002908790869088908790818060608601614f11565b60405160208183030381529060405290506110658887836001611c06565b5050505050505b505050600101610a2d565b505050565b609854604051630d03ef1d60e21b81526001600160401b03831660048201526000916001600160a01b03169063340fbc74906024016108de565b60985460408051630791b4b160e31b815290516000926001600160a01b031691633c8da5889160048083019260209291908290030181865afa158015611100573d6000803e3d6000fd5b505050506040513d601f19601f820116820180604052508101906111249190614b60565b905090565b611131612774565b6000609b54426111419190614fa6565b9050600c603c6111518184614fb9565b61115b9190614fb9565b116111d35760405162461bcd60e51b815260206004820152603960248201527f596f752073686f756c642077616974206174206c6561737420313220686f757260448201527f7320616674657220746865206c6174657374207570646174650000000000000060648201526084015b60405180910390fd5b60648260ff16111580156111eb575060018260ff1610155b6112535760405162461bcd60e51b815260206004820152603360248201527f546865206e65774665652073686f756c64206265206265747765656e203120616044820152726e64203130302028302e303125202d2031252960681b60648201526084016111ca565b50609a805460ff909216600160a01b0260ff60a01b1990921691909117905542609b55565b611280612774565b609d546000818152609e60209081526040808320546098548251631a521ec760e21b815292519194936001600160a01b03909116926369487b1c92600480830193928290030181865afa1580156112db573d6000803e3d6000fd5b505050506040513d601f19601f820116820180604052508101906112ff9190614b60565b90506000609860009054906101000a90046001600160a01b03166001600160a01b031663b90b8a2a6040518163ffffffff1660e01b8152600401602060405180830381865afa158015611356573d6000803e3d6000fd5b505050506040513d601f19601f8201168201806040525081019061137a9190614b60565b90506000609860009054906101000a90046001600160a01b03166001600160a01b031663f15817876040518163ffffffff1660e01b8152600401602060405180830381865afa1580156113d1573d6000803e3d6000fd5b505050506040513d601f19601f820116820180604052508101906113f59190614b60565b905060005b83811015611718576098546040516369fbf93360e11b8152600481018590526000916001600160a01b03169063d3f7f26690602401600060405180830381865afa15801561144c573d6000803e3d6000fd5b505050506040513d6000823e601f3d908101601f191682016040526114749190810190614cd7565b9350505050600081838151811061148d5761148d614df7565b602090810291909101015160985460405163b6ad185b60e01b81526001600160401b03831660048201529192506000916001600160a01b039091169063b6ad185b90602401602060405180830381865afa1580156114ef573d6000803e3d6000fd5b505050506040513d601f19601f820116820180604052508101906115139190614b60565b609854604051637e34c5a560e11b81526001600160401b03851660048201529192506000916001600160a01b039091169063fc698b4a90602401602060405180830381865afa15801561156a573d6000803e3d6000fd5b505050506040513d601f19601f8201168201806040525081019061158e9190614b60565b609854604051632a3ff8ad60e01b8152600481018990526001600160401b03861660248201529192506000916001600160a01b0390911690632a3ff8ad90604401602060405180830381865afa1580156115ec573d6000803e3d6000fd5b505050506040513d601f19601f820116820180604052508101906116109190614b60565b60008c815260a2602090815260408083206001600160401b03891680855292528083205460985491516302fc352760e61b815260048101939093529394506001600160a01b03169063bf0d49c090602401600060405180830381865afa15801561167e573d6000803e3d6000fd5b505050506040513d6000823e601f3d908101601f191682016040526116a69190810190614e66565b9050828c6116bd8468056bc75e2d63100000614fdb565b6116c79190614fb9565b111561170557609c546001600160401b03908116908716036116f7576116f2888e8e898989896127ce565b611705565b6117058d8d88868686612d91565b5050600190950194506113fa9350505050565b505050505050565b611728612774565b61173260006130c0565b565b600080609860009054906101000a90046001600160a01b03166001600160a01b031663b631e80b6040518163ffffffff1660e01b8152600401602060405180830381865afa15801561178a573d6000803e3d6000fd5b505050506040513d601f19601f820116820180604052508101906117ae9190614b1a565b90506000609860009054906101000a90046001600160a01b03166001600160a01b031663744fbc7a6040518163ffffffff1660e01b8152600401602060405180830381865afa158015611805573d6000803e3d6000fd5b505050506040513d601f19601f820116820180604052508101906118299190614b1a565b905061183a8282868b8b8b8b613112565b98975050505050505050565b6000546201000090046001600160a01b03163314611879576040516335fdcccd60e21b81523360048201526024016111ca565b61188a6118858261507f565b61314f565b50565b6000806000609860009054906101000a90046001600160a01b03166001600160a01b03166353fd43326040518163ffffffff1660e01b8152600401602060405180830381865afa1580156118e5573d6000803e3d6000fd5b505050506040513d601f19601f820116820180604052508101906119099190614b60565b905060005b81811015611bae5760985460405163264cae9360e21b8152600481018390526000916001600160a01b031690639932ba4c90602401602060405180830381865afa158015611960573d6000803e3d6000fd5b505050506040513d601f19601f820116820180604052508101906119849190614b1a565b609854604051633aa3b3c160e21b81526001600160a01b0380841660048301529293506000929091169063ea8ecf0490602401602060405180830381865afa1580156119d4573d6000803e3d6000fd5b505050506040513d601f19601f820116820180604052508101906119f89190615135565b609854604051633259966560e01b81526001600160a01b03858116600483015292935060009290911690633259966590602401602060405180830381865afa158015611a48573d6000803e3d6000fd5b505050506040513d601f19601f82011682018060405250810190611a6c9190614e49565b609c549091506001600160401b0390811690831603611ba357609854609c54609a546040516370a0823160e01b81526001600160a01b03918216600482015260009382169263dd811ac9928892600160401b909204811691908316906370a0823190602401602060405180830381865afa158015611aee573d6000803e3d6000fd5b505050506040513d601f19601f82011682018060405250810190611b129190614b60565b6040516001600160e01b031960e086901b1681526001600160a01b039384166004820152929091166024830152604482015262ffffff85166064820152608401602060405180830381865afa158015611b6f573d6000803e3d6000fd5b505050506040513d601f19601f82011682018060405250810190611b939190614b60565b9050611b9f8188614b4d565b9650505b50505060010161190e565b509092915050565b611bbe612774565b6001600160a01b038116611be45760405162461bcd60e51b81526004016111ca90615152565b606580546001600160a01b0319166001600160a01b0392909216919091179055565b6040805160a0810182526001600160a01b03851660c0808301919091528251808303909101815260e08201835281526020808201859052825160008082529181018452909282019083611c7b565b6040805180820190915260008082526020820152815260200190600190039081611c545790505b5081526020016001846001811115611c9557611c956151a2565b14611ca1576000611cae565b6099546001600160a01b03165b6001600160a01b03168152602001611cd66040518060200160405280620dbba0815250613438565b9052600080546040516320487ded60e01b81529293509091620100009091046001600160a01b0316906320487ded90611d1590899086906004016151fe565b602060405180830381865afa158015611d32573d6000803e3d6000fd5b505050506040513d601f19601f82011682018060405250810190611d569190614b60565b905060006001846001811115611d6e57611d6e6151a2565b03611df4576000546040516396f4e9f960e01b8152620100009091046001600160a01b0316906396f4e9f990611daa908a9087906004016151fe565b6020604051808303816000875af1158015611dc9573d6000803e3d6000fd5b505050506040513d601f19601f82011682018060405250810190611ded9190614b60565b9050611e73565b6000546040516396f4e9f960e01b8152620100009091046001600160a01b0316906396f4e9f9908490611e2d908b9088906004016151fe565b60206040518083038185885af1158015611e4b573d6000803e3d6000fd5b50505050506040513d601f19601f82011682018060405250810190611e709190614b60565b90505b6040518181527f54791b38f3859327992a1ca0590ad3c0f08feba98d1a4f56ab0dca74d203392a906020015b60405180910390a150505050505050565b6000670de0b6b3a7640000611ec36110b6565b611ecd9084614fdb565b6108a29190614fb9565b611edf612774565b609880546001600160a01b0319166001600160a01b0392909216919091179055565b611f09612774565b609d546000818152609e602090815260408083205460985482516311d3af8360e31b815292519194936001600160a01b0390911692638e9d7c1892600480830193928290030181865afa158015611f64573d6000803e3d6000fd5b505050506040513d601f19601f82011682018060405250810190611f889190614b60565b90506000609860009054906101000a90046001600160a01b03166001600160a01b031663f15817876040518163ffffffff1660e01b8152600401602060405180830381865afa158015611fdf573d6000803e3d6000fd5b505050506040513d601f19601f820116820180604052508101906120039190614b60565b905060005b82811015612326576098546040516329b71fb560e11b8152600481018490526000916001600160a01b03169063536e3f6a90602401600060405180830381865afa15801561205a573d6000803e3d6000fd5b505050506040513d6000823e601f3d908101601f1916820160405261208291908101906152d3565b9350505050600081838151811061209b5761209b614df7565b602090810291909101015160985460405163b6ad185b60e01b81526001600160401b03831660048201529192506000916001600160a01b039091169063b6ad185b90602401602060405180830381865afa1580156120fd573d6000803e3d6000fd5b505050506040513d601f19601f820116820180604052508101906121219190614b60565b609854604051637e34c5a560e11b81526001600160401b03851660048201529192506000916001600160a01b039091169063fc698b4a90602401602060405180830381865afa158015612178573d6000803e3d6000fd5b505050506040513d601f19601f8201168201806040525081019061219c9190614b60565b609854604051632a3ff8ad60e01b8152600481018990526001600160401b03861660248201529192506000916001600160a01b0390911690632a3ff8ad90604401602060405180830381865afa1580156121fa573d6000803e3d6000fd5b505050506040513d601f19601f8201168201806040525081019061221e9190614b60565b60008b815260a2602090815260408083206001600160401b03891680855292528083205460985491516302fc352760e61b815260048101939093529394506001600160a01b03169063bf0d49c090602401600060405180830381865afa15801561228c573d6000803e3d6000fd5b505050506040513d6000823e601f3d908101601f191682016040526122b49190810190614e66565b9050828b6122cb8468056bc75e2d63100000614fdb565b6122d59190614fb9565b101561231357609c546001600160401b039081169087160361230557612300888d8d89898989613475565b612313565b6123138c8c88868686613a1e565b5050600190950194506120089350505050565b5050505050565b60985460405163dd811ac960e01b81526001600160a01b03868116600483015285811660248301526044820185905262ffffff84166064830152600092169063dd811ac9906084015b602060405180830381865afa158015612393573d6000803e3d6000fd5b505050506040513d601f19601f820116820180604052508101906123b79190614b60565b95945050505050565b600054610100900460ff16158080156123e05750600054600160ff909116105b806123fa5750303b1580156123fa575060005460ff166001145b61245d5760405162461bcd60e51b815260206004820152602e60248201527f496e697469616c697a61626c653a20636f6e747261637420697320616c72656160448201526d191e481a5b9a5d1a585b1a5e995960921b60648201526084016111ca565b6000805460ff191660011790558015612480576000805461ff0019166101001790555b61248983613e4c565b612491613ec7565b609c805467ffffffffffffffff19166001600160401b038916179055609a80546001600160a01b03199081166001600160a01b038981169190911790925560988054909116878316179055609980548683166001600160b01b03199091168117600560a01b1790915560005460405163095ea7b360e01b815262010000909104909216600483015260001960248301529063095ea7b3906044016020604051808303816000875af115801561254a573d6000803e3d6000fd5b505050506040513d601f19601f8201168201806040525081019061256e9190615377565b50609c805468010000000000000000600160e01b031916600160401b6001600160a01b03851602179055609a805460ff60a01b1916600560a11b17905542609b5580156125f1576000805461ff0019169055604051600181527f7f26b83ff96e1f2b6a682f133852f6798a09c465da95921460cefb384740249890602001611e9f565b50505050505050565b60985460405163773de9f160e11b81526001600160a01b03868116600483015285811660248301526001600160801b038516604483015262ffffff84166064830152600092169063ee7bd3e290608401612376565b6001600160a01b0381166126755760405162461bcd60e51b81526004016111ca90615152565b6065546001600160a01b038281169116146126ed5760405162461bcd60e51b815260206004820152603260248201527f50726f706f7361626c654f776e61626c653a206e6577206f776e6572206973206044820152713737ba10383937b837b9b2b21037bbb732b960711b60648201526084016111ca565b6001600160a01b038116331461276b5760405162461bcd60e51b815260206004820152603a60248201527f50726f706f7361626c654f776e61626c653a20746869732063616c6c206d757360448201527f74206265206d61646520627920746865206e6577206f776e657200000000000060648201526084016111ca565b61188a816130c0565b6033546001600160a01b031633146117325760405162461bcd60e51b815260206004820181905260248201527f4f776e61626c653a2063616c6c6572206973206e6f7420746865206f776e657260448201526064016111ca565b61280e6040518060a0016040528060006001600160a01b03168152602001600062ffffff1681526020016000815260200160008152602001600081525090565b600087815260a2602090815260408083206001600160401b0389168452909152808220546060840152609c54609a5491516370a0823160e01b81526001600160a01b039283166004820152600160401b909104909116906370a0823190602401602060405180830381865afa15801561288b573d6000803e3d6000fd5b505050506040513d601f19601f820116820180604052508101906128af9190614b60565b905060005b85811015612aef5760985460405163264cae9360e21b8152600481018390526001600160a01b0390911690639932ba4c90602401602060405180830381865afa158015612905573d6000803e3d6000fd5b505050506040513d601f19601f820116820180604052508101906129299190614b1a565b6001600160a01b03908116808552609854604051633259966560e01b8152600481019290925290911690633259966590602401602060405180830381865afa158015612979573d6000803e3d6000fd5b505050506040513d601f19601f8201168201806040525081019061299d9190614e49565b62ffffff166020840152609854835160405162967c1760e71b81526001600160a01b039182166004820152911690634b3e0b8090602401602060405180830381865afa1580156129f1573d6000803e3d6000fd5b505050506040513d601f19601f82011682018060405250810190612a159190614b60565b6040840152609c5483516000916001600160a01b03600160401b9091048116911603612a42575081612ad1565b8351609c54609a546040516370a0823160e01b81526001600160a01b039182166004820152612ace9392600160401b90048216918316906370a0823190602401602060405180830381865afa158015612a9f573d6000803e3d6000fd5b505050506040513d601f19601f82011682018060405250810190612ac39190614b60565b308860200151611734565b90505b8084608001818151612ae39190614b4d565b905250506001016128b4565b50600087836060015168056bc75e2d63100000612b0c9190614fdb565b612b169190614fb9565b9050600081858560800151612b2b9190614fdb565b612b359190614fb9565b90506000818560800151612b499190614fa6565b905060005b87811015612d315760985460405163239aad0d60e01b8152600481018390526000916001600160a01b03169063239aad0d90602401602060405180830381865afa158015612ba0573d6000803e3d6000fd5b505050506040513d601f19601f82011682018060405250810190612bc49190614b1a565b609854604051633259966560e01b81526001600160a01b03808416600483015292935060009290911690633259966590602401602060405180830381865afa158015612c14573d6000803e3d6000fd5b505050506040513d601f19601f82011682018060405250810190612c389190614e49565b60985460405162967c1760e71b81526001600160a01b03858116600483015292935060009290911690634b3e0b8090602401602060405180830381865afa158015612c87573d6000803e3d6000fd5b505050506040513d601f19601f82011682018060405250810190612cab9190614b60565b609c549091506000906001600160a01b03600160401b909104811690851603612cea578a612cd98389614fdb565b612ce39190614fb9565b9050612d21565b609c54612d1e90600160401b90046001600160a01b0316858d612d0d868c614fdb565b612d179190614fb9565b3087611734565b90505b505060019092019150612b4e9050565b5060008b8152609f602052604081208054839290612d50908490614b4d565b90915550612d6090508684614fa6565b60008c815260a5602052604081208054909190612d7e908490614b4d565b9091555050505050505050505050505050565b600085612da78468056bc75e2d63100000614fdb565b612db19190614fb9565b9050612dbd8482614fa6565b600088815260a5602052604081208054909190612ddb908490614b4d565b9091555060009050612dec8661107c565b60985460405163d1c68aa360e01b81526001600160401b03891660048201529192506000916001600160a01b039091169063d1c68aa390602401600060405180830381865afa158015612e43573d6000803e3d6000fd5b505050506040513d6000823e601f3d908101601f19168201604052612e6b9190810190614e0d565b609854604051633414329f60e21b81526001600160401b038a1660048201529192506000916001600160a01b039091169063d050ca7c90602401600060405180830381865afa158015612ec2573d6000803e3d6000fd5b505050506040513d6000823e601f3d908101601f19168201604052612eea9190810190614e0d565b60985460405163221f337160e01b81526001600160401b038b1660048201529192506000916001600160a01b039091169063221f337190602401600060405180830381865afa158015612f41573d6000803e3d6000fd5b505050506040513d6000823e601f3d908101601f19168201604052612f699190810190614e66565b609854604051631435bff160e31b81526001600160401b038c1660048201529192506000916001600160a01b039091169063a1adff8890602401600060405180830381865afa158015612fc0573d6000803e3d6000fd5b505050506040513d6000823e601f3d908101601f19168201604052612fe89190810190614e66565b60408051600280825260608201835292935060009290916020830190803683370190505090508b8160008151811061302257613022614df7565b602002602001018181525050898160018151811061304257613042614df7565b602002602001018181525050888160028151811061306257613062614df7565b6020026020010181815250506000600386868686609d548e88604051602001613092989796959493929190614f11565b60405160208183030381529060405290506130b08c88836001611c06565b5050505050505050505050505050565b603380546001600160a01b038381166001600160a01b0319831681179093556040519116919082907f8be0079c531659141344cd1fd0a4f28419497f9722a3daafe3b4186f6b6457e090600090a35050565b600062ffffff8616156131345761312d888787878787613ef6565b9050613144565b613141878686868661404b565b90505b979650505050505050565b80516020808301516040840151805191926000926131739290810182019101614b1a565b905060008060008060008089606001518060200190518101906131969190615399565b955095509550955095509550856000031561342c576001861461342c578560020361330f5760005b8251811015613309578281815181106131d9576131d9614df7565b6020026020010151609e600086815260200190815260200160002060008282546132039190614b4d565b9250508190555082818151811061321c5761321c614df7565b602002602001015160a16000868152602001908152602001600020600088848151811061324b5761324b614df7565b60200260200101516001600160a01b03166001600160a01b0316815260200190815260200160002060008282546132829190614b4d565b9250508190555082818151811061329b5761329b614df7565b602090810291909101810151600086815260a2835260408082206001600160401b038e1683529093529182208054919290916132d8908490614b4d565b9091555050600084815260a0602052604081208054600192906132fc908490614b4d565b90915550506001016131be565b5061342c565b856003036133c05760008a60800151905060008160008151811061333557613335614df7565b602002602001015160000151905060008260008151811061335857613358614df7565b6020026020010151602001519050600061338c83609c60089054906101000a90046001600160a01b03168430610bb8611734565b905080609f600089815260200190815260200160002060008282546133b19190614b4d565b9091555061342c945050505050565b8560040361342c57609860009054906101000a90046001600160a01b03166001600160a01b0316638baa6bf16040518163ffffffff1660e01b8152600401600060405180830381600087803b15801561341857600080fd5b505af11580156130b0573d6000803e3d6000fd5b50505050505050505050565b60408051915160248084019190915281518084039091018152604490920190526020810180516001600160e01b03166397a657c960e01b17905290565b6134bc6040518060c0016040528060006001600160a01b03168152602001600062ffffff168152602001600081526020016000815260200160008152602001600081525090565b60985460405163264cae9360e21b8152600481018a90526001600160a01b0390911690639932ba4c90602401602060405180830381865afa158015613505573d6000803e3d6000fd5b505050506040513d601f19601f820116820180604052508101906135299190614b1a565b6001600160a01b03908116808352609854604051633259966560e01b8152600481019290925290911690633259966590602401602060405180830381865afa158015613579573d6000803e3d6000fd5b505050506040513d601f19601f8201168201806040525081019061359d9190614e49565b62ffffff166020820152609854815160405162967c1760e71b81526001600160a01b039182166004820152911690634b3e0b8090602401602060405180830381865afa1580156135f1573d6000803e3d6000fd5b505050506040513d601f19601f820116820180604052508101906136159190614b60565b604082810191909152600088815260a260209081528282206001600160401b038916835290528181205460608401528251609a5492516370a0823160e01b81526001600160a01b039384166004820152919216906370a0823190602401602060405180830381865afa15801561368f573d6000803e3d6000fd5b505050506040513d601f19601f820116820180604052508101906136b39190614b60565b905060005b8581101561379d57609c5483516001600160a01b03600160401b90920482169116036136ea5760a0830182905261377c565b8251609c54609a546040516370a0823160e01b81526001600160a01b0391821660048201526137769392600160401b90048216918316906370a0823190602401602060405180830381865afa158015613747573d6000803e3d6000fd5b505050506040513d601f19601f8201168201806040525081019061376b9190614b60565b308760200151611734565b60a08401525b8260a00151836080018181516137929190614b4d565b9052506001016136b8565b50600087836060015168056bc75e2d631000006137ba9190614fdb565b6137c49190614fb9565b905060006137d28286614fa6565b60008b815260a56020908152604080832054609f90925282205492935090916137fc908490614fdb565b6138069190614fb9565b9050808560800181815161381a9190614b4d565b90525060005b87811015613a0f5760985460405163264cae9360e21b8152600481018390526000916001600160a01b031690639932ba4c90602401602060405180830381865afa158015613872573d6000803e3d6000fd5b505050506040513d601f19601f820116820180604052508101906138969190614b1a565b609854604051633259966560e01b81526001600160a01b03808416600483015292935060009290911690633259966590602401602060405180830381865afa1580156138e6573d6000803e3d6000fd5b505050506040513d601f19601f8201168201806040525081019061390a9190614e49565b60985460405162967c1760e71b81526001600160a01b03858116600483015292935060009290911690634b3e0b8090602401602060405180830381865afa158015613959573d6000803e3d6000fd5b505050506040513d601f19601f8201168201806040525081019061397d9190614b60565b609c549091506001600160a01b03600160401b9091048116908416036139c25789818a608001516139ae9190614fdb565b6139b89190614fb9565b60a08a0152613a04565b6139fe609c60089054906101000a90046001600160a01b0316848c848d608001516139ed9190614fdb565b6139f79190614fb9565b3086611734565b60a08a01525b505050600101613820565b50505050505050505050505050565b613a506040518060a0016040528060608152602001606081526020016060815260200160608152602001606081525090565b600086613a668568056bc75e2d63100000614fdb565b613a709190614fb9565b90506000613a7e8287614fa6565b60008a815260a56020908152604080832054609f9092528220549293509091613aa8908490614fdb565b613ab29190614fb9565b90506000613abf8961107c565b90506000613aee609c60089054906101000a90046001600160a01b0316613ae58c6108a8565b85306003611734565b60985460405163d1c68aa360e01b81526001600160401b038d1660048201529192506001600160a01b03169063d1c68aa390602401600060405180830381865afa158015613b40573d6000803e3d6000fd5b505050506040513d6000823e601f3d908101601f19168201604052613b689190810190614e0d565b8652609854604051633414329f60e21b81526001600160401b038c1660048201526001600160a01b039091169063d050ca7c90602401600060405180830381865afa158015613bbb573d6000803e3d6000fd5b505050506040513d6000823e601f3d908101601f19168201604052613be39190810190614e0d565b602087015260985460405163221f337160e01b81526001600160401b038c1660048201526001600160a01b039091169063221f337190602401600060405180830381865afa158015613c39573d6000803e3d6000fd5b505050506040513d6000823e601f3d908101601f19168201604052613c619190810190614e66565b6040878101919091526098549051631435bff160e31b81526001600160401b038c1660048201526001600160a01b039091169063a1adff8890602401600060405180830381865afa158015613cba573d6000803e3d6000fd5b505050506040513d6000823e601f3d908101601f19168201604052613ce29190810190614e66565b606087810191909152604080516002808252928101825291906020830190803683375050506080870181905280518c9190600090613d2257613d22614df7565b602002602001018181525050888660800151600181518110613d4657613d46614df7565b6020908102919091010152604080516001808252818301909252600091816020015b6040805180820190915260008082526020820152815260200190600190039081613d68579050509050613d9a8b6108a8565b81600081518110613dad57613dad614df7565b6020026020010151600001906001600160a01b031690816001600160a01b0316815250508181600081518110613de557613de5614df7565b6020026020010151602001818152505060006004886000015189602001518a604001518b60600151609d548e8e60800151604051602001613e2d989796959493929190614f11565b60405160208183030381529060405290506130b08c8286856001614243565b600054610100900460ff16613e735760405162461bcd60e51b81526004016111ca9061546a565b6001600160a01b038116613e9d576040516335fdcccd60e21b8152600060048201526024016111ca565b600080546001600160a01b03909216620100000262010000600160b01b0319909216919091179055565b600054610100900460ff16613eee5760405162461bcd60e51b81526004016111ca9061546a565b611732614663565b60405163095ea7b360e01b81526001600160a01b038781166004830152602482018490526000919086169063095ea7b3906044016020604051808303816000875af1158015613f49573d6000803e3d6000fd5b505050506040513d601f19601f82011682018060405250810190613f6d9190615377565b506000604051806101000160405280876001600160a01b03168152602001866001600160a01b031681526020018862ffffff168152602001846001600160a01b031681526020014261012c613fc29190614b4d565b815260208101869052600060408083018290526060909201525163414bf38960e01b81529091506001600160a01b0389169063414bf389906140089084906004016154b5565b6020604051808303816000875af1158015614027573d6000803e3d6000fd5b505050506040513d601f19601f8201168201806040525081019061183a9190614b60565b60408051600280825260608201835260009283929190602083019080368337019050509050858160008151811061408457614084614df7565b60200260200101906001600160a01b031690816001600160a01b03168152505084816001815181106140b8576140b8614df7565b6001600160a01b03928316602091820292909201015260405163d06ca61f60e01b815260009189169063d06ca61f906140f79088908690600401615532565b600060405180830381865afa158015614114573d6000803e3d6000fd5b505050506040513d6000823e601f3d908101601f1916820160405261413c9190810190614e66565b60405163095ea7b360e01b81526001600160a01b038a81166004830152602482018890529192509088169063095ea7b3906044016020604051808303816000875af115801561418f573d6000803e3d6000fd5b505050506040513d601f19601f820116820180604052508101906141b39190615377565b50604051635c11d79560e01b81526001600160a01b03891690635c11d795906141e990889060009087908a90429060040161554b565b600060405180830381600087803b15801561420357600080fd5b505af1158015614217573d6000803e3d6000fd5b505050508060018151811061422e5761422e614df7565b60200260200101519250505095945050505050565b8151609954600160a01b900461ffff168111156142c85760405162461bcd60e51b815260206004820152603760248201527f4d6178696d756d203520646966666572656e7420746f6b656e732063616e206260448201527f652073656e74207065722043434950204d65737361676500000000000000000060648201526084016111ca565b60005b818110156143ee5760995484516001600160a01b03909116908590839081106142f6576142f6614df7565b6020026020010151600001516001600160a01b0316146143e65783818151811061432257614322614df7565b6020026020010151600001516001600160a01b031663095ea7b3600060029054906101000a90046001600160a01b031686848151811061436457614364614df7565b6020026020010151602001516040518363ffffffff1660e01b81526004016143a19291906001600160a01b03929092168252602082015260400190565b6020604051808303816000875af11580156143c0573d6000803e3d6000fd5b505050506040513d601f19601f820116820180604052508101906143e49190615377565b505b6001016142cb565b506040805160a081019091526001600160a01b03851660c08201526000908060e0810160408051601f198184030181529181529082526020820189905281018690526060016001856001811115614447576144476151a2565b14614453576000614460565b6099546001600160a01b03165b6001600160a01b031681526020016144886040518060200160405280620dbba0815250613438565b9052600080546040516320487ded60e01b81529293509091620100009091046001600160a01b0316906320487ded906144c7908b9086906004016151fe565b602060405180830381865afa1580156144e4573d6000803e3d6000fd5b505050506040513d601f19601f820116820180604052508101906145089190614b60565b905060006001856001811115614520576145206151a2565b036145a6576000546040516396f4e9f960e01b8152620100009091046001600160a01b0316906396f4e9f99061455c908c9087906004016151fe565b6020604051808303816000875af115801561457b573d6000803e3d6000fd5b505050506040513d601f19601f8201168201806040525081019061459f9190614b60565b9050614625565b6000546040516396f4e9f960e01b8152620100009091046001600160a01b0316906396f4e9f99084906145df908d9088906004016151fe565b60206040518083038185885af11580156145fd573d6000803e3d6000fd5b50505050506040513d601f19601f820116820180604052508101906146229190614b60565b90505b6040518181527f54791b38f3859327992a1ca0590ad3c0f08feba98d1a4f56ab0dca74d203392a9060200160405180910390a1505050505050505050565b600054610100900460ff1661468a5760405162461bcd60e51b81526004016111ca9061546a565b611732336130c0565b6000602082840312156146a557600080fd5b81356001600160e01b0319811681146146bd57600080fd5b9392505050565b6000602082840312156146d657600080fd5b5035919050565b6001600160401b038116811461188a57600080fd5b80356146fd816146dd565b919050565b60006020828403121561471457600080fd5b81356146bd816146dd565b60006020828403121561473157600080fd5b813560ff811681146146bd57600080fd5b6000806040838503121561475557600080fd5b823591506020830135614767816146dd565b809150509250929050565b6001600160a01b038116811461188a57600080fd5b62ffffff8116811461188a57600080fd5b600080600080600060a086880312156147b057600080fd5b85356147bb81614772565b945060208601356147cb81614772565b93506040860135925060608601356147e281614772565b915060808601356147f281614787565b809150509295509295909350565b60006020828403121561481257600080fd5b81356001600160401b0381111561482857600080fd5b820160a081850312156146bd57600080fd5b6000806040838503121561484d57600080fd5b82359150602083013561476781614772565b60006020828403121561487157600080fd5b81356146bd81614772565b634e487b7160e01b600052604160045260246000fd5b604080519081016001600160401b03811182821017156148b4576148b461487c565b60405290565b60405160a081016001600160401b03811182821017156148b4576148b461487c565b604051601f8201601f191681016001600160401b03811182821017156149045761490461487c565b604052919050565b600082601f83011261491d57600080fd5b81356001600160401b038111156149365761493661487c565b614949601f8201601f19166020016148dc565b81815284602083860101111561495e57600080fd5b816020850160208301376000918101602001919091529392505050565b6000806000806080858703121561499157600080fd5b843561499c816146dd565b935060208501356149ac81614772565b925060408501356001600160401b038111156149c757600080fd5b6149d38782880161490c565b9250506060850135600281106149e857600080fd5b939692955090935050565b60008060008060808587031215614a0957600080fd5b8435614a1481614772565b93506020850135614a2481614772565b92506040850135915060608501356149e881614787565b60008060008060008060c08789031215614a5457600080fd5b8635614a5f816146dd565b95506020870135614a6f81614772565b94506040870135614a7f81614772565b93506060870135614a8f81614772565b92506080870135614a9f81614772565b915060a0870135614aaf81614772565b809150509295509295509295565b60008060008060808587031215614ad357600080fd5b8435614ade81614772565b93506020850135614aee81614772565b925060408501356001600160801b0381168114614b0a57600080fd5b915060608501356149e881614787565b600060208284031215614b2c57600080fd5b81516146bd81614772565b634e487b7160e01b600052601160045260246000fd5b808201808211156108a2576108a2614b37565b600060208284031215614b7257600080fd5b5051919050565b60006001600160401b03821115614b9257614b9261487c565b5060051b60200190565b600082601f830112614bad57600080fd5b8151614bc0614bbb82614b79565b6148dc565b8082825260208201915060208360051b860101925085831115614be257600080fd5b602085015b83811015614c08578051614bfa81614772565b835260209283019201614be7565b5095945050505050565b600082601f830112614c2357600080fd5b8151614c31614bbb82614b79565b8082825260208201915060208360051b860101925085831115614c5357600080fd5b602085015b83811015614c08578051835260209283019201614c58565b600082601f830112614c8157600080fd5b8151614c8f614bbb82614b79565b8082825260208201915060208360051b860101925085831115614cb157600080fd5b602085015b83811015614c08578051614cc9816146dd565b835260209283019201614cb6565b60008060008060808587031215614ced57600080fd5b84516001600160401b03811115614d0357600080fd5b614d0f87828801614b9c565b94505060208501516001600160401b03811115614d2b57600080fd5b614d3787828801614c12565b93505060408501516001600160401b03811115614d5357600080fd5b8501601f81018713614d6457600080fd5b8051614d72614bbb82614b79565b8082825260208201915060208360051b850101925089831115614d9457600080fd5b6020840193505b82841015614dbf578351614dae81614787565b825260209384019390910190614d9b565b8095505050505060608501516001600160401b03811115614ddf57600080fd5b614deb87828801614c70565b91505092959194509250565b634e487b7160e01b600052603260045260246000fd5b600060208284031215614e1f57600080fd5b81516001600160401b03811115614e3557600080fd5b614e4184828501614b9c565b949350505050565b600060208284031215614e5b57600080fd5b81516146bd81614787565b600060208284031215614e7857600080fd5b81516001600160401b03811115614e8e57600080fd5b614e4184828501614c12565b600081518084526020840193506020830160005b82811015614ed55781516001600160a01b0316865260209586019590910190600101614eae565b5093949350505050565b600081518084526020840193506020830160005b82811015614ed5578151865260209586019590910190600101614ef3565b60ff8916815261010060208201526000614f2f61010083018a614e9a565b8281036040840152614f41818a614e9a565b90508281036060840152614f558189614edf565b90508281036080840152614f698188614edf565b90508560a084015282810360c0840152614f838186614edf565b905082810360e0840152614f978185614edf565b9b9a5050505050505050505050565b818103818111156108a2576108a2614b37565b600082614fd657634e487b7160e01b600052601260045260246000fd5b500490565b80820281158282048414176108a2576108a2614b37565b600082601f83011261500357600080fd5b8135615011614bbb82614b79565b8082825260208201915060208360061b86010192508583111561503357600080fd5b602085015b83811015614c08576040818803121561505057600080fd5b615058614892565b813561506381614772565b8152602082810135818301529084529290920191604001615038565b600060a0823603121561509157600080fd5b6150996148ba565b823581526150a9602084016146f2565b602082015260408301356001600160401b038111156150c757600080fd5b6150d33682860161490c565b60408301525060608301356001600160401b038111156150f257600080fd5b6150fe3682860161490c565b60608301525060808301356001600160401b0381111561511d57600080fd5b61512936828601614ff2565b60808301525092915050565b60006020828403121561514757600080fd5b81516146bd816146dd565b60208082526030908201527f50726f706f7361626c654f776e61626c653a206e6577206f776e65722069732060408201526f746865207a65726f206164647265737360801b606082015260800190565b634e487b7160e01b600052602160045260246000fd5b6000815180845260005b818110156151de576020818501810151868301820152016151c2565b506000602082860101526020601f19601f83011685010191505092915050565b6001600160401b0383168152604060208201526000825160a0604084015261522960e08401826151b8565b90506020840151603f1984830301606085015261524682826151b8565b6040860151858203603f19016080870152805180835260209182019450600093509101905b808310156152a257835180516001600160a01b0316835260209081015181840152909301926001929092019160409091019061526b565b5060608601516001600160a01b031660a08601526080860151858203603f190160c0870152925061314481846151b8565b600080600080608085870312156152e957600080fd5b84516001600160401b038111156152ff57600080fd5b61530b87828801614b9c565b94505060208501516001600160401b0381111561532757600080fd5b61533387828801614c12565b93505060408501516001600160401b0381111561534f57600080fd5b61535b87828801614c12565b92505060608501516001600160401b03811115614ddf57600080fd5b60006020828403121561538957600080fd5b815180151581146146bd57600080fd5b60008060008060008060c087890312156153b257600080fd5b865160208801519096506001600160401b038111156153d057600080fd5b6153dc89828a01614b9c565b95505060408701516001600160401b038111156153f857600080fd5b61540489828a01614b9c565b606089015160808a0151919650945090506001600160401b0381111561542957600080fd5b61543589828a01614c12565b92505060a08701516001600160401b0381111561545157600080fd5b61545d89828a01614c12565b9150509295509295509295565b6020808252602b908201527f496e697469616c697a61626c653a20636f6e7472616374206973206e6f74206960408201526a6e697469616c697a696e6760a81b606082015260800190565b81516001600160a01b03908116825260208084015182169083015260408084015162ffffff169083015260608084015191821690830152610100820190506080830151608083015260a083015160a083015260c083015160c083015260e083015161552b60e08401826001600160a01b03169052565b5092915050565b828152604060208201526000614e416040830184614e9a565b85815284602082015260a06040820152600061556a60a0830186614e9a565b6001600160a01b039490941660608301525060800152939250505056fea26469706673582212200d46b10d537bcab47ee7486b91c20d5ca116007cc4bc299866ca2ad749e90e7864736f6c634300081a0033","linkReferences":{}},"methodIdentifiers":{"askValues()":"2700cc86","ccipReceive((bytes32,uint64,bytes,bytes,(address,uint256)[]))":"85572ffb","chainValueByNonce(uint256,uint64)":"69abf538","convertEthToUsd(uint256)":"c086381e","crossChainFactoryBySelector(uint64)":"340fbc74","crossChainToken(uint64)":"19da7e2a","currentChainSelector()":"3d54cb6f","estimateAmountOut(address,address,uint128,uint24)":"ee7bd3e2","extraWethByNonce(uint256)":"756c1fd1","factoryStorage()":"c06e1ae2","feeRate()":"978bbdb9","firstReweightAction()":"63713a8b","getAmountOut(address,address,uint256,uint24)":"dd811ac9","getPortfolioBalance()":"a8509fd8","getRouter()":"b0f479a1","i_link()":"7d253aff","i_maxTokensLength()":"5b6a0351","indexToken()":"e7d015f2","initialize(uint64,address,address,address,address,address)":"edba0e31","latestFeeUpdate()":"011ced5f","owner()":"8da5cb5b","portfolioTotalValueByNonce(uint256)":"7d3546f7","priceInWei()":"3c8da588","proposeOwner(address)":"b5ed298a","proposedOwner()":"d153b60c","redemptionNonceOutputToken(uint256)":"0603fb05","redemptionNonceOutputTokenSwapFee(uint256)":"afcaa952","renounceOwnership()":"715018a6","reweightExtraPercentage(uint256)":"814ffd71","reweightTokensCount(uint256)":"78324463","reweightWethValueByNonce(uint256)":"f1639b09","secondReweightAction()":"d79e8d65","sendMessage(uint64,address,bytes,uint8)":"bcab90b3","setFeeRate(uint8)":"5177942a","setIndexFactoryStorage(address)":"cc8659ae","supportsInterface(bytes4)":"01ffc9a7","swap(address,address,uint256,address,uint24)":"7e79f512","tokenValueByNonce(uint256,address)":"b316e7fd","transferOwnership(address)":"f2fde38b","updatePortfolioNonce()":"003cf402","updatedTokensValueCount(uint256)":"c070a097","weth()":"3fc8cef3"},"id":4}