{"abi":[{"type":"receive","stateMutability":"payable"},{"type":"function","name":"askValues","inputs":[],"outputs":[],"stateMutability":"nonpayable"},{"type":"function","name":"ccipReceive","inputs":[{"name":"message","type":"tuple","internalType":"struct Client.Any2EVMMessage","components":[{"name":"messageId","type":"bytes32","internalType":"bytes32"},{"name":"sourceChainSelector","type":"uint64","internalType":"uint64"},{"name":"sender","type":"bytes","internalType":"bytes"},{"name":"data","type":"bytes","internalType":"bytes"},{"name":"destTokenAmounts","type":"tuple[]","internalType":"struct Client.EVMTokenAmount[]","components":[{"name":"token","type":"address","internalType":"address"},{"name":"amount","type":"uint256","internalType":"uint256"}]}]}],"outputs":[],"stateMutability":"nonpayable"},{"type":"function","name":"chainValueByNonce","inputs":[{"name":"","type":"uint256","internalType":"uint256"},{"name":"","type":"uint64","internalType":"uint64"}],"outputs":[{"name":"","type":"uint256","internalType":"uint256"}],"stateMutability":"view"},{"type":"function","name":"convertEthToUsd","inputs":[{"name":"_ethAmount","type":"uint256","internalType":"uint256"}],"outputs":[{"name":"","type":"uint256","internalType":"uint256"}],"stateMutability":"view"},{"type":"function","name":"crossChainFactoryBySelector","inputs":[{"name":"_chainSelector","type":"uint64","internalType":"uint64"}],"outputs":[{"name":"","type":"address","internalType":"address"}],"stateMutability":"view"},{"type":"function","name":"crossChainToken","inputs":[{"name":"_chainSelector","type":"uint64","internalType":"uint64"}],"outputs":[{"name":"","type":"address","internalType":"address"}],"stateMutability":"view"},{"type":"function","name":"currentChainSelector","inputs":[],"outputs":[{"name":"","type":"uint64","internalType":"uint64"}],"stateMutability":"view"},{"type":"function","name":"extraWethByNonce","inputs":[{"name":"","type":"uint256","internalType":"uint256"}],"outputs":[{"name":"","type":"uint256","internalType":"uint256"}],"stateMutability":"view"},{"type":"function","name":"factoryStorage","inputs":[],"outputs":[{"name":"","type":"address","internalType":"contract IndexFactoryStorage"}],"stateMutability":"view"},{"type":"function","name":"firstReweightAction","inputs":[],"outputs":[],"stateMutability":"nonpayable"},{"type":"function","name":"getAmountOut","inputs":[{"name":"path","type":"address[]","internalType":"address[]"},{"name":"fees","type":"uint24[]","internalType":"uint24[]"},{"name":"amountIn","type":"uint256","internalType":"uint256"}],"outputs":[{"name":"finalAmountOut","type":"uint256","internalType":"uint256"}],"stateMutability":"view"},{"type":"function","name":"getPortfolioBalance","inputs":[],"outputs":[{"name":"","type":"uint256","internalType":"uint256"}],"stateMutability":"view"},{"type":"function","name":"getRouter","inputs":[],"outputs":[{"name":"","type":"address","internalType":"address"}],"stateMutability":"view"},{"type":"function","name":"i_link","inputs":[],"outputs":[{"name":"","type":"address","internalType":"address"}],"stateMutability":"view"},{"type":"function","name":"i_maxTokensLength","inputs":[],"outputs":[{"name":"","type":"uint16","internalType":"uint16"}],"stateMutability":"view"},{"type":"function","name":"initialize","inputs":[{"name":"_currentChainSelector","type":"uint64","internalType":"uint64"},{"name":"_factoryStorage","type":"address","internalType":"address"},{"name":"_chainlinkToken","type":"address","internalType":"address"},{"name":"_router","type":"address","internalType":"address"},{"name":"_weth","type":"address","internalType":"address"}],"outputs":[],"stateMutability":"nonpayable"},{"type":"function","name":"owner","inputs":[],"outputs":[{"name":"","type":"address","internalType":"address"}],"stateMutability":"view"},{"type":"function","name":"portfolioTotalValueByNonce","inputs":[{"name":"","type":"uint256","internalType":"uint256"}],"outputs":[{"name":"","type":"uint256","internalType":"uint256"}],"stateMutability":"view"},{"type":"function","name":"priceInWei","inputs":[],"outputs":[{"name":"","type":"uint256","internalType":"uint256"}],"stateMutability":"view"},{"type":"function","name":"proposeOwner","inputs":[{"name":"_proposedOwner","type":"address","internalType":"address"}],"outputs":[],"stateMutability":"nonpayable"},{"type":"function","name":"proposedOwner","inputs":[],"outputs":[{"name":"","type":"address","internalType":"address"}],"stateMutability":"view"},{"type":"function","name":"redemptionNonceOutputToken","inputs":[{"name":"","type":"uint256","internalType":"uint256"}],"outputs":[{"name":"","type":"address","internalType":"address"}],"stateMutability":"view"},{"type":"function","name":"redemptionNonceOutputTokenSwapFee","inputs":[{"name":"","type":"uint256","internalType":"uint256"}],"outputs":[{"name":"","type":"uint256","internalType":"uint256"}],"stateMutability":"view"},{"type":"function","name":"renounceOwnership","inputs":[],"outputs":[],"stateMutability":"nonpayable"},{"type":"function","name":"reweightExtraPercentage","inputs":[{"name":"","type":"uint256","internalType":"uint256"}],"outputs":[{"name":"","type":"uint256","internalType":"uint256"}],"stateMutability":"view"},{"type":"function","name":"reweightTokensCount","inputs":[{"name":"","type":"uint256","internalType":"uint256"}],"outputs":[{"name":"","type":"uint256","internalType":"uint256"}],"stateMutability":"view"},{"type":"function","name":"reweightWethValueByNonce","inputs":[{"name":"","type":"uint256","internalType":"uint256"}],"outputs":[{"name":"","type":"uint256","internalType":"uint256"}],"stateMutability":"view"},{"type":"function","name":"secondReweightAction","inputs":[],"outputs":[],"stateMutability":"nonpayable"},{"type":"function","name":"sendMessage","inputs":[{"name":"destinationChainSelector","type":"uint64","internalType":"uint64"},{"name":"receiver","type":"address","internalType":"address"},{"name":"_data","type":"bytes","internalType":"bytes"},{"name":"payFeesIn","type":"uint8","internalType":"enum MessageSender.PayFeesIn"}],"outputs":[{"name":"","type":"bytes32","internalType":"bytes32"}],"stateMutability":"nonpayable"},{"type":"function","name":"setIndexFactoryStorage","inputs":[{"name":"_factoryStorage","type":"address","internalType":"address"}],"outputs":[],"stateMutability":"nonpayable"},{"type":"function","name":"supportsInterface","inputs":[{"name":"interfaceId","type":"bytes4","internalType":"bytes4"}],"outputs":[{"name":"","type":"bool","internalType":"bool"}],"stateMutability":"pure"},{"type":"function","name":"swap","inputs":[{"name":"path","type":"address[]","internalType":"address[]"},{"name":"fees","type":"uint24[]","internalType":"uint24[]"},{"name":"amountIn","type":"uint256","internalType":"uint256"},{"name":"_recipient","type":"address","internalType":"address"}],"outputs":[{"name":"outputAmount","type":"uint256","internalType":"uint256"}],"stateMutability":"nonpayable"},{"type":"function","name":"tokenValueByNonce","inputs":[{"name":"","type":"uint256","internalType":"uint256"},{"name":"","type":"address","internalType":"address"}],"outputs":[{"name":"","type":"uint256","internalType":"uint256"}],"stateMutability":"view"},{"type":"function","name":"transferOwnership","inputs":[{"name":"newOwner","type":"address","internalType":"address"}],"outputs":[],"stateMutability":"nonpayable"},{"type":"function","name":"updatePortfolioNonce","inputs":[],"outputs":[{"name":"","type":"uint256","internalType":"uint256"}],"stateMutability":"view"},{"type":"function","name":"updatedTokensValueCount","inputs":[{"name":"","type":"uint256","internalType":"uint256"}],"outputs":[{"name":"","type":"uint256","internalType":"uint256"}],"stateMutability":"view"},{"type":"function","name":"weth","inputs":[],"outputs":[{"name":"","type":"address","internalType":"contract IWETH"}],"stateMutability":"view"},{"type":"event","name":"Initialized","inputs":[{"name":"version","type":"uint8","indexed":false,"internalType":"uint8"}],"anonymous":false},{"type":"event","name":"MessageSent","inputs":[{"name":"messageId","type":"bytes32","indexed":false,"internalType":"bytes32"}],"anonymous":false},{"type":"event","name":"OwnershipTransferred","inputs":[{"name":"previousOwner","type":"address","indexed":true,"internalType":"address"},{"name":"newOwner","type":"address","indexed":true,"internalType":"address"}],"anonymous":false},{"type":"error","name":"InvalidRouter","inputs":[{"name":"router","type":"address","internalType":"address"}]}],"bytecode":{"object":"0x6080604052348015600e575f80fd5b50615ecf8061001c5f395ff3fe6080604052600436106101e7575f3560e01c80637d3546f71161010f578063bcab90b3116100a8578063d153b60c1161006d578063d153b60c14610683578063d79e8d65146106a2578063dfbd3897146106b6578063f1639b09146106d5578063f2fde38b14610700575f80fd5b8063bcab90b3146105dc578063c06e1ae2146105fb578063c070a0971461061a578063c086381e14610645578063cc8659ae14610664575f80fd5b80637d3546f714610494578063814ffd71146104bf57806385572ffb146104ea5780638da5cb5b14610509578063a8509fd814610526578063afcaa9521461053a578063b0f479a114610565578063b316e7fd14610587578063b5ed298a146105bd575f80fd5b80633fc8cef3116101815780633fc8cef31461034f5780635b6a03511461036e5780635c1a094c146103a257806363713a8b146103c157806369abf538146103d5578063715018a61461040b578063756c1fd11461041f578063783244631461044a5780637d253aff14610475575f80fd5b80623cf402146101f257806301ffc9a71461021a5780630603fb051461024957806316b487ff1461028a57806319da7e2a146102ab5780632700cc86146102ca578063340fbc74146102de5780633c8da588146102fd5780633d54cb6f14610311575f80fd5b366101ee57005b5f80fd5b3480156101fd575f80fd5b50610207609b5481565b6040519081526020015b60405180910390f35b348015610225575f80fd5b50610239610234366004614d2c565b61071f565b6040519015158152602001610211565b348015610254575f80fd5b5061027d610263366004614d5a565b60a46020525f90815260409020546001600160a01b031681565b6040516102119190614d71565b348015610295575f80fd5b506102a96102a4366004614dbd565b610755565b005b3480156102b6575f80fd5b5061027d6102c5366004614e2a565b610af1565b3480156102d5575f80fd5b506102a9610b65565b3480156102e9575f80fd5b5061027d6102f8366004614e2a565b610dc1565b348015610308575f80fd5b50610207610dfa565b34801561031c575f80fd5b5060995461033790600160b01b90046001600160401b031681565b6040516001600160401b039091168152602001610211565b34801561035a575f80fd5b50609a5461027d906001600160a01b031681565b348015610379575f80fd5b5060995461038f90600160a01b900461ffff1681565b60405161ffff9091168152602001610211565b3480156103ad575f80fd5b506102076103bc366004614fdc565b610e6a565b3480156103cc575f80fd5b506102a9610fd9565b3480156103e0575f80fd5b506102076103ef36600461505a565b60a060209081525f928352604080842090915290825290205481565b348015610416575f80fd5b506102a96114eb565b34801561042a575f80fd5b50610207610439366004614d5a565b609d6020525f908152604090205481565b348015610455575f80fd5b50610207610464366004614d5a565b60a26020525f908152604090205481565b348015610480575f80fd5b5060995461027d906001600160a01b031681565b34801561049f575f80fd5b506102076104ae366004614d5a565b609c6020525f908152604090205481565b3480156104ca575f80fd5b506102076104d9366004614d5a565b60a36020525f908152604090205481565b3480156104f5575f80fd5b506102a9610504366004615088565b6114fe565b348015610514575f80fd5b506033546001600160a01b031661027d565b348015610531575f80fd5b50610207611544565b348015610545575f80fd5b50610207610554366004614d5a565b60a56020525f908152604090205481565b348015610570575f80fd5b505f546201000090046001600160a01b031661027d565b348015610592575f80fd5b506102076105a13660046150be565b609f60209081525f928352604080842090915290825290205481565b3480156105c8575f80fd5b506102a96105d73660046150e1565b6118b9565b3480156105e7575f80fd5b506102076105f636600461516f565b611909565b348015610606575f80fd5b5060985461027d906001600160a01b031681565b348015610625575f80fd5b50610207610634366004614d5a565b609e6020525f908152604090205481565b348015610650575f80fd5b5061020761065f366004614d5a565b611a08565b34801561066f575f80fd5b506102a961067e3660046150e1565b611a2e565b34801561068e575f80fd5b5060655461027d906001600160a01b031681565b3480156106ad575f80fd5b506102a9611a58565b3480156106c1575f80fd5b506102076106d03660046151d7565b611f55565b3480156106e0575f80fd5b506102076106ef366004614d5a565b60a16020525f908152604090205481565b34801561070b575f80fd5b506102a961071a3660046150e1565b611fd0565b5f6001600160e01b031982166385572ffb60e01b148061074f57506001600160e01b031982166301ffc9a760e01b145b92915050565b5f54610100900460ff161580801561077357505f54600160ff909116105b8061078c5750303b15801561078c57505f5460ff166001145b6107f45760405162461bcd60e51b815260206004820152602e60248201527f496e697469616c697a61626c653a20636f6e747261637420697320616c72656160448201526d191e481a5b9a5d1a585b1a5e995960921b60648201526084015b60405180910390fd5b5f805460ff191660011790558015610815575f805461ff0019166101001790555b5f866001600160401b0316116108665760405162461bcd60e51b815260206004820152601660248201527524b73b30b634b21031b430b4b71039b2b632b1ba37b960511b60448201526064016107eb565b6001600160a01b0385166108bc5760405162461bcd60e51b815260206004820152601f60248201527f496e76616c696420666163746f72792073746f7261676520616464726573730060448201526064016107eb565b6001600160a01b0384166109125760405162461bcd60e51b815260206004820152601f60248201527f496e76616c696420436861696e6c696e6b20746f6b656e20616464726573730060448201526064016107eb565b6001600160a01b0383166109615760405162461bcd60e51b8152602060048201526016602482015275496e76616c696420726f75746572206164647265737360501b60448201526064016107eb565b6001600160a01b0382166109ae5760405162461bcd60e51b8152602060048201526014602482015273496e76616c69642057455448206164647265737360601b60448201526064016107eb565b6109b7836120f5565b6109bf61216d565b60998054609880546001600160a01b0319166001600160a01b03898116919091179091558681166001600160f01b0319909216600160b01b6001600160401b038b16026001600160b01b031916178217600560a01b179092555f5460405163095ea7b360e01b8152919263095ea7b392610a4892620100009004909116905f1990600401615243565b6020604051808303815f875af1158015610a64573d5f803e3d5ffd5b505050506040513d601f19601f82011682018060405250810190610a88919061525c565b50609a80546001600160a01b0319166001600160a01b0384161790558015610ae9575f805461ff0019169055604051600181527f7f26b83ff96e1f2b6a682f133852f6798a09c465da95921460cefb38474024989060200160405180910390a15b505050505050565b609854604051630ced3f1560e11b81526001600160401b03831660048201525f916001600160a01b0316906319da7e2a906024015b602060405180830381865afa158015610b41573d5f803e3d5ffd5b505050506040513d601f19601f8201168201806040525081019061074f919061527b565b610b6d61219b565b6001609b5f828254610b7f91906152aa565b909155505060985460408051631a521ec760e21b815290515f926001600160a01b0316916369487b1c9160048083019260209291908290030181865afa158015610bcb573d5f803e3d5ffd5b505050506040513d601f19601f82011682018060405250810190610bef91906152bd565b90505f60985f9054906101000a90046001600160a01b03166001600160a01b031663b90b8a2a6040518163ffffffff1660e01b8152600401602060405180830381865afa158015610c42573d5f803e3d5ffd5b505050506040513d601f19601f82011682018060405250810190610c6691906152bd565b90505f5b82811015610dbc576098546040516369fbf93360e11b8152600481018490525f916001600160a01b03169063d3f7f266906024015f60405180830381865afa158015610cb8573d5f803e3d5ffd5b505050506040513d5f823e601f3d908101601f19168201604052610cdf9190810190615393565b925050505f818381518110610cf657610cf6615480565b602090810291909101015160985460405163b6ad185b60e01b81526001600160401b03831660048201529192505f916001600160a01b039091169063b6ad185b90602401602060405180830381865afa158015610d55573d5f803e3d5ffd5b505050506040513d601f19601f82011682018060405250810190610d7991906152bd565b6099549091506001600160401b03600160b01b909104811690831603610da857610da382826121f5565b610db1565b610db18261257d565b505050600101610c6a565b505050565b609854604051630d03ef1d60e21b81526001600160401b03831660048201525f916001600160a01b03169063340fbc7490602401610b26565b60985460408051630791b4b160e31b815290515f926001600160a01b031691633c8da5889160048083019260209291908290030181865afa158015610e41573d5f803e3d5ffd5b505050506040513d601f19601f82011682018060405250810190610e6591906152bd565b905090565b5f808311610e8a5760405162461bcd60e51b81526004016107eb90615494565b6001600160a01b038216610edc5760405162461bcd60e51b8152602060048201526019602482015278496e76616c696420726563697069656e74206164647265737360381b60448201526064016107eb565b6098546040805163b631e80b60e01b815290515f926001600160a01b03169163b631e80b9160048083019260209291908290030181865afa158015610f23573d5f803e3d5ffd5b505050506040513d601f19601f82011682018060405250810190610f47919061527b565b90505f60985f9054906101000a90046001600160a01b03166001600160a01b031663744fbc7a6040518163ffffffff1660e01b8152600401602060405180830381865afa158015610f9a573d5f803e3d5ffd5b505050506040513d601f19601f82011682018060405250810190610fbe919061527b565b9050610fce8282898989896126f3565b979650505050505050565b610fe161219b565b609b545f818152609c60209081526040808320546098548251631a521ec760e21b815292519194936001600160a01b03909116926369487b1c92600480830193928290030181865afa158015611039573d5f803e3d5ffd5b505050506040513d601f19601f8201168201806040525081019061105d91906152bd565b90505f60985f9054906101000a90046001600160a01b03166001600160a01b031663b90b8a2a6040518163ffffffff1660e01b8152600401602060405180830381865afa1580156110b0573d5f803e3d5ffd5b505050506040513d601f19601f820116820180604052508101906110d491906152bd565b90505f60985f9054906101000a90046001600160a01b03166001600160a01b031663f15817876040518163ffffffff1660e01b8152600401602060405180830381865afa158015611127573d5f803e3d5ffd5b505050506040513d601f19601f8201168201806040525081019061114b91906152bd565b6098546040516369fbf93360e11b8152600481018590529192505f916001600160a01b039091169063d3f7f266906024015f60405180830381865afa158015611196573d5f803e3d5ffd5b505050506040513d5f823e601f3d908101601f191682016040526111bd9190810190615393565b925050505f5b848110156114e2575f8282815181106111de576111de615480565b602090810291909101015160985460405163b6ad185b60e01b81526001600160401b03831660048201529192505f916001600160a01b039091169063b6ad185b90602401602060405180830381865afa15801561123d573d5f803e3d5ffd5b505050506040513d601f19601f8201168201806040525081019061126191906152bd565b609854604051637e34c5a560e11b81526001600160401b03851660048201529192505f916001600160a01b039091169063fc698b4a90602401602060405180830381865afa1580156112b5573d5f803e3d5ffd5b505050506040513d601f19601f820116820180604052508101906112d991906152bd565b609854604051632a3ff8ad60e01b8152600481018990526001600160401b03861660248201529192505f916001600160a01b0390911690632a3ff8ad90604401602060405180830381865afa158015611334573d5f803e3d5ffd5b505050506040513d601f19601f8201168201806040525081019061135891906152bd565b6098546040516303b9c7bd60e31b8152600481018a90526001600160401b03871660248201529192505f916001600160a01b0390911690631dce3de890604401602060405180830381865afa1580156113b3573d5f803e3d5ffd5b505050506040513d601f19601f820116820180604052508101906113d791906152bd565b5f8d815260a0602090815260408083206001600160401b038a1680855292528083205460985491516302fc352760e61b815260048101939093529394506001600160a01b03169063bf0d49c0906024015f60405180830381865afa158015611441573d5f803e3d5ffd5b505050506040513d5f823e601f3d908101601f1916820160405261146891908101906154c9565b9050828d61147f8468056bc75e2d631000006154fa565b6114899190615511565b11156114cf576099546001600160401b03600160b01b9091048116908816036114c1576114bc888f8f8a8a8a8a8a612747565b6114cf565b6114cf8e8e898686866128e0565b5050600190950194506111c39350505050565b50505050505050565b6114f361219b565b6114fc5f612acd565b565b5f546201000090046001600160a01b0316331461153057336040516335fdcccd60e21b81526004016107eb9190614d71565b61154161153c826155b9565b612b1e565b50565b5f805f60985f9054906101000a90046001600160a01b03166001600160a01b03166353fd43326040518163ffffffff1660e01b8152600401602060405180830381865afa158015611597573d5f803e3d5ffd5b505050506040513d601f19601f820116820180604052508101906115bb91906152bd565b90505f60985f9054906101000a90046001600160a01b03166001600160a01b031663fbfa77cf6040518163ffffffff1660e01b8152600401602060405180830381865afa15801561160e573d5f803e3d5ffd5b505050506040513d601f19601f82011682018060405250810190611632919061527b565b90505f5b828110156118b05760985460405163264cae9360e21b8152600481018390525f916001600160a01b031690639932ba4c90602401602060405180830381865afa158015611685573d5f803e3d5ffd5b505050506040513d601f19601f820116820180604052508101906116a9919061527b565b609854604051633aa3b3c160e21b81529192505f916001600160a01b039091169063ea8ecf04906116de908590600401614d71565b602060405180830381865afa1580156116f9573d5f803e3d5ffd5b505050506040513d601f19601f8201168201806040525081019061171d919061566a565b6099549091506001600160401b03600160b01b9091048116908216036118a65760985460405163e6096a5f60e01b81525f9182916001600160a01b039091169063e6096a5f90611771908790600401614d71565b5f60405180830381865afa15801561178b573d5f803e3d5ffd5b505050506040513d5f823e601f3d908101601f191682016040526117b29190810190615685565b6098546040516370a0823160e01b81529294509092505f916001600160a01b039182169163dfbd38979186918691908a16906370a08231906117f8908e90600401614d71565b602060405180830381865afa158015611813573d5f803e3d5ffd5b505050506040513d601f19601f8201168201806040525081019061183791906152bd565b6040518463ffffffff1660e01b81526004016118559392919061578d565b602060405180830381865afa158015611870573d5f803e3d5ffd5b505050506040513d601f19601f8201168201806040525081019061189491906152bd565b90506118a0818a6152aa565b98505050505b5050600101611636565b50919392505050565b6118c161219b565b6001600160a01b0381166118e75760405162461bcd60e51b81526004016107eb906157f2565b606580546001600160a01b0319166001600160a01b0392909216919091179055565b5f80856001600160401b03161161196d5760405162461bcd60e51b815260206004820152602260248201527f496e76616c69642064657374696e6174696f6e20636861696e2073656c65637460448201526137b960f11b60648201526084016107eb565b6001600160a01b0384166119935760405162461bcd60e51b81526004016107eb90615842565b5f8351116119da5760405162461bcd60e51b8152602060048201526014602482015273446174612063616e6e6f7420626520656d70747960601b60448201526064016107eb565b5f546099546119ff916001600160a01b03620100009091048116911687878787612df9565b95945050505050565b5f670de0b6b3a7640000611a1a610dfa565b611a2490846154fa565b61074f9190615511565b611a3661219b565b609880546001600160a01b0319166001600160a01b0392909216919091179055565b611a6061219b565b609b545f818152609c602090815260408083205460985482516311d3af8360e31b815292519194936001600160a01b0390911692638e9d7c1892600480830193928290030181865afa158015611ab8573d5f803e3d5ffd5b505050506040513d601f19601f82011682018060405250810190611adc91906152bd565b90505f60985f9054906101000a90046001600160a01b03166001600160a01b031663f15817876040518163ffffffff1660e01b8152600401602060405180830381865afa158015611b2f573d5f803e3d5ffd5b505050506040513d601f19601f82011682018060405250810190611b5391906152bd565b90505f60985f9054906101000a90046001600160a01b03166001600160a01b03166369487b1c6040518163ffffffff1660e01b8152600401602060405180830381865afa158015611ba6573d5f803e3d5ffd5b505050506040513d601f19601f82011682018060405250810190611bca91906152bd565b90505f60985f9054906101000a90046001600160a01b03166001600160a01b031663b90b8a2a6040518163ffffffff1660e01b8152600401602060405180830381865afa158015611c1d573d5f803e3d5ffd5b505050506040513d601f19601f82011682018060405250810190611c4191906152bd565b90505f5b848110156114e2576098546040516329b71fb560e11b8152600481018690525f916001600160a01b03169063536e3f6a906024015f60405180830381865afa158015611c93573d5f803e3d5ffd5b505050506040513d5f823e601f3d908101601f19168201604052611cba9190810190615393565b925050505f818381518110611cd157611cd1615480565b602090810291909101015160985460405163b6ad185b60e01b81526001600160401b03831660048201529192505f916001600160a01b039091169063b6ad185b90602401602060405180830381865afa158015611d30573d5f803e3d5ffd5b505050506040513d601f19601f82011682018060405250810190611d5491906152bd565b609854604051637e34c5a560e11b81526001600160401b03851660048201529192505f916001600160a01b039091169063fc698b4a90602401602060405180830381865afa158015611da8573d5f803e3d5ffd5b505050506040513d601f19601f82011682018060405250810190611dcc91906152bd565b6098546040516303b9c7bd60e31b8152600481018b90526001600160401b03861660248201529192505f916001600160a01b0390911690631dce3de890604401602060405180830381865afa158015611e27573d5f803e3d5ffd5b505050506040513d601f19601f82011682018060405250810190611e4b91906152bd565b5f8d815260a0602090815260408083206001600160401b03891680855292528083205460985491516302fc352760e61b815260048101939093529394506001600160a01b03169063bf0d49c0906024015f60405180830381865afa158015611eb5573d5f803e3d5ffd5b505050506040513d5f823e601f3d908101601f19168201604052611edc91908101906154c9565b9050828d611ef38468056bc75e2d631000006154fa565b611efd9190615511565b1015611f42576099546001600160401b03600160b01b909104811690871603611f3457611f2f888f8f898989896131a0565b611f42565b611f428e8e888686866132e5565b505060019095019450611c459350505050565b60985460405163dfbd389760e01b81525f916001600160a01b03169063dfbd389790611f899087908790879060040161578d565b602060405180830381865afa158015611fa4573d5f803e3d5ffd5b505050506040513d601f19601f82011682018060405250810190611fc891906152bd565b949350505050565b6001600160a01b038116611ff65760405162461bcd60e51b81526004016107eb906157f2565b6065546001600160a01b0382811691161461206e5760405162461bcd60e51b815260206004820152603260248201527f50726f706f7361626c654f776e61626c653a206e6577206f776e6572206973206044820152713737ba10383937b837b9b2b21037bbb732b960711b60648201526084016107eb565b6001600160a01b03811633146120ec5760405162461bcd60e51b815260206004820152603a60248201527f50726f706f7361626c654f776e61626c653a20746869732063616c6c206d757360448201527f74206265206d61646520627920746865206e6577206f776e657200000000000060648201526084016107eb565b61154181612acd565b5f54610100900460ff1661211b5760405162461bcd60e51b81526004016107eb90615874565b6001600160a01b038116612144575f6040516335fdcccd60e21b81526004016107eb9190614d71565b5f80546001600160a01b03909216620100000262010000600160b01b0319909216919091179055565b5f54610100900460ff166121935760405162461bcd60e51b81526004016107eb90615874565b6114fc61338a565b6033546001600160a01b031633146114fc5760405162461bcd60e51b815260206004820181905260248201527f4f776e61626c653a2063616c6c6572206973206e6f7420746865206f776e657260448201526064016107eb565b60985460405163d1c68aa360e01b81526001600160401b03841660048201525f916001600160a01b03169063d1c68aa3906024015f60405180830381865afa158015612243573d5f803e3d5ffd5b505050506040513d5f823e601f3d908101601f1916820160405261226a91908101906158bf565b90505f60985f9054906101000a90046001600160a01b03166001600160a01b031663fbfa77cf6040518163ffffffff1660e01b8152600401602060405180830381865afa1580156122bd573d5f803e3d5ffd5b505050506040513d601f19601f820116820180604052508101906122e1919061527b565b90505f5b83811015612576575f83828151811061230057612300615480565b602090810291909101015160985460405163e6096a5f60e01b81529192505f9182916001600160a01b03169063e6096a5f90612340908690600401614d71565b5f60405180830381865afa15801561235a573d5f803e3d5ffd5b505050506040513d5f823e601f3d908101601f191682016040526123819190810190615685565b609a5491935091505f906001600160a01b0390811690851603612410576040516370a0823160e01b81526001600160a01b038516906370a08231906123ca908990600401614d71565b602060405180830381865afa1580156123e5573d5f803e3d5ffd5b505050506040513d601f19601f8201168201806040525081019061240991906152bd565b9050612483565b6124808383866001600160a01b03166370a082318a6040518263ffffffff1660e01b81526004016124419190614d71565b602060405180830381865afa15801561245c573d5f803e3d5ffd5b505050506040513d601f19601f820116820180604052508101906106d091906152bd565b90505b61248c81611a08565b609b545f908152609c6020526040812080549091906124ac9084906152aa565b909155506124bb905081611a08565b609b545f908152609f602090815260408083206001600160a01b0389168452909152812080549091906124ef9084906152aa565b9091555050609b545f908152609e602052604081208054600192906125159084906152aa565b90915550612524905081611a08565b609b545f90815260a060209081526040808320609954600160b01b90046001600160401b03168452909152812080549091906125619084906152aa565b9091555050600190940193506122e592505050565b5050505050565b5f61258782610dc1565b60985460405163d1c68aa360e01b81526001600160401b03851660048201529192505f916001600160a01b039091169063d1c68aa3906024015f60405180830381865afa1580156125da573d5f803e3d5ffd5b505050506040513d5f823e601f3d908101601f1916820160405261260191908101906158bf565b604080515f80825260208201818152828401938490526098546307fb214560e41b909452939450909291600290859085906001600160a01b0316637fb2145061264d84604485016158f0565b5f60405180830381865afa158015612667573d5f803e3d5ffd5b505050506040513d5f823e601f3d908101601f1916820160405261268e91908101906159c0565b604080515f80825260208201909252906126b8565b60608152602001906001900390816126a35790505b50609b5487886040516020016126d5989796959493929190615aa9565b60405160208183030381529060405290506114e28686836001611909565b5f8083116127135760405162461bcd60e51b81526004016107eb90615494565b83511561272e5761272787868686866133b9565b905061273d565b61273a868685856134f5565b90505b9695505050505050565b61274f614ccc565b6098546040805163fbfa77cf60e01b815290515f926001600160a01b03169163fbfa77cf9160048083019260209291908290030181865afa158015612796573d5f803e3d5ffd5b505050506040513d601f19601f820116820180604052508101906127ba919061527b565b5f8a815260a0602090815260408083206001600160401b038c1684529091528082205485820152609a5490516370a0823160e01b815292935090916001600160a01b03909116906370a0823190612815908590600401614d71565b602060405180830381865afa158015612830573d5f803e3d5ffd5b505050506040513d601f19601f8201168201806040525081019061285491906152bd565b90505f805f61286d8b8d8c8b8b8a8c604001518b613683565b9250925092506128818b838b8b8b8a6139ab565b5f8d8152609d60205260408120805483929061289e9084906152aa565b909155506128ae90508784615b3d565b5f8e815260a36020526040812080549091906128cb9084906152aa565b90915550505050505050505050505050505050565b5f856128f58468056bc75e2d631000006154fa565b6128ff9190615511565b905061290b8482615b3d565b5f88815260a36020526040812080549091906129289084906152aa565b909155505f905061293886610dc1565b60985460405163d1c68aa360e01b81526001600160401b03891660048201529192505f916001600160a01b039091169063d1c68aa3906024015f60405180830381865afa15801561298b573d5f803e3d5ffd5b505050506040513d5f823e601f3d908101601f191682016040526129b291908101906158bf565b609854604051633414329f60e21b81526001600160401b038a1660048201529192505f916001600160a01b039091169063d050ca7c906024015f60405180830381865afa158015612a05573d5f803e3d5ffd5b505050506040513d5f823e601f3d908101601f19168201604052612a2c91908101906158bf565b604080516003808252608082019092529192505f91906020820160608036833701905050905089815f81518110612a6557612a65615480565b6020026020010181815250508781600181518110612a8557612a85615480565b6020026020010181815250508681600281518110612aa557612aa5615480565b602002602001018181525050612ac08b84848c8a868a613ae8565b5050505050505050505050565b603380546001600160a01b038381166001600160a01b0319831681179093556040519116919082907f8be0079c531659141344cd1fd0a4f28419497f9722a3daafe3b4186f6b6457e0905f90a35050565b80516020808301516040840151805191925f92612b41929081018201910161527b565b90505f805f805f805f808b60600151806020019051810190612b639190615b50565b97509750975097509750975097509750875f0315612deb5760018814612deb5787600203612ce0575f5b8251811015612cda57828181518110612ba857612ba8615480565b6020026020010151609c5f8681526020019081526020015f205f828254612bcf91906152aa565b92505081905550828181518110612be857612be8615480565b6020026020010151609f5f8681526020019081526020015f205f8a8481518110612c1457612c14615480565b60200260200101516001600160a01b03166001600160a01b031681526020019081526020015f205f828254612c4991906152aa565b92505081905550828181518110612c6257612c62615480565b602002602001015160a05f8681526020019081526020015f205f8d6001600160401b03166001600160401b031681526020019081526020015f205f828254612caa91906152aa565b90915550505f848152609e60205260408120805460019290612ccd9084906152aa565b9091555050600101612b8d565b50612deb565b87600303612deb575f8c6080015190505f815f81518110612d0357612d03615480565b60200260200101515f015190505f825f81518110612d2357612d23615480565b602090810291909101810151015160985460405163e6096a5f60e01b81529192505f9182916001600160a01b03169063e6096a5f90612d66908790600401614d71565b5f60405180830381865afa158015612d80573d5f803e3d5ffd5b505050506040513d5f823e601f3d908101601f19168201604052612da79190810190615685565b915091505f612db883838630610e6a565b905080609d5f8b81526020019081526020015f205f828254612dda91906152aa565b90915550612deb9650505050505050565b505050505050505050505050565b5f6001600160a01b038716612e4b5760405162461bcd60e51b8152602060048201526018602482015277496e76616c696420695f726f75746572206164647265737360401b60448201526064016107eb565b6001600160a01b038616612e9a5760405162461bcd60e51b8152602060048201526016602482015275496e76616c696420695f6c696e6b206164647265737360501b60448201526064016107eb565b846001600160401b03165f03612ef25760405162461bcd60e51b815260206004820181905260248201527f496e76616c69642064657374696e6174696f6e436861696e53656c6563746f7260448201526064016107eb565b6001600160a01b038416612f185760405162461bcd60e51b81526004016107eb90615842565b5f835111612f575760405162461bcd60e51b815260206004820152600c60248201526b496e76616c6964206461746160a01b60448201526064016107eb565b5f6040518060a0016040528086604051602001612f749190614d71565b60408051808303601f19018152918152908252602080830188905281515f8082529181018352929091019190612fcb565b604080518082019091525f8082526020820152815260200190600190039081612fa55790505b5081526020016001856001811115612fe557612fe5615c6d565b14612ff0575f612ff2565b885b6001600160a01b0316815260200161301a6040518060200160405280622dc6c0815250613bf5565b90526040516320487ded60e01b81529091505f906001600160a01b038a16906320487ded9061304f908a908690600401615c81565b602060405180830381865afa15801561306a573d5f803e3d5ffd5b505050506040513d601f19601f8201168201806040525081019061308e91906152bd565b90505f60018560018111156130a5576130a5615c6d565b0361311f576040516396f4e9f960e01b81526001600160a01b038b16906396f4e9f9906130d8908b908790600401615c81565b6020604051808303815f875af11580156130f4573d5f803e3d5ffd5b505050506040513d601f19601f8201168201806040525081019061311891906152bd565b9050613193565b6040516396f4e9f960e01b81526001600160a01b038b16906396f4e9f990849061314f908c908890600401615c81565b60206040518083038185885af115801561316b573d5f803e3d5ffd5b50505050506040513d601f19601f8201168201806040525081019061319091906152bd565b90505b9998505050505050505050565b6098546040805163fbfa77cf60e01b815290515f926001600160a01b03169163fbfa77cf9160048083019260209291908290030181865afa1580156131e7573d5f803e3d5ffd5b505050506040513d601f19601f8201168201806040525081019061320b919061527b565b9050613215614cf9565b5f88815260a0602090815260408083206001600160401b038a1684529091529081902054908201819052613250908390889088908b90613c32565b606082015260408101515f9088906132719068056bc75e2d631000006154fa565b61327b9190615511565b90505f6132888286615b3d565b5f8b815260a36020908152604080832054609d90925282205492935090916132b19084906154fa565b6132bb9190615511565b905080846060018181516132cf91906152aa565b9052506060840151612deb9086908b9089613ffc565b5f6132f287878587614284565b90505f6132ff86836142f0565b6040805160028082526060820183529293505f92909160208301908036833701905050905087815f8151811061333757613337615480565b602002602001018181525050858160018151811061335757613357615480565b6020026020010181815250505f61337188848c888661437d565b905061337e888483614592565b50505050505050505050565b5f54610100900460ff166133b05760405162461bcd60e51b81526004016107eb90615874565b6114fc33612acd565b5f845f815181106133cc576133cc615480565b60200260200101516001600160a01b031663095ea7b387856040518363ffffffff1660e01b8152600401613401929190615243565b6020604051808303815f875af115801561341d573d5f803e3d5ffd5b505050506040513d601f19601f82011682018060405250810190613441919061525c565b505f6040518060a00160405280613458888861464b565b81526001600160a01b03851660208201526040016134784261012c6152aa565b8152602081018690525f6040918201525163c04b8d5960e01b81529091506001600160a01b0388169063c04b8d59906134b5908490600401615d54565b6020604051808303815f875af11580156134d1573d5f803e3d5ffd5b505050506040513d601f19601f82011682018060405250810190610fce91906152bd565b5f80856001600160a01b031663d06ca61f85876040518363ffffffff1660e01b8152600401613525929190615dab565b5f60405180830381865afa15801561353f573d5f803e3d5ffd5b505050506040513d5f823e601f3d908101601f1916820160405261356691908101906154c9565b9050845f8151811061357a5761357a615480565b60200260200101516001600160a01b031663095ea7b387866040518363ffffffff1660e01b81526004016135af929190615243565b6020604051808303815f875af11580156135cb573d5f803e3d5ffd5b505050506040513d601f19601f820116820180604052508101906135ef919061525c565b50604051635c11d79560e01b81526001600160a01b03871690635c11d795906136249087905f908a9089904290600401615dc3565b5f604051808303815f87803b15801561363b575f80fd5b505af115801561364d573d5f803e3d5ffd5b5050505080600182516136609190615b3d565b8151811061367057613670615480565b6020026020010151915050949350505050565b60985460405163d1c68aa360e01b81526001600160401b038a1660048201525f9182918291829182916001600160a01b03169063d1c68aa3906024015f60405180830381865afa1580156136d9573d5f803e3d5ffd5b505050506040513d5f823e601f3d908101601f1916820160405261370091908101906158bf565b90505f5b815181101561395757613715614ccc565b82828151811061372757613727615480565b60209081029190910101516001600160a01b0390811680835260985460405163e6096a5f60e01b81525f93849392169163e6096a5f9161376a9190600401614d71565b5f60405180830381865afa158015613784573d5f803e3d5ffd5b505050506040513d5f823e601f3d908101601f191682016040526137ab9190810190615685565b609a5485519294509092505f916001600160a01b03918216911603613846578c6001600160a01b0316631c20fadd855f0151308e6040518463ffffffff1660e01b81526004016137fd93929190615dfe565b6020604051808303815f875af1158015613819573d5f803e3d5ffd5b505050506040513d601f19601f8201168201806040525081019061383d919061525c565b508a905061393b565b5f845f01516001600160a01b03166370a082318f6040518263ffffffff1660e01b81526004016138769190614d71565b602060405180830381865afa158015613891573d5f803e3d5ffd5b505050506040513d601f19601f820116820180604052508101906138b591906152bd565b90508d6001600160a01b0316631c20fadd865f015130846040518463ffffffff1660e01b81526004016138ea93929190615dfe565b6020604051808303815f875af1158015613906573d5f803e3d5ffd5b505050506040513d601f19601f8201168201806040525081019061392a919061525c565b5061393784848330610e6a565b9150505b61394581886152aa565b96505060019093019250613704915050565b508b61396c8868056bc75e2d631000006154fa565b6139769190615511565b9450846139838a846154fa565b61398d9190615511565b93506139998483615b3d565b92505050985098509895505050505050565b609854604051633414329f60e21b81526001600160401b03881660048201525f916001600160a01b03169063d050ca7c906024015f60405180830381865afa1580156139f9573d5f803e3d5ffd5b505050506040513d5f823e601f3d908101601f19168201604052613a2091908101906158bf565b90505f5b8151811015613ade575f828281518110613a4057613a40615480565b602090810291909101015160985460405162967c1760e71b81529192505f916001600160a01b0390911690634b3e0b8090613a7f908590600401614d71565b602060405180830381865afa158015613a9a573d5f803e3d5ffd5b505050506040513d601f19601f82011682018060405250810190613abe91906152bd565b90505f613ace838b848a8a61475e565b505060019092019150613a249050565b5050505050505050565b6098546040516307fb214560e41b81525f91613bdb918a918a918a916001600160a01b031690637fb2145090613b229085906004016158f0565b5f60405180830381865afa158015613b3c573d5f803e3d5ffd5b505050506040513d5f823e601f3d908101601f19168201604052613b6391908101906159c0565b6098546040516307fb214560e41b81526001600160a01b0390911690637fb2145090613b93908e906004016158f0565b5f60405180830381865afa158015613bad573d5f803e3d5ffd5b505050506040513d5f823e601f3d908101601f19168201604052613bd491908101906159c0565b89896148a0565b9050613bea8583836001611909565b505050505050505050565b60408051915160248084019190915281518084039091018152604490920190526020810180516001600160e01b03166397a657c960e01b17905290565b5f613c3b614cf9565b6098546040805163fbfa77cf60e01b815290515f926001600160a01b03169163fbfa77cf9160048083019260209291908290030181865afa158015613c82573d5f803e3d5ffd5b505050506040513d601f19601f82011682018060405250810190613ca6919061527b565b609a546040516370a0823160e01b81529192505f916001600160a01b03909116906370a0823190613cdb908590600401614d71565b602060405180830381865afa158015613cf6573d5f803e3d5ffd5b505050506040513d601f19601f82011682018060405250810190613d1a91906152bd565b60985460405163d1c68aa360e01b81526001600160401b038b1660048201529192505f916001600160a01b039091169063d1c68aa3906024015f60405180830381865afa158015613d6d573d5f803e3d5ffd5b505050506040513d5f823e601f3d908101601f19168201604052613d9491908101906158bf565b90505f5b8151811015613fea57818181518110613db357613db3615480565b60209081029190910101516001600160a01b0390811680875260985460405163e6096a5f60e01b81525f93849392169163e6096a5f91613df69190600401614d71565b5f60405180830381865afa158015613e10573d5f803e3d5ffd5b505050506040513d5f823e601f3d908101601f19168201604052613e379190810190615685565b609a5489519294509092506001600160a01b03908116911603613ed2578651604051631c20fadd60e01b81526001600160a01b03881691631c20fadd91613e85919030908a90600401615dfe565b6020604051808303815f875af1158015613ea1573d5f803e3d5ffd5b505050506040513d601f19601f82011682018060405250810190613ec5919061525c565b5060808701859052613fc7565b86516040516370a0823160e01b81525f916001600160a01b0316906370a0823190613f01908a90600401614d71565b602060405180830381865afa158015613f1c573d5f803e3d5ffd5b505050506040513d601f19601f82011682018060405250810190613f4091906152bd565b8851604051631c20fadd60e01b81529192506001600160a01b03891691631c20fadd91613f739130908690600401615dfe565b6020604051808303815f875af1158015613f8f573d5f803e3d5ffd5b505050506040513d601f19601f82011682018060405250810190613fb3919061525c565b50613fc083838330610e6a565b6080890152505b866080015187606001818151613fdd91906152aa565b9052505050600101613d98565b50505050606001519695505050505050565b614004614cf9565b60608101839052609854604051633414329f60e21b81526001600160401b03861660048201525f916001600160a01b03169063d050ca7c906024015f60405180830381865afa158015614059573d5f803e3d5ffd5b505050506040513d5f823e601f3d908101601f1916820160405261408091908101906158bf565b90505f5b81518110156114e2575f8282815181106140a0576140a0615480565b602090810291909101015160985460405163241321e560e21b81529192505f9182916001600160a01b03169063904c8794906140e0908690600401614d71565b5f60405180830381865afa1580156140fa573d5f803e3d5ffd5b505050506040513d5f823e601f3d908101601f191682016040526141219190810190615685565b60985460405162967c1760e71b81529294509092505f916001600160a01b0390911690634b3e0b8090614158908790600401614d71565b602060405180830381865afa158015614173573d5f803e3d5ffd5b505050506040513d601f19601f8201168201806040525081019061419791906152bd565b609a549091506001600160a01b039081169085160361424857878188606001516141c191906154fa565b6141cb9190615511565b60808801819052609a5460405163a9059cbb60e01b81526001600160a01b039091169163a9059cbb91614202918f91600401615243565b6020604051808303815f875af115801561421e573d5f803e3d5ffd5b505050506040513d601f19601f82011682018060405250810190614242919061525c565b50614274565b61426e83838a848b6060015161425e91906154fa565b6142689190615511565b8e610e6a565b60808801525b5050600190920191506140849050565b5f808461429a8568056bc75e2d631000006154fa565b6142a49190615511565b90505f6142b18285615b3d565b5f88815260a36020908152604080832054609d90925282205492935090916142da9084906154fa565b6142e49190615511565b98975050505050505050565b6098545f90819081906001600160a01b031663904c879461431087610af1565b6040518263ffffffff1660e01b815260040161432c9190614d71565b5f60405180830381865afa158015614346573d5f803e3d5ffd5b505050506040513d5f823e601f3d908101601f1916820160405261436d9190810190615685565b915091506119ff82828630610e6a565b60985460405163d1c68aa360e01b81526001600160401b03871660048201526060915f916001600160a01b039091169063d1c68aa3906024015f60405180830381865afa1580156143d0573d5f803e3d5ffd5b505050506040513d5f823e601f3d908101601f191682016040526143f791908101906158bf565b609854604051633414329f60e21b81526001600160401b038a1660048201529192505f916001600160a01b039091169063d050ca7c906024015f60405180830381865afa15801561444a573d5f803e3d5ffd5b505050506040513d5f823e601f3d908101601f1916820160405261447191908101906158bf565b6098546040516307fb214560e41b8152919250600491849184916001600160a01b0390911690637fb21450906144aa90859087016158f0565b5f60405180830381865afa1580156144c4573d5f803e3d5ffd5b505050506040513d5f823e601f3d908101601f191682016040526144eb91908101906159c0565b6098546040516307fb214560e41b81526001600160a01b0390911690637fb214509061451b9088906004016158f0565b5f60405180830381865afa158015614535573d5f803e3d5ffd5b505050506040513d5f823e601f3d908101601f1916820160405261455c91908101906159c0565b8a8a8a604051602001614576989796959493929190615aa9565b6040516020818303038152906040529250505095945050505050565b6040805160018082528183019092525f91816020015b604080518082019091525f80825260208201528152602001906001900390816145a85790505090506145d984610af1565b815f815181106145eb576145eb615480565b60200260200101515f01906001600160a01b031690816001600160a01b03168152505082815f8151811061462157614621615480565b602002602001015160200181815250505f61463b85610dc1565b90506125768584838560016148de565b60608151600161465b91906152aa565b8351146146a15760405162461bcd60e51b8152602060048201526014602482015273496e76616c696420696e7075742061727261797360601b60448201526064016107eb565b5f5b825181101561470d57818482815181106146bf576146bf615480565b60200260200101518483815181106146d9576146d9615480565b60200260200101516040516020016146f393929190615e39565b60408051601f1981840301815291905291506001016146a3565b5080836001855161471e9190615b3d565b8151811061472e5761472e615480565b6020026020010151604051602001614747929190615e72565b604051602081830303815290604052905092915050565b609a545f9081906001600160a01b0390811690881603614806578361478386886154fa565b61478d9190615511565b609a5460405163a9059cbb60e01b81529192506001600160a01b03169063a9059cbb906147c09086908590600401615243565b6020604051808303815f875af11580156147dc573d5f803e3d5ffd5b505050506040513d601f19601f82011682018060405250810190614800919061525c565b5061273d565b60985460405163241321e560e21b81525f9182916001600160a01b039091169063904c87949061483a908c90600401614d71565b5f60405180830381865afa158015614854573d5f803e3d5ffd5b505050506040513d5f823e601f3d908101601f1916820160405261487b9190810190615685565b90925090506131938282886148908b8d6154fa565b61489a9190615511565b88610e6a565b60606003878787878c88886040516020016148c2989796959493929190615aa9565b6040516020818303038152906040529050979650505050505050565b8151609954600160a01b900461ffff1681111561495d5760405162461bcd60e51b815260206004820152603760248201527f4d6178696d756d203520646966666572656e7420746f6b656e732063616e2062604482015276652073656e74207065722043434950204d65737361676560481b60648201526084016107eb565b5f5b81811015614a685760995484516001600160a01b039091169085908390811061498a5761498a615480565b60200260200101515f01516001600160a01b031614614a60578381815181106149b5576149b5615480565b60200260200101515f01516001600160a01b031663095ea7b35f60029054906101000a90046001600160a01b03168684815181106149f5576149f5615480565b6020026020010151602001516040518363ffffffff1660e01b8152600401614a1e929190615243565b6020604051808303815f875af1158015614a3a573d5f803e3d5ffd5b505050506040513d601f19601f82011682018060405250810190614a5e919061525c565b505b60010161495f565b505f6040518060a0016040528086604051602001614a869190614d71565b60408051601f198184030181529181529082526020820189905281018690526060016001856001811115614abc57614abc615c6d565b14614ac7575f614ad4565b6099546001600160a01b03165b6001600160a01b03168152602001614afc6040518060200160405280620dbba0815250613bf5565b90525f80546040516320487ded60e01b81529293509091620100009091046001600160a01b0316906320487ded90614b3a908b908690600401615c81565b602060405180830381865afa158015614b55573d5f803e3d5ffd5b505050506040513d601f19601f82011682018060405250810190614b7991906152bd565b90505f6001856001811115614b9057614b90615c6d565b03614c12575f546040516396f4e9f960e01b8152620100009091046001600160a01b0316906396f4e9f990614bcb908c908790600401615c81565b6020604051808303815f875af1158015614be7573d5f803e3d5ffd5b505050506040513d601f19601f82011682018060405250810190614c0b91906152bd565b9050614c8e565b5f546040516396f4e9f960e01b8152620100009091046001600160a01b0316906396f4e9f9908490614c4a908d908890600401615c81565b60206040518083038185885af1158015614c66573d5f803e3d5ffd5b50505050506040513d601f19601f82011682018060405250810190614c8b91906152bd565b90505b6040518181527f54791b38f3859327992a1ca0590ad3c0f08feba98d1a4f56ab0dca74d203392a9060200160405180910390a1505050505050505050565b60405180608001604052805f6001600160a01b031681526020015f81526020015f81526020015f81525090565b6040518060a001604052805f6001600160a01b031681526020015f81526020015f81526020015f81526020015f81525090565b5f60208284031215614d3c575f80fd5b81356001600160e01b031981168114614d53575f80fd5b9392505050565b5f60208284031215614d6a575f80fd5b5035919050565b6001600160a01b0391909116815260200190565b6001600160401b0381168114611541575f80fd5b8035614da481614d85565b919050565b6001600160a01b0381168114611541575f80fd5b5f805f805f60a08688031215614dd1575f80fd5b8535614ddc81614d85565b94506020860135614dec81614da9565b93506040860135614dfc81614da9565b92506060860135614e0c81614da9565b91506080860135614e1c81614da9565b809150509295509295909350565b5f60208284031215614e3a575f80fd5b8135614d5381614d85565b634e487b7160e01b5f52604160045260245ffd5b604080519081016001600160401b0381118282101715614e7b57614e7b614e45565b60405290565b60405160a081016001600160401b0381118282101715614e7b57614e7b614e45565b604051601f8201601f191681016001600160401b0381118282101715614ecb57614ecb614e45565b604052919050565b5f6001600160401b03821115614eeb57614eeb614e45565b5060051b60200190565b5f82601f830112614f04575f80fd5b8135614f17614f1282614ed3565b614ea3565b8082825260208201915060208360051b860101925085831115614f38575f80fd5b602085015b83811015614f5e578035614f5081614da9565b835260209283019201614f3d565b5095945050505050565b62ffffff81168114611541575f80fd5b5f82601f830112614f87575f80fd5b8135614f95614f1282614ed3565b8082825260208201915060208360051b860101925085831115614fb6575f80fd5b602085015b83811015614f5e578035614fce81614f68565b835260209283019201614fbb565b5f805f8060808587031215614fef575f80fd5b84356001600160401b03811115615004575f80fd5b61501087828801614ef5565b94505060208501356001600160401b0381111561502b575f80fd5b61503787828801614f78565b93505060408501359150606085013561504f81614da9565b939692955090935050565b5f806040838503121561506b575f80fd5b82359150602083013561507d81614d85565b809150509250929050565b5f60208284031215615098575f80fd5b81356001600160401b038111156150ad575f80fd5b820160a08185031215614d53575f80fd5b5f80604083850312156150cf575f80fd5b82359150602083013561507d81614da9565b5f602082840312156150f1575f80fd5b8135614d5381614da9565b5f6001600160401b0382111561511457615114614e45565b50601f01601f191660200190565b5f82601f830112615131575f80fd5b813561513f614f12826150fc565b818152846020838601011115615153575f80fd5b816020850160208301375f918101602001919091529392505050565b5f805f8060808587031215615182575f80fd5b843561518d81614d85565b9350602085013561519d81614da9565b925060408501356001600160401b038111156151b7575f80fd5b6151c387828801615122565b92505060608501356002811061504f575f80fd5b5f805f606084860312156151e9575f80fd5b83356001600160401b038111156151fe575f80fd5b61520a86828701614ef5565b93505060208401356001600160401b03811115615225575f80fd5b61523186828701614f78565b93969395505050506040919091013590565b6001600160a01b03929092168252602082015260400190565b5f6020828403121561526c575f80fd5b81518015158114614d53575f80fd5b5f6020828403121561528b575f80fd5b8151614d5381614da9565b634e487b7160e01b5f52601160045260245ffd5b8082018082111561074f5761074f615296565b5f602082840312156152cd575f80fd5b5051919050565b5f82601f8301126152e3575f80fd5b81516152f1614f1282614ed3565b8082825260208201915060208360051b860101925085831115615312575f80fd5b602085015b83811015614f5e57805161532a81614da9565b835260209283019201615317565b5f82601f830112615347575f80fd5b8151615355614f1282614ed3565b8082825260208201915060208360051b860101925085831115615376575f80fd5b602085015b83811015614f5e57805183526020928301920161537b565b5f805f606084860312156153a5575f80fd5b83516001600160401b038111156153ba575f80fd5b6153c6868287016152d4565b93505060208401516001600160401b038111156153e1575f80fd5b6153ed86828701615338565b92505060408401516001600160401b03811115615408575f80fd5b8401601f81018613615418575f80fd5b8051615426614f1282614ed3565b8082825260208201915060208360051b850101925088831115615447575f80fd5b6020840193505b8284101561547257835161546181614d85565b82526020938401939091019061544e565b809450505050509250925092565b634e487b7160e01b5f52603260045260245ffd5b6020808252818101527f416d6f756e74206d7573742062652067726561746572207468616e207a65726f604082015260600190565b5f602082840312156154d9575f80fd5b81516001600160401b038111156154ee575f80fd5b611fc884828501615338565b808202811582820484141761074f5761074f615296565b5f8261552b57634e487b7160e01b5f52601260045260245ffd5b500490565b5f82601f83011261553f575f80fd5b813561554d614f1282614ed3565b8082825260208201915060208360061b86010192508583111561556e575f80fd5b602085015b83811015614f5e576040818803121561558a575f80fd5b615592614e59565b813561559d81614da9565b8152602082810135818301529084529290920191604001615573565b5f60a082360312156155c9575f80fd5b6155d1614e81565b823581526155e160208401614d99565b602082015260408301356001600160401b038111156155fe575f80fd5b61560a36828601615122565b60408301525060608301356001600160401b03811115615628575f80fd5b61563436828601615122565b60608301525060808301356001600160401b03811115615652575f80fd5b61565e36828601615530565b60808301525092915050565b5f6020828403121561567a575f80fd5b8151614d5381614d85565b5f8060408385031215615696575f80fd5b82516001600160401b038111156156ab575f80fd5b6156b7858286016152d4565b92505060208301516001600160401b038111156156d2575f80fd5b8301601f810185136156e2575f80fd5b80516156f0614f1282614ed3565b8082825260208201915060208360051b850101925087831115615711575f80fd5b6020840193505b8284101561573c57835161572b81614f68565b825260209384019390910190615718565b809450505050509250929050565b5f8151808452602084019350602083015f5b828110156157835781516001600160a01b031686526020958601959091019060010161575c565b5093949350505050565b606081525f61579f606083018661574a565b82810360208401528085518083526020830191506020870192505f5b818110156157de57835162ffffff168352602093840193909201916001016157bb565b505060409390930193909352509392505050565b60208082526030908201527f50726f706f7361626c654f776e61626c653a206e6577206f776e65722069732060408201526f746865207a65726f206164647265737360801b606082015260800190565b602080825260189082015277496e76616c6964207265636569766572206164647265737360401b604082015260600190565b6020808252602b908201527f496e697469616c697a61626c653a20636f6e7472616374206973206e6f74206960408201526a6e697469616c697a696e6760a81b606082015260800190565b5f602082840312156158cf575f80fd5b81516001600160401b038111156158e4575f80fd5b611fc8848285016152d4565b602081525f614d53602083018461574a565b5f82601f830112615911575f80fd5b815161591f614f1282614ed3565b8082825260208201915060208360051b860101925085831115615940575f80fd5b602085015b83811015614f5e5780516001600160401b03811115615962575f80fd5b8601603f81018813615972575f80fd5b6020810151615983614f12826150fc565b8181526040838301018a1015615997575f80fd5b8160408401602083015e5f60208383010152808652505050602083019250602081019050615945565b5f602082840312156159d0575f80fd5b81516001600160401b038111156159e5575f80fd5b611fc884828501615902565b5f81518084528060208401602086015e5f602082860101526020601f19601f83011685010191505092915050565b5f82825180855260208501945060208160051b830101602085015f5b83811015615a6d57601f19858403018852615a578383516159f1565b6020988901989093509190910190600101615a3b565b50909695505050505050565b5f8151808452602084019350602083015f5b82811015615783578151865260209586019590910190600101615a8b565b60ff8916815261010060208201525f615ac661010083018a61574a565b8281036040840152615ad8818a61574a565b90508281036060840152615aec8189615a1f565b90508281036080840152615b008188615a1f565b90508560a084015282810360c0840152615b1a8186615a79565b905082810360e0840152615b2e8185615a79565b9b9a5050505050505050505050565b8181038181111561074f5761074f615296565b5f805f805f805f80610100898b031215615b68575f80fd5b885160208a01519098506001600160401b03811115615b85575f80fd5b615b918b828c016152d4565b97505060408901516001600160401b03811115615bac575f80fd5b615bb88b828c016152d4565b96505060608901516001600160401b03811115615bd3575f80fd5b615bdf8b828c01615902565b95505060808901516001600160401b03811115615bfa575f80fd5b615c068b828c01615902565b60a08b015160c08c0151919650945090506001600160401b03811115615c2a575f80fd5b615c368b828c01615338565b92505060e08901516001600160401b03811115615c51575f80fd5b615c5d8b828c01615338565b9150509295985092959890939650565b634e487b7160e01b5f52602160045260245ffd5b6001600160401b0383168152604060208201525f825160a06040840152615cab60e08401826159f1565b90506020840151603f19848303016060850152615cc882826159f1565b6040860151858203603f190160808701528051808352602091820194505f93509101905b80831015615d2357835180516001600160a01b03168352602090810151818401529093019260019290920191604090910190615cec565b5060608601516001600160a01b031660a08601526080860151858203603f190160c08701529250610fce81846159f1565b602081525f825160a06020840152615d6f60c08401826159f1565b905060018060a01b0360208501511660408401526040840151606084015260608401516080840152608084015160a08401528091505092915050565b828152604060208201525f611fc8604083018461574a565b85815284602082015260a060408201525f615de160a083018661574a565b6001600160a01b0394909416606083015250608001529392505050565b6001600160a01b039384168152919092166020820152604081019190915260600190565b5f81518060208401855e5f93019283525090919050565b5f615e448286615e22565b60609490941b6001600160601b0319168452505060e81b6001600160e81b0319166014820152601701919050565b5f615e7d8285615e22565b60609390931b6001600160601b0319168352505060140191905056fea2646970667358221220f21fb13363f765a457aa5a8ed79fd440abfcc441ff94250d6b6624409b26333264736f6c634300081a0033","linkReferences":{}},"methodIdentifiers":{"askValues()":"2700cc86","ccipReceive((bytes32,uint64,bytes,bytes,(address,uint256)[]))":"85572ffb","chainValueByNonce(uint256,uint64)":"69abf538","convertEthToUsd(uint256)":"c086381e","crossChainFactoryBySelector(uint64)":"340fbc74","crossChainToken(uint64)":"19da7e2a","currentChainSelector()":"3d54cb6f","extraWethByNonce(uint256)":"756c1fd1","factoryStorage()":"c06e1ae2","firstReweightAction()":"63713a8b","getAmountOut(address[],uint24[],uint256)":"dfbd3897","getPortfolioBalance()":"a8509fd8","getRouter()":"b0f479a1","i_link()":"7d253aff","i_maxTokensLength()":"5b6a0351","initialize(uint64,address,address,address,address)":"16b487ff","owner()":"8da5cb5b","portfolioTotalValueByNonce(uint256)":"7d3546f7","priceInWei()":"3c8da588","proposeOwner(address)":"b5ed298a","proposedOwner()":"d153b60c","redemptionNonceOutputToken(uint256)":"0603fb05","redemptionNonceOutputTokenSwapFee(uint256)":"afcaa952","renounceOwnership()":"715018a6","reweightExtraPercentage(uint256)":"814ffd71","reweightTokensCount(uint256)":"78324463","reweightWethValueByNonce(uint256)":"f1639b09","secondReweightAction()":"d79e8d65","sendMessage(uint64,address,bytes,uint8)":"bcab90b3","setIndexFactoryStorage(address)":"cc8659ae","supportsInterface(bytes4)":"01ffc9a7","swap(address[],uint24[],uint256,address)":"5c1a094c","tokenValueByNonce(uint256,address)":"b316e7fd","transferOwnership(address)":"f2fde38b","updatePortfolioNonce()":"003cf402","updatedTokensValueCount(uint256)":"c070a097","weth()":"3fc8cef3"},"id":6}