{"abi":[{"type":"receive","stateMutability":"payable"},{"type":"function","name":"askValues","inputs":[],"outputs":[],"stateMutability":"nonpayable"},{"type":"function","name":"ccipReceive","inputs":[{"name":"message","type":"tuple","internalType":"struct Client.Any2EVMMessage","components":[{"name":"messageId","type":"bytes32","internalType":"bytes32"},{"name":"sourceChainSelector","type":"uint64","internalType":"uint64"},{"name":"sender","type":"bytes","internalType":"bytes"},{"name":"data","type":"bytes","internalType":"bytes"},{"name":"destTokenAmounts","type":"tuple[]","internalType":"struct Client.EVMTokenAmount[]","components":[{"name":"token","type":"address","internalType":"address"},{"name":"amount","type":"uint256","internalType":"uint256"}]}]}],"outputs":[],"stateMutability":"nonpayable"},{"type":"function","name":"chainValueByNonce","inputs":[{"name":"","type":"uint256","internalType":"uint256"},{"name":"","type":"uint64","internalType":"uint64"}],"outputs":[{"name":"","type":"uint256","internalType":"uint256"}],"stateMutability":"view"},{"type":"function","name":"convertEthToUsd","inputs":[{"name":"_ethAmount","type":"uint256","internalType":"uint256"}],"outputs":[{"name":"","type":"uint256","internalType":"uint256"}],"stateMutability":"view"},{"type":"function","name":"crossChainFactoryBySelector","inputs":[{"name":"_chainSelector","type":"uint64","internalType":"uint64"}],"outputs":[{"name":"","type":"address","internalType":"address"}],"stateMutability":"view"},{"type":"function","name":"crossChainToken","inputs":[{"name":"_chainSelector","type":"uint64","internalType":"uint64"}],"outputs":[{"name":"","type":"address","internalType":"address"}],"stateMutability":"view"},{"type":"function","name":"currentChainSelector","inputs":[],"outputs":[{"name":"","type":"uint64","internalType":"uint64"}],"stateMutability":"view"},{"type":"function","name":"estimateAmountOut","inputs":[{"name":"tokenIn","type":"address","internalType":"address"},{"name":"tokenOut","type":"address","internalType":"address"},{"name":"amountIn","type":"uint128","internalType":"uint128"},{"name":"fee","type":"uint24","internalType":"uint24"}],"outputs":[{"name":"amountOut","type":"uint256","internalType":"uint256"}],"stateMutability":"view"},{"type":"function","name":"extraWethByNonce","inputs":[{"name":"","type":"uint256","internalType":"uint256"}],"outputs":[{"name":"","type":"uint256","internalType":"uint256"}],"stateMutability":"view"},{"type":"function","name":"factoryStorage","inputs":[],"outputs":[{"name":"","type":"address","internalType":"contract IndexFactoryStorage"}],"stateMutability":"view"},{"type":"function","name":"feeRate","inputs":[],"outputs":[{"name":"","type":"uint8","internalType":"uint8"}],"stateMutability":"view"},{"type":"function","name":"firstReweightAction","inputs":[],"outputs":[],"stateMutability":"nonpayable"},{"type":"function","name":"getAmountOut","inputs":[{"name":"tokenIn","type":"address","internalType":"address"},{"name":"tokenOut","type":"address","internalType":"address"},{"name":"amountIn","type":"uint256","internalType":"uint256"},{"name":"_swapFee","type":"uint24","internalType":"uint24"}],"outputs":[{"name":"finalAmountOut","type":"uint256","internalType":"uint256"}],"stateMutability":"view"},{"type":"function","name":"getPortfolioBalance","inputs":[],"outputs":[{"name":"","type":"uint256","internalType":"uint256"}],"stateMutability":"view"},{"type":"function","name":"getRouter","inputs":[],"outputs":[{"name":"","type":"address","internalType":"address"}],"stateMutability":"view"},{"type":"function","name":"i_link","inputs":[],"outputs":[{"name":"","type":"address","internalType":"address"}],"stateMutability":"view"},{"type":"function","name":"i_maxTokensLength","inputs":[],"outputs":[{"name":"","type":"uint16","internalType":"uint16"}],"stateMutability":"view"},{"type":"function","name":"indexToken","inputs":[],"outputs":[{"name":"","type":"address","internalType":"contract IndexToken"}],"stateMutability":"view"},{"type":"function","name":"initialize","inputs":[{"name":"_currentChainSelector","type":"uint64","internalType":"uint64"},{"name":"_token","type":"address","internalType":"address payable"},{"name":"_factoryStorage","type":"address","internalType":"address"},{"name":"_chainlinkToken","type":"address","internalType":"address"},{"name":"_router","type":"address","internalType":"address"},{"name":"_weth","type":"address","internalType":"address"}],"outputs":[],"stateMutability":"nonpayable"},{"type":"function","name":"latestFeeUpdate","inputs":[],"outputs":[{"name":"","type":"uint256","internalType":"uint256"}],"stateMutability":"view"},{"type":"function","name":"owner","inputs":[],"outputs":[{"name":"","type":"address","internalType":"address"}],"stateMutability":"view"},{"type":"function","name":"portfolioTotalValueByNonce","inputs":[{"name":"","type":"uint256","internalType":"uint256"}],"outputs":[{"name":"","type":"uint256","internalType":"uint256"}],"stateMutability":"view"},{"type":"function","name":"priceInWei","inputs":[],"outputs":[{"name":"","type":"uint256","internalType":"uint256"}],"stateMutability":"view"},{"type":"function","name":"proposeOwner","inputs":[{"name":"_proposedOwner","type":"address","internalType":"address"}],"outputs":[],"stateMutability":"nonpayable"},{"type":"function","name":"proposedOwner","inputs":[],"outputs":[{"name":"","type":"address","internalType":"address"}],"stateMutability":"view"},{"type":"function","name":"redemptionNonceOutputToken","inputs":[{"name":"","type":"uint256","internalType":"uint256"}],"outputs":[{"name":"","type":"address","internalType":"address"}],"stateMutability":"view"},{"type":"function","name":"redemptionNonceOutputTokenSwapFee","inputs":[{"name":"","type":"uint256","internalType":"uint256"}],"outputs":[{"name":"","type":"uint256","internalType":"uint256"}],"stateMutability":"view"},{"type":"function","name":"renounceOwnership","inputs":[],"outputs":[],"stateMutability":"nonpayable"},{"type":"function","name":"reweightExtraPercentage","inputs":[{"name":"","type":"uint256","internalType":"uint256"}],"outputs":[{"name":"","type":"uint256","internalType":"uint256"}],"stateMutability":"view"},{"type":"function","name":"reweightTokensCount","inputs":[{"name":"","type":"uint256","internalType":"uint256"}],"outputs":[{"name":"","type":"uint256","internalType":"uint256"}],"stateMutability":"view"},{"type":"function","name":"reweightWethValueByNonce","inputs":[{"name":"","type":"uint256","internalType":"uint256"}],"outputs":[{"name":"","type":"uint256","internalType":"uint256"}],"stateMutability":"view"},{"type":"function","name":"secondReweightAction","inputs":[],"outputs":[],"stateMutability":"nonpayable"},{"type":"function","name":"sendMessage","inputs":[{"name":"destinationChainSelector","type":"uint64","internalType":"uint64"},{"name":"receiver","type":"address","internalType":"address"},{"name":"_data","type":"bytes","internalType":"bytes"},{"name":"payFeesIn","type":"uint8","internalType":"enum IndexFactoryBalancer.PayFeesIn"}],"outputs":[],"stateMutability":"nonpayable"},{"type":"function","name":"setFeeRate","inputs":[{"name":"_newFee","type":"uint8","internalType":"uint8"}],"outputs":[],"stateMutability":"nonpayable"},{"type":"function","name":"setIndexFactoryStorage","inputs":[{"name":"_factoryStorage","type":"address","internalType":"address"}],"outputs":[],"stateMutability":"nonpayable"},{"type":"function","name":"setPortfolioTotalValueByNonce","inputs":[{"name":"nonce","type":"uint256","internalType":"uint256"},{"name":"value","type":"uint256","internalType":"uint256"}],"outputs":[],"stateMutability":"nonpayable"},{"type":"function","name":"supportsInterface","inputs":[{"name":"interfaceId","type":"bytes4","internalType":"bytes4"}],"outputs":[{"name":"","type":"bool","internalType":"bool"}],"stateMutability":"pure"},{"type":"function","name":"swap","inputs":[{"name":"tokenIn","type":"address","internalType":"address"},{"name":"tokenOut","type":"address","internalType":"address"},{"name":"amountIn","type":"uint256","internalType":"uint256"},{"name":"_recipient","type":"address","internalType":"address"},{"name":"_swapFee","type":"uint24","internalType":"uint24"}],"outputs":[{"name":"outputAmount","type":"uint256","internalType":"uint256"}],"stateMutability":"nonpayable"},{"type":"function","name":"tokenValueByNonce","inputs":[{"name":"","type":"uint256","internalType":"uint256"},{"name":"","type":"address","internalType":"address"}],"outputs":[{"name":"","type":"uint256","internalType":"uint256"}],"stateMutability":"view"},{"type":"function","name":"transferOwnership","inputs":[{"name":"newOwner","type":"address","internalType":"address"}],"outputs":[],"stateMutability":"nonpayable"},{"type":"function","name":"updatePortfolioNonce","inputs":[],"outputs":[{"name":"","type":"uint256","internalType":"uint256"}],"stateMutability":"view"},{"type":"function","name":"updatedTokensValueCount","inputs":[{"name":"","type":"uint256","internalType":"uint256"}],"outputs":[{"name":"","type":"uint256","internalType":"uint256"}],"stateMutability":"view"},{"type":"function","name":"weth","inputs":[],"outputs":[{"name":"","type":"address","internalType":"contract IWETH"}],"stateMutability":"view"},{"type":"event","name":"Initialized","inputs":[{"name":"version","type":"uint8","indexed":false,"internalType":"uint8"}],"anonymous":false},{"type":"event","name":"MessageSent","inputs":[{"name":"messageId","type":"bytes32","indexed":false,"internalType":"bytes32"}],"anonymous":false},{"type":"event","name":"OwnershipTransferred","inputs":[{"name":"previousOwner","type":"address","indexed":true,"internalType":"address"},{"name":"newOwner","type":"address","indexed":true,"internalType":"address"}],"anonymous":false},{"type":"error","name":"InvalidRouter","inputs":[{"name":"router","type":"address","internalType":"address"}]}],"bytecode":{"object":"0x6080604052348015600e575f80fd5b506153c88061001c5f395ff3fe608060405260043610610256575f3560e01c806385572ffb1161013f578063c070a097116100b3578063dd811ac911610078578063dd811ac914610796578063e7d015f2146107b5578063edba0e31146107d4578063ee7bd3e2146107f3578063f1639b0914610812578063f2fde38b1461083d575f80fd5b8063c070a097146106fa578063c086381e14610725578063cc8659ae14610744578063d153b60c14610763578063d79e8d6514610782575f80fd5b8063afcaa95211610104578063afcaa9521461061a578063b0f479a114610645578063b316e7fd14610667578063b5ed298a1461069d578063bcab90b3146106bc578063c06e1ae2146106db575f80fd5b806385572ffb146105795780638d7307d4146105985780638da5cb5b146105b7578063978bbdb9146105d4578063a8509fd814610606575f80fd5b80635177942a116101d6578063756c1fd11161019b578063756c1fd11461048f57806378324463146104ba5780637d253aff146104e55780637d3546f7146105045780637e79f5121461052f578063814ffd711461054e575f80fd5b80635177942a146103de5780635b6a0351146103fd57806363713a8b1461043157806369abf53814610445578063715018a61461047b575f80fd5b80632700cc861161021c5780632700cc8614610338578063340fbc741461034e5780633c8da5881461036d5780633d54cb6f146103815780633fc8cef3146103b8575f80fd5b80623cf40214610261578063011ced5f1461028957806301ffc9a71461029e5780630603fb05146102cd57806319da7e2a14610319575f80fd5b3661025d57005b5f80fd5b34801561026c575f80fd5b50610276609d5481565b6040519081526020015b60405180910390f35b348015610294575f80fd5b50610276609b5481565b3480156102a9575f80fd5b506102bd6102b8366004614515565b61085c565b6040519015158152602001610280565b3480156102d8575f80fd5b506103016102e7366004614543565b60a66020525f90815260409020546001600160a01b031681565b6040516001600160a01b039091168152602001610280565b348015610324575f80fd5b5061030161033336600461457e565b610892565b348015610343575f80fd5b5061034c610906565b005b348015610359575f80fd5b5061030161036836600461457e565b61102e565b348015610378575f80fd5b50610276611067565b34801561038c575f80fd5b50609c546103a0906001600160401b031681565b6040516001600160401b039091168152602001610280565b3480156103c3575f80fd5b50609c5461030190600160401b90046001600160a01b031681565b3480156103e9575f80fd5b5061034c6103f8366004614599565b6110d7565b348015610408575f80fd5b5060995461041e90600160a01b900461ffff1681565b60405161ffff9091168152602001610280565b34801561043c575f80fd5b5061034c611225565b348015610450575f80fd5b5061027661045f3660046145b9565b60a260209081525f928352604080842090915290825290205481565b348015610486575f80fd5b5061034c6116ad565b34801561049a575f80fd5b506102766104a9366004614543565b609f6020525f908152604090205481565b3480156104c5575f80fd5b506102766104d4366004614543565b60a46020525f908152604090205481565b3480156104f0575f80fd5b50609954610301906001600160a01b031681565b34801561050f575f80fd5b5061027661051e366004614543565b609e6020525f908152604090205481565b34801561053a575f80fd5b5061027661054936600461460b565b6116c0565b348015610559575f80fd5b50610276610568366004614543565b60a56020525f908152604090205481565b348015610584575f80fd5b5061034c61059336600461466f565b6117ca565b3480156105a3575f80fd5b5061034c6105b23660046146a5565b611810565b3480156105c2575f80fd5b506033546001600160a01b0316610301565b3480156105df575f80fd5b50609a546105f490600160a01b900460ff1681565b60405160ff9091168152602001610280565b348015610611575f80fd5b50610276611829565b348015610625575f80fd5b50610276610634366004614543565b60a76020525f908152604090205481565b348015610650575f80fd5b505f546201000090046001600160a01b0316610301565b348015610672575f80fd5b506102766106813660046146c5565b60a160209081525f928352604080842090915290825290205481565b3480156106a8575f80fd5b5061034c6106b73660046146e8565b611b3e565b3480156106c7575f80fd5b5061034c6106d63660046147fc565b611b8e565b3480156106e6575f80fd5b50609854610301906001600160a01b031681565b348015610705575f80fd5b50610276610714366004614543565b60a06020525f908152604090205481565b348015610730575f80fd5b5061027661073f366004614543565b611e2a565b34801561074f575f80fd5b5061034c61075e3660046146e8565b611e50565b34801561076e575f80fd5b50606554610301906001600160a01b031681565b34801561078d575f80fd5b5061034c611e7a565b3480156107a1575f80fd5b506102766107b036600461486f565b61228a565b3480156107c0575f80fd5b50609a54610301906001600160a01b031681565b3480156107df575f80fd5b5061034c6107ee3660046148b4565b61231a565b3480156107fe575f80fd5b5061027661080d366004614932565b612549565b34801561081d575f80fd5b5061027661082c366004614543565b60a36020525f908152604090205481565b348015610848575f80fd5b5061034c6108573660046146e8565b61259d565b5f6001600160e01b031982166385572ffb60e01b148061088c57506001600160e01b031982166301ffc9a760e01b145b92915050565b609854604051630ced3f1560e11b81526001600160401b03831660048201525f916001600160a01b0316906319da7e2a906024015b602060405180830381865afa1580156108e2573d5f803e3d5ffd5b505050506040513d601f19601f8201168201806040525081019061088c919061498b565b61090e6126c2565b6001609d5f82825461092091906149ba565b909155505060985460408051631a521ec760e21b815290515f926001600160a01b0316916369487b1c9160048083019260209291908290030181865afa15801561096c573d5f803e3d5ffd5b505050506040513d601f19601f8201168201806040525081019061099091906149cd565b90505f60985f9054906101000a90046001600160a01b03166001600160a01b031663b90b8a2a6040518163ffffffff1660e01b8152600401602060405180830381865afa1580156109e3573d5f803e3d5ffd5b505050506040513d601f19601f82011682018060405250810190610a0791906149cd565b90505f5b82811015611029576098546040516369fbf93360e11b8152600481018490525f916001600160a01b03169063d3f7f266906024015f60405180830381865afa158015610a59573d5f803e3d5ffd5b505050506040513d5f823e601f3d908101601f19168201604052610a809190810190614b38565b93505050505f818381518110610a9857610a98614c4f565b602090810291909101015160985460405163b6ad185b60e01b81526001600160401b03831660048201529192505f916001600160a01b039091169063b6ad185b90602401602060405180830381865afa158015610af7573d5f803e3d5ffd5b505050506040513d601f19601f82011682018060405250810190610b1b91906149cd565b609c549091506001600160401b0390811690831603610ec45760985460405163d1c68aa360e01b81526001600160401b03841660048201525f916001600160a01b03169063d1c68aa3906024015f60405180830381865afa158015610b82573d5f803e3d5ffd5b505050506040513d5f823e601f3d908101601f19168201604052610ba99190810190614c63565b90505f60985f9054906101000a90046001600160a01b03166001600160a01b031663fbfa77cf6040518163ffffffff1660e01b8152600401602060405180830381865afa158015610bfc573d5f803e3d5ffd5b505050506040513d601f19601f82011682018060405250810190610c20919061498b565b90505f5b83811015610ebc575f838281518110610c3f57610c3f614c4f565b6020908102919091010151609854604051633259966560e01b81526001600160a01b0380841660048301529293505f9290911690633259966590602401602060405180830381865afa158015610c97573d5f803e3d5ffd5b505050506040513d601f19601f82011682018060405250810190610cbb9190614c9c565b609c549091505f906001600160a01b03600160401b909104811690841603610d4c576040516370a0823160e01b81526001600160a01b0386811660048301528416906370a0823190602401602060405180830381865afa158015610d21573d5f803e3d5ffd5b505050506040513d601f19601f82011682018060405250810190610d4591906149cd565b9050610dd1565b609c546040516370a0823160e01b81526001600160a01b038781166004830152610dce928692600160401b9091048216918316906370a0823190602401602060405180830381865afa158015610da4573d5f803e3d5ffd5b505050506040513d601f19601f82011682018060405250810190610dc891906149cd565b8561228a565b90505b610dda81611e2a565b609d545f908152609e602052604081208054909190610dfa9084906149ba565b90915550610e09905081611e2a565b609d545f90815260a1602090815260408083206001600160a01b038816845290915281208054909190610e3d9084906149ba565b9091555050609d545f90815260a060205260408120805460019290610e639084906149ba565b90915550610e72905081611e2a565b609d545f90815260a260209081526040808320609c546001600160401b0316845290915281208054909190610ea89084906149ba565b909155505060019093019250610c24915050565b50505061101e565b5f610ece8361102e565b60985460405163d1c68aa360e01b81526001600160401b03861660048201529192505f916001600160a01b039091169063d1c68aa3906024015f60405180830381865afa158015610f21573d5f803e3d5ffd5b505050506040513d5f823e601f3d908101601f19168201604052610f489190810190614c63565b60985460405163221f337160e01b81526001600160401b03871660048201529192505f916001600160a01b039091169063221f3371906024015f60405180830381865afa158015610f9b573d5f803e3d5ffd5b505050506040513d5f823e601f3d908101601f19168201604052610fc29190810190614cb7565b604080515f80825260208201818152828401909352609d549394509092610ff9906002908790869088908790818060608601614d5b565b60405160208183030381529060405290506110178887836001611b8e565b5050505050505b505050600101610a0b565b505050565b609854604051630d03ef1d60e21b81526001600160401b03831660048201525f916001600160a01b03169063340fbc74906024016108c7565b60985460408051630791b4b160e31b815290515f926001600160a01b031691633c8da5889160048083019260209291908290030181865afa1580156110ae573d5f803e3d5ffd5b505050506040513d601f19601f820116820180604052508101906110d291906149cd565b905090565b6110df6126c2565b5f609b54426110ee9190614def565b9050600c603c6110fe8184614e02565b6111089190614e02565b116111805760405162461bcd60e51b815260206004820152603960248201527f596f752073686f756c642077616974206174206c6561737420313220686f757260448201527f7320616674657220746865206c6174657374207570646174650000000000000060648201526084015b60405180910390fd5b60648260ff1611158015611198575060018260ff1610155b6112005760405162461bcd60e51b815260206004820152603360248201527f546865206e65774665652073686f756c64206265206265747765656e203120616044820152726e64203130302028302e303125202d2031252960681b6064820152608401611177565b50609a805460ff909216600160a01b0260ff60a01b1990921691909117905542609b55565b61122d6126c2565b609d545f818152609e60209081526040808320546098548251631a521ec760e21b815292519194936001600160a01b03909116926369487b1c92600480830193928290030181865afa158015611285573d5f803e3d5ffd5b505050506040513d601f19601f820116820180604052508101906112a991906149cd565b90505f60985f9054906101000a90046001600160a01b03166001600160a01b031663b90b8a2a6040518163ffffffff1660e01b8152600401602060405180830381865afa1580156112fc573d5f803e3d5ffd5b505050506040513d601f19601f8201168201806040525081019061132091906149cd565b90505f60985f9054906101000a90046001600160a01b03166001600160a01b031663f15817876040518163ffffffff1660e01b8152600401602060405180830381865afa158015611373573d5f803e3d5ffd5b505050506040513d601f19601f8201168201806040525081019061139791906149cd565b90505f5b838110156116a5576098546040516369fbf93360e11b8152600481018590525f916001600160a01b03169063d3f7f266906024015f60405180830381865afa1580156113e9573d5f803e3d5ffd5b505050506040513d5f823e601f3d908101601f191682016040526114109190810190614b38565b93505050505f81838151811061142857611428614c4f565b602090810291909101015160985460405163b6ad185b60e01b81526001600160401b03831660048201529192505f916001600160a01b039091169063b6ad185b90602401602060405180830381865afa158015611487573d5f803e3d5ffd5b505050506040513d601f19601f820116820180604052508101906114ab91906149cd565b609854604051637e34c5a560e11b81526001600160401b03851660048201529192505f916001600160a01b039091169063fc698b4a90602401602060405180830381865afa1580156114ff573d5f803e3d5ffd5b505050506040513d601f19601f8201168201806040525081019061152391906149cd565b609854604051632a3ff8ad60e01b8152600481018990526001600160401b03861660248201529192505f916001600160a01b0390911690632a3ff8ad90604401602060405180830381865afa15801561157e573d5f803e3d5ffd5b505050506040513d601f19601f820116820180604052508101906115a291906149cd565b5f8c815260a2602090815260408083206001600160401b03891680855292528083205460985491516302fc352760e61b815260048101939093529394506001600160a01b03169063bf0d49c0906024015f60405180830381865afa15801561160c573d5f803e3d5ffd5b505050506040513d5f823e601f3d908101601f191682016040526116339190810190614cb7565b9050828c61164a8468056bc75e2d63100000614e21565b6116549190614e02565b111561169257609c546001600160401b03908116908716036116845761167f888e8e8989898961271c565b611692565b6116928d8d88868686612cbd565b50506001909501945061139b9350505050565b505050505050565b6116b56126c2565b6116be5f612fd2565b565b5f8060985f9054906101000a90046001600160a01b03166001600160a01b031663b631e80b6040518163ffffffff1660e01b8152600401602060405180830381865afa158015611712573d5f803e3d5ffd5b505050506040513d601f19601f82011682018060405250810190611736919061498b565b90505f60985f9054906101000a90046001600160a01b03166001600160a01b031663744fbc7a6040518163ffffffff1660e01b8152600401602060405180830381865afa158015611789573d5f803e3d5ffd5b505050506040513d601f19601f820116820180604052508101906117ad919061498b565b90506117be8282868b8b8b8b613023565b98975050505050505050565b5f546201000090046001600160a01b031633146117fc576040516335fdcccd60e21b8152336004820152602401611177565b61180d61180882614ec1565b61305f565b50565b6118186126c2565b5f918252609e602052604090912055565b5f805f60985f9054906101000a90046001600160a01b03166001600160a01b03166353fd43326040518163ffffffff1660e01b8152600401602060405180830381865afa15801561187c573d5f803e3d5ffd5b505050506040513d601f19601f820116820180604052508101906118a091906149cd565b90505f5b81811015611b365760985460405163264cae9360e21b8152600481018390525f916001600160a01b031690639932ba4c90602401602060405180830381865afa1580156118f3573d5f803e3d5ffd5b505050506040513d601f19601f82011682018060405250810190611917919061498b565b609854604051633aa3b3c160e21b81526001600160a01b0380841660048301529293505f929091169063ea8ecf0490602401602060405180830381865afa158015611964573d5f803e3d5ffd5b505050506040513d601f19601f820116820180604052508101906119889190614f72565b609854604051633259966560e01b81526001600160a01b0385811660048301529293505f9290911690633259966590602401602060405180830381865afa1580156119d5573d5f803e3d5ffd5b505050506040513d601f19601f820116820180604052508101906119f99190614c9c565b609c549091506001600160401b0390811690831603611b2b57609854609c54609a546040516370a0823160e01b81526001600160a01b0391821660048201525f9382169263dd811ac9928892600160401b909204811691908316906370a0823190602401602060405180830381865afa158015611a78573d5f803e3d5ffd5b505050506040513d601f19601f82011682018060405250810190611a9c91906149cd565b6040516001600160e01b031960e086901b1681526001600160a01b039384166004820152929091166024830152604482015262ffffff85166064820152608401602060405180830381865afa158015611af7573d5f803e3d5ffd5b505050506040513d601f19601f82011682018060405250810190611b1b91906149cd565b9050611b2781886149ba565b9650505b5050506001016118a4565b509092915050565b611b466126c2565b6001600160a01b038116611b6c5760405162461bcd60e51b815260040161117790614f8d565b606580546001600160a01b0319166001600160a01b0392909216919091179055565b6040805160a0810182526001600160a01b03851660c0808301919091528251808303909101815260e0820183528152602080820185905282515f8082529181018452909282019083611c01565b604080518082019091525f8082526020820152815260200190600190039081611bdb5790505b5081526020016001846001811115611c1b57611c1b614fdd565b14611c26575f611c33565b6099546001600160a01b03165b6001600160a01b03168152602001611c5b6040518060200160405280620dbba0815250613328565b90525f80546040516320487ded60e01b81529293509091620100009091046001600160a01b0316906320487ded90611c99908990869060040161501f565b602060405180830381865afa158015611cb4573d5f803e3d5ffd5b505050506040513d601f19601f82011682018060405250810190611cd891906149cd565b90505f6001846001811115611cef57611cef614fdd565b03611d71575f546040516396f4e9f960e01b8152620100009091046001600160a01b0316906396f4e9f990611d2a908a90879060040161501f565b6020604051808303815f875af1158015611d46573d5f803e3d5ffd5b505050506040513d601f19601f82011682018060405250810190611d6a91906149cd565b9050611ded565b5f546040516396f4e9f960e01b8152620100009091046001600160a01b0316906396f4e9f9908490611da9908b90889060040161501f565b60206040518083038185885af1158015611dc5573d5f803e3d5ffd5b50505050506040513d601f19601f82011682018060405250810190611dea91906149cd565b90505b6040518181527f54791b38f3859327992a1ca0590ad3c0f08feba98d1a4f56ab0dca74d203392a906020015b60405180910390a150505050505050565b5f670de0b6b3a7640000611e3c611067565b611e469084614e21565b61088c9190614e02565b611e586126c2565b609880546001600160a01b0319166001600160a01b0392909216919091179055565b611e826126c2565b609d545f818152609e602090815260408083205460985482516311d3af8360e31b815292519194936001600160a01b0390911692638e9d7c1892600480830193928290030181865afa158015611eda573d5f803e3d5ffd5b505050506040513d601f19601f82011682018060405250810190611efe91906149cd565b90505f60985f9054906101000a90046001600160a01b03166001600160a01b031663f15817876040518163ffffffff1660e01b8152600401602060405180830381865afa158015611f51573d5f803e3d5ffd5b505050506040513d601f19601f82011682018060405250810190611f7591906149cd565b90505f5b82811015612283576098546040516329b71fb560e11b8152600481018490525f916001600160a01b03169063536e3f6a906024015f60405180830381865afa158015611fc7573d5f803e3d5ffd5b505050506040513d5f823e601f3d908101601f19168201604052611fee91908101906150f2565b93505050505f81838151811061200657612006614c4f565b602090810291909101015160985460405163b6ad185b60e01b81526001600160401b03831660048201529192505f916001600160a01b039091169063b6ad185b90602401602060405180830381865afa158015612065573d5f803e3d5ffd5b505050506040513d601f19601f8201168201806040525081019061208991906149cd565b609854604051637e34c5a560e11b81526001600160401b03851660048201529192505f916001600160a01b039091169063fc698b4a90602401602060405180830381865afa1580156120dd573d5f803e3d5ffd5b505050506040513d601f19601f8201168201806040525081019061210191906149cd565b609854604051632a3ff8ad60e01b8152600481018990526001600160401b03861660248201529192505f916001600160a01b0390911690632a3ff8ad90604401602060405180830381865afa15801561215c573d5f803e3d5ffd5b505050506040513d601f19601f8201168201806040525081019061218091906149cd565b5f8b815260a2602090815260408083206001600160401b03891680855292528083205460985491516302fc352760e61b815260048101939093529394506001600160a01b03169063bf0d49c0906024015f60405180830381865afa1580156121ea573d5f803e3d5ffd5b505050506040513d5f823e601f3d908101601f191682016040526122119190810190614cb7565b9050828b6122288468056bc75e2d63100000614e21565b6122329190614e02565b101561227057609c546001600160401b03908116908716036122625761225d888d8d89898989613365565b612270565b6122708c8c888686866138ef565b505060019095019450611f799350505050565b5050505050565b60985460405163dd811ac960e01b81526001600160a01b03868116600483015285811660248301526044820185905262ffffff841660648301525f92169063dd811ac9906084015b602060405180830381865afa1580156122ed573d5f803e3d5ffd5b505050506040513d601f19601f8201168201806040525081019061231191906149cd565b95945050505050565b5f54610100900460ff161580801561233857505f54600160ff909116105b806123515750303b15801561235157505f5460ff166001145b6123b45760405162461bcd60e51b815260206004820152602e60248201527f496e697469616c697a61626c653a20636f6e747261637420697320616c72656160448201526d191e481a5b9a5d1a585b1a5e995960921b6064820152608401611177565b5f805460ff1916600117905580156123d5575f805461ff0019166101001790555b6123de83613d00565b6123e6613d78565b609c805467ffffffffffffffff19166001600160401b038916179055609a80546001600160a01b03199081166001600160a01b038981169190911790925560988054909116878316179055609980548683166001600160b01b03199091168117600560a01b179091555f5460405163095ea7b360e01b81526201000090910490921660048301525f1960248301529063095ea7b3906044016020604051808303815f875af115801561249a573d5f803e3d5ffd5b505050506040513d601f19601f820116820180604052508101906124be919061518f565b50609c805468010000000000000000600160e01b031916600160401b6001600160a01b03851602179055609a805460ff60a01b1916600560a11b17905542609b558015612540575f805461ff0019169055604051600181527f7f26b83ff96e1f2b6a682f133852f6798a09c465da95921460cefb384740249890602001611e19565b50505050505050565b60985460405163773de9f160e11b81526001600160a01b03868116600483015285811660248301526001600160801b038516604483015262ffffff841660648301525f92169063ee7bd3e2906084016122d2565b6001600160a01b0381166125c35760405162461bcd60e51b815260040161117790614f8d565b6065546001600160a01b0382811691161461263b5760405162461bcd60e51b815260206004820152603260248201527f50726f706f7361626c654f776e61626c653a206e6577206f776e6572206973206044820152713737ba10383937b837b9b2b21037bbb732b960711b6064820152608401611177565b6001600160a01b03811633146126b95760405162461bcd60e51b815260206004820152603a60248201527f50726f706f7361626c654f776e61626c653a20746869732063616c6c206d757360448201527f74206265206d61646520627920746865206e6577206f776e65720000000000006064820152608401611177565b61180d81612fd2565b6033546001600160a01b031633146116be5760405162461bcd60e51b815260206004820181905260248201527f4f776e61626c653a2063616c6c6572206973206e6f7420746865206f776e65726044820152606401611177565b6127576040518060a001604052805f6001600160a01b031681526020015f62ffffff1681526020015f81526020015f81526020015f81525090565b5f87815260a2602090815260408083206001600160401b0389168452909152808220546060840152609c54609a5491516370a0823160e01b81526001600160a01b039283166004820152600160401b909104909116906370a0823190602401602060405180830381865afa1580156127d1573d5f803e3d5ffd5b505050506040513d601f19601f820116820180604052508101906127f591906149cd565b90505f5b85811015612a2b5760985460405163264cae9360e21b8152600481018390526001600160a01b0390911690639932ba4c90602401602060405180830381865afa158015612848573d5f803e3d5ffd5b505050506040513d601f19601f8201168201806040525081019061286c919061498b565b6001600160a01b03908116808552609854604051633259966560e01b8152600481019290925290911690633259966590602401602060405180830381865afa1580156128ba573d5f803e3d5ffd5b505050506040513d601f19601f820116820180604052508101906128de9190614c9c565b62ffffff166020840152609854835160405162967c1760e71b81526001600160a01b039182166004820152911690634b3e0b8090602401602060405180830381865afa158015612930573d5f803e3d5ffd5b505050506040513d601f19601f8201168201806040525081019061295491906149cd565b6040840152609c5483515f916001600160a01b03600160401b9091048116911603612980575081612a0d565b8351609c54609a546040516370a0823160e01b81526001600160a01b039182166004820152612a0a9392600160401b90048216918316906370a0823190602401602060405180830381865afa1580156129db573d5f803e3d5ffd5b505050506040513d601f19601f820116820180604052508101906129ff91906149cd565b3088602001516116c0565b90505b8084608001818151612a1f91906149ba565b905250506001016127f9565b505f87836060015168056bc75e2d63100000612a479190614e21565b612a519190614e02565b90505f81858560800151612a659190614e21565b612a6f9190614e02565b90505f818560800151612a829190614def565b90505f5b87811015612c5f5760985460405163239aad0d60e01b8152600481018390525f916001600160a01b03169063239aad0d90602401602060405180830381865afa158015612ad5573d5f803e3d5ffd5b505050506040513d601f19601f82011682018060405250810190612af9919061498b565b609854604051633259966560e01b81526001600160a01b0380841660048301529293505f9290911690633259966590602401602060405180830381865afa158015612b46573d5f803e3d5ffd5b505050506040513d601f19601f82011682018060405250810190612b6a9190614c9c565b60985460405162967c1760e71b81526001600160a01b0385811660048301529293505f9290911690634b3e0b8090602401602060405180830381865afa158015612bb6573d5f803e3d5ffd5b505050506040513d601f19601f82011682018060405250810190612bda91906149cd565b609c549091505f906001600160a01b03600160401b909104811690851603612c18578a612c078389614e21565b612c119190614e02565b9050612c4f565b609c54612c4c90600160401b90046001600160a01b0316858d612c3b868c614e21565b612c459190614e02565b30876116c0565b90505b505060019092019150612a869050565b505f8b8152609f602052604081208054839290612c7d9084906149ba565b90915550612c8d90508684614def565b5f8c815260a5602052604081208054909190612caa9084906149ba565b9091555050505050505050505050505050565b5f85612cd28468056bc75e2d63100000614e21565b612cdc9190614e02565b9050612ce88482614def565b5f88815260a5602052604081208054909190612d059084906149ba565b909155505f9050612d158661102e565b60985460405163d1c68aa360e01b81526001600160401b03891660048201529192505f916001600160a01b039091169063d1c68aa3906024015f60405180830381865afa158015612d68573d5f803e3d5ffd5b505050506040513d5f823e601f3d908101601f19168201604052612d8f9190810190614c63565b609854604051633414329f60e21b81526001600160401b038a1660048201529192505f916001600160a01b039091169063d050ca7c906024015f60405180830381865afa158015612de2573d5f803e3d5ffd5b505050506040513d5f823e601f3d908101601f19168201604052612e099190810190614c63565b60985460405163221f337160e01b81526001600160401b038b1660048201529192505f916001600160a01b039091169063221f3371906024015f60405180830381865afa158015612e5c573d5f803e3d5ffd5b505050506040513d5f823e601f3d908101601f19168201604052612e839190810190614cb7565b609854604051631435bff160e31b81526001600160401b038c1660048201529192505f916001600160a01b039091169063a1adff88906024015f60405180830381865afa158015612ed6573d5f803e3d5ffd5b505050506040513d5f823e601f3d908101601f19168201604052612efd9190810190614cb7565b6040805160028082526060820183529293505f9290916020830190803683370190505090508b815f81518110612f3557612f35614c4f565b6020026020010181815250508981600181518110612f5557612f55614c4f565b6020026020010181815250508881600281518110612f7557612f75614c4f565b6020026020010181815250505f600386868686609d548e88604051602001612fa4989796959493929190614d5b565b6040516020818303038152906040529050612fc28c88836001611b8e565b5050505050505050505050505050565b603380546001600160a01b038381166001600160a01b0319831681179093556040519116919082907f8be0079c531659141344cd1fd0a4f28419497f9722a3daafe3b4186f6b6457e0905f90a35050565b5f62ffffff8616156130445761303d888787878787613da6565b9050613054565b6130518786868686613ef2565b90505b979650505050505050565b80516020808301516040840151805191925f92613082929081018201910161498b565b90505f805f805f8089606001518060200190518101906130a291906151ae565b955095509550955095509550855f031561331c576001861461331c578560020361320f575f5b8251811015613209578281815181106130e3576130e3614c4f565b6020026020010151609e5f8681526020019081526020015f205f82825461310a91906149ba565b9250508190555082818151811061312357613123614c4f565b602002602001015160a15f8681526020019081526020015f205f88848151811061314f5761314f614c4f565b60200260200101516001600160a01b03166001600160a01b031681526020019081526020015f205f82825461318491906149ba565b9250508190555082818151811061319d5761319d614c4f565b6020908102919091018101515f86815260a2835260408082206001600160401b038e1683529093529182208054919290916131d99084906149ba565b90915550505f84815260a0602052604081208054600192906131fc9084906149ba565b90915550506001016130c8565b5061331c565b856003036132b6575f8a6080015190505f815f8151811061323257613232614c4f565b60200260200101515f015190505f825f8151811061325257613252614c4f565b60200260200101516020015190505f61328583609c60089054906101000a90046001600160a01b03168430610bb86116c0565b905080609f5f8981526020019081526020015f205f8282546132a791906149ba565b9091555061331c945050505050565b8560040361331c5760985f9054906101000a90046001600160a01b03166001600160a01b0316638baa6bf16040518163ffffffff1660e01b81526004015f604051808303815f87803b15801561330a575f80fd5b505af1158015612fc2573d5f803e3d5ffd5b50505050505050505050565b60408051915160248084019190915281518084039091018152604490920190526020810180516001600160e01b03166397a657c960e01b17905290565b6133a66040518060c001604052805f6001600160a01b031681526020015f62ffffff1681526020015f81526020015f81526020015f81526020015f81525090565b60985460405163264cae9360e21b8152600481018a90526001600160a01b0390911690639932ba4c90602401602060405180830381865afa1580156133ed573d5f803e3d5ffd5b505050506040513d601f19601f82011682018060405250810190613411919061498b565b6001600160a01b03908116808352609854604051633259966560e01b8152600481019290925290911690633259966590602401602060405180830381865afa15801561345f573d5f803e3d5ffd5b505050506040513d601f19601f820116820180604052508101906134839190614c9c565b62ffffff166020820152609854815160405162967c1760e71b81526001600160a01b039182166004820152911690634b3e0b8090602401602060405180830381865afa1580156134d5573d5f803e3d5ffd5b505050506040513d601f19601f820116820180604052508101906134f991906149cd565b6040828101919091525f88815260a260209081528282206001600160401b038916835290528181205460608401528251609a5492516370a0823160e01b81526001600160a01b039384166004820152919216906370a0823190602401602060405180830381865afa158015613570573d5f803e3d5ffd5b505050506040513d601f19601f8201168201806040525081019061359491906149cd565b90505f5b8581101561367b57609c5483516001600160a01b03600160401b90920482169116036135ca5760a0830182905261365a565b8251609c54609a546040516370a0823160e01b81526001600160a01b0391821660048201526136549392600160401b90048216918316906370a0823190602401602060405180830381865afa158015613625573d5f803e3d5ffd5b505050506040513d601f19601f8201168201806040525081019061364991906149cd565b3087602001516116c0565b60a08401525b8260a001518360800181815161367091906149ba565b905250600101613598565b505f87836060015168056bc75e2d631000006136979190614e21565b6136a19190614e02565b90505f6136ae8286614def565b5f8b815260a56020908152604080832054609f90925282205492935090916136d7908490614e21565b6136e19190614e02565b905080856080018181516136f591906149ba565b9052505f5b878110156138e05760985460405163264cae9360e21b8152600481018390525f916001600160a01b031690639932ba4c90602401602060405180830381865afa158015613749573d5f803e3d5ffd5b505050506040513d601f19601f8201168201806040525081019061376d919061498b565b609854604051633259966560e01b81526001600160a01b0380841660048301529293505f9290911690633259966590602401602060405180830381865afa1580156137ba573d5f803e3d5ffd5b505050506040513d601f19601f820116820180604052508101906137de9190614c9c565b60985460405162967c1760e71b81526001600160a01b0385811660048301529293505f9290911690634b3e0b8090602401602060405180830381865afa15801561382a573d5f803e3d5ffd5b505050506040513d601f19601f8201168201806040525081019061384e91906149cd565b609c549091506001600160a01b03600160401b9091048116908416036138935789818a6080015161387f9190614e21565b6138899190614e02565b60a08a01526138d5565b6138cf609c60089054906101000a90046001600160a01b0316848c848d608001516138be9190614e21565b6138c89190614e02565b30866116c0565b60a08a01525b5050506001016136fa565b50505050505050505050505050565b6139216040518060a0016040528060608152602001606081526020016060815260200160608152602001606081525090565b5f866139368568056bc75e2d63100000614e21565b6139409190614e02565b90505f61394d8287614def565b5f8a815260a56020908152604080832054609f9092528220549293509091613976908490614e21565b6139809190614e02565b90505f61398c8961102e565b90505f6139ba609c60089054906101000a90046001600160a01b03166139b18c610892565b853060036116c0565b60985460405163d1c68aa360e01b81526001600160401b038d1660048201529192506001600160a01b03169063d1c68aa3906024015f60405180830381865afa158015613a09573d5f803e3d5ffd5b505050506040513d5f823e601f3d908101601f19168201604052613a309190810190614c63565b8652609854604051633414329f60e21b81526001600160401b038c1660048201526001600160a01b039091169063d050ca7c906024015f60405180830381865afa158015613a80573d5f803e3d5ffd5b505050506040513d5f823e601f3d908101601f19168201604052613aa79190810190614c63565b602087015260985460405163221f337160e01b81526001600160401b038c1660048201526001600160a01b039091169063221f3371906024015f60405180830381865afa158015613afa573d5f803e3d5ffd5b505050506040513d5f823e601f3d908101601f19168201604052613b219190810190614cb7565b6040878101919091526098549051631435bff160e31b81526001600160401b038c1660048201526001600160a01b039091169063a1adff88906024015f60405180830381865afa158015613b77573d5f803e3d5ffd5b505050506040513d5f823e601f3d908101601f19168201604052613b9e9190810190614cb7565b606087810191909152604080516002808252928101825291906020830190803683375050506080870181905280518c91905f90613bdd57613bdd614c4f565b602002602001018181525050888660800151600181518110613c0157613c01614c4f565b60209081029190910101526040805160018082528183019092525f91816020015b604080518082019091525f8082526020820152815260200190600190039081613c22579050509050613c538b610892565b815f81518110613c6557613c65614c4f565b60200260200101515f01906001600160a01b031690816001600160a01b03168152505081815f81518110613c9b57613c9b614c4f565b602002602001015160200181815250505f6004885f015189602001518a604001518b60600151609d548e8e60800151604051602001613ce1989796959493929190614d5b565b6040516020818303038152906040529050612fc28c82868560016140da565b5f54610100900460ff16613d265760405162461bcd60e51b815260040161117790615277565b6001600160a01b038116613d4f576040516335fdcccd60e21b81525f6004820152602401611177565b5f80546001600160a01b03909216620100000262010000600160b01b0319909216919091179055565b5f54610100900460ff16613d9e5760405162461bcd60e51b815260040161117790615277565b6116be6144e6565b60405163095ea7b360e01b81526001600160a01b038781166004830152602482018490525f919086169063095ea7b3906044016020604051808303815f875af1158015613df5573d5f803e3d5ffd5b505050506040513d601f19601f82011682018060405250810190613e19919061518f565b505f604051806101000160405280876001600160a01b03168152602001866001600160a01b031681526020018862ffffff168152602001846001600160a01b031681526020014261012c613e6d91906149ba565b8152602081018690525f60408083018290526060909201525163414bf38960e01b81529091506001600160a01b0389169063414bf38990613eb29084906004016152c2565b6020604051808303815f875af1158015613ece573d5f803e3d5ffd5b505050506040513d601f19601f820116820180604052508101906117be91906149cd565b6040805160028082526060820183525f928392919060208301908036833701905050905085815f81518110613f2957613f29614c4f565b60200260200101906001600160a01b031690816001600160a01b0316815250508481600181518110613f5d57613f5d614c4f565b6001600160a01b03928316602091820292909201015260405163d06ca61f60e01b81525f9189169063d06ca61f90613f9b908890869060040161533f565b5f60405180830381865afa158015613fb5573d5f803e3d5ffd5b505050506040513d5f823e601f3d908101601f19168201604052613fdc9190810190614cb7565b60405163095ea7b360e01b81526001600160a01b038a81166004830152602482018890529192509088169063095ea7b3906044016020604051808303815f875af115801561402c573d5f803e3d5ffd5b505050506040513d601f19601f82011682018060405250810190614050919061518f565b50604051635c11d79560e01b81526001600160a01b03891690635c11d795906140859088905f9087908a904290600401615357565b5f604051808303815f87803b15801561409c575f80fd5b505af11580156140ae573d5f803e3d5ffd5b50505050806001815181106140c5576140c5614c4f565b60200260200101519250505095945050505050565b8151609954600160a01b900461ffff1681111561415f5760405162461bcd60e51b815260206004820152603760248201527f4d6178696d756d203520646966666572656e7420746f6b656e732063616e206260448201527f652073656e74207065722043434950204d6573736167650000000000000000006064820152608401611177565b5f5b8181101561427e5760995484516001600160a01b039091169085908390811061418c5761418c614c4f565b60200260200101515f01516001600160a01b031614614276578381815181106141b7576141b7614c4f565b60200260200101515f01516001600160a01b031663095ea7b35f60029054906101000a90046001600160a01b03168684815181106141f7576141f7614c4f565b6020026020010151602001516040518363ffffffff1660e01b81526004016142349291906001600160a01b03929092168252602082015260400190565b6020604051808303815f875af1158015614250573d5f803e3d5ffd5b505050506040513d601f19601f82011682018060405250810190614274919061518f565b505b600101614161565b506040805160a081019091526001600160a01b03851660c08201525f908060e0810160408051601f1981840301815291815290825260208201899052810186905260600160018560018111156142d6576142d6614fdd565b146142e1575f6142ee565b6099546001600160a01b03165b6001600160a01b031681526020016143166040518060200160405280620dbba0815250613328565b90525f80546040516320487ded60e01b81529293509091620100009091046001600160a01b0316906320487ded90614354908b90869060040161501f565b602060405180830381865afa15801561436f573d5f803e3d5ffd5b505050506040513d601f19601f8201168201806040525081019061439391906149cd565b90505f60018560018111156143aa576143aa614fdd565b0361442c575f546040516396f4e9f960e01b8152620100009091046001600160a01b0316906396f4e9f9906143e5908c90879060040161501f565b6020604051808303815f875af1158015614401573d5f803e3d5ffd5b505050506040513d601f19601f8201168201806040525081019061442591906149cd565b90506144a8565b5f546040516396f4e9f960e01b8152620100009091046001600160a01b0316906396f4e9f9908490614464908d90889060040161501f565b60206040518083038185885af1158015614480573d5f803e3d5ffd5b50505050506040513d601f19601f820116820180604052508101906144a591906149cd565b90505b6040518181527f54791b38f3859327992a1ca0590ad3c0f08feba98d1a4f56ab0dca74d203392a9060200160405180910390a1505050505050505050565b5f54610100900460ff1661450c5760405162461bcd60e51b815260040161117790615277565b6116be33612fd2565b5f60208284031215614525575f80fd5b81356001600160e01b03198116811461453c575f80fd5b9392505050565b5f60208284031215614553575f80fd5b5035919050565b6001600160401b038116811461180d575f80fd5b80356145798161455a565b919050565b5f6020828403121561458e575f80fd5b813561453c8161455a565b5f602082840312156145a9575f80fd5b813560ff8116811461453c575f80fd5b5f80604083850312156145ca575f80fd5b8235915060208301356145dc8161455a565b809150509250929050565b6001600160a01b038116811461180d575f80fd5b62ffffff8116811461180d575f80fd5b5f805f805f60a0868803121561461f575f80fd5b853561462a816145e7565b9450602086013561463a816145e7565b9350604086013592506060860135614651816145e7565b91506080860135614661816145fb565b809150509295509295909350565b5f6020828403121561467f575f80fd5b81356001600160401b03811115614694575f80fd5b820160a0818503121561453c575f80fd5b5f80604083850312156146b6575f80fd5b50508035926020909101359150565b5f80604083850312156146d6575f80fd5b8235915060208301356145dc816145e7565b5f602082840312156146f8575f80fd5b813561453c816145e7565b634e487b7160e01b5f52604160045260245ffd5b604080519081016001600160401b038111828210171561473957614739614703565b60405290565b60405160a081016001600160401b038111828210171561473957614739614703565b604051601f8201601f191681016001600160401b038111828210171561478957614789614703565b604052919050565b5f82601f8301126147a0575f80fd5b81356001600160401b038111156147b9576147b9614703565b6147cc601f8201601f1916602001614761565b8181528460208386010111156147e0575f80fd5b816020850160208301375f918101602001919091529392505050565b5f805f806080858703121561480f575f80fd5b843561481a8161455a565b9350602085013561482a816145e7565b925060408501356001600160401b03811115614844575f80fd5b61485087828801614791565b925050606085013560028110614864575f80fd5b939692955090935050565b5f805f8060808587031215614882575f80fd5b843561488d816145e7565b9350602085013561489d816145e7565b9250604085013591506060850135614864816145fb565b5f805f805f8060c087890312156148c9575f80fd5b86356148d48161455a565b955060208701356148e4816145e7565b945060408701356148f4816145e7565b93506060870135614904816145e7565b92506080870135614914816145e7565b915060a0870135614924816145e7565b809150509295509295509295565b5f805f8060808587031215614945575f80fd5b8435614950816145e7565b93506020850135614960816145e7565b925060408501356001600160801b038116811461497b575f80fd5b91506060850135614864816145fb565b5f6020828403121561499b575f80fd5b815161453c816145e7565b634e487b7160e01b5f52601160045260245ffd5b8082018082111561088c5761088c6149a6565b5f602082840312156149dd575f80fd5b5051919050565b5f6001600160401b038211156149fc576149fc614703565b5060051b60200190565b5f82601f830112614a15575f80fd5b8151614a28614a23826149e4565b614761565b8082825260208201915060208360051b860101925085831115614a49575f80fd5b602085015b83811015614a6f578051614a61816145e7565b835260209283019201614a4e565b5095945050505050565b5f82601f830112614a88575f80fd5b8151614a96614a23826149e4565b8082825260208201915060208360051b860101925085831115614ab7575f80fd5b602085015b83811015614a6f578051835260209283019201614abc565b5f82601f830112614ae3575f80fd5b8151614af1614a23826149e4565b8082825260208201915060208360051b860101925085831115614b12575f80fd5b602085015b83811015614a6f578051614b2a8161455a565b835260209283019201614b17565b5f805f8060808587031215614b4b575f80fd5b84516001600160401b03811115614b60575f80fd5b614b6c87828801614a06565b94505060208501516001600160401b03811115614b87575f80fd5b614b9387828801614a79565b93505060408501516001600160401b03811115614bae575f80fd5b8501601f81018713614bbe575f80fd5b8051614bcc614a23826149e4565b8082825260208201915060208360051b850101925089831115614bed575f80fd5b6020840193505b82841015614c18578351614c07816145fb565b825260209384019390910190614bf4565b8095505050505060608501516001600160401b03811115614c37575f80fd5b614c4387828801614ad4565b91505092959194509250565b634e487b7160e01b5f52603260045260245ffd5b5f60208284031215614c73575f80fd5b81516001600160401b03811115614c88575f80fd5b614c9484828501614a06565b949350505050565b5f60208284031215614cac575f80fd5b815161453c816145fb565b5f60208284031215614cc7575f80fd5b81516001600160401b03811115614cdc575f80fd5b614c9484828501614a79565b5f8151808452602084019350602083015f5b82811015614d215781516001600160a01b0316865260209586019590910190600101614cfa565b5093949350505050565b5f8151808452602084019350602083015f5b82811015614d21578151865260209586019590910190600101614d3d565b60ff8916815261010060208201525f614d7861010083018a614ce8565b8281036040840152614d8a818a614ce8565b90508281036060840152614d9e8189614d2b565b90508281036080840152614db28188614d2b565b90508560a084015282810360c0840152614dcc8186614d2b565b905082810360e0840152614de08185614d2b565b9b9a5050505050505050505050565b8181038181111561088c5761088c6149a6565b5f82614e1c57634e487b7160e01b5f52601260045260245ffd5b500490565b808202811582820484141761088c5761088c6149a6565b5f82601f830112614e47575f80fd5b8135614e55614a23826149e4565b8082825260208201915060208360061b860101925085831115614e76575f80fd5b602085015b83811015614a6f5760408188031215614e92575f80fd5b614e9a614717565b8135614ea5816145e7565b8152602082810135818301529084529290920191604001614e7b565b5f60a08236031215614ed1575f80fd5b614ed961473f565b82358152614ee96020840161456e565b602082015260408301356001600160401b03811115614f06575f80fd5b614f1236828601614791565b60408301525060608301356001600160401b03811115614f30575f80fd5b614f3c36828601614791565b60608301525060808301356001600160401b03811115614f5a575f80fd5b614f6636828601614e38565b60808301525092915050565b5f60208284031215614f82575f80fd5b815161453c8161455a565b60208082526030908201527f50726f706f7361626c654f776e61626c653a206e6577206f776e65722069732060408201526f746865207a65726f206164647265737360801b606082015260800190565b634e487b7160e01b5f52602160045260245ffd5b5f81518084528060208401602086015e5f602082860101526020601f19601f83011685010191505092915050565b6001600160401b0383168152604060208201525f825160a0604084015261504960e0840182614ff1565b90506020840151603f198483030160608501526150668282614ff1565b6040860151858203603f190160808701528051808352602091820194505f93509101905b808310156150c157835180516001600160a01b0316835260209081015181840152909301926001929092019160409091019061508a565b5060608601516001600160a01b031660a08601526080860151858203603f190160c087015292506130548184614ff1565b5f805f8060808587031215615105575f80fd5b84516001600160401b0381111561511a575f80fd5b61512687828801614a06565b94505060208501516001600160401b03811115615141575f80fd5b61514d87828801614a79565b93505060408501516001600160401b03811115615168575f80fd5b61517487828801614a79565b92505060608501516001600160401b03811115614c37575f80fd5b5f6020828403121561519f575f80fd5b8151801515811461453c575f80fd5b5f805f805f8060c087890312156151c3575f80fd5b865160208801519096506001600160401b038111156151e0575f80fd5b6151ec89828a01614a06565b95505060408701516001600160401b03811115615207575f80fd5b61521389828a01614a06565b606089015160808a0151919650945090506001600160401b03811115615237575f80fd5b61524389828a01614a79565b92505060a08701516001600160401b0381111561525e575f80fd5b61526a89828a01614a79565b9150509295509295509295565b6020808252602b908201527f496e697469616c697a61626c653a20636f6e7472616374206973206e6f74206960408201526a6e697469616c697a696e6760a81b606082015260800190565b81516001600160a01b03908116825260208084015182169083015260408084015162ffffff169083015260608084015191821690830152610100820190506080830151608083015260a083015160a083015260c083015160c083015260e083015161533860e08401826001600160a01b03169052565b5092915050565b828152604060208201525f614c946040830184614ce8565b85815284602082015260a060408201525f61537560a0830186614ce8565b6001600160a01b039490941660608301525060800152939250505056fea2646970667358221220e23363535e17128c61f790c786d02e55ce86dc559af848e2372d2b545c2092b964736f6c634300081a0033","linkReferences":{}},"methodIdentifiers":{"askValues()":"2700cc86","ccipReceive((bytes32,uint64,bytes,bytes,(address,uint256)[]))":"85572ffb","chainValueByNonce(uint256,uint64)":"69abf538","convertEthToUsd(uint256)":"c086381e","crossChainFactoryBySelector(uint64)":"340fbc74","crossChainToken(uint64)":"19da7e2a","currentChainSelector()":"3d54cb6f","estimateAmountOut(address,address,uint128,uint24)":"ee7bd3e2","extraWethByNonce(uint256)":"756c1fd1","factoryStorage()":"c06e1ae2","feeRate()":"978bbdb9","firstReweightAction()":"63713a8b","getAmountOut(address,address,uint256,uint24)":"dd811ac9","getPortfolioBalance()":"a8509fd8","getRouter()":"b0f479a1","i_link()":"7d253aff","i_maxTokensLength()":"5b6a0351","indexToken()":"e7d015f2","initialize(uint64,address,address,address,address,address)":"edba0e31","latestFeeUpdate()":"011ced5f","owner()":"8da5cb5b","portfolioTotalValueByNonce(uint256)":"7d3546f7","priceInWei()":"3c8da588","proposeOwner(address)":"b5ed298a","proposedOwner()":"d153b60c","redemptionNonceOutputToken(uint256)":"0603fb05","redemptionNonceOutputTokenSwapFee(uint256)":"afcaa952","renounceOwnership()":"715018a6","reweightExtraPercentage(uint256)":"814ffd71","reweightTokensCount(uint256)":"78324463","reweightWethValueByNonce(uint256)":"f1639b09","secondReweightAction()":"d79e8d65","sendMessage(uint64,address,bytes,uint8)":"bcab90b3","setFeeRate(uint8)":"5177942a","setIndexFactoryStorage(address)":"cc8659ae","setPortfolioTotalValueByNonce(uint256,uint256)":"8d7307d4","supportsInterface(bytes4)":"01ffc9a7","swap(address,address,uint256,address,uint24)":"7e79f512","tokenValueByNonce(uint256,address)":"b316e7fd","transferOwnership(address)":"f2fde38b","updatePortfolioNonce()":"003cf402","updatedTokensValueCount(uint256)":"c070a097","weth()":"3fc8cef3"},"id":4}