{
  "abi": [
    {
      "inputs": [
        {
          "internalType": "address",
          "name": "router",
          "type": "address"
        }
      ],
      "name": "InvalidRouter",
      "type": "error"
    },
    {
      "anonymous": false,
      "inputs": [
        {
          "indexed": false,
          "internalType": "uint8",
          "name": "version",
          "type": "uint8"
        }
      ],
      "name": "Initialized",
      "type": "event"
    },
    {
      "anonymous": false,
      "inputs": [
        {
          "indexed": false,
          "internalType": "bytes32",
          "name": "messageId",
          "type": "bytes32"
        }
      ],
      "name": "MessageSent",
      "type": "event"
    },
    {
      "anonymous": false,
      "inputs": [
        {
          "indexed": true,
          "internalType": "address",
          "name": "previousOwner",
          "type": "address"
        },
        {
          "indexed": true,
          "internalType": "address",
          "name": "newOwner",
          "type": "address"
        }
      ],
      "name": "OwnershipTransferred",
      "type": "event"
    },
    {
      "inputs": [],
      "name": "askValues",
      "outputs": [],
      "stateMutability": "nonpayable",
      "type": "function"
    },
    {
      "inputs": [
        {
          "components": [
            {
              "internalType": "bytes32",
              "name": "messageId",
              "type": "bytes32"
            },
            {
              "internalType": "uint64",
              "name": "sourceChainSelector",
              "type": "uint64"
            },
            {
              "internalType": "bytes",
              "name": "sender",
              "type": "bytes"
            },
            {
              "internalType": "bytes",
              "name": "data",
              "type": "bytes"
            },
            {
              "components": [
                {
                  "internalType": "address",
                  "name": "token",
                  "type": "address"
                },
                {
                  "internalType": "uint256",
                  "name": "amount",
                  "type": "uint256"
                }
              ],
              "internalType": "struct Client.EVMTokenAmount[]",
              "name": "destTokenAmounts",
              "type": "tuple[]"
            }
          ],
          "internalType": "struct Client.Any2EVMMessage",
          "name": "message",
          "type": "tuple"
        }
      ],
      "name": "ccipReceive",
      "outputs": [],
      "stateMutability": "nonpayable",
      "type": "function"
    },
    {
      "inputs": [
        {
          "internalType": "uint256",
          "name": "",
          "type": "uint256"
        },
        {
          "internalType": "uint64",
          "name": "",
          "type": "uint64"
        }
      ],
      "name": "chainValueByNonce",
      "outputs": [
        {
          "internalType": "uint256",
          "name": "",
          "type": "uint256"
        }
      ],
      "stateMutability": "view",
      "type": "function"
    },
    {
      "inputs": [
        {
          "internalType": "uint256",
          "name": "_ethAmount",
          "type": "uint256"
        }
      ],
      "name": "convertEthToUsd",
      "outputs": [
        {
          "internalType": "uint256",
          "name": "",
          "type": "uint256"
        }
      ],
      "stateMutability": "view",
      "type": "function"
    },
    {
      "inputs": [
        {
          "internalType": "uint64",
          "name": "_chainSelector",
          "type": "uint64"
        }
      ],
      "name": "crossChainFactoryBySelector",
      "outputs": [
        {
          "internalType": "address",
          "name": "",
          "type": "address"
        }
      ],
      "stateMutability": "view",
      "type": "function"
    },
    {
      "inputs": [
        {
          "internalType": "uint64",
          "name": "_chainSelector",
          "type": "uint64"
        }
      ],
      "name": "crossChainToken",
      "outputs": [
        {
          "internalType": "address",
          "name": "",
          "type": "address"
        }
      ],
      "stateMutability": "view",
      "type": "function"
    },
    {
      "inputs": [],
      "name": "currentChainSelector",
      "outputs": [
        {
          "internalType": "uint64",
          "name": "",
          "type": "uint64"
        }
      ],
      "stateMutability": "view",
      "type": "function"
    },
    {
      "inputs": [
        {
          "internalType": "address",
          "name": "tokenIn",
          "type": "address"
        },
        {
          "internalType": "address",
          "name": "tokenOut",
          "type": "address"
        },
        {
          "internalType": "uint128",
          "name": "amountIn",
          "type": "uint128"
        },
        {
          "internalType": "uint32",
          "name": "secondsAgo",
          "type": "uint32"
        }
      ],
      "name": "estimateAmountOut",
      "outputs": [
        {
          "internalType": "uint256",
          "name": "amountOut",
          "type": "uint256"
        }
      ],
      "stateMutability": "view",
      "type": "function"
    },
    {
      "inputs": [
        {
          "internalType": "uint256",
          "name": "",
          "type": "uint256"
        }
      ],
      "name": "extraWethByNonce",
      "outputs": [
        {
          "internalType": "uint256",
          "name": "",
          "type": "uint256"
        }
      ],
      "stateMutability": "view",
      "type": "function"
    },
    {
      "inputs": [],
      "name": "feeRate",
      "outputs": [
        {
          "internalType": "uint8",
          "name": "",
          "type": "uint8"
        }
      ],
      "stateMutability": "view",
      "type": "function"
    },
    {
      "inputs": [],
      "name": "firstReweightAction",
      "outputs": [],
      "stateMutability": "nonpayable",
      "type": "function"
    },
    {
      "inputs": [
        {
          "internalType": "address",
          "name": "tokenIn",
          "type": "address"
        },
        {
          "internalType": "address",
          "name": "tokenOut",
          "type": "address"
        },
        {
          "internalType": "uint256",
          "name": "amountIn",
          "type": "uint256"
        },
        {
          "internalType": "uint256",
          "name": "_swapVersion",
          "type": "uint256"
        }
      ],
      "name": "getAmountOut",
      "outputs": [
        {
          "internalType": "uint256",
          "name": "finalAmountOut",
          "type": "uint256"
        }
      ],
      "stateMutability": "view",
      "type": "function"
    },
    {
      "inputs": [],
      "name": "getPortfolioBalance",
      "outputs": [
        {
          "internalType": "uint256",
          "name": "",
          "type": "uint256"
        }
      ],
      "stateMutability": "view",
      "type": "function"
    },
    {
      "inputs": [],
      "name": "getRouter",
      "outputs": [
        {
          "internalType": "address",
          "name": "",
          "type": "address"
        }
      ],
      "stateMutability": "view",
      "type": "function"
    },
    {
      "inputs": [],
      "name": "i_link",
      "outputs": [
        {
          "internalType": "address",
          "name": "",
          "type": "address"
        }
      ],
      "stateMutability": "view",
      "type": "function"
    },
    {
      "inputs": [],
      "name": "i_maxTokensLength",
      "outputs": [
        {
          "internalType": "uint16",
          "name": "",
          "type": "uint16"
        }
      ],
      "stateMutability": "view",
      "type": "function"
    },
    {
      "inputs": [],
      "name": "indexFactoryStorage",
      "outputs": [
        {
          "internalType": "contract IndexFactoryStorage",
          "name": "",
          "type": "address"
        }
      ],
      "stateMutability": "view",
      "type": "function"
    },
    {
      "inputs": [],
      "name": "indexToken",
      "outputs": [
        {
          "internalType": "contract IndexToken",
          "name": "",
          "type": "address"
        }
      ],
      "stateMutability": "view",
      "type": "function"
    },
    {
      "inputs": [
        {
          "internalType": "uint64",
          "name": "_currentChainSelector",
          "type": "uint64"
        },
        {
          "internalType": "address payable",
          "name": "_token",
          "type": "address"
        },
        {
          "internalType": "address",
          "name": "_indexFactoryStorage",
          "type": "address"
        },
        {
          "internalType": "address",
          "name": "_chainlinkToken",
          "type": "address"
        },
        {
          "internalType": "address",
          "name": "_router",
          "type": "address"
        },
        {
          "internalType": "address",
          "name": "_weth",
          "type": "address"
        }
      ],
      "name": "initialize",
      "outputs": [],
      "stateMutability": "nonpayable",
      "type": "function"
    },
    {
      "inputs": [],
      "name": "latestFeeUpdate",
      "outputs": [
        {
          "internalType": "uint256",
          "name": "",
          "type": "uint256"
        }
      ],
      "stateMutability": "view",
      "type": "function"
    },
    {
      "inputs": [],
      "name": "owner",
      "outputs": [
        {
          "internalType": "address",
          "name": "",
          "type": "address"
        }
      ],
      "stateMutability": "view",
      "type": "function"
    },
    {
      "inputs": [
        {
          "internalType": "uint256",
          "name": "",
          "type": "uint256"
        }
      ],
      "name": "portfolioTotalValueByNonce",
      "outputs": [
        {
          "internalType": "uint256",
          "name": "",
          "type": "uint256"
        }
      ],
      "stateMutability": "view",
      "type": "function"
    },
    {
      "inputs": [],
      "name": "priceInWei",
      "outputs": [
        {
          "internalType": "uint256",
          "name": "",
          "type": "uint256"
        }
      ],
      "stateMutability": "view",
      "type": "function"
    },
    {
      "inputs": [
        {
          "internalType": "address",
          "name": "_proposedOwner",
          "type": "address"
        }
      ],
      "name": "proposeOwner",
      "outputs": [],
      "stateMutability": "nonpayable",
      "type": "function"
    },
    {
      "inputs": [],
      "name": "proposedOwner",
      "outputs": [
        {
          "internalType": "address",
          "name": "",
          "type": "address"
        }
      ],
      "stateMutability": "view",
      "type": "function"
    },
    {
      "inputs": [
        {
          "internalType": "uint256",
          "name": "",
          "type": "uint256"
        }
      ],
      "name": "redemptionNonceOutputToken",
      "outputs": [
        {
          "internalType": "address",
          "name": "",
          "type": "address"
        }
      ],
      "stateMutability": "view",
      "type": "function"
    },
    {
      "inputs": [
        {
          "internalType": "uint256",
          "name": "",
          "type": "uint256"
        }
      ],
      "name": "redemptionNonceOutputTokenSwapVersion",
      "outputs": [
        {
          "internalType": "uint256",
          "name": "",
          "type": "uint256"
        }
      ],
      "stateMutability": "view",
      "type": "function"
    },
    {
      "inputs": [],
      "name": "renounceOwnership",
      "outputs": [],
      "stateMutability": "nonpayable",
      "type": "function"
    },
    {
      "inputs": [
        {
          "internalType": "uint256",
          "name": "",
          "type": "uint256"
        }
      ],
      "name": "reweightExtraPercentage",
      "outputs": [
        {
          "internalType": "uint256",
          "name": "",
          "type": "uint256"
        }
      ],
      "stateMutability": "view",
      "type": "function"
    },
    {
      "inputs": [
        {
          "internalType": "uint256",
          "name": "",
          "type": "uint256"
        }
      ],
      "name": "reweightTokensCount",
      "outputs": [
        {
          "internalType": "uint256",
          "name": "",
          "type": "uint256"
        }
      ],
      "stateMutability": "view",
      "type": "function"
    },
    {
      "inputs": [
        {
          "internalType": "uint256",
          "name": "",
          "type": "uint256"
        }
      ],
      "name": "reweightWethValueByNonce",
      "outputs": [
        {
          "internalType": "uint256",
          "name": "",
          "type": "uint256"
        }
      ],
      "stateMutability": "view",
      "type": "function"
    },
    {
      "inputs": [],
      "name": "secondReweightAction",
      "outputs": [],
      "stateMutability": "nonpayable",
      "type": "function"
    },
    {
      "inputs": [
        {
          "internalType": "uint64",
          "name": "destinationChainSelector",
          "type": "uint64"
        },
        {
          "internalType": "address",
          "name": "receiver",
          "type": "address"
        },
        {
          "internalType": "bytes",
          "name": "_data",
          "type": "bytes"
        },
        {
          "internalType": "enum IndexFactoryBalancer.PayFeesIn",
          "name": "payFeesIn",
          "type": "uint8"
        }
      ],
      "name": "sendMessage",
      "outputs": [],
      "stateMutability": "nonpayable",
      "type": "function"
    },
    {
      "inputs": [
        {
          "internalType": "uint8",
          "name": "_newFee",
          "type": "uint8"
        }
      ],
      "name": "setFeeRate",
      "outputs": [],
      "stateMutability": "nonpayable",
      "type": "function"
    },
    {
      "inputs": [
        {
          "internalType": "address",
          "name": "_indexFactoryStorage",
          "type": "address"
        }
      ],
      "name": "setIndexFactoryStorage",
      "outputs": [],
      "stateMutability": "nonpayable",
      "type": "function"
    },
    {
      "inputs": [
        {
          "internalType": "bytes4",
          "name": "interfaceId",
          "type": "bytes4"
        }
      ],
      "name": "supportsInterface",
      "outputs": [
        {
          "internalType": "bool",
          "name": "",
          "type": "bool"
        }
      ],
      "stateMutability": "pure",
      "type": "function"
    },
    {
      "inputs": [
        {
          "internalType": "address",
          "name": "tokenIn",
          "type": "address"
        },
        {
          "internalType": "address",
          "name": "tokenOut",
          "type": "address"
        },
        {
          "internalType": "uint256",
          "name": "amountIn",
          "type": "uint256"
        },
        {
          "internalType": "address",
          "name": "_recipient",
          "type": "address"
        },
        {
          "internalType": "uint256",
          "name": "_swapVersion",
          "type": "uint256"
        }
      ],
      "name": "swap",
      "outputs": [
        {
          "internalType": "uint256",
          "name": "",
          "type": "uint256"
        }
      ],
      "stateMutability": "nonpayable",
      "type": "function"
    },
    {
      "inputs": [
        {
          "internalType": "uint256",
          "name": "",
          "type": "uint256"
        },
        {
          "internalType": "address",
          "name": "",
          "type": "address"
        }
      ],
      "name": "tokenValueByNonce",
      "outputs": [
        {
          "internalType": "uint256",
          "name": "",
          "type": "uint256"
        }
      ],
      "stateMutability": "view",
      "type": "function"
    },
    {
      "inputs": [
        {
          "internalType": "address",
          "name": "newOwner",
          "type": "address"
        }
      ],
      "name": "transferOwnership",
      "outputs": [],
      "stateMutability": "nonpayable",
      "type": "function"
    },
    {
      "inputs": [],
      "name": "updatePortfolioNonce",
      "outputs": [
        {
          "internalType": "uint256",
          "name": "",
          "type": "uint256"
        }
      ],
      "stateMutability": "view",
      "type": "function"
    },
    {
      "inputs": [
        {
          "internalType": "uint256",
          "name": "",
          "type": "uint256"
        }
      ],
      "name": "updatedTokensValueCount",
      "outputs": [
        {
          "internalType": "uint256",
          "name": "",
          "type": "uint256"
        }
      ],
      "stateMutability": "view",
      "type": "function"
    },
    {
      "inputs": [],
      "name": "weth",
      "outputs": [
        {
          "internalType": "contract IWETH",
          "name": "",
          "type": "address"
        }
      ],
      "stateMutability": "view",
      "type": "function"
    },
    {
      "stateMutability": "payable",
      "type": "receive"
    }
  ],
  "bytecode": {
    "object": "0x608060405234801561001057600080fd5b5061561780620000216000396000f3fe6080604052600436106102545760003560e01c80637d3546f711610139578063bf938db8116100b6578063d1f7a9911161007a578063d1f7a991146107af578063d79e8d65146107cf578063e7d015f2146107e4578063edba0e3114610804578063f1639b0914610824578063f2fde38b1461085157600080fd5b8063bf938db814610702578063c070a09714610722578063c086381e1461074f578063cc8659ae1461076f578063d153b60c1461078f57600080fd5b8063a8509fd8116100fd578063a8509fd814610651578063b0f479a114610666578063b316e7fd1461068a578063b5ed298a146106c2578063bcab90b3146106e257600080fd5b80637d3546f714610586578063814ffd71146105b357806385572ffb146105e05780638da5cb5b14610600578063978bbdb91461061e57600080fd5b80633d54cb6f116101d257806369abf5381161019657806369abf53814610492578063715018a6146104ca57806372bc260c146104df578063756c1fd11461050c57806378324463146105395780637d253aff1461056657600080fd5b80633d54cb6f146103c95780633fc8cef3146104015780635177942a146104285780635b6a03511461044857806363713a8b1461047d57600080fd5b806317d88f461161021957806317d88f461461033d57806319da7e2a1461035d5780632700cc861461037d578063340fbc74146103945780633c8da588146103b457600080fd5b80623cf40214610260578063011ced5f1461028957806301ffc9a71461029f5780630603fb05146102cf57806313cb1f831461031d57600080fd5b3661025b57005b600080fd5b34801561026c57600080fd5b50610276609d5481565b6040519081526020015b60405180910390f35b34801561029557600080fd5b50610276609b5481565b3480156102ab57600080fd5b506102bf6102ba366004614dbb565b610871565b6040519015158152602001610280565b3480156102db57600080fd5b506103056102ea366004614e1f565b60a6602052600090815260409020546001600160a01b031681565b6040516001600160a01b039091168152602001610280565b34801561032957600080fd5b50610276610338366004614cca565b6108a8565b34801561034957600080fd5b50610276610358366004614c6f565b61093d565b34801561036957600080fd5b50610305610378366004614f4b565b610a71565b34801561038957600080fd5b50610392610af7565b005b3480156103a057600080fd5b506103056103af366004614f4b565b6112d4565b3480156103c057600080fd5b5061027661130e565b3480156103d557600080fd5b50609c546103e9906001600160401b031681565b6040516001600160401b039091168152602001610280565b34801561040d57600080fd5b50609c5461030590600160401b90046001600160a01b031681565b34801561043457600080fd5b50610392610443366004615074565b611390565b34801561045457600080fd5b5060995461046a90600160a01b900461ffff1681565b60405161ffff9091168152602001610280565b34801561048957600080fd5b506103926114df565b34801561049e57600080fd5b506102766104ad366004614f26565b60a260209081526000928352604080842090915290825290205481565b3480156104d657600080fd5b506103926119e4565b3480156104eb57600080fd5b506102766104fa366004614e1f565b60a76020526000908152604090205481565b34801561051857600080fd5b50610276610527366004614e1f565b609f6020526000908152604090205481565b34801561054557600080fd5b50610276610554366004614e1f565b60a46020526000908152604090205481565b34801561057257600080fd5b50609954610305906001600160a01b031681565b34801561059257600080fd5b506102766105a1366004614e1f565b609e6020526000908152604090205481565b3480156105bf57600080fd5b506102766105ce366004614e1f565b60a56020526000908152604090205481565b3480156105ec57600080fd5b506103926105fb366004614de5565b6119f8565b34801561060c57600080fd5b506033546001600160a01b0316610305565b34801561062a57600080fd5b50609a5461063f90600160a01b900460ff1681565b60405160ff9091168152602001610280565b34801561065d57600080fd5b50610276611a3f565b34801561067257600080fd5b506000546201000090046001600160a01b0316610305565b34801561069657600080fd5b506102766106a5366004614e38565b60a160209081526000928352604080842090915290825290205481565b3480156106ce57600080fd5b506103926106dd366004614bbd565b611dad565b3480156106ee57600080fd5b506103926106fd366004615007565b611dfd565b34801561070e57600080fd5b5061027661071d366004614bfe565b6120de565b34801561072e57600080fd5b5061027661073d366004614e1f565b60a06020526000908152604090205481565b34801561075b57600080fd5b5061027661076a366004614e1f565b61217f565b34801561077b57600080fd5b5061039261078a366004614bbd565b6121a6565b34801561079b57600080fd5b50606554610305906001600160a01b031681565b3480156107bb57600080fd5b50609854610305906001600160a01b031681565b3480156107db57600080fd5b506103926121d0565b3480156107f057600080fd5b50609a54610305906001600160a01b031681565b34801561081057600080fd5b5061039261081f366004614f85565b6126cd565b34801561083057600080fd5b5061027661083f366004614e1f565b60a36020526000908152604090205481565b34801561085d57600080fd5b5061039261086c366004614bbd565b612916565b60006001600160e01b031982166385572ffb60e01b14806108a257506001600160e01b031982166301ffc9a760e01b145b92915050565b6098546040516313cb1f8360e01b815260009182916001600160a01b03909116906313cb1f83906108e3908990899089908990600401615158565b60206040518083038186803b1580156108fb57600080fd5b505afa15801561090f573d6000803e3d6000fd5b505050506040513d601f19601f820116820180604052508101906109339190614da2565b9695505050505050565b60985460405163a9059cbb60e01b81526001600160a01b0391821660048201526024810185905260009187169063a9059cbb90604401602060405180830381600087803b15801561098d57600080fd5b505af11580156109a1573d6000803e3d6000fd5b505050506040513d601f19601f820116820180604052508101906109c59190614d80565b50609854604051630bec47a360e11b81526001600160a01b03888116600483015287811660248301526044820187905285811660648301526084820185905260009216906317d88f469060a401602060405180830381600087803b158015610a2c57600080fd5b505af1158015610a40573d6000803e3d6000fd5b505050506040513d601f19601f82011682018060405250810190610a649190614da2565b9150505b95945050505050565b609854604051630ced3f1560e11b81526001600160401b03831660048201526000916001600160a01b0316906319da7e2a906024015b60206040518083038186803b158015610abf57600080fd5b505afa158015610ad3573d6000803e3d6000fd5b505050506040513d601f19601f820116820180604052508101906108a29190614be1565b610aff612a3b565b6001609d6000828254610b129190615428565b909155505060985460408051631a521ec760e21b815290516000926001600160a01b0316916369487b1c916004808301926020929190829003018186803b158015610b5c57600080fd5b505afa158015610b70573d6000803e3d6000fd5b505050506040513d601f19601f82011682018060405250810190610b949190614da2565b90506000609860009054906101000a90046001600160a01b03166001600160a01b031663b90b8a2a6040518163ffffffff1660e01b815260040160206040518083038186803b158015610be657600080fd5b505afa158015610bfa573d6000803e3d6000fd5b505050506040513d601f19601f82011682018060405250810190610c1e9190614da2565b905060005b828110156112cf57609854604051636dab0c9160e11b815260048101849052602481018390526000916001600160a01b03169063db5619229060440160206040518083038186803b158015610c7757600080fd5b505afa158015610c8b573d6000803e3d6000fd5b505050506040513d601f19601f82011682018060405250810190610caf9190614f68565b60985460405163b6ad185b60e01b81526001600160401b03831660048201529192506000916001600160a01b039091169063b6ad185b9060240160206040518083038186803b158015610d0157600080fd5b505afa158015610d15573d6000803e3d6000fd5b505050506040513d601f19601f82011682018060405250810190610d399190614da2565b609c549091506001600160401b03838116911614156111365760005b81811015611130576098546040516309c6d7f360e21b8152600481018790526001600160401b0385166024820152604481018390526000916001600160a01b03169063271b5fcc9060640160206040518083038186803b158015610db857600080fd5b505afa158015610dcc573d6000803e3d6000fd5b505050506040513d601f19601f82011682018060405250810190610df09190614be1565b60985460405163d90bc21160e01b81526001600160a01b0380841660048301529293506000929091169063d90bc2119060240160206040518083038186803b158015610e3b57600080fd5b505afa158015610e4f573d6000803e3d6000fd5b505050506040513d601f19601f82011682018060405250810190610e739190614da2565b609854604051630be5271360e01b81526001600160a01b03858116600483015292935060009290911690630be527139060240160206040518083038186803b158015610ebe57600080fd5b505afa158015610ed2573d6000803e3d6000fd5b505050506040513d601f19601f82011682018060405250810190610ef69190614da2565b609c549091506000906001600160a01b03858116600160401b909204161415610f9d57609a546040516370a0823160e01b81526001600160a01b039182166004820152908516906370a082319060240160206040518083038186803b158015610f5e57600080fd5b505afa158015610f72573d6000803e3d6000fd5b505050506040513d601f19601f82011682018060405250810190610f969190614da2565b9050611037565b609c54609a546040516370a0823160e01b81526001600160a01b039182166004820152611034928792600160401b909104811691908316906370a082319060240160206040518083038186803b158015610ff657600080fd5b505afa15801561100a573d6000803e3d6000fd5b505050506040513d601f19601f8201168201806040525081019061102e9190614da2565b866108a8565b90505b6110408161217f565b609d546000908152609e602052604081208054909190611061908490615428565b9091555061107090508161217f565b609d54600090815260a1602090815260408083206001600160a01b0389168452909152812080549091906110a5908490615428565b9091555050609d54600090815260a0602052604081208054600192906110cc908490615428565b909155506110db90508161217f565b609d54600090815260a260209081526040808320609c546001600160401b0316845290915281208054909190611112908490615428565b9250508190555050505050808061112890615544565b915050610d55565b506112ba565b6000611141836112d4565b60985460405163d1c68aa360e01b81526001600160401b03861660048201529192506000916001600160a01b039091169063d1c68aa39060240160006040518083038186803b15801561119357600080fd5b505afa1580156111a7573d6000803e3d6000fd5b505050506040513d6000823e601f3d908101601f191682016040526111cf9190810190614d10565b60985460405163221f337160e01b81526001600160401b03871660048201529192506000916001600160a01b039091169063221f33719060240160006040518083038186803b15801561122157600080fd5b505afa158015611235573d6000803e3d6000fd5b505050506040513d6000823e601f3d908101601f1916820160405261125d9190810190614d4c565b60408051600080825260208201818152828401909352609d549394509092611295906002908790869088908790818060608601615181565b60405160208183030381529060405290506112b38887836001611dfd565b5050505050505b505080806112c790615544565b915050610c23565b505050565b609854604051630d03ef1d60e21b81526001600160401b03831660048201526000916001600160a01b03169063340fbc7490602401610aa7565b60985460408051630791b4b160e31b815290516000926001600160a01b031691633c8da588916004808301926020929190829003018186803b15801561135357600080fd5b505afa158015611367573d6000803e3d6000fd5b505050506040513d601f19601f8201168201806040525081019061138b9190614da2565b905090565b611398612a3b565b6000609b54426113a89190615481565b9050600c603c6113b88184615440565b6113c29190615440565b1161143a5760405162461bcd60e51b815260206004820152603960248201527f596f752073686f756c642077616974206174206c6561737420313220686f757260448201527f7320616674657220746865206c6174657374207570646174650000000000000060648201526084015b60405180910390fd5b60648260ff1611158015611452575060018260ff1610155b6114ba5760405162461bcd60e51b815260206004820152603360248201527f546865206e65774665652073686f756c64206265206265747765656e203120616044820152726e64203130302028302e303125202d2031252960681b6064820152608401611431565b50609a805460ff909216600160a01b0260ff60a01b1990921691909117905542609b55565b6114e7612a3b565b609d546000818152609e60209081526040808320546098548251631a521ec760e21b815292519194936001600160a01b03909116926369487b1c9260048083019392829003018186803b15801561153d57600080fd5b505afa158015611551573d6000803e3d6000fd5b505050506040513d601f19601f820116820180604052508101906115759190614da2565b90506000609860009054906101000a90046001600160a01b03166001600160a01b031663b90b8a2a6040518163ffffffff1660e01b815260040160206040518083038186803b1580156115c757600080fd5b505afa1580156115db573d6000803e3d6000fd5b505050506040513d601f19601f820116820180604052508101906115ff9190614da2565b90506000609860009054906101000a90046001600160a01b03166001600160a01b031663f15817876040518163ffffffff1660e01b815260040160206040518083038186803b15801561165157600080fd5b505afa158015611665573d6000803e3d6000fd5b505050506040513d601f19601f820116820180604052508101906116899190614da2565b905060005b838110156119dc57609854604051636dab0c9160e11b815260048101859052602481018390526000916001600160a01b03169063db5619229060440160206040518083038186803b1580156116e257600080fd5b505afa1580156116f6573d6000803e3d6000fd5b505050506040513d601f19601f8201168201806040525081019061171a9190614f68565b60985460405163b6ad185b60e01b81526001600160401b03831660048201529192506000916001600160a01b039091169063b6ad185b9060240160206040518083038186803b15801561176c57600080fd5b505afa158015611780573d6000803e3d6000fd5b505050506040513d601f19601f820116820180604052508101906117a49190614da2565b609854604051637e34c5a560e11b81526001600160401b03851660048201529192506000916001600160a01b039091169063fc698b4a9060240160206040518083038186803b1580156117f657600080fd5b505afa15801561180a573d6000803e3d6000fd5b505050506040513d601f19601f8201168201806040525081019061182e9190614da2565b6098546040516377b2688f60e01b8152600481018890526001600160401b03861660248201529192506000916001600160a01b03909116906377b2688f9060440160206040518083038186803b15801561188757600080fd5b505afa15801561189b573d6000803e3d6000fd5b505050506040513d601f19601f820116820180604052508101906118bf9190614da2565b60008b815260a2602090815260408083206001600160401b03891680855292528083205460985491516302fc352760e61b815260048101939093529394506001600160a01b03169063bf0d49c09060240160006040518083038186803b15801561192857600080fd5b505afa15801561193c573d6000803e3d6000fd5b505050506040513d6000823e601f3d908101601f191682016040526119649190810190614d4c565b9050828b61197b8468056bc75e2d63100000615462565b6119859190615440565b11156119c357609c546001600160401b03878116911614156119b5576119b0878d8d89898989612a95565b6119c3565b6119c38c8c888686866130f2565b50505050505080806119d490615544565b91505061168e565b505050505050565b6119ec612a3b565b6119f6600061345d565b565b6000546201000090046001600160a01b03163314611a2b576040516335fdcccd60e21b8152336004820152602401611431565b611a3c611a3782615498565b6134af565b50565b6000806000609860009054906101000a90046001600160a01b03166001600160a01b03166353fd43326040518163ffffffff1660e01b815260040160206040518083038186803b158015611a9257600080fd5b505afa158015611aa6573d6000803e3d6000fd5b505050506040513d601f19601f82011682018060405250810190611aca9190614da2565b905060005b81811015611da55760985460405163264cae9360e21b8152600481018390526000916001600160a01b031690639932ba4c9060240160206040518083038186803b158015611b1c57600080fd5b505afa158015611b30573d6000803e3d6000fd5b505050506040513d601f19601f82011682018060405250810190611b549190614be1565b609854604051633aa3b3c160e21b81526001600160a01b0380841660048301529293506000929091169063ea8ecf049060240160206040518083038186803b158015611b9f57600080fd5b505afa158015611bb3573d6000803e3d6000fd5b505050506040513d601f19601f82011682018060405250810190611bd79190614f68565b60985460405163d90bc21160e01b81526001600160a01b0385811660048301529293506000929091169063d90bc2119060240160206040518083038186803b158015611c2257600080fd5b505afa158015611c36573d6000803e3d6000fd5b505050506040513d601f19601f82011682018060405250810190611c5a9190614da2565b609c549091506001600160401b0383811691161415611d8f57609854609c54609a546040516370a0823160e01b81526001600160a01b0391821660048201526000938216926313cb1f83928892600160401b909204811691908316906370a082319060240160206040518083038186803b158015611cd757600080fd5b505afa158015611ceb573d6000803e3d6000fd5b505050506040513d601f19601f82011682018060405250810190611d0f9190614da2565b866040518563ffffffff1660e01b8152600401611d2f9493929190615158565b60206040518083038186803b158015611d4757600080fd5b505afa158015611d5b573d6000803e3d6000fd5b505050506040513d601f19601f82011682018060405250810190611d7f9190614da2565b9050611d8b8188615428565b9650505b5050508080611d9d90615544565b915050611acf565b509092915050565b611db5612a3b565b6001600160a01b038116611ddb5760405162461bcd60e51b815260040161143190615217565b606580546001600160a01b0319166001600160a01b0392909216919091179055565b6040805160a0810182526001600160a01b03851660c0808301919091528251808303909101815260e08201835281526020808201859052825160008082529181018452909282019083611e72565b6040805180820190915260008082526020820152815260200190600190039081611e4b5790505b5081526020016001846001811115611e8c57611e8c615575565b14611e98576000611ea5565b6099546001600160a01b03165b6001600160a01b03168152602001611ed66040518060400160405280620dbba0815260200160001515815250613840565b9052600080546040516320487ded60e01b81529293509091620100009091046001600160a01b0316906320487ded90611f1590899086906004016152b2565b60206040518083038186803b158015611f2d57600080fd5b505afa158015611f41573d6000803e3d6000fd5b505050506040513d601f19601f82011682018060405250810190611f659190614da2565b905060006001846001811115611f7d57611f7d615575565b1415612013576000546040516396f4e9f960e01b8152620100009091046001600160a01b0316906396f4e9f990611fba908a9087906004016152b2565b602060405180830381600087803b158015611fd457600080fd5b505af1158015611fe8573d6000803e3d6000fd5b505050506040513d601f19601f8201168201806040525081019061200c9190614da2565b90506120a1565b6000546040516396f4e9f960e01b8152620100009091046001600160a01b0316906396f4e9f990849061204c908b9088906004016152b2565b6020604051808303818588803b15801561206557600080fd5b505af1158015612079573d6000803e3d6000fd5b50505050506040513d601f19601f8201168201806040525081019061209e9190614da2565b90505b6040518181527f54791b38f3859327992a1ca0590ad3c0f08feba98d1a4f56ab0dca74d203392a906020015b60405180910390a150505050505050565b6098546040516317f271b760e31b81526001600160a01b03868116600483015285811660248301526001600160801b038516604483015263ffffffff84166064830152600092169063bf938db89060840160206040518083038186803b15801561214757600080fd5b505afa15801561215b573d6000803e3d6000fd5b505050506040513d601f19601f82011682018060405250810190610a689190614da2565b6000670de0b6b3a764000061219261130e565b61219c9084615462565b6108a29190615440565b6121ae612a3b565b609880546001600160a01b0319166001600160a01b0392909216919091179055565b6121d8612a3b565b609d546000818152609e602090815260408083205460985482516311d3af8360e31b815292519194936001600160a01b0390911692638e9d7c189260048083019392829003018186803b15801561222e57600080fd5b505afa158015612242573d6000803e3d6000fd5b505050506040513d601f19601f820116820180604052508101906122669190614da2565b90506000609860009054906101000a90046001600160a01b03166001600160a01b031663b90b8a2a6040518163ffffffff1660e01b815260040160206040518083038186803b1580156122b857600080fd5b505afa1580156122cc573d6000803e3d6000fd5b505050506040513d601f19601f820116820180604052508101906122f09190614da2565b90506000609860009054906101000a90046001600160a01b03166001600160a01b031663f15817876040518163ffffffff1660e01b815260040160206040518083038186803b15801561234257600080fd5b505afa158015612356573d6000803e3d6000fd5b505050506040513d601f19601f8201168201806040525081019061237a9190614da2565b905060005b838110156119dc576098546040516395a7e2b360e01b815260048101849052602481018390526000916001600160a01b0316906395a7e2b39060440160206040518083038186803b1580156123d357600080fd5b505afa1580156123e7573d6000803e3d6000fd5b505050506040513d601f19601f8201168201806040525081019061240b9190614f68565b60985460405163b6ad185b60e01b81526001600160401b03831660048201529192506000916001600160a01b039091169063b6ad185b9060240160206040518083038186803b15801561245d57600080fd5b505afa158015612471573d6000803e3d6000fd5b505050506040513d601f19601f820116820180604052508101906124959190614da2565b609854604051637e34c5a560e11b81526001600160401b03851660048201529192506000916001600160a01b039091169063fc698b4a9060240160206040518083038186803b1580156124e757600080fd5b505afa1580156124fb573d6000803e3d6000fd5b505050506040513d601f19601f8201168201806040525081019061251f9190614da2565b6098546040516377b2688f60e01b8152600481018890526001600160401b03861660248201529192506000916001600160a01b03909116906377b2688f9060440160206040518083038186803b15801561257857600080fd5b505afa15801561258c573d6000803e3d6000fd5b505050506040513d601f19601f820116820180604052508101906125b09190614da2565b60008b815260a2602090815260408083206001600160401b03891680855292528083205460985491516302fc352760e61b815260048101939093529394506001600160a01b03169063bf0d49c09060240160006040518083038186803b15801561261957600080fd5b505afa15801561262d573d6000803e3d6000fd5b505050506040513d6000823e601f3d908101601f191682016040526126559190810190614d4c565b9050828b61266c8468056bc75e2d63100000615462565b6126769190615440565b10156126b457609c546001600160401b03878116911614156126a6576126a1878d8d8989898961388a565b6126b4565b6126b48c8c88868686613ed0565b50505050505080806126c590615544565b91505061237f565b600054610100900460ff16158080156126ed5750600054600160ff909116105b806127075750303b158015612707575060005460ff166001145b61276a5760405162461bcd60e51b815260206004820152602e60248201527f496e697469616c697a61626c653a20636f6e747261637420697320616c72656160448201526d191e481a5b9a5d1a585b1a5e995960921b6064820152608401611431565b6000805460ff19166001179055801561278d576000805461ff0019166101001790555b6127968361433a565b61279e6143b5565b609c805467ffffffffffffffff19166001600160401b038916179055609a80546001600160a01b03199081166001600160a01b038981169190911790925560988054909116878316179055609980548683166001600160b01b03199091168117600560a01b1790915560005460405163095ea7b360e01b815262010000909104909216600483015260001960248301529063095ea7b390604401602060405180830381600087803b15801561285257600080fd5b505af1158015612866573d6000803e3d6000fd5b505050506040513d601f19601f8201168201806040525081019061288a9190614d80565b50609c805468010000000000000000600160e01b031916600160401b6001600160a01b03851602179055609a805460ff60a01b1916600560a11b17905542609b55801561290d576000805461ff0019169055604051600181527f7f26b83ff96e1f2b6a682f133852f6798a09c465da95921460cefb3847402498906020016120cd565b50505050505050565b6001600160a01b03811661293c5760405162461bcd60e51b815260040161143190615217565b6065546001600160a01b038281169116146129b45760405162461bcd60e51b815260206004820152603260248201527f50726f706f7361626c654f776e61626c653a206e6577206f776e6572206973206044820152713737ba10383937b837b9b2b21037bbb732b960711b6064820152608401611431565b6001600160a01b0381163314612a325760405162461bcd60e51b815260206004820152603a60248201527f50726f706f7361626c654f776e61626c653a20746869732063616c6c206d757360448201527f74206265206d61646520627920746865206e6577206f776e65720000000000006064820152608401611431565b611a3c8161345d565b6033546001600160a01b031633146119f65760405162461bcd60e51b815260206004820181905260248201527f4f776e61626c653a2063616c6c6572206973206e6f7420746865206f776e65726044820152606401611431565b612ad06040518060a0016040528060006001600160a01b03168152602001600081526020016000815260200160008152602001600081525090565b600087815260a2602090815260408083206001600160401b0389168452909152808220546060840152609c54609a5491516370a0823160e01b81526001600160a01b039283166004820152600160401b909104909116906370a082319060240160206040518083038186803b158015612b4857600080fd5b505afa158015612b5c573d6000803e3d6000fd5b505050506040513d601f19601f82011682018060405250810190612b809190614da2565b905060005b85811015612e115760985460405163264cae9360e21b8152600481018390526001600160a01b0390911690639932ba4c9060240160206040518083038186803b158015612bd157600080fd5b505afa158015612be5573d6000803e3d6000fd5b505050506040513d601f19601f82011682018060405250810190612c099190614be1565b6001600160a01b0390811680855260985460405163d90bc21160e01b815260048101929092529091169063d90bc2119060240160206040518083038186803b158015612c5457600080fd5b505afa158015612c68573d6000803e3d6000fd5b505050506040513d601f19601f82011682018060405250810190612c8c9190614da2565b6020840152609854835160405162967c1760e71b81526001600160a01b039182166004820152911690634b3e0b809060240160206040518083038186803b158015612cd657600080fd5b505afa158015612cea573d6000803e3d6000fd5b505050506040513d601f19601f82011682018060405250810190612d0e9190614da2565b6040840152609c548351600091600160401b90046001600160a01b0390811691161415612d3c575081612de8565b8351609c54609a546040516370a0823160e01b81526001600160a01b039182166004820152612de59392600160401b90048216918316906370a082319060240160206040518083038186803b158015612d9457600080fd5b505afa158015612da8573d6000803e3d6000fd5b505050506040513d601f19601f82011682018060405250810190612dcc9190614da2565b609a5460208901516001600160a01b03909116906143e4565b90505b8084608001818151612dfa9190615428565b905250819050612e0981615544565b915050612b85565b50600087836060015168056bc75e2d63100000612e2e9190615462565b612e389190615440565b9050600081858560800151612e4d9190615462565b612e579190615440565b90506000818560800151612e6b9190615481565b905060005b878110156130925760985460405163239aad0d60e01b8152600481018390526000916001600160a01b03169063239aad0d9060240160206040518083038186803b158015612ebd57600080fd5b505afa158015612ed1573d6000803e3d6000fd5b505050506040513d601f19601f82011682018060405250810190612ef59190614be1565b60985460405163d90bc21160e01b81526001600160a01b0380841660048301529293506000929091169063d90bc2119060240160206040518083038186803b158015612f4057600080fd5b505afa158015612f54573d6000803e3d6000fd5b505050506040513d601f19601f82011682018060405250810190612f789190614da2565b60985460405162967c1760e71b81526001600160a01b03858116600483015292935060009290911690634b3e0b809060240160206040518083038186803b158015612fc257600080fd5b505afa158015612fd6573d6000803e3d6000fd5b505050506040513d601f19601f82011682018060405250810190612ffa9190614da2565b609c549091506000906001600160a01b03858116600160401b909204161415613039578a6130288389615462565b6130329190615440565b905061307b565b609c5461307890600160401b90046001600160a01b0316858d61305c868c615462565b6130669190615440565b609a546001600160a01b0316876143e4565b90505b50505050808061308a90615544565b915050612e70565b5060008b8152609f6020526040812080548392906130b1908490615428565b909155506130c190508684615481565b60008c815260a56020526040812080549091906130df908490615428565b9091555050505050505050505050505050565b6000856131088468056bc75e2d63100000615462565b6131129190615440565b905061311e8482615481565b600088815260a560205260408120805490919061313c908490615428565b909155506000905061314d866112d4565b60985460405163d1c68aa360e01b81526001600160401b03891660048201529192506000916001600160a01b039091169063d1c68aa39060240160006040518083038186803b15801561319f57600080fd5b505afa1580156131b3573d6000803e3d6000fd5b505050506040513d6000823e601f3d908101601f191682016040526131db9190810190614d10565b609854604051633414329f60e21b81526001600160401b038a1660048201529192506000916001600160a01b039091169063d050ca7c9060240160006040518083038186803b15801561322d57600080fd5b505afa158015613241573d6000803e3d6000fd5b505050506040513d6000823e601f3d908101601f191682016040526132699190810190614d10565b60985460405163221f337160e01b81526001600160401b038b1660048201529192506000916001600160a01b039091169063221f33719060240160006040518083038186803b1580156132bb57600080fd5b505afa1580156132cf573d6000803e3d6000fd5b505050506040513d6000823e601f3d908101601f191682016040526132f79190810190614d4c565b609854604051631435bff160e31b81526001600160401b038c1660048201529192506000916001600160a01b039091169063a1adff889060240160006040518083038186803b15801561334957600080fd5b505afa15801561335d573d6000803e3d6000fd5b505050506040513d6000823e601f3d908101601f191682016040526133859190810190614d4c565b60408051600280825260608201835292935060009290916020830190803683370190505090508b816000815181106133bf576133bf61558b565b60200260200101818152505089816001815181106133df576133df61558b565b60200260200101818152505088816002815181106133ff576133ff61558b565b6020026020010181815250506000600386868686609d548e8860405160200161342f989796959493929190615181565b604051602081830303815290604052905061344d8c88836001611dfd565b5050505050505050505050505050565b603380546001600160a01b038381166001600160a01b0319831681179093556040519116919082907f8be0079c531659141344cd1fd0a4f28419497f9722a3daafe3b4186f6b6457e090600090a35050565b80516020808301516040840151805191926000926134d39290810182019101614be1565b90506000609860009054906101000a90046001600160a01b03166001600160a01b03166353fd43326040518163ffffffff1660e01b815260040160206040518083038186803b15801561352557600080fd5b505afa158015613539573d6000803e3d6000fd5b505050506040513d601f19601f8201168201806040525081019061355d9190614da2565b90506000806000806000808a606001518060200190518101906135809190614e68565b955095509550955095509550856000141561359a57613833565b85600114156135a857613833565b85600214156137105760005b825181101561370a578281815181106135cf576135cf61558b565b6020026020010151609e600086815260200190815260200160002060008282546135f99190615428565b925050819055508281815181106136125761361261558b565b602002602001015160a1600086815260200190815260200160002060008884815181106136415761364161558b565b60200260200101516001600160a01b03166001600160a01b0316815260200190815260200160002060008282546136789190615428565b925050819055508281815181106136915761369161558b565b602090810291909101810151600086815260a2835260408082206001600160401b038f1683529093529182208054919290916136ce908490615428565b9091555050600084815260a0602052604081208054600192906136f2908490615428565b9091555081905061370281615544565b9150506135b4565b50613833565b85600314156137c15760008b6080015190506000816000815181106137375761373761558b565b602002602001015160000151905060008260008151811061375a5761375a61558b565b6020026020010151602001519050600061378d83609c60089054906101000a90046001600160a01b03168430600361093d565b905080609f600089815260200190815260200160002060008282546137b29190615428565b90915550613833945050505050565b856004141561383357609860009054906101000a90046001600160a01b03166001600160a01b0316638baa6bf16040518163ffffffff1660e01b8152600401600060405180830381600087803b15801561381a57600080fd5b505af115801561382e573d6000803e3d6000fd5b505050505b5050505050505050505050565b6040805182516024820152602092830151151560448083019190915282518083039091018152606490910190915290810180516001600160e01b03166397a657c960e01b17905290565b6138cc6040518060c0016040528060006001600160a01b0316815260200160008152602001600081526020016000815260200160008152602001600081525090565b60985460405163264cae9360e21b8152600481018a90526001600160a01b0390911690639932ba4c9060240160206040518083038186803b15801561391057600080fd5b505afa158015613924573d6000803e3d6000fd5b505050506040513d601f19601f820116820180604052508101906139489190614be1565b6001600160a01b0390811680835260985460405163d90bc21160e01b815260048101929092529091169063d90bc2119060240160206040518083038186803b15801561399357600080fd5b505afa1580156139a7573d6000803e3d6000fd5b505050506040513d601f19601f820116820180604052508101906139cb9190614da2565b6020820152609854815160405162967c1760e71b81526001600160a01b039182166004820152911690634b3e0b809060240160206040518083038186803b158015613a1557600080fd5b505afa158015613a29573d6000803e3d6000fd5b505050506040513d601f19601f82011682018060405250810190613a4d9190614da2565b604082810191909152600088815260a260209081528282206001600160401b038916835290528181205460608401528251609a5492516370a0823160e01b81526001600160a01b039384166004820152919216906370a082319060240160206040518083038186803b158015613ac257600080fd5b505afa158015613ad6573d6000803e3d6000fd5b505050506040513d601f19601f82011682018060405250810190613afa9190614da2565b905060005b85811015613c0c57609c5483516001600160a01b03908116600160401b909204161415613b325760a08301829052613be1565b8251609c54609a546040516370a0823160e01b81526001600160a01b039182166004820152613bdb9392600160401b90048216918316906370a082319060240160206040518083038186803b158015613b8a57600080fd5b505afa158015613b9e573d6000803e3d6000fd5b505050506040513d601f19601f82011682018060405250810190613bc29190614da2565b609a5460208801516001600160a01b03909116906143e4565b60a08401525b8260a0015183608001818151613bf79190615428565b90525080613c0481615544565b915050613aff565b50600087836060015168056bc75e2d63100000613c299190615462565b613c339190615440565b90506000613c418286615481565b60008b815260a56020908152604080832054609f9092528220549293509091613c6b908490615462565b613c759190615440565b90508085608001818151613c899190615428565b90525060005b87811015613ec15760985460405163264cae9360e21b8152600481018390526000916001600160a01b031690639932ba4c9060240160206040518083038186803b158015613cdc57600080fd5b505afa158015613cf0573d6000803e3d6000fd5b505050506040513d601f19601f82011682018060405250810190613d149190614be1565b60985460405163d90bc21160e01b81526001600160a01b0380841660048301529293506000929091169063d90bc2119060240160206040518083038186803b158015613d5f57600080fd5b505afa158015613d73573d6000803e3d6000fd5b505050506040513d601f19601f82011682018060405250810190613d979190614da2565b60985460405162967c1760e71b81526001600160a01b03858116600483015292935060009290911690634b3e0b809060240160206040518083038186803b158015613de157600080fd5b505afa158015613df5573d6000803e3d6000fd5b505050506040513d601f19601f82011682018060405250810190613e199190614da2565b609c549091506001600160a01b03848116600160401b909204161415613e5e5789818a60800151613e4a9190615462565b613e549190615440565b60a08a0152613eab565b613ea5609c60089054906101000a90046001600160a01b0316848c848d60800151613e899190615462565b613e939190615440565b609a546001600160a01b0316866143e4565b60a08a01525b5050508080613eb990615544565b915050613c8f565b50505050505050505050505050565b613f026040518060a0016040528060608152602001606081526020016060815260200160608152602001606081525090565b600086613f188568056bc75e2d63100000615462565b613f229190615440565b90506000613f308287615481565b60008a815260a56020908152604080832054609f9092528220549293509091613f5a908490615462565b613f649190615440565b90506000613f71896112d4565b90506000613fa0609c60089054906101000a90046001600160a01b0316613f978c610a71565b853060036143e4565b60985460405163d1c68aa360e01b81526001600160401b038d1660048201529192506001600160a01b03169063d1c68aa39060240160006040518083038186803b158015613fed57600080fd5b505afa158015614001573d6000803e3d6000fd5b505050506040513d6000823e601f3d908101601f191682016040526140299190810190614d10565b8652609854604051633414329f60e21b81526001600160401b038c1660048201526001600160a01b039091169063d050ca7c9060240160006040518083038186803b15801561407757600080fd5b505afa15801561408b573d6000803e3d6000fd5b505050506040513d6000823e601f3d908101601f191682016040526140b39190810190614d10565b602087015260985460405163221f337160e01b81526001600160401b038c1660048201526001600160a01b039091169063221f33719060240160006040518083038186803b15801561410457600080fd5b505afa158015614118573d6000803e3d6000fd5b505050506040513d6000823e601f3d908101601f191682016040526141409190810190614d4c565b6040878101919091526098549051631435bff160e31b81526001600160401b038c1660048201526001600160a01b039091169063a1adff889060240160006040518083038186803b15801561419457600080fd5b505afa1580156141a8573d6000803e3d6000fd5b505050506040513d6000823e601f3d908101601f191682016040526141d09190810190614d4c565b606087810191909152604080516002808252928101825291906020830190803683375050506080870181905280518c91906000906142105761421061558b565b6020026020010181815250508886608001516001815181106142345761423461558b565b6020908102919091010152604080516001808252818301909252600091816020015b60408051808201909152600080825260208201528152602001906001900390816142565790505090506142888b610a71565b8160008151811061429b5761429b61558b565b6020026020010151600001906001600160a01b031690816001600160a01b03168152505081816000815181106142d3576142d361558b565b6020026020010151602001818152505060006004886000015189602001518a604001518b60600151609d548e8e6080015160405160200161431b989796959493929190615181565b604051602081830303815290604052905061344d8c8286856001614533565b600054610100900460ff166143615760405162461bcd60e51b815260040161143190615267565b6001600160a01b03811661438b576040516335fdcccd60e21b815260006004820152602401611431565b600080546001600160a01b03909216620100000262010000600160b01b0319909216919091179055565b600054610100900460ff166143dc5760405162461bcd60e51b815260040161143190615267565b6119f6614999565b6098546040516313cb1f8360e01b815260009182916001600160a01b03909116906313cb1f839061441f908a908a908a908990600401615158565b60206040518083038186803b15801561443757600080fd5b505afa15801561444b573d6000803e3d6000fd5b505050506040513d601f19601f8201168201806040525081019061446f9190614da2565b90506000811561451957609a546040516305f370ed60e41b81526001600160a01b038a8116600483015289811660248301526044820189905287811660648301526084820187905290911690635f370ed09060a401602060405180830381600087803b1580156144de57600080fd5b505af11580156144f2573d6000803e3d6000fd5b505050506040513d601f19601f820116820180604052508101906145169190614da2565b90505b836003141561452b579150610a689050565b509050610a68565b8151609954600160a01b900461ffff168111156145b85760405162461bcd60e51b815260206004820152603760248201527f4d6178696d756d203520646966666572656e7420746f6b656e732063616e206260448201527f652073656e74207065722043434950204d6573736167650000000000000000006064820152608401611431565b60005b818110156146ed5760995484516001600160a01b03909116908590839081106145e6576145e661558b565b6020026020010151600001516001600160a01b0316146146e5578381815181106146125761461261558b565b6020026020010151600001516001600160a01b031663095ea7b3600060029054906101000a90046001600160a01b03168684815181106146545761465461558b565b6020026020010151602001516040518363ffffffff1660e01b81526004016146919291906001600160a01b03929092168252602082015260400190565b602060405180830381600087803b1580156146ab57600080fd5b505af11580156146bf573d6000803e3d6000fd5b505050506040513d601f19601f820116820180604052508101906146e39190614d80565b505b6001016145bb565b506040805160a081019091526001600160a01b03851660c08201526000908060e0810160408051601f19818403018152918152908252602082018990528101869052606001600185600181111561474657614746615575565b1461475257600061475f565b6099546001600160a01b03165b6001600160a01b031681526020016147906040518060400160405280620dbba0815260200160001515815250613840565b9052600080546040516320487ded60e01b81529293509091620100009091046001600160a01b0316906320487ded906147cf908b9086906004016152b2565b60206040518083038186803b1580156147e757600080fd5b505afa1580156147fb573d6000803e3d6000fd5b505050506040513d601f19601f8201168201806040525081019061481f9190614da2565b90506000600185600181111561483757614837615575565b14156148cd576000546040516396f4e9f960e01b8152620100009091046001600160a01b0316906396f4e9f990614874908c9087906004016152b2565b602060405180830381600087803b15801561488e57600080fd5b505af11580156148a2573d6000803e3d6000fd5b505050506040513d601f19601f820116820180604052508101906148c69190614da2565b905061495b565b6000546040516396f4e9f960e01b8152620100009091046001600160a01b0316906396f4e9f9908490614906908d9088906004016152b2565b6020604051808303818588803b15801561491f57600080fd5b505af1158015614933573d6000803e3d6000fd5b50505050506040513d601f19601f820116820180604052508101906149589190614da2565b90505b6040518181527f54791b38f3859327992a1ca0590ad3c0f08feba98d1a4f56ab0dca74d203392a9060200160405180910390a1505050505050505050565b600054610100900460ff166149c05760405162461bcd60e51b815260040161143190615267565b6119f63361345d565b600082601f8301126149da57600080fd5b815160206149ef6149ea83615405565b6153d5565b80838252828201915082860187848660051b8901011115614a0f57600080fd5b60005b85811015614a37578151614a25816155b7565b84529284019290840190600101614a12565b5090979650505050505050565b600082601f830112614a5557600080fd5b81356020614a656149ea83615405565b80838252828201915082860187848660061b8901011115614a8557600080fd5b6000805b86811015614ad057604080848c031215614aa1578283fd5b614aa961538b565b8435614ab4816155b7565b8152848801358882015286529486019490920191600101614a89565b509198975050505050505050565b600082601f830112614aef57600080fd5b81516020614aff6149ea83615405565b80838252828201915082860187848660051b8901011115614b1f57600080fd5b60005b85811015614a3757815184529284019290840190600101614b22565b600082601f830112614b4f57600080fd5b81356001600160401b03811115614b6857614b686155a1565b614b7b601f8201601f19166020016153d5565b818152846020838601011115614b9057600080fd5b816020850160208301376000918101602001919091529392505050565b8035614bb8816155cc565b919050565b600060208284031215614bcf57600080fd5b8135614bda816155b7565b9392505050565b600060208284031215614bf357600080fd5b8151614bda816155b7565b60008060008060808587031215614c1457600080fd5b8435614c1f816155b7565b93506020850135614c2f816155b7565b925060408501356001600160801b0381168114614c4b57600080fd5b9150606085013563ffffffff81168114614c6457600080fd5b939692955090935050565b600080600080600060a08688031215614c8757600080fd5b8535614c92816155b7565b94506020860135614ca2816155b7565b9350604086013592506060860135614cb9816155b7565b949793965091946080013592915050565b60008060008060808587031215614ce057600080fd5b8435614ceb816155b7565b93506020850135614cfb816155b7565b93969395505050506040820135916060013590565b600060208284031215614d2257600080fd5b81516001600160401b03811115614d3857600080fd5b614d44848285016149c9565b949350505050565b600060208284031215614d5e57600080fd5b81516001600160401b03811115614d7457600080fd5b614d4484828501614ade565b600060208284031215614d9257600080fd5b81518015158114614bda57600080fd5b600060208284031215614db457600080fd5b5051919050565b600060208284031215614dcd57600080fd5b81356001600160e01b031981168114614bda57600080fd5b600060208284031215614df757600080fd5b81356001600160401b03811115614e0d57600080fd5b820160a08185031215614bda57600080fd5b600060208284031215614e3157600080fd5b5035919050565b60008060408385031215614e4b57600080fd5b823591506020830135614e5d816155b7565b809150509250929050565b60008060008060008060c08789031215614e8157600080fd5b8651955060208701516001600160401b0380821115614e9f57600080fd5b614eab8a838b016149c9565b96506040890151915080821115614ec157600080fd5b614ecd8a838b016149c9565b9550606089015194506080890151915080821115614eea57600080fd5b614ef68a838b01614ade565b935060a0890151915080821115614f0c57600080fd5b50614f1989828a01614ade565b9150509295509295509295565b60008060408385031215614f3957600080fd5b823591506020830135614e5d816155cc565b600060208284031215614f5d57600080fd5b8135614bda816155cc565b600060208284031215614f7a57600080fd5b8151614bda816155cc565b60008060008060008060c08789031215614f9e57600080fd5b8635614fa9816155cc565b95506020870135614fb9816155b7565b94506040870135614fc9816155b7565b93506060870135614fd9816155b7565b92506080870135614fe9816155b7565b915060a0870135614ff9816155b7565b809150509295509295509295565b6000806000806080858703121561501d57600080fd5b8435615028816155cc565b93506020850135615038816155b7565b925060408501356001600160401b0381111561505357600080fd5b61505f87828801614b3e565b925050606085013560028110614c6457600080fd5b60006020828403121561508657600080fd5b813560ff81168114614bda57600080fd5b600081518084526020808501945080840160005b838110156150d05781516001600160a01b0316875295820195908201906001016150ab565b509495945050505050565b600081518084526020808501945080840160005b838110156150d0578151875295820195908201906001016150ef565b6000815180845260005b8181101561513157602081850181015186830182015201615115565b81811115615143576000602083870101525b50601f01601f19169290920160200192915050565b6001600160a01b0394851681529290931660208301526040820152606081019190915260800190565b600061010060ff8b16835280602084015261519e8184018b615097565b905082810360408401526151b2818a615097565b905082810360608401526151c681896150db565b905082810360808401526151da81886150db565b90508560a084015282810360c08401526151f481866150db565b905082810360e084015261520881856150db565b9b9a5050505050505050505050565b60208082526030908201527f50726f706f7361626c654f776e61626c653a206e6577206f776e65722069732060408201526f746865207a65726f206164647265737360801b606082015260800190565b6020808252602b908201527f496e697469616c697a61626c653a20636f6e7472616374206973206e6f74206960408201526a6e697469616c697a696e6760a81b606082015260800190565b600060406001600160401b038516835260208181850152845160a0838601526152de60e086018261510b565b905081860151603f19808784030160608801526152fb838361510b565b88860151888203830160808a01528051808352908601945060009350908501905b8084101561534e57845180516001600160a01b031683528601518683015293850193600193909301929086019061531c565b5060608901516001600160a01b031660a08901526080890151888203830160c08a0152955061537d818761510b565b9a9950505050505050505050565b604080519081016001600160401b03811182821017156153ad576153ad6155a1565b60405290565b60405160a081016001600160401b03811182821017156153ad576153ad6155a1565b604051601f8201601f191681016001600160401b03811182821017156153fd576153fd6155a1565b604052919050565b60006001600160401b0382111561541e5761541e6155a1565b5060051b60200190565b6000821982111561543b5761543b61555f565b500190565b60008261545d57634e487b7160e01b600052601260045260246000fd5b500490565b600081600019048311821515161561547c5761547c61555f565b500290565b6000828210156154935761549361555f565b500390565b600060a082360312156154aa57600080fd5b6154b26153b3565b823581526154c260208401614bad565b602082015260408301356001600160401b03808211156154e157600080fd5b6154ed36838701614b3e565b6040840152606085013591508082111561550657600080fd5b61551236838701614b3e565b6060840152608085013591508082111561552b57600080fd5b5061553836828601614a44565b60808301525092915050565b60006000198214156155585761555861555f565b5060010190565b634e487b7160e01b600052601160045260246000fd5b634e487b7160e01b600052602160045260246000fd5b634e487b7160e01b600052603260045260246000fd5b634e487b7160e01b600052604160045260246000fd5b6001600160a01b0381168114611a3c57600080fd5b6001600160401b0381168114611a3c57600080fdfea26469706673582212203889dd421755e8c33532e64a511d25a6b1348e069080cdf5cbc1d8404f3bfd0664736f6c63430008070033",
    "linkReferences": {}
  },
  "methodIdentifiers": {
    "askValues()": "2700cc86",
    "ccipReceive((bytes32,uint64,bytes,bytes,(address,uint256)[]))": "85572ffb",
    "chainValueByNonce(uint256,uint64)": "69abf538",
    "convertEthToUsd(uint256)": "c086381e",
    "crossChainFactoryBySelector(uint64)": "340fbc74",
    "crossChainToken(uint64)": "19da7e2a",
    "currentChainSelector()": "3d54cb6f",
    "estimateAmountOut(address,address,uint128,uint32)": "bf938db8",
    "extraWethByNonce(uint256)": "756c1fd1",
    "feeRate()": "978bbdb9",
    "firstReweightAction()": "63713a8b",
    "getAmountOut(address,address,uint256,uint256)": "13cb1f83",
    "getPortfolioBalance()": "a8509fd8",
    "getRouter()": "b0f479a1",
    "i_link()": "7d253aff",
    "i_maxTokensLength()": "5b6a0351",
    "indexFactoryStorage()": "d1f7a991",
    "indexToken()": "e7d015f2",
    "initialize(uint64,address,address,address,address,address)": "edba0e31",
    "latestFeeUpdate()": "011ced5f",
    "owner()": "8da5cb5b",
    "portfolioTotalValueByNonce(uint256)": "7d3546f7",
    "priceInWei()": "3c8da588",
    "proposeOwner(address)": "b5ed298a",
    "proposedOwner()": "d153b60c",
    "redemptionNonceOutputToken(uint256)": "0603fb05",
    "redemptionNonceOutputTokenSwapVersion(uint256)": "72bc260c",
    "renounceOwnership()": "715018a6",
    "reweightExtraPercentage(uint256)": "814ffd71",
    "reweightTokensCount(uint256)": "78324463",
    "reweightWethValueByNonce(uint256)": "f1639b09",
    "secondReweightAction()": "d79e8d65",
    "sendMessage(uint64,address,bytes,uint8)": "bcab90b3",
    "setFeeRate(uint8)": "5177942a",
    "setIndexFactoryStorage(address)": "cc8659ae",
    "supportsInterface(bytes4)": "01ffc9a7",
    "swap(address,address,uint256,address,uint256)": "17d88f46",
    "tokenValueByNonce(uint256,address)": "b316e7fd",
    "transferOwnership(address)": "f2fde38b",
    "updatePortfolioNonce()": "003cf402",
    "updatedTokensValueCount(uint256)": "c070a097",
    "weth()": "3fc8cef3"
  },
  "id": 4
}