{"abi":[{"type":"receive","stateMutability":"payable"},{"type":"function","name":"askValues","inputs":[],"outputs":[],"stateMutability":"nonpayable"},{"type":"function","name":"ccipReceive","inputs":[{"name":"message","type":"tuple","internalType":"struct Client.Any2EVMMessage","components":[{"name":"messageId","type":"bytes32","internalType":"bytes32"},{"name":"sourceChainSelector","type":"uint64","internalType":"uint64"},{"name":"sender","type":"bytes","internalType":"bytes"},{"name":"data","type":"bytes","internalType":"bytes"},{"name":"destTokenAmounts","type":"tuple[]","internalType":"struct Client.EVMTokenAmount[]","components":[{"name":"token","type":"address","internalType":"address"},{"name":"amount","type":"uint256","internalType":"uint256"}]}]}],"outputs":[],"stateMutability":"nonpayable"},{"type":"function","name":"chainValueByNonce","inputs":[{"name":"","type":"uint256","internalType":"uint256"},{"name":"","type":"uint64","internalType":"uint64"}],"outputs":[{"name":"","type":"uint256","internalType":"uint256"}],"stateMutability":"view"},{"type":"function","name":"convertEthToUsd","inputs":[{"name":"_ethAmount","type":"uint256","internalType":"uint256"}],"outputs":[{"name":"","type":"uint256","internalType":"uint256"}],"stateMutability":"view"},{"type":"function","name":"crossChainFactoryBySelector","inputs":[{"name":"_chainSelector","type":"uint64","internalType":"uint64"}],"outputs":[{"name":"","type":"address","internalType":"address"}],"stateMutability":"view"},{"type":"function","name":"crossChainToken","inputs":[{"name":"_chainSelector","type":"uint64","internalType":"uint64"}],"outputs":[{"name":"","type":"address","internalType":"address"}],"stateMutability":"view"},{"type":"function","name":"currentChainSelector","inputs":[],"outputs":[{"name":"","type":"uint64","internalType":"uint64"}],"stateMutability":"view"},{"type":"function","name":"estimateAmountOut","inputs":[{"name":"tokenIn","type":"address","internalType":"address"},{"name":"tokenOut","type":"address","internalType":"address"},{"name":"amountIn","type":"uint128","internalType":"uint128"},{"name":"fee","type":"uint24","internalType":"uint24"}],"outputs":[{"name":"amountOut","type":"uint256","internalType":"uint256"}],"stateMutability":"view"},{"type":"function","name":"extraWethByNonce","inputs":[{"name":"","type":"uint256","internalType":"uint256"}],"outputs":[{"name":"","type":"uint256","internalType":"uint256"}],"stateMutability":"view"},{"type":"function","name":"factoryStorage","inputs":[],"outputs":[{"name":"","type":"address","internalType":"contract IndexFactoryStorage"}],"stateMutability":"view"},{"type":"function","name":"feeRate","inputs":[],"outputs":[{"name":"","type":"uint8","internalType":"uint8"}],"stateMutability":"view"},{"type":"function","name":"firstReweightAction","inputs":[],"outputs":[],"stateMutability":"nonpayable"},{"type":"function","name":"getAmountOut","inputs":[{"name":"tokenIn","type":"address","internalType":"address"},{"name":"tokenOut","type":"address","internalType":"address"},{"name":"amountIn","type":"uint256","internalType":"uint256"},{"name":"_swapFee","type":"uint24","internalType":"uint24"}],"outputs":[{"name":"finalAmountOut","type":"uint256","internalType":"uint256"}],"stateMutability":"view"},{"type":"function","name":"getPortfolioBalance","inputs":[],"outputs":[{"name":"","type":"uint256","internalType":"uint256"}],"stateMutability":"view"},{"type":"function","name":"getRouter","inputs":[],"outputs":[{"name":"","type":"address","internalType":"address"}],"stateMutability":"view"},{"type":"function","name":"i_link","inputs":[],"outputs":[{"name":"","type":"address","internalType":"address"}],"stateMutability":"view"},{"type":"function","name":"i_maxTokensLength","inputs":[],"outputs":[{"name":"","type":"uint16","internalType":"uint16"}],"stateMutability":"view"},{"type":"function","name":"initialize","inputs":[{"name":"_currentChainSelector","type":"uint64","internalType":"uint64"},{"name":"_factoryStorage","type":"address","internalType":"address"},{"name":"_chainlinkToken","type":"address","internalType":"address"},{"name":"_router","type":"address","internalType":"address"},{"name":"_weth","type":"address","internalType":"address"}],"outputs":[],"stateMutability":"nonpayable"},{"type":"function","name":"latestFeeUpdate","inputs":[],"outputs":[{"name":"","type":"uint256","internalType":"uint256"}],"stateMutability":"view"},{"type":"function","name":"owner","inputs":[],"outputs":[{"name":"","type":"address","internalType":"address"}],"stateMutability":"view"},{"type":"function","name":"portfolioTotalValueByNonce","inputs":[{"name":"","type":"uint256","internalType":"uint256"}],"outputs":[{"name":"","type":"uint256","internalType":"uint256"}],"stateMutability":"view"},{"type":"function","name":"priceInWei","inputs":[],"outputs":[{"name":"","type":"uint256","internalType":"uint256"}],"stateMutability":"view"},{"type":"function","name":"proposeOwner","inputs":[{"name":"_proposedOwner","type":"address","internalType":"address"}],"outputs":[],"stateMutability":"nonpayable"},{"type":"function","name":"proposedOwner","inputs":[],"outputs":[{"name":"","type":"address","internalType":"address"}],"stateMutability":"view"},{"type":"function","name":"redemptionNonceOutputToken","inputs":[{"name":"","type":"uint256","internalType":"uint256"}],"outputs":[{"name":"","type":"address","internalType":"address"}],"stateMutability":"view"},{"type":"function","name":"redemptionNonceOutputTokenSwapFee","inputs":[{"name":"","type":"uint256","internalType":"uint256"}],"outputs":[{"name":"","type":"uint256","internalType":"uint256"}],"stateMutability":"view"},{"type":"function","name":"renounceOwnership","inputs":[],"outputs":[],"stateMutability":"nonpayable"},{"type":"function","name":"reweightExtraPercentage","inputs":[{"name":"","type":"uint256","internalType":"uint256"}],"outputs":[{"name":"","type":"uint256","internalType":"uint256"}],"stateMutability":"view"},{"type":"function","name":"reweightTokensCount","inputs":[{"name":"","type":"uint256","internalType":"uint256"}],"outputs":[{"name":"","type":"uint256","internalType":"uint256"}],"stateMutability":"view"},{"type":"function","name":"reweightWethValueByNonce","inputs":[{"name":"","type":"uint256","internalType":"uint256"}],"outputs":[{"name":"","type":"uint256","internalType":"uint256"}],"stateMutability":"view"},{"type":"function","name":"secondReweightAction","inputs":[],"outputs":[],"stateMutability":"nonpayable"},{"type":"function","name":"sendMessage","inputs":[{"name":"destinationChainSelector","type":"uint64","internalType":"uint64"},{"name":"receiver","type":"address","internalType":"address"},{"name":"_data","type":"bytes","internalType":"bytes"},{"name":"payFeesIn","type":"uint8","internalType":"enum MessageSender.PayFeesIn"}],"outputs":[{"name":"","type":"bytes32","internalType":"bytes32"}],"stateMutability":"nonpayable"},{"type":"function","name":"setFeeRate","inputs":[{"name":"_newFee","type":"uint8","internalType":"uint8"}],"outputs":[],"stateMutability":"nonpayable"},{"type":"function","name":"setIndexFactoryStorage","inputs":[{"name":"_factoryStorage","type":"address","internalType":"address"}],"outputs":[],"stateMutability":"nonpayable"},{"type":"function","name":"supportsInterface","inputs":[{"name":"interfaceId","type":"bytes4","internalType":"bytes4"}],"outputs":[{"name":"","type":"bool","internalType":"bool"}],"stateMutability":"pure"},{"type":"function","name":"swap","inputs":[{"name":"tokenIn","type":"address","internalType":"address"},{"name":"tokenOut","type":"address","internalType":"address"},{"name":"amountIn","type":"uint256","internalType":"uint256"},{"name":"_recipient","type":"address","internalType":"address"},{"name":"_swapFee","type":"uint24","internalType":"uint24"}],"outputs":[{"name":"outputAmount","type":"uint256","internalType":"uint256"}],"stateMutability":"nonpayable"},{"type":"function","name":"tokenValueByNonce","inputs":[{"name":"","type":"uint256","internalType":"uint256"},{"name":"","type":"address","internalType":"address"}],"outputs":[{"name":"","type":"uint256","internalType":"uint256"}],"stateMutability":"view"},{"type":"function","name":"transferOwnership","inputs":[{"name":"newOwner","type":"address","internalType":"address"}],"outputs":[],"stateMutability":"nonpayable"},{"type":"function","name":"updatePortfolioNonce","inputs":[],"outputs":[{"name":"","type":"uint256","internalType":"uint256"}],"stateMutability":"view"},{"type":"function","name":"updatedTokensValueCount","inputs":[{"name":"","type":"uint256","internalType":"uint256"}],"outputs":[{"name":"","type":"uint256","internalType":"uint256"}],"stateMutability":"view"},{"type":"function","name":"weth","inputs":[],"outputs":[{"name":"","type":"address","internalType":"contract IWETH"}],"stateMutability":"view"},{"type":"event","name":"Initialized","inputs":[{"name":"version","type":"uint8","indexed":false,"internalType":"uint8"}],"anonymous":false},{"type":"event","name":"MessageSent","inputs":[{"name":"messageId","type":"bytes32","indexed":false,"internalType":"bytes32"}],"anonymous":false},{"type":"event","name":"OwnershipTransferred","inputs":[{"name":"previousOwner","type":"address","indexed":true,"internalType":"address"},{"name":"newOwner","type":"address","indexed":true,"internalType":"address"}],"anonymous":false},{"type":"error","name":"InvalidRouter","inputs":[{"name":"router","type":"address","internalType":"address"}]}],"bytecode":{"object":"0x6080604052348015600e575f80fd5b506198718061001c5f395ff3fe608060405260043610610248575f3560e01c80637e79f51211610138578063bcab90b3116100b5578063d153b60c11610079578063d153b60c146108d9578063d79e8d6514610903578063dd811ac914610919578063ee7bd3e214610955578063f1639b0914610991578063f2fde38b146109cd5761024f565b8063bcab90b3146107d3578063c06e1ae21461080f578063c070a09714610839578063c086381e14610875578063cc8659ae146108b15761024f565b8063a8509fd8116100fc578063a8509fd8146106df578063afcaa95214610709578063b0f479a114610745578063b316e7fd1461076f578063b5ed298a146107ab5761024f565b80637e79f512146105eb578063814ffd711461062757806385572ffb146106635780638da5cb5b1461068b578063978bbdb9146106b55761024f565b80633fc8cef3116101c6578063715018a61161018a578063715018a6146104f7578063756c1fd11461050d57806378324463146105495780637d253aff146105855780637d3546f7146105af5761024f565b80633fc8cef3146104295780635177942a146104535780635b6a03511461047b57806363713a8b146104a557806369abf538146104bb5761024f565b806319da7e2a1161020d57806319da7e2a146103475780632700cc8614610383578063340fbc74146103995780633c8da588146103d55780633d54cb6f146103ff5761024f565b80623cf40214610253578063011ced5f1461027d57806301ffc9a7146102a75780630603fb05146102e357806316b487ff1461031f5761024f565b3661024f57005b5f80fd5b34801561025e575f80fd5b506102676109f5565b6040516102749190616d5e565b60405180910390f35b348015610288575f80fd5b506102916109fb565b60405161029e9190616d5e565b60405180910390f35b3480156102b2575f80fd5b506102cd60048036038101906102c89190616ddd565b610a01565b6040516102da9190616e22565b60405180910390f35b3480156102ee575f80fd5b5061030960048036038101906103049190616e65565b610ad2565b6040516103169190616ecf565b60405180910390f35b34801561032a575f80fd5b5061034560048036038101906103409190616f4f565b610b02565b005b348015610352575f80fd5b5061036d60048036038101906103689190616fc6565b611033565b60405161037a9190616ecf565b60405180910390f35b34801561038e575f80fd5b506103976110d4565b005b3480156103a4575f80fd5b506103bf60048036038101906103ba9190616fc6565b6113db565b6040516103cc9190616ecf565b60405180910390f35b3480156103e0575f80fd5b506103e961147c565b6040516103f69190616d5e565b60405180910390f35b34801561040a575f80fd5b50610413611510565b6040516104209190617000565b60405180910390f35b348015610434575f80fd5b5061043d611529565b60405161044a9190617074565b60405180910390f35b34801561045e575f80fd5b50610479600480360381019061047491906170c3565b61154f565b005b348015610486575f80fd5b5061048f61163f565b60405161049c919061710a565b60405180910390f35b3480156104b0575f80fd5b506104b9611653565b005b3480156104c6575f80fd5b506104e160048036038101906104dc9190617123565b611cd7565b6040516104ee9190616d5e565b60405180910390f35b348015610502575f80fd5b5061050b611cf7565b005b348015610518575f80fd5b50610533600480360381019061052e9190616e65565b611d0a565b6040516105409190616d5e565b60405180910390f35b348015610554575f80fd5b5061056f600480360381019061056a9190616e65565b611d1f565b60405161057c9190616d5e565b60405180910390f35b348015610590575f80fd5b50610599611d34565b6040516105a69190616ecf565b60405180910390f35b3480156105ba575f80fd5b506105d560048036038101906105d09190616e65565b611d59565b6040516105e29190616d5e565b60405180910390f35b3480156105f6575f80fd5b50610611600480360381019061060c9190617199565b611d6e565b60405161061e9190616d5e565b60405180910390f35b348015610632575f80fd5b5061064d60048036038101906106489190616e65565b612039565b60405161065a9190616d5e565b60405180910390f35b34801561066e575f80fd5b5061068960048036038101906106849190617232565b61204e565b005b348015610696575f80fd5b5061069f6120f4565b6040516106ac9190616ecf565b60405180910390f35b3480156106c0575f80fd5b506106c961211c565b6040516106d69190617288565b60405180910390f35b3480156106ea575f80fd5b506106f361212f565b6040516107009190616d5e565b60405180910390f35b348015610714575f80fd5b5061072f600480360381019061072a9190616e65565b6125c6565b60405161073c9190616d5e565b60405180910390f35b348015610750575f80fd5b506107596125db565b6040516107669190616ecf565b60405180910390f35b34801561077a575f80fd5b50610795600480360381019061079091906172a1565b612603565b6040516107a29190616d5e565b60405180910390f35b3480156107b6575f80fd5b506107d160048036038101906107cc91906172df565b612623565b005b3480156107de575f80fd5b506107f960048036038101906107f49190617469565b6126dc565b6040516108069190617501565b60405180910390f35b34801561081a575f80fd5b50610823612834565b604051610830919061753a565b60405180910390f35b348015610844575f80fd5b5061085f600480360381019061085a9190616e65565b612859565b60405161086c9190616d5e565b60405180910390f35b348015610880575f80fd5b5061089b60048036038101906108969190616e65565b61286e565b6040516108a89190616d5e565b60405180910390f35b3480156108bc575f80fd5b506108d760048036038101906108d291906172df565b61289c565b005b3480156108e4575f80fd5b506108ed6128e7565b6040516108fa9190616ecf565b60405180910390f35b34801561090e575f80fd5b5061091761290c565b005b348015610924575f80fd5b5061093f600480360381019061093a9190617553565b612f82565b60405161094c9190616d5e565b60405180910390f35b348015610960575f80fd5b5061097b600480360381019061097691906175fc565b61302c565b6040516109889190616d5e565b60405180910390f35b34801561099c575f80fd5b506109b760048036038101906109b29190616e65565b6130d6565b6040516109c49190616d5e565b60405180910390f35b3480156109d8575f80fd5b506109f360048036038101906109ee91906172df565b6130eb565b005b609c5481565b609a5481565b5f7f85572ffb000000000000000000000000000000000000000000000000000000007bffffffffffffffffffffffffffffffffffffffffffffffffffffffff1916827bffffffffffffffffffffffffffffffffffffffffffffffffffffffff19161480610acb57507f01ffc9a7000000000000000000000000000000000000000000000000000000007bffffffffffffffffffffffffffffffffffffffffffffffffffffffff1916827bffffffffffffffffffffffffffffffffffffffffffffffffffffffff1916145b9050919050565b60a5602052805f5260405f205f915054906101000a900473ffffffffffffffffffffffffffffffffffffffff1681565b5f8060019054906101000a900460ff16159050808015610b31575060015f8054906101000a900460ff1660ff16105b80610b5d5750610b4030613262565b158015610b5c575060015f8054906101000a900460ff1660ff16145b5b610b9c576040517f08c379a0000000000000000000000000000000000000000000000000000000008152600401610b93906176e0565b60405180910390fd5b60015f806101000a81548160ff021916908360ff1602179055508015610bd75760015f60016101000a81548160ff0219169083151502179055505b5f8667ffffffffffffffff1611610c23576040517f08c379a0000000000000000000000000000000000000000000000000000000008152600401610c1a90617748565b60405180910390fd5b5f73ffffffffffffffffffffffffffffffffffffffff168573ffffffffffffffffffffffffffffffffffffffff1603610c91576040517f08c379a0000000000000000000000000000000000000000000000000000000008152600401610c88906177b0565b60405180910390fd5b5f73ffffffffffffffffffffffffffffffffffffffff168473ffffffffffffffffffffffffffffffffffffffff1603610cff576040517f08c379a0000000000000000000000000000000000000000000000000000000008152600401610cf690617818565b60405180910390fd5b5f73ffffffffffffffffffffffffffffffffffffffff168373ffffffffffffffffffffffffffffffffffffffff1603610d6d576040517f08c379a0000000000000000000000000000000000000000000000000000000008152600401610d6490617880565b60405180910390fd5b5f73ffffffffffffffffffffffffffffffffffffffff168273ffffffffffffffffffffffffffffffffffffffff1603610ddb576040517f08c379a0000000000000000000000000000000000000000000000000000000008152600401610dd2906178e8565b60405180910390fd5b610de483613284565b610dec613385565b85609b5f6101000a81548167ffffffffffffffff021916908367ffffffffffffffff1602179055508460985f6101000a81548173ffffffffffffffffffffffffffffffffffffffff021916908373ffffffffffffffffffffffffffffffffffffffff1602179055508360995f6101000a81548173ffffffffffffffffffffffffffffffffffffffff021916908373ffffffffffffffffffffffffffffffffffffffff1602179055506005609960146101000a81548161ffff021916908361ffff1602179055508373ffffffffffffffffffffffffffffffffffffffff1663095ea7b35f60029054906101000a900473ffffffffffffffffffffffffffffffffffffffff167fffffffffffffffffffffffffffffffffffffffffffffffffffffffffffffffff6040518363ffffffff1660e01b8152600401610f2e929190617906565b6020604051808303815f875af1158015610f4a573d5f803e3d5ffd5b505050506040513d601f19601f82011682018060405250810190610f6e9190617957565b5081609b60086101000a81548173ffffffffffffffffffffffffffffffffffffffff021916908373ffffffffffffffffffffffffffffffffffffffff160217905550600a609960166101000a81548160ff021916908360ff16021790555042609a81905550801561102b575f8060016101000a81548160ff0219169083151502179055507f7f26b83ff96e1f2b6a682f133852f6798a09c465da95921460cefb3847402498600160405161102291906179bb565b60405180910390a15b505050505050565b5f60985f9054906101000a900473ffffffffffffffffffffffffffffffffffffffff1673ffffffffffffffffffffffffffffffffffffffff166319da7e2a836040518263ffffffff1660e01b815260040161108e9190617000565b602060405180830381865afa1580156110a9573d5f803e3d5ffd5b505050506040513d601f19601f820116820180604052508101906110cd91906179e8565b9050919050565b6110dc6133dd565b6001609c5f8282546110ee9190617a40565b925050819055505f60985f9054906101000a900473ffffffffffffffffffffffffffffffffffffffff1673ffffffffffffffffffffffffffffffffffffffff166369487b1c6040518163ffffffff1660e01b8152600401602060405180830381865afa158015611160573d5f803e3d5ffd5b505050506040513d601f19601f820116820180604052508101906111849190617a87565b90505f60985f9054906101000a900473ffffffffffffffffffffffffffffffffffffffff1673ffffffffffffffffffffffffffffffffffffffff1663b90b8a2a6040518163ffffffff1660e01b8152600401602060405180830381865afa1580156111f1573d5f803e3d5ffd5b505050506040513d601f19601f820116820180604052508101906112159190617a87565b90505f5b828110156113d6575f60985f9054906101000a900473ffffffffffffffffffffffffffffffffffffffff1673ffffffffffffffffffffffffffffffffffffffff1663d3f7f266846040518263ffffffff1660e01b815260040161127c9190616d5e565b5f60405180830381865afa158015611296573d5f803e3d5ffd5b505050506040513d5f823e3d601f19601f820116820180604052508101906112be9190617dde565b93505050505f8183815181106112d7576112d6617eb2565b5b602002602001015190505f60985f9054906101000a900473ffffffffffffffffffffffffffffffffffffffff1673ffffffffffffffffffffffffffffffffffffffff1663b6ad185b836040518263ffffffff1660e01b815260040161133c9190617000565b602060405180830381865afa158015611357573d5f803e3d5ffd5b505050506040513d601f19601f8201168201806040525081019061137b9190617a87565b9050609b5f9054906101000a900467ffffffffffffffff1667ffffffffffffffff168267ffffffffffffffff16036113bc576113b7828261345b565b6113c6565b6113c582613913565b5b5050508080600101915050611219565b505050565b5f60985f9054906101000a900473ffffffffffffffffffffffffffffffffffffffff1673ffffffffffffffffffffffffffffffffffffffff1663340fbc74836040518263ffffffff1660e01b81526004016114369190617000565b602060405180830381865afa158015611451573d5f803e3d5ffd5b505050506040513d601f19601f8201168201806040525081019061147591906179e8565b9050919050565b5f60985f9054906101000a900473ffffffffffffffffffffffffffffffffffffffff1673ffffffffffffffffffffffffffffffffffffffff16633c8da5886040518163ffffffff1660e01b8152600401602060405180830381865afa1580156114e7573d5f803e3d5ffd5b505050506040513d601f19601f8201168201806040525081019061150b9190617a87565b905090565b609b5f9054906101000a900467ffffffffffffffff1681565b609b60089054906101000a900473ffffffffffffffffffffffffffffffffffffffff1681565b6115576133dd565b5f609a54426115669190617edf565b9050600c603c80836115789190617f3f565b6115829190617f3f565b116115c2576040517f08c379a00000000000000000000000000000000000000000000000000000000081526004016115b990617fdf565b60405180910390fd5b60648260ff16111580156115da575060018260ff1610155b611619576040517f08c379a00000000000000000000000000000000000000000000000000000000081526004016116109061806d565b60405180910390fd5b81609960166101000a81548160ff021916908360ff16021790555042609a819055505050565b609960149054906101000a900461ffff1681565b61165b6133dd565b5f609c5490505f609d5f8381526020019081526020015f205490505f60985f9054906101000a900473ffffffffffffffffffffffffffffffffffffffff1673ffffffffffffffffffffffffffffffffffffffff166369487b1c6040518163ffffffff1660e01b8152600401602060405180830381865afa1580156116e1573d5f803e3d5ffd5b505050506040513d601f19601f820116820180604052508101906117059190617a87565b90505f60985f9054906101000a900473ffffffffffffffffffffffffffffffffffffffff1673ffffffffffffffffffffffffffffffffffffffff1663b90b8a2a6040518163ffffffff1660e01b8152600401602060405180830381865afa158015611772573d5f803e3d5ffd5b505050506040513d601f19601f820116820180604052508101906117969190617a87565b90505f60985f9054906101000a900473ffffffffffffffffffffffffffffffffffffffff1673ffffffffffffffffffffffffffffffffffffffff1663f15817876040518163ffffffff1660e01b8152600401602060405180830381865afa158015611803573d5f803e3d5ffd5b505050506040513d601f19601f820116820180604052508101906118279190617a87565b90505f60985f9054906101000a900473ffffffffffffffffffffffffffffffffffffffff1673ffffffffffffffffffffffffffffffffffffffff1663d3f7f266846040518263ffffffff1660e01b81526004016118849190616d5e565b5f60405180830381865afa15801561189e573d5f803e3d5ffd5b505050506040513d5f823e3d601f19601f820116820180604052508101906118c69190617dde565b93505050505f5b84811015611cce575f8282815181106118e9576118e8617eb2565b5b602002602001015190505f60985f9054906101000a900473ffffffffffffffffffffffffffffffffffffffff1673ffffffffffffffffffffffffffffffffffffffff1663b6ad185b836040518263ffffffff1660e01b815260040161194e9190617000565b602060405180830381865afa158015611969573d5f803e3d5ffd5b505050506040513d601f19601f8201168201806040525081019061198d9190617a87565b90505f60985f9054906101000a900473ffffffffffffffffffffffffffffffffffffffff1673ffffffffffffffffffffffffffffffffffffffff1663fc698b4a846040518263ffffffff1660e01b81526004016119ea9190617000565b602060405180830381865afa158015611a05573d5f803e3d5ffd5b505050506040513d601f19601f82011682018060405250810190611a299190617a87565b90505f60985f9054906101000a900473ffffffffffffffffffffffffffffffffffffffff1673ffffffffffffffffffffffffffffffffffffffff16632a3ff8ad88866040518363ffffffff1660e01b8152600401611a8892919061808b565b602060405180830381865afa158015611aa3573d5f803e3d5ffd5b505050506040513d601f19601f82011682018060405250810190611ac79190617a87565b90505f60985f9054906101000a900473ffffffffffffffffffffffffffffffffffffffff1673ffffffffffffffffffffffffffffffffffffffff16631dce3de889876040518363ffffffff1660e01b8152600401611b2692919061808b565b602060405180830381865afa158015611b41573d5f803e3d5ffd5b505050506040513d601f19601f82011682018060405250810190611b659190617a87565b90505f60a15f8e81526020019081526020015f205f8767ffffffffffffffff1667ffffffffffffffff1681526020019081526020015f205490505f60985f9054906101000a900473ffffffffffffffffffffffffffffffffffffffff1673ffffffffffffffffffffffffffffffffffffffff1663bf0d49c0886040518263ffffffff1660e01b8152600401611bfa9190617000565b5f60405180830381865afa158015611c14573d5f803e3d5ffd5b505050506040513d5f823e3d601f19601f82011682018060405250810190611c3c91906180b2565b9050828d68056bc75e2d6310000084611c5591906180f9565b611c5f9190617f3f565b1115611cba57609b5f9054906101000a900467ffffffffffffffff1667ffffffffffffffff168767ffffffffffffffff1603611caa57611ca5888f8f8a8a8a8a8a613b40565b611cb9565b611cb88e8e89868686613d48565b5b5b5050505050505080806001019150506118cd565b50505050505050565b60a1602052815f5260405f20602052805f5260405f205f91509150505481565b611cff6133dd565b611d085f614126565b565b609e602052805f5260405f205f915090505481565b60a3602052805f5260405f205f915090505481565b60995f9054906101000a900473ffffffffffffffffffffffffffffffffffffffff1681565b609d602052805f5260405f205f915090505481565b5f8073ffffffffffffffffffffffffffffffffffffffff168673ffffffffffffffffffffffffffffffffffffffff1603611ddd576040517f08c379a0000000000000000000000000000000000000000000000000000000008152600401611dd490618184565b60405180910390fd5b5f73ffffffffffffffffffffffffffffffffffffffff168573ffffffffffffffffffffffffffffffffffffffff1603611e4b576040517f08c379a0000000000000000000000000000000000000000000000000000000008152600401611e42906181ec565b60405180910390fd5b5f8411611e8d576040517f08c379a0000000000000000000000000000000000000000000000000000000008152600401611e8490618254565b60405180910390fd5b5f73ffffffffffffffffffffffffffffffffffffffff168373ffffffffffffffffffffffffffffffffffffffff1603611efb576040517f08c379a0000000000000000000000000000000000000000000000000000000008152600401611ef2906182bc565b60405180910390fd5b5f60985f9054906101000a900473ffffffffffffffffffffffffffffffffffffffff1673ffffffffffffffffffffffffffffffffffffffff1663b631e80b6040518163ffffffff1660e01b8152600401602060405180830381865afa158015611f66573d5f803e3d5ffd5b505050506040513d601f19601f82011682018060405250810190611f8a9190618315565b90505f60985f9054906101000a900473ffffffffffffffffffffffffffffffffffffffff1673ffffffffffffffffffffffffffffffffffffffff1663744fbc7a6040518163ffffffff1660e01b8152600401602060405180830381865afa158015611ff7573d5f803e3d5ffd5b505050506040513d601f19601f8201168201806040525081019061201b919061837b565b905061202c8282868b8b8b8b6141e9565b9250505095945050505050565b60a4602052805f5260405f205f915090505481565b5f60029054906101000a900473ffffffffffffffffffffffffffffffffffffffff1673ffffffffffffffffffffffffffffffffffffffff163373ffffffffffffffffffffffffffffffffffffffff16146120df57336040517fd7f733340000000000000000000000000000000000000000000000000000000081526004016120d69190616ecf565b60405180910390fd5b6120f1816120ec906185c2565b614345565b50565b5f60335f9054906101000a900473ffffffffffffffffffffffffffffffffffffffff16905090565b609960169054906101000a900460ff1681565b5f805f60985f9054906101000a900473ffffffffffffffffffffffffffffffffffffffff1673ffffffffffffffffffffffffffffffffffffffff166353fd43326040518163ffffffff1660e01b8152600401602060405180830381865afa15801561219c573d5f803e3d5ffd5b505050506040513d601f19601f820116820180604052508101906121c09190617a87565b90505f60985f9054906101000a900473ffffffffffffffffffffffffffffffffffffffff1673ffffffffffffffffffffffffffffffffffffffff1663fbfa77cf6040518163ffffffff1660e01b8152600401602060405180830381865afa15801561222d573d5f803e3d5ffd5b505050506040513d601f19601f82011682018060405250810190612251919061860f565b90505f5b828110156125bc575f60985f9054906101000a900473ffffffffffffffffffffffffffffffffffffffff1673ffffffffffffffffffffffffffffffffffffffff16639932ba4c836040518263ffffffff1660e01b81526004016122b89190616d5e565b602060405180830381865afa1580156122d3573d5f803e3d5ffd5b505050506040513d601f19601f820116820180604052508101906122f791906179e8565b90505f60985f9054906101000a900473ffffffffffffffffffffffffffffffffffffffff1673ffffffffffffffffffffffffffffffffffffffff1663ea8ecf04836040518263ffffffff1660e01b81526004016123549190616ecf565b602060405180830381865afa15801561236f573d5f803e3d5ffd5b505050506040513d601f19601f82011682018060405250810190612393919061863a565b90505f60985f9054906101000a900473ffffffffffffffffffffffffffffffffffffffff1673ffffffffffffffffffffffffffffffffffffffff166332599665846040518263ffffffff1660e01b81526004016123f09190616ecf565b602060405180830381865afa15801561240b573d5f803e3d5ffd5b505050506040513d601f19601f8201168201806040525081019061242f9190618665565b9050609b5f9054906101000a900467ffffffffffffffff1667ffffffffffffffff168267ffffffffffffffff16036125ac575f60985f9054906101000a900473ffffffffffffffffffffffffffffffffffffffff1673ffffffffffffffffffffffffffffffffffffffff1663dd811ac985609b60089054906101000a900473ffffffffffffffffffffffffffffffffffffffff168773ffffffffffffffffffffffffffffffffffffffff166370a082318b6040518263ffffffff1660e01b81526004016124fc9190616ecf565b602060405180830381865afa158015612517573d5f803e3d5ffd5b505050506040513d601f19601f8201168201806040525081019061253b9190617a87565b866040518563ffffffff1660e01b815260040161255b949392919061869f565b602060405180830381865afa158015612576573d5f803e3d5ffd5b505050506040513d601f19601f8201168201806040525081019061259a9190617a87565b905080886125a89190617a40565b9750505b5050508080600101915050612255565b5082935050505090565b60a6602052805f5260405f205f915090505481565b5f8060029054906101000a900473ffffffffffffffffffffffffffffffffffffffff16905090565b60a0602052815f5260405f20602052805f5260405f205f91509150505481565b61262b6133dd565b5f73ffffffffffffffffffffffffffffffffffffffff168173ffffffffffffffffffffffffffffffffffffffff1603612699576040517f08c379a000000000000000000000000000000000000000000000000000000000815260040161269090618752565b60405180910390fd5b8060655f6101000a81548173ffffffffffffffffffffffffffffffffffffffff021916908373ffffffffffffffffffffffffffffffffffffffff16021790555050565b5f808567ffffffffffffffff1611612729576040517f08c379a0000000000000000000000000000000000000000000000000000000008152600401612720906187e0565b60405180910390fd5b5f73ffffffffffffffffffffffffffffffffffffffff168473ffffffffffffffffffffffffffffffffffffffff1603612797576040517f08c379a000000000000000000000000000000000000000000000000000000000815260040161278e90618848565b60405180910390fd5b5f8351116127da576040517f08c379a00000000000000000000000000000000000000000000000000000000081526004016127d1906188b0565b60405180910390fd5b61282a5f60029054906101000a900473ffffffffffffffffffffffffffffffffffffffff1660995f9054906101000a900473ffffffffffffffffffffffffffffffffffffffff168787878761467f565b9050949350505050565b60985f9054906101000a900473ffffffffffffffffffffffffffffffffffffffff1681565b609f602052805f5260405f205f915090505481565b5f670de0b6b3a764000061288061147c565b8361288b91906180f9565b6128959190617f3f565b9050919050565b6128a46133dd565b8060985f6101000a81548173ffffffffffffffffffffffffffffffffffffffff021916908373ffffffffffffffffffffffffffffffffffffffff16021790555050565b60655f9054906101000a900473ffffffffffffffffffffffffffffffffffffffff1681565b6129146133dd565b5f609c5490505f609d5f8381526020019081526020015f205490505f60985f9054906101000a900473ffffffffffffffffffffffffffffffffffffffff1673ffffffffffffffffffffffffffffffffffffffff16638e9d7c186040518163ffffffff1660e01b8152600401602060405180830381865afa15801561299a573d5f803e3d5ffd5b505050506040513d601f19601f820116820180604052508101906129be9190617a87565b90505f60985f9054906101000a900473ffffffffffffffffffffffffffffffffffffffff1673ffffffffffffffffffffffffffffffffffffffff1663f15817876040518163ffffffff1660e01b8152600401602060405180830381865afa158015612a2b573d5f803e3d5ffd5b505050506040513d601f19601f82011682018060405250810190612a4f9190617a87565b90505f60985f9054906101000a900473ffffffffffffffffffffffffffffffffffffffff1673ffffffffffffffffffffffffffffffffffffffff166369487b1c6040518163ffffffff1660e01b8152600401602060405180830381865afa158015612abc573d5f803e3d5ffd5b505050506040513d601f19601f82011682018060405250810190612ae09190617a87565b90505f60985f9054906101000a900473ffffffffffffffffffffffffffffffffffffffff1673ffffffffffffffffffffffffffffffffffffffff1663b90b8a2a6040518163ffffffff1660e01b8152600401602060405180830381865afa158015612b4d573d5f803e3d5ffd5b505050506040513d601f19601f82011682018060405250810190612b719190617a87565b90505f5b84811015612f79575f60985f9054906101000a900473ffffffffffffffffffffffffffffffffffffffff1673ffffffffffffffffffffffffffffffffffffffff1663536e3f6a866040518263ffffffff1660e01b8152600401612bd89190616d5e565b5f60405180830381865afa158015612bf2573d5f803e3d5ffd5b505050506040513d5f823e3d601f19601f82011682018060405250810190612c1a91906188ce565b93505050505f818381518110612c3357612c32617eb2565b5b602002602001015190505f60985f9054906101000a900473ffffffffffffffffffffffffffffffffffffffff1673ffffffffffffffffffffffffffffffffffffffff1663b6ad185b836040518263ffffffff1660e01b8152600401612c989190617000565b602060405180830381865afa158015612cb3573d5f803e3d5ffd5b505050506040513d601f19601f82011682018060405250810190612cd79190617a87565b90505f60985f9054906101000a900473ffffffffffffffffffffffffffffffffffffffff1673ffffffffffffffffffffffffffffffffffffffff1663fc698b4a846040518263ffffffff1660e01b8152600401612d349190617000565b602060405180830381865afa158015612d4f573d5f803e3d5ffd5b505050506040513d601f19601f82011682018060405250810190612d739190617a87565b90505f60985f9054906101000a900473ffffffffffffffffffffffffffffffffffffffff1673ffffffffffffffffffffffffffffffffffffffff16631dce3de88a866040518363ffffffff1660e01b8152600401612dd292919061808b565b602060405180830381865afa158015612ded573d5f803e3d5ffd5b505050506040513d601f19601f82011682018060405250810190612e119190617a87565b90505f60a15f8e81526020019081526020015f205f8667ffffffffffffffff1667ffffffffffffffff1681526020019081526020015f205490505f60985f9054906101000a900473ffffffffffffffffffffffffffffffffffffffff1673ffffffffffffffffffffffffffffffffffffffff1663bf0d49c0876040518263ffffffff1660e01b8152600401612ea69190617000565b5f60405180830381865afa158015612ec0573d5f803e3d5ffd5b505050506040513d5f823e3d601f19601f82011682018060405250810190612ee891906180b2565b9050828d68056bc75e2d6310000084612f0191906180f9565b612f0b9190617f3f565b1015612f6557609b5f9054906101000a900467ffffffffffffffff1667ffffffffffffffff168667ffffffffffffffff1603612f5557612f50888f8f89898989614b11565b612f64565b612f638e8e88868686614cab565b5b5b505050505050508080600101915050612b75565b50505050505050565b5f60985f9054906101000a900473ffffffffffffffffffffffffffffffffffffffff1673ffffffffffffffffffffffffffffffffffffffff1663dd811ac9868686866040518563ffffffff1660e01b8152600401612fe3949392919061869f565b602060405180830381865afa158015612ffe573d5f803e3d5ffd5b505050506040513d601f19601f820116820180604052508101906130229190617a87565b9050949350505050565b5f60985f9054906101000a900473ffffffffffffffffffffffffffffffffffffffff1673ffffffffffffffffffffffffffffffffffffffff1663ee7bd3e2868686866040518563ffffffff1660e01b815260040161308d94939291906189b1565b602060405180830381865afa1580156130a8573d5f803e3d5ffd5b505050506040513d601f19601f820116820180604052508101906130cc9190617a87565b9050949350505050565b60a2602052805f5260405f205f915090505481565b5f73ffffffffffffffffffffffffffffffffffffffff168173ffffffffffffffffffffffffffffffffffffffff1603613159576040517f08c379a000000000000000000000000000000000000000000000000000000000815260040161315090618752565b60405180910390fd5b60655f9054906101000a900473ffffffffffffffffffffffffffffffffffffffff1673ffffffffffffffffffffffffffffffffffffffff168173ffffffffffffffffffffffffffffffffffffffff16146131e8576040517f08c379a00000000000000000000000000000000000000000000000000000000081526004016131df90618a64565b60405180910390fd5b3373ffffffffffffffffffffffffffffffffffffffff168173ffffffffffffffffffffffffffffffffffffffff1614613256576040517f08c379a000000000000000000000000000000000000000000000000000000000815260040161324d90618af2565b60405180910390fd5b61325f81614126565b50565b5f808273ffffffffffffffffffffffffffffffffffffffff163b119050919050565b5f60019054906101000a900460ff166132d2576040517f08c379a00000000000000000000000000000000000000000000000000000000081526004016132c990618b80565b60405180910390fd5b5f73ffffffffffffffffffffffffffffffffffffffff168173ffffffffffffffffffffffffffffffffffffffff1603613342575f6040517fd7f733340000000000000000000000000000000000000000000000000000000081526004016133399190616ecf565b60405180910390fd5b805f60026101000a81548173ffffffffffffffffffffffffffffffffffffffff021916908373ffffffffffffffffffffffffffffffffffffffff16021790555050565b5f60019054906101000a900460ff166133d3576040517f08c379a00000000000000000000000000000000000000000000000000000000081526004016133ca90618b80565b60405180910390fd5b6133db6151cd565b565b6133e561522d565b73ffffffffffffffffffffffffffffffffffffffff166134036120f4565b73ffffffffffffffffffffffffffffffffffffffff1614613459576040517f08c379a000000000000000000000000000000000000000000000000000000000815260040161345090618be8565b60405180910390fd5b565b5f60985f9054906101000a900473ffffffffffffffffffffffffffffffffffffffff1673ffffffffffffffffffffffffffffffffffffffff1663d1c68aa3846040518263ffffffff1660e01b81526004016134b69190617000565b5f60405180830381865afa1580156134d0573d5f803e3d5ffd5b505050506040513d5f823e3d601f19601f820116820180604052508101906134f89190618c06565b90505f60985f9054906101000a900473ffffffffffffffffffffffffffffffffffffffff1673ffffffffffffffffffffffffffffffffffffffff1663fbfa77cf6040518163ffffffff1660e01b8152600401602060405180830381865afa158015613565573d5f803e3d5ffd5b505050506040513d601f19601f82011682018060405250810190613589919061860f565b90505f5b8381101561390c575f8382815181106135a9576135a8617eb2565b5b602002602001015190505f60985f9054906101000a900473ffffffffffffffffffffffffffffffffffffffff1673ffffffffffffffffffffffffffffffffffffffff166332599665836040518263ffffffff1660e01b815260040161360e9190616ecf565b602060405180830381865afa158015613629573d5f803e3d5ffd5b505050506040513d601f19601f8201168201806040525081019061364d9190618665565b90505f609b60089054906101000a900473ffffffffffffffffffffffffffffffffffffffff1673ffffffffffffffffffffffffffffffffffffffff168373ffffffffffffffffffffffffffffffffffffffff1603613724578273ffffffffffffffffffffffffffffffffffffffff166370a08231866040518263ffffffff1660e01b81526004016136de9190616ecf565b602060405180830381865afa1580156136f9573d5f803e3d5ffd5b505050506040513d601f19601f8201168201806040525081019061371d9190617a87565b90506137cc565b6137c983609b60089054906101000a900473ffffffffffffffffffffffffffffffffffffffff168573ffffffffffffffffffffffffffffffffffffffff166370a08231896040518263ffffffff1660e01b81526004016137849190616ecf565b602060405180830381865afa15801561379f573d5f803e3d5ffd5b505050506040513d601f19601f820116820180604052508101906137c39190617a87565b85612f82565b90505b6137d58161286e565b609d5f609c5481526020019081526020015f205f8282546137f69190617a40565b925050819055506138068161286e565b60a05f609c5481526020019081526020015f205f8573ffffffffffffffffffffffffffffffffffffffff1673ffffffffffffffffffffffffffffffffffffffff1681526020019081526020015f205f8282546138629190617a40565b925050819055506001609f5f609c5481526020019081526020015f205f82825461388c9190617a40565b9250508190555061389c8161286e565b60a15f609c5481526020019081526020015f205f609b5f9054906101000a900467ffffffffffffffff1667ffffffffffffffff1667ffffffffffffffff1681526020019081526020015f205f8282546138f59190617a40565b92505081905550505050808060010191505061358d565b5050505050565b5f61391d826113db565b90505f60985f9054906101000a900473ffffffffffffffffffffffffffffffffffffffff1673ffffffffffffffffffffffffffffffffffffffff1663d1c68aa3846040518263ffffffff1660e01b815260040161397a9190617000565b5f60405180830381865afa158015613994573d5f803e3d5ffd5b505050506040513d5f823e3d601f19601f820116820180604052508101906139bc9190618c06565b90505f60985f9054906101000a900473ffffffffffffffffffffffffffffffffffffffff1673ffffffffffffffffffffffffffffffffffffffff1663221f3371856040518263ffffffff1660e01b8152600401613a199190617000565b5f60405180830381865afa158015613a33573d5f803e3d5ffd5b505050506040513d5f823e3d601f19601f82011682018060405250810190613a5b91906180b2565b90505f8067ffffffffffffffff811115613a7857613a77617322565b5b604051908082528060200260200182016040528015613aa65781602001602082028036833780820191505090505b5090505f8067ffffffffffffffff811115613ac457613ac3617322565b5b604051908082528060200260200182016040528015613af25781602001602082028036833780820191505090505b5090505f600285848685609c548788604051602001613b18989796959493929190618df4565b6040516020818303038152906040529050613b3687878360016126dc565b5050505050505050565b613b48616c59565b5f60985f9054906101000a900473ffffffffffffffffffffffffffffffffffffffff1673ffffffffffffffffffffffffffffffffffffffff1663fbfa77cf6040518163ffffffff1660e01b8152600401602060405180830381865afa158015613bb3573d5f803e3d5ffd5b505050506040513d601f19601f82011682018060405250810190613bd7919061860f565b905060a15f8a81526020019081526020015f205f8867ffffffffffffffff1667ffffffffffffffff1681526020019081526020015f20548260600181815250505f609b60089054906101000a900473ffffffffffffffffffffffffffffffffffffffff1673ffffffffffffffffffffffffffffffffffffffff166370a08231836040518263ffffffff1660e01b8152600401613c739190616ecf565b602060405180830381865afa158015613c8e573d5f803e3d5ffd5b505050506040513d601f19601f82011682018060405250810190613cb29190617a87565b90505f805f613ccb8b8d8c8b8b8a8c606001518b615234565b925092509250613cdf8b838b8b8b8a61567e565b80609e5f8f81526020019081526020015f205f828254613cff9190617a40565b925050819055508683613d129190617edf565b60a45f8f81526020019081526020015f205f828254613d319190617a40565b925050819055505050505050505050505050505050565b5f8568056bc75e2d6310000084613d5f91906180f9565b613d699190617f3f565b90508381613d779190617edf565b60a45f8981526020019081526020015f205f828254613d969190617a40565b925050819055505f613da7866113db565b90505f60985f9054906101000a900473ffffffffffffffffffffffffffffffffffffffff1673ffffffffffffffffffffffffffffffffffffffff1663d1c68aa3886040518263ffffffff1660e01b8152600401613e049190617000565b5f60405180830381865afa158015613e1e573d5f803e3d5ffd5b505050506040513d5f823e3d601f19601f82011682018060405250810190613e469190618c06565b90505f60985f9054906101000a900473ffffffffffffffffffffffffffffffffffffffff1673ffffffffffffffffffffffffffffffffffffffff1663d050ca7c896040518263ffffffff1660e01b8152600401613ea39190617000565b5f60405180830381865afa158015613ebd573d5f803e3d5ffd5b505050506040513d5f823e3d601f19601f82011682018060405250810190613ee59190618c06565b90505f60985f9054906101000a900473ffffffffffffffffffffffffffffffffffffffff1673ffffffffffffffffffffffffffffffffffffffff1663221f33718a6040518263ffffffff1660e01b8152600401613f429190617000565b5f60405180830381865afa158015613f5c573d5f803e3d5ffd5b505050506040513d5f823e3d601f19601f82011682018060405250810190613f8491906180b2565b90505f60985f9054906101000a900473ffffffffffffffffffffffffffffffffffffffff1673ffffffffffffffffffffffffffffffffffffffff1663a1adff888b6040518263ffffffff1660e01b8152600401613fe19190617000565b5f60405180830381865afa158015613ffb573d5f803e3d5ffd5b505050506040513d5f823e3d601f19601f8201168201806040525081019061402391906180b2565b90505f600367ffffffffffffffff81111561404157614040617322565b5b60405190808252806020026020018201604052801561406f5781602001602082028036833780820191505090505b5090508b815f8151811061408657614085617eb2565b5b60200260200101818152505089816001815181106140a7576140a6617eb2565b5b60200260200101818152505088816002815181106140c8576140c7617eb2565b5b6020026020010181815250505f600386868686609c548e886040516020016140f7989796959493929190618ed3565b60405160208183030381529060405290506141158c888360016126dc565b505050505050505050505050505050565b5f60335f9054906101000a900473ffffffffffffffffffffffffffffffffffffffff1690508160335f6101000a81548173ffffffffffffffffffffffffffffffffffffffff021916908373ffffffffffffffffffffffffffffffffffffffff1602179055508173ffffffffffffffffffffffffffffffffffffffff168173ffffffffffffffffffffffffffffffffffffffff167f8be0079c531659141344cd1fd0a4f28419497f9722a3daafe3b4186f6b6457e060405160405180910390a35050565b5f8073ffffffffffffffffffffffffffffffffffffffff168573ffffffffffffffffffffffffffffffffffffffff1603614258576040517f08c379a000000000000000000000000000000000000000000000000000000000815260040161424f90618184565b60405180910390fd5b5f73ffffffffffffffffffffffffffffffffffffffff168473ffffffffffffffffffffffffffffffffffffffff16036142c6576040517f08c379a00000000000000000000000000000000000000000000000000000000081526004016142bd906181ec565b60405180910390fd5b5f8311614308576040517f08c379a00000000000000000000000000000000000000000000000000000000081526004016142ff90618254565b60405180910390fd5b5f8662ffffff16111561432a576143238887878787876159f3565b905061433a565b6143378786868686615b9d565b90505b979650505050505050565b5f815f015190505f826020015190505f836040015180602001905181019061436d9190618fb4565b90505f805f805f80896060015180602001905181019061438d9190618fdf565b9550955095509550955095505f8603156146735760018603156146725760028603614533575f5b825181101561452d578281815181106143d0576143cf617eb2565b5b6020026020010151609d5f8681526020019081526020015f205f8282546143f79190617a40565b9250508190555082818151811061441157614410617eb2565b5b602002602001015160a05f8681526020019081526020015f205f88848151811061443e5761443d617eb2565b5b602002602001015173ffffffffffffffffffffffffffffffffffffffff1673ffffffffffffffffffffffffffffffffffffffff1681526020019081526020015f205f82825461448d9190617a40565b925050819055508281815181106144a7576144a6617eb2565b5b602002602001015160a15f8681526020019081526020015f205f8b67ffffffffffffffff1667ffffffffffffffff1681526020019081526020015f205f8282546144f19190617a40565b925050819055506001609f5f8681526020019081526020015f205f8282546145199190617a40565b9250508190555080806001019150506143b4565b50614671565b600386036145ea575f8a6080015190505f815f8151811061455757614556617eb2565b5b60200260200101515f015190505f825f8151811061457857614577617eb2565b5b60200260200101516020015190505f6145b883609b60089054906101000a900473ffffffffffffffffffffffffffffffffffffffff168430610bb8611d6e565b905080609e5f8981526020019081526020015f205f8282546145da9190617a40565b9250508190555050505050614670565b6004860361466f5760985f9054906101000a900473ffffffffffffffffffffffffffffffffffffffff1673ffffffffffffffffffffffffffffffffffffffff16638baa6bf16040518163ffffffff1660e01b81526004015f604051808303815f87803b158015614658575f80fd5b505af115801561466a573d5f803e3d5ffd5b505050505b5b5b5b5b50505050505050505050565b5f8073ffffffffffffffffffffffffffffffffffffffff168773ffffffffffffffffffffffffffffffffffffffff16036146ee576040517f08c379a00000000000000000000000000000000000000000000000000000000081526004016146e590619122565b60405180910390fd5b5f73ffffffffffffffffffffffffffffffffffffffff168673ffffffffffffffffffffffffffffffffffffffff160361475c576040517f08c379a00000000000000000000000000000000000000000000000000000000081526004016147539061918a565b60405180910390fd5b5f8567ffffffffffffffff16036147a8576040517f08c379a000000000000000000000000000000000000000000000000000000000815260040161479f906191f2565b60405180910390fd5b5f73ffffffffffffffffffffffffffffffffffffffff168473ffffffffffffffffffffffffffffffffffffffff1603614816576040517f08c379a000000000000000000000000000000000000000000000000000000000815260040161480d90618848565b60405180910390fd5b5f835111614859576040517f08c379a00000000000000000000000000000000000000000000000000000000081526004016148509061925a565b60405180910390fd5b5f6040518060a00160405280866040516020016148769190616ecf565b60405160208183030381529060405281526020018581526020015f67ffffffffffffffff8111156148aa576148a9617322565b5b6040519080825280602002602001820160405280156148e357816020015b6148d0616c9e565b8152602001906001900390816148c85790505b5081526020016001808111156148fc576148fb619278565b5b85600181111561490f5761490e619278565b5b1461491a575f61491c565b885b73ffffffffffffffffffffffffffffffffffffffff1681526020016149516040518060200160405280622dc6c0815250615e1b565b81525090505f8873ffffffffffffffffffffffffffffffffffffffff166320487ded88846040518363ffffffff1660e01b8152600401614992929190619462565b602060405180830381865afa1580156149ad573d5f803e3d5ffd5b505050506040513d601f19601f820116820180604052508101906149d19190617a87565b90505f6001808111156149e7576149e6619278565b5b8560018111156149fa576149f9619278565b5b03614a81578973ffffffffffffffffffffffffffffffffffffffff166396f4e9f989856040518363ffffffff1660e01b8152600401614a3a929190619462565b6020604051808303815f875af1158015614a56573d5f803e3d5ffd5b505050506040513d601f19601f82011682018060405250810190614a7a91906194a4565b9050614b01565b8973ffffffffffffffffffffffffffffffffffffffff166396f4e9f9838a866040518463ffffffff1660e01b8152600401614abd929190619462565b60206040518083038185885af1158015614ad9573d5f803e3d5ffd5b50505050506040513d601f19601f82011682018060405250810190614afe91906194a4565b90505b8093505050509695505050505050565b5f60985f9054906101000a900473ffffffffffffffffffffffffffffffffffffffff1673ffffffffffffffffffffffffffffffffffffffff1663fbfa77cf6040518163ffffffff1660e01b8152600401602060405180830381865afa158015614b7c573d5f803e3d5ffd5b505050506040513d601f19601f82011682018060405250810190614ba0919061860f565b9050614baa616ccc565b60a15f8981526020019081526020015f205f8767ffffffffffffffff1667ffffffffffffffff1681526020019081526020015f2054816060018181525050614bf98287878a8560600151615e9a565b8160800181815250505f8768056bc75e2d631000008360600151614c1d91906180f9565b614c279190617f3f565b90505f8185614c369190617edf565b90505f60a45f8c81526020019081526020015f205482609e5f8e81526020019081526020015f2054614c6891906180f9565b614c729190617f3f565b90508084608001818151614c869190617a40565b91508181525050614c9d858a8660800151896163e4565b505050505050505050505050565b614cb3616d17565b5f8668056bc75e2d6310000085614cca91906180f9565b614cd49190617f3f565b90505f8186614ce39190617edf565b90505f60a45f8b81526020019081526020015f205482609e5f8d81526020019081526020015f2054614d1591906180f9565b614d1f9190617f3f565b90505f614d2b896113db565b90505f614d67609b60089054906101000a900473ffffffffffffffffffffffffffffffffffffffff16614d5d8c611033565b8530610bb8611d6e565b905060985f9054906101000a900473ffffffffffffffffffffffffffffffffffffffff1673ffffffffffffffffffffffffffffffffffffffff1663d1c68aa38b6040518263ffffffff1660e01b8152600401614dc39190617000565b5f60405180830381865afa158015614ddd573d5f803e3d5ffd5b505050506040513d5f823e3d601f19601f82011682018060405250810190614e059190618c06565b865f018190525060985f9054906101000a900473ffffffffffffffffffffffffffffffffffffffff1673ffffffffffffffffffffffffffffffffffffffff1663d050ca7c8b6040518263ffffffff1660e01b8152600401614e669190617000565b5f60405180830381865afa158015614e80573d5f803e3d5ffd5b505050506040513d5f823e3d601f19601f82011682018060405250810190614ea89190618c06565b866020018190525060985f9054906101000a900473ffffffffffffffffffffffffffffffffffffffff1673ffffffffffffffffffffffffffffffffffffffff1663221f33718b6040518263ffffffff1660e01b8152600401614f0a9190617000565b5f60405180830381865afa158015614f24573d5f803e3d5ffd5b505050506040513d5f823e3d601f19601f82011682018060405250810190614f4c91906180b2565b866040018190525060985f9054906101000a900473ffffffffffffffffffffffffffffffffffffffff1673ffffffffffffffffffffffffffffffffffffffff1663a1adff888b6040518263ffffffff1660e01b8152600401614fae9190617000565b5f60405180830381865afa158015614fc8573d5f803e3d5ffd5b505050506040513d5f823e3d601f19601f82011682018060405250810190614ff091906180b2565b8660600181905250600267ffffffffffffffff81111561501357615012617322565b5b6040519080825280602002602001820160405280156150415781602001602082028036833780820191505090505b5086608001819052508a86608001515f8151811061506257615061617eb2565b5b60200260200101818152505088866080015160018151811061508757615086617eb2565b5b6020026020010181815250505f600167ffffffffffffffff8111156150af576150ae617322565b5b6040519080825280602002602001820160405280156150e857816020015b6150d5616c9e565b8152602001906001900390816150cd5790505b5090506150f48b611033565b815f8151811061510757615106617eb2565b5b60200260200101515f019073ffffffffffffffffffffffffffffffffffffffff16908173ffffffffffffffffffffffffffffffffffffffff168152505081815f8151811061515857615157617eb2565b5b602002602001015160200181815250505f6004885f015189602001518a604001518b60600151609c548e8e6080015160405160200161519e989796959493929190619508565b60405160208183030381529060405290506151bd8c8286856001616782565b5050505050505050505050505050565b5f60019054906101000a900460ff1661521b576040517f08c379a000000000000000000000000000000000000000000000000000000000815260040161521290618b80565b60405180910390fd5b61522b61522661522d565b614126565b565b5f33905090565b5f805f805f60985f9054906101000a900473ffffffffffffffffffffffffffffffffffffffff1673ffffffffffffffffffffffffffffffffffffffff1663d1c68aa38e6040518263ffffffff1660e01b81526004016152939190617000565b5f60405180830381865afa1580156152ad573d5f803e3d5ffd5b505050506040513d5f823e3d601f19601f820116820180604052508101906152d59190618c06565b90505f5b8151811015615624576152ea616c59565b8282815181106152fd576152fc617eb2565b5b6020026020010151815f019073ffffffffffffffffffffffffffffffffffffffff16908173ffffffffffffffffffffffffffffffffffffffff168152505060985f9054906101000a900473ffffffffffffffffffffffffffffffffffffffff1673ffffffffffffffffffffffffffffffffffffffff166332599665825f01516040518263ffffffff1660e01b81526004016153989190616ecf565b602060405180830381865afa1580156153b3573d5f803e3d5ffd5b505050506040513d601f19601f820116820180604052508101906153d79190618665565b816020019062ffffff16908162ffffff16815250505f609b60089054906101000a900473ffffffffffffffffffffffffffffffffffffffff1673ffffffffffffffffffffffffffffffffffffffff16825f015173ffffffffffffffffffffffffffffffffffffffff16036154ce578a73ffffffffffffffffffffffffffffffffffffffff16631c20fadd835f0151308c6040518463ffffffff1660e01b8152600401615485939291906195ae565b6020604051808303815f875af11580156154a1573d5f803e3d5ffd5b505050506040513d601f19601f820116820180604052508101906154c59190617957565b50889050615607565b5f825f015173ffffffffffffffffffffffffffffffffffffffff166370a082318d6040518263ffffffff1660e01b815260040161550b9190616ecf565b602060405180830381865afa158015615526573d5f803e3d5ffd5b505050506040513d601f19601f8201168201806040525081019061554a9190617a87565b90508b73ffffffffffffffffffffffffffffffffffffffff16631c20fadd845f015130846040518463ffffffff1660e01b815260040161558c939291906195ae565b6020604051808303815f875af11580156155a8573d5f803e3d5ffd5b505050506040513d601f19601f820116820180604052508101906155cc9190617957565b50615603835f0151609b60089054906101000a900473ffffffffffffffffffffffffffffffffffffffff1683308760200151611d6e565b9150505b80856156139190617a40565b9450505080806001019150506152d9565b508b68056bc75e2d631000008861563b91906180f9565b6156459190617f3f565b945084898361565491906180f9565b61565e9190617f3f565b9350838261566c9190617edf565b92505050985098509895505050505050565b5f60985f9054906101000a900473ffffffffffffffffffffffffffffffffffffffff1673ffffffffffffffffffffffffffffffffffffffff1663d050ca7c886040518263ffffffff1660e01b81526004016156d99190617000565b5f60405180830381865afa1580156156f3573d5f803e3d5ffd5b505050506040513d5f823e3d601f19601f8201168201806040525081019061571b9190618c06565b90505f5b81518110156159e9575f82828151811061573c5761573b617eb2565b5b602002602001015190505f60985f9054906101000a900473ffffffffffffffffffffffffffffffffffffffff1673ffffffffffffffffffffffffffffffffffffffff166332599665836040518263ffffffff1660e01b81526004016157a19190616ecf565b602060405180830381865afa1580156157bc573d5f803e3d5ffd5b505050506040513d601f19601f820116820180604052508101906157e09190618665565b90505f60985f9054906101000a900473ffffffffffffffffffffffffffffffffffffffff1673ffffffffffffffffffffffffffffffffffffffff16634b3e0b80846040518263ffffffff1660e01b815260040161583d9190616ecf565b602060405180830381865afa158015615858573d5f803e3d5ffd5b505050506040513d601f19601f8201168201806040525081019061587c9190617a87565b90505f609b60089054906101000a900473ffffffffffffffffffffffffffffffffffffffff1673ffffffffffffffffffffffffffffffffffffffff168473ffffffffffffffffffffffffffffffffffffffff16036159905787828c6158e191906180f9565b6158eb9190617f3f565b9050609b60089054906101000a900473ffffffffffffffffffffffffffffffffffffffff1673ffffffffffffffffffffffffffffffffffffffff1663a9059cbb88836040518363ffffffff1660e01b815260040161594a929190617906565b6020604051808303815f875af1158015615966573d5f803e3d5ffd5b505050506040513d601f19601f8201168201806040525081019061598a9190617957565b506159d8565b6159d5609b60089054906101000a900473ffffffffffffffffffffffffffffffffffffffff16858a858f6159c491906180f9565b6159ce9190617f3f565b8a87611d6e565b90505b50505050808060010191505061571f565b5050505050505050565b5f8473ffffffffffffffffffffffffffffffffffffffff1663095ea7b388856040518363ffffffff1660e01b8152600401615a2f929190617906565b6020604051808303815f875af1158015615a4b573d5f803e3d5ffd5b505050506040513d601f19601f82011682018060405250810190615a6f9190617957565b505f6040518061010001604052808773ffffffffffffffffffffffffffffffffffffffff1681526020018673ffffffffffffffffffffffffffffffffffffffff1681526020018862ffffff1681526020018473ffffffffffffffffffffffffffffffffffffffff16815260200161012c42615aea9190617a40565b81526020018581526020015f81526020015f73ffffffffffffffffffffffffffffffffffffffff1681525090508773ffffffffffffffffffffffffffffffffffffffff1663414bf389826040518263ffffffff1660e01b8152600401615b5091906196a1565b6020604051808303815f875af1158015615b6c573d5f803e3d5ffd5b505050506040513d601f19601f82011682018060405250810190615b909190617a87565b9150509695505050505050565b5f80600267ffffffffffffffff811115615bba57615bb9617322565b5b604051908082528060200260200182016040528015615be85781602001602082028036833780820191505090505b50905085815f81518110615bff57615bfe617eb2565b5b602002602001019073ffffffffffffffffffffffffffffffffffffffff16908173ffffffffffffffffffffffffffffffffffffffff16815250508481600181518110615c4e57615c4d617eb2565b5b602002602001019073ffffffffffffffffffffffffffffffffffffffff16908173ffffffffffffffffffffffffffffffffffffffff16815250505f8773ffffffffffffffffffffffffffffffffffffffff1663d06ca61f86846040518363ffffffff1660e01b8152600401615cc49291906196bb565b5f60405180830381865afa158015615cde573d5f803e3d5ffd5b505050506040513d5f823e3d601f19601f82011682018060405250810190615d0691906180b2565b90508673ffffffffffffffffffffffffffffffffffffffff1663095ea7b389876040518363ffffffff1660e01b8152600401615d43929190617906565b6020604051808303815f875af1158015615d5f573d5f803e3d5ffd5b505050506040513d601f19601f82011682018060405250810190615d839190617957565b508773ffffffffffffffffffffffffffffffffffffffff16635c11d795865f8588426040518663ffffffff1660e01b8152600401615dc5959493929190619722565b5f604051808303815f87803b158015615ddc575f80fd5b505af1158015615dee573d5f803e3d5ffd5b5050505080600181518110615e0657615e05617eb2565b5b60200260200101519250505095945050505050565b60606397a657c960e01b82604051602401615e369190619794565b604051602081830303815290604052907bffffffffffffffffffffffffffffffffffffffffffffffffffffffff19166020820180517bffffffffffffffffffffffffffffffffffffffffffffffffffffffff83818316178352505050509050919050565b5f615ea3616ccc565b5f60985f9054906101000a900473ffffffffffffffffffffffffffffffffffffffff1673ffffffffffffffffffffffffffffffffffffffff1663fbfa77cf6040518163ffffffff1660e01b8152600401602060405180830381865afa158015615f0e573d5f803e3d5ffd5b505050506040513d601f19601f82011682018060405250810190615f32919061860f565b90505f609b60089054906101000a900473ffffffffffffffffffffffffffffffffffffffff1673ffffffffffffffffffffffffffffffffffffffff166370a08231836040518263ffffffff1660e01b8152600401615f909190616ecf565b602060405180830381865afa158015615fab573d5f803e3d5ffd5b505050506040513d601f19601f82011682018060405250810190615fcf9190617a87565b90505f60985f9054906101000a900473ffffffffffffffffffffffffffffffffffffffff1673ffffffffffffffffffffffffffffffffffffffff1663d1c68aa38a6040518263ffffffff1660e01b815260040161602c9190617000565b5f60405180830381865afa158015616046573d5f803e3d5ffd5b505050506040513d5f823e3d601f19601f8201168201806040525081019061606e9190618c06565b90505f5b81518110156163cf5781818151811061608e5761608d617eb2565b5b6020026020010151855f019073ffffffffffffffffffffffffffffffffffffffff16908173ffffffffffffffffffffffffffffffffffffffff168152505060985f9054906101000a900473ffffffffffffffffffffffffffffffffffffffff1673ffffffffffffffffffffffffffffffffffffffff166332599665865f01516040518263ffffffff1660e01b81526004016161299190616ecf565b602060405180830381865afa158015616144573d5f803e3d5ffd5b505050506040513d601f19601f820116820180604052508101906161689190618665565b856020019062ffffff16908162ffffff1681525050609b60089054906101000a900473ffffffffffffffffffffffffffffffffffffffff1673ffffffffffffffffffffffffffffffffffffffff16855f015173ffffffffffffffffffffffffffffffffffffffff1603616265578373ffffffffffffffffffffffffffffffffffffffff16631c20fadd865f015130866040518463ffffffff1660e01b8152600401616215939291906195ae565b6020604051808303815f875af1158015616231573d5f803e3d5ffd5b505050506040513d601f19601f820116820180604052508101906162559190617957565b50828560a00181815250506163a5565b5f855f015173ffffffffffffffffffffffffffffffffffffffff166370a08231866040518263ffffffff1660e01b81526004016162a29190616ecf565b602060405180830381865afa1580156162bd573d5f803e3d5ffd5b505050506040513d601f19601f820116820180604052508101906162e19190617a87565b90508473ffffffffffffffffffffffffffffffffffffffff16631c20fadd875f015130846040518463ffffffff1660e01b8152600401616323939291906195ae565b6020604051808303815f875af115801561633f573d5f803e3d5ffd5b505050506040513d601f19601f820116820180604052508101906163639190617957565b5061639a865f0151609b60089054906101000a900473ffffffffffffffffffffffffffffffffffffffff1683308a60200151611d6e565b8660a0018181525050505b8460a00151856080018181516163bb9190617a40565b915081815250508080600101915050616072565b50836080015194505050505095945050505050565b6163ec616ccc565b828160800181815250505f60985f9054906101000a900473ffffffffffffffffffffffffffffffffffffffff1673ffffffffffffffffffffffffffffffffffffffff1663d050ca7c866040518263ffffffff1660e01b81526004016164519190617000565b5f60405180830381865afa15801561646b573d5f803e3d5ffd5b505050506040513d5f823e3d601f19601f820116820180604052508101906164939190618c06565b90505f5b8151811015616779575f8282815181106164b4576164b3617eb2565b5b602002602001015190505f60985f9054906101000a900473ffffffffffffffffffffffffffffffffffffffff1673ffffffffffffffffffffffffffffffffffffffff166332599665836040518263ffffffff1660e01b81526004016165199190616ecf565b602060405180830381865afa158015616534573d5f803e3d5ffd5b505050506040513d601f19601f820116820180604052508101906165589190618665565b90505f60985f9054906101000a900473ffffffffffffffffffffffffffffffffffffffff1673ffffffffffffffffffffffffffffffffffffffff16634b3e0b80846040518263ffffffff1660e01b81526004016165b59190616ecf565b602060405180830381865afa1580156165d0573d5f803e3d5ffd5b505050506040513d601f19601f820116820180604052508101906165f49190617a87565b9050609b60089054906101000a900473ffffffffffffffffffffffffffffffffffffffff1673ffffffffffffffffffffffffffffffffffffffff168373ffffffffffffffffffffffffffffffffffffffff1603616716578681876080015161665c91906180f9565b6166669190617f3f565b8660a0018181525050609b60089054906101000a900473ffffffffffffffffffffffffffffffffffffffff1673ffffffffffffffffffffffffffffffffffffffff1663a9059cbb8b8860a001516040518363ffffffff1660e01b81526004016166d0929190617906565b6020604051808303815f875af11580156166ec573d5f803e3d5ffd5b505050506040513d601f19601f820116820180604052508101906167109190617957565b50616769565b61675f609b60089054906101000a900473ffffffffffffffffffffffffffffffffffffffff168489848a6080015161674e91906180f9565b6167589190617f3f565b8d86611d6e565b8660a00181815250505b5050508080600101915050616497565b50505050505050565b5f82519050609960149054906101000a900461ffff1661ffff168111156167de576040517f08c379a00000000000000000000000000000000000000000000000000000000081526004016167d59061981d565b60405180910390fd5b5f5b8181101561693d5760995f9054906101000a900473ffffffffffffffffffffffffffffffffffffffff1673ffffffffffffffffffffffffffffffffffffffff1684828151811061683357616832617eb2565b5b60200260200101515f015173ffffffffffffffffffffffffffffffffffffffff16146169325783818151811061686c5761686b617eb2565b5b60200260200101515f015173ffffffffffffffffffffffffffffffffffffffff1663095ea7b35f60029054906101000a900473ffffffffffffffffffffffffffffffffffffffff168684815181106168c7576168c6617eb2565b5b6020026020010151602001516040518363ffffffff1660e01b81526004016168f0929190617906565b6020604051808303815f875af115801561690c573d5f803e3d5ffd5b505050506040513d601f19601f820116820180604052508101906169309190617957565b505b8060010190506167e0565b505f6040518060a001604052808660405160200161695b9190616ecf565b604051602081830303815290604052815260200187815260200185815260200160018081111561698e5761698d619278565b5b8560018111156169a1576169a0619278565b5b146169ac575f6169cf565b60995f9054906101000a900473ffffffffffffffffffffffffffffffffffffffff165b73ffffffffffffffffffffffffffffffffffffffff168152602001616a046040518060200160405280620dbba0815250615e1b565b81525090505f8060029054906101000a900473ffffffffffffffffffffffffffffffffffffffff1673ffffffffffffffffffffffffffffffffffffffff166320487ded89846040518363ffffffff1660e01b8152600401616a66929190619462565b602060405180830381865afa158015616a81573d5f803e3d5ffd5b505050506040513d601f19601f82011682018060405250810190616aa59190617a87565b90505f600180811115616abb57616aba619278565b5b856001811115616ace57616acd619278565b5b03616b76575f60029054906101000a900473ffffffffffffffffffffffffffffffffffffffff1673ffffffffffffffffffffffffffffffffffffffff166396f4e9f98a856040518363ffffffff1660e01b8152600401616b2f929190619462565b6020604051808303815f875af1158015616b4b573d5f803e3d5ffd5b505050506040513d601f19601f82011682018060405250810190616b6f91906194a4565b9050616c17565b5f60029054906101000a900473ffffffffffffffffffffffffffffffffffffffff1673ffffffffffffffffffffffffffffffffffffffff166396f4e9f9838b866040518463ffffffff1660e01b8152600401616bd3929190619462565b60206040518083038185885af1158015616bef573d5f803e3d5ffd5b50505050506040513d601f19601f82011682018060405250810190616c1491906194a4565b90505b7f54791b38f3859327992a1ca0590ad3c0f08feba98d1a4f56ab0dca74d203392a81604051616c469190617501565b60405180910390a1505050505050505050565b6040518060a001604052805f73ffffffffffffffffffffffffffffffffffffffff1681526020015f62ffffff1681526020015f81526020015f81526020015f81525090565b60405180604001604052805f73ffffffffffffffffffffffffffffffffffffffff1681526020015f81525090565b6040518060c001604052805f73ffffffffffffffffffffffffffffffffffffffff1681526020015f62ffffff1681526020015f81526020015f81526020015f81526020015f81525090565b6040518060a0016040528060608152602001606081526020016060815260200160608152602001606081525090565b5f819050919050565b616d5881616d46565b82525050565b5f602082019050616d715f830184616d4f565b92915050565b5f604051905090565b5f80fd5b5f80fd5b5f7fffffffff0000000000000000000000000000000000000000000000000000000082169050919050565b616dbc81616d88565b8114616dc6575f80fd5b50565b5f81359050616dd781616db3565b92915050565b5f60208284031215616df257616df1616d80565b5b5f616dff84828501616dc9565b91505092915050565b5f8115159050919050565b616e1c81616e08565b82525050565b5f602082019050616e355f830184616e13565b92915050565b616e4481616d46565b8114616e4e575f80fd5b50565b5f81359050616e5f81616e3b565b92915050565b5f60208284031215616e7a57616e79616d80565b5b5f616e8784828501616e51565b91505092915050565b5f73ffffffffffffffffffffffffffffffffffffffff82169050919050565b5f616eb982616e90565b9050919050565b616ec981616eaf565b82525050565b5f602082019050616ee25f830184616ec0565b92915050565b5f67ffffffffffffffff82169050919050565b616f0481616ee8565b8114616f0e575f80fd5b50565b5f81359050616f1f81616efb565b92915050565b616f2e81616eaf565b8114616f38575f80fd5b50565b5f81359050616f4981616f25565b92915050565b5f805f805f60a08688031215616f6857616f67616d80565b5b5f616f7588828901616f11565b9550506020616f8688828901616f3b565b9450506040616f9788828901616f3b565b9350506060616fa888828901616f3b565b9250506080616fb988828901616f3b565b9150509295509295909350565b5f60208284031215616fdb57616fda616d80565b5b5f616fe884828501616f11565b91505092915050565b616ffa81616ee8565b82525050565b5f6020820190506170135f830184616ff1565b92915050565b5f819050919050565b5f61703c61703761703284616e90565b617019565b616e90565b9050919050565b5f61704d82617022565b9050919050565b5f61705e82617043565b9050919050565b61706e81617054565b82525050565b5f6020820190506170875f830184617065565b92915050565b5f60ff82169050919050565b6170a28161708d565b81146170ac575f80fd5b50565b5f813590506170bd81617099565b92915050565b5f602082840312156170d8576170d7616d80565b5b5f6170e5848285016170af565b91505092915050565b5f61ffff82169050919050565b617104816170ee565b82525050565b5f60208201905061711d5f8301846170fb565b92915050565b5f806040838503121561713957617138616d80565b5b5f61714685828601616e51565b925050602061715785828601616f11565b9150509250929050565b5f62ffffff82169050919050565b61717881617161565b8114617182575f80fd5b50565b5f813590506171938161716f565b92915050565b5f805f805f60a086880312156171b2576171b1616d80565b5b5f6171bf88828901616f3b565b95505060206171d088828901616f3b565b94505060406171e188828901616e51565b93505060606171f288828901616f3b565b925050608061720388828901617185565b9150509295509295909350565b5f80fd5b5f60a0828403121561722957617228617210565b5b81905092915050565b5f6020828403121561724757617246616d80565b5b5f82013567ffffffffffffffff81111561726457617263616d84565b5b61727084828501617214565b91505092915050565b6172828161708d565b82525050565b5f60208201905061729b5f830184617279565b92915050565b5f80604083850312156172b7576172b6616d80565b5b5f6172c485828601616e51565b92505060206172d585828601616f3b565b9150509250929050565b5f602082840312156172f4576172f3616d80565b5b5f61730184828501616f3b565b91505092915050565b5f80fd5b5f80fd5b5f601f19601f8301169050919050565b7f4e487b71000000000000000000000000000000000000000000000000000000005f52604160045260245ffd5b61735882617312565b810181811067ffffffffffffffff8211171561737757617376617322565b5b80604052505050565b5f617389616d77565b9050617395828261734f565b919050565b5f67ffffffffffffffff8211156173b4576173b3617322565b5b6173bd82617312565b9050602081019050919050565b828183375f83830152505050565b5f6173ea6173e58461739a565b617380565b9050828152602081018484840111156174065761740561730e565b5b6174118482856173ca565b509392505050565b5f82601f83011261742d5761742c61730a565b5b813561743d8482602086016173d8565b91505092915050565b60028110617452575f80fd5b50565b5f8135905061746381617446565b92915050565b5f805f806080858703121561748157617480616d80565b5b5f61748e87828801616f11565b945050602061749f87828801616f3b565b935050604085013567ffffffffffffffff8111156174c0576174bf616d84565b5b6174cc87828801617419565b92505060606174dd87828801617455565b91505092959194509250565b5f819050919050565b6174fb816174e9565b82525050565b5f6020820190506175145f8301846174f2565b92915050565b5f61752482617043565b9050919050565b6175348161751a565b82525050565b5f60208201905061754d5f83018461752b565b92915050565b5f805f806080858703121561756b5761756a616d80565b5b5f61757887828801616f3b565b945050602061758987828801616f3b565b935050604061759a87828801616e51565b92505060606175ab87828801617185565b91505092959194509250565b5f6fffffffffffffffffffffffffffffffff82169050919050565b6175db816175b7565b81146175e5575f80fd5b50565b5f813590506175f6816175d2565b92915050565b5f805f806080858703121561761457617613616d80565b5b5f61762187828801616f3b565b945050602061763287828801616f3b565b9350506040617643878288016175e8565b925050606061765487828801617185565b91505092959194509250565b5f82825260208201905092915050565b7f496e697469616c697a61626c653a20636f6e747261637420697320616c7265615f8201527f647920696e697469616c697a6564000000000000000000000000000000000000602082015250565b5f6176ca602e83617660565b91506176d582617670565b604082019050919050565b5f6020820190508181035f8301526176f7816176be565b9050919050565b7f496e76616c696420636861696e2073656c6563746f72000000000000000000005f82015250565b5f617732601683617660565b915061773d826176fe565b602082019050919050565b5f6020820190508181035f83015261775f81617726565b9050919050565b7f496e76616c696420666163746f72792073746f726167652061646472657373005f82015250565b5f61779a601f83617660565b91506177a582617766565b602082019050919050565b5f6020820190508181035f8301526177c78161778e565b9050919050565b7f496e76616c696420436861696e6c696e6b20746f6b656e2061646472657373005f82015250565b5f617802601f83617660565b915061780d826177ce565b602082019050919050565b5f6020820190508181035f83015261782f816177f6565b9050919050565b7f496e76616c696420726f757465722061646472657373000000000000000000005f82015250565b5f61786a601683617660565b915061787582617836565b602082019050919050565b5f6020820190508181035f8301526178978161785e565b9050919050565b7f496e76616c6964205745544820616464726573730000000000000000000000005f82015250565b5f6178d2601483617660565b91506178dd8261789e565b602082019050919050565b5f6020820190508181035f8301526178ff816178c6565b9050919050565b5f6040820190506179195f830185616ec0565b6179266020830184616d4f565b9392505050565b61793681616e08565b8114617940575f80fd5b50565b5f815190506179518161792d565b92915050565b5f6020828403121561796c5761796b616d80565b5b5f61797984828501617943565b91505092915050565b5f819050919050565b5f6179a56179a061799b84617982565b617019565b61708d565b9050919050565b6179b58161798b565b82525050565b5f6020820190506179ce5f8301846179ac565b92915050565b5f815190506179e281616f25565b92915050565b5f602082840312156179fd576179fc616d80565b5b5f617a0a848285016179d4565b91505092915050565b7f4e487b71000000000000000000000000000000000000000000000000000000005f52601160045260245ffd5b5f617a4a82616d46565b9150617a5583616d46565b9250828201905080821115617a6d57617a6c617a13565b5b92915050565b5f81519050617a8181616e3b565b92915050565b5f60208284031215617a9c57617a9b616d80565b5b5f617aa984828501617a73565b91505092915050565b5f67ffffffffffffffff821115617acc57617acb617322565b5b602082029050602081019050919050565b5f80fd5b5f617af3617aee84617ab2565b617380565b90508083825260208201905060208402830185811115617b1657617b15617add565b5b835b81811015617b3f5780617b2b88826179d4565b845260208401935050602081019050617b18565b5050509392505050565b5f82601f830112617b5d57617b5c61730a565b5b8151617b6d848260208601617ae1565b91505092915050565b5f67ffffffffffffffff821115617b9057617b8f617322565b5b602082029050602081019050919050565b5f617bb3617bae84617b76565b617380565b90508083825260208201905060208402830185811115617bd657617bd5617add565b5b835b81811015617bff5780617beb8882617a73565b845260208401935050602081019050617bd8565b5050509392505050565b5f82601f830112617c1d57617c1c61730a565b5b8151617c2d848260208601617ba1565b91505092915050565b5f67ffffffffffffffff821115617c5057617c4f617322565b5b602082029050602081019050919050565b5f81519050617c6f8161716f565b92915050565b5f617c87617c8284617c36565b617380565b90508083825260208201905060208402830185811115617caa57617ca9617add565b5b835b81811015617cd35780617cbf8882617c61565b845260208401935050602081019050617cac565b5050509392505050565b5f82601f830112617cf157617cf061730a565b5b8151617d01848260208601617c75565b91505092915050565b5f67ffffffffffffffff821115617d2457617d23617322565b5b602082029050602081019050919050565b5f81519050617d4381616efb565b92915050565b5f617d5b617d5684617d0a565b617380565b90508083825260208201905060208402830185811115617d7e57617d7d617add565b5b835b81811015617da75780617d938882617d35565b845260208401935050602081019050617d80565b5050509392505050565b5f82601f830112617dc557617dc461730a565b5b8151617dd5848260208601617d49565b91505092915050565b5f805f8060808587031215617df657617df5616d80565b5b5f85015167ffffffffffffffff811115617e1357617e12616d84565b5b617e1f87828801617b49565b945050602085015167ffffffffffffffff811115617e4057617e3f616d84565b5b617e4c87828801617c09565b935050604085015167ffffffffffffffff811115617e6d57617e6c616d84565b5b617e7987828801617cdd565b925050606085015167ffffffffffffffff811115617e9a57617e99616d84565b5b617ea687828801617db1565b91505092959194509250565b7f4e487b71000000000000000000000000000000000000000000000000000000005f52603260045260245ffd5b5f617ee982616d46565b9150617ef483616d46565b9250828203905081811115617f0c57617f0b617a13565b5b92915050565b7f4e487b71000000000000000000000000000000000000000000000000000000005f52601260045260245ffd5b5f617f4982616d46565b9150617f5483616d46565b925082617f6457617f63617f12565b5b828204905092915050565b7f596f752073686f756c642077616974206174206c6561737420313220686f75725f8201527f7320616674657220746865206c61746573742075706461746500000000000000602082015250565b5f617fc9603983617660565b9150617fd482617f6f565b604082019050919050565b5f6020820190508181035f830152617ff681617fbd565b9050919050565b7f546865206e65774665652073686f756c64206265206265747765656e203120615f8201527f6e64203130302028302e303125202d2031252900000000000000000000000000602082015250565b5f618057603383617660565b915061806282617ffd565b604082019050919050565b5f6020820190508181035f8301526180848161804b565b9050919050565b5f60408201905061809e5f830185616d4f565b6180ab6020830184616ff1565b9392505050565b5f602082840312156180c7576180c6616d80565b5b5f82015167ffffffffffffffff8111156180e4576180e3616d84565b5b6180f084828501617c09565b91505092915050565b5f61810382616d46565b915061810e83616d46565b925082820261811c81616d46565b9150828204841483151761813357618132617a13565b5b5092915050565b7f496e76616c696420746f6b656e496e20616464726573730000000000000000005f82015250565b5f61816e601783617660565b91506181798261813a565b602082019050919050565b5f6020820190508181035f83015261819b81618162565b9050919050565b7f496e76616c696420746f6b656e4f7574206164647265737300000000000000005f82015250565b5f6181d6601883617660565b91506181e1826181a2565b602082019050919050565b5f6020820190508181035f830152618203816181ca565b9050919050565b7f416d6f756e74206d7573742062652067726561746572207468616e207a65726f5f82015250565b5f61823e602083617660565b91506182498261820a565b602082019050919050565b5f6020820190508181035f83015261826b81618232565b9050919050565b7f496e76616c696420726563697069656e742061646472657373000000000000005f82015250565b5f6182a6601983617660565b91506182b182618272565b602082019050919050565b5f6020820190508181035f8301526182d38161829a565b9050919050565b5f6182e482616eaf565b9050919050565b6182f4816182da565b81146182fe575f80fd5b50565b5f8151905061830f816182eb565b92915050565b5f6020828403121561832a57618329616d80565b5b5f61833784828501618301565b91505092915050565b5f61834a82616eaf565b9050919050565b61835a81618340565b8114618364575f80fd5b50565b5f8151905061837581618351565b92915050565b5f602082840312156183905761838f616d80565b5b5f61839d84828501618367565b91505092915050565b5f80fd5b5f80fd5b6183b7816174e9565b81146183c1575f80fd5b50565b5f813590506183d2816183ae565b92915050565b5f67ffffffffffffffff8211156183f2576183f1617322565b5b602082029050602081019050919050565b5f60408284031215618418576184176183a6565b5b6184226040617380565b90505f61843184828501616f3b565b5f83015250602061844484828501616e51565b60208301525092915050565b5f61846261845d846183d8565b617380565b9050808382526020820190506040840283018581111561848557618484617add565b5b835b818110156184ae578061849a8882618403565b845260208401935050604081019050618487565b5050509392505050565b5f82601f8301126184cc576184cb61730a565b5b81356184dc848260208601618450565b91505092915050565b5f60a082840312156184fa576184f96183a6565b5b61850460a0617380565b90505f618513848285016183c4565b5f83015250602061852684828501616f11565b602083015250604082013567ffffffffffffffff81111561854a576185496183aa565b5b61855684828501617419565b604083015250606082013567ffffffffffffffff81111561857a576185796183aa565b5b61858684828501617419565b606083015250608082013567ffffffffffffffff8111156185aa576185a96183aa565b5b6185b6848285016184b8565b60808301525092915050565b5f6185cd36836184e5565b9050919050565b5f6185de82616eaf565b9050919050565b6185ee816185d4565b81146185f8575f80fd5b50565b5f81519050618609816185e5565b92915050565b5f6020828403121561862457618623616d80565b5b5f618631848285016185fb565b91505092915050565b5f6020828403121561864f5761864e616d80565b5b5f61865c84828501617d35565b91505092915050565b5f6020828403121561867a57618679616d80565b5b5f61868784828501617c61565b91505092915050565b61869981617161565b82525050565b5f6080820190506186b25f830187616ec0565b6186bf6020830186616ec0565b6186cc6040830185616d4f565b6186d96060830184618690565b95945050505050565b7f50726f706f7361626c654f776e61626c653a206e6577206f776e6572206973205f8201527f746865207a65726f206164647265737300000000000000000000000000000000602082015250565b5f61873c603083617660565b9150618747826186e2565b604082019050919050565b5f6020820190508181035f83015261876981618730565b9050919050565b7f496e76616c69642064657374696e6174696f6e20636861696e2073656c6563745f8201527f6f72000000000000000000000000000000000000000000000000000000000000602082015250565b5f6187ca602283617660565b91506187d582618770565b604082019050919050565b5f6020820190508181035f8301526187f7816187be565b9050919050565b7f496e76616c6964207265636569766572206164647265737300000000000000005f82015250565b5f618832601883617660565b915061883d826187fe565b602082019050919050565b5f6020820190508181035f83015261885f81618826565b9050919050565b7f446174612063616e6e6f7420626520656d7074790000000000000000000000005f82015250565b5f61889a601483617660565b91506188a582618866565b602082019050919050565b5f6020820190508181035f8301526188c78161888e565b9050919050565b5f805f80608085870312156188e6576188e5616d80565b5b5f85015167ffffffffffffffff81111561890357618902616d84565b5b61890f87828801617b49565b945050602085015167ffffffffffffffff8111156189305761892f616d84565b5b61893c87828801617c09565b935050604085015167ffffffffffffffff81111561895d5761895c616d84565b5b61896987828801617c09565b925050606085015167ffffffffffffffff81111561898a57618989616d84565b5b61899687828801617db1565b91505092959194509250565b6189ab816175b7565b82525050565b5f6080820190506189c45f830187616ec0565b6189d16020830186616ec0565b6189de60408301856189a2565b6189eb6060830184618690565b95945050505050565b7f50726f706f7361626c654f776e61626c653a206e6577206f776e6572206973205f8201527f6e6f742070726f706f736564206f776e65720000000000000000000000000000602082015250565b5f618a4e603283617660565b9150618a59826189f4565b604082019050919050565b5f6020820190508181035f830152618a7b81618a42565b9050919050565b7f50726f706f7361626c654f776e61626c653a20746869732063616c6c206d75735f8201527f74206265206d61646520627920746865206e6577206f776e6572000000000000602082015250565b5f618adc603a83617660565b9150618ae782618a82565b604082019050919050565b5f6020820190508181035f830152618b0981618ad0565b9050919050565b7f496e697469616c697a61626c653a20636f6e7472616374206973206e6f7420695f8201527f6e697469616c697a696e67000000000000000000000000000000000000000000602082015250565b5f618b6a602b83617660565b9150618b7582618b10565b604082019050919050565b5f6020820190508181035f830152618b9781618b5e565b9050919050565b7f4f776e61626c653a2063616c6c6572206973206e6f7420746865206f776e65725f82015250565b5f618bd2602083617660565b9150618bdd82618b9e565b602082019050919050565b5f6020820190508181035f830152618bff81618bc6565b9050919050565b5f60208284031215618c1b57618c1a616d80565b5b5f82015167ffffffffffffffff811115618c3857618c37616d84565b5b618c4484828501617b49565b91505092915050565b5f819050919050565b5f618c70618c6b618c6684618c4d565b617019565b61708d565b9050919050565b618c8081618c56565b82525050565b5f81519050919050565b5f82825260208201905092915050565b5f819050602082019050919050565b618cb881616eaf565b82525050565b5f618cc98383618caf565b60208301905092915050565b5f602082019050919050565b5f618ceb82618c86565b618cf58185618c90565b9350618d0083618ca0565b805f5b83811015618d30578151618d178882618cbe565b9750618d2283618cd5565b925050600181019050618d03565b5085935050505092915050565b5f81519050919050565b5f82825260208201905092915050565b5f819050602082019050919050565b618d6f81616d46565b82525050565b5f618d808383618d66565b60208301905092915050565b5f602082019050919050565b5f618da282618d3d565b618dac8185618d47565b9350618db783618d57565b805f5b83811015618de7578151618dce8882618d75565b9750618dd983618d8c565b925050600181019050618dba565b5085935050505092915050565b5f61010082019050618e085f83018b618c77565b8181036020830152618e1a818a618ce1565b90508181036040830152618e2e8189618ce1565b90508181036060830152618e428188618d98565b90508181036080830152618e568187618d98565b9050618e6560a0830186616d4f565b81810360c0830152618e778185618d98565b905081810360e0830152618e8b8184618d98565b90509998505050505050505050565b5f819050919050565b5f618ebd618eb8618eb384618e9a565b617019565b61708d565b9050919050565b618ecd81618ea3565b82525050565b5f61010082019050618ee75f83018b618ec4565b8181036020830152618ef9818a618ce1565b90508181036040830152618f0d8189618ce1565b90508181036060830152618f218188618d98565b90508181036080830152618f358187618d98565b9050618f4460a0830186616d4f565b81810360c0830152618f568185618d98565b905081810360e0830152618f6a8184618d98565b90509998505050505050505050565b5f618f8382616e90565b9050919050565b618f9381618f79565b8114618f9d575f80fd5b50565b5f81519050618fae81618f8a565b92915050565b5f60208284031215618fc957618fc8616d80565b5b5f618fd684828501618fa0565b91505092915050565b5f805f805f8060c08789031215618ff957618ff8616d80565b5b5f61900689828a01617a73565b965050602087015167ffffffffffffffff81111561902757619026616d84565b5b61903389828a01617b49565b955050604087015167ffffffffffffffff81111561905457619053616d84565b5b61906089828a01617b49565b945050606061907189828a01617a73565b935050608087015167ffffffffffffffff81111561909257619091616d84565b5b61909e89828a01617c09565b92505060a087015167ffffffffffffffff8111156190bf576190be616d84565b5b6190cb89828a01617c09565b9150509295509295509295565b7f496e76616c696420695f726f75746572206164647265737300000000000000005f82015250565b5f61910c601883617660565b9150619117826190d8565b602082019050919050565b5f6020820190508181035f83015261913981619100565b9050919050565b7f496e76616c696420695f6c696e6b2061646472657373000000000000000000005f82015250565b5f619174601683617660565b915061917f82619140565b602082019050919050565b5f6020820190508181035f8301526191a181619168565b9050919050565b7f496e76616c69642064657374696e6174696f6e436861696e53656c6563746f725f82015250565b5f6191dc602083617660565b91506191e7826191a8565b602082019050919050565b5f6020820190508181035f830152619209816191d0565b9050919050565b7f496e76616c6964206461746100000000000000000000000000000000000000005f82015250565b5f619244600c83617660565b915061924f82619210565b602082019050919050565b5f6020820190508181035f83015261927181619238565b9050919050565b7f4e487b71000000000000000000000000000000000000000000000000000000005f52602160045260245ffd5b5f81519050919050565b5f82825260208201905092915050565b8281835e5f83830152505050565b5f6192d7826192a5565b6192e181856192af565b93506192f18185602086016192bf565b6192fa81617312565b840191505092915050565b5f81519050919050565b5f82825260208201905092915050565b5f819050602082019050919050565b604082015f8201516193425f850182618caf565b5060208201516193556020850182618d66565b50505050565b5f619366838361932e565b60408301905092915050565b5f602082019050919050565b5f61938882619305565b619392818561930f565b935061939d8361931f565b805f5b838110156193cd5781516193b4888261935b565b97506193bf83619372565b9250506001810190506193a0565b5085935050505092915050565b5f60a083015f8301518482035f8601526193f482826192cd565b9150506020830151848203602086015261940e82826192cd565b91505060408301518482036040860152619428828261937e565b915050606083015161943d6060860182618caf565b506080830151848203608086015261945582826192cd565b9150508091505092915050565b5f6040820190506194755f830185616ff1565b818103602083015261948781846193da565b90509392505050565b5f8151905061949e816183ae565b92915050565b5f602082840312156194b9576194b8616d80565b5b5f6194c684828501619490565b91505092915050565b5f819050919050565b5f6194f26194ed6194e8846194cf565b617019565b61708d565b9050919050565b619502816194d8565b82525050565b5f6101008201905061951c5f83018b6194f9565b818103602083015261952e818a618ce1565b905081810360408301526195428189618ce1565b905081810360608301526195568188618d98565b9050818103608083015261956a8187618d98565b905061957960a0830186616d4f565b81810360c083015261958b8185618d98565b905081810360e083015261959f8184618d98565b90509998505050505050505050565b5f6060820190506195c15f830186616ec0565b6195ce6020830185616ec0565b6195db6040830184616d4f565b949350505050565b6195ec81617161565b82525050565b6195fb81616e90565b82525050565b61010082015f8201516196165f850182618caf565b5060208201516196296020850182618caf565b50604082015161963c60408501826195e3565b50606082015161964f6060850182618caf565b5060808201516196626080850182618d66565b5060a082015161967560a0850182618d66565b5060c082015161968860c0850182618d66565b5060e082015161969b60e08501826195f2565b50505050565b5f610100820190506196b55f830184619601565b92915050565b5f6040820190506196ce5f830185616d4f565b81810360208301526196e08184618ce1565b90509392505050565b5f819050919050565b5f61970c619707619702846196e9565b617019565b616d46565b9050919050565b61971c816196f2565b82525050565b5f60a0820190506197355f830188616d4f565b6197426020830187619713565b81810360408301526197548186618ce1565b90506197636060830185616ec0565b6197706080830184616d4f565b9695505050505050565b602082015f82015161978e5f850182618d66565b50505050565b5f6020820190506197a75f83018461977a565b92915050565b7f4d6178696d756d203520646966666572656e7420746f6b656e732063616e20625f8201527f652073656e74207065722043434950204d657373616765000000000000000000602082015250565b5f619807603783617660565b9150619812826197ad565b604082019050919050565b5f6020820190508181035f830152619834816197fb565b905091905056fea2646970667358221220d36fcb96af725666d04316274f0b8edcca3bfd055bb2234ddfdddbec01deb93b64736f6c634300081a0033","linkReferences":{}},"methodIdentifiers":{"askValues()":"2700cc86","ccipReceive((bytes32,uint64,bytes,bytes,(address,uint256)[]))":"85572ffb","chainValueByNonce(uint256,uint64)":"69abf538","convertEthToUsd(uint256)":"c086381e","crossChainFactoryBySelector(uint64)":"340fbc74","crossChainToken(uint64)":"19da7e2a","currentChainSelector()":"3d54cb6f","estimateAmountOut(address,address,uint128,uint24)":"ee7bd3e2","extraWethByNonce(uint256)":"756c1fd1","factoryStorage()":"c06e1ae2","feeRate()":"978bbdb9","firstReweightAction()":"63713a8b","getAmountOut(address,address,uint256,uint24)":"dd811ac9","getPortfolioBalance()":"a8509fd8","getRouter()":"b0f479a1","i_link()":"7d253aff","i_maxTokensLength()":"5b6a0351","initialize(uint64,address,address,address,address)":"16b487ff","latestFeeUpdate()":"011ced5f","owner()":"8da5cb5b","portfolioTotalValueByNonce(uint256)":"7d3546f7","priceInWei()":"3c8da588","proposeOwner(address)":"b5ed298a","proposedOwner()":"d153b60c","redemptionNonceOutputToken(uint256)":"0603fb05","redemptionNonceOutputTokenSwapFee(uint256)":"afcaa952","renounceOwnership()":"715018a6","reweightExtraPercentage(uint256)":"814ffd71","reweightTokensCount(uint256)":"78324463","reweightWethValueByNonce(uint256)":"f1639b09","secondReweightAction()":"d79e8d65","sendMessage(uint64,address,bytes,uint8)":"bcab90b3","setFeeRate(uint8)":"5177942a","setIndexFactoryStorage(address)":"cc8659ae","supportsInterface(bytes4)":"01ffc9a7","swap(address,address,uint256,address,uint24)":"7e79f512","tokenValueByNonce(uint256,address)":"b316e7fd","transferOwnership(address)":"f2fde38b","updatePortfolioNonce()":"003cf402","updatedTokensValueCount(uint256)":"c070a097","weth()":"3fc8cef3"},"id":6}