{"abi":[{"type":"receive","stateMutability":"payable"},{"type":"function","name":"askValues","inputs":[],"outputs":[],"stateMutability":"nonpayable"},{"type":"function","name":"ccipReceive","inputs":[{"name":"message","type":"tuple","internalType":"struct Client.Any2EVMMessage","components":[{"name":"messageId","type":"bytes32","internalType":"bytes32"},{"name":"sourceChainSelector","type":"uint64","internalType":"uint64"},{"name":"sender","type":"bytes","internalType":"bytes"},{"name":"data","type":"bytes","internalType":"bytes"},{"name":"destTokenAmounts","type":"tuple[]","internalType":"struct Client.EVMTokenAmount[]","components":[{"name":"token","type":"address","internalType":"address"},{"name":"amount","type":"uint256","internalType":"uint256"}]}]}],"outputs":[],"stateMutability":"nonpayable"},{"type":"function","name":"chainValueByNonce","inputs":[{"name":"","type":"uint256","internalType":"uint256"},{"name":"","type":"uint64","internalType":"uint64"}],"outputs":[{"name":"","type":"uint256","internalType":"uint256"}],"stateMutability":"view"},{"type":"function","name":"convertEthToUsd","inputs":[{"name":"_ethAmount","type":"uint256","internalType":"uint256"}],"outputs":[{"name":"","type":"uint256","internalType":"uint256"}],"stateMutability":"view"},{"type":"function","name":"crossChainFactoryBySelector","inputs":[{"name":"_chainSelector","type":"uint64","internalType":"uint64"}],"outputs":[{"name":"","type":"address","internalType":"address"}],"stateMutability":"view"},{"type":"function","name":"crossChainToken","inputs":[{"name":"_chainSelector","type":"uint64","internalType":"uint64"}],"outputs":[{"name":"","type":"address","internalType":"address"}],"stateMutability":"view"},{"type":"function","name":"currentChainSelector","inputs":[],"outputs":[{"name":"","type":"uint64","internalType":"uint64"}],"stateMutability":"view"},{"type":"function","name":"estimateAmountOut","inputs":[{"name":"tokenIn","type":"address","internalType":"address"},{"name":"tokenOut","type":"address","internalType":"address"},{"name":"amountIn","type":"uint128","internalType":"uint128"}],"outputs":[{"name":"amountOut","type":"uint256","internalType":"uint256"}],"stateMutability":"view"},{"type":"function","name":"extraWethByNonce","inputs":[{"name":"","type":"uint256","internalType":"uint256"}],"outputs":[{"name":"","type":"uint256","internalType":"uint256"}],"stateMutability":"view"},{"type":"function","name":"factoryStorage","inputs":[],"outputs":[{"name":"","type":"address","internalType":"contract IndexFactoryStorage"}],"stateMutability":"view"},{"type":"function","name":"feeRate","inputs":[],"outputs":[{"name":"","type":"uint8","internalType":"uint8"}],"stateMutability":"view"},{"type":"function","name":"firstReweightAction","inputs":[],"outputs":[],"stateMutability":"nonpayable"},{"type":"function","name":"getAmountOut","inputs":[{"name":"tokenIn","type":"address","internalType":"address"},{"name":"tokenOut","type":"address","internalType":"address"},{"name":"amountIn","type":"uint256","internalType":"uint256"},{"name":"_swapFee","type":"uint24","internalType":"uint24"}],"outputs":[{"name":"finalAmountOut","type":"uint256","internalType":"uint256"}],"stateMutability":"view"},{"type":"function","name":"getPortfolioBalance","inputs":[],"outputs":[{"name":"","type":"uint256","internalType":"uint256"}],"stateMutability":"view"},{"type":"function","name":"getRouter","inputs":[],"outputs":[{"name":"","type":"address","internalType":"address"}],"stateMutability":"view"},{"type":"function","name":"i_link","inputs":[],"outputs":[{"name":"","type":"address","internalType":"address"}],"stateMutability":"view"},{"type":"function","name":"i_maxTokensLength","inputs":[],"outputs":[{"name":"","type":"uint16","internalType":"uint16"}],"stateMutability":"view"},{"type":"function","name":"indexToken","inputs":[],"outputs":[{"name":"","type":"address","internalType":"contract IndexToken"}],"stateMutability":"view"},{"type":"function","name":"initialize","inputs":[{"name":"_currentChainSelector","type":"uint64","internalType":"uint64"},{"name":"_token","type":"address","internalType":"address payable"},{"name":"_factoryStorage","type":"address","internalType":"address"},{"name":"_chainlinkToken","type":"address","internalType":"address"},{"name":"_router","type":"address","internalType":"address"},{"name":"_weth","type":"address","internalType":"address"}],"outputs":[],"stateMutability":"nonpayable"},{"type":"function","name":"latestFeeUpdate","inputs":[],"outputs":[{"name":"","type":"uint256","internalType":"uint256"}],"stateMutability":"view"},{"type":"function","name":"owner","inputs":[],"outputs":[{"name":"","type":"address","internalType":"address"}],"stateMutability":"view"},{"type":"function","name":"portfolioTotalValueByNonce","inputs":[{"name":"","type":"uint256","internalType":"uint256"}],"outputs":[{"name":"","type":"uint256","internalType":"uint256"}],"stateMutability":"view"},{"type":"function","name":"priceInWei","inputs":[],"outputs":[{"name":"","type":"uint256","internalType":"uint256"}],"stateMutability":"view"},{"type":"function","name":"proposeOwner","inputs":[{"name":"_proposedOwner","type":"address","internalType":"address"}],"outputs":[],"stateMutability":"nonpayable"},{"type":"function","name":"proposedOwner","inputs":[],"outputs":[{"name":"","type":"address","internalType":"address"}],"stateMutability":"view"},{"type":"function","name":"redemptionNonceOutputToken","inputs":[{"name":"","type":"uint256","internalType":"uint256"}],"outputs":[{"name":"","type":"address","internalType":"address"}],"stateMutability":"view"},{"type":"function","name":"redemptionNonceOutputTokenSwapFee","inputs":[{"name":"","type":"uint256","internalType":"uint256"}],"outputs":[{"name":"","type":"uint256","internalType":"uint256"}],"stateMutability":"view"},{"type":"function","name":"renounceOwnership","inputs":[],"outputs":[],"stateMutability":"nonpayable"},{"type":"function","name":"reweightExtraPercentage","inputs":[{"name":"","type":"uint256","internalType":"uint256"}],"outputs":[{"name":"","type":"uint256","internalType":"uint256"}],"stateMutability":"view"},{"type":"function","name":"reweightTokensCount","inputs":[{"name":"","type":"uint256","internalType":"uint256"}],"outputs":[{"name":"","type":"uint256","internalType":"uint256"}],"stateMutability":"view"},{"type":"function","name":"reweightWethValueByNonce","inputs":[{"name":"","type":"uint256","internalType":"uint256"}],"outputs":[{"name":"","type":"uint256","internalType":"uint256"}],"stateMutability":"view"},{"type":"function","name":"secondReweightAction","inputs":[],"outputs":[],"stateMutability":"nonpayable"},{"type":"function","name":"sendMessage","inputs":[{"name":"destinationChainSelector","type":"uint64","internalType":"uint64"},{"name":"receiver","type":"address","internalType":"address"},{"name":"_data","type":"bytes","internalType":"bytes"},{"name":"payFeesIn","type":"uint8","internalType":"enum IndexFactoryBalancer.PayFeesIn"}],"outputs":[],"stateMutability":"nonpayable"},{"type":"function","name":"setFeeRate","inputs":[{"name":"_newFee","type":"uint8","internalType":"uint8"}],"outputs":[],"stateMutability":"nonpayable"},{"type":"function","name":"setIndexFactoryStorage","inputs":[{"name":"_factoryStorage","type":"address","internalType":"address"}],"outputs":[],"stateMutability":"nonpayable"},{"type":"function","name":"supportsInterface","inputs":[{"name":"interfaceId","type":"bytes4","internalType":"bytes4"}],"outputs":[{"name":"","type":"bool","internalType":"bool"}],"stateMutability":"pure"},{"type":"function","name":"swap","inputs":[{"name":"tokenIn","type":"address","internalType":"address"},{"name":"tokenOut","type":"address","internalType":"address"},{"name":"amountIn","type":"uint256","internalType":"uint256"},{"name":"_recipient","type":"address","internalType":"address"},{"name":"_swapFee","type":"uint24","internalType":"uint24"}],"outputs":[{"name":"outputAmount","type":"uint256","internalType":"uint256"}],"stateMutability":"nonpayable"},{"type":"function","name":"tokenValueByNonce","inputs":[{"name":"","type":"uint256","internalType":"uint256"},{"name":"","type":"address","internalType":"address"}],"outputs":[{"name":"","type":"uint256","internalType":"uint256"}],"stateMutability":"view"},{"type":"function","name":"transferOwnership","inputs":[{"name":"newOwner","type":"address","internalType":"address"}],"outputs":[],"stateMutability":"nonpayable"},{"type":"function","name":"updatePortfolioNonce","inputs":[],"outputs":[{"name":"","type":"uint256","internalType":"uint256"}],"stateMutability":"view"},{"type":"function","name":"updatedTokensValueCount","inputs":[{"name":"","type":"uint256","internalType":"uint256"}],"outputs":[{"name":"","type":"uint256","internalType":"uint256"}],"stateMutability":"view"},{"type":"function","name":"weth","inputs":[],"outputs":[{"name":"","type":"address","internalType":"contract IWETH"}],"stateMutability":"view"},{"type":"event","name":"Initialized","inputs":[{"name":"version","type":"uint8","indexed":false,"internalType":"uint8"}],"anonymous":false},{"type":"event","name":"MessageSent","inputs":[{"name":"messageId","type":"bytes32","indexed":false,"internalType":"bytes32"}],"anonymous":false},{"type":"event","name":"OwnershipTransferred","inputs":[{"name":"previousOwner","type":"address","indexed":true,"internalType":"address"},{"name":"newOwner","type":"address","indexed":true,"internalType":"address"}],"anonymous":false},{"type":"error","name":"InvalidRouter","inputs":[{"name":"router","type":"address","internalType":"address"}]}],"bytecode":{"object":"0x608060405234801561001057600080fd5b50615a0d80620000216000396000f3fe6080604052600436106102545760003560e01c8063814ffd7111610139578063c06e1ae2116100b6578063d79e8d651161007a578063d79e8d65146107af578063dd811ac9146107c4578063e7d015f2146107e4578063edba0e3114610804578063f1639b0914610824578063f2fde38b1461085157600080fd5b8063c06e1ae214610702578063c070a09714610722578063c086381e1461074f578063cc8659ae1461076f578063d153b60c1461078f57600080fd5b8063afcaa952116100fd578063afcaa95214610639578063b0f479a114610666578063b316e7fd1461068a578063b5ed298a146106c2578063bcab90b3146106e257600080fd5b8063814ffd711461058657806385572ffb146105b35780638da5cb5b146105d3578063978bbdb9146105f1578063a8509fd81461062457600080fd5b80633fc8cef3116101d2578063715018a611610196578063715018a6146104aa578063756c1fd1146104bf57806378324463146104ec5780637d253aff146105195780637d3546f7146105395780637e79f5121461056657600080fd5b80633fc8cef3146103e15780635177942a146104085780635b6a03511461042857806363713a8b1461045d57806369abf5381461047257600080fd5b806319da7e2a1161021957806319da7e2a1461033d5780632700cc861461035d578063340fbc74146103745780633c8da588146103945780633d54cb6f146103a957600080fd5b80623cf40214610260578063011ced5f1461028957806301ffc9a71461029f5780630456f9c8146102cf5780630603fb05146102ef57600080fd5b3661025b57005b600080fd5b34801561026c57600080fd5b50610276609d5481565b6040519081526020015b60405180910390f35b34801561029557600080fd5b50610276609b5481565b3480156102ab57600080fd5b506102bf6102ba366004615157565b610871565b6040519015158152602001610280565b3480156102db57600080fd5b506102766102ea366004614dff565b6108a8565b3480156102fb57600080fd5b5061032561030a3660046151d8565b60a6602052600090815260409020546001600160a01b031681565b6040516001600160a01b039091168152602001610280565b34801561034957600080fd5b50610325610358366004615304565b610944565b34801561036957600080fd5b506103726109ca565b005b34801561038057600080fd5b5061032561038f366004615304565b61115d565b3480156103a057600080fd5b50610276611197565b3480156103b557600080fd5b50609c546103c9906001600160401b031681565b6040516001600160401b039091168152602001610280565b3480156103ed57600080fd5b50609c5461032590600160401b90046001600160a01b031681565b34801561041457600080fd5b5061037261042336600461542d565b611219565b34801561043457600080fd5b5060995461044a90600160a01b900461ffff1681565b60405161ffff9091168152602001610280565b34801561046957600080fd5b50610372611368565b34801561047e57600080fd5b5061027661048d3660046152df565b60a260209081526000928352604080842090915290825290205481565b3480156104b657600080fd5b5061037261188f565b3480156104cb57600080fd5b506102766104da3660046151d8565b609f6020526000908152604090205481565b3480156104f857600080fd5b506102766105073660046151d8565b60a46020526000908152604090205481565b34801561052557600080fd5b50609954610325906001600160a01b031681565b34801561054557600080fd5b506102766105543660046151d8565b609e6020526000908152604090205481565b34801561057257600080fd5b50610276610581366004614e56565b6118a3565b34801561059257600080fd5b506102766105a13660046151d8565b60a56020526000908152604090205481565b3480156105bf57600080fd5b506103726105ce366004615181565b6119d3565b3480156105df57600080fd5b506033546001600160a01b0316610325565b3480156105fd57600080fd5b50609a5461061290600160a01b900460ff1681565b60405160ff9091168152602001610280565b34801561063057600080fd5b50610276611a1a565b34801561064557600080fd5b506102766106543660046151d8565b60a76020526000908152604090205481565b34801561067257600080fd5b506000546201000090046001600160a01b0316610325565b34801561069657600080fd5b506102766106a53660046151f1565b60a160209081526000928352604080842090915290825290205481565b3480156106ce57600080fd5b506103726106dd366004614dbe565b611da8565b3480156106ee57600080fd5b506103726106fd3660046153c0565b611df8565b34801561070e57600080fd5b50609854610325906001600160a01b031681565b34801561072e57600080fd5b5061027661073d3660046151d8565b60a06020526000908152604090205481565b34801561075b57600080fd5b5061027661076a3660046151d8565b6120d0565b34801561077b57600080fd5b5061037261078a366004614dbe565b6120f7565b34801561079b57600080fd5b50606554610325906001600160a01b031681565b3480156107bb57600080fd5b50610372612121565b3480156107d057600080fd5b506102766107df366004614ebe565b6125bd565b3480156107f057600080fd5b50609a54610325906001600160a01b031681565b34801561081057600080fd5b5061037261081f36600461533e565b61265e565b34801561083057600080fd5b5061027661083f3660046151d8565b60a36020526000908152604090205481565b34801561085d57600080fd5b5061037261086c366004614dbe565b6128a7565b60006001600160e01b031982166385572ffb60e01b14806108a257506001600160e01b031982166301ffc9a760e01b145b92915050565b609854604051628adf3960e31b81526001600160a01b03858116600483015284811660248301526001600160801b03841660448301526000921690630456f9c89060640160206040518083038186803b15801561090457600080fd5b505afa158015610918573d6000803e3d6000fd5b505050506040513d601f19601f8201168201806040525081019061093c919061513e565b949350505050565b609854604051630ced3f1560e11b81526001600160401b03831660048201526000916001600160a01b0316906319da7e2a906024015b60206040518083038186803b15801561099257600080fd5b505afa1580156109a6573d6000803e3d6000fd5b505050506040513d601f19601f820116820180604052508101906108a29190614de2565b6109d26129cc565b6001609d60008282546109e5919061580d565b909155505060985460408051631a521ec760e21b815290516000926001600160a01b0316916369487b1c916004808301926020929190829003018186803b158015610a2f57600080fd5b505afa158015610a43573d6000803e3d6000fd5b505050506040513d601f19601f82011682018060405250810190610a67919061513e565b90506000609860009054906101000a90046001600160a01b03166001600160a01b031663b90b8a2a6040518163ffffffff1660e01b815260040160206040518083038186803b158015610ab957600080fd5b505afa158015610acd573d6000803e3d6000fd5b505050506040513d601f19601f82011682018060405250810190610af1919061513e565b905060005b82811015611158576098546040516369fbf93360e11b8152600481018490526000916001600160a01b03169063d3f7f2669060240160006040518083038186803b158015610b4357600080fd5b505afa158015610b57573d6000803e3d6000fd5b505050506040513d6000823e601f3d908101601f19168201604052610b7f9190810190614f45565b93505050506000818381518110610b9857610b98615970565b602090810291909101015160985460405163b6ad185b60e01b81526001600160401b03831660048201529192506000916001600160a01b039091169063b6ad185b9060240160206040518083038186803b158015610bf557600080fd5b505afa158015610c09573d6000803e3d6000fd5b505050506040513d601f19601f82011682018060405250810190610c2d919061513e565b609c549091506001600160401b0383811691161415610fbe5760985460405163d1c68aa360e01b81526001600160401b03841660048201526000916001600160a01b03169063d1c68aa39060240160006040518083038186803b158015610c9357600080fd5b505afa158015610ca7573d6000803e3d6000fd5b505050506040513d6000823e601f3d908101601f19168201604052610ccf9190810190614f11565b905060005b82811015610fb7576000828281518110610cf057610cf0615970565b6020908102919091010151609854604051633259966560e01b81526001600160a01b0380841660048301529293506000929091169063325996659060240160206040518083038186803b158015610d4657600080fd5b505afa158015610d5a573d6000803e3d6000fd5b505050506040513d601f19601f82011682018060405250810190610d7e91906151bb565b609c549091506000906001600160a01b03848116600160401b909204161415610e2557609a546040516370a0823160e01b81526001600160a01b039182166004820152908416906370a082319060240160206040518083038186803b158015610de657600080fd5b505afa158015610dfa573d6000803e3d6000fd5b505050506040513d601f19601f82011682018060405250810190610e1e919061513e565b9050610ebf565b609c54609a546040516370a0823160e01b81526001600160a01b039182166004820152610ebc928692600160401b909104811691908316906370a082319060240160206040518083038186803b158015610e7e57600080fd5b505afa158015610e92573d6000803e3d6000fd5b505050506040513d601f19601f82011682018060405250810190610eb6919061513e565b856125bd565b90505b610ec8816120d0565b609d546000908152609e602052604081208054909190610ee990849061580d565b90915550610ef89050816120d0565b609d54600090815260a1602090815260408083206001600160a01b038816845290915281208054909190610f2d90849061580d565b9091555050609d54600090815260a060205260408120805460019290610f5490849061580d565b90915550610f639050816120d0565b609d54600090815260a260209081526040808320609c546001600160401b0316845290915281208054909190610f9a90849061580d565b925050819055505050508080610faf90615929565b915050610cd4565b5050611142565b6000610fc98361115d565b60985460405163d1c68aa360e01b81526001600160401b03861660048201529192506000916001600160a01b039091169063d1c68aa39060240160006040518083038186803b15801561101b57600080fd5b505afa15801561102f573d6000803e3d6000fd5b505050506040513d6000823e601f3d908101601f191682016040526110579190810190614f11565b60985460405163221f337160e01b81526001600160401b03871660048201529192506000916001600160a01b039091169063221f33719060240160006040518083038186803b1580156110a957600080fd5b505afa1580156110bd573d6000803e3d6000fd5b505050506040513d6000823e601f3d908101601f191682016040526110e591908101906150e8565b60408051600080825260208201818152828401909352609d54939450909261111d906002908790869088908790818060608601615511565b604051602081830303815290604052905061113b8887836001611df8565b5050505050505b505050808061115090615929565b915050610af6565b505050565b609854604051630d03ef1d60e21b81526001600160401b03831660048201526000916001600160a01b03169063340fbc749060240161097a565b60985460408051630791b4b160e31b815290516000926001600160a01b031691633c8da588916004808301926020929190829003018186803b1580156111dc57600080fd5b505afa1580156111f0573d6000803e3d6000fd5b505050506040513d601f19601f82011682018060405250810190611214919061513e565b905090565b6112216129cc565b6000609b54426112319190615866565b9050600c603c6112418184615825565b61124b9190615825565b116112c35760405162461bcd60e51b815260206004820152603960248201527f596f752073686f756c642077616974206174206c6561737420313220686f757260448201527f7320616674657220746865206c6174657374207570646174650000000000000060648201526084015b60405180910390fd5b60648260ff16111580156112db575060018260ff1610155b6113435760405162461bcd60e51b815260206004820152603360248201527f546865206e65774665652073686f756c64206265206265747765656e203120616044820152726e64203130302028302e303125202d2031252960681b60648201526084016112ba565b50609a805460ff909216600160a01b0260ff60a01b1990921691909117905542609b55565b6113706129cc565b609d546000818152609e60209081526040808320546098548251631a521ec760e21b815292519194936001600160a01b03909116926369487b1c9260048083019392829003018186803b1580156113c657600080fd5b505afa1580156113da573d6000803e3d6000fd5b505050506040513d601f19601f820116820180604052508101906113fe919061513e565b90506000609860009054906101000a90046001600160a01b03166001600160a01b031663b90b8a2a6040518163ffffffff1660e01b815260040160206040518083038186803b15801561145057600080fd5b505afa158015611464573d6000803e3d6000fd5b505050506040513d601f19601f82011682018060405250810190611488919061513e565b90506000609860009054906101000a90046001600160a01b03166001600160a01b031663f15817876040518163ffffffff1660e01b815260040160206040518083038186803b1580156114da57600080fd5b505afa1580156114ee573d6000803e3d6000fd5b505050506040513d601f19601f82011682018060405250810190611512919061513e565b905060005b83811015611887576098546040516369fbf93360e11b8152600481018590526000916001600160a01b03169063d3f7f2669060240160006040518083038186803b15801561156457600080fd5b505afa158015611578573d6000803e3d6000fd5b505050506040513d6000823e601f3d908101601f191682016040526115a09190810190614f45565b935050505060008183815181106115b9576115b9615970565b602090810291909101015160985460405163b6ad185b60e01b81526001600160401b03831660048201529192506000916001600160a01b039091169063b6ad185b9060240160206040518083038186803b15801561161657600080fd5b505afa15801561162a573d6000803e3d6000fd5b505050506040513d601f19601f8201168201806040525081019061164e919061513e565b609854604051637e34c5a560e11b81526001600160401b03851660048201529192506000916001600160a01b039091169063fc698b4a9060240160206040518083038186803b1580156116a057600080fd5b505afa1580156116b4573d6000803e3d6000fd5b505050506040513d601f19601f820116820180604052508101906116d8919061513e565b609854604051632a3ff8ad60e01b8152600481018990526001600160401b03861660248201529192506000916001600160a01b0390911690632a3ff8ad9060440160206040518083038186803b15801561173157600080fd5b505afa158015611745573d6000803e3d6000fd5b505050506040513d601f19601f82011682018060405250810190611769919061513e565b60008c815260a2602090815260408083206001600160401b03891680855292528083205460985491516302fc352760e61b815260048101939093529394506001600160a01b03169063bf0d49c09060240160006040518083038186803b1580156117d257600080fd5b505afa1580156117e6573d6000803e3d6000fd5b505050506040513d6000823e601f3d908101601f1916820160405261180e91908101906150e8565b9050828c6118258468056bc75e2d63100000615847565b61182f9190615825565b111561186d57609c546001600160401b038781169116141561185f5761185a888e8e89898989612a26565b61186d565b61186d8d8d88868686613074565b50505050505050808061187f90615929565b915050611517565b505050505050565b6118976129cc565b6118a160006133df565b565b600080609860009054906101000a90046001600160a01b03166001600160a01b031663b631e80b6040518163ffffffff1660e01b815260040160206040518083038186803b1580156118f457600080fd5b505afa158015611908573d6000803e3d6000fd5b505050506040513d601f19601f8201168201806040525081019061192c9190614de2565b90506000609860009054906101000a90046001600160a01b03166001600160a01b031663744fbc7a6040518163ffffffff1660e01b815260040160206040518083038186803b15801561197e57600080fd5b505afa158015611992573d6000803e3d6000fd5b505050506040513d601f19601f820116820180604052508101906119b69190614de2565b90506119c78282868b8b8b8b613431565b98975050505050505050565b6000546201000090046001600160a01b03163314611a06576040516335fdcccd60e21b81523360048201526024016112ba565b611a17611a128261587d565b61346e565b50565b6000806000609860009054906101000a90046001600160a01b03166001600160a01b03166353fd43326040518163ffffffff1660e01b815260040160206040518083038186803b158015611a6d57600080fd5b505afa158015611a81573d6000803e3d6000fd5b505050506040513d601f19601f82011682018060405250810190611aa5919061513e565b905060005b81811015611da05760985460405163264cae9360e21b8152600481018390526000916001600160a01b031690639932ba4c9060240160206040518083038186803b158015611af757600080fd5b505afa158015611b0b573d6000803e3d6000fd5b505050506040513d601f19601f82011682018060405250810190611b2f9190614de2565b609854604051633aa3b3c160e21b81526001600160a01b0380841660048301529293506000929091169063ea8ecf049060240160206040518083038186803b158015611b7a57600080fd5b505afa158015611b8e573d6000803e3d6000fd5b505050506040513d601f19601f82011682018060405250810190611bb29190615321565b609854604051633259966560e01b81526001600160a01b0385811660048301529293506000929091169063325996659060240160206040518083038186803b158015611bfd57600080fd5b505afa158015611c11573d6000803e3d6000fd5b505050506040513d601f19601f82011682018060405250810190611c3591906151bb565b609c549091506001600160401b0383811691161415611d8a57609854609c54609a546040516370a0823160e01b81526001600160a01b03918216600482015260009382169263dd811ac9928892600160401b909204811691908316906370a082319060240160206040518083038186803b158015611cb257600080fd5b505afa158015611cc6573d6000803e3d6000fd5b505050506040513d601f19601f82011682018060405250810190611cea919061513e565b6040516001600160e01b031960e086901b1681526001600160a01b039384166004820152929091166024830152604482015262ffffff8516606482015260840160206040518083038186803b158015611d4257600080fd5b505afa158015611d56573d6000803e3d6000fd5b505050506040513d601f19601f82011682018060405250810190611d7a919061513e565b9050611d86818861580d565b9650505b5050508080611d9890615929565b915050611aaa565b509092915050565b611db06129cc565b6001600160a01b038116611dd65760405162461bcd60e51b81526004016112ba906155a7565b606580546001600160a01b0319166001600160a01b0392909216919091179055565b6040805160a0810182526001600160a01b03851660c0808301919091528251808303909101815260e08201835281526020808201859052825160008082529181018452909282019083611e6d565b6040805180820190915260008082526020820152815260200190600190039081611e465790505b5081526020016001846001811115611e8757611e8761595a565b14611e93576000611ea0565b6099546001600160a01b03165b6001600160a01b03168152602001611ec86040518060200160405280620dbba081525061376f565b9052600080546040516320487ded60e01b81529293509091620100009091046001600160a01b0316906320487ded90611f079089908690600401615697565b60206040518083038186803b158015611f1f57600080fd5b505afa158015611f33573d6000803e3d6000fd5b505050506040513d601f19601f82011682018060405250810190611f57919061513e565b905060006001846001811115611f6f57611f6f61595a565b1415612005576000546040516396f4e9f960e01b8152620100009091046001600160a01b0316906396f4e9f990611fac908a908790600401615697565b602060405180830381600087803b158015611fc657600080fd5b505af1158015611fda573d6000803e3d6000fd5b505050506040513d601f19601f82011682018060405250810190611ffe919061513e565b9050612093565b6000546040516396f4e9f960e01b8152620100009091046001600160a01b0316906396f4e9f990849061203e908b908890600401615697565b6020604051808303818588803b15801561205757600080fd5b505af115801561206b573d6000803e3d6000fd5b50505050506040513d601f19601f82011682018060405250810190612090919061513e565b90505b6040518181527f54791b38f3859327992a1ca0590ad3c0f08feba98d1a4f56ab0dca74d203392a906020015b60405180910390a150505050505050565b6000670de0b6b3a76400006120e3611197565b6120ed9084615847565b6108a29190615825565b6120ff6129cc565b609880546001600160a01b0319166001600160a01b0392909216919091179055565b6121296129cc565b609d546000818152609e602090815260408083205460985482516311d3af8360e31b815292519194936001600160a01b0390911692638e9d7c189260048083019392829003018186803b15801561217f57600080fd5b505afa158015612193573d6000803e3d6000fd5b505050506040513d601f19601f820116820180604052508101906121b7919061513e565b90506000609860009054906101000a90046001600160a01b03166001600160a01b031663f15817876040518163ffffffff1660e01b815260040160206040518083038186803b15801561220957600080fd5b505afa15801561221d573d6000803e3d6000fd5b505050506040513d601f19601f82011682018060405250810190612241919061513e565b905060005b828110156125b6576098546040516329b71fb560e11b8152600481018490526000916001600160a01b03169063536e3f6a9060240160006040518083038186803b15801561229357600080fd5b505afa1580156122a7573d6000803e3d6000fd5b505050506040513d6000823e601f3d908101601f191682016040526122cf9190810190615055565b935050505060008183815181106122e8576122e8615970565b602090810291909101015160985460405163b6ad185b60e01b81526001600160401b03831660048201529192506000916001600160a01b039091169063b6ad185b9060240160206040518083038186803b15801561234557600080fd5b505afa158015612359573d6000803e3d6000fd5b505050506040513d601f19601f8201168201806040525081019061237d919061513e565b609854604051637e34c5a560e11b81526001600160401b03851660048201529192506000916001600160a01b039091169063fc698b4a9060240160206040518083038186803b1580156123cf57600080fd5b505afa1580156123e3573d6000803e3d6000fd5b505050506040513d601f19601f82011682018060405250810190612407919061513e565b609854604051632a3ff8ad60e01b8152600481018990526001600160401b03861660248201529192506000916001600160a01b0390911690632a3ff8ad9060440160206040518083038186803b15801561246057600080fd5b505afa158015612474573d6000803e3d6000fd5b505050506040513d601f19601f82011682018060405250810190612498919061513e565b60008b815260a2602090815260408083206001600160401b03891680855292528083205460985491516302fc352760e61b815260048101939093529394506001600160a01b03169063bf0d49c09060240160006040518083038186803b15801561250157600080fd5b505afa158015612515573d6000803e3d6000fd5b505050506040513d6000823e601f3d908101601f1916820160405261253d91908101906150e8565b9050828b6125548468056bc75e2d63100000615847565b61255e9190615825565b101561259c57609c546001600160401b038781169116141561258e57612589888d8d898989896137ac565b61259c565b61259c8c8c88868686613de3565b5050505050505080806125ae90615929565b915050612246565b5050505050565b60985460405163dd811ac960e01b81526001600160a01b03868116600483015285811660248301526044820185905262ffffff84166064830152600092169063dd811ac99060840160206040518083038186803b15801561261d57600080fd5b505afa158015612631573d6000803e3d6000fd5b505050506040513d601f19601f82011682018060405250810190612655919061513e565b95945050505050565b600054610100900460ff161580801561267e5750600054600160ff909116105b806126985750303b158015612698575060005460ff166001145b6126fb5760405162461bcd60e51b815260206004820152602e60248201527f496e697469616c697a61626c653a20636f6e747261637420697320616c72656160448201526d191e481a5b9a5d1a585b1a5e995960921b60648201526084016112ba565b6000805460ff19166001179055801561271e576000805461ff0019166101001790555b6127278361424d565b61272f6142c8565b609c805467ffffffffffffffff19166001600160401b038916179055609a80546001600160a01b03199081166001600160a01b038981169190911790925560988054909116878316179055609980548683166001600160b01b03199091168117600560a01b1790915560005460405163095ea7b360e01b815262010000909104909216600483015260001960248301529063095ea7b390604401602060405180830381600087803b1580156127e357600080fd5b505af11580156127f7573d6000803e3d6000fd5b505050506040513d601f19601f8201168201806040525081019061281b919061511c565b50609c805468010000000000000000600160e01b031916600160401b6001600160a01b03851602179055609a805460ff60a01b1916600560a11b17905542609b55801561289e576000805461ff0019169055604051600181527f7f26b83ff96e1f2b6a682f133852f6798a09c465da95921460cefb3847402498906020016120bf565b50505050505050565b6001600160a01b0381166128cd5760405162461bcd60e51b81526004016112ba906155a7565b6065546001600160a01b038281169116146129455760405162461bcd60e51b815260206004820152603260248201527f50726f706f7361626c654f776e61626c653a206e6577206f776e6572206973206044820152713737ba10383937b837b9b2b21037bbb732b960711b60648201526084016112ba565b6001600160a01b03811633146129c35760405162461bcd60e51b815260206004820152603a60248201527f50726f706f7361626c654f776e61626c653a20746869732063616c6c206d757360448201527f74206265206d61646520627920746865206e6577206f776e657200000000000060648201526084016112ba565b611a17816133df565b6033546001600160a01b031633146118a15760405162461bcd60e51b815260206004820181905260248201527f4f776e61626c653a2063616c6c6572206973206e6f7420746865206f776e657260448201526064016112ba565b612a666040518060a0016040528060006001600160a01b03168152602001600062ffffff1681526020016000815260200160008152602001600081525090565b600087815260a2602090815260408083206001600160401b0389168452909152808220546060840152609c54609a5491516370a0823160e01b81526001600160a01b039283166004820152600160401b909104909116906370a082319060240160206040518083038186803b158015612ade57600080fd5b505afa158015612af2573d6000803e3d6000fd5b505050506040513d601f19601f82011682018060405250810190612b16919061513e565b905060005b85811015612d9e5760985460405163264cae9360e21b8152600481018390526001600160a01b0390911690639932ba4c9060240160206040518083038186803b158015612b6757600080fd5b505afa158015612b7b573d6000803e3d6000fd5b505050506040513d601f19601f82011682018060405250810190612b9f9190614de2565b6001600160a01b03908116808552609854604051633259966560e01b815260048101929092529091169063325996659060240160206040518083038186803b158015612bea57600080fd5b505afa158015612bfe573d6000803e3d6000fd5b505050506040513d601f19601f82011682018060405250810190612c2291906151bb565b62ffffff166020840152609854835160405162967c1760e71b81526001600160a01b039182166004820152911690634b3e0b809060240160206040518083038186803b158015612c7157600080fd5b505afa158015612c85573d6000803e3d6000fd5b505050506040513d601f19601f82011682018060405250810190612ca9919061513e565b6040840152609c548351600091600160401b90046001600160a01b0390811691161415612cd7575081612d75565b8351609c54609a546040516370a0823160e01b81526001600160a01b039182166004820152612d729392600160401b90048216918316906370a082319060240160206040518083038186803b158015612d2f57600080fd5b505afa158015612d43573d6000803e3d6000fd5b505050506040513d601f19601f82011682018060405250810190612d67919061513e565b3088602001516118a3565b90505b8084608001818151612d87919061580d565b905250819050612d9681615929565b915050612b1b565b50600087836060015168056bc75e2d63100000612dbb9190615847565b612dc59190615825565b9050600081858560800151612dda9190615847565b612de49190615825565b90506000818560800151612df89190615866565b905060005b878110156130145760985460405163239aad0d60e01b8152600481018390526000916001600160a01b03169063239aad0d9060240160206040518083038186803b158015612e4a57600080fd5b505afa158015612e5e573d6000803e3d6000fd5b505050506040513d601f19601f82011682018060405250810190612e829190614de2565b609854604051633259966560e01b81526001600160a01b0380841660048301529293506000929091169063325996659060240160206040518083038186803b158015612ecd57600080fd5b505afa158015612ee1573d6000803e3d6000fd5b505050506040513d601f19601f82011682018060405250810190612f0591906151bb565b60985460405162967c1760e71b81526001600160a01b03858116600483015292935060009290911690634b3e0b809060240160206040518083038186803b158015612f4f57600080fd5b505afa158015612f63573d6000803e3d6000fd5b505050506040513d601f19601f82011682018060405250810190612f87919061513e565b609c549091506000906001600160a01b03858116600160401b909204161415612fc6578a612fb58389615847565b612fbf9190615825565b9050612ffd565b609c54612ffa90600160401b90046001600160a01b0316858d612fe9868c615847565b612ff39190615825565b30876118a3565b90505b50505050808061300c90615929565b915050612dfd565b5060008b8152609f60205260408120805483929061303390849061580d565b9091555061304390508684615866565b60008c815260a560205260408120805490919061306190849061580d565b9091555050505050505050505050505050565b60008561308a8468056bc75e2d63100000615847565b6130949190615825565b90506130a08482615866565b600088815260a56020526040812080549091906130be90849061580d565b90915550600090506130cf8661115d565b60985460405163d1c68aa360e01b81526001600160401b03891660048201529192506000916001600160a01b039091169063d1c68aa39060240160006040518083038186803b15801561312157600080fd5b505afa158015613135573d6000803e3d6000fd5b505050506040513d6000823e601f3d908101601f1916820160405261315d9190810190614f11565b609854604051633414329f60e21b81526001600160401b038a1660048201529192506000916001600160a01b039091169063d050ca7c9060240160006040518083038186803b1580156131af57600080fd5b505afa1580156131c3573d6000803e3d6000fd5b505050506040513d6000823e601f3d908101601f191682016040526131eb9190810190614f11565b60985460405163221f337160e01b81526001600160401b038b1660048201529192506000916001600160a01b039091169063221f33719060240160006040518083038186803b15801561323d57600080fd5b505afa158015613251573d6000803e3d6000fd5b505050506040513d6000823e601f3d908101601f1916820160405261327991908101906150e8565b609854604051631435bff160e31b81526001600160401b038c1660048201529192506000916001600160a01b039091169063a1adff889060240160006040518083038186803b1580156132cb57600080fd5b505afa1580156132df573d6000803e3d6000fd5b505050506040513d6000823e601f3d908101601f1916820160405261330791908101906150e8565b60408051600280825260608201835292935060009290916020830190803683370190505090508b8160008151811061334157613341615970565b602002602001018181525050898160018151811061336157613361615970565b602002602001018181525050888160028151811061338157613381615970565b6020026020010181815250506000600386868686609d548e886040516020016133b1989796959493929190615511565b60405160208183030381529060405290506133cf8c88836001611df8565b5050505050505050505050505050565b603380546001600160a01b038381166001600160a01b0319831681179093556040519116919082907f8be0079c531659141344cd1fd0a4f28419497f9722a3daafe3b4186f6b6457e090600090a35050565b600062ffffff8616156134535761344c8887878787876142f7565b9050613463565b61346087868686866144be565b90505b979650505050505050565b80516020808301516040840151805191926000926134929290810182019101614de2565b905060008060008060008089606001518060200190518101906134b59190615221565b95509550955095509550955085600014156134cf57613763565b85600114156134dd57613763565b85600214156136455760005b825181101561363f5782818151811061350457613504615970565b6020026020010151609e6000868152602001908152602001600020600082825461352e919061580d565b9250508190555082818151811061354757613547615970565b602002602001015160a16000868152602001908152602001600020600088848151811061357657613576615970565b60200260200101516001600160a01b03166001600160a01b0316815260200190815260200160002060008282546135ad919061580d565b925050819055508281815181106135c6576135c6615970565b602090810291909101810151600086815260a2835260408082206001600160401b038e16835290935291822080549192909161360390849061580d565b9091555050600084815260a06020526040812080546001929061362790849061580d565b9091555081905061363781615929565b9150506134e9565b50613763565b85600314156136f65760008a60800151905060008160008151811061366c5761366c615970565b602002602001015160000151905060008260008151811061368f5761368f615970565b602002602001015160200151905060006136c283609c60089054906101000a90046001600160a01b0316843060036118a3565b905080609f600089815260200190815260200160002060008282546136e7919061580d565b90915550613763945050505050565b856004141561376357609860009054906101000a90046001600160a01b03166001600160a01b0316638baa6bf16040518163ffffffff1660e01b8152600401600060405180830381600087803b15801561374f57600080fd5b505af11580156133cf573d6000803e3d6000fd5b50505050505050505050565b60408051915160248084019190915281518084039091018152604490920190526020810180516001600160e01b03166397a657c960e01b17905290565b6137f36040518060c0016040528060006001600160a01b03168152602001600062ffffff168152602001600081526020016000815260200160008152602001600081525090565b60985460405163264cae9360e21b8152600481018a90526001600160a01b0390911690639932ba4c9060240160206040518083038186803b15801561383757600080fd5b505afa15801561384b573d6000803e3d6000fd5b505050506040513d601f19601f8201168201806040525081019061386f9190614de2565b6001600160a01b03908116808352609854604051633259966560e01b815260048101929092529091169063325996659060240160206040518083038186803b1580156138ba57600080fd5b505afa1580156138ce573d6000803e3d6000fd5b505050506040513d601f19601f820116820180604052508101906138f291906151bb565b62ffffff166020820152609854815160405162967c1760e71b81526001600160a01b039182166004820152911690634b3e0b809060240160206040518083038186803b15801561394157600080fd5b505afa158015613955573d6000803e3d6000fd5b505050506040513d601f19601f82011682018060405250810190613979919061513e565b604082810191909152600088815260a260209081528282206001600160401b038916835290528181205460608401528251609a5492516370a0823160e01b81526001600160a01b039384166004820152919216906370a082319060240160206040518083038186803b1580156139ee57600080fd5b505afa158015613a02573d6000803e3d6000fd5b505050506040513d601f19601f82011682018060405250810190613a26919061513e565b905060005b85811015613b2a57609c5483516001600160a01b03908116600160401b909204161415613a5e5760a08301829052613aff565b8251609c54609a546040516370a0823160e01b81526001600160a01b039182166004820152613af99392600160401b90048216918316906370a082319060240160206040518083038186803b158015613ab657600080fd5b505afa158015613aca573d6000803e3d6000fd5b505050506040513d601f19601f82011682018060405250810190613aee919061513e565b3087602001516118a3565b60a08401525b8260a0015183608001818151613b15919061580d565b90525080613b2281615929565b915050613a2b565b50600087836060015168056bc75e2d63100000613b479190615847565b613b519190615825565b90506000613b5f8286615866565b60008b815260a56020908152604080832054609f9092528220549293509091613b89908490615847565b613b939190615825565b90508085608001818151613ba7919061580d565b90525060005b87811015613dd45760985460405163264cae9360e21b8152600481018390526000916001600160a01b031690639932ba4c9060240160206040518083038186803b158015613bfa57600080fd5b505afa158015613c0e573d6000803e3d6000fd5b505050506040513d601f19601f82011682018060405250810190613c329190614de2565b609854604051633259966560e01b81526001600160a01b0380841660048301529293506000929091169063325996659060240160206040518083038186803b158015613c7d57600080fd5b505afa158015613c91573d6000803e3d6000fd5b505050506040513d601f19601f82011682018060405250810190613cb591906151bb565b60985460405162967c1760e71b81526001600160a01b03858116600483015292935060009290911690634b3e0b809060240160206040518083038186803b158015613cff57600080fd5b505afa158015613d13573d6000803e3d6000fd5b505050506040513d601f19601f82011682018060405250810190613d37919061513e565b609c549091506001600160a01b03848116600160401b909204161415613d7c5789818a60800151613d689190615847565b613d729190615825565b60a08a0152613dbe565b613db8609c60089054906101000a90046001600160a01b0316848c848d60800151613da79190615847565b613db19190615825565b30866118a3565b60a08a01525b5050508080613dcc90615929565b915050613bad565b50505050505050505050505050565b613e156040518060a0016040528060608152602001606081526020016060815260200160608152602001606081525090565b600086613e2b8568056bc75e2d63100000615847565b613e359190615825565b90506000613e438287615866565b60008a815260a56020908152604080832054609f9092528220549293509091613e6d908490615847565b613e779190615825565b90506000613e848961115d565b90506000613eb3609c60089054906101000a90046001600160a01b0316613eaa8c610944565b853060036118a3565b60985460405163d1c68aa360e01b81526001600160401b038d1660048201529192506001600160a01b03169063d1c68aa39060240160006040518083038186803b158015613f0057600080fd5b505afa158015613f14573d6000803e3d6000fd5b505050506040513d6000823e601f3d908101601f19168201604052613f3c9190810190614f11565b8652609854604051633414329f60e21b81526001600160401b038c1660048201526001600160a01b039091169063d050ca7c9060240160006040518083038186803b158015613f8a57600080fd5b505afa158015613f9e573d6000803e3d6000fd5b505050506040513d6000823e601f3d908101601f19168201604052613fc69190810190614f11565b602087015260985460405163221f337160e01b81526001600160401b038c1660048201526001600160a01b039091169063221f33719060240160006040518083038186803b15801561401757600080fd5b505afa15801561402b573d6000803e3d6000fd5b505050506040513d6000823e601f3d908101601f1916820160405261405391908101906150e8565b6040878101919091526098549051631435bff160e31b81526001600160401b038c1660048201526001600160a01b039091169063a1adff889060240160006040518083038186803b1580156140a757600080fd5b505afa1580156140bb573d6000803e3d6000fd5b505050506040513d6000823e601f3d908101601f191682016040526140e391908101906150e8565b606087810191909152604080516002808252928101825291906020830190803683375050506080870181905280518c919060009061412357614123615970565b60200260200101818152505088866080015160018151811061414757614147615970565b6020908102919091010152604080516001808252818301909252600091816020015b604080518082019091526000808252602082015281526020019060019003908161416957905050905061419b8b610944565b816000815181106141ae576141ae615970565b6020026020010151600001906001600160a01b031690816001600160a01b03168152505081816000815181106141e6576141e6615970565b6020026020010151602001818152505060006004886000015189602001518a604001518b60600151609d548e8e6080015160405160200161422e989796959493929190615511565b60405160208183030381529060405290506133cf8c82868560016146d4565b600054610100900460ff166142745760405162461bcd60e51b81526004016112ba906155f7565b6001600160a01b03811661429e576040516335fdcccd60e21b8152600060048201526024016112ba565b600080546001600160a01b03909216620100000262010000600160b01b0319909216919091179055565b600054610100900460ff166142ef5760405162461bcd60e51b81526004016112ba906155f7565b6118a1614b31565b60405163095ea7b360e01b81526001600160a01b038781166004830152602482018490526000919086169063095ea7b390604401602060405180830381600087803b15801561434557600080fd5b505af1158015614359573d6000803e3d6000fd5b505050506040513d601f19601f8201168201806040525081019061437d919061511c565b506000604051806101000160405280876001600160a01b03168152602001866001600160a01b031681526020018862ffffff168152602001846001600160a01b031681526020014261012c6143d2919061580d565b8152602080820187905260006040808401829052606093840191909152805163414bf38960e01b815284516001600160a01b03908116600483015292850151831660248201529084015162ffffff16604482015291830151811660648301526080830151608483015260a083015160a483015260c083015160c483015260e0830151811660e48301529192509089169063414bf3899061010401602060405180830381600087803b15801561448657600080fd5b505af115801561449a573d6000803e3d6000fd5b505050506040513d601f19601f820116820180604052508101906119c7919061513e565b6040805160028082526060820183526000928392919060208301908036833701905050905085816000815181106144f7576144f7615970565b60200260200101906001600160a01b031690816001600160a01b031681525050848160018151811061452b5761452b615970565b6001600160a01b03928316602091820292909201015260405163d06ca61f60e01b815260009189169063d06ca61f9061456a9088908690600401615642565b60006040518083038186803b15801561458257600080fd5b505afa158015614596573d6000803e3d6000fd5b505050506040513d6000823e601f3d908101601f191682016040526145be91908101906150e8565b60405163095ea7b360e01b81526001600160a01b038a81166004830152602482018890529192509088169063095ea7b390604401602060405180830381600087803b15801561460c57600080fd5b505af1158015614620573d6000803e3d6000fd5b505050506040513d601f19601f82011682018060405250810190614644919061511c565b50604051635c11d79560e01b81526001600160a01b03891690635c11d7959061467a90889060009087908a90429060040161565b565b600060405180830381600087803b15801561469457600080fd5b505af11580156146a8573d6000803e3d6000fd5b50505050806001815181106146bf576146bf615970565b60200260200101519250505095945050505050565b8151609954600160a01b900461ffff168111156147595760405162461bcd60e51b815260206004820152603760248201527f4d6178696d756d203520646966666572656e7420746f6b656e732063616e206260448201527f652073656e74207065722043434950204d65737361676500000000000000000060648201526084016112ba565b60005b8181101561488e5760995484516001600160a01b039091169085908390811061478757614787615970565b6020026020010151600001516001600160a01b031614614886578381815181106147b3576147b3615970565b6020026020010151600001516001600160a01b031663095ea7b3600060029054906101000a90046001600160a01b03168684815181106147f5576147f5615970565b6020026020010151602001516040518363ffffffff1660e01b81526004016148329291906001600160a01b03929092168252602082015260400190565b602060405180830381600087803b15801561484c57600080fd5b505af1158015614860573d6000803e3d6000fd5b505050506040513d601f19601f82011682018060405250810190614884919061511c565b505b60010161475c565b506040805160a081019091526001600160a01b03851660c08201526000908060e0810160408051601f1981840301815291815290825260208201899052810186905260600160018560018111156148e7576148e761595a565b146148f3576000614900565b6099546001600160a01b03165b6001600160a01b031681526020016149286040518060200160405280620dbba081525061376f565b9052600080546040516320487ded60e01b81529293509091620100009091046001600160a01b0316906320487ded90614967908b908690600401615697565b60206040518083038186803b15801561497f57600080fd5b505afa158015614993573d6000803e3d6000fd5b505050506040513d601f19601f820116820180604052508101906149b7919061513e565b9050600060018560018111156149cf576149cf61595a565b1415614a65576000546040516396f4e9f960e01b8152620100009091046001600160a01b0316906396f4e9f990614a0c908c908790600401615697565b602060405180830381600087803b158015614a2657600080fd5b505af1158015614a3a573d6000803e3d6000fd5b505050506040513d601f19601f82011682018060405250810190614a5e919061513e565b9050614af3565b6000546040516396f4e9f960e01b8152620100009091046001600160a01b0316906396f4e9f9908490614a9e908d908890600401615697565b6020604051808303818588803b158015614ab757600080fd5b505af1158015614acb573d6000803e3d6000fd5b50505050506040513d601f19601f82011682018060405250810190614af0919061513e565b90505b6040518181527f54791b38f3859327992a1ca0590ad3c0f08feba98d1a4f56ab0dca74d203392a9060200160405180910390a1505050505050505050565b600054610100900460ff16614b585760405162461bcd60e51b81526004016112ba906155f7565b6118a1336133df565b600082601f830112614b7257600080fd5b81516020614b87614b82836157ea565b6157ba565b80838252828201915082860187848660051b8901011115614ba757600080fd5b60005b85811015614bcf578151614bbd8161599c565b84529284019290840190600101614baa565b5090979650505050505050565b600082601f830112614bed57600080fd5b81356020614bfd614b82836157ea565b80838252828201915082860187848660061b8901011115614c1d57600080fd5b6000805b86811015614c6857604080848c031215614c39578283fd5b614c41615770565b8435614c4c8161599c565b8152848801358882015286529486019490920191600101614c21565b509198975050505050505050565b600082601f830112614c8757600080fd5b81516020614c97614b82836157ea565b80838252828201915082860187848660051b8901011115614cb757600080fd5b60005b85811015614bcf57815184529284019290840190600101614cba565b600082601f830112614ce757600080fd5b81516020614cf7614b82836157ea565b80838252828201915082860187848660051b8901011115614d1757600080fd5b60005b85811015614bcf578151614d2d816159c2565b84529284019290840190600101614d1a565b600082601f830112614d5057600080fd5b81356001600160401b03811115614d6957614d69615986565b614d7c601f8201601f19166020016157ba565b818152846020838601011115614d9157600080fd5b816020850160208301376000918101602001919091529392505050565b8035614db9816159c2565b919050565b600060208284031215614dd057600080fd5b8135614ddb8161599c565b9392505050565b600060208284031215614df457600080fd5b8151614ddb8161599c565b600080600060608486031215614e1457600080fd5b8335614e1f8161599c565b92506020840135614e2f8161599c565b915060408401356001600160801b0381168114614e4b57600080fd5b809150509250925092565b600080600080600060a08688031215614e6e57600080fd5b8535614e798161599c565b94506020860135614e898161599c565b9350604086013592506060860135614ea08161599c565b91506080860135614eb0816159b1565b809150509295509295909350565b60008060008060808587031215614ed457600080fd5b8435614edf8161599c565b93506020850135614eef8161599c565b9250604085013591506060850135614f06816159b1565b939692955090935050565b600060208284031215614f2357600080fd5b81516001600160401b03811115614f3957600080fd5b61093c84828501614b61565b60008060008060808587031215614f5b57600080fd5b84516001600160401b0380821115614f7257600080fd5b614f7e88838901614b61565b9550602091508187015181811115614f9557600080fd5b614fa189828a01614c76565b955050604087015181811115614fb657600080fd5b8701601f81018913614fc757600080fd5b8051614fd5614b82826157ea565b8082825285820191508584018c878560051b8701011115614ff557600080fd5b600094505b8385101561502157805161500d816159b1565b835260019490940193918601918601614ffa565b5060608b015190975094505050508082111561503c57600080fd5b5061504987828801614cd6565b91505092959194509250565b6000806000806080858703121561506b57600080fd5b84516001600160401b038082111561508257600080fd5b61508e88838901614b61565b955060208701519150808211156150a457600080fd5b6150b088838901614c76565b945060408701519150808211156150c657600080fd5b6150d288838901614c76565b9350606087015191508082111561503c57600080fd5b6000602082840312156150fa57600080fd5b81516001600160401b0381111561511057600080fd5b61093c84828501614c76565b60006020828403121561512e57600080fd5b81518015158114614ddb57600080fd5b60006020828403121561515057600080fd5b5051919050565b60006020828403121561516957600080fd5b81356001600160e01b031981168114614ddb57600080fd5b60006020828403121561519357600080fd5b81356001600160401b038111156151a957600080fd5b820160a08185031215614ddb57600080fd5b6000602082840312156151cd57600080fd5b8151614ddb816159b1565b6000602082840312156151ea57600080fd5b5035919050565b6000806040838503121561520457600080fd5b8235915060208301356152168161599c565b809150509250929050565b60008060008060008060c0878903121561523a57600080fd5b8651955060208701516001600160401b038082111561525857600080fd5b6152648a838b01614b61565b9650604089015191508082111561527a57600080fd5b6152868a838b01614b61565b95506060890151945060808901519150808211156152a357600080fd5b6152af8a838b01614c76565b935060a08901519150808211156152c557600080fd5b506152d289828a01614c76565b9150509295509295509295565b600080604083850312156152f257600080fd5b823591506020830135615216816159c2565b60006020828403121561531657600080fd5b8135614ddb816159c2565b60006020828403121561533357600080fd5b8151614ddb816159c2565b60008060008060008060c0878903121561535757600080fd5b8635615362816159c2565b955060208701356153728161599c565b945060408701356153828161599c565b935060608701356153928161599c565b925060808701356153a28161599c565b915060a08701356153b28161599c565b809150509295509295509295565b600080600080608085870312156153d657600080fd5b84356153e1816159c2565b935060208501356153f18161599c565b925060408501356001600160401b0381111561540c57600080fd5b61541887828801614d3f565b925050606085013560028110614f0657600080fd5b60006020828403121561543f57600080fd5b813560ff81168114614ddb57600080fd5b600081518084526020808501945080840160005b838110156154895781516001600160a01b031687529582019590820190600101615464565b509495945050505050565b600081518084526020808501945080840160005b83811015615489578151875295820195908201906001016154a8565b6000815180845260005b818110156154ea576020818501810151868301820152016154ce565b818111156154fc576000602083870101525b50601f01601f19169290920160200192915050565b600061010060ff8b16835280602084015261552e8184018b615450565b90508281036040840152615542818a615450565b905082810360608401526155568189615494565b9050828103608084015261556a8188615494565b90508560a084015282810360c08401526155848186615494565b905082810360e08401526155988185615494565b9b9a5050505050505050505050565b60208082526030908201527f50726f706f7361626c654f776e61626c653a206e6577206f776e65722069732060408201526f746865207a65726f206164647265737360801b606082015260800190565b6020808252602b908201527f496e697469616c697a61626c653a20636f6e7472616374206973206e6f74206960408201526a6e697469616c697a696e6760a81b606082015260800190565b82815260406020820152600061093c6040830184615450565b85815284602082015260a06040820152600061567a60a0830186615450565b6001600160a01b0394909416606083015250608001529392505050565b600060406001600160401b038516835260208181850152845160a0838601526156c360e08601826154c4565b905081860151603f19808784030160608801526156e083836154c4565b88860151888203830160808a01528051808352908601945060009350908501905b8084101561573357845180516001600160a01b0316835286015186830152938501936001939093019290860190615701565b5060608901516001600160a01b031660a08901526080890151888203830160c08a0152955061576281876154c4565b9a9950505050505050505050565b604080519081016001600160401b038111828210171561579257615792615986565b60405290565b60405160a081016001600160401b038111828210171561579257615792615986565b604051601f8201601f191681016001600160401b03811182821017156157e2576157e2615986565b604052919050565b60006001600160401b0382111561580357615803615986565b5060051b60200190565b6000821982111561582057615820615944565b500190565b60008261584257634e487b7160e01b600052601260045260246000fd5b500490565b600081600019048311821515161561586157615861615944565b500290565b60008282101561587857615878615944565b500390565b600060a0823603121561588f57600080fd5b615897615798565b823581526158a760208401614dae565b602082015260408301356001600160401b03808211156158c657600080fd5b6158d236838701614d3f565b604084015260608501359150808211156158eb57600080fd5b6158f736838701614d3f565b6060840152608085013591508082111561591057600080fd5b5061591d36828601614bdc565b60808301525092915050565b600060001982141561593d5761593d615944565b5060010190565b634e487b7160e01b600052601160045260246000fd5b634e487b7160e01b600052602160045260246000fd5b634e487b7160e01b600052603260045260246000fd5b634e487b7160e01b600052604160045260246000fd5b6001600160a01b0381168114611a1757600080fd5b62ffffff81168114611a1757600080fd5b6001600160401b0381168114611a1757600080fdfea2646970667358221220ace38c6a09ba00535ee62bd79eaeeb7e185d4e47b4eb955f2650008557bf647b64736f6c63430008070033","linkReferences":{}},"methodIdentifiers":{"askValues()":"2700cc86","ccipReceive((bytes32,uint64,bytes,bytes,(address,uint256)[]))":"85572ffb","chainValueByNonce(uint256,uint64)":"69abf538","convertEthToUsd(uint256)":"c086381e","crossChainFactoryBySelector(uint64)":"340fbc74","crossChainToken(uint64)":"19da7e2a","currentChainSelector()":"3d54cb6f","estimateAmountOut(address,address,uint128)":"0456f9c8","extraWethByNonce(uint256)":"756c1fd1","factoryStorage()":"c06e1ae2","feeRate()":"978bbdb9","firstReweightAction()":"63713a8b","getAmountOut(address,address,uint256,uint24)":"dd811ac9","getPortfolioBalance()":"a8509fd8","getRouter()":"b0f479a1","i_link()":"7d253aff","i_maxTokensLength()":"5b6a0351","indexToken()":"e7d015f2","initialize(uint64,address,address,address,address,address)":"edba0e31","latestFeeUpdate()":"011ced5f","owner()":"8da5cb5b","portfolioTotalValueByNonce(uint256)":"7d3546f7","priceInWei()":"3c8da588","proposeOwner(address)":"b5ed298a","proposedOwner()":"d153b60c","redemptionNonceOutputToken(uint256)":"0603fb05","redemptionNonceOutputTokenSwapFee(uint256)":"afcaa952","renounceOwnership()":"715018a6","reweightExtraPercentage(uint256)":"814ffd71","reweightTokensCount(uint256)":"78324463","reweightWethValueByNonce(uint256)":"f1639b09","secondReweightAction()":"d79e8d65","sendMessage(uint64,address,bytes,uint8)":"bcab90b3","setFeeRate(uint8)":"5177942a","setIndexFactoryStorage(address)":"cc8659ae","supportsInterface(bytes4)":"01ffc9a7","swap(address,address,uint256,address,uint24)":"7e79f512","tokenValueByNonce(uint256,address)":"b316e7fd","transferOwnership(address)":"f2fde38b","updatePortfolioNonce()":"003cf402","updatedTokensValueCount(uint256)":"c070a097","weth()":"3fc8cef3"},"id":4}