{"abi":[{"type":"receive","stateMutability":"payable"},{"type":"function","name":"askValues","inputs":[],"outputs":[],"stateMutability":"nonpayable"},{"type":"function","name":"ccipReceive","inputs":[{"name":"message","type":"tuple","internalType":"struct Client.Any2EVMMessage","components":[{"name":"messageId","type":"bytes32","internalType":"bytes32"},{"name":"sourceChainSelector","type":"uint64","internalType":"uint64"},{"name":"sender","type":"bytes","internalType":"bytes"},{"name":"data","type":"bytes","internalType":"bytes"},{"name":"destTokenAmounts","type":"tuple[]","internalType":"struct Client.EVMTokenAmount[]","components":[{"name":"token","type":"address","internalType":"address"},{"name":"amount","type":"uint256","internalType":"uint256"}]}]}],"outputs":[],"stateMutability":"nonpayable"},{"type":"function","name":"chainValueByNonce","inputs":[{"name":"","type":"uint256","internalType":"uint256"},{"name":"","type":"uint64","internalType":"uint64"}],"outputs":[{"name":"","type":"uint256","internalType":"uint256"}],"stateMutability":"view"},{"type":"function","name":"convertEthToUsd","inputs":[{"name":"_ethAmount","type":"uint256","internalType":"uint256"}],"outputs":[{"name":"","type":"uint256","internalType":"uint256"}],"stateMutability":"view"},{"type":"function","name":"crossChainFactoryBySelector","inputs":[{"name":"_chainSelector","type":"uint64","internalType":"uint64"}],"outputs":[{"name":"","type":"address","internalType":"address"}],"stateMutability":"view"},{"type":"function","name":"crossChainToken","inputs":[{"name":"_chainSelector","type":"uint64","internalType":"uint64"}],"outputs":[{"name":"","type":"address","internalType":"address"}],"stateMutability":"view"},{"type":"function","name":"currentChainSelector","inputs":[],"outputs":[{"name":"","type":"uint64","internalType":"uint64"}],"stateMutability":"view"},{"type":"function","name":"estimateAmountOut","inputs":[{"name":"tokenIn","type":"address","internalType":"address"},{"name":"tokenOut","type":"address","internalType":"address"},{"name":"amountIn","type":"uint128","internalType":"uint128"}],"outputs":[{"name":"amountOut","type":"uint256","internalType":"uint256"}],"stateMutability":"view"},{"type":"function","name":"extraWethByNonce","inputs":[{"name":"","type":"uint256","internalType":"uint256"}],"outputs":[{"name":"","type":"uint256","internalType":"uint256"}],"stateMutability":"view"},{"type":"function","name":"factoryStorage","inputs":[],"outputs":[{"name":"","type":"address","internalType":"contract IndexFactoryStorage"}],"stateMutability":"view"},{"type":"function","name":"feeRate","inputs":[],"outputs":[{"name":"","type":"uint8","internalType":"uint8"}],"stateMutability":"view"},{"type":"function","name":"firstReweightAction","inputs":[],"outputs":[],"stateMutability":"nonpayable"},{"type":"function","name":"getAmountOut","inputs":[{"name":"tokenIn","type":"address","internalType":"address"},{"name":"tokenOut","type":"address","internalType":"address"},{"name":"amountIn","type":"uint256","internalType":"uint256"},{"name":"_swapFee","type":"uint24","internalType":"uint24"}],"outputs":[{"name":"finalAmountOut","type":"uint256","internalType":"uint256"}],"stateMutability":"view"},{"type":"function","name":"getPortfolioBalance","inputs":[],"outputs":[{"name":"","type":"uint256","internalType":"uint256"}],"stateMutability":"view"},{"type":"function","name":"getRouter","inputs":[],"outputs":[{"name":"","type":"address","internalType":"address"}],"stateMutability":"view"},{"type":"function","name":"i_link","inputs":[],"outputs":[{"name":"","type":"address","internalType":"address"}],"stateMutability":"view"},{"type":"function","name":"i_maxTokensLength","inputs":[],"outputs":[{"name":"","type":"uint16","internalType":"uint16"}],"stateMutability":"view"},{"type":"function","name":"indexToken","inputs":[],"outputs":[{"name":"","type":"address","internalType":"contract IndexToken"}],"stateMutability":"view"},{"type":"function","name":"initialize","inputs":[{"name":"_currentChainSelector","type":"uint64","internalType":"uint64"},{"name":"_token","type":"address","internalType":"address payable"},{"name":"_factoryStorage","type":"address","internalType":"address"},{"name":"_chainlinkToken","type":"address","internalType":"address"},{"name":"_router","type":"address","internalType":"address"},{"name":"_weth","type":"address","internalType":"address"}],"outputs":[],"stateMutability":"nonpayable"},{"type":"function","name":"latestFeeUpdate","inputs":[],"outputs":[{"name":"","type":"uint256","internalType":"uint256"}],"stateMutability":"view"},{"type":"function","name":"owner","inputs":[],"outputs":[{"name":"","type":"address","internalType":"address"}],"stateMutability":"view"},{"type":"function","name":"portfolioTotalValueByNonce","inputs":[{"name":"","type":"uint256","internalType":"uint256"}],"outputs":[{"name":"","type":"uint256","internalType":"uint256"}],"stateMutability":"view"},{"type":"function","name":"priceInWei","inputs":[],"outputs":[{"name":"","type":"uint256","internalType":"uint256"}],"stateMutability":"view"},{"type":"function","name":"proposeOwner","inputs":[{"name":"_proposedOwner","type":"address","internalType":"address"}],"outputs":[],"stateMutability":"nonpayable"},{"type":"function","name":"proposedOwner","inputs":[],"outputs":[{"name":"","type":"address","internalType":"address"}],"stateMutability":"view"},{"type":"function","name":"redemptionNonceOutputToken","inputs":[{"name":"","type":"uint256","internalType":"uint256"}],"outputs":[{"name":"","type":"address","internalType":"address"}],"stateMutability":"view"},{"type":"function","name":"redemptionNonceOutputTokenSwapFee","inputs":[{"name":"","type":"uint256","internalType":"uint256"}],"outputs":[{"name":"","type":"uint256","internalType":"uint256"}],"stateMutability":"view"},{"type":"function","name":"renounceOwnership","inputs":[],"outputs":[],"stateMutability":"nonpayable"},{"type":"function","name":"reweightExtraPercentage","inputs":[{"name":"","type":"uint256","internalType":"uint256"}],"outputs":[{"name":"","type":"uint256","internalType":"uint256"}],"stateMutability":"view"},{"type":"function","name":"reweightTokensCount","inputs":[{"name":"","type":"uint256","internalType":"uint256"}],"outputs":[{"name":"","type":"uint256","internalType":"uint256"}],"stateMutability":"view"},{"type":"function","name":"reweightWethValueByNonce","inputs":[{"name":"","type":"uint256","internalType":"uint256"}],"outputs":[{"name":"","type":"uint256","internalType":"uint256"}],"stateMutability":"view"},{"type":"function","name":"secondReweightAction","inputs":[],"outputs":[],"stateMutability":"nonpayable"},{"type":"function","name":"sendMessage","inputs":[{"name":"destinationChainSelector","type":"uint64","internalType":"uint64"},{"name":"receiver","type":"address","internalType":"address"},{"name":"_data","type":"bytes","internalType":"bytes"},{"name":"payFeesIn","type":"uint8","internalType":"enum IndexFactoryBalancer.PayFeesIn"}],"outputs":[],"stateMutability":"nonpayable"},{"type":"function","name":"setFeeRate","inputs":[{"name":"_newFee","type":"uint8","internalType":"uint8"}],"outputs":[],"stateMutability":"nonpayable"},{"type":"function","name":"setIndexFactoryStorage","inputs":[{"name":"_factoryStorage","type":"address","internalType":"address"}],"outputs":[],"stateMutability":"nonpayable"},{"type":"function","name":"supportsInterface","inputs":[{"name":"interfaceId","type":"bytes4","internalType":"bytes4"}],"outputs":[{"name":"","type":"bool","internalType":"bool"}],"stateMutability":"pure"},{"type":"function","name":"swap","inputs":[{"name":"tokenIn","type":"address","internalType":"address"},{"name":"tokenOut","type":"address","internalType":"address"},{"name":"amountIn","type":"uint256","internalType":"uint256"},{"name":"_recipient","type":"address","internalType":"address"},{"name":"_swapFee","type":"uint24","internalType":"uint24"}],"outputs":[{"name":"outputAmount","type":"uint256","internalType":"uint256"}],"stateMutability":"nonpayable"},{"type":"function","name":"tokenValueByNonce","inputs":[{"name":"","type":"uint256","internalType":"uint256"},{"name":"","type":"address","internalType":"address"}],"outputs":[{"name":"","type":"uint256","internalType":"uint256"}],"stateMutability":"view"},{"type":"function","name":"transferOwnership","inputs":[{"name":"newOwner","type":"address","internalType":"address"}],"outputs":[],"stateMutability":"nonpayable"},{"type":"function","name":"updatePortfolioNonce","inputs":[],"outputs":[{"name":"","type":"uint256","internalType":"uint256"}],"stateMutability":"view"},{"type":"function","name":"updatedTokensValueCount","inputs":[{"name":"","type":"uint256","internalType":"uint256"}],"outputs":[{"name":"","type":"uint256","internalType":"uint256"}],"stateMutability":"view"},{"type":"function","name":"weth","inputs":[],"outputs":[{"name":"","type":"address","internalType":"contract IWETH"}],"stateMutability":"view"},{"type":"event","name":"Initialized","inputs":[{"name":"version","type":"uint8","indexed":false,"internalType":"uint8"}],"anonymous":false},{"type":"event","name":"MessageSent","inputs":[{"name":"messageId","type":"bytes32","indexed":false,"internalType":"bytes32"}],"anonymous":false},{"type":"event","name":"OwnershipTransferred","inputs":[{"name":"previousOwner","type":"address","indexed":true,"internalType":"address"},{"name":"newOwner","type":"address","indexed":true,"internalType":"address"}],"anonymous":false},{"type":"error","name":"InvalidRouter","inputs":[{"name":"router","type":"address","internalType":"address"}]}],"bytecode":{"object":"0x6080604052348015600f57600080fd5b506187778061001f6000396000f3fe6080604052600436106102545760003560e01c8063814ffd7111610139578063c06e1ae2116100b6578063d79e8d651161007a578063d79e8d6514610934578063dd811ac91461094b578063e7d015f214610988578063edba0e31146109b3578063f1639b09146109dc578063f2fde38b14610a195761025b565b8063c06e1ae21461083b578063c070a09714610866578063c086381e146108a3578063cc8659ae146108e0578063d153b60c146109095761025b565b8063afcaa952116100fd578063afcaa95214610744578063b0f479a114610781578063b316e7fd146107ac578063b5ed298a146107e9578063bcab90b3146108125761025b565b8063814ffd711461065d57806385572ffb1461069a5780638da5cb5b146106c3578063978bbdb9146106ee578063a8509fd8146107195761025b565b80633fc8cef3116101d2578063715018a611610196578063715018a614610527578063756c1fd11461053e578063783244631461057b5780637d253aff146105b85780637d3546f7146105e35780637e79f512146106205761025b565b80633fc8cef3146104545780635177942a1461047f5780635b6a0351146104a857806363713a8b146104d357806369abf538146104ea5761025b565b806319da7e2a1161021957806319da7e2a1461036d5780632700cc86146103aa578063340fbc74146103c15780633c8da588146103fe5780633d54cb6f146104295761025b565b80623cf40214610260578063011ced5f1461028b57806301ffc9a7146102b65780630456f9c8146102f35780630603fb05146103305761025b565b3661025b57005b600080fd5b34801561026c57600080fd5b50610275610a42565b6040516102829190616214565b60405180910390f35b34801561029757600080fd5b506102a0610a48565b6040516102ad9190616214565b60405180910390f35b3480156102c257600080fd5b506102dd60048036038101906102d8919061629b565b610a4e565b6040516102ea91906162e3565b60405180910390f35b3480156102ff57600080fd5b5061031a600480360381019061031591906163a4565b610b20565b6040516103279190616214565b60405180910390f35b34801561033c57600080fd5b5061035760048036038101906103529190616423565b610bcb565b604051610364919061645f565b60405180910390f35b34801561037957600080fd5b50610394600480360381019061038f91906164ba565b610bfe565b6040516103a1919061645f565b60405180910390f35b3480156103b657600080fd5b506103bf610ca3565b005b3480156103cd57600080fd5b506103e860048036038101906103e391906164ba565b61166e565b6040516103f5919061645f565b60405180910390f35b34801561040a57600080fd5b50610413611713565b6040516104209190616214565b60405180910390f35b34801561043557600080fd5b5061043e6117ab565b60405161044b91906164f6565b60405180910390f35b34801561046057600080fd5b506104696117c5565b6040516104769190616570565b60405180910390f35b34801561048b57600080fd5b506104a660048036038101906104a191906165c4565b6117eb565b005b3480156104b457600080fd5b506104bd6118dc565b6040516104ca919061660e565b60405180910390f35b3480156104df57600080fd5b506104e86118f0565b005b3480156104f657600080fd5b50610511600480360381019061050c9190616629565b611f04565b60405161051e9190616214565b60405180910390f35b34801561053357600080fd5b5061053c611f29565b005b34801561054a57600080fd5b5061056560048036038101906105609190616423565b611f3d565b6040516105729190616214565b60405180910390f35b34801561058757600080fd5b506105a2600480360381019061059d9190616423565b611f55565b6040516105af9190616214565b60405180910390f35b3480156105c457600080fd5b506105cd611f6d565b6040516105da919061645f565b60405180910390f35b3480156105ef57600080fd5b5061060a60048036038101906106059190616423565b611f93565b6040516106179190616214565b60405180910390f35b34801561062c57600080fd5b50610647600480360381019061064291906166a4565b611fab565b6040516106549190616214565b60405180910390f35b34801561066957600080fd5b50610684600480360381019061067f9190616423565b6120f2565b6040516106919190616214565b60405180910390f35b3480156106a657600080fd5b506106c160048036038101906106bc9190616743565b61210a565b005b3480156106cf57600080fd5b506106d86121b1565b6040516106e5919061645f565b60405180910390f35b3480156106fa57600080fd5b506107036121db565b604051610710919061679b565b60405180910390f35b34801561072557600080fd5b5061072e6121ee565b60405161073b9190616214565b60405180910390f35b34801561075057600080fd5b5061076b60048036038101906107669190616423565b61262e565b6040516107789190616214565b60405180910390f35b34801561078d57600080fd5b50610796612646565b6040516107a3919061645f565b60405180910390f35b3480156107b857600080fd5b506107d360048036038101906107ce91906167b6565b61266f565b6040516107e09190616214565b60405180910390f35b3480156107f557600080fd5b50610810600480360381019061080b91906167f6565b612694565b005b34801561081e57600080fd5b506108396004803603810190610834919061698e565b61274f565b005b34801561084757600080fd5b50610850612aca565b60405161085d9190616a32565b60405180910390f35b34801561087257600080fd5b5061088d60048036038101906108889190616423565b612af0565b60405161089a9190616214565b60405180910390f35b3480156108af57600080fd5b506108ca60048036038101906108c59190616423565b612b08565b6040516108d79190616214565b60405180910390f35b3480156108ec57600080fd5b50610907600480360381019061090291906167f6565b612b37565b005b34801561091557600080fd5b5061091e612b83565b60405161092b919061645f565b60405180910390f35b34801561094057600080fd5b50610949612ba9565b005b34801561095757600080fd5b50610972600480360381019061096d9190616a4d565b613127565b60405161097f9190616214565b60405180910390f35b34801561099457600080fd5b5061099d6131d5565b6040516109aa9190616ae7565b60405180910390f35b3480156109bf57600080fd5b506109da60048036038101906109d59190616b40565b6131fb565b005b3480156109e857600080fd5b50610a0360048036038101906109fe9190616423565b613577565b604051610a109190616214565b60405180910390f35b348015610a2557600080fd5b50610a406004803603810190610a3b91906167f6565b61358f565b005b609d5481565b609b5481565b60007f85572ffb000000000000000000000000000000000000000000000000000000007bffffffffffffffffffffffffffffffffffffffffffffffffffffffff1916827bffffffffffffffffffffffffffffffffffffffffffffffffffffffff19161480610b1957507f01ffc9a7000000000000000000000000000000000000000000000000000000007bffffffffffffffffffffffffffffffffffffffffffffffffffffffff1916827bffffffffffffffffffffffffffffffffffffffffffffffffffffffff1916145b9050919050565b6000609860009054906101000a900473ffffffffffffffffffffffffffffffffffffffff1673ffffffffffffffffffffffffffffffffffffffff16630456f9c88585856040518463ffffffff1660e01b8152600401610b8193929190616bdc565b602060405180830381865afa158015610b9e573d6000803e3d6000fd5b505050506040513d601f19601f82011682018060405250810190610bc29190616c28565b90509392505050565b60a66020528060005260406000206000915054906101000a900473ffffffffffffffffffffffffffffffffffffffff1681565b6000609860009054906101000a900473ffffffffffffffffffffffffffffffffffffffff1673ffffffffffffffffffffffffffffffffffffffff166319da7e2a836040518263ffffffff1660e01b8152600401610c5b91906164f6565b602060405180830381865afa158015610c78573d6000803e3d6000fd5b505050506040513d601f19601f82011682018060405250810190610c9c9190616c6a565b9050919050565b610cab613708565b6001609d6000828254610cbe9190616cc6565b925050819055506000609860009054906101000a900473ffffffffffffffffffffffffffffffffffffffff1673ffffffffffffffffffffffffffffffffffffffff166369487b1c6040518163ffffffff1660e01b8152600401602060405180830381865afa158015610d34573d6000803e3d6000fd5b505050506040513d601f19601f82011682018060405250810190610d589190616c28565b90506000609860009054906101000a900473ffffffffffffffffffffffffffffffffffffffff1673ffffffffffffffffffffffffffffffffffffffff1663b90b8a2a6040518163ffffffff1660e01b8152600401602060405180830381865afa158015610dc9573d6000803e3d6000fd5b505050506040513d601f19601f82011682018060405250810190610ded9190616c28565b905060005b82811015611669576000609860009054906101000a900473ffffffffffffffffffffffffffffffffffffffff1673ffffffffffffffffffffffffffffffffffffffff1663d3f7f266846040518263ffffffff1660e01b8152600401610e579190616214565b600060405180830381865afa158015610e74573d6000803e3d6000fd5b505050506040513d6000823e3d601f19601f82011682018060405250810190610e9d9190617035565b93505050506000818381518110610eb757610eb661710c565b5b602002602001015190506000609860009054906101000a900473ffffffffffffffffffffffffffffffffffffffff1673ffffffffffffffffffffffffffffffffffffffff1663b6ad185b836040518263ffffffff1660e01b8152600401610f1e91906164f6565b602060405180830381865afa158015610f3b573d6000803e3d6000fd5b505050506040513d601f19601f82011682018060405250810190610f5f9190616c28565b9050609c60009054906101000a900467ffffffffffffffff1667ffffffffffffffff168267ffffffffffffffff160361141f576000609860009054906101000a900473ffffffffffffffffffffffffffffffffffffffff1673ffffffffffffffffffffffffffffffffffffffff1663d1c68aa3846040518263ffffffff1660e01b8152600401610fef91906164f6565b600060405180830381865afa15801561100c573d6000803e3d6000fd5b505050506040513d6000823e3d601f19601f82011682018060405250810190611035919061713b565b905060005b828110156114185760008282815181106110575761105661710c565b5b602002602001015190506000609860009054906101000a900473ffffffffffffffffffffffffffffffffffffffff1673ffffffffffffffffffffffffffffffffffffffff166332599665836040518263ffffffff1660e01b81526004016110be919061645f565b602060405180830381865afa1580156110db573d6000803e3d6000fd5b505050506040513d601f19601f820116820180604052508101906110ff9190617184565b90506000609c60089054906101000a900473ffffffffffffffffffffffffffffffffffffffff1673ffffffffffffffffffffffffffffffffffffffff168373ffffffffffffffffffffffffffffffffffffffff16036111fb578273ffffffffffffffffffffffffffffffffffffffff166370a08231609a60009054906101000a900473ffffffffffffffffffffffffffffffffffffffff166040518263ffffffff1660e01b81526004016111b3919061645f565b602060405180830381865afa1580156111d0573d6000803e3d6000fd5b505050506040513d601f19601f820116820180604052508101906111f49190616c28565b90506112c7565b6112c483609c60089054906101000a900473ffffffffffffffffffffffffffffffffffffffff168573ffffffffffffffffffffffffffffffffffffffff166370a08231609a60009054906101000a900473ffffffffffffffffffffffffffffffffffffffff166040518263ffffffff1660e01b815260040161127d919061645f565b602060405180830381865afa15801561129a573d6000803e3d6000fd5b505050506040513d601f19601f820116820180604052508101906112be9190616c28565b85613127565b90505b6112d081612b08565b609e6000609d54815260200190815260200160002060008282546112f49190616cc6565b9250508190555061130481612b08565b60a16000609d54815260200190815260200160002060008573ffffffffffffffffffffffffffffffffffffffff1673ffffffffffffffffffffffffffffffffffffffff16815260200190815260200160002060008282546113659190616cc6565b92505081905550600160a06000609d54815260200190815260200160002060008282546113929190616cc6565b925050819055506113a281612b08565b60a26000609d5481526020019081526020016000206000609c60009054906101000a900467ffffffffffffffff1667ffffffffffffffff1667ffffffffffffffff16815260200190815260200160002060008282546114019190616cc6565b92505081905550505050808060010191505061103a565b5050611659565b600061142a8361166e565b90506000609860009054906101000a900473ffffffffffffffffffffffffffffffffffffffff1673ffffffffffffffffffffffffffffffffffffffff1663d1c68aa3856040518263ffffffff1660e01b815260040161148991906164f6565b600060405180830381865afa1580156114a6573d6000803e3d6000fd5b505050506040513d6000823e3d601f19601f820116820180604052508101906114cf919061713b565b90506000609860009054906101000a900473ffffffffffffffffffffffffffffffffffffffff1673ffffffffffffffffffffffffffffffffffffffff1663221f3371866040518263ffffffff1660e01b815260040161152e91906164f6565b600060405180830381865afa15801561154b573d6000803e3d6000fd5b505050506040513d6000823e3d601f19601f8201168201806040525081019061157491906171b1565b905060008067ffffffffffffffff8111156115925761159161683e565b5b6040519080825280602002602001820160405280156115c05781602001602082028036833780820191505090505b50905060008067ffffffffffffffff8111156115df576115de61683e565b5b60405190808252806020026020018201604052801561160d5781602001602082028036833780820191505090505b5090506000600285848685609d5487886040516020016116349897969594939291906173b1565b6040516020818303038152906040529050611652888783600161274f565b5050505050505b5050508080600101915050610df2565b505050565b6000609860009054906101000a900473ffffffffffffffffffffffffffffffffffffffff1673ffffffffffffffffffffffffffffffffffffffff1663340fbc74836040518263ffffffff1660e01b81526004016116cb91906164f6565b602060405180830381865afa1580156116e8573d6000803e3d6000fd5b505050506040513d601f19601f8201168201806040525081019061170c9190616c6a565b9050919050565b6000609860009054906101000a900473ffffffffffffffffffffffffffffffffffffffff1673ffffffffffffffffffffffffffffffffffffffff16633c8da5886040518163ffffffff1660e01b8152600401602060405180830381865afa158015611782573d6000803e3d6000fd5b505050506040513d601f19601f820116820180604052508101906117a69190616c28565b905090565b609c60009054906101000a900467ffffffffffffffff1681565b609c60089054906101000a900473ffffffffffffffffffffffffffffffffffffffff1681565b6117f3613708565b6000609b54426118039190617459565b9050600c603c808361181591906174bc565b61181f91906174bc565b1161185f576040517f08c379a000000000000000000000000000000000000000000000000000000000815260040161185690617570565b60405180910390fd5b60648260ff1611158015611877575060018260ff1610155b6118b6576040517f08c379a00000000000000000000000000000000000000000000000000000000081526004016118ad90617602565b60405180910390fd5b81609a60146101000a81548160ff021916908360ff16021790555042609b819055505050565b609960149054906101000a900461ffff1681565b6118f8613708565b6000609d5490506000609e60008381526020019081526020016000205490506000609860009054906101000a900473ffffffffffffffffffffffffffffffffffffffff1673ffffffffffffffffffffffffffffffffffffffff166369487b1c6040518163ffffffff1660e01b8152600401602060405180830381865afa158015611986573d6000803e3d6000fd5b505050506040513d601f19601f820116820180604052508101906119aa9190616c28565b90506000609860009054906101000a900473ffffffffffffffffffffffffffffffffffffffff1673ffffffffffffffffffffffffffffffffffffffff1663b90b8a2a6040518163ffffffff1660e01b8152600401602060405180830381865afa158015611a1b573d6000803e3d6000fd5b505050506040513d601f19601f82011682018060405250810190611a3f9190616c28565b90506000609860009054906101000a900473ffffffffffffffffffffffffffffffffffffffff1673ffffffffffffffffffffffffffffffffffffffff1663f15817876040518163ffffffff1660e01b8152600401602060405180830381865afa158015611ab0573d6000803e3d6000fd5b505050506040513d601f19601f82011682018060405250810190611ad49190616c28565b905060005b83811015611efc576000609860009054906101000a900473ffffffffffffffffffffffffffffffffffffffff1673ffffffffffffffffffffffffffffffffffffffff1663d3f7f266856040518263ffffffff1660e01b8152600401611b3e9190616214565b600060405180830381865afa158015611b5b573d6000803e3d6000fd5b505050506040513d6000823e3d601f19601f82011682018060405250810190611b849190617035565b93505050506000818381518110611b9e57611b9d61710c565b5b602002602001015190506000609860009054906101000a900473ffffffffffffffffffffffffffffffffffffffff1673ffffffffffffffffffffffffffffffffffffffff1663b6ad185b836040518263ffffffff1660e01b8152600401611c0591906164f6565b602060405180830381865afa158015611c22573d6000803e3d6000fd5b505050506040513d601f19601f82011682018060405250810190611c469190616c28565b90506000609860009054906101000a900473ffffffffffffffffffffffffffffffffffffffff1673ffffffffffffffffffffffffffffffffffffffff1663fc698b4a846040518263ffffffff1660e01b8152600401611ca591906164f6565b602060405180830381865afa158015611cc2573d6000803e3d6000fd5b505050506040513d601f19601f82011682018060405250810190611ce69190616c28565b90506000609860009054906101000a900473ffffffffffffffffffffffffffffffffffffffff1673ffffffffffffffffffffffffffffffffffffffff16632a3ff8ad88866040518363ffffffff1660e01b8152600401611d47929190617622565b602060405180830381865afa158015611d64573d6000803e3d6000fd5b505050506040513d601f19601f82011682018060405250810190611d889190616c28565b9050600060a260008d815260200190815260200160002060008667ffffffffffffffff1667ffffffffffffffff1681526020019081526020016000205490506000609860009054906101000a900473ffffffffffffffffffffffffffffffffffffffff1673ffffffffffffffffffffffffffffffffffffffff1663bf0d49c0876040518263ffffffff1660e01b8152600401611e2491906164f6565b600060405180830381865afa158015611e41573d6000803e3d6000fd5b505050506040513d6000823e3d601f19601f82011682018060405250810190611e6a91906171b1565b9050828c68056bc75e2d6310000084611e83919061764b565b611e8d91906174bc565b1115611ee857609c60009054906101000a900467ffffffffffffffff1667ffffffffffffffff168667ffffffffffffffff1603611ed857611ed3888e8e89898989613786565b611ee7565b611ee68d8d88868686613fb4565b5b5b505050505050508080600101915050611ad9565b505050505050565b60a2602052816000526040600020602052806000526040600020600091509150505481565b611f31613708565b611f3b60006143b1565b565b609f6020528060005260406000206000915090505481565b60a46020528060005260406000206000915090505481565b609960009054906101000a900473ffffffffffffffffffffffffffffffffffffffff1681565b609e6020528060005260406000206000915090505481565b600080609860009054906101000a900473ffffffffffffffffffffffffffffffffffffffff1673ffffffffffffffffffffffffffffffffffffffff1663b631e80b6040518163ffffffff1660e01b8152600401602060405180830381865afa15801561201b573d6000803e3d6000fd5b505050506040513d601f19601f8201168201806040525081019061203f91906176cb565b90506000609860009054906101000a900473ffffffffffffffffffffffffffffffffffffffff1673ffffffffffffffffffffffffffffffffffffffff1663744fbc7a6040518163ffffffff1660e01b8152600401602060405180830381865afa1580156120b0573d6000803e3d6000fd5b505050506040513d601f19601f820116820180604052508101906120d49190617736565b90506120e58282868b8b8b8b614477565b9250505095945050505050565b60a56020528060005260406000206000915090505481565b600060029054906101000a900473ffffffffffffffffffffffffffffffffffffffff1673ffffffffffffffffffffffffffffffffffffffff163373ffffffffffffffffffffffffffffffffffffffff161461219c57336040517fd7f73334000000000000000000000000000000000000000000000000000000008152600401612193919061645f565b60405180910390fd5b6121ae816121a990617996565b6144b6565b50565b6000603360009054906101000a900473ffffffffffffffffffffffffffffffffffffffff16905090565b609a60149054906101000a900460ff1681565b6000806000609860009054906101000a900473ffffffffffffffffffffffffffffffffffffffff1673ffffffffffffffffffffffffffffffffffffffff166353fd43326040518163ffffffff1660e01b8152600401602060405180830381865afa158015612260573d6000803e3d6000fd5b505050506040513d601f19601f820116820180604052508101906122849190616c28565b905060005b81811015612625576000609860009054906101000a900473ffffffffffffffffffffffffffffffffffffffff1673ffffffffffffffffffffffffffffffffffffffff16639932ba4c836040518263ffffffff1660e01b81526004016122ee9190616214565b602060405180830381865afa15801561230b573d6000803e3d6000fd5b505050506040513d601f19601f8201168201806040525081019061232f9190616c6a565b90506000609860009054906101000a900473ffffffffffffffffffffffffffffffffffffffff1673ffffffffffffffffffffffffffffffffffffffff1663ea8ecf04836040518263ffffffff1660e01b815260040161238e919061645f565b602060405180830381865afa1580156123ab573d6000803e3d6000fd5b505050506040513d601f19601f820116820180604052508101906123cf91906179a9565b90506000609860009054906101000a900473ffffffffffffffffffffffffffffffffffffffff1673ffffffffffffffffffffffffffffffffffffffff166332599665846040518263ffffffff1660e01b815260040161242e919061645f565b602060405180830381865afa15801561244b573d6000803e3d6000fd5b505050506040513d601f19601f8201168201806040525081019061246f9190617184565b9050609c60009054906101000a900467ffffffffffffffff1667ffffffffffffffff168267ffffffffffffffff1603612615576000609860009054906101000a900473ffffffffffffffffffffffffffffffffffffffff1673ffffffffffffffffffffffffffffffffffffffff1663dd811ac985609c60089054906101000a900473ffffffffffffffffffffffffffffffffffffffff168773ffffffffffffffffffffffffffffffffffffffff166370a08231609a60009054906101000a900473ffffffffffffffffffffffffffffffffffffffff166040518263ffffffff1660e01b8152600401612561919061645f565b602060405180830381865afa15801561257e573d6000803e3d6000fd5b505050506040513d601f19601f820116820180604052508101906125a29190616c28565b866040518563ffffffff1660e01b81526004016125c294939291906179e5565b602060405180830381865afa1580156125df573d6000803e3d6000fd5b505050506040513d601f19601f820116820180604052508101906126039190616c28565b905080876126119190616cc6565b9650505b5050508080600101915050612289565b50819250505090565b60a76020528060005260406000206000915090505481565b60008060029054906101000a900473ffffffffffffffffffffffffffffffffffffffff16905090565b60a1602052816000526040600020602052806000526040600020600091509150505481565b61269c613708565b600073ffffffffffffffffffffffffffffffffffffffff168173ffffffffffffffffffffffffffffffffffffffff160361270b576040517f08c379a000000000000000000000000000000000000000000000000000000000815260040161270290617a9c565b60405180910390fd5b80606560006101000a81548173ffffffffffffffffffffffffffffffffffffffff021916908373ffffffffffffffffffffffffffffffffffffffff16021790555050565b60006040518060a001604052808560405160200161276d919061645f565b6040516020818303038152906040528152602001848152602001600067ffffffffffffffff8111156127a2576127a161683e565b5b6040519080825280602002602001820160405280156127db57816020015b6127c8616101565b8152602001906001900390816127c05790505b5081526020016001808111156127f4576127f3617abc565b5b84600181111561280757612806617abc565b5b14612813576000612837565b609960009054906101000a900473ffffffffffffffffffffffffffffffffffffffff165b73ffffffffffffffffffffffffffffffffffffffff16815260200161286c6040518060200160405280620dbba0815250614818565b815250905060008060029054906101000a900473ffffffffffffffffffffffffffffffffffffffff1673ffffffffffffffffffffffffffffffffffffffff166320487ded87846040518363ffffffff1660e01b81526004016128cf929190617cd3565b602060405180830381865afa1580156128ec573d6000803e3d6000fd5b505050506040513d601f19601f820116820180604052508101906129109190616c28565b9050600060018081111561292757612926617abc565b5b84600181111561293a57612939617abc565b5b036129e657600060029054906101000a900473ffffffffffffffffffffffffffffffffffffffff1673ffffffffffffffffffffffffffffffffffffffff166396f4e9f988856040518363ffffffff1660e01b815260040161299c929190617cd3565b6020604051808303816000875af11580156129bb573d6000803e3d6000fd5b505050506040513d601f19601f820116820180604052508101906129df9190617d18565b9050612a8a565b600060029054906101000a900473ffffffffffffffffffffffffffffffffffffffff1673ffffffffffffffffffffffffffffffffffffffff166396f4e9f98389866040518463ffffffff1660e01b8152600401612a44929190617cd3565b60206040518083038185885af1158015612a62573d6000803e3d6000fd5b50505050506040513d601f19601f82011682018060405250810190612a879190617d18565b90505b7f54791b38f3859327992a1ca0590ad3c0f08feba98d1a4f56ab0dca74d203392a81604051612ab99190617d54565b60405180910390a150505050505050565b609860009054906101000a900473ffffffffffffffffffffffffffffffffffffffff1681565b60a06020528060005260406000206000915090505481565b6000670de0b6b3a7640000612b1b611713565b83612b26919061764b565b612b3091906174bc565b9050919050565b612b3f613708565b80609860006101000a81548173ffffffffffffffffffffffffffffffffffffffff021916908373ffffffffffffffffffffffffffffffffffffffff16021790555050565b606560009054906101000a900473ffffffffffffffffffffffffffffffffffffffff1681565b612bb1613708565b6000609d5490506000609e60008381526020019081526020016000205490506000609860009054906101000a900473ffffffffffffffffffffffffffffffffffffffff1673ffffffffffffffffffffffffffffffffffffffff16638e9d7c186040518163ffffffff1660e01b8152600401602060405180830381865afa158015612c3f573d6000803e3d6000fd5b505050506040513d601f19601f82011682018060405250810190612c639190616c28565b90506000609860009054906101000a900473ffffffffffffffffffffffffffffffffffffffff1673ffffffffffffffffffffffffffffffffffffffff1663f15817876040518163ffffffff1660e01b8152600401602060405180830381865afa158015612cd4573d6000803e3d6000fd5b505050506040513d601f19601f82011682018060405250810190612cf89190616c28565b905060005b82811015613120576000609860009054906101000a900473ffffffffffffffffffffffffffffffffffffffff1673ffffffffffffffffffffffffffffffffffffffff1663536e3f6a846040518263ffffffff1660e01b8152600401612d629190616214565b600060405180830381865afa158015612d7f573d6000803e3d6000fd5b505050506040513d6000823e3d601f19601f82011682018060405250810190612da89190617d6f565b93505050506000818381518110612dc257612dc161710c565b5b602002602001015190506000609860009054906101000a900473ffffffffffffffffffffffffffffffffffffffff1673ffffffffffffffffffffffffffffffffffffffff1663b6ad185b836040518263ffffffff1660e01b8152600401612e2991906164f6565b602060405180830381865afa158015612e46573d6000803e3d6000fd5b505050506040513d601f19601f82011682018060405250810190612e6a9190616c28565b90506000609860009054906101000a900473ffffffffffffffffffffffffffffffffffffffff1673ffffffffffffffffffffffffffffffffffffffff1663fc698b4a846040518263ffffffff1660e01b8152600401612ec991906164f6565b602060405180830381865afa158015612ee6573d6000803e3d6000fd5b505050506040513d601f19601f82011682018060405250810190612f0a9190616c28565b90506000609860009054906101000a900473ffffffffffffffffffffffffffffffffffffffff1673ffffffffffffffffffffffffffffffffffffffff16632a3ff8ad88866040518363ffffffff1660e01b8152600401612f6b929190617622565b602060405180830381865afa158015612f88573d6000803e3d6000fd5b505050506040513d601f19601f82011682018060405250810190612fac9190616c28565b9050600060a260008c815260200190815260200160002060008667ffffffffffffffff1667ffffffffffffffff1681526020019081526020016000205490506000609860009054906101000a900473ffffffffffffffffffffffffffffffffffffffff1673ffffffffffffffffffffffffffffffffffffffff1663bf0d49c0876040518263ffffffff1660e01b815260040161304891906164f6565b600060405180830381865afa158015613065573d6000803e3d6000fd5b505050506040513d6000823e3d601f19601f8201168201806040525081019061308e91906171b1565b9050828b68056bc75e2d63100000846130a7919061764b565b6130b191906174bc565b101561310c57609c60009054906101000a900467ffffffffffffffff1667ffffffffffffffff168667ffffffffffffffff16036130fc576130f7888d8d89898989614897565b61310b565b61310a8c8c888686866150a1565b5b5b505050505050508080600101915050612cfd565b5050505050565b6000609860009054906101000a900473ffffffffffffffffffffffffffffffffffffffff1673ffffffffffffffffffffffffffffffffffffffff1663dd811ac9868686866040518563ffffffff1660e01b815260040161318a94939291906179e5565b602060405180830381865afa1580156131a7573d6000803e3d6000fd5b505050506040513d601f19601f820116820180604052508101906131cb9190616c28565b9050949350505050565b609a60009054906101000a900473ffffffffffffffffffffffffffffffffffffffff1681565b60008060019054906101000a900460ff1615905080801561322c5750600160008054906101000a900460ff1660ff16105b80613259575061323b306155e7565b1580156132585750600160008054906101000a900460ff1660ff16145b5b613298576040517f08c379a000000000000000000000000000000000000000000000000000000000815260040161328f90617eb8565b60405180910390fd5b60016000806101000a81548160ff021916908360ff16021790555080156132d5576001600060016101000a81548160ff0219169083151502179055505b6132de8361560a565b6132e661570f565b86609c60006101000a81548167ffffffffffffffff021916908367ffffffffffffffff16021790555085609a60006101000a81548173ffffffffffffffffffffffffffffffffffffffff021916908373ffffffffffffffffffffffffffffffffffffffff16021790555084609860006101000a81548173ffffffffffffffffffffffffffffffffffffffff021916908373ffffffffffffffffffffffffffffffffffffffff16021790555083609960006101000a81548173ffffffffffffffffffffffffffffffffffffffff021916908373ffffffffffffffffffffffffffffffffffffffff1602179055506005609960146101000a81548161ffff021916908361ffff1602179055508373ffffffffffffffffffffffffffffffffffffffff1663095ea7b3600060029054906101000a900473ffffffffffffffffffffffffffffffffffffffff167fffffffffffffffffffffffffffffffffffffffffffffffffffffffffffffffff6040518363ffffffff1660e01b815260040161346d929190617ed8565b6020604051808303816000875af115801561348c573d6000803e3d6000fd5b505050506040513d601f19601f820116820180604052508101906134b09190617f2d565b5081609c60086101000a81548173ffffffffffffffffffffffffffffffffffffffff021916908373ffffffffffffffffffffffffffffffffffffffff160217905550600a609a60146101000a81548160ff021916908360ff16021790555042609b81905550801561356e5760008060016101000a81548160ff0219169083151502179055507f7f26b83ff96e1f2b6a682f133852f6798a09c465da95921460cefb384740249860016040516135659190617f95565b60405180910390a15b50505050505050565b60a36020528060005260406000206000915090505481565b600073ffffffffffffffffffffffffffffffffffffffff168173ffffffffffffffffffffffffffffffffffffffff16036135fe576040517f08c379a00000000000000000000000000000000000000000000000000000000081526004016135f590617a9c565b60405180910390fd5b606560009054906101000a900473ffffffffffffffffffffffffffffffffffffffff1673ffffffffffffffffffffffffffffffffffffffff168173ffffffffffffffffffffffffffffffffffffffff161461368e576040517f08c379a000000000000000000000000000000000000000000000000000000000815260040161368590618022565b60405180910390fd5b3373ffffffffffffffffffffffffffffffffffffffff168173ffffffffffffffffffffffffffffffffffffffff16146136fc576040517f08c379a00000000000000000000000000000000000000000000000000000000081526004016136f3906180b4565b60405180910390fd5b613705816143b1565b50565b613710615768565b73ffffffffffffffffffffffffffffffffffffffff1661372e6121b1565b73ffffffffffffffffffffffffffffffffffffffff1614613784576040517f08c379a000000000000000000000000000000000000000000000000000000000815260040161377b90618120565b60405180910390fd5b565b61378e616131565b60a2600088815260200190815260200160002060008667ffffffffffffffff1667ffffffffffffffff168152602001908152602001600020548160600181815250506000609c60089054906101000a900473ffffffffffffffffffffffffffffffffffffffff1673ffffffffffffffffffffffffffffffffffffffff166370a08231609a60009054906101000a900473ffffffffffffffffffffffffffffffffffffffff166040518263ffffffff1660e01b815260040161384f919061645f565b602060405180830381865afa15801561386c573d6000803e3d6000fd5b505050506040513d601f19601f820116820180604052508101906138909190616c28565b905060005b85811015613c3157609860009054906101000a900473ffffffffffffffffffffffffffffffffffffffff1673ffffffffffffffffffffffffffffffffffffffff16639932ba4c826040518263ffffffff1660e01b81526004016138f89190616214565b602060405180830381865afa158015613915573d6000803e3d6000fd5b505050506040513d601f19601f820116820180604052508101906139399190616c6a565b836000019073ffffffffffffffffffffffffffffffffffffffff16908173ffffffffffffffffffffffffffffffffffffffff1681525050609860009054906101000a900473ffffffffffffffffffffffffffffffffffffffff1673ffffffffffffffffffffffffffffffffffffffff16633259966584600001516040518263ffffffff1660e01b81526004016139cf919061645f565b602060405180830381865afa1580156139ec573d6000803e3d6000fd5b505050506040513d601f19601f82011682018060405250810190613a109190617184565b836020019062ffffff16908162ffffff1681525050609860009054906101000a900473ffffffffffffffffffffffffffffffffffffffff1673ffffffffffffffffffffffffffffffffffffffff16634b3e0b8084600001516040518263ffffffff1660e01b8152600401613a84919061645f565b602060405180830381865afa158015613aa1573d6000803e3d6000fd5b505050506040513d601f19601f82011682018060405250810190613ac59190616c28565b8360400181815250506000609c60089054906101000a900473ffffffffffffffffffffffffffffffffffffffff1673ffffffffffffffffffffffffffffffffffffffff16846000015173ffffffffffffffffffffffffffffffffffffffff1603613b3157829050613c0a565b613c078460000151609c60089054906101000a900473ffffffffffffffffffffffffffffffffffffffff16866000015173ffffffffffffffffffffffffffffffffffffffff166370a08231609a60009054906101000a900473ffffffffffffffffffffffffffffffffffffffff166040518263ffffffff1660e01b8152600401613bbb919061645f565b602060405180830381865afa158015613bd8573d6000803e3d6000fd5b505050506040513d601f19601f82011682018060405250810190613bfc9190616c28565b308860200151611fab565b90505b8084608001818151613c1c9190616cc6565b91508181525050508080600101915050613895565b5060008768056bc75e2d631000008460600151613c4e919061764b565b613c5891906174bc565b9050600081858560800151613c6d919061764b565b613c7791906174bc565b90506000818560800151613c8b9190617459565b905060005b87811015613f46576000609860009054906101000a900473ffffffffffffffffffffffffffffffffffffffff1673ffffffffffffffffffffffffffffffffffffffff1663239aad0d836040518263ffffffff1660e01b8152600401613cf59190616214565b602060405180830381865afa158015613d12573d6000803e3d6000fd5b505050506040513d601f19601f82011682018060405250810190613d369190616c6a565b90506000609860009054906101000a900473ffffffffffffffffffffffffffffffffffffffff1673ffffffffffffffffffffffffffffffffffffffff166332599665836040518263ffffffff1660e01b8152600401613d95919061645f565b602060405180830381865afa158015613db2573d6000803e3d6000fd5b505050506040513d601f19601f82011682018060405250810190613dd69190617184565b90506000609860009054906101000a900473ffffffffffffffffffffffffffffffffffffffff1673ffffffffffffffffffffffffffffffffffffffff16634b3e0b80846040518263ffffffff1660e01b8152600401613e35919061645f565b602060405180830381865afa158015613e52573d6000803e3d6000fd5b505050506040513d601f19601f82011682018060405250810190613e769190616c28565b90506000609c60089054906101000a900473ffffffffffffffffffffffffffffffffffffffff1673ffffffffffffffffffffffffffffffffffffffff168473ffffffffffffffffffffffffffffffffffffffff1603613eed578a8288613edc919061764b565b613ee691906174bc565b9050613f35565b613f32609c60089054906101000a900473ffffffffffffffffffffffffffffffffffffffff16858d858b613f21919061764b565b613f2b91906174bc565b3087611fab565b90505b505050508080600101915050613c90565b5080609f60008d81526020019081526020016000206000828254613f6a9190616cc6565b925050819055508583613f7d9190617459565b60a560008d81526020019081526020016000206000828254613f9f9190616cc6565b92505081905550505050505050505050505050565b60008568056bc75e2d6310000084613fcc919061764b565b613fd691906174bc565b90508381613fe49190617459565b60a5600089815260200190815260200160002060008282546140069190616cc6565b9250508190555060006140188661166e565b90506000609860009054906101000a900473ffffffffffffffffffffffffffffffffffffffff1673ffffffffffffffffffffffffffffffffffffffff1663d1c68aa3886040518263ffffffff1660e01b815260040161407791906164f6565b600060405180830381865afa158015614094573d6000803e3d6000fd5b505050506040513d6000823e3d601f19601f820116820180604052508101906140bd919061713b565b90506000609860009054906101000a900473ffffffffffffffffffffffffffffffffffffffff1673ffffffffffffffffffffffffffffffffffffffff1663d050ca7c896040518263ffffffff1660e01b815260040161411c91906164f6565b600060405180830381865afa158015614139573d6000803e3d6000fd5b505050506040513d6000823e3d601f19601f82011682018060405250810190614162919061713b565b90506000609860009054906101000a900473ffffffffffffffffffffffffffffffffffffffff1673ffffffffffffffffffffffffffffffffffffffff1663221f33718a6040518263ffffffff1660e01b81526004016141c191906164f6565b600060405180830381865afa1580156141de573d6000803e3d6000fd5b505050506040513d6000823e3d601f19601f8201168201806040525081019061420791906171b1565b90506000609860009054906101000a900473ffffffffffffffffffffffffffffffffffffffff1673ffffffffffffffffffffffffffffffffffffffff1663a1adff888b6040518263ffffffff1660e01b815260040161426691906164f6565b600060405180830381865afa158015614283573d6000803e3d6000fd5b505050506040513d6000823e3d601f19601f820116820180604052508101906142ac91906171b1565b90506000600267ffffffffffffffff8111156142cb576142ca61683e565b5b6040519080825280602002602001820160405280156142f95781602001602082028036833780820191505090505b5090508b816000815181106143115761431061710c565b5b60200260200101818152505089816001815181106143325761433161710c565b5b60200260200101818152505088816002815181106143535761435261710c565b5b6020026020010181815250506000600386868686609d548e8860405160200161438398979695949392919061817b565b60405160208183030381529060405290506143a18c8883600161274f565b5050505050505050505050505050565b6000603360009054906101000a900473ffffffffffffffffffffffffffffffffffffffff16905081603360006101000a81548173ffffffffffffffffffffffffffffffffffffffff021916908373ffffffffffffffffffffffffffffffffffffffff1602179055508173ffffffffffffffffffffffffffffffffffffffff168173ffffffffffffffffffffffffffffffffffffffff167f8be0079c531659141344cd1fd0a4f28419497f9722a3daafe3b4186f6b6457e060405160405180910390a35050565b6000808662ffffff16111561449b57614494888787878787615770565b90506144ab565b6144a88786868686615924565b90505b979650505050505050565b600081600001519050600082602001519050600083604001518060200190518101906144e29190618238565b905060008060008060008089606001518060200190518101906145059190618265565b955095509550955095509550600086031561480c57600186031561480b57600286036146bd5760005b82518110156146b75782818151811061454a5761454961710c565b5b6020026020010151609e600086815260200190815260200160002060008282546145749190616cc6565b9250508190555082818151811061458e5761458d61710c565b5b602002602001015160a1600086815260200190815260200160002060008884815181106145be576145bd61710c565b5b602002602001015173ffffffffffffffffffffffffffffffffffffffff1673ffffffffffffffffffffffffffffffffffffffff168152602001908152602001600020600082825461460f9190616cc6565b925050819055508281815181106146295761462861710c565b5b602002602001015160a2600086815260200190815260200160002060008b67ffffffffffffffff1667ffffffffffffffff16815260200190815260200160002060008282546146789190616cc6565b92505081905550600160a0600086815260200190815260200160002060008282546146a39190616cc6565b92505081905550808060010191505061452e565b5061480a565b6003860361477d5760008a6080015190506000816000815181106146e4576146e361710c565b5b60200260200101516000015190506000826000815181106147085761470761710c565b5b6020026020010151602001519050600061474883609c60089054906101000a900473ffffffffffffffffffffffffffffffffffffffff1684306003611fab565b905080609f6000898152602001908152602001600020600082825461476d9190616cc6565b9250508190555050505050614809565b6004860361480857609860009054906101000a900473ffffffffffffffffffffffffffffffffffffffff1673ffffffffffffffffffffffffffffffffffffffff16638baa6bf16040518163ffffffff1660e01b8152600401600060405180830381600087803b1580156147ef57600080fd5b505af1158015614803573d6000803e3d6000fd5b505050505b5b5b5b5b50505050505050505050565b60606397a657c960e01b82604051602401614833919061837e565b604051602081830303815290604052907bffffffffffffffffffffffffffffffffffffffffffffffffffffffff19166020820180517bffffffffffffffffffffffffffffffffffffffffffffffffffffffff83818316178352505050509050919050565b61489f61617b565b609860009054906101000a900473ffffffffffffffffffffffffffffffffffffffff1673ffffffffffffffffffffffffffffffffffffffff16639932ba4c896040518263ffffffff1660e01b81526004016148fa9190616214565b602060405180830381865afa158015614917573d6000803e3d6000fd5b505050506040513d601f19601f8201168201806040525081019061493b9190616c6a565b816000019073ffffffffffffffffffffffffffffffffffffffff16908173ffffffffffffffffffffffffffffffffffffffff1681525050609860009054906101000a900473ffffffffffffffffffffffffffffffffffffffff1673ffffffffffffffffffffffffffffffffffffffff16633259966582600001516040518263ffffffff1660e01b81526004016149d1919061645f565b602060405180830381865afa1580156149ee573d6000803e3d6000fd5b505050506040513d601f19601f82011682018060405250810190614a129190617184565b816020019062ffffff16908162ffffff1681525050609860009054906101000a900473ffffffffffffffffffffffffffffffffffffffff1673ffffffffffffffffffffffffffffffffffffffff16634b3e0b8082600001516040518263ffffffff1660e01b8152600401614a86919061645f565b602060405180830381865afa158015614aa3573d6000803e3d6000fd5b505050506040513d601f19601f82011682018060405250810190614ac79190616c28565b81604001818152505060a2600088815260200190815260200160002060008667ffffffffffffffff1667ffffffffffffffff168152602001908152602001600020548160600181815250506000816000015173ffffffffffffffffffffffffffffffffffffffff166370a08231609a60009054906101000a900473ffffffffffffffffffffffffffffffffffffffff166040518263ffffffff1660e01b8152600401614b73919061645f565b602060405180830381865afa158015614b90573d6000803e3d6000fd5b505050506040513d601f19601f82011682018060405250810190614bb49190616c28565b905060005b85811015614d3357609c60089054906101000a900473ffffffffffffffffffffffffffffffffffffffff1673ffffffffffffffffffffffffffffffffffffffff16836000015173ffffffffffffffffffffffffffffffffffffffff1603614c2957818360a0018181525050614d09565b614cff8360000151609c60089054906101000a900473ffffffffffffffffffffffffffffffffffffffff16856000015173ffffffffffffffffffffffffffffffffffffffff166370a08231609a60009054906101000a900473ffffffffffffffffffffffffffffffffffffffff166040518263ffffffff1660e01b8152600401614cb3919061645f565b602060405180830381865afa158015614cd0573d6000803e3d6000fd5b505050506040513d601f19601f82011682018060405250810190614cf49190616c28565b308760200151611fab565b8360a00181815250505b8260a0015183608001818151614d1f9190616cc6565b915081815250508080600101915050614bb9565b5060008768056bc75e2d631000008460600151614d50919061764b565b614d5a91906174bc565b905060008185614d6a9190617459565b9050600060a560008c81526020019081526020016000205482609f60008e815260200190815260200160002054614da1919061764b565b614dab91906174bc565b90508085608001818151614dbf9190616cc6565b9150818152505060005b87811015615092576000609860009054906101000a900473ffffffffffffffffffffffffffffffffffffffff1673ffffffffffffffffffffffffffffffffffffffff16639932ba4c836040518263ffffffff1660e01b8152600401614e2e9190616214565b602060405180830381865afa158015614e4b573d6000803e3d6000fd5b505050506040513d601f19601f82011682018060405250810190614e6f9190616c6a565b90506000609860009054906101000a900473ffffffffffffffffffffffffffffffffffffffff1673ffffffffffffffffffffffffffffffffffffffff166332599665836040518263ffffffff1660e01b8152600401614ece919061645f565b602060405180830381865afa158015614eeb573d6000803e3d6000fd5b505050506040513d601f19601f82011682018060405250810190614f0f9190617184565b90506000609860009054906101000a900473ffffffffffffffffffffffffffffffffffffffff1673ffffffffffffffffffffffffffffffffffffffff16634b3e0b80846040518263ffffffff1660e01b8152600401614f6e919061645f565b602060405180830381865afa158015614f8b573d6000803e3d6000fd5b505050506040513d601f19601f82011682018060405250810190614faf9190616c28565b9050609c60089054906101000a900473ffffffffffffffffffffffffffffffffffffffff1673ffffffffffffffffffffffffffffffffffffffff168373ffffffffffffffffffffffffffffffffffffffff160361502f5789818a60800151615017919061764b565b61502191906174bc565b8960a0018181525050615082565b615078609c60089054906101000a900473ffffffffffffffffffffffffffffffffffffffff16848c848d60800151615067919061764b565b61507191906174bc565b3086611fab565b8960a00181815250505b5050508080600101915050614dc9565b50505050505050505050505050565b6150a96161cc565b60008668056bc75e2d63100000856150c1919061764b565b6150cb91906174bc565b9050600081866150db9190617459565b9050600060a560008b81526020019081526020016000205482609f60008d815260200190815260200160002054615112919061764b565b61511c91906174bc565b905060006151298961166e565b90506000615165609c60089054906101000a900473ffffffffffffffffffffffffffffffffffffffff1661515c8c610bfe565b85306003611fab565b9050609860009054906101000a900473ffffffffffffffffffffffffffffffffffffffff1673ffffffffffffffffffffffffffffffffffffffff1663d1c68aa38b6040518263ffffffff1660e01b81526004016151c291906164f6565b600060405180830381865afa1580156151df573d6000803e3d6000fd5b505050506040513d6000823e3d601f19601f82011682018060405250810190615208919061713b565b8660000181905250609860009054906101000a900473ffffffffffffffffffffffffffffffffffffffff1673ffffffffffffffffffffffffffffffffffffffff1663d050ca7c8b6040518263ffffffff1660e01b815260040161526b91906164f6565b600060405180830381865afa158015615288573d6000803e3d6000fd5b505050506040513d6000823e3d601f19601f820116820180604052508101906152b1919061713b565b8660200181905250609860009054906101000a900473ffffffffffffffffffffffffffffffffffffffff1673ffffffffffffffffffffffffffffffffffffffff1663221f33718b6040518263ffffffff1660e01b815260040161531491906164f6565b600060405180830381865afa158015615331573d6000803e3d6000fd5b505050506040513d6000823e3d601f19601f8201168201806040525081019061535a91906171b1565b8660400181905250609860009054906101000a900473ffffffffffffffffffffffffffffffffffffffff1673ffffffffffffffffffffffffffffffffffffffff1663a1adff888b6040518263ffffffff1660e01b81526004016153bd91906164f6565b600060405180830381865afa1580156153da573d6000803e3d6000fd5b505050506040513d6000823e3d601f19601f8201168201806040525081019061540391906171b1565b8660600181905250600267ffffffffffffffff8111156154265761542561683e565b5b6040519080825280602002602001820160405280156154545781602001602082028036833780820191505090505b5086608001819052508a86608001516000815181106154765761547561710c565b5b60200260200101818152505088866080015160018151811061549b5761549a61710c565b5b6020026020010181815250506000600167ffffffffffffffff8111156154c4576154c361683e565b5b6040519080825280602002602001820160405280156154fd57816020015b6154ea616101565b8152602001906001900390816154e25790505b5090506155098b610bfe565b8160008151811061551d5761551c61710c565b5b60200260200101516000019073ffffffffffffffffffffffffffffffffffffffff16908173ffffffffffffffffffffffffffffffffffffffff168152505081816000815181106155705761556f61710c565b5b6020026020010151602001818152505060006004886000015189602001518a604001518b60600151609d548e8e608001516040516020016155b89897969594939291906183d4565b60405160208183030381529060405290506155d78c8286856001615bb2565b5050505050505050505050505050565b6000808273ffffffffffffffffffffffffffffffffffffffff163b119050919050565b600060019054906101000a900460ff16615659576040517f08c379a0000000000000000000000000000000000000000000000000000000008152600401615650906184ee565b60405180910390fd5b600073ffffffffffffffffffffffffffffffffffffffff168173ffffffffffffffffffffffffffffffffffffffff16036156cb5760006040517fd7f733340000000000000000000000000000000000000000000000000000000081526004016156c2919061645f565b60405180910390fd5b80600060026101000a81548173ffffffffffffffffffffffffffffffffffffffff021916908373ffffffffffffffffffffffffffffffffffffffff16021790555050565b600060019054906101000a900460ff1661575e576040517f08c379a0000000000000000000000000000000000000000000000000000000008152600401615755906184ee565b60405180910390fd5b6157666160a0565b565b600033905090565b60008473ffffffffffffffffffffffffffffffffffffffff1663095ea7b388856040518363ffffffff1660e01b81526004016157ad929190617ed8565b6020604051808303816000875af11580156157cc573d6000803e3d6000fd5b505050506040513d601f19601f820116820180604052508101906157f09190617f2d565b5060006040518061010001604052808773ffffffffffffffffffffffffffffffffffffffff1681526020018673ffffffffffffffffffffffffffffffffffffffff1681526020018862ffffff1681526020018473ffffffffffffffffffffffffffffffffffffffff16815260200161012c4261586c9190616cc6565b815260200185815260200160008152602001600073ffffffffffffffffffffffffffffffffffffffff1681525090508773ffffffffffffffffffffffffffffffffffffffff1663414bf389826040518263ffffffff1660e01b81526004016158d491906185ce565b6020604051808303816000875af11580156158f3573d6000803e3d6000fd5b505050506040513d601f19601f820116820180604052508101906159179190616c28565b9150509695505050505050565b600080600267ffffffffffffffff8111156159425761594161683e565b5b6040519080825280602002602001820160405280156159705781602001602082028036833780820191505090505b50905085816000815181106159885761598761710c565b5b602002602001019073ffffffffffffffffffffffffffffffffffffffff16908173ffffffffffffffffffffffffffffffffffffffff168152505084816001815181106159d7576159d661710c565b5b602002602001019073ffffffffffffffffffffffffffffffffffffffff16908173ffffffffffffffffffffffffffffffffffffffff168152505060008773ffffffffffffffffffffffffffffffffffffffff1663d06ca61f86846040518363ffffffff1660e01b8152600401615a4e9291906185ea565b600060405180830381865afa158015615a6b573d6000803e3d6000fd5b505050506040513d6000823e3d601f19601f82011682018060405250810190615a9491906171b1565b90508673ffffffffffffffffffffffffffffffffffffffff1663095ea7b389876040518363ffffffff1660e01b8152600401615ad1929190617ed8565b6020604051808303816000875af1158015615af0573d6000803e3d6000fd5b505050506040513d601f19601f82011682018060405250810190615b149190617f2d565b508773ffffffffffffffffffffffffffffffffffffffff16635c11d7958660008588426040518663ffffffff1660e01b8152600401615b57959493929190618655565b600060405180830381600087803b158015615b7157600080fd5b505af1158015615b85573d6000803e3d6000fd5b5050505080600181518110615b9d57615b9c61710c565b5b60200260200101519250505095945050505050565b600082519050609960149054906101000a900461ffff1661ffff16811115615c0f576040517f08c379a0000000000000000000000000000000000000000000000000000000008152600401615c0690618721565b60405180910390fd5b60005b81811015615d7657609960009054906101000a900473ffffffffffffffffffffffffffffffffffffffff1673ffffffffffffffffffffffffffffffffffffffff16848281518110615c6657615c6561710c565b5b60200260200101516000015173ffffffffffffffffffffffffffffffffffffffff1614615d6b57838181518110615ca057615c9f61710c565b5b60200260200101516000015173ffffffffffffffffffffffffffffffffffffffff1663095ea7b3600060029054906101000a900473ffffffffffffffffffffffffffffffffffffffff16868481518110615cfd57615cfc61710c565b5b6020026020010151602001516040518363ffffffff1660e01b8152600401615d26929190617ed8565b6020604051808303816000875af1158015615d45573d6000803e3d6000fd5b505050506040513d601f19601f82011682018060405250810190615d699190617f2d565b505b806001019050615c12565b5060006040518060a0016040528086604051602001615d95919061645f565b6040516020818303038152906040528152602001878152602001858152602001600180811115615dc857615dc7617abc565b5b856001811115615ddb57615dda617abc565b5b14615de7576000615e0b565b609960009054906101000a900473ffffffffffffffffffffffffffffffffffffffff165b73ffffffffffffffffffffffffffffffffffffffff168152602001615e406040518060200160405280620dbba0815250614818565b815250905060008060029054906101000a900473ffffffffffffffffffffffffffffffffffffffff1673ffffffffffffffffffffffffffffffffffffffff166320487ded89846040518363ffffffff1660e01b8152600401615ea3929190617cd3565b602060405180830381865afa158015615ec0573d6000803e3d6000fd5b505050506040513d601f19601f82011682018060405250810190615ee49190616c28565b90506000600180811115615efb57615efa617abc565b5b856001811115615f0e57615f0d617abc565b5b03615fba57600060029054906101000a900473ffffffffffffffffffffffffffffffffffffffff1673ffffffffffffffffffffffffffffffffffffffff166396f4e9f98a856040518363ffffffff1660e01b8152600401615f70929190617cd3565b6020604051808303816000875af1158015615f8f573d6000803e3d6000fd5b505050506040513d601f19601f82011682018060405250810190615fb39190617d18565b905061605e565b600060029054906101000a900473ffffffffffffffffffffffffffffffffffffffff1673ffffffffffffffffffffffffffffffffffffffff166396f4e9f9838b866040518463ffffffff1660e01b8152600401616018929190617cd3565b60206040518083038185885af1158015616036573d6000803e3d6000fd5b50505050506040513d601f19601f8201168201806040525081019061605b9190617d18565b90505b7f54791b38f3859327992a1ca0590ad3c0f08feba98d1a4f56ab0dca74d203392a8160405161608d9190617d54565b60405180910390a1505050505050505050565b600060019054906101000a900460ff166160ef576040517f08c379a00000000000000000000000000000000000000000000000000000000081526004016160e6906184ee565b60405180910390fd5b6160ff6160fa615768565b6143b1565b565b6040518060400160405280600073ffffffffffffffffffffffffffffffffffffffff168152602001600081525090565b6040518060a00160405280600073ffffffffffffffffffffffffffffffffffffffff168152602001600062ffffff1681526020016000815260200160008152602001600081525090565b6040518060c00160405280600073ffffffffffffffffffffffffffffffffffffffff168152602001600062ffffff168152602001600081526020016000815260200160008152602001600081525090565b6040518060a0016040528060608152602001606081526020016060815260200160608152602001606081525090565b6000819050919050565b61620e816161fb565b82525050565b60006020820190506162296000830184616205565b92915050565b6000604051905090565b600080fd5b600080fd5b60007fffffffff0000000000000000000000000000000000000000000000000000000082169050919050565b61627881616243565b811461628357600080fd5b50565b6000813590506162958161626f565b92915050565b6000602082840312156162b1576162b0616239565b5b60006162bf84828501616286565b91505092915050565b60008115159050919050565b6162dd816162c8565b82525050565b60006020820190506162f860008301846162d4565b92915050565b600073ffffffffffffffffffffffffffffffffffffffff82169050919050565b6000616329826162fe565b9050919050565b6163398161631e565b811461634457600080fd5b50565b60008135905061635681616330565b92915050565b60006fffffffffffffffffffffffffffffffff82169050919050565b6163818161635c565b811461638c57600080fd5b50565b60008135905061639e81616378565b92915050565b6000806000606084860312156163bd576163bc616239565b5b60006163cb86828701616347565b93505060206163dc86828701616347565b92505060406163ed8682870161638f565b9150509250925092565b616400816161fb565b811461640b57600080fd5b50565b60008135905061641d816163f7565b92915050565b60006020828403121561643957616438616239565b5b60006164478482850161640e565b91505092915050565b6164598161631e565b82525050565b60006020820190506164746000830184616450565b92915050565b600067ffffffffffffffff82169050919050565b6164978161647a565b81146164a257600080fd5b50565b6000813590506164b48161648e565b92915050565b6000602082840312156164d0576164cf616239565b5b60006164de848285016164a5565b91505092915050565b6164f08161647a565b82525050565b600060208201905061650b60008301846164e7565b92915050565b6000819050919050565b600061653661653161652c846162fe565b616511565b6162fe565b9050919050565b60006165488261651b565b9050919050565b600061655a8261653d565b9050919050565b61656a8161654f565b82525050565b60006020820190506165856000830184616561565b92915050565b600060ff82169050919050565b6165a18161658b565b81146165ac57600080fd5b50565b6000813590506165be81616598565b92915050565b6000602082840312156165da576165d9616239565b5b60006165e8848285016165af565b91505092915050565b600061ffff82169050919050565b616608816165f1565b82525050565b600060208201905061662360008301846165ff565b92915050565b600080604083850312156166405761663f616239565b5b600061664e8582860161640e565b925050602061665f858286016164a5565b9150509250929050565b600062ffffff82169050919050565b61668181616669565b811461668c57600080fd5b50565b60008135905061669e81616678565b92915050565b600080600080600060a086880312156166c0576166bf616239565b5b60006166ce88828901616347565b95505060206166df88828901616347565b94505060406166f08882890161640e565b935050606061670188828901616347565b92505060806167128882890161668f565b9150509295509295909350565b600080fd5b600060a0828403121561673a5761673961671f565b5b81905092915050565b60006020828403121561675957616758616239565b5b600082013567ffffffffffffffff8111156167775761677661623e565b5b61678384828501616724565b91505092915050565b6167958161658b565b82525050565b60006020820190506167b0600083018461678c565b92915050565b600080604083850312156167cd576167cc616239565b5b60006167db8582860161640e565b92505060206167ec85828601616347565b9150509250929050565b60006020828403121561680c5761680b616239565b5b600061681a84828501616347565b91505092915050565b600080fd5b600080fd5b6000601f19601f8301169050919050565b7f4e487b7100000000000000000000000000000000000000000000000000000000600052604160045260246000fd5b6168768261682d565b810181811067ffffffffffffffff821117156168955761689461683e565b5b80604052505050565b60006168a861622f565b90506168b4828261686d565b919050565b600067ffffffffffffffff8211156168d4576168d361683e565b5b6168dd8261682d565b9050602081019050919050565b82818337600083830152505050565b600061690c616907846168b9565b61689e565b90508281526020810184848401111561692857616927616828565b5b6169338482856168ea565b509392505050565b600082601f8301126169505761694f616823565b5b81356169608482602086016168f9565b91505092915050565b6002811061697657600080fd5b50565b60008135905061698881616969565b92915050565b600080600080608085870312156169a8576169a7616239565b5b60006169b6878288016164a5565b94505060206169c787828801616347565b935050604085013567ffffffffffffffff8111156169e8576169e761623e565b5b6169f48782880161693b565b9250506060616a0587828801616979565b91505092959194509250565b6000616a1c8261653d565b9050919050565b616a2c81616a11565b82525050565b6000602082019050616a476000830184616a23565b92915050565b60008060008060808587031215616a6757616a66616239565b5b6000616a7587828801616347565b9450506020616a8687828801616347565b9350506040616a978782880161640e565b9250506060616aa88782880161668f565b91505092959194509250565b6000616abf8261651b565b9050919050565b6000616ad182616ab4565b9050919050565b616ae181616ac6565b82525050565b6000602082019050616afc6000830184616ad8565b92915050565b6000616b0d826162fe565b9050919050565b616b1d81616b02565b8114616b2857600080fd5b50565b600081359050616b3a81616b14565b92915050565b60008060008060008060c08789031215616b5d57616b5c616239565b5b6000616b6b89828a016164a5565b9650506020616b7c89828a01616b2b565b9550506040616b8d89828a01616347565b9450506060616b9e89828a01616347565b9350506080616baf89828a01616347565b92505060a0616bc089828a01616347565b9150509295509295509295565b616bd68161635c565b82525050565b6000606082019050616bf16000830186616450565b616bfe6020830185616450565b616c0b6040830184616bcd565b949350505050565b600081519050616c22816163f7565b92915050565b600060208284031215616c3e57616c3d616239565b5b6000616c4c84828501616c13565b91505092915050565b600081519050616c6481616330565b92915050565b600060208284031215616c8057616c7f616239565b5b6000616c8e84828501616c55565b91505092915050565b7f4e487b7100000000000000000000000000000000000000000000000000000000600052601160045260246000fd5b6000616cd1826161fb565b9150616cdc836161fb565b9250828201905080821115616cf457616cf3616c97565b5b92915050565b600067ffffffffffffffff821115616d1557616d1461683e565b5b602082029050602081019050919050565b600080fd5b6000616d3e616d3984616cfa565b61689e565b90508083825260208201905060208402830185811115616d6157616d60616d26565b5b835b81811015616d8a5780616d768882616c55565b845260208401935050602081019050616d63565b5050509392505050565b600082601f830112616da957616da8616823565b5b8151616db9848260208601616d2b565b91505092915050565b600067ffffffffffffffff821115616ddd57616ddc61683e565b5b602082029050602081019050919050565b6000616e01616dfc84616dc2565b61689e565b90508083825260208201905060208402830185811115616e2457616e23616d26565b5b835b81811015616e4d5780616e398882616c13565b845260208401935050602081019050616e26565b5050509392505050565b600082601f830112616e6c57616e6b616823565b5b8151616e7c848260208601616dee565b91505092915050565b600067ffffffffffffffff821115616ea057616e9f61683e565b5b602082029050602081019050919050565b600081519050616ec081616678565b92915050565b6000616ed9616ed484616e85565b61689e565b90508083825260208201905060208402830185811115616efc57616efb616d26565b5b835b81811015616f255780616f118882616eb1565b845260208401935050602081019050616efe565b5050509392505050565b600082601f830112616f4457616f43616823565b5b8151616f54848260208601616ec6565b91505092915050565b600067ffffffffffffffff821115616f7857616f7761683e565b5b602082029050602081019050919050565b600081519050616f988161648e565b92915050565b6000616fb1616fac84616f5d565b61689e565b90508083825260208201905060208402830185811115616fd457616fd3616d26565b5b835b81811015616ffd5780616fe98882616f89565b845260208401935050602081019050616fd6565b5050509392505050565b600082601f83011261701c5761701b616823565b5b815161702c848260208601616f9e565b91505092915050565b6000806000806080858703121561704f5761704e616239565b5b600085015167ffffffffffffffff81111561706d5761706c61623e565b5b61707987828801616d94565b945050602085015167ffffffffffffffff81111561709a5761709961623e565b5b6170a687828801616e57565b935050604085015167ffffffffffffffff8111156170c7576170c661623e565b5b6170d387828801616f2f565b925050606085015167ffffffffffffffff8111156170f4576170f361623e565b5b61710087828801617007565b91505092959194509250565b7f4e487b7100000000000000000000000000000000000000000000000000000000600052603260045260246000fd5b60006020828403121561715157617150616239565b5b600082015167ffffffffffffffff81111561716f5761716e61623e565b5b61717b84828501616d94565b91505092915050565b60006020828403121561719a57617199616239565b5b60006171a884828501616eb1565b91505092915050565b6000602082840312156171c7576171c6616239565b5b600082015167ffffffffffffffff8111156171e5576171e461623e565b5b6171f184828501616e57565b91505092915050565b6000819050919050565b600061721f61721a617215846171fa565b616511565b61658b565b9050919050565b61722f81617204565b82525050565b600081519050919050565b600082825260208201905092915050565b6000819050602082019050919050565b61726a8161631e565b82525050565b600061727c8383617261565b60208301905092915050565b6000602082019050919050565b60006172a082617235565b6172aa8185617240565b93506172b583617251565b8060005b838110156172e65781516172cd8882617270565b97506172d883617288565b9250506001810190506172b9565b5085935050505092915050565b600081519050919050565b600082825260208201905092915050565b6000819050602082019050919050565b617328816161fb565b82525050565b600061733a838361731f565b60208301905092915050565b6000602082019050919050565b600061735e826172f3565b61736881856172fe565b93506173738361730f565b8060005b838110156173a457815161738b888261732e565b975061739683617346565b925050600181019050617377565b5085935050505092915050565b6000610100820190506173c7600083018b617226565b81810360208301526173d9818a617295565b905081810360408301526173ed8189617295565b905081810360608301526174018188617353565b905081810360808301526174158187617353565b905061742460a0830186616205565b81810360c08301526174368185617353565b905081810360e083015261744a8184617353565b90509998505050505050505050565b6000617464826161fb565b915061746f836161fb565b925082820390508181111561748757617486616c97565b5b92915050565b7f4e487b7100000000000000000000000000000000000000000000000000000000600052601260045260246000fd5b60006174c7826161fb565b91506174d2836161fb565b9250826174e2576174e161748d565b5b828204905092915050565b600082825260208201905092915050565b7f596f752073686f756c642077616974206174206c6561737420313220686f757260008201527f7320616674657220746865206c61746573742075706461746500000000000000602082015250565b600061755a6039836174ed565b9150617565826174fe565b604082019050919050565b600060208201905081810360008301526175898161754d565b9050919050565b7f546865206e65774665652073686f756c64206265206265747765656e2031206160008201527f6e64203130302028302e303125202d2031252900000000000000000000000000602082015250565b60006175ec6033836174ed565b91506175f782617590565b604082019050919050565b6000602082019050818103600083015261761b816175df565b9050919050565b60006040820190506176376000830185616205565b61764460208301846164e7565b9392505050565b6000617656826161fb565b9150617661836161fb565b925082820261766f816161fb565b9150828204841483151761768657617685616c97565b5b5092915050565b60006176988261631e565b9050919050565b6176a88161768d565b81146176b357600080fd5b50565b6000815190506176c58161769f565b92915050565b6000602082840312156176e1576176e0616239565b5b60006176ef848285016176b6565b91505092915050565b60006177038261631e565b9050919050565b617713816176f8565b811461771e57600080fd5b50565b6000815190506177308161770a565b92915050565b60006020828403121561774c5761774b616239565b5b600061775a84828501617721565b91505092915050565b600080fd5b600080fd5b6000819050919050565b6177808161776d565b811461778b57600080fd5b50565b60008135905061779d81617777565b92915050565b600067ffffffffffffffff8211156177be576177bd61683e565b5b602082029050602081019050919050565b6000604082840312156177e5576177e4617763565b5b6177ef604061689e565b905060006177ff84828501616347565b60008301525060206178138482850161640e565b60208301525092915050565b600061783261782d846177a3565b61689e565b9050808382526020820190506040840283018581111561785557617854616d26565b5b835b8181101561787e578061786a88826177cf565b845260208401935050604081019050617857565b5050509392505050565b600082601f83011261789d5761789c616823565b5b81356178ad84826020860161781f565b91505092915050565b600060a082840312156178cc576178cb617763565b5b6178d660a061689e565b905060006178e68482850161778e565b60008301525060206178fa848285016164a5565b602083015250604082013567ffffffffffffffff81111561791e5761791d617768565b5b61792a8482850161693b565b604083015250606082013567ffffffffffffffff81111561794e5761794d617768565b5b61795a8482850161693b565b606083015250608082013567ffffffffffffffff81111561797e5761797d617768565b5b61798a84828501617888565b60808301525092915050565b60006179a236836178b6565b9050919050565b6000602082840312156179bf576179be616239565b5b60006179cd84828501616f89565b91505092915050565b6179df81616669565b82525050565b60006080820190506179fa6000830187616450565b617a076020830186616450565b617a146040830185616205565b617a2160608301846179d6565b95945050505050565b7f50726f706f7361626c654f776e61626c653a206e6577206f776e65722069732060008201527f746865207a65726f206164647265737300000000000000000000000000000000602082015250565b6000617a866030836174ed565b9150617a9182617a2a565b604082019050919050565b60006020820190508181036000830152617ab581617a79565b9050919050565b7f4e487b7100000000000000000000000000000000000000000000000000000000600052602160045260246000fd5b600081519050919050565b600082825260208201905092915050565b60005b83811015617b25578082015181840152602081019050617b0a565b60008484015250505050565b6000617b3c82617aeb565b617b468185617af6565b9350617b56818560208601617b07565b617b5f8161682d565b840191505092915050565b600081519050919050565b600082825260208201905092915050565b6000819050602082019050919050565b604082016000820151617bac6000850182617261565b506020820151617bbf602085018261731f565b50505050565b6000617bd18383617b96565b60408301905092915050565b6000602082019050919050565b6000617bf582617b6a565b617bff8185617b75565b9350617c0a83617b86565b8060005b83811015617c3b578151617c228882617bc5565b9750617c2d83617bdd565b925050600181019050617c0e565b5085935050505092915050565b600060a0830160008301518482036000860152617c658282617b31565b91505060208301518482036020860152617c7f8282617b31565b91505060408301518482036040860152617c998282617bea565b9150506060830151617cae6060860182617261565b5060808301518482036080860152617cc68282617b31565b9150508091505092915050565b6000604082019050617ce860008301856164e7565b8181036020830152617cfa8184617c48565b90509392505050565b600081519050617d1281617777565b92915050565b600060208284031215617d2e57617d2d616239565b5b6000617d3c84828501617d03565b91505092915050565b617d4e8161776d565b82525050565b6000602082019050617d696000830184617d45565b92915050565b60008060008060808587031215617d8957617d88616239565b5b600085015167ffffffffffffffff811115617da757617da661623e565b5b617db387828801616d94565b945050602085015167ffffffffffffffff811115617dd457617dd361623e565b5b617de087828801616e57565b935050604085015167ffffffffffffffff811115617e0157617e0061623e565b5b617e0d87828801616e57565b925050606085015167ffffffffffffffff811115617e2e57617e2d61623e565b5b617e3a87828801617007565b91505092959194509250565b7f496e697469616c697a61626c653a20636f6e747261637420697320616c72656160008201527f647920696e697469616c697a6564000000000000000000000000000000000000602082015250565b6000617ea2602e836174ed565b9150617ead82617e46565b604082019050919050565b60006020820190508181036000830152617ed181617e95565b9050919050565b6000604082019050617eed6000830185616450565b617efa6020830184616205565b9392505050565b617f0a816162c8565b8114617f1557600080fd5b50565b600081519050617f2781617f01565b92915050565b600060208284031215617f4357617f42616239565b5b6000617f5184828501617f18565b91505092915050565b6000819050919050565b6000617f7f617f7a617f7584617f5a565b616511565b61658b565b9050919050565b617f8f81617f64565b82525050565b6000602082019050617faa6000830184617f86565b92915050565b7f50726f706f7361626c654f776e61626c653a206e6577206f776e65722069732060008201527f6e6f742070726f706f736564206f776e65720000000000000000000000000000602082015250565b600061800c6032836174ed565b915061801782617fb0565b604082019050919050565b6000602082019050818103600083015261803b81617fff565b9050919050565b7f50726f706f7361626c654f776e61626c653a20746869732063616c6c206d757360008201527f74206265206d61646520627920746865206e6577206f776e6572000000000000602082015250565b600061809e603a836174ed565b91506180a982618042565b604082019050919050565b600060208201905081810360008301526180cd81618091565b9050919050565b7f4f776e61626c653a2063616c6c6572206973206e6f7420746865206f776e6572600082015250565b600061810a6020836174ed565b9150618115826180d4565b602082019050919050565b60006020820190508181036000830152618139816180fd565b9050919050565b6000819050919050565b600061816561816061815b84618140565b616511565b61658b565b9050919050565b6181758161814a565b82525050565b600061010082019050618191600083018b61816c565b81810360208301526181a3818a617295565b905081810360408301526181b78189617295565b905081810360608301526181cb8188617353565b905081810360808301526181df8187617353565b90506181ee60a0830186616205565b81810360c08301526182008185617353565b905081810360e08301526182148184617353565b90509998505050505050505050565b60008151905061823281616b14565b92915050565b60006020828403121561824e5761824d616239565b5b600061825c84828501618223565b91505092915050565b60008060008060008060c0878903121561828257618281616239565b5b600061829089828a01616c13565b965050602087015167ffffffffffffffff8111156182b1576182b061623e565b5b6182bd89828a01616d94565b955050604087015167ffffffffffffffff8111156182de576182dd61623e565b5b6182ea89828a01616d94565b94505060606182fb89828a01616c13565b935050608087015167ffffffffffffffff81111561831c5761831b61623e565b5b61832889828a01616e57565b92505060a087015167ffffffffffffffff8111156183495761834861623e565b5b61835589828a01616e57565b9150509295509295509295565b602082016000820151618378600085018261731f565b50505050565b60006020820190506183936000830184618362565b92915050565b6000819050919050565b60006183be6183b96183b484618399565b616511565b61658b565b9050919050565b6183ce816183a3565b82525050565b6000610100820190506183ea600083018b6183c5565b81810360208301526183fc818a617295565b905081810360408301526184108189617295565b905081810360608301526184248188617353565b905081810360808301526184388187617353565b905061844760a0830186616205565b81810360c08301526184598185617353565b905081810360e083015261846d8184617353565b90509998505050505050505050565b7f496e697469616c697a61626c653a20636f6e7472616374206973206e6f74206960008201527f6e697469616c697a696e67000000000000000000000000000000000000000000602082015250565b60006184d8602b836174ed565b91506184e38261847c565b604082019050919050565b60006020820190508181036000830152618507816184cb565b9050919050565b61851781616669565b82525050565b618526816162fe565b82525050565b610100820160008201516185436000850182617261565b5060208201516185566020850182617261565b506040820151618569604085018261850e565b50606082015161857c6060850182617261565b50608082015161858f608085018261731f565b5060a08201516185a260a085018261731f565b5060c08201516185b560c085018261731f565b5060e08201516185c860e085018261851d565b50505050565b6000610100820190506185e4600083018461852c565b92915050565b60006040820190506185ff6000830185616205565b81810360208301526186118184617295565b90509392505050565b6000819050919050565b600061863f61863a6186358461861a565b616511565b6161fb565b9050919050565b61864f81618624565b82525050565b600060a08201905061866a6000830188616205565b6186776020830187618646565b81810360408301526186898186617295565b90506186986060830185616450565b6186a56080830184616205565b9695505050505050565b7f4d6178696d756d203520646966666572656e7420746f6b656e732063616e206260008201527f652073656e74207065722043434950204d657373616765000000000000000000602082015250565b600061870b6037836174ed565b9150618716826186af565b604082019050919050565b6000602082019050818103600083015261873a816186fe565b905091905056fea2646970667358221220943b2cc02bd2d5364c79c048bc10963cb3fa28d9df9a160d4d616fcbb9dcc1b164736f6c634300081a0033","linkReferences":{}},"methodIdentifiers":{"askValues()":"2700cc86","ccipReceive((bytes32,uint64,bytes,bytes,(address,uint256)[]))":"85572ffb","chainValueByNonce(uint256,uint64)":"69abf538","convertEthToUsd(uint256)":"c086381e","crossChainFactoryBySelector(uint64)":"340fbc74","crossChainToken(uint64)":"19da7e2a","currentChainSelector()":"3d54cb6f","estimateAmountOut(address,address,uint128)":"0456f9c8","extraWethByNonce(uint256)":"756c1fd1","factoryStorage()":"c06e1ae2","feeRate()":"978bbdb9","firstReweightAction()":"63713a8b","getAmountOut(address,address,uint256,uint24)":"dd811ac9","getPortfolioBalance()":"a8509fd8","getRouter()":"b0f479a1","i_link()":"7d253aff","i_maxTokensLength()":"5b6a0351","indexToken()":"e7d015f2","initialize(uint64,address,address,address,address,address)":"edba0e31","latestFeeUpdate()":"011ced5f","owner()":"8da5cb5b","portfolioTotalValueByNonce(uint256)":"7d3546f7","priceInWei()":"3c8da588","proposeOwner(address)":"b5ed298a","proposedOwner()":"d153b60c","redemptionNonceOutputToken(uint256)":"0603fb05","redemptionNonceOutputTokenSwapFee(uint256)":"afcaa952","renounceOwnership()":"715018a6","reweightExtraPercentage(uint256)":"814ffd71","reweightTokensCount(uint256)":"78324463","reweightWethValueByNonce(uint256)":"f1639b09","secondReweightAction()":"d79e8d65","sendMessage(uint64,address,bytes,uint8)":"bcab90b3","setFeeRate(uint8)":"5177942a","setIndexFactoryStorage(address)":"cc8659ae","supportsInterface(bytes4)":"01ffc9a7","swap(address,address,uint256,address,uint24)":"7e79f512","tokenValueByNonce(uint256,address)":"b316e7fd","transferOwnership(address)":"f2fde38b","updatePortfolioNonce()":"003cf402","updatedTokensValueCount(uint256)":"c070a097","weth()":"3fc8cef3"},"id":4}