{"abi":[{"type":"receive","stateMutability":"payable"},{"type":"function","name":"allowance","inputs":[{"name":"owner","type":"address","internalType":"address"},{"name":"spender","type":"address","internalType":"address"}],"outputs":[{"name":"","type":"uint256","internalType":"uint256"}],"stateMutability":"view"},{"type":"function","name":"approve","inputs":[{"name":"spender","type":"address","internalType":"address"},{"name":"amount","type":"uint256","internalType":"uint256"}],"outputs":[{"name":"","type":"bool","internalType":"bool"}],"stateMutability":"nonpayable"},{"type":"function","name":"balanceOf","inputs":[{"name":"account","type":"address","internalType":"address"}],"outputs":[{"name":"","type":"uint256","internalType":"uint256"}],"stateMutability":"view"},{"type":"function","name":"burn","inputs":[{"name":"from","type":"address","internalType":"address"},{"name":"amount","type":"uint256","internalType":"uint256"}],"outputs":[],"stateMutability":"nonpayable"},{"type":"function","name":"decimals","inputs":[],"outputs":[{"name":"","type":"uint8","internalType":"uint8"}],"stateMutability":"view"},{"type":"function","name":"decreaseAllowance","inputs":[{"name":"spender","type":"address","internalType":"address"},{"name":"subtractedValue","type":"uint256","internalType":"uint256"}],"outputs":[{"name":"","type":"bool","internalType":"bool"}],"stateMutability":"nonpayable"},{"type":"function","name":"fee","inputs":[],"outputs":[{"name":"","type":"uint256","internalType":"uint256"}],"stateMutability":"view"},{"type":"function","name":"feeRatePerDayScaled","inputs":[],"outputs":[{"name":"","type":"uint256","internalType":"uint256"}],"stateMutability":"view"},{"type":"function","name":"feeReceiver","inputs":[],"outputs":[{"name":"","type":"address","internalType":"address"}],"stateMutability":"view"},{"type":"function","name":"feeTimestamp","inputs":[],"outputs":[{"name":"","type":"uint256","internalType":"uint256"}],"stateMutability":"view"},{"type":"function","name":"increaseAllowance","inputs":[{"name":"spender","type":"address","internalType":"address"},{"name":"addedValue","type":"uint256","internalType":"uint256"}],"outputs":[{"name":"","type":"bool","internalType":"bool"}],"stateMutability":"nonpayable"},{"type":"function","name":"initialize","inputs":[{"name":"tokenName","type":"string","internalType":"string"},{"name":"tokenSymbol","type":"string","internalType":"string"},{"name":"_feeRatePerDayScaled","type":"uint256","internalType":"uint256"},{"name":"_feeReceiver","type":"address","internalType":"address"},{"name":"_supplyCeiling","type":"uint256","internalType":"uint256"}],"outputs":[],"stateMutability":"nonpayable"},{"type":"function","name":"isMinter","inputs":[{"name":"","type":"address","internalType":"address"}],"outputs":[{"name":"","type":"bool","internalType":"bool"}],"stateMutability":"view"},{"type":"function","name":"isRestricted","inputs":[{"name":"","type":"address","internalType":"address"}],"outputs":[{"name":"","type":"bool","internalType":"bool"}],"stateMutability":"view"},{"type":"function","name":"methodologist","inputs":[],"outputs":[{"name":"","type":"address","internalType":"address"}],"stateMutability":"view"},{"type":"function","name":"methodology","inputs":[],"outputs":[{"name":"","type":"string","internalType":"string"}],"stateMutability":"view"},{"type":"function","name":"mint","inputs":[{"name":"to","type":"address","internalType":"address"},{"name":"amount","type":"uint256","internalType":"uint256"}],"outputs":[],"stateMutability":"nonpayable"},{"type":"function","name":"mintToFeeReceiver","inputs":[],"outputs":[],"stateMutability":"nonpayable"},{"type":"function","name":"name","inputs":[],"outputs":[{"name":"","type":"string","internalType":"string"}],"stateMutability":"view"},{"type":"function","name":"owner","inputs":[],"outputs":[{"name":"","type":"address","internalType":"address"}],"stateMutability":"view"},{"type":"function","name":"pause","inputs":[],"outputs":[],"stateMutability":"nonpayable"},{"type":"function","name":"paused","inputs":[],"outputs":[{"name":"","type":"bool","internalType":"bool"}],"stateMutability":"view"},{"type":"function","name":"proposeOwner","inputs":[{"name":"_proposedOwner","type":"address","internalType":"address"}],"outputs":[],"stateMutability":"nonpayable"},{"type":"function","name":"proposedOwner","inputs":[],"outputs":[{"name":"","type":"address","internalType":"address"}],"stateMutability":"view"},{"type":"function","name":"renounceOwnership","inputs":[],"outputs":[],"stateMutability":"nonpayable"},{"type":"function","name":"setFeeRate","inputs":[{"name":"_feeRatePerDayScaled","type":"uint256","internalType":"uint256"}],"outputs":[],"stateMutability":"nonpayable"},{"type":"function","name":"setFeeReceiver","inputs":[{"name":"_feeReceiver","type":"address","internalType":"address"}],"outputs":[],"stateMutability":"nonpayable"},{"type":"function","name":"setMethodologist","inputs":[{"name":"_methodologist","type":"address","internalType":"address"}],"outputs":[],"stateMutability":"nonpayable"},{"type":"function","name":"setMethodology","inputs":[{"name":"_methodology","type":"string","internalType":"string"}],"outputs":[],"stateMutability":"nonpayable"},{"type":"function","name":"setMinter","inputs":[{"name":"_minter","type":"address","internalType":"address"},{"name":"_enabled","type":"bool","internalType":"bool"}],"outputs":[],"stateMutability":"nonpayable"},{"type":"function","name":"setSupplyCeiling","inputs":[{"name":"_supplyCeiling","type":"uint256","internalType":"uint256"}],"outputs":[],"stateMutability":"nonpayable"},{"type":"function","name":"supplyCeiling","inputs":[],"outputs":[{"name":"","type":"uint256","internalType":"uint256"}],"stateMutability":"view"},{"type":"function","name":"symbol","inputs":[],"outputs":[{"name":"","type":"string","internalType":"string"}],"stateMutability":"view"},{"type":"function","name":"toggleRestriction","inputs":[{"name":"who","type":"address","internalType":"address"}],"outputs":[],"stateMutability":"nonpayable"},{"type":"function","name":"totalSupply","inputs":[],"outputs":[{"name":"","type":"uint256","internalType":"uint256"}],"stateMutability":"view"},{"type":"function","name":"transfer","inputs":[{"name":"to","type":"address","internalType":"address"},{"name":"amount","type":"uint256","internalType":"uint256"}],"outputs":[{"name":"","type":"bool","internalType":"bool"}],"stateMutability":"nonpayable"},{"type":"function","name":"transferFrom","inputs":[{"name":"from","type":"address","internalType":"address"},{"name":"to","type":"address","internalType":"address"},{"name":"amount","type":"uint256","internalType":"uint256"}],"outputs":[{"name":"","type":"bool","internalType":"bool"}],"stateMutability":"nonpayable"},{"type":"function","name":"transferOwnership","inputs":[{"name":"newOwner","type":"address","internalType":"address"}],"outputs":[],"stateMutability":"nonpayable"},{"type":"function","name":"unpause","inputs":[],"outputs":[],"stateMutability":"nonpayable"},{"type":"event","name":"Approval","inputs":[{"name":"owner","type":"address","indexed":true,"internalType":"address"},{"name":"spender","type":"address","indexed":true,"internalType":"address"},{"name":"value","type":"uint256","indexed":false,"internalType":"uint256"}],"anonymous":false},{"type":"event","name":"FeeRateSet","inputs":[{"name":"feeRatePerDayScaled","type":"uint256","indexed":true,"internalType":"uint256"}],"anonymous":false},{"type":"event","name":"FeeReceiverSet","inputs":[{"name":"feeReceiver","type":"address","indexed":true,"internalType":"address"}],"anonymous":false},{"type":"event","name":"Initialized","inputs":[{"name":"version","type":"uint8","indexed":false,"internalType":"uint8"}],"anonymous":false},{"type":"event","name":"MethodologistSet","inputs":[{"name":"methodologist","type":"address","indexed":true,"internalType":"address"}],"anonymous":false},{"type":"event","name":"MethodologySet","inputs":[{"name":"methodology","type":"string","indexed":false,"internalType":"string"}],"anonymous":false},{"type":"event","name":"MintFeeToReceiver","inputs":[{"name":"feeReceiver","type":"address","indexed":false,"internalType":"address"},{"name":"timestamp","type":"uint256","indexed":false,"internalType":"uint256"},{"name":"totalSupply","type":"uint256","indexed":false,"internalType":"uint256"},{"name":"amount","type":"uint256","indexed":false,"internalType":"uint256"}],"anonymous":false},{"type":"event","name":"MinterRemoved","inputs":[{"name":"minter","type":"address","indexed":true,"internalType":"address"}],"anonymous":false},{"type":"event","name":"MinterSet","inputs":[{"name":"minter","type":"address","indexed":true,"internalType":"address"}],"anonymous":false},{"type":"event","name":"OwnershipTransferred","inputs":[{"name":"previousOwner","type":"address","indexed":true,"internalType":"address"},{"name":"newOwner","type":"address","indexed":true,"internalType":"address"}],"anonymous":false},{"type":"event","name":"Paused","inputs":[{"name":"account","type":"address","indexed":false,"internalType":"address"}],"anonymous":false},{"type":"event","name":"SupplyCeilingSet","inputs":[{"name":"supplyCeiling","type":"uint256","indexed":false,"internalType":"uint256"}],"anonymous":false},{"type":"event","name":"ToggledRestricted","inputs":[{"name":"account","type":"address","indexed":true,"internalType":"address"},{"name":"isRestricted","type":"bool","indexed":false,"internalType":"bool"}],"anonymous":false},{"type":"event","name":"Transfer","inputs":[{"name":"from","type":"address","indexed":true,"internalType":"address"},{"name":"to","type":"address","indexed":true,"internalType":"address"},{"name":"value","type":"uint256","indexed":false,"internalType":"uint256"}],"anonymous":false},{"type":"event","name":"Unpaused","inputs":[{"name":"account","type":"address","indexed":false,"internalType":"address"}],"anonymous":false}],"bytecode":{"object":"0x6080604052348015600f57600080fd5b506122aa8061001f6000396000f3fe6080604052600436106102345760003560e01c806391fe1b921161012e578063b5ed298a116100ab578063ddca3f431161006f578063ddca3f4314610687578063efdcd9741461069d578063f2fde38b146106bd578063f734e22a146106dd578063fede0276146106f257600080fd5b8063b5ed298a146105d6578063c01bc982146105f6578063cf456ae714610627578063d153b60c14610647578063dd62ed3e1461066757600080fd5b8063a457c2d7116100f2578063a457c2d714610525578063a9059cbb14610545578063aa271e1a14610565578063aaa4a18414610596578063b3f00674146105b657600080fd5b806391fe1b921461049a57806395d89b41146104ba5780639dc29fac146104cf5780639eeb1d50146104ef5780639f8e67bf1461050457600080fd5b80633f4ba83a116101bc5780636e01a686116101805780636e01a686146103e857806370a0823114610408578063715018a61461043e5780638456cb59146104535780638da5cb5b1461046857600080fd5b80633f4ba83a1461035957806340c10f191461037057806345596e2e146103905780635c975abb146103b0578063660db484146103c857600080fd5b806323b872dd1161020357806323b872dd146102d05780632b52684d146102f05780632fecd58914610307578063313ce5671461031d578063395093511461033957600080fd5b806306fdde0314610240578063095ea7b31461026b57806318160ddd1461029b578063184a732f146102ba57600080fd5b3661023b57005b600080fd5b34801561024c57600080fd5b50610255610712565b6040516102629190611c90565b60405180910390f35b34801561027757600080fd5b5061028b610286366004611cfa565b6107a4565b6040519015158152602001610262565b3480156102a757600080fd5b506035545b604051908152602001610262565b3480156102c657600080fd5b506102ac60fe5481565b3480156102dc57600080fd5b5061028b6102eb366004611d24565b6107be565b3480156102fc57600080fd5b506102ac6101035481565b34801561031357600080fd5b506102ac60fd5481565b34801561032957600080fd5b5060405160128152602001610262565b34801561034557600080fd5b5061028b610354366004611cfa565b6108bb565b34801561036557600080fd5b5061036e6108dd565b005b34801561037c57600080fd5b5061036e61038b366004611cfa565b6108ef565b34801561039c57600080fd5b5061036e6103ab366004611d61565b610a0e565b3480156103bc57600080fd5b5060ca5460ff1661028b565b3480156103d457600080fd5b5061036e6103e3366004611d7a565b610a51565b3480156103f457600080fd5b5061036e610403366004611d61565b610ab7565b34801561041457600080fd5b506102ac610423366004611d7a565b6001600160a01b031660009081526033602052604090205490565b34801561044a57600080fd5b5061036e610afc565b34801561045f57600080fd5b5061036e610b0e565b34801561047457600080fd5b506065546001600160a01b03165b6040516001600160a01b039091168152602001610262565b3480156104a657600080fd5b5061036e6104b5366004611e41565b610b1e565b3480156104c657600080fd5b50610255610bca565b3480156104db57600080fd5b5061036e6104ea366004611cfa565b610bd9565b3480156104fb57600080fd5b50610255610cb3565b34801561051057600080fd5b5061010054610482906001600160a01b031681565b34801561053157600080fd5b5061028b610540366004611cfa565b610d42565b34801561055157600080fd5b5061028b610560366004611cfa565b610dc8565b34801561057157600080fd5b5061028b610580366004611d7a565b6101016020526000908152604090205460ff1681565b3480156105a257600080fd5b5061036e6105b1366004611d7a565b610e51565b3480156105c257600080fd5b5060ff54610482906001600160a01b031681565b3480156105e257600080fd5b5061036e6105f1366004611d7a565b610ec5565b34801561060257600080fd5b5061028b610611366004611d7a565b6101046020526000908152604090205460ff1681565b34801561063357600080fd5b5061036e610642366004611e7e565b610f15565b34801561065357600080fd5b50609754610482906001600160a01b031681565b34801561067357600080fd5b506102ac610682366004611eba565b610fce565b34801561069357600080fd5b506102ac60fc5481565b3480156106a957600080fd5b5061036e6106b8366004611d7a565b610ff9565b3480156106c957600080fd5b5061036e6106d8366004611d7a565b61105e565b3480156106e957600080fd5b5061036e611186565b3480156106fe57600080fd5b5061036e61070d366004611eed565b611196565b60606036805461072190611f78565b80601f016020809104026020016040519081016040528092919081815260200182805461074d90611f78565b801561079a5780601f1061076f5761010080835404028352916020019161079a565b820191906000526020600020905b81548152906001019060200180831161077d57829003601f168201915b5050505050905090565b6000336107b2818585611303565b60019150505b92915050565b60006107c8611428565b336000908152610104602052604090205460ff16156108025760405162461bcd60e51b81526004016107f990611fb2565b60405180910390fd5b6001600160a01b0383166000908152610104602052604090205460ff161561083c5760405162461bcd60e51b81526004016107f990611fe9565b6001600160a01b0384166000908152610104602052604090205460ff161561089b5760405162461bcd60e51b8152602060048201526012602482015271199c9bdb481a5cc81c995cdd1c9a58dd195960721b60448201526064016107f9565b6108a684338461146e565b6108b18484846114e8565b5060019392505050565b6000336107b28185856108ce8383610fce565b6108d89190612029565b611303565b6108e5611693565b6108ed6116ed565b565b6108f7611428565b336000908152610101602052604090205460ff166109275760405162461bcd60e51b81526004016107f99061203c565b610103548161093560355490565b61093f9190612029565b111561098d5760405162461bcd60e51b815260206004820152601a60248201527f77696c6c2065786365656420737570706c79206365696c696e6700000000000060448201526064016107f9565b6001600160a01b0382166000908152610104602052604090205460ff16156109c75760405162461bcd60e51b81526004016107f990611fe9565b336000908152610104602052604090205460ff16156109f85760405162461bcd60e51b81526004016107f990611fb2565b610a0061173f565b610a0a828261186d565b5050565b610a16611693565b610a1e61173f565b60fd81905560405181907f45398c451b1a31b88dbaed4e7b89a632f43cc4b50149d437db03a5300afe40d190600090a250565b610a59611693565b6001600160a01b038116610a6c57600080fd5b61010080546001600160a01b0319166001600160a01b0383169081179091556040517f164d8ef0d742b45087644f55c61abeb84557df70d06730591e451f0981e278ca90600090a250565b610abf611693565b6101038190556040518181527fe35be406f69e9d11d6ac8e5b54bbc8b6c4baf2fa2359f84a56baa5ea5d07dc8f906020015b60405180910390a150565b610b04611693565b6108ed600061192e565b610b16611693565b6108ed611980565b610100546001600160a01b03163314610b8d5760405162461bcd60e51b815260206004820152602b60248201527f496e646578546f6b656e3a2063616c6c6572206973206e6f7420746865206d6560448201526a1d1a1bd91bdb1bd9da5cdd60aa1b60648201526084016107f9565b610102610b9a82826120ce565b507fe6be68107100e39cb16d675c1086a4d5479fbd01108d721dabbccaa2249b995f81604051610af19190611c90565b60606037805461072190611f78565b610be1611428565b336000908152610101602052604090205460ff16610c115760405162461bcd60e51b81526004016107f99061203c565b6001600160a01b0382166000908152610104602052604090205460ff1615610c705760405162461bcd60e51b8152602060048201526012602482015271199c9bdb481a5cc81c995cdd1c9a58dd195960721b60448201526064016107f9565b336000908152610104602052604090205460ff1615610ca15760405162461bcd60e51b81526004016107f990611fb2565b610ca961173f565b610a0a82826119bd565b6101028054610cc190611f78565b80601f0160208091040260200160405190810160405280929190818152602001828054610ced90611f78565b8015610d3a5780601f10610d0f57610100808354040283529160200191610d3a565b820191906000526020600020905b815481529060010190602001808311610d1d57829003601f168201915b505050505081565b60003381610d508286610fce565b905083811015610db05760405162461bcd60e51b815260206004820152602560248201527f45524332303a2064656372656173656420616c6c6f77616e63652062656c6f77604482015264207a65726f60d81b60648201526084016107f9565b610dbd8286868403611303565b506001949350505050565b6000610dd2611428565b336000908152610104602052604090205460ff1615610e035760405162461bcd60e51b81526004016107f990611fb2565b6001600160a01b0383166000908152610104602052604090205460ff1615610e3d5760405162461bcd60e51b81526004016107f990611fe9565b610e483384846114e8565b50600192915050565b610e59611693565b6001600160a01b0381166000818152610104602052604090819020805460ff19811660ff9182161590811790925591517f14ddf324cc5d8b14a3c3b12c84b0a7d578d72c8d60655c06d6a457e71431d5ee92610eba92161515815260200190565b60405180910390a250565b610ecd611693565b6001600160a01b038116610ef35760405162461bcd60e51b81526004016107f99061218d565b609780546001600160a01b0319166001600160a01b0392909216919091179055565b610f1d611693565b6001600160a01b038216610f3057600080fd5b6001600160a01b038216600090815261010160205260409020805460ff19168215801591909117909155610f96576040516001600160a01b038316907f726b590ef91a8c76ad05bbe91a57ef84605276528f49cd47d787f558a4e755b690600090a25050565b6040516001600160a01b038316907fe94479a9f7e1952cc78f2d6baab678adc1b772d936c6583def489e524cb6669290600090a25050565b6001600160a01b03918216600090815260346020908152604080832093909416825291909152205490565b611001611693565b6001600160a01b03811661101457600080fd5b60ff80546001600160a01b0319166001600160a01b0383169081179091556040517fbdf37c276f641820b141429d245add2552b4118c0866e5a78638e3de5ef18d9d90600090a250565b6001600160a01b0381166110845760405162461bcd60e51b81526004016107f99061218d565b6097546001600160a01b038281169116146110fc5760405162461bcd60e51b815260206004820152603260248201527f50726f706f7361626c654f776e61626c653a206e6577206f776e6572206973206044820152713737ba10383937b837b9b2b21037bbb732b960711b60648201526084016107f9565b6001600160a01b038116331461117a5760405162461bcd60e51b815260206004820152603a60248201527f50726f706f7361626c654f776e61626c653a20746869732063616c6c206d757360448201527f74206265206d61646520627920746865206e6577206f776e657200000000000060648201526084016107f9565b6111838161192e565b50565b61118e611693565b6108ed61173f565b600054610100900460ff16158080156111b65750600054600160ff909116105b806111d05750303b1580156111d0575060005460ff166001145b6112335760405162461bcd60e51b815260206004820152602e60248201527f496e697469616c697a61626c653a20636f6e747261637420697320616c72656160448201526d191e481a5b9a5d1a585b1a5e995960921b60648201526084016107f9565b6000805460ff191660011790558015611256576000805461ff0019166101001790555b6001600160a01b03831661126957600080fd5b611271611aee565b611279611b1d565b6112838686611b4c565b61128b611b7d565b60fd84905560ff80546001600160a01b0319166001600160a01b0385161790556101038290554260fe5580156112fb576000805461ff0019169055604051600181527f7f26b83ff96e1f2b6a682f133852f6798a09c465da95921460cefb38474024989060200160405180910390a15b505050505050565b6001600160a01b0383166113655760405162461bcd60e51b8152602060048201526024808201527f45524332303a20617070726f76652066726f6d20746865207a65726f206164646044820152637265737360e01b60648201526084016107f9565b6001600160a01b0382166113c65760405162461bcd60e51b815260206004820152602260248201527f45524332303a20617070726f766520746f20746865207a65726f206164647265604482015261737360f01b60648201526084016107f9565b6001600160a01b0383811660008181526034602090815260408083209487168084529482529182902085905590518481527f8c5be1e5ebec7d5bd14f71427d1e84f3dd0314c0f7b2291e5b200ac8c7c3b92591015b60405180910390a3505050565b60ca5460ff16156108ed5760405162461bcd60e51b815260206004820152601060248201526f14185d5cd8589b194e881c185d5cd95960821b60448201526064016107f9565b600061147a8484610fce565b905060001981146114e257818110156114d55760405162461bcd60e51b815260206004820152601d60248201527f45524332303a20696e73756666696369656e7420616c6c6f77616e636500000060448201526064016107f9565b6114e28484848403611303565b50505050565b6001600160a01b03831661154c5760405162461bcd60e51b815260206004820152602560248201527f45524332303a207472616e736665722066726f6d20746865207a65726f206164604482015264647265737360d81b60648201526084016107f9565b6001600160a01b0382166115ae5760405162461bcd60e51b815260206004820152602360248201527f45524332303a207472616e7366657220746f20746865207a65726f206164647260448201526265737360e81b60648201526084016107f9565b6001600160a01b038316600090815260336020526040902054818110156116265760405162461bcd60e51b815260206004820152602660248201527f45524332303a207472616e7366657220616d6f756e7420657863656564732062604482015265616c616e636560d01b60648201526084016107f9565b6001600160a01b0380851660008181526033602052604080822086860390559286168082529083902080548601905591517fddf252ad1be2c89b69c2b068fc378daa952ba7f163c4a11628f55a4df523b3ef906116869086815260200190565b60405180910390a36114e2565b6065546001600160a01b031633146108ed5760405162461bcd60e51b815260206004820181905260248201527f4f776e61626c653a2063616c6c6572206973206e6f7420746865206f776e657260448201526064016107f9565b6116f5611ba4565b60ca805460ff191690557f5db9ee0a495bf2e6ff9c91a7834c1ba4fdd244a5e8aa4e537bd38aeae4b073aa335b6040516001600160a01b03909116815260200160405180910390a1565b60006201518060fe544261175391906121dd565b61175d91906121f0565b90506001811061118357600061177260355490565b60fd54909150819060005b848110156117b75768056bc75e2d631000006117998385612212565b6117a391906121f0565b6117ad9084612029565b925060010161177d565b5060006117c484846121dd565b90506117d38562015180612212565b60fe60008282546117e49190612029565b909155505060ff546117ff906001600160a01b03168261186d565b60ff547f07982395c678b2ffc23fcf59aaec243ca79418c285af0d0e10b4e65bc4189f4c906001600160a01b03164261183760355490565b604080516001600160a01b0390941684526020840192909252908201526060810183905260800160405180910390a15050505050565b6001600160a01b0382166118c35760405162461bcd60e51b815260206004820152601f60248201527f45524332303a206d696e7420746f20746865207a65726f20616464726573730060448201526064016107f9565b80603560008282546118d59190612029565b90915550506001600160a01b0382166000818152603360209081526040808320805486019055518481527fddf252ad1be2c89b69c2b068fc378daa952ba7f163c4a11628f55a4df523b3ef910160405180910390a35050565b606580546001600160a01b038381166001600160a01b0319831681179093556040519116919082907f8be0079c531659141344cd1fd0a4f28419497f9722a3daafe3b4186f6b6457e090600090a35050565b611988611428565b60ca805460ff191660011790557f62e78cea01bee320cd4e420270b5ea74000d11b0c9f74754ebdbfc544b05a2586117223390565b6001600160a01b038216611a1d5760405162461bcd60e51b815260206004820152602160248201527f45524332303a206275726e2066726f6d20746865207a65726f206164647265736044820152607360f81b60648201526084016107f9565b6001600160a01b03821660009081526033602052604090205481811015611a915760405162461bcd60e51b815260206004820152602260248201527f45524332303a206275726e20616d6f756e7420657863656564732062616c616e604482015261636560f01b60648201526084016107f9565b6001600160a01b03831660008181526033602090815260408083208686039055603580548790039055518581529192917fddf252ad1be2c89b69c2b068fc378daa952ba7f163c4a11628f55a4df523b3ef910161141b565b505050565b600054610100900460ff16611b155760405162461bcd60e51b81526004016107f990612229565b6108ed611bed565b600054610100900460ff16611b445760405162461bcd60e51b81526004016107f990612229565b6108ed611c1d565b600054610100900460ff16611b735760405162461bcd60e51b81526004016107f990612229565b610a0a8282611c50565b600054610100900460ff166108ed5760405162461bcd60e51b81526004016107f990612229565b60ca5460ff166108ed5760405162461bcd60e51b815260206004820152601460248201527314185d5cd8589b194e881b9bdd081c185d5cd95960621b60448201526064016107f9565b600054610100900460ff16611c145760405162461bcd60e51b81526004016107f990612229565b6108ed3361192e565b600054610100900460ff16611c445760405162461bcd60e51b81526004016107f990612229565b60ca805460ff19169055565b600054610100900460ff16611c775760405162461bcd60e51b81526004016107f990612229565b6036611c8383826120ce565b506037611ae982826120ce565b602081526000825180602084015260005b81811015611cbe5760208186018101516040868401015201611ca1565b506000604082850101526040601f19601f83011684010191505092915050565b80356001600160a01b0381168114611cf557600080fd5b919050565b60008060408385031215611d0d57600080fd5b611d1683611cde565b946020939093013593505050565b600080600060608486031215611d3957600080fd5b611d4284611cde565b9250611d5060208501611cde565b929592945050506040919091013590565b600060208284031215611d7357600080fd5b5035919050565b600060208284031215611d8c57600080fd5b611d9582611cde565b9392505050565b634e487b7160e01b600052604160045260246000fd5b600082601f830112611dc357600080fd5b813567ffffffffffffffff811115611ddd57611ddd611d9c565b604051601f8201601f19908116603f0116810167ffffffffffffffff81118282101715611e0c57611e0c611d9c565b604052818152838201602001851015611e2457600080fd5b816020850160208301376000918101602001919091529392505050565b600060208284031215611e5357600080fd5b813567ffffffffffffffff811115611e6a57600080fd5b611e7684828501611db2565b949350505050565b60008060408385031215611e9157600080fd5b611e9a83611cde565b915060208301358015158114611eaf57600080fd5b809150509250929050565b60008060408385031215611ecd57600080fd5b611ed683611cde565b9150611ee460208401611cde565b90509250929050565b600080600080600060a08688031215611f0557600080fd5b853567ffffffffffffffff811115611f1c57600080fd5b611f2888828901611db2565b955050602086013567ffffffffffffffff811115611f4557600080fd5b611f5188828901611db2565b94505060408601359250611f6760608701611cde565b949793965091946080013592915050565b600181811c90821680611f8c57607f821691505b602082108103611fac57634e487b7160e01b600052602260045260246000fd5b50919050565b60208082526018908201527f6d73672e73656e64657220697320726573747269637465640000000000000000604082015260600190565b60208082526010908201526f1d1bc81a5cc81c995cdd1c9a58dd195960821b604082015260600190565b634e487b7160e01b600052601160045260246000fd5b808201808211156107b8576107b8612013565b60208082526024908201527f496e646578546f6b656e3a2063616c6c6572206973206e6f7420746865206d69604082015263373a32b960e11b606082015260800190565b601f821115611ae957806000526020600020601f840160051c810160208510156120a75750805b601f840160051c820191505b818110156120c757600081556001016120b3565b5050505050565b815167ffffffffffffffff8111156120e8576120e8611d9c565b6120fc816120f68454611f78565b84612080565b6020601f82116001811461213057600083156121185750848201515b600019600385901b1c1916600184901b1784556120c7565b600084815260208120601f198516915b828110156121605787850151825560209485019460019092019101612140565b508482101561217e5786840151600019600387901b60f8161c191681555b50505050600190811b01905550565b60208082526030908201527f50726f706f7361626c654f776e61626c653a206e6577206f776e65722069732060408201526f746865207a65726f206164647265737360801b606082015260800190565b818103818111156107b8576107b8612013565b60008261220d57634e487b7160e01b600052601260045260246000fd5b500490565b80820281158282048414176107b8576107b8612013565b6020808252602b908201527f496e697469616c697a61626c653a20636f6e7472616374206973206e6f74206960408201526a6e697469616c697a696e6760a81b60608201526080019056fea264697066735822122028e84fcbf39229bd72dcdf475457b7b780313952153106600fc8b5a4cec1fbb864736f6c634300081a0033","linkReferences":{}},"methodIdentifiers":{"allowance(address,address)":"dd62ed3e","approve(address,uint256)":"095ea7b3","balanceOf(address)":"70a08231","burn(address,uint256)":"9dc29fac","decimals()":"313ce567","decreaseAllowance(address,uint256)":"a457c2d7","fee()":"ddca3f43","feeRatePerDayScaled()":"2fecd589","feeReceiver()":"b3f00674","feeTimestamp()":"184a732f","increaseAllowance(address,uint256)":"39509351","initialize(string,string,uint256,address,uint256)":"fede0276","isMinter(address)":"aa271e1a","isRestricted(address)":"c01bc982","methodologist()":"9f8e67bf","methodology()":"9eeb1d50","mint(address,uint256)":"40c10f19","mintToFeeReceiver()":"f734e22a","name()":"06fdde03","owner()":"8da5cb5b","pause()":"8456cb59","paused()":"5c975abb","proposeOwner(address)":"b5ed298a","proposedOwner()":"d153b60c","renounceOwnership()":"715018a6","setFeeRate(uint256)":"45596e2e","setFeeReceiver(address)":"efdcd974","setMethodologist(address)":"660db484","setMethodology(string)":"91fe1b92","setMinter(address,bool)":"cf456ae7","setSupplyCeiling(uint256)":"6e01a686","supplyCeiling()":"2b52684d","symbol()":"95d89b41","toggleRestriction(address)":"aaa4a184","totalSupply()":"18160ddd","transfer(address,uint256)":"a9059cbb","transferFrom(address,address,uint256)":"23b872dd","transferOwnership(address)":"f2fde38b","unpause()":"3f4ba83a"},"id":41}