{"abi":[{"type":"receive","stateMutability":"payable"},{"type":"function","name":"allowance","inputs":[{"name":"owner","type":"address","internalType":"address"},{"name":"spender","type":"address","internalType":"address"}],"outputs":[{"name":"","type":"uint256","internalType":"uint256"}],"stateMutability":"view"},{"type":"function","name":"approve","inputs":[{"name":"spender","type":"address","internalType":"address"},{"name":"amount","type":"uint256","internalType":"uint256"}],"outputs":[{"name":"","type":"bool","internalType":"bool"}],"stateMutability":"nonpayable"},{"type":"function","name":"approveSwapToken","inputs":[{"name":"_token","type":"address","internalType":"address"},{"name":"_to","type":"address","internalType":"address"},{"name":"_amount","type":"uint256","internalType":"uint256"}],"outputs":[],"stateMutability":"nonpayable"},{"type":"function","name":"balanceOf","inputs":[{"name":"account","type":"address","internalType":"address"}],"outputs":[{"name":"","type":"uint256","internalType":"uint256"}],"stateMutability":"view"},{"type":"function","name":"burn","inputs":[{"name":"from","type":"address","internalType":"address"},{"name":"amount","type":"uint256","internalType":"uint256"}],"outputs":[],"stateMutability":"nonpayable"},{"type":"function","name":"decimals","inputs":[],"outputs":[{"name":"","type":"uint8","internalType":"uint8"}],"stateMutability":"view"},{"type":"function","name":"decreaseAllowance","inputs":[{"name":"spender","type":"address","internalType":"address"},{"name":"subtractedValue","type":"uint256","internalType":"uint256"}],"outputs":[{"name":"","type":"bool","internalType":"bool"}],"stateMutability":"nonpayable"},{"type":"function","name":"factoryV2","inputs":[],"outputs":[{"name":"","type":"address","internalType":"contract IUniswapV2Factory"}],"stateMutability":"view"},{"type":"function","name":"factoryV3","inputs":[],"outputs":[{"name":"","type":"address","internalType":"contract IUniswapV3Factory"}],"stateMutability":"view"},{"type":"function","name":"fee","inputs":[],"outputs":[{"name":"","type":"uint256","internalType":"uint256"}],"stateMutability":"view"},{"type":"function","name":"feeRatePerDayScaled","inputs":[],"outputs":[{"name":"","type":"uint256","internalType":"uint256"}],"stateMutability":"view"},{"type":"function","name":"feeReceiver","inputs":[],"outputs":[{"name":"","type":"address","internalType":"address"}],"stateMutability":"view"},{"type":"function","name":"feeTimestamp","inputs":[],"outputs":[{"name":"","type":"uint256","internalType":"uint256"}],"stateMutability":"view"},{"type":"function","name":"increaseAllowance","inputs":[{"name":"spender","type":"address","internalType":"address"},{"name":"addedValue","type":"uint256","internalType":"uint256"}],"outputs":[{"name":"","type":"bool","internalType":"bool"}],"stateMutability":"nonpayable"},{"type":"function","name":"initialize","inputs":[{"name":"tokenName","type":"string","internalType":"string"},{"name":"tokenSymbol","type":"string","internalType":"string"},{"name":"_feeRatePerDayScaled","type":"uint256","internalType":"uint256"},{"name":"_feeReceiver","type":"address","internalType":"address"},{"name":"_supplyCeiling","type":"uint256","internalType":"uint256"},{"name":"_weth","type":"address","internalType":"address"},{"name":"_quoter","type":"address","internalType":"address"},{"name":"_swapRouterV3","type":"address","internalType":"address"},{"name":"_factoryV3","type":"address","internalType":"address"},{"name":"_swapRouterV2","type":"address","internalType":"address"},{"name":"_factoryV2","type":"address","internalType":"address"}],"outputs":[],"stateMutability":"nonpayable"},{"type":"function","name":"isMinter","inputs":[{"name":"","type":"address","internalType":"address"}],"outputs":[{"name":"","type":"bool","internalType":"bool"}],"stateMutability":"view"},{"type":"function","name":"isRestricted","inputs":[{"name":"","type":"address","internalType":"address"}],"outputs":[{"name":"","type":"bool","internalType":"bool"}],"stateMutability":"view"},{"type":"function","name":"methodologist","inputs":[],"outputs":[{"name":"","type":"address","internalType":"address"}],"stateMutability":"view"},{"type":"function","name":"methodology","inputs":[],"outputs":[{"name":"","type":"string","internalType":"string"}],"stateMutability":"view"},{"type":"function","name":"mint","inputs":[{"name":"to","type":"address","internalType":"address"},{"name":"amount","type":"uint256","internalType":"uint256"}],"outputs":[],"stateMutability":"nonpayable"},{"type":"function","name":"mintToFeeReceiver","inputs":[],"outputs":[],"stateMutability":"nonpayable"},{"type":"function","name":"name","inputs":[],"outputs":[{"name":"","type":"string","internalType":"string"}],"stateMutability":"view"},{"type":"function","name":"owner","inputs":[],"outputs":[{"name":"","type":"address","internalType":"address"}],"stateMutability":"view"},{"type":"function","name":"pause","inputs":[],"outputs":[],"stateMutability":"nonpayable"},{"type":"function","name":"paused","inputs":[],"outputs":[{"name":"","type":"bool","internalType":"bool"}],"stateMutability":"view"},{"type":"function","name":"proposeOwner","inputs":[{"name":"_proposedOwner","type":"address","internalType":"address"}],"outputs":[],"stateMutability":"nonpayable"},{"type":"function","name":"proposedOwner","inputs":[],"outputs":[{"name":"","type":"address","internalType":"address"}],"stateMutability":"view"},{"type":"function","name":"quoter","inputs":[],"outputs":[{"name":"","type":"address","internalType":"contract IQuoter"}],"stateMutability":"view"},{"type":"function","name":"renounceOwnership","inputs":[],"outputs":[],"stateMutability":"nonpayable"},{"type":"function","name":"setFeeRate","inputs":[{"name":"_feeRatePerDayScaled","type":"uint256","internalType":"uint256"}],"outputs":[],"stateMutability":"nonpayable"},{"type":"function","name":"setFeeReceiver","inputs":[{"name":"_feeReceiver","type":"address","internalType":"address"}],"outputs":[],"stateMutability":"nonpayable"},{"type":"function","name":"setMethodologist","inputs":[{"name":"_methodologist","type":"address","internalType":"address"}],"outputs":[],"stateMutability":"nonpayable"},{"type":"function","name":"setMethodology","inputs":[{"name":"_methodology","type":"string","internalType":"string"}],"outputs":[],"stateMutability":"nonpayable"},{"type":"function","name":"setMinter","inputs":[{"name":"_minter","type":"address","internalType":"address"},{"name":"_enabled","type":"bool","internalType":"bool"}],"outputs":[],"stateMutability":"nonpayable"},{"type":"function","name":"setSupplyCeiling","inputs":[{"name":"_supplyCeiling","type":"uint256","internalType":"uint256"}],"outputs":[],"stateMutability":"nonpayable"},{"type":"function","name":"supplyCeiling","inputs":[],"outputs":[{"name":"","type":"uint256","internalType":"uint256"}],"stateMutability":"view"},{"type":"function","name":"swapRouterV2","inputs":[],"outputs":[{"name":"","type":"address","internalType":"contract IUniswapV2Router02"}],"stateMutability":"view"},{"type":"function","name":"swapRouterV3","inputs":[],"outputs":[{"name":"","type":"address","internalType":"contract ISwapRouter"}],"stateMutability":"view"},{"type":"function","name":"swapSingle","inputs":[{"name":"tokenIn","type":"address","internalType":"address"},{"name":"tokenOut","type":"address","internalType":"address"},{"name":"amountIn","type":"uint256","internalType":"uint256"},{"name":"_recipient","type":"address","internalType":"address"},{"name":"_swapVersion","type":"uint256","internalType":"uint256"}],"outputs":[{"name":"","type":"uint256","internalType":"uint256"}],"stateMutability":"nonpayable"},{"type":"function","name":"symbol","inputs":[],"outputs":[{"name":"","type":"string","internalType":"string"}],"stateMutability":"view"},{"type":"function","name":"toggleRestriction","inputs":[{"name":"who","type":"address","internalType":"address"}],"outputs":[],"stateMutability":"nonpayable"},{"type":"function","name":"tokenMarketShare","inputs":[{"name":"","type":"address","internalType":"address"}],"outputs":[{"name":"","type":"uint256","internalType":"uint256"}],"stateMutability":"view"},{"type":"function","name":"tokenSwapVersion","inputs":[{"name":"","type":"address","internalType":"address"}],"outputs":[{"name":"","type":"uint256","internalType":"uint256"}],"stateMutability":"view"},{"type":"function","name":"totalSupply","inputs":[],"outputs":[{"name":"","type":"uint256","internalType":"uint256"}],"stateMutability":"view"},{"type":"function","name":"transfer","inputs":[{"name":"to","type":"address","internalType":"address"},{"name":"amount","type":"uint256","internalType":"uint256"}],"outputs":[{"name":"","type":"bool","internalType":"bool"}],"stateMutability":"nonpayable"},{"type":"function","name":"transferFrom","inputs":[{"name":"from","type":"address","internalType":"address"},{"name":"to","type":"address","internalType":"address"},{"name":"amount","type":"uint256","internalType":"uint256"}],"outputs":[{"name":"","type":"bool","internalType":"bool"}],"stateMutability":"nonpayable"},{"type":"function","name":"transferOwnership","inputs":[{"name":"newOwner","type":"address","internalType":"address"}],"outputs":[],"stateMutability":"nonpayable"},{"type":"function","name":"unpause","inputs":[],"outputs":[],"stateMutability":"nonpayable"},{"type":"function","name":"weth","inputs":[],"outputs":[{"name":"","type":"address","internalType":"contract IWETH"}],"stateMutability":"view"},{"type":"function","name":"wethTransfer","inputs":[{"name":"to","type":"address","internalType":"address"},{"name":"amount","type":"uint256","internalType":"uint256"}],"outputs":[],"stateMutability":"nonpayable"},{"type":"event","name":"Approval","inputs":[{"name":"owner","type":"address","indexed":true,"internalType":"address"},{"name":"spender","type":"address","indexed":true,"internalType":"address"},{"name":"value","type":"uint256","indexed":false,"internalType":"uint256"}],"anonymous":false},{"type":"event","name":"FeeRateSet","inputs":[{"name":"feeRatePerDayScaled","type":"uint256","indexed":true,"internalType":"uint256"}],"anonymous":false},{"type":"event","name":"FeeReceiverSet","inputs":[{"name":"feeReceiver","type":"address","indexed":true,"internalType":"address"}],"anonymous":false},{"type":"event","name":"Initialized","inputs":[{"name":"version","type":"uint8","indexed":false,"internalType":"uint8"}],"anonymous":false},{"type":"event","name":"MethodologistSet","inputs":[{"name":"methodologist","type":"address","indexed":true,"internalType":"address"}],"anonymous":false},{"type":"event","name":"MethodologySet","inputs":[{"name":"methodology","type":"string","indexed":false,"internalType":"string"}],"anonymous":false},{"type":"event","name":"MintFeeToReceiver","inputs":[{"name":"feeReceiver","type":"address","indexed":false,"internalType":"address"},{"name":"timestamp","type":"uint256","indexed":false,"internalType":"uint256"},{"name":"totalSupply","type":"uint256","indexed":false,"internalType":"uint256"},{"name":"amount","type":"uint256","indexed":false,"internalType":"uint256"}],"anonymous":false},{"type":"event","name":"MinterRemoved","inputs":[{"name":"minter","type":"address","indexed":true,"internalType":"address"}],"anonymous":false},{"type":"event","name":"MinterSet","inputs":[{"name":"minter","type":"address","indexed":true,"internalType":"address"}],"anonymous":false},{"type":"event","name":"OwnershipTransferred","inputs":[{"name":"previousOwner","type":"address","indexed":true,"internalType":"address"},{"name":"newOwner","type":"address","indexed":true,"internalType":"address"}],"anonymous":false},{"type":"event","name":"Paused","inputs":[{"name":"account","type":"address","indexed":false,"internalType":"address"}],"anonymous":false},{"type":"event","name":"SupplyCeilingSet","inputs":[{"name":"supplyCeiling","type":"uint256","indexed":false,"internalType":"uint256"}],"anonymous":false},{"type":"event","name":"ToggledRestricted","inputs":[{"name":"account","type":"address","indexed":true,"internalType":"address"},{"name":"isRestricted","type":"bool","indexed":false,"internalType":"bool"}],"anonymous":false},{"type":"event","name":"Transfer","inputs":[{"name":"from","type":"address","indexed":true,"internalType":"address"},{"name":"to","type":"address","indexed":true,"internalType":"address"},{"name":"value","type":"uint256","indexed":false,"internalType":"uint256"}],"anonymous":false},{"type":"event","name":"Unpaused","inputs":[{"name":"account","type":"address","indexed":false,"internalType":"address"}],"anonymous":false}],"bytecode":{"object":"0x608060405234801561001057600080fd5b506154d3806100206000396000f3fe6080604052600436106102cd5760003560e01c80638da5cb5b11610175578063b631e80b116100dc578063dd62ed3e11610095578063efdcd9741161006f578063efdcd97414610b05578063f2fde38b14610b2e578063f734e22a14610b57578063fcaae87b14610b6e576102d4565b8063dd62ed3e14610a74578063ddca3f4314610ab1578063ed1c11cb14610adc576102d4565b8063b631e80b14610950578063c01bc9821461097b578063c6bbd5a7146109b8578063cf456ae7146109e3578063d153b60c14610a0c578063d90bc21114610a37576102d4565b8063a457c2d71161012e578063a457c2d71461081c578063a9059cbb14610859578063aa271e1a14610896578063aaa4a184146108d3578063b3f00674146108fc578063b5ed298a14610927576102d4565b80638da5cb5b1461071e57806391fe1b921461074957806395d89b41146107725780639dc29fac1461079d5780639eeb1d50146107c65780639f8e67bf146107f1576102d4565b806340c10f19116102345780636e01a686116101ed578063744fbc7a116101c7578063744fbc7a1461068a57806377524af9146106b557806379e34b4d146106de5780638456cb5914610707576102d4565b80636e01a6861461060d57806370a0823114610636578063715018a614610673576102d4565b806340c10f19146104ff57806345596e2e146105285780635c975abb146105515780635f370ed01461057c578063660db484146105b957806368e0d4e1146105e2576102d4565b80632b52684d116102865780632b52684d146103ff5780632fecd5891461042a578063313ce5671461045557806339509351146104805780633f4ba83a146104bd5780633fc8cef3146104d4576102d4565b806306fdde03146102d9578063095ea7b31461030457806318160ddd14610341578063184a732f1461036c5780631d5f45f51461039757806323b872dd146103c2576102d4565b366102d457005b600080fd5b3480156102e557600080fd5b506102ee610bab565b6040516102fb91906145eb565b60405180910390f35b34801561031057600080fd5b5061032b60048036038101906103269190613cc5565b610c3d565b6040516103389190614513565b60405180910390f35b34801561034d57600080fd5b50610356610c60565b6040516103639190614929565b60405180910390f35b34801561037857600080fd5b50610381610c6a565b60405161038e9190614929565b60405180910390f35b3480156103a357600080fd5b506103ac610c70565b6040516103b9919061459a565b60405180910390f35b3480156103ce57600080fd5b506103e960048036038101906103e49190613bb7565b610c97565b6040516103f69190614513565b60405180910390f35b34801561040b57600080fd5b50610414610e6c565b6040516104219190614929565b60405180910390f35b34801561043657600080fd5b5061043f610e73565b60405161044c9190614929565b60405180910390f35b34801561046157600080fd5b5061046a610e79565b604051610477919061499e565b60405180910390f35b34801561048c57600080fd5b506104a760048036038101906104a29190613cc5565b610e82565b6040516104b49190614513565b60405180910390f35b3480156104c957600080fd5b506104d2610eb9565b005b3480156104e057600080fd5b506104e9610ecb565b6040516104f691906145b5565b60405180910390f35b34801561050b57600080fd5b5061052660048036038101906105219190613cc5565b610ef2565b005b34801561053457600080fd5b5061054f600480360381019061054a9190613ea7565b611111565b005b34801561055d57600080fd5b50610566611158565b6040516105739190614513565b60405180910390f35b34801561058857600080fd5b506105a3600480360381019061059e9190613c0a565b61116f565b6040516105b09190614929565b60405180910390f35b3480156105c557600080fd5b506105e060048036038101906105db9190613b4a565b611656565b005b3480156105ee57600080fd5b506105f7611720565b6040516106049190614564565b60405180910390f35b34801561061957600080fd5b50610634600480360381019061062f9190613ea7565b611747565b005b34801561064257600080fd5b5061065d60048036038101906106589190613b4a565b611791565b60405161066a9190614929565b60405180910390f35b34801561067f57600080fd5b506106886117da565b005b34801561069657600080fd5b5061069f6117ee565b6040516106ac919061457f565b60405180910390f35b3480156106c157600080fd5b506106dc60048036038101906106d79190613cc5565b611815565b005b3480156106ea57600080fd5b5061070560048036038101906107009190613bb7565b611957565b005b34801561071357600080fd5b5061071c611a77565b005b34801561072a57600080fd5b50610733611a89565b604051610740919061448a565b60405180910390f35b34801561075557600080fd5b50610770600480360381019061076b9190613d32565b611ab3565b005b34801561077e57600080fd5b50610787611b96565b60405161079491906145eb565b60405180910390f35b3480156107a957600080fd5b506107c460048036038101906107bf9190613cc5565b611c28565b005b3480156107d257600080fd5b506107db611def565b6040516107e891906145eb565b60405180910390f35b3480156107fd57600080fd5b50610806611e7e565b604051610813919061448a565b60405180910390f35b34801561082857600080fd5b50610843600480360381019061083e9190613cc5565b611ea5565b6040516108509190614513565b60405180910390f35b34801561086557600080fd5b50610880600480360381019061087b9190613cc5565b611f1c565b60405161088d9190614513565b60405180910390f35b3480156108a257600080fd5b506108bd60048036038101906108b89190613b4a565b612057565b6040516108ca9190614513565b60405180910390f35b3480156108df57600080fd5b506108fa60048036038101906108f59190613b4a565b612078565b005b34801561090857600080fd5b506109116121c4565b60405161091e919061448a565b60405180910390f35b34801561093357600080fd5b5061094e60048036038101906109499190613b4a565b6121ea565b005b34801561095c57600080fd5b506109656122a6565b6040516109729190614549565b60405180910390f35b34801561098757600080fd5b506109a2600480360381019061099d9190613b4a565b6122cd565b6040516109af9190614513565b60405180910390f35b3480156109c457600080fd5b506109cd6122ee565b6040516109da919061452e565b60405180910390f35b3480156109ef57600080fd5b50610a0a6004803603810190610a059190613c85565b612315565b005b348015610a1857600080fd5b50610a21612445565b604051610a2e919061448a565b60405180910390f35b348015610a4357600080fd5b50610a5e6004803603810190610a599190613b4a565b61246b565b604051610a6b9190614929565b60405180910390f35b348015610a8057600080fd5b50610a9b6004803603810190610a969190613b77565b612484565b604051610aa89190614929565b60405180910390f35b348015610abd57600080fd5b50610ac661250b565b604051610ad39190614929565b60405180910390f35b348015610ae857600080fd5b50610b036004803603810190610afe9190613d7b565b612511565b005b348015610b1157600080fd5b50610b2c6004803603810190610b279190613b4a565b612891565b005b348015610b3a57600080fd5b50610b556004803603810190610b509190613b4a565b61295a565b005b348015610b6357600080fd5b50610b6c612ad4565b005b348015610b7a57600080fd5b50610b956004803603810190610b909190613b4a565b612ae6565b604051610ba29190614929565b60405180910390f35b606060368054610bba90614cd3565b80601f0160208091040260200160405190810160405280929190818152602001828054610be690614cd3565b8015610c335780601f10610c0857610100808354040283529160200191610c33565b820191906000526020600020905b815481529060010190602001808311610c1657829003601f168201915b5050505050905090565b600080610c48612aff565b9050610c55818585612b07565b600191505092915050565b6000603554905090565b60fe5481565b61010860009054906101000a900473ffffffffffffffffffffffffffffffffffffffff1681565b6000610ca1612cd2565b61010460003373ffffffffffffffffffffffffffffffffffffffff1673ffffffffffffffffffffffffffffffffffffffff16815260200190815260200160002060009054906101000a900460ff1615610d2f576040517f08c379a0000000000000000000000000000000000000000000000000000000008152600401610d26906146ad565b60405180910390fd5b61010460008473ffffffffffffffffffffffffffffffffffffffff1673ffffffffffffffffffffffffffffffffffffffff16815260200190815260200160002060009054906101000a900460ff1615610dbd576040517f08c379a0000000000000000000000000000000000000000000000000000000008152600401610db49061466d565b60405180910390fd5b61010460008573ffffffffffffffffffffffffffffffffffffffff1673ffffffffffffffffffffffffffffffffffffffff16815260200190815260200160002060009054906101000a900460ff1615610e4b576040517f08c379a0000000000000000000000000000000000000000000000000000000008152600401610e42906148ad565b60405180910390fd5b610e56843384612d1c565b610e61848484612da8565b600190509392505050565b6101035481565b60fd5481565b60006012905090565b600080610e8d612aff565b9050610eae818585610e9f8589612484565b610ea99190614a64565b612b07565b600191505092915050565b610ec1613023565b610ec96130a1565b565b61010b60009054906101000a900473ffffffffffffffffffffffffffffffffffffffff1681565b610efa612cd2565b61010160003373ffffffffffffffffffffffffffffffffffffffff1673ffffffffffffffffffffffffffffffffffffffff16815260200190815260200160002060009054906101000a900460ff16610f87576040517f08c379a0000000000000000000000000000000000000000000000000000000008152600401610f7e906146cd565b60405180910390fd5b6101035481610f94610c60565b610f9e9190614a64565b1115610fdf576040517f08c379a0000000000000000000000000000000000000000000000000000000008152600401610fd69061484d565b60405180910390fd5b61010460008373ffffffffffffffffffffffffffffffffffffffff1673ffffffffffffffffffffffffffffffffffffffff16815260200190815260200160002060009054906101000a900460ff161561106d576040517f08c379a00000000000000000000000000000000000000000000000000000000081526004016110649061466d565b60405180910390fd5b61010460003373ffffffffffffffffffffffffffffffffffffffff1673ffffffffffffffffffffffffffffffffffffffff16815260200190815260200160002060009054906101000a900460ff16156110fb576040517f08c379a00000000000000000000000000000000000000000000000000000000081526004016110f2906146ad565b60405180910390fd5b611103613104565b61110d8282613259565b5050565b611119613023565b611121613104565b8060fd81905550807f45398c451b1a31b88dbaed4e7b89a632f43cc4b50149d437db03a5300afe40d160405160405180910390a250565b600060ca60009054906101000a900460ff16905090565b600061010160003373ffffffffffffffffffffffffffffffffffffffff1673ffffffffffffffffffffffffffffffffffffffff16815260200190815260200160002060009054906101000a900460ff166111fe576040517f08c379a00000000000000000000000000000000000000000000000000000000081526004016111f5906146cd565b60405180910390fd5b6003821415611413578573ffffffffffffffffffffffffffffffffffffffff1663095ea7b361010760009054906101000a900473ffffffffffffffffffffffffffffffffffffffff16866040518363ffffffff1660e01b81526004016112659291906144a5565b602060405180830381600087803b15801561127f57600080fd5b505af1158015611293573d6000803e3d6000fd5b505050506040513d601f19601f820116820180604052508101906112b79190613d05565b5060006040518061010001604052808873ffffffffffffffffffffffffffffffffffffffff1681526020018773ffffffffffffffffffffffffffffffffffffffff168152602001610bb862ffffff1681526020018573ffffffffffffffffffffffffffffffffffffffff16815260200142815260200186815260200160008152602001600073ffffffffffffffffffffffffffffffffffffffff168152509050600061010760009054906101000a900473ffffffffffffffffffffffffffffffffffffffff1673ffffffffffffffffffffffffffffffffffffffff1663414bf389836040518263ffffffff1660e01b81526004016113b5919061490d565b602060405180830381600087803b1580156113cf57600080fd5b505af11580156113e3573d6000803e3d6000fd5b505050506040513d601f19601f820116820180604052508101906114079190613ed4565b9050809250505061164d565b6000600267ffffffffffffffff8111156114305761142f614df2565b5b60405190808252806020026020018201604052801561145e5781602001602082028036833780820191505090505b509050868160008151811061147657611475614dc3565b5b602002602001019073ffffffffffffffffffffffffffffffffffffffff16908173ffffffffffffffffffffffffffffffffffffffff168152505085816001815181106114c5576114c4614dc3565b5b602002602001019073ffffffffffffffffffffffffffffffffffffffff16908173ffffffffffffffffffffffffffffffffffffffff16815250508673ffffffffffffffffffffffffffffffffffffffff1663095ea7b361010960009054906101000a900473ffffffffffffffffffffffffffffffffffffffff16876040518363ffffffff1660e01b815260040161155d9291906144a5565b602060405180830381600087803b15801561157757600080fd5b505af115801561158b573d6000803e3d6000fd5b505050506040513d601f19601f820116820180604052508101906115af9190613d05565b5061010960009054906101000a900473ffffffffffffffffffffffffffffffffffffffff1673ffffffffffffffffffffffffffffffffffffffff16635c11d7958660008488426040518663ffffffff1660e01b8152600401611615959493929190614944565b600060405180830381600087803b15801561162f57600080fd5b505af1158015611643573d6000803e3d6000fd5b5050505060009150505b95945050505050565b61165e613023565b600073ffffffffffffffffffffffffffffffffffffffff168173ffffffffffffffffffffffffffffffffffffffff16141561169857600080fd5b8061010060006101000a81548173ffffffffffffffffffffffffffffffffffffffff021916908373ffffffffffffffffffffffffffffffffffffffff1602179055508073ffffffffffffffffffffffffffffffffffffffff167f164d8ef0d742b45087644f55c61abeb84557df70d06730591e451f0981e278ca60405160405180910390a250565b61010a60009054906101000a900473ffffffffffffffffffffffffffffffffffffffff1681565b61174f613023565b80610103819055507fe35be406f69e9d11d6ac8e5b54bbc8b6c4baf2fa2359f84a56baa5ea5d07dc8f816040516117869190614929565b60405180910390a150565b6000603360008373ffffffffffffffffffffffffffffffffffffffff1673ffffffffffffffffffffffffffffffffffffffff168152602001908152602001600020549050919050565b6117e2613023565b6117ec60006133b1565b565b61010960009054906101000a900473ffffffffffffffffffffffffffffffffffffffff1681565b61010160003373ffffffffffffffffffffffffffffffffffffffff1673ffffffffffffffffffffffffffffffffffffffff16815260200190815260200160002060009054906101000a900460ff166118a2576040517f08c379a0000000000000000000000000000000000000000000000000000000008152600401611899906146cd565b60405180910390fd5b61010b60009054906101000a900473ffffffffffffffffffffffffffffffffffffffff1673ffffffffffffffffffffffffffffffffffffffff1663a9059cbb83836040518363ffffffff1660e01b81526004016119009291906144a5565b602060405180830381600087803b15801561191a57600080fd5b505af115801561192e573d6000803e3d6000fd5b505050506040513d601f19601f820116820180604052508101906119529190613d05565b505050565b61010160003373ffffffffffffffffffffffffffffffffffffffff1673ffffffffffffffffffffffffffffffffffffffff16815260200190815260200160002060009054906101000a900460ff166119e4576040517f08c379a00000000000000000000000000000000000000000000000000000000081526004016119db906146cd565b60405180910390fd5b8273ffffffffffffffffffffffffffffffffffffffff1663095ea7b383836040518363ffffffff1660e01b8152600401611a1f9291906144a5565b602060405180830381600087803b158015611a3957600080fd5b505af1158015611a4d573d6000803e3d6000fd5b505050506040513d601f19601f82011682018060405250810190611a719190613d05565b50505050565b611a7f613023565b611a87613477565b565b6000606560009054906101000a900473ffffffffffffffffffffffffffffffffffffffff16905090565b61010060009054906101000a900473ffffffffffffffffffffffffffffffffffffffff1673ffffffffffffffffffffffffffffffffffffffff163373ffffffffffffffffffffffffffffffffffffffff1614611b44576040517f08c379a0000000000000000000000000000000000000000000000000000000008152600401611b3b9061474d565b60405180910390fd5b806101029080519060200190611b5b9291906139ce565b507fe6be68107100e39cb16d675c1086a4d5479fbd01108d721dabbccaa2249b995f81604051611b8b91906145eb565b60405180910390a150565b606060378054611ba590614cd3565b80601f0160208091040260200160405190810160405280929190818152602001828054611bd190614cd3565b8015611c1e5780601f10611bf357610100808354040283529160200191611c1e565b820191906000526020600020905b815481529060010190602001808311611c0157829003601f168201915b5050505050905090565b611c30612cd2565b61010160003373ffffffffffffffffffffffffffffffffffffffff1673ffffffffffffffffffffffffffffffffffffffff16815260200190815260200160002060009054906101000a900460ff16611cbd576040517f08c379a0000000000000000000000000000000000000000000000000000000008152600401611cb4906146cd565b60405180910390fd5b61010460008373ffffffffffffffffffffffffffffffffffffffff1673ffffffffffffffffffffffffffffffffffffffff16815260200190815260200160002060009054906101000a900460ff1615611d4b576040517f08c379a0000000000000000000000000000000000000000000000000000000008152600401611d42906148ad565b60405180910390fd5b61010460003373ffffffffffffffffffffffffffffffffffffffff1673ffffffffffffffffffffffffffffffffffffffff16815260200190815260200160002060009054906101000a900460ff1615611dd9576040517f08c379a0000000000000000000000000000000000000000000000000000000008152600401611dd0906146ad565b60405180910390fd5b611de1613104565b611deb82826134da565b5050565b6101028054611dfd90614cd3565b80601f0160208091040260200160405190810160405280929190818152602001828054611e2990614cd3565b8015611e765780601f10611e4b57610100808354040283529160200191611e76565b820191906000526020600020905b815481529060010190602001808311611e5957829003601f168201915b505050505081565b61010060009054906101000a900473ffffffffffffffffffffffffffffffffffffffff1681565b600080611eb0612aff565b90506000611ebe8286612484565b905083811015611f03576040517f08c379a0000000000000000000000000000000000000000000000000000000008152600401611efa906148cd565b60405180910390fd5b611f108286868403612b07565b60019250505092915050565b6000611f26612cd2565b61010460003373ffffffffffffffffffffffffffffffffffffffff1673ffffffffffffffffffffffffffffffffffffffff16815260200190815260200160002060009054906101000a900460ff1615611fb4576040517f08c379a0000000000000000000000000000000000000000000000000000000008152600401611fab906146ad565b60405180910390fd5b61010460008473ffffffffffffffffffffffffffffffffffffffff1673ffffffffffffffffffffffffffffffffffffffff16815260200190815260200160002060009054906101000a900460ff1615612042576040517f08c379a00000000000000000000000000000000000000000000000000000000081526004016120399061466d565b60405180910390fd5b61204d338484612da8565b6001905092915050565b6101016020528060005260406000206000915054906101000a900460ff1681565b612080613023565b61010460008273ffffffffffffffffffffffffffffffffffffffff1673ffffffffffffffffffffffffffffffffffffffff16815260200190815260200160002060009054906101000a900460ff161561010460008373ffffffffffffffffffffffffffffffffffffffff1673ffffffffffffffffffffffffffffffffffffffff16815260200190815260200160002060006101000a81548160ff0219169083151502179055508073ffffffffffffffffffffffffffffffffffffffff167f14ddf324cc5d8b14a3c3b12c84b0a7d578d72c8d60655c06d6a457e71431d5ee61010460008473ffffffffffffffffffffffffffffffffffffffff1673ffffffffffffffffffffffffffffffffffffffff16815260200190815260200160002060009054906101000a900460ff166040516121b99190614513565b60405180910390a250565b60ff60009054906101000a900473ffffffffffffffffffffffffffffffffffffffff1681565b6121f2613023565b600073ffffffffffffffffffffffffffffffffffffffff168173ffffffffffffffffffffffffffffffffffffffff161415612262576040517f08c379a0000000000000000000000000000000000000000000000000000000008152600401612259906147ed565b60405180910390fd5b80609760006101000a81548173ffffffffffffffffffffffffffffffffffffffff021916908373ffffffffffffffffffffffffffffffffffffffff16021790555050565b61010760009054906101000a900473ffffffffffffffffffffffffffffffffffffffff1681565b6101046020528060005260406000206000915054906101000a900460ff1681565b61010c60009054906101000a900473ffffffffffffffffffffffffffffffffffffffff1681565b61231d613023565b600073ffffffffffffffffffffffffffffffffffffffff168273ffffffffffffffffffffffffffffffffffffffff16141561235757600080fd5b8061010160008473ffffffffffffffffffffffffffffffffffffffff1673ffffffffffffffffffffffffffffffffffffffff16815260200190815260200160002060006101000a81548160ff02191690831515021790555080156123fd578173ffffffffffffffffffffffffffffffffffffffff167f726b590ef91a8c76ad05bbe91a57ef84605276528f49cd47d787f558a4e755b660405160405180910390a2612441565b8173ffffffffffffffffffffffffffffffffffffffff167fe94479a9f7e1952cc78f2d6baab678adc1b772d936c6583def489e524cb6669260405160405180910390a25b5050565b609760009054906101000a900473ffffffffffffffffffffffffffffffffffffffff1681565b6101066020528060005260406000206000915090505481565b6000603460008473ffffffffffffffffffffffffffffffffffffffff1673ffffffffffffffffffffffffffffffffffffffff16815260200190815260200160002060008373ffffffffffffffffffffffffffffffffffffffff1673ffffffffffffffffffffffffffffffffffffffff16815260200190815260200160002054905092915050565b60fc5481565b60008060019054906101000a900460ff161590508080156125425750600160008054906101000a900460ff1660ff16105b8061256f5750612551306136aa565b15801561256e5750600160008054906101000a900460ff1660ff16145b5b6125ae576040517f08c379a00000000000000000000000000000000000000000000000000000000081526004016125a5906147ad565b60405180910390fd5b60016000806101000a81548160ff021916908360ff16021790555080156125eb576001600060016101000a81548160ff0219169083151502179055505b600073ffffffffffffffffffffffffffffffffffffffff168973ffffffffffffffffffffffffffffffffffffffff16141561262557600080fd5b61262d6136cd565b612635613726565b61263f8c8c61377f565b6126476137dc565b8960fd819055508860ff60006101000a81548173ffffffffffffffffffffffffffffffffffffffff021916908373ffffffffffffffffffffffffffffffffffffffff16021790555087610103819055504260fe819055508661010b60006101000a81548173ffffffffffffffffffffffffffffffffffffffff021916908373ffffffffffffffffffffffffffffffffffffffff1602179055508561010c60006101000a81548173ffffffffffffffffffffffffffffffffffffffff021916908373ffffffffffffffffffffffffffffffffffffffff1602179055508461010760006101000a81548173ffffffffffffffffffffffffffffffffffffffff021916908373ffffffffffffffffffffffffffffffffffffffff1602179055508361010860006101000a81548173ffffffffffffffffffffffffffffffffffffffff021916908373ffffffffffffffffffffffffffffffffffffffff1602179055508261010960006101000a81548173ffffffffffffffffffffffffffffffffffffffff021916908373ffffffffffffffffffffffffffffffffffffffff1602179055508161010a60006101000a81548173ffffffffffffffffffffffffffffffffffffffff021916908373ffffffffffffffffffffffffffffffffffffffff16021790555080156128835760008060016101000a81548160ff0219169083151502179055507f7f26b83ff96e1f2b6a682f133852f6798a09c465da95921460cefb3847402498600160405161287a91906145d0565b60405180910390a15b505050505050505050505050565b612899613023565b600073ffffffffffffffffffffffffffffffffffffffff168173ffffffffffffffffffffffffffffffffffffffff1614156128d357600080fd5b8060ff60006101000a81548173ffffffffffffffffffffffffffffffffffffffff021916908373ffffffffffffffffffffffffffffffffffffffff1602179055508073ffffffffffffffffffffffffffffffffffffffff167fbdf37c276f641820b141429d245add2552b4118c0866e5a78638e3de5ef18d9d60405160405180910390a250565b600073ffffffffffffffffffffffffffffffffffffffff168173ffffffffffffffffffffffffffffffffffffffff1614156129ca576040517f08c379a00000000000000000000000000000000000000000000000000000000081526004016129c1906147ed565b60405180910390fd5b609760009054906101000a900473ffffffffffffffffffffffffffffffffffffffff1673ffffffffffffffffffffffffffffffffffffffff168173ffffffffffffffffffffffffffffffffffffffff1614612a5a576040517f08c379a0000000000000000000000000000000000000000000000000000000008152600401612a519061472d565b60405180910390fd5b3373ffffffffffffffffffffffffffffffffffffffff168173ffffffffffffffffffffffffffffffffffffffff1614612ac8576040517f08c379a0000000000000000000000000000000000000000000000000000000008152600401612abf9061478d565b60405180910390fd5b612ad1816133b1565b50565b612adc613023565b612ae4613104565b565b6101056020528060005260406000206000915090505481565b600033905090565b600073ffffffffffffffffffffffffffffffffffffffff168373ffffffffffffffffffffffffffffffffffffffff161415612b77576040517f08c379a0000000000000000000000000000000000000000000000000000000008152600401612b6e9061486d565b60405180910390fd5b600073ffffffffffffffffffffffffffffffffffffffff168273ffffffffffffffffffffffffffffffffffffffff161415612be7576040517f08c379a0000000000000000000000000000000000000000000000000000000008152600401612bde9061468d565b60405180910390fd5b80603460008573ffffffffffffffffffffffffffffffffffffffff1673ffffffffffffffffffffffffffffffffffffffff16815260200190815260200160002060008473ffffffffffffffffffffffffffffffffffffffff1673ffffffffffffffffffffffffffffffffffffffff168152602001908152602001600020819055508173ffffffffffffffffffffffffffffffffffffffff168373ffffffffffffffffffffffffffffffffffffffff167f8c5be1e5ebec7d5bd14f71427d1e84f3dd0314c0f7b2291e5b200ac8c7c3b92583604051612cc59190614929565b60405180910390a3505050565b612cda611158565b15612d1a576040517f08c379a0000000000000000000000000000000000000000000000000000000008152600401612d119061476d565b60405180910390fd5b565b6000612d288484612484565b90507fffffffffffffffffffffffffffffffffffffffffffffffffffffffffffffffff8114612da25781811015612d94576040517f08c379a0000000000000000000000000000000000000000000000000000000008152600401612d8b906146ed565b60405180910390fd5b612da18484848403612b07565b5b50505050565b600073ffffffffffffffffffffffffffffffffffffffff168373ffffffffffffffffffffffffffffffffffffffff161415612e18576040517f08c379a0000000000000000000000000000000000000000000000000000000008152600401612e0f9061482d565b60405180910390fd5b600073ffffffffffffffffffffffffffffffffffffffff168273ffffffffffffffffffffffffffffffffffffffff161415612e88576040517f08c379a0000000000000000000000000000000000000000000000000000000008152600401612e7f9061460d565b60405180910390fd5b612e9383838361382d565b6000603360008573ffffffffffffffffffffffffffffffffffffffff1673ffffffffffffffffffffffffffffffffffffffff16815260200190815260200160002054905081811015612f1a576040517f08c379a0000000000000000000000000000000000000000000000000000000008152600401612f119061470d565b60405180910390fd5b818103603360008673ffffffffffffffffffffffffffffffffffffffff1673ffffffffffffffffffffffffffffffffffffffff1681526020019081526020016000208190555081603360008573ffffffffffffffffffffffffffffffffffffffff1673ffffffffffffffffffffffffffffffffffffffff168152602001908152602001600020600082825401925050819055508273ffffffffffffffffffffffffffffffffffffffff168473ffffffffffffffffffffffffffffffffffffffff167fddf252ad1be2c89b69c2b068fc378daa952ba7f163c4a11628f55a4df523b3ef8460405161300a9190614929565b60405180910390a361301d848484613832565b50505050565b61302b612aff565b73ffffffffffffffffffffffffffffffffffffffff16613049611a89565b73ffffffffffffffffffffffffffffffffffffffff161461309f576040517f08c379a0000000000000000000000000000000000000000000000000000000008152600401613096906147cd565b60405180910390fd5b565b6130a9613837565b600060ca60006101000a81548160ff0219169083151502179055507f5db9ee0a495bf2e6ff9c91a7834c1ba4fdd244a5e8aa4e537bd38aeae4b073aa6130ed612aff565b6040516130fa919061448a565b60405180910390a1565b60006201518060fe54426131189190614b45565b6131229190614aba565b905060018110613256576000613136610c60565b90506000819050600060fd54905060005b848110156131875768056bc75e2d6310000082846131659190614aeb565b61316f9190614aba565b8361317a9190614a64565b9250806001019050613147565b50600083836131969190614b45565b905084620151806131a79190614aeb565b60fe60008282546131b89190614a64565b925050819055506131eb60ff60009054906101000a900473ffffffffffffffffffffffffffffffffffffffff1682613259565b7f07982395c678b2ffc23fcf59aaec243ca79418c285af0d0e10b4e65bc4189f4c60ff60009054906101000a900473ffffffffffffffffffffffffffffffffffffffff1642613238610c60565b8460405161324994939291906144ce565b60405180910390a1505050505b50565b600073ffffffffffffffffffffffffffffffffffffffff168273ffffffffffffffffffffffffffffffffffffffff1614156132c9576040517f08c379a00000000000000000000000000000000000000000000000000000000081526004016132c0906148ed565b60405180910390fd5b6132d56000838361382d565b80603560008282546132e79190614a64565b9250508190555080603360008473ffffffffffffffffffffffffffffffffffffffff1673ffffffffffffffffffffffffffffffffffffffff168152602001908152602001600020600082825401925050819055508173ffffffffffffffffffffffffffffffffffffffff16600073ffffffffffffffffffffffffffffffffffffffff167fddf252ad1be2c89b69c2b068fc378daa952ba7f163c4a11628f55a4df523b3ef836040516133999190614929565b60405180910390a36133ad60008383613832565b5050565b6000606560009054906101000a900473ffffffffffffffffffffffffffffffffffffffff16905081606560006101000a81548173ffffffffffffffffffffffffffffffffffffffff021916908373ffffffffffffffffffffffffffffffffffffffff1602179055508173ffffffffffffffffffffffffffffffffffffffff168173ffffffffffffffffffffffffffffffffffffffff167f8be0079c531659141344cd1fd0a4f28419497f9722a3daafe3b4186f6b6457e060405160405180910390a35050565b61347f612cd2565b600160ca60006101000a81548160ff0219169083151502179055507f62e78cea01bee320cd4e420270b5ea74000d11b0c9f74754ebdbfc544b05a2586134c3612aff565b6040516134d0919061448a565b60405180910390a1565b600073ffffffffffffffffffffffffffffffffffffffff168273ffffffffffffffffffffffffffffffffffffffff16141561354a576040517f08c379a00000000000000000000000000000000000000000000000000000000081526004016135419061480d565b60405180910390fd5b6135568260008361382d565b6000603360008473ffffffffffffffffffffffffffffffffffffffff1673ffffffffffffffffffffffffffffffffffffffff168152602001908152602001600020549050818110156135dd576040517f08c379a00000000000000000000000000000000000000000000000000000000081526004016135d49061464d565b60405180910390fd5b818103603360008573ffffffffffffffffffffffffffffffffffffffff1673ffffffffffffffffffffffffffffffffffffffff1681526020019081526020016000208190555081603560008282540392505081905550600073ffffffffffffffffffffffffffffffffffffffff168373ffffffffffffffffffffffffffffffffffffffff167fddf252ad1be2c89b69c2b068fc378daa952ba7f163c4a11628f55a4df523b3ef846040516136919190614929565b60405180910390a36136a583600084613832565b505050565b6000808273ffffffffffffffffffffffffffffffffffffffff163b119050919050565b600060019054906101000a900460ff1661371c576040517f08c379a00000000000000000000000000000000000000000000000000000000081526004016137139061488d565b60405180910390fd5b613724613880565b565b600060019054906101000a900460ff16613775576040517f08c379a000000000000000000000000000000000000000000000000000000000815260040161376c9061488d565b60405180910390fd5b61377d6138e1565b565b600060019054906101000a900460ff166137ce576040517f08c379a00000000000000000000000000000000000000000000000000000000081526004016137c59061488d565b60405180910390fd5b6137d8828261394d565b5050565b600060019054906101000a900460ff1661382b576040517f08c379a00000000000000000000000000000000000000000000000000000000081526004016138229061488d565b60405180910390fd5b565b505050565b505050565b61383f611158565b61387e576040517f08c379a00000000000000000000000000000000000000000000000000000000081526004016138759061462d565b60405180910390fd5b565b600060019054906101000a900460ff166138cf576040517f08c379a00000000000000000000000000000000000000000000000000000000081526004016138c69061488d565b60405180910390fd5b6138df6138da612aff565b6133b1565b565b600060019054906101000a900460ff16613930576040517f08c379a00000000000000000000000000000000000000000000000000000000081526004016139279061488d565b60405180910390fd5b600060ca60006101000a81548160ff021916908315150217905550565b600060019054906101000a900460ff1661399c576040517f08c379a00000000000000000000000000000000000000000000000000000000081526004016139939061488d565b60405180910390fd5b81603690805190602001906139b29291906139ce565b5080603790805190602001906139c99291906139ce565b505050565b8280546139da90614cd3565b90600052602060002090601f0160209004810192826139fc5760008555613a43565b82601f10613a1557805160ff1916838001178555613a43565b82800160010185558215613a43579182015b82811115613a42578251825591602001919060010190613a27565b5b509050613a509190613a54565b5090565b5b80821115613a6d576000816000905550600101613a55565b5090565b6000613a84613a7f846149de565b6149b9565b905082815260208101848484011115613aa057613a9f614e26565b5b613aab848285614c91565b509392505050565b600081359050613ac281615458565b92915050565b600081359050613ad78161546f565b92915050565b600081519050613aec8161546f565b92915050565b600082601f830112613b0757613b06614e21565b5b8135613b17848260208601613a71565b91505092915050565b600081359050613b2f81615486565b92915050565b600081519050613b4481615486565b92915050565b600060208284031215613b6057613b5f614e30565b5b6000613b6e84828501613ab3565b91505092915050565b60008060408385031215613b8e57613b8d614e30565b5b6000613b9c85828601613ab3565b9250506020613bad85828601613ab3565b9150509250929050565b600080600060608486031215613bd057613bcf614e30565b5b6000613bde86828701613ab3565b9350506020613bef86828701613ab3565b9250506040613c0086828701613b20565b9150509250925092565b600080600080600060a08688031215613c2657613c25614e30565b5b6000613c3488828901613ab3565b9550506020613c4588828901613ab3565b9450506040613c5688828901613b20565b9350506060613c6788828901613ab3565b9250506080613c7888828901613b20565b9150509295509295909350565b60008060408385031215613c9c57613c9b614e30565b5b6000613caa85828601613ab3565b9250506020613cbb85828601613ac8565b9150509250929050565b60008060408385031215613cdc57613cdb614e30565b5b6000613cea85828601613ab3565b9250506020613cfb85828601613b20565b9150509250929050565b600060208284031215613d1b57613d1a614e30565b5b6000613d2984828501613add565b91505092915050565b600060208284031215613d4857613d47614e30565b5b600082013567ffffffffffffffff811115613d6657613d65614e2b565b5b613d7284828501613af2565b91505092915050565b60008060008060008060008060008060006101608c8e031215613da157613da0614e30565b5b60008c013567ffffffffffffffff811115613dbf57613dbe614e2b565b5b613dcb8e828f01613af2565b9b505060208c013567ffffffffffffffff811115613dec57613deb614e2b565b5b613df88e828f01613af2565b9a50506040613e098e828f01613b20565b9950506060613e1a8e828f01613ab3565b9850506080613e2b8e828f01613b20565b97505060a0613e3c8e828f01613ab3565b96505060c0613e4d8e828f01613ab3565b95505060e0613e5e8e828f01613ab3565b945050610100613e708e828f01613ab3565b935050610120613e828e828f01613ab3565b925050610140613e948e828f01613ab3565b9150509295989b509295989b9093969950565b600060208284031215613ebd57613ebc614e30565b5b6000613ecb84828501613b20565b91505092915050565b600060208284031215613eea57613ee9614e30565b5b6000613ef884828501613b35565b91505092915050565b6000613f0d8383613f19565b60208301905092915050565b613f2281614b79565b82525050565b613f3181614b79565b82525050565b6000613f4282614a1f565b613f4c8185614a42565b9350613f5783614a0f565b8060005b83811015613f88578151613f6f8882613f01565b9750613f7a83614a35565b925050600181019050613f5b565b5085935050505092915050565b613f9e81614b8b565b82525050565b613fad81614bdd565b82525050565b613fbc81614bef565b82525050565b613fcb81614c01565b82525050565b613fda81614c13565b82525050565b613fe981614c25565b82525050565b613ff881614c37565b82525050565b61400781614c49565b82525050565b61401681614c5b565b82525050565b600061402782614a2a565b6140318185614a53565b9350614041818560208601614ca0565b61404a81614e35565b840191505092915050565b6000614062602383614a53565b915061406d82614e46565b604082019050919050565b6000614085601483614a53565b915061409082614e95565b602082019050919050565b60006140a8602283614a53565b91506140b382614ebe565b604082019050919050565b60006140cb601083614a53565b91506140d682614f0d565b602082019050919050565b60006140ee602283614a53565b91506140f982614f36565b604082019050919050565b6000614111601883614a53565b915061411c82614f85565b602082019050919050565b6000614134602483614a53565b915061413f82614fae565b604082019050919050565b6000614157601d83614a53565b915061416282614ffd565b602082019050919050565b600061417a602683614a53565b915061418582615026565b604082019050919050565b600061419d603283614a53565b91506141a882615075565b604082019050919050565b60006141c0602b83614a53565b91506141cb826150c4565b604082019050919050565b60006141e3601083614a53565b91506141ee82615113565b602082019050919050565b6000614206603a83614a53565b91506142118261513c565b604082019050919050565b6000614229602e83614a53565b91506142348261518b565b604082019050919050565b600061424c602083614a53565b9150614257826151da565b602082019050919050565b600061426f603083614a53565b915061427a82615203565b604082019050919050565b6000614292602183614a53565b915061429d82615252565b604082019050919050565b60006142b5602583614a53565b91506142c0826152a1565b604082019050919050565b60006142d8601a83614a53565b91506142e3826152f0565b602082019050919050565b60006142fb602483614a53565b915061430682615319565b604082019050919050565b600061431e602b83614a53565b915061432982615368565b604082019050919050565b6000614341601283614a53565b915061434c826153b7565b602082019050919050565b6000614364602583614a53565b915061436f826153e0565b604082019050919050565b6000614387601f83614a53565b91506143928261542f565b602082019050919050565b610100820160008201516143b46000850182613f19565b5060208201516143c76020850182613f19565b5060408201516143da604085018261444e565b5060608201516143ed6060850182613f19565b506080820151614400608085018261445d565b5060a082015161441360a085018261445d565b5060c082015161442660c085018261445d565b5060e082015161443960e085018261443f565b50505050565b61444881614b97565b82525050565b61445781614bb7565b82525050565b61446681614bc6565b82525050565b61447581614bc6565b82525050565b61448481614bd0565b82525050565b600060208201905061449f6000830184613f28565b92915050565b60006040820190506144ba6000830185613f28565b6144c7602083018461446c565b9392505050565b60006080820190506144e36000830187613f28565b6144f0602083018661446c565b6144fd604083018561446c565b61450a606083018461446c565b95945050505050565b60006020820190506145286000830184613f95565b92915050565b60006020820190506145436000830184613fa4565b92915050565b600060208201905061455e6000830184613fb3565b92915050565b60006020820190506145796000830184613fc2565b92915050565b60006020820190506145946000830184613fd1565b92915050565b60006020820190506145af6000830184613fe0565b92915050565b60006020820190506145ca6000830184613fef565b92915050565b60006020820190506145e5600083018461400d565b92915050565b60006020820190508181036000830152614605818461401c565b905092915050565b6000602082019050818103600083015261462681614055565b9050919050565b6000602082019050818103600083015261464681614078565b9050919050565b600060208201905081810360008301526146668161409b565b9050919050565b60006020820190508181036000830152614686816140be565b9050919050565b600060208201905081810360008301526146a6816140e1565b9050919050565b600060208201905081810360008301526146c681614104565b9050919050565b600060208201905081810360008301526146e681614127565b9050919050565b600060208201905081810360008301526147068161414a565b9050919050565b600060208201905081810360008301526147268161416d565b9050919050565b6000602082019050818103600083015261474681614190565b9050919050565b60006020820190508181036000830152614766816141b3565b9050919050565b60006020820190508181036000830152614786816141d6565b9050919050565b600060208201905081810360008301526147a6816141f9565b9050919050565b600060208201905081810360008301526147c68161421c565b9050919050565b600060208201905081810360008301526147e68161423f565b9050919050565b6000602082019050818103600083015261480681614262565b9050919050565b6000602082019050818103600083015261482681614285565b9050919050565b60006020820190508181036000830152614846816142a8565b9050919050565b60006020820190508181036000830152614866816142cb565b9050919050565b60006020820190508181036000830152614886816142ee565b9050919050565b600060208201905081810360008301526148a681614311565b9050919050565b600060208201905081810360008301526148c681614334565b9050919050565b600060208201905081810360008301526148e681614357565b9050919050565b600060208201905081810360008301526149068161437a565b9050919050565b600061010082019050614923600083018461439d565b92915050565b600060208201905061493e600083018461446c565b92915050565b600060a082019050614959600083018861446c565b6149666020830187613ffe565b81810360408301526149788186613f37565b90506149876060830185613f28565b614994608083018461446c565b9695505050505050565b60006020820190506149b3600083018461447b565b92915050565b60006149c36149d4565b90506149cf8282614d05565b919050565b6000604051905090565b600067ffffffffffffffff8211156149f9576149f8614df2565b5b614a0282614e35565b9050602081019050919050565b6000819050602082019050919050565b600081519050919050565b600081519050919050565b6000602082019050919050565b600082825260208201905092915050565b600082825260208201905092915050565b6000614a6f82614bc6565b9150614a7a83614bc6565b9250827fffffffffffffffffffffffffffffffffffffffffffffffffffffffffffffffff03821115614aaf57614aae614d36565b5b828201905092915050565b6000614ac582614bc6565b9150614ad083614bc6565b925082614ae057614adf614d65565b5b828204905092915050565b6000614af682614bc6565b9150614b0183614bc6565b9250817fffffffffffffffffffffffffffffffffffffffffffffffffffffffffffffffff0483118215151615614b3a57614b39614d36565b5b828202905092915050565b6000614b5082614bc6565b9150614b5b83614bc6565b925082821015614b6e57614b6d614d36565b5b828203905092915050565b6000614b8482614b97565b9050919050565b60008115159050919050565b600073ffffffffffffffffffffffffffffffffffffffff82169050919050565b600062ffffff82169050919050565b6000819050919050565b600060ff82169050919050565b6000614be882614c6d565b9050919050565b6000614bfa82614c6d565b9050919050565b6000614c0c82614c6d565b9050919050565b6000614c1e82614c6d565b9050919050565b6000614c3082614c6d565b9050919050565b6000614c4282614c6d565b9050919050565b6000614c5482614bc6565b9050919050565b6000614c6682614bd0565b9050919050565b6000614c7882614c7f565b9050919050565b6000614c8a82614b97565b9050919050565b82818337600083830152505050565b60005b83811015614cbe578082015181840152602081019050614ca3565b83811115614ccd576000848401525b50505050565b60006002820490506001821680614ceb57607f821691505b60208210811415614cff57614cfe614d94565b5b50919050565b614d0e82614e35565b810181811067ffffffffffffffff82111715614d2d57614d2c614df2565b5b80604052505050565b7f4e487b7100000000000000000000000000000000000000000000000000000000600052601160045260246000fd5b7f4e487b7100000000000000000000000000000000000000000000000000000000600052601260045260246000fd5b7f4e487b7100000000000000000000000000000000000000000000000000000000600052602260045260246000fd5b7f4e487b7100000000000000000000000000000000000000000000000000000000600052603260045260246000fd5b7f4e487b7100000000000000000000000000000000000000000000000000000000600052604160045260246000fd5b600080fd5b600080fd5b600080fd5b600080fd5b6000601f19601f8301169050919050565b7f45524332303a207472616e7366657220746f20746865207a65726f206164647260008201527f6573730000000000000000000000000000000000000000000000000000000000602082015250565b7f5061757361626c653a206e6f7420706175736564000000000000000000000000600082015250565b7f45524332303a206275726e20616d6f756e7420657863656564732062616c616e60008201527f6365000000000000000000000000000000000000000000000000000000000000602082015250565b7f746f206973207265737472696374656400000000000000000000000000000000600082015250565b7f45524332303a20617070726f766520746f20746865207a65726f20616464726560008201527f7373000000000000000000000000000000000000000000000000000000000000602082015250565b7f6d73672e73656e64657220697320726573747269637465640000000000000000600082015250565b7f496e646578546f6b656e3a2063616c6c6572206973206e6f7420746865206d6960008201527f6e74657200000000000000000000000000000000000000000000000000000000602082015250565b7f45524332303a20696e73756666696369656e7420616c6c6f77616e6365000000600082015250565b7f45524332303a207472616e7366657220616d6f756e742065786365656473206260008201527f616c616e63650000000000000000000000000000000000000000000000000000602082015250565b7f50726f706f7361626c654f776e61626c653a206e6577206f776e65722069732060008201527f6e6f742070726f706f736564206f776e65720000000000000000000000000000602082015250565b7f496e646578546f6b656e3a2063616c6c6572206973206e6f7420746865206d6560008201527f74686f646f6c6f67697374000000000000000000000000000000000000000000602082015250565b7f5061757361626c653a2070617573656400000000000000000000000000000000600082015250565b7f50726f706f7361626c654f776e61626c653a20746869732063616c6c206d757360008201527f74206265206d61646520627920746865206e6577206f776e6572000000000000602082015250565b7f496e697469616c697a61626c653a20636f6e747261637420697320616c72656160008201527f647920696e697469616c697a6564000000000000000000000000000000000000602082015250565b7f4f776e61626c653a2063616c6c6572206973206e6f7420746865206f776e6572600082015250565b7f50726f706f7361626c654f776e61626c653a206e6577206f776e65722069732060008201527f746865207a65726f206164647265737300000000000000000000000000000000602082015250565b7f45524332303a206275726e2066726f6d20746865207a65726f2061646472657360008201527f7300000000000000000000000000000000000000000000000000000000000000602082015250565b7f45524332303a207472616e736665722066726f6d20746865207a65726f20616460008201527f6472657373000000000000000000000000000000000000000000000000000000602082015250565b7f77696c6c2065786365656420737570706c79206365696c696e67000000000000600082015250565b7f45524332303a20617070726f76652066726f6d20746865207a65726f2061646460008201527f7265737300000000000000000000000000000000000000000000000000000000602082015250565b7f496e697469616c697a61626c653a20636f6e7472616374206973206e6f74206960008201527f6e697469616c697a696e67000000000000000000000000000000000000000000602082015250565b7f66726f6d20697320726573747269637465640000000000000000000000000000600082015250565b7f45524332303a2064656372656173656420616c6c6f77616e63652062656c6f7760008201527f207a65726f000000000000000000000000000000000000000000000000000000602082015250565b7f45524332303a206d696e7420746f20746865207a65726f206164647265737300600082015250565b61546181614b79565b811461546c57600080fd5b50565b61547881614b8b565b811461548357600080fd5b50565b61548f81614bc6565b811461549a57600080fd5b5056fea2646970667358221220b15ef764c1eaed9c63eb3de60190de62c804658772e0f8639306ea1bb39fb99f64736f6c63430008070033","linkReferences":{}},"methodIdentifiers":{"allowance(address,address)":"dd62ed3e","approve(address,uint256)":"095ea7b3","approveSwapToken(address,address,uint256)":"79e34b4d","balanceOf(address)":"70a08231","burn(address,uint256)":"9dc29fac","decimals()":"313ce567","decreaseAllowance(address,uint256)":"a457c2d7","factoryV2()":"68e0d4e1","factoryV3()":"1d5f45f5","fee()":"ddca3f43","feeRatePerDayScaled()":"2fecd589","feeReceiver()":"b3f00674","feeTimestamp()":"184a732f","increaseAllowance(address,uint256)":"39509351","initialize(string,string,uint256,address,uint256,address,address,address,address,address,address)":"ed1c11cb","isMinter(address)":"aa271e1a","isRestricted(address)":"c01bc982","methodologist()":"9f8e67bf","methodology()":"9eeb1d50","mint(address,uint256)":"40c10f19","mintToFeeReceiver()":"f734e22a","name()":"06fdde03","owner()":"8da5cb5b","pause()":"8456cb59","paused()":"5c975abb","proposeOwner(address)":"b5ed298a","proposedOwner()":"d153b60c","quoter()":"c6bbd5a7","renounceOwnership()":"715018a6","setFeeRate(uint256)":"45596e2e","setFeeReceiver(address)":"efdcd974","setMethodologist(address)":"660db484","setMethodology(string)":"91fe1b92","setMinter(address,bool)":"cf456ae7","setSupplyCeiling(uint256)":"6e01a686","supplyCeiling()":"2b52684d","swapRouterV2()":"744fbc7a","swapRouterV3()":"b631e80b","swapSingle(address,address,uint256,address,uint256)":"5f370ed0","symbol()":"95d89b41","toggleRestriction(address)":"aaa4a184","tokenMarketShare(address)":"fcaae87b","tokenSwapVersion(address)":"d90bc211","totalSupply()":"18160ddd","transfer(address,uint256)":"a9059cbb","transferFrom(address,address,uint256)":"23b872dd","transferOwnership(address)":"f2fde38b","unpause()":"3f4ba83a","weth()":"3fc8cef3","wethTransfer(address,uint256)":"77524af9"},"id":35}