{"abi":[{"type":"receive","stateMutability":"payable"},{"type":"function","name":"allowance","inputs":[{"name":"owner","type":"address","internalType":"address"},{"name":"spender","type":"address","internalType":"address"}],"outputs":[{"name":"","type":"uint256","internalType":"uint256"}],"stateMutability":"view"},{"type":"function","name":"approve","inputs":[{"name":"spender","type":"address","internalType":"address"},{"name":"amount","type":"uint256","internalType":"uint256"}],"outputs":[{"name":"","type":"bool","internalType":"bool"}],"stateMutability":"nonpayable"},{"type":"function","name":"balanceOf","inputs":[{"name":"account","type":"address","internalType":"address"}],"outputs":[{"name":"","type":"uint256","internalType":"uint256"}],"stateMutability":"view"},{"type":"function","name":"burn","inputs":[{"name":"from","type":"address","internalType":"address"},{"name":"amount","type":"uint256","internalType":"uint256"}],"outputs":[],"stateMutability":"nonpayable"},{"type":"function","name":"decimals","inputs":[],"outputs":[{"name":"","type":"uint8","internalType":"uint8"}],"stateMutability":"view"},{"type":"function","name":"decreaseAllowance","inputs":[{"name":"spender","type":"address","internalType":"address"},{"name":"subtractedValue","type":"uint256","internalType":"uint256"}],"outputs":[{"name":"","type":"bool","internalType":"bool"}],"stateMutability":"nonpayable"},{"type":"function","name":"fee","inputs":[],"outputs":[{"name":"","type":"uint256","internalType":"uint256"}],"stateMutability":"view"},{"type":"function","name":"feeRatePerDayScaled","inputs":[],"outputs":[{"name":"","type":"uint256","internalType":"uint256"}],"stateMutability":"view"},{"type":"function","name":"feeReceiver","inputs":[],"outputs":[{"name":"","type":"address","internalType":"address"}],"stateMutability":"view"},{"type":"function","name":"feeTimestamp","inputs":[],"outputs":[{"name":"","type":"uint256","internalType":"uint256"}],"stateMutability":"view"},{"type":"function","name":"increaseAllowance","inputs":[{"name":"spender","type":"address","internalType":"address"},{"name":"addedValue","type":"uint256","internalType":"uint256"}],"outputs":[{"name":"","type":"bool","internalType":"bool"}],"stateMutability":"nonpayable"},{"type":"function","name":"initialize","inputs":[{"name":"tokenName","type":"string","internalType":"string"},{"name":"tokenSymbol","type":"string","internalType":"string"},{"name":"_feeRatePerDayScaled","type":"uint256","internalType":"uint256"},{"name":"_feeReceiver","type":"address","internalType":"address"},{"name":"_supplyCeiling","type":"uint256","internalType":"uint256"}],"outputs":[],"stateMutability":"nonpayable"},{"type":"function","name":"isMinter","inputs":[{"name":"","type":"address","internalType":"address"}],"outputs":[{"name":"","type":"bool","internalType":"bool"}],"stateMutability":"view"},{"type":"function","name":"isRestricted","inputs":[{"name":"","type":"address","internalType":"address"}],"outputs":[{"name":"","type":"bool","internalType":"bool"}],"stateMutability":"view"},{"type":"function","name":"methodologist","inputs":[],"outputs":[{"name":"","type":"address","internalType":"address"}],"stateMutability":"view"},{"type":"function","name":"methodology","inputs":[],"outputs":[{"name":"","type":"string","internalType":"string"}],"stateMutability":"view"},{"type":"function","name":"mint","inputs":[{"name":"to","type":"address","internalType":"address"},{"name":"amount","type":"uint256","internalType":"uint256"}],"outputs":[],"stateMutability":"nonpayable"},{"type":"function","name":"mintToFeeReceiver","inputs":[],"outputs":[],"stateMutability":"nonpayable"},{"type":"function","name":"name","inputs":[],"outputs":[{"name":"","type":"string","internalType":"string"}],"stateMutability":"view"},{"type":"function","name":"owner","inputs":[],"outputs":[{"name":"","type":"address","internalType":"address"}],"stateMutability":"view"},{"type":"function","name":"pause","inputs":[],"outputs":[],"stateMutability":"nonpayable"},{"type":"function","name":"paused","inputs":[],"outputs":[{"name":"","type":"bool","internalType":"bool"}],"stateMutability":"view"},{"type":"function","name":"proposeOwner","inputs":[{"name":"_proposedOwner","type":"address","internalType":"address"}],"outputs":[],"stateMutability":"nonpayable"},{"type":"function","name":"proposedOwner","inputs":[],"outputs":[{"name":"","type":"address","internalType":"address"}],"stateMutability":"view"},{"type":"function","name":"renounceOwnership","inputs":[],"outputs":[],"stateMutability":"nonpayable"},{"type":"function","name":"setFeeRate","inputs":[{"name":"_feeRatePerDayScaled","type":"uint256","internalType":"uint256"}],"outputs":[],"stateMutability":"nonpayable"},{"type":"function","name":"setFeeReceiver","inputs":[{"name":"_feeReceiver","type":"address","internalType":"address"}],"outputs":[],"stateMutability":"nonpayable"},{"type":"function","name":"setMethodologist","inputs":[{"name":"_methodologist","type":"address","internalType":"address"}],"outputs":[],"stateMutability":"nonpayable"},{"type":"function","name":"setMethodology","inputs":[{"name":"_methodology","type":"string","internalType":"string"}],"outputs":[],"stateMutability":"nonpayable"},{"type":"function","name":"setMinter","inputs":[{"name":"_minter","type":"address","internalType":"address"},{"name":"_enabled","type":"bool","internalType":"bool"}],"outputs":[],"stateMutability":"nonpayable"},{"type":"function","name":"setSupplyCeiling","inputs":[{"name":"_supplyCeiling","type":"uint256","internalType":"uint256"}],"outputs":[],"stateMutability":"nonpayable"},{"type":"function","name":"supplyCeiling","inputs":[],"outputs":[{"name":"","type":"uint256","internalType":"uint256"}],"stateMutability":"view"},{"type":"function","name":"symbol","inputs":[],"outputs":[{"name":"","type":"string","internalType":"string"}],"stateMutability":"view"},{"type":"function","name":"toggleRestriction","inputs":[{"name":"who","type":"address","internalType":"address"}],"outputs":[],"stateMutability":"nonpayable"},{"type":"function","name":"totalSupply","inputs":[],"outputs":[{"name":"","type":"uint256","internalType":"uint256"}],"stateMutability":"view"},{"type":"function","name":"transfer","inputs":[{"name":"to","type":"address","internalType":"address"},{"name":"amount","type":"uint256","internalType":"uint256"}],"outputs":[{"name":"","type":"bool","internalType":"bool"}],"stateMutability":"nonpayable"},{"type":"function","name":"transferFrom","inputs":[{"name":"from","type":"address","internalType":"address"},{"name":"to","type":"address","internalType":"address"},{"name":"amount","type":"uint256","internalType":"uint256"}],"outputs":[{"name":"","type":"bool","internalType":"bool"}],"stateMutability":"nonpayable"},{"type":"function","name":"transferOwnership","inputs":[{"name":"newOwner","type":"address","internalType":"address"}],"outputs":[],"stateMutability":"nonpayable"},{"type":"function","name":"unpause","inputs":[],"outputs":[],"stateMutability":"nonpayable"},{"type":"function","name":"withdrawEther","inputs":[],"outputs":[],"stateMutability":"nonpayable"},{"type":"event","name":"Approval","inputs":[{"name":"owner","type":"address","indexed":true,"internalType":"address"},{"name":"spender","type":"address","indexed":true,"internalType":"address"},{"name":"value","type":"uint256","indexed":false,"internalType":"uint256"}],"anonymous":false},{"type":"event","name":"FeeRateSet","inputs":[{"name":"feeRatePerDayScaled","type":"uint256","indexed":true,"internalType":"uint256"}],"anonymous":false},{"type":"event","name":"FeeReceiverSet","inputs":[{"name":"feeReceiver","type":"address","indexed":true,"internalType":"address"}],"anonymous":false},{"type":"event","name":"Initialized","inputs":[{"name":"version","type":"uint8","indexed":false,"internalType":"uint8"}],"anonymous":false},{"type":"event","name":"MethodologistSet","inputs":[{"name":"methodologist","type":"address","indexed":true,"internalType":"address"}],"anonymous":false},{"type":"event","name":"MethodologySet","inputs":[{"name":"methodology","type":"string","indexed":false,"internalType":"string"}],"anonymous":false},{"type":"event","name":"MintFeeToReceiver","inputs":[{"name":"feeReceiver","type":"address","indexed":false,"internalType":"address"},{"name":"timestamp","type":"uint256","indexed":false,"internalType":"uint256"},{"name":"totalSupply","type":"uint256","indexed":false,"internalType":"uint256"},{"name":"amount","type":"uint256","indexed":false,"internalType":"uint256"}],"anonymous":false},{"type":"event","name":"MinterRemoved","inputs":[{"name":"minter","type":"address","indexed":true,"internalType":"address"}],"anonymous":false},{"type":"event","name":"MinterSet","inputs":[{"name":"minter","type":"address","indexed":true,"internalType":"address"}],"anonymous":false},{"type":"event","name":"OwnershipTransferred","inputs":[{"name":"previousOwner","type":"address","indexed":true,"internalType":"address"},{"name":"newOwner","type":"address","indexed":true,"internalType":"address"}],"anonymous":false},{"type":"event","name":"Paused","inputs":[{"name":"account","type":"address","indexed":false,"internalType":"address"}],"anonymous":false},{"type":"event","name":"SupplyCeilingSet","inputs":[{"name":"supplyCeiling","type":"uint256","indexed":false,"internalType":"uint256"}],"anonymous":false},{"type":"event","name":"ToggledRestricted","inputs":[{"name":"account","type":"address","indexed":true,"internalType":"address"},{"name":"isRestricted","type":"bool","indexed":false,"internalType":"bool"}],"anonymous":false},{"type":"event","name":"Transfer","inputs":[{"name":"from","type":"address","indexed":true,"internalType":"address"},{"name":"to","type":"address","indexed":true,"internalType":"address"},{"name":"value","type":"uint256","indexed":false,"internalType":"uint256"}],"anonymous":false},{"type":"event","name":"Unpaused","inputs":[{"name":"account","type":"address","indexed":false,"internalType":"address"}],"anonymous":false}],"bytecode":{"object":"0x6080604052348015600f57600080fd5b506126d38061001f6000396000f3fe60806040526004361061023f5760003560e01c806391fe1b921161012e578063b5ed298a116100ab578063ddca3f431161006f578063ddca3f43146106a7578063efdcd974146106bd578063f2fde38b146106dd578063f734e22a146106fd578063fede02761461071257600080fd5b8063b5ed298a146105f6578063c01bc98214610616578063cf456ae714610647578063d153b60c14610667578063dd62ed3e1461068757600080fd5b8063a457c2d7116100f2578063a457c2d714610545578063a9059cbb14610565578063aa271e1a14610585578063aaa4a184146105b6578063b3f00674146105d657600080fd5b806391fe1b92146104ba57806395d89b41146104da5780639dc29fac146104ef5780639eeb1d501461050f5780639f8e67bf1461052457600080fd5b806340c10f19116101bc57806370a082311161018057806370a0823114610413578063715018a6146104495780637362377b1461045e5780638456cb59146104735780638da5cb5b1461048857600080fd5b806340c10f191461037b57806345596e2e1461039b5780635c975abb146103bb578063660db484146103d35780636e01a686146103f357600080fd5b80632b52684d116102035780632b52684d146102fb5780632fecd58914610312578063313ce5671461032857806339509351146103445780633f4ba83a1461036457600080fd5b806306fdde031461024b578063095ea7b31461027657806318160ddd146102a6578063184a732f146102c557806323b872dd146102db57600080fd5b3661024657005b600080fd5b34801561025757600080fd5b50610260610732565b60405161026d91906120b9565b60405180910390f35b34801561028257600080fd5b50610296610291366004612123565b6107c4565b604051901515815260200161026d565b3480156102b257600080fd5b506035545b60405190815260200161026d565b3480156102d157600080fd5b506102b760fe5481565b3480156102e757600080fd5b506102966102f636600461214d565b6107de565b34801561030757600080fd5b506102b76101035481565b34801561031e57600080fd5b506102b760fd5481565b34801561033457600080fd5b506040516012815260200161026d565b34801561035057600080fd5b5061029661035f366004612123565b6109bf565b34801561037057600080fd5b506103796109e1565b005b34801561038757600080fd5b50610379610396366004612123565b6109f3565b3480156103a757600080fd5b506103796103b636600461218a565b610b12565b3480156103c757600080fd5b5060ca5460ff16610296565b3480156103df57600080fd5b506103796103ee3660046121a3565b610b55565b3480156103ff57600080fd5b5061037961040e36600461218a565b610bbb565b34801561041f57600080fd5b506102b761042e3660046121a3565b6001600160a01b031660009081526033602052604090205490565b34801561045557600080fd5b50610379610c00565b34801561046a57600080fd5b50610379610c12565b34801561047f57600080fd5b50610379610d0b565b34801561049457600080fd5b506065546001600160a01b03165b6040516001600160a01b03909116815260200161026d565b3480156104c657600080fd5b506103796104d536600461226a565b610d1b565b3480156104e657600080fd5b50610260610e18565b3480156104fb57600080fd5b5061037961050a366004612123565b610e27565b34801561051b57600080fd5b50610260610f01565b34801561053057600080fd5b50610100546104a2906001600160a01b031681565b34801561055157600080fd5b50610296610560366004612123565b610f90565b34801561057157600080fd5b50610296610580366004612123565b611016565b34801561059157600080fd5b506102966105a03660046121a3565b6101016020526000908152604090205460ff1681565b3480156105c257600080fd5b506103796105d13660046121a3565b61113a565b3480156105e257600080fd5b5060ff546104a2906001600160a01b031681565b34801561060257600080fd5b506103796106113660046121a3565b6111ae565b34801561062257600080fd5b506102966106313660046121a3565b6101046020526000908152604090205460ff1681565b34801561065357600080fd5b506103796106623660046122a7565b6111fe565b34801561067357600080fd5b506097546104a2906001600160a01b031681565b34801561069357600080fd5b506102b76106a23660046122e3565b6112b7565b3480156106b357600080fd5b506102b760fc5481565b3480156106c957600080fd5b506103796106d83660046121a3565b6112e2565b3480156106e957600080fd5b506103796106f83660046121a3565b611347565b34801561070957600080fd5b5061037961146f565b34801561071e57600080fd5b5061037961072d366004612316565b61147f565b606060368054610741906123a1565b80601f016020809104026020016040519081016040528092919081815260200182805461076d906123a1565b80156107ba5780601f1061078f576101008083540402835291602001916107ba565b820191906000526020600020905b81548152906001019060200180831161079d57829003601f168201915b5050505050905090565b6000336107d281858561172c565b60019150505b92915050565b60006107e8611851565b6001600160a01b03841661083a5760405162461bcd60e51b8152602060048201526014602482015273496e76616c69642066726f6d206164647265737360601b60448201526064015b60405180910390fd5b6001600160a01b0383166108855760405162461bcd60e51b8152602060048201526012602482015271496e76616c696420746f206164647265737360701b6044820152606401610831565b600082116108d55760405162461bcd60e51b815260206004820181905260248201527f416d6f756e74206d7573742062652067726561746572207468616e207a65726f6044820152606401610831565b336000908152610104602052604090205460ff16156109065760405162461bcd60e51b8152600401610831906123db565b6001600160a01b0383166000908152610104602052604090205460ff16156109405760405162461bcd60e51b815260040161083190612412565b6001600160a01b0384166000908152610104602052604090205460ff161561099f5760405162461bcd60e51b8152602060048201526012602482015271199c9bdb481a5cc81c995cdd1c9a58dd195960721b6044820152606401610831565b6109aa843384611897565b6109b5848484611911565b5060019392505050565b6000336107d28185856109d283836112b7565b6109dc9190612452565b61172c565b6109e9611abc565b6109f1611b16565b565b6109fb611851565b336000908152610101602052604090205460ff16610a2b5760405162461bcd60e51b815260040161083190612465565b6101035481610a3960355490565b610a439190612452565b1115610a915760405162461bcd60e51b815260206004820152601a60248201527f77696c6c2065786365656420737570706c79206365696c696e670000000000006044820152606401610831565b6001600160a01b0382166000908152610104602052604090205460ff1615610acb5760405162461bcd60e51b815260040161083190612412565b336000908152610104602052604090205460ff1615610afc5760405162461bcd60e51b8152600401610831906123db565b610b04611b68565b610b0e8282611c96565b5050565b610b1a611abc565b610b22611b68565b60fd81905560405181907f45398c451b1a31b88dbaed4e7b89a632f43cc4b50149d437db03a5300afe40d190600090a250565b610b5d611abc565b6001600160a01b038116610b7057600080fd5b61010080546001600160a01b0319166001600160a01b0383169081179091556040517f164d8ef0d742b45087644f55c61abeb84557df70d06730591e451f0981e278ca90600090a250565b610bc3611abc565b6101038190556040518181527fe35be406f69e9d11d6ac8e5b54bbc8b6c4baf2fa2359f84a56baa5ea5d07dc8f906020015b60405180910390a150565b610c08611abc565b6109f16000611d57565b610c1a611abc565b4780610c5f5760405162461bcd60e51b81526020600482015260146024820152734e6f20457468657220746f20776974686472617760601b6044820152606401610831565b6000610c736065546001600160a01b031690565b6001600160a01b03168260405160006040518083038185875af1925050503d8060008114610cbd576040519150601f19603f3d011682016040523d82523d6000602084013e610cc2565b606091505b5050905080610b0e5760405162461bcd60e51b8152602060048201526015602482015274115d1a195c881d1c985b9cd9995c8819985a5b1959605a1b6044820152606401610831565b610d13611abc565b6109f1611da9565b610100546001600160a01b03163314610d8a5760405162461bcd60e51b815260206004820152602b60248201527f496e646578546f6b656e3a2063616c6c6572206973206e6f7420746865206d6560448201526a1d1a1bd91bdb1bd9da5cdd60aa1b6064820152608401610831565b6000815111610ddb5760405162461bcd60e51b815260206004820152601b60248201527f4d6574686f646f6c6f67792063616e6e6f7420626520656d70747900000000006044820152606401610831565b610102610de882826124f7565b507fe6be68107100e39cb16d675c1086a4d5479fbd01108d721dabbccaa2249b995f81604051610bf591906120b9565b606060378054610741906123a1565b610e2f611851565b336000908152610101602052604090205460ff16610e5f5760405162461bcd60e51b815260040161083190612465565b6001600160a01b0382166000908152610104602052604090205460ff1615610ebe5760405162461bcd60e51b8152602060048201526012602482015271199c9bdb481a5cc81c995cdd1c9a58dd195960721b6044820152606401610831565b336000908152610104602052604090205460ff1615610eef5760405162461bcd60e51b8152600401610831906123db565b610ef7611b68565b610b0e8282611de6565b6101028054610f0f906123a1565b80601f0160208091040260200160405190810160405280929190818152602001828054610f3b906123a1565b8015610f885780601f10610f5d57610100808354040283529160200191610f88565b820191906000526020600020905b815481529060010190602001808311610f6b57829003601f168201915b505050505081565b60003381610f9e82866112b7565b905083811015610ffe5760405162461bcd60e51b815260206004820152602560248201527f45524332303a2064656372656173656420616c6c6f77616e63652062656c6f77604482015264207a65726f60d81b6064820152608401610831565b61100b828686840361172c565b506001949350505050565b6000611020611851565b6001600160a01b03831661106b5760405162461bcd60e51b8152602060048201526012602482015271496e76616c696420746f206164647265737360701b6044820152606401610831565b600082116110bb5760405162461bcd60e51b815260206004820181905260248201527f416d6f756e74206d7573742062652067726561746572207468616e207a65726f6044820152606401610831565b336000908152610104602052604090205460ff16156110ec5760405162461bcd60e51b8152600401610831906123db565b6001600160a01b0383166000908152610104602052604090205460ff16156111265760405162461bcd60e51b815260040161083190612412565b611131338484611911565b50600192915050565b611142611abc565b6001600160a01b0381166000818152610104602052604090819020805460ff19811660ff9182161590811790925591517f14ddf324cc5d8b14a3c3b12c84b0a7d578d72c8d60655c06d6a457e71431d5ee926111a392161515815260200190565b60405180910390a250565b6111b6611abc565b6001600160a01b0381166111dc5760405162461bcd60e51b8152600401610831906125b6565b609780546001600160a01b0319166001600160a01b0392909216919091179055565b611206611abc565b6001600160a01b03821661121957600080fd5b6001600160a01b038216600090815261010160205260409020805460ff1916821580159190911790915561127f576040516001600160a01b038316907f726b590ef91a8c76ad05bbe91a57ef84605276528f49cd47d787f558a4e755b690600090a25050565b6040516001600160a01b038316907fe94479a9f7e1952cc78f2d6baab678adc1b772d936c6583def489e524cb6669290600090a25050565b6001600160a01b03918216600090815260346020908152604080832093909416825291909152205490565b6112ea611abc565b6001600160a01b0381166112fd57600080fd5b60ff80546001600160a01b0319166001600160a01b0383169081179091556040517fbdf37c276f641820b141429d245add2552b4118c0866e5a78638e3de5ef18d9d90600090a250565b6001600160a01b03811661136d5760405162461bcd60e51b8152600401610831906125b6565b6097546001600160a01b038281169116146113e55760405162461bcd60e51b815260206004820152603260248201527f50726f706f7361626c654f776e61626c653a206e6577206f776e6572206973206044820152713737ba10383937b837b9b2b21037bbb732b960711b6064820152608401610831565b6001600160a01b03811633146114635760405162461bcd60e51b815260206004820152603a60248201527f50726f706f7361626c654f776e61626c653a20746869732063616c6c206d757360448201527f74206265206d61646520627920746865206e6577206f776e65720000000000006064820152608401610831565b61146c81611d57565b50565b611477611abc565b6109f1611b68565b600054610100900460ff161580801561149f5750600054600160ff909116105b806114b95750303b1580156114b9575060005460ff166001145b61151c5760405162461bcd60e51b815260206004820152602e60248201527f496e697469616c697a61626c653a20636f6e747261637420697320616c72656160448201526d191e481a5b9a5d1a585b1a5e995960921b6064820152608401610831565b6000805460ff19166001179055801561153f576000805461ff0019166101001790555b60008651116115905760405162461bcd60e51b815260206004820152601a60248201527f546f6b656e206e616d652063616e6e6f7420626520656d7074790000000000006044820152606401610831565b60008551116115e15760405162461bcd60e51b815260206004820152601c60248201527f546f6b656e2073796d626f6c2063616e6e6f7420626520656d707479000000006044820152606401610831565b6000841161163c5760405162461bcd60e51b815260206004820152602260248201527f4665652072617465206d7573742062652067726561746572207468616e207a65604482015261726f60f01b6064820152608401610831565b6001600160a01b0383166116925760405162461bcd60e51b815260206004820152601c60248201527f496e76616c6964206665652072656365697665722061646472657373000000006044820152606401610831565b61169a611f17565b6116a2611f46565b6116ac8686611f75565b6116b4611fa6565b60fd84905560ff80546001600160a01b0319166001600160a01b0385161790556101038290554260fe558015611724576000805461ff0019169055604051600181527f7f26b83ff96e1f2b6a682f133852f6798a09c465da95921460cefb38474024989060200160405180910390a15b505050505050565b6001600160a01b03831661178e5760405162461bcd60e51b8152602060048201526024808201527f45524332303a20617070726f76652066726f6d20746865207a65726f206164646044820152637265737360e01b6064820152608401610831565b6001600160a01b0382166117ef5760405162461bcd60e51b815260206004820152602260248201527f45524332303a20617070726f766520746f20746865207a65726f206164647265604482015261737360f01b6064820152608401610831565b6001600160a01b0383811660008181526034602090815260408083209487168084529482529182902085905590518481527f8c5be1e5ebec7d5bd14f71427d1e84f3dd0314c0f7b2291e5b200ac8c7c3b92591015b60405180910390a3505050565b60ca5460ff16156109f15760405162461bcd60e51b815260206004820152601060248201526f14185d5cd8589b194e881c185d5cd95960821b6044820152606401610831565b60006118a384846112b7565b9050600019811461190b57818110156118fe5760405162461bcd60e51b815260206004820152601d60248201527f45524332303a20696e73756666696369656e7420616c6c6f77616e63650000006044820152606401610831565b61190b848484840361172c565b50505050565b6001600160a01b0383166119755760405162461bcd60e51b815260206004820152602560248201527f45524332303a207472616e736665722066726f6d20746865207a65726f206164604482015264647265737360d81b6064820152608401610831565b6001600160a01b0382166119d75760405162461bcd60e51b815260206004820152602360248201527f45524332303a207472616e7366657220746f20746865207a65726f206164647260448201526265737360e81b6064820152608401610831565b6001600160a01b03831660009081526033602052604090205481811015611a4f5760405162461bcd60e51b815260206004820152602660248201527f45524332303a207472616e7366657220616d6f756e7420657863656564732062604482015265616c616e636560d01b6064820152608401610831565b6001600160a01b0380851660008181526033602052604080822086860390559286168082529083902080548601905591517fddf252ad1be2c89b69c2b068fc378daa952ba7f163c4a11628f55a4df523b3ef90611aaf9086815260200190565b60405180910390a361190b565b6065546001600160a01b031633146109f15760405162461bcd60e51b815260206004820181905260248201527f4f776e61626c653a2063616c6c6572206973206e6f7420746865206f776e65726044820152606401610831565b611b1e611fcd565b60ca805460ff191690557f5db9ee0a495bf2e6ff9c91a7834c1ba4fdd244a5e8aa4e537bd38aeae4b073aa335b6040516001600160a01b03909116815260200160405180910390a1565b60006201518060fe5442611b7c9190612606565b611b869190612619565b90506001811061146c576000611b9b60355490565b60fd54909150819060005b84811015611be05768056bc75e2d63100000611bc2838561263b565b611bcc9190612619565b611bd69084612452565b9250600101611ba6565b506000611bed8484612606565b9050611bfc856201518061263b565b60fe6000828254611c0d9190612452565b909155505060ff54611c28906001600160a01b031682611c96565b60ff547f07982395c678b2ffc23fcf59aaec243ca79418c285af0d0e10b4e65bc4189f4c906001600160a01b031642611c6060355490565b604080516001600160a01b0390941684526020840192909252908201526060810183905260800160405180910390a15050505050565b6001600160a01b038216611cec5760405162461bcd60e51b815260206004820152601f60248201527f45524332303a206d696e7420746f20746865207a65726f2061646472657373006044820152606401610831565b8060356000828254611cfe9190612452565b90915550506001600160a01b0382166000818152603360209081526040808320805486019055518481527fddf252ad1be2c89b69c2b068fc378daa952ba7f163c4a11628f55a4df523b3ef910160405180910390a35050565b606580546001600160a01b038381166001600160a01b0319831681179093556040519116919082907f8be0079c531659141344cd1fd0a4f28419497f9722a3daafe3b4186f6b6457e090600090a35050565b611db1611851565b60ca805460ff191660011790557f62e78cea01bee320cd4e420270b5ea74000d11b0c9f74754ebdbfc544b05a258611b4b3390565b6001600160a01b038216611e465760405162461bcd60e51b815260206004820152602160248201527f45524332303a206275726e2066726f6d20746865207a65726f206164647265736044820152607360f81b6064820152608401610831565b6001600160a01b03821660009081526033602052604090205481811015611eba5760405162461bcd60e51b815260206004820152602260248201527f45524332303a206275726e20616d6f756e7420657863656564732062616c616e604482015261636560f01b6064820152608401610831565b6001600160a01b03831660008181526033602090815260408083208686039055603580548790039055518581529192917fddf252ad1be2c89b69c2b068fc378daa952ba7f163c4a11628f55a4df523b3ef9101611844565b505050565b600054610100900460ff16611f3e5760405162461bcd60e51b815260040161083190612652565b6109f1612016565b600054610100900460ff16611f6d5760405162461bcd60e51b815260040161083190612652565b6109f1612046565b600054610100900460ff16611f9c5760405162461bcd60e51b815260040161083190612652565b610b0e8282612079565b600054610100900460ff166109f15760405162461bcd60e51b815260040161083190612652565b60ca5460ff166109f15760405162461bcd60e51b815260206004820152601460248201527314185d5cd8589b194e881b9bdd081c185d5cd95960621b6044820152606401610831565b600054610100900460ff1661203d5760405162461bcd60e51b815260040161083190612652565b6109f133611d57565b600054610100900460ff1661206d5760405162461bcd60e51b815260040161083190612652565b60ca805460ff19169055565b600054610100900460ff166120a05760405162461bcd60e51b815260040161083190612652565b60366120ac83826124f7565b506037611f1282826124f7565b602081526000825180602084015260005b818110156120e757602081860181015160408684010152016120ca565b506000604082850101526040601f19601f83011684010191505092915050565b80356001600160a01b038116811461211e57600080fd5b919050565b6000806040838503121561213657600080fd5b61213f83612107565b946020939093013593505050565b60008060006060848603121561216257600080fd5b61216b84612107565b925061217960208501612107565b929592945050506040919091013590565b60006020828403121561219c57600080fd5b5035919050565b6000602082840312156121b557600080fd5b6121be82612107565b9392505050565b634e487b7160e01b600052604160045260246000fd5b600082601f8301126121ec57600080fd5b813567ffffffffffffffff811115612206576122066121c5565b604051601f8201601f19908116603f0116810167ffffffffffffffff81118282101715612235576122356121c5565b60405281815283820160200185101561224d57600080fd5b816020850160208301376000918101602001919091529392505050565b60006020828403121561227c57600080fd5b813567ffffffffffffffff81111561229357600080fd5b61229f848285016121db565b949350505050565b600080604083850312156122ba57600080fd5b6122c383612107565b9150602083013580151581146122d857600080fd5b809150509250929050565b600080604083850312156122f657600080fd5b6122ff83612107565b915061230d60208401612107565b90509250929050565b600080600080600060a0868803121561232e57600080fd5b853567ffffffffffffffff81111561234557600080fd5b612351888289016121db565b955050602086013567ffffffffffffffff81111561236e57600080fd5b61237a888289016121db565b9450506040860135925061239060608701612107565b949793965091946080013592915050565b600181811c908216806123b557607f821691505b6020821081036123d557634e487b7160e01b600052602260045260246000fd5b50919050565b60208082526018908201527f6d73672e73656e64657220697320726573747269637465640000000000000000604082015260600190565b60208082526010908201526f1d1bc81a5cc81c995cdd1c9a58dd195960821b604082015260600190565b634e487b7160e01b600052601160045260246000fd5b808201808211156107d8576107d861243c565b60208082526024908201527f496e646578546f6b656e3a2063616c6c6572206973206e6f7420746865206d69604082015263373a32b960e11b606082015260800190565b601f821115611f1257806000526020600020601f840160051c810160208510156124d05750805b601f840160051c820191505b818110156124f057600081556001016124dc565b5050505050565b815167ffffffffffffffff811115612511576125116121c5565b6125258161251f84546123a1565b846124a9565b6020601f82116001811461255957600083156125415750848201515b600019600385901b1c1916600184901b1784556124f0565b600084815260208120601f198516915b828110156125895787850151825560209485019460019092019101612569565b50848210156125a75786840151600019600387901b60f8161c191681555b50505050600190811b01905550565b60208082526030908201527f50726f706f7361626c654f776e61626c653a206e6577206f776e65722069732060408201526f746865207a65726f206164647265737360801b606082015260800190565b818103818111156107d8576107d861243c565b60008261263657634e487b7160e01b600052601260045260246000fd5b500490565b80820281158282048414176107d8576107d861243c565b6020808252602b908201527f496e697469616c697a61626c653a20636f6e7472616374206973206e6f74206960408201526a6e697469616c697a696e6760a81b60608201526080019056fea26469706673582212204e35f250b8e3139a15b68981df2f89edef6fff95cf2ade8d5f4c27b7e17d554564736f6c634300081a0033","linkReferences":{}},"methodIdentifiers":{"allowance(address,address)":"dd62ed3e","approve(address,uint256)":"095ea7b3","balanceOf(address)":"70a08231","burn(address,uint256)":"9dc29fac","decimals()":"313ce567","decreaseAllowance(address,uint256)":"a457c2d7","fee()":"ddca3f43","feeRatePerDayScaled()":"2fecd589","feeReceiver()":"b3f00674","feeTimestamp()":"184a732f","increaseAllowance(address,uint256)":"39509351","initialize(string,string,uint256,address,uint256)":"fede0276","isMinter(address)":"aa271e1a","isRestricted(address)":"c01bc982","methodologist()":"9f8e67bf","methodology()":"9eeb1d50","mint(address,uint256)":"40c10f19","mintToFeeReceiver()":"f734e22a","name()":"06fdde03","owner()":"8da5cb5b","pause()":"8456cb59","paused()":"5c975abb","proposeOwner(address)":"b5ed298a","proposedOwner()":"d153b60c","renounceOwnership()":"715018a6","setFeeRate(uint256)":"45596e2e","setFeeReceiver(address)":"efdcd974","setMethodologist(address)":"660db484","setMethodology(string)":"91fe1b92","setMinter(address,bool)":"cf456ae7","setSupplyCeiling(uint256)":"6e01a686","supplyCeiling()":"2b52684d","symbol()":"95d89b41","toggleRestriction(address)":"aaa4a184","totalSupply()":"18160ddd","transfer(address,uint256)":"a9059cbb","transferFrom(address,address,uint256)":"23b872dd","transferOwnership(address)":"f2fde38b","unpause()":"3f4ba83a","withdrawEther()":"7362377b"},"id":41}