{"abi":[{"type":"receive","stateMutability":"payable"},{"type":"function","name":"allowance","inputs":[{"name":"owner","type":"address","internalType":"address"},{"name":"spender","type":"address","internalType":"address"}],"outputs":[{"name":"","type":"uint256","internalType":"uint256"}],"stateMutability":"view"},{"type":"function","name":"approve","inputs":[{"name":"spender","type":"address","internalType":"address"},{"name":"amount","type":"uint256","internalType":"uint256"}],"outputs":[{"name":"","type":"bool","internalType":"bool"}],"stateMutability":"nonpayable"},{"type":"function","name":"balanceOf","inputs":[{"name":"account","type":"address","internalType":"address"}],"outputs":[{"name":"","type":"uint256","internalType":"uint256"}],"stateMutability":"view"},{"type":"function","name":"burn","inputs":[{"name":"from","type":"address","internalType":"address"},{"name":"amount","type":"uint256","internalType":"uint256"}],"outputs":[],"stateMutability":"nonpayable"},{"type":"function","name":"decimals","inputs":[],"outputs":[{"name":"","type":"uint8","internalType":"uint8"}],"stateMutability":"view"},{"type":"function","name":"decreaseAllowance","inputs":[{"name":"spender","type":"address","internalType":"address"},{"name":"subtractedValue","type":"uint256","internalType":"uint256"}],"outputs":[{"name":"","type":"bool","internalType":"bool"}],"stateMutability":"nonpayable"},{"type":"function","name":"fee","inputs":[],"outputs":[{"name":"","type":"uint256","internalType":"uint256"}],"stateMutability":"view"},{"type":"function","name":"feeRatePerDayScaled","inputs":[],"outputs":[{"name":"","type":"uint256","internalType":"uint256"}],"stateMutability":"view"},{"type":"function","name":"feeReceiver","inputs":[],"outputs":[{"name":"","type":"address","internalType":"address"}],"stateMutability":"view"},{"type":"function","name":"feeTimestamp","inputs":[],"outputs":[{"name":"","type":"uint256","internalType":"uint256"}],"stateMutability":"view"},{"type":"function","name":"increaseAllowance","inputs":[{"name":"spender","type":"address","internalType":"address"},{"name":"addedValue","type":"uint256","internalType":"uint256"}],"outputs":[{"name":"","type":"bool","internalType":"bool"}],"stateMutability":"nonpayable"},{"type":"function","name":"initialize","inputs":[{"name":"tokenName","type":"string","internalType":"string"},{"name":"tokenSymbol","type":"string","internalType":"string"},{"name":"_feeRatePerDayScaled","type":"uint256","internalType":"uint256"},{"name":"_feeReceiver","type":"address","internalType":"address"},{"name":"_supplyCeiling","type":"uint256","internalType":"uint256"}],"outputs":[],"stateMutability":"nonpayable"},{"type":"function","name":"isMinter","inputs":[{"name":"","type":"address","internalType":"address"}],"outputs":[{"name":"","type":"bool","internalType":"bool"}],"stateMutability":"view"},{"type":"function","name":"isRestricted","inputs":[{"name":"","type":"address","internalType":"address"}],"outputs":[{"name":"","type":"bool","internalType":"bool"}],"stateMutability":"view"},{"type":"function","name":"methodologist","inputs":[],"outputs":[{"name":"","type":"address","internalType":"address"}],"stateMutability":"view"},{"type":"function","name":"methodology","inputs":[],"outputs":[{"name":"","type":"string","internalType":"string"}],"stateMutability":"view"},{"type":"function","name":"mint","inputs":[{"name":"to","type":"address","internalType":"address"},{"name":"amount","type":"uint256","internalType":"uint256"}],"outputs":[],"stateMutability":"nonpayable"},{"type":"function","name":"mintToFeeReceiver","inputs":[],"outputs":[],"stateMutability":"nonpayable"},{"type":"function","name":"name","inputs":[],"outputs":[{"name":"","type":"string","internalType":"string"}],"stateMutability":"view"},{"type":"function","name":"owner","inputs":[],"outputs":[{"name":"","type":"address","internalType":"address"}],"stateMutability":"view"},{"type":"function","name":"pause","inputs":[],"outputs":[],"stateMutability":"nonpayable"},{"type":"function","name":"paused","inputs":[],"outputs":[{"name":"","type":"bool","internalType":"bool"}],"stateMutability":"view"},{"type":"function","name":"proposeOwner","inputs":[{"name":"_proposedOwner","type":"address","internalType":"address"}],"outputs":[],"stateMutability":"nonpayable"},{"type":"function","name":"proposedOwner","inputs":[],"outputs":[{"name":"","type":"address","internalType":"address"}],"stateMutability":"view"},{"type":"function","name":"renounceOwnership","inputs":[],"outputs":[],"stateMutability":"nonpayable"},{"type":"function","name":"setFeeRate","inputs":[{"name":"_feeRatePerDayScaled","type":"uint256","internalType":"uint256"}],"outputs":[],"stateMutability":"nonpayable"},{"type":"function","name":"setFeeReceiver","inputs":[{"name":"_feeReceiver","type":"address","internalType":"address"}],"outputs":[],"stateMutability":"nonpayable"},{"type":"function","name":"setMethodologist","inputs":[{"name":"_methodologist","type":"address","internalType":"address"}],"outputs":[],"stateMutability":"nonpayable"},{"type":"function","name":"setMethodology","inputs":[{"name":"_methodology","type":"string","internalType":"string"}],"outputs":[],"stateMutability":"nonpayable"},{"type":"function","name":"setMinter","inputs":[{"name":"_minter","type":"address","internalType":"address"},{"name":"_enabled","type":"bool","internalType":"bool"}],"outputs":[],"stateMutability":"nonpayable"},{"type":"function","name":"setSupplyCeiling","inputs":[{"name":"_supplyCeiling","type":"uint256","internalType":"uint256"}],"outputs":[],"stateMutability":"nonpayable"},{"type":"function","name":"supplyCeiling","inputs":[],"outputs":[{"name":"","type":"uint256","internalType":"uint256"}],"stateMutability":"view"},{"type":"function","name":"symbol","inputs":[],"outputs":[{"name":"","type":"string","internalType":"string"}],"stateMutability":"view"},{"type":"function","name":"toggleRestriction","inputs":[{"name":"who","type":"address","internalType":"address"}],"outputs":[],"stateMutability":"nonpayable"},{"type":"function","name":"totalSupply","inputs":[],"outputs":[{"name":"","type":"uint256","internalType":"uint256"}],"stateMutability":"view"},{"type":"function","name":"transfer","inputs":[{"name":"to","type":"address","internalType":"address"},{"name":"amount","type":"uint256","internalType":"uint256"}],"outputs":[{"name":"","type":"bool","internalType":"bool"}],"stateMutability":"nonpayable"},{"type":"function","name":"transferFrom","inputs":[{"name":"from","type":"address","internalType":"address"},{"name":"to","type":"address","internalType":"address"},{"name":"amount","type":"uint256","internalType":"uint256"}],"outputs":[{"name":"","type":"bool","internalType":"bool"}],"stateMutability":"nonpayable"},{"type":"function","name":"transferOwnership","inputs":[{"name":"newOwner","type":"address","internalType":"address"}],"outputs":[],"stateMutability":"nonpayable"},{"type":"function","name":"unpause","inputs":[],"outputs":[],"stateMutability":"nonpayable"},{"type":"function","name":"withdrawEther","inputs":[],"outputs":[],"stateMutability":"nonpayable"},{"type":"event","name":"Approval","inputs":[{"name":"owner","type":"address","indexed":true,"internalType":"address"},{"name":"spender","type":"address","indexed":true,"internalType":"address"},{"name":"value","type":"uint256","indexed":false,"internalType":"uint256"}],"anonymous":false},{"type":"event","name":"FeeRateSet","inputs":[{"name":"feeRatePerDayScaled","type":"uint256","indexed":true,"internalType":"uint256"}],"anonymous":false},{"type":"event","name":"FeeReceiverSet","inputs":[{"name":"feeReceiver","type":"address","indexed":true,"internalType":"address"}],"anonymous":false},{"type":"event","name":"Initialized","inputs":[{"name":"version","type":"uint8","indexed":false,"internalType":"uint8"}],"anonymous":false},{"type":"event","name":"MethodologistSet","inputs":[{"name":"methodologist","type":"address","indexed":true,"internalType":"address"}],"anonymous":false},{"type":"event","name":"MethodologySet","inputs":[{"name":"methodology","type":"string","indexed":false,"internalType":"string"}],"anonymous":false},{"type":"event","name":"MintFeeToReceiver","inputs":[{"name":"feeReceiver","type":"address","indexed":false,"internalType":"address"},{"name":"timestamp","type":"uint256","indexed":false,"internalType":"uint256"},{"name":"totalSupply","type":"uint256","indexed":false,"internalType":"uint256"},{"name":"amount","type":"uint256","indexed":false,"internalType":"uint256"}],"anonymous":false},{"type":"event","name":"MinterRemoved","inputs":[{"name":"minter","type":"address","indexed":true,"internalType":"address"}],"anonymous":false},{"type":"event","name":"MinterSet","inputs":[{"name":"minter","type":"address","indexed":true,"internalType":"address"}],"anonymous":false},{"type":"event","name":"OwnershipTransferred","inputs":[{"name":"previousOwner","type":"address","indexed":true,"internalType":"address"},{"name":"newOwner","type":"address","indexed":true,"internalType":"address"}],"anonymous":false},{"type":"event","name":"Paused","inputs":[{"name":"account","type":"address","indexed":false,"internalType":"address"}],"anonymous":false},{"type":"event","name":"SupplyCeilingSet","inputs":[{"name":"supplyCeiling","type":"uint256","indexed":false,"internalType":"uint256"}],"anonymous":false},{"type":"event","name":"ToggledRestricted","inputs":[{"name":"account","type":"address","indexed":true,"internalType":"address"},{"name":"isRestricted","type":"bool","indexed":false,"internalType":"bool"}],"anonymous":false},{"type":"event","name":"Transfer","inputs":[{"name":"from","type":"address","indexed":true,"internalType":"address"},{"name":"to","type":"address","indexed":true,"internalType":"address"},{"name":"value","type":"uint256","indexed":false,"internalType":"uint256"}],"anonymous":false},{"type":"event","name":"Unpaused","inputs":[{"name":"account","type":"address","indexed":false,"internalType":"address"}],"anonymous":false}],"bytecode":{"object":"0x6080604052348015600e575f80fd5b50614cbe8061001c5f395ff3fe60806040526004361061023e575f3560e01c806391fe1b921161012d578063b5ed298a116100aa578063ddca3f431161006e578063ddca3f4314610847578063efdcd97414610871578063f2fde38b14610899578063f734e22a146108c1578063fede0276146108d757610245565b8063b5ed298a14610755578063c01bc9821461077d578063cf456ae7146107b9578063d153b60c146107e1578063dd62ed3e1461080b57610245565b8063a457c2d7116100f1578063a457c2d71461064f578063a9059cbb1461068b578063aa271e1a146106c7578063aaa4a18414610703578063b3f006741461072b57610245565b806391fe1b921461058157806395d89b41146105a95780639dc29fac146105d35780639eeb1d50146105fb5780639f8e67bf1461062557610245565b806340c10f19116101bb57806370a082311161017f57806370a08231146104d9578063715018a6146105155780637362377b1461052b5780638456cb59146105415780638da5cb5b1461055757610245565b806340c10f191461040f57806345596e2e146104375780635c975abb1461045f578063660db484146104895780636e01a686146104b157610245565b80632b52684d116102025780632b52684d1461033f5780632fecd58914610369578063313ce5671461039357806339509351146103bd5780633f4ba83a146103f957610245565b806306fdde0314610249578063095ea7b31461027357806318160ddd146102af578063184a732f146102d957806323b872dd1461030357610245565b3661024557005b5f80fd5b348015610254575f80fd5b5061025d6108ff565b60405161026a91906131d9565b60405180910390f35b34801561027e575f80fd5b5061029960048036038101906102949190613297565b61098f565b6040516102a691906132ef565b60405180910390f35b3480156102ba575f80fd5b506102c36109b1565b6040516102d09190613317565b60405180910390f35b3480156102e4575f80fd5b506102ed6109ba565b6040516102fa9190613317565b60405180910390f35b34801561030e575f80fd5b5061032960048036038101906103249190613330565b6109c0565b60405161033691906132ef565b60405180910390f35b34801561034a575f80fd5b50610353610ca9565b6040516103609190613317565b60405180910390f35b348015610374575f80fd5b5061037d610cb0565b60405161038a9190613317565b60405180910390f35b34801561039e575f80fd5b506103a7610cb6565b6040516103b4919061339b565b60405180910390f35b3480156103c8575f80fd5b506103e360048036038101906103de9190613297565b610cbe565b6040516103f091906132ef565b60405180910390f35b348015610404575f80fd5b5061040d610cf4565b005b34801561041a575f80fd5b5061043560048036038101906104309190613297565b610d06565b005b348015610442575f80fd5b5061045d600480360381019061045891906133b4565b610f1c565b005b34801561046a575f80fd5b50610473610f63565b60405161048091906132ef565b60405180910390f35b348015610494575f80fd5b506104af60048036038101906104aa91906133df565b610f78565b005b3480156104bc575f80fd5b506104d760048036038101906104d291906133b4565b61103e565b005b3480156104e4575f80fd5b506104ff60048036038101906104fa91906133df565b611088565b60405161050c9190613317565b60405180910390f35b348015610520575f80fd5b506105296110ce565b005b348015610536575f80fd5b5061053f6110e1565b005b34801561054c575f80fd5b506105556111e2565b005b348015610562575f80fd5b5061056b6111f4565b6040516105789190613419565b60405180910390f35b34801561058c575f80fd5b506105a760048036038101906105a2919061355e565b61121c565b005b3480156105b4575f80fd5b506105bd61133a565b6040516105ca91906131d9565b60405180910390f35b3480156105de575f80fd5b506105f960048036038101906105f49190613297565b6113ca565b005b348015610606575f80fd5b5061060f611638565b60405161061c91906131d9565b60405180910390f35b348015610630575f80fd5b506106396116c5565b6040516106469190613419565b60405180910390f35b34801561065a575f80fd5b5061067560048036038101906106709190613297565b6116eb565b60405161068291906132ef565b60405180910390f35b348015610696575f80fd5b506106b160048036038101906106ac9190613297565b611760565b6040516106be91906132ef565b60405180910390f35b3480156106d2575f80fd5b506106ed60048036038101906106e891906133df565b611944565b6040516106fa91906132ef565b60405180910390f35b34801561070e575f80fd5b50610729600480360381019061072491906133df565b611962565b005b348015610736575f80fd5b5061073f611aa5565b60405161074c9190613419565b60405180910390f35b348015610760575f80fd5b5061077b600480360381019061077691906133df565b611aca565b005b348015610788575f80fd5b506107a3600480360381019061079e91906133df565b611b83565b6040516107b091906132ef565b60405180910390f35b3480156107c4575f80fd5b506107df60048036038101906107da91906135cf565b611ba1565b005b3480156107ec575f80fd5b506107f5611ccb565b6040516108029190613419565b60405180910390f35b348015610816575f80fd5b50610831600480360381019061082c919061360d565b611cf0565b60405161083e9190613317565b60405180910390f35b348015610852575f80fd5b5061085b611d72565b6040516108689190613317565b60405180910390f35b34801561087c575f80fd5b50610897600480360381019061089291906133df565b611d78565b005b3480156108a4575f80fd5b506108bf60048036038101906108ba91906133df565b611e3d565b005b3480156108cc575f80fd5b506108d5611fb4565b005b3480156108e2575f80fd5b506108fd60048036038101906108f8919061364b565b611fc6565b005b60606036805461090e90613727565b80601f016020809104026020016040519081016040528092919081815260200182805461093a90613727565b80156109855780601f1061095c57610100808354040283529160200191610985565b820191905f5260205f20905b81548152906001019060200180831161096857829003601f168201915b5050505050905090565b5f806109996122eb565b90506109a68185856122f2565b600191505092915050565b5f603554905090565b60fe5481565b5f6109c96124b5565b5f73ffffffffffffffffffffffffffffffffffffffff168473ffffffffffffffffffffffffffffffffffffffff1603610a37576040517f08c379a0000000000000000000000000000000000000000000000000000000008152600401610a2e906137a1565b60405180910390fd5b5f73ffffffffffffffffffffffffffffffffffffffff168373ffffffffffffffffffffffffffffffffffffffff1603610aa5576040517f08c379a0000000000000000000000000000000000000000000000000000000008152600401610a9c90613809565b60405180910390fd5b5f8211610ae7576040517f08c379a0000000000000000000000000000000000000000000000000000000008152600401610ade90613871565b60405180910390fd5b6101045f3373ffffffffffffffffffffffffffffffffffffffff1673ffffffffffffffffffffffffffffffffffffffff1681526020019081526020015f205f9054906101000a900460ff1615610b72576040517f08c379a0000000000000000000000000000000000000000000000000000000008152600401610b69906138d9565b60405180910390fd5b6101045f8473ffffffffffffffffffffffffffffffffffffffff1673ffffffffffffffffffffffffffffffffffffffff1681526020019081526020015f205f9054906101000a900460ff1615610bfd576040517f08c379a0000000000000000000000000000000000000000000000000000000008152600401610bf490613941565b60405180910390fd5b6101045f8573ffffffffffffffffffffffffffffffffffffffff1673ffffffffffffffffffffffffffffffffffffffff1681526020019081526020015f205f9054906101000a900460ff1615610c88576040517f08c379a0000000000000000000000000000000000000000000000000000000008152600401610c7f906139a9565b60405180910390fd5b610c938433846124ff565b610c9e84848461258a565b600190509392505050565b6101035481565b60fd5481565b5f6012905090565b5f80610cc86122eb565b9050610ce9818585610cda8589611cf0565b610ce491906139f4565b6122f2565b600191505092915050565b610cfc6127f9565b610d04612877565b565b610d0e6124b5565b6101015f3373ffffffffffffffffffffffffffffffffffffffff1673ffffffffffffffffffffffffffffffffffffffff1681526020019081526020015f205f9054906101000a900460ff16610d98576040517f08c379a0000000000000000000000000000000000000000000000000000000008152600401610d8f90613a97565b60405180910390fd5b6101035481610da56109b1565b610daf91906139f4565b1115610df0576040517f08c379a0000000000000000000000000000000000000000000000000000000008152600401610de790613aff565b60405180910390fd5b6101045f8373ffffffffffffffffffffffffffffffffffffffff1673ffffffffffffffffffffffffffffffffffffffff1681526020019081526020015f205f9054906101000a900460ff1615610e7b576040517f08c379a0000000000000000000000000000000000000000000000000000000008152600401610e7290613941565b60405180910390fd5b6101045f3373ffffffffffffffffffffffffffffffffffffffff1673ffffffffffffffffffffffffffffffffffffffff1681526020019081526020015f205f9054906101000a900460ff1615610f06576040517f08c379a0000000000000000000000000000000000000000000000000000000008152600401610efd906138d9565b60405180910390fd5b610f0e6128d8565b610f188282612a24565b5050565b610f246127f9565b610f2c6128d8565b8060fd81905550807f45398c451b1a31b88dbaed4e7b89a632f43cc4b50149d437db03a5300afe40d160405160405180910390a250565b5f60ca5f9054906101000a900460ff16905090565b610f806127f9565b5f73ffffffffffffffffffffffffffffffffffffffff168173ffffffffffffffffffffffffffffffffffffffff1603610fb7575f80fd5b806101005f6101000a81548173ffffffffffffffffffffffffffffffffffffffff021916908373ffffffffffffffffffffffffffffffffffffffff1602179055508073ffffffffffffffffffffffffffffffffffffffff167f164d8ef0d742b45087644f55c61abeb84557df70d06730591e451f0981e278ca60405160405180910390a250565b6110466127f9565b80610103819055507fe35be406f69e9d11d6ac8e5b54bbc8b6c4baf2fa2359f84a56baa5ea5d07dc8f8160405161107d9190613317565b60405180910390a150565b5f60335f8373ffffffffffffffffffffffffffffffffffffffff1673ffffffffffffffffffffffffffffffffffffffff1681526020019081526020015f20549050919050565b6110d66127f9565b6110df5f612b73565b565b6110e96127f9565b5f4790505f811161112f576040517f08c379a000000000000000000000000000000000000000000000000000000000815260040161112690613b67565b60405180910390fd5b5f6111386111f4565b73ffffffffffffffffffffffffffffffffffffffff168260405161115b90613bb2565b5f6040518083038185875af1925050503d805f8114611195576040519150601f19603f3d011682016040523d82523d5f602084013e61119a565b606091505b50509050806111de576040517f08c379a00000000000000000000000000000000000000000000000000000000081526004016111d590613c10565b60405180910390fd5b5050565b6111ea6127f9565b6111f2612c36565b565b5f60655f9054906101000a900473ffffffffffffffffffffffffffffffffffffffff16905090565b6101005f9054906101000a900473ffffffffffffffffffffffffffffffffffffffff1673ffffffffffffffffffffffffffffffffffffffff163373ffffffffffffffffffffffffffffffffffffffff16146112ac576040517f08c379a00000000000000000000000000000000000000000000000000000000081526004016112a390613c9e565b60405180910390fd5b5f8151116112ef576040517f08c379a00000000000000000000000000000000000000000000000000000000081526004016112e690613d06565b60405180910390fd5b8061010290816112ff9190613ec1565b507fe6be68107100e39cb16d675c1086a4d5479fbd01108d721dabbccaa2249b995f8160405161132f91906131d9565b60405180910390a150565b60606037805461134990613727565b80601f016020809104026020016040519081016040528092919081815260200182805461137590613727565b80156113c05780601f10611397576101008083540402835291602001916113c0565b820191905f5260205f20905b8154815290600101906020018083116113a357829003601f168201915b5050505050905090565b6113d26124b5565b6101015f3373ffffffffffffffffffffffffffffffffffffffff1673ffffffffffffffffffffffffffffffffffffffff1681526020019081526020015f205f9054906101000a900460ff1661145c576040517f08c379a000000000000000000000000000000000000000000000000000000000815260040161145390613a97565b60405180910390fd5b5f73ffffffffffffffffffffffffffffffffffffffff168273ffffffffffffffffffffffffffffffffffffffff16036114ca576040517f08c379a00000000000000000000000000000000000000000000000000000000081526004016114c1906137a1565b60405180910390fd5b5f811161150c576040517f08c379a000000000000000000000000000000000000000000000000000000000815260040161150390613871565b60405180910390fd5b6101045f8373ffffffffffffffffffffffffffffffffffffffff1673ffffffffffffffffffffffffffffffffffffffff1681526020019081526020015f205f9054906101000a900460ff1615611597576040517f08c379a000000000000000000000000000000000000000000000000000000000815260040161158e906139a9565b60405180910390fd5b6101045f3373ffffffffffffffffffffffffffffffffffffffff1673ffffffffffffffffffffffffffffffffffffffff1681526020019081526020015f205f9054906101000a900460ff1615611622576040517f08c379a0000000000000000000000000000000000000000000000000000000008152600401611619906138d9565b60405180910390fd5b61162a6128d8565b6116348282612c98565b5050565b610102805461164690613727565b80601f016020809104026020016040519081016040528092919081815260200182805461167290613727565b80156116bd5780601f10611694576101008083540402835291602001916116bd565b820191905f5260205f20905b8154815290600101906020018083116116a057829003601f168201915b505050505081565b6101005f9054906101000a900473ffffffffffffffffffffffffffffffffffffffff1681565b5f806116f56122eb565b90505f6117028286611cf0565b905083811015611747576040517f08c379a000000000000000000000000000000000000000000000000000000000815260040161173e90614000565b60405180910390fd5b61175482868684036122f2565b60019250505092915050565b5f6117696124b5565b5f73ffffffffffffffffffffffffffffffffffffffff168373ffffffffffffffffffffffffffffffffffffffff16036117d7576040517f08c379a00000000000000000000000000000000000000000000000000000000081526004016117ce90613809565b60405180910390fd5b5f8211611819576040517f08c379a000000000000000000000000000000000000000000000000000000000815260040161181090613871565b60405180910390fd5b6101045f3373ffffffffffffffffffffffffffffffffffffffff1673ffffffffffffffffffffffffffffffffffffffff1681526020019081526020015f205f9054906101000a900460ff16156118a4576040517f08c379a000000000000000000000000000000000000000000000000000000000815260040161189b906138d9565b60405180910390fd5b6101045f8473ffffffffffffffffffffffffffffffffffffffff1673ffffffffffffffffffffffffffffffffffffffff1681526020019081526020015f205f9054906101000a900460ff161561192f576040517f08c379a000000000000000000000000000000000000000000000000000000000815260040161192690613941565b60405180910390fd5b61193a33848461258a565b6001905092915050565b610101602052805f5260405f205f915054906101000a900460ff1681565b61196a6127f9565b6101045f8273ffffffffffffffffffffffffffffffffffffffff1673ffffffffffffffffffffffffffffffffffffffff1681526020019081526020015f205f9054906101000a900460ff16156101045f8373ffffffffffffffffffffffffffffffffffffffff1673ffffffffffffffffffffffffffffffffffffffff1681526020019081526020015f205f6101000a81548160ff0219169083151502179055508073ffffffffffffffffffffffffffffffffffffffff167f14ddf324cc5d8b14a3c3b12c84b0a7d578d72c8d60655c06d6a457e71431d5ee6101045f8473ffffffffffffffffffffffffffffffffffffffff1673ffffffffffffffffffffffffffffffffffffffff1681526020019081526020015f205f9054906101000a900460ff16604051611a9a91906132ef565b60405180910390a250565b60ff5f9054906101000a900473ffffffffffffffffffffffffffffffffffffffff1681565b611ad26127f9565b5f73ffffffffffffffffffffffffffffffffffffffff168173ffffffffffffffffffffffffffffffffffffffff1603611b40576040517f08c379a0000000000000000000000000000000000000000000000000000000008152600401611b379061408e565b60405180910390fd5b8060975f6101000a81548173ffffffffffffffffffffffffffffffffffffffff021916908373ffffffffffffffffffffffffffffffffffffffff16021790555050565b610104602052805f5260405f205f915054906101000a900460ff1681565b611ba96127f9565b5f73ffffffffffffffffffffffffffffffffffffffff168273ffffffffffffffffffffffffffffffffffffffff1603611be0575f80fd5b806101015f8473ffffffffffffffffffffffffffffffffffffffff1673ffffffffffffffffffffffffffffffffffffffff1681526020019081526020015f205f6101000a81548160ff0219169083151502179055508015611c83578173ffffffffffffffffffffffffffffffffffffffff167f726b590ef91a8c76ad05bbe91a57ef84605276528f49cd47d787f558a4e755b660405160405180910390a2611cc7565b8173ffffffffffffffffffffffffffffffffffffffff167fe94479a9f7e1952cc78f2d6baab678adc1b772d936c6583def489e524cb6669260405160405180910390a25b5050565b60975f9054906101000a900473ffffffffffffffffffffffffffffffffffffffff1681565b5f60345f8473ffffffffffffffffffffffffffffffffffffffff1673ffffffffffffffffffffffffffffffffffffffff1681526020019081526020015f205f8373ffffffffffffffffffffffffffffffffffffffff1673ffffffffffffffffffffffffffffffffffffffff1681526020019081526020015f2054905092915050565b60fc5481565b611d806127f9565b5f73ffffffffffffffffffffffffffffffffffffffff168173ffffffffffffffffffffffffffffffffffffffff1603611db7575f80fd5b8060ff5f6101000a81548173ffffffffffffffffffffffffffffffffffffffff021916908373ffffffffffffffffffffffffffffffffffffffff1602179055508073ffffffffffffffffffffffffffffffffffffffff167fbdf37c276f641820b141429d245add2552b4118c0866e5a78638e3de5ef18d9d60405160405180910390a250565b5f73ffffffffffffffffffffffffffffffffffffffff168173ffffffffffffffffffffffffffffffffffffffff1603611eab576040517f08c379a0000000000000000000000000000000000000000000000000000000008152600401611ea29061408e565b60405180910390fd5b60975f9054906101000a900473ffffffffffffffffffffffffffffffffffffffff1673ffffffffffffffffffffffffffffffffffffffff168173ffffffffffffffffffffffffffffffffffffffff1614611f3a576040517f08c379a0000000000000000000000000000000000000000000000000000000008152600401611f319061411c565b60405180910390fd5b3373ffffffffffffffffffffffffffffffffffffffff168173ffffffffffffffffffffffffffffffffffffffff1614611fa8576040517f08c379a0000000000000000000000000000000000000000000000000000000008152600401611f9f906141aa565b60405180910390fd5b611fb181612b73565b50565b611fbc6127f9565b611fc46128d8565b565b5f8060019054906101000a900460ff16159050808015611ff5575060015f8054906101000a900460ff1660ff16105b80612021575061200430612e5d565b158015612020575060015f8054906101000a900460ff1660ff16145b5b612060576040517f08c379a000000000000000000000000000000000000000000000000000000000815260040161205790614238565b60405180910390fd5b60015f806101000a81548160ff021916908360ff160217905550801561209b5760015f60016101000a81548160ff0219169083151502179055505b5f8651116120de576040517f08c379a00000000000000000000000000000000000000000000000000000000081526004016120d5906142a0565b60405180910390fd5b5f855111612121576040517f08c379a000000000000000000000000000000000000000000000000000000000815260040161211890614308565b60405180910390fd5b5f8411612163576040517f08c379a000000000000000000000000000000000000000000000000000000000815260040161215a90614396565b60405180910390fd5b5f73ffffffffffffffffffffffffffffffffffffffff168373ffffffffffffffffffffffffffffffffffffffff16036121d1576040517f08c379a00000000000000000000000000000000000000000000000000000000081526004016121c8906143fe565b60405180910390fd5b5f8211612213576040517f08c379a000000000000000000000000000000000000000000000000000000000815260040161220a9061448c565b60405180910390fd5b61221b612e7f565b612223612ed7565b61222d8686612f2f565b612235612f8b565b8360fd819055508260ff5f6101000a81548173ffffffffffffffffffffffffffffffffffffffff021916908373ffffffffffffffffffffffffffffffffffffffff16021790555081610103819055504260fe8190555080156122e3575f8060016101000a81548160ff0219169083151502179055507f7f26b83ff96e1f2b6a682f133852f6798a09c465da95921460cefb384740249860016040516122da91906144e3565b60405180910390a15b505050505050565b5f33905090565b5f73ffffffffffffffffffffffffffffffffffffffff168373ffffffffffffffffffffffffffffffffffffffff1603612360576040517f08c379a00000000000000000000000000000000000000000000000000000000081526004016123579061456c565b60405180910390fd5b5f73ffffffffffffffffffffffffffffffffffffffff168273ffffffffffffffffffffffffffffffffffffffff16036123ce576040517f08c379a00000000000000000000000000000000000000000000000000000000081526004016123c5906145fa565b60405180910390fd5b8060345f8573ffffffffffffffffffffffffffffffffffffffff1673ffffffffffffffffffffffffffffffffffffffff1681526020019081526020015f205f8473ffffffffffffffffffffffffffffffffffffffff1673ffffffffffffffffffffffffffffffffffffffff1681526020019081526020015f20819055508173ffffffffffffffffffffffffffffffffffffffff168373ffffffffffffffffffffffffffffffffffffffff167f8c5be1e5ebec7d5bd14f71427d1e84f3dd0314c0f7b2291e5b200ac8c7c3b925836040516124a89190613317565b60405180910390a3505050565b6124bd610f63565b156124fd576040517f08c379a00000000000000000000000000000000000000000000000000000000081526004016124f490614662565b60405180910390fd5b565b5f61250a8484611cf0565b90507fffffffffffffffffffffffffffffffffffffffffffffffffffffffffffffffff81146125845781811015612576576040517f08c379a000000000000000000000000000000000000000000000000000000000815260040161256d906146ca565b60405180910390fd5b61258384848484036122f2565b5b50505050565b5f73ffffffffffffffffffffffffffffffffffffffff168373ffffffffffffffffffffffffffffffffffffffff16036125f8576040517f08c379a00000000000000000000000000000000000000000000000000000000081526004016125ef90614758565b60405180910390fd5b5f73ffffffffffffffffffffffffffffffffffffffff168273ffffffffffffffffffffffffffffffffffffffff1603612666576040517f08c379a000000000000000000000000000000000000000000000000000000000815260040161265d906147e6565b60405180910390fd5b612671838383612fdb565b5f60335f8573ffffffffffffffffffffffffffffffffffffffff1673ffffffffffffffffffffffffffffffffffffffff1681526020019081526020015f20549050818110156126f5576040517f08c379a00000000000000000000000000000000000000000000000000000000081526004016126ec90614874565b60405180910390fd5b81810360335f8673ffffffffffffffffffffffffffffffffffffffff1673ffffffffffffffffffffffffffffffffffffffff1681526020019081526020015f20819055508160335f8573ffffffffffffffffffffffffffffffffffffffff1673ffffffffffffffffffffffffffffffffffffffff1681526020019081526020015f205f82825401925050819055508273ffffffffffffffffffffffffffffffffffffffff168473ffffffffffffffffffffffffffffffffffffffff167fddf252ad1be2c89b69c2b068fc378daa952ba7f163c4a11628f55a4df523b3ef846040516127e09190613317565b60405180910390a36127f3848484612fe0565b50505050565b6128016122eb565b73ffffffffffffffffffffffffffffffffffffffff1661281f6111f4565b73ffffffffffffffffffffffffffffffffffffffff1614612875576040517f08c379a000000000000000000000000000000000000000000000000000000000815260040161286c906148dc565b60405180910390fd5b565b61287f612fe5565b5f60ca5f6101000a81548160ff0219169083151502179055507f5db9ee0a495bf2e6ff9c91a7834c1ba4fdd244a5e8aa4e537bd38aeae4b073aa6128c16122eb565b6040516128ce9190613419565b60405180910390a1565b5f6201518060fe54426128eb91906148fa565b6128f5919061495a565b905060018110612a21575f6129086109b1565b90505f8190505f60fd5490505f5b848110156129565768056bc75e2d631000008284612934919061498a565b61293e919061495a565b8361294991906139f4565b9250806001019050612916565b505f838361296491906148fa565b90508462015180612975919061498a565b60fe5f82825461298591906139f4565b925050819055506129b760ff5f9054906101000a900473ffffffffffffffffffffffffffffffffffffffff1682612a24565b7f07982395c678b2ffc23fcf59aaec243ca79418c285af0d0e10b4e65bc4189f4c60ff5f9054906101000a900473ffffffffffffffffffffffffffffffffffffffff1642612a036109b1565b84604051612a1494939291906149cb565b60405180910390a1505050505b50565b5f73ffffffffffffffffffffffffffffffffffffffff168273ffffffffffffffffffffffffffffffffffffffff1603612a92576040517f08c379a0000000000000000000000000000000000000000000000000000000008152600401612a8990614a58565b60405180910390fd5b612a9d5f8383612fdb565b8060355f828254612aae91906139f4565b925050819055508060335f8473ffffffffffffffffffffffffffffffffffffffff1673ffffffffffffffffffffffffffffffffffffffff1681526020019081526020015f205f82825401925050819055508173ffffffffffffffffffffffffffffffffffffffff165f73ffffffffffffffffffffffffffffffffffffffff167fddf252ad1be2c89b69c2b068fc378daa952ba7f163c4a11628f55a4df523b3ef83604051612b5c9190613317565b60405180910390a3612b6f5f8383612fe0565b5050565b5f60655f9054906101000a900473ffffffffffffffffffffffffffffffffffffffff1690508160655f6101000a81548173ffffffffffffffffffffffffffffffffffffffff021916908373ffffffffffffffffffffffffffffffffffffffff1602179055508173ffffffffffffffffffffffffffffffffffffffff168173ffffffffffffffffffffffffffffffffffffffff167f8be0079c531659141344cd1fd0a4f28419497f9722a3daafe3b4186f6b6457e060405160405180910390a35050565b612c3e6124b5565b600160ca5f6101000a81548160ff0219169083151502179055507f62e78cea01bee320cd4e420270b5ea74000d11b0c9f74754ebdbfc544b05a258612c816122eb565b604051612c8e9190613419565b60405180910390a1565b5f73ffffffffffffffffffffffffffffffffffffffff168273ffffffffffffffffffffffffffffffffffffffff1603612d06576040517f08c379a0000000000000000000000000000000000000000000000000000000008152600401612cfd90614ae6565b60405180910390fd5b612d11825f83612fdb565b5f60335f8473ffffffffffffffffffffffffffffffffffffffff1673ffffffffffffffffffffffffffffffffffffffff1681526020019081526020015f2054905081811015612d95576040517f08c379a0000000000000000000000000000000000000000000000000000000008152600401612d8c90614b74565b60405180910390fd5b81810360335f8573ffffffffffffffffffffffffffffffffffffffff1673ffffffffffffffffffffffffffffffffffffffff1681526020019081526020015f20819055508160355f82825403925050819055505f73ffffffffffffffffffffffffffffffffffffffff168373ffffffffffffffffffffffffffffffffffffffff167fddf252ad1be2c89b69c2b068fc378daa952ba7f163c4a11628f55a4df523b3ef84604051612e459190613317565b60405180910390a3612e58835f84612fe0565b505050565b5f808273ffffffffffffffffffffffffffffffffffffffff163b119050919050565b5f60019054906101000a900460ff16612ecd576040517f08c379a0000000000000000000000000000000000000000000000000000000008152600401612ec490614c02565b60405180910390fd5b612ed561302e565b565b5f60019054906101000a900460ff16612f25576040517f08c379a0000000000000000000000000000000000000000000000000000000008152600401612f1c90614c02565b60405180910390fd5b612f2d61308e565b565b5f60019054906101000a900460ff16612f7d576040517f08c379a0000000000000000000000000000000000000000000000000000000008152600401612f7490614c02565b60405180910390fd5b612f8782826130f7565b5050565b5f60019054906101000a900460ff16612fd9576040517f08c379a0000000000000000000000000000000000000000000000000000000008152600401612fd090614c02565b60405180910390fd5b565b505050565b505050565b612fed610f63565b61302c576040517f08c379a000000000000000000000000000000000000000000000000000000000815260040161302390614c6a565b60405180910390fd5b565b5f60019054906101000a900460ff1661307c576040517f08c379a000000000000000000000000000000000000000000000000000000000815260040161307390614c02565b60405180910390fd5b61308c6130876122eb565b612b73565b565b5f60019054906101000a900460ff166130dc576040517f08c379a00000000000000000000000000000000000000000000000000000000081526004016130d390614c02565b60405180910390fd5b5f60ca5f6101000a81548160ff021916908315150217905550565b5f60019054906101000a900460ff16613145576040517f08c379a000000000000000000000000000000000000000000000000000000000815260040161313c90614c02565b60405180910390fd5b81603690816131549190613ec1565b5080603790816131649190613ec1565b505050565b5f81519050919050565b5f82825260208201905092915050565b8281835e5f83830152505050565b5f601f19601f8301169050919050565b5f6131ab82613169565b6131b58185613173565b93506131c5818560208601613183565b6131ce81613191565b840191505092915050565b5f6020820190508181035f8301526131f181846131a1565b905092915050565b5f604051905090565b5f80fd5b5f80fd5b5f73ffffffffffffffffffffffffffffffffffffffff82169050919050565b5f6132338261320a565b9050919050565b61324381613229565b811461324d575f80fd5b50565b5f8135905061325e8161323a565b92915050565b5f819050919050565b61327681613264565b8114613280575f80fd5b50565b5f813590506132918161326d565b92915050565b5f80604083850312156132ad576132ac613202565b5b5f6132ba85828601613250565b92505060206132cb85828601613283565b9150509250929050565b5f8115159050919050565b6132e9816132d5565b82525050565b5f6020820190506133025f8301846132e0565b92915050565b61331181613264565b82525050565b5f60208201905061332a5f830184613308565b92915050565b5f805f6060848603121561334757613346613202565b5b5f61335486828701613250565b935050602061336586828701613250565b925050604061337686828701613283565b9150509250925092565b5f60ff82169050919050565b61339581613380565b82525050565b5f6020820190506133ae5f83018461338c565b92915050565b5f602082840312156133c9576133c8613202565b5b5f6133d684828501613283565b91505092915050565b5f602082840312156133f4576133f3613202565b5b5f61340184828501613250565b91505092915050565b61341381613229565b82525050565b5f60208201905061342c5f83018461340a565b92915050565b5f80fd5b5f80fd5b7f4e487b71000000000000000000000000000000000000000000000000000000005f52604160045260245ffd5b61347082613191565b810181811067ffffffffffffffff8211171561348f5761348e61343a565b5b80604052505050565b5f6134a16131f9565b90506134ad8282613467565b919050565b5f67ffffffffffffffff8211156134cc576134cb61343a565b5b6134d582613191565b9050602081019050919050565b828183375f83830152505050565b5f6135026134fd846134b2565b613498565b90508281526020810184848401111561351e5761351d613436565b5b6135298482856134e2565b509392505050565b5f82601f83011261354557613544613432565b5b81356135558482602086016134f0565b91505092915050565b5f6020828403121561357357613572613202565b5b5f82013567ffffffffffffffff8111156135905761358f613206565b5b61359c84828501613531565b91505092915050565b6135ae816132d5565b81146135b8575f80fd5b50565b5f813590506135c9816135a5565b92915050565b5f80604083850312156135e5576135e4613202565b5b5f6135f285828601613250565b9250506020613603858286016135bb565b9150509250929050565b5f806040838503121561362357613622613202565b5b5f61363085828601613250565b925050602061364185828601613250565b9150509250929050565b5f805f805f60a0868803121561366457613663613202565b5b5f86013567ffffffffffffffff81111561368157613680613206565b5b61368d88828901613531565b955050602086013567ffffffffffffffff8111156136ae576136ad613206565b5b6136ba88828901613531565b94505060406136cb88828901613283565b93505060606136dc88828901613250565b92505060806136ed88828901613283565b9150509295509295909350565b7f4e487b71000000000000000000000000000000000000000000000000000000005f52602260045260245ffd5b5f600282049050600182168061373e57607f821691505b602082108103613751576137506136fa565b5b50919050565b7f496e76616c69642066726f6d20616464726573730000000000000000000000005f82015250565b5f61378b601483613173565b915061379682613757565b602082019050919050565b5f6020820190508181035f8301526137b88161377f565b9050919050565b7f496e76616c696420746f206164647265737300000000000000000000000000005f82015250565b5f6137f3601283613173565b91506137fe826137bf565b602082019050919050565b5f6020820190508181035f830152613820816137e7565b9050919050565b7f416d6f756e74206d7573742062652067726561746572207468616e207a65726f5f82015250565b5f61385b602083613173565b915061386682613827565b602082019050919050565b5f6020820190508181035f8301526138888161384f565b9050919050565b7f6d73672e73656e646572206973207265737472696374656400000000000000005f82015250565b5f6138c3601883613173565b91506138ce8261388f565b602082019050919050565b5f6020820190508181035f8301526138f0816138b7565b9050919050565b7f746f2069732072657374726963746564000000000000000000000000000000005f82015250565b5f61392b601083613173565b9150613936826138f7565b602082019050919050565b5f6020820190508181035f8301526139588161391f565b9050919050565b7f66726f6d206973207265737472696374656400000000000000000000000000005f82015250565b5f613993601283613173565b915061399e8261395f565b602082019050919050565b5f6020820190508181035f8301526139c081613987565b9050919050565b7f4e487b71000000000000000000000000000000000000000000000000000000005f52601160045260245ffd5b5f6139fe82613264565b9150613a0983613264565b9250828201905080821115613a2157613a206139c7565b5b92915050565b7f496e646578546f6b656e3a2063616c6c6572206973206e6f7420746865206d695f8201527f6e74657200000000000000000000000000000000000000000000000000000000602082015250565b5f613a81602483613173565b9150613a8c82613a27565b604082019050919050565b5f6020820190508181035f830152613aae81613a75565b9050919050565b7f77696c6c2065786365656420737570706c79206365696c696e670000000000005f82015250565b5f613ae9601a83613173565b9150613af482613ab5565b602082019050919050565b5f6020820190508181035f830152613b1681613add565b9050919050565b7f4e6f20457468657220746f2077697468647261770000000000000000000000005f82015250565b5f613b51601483613173565b9150613b5c82613b1d565b602082019050919050565b5f6020820190508181035f830152613b7e81613b45565b9050919050565b5f81905092915050565b50565b5f613b9d5f83613b85565b9150613ba882613b8f565b5f82019050919050565b5f613bbc82613b92565b9150819050919050565b7f4574686572207472616e73666572206661696c656400000000000000000000005f82015250565b5f613bfa601583613173565b9150613c0582613bc6565b602082019050919050565b5f6020820190508181035f830152613c2781613bee565b9050919050565b7f496e646578546f6b656e3a2063616c6c6572206973206e6f7420746865206d655f8201527f74686f646f6c6f67697374000000000000000000000000000000000000000000602082015250565b5f613c88602b83613173565b9150613c9382613c2e565b604082019050919050565b5f6020820190508181035f830152613cb581613c7c565b9050919050565b7f4d6574686f646f6c6f67792063616e6e6f7420626520656d70747900000000005f82015250565b5f613cf0601b83613173565b9150613cfb82613cbc565b602082019050919050565b5f6020820190508181035f830152613d1d81613ce4565b9050919050565b5f819050815f5260205f209050919050565b5f6020601f8301049050919050565b5f82821b905092915050565b5f60088302613d807fffffffffffffffffffffffffffffffffffffffffffffffffffffffffffffffff82613d45565b613d8a8683613d45565b95508019841693508086168417925050509392505050565b5f819050919050565b5f613dc5613dc0613dbb84613264565b613da2565b613264565b9050919050565b5f819050919050565b613dde83613dab565b613df2613dea82613dcc565b848454613d51565b825550505050565b5f90565b613e06613dfa565b613e11818484613dd5565b505050565b5b81811015613e3457613e295f82613dfe565b600181019050613e17565b5050565b601f821115613e7957613e4a81613d24565b613e5384613d36565b81016020851015613e62578190505b613e76613e6e85613d36565b830182613e16565b50505b505050565b5f82821c905092915050565b5f613e995f1984600802613e7e565b1980831691505092915050565b5f613eb18383613e8a565b9150826002028217905092915050565b613eca82613169565b67ffffffffffffffff811115613ee357613ee261343a565b5b613eed8254613727565b613ef8828285613e38565b5f60209050601f831160018114613f29575f8415613f17578287015190505b613f218582613ea6565b865550613f88565b601f198416613f3786613d24565b5f5b82811015613f5e57848901518255600182019150602085019450602081019050613f39565b86831015613f7b5784890151613f77601f891682613e8a565b8355505b6001600288020188555050505b505050505050565b7f45524332303a2064656372656173656420616c6c6f77616e63652062656c6f775f8201527f207a65726f000000000000000000000000000000000000000000000000000000602082015250565b5f613fea602583613173565b9150613ff582613f90565b604082019050919050565b5f6020820190508181035f83015261401781613fde565b9050919050565b7f50726f706f7361626c654f776e61626c653a206e6577206f776e6572206973205f8201527f746865207a65726f206164647265737300000000000000000000000000000000602082015250565b5f614078603083613173565b91506140838261401e565b604082019050919050565b5f6020820190508181035f8301526140a58161406c565b9050919050565b7f50726f706f7361626c654f776e61626c653a206e6577206f776e6572206973205f8201527f6e6f742070726f706f736564206f776e65720000000000000000000000000000602082015250565b5f614106603283613173565b9150614111826140ac565b604082019050919050565b5f6020820190508181035f830152614133816140fa565b9050919050565b7f50726f706f7361626c654f776e61626c653a20746869732063616c6c206d75735f8201527f74206265206d61646520627920746865206e6577206f776e6572000000000000602082015250565b5f614194603a83613173565b915061419f8261413a565b604082019050919050565b5f6020820190508181035f8301526141c181614188565b9050919050565b7f496e697469616c697a61626c653a20636f6e747261637420697320616c7265615f8201527f647920696e697469616c697a6564000000000000000000000000000000000000602082015250565b5f614222602e83613173565b915061422d826141c8565b604082019050919050565b5f6020820190508181035f83015261424f81614216565b9050919050565b7f546f6b656e206e616d652063616e6e6f7420626520656d7074790000000000005f82015250565b5f61428a601a83613173565b915061429582614256565b602082019050919050565b5f6020820190508181035f8301526142b78161427e565b9050919050565b7f546f6b656e2073796d626f6c2063616e6e6f7420626520656d707479000000005f82015250565b5f6142f2601c83613173565b91506142fd826142be565b602082019050919050565b5f6020820190508181035f83015261431f816142e6565b9050919050565b7f4665652072617465206d7573742062652067726561746572207468616e207a655f8201527f726f000000000000000000000000000000000000000000000000000000000000602082015250565b5f614380602283613173565b915061438b82614326565b604082019050919050565b5f6020820190508181035f8301526143ad81614374565b9050919050565b7f496e76616c6964206665652072656365697665722061646472657373000000005f82015250565b5f6143e8601c83613173565b91506143f3826143b4565b602082019050919050565b5f6020820190508181035f830152614415816143dc565b9050919050565b7f537570706c79206365696c696e67206d757374206265206772656174657220745f8201527f68616e207a65726f000000000000000000000000000000000000000000000000602082015250565b5f614476602883613173565b91506144818261441c565b604082019050919050565b5f6020820190508181035f8301526144a38161446a565b9050919050565b5f819050919050565b5f6144cd6144c86144c3846144aa565b613da2565b613380565b9050919050565b6144dd816144b3565b82525050565b5f6020820190506144f65f8301846144d4565b92915050565b7f45524332303a20617070726f76652066726f6d20746865207a65726f206164645f8201527f7265737300000000000000000000000000000000000000000000000000000000602082015250565b5f614556602483613173565b9150614561826144fc565b604082019050919050565b5f6020820190508181035f8301526145838161454a565b9050919050565b7f45524332303a20617070726f766520746f20746865207a65726f2061646472655f8201527f7373000000000000000000000000000000000000000000000000000000000000602082015250565b5f6145e4602283613173565b91506145ef8261458a565b604082019050919050565b5f6020820190508181035f830152614611816145d8565b9050919050565b7f5061757361626c653a20706175736564000000000000000000000000000000005f82015250565b5f61464c601083613173565b915061465782614618565b602082019050919050565b5f6020820190508181035f83015261467981614640565b9050919050565b7f45524332303a20696e73756666696369656e7420616c6c6f77616e63650000005f82015250565b5f6146b4601d83613173565b91506146bf82614680565b602082019050919050565b5f6020820190508181035f8301526146e1816146a8565b9050919050565b7f45524332303a207472616e736665722066726f6d20746865207a65726f2061645f8201527f6472657373000000000000000000000000000000000000000000000000000000602082015250565b5f614742602583613173565b915061474d826146e8565b604082019050919050565b5f6020820190508181035f83015261476f81614736565b9050919050565b7f45524332303a207472616e7366657220746f20746865207a65726f20616464725f8201527f6573730000000000000000000000000000000000000000000000000000000000602082015250565b5f6147d0602383613173565b91506147db82614776565b604082019050919050565b5f6020820190508181035f8301526147fd816147c4565b9050919050565b7f45524332303a207472616e7366657220616d6f756e74206578636565647320625f8201527f616c616e63650000000000000000000000000000000000000000000000000000602082015250565b5f61485e602683613173565b915061486982614804565b604082019050919050565b5f6020820190508181035f83015261488b81614852565b9050919050565b7f4f776e61626c653a2063616c6c6572206973206e6f7420746865206f776e65725f82015250565b5f6148c6602083613173565b91506148d182614892565b602082019050919050565b5f6020820190508181035f8301526148f3816148ba565b9050919050565b5f61490482613264565b915061490f83613264565b9250828203905081811115614927576149266139c7565b5b92915050565b7f4e487b71000000000000000000000000000000000000000000000000000000005f52601260045260245ffd5b5f61496482613264565b915061496f83613264565b92508261497f5761497e61492d565b5b828204905092915050565b5f61499482613264565b915061499f83613264565b92508282026149ad81613264565b915082820484148315176149c4576149c36139c7565b5b5092915050565b5f6080820190506149de5f83018761340a565b6149eb6020830186613308565b6149f86040830185613308565b614a056060830184613308565b95945050505050565b7f45524332303a206d696e7420746f20746865207a65726f2061646472657373005f82015250565b5f614a42601f83613173565b9150614a4d82614a0e565b602082019050919050565b5f6020820190508181035f830152614a6f81614a36565b9050919050565b7f45524332303a206275726e2066726f6d20746865207a65726f206164647265735f8201527f7300000000000000000000000000000000000000000000000000000000000000602082015250565b5f614ad0602183613173565b9150614adb82614a76565b604082019050919050565b5f6020820190508181035f830152614afd81614ac4565b9050919050565b7f45524332303a206275726e20616d6f756e7420657863656564732062616c616e5f8201527f6365000000000000000000000000000000000000000000000000000000000000602082015250565b5f614b5e602283613173565b9150614b6982614b04565b604082019050919050565b5f6020820190508181035f830152614b8b81614b52565b9050919050565b7f496e697469616c697a61626c653a20636f6e7472616374206973206e6f7420695f8201527f6e697469616c697a696e67000000000000000000000000000000000000000000602082015250565b5f614bec602b83613173565b9150614bf782614b92565b604082019050919050565b5f6020820190508181035f830152614c1981614be0565b9050919050565b7f5061757361626c653a206e6f74207061757365640000000000000000000000005f82015250565b5f614c54601483613173565b9150614c5f82614c20565b602082019050919050565b5f6020820190508181035f830152614c8181614c48565b905091905056fea264697066735822122008a7036d3bf4dc909708c05bba4b963263a16f57aadff0c363f7be45810432e864736f6c634300081a0033","linkReferences":{}},"methodIdentifiers":{"allowance(address,address)":"dd62ed3e","approve(address,uint256)":"095ea7b3","balanceOf(address)":"70a08231","burn(address,uint256)":"9dc29fac","decimals()":"313ce567","decreaseAllowance(address,uint256)":"a457c2d7","fee()":"ddca3f43","feeRatePerDayScaled()":"2fecd589","feeReceiver()":"b3f00674","feeTimestamp()":"184a732f","increaseAllowance(address,uint256)":"39509351","initialize(string,string,uint256,address,uint256)":"fede0276","isMinter(address)":"aa271e1a","isRestricted(address)":"c01bc982","methodologist()":"9f8e67bf","methodology()":"9eeb1d50","mint(address,uint256)":"40c10f19","mintToFeeReceiver()":"f734e22a","name()":"06fdde03","owner()":"8da5cb5b","pause()":"8456cb59","paused()":"5c975abb","proposeOwner(address)":"b5ed298a","proposedOwner()":"d153b60c","renounceOwnership()":"715018a6","setFeeRate(uint256)":"45596e2e","setFeeReceiver(address)":"efdcd974","setMethodologist(address)":"660db484","setMethodology(string)":"91fe1b92","setMinter(address,bool)":"cf456ae7","setSupplyCeiling(uint256)":"6e01a686","supplyCeiling()":"2b52684d","symbol()":"95d89b41","toggleRestriction(address)":"aaa4a184","totalSupply()":"18160ddd","transfer(address,uint256)":"a9059cbb","transferFrom(address,address,uint256)":"23b872dd","transferOwnership(address)":"f2fde38b","unpause()":"3f4ba83a","withdrawEther()":"7362377b"},"id":44}