{"abi":[{"type":"receive","stateMutability":"payable"},{"type":"function","name":"allowance","inputs":[{"name":"owner","type":"address","internalType":"address"},{"name":"spender","type":"address","internalType":"address"}],"outputs":[{"name":"","type":"uint256","internalType":"uint256"}],"stateMutability":"view"},{"type":"function","name":"approve","inputs":[{"name":"spender","type":"address","internalType":"address"},{"name":"amount","type":"uint256","internalType":"uint256"}],"outputs":[{"name":"","type":"bool","internalType":"bool"}],"stateMutability":"nonpayable"},{"type":"function","name":"approveSwapToken","inputs":[{"name":"_token","type":"address","internalType":"address"},{"name":"_to","type":"address","internalType":"address"},{"name":"_amount","type":"uint256","internalType":"uint256"}],"outputs":[],"stateMutability":"nonpayable"},{"type":"function","name":"balanceOf","inputs":[{"name":"account","type":"address","internalType":"address"}],"outputs":[{"name":"","type":"uint256","internalType":"uint256"}],"stateMutability":"view"},{"type":"function","name":"burn","inputs":[{"name":"from","type":"address","internalType":"address"},{"name":"amount","type":"uint256","internalType":"uint256"}],"outputs":[],"stateMutability":"nonpayable"},{"type":"function","name":"decimals","inputs":[],"outputs":[{"name":"","type":"uint8","internalType":"uint8"}],"stateMutability":"view"},{"type":"function","name":"decreaseAllowance","inputs":[{"name":"spender","type":"address","internalType":"address"},{"name":"subtractedValue","type":"uint256","internalType":"uint256"}],"outputs":[{"name":"","type":"bool","internalType":"bool"}],"stateMutability":"nonpayable"},{"type":"function","name":"factoryV2","inputs":[],"outputs":[{"name":"","type":"address","internalType":"contract IUniswapV2Factory"}],"stateMutability":"view"},{"type":"function","name":"factoryV3","inputs":[],"outputs":[{"name":"","type":"address","internalType":"contract IUniswapV3Factory"}],"stateMutability":"view"},{"type":"function","name":"fee","inputs":[],"outputs":[{"name":"","type":"uint256","internalType":"uint256"}],"stateMutability":"view"},{"type":"function","name":"feeRatePerDayScaled","inputs":[],"outputs":[{"name":"","type":"uint256","internalType":"uint256"}],"stateMutability":"view"},{"type":"function","name":"feeReceiver","inputs":[],"outputs":[{"name":"","type":"address","internalType":"address"}],"stateMutability":"view"},{"type":"function","name":"feeTimestamp","inputs":[],"outputs":[{"name":"","type":"uint256","internalType":"uint256"}],"stateMutability":"view"},{"type":"function","name":"increaseAllowance","inputs":[{"name":"spender","type":"address","internalType":"address"},{"name":"addedValue","type":"uint256","internalType":"uint256"}],"outputs":[{"name":"","type":"bool","internalType":"bool"}],"stateMutability":"nonpayable"},{"type":"function","name":"initialize","inputs":[{"name":"tokenName","type":"string","internalType":"string"},{"name":"tokenSymbol","type":"string","internalType":"string"},{"name":"_feeRatePerDayScaled","type":"uint256","internalType":"uint256"},{"name":"_feeReceiver","type":"address","internalType":"address"},{"name":"_supplyCeiling","type":"uint256","internalType":"uint256"},{"name":"_weth","type":"address","internalType":"address"},{"name":"_quoter","type":"address","internalType":"address"},{"name":"_swapRouterV3","type":"address","internalType":"address"},{"name":"_factoryV3","type":"address","internalType":"address"},{"name":"_swapRouterV2","type":"address","internalType":"address"},{"name":"_factoryV2","type":"address","internalType":"address"}],"outputs":[],"stateMutability":"nonpayable"},{"type":"function","name":"isMinter","inputs":[{"name":"","type":"address","internalType":"address"}],"outputs":[{"name":"","type":"bool","internalType":"bool"}],"stateMutability":"view"},{"type":"function","name":"isRestricted","inputs":[{"name":"","type":"address","internalType":"address"}],"outputs":[{"name":"","type":"bool","internalType":"bool"}],"stateMutability":"view"},{"type":"function","name":"methodologist","inputs":[],"outputs":[{"name":"","type":"address","internalType":"address"}],"stateMutability":"view"},{"type":"function","name":"methodology","inputs":[],"outputs":[{"name":"","type":"string","internalType":"string"}],"stateMutability":"view"},{"type":"function","name":"mint","inputs":[{"name":"to","type":"address","internalType":"address"},{"name":"amount","type":"uint256","internalType":"uint256"}],"outputs":[],"stateMutability":"nonpayable"},{"type":"function","name":"mintToFeeReceiver","inputs":[],"outputs":[],"stateMutability":"nonpayable"},{"type":"function","name":"name","inputs":[],"outputs":[{"name":"","type":"string","internalType":"string"}],"stateMutability":"view"},{"type":"function","name":"owner","inputs":[],"outputs":[{"name":"","type":"address","internalType":"address"}],"stateMutability":"view"},{"type":"function","name":"pause","inputs":[],"outputs":[],"stateMutability":"nonpayable"},{"type":"function","name":"paused","inputs":[],"outputs":[{"name":"","type":"bool","internalType":"bool"}],"stateMutability":"view"},{"type":"function","name":"proposeOwner","inputs":[{"name":"_proposedOwner","type":"address","internalType":"address"}],"outputs":[],"stateMutability":"nonpayable"},{"type":"function","name":"proposedOwner","inputs":[],"outputs":[{"name":"","type":"address","internalType":"address"}],"stateMutability":"view"},{"type":"function","name":"quoter","inputs":[],"outputs":[{"name":"","type":"address","internalType":"contract IQuoter"}],"stateMutability":"view"},{"type":"function","name":"renounceOwnership","inputs":[],"outputs":[],"stateMutability":"nonpayable"},{"type":"function","name":"setFeeRate","inputs":[{"name":"_feeRatePerDayScaled","type":"uint256","internalType":"uint256"}],"outputs":[],"stateMutability":"nonpayable"},{"type":"function","name":"setFeeReceiver","inputs":[{"name":"_feeReceiver","type":"address","internalType":"address"}],"outputs":[],"stateMutability":"nonpayable"},{"type":"function","name":"setMethodologist","inputs":[{"name":"_methodologist","type":"address","internalType":"address"}],"outputs":[],"stateMutability":"nonpayable"},{"type":"function","name":"setMethodology","inputs":[{"name":"_methodology","type":"string","internalType":"string"}],"outputs":[],"stateMutability":"nonpayable"},{"type":"function","name":"setMinter","inputs":[{"name":"_minter","type":"address","internalType":"address"},{"name":"_enabled","type":"bool","internalType":"bool"}],"outputs":[],"stateMutability":"nonpayable"},{"type":"function","name":"setSupplyCeiling","inputs":[{"name":"_supplyCeiling","type":"uint256","internalType":"uint256"}],"outputs":[],"stateMutability":"nonpayable"},{"type":"function","name":"supplyCeiling","inputs":[],"outputs":[{"name":"","type":"uint256","internalType":"uint256"}],"stateMutability":"view"},{"type":"function","name":"swapRouterV2","inputs":[],"outputs":[{"name":"","type":"address","internalType":"contract IUniswapV2Router02"}],"stateMutability":"view"},{"type":"function","name":"swapRouterV3","inputs":[],"outputs":[{"name":"","type":"address","internalType":"contract ISwapRouter"}],"stateMutability":"view"},{"type":"function","name":"swapSingle","inputs":[{"name":"tokenIn","type":"address","internalType":"address"},{"name":"tokenOut","type":"address","internalType":"address"},{"name":"amountIn","type":"uint256","internalType":"uint256"},{"name":"_recipient","type":"address","internalType":"address"},{"name":"_swapVersion","type":"uint256","internalType":"uint256"}],"outputs":[{"name":"","type":"uint256","internalType":"uint256"}],"stateMutability":"nonpayable"},{"type":"function","name":"symbol","inputs":[],"outputs":[{"name":"","type":"string","internalType":"string"}],"stateMutability":"view"},{"type":"function","name":"toggleRestriction","inputs":[{"name":"who","type":"address","internalType":"address"}],"outputs":[],"stateMutability":"nonpayable"},{"type":"function","name":"tokenMarketShare","inputs":[{"name":"","type":"address","internalType":"address"}],"outputs":[{"name":"","type":"uint256","internalType":"uint256"}],"stateMutability":"view"},{"type":"function","name":"tokenSwapVersion","inputs":[{"name":"","type":"address","internalType":"address"}],"outputs":[{"name":"","type":"uint256","internalType":"uint256"}],"stateMutability":"view"},{"type":"function","name":"totalSupply","inputs":[],"outputs":[{"name":"","type":"uint256","internalType":"uint256"}],"stateMutability":"view"},{"type":"function","name":"transfer","inputs":[{"name":"to","type":"address","internalType":"address"},{"name":"amount","type":"uint256","internalType":"uint256"}],"outputs":[{"name":"","type":"bool","internalType":"bool"}],"stateMutability":"nonpayable"},{"type":"function","name":"transferFrom","inputs":[{"name":"from","type":"address","internalType":"address"},{"name":"to","type":"address","internalType":"address"},{"name":"amount","type":"uint256","internalType":"uint256"}],"outputs":[{"name":"","type":"bool","internalType":"bool"}],"stateMutability":"nonpayable"},{"type":"function","name":"transferOwnership","inputs":[{"name":"newOwner","type":"address","internalType":"address"}],"outputs":[],"stateMutability":"nonpayable"},{"type":"function","name":"unpause","inputs":[],"outputs":[],"stateMutability":"nonpayable"},{"type":"function","name":"weth","inputs":[],"outputs":[{"name":"","type":"address","internalType":"contract IWETH"}],"stateMutability":"view"},{"type":"function","name":"wethTransfer","inputs":[{"name":"to","type":"address","internalType":"address"},{"name":"amount","type":"uint256","internalType":"uint256"}],"outputs":[],"stateMutability":"nonpayable"},{"type":"event","name":"Approval","inputs":[{"name":"owner","type":"address","indexed":true,"internalType":"address"},{"name":"spender","type":"address","indexed":true,"internalType":"address"},{"name":"value","type":"uint256","indexed":false,"internalType":"uint256"}],"anonymous":false},{"type":"event","name":"FeeRateSet","inputs":[{"name":"feeRatePerDayScaled","type":"uint256","indexed":true,"internalType":"uint256"}],"anonymous":false},{"type":"event","name":"FeeReceiverSet","inputs":[{"name":"feeReceiver","type":"address","indexed":true,"internalType":"address"}],"anonymous":false},{"type":"event","name":"Initialized","inputs":[{"name":"version","type":"uint8","indexed":false,"internalType":"uint8"}],"anonymous":false},{"type":"event","name":"MethodologistSet","inputs":[{"name":"methodologist","type":"address","indexed":true,"internalType":"address"}],"anonymous":false},{"type":"event","name":"MethodologySet","inputs":[{"name":"methodology","type":"string","indexed":false,"internalType":"string"}],"anonymous":false},{"type":"event","name":"MintFeeToReceiver","inputs":[{"name":"feeReceiver","type":"address","indexed":false,"internalType":"address"},{"name":"timestamp","type":"uint256","indexed":false,"internalType":"uint256"},{"name":"totalSupply","type":"uint256","indexed":false,"internalType":"uint256"},{"name":"amount","type":"uint256","indexed":false,"internalType":"uint256"}],"anonymous":false},{"type":"event","name":"MinterRemoved","inputs":[{"name":"minter","type":"address","indexed":true,"internalType":"address"}],"anonymous":false},{"type":"event","name":"MinterSet","inputs":[{"name":"minter","type":"address","indexed":true,"internalType":"address"}],"anonymous":false},{"type":"event","name":"OwnershipTransferred","inputs":[{"name":"previousOwner","type":"address","indexed":true,"internalType":"address"},{"name":"newOwner","type":"address","indexed":true,"internalType":"address"}],"anonymous":false},{"type":"event","name":"Paused","inputs":[{"name":"account","type":"address","indexed":false,"internalType":"address"}],"anonymous":false},{"type":"event","name":"SupplyCeilingSet","inputs":[{"name":"supplyCeiling","type":"uint256","indexed":false,"internalType":"uint256"}],"anonymous":false},{"type":"event","name":"ToggledRestricted","inputs":[{"name":"account","type":"address","indexed":true,"internalType":"address"},{"name":"isRestricted","type":"bool","indexed":false,"internalType":"bool"}],"anonymous":false},{"type":"event","name":"Transfer","inputs":[{"name":"from","type":"address","indexed":true,"internalType":"address"},{"name":"to","type":"address","indexed":true,"internalType":"address"},{"name":"value","type":"uint256","indexed":false,"internalType":"uint256"}],"anonymous":false},{"type":"event","name":"Unpaused","inputs":[{"name":"account","type":"address","indexed":false,"internalType":"address"}],"anonymous":false}],"bytecode":{"object":"0x608060405234801561001057600080fd5b50612b0d806100206000396000f3fe6080604052600436106102cd5760003560e01c80638da5cb5b11610175578063b631e80b116100dc578063dd62ed3e11610095578063efdcd9741161006f578063efdcd974146108ae578063f2fde38b146108ce578063f734e22a146108ee578063fcaae87b1461090357600080fd5b8063dd62ed3e14610858578063ddca3f4314610878578063ed1c11cb1461088e57600080fd5b8063b631e80b14610777578063c01bc98214610798578063c6bbd5a7146107c9578063cf456ae7146107ea578063d153b60c1461080a578063d90bc2111461082a57600080fd5b8063a457c2d71161012e578063a457c2d7146106a6578063a9059cbb146106c6578063aa271e1a146106e6578063aaa4a18414610717578063b3f0067414610737578063b5ed298a1461075757600080fd5b80638da5cb5b146105fd57806391fe1b921461061b57806395d89b411461063b5780639dc29fac146106505780639eeb1d50146106705780639f8e67bf1461068557600080fd5b806340c10f19116102345780636e01a686116101ed578063744fbc7a116101c7578063744fbc7a1461058757806377524af9146105a857806379e34b4d146105c85780638456cb59146105e857600080fd5b80636e01a6861461051c57806370a082311461053c578063715018a61461057257600080fd5b806340c10f191461046357806345596e2e146104835780635c975abb146104a35780635f370ed0146104bb578063660db484146104db57806368e0d4e1146104fb57600080fd5b80632b52684d116102865780632b52684d146103c25780632fecd589146103d9578063313ce567146103ef578063395093511461040b5780633f4ba83a1461042b5780633fc8cef31461044257600080fd5b806306fdde03146102d9578063095ea7b31461030457806318160ddd14610334578063184a732f146103535780631d5f45f51461036957806323b872dd146103a257600080fd5b366102d457005b600080fd5b3480156102e557600080fd5b506102ee610931565b6040516102fb91906127d6565b60405180910390f35b34801561031057600080fd5b5061032461031f366004612631565b6109c3565b60405190151581526020016102fb565b34801561034057600080fd5b506035545b6040519081526020016102fb565b34801561035f57600080fd5b5061034560fe5481565b34801561037557600080fd5b506101085461038a906001600160a01b031681565b6040516001600160a01b0390911681526020016102fb565b3480156103ae57600080fd5b506103246103bd366004612569565b6109db565b3480156103ce57600080fd5b506103456101035481565b3480156103e557600080fd5b5061034560fd5481565b3480156103fb57600080fd5b50604051601281526020016102fb565b34801561041757600080fd5b50610324610426366004612631565b610ace565b34801561043757600080fd5b50610440610af0565b005b34801561044e57600080fd5b5061010b5461038a906001600160a01b031681565b34801561046f57600080fd5b5061044061047e366004612631565b610b02565b34801561048f57600080fd5b5061044061049e3660046127a4565b610c21565b3480156104af57600080fd5b5060ca5460ff16610324565b3480156104c757600080fd5b506103456104d63660046125a5565b610c64565b3480156104e757600080fd5b506104406104f6366004612514565b610fb3565b34801561050757600080fd5b5061010a5461038a906001600160a01b031681565b34801561052857600080fd5b506104406105373660046127a4565b611019565b34801561054857600080fd5b50610345610557366004612514565b6001600160a01b031660009081526033602052604090205490565b34801561057e57600080fd5b5061044061105e565b34801561059357600080fd5b506101095461038a906001600160a01b031681565b3480156105b457600080fd5b506104406105c3366004612631565b611070565b3480156105d457600080fd5b506104406105e3366004612569565b61112c565b3480156105f457600080fd5b506104406111e4565b34801561060957600080fd5b506065546001600160a01b031661038a565b34801561062757600080fd5b50610440610636366004612678565b6111f4565b34801561064757600080fd5b506102ee6112a7565b34801561065c57600080fd5b5061044061066b366004612631565b6112b6565b34801561067c57600080fd5b506102ee611390565b34801561069157600080fd5b506101005461038a906001600160a01b031681565b3480156106b257600080fd5b506103246106c1366004612631565b61141f565b3480156106d257600080fd5b506103246106e1366004612631565b6114a5565b3480156106f257600080fd5b50610324610701366004612514565b6101016020526000908152604090205460ff1681565b34801561072357600080fd5b50610440610732366004612514565b61152e565b34801561074357600080fd5b5060ff5461038a906001600160a01b031681565b34801561076357600080fd5b50610440610772366004612514565b6115a2565b34801561078357600080fd5b506101075461038a906001600160a01b031681565b3480156107a457600080fd5b506103246107b3366004612514565b6101046020526000908152604090205460ff1681565b3480156107d557600080fd5b5061010c5461038a906001600160a01b031681565b3480156107f657600080fd5b506104406108053660046125fa565b6115f2565b34801561081657600080fd5b5060975461038a906001600160a01b031681565b34801561083657600080fd5b50610345610845366004612514565b6101066020526000908152604090205481565b34801561086457600080fd5b50610345610873366004612536565b6116ab565b34801561088457600080fd5b5061034560fc5481565b34801561089a57600080fd5b506104406108a93660046126b5565b6116d6565b3480156108ba57600080fd5b506104406108c9366004612514565b6118a2565b3480156108da57600080fd5b506104406108e9366004612514565b611907565b3480156108fa57600080fd5b50610440611a2f565b34801561090f57600080fd5b5061034561091e366004612514565b6101056020526000908152604090205481565b60606036805461094090612a4c565b80601f016020809104026020016040519081016040528092919081815260200182805461096c90612a4c565b80156109b95780601f1061098e576101008083540402835291602001916109b9565b820191906000526020600020905b81548152906001019060200180831161099c57829003601f168201915b5050505050905090565b6000336109d1818585611a3f565b5060019392505050565b60006109e5611b63565b336000908152610104602052604090205460ff1615610a1f5760405162461bcd60e51b8152600401610a1690612855565b60405180910390fd5b6001600160a01b0383166000908152610104602052604090205460ff1615610a595760405162461bcd60e51b8152600401610a169061282b565b6001600160a01b0384166000908152610104602052604090205460ff1615610ab85760405162461bcd60e51b8152602060048201526012602482015271199c9bdb481a5cc81c995cdd1c9a58dd195960721b6044820152606401610a16565b610ac3843384611ba9565b6109d1848484611c1d565b6000336109d1818585610ae183836116ab565b610aeb91906129dc565b611a3f565b610af8611dc8565b610b00611e22565b565b610b0a611b63565b336000908152610101602052604090205460ff16610b3a5760405162461bcd60e51b8152600401610a169061288c565b6101035481610b4860355490565b610b5291906129dc565b1115610ba05760405162461bcd60e51b815260206004820152601a60248201527f77696c6c2065786365656420737570706c79206365696c696e670000000000006044820152606401610a16565b6001600160a01b0382166000908152610104602052604090205460ff1615610bda5760405162461bcd60e51b8152600401610a169061282b565b336000908152610104602052604090205460ff1615610c0b5760405162461bcd60e51b8152600401610a1690612855565b610c13611e74565b610c1d8282611fa2565b5050565b610c29611dc8565b610c31611e74565b60fd81905560405181907f45398c451b1a31b88dbaed4e7b89a632f43cc4b50149d437db03a5300afe40d190600090a250565b336000908152610101602052604081205460ff16610c945760405162461bcd60e51b8152600401610a169061288c565b8160031415610e39576101075460405163095ea7b360e01b81526001600160a01b039182166004820152602481018690529087169063095ea7b390604401602060405180830381600087803b158015610cec57600080fd5b505af1158015610d00573d6000803e3d6000fd5b505050506040513d601f19601f82011682018060405250810190610d24919061265b565b5060408051610100810182526001600160a01b03888116825287811660208301908152610bb883850190815287831660608501908152426080860190815260a086018b8152600060c0880181815260e08901828152610107549a5163414bf38960e01b81528a518a166004820152975189166024890152955162ffffff166044880152935187166064870152915160848601525160a4850152905160c48401529051831660e483015292939091169063414bf3899061010401602060405180830381600087803b158015610df757600080fd5b505af1158015610e0b573d6000803e3d6000fd5b505050506040513d601f19601f82011682018060405250810190610e2f91906127bd565b9250610faa915050565b6040805160028082526060820183526000926020830190803683370190505090508681600081518110610e6e57610e6e612a9d565b60200260200101906001600160a01b031690816001600160a01b0316815250508581600181518110610ea257610ea2612a9d565b6001600160a01b0392831660209182029290920101526101095460405163095ea7b360e01b81529082166004820152602481018790529088169063095ea7b390604401602060405180830381600087803b158015610eff57600080fd5b505af1158015610f13573d6000803e3d6000fd5b505050506040513d601f19601f82011682018060405250810190610f37919061265b565b5061010954604051635c11d79560e01b81526001600160a01b0390911690635c11d79590610f7290889060009086908a90429060040161296b565b600060405180830381600087803b158015610f8c57600080fd5b505af1158015610fa0573d6000803e3d6000fd5b5050505060009150505b95945050505050565b610fbb611dc8565b6001600160a01b038116610fce57600080fd5b61010080546001600160a01b0319166001600160a01b0383169081179091556040517f164d8ef0d742b45087644f55c61abeb84557df70d06730591e451f0981e278ca90600090a250565b611021611dc8565b6101038190556040518181527fe35be406f69e9d11d6ac8e5b54bbc8b6c4baf2fa2359f84a56baa5ea5d07dc8f906020015b60405180910390a150565b611066611dc8565b610b006000612063565b336000908152610101602052604090205460ff166110a05760405162461bcd60e51b8152600401610a169061288c565b61010b5460405163a9059cbb60e01b81526001600160a01b038481166004830152602482018490529091169063a9059cbb90604401602060405180830381600087803b1580156110ef57600080fd5b505af1158015611103573d6000803e3d6000fd5b505050506040513d601f19601f82011682018060405250810190611127919061265b565b505050565b336000908152610101602052604090205460ff1661115c5760405162461bcd60e51b8152600401610a169061288c565b60405163095ea7b360e01b81526001600160a01b0383811660048301526024820183905284169063095ea7b390604401602060405180830381600087803b1580156111a657600080fd5b505af11580156111ba573d6000803e3d6000fd5b505050506040513d601f19601f820116820180604052508101906111de919061265b565b50505050565b6111ec611dc8565b610b006120b5565b610100546001600160a01b031633146112635760405162461bcd60e51b815260206004820152602b60248201527f496e646578546f6b656e3a2063616c6c6572206973206e6f7420746865206d6560448201526a1d1a1bd91bdb1bd9da5cdd60aa1b6064820152608401610a16565b8051611277906101029060208401906123d2565b507fe6be68107100e39cb16d675c1086a4d5479fbd01108d721dabbccaa2249b995f8160405161105391906127d6565b60606037805461094090612a4c565b6112be611b63565b336000908152610101602052604090205460ff166112ee5760405162461bcd60e51b8152600401610a169061288c565b6001600160a01b0382166000908152610104602052604090205460ff161561134d5760405162461bcd60e51b8152602060048201526012602482015271199c9bdb481a5cc81c995cdd1c9a58dd195960721b6044820152606401610a16565b336000908152610104602052604090205460ff161561137e5760405162461bcd60e51b8152600401610a1690612855565b611386611e74565b610c1d82826120f2565b610102805461139e90612a4c565b80601f01602080910402602001604051908101604052809291908181526020018280546113ca90612a4c565b80156114175780601f106113ec57610100808354040283529160200191611417565b820191906000526020600020905b8154815290600101906020018083116113fa57829003601f168201915b505050505081565b6000338161142d82866116ab565b90508381101561148d5760405162461bcd60e51b815260206004820152602560248201527f45524332303a2064656372656173656420616c6c6f77616e63652062656c6f77604482015264207a65726f60d81b6064820152608401610a16565b61149a8286868403611a3f565b506001949350505050565b60006114af611b63565b336000908152610104602052604090205460ff16156114e05760405162461bcd60e51b8152600401610a1690612855565b6001600160a01b0383166000908152610104602052604090205460ff161561151a5760405162461bcd60e51b8152600401610a169061282b565b611525338484611c1d565b50600192915050565b611536611dc8565b6001600160a01b0381166000818152610104602052604090819020805460ff19811660ff9182161590811790925591517f14ddf324cc5d8b14a3c3b12c84b0a7d578d72c8d60655c06d6a457e71431d5ee9261159792161515815260200190565b60405180910390a250565b6115aa611dc8565b6001600160a01b0381166115d05760405162461bcd60e51b8152600401610a16906128d0565b609780546001600160a01b0319166001600160a01b0392909216919091179055565b6115fa611dc8565b6001600160a01b03821661160d57600080fd5b6001600160a01b038216600090815261010160205260409020805460ff19168215801591909117909155611673576040516001600160a01b038316907f726b590ef91a8c76ad05bbe91a57ef84605276528f49cd47d787f558a4e755b690600090a25050565b6040516001600160a01b038316907fe94479a9f7e1952cc78f2d6baab678adc1b772d936c6583def489e524cb6669290600090a25050565b6001600160a01b03918216600090815260346020908152604080832093909416825291909152205490565b600054610100900460ff16158080156116f65750600054600160ff909116105b806117105750303b158015611710575060005460ff166001145b6117735760405162461bcd60e51b815260206004820152602e60248201527f496e697469616c697a61626c653a20636f6e747261637420697320616c72656160448201526d191e481a5b9a5d1a585b1a5e995960921b6064820152608401610a16565b6000805460ff191660011790558015611796576000805461ff0019166101001790555b6001600160a01b0389166117a957600080fd5b6117b1612226565b6117b9612255565b6117c38c8c612284565b6117cb6122b5565b60fd8a905560ff80546001600160a01b03199081166001600160a01b038c8116919091179092556101038a90554260fe5561010b805482168a841617905561010c8054821689841617905561010780548216888416179055610108805482168784161790556101098054821686841617905561010a80549091169184169190911790558015611894576000805461ff0019169055604051600181527f7f26b83ff96e1f2b6a682f133852f6798a09c465da95921460cefb38474024989060200160405180910390a15b505050505050505050505050565b6118aa611dc8565b6001600160a01b0381166118bd57600080fd5b60ff80546001600160a01b0319166001600160a01b0383169081179091556040517fbdf37c276f641820b141429d245add2552b4118c0866e5a78638e3de5ef18d9d90600090a250565b6001600160a01b03811661192d5760405162461bcd60e51b8152600401610a16906128d0565b6097546001600160a01b038281169116146119a55760405162461bcd60e51b815260206004820152603260248201527f50726f706f7361626c654f776e61626c653a206e6577206f776e6572206973206044820152713737ba10383937b837b9b2b21037bbb732b960711b6064820152608401610a16565b6001600160a01b0381163314611a235760405162461bcd60e51b815260206004820152603a60248201527f50726f706f7361626c654f776e61626c653a20746869732063616c6c206d757360448201527f74206265206d61646520627920746865206e6577206f776e65720000000000006064820152608401610a16565b611a2c81612063565b50565b611a37611dc8565b610b00611e74565b6001600160a01b038316611aa15760405162461bcd60e51b8152602060048201526024808201527f45524332303a20617070726f76652066726f6d20746865207a65726f206164646044820152637265737360e01b6064820152608401610a16565b6001600160a01b038216611b025760405162461bcd60e51b815260206004820152602260248201527f45524332303a20617070726f766520746f20746865207a65726f206164647265604482015261737360f01b6064820152608401610a16565b6001600160a01b0383811660008181526034602090815260408083209487168084529482529182902085905590518481527f8c5be1e5ebec7d5bd14f71427d1e84f3dd0314c0f7b2291e5b200ac8c7c3b925910160405180910390a3505050565b60ca5460ff1615610b005760405162461bcd60e51b815260206004820152601060248201526f14185d5cd8589b194e881c185d5cd95960821b6044820152606401610a16565b6000611bb584846116ab565b905060001981146111de5781811015611c105760405162461bcd60e51b815260206004820152601d60248201527f45524332303a20696e73756666696369656e7420616c6c6f77616e63650000006044820152606401610a16565b6111de8484848403611a3f565b6001600160a01b038316611c815760405162461bcd60e51b815260206004820152602560248201527f45524332303a207472616e736665722066726f6d20746865207a65726f206164604482015264647265737360d81b6064820152608401610a16565b6001600160a01b038216611ce35760405162461bcd60e51b815260206004820152602360248201527f45524332303a207472616e7366657220746f20746865207a65726f206164647260448201526265737360e81b6064820152608401610a16565b6001600160a01b03831660009081526033602052604090205481811015611d5b5760405162461bcd60e51b815260206004820152602660248201527f45524332303a207472616e7366657220616d6f756e7420657863656564732062604482015265616c616e636560d01b6064820152608401610a16565b6001600160a01b0380851660008181526033602052604080822086860390559286168082529083902080548601905591517fddf252ad1be2c89b69c2b068fc378daa952ba7f163c4a11628f55a4df523b3ef90611dbb9086815260200190565b60405180910390a36111de565b6065546001600160a01b03163314610b005760405162461bcd60e51b815260206004820181905260248201527f4f776e61626c653a2063616c6c6572206973206e6f7420746865206f776e65726044820152606401610a16565b611e2a6122dc565b60ca805460ff191690557f5db9ee0a495bf2e6ff9c91a7834c1ba4fdd244a5e8aa4e537bd38aeae4b073aa335b6040516001600160a01b03909116815260200160405180910390a1565b60006201518060fe5442611e889190612a35565b611e9291906129f4565b905060018110611a2c576000611ea760355490565b60fd54909150819060005b84811015611eec5768056bc75e2d63100000611ece8385612a16565b611ed891906129f4565b611ee290846129dc565b9250600101611eb2565b506000611ef98484612a35565b9050611f088562015180612a16565b60fe6000828254611f1991906129dc565b909155505060ff54611f34906001600160a01b031682611fa2565b60ff547f07982395c678b2ffc23fcf59aaec243ca79418c285af0d0e10b4e65bc4189f4c906001600160a01b031642611f6c60355490565b604080516001600160a01b0390941684526020840192909252908201526060810183905260800160405180910390a15050505050565b6001600160a01b038216611ff85760405162461bcd60e51b815260206004820152601f60248201527f45524332303a206d696e7420746f20746865207a65726f2061646472657373006044820152606401610a16565b806035600082825461200a91906129dc565b90915550506001600160a01b0382166000818152603360209081526040808320805486019055518481527fddf252ad1be2c89b69c2b068fc378daa952ba7f163c4a11628f55a4df523b3ef910160405180910390a35050565b606580546001600160a01b038381166001600160a01b0319831681179093556040519116919082907f8be0079c531659141344cd1fd0a4f28419497f9722a3daafe3b4186f6b6457e090600090a35050565b6120bd611b63565b60ca805460ff191660011790557f62e78cea01bee320cd4e420270b5ea74000d11b0c9f74754ebdbfc544b05a258611e573390565b6001600160a01b0382166121525760405162461bcd60e51b815260206004820152602160248201527f45524332303a206275726e2066726f6d20746865207a65726f206164647265736044820152607360f81b6064820152608401610a16565b6001600160a01b038216600090815260336020526040902054818110156121c65760405162461bcd60e51b815260206004820152602260248201527f45524332303a206275726e20616d6f756e7420657863656564732062616c616e604482015261636560f01b6064820152608401610a16565b6001600160a01b03831660008181526033602090815260408083208686039055603580548790039055518581529192917fddf252ad1be2c89b69c2b068fc378daa952ba7f163c4a11628f55a4df523b3ef910160405180910390a3505050565b600054610100900460ff1661224d5760405162461bcd60e51b8152600401610a1690612920565b610b00612325565b600054610100900460ff1661227c5760405162461bcd60e51b8152600401610a1690612920565b610b00612355565b600054610100900460ff166122ab5760405162461bcd60e51b8152600401610a1690612920565b610c1d8282612388565b600054610100900460ff16610b005760405162461bcd60e51b8152600401610a1690612920565b60ca5460ff16610b005760405162461bcd60e51b815260206004820152601460248201527314185d5cd8589b194e881b9bdd081c185d5cd95960621b6044820152606401610a16565b600054610100900460ff1661234c5760405162461bcd60e51b8152600401610a1690612920565b610b0033612063565b600054610100900460ff1661237c5760405162461bcd60e51b8152600401610a1690612920565b60ca805460ff19169055565b600054610100900460ff166123af5760405162461bcd60e51b8152600401610a1690612920565b81516123c29060369060208501906123d2565b5080516111279060379060208401905b8280546123de90612a4c565b90600052602060002090601f0160209004810192826124005760008555612446565b82601f1061241957805160ff1916838001178555612446565b82800160010185558215612446579182015b8281111561244657825182559160200191906001019061242b565b50612452929150612456565b5090565b5b808211156124525760008155600101612457565b80356001600160a01b038116811461248257600080fd5b919050565b600082601f83011261249857600080fd5b813567ffffffffffffffff808211156124b3576124b3612ab3565b604051601f8301601f19908116603f011681019082821181831017156124db576124db612ab3565b816040528381528660208588010111156124f457600080fd5b836020870160208301376000602085830101528094505050505092915050565b60006020828403121561252657600080fd5b61252f8261246b565b9392505050565b6000806040838503121561254957600080fd5b6125528361246b565b91506125606020840161246b565b90509250929050565b60008060006060848603121561257e57600080fd5b6125878461246b565b92506125956020850161246b565b9150604084013590509250925092565b600080600080600060a086880312156125bd57600080fd5b6125c68661246b565b94506125d46020870161246b565b9350604086013592506125e96060870161246b565b949793965091946080013592915050565b6000806040838503121561260d57600080fd5b6126168361246b565b9150602083013561262681612ac9565b809150509250929050565b6000806040838503121561264457600080fd5b61264d8361246b565b946020939093013593505050565b60006020828403121561266d57600080fd5b815161252f81612ac9565b60006020828403121561268a57600080fd5b813567ffffffffffffffff8111156126a157600080fd5b6126ad84828501612487565b949350505050565b60008060008060008060008060008060006101608c8e0312156126d757600080fd5b67ffffffffffffffff808d3511156126ee57600080fd5b6126fb8e8e358f01612487565b9b508060208e0135111561270e57600080fd5b5061271f8d60208e01358e01612487565b995060408c0135985061273460608d0161246b565b975060808c0135965061274960a08d0161246b565b955061275760c08d0161246b565b945061276560e08d0161246b565b93506127746101008d0161246b565b92506127836101208d0161246b565b91506127926101408d0161246b565b90509295989b509295989b9093969950565b6000602082840312156127b657600080fd5b5035919050565b6000602082840312156127cf57600080fd5b5051919050565b600060208083528351808285015260005b81811015612803578581018301518582016040015282016127e7565b81811115612815576000604083870101525b50601f01601f1916929092016040019392505050565b60208082526010908201526f1d1bc81a5cc81c995cdd1c9a58dd195960821b604082015260600190565b60208082526018908201527f6d73672e73656e64657220697320726573747269637465640000000000000000604082015260600190565b60208082526024908201527f496e646578546f6b656e3a2063616c6c6572206973206e6f7420746865206d69604082015263373a32b960e11b606082015260800190565b60208082526030908201527f50726f706f7361626c654f776e61626c653a206e6577206f776e65722069732060408201526f746865207a65726f206164647265737360801b606082015260800190565b6020808252602b908201527f496e697469616c697a61626c653a20636f6e7472616374206973206e6f74206960408201526a6e697469616c697a696e6760a81b606082015260800190565b600060a082018783526020878185015260a0604085015281875180845260c086019150828901935060005b818110156129bb5784516001600160a01b031683529383019391830191600101612996565b50506001600160a01b03969096166060850152505050608001529392505050565b600082198211156129ef576129ef612a87565b500190565b600082612a1157634e487b7160e01b600052601260045260246000fd5b500490565b6000816000190483118215151615612a3057612a30612a87565b500290565b600082821015612a4757612a47612a87565b500390565b600181811c90821680612a6057607f821691505b60208210811415612a8157634e487b7160e01b600052602260045260246000fd5b50919050565b634e487b7160e01b600052601160045260246000fd5b634e487b7160e01b600052603260045260246000fd5b634e487b7160e01b600052604160045260246000fd5b8015158114611a2c57600080fdfea2646970667358221220c7958d1555bfd8c09af22928fc21687e3372a161b657dc8fd452a0862191637f64736f6c63430008070033","linkReferences":{}},"methodIdentifiers":{"allowance(address,address)":"dd62ed3e","approve(address,uint256)":"095ea7b3","approveSwapToken(address,address,uint256)":"79e34b4d","balanceOf(address)":"70a08231","burn(address,uint256)":"9dc29fac","decimals()":"313ce567","decreaseAllowance(address,uint256)":"a457c2d7","factoryV2()":"68e0d4e1","factoryV3()":"1d5f45f5","fee()":"ddca3f43","feeRatePerDayScaled()":"2fecd589","feeReceiver()":"b3f00674","feeTimestamp()":"184a732f","increaseAllowance(address,uint256)":"39509351","initialize(string,string,uint256,address,uint256,address,address,address,address,address,address)":"ed1c11cb","isMinter(address)":"aa271e1a","isRestricted(address)":"c01bc982","methodologist()":"9f8e67bf","methodology()":"9eeb1d50","mint(address,uint256)":"40c10f19","mintToFeeReceiver()":"f734e22a","name()":"06fdde03","owner()":"8da5cb5b","pause()":"8456cb59","paused()":"5c975abb","proposeOwner(address)":"b5ed298a","proposedOwner()":"d153b60c","quoter()":"c6bbd5a7","renounceOwnership()":"715018a6","setFeeRate(uint256)":"45596e2e","setFeeReceiver(address)":"efdcd974","setMethodologist(address)":"660db484","setMethodology(string)":"91fe1b92","setMinter(address,bool)":"cf456ae7","setSupplyCeiling(uint256)":"6e01a686","supplyCeiling()":"2b52684d","swapRouterV2()":"744fbc7a","swapRouterV3()":"b631e80b","swapSingle(address,address,uint256,address,uint256)":"5f370ed0","symbol()":"95d89b41","toggleRestriction(address)":"aaa4a184","tokenMarketShare(address)":"fcaae87b","tokenSwapVersion(address)":"d90bc211","totalSupply()":"18160ddd","transfer(address,uint256)":"a9059cbb","transferFrom(address,address,uint256)":"23b872dd","transferOwnership(address)":"f2fde38b","unpause()":"3f4ba83a","weth()":"3fc8cef3","wethTransfer(address,uint256)":"77524af9"},"id":36}