{"abi":[{"type":"receive","stateMutability":"payable"},{"type":"function","name":"allowance","inputs":[{"name":"owner","type":"address","internalType":"address"},{"name":"spender","type":"address","internalType":"address"}],"outputs":[{"name":"","type":"uint256","internalType":"uint256"}],"stateMutability":"view"},{"type":"function","name":"approve","inputs":[{"name":"spender","type":"address","internalType":"address"},{"name":"amount","type":"uint256","internalType":"uint256"}],"outputs":[{"name":"","type":"bool","internalType":"bool"}],"stateMutability":"nonpayable"},{"type":"function","name":"balanceOf","inputs":[{"name":"account","type":"address","internalType":"address"}],"outputs":[{"name":"","type":"uint256","internalType":"uint256"}],"stateMutability":"view"},{"type":"function","name":"burn","inputs":[{"name":"from","type":"address","internalType":"address"},{"name":"amount","type":"uint256","internalType":"uint256"}],"outputs":[],"stateMutability":"nonpayable"},{"type":"function","name":"decimals","inputs":[],"outputs":[{"name":"","type":"uint8","internalType":"uint8"}],"stateMutability":"view"},{"type":"function","name":"decreaseAllowance","inputs":[{"name":"spender","type":"address","internalType":"address"},{"name":"subtractedValue","type":"uint256","internalType":"uint256"}],"outputs":[{"name":"","type":"bool","internalType":"bool"}],"stateMutability":"nonpayable"},{"type":"function","name":"fee","inputs":[],"outputs":[{"name":"","type":"uint256","internalType":"uint256"}],"stateMutability":"view"},{"type":"function","name":"feeRatePerDayScaled","inputs":[],"outputs":[{"name":"","type":"uint256","internalType":"uint256"}],"stateMutability":"view"},{"type":"function","name":"feeReceiver","inputs":[],"outputs":[{"name":"","type":"address","internalType":"address"}],"stateMutability":"view"},{"type":"function","name":"feeTimestamp","inputs":[],"outputs":[{"name":"","type":"uint256","internalType":"uint256"}],"stateMutability":"view"},{"type":"function","name":"increaseAllowance","inputs":[{"name":"spender","type":"address","internalType":"address"},{"name":"addedValue","type":"uint256","internalType":"uint256"}],"outputs":[{"name":"","type":"bool","internalType":"bool"}],"stateMutability":"nonpayable"},{"type":"function","name":"initialize","inputs":[{"name":"tokenName","type":"string","internalType":"string"},{"name":"tokenSymbol","type":"string","internalType":"string"},{"name":"_feeRatePerDayScaled","type":"uint256","internalType":"uint256"},{"name":"_feeReceiver","type":"address","internalType":"address"},{"name":"_supplyCeiling","type":"uint256","internalType":"uint256"}],"outputs":[],"stateMutability":"nonpayable"},{"type":"function","name":"isMinter","inputs":[{"name":"","type":"address","internalType":"address"}],"outputs":[{"name":"","type":"bool","internalType":"bool"}],"stateMutability":"view"},{"type":"function","name":"isRestricted","inputs":[{"name":"","type":"address","internalType":"address"}],"outputs":[{"name":"","type":"bool","internalType":"bool"}],"stateMutability":"view"},{"type":"function","name":"methodologist","inputs":[],"outputs":[{"name":"","type":"address","internalType":"address"}],"stateMutability":"view"},{"type":"function","name":"methodology","inputs":[],"outputs":[{"name":"","type":"string","internalType":"string"}],"stateMutability":"view"},{"type":"function","name":"mint","inputs":[{"name":"to","type":"address","internalType":"address"},{"name":"amount","type":"uint256","internalType":"uint256"}],"outputs":[],"stateMutability":"nonpayable"},{"type":"function","name":"mintToFeeReceiver","inputs":[],"outputs":[],"stateMutability":"nonpayable"},{"type":"function","name":"name","inputs":[],"outputs":[{"name":"","type":"string","internalType":"string"}],"stateMutability":"view"},{"type":"function","name":"owner","inputs":[],"outputs":[{"name":"","type":"address","internalType":"address"}],"stateMutability":"view"},{"type":"function","name":"pause","inputs":[],"outputs":[],"stateMutability":"nonpayable"},{"type":"function","name":"paused","inputs":[],"outputs":[{"name":"","type":"bool","internalType":"bool"}],"stateMutability":"view"},{"type":"function","name":"proposeOwner","inputs":[{"name":"_proposedOwner","type":"address","internalType":"address"}],"outputs":[],"stateMutability":"nonpayable"},{"type":"function","name":"proposedOwner","inputs":[],"outputs":[{"name":"","type":"address","internalType":"address"}],"stateMutability":"view"},{"type":"function","name":"renounceOwnership","inputs":[],"outputs":[],"stateMutability":"nonpayable"},{"type":"function","name":"setFeeRate","inputs":[{"name":"_feeRatePerDayScaled","type":"uint256","internalType":"uint256"}],"outputs":[],"stateMutability":"nonpayable"},{"type":"function","name":"setFeeReceiver","inputs":[{"name":"_feeReceiver","type":"address","internalType":"address"}],"outputs":[],"stateMutability":"nonpayable"},{"type":"function","name":"setMethodologist","inputs":[{"name":"_methodologist","type":"address","internalType":"address"}],"outputs":[],"stateMutability":"nonpayable"},{"type":"function","name":"setMethodology","inputs":[{"name":"_methodology","type":"string","internalType":"string"}],"outputs":[],"stateMutability":"nonpayable"},{"type":"function","name":"setMinter","inputs":[{"name":"_minter","type":"address","internalType":"address"},{"name":"_enabled","type":"bool","internalType":"bool"}],"outputs":[],"stateMutability":"nonpayable"},{"type":"function","name":"setSupplyCeiling","inputs":[{"name":"_supplyCeiling","type":"uint256","internalType":"uint256"}],"outputs":[],"stateMutability":"nonpayable"},{"type":"function","name":"supplyCeiling","inputs":[],"outputs":[{"name":"","type":"uint256","internalType":"uint256"}],"stateMutability":"view"},{"type":"function","name":"symbol","inputs":[],"outputs":[{"name":"","type":"string","internalType":"string"}],"stateMutability":"view"},{"type":"function","name":"toggleRestriction","inputs":[{"name":"who","type":"address","internalType":"address"}],"outputs":[],"stateMutability":"nonpayable"},{"type":"function","name":"totalSupply","inputs":[],"outputs":[{"name":"","type":"uint256","internalType":"uint256"}],"stateMutability":"view"},{"type":"function","name":"transfer","inputs":[{"name":"to","type":"address","internalType":"address"},{"name":"amount","type":"uint256","internalType":"uint256"}],"outputs":[{"name":"","type":"bool","internalType":"bool"}],"stateMutability":"nonpayable"},{"type":"function","name":"transferFrom","inputs":[{"name":"from","type":"address","internalType":"address"},{"name":"to","type":"address","internalType":"address"},{"name":"amount","type":"uint256","internalType":"uint256"}],"outputs":[{"name":"","type":"bool","internalType":"bool"}],"stateMutability":"nonpayable"},{"type":"function","name":"transferOwnership","inputs":[{"name":"newOwner","type":"address","internalType":"address"}],"outputs":[],"stateMutability":"nonpayable"},{"type":"function","name":"unpause","inputs":[],"outputs":[],"stateMutability":"nonpayable"},{"type":"event","name":"Approval","inputs":[{"name":"owner","type":"address","indexed":true,"internalType":"address"},{"name":"spender","type":"address","indexed":true,"internalType":"address"},{"name":"value","type":"uint256","indexed":false,"internalType":"uint256"}],"anonymous":false},{"type":"event","name":"FeeRateSet","inputs":[{"name":"feeRatePerDayScaled","type":"uint256","indexed":true,"internalType":"uint256"}],"anonymous":false},{"type":"event","name":"FeeReceiverSet","inputs":[{"name":"feeReceiver","type":"address","indexed":true,"internalType":"address"}],"anonymous":false},{"type":"event","name":"Initialized","inputs":[{"name":"version","type":"uint8","indexed":false,"internalType":"uint8"}],"anonymous":false},{"type":"event","name":"MethodologistSet","inputs":[{"name":"methodologist","type":"address","indexed":true,"internalType":"address"}],"anonymous":false},{"type":"event","name":"MethodologySet","inputs":[{"name":"methodology","type":"string","indexed":false,"internalType":"string"}],"anonymous":false},{"type":"event","name":"MintFeeToReceiver","inputs":[{"name":"feeReceiver","type":"address","indexed":false,"internalType":"address"},{"name":"timestamp","type":"uint256","indexed":false,"internalType":"uint256"},{"name":"totalSupply","type":"uint256","indexed":false,"internalType":"uint256"},{"name":"amount","type":"uint256","indexed":false,"internalType":"uint256"}],"anonymous":false},{"type":"event","name":"MinterRemoved","inputs":[{"name":"minter","type":"address","indexed":true,"internalType":"address"}],"anonymous":false},{"type":"event","name":"MinterSet","inputs":[{"name":"minter","type":"address","indexed":true,"internalType":"address"}],"anonymous":false},{"type":"event","name":"OwnershipTransferred","inputs":[{"name":"previousOwner","type":"address","indexed":true,"internalType":"address"},{"name":"newOwner","type":"address","indexed":true,"internalType":"address"}],"anonymous":false},{"type":"event","name":"Paused","inputs":[{"name":"account","type":"address","indexed":false,"internalType":"address"}],"anonymous":false},{"type":"event","name":"SupplyCeilingSet","inputs":[{"name":"supplyCeiling","type":"uint256","indexed":false,"internalType":"uint256"}],"anonymous":false},{"type":"event","name":"ToggledRestricted","inputs":[{"name":"account","type":"address","indexed":true,"internalType":"address"},{"name":"isRestricted","type":"bool","indexed":false,"internalType":"bool"}],"anonymous":false},{"type":"event","name":"Transfer","inputs":[{"name":"from","type":"address","indexed":true,"internalType":"address"},{"name":"to","type":"address","indexed":true,"internalType":"address"},{"name":"value","type":"uint256","indexed":false,"internalType":"uint256"}],"anonymous":false},{"type":"event","name":"Unpaused","inputs":[{"name":"account","type":"address","indexed":false,"internalType":"address"}],"anonymous":false}],"bytecode":{"object":"0x6080604052348015600e575f80fd5b506142958061001c5f395ff3fe608060405260043610610233575f3560e01c806391fe1b921161012d578063b5ed298a116100aa578063ddca3f431161006e578063ddca3f4314610826578063efdcd97414610850578063f2fde38b14610878578063f734e22a146108a0578063fede0276146108b65761023a565b8063b5ed298a14610734578063c01bc9821461075c578063cf456ae714610798578063d153b60c146107c0578063dd62ed3e146107ea5761023a565b8063a457c2d7116100f1578063a457c2d71461062e578063a9059cbb1461066a578063aa271e1a146106a6578063aaa4a184146106e2578063b3f006741461070a5761023a565b806391fe1b921461056057806395d89b41146105885780639dc29fac146105b25780639eeb1d50146105da5780639f8e67bf146106045761023a565b80633f4ba83a116101bb5780636e01a6861161017f5780636e01a686146104a657806370a08231146104ce578063715018a61461050a5780638456cb59146105205780638da5cb5b146105365761023a565b80633f4ba83a146103ee57806340c10f191461040457806345596e2e1461042c5780635c975abb14610454578063660db4841461047e5761023a565b806323b872dd1161020257806323b872dd146102f85780632b52684d146103345780632fecd5891461035e578063313ce5671461038857806339509351146103b25761023a565b806306fdde031461023e578063095ea7b31461026857806318160ddd146102a4578063184a732f146102ce5761023a565b3661023a57005b5f80fd5b348015610249575f80fd5b506102526108de565b60405161025f9190612cb5565b60405180910390f35b348015610273575f80fd5b5061028e60048036038101906102899190612d73565b61096e565b60405161029b9190612dcb565b60405180910390f35b3480156102af575f80fd5b506102b8610990565b6040516102c59190612df3565b60405180910390f35b3480156102d9575f80fd5b506102e2610999565b6040516102ef9190612df3565b60405180910390f35b348015610303575f80fd5b5061031e60048036038101906103199190612e0c565b61099f565b60405161032b9190612dcb565b60405180910390f35b34801561033f575f80fd5b50610348610b6a565b6040516103559190612df3565b60405180910390f35b348015610369575f80fd5b50610372610b71565b60405161037f9190612df3565b60405180910390f35b348015610393575f80fd5b5061039c610b77565b6040516103a99190612e77565b60405180910390f35b3480156103bd575f80fd5b506103d860048036038101906103d39190612d73565b610b7f565b6040516103e59190612dcb565b60405180910390f35b3480156103f9575f80fd5b50610402610bb5565b005b34801561040f575f80fd5b5061042a60048036038101906104259190612d73565b610bc7565b005b348015610437575f80fd5b50610452600480360381019061044d9190612e90565b610ddd565b005b34801561045f575f80fd5b50610468610e24565b6040516104759190612dcb565b60405180910390f35b348015610489575f80fd5b506104a4600480360381019061049f9190612ebb565b610e39565b005b3480156104b1575f80fd5b506104cc60048036038101906104c79190612e90565b610eff565b005b3480156104d9575f80fd5b506104f460048036038101906104ef9190612ebb565b610f49565b6040516105019190612df3565b60405180910390f35b348015610515575f80fd5b5061051e610f8f565b005b34801561052b575f80fd5b50610534610fa2565b005b348015610541575f80fd5b5061054a610fb4565b6040516105579190612ef5565b60405180910390f35b34801561056b575f80fd5b506105866004803603810190610581919061303a565b610fdc565b005b348015610593575f80fd5b5061059c6110b7565b6040516105a99190612cb5565b60405180910390f35b3480156105bd575f80fd5b506105d860048036038101906105d39190612d73565b611147565b005b3480156105e5575f80fd5b506105ee611305565b6040516105fb9190612cb5565b60405180910390f35b34801561060f575f80fd5b50610618611392565b6040516106259190612ef5565b60405180910390f35b348015610639575f80fd5b50610654600480360381019061064f9190612d73565b6113b8565b6040516106619190612dcb565b60405180910390f35b348015610675575f80fd5b50610690600480360381019061068b9190612d73565b61142d565b60405161069d9190612dcb565b60405180910390f35b3480156106b1575f80fd5b506106cc60048036038101906106c79190612ebb565b611561565b6040516106d99190612dcb565b60405180910390f35b3480156106ed575f80fd5b5061070860048036038101906107039190612ebb565b61157f565b005b348015610715575f80fd5b5061071e6116c2565b60405161072b9190612ef5565b60405180910390f35b34801561073f575f80fd5b5061075a60048036038101906107559190612ebb565b6116e7565b005b348015610767575f80fd5b50610782600480360381019061077d9190612ebb565b6117a0565b60405161078f9190612dcb565b60405180910390f35b3480156107a3575f80fd5b506107be60048036038101906107b991906130ab565b6117be565b005b3480156107cb575f80fd5b506107d46118e8565b6040516107e19190612ef5565b60405180910390f35b3480156107f5575f80fd5b50610810600480360381019061080b91906130e9565b61190d565b60405161081d9190612df3565b60405180910390f35b348015610831575f80fd5b5061083a61198f565b6040516108479190612df3565b60405180910390f35b34801561085b575f80fd5b5061087660048036038101906108719190612ebb565b611995565b005b348015610883575f80fd5b5061089e60048036038101906108999190612ebb565b611a5a565b005b3480156108ab575f80fd5b506108b4611bd1565b005b3480156108c1575f80fd5b506108dc60048036038101906108d79190613127565b611be3565b005b6060603680546108ed90613203565b80601f016020809104026020016040519081016040528092919081815260200182805461091990613203565b80156109645780601f1061093b57610100808354040283529160200191610964565b820191905f5260205f20905b81548152906001019060200180831161094757829003601f168201915b5050505050905090565b5f80610978611dc7565b9050610985818585611dce565b600191505092915050565b5f603554905090565b60fe5481565b5f6109a8611f91565b6101045f3373ffffffffffffffffffffffffffffffffffffffff1673ffffffffffffffffffffffffffffffffffffffff1681526020019081526020015f205f9054906101000a900460ff1615610a33576040517f08c379a0000000000000000000000000000000000000000000000000000000008152600401610a2a9061327d565b60405180910390fd5b6101045f8473ffffffffffffffffffffffffffffffffffffffff1673ffffffffffffffffffffffffffffffffffffffff1681526020019081526020015f205f9054906101000a900460ff1615610abe576040517f08c379a0000000000000000000000000000000000000000000000000000000008152600401610ab5906132e5565b60405180910390fd5b6101045f8573ffffffffffffffffffffffffffffffffffffffff1673ffffffffffffffffffffffffffffffffffffffff1681526020019081526020015f205f9054906101000a900460ff1615610b49576040517f08c379a0000000000000000000000000000000000000000000000000000000008152600401610b409061334d565b60405180910390fd5b610b54843384611fdb565b610b5f848484612066565b600190509392505050565b6101035481565b60fd5481565b5f6012905090565b5f80610b89611dc7565b9050610baa818585610b9b858961190d565b610ba59190613398565b611dce565b600191505092915050565b610bbd6122d5565b610bc5612353565b565b610bcf611f91565b6101015f3373ffffffffffffffffffffffffffffffffffffffff1673ffffffffffffffffffffffffffffffffffffffff1681526020019081526020015f205f9054906101000a900460ff16610c59576040517f08c379a0000000000000000000000000000000000000000000000000000000008152600401610c509061343b565b60405180910390fd5b6101035481610c66610990565b610c709190613398565b1115610cb1576040517f08c379a0000000000000000000000000000000000000000000000000000000008152600401610ca8906134a3565b60405180910390fd5b6101045f8373ffffffffffffffffffffffffffffffffffffffff1673ffffffffffffffffffffffffffffffffffffffff1681526020019081526020015f205f9054906101000a900460ff1615610d3c576040517f08c379a0000000000000000000000000000000000000000000000000000000008152600401610d33906132e5565b60405180910390fd5b6101045f3373ffffffffffffffffffffffffffffffffffffffff1673ffffffffffffffffffffffffffffffffffffffff1681526020019081526020015f205f9054906101000a900460ff1615610dc7576040517f08c379a0000000000000000000000000000000000000000000000000000000008152600401610dbe9061327d565b60405180910390fd5b610dcf6123b4565b610dd98282612500565b5050565b610de56122d5565b610ded6123b4565b8060fd81905550807f45398c451b1a31b88dbaed4e7b89a632f43cc4b50149d437db03a5300afe40d160405160405180910390a250565b5f60ca5f9054906101000a900460ff16905090565b610e416122d5565b5f73ffffffffffffffffffffffffffffffffffffffff168173ffffffffffffffffffffffffffffffffffffffff1603610e78575f80fd5b806101005f6101000a81548173ffffffffffffffffffffffffffffffffffffffff021916908373ffffffffffffffffffffffffffffffffffffffff1602179055508073ffffffffffffffffffffffffffffffffffffffff167f164d8ef0d742b45087644f55c61abeb84557df70d06730591e451f0981e278ca60405160405180910390a250565b610f076122d5565b80610103819055507fe35be406f69e9d11d6ac8e5b54bbc8b6c4baf2fa2359f84a56baa5ea5d07dc8f81604051610f3e9190612df3565b60405180910390a150565b5f60335f8373ffffffffffffffffffffffffffffffffffffffff1673ffffffffffffffffffffffffffffffffffffffff1681526020019081526020015f20549050919050565b610f976122d5565b610fa05f61264f565b565b610faa6122d5565b610fb2612712565b565b5f60655f9054906101000a900473ffffffffffffffffffffffffffffffffffffffff16905090565b6101005f9054906101000a900473ffffffffffffffffffffffffffffffffffffffff1673ffffffffffffffffffffffffffffffffffffffff163373ffffffffffffffffffffffffffffffffffffffff161461106c576040517f08c379a000000000000000000000000000000000000000000000000000000000815260040161106390613531565b60405180910390fd5b80610102908161107c91906136ec565b507fe6be68107100e39cb16d675c1086a4d5479fbd01108d721dabbccaa2249b995f816040516110ac9190612cb5565b60405180910390a150565b6060603780546110c690613203565b80601f01602080910402602001604051908101604052809291908181526020018280546110f290613203565b801561113d5780601f106111145761010080835404028352916020019161113d565b820191905f5260205f20905b81548152906001019060200180831161112057829003601f168201915b5050505050905090565b61114f611f91565b6101015f3373ffffffffffffffffffffffffffffffffffffffff1673ffffffffffffffffffffffffffffffffffffffff1681526020019081526020015f205f9054906101000a900460ff166111d9576040517f08c379a00000000000000000000000000000000000000000000000000000000081526004016111d09061343b565b60405180910390fd5b6101045f8373ffffffffffffffffffffffffffffffffffffffff1673ffffffffffffffffffffffffffffffffffffffff1681526020019081526020015f205f9054906101000a900460ff1615611264576040517f08c379a000000000000000000000000000000000000000000000000000000000815260040161125b9061334d565b60405180910390fd5b6101045f3373ffffffffffffffffffffffffffffffffffffffff1673ffffffffffffffffffffffffffffffffffffffff1681526020019081526020015f205f9054906101000a900460ff16156112ef576040517f08c379a00000000000000000000000000000000000000000000000000000000081526004016112e69061327d565b60405180910390fd5b6112f76123b4565b6113018282612774565b5050565b610102805461131390613203565b80601f016020809104026020016040519081016040528092919081815260200182805461133f90613203565b801561138a5780601f106113615761010080835404028352916020019161138a565b820191905f5260205f20905b81548152906001019060200180831161136d57829003601f168201915b505050505081565b6101005f9054906101000a900473ffffffffffffffffffffffffffffffffffffffff1681565b5f806113c2611dc7565b90505f6113cf828661190d565b905083811015611414576040517f08c379a000000000000000000000000000000000000000000000000000000000815260040161140b9061382b565b60405180910390fd5b6114218286868403611dce565b60019250505092915050565b5f611436611f91565b6101045f3373ffffffffffffffffffffffffffffffffffffffff1673ffffffffffffffffffffffffffffffffffffffff1681526020019081526020015f205f9054906101000a900460ff16156114c1576040517f08c379a00000000000000000000000000000000000000000000000000000000081526004016114b89061327d565b60405180910390fd5b6101045f8473ffffffffffffffffffffffffffffffffffffffff1673ffffffffffffffffffffffffffffffffffffffff1681526020019081526020015f205f9054906101000a900460ff161561154c576040517f08c379a0000000000000000000000000000000000000000000000000000000008152600401611543906132e5565b60405180910390fd5b611557338484612066565b6001905092915050565b610101602052805f5260405f205f915054906101000a900460ff1681565b6115876122d5565b6101045f8273ffffffffffffffffffffffffffffffffffffffff1673ffffffffffffffffffffffffffffffffffffffff1681526020019081526020015f205f9054906101000a900460ff16156101045f8373ffffffffffffffffffffffffffffffffffffffff1673ffffffffffffffffffffffffffffffffffffffff1681526020019081526020015f205f6101000a81548160ff0219169083151502179055508073ffffffffffffffffffffffffffffffffffffffff167f14ddf324cc5d8b14a3c3b12c84b0a7d578d72c8d60655c06d6a457e71431d5ee6101045f8473ffffffffffffffffffffffffffffffffffffffff1673ffffffffffffffffffffffffffffffffffffffff1681526020019081526020015f205f9054906101000a900460ff166040516116b79190612dcb565b60405180910390a250565b60ff5f9054906101000a900473ffffffffffffffffffffffffffffffffffffffff1681565b6116ef6122d5565b5f73ffffffffffffffffffffffffffffffffffffffff168173ffffffffffffffffffffffffffffffffffffffff160361175d576040517f08c379a0000000000000000000000000000000000000000000000000000000008152600401611754906138b9565b60405180910390fd5b8060975f6101000a81548173ffffffffffffffffffffffffffffffffffffffff021916908373ffffffffffffffffffffffffffffffffffffffff16021790555050565b610104602052805f5260405f205f915054906101000a900460ff1681565b6117c66122d5565b5f73ffffffffffffffffffffffffffffffffffffffff168273ffffffffffffffffffffffffffffffffffffffff16036117fd575f80fd5b806101015f8473ffffffffffffffffffffffffffffffffffffffff1673ffffffffffffffffffffffffffffffffffffffff1681526020019081526020015f205f6101000a81548160ff02191690831515021790555080156118a0578173ffffffffffffffffffffffffffffffffffffffff167f726b590ef91a8c76ad05bbe91a57ef84605276528f49cd47d787f558a4e755b660405160405180910390a26118e4565b8173ffffffffffffffffffffffffffffffffffffffff167fe94479a9f7e1952cc78f2d6baab678adc1b772d936c6583def489e524cb6669260405160405180910390a25b5050565b60975f9054906101000a900473ffffffffffffffffffffffffffffffffffffffff1681565b5f60345f8473ffffffffffffffffffffffffffffffffffffffff1673ffffffffffffffffffffffffffffffffffffffff1681526020019081526020015f205f8373ffffffffffffffffffffffffffffffffffffffff1673ffffffffffffffffffffffffffffffffffffffff1681526020019081526020015f2054905092915050565b60fc5481565b61199d6122d5565b5f73ffffffffffffffffffffffffffffffffffffffff168173ffffffffffffffffffffffffffffffffffffffff16036119d4575f80fd5b8060ff5f6101000a81548173ffffffffffffffffffffffffffffffffffffffff021916908373ffffffffffffffffffffffffffffffffffffffff1602179055508073ffffffffffffffffffffffffffffffffffffffff167fbdf37c276f641820b141429d245add2552b4118c0866e5a78638e3de5ef18d9d60405160405180910390a250565b5f73ffffffffffffffffffffffffffffffffffffffff168173ffffffffffffffffffffffffffffffffffffffff1603611ac8576040517f08c379a0000000000000000000000000000000000000000000000000000000008152600401611abf906138b9565b60405180910390fd5b60975f9054906101000a900473ffffffffffffffffffffffffffffffffffffffff1673ffffffffffffffffffffffffffffffffffffffff168173ffffffffffffffffffffffffffffffffffffffff1614611b57576040517f08c379a0000000000000000000000000000000000000000000000000000000008152600401611b4e90613947565b60405180910390fd5b3373ffffffffffffffffffffffffffffffffffffffff168173ffffffffffffffffffffffffffffffffffffffff1614611bc5576040517f08c379a0000000000000000000000000000000000000000000000000000000008152600401611bbc906139d5565b60405180910390fd5b611bce8161264f565b50565b611bd96122d5565b611be16123b4565b565b5f8060019054906101000a900460ff16159050808015611c12575060015f8054906101000a900460ff1660ff16105b80611c3e5750611c2130612939565b158015611c3d575060015f8054906101000a900460ff1660ff16145b5b611c7d576040517f08c379a0000000000000000000000000000000000000000000000000000000008152600401611c7490613a63565b60405180910390fd5b60015f806101000a81548160ff021916908360ff1602179055508015611cb85760015f60016101000a81548160ff0219169083151502179055505b5f73ffffffffffffffffffffffffffffffffffffffff168373ffffffffffffffffffffffffffffffffffffffff1603611cef575f80fd5b611cf761295b565b611cff6129b3565b611d098686612a0b565b611d11612a67565b8360fd819055508260ff5f6101000a81548173ffffffffffffffffffffffffffffffffffffffff021916908373ffffffffffffffffffffffffffffffffffffffff16021790555081610103819055504260fe819055508015611dbf575f8060016101000a81548160ff0219169083151502179055507f7f26b83ff96e1f2b6a682f133852f6798a09c465da95921460cefb38474024986001604051611db69190613aba565b60405180910390a15b505050505050565b5f33905090565b5f73ffffffffffffffffffffffffffffffffffffffff168373ffffffffffffffffffffffffffffffffffffffff1603611e3c576040517f08c379a0000000000000000000000000000000000000000000000000000000008152600401611e3390613b43565b60405180910390fd5b5f73ffffffffffffffffffffffffffffffffffffffff168273ffffffffffffffffffffffffffffffffffffffff1603611eaa576040517f08c379a0000000000000000000000000000000000000000000000000000000008152600401611ea190613bd1565b60405180910390fd5b8060345f8573ffffffffffffffffffffffffffffffffffffffff1673ffffffffffffffffffffffffffffffffffffffff1681526020019081526020015f205f8473ffffffffffffffffffffffffffffffffffffffff1673ffffffffffffffffffffffffffffffffffffffff1681526020019081526020015f20819055508173ffffffffffffffffffffffffffffffffffffffff168373ffffffffffffffffffffffffffffffffffffffff167f8c5be1e5ebec7d5bd14f71427d1e84f3dd0314c0f7b2291e5b200ac8c7c3b92583604051611f849190612df3565b60405180910390a3505050565b611f99610e24565b15611fd9576040517f08c379a0000000000000000000000000000000000000000000000000000000008152600401611fd090613c39565b60405180910390fd5b565b5f611fe6848461190d565b90507fffffffffffffffffffffffffffffffffffffffffffffffffffffffffffffffff81146120605781811015612052576040517f08c379a000000000000000000000000000000000000000000000000000000000815260040161204990613ca1565b60405180910390fd5b61205f8484848403611dce565b5b50505050565b5f73ffffffffffffffffffffffffffffffffffffffff168373ffffffffffffffffffffffffffffffffffffffff16036120d4576040517f08c379a00000000000000000000000000000000000000000000000000000000081526004016120cb90613d2f565b60405180910390fd5b5f73ffffffffffffffffffffffffffffffffffffffff168273ffffffffffffffffffffffffffffffffffffffff1603612142576040517f08c379a000000000000000000000000000000000000000000000000000000000815260040161213990613dbd565b60405180910390fd5b61214d838383612ab7565b5f60335f8573ffffffffffffffffffffffffffffffffffffffff1673ffffffffffffffffffffffffffffffffffffffff1681526020019081526020015f20549050818110156121d1576040517f08c379a00000000000000000000000000000000000000000000000000000000081526004016121c890613e4b565b60405180910390fd5b81810360335f8673ffffffffffffffffffffffffffffffffffffffff1673ffffffffffffffffffffffffffffffffffffffff1681526020019081526020015f20819055508160335f8573ffffffffffffffffffffffffffffffffffffffff1673ffffffffffffffffffffffffffffffffffffffff1681526020019081526020015f205f82825401925050819055508273ffffffffffffffffffffffffffffffffffffffff168473ffffffffffffffffffffffffffffffffffffffff167fddf252ad1be2c89b69c2b068fc378daa952ba7f163c4a11628f55a4df523b3ef846040516122bc9190612df3565b60405180910390a36122cf848484612abc565b50505050565b6122dd611dc7565b73ffffffffffffffffffffffffffffffffffffffff166122fb610fb4565b73ffffffffffffffffffffffffffffffffffffffff1614612351576040517f08c379a000000000000000000000000000000000000000000000000000000000815260040161234890613eb3565b60405180910390fd5b565b61235b612ac1565b5f60ca5f6101000a81548160ff0219169083151502179055507f5db9ee0a495bf2e6ff9c91a7834c1ba4fdd244a5e8aa4e537bd38aeae4b073aa61239d611dc7565b6040516123aa9190612ef5565b60405180910390a1565b5f6201518060fe54426123c79190613ed1565b6123d19190613f31565b9050600181106124fd575f6123e4610990565b90505f8190505f60fd5490505f5b848110156124325768056bc75e2d6310000082846124109190613f61565b61241a9190613f31565b836124259190613398565b92508060010190506123f2565b505f83836124409190613ed1565b905084620151806124519190613f61565b60fe5f8282546124619190613398565b9250508190555061249360ff5f9054906101000a900473ffffffffffffffffffffffffffffffffffffffff1682612500565b7f07982395c678b2ffc23fcf59aaec243ca79418c285af0d0e10b4e65bc4189f4c60ff5f9054906101000a900473ffffffffffffffffffffffffffffffffffffffff16426124df610990565b846040516124f09493929190613fa2565b60405180910390a1505050505b50565b5f73ffffffffffffffffffffffffffffffffffffffff168273ffffffffffffffffffffffffffffffffffffffff160361256e576040517f08c379a00000000000000000000000000000000000000000000000000000000081526004016125659061402f565b60405180910390fd5b6125795f8383612ab7565b8060355f82825461258a9190613398565b925050819055508060335f8473ffffffffffffffffffffffffffffffffffffffff1673ffffffffffffffffffffffffffffffffffffffff1681526020019081526020015f205f82825401925050819055508173ffffffffffffffffffffffffffffffffffffffff165f73ffffffffffffffffffffffffffffffffffffffff167fddf252ad1be2c89b69c2b068fc378daa952ba7f163c4a11628f55a4df523b3ef836040516126389190612df3565b60405180910390a361264b5f8383612abc565b5050565b5f60655f9054906101000a900473ffffffffffffffffffffffffffffffffffffffff1690508160655f6101000a81548173ffffffffffffffffffffffffffffffffffffffff021916908373ffffffffffffffffffffffffffffffffffffffff1602179055508173ffffffffffffffffffffffffffffffffffffffff168173ffffffffffffffffffffffffffffffffffffffff167f8be0079c531659141344cd1fd0a4f28419497f9722a3daafe3b4186f6b6457e060405160405180910390a35050565b61271a611f91565b600160ca5f6101000a81548160ff0219169083151502179055507f62e78cea01bee320cd4e420270b5ea74000d11b0c9f74754ebdbfc544b05a25861275d611dc7565b60405161276a9190612ef5565b60405180910390a1565b5f73ffffffffffffffffffffffffffffffffffffffff168273ffffffffffffffffffffffffffffffffffffffff16036127e2576040517f08c379a00000000000000000000000000000000000000000000000000000000081526004016127d9906140bd565b60405180910390fd5b6127ed825f83612ab7565b5f60335f8473ffffffffffffffffffffffffffffffffffffffff1673ffffffffffffffffffffffffffffffffffffffff1681526020019081526020015f2054905081811015612871576040517f08c379a00000000000000000000000000000000000000000000000000000000081526004016128689061414b565b60405180910390fd5b81810360335f8573ffffffffffffffffffffffffffffffffffffffff1673ffffffffffffffffffffffffffffffffffffffff1681526020019081526020015f20819055508160355f82825403925050819055505f73ffffffffffffffffffffffffffffffffffffffff168373ffffffffffffffffffffffffffffffffffffffff167fddf252ad1be2c89b69c2b068fc378daa952ba7f163c4a11628f55a4df523b3ef846040516129219190612df3565b60405180910390a3612934835f84612abc565b505050565b5f808273ffffffffffffffffffffffffffffffffffffffff163b119050919050565b5f60019054906101000a900460ff166129a9576040517f08c379a00000000000000000000000000000000000000000000000000000000081526004016129a0906141d9565b60405180910390fd5b6129b1612b0a565b565b5f60019054906101000a900460ff16612a01576040517f08c379a00000000000000000000000000000000000000000000000000000000081526004016129f8906141d9565b60405180910390fd5b612a09612b6a565b565b5f60019054906101000a900460ff16612a59576040517f08c379a0000000000000000000000000000000000000000000000000000000008152600401612a50906141d9565b60405180910390fd5b612a638282612bd3565b5050565b5f60019054906101000a900460ff16612ab5576040517f08c379a0000000000000000000000000000000000000000000000000000000008152600401612aac906141d9565b60405180910390fd5b565b505050565b505050565b612ac9610e24565b612b08576040517f08c379a0000000000000000000000000000000000000000000000000000000008152600401612aff90614241565b60405180910390fd5b565b5f60019054906101000a900460ff16612b58576040517f08c379a0000000000000000000000000000000000000000000000000000000008152600401612b4f906141d9565b60405180910390fd5b612b68612b63611dc7565b61264f565b565b5f60019054906101000a900460ff16612bb8576040517f08c379a0000000000000000000000000000000000000000000000000000000008152600401612baf906141d9565b60405180910390fd5b5f60ca5f6101000a81548160ff021916908315150217905550565b5f60019054906101000a900460ff16612c21576040517f08c379a0000000000000000000000000000000000000000000000000000000008152600401612c18906141d9565b60405180910390fd5b8160369081612c3091906136ec565b508060379081612c4091906136ec565b505050565b5f81519050919050565b5f82825260208201905092915050565b8281835e5f83830152505050565b5f601f19601f8301169050919050565b5f612c8782612c45565b612c918185612c4f565b9350612ca1818560208601612c5f565b612caa81612c6d565b840191505092915050565b5f6020820190508181035f830152612ccd8184612c7d565b905092915050565b5f604051905090565b5f80fd5b5f80fd5b5f73ffffffffffffffffffffffffffffffffffffffff82169050919050565b5f612d0f82612ce6565b9050919050565b612d1f81612d05565b8114612d29575f80fd5b50565b5f81359050612d3a81612d16565b92915050565b5f819050919050565b612d5281612d40565b8114612d5c575f80fd5b50565b5f81359050612d6d81612d49565b92915050565b5f8060408385031215612d8957612d88612cde565b5b5f612d9685828601612d2c565b9250506020612da785828601612d5f565b9150509250929050565b5f8115159050919050565b612dc581612db1565b82525050565b5f602082019050612dde5f830184612dbc565b92915050565b612ded81612d40565b82525050565b5f602082019050612e065f830184612de4565b92915050565b5f805f60608486031215612e2357612e22612cde565b5b5f612e3086828701612d2c565b9350506020612e4186828701612d2c565b9250506040612e5286828701612d5f565b9150509250925092565b5f60ff82169050919050565b612e7181612e5c565b82525050565b5f602082019050612e8a5f830184612e68565b92915050565b5f60208284031215612ea557612ea4612cde565b5b5f612eb284828501612d5f565b91505092915050565b5f60208284031215612ed057612ecf612cde565b5b5f612edd84828501612d2c565b91505092915050565b612eef81612d05565b82525050565b5f602082019050612f085f830184612ee6565b92915050565b5f80fd5b5f80fd5b7f4e487b71000000000000000000000000000000000000000000000000000000005f52604160045260245ffd5b612f4c82612c6d565b810181811067ffffffffffffffff82111715612f6b57612f6a612f16565b5b80604052505050565b5f612f7d612cd5565b9050612f898282612f43565b919050565b5f67ffffffffffffffff821115612fa857612fa7612f16565b5b612fb182612c6d565b9050602081019050919050565b828183375f83830152505050565b5f612fde612fd984612f8e565b612f74565b905082815260208101848484011115612ffa57612ff9612f12565b5b613005848285612fbe565b509392505050565b5f82601f83011261302157613020612f0e565b5b8135613031848260208601612fcc565b91505092915050565b5f6020828403121561304f5761304e612cde565b5b5f82013567ffffffffffffffff81111561306c5761306b612ce2565b5b6130788482850161300d565b91505092915050565b61308a81612db1565b8114613094575f80fd5b50565b5f813590506130a581613081565b92915050565b5f80604083850312156130c1576130c0612cde565b5b5f6130ce85828601612d2c565b92505060206130df85828601613097565b9150509250929050565b5f80604083850312156130ff576130fe612cde565b5b5f61310c85828601612d2c565b925050602061311d85828601612d2c565b9150509250929050565b5f805f805f60a086880312156131405761313f612cde565b5b5f86013567ffffffffffffffff81111561315d5761315c612ce2565b5b6131698882890161300d565b955050602086013567ffffffffffffffff81111561318a57613189612ce2565b5b6131968882890161300d565b94505060406131a788828901612d5f565b93505060606131b888828901612d2c565b92505060806131c988828901612d5f565b9150509295509295909350565b7f4e487b71000000000000000000000000000000000000000000000000000000005f52602260045260245ffd5b5f600282049050600182168061321a57607f821691505b60208210810361322d5761322c6131d6565b5b50919050565b7f6d73672e73656e646572206973207265737472696374656400000000000000005f82015250565b5f613267601883612c4f565b915061327282613233565b602082019050919050565b5f6020820190508181035f8301526132948161325b565b9050919050565b7f746f2069732072657374726963746564000000000000000000000000000000005f82015250565b5f6132cf601083612c4f565b91506132da8261329b565b602082019050919050565b5f6020820190508181035f8301526132fc816132c3565b9050919050565b7f66726f6d206973207265737472696374656400000000000000000000000000005f82015250565b5f613337601283612c4f565b915061334282613303565b602082019050919050565b5f6020820190508181035f8301526133648161332b565b9050919050565b7f4e487b71000000000000000000000000000000000000000000000000000000005f52601160045260245ffd5b5f6133a282612d40565b91506133ad83612d40565b92508282019050808211156133c5576133c461336b565b5b92915050565b7f496e646578546f6b656e3a2063616c6c6572206973206e6f7420746865206d695f8201527f6e74657200000000000000000000000000000000000000000000000000000000602082015250565b5f613425602483612c4f565b9150613430826133cb565b604082019050919050565b5f6020820190508181035f83015261345281613419565b9050919050565b7f77696c6c2065786365656420737570706c79206365696c696e670000000000005f82015250565b5f61348d601a83612c4f565b915061349882613459565b602082019050919050565b5f6020820190508181035f8301526134ba81613481565b9050919050565b7f496e646578546f6b656e3a2063616c6c6572206973206e6f7420746865206d655f8201527f74686f646f6c6f67697374000000000000000000000000000000000000000000602082015250565b5f61351b602b83612c4f565b9150613526826134c1565b604082019050919050565b5f6020820190508181035f8301526135488161350f565b9050919050565b5f819050815f5260205f209050919050565b5f6020601f8301049050919050565b5f82821b905092915050565b5f600883026135ab7fffffffffffffffffffffffffffffffffffffffffffffffffffffffffffffffff82613570565b6135b58683613570565b95508019841693508086168417925050509392505050565b5f819050919050565b5f6135f06135eb6135e684612d40565b6135cd565b612d40565b9050919050565b5f819050919050565b613609836135d6565b61361d613615826135f7565b84845461357c565b825550505050565b5f90565b613631613625565b61363c818484613600565b505050565b5b8181101561365f576136545f82613629565b600181019050613642565b5050565b601f8211156136a4576136758161354f565b61367e84613561565b8101602085101561368d578190505b6136a161369985613561565b830182613641565b50505b505050565b5f82821c905092915050565b5f6136c45f19846008026136a9565b1980831691505092915050565b5f6136dc83836136b5565b9150826002028217905092915050565b6136f582612c45565b67ffffffffffffffff81111561370e5761370d612f16565b5b6137188254613203565b613723828285613663565b5f60209050601f831160018114613754575f8415613742578287015190505b61374c85826136d1565b8655506137b3565b601f1984166137628661354f565b5f5b8281101561378957848901518255600182019150602085019450602081019050613764565b868310156137a657848901516137a2601f8916826136b5565b8355505b6001600288020188555050505b505050505050565b7f45524332303a2064656372656173656420616c6c6f77616e63652062656c6f775f8201527f207a65726f000000000000000000000000000000000000000000000000000000602082015250565b5f613815602583612c4f565b9150613820826137bb565b604082019050919050565b5f6020820190508181035f83015261384281613809565b9050919050565b7f50726f706f7361626c654f776e61626c653a206e6577206f776e6572206973205f8201527f746865207a65726f206164647265737300000000000000000000000000000000602082015250565b5f6138a3603083612c4f565b91506138ae82613849565b604082019050919050565b5f6020820190508181035f8301526138d081613897565b9050919050565b7f50726f706f7361626c654f776e61626c653a206e6577206f776e6572206973205f8201527f6e6f742070726f706f736564206f776e65720000000000000000000000000000602082015250565b5f613931603283612c4f565b915061393c826138d7565b604082019050919050565b5f6020820190508181035f83015261395e81613925565b9050919050565b7f50726f706f7361626c654f776e61626c653a20746869732063616c6c206d75735f8201527f74206265206d61646520627920746865206e6577206f776e6572000000000000602082015250565b5f6139bf603a83612c4f565b91506139ca82613965565b604082019050919050565b5f6020820190508181035f8301526139ec816139b3565b9050919050565b7f496e697469616c697a61626c653a20636f6e747261637420697320616c7265615f8201527f647920696e697469616c697a6564000000000000000000000000000000000000602082015250565b5f613a4d602e83612c4f565b9150613a58826139f3565b604082019050919050565b5f6020820190508181035f830152613a7a81613a41565b9050919050565b5f819050919050565b5f613aa4613a9f613a9a84613a81565b6135cd565b612e5c565b9050919050565b613ab481613a8a565b82525050565b5f602082019050613acd5f830184613aab565b92915050565b7f45524332303a20617070726f76652066726f6d20746865207a65726f206164645f8201527f7265737300000000000000000000000000000000000000000000000000000000602082015250565b5f613b2d602483612c4f565b9150613b3882613ad3565b604082019050919050565b5f6020820190508181035f830152613b5a81613b21565b9050919050565b7f45524332303a20617070726f766520746f20746865207a65726f2061646472655f8201527f7373000000000000000000000000000000000000000000000000000000000000602082015250565b5f613bbb602283612c4f565b9150613bc682613b61565b604082019050919050565b5f6020820190508181035f830152613be881613baf565b9050919050565b7f5061757361626c653a20706175736564000000000000000000000000000000005f82015250565b5f613c23601083612c4f565b9150613c2e82613bef565b602082019050919050565b5f6020820190508181035f830152613c5081613c17565b9050919050565b7f45524332303a20696e73756666696369656e7420616c6c6f77616e63650000005f82015250565b5f613c8b601d83612c4f565b9150613c9682613c57565b602082019050919050565b5f6020820190508181035f830152613cb881613c7f565b9050919050565b7f45524332303a207472616e736665722066726f6d20746865207a65726f2061645f8201527f6472657373000000000000000000000000000000000000000000000000000000602082015250565b5f613d19602583612c4f565b9150613d2482613cbf565b604082019050919050565b5f6020820190508181035f830152613d4681613d0d565b9050919050565b7f45524332303a207472616e7366657220746f20746865207a65726f20616464725f8201527f6573730000000000000000000000000000000000000000000000000000000000602082015250565b5f613da7602383612c4f565b9150613db282613d4d565b604082019050919050565b5f6020820190508181035f830152613dd481613d9b565b9050919050565b7f45524332303a207472616e7366657220616d6f756e74206578636565647320625f8201527f616c616e63650000000000000000000000000000000000000000000000000000602082015250565b5f613e35602683612c4f565b9150613e4082613ddb565b604082019050919050565b5f6020820190508181035f830152613e6281613e29565b9050919050565b7f4f776e61626c653a2063616c6c6572206973206e6f7420746865206f776e65725f82015250565b5f613e9d602083612c4f565b9150613ea882613e69565b602082019050919050565b5f6020820190508181035f830152613eca81613e91565b9050919050565b5f613edb82612d40565b9150613ee683612d40565b9250828203905081811115613efe57613efd61336b565b5b92915050565b7f4e487b71000000000000000000000000000000000000000000000000000000005f52601260045260245ffd5b5f613f3b82612d40565b9150613f4683612d40565b925082613f5657613f55613f04565b5b828204905092915050565b5f613f6b82612d40565b9150613f7683612d40565b9250828202613f8481612d40565b91508282048414831517613f9b57613f9a61336b565b5b5092915050565b5f608082019050613fb55f830187612ee6565b613fc26020830186612de4565b613fcf6040830185612de4565b613fdc6060830184612de4565b95945050505050565b7f45524332303a206d696e7420746f20746865207a65726f2061646472657373005f82015250565b5f614019601f83612c4f565b915061402482613fe5565b602082019050919050565b5f6020820190508181035f8301526140468161400d565b9050919050565b7f45524332303a206275726e2066726f6d20746865207a65726f206164647265735f8201527f7300000000000000000000000000000000000000000000000000000000000000602082015250565b5f6140a7602183612c4f565b91506140b28261404d565b604082019050919050565b5f6020820190508181035f8301526140d48161409b565b9050919050565b7f45524332303a206275726e20616d6f756e7420657863656564732062616c616e5f8201527f6365000000000000000000000000000000000000000000000000000000000000602082015250565b5f614135602283612c4f565b9150614140826140db565b604082019050919050565b5f6020820190508181035f83015261416281614129565b9050919050565b7f496e697469616c697a61626c653a20636f6e7472616374206973206e6f7420695f8201527f6e697469616c697a696e67000000000000000000000000000000000000000000602082015250565b5f6141c3602b83612c4f565b91506141ce82614169565b604082019050919050565b5f6020820190508181035f8301526141f0816141b7565b9050919050565b7f5061757361626c653a206e6f74207061757365640000000000000000000000005f82015250565b5f61422b601483612c4f565b9150614236826141f7565b602082019050919050565b5f6020820190508181035f8301526142588161421f565b905091905056fea26469706673582212206a788423ea34df92ad0b0362123d8fec9d76c7018ec252b2a8a5ea6cce1085ca64736f6c634300081a0033","linkReferences":{}},"methodIdentifiers":{"allowance(address,address)":"dd62ed3e","approve(address,uint256)":"095ea7b3","balanceOf(address)":"70a08231","burn(address,uint256)":"9dc29fac","decimals()":"313ce567","decreaseAllowance(address,uint256)":"a457c2d7","fee()":"ddca3f43","feeRatePerDayScaled()":"2fecd589","feeReceiver()":"b3f00674","feeTimestamp()":"184a732f","increaseAllowance(address,uint256)":"39509351","initialize(string,string,uint256,address,uint256)":"fede0276","isMinter(address)":"aa271e1a","isRestricted(address)":"c01bc982","methodologist()":"9f8e67bf","methodology()":"9eeb1d50","mint(address,uint256)":"40c10f19","mintToFeeReceiver()":"f734e22a","name()":"06fdde03","owner()":"8da5cb5b","pause()":"8456cb59","paused()":"5c975abb","proposeOwner(address)":"b5ed298a","proposedOwner()":"d153b60c","renounceOwnership()":"715018a6","setFeeRate(uint256)":"45596e2e","setFeeReceiver(address)":"efdcd974","setMethodologist(address)":"660db484","setMethodology(string)":"91fe1b92","setMinter(address,bool)":"cf456ae7","setSupplyCeiling(uint256)":"6e01a686","supplyCeiling()":"2b52684d","symbol()":"95d89b41","toggleRestriction(address)":"aaa4a184","totalSupply()":"18160ddd","transfer(address,uint256)":"a9059cbb","transferFrom(address,address,uint256)":"23b872dd","transferOwnership(address)":"f2fde38b","unpause()":"3f4ba83a"},"id":42}