{"abi":[{"type":"constructor","inputs":[{"name":"_linkAddress","type":"address","internalType":"address"}],"stateMutability":"nonpayable"},{"type":"function","name":"bytesToAddress","inputs":[{"name":"data","type":"bytes","internalType":"bytes"}],"outputs":[{"name":"","type":"address","internalType":"address"}],"stateMutability":"pure"},{"type":"function","name":"ccipReceive","inputs":[{"name":"message","type":"tuple","internalType":"struct Client.Any2EVMMessage","components":[{"name":"messageId","type":"bytes32","internalType":"bytes32"},{"name":"sourceChainSelector","type":"uint64","internalType":"uint64"},{"name":"sender","type":"bytes","internalType":"bytes"},{"name":"data","type":"bytes","internalType":"bytes"},{"name":"destTokenAmounts","type":"tuple[]","internalType":"struct Client.EVMTokenAmount[]","components":[{"name":"token","type":"address","internalType":"address"},{"name":"amount","type":"uint256","internalType":"uint256"}]}]}],"outputs":[],"stateMutability":"nonpayable"},{"type":"function","name":"ccipSend","inputs":[{"name":"destinationChainSelector","type":"uint64","internalType":"uint64"},{"name":"message","type":"tuple","internalType":"struct Client.EVM2AnyMessage","components":[{"name":"receiver","type":"bytes","internalType":"bytes"},{"name":"data","type":"bytes","internalType":"bytes"},{"name":"tokenAmounts","type":"tuple[]","internalType":"struct Client.EVMTokenAmount[]","components":[{"name":"token","type":"address","internalType":"address"},{"name":"amount","type":"uint256","internalType":"uint256"}]},{"name":"feeToken","type":"address","internalType":"address"},{"name":"extraArgs","type":"bytes","internalType":"bytes"}]}],"outputs":[{"name":"","type":"bytes32","internalType":"bytes32"}],"stateMutability":"payable"},{"type":"function","name":"factoryChainSelector","inputs":[{"name":"","type":"address","internalType":"address"}],"outputs":[{"name":"","type":"uint64","internalType":"uint64"}],"stateMutability":"view"},{"type":"function","name":"getFee","inputs":[{"name":"destinationChainSelector","type":"uint64","internalType":"uint64"},{"name":"message","type":"tuple","internalType":"struct Client.EVM2AnyMessage","components":[{"name":"receiver","type":"bytes","internalType":"bytes"},{"name":"data","type":"bytes","internalType":"bytes"},{"name":"tokenAmounts","type":"tuple[]","internalType":"struct Client.EVMTokenAmount[]","components":[{"name":"token","type":"address","internalType":"address"},{"name":"amount","type":"uint256","internalType":"uint256"}]},{"name":"feeToken","type":"address","internalType":"address"},{"name":"extraArgs","type":"bytes","internalType":"bytes"}]}],"outputs":[{"name":"fee","type":"uint256","internalType":"uint256"}],"stateMutability":"view"},{"type":"function","name":"getFunctionSelector","inputs":[],"outputs":[{"name":"","type":"bytes4","internalType":"bytes4"}],"stateMutability":"pure"},{"type":"function","name":"getSupportedTokens","inputs":[{"name":"chainSelector","type":"uint64","internalType":"uint64"}],"outputs":[{"name":"tokens","type":"address[]","internalType":"address[]"}],"stateMutability":"pure"},{"type":"function","name":"isChainSupported","inputs":[{"name":"chainSelector","type":"uint64","internalType":"uint64"}],"outputs":[{"name":"supported","type":"bool","internalType":"bool"}],"stateMutability":"pure"},{"type":"function","name":"setFactoryChainSelector","inputs":[{"name":"_chainSelector","type":"uint64","internalType":"uint64"},{"name":"_factory","type":"address","internalType":"address"}],"outputs":[],"stateMutability":"nonpayable"}],"bytecode":{"object":"0x608060405267016345785d8a00006000553480156200001d57600080fd5b5060405162001a4438038062001a448339818101604052810190620000439190620000a2565b80600160006101000a81548173ffffffffffffffffffffffffffffffffffffffff021916908373ffffffffffffffffffffffffffffffffffffffff1602179055505062000127565b6000815190506200009c816200010d565b92915050565b600060208284031215620000bb57620000ba62000108565b5b6000620000cb848285016200008b565b91505092915050565b6000620000e182620000e8565b9050919050565b600073ffffffffffffffffffffffffffffffffffffffff82169050919050565b600080fd5b6200011881620000d4565b81146200012457600080fd5b50565b61190d80620001376000396000f3fe6080604052600436106100865760003560e01c806385572ffb1161005957806385572ffb1461015957806396f4e9f914610182578063a48a9058146101b2578063d9139974146101ef578063fbca3b741461022c57610086565b806310d1c4c31461008b57806320487ded146100b657806342526e4e146100f3578063844968c814610130575b600080fd5b34801561009757600080fd5b506100a0610269565b6040516100ad919061136a565b60405180910390f35b3480156100c257600080fd5b506100dd60048036038101906100d89190610f8b565b610291565b6040516100ea91906113c7565b60405180910390f35b3480156100ff57600080fd5b5061011a60048036038101906101159190610e03565b6102e5565b60405161012791906112c0565b60405180910390f35b34801561013c57600080fd5b5061015760048036038101906101529190610eef565b610302565b005b34801561016557600080fd5b50610180600480360381019061017b9190610e4c565b61036c565b005b61019c60048036038101906101979190610f2f565b61036f565b6040516101a9919061134f565b60405180910390f35b3480156101be57600080fd5b506101d960048036038101906101d49190610ec2565b610873565b6040516101e69190611334565b60405180910390f35b3480156101fb57600080fd5b5061021660048036038101906102119190610d7c565b6108b1565b60405161022391906113e2565b60405180910390f35b34801561023857600080fd5b50610253600480360381019061024e9190610ec2565b6108d8565b6040516102609190611312565b60405180910390f35b60007f4f77c582c0335288fc6135883f0b9c0ae2a781158fd4e6f6edd3907243fffbbd905090565b6000808367ffffffffffffffff1690506000839050600082101580156102c05750683635c9adc5dea000008211155b80156102d25750600081604001515110155b156102dd5760005492505b505092915050565b6000818060200190518101906102fb9190610da9565b9050919050565b81600260008373ffffffffffffffffffffffffffffffffffffffff1673ffffffffffffffffffffffffffffffffffffffff16815260200190815260200160002060006101000a81548167ffffffffffffffff021916908367ffffffffffffffff1602179055505050565b50565b6000806103cd8380600001906103859190611460565b8080601f016020809104026020016040519081016040528093929190818152602001838380828437600081840152601f19601f820116905080830192505050505050506102e5565b9050600160009054906101000a900473ffffffffffffffffffffffffffffffffffffffff1673ffffffffffffffffffffffffffffffffffffffff166323b872dd33306000546040518463ffffffff1660e01b8152600401610430939291906112db565b602060405180830381600087803b15801561044a57600080fd5b505af115801561045e573d6000803e3d6000fd5b505050506040513d601f19601f820116820180604052508101906104829190610dd6565b50600083806040019061049591906113fd565b90501180156104af575060008467ffffffffffffffff1610155b156105d75760005b8380604001906104c791906113fd565b90508110156105d5578380604001906104e091906113fd565b828181106104f1576104f061177e565b5b90506040020160000160208101906105099190610d7c565b73ffffffffffffffffffffffffffffffffffffffff166323b872dd338487806040019061053691906113fd565b868181106105475761054661177e565b5b905060400201602001356040518463ffffffff1660e01b815260040161056f939291906112db565b602060405180830381600087803b15801561058957600080fd5b505af115801561059d573d6000803e3d6000fd5b505050506040513d601f19601f820116820180604052508101906105c19190610dd6565b5080806105cd90611706565b9150506104b7565b505b6105df610969565b8380602001906105ef9190611460565b8080601f016020809104026020016040519081016040528093929190818152602001838380828437600081840152601f19601f82011690508083019250505050505050816060018190525083806040019061064a91906113fd565b808060200260200160405190810160405280939291908181526020016000905b8282101561069a5784848390506040020180360381019061068b9190610e95565b8152602001906001019061066a565b50505050508160800181905250336040516020016106b891906112c0565b6040516020818303038152906040528160400181905250600260003373ffffffffffffffffffffffffffffffffffffffff1673ffffffffffffffffffffffffffffffffffffffff16815260200190815260200160002060009054906101000a900467ffffffffffffffff16816020019067ffffffffffffffff16908167ffffffffffffffff168152505060008273ffffffffffffffffffffffffffffffffffffffff166385572ffb60e01b8360405160240161077491906113a5565b604051602081830303815290604052907bffffffffffffffffffffffffffffffffffffffffffffffffffffffff19166020820180517bffffffffffffffffffffffffffffffffffffffffffffffffffffffff83818316178352505050506040516107de91906112a9565b6000604051808303816000865af19150503d806000811461081b576040519150601f19603f3d011682016040523d82523d6000602084013e610820565b606091505b5050905080610864576040517f08c379a000000000000000000000000000000000000000000000000000000000815260040161085b90611385565b60405180910390fd5b6000801b935050505092915050565b6000808267ffffffffffffffff16101580156108a25750683635c9adc5dea000008267ffffffffffffffff1611155b156108ac57600190505b919050565b60026020528060005260406000206000915054906101000a900467ffffffffffffffff1681565b606060008267ffffffffffffffff16101580156109085750683635c9adc5dea000008267ffffffffffffffff1611155b156109645760606000816000815181106109255761092461177e565b5b602002602001019073ffffffffffffffffffffffffffffffffffffffff16908173ffffffffffffffffffffffffffffffffffffffff1681525050809150505b919050565b6040518060a0016040528060008019168152602001600067ffffffffffffffff1681526020016060815260200160608152602001606081525090565b60006109b86109b3846114e8565b6114c3565b905080838252602082019050828560408602820111156109db576109da6117fa565b5b60005b85811015610a0b57816109f18882610d02565b8452602084019350604083019250506001810190506109de565b5050509392505050565b6000610a28610a2384611514565b6114c3565b905082815260208101848484011115610a4457610a43611804565b5b610a4f848285611693565b509392505050565b600081359050610a668161184d565b92915050565b600081519050610a7b81611864565b92915050565b600082601f830112610a9657610a956117dc565b5b8135610aa68482602086016109a5565b91505092915050565b600081519050610abe8161187b565b92915050565b600081359050610ad381611892565b92915050565b600082601f830112610aee57610aed6117dc565b5b8135610afe848260208601610a15565b91505092915050565b600060a08284031215610b1d57610b1c6117eb565b5b610b2760a06114c3565b90506000610b3784828501610ac4565b6000830152506020610b4b84828501610d67565b602083015250604082013567ffffffffffffffff811115610b6f57610b6e6117f5565b5b610b7b84828501610ad9565b604083015250606082013567ffffffffffffffff811115610b9f57610b9e6117f5565b5b610bab84828501610ad9565b606083015250608082013567ffffffffffffffff811115610bcf57610bce6117f5565b5b610bdb84828501610a81565b60808301525092915050565b600060a08284031215610bfd57610bfc6117e6565b5b81905092915050565b600060a08284031215610c1c57610c1b6117eb565b5b610c2660a06114c3565b9050600082013567ffffffffffffffff811115610c4657610c456117f5565b5b610c5284828501610ad9565b600083015250602082013567ffffffffffffffff811115610c7657610c756117f5565b5b610c8284828501610ad9565b602083015250604082013567ffffffffffffffff811115610ca657610ca56117f5565b5b610cb284828501610a81565b6040830152506060610cc684828501610a57565b606083015250608082013567ffffffffffffffff811115610cea57610ce96117f5565b5b610cf684828501610ad9565b60808301525092915050565b600060408284031215610d1857610d176117eb565b5b610d2260406114c3565b90506000610d3284828501610a57565b6000830152506020610d4684828501610d52565b60208301525092915050565b600081359050610d61816118a9565b92915050565b600081359050610d76816118c0565b92915050565b600060208284031215610d9257610d9161180e565b5b6000610da084828501610a57565b91505092915050565b600060208284031215610dbf57610dbe61180e565b5b6000610dcd84828501610a6c565b91505092915050565b600060208284031215610dec57610deb61180e565b5b6000610dfa84828501610aaf565b91505092915050565b600060208284031215610e1957610e1861180e565b5b600082013567ffffffffffffffff811115610e3757610e36611809565b5b610e4384828501610ad9565b91505092915050565b600060208284031215610e6257610e6161180e565b5b600082013567ffffffffffffffff811115610e8057610e7f611809565b5b610e8c84828501610b07565b91505092915050565b600060408284031215610eab57610eaa61180e565b5b6000610eb984828501610d02565b91505092915050565b600060208284031215610ed857610ed761180e565b5b6000610ee684828501610d67565b91505092915050565b60008060408385031215610f0657610f0561180e565b5b6000610f1485828601610d67565b9250506020610f2585828601610a57565b9150509250929050565b60008060408385031215610f4657610f4561180e565b5b6000610f5485828601610d67565b925050602083013567ffffffffffffffff811115610f7557610f74611809565b5b610f8185828601610be7565b9150509250929050565b60008060408385031215610fa257610fa161180e565b5b6000610fb085828601610d67565b925050602083013567ffffffffffffffff811115610fd157610fd0611809565b5b610fdd85828601610c06565b9150509250929050565b6000610ff38383611017565b60208301905092915050565b600061100b838361123e565b60408301905092915050565b611020816115ef565b82525050565b61102f816115ef565b82525050565b600061104082611565565b61104a81856115a0565b935061105583611545565b8060005b8381101561108657815161106d8882610fe7565b975061107883611586565b925050600181019050611059565b5085935050505092915050565b600061109e82611570565b6110a881856115b1565b93506110b383611555565b8060005b838110156110e45781516110cb8882610fff565b97506110d683611593565b9250506001810190506110b7565b5085935050505092915050565b6110fa81611613565b82525050565b6111098161161f565b82525050565b6111188161161f565b82525050565b61112781611629565b82525050565b60006111388261157b565b61114281856115c2565b93506111528185602086016116a2565b61115b81611813565b840191505092915050565b60006111718261157b565b61117b81856115d3565b935061118b8185602086016116a2565b80840191505092915050565b60006111a46020836115de565b91506111af82611824565b602082019050919050565b600060a0830160008301516111d26000860182611100565b5060208301516111e5602086018261128b565b50604083015184820360408601526111fd828261112d565b91505060608301518482036060860152611217828261112d565b915050608083015184820360808601526112318282611093565b9150508091505092915050565b6040820160008201516112546000850182611017565b506020820151611267602085018261126d565b50505050565b61127681611675565b82525050565b61128581611675565b82525050565b6112948161167f565b82525050565b6112a38161167f565b82525050565b60006112b58284611166565b915081905092915050565b60006020820190506112d56000830184611026565b92915050565b60006060820190506112f06000830186611026565b6112fd6020830185611026565b61130a604083018461127c565b949350505050565b6000602082019050818103600083015261132c8184611035565b905092915050565b600060208201905061134960008301846110f1565b92915050565b6000602082019050611364600083018461110f565b92915050565b600060208201905061137f600083018461111e565b92915050565b6000602082019050818103600083015261139e81611197565b9050919050565b600060208201905081810360008301526113bf81846111ba565b905092915050565b60006020820190506113dc600083018461127c565b92915050565b60006020820190506113f7600083018461129a565b92915050565b6000808335600160200384360303811261141a576114196117f0565b5b80840192508235915067ffffffffffffffff82111561143c5761143b6117e1565b5b602083019250604082023603831315611458576114576117ff565b5b509250929050565b6000808335600160200384360303811261147d5761147c6117f0565b5b80840192508235915067ffffffffffffffff82111561149f5761149e6117e1565b5b6020830192506001820236038313156114bb576114ba6117ff565b5b509250929050565b60006114cd6114de565b90506114d982826116d5565b919050565b6000604051905090565b600067ffffffffffffffff821115611503576115026117ad565b5b602082029050602081019050919050565b600067ffffffffffffffff82111561152f5761152e6117ad565b5b61153882611813565b9050602081019050919050565b6000819050602082019050919050565b6000819050602082019050919050565b600081519050919050565b600081519050919050565b600081519050919050565b6000602082019050919050565b6000602082019050919050565b600082825260208201905092915050565b600082825260208201905092915050565b600082825260208201905092915050565b600081905092915050565b600082825260208201905092915050565b60006115fa82611655565b9050919050565b600061160c82611655565b9050919050565b60008115159050919050565b6000819050919050565b60007fffffffff0000000000000000000000000000000000000000000000000000000082169050919050565b600073ffffffffffffffffffffffffffffffffffffffff82169050919050565b6000819050919050565b600067ffffffffffffffff82169050919050565b82818337600083830152505050565b60005b838110156116c05780820151818401526020810190506116a5565b838111156116cf576000848401525b50505050565b6116de82611813565b810181811067ffffffffffffffff821117156116fd576116fc6117ad565b5b80604052505050565b600061171182611675565b91507fffffffffffffffffffffffffffffffffffffffffffffffffffffffffffffffff8214156117445761174361174f565b5b600182019050919050565b7f4e487b7100000000000000000000000000000000000000000000000000000000600052601160045260246000fd5b7f4e487b7100000000000000000000000000000000000000000000000000000000600052603260045260246000fd5b7f4e487b7100000000000000000000000000000000000000000000000000000000600052604160045260246000fd5b600080fd5b600080fd5b600080fd5b600080fd5b600080fd5b600080fd5b600080fd5b600080fd5b600080fd5b600080fd5b600080fd5b6000601f19601f8301169050919050565b7f6d6f636b20726f757465722064656c65676174652063616c6c206661696c6564600082015250565b611856816115ef565b811461186157600080fd5b50565b61186d81611601565b811461187857600080fd5b50565b61188481611613565b811461188f57600080fd5b50565b61189b8161161f565b81146118a657600080fd5b50565b6118b281611675565b81146118bd57600080fd5b50565b6118c98161167f565b81146118d457600080fd5b5056fea26469706673582212205b7febe9417d9676b4c755cac92cda9a8755c9573bccf9b3f6f89b18e30a002d64736f6c63430008070033","linkReferences":{}},"methodIdentifiers":{"bytesToAddress(bytes)":"42526e4e","ccipReceive((bytes32,uint64,bytes,bytes,(address,uint256)[]))":"85572ffb","ccipSend(uint64,(bytes,bytes,(address,uint256)[],address,bytes))":"96f4e9f9","factoryChainSelector(address)":"d9139974","getFee(uint64,(bytes,bytes,(address,uint256)[],address,bytes))":"20487ded","getFunctionSelector()":"10d1c4c3","getSupportedTokens(uint64)":"fbca3b74","isChainSupported(uint64)":"a48a9058","setFactoryChainSelector(uint64,address)":"844968c8"},"id":26}