{"abi":[{"type":"constructor","inputs":[{"name":"_linkAddress","type":"address","internalType":"address"}],"stateMutability":"nonpayable"},{"type":"function","name":"bytesToAddress","inputs":[{"name":"data","type":"bytes","internalType":"bytes"}],"outputs":[{"name":"","type":"address","internalType":"address"}],"stateMutability":"pure"},{"type":"function","name":"ccipReceive","inputs":[{"name":"message","type":"tuple","internalType":"struct Client.Any2EVMMessage","components":[{"name":"messageId","type":"bytes32","internalType":"bytes32"},{"name":"sourceChainSelector","type":"uint64","internalType":"uint64"},{"name":"sender","type":"bytes","internalType":"bytes"},{"name":"data","type":"bytes","internalType":"bytes"},{"name":"destTokenAmounts","type":"tuple[]","internalType":"struct Client.EVMTokenAmount[]","components":[{"name":"token","type":"address","internalType":"address"},{"name":"amount","type":"uint256","internalType":"uint256"}]}]}],"outputs":[],"stateMutability":"nonpayable"},{"type":"function","name":"ccipSend","inputs":[{"name":"destinationChainSelector","type":"uint64","internalType":"uint64"},{"name":"message","type":"tuple","internalType":"struct Client.EVM2AnyMessage","components":[{"name":"receiver","type":"bytes","internalType":"bytes"},{"name":"data","type":"bytes","internalType":"bytes"},{"name":"tokenAmounts","type":"tuple[]","internalType":"struct Client.EVMTokenAmount[]","components":[{"name":"token","type":"address","internalType":"address"},{"name":"amount","type":"uint256","internalType":"uint256"}]},{"name":"feeToken","type":"address","internalType":"address"},{"name":"extraArgs","type":"bytes","internalType":"bytes"}]}],"outputs":[{"name":"","type":"bytes32","internalType":"bytes32"}],"stateMutability":"payable"},{"type":"function","name":"factoryChainSelector","inputs":[{"name":"","type":"address","internalType":"address"}],"outputs":[{"name":"","type":"uint64","internalType":"uint64"}],"stateMutability":"view"},{"type":"function","name":"getFee","inputs":[{"name":"destinationChainSelector","type":"uint64","internalType":"uint64"},{"name":"message","type":"tuple","internalType":"struct Client.EVM2AnyMessage","components":[{"name":"receiver","type":"bytes","internalType":"bytes"},{"name":"data","type":"bytes","internalType":"bytes"},{"name":"tokenAmounts","type":"tuple[]","internalType":"struct Client.EVMTokenAmount[]","components":[{"name":"token","type":"address","internalType":"address"},{"name":"amount","type":"uint256","internalType":"uint256"}]},{"name":"feeToken","type":"address","internalType":"address"},{"name":"extraArgs","type":"bytes","internalType":"bytes"}]}],"outputs":[{"name":"fee","type":"uint256","internalType":"uint256"}],"stateMutability":"view"},{"type":"function","name":"getFunctionSelector","inputs":[],"outputs":[{"name":"","type":"bytes4","internalType":"bytes4"}],"stateMutability":"pure"},{"type":"function","name":"getSupportedTokens","inputs":[{"name":"chainSelector","type":"uint64","internalType":"uint64"}],"outputs":[{"name":"tokens","type":"address[]","internalType":"address[]"}],"stateMutability":"pure"},{"type":"function","name":"isChainSupported","inputs":[{"name":"chainSelector","type":"uint64","internalType":"uint64"}],"outputs":[{"name":"supported","type":"bool","internalType":"bool"}],"stateMutability":"pure"},{"type":"function","name":"setFactoryChainSelector","inputs":[{"name":"_chainSelector","type":"uint64","internalType":"uint64"},{"name":"_factory","type":"address","internalType":"address"}],"outputs":[],"stateMutability":"nonpayable"}],"bytecode":{"object":"0x608060405267016345785d8a00005f5534801561001a575f80fd5b506040516118a93803806118a9833981810160405281019061003c91906100e0565b8060015f6101000a81548173ffffffffffffffffffffffffffffffffffffffff021916908373ffffffffffffffffffffffffffffffffffffffff1602179055505061010b565b5f80fd5b5f73ffffffffffffffffffffffffffffffffffffffff82169050919050565b5f6100af82610086565b9050919050565b6100bf816100a5565b81146100c9575f80fd5b50565b5f815190506100da816100b6565b92915050565b5f602082840312156100f5576100f4610082565b5b5f610102848285016100cc565b91505092915050565b611791806101185f395ff3fe608060405260043610610085575f3560e01c806385572ffb1161005857806385572ffb1461015357806396f4e9f91461017b578063a48a9058146101ab578063d9139974146101e7578063fbca3b741461022357610085565b806310d1c4c31461008957806320487ded146100b357806342526e4e146100ef578063844968c81461012b575b5f80fd5b348015610094575f80fd5b5061009d61025f565b6040516100aa9190610984565b60405180910390f35b3480156100be575f80fd5b506100d960048036038101906100d49190610dc6565b610286565b6040516100e69190610e2f565b60405180910390f35b3480156100fa575f80fd5b5061011560048036038101906101109190610e48565b6102d5565b6040516101229190610e9e565b60405180910390f35b348015610136575f80fd5b50610151600480360381019061014c9190610eb7565b6102f1565b005b34801561015e575f80fd5b5061017960048036038101906101749190611005565b610358565b005b6101956004803603810190610190919061106e565b61035b565b6040516101a291906110d7565b60405180910390f35b3480156101b6575f80fd5b506101d160048036038101906101cc91906110f0565b610821565b6040516101de9190611135565b60405180910390f35b3480156101f2575f80fd5b5061020d6004803603810190610208919061114e565b61085e565b60405161021a9190611188565b60405180910390f35b34801561022e575f80fd5b50610249600480360381019061024491906110f0565b610882565b6040516102569190611258565b60405180910390f35b5f7f4f77c582c0335288fc6135883f0b9c0ae2a781158fd4e6f6edd3907243fffbbd905090565b5f808367ffffffffffffffff1690505f8390505f82101580156102b25750683635c9adc5dea000008211155b80156102c357505f81604001515110155b156102cd575f5492505b505092915050565b5f818060200190518101906102ea91906112b3565b9050919050565b8160025f8373ffffffffffffffffffffffffffffffffffffffff1673ffffffffffffffffffffffffffffffffffffffff1681526020019081526020015f205f6101000a81548167ffffffffffffffff021916908367ffffffffffffffff1602179055505050565b50565b5f806103b683805f019061036f91906112ea565b8080601f0160208091040260200160405190810160405280939291908181526020018383808284375f81840152601f19601f820116905080830192505050505050506102d5565b905060015f9054906101000a900473ffffffffffffffffffffffffffffffffffffffff1673ffffffffffffffffffffffffffffffffffffffff166323b872dd33305f546040518463ffffffff1660e01b81526004016104179392919061134c565b6020604051808303815f875af1158015610433573d5f803e3d5ffd5b505050506040513d601f19601f8201168201806040525081019061045791906113ab565b505f83806040019061046991906113d6565b905011801561048257505f8467ffffffffffffffff1610155b15610590575f5b83806040019061049991906113d6565b905081101561058e578380604001906104b291906113d6565b828181106104c3576104c2611438565b5b9050604002015f0160208101906104da919061114e565b73ffffffffffffffffffffffffffffffffffffffff166323b872dd338487806040019061050791906113d6565b8681811061051857610517611438565b5b905060400201602001356040518463ffffffff1660e01b81526004016105409392919061134c565b6020604051808303815f875af115801561055c573d5f803e3d5ffd5b505050506040513d601f19601f8201168201806040525081019061058091906113ab565b508080600101915050610489565b505b610598610910565b8380602001906105a891906112ea565b8080601f0160208091040260200160405190810160405280939291908181526020018383808284375f81840152601f19601f82011690508083019250505050505050816060018190525083806040019061060291906113d6565b808060200260200160405190810160405280939291908181526020015f905b82821015610651578484839050604002018036038101906106429190611465565b81526020019060010190610621565b505050505081608001819052503360405160200161066f9190610e9e565b604051602081830303815290604052816040018190525060025f3373ffffffffffffffffffffffffffffffffffffffff1673ffffffffffffffffffffffffffffffffffffffff1681526020019081526020015f205f9054906101000a900467ffffffffffffffff16816020019067ffffffffffffffff16908167ffffffffffffffff16815250505f8273ffffffffffffffffffffffffffffffffffffffff166385572ffb60e01b836040516024016107279190611673565b604051602081830303815290604052907bffffffffffffffffffffffffffffffffffffffffffffffffffffffff19166020820180517bffffffffffffffffffffffffffffffffffffffffffffffffffffffff838183161783525050505060405161079191906116cd565b5f604051808303815f865af19150503d805f81146107ca576040519150601f19603f3d011682016040523d82523d5f602084013e6107cf565b606091505b5050905080610813576040517f08c379a000000000000000000000000000000000000000000000000000000000815260040161080a9061173d565b60405180910390fd5b5f801b935050505092915050565b5f808267ffffffffffffffff161015801561084f5750683635c9adc5dea000008267ffffffffffffffff1611155b1561085957600190505b919050565b6002602052805f5260405f205f915054906101000a900467ffffffffffffffff1681565b60605f8267ffffffffffffffff16101580156108b15750683635c9adc5dea000008267ffffffffffffffff1611155b1561090b5760605f815f815181106108cc576108cb611438565b5b602002602001019073ffffffffffffffffffffffffffffffffffffffff16908173ffffffffffffffffffffffffffffffffffffffff1681525050809150505b919050565b6040518060a001604052805f80191681526020015f67ffffffffffffffff1681526020016060815260200160608152602001606081525090565b5f7fffffffff0000000000000000000000000000000000000000000000000000000082169050919050565b61097e8161094a565b82525050565b5f6020820190506109975f830184610975565b92915050565b5f604051905090565b5f80fd5b5f80fd5b5f67ffffffffffffffff82169050919050565b6109ca816109ae565b81146109d4575f80fd5b50565b5f813590506109e5816109c1565b92915050565b5f80fd5b5f601f19601f8301169050919050565b7f4e487b71000000000000000000000000000000000000000000000000000000005f52604160045260245ffd5b610a35826109ef565b810181811067ffffffffffffffff82111715610a5457610a536109ff565b5b80604052505050565b5f610a6661099d565b9050610a728282610a2c565b919050565b5f80fd5b5f80fd5b5f80fd5b5f67ffffffffffffffff821115610a9d57610a9c6109ff565b5b610aa6826109ef565b9050602081019050919050565b828183375f83830152505050565b5f610ad3610ace84610a83565b610a5d565b905082815260208101848484011115610aef57610aee610a7f565b5b610afa848285610ab3565b509392505050565b5f82601f830112610b1657610b15610a7b565b5b8135610b26848260208601610ac1565b91505092915050565b5f67ffffffffffffffff821115610b4957610b486109ff565b5b602082029050602081019050919050565b5f80fd5b5f73ffffffffffffffffffffffffffffffffffffffff82169050919050565b5f610b8782610b5e565b9050919050565b610b9781610b7d565b8114610ba1575f80fd5b50565b5f81359050610bb281610b8e565b92915050565b5f819050919050565b610bca81610bb8565b8114610bd4575f80fd5b50565b5f81359050610be581610bc1565b92915050565b5f60408284031215610c0057610bff6109eb565b5b610c0a6040610a5d565b90505f610c1984828501610ba4565b5f830152506020610c2c84828501610bd7565b60208301525092915050565b5f610c4a610c4584610b2f565b610a5d565b90508083825260208201905060408402830185811115610c6d57610c6c610b5a565b5b835b81811015610c965780610c828882610beb565b845260208401935050604081019050610c6f565b5050509392505050565b5f82601f830112610cb457610cb3610a7b565b5b8135610cc4848260208601610c38565b91505092915050565b5f60a08284031215610ce257610ce16109eb565b5b610cec60a0610a5d565b90505f82013567ffffffffffffffff811115610d0b57610d0a610a77565b5b610d1784828501610b02565b5f83015250602082013567ffffffffffffffff811115610d3a57610d39610a77565b5b610d4684828501610b02565b602083015250604082013567ffffffffffffffff811115610d6a57610d69610a77565b5b610d7684828501610ca0565b6040830152506060610d8a84828501610ba4565b606083015250608082013567ffffffffffffffff811115610dae57610dad610a77565b5b610dba84828501610b02565b60808301525092915050565b5f8060408385031215610ddc57610ddb6109a6565b5b5f610de9858286016109d7565b925050602083013567ffffffffffffffff811115610e0a57610e096109aa565b5b610e1685828601610ccd565b9150509250929050565b610e2981610bb8565b82525050565b5f602082019050610e425f830184610e20565b92915050565b5f60208284031215610e5d57610e5c6109a6565b5b5f82013567ffffffffffffffff811115610e7a57610e796109aa565b5b610e8684828501610b02565b91505092915050565b610e9881610b7d565b82525050565b5f602082019050610eb15f830184610e8f565b92915050565b5f8060408385031215610ecd57610ecc6109a6565b5b5f610eda858286016109d7565b9250506020610eeb85828601610ba4565b9150509250929050565b5f819050919050565b610f0781610ef5565b8114610f11575f80fd5b50565b5f81359050610f2281610efe565b92915050565b5f60a08284031215610f3d57610f3c6109eb565b5b610f4760a0610a5d565b90505f610f5684828501610f14565b5f830152506020610f69848285016109d7565b602083015250604082013567ffffffffffffffff811115610f8d57610f8c610a77565b5b610f9984828501610b02565b604083015250606082013567ffffffffffffffff811115610fbd57610fbc610a77565b5b610fc984828501610b02565b606083015250608082013567ffffffffffffffff811115610fed57610fec610a77565b5b610ff984828501610ca0565b60808301525092915050565b5f6020828403121561101a576110196109a6565b5b5f82013567ffffffffffffffff811115611037576110366109aa565b5b61104384828501610f28565b91505092915050565b5f80fd5b5f60a082840312156110655761106461104c565b5b81905092915050565b5f8060408385031215611084576110836109a6565b5b5f611091858286016109d7565b925050602083013567ffffffffffffffff8111156110b2576110b16109aa565b5b6110be85828601611050565b9150509250929050565b6110d181610ef5565b82525050565b5f6020820190506110ea5f8301846110c8565b92915050565b5f60208284031215611105576111046109a6565b5b5f611112848285016109d7565b91505092915050565b5f8115159050919050565b61112f8161111b565b82525050565b5f6020820190506111485f830184611126565b92915050565b5f60208284031215611163576111626109a6565b5b5f61117084828501610ba4565b91505092915050565b611182816109ae565b82525050565b5f60208201905061119b5f830184611179565b92915050565b5f81519050919050565b5f82825260208201905092915050565b5f819050602082019050919050565b6111d381610b7d565b82525050565b5f6111e483836111ca565b60208301905092915050565b5f602082019050919050565b5f611206826111a1565b61121081856111ab565b935061121b836111bb565b805f5b8381101561124b57815161123288826111d9565b975061123d836111f0565b92505060018101905061121e565b5085935050505092915050565b5f6020820190508181035f83015261127081846111fc565b905092915050565b5f61128282610b5e565b9050919050565b61129281611278565b811461129c575f80fd5b50565b5f815190506112ad81611289565b92915050565b5f602082840312156112c8576112c76109a6565b5b5f6112d58482850161129f565b91505092915050565b5f80fd5b5f80fd5b5f80fd5b5f8083356001602003843603038112611306576113056112de565b5b80840192508235915067ffffffffffffffff821115611328576113276112e2565b5b602083019250600182023603831315611344576113436112e6565b5b509250929050565b5f60608201905061135f5f830186610e8f565b61136c6020830185610e8f565b6113796040830184610e20565b949350505050565b61138a8161111b565b8114611394575f80fd5b50565b5f815190506113a581611381565b92915050565b5f602082840312156113c0576113bf6109a6565b5b5f6113cd84828501611397565b91505092915050565b5f80833560016020038436030381126113f2576113f16112de565b5b80840192508235915067ffffffffffffffff821115611414576114136112e2565b5b6020830192506040820236038313156114305761142f6112e6565b5b509250929050565b7f4e487b71000000000000000000000000000000000000000000000000000000005f52603260045260245ffd5b5f6040828403121561147a576114796109a6565b5b5f61148784828501610beb565b91505092915050565b61149981610ef5565b82525050565b6114a8816109ae565b82525050565b5f81519050919050565b5f82825260208201905092915050565b8281835e5f83830152505050565b5f6114e0826114ae565b6114ea81856114b8565b93506114fa8185602086016114c8565b611503816109ef565b840191505092915050565b5f81519050919050565b5f82825260208201905092915050565b5f819050602082019050919050565b61154081610bb8565b82525050565b604082015f82015161155a5f8501826111ca565b50602082015161156d6020850182611537565b50505050565b5f61157e8383611546565b60408301905092915050565b5f602082019050919050565b5f6115a08261150e565b6115aa8185611518565b93506115b583611528565b805f5b838110156115e55781516115cc8882611573565b97506115d78361158a565b9250506001810190506115b8565b5085935050505092915050565b5f60a083015f8301516116075f860182611490565b50602083015161161a602086018261149f565b506040830151848203604086015261163282826114d6565b9150506060830151848203606086015261164c82826114d6565b915050608083015184820360808601526116668282611596565b9150508091505092915050565b5f6020820190508181035f83015261168b81846115f2565b905092915050565b5f81905092915050565b5f6116a7826114ae565b6116b18185611693565b93506116c18185602086016114c8565b80840191505092915050565b5f6116d8828461169d565b915081905092915050565b5f82825260208201905092915050565b7f6d6f636b20726f757465722064656c65676174652063616c6c206661696c65645f82015250565b5f6117276020836116e3565b9150611732826116f3565b602082019050919050565b5f6020820190508181035f8301526117548161171b565b905091905056fea2646970667358221220600e87f337e8e31a77ec8520f52286c0326689ba843f5bba0f7f83c61a51d37064736f6c634300081a0033","linkReferences":{}},"methodIdentifiers":{"bytesToAddress(bytes)":"42526e4e","ccipReceive((bytes32,uint64,bytes,bytes,(address,uint256)[]))":"85572ffb","ccipSend(uint64,(bytes,bytes,(address,uint256)[],address,bytes))":"96f4e9f9","factoryChainSelector(address)":"d9139974","getFee(uint64,(bytes,bytes,(address,uint256)[],address,bytes))":"20487ded","getFunctionSelector()":"10d1c4c3","getSupportedTokens(uint64)":"fbca3b74","isChainSupported(uint64)":"a48a9058","setFactoryChainSelector(uint64,address)":"844968c8"},"id":30}