{"abi":[{"type":"function","name":"DEFAULT_GAS_LIMIT","inputs":[],"outputs":[{"name":"","type":"uint32","internalType":"uint32"}],"stateMutability":"view"},{"type":"function","name":"GAS_FOR_CALL_EXACT_CHECK","inputs":[],"outputs":[{"name":"","type":"uint16","internalType":"uint16"}],"stateMutability":"view"},{"type":"function","name":"ccipSend","inputs":[{"name":"destinationChainSelector","type":"uint64","internalType":"uint64"},{"name":"message","type":"tuple","internalType":"struct Client.EVM2AnyMessage","components":[{"name":"receiver","type":"bytes","internalType":"bytes"},{"name":"data","type":"bytes","internalType":"bytes"},{"name":"tokenAmounts","type":"tuple[]","internalType":"struct Client.EVMTokenAmount[]","components":[{"name":"token","type":"address","internalType":"address"},{"name":"amount","type":"uint256","internalType":"uint256"}]},{"name":"feeToken","type":"address","internalType":"address"},{"name":"extraArgs","type":"bytes","internalType":"bytes"}]}],"outputs":[{"name":"","type":"bytes32","internalType":"bytes32"}],"stateMutability":"payable"},{"type":"function","name":"getFee","inputs":[{"name":"","type":"uint64","internalType":"uint64"},{"name":"","type":"tuple","internalType":"struct Client.EVM2AnyMessage","components":[{"name":"receiver","type":"bytes","internalType":"bytes"},{"name":"data","type":"bytes","internalType":"bytes"},{"name":"tokenAmounts","type":"tuple[]","internalType":"struct Client.EVMTokenAmount[]","components":[{"name":"token","type":"address","internalType":"address"},{"name":"amount","type":"uint256","internalType":"uint256"}]},{"name":"feeToken","type":"address","internalType":"address"},{"name":"extraArgs","type":"bytes","internalType":"bytes"}]}],"outputs":[{"name":"","type":"uint256","internalType":"uint256"}],"stateMutability":"view"},{"type":"function","name":"getOnRamp","inputs":[{"name":"","type":"uint64","internalType":"uint64"}],"outputs":[{"name":"onRampAddress","type":"address","internalType":"address"}],"stateMutability":"pure"},{"type":"function","name":"getSupportedTokens","inputs":[{"name":"","type":"uint64","internalType":"uint64"}],"outputs":[{"name":"tokens","type":"address[]","internalType":"address[]"}],"stateMutability":"pure"},{"type":"function","name":"isChainSupported","inputs":[{"name":"","type":"uint64","internalType":"uint64"}],"outputs":[{"name":"supported","type":"bool","internalType":"bool"}],"stateMutability":"pure"},{"type":"function","name":"isOffRamp","inputs":[{"name":"","type":"uint64","internalType":"uint64"},{"name":"","type":"address","internalType":"address"}],"outputs":[{"name":"","type":"bool","internalType":"bool"}],"stateMutability":"pure"},{"type":"function","name":"routeMessage","inputs":[{"name":"message","type":"tuple","internalType":"struct Client.Any2EVMMessage","components":[{"name":"messageId","type":"bytes32","internalType":"bytes32"},{"name":"sourceChainSelector","type":"uint64","internalType":"uint64"},{"name":"sender","type":"bytes","internalType":"bytes"},{"name":"data","type":"bytes","internalType":"bytes"},{"name":"destTokenAmounts","type":"tuple[]","internalType":"struct Client.EVMTokenAmount[]","components":[{"name":"token","type":"address","internalType":"address"},{"name":"amount","type":"uint256","internalType":"uint256"}]}]},{"name":"gasForCallExactCheck","type":"uint16","internalType":"uint16"},{"name":"gasLimit","type":"uint256","internalType":"uint256"},{"name":"receiver","type":"address","internalType":"address"}],"outputs":[{"name":"success","type":"bool","internalType":"bool"},{"name":"retData","type":"bytes","internalType":"bytes"},{"name":"gasUsed","type":"uint256","internalType":"uint256"}],"stateMutability":"nonpayable"},{"type":"function","name":"setFee","inputs":[{"name":"feeAmount","type":"uint256","internalType":"uint256"}],"outputs":[],"stateMutability":"nonpayable"},{"type":"event","name":"MessageExecuted","inputs":[{"name":"messageId","type":"bytes32","indexed":false,"internalType":"bytes32"},{"name":"sourceChainSelector","type":"uint64","indexed":false,"internalType":"uint64"},{"name":"offRamp","type":"address","indexed":false,"internalType":"address"},{"name":"calldataHash","type":"bytes32","indexed":false,"internalType":"bytes32"}],"anonymous":false},{"type":"event","name":"MsgExecuted","inputs":[{"name":"success","type":"bool","indexed":false,"internalType":"bool"},{"name":"retData","type":"bytes","indexed":false,"internalType":"bytes"},{"name":"gasUsed","type":"uint256","indexed":false,"internalType":"uint256"}],"anonymous":false},{"type":"error","name":"InsufficientFeeTokenAmount","inputs":[]},{"type":"error","name":"InvalidAddress","inputs":[{"name":"encodedAddress","type":"bytes","internalType":"bytes"}]},{"type":"error","name":"InvalidExtraArgsTag","inputs":[]},{"type":"error","name":"InvalidMsgValue","inputs":[]},{"type":"error","name":"OnlyOffRamp","inputs":[]},{"type":"error","name":"ReceiverError","inputs":[{"name":"err","type":"bytes","internalType":"bytes"}]},{"type":"error","name":"UnsupportedDestinationChain","inputs":[{"name":"destChainSelector","type":"uint64","internalType":"uint64"}]}],"bytecode":{"object":"0x6080604052348015600e575f80fd5b506115af8061001c5f395ff3fe60806040526004361061008f575f3560e01c8063a48a905811610057578063a48a905814610158578063a8d87a3b14610178578063d6be695a146101b3578063ee18e0d3146101de578063fbca3b7414610206575f80fd5b806320487ded146100935780633cf97983146100c557806369fe0e2d146100f357806383826b2b1461011357806396f4e9f914610145575b5f80fd5b34801561009e575f80fd5b506100b26100ad366004610e8f565b610232565b6040519081526020015b60405180910390f35b3480156100d0575f80fd5b506100e46100df366004610eef565b61023b565b6040516100bc93929190610f88565b3480156100fe575f80fd5b5061011161010d366004610fb2565b5f55565b005b34801561011e575f80fd5b5061013561012d366004610fc9565b600192915050565b60405190151581526020016100bc565b6100b2610153366004610ffa565b610264565b348015610163575f80fd5b5061013561017236600461103a565b50600190565b348015610183575f80fd5b5061019b61019236600461103a565b5063499602d290565b6040516001600160a01b0390911681526020016100bc565b3480156101be575f80fd5b506101c962030d4081565b60405163ffffffff90911681526020016100bc565b3480156101e9575f80fd5b506101f361138881565b60405161ffff90911681526020016100bc565b348015610211575f80fd5b5061022561022036600461103a565b610570565b6040516100bc9190611053565b5f545b92915050565b5f60608161025361024b8861109e565b87878761058a565b9250925092505b9450945094915050565b5f61026f8280611143565b90506020146102a6576102828280611143565b60405163370d875f60e01b815260040161029d9291906111b4565b60405180910390fd5b5f6102b18380611143565b8101906102be9190610fb2565b90506001600160a01b038111806102d55750600a81105b156102e4576102828380611143565b5f6102f2856100ad866111c7565b90505f61030560808601606087016111d2565b6001600160a01b0316036103395780341015610334576040516303ed377360e11b815260040160405180910390fd5b61037f565b341561035857604051631841b4e160e01b815260040160405180910390fd5b61037f33308361036e6080890160608a016111d2565b6001600160a01b03169291906106fd565b815f6103966103916080880188611143565b61075d565b5f015190505f866040516020016103ad919061127b565b60408051808303601f19018152828252805160209182012060a08401835280845267de41ba4fc9d91ad982850152825133818401528351808203840181529084018452928401929092529092505f9190606082019061040e908b018b611143565b8080601f0160208091040260200160405190810160405280939291908181526020018383808284375f9201919091525050509082525060200161045460408b018b611371565b808060200260200160405190810160405280939291908181526020015f905b8282101561049f57610490604083028601368190038101906113b6565b81526020019060010190610473565b505050505081525090505f5b6104b860408a018a611371565b905081101561052b5761052333866104d360408d018d611371565b858181106104e3576104e36113d0565b905060400201602001358c80604001906104fd9190611371565b8681811061050d5761050d6113d0565b61036e92602060409092020190810191506111d2565b6001016104ab565b505f8061053c83611388878961058a565b50915091508161056157806040516302a35ba360e21b815260040161029d91906113e4565b50919998505050505050505050565b604080515f808252602082019092526060915b5092915050565b5f60605f8660600151515f1480156105a0575084155b806105b357506001600160a01b0384163b155b806105d557506105d36001600160a01b0385166385572ffb60e01b6107e5565b155b156105f457505060408051602081019091525f8082526001925061025a565b5f6385572ffb60e01b8860405160240161060e91906113f6565b60408051601f198184030181529190526020810180516001600160e01b03166001600160e01b03199093169290921790915290506106508186888a6084610800565b60405192965090945092507fa8b0355886b5b7a28bb97e4f0a24feb172618407402721c4012d8b7c6433102f9061068c90869086908690610f88565b60405180910390a187516020808a0151835184830120604080519485526001600160401b0390921692840192909252339083015260608201527f9b877de93ea9895756e337442c657f95a34fc68e7eb988bdfa693d5be83016b69060800160405180910390a1509450945094915050565b604080516001600160a01b0385811660248301528416604482015260648082018490528251808303909101815260849091019091526020810180516001600160e01b03166323b872dd60e01b1790526107579085906108cf565b50505050565b60408051602081019091525f81525f82900361078a5750604080516020810190915262030d408152610235565b6397a657c960e01b61079c83856114a6565b6001600160e01b031916146107c457604051632923fee760e11b815260040160405180910390fd5b6107d182600481866114dc565b8101906107de9190611503565b9392505050565b5f6107ef836109a5565b80156107de57506107de83836109d7565b5f60605f8361ffff166001600160401b0381111561082057610820610bf2565b6040519080825280601f01601f19166020018201604052801561084a576020820181803683370190505b509150863b6108625763030ed58f60e21b5f5260045ffd5b5a8581101561087a57632be8ca8b60e21b5f5260045ffd5b8590036040810481038710610898576337c3be2960e01b5f5260045ffd5b505a5f808a5160208c015f8c8cf193505a900390503d848111156108b95750835b808352805f602085013e50955095509592505050565b5f610923826040518060400160405280602081526020017f5361666545524332303a206c6f772d6c6576656c2063616c6c206661696c6564815250856001600160a01b0316610a5d9092919063ffffffff16565b8051909150156109a057808060200190518101906109419190611544565b6109a05760405162461bcd60e51b815260206004820152602a60248201527f5361666545524332303a204552433230206f7065726174696f6e20646964206e6044820152691bdd081cdd58d8d9595960b21b606482015260840161029d565b505050565b5f6109b7826301ffc9a760e01b6109d7565b801561023557506109d0826001600160e01b03196109d7565b1592915050565b6040516001600160e01b0319821660248201525f90819060440160408051601f19818403018152919052602080820180516001600160e01b03166301ffc9a760e01b17815282519293505f9283928392909183918a617530fa92503d91505f519050828015610a47575060208210155b8015610a5257505f81115b979650505050505050565b6060610a6b84845f85610a73565b949350505050565b606082471015610ad45760405162461bcd60e51b815260206004820152602660248201527f416464726573733a20696e73756666696369656e742062616c616e636520666f6044820152651c8818d85b1b60d21b606482015260840161029d565b5f80866001600160a01b03168587604051610aef9190611563565b5f6040518083038185875af1925050503d805f8114610b29576040519150601f19603f3d011682016040523d82523d5f602084013e610b2e565b606091505b5091509150610a528783838760608315610ba85782515f03610ba1576001600160a01b0385163b610ba15760405162461bcd60e51b815260206004820152601d60248201527f416464726573733a2063616c6c20746f206e6f6e2d636f6e7472616374000000604482015260640161029d565b5081610a6b565b610a6b8383815115610bbd5781518083602001fd5b8060405162461bcd60e51b815260040161029d91906113e4565b80356001600160401b0381168114610bed575f80fd5b919050565b634e487b7160e01b5f52604160045260245ffd5b60405160a081016001600160401b0381118282101715610c2857610c28610bf2565b60405290565b604051601f8201601f191681016001600160401b0381118282101715610c5657610c56610bf2565b604052919050565b5f82601f830112610c6d575f80fd5b81356001600160401b03811115610c8657610c86610bf2565b610c99601f8201601f1916602001610c2e565b818152846020838601011115610cad575f80fd5b816020850160208301375f918101602001919091529392505050565b80356001600160a01b0381168114610bed575f80fd5b5f60408284031215610cef575f80fd5b604080519081016001600160401b0381118282101715610d1157610d11610bf2565b604052905080610d2083610cc9565b8152602092830135920191909152919050565b5f82601f830112610d42575f80fd5b81356001600160401b03811115610d5b57610d5b610bf2565b610d6a60208260051b01610c2e565b8082825260208201915060208360061b860101925085831115610d8b575f80fd5b602085015b83811015610db257610da28782610cdf565b8352602090920191604001610d90565b5095945050505050565b5f60a08284031215610dcc575f80fd5b610dd4610c06565b905081356001600160401b03811115610deb575f80fd5b610df784828501610c5e565b82525060208201356001600160401b03811115610e12575f80fd5b610e1e84828501610c5e565b60208301525060408201356001600160401b03811115610e3c575f80fd5b610e4884828501610d33565b604083015250610e5a60608301610cc9565b606082015260808201356001600160401b03811115610e77575f80fd5b610e8384828501610c5e565b60808301525092915050565b5f8060408385031215610ea0575f80fd5b610ea983610bd7565b915060208301356001600160401b03811115610ec3575f80fd5b610ecf85828601610dbc565b9150509250929050565b5f60a08284031215610ee9575f80fd5b50919050565b5f805f8060808587031215610f02575f80fd5b84356001600160401b03811115610f17575f80fd5b610f2387828801610ed9565b945050602085013561ffff81168114610f3a575f80fd5b925060408501359150610f4f60608601610cc9565b905092959194509250565b5f81518084528060208401602086015e5f602082860101526020601f19601f83011685010191505092915050565b8315158152606060208201525f610fa26060830185610f5a565b9050826040830152949350505050565b5f60208284031215610fc2575f80fd5b5035919050565b5f8060408385031215610fda575f80fd5b610fe383610bd7565b9150610ff160208401610cc9565b90509250929050565b5f806040838503121561100b575f80fd5b61101483610bd7565b915060208301356001600160401b0381111561102e575f80fd5b610ecf85828601610ed9565b5f6020828403121561104a575f80fd5b6107de82610bd7565b602080825282518282018190525f918401906040840190835b818110156110935783516001600160a01b031683526020938401939092019160010161106c565b509095945050505050565b5f60a082360312156110ae575f80fd5b6110b6610c06565b823581526110c660208401610bd7565b602082015260408301356001600160401b038111156110e3575f80fd5b6110ef36828601610c5e565b60408301525060608301356001600160401b0381111561110d575f80fd5b61111936828601610c5e565b60608301525060808301356001600160401b03811115611137575f80fd5b610e8336828601610d33565b5f808335601e19843603018112611158575f80fd5b8301803591506001600160401b03821115611171575f80fd5b602001915036819003821315611185575f80fd5b9250929050565b81835281816020850137505f828201602090810191909152601f909101601f19169091010190565b602081525f610a6b60208301848661118c565b5f6102353683610dbc565b5f602082840312156111e2575f80fd5b6107de82610cc9565b5f808335601e19843603018112611200575f80fd5b83016020810192503590506001600160401b0381111561121e575f80fd5b803603821315611185575f80fd5b8183526020830192505f815f5b84811015611271576001600160a01b0361125283610cc9565b1686526020828101359087015260409586019590910190600101611239565b5093949350505050565b602081525f61128a83846111eb565b60a0602085015261129f60c08501828461118c565b9150506112af60208501856111eb565b848303601f190160408601526112c683828461118c565b925050506040840135601e198536030181126112e0575f80fd5b84016020810190356001600160401b038111156112fb575f80fd5b8060061b360382131561130c575f80fd5b848303601f1901606086015261132383828461122c565b9250505061133360608501610cc9565b6001600160a01b03811660808501525061135060808501856111eb565b848303601f190160a086015261136783828461118c565b9695505050505050565b5f808335601e19843603018112611386575f80fd5b8301803591506001600160401b0382111561139f575f80fd5b6020019150600681901b3603821315611185575f80fd5b5f604082840312156113c6575f80fd5b6107de8383610cdf565b634e487b7160e01b5f52603260045260245ffd5b602081525f6107de6020830184610f5a565b60208152815160208201526001600160401b0360208301511660408201525f604083015160a0606084015261142e60c0840182610f5a565b90506060840151601f1984830301608085015261144b8282610f5a565b6080860151858203601f190160a08701528051808352602091820194505f93509101905b80831015610db257835180516001600160a01b0316835260209081015181840152909301926001929092019160409091019061146f565b80356001600160e01b03198116906004841015610583576001600160e01b031960049490940360031b84901b1690921692915050565b5f80858511156114ea575f80fd5b838611156114f6575f80fd5b5050820193919092039150565b5f6020828403128015611514575f80fd5b50604051602081016001600160401b038111828210171561153757611537610bf2565b6040529135825250919050565b5f60208284031215611554575f80fd5b815180151581146107de575f80fd5b5f82518060208501845e5f92019182525091905056fea26469706673582212200f2295134839573a9cfcfc0b9786a70fab8a14033436883d0cd4e92ee293908f64736f6c634300081a0033","linkReferences":{}},"methodIdentifiers":{"DEFAULT_GAS_LIMIT()":"d6be695a","GAS_FOR_CALL_EXACT_CHECK()":"ee18e0d3","ccipSend(uint64,(bytes,bytes,(address,uint256)[],address,bytes))":"96f4e9f9","getFee(uint64,(bytes,bytes,(address,uint256)[],address,bytes))":"20487ded","getOnRamp(uint64)":"a8d87a3b","getSupportedTokens(uint64)":"fbca3b74","isChainSupported(uint64)":"a48a9058","isOffRamp(uint64,address)":"83826b2b","routeMessage((bytes32,uint64,bytes,bytes,(address,uint256)[]),uint16,uint256,address)":"3cf97983","setFee(uint256)":"69fe0e2d"},"id":79}