{"abi":[{"type":"function","name":"DAI","inputs":[],"outputs":[{"name":"","type":"address","internalType":"address"}],"stateMutability":"view"},{"type":"function","name":"USDC","inputs":[],"outputs":[{"name":"","type":"address","internalType":"address"}],"stateMutability":"view"},{"type":"function","name":"WETH9","inputs":[],"outputs":[{"name":"","type":"address","internalType":"address"}],"stateMutability":"view"},{"type":"function","name":"swapExactInputMultihop","inputs":[{"name":"amountIn","type":"uint256","internalType":"uint256"},{"name":"_tokenOut","type":"address","internalType":"address"}],"outputs":[{"name":"amountOut","type":"uint256","internalType":"uint256"}],"stateMutability":"nonpayable"},{"type":"function","name":"swapExactInputSingle","inputs":[{"name":"amountIn","type":"uint256","internalType":"uint256"},{"name":"_tokenOut","type":"address","internalType":"address"}],"outputs":[{"name":"amountOut","type":"uint256","internalType":"uint256"}],"stateMutability":"nonpayable"},{"type":"function","name":"swapExactOutputMultihop","inputs":[{"name":"amountOut","type":"uint256","internalType":"uint256"},{"name":"amountInMaximum","type":"uint256","internalType":"uint256"},{"name":"_tokenOut","type":"uint256","internalType":"uint256"}],"outputs":[{"name":"amountIn","type":"uint256","internalType":"uint256"}],"stateMutability":"nonpayable"},{"type":"function","name":"swapExactOutputSingle","inputs":[{"name":"amountOut","type":"uint256","internalType":"uint256"},{"name":"amountInMaximum","type":"uint256","internalType":"uint256"},{"name":"_tokenOut","type":"address","internalType":"address"}],"outputs":[{"name":"amountIn","type":"uint256","internalType":"uint256"}],"stateMutability":"nonpayable"},{"type":"function","name":"swapRouter","inputs":[],"outputs":[{"name":"","type":"address","internalType":"contract ISwapRouter"}],"stateMutability":"view"}],"bytecode":{"object":"0x608060405234801561001057600080fd5b50610bb8806100206000396000f3fe608060405234801561001057600080fd5b50600436106100885760003560e01c806389a302711161005b57806389a302711461010f5780638c5c5ca21461012a578063c31c9c071461013d578063e0bab4c41461015857600080fd5b80633c8c4e931461008d57806348946cee146100b35780634aa4a4fc146100c6578063793ea8d1146100f9575b600080fd5b6100a061009b366004610a0c565b610173565b6040519081526020015b60405180910390f35b6100a06100c1366004610a38565b6102f4565b6100e173c02aaa39b223fe8d0a0e5c4f27ead9083c756cc281565b6040516001600160a01b0390911681526020016100aa565b6100a0610107366004610a0c565b600092915050565b6100e173a0b86991c6218b36c1d19d4a2e9eb0ce3606eb4881565b6100a0610138366004610a6d565b6104db565b6100e173e592427a0aece92de3edee1f18e0157c0586156481565b6100e1736b175474e89094c44da98b954eedeac495271d0f81565b600061019573c02aaa39b223fe8d0a0e5c4f27ead9083c756cc23330866106a6565b6101c873c02aaa39b223fe8d0a0e5c4f27ead9083c756cc273e592427a0aece92de3edee1f18e0157c05861564856107b5565b6040805160a081018252736015551cd911ff4685072e2793f56c841e3ab66160611b60c082015261017760eb1b60d48201527314170d3238c43166d83a33a945d3d619c6c0dd6960631b60d7820152601960ea1b60eb820152606084811b6bffffffffffffffffffffffff191660ee830152825180830360e20181526101028301845282523360208301524282840152810185905260006080820152905163c04b8d5960e01b815273e592427a0aece92de3edee1f18e0157c058615649063c04b8d599061029a908490600401610b1a565b602060405180830381600087803b1580156102b457600080fd5b505af11580156102c8573d6000803e3d6000fd5b505050506040513d601f19601f820116820180604052508101906102ec91906109f3565b949350505050565b600061031673c02aaa39b223fe8d0a0e5c4f27ead9083c756cc23330866106a6565b61034973c02aaa39b223fe8d0a0e5c4f27ead9083c756cc273e592427a0aece92de3edee1f18e0157c05861564856107b5565b604080516101008101825273c02aaa39b223fe8d0a0e5c4f27ead9083c756cc281526001600160a01b0384811660208301908152610bb88385019081523360608501908152426080860190815260a086018b815260c087018b8152600060e089019081529851631b67c43360e31b8152885188166004820152955187166024870152935162ffffff1660448601529151851660648501525160848401525160a48301525160c482015292511660e48301529073e592427a0aece92de3edee1f18e0157c058615649063db3e21989061010401602060405180830381600087803b15801561043557600080fd5b505af1158015610449573d6000803e3d6000fd5b505050506040513d601f19601f8201168201806040525081019061046d91906109f3565b9150838210156104d3576104ab73c02aaa39b223fe8d0a0e5c4f27ead9083c756cc273e592427a0aece92de3edee1f18e0157c0586156460006107b5565b6104d373c02aaa39b223fe8d0a0e5c4f27ead9083c756cc2336104ce8588610b2d565b6108b5565b509392505050565b60006104fd73c02aaa39b223fe8d0a0e5c4f27ead9083c756cc23330866106a6565b61053073c02aaa39b223fe8d0a0e5c4f27ead9083c756cc273e592427a0aece92de3edee1f18e0157c05861564856107b5565b6040805160a08101825260c08101849052601960ea1b60e08201527314170d3238c43166d83a33a945d3d619c6c0dd6960631b60e382015261017760eb1b60f7820152736015551cd911ff4685072e2793f56c841e3ab66160611b60fa820152815160ee81830301815261010e820183528152336020820152428183015260608101869052608081018590529051631e51809360e31b815273e592427a0aece92de3edee1f18e0157c058615649063f28c0498906105f2908490600401610b1a565b602060405180830381600087803b15801561060c57600080fd5b505af1158015610620573d6000803e3d6000fd5b505050506040513d601f19601f8201168201806040525081019061064491906109f3565b9150838210156104d35761068273c02aaa39b223fe8d0a0e5c4f27ead9083c756cc273e592427a0aece92de3edee1f18e0157c0586156460006107b5565b6104d373c02aaa39b223fe8d0a0e5c4f27ead9083c756cc230336106a68689610b2d565b604080516001600160a01b0385811660248301528481166044830152606480830185905283518084039091018152608490920183526020820180516001600160e01b03166323b872dd60e01b179052915160009283929088169161070a9190610afe565b6000604051808303816000865af19150503d8060008114610747576040519150601f19603f3d011682016040523d82523d6000602084013e61074c565b606091505b509150915081801561077657508051158061077657508080602001905181019061077691906109ca565b6107ad5760405162461bcd60e51b815260206004820152600360248201526229aa2360e91b60448201526064015b60405180910390fd5b505050505050565b604080516001600160a01b038481166024830152604480830185905283518084039091018152606490920183526020820180516001600160e01b031663095ea7b360e01b17905291516000928392908716916108119190610afe565b6000604051808303816000865af19150503d806000811461084e576040519150601f19603f3d011682016040523d82523d6000602084013e610853565b606091505b509150915081801561087d57508051158061087d57508080602001905181019061087d91906109ca565b6108ae5760405162461bcd60e51b8152602060048201526002602482015261534160f01b60448201526064016107a4565b5050505050565b604080516001600160a01b038481166024830152604480830185905283518084039091018152606490920183526020820180516001600160e01b031663a9059cbb60e01b17905291516000928392908716916109119190610afe565b6000604051808303816000865af19150503d806000811461094e576040519150601f19603f3d011682016040523d82523d6000602084013e610953565b606091505b509150915081801561097d57508051158061097d57508080602001905181019061097d91906109ca565b6108ae5760405162461bcd60e51b815260206004820152600260248201526114d560f21b60448201526064016107a4565b80356001600160a01b03811681146109c557600080fd5b919050565b6000602082840312156109dc57600080fd5b815180151581146109ec57600080fd5b9392505050565b600060208284031215610a0557600080fd5b5051919050565b60008060408385031215610a1f57600080fd5b82359150610a2f602084016109ae565b90509250929050565b600080600060608486031215610a4d57600080fd5b8335925060208401359150610a64604085016109ae565b90509250925092565b600080600060608486031215610a8257600080fd5b505081359360208301359350604090920135919050565b6000815160a0845280518060a0860152610aba8160c0870160208501610b52565b6020848101516001600160a01b0316908601526040808501519086015260608085015190860152608093840151938501939093525050601f01601f19160160c00190565b60008251610b10818460208701610b52565b9190910192915050565b6020815260006109ec6020830184610a99565b600082821015610b4d57634e487b7160e01b600052601160045260246000fd5b500390565b60005b83811015610b6d578181015183820152602001610b55565b83811115610b7c576000848401525b5050505056fea26469706673582212208e8e4bc4992da8690edb5b3cd04a4898b676774046f5048fc80c347f661dcad264736f6c63430008070033","linkReferences":{}},"methodIdentifiers":{"DAI()":"e0bab4c4","USDC()":"89a30271","WETH9()":"4aa4a4fc","swapExactInputMultihop(uint256,address)":"3c8c4e93","swapExactInputSingle(uint256,address)":"793ea8d1","swapExactOutputMultihop(uint256,uint256,uint256)":"8c5c5ca2","swapExactOutputSingle(uint256,uint256,address)":"48946cee","swapRouter()":"c31c9c07"},"id":0}