{"abi":[{"type":"function","name":"DAI","inputs":[],"outputs":[{"name":"","type":"address","internalType":"address"}],"stateMutability":"view"},{"type":"function","name":"USDC","inputs":[],"outputs":[{"name":"","type":"address","internalType":"address"}],"stateMutability":"view"},{"type":"function","name":"WETH9","inputs":[],"outputs":[{"name":"","type":"address","internalType":"address"}],"stateMutability":"view"},{"type":"function","name":"swapExactInputMultihop","inputs":[{"name":"amountIn","type":"uint256","internalType":"uint256"},{"name":"_tokenOut","type":"address","internalType":"address"}],"outputs":[{"name":"amountOut","type":"uint256","internalType":"uint256"}],"stateMutability":"nonpayable"},{"type":"function","name":"swapExactInputSingle","inputs":[{"name":"amountIn","type":"uint256","internalType":"uint256"},{"name":"_tokenOut","type":"address","internalType":"address"}],"outputs":[{"name":"amountOut","type":"uint256","internalType":"uint256"}],"stateMutability":"nonpayable"},{"type":"function","name":"swapExactOutputMultihop","inputs":[{"name":"amountOut","type":"uint256","internalType":"uint256"},{"name":"amountInMaximum","type":"uint256","internalType":"uint256"},{"name":"_tokenOut","type":"uint256","internalType":"uint256"}],"outputs":[{"name":"amountIn","type":"uint256","internalType":"uint256"}],"stateMutability":"nonpayable"},{"type":"function","name":"swapExactOutputSingle","inputs":[{"name":"amountOut","type":"uint256","internalType":"uint256"},{"name":"amountInMaximum","type":"uint256","internalType":"uint256"},{"name":"_tokenOut","type":"address","internalType":"address"}],"outputs":[{"name":"amountIn","type":"uint256","internalType":"uint256"}],"stateMutability":"nonpayable"},{"type":"function","name":"swapRouter","inputs":[],"outputs":[{"name":"","type":"address","internalType":"contract ISwapRouter"}],"stateMutability":"view"}],"bytecode":{"object":"0x6080604052348015600f57600080fd5b50610bbb8061001f6000396000f3fe608060405234801561001057600080fd5b50600436106100885760003560e01c806389a302711161005b57806389a302711461010f5780638c5c5ca21461012a578063c31c9c071461013d578063e0bab4c41461015857600080fd5b80633c8c4e931461008d57806348946cee146100b35780634aa4a4fc146100c6578063793ea8d1146100f9575b600080fd5b6100a061009b36600461095a565b610173565b6040519081526020015b60405180910390f35b6100a06100c1366004610986565b6102e5565b6100e173c02aaa39b223fe8d0a0e5c4f27ead9083c756cc281565b6040516001600160a01b0390911681526020016100aa565b6100a061010736600461095a565b600092915050565b6100e173a0b86991c6218b36c1d19d4a2e9eb0ce3606eb4881565b6100a06101383660046109bb565b61047a565b6100e173e592427a0aece92de3edee1f18e0157c0586156481565b6100e1736b175474e89094c44da98b954eedeac495271d0f81565b600061019573c02aaa39b223fe8d0a0e5c4f27ead9083c756cc2333086610636565b6101c873c02aaa39b223fe8d0a0e5c4f27ead9083c756cc273e592427a0aece92de3edee1f18e0157c0586156485610745565b6040805160a081018252736015551cd911ff4685072e2793f56c841e3ab66160611b60c082015261017760eb1b60d48201527314170d3238c43166d83a33a945d3d619c6c0dd6960631b60d7820152601960ea1b60eb820152606084811b6bffffffffffffffffffffffff191660ee830152825180830360e20181526101028301845282523360208301524282840152810185905260006080820152905163c04b8d5960e01b815273e592427a0aece92de3edee1f18e0157c058615649063c04b8d599061029a908490600401610a70565b6020604051808303816000875af11580156102b9573d6000803e3d6000fd5b505050506040513d601f19601f820116820180604052508101906102dd9190610a8a565b949350505050565b600061030773c02aaa39b223fe8d0a0e5c4f27ead9083c756cc2333086610636565b61033a73c02aaa39b223fe8d0a0e5c4f27ead9083c756cc273e592427a0aece92de3edee1f18e0157c0586156485610745565b604080516101008101825273c02aaa39b223fe8d0a0e5c4f27ead9083c756cc281526001600160a01b0384166020820152610bb88183015233606082015242608082015260a0810186905260c08101859052600060e08201529051631b67c43360e31b815273e592427a0aece92de3edee1f18e0157c058615649063db3e2198906103c9908490600401610aa3565b6020604051808303816000875af11580156103e8573d6000803e3d6000fd5b505050506040513d601f19601f8201168201806040525081019061040c9190610a8a565b9150838210156104725761044a73c02aaa39b223fe8d0a0e5c4f27ead9083c756cc273e592427a0aece92de3edee1f18e0157c058615646000610745565b61047273c02aaa39b223fe8d0a0e5c4f27ead9083c756cc23361046d8588610b20565b610845565b509392505050565b600061049c73c02aaa39b223fe8d0a0e5c4f27ead9083c756cc2333086610636565b6104cf73c02aaa39b223fe8d0a0e5c4f27ead9083c756cc273e592427a0aece92de3edee1f18e0157c0586156485610745565b6040805160a08101825260c08101849052601960ea1b60e08201527314170d3238c43166d83a33a945d3d619c6c0dd6960631b60e382015261017760eb1b60f7820152736015551cd911ff4685072e2793f56c841e3ab66160611b60fa820152815160ee81830301815261010e820183528152336020820152428183015260608101869052608081018590529051631e51809360e31b815273e592427a0aece92de3edee1f18e0157c058615649063f28c049890610591908490600401610a70565b6020604051808303816000875af11580156105b0573d6000803e3d6000fd5b505050506040513d601f19601f820116820180604052508101906105d49190610a8a565b9150838210156104725761061273c02aaa39b223fe8d0a0e5c4f27ead9083c756cc273e592427a0aece92de3edee1f18e0157c058615646000610745565b61047273c02aaa39b223fe8d0a0e5c4f27ead9083c756cc230336106368689610b20565b604080516001600160a01b0385811660248301528481166044830152606480830185905283518084039091018152608490920183526020820180516001600160e01b03166323b872dd60e01b179052915160009283929088169161069a9190610b47565b6000604051808303816000865af19150503d80600081146106d7576040519150601f19603f3d011682016040523d82523d6000602084013e6106dc565b606091505b50915091508180156107065750805115806107065750808060200190518101906107069190610b63565b61073d5760405162461bcd60e51b815260206004820152600360248201526229aa2360e91b60448201526064015b60405180910390fd5b505050505050565b604080516001600160a01b038481166024830152604480830185905283518084039091018152606490920183526020820180516001600160e01b031663095ea7b360e01b17905291516000928392908716916107a19190610b47565b6000604051808303816000865af19150503d80600081146107de576040519150601f19603f3d011682016040523d82523d6000602084013e6107e3565b606091505b509150915081801561080d57508051158061080d57508080602001905181019061080d9190610b63565b61083e5760405162461bcd60e51b8152602060048201526002602482015261534160f01b6044820152606401610734565b5050505050565b604080516001600160a01b038481166024830152604480830185905283518084039091018152606490920183526020820180516001600160e01b031663a9059cbb60e01b17905291516000928392908716916108a19190610b47565b6000604051808303816000865af19150503d80600081146108de576040519150601f19603f3d011682016040523d82523d6000602084013e6108e3565b606091505b509150915081801561090d57508051158061090d57508080602001905181019061090d9190610b63565b61083e5760405162461bcd60e51b815260206004820152600260248201526114d560f21b6044820152606401610734565b80356001600160a01b038116811461095557600080fd5b919050565b6000806040838503121561096d57600080fd5b8235915061097d6020840161093e565b90509250929050565b60008060006060848603121561099b57600080fd5b83359250602084013591506109b26040850161093e565b90509250925092565b6000806000606084860312156109d057600080fd5b505081359360208301359350604090920135919050565b60005b83811015610a025781810151838201526020016109ea565b50506000910152565b6000815160a0845280518060a0860152610a2c8160c08701602085016109e7565b6020848101516001600160a01b0316908601526040808501519086015260608085015190860152608093840151938501939093525050601f01601f19160160c00190565b602081526000610a836020830184610a0b565b9392505050565b600060208284031215610a9c57600080fd5b5051919050565b81516001600160a01b03908116825260208084015182169083015260408084015162ffffff169083015260608084015191821690830152610100820190506080830151608083015260a083015160a083015260c083015160c083015260e0830151610b1960e08401826001600160a01b03169052565b5092915050565b81810381811115610b4157634e487b7160e01b600052601160045260246000fd5b92915050565b60008251610b598184602087016109e7565b9190910192915050565b600060208284031215610b7557600080fd5b81518015158114610a8357600080fdfea26469706673582212207b56ae35ae1743bf5796e04534981abf44d69ad74a5b3f98ad7a07e01773603864736f6c634300081a0033","linkReferences":{}},"methodIdentifiers":{"DAI()":"e0bab4c4","USDC()":"89a30271","WETH9()":"4aa4a4fc","swapExactInputMultihop(uint256,address)":"3c8c4e93","swapExactInputSingle(uint256,address)":"793ea8d1","swapExactOutputMultihop(uint256,uint256,uint256)":"8c5c5ca2","swapExactOutputSingle(uint256,uint256,address)":"48946cee","swapRouter()":"c31c9c07"},"id":0}