{"abi":[{"type":"function","name":"fulfillRequest","inputs":[{"name":"_requester","type":"address","internalType":"address"},{"name":"_requestId","type":"bytes32","internalType":"bytes32"},{"name":"_data","type":"bytes","internalType":"bytes"}],"outputs":[{"name":"","type":"bool","internalType":"bool"}],"stateMutability":"nonpayable"},{"type":"function","name":"getRandomBytes32","inputs":[],"outputs":[{"name":"","type":"bytes32","internalType":"bytes32"}],"stateMutability":"view"},{"type":"function","name":"handleOracleFulfillment","inputs":[{"name":"requestId","type":"bytes32","internalType":"bytes32"},{"name":"response","type":"bytes","internalType":"bytes"},{"name":"err","type":"bytes","internalType":"bytes"}],"outputs":[],"stateMutability":"nonpayable"},{"type":"function","name":"sendRequest","inputs":[{"name":"subscriptionId","type":"uint64","internalType":"uint64"},{"name":"data","type":"bytes","internalType":"bytes"},{"name":"dataVersion","type":"uint16","internalType":"uint16"},{"name":"callbackGasLimit","type":"uint32","internalType":"uint32"},{"name":"donId","type":"bytes32","internalType":"bytes32"}],"outputs":[{"name":"","type":"bytes32","internalType":"bytes32"}],"stateMutability":"nonpayable"}],"bytecode":{"object":"0x6080604052348015600e575f80fd5b506108bf8061001c5f395ff3fe608060405234801561000f575f80fd5b506004361061004a575f3560e01c80630ca761751461004e578063461d27621461006a578063d51c4a9d1461009a578063f5b0fe54146100ca575b5f80fd5b610068600480360381019061006391906103a3565b6100e8565b005b610084600480360381019061007f9190610535565b6100ed565b60405161009191906105da565b60405180910390f35b6100b460048036038101906100af919061064d565b610102565b6040516100c191906106d3565b60405180910390f35b6100d26101f2565b6040516100df91906105da565b60405180910390f35b505050565b5f6100f66101f2565b90509695505050505050565b5f60605f8573ffffffffffffffffffffffffffffffffffffffff16630ca7617560e01b86868560405160240161013a9392919061074c565b604051602081830303815290604052907bffffffffffffffffffffffffffffffffffffffffffffffffffffffff19166020820180517bffffffffffffffffffffffffffffffffffffffffffffffffffffffff83818316178352505050506040516101a491906107c9565b5f604051808303815f865af19150503d805f81146101dd576040519150601f19603f3d011682016040523d82523d5f602084013e6101e2565b606091505b5050905080925050509392505050565b5f4244336040516020016102089392919061084d565b60405160208183030381529060405280519060200120905090565b5f604051905090565b5f80fd5b5f80fd5b5f819050919050565b61024681610234565b8114610250575f80fd5b50565b5f813590506102618161023d565b92915050565b5f80fd5b5f80fd5b5f601f19601f8301169050919050565b7f4e487b71000000000000000000000000000000000000000000000000000000005f52604160045260245ffd5b6102b58261026f565b810181811067ffffffffffffffff821117156102d4576102d361027f565b5b80604052505050565b5f6102e6610223565b90506102f282826102ac565b919050565b5f67ffffffffffffffff8211156103115761031061027f565b5b61031a8261026f565b9050602081019050919050565b828183375f83830152505050565b5f610347610342846102f7565b6102dd565b9050828152602081018484840111156103635761036261026b565b5b61036e848285610327565b509392505050565b5f82601f83011261038a57610389610267565b5b813561039a848260208601610335565b91505092915050565b5f805f606084860312156103ba576103b961022c565b5b5f6103c786828701610253565b935050602084013567ffffffffffffffff8111156103e8576103e7610230565b5b6103f486828701610376565b925050604084013567ffffffffffffffff81111561041557610414610230565b5b61042186828701610376565b9150509250925092565b5f67ffffffffffffffff82169050919050565b6104478161042b565b8114610451575f80fd5b50565b5f813590506104628161043e565b92915050565b5f80fd5b5f80fd5b5f8083601f84011261048557610484610267565b5b8235905067ffffffffffffffff8111156104a2576104a1610468565b5b6020830191508360018202830111156104be576104bd61046c565b5b9250929050565b5f61ffff82169050919050565b6104db816104c5565b81146104e5575f80fd5b50565b5f813590506104f6816104d2565b92915050565b5f63ffffffff82169050919050565b610514816104fc565b811461051e575f80fd5b50565b5f8135905061052f8161050b565b92915050565b5f805f805f8060a0878903121561054f5761054e61022c565b5b5f61055c89828a01610454565b965050602087013567ffffffffffffffff81111561057d5761057c610230565b5b61058989828a01610470565b9550955050604061059c89828a016104e8565b93505060606105ad89828a01610521565b92505060806105be89828a01610253565b9150509295509295509295565b6105d481610234565b82525050565b5f6020820190506105ed5f8301846105cb565b92915050565b5f73ffffffffffffffffffffffffffffffffffffffff82169050919050565b5f61061c826105f3565b9050919050565b61062c81610612565b8114610636575f80fd5b50565b5f8135905061064781610623565b92915050565b5f805f606084860312156106645761066361022c565b5b5f61067186828701610639565b935050602061068286828701610253565b925050604084013567ffffffffffffffff8111156106a3576106a2610230565b5b6106af86828701610376565b9150509250925092565b5f8115159050919050565b6106cd816106b9565b82525050565b5f6020820190506106e65f8301846106c4565b92915050565b5f81519050919050565b5f82825260208201905092915050565b8281835e5f83830152505050565b5f61071e826106ec565b61072881856106f6565b9350610738818560208601610706565b6107418161026f565b840191505092915050565b5f60608201905061075f5f8301866105cb565b81810360208301526107718185610714565b905081810360408301526107858184610714565b9050949350505050565b5f81905092915050565b5f6107a3826106ec565b6107ad818561078f565b93506107bd818560208601610706565b80840191505092915050565b5f6107d48284610799565b915081905092915050565b5f819050919050565b5f819050919050565b6108026107fd826107df565b6107e8565b82525050565b5f8160601b9050919050565b5f61081e82610808565b9050919050565b5f61082f82610814565b9050919050565b61084761084282610612565b610825565b82525050565b5f61085882866107f1565b60208201915061086882856107f1565b6020820191506108788284610836565b60148201915081905094935050505056fea26469706673582212205be48ea358f77c29db2d26b854a72b546a9b29599ab755adf4821782df84f50364736f6c634300081a0033","linkReferences":{}},"methodIdentifiers":{"fulfillRequest(address,bytes32,bytes)":"d51c4a9d","getRandomBytes32()":"f5b0fe54","handleOracleFulfillment(bytes32,bytes,bytes)":"0ca76175","sendRequest(uint64,bytes,uint16,uint32,bytes32)":"461d2762"},"id":31}