{"abi":[{"type":"function","name":"counter","inputs":[],"outputs":[{"name":"","type":"uint256","internalType":"uint256"}],"stateMutability":"view"},{"type":"function","name":"counter2","inputs":[],"outputs":[{"name":"","type":"uint256","internalType":"uint256"}],"stateMutability":"view"},{"type":"function","name":"fulfillRequest","inputs":[{"name":"_requester","type":"address","internalType":"address"},{"name":"_requestId","type":"bytes32","internalType":"bytes32"},{"name":"_data","type":"bytes","internalType":"bytes"}],"outputs":[{"name":"","type":"bool","internalType":"bool"}],"stateMutability":"nonpayable"},{"type":"function","name":"getRandomBytes32","inputs":[],"outputs":[{"name":"","type":"bytes32","internalType":"bytes32"}],"stateMutability":"view"},{"type":"function","name":"handleOracleFulfillment","inputs":[{"name":"requestId","type":"bytes32","internalType":"bytes32"},{"name":"response","type":"bytes","internalType":"bytes"},{"name":"err","type":"bytes","internalType":"bytes"}],"outputs":[],"stateMutability":"nonpayable"},{"type":"function","name":"preRequestId","inputs":[],"outputs":[{"name":"","type":"bytes32","internalType":"bytes32"}],"stateMutability":"view"},{"type":"function","name":"sendRequest","inputs":[{"name":"subscriptionId","type":"uint64","internalType":"uint64"},{"name":"data","type":"bytes","internalType":"bytes"},{"name":"dataVersion","type":"uint16","internalType":"uint16"},{"name":"callbackGasLimit","type":"uint32","internalType":"uint32"},{"name":"donId","type":"bytes32","internalType":"bytes32"}],"outputs":[{"name":"","type":"bytes32","internalType":"bytes32"}],"stateMutability":"nonpayable"}],"bytecode":{"object":"0x6080604052348015600e575f80fd5b506105c88061001c5f395ff3fe608060405234801561000f575f80fd5b506004361061006b575f3560e01c80630ca761751461006f578063461d27621461008457806361bc221a146100aa578063a17d256a146100b2578063c9d50f8c146100bb578063d51c4a9d146100c4578063f5b0fe54146100e7575b5f80fd5b61008261007d366004610365565b505050565b005b6100976100923660046103f9565b6100ef565b6040519081526020015b60405180910390f35b6100975f5481565b61009760015481565b61009760025481565b6100d76100d23660046104ad565b610140565b60405190151581526020016100a1565b610097610274565b5f805481806100fd836104f6565b90915550505f5460405161011e914291602001918252602082015260400190565b6040516020818303038152906040528051906020012090509695505050505050565b5f600254831461016457600283905560018054905f61015e836104f6565b91905055505b60605f856001600160a01b0316630ca7617560e01b86868560405160240161018e93929190610548565b60408051601f198184030181529181526020820180516001600160e01b03166001600160e01b03199094169390931790925290516101cc919061057c565b5f604051808303815f865af19150503d805f8114610205576040519150601f19603f3d011682016040523d82523d5f602084013e61020a565b606091505b505090508061026b5760405162461bcd60e51b8152602060048201526024808201527f4d6f636b4f7261636c653a2066756c66696c6c696e6720726571756573742066604482015263185a5b1960e21b606482015260840160405180910390fd5b95945050505050565b5f4244336040516020016102ad93929190928352602083019190915260601b6bffffffffffffffffffffffff1916604082015260540190565b60405160208183030381529060405280519060200120905090565b634e487b7160e01b5f52604160045260245ffd5b5f82601f8301126102eb575f80fd5b81356001600160401b03811115610304576103046102c8565b604051601f8201601f19908116603f011681016001600160401b0381118282101715610332576103326102c8565b604052818152838201602001851015610349575f80fd5b816020850160208301375f918101602001919091529392505050565b5f805f60608486031215610377575f80fd5b8335925060208401356001600160401b03811115610393575f80fd5b61039f868287016102dc565b92505060408401356001600160401b038111156103ba575f80fd5b6103c6868287016102dc565b9150509250925092565b803561ffff811681146103e1575f80fd5b919050565b803563ffffffff811681146103e1575f80fd5b5f805f805f8060a0878903121561040e575f80fd5b86356001600160401b0381168114610424575f80fd5b955060208701356001600160401b0381111561043e575f80fd5b8701601f8101891361044e575f80fd5b80356001600160401b03811115610463575f80fd5b896020828401011115610474575f80fd5b6020919091019550935061048a604088016103d0565b9250610498606088016103e6565b95989497509295919493608090920135925050565b5f805f606084860312156104bf575f80fd5b83356001600160a01b03811681146104d5575f80fd5b92506020840135915060408401356001600160401b038111156103ba575f80fd5b5f6001820161051357634e487b7160e01b5f52601160045260245ffd5b5060010190565b5f81518084528060208401602086015e5f602082860101526020601f19601f83011685010191505092915050565b838152606060208201525f610560606083018561051a565b8281036040840152610572818561051a565b9695505050505050565b5f82518060208501845e5f92019182525091905056fea2646970667358221220cf74c2052e16455637c8acc4a51542c4cf4522e4290f336a5d96a3d2ece1a68964736f6c634300081a0033","linkReferences":{}},"methodIdentifiers":{"counter()":"61bc221a","counter2()":"a17d256a","fulfillRequest(address,bytes32,bytes)":"d51c4a9d","getRandomBytes32()":"f5b0fe54","handleOracleFulfillment(bytes32,bytes,bytes)":"0ca76175","preRequestId()":"c9d50f8c","sendRequest(uint64,bytes,uint16,uint32,bytes32)":"461d2762"},"id":32}