{
  "abi": [
    {
      "inputs": [
        {
          "internalType": "address",
          "name": "_link",
          "type": "address"
        }
      ],
      "stateMutability": "nonpayable",
      "type": "constructor"
    },
    {
      "anonymous": false,
      "inputs": [
        {
          "indexed": true,
          "internalType": "bytes32",
          "name": "requestId",
          "type": "bytes32"
        }
      ],
      "name": "CancelOracleRequest",
      "type": "event"
    },
    {
      "anonymous": false,
      "inputs": [
        {
          "indexed": true,
          "internalType": "bytes32",
          "name": "specId",
          "type": "bytes32"
        },
        {
          "indexed": false,
          "internalType": "address",
          "name": "requester",
          "type": "address"
        },
        {
          "indexed": false,
          "internalType": "bytes32",
          "name": "requestId",
          "type": "bytes32"
        },
        {
          "indexed": false,
          "internalType": "uint256",
          "name": "payment",
          "type": "uint256"
        },
        {
          "indexed": false,
          "internalType": "address",
          "name": "callbackAddr",
          "type": "address"
        },
        {
          "indexed": false,
          "internalType": "bytes4",
          "name": "callbackFunctionId",
          "type": "bytes4"
        },
        {
          "indexed": false,
          "internalType": "uint256",
          "name": "cancelExpiration",
          "type": "uint256"
        },
        {
          "indexed": false,
          "internalType": "uint256",
          "name": "dataVersion",
          "type": "uint256"
        },
        {
          "indexed": false,
          "internalType": "bytes",
          "name": "data",
          "type": "bytes"
        }
      ],
      "name": "OracleRequest",
      "type": "event"
    },
    {
      "inputs": [],
      "name": "EXPIRY_TIME",
      "outputs": [
        {
          "internalType": "uint256",
          "name": "",
          "type": "uint256"
        }
      ],
      "stateMutability": "view",
      "type": "function"
    },
    {
      "inputs": [
        {
          "internalType": "bytes32",
          "name": "_requestId",
          "type": "bytes32"
        },
        {
          "internalType": "uint256",
          "name": "_payment",
          "type": "uint256"
        },
        {
          "internalType": "bytes4",
          "name": "",
          "type": "bytes4"
        },
        {
          "internalType": "uint256",
          "name": "_expiration",
          "type": "uint256"
        }
      ],
      "name": "cancelOracleRequest",
      "outputs": [],
      "stateMutability": "nonpayable",
      "type": "function"
    },
    {
      "inputs": [
        {
          "internalType": "int256[]",
          "name": "intArray",
          "type": "int256[]"
        }
      ],
      "name": "convertIntToBytes32Array",
      "outputs": [
        {
          "internalType": "bytes32[]",
          "name": "",
          "type": "bytes32[]"
        }
      ],
      "stateMutability": "pure",
      "type": "function"
    },
    {
      "inputs": [
        {
          "internalType": "string[]",
          "name": "stringArray",
          "type": "string[]"
        }
      ],
      "name": "convertStringToBytes32Array",
      "outputs": [
        {
          "internalType": "bytes32[]",
          "name": "",
          "type": "bytes32[]"
        }
      ],
      "stateMutability": "pure",
      "type": "function"
    },
    {
      "inputs": [
        {
          "internalType": "uint256",
          "name": "value",
          "type": "uint256"
        }
      ],
      "name": "convertToBytes",
      "outputs": [
        {
          "internalType": "bytes",
          "name": "",
          "type": "bytes"
        }
      ],
      "stateMutability": "pure",
      "type": "function"
    },
    {
      "inputs": [
        {
          "internalType": "uint256[]",
          "name": "uintArray",
          "type": "uint256[]"
        }
      ],
      "name": "convertUintToBytes32",
      "outputs": [
        {
          "internalType": "bytes32[]",
          "name": "",
          "type": "bytes32[]"
        }
      ],
      "stateMutability": "pure",
      "type": "function"
    },
    {
      "inputs": [
        {
          "internalType": "bytes32",
          "name": "_requestId",
          "type": "bytes32"
        },
        {
          "internalType": "address[]",
          "name": "_tokens",
          "type": "address[]"
        },
        {
          "internalType": "uint256[]",
          "name": "_marketCapShares",
          "type": "uint256[]"
        },
        {
          "internalType": "uint256[]",
          "name": "_swapVersions",
          "type": "uint256[]"
        },
        {
          "internalType": "uint64[]",
          "name": "_chainSelectors",
          "type": "uint64[]"
        }
      ],
      "name": "fulfillOracleFundingRateRequest",
      "outputs": [
        {
          "internalType": "bool",
          "name": "",
          "type": "bool"
        }
      ],
      "stateMutability": "nonpayable",
      "type": "function"
    },
    {
      "inputs": [
        {
          "internalType": "bytes32",
          "name": "_requestId",
          "type": "bytes32"
        },
        {
          "internalType": "bytes32",
          "name": "_data",
          "type": "bytes32"
        }
      ],
      "name": "fulfillOracleOjectRequest",
      "outputs": [
        {
          "internalType": "bool",
          "name": "",
          "type": "bool"
        }
      ],
      "stateMutability": "nonpayable",
      "type": "function"
    },
    {
      "inputs": [
        {
          "internalType": "bytes32",
          "name": "_requestId",
          "type": "bytes32"
        },
        {
          "internalType": "string",
          "name": "_data",
          "type": "string"
        }
      ],
      "name": "fulfillOracleStatusRequest",
      "outputs": [
        {
          "internalType": "bool",
          "name": "",
          "type": "bool"
        }
      ],
      "stateMutability": "nonpayable",
      "type": "function"
    },
    {
      "inputs": [],
      "name": "getChainlinkToken",
      "outputs": [
        {
          "internalType": "address",
          "name": "",
          "type": "address"
        }
      ],
      "stateMutability": "view",
      "type": "function"
    },
    {
      "inputs": [
        {
          "internalType": "address",
          "name": "_sender",
          "type": "address"
        },
        {
          "internalType": "uint256",
          "name": "_amount",
          "type": "uint256"
        },
        {
          "internalType": "bytes",
          "name": "_data",
          "type": "bytes"
        }
      ],
      "name": "onTokenTransfer",
      "outputs": [],
      "stateMutability": "nonpayable",
      "type": "function"
    },
    {
      "inputs": [
        {
          "internalType": "address",
          "name": "_sender",
          "type": "address"
        },
        {
          "internalType": "uint256",
          "name": "_payment",
          "type": "uint256"
        },
        {
          "internalType": "bytes32",
          "name": "_specId",
          "type": "bytes32"
        },
        {
          "internalType": "address",
          "name": "_callbackAddress",
          "type": "address"
        },
        {
          "internalType": "bytes4",
          "name": "_callbackFunctionId",
          "type": "bytes4"
        },
        {
          "internalType": "uint256",
          "name": "_nonce",
          "type": "uint256"
        },
        {
          "internalType": "uint256",
          "name": "_dataVersion",
          "type": "uint256"
        },
        {
          "internalType": "bytes",
          "name": "_data",
          "type": "bytes"
        }
      ],
      "name": "oracleRequest",
      "outputs": [],
      "stateMutability": "nonpayable",
      "type": "function"
    },
    {
      "inputs": [
        {
          "internalType": "uint256",
          "name": "myUint",
          "type": "uint256"
        }
      ],
      "name": "uintToBytes32",
      "outputs": [
        {
          "internalType": "bytes32",
          "name": "myBytes32",
          "type": "bytes32"
        }
      ],
      "stateMutability": "pure",
      "type": "function"
    }
  ],
  "bytecode": {
    "object": "0x608060405234801561001057600080fd5b50604051611d3f380380611d3f83398101604081905261002f91610054565b600080546001600160a01b0319166001600160a01b0392909216919091179055610084565b60006020828403121561006657600080fd5b81516001600160a01b038116811461007d57600080fd5b9392505050565b611cac806100936000396000f3fe608060405234801561001057600080fd5b50600436106100cf5760003560e01c80636ee4d5531161008c578063a4c0ed3611610066578063a4c0ed36146101aa578063c5e639ca146101bd578063e030ba66146101e0578063ebc1fa71146101f357600080fd5b80636ee4d55314610173578063715d342f14610186578063886d3db91461019957600080fd5b8063165d35e1146100d45780633be2c1d8146100f45780634042994614610114578063466703c5146101295780634b602282146101495780635fdb23ca14610160575b600080fd5b6000546040516001600160a01b0390911681526020015b60405180910390f35b6101076101023660046115ad565b610206565b6040516100eb9190611909565b610127610122366004611344565b6103c0565b005b61013c6101373660046117d0565b610603565b6040516100eb9190611a31565b61015261012c81565b6040519081526020016100eb565b61010761016e3660046114e3565b610631565b610127610181366004611793565b6106ff565b61010761019436600461144c565b61087c565b6101526101a73660046117d0565b90565b6101276101b83660046113e2565b61099e565b6101d06101cb366004611748565b610b76565b60405190151581526020016100eb565b6101d06101ee366004611726565b610cdc565b6101d061020136600461160b565b610e40565b8051606090806102315760405162461bcd60e51b815260040161022890611a9b565b60405180910390fd5b6000602061024083601f611b4b565b61024a9190611b63565b90506000816001600160401b0381111561026657610266611c60565b60405190808252806020026020018201604052801561028f578160200160208202803683370190505b50905060005b828110156103b75760006102aa826020611b77565b905060006102b9826020611b4b565b9050858111156102c65750845b60006102d28383611b96565b6001600160401b038111156102e9576102e9611c60565b604051908082528060200260200182016040528015610312578160200160208202803683370190505b509050825b828110156103735789818151811061033157610331611c4a565b60200260200101518285836103469190611b96565b8151811061035657610356611c4a565b60209081029190910101528061036b81611bd9565b915050610317565b50600061037f82611090565b90508086868151811061039457610394611c4a565b6020026020010181815250505050505080806103af90611bd9565b915050610295565b50949350505050565b6000546001600160a01b031633146104105760405162461bcd60e51b815260206004820152601360248201527226bab9ba103ab9b2902624a725903a37b5b2b760691b6044820152606401610228565b60005486906001600160a01b03808316911614156104705760405162461bcd60e51b815260206004820152601760248201527f43616e6e6f742063616c6c6261636b20746f204c494e4b0000000000000000006044820152606401610228565b6040516bffffffffffffffffffffffff1960608c901b1660208201526034810186905260009060540160408051601f198184030181529181528151602092830120600081815260019093529120549091506001600160a01b03161561050e5760405162461bcd60e51b8152602060048201526014602482015273135d5cdd081d5cd94818481d5b9a5c5d5948125160621b6044820152606401610228565b600061051c4261012c611123565b905060405180604001604052808a6001600160a01b03168152602001896001600160e01b0319168152506001600084815260200190815260200160002060008201518160000160006101000a8154816001600160a01b0302191690836001600160a01b0316021790555060208201518160000160146101000a81548163ffffffff021916908360e01c0217905550905050897fd8d7ecc4800d25fa53ce0372f13a416d98907a7ef3d8d3bdd79cf4fe75529c658d848e8d8d878d8d8d6040516105ed9998979695949392919061189f565b60405180910390a2505050505050505050505050565b606060008260405160200161061a91815260200190565b60408051601f198184030181529190529392505050565b8051606090806106535760405162461bcd60e51b815260040161022890611a9b565b6000816001600160401b0381111561066d5761066d611c60565b604051908082528060200260200182016040528015610696578160200160208202803683370190505b50905060005b828110156106f7576106c88582815181106106b9576106b9611c4a565b60200260200101516020015190565b8282815181106106da576106da611c4a565b6020908102919091010152806106ef81611bd9565b91505061069c565b509392505050565b6000848152600160205260409020546001600160a01b031661075a5760405162461bcd60e51b8152602060048201526014602482015273135d5cdd081d5cd94818481d5b9a5c5d5948125160621b6044820152606401610228565b428111156107a35760405162461bcd60e51b815260206004820152601660248201527514995c5d595cdd081a5cc81b9bdd08195e1c1a5c995960521b6044820152606401610228565b60008481526001602052604080822080546001600160c01b03191690555185917fa7842b9ec549398102c0d91b1b9919b2f20558aefdadf57528a95c6cd3292e9391a260005460405163a9059cbb60e01b8152336004820152602481018590526001600160a01b039091169063a9059cbb90604401602060405180830381600087803b15801561083257600080fd5b505af1158015610846573d6000803e3d6000fd5b505050506040513d601f19601f8201168201806040525081019061086a91906115e9565b61087657610876611c08565b50505050565b6060600082604051602001610891919061184d565b60408051601f198184030181529190528351909150806108c35760405162461bcd60e51b815260040161022890611a9b565b602082516108d19190611bf4565b156109155760405162461bcd60e51b8152602060048201526014602482015273092dcecc2d8d2c840c2e4e4c2f240d8cadccee8d60631b6044820152606401610228565b6000816001600160401b0381111561092f5761092f611c60565b604051908082528060200260200182016040528015610958578160200160208202803683370190505b50905060005b828110156103b75760208082028501015182828151811061098157610981611c4a565b60209081029190910101528061099681611bd9565b91505061095e565b6000546001600160a01b031633146109ee5760405162461bcd60e51b815260206004820152601360248201527226bab9ba103ab9b2902624a725903a37b5b2b760691b6044820152606401610228565b806109fb60026020611b77565b610a06906004611b4b565b81511015610a4f5760405162461bcd60e51b8152602060048201526016602482015275092dcecc2d8d2c840e4cae2eacae6e840d8cadccee8d60531b6044820152606401610228565b602082015182906001600160e01b031981166320214ca360e11b14610ab65760405162461bcd60e51b815260206004820152601e60248201527f4d757374207573652077686974656c69737465642066756e6374696f6e7300006044820152606401610228565b8560248501528460448501526000306001600160a01b031685604051610adc9190611883565b600060405180830381855af49150503d8060008114610b17576040519150601f19603f3d011682016040523d82523d6000602084013e610b1c565b606091505b5050905080610b6d5760405162461bcd60e51b815260206004820152601860248201527f556e61626c6520746f20637265617465207265717565737400000000000000006044820152606401610228565b50505050505050565b60008381526001602052604081205484906001600160a01b0316610bac5760405162461bcd60e51b815260040161022890611a64565b6000858152600160208181526040808420815180830190925280546001600160a01b03811683526001600160e01b0319600160a01b820460e01b1683850152948a9052929091526001600160c01b0319909216905562061a805a1015610c245760405162461bcd60e51b815260040161022890611ac3565b600081600001516001600160a01b03168260200151888888604051602401610c4e93929190611a0e565b60408051601f198184030181529181526020820180516001600160e01b03166001600160e01b0319909416939093179092529051610c8c9190611883565b6000604051808303816000865af19150503d8060008114610cc9576040519150601f19603f3d011682016040523d82523d6000602084013e610cce565b606091505b509098975050505050505050565b60008281526001602052604081205483906001600160a01b0316610d125760405162461bcd60e51b815260040161022890611a64565b6000848152600160208181526040808420815180830190925280546001600160a01b03811683526001600160e01b0319600160a01b820460e01b168385015294899052929091526001600160c01b0319909216905562061a805a1015610d8a5760405162461bcd60e51b815260040161022890611ac3565b8051602082015160405160248101889052604481018790526000926001600160a01b0316919060640160408051601f198184030181529181526020820180516001600160e01b03166001600160e01b0319909416939093179092529051610df19190611883565b6000604051808303816000865af19150503d8060008114610e2e576040519150601f19603f3d011682016040523d82523d6000602084013e610e33565b606091505b5090979650505050505050565b60008581526001602052604081205486906001600160a01b0316610e765760405162461bcd60e51b815260040161022890611a64565b6000878152600160208181526040808420815180830190925280546001600160a01b03811683526001600160e01b0319600160a01b820460e01b1683850152948c9052929091526001600160c01b0319909216905562061a805a1015610eee5760405162461bcd60e51b815260040161022890611ac3565b60408051600180825281830190925260009160208083019080368337019050509050600081600081518110610f2557610f25611c4a565b6001600160a01b03929092166020928302919091019091015260408051600180825281830190925260009181602001602082028036833701905050905068056bc75e2d6310000081600081518110610f7f57610f7f611c4a565b6020908102919091010152604080516001808252818301909252600091816020016020820280368337019050509050600381600081518110610fc357610fc3611c4a565b602002602001018181525050600084600001516001600160a01b031685602001518d8d8d8d8d604051602401610ffd95949392919061194d565b60408051601f198184030181529181526020820180516001600160e01b03166001600160e01b031990941693909317909252905161103b9190611883565b6000604051808303816000865af19150503d8060008114611078576040519150601f19603f3d011682016040523d82523d6000602084013e61107d565b606091505b50909d9c50505050505050505050505050565b600080825160206110a19190611b77565b6001600160401b038111156110b8576110b8611c60565b6040519080825280601f01601f1916602001820160405280156110e2576020820181803683370190505b50905060005b8351811015611118576020810260200184015160208202602001830152808061111090611bd9565b9150506110e8565b506020015192915050565b6000806111308385611b4b565b9050838110156111825760405162461bcd60e51b815260206004820152601b60248201527f536166654d6174683a206164646974696f6e206f766572666c6f7700000000006044820152606401610228565b9392505050565b60006001600160401b038311156111a2576111a2611c60565b6111b5601f8401601f1916602001611af8565b90508281528383830111156111c957600080fd5b828260208301376000602084830101529392505050565b80356001600160a01b03811681146111f757600080fd5b919050565b600082601f83011261120d57600080fd5b8135602061122261121d83611b28565b611af8565b80838252828201915082860187848660051b890101111561124257600080fd5b60005b85811015610e3357813584529284019290840190600101611245565b600082601f83011261127257600080fd5b8135602061128261121d83611b28565b80838252828201915082860187848660051b89010111156112a257600080fd5b6000805b868110156112d65782356001600160401b03811681146112c4578283fd5b855293850193918501916001016112a6565b509198975050505050505050565b80356001600160e01b0319811681146111f757600080fd5b60008083601f84011261130e57600080fd5b5081356001600160401b0381111561132557600080fd5b60208301915083602082850101111561133d57600080fd5b9250929050565b60008060008060008060008060006101008a8c03121561136357600080fd5b61136c8a6111e0565b985060208a0135975060408a0135965061138860608b016111e0565b955061139660808b016112e4565b945060a08a0135935060c08a0135925060e08a01356001600160401b038111156113bf57600080fd5b6113cb8c828d016112fc565b915080935050809150509295985092959850929598565b6000806000606084860312156113f757600080fd5b611400846111e0565b92506020840135915060408401356001600160401b0381111561142257600080fd5b8401601f8101861361143357600080fd5b61144286823560208401611189565b9150509250925092565b6000602080838503121561145f57600080fd5b82356001600160401b0381111561147557600080fd5b8301601f8101851361148657600080fd5b803561149461121d82611b28565b80828252848201915084840188868560051b87010111156114b457600080fd5b600094505b838510156114d75780358352600194909401939185019185016114b9565b50979650505050505050565b600060208083850312156114f657600080fd5b82356001600160401b038082111561150d57600080fd5b818501915085601f83011261152157600080fd5b813561152f61121d82611b28565b80828252858201915085850189878560051b880101111561154f57600080fd5b60005b8481101561159e5781358681111561156957600080fd5b8701603f81018c1361157a57600080fd5b61158b8c8a83013560408401611189565b8552509287019290870190600101611552565b50909998505050505050505050565b6000602082840312156115bf57600080fd5b81356001600160401b038111156115d557600080fd5b6115e1848285016111fc565b949350505050565b6000602082840312156115fb57600080fd5b8151801515811461118257600080fd5b600080600080600060a0868803121561162357600080fd5b853594506020808701356001600160401b038082111561164257600080fd5b818901915089601f83011261165657600080fd5b813561166461121d82611b28565b8082825285820191508585018d878560051b880101111561168457600080fd5b600095505b838610156116ae5761169a816111e0565b835260019590950194918601918601611689565b509850505060408901359250808311156116c757600080fd5b6116d38a848b016111fc565b955060608901359250808311156116e957600080fd5b6116f58a848b016111fc565b9450608089013592508083111561170b57600080fd5b505061171988828901611261565b9150509295509295909350565b6000806040838503121561173957600080fd5b50508035926020909101359150565b60008060006040848603121561175d57600080fd5b8335925060208401356001600160401b0381111561177a57600080fd5b611786868287016112fc565b9497909650939450505050565b600080600080608085870312156117a957600080fd5b84359350602085013592506117c0604086016112e4565b9396929550929360600135925050565b6000602082840312156117e257600080fd5b5035919050565b600081518084526020808501945080840160005b83811015611819578151875295820195908201906001016117fd565b509495945050505050565b81835281816020850137506000828201602090810191909152601f909101601f19169091010190565b815160009082906020808601845b838110156118775781518552938201939082019060010161185b565b50929695505050505050565b60008251611895818460208701611bad565b9190910192915050565b6001600160a01b038a81168252602082018a905260408201899052871660608201526001600160e01b03198616608082015260a0810185905260c0810184905261010060e082018190526000906118f98382018587611824565b9c9b505050505050505050505050565b6020808252825182820181905260009190848201906040850190845b8181101561194157835183529284019291840191600101611925565b50909695505050505050565b600060a08201878352602060a08185015281885180845260c086019150828a01935060005b818110156119975784516001600160a01b031683529383019391830191600101611972565b505084810360408601526119ab81896117e9565b92505083820360608501526119c082876117e9565b8481036080860152855180825282870193509082019060005b818110156119fe5784516001600160401b0316835293830193918301916001016119d9565b50909a9950505050505050505050565b838152604060208201526000611a28604083018486611824565b95945050505050565b6020815260008251806020840152611a50816040850160208701611bad565b601f01601f19169190910160400192915050565b6020808252601b908201527f4d757374206861766520612076616c6964207265717565737449640000000000604082015260600190565b6020808252600e908201526d417272617920697320656d70747960901b604082015260600190565b6020808252818101527f4d7573742070726f7669646520636f6e73756d657220656e6f75676820676173604082015260600190565b604051601f8201601f191681016001600160401b0381118282101715611b2057611b20611c60565b604052919050565b60006001600160401b03821115611b4157611b41611c60565b5060051b60200190565b60008219821115611b5e57611b5e611c1e565b500190565b600082611b7257611b72611c34565b500490565b6000816000190483118215151615611b9157611b91611c1e565b500290565b600082821015611ba857611ba8611c1e565b500390565b60005b83811015611bc8578181015183820152602001611bb0565b838111156108765750506000910152565b6000600019821415611bed57611bed611c1e565b5060010190565b600082611c0357611c03611c34565b500690565b634e487b7160e01b600052600160045260246000fd5b634e487b7160e01b600052601160045260246000fd5b634e487b7160e01b600052601260045260246000fd5b634e487b7160e01b600052603260045260246000fd5b634e487b7160e01b600052604160045260246000fdfea26469706673582212201ff53ce2bc3ab1fb6585b36517f6bfa574342738b52fcca714ebda7e91c8785364736f6c63430008070033",
    "linkReferences": {}
  },
  "methodIdentifiers": {
    "EXPIRY_TIME()": "4b602282",
    "cancelOracleRequest(bytes32,uint256,bytes4,uint256)": "6ee4d553",
    "convertIntToBytes32Array(int256[])": "715d342f",
    "convertStringToBytes32Array(string[])": "5fdb23ca",
    "convertToBytes(uint256)": "466703c5",
    "convertUintToBytes32(uint256[])": "3be2c1d8",
    "fulfillOracleFundingRateRequest(bytes32,address[],uint256[],uint256[],uint64[])": "ebc1fa71",
    "fulfillOracleOjectRequest(bytes32,bytes32)": "e030ba66",
    "fulfillOracleStatusRequest(bytes32,string)": "c5e639ca",
    "getChainlinkToken()": "165d35e1",
    "onTokenTransfer(address,uint256,bytes)": "a4c0ed36",
    "oracleRequest(address,uint256,bytes32,address,bytes4,uint256,uint256,bytes)": "40429946",
    "uintToBytes32(uint256)": "886d3db9"
  },
  "id": 25
}