{"abi":[{"type":"function","name":"counter","inputs":[],"outputs":[{"name":"","type":"uint256","internalType":"uint256"}],"stateMutability":"view"},{"type":"function","name":"counter2","inputs":[],"outputs":[{"name":"","type":"uint256","internalType":"uint256"}],"stateMutability":"view"},{"type":"function","name":"fulfillRequest","inputs":[{"name":"_requester","type":"address","internalType":"address"},{"name":"_requestId","type":"bytes32","internalType":"bytes32"},{"name":"_data","type":"bytes","internalType":"bytes"}],"outputs":[{"name":"","type":"bool","internalType":"bool"}],"stateMutability":"nonpayable"},{"type":"function","name":"getRandomBytes32","inputs":[],"outputs":[{"name":"","type":"bytes32","internalType":"bytes32"}],"stateMutability":"view"},{"type":"function","name":"handleOracleFulfillment","inputs":[{"name":"requestId","type":"bytes32","internalType":"bytes32"},{"name":"response","type":"bytes","internalType":"bytes"},{"name":"err","type":"bytes","internalType":"bytes"}],"outputs":[],"stateMutability":"nonpayable"},{"type":"function","name":"preRequestId","inputs":[],"outputs":[{"name":"","type":"bytes32","internalType":"bytes32"}],"stateMutability":"view"},{"type":"function","name":"sendRequest","inputs":[{"name":"subscriptionId","type":"uint64","internalType":"uint64"},{"name":"data","type":"bytes","internalType":"bytes"},{"name":"dataVersion","type":"uint16","internalType":"uint16"},{"name":"callbackGasLimit","type":"uint32","internalType":"uint32"},{"name":"donId","type":"bytes32","internalType":"bytes32"}],"outputs":[{"name":"","type":"bytes32","internalType":"bytes32"}],"stateMutability":"nonpayable"}],"bytecode":{"object":"0x6080604052348015600e575f80fd5b50610b608061001c5f395ff3fe608060405234801561000f575f80fd5b506004361061007b575f3560e01c8063a17d256a11610059578063a17d256a146100e9578063c9d50f8c14610107578063d51c4a9d14610125578063f5b0fe54146101555761007b565b80630ca761751461007f578063461d27621461009b57806361bc221a146100cb575b5f80fd5b610099600480360381019061009491906104df565b610173565b005b6100b560048036038101906100b09190610671565b610178565b6040516100c29190610716565b60405180910390f35b6100d36101c5565b6040516100e09190610747565b60405180910390f35b6100f16101ca565b6040516100fe9190610747565b60405180910390f35b61010f6101d0565b60405161011c9190610716565b60405180910390f35b61013f600480360381019061013a91906107ba565b6101d6565b60405161014c9190610840565b60405180910390f35b61015d61032e565b60405161016a9190610716565b60405180910390f35b505050565b5f805f81548092919061018a90610886565b9190505550425f546040516020016101a39291906108ed565b6040516020818303038152906040528051906020012090509695505050505050565b5f5481565b60015481565b60025481565b5f60025483146101ff578260028190555060015f8154809291906101f990610886565b91905055505b60605f8573ffffffffffffffffffffffffffffffffffffffff16630ca7617560e01b86868560405160240161023693929190610978565b604051602081830303815290604052907bffffffffffffffffffffffffffffffffffffffffffffffffffffffff19166020820180517bffffffffffffffffffffffffffffffffffffffffffffffffffffffff83818316178352505050506040516102a091906109f5565b5f604051808303815f865af19150503d805f81146102d9576040519150601f19603f3d011682016040523d82523d5f602084013e6102de565b606091505b5050905080610322576040517f08c379a000000000000000000000000000000000000000000000000000000000815260040161031990610a8b565b60405180910390fd5b80925050509392505050565b5f42443360405160200161034493929190610aee565b60405160208183030381529060405280519060200120905090565b5f604051905090565b5f80fd5b5f80fd5b5f819050919050565b61038281610370565b811461038c575f80fd5b50565b5f8135905061039d81610379565b92915050565b5f80fd5b5f80fd5b5f601f19601f8301169050919050565b7f4e487b71000000000000000000000000000000000000000000000000000000005f52604160045260245ffd5b6103f1826103ab565b810181811067ffffffffffffffff821117156104105761040f6103bb565b5b80604052505050565b5f61042261035f565b905061042e82826103e8565b919050565b5f67ffffffffffffffff82111561044d5761044c6103bb565b5b610456826103ab565b9050602081019050919050565b828183375f83830152505050565b5f61048361047e84610433565b610419565b90508281526020810184848401111561049f5761049e6103a7565b5b6104aa848285610463565b509392505050565b5f82601f8301126104c6576104c56103a3565b5b81356104d6848260208601610471565b91505092915050565b5f805f606084860312156104f6576104f5610368565b5b5f6105038682870161038f565b935050602084013567ffffffffffffffff8111156105245761052361036c565b5b610530868287016104b2565b925050604084013567ffffffffffffffff8111156105515761055061036c565b5b61055d868287016104b2565b9150509250925092565b5f67ffffffffffffffff82169050919050565b61058381610567565b811461058d575f80fd5b50565b5f8135905061059e8161057a565b92915050565b5f80fd5b5f80fd5b5f8083601f8401126105c1576105c06103a3565b5b8235905067ffffffffffffffff8111156105de576105dd6105a4565b5b6020830191508360018202830111156105fa576105f96105a8565b5b9250929050565b5f61ffff82169050919050565b61061781610601565b8114610621575f80fd5b50565b5f813590506106328161060e565b92915050565b5f63ffffffff82169050919050565b61065081610638565b811461065a575f80fd5b50565b5f8135905061066b81610647565b92915050565b5f805f805f8060a0878903121561068b5761068a610368565b5b5f61069889828a01610590565b965050602087013567ffffffffffffffff8111156106b9576106b861036c565b5b6106c589828a016105ac565b955095505060406106d889828a01610624565b93505060606106e989828a0161065d565b92505060806106fa89828a0161038f565b9150509295509295509295565b61071081610370565b82525050565b5f6020820190506107295f830184610707565b92915050565b5f819050919050565b6107418161072f565b82525050565b5f60208201905061075a5f830184610738565b92915050565b5f73ffffffffffffffffffffffffffffffffffffffff82169050919050565b5f61078982610760565b9050919050565b6107998161077f565b81146107a3575f80fd5b50565b5f813590506107b481610790565b92915050565b5f805f606084860312156107d1576107d0610368565b5b5f6107de868287016107a6565b93505060206107ef8682870161038f565b925050604084013567ffffffffffffffff8111156108105761080f61036c565b5b61081c868287016104b2565b9150509250925092565b5f8115159050919050565b61083a81610826565b82525050565b5f6020820190506108535f830184610831565b92915050565b7f4e487b71000000000000000000000000000000000000000000000000000000005f52601160045260245ffd5b5f6108908261072f565b91507fffffffffffffffffffffffffffffffffffffffffffffffffffffffffffffffff82036108c2576108c1610859565b5b600182019050919050565b5f819050919050565b6108e76108e28261072f565b6108cd565b82525050565b5f6108f882856108d6565b60208201915061090882846108d6565b6020820191508190509392505050565b5f81519050919050565b5f82825260208201905092915050565b8281835e5f83830152505050565b5f61094a82610918565b6109548185610922565b9350610964818560208601610932565b61096d816103ab565b840191505092915050565b5f60608201905061098b5f830186610707565b818103602083015261099d8185610940565b905081810360408301526109b18184610940565b9050949350505050565b5f81905092915050565b5f6109cf82610918565b6109d981856109bb565b93506109e9818560208601610932565b80840191505092915050565b5f610a0082846109c5565b915081905092915050565b5f82825260208201905092915050565b7f4d6f636b4f7261636c653a2066756c66696c6c696e67207265717565737420665f8201527f61696c6400000000000000000000000000000000000000000000000000000000602082015250565b5f610a75602483610a0b565b9150610a8082610a1b565b604082019050919050565b5f6020820190508181035f830152610aa281610a69565b9050919050565b5f8160601b9050919050565b5f610abf82610aa9565b9050919050565b5f610ad082610ab5565b9050919050565b610ae8610ae38261077f565b610ac6565b82525050565b5f610af982866108d6565b602082019150610b0982856108d6565b602082019150610b198284610ad7565b60148201915081905094935050505056fea2646970667358221220d2fb62e8cccff07e3eed04c1edb119fab862b51dfe9e712038205b5f8ce720cd64736f6c634300081a0033","linkReferences":{}},"methodIdentifiers":{"counter()":"61bc221a","counter2()":"a17d256a","fulfillRequest(address,bytes32,bytes)":"d51c4a9d","getRandomBytes32()":"f5b0fe54","handleOracleFulfillment(bytes32,bytes,bytes)":"0ca76175","preRequestId()":"c9d50f8c","sendRequest(uint64,bytes,uint16,uint32,bytes32)":"461d2762"},"id":31}