{"abi":[{"type":"constructor","inputs":[{"name":"_link","type":"address","internalType":"address"}],"stateMutability":"nonpayable"},{"type":"function","name":"EXPIRY_TIME","inputs":[],"outputs":[{"name":"","type":"uint256","internalType":"uint256"}],"stateMutability":"view"},{"type":"function","name":"cancelOracleRequest","inputs":[{"name":"_requestId","type":"bytes32","internalType":"bytes32"},{"name":"_payment","type":"uint256","internalType":"uint256"},{"name":"","type":"bytes4","internalType":"bytes4"},{"name":"_expiration","type":"uint256","internalType":"uint256"}],"outputs":[],"stateMutability":"nonpayable"},{"type":"function","name":"convertIntToBytes32Array","inputs":[{"name":"intArray","type":"int256[]","internalType":"int256[]"}],"outputs":[{"name":"","type":"bytes32[]","internalType":"bytes32[]"}],"stateMutability":"pure"},{"type":"function","name":"convertStringToBytes32Array","inputs":[{"name":"stringArray","type":"string[]","internalType":"string[]"}],"outputs":[{"name":"","type":"bytes32[]","internalType":"bytes32[]"}],"stateMutability":"pure"},{"type":"function","name":"convertToBytes","inputs":[{"name":"value","type":"uint256","internalType":"uint256"}],"outputs":[{"name":"","type":"bytes","internalType":"bytes"}],"stateMutability":"pure"},{"type":"function","name":"convertUintToBytes32","inputs":[{"name":"uintArray","type":"uint256[]","internalType":"uint256[]"}],"outputs":[{"name":"","type":"bytes32[]","internalType":"bytes32[]"}],"stateMutability":"pure"},{"type":"function","name":"fulfillOracleFundingRateRequest","inputs":[{"name":"_requestId","type":"bytes32","internalType":"bytes32"},{"name":"_tokens","type":"address[]","internalType":"address[]"},{"name":"_marketCapShares","type":"uint256[]","internalType":"uint256[]"},{"name":"_swapVersions","type":"uint256[]","internalType":"uint256[]"},{"name":"_chainSelectors","type":"uint64[]","internalType":"uint64[]"}],"outputs":[{"name":"","type":"bool","internalType":"bool"}],"stateMutability":"nonpayable"},{"type":"function","name":"fulfillOracleOjectRequest","inputs":[{"name":"_requestId","type":"bytes32","internalType":"bytes32"},{"name":"_data","type":"bytes32","internalType":"bytes32"}],"outputs":[{"name":"","type":"bool","internalType":"bool"}],"stateMutability":"nonpayable"},{"type":"function","name":"fulfillOracleStatusRequest","inputs":[{"name":"_requestId","type":"bytes32","internalType":"bytes32"},{"name":"_data","type":"string","internalType":"string"}],"outputs":[{"name":"","type":"bool","internalType":"bool"}],"stateMutability":"nonpayable"},{"type":"function","name":"getChainlinkToken","inputs":[],"outputs":[{"name":"","type":"address","internalType":"address"}],"stateMutability":"view"},{"type":"function","name":"onTokenTransfer","inputs":[{"name":"_sender","type":"address","internalType":"address"},{"name":"_amount","type":"uint256","internalType":"uint256"},{"name":"_data","type":"bytes","internalType":"bytes"}],"outputs":[],"stateMutability":"nonpayable"},{"type":"function","name":"oracleRequest","inputs":[{"name":"_sender","type":"address","internalType":"address"},{"name":"_payment","type":"uint256","internalType":"uint256"},{"name":"_specId","type":"bytes32","internalType":"bytes32"},{"name":"_callbackAddress","type":"address","internalType":"address"},{"name":"_callbackFunctionId","type":"bytes4","internalType":"bytes4"},{"name":"_nonce","type":"uint256","internalType":"uint256"},{"name":"_dataVersion","type":"uint256","internalType":"uint256"},{"name":"_data","type":"bytes","internalType":"bytes"}],"outputs":[],"stateMutability":"nonpayable"},{"type":"function","name":"uintToBytes32","inputs":[{"name":"myUint","type":"uint256","internalType":"uint256"}],"outputs":[{"name":"myBytes32","type":"bytes32","internalType":"bytes32"}],"stateMutability":"pure"},{"type":"event","name":"CancelOracleRequest","inputs":[{"name":"requestId","type":"bytes32","indexed":true,"internalType":"bytes32"}],"anonymous":false},{"type":"event","name":"OracleRequest","inputs":[{"name":"specId","type":"bytes32","indexed":true,"internalType":"bytes32"},{"name":"requester","type":"address","indexed":false,"internalType":"address"},{"name":"requestId","type":"bytes32","indexed":false,"internalType":"bytes32"},{"name":"payment","type":"uint256","indexed":false,"internalType":"uint256"},{"name":"callbackAddr","type":"address","indexed":false,"internalType":"address"},{"name":"callbackFunctionId","type":"bytes4","indexed":false,"internalType":"bytes4"},{"name":"cancelExpiration","type":"uint256","indexed":false,"internalType":"uint256"},{"name":"dataVersion","type":"uint256","indexed":false,"internalType":"uint256"},{"name":"data","type":"bytes","indexed":false,"internalType":"bytes"}],"anonymous":false}],"bytecode":{"object":"0x6080604052348015600e575f80fd5b50604051611c03380380611c03833981016040819052602b91604e565b5f80546001600160a01b0319166001600160a01b03929092169190911790556079565b5f60208284031215605d575f80fd5b81516001600160a01b03811681146072575f80fd5b9392505050565b611b7d806100865f395ff3fe608060405234801561000f575f80fd5b50600436106100cb575f3560e01c80636ee4d55311610088578063a4c0ed3611610063578063a4c0ed36146101a4578063c5e639ca146101b7578063e030ba66146101da578063ebc1fa71146101ed575f80fd5b80636ee4d5531461016d578063715d342f14610180578063886d3db914610193575f80fd5b8063165d35e1146100cf5780633be2c1d8146100ee578063404299461461010e578063466703c5146101235780634b602282146101435780635fdb23ca1461015a575b5f80fd5b5f546040516001600160a01b0390911681526020015b60405180910390f35b6101016100fc3660046111cf565b610200565b6040516100e59190611208565b61012161011c3660046112c0565b6103a1565b005b610136610131366004611357565b6105d9565b6040516100e5919061136e565b61014c61012c81565b6040519081526020016100e5565b6101016101683660046113fb565b610606565b61012161017b3660046114bd565b6106c8565b61010161018e3660046114f7565b610830565b61014c6101a1366004611357565b90565b6101216101b2366004611587565b610945565b6101ca6101c53660046115ec565b610b18565b60405190151581526020016100e5565b6101ca6101e8366004611633565b610c76565b6101ca6101fb3660046116c2565b610dd3565b80516060908061022b5760405162461bcd60e51b8152600401610222906117de565b60405180910390fd5b5f602061023983601f61181a565b6102439190611841565b90505f816001600160401b0381111561025e5761025e6110ff565b604051908082528060200260200182016040528015610287578160200160208202803683370190505b5090505f5b82811015610398575f6102a0826020611854565b90505f6102ae82602061181a565b9050858111156102bb5750845b5f6102c6838361186b565b6001600160401b038111156102dd576102dd6110ff565b604051908082528060200260200182016040528015610306578160200160208202803683370190505b509050825b8281101561035d578981815181106103255761032561187e565b602002602001015182858361033a919061186b565b8151811061034a5761034a61187e565b602090810291909101015260010161030b565b505f61036882611014565b90508086868151811061037d5761037d61187e565b602090810291909101015250506001909201915061028c9050565b50949350505050565b5f546001600160a01b031633146103f05760405162461bcd60e51b815260206004820152601360248201527226bab9ba103ab9b2902624a725903a37b5b2b760691b6044820152606401610222565b5f5486906001600160a01b039081169082160361044f5760405162461bcd60e51b815260206004820152601760248201527f43616e6e6f742063616c6c6261636b20746f204c494e4b0000000000000000006044820152606401610222565b6040516bffffffffffffffffffffffff1960608c901b166020820152603481018690525f9060540160408051601f1981840301815291815281516020928301205f81815260019093529120549091506001600160a01b0316156104eb5760405162461bcd60e51b8152602060048201526014602482015273135d5cdd081d5cd94818481d5b9a5c5d5948125160621b6044820152606401610222565b5f6104f84261012c611098565b905060405180604001604052808a6001600160a01b03168152602001896001600160e01b03191681525060015f8481526020019081526020015f205f820151815f015f6101000a8154816001600160a01b0302191690836001600160a01b031602179055506020820151815f0160146101000a81548163ffffffff021916908360e01c0217905550905050897fd8d7ecc4800d25fa53ce0372f13a416d98907a7ef3d8d3bdd79cf4fe75529c658d848e8d8d878d8d8d6040516105c3999897969594939291906118ba565b60405180910390a2505050505050505050505050565b60605f826040516020016105ef91815260200190565b60408051601f198184030181529190529392505050565b8051606090806106285760405162461bcd60e51b8152600401610222906117de565b5f816001600160401b03811115610641576106416110ff565b60405190808252806020026020018201604052801561066a578160200160208202803683370190505b5090505f5b828110156106c05761069b85828151811061068c5761068c61187e565b60200260200101516020015190565b8282815181106106ad576106ad61187e565b602090810291909101015260010161066f565b509392505050565b5f848152600160205260409020546001600160a01b03166107225760405162461bcd60e51b8152602060048201526014602482015273135d5cdd081d5cd94818481d5b9a5c5d5948125160621b6044820152606401610222565b4281111561076b5760405162461bcd60e51b815260206004820152601660248201527514995c5d595cdd081a5cc81b9bdd08195e1c1a5c995960521b6044820152606401610222565b5f8481526001602052604080822080546001600160c01b03191690555185917fa7842b9ec549398102c0d91b1b9919b2f20558aefdadf57528a95c6cd3292e9391a25f5460405163a9059cbb60e01b8152336004820152602481018590526001600160a01b039091169063a9059cbb906044016020604051808303815f875af11580156107fa573d5f803e3d5ffd5b505050506040513d601f19601f8201168201806040525081019061081e9190611922565b61082a5761082a611941565b50505050565b60605f826040516020016108449190611955565b60408051601f198184030181529190528351909150806108765760405162461bcd60e51b8152600401610222906117de565b60208251610884919061198a565b156108c85760405162461bcd60e51b8152602060048201526014602482015273092dcecc2d8d2c840c2e4e4c2f240d8cadccee8d60631b6044820152606401610222565b5f816001600160401b038111156108e1576108e16110ff565b60405190808252806020026020018201604052801561090a578160200160208202803683370190505b5090505f5b82811015610398576020808202850101518282815181106109325761093261187e565b602090810291909101015260010161090f565b5f546001600160a01b031633146109945760405162461bcd60e51b815260206004820152601360248201527226bab9ba103ab9b2902624a725903a37b5b2b760691b6044820152606401610222565b806109a160026020611854565b6109ac90600461181a565b815110156109f55760405162461bcd60e51b8152602060048201526016602482015275092dcecc2d8d2c840e4cae2eacae6e840d8cadccee8d60531b6044820152606401610222565b602082015182906001600160e01b031981166320214ca360e11b14610a5c5760405162461bcd60e51b815260206004820152601e60248201527f4d757374207573652077686974656c69737465642066756e6374696f6e7300006044820152606401610222565b8560248501528460448501525f306001600160a01b031685604051610a81919061199d565b5f60405180830381855af49150503d805f8114610ab9576040519150601f19603f3d011682016040523d82523d5f602084013e610abe565b606091505b5050905080610b0f5760405162461bcd60e51b815260206004820152601860248201527f556e61626c6520746f20637265617465207265717565737400000000000000006044820152606401610222565b50505050505050565b5f8381526001602052604081205484906001600160a01b0316610b4d5760405162461bcd60e51b8152600401610222906119b3565b5f858152600160208181526040808420815180830190925280546001600160a01b03811683526001600160e01b0319600160a01b820460e01b1683850152948a9052929091526001600160c01b0319909216905562061a805a1015610bc45760405162461bcd60e51b8152600401610222906119ea565b5f815f01516001600160a01b03168260200151888888604051602401610bec93929190611a1f565b60408051601f198184030181529181526020820180516001600160e01b03166001600160e01b0319909416939093179092529051610c2a919061199d565b5f604051808303815f865af19150503d805f8114610c63576040519150601f19603f3d011682016040523d82523d5f602084013e610c68565b606091505b509098975050505050505050565b5f8281526001602052604081205483906001600160a01b0316610cab5760405162461bcd60e51b8152600401610222906119b3565b5f848152600160208181526040808420815180830190925280546001600160a01b03811683526001600160e01b0319600160a01b820460e01b168385015294899052929091526001600160c01b0319909216905562061a805a1015610d225760405162461bcd60e51b8152600401610222906119ea565b8051602082015160405160248101889052604481018790525f926001600160a01b0316919060640160408051601f198184030181529181526020820180516001600160e01b03166001600160e01b0319909416939093179092529051610d88919061199d565b5f604051808303815f865af19150503d805f8114610dc1576040519150601f19603f3d011682016040523d82523d5f602084013e610dc6565b606091505b5090979650505050505050565b5f8581526001602052604081205486906001600160a01b0316610e085760405162461bcd60e51b8152600401610222906119b3565b5f878152600160208181526040808420815180830190925280546001600160a01b03811683526001600160e01b0319600160a01b820460e01b1683850152948c9052929091526001600160c01b0319909216905562061a805a1015610e7f5760405162461bcd60e51b8152600401610222906119ea565b6040805160018082528183019092525f91602080830190803683370190505090505f815f81518110610eb357610eb361187e565b6001600160a01b0392909216602092830291909101909101526040805160018082528183019092525f9181602001602082028036833701905050905068056bc75e2d63100000815f81518110610f0b57610f0b61187e565b60209081029190910101526040805160018082528183019092525f918160200160208202803683370190505090506003815f81518110610f4d57610f4d61187e565b6020026020010181815250505f845f01516001600160a01b031685602001518d8d8d8d8d604051602401610f85959493929190611ab4565b60408051601f198184030181529181526020820180516001600160e01b03166001600160e01b0319909416939093179092529051610fc3919061199d565b5f604051808303815f865af19150503d805f8114610ffc576040519150601f19603f3d011682016040523d82523d5f602084013e611001565b606091505b50909d9c50505050505050505050505050565b5f80825160206110249190611854565b6001600160401b0381111561103b5761103b6110ff565b6040519080825280601f01601f191660200182016040528015611065576020820181803683370190505b5090505f5b835181101561108d5760208181028581018201519084019091015260010161106a565b506020015192915050565b5f806110a4838561181a565b9050838110156110f65760405162461bcd60e51b815260206004820152601b60248201527f536166654d6174683a206164646974696f6e206f766572666c6f7700000000006044820152606401610222565b90505b92915050565b634e487b7160e01b5f52604160045260245ffd5b604051601f8201601f191681016001600160401b038111828210171561113b5761113b6110ff565b604052919050565b5f6001600160401b0382111561115b5761115b6110ff565b5060051b60200190565b5f82601f830112611174575f80fd5b813561118761118282611143565b611113565b8082825260208201915060208360051b8601019250858311156111a8575f80fd5b602085015b838110156111c55780358352602092830192016111ad565b5095945050505050565b5f602082840312156111df575f80fd5b81356001600160401b038111156111f4575f80fd5b61120084828501611165565b949350505050565b602080825282518282018190525f918401906040840190835b8181101561123f578351835260209384019390920191600101611221565b509095945050505050565b80356001600160a01b0381168114611260575f80fd5b919050565b80356001600160e01b031981168114611260575f80fd5b5f8083601f84011261128c575f80fd5b5081356001600160401b038111156112a2575f80fd5b6020830191508360208285010111156112b9575f80fd5b9250929050565b5f805f805f805f805f6101008a8c0312156112d9575f80fd5b6112e28a61124a565b985060208a0135975060408a013596506112fe60608b0161124a565b955061130c60808b01611265565b945060a08a0135935060c08a0135925060e08a01356001600160401b03811115611334575f80fd5b6113408c828d0161127c565b915080935050809150509295985092959850929598565b5f60208284031215611367575f80fd5b5035919050565b602081525f82518060208401528060208501604085015e5f604082850101526040601f19601f83011684010191505092915050565b5f806001600160401b038411156113bc576113bc6110ff565b50601f8301601f19166020016113d181611113565b9150508281528383830111156113e5575f80fd5b828260208301375f602084830101529392505050565b5f6020828403121561140b575f80fd5b81356001600160401b03811115611420575f80fd5b8201601f81018413611430575f80fd5b803561143e61118282611143565b8082825260208201915060208360051b85010192508683111561145f575f80fd5b602084015b838110156114b25780356001600160401b03811115611481575f80fd5b8501603f81018913611491575f80fd5b6114a3896020830135604084016113a3565b84525060209283019201611464565b509695505050505050565b5f805f80608085870312156114d0575f80fd5b84359350602085013592506114e760408601611265565b9396929550929360600135925050565b5f60208284031215611507575f80fd5b81356001600160401b0381111561151c575f80fd5b8201601f8101841361152c575f80fd5b803561153a61118282611143565b8082825260208201915060208360051b85010192508683111561155b575f80fd5b6020840193505b8284101561157d578335825260209384019390910190611562565b9695505050505050565b5f805f60608486031215611599575f80fd5b6115a28461124a565b92506020840135915060408401356001600160401b038111156115c3575f80fd5b8401601f810186136115d3575f80fd5b6115e2868235602084016113a3565b9150509250925092565b5f805f604084860312156115fe575f80fd5b8335925060208401356001600160401b0381111561161a575f80fd5b6116268682870161127c565b9497909650939450505050565b5f8060408385031215611644575f80fd5b50508035926020909101359150565b5f82601f830112611662575f80fd5b813561167061118282611143565b8082825260208201915060208360051b860101925085831115611691575f80fd5b602085015b838110156111c55780356001600160401b03811681146116b4575f80fd5b835260209283019201611696565b5f805f805f60a086880312156116d6575f80fd5b8535945060208601356001600160401b038111156116f2575f80fd5b8601601f81018813611702575f80fd5b803561171061118282611143565b8082825260208201915060208360051b85010192508a831115611731575f80fd5b6020840193505b8284101561175a576117498461124a565b825260209384019390910190611738565b965050505060408601356001600160401b03811115611777575f80fd5b61178388828901611165565b93505060608601356001600160401b0381111561179e575f80fd5b6117aa88828901611165565b92505060808601356001600160401b038111156117c5575f80fd5b6117d188828901611653565b9150509295509295909350565b6020808252600e908201526d417272617920697320656d70747960901b604082015260600190565b634e487b7160e01b5f52601160045260245ffd5b808201808211156110f9576110f9611806565b634e487b7160e01b5f52601260045260245ffd5b5f8261184f5761184f61182d565b500490565b80820281158282048414176110f9576110f9611806565b818103818111156110f9576110f9611806565b634e487b7160e01b5f52603260045260245ffd5b81835281816020850137505f828201602090810191909152601f909101601f19169091010190565b6001600160a01b038a81168252602082018a905260408201899052871660608201526001600160e01b03198616608082015260a0810185905260c0810184905261010060e082018190525f906119139083018486611892565b9b9a5050505050505050505050565b5f60208284031215611932575f80fd5b815180151581146110f6575f80fd5b634e487b7160e01b5f52600160045260245ffd5b81515f90829060208501835b8281101561197f578151845260209384019390910190600101611961565b509195945050505050565b5f826119985761199861182d565b500690565b5f82518060208501845e5f920191825250919050565b6020808252601b908201527f4d757374206861766520612076616c6964207265717565737449640000000000604082015260600190565b6020808252818101527f4d7573742070726f7669646520636f6e73756d657220656e6f75676820676173604082015260600190565b838152604060208201525f611a38604083018486611892565b95945050505050565b5f8151808452602084019350602083015f5b82811015611a71578151865260209586019590910190600101611a53565b5093949350505050565b5f8151808452602084019350602083015f5b82811015611a715781516001600160401b0316865260209586019590910190600101611a8d565b5f60a0820187835260a0602084015280875180835260c0850191506020890192505f5b81811015611afe5783516001600160a01b0316835260209384019390920191600101611ad7565b50508381036040850152611b128188611a41565b9150508281036060840152611b278186611a41565b90508281036080840152611b3b8185611a7b565b9897505050505050505056fea2646970667358221220f335585ab71d9b67be511cbc3edc59b7744051af4c49866eb3cf18c6f8b1fac764736f6c634300081a0033","linkReferences":{}},"methodIdentifiers":{"EXPIRY_TIME()":"4b602282","cancelOracleRequest(bytes32,uint256,bytes4,uint256)":"6ee4d553","convertIntToBytes32Array(int256[])":"715d342f","convertStringToBytes32Array(string[])":"5fdb23ca","convertToBytes(uint256)":"466703c5","convertUintToBytes32(uint256[])":"3be2c1d8","fulfillOracleFundingRateRequest(bytes32,address[],uint256[],uint256[],uint64[])":"ebc1fa71","fulfillOracleOjectRequest(bytes32,bytes32)":"e030ba66","fulfillOracleStatusRequest(bytes32,string)":"c5e639ca","getChainlinkToken()":"165d35e1","onTokenTransfer(address,uint256,bytes)":"a4c0ed36","oracleRequest(address,uint256,bytes32,address,bytes4,uint256,uint256,bytes)":"40429946","uintToBytes32(uint256)":"886d3db9"},"id":29}