{"abi":[{"type":"receive","stateMutability":"payable"},{"type":"function","name":"MAX_FEE_RATE","inputs":[],"outputs":[{"name":"","type":"uint8","internalType":"uint8"}],"stateMutability":"view"},{"type":"function","name":"MAX_TOKENS_LENGTH","inputs":[],"outputs":[{"name":"","type":"uint16","internalType":"uint16"}],"stateMutability":"view"},{"type":"function","name":"MIN_FEE_RATE","inputs":[],"outputs":[{"name":"","type":"uint8","internalType":"uint8"}],"stateMutability":"view"},{"type":"function","name":"MIN_FEE_UPDATE_INTERVAL","inputs":[],"outputs":[{"name":"","type":"uint256","internalType":"uint256"}],"stateMutability":"view"},{"type":"function","name":"ccipReceive","inputs":[{"name":"message","type":"tuple","internalType":"struct Client.Any2EVMMessage","components":[{"name":"messageId","type":"bytes32","internalType":"bytes32"},{"name":"sourceChainSelector","type":"uint64","internalType":"uint64"},{"name":"sender","type":"bytes","internalType":"bytes"},{"name":"data","type":"bytes","internalType":"bytes"},{"name":"destTokenAmounts","type":"tuple[]","internalType":"struct Client.EVMTokenAmount[]","components":[{"name":"token","type":"address","internalType":"address"},{"name":"amount","type":"uint256","internalType":"uint256"}]}]}],"outputs":[],"stateMutability":"nonpayable"},{"type":"function","name":"convertEthToUsd","inputs":[{"name":"_ethAmount","type":"uint256","internalType":"uint256"}],"outputs":[{"name":"","type":"uint256","internalType":"uint256"}],"stateMutability":"view"},{"type":"function","name":"crossChainFactoryBySelector","inputs":[{"name":"_chainSelector","type":"uint64","internalType":"uint64"}],"outputs":[{"name":"","type":"address","internalType":"address"}],"stateMutability":"view"},{"type":"function","name":"crossChainToken","inputs":[{"name":"_chainSelector","type":"uint64","internalType":"uint64"}],"outputs":[{"name":"","type":"address","internalType":"address"}],"stateMutability":"view"},{"type":"function","name":"crossChainTokenSwapFee","inputs":[{"name":"_chainSelector","type":"uint64","internalType":"uint64"}],"outputs":[{"name":"","type":"uint24","internalType":"uint24"}],"stateMutability":"view"},{"type":"function","name":"currentChainSelector","inputs":[],"outputs":[{"name":"","type":"uint64","internalType":"uint64"}],"stateMutability":"view"},{"type":"function","name":"estimateAmountOut","inputs":[{"name":"tokenIn","type":"address","internalType":"address"},{"name":"tokenOut","type":"address","internalType":"address"},{"name":"amountIn","type":"uint128","internalType":"uint128"}],"outputs":[{"name":"amountOut","type":"uint256","internalType":"uint256"}],"stateMutability":"view"},{"type":"function","name":"factoryStorage","inputs":[],"outputs":[{"name":"","type":"address","internalType":"contract IndexFactoryStorage"}],"stateMutability":"view"},{"type":"function","name":"feeRate","inputs":[],"outputs":[{"name":"","type":"uint8","internalType":"uint8"}],"stateMutability":"view"},{"type":"function","name":"feeReceiver","inputs":[],"outputs":[{"name":"","type":"address","internalType":"address"}],"stateMutability":"view"},{"type":"function","name":"getAmountOut","inputs":[{"name":"tokenIn","type":"address","internalType":"address"},{"name":"tokenOut","type":"address","internalType":"address"},{"name":"amountIn","type":"uint256","internalType":"uint256"},{"name":"_swapFee","type":"uint24","internalType":"uint24"}],"outputs":[{"name":"finalAmountOut","type":"uint256","internalType":"uint256"}],"stateMutability":"view"},{"type":"function","name":"getPortfolioBalance","inputs":[],"outputs":[{"name":"","type":"uint256","internalType":"uint256"}],"stateMutability":"view"},{"type":"function","name":"getRouter","inputs":[],"outputs":[{"name":"","type":"address","internalType":"address"}],"stateMutability":"view"},{"type":"function","name":"i_link","inputs":[],"outputs":[{"name":"","type":"address","internalType":"address"}],"stateMutability":"view"},{"type":"function","name":"indexToken","inputs":[],"outputs":[{"name":"","type":"address","internalType":"contract IndexToken"}],"stateMutability":"view"},{"type":"function","name":"initialize","inputs":[{"name":"_currentChainSelector","type":"uint64","internalType":"uint64"},{"name":"_token","type":"address","internalType":"address payable"},{"name":"_chainlinkToken","type":"address","internalType":"address"},{"name":"_router","type":"address","internalType":"address"},{"name":"_weth","type":"address","internalType":"address"}],"outputs":[],"stateMutability":"nonpayable"},{"type":"function","name":"issuanceData","inputs":[{"name":"","type":"uint256","internalType":"uint256"}],"outputs":[{"name":"completedTokensCount","type":"uint256","internalType":"uint256"},{"name":"requester","type":"address","internalType":"address"},{"name":"inputAmount","type":"uint256","internalType":"uint256"},{"name":"inputToken","type":"address","internalType":"address"},{"name":"messageId","type":"bytes32","internalType":"bytes32"}],"stateMutability":"view"},{"type":"function","name":"issuanceIndexTokens","inputs":[{"name":"_tokenIn","type":"address","internalType":"address"},{"name":"_inputAmount","type":"uint256","internalType":"uint256"},{"name":"_crossChainFee","type":"uint256","internalType":"uint256"},{"name":"_tokenInSwapFee","type":"uint24","internalType":"uint24"}],"outputs":[],"stateMutability":"nonpayable"},{"type":"function","name":"issuanceIndexTokensWithEth","inputs":[{"name":"_inputAmount","type":"uint256","internalType":"uint256"},{"name":"_crossChainFee","type":"uint256","internalType":"uint256"}],"outputs":[],"stateMutability":"payable"},{"type":"function","name":"issuanceNonce","inputs":[],"outputs":[{"name":"","type":"uint256","internalType":"uint256"}],"stateMutability":"view"},{"type":"function","name":"latestFeeUpdate","inputs":[],"outputs":[{"name":"","type":"uint256","internalType":"uint256"}],"stateMutability":"view"},{"type":"function","name":"owner","inputs":[],"outputs":[{"name":"","type":"address","internalType":"address"}],"stateMutability":"view"},{"type":"function","name":"priceInWei","inputs":[],"outputs":[{"name":"","type":"uint256","internalType":"uint256"}],"stateMutability":"view"},{"type":"function","name":"proposeOwner","inputs":[{"name":"_proposedOwner","type":"address","internalType":"address"}],"outputs":[],"stateMutability":"nonpayable"},{"type":"function","name":"proposedOwner","inputs":[],"outputs":[{"name":"","type":"address","internalType":"address"}],"stateMutability":"view"},{"type":"function","name":"redemption","inputs":[{"name":"amountIn","type":"uint256","internalType":"uint256"},{"name":"_crossChainFee","type":"uint256","internalType":"uint256"},{"name":"_tokenOut","type":"address","internalType":"address"},{"name":"_tokenOutSwapFee","type":"uint24","internalType":"uint24"}],"outputs":[],"stateMutability":"nonpayable"},{"type":"function","name":"redemptionData","inputs":[{"name":"","type":"uint256","internalType":"uint256"}],"outputs":[{"name":"totalValue","type":"uint256","internalType":"uint256"},{"name":"completedTokensCount","type":"uint256","internalType":"uint256"},{"name":"requester","type":"address","internalType":"address"},{"name":"outputToken","type":"address","internalType":"address"},{"name":"outputTokenSwapFee","type":"uint24","internalType":"uint24"},{"name":"inputAmount","type":"uint256","internalType":"uint256"},{"name":"messageId","type":"bytes32","internalType":"bytes32"}],"stateMutability":"view"},{"type":"function","name":"redemptionNonce","inputs":[],"outputs":[{"name":"","type":"uint256","internalType":"uint256"}],"stateMutability":"view"},{"type":"function","name":"renounceOwnership","inputs":[],"outputs":[],"stateMutability":"nonpayable"},{"type":"function","name":"sendMessage","inputs":[{"name":"destinationChainSelector","type":"uint64","internalType":"uint64"},{"name":"receiver","type":"address","internalType":"address"},{"name":"_data","type":"bytes","internalType":"bytes"},{"name":"payFeesIn","type":"uint8","internalType":"enum IndexFactory.PayFeesIn"}],"outputs":[{"name":"","type":"bytes32","internalType":"bytes32"}],"stateMutability":"nonpayable"},{"type":"function","name":"setFeeRate","inputs":[{"name":"_newFee","type":"uint8","internalType":"uint8"}],"outputs":[],"stateMutability":"nonpayable"},{"type":"function","name":"setFeeReceiver","inputs":[{"name":"_feeReceiver","type":"address","internalType":"address"}],"outputs":[],"stateMutability":"nonpayable"},{"type":"function","name":"setIndexFactoryStorage","inputs":[{"name":"_factoryStorage","type":"address","internalType":"address"}],"outputs":[],"stateMutability":"nonpayable"},{"type":"function","name":"supportsInterface","inputs":[{"name":"interfaceId","type":"bytes4","internalType":"bytes4"}],"outputs":[{"name":"","type":"bool","internalType":"bool"}],"stateMutability":"pure"},{"type":"function","name":"transferOwnership","inputs":[{"name":"newOwner","type":"address","internalType":"address"}],"outputs":[],"stateMutability":"nonpayable"},{"type":"function","name":"weth","inputs":[],"outputs":[{"name":"","type":"address","internalType":"contract IWETH"}],"stateMutability":"view"},{"type":"event","name":"Initialized","inputs":[{"name":"version","type":"uint8","indexed":false,"internalType":"uint8"}],"anonymous":false},{"type":"event","name":"Issuanced","inputs":[{"name":"messageId","type":"bytes32","indexed":true,"internalType":"bytes32"},{"name":"nonce","type":"uint256","indexed":true,"internalType":"uint256"},{"name":"user","type":"address","indexed":true,"internalType":"address"},{"name":"inputToken","type":"address","indexed":false,"internalType":"address"},{"name":"inputAmount","type":"uint256","indexed":false,"internalType":"uint256"},{"name":"outputAmount","type":"uint256","indexed":false,"internalType":"uint256"},{"name":"time","type":"uint256","indexed":false,"internalType":"uint256"}],"anonymous":false},{"type":"event","name":"MessageSent","inputs":[{"name":"messageId","type":"bytes32","indexed":false,"internalType":"bytes32"}],"anonymous":false},{"type":"event","name":"OwnershipTransferred","inputs":[{"name":"previousOwner","type":"address","indexed":true,"internalType":"address"},{"name":"newOwner","type":"address","indexed":true,"internalType":"address"}],"anonymous":false},{"type":"event","name":"Redemption","inputs":[{"name":"messageId","type":"bytes32","indexed":true,"internalType":"bytes32"},{"name":"nonce","type":"uint256","indexed":true,"internalType":"uint256"},{"name":"user","type":"address","indexed":true,"internalType":"address"},{"name":"outputToken","type":"address","indexed":false,"internalType":"address"},{"name":"inputAmount","type":"uint256","indexed":false,"internalType":"uint256"},{"name":"outputAmount","type":"uint256","indexed":false,"internalType":"uint256"},{"name":"time","type":"uint256","indexed":false,"internalType":"uint256"}],"anonymous":false},{"type":"event","name":"RequestIssuance","inputs":[{"name":"messageId","type":"bytes32","indexed":true,"internalType":"bytes32"},{"name":"nonce","type":"uint256","indexed":true,"internalType":"uint256"},{"name":"user","type":"address","indexed":true,"internalType":"address"},{"name":"inputToken","type":"address","indexed":false,"internalType":"address"},{"name":"inputAmount","type":"uint256","indexed":false,"internalType":"uint256"},{"name":"outputAmount","type":"uint256","indexed":false,"internalType":"uint256"},{"name":"time","type":"uint256","indexed":false,"internalType":"uint256"}],"anonymous":false},{"type":"event","name":"RequestRedemption","inputs":[{"name":"messageId","type":"bytes32","indexed":true,"internalType":"bytes32"},{"name":"nonce","type":"uint256","indexed":true,"internalType":"uint256"},{"name":"user","type":"address","indexed":true,"internalType":"address"},{"name":"outputToken","type":"address","indexed":false,"internalType":"address"},{"name":"inputAmount","type":"uint256","indexed":false,"internalType":"uint256"},{"name":"outputAmount","type":"uint256","indexed":false,"internalType":"uint256"},{"name":"time","type":"uint256","indexed":false,"internalType":"uint256"}],"anonymous":false},{"type":"error","name":"InvalidRouter","inputs":[{"name":"router","type":"address","internalType":"address"}]}],"bytecode":{"object":"0x6080604052348015600f57600080fd5b506157ca8061001f6000396000f3fe60806040526004361061023f5760003560e01c80639dbb9c9e1161012e578063c9172ef7116100ab578063dd811ac91161006f578063dd811ac9146107c7578063e7d015f2146107e7578063efdcd97414610807578063f2fde38b14610827578063fd4851011461084757600080fd5b8063c9172ef714610729578063cc8659ae1461073f578063d0586d711461075f578063d153b60c1461077f578063d28c00fc1461079f57600080fd5b8063b3f00674116100f2578063b3f0067414610689578063b5ed298a146106a9578063bcab90b3146106c9578063c06e1ae2146106e9578063c086381e1461070957600080fd5b80639dbb9c9e146105555780639ff73f451461056b578063a8509fd81461059f578063aa4379c0146105b4578063b0f479a11461066557600080fd5b806341d11817116101bc57806384d77bb11161018057806384d77bb1146104cb57806385572ffb146104e15780638da5cb5b1461050157806392f6576e1461051f578063978bbdb91461053457600080fd5b806341d118171461043c5780635177942a1461044f57806358c0f10d1461046f578063715018a6146104965780637d253aff146104ab57600080fd5b80632d6fc6b3116102035780632d6fc6b31461031e578063340fbc74146103a85780633c8da588146103c85780633d54cb6f146103dd5780633fc8cef31461041557600080fd5b8063011ced5f1461024b57806301ffc9a7146102745780630456f9c8146102a457806316b487ff146102c457806319da7e2a146102e657600080fd5b3661024657005b600080fd5b34801561025757600080fd5b5061026160cd5481565b6040519081526020015b60405180910390f35b34801561028057600080fd5b5061029461028f36600461492f565b610867565b604051901515815260200161026b565b3480156102b057600080fd5b506102616102bf36600461496e565b61089e565b3480156102d057600080fd5b506102e46102df3660046149ea565b61092b565b005b3480156102f257600080fd5b50610306610301366004614a5b565b610b73565b6040516001600160a01b03909116815260200161026b565b34801561032a57600080fd5b50610376610339366004614a78565b60d2602052600090815260409020600181015460028201546003830154600484015460059094015492936001600160a01b03928316939192169085565b604080519586526001600160a01b0394851660208701528501929092529091166060830152608082015260a00161026b565b3480156103b457600080fd5b506103066103c3366004614a5b565b610bea565b3480156103d457600080fd5b50610261610c24565b3480156103e957600080fd5b5060ce546103fd906001600160401b031681565b6040516001600160401b03909116815260200161026b565b34801561042157600080fd5b5060ce5461030690600160401b90046001600160a01b031681565b6102e461044a366004614a91565b610c97565b34801561045b57600080fd5b506102e461046a366004614ab3565b610e92565b34801561047b57600080fd5b50610484600181565b60405160ff909116815260200161026b565b3480156104a257600080fd5b506102e4610fc3565b3480156104b757600080fd5b5060cb54610306906001600160a01b031681565b3480156104d757600080fd5b5061026160d05481565b3480156104ed57600080fd5b506102e46104fc366004614ad6565b610fd7565b34801561050d57600080fd5b506033546001600160a01b0316610306565b34801561052b57600080fd5b50610484606481565b34801561054057600080fd5b5060cc5461048490600160a01b900460ff1681565b34801561056157600080fd5b5061026160cf5481565b34801561057757600080fd5b5061058b610586366004614a5b565b61101e565b60405162ffffff909116815260200161026b565b3480156105ab57600080fd5b506102616110b0565b3480156105c057600080fd5b5061061f6105cf366004614a78565b60d360205260009081526040902080546001820154600283015460038401546004850154600590950154939492936001600160a01b039283169392821692600160a01b90920462ffffff16919087565b6040805197885260208801969096526001600160a01b039485169587019590955292909116606085015262ffffff16608084015260a083015260c082015260e00161026b565b34801561067157600080fd5b506000546201000090046001600160a01b0316610306565b34801561069557600080fd5b5060d154610306906001600160a01b031681565b3480156106b557600080fd5b506102e46106c4366004614b10565b611475565b3480156106d557600080fd5b506102616106e4366004614c2c565b6114c5565b3480156106f557600080fd5b5060ca54610306906001600160a01b031681565b34801561071557600080fd5b50610261610724366004614a78565b6114f5565b34801561073557600080fd5b5061026161a8c081565b34801561074b57600080fd5b506102e461075a366004614b10565b61151c565b34801561076b57600080fd5b506102e461077a366004614cb5565b611546565b34801561078b57600080fd5b50606554610306906001600160a01b031681565b3480156107ab57600080fd5b506107b4600581565b60405161ffff909116815260200161026b565b3480156107d357600080fd5b506102616107e2366004614cf4565b61197a565b3480156107f357600080fd5b5060cc54610306906001600160a01b031681565b34801561081357600080fd5b506102e4610822366004614b10565b611a03565b34801561083357600080fd5b506102e4610842366004614b10565b611a2d565b34801561085357600080fd5b506102e4610862366004614d3c565b611b52565b60006001600160e01b031982166385572ffb60e01b148061089857506001600160e01b031982166301ffc9a760e01b145b92915050565b60ca54604051628adf3960e31b81526001600160a01b03858116600483015284811660248301526001600160801b03841660448301526000921690630456f9c890606401602060405180830381865afa1580156108ff573d6000803e3d6000fd5b505050506040513d601f19601f820116820180604052508101906109239190614d7b565b949350505050565b600054610100900460ff161580801561094b5750600054600160ff909116105b806109655750303b158015610965575060005460ff166001145b6109cd5760405162461bcd60e51b815260206004820152602e60248201527f496e697469616c697a61626c653a20636f6e747261637420697320616c72656160448201526d191e481a5b9a5d1a585b1a5e995960921b60648201526084015b60405180910390fd5b6000805460ff1916600117905580156109f0576000805461ff0019166101001790555b6109f983611e78565b610a01611ef3565b610a09611f22565b610a11611f4d565b60ce80546001600160401b03881667ffffffffffffffff1990911617905560cc80546001600160a01b038088166001600160a01b03199283161790925560cb805487841692168217905560005460405163095ea7b360e01b8152919263095ea7b392610a8d926201000090049091169060001990600401614d94565b6020604051808303816000875af1158015610aac573d6000803e3d6000fd5b505050506040513d601f19601f82011682018060405250810190610ad09190614dad565b5060ce805468010000000000000000600160e01b031916600160401b6001600160a01b0385160217905560cc805460ff60a01b1916600560a11b1790554260cd5560d18054336001600160a01b03199091161790558015610b6b576000805461ff0019169055604051600181527f7f26b83ff96e1f2b6a682f133852f6798a09c465da95921460cefb38474024989060200160405180910390a15b505050505050565b60ca54604051630ced3f1560e11b81526001600160401b03831660048201526000916001600160a01b0316906319da7e2a906024015b602060405180830381865afa158015610bc6573d6000803e3d6000fd5b505050506040513d601f19601f820116820180604052508101906108989190614dcf565b60ca54604051630d03ef1d60e21b81526001600160401b03831660048201526000916001600160a01b03169063340fbc7490602401610ba9565b60ca5460408051630791b4b160e31b815290516000926001600160a01b031691633c8da5889160048083019260209291908290030181865afa158015610c6e573d6000803e3d6000fd5b505050506040513d601f19601f82011682018060405250810190610c929190614d7b565b905090565b6000610cb28360cc60149054906101000a900460ff16611f7b565b9050600082610cc18386614e02565b610ccb9190614e02565b905080341015610d1d5760405162461bcd60e51b815260206004820152601a60248201527f6c6f776572207468616e20726571756972656420616d6f756e7400000000000060448201526064016109c4565b60ce60089054906101000a90046001600160a01b03166001600160a01b031663d0e30db0826040518263ffffffff1660e01b81526004016000604051808303818588803b158015610d6d57600080fd5b505af1158015610d81573d6000803e3d6000fd5b505060ce5460d15460405163a9059cbb60e01b81526001600160a01b03600160401b9093048316955063a9059cbb9450610dc393509116908690600401614d94565b6020604051808303816000875af1158015610de2573d6000803e3d6000fd5b505050506040513d601f19601f82011682018060405250810190610e069190614dad565b5060cf8054906000610e1783614e15565b909155505060cf8054600090815260d260205260408082206002018054336001600160a01b0319918216179091558354835281832060030188905560ce8054945484529190922060040180546001600160a01b03600160401b9586900481169190941617905554610e8c929004168585611f97565b50505050565b610e9a6121f5565b61a8c060cd5442610eab9190614e2e565b1015610f1f5760405162461bcd60e51b815260206004820152603960248201527f596f752073686f756c642077616974206174206c6561737420313220686f757260448201527f7320616674657220746865206c6174657374207570646174650000000000000060648201526084016109c4565b606460ff821611801590610f375750600160ff821610155b610f9f5760405162461bcd60e51b815260206004820152603360248201527f546865206e65774665652073686f756c64206265206265747765656e203120616044820152726e64203130302028302e303125202d2031252960681b60648201526084016109c4565b60cc805460ff909216600160a01b0260ff60a01b199092169190911790554260cd55565b610fcb6121f5565b610fd5600061224f565b565b6000546201000090046001600160a01b0316331461100a576040516335fdcccd60e21b81523360048201526024016109c4565b61101b61101682614f00565b6122a1565b50565b60008061102a83610b73565b60ca54604051633291aa5760e11b81526001600160401b03861660048201526001600160a01b03808416602483015292935091169063652354ae90604401602060405180830381865afa158015611085573d6000803e3d6000fd5b505050506040513d601f19601f820116820180604052508101906110a99190614fb6565b9392505050565b600080600060ca60009054906101000a90046001600160a01b03166001600160a01b03166353fd43326040518163ffffffff1660e01b8152600401602060405180830381865afa158015611108573d6000803e3d6000fd5b505050506040513d601f19601f8201168201806040525081019061112c9190614d7b565b905060005b8181101561146d5760ca5460405163264cae9360e21b8152600481018390526000916001600160a01b031690639932ba4c90602401602060405180830381865afa158015611183573d6000803e3d6000fd5b505050506040513d601f19601f820116820180604052508101906111a79190614dcf565b60ca54604051633aa3b3c160e21b81526001600160a01b0380841660048301529293506000929091169063ea8ecf0490602401602060405180830381865afa1580156111f7573d6000803e3d6000fd5b505050506040513d601f19601f8201168201806040525081019061121b9190614fd3565b60ca54604051633259966560e01b81526001600160a01b03858116600483015292935060009290911690633259966590602401602060405180830381865afa15801561126b573d6000803e3d6000fd5b505050506040513d601f19601f8201168201806040525081019061128f9190614fb6565b60ce549091506001600160401b03908116908316036114625760ce546001600160a01b03600160401b9091048116908416036113445760cc546040516370a0823160e01b81526001600160a01b039182166004820152908416906370a0823190602401602060405180830381865afa15801561130f573d6000803e3d6000fd5b505050506040513d601f19601f820116820180604052508101906113339190614d7b565b61133d9087614e02565b9550611462565b60ca5460ce5460cc546040516370a0823160e01b81526001600160a01b03918216600482015260009382169263dd811ac9928892600160401b909204811691908316906370a0823190602401602060405180830381865afa1580156113ad573d6000803e3d6000fd5b505050506040513d601f19601f820116820180604052508101906113d19190614d7b565b6040516001600160e01b031960e086901b1681526001600160a01b039384166004820152929091166024830152604482015262ffffff85166064820152608401602060405180830381865afa15801561142e573d6000803e3d6000fd5b505050506040513d601f19601f820116820180604052508101906114529190614d7b565b905061145e8188614e02565b9650505b505050600101611131565b509092915050565b61147d6121f5565b6001600160a01b0381166114a35760405162461bcd60e51b81526004016109c490614ff0565b606580546001600160a01b0319166001600160a01b0392909216919091179055565b6000805460cb546114ec916001600160a01b03620100009091048116911687878787612378565b95945050505050565b6000670de0b6b3a7640000611508610c24565b6115129084615040565b6108989190615057565b6115246121f5565b60ca80546001600160a01b0319166001600160a01b0392909216919091179055565b60cc54604080516318160ddd60e01b815290516000926001600160a01b0316916318160ddd9160048083019260209291908290030181865afa158015611590573d6000803e3d6000fd5b505050506040513d601f19601f820116820180604052508101906115b49190614d7b565b6115c686670de0b6b3a7640000615040565b6115d09190615057565b9050600160d060008282546115e59190614e02565b909155505060d08054600090815260d3602052604080822060020180546001600160a01b03199081163390811790925584548452828420600390810180546001600160a01b038b8116919094161790558554855283852001805462ffffff8916600160a01b0262ffffff60a01b199091161790559354835291819020600490810189905560cc549151632770a7eb60e21b81529190931692639dc29fac926116919290918a9101614d94565b600060405180830381600087803b1580156116ab57600080fd5b505af11580156116bf573d6000803e3d6000fd5b50505050600060ca60009054906101000a90046001600160a01b03166001600160a01b03166369487b1c6040518163ffffffff1660e01b8152600401602060405180830381865afa158015611718573d6000803e3d6000fd5b505050506040513d601f19601f8201168201806040525081019061173c9190614d7b565b9050600060ca60009054906101000a90046001600160a01b03166001600160a01b031663b90b8a2a6040518163ffffffff1660e01b8152600401602060405180830381865afa158015611793573d6000803e3d6000fd5b505050506040513d601f19601f820116820180604052508101906117b79190614d7b565b60ca546040516369fbf93360e11b8152600481018390529192506000916001600160a01b039091169063d3f7f26690602401600060405180830381865afa158015611806573d6000803e3d6000fd5b505050506040513d6000823e601f3d908101601f1916820160405261182e91908101906151a5565b935050505060005b8381101561191a576000828281518110611852576118526152c5565b602090810291909101015160ca5460405163b6ad185b60e01b81526001600160401b03831660048201529192506000916001600160a01b039091169063b6ad185b90602401602060405180830381865afa1580156118b4573d6000803e3d6000fd5b505050506040513d601f19601f820116820180604052508101906118d89190614d7b565b60ce549091506001600160401b0390811690831603611903576118fe8760d054836125d4565b611910565b6119108760d054846129a2565b5050600101611836565b5060d054600081815260d360205260408082206005015490513393927f4f9e9bfb3670784096375593cb821e86bd88b1fcb08efc38330012d8c33c3e3691611968918c918f919042906152db565b60405180910390a45050505050505050565b60ca5460405163dd811ac960e01b81526001600160a01b03868116600483015285811660248301526044820185905262ffffff84166064830152600092169063dd811ac990608401602060405180830381865afa1580156119df573d6000803e3d6000fd5b505050506040513d601f19601f820116820180604052508101906114ec9190614d7b565b611a0b6121f5565b60d180546001600160a01b0319166001600160a01b0392909216919091179055565b6001600160a01b038116611a535760405162461bcd60e51b81526004016109c490614ff0565b6065546001600160a01b03828116911614611acb5760405162461bcd60e51b815260206004820152603260248201527f50726f706f7361626c654f776e61626c653a206e6577206f776e6572206973206044820152713737ba10383937b837b9b2b21037bbb732b960711b60648201526084016109c4565b6001600160a01b0381163314611b495760405162461bcd60e51b815260206004820152603a60248201527f50726f706f7361626c654f776e61626c653a20746869732063616c6c206d757360448201527f74206265206d61646520627920746865206e6577206f776e657200000000000060648201526084016109c4565b61101b8161224f565b60ca5460408051633fc8cef360e01b815290516000926001600160a01b031691633fc8cef39160048083019260209291908290030181865afa158015611b9c573d6000803e3d6000fd5b505050506040513d601f19601f82011682018060405250810190611bc09190614dcf565b9050600060ca60009054906101000a90046001600160a01b03166001600160a01b031663fbfa77cf6040518163ffffffff1660e01b8152600401602060405180830381865afa158015611c17573d6000803e3d6000fd5b505050506040513d601f19601f82011682018060405250810190611c3b9190614dcf565b90506000611c588660cc60149054906101000a900460ff16611f7b565b90506001600160a01b0387166323b872dd3330611c75858b614e02565b6040516001600160e01b031960e086901b1681526001600160a01b03938416600482015292909116602483015260448201526064016020604051808303816000875af1158015611cc9573d6000803e3d6000fd5b505050506040513d601f19601f82011682018060405250810190611ced9190614dad565b611d315760405162461bcd60e51b8152602060048201526015602482015274151bdad95b881d1c985b9cd9995c8819985a5b1959605a1b60448201526064016109c4565b6000611d498885611d42858b614e02565b3089612be8565b60cc5490915060009061271090611d6a90600160a01b900460ff1684615040565b611d749190615057565b90506000611d828284614e2e565b60d15460405163a9059cbb60e01b81529192506001600160a01b038089169263a9059cbb92611db79216908690600401614d94565b6020604051808303816000875af1158015611dd6573d6000803e3d6000fd5b505050506040513d601f19601f82011682018060405250810190611dfa9190614dad565b5060cf8054906000611e0b83614e15565b909155505060cf8054600090815260d260205260408082206002018054336001600160a01b031991821617909155835483528183206003018d905592548252902060040180549091166001600160a01b038c16179055611e6c8a828a611f97565b50505050505050505050565b600054610100900460ff16611e9f5760405162461bcd60e51b81526004016109c490615301565b6001600160a01b038116611ec9576040516335fdcccd60e21b8152600060048201526024016109c4565b600080546001600160a01b03909216620100000262010000600160b01b0319909216919091179055565b600054610100900460ff16611f1a5760405162461bcd60e51b81526004016109c490615301565b610fd5612cfa565b600054610100900460ff16611f495760405162461bcd60e51b81526004016109c490615301565b610fd55b600054610100900460ff16611f745760405162461bcd60e51b81526004016109c490615301565b6001609855565b6000612710611f8d60ff841685615040565b6110a99190615057565b60ca5460408051631a521ec760e21b8152905184926000926001600160a01b03909116916369487b1c916004808201926020929091908290030181865afa158015611fe6573d6000803e3d6000fd5b505050506040513d601f19601f8201168201806040525081019061200a9190614d7b565b9050600060ca60009054906101000a90046001600160a01b03166001600160a01b031663b90b8a2a6040518163ffffffff1660e01b8152600401602060405180830381865afa158015612061573d6000803e3d6000fd5b505050506040513d601f19601f820116820180604052508101906120859190614d7b565b60ca546040516369fbf93360e11b8152600481018390529192506000916001600160a01b039091169063d3f7f26690602401600060405180830381865afa1580156120d4573d6000803e3d6000fd5b505050506040513d6000823e601f3d908101601f191682016040526120fc91908101906151a5565b935050505060005b838110156121eb576000828281518110612120576121206152c5565b602090810291909101015160ca5460405163b6ad185b60e01b81526001600160401b03831660048201529192506000916001600160a01b039091169063b6ad185b90602401602060405180830381865afa158015612182573d6000803e3d6000fd5b505050506040513d601f19601f820116820180604052508101906121a69190614d7b565b60ce549091506001600160401b03908116908316036121d3576121ce8760cf54838589612d2a565b6121e1565b6121e18760cf548488613354565b5050600101612104565b5050505050505050565b6033546001600160a01b03163314610fd55760405162461bcd60e51b815260206004820181905260248201527f4f776e61626c653a2063616c6c6572206973206e6f7420746865206f776e657260448201526064016109c4565b603380546001600160a01b038381166001600160a01b0319831681179093556040519116919082907f8be0079c531659141344cd1fd0a4f28419497f9722a3daafe3b4186f6b6457e090600090a35050565b805160208083015160ca54604080516329fea19960e11b8152905192936000936001600160a01b03909316926353fd43329260048082019392918290030181865afa1580156122f4573d6000803e3d6000fd5b505050506040513d601f19601f820116820180604052508101906123189190614d7b565b9050600080600080600080896060015180602001905181019061233b919061534c565b955095509550955095509550856000036123625761235d838684848b8e6137b6565b611e6c565b85600103611e6c57611e6c838b878a8c8e613911565b6040805160a081019091526001600160a01b03841660c082015260009081908060e0810160408051808303601f1901815291815290825260208083018890528151600080825291810183529290910191906123f5565b60408051808201909152600080825260208201528152602001906001900390816123ce5790505b508152602001600185600181111561240f5761240f61541d565b1461241b57600061241d565b885b6001600160a01b031681526020016124456040518060200160405280622dc6c0815250613a05565b90526040516320487ded60e01b81529091506000906001600160a01b038a16906320487ded9061247b908a908690600401615479565b602060405180830381865afa158015612498573d6000803e3d6000fd5b505050506040513d601f19601f820116820180604052508101906124bc9190614d7b565b9050600060018560018111156124d4576124d461541d565b03612551576040516396f4e9f960e01b81526001600160a01b038b16906396f4e9f990612507908b908790600401615479565b6020604051808303816000875af1158015612526573d6000803e3d6000fd5b505050506040513d601f19601f8201168201806040525081019061254a9190614d7b565b90506125c7565b6040516396f4e9f960e01b81526001600160a01b038b16906396f4e9f9908490612581908c908890600401615479565b60206040518083038185885af115801561259f573d6000803e3d6000fd5b50505050506040513d601f19601f820116820180604052508101906125c49190614d7b565b90505b9998505050505050505050565b60ca5460ce5460405163d1c68aa360e01b81526001600160401b0390911660048201526000916001600160a01b03169063d1c68aa390602401600060405180830381865afa15801561262a573d6000803e3d6000fd5b505050506040513d6000823e601f3d908101601f19168201604052612652919081019061554e565b9050600060ca60009054906101000a90046001600160a01b03166001600160a01b031663fbfa77cf6040518163ffffffff1660e01b8152600401602060405180830381865afa1580156126a9573d6000803e3d6000fd5b505050506040513d601f19601f820116820180604052508101906126cd9190614dcf565b905060005b83811015610b6b5760008382815181106126ee576126ee6152c5565b602090810291909101015160ca54604051633259966560e01b81526001600160a01b03808416600483015292935060009290911690633259966590602401602060405180830381865afa158015612749573d6000803e3d6000fd5b505050506040513d601f19601f8201168201806040525081019061276d9190614fb6565b90506000670de0b6b3a7640000836001600160a01b03166370a0823160ca60009054906101000a90046001600160a01b03166001600160a01b031663fbfa77cf6040518163ffffffff1660e01b8152600401602060405180830381865afa1580156127dc573d6000803e3d6000fd5b505050506040513d601f19601f820116820180604052508101906128009190614dcf565b6040516001600160e01b031960e084901b1681526001600160a01b039091166004820152602401602060405180830381865afa158015612844573d6000803e3d6000fd5b505050506040513d601f19601f820116820180604052508101906128689190614d7b565b612872908b615040565b61287c9190615057565b604051631c20fadd60e01b81526001600160a01b0385811660048301523060248301526044820183905291925090861690631c20fadd906064016020604051808303816000875af11580156128d5573d6000803e3d6000fd5b505050506040513d601f19601f820116820180604052508101906128f99190614dad565b5060ce546000906001600160a01b03858116600160401b909204161461293f5760ce5461293a908590600160401b90046001600160a01b0316843087612be8565b612941565b815b60008a815260d36020526040812080549293508392909190612964908490614e02565b9091555050600089815260d360205260408120600190810180549192909161298d908490614e02565b9091555050600190940193506126d292505050565b60006129ad82610bea565b60ca5460405163d1c68aa360e01b81526001600160401b03851660048201529192506000916001600160a01b039091169063d1c68aa390602401600060405180830381865afa158015612a04573d6000803e3d6000fd5b505050506040513d6000823e601f3d908101601f19168201604052612a2c919081019061554e565b60ca5460405163221f337160e01b81526001600160401b03861660048201529192506000916001600160a01b039091169063221f337190602401600060405180830381865afa158015612a83573d6000803e3d6000fd5b505050506040513d6000823e601f3d908101601f19168201604052612aab9190810190615582565b60ca54604051632bda5acd60e21b81526001600160401b03871660048201529192506000916001600160a01b039091169063af696b3490602401600060405180830381865afa158015612b02573d6000803e3d6000fd5b505050506040513d6000823e601f3d908101601f19168201604052612b2a9190810190615582565b6040805160008082526020808301828152600184860181815260808601909652959650929492939192906060860190803683370190505090508981600081518110612b7757612b776152c5565b60200260200101818152505060006001878588868e8a88604051602001612ba598979695949392919061562d565b60405160208183030381529060405290506000612bc58a8a8460016114c5565b60009b8c5260d36020526040909b206005019a909a555050505050505050505050565b60008060ca60009054906101000a90046001600160a01b03166001600160a01b031663b631e80b6040518163ffffffff1660e01b8152600401602060405180830381865afa158015612c3e573d6000803e3d6000fd5b505050506040513d601f19601f82011682018060405250810190612c629190614dcf565b9050600060ca60009054906101000a90046001600160a01b03166001600160a01b031663744fbc7a6040518163ffffffff1660e01b8152600401602060405180830381865afa158015612cb9573d6000803e3d6000fd5b505050506040513d601f19601f82011682018060405250810190612cdd9190614dcf565b9050612cee8282868b8b8b8b613a42565b98975050505050505050565b600054610100900460ff16612d215760405162461bcd60e51b81526004016109c490615301565b610fd53361224f565b60ca5460405163d1c68aa360e01b81526001600160401b03841660048201526000916001600160a01b03169063d1c68aa390602401600060405180830381865afa158015612d7c573d6000803e3d6000fd5b505050506040513d6000823e601f3d908101601f19168201604052612da4919081019061554e565b905060005b8481101561334b576000828281518110612dc557612dc56152c5565b602090810291909101015160ca54604051633259966560e01b81526001600160a01b03808416600483015292935060009290911690633259966590602401602060405180830381865afa158015612e20573d6000803e3d6000fd5b505050506040513d601f19601f82011682018060405250810190612e449190614fb6565b60ca54604051630be5271360e01b81526001600160a01b03858116600483015292935060009290911690630be5271390602401602060405180830381865afa158015612e94573d6000803e3d6000fd5b505050506040513d601f19601f82011682018060405250810190612eb89190614d7b565b60ce549091506000906001600160a01b03858116600160401b9092041614612ff057612feb6107248560ce60089054906101000a90046001600160a01b0316876001600160a01b03166370a0823160ca60009054906101000a90046001600160a01b03166001600160a01b031663fbfa77cf6040518163ffffffff1660e01b8152600401602060405180830381865afa158015612f59573d6000803e3d6000fd5b505050506040513d601f19601f82011682018060405250810190612f7d9190614dcf565b6040516001600160e01b031960e084901b1681526001600160a01b039091166004820152602401602060405180830381865afa158015612fc1573d6000803e3d6000fd5b505050506040513d601f19601f82011682018060405250810190612fe59190614d7b565b8761197a565b6130e1565b6130e1846001600160a01b03166370a0823160ca60009054906101000a90046001600160a01b03166001600160a01b031663fbfa77cf6040518163ffffffff1660e01b8152600401602060405180830381865afa158015613055573d6000803e3d6000fd5b505050506040513d601f19601f820116820180604052508101906130799190614dcf565b6040516001600160e01b031960e084901b1681526001600160a01b039091166004820152602401602060405180830381865afa1580156130bd573d6000803e3d6000fd5b505050506040513d601f19601f820116820180604052508101906107249190614d7b565b60008b815260d2602090815260408083206001600160a01b0389168452909152812082905590915068056bc75e2d6310000061311d848e615040565b6131279190615057565b60ce549091506001600160a01b03868116600160401b90920416146131e4576131de60ce60089054906101000a90046001600160a01b0316868360ca60009054906101000a90046001600160a01b03166001600160a01b031663fbfa77cf6040518163ffffffff1660e01b8152600401602060405180830381865afa1580156131b4573d6000803e3d6000fd5b505050506040513d601f19601f820116820180604052508101906131d89190614dcf565b88612be8565b506132c6565b60ce5460ca546040805163fbfa77cf60e01b815290516001600160a01b03600160401b90940484169363a9059cbb93169163fbfa77cf9160048083019260209291908290030181865afa15801561323f573d6000803e3d6000fd5b505050506040513d601f19601f820116820180604052508101906132639190614dcf565b836040518363ffffffff1660e01b8152600401613281929190614d94565b6020604051808303816000875af11580156132a0573d6000803e3d6000fd5b505050506040513d601f19601f820116820180604052508101906132c49190614dad565b505b6132e768056bc75e2d631000006132dd858f615040565b6107249190615057565b6132f19083614e02565b60008c815260d2602081815260408084206001600160a01b038b1685528083529084206001908101959095558f845291905282018054909190613335908490614e02565b909155505060019095019450612da99350505050565b50505050505050565b6133866040518060a0016040528060608152602001606081526020016060815260200160608152602001606081525090565b60ca54604051632a3ff8ad60e01b8152600481018490526001600160401b03851660248201526000916001600160a01b031690632a3ff8ad90604401602060405180830381865afa1580156133df573d6000803e3d6000fd5b505050506040513d601f19601f820116820180604052508101906134039190614d7b565b6040805160018082528183019092529192506000919060208083019080368337019050509050818160008151811061343d5761343d6152c5565b602090810291909101015260ce546000906134b490600160401b90046001600160a01b031661346b88610b73565b68056bc75e2d6310000085600081518110613488576134886152c5565b60200260200101518c61349b9190615040565b6134a59190615057565b306134af8b61101e565b612be8565b905060006134c187610bea565b60ca5460405163d1c68aa360e01b81526001600160401b038a1660048201529192506001600160a01b03169063d1c68aa390602401600060405180830381865afa158015613513573d6000803e3d6000fd5b505050506040513d6000823e601f3d908101601f1916820160405261353b919081019061554e565b855260ca5460405163221f337160e01b81526001600160401b03891660048201526001600160a01b039091169063221f337190602401600060405180830381865afa15801561358e573d6000803e3d6000fd5b505050506040513d6000823e601f3d908101601f191682016040526135b69190810190615582565b602086015260ca54604051632bda5acd60e21b81526001600160401b03891660048201526001600160a01b039091169063af696b3490602401600060405180830381865afa15801561360c573d6000803e3d6000fd5b505050506040513d6000823e601f3d908101601f191682016040526136349190810190615582565b60408681019190915280516000808252602080830184526060890192909252825181815280830184526080890152825160018082528185019094529092909182015b60408051808201909152600080825260208201528152602001906001900390816136765790505090506136a888610b73565b816000815181106136bb576136bb6152c5565b6020026020010151600001906001600160a01b031690816001600160a01b03168152505082816000815181106136f3576136f36152c5565b602002602001015160200181815250506000808760000151886060015189602001518a608001518e8c604001518b60405160200161373898979695949392919061562d565b604051602081830303815290604052905060006137598a8386866001613a7f565b90507f54791b38f3859327992a1ca0590ad3c0f08feba98d1a4f56ab0dca74d203392a8160405161378c91815260200190565b60405180910390a160cf54600090815260d260205260409020600501555050505050505050505050565b8560005b86518110156138ed5760008682815181106137d7576137d76152c5565b6020026020010151905060008683815181106137f5576137f56152c5565b602002602001015190508160d2600086815260200190815260200160002060000160008b868151811061382a5761382a6152c5565b60200260200101516001600160a01b03166001600160a01b03168152602001908152602001600020600001819055508060d2600086815260200190815260200160002060000160008b8681518110613884576138846152c5565b60200260200101516001600160a01b03166001600160a01b0316815260200190815260200160002060010181905550600160d2600086815260200190815260200160002060010160008282546138da9190614e02565b9091555050600190920191506137ba9050565b50600081815260d2602052604090206001015483900361334b5761334b8183613afa565b608085015180518791906000908290829061392e5761392e6152c5565b6020026020010151600001519050600082600081518110613951576139516152c5565b602002602001015160200151905060006139858360ce60089054906101000a90046001600160a01b03168430610bb8612be8565b600086815260d360205260408120805492935083929091906139a8908490614e02565b90915550508851600086815260d36020526040812060010180549091906139d0908490614e02565b9091555050600085815260d360205260409020600101548890036139f8576139f88587613ef0565b5050505050505050505050565b60408051915160248084019190915281518084039091018152604490920190526020810180516001600160e01b03166397a657c960e01b17905290565b600062ffffff861615613a6457613a5d8887878787876141f9565b9050613a74565b613a71878686868661434b565b90505b979650505050505050565b6000613a89614540565b6000805460cb54613ab3916001600160a01b03620100009091048116911660058a8a8a8a8a614599565b90507f54791b38f3859327992a1ca0590ad3c0f08feba98d1a4f56ab0dca74d203392a81604051613ae691815260200190565b60405180910390a190506114ec6001609855565b600080600060ca60009054906101000a90046001600160a01b03166001600160a01b03166353fd43326040518163ffffffff1660e01b8152600401602060405180830381865afa158015613b52573d6000803e3d6000fd5b505050506040513d601f19601f82011682018060405250810190613b769190614d7b565b905060005b81811015613c5f5760ca5460405163264cae9360e21b8152600481018390526000916001600160a01b031690639932ba4c90602401602060405180830381865afa158015613bcd573d6000803e3d6000fd5b505050506040513d601f19601f82011682018060405250810190613bf19190614dcf565b600088815260d2602090815260408083206001600160a01b0385168452909152902054909150613c219086614e02565b600088815260d2602090815260408083206001600160a01b0386168452909152902060010154909550613c549085614e02565b935050600101613b7b565b5060008060cc60009054906101000a90046001600160a01b03166001600160a01b03166318160ddd6040518163ffffffff1660e01b8152600401602060405180830381865afa158015613cb6573d6000803e3d6000fd5b505050506040513d601f19601f82011682018060405250810190613cda9190614d7b565b1115613df55760cc60009054906101000a90046001600160a01b03166001600160a01b03166318160ddd6040518163ffffffff1660e01b8152600401602060405180830381865afa158015613d33573d6000803e3d6000fd5b505050506040513d601f19601f82011682018060405250810190613d579190614d7b565b848460cc60009054906101000a90046001600160a01b03166001600160a01b03166318160ddd6040518163ffffffff1660e01b8152600401602060405180830381865afa158015613dac573d6000803e3d6000fd5b505050506040513d601f19601f82011682018060405250810190613dd09190614d7b565b613dda9190615040565b613de49190615057565b613dee9190614e2e565b9050613e03565b613e00836064615040565b90505b60cc54600087815260d26020526040908190206002015490516340c10f1960e01b81526001600160a01b03928316926340c10f1992613e49929116908590600401614d94565b600060405180830381600087803b158015613e6357600080fd5b505af1158015613e77573d6000803e3d6000fd5b505050600087815260d26020526040908190206002810154600482015460039092015492516001600160a01b0391821694508a938a937f4d3128af979c46a863cd489a3d0959d5d22181cdbdb1949b40cadfcdac0a1d3893613ee09391169190889042906152db565b60405180910390a4505050505050565b600082815260d3602052604081208054600282015460039092015460cc5491936001600160a01b039384169382169262ffffff600160a01b938490041692613f3e91879160ff910416611f7b565b60ce5460d15460405163a9059cbb60e01b81529293506001600160a01b03600160401b90920482169263a9059cbb92613f7d9216908590600401614d94565b6020604051808303816000875af1158015613f9c573d6000803e3d6000fd5b505050506040513d601f19601f82011682018060405250810190613fc09190614dad565b5060ce546001600160a01b03600160401b9091048116908416036141745760ce54600160401b90046001600160a01b0316632e1a7d4d6140008388614e2e565b6040518263ffffffff1660e01b815260040161401e91815260200190565b600060405180830381600087803b15801561403857600080fd5b505af115801561404c573d6000803e3d6000fd5b505050506000846001600160a01b031682876140689190614e2e565b604051600081818185875af1925050503d80600081146140a4576040519150601f19603f3d011682016040523d82523d6000602084013e6140a9565b606091505b50509050806141065760405162461bcd60e51b8152602060048201526024808201527f7472616e736665722065746820746f20746865207265717565737465722066616044820152631a5b195960e21b60648201526084016109c4565b600088815260d360205260409020600401546001600160a01b03861690899089907f476778ca38557db6dc935a57ece5bd93fbaca20183fadf86d7a1d2b85df65e01908890614155888d614e2e565b4260405161416694939291906152db565b60405180910390a45061334b565b60ce546000906141a090600160401b90046001600160a01b031685614199858a614e2e565b8887612be8565b9050846001600160a01b031688887f476778ca38557db6dc935a57ece5bd93fbaca20183fadf86d7a1d2b85df65e018760d360008e815260200190815260200160002060040154864260405161196894939291906152db565b60405163095ea7b360e01b81526000906001600160a01b0386169063095ea7b39061422a908a908790600401614d94565b6020604051808303816000875af1158015614249573d6000803e3d6000fd5b505050506040513d601f19601f8201168201806040525081019061426d9190614dad565b506000604051806101000160405280876001600160a01b03168152602001866001600160a01b031681526020018862ffffff168152602001846001600160a01b031681526020014261012c6142c29190614e02565b815260208101869052600060408083018290526060909201525163414bf38960e01b81529091506001600160a01b0389169063414bf389906143089084906004016156c2565b6020604051808303816000875af1158015614327573d6000803e3d6000fd5b505050506040513d601f19601f82011682018060405250810190612cee9190614d7b565b604080516002808252606082018352600092839291906020830190803683370190505090508581600081518110614384576143846152c5565b60200260200101906001600160a01b031690816001600160a01b03168152505084816001815181106143b8576143b86152c5565b6001600160a01b03928316602091820292909201015260405163d06ca61f60e01b815260009189169063d06ca61f906143f7908890869060040161573f565b600060405180830381865afa158015614414573d6000803e3d6000fd5b505050506040513d6000823e601f3d908101601f1916820160405261443c9190810190615582565b60405163095ea7b360e01b81529091506001600160a01b0388169063095ea7b39061446d908b908990600401614d94565b6020604051808303816000875af115801561448c573d6000803e3d6000fd5b505050506040513d601f19601f820116820180604052508101906144b09190614dad565b50604051635c11d79560e01b81526001600160a01b03891690635c11d795906144e690889060009087908a904290600401615758565b600060405180830381600087803b15801561450057600080fd5b505af1158015614514573d6000803e3d6000fd5b505050508060018151811061452b5761452b6152c5565b60200260200101519250505095945050505050565b6002609854036145925760405162461bcd60e51b815260206004820152601f60248201527f5265656e7472616e637947756172643a207265656e7472616e742063616c6c0060448201526064016109c4565b6002609855565b815160009061ffff88168111156146185760405162461bcd60e51b815260206004820152603760248201527f4d6178696d756d203520646966666572656e7420746f6b656e732063616e206260448201527f652073656e74207065722043434950204d65737361676500000000000000000060648201526084016109c4565b60005b8181101561470e57896001600160a01b031685828151811061463f5761463f6152c5565b6020026020010151600001516001600160a01b0316146147065784818151811061466b5761466b6152c5565b6020026020010151600001516001600160a01b031663095ea7b38c878481518110614698576146986152c5565b6020026020010151602001516040518363ffffffff1660e01b81526004016146c1929190614d94565b6020604051808303816000875af11580156146e0573d6000803e3d6000fd5b505050506040513d601f19601f820116820180604052508101906147049190614dad565b505b60010161461b565b506040805160a081019091526001600160a01b03861660c08201526000908060e0810160408051601f19818403018152918152908252602082018a9052810187905260600160018660018111156147675761476761541d565b14614773576000614775565b8b5b6001600160a01b0316815260200161479d6040518060200160405280622dc6c0815250613a05565b90526040516320487ded60e01b81529091506000906001600160a01b038d16906320487ded906147d3908c908690600401615479565b602060405180830381865afa1580156147f0573d6000803e3d6000fd5b505050506040513d601f19601f820116820180604052508101906148149190614d7b565b90506000600186600181111561482c5761482c61541d565b036148a9576040516396f4e9f960e01b81526001600160a01b038e16906396f4e9f99061485f908d908790600401615479565b6020604051808303816000875af115801561487e573d6000803e3d6000fd5b505050506040513d601f19601f820116820180604052508101906148a29190614d7b565b905061491f565b6040516396f4e9f960e01b81526001600160a01b038e16906396f4e9f99084906148d9908e908890600401615479565b60206040518083038185885af11580156148f7573d6000803e3d6000fd5b50505050506040513d601f19601f8201168201806040525081019061491c9190614d7b565b90505b9c9b505050505050505050505050565b60006020828403121561494157600080fd5b81356001600160e01b0319811681146110a957600080fd5b6001600160a01b038116811461101b57600080fd5b60008060006060848603121561498357600080fd5b833561498e81614959565b9250602084013561499e81614959565b915060408401356001600160801b03811681146149ba57600080fd5b809150509250925092565b6001600160401b038116811461101b57600080fd5b80356149e5816149c5565b919050565b600080600080600060a08688031215614a0257600080fd5b8535614a0d816149c5565b94506020860135614a1d81614959565b93506040860135614a2d81614959565b92506060860135614a3d81614959565b91506080860135614a4d81614959565b809150509295509295909350565b600060208284031215614a6d57600080fd5b81356110a9816149c5565b600060208284031215614a8a57600080fd5b5035919050565b60008060408385031215614aa457600080fd5b50508035926020909101359150565b600060208284031215614ac557600080fd5b813560ff811681146110a957600080fd5b600060208284031215614ae857600080fd5b81356001600160401b03811115614afe57600080fd5b820160a081850312156110a957600080fd5b600060208284031215614b2257600080fd5b81356110a981614959565b634e487b7160e01b600052604160045260246000fd5b604080519081016001600160401b0381118282101715614b6557614b65614b2d565b60405290565b60405160a081016001600160401b0381118282101715614b6557614b65614b2d565b604051601f8201601f191681016001600160401b0381118282101715614bb557614bb5614b2d565b604052919050565b600082601f830112614bce57600080fd5b81356001600160401b03811115614be757614be7614b2d565b614bfa601f8201601f1916602001614b8d565b818152846020838601011115614c0f57600080fd5b816020850160208301376000918101602001919091529392505050565b60008060008060808587031215614c4257600080fd5b8435614c4d816149c5565b93506020850135614c5d81614959565b925060408501356001600160401b03811115614c7857600080fd5b614c8487828801614bbd565b925050606085013560028110614c9957600080fd5b939692955090935050565b62ffffff8116811461101b57600080fd5b60008060008060808587031215614ccb57600080fd5b84359350602085013592506040850135614ce481614959565b91506060850135614c9981614ca4565b60008060008060808587031215614d0a57600080fd5b8435614d1581614959565b93506020850135614d2581614959565b9250604085013591506060850135614c9981614ca4565b60008060008060808587031215614d5257600080fd5b8435614d5d81614959565b935060208501359250604085013591506060850135614c9981614ca4565b600060208284031215614d8d57600080fd5b5051919050565b6001600160a01b03929092168252602082015260400190565b600060208284031215614dbf57600080fd5b815180151581146110a957600080fd5b600060208284031215614de157600080fd5b81516110a981614959565b634e487b7160e01b600052601160045260246000fd5b8082018082111561089857610898614dec565b600060018201614e2757614e27614dec565b5060010190565b8181038181111561089857610898614dec565b60006001600160401b03821115614e5a57614e5a614b2d565b5060051b60200190565b600082601f830112614e7557600080fd5b8135614e88614e8382614e41565b614b8d565b8082825260208201915060208360061b860101925085831115614eaa57600080fd5b602085015b83811015614ef65760408188031215614ec757600080fd5b614ecf614b43565b8135614eda81614959565b8152602082810135818301529084529290920191604001614eaf565b5095945050505050565b600060a08236031215614f1257600080fd5b614f1a614b6b565b82358152614f2a602084016149da565b602082015260408301356001600160401b03811115614f4857600080fd5b614f5436828601614bbd565b60408301525060608301356001600160401b03811115614f7357600080fd5b614f7f36828601614bbd565b60608301525060808301356001600160401b03811115614f9e57600080fd5b614faa36828601614e64565b60808301525092915050565b600060208284031215614fc857600080fd5b81516110a981614ca4565b600060208284031215614fe557600080fd5b81516110a9816149c5565b60208082526030908201527f50726f706f7361626c654f776e61626c653a206e6577206f776e65722069732060408201526f746865207a65726f206164647265737360801b606082015260800190565b808202811582820484141761089857610898614dec565b60008261507457634e487b7160e01b600052601260045260246000fd5b500490565b600082601f83011261508a57600080fd5b8151615098614e8382614e41565b8082825260208201915060208360051b8601019250858311156150ba57600080fd5b602085015b83811015614ef65780516150d281614959565b8352602092830192016150bf565b600082601f8301126150f157600080fd5b81516150ff614e8382614e41565b8082825260208201915060208360051b86010192508583111561512157600080fd5b602085015b83811015614ef6578051835260209283019201615126565b600082601f83011261514f57600080fd5b815161515d614e8382614e41565b8082825260208201915060208360051b86010192508583111561517f57600080fd5b602085015b83811015614ef6578051615197816149c5565b835260209283019201615184565b600080600080608085870312156151bb57600080fd5b84516001600160401b038111156151d157600080fd5b6151dd87828801615079565b94505060208501516001600160401b038111156151f957600080fd5b615205878288016150e0565b93505060408501516001600160401b0381111561522157600080fd5b8501601f8101871361523257600080fd5b8051615240614e8382614e41565b8082825260208201915060208360051b85010192508983111561526257600080fd5b6020840193505b8284101561528d57835161527c81614ca4565b825260209384019390910190615269565b8095505050505060608501516001600160401b038111156152ad57600080fd5b6152b98782880161513e565b91505092959194509250565b634e487b7160e01b600052603260045260246000fd5b6001600160a01b0394909416845260208401929092526040830152606082015260800190565b6020808252602b908201527f496e697469616c697a61626c653a20636f6e7472616374206973206e6f74206960408201526a6e697469616c697a696e6760a81b606082015260800190565b60008060008060008060c0878903121561536557600080fd5b865160208801519096506001600160401b0381111561538357600080fd5b61538f89828a01615079565b95505060408701516001600160401b038111156153ab57600080fd5b6153b789828a01615079565b606089015160808a0151919650945090506001600160401b038111156153dc57600080fd5b6153e889828a016150e0565b92505060a08701516001600160401b0381111561540457600080fd5b61541089828a016150e0565b9150509295509295509295565b634e487b7160e01b600052602160045260246000fd5b6000815180845260005b818110156154595760208185018101518683018201520161543d565b506000602082860101526020601f19601f83011685010191505092915050565b6001600160401b0383168152604060208201526000825160a060408401526154a460e0840182615433565b90506020840151603f198483030160608501526154c18282615433565b6040860151858203603f19016080870152805180835260209182019450600093509101905b8083101561551d57835180516001600160a01b031683526020908101518184015290930192600192909201916040909101906154e6565b5060608601516001600160a01b031660a08601526080860151858203603f190160c08701529250613a748184615433565b60006020828403121561556057600080fd5b81516001600160401b0381111561557657600080fd5b61092384828501615079565b60006020828403121561559457600080fd5b81516001600160401b038111156155aa57600080fd5b610923848285016150e0565b600081518084526020840193506020830160005b828110156155f15781516001600160a01b03168652602095860195909101906001016155ca565b5093949350505050565b600081518084526020840193506020830160005b828110156155f157815186526020958601959091019060010161560f565b60ff891681526101006020820152600061564b61010083018a6155b6565b828103604084015261565d818a6155b6565b9050828103606084015261567181896155fb565b9050828103608084015261568581886155fb565b90508560a084015282810360c084015261569f81866155fb565b905082810360e08401526156b381856155fb565b9b9a5050505050505050505050565b81516001600160a01b03908116825260208084015182169083015260408084015162ffffff169083015260608084015191821690830152610100820190506080830151608083015260a083015160a083015260c083015160c083015260e083015161573860e08401826001600160a01b03169052565b5092915050565b82815260406020820152600061092360408301846155b6565b85815284602082015260a06040820152600061577760a08301866155b6565b6001600160a01b039490941660608301525060800152939250505056fea26469706673582212208ae6249fb363757b7428dd51baa95fed3c9572ee8334885c7126dc013be343cc64736f6c634300081a0033","linkReferences":{}},"methodIdentifiers":{"MAX_FEE_RATE()":"92f6576e","MAX_TOKENS_LENGTH()":"d28c00fc","MIN_FEE_RATE()":"58c0f10d","MIN_FEE_UPDATE_INTERVAL()":"c9172ef7","ccipReceive((bytes32,uint64,bytes,bytes,(address,uint256)[]))":"85572ffb","convertEthToUsd(uint256)":"c086381e","crossChainFactoryBySelector(uint64)":"340fbc74","crossChainToken(uint64)":"19da7e2a","crossChainTokenSwapFee(uint64)":"9ff73f45","currentChainSelector()":"3d54cb6f","estimateAmountOut(address,address,uint128)":"0456f9c8","factoryStorage()":"c06e1ae2","feeRate()":"978bbdb9","feeReceiver()":"b3f00674","getAmountOut(address,address,uint256,uint24)":"dd811ac9","getPortfolioBalance()":"a8509fd8","getRouter()":"b0f479a1","i_link()":"7d253aff","indexToken()":"e7d015f2","initialize(uint64,address,address,address,address)":"16b487ff","issuanceData(uint256)":"2d6fc6b3","issuanceIndexTokens(address,uint256,uint256,uint24)":"fd485101","issuanceIndexTokensWithEth(uint256,uint256)":"41d11817","issuanceNonce()":"9dbb9c9e","latestFeeUpdate()":"011ced5f","owner()":"8da5cb5b","priceInWei()":"3c8da588","proposeOwner(address)":"b5ed298a","proposedOwner()":"d153b60c","redemption(uint256,uint256,address,uint24)":"d0586d71","redemptionData(uint256)":"aa4379c0","redemptionNonce()":"84d77bb1","renounceOwnership()":"715018a6","sendMessage(uint64,address,bytes,uint8)":"bcab90b3","setFeeRate(uint8)":"5177942a","setFeeReceiver(address)":"efdcd974","setIndexFactoryStorage(address)":"cc8659ae","supportsInterface(bytes4)":"01ffc9a7","transferOwnership(address)":"f2fde38b","weth()":"3fc8cef3"},"id":3}