{"abi":[{"type":"receive","stateMutability":"payable"},{"type":"function","name":"MAX_FEE_RATE","inputs":[],"outputs":[{"name":"","type":"uint8","internalType":"uint8"}],"stateMutability":"view"},{"type":"function","name":"MAX_TOKENS_LENGTH","inputs":[],"outputs":[{"name":"","type":"uint16","internalType":"uint16"}],"stateMutability":"view"},{"type":"function","name":"MIN_FEE_RATE","inputs":[],"outputs":[{"name":"","type":"uint8","internalType":"uint8"}],"stateMutability":"view"},{"type":"function","name":"MIN_FEE_UPDATE_INTERVAL","inputs":[],"outputs":[{"name":"","type":"uint256","internalType":"uint256"}],"stateMutability":"view"},{"type":"function","name":"ccipReceive","inputs":[{"name":"message","type":"tuple","internalType":"struct Client.Any2EVMMessage","components":[{"name":"messageId","type":"bytes32","internalType":"bytes32"},{"name":"sourceChainSelector","type":"uint64","internalType":"uint64"},{"name":"sender","type":"bytes","internalType":"bytes"},{"name":"data","type":"bytes","internalType":"bytes"},{"name":"destTokenAmounts","type":"tuple[]","internalType":"struct Client.EVMTokenAmount[]","components":[{"name":"token","type":"address","internalType":"address"},{"name":"amount","type":"uint256","internalType":"uint256"}]}]}],"outputs":[],"stateMutability":"nonpayable"},{"type":"function","name":"convertEthToUsd","inputs":[{"name":"_ethAmount","type":"uint256","internalType":"uint256"}],"outputs":[{"name":"","type":"uint256","internalType":"uint256"}],"stateMutability":"view"},{"type":"function","name":"crossChainFactoryBySelector","inputs":[{"name":"_chainSelector","type":"uint64","internalType":"uint64"}],"outputs":[{"name":"","type":"address","internalType":"address"}],"stateMutability":"view"},{"type":"function","name":"crossChainToken","inputs":[{"name":"_chainSelector","type":"uint64","internalType":"uint64"}],"outputs":[{"name":"","type":"address","internalType":"address"}],"stateMutability":"view"},{"type":"function","name":"crossChainTokenSwapFee","inputs":[{"name":"_chainSelector","type":"uint64","internalType":"uint64"}],"outputs":[{"name":"","type":"uint24","internalType":"uint24"}],"stateMutability":"view"},{"type":"function","name":"currentChainSelector","inputs":[],"outputs":[{"name":"","type":"uint64","internalType":"uint64"}],"stateMutability":"view"},{"type":"function","name":"estimateAmountOut","inputs":[{"name":"tokenIn","type":"address","internalType":"address"},{"name":"tokenOut","type":"address","internalType":"address"},{"name":"amountIn","type":"uint128","internalType":"uint128"},{"name":"fee","type":"uint24","internalType":"uint24"}],"outputs":[{"name":"amountOut","type":"uint256","internalType":"uint256"}],"stateMutability":"view"},{"type":"function","name":"factoryStorage","inputs":[],"outputs":[{"name":"","type":"address","internalType":"contract IndexFactoryStorage"}],"stateMutability":"view"},{"type":"function","name":"feeRate","inputs":[],"outputs":[{"name":"","type":"uint8","internalType":"uint8"}],"stateMutability":"view"},{"type":"function","name":"feeReceiver","inputs":[],"outputs":[{"name":"","type":"address","internalType":"address"}],"stateMutability":"view"},{"type":"function","name":"getAmountOut","inputs":[{"name":"tokenIn","type":"address","internalType":"address"},{"name":"tokenOut","type":"address","internalType":"address"},{"name":"amountIn","type":"uint256","internalType":"uint256"},{"name":"_swapFee","type":"uint24","internalType":"uint24"}],"outputs":[{"name":"finalAmountOut","type":"uint256","internalType":"uint256"}],"stateMutability":"view"},{"type":"function","name":"getPortfolioBalance","inputs":[],"outputs":[{"name":"","type":"uint256","internalType":"uint256"}],"stateMutability":"view"},{"type":"function","name":"getRouter","inputs":[],"outputs":[{"name":"","type":"address","internalType":"address"}],"stateMutability":"view"},{"type":"function","name":"i_link","inputs":[],"outputs":[{"name":"","type":"address","internalType":"address"}],"stateMutability":"view"},{"type":"function","name":"indexToken","inputs":[],"outputs":[{"name":"","type":"address","internalType":"contract IndexToken"}],"stateMutability":"view"},{"type":"function","name":"initialize","inputs":[{"name":"_currentChainSelector","type":"uint64","internalType":"uint64"},{"name":"_token","type":"address","internalType":"address payable"},{"name":"_chainlinkToken","type":"address","internalType":"address"},{"name":"_router","type":"address","internalType":"address"},{"name":"_weth","type":"address","internalType":"address"}],"outputs":[],"stateMutability":"nonpayable"},{"type":"function","name":"issuanceData","inputs":[{"name":"","type":"uint256","internalType":"uint256"}],"outputs":[{"name":"completedTokensCount","type":"uint256","internalType":"uint256"},{"name":"requester","type":"address","internalType":"address"},{"name":"inputAmount","type":"uint256","internalType":"uint256"},{"name":"inputToken","type":"address","internalType":"address"},{"name":"messageId","type":"bytes32","internalType":"bytes32"}],"stateMutability":"view"},{"type":"function","name":"issuanceIndexTokens","inputs":[{"name":"_tokenIn","type":"address","internalType":"address"},{"name":"_inputAmount","type":"uint256","internalType":"uint256"},{"name":"_crossChainFee","type":"uint256","internalType":"uint256"},{"name":"_tokenInSwapFee","type":"uint24","internalType":"uint24"}],"outputs":[],"stateMutability":"nonpayable"},{"type":"function","name":"issuanceIndexTokensWithEth","inputs":[{"name":"_inputAmount","type":"uint256","internalType":"uint256"},{"name":"_crossChainFee","type":"uint256","internalType":"uint256"}],"outputs":[],"stateMutability":"payable"},{"type":"function","name":"issuanceNonce","inputs":[],"outputs":[{"name":"","type":"uint256","internalType":"uint256"}],"stateMutability":"view"},{"type":"function","name":"latestFeeUpdate","inputs":[],"outputs":[{"name":"","type":"uint256","internalType":"uint256"}],"stateMutability":"view"},{"type":"function","name":"owner","inputs":[],"outputs":[{"name":"","type":"address","internalType":"address"}],"stateMutability":"view"},{"type":"function","name":"priceInWei","inputs":[],"outputs":[{"name":"","type":"uint256","internalType":"uint256"}],"stateMutability":"view"},{"type":"function","name":"proposeOwner","inputs":[{"name":"_proposedOwner","type":"address","internalType":"address"}],"outputs":[],"stateMutability":"nonpayable"},{"type":"function","name":"proposedOwner","inputs":[],"outputs":[{"name":"","type":"address","internalType":"address"}],"stateMutability":"view"},{"type":"function","name":"redemption","inputs":[{"name":"amountIn","type":"uint256","internalType":"uint256"},{"name":"_crossChainFee","type":"uint256","internalType":"uint256"},{"name":"_tokenOut","type":"address","internalType":"address"},{"name":"_tokenOutSwapFee","type":"uint24","internalType":"uint24"}],"outputs":[],"stateMutability":"nonpayable"},{"type":"function","name":"redemptionData","inputs":[{"name":"","type":"uint256","internalType":"uint256"}],"outputs":[{"name":"totalValue","type":"uint256","internalType":"uint256"},{"name":"completedTokensCount","type":"uint256","internalType":"uint256"},{"name":"requester","type":"address","internalType":"address"},{"name":"outputToken","type":"address","internalType":"address"},{"name":"outputTokenSwapFee","type":"uint24","internalType":"uint24"},{"name":"inputAmount","type":"uint256","internalType":"uint256"},{"name":"messageId","type":"bytes32","internalType":"bytes32"}],"stateMutability":"view"},{"type":"function","name":"redemptionNonce","inputs":[],"outputs":[{"name":"","type":"uint256","internalType":"uint256"}],"stateMutability":"view"},{"type":"function","name":"renounceOwnership","inputs":[],"outputs":[],"stateMutability":"nonpayable"},{"type":"function","name":"sendMessage","inputs":[{"name":"destinationChainSelector","type":"uint64","internalType":"uint64"},{"name":"receiver","type":"address","internalType":"address"},{"name":"_data","type":"bytes","internalType":"bytes"},{"name":"payFeesIn","type":"uint8","internalType":"enum MessageSender.PayFeesIn"}],"outputs":[{"name":"","type":"bytes32","internalType":"bytes32"}],"stateMutability":"nonpayable"},{"type":"function","name":"setFeeRate","inputs":[{"name":"_newFee","type":"uint8","internalType":"uint8"}],"outputs":[],"stateMutability":"nonpayable"},{"type":"function","name":"setFeeReceiver","inputs":[{"name":"_feeReceiver","type":"address","internalType":"address"}],"outputs":[],"stateMutability":"nonpayable"},{"type":"function","name":"setIndexFactoryStorage","inputs":[{"name":"_factoryStorage","type":"address","internalType":"address"}],"outputs":[],"stateMutability":"nonpayable"},{"type":"function","name":"supportsInterface","inputs":[{"name":"interfaceId","type":"bytes4","internalType":"bytes4"}],"outputs":[{"name":"","type":"bool","internalType":"bool"}],"stateMutability":"pure"},{"type":"function","name":"transferOwnership","inputs":[{"name":"newOwner","type":"address","internalType":"address"}],"outputs":[],"stateMutability":"nonpayable"},{"type":"function","name":"weth","inputs":[],"outputs":[{"name":"","type":"address","internalType":"contract IWETH"}],"stateMutability":"view"},{"type":"event","name":"Initialized","inputs":[{"name":"version","type":"uint8","indexed":false,"internalType":"uint8"}],"anonymous":false},{"type":"event","name":"Issuanced","inputs":[{"name":"messageId","type":"bytes32","indexed":true,"internalType":"bytes32"},{"name":"nonce","type":"uint256","indexed":true,"internalType":"uint256"},{"name":"user","type":"address","indexed":true,"internalType":"address"},{"name":"inputToken","type":"address","indexed":false,"internalType":"address"},{"name":"inputAmount","type":"uint256","indexed":false,"internalType":"uint256"},{"name":"outputAmount","type":"uint256","indexed":false,"internalType":"uint256"},{"name":"time","type":"uint256","indexed":false,"internalType":"uint256"}],"anonymous":false},{"type":"event","name":"MessageSent","inputs":[{"name":"messageId","type":"bytes32","indexed":false,"internalType":"bytes32"}],"anonymous":false},{"type":"event","name":"OwnershipTransferred","inputs":[{"name":"previousOwner","type":"address","indexed":true,"internalType":"address"},{"name":"newOwner","type":"address","indexed":true,"internalType":"address"}],"anonymous":false},{"type":"event","name":"Redemption","inputs":[{"name":"messageId","type":"bytes32","indexed":true,"internalType":"bytes32"},{"name":"nonce","type":"uint256","indexed":true,"internalType":"uint256"},{"name":"user","type":"address","indexed":true,"internalType":"address"},{"name":"outputToken","type":"address","indexed":false,"internalType":"address"},{"name":"inputAmount","type":"uint256","indexed":false,"internalType":"uint256"},{"name":"outputAmount","type":"uint256","indexed":false,"internalType":"uint256"},{"name":"time","type":"uint256","indexed":false,"internalType":"uint256"}],"anonymous":false},{"type":"event","name":"RequestIssuance","inputs":[{"name":"messageId","type":"bytes32","indexed":true,"internalType":"bytes32"},{"name":"nonce","type":"uint256","indexed":true,"internalType":"uint256"},{"name":"user","type":"address","indexed":true,"internalType":"address"},{"name":"inputToken","type":"address","indexed":false,"internalType":"address"},{"name":"inputAmount","type":"uint256","indexed":false,"internalType":"uint256"},{"name":"outputAmount","type":"uint256","indexed":false,"internalType":"uint256"},{"name":"time","type":"uint256","indexed":false,"internalType":"uint256"}],"anonymous":false},{"type":"event","name":"RequestRedemption","inputs":[{"name":"messageId","type":"bytes32","indexed":true,"internalType":"bytes32"},{"name":"nonce","type":"uint256","indexed":true,"internalType":"uint256"},{"name":"user","type":"address","indexed":true,"internalType":"address"},{"name":"outputToken","type":"address","indexed":false,"internalType":"address"},{"name":"inputAmount","type":"uint256","indexed":false,"internalType":"uint256"},{"name":"outputAmount","type":"uint256","indexed":false,"internalType":"uint256"},{"name":"time","type":"uint256","indexed":false,"internalType":"uint256"}],"anonymous":false},{"type":"error","name":"InvalidRouter","inputs":[{"name":"router","type":"address","internalType":"address"}]}],"bytecode":{"object":"0x6080604052348015600f57600080fd5b5061a04e8061001f6000396000f3fe60806040526004361061023f5760003560e01c80639ff73f451161012e578063cc8659ae116100ab578063e7d015f21161006f578063e7d015f2146108a9578063ee7bd3e2146108d4578063efdcd97414610911578063f2fde38b1461093a578063fd4851011461096357610246565b8063cc8659ae146107c4578063d0586d71146107ed578063d153b60c14610816578063d28c00fc14610841578063dd811ac91461086c57610246565b8063b5ed298a116100f2578063b5ed298a146106cb578063bcab90b3146106f4578063c06e1ae214610731578063c086381e1461075c578063c9172ef71461079957610246565b80639ff73f45146105ca578063a8509fd814610607578063aa4379c014610632578063b0f479a114610675578063b3f00674146106a057610246565b80635177942a116101bc57806385572ffb1161018057806385572ffb146104f55780638da5cb5b1461051e57806392f6576e14610549578063978bbdb9146105745780639dbb9c9e1461059f57610246565b80635177942a1461043457806358c0f10d1461045d578063715018a6146104885780637d253aff1461049f57806384d77bb1146104ca57610246565b8063340fbc7411610203578063340fbc741461035a5780633c8da588146103975780633d54cb6f146103c25780633fc8cef3146103ed57806341d118171461041857610246565b8063011ced5f1461024b57806301ffc9a71461027657806316b487ff146102b357806319da7e2a146102dc5780632d6fc6b31461031957610246565b3661024657005b600080fd5b34801561025757600080fd5b5061026061098c565b60405161026d9190616eba565b60405180910390f35b34801561028257600080fd5b5061029d60048036038101906102989190616f41565b610992565b6040516102aa9190616f89565b60405180910390f35b3480156102bf57600080fd5b506102da60048036038101906102d59190617080565b610a64565b005b3480156102e857600080fd5b5061030360048036038101906102fe91906170fb565b610efc565b6040516103109190617137565b60405180910390f35b34801561032557600080fd5b50610340600480360381019061033b919061717e565b610fa1565b6040516103519594939291906171c4565b60405180910390f35b34801561036657600080fd5b50610381600480360381019061037c91906170fb565b611017565b60405161038e9190617137565b60405180910390f35b3480156103a357600080fd5b506103ac6110bc565b6040516103b99190616eba565b60405180910390f35b3480156103ce57600080fd5b506103d7611154565b6040516103e49190617226565b60405180910390f35b3480156103f957600080fd5b5061040261116e565b60405161040f91906172a0565b60405180910390f35b610432600480360381019061042d91906172bb565b611194565b005b34801561044057600080fd5b5061045b60048036038101906104569190617334565b611595565b005b34801561046957600080fd5b50610472611671565b60405161047f9190617370565b60405180910390f35b34801561049457600080fd5b5061049d611676565b005b3480156104ab57600080fd5b506104b461168a565b6040516104c19190617137565b60405180910390f35b3480156104d657600080fd5b506104df6116b0565b6040516104ec9190616eba565b60405180910390f35b34801561050157600080fd5b5061051c600480360381019061051791906173af565b6116b6565b005b34801561052a57600080fd5b5061053361175d565b6040516105409190617137565b60405180910390f35b34801561055557600080fd5b5061055e611787565b60405161056b9190617370565b60405180910390f35b34801561058057600080fd5b5061058961178c565b6040516105969190617370565b60405180910390f35b3480156105ab57600080fd5b506105b461179f565b6040516105c19190616eba565b60405180910390f35b3480156105d657600080fd5b506105f160048036038101906105ec91906170fb565b6117a5565b6040516105fe9190617416565b60405180910390f35b34801561061357600080fd5b5061061c611859565b6040516106299190616eba565b60405180910390f35b34801561063e57600080fd5b506106596004803603810190610654919061717e565b611d9d565b60405161066c9796959493929190617431565b60405180910390f35b34801561068157600080fd5b5061068a611e2e565b6040516106979190617137565b60405180910390f35b3480156106ac57600080fd5b506106b5611e57565b6040516106c29190617137565b60405180910390f35b3480156106d757600080fd5b506106f260048036038101906106ed91906174a0565b611e7d565b005b34801561070057600080fd5b5061071b60048036038101906107169190617638565b611f38565b60405161072891906176bb565b60405180910390f35b34801561073d57600080fd5b50610746612095565b60405161075391906176f7565b60405180910390f35b34801561076857600080fd5b50610783600480360381019061077e919061717e565b6120bb565b6040516107909190616eba565b60405180910390f35b3480156107a557600080fd5b506107ae6120ea565b6040516107bb9190616eba565b60405180910390f35b3480156107d057600080fd5b506107eb60048036038101906107e691906174a0565b6120f0565b005b3480156107f957600080fd5b50610814600480360381019061080f919061773e565b61213c565b005b34801561082257600080fd5b5061082b61284e565b6040516108389190617137565b60405180910390f35b34801561084d57600080fd5b50610856612874565b60405161086391906177c2565b60405180910390f35b34801561087857600080fd5b50610893600480360381019061088e91906177dd565b612879565b6040516108a09190616eba565b60405180910390f35b3480156108b557600080fd5b506108be612927565b6040516108cb9190617877565b60405180910390f35b3480156108e057600080fd5b506108fb60048036038101906108f691906178da565b61294d565b6040516109089190616eba565b60405180910390f35b34801561091d57600080fd5b50610938600480360381019061093391906174a0565b6129fb565b005b34801561094657600080fd5b50610961600480360381019061095c91906174a0565b612a47565b005b34801561096f57600080fd5b5061098a60048036038101906109859190617941565b612bc0565b005b60cd5481565b60007f85572ffb000000000000000000000000000000000000000000000000000000007bffffffffffffffffffffffffffffffffffffffffffffffffffffffff1916827bffffffffffffffffffffffffffffffffffffffffffffffffffffffff19161480610a5d57507f01ffc9a7000000000000000000000000000000000000000000000000000000007bffffffffffffffffffffffffffffffffffffffffffffffffffffffff1916827bffffffffffffffffffffffffffffffffffffffffffffffffffffffff1916145b9050919050565b60008060019054906101000a900460ff16159050808015610a955750600160008054906101000a900460ff1660ff16105b80610ac25750610aa430613143565b158015610ac15750600160008054906101000a900460ff1660ff16145b5b610b01576040517f08c379a0000000000000000000000000000000000000000000000000000000008152600401610af890617a2b565b60405180910390fd5b60016000806101000a81548160ff021916908360ff1602179055508015610b3e576001600060016101000a81548160ff0219169083151502179055505b60008667ffffffffffffffff1611610b8b576040517f08c379a0000000000000000000000000000000000000000000000000000000008152600401610b8290617a97565b60405180910390fd5b600073ffffffffffffffffffffffffffffffffffffffff168573ffffffffffffffffffffffffffffffffffffffff1603610bfa576040517f08c379a0000000000000000000000000000000000000000000000000000000008152600401610bf190617b03565b60405180910390fd5b600073ffffffffffffffffffffffffffffffffffffffff168473ffffffffffffffffffffffffffffffffffffffff1603610c69576040517f08c379a0000000000000000000000000000000000000000000000000000000008152600401610c6090617b6f565b60405180910390fd5b610c7283613166565b610c7a61326b565b610c826132c4565b610c8a61331d565b8560ce60006101000a81548167ffffffffffffffff021916908367ffffffffffffffff1602179055508460cc60006101000a81548173ffffffffffffffffffffffffffffffffffffffff021916908373ffffffffffffffffffffffffffffffffffffffff1602179055508360cb60006101000a81548173ffffffffffffffffffffffffffffffffffffffff021916908373ffffffffffffffffffffffffffffffffffffffff1602179055508373ffffffffffffffffffffffffffffffffffffffff1663095ea7b3600060029054906101000a900473ffffffffffffffffffffffffffffffffffffffff167fffffffffffffffffffffffffffffffffffffffffffffffffffffffffffffffff6040518363ffffffff1660e01b8152600401610db2929190617b8f565b6020604051808303816000875af1158015610dd1573d6000803e3d6000fd5b505050506040513d601f19601f82011682018060405250810190610df59190617be4565b508160ce60086101000a81548173ffffffffffffffffffffffffffffffffffffffff021916908373ffffffffffffffffffffffffffffffffffffffff160217905550600a60cc60146101000a81548160ff021916908360ff1602179055504260cd819055503360d160006101000a81548173ffffffffffffffffffffffffffffffffffffffff021916908373ffffffffffffffffffffffffffffffffffffffff1602179055508015610ef45760008060016101000a81548160ff0219169083151502179055507f7f26b83ff96e1f2b6a682f133852f6798a09c465da95921460cefb38474024986001604051610eeb9190617c4c565b60405180910390a15b505050505050565b600060ca60009054906101000a900473ffffffffffffffffffffffffffffffffffffffff1673ffffffffffffffffffffffffffffffffffffffff166319da7e2a836040518263ffffffff1660e01b8152600401610f599190617226565b602060405180830381865afa158015610f76573d6000803e3d6000fd5b505050506040513d601f19601f82011682018060405250810190610f9a9190617c7c565b9050919050565b60d26020528060005260406000206000915090508060010154908060020160009054906101000a900473ffffffffffffffffffffffffffffffffffffffff16908060030154908060040160009054906101000a900473ffffffffffffffffffffffffffffffffffffffff16908060050154905085565b600060ca60009054906101000a900473ffffffffffffffffffffffffffffffffffffffff1673ffffffffffffffffffffffffffffffffffffffff1663340fbc74836040518263ffffffff1660e01b81526004016110749190617226565b602060405180830381865afa158015611091573d6000803e3d6000fd5b505050506040513d601f19601f820116820180604052508101906110b59190617c7c565b9050919050565b600060ca60009054906101000a900473ffffffffffffffffffffffffffffffffffffffff1673ffffffffffffffffffffffffffffffffffffffff16633c8da5886040518163ffffffff1660e01b8152600401602060405180830381865afa15801561112b573d6000803e3d6000fd5b505050506040513d601f19601f8201168201806040525081019061114f9190617cbe565b905090565b60ce60009054906101000a900467ffffffffffffffff1681565b60ce60089054906101000a900473ffffffffffffffffffffffffffffffffffffffff1681565b600082116111d7576040517f08c379a00000000000000000000000000000000000000000000000000000000081526004016111ce90617d5d565b60405180910390fd5b600081101561121b576040517f08c379a000000000000000000000000000000000000000000000000000000000815260040161121290617def565b60405180910390fd5b8134101561125e576040517f08c379a000000000000000000000000000000000000000000000000000000000815260040161125590617e5b565b60405180910390fd5b60006112798360cc60149054906101000a900460ff16613376565b9050600082828561128a9190617eaa565b6112949190617eaa565b9050803410156112d9576040517f08c379a00000000000000000000000000000000000000000000000000000000081526004016112d090617f2a565b60405180910390fd5b60ce60089054906101000a900473ffffffffffffffffffffffffffffffffffffffff1673ffffffffffffffffffffffffffffffffffffffff1663d0e30db0826040518263ffffffff1660e01b81526004016000604051808303818588803b15801561134357600080fd5b505af1158015611357573d6000803e3d6000fd5b505050505060ce60089054906101000a900473ffffffffffffffffffffffffffffffffffffffff1673ffffffffffffffffffffffffffffffffffffffff1663a9059cbb60d160009054906101000a900473ffffffffffffffffffffffffffffffffffffffff16846040518363ffffffff1660e01b81526004016113db929190617b8f565b6020604051808303816000875af11580156113fa573d6000803e3d6000fd5b505050506040513d601f19601f8201168201806040525081019061141e9190617be4565b61145d576040517f08c379a000000000000000000000000000000000000000000000000000000000815260040161145490617f96565b60405180910390fd5b60cf600081548092919061147090617fb6565b91905055503360d2600060cf54815260200190815260200160002060020160006101000a81548173ffffffffffffffffffffffffffffffffffffffff021916908373ffffffffffffffffffffffffffffffffffffffff1602179055508360d2600060cf5481526020019081526020016000206003018190555060ce60089054906101000a900473ffffffffffffffffffffffffffffffffffffffff1660d2600060cf54815260200190815260200160002060040160006101000a81548173ffffffffffffffffffffffffffffffffffffffff021916908373ffffffffffffffffffffffffffffffffffffffff16021790555061158f60ce60089054906101000a900473ffffffffffffffffffffffffffffffffffffffff16858561339c565b50505050565b61159d613733565b61a8c060cd54426115ae9190617ffe565b10156115ef576040517f08c379a00000000000000000000000000000000000000000000000000000000081526004016115e6906180a4565b60405180910390fd5b606460ff168160ff161115801561160d5750600160ff168160ff1610155b61164c576040517f08c379a000000000000000000000000000000000000000000000000000000000815260040161164390618136565b60405180910390fd5b8060cc60146101000a81548160ff021916908360ff1602179055504260cd8190555050565b600181565b61167e613733565b61168860006137b1565b565b60cb60009054906101000a900473ffffffffffffffffffffffffffffffffffffffff1681565b60d05481565b600060029054906101000a900473ffffffffffffffffffffffffffffffffffffffff1673ffffffffffffffffffffffffffffffffffffffff163373ffffffffffffffffffffffffffffffffffffffff161461174857336040517fd7f7333400000000000000000000000000000000000000000000000000000000815260040161173f9190617137565b60405180910390fd5b61175a8161175590618384565b613877565b50565b6000603360009054906101000a900473ffffffffffffffffffffffffffffffffffffffff16905090565b606481565b60cc60149054906101000a900460ff1681565b60cf5481565b6000806117b183610efc565b905060ca60009054906101000a900473ffffffffffffffffffffffffffffffffffffffff1673ffffffffffffffffffffffffffffffffffffffff1663652354ae84836040518363ffffffff1660e01b8152600401611810929190618397565b602060405180830381865afa15801561182d573d6000803e3d6000fd5b505050506040513d601f19601f8201168201806040525081019061185191906183d5565b915050919050565b600080600060ca60009054906101000a900473ffffffffffffffffffffffffffffffffffffffff1673ffffffffffffffffffffffffffffffffffffffff166353fd43326040518163ffffffff1660e01b8152600401602060405180830381865afa1580156118cb573d6000803e3d6000fd5b505050506040513d601f19601f820116820180604052508101906118ef9190617cbe565b905060005b81811015611d9457600060ca60009054906101000a900473ffffffffffffffffffffffffffffffffffffffff1673ffffffffffffffffffffffffffffffffffffffff16639932ba4c836040518263ffffffff1660e01b81526004016119599190616eba565b602060405180830381865afa158015611976573d6000803e3d6000fd5b505050506040513d601f19601f8201168201806040525081019061199a9190617c7c565b9050600060ca60009054906101000a900473ffffffffffffffffffffffffffffffffffffffff1673ffffffffffffffffffffffffffffffffffffffff1663ea8ecf04836040518263ffffffff1660e01b81526004016119f99190617137565b602060405180830381865afa158015611a16573d6000803e3d6000fd5b505050506040513d601f19601f82011682018060405250810190611a3a9190618417565b9050600060ca60009054906101000a900473ffffffffffffffffffffffffffffffffffffffff1673ffffffffffffffffffffffffffffffffffffffff166332599665846040518263ffffffff1660e01b8152600401611a999190617137565b602060405180830381865afa158015611ab6573d6000803e3d6000fd5b505050506040513d601f19601f82011682018060405250810190611ada91906183d5565b905060ce60009054906101000a900467ffffffffffffffff1667ffffffffffffffff168267ffffffffffffffff1603611d845760ce60089054906101000a900473ffffffffffffffffffffffffffffffffffffffff1673ffffffffffffffffffffffffffffffffffffffff168373ffffffffffffffffffffffffffffffffffffffff1603611c10578273ffffffffffffffffffffffffffffffffffffffff166370a0823160cc60009054906101000a900473ffffffffffffffffffffffffffffffffffffffff166040518263ffffffff1660e01b8152600401611bbd9190617137565b602060405180830381865afa158015611bda573d6000803e3d6000fd5b505050506040513d601f19601f82011682018060405250810190611bfe9190617cbe565b86611c099190617eaa565b9550611d83565b600060ca60009054906101000a900473ffffffffffffffffffffffffffffffffffffffff1673ffffffffffffffffffffffffffffffffffffffff1663dd811ac98560ce60089054906101000a900473ffffffffffffffffffffffffffffffffffffffff168773ffffffffffffffffffffffffffffffffffffffff166370a0823160cc60009054906101000a900473ffffffffffffffffffffffffffffffffffffffff166040518263ffffffff1660e01b8152600401611ccf9190617137565b602060405180830381865afa158015611cec573d6000803e3d6000fd5b505050506040513d601f19601f82011682018060405250810190611d109190617cbe565b866040518563ffffffff1660e01b8152600401611d309493929190618444565b602060405180830381865afa158015611d4d573d6000803e3d6000fd5b505050506040513d601f19601f82011682018060405250810190611d719190617cbe565b90508087611d7f9190617eaa565b9650505b5b50505080806001019150506118f4565b50819250505090565b60d36020528060005260406000206000915090508060000154908060010154908060020160009054906101000a900473ffffffffffffffffffffffffffffffffffffffff16908060030160009054906101000a900473ffffffffffffffffffffffffffffffffffffffff16908060030160149054906101000a900462ffffff16908060040154908060050154905087565b60008060029054906101000a900473ffffffffffffffffffffffffffffffffffffffff16905090565b60d160009054906101000a900473ffffffffffffffffffffffffffffffffffffffff1681565b611e85613733565b600073ffffffffffffffffffffffffffffffffffffffff168173ffffffffffffffffffffffffffffffffffffffff1603611ef4576040517f08c379a0000000000000000000000000000000000000000000000000000000008152600401611eeb906184fb565b60405180910390fd5b80606560006101000a81548173ffffffffffffffffffffffffffffffffffffffff021916908373ffffffffffffffffffffffffffffffffffffffff16021790555050565b6000808567ffffffffffffffff1611611f86576040517f08c379a0000000000000000000000000000000000000000000000000000000008152600401611f7d9061858d565b60405180910390fd5b600073ffffffffffffffffffffffffffffffffffffffff168473ffffffffffffffffffffffffffffffffffffffff1603611ff5576040517f08c379a0000000000000000000000000000000000000000000000000000000008152600401611fec906185f9565b60405180910390fd5b6000835111612039576040517f08c379a000000000000000000000000000000000000000000000000000000000815260040161203090618665565b60405180910390fd5b61208b600060029054906101000a900473ffffffffffffffffffffffffffffffffffffffff1660cb60009054906101000a900473ffffffffffffffffffffffffffffffffffffffff168787878761398a565b9050949350505050565b60ca60009054906101000a900473ffffffffffffffffffffffffffffffffffffffff1681565b6000670de0b6b3a76400006120ce6110bc565b836120d99190618685565b6120e391906186f6565b9050919050565b61a8c081565b6120f8613733565b8060ca60006101000a81548173ffffffffffffffffffffffffffffffffffffffff021916908373ffffffffffffffffffffffffffffffffffffffff16021790555050565b6000841161217f576040517f08c379a000000000000000000000000000000000000000000000000000000000815260040161217690618773565b60405180910390fd5b60008310156121c3576040517f08c379a00000000000000000000000000000000000000000000000000000000081526004016121ba90617def565b60405180910390fd5b600073ffffffffffffffffffffffffffffffffffffffff168273ffffffffffffffffffffffffffffffffffffffff1603612232576040517f08c379a0000000000000000000000000000000000000000000000000000000008152600401612229906187df565b60405180910390fd5b60008162ffffff161161227a576040517f08c379a00000000000000000000000000000000000000000000000000000000081526004016122719061884b565b60405180910390fd5b600060cc60009054906101000a900473ffffffffffffffffffffffffffffffffffffffff1673ffffffffffffffffffffffffffffffffffffffff166318160ddd6040518163ffffffff1660e01b8152600401602060405180830381865afa1580156122e9573d6000803e3d6000fd5b505050506040513d601f19601f8201168201806040525081019061230d9190617cbe565b670de0b6b3a7640000866123219190618685565b61232b91906186f6565b9050600160d060008282546123409190617eaa565b925050819055503360d3600060d054815260200190815260200160002060020160006101000a81548173ffffffffffffffffffffffffffffffffffffffff021916908373ffffffffffffffffffffffffffffffffffffffff1602179055508260d3600060d054815260200190815260200160002060030160006101000a81548173ffffffffffffffffffffffffffffffffffffffff021916908373ffffffffffffffffffffffffffffffffffffffff1602179055508160d3600060d054815260200190815260200160002060030160146101000a81548162ffffff021916908362ffffff1602179055508460d3600060d05481526020019081526020016000206004018190555060cc60009054906101000a900473ffffffffffffffffffffffffffffffffffffffff1673ffffffffffffffffffffffffffffffffffffffff16639dc29fac33876040518363ffffffff1660e01b81526004016124a4929190617b8f565b600060405180830381600087803b1580156124be57600080fd5b505af11580156124d2573d6000803e3d6000fd5b50505050600060ca60009054906101000a900473ffffffffffffffffffffffffffffffffffffffff1673ffffffffffffffffffffffffffffffffffffffff166369487b1c6040518163ffffffff1660e01b8152600401602060405180830381865afa158015612545573d6000803e3d6000fd5b505050506040513d601f19601f820116820180604052508101906125699190617cbe565b9050600060ca60009054906101000a900473ffffffffffffffffffffffffffffffffffffffff1673ffffffffffffffffffffffffffffffffffffffff1663b90b8a2a6040518163ffffffff1660e01b8152600401602060405180830381865afa1580156125da573d6000803e3d6000fd5b505050506040513d601f19601f820116820180604052508101906125fe9190617cbe565b9050600060ca60009054906101000a900473ffffffffffffffffffffffffffffffffffffffff1673ffffffffffffffffffffffffffffffffffffffff1663d3f7f266836040518263ffffffff1660e01b815260040161265d9190616eba565b600060405180830381865afa15801561267a573d6000803e3d6000fd5b505050506040513d6000823e3d601f19601f820116820180604052508101906126a39190618b77565b935050505060005b838110156127d25760008282815181106126c8576126c7618c4e565b5b60200260200101519050600060ca60009054906101000a900473ffffffffffffffffffffffffffffffffffffffff1673ffffffffffffffffffffffffffffffffffffffff1663b6ad185b836040518263ffffffff1660e01b815260040161272f9190617226565b602060405180830381865afa15801561274c573d6000803e3d6000fd5b505050506040513d601f19601f820116820180604052508101906127709190617cbe565b905060ce60009054906101000a900467ffffffffffffffff1667ffffffffffffffff168267ffffffffffffffff16036127b5576127b08760d05483613e2d565b6127c3565b6127c28760d054846142f7565b5b505080806001019150506126ab565b503373ffffffffffffffffffffffffffffffffffffffff1660d05460d3600060d0548152602001908152602001600020600501547f4f9e9bfb3670784096375593cb821e86bd88b1fcb08efc38330012d8c33c3e36898c60004260405161283c9493929190618cb8565b60405180910390a45050505050505050565b606560009054906101000a900473ffffffffffffffffffffffffffffffffffffffff1681565b600581565b600060ca60009054906101000a900473ffffffffffffffffffffffffffffffffffffffff1673ffffffffffffffffffffffffffffffffffffffff1663dd811ac9868686866040518563ffffffff1660e01b81526004016128dc9493929190618444565b602060405180830381865afa1580156128f9573d6000803e3d6000fd5b505050506040513d601f19601f8201168201806040525081019061291d9190617cbe565b9050949350505050565b60cc60009054906101000a900473ffffffffffffffffffffffffffffffffffffffff1681565b600060ca60009054906101000a900473ffffffffffffffffffffffffffffffffffffffff1673ffffffffffffffffffffffffffffffffffffffff1663ee7bd3e2868686866040518563ffffffff1660e01b81526004016129b09493929190618d0c565b602060405180830381865afa1580156129cd573d6000803e3d6000fd5b505050506040513d601f19601f820116820180604052508101906129f19190617cbe565b9050949350505050565b612a03613733565b8060d160006101000a81548173ffffffffffffffffffffffffffffffffffffffff021916908373ffffffffffffffffffffffffffffffffffffffff16021790555050565b600073ffffffffffffffffffffffffffffffffffffffff168173ffffffffffffffffffffffffffffffffffffffff1603612ab6576040517f08c379a0000000000000000000000000000000000000000000000000000000008152600401612aad906184fb565b60405180910390fd5b606560009054906101000a900473ffffffffffffffffffffffffffffffffffffffff1673ffffffffffffffffffffffffffffffffffffffff168173ffffffffffffffffffffffffffffffffffffffff1614612b46576040517f08c379a0000000000000000000000000000000000000000000000000000000008152600401612b3d90618dc3565b60405180910390fd5b3373ffffffffffffffffffffffffffffffffffffffff168173ffffffffffffffffffffffffffffffffffffffff1614612bb4576040517f08c379a0000000000000000000000000000000000000000000000000000000008152600401612bab90618e55565b60405180910390fd5b612bbd816137b1565b50565b600073ffffffffffffffffffffffffffffffffffffffff168473ffffffffffffffffffffffffffffffffffffffff1603612c2f576040517f08c379a0000000000000000000000000000000000000000000000000000000008152600401612c2690618ec1565b60405180910390fd5b60008311612c72576040517f08c379a0000000000000000000000000000000000000000000000000000000008152600401612c6990617d5d565b60405180910390fd5b6000821015612cb6576040517f08c379a0000000000000000000000000000000000000000000000000000000008152600401612cad90617def565b60405180910390fd5b60008162ffffff1611612cfe576040517f08c379a0000000000000000000000000000000000000000000000000000000008152600401612cf590618f2d565b60405180910390fd5b600060ca60009054906101000a900473ffffffffffffffffffffffffffffffffffffffff1673ffffffffffffffffffffffffffffffffffffffff16633fc8cef36040518163ffffffff1660e01b8152600401602060405180830381865afa158015612d6d573d6000803e3d6000fd5b505050506040513d601f19601f82011682018060405250810190612d919190618f8b565b9050600060ca60009054906101000a900473ffffffffffffffffffffffffffffffffffffffff1673ffffffffffffffffffffffffffffffffffffffff1663fbfa77cf6040518163ffffffff1660e01b8152600401602060405180830381865afa158015612e02573d6000803e3d6000fd5b505050506040513d601f19601f82011682018060405250810190612e269190618ff6565b90506000612e438660cc60149054906101000a900460ff16613376565b905060cf6000815480929190612e5890617fb6565b91905055503360d2600060cf54815260200190815260200160002060020160006101000a81548173ffffffffffffffffffffffffffffffffffffffff021916908373ffffffffffffffffffffffffffffffffffffffff1602179055508560d2600060cf548152602001908152602001600020600301819055508660d2600060cf54815260200190815260200160002060040160006101000a81548173ffffffffffffffffffffffffffffffffffffffff021916908373ffffffffffffffffffffffffffffffffffffffff1602179055508673ffffffffffffffffffffffffffffffffffffffff166323b872dd3330848a612f529190617eaa565b6040518463ffffffff1660e01b8152600401612f7093929190619023565b6020604051808303816000875af1158015612f8f573d6000803e3d6000fd5b505050506040513d601f19601f82011682018060405250810190612fb39190617be4565b612ff2576040517f08c379a0000000000000000000000000000000000000000000000000000000008152600401612fe9906190a6565b60405180910390fd5b600061300c8885848a6130059190617eaa565b3089614669565b9050600061271060cc60149054906101000a900460ff1660ff16836130319190618685565b61303b91906186f6565b90506000818361304b9190617ffe565b90508573ffffffffffffffffffffffffffffffffffffffff1663a9059cbb60d160009054906101000a900473ffffffffffffffffffffffffffffffffffffffff16846040518363ffffffff1660e01b81526004016130aa929190617b8f565b6020604051808303816000875af11580156130c9573d6000803e3d6000fd5b505050506040513d601f19601f820116820180604052508101906130ed9190617be4565b61312c576040517f08c379a000000000000000000000000000000000000000000000000000000000815260040161312390617f96565b60405180910390fd5b6131378a828a61339c565b50505050505050505050565b6000808273ffffffffffffffffffffffffffffffffffffffff163b119050919050565b600060019054906101000a900460ff166131b5576040517f08c379a00000000000000000000000000000000000000000000000000000000081526004016131ac90619138565b60405180910390fd5b600073ffffffffffffffffffffffffffffffffffffffff168173ffffffffffffffffffffffffffffffffffffffff16036132275760006040517fd7f7333400000000000000000000000000000000000000000000000000000000815260040161321e9190617137565b60405180910390fd5b80600060026101000a81548173ffffffffffffffffffffffffffffffffffffffff021916908373ffffffffffffffffffffffffffffffffffffffff16021790555050565b600060019054906101000a900460ff166132ba576040517f08c379a00000000000000000000000000000000000000000000000000000000081526004016132b190619138565b60405180910390fd5b6132c26147b0565b565b600060019054906101000a900460ff16613313576040517f08c379a000000000000000000000000000000000000000000000000000000000815260040161330a90619138565b60405180910390fd5b61331b61331d565b565b600060019054906101000a900460ff1661336c576040517f08c379a000000000000000000000000000000000000000000000000000000000815260040161336390619138565b60405180910390fd5b6001609881905550565b60006127108260ff168461338a9190618685565b61339491906186f6565b905092915050565b6000829050600060ca60009054906101000a900473ffffffffffffffffffffffffffffffffffffffff1673ffffffffffffffffffffffffffffffffffffffff166369487b1c6040518163ffffffff1660e01b8152600401602060405180830381865afa158015613410573d6000803e3d6000fd5b505050506040513d601f19601f820116820180604052508101906134349190617cbe565b9050600060ca60009054906101000a900473ffffffffffffffffffffffffffffffffffffffff1673ffffffffffffffffffffffffffffffffffffffff1663b90b8a2a6040518163ffffffff1660e01b8152600401602060405180830381865afa1580156134a5573d6000803e3d6000fd5b505050506040513d601f19601f820116820180604052508101906134c99190617cbe565b9050600060ca60009054906101000a900473ffffffffffffffffffffffffffffffffffffffff1673ffffffffffffffffffffffffffffffffffffffff1663d3f7f266836040518263ffffffff1660e01b81526004016135289190616eba565b600060405180830381865afa158015613545573d6000803e3d6000fd5b505050506040513d6000823e3d601f19601f8201168201806040525081019061356e9190618b77565b935050505060005b838110156136a057600082828151811061359357613592618c4e565b5b60200260200101519050600060ca60009054906101000a900473ffffffffffffffffffffffffffffffffffffffff1673ffffffffffffffffffffffffffffffffffffffff1663b6ad185b836040518263ffffffff1660e01b81526004016135fa9190617226565b602060405180830381865afa158015613617573d6000803e3d6000fd5b505050506040513d601f19601f8201168201806040525081019061363b9190617cbe565b905060ce60009054906101000a900467ffffffffffffffff1667ffffffffffffffff168267ffffffffffffffff16036136825761367d8760cf54838589614811565b613691565b6136908760cf548488615071565b5b50508080600101915050613576565b503373ffffffffffffffffffffffffffffffffffffffff1660cf5460d2600060cf548152602001908152602001600020600501547f497983feda2f53898206317c0b392bffd918715fad18aaedf4ac296f7ec6bf3d8a60d2600060cf548152602001908152602001600020600301546000426040516137229493929190618cb8565b60405180910390a450505050505050565b61373b615646565b73ffffffffffffffffffffffffffffffffffffffff1661375961175d565b73ffffffffffffffffffffffffffffffffffffffff16146137af576040517f08c379a00000000000000000000000000000000000000000000000000000000081526004016137a6906191a4565b60405180910390fd5b565b6000603360009054906101000a900473ffffffffffffffffffffffffffffffffffffffff16905081603360006101000a81548173ffffffffffffffffffffffffffffffffffffffff021916908373ffffffffffffffffffffffffffffffffffffffff1602179055508173ffffffffffffffffffffffffffffffffffffffff168173ffffffffffffffffffffffffffffffffffffffff167f8be0079c531659141344cd1fd0a4f28419497f9722a3daafe3b4186f6b6457e060405160405180910390a35050565b600081600001519050600082602001519050600060ca60009054906101000a900473ffffffffffffffffffffffffffffffffffffffff1673ffffffffffffffffffffffffffffffffffffffff166353fd43326040518163ffffffff1660e01b8152600401602060405180830381865afa1580156138f8573d6000803e3d6000fd5b505050506040513d601f19601f8201168201806040525081019061391c9190617cbe565b9050600080600080600080896060015180602001905181019061393f91906191c4565b9550955095509550955095506000860361396657613961838684848b8e61564e565b61397e565b6001860361397d5761397c838b878a8c8e6157f6565b5b5b50505050505050505050565b60008073ffffffffffffffffffffffffffffffffffffffff168773ffffffffffffffffffffffffffffffffffffffff16036139fa576040517f08c379a00000000000000000000000000000000000000000000000000000000081526004016139f19061930d565b60405180910390fd5b600073ffffffffffffffffffffffffffffffffffffffff168673ffffffffffffffffffffffffffffffffffffffff1603613a69576040517f08c379a0000000000000000000000000000000000000000000000000000000008152600401613a6090619379565b60405180910390fd5b60008567ffffffffffffffff1603613ab6576040517f08c379a0000000000000000000000000000000000000000000000000000000008152600401613aad906193e5565b60405180910390fd5b600073ffffffffffffffffffffffffffffffffffffffff168473ffffffffffffffffffffffffffffffffffffffff1603613b25576040517f08c379a0000000000000000000000000000000000000000000000000000000008152600401613b1c906185f9565b60405180910390fd5b6000835111613b69576040517f08c379a0000000000000000000000000000000000000000000000000000000008152600401613b6090619451565b60405180910390fd5b60006040518060a0016040528086604051602001613b879190617137565b6040516020818303038152906040528152602001858152602001600067ffffffffffffffff811115613bbc57613bbb6174e8565b5b604051908082528060200260200182016040528015613bf557816020015b613be2616e42565b815260200190600190039081613bda5790505b508152602001600180811115613c0e57613c0d619471565b5b856001811115613c2157613c20619471565b5b14613c2d576000613c2f565b885b73ffffffffffffffffffffffffffffffffffffffff168152602001613c646040518060200160405280622dc6c0815250615911565b815250905060008873ffffffffffffffffffffffffffffffffffffffff166320487ded88846040518363ffffffff1660e01b8152600401613ca69291906196a6565b602060405180830381865afa158015613cc3573d6000803e3d6000fd5b505050506040513d601f19601f82011682018060405250810190613ce79190617cbe565b90506000600180811115613cfe57613cfd619471565b5b856001811115613d1157613d10619471565b5b03613d9b578973ffffffffffffffffffffffffffffffffffffffff166396f4e9f989856040518363ffffffff1660e01b8152600401613d519291906196a6565b6020604051808303816000875af1158015613d70573d6000803e3d6000fd5b505050506040513d601f19601f82011682018060405250810190613d9491906196eb565b9050613e1d565b8973ffffffffffffffffffffffffffffffffffffffff166396f4e9f9838a866040518463ffffffff1660e01b8152600401613dd79291906196a6565b60206040518083038185885af1158015613df5573d6000803e3d6000fd5b50505050506040513d601f19601f82011682018060405250810190613e1a91906196eb565b90505b8093505050509695505050505050565b600060ca60009054906101000a900473ffffffffffffffffffffffffffffffffffffffff1673ffffffffffffffffffffffffffffffffffffffff1663d1c68aa360ce60009054906101000a900467ffffffffffffffff166040518263ffffffff1660e01b8152600401613ea09190617226565b600060405180830381865afa158015613ebd573d6000803e3d6000fd5b505050506040513d6000823e3d601f19601f82011682018060405250810190613ee69190619718565b9050600060ca60009054906101000a900473ffffffffffffffffffffffffffffffffffffffff1673ffffffffffffffffffffffffffffffffffffffff1663fbfa77cf6040518163ffffffff1660e01b8152600401602060405180830381865afa158015613f57573d6000803e3d6000fd5b505050506040513d601f19601f82011682018060405250810190613f7b9190618ff6565b905060005b838110156142ef576000838281518110613f9d57613f9c618c4e565b5b60200260200101519050600060ca60009054906101000a900473ffffffffffffffffffffffffffffffffffffffff1673ffffffffffffffffffffffffffffffffffffffff166332599665836040518263ffffffff1660e01b81526004016140049190617137565b602060405180830381865afa158015614021573d6000803e3d6000fd5b505050506040513d601f19601f8201168201806040525081019061404591906183d5565b90506000670de0b6b3a76400008373ffffffffffffffffffffffffffffffffffffffff166370a0823160ca60009054906101000a900473ffffffffffffffffffffffffffffffffffffffff1673ffffffffffffffffffffffffffffffffffffffff1663fbfa77cf6040518163ffffffff1660e01b8152600401602060405180830381865afa1580156140db573d6000803e3d6000fd5b505050506040513d601f19601f820116820180604052508101906140ff9190618ff6565b6040518263ffffffff1660e01b815260040161411b9190617137565b602060405180830381865afa158015614138573d6000803e3d6000fd5b505050506040513d601f19601f8201168201806040525081019061415c9190617cbe565b8a6141679190618685565b61417191906186f6565b90508473ffffffffffffffffffffffffffffffffffffffff16631c20fadd8430846040518463ffffffff1660e01b81526004016141b093929190619023565b6020604051808303816000875af11580156141cf573d6000803e3d6000fd5b505050506040513d601f19601f820116820180604052508101906141f39190617be4565b50600060ce60089054906101000a900473ffffffffffffffffffffffffffffffffffffffff1673ffffffffffffffffffffffffffffffffffffffff168473ffffffffffffffffffffffffffffffffffffffff161461427f5761427a8460ce60089054906101000a900473ffffffffffffffffffffffffffffffffffffffff16843087614669565b614281565b815b90508060d360008b815260200190815260200160002060000160008282546142a99190617eaa565b92505081905550600160d360008b815260200190815260200160002060010160008282546142d79190617eaa565b92505081905550505050508080600101915050613f80565b505050505050565b600061430282611017565b9050600060ca60009054906101000a900473ffffffffffffffffffffffffffffffffffffffff1673ffffffffffffffffffffffffffffffffffffffff1663d1c68aa3846040518263ffffffff1660e01b81526004016143619190617226565b600060405180830381865afa15801561437e573d6000803e3d6000fd5b505050506040513d6000823e3d601f19601f820116820180604052508101906143a79190619718565b9050600060ca60009054906101000a900473ffffffffffffffffffffffffffffffffffffffff1673ffffffffffffffffffffffffffffffffffffffff1663221f3371856040518263ffffffff1660e01b81526004016144069190617226565b600060405180830381865afa158015614423573d6000803e3d6000fd5b505050506040513d6000823e3d601f19601f8201168201806040525081019061444c9190619761565b9050600060ca60009054906101000a900473ffffffffffffffffffffffffffffffffffffffff1673ffffffffffffffffffffffffffffffffffffffff1663af696b34866040518263ffffffff1660e01b81526004016144ab9190617226565b600060405180830381865afa1580156144c8573d6000803e3d6000fd5b505050506040513d6000823e3d601f19601f820116820180604052508101906144f19190619761565b905060008067ffffffffffffffff81111561450f5761450e6174e8565b5b60405190808252806020026020018201604052801561453d5781602001602082028036833780820191505090505b50905060008067ffffffffffffffff81111561455c5761455b6174e8565b5b60405190808252806020026020018201604052801561458a5781602001602082028036833780820191505090505b5090506000600167ffffffffffffffff8111156145aa576145a96174e8565b5b6040519080825280602002602001820160405280156145d85781602001602082028036833780820191505090505b50905089816000815181106145f0576145ef618c4e565b5b60200260200101818152505060006001878588868e8a8860405160200161461e989796959493929190619908565b6040516020818303038152906040529050600061463e8a8a846001611f38565b90508060d360008d815260200190815260200160002060050181905550505050505050505050505050565b60008060ca60009054906101000a900473ffffffffffffffffffffffffffffffffffffffff1673ffffffffffffffffffffffffffffffffffffffff1663b631e80b6040518163ffffffff1660e01b8152600401602060405180830381865afa1580156146d9573d6000803e3d6000fd5b505050506040513d601f19601f820116820180604052508101906146fd91906199ee565b9050600060ca60009054906101000a900473ffffffffffffffffffffffffffffffffffffffff1673ffffffffffffffffffffffffffffffffffffffff1663744fbc7a6040518163ffffffff1660e01b8152600401602060405180830381865afa15801561476e573d6000803e3d6000fd5b505050506040513d601f19601f820116820180604052508101906147929190619a59565b90506147a38282868b8b8b8b615990565b9250505095945050505050565b600060019054906101000a900460ff166147ff576040517f08c379a00000000000000000000000000000000000000000000000000000000081526004016147f690619138565b60405180910390fd5b61480f61480a615646565b6137b1565b565b600060ca60009054906101000a900473ffffffffffffffffffffffffffffffffffffffff1673ffffffffffffffffffffffffffffffffffffffff1663d1c68aa3846040518263ffffffff1660e01b815260040161486e9190617226565b600060405180830381865afa15801561488b573d6000803e3d6000fd5b505050506040513d6000823e3d601f19601f820116820180604052508101906148b49190619718565b905060005b848110156150685760008282815181106148d6576148d5618c4e565b5b60200260200101519050600060ca60009054906101000a900473ffffffffffffffffffffffffffffffffffffffff1673ffffffffffffffffffffffffffffffffffffffff166332599665836040518263ffffffff1660e01b815260040161493d9190617137565b602060405180830381865afa15801561495a573d6000803e3d6000fd5b505050506040513d601f19601f8201168201806040525081019061497e91906183d5565b9050600060ca60009054906101000a900473ffffffffffffffffffffffffffffffffffffffff1673ffffffffffffffffffffffffffffffffffffffff16630be52713846040518263ffffffff1660e01b81526004016149dd9190617137565b602060405180830381865afa1580156149fa573d6000803e3d6000fd5b505050506040513d601f19601f82011682018060405250810190614a1e9190617cbe565b9050600060ce60089054906101000a900473ffffffffffffffffffffffffffffffffffffffff1673ffffffffffffffffffffffffffffffffffffffff168473ffffffffffffffffffffffffffffffffffffffff1614614bbb57614bb6614bb18560ce60089054906101000a900473ffffffffffffffffffffffffffffffffffffffff168773ffffffffffffffffffffffffffffffffffffffff166370a0823160ca60009054906101000a900473ffffffffffffffffffffffffffffffffffffffff1673ffffffffffffffffffffffffffffffffffffffff1663fbfa77cf6040518163ffffffff1660e01b8152600401602060405180830381865afa158015614b2a573d6000803e3d6000fd5b505050506040513d601f19601f82011682018060405250810190614b4e9190618ff6565b6040518263ffffffff1660e01b8152600401614b6a9190617137565b602060405180830381865afa158015614b87573d6000803e3d6000fd5b505050506040513d601f19601f82011682018060405250810190614bab9190617cbe565b87612879565b6120bb565b614cce565b614ccd8473ffffffffffffffffffffffffffffffffffffffff166370a0823160ca60009054906101000a900473ffffffffffffffffffffffffffffffffffffffff1673ffffffffffffffffffffffffffffffffffffffff1663fbfa77cf6040518163ffffffff1660e01b8152600401602060405180830381865afa158015614c47573d6000803e3d6000fd5b505050506040513d601f19601f82011682018060405250810190614c6b9190618ff6565b6040518263ffffffff1660e01b8152600401614c879190617137565b602060405180830381865afa158015614ca4573d6000803e3d6000fd5b505050506040513d601f19601f82011682018060405250810190614cc89190617cbe565b6120bb565b5b90508060d260008c815260200190815260200160002060000160008673ffffffffffffffffffffffffffffffffffffffff1673ffffffffffffffffffffffffffffffffffffffff16815260200190815260200160002060000181905550600068056bc75e2d63100000838d614d439190618685565b614d4d91906186f6565b905060ce60089054906101000a900473ffffffffffffffffffffffffffffffffffffffff1673ffffffffffffffffffffffffffffffffffffffff168573ffffffffffffffffffffffffffffffffffffffff1614614e6957614e6360ce60089054906101000a900473ffffffffffffffffffffffffffffffffffffffff16868360ca60009054906101000a900473ffffffffffffffffffffffffffffffffffffffff1673ffffffffffffffffffffffffffffffffffffffff1663fbfa77cf6040518163ffffffff1660e01b8152600401602060405180830381865afa158015614e39573d6000803e3d6000fd5b505050506040513d601f19601f82011682018060405250810190614e5d9190618ff6565b88614669565b50614f9b565b60ce60089054906101000a900473ffffffffffffffffffffffffffffffffffffffff1673ffffffffffffffffffffffffffffffffffffffff1663a9059cbb60ca60009054906101000a900473ffffffffffffffffffffffffffffffffffffffff1673ffffffffffffffffffffffffffffffffffffffff1663fbfa77cf6040518163ffffffff1660e01b8152600401602060405180830381865afa158015614f14573d6000803e3d6000fd5b505050506040513d601f19601f82011682018060405250810190614f389190618ff6565b836040518363ffffffff1660e01b8152600401614f56929190617b8f565b6020604051808303816000875af1158015614f75573d6000803e3d6000fd5b505050506040513d601f19601f82011682018060405250810190614f999190617be4565b505b614fc368056bc75e2d63100000848e614fb49190618685565b614fbe91906186f6565b6120bb565b82614fce9190617eaa565b60d260008d815260200190815260200160002060000160008773ffffffffffffffffffffffffffffffffffffffff1673ffffffffffffffffffffffffffffffffffffffff16815260200190815260200160002060010181905550600160d260008d8152602001908152602001600020600101600082825461504f9190617eaa565b92505081905550505050505080806001019150506148b9565b50505050505050565b615079616e72565b600060ca60009054906101000a900473ffffffffffffffffffffffffffffffffffffffff1673ffffffffffffffffffffffffffffffffffffffff16632a3ff8ad84866040518363ffffffff1660e01b81526004016150d8929190619a86565b602060405180830381865afa1580156150f5573d6000803e3d6000fd5b505050506040513d601f19601f820116820180604052508101906151199190617cbe565b90506000600167ffffffffffffffff811115615138576151376174e8565b5b6040519080825280602002602001820160405280156151665781602001602082028036833780820191505090505b509050818160008151811061517e5761517d618c4e565b5b602002602001018181525050600061520560ce60089054906101000a900473ffffffffffffffffffffffffffffffffffffffff166151bb88610efc565b68056bc75e2d63100000856000815181106151d9576151d8618c4e565b5b60200260200101518c6151ec9190618685565b6151f691906186f6565b306152008b6117a5565b614669565b9050600061521287611017565b905060ca60009054906101000a900473ffffffffffffffffffffffffffffffffffffffff1673ffffffffffffffffffffffffffffffffffffffff1663d1c68aa3886040518263ffffffff1660e01b815260040161526f9190617226565b600060405180830381865afa15801561528c573d6000803e3d6000fd5b505050506040513d6000823e3d601f19601f820116820180604052508101906152b59190619718565b856000018190525060ca60009054906101000a900473ffffffffffffffffffffffffffffffffffffffff1673ffffffffffffffffffffffffffffffffffffffff1663221f3371886040518263ffffffff1660e01b81526004016153189190617226565b600060405180830381865afa158015615335573d6000803e3d6000fd5b505050506040513d6000823e3d601f19601f8201168201806040525081019061535e9190619761565b856020018190525060ca60009054906101000a900473ffffffffffffffffffffffffffffffffffffffff1673ffffffffffffffffffffffffffffffffffffffff1663af696b34886040518263ffffffff1660e01b81526004016153c19190617226565b600060405180830381865afa1580156153de573d6000803e3d6000fd5b505050506040513d6000823e3d601f19601f820116820180604052508101906154079190619761565b8560400181905250600067ffffffffffffffff81111561542a576154296174e8565b5b6040519080825280602002602001820160405280156154585781602001602082028036833780820191505090505b508560600181905250600067ffffffffffffffff81111561547c5761547b6174e8565b5b6040519080825280602002602001820160405280156154aa5781602001602082028036833780820191505090505b5085608001819052506000600167ffffffffffffffff8111156154d0576154cf6174e8565b5b60405190808252806020026020018201604052801561550957816020015b6154f6616e42565b8152602001906001900390816154ee5790505b50905061551588610efc565b8160008151811061552957615528618c4e565b5b60200260200101516000019073ffffffffffffffffffffffffffffffffffffffff16908173ffffffffffffffffffffffffffffffffffffffff1681525050828160008151811061557c5761557b618c4e565b5b602002602001015160200181815250506000808760000151886060015189602001518a608001518e8c604001518b6040516020016155c1989796959493929190619ae0565b604051602081830303815290604052905060006155e28a8386866001615af0565b90507f54791b38f3859327992a1ca0590ad3c0f08feba98d1a4f56ab0dca74d203392a8160405161561391906176bb565b60405180910390a18060d2600060cf54815260200190815260200160002060050181905550505050505050505050505050565b600033905090565b600086905060005b86518110156157c457600086828151811061567457615673618c4e565b5b60200260200101519050600086838151811061569357615692618c4e565b5b602002602001015190508160d2600086815260200190815260200160002060000160008b86815181106156c9576156c8618c4e565b5b602002602001015173ffffffffffffffffffffffffffffffffffffffff1673ffffffffffffffffffffffffffffffffffffffff168152602001908152602001600020600001819055508060d2600086815260200190815260200160002060000160008b868151811061573e5761573d618c4e565b5b602002602001015173ffffffffffffffffffffffffffffffffffffffff1673ffffffffffffffffffffffffffffffffffffffff16815260200190815260200160002060010181905550600160d2600086815260200190815260200160002060010160008282546157ae9190617eaa565b9250508190555050508080600101915050615656565b508260d2600083815260200190815260200160002060010154036157ed576157ec8183615b9f565b5b50505050505050565b600086905060008660800151905060008160008151811061581a57615819618c4e565b5b602002602001015160000151905060008260008151811061583e5761583d618c4e565b5b6020026020010151602001519050600061587f8360ce60089054906101000a900473ffffffffffffffffffffffffffffffffffffffff168430610bb8614669565b90508060d3600087815260200190815260200160002060000160008282546158a79190617eaa565b92505081905550885160d3600087815260200190815260200160002060010160008282546158d59190617eaa565b925050819055508760d360008781526020019081526020016000206001015403615904576159038587616151565b5b5050505050505050505050565b60606397a657c960e01b8260405160240161592c9190619ba4565b604051602081830303815290604052907bffffffffffffffffffffffffffffffffffffffffffffffffffffffff19166020820180517bffffffffffffffffffffffffffffffffffffffffffffffffffffffff83818316178352505050509050919050565b60008073ffffffffffffffffffffffffffffffffffffffff168573ffffffffffffffffffffffffffffffffffffffff1603615a00576040517f08c379a00000000000000000000000000000000000000000000000000000000081526004016159f790619c0b565b60405180910390fd5b600073ffffffffffffffffffffffffffffffffffffffff168473ffffffffffffffffffffffffffffffffffffffff1603615a6f576040517f08c379a0000000000000000000000000000000000000000000000000000000008152600401615a6690619c77565b60405180910390fd5b60008311615ab2576040517f08c379a0000000000000000000000000000000000000000000000000000000008152600401615aa990618773565b60405180910390fd5b60008662ffffff161115615ad557615ace8887878787876165c2565b9050615ae5565b615ae28786868686616776565b90505b979650505050505050565b6000615afa616a04565b6000615b51600060029054906101000a900473ffffffffffffffffffffffffffffffffffffffff1660cb60009054906101000a900473ffffffffffffffffffffffffffffffffffffffff1660058a8a8a8a8a616a53565b90507f54791b38f3859327992a1ca0590ad3c0f08feba98d1a4f56ab0dca74d203392a81604051615b8291906176bb565b60405180910390a180915050615b96616e38565b95945050505050565b600080600060ca60009054906101000a900473ffffffffffffffffffffffffffffffffffffffff1673ffffffffffffffffffffffffffffffffffffffff166353fd43326040518163ffffffff1660e01b8152600401602060405180830381865afa158015615c11573d6000803e3d6000fd5b505050506040513d601f19601f82011682018060405250810190615c359190617cbe565b905060005b81811015615db857600060ca60009054906101000a900473ffffffffffffffffffffffffffffffffffffffff1673ffffffffffffffffffffffffffffffffffffffff16639932ba4c836040518263ffffffff1660e01b8152600401615c9f9190616eba565b602060405180830381865afa158015615cbc573d6000803e3d6000fd5b505050506040513d601f19601f82011682018060405250810190615ce09190617c7c565b905060d2600088815260200190815260200160002060000160008273ffffffffffffffffffffffffffffffffffffffff1673ffffffffffffffffffffffffffffffffffffffff1681526020019081526020016000206000015485615d449190617eaa565b945060d2600088815260200190815260200160002060000160008273ffffffffffffffffffffffffffffffffffffffff1673ffffffffffffffffffffffffffffffffffffffff1681526020019081526020016000206001015484615da89190617eaa565b9350508080600101915050615c3a565b5060008060cc60009054906101000a900473ffffffffffffffffffffffffffffffffffffffff1673ffffffffffffffffffffffffffffffffffffffff166318160ddd6040518163ffffffff1660e01b8152600401602060405180830381865afa158015615e29573d6000803e3d6000fd5b505050506040513d601f19601f82011682018060405250810190615e4d9190617cbe565b1115615f9c5760cc60009054906101000a900473ffffffffffffffffffffffffffffffffffffffff1673ffffffffffffffffffffffffffffffffffffffff166318160ddd6040518163ffffffff1660e01b8152600401602060405180830381865afa158015615ec0573d6000803e3d6000fd5b505050506040513d601f19601f82011682018060405250810190615ee49190617cbe565b848460cc60009054906101000a900473ffffffffffffffffffffffffffffffffffffffff1673ffffffffffffffffffffffffffffffffffffffff166318160ddd6040518163ffffffff1660e01b8152600401602060405180830381865afa158015615f53573d6000803e3d6000fd5b505050506040513d601f19601f82011682018060405250810190615f779190617cbe565b615f819190618685565b615f8b91906186f6565b615f959190617ffe565b9050615fac565b606483615fa99190618685565b90505b60cc60009054906101000a900473ffffffffffffffffffffffffffffffffffffffff1673ffffffffffffffffffffffffffffffffffffffff166340c10f1960d2600089815260200190815260200160002060020160009054906101000a900473ffffffffffffffffffffffffffffffffffffffff16836040518363ffffffff1660e01b815260040161603f929190617b8f565b600060405180830381600087803b15801561605957600080fd5b505af115801561606d573d6000803e3d6000fd5b5050505060d2600087815260200190815260200160002060020160009054906101000a900473ffffffffffffffffffffffffffffffffffffffff1673ffffffffffffffffffffffffffffffffffffffff1686867f4d3128af979c46a863cd489a3d0959d5d22181cdbdb1949b40cadfcdac0a1d3860d260008b815260200190815260200160002060040160009054906101000a900473ffffffffffffffffffffffffffffffffffffffff1660d260008c81526020019081526020016000206003015486426040516161419493929190619c97565b60405180910390a4505050505050565b600060d36000848152602001908152602001600020600001549050600060d3600085815260200190815260200160002060020160009054906101000a900473ffffffffffffffffffffffffffffffffffffffff169050600060d3600086815260200190815260200160002060030160009054906101000a900473ffffffffffffffffffffffffffffffffffffffff169050600060d3600087815260200190815260200160002060030160149054906101000a900462ffffff16905060006162278560cc60149054906101000a900460ff16613376565b905060ce60089054906101000a900473ffffffffffffffffffffffffffffffffffffffff1673ffffffffffffffffffffffffffffffffffffffff1663a9059cbb60d160009054906101000a900473ffffffffffffffffffffffffffffffffffffffff16836040518363ffffffff1660e01b81526004016162a8929190617b8f565b6020604051808303816000875af11580156162c7573d6000803e3d6000fd5b505050506040513d601f19601f820116820180604052508101906162eb9190617be4565b5060ce60089054906101000a900473ffffffffffffffffffffffffffffffffffffffff1673ffffffffffffffffffffffffffffffffffffffff168373ffffffffffffffffffffffffffffffffffffffff160361650d5760ce60089054906101000a900473ffffffffffffffffffffffffffffffffffffffff1673ffffffffffffffffffffffffffffffffffffffff16632e1a7d4d828761638b9190617ffe565b6040518263ffffffff1660e01b81526004016163a79190616eba565b600060405180830381600087803b1580156163c157600080fd5b505af11580156163d5573d6000803e3d6000fd5b5050505060008473ffffffffffffffffffffffffffffffffffffffff1682876163fe9190617ffe565b60405161640a90619d0d565b60006040518083038185875af1925050503d8060008114616447576040519150601f19603f3d011682016040523d82523d6000602084013e61644c565b606091505b5050905080616490576040517f08c379a000000000000000000000000000000000000000000000000000000000815260040161648790619d94565b60405180910390fd5b8473ffffffffffffffffffffffffffffffffffffffff1688887f476778ca38557db6dc935a57ece5bd93fbaca20183fadf86d7a1d2b85df65e018760d360008e815260200190815260200160002060040154878c6164ee9190617ffe565b426040516164ff9493929190619c97565b60405180910390a4506165b9565b600061654960ce60089054906101000a900473ffffffffffffffffffffffffffffffffffffffff168584896165429190617ffe565b8887614669565b90508473ffffffffffffffffffffffffffffffffffffffff1688887f476778ca38557db6dc935a57ece5bd93fbaca20183fadf86d7a1d2b85df65e018760d360008e81526020019081526020016000206004015486426040516165af9493929190619c97565b60405180910390a4505b50505050505050565b60008473ffffffffffffffffffffffffffffffffffffffff1663095ea7b388856040518363ffffffff1660e01b81526004016165ff929190617b8f565b6020604051808303816000875af115801561661e573d6000803e3d6000fd5b505050506040513d601f19601f820116820180604052508101906166429190617be4565b5060006040518061010001604052808773ffffffffffffffffffffffffffffffffffffffff1681526020018673ffffffffffffffffffffffffffffffffffffffff1681526020018862ffffff1681526020018473ffffffffffffffffffffffffffffffffffffffff16815260200161012c426166be9190617eaa565b815260200185815260200160008152602001600073ffffffffffffffffffffffffffffffffffffffff1681525090508773ffffffffffffffffffffffffffffffffffffffff1663414bf389826040518263ffffffff1660e01b81526004016167269190619e74565b6020604051808303816000875af1158015616745573d6000803e3d6000fd5b505050506040513d601f19601f820116820180604052508101906167699190617cbe565b9150509695505050505050565b600080600267ffffffffffffffff811115616794576167936174e8565b5b6040519080825280602002602001820160405280156167c25781602001602082028036833780820191505090505b50905085816000815181106167da576167d9618c4e565b5b602002602001019073ffffffffffffffffffffffffffffffffffffffff16908173ffffffffffffffffffffffffffffffffffffffff1681525050848160018151811061682957616828618c4e565b5b602002602001019073ffffffffffffffffffffffffffffffffffffffff16908173ffffffffffffffffffffffffffffffffffffffff168152505060008773ffffffffffffffffffffffffffffffffffffffff1663d06ca61f86846040518363ffffffff1660e01b81526004016168a0929190619e90565b600060405180830381865afa1580156168bd573d6000803e3d6000fd5b505050506040513d6000823e3d601f19601f820116820180604052508101906168e69190619761565b90508673ffffffffffffffffffffffffffffffffffffffff1663095ea7b389876040518363ffffffff1660e01b8152600401616923929190617b8f565b6020604051808303816000875af1158015616942573d6000803e3d6000fd5b505050506040513d601f19601f820116820180604052508101906169669190617be4565b508773ffffffffffffffffffffffffffffffffffffffff16635c11d7958660008588426040518663ffffffff1660e01b81526004016169a9959493929190619ec0565b600060405180830381600087803b1580156169c357600080fd5b505af11580156169d7573d6000803e3d6000fd5b50505050806001815181106169ef576169ee618c4e565b5b60200260200101519250505095945050505050565b600260985403616a49576040517f08c379a0000000000000000000000000000000000000000000000000000000008152600401616a4090619f66565b60405180910390fd5b6002609881905550565b600080835190508761ffff16811115616aa1576040517f08c379a0000000000000000000000000000000000000000000000000000000008152600401616a9890619ff8565b60405180910390fd5b60005b81811015616bc4578973ffffffffffffffffffffffffffffffffffffffff16858281518110616ad657616ad5618c4e565b5b60200260200101516000015173ffffffffffffffffffffffffffffffffffffffff1614616bb957848181518110616b1057616b0f618c4e565b5b60200260200101516000015173ffffffffffffffffffffffffffffffffffffffff1663095ea7b38c878481518110616b4b57616b4a618c4e565b5b6020026020010151602001516040518363ffffffff1660e01b8152600401616b74929190617b8f565b6020604051808303816000875af1158015616b93573d6000803e3d6000fd5b505050506040513d601f19601f82011682018060405250810190616bb79190617be4565b505b806001019050616aa4565b5060006040518060a0016040528087604051602001616be39190617137565b6040516020818303038152906040528152602001888152602001868152602001600180811115616c1657616c15619471565b5b866001811115616c2957616c28619471565b5b14616c35576000616c37565b8b5b73ffffffffffffffffffffffffffffffffffffffff168152602001616c6c6040518060200160405280622dc6c0815250615911565b815250905060008b73ffffffffffffffffffffffffffffffffffffffff166320487ded8a846040518363ffffffff1660e01b8152600401616cae9291906196a6565b602060405180830381865afa158015616ccb573d6000803e3d6000fd5b505050506040513d601f19601f82011682018060405250810190616cef9190617cbe565b90506000600180811115616d0657616d05619471565b5b866001811115616d1957616d18619471565b5b03616da3578c73ffffffffffffffffffffffffffffffffffffffff166396f4e9f98b856040518363ffffffff1660e01b8152600401616d599291906196a6565b6020604051808303816000875af1158015616d78573d6000803e3d6000fd5b505050506040513d601f19601f82011682018060405250810190616d9c91906196eb565b9050616e25565b8c73ffffffffffffffffffffffffffffffffffffffff166396f4e9f9838c866040518463ffffffff1660e01b8152600401616ddf9291906196a6565b60206040518083038185885af1158015616dfd573d6000803e3d6000fd5b50505050506040513d601f19601f82011682018060405250810190616e2291906196eb565b90505b8094505050505098975050505050505050565b6001609881905550565b6040518060400160405280600073ffffffffffffffffffffffffffffffffffffffff168152602001600081525090565b6040518060a0016040528060608152602001606081526020016060815260200160608152602001606081525090565b6000819050919050565b616eb481616ea1565b82525050565b6000602082019050616ecf6000830184616eab565b92915050565b6000604051905090565b600080fd5b600080fd5b60007fffffffff0000000000000000000000000000000000000000000000000000000082169050919050565b616f1e81616ee9565b8114616f2957600080fd5b50565b600081359050616f3b81616f15565b92915050565b600060208284031215616f5757616f56616edf565b5b6000616f6584828501616f2c565b91505092915050565b60008115159050919050565b616f8381616f6e565b82525050565b6000602082019050616f9e6000830184616f7a565b92915050565b600067ffffffffffffffff82169050919050565b616fc181616fa4565b8114616fcc57600080fd5b50565b600081359050616fde81616fb8565b92915050565b600073ffffffffffffffffffffffffffffffffffffffff82169050919050565b600061700f82616fe4565b9050919050565b61701f81617004565b811461702a57600080fd5b50565b60008135905061703c81617016565b92915050565b600061704d82616fe4565b9050919050565b61705d81617042565b811461706857600080fd5b50565b60008135905061707a81617054565b92915050565b600080600080600060a0868803121561709c5761709b616edf565b5b60006170aa88828901616fcf565b95505060206170bb8882890161702d565b94505060406170cc8882890161706b565b93505060606170dd8882890161706b565b92505060806170ee8882890161706b565b9150509295509295909350565b60006020828403121561711157617110616edf565b5b600061711f84828501616fcf565b91505092915050565b61713181617042565b82525050565b600060208201905061714c6000830184617128565b92915050565b61715b81616ea1565b811461716657600080fd5b50565b60008135905061717881617152565b92915050565b60006020828403121561719457617193616edf565b5b60006171a284828501617169565b91505092915050565b6000819050919050565b6171be816171ab565b82525050565b600060a0820190506171d96000830188616eab565b6171e66020830187617128565b6171f36040830186616eab565b6172006060830185617128565b61720d60808301846171b5565b9695505050505050565b61722081616fa4565b82525050565b600060208201905061723b6000830184617217565b92915050565b6000819050919050565b600061726661726161725c84616fe4565b617241565b616fe4565b9050919050565b60006172788261724b565b9050919050565b600061728a8261726d565b9050919050565b61729a8161727f565b82525050565b60006020820190506172b56000830184617291565b92915050565b600080604083850312156172d2576172d1616edf565b5b60006172e085828601617169565b92505060206172f185828601617169565b9150509250929050565b600060ff82169050919050565b617311816172fb565b811461731c57600080fd5b50565b60008135905061732e81617308565b92915050565b60006020828403121561734a57617349616edf565b5b60006173588482850161731f565b91505092915050565b61736a816172fb565b82525050565b60006020820190506173856000830184617361565b92915050565b600080fd5b600060a082840312156173a6576173a561738b565b5b81905092915050565b6000602082840312156173c5576173c4616edf565b5b600082013567ffffffffffffffff8111156173e3576173e2616ee4565b5b6173ef84828501617390565b91505092915050565b600062ffffff82169050919050565b617410816173f8565b82525050565b600060208201905061742b6000830184617407565b92915050565b600060e082019050617446600083018a616eab565b6174536020830189616eab565b6174606040830188617128565b61746d6060830187617128565b61747a6080830186617407565b61748760a0830185616eab565b61749460c08301846171b5565b98975050505050505050565b6000602082840312156174b6576174b5616edf565b5b60006174c48482850161706b565b91505092915050565b600080fd5b600080fd5b6000601f19601f8301169050919050565b7f4e487b7100000000000000000000000000000000000000000000000000000000600052604160045260246000fd5b617520826174d7565b810181811067ffffffffffffffff8211171561753f5761753e6174e8565b5b80604052505050565b6000617552616ed5565b905061755e8282617517565b919050565b600067ffffffffffffffff82111561757e5761757d6174e8565b5b617587826174d7565b9050602081019050919050565b82818337600083830152505050565b60006175b66175b184617563565b617548565b9050828152602081018484840111156175d2576175d16174d2565b5b6175dd848285617594565b509392505050565b600082601f8301126175fa576175f96174cd565b5b813561760a8482602086016175a3565b91505092915050565b6002811061762057600080fd5b50565b60008135905061763281617613565b92915050565b6000806000806080858703121561765257617651616edf565b5b600061766087828801616fcf565b94505060206176718782880161706b565b935050604085013567ffffffffffffffff81111561769257617691616ee4565b5b61769e878288016175e5565b92505060606176af87828801617623565b91505092959194509250565b60006020820190506176d060008301846171b5565b92915050565b60006176e18261726d565b9050919050565b6176f1816176d6565b82525050565b600060208201905061770c60008301846176e8565b92915050565b61771b816173f8565b811461772657600080fd5b50565b60008135905061773881617712565b92915050565b6000806000806080858703121561775857617757616edf565b5b600061776687828801617169565b945050602061777787828801617169565b93505060406177888782880161706b565b925050606061779987828801617729565b91505092959194509250565b600061ffff82169050919050565b6177bc816177a5565b82525050565b60006020820190506177d760008301846177b3565b92915050565b600080600080608085870312156177f7576177f6616edf565b5b60006178058782880161706b565b94505060206178168782880161706b565b935050604061782787828801617169565b925050606061783887828801617729565b91505092959194509250565b600061784f8261724b565b9050919050565b600061786182617844565b9050919050565b61787181617856565b82525050565b600060208201905061788c6000830184617868565b92915050565b60006fffffffffffffffffffffffffffffffff82169050919050565b6178b781617892565b81146178c257600080fd5b50565b6000813590506178d4816178ae565b92915050565b600080600080608085870312156178f4576178f3616edf565b5b60006179028782880161706b565b94505060206179138782880161706b565b9350506040617924878288016178c5565b925050606061793587828801617729565b91505092959194509250565b6000806000806080858703121561795b5761795a616edf565b5b60006179698782880161706b565b945050602061797a87828801617169565b935050604061798b87828801617169565b925050606061799c87828801617729565b91505092959194509250565b600082825260208201905092915050565b7f496e697469616c697a61626c653a20636f6e747261637420697320616c72656160008201527f647920696e697469616c697a6564000000000000000000000000000000000000602082015250565b6000617a15602e836179a8565b9150617a20826179b9565b604082019050919050565b60006020820190508181036000830152617a4481617a08565b9050919050565b7f496e76616c696420636861696e2073656c6563746f7200000000000000000000600082015250565b6000617a816016836179a8565b9150617a8c82617a4b565b602082019050919050565b60006020820190508181036000830152617ab081617a74565b9050919050565b7f496e76616c696420746f6b656e20616464726573730000000000000000000000600082015250565b6000617aed6015836179a8565b9150617af882617ab7565b602082019050919050565b60006020820190508181036000830152617b1c81617ae0565b9050919050565b7f496e76616c696420436861696e6c696e6b20746f6b656e206164647265737300600082015250565b6000617b59601f836179a8565b9150617b6482617b23565b602082019050919050565b60006020820190508181036000830152617b8881617b4c565b9050919050565b6000604082019050617ba46000830185617128565b617bb16020830184616eab565b9392505050565b617bc181616f6e565b8114617bcc57600080fd5b50565b600081519050617bde81617bb8565b92915050565b600060208284031215617bfa57617bf9616edf565b5b6000617c0884828501617bcf565b91505092915050565b6000819050919050565b6000617c36617c31617c2c84617c11565b617241565b6172fb565b9050919050565b617c4681617c1b565b82525050565b6000602082019050617c616000830184617c3d565b92915050565b600081519050617c7681617054565b92915050565b600060208284031215617c9257617c91616edf565b5b6000617ca084828501617c67565b91505092915050565b600081519050617cb881617152565b92915050565b600060208284031215617cd457617cd3616edf565b5b6000617ce284828501617ca9565b91505092915050565b7f496e70757420616d6f756e74206d75737420626520677265617465722074686160008201527f6e207a65726f0000000000000000000000000000000000000000000000000000602082015250565b6000617d476026836179a8565b9150617d5282617ceb565b604082019050919050565b60006020820190508181036000830152617d7681617d3a565b9050919050565b7f43726f73732d636861696e20666565206d757374206265206e6f6e2d6e65676160008201527f7469766500000000000000000000000000000000000000000000000000000000602082015250565b6000617dd96024836179a8565b9150617de482617d7d565b604082019050919050565b60006020820190508181036000830152617e0881617dcc565b9050919050565b7f496e73756666696369656e74204554482073656e740000000000000000000000600082015250565b6000617e456015836179a8565b9150617e5082617e0f565b602082019050919050565b60006020820190508181036000830152617e7481617e38565b9050919050565b7f4e487b7100000000000000000000000000000000000000000000000000000000600052601160045260246000fd5b6000617eb582616ea1565b9150617ec083616ea1565b9250828201905080821115617ed857617ed7617e7b565b5b92915050565b7f6c6f776572207468616e20726571756972656420616d6f756e74000000000000600082015250565b6000617f14601a836179a8565b9150617f1f82617ede565b602082019050919050565b60006020820190508181036000830152617f4381617f07565b9050919050565b7f466565207472616e73666572206661696c656400000000000000000000000000600082015250565b6000617f806013836179a8565b9150617f8b82617f4a565b602082019050919050565b60006020820190508181036000830152617faf81617f73565b9050919050565b6000617fc182616ea1565b91507fffffffffffffffffffffffffffffffffffffffffffffffffffffffffffffffff8203617ff357617ff2617e7b565b5b600182019050919050565b600061800982616ea1565b915061801483616ea1565b925082820390508181111561802c5761802b617e7b565b5b92915050565b7f596f752073686f756c642077616974206174206c6561737420313220686f757260008201527f7320616674657220746865206c61746573742075706461746500000000000000602082015250565b600061808e6039836179a8565b915061809982618032565b604082019050919050565b600060208201905081810360008301526180bd81618081565b9050919050565b7f546865206e65774665652073686f756c64206265206265747765656e2031206160008201527f6e64203130302028302e303125202d2031252900000000000000000000000000602082015250565b60006181206033836179a8565b915061812b826180c4565b604082019050919050565b6000602082019050818103600083015261814f81618113565b9050919050565b600080fd5b600080fd5b618169816171ab565b811461817457600080fd5b50565b60008135905061818681618160565b92915050565b600067ffffffffffffffff8211156181a7576181a66174e8565b5b602082029050602081019050919050565b600080fd5b6000604082840312156181d3576181d2618156565b5b6181dd6040617548565b905060006181ed8482850161706b565b600083015250602061820184828501617169565b60208301525092915050565b600061822061821b8461818c565b617548565b90508083825260208201905060408402830185811115618243576182426181b8565b5b835b8181101561826c578061825888826181bd565b845260208401935050604081019050618245565b5050509392505050565b600082601f83011261828b5761828a6174cd565b5b813561829b84826020860161820d565b91505092915050565b600060a082840312156182ba576182b9618156565b5b6182c460a0617548565b905060006182d484828501618177565b60008301525060206182e884828501616fcf565b602083015250604082013567ffffffffffffffff81111561830c5761830b61815b565b5b618318848285016175e5565b604083015250606082013567ffffffffffffffff81111561833c5761833b61815b565b5b618348848285016175e5565b606083015250608082013567ffffffffffffffff81111561836c5761836b61815b565b5b61837884828501618276565b60808301525092915050565b600061839036836182a4565b9050919050565b60006040820190506183ac6000830185617217565b6183b96020830184617128565b9392505050565b6000815190506183cf81617712565b92915050565b6000602082840312156183eb576183ea616edf565b5b60006183f9848285016183c0565b91505092915050565b60008151905061841181616fb8565b92915050565b60006020828403121561842d5761842c616edf565b5b600061843b84828501618402565b91505092915050565b60006080820190506184596000830187617128565b6184666020830186617128565b6184736040830185616eab565b6184806060830184617407565b95945050505050565b7f50726f706f7361626c654f776e61626c653a206e6577206f776e65722069732060008201527f746865207a65726f206164647265737300000000000000000000000000000000602082015250565b60006184e56030836179a8565b91506184f082618489565b604082019050919050565b60006020820190508181036000830152618514816184d8565b9050919050565b7f496e76616c69642064657374696e6174696f6e20636861696e2073656c65637460008201527f6f72000000000000000000000000000000000000000000000000000000000000602082015250565b60006185776022836179a8565b91506185828261851b565b604082019050919050565b600060208201905081810360008301526185a68161856a565b9050919050565b7f496e76616c696420726563656976657220616464726573730000000000000000600082015250565b60006185e36018836179a8565b91506185ee826185ad565b602082019050919050565b60006020820190508181036000830152618612816185d6565b9050919050565b7f446174612063616e6e6f7420626520656d707479000000000000000000000000600082015250565b600061864f6014836179a8565b915061865a82618619565b602082019050919050565b6000602082019050818103600083015261867e81618642565b9050919050565b600061869082616ea1565b915061869b83616ea1565b92508282026186a981616ea1565b915082820484148315176186c0576186bf617e7b565b5b5092915050565b7f4e487b7100000000000000000000000000000000000000000000000000000000600052601260045260246000fd5b600061870182616ea1565b915061870c83616ea1565b92508261871c5761871b6186c7565b5b828204905092915050565b7f416d6f756e74206d7573742062652067726561746572207468616e207a65726f600082015250565b600061875d6020836179a8565b915061876882618727565b602082019050919050565b6000602082019050818103600083015261878c81618750565b9050919050565b7f496e76616c6964206f757470757420746f6b656e206164647265737300000000600082015250565b60006187c9601c836179a8565b91506187d482618793565b602082019050919050565b600060208201905081810360008301526187f8816187bc565b9050919050565b7f496e76616c6964206f757470757420746f6b656e207377617020666565000000600082015250565b6000618835601d836179a8565b9150618840826187ff565b602082019050919050565b6000602082019050818103600083015261886481618828565b9050919050565b600067ffffffffffffffff821115618886576188856174e8565b5b602082029050602081019050919050565b60006188aa6188a58461886b565b617548565b905080838252602082019050602084028301858111156188cd576188cc6181b8565b5b835b818110156188f657806188e28882617c67565b8452602084019350506020810190506188cf565b5050509392505050565b600082601f830112618915576189146174cd565b5b8151618925848260208601618897565b91505092915050565b600067ffffffffffffffff821115618949576189486174e8565b5b602082029050602081019050919050565b600061896d6189688461892e565b617548565b905080838252602082019050602084028301858111156189905761898f6181b8565b5b835b818110156189b957806189a58882617ca9565b845260208401935050602081019050618992565b5050509392505050565b600082601f8301126189d8576189d76174cd565b5b81516189e884826020860161895a565b91505092915050565b600067ffffffffffffffff821115618a0c57618a0b6174e8565b5b602082029050602081019050919050565b6000618a30618a2b846189f1565b617548565b90508083825260208201905060208402830185811115618a5357618a526181b8565b5b835b81811015618a7c5780618a6888826183c0565b845260208401935050602081019050618a55565b5050509392505050565b600082601f830112618a9b57618a9a6174cd565b5b8151618aab848260208601618a1d565b91505092915050565b600067ffffffffffffffff821115618acf57618ace6174e8565b5b602082029050602081019050919050565b6000618af3618aee84618ab4565b617548565b90508083825260208201905060208402830185811115618b1657618b156181b8565b5b835b81811015618b3f5780618b2b8882618402565b845260208401935050602081019050618b18565b5050509392505050565b600082601f830112618b5e57618b5d6174cd565b5b8151618b6e848260208601618ae0565b91505092915050565b60008060008060808587031215618b9157618b90616edf565b5b600085015167ffffffffffffffff811115618baf57618bae616ee4565b5b618bbb87828801618900565b945050602085015167ffffffffffffffff811115618bdc57618bdb616ee4565b5b618be8878288016189c3565b935050604085015167ffffffffffffffff811115618c0957618c08616ee4565b5b618c1587828801618a86565b925050606085015167ffffffffffffffff811115618c3657618c35616ee4565b5b618c4287828801618b49565b91505092959194509250565b7f4e487b7100000000000000000000000000000000000000000000000000000000600052603260045260246000fd5b6000819050919050565b6000618ca2618c9d618c9884618c7d565b617241565b616ea1565b9050919050565b618cb281618c87565b82525050565b6000608082019050618ccd6000830187617128565b618cda6020830186616eab565b618ce76040830185618ca9565b618cf46060830184616eab565b95945050505050565b618d0681617892565b82525050565b6000608082019050618d216000830187617128565b618d2e6020830186617128565b618d3b6040830185618cfd565b618d486060830184617407565b95945050505050565b7f50726f706f7361626c654f776e61626c653a206e6577206f776e65722069732060008201527f6e6f742070726f706f736564206f776e65720000000000000000000000000000602082015250565b6000618dad6032836179a8565b9150618db882618d51565b604082019050919050565b60006020820190508181036000830152618ddc81618da0565b9050919050565b7f50726f706f7361626c654f776e61626c653a20746869732063616c6c206d757360008201527f74206265206d61646520627920746865206e6577206f776e6572000000000000602082015250565b6000618e3f603a836179a8565b9150618e4a82618de3565b604082019050919050565b60006020820190508181036000830152618e6e81618e32565b9050919050565b7f496e76616c696420696e70757420746f6b656e20616464726573730000000000600082015250565b6000618eab601b836179a8565b9150618eb682618e75565b602082019050919050565b60006020820190508181036000830152618eda81618e9e565b9050919050565b7f496e76616c696420696e70757420746f6b656e20737761702066656500000000600082015250565b6000618f17601c836179a8565b9150618f2282618ee1565b602082019050919050565b60006020820190508181036000830152618f4681618f0a565b9050919050565b6000618f5882617042565b9050919050565b618f6881618f4d565b8114618f7357600080fd5b50565b600081519050618f8581618f5f565b92915050565b600060208284031215618fa157618fa0616edf565b5b6000618faf84828501618f76565b91505092915050565b6000618fc382617042565b9050919050565b618fd381618fb8565b8114618fde57600080fd5b50565b600081519050618ff081618fca565b92915050565b60006020828403121561900c5761900b616edf565b5b600061901a84828501618fe1565b91505092915050565b60006060820190506190386000830186617128565b6190456020830185617128565b6190526040830184616eab565b949350505050565b7f546f6b656e207472616e73666572206661696c65640000000000000000000000600082015250565b60006190906015836179a8565b915061909b8261905a565b602082019050919050565b600060208201905081810360008301526190bf81619083565b9050919050565b7f496e697469616c697a61626c653a20636f6e7472616374206973206e6f74206960008201527f6e697469616c697a696e67000000000000000000000000000000000000000000602082015250565b6000619122602b836179a8565b915061912d826190c6565b604082019050919050565b6000602082019050818103600083015261915181619115565b9050919050565b7f4f776e61626c653a2063616c6c6572206973206e6f7420746865206f776e6572600082015250565b600061918e6020836179a8565b915061919982619158565b602082019050919050565b600060208201905081810360008301526191bd81619181565b9050919050565b60008060008060008060c087890312156191e1576191e0616edf565b5b60006191ef89828a01617ca9565b965050602087015167ffffffffffffffff8111156192105761920f616ee4565b5b61921c89828a01618900565b955050604087015167ffffffffffffffff81111561923d5761923c616ee4565b5b61924989828a01618900565b945050606061925a89828a01617ca9565b935050608087015167ffffffffffffffff81111561927b5761927a616ee4565b5b61928789828a016189c3565b92505060a087015167ffffffffffffffff8111156192a8576192a7616ee4565b5b6192b489828a016189c3565b9150509295509295509295565b7f496e76616c696420695f726f7574657220616464726573730000000000000000600082015250565b60006192f76018836179a8565b9150619302826192c1565b602082019050919050565b60006020820190508181036000830152619326816192ea565b9050919050565b7f496e76616c696420695f6c696e6b206164647265737300000000000000000000600082015250565b60006193636016836179a8565b915061936e8261932d565b602082019050919050565b6000602082019050818103600083015261939281619356565b9050919050565b7f496e76616c69642064657374696e6174696f6e436861696e53656c6563746f72600082015250565b60006193cf6020836179a8565b91506193da82619399565b602082019050919050565b600060208201905081810360008301526193fe816193c2565b9050919050565b7f496e76616c696420646174610000000000000000000000000000000000000000600082015250565b600061943b600c836179a8565b915061944682619405565b602082019050919050565b6000602082019050818103600083015261946a8161942e565b9050919050565b7f4e487b7100000000000000000000000000000000000000000000000000000000600052602160045260246000fd5b600081519050919050565b600082825260208201905092915050565b60005b838110156194da5780820151818401526020810190506194bf565b60008484015250505050565b60006194f1826194a0565b6194fb81856194ab565b935061950b8185602086016194bc565b619514816174d7565b840191505092915050565b600081519050919050565b600082825260208201905092915050565b6000819050602082019050919050565b61955481617042565b82525050565b61956381616ea1565b82525050565b60408201600082015161957f600085018261954b565b506020820151619592602085018261955a565b50505050565b60006195a48383619569565b60408301905092915050565b6000602082019050919050565b60006195c88261951f565b6195d2818561952a565b93506195dd8361953b565b8060005b8381101561960e5781516195f58882619598565b9750619600836195b0565b9250506001810190506195e1565b5085935050505092915050565b600060a083016000830151848203600086015261963882826194e6565b9150506020830151848203602086015261965282826194e6565b9150506040830151848203604086015261966c82826195bd565b9150506060830151619681606086018261954b565b506080830151848203608086015261969982826194e6565b9150508091505092915050565b60006040820190506196bb6000830185617217565b81810360208301526196cd818461961b565b90509392505050565b6000815190506196e581618160565b92915050565b60006020828403121561970157619700616edf565b5b600061970f848285016196d6565b91505092915050565b60006020828403121561972e5761972d616edf565b5b600082015167ffffffffffffffff81111561974c5761974b616ee4565b5b61975884828501618900565b91505092915050565b60006020828403121561977757619776616edf565b5b600082015167ffffffffffffffff81111561979557619794616ee4565b5b6197a1848285016189c3565b91505092915050565b600081519050919050565b600082825260208201905092915050565b6000819050602082019050919050565b60006197e2838361954b565b60208301905092915050565b6000602082019050919050565b6000619806826197aa565b61981081856197b5565b935061981b836197c6565b8060005b8381101561984c57815161983388826197d6565b975061983e836197ee565b92505060018101905061981f565b5085935050505092915050565b600081519050919050565b600082825260208201905092915050565b6000819050602082019050919050565b6000619891838361955a565b60208301905092915050565b6000602082019050919050565b60006198b582619859565b6198bf8185619864565b93506198ca83619875565b8060005b838110156198fb5781516198e28882619885565b97506198ed8361989d565b9250506001810190506198ce565b5085935050505092915050565b60006101008201905061991e600083018b617c3d565b8181036020830152619930818a6197fb565b9050818103604083015261994481896197fb565b9050818103606083015261995881886198aa565b9050818103608083015261996c81876198aa565b905061997b60a0830186616eab565b81810360c083015261998d81856198aa565b905081810360e08301526199a181846198aa565b90509998505050505050505050565b60006199bb82617042565b9050919050565b6199cb816199b0565b81146199d657600080fd5b50565b6000815190506199e8816199c2565b92915050565b600060208284031215619a0457619a03616edf565b5b6000619a12848285016199d9565b91505092915050565b6000619a2682617042565b9050919050565b619a3681619a1b565b8114619a4157600080fd5b50565b600081519050619a5381619a2d565b92915050565b600060208284031215619a6f57619a6e616edf565b5b6000619a7d84828501619a44565b91505092915050565b6000604082019050619a9b6000830185616eab565b619aa86020830184617217565b9392505050565b6000619aca619ac5619ac084618c7d565b617241565b6172fb565b9050919050565b619ada81619aaf565b82525050565b600061010082019050619af6600083018b619ad1565b8181036020830152619b08818a6197fb565b90508181036040830152619b1c81896197fb565b90508181036060830152619b3081886198aa565b90508181036080830152619b4481876198aa565b9050619b5360a0830186616eab565b81810360c0830152619b6581856198aa565b905081810360e0830152619b7981846198aa565b90509998505050505050505050565b602082016000820151619b9e600085018261955a565b50505050565b6000602082019050619bb96000830184619b88565b92915050565b7f496e76616c696420746f6b656e496e2061646472657373000000000000000000600082015250565b6000619bf56017836179a8565b9150619c0082619bbf565b602082019050919050565b60006020820190508181036000830152619c2481619be8565b9050919050565b7f496e76616c696420746f6b656e4f757420616464726573730000000000000000600082015250565b6000619c616018836179a8565b9150619c6c82619c2b565b602082019050919050565b60006020820190508181036000830152619c9081619c54565b9050919050565b6000608082019050619cac6000830187617128565b619cb96020830186616eab565b619cc66040830185616eab565b619cd36060830184616eab565b95945050505050565b600081905092915050565b50565b6000619cf7600083619cdc565b9150619d0282619ce7565b600082019050919050565b6000619d1882619cea565b9150819050919050565b7f7472616e736665722065746820746f207468652072657175657374657220666160008201527f696c656400000000000000000000000000000000000000000000000000000000602082015250565b6000619d7e6024836179a8565b9150619d8982619d22565b604082019050919050565b60006020820190508181036000830152619dad81619d71565b9050919050565b619dbd816173f8565b82525050565b619dcc81616fe4565b82525050565b61010082016000820151619de9600085018261954b565b506020820151619dfc602085018261954b565b506040820151619e0f6040850182619db4565b506060820151619e22606085018261954b565b506080820151619e35608085018261955a565b5060a0820151619e4860a085018261955a565b5060c0820151619e5b60c085018261955a565b5060e0820151619e6e60e0850182619dc3565b50505050565b600061010082019050619e8a6000830184619dd2565b92915050565b6000604082019050619ea56000830185616eab565b8181036020830152619eb781846197fb565b90509392505050565b600060a082019050619ed56000830188616eab565b619ee26020830187618ca9565b8181036040830152619ef481866197fb565b9050619f036060830185617128565b619f106080830184616eab565b9695505050505050565b7f5265656e7472616e637947756172643a207265656e7472616e742063616c6c00600082015250565b6000619f50601f836179a8565b9150619f5b82619f1a565b602082019050919050565b60006020820190508181036000830152619f7f81619f43565b9050919050565b7f4d6178696d756d203520646966666572656e7420746f6b656e732063616e206260008201527f652073656e74207065722043434950204d657373616765000000000000000000602082015250565b6000619fe26037836179a8565b9150619fed82619f86565b604082019050919050565b6000602082019050818103600083015261a01181619fd5565b905091905056fea26469706673582212200883926c8316a1cd540381355b2d70996b2f996389bca6b0510be3cb1098a76164736f6c634300081a0033","linkReferences":{}},"methodIdentifiers":{"MAX_FEE_RATE()":"92f6576e","MAX_TOKENS_LENGTH()":"d28c00fc","MIN_FEE_RATE()":"58c0f10d","MIN_FEE_UPDATE_INTERVAL()":"c9172ef7","ccipReceive((bytes32,uint64,bytes,bytes,(address,uint256)[]))":"85572ffb","convertEthToUsd(uint256)":"c086381e","crossChainFactoryBySelector(uint64)":"340fbc74","crossChainToken(uint64)":"19da7e2a","crossChainTokenSwapFee(uint64)":"9ff73f45","currentChainSelector()":"3d54cb6f","estimateAmountOut(address,address,uint128,uint24)":"ee7bd3e2","factoryStorage()":"c06e1ae2","feeRate()":"978bbdb9","feeReceiver()":"b3f00674","getAmountOut(address,address,uint256,uint24)":"dd811ac9","getPortfolioBalance()":"a8509fd8","getRouter()":"b0f479a1","i_link()":"7d253aff","indexToken()":"e7d015f2","initialize(uint64,address,address,address,address)":"16b487ff","issuanceData(uint256)":"2d6fc6b3","issuanceIndexTokens(address,uint256,uint256,uint24)":"fd485101","issuanceIndexTokensWithEth(uint256,uint256)":"41d11817","issuanceNonce()":"9dbb9c9e","latestFeeUpdate()":"011ced5f","owner()":"8da5cb5b","priceInWei()":"3c8da588","proposeOwner(address)":"b5ed298a","proposedOwner()":"d153b60c","redemption(uint256,uint256,address,uint24)":"d0586d71","redemptionData(uint256)":"aa4379c0","redemptionNonce()":"84d77bb1","renounceOwnership()":"715018a6","sendMessage(uint64,address,bytes,uint8)":"bcab90b3","setFeeRate(uint8)":"5177942a","setFeeReceiver(address)":"efdcd974","setIndexFactoryStorage(address)":"cc8659ae","supportsInterface(bytes4)":"01ffc9a7","transferOwnership(address)":"f2fde38b","weth()":"3fc8cef3"},"id":3}