{"abi":[{"type":"receive","stateMutability":"payable"},{"type":"function","name":"ccipReceive","inputs":[{"name":"message","type":"tuple","internalType":"struct Client.Any2EVMMessage","components":[{"name":"messageId","type":"bytes32","internalType":"bytes32"},{"name":"sourceChainSelector","type":"uint64","internalType":"uint64"},{"name":"sender","type":"bytes","internalType":"bytes"},{"name":"data","type":"bytes","internalType":"bytes"},{"name":"destTokenAmounts","type":"tuple[]","internalType":"struct Client.EVMTokenAmount[]","components":[{"name":"token","type":"address","internalType":"address"},{"name":"amount","type":"uint256","internalType":"uint256"}]}]}],"outputs":[],"stateMutability":"nonpayable"},{"type":"function","name":"convertEthToUsd","inputs":[{"name":"_ethAmount","type":"uint256","internalType":"uint256"}],"outputs":[{"name":"","type":"uint256","internalType":"uint256"}],"stateMutability":"view"},{"type":"function","name":"crossChainFactoryBySelector","inputs":[{"name":"_chainSelector","type":"uint64","internalType":"uint64"}],"outputs":[{"name":"","type":"address","internalType":"address"}],"stateMutability":"view"},{"type":"function","name":"crossChainToken","inputs":[{"name":"_chainSelector","type":"uint64","internalType":"uint64"}],"outputs":[{"name":"","type":"address","internalType":"address"}],"stateMutability":"view"},{"type":"function","name":"crossChainTokenSwapVersion","inputs":[{"name":"_chainSelector","type":"uint64","internalType":"uint64"}],"outputs":[{"name":"","type":"uint256","internalType":"uint256"}],"stateMutability":"view"},{"type":"function","name":"currentChainSelector","inputs":[],"outputs":[{"name":"","type":"uint64","internalType":"uint64"}],"stateMutability":"view"},{"type":"function","name":"estimateAmountOut","inputs":[{"name":"tokenIn","type":"address","internalType":"address"},{"name":"tokenOut","type":"address","internalType":"address"},{"name":"amountIn","type":"uint128","internalType":"uint128"}],"outputs":[{"name":"amountOut","type":"uint256","internalType":"uint256"}],"stateMutability":"view"},{"type":"function","name":"feeRate","inputs":[],"outputs":[{"name":"","type":"uint8","internalType":"uint8"}],"stateMutability":"view"},{"type":"function","name":"getAmountOut","inputs":[{"name":"tokenIn","type":"address","internalType":"address"},{"name":"tokenOut","type":"address","internalType":"address"},{"name":"amountIn","type":"uint256","internalType":"uint256"},{"name":"_swapVersion","type":"uint256","internalType":"uint256"}],"outputs":[{"name":"finalAmountOut","type":"uint256","internalType":"uint256"}],"stateMutability":"view"},{"type":"function","name":"getPortfolioBalance","inputs":[],"outputs":[{"name":"","type":"uint256","internalType":"uint256"}],"stateMutability":"view"},{"type":"function","name":"getRouter","inputs":[],"outputs":[{"name":"","type":"address","internalType":"address"}],"stateMutability":"view"},{"type":"function","name":"i_link","inputs":[],"outputs":[{"name":"","type":"address","internalType":"address"}],"stateMutability":"view"},{"type":"function","name":"i_maxTokensLength","inputs":[],"outputs":[{"name":"","type":"uint16","internalType":"uint16"}],"stateMutability":"view"},{"type":"function","name":"indexFactoryStorage","inputs":[],"outputs":[{"name":"","type":"address","internalType":"contract IndexFactoryStorage"}],"stateMutability":"view"},{"type":"function","name":"indexToken","inputs":[],"outputs":[{"name":"","type":"address","internalType":"contract IndexToken"}],"stateMutability":"view"},{"type":"function","name":"initialize","inputs":[{"name":"_currentChainSelector","type":"uint64","internalType":"uint64"},{"name":"_token","type":"address","internalType":"address payable"},{"name":"_chainlinkToken","type":"address","internalType":"address"},{"name":"_router","type":"address","internalType":"address"},{"name":"_weth","type":"address","internalType":"address"}],"outputs":[],"stateMutability":"nonpayable"},{"type":"function","name":"issuanceCompletedTokensCount","inputs":[{"name":"","type":"uint256","internalType":"uint256"}],"outputs":[{"name":"","type":"uint256","internalType":"uint256"}],"stateMutability":"view"},{"type":"function","name":"issuanceIndexTokens","inputs":[{"name":"_tokenIn","type":"address","internalType":"address"},{"name":"_inputAmount","type":"uint256","internalType":"uint256"},{"name":"_crossChainFee","type":"uint256","internalType":"uint256"},{"name":"_tokenInSwapVersion","type":"uint256","internalType":"uint256"}],"outputs":[],"stateMutability":"nonpayable"},{"type":"function","name":"issuanceIndexTokensWithEth","inputs":[{"name":"_inputAmount","type":"uint256","internalType":"uint256"},{"name":"_crossChainFee","type":"uint256","internalType":"uint256"}],"outputs":[],"stateMutability":"payable"},{"type":"function","name":"issuanceInputAmount","inputs":[{"name":"","type":"uint256","internalType":"uint256"}],"outputs":[{"name":"","type":"uint256","internalType":"uint256"}],"stateMutability":"view"},{"type":"function","name":"issuanceInputToken","inputs":[{"name":"","type":"uint256","internalType":"uint256"}],"outputs":[{"name":"","type":"address","internalType":"address"}],"stateMutability":"view"},{"type":"function","name":"issuanceMessageIdByNonce","inputs":[{"name":"","type":"uint256","internalType":"uint256"}],"outputs":[{"name":"","type":"bytes32","internalType":"bytes32"}],"stateMutability":"view"},{"type":"function","name":"issuanceNonce","inputs":[],"outputs":[{"name":"","type":"uint256","internalType":"uint256"}],"stateMutability":"view"},{"type":"function","name":"issuanceNonceRequester","inputs":[{"name":"","type":"uint256","internalType":"uint256"}],"outputs":[{"name":"","type":"address","internalType":"address"}],"stateMutability":"view"},{"type":"function","name":"issuanceTokenOldAndNewValues","inputs":[{"name":"","type":"uint256","internalType":"uint256"},{"name":"","type":"address","internalType":"address"}],"outputs":[{"name":"oldTokenValue","type":"uint256","internalType":"uint256"},{"name":"newTokenValue","type":"uint256","internalType":"uint256"}],"stateMutability":"view"},{"type":"function","name":"latestFeeUpdate","inputs":[],"outputs":[{"name":"","type":"uint256","internalType":"uint256"}],"stateMutability":"view"},{"type":"function","name":"owner","inputs":[],"outputs":[{"name":"","type":"address","internalType":"address"}],"stateMutability":"view"},{"type":"function","name":"portfolioTotalValueByNonce","inputs":[{"name":"","type":"uint256","internalType":"uint256"}],"outputs":[{"name":"","type":"uint256","internalType":"uint256"}],"stateMutability":"view"},{"type":"function","name":"priceInWei","inputs":[],"outputs":[{"name":"","type":"uint256","internalType":"uint256"}],"stateMutability":"view"},{"type":"function","name":"proposeOwner","inputs":[{"name":"_proposedOwner","type":"address","internalType":"address"}],"outputs":[],"stateMutability":"nonpayable"},{"type":"function","name":"proposedOwner","inputs":[],"outputs":[{"name":"","type":"address","internalType":"address"}],"stateMutability":"view"},{"type":"function","name":"redemption","inputs":[{"name":"amountIn","type":"uint256","internalType":"uint256"},{"name":"_crossChainFee","type":"uint256","internalType":"uint256"},{"name":"_tokenOut","type":"address","internalType":"address"},{"name":"_tokenOutSwapVersion","type":"uint256","internalType":"uint256"}],"outputs":[],"stateMutability":"nonpayable"},{"type":"function","name":"redemptionCompletedTokensCount","inputs":[{"name":"","type":"uint256","internalType":"uint256"}],"outputs":[{"name":"","type":"uint256","internalType":"uint256"}],"stateMutability":"view"},{"type":"function","name":"redemptionInputAmount","inputs":[{"name":"","type":"uint256","internalType":"uint256"}],"outputs":[{"name":"","type":"uint256","internalType":"uint256"}],"stateMutability":"view"},{"type":"function","name":"redemptionMessageIdByNonce","inputs":[{"name":"","type":"uint256","internalType":"uint256"}],"outputs":[{"name":"","type":"bytes32","internalType":"bytes32"}],"stateMutability":"view"},{"type":"function","name":"redemptionNonce","inputs":[],"outputs":[{"name":"","type":"uint256","internalType":"uint256"}],"stateMutability":"view"},{"type":"function","name":"redemptionNonceOutputToken","inputs":[{"name":"","type":"uint256","internalType":"uint256"}],"outputs":[{"name":"","type":"address","internalType":"address"}],"stateMutability":"view"},{"type":"function","name":"redemptionNonceOutputTokenSwapVersion","inputs":[{"name":"","type":"uint256","internalType":"uint256"}],"outputs":[{"name":"","type":"uint256","internalType":"uint256"}],"stateMutability":"view"},{"type":"function","name":"redemptionNonceRequester","inputs":[{"name":"","type":"uint256","internalType":"uint256"}],"outputs":[{"name":"","type":"address","internalType":"address"}],"stateMutability":"view"},{"type":"function","name":"redemptionNonceTotalValue","inputs":[{"name":"","type":"uint256","internalType":"uint256"}],"outputs":[{"name":"","type":"uint256","internalType":"uint256"}],"stateMutability":"view"},{"type":"function","name":"redemptionOutputToken","inputs":[{"name":"","type":"uint256","internalType":"uint256"}],"outputs":[{"name":"","type":"address","internalType":"address"}],"stateMutability":"view"},{"type":"function","name":"renounceOwnership","inputs":[],"outputs":[],"stateMutability":"nonpayable"},{"type":"function","name":"sendMessage","inputs":[{"name":"destinationChainSelector","type":"uint64","internalType":"uint64"},{"name":"receiver","type":"address","internalType":"address"},{"name":"_data","type":"bytes","internalType":"bytes"},{"name":"payFeesIn","type":"uint8","internalType":"enum IndexFactory.PayFeesIn"}],"outputs":[{"name":"","type":"bytes32","internalType":"bytes32"}],"stateMutability":"nonpayable"},{"type":"function","name":"setFeeRate","inputs":[{"name":"_newFee","type":"uint8","internalType":"uint8"}],"outputs":[],"stateMutability":"nonpayable"},{"type":"function","name":"setIndexFactoryStorage","inputs":[{"name":"_indexFactoryStorage","type":"address","internalType":"address"}],"outputs":[],"stateMutability":"nonpayable"},{"type":"function","name":"supportsInterface","inputs":[{"name":"interfaceId","type":"bytes4","internalType":"bytes4"}],"outputs":[{"name":"","type":"bool","internalType":"bool"}],"stateMutability":"pure"},{"type":"function","name":"tokenValueByNonce","inputs":[{"name":"","type":"uint256","internalType":"uint256"},{"name":"","type":"address","internalType":"address"}],"outputs":[{"name":"","type":"uint256","internalType":"uint256"}],"stateMutability":"view"},{"type":"function","name":"transferOwnership","inputs":[{"name":"newOwner","type":"address","internalType":"address"}],"outputs":[],"stateMutability":"nonpayable"},{"type":"function","name":"updatePortfolioNonce","inputs":[],"outputs":[{"name":"","type":"uint256","internalType":"uint256"}],"stateMutability":"view"},{"type":"function","name":"updatedTokensValueCount","inputs":[{"name":"","type":"uint256","internalType":"uint256"}],"outputs":[{"name":"","type":"uint256","internalType":"uint256"}],"stateMutability":"view"},{"type":"function","name":"weth","inputs":[],"outputs":[{"name":"","type":"address","internalType":"contract IWETH"}],"stateMutability":"view"},{"type":"event","name":"Initialized","inputs":[{"name":"version","type":"uint8","indexed":false,"internalType":"uint8"}],"anonymous":false},{"type":"event","name":"Issuanced","inputs":[{"name":"messageId","type":"bytes32","indexed":true,"internalType":"bytes32"},{"name":"nonce","type":"uint256","indexed":true,"internalType":"uint256"},{"name":"user","type":"address","indexed":true,"internalType":"address"},{"name":"inputToken","type":"address","indexed":false,"internalType":"address"},{"name":"inputAmount","type":"uint256","indexed":false,"internalType":"uint256"},{"name":"outputAmount","type":"uint256","indexed":false,"internalType":"uint256"},{"name":"time","type":"uint256","indexed":false,"internalType":"uint256"}],"anonymous":false},{"type":"event","name":"MessageSent","inputs":[{"name":"messageId","type":"bytes32","indexed":false,"internalType":"bytes32"}],"anonymous":false},{"type":"event","name":"OwnershipTransferred","inputs":[{"name":"previousOwner","type":"address","indexed":true,"internalType":"address"},{"name":"newOwner","type":"address","indexed":true,"internalType":"address"}],"anonymous":false},{"type":"event","name":"Redemption","inputs":[{"name":"messageId","type":"bytes32","indexed":true,"internalType":"bytes32"},{"name":"nonce","type":"uint256","indexed":true,"internalType":"uint256"},{"name":"user","type":"address","indexed":true,"internalType":"address"},{"name":"outputToken","type":"address","indexed":false,"internalType":"address"},{"name":"inputAmount","type":"uint256","indexed":false,"internalType":"uint256"},{"name":"outputAmount","type":"uint256","indexed":false,"internalType":"uint256"},{"name":"time","type":"uint256","indexed":false,"internalType":"uint256"}],"anonymous":false},{"type":"event","name":"RequestIssuance","inputs":[{"name":"messageId","type":"bytes32","indexed":true,"internalType":"bytes32"},{"name":"nonce","type":"uint256","indexed":true,"internalType":"uint256"},{"name":"user","type":"address","indexed":true,"internalType":"address"},{"name":"inputToken","type":"address","indexed":false,"internalType":"address"},{"name":"inputAmount","type":"uint256","indexed":false,"internalType":"uint256"},{"name":"outputAmount","type":"uint256","indexed":false,"internalType":"uint256"},{"name":"time","type":"uint256","indexed":false,"internalType":"uint256"}],"anonymous":false},{"type":"event","name":"RequestRedemption","inputs":[{"name":"messageId","type":"bytes32","indexed":true,"internalType":"bytes32"},{"name":"nonce","type":"uint256","indexed":true,"internalType":"uint256"},{"name":"user","type":"address","indexed":true,"internalType":"address"},{"name":"outputToken","type":"address","indexed":false,"internalType":"address"},{"name":"inputAmount","type":"uint256","indexed":false,"internalType":"uint256"},{"name":"outputAmount","type":"uint256","indexed":false,"internalType":"uint256"},{"name":"time","type":"uint256","indexed":false,"internalType":"uint256"}],"anonymous":false},{"type":"error","name":"InvalidRouter","inputs":[{"name":"router","type":"address","internalType":"address"}]}],"bytecode":{"object":"0x608060405234801561001057600080fd5b50600160985561554b806100256000396000f3fe6080604052600436106102e75760003560e01c806381b1527911610190578063b316e7fd116100dc578063cc8659ae11610095578063d1f7a9911161006f578063d1f7a99114610a32578063e7d015f214610a52578063f07bb85514610a72578063f2fde38b14610a9f57600080fd5b8063cc8659ae146109c5578063cf9ee319146109e5578063d153b60c14610a1257600080fd5b8063b316e7fd146108ca578063b5ed298a14610902578063bcab90b314610922578063c070a09714610942578063c086381e1461096f578063c3a755b41461098f57600080fd5b8063978bbdb9116101495780639dbb9c9e116101235780639dbb9c9e14610845578063a3d0ac781461085b578063a8509fd814610891578063b0f479a1146108a657600080fd5b8063978bbdb9146107c55780639ad1c356146107f85780639cf545211461081857600080fd5b806381b15279146106c357806384d77bb11461071757806385572ffb1461072d5780638da5cb5b1461074d5780639121c7171461076b578063940373691461079857600080fd5b80633c8da5881161024f5780634c776de711610208578063715018a6116101e2578063715018a61461063457806372bc260c146106495780637d253aff146106765780637d3546f71461069657600080fd5b80634c776de7146105a95780635177942a146105df5780635b6a0351146105ff57600080fd5b80633c8da588146104bf5780633d54cb6f146104d45780633fc8cef31461050c5780633fef75451461053357806341d1181714610569578063487843031461057c57600080fd5b806313cb1f83116102a157806313cb1f83146103f257806316b487ff1461041257806319da7e2a14610432578063306b3a2814610452578063326f6fb21461047f578063340fbc741461049f57600080fd5b80623cf402146102f3578063011ced5f1461031c57806301ffc9a7146103325780630456f9c8146103625780630603fb051461038257806309445ad4146103d057600080fd5b366102ee57005b600080fd5b3480156102ff57600080fd5b5061030960a05481565b6040519081526020015b60405180910390f35b34801561032857600080fd5b50610309609c5481565b34801561033e57600080fd5b5061035261034d366004614c4f565b610abf565b6040519015158152602001610313565b34801561036e57600080fd5b5061030961037d366004614ad4565b610af6565b34801561038e57600080fd5b506103b861039d366004614cb3565b60ac602052600090815260409020546001600160a01b031681565b6040516001600160a01b039091168152602001610313565b3480156103dc57600080fd5b506103f06103eb366004614ddc565b610b92565b005b3480156103fe57600080fd5b5061030961040d366004614b2b565b610ff3565b34801561041e57600080fd5b506103f061042d366004614e55565b611083565b34801561043e57600080fd5b506103b861044d366004614e1b565b6112c5565b34801561045e57600080fd5b5061030961046d366004614cb3565b60ab6020526000908152604090205481565b34801561048b57600080fd5b5061030961049a366004614e1b565b61134b565b3480156104ab57600080fd5b506103b86104ba366004614e1b565b6113ec565b3480156104cb57600080fd5b50610309611426565b3480156104e057600080fd5b50609d546104f4906001600160401b031681565b6040516001600160401b039091168152602001610313565b34801561051857600080fd5b50609d546103b890600160401b90046001600160a01b031681565b34801561053f57600080fd5b506103b861054e366004614cb3565b60a6602052600090815260409020546001600160a01b031681565b6103f0610577366004614dba565b6114a8565b34801561058857600080fd5b50610309610597366004614cb3565b60a56020526000908152604090205481565b3480156105b557600080fd5b506103b86105c4366004614cb3565b60af602052600090815260409020546001600160a01b031681565b3480156105eb57600080fd5b506103f06105fa366004614f3e565b6116c5565b34801561060b57600080fd5b50609a5461062190600160a01b900461ffff1681565b60405161ffff9091168152602001610313565b34801561064057600080fd5b506103f061180f565b34801561065557600080fd5b50610309610664366004614cb3565b60ad6020526000908152604090205481565b34801561068257600080fd5b50609a546103b8906001600160a01b031681565b3480156106a257600080fd5b506103096106b1366004614cb3565b60a76020526000908152604090205481565b3480156106cf57600080fd5b506107026106de366004614ccc565b60a16020908152600092835260408084209091529082529020805460019091015482565b60408051928352602083019190915201610313565b34801561072357600080fd5b50610309609f5481565b34801561073957600080fd5b506103f0610748366004614c79565b611823565b34801561075957600080fd5b506033546001600160a01b03166103b8565b34801561077757600080fd5b50610309610786366004614cb3565b60aa6020526000908152604090205481565b3480156107a457600080fd5b506103096107b3366004614cb3565b60a26020526000908152604090205481565b3480156107d157600080fd5b50609b546107e690600160a01b900460ff1681565b60405160ff9091168152602001610313565b34801561080457600080fd5b506103f0610813366004614b71565b61186a565b34801561082457600080fd5b50610309610833366004614cb3565b60b06020526000908152604090205481565b34801561085157600080fd5b50610309609e5481565b34801561086757600080fd5b506103b8610876366004614cb3565b60a3602052600090815260409020546001600160a01b031681565b34801561089d57600080fd5b50610309611a64565b3480156108b257600080fd5b506000546201000090046001600160a01b03166103b8565b3480156108d657600080fd5b506103096108e5366004614ccc565b60a960209081526000928352604080842090915290825290205481565b34801561090e57600080fd5b506103f061091d366004614a9a565b611e7d565b34801561092e57600080fd5b5061030961093d366004614ec6565b611ecd565b34801561094e57600080fd5b5061030961095d366004614cb3565b60a86020526000908152604090205481565b34801561097b57600080fd5b5061030961098a366004614cb3565b6121b7565b34801561099b57600080fd5b506103b86109aa366004614cb3565b60b1602052600090815260409020546001600160a01b031681565b3480156109d157600080fd5b506103f06109e0366004614a9a565b6121de565b3480156109f157600080fd5b50610309610a00366004614cb3565b60ae6020526000908152604090205481565b348015610a1e57600080fd5b506065546103b8906001600160a01b031681565b348015610a3e57600080fd5b506099546103b8906001600160a01b031681565b348015610a5e57600080fd5b50609b546103b8906001600160a01b031681565b348015610a7e57600080fd5b50610309610a8d366004614cb3565b60a46020526000908152604090205481565b348015610aab57600080fd5b506103f0610aba366004614a9a565b612208565b60006001600160e01b031982166385572ffb60e01b1480610af057506001600160e01b031982166301ffc9a760e01b145b92915050565b609954604051628adf3960e31b81526001600160a01b03858116600483015284811660248301526001600160801b03841660448301526000921690630456f9c89060640160206040518083038186803b158015610b5257600080fd5b505afa158015610b66573d6000803e3d6000fd5b505050506040513d601f19601f82011682018060405250810190610b8a9190614c36565b949350505050565b609b54604080516318160ddd60e01b815290516000926001600160a01b0316916318160ddd916004808301926020929190829003018186803b158015610bd757600080fd5b505afa158015610beb573d6000803e3d6000fd5b505050506040513d601f19601f82011682018060405250810190610c0f9190614c36565b610c2186670de0b6b3a7640000615396565b610c2b9190615374565b90506001609f6000828254610c40919061535c565b9091555050609f8054600090815260a6602090815260408083208054336001600160a01b031991821681179092558554855260ac8452828520805482166001600160a01b038b81169182179092558754875260ad86528487208a90558754875260b086528487208d90559654865260b1909452938290208054909416909417909255609b549151632770a7eb60e21b81526004810193909352602483018890521690639dc29fac90604401600060405180830381600087803b158015610d0557600080fd5b505af1158015610d19573d6000803e3d6000fd5b505050506000609960009054906101000a90046001600160a01b03166001600160a01b03166369487b1c6040518163ffffffff1660e01b815260040160206040518083038186803b158015610d6d57600080fd5b505afa158015610d81573d6000803e3d6000fd5b505050506040513d601f19601f82011682018060405250810190610da59190614c36565b90506000609960009054906101000a90046001600160a01b03166001600160a01b031663b90b8a2a6040518163ffffffff1660e01b815260040160206040518083038186803b158015610df757600080fd5b505afa158015610e0b573d6000803e3d6000fd5b505050506040513d601f19601f82011682018060405250810190610e2f9190614c36565b905060005b82811015610f9757609954604051636dab0c9160e11b815260048101849052602481018390526000916001600160a01b03169063db5619229060440160206040518083038186803b158015610e8857600080fd5b505afa158015610e9c573d6000803e3d6000fd5b505050506040513d601f19601f82011682018060405250810190610ec09190614e38565b609954604051637e34c5a560e11b81526001600160401b03831660048201529192506000916001600160a01b039091169063fc698b4a9060240160206040518083038186803b158015610f1257600080fd5b505afa158015610f26573d6000803e3d6000fd5b505050506040513d601f19601f82011682018060405250810190610f4a9190614c36565b609d549091506001600160401b0383811691161415610f7557610f7086609f548361232d565b610f82565b610f8286609f54846125f2565b50508080610f8f90615478565b915050610e34565b50609f54600081815260ab60205260408082205490513393927f4f9e9bfb3670784096375593cb821e86bd88b1fcb08efc38330012d8c33c3e3691610fe2918b918e9190429061504b565b60405180910390a450505050505050565b6099546040516313cb1f8360e01b81526000916001600160a01b0316906313cb1f839061102a908890889088908890600401615022565b60206040518083038186803b15801561104257600080fd5b505afa158015611056573d6000803e3d6000fd5b505050506040513d601f19601f8201168201806040525081019061107a9190614c36565b95945050505050565b600054610100900460ff16158080156110a35750600054600160ff909116105b806110bd5750303b1580156110bd575060005460ff166001145b6111255760405162461bcd60e51b815260206004820152602e60248201527f496e697469616c697a61626c653a20636f6e747261637420697320616c72656160448201526d191e481a5b9a5d1a585b1a5e995960921b60648201526084015b60405180910390fd5b6000805460ff191660011790558015611148576000805461ff0019166101001790555b61115183612862565b6111596128dd565b609d805467ffffffffffffffff19166001600160401b038816179055609b80546001600160a01b0319166001600160a01b0387811691909117909155609a80548683166001600160b01b03199091168117600560a01b1790915560005460405163095ea7b360e01b815262010000909104909216600483015260001960248301529063095ea7b390604401602060405180830381600087803b1580156111fe57600080fd5b505af1158015611212573d6000803e3d6000fd5b505050506040513d601f19601f820116820180604052508101906112369190614c14565b50609d805468010000000000000000600160e01b031916600160401b6001600160a01b03851602179055609b805460ff60a01b1916600560a11b17905542609c5580156112bd576000805461ff0019169055604051600181527f7f26b83ff96e1f2b6a682f133852f6798a09c465da95921460cefb38474024989060200160405180910390a15b505050505050565b609954604051630ced3f1560e11b81526001600160401b03831660048201526000916001600160a01b0316906319da7e2a906024015b60206040518083038186803b15801561131357600080fd5b505afa158015611327573d6000803e3d6000fd5b505050506040513d601f19601f82011682018060405250810190610af09190614ab7565b600080611357836112c5565b609954604051630174cbe560e41b81526001600160401b03861660048201526001600160a01b03808416602483015292935091169063174cbe509060440160206040518083038186803b1580156113ad57600080fd5b505afa1580156113c1573d6000803e3d6000fd5b505050506040513d601f19601f820116820180604052508101906113e59190614c36565b9392505050565b609954604051630d03ef1d60e21b81526001600160401b03831660048201526000916001600160a01b03169063340fbc74906024016112fb565b60995460408051630791b4b160e31b815290516000926001600160a01b031691633c8da588916004808301926020929190829003018186803b15801561146b57600080fd5b505afa15801561147f573d6000803e3d6000fd5b505050506040513d601f19601f820116820180604052508101906114a39190614c36565b905090565b6114b061290c565b609b54600090612710906114ce90600160a01b900460ff1685615396565b6114d89190615374565b90506000826114e7838661535c565b6114f1919061535c565b9050803410156115435760405162461bcd60e51b815260206004820152601a60248201527f6c6f776572207468616e20726571756972656420616d6f756e74000000000000604482015260640161111c565b60006115576033546001600160a01b031690565b6001600160a01b03168360405160006040518083038185875af1925050503d80600081146115a1576040519150601f19603f3d011682016040523d82523d6000602084013e6115a6565b606091505b50509050806115c75760405162461bcd60e51b815260040161111c90615107565b609d54600160401b90046001600160a01b031663d0e30db06115e9868861535c565b6040518263ffffffff1660e01b81526004016000604051808303818588803b15801561161457600080fd5b505af1158015611628573d6000803e3d6000fd5b5050609e8054935091506000905061163f83615478565b9091555050609e8054600090815260a3602090815260408083208054336001600160a01b0319918216179091558454845260ae83528184208a9055609d80549554855260af909352922080546001600160a01b03600160401b95869004811691909416179055546116b4929004168686612966565b5050506116c16001609855565b5050565b6116cd612cd1565b6000609c54426116dd91906153b5565b9050600c603c6116ed8184615374565b6116f79190615374565b1161176a5760405162461bcd60e51b815260206004820152603960248201527f596f752073686f756c642077616974206174206c6561737420313220686f757260448201527f7320616674657220746865206c61746573742075706461746500000000000000606482015260840161111c565b60648260ff1611158015611782575060018260ff1610155b6117ea5760405162461bcd60e51b815260206004820152603360248201527f546865206e65774665652073686f756c64206265206265747765656e203120616044820152726e64203130302028302e303125202d2031252960681b606482015260840161111c565b50609b805460ff909216600160a01b0260ff60a01b1990921691909117905542609c55565b611817612cd1565b6118216000612d2b565b565b6000546201000090046001600160a01b03163314611856576040516335fdcccd60e21b815233600482015260240161111c565b611867611862826153cc565b612d7d565b50565b609b546000906127109061188890600160a01b900460ff1686615396565b6118929190615374565b609b546040516323b872dd60e01b81523360048201526001600160a01b039182166024820152604481018790529192508616906323b872dd90606401602060405180830381600087803b1580156118e857600080fd5b505af11580156118fc573d6000803e3d6000fd5b505050506040513d601f19601f820116820180604052508101906119209190614c14565b50846001600160a01b03166323b872dd336119436033546001600160a01b031690565b6040516001600160e01b031960e085901b1681526001600160a01b0392831660048201529116602482015260448101849052606401602060405180830381600087803b15801561199257600080fd5b505af11580156119a6573d6000803e3d6000fd5b505050506040513d601f19601f820116820180604052508101906119ca9190614c14565b5060006119ef86609d60089054906101000a90046001600160a01b0316873087612e71565b609e80549192506000611a0183615478565b9091555050609e8054600090815260a3602090815260408083208054336001600160a01b0319918216179091558454845260ae83528184208a90559354835260af909152902080549091166001600160a01b0388161790556112bd868286612966565b6000806000609960009054906101000a90046001600160a01b03166001600160a01b03166353fd43326040518163ffffffff1660e01b815260040160206040518083038186803b158015611ab757600080fd5b505afa158015611acb573d6000803e3d6000fd5b505050506040513d601f19601f82011682018060405250810190611aef9190614c36565b905060005b81811015611e755760995460405163264cae9360e21b8152600481018390526000916001600160a01b031690639932ba4c9060240160206040518083038186803b158015611b4157600080fd5b505afa158015611b55573d6000803e3d6000fd5b505050506040513d601f19601f82011682018060405250810190611b799190614ab7565b609954604051633aa3b3c160e21b81526001600160a01b0380841660048301529293506000929091169063ea8ecf049060240160206040518083038186803b158015611bc457600080fd5b505afa158015611bd8573d6000803e3d6000fd5b505050506040513d601f19601f82011682018060405250810190611bfc9190614e38565b60995460405163d90bc21160e01b81526001600160a01b0385811660048301529293506000929091169063d90bc2119060240160206040518083038186803b158015611c4757600080fd5b505afa158015611c5b573d6000803e3d6000fd5b505050506040513d601f19601f82011682018060405250810190611c7f9190614c36565b609d549091506001600160401b0383811691161415611e5f57609d546001600160a01b03848116600160401b909204161415611d4357609b546040516370a0823160e01b81526001600160a01b039182166004820152908416906370a082319060240160206040518083038186803b158015611cfa57600080fd5b505afa158015611d0e573d6000803e3d6000fd5b505050506040513d601f19601f82011682018060405250810190611d329190614c36565b611d3c908761535c565b9550611e5f565b609954609d54609b546040516370a0823160e01b81526001600160a01b0391821660048201526000938216926313cb1f83928892600160401b909204811691908316906370a082319060240160206040518083038186803b158015611da757600080fd5b505afa158015611dbb573d6000803e3d6000fd5b505050506040513d601f19601f82011682018060405250810190611ddf9190614c36565b866040518563ffffffff1660e01b8152600401611dff9493929190615022565b60206040518083038186803b158015611e1757600080fd5b505afa158015611e2b573d6000803e3d6000fd5b505050506040513d601f19601f82011682018060405250810190611e4f9190614c36565b9050611e5b818861535c565b9650505b5050508080611e6d90615478565b915050611af4565b509092915050565b611e85612cd1565b6001600160a01b038116611eab5760405162461bcd60e51b815260040161111c9061514b565b606580546001600160a01b0319166001600160a01b0392909216919091179055565b6040805160a081019091526001600160a01b03841660c082015260009081908060e0810160408051808303601f190181529181529082526020808301889052815160008082529181018352929091019190611f4a565b6040805180820190915260008082526020820152815260200190600190039081611f235790505b5081526020016001856001811115611f6457611f646154a9565b14611f70576000611f7d565b609a546001600160a01b03165b6001600160a01b03168152602001611fae6040518060400160405280620dbba0815260200160001515815250612fc3565b9052600080546040516320487ded60e01b81529293509091620100009091046001600160a01b0316906320487ded90611fed908a9086906004016151e6565b60206040518083038186803b15801561200557600080fd5b505afa158015612019573d6000803e3d6000fd5b505050506040513d601f19601f8201168201806040525081019061203d9190614c36565b905060006001856001811115612055576120556154a9565b14156120eb576000546040516396f4e9f960e01b8152620100009091046001600160a01b0316906396f4e9f990612092908b9087906004016151e6565b602060405180830381600087803b1580156120ac57600080fd5b505af11580156120c0573d6000803e3d6000fd5b505050506040513d601f19601f820116820180604052508101906120e49190614c36565b9050612179565b6000546040516396f4e9f960e01b8152620100009091046001600160a01b0316906396f4e9f9908490612124908c9088906004016151e6565b6020604051808303818588803b15801561213d57600080fd5b505af1158015612151573d6000803e3d6000fd5b50505050506040513d601f19601f820116820180604052508101906121769190614c36565b90505b6040518181527f54791b38f3859327992a1ca0590ad3c0f08feba98d1a4f56ab0dca74d203392a9060200160405180910390a1979650505050505050565b6000670de0b6b3a76400006121ca611426565b6121d49084615396565b610af09190615374565b6121e6612cd1565b609980546001600160a01b0319166001600160a01b0392909216919091179055565b6001600160a01b03811661222e5760405162461bcd60e51b815260040161111c9061514b565b6065546001600160a01b038281169116146122a65760405162461bcd60e51b815260206004820152603260248201527f50726f706f7361626c654f776e61626c653a206e6577206f776e6572206973206044820152713737ba10383937b837b9b2b21037bbb732b960711b606482015260840161111c565b6001600160a01b03811633146123245760405162461bcd60e51b815260206004820152603a60248201527f50726f706f7361626c654f776e61626c653a20746869732063616c6c206d757360448201527f74206265206d61646520627920746865206e6577206f776e6572000000000000606482015260840161111c565b61186781612d2b565b60005b818110156125ec5760995460405163264cae9360e21b8152600481018390526000916001600160a01b031690639932ba4c9060240160206040518083038186803b15801561237d57600080fd5b505afa158015612391573d6000803e3d6000fd5b505050506040513d601f19601f820116820180604052508101906123b59190614ab7565b60995460405163d90bc21160e01b81526001600160a01b0380841660048301529293506000929091169063d90bc2119060240160206040518083038186803b15801561240057600080fd5b505afa158015612414573d6000803e3d6000fd5b505050506040513d601f19601f820116820180604052508101906124389190614c36565b609b546040516370a0823160e01b81526001600160a01b039182166004820152919250600091670de0b6b3a7640000918516906370a082319060240160206040518083038186803b15801561248c57600080fd5b505afa1580156124a0573d6000803e3d6000fd5b505050506040513d601f19601f820116820180604052508101906124c49190614c36565b6124ce9089615396565b6124d89190615374565b609d549091506000906001600160a01b03858116600160401b90920416141561256857609b546040516377524af960e01b81526001600160a01b039091166004820181905260248201849052906377524af990604401600060405180830381600087803b15801561254857600080fd5b505af115801561255c573d6000803e3d6000fd5b5050505081905061258c565b609d54612589908590600160401b90046001600160a01b0316843087612e71565b90505b600087815260a46020526040812080548392906125aa90849061535c565b9091555050600087815260a5602052604081208054600192906125ce90849061535c565b925050819055505050505080806125e490615478565b915050612330565b50505050565b60006125fd826113ec565b60995460405163d1c68aa360e01b81526001600160401b03851660048201529192506000916001600160a01b039091169063d1c68aa39060240160006040518083038186803b15801561264f57600080fd5b505afa158015612663573d6000803e3d6000fd5b505050506040513d6000823e601f3d908101601f1916820160405261268b9190810190614bac565b60995460405163221f337160e01b81526001600160401b03861660048201529192506000916001600160a01b039091169063221f33719060240160006040518083038186803b1580156126dd57600080fd5b505afa1580156126f1573d6000803e3d6000fd5b505050506040513d6000823e601f3d908101601f191682016040526127199190810190614be0565b609954604051632bda5acd60e21b81526001600160401b03871660048201529192506000916001600160a01b039091169063af696b349060240160006040518083038186803b15801561276b57600080fd5b505afa15801561277f573d6000803e3d6000fd5b505050506040513d6000823e601f3d908101601f191682016040526127a79190810190614be0565b60408051600080825260208083018281526001848601818152608086019096529596509294929391929060608601908036833701905050905089816000815181106127f4576127f46154bf565b60200260200101818152505060006001878588868e8a88604051602001612822989796959493929190615071565b604051602081830303815290604052905060006128428a8a846001611ecd565b60009b8c5260ab6020526040909b209a909a555050505050505050505050565b600054610100900460ff166128895760405162461bcd60e51b815260040161111c9061519b565b6001600160a01b0381166128b3576040516335fdcccd60e21b81526000600482015260240161111c565b600080546001600160a01b03909216620100000262010000600160b01b0319909216919091179055565b600054610100900460ff166129045760405162461bcd60e51b815260040161111c9061519b565b61182161300d565b6002609854141561295f5760405162461bcd60e51b815260206004820152601f60248201527f5265656e7472616e637947756172643a207265656e7472616e742063616c6c00604482015260640161111c565b6002609855565b609d54609b5460405163a9059cbb60e01b81526001600160a01b03918216600482015260248101859052600160401b909204169063a9059cbb90604401602060405180830381600087803b1580156129bd57600080fd5b505af11580156129d1573d6000803e3d6000fd5b505050506040513d601f19601f820116820180604052508101906129f59190614c14565b5060995460408051631a521ec760e21b8152905184926000926001600160a01b03909116916369487b1c91600480820192602092909190829003018186803b158015612a4057600080fd5b505afa158015612a54573d6000803e3d6000fd5b505050506040513d601f19601f82011682018060405250810190612a789190614c36565b90506000609960009054906101000a90046001600160a01b03166001600160a01b031663b90b8a2a6040518163ffffffff1660e01b815260040160206040518083038186803b158015612aca57600080fd5b505afa158015612ade573d6000803e3d6000fd5b505050506040513d601f19601f82011682018060405250810190612b029190614c36565b905060005b82811015612c6d57609954604051636dab0c9160e11b815260048101849052602481018390526000916001600160a01b03169063db5619229060440160206040518083038186803b158015612b5b57600080fd5b505afa158015612b6f573d6000803e3d6000fd5b505050506040513d601f19601f82011682018060405250810190612b939190614e38565b609954604051637e34c5a560e11b81526001600160401b03831660048201529192506000916001600160a01b039091169063fc698b4a9060240160206040518083038186803b158015612be557600080fd5b505afa158015612bf9573d6000803e3d6000fd5b505050506040513d601f19601f82011682018060405250810190612c1d9190614c36565b609d549091506001600160401b0383811691161415612c4a57612c4586609e5483858861303d565b612c58565b612c5886609e548487613484565b50508080612c6590615478565b915050612b07565b50609e54600081815260aa602090815260408083205460ae9092528083205490513394937f497983feda2f53898206317c0b392bffd918715fad18aaedf4ac296f7ec6bf3d92612cc1928d9290429061504b565b60405180910390a4505050505050565b6033546001600160a01b031633146118215760405162461bcd60e51b815260206004820181905260248201527f4f776e61626c653a2063616c6c6572206973206e6f7420746865206f776e6572604482015260640161111c565b603380546001600160a01b038381166001600160a01b0319831681179093556040519116919082907f8be0079c531659141344cd1fd0a4f28419497f9722a3daafe3b4186f6b6457e090600090a35050565b8051602080830151609954604080516329fea19960e11b8152905192936000936001600160a01b03909316926353fd4332926004808201939291829003018186803b158015612dcb57600080fd5b505afa158015612ddf573d6000803e3d6000fd5b505050506040513d601f19601f82011682018060405250810190612e039190614c36565b90506000806000806000808960600151806020019051810190612e269190614cfc565b9550955095509550955095508560001415612e4e57612e49838684848b8e6138dd565b612e65565b8560011415612e6557612e65838b878a8c8e613a3e565b50505050505050505050565b6099546040516313cb1f8360e01b815260009182916001600160a01b03909116906313cb1f8390612eac908a908a908a908990600401615022565b60206040518083038186803b158015612ec457600080fd5b505afa158015612ed8573d6000803e3d6000fd5b505050506040513d601f19601f82011682018060405250810190612efc9190614c36565b905060008115612fa657609b546040516305f370ed60e41b81526001600160a01b038a8116600483015289811660248301526044820189905287811660648301526084820187905290911690635f370ed09060a401602060405180830381600087803b158015612f6b57600080fd5b505af1158015612f7f573d6000803e3d6000fd5b505050506040513d601f19601f82011682018060405250810190612fa39190614c36565b90505b8360031415612fb857915061107a9050565b509695505050505050565b6040805182516024820152602092830151151560448083019190915282518083039091018152606490910190915290810180516001600160e01b03166397a657c960e01b17905290565b600054610100900460ff166130345760405162461bcd60e51b815260040161111c9061519b565b61182133612d2b565b60005b838110156112bd576099546040516309c6d7f360e21b8152600481018490526001600160401b0385166024820152604481018390526000916001600160a01b03169063271b5fcc9060640160206040518083038186803b1580156130a357600080fd5b505afa1580156130b7573d6000803e3d6000fd5b505050506040513d601f19601f820116820180604052508101906130db9190614ab7565b60995460405163d90bc21160e01b81526001600160a01b0380841660048301529293506000929091169063d90bc2119060240160206040518083038186803b15801561312657600080fd5b505afa15801561313a573d6000803e3d6000fd5b505050506040513d601f19601f8201168201806040525081019061315e9190614c36565b609954604051630be5271360e01b81526001600160a01b03858116600483015292935060009290911690630be527139060240160206040518083038186803b1580156131a957600080fd5b505afa1580156131bd573d6000803e3d6000fd5b505050506040513d601f19601f820116820180604052508101906131e19190614c36565b609d549091506001600160a01b03848116600160401b9092041614156132a957609b546040516370a0823160e01b81526001600160a01b039182166004820152613281918516906370a082319060240160206040518083038186803b15801561324957600080fd5b505afa15801561325d573d6000803e3d6000fd5b505050506040513d601f19601f8201168201806040525081019061098a9190614c36565b600089815260a1602090815260408083206001600160a01b0388168452909152902055613368565b609d54609b546040516370a0823160e01b81526001600160a01b0391821660048201526133449261098a928792600160401b909204811691908316906370a082319060240160206040518083038186803b15801561330657600080fd5b505afa15801561331a573d6000803e3d6000fd5b505050506040513d601f19601f8201168201806040525081019061333e9190614c36565b86610ff3565b600089815260a1602090815260408083206001600160a01b03881684529091529020555b609d546001600160a01b03848116600160401b90920416141561338a576133d4565b609d546133d290600160401b90046001600160a01b03168468056bc75e2d631000006133b6858e615396565b6133c09190615374565b609b546001600160a01b031686612e71565b505b6133f568056bc75e2d631000006133eb838c615396565b61098a9190615374565b600089815260a1602090815260408083206001600160a01b0388168452909152902054613422919061535c565b600089815260a1602090815260408083206001600160a01b038816845282528083206001908101949094558b835260a29091528120805490919061346790849061535c565b92505081905550505050808061347c90615478565b915050613040565b6134b66040518060a0016040528060608152602001606081526020016060815260200160608152602001606081525090565b60408051600180825281830190925260009160208083019080368337019050506099546040516344fd376f60e01b8152600481018690526001600160401b03871660248201529192506001600160a01b0316906344fd376f9060440160206040518083038186803b15801561352a57600080fd5b505afa15801561353e573d6000803e3d6000fd5b505050506040513d601f19601f820116820180604052508101906135629190614c36565b81600081518110613575576135756154bf565b6020908102919091010152609d546000906135ec90600160401b90046001600160a01b03166135a3876112c5565b68056bc75e2d63100000856000815181106135c0576135c06154bf565b60200260200101518b6135d39190615396565b6135dd9190615374565b306135e78a61134b565b612e71565b905060006135f9866113ec565b60995460405163d1c68aa360e01b81526001600160401b03891660048201529192506001600160a01b03169063d1c68aa39060240160006040518083038186803b15801561364657600080fd5b505afa15801561365a573d6000803e3d6000fd5b505050506040513d6000823e601f3d908101601f191682016040526136829190810190614bac565b845260995460405163221f337160e01b81526001600160401b03881660048201526001600160a01b039091169063221f33719060240160006040518083038186803b1580156136d057600080fd5b505afa1580156136e4573d6000803e3d6000fd5b505050506040513d6000823e601f3d908101601f1916820160405261370c9190810190614be0565b6020850152609954604051632bda5acd60e21b81526001600160401b03881660048201526001600160a01b039091169063af696b349060240160006040518083038186803b15801561375d57600080fd5b505afa158015613771573d6000803e3d6000fd5b505050506040513d6000823e601f3d908101601f191682016040526137999190810190614be0565b60408581019190915280516000808252602080830184526060880192909252825181815280830184526080880152825160018082528185019094529092909182015b60408051808201909152600080825260208201528152602001906001900390816137db57905050905061380d876112c5565b81600081518110613820576138206154bf565b6020026020010151600001906001600160a01b031690816001600160a01b0316815250508281600081518110613858576138586154bf565b6020026020010151602001818152505060008086600001518760600151886020015189608001518d8b604001518b60405160200161389d989796959493929190615071565b604051602081830303815290604052905060006138be898386866001613b2d565b609e54600090815260aa60205260409020555050505050505050505050565b8560005b8651811015613a145760008682815181106138fe576138fe6154bf565b60200260200101519050600086838151811061391c5761391c6154bf565b602002602001015190508160a1600086815260200190815260200160002060008b868151811061394e5761394e6154bf565b60200260200101516001600160a01b03166001600160a01b03168152602001908152602001600020600001819055508060a1600086815260200190815260200160002060008b86815181106139a5576139a56154bf565b60200260200101516001600160a01b03166001600160a01b0316815260200190815260200160002060010181905550600160a2600086815260200190815260200160002060008282546139f8919061535c565b9250508190555050508080613a0c90615478565b9150506138e1565b50600081815260a26020526040902054831415613a3557613a358183613fa1565b50505050505050565b6080850151805187919060009082908290613a5b57613a5b6154bf565b6020026020010151600001519050600082600081518110613a7e57613a7e6154bf565b60200260200101516020015190506000613ab183609d60089054906101000a90046001600160a01b0316843060036143df565b90508060a460008781526020019081526020016000206000828254613ad6919061535c565b90915550508851600086815260a5602052604081208054909190613afb90849061535c565b9091555050600085815260a56020526040902054881415613b2057613b208587614511565b5050505050505050505050565b6000613b3761290c565b8251609a54600160a01b900461ffff16811115613bbc5760405162461bcd60e51b815260206004820152603760248201527f4d6178696d756d203520646966666572656e7420746f6b656e732063616e206260448201527f652073656e74207065722043434950204d657373616765000000000000000000606482015260840161111c565b60005b81811015613cf157609a5485516001600160a01b0390911690869083908110613bea57613bea6154bf565b6020026020010151600001516001600160a01b031614613ce957848181518110613c1657613c166154bf565b6020026020010151600001516001600160a01b031663095ea7b3600060029054906101000a90046001600160a01b0316878481518110613c5857613c586154bf565b6020026020010151602001516040518363ffffffff1660e01b8152600401613c959291906001600160a01b03929092168252602082015260400190565b602060405180830381600087803b158015613caf57600080fd5b505af1158015613cc3573d6000803e3d6000fd5b505050506040513d601f19601f82011682018060405250810190613ce79190614c14565b505b600101613bbf565b506040805160a081019091526001600160a01b03861660c08201526000908060e0810160408051601f19818403018152918152908252602082018a905281018790526060016001866001811115613d4a57613d4a6154a9565b14613d56576000613d63565b609a546001600160a01b03165b6001600160a01b03168152602001613d946040518060400160405280620dbba0815260200160001515815250612fc3565b9052600080546040516320487ded60e01b81529293509091620100009091046001600160a01b0316906320487ded90613dd3908c9086906004016151e6565b60206040518083038186803b158015613deb57600080fd5b505afa158015613dff573d6000803e3d6000fd5b505050506040513d601f19601f82011682018060405250810190613e239190614c36565b905060006001866001811115613e3b57613e3b6154a9565b1415613ed1576000546040516396f4e9f960e01b8152620100009091046001600160a01b0316906396f4e9f990613e78908d9087906004016151e6565b602060405180830381600087803b158015613e9257600080fd5b505af1158015613ea6573d6000803e3d6000fd5b505050506040513d601f19601f82011682018060405250810190613eca9190614c36565b9050613f5f565b6000546040516396f4e9f960e01b8152620100009091046001600160a01b0316906396f4e9f9908490613f0a908e9088906004016151e6565b6020604051808303818588803b158015613f2357600080fd5b505af1158015613f37573d6000803e3d6000fd5b50505050506040513d601f19601f82011682018060405250810190613f5c9190614c36565b90505b6040518181527f54791b38f3859327992a1ca0590ad3c0f08feba98d1a4f56ab0dca74d203392a9060200160405180910390a1935050505061107a6001609855565b6000806000609960009054906101000a90046001600160a01b03166001600160a01b03166353fd43326040518163ffffffff1660e01b815260040160206040518083038186803b158015613ff457600080fd5b505afa158015614008573d6000803e3d6000fd5b505050506040513d601f19601f8201168201806040525081019061402c9190614c36565b905060005b8181101561412f5760995460405163264cae9360e21b8152600481018390526000916001600160a01b031690639932ba4c9060240160206040518083038186803b15801561407e57600080fd5b505afa158015614092573d6000803e3d6000fd5b505050506040513d601f19601f820116820180604052508101906140b69190614ab7565b600088815260a1602090815260408083206001600160a01b03851684529091529020549091506140e6908661535c565b600088815260a1602090815260408083206001600160a01b0386168452909152902060010154909550614119908561535c565b935050808061412790615478565b915050614031565b50600080609b60009054906101000a90046001600160a01b03166001600160a01b03166318160ddd6040518163ffffffff1660e01b815260040160206040518083038186803b15801561418157600080fd5b505afa158015614195573d6000803e3d6000fd5b505050506040513d601f19601f820116820180604052508101906141b99190614c36565b11156142f257609b60009054906101000a90046001600160a01b03166001600160a01b03166318160ddd6040518163ffffffff1660e01b815260040160206040518083038186803b15801561420d57600080fd5b505afa158015614221573d6000803e3d6000fd5b505050506040513d601f19601f820116820180604052508101906142459190614c36565b8484609b60009054906101000a90046001600160a01b03166001600160a01b03166318160ddd6040518163ffffffff1660e01b815260040160206040518083038186803b15801561429557600080fd5b505afa1580156142a9573d6000803e3d6000fd5b505050506040513d601f19601f820116820180604052508101906142cd9190614c36565b6142d79190615396565b6142e19190615374565b6142eb91906153b5565b9050614300565b6142fd836064615396565b90505b609b54600087815260a36020526040908190205490516340c10f1960e01b81526001600160a01b039182166004820152602481018490529116906340c10f1990604401600060405180830381600087803b15801561435d57600080fd5b505af1158015614371573d6000803e3d6000fd5b505050600087815260a3602090815260408083205460af83528184205460ae909352928190205490516001600160a01b0393841694508a938a937f4d3128af979c46a863cd489a3d0959d5d22181cdbdb1949b40cadfcdac0a1d3893612cc19392909116918890429061504b565b60995460405163a9059cbb60e01b81526001600160a01b0391821660048201526024810185905260009187169063a9059cbb90604401602060405180830381600087803b15801561442f57600080fd5b505af1158015614443573d6000803e3d6000fd5b505050506040513d601f19601f820116820180604052508101906144679190614c14565b50609954604051630bec47a360e11b81526001600160a01b03888116600483015287811660248301526044820187905285811660648301526084820185905260009216906317d88f469060a401602060405180830381600087803b1580156144ce57600080fd5b505af11580156144e2573d6000803e3d6000fd5b505050506040513d601f19601f820116820180604052508101906145069190614c36565b979650505050505050565b600082815260a4602090815260408083205460a683528184205460ac84528285205460ad90945291842054609b5491946001600160a01b03938416949093169290916127109061456c9060ff600160a01b9091041687615396565b6145769190615374565b609d54604051632e1a7d4d60e01b815260048101839052919250600160401b90046001600160a01b031690632e1a7d4d90602401600060405180830381600087803b1580156145c457600080fd5b505af11580156145d8573d6000803e3d6000fd5b5050505060006145f06033546001600160a01b031690565b6001600160a01b03168260405160006040518083038185875af1925050503d806000811461463a576040519150601f19603f3d011682016040523d82523d6000602084013e61463f565b606091505b50509050806146605760405162461bcd60e51b815260040161111c90615107565b609d546001600160a01b03858116600160401b90920416141561481057609d54600160401b90046001600160a01b0316632e1a7d4d61469f84896153b5565b6040518263ffffffff1660e01b81526004016146bd91815260200190565b600060405180830381600087803b1580156146d757600080fd5b505af11580156146eb573d6000803e3d6000fd5b505050506000856001600160a01b0316838861470791906153b5565b604051600081818185875af1925050503d8060008114614743576040519150601f19603f3d011682016040523d82523d6000602084013e614748565b606091505b50509050806147a55760405162461bcd60e51b8152602060048201526024808201527f7472616e736665722065746820746f20746865207265717565737465722066616044820152631a5b195960e21b606482015260840161111c565b600089815260b060205260409020546001600160a01b038716908a908a907f476778ca38557db6dc935a57ece5bd93fbaca20183fadf86d7a1d2b85df65e019089906147f1898e6153b5565b42604051614802949392919061504b565b60405180910390a45061489c565b609d5460009061483c90600160401b90046001600160a01b031686614835868b6153b5565b89886143df565b9050856001600160a01b031689897f476778ca38557db6dc935a57ece5bd93fbaca20183fadf86d7a1d2b85df65e018860b060008f8152602001908152602001600020548642604051614892949392919061504b565b60405180910390a4505b5050505050505050565b600082601f8301126148b757600080fd5b815160206148cc6148c783615339565b615309565b80838252828201915082860187848660051b89010111156148ec57600080fd5b60005b85811015614914578151614902816154eb565b845292840192908401906001016148ef565b5090979650505050505050565b600082601f83011261493257600080fd5b813560206149426148c783615339565b80838252828201915082860187848660061b890101111561496257600080fd5b6000805b868110156149ad57604080848c03121561497e578283fd5b6149866152bf565b8435614991816154eb565b8152848801358882015286529486019490920191600101614966565b509198975050505050505050565b600082601f8301126149cc57600080fd5b815160206149dc6148c783615339565b80838252828201915082860187848660051b89010111156149fc57600080fd5b60005b85811015614914578151845292840192908401906001016149ff565b600082601f830112614a2c57600080fd5b81356001600160401b03811115614a4557614a456154d5565b614a58601f8201601f1916602001615309565b818152846020838601011115614a6d57600080fd5b816020850160208301376000918101602001919091529392505050565b8035614a9581615500565b919050565b600060208284031215614aac57600080fd5b81356113e5816154eb565b600060208284031215614ac957600080fd5b81516113e5816154eb565b600080600060608486031215614ae957600080fd5b8335614af4816154eb565b92506020840135614b04816154eb565b915060408401356001600160801b0381168114614b2057600080fd5b809150509250925092565b60008060008060808587031215614b4157600080fd5b8435614b4c816154eb565b93506020850135614b5c816154eb565b93969395505050506040820135916060013590565b60008060008060808587031215614b8757600080fd5b8435614b92816154eb565b966020860135965060408601359560600135945092505050565b600060208284031215614bbe57600080fd5b81516001600160401b03811115614bd457600080fd5b610b8a848285016148a6565b600060208284031215614bf257600080fd5b81516001600160401b03811115614c0857600080fd5b610b8a848285016149bb565b600060208284031215614c2657600080fd5b815180151581146113e557600080fd5b600060208284031215614c4857600080fd5b5051919050565b600060208284031215614c6157600080fd5b81356001600160e01b0319811681146113e557600080fd5b600060208284031215614c8b57600080fd5b81356001600160401b03811115614ca157600080fd5b820160a081850312156113e557600080fd5b600060208284031215614cc557600080fd5b5035919050565b60008060408385031215614cdf57600080fd5b823591506020830135614cf1816154eb565b809150509250929050565b60008060008060008060c08789031215614d1557600080fd5b8651955060208701516001600160401b0380821115614d3357600080fd5b614d3f8a838b016148a6565b96506040890151915080821115614d5557600080fd5b614d618a838b016148a6565b9550606089015194506080890151915080821115614d7e57600080fd5b614d8a8a838b016149bb565b935060a0890151915080821115614da057600080fd5b50614dad89828a016149bb565b9150509295509295509295565b60008060408385031215614dcd57600080fd5b50508035926020909101359150565b60008060008060808587031215614df257600080fd5b84359350602085013592506040850135614e0b816154eb565b9396929550929360600135925050565b600060208284031215614e2d57600080fd5b81356113e581615500565b600060208284031215614e4a57600080fd5b81516113e581615500565b600080600080600060a08688031215614e6d57600080fd5b8535614e7881615500565b94506020860135614e88816154eb565b93506040860135614e98816154eb565b92506060860135614ea8816154eb565b91506080860135614eb8816154eb565b809150509295509295909350565b60008060008060808587031215614edc57600080fd5b8435614ee781615500565b93506020850135614ef7816154eb565b925060408501356001600160401b03811115614f1257600080fd5b614f1e87828801614a1b565b925050606085013560028110614f3357600080fd5b939692955090935050565b600060208284031215614f5057600080fd5b813560ff811681146113e557600080fd5b600081518084526020808501945080840160005b83811015614f9a5781516001600160a01b031687529582019590820190600101614f75565b509495945050505050565b600081518084526020808501945080840160005b83811015614f9a57815187529582019590820190600101614fb9565b6000815180845260005b81811015614ffb57602081850181015186830182015201614fdf565b8181111561500d576000602083870101525b50601f01601f19169290920160200192915050565b6001600160a01b0394851681529290931660208301526040820152606081019190915260800190565b6001600160a01b0394909416845260208401929092526040830152606082015260800190565b600061010060ff8b16835280602084015261508e8184018b614f61565b905082810360408401526150a2818a614f61565b905082810360608401526150b68189614fa5565b905082810360808401526150ca8188614fa5565b90508560a084015282810360c08401526150e48186614fa5565b905082810360e08401526150f88185614fa5565b9b9a5050505050505050505050565b60208082526024908201527f7472616e73666572206574682066656520746f20746865206f776e65722066616040820152631a5b195960e21b606082015260800190565b60208082526030908201527f50726f706f7361626c654f776e61626c653a206e6577206f776e65722069732060408201526f746865207a65726f206164647265737360801b606082015260800190565b6020808252602b908201527f496e697469616c697a61626c653a20636f6e7472616374206973206e6f74206960408201526a6e697469616c697a696e6760a81b606082015260800190565b600060406001600160401b038516835260208181850152845160a08386015261521260e0860182614fd5565b905081860151603f198087840301606088015261522f8383614fd5565b88860151888203830160808a01528051808352908601945060009350908501905b8084101561528257845180516001600160a01b0316835286015186830152938501936001939093019290860190615250565b5060608901516001600160a01b031660a08901526080890151888203830160c08a015295506152b18187614fd5565b9a9950505050505050505050565b604080519081016001600160401b03811182821017156152e1576152e16154d5565b60405290565b60405160a081016001600160401b03811182821017156152e1576152e16154d5565b604051601f8201601f191681016001600160401b0381118282101715615331576153316154d5565b604052919050565b60006001600160401b03821115615352576153526154d5565b5060051b60200190565b6000821982111561536f5761536f615493565b500190565b60008261539157634e487b7160e01b600052601260045260246000fd5b500490565b60008160001904831182151516156153b0576153b0615493565b500290565b6000828210156153c7576153c7615493565b500390565b600060a082360312156153de57600080fd5b6153e66152e7565b823581526153f660208401614a8a565b602082015260408301356001600160401b038082111561541557600080fd5b61542136838701614a1b565b6040840152606085013591508082111561543a57600080fd5b61544636838701614a1b565b6060840152608085013591508082111561545f57600080fd5b5061546c36828601614921565b60808301525092915050565b600060001982141561548c5761548c615493565b5060010190565b634e487b7160e01b600052601160045260246000fd5b634e487b7160e01b600052602160045260246000fd5b634e487b7160e01b600052603260045260246000fd5b634e487b7160e01b600052604160045260246000fd5b6001600160a01b038116811461186757600080fd5b6001600160401b038116811461186757600080fdfea2646970667358221220b03aee3c0d3bfd20a91f95e11eb7d279e202d8f280847ed83d0793b45d1fa9e164736f6c63430008070033","linkReferences":{}},"methodIdentifiers":{"ccipReceive((bytes32,uint64,bytes,bytes,(address,uint256)[]))":"85572ffb","convertEthToUsd(uint256)":"c086381e","crossChainFactoryBySelector(uint64)":"340fbc74","crossChainToken(uint64)":"19da7e2a","crossChainTokenSwapVersion(uint64)":"326f6fb2","currentChainSelector()":"3d54cb6f","estimateAmountOut(address,address,uint128)":"0456f9c8","feeRate()":"978bbdb9","getAmountOut(address,address,uint256,uint256)":"13cb1f83","getPortfolioBalance()":"a8509fd8","getRouter()":"b0f479a1","i_link()":"7d253aff","i_maxTokensLength()":"5b6a0351","indexFactoryStorage()":"d1f7a991","indexToken()":"e7d015f2","initialize(uint64,address,address,address,address)":"16b487ff","issuanceCompletedTokensCount(uint256)":"94037369","issuanceIndexTokens(address,uint256,uint256,uint256)":"9ad1c356","issuanceIndexTokensWithEth(uint256,uint256)":"41d11817","issuanceInputAmount(uint256)":"cf9ee319","issuanceInputToken(uint256)":"4c776de7","issuanceMessageIdByNonce(uint256)":"9121c717","issuanceNonce()":"9dbb9c9e","issuanceNonceRequester(uint256)":"a3d0ac78","issuanceTokenOldAndNewValues(uint256,address)":"81b15279","latestFeeUpdate()":"011ced5f","owner()":"8da5cb5b","portfolioTotalValueByNonce(uint256)":"7d3546f7","priceInWei()":"3c8da588","proposeOwner(address)":"b5ed298a","proposedOwner()":"d153b60c","redemption(uint256,uint256,address,uint256)":"09445ad4","redemptionCompletedTokensCount(uint256)":"48784303","redemptionInputAmount(uint256)":"9cf54521","redemptionMessageIdByNonce(uint256)":"306b3a28","redemptionNonce()":"84d77bb1","redemptionNonceOutputToken(uint256)":"0603fb05","redemptionNonceOutputTokenSwapVersion(uint256)":"72bc260c","redemptionNonceRequester(uint256)":"3fef7545","redemptionNonceTotalValue(uint256)":"f07bb855","redemptionOutputToken(uint256)":"c3a755b4","renounceOwnership()":"715018a6","sendMessage(uint64,address,bytes,uint8)":"bcab90b3","setFeeRate(uint8)":"5177942a","setIndexFactoryStorage(address)":"cc8659ae","supportsInterface(bytes4)":"01ffc9a7","tokenValueByNonce(uint256,address)":"b316e7fd","transferOwnership(address)":"f2fde38b","updatePortfolioNonce()":"003cf402","updatedTokensValueCount(uint256)":"c070a097","weth()":"3fc8cef3"},"id":3}