{"abi":[{"type":"receive","stateMutability":"payable"},{"type":"function","name":"MAX_FEE_RATE","inputs":[],"outputs":[{"name":"","type":"uint8","internalType":"uint8"}],"stateMutability":"view"},{"type":"function","name":"MAX_TOKENS_LENGTH","inputs":[],"outputs":[{"name":"","type":"uint16","internalType":"uint16"}],"stateMutability":"view"},{"type":"function","name":"MIN_FEE_RATE","inputs":[],"outputs":[{"name":"","type":"uint8","internalType":"uint8"}],"stateMutability":"view"},{"type":"function","name":"MIN_FEE_UPDATE_INTERVAL","inputs":[],"outputs":[{"name":"","type":"uint256","internalType":"uint256"}],"stateMutability":"view"},{"type":"function","name":"ccipReceive","inputs":[{"name":"message","type":"tuple","internalType":"struct Client.Any2EVMMessage","components":[{"name":"messageId","type":"bytes32","internalType":"bytes32"},{"name":"sourceChainSelector","type":"uint64","internalType":"uint64"},{"name":"sender","type":"bytes","internalType":"bytes"},{"name":"data","type":"bytes","internalType":"bytes"},{"name":"destTokenAmounts","type":"tuple[]","internalType":"struct Client.EVMTokenAmount[]","components":[{"name":"token","type":"address","internalType":"address"},{"name":"amount","type":"uint256","internalType":"uint256"}]}]}],"outputs":[],"stateMutability":"nonpayable"},{"type":"function","name":"convertEthToUsd","inputs":[{"name":"_ethAmount","type":"uint256","internalType":"uint256"}],"outputs":[{"name":"","type":"uint256","internalType":"uint256"}],"stateMutability":"view"},{"type":"function","name":"crossChainFactoryBySelector","inputs":[{"name":"_chainSelector","type":"uint64","internalType":"uint64"}],"outputs":[{"name":"","type":"address","internalType":"address"}],"stateMutability":"view"},{"type":"function","name":"crossChainToken","inputs":[{"name":"_chainSelector","type":"uint64","internalType":"uint64"}],"outputs":[{"name":"","type":"address","internalType":"address"}],"stateMutability":"view"},{"type":"function","name":"crossChainTokenSwapFee","inputs":[{"name":"_chainSelector","type":"uint64","internalType":"uint64"}],"outputs":[{"name":"","type":"uint24","internalType":"uint24"}],"stateMutability":"view"},{"type":"function","name":"currentChainSelector","inputs":[],"outputs":[{"name":"","type":"uint64","internalType":"uint64"}],"stateMutability":"view"},{"type":"function","name":"estimateAmountOut","inputs":[{"name":"tokenIn","type":"address","internalType":"address"},{"name":"tokenOut","type":"address","internalType":"address"},{"name":"amountIn","type":"uint128","internalType":"uint128"},{"name":"fee","type":"uint24","internalType":"uint24"}],"outputs":[{"name":"amountOut","type":"uint256","internalType":"uint256"}],"stateMutability":"view"},{"type":"function","name":"factoryStorage","inputs":[],"outputs":[{"name":"","type":"address","internalType":"contract IndexFactoryStorage"}],"stateMutability":"view"},{"type":"function","name":"feeRate","inputs":[],"outputs":[{"name":"","type":"uint8","internalType":"uint8"}],"stateMutability":"view"},{"type":"function","name":"feeReceiver","inputs":[],"outputs":[{"name":"","type":"address","internalType":"address"}],"stateMutability":"view"},{"type":"function","name":"getAmountOut","inputs":[{"name":"tokenIn","type":"address","internalType":"address"},{"name":"tokenOut","type":"address","internalType":"address"},{"name":"amountIn","type":"uint256","internalType":"uint256"},{"name":"_swapFee","type":"uint24","internalType":"uint24"}],"outputs":[{"name":"finalAmountOut","type":"uint256","internalType":"uint256"}],"stateMutability":"view"},{"type":"function","name":"getPortfolioBalance","inputs":[],"outputs":[{"name":"","type":"uint256","internalType":"uint256"}],"stateMutability":"view"},{"type":"function","name":"getRouter","inputs":[],"outputs":[{"name":"","type":"address","internalType":"address"}],"stateMutability":"view"},{"type":"function","name":"getRouterAddress","inputs":[],"outputs":[{"name":"","type":"address","internalType":"address"}],"stateMutability":"view"},{"type":"function","name":"i_link","inputs":[],"outputs":[{"name":"","type":"address","internalType":"address"}],"stateMutability":"view"},{"type":"function","name":"indexToken","inputs":[],"outputs":[{"name":"","type":"address","internalType":"contract IndexToken"}],"stateMutability":"view"},{"type":"function","name":"initialize","inputs":[{"name":"_currentChainSelector","type":"uint64","internalType":"uint64"},{"name":"_token","type":"address","internalType":"address payable"},{"name":"_chainlinkToken","type":"address","internalType":"address"},{"name":"_router","type":"address","internalType":"address"},{"name":"_weth","type":"address","internalType":"address"}],"outputs":[],"stateMutability":"nonpayable"},{"type":"function","name":"issuanceData","inputs":[{"name":"","type":"uint256","internalType":"uint256"}],"outputs":[{"name":"completedTokensCount","type":"uint256","internalType":"uint256"},{"name":"requester","type":"address","internalType":"address"},{"name":"inputAmount","type":"uint256","internalType":"uint256"},{"name":"inputToken","type":"address","internalType":"address"},{"name":"messageId","type":"bytes32","internalType":"bytes32"}],"stateMutability":"view"},{"type":"function","name":"issuanceIndexTokens","inputs":[{"name":"_tokenIn","type":"address","internalType":"address"},{"name":"_inputAmount","type":"uint256","internalType":"uint256"},{"name":"_crossChainFee","type":"uint256","internalType":"uint256"},{"name":"_tokenInSwapFee","type":"uint24","internalType":"uint24"}],"outputs":[],"stateMutability":"nonpayable"},{"type":"function","name":"issuanceIndexTokensWithEth","inputs":[{"name":"_inputAmount","type":"uint256","internalType":"uint256"},{"name":"_crossChainFee","type":"uint256","internalType":"uint256"}],"outputs":[],"stateMutability":"payable"},{"type":"function","name":"issuanceNonce","inputs":[],"outputs":[{"name":"","type":"uint256","internalType":"uint256"}],"stateMutability":"view"},{"type":"function","name":"latestFeeUpdate","inputs":[],"outputs":[{"name":"","type":"uint256","internalType":"uint256"}],"stateMutability":"view"},{"type":"function","name":"owner","inputs":[],"outputs":[{"name":"","type":"address","internalType":"address"}],"stateMutability":"view"},{"type":"function","name":"priceInWei","inputs":[],"outputs":[{"name":"","type":"uint256","internalType":"uint256"}],"stateMutability":"view"},{"type":"function","name":"proposeOwner","inputs":[{"name":"_proposedOwner","type":"address","internalType":"address"}],"outputs":[],"stateMutability":"nonpayable"},{"type":"function","name":"proposedOwner","inputs":[],"outputs":[{"name":"","type":"address","internalType":"address"}],"stateMutability":"view"},{"type":"function","name":"redemption","inputs":[{"name":"amountIn","type":"uint256","internalType":"uint256"},{"name":"_crossChainFee","type":"uint256","internalType":"uint256"},{"name":"_tokenOut","type":"address","internalType":"address"},{"name":"_tokenOutSwapFee","type":"uint24","internalType":"uint24"}],"outputs":[],"stateMutability":"nonpayable"},{"type":"function","name":"redemptionData","inputs":[{"name":"","type":"uint256","internalType":"uint256"}],"outputs":[{"name":"totalValue","type":"uint256","internalType":"uint256"},{"name":"completedTokensCount","type":"uint256","internalType":"uint256"},{"name":"requester","type":"address","internalType":"address"},{"name":"outputToken","type":"address","internalType":"address"},{"name":"outputTokenSwapFee","type":"uint24","internalType":"uint24"},{"name":"inputAmount","type":"uint256","internalType":"uint256"},{"name":"messageId","type":"bytes32","internalType":"bytes32"}],"stateMutability":"view"},{"type":"function","name":"redemptionNonce","inputs":[],"outputs":[{"name":"","type":"uint256","internalType":"uint256"}],"stateMutability":"view"},{"type":"function","name":"renounceOwnership","inputs":[],"outputs":[],"stateMutability":"nonpayable"},{"type":"function","name":"sendMessage","inputs":[{"name":"destinationChainSelector","type":"uint64","internalType":"uint64"},{"name":"receiver","type":"address","internalType":"address"},{"name":"_data","type":"bytes","internalType":"bytes"},{"name":"payFeesIn","type":"uint8","internalType":"enum IndexFactory.PayFeesIn"}],"outputs":[{"name":"","type":"bytes32","internalType":"bytes32"}],"stateMutability":"nonpayable"},{"type":"function","name":"setFeeRate","inputs":[{"name":"_newFee","type":"uint8","internalType":"uint8"}],"outputs":[],"stateMutability":"nonpayable"},{"type":"function","name":"setFeeReceiver","inputs":[{"name":"_feeReceiver","type":"address","internalType":"address"}],"outputs":[],"stateMutability":"nonpayable"},{"type":"function","name":"setIndexFactoryStorage","inputs":[{"name":"_factoryStorage","type":"address","internalType":"address"}],"outputs":[],"stateMutability":"nonpayable"},{"type":"function","name":"supportsInterface","inputs":[{"name":"interfaceId","type":"bytes4","internalType":"bytes4"}],"outputs":[{"name":"","type":"bool","internalType":"bool"}],"stateMutability":"pure"},{"type":"function","name":"transferOwnership","inputs":[{"name":"newOwner","type":"address","internalType":"address"}],"outputs":[],"stateMutability":"nonpayable"},{"type":"function","name":"weth","inputs":[],"outputs":[{"name":"","type":"address","internalType":"contract IWETH"}],"stateMutability":"view"},{"type":"event","name":"Initialized","inputs":[{"name":"version","type":"uint8","indexed":false,"internalType":"uint8"}],"anonymous":false},{"type":"event","name":"Issuanced","inputs":[{"name":"messageId","type":"bytes32","indexed":true,"internalType":"bytes32"},{"name":"nonce","type":"uint256","indexed":true,"internalType":"uint256"},{"name":"user","type":"address","indexed":true,"internalType":"address"},{"name":"inputToken","type":"address","indexed":false,"internalType":"address"},{"name":"inputAmount","type":"uint256","indexed":false,"internalType":"uint256"},{"name":"outputAmount","type":"uint256","indexed":false,"internalType":"uint256"},{"name":"time","type":"uint256","indexed":false,"internalType":"uint256"}],"anonymous":false},{"type":"event","name":"MessageSent","inputs":[{"name":"messageId","type":"bytes32","indexed":false,"internalType":"bytes32"}],"anonymous":false},{"type":"event","name":"OwnershipTransferred","inputs":[{"name":"previousOwner","type":"address","indexed":true,"internalType":"address"},{"name":"newOwner","type":"address","indexed":true,"internalType":"address"}],"anonymous":false},{"type":"event","name":"Redemption","inputs":[{"name":"messageId","type":"bytes32","indexed":true,"internalType":"bytes32"},{"name":"nonce","type":"uint256","indexed":true,"internalType":"uint256"},{"name":"user","type":"address","indexed":true,"internalType":"address"},{"name":"outputToken","type":"address","indexed":false,"internalType":"address"},{"name":"inputAmount","type":"uint256","indexed":false,"internalType":"uint256"},{"name":"outputAmount","type":"uint256","indexed":false,"internalType":"uint256"},{"name":"time","type":"uint256","indexed":false,"internalType":"uint256"}],"anonymous":false},{"type":"event","name":"RequestIssuance","inputs":[{"name":"messageId","type":"bytes32","indexed":true,"internalType":"bytes32"},{"name":"nonce","type":"uint256","indexed":true,"internalType":"uint256"},{"name":"user","type":"address","indexed":true,"internalType":"address"},{"name":"inputToken","type":"address","indexed":false,"internalType":"address"},{"name":"inputAmount","type":"uint256","indexed":false,"internalType":"uint256"},{"name":"outputAmount","type":"uint256","indexed":false,"internalType":"uint256"},{"name":"time","type":"uint256","indexed":false,"internalType":"uint256"}],"anonymous":false},{"type":"event","name":"RequestRedemption","inputs":[{"name":"messageId","type":"bytes32","indexed":true,"internalType":"bytes32"},{"name":"nonce","type":"uint256","indexed":true,"internalType":"uint256"},{"name":"user","type":"address","indexed":true,"internalType":"address"},{"name":"outputToken","type":"address","indexed":false,"internalType":"address"},{"name":"inputAmount","type":"uint256","indexed":false,"internalType":"uint256"},{"name":"outputAmount","type":"uint256","indexed":false,"internalType":"uint256"},{"name":"time","type":"uint256","indexed":false,"internalType":"uint256"}],"anonymous":false},{"type":"error","name":"InvalidRouter","inputs":[{"name":"router","type":"address","internalType":"address"}]}],"bytecode":{"object":"0x6080604052348015600e575f80fd5b5061554f8061001c5f395ff3fe608060405260043610610241575f3560e01c80639ff73f4511610134578063cc8659ae116100b3578063dd811ac911610078578063dd811ac914610784578063e7d015f2146107a3578063ee7bd3e2146107c2578063efdcd974146107e1578063f2fde38b14610800578063fd4851011461081f575f80fd5b8063cc8659ae14610700578063d0586d711461071f578063d153b60c1461073e578063d28c00fc1461075d578063d54f7d5e1461062e575f80fd5b8063b5ed298a116100f9578063b5ed298a1461066f578063bcab90b31461068e578063c06e1ae2146106ad578063c086381e146106cc578063c9172ef7146106eb575f80fd5b80639ff73f4514610538578063a8509fd81461056b578063aa4379c01461057f578063b0f479a11461062e578063b3f0067414610650575f80fd5b80635177942a116101c057806385572ffb1161018557806385572ffb146104b35780638da5cb5b146104d257806392f6576e146104ef578063978bbdb9146105035780639dbb9c9e14610523575f80fd5b80635177942a1461042657806358c0f10d14610445578063715018a61461046b5780637d253aff1461047f57806384d77bb11461049e575f80fd5b8063340fbc7411610206578063340fbc74146103835780633c8da588146103a25780633d54cb6f146103b65780633fc8cef3146103ed57806341d1181714610413575f80fd5b8063011ced5f1461024c57806301ffc9a71461027457806316b487ff146102a357806319da7e2a146102c45780632d6fc6b3146102fb575f80fd5b3661024857005b5f80fd5b348015610257575f80fd5b5061026160cd5481565b6040519081526020015b60405180910390f35b34801561027f575f80fd5b5061029361028e366004614747565b61083e565b604051901515815260200161026b565b3480156102ae575f80fd5b506102c26102bd3660046147a6565b610874565b005b3480156102cf575f80fd5b506102e36102de366004614813565b610ab1565b6040516001600160a01b03909116815260200161026b565b348015610306575f80fd5b5061035161031536600461482e565b60d26020525f90815260409020600181015460028201546003830154600484015460059094015492936001600160a01b03928316939192169085565b604080519586526001600160a01b0394851660208701528501929092529091166060830152608082015260a00161026b565b34801561038e575f80fd5b506102e361039d366004614813565b610b25565b3480156103ad575f80fd5b50610261610b5e565b3480156103c1575f80fd5b5060ce546103d5906001600160401b031681565b6040516001600160401b03909116815260200161026b565b3480156103f8575f80fd5b5060ce546102e390600160401b90046001600160a01b031681565b6102c2610421366004614845565b610bce565b348015610431575f80fd5b506102c2610440366004614865565b610dbe565b348015610450575f80fd5b50610459600181565b60405160ff909116815260200161026b565b348015610476575f80fd5b506102c2610eef565b34801561048a575f80fd5b5060cb546102e3906001600160a01b031681565b3480156104a9575f80fd5b5061026160d05481565b3480156104be575f80fd5b506102c26104cd366004614885565b610f02565b3480156104dd575f80fd5b506033546001600160a01b03166102e3565b3480156104fa575f80fd5b50610459606481565b34801561050e575f80fd5b5060cc5461045990600160a01b900460ff1681565b34801561052e575f80fd5b5061026160cf5481565b348015610543575f80fd5b50610557610552366004614813565b610f48565b60405162ffffff909116815260200161026b565b348015610576575f80fd5b50610261610fd7565b34801561058a575f80fd5b506105e861059936600461482e565b60d36020525f9081526040902080546001820154600283015460038401546004850154600590950154939492936001600160a01b039283169392821692600160a01b90920462ffffff16919087565b6040805197885260208801969096526001600160a01b039485169587019590955292909116606085015262ffffff16608084015260a083015260c082015260e00161026b565b348015610639575f80fd5b505f546201000090046001600160a01b03166102e3565b34801561065b575f80fd5b5060d1546102e3906001600160a01b031681565b34801561067a575f80fd5b506102c26106893660046148bb565b611386565b348015610699575f80fd5b506102616106a83660046149cf565b6113d6565b3480156106b8575f80fd5b5060ca546102e3906001600160a01b031681565b3480156106d7575f80fd5b506102616106e636600461482e565b611405565b3480156106f6575f80fd5b5061026161a8c081565b34801561070b575f80fd5b506102c261071a3660046148bb565b61142b565b34801561072a575f80fd5b506102c2610739366004614a52565b611455565b348015610749575f80fd5b506065546102e3906001600160a01b031681565b348015610768575f80fd5b50610771600581565b60405161ffff909116815260200161026b565b34801561078f575f80fd5b5061026161079e366004614a8e565b61186c565b3480156107ae575f80fd5b5060cc546102e3906001600160a01b031681565b3480156107cd575f80fd5b506102616107dc366004614ad3565b6118f3565b3480156107ec575f80fd5b506102c26107fb3660046148bb565b611947565b34801561080b575f80fd5b506102c261081a3660046148bb565b611971565b34801561082a575f80fd5b506102c2610839366004614b1c565b611a96565b5f6001600160e01b031982166385572ffb60e01b148061086e57506001600160e01b031982166301ffc9a760e01b145b92915050565b5f54610100900460ff161580801561089257505f54600160ff909116105b806108ab5750303b1580156108ab57505f5460ff166001145b6109135760405162461bcd60e51b815260206004820152602e60248201527f496e697469616c697a61626c653a20636f6e747261637420697320616c72656160448201526d191e481a5b9a5d1a585b1a5e995960921b60648201526084015b60405180910390fd5b5f805460ff191660011790558015610934575f805461ff0019166101001790555b61093d83611da9565b610945611e21565b61094d611e4f565b610955611e79565b60ce80546001600160401b03881667ffffffffffffffff1990911617905560cc80546001600160a01b038088166001600160a01b03199283161790925560cb80548784169216821790555f5460405163095ea7b360e01b8152919263095ea7b3926109cf92620100009004909116905f1990600401614b58565b6020604051808303815f875af11580156109eb573d5f803e3d5ffd5b505050506040513d601f19601f82011682018060405250810190610a0f9190614b71565b5060ce805468010000000000000000600160e01b031916600160401b6001600160a01b0385160217905560cc805460ff60a01b1916600560a11b1790554260cd5560d18054336001600160a01b03199091161790558015610aa9575f805461ff0019169055604051600181527f7f26b83ff96e1f2b6a682f133852f6798a09c465da95921460cefb38474024989060200160405180910390a15b505050505050565b60ca54604051630ced3f1560e11b81526001600160401b03831660048201525f916001600160a01b0316906319da7e2a906024015b602060405180830381865afa158015610b01573d5f803e3d5ffd5b505050506040513d601f19601f8201168201806040525081019061086e9190614b90565b60ca54604051630d03ef1d60e21b81526001600160401b03831660048201525f916001600160a01b03169063340fbc7490602401610ae6565b60ca5460408051630791b4b160e31b815290515f926001600160a01b031691633c8da5889160048083019260209291908290030181865afa158015610ba5573d5f803e3d5ffd5b505050506040513d601f19601f82011682018060405250810190610bc99190614bab565b905090565b5f610be88360cc60149054906101000a900460ff16611ea6565b90505f82610bf68386614bd6565b610c009190614bd6565b905080341015610c525760405162461bcd60e51b815260206004820152601a60248201527f6c6f776572207468616e20726571756972656420616d6f756e74000000000000604482015260640161090a565b60ce60089054906101000a90046001600160a01b03166001600160a01b031663d0e30db0826040518263ffffffff1660e01b81526004015f604051808303818588803b158015610ca0575f80fd5b505af1158015610cb2573d5f803e3d5ffd5b505060ce5460d15460405163a9059cbb60e01b81526001600160a01b03600160401b9093048316955063a9059cbb9450610cf493509116908690600401614b58565b6020604051808303815f875af1158015610d10573d5f803e3d5ffd5b505050506040513d601f19601f82011682018060405250810190610d349190614b71565b5060cf8054905f610d4483614be9565b909155505060cf80545f90815260d260205260408082206002018054336001600160a01b0319918216179091558354835281832060030188905560ce8054945484529190922060040180546001600160a01b03600160401b9586900481169190941617905554610db8929004168585611ec1565b50505050565b610dc661210e565b61a8c060cd5442610dd79190614c01565b1015610e4b5760405162461bcd60e51b815260206004820152603960248201527f596f752073686f756c642077616974206174206c6561737420313220686f757260448201527f7320616674657220746865206c61746573742075706461746500000000000000606482015260840161090a565b606460ff821611801590610e635750600160ff821610155b610ecb5760405162461bcd60e51b815260206004820152603360248201527f546865206e65774665652073686f756c64206265206265747765656e203120616044820152726e64203130302028302e303125202d2031252960681b606482015260840161090a565b60cc805460ff909216600160a01b0260ff60a01b199092169190911790554260cd55565b610ef761210e565b610f005f612168565b565b5f546201000090046001600160a01b03163314610f34576040516335fdcccd60e21b815233600482015260240161090a565b610f45610f4082614cce565b6121b9565b50565b5f80610f5383610ab1565b60ca54604051633291aa5760e11b81526001600160401b03861660048201526001600160a01b03808416602483015292935091169063652354ae90604401602060405180830381865afa158015610fac573d5f803e3d5ffd5b505050506040513d601f19601f82011682018060405250810190610fd09190614d7f565b9392505050565b5f805f60ca5f9054906101000a90046001600160a01b03166001600160a01b03166353fd43326040518163ffffffff1660e01b8152600401602060405180830381865afa15801561102a573d5f803e3d5ffd5b505050506040513d601f19601f8201168201806040525081019061104e9190614bab565b90505f5b8181101561137e5760ca5460405163264cae9360e21b8152600481018390525f916001600160a01b031690639932ba4c90602401602060405180830381865afa1580156110a1573d5f803e3d5ffd5b505050506040513d601f19601f820116820180604052508101906110c59190614b90565b60ca54604051633aa3b3c160e21b81526001600160a01b0380841660048301529293505f929091169063ea8ecf0490602401602060405180830381865afa158015611112573d5f803e3d5ffd5b505050506040513d601f19601f820116820180604052508101906111369190614d9a565b60ca54604051633259966560e01b81526001600160a01b0385811660048301529293505f9290911690633259966590602401602060405180830381865afa158015611183573d5f803e3d5ffd5b505050506040513d601f19601f820116820180604052508101906111a79190614d7f565b60ce549091506001600160401b03908116908316036113735760ce546001600160a01b03600160401b90910481169084160361125a5760cc546040516370a0823160e01b81526001600160a01b039182166004820152908416906370a0823190602401602060405180830381865afa158015611225573d5f803e3d5ffd5b505050506040513d601f19601f820116820180604052508101906112499190614bab565b6112539087614bd6565b9550611373565b60ca5460ce5460cc546040516370a0823160e01b81526001600160a01b0391821660048201525f9382169263dd811ac9928892600160401b909204811691908316906370a0823190602401602060405180830381865afa1580156112c0573d5f803e3d5ffd5b505050506040513d601f19601f820116820180604052508101906112e49190614bab565b6040516001600160e01b031960e086901b1681526001600160a01b039384166004820152929091166024830152604482015262ffffff85166064820152608401602060405180830381865afa15801561133f573d5f803e3d5ffd5b505050506040513d601f19601f820116820180604052508101906113639190614bab565b905061136f8188614bd6565b9650505b505050600101611052565b509092915050565b61138e61210e565b6001600160a01b0381166113b45760405162461bcd60e51b815260040161090a90614db5565b606580546001600160a01b0319166001600160a01b0392909216919091179055565b5f805460cb546113fc916001600160a01b03620100009091048116911687878787612289565b95945050505050565b5f670de0b6b3a7640000611417610b5e565b6114219084614e05565b61086e9190614e1c565b61143361210e565b60ca80546001600160a01b0319166001600160a01b0392909216919091179055565b60cc54604080516318160ddd60e01b815290515f926001600160a01b0316916318160ddd9160048083019260209291908290030181865afa15801561149c573d5f803e3d5ffd5b505050506040513d601f19601f820116820180604052508101906114c09190614bab565b6114d286670de0b6b3a7640000614e05565b6114dc9190614e1c565b9050600160d05f8282546114f09190614bd6565b909155505060d080545f90815260d3602052604080822060020180546001600160a01b03199081163390811790925584548452828420600390810180546001600160a01b038b8116919094161790558554855283852001805462ffffff8916600160a01b0262ffffff60a01b199091161790559354835291819020600490810189905560cc549151632770a7eb60e21b81529190931692639dc29fac9261159b9290918a9101614b58565b5f604051808303815f87803b1580156115b2575f80fd5b505af11580156115c4573d5f803e3d5ffd5b505050505f60ca5f9054906101000a90046001600160a01b03166001600160a01b03166369487b1c6040518163ffffffff1660e01b8152600401602060405180830381865afa158015611619573d5f803e3d5ffd5b505050506040513d601f19601f8201168201806040525081019061163d9190614bab565b90505f60ca5f9054906101000a90046001600160a01b03166001600160a01b031663b90b8a2a6040518163ffffffff1660e01b8152600401602060405180830381865afa158015611690573d5f803e3d5ffd5b505050506040513d601f19601f820116820180604052508101906116b49190614bab565b60ca546040516369fbf93360e11b8152600481018390529192505f916001600160a01b039091169063d3f7f266906024015f60405180830381865afa1580156116ff573d5f803e3d5ffd5b505050506040513d5f823e601f3d908101601f191682016040526117269190810190614f5e565b93505050505f5b8381101561180d575f82828151811061174857611748615075565b602090810291909101015160ca5460405163b6ad185b60e01b81526001600160401b03831660048201529192505f916001600160a01b039091169063b6ad185b90602401602060405180830381865afa1580156117a7573d5f803e3d5ffd5b505050506040513d601f19601f820116820180604052508101906117cb9190614bab565b60ce549091506001600160401b03908116908316036117f6576117f18760d054836124d8565b611803565b6118038760d0548461288c565b505060010161172d565b5060d0545f81815260d360205260408082206005015490513393927f4f9e9bfb3670784096375593cb821e86bd88b1fcb08efc38330012d8c33c3e369161185a918c918f91904290615089565b60405180910390a45050505050505050565b60ca5460405163dd811ac960e01b81526001600160a01b03868116600483015285811660248301526044820185905262ffffff841660648301525f92169063dd811ac9906084015b602060405180830381865afa1580156118cf573d5f803e3d5ffd5b505050506040513d601f19601f820116820180604052508101906113fc9190614bab565b60ca5460405163773de9f160e11b81526001600160a01b03868116600483015285811660248301526001600160801b038516604483015262ffffff841660648301525f92169063ee7bd3e2906084016118b4565b61194f61210e565b60d180546001600160a01b0319166001600160a01b0392909216919091179055565b6001600160a01b0381166119975760405162461bcd60e51b815260040161090a90614db5565b6065546001600160a01b03828116911614611a0f5760405162461bcd60e51b815260206004820152603260248201527f50726f706f7361626c654f776e61626c653a206e6577206f776e6572206973206044820152713737ba10383937b837b9b2b21037bbb732b960711b606482015260840161090a565b6001600160a01b0381163314611a8d5760405162461bcd60e51b815260206004820152603a60248201527f50726f706f7361626c654f776e61626c653a20746869732063616c6c206d757360448201527f74206265206d61646520627920746865206e6577206f776e6572000000000000606482015260840161090a565b610f4581612168565b60ca5460408051633fc8cef360e01b815290515f926001600160a01b031691633fc8cef39160048083019260209291908290030181865afa158015611add573d5f803e3d5ffd5b505050506040513d601f19601f82011682018060405250810190611b019190614b90565b90505f60ca5f9054906101000a90046001600160a01b03166001600160a01b031663fbfa77cf6040518163ffffffff1660e01b8152600401602060405180830381865afa158015611b54573d5f803e3d5ffd5b505050506040513d601f19601f82011682018060405250810190611b789190614b90565b90505f611b948660cc60149054906101000a900460ff16611ea6565b90506001600160a01b0387166323b872dd3330611bb1858b614bd6565b6040516001600160e01b031960e086901b1681526001600160a01b03938416600482015292909116602483015260448201526064016020604051808303815f875af1158015611c02573d5f803e3d5ffd5b505050506040513d601f19601f82011682018060405250810190611c269190614b71565b611c6a5760405162461bcd60e51b8152602060048201526015602482015274151bdad95b881d1c985b9cd9995c8819985a5b1959605a1b604482015260640161090a565b5f611c818885611c7a858b614bd6565b3089612abd565b60cc549091505f9061271090611ca190600160a01b900460ff1684614e05565b611cab9190614e1c565b90505f611cb88284614c01565b60d15460405163a9059cbb60e01b81529192506001600160a01b038089169263a9059cbb92611ced9216908690600401614b58565b6020604051808303815f875af1158015611d09573d5f803e3d5ffd5b505050506040513d601f19601f82011682018060405250810190611d2d9190614b71565b5060cf8054905f611d3d83614be9565b909155505060cf80545f90815260d260205260408082206002018054336001600160a01b031991821617909155835483528183206003018d905592548252902060040180549091166001600160a01b038c16179055611d9d8a828a611ec1565b50505050505050505050565b5f54610100900460ff16611dcf5760405162461bcd60e51b815260040161090a906150af565b6001600160a01b038116611df8576040516335fdcccd60e21b81525f600482015260240161090a565b5f80546001600160a01b03909216620100000262010000600160b01b0319909216919091179055565b5f54610100900460ff16611e475760405162461bcd60e51b815260040161090a906150af565b610f00612bc7565b5f54610100900460ff16611e755760405162461bcd60e51b815260040161090a906150af565b610f005b5f54610100900460ff16611e9f5760405162461bcd60e51b815260040161090a906150af565b6001609855565b5f612710611eb760ff841685614e05565b610fd09190614e1c565b60ca5460408051631a521ec760e21b8152905184925f926001600160a01b03909116916369487b1c916004808201926020929091908290030181865afa158015611f0d573d5f803e3d5ffd5b505050506040513d601f19601f82011682018060405250810190611f319190614bab565b90505f60ca5f9054906101000a90046001600160a01b03166001600160a01b031663b90b8a2a6040518163ffffffff1660e01b8152600401602060405180830381865afa158015611f84573d5f803e3d5ffd5b505050506040513d601f19601f82011682018060405250810190611fa89190614bab565b60ca546040516369fbf93360e11b8152600481018390529192505f916001600160a01b039091169063d3f7f266906024015f60405180830381865afa158015611ff3573d5f803e3d5ffd5b505050506040513d5f823e601f3d908101601f1916820160405261201a9190810190614f5e565b93505050505f5b83811015612104575f82828151811061203c5761203c615075565b602090810291909101015160ca5460405163b6ad185b60e01b81526001600160401b03831660048201529192505f916001600160a01b039091169063b6ad185b90602401602060405180830381865afa15801561209b573d5f803e3d5ffd5b505050506040513d601f19601f820116820180604052508101906120bf9190614bab565b60ce549091506001600160401b03908116908316036120ec576120e78760cf54838589612bf6565b6120fa565b6120fa8760cf5484886131fe565b5050600101612021565b5050505050505050565b6033546001600160a01b03163314610f005760405162461bcd60e51b815260206004820181905260248201527f4f776e61626c653a2063616c6c6572206973206e6f7420746865206f776e6572604482015260640161090a565b603380546001600160a01b038381166001600160a01b0319831681179093556040519116919082907f8be0079c531659141344cd1fd0a4f28419497f9722a3daafe3b4186f6b6457e0905f90a35050565b805160208083015160ca54604080516329fea19960e11b8152905192935f936001600160a01b03909316926353fd43329260048082019392918290030181865afa158015612209573d5f803e3d5ffd5b505050506040513d601f19601f8201168201806040525081019061222d9190614bab565b90505f805f805f80896060015180602001905181019061224d91906150fa565b955095509550955095509550855f036122735761226e838684848b8e613643565b611d9d565b85600103611d9d57611d9d838b878a8c8e61378c565b6040805160a081019091526001600160a01b03841660c08201525f9081908060e0810160408051808303601f19018152918152908252602080830188905281515f8082529181018352929091019190612303565b604080518082019091525f80825260208201528152602001906001900390816122dd5790505b508152602001600185600181111561231d5761231d6151c3565b14612328575f61232a565b885b6001600160a01b031681526020016123526040518060200160405280622dc6c0815250613878565b90526040516320487ded60e01b81529091505f906001600160a01b038a16906320487ded90612387908a908690600401615205565b602060405180830381865afa1580156123a2573d5f803e3d5ffd5b505050506040513d601f19601f820116820180604052508101906123c69190614bab565b90505f60018560018111156123dd576123dd6151c3565b03612457576040516396f4e9f960e01b81526001600160a01b038b16906396f4e9f990612410908b908790600401615205565b6020604051808303815f875af115801561242c573d5f803e3d5ffd5b505050506040513d601f19601f820116820180604052508101906124509190614bab565b90506124cb565b6040516396f4e9f960e01b81526001600160a01b038b16906396f4e9f9908490612487908c908890600401615205565b60206040518083038185885af11580156124a3573d5f803e3d5ffd5b50505050506040513d601f19601f820116820180604052508101906124c89190614bab565b90505b9998505050505050505050565b60ca5460ce5460405163d1c68aa360e01b81526001600160401b0390911660048201525f916001600160a01b03169063d1c68aa3906024015f60405180830381865afa15801561252a573d5f803e3d5ffd5b505050506040513d5f823e601f3d908101601f1916820160405261255191908101906152d8565b90505f60ca5f9054906101000a90046001600160a01b03166001600160a01b031663fbfa77cf6040518163ffffffff1660e01b8152600401602060405180830381865afa1580156125a4573d5f803e3d5ffd5b505050506040513d601f19601f820116820180604052508101906125c89190614b90565b90505f5b83811015610aa9575f8382815181106125e7576125e7615075565b602090810291909101015160ca54604051633259966560e01b81526001600160a01b0380841660048301529293505f9290911690633259966590602401602060405180830381865afa15801561263f573d5f803e3d5ffd5b505050506040513d601f19601f820116820180604052508101906126639190614d7f565b90505f670de0b6b3a7640000836001600160a01b03166370a0823160ca5f9054906101000a90046001600160a01b03166001600160a01b031663fbfa77cf6040518163ffffffff1660e01b8152600401602060405180830381865afa1580156126ce573d5f803e3d5ffd5b505050506040513d601f19601f820116820180604052508101906126f29190614b90565b6040516001600160e01b031960e084901b1681526001600160a01b039091166004820152602401602060405180830381865afa158015612734573d5f803e3d5ffd5b505050506040513d601f19601f820116820180604052508101906127589190614bab565b612762908b614e05565b61276c9190614e1c565b604051631c20fadd60e01b81526001600160a01b0385811660048301523060248301526044820183905291925090861690631c20fadd906064016020604051808303815f875af11580156127c2573d5f803e3d5ffd5b505050506040513d601f19601f820116820180604052508101906127e69190614b71565b5060ce545f906001600160a01b03858116600160401b909204161461282b5760ce54612826908590600160401b90046001600160a01b0316843087612abd565b61282d565b815b5f8a815260d3602052604081208054929350839290919061284f908490614bd6565b90915550505f89815260d3602052604081206001908101805491929091612877908490614bd6565b9091555050600190940193506125cc92505050565b5f61289682610b25565b60ca5460405163d1c68aa360e01b81526001600160401b03851660048201529192505f916001600160a01b039091169063d1c68aa3906024015f60405180830381865afa1580156128e9573d5f803e3d5ffd5b505050506040513d5f823e601f3d908101601f1916820160405261291091908101906152d8565b60ca5460405163221f337160e01b81526001600160401b03861660048201529192505f916001600160a01b039091169063221f3371906024015f60405180830381865afa158015612963573d5f803e3d5ffd5b505050506040513d5f823e601f3d908101601f1916820160405261298a9190810190615311565b60ca54604051632bda5acd60e21b81526001600160401b03871660048201529192505f916001600160a01b039091169063af696b34906024015f60405180830381865afa1580156129dd573d5f803e3d5ffd5b505050506040513d5f823e601f3d908101601f19168201604052612a049190810190615311565b604080515f80825260208083018281526001848601818152608086019096529596509294929391929060608601908036833701905050905089815f81518110612a4f57612a4f615075565b6020026020010181815250505f6001878588868e8a88604051602001612a7c9897969594939291906153b5565b60405160208183030381529060405290505f612a9b8a8a8460016113d6565b5f9b8c5260d36020526040909b206005019a909a555050505050505050505050565b5f8060ca5f9054906101000a90046001600160a01b03166001600160a01b031663b631e80b6040518163ffffffff1660e01b8152600401602060405180830381865afa158015612b0f573d5f803e3d5ffd5b505050506040513d601f19601f82011682018060405250810190612b339190614b90565b90505f60ca5f9054906101000a90046001600160a01b03166001600160a01b031663744fbc7a6040518163ffffffff1660e01b8152600401602060405180830381865afa158015612b86573d5f803e3d5ffd5b505050506040513d601f19601f82011682018060405250810190612baa9190614b90565b9050612bbb8282868b8b8b8b6138b5565b98975050505050505050565b5f54610100900460ff16612bed5760405162461bcd60e51b815260040161090a906150af565b610f0033612168565b60ca5460405163d1c68aa360e01b81526001600160401b03841660048201525f916001600160a01b03169063d1c68aa3906024015f60405180830381865afa158015612c44573d5f803e3d5ffd5b505050506040513d5f823e601f3d908101601f19168201604052612c6b91908101906152d8565b90505f5b848110156131f5575f828281518110612c8a57612c8a615075565b602090810291909101015160ca54604051633259966560e01b81526001600160a01b0380841660048301529293505f9290911690633259966590602401602060405180830381865afa158015612ce2573d5f803e3d5ffd5b505050506040513d601f19601f82011682018060405250810190612d069190614d7f565b60ca54604051630be5271360e01b81526001600160a01b0385811660048301529293505f9290911690630be5271390602401602060405180830381865afa158015612d53573d5f803e3d5ffd5b505050506040513d601f19601f82011682018060405250810190612d779190614bab565b60ce549091505f906001600160a01b03858116600160401b9092041614612ea957612ea46106e68560ce60089054906101000a90046001600160a01b0316876001600160a01b03166370a0823160ca5f9054906101000a90046001600160a01b03166001600160a01b031663fbfa77cf6040518163ffffffff1660e01b8152600401602060405180830381865afa158015612e14573d5f803e3d5ffd5b505050506040513d601f19601f82011682018060405250810190612e389190614b90565b6040516001600160e01b031960e084901b1681526001600160a01b039091166004820152602401602060405180830381865afa158015612e7a573d5f803e3d5ffd5b505050506040513d601f19601f82011682018060405250810190612e9e9190614bab565b8761186c565b612f95565b612f95846001600160a01b03166370a0823160ca5f9054906101000a90046001600160a01b03166001600160a01b031663fbfa77cf6040518163ffffffff1660e01b8152600401602060405180830381865afa158015612f0b573d5f803e3d5ffd5b505050506040513d601f19601f82011682018060405250810190612f2f9190614b90565b6040516001600160e01b031960e084901b1681526001600160a01b039091166004820152602401602060405180830381865afa158015612f71573d5f803e3d5ffd5b505050506040513d601f19601f820116820180604052508101906106e69190614bab565b5f8b815260d2602090815260408083206001600160a01b0389168452909152812082905590915068056bc75e2d63100000612fd0848e614e05565b612fda9190614e1c565b60ce549091506001600160a01b03868116600160401b90920416146130945761308e60ce60089054906101000a90046001600160a01b0316868360ca5f9054906101000a90046001600160a01b03166001600160a01b031663fbfa77cf6040518163ffffffff1660e01b8152600401602060405180830381865afa158015613064573d5f803e3d5ffd5b505050506040513d601f19601f820116820180604052508101906130889190614b90565b88612abd565b50613171565b60ce5460ca546040805163fbfa77cf60e01b815290516001600160a01b03600160401b90940484169363a9059cbb93169163fbfa77cf9160048083019260209291908290030181865afa1580156130ed573d5f803e3d5ffd5b505050506040513d601f19601f820116820180604052508101906131119190614b90565b836040518363ffffffff1660e01b815260040161312f929190614b58565b6020604051808303815f875af115801561314b573d5f803e3d5ffd5b505050506040513d601f19601f8201168201806040525081019061316f9190614b71565b505b61319268056bc75e2d63100000613188858f614e05565b6106e69190614e1c565b61319c9083614bd6565b5f8c815260d2602081815260408084206001600160a01b038b1685528083529084206001908101959095558f8452919052820180549091906131df908490614bd6565b909155505060019095019450612c6f9350505050565b50505050505050565b6132306040518060a0016040528060608152602001606081526020016060815260200160608152602001606081525090565b60ca54604051632a3ff8ad60e01b8152600481018490526001600160401b03851660248201525f916001600160a01b031690632a3ff8ad90604401602060405180830381865afa158015613286573d5f803e3d5ffd5b505050506040513d601f19601f820116820180604052508101906132aa9190614bab565b6040805160018082528183019092529192505f91906020808301908036833701905050905081815f815181106132e2576132e2615075565b602090810291909101015260ce545f9061335790600160401b90046001600160a01b031661330f88610ab1565b68056bc75e2d63100000855f8151811061332b5761332b615075565b60200260200101518c61333e9190614e05565b6133489190614e1c565b306133528b610f48565b612abd565b90505f61336387610b25565b60ca5460405163d1c68aa360e01b81526001600160401b038a1660048201529192506001600160a01b03169063d1c68aa3906024015f60405180830381865afa1580156133b2573d5f803e3d5ffd5b505050506040513d5f823e601f3d908101601f191682016040526133d991908101906152d8565b855260ca5460405163221f337160e01b81526001600160401b03891660048201526001600160a01b039091169063221f3371906024015f60405180830381865afa158015613429573d5f803e3d5ffd5b505050506040513d5f823e601f3d908101601f191682016040526134509190810190615311565b602086015260ca54604051632bda5acd60e21b81526001600160401b03891660048201526001600160a01b039091169063af696b34906024015f60405180830381865afa1580156134a3573d5f803e3d5ffd5b505050506040513d5f823e601f3d908101601f191682016040526134ca9190810190615311565b60408681019190915280515f808252602080830184526060890192909252825181815280830184526080890152825160018082528185019094529092909182015b604080518082019091525f808252602082015281526020019060019003908161350b57905050905061353c88610ab1565b815f8151811061354e5761354e615075565b60200260200101515f01906001600160a01b031690816001600160a01b03168152505082815f8151811061358457613584615075565b602002602001015160200181815250505f80875f0151886060015189602001518a608001518e8c604001518b6040516020016135c79897969594939291906153b5565b60405160208183030381529060405290505f6135e78a83868660016138f1565b90507f54791b38f3859327992a1ca0590ad3c0f08feba98d1a4f56ab0dca74d203392a8160405161361a91815260200190565b60405180910390a160cf545f90815260d260205260409020600501555050505050505050505050565b855f5b8651811015613769575f86828151811061366257613662615075565b602002602001015190505f86838151811061367f5761367f615075565b602002602001015190508160d25f8681526020019081526020015f205f015f8b86815181106136b0576136b0615075565b60200260200101516001600160a01b03166001600160a01b031681526020019081526020015f205f01819055508060d25f8681526020019081526020015f205f015f8b868151811061370457613704615075565b60200260200101516001600160a01b03166001600160a01b031681526020019081526020015f2060010181905550600160d25f8681526020019081526020015f206001015f8282546137569190614bd6565b9091555050600190920191506136469050565b505f81815260d260205260409020600101548390036131f5576131f5818361396a565b608085015180518791905f90829082906137a8576137a8615075565b60200260200101515f015190505f825f815181106137c8576137c8615075565b60200260200101516020015190505f6137fb8360ce60089054906101000a90046001600160a01b03168430610bb8612abd565b5f86815260d3602052604081208054929350839290919061381d908490614bd6565b909155505088515f86815260d3602052604081206001018054909190613844908490614bd6565b90915550505f85815260d3602052604090206001015488900361386b5761386b8587613d44565b5050505050505050505050565b60408051915160248084019190915281518084039091018152604490920190526020810180516001600160e01b03166397a657c960e01b17905290565b5f62ffffff8616156138d6576138cf88878787878761403c565b90506138e6565b6138e38786868686614185565b90505b979650505050505050565b5f6138fa61436a565b5f805460cb54613923916001600160a01b03620100009091048116911660058a8a8a8a8a6143c3565b90507f54791b38f3859327992a1ca0590ad3c0f08feba98d1a4f56ab0dca74d203392a8160405161395691815260200190565b60405180910390a190506113fc6001609855565b5f805f60ca5f9054906101000a90046001600160a01b03166001600160a01b03166353fd43326040518163ffffffff1660e01b8152600401602060405180830381865afa1580156139bd573d5f803e3d5ffd5b505050506040513d601f19601f820116820180604052508101906139e19190614bab565b90505f5b81811015613ac45760ca5460405163264cae9360e21b8152600481018390525f916001600160a01b031690639932ba4c90602401602060405180830381865afa158015613a34573d5f803e3d5ffd5b505050506040513d601f19601f82011682018060405250810190613a589190614b90565b5f88815260d2602090815260408083206001600160a01b0385168452909152902054909150613a879086614bd6565b5f88815260d2602090815260408083206001600160a01b0386168452909152902060010154909550613ab99085614bd6565b9350506001016139e5565b505f8060cc5f9054906101000a90046001600160a01b03166001600160a01b03166318160ddd6040518163ffffffff1660e01b8152600401602060405180830381865afa158015613b17573d5f803e3d5ffd5b505050506040513d601f19601f82011682018060405250810190613b3b9190614bab565b1115613c505760cc5f9054906101000a90046001600160a01b03166001600160a01b03166318160ddd6040518163ffffffff1660e01b8152600401602060405180830381865afa158015613b91573d5f803e3d5ffd5b505050506040513d601f19601f82011682018060405250810190613bb59190614bab565b848460cc5f9054906101000a90046001600160a01b03166001600160a01b03166318160ddd6040518163ffffffff1660e01b8152600401602060405180830381865afa158015613c07573d5f803e3d5ffd5b505050506040513d601f19601f82011682018060405250810190613c2b9190614bab565b613c359190614e05565b613c3f9190614e1c565b613c499190614c01565b9050613c5e565b613c5b836064614e05565b90505b60cc545f87815260d26020526040908190206002015490516340c10f1960e01b81526001600160a01b03928316926340c10f1992613ca3929116908590600401614b58565b5f604051808303815f87803b158015613cba575f80fd5b505af1158015613ccc573d5f803e3d5ffd5b5050505f87815260d26020526040908190206002810154600482015460039092015492516001600160a01b0391821694508a938a937f4d3128af979c46a863cd489a3d0959d5d22181cdbdb1949b40cadfcdac0a1d3893613d34939116919088904290615089565b60405180910390a4505050505050565b5f82815260d3602052604081208054600282015460039092015460cc5491936001600160a01b039384169382169262ffffff600160a01b938490041692613d9191879160ff910416611ea6565b60ce5460d15460405163a9059cbb60e01b81529293506001600160a01b03600160401b90920482169263a9059cbb92613dd09216908590600401614b58565b6020604051808303815f875af1158015613dec573d5f803e3d5ffd5b505050506040513d601f19601f82011682018060405250810190613e109190614b71565b5060ce546001600160a01b03600160401b909104811690841603613fba5760ce54600160401b90046001600160a01b0316632e1a7d4d613e508388614c01565b6040518263ffffffff1660e01b8152600401613e6e91815260200190565b5f604051808303815f87803b158015613e85575f80fd5b505af1158015613e97573d5f803e3d5ffd5b505050505f846001600160a01b03168287613eb29190614c01565b6040515f81818185875af1925050503d805f8114613eeb576040519150601f19603f3d011682016040523d82523d5f602084013e613ef0565b606091505b5050905080613f4d5760405162461bcd60e51b8152602060048201526024808201527f7472616e736665722065746820746f20746865207265717565737465722066616044820152631a5b195960e21b606482015260840161090a565b5f88815260d360205260409020600401546001600160a01b03861690899089907f476778ca38557db6dc935a57ece5bd93fbaca20183fadf86d7a1d2b85df65e01908890613f9b888d614c01565b42604051613fac9493929190615089565b60405180910390a4506131f5565b60ce545f90613fe590600160401b90046001600160a01b031685613fde858a614c01565b8887612abd565b9050846001600160a01b031688887f476778ca38557db6dc935a57ece5bd93fbaca20183fadf86d7a1d2b85df65e018760d35f8e81526020019081526020015f2060040154864260405161185a9493929190615089565b60405163095ea7b360e01b81525f906001600160a01b0386169063095ea7b39061406c908a908790600401614b58565b6020604051808303815f875af1158015614088573d5f803e3d5ffd5b505050506040513d601f19601f820116820180604052508101906140ac9190614b71565b505f604051806101000160405280876001600160a01b03168152602001866001600160a01b031681526020018862ffffff168152602001846001600160a01b031681526020014261012c6141009190614bd6565b8152602081018690525f60408083018290526060909201525163414bf38960e01b81529091506001600160a01b0389169063414bf38990614145908490600401615449565b6020604051808303815f875af1158015614161573d5f803e3d5ffd5b505050506040513d601f19601f82011682018060405250810190612bbb9190614bab565b6040805160028082526060820183525f928392919060208301908036833701905050905085815f815181106141bc576141bc615075565b60200260200101906001600160a01b031690816001600160a01b03168152505084816001815181106141f0576141f0615075565b6001600160a01b03928316602091820292909201015260405163d06ca61f60e01b81525f9189169063d06ca61f9061422e90889086906004016154c6565b5f60405180830381865afa158015614248573d5f803e3d5ffd5b505050506040513d5f823e601f3d908101601f1916820160405261426f9190810190615311565b60405163095ea7b360e01b81529091506001600160a01b0388169063095ea7b3906142a0908b908990600401614b58565b6020604051808303815f875af11580156142bc573d5f803e3d5ffd5b505050506040513d601f19601f820116820180604052508101906142e09190614b71565b50604051635c11d79560e01b81526001600160a01b03891690635c11d795906143159088905f9087908a9042906004016154de565b5f604051808303815f87803b15801561432c575f80fd5b505af115801561433e573d5f803e3d5ffd5b505050508060018151811061435557614355615075565b60200260200101519250505095945050505050565b6002609854036143bc5760405162461bcd60e51b815260206004820152601f60248201527f5265656e7472616e637947756172643a207265656e7472616e742063616c6c00604482015260640161090a565b6002609855565b81515f9061ffff88168111156144415760405162461bcd60e51b815260206004820152603760248201527f4d6178696d756d203520646966666572656e7420746f6b656e732063616e206260448201527f652073656e74207065722043434950204d657373616765000000000000000000606482015260840161090a565b5f5b8181101561453157896001600160a01b031685828151811061446757614467615075565b60200260200101515f01516001600160a01b0316146145295784818151811061449257614492615075565b60200260200101515f01516001600160a01b031663095ea7b38c8784815181106144be576144be615075565b6020026020010151602001516040518363ffffffff1660e01b81526004016144e7929190614b58565b6020604051808303815f875af1158015614503573d5f803e3d5ffd5b505050506040513d601f19601f820116820180604052508101906145279190614b71565b505b600101614443565b506040805160a081019091526001600160a01b03861660c08201525f908060e0810160408051601f19818403018152918152908252602082018a905281018790526060016001866001811115614589576145896151c3565b14614594575f614596565b8b5b6001600160a01b031681526020016145be6040518060200160405280622dc6c0815250613878565b90526040516320487ded60e01b81529091505f906001600160a01b038d16906320487ded906145f3908c908690600401615205565b602060405180830381865afa15801561460e573d5f803e3d5ffd5b505050506040513d601f19601f820116820180604052508101906146329190614bab565b90505f6001866001811115614649576146496151c3565b036146c3576040516396f4e9f960e01b81526001600160a01b038e16906396f4e9f99061467c908d908790600401615205565b6020604051808303815f875af1158015614698573d5f803e3d5ffd5b505050506040513d601f19601f820116820180604052508101906146bc9190614bab565b9050614737565b6040516396f4e9f960e01b81526001600160a01b038e16906396f4e9f99084906146f3908e908890600401615205565b60206040518083038185885af115801561470f573d5f803e3d5ffd5b50505050506040513d601f19601f820116820180604052508101906147349190614bab565b90505b9c9b505050505050505050505050565b5f60208284031215614757575f80fd5b81356001600160e01b031981168114610fd0575f80fd5b6001600160401b0381168114610f45575f80fd5b803561478d8161476e565b919050565b6001600160a01b0381168114610f45575f80fd5b5f805f805f60a086880312156147ba575f80fd5b85356147c58161476e565b945060208601356147d581614792565b935060408601356147e581614792565b925060608601356147f581614792565b9150608086013561480581614792565b809150509295509295909350565b5f60208284031215614823575f80fd5b8135610fd08161476e565b5f6020828403121561483e575f80fd5b5035919050565b5f8060408385031215614856575f80fd5b50508035926020909101359150565b5f60208284031215614875575f80fd5b813560ff81168114610fd0575f80fd5b5f60208284031215614895575f80fd5b81356001600160401b038111156148aa575f80fd5b820160a08185031215610fd0575f80fd5b5f602082840312156148cb575f80fd5b8135610fd081614792565b634e487b7160e01b5f52604160045260245ffd5b604080519081016001600160401b038111828210171561490c5761490c6148d6565b60405290565b60405160a081016001600160401b038111828210171561490c5761490c6148d6565b604051601f8201601f191681016001600160401b038111828210171561495c5761495c6148d6565b604052919050565b5f82601f830112614973575f80fd5b81356001600160401b0381111561498c5761498c6148d6565b61499f601f8201601f1916602001614934565b8181528460208386010111156149b3575f80fd5b816020850160208301375f918101602001919091529392505050565b5f805f80608085870312156149e2575f80fd5b84356149ed8161476e565b935060208501356149fd81614792565b925060408501356001600160401b03811115614a17575f80fd5b614a2387828801614964565b925050606085013560028110614a37575f80fd5b939692955090935050565b62ffffff81168114610f45575f80fd5b5f805f8060808587031215614a65575f80fd5b84359350602085013592506040850135614a7e81614792565b91506060850135614a3781614a42565b5f805f8060808587031215614aa1575f80fd5b8435614aac81614792565b93506020850135614abc81614792565b9250604085013591506060850135614a3781614a42565b5f805f8060808587031215614ae6575f80fd5b8435614af181614792565b93506020850135614b0181614792565b925060408501356001600160801b0381168114614a7e575f80fd5b5f805f8060808587031215614b2f575f80fd5b8435614b3a81614792565b935060208501359250604085013591506060850135614a3781614a42565b6001600160a01b03929092168252602082015260400190565b5f60208284031215614b81575f80fd5b81518015158114610fd0575f80fd5b5f60208284031215614ba0575f80fd5b8151610fd081614792565b5f60208284031215614bbb575f80fd5b5051919050565b634e487b7160e01b5f52601160045260245ffd5b8082018082111561086e5761086e614bc2565b5f60018201614bfa57614bfa614bc2565b5060010190565b8181038181111561086e5761086e614bc2565b5f6001600160401b03821115614c2c57614c2c6148d6565b5060051b60200190565b5f82601f830112614c45575f80fd5b8135614c58614c5382614c14565b614934565b8082825260208201915060208360061b860101925085831115614c79575f80fd5b602085015b83811015614cc45760408188031215614c95575f80fd5b614c9d6148ea565b8135614ca881614792565b8152602082810135818301529084529290920191604001614c7e565b5095945050505050565b5f60a08236031215614cde575f80fd5b614ce6614912565b82358152614cf660208401614782565b602082015260408301356001600160401b03811115614d13575f80fd5b614d1f36828601614964565b60408301525060608301356001600160401b03811115614d3d575f80fd5b614d4936828601614964565b60608301525060808301356001600160401b03811115614d67575f80fd5b614d7336828601614c36565b60808301525092915050565b5f60208284031215614d8f575f80fd5b8151610fd081614a42565b5f60208284031215614daa575f80fd5b8151610fd08161476e565b60208082526030908201527f50726f706f7361626c654f776e61626c653a206e6577206f776e65722069732060408201526f746865207a65726f206164647265737360801b606082015260800190565b808202811582820484141761086e5761086e614bc2565b5f82614e3657634e487b7160e01b5f52601260045260245ffd5b500490565b5f82601f830112614e4a575f80fd5b8151614e58614c5382614c14565b8082825260208201915060208360051b860101925085831115614e79575f80fd5b602085015b83811015614cc4578051614e9181614792565b835260209283019201614e7e565b5f82601f830112614eae575f80fd5b8151614ebc614c5382614c14565b8082825260208201915060208360051b860101925085831115614edd575f80fd5b602085015b83811015614cc4578051835260209283019201614ee2565b5f82601f830112614f09575f80fd5b8151614f17614c5382614c14565b8082825260208201915060208360051b860101925085831115614f38575f80fd5b602085015b83811015614cc4578051614f508161476e565b835260209283019201614f3d565b5f805f8060808587031215614f71575f80fd5b84516001600160401b03811115614f86575f80fd5b614f9287828801614e3b565b94505060208501516001600160401b03811115614fad575f80fd5b614fb987828801614e9f565b93505060408501516001600160401b03811115614fd4575f80fd5b8501601f81018713614fe4575f80fd5b8051614ff2614c5382614c14565b8082825260208201915060208360051b850101925089831115615013575f80fd5b6020840193505b8284101561503e57835161502d81614a42565b82526020938401939091019061501a565b8095505050505060608501516001600160401b0381111561505d575f80fd5b61506987828801614efa565b91505092959194509250565b634e487b7160e01b5f52603260045260245ffd5b6001600160a01b0394909416845260208401929092526040830152606082015260800190565b6020808252602b908201527f496e697469616c697a61626c653a20636f6e7472616374206973206e6f74206960408201526a6e697469616c697a696e6760a81b606082015260800190565b5f805f805f8060c0878903121561510f575f80fd5b865160208801519096506001600160401b0381111561512c575f80fd5b61513889828a01614e3b565b95505060408701516001600160401b03811115615153575f80fd5b61515f89828a01614e3b565b606089015160808a0151919650945090506001600160401b03811115615183575f80fd5b61518f89828a01614e9f565b92505060a08701516001600160401b038111156151aa575f80fd5b6151b689828a01614e9f565b9150509295509295509295565b634e487b7160e01b5f52602160045260245ffd5b5f81518084528060208401602086015e5f602082860101526020601f19601f83011685010191505092915050565b6001600160401b0383168152604060208201525f825160a0604084015261522f60e08401826151d7565b90506020840151603f1984830301606085015261524c82826151d7565b6040860151858203603f190160808701528051808352602091820194505f93509101905b808310156152a757835180516001600160a01b03168352602090810151818401529093019260019290920191604090910190615270565b5060608601516001600160a01b031660a08601526080860151858203603f190160c087015292506138e681846151d7565b5f602082840312156152e8575f80fd5b81516001600160401b038111156152fd575f80fd5b61530984828501614e3b565b949350505050565b5f60208284031215615321575f80fd5b81516001600160401b03811115615336575f80fd5b61530984828501614e9f565b5f8151808452602084019350602083015f5b8281101561537b5781516001600160a01b0316865260209586019590910190600101615354565b5093949350505050565b5f8151808452602084019350602083015f5b8281101561537b578151865260209586019590910190600101615397565b60ff8916815261010060208201525f6153d261010083018a615342565b82810360408401526153e4818a615342565b905082810360608401526153f88189615385565b9050828103608084015261540c8188615385565b90508560a084015282810360c08401526154268186615385565b905082810360e084015261543a8185615385565b9b9a5050505050505050505050565b81516001600160a01b03908116825260208084015182169083015260408084015162ffffff169083015260608084015191821690830152610100820190506080830151608083015260a083015160a083015260c083015160c083015260e08301516154bf60e08401826001600160a01b03169052565b5092915050565b828152604060208201525f6153096040830184615342565b85815284602082015260a060408201525f6154fc60a0830186615342565b6001600160a01b039490941660608301525060800152939250505056fea26469706673582212207b5b9e546aebf42f42a9153528b652c94086edbbec078d772d18ba144259615164736f6c634300081a0033","linkReferences":{}},"methodIdentifiers":{"MAX_FEE_RATE()":"92f6576e","MAX_TOKENS_LENGTH()":"d28c00fc","MIN_FEE_RATE()":"58c0f10d","MIN_FEE_UPDATE_INTERVAL()":"c9172ef7","ccipReceive((bytes32,uint64,bytes,bytes,(address,uint256)[]))":"85572ffb","convertEthToUsd(uint256)":"c086381e","crossChainFactoryBySelector(uint64)":"340fbc74","crossChainToken(uint64)":"19da7e2a","crossChainTokenSwapFee(uint64)":"9ff73f45","currentChainSelector()":"3d54cb6f","estimateAmountOut(address,address,uint128,uint24)":"ee7bd3e2","factoryStorage()":"c06e1ae2","feeRate()":"978bbdb9","feeReceiver()":"b3f00674","getAmountOut(address,address,uint256,uint24)":"dd811ac9","getPortfolioBalance()":"a8509fd8","getRouter()":"b0f479a1","getRouterAddress()":"d54f7d5e","i_link()":"7d253aff","indexToken()":"e7d015f2","initialize(uint64,address,address,address,address)":"16b487ff","issuanceData(uint256)":"2d6fc6b3","issuanceIndexTokens(address,uint256,uint256,uint24)":"fd485101","issuanceIndexTokensWithEth(uint256,uint256)":"41d11817","issuanceNonce()":"9dbb9c9e","latestFeeUpdate()":"011ced5f","owner()":"8da5cb5b","priceInWei()":"3c8da588","proposeOwner(address)":"b5ed298a","proposedOwner()":"d153b60c","redemption(uint256,uint256,address,uint24)":"d0586d71","redemptionData(uint256)":"aa4379c0","redemptionNonce()":"84d77bb1","renounceOwnership()":"715018a6","sendMessage(uint64,address,bytes,uint8)":"bcab90b3","setFeeRate(uint8)":"5177942a","setFeeReceiver(address)":"efdcd974","setIndexFactoryStorage(address)":"cc8659ae","supportsInterface(bytes4)":"01ffc9a7","transferOwnership(address)":"f2fde38b","weth()":"3fc8cef3"},"id":3}