{"abi":[{"type":"receive","stateMutability":"payable"},{"type":"function","name":"MAX_FEE_RATE","inputs":[],"outputs":[{"name":"","type":"uint8","internalType":"uint8"}],"stateMutability":"view"},{"type":"function","name":"MAX_TOKENS_LENGTH","inputs":[],"outputs":[{"name":"","type":"uint16","internalType":"uint16"}],"stateMutability":"view"},{"type":"function","name":"MIN_FEE_RATE","inputs":[],"outputs":[{"name":"","type":"uint8","internalType":"uint8"}],"stateMutability":"view"},{"type":"function","name":"MIN_FEE_UPDATE_INTERVAL","inputs":[],"outputs":[{"name":"","type":"uint256","internalType":"uint256"}],"stateMutability":"view"},{"type":"function","name":"ccipReceive","inputs":[{"name":"message","type":"tuple","internalType":"struct Client.Any2EVMMessage","components":[{"name":"messageId","type":"bytes32","internalType":"bytes32"},{"name":"sourceChainSelector","type":"uint64","internalType":"uint64"},{"name":"sender","type":"bytes","internalType":"bytes"},{"name":"data","type":"bytes","internalType":"bytes"},{"name":"destTokenAmounts","type":"tuple[]","internalType":"struct Client.EVMTokenAmount[]","components":[{"name":"token","type":"address","internalType":"address"},{"name":"amount","type":"uint256","internalType":"uint256"}]}]}],"outputs":[],"stateMutability":"nonpayable"},{"type":"function","name":"convertEthToUsd","inputs":[{"name":"_ethAmount","type":"uint256","internalType":"uint256"}],"outputs":[{"name":"","type":"uint256","internalType":"uint256"}],"stateMutability":"view"},{"type":"function","name":"crossChainFactoryBySelector","inputs":[{"name":"_chainSelector","type":"uint64","internalType":"uint64"}],"outputs":[{"name":"","type":"address","internalType":"address"}],"stateMutability":"view"},{"type":"function","name":"crossChainToken","inputs":[{"name":"_chainSelector","type":"uint64","internalType":"uint64"}],"outputs":[{"name":"","type":"address","internalType":"address"}],"stateMutability":"view"},{"type":"function","name":"crossChainTokenSwapFee","inputs":[{"name":"_chainSelector","type":"uint64","internalType":"uint64"}],"outputs":[{"name":"","type":"uint24","internalType":"uint24"}],"stateMutability":"view"},{"type":"function","name":"currentChainSelector","inputs":[],"outputs":[{"name":"","type":"uint64","internalType":"uint64"}],"stateMutability":"view"},{"type":"function","name":"estimateAmountOut","inputs":[{"name":"tokenIn","type":"address","internalType":"address"},{"name":"tokenOut","type":"address","internalType":"address"},{"name":"amountIn","type":"uint128","internalType":"uint128"},{"name":"fee","type":"uint24","internalType":"uint24"}],"outputs":[{"name":"amountOut","type":"uint256","internalType":"uint256"}],"stateMutability":"view"},{"type":"function","name":"factoryStorage","inputs":[],"outputs":[{"name":"","type":"address","internalType":"contract IndexFactoryStorage"}],"stateMutability":"view"},{"type":"function","name":"feeRate","inputs":[],"outputs":[{"name":"","type":"uint8","internalType":"uint8"}],"stateMutability":"view"},{"type":"function","name":"feeReceiver","inputs":[],"outputs":[{"name":"","type":"address","internalType":"address"}],"stateMutability":"view"},{"type":"function","name":"getAmountOut","inputs":[{"name":"tokenIn","type":"address","internalType":"address"},{"name":"tokenOut","type":"address","internalType":"address"},{"name":"amountIn","type":"uint256","internalType":"uint256"},{"name":"_swapFee","type":"uint24","internalType":"uint24"}],"outputs":[{"name":"finalAmountOut","type":"uint256","internalType":"uint256"}],"stateMutability":"view"},{"type":"function","name":"getPortfolioBalance","inputs":[],"outputs":[{"name":"","type":"uint256","internalType":"uint256"}],"stateMutability":"view"},{"type":"function","name":"getRouter","inputs":[],"outputs":[{"name":"","type":"address","internalType":"address"}],"stateMutability":"view"},{"type":"function","name":"i_link","inputs":[],"outputs":[{"name":"","type":"address","internalType":"address"}],"stateMutability":"view"},{"type":"function","name":"indexToken","inputs":[],"outputs":[{"name":"","type":"address","internalType":"contract IndexToken"}],"stateMutability":"view"},{"type":"function","name":"initialize","inputs":[{"name":"_currentChainSelector","type":"uint64","internalType":"uint64"},{"name":"_token","type":"address","internalType":"address payable"},{"name":"_chainlinkToken","type":"address","internalType":"address"},{"name":"_router","type":"address","internalType":"address"},{"name":"_weth","type":"address","internalType":"address"}],"outputs":[],"stateMutability":"nonpayable"},{"type":"function","name":"issuanceData","inputs":[{"name":"","type":"uint256","internalType":"uint256"}],"outputs":[{"name":"completedTokensCount","type":"uint256","internalType":"uint256"},{"name":"requester","type":"address","internalType":"address"},{"name":"inputAmount","type":"uint256","internalType":"uint256"},{"name":"inputToken","type":"address","internalType":"address"},{"name":"messageId","type":"bytes32","internalType":"bytes32"}],"stateMutability":"view"},{"type":"function","name":"issuanceIndexTokens","inputs":[{"name":"_tokenIn","type":"address","internalType":"address"},{"name":"_inputAmount","type":"uint256","internalType":"uint256"},{"name":"_crossChainFee","type":"uint256","internalType":"uint256"},{"name":"_tokenInSwapFee","type":"uint24","internalType":"uint24"}],"outputs":[],"stateMutability":"nonpayable"},{"type":"function","name":"issuanceIndexTokensWithEth","inputs":[{"name":"_inputAmount","type":"uint256","internalType":"uint256"},{"name":"_crossChainFee","type":"uint256","internalType":"uint256"}],"outputs":[],"stateMutability":"payable"},{"type":"function","name":"issuanceNonce","inputs":[],"outputs":[{"name":"","type":"uint256","internalType":"uint256"}],"stateMutability":"view"},{"type":"function","name":"latestFeeUpdate","inputs":[],"outputs":[{"name":"","type":"uint256","internalType":"uint256"}],"stateMutability":"view"},{"type":"function","name":"owner","inputs":[],"outputs":[{"name":"","type":"address","internalType":"address"}],"stateMutability":"view"},{"type":"function","name":"priceInWei","inputs":[],"outputs":[{"name":"","type":"uint256","internalType":"uint256"}],"stateMutability":"view"},{"type":"function","name":"proposeOwner","inputs":[{"name":"_proposedOwner","type":"address","internalType":"address"}],"outputs":[],"stateMutability":"nonpayable"},{"type":"function","name":"proposedOwner","inputs":[],"outputs":[{"name":"","type":"address","internalType":"address"}],"stateMutability":"view"},{"type":"function","name":"redemption","inputs":[{"name":"amountIn","type":"uint256","internalType":"uint256"},{"name":"_crossChainFee","type":"uint256","internalType":"uint256"},{"name":"_tokenOut","type":"address","internalType":"address"},{"name":"_tokenOutSwapFee","type":"uint24","internalType":"uint24"}],"outputs":[],"stateMutability":"nonpayable"},{"type":"function","name":"redemptionData","inputs":[{"name":"","type":"uint256","internalType":"uint256"}],"outputs":[{"name":"totalValue","type":"uint256","internalType":"uint256"},{"name":"completedTokensCount","type":"uint256","internalType":"uint256"},{"name":"requester","type":"address","internalType":"address"},{"name":"outputToken","type":"address","internalType":"address"},{"name":"outputTokenSwapFee","type":"uint24","internalType":"uint24"},{"name":"inputAmount","type":"uint256","internalType":"uint256"},{"name":"messageId","type":"bytes32","internalType":"bytes32"}],"stateMutability":"view"},{"type":"function","name":"redemptionNonce","inputs":[],"outputs":[{"name":"","type":"uint256","internalType":"uint256"}],"stateMutability":"view"},{"type":"function","name":"renounceOwnership","inputs":[],"outputs":[],"stateMutability":"nonpayable"},{"type":"function","name":"sendMessage","inputs":[{"name":"destinationChainSelector","type":"uint64","internalType":"uint64"},{"name":"receiver","type":"address","internalType":"address"},{"name":"_data","type":"bytes","internalType":"bytes"},{"name":"payFeesIn","type":"uint8","internalType":"enum MessageSender.PayFeesIn"}],"outputs":[{"name":"","type":"bytes32","internalType":"bytes32"}],"stateMutability":"nonpayable"},{"type":"function","name":"setFeeRate","inputs":[{"name":"_newFee","type":"uint8","internalType":"uint8"}],"outputs":[],"stateMutability":"nonpayable"},{"type":"function","name":"setFeeReceiver","inputs":[{"name":"_feeReceiver","type":"address","internalType":"address"}],"outputs":[],"stateMutability":"nonpayable"},{"type":"function","name":"setIndexFactoryStorage","inputs":[{"name":"_factoryStorage","type":"address","internalType":"address"}],"outputs":[],"stateMutability":"nonpayable"},{"type":"function","name":"supportsInterface","inputs":[{"name":"interfaceId","type":"bytes4","internalType":"bytes4"}],"outputs":[{"name":"","type":"bool","internalType":"bool"}],"stateMutability":"pure"},{"type":"function","name":"transferOwnership","inputs":[{"name":"newOwner","type":"address","internalType":"address"}],"outputs":[],"stateMutability":"nonpayable"},{"type":"function","name":"weth","inputs":[],"outputs":[{"name":"","type":"address","internalType":"contract IWETH"}],"stateMutability":"view"},{"type":"event","name":"Initialized","inputs":[{"name":"version","type":"uint8","indexed":false,"internalType":"uint8"}],"anonymous":false},{"type":"event","name":"Issuanced","inputs":[{"name":"messageId","type":"bytes32","indexed":true,"internalType":"bytes32"},{"name":"nonce","type":"uint256","indexed":true,"internalType":"uint256"},{"name":"user","type":"address","indexed":true,"internalType":"address"},{"name":"inputToken","type":"address","indexed":false,"internalType":"address"},{"name":"inputAmount","type":"uint256","indexed":false,"internalType":"uint256"},{"name":"outputAmount","type":"uint256","indexed":false,"internalType":"uint256"},{"name":"time","type":"uint256","indexed":false,"internalType":"uint256"}],"anonymous":false},{"type":"event","name":"MessageSent","inputs":[{"name":"messageId","type":"bytes32","indexed":false,"internalType":"bytes32"}],"anonymous":false},{"type":"event","name":"OwnershipTransferred","inputs":[{"name":"previousOwner","type":"address","indexed":true,"internalType":"address"},{"name":"newOwner","type":"address","indexed":true,"internalType":"address"}],"anonymous":false},{"type":"event","name":"Redemption","inputs":[{"name":"messageId","type":"bytes32","indexed":true,"internalType":"bytes32"},{"name":"nonce","type":"uint256","indexed":true,"internalType":"uint256"},{"name":"user","type":"address","indexed":true,"internalType":"address"},{"name":"outputToken","type":"address","indexed":false,"internalType":"address"},{"name":"inputAmount","type":"uint256","indexed":false,"internalType":"uint256"},{"name":"outputAmount","type":"uint256","indexed":false,"internalType":"uint256"},{"name":"time","type":"uint256","indexed":false,"internalType":"uint256"}],"anonymous":false},{"type":"event","name":"RequestIssuance","inputs":[{"name":"messageId","type":"bytes32","indexed":true,"internalType":"bytes32"},{"name":"nonce","type":"uint256","indexed":true,"internalType":"uint256"},{"name":"user","type":"address","indexed":true,"internalType":"address"},{"name":"inputToken","type":"address","indexed":false,"internalType":"address"},{"name":"inputAmount","type":"uint256","indexed":false,"internalType":"uint256"},{"name":"outputAmount","type":"uint256","indexed":false,"internalType":"uint256"},{"name":"time","type":"uint256","indexed":false,"internalType":"uint256"}],"anonymous":false},{"type":"event","name":"RequestRedemption","inputs":[{"name":"messageId","type":"bytes32","indexed":true,"internalType":"bytes32"},{"name":"nonce","type":"uint256","indexed":true,"internalType":"uint256"},{"name":"user","type":"address","indexed":true,"internalType":"address"},{"name":"outputToken","type":"address","indexed":false,"internalType":"address"},{"name":"inputAmount","type":"uint256","indexed":false,"internalType":"uint256"},{"name":"outputAmount","type":"uint256","indexed":false,"internalType":"uint256"},{"name":"time","type":"uint256","indexed":false,"internalType":"uint256"}],"anonymous":false},{"type":"error","name":"InvalidRouter","inputs":[{"name":"router","type":"address","internalType":"address"}]}],"bytecode":{"object":"0x6080604052348015600f57600080fd5b50615e8d8061001f6000396000f3fe60806040526004361061023f5760003560e01c80639ff73f451161012e578063cc8659ae116100ab578063e7d015f21161006f578063e7d015f2146107c7578063ee7bd3e2146107e7578063efdcd97414610807578063f2fde38b14610827578063fd4851011461084757600080fd5b8063cc8659ae1461071f578063d0586d711461073f578063d153b60c1461075f578063d28c00fc1461077f578063dd811ac9146107a757600080fd5b8063b5ed298a116100f2578063b5ed298a14610689578063bcab90b3146106a9578063c06e1ae2146106c9578063c086381e146106e9578063c9172ef71461070957600080fd5b80639ff73f451461054b578063a8509fd81461057f578063aa4379c014610594578063b0f479a114610645578063b3f006741461066957600080fd5b80635177942a116101bc57806385572ffb1161018057806385572ffb146104c15780638da5cb5b146104e157806392f6576e146104ff578063978bbdb9146105145780639dbb9c9e1461053557600080fd5b80635177942a1461042f57806358c0f10d1461044f578063715018a6146104765780637d253aff1461048b57806384d77bb1146104ab57600080fd5b8063340fbc7411610203578063340fbc74146103885780633c8da588146103a85780633d54cb6f146103bd5780633fc8cef3146103f557806341d118171461041c57600080fd5b8063011ced5f1461024b57806301ffc9a71461027457806316b487ff146102a457806319da7e2a146102c65780632d6fc6b3146102fe57600080fd5b3661024657005b600080fd5b34801561025757600080fd5b5061026160cd5481565b6040519081526020015b60405180910390f35b34801561028057600080fd5b5061029461028f366004614fae565b610867565b604051901515815260200161026b565b3480156102b057600080fd5b506102c46102bf366004615012565b61089e565b005b3480156102d257600080fd5b506102e66102e1366004615083565b610bdc565b6040516001600160a01b03909116815260200161026b565b34801561030a57600080fd5b506103566103193660046150a0565b60d2602052600090815260409020600181015460028201546003830154600484015460059094015492936001600160a01b03928316939192169085565b604080519586526001600160a01b0394851660208701528501929092529091166060830152608082015260a00161026b565b34801561039457600080fd5b506102e66103a3366004615083565b610c53565b3480156103b457600080fd5b50610261610c8d565b3480156103c957600080fd5b5060ce546103dd906001600160401b031681565b6040516001600160401b03909116815260200161026b565b34801561040157600080fd5b5060ce546102e690600160401b90046001600160a01b031681565b6102c461042a3660046150b9565b610d00565b34801561043b57600080fd5b506102c461044a3660046150db565b610f63565b34801561045b57600080fd5b50610464600181565b60405160ff909116815260200161026b565b34801561048257600080fd5b506102c4611094565b34801561049757600080fd5b5060cb546102e6906001600160a01b031681565b3480156104b757600080fd5b5061026160d05481565b3480156104cd57600080fd5b506102c46104dc3660046150fe565b6110a8565b3480156104ed57600080fd5b506033546001600160a01b03166102e6565b34801561050b57600080fd5b50610464606481565b34801561052057600080fd5b5060cc5461046490600160a01b900460ff1681565b34801561054157600080fd5b5061026160cf5481565b34801561055757600080fd5b5061056b610566366004615083565b6110ef565b60405162ffffff909116815260200161026b565b34801561058b57600080fd5b50610261611181565b3480156105a057600080fd5b506105ff6105af3660046150a0565b60d360205260009081526040902080546001820154600283015460038401546004850154600590950154939492936001600160a01b039283169392821692600160a01b90920462ffffff16919087565b6040805197885260208801969096526001600160a01b039485169587019590955292909116606085015262ffffff16608084015260a083015260c082015260e00161026b565b34801561065157600080fd5b506000546201000090046001600160a01b03166102e6565b34801561067557600080fd5b5060d1546102e6906001600160a01b031681565b34801561069557600080fd5b506102c46106a4366004615138565b611546565b3480156106b557600080fd5b506102616106c4366004615254565b611596565b3480156106d557600080fd5b5060ca546102e6906001600160a01b031681565b3480156106f557600080fd5b506102616107043660046150a0565b6116c3565b34801561071557600080fd5b5061026161a8c081565b34801561072b57600080fd5b506102c461073a366004615138565b6116ea565b34801561074b57600080fd5b506102c461075a3660046152dd565b611714565b34801561076b57600080fd5b506065546102e6906001600160a01b031681565b34801561078b57600080fd5b50610794600581565b60405161ffff909116815260200161026b565b3480156107b357600080fd5b506102616107c236600461531c565b611c43565b3480156107d357600080fd5b5060cc546102e6906001600160a01b031681565b3480156107f357600080fd5b50610261610802366004615364565b611ccd565b34801561081357600080fd5b506102c4610822366004615138565b611d22565b34801561083357600080fd5b506102c4610842366004615138565b611d4c565b34801561085357600080fd5b506102c46108623660046153b1565b611e71565b60006001600160e01b031982166385572ffb60e01b148061089857506001600160e01b031982166301ffc9a760e01b145b92915050565b600054610100900460ff16158080156108be5750600054600160ff909116105b806108d85750303b1580156108d8575060005460ff166001145b6109405760405162461bcd60e51b815260206004820152602e60248201527f496e697469616c697a61626c653a20636f6e747261637420697320616c72656160448201526d191e481a5b9a5d1a585b1a5e995960921b60648201526084015b60405180910390fd5b6000805460ff191660011790558015610963576000805461ff0019166101001790555b6000866001600160401b0316116109b55760405162461bcd60e51b815260206004820152601660248201527524b73b30b634b21031b430b4b71039b2b632b1ba37b960511b6044820152606401610937565b6001600160a01b038516610a035760405162461bcd60e51b8152602060048201526015602482015274496e76616c696420746f6b656e206164647265737360581b6044820152606401610937565b6001600160a01b038416610a595760405162461bcd60e51b815260206004820152601f60248201527f496e76616c696420436861696e6c696e6b20746f6b656e2061646472657373006044820152606401610937565b610a6283612266565b610a6a6122e1565b610a72612310565b610a7a61233b565b60ce80546001600160401b03881667ffffffffffffffff1990911617905560cc80546001600160a01b038088166001600160a01b03199283161790925560cb805487841692168217905560005460405163095ea7b360e01b8152919263095ea7b392610af69262010000900490911690600019906004016153f0565b6020604051808303816000875af1158015610b15573d6000803e3d6000fd5b505050506040513d601f19601f82011682018060405250810190610b399190615409565b5060ce805468010000000000000000600160e01b031916600160401b6001600160a01b0385160217905560cc805460ff60a01b1916600560a11b1790554260cd5560d18054336001600160a01b03199091161790558015610bd4576000805461ff0019169055604051600181527f7f26b83ff96e1f2b6a682f133852f6798a09c465da95921460cefb38474024989060200160405180910390a15b505050505050565b60ca54604051630ced3f1560e11b81526001600160401b03831660048201526000916001600160a01b0316906319da7e2a906024015b602060405180830381865afa158015610c2f573d6000803e3d6000fd5b505050506040513d601f19601f82011682018060405250810190610898919061542b565b60ca54604051630d03ef1d60e21b81526001600160401b03831660048201526000916001600160a01b03169063340fbc7490602401610c12565b60ca5460408051630791b4b160e31b815290516000926001600160a01b031691633c8da5889160048083019260209291908290030181865afa158015610cd7573d6000803e3d6000fd5b505050506040513d601f19601f82011682018060405250810190610cfb9190615448565b905090565b60008211610d205760405162461bcd60e51b815260040161093790615461565b81341015610d685760405162461bcd60e51b8152602060048201526015602482015274125b9cdd59999a58da595b9d08115512081cd95b9d605a1b6044820152606401610937565b6000610d838360cc60149054906101000a900460ff16612369565b9050600082610d9283866154bd565b610d9c91906154bd565b905080341015610dee5760405162461bcd60e51b815260206004820152601a60248201527f6c6f776572207468616e20726571756972656420616d6f756e740000000000006044820152606401610937565b60ce60089054906101000a90046001600160a01b03166001600160a01b031663d0e30db0826040518263ffffffff1660e01b81526004016000604051808303818588803b158015610e3e57600080fd5b505af1158015610e52573d6000803e3d6000fd5b505060ce5460d15460405163a9059cbb60e01b81526001600160a01b03600160401b9093048316955063a9059cbb9450610e94935091169086906004016153f0565b6020604051808303816000875af1158015610eb3573d6000803e3d6000fd5b505050506040513d601f19601f82011682018060405250810190610ed79190615409565b5060cf8054906000610ee8836154d0565b909155505060cf8054600090815260d260205260408082206002018054336001600160a01b0319918216179091558354835281832060030188905560ce8054945484529190922060040180546001600160a01b03600160401b9586900481169190941617905554610f5d929004168585612385565b50505050565b610f6b6125e3565b61a8c060cd5442610f7c91906154e9565b1015610ff05760405162461bcd60e51b815260206004820152603960248201527f596f752073686f756c642077616974206174206c6561737420313220686f757260448201527f7320616674657220746865206c617465737420757064617465000000000000006064820152608401610937565b606460ff8216118015906110085750600160ff821610155b6110705760405162461bcd60e51b815260206004820152603360248201527f546865206e65774665652073686f756c64206265206265747765656e203120616044820152726e64203130302028302e303125202d2031252960681b6064820152608401610937565b60cc805460ff909216600160a01b0260ff60a01b199092169190911790554260cd55565b61109c6125e3565b6110a6600061263d565b565b6000546201000090046001600160a01b031633146110db576040516335fdcccd60e21b8152336004820152602401610937565b6110ec6110e7826155bb565b61268f565b50565b6000806110fb83610bdc565b60ca54604051633291aa5760e11b81526001600160401b03861660048201526001600160a01b03808416602483015292935091169063652354ae90604401602060405180830381865afa158015611156573d6000803e3d6000fd5b505050506040513d601f19601f8201168201806040525081019061117a9190615671565b9392505050565b600080600060ca60009054906101000a90046001600160a01b03166001600160a01b03166353fd43326040518163ffffffff1660e01b8152600401602060405180830381865afa1580156111d9573d6000803e3d6000fd5b505050506040513d601f19601f820116820180604052508101906111fd9190615448565b905060005b8181101561153e5760ca5460405163264cae9360e21b8152600481018390526000916001600160a01b031690639932ba4c90602401602060405180830381865afa158015611254573d6000803e3d6000fd5b505050506040513d601f19601f82011682018060405250810190611278919061542b565b60ca54604051633aa3b3c160e21b81526001600160a01b0380841660048301529293506000929091169063ea8ecf0490602401602060405180830381865afa1580156112c8573d6000803e3d6000fd5b505050506040513d601f19601f820116820180604052508101906112ec919061568e565b60ca54604051633259966560e01b81526001600160a01b03858116600483015292935060009290911690633259966590602401602060405180830381865afa15801561133c573d6000803e3d6000fd5b505050506040513d601f19601f820116820180604052508101906113609190615671565b60ce549091506001600160401b03908116908316036115335760ce546001600160a01b03600160401b9091048116908416036114155760cc546040516370a0823160e01b81526001600160a01b039182166004820152908416906370a0823190602401602060405180830381865afa1580156113e0573d6000803e3d6000fd5b505050506040513d601f19601f820116820180604052508101906114049190615448565b61140e90876154bd565b9550611533565b60ca5460ce5460cc546040516370a0823160e01b81526001600160a01b03918216600482015260009382169263dd811ac9928892600160401b909204811691908316906370a0823190602401602060405180830381865afa15801561147e573d6000803e3d6000fd5b505050506040513d601f19601f820116820180604052508101906114a29190615448565b6040516001600160e01b031960e086901b1681526001600160a01b039384166004820152929091166024830152604482015262ffffff85166064820152608401602060405180830381865afa1580156114ff573d6000803e3d6000fd5b505050506040513d601f19601f820116820180604052508101906115239190615448565b905061152f81886154bd565b9650505b505050600101611202565b509092915050565b61154e6125e3565b6001600160a01b0381166115745760405162461bcd60e51b8152600401610937906156ab565b606580546001600160a01b0319166001600160a01b0392909216919091179055565b600080856001600160401b0316116115fb5760405162461bcd60e51b815260206004820152602260248201527f496e76616c69642064657374696e6174696f6e20636861696e2073656c65637460448201526137b960f11b6064820152608401610937565b6001600160a01b03841661164c5760405162461bcd60e51b8152602060048201526018602482015277496e76616c6964207265636569766572206164647265737360401b6044820152606401610937565b60008351116116945760405162461bcd60e51b8152602060048201526014602482015273446174612063616e6e6f7420626520656d70747960601b6044820152606401610937565b60005460cb546116ba916001600160a01b03620100009091048116911687878787612772565b95945050505050565b6000670de0b6b3a76400006116d6610c8d565b6116e090846156fb565b6108989190615712565b6116f26125e3565b60ca80546001600160a01b0319166001600160a01b0392909216919091179055565b600084116117645760405162461bcd60e51b815260206004820181905260248201527f416d6f756e74206d7573742062652067726561746572207468616e207a65726f6044820152606401610937565b6001600160a01b0382166117ba5760405162461bcd60e51b815260206004820152601c60248201527f496e76616c6964206f757470757420746f6b656e2061646472657373000000006044820152606401610937565b60008162ffffff161161180f5760405162461bcd60e51b815260206004820152601d60248201527f496e76616c6964206f757470757420746f6b656e2073776170206665650000006044820152606401610937565b60cc54604080516318160ddd60e01b815290516000926001600160a01b0316916318160ddd9160048083019260209291908290030181865afa158015611859573d6000803e3d6000fd5b505050506040513d601f19601f8201168201806040525081019061187d9190615448565b61188f86670de0b6b3a76400006156fb565b6118999190615712565b9050600160d060008282546118ae91906154bd565b909155505060d08054600090815260d3602052604080822060020180546001600160a01b03199081163390811790925584548452828420600390810180546001600160a01b038b8116919094161790558554855283852001805462ffffff8916600160a01b0262ffffff60a01b199091161790559354835291819020600490810189905560cc549151632770a7eb60e21b81529190931692639dc29fac9261195a9290918a91016153f0565b600060405180830381600087803b15801561197457600080fd5b505af1158015611988573d6000803e3d6000fd5b50505050600060ca60009054906101000a90046001600160a01b03166001600160a01b03166369487b1c6040518163ffffffff1660e01b8152600401602060405180830381865afa1580156119e1573d6000803e3d6000fd5b505050506040513d601f19601f82011682018060405250810190611a059190615448565b9050600060ca60009054906101000a90046001600160a01b03166001600160a01b031663b90b8a2a6040518163ffffffff1660e01b8152600401602060405180830381865afa158015611a5c573d6000803e3d6000fd5b505050506040513d601f19601f82011682018060405250810190611a809190615448565b60ca546040516369fbf93360e11b8152600481018390529192506000916001600160a01b039091169063d3f7f26690602401600060405180830381865afa158015611acf573d6000803e3d6000fd5b505050506040513d6000823e601f3d908101601f19168201604052611af79190810190615860565b935050505060005b83811015611be3576000828281518110611b1b57611b1b615980565b602090810291909101015160ca5460405163b6ad185b60e01b81526001600160401b03831660048201529192506000916001600160a01b039091169063b6ad185b90602401602060405180830381865afa158015611b7d573d6000803e3d6000fd5b505050506040513d601f19601f82011682018060405250810190611ba19190615448565b60ce549091506001600160401b0390811690831603611bcc57611bc78760d05483612b57565b611bd9565b611bd98760d05484612f25565b5050600101611aff565b5060d054600081815260d360205260408082206005015490513393927f4f9e9bfb3670784096375593cb821e86bd88b1fcb08efc38330012d8c33c3e3691611c31918c918f91904290615996565b60405180910390a45050505050505050565b60ca5460405163dd811ac960e01b81526001600160a01b03868116600483015285811660248301526044820185905262ffffff84166064830152600092169063dd811ac9906084015b602060405180830381865afa158015611ca9573d6000803e3d6000fd5b505050506040513d601f19601f820116820180604052508101906116ba9190615448565b60ca5460405163773de9f160e11b81526001600160a01b03868116600483015285811660248301526001600160801b038516604483015262ffffff84166064830152600092169063ee7bd3e290608401611c8c565b611d2a6125e3565b60d180546001600160a01b0319166001600160a01b0392909216919091179055565b6001600160a01b038116611d725760405162461bcd60e51b8152600401610937906156ab565b6065546001600160a01b03828116911614611dea5760405162461bcd60e51b815260206004820152603260248201527f50726f706f7361626c654f776e61626c653a206e6577206f776e6572206973206044820152713737ba10383937b837b9b2b21037bbb732b960711b6064820152608401610937565b6001600160a01b0381163314611e685760405162461bcd60e51b815260206004820152603a60248201527f50726f706f7361626c654f776e61626c653a20746869732063616c6c206d757360448201527f74206265206d61646520627920746865206e6577206f776e65720000000000006064820152608401610937565b6110ec8161263d565b611e7961316b565b6001600160a01b038416611ecf5760405162461bcd60e51b815260206004820152601b60248201527f496e76616c696420696e70757420746f6b656e206164647265737300000000006044820152606401610937565b60008311611eef5760405162461bcd60e51b815260040161093790615461565b60008162ffffff1611611f445760405162461bcd60e51b815260206004820152601c60248201527f496e76616c696420696e70757420746f6b656e207377617020666565000000006044820152606401610937565b60ca5460408051633fc8cef360e01b815290516000926001600160a01b031691633fc8cef39160048083019260209291908290030181865afa158015611f8e573d6000803e3d6000fd5b505050506040513d601f19601f82011682018060405250810190611fb2919061542b565b9050600060ca60009054906101000a90046001600160a01b03166001600160a01b031663fbfa77cf6040518163ffffffff1660e01b8152600401602060405180830381865afa158015612009573d6000803e3d6000fd5b505050506040513d601f19601f8201168201806040525081019061202d919061542b565b9050600061204a8660cc60149054906101000a900460ff16612369565b60cf8054919250600061205c836154d0565b909155505060cf8054600090815260d2602052604080822060020180546001600160a01b031990811633908117909255845484528284206003018b905593548352912060040180546001600160a01b038b169316831790556323b872dd90306120c5858b6154bd565b6040516001600160e01b031960e086901b1681526001600160a01b03938416600482015292909116602483015260448201526064016020604051808303816000875af1158015612119573d6000803e3d6000fd5b505050506040513d601f19601f8201168201806040525081019061213d9190615409565b6121815760405162461bcd60e51b8152602060048201526015602482015274151bdad95b881d1c985b9cd9995c8819985a5b1959605a1b6044820152606401610937565b60006121998885612192858b6154bd565b30896131c4565b60cc54909150600090612710906121ba90600160a01b900460ff16846156fb565b6121c49190615712565b905060006121d282846154e9565b60d15460405163a9059cbb60e01b81529192506001600160a01b038089169263a9059cbb9261220792169086906004016153f0565b6020604051808303816000875af1158015612226573d6000803e3d6000fd5b505050506040513d601f19601f8201168201806040525081019061224a9190615409565b506122568a828a612385565b505050505050610f5d6001609855565b600054610100900460ff1661228d5760405162461bcd60e51b8152600401610937906159bc565b6001600160a01b0381166122b7576040516335fdcccd60e21b815260006004820152602401610937565b600080546001600160a01b03909216620100000262010000600160b01b0319909216919091179055565b600054610100900460ff166123085760405162461bcd60e51b8152600401610937906159bc565b6110a66132d6565b600054610100900460ff166123375760405162461bcd60e51b8152600401610937906159bc565b6110a65b600054610100900460ff166123625760405162461bcd60e51b8152600401610937906159bc565b6001609855565b600061271061237b60ff8416856156fb565b61117a9190615712565b60ca5460408051631a521ec760e21b8152905184926000926001600160a01b03909116916369487b1c916004808201926020929091908290030181865afa1580156123d4573d6000803e3d6000fd5b505050506040513d601f19601f820116820180604052508101906123f89190615448565b9050600060ca60009054906101000a90046001600160a01b03166001600160a01b031663b90b8a2a6040518163ffffffff1660e01b8152600401602060405180830381865afa15801561244f573d6000803e3d6000fd5b505050506040513d601f19601f820116820180604052508101906124739190615448565b60ca546040516369fbf93360e11b8152600481018390529192506000916001600160a01b039091169063d3f7f26690602401600060405180830381865afa1580156124c2573d6000803e3d6000fd5b505050506040513d6000823e601f3d908101601f191682016040526124ea9190810190615860565b935050505060005b838110156125d957600082828151811061250e5761250e615980565b602090810291909101015160ca5460405163b6ad185b60e01b81526001600160401b03831660048201529192506000916001600160a01b039091169063b6ad185b90602401602060405180830381865afa158015612570573d6000803e3d6000fd5b505050506040513d601f19601f820116820180604052508101906125949190615448565b60ce549091506001600160401b03908116908316036125c1576125bc8760cf54838589613306565b6125cf565b6125cf8760cf548488613930565b50506001016124f2565b5050505050505050565b6033546001600160a01b031633146110a65760405162461bcd60e51b815260206004820181905260248201527f4f776e61626c653a2063616c6c6572206973206e6f7420746865206f776e65726044820152606401610937565b603380546001600160a01b038381166001600160a01b0319831681179093556040519116919082907f8be0079c531659141344cd1fd0a4f28419497f9722a3daafe3b4186f6b6457e090600090a35050565b805160208083015160ca54604080516329fea19960e11b8152905192936000936001600160a01b03909316926353fd43329260048082019392918290030181865afa1580156126e2573d6000803e3d6000fd5b505050506040513d601f19601f820116820180604052508101906127069190615448565b905060008060008060008089606001518060200190518101906127299190615a07565b955095509550955095509550856000036127505761274b838684848b8e613d92565b612766565b8560010361276657612766838b878a8c8e613eed565b50505050505050505050565b60006001600160a01b0387166127ca5760405162461bcd60e51b815260206004820152601860248201527f496e76616c696420695f726f75746572206164647265737300000000000000006044820152606401610937565b6001600160a01b0386166128195760405162461bcd60e51b8152602060048201526016602482015275496e76616c696420695f6c696e6b206164647265737360501b6044820152606401610937565b846001600160401b03166000036128725760405162461bcd60e51b815260206004820181905260248201527f496e76616c69642064657374696e6174696f6e436861696e53656c6563746f726044820152606401610937565b6001600160a01b0384166128c35760405162461bcd60e51b8152602060048201526018602482015277496e76616c6964207265636569766572206164647265737360401b6044820152606401610937565b60008351116129035760405162461bcd60e51b815260206004820152600c60248201526b496e76616c6964206461746160a01b6044820152606401610937565b6040805160a0810182526001600160a01b03861660c0808301919091528251808303909101815260e08201835281526020808201869052825160008082529181018452909282019083612978565b60408051808201909152600080825260208201528152602001906001900390816129515790505b508152602001600185600181111561299257612992615ad8565b1461299e5760006129a0565b885b6001600160a01b031681526020016129c86040518060200160405280622dc6c0815250613fe1565b90526040516320487ded60e01b81529091506000906001600160a01b038a16906320487ded906129fe908a908690600401615b34565b602060405180830381865afa158015612a1b573d6000803e3d6000fd5b505050506040513d601f19601f82011682018060405250810190612a3f9190615448565b905060006001856001811115612a5757612a57615ad8565b03612ad4576040516396f4e9f960e01b81526001600160a01b038b16906396f4e9f990612a8a908b908790600401615b34565b6020604051808303816000875af1158015612aa9573d6000803e3d6000fd5b505050506040513d601f19601f82011682018060405250810190612acd9190615448565b9050612b4a565b6040516396f4e9f960e01b81526001600160a01b038b16906396f4e9f9908490612b04908c908890600401615b34565b60206040518083038185885af1158015612b22573d6000803e3d6000fd5b50505050506040513d601f19601f82011682018060405250810190612b479190615448565b90505b9998505050505050505050565b60ca5460ce5460405163d1c68aa360e01b81526001600160401b0390911660048201526000916001600160a01b03169063d1c68aa390602401600060405180830381865afa158015612bad573d6000803e3d6000fd5b505050506040513d6000823e601f3d908101601f19168201604052612bd59190810190615c09565b9050600060ca60009054906101000a90046001600160a01b03166001600160a01b031663fbfa77cf6040518163ffffffff1660e01b8152600401602060405180830381865afa158015612c2c573d6000803e3d6000fd5b505050506040513d601f19601f82011682018060405250810190612c50919061542b565b905060005b83811015610bd4576000838281518110612c7157612c71615980565b602090810291909101015160ca54604051633259966560e01b81526001600160a01b03808416600483015292935060009290911690633259966590602401602060405180830381865afa158015612ccc573d6000803e3d6000fd5b505050506040513d601f19601f82011682018060405250810190612cf09190615671565b90506000670de0b6b3a7640000836001600160a01b03166370a0823160ca60009054906101000a90046001600160a01b03166001600160a01b031663fbfa77cf6040518163ffffffff1660e01b8152600401602060405180830381865afa158015612d5f573d6000803e3d6000fd5b505050506040513d601f19601f82011682018060405250810190612d83919061542b565b6040516001600160e01b031960e084901b1681526001600160a01b039091166004820152602401602060405180830381865afa158015612dc7573d6000803e3d6000fd5b505050506040513d601f19601f82011682018060405250810190612deb9190615448565b612df5908b6156fb565b612dff9190615712565b604051631c20fadd60e01b81526001600160a01b0385811660048301523060248301526044820183905291925090861690631c20fadd906064016020604051808303816000875af1158015612e58573d6000803e3d6000fd5b505050506040513d601f19601f82011682018060405250810190612e7c9190615409565b5060ce546000906001600160a01b03858116600160401b9092041614612ec25760ce54612ebd908590600160401b90046001600160a01b03168430876131c4565b612ec4565b815b60008a815260d36020526040812080549293508392909190612ee79084906154bd565b9091555050600089815260d3602052604081206001908101805491929091612f109084906154bd565b909155505060019094019350612c5592505050565b6000612f3082610c53565b60ca5460405163d1c68aa360e01b81526001600160401b03851660048201529192506000916001600160a01b039091169063d1c68aa390602401600060405180830381865afa158015612f87573d6000803e3d6000fd5b505050506040513d6000823e601f3d908101601f19168201604052612faf9190810190615c09565b60ca5460405163221f337160e01b81526001600160401b03861660048201529192506000916001600160a01b039091169063221f337190602401600060405180830381865afa158015613006573d6000803e3d6000fd5b505050506040513d6000823e601f3d908101601f1916820160405261302e9190810190615c45565b60ca54604051632bda5acd60e21b81526001600160401b03871660048201529192506000916001600160a01b039091169063af696b3490602401600060405180830381865afa158015613085573d6000803e3d6000fd5b505050506040513d6000823e601f3d908101601f191682016040526130ad9190810190615c45565b60408051600080825260208083018281526001848601818152608086019096529596509294929391929060608601908036833701905050905089816000815181106130fa576130fa615980565b60200260200101818152505060006001878588868e8a88604051602001613128989796959493929190615cf0565b604051602081830303815290604052905060006131488a8a846001611596565b60009b8c5260d36020526040909b206005019a909a555050505050505050505050565b6002609854036131bd5760405162461bcd60e51b815260206004820152601f60248201527f5265656e7472616e637947756172643a207265656e7472616e742063616c6c006044820152606401610937565b6002609855565b60008060ca60009054906101000a90046001600160a01b03166001600160a01b031663b631e80b6040518163ffffffff1660e01b8152600401602060405180830381865afa15801561321a573d6000803e3d6000fd5b505050506040513d601f19601f8201168201806040525081019061323e919061542b565b9050600060ca60009054906101000a90046001600160a01b03166001600160a01b031663744fbc7a6040518163ffffffff1660e01b8152600401602060405180830381865afa158015613295573d6000803e3d6000fd5b505050506040513d601f19601f820116820180604052508101906132b9919061542b565b90506132ca8282868b8b8b8b61401e565b98975050505050505050565b600054610100900460ff166132fd5760405162461bcd60e51b8152600401610937906159bc565b6110a63361263d565b60ca5460405163d1c68aa360e01b81526001600160401b03841660048201526000916001600160a01b03169063d1c68aa390602401600060405180830381865afa158015613358573d6000803e3d6000fd5b505050506040513d6000823e601f3d908101601f191682016040526133809190810190615c09565b905060005b848110156139275760008282815181106133a1576133a1615980565b602090810291909101015160ca54604051633259966560e01b81526001600160a01b03808416600483015292935060009290911690633259966590602401602060405180830381865afa1580156133fc573d6000803e3d6000fd5b505050506040513d601f19601f820116820180604052508101906134209190615671565b60ca54604051630be5271360e01b81526001600160a01b03858116600483015292935060009290911690630be5271390602401602060405180830381865afa158015613470573d6000803e3d6000fd5b505050506040513d601f19601f820116820180604052508101906134949190615448565b60ce549091506000906001600160a01b03858116600160401b90920416146135cc576135c76107048560ce60089054906101000a90046001600160a01b0316876001600160a01b03166370a0823160ca60009054906101000a90046001600160a01b03166001600160a01b031663fbfa77cf6040518163ffffffff1660e01b8152600401602060405180830381865afa158015613535573d6000803e3d6000fd5b505050506040513d601f19601f82011682018060405250810190613559919061542b565b6040516001600160e01b031960e084901b1681526001600160a01b039091166004820152602401602060405180830381865afa15801561359d573d6000803e3d6000fd5b505050506040513d601f19601f820116820180604052508101906135c19190615448565b87611c43565b6136bd565b6136bd846001600160a01b03166370a0823160ca60009054906101000a90046001600160a01b03166001600160a01b031663fbfa77cf6040518163ffffffff1660e01b8152600401602060405180830381865afa158015613631573d6000803e3d6000fd5b505050506040513d601f19601f82011682018060405250810190613655919061542b565b6040516001600160e01b031960e084901b1681526001600160a01b039091166004820152602401602060405180830381865afa158015613699573d6000803e3d6000fd5b505050506040513d601f19601f820116820180604052508101906107049190615448565b60008b815260d2602090815260408083206001600160a01b0389168452909152812082905590915068056bc75e2d631000006136f9848e6156fb565b6137039190615712565b60ce549091506001600160a01b03868116600160401b90920416146137c0576137ba60ce60089054906101000a90046001600160a01b0316868360ca60009054906101000a90046001600160a01b03166001600160a01b031663fbfa77cf6040518163ffffffff1660e01b8152600401602060405180830381865afa158015613790573d6000803e3d6000fd5b505050506040513d601f19601f820116820180604052508101906137b4919061542b565b886131c4565b506138a2565b60ce5460ca546040805163fbfa77cf60e01b815290516001600160a01b03600160401b90940484169363a9059cbb93169163fbfa77cf9160048083019260209291908290030181865afa15801561381b573d6000803e3d6000fd5b505050506040513d601f19601f8201168201806040525081019061383f919061542b565b836040518363ffffffff1660e01b815260040161385d9291906153f0565b6020604051808303816000875af115801561387c573d6000803e3d6000fd5b505050506040513d601f19601f820116820180604052508101906138a09190615409565b505b6138c368056bc75e2d631000006138b9858f6156fb565b6107049190615712565b6138cd90836154bd565b60008c815260d2602081815260408084206001600160a01b038b1685528083529084206001908101959095558f8452919052820180549091906139119084906154bd565b9091555050600190950194506133859350505050565b50505050505050565b6139626040518060a0016040528060608152602001606081526020016060815260200160608152602001606081525090565b60ca54604051632a3ff8ad60e01b8152600481018490526001600160401b03851660248201526000916001600160a01b031690632a3ff8ad90604401602060405180830381865afa1580156139bb573d6000803e3d6000fd5b505050506040513d601f19601f820116820180604052508101906139df9190615448565b60408051600180825281830190925291925060009190602080830190803683370190505090508181600081518110613a1957613a19615980565b602090810291909101015260ce54600090613a9090600160401b90046001600160a01b0316613a4788610bdc565b68056bc75e2d6310000085600081518110613a6457613a64615980565b60200260200101518c613a7791906156fb565b613a819190615712565b30613a8b8b6110ef565b6131c4565b90506000613a9d87610c53565b60ca5460405163d1c68aa360e01b81526001600160401b038a1660048201529192506001600160a01b03169063d1c68aa390602401600060405180830381865afa158015613aef573d6000803e3d6000fd5b505050506040513d6000823e601f3d908101601f19168201604052613b179190810190615c09565b855260ca5460405163221f337160e01b81526001600160401b03891660048201526001600160a01b039091169063221f337190602401600060405180830381865afa158015613b6a573d6000803e3d6000fd5b505050506040513d6000823e601f3d908101601f19168201604052613b929190810190615c45565b602086015260ca54604051632bda5acd60e21b81526001600160401b03891660048201526001600160a01b039091169063af696b3490602401600060405180830381865afa158015613be8573d6000803e3d6000fd5b505050506040513d6000823e601f3d908101601f19168201604052613c109190810190615c45565b60408681019190915280516000808252602080830184526060890192909252825181815280830184526080890152825160018082528185019094529092909182015b6040805180820190915260008082526020820152815260200190600190039081613c52579050509050613c8488610bdc565b81600081518110613c9757613c97615980565b6020026020010151600001906001600160a01b031690816001600160a01b0316815250508281600081518110613ccf57613ccf615980565b602002602001015160200181815250506000808760000151886060015189602001518a608001518e8c604001518b604051602001613d14989796959493929190615cf0565b60405160208183030381529060405290506000613d358a8386866001614157565b90507f54791b38f3859327992a1ca0590ad3c0f08feba98d1a4f56ab0dca74d203392a81604051613d6891815260200190565b60405180910390a160cf54600090815260d260205260409020600501555050505050505050505050565b8560005b8651811015613ec9576000868281518110613db357613db3615980565b602002602001015190506000868381518110613dd157613dd1615980565b602002602001015190508160d2600086815260200190815260200160002060000160008b8681518110613e0657613e06615980565b60200260200101516001600160a01b03166001600160a01b03168152602001908152602001600020600001819055508060d2600086815260200190815260200160002060000160008b8681518110613e6057613e60615980565b60200260200101516001600160a01b03166001600160a01b0316815260200190815260200160002060010181905550600160d260008681526020019081526020016000206001016000828254613eb691906154bd565b909155505060019092019150613d969050565b50600081815260d260205260409020600101548390036139275761392781836141d2565b6080850151805187919060009082908290613f0a57613f0a615980565b6020026020010151600001519050600082600081518110613f2d57613f2d615980565b60200260200101516020015190506000613f618360ce60089054906101000a90046001600160a01b03168430610bb86131c4565b600086815260d36020526040812080549293508392909190613f849084906154bd565b90915550508851600086815260d3602052604081206001018054909190613fac9084906154bd565b9091555050600085815260d36020526040902060010154889003613fd457613fd485876145c8565b5050505050505050505050565b60408051915160248084019190915281518084039091018152604490920190526020810180516001600160e01b03166397a657c960e01b17905290565b60006001600160a01b0385166140765760405162461bcd60e51b815260206004820152601760248201527f496e76616c696420746f6b656e496e20616464726573730000000000000000006044820152606401610937565b6001600160a01b0384166140cc5760405162461bcd60e51b815260206004820152601860248201527f496e76616c696420746f6b656e4f7574206164647265737300000000000000006044820152606401610937565b6000831161411c5760405162461bcd60e51b815260206004820181905260248201527f416d6f756e74206d7573742062652067726561746572207468616e207a65726f6044820152606401610937565b62ffffff86161561413c576141358887878787876148d1565b905061414c565b6141498786868686614a23565b90505b979650505050505050565b600061416161316b565b6000805460cb5461418b916001600160a01b03620100009091048116911660058a8a8a8a8a614c18565b90507f54791b38f3859327992a1ca0590ad3c0f08feba98d1a4f56ab0dca74d203392a816040516141be91815260200190565b60405180910390a190506116ba6001609855565b600080600060ca60009054906101000a90046001600160a01b03166001600160a01b03166353fd43326040518163ffffffff1660e01b8152600401602060405180830381865afa15801561422a573d6000803e3d6000fd5b505050506040513d601f19601f8201168201806040525081019061424e9190615448565b905060005b818110156143375760ca5460405163264cae9360e21b8152600481018390526000916001600160a01b031690639932ba4c90602401602060405180830381865afa1580156142a5573d6000803e3d6000fd5b505050506040513d601f19601f820116820180604052508101906142c9919061542b565b600088815260d2602090815260408083206001600160a01b03851684529091529020549091506142f990866154bd565b600088815260d2602090815260408083206001600160a01b038616845290915290206001015490955061432c90856154bd565b935050600101614253565b5060008060cc60009054906101000a90046001600160a01b03166001600160a01b03166318160ddd6040518163ffffffff1660e01b8152600401602060405180830381865afa15801561438e573d6000803e3d6000fd5b505050506040513d601f19601f820116820180604052508101906143b29190615448565b11156144cd5760cc60009054906101000a90046001600160a01b03166001600160a01b03166318160ddd6040518163ffffffff1660e01b8152600401602060405180830381865afa15801561440b573d6000803e3d6000fd5b505050506040513d601f19601f8201168201806040525081019061442f9190615448565b848460cc60009054906101000a90046001600160a01b03166001600160a01b03166318160ddd6040518163ffffffff1660e01b8152600401602060405180830381865afa158015614484573d6000803e3d6000fd5b505050506040513d601f19601f820116820180604052508101906144a89190615448565b6144b291906156fb565b6144bc9190615712565b6144c691906154e9565b90506144db565b6144d88360646156fb565b90505b60cc54600087815260d26020526040908190206002015490516340c10f1960e01b81526001600160a01b03928316926340c10f19926145219291169085906004016153f0565b600060405180830381600087803b15801561453b57600080fd5b505af115801561454f573d6000803e3d6000fd5b505050600087815260d26020526040908190206002810154600482015460039092015492516001600160a01b0391821694508a938a937f4d3128af979c46a863cd489a3d0959d5d22181cdbdb1949b40cadfcdac0a1d38936145b8939116919088904290615996565b60405180910390a4505050505050565b600082815260d3602052604081208054600282015460039092015460cc5491936001600160a01b039384169382169262ffffff600160a01b93849004169261461691879160ff910416612369565b60ce5460d15460405163a9059cbb60e01b81529293506001600160a01b03600160401b90920482169263a9059cbb9261465592169085906004016153f0565b6020604051808303816000875af1158015614674573d6000803e3d6000fd5b505050506040513d601f19601f820116820180604052508101906146989190615409565b5060ce546001600160a01b03600160401b90910481169084160361484c5760ce54600160401b90046001600160a01b0316632e1a7d4d6146d883886154e9565b6040518263ffffffff1660e01b81526004016146f691815260200190565b600060405180830381600087803b15801561471057600080fd5b505af1158015614724573d6000803e3d6000fd5b505050506000846001600160a01b0316828761474091906154e9565b604051600081818185875af1925050503d806000811461477c576040519150601f19603f3d011682016040523d82523d6000602084013e614781565b606091505b50509050806147de5760405162461bcd60e51b8152602060048201526024808201527f7472616e736665722065746820746f20746865207265717565737465722066616044820152631a5b195960e21b6064820152608401610937565b600088815260d360205260409020600401546001600160a01b03861690899089907f476778ca38557db6dc935a57ece5bd93fbaca20183fadf86d7a1d2b85df65e0190889061482d888d6154e9565b4260405161483e9493929190615996565b60405180910390a450613927565b60ce5460009061487890600160401b90046001600160a01b031685614871858a6154e9565b88876131c4565b9050846001600160a01b031688887f476778ca38557db6dc935a57ece5bd93fbaca20183fadf86d7a1d2b85df65e018760d360008e8152602001908152602001600020600401548642604051611c319493929190615996565b60405163095ea7b360e01b81526000906001600160a01b0386169063095ea7b390614902908a9087906004016153f0565b6020604051808303816000875af1158015614921573d6000803e3d6000fd5b505050506040513d601f19601f820116820180604052508101906149459190615409565b506000604051806101000160405280876001600160a01b03168152602001866001600160a01b031681526020018862ffffff168152602001846001600160a01b031681526020014261012c61499a91906154bd565b815260208101869052600060408083018290526060909201525163414bf38960e01b81529091506001600160a01b0389169063414bf389906149e0908490600401615d85565b6020604051808303816000875af11580156149ff573d6000803e3d6000fd5b505050506040513d601f19601f820116820180604052508101906132ca9190615448565b604080516002808252606082018352600092839291906020830190803683370190505090508581600081518110614a5c57614a5c615980565b60200260200101906001600160a01b031690816001600160a01b0316815250508481600181518110614a9057614a90615980565b6001600160a01b03928316602091820292909201015260405163d06ca61f60e01b815260009189169063d06ca61f90614acf9088908690600401615e02565b600060405180830381865afa158015614aec573d6000803e3d6000fd5b505050506040513d6000823e601f3d908101601f19168201604052614b149190810190615c45565b60405163095ea7b360e01b81529091506001600160a01b0388169063095ea7b390614b45908b9089906004016153f0565b6020604051808303816000875af1158015614b64573d6000803e3d6000fd5b505050506040513d601f19601f82011682018060405250810190614b889190615409565b50604051635c11d79560e01b81526001600160a01b03891690635c11d79590614bbe90889060009087908a904290600401615e1b565b600060405180830381600087803b158015614bd857600080fd5b505af1158015614bec573d6000803e3d6000fd5b5050505080600181518110614c0357614c03615980565b60200260200101519250505095945050505050565b815160009061ffff8816811115614c975760405162461bcd60e51b815260206004820152603760248201527f4d6178696d756d203520646966666572656e7420746f6b656e732063616e206260448201527f652073656e74207065722043434950204d6573736167650000000000000000006064820152608401610937565b60005b81811015614d8d57896001600160a01b0316858281518110614cbe57614cbe615980565b6020026020010151600001516001600160a01b031614614d8557848181518110614cea57614cea615980565b6020026020010151600001516001600160a01b031663095ea7b38c878481518110614d1757614d17615980565b6020026020010151602001516040518363ffffffff1660e01b8152600401614d409291906153f0565b6020604051808303816000875af1158015614d5f573d6000803e3d6000fd5b505050506040513d601f19601f82011682018060405250810190614d839190615409565b505b600101614c9a565b506040805160a081019091526001600160a01b03861660c08201526000908060e0810160408051601f19818403018152918152908252602082018a905281018790526060016001866001811115614de657614de6615ad8565b14614df2576000614df4565b8b5b6001600160a01b03168152602001614e1c6040518060200160405280622dc6c0815250613fe1565b90526040516320487ded60e01b81529091506000906001600160a01b038d16906320487ded90614e52908c908690600401615b34565b602060405180830381865afa158015614e6f573d6000803e3d6000fd5b505050506040513d601f19601f82011682018060405250810190614e939190615448565b905060006001866001811115614eab57614eab615ad8565b03614f28576040516396f4e9f960e01b81526001600160a01b038e16906396f4e9f990614ede908d908790600401615b34565b6020604051808303816000875af1158015614efd573d6000803e3d6000fd5b505050506040513d601f19601f82011682018060405250810190614f219190615448565b9050614f9e565b6040516396f4e9f960e01b81526001600160a01b038e16906396f4e9f9908490614f58908e908890600401615b34565b60206040518083038185885af1158015614f76573d6000803e3d6000fd5b50505050506040513d601f19601f82011682018060405250810190614f9b9190615448565b90505b9c9b505050505050505050505050565b600060208284031215614fc057600080fd5b81356001600160e01b03198116811461117a57600080fd5b6001600160401b03811681146110ec57600080fd5b8035614ff881614fd8565b919050565b6001600160a01b03811681146110ec57600080fd5b600080600080600060a0868803121561502a57600080fd5b853561503581614fd8565b9450602086013561504581614ffd565b9350604086013561505581614ffd565b9250606086013561506581614ffd565b9150608086013561507581614ffd565b809150509295509295909350565b60006020828403121561509557600080fd5b813561117a81614fd8565b6000602082840312156150b257600080fd5b5035919050565b600080604083850312156150cc57600080fd5b50508035926020909101359150565b6000602082840312156150ed57600080fd5b813560ff8116811461117a57600080fd5b60006020828403121561511057600080fd5b81356001600160401b0381111561512657600080fd5b820160a0818503121561117a57600080fd5b60006020828403121561514a57600080fd5b813561117a81614ffd565b634e487b7160e01b600052604160045260246000fd5b604080519081016001600160401b038111828210171561518d5761518d615155565b60405290565b60405160a081016001600160401b038111828210171561518d5761518d615155565b604051601f8201601f191681016001600160401b03811182821017156151dd576151dd615155565b604052919050565b600082601f8301126151f657600080fd5b81356001600160401b0381111561520f5761520f615155565b615222601f8201601f19166020016151b5565b81815284602083860101111561523757600080fd5b816020850160208301376000918101602001919091529392505050565b6000806000806080858703121561526a57600080fd5b843561527581614fd8565b9350602085013561528581614ffd565b925060408501356001600160401b038111156152a057600080fd5b6152ac878288016151e5565b9250506060850135600281106152c157600080fd5b939692955090935050565b62ffffff811681146110ec57600080fd5b600080600080608085870312156152f357600080fd5b8435935060208501359250604085013561530c81614ffd565b915060608501356152c1816152cc565b6000806000806080858703121561533257600080fd5b843561533d81614ffd565b9350602085013561534d81614ffd565b92506040850135915060608501356152c1816152cc565b6000806000806080858703121561537a57600080fd5b843561538581614ffd565b9350602085013561539581614ffd565b925060408501356001600160801b038116811461530c57600080fd5b600080600080608085870312156153c757600080fd5b84356153d281614ffd565b9350602085013592506040850135915060608501356152c1816152cc565b6001600160a01b03929092168252602082015260400190565b60006020828403121561541b57600080fd5b8151801515811461117a57600080fd5b60006020828403121561543d57600080fd5b815161117a81614ffd565b60006020828403121561545a57600080fd5b5051919050565b60208082526026908201527f496e70757420616d6f756e74206d7573742062652067726561746572207468616040820152656e207a65726f60d01b606082015260800190565b634e487b7160e01b600052601160045260246000fd5b80820180821115610898576108986154a7565b6000600182016154e2576154e26154a7565b5060010190565b81810381811115610898576108986154a7565b60006001600160401b0382111561551557615515615155565b5060051b60200190565b600082601f83011261553057600080fd5b813561554361553e826154fc565b6151b5565b8082825260208201915060208360061b86010192508583111561556557600080fd5b602085015b838110156155b1576040818803121561558257600080fd5b61558a61516b565b813561559581614ffd565b815260208281013581830152908452929092019160400161556a565b5095945050505050565b600060a082360312156155cd57600080fd5b6155d5615193565b823581526155e560208401614fed565b602082015260408301356001600160401b0381111561560357600080fd5b61560f368286016151e5565b60408301525060608301356001600160401b0381111561562e57600080fd5b61563a368286016151e5565b60608301525060808301356001600160401b0381111561565957600080fd5b6156653682860161551f565b60808301525092915050565b60006020828403121561568357600080fd5b815161117a816152cc565b6000602082840312156156a057600080fd5b815161117a81614fd8565b60208082526030908201527f50726f706f7361626c654f776e61626c653a206e6577206f776e65722069732060408201526f746865207a65726f206164647265737360801b606082015260800190565b8082028115828204841417610898576108986154a7565b60008261572f57634e487b7160e01b600052601260045260246000fd5b500490565b600082601f83011261574557600080fd5b815161575361553e826154fc565b8082825260208201915060208360051b86010192508583111561577557600080fd5b602085015b838110156155b157805161578d81614ffd565b83526020928301920161577a565b600082601f8301126157ac57600080fd5b81516157ba61553e826154fc565b8082825260208201915060208360051b8601019250858311156157dc57600080fd5b602085015b838110156155b15780518352602092830192016157e1565b600082601f83011261580a57600080fd5b815161581861553e826154fc565b8082825260208201915060208360051b86010192508583111561583a57600080fd5b602085015b838110156155b157805161585281614fd8565b83526020928301920161583f565b6000806000806080858703121561587657600080fd5b84516001600160401b0381111561588c57600080fd5b61589887828801615734565b94505060208501516001600160401b038111156158b457600080fd5b6158c08782880161579b565b93505060408501516001600160401b038111156158dc57600080fd5b8501601f810187136158ed57600080fd5b80516158fb61553e826154fc565b8082825260208201915060208360051b85010192508983111561591d57600080fd5b6020840193505b82841015615948578351615937816152cc565b825260209384019390910190615924565b8095505050505060608501516001600160401b0381111561596857600080fd5b615974878288016157f9565b91505092959194509250565b634e487b7160e01b600052603260045260246000fd5b6001600160a01b0394909416845260208401929092526040830152606082015260800190565b6020808252602b908201527f496e697469616c697a61626c653a20636f6e7472616374206973206e6f74206960408201526a6e697469616c697a696e6760a81b606082015260800190565b60008060008060008060c08789031215615a2057600080fd5b865160208801519096506001600160401b03811115615a3e57600080fd5b615a4a89828a01615734565b95505060408701516001600160401b03811115615a6657600080fd5b615a7289828a01615734565b606089015160808a0151919650945090506001600160401b03811115615a9757600080fd5b615aa389828a0161579b565b92505060a08701516001600160401b03811115615abf57600080fd5b615acb89828a0161579b565b9150509295509295509295565b634e487b7160e01b600052602160045260246000fd5b6000815180845260005b81811015615b1457602081850181015186830182015201615af8565b506000602082860101526020601f19601f83011685010191505092915050565b6001600160401b0383168152604060208201526000825160a06040840152615b5f60e0840182615aee565b90506020840151603f19848303016060850152615b7c8282615aee565b6040860151858203603f19016080870152805180835260209182019450600093509101905b80831015615bd857835180516001600160a01b03168352602090810151818401529093019260019290920191604090910190615ba1565b5060608601516001600160a01b031660a08601526080860151858203603f190160c0870152925061414c8184615aee565b600060208284031215615c1b57600080fd5b81516001600160401b03811115615c3157600080fd5b615c3d84828501615734565b949350505050565b600060208284031215615c5757600080fd5b81516001600160401b03811115615c6d57600080fd5b615c3d8482850161579b565b600081518084526020840193506020830160005b82811015615cb45781516001600160a01b0316865260209586019590910190600101615c8d565b5093949350505050565b600081518084526020840193506020830160005b82811015615cb4578151865260209586019590910190600101615cd2565b60ff8916815261010060208201526000615d0e61010083018a615c79565b8281036040840152615d20818a615c79565b90508281036060840152615d348189615cbe565b90508281036080840152615d488188615cbe565b90508560a084015282810360c0840152615d628186615cbe565b905082810360e0840152615d768185615cbe565b9b9a5050505050505050505050565b81516001600160a01b03908116825260208084015182169083015260408084015162ffffff169083015260608084015191821690830152610100820190506080830151608083015260a083015160a083015260c083015160c083015260e0830151615dfb60e08401826001600160a01b03169052565b5092915050565b828152604060208201526000615c3d6040830184615c79565b85815284602082015260a060408201526000615e3a60a0830186615c79565b6001600160a01b039490941660608301525060800152939250505056fea2646970667358221220cc9724e4b46193b87223ea3dcecd1dd9f6301ba07419b455a070ecc1fc5e024964736f6c634300081a0033","linkReferences":{}},"methodIdentifiers":{"MAX_FEE_RATE()":"92f6576e","MAX_TOKENS_LENGTH()":"d28c00fc","MIN_FEE_RATE()":"58c0f10d","MIN_FEE_UPDATE_INTERVAL()":"c9172ef7","ccipReceive((bytes32,uint64,bytes,bytes,(address,uint256)[]))":"85572ffb","convertEthToUsd(uint256)":"c086381e","crossChainFactoryBySelector(uint64)":"340fbc74","crossChainToken(uint64)":"19da7e2a","crossChainTokenSwapFee(uint64)":"9ff73f45","currentChainSelector()":"3d54cb6f","estimateAmountOut(address,address,uint128,uint24)":"ee7bd3e2","factoryStorage()":"c06e1ae2","feeRate()":"978bbdb9","feeReceiver()":"b3f00674","getAmountOut(address,address,uint256,uint24)":"dd811ac9","getPortfolioBalance()":"a8509fd8","getRouter()":"b0f479a1","i_link()":"7d253aff","indexToken()":"e7d015f2","initialize(uint64,address,address,address,address)":"16b487ff","issuanceData(uint256)":"2d6fc6b3","issuanceIndexTokens(address,uint256,uint256,uint24)":"fd485101","issuanceIndexTokensWithEth(uint256,uint256)":"41d11817","issuanceNonce()":"9dbb9c9e","latestFeeUpdate()":"011ced5f","owner()":"8da5cb5b","priceInWei()":"3c8da588","proposeOwner(address)":"b5ed298a","proposedOwner()":"d153b60c","redemption(uint256,uint256,address,uint24)":"d0586d71","redemptionData(uint256)":"aa4379c0","redemptionNonce()":"84d77bb1","renounceOwnership()":"715018a6","sendMessage(uint64,address,bytes,uint8)":"bcab90b3","setFeeRate(uint8)":"5177942a","setFeeReceiver(address)":"efdcd974","setIndexFactoryStorage(address)":"cc8659ae","supportsInterface(bytes4)":"01ffc9a7","transferOwnership(address)":"f2fde38b","weth()":"3fc8cef3"},"id":3}