{
  "abi": [
    {
      "inputs": [
        {
          "internalType": "address",
          "name": "router",
          "type": "address"
        }
      ],
      "name": "InvalidRouter",
      "type": "error"
    },
    {
      "anonymous": false,
      "inputs": [
        {
          "indexed": false,
          "internalType": "uint8",
          "name": "version",
          "type": "uint8"
        }
      ],
      "name": "Initialized",
      "type": "event"
    },
    {
      "anonymous": false,
      "inputs": [
        {
          "indexed": true,
          "internalType": "bytes32",
          "name": "messageId",
          "type": "bytes32"
        },
        {
          "indexed": true,
          "internalType": "uint256",
          "name": "nonce",
          "type": "uint256"
        },
        {
          "indexed": true,
          "internalType": "address",
          "name": "user",
          "type": "address"
        },
        {
          "indexed": false,
          "internalType": "address",
          "name": "inputToken",
          "type": "address"
        },
        {
          "indexed": false,
          "internalType": "uint256",
          "name": "inputAmount",
          "type": "uint256"
        },
        {
          "indexed": false,
          "internalType": "uint256",
          "name": "outputAmount",
          "type": "uint256"
        },
        {
          "indexed": false,
          "internalType": "uint256",
          "name": "time",
          "type": "uint256"
        }
      ],
      "name": "Issuanced",
      "type": "event"
    },
    {
      "anonymous": false,
      "inputs": [
        {
          "indexed": false,
          "internalType": "bytes32",
          "name": "messageId",
          "type": "bytes32"
        }
      ],
      "name": "MessageSent",
      "type": "event"
    },
    {
      "anonymous": false,
      "inputs": [
        {
          "indexed": true,
          "internalType": "address",
          "name": "previousOwner",
          "type": "address"
        },
        {
          "indexed": true,
          "internalType": "address",
          "name": "newOwner",
          "type": "address"
        }
      ],
      "name": "OwnershipTransferred",
      "type": "event"
    },
    {
      "anonymous": false,
      "inputs": [
        {
          "indexed": true,
          "internalType": "bytes32",
          "name": "messageId",
          "type": "bytes32"
        },
        {
          "indexed": true,
          "internalType": "uint256",
          "name": "nonce",
          "type": "uint256"
        },
        {
          "indexed": true,
          "internalType": "address",
          "name": "user",
          "type": "address"
        },
        {
          "indexed": false,
          "internalType": "address",
          "name": "outputToken",
          "type": "address"
        },
        {
          "indexed": false,
          "internalType": "uint256",
          "name": "inputAmount",
          "type": "uint256"
        },
        {
          "indexed": false,
          "internalType": "uint256",
          "name": "outputAmount",
          "type": "uint256"
        },
        {
          "indexed": false,
          "internalType": "uint256",
          "name": "time",
          "type": "uint256"
        }
      ],
      "name": "Redemption",
      "type": "event"
    },
    {
      "anonymous": false,
      "inputs": [
        {
          "indexed": true,
          "internalType": "bytes32",
          "name": "messageId",
          "type": "bytes32"
        },
        {
          "indexed": true,
          "internalType": "uint256",
          "name": "nonce",
          "type": "uint256"
        },
        {
          "indexed": true,
          "internalType": "address",
          "name": "user",
          "type": "address"
        },
        {
          "indexed": false,
          "internalType": "address",
          "name": "inputToken",
          "type": "address"
        },
        {
          "indexed": false,
          "internalType": "uint256",
          "name": "inputAmount",
          "type": "uint256"
        },
        {
          "indexed": false,
          "internalType": "uint256",
          "name": "outputAmount",
          "type": "uint256"
        },
        {
          "indexed": false,
          "internalType": "uint256",
          "name": "time",
          "type": "uint256"
        }
      ],
      "name": "RequestIssuance",
      "type": "event"
    },
    {
      "anonymous": false,
      "inputs": [
        {
          "indexed": true,
          "internalType": "bytes32",
          "name": "messageId",
          "type": "bytes32"
        },
        {
          "indexed": true,
          "internalType": "uint256",
          "name": "nonce",
          "type": "uint256"
        },
        {
          "indexed": true,
          "internalType": "address",
          "name": "user",
          "type": "address"
        },
        {
          "indexed": false,
          "internalType": "address",
          "name": "outputToken",
          "type": "address"
        },
        {
          "indexed": false,
          "internalType": "uint256",
          "name": "inputAmount",
          "type": "uint256"
        },
        {
          "indexed": false,
          "internalType": "uint256",
          "name": "outputAmount",
          "type": "uint256"
        },
        {
          "indexed": false,
          "internalType": "uint256",
          "name": "time",
          "type": "uint256"
        }
      ],
      "name": "RequestRedemption",
      "type": "event"
    },
    {
      "inputs": [
        {
          "components": [
            {
              "internalType": "bytes32",
              "name": "messageId",
              "type": "bytes32"
            },
            {
              "internalType": "uint64",
              "name": "sourceChainSelector",
              "type": "uint64"
            },
            {
              "internalType": "bytes",
              "name": "sender",
              "type": "bytes"
            },
            {
              "internalType": "bytes",
              "name": "data",
              "type": "bytes"
            },
            {
              "components": [
                {
                  "internalType": "address",
                  "name": "token",
                  "type": "address"
                },
                {
                  "internalType": "uint256",
                  "name": "amount",
                  "type": "uint256"
                }
              ],
              "internalType": "struct Client.EVMTokenAmount[]",
              "name": "destTokenAmounts",
              "type": "tuple[]"
            }
          ],
          "internalType": "struct Client.Any2EVMMessage",
          "name": "message",
          "type": "tuple"
        }
      ],
      "name": "ccipReceive",
      "outputs": [],
      "stateMutability": "nonpayable",
      "type": "function"
    },
    {
      "inputs": [
        {
          "internalType": "uint256",
          "name": "_ethAmount",
          "type": "uint256"
        }
      ],
      "name": "convertEthToUsd",
      "outputs": [
        {
          "internalType": "uint256",
          "name": "",
          "type": "uint256"
        }
      ],
      "stateMutability": "view",
      "type": "function"
    },
    {
      "inputs": [
        {
          "internalType": "uint64",
          "name": "_chainSelector",
          "type": "uint64"
        }
      ],
      "name": "crossChainFactoryBySelector",
      "outputs": [
        {
          "internalType": "address",
          "name": "",
          "type": "address"
        }
      ],
      "stateMutability": "view",
      "type": "function"
    },
    {
      "inputs": [
        {
          "internalType": "uint64",
          "name": "_chainSelector",
          "type": "uint64"
        }
      ],
      "name": "crossChainToken",
      "outputs": [
        {
          "internalType": "address",
          "name": "",
          "type": "address"
        }
      ],
      "stateMutability": "view",
      "type": "function"
    },
    {
      "inputs": [
        {
          "internalType": "uint64",
          "name": "_chainSelector",
          "type": "uint64"
        }
      ],
      "name": "crossChainTokenSwapVersion",
      "outputs": [
        {
          "internalType": "uint256",
          "name": "",
          "type": "uint256"
        }
      ],
      "stateMutability": "view",
      "type": "function"
    },
    {
      "inputs": [],
      "name": "currentChainSelector",
      "outputs": [
        {
          "internalType": "uint64",
          "name": "",
          "type": "uint64"
        }
      ],
      "stateMutability": "view",
      "type": "function"
    },
    {
      "inputs": [
        {
          "internalType": "address",
          "name": "tokenIn",
          "type": "address"
        },
        {
          "internalType": "address",
          "name": "tokenOut",
          "type": "address"
        },
        {
          "internalType": "uint128",
          "name": "amountIn",
          "type": "uint128"
        },
        {
          "internalType": "uint32",
          "name": "secondsAgo",
          "type": "uint32"
        }
      ],
      "name": "estimateAmountOut",
      "outputs": [
        {
          "internalType": "uint256",
          "name": "amountOut",
          "type": "uint256"
        }
      ],
      "stateMutability": "view",
      "type": "function"
    },
    {
      "inputs": [],
      "name": "feeRate",
      "outputs": [
        {
          "internalType": "uint8",
          "name": "",
          "type": "uint8"
        }
      ],
      "stateMutability": "view",
      "type": "function"
    },
    {
      "inputs": [
        {
          "internalType": "address",
          "name": "tokenIn",
          "type": "address"
        },
        {
          "internalType": "address",
          "name": "tokenOut",
          "type": "address"
        },
        {
          "internalType": "uint256",
          "name": "amountIn",
          "type": "uint256"
        },
        {
          "internalType": "uint256",
          "name": "_swapVersion",
          "type": "uint256"
        }
      ],
      "name": "getAmountOut",
      "outputs": [
        {
          "internalType": "uint256",
          "name": "finalAmountOut",
          "type": "uint256"
        }
      ],
      "stateMutability": "view",
      "type": "function"
    },
    {
      "inputs": [],
      "name": "getPortfolioBalance",
      "outputs": [
        {
          "internalType": "uint256",
          "name": "",
          "type": "uint256"
        }
      ],
      "stateMutability": "view",
      "type": "function"
    },
    {
      "inputs": [],
      "name": "getRouter",
      "outputs": [
        {
          "internalType": "address",
          "name": "",
          "type": "address"
        }
      ],
      "stateMutability": "view",
      "type": "function"
    },
    {
      "inputs": [],
      "name": "i_link",
      "outputs": [
        {
          "internalType": "address",
          "name": "",
          "type": "address"
        }
      ],
      "stateMutability": "view",
      "type": "function"
    },
    {
      "inputs": [],
      "name": "i_maxTokensLength",
      "outputs": [
        {
          "internalType": "uint16",
          "name": "",
          "type": "uint16"
        }
      ],
      "stateMutability": "view",
      "type": "function"
    },
    {
      "inputs": [],
      "name": "indexFactoryStorage",
      "outputs": [
        {
          "internalType": "contract IndexFactoryStorage",
          "name": "",
          "type": "address"
        }
      ],
      "stateMutability": "view",
      "type": "function"
    },
    {
      "inputs": [],
      "name": "indexToken",
      "outputs": [
        {
          "internalType": "contract IndexToken",
          "name": "",
          "type": "address"
        }
      ],
      "stateMutability": "view",
      "type": "function"
    },
    {
      "inputs": [
        {
          "internalType": "uint64",
          "name": "_currentChainSelector",
          "type": "uint64"
        },
        {
          "internalType": "address payable",
          "name": "_token",
          "type": "address"
        },
        {
          "internalType": "address",
          "name": "_chainlinkToken",
          "type": "address"
        },
        {
          "internalType": "address",
          "name": "_router",
          "type": "address"
        },
        {
          "internalType": "address",
          "name": "_weth",
          "type": "address"
        }
      ],
      "name": "initialize",
      "outputs": [],
      "stateMutability": "nonpayable",
      "type": "function"
    },
    {
      "inputs": [
        {
          "internalType": "uint256",
          "name": "",
          "type": "uint256"
        }
      ],
      "name": "issuanceCompletedTokensCount",
      "outputs": [
        {
          "internalType": "uint256",
          "name": "",
          "type": "uint256"
        }
      ],
      "stateMutability": "view",
      "type": "function"
    },
    {
      "inputs": [
        {
          "internalType": "address",
          "name": "_tokenIn",
          "type": "address"
        },
        {
          "internalType": "uint256",
          "name": "_inputAmount",
          "type": "uint256"
        },
        {
          "internalType": "uint256",
          "name": "_crossChainFee",
          "type": "uint256"
        },
        {
          "internalType": "uint256",
          "name": "_tokenInSwapVersion",
          "type": "uint256"
        }
      ],
      "name": "issuanceIndexTokens",
      "outputs": [],
      "stateMutability": "payable",
      "type": "function"
    },
    {
      "inputs": [
        {
          "internalType": "uint256",
          "name": "_inputAmount",
          "type": "uint256"
        },
        {
          "internalType": "uint256",
          "name": "_crossChainFee",
          "type": "uint256"
        }
      ],
      "name": "issuanceIndexTokensWithEth",
      "outputs": [],
      "stateMutability": "payable",
      "type": "function"
    },
    {
      "inputs": [
        {
          "internalType": "uint256",
          "name": "",
          "type": "uint256"
        }
      ],
      "name": "issuanceInputAmount",
      "outputs": [
        {
          "internalType": "uint256",
          "name": "",
          "type": "uint256"
        }
      ],
      "stateMutability": "view",
      "type": "function"
    },
    {
      "inputs": [
        {
          "internalType": "uint256",
          "name": "",
          "type": "uint256"
        }
      ],
      "name": "issuanceInputToken",
      "outputs": [
        {
          "internalType": "address",
          "name": "",
          "type": "address"
        }
      ],
      "stateMutability": "view",
      "type": "function"
    },
    {
      "inputs": [
        {
          "internalType": "uint256",
          "name": "",
          "type": "uint256"
        }
      ],
      "name": "issuanceMessageIdByNonce",
      "outputs": [
        {
          "internalType": "bytes32",
          "name": "",
          "type": "bytes32"
        }
      ],
      "stateMutability": "view",
      "type": "function"
    },
    {
      "inputs": [],
      "name": "issuanceNonce",
      "outputs": [
        {
          "internalType": "uint256",
          "name": "",
          "type": "uint256"
        }
      ],
      "stateMutability": "view",
      "type": "function"
    },
    {
      "inputs": [
        {
          "internalType": "uint256",
          "name": "",
          "type": "uint256"
        }
      ],
      "name": "issuanceNonceRequester",
      "outputs": [
        {
          "internalType": "address",
          "name": "",
          "type": "address"
        }
      ],
      "stateMutability": "view",
      "type": "function"
    },
    {
      "inputs": [
        {
          "internalType": "uint256",
          "name": "",
          "type": "uint256"
        },
        {
          "internalType": "address",
          "name": "",
          "type": "address"
        }
      ],
      "name": "issuanceTokenOldAndNewValues",
      "outputs": [
        {
          "internalType": "uint256",
          "name": "oldTokenValue",
          "type": "uint256"
        },
        {
          "internalType": "uint256",
          "name": "newTokenValue",
          "type": "uint256"
        }
      ],
      "stateMutability": "view",
      "type": "function"
    },
    {
      "inputs": [],
      "name": "latestFeeUpdate",
      "outputs": [
        {
          "internalType": "uint256",
          "name": "",
          "type": "uint256"
        }
      ],
      "stateMutability": "view",
      "type": "function"
    },
    {
      "inputs": [],
      "name": "owner",
      "outputs": [
        {
          "internalType": "address",
          "name": "",
          "type": "address"
        }
      ],
      "stateMutability": "view",
      "type": "function"
    },
    {
      "inputs": [
        {
          "internalType": "uint256",
          "name": "",
          "type": "uint256"
        }
      ],
      "name": "portfolioTotalValueByNonce",
      "outputs": [
        {
          "internalType": "uint256",
          "name": "",
          "type": "uint256"
        }
      ],
      "stateMutability": "view",
      "type": "function"
    },
    {
      "inputs": [],
      "name": "priceInWei",
      "outputs": [
        {
          "internalType": "uint256",
          "name": "",
          "type": "uint256"
        }
      ],
      "stateMutability": "view",
      "type": "function"
    },
    {
      "inputs": [
        {
          "internalType": "address",
          "name": "_proposedOwner",
          "type": "address"
        }
      ],
      "name": "proposeOwner",
      "outputs": [],
      "stateMutability": "nonpayable",
      "type": "function"
    },
    {
      "inputs": [],
      "name": "proposedOwner",
      "outputs": [
        {
          "internalType": "address",
          "name": "",
          "type": "address"
        }
      ],
      "stateMutability": "view",
      "type": "function"
    },
    {
      "inputs": [
        {
          "internalType": "uint256",
          "name": "amountIn",
          "type": "uint256"
        },
        {
          "internalType": "uint256",
          "name": "_crossChainFee",
          "type": "uint256"
        },
        {
          "internalType": "address",
          "name": "_tokenOut",
          "type": "address"
        },
        {
          "internalType": "uint256",
          "name": "_tokenOutSwapVersion",
          "type": "uint256"
        }
      ],
      "name": "redemption",
      "outputs": [
        {
          "internalType": "uint256",
          "name": "",
          "type": "uint256"
        }
      ],
      "stateMutability": "payable",
      "type": "function"
    },
    {
      "inputs": [
        {
          "internalType": "uint256",
          "name": "",
          "type": "uint256"
        }
      ],
      "name": "redemptionCompletedTokensCount",
      "outputs": [
        {
          "internalType": "uint256",
          "name": "",
          "type": "uint256"
        }
      ],
      "stateMutability": "view",
      "type": "function"
    },
    {
      "inputs": [
        {
          "internalType": "uint256",
          "name": "",
          "type": "uint256"
        }
      ],
      "name": "redemptionInputAmount",
      "outputs": [
        {
          "internalType": "uint256",
          "name": "",
          "type": "uint256"
        }
      ],
      "stateMutability": "view",
      "type": "function"
    },
    {
      "inputs": [
        {
          "internalType": "uint256",
          "name": "",
          "type": "uint256"
        }
      ],
      "name": "redemptionMessageIdByNonce",
      "outputs": [
        {
          "internalType": "bytes32",
          "name": "",
          "type": "bytes32"
        }
      ],
      "stateMutability": "view",
      "type": "function"
    },
    {
      "inputs": [],
      "name": "redemptionNonce",
      "outputs": [
        {
          "internalType": "uint256",
          "name": "",
          "type": "uint256"
        }
      ],
      "stateMutability": "view",
      "type": "function"
    },
    {
      "inputs": [
        {
          "internalType": "uint256",
          "name": "",
          "type": "uint256"
        }
      ],
      "name": "redemptionNonceOutputToken",
      "outputs": [
        {
          "internalType": "address",
          "name": "",
          "type": "address"
        }
      ],
      "stateMutability": "view",
      "type": "function"
    },
    {
      "inputs": [
        {
          "internalType": "uint256",
          "name": "",
          "type": "uint256"
        }
      ],
      "name": "redemptionNonceOutputTokenSwapVersion",
      "outputs": [
        {
          "internalType": "uint256",
          "name": "",
          "type": "uint256"
        }
      ],
      "stateMutability": "view",
      "type": "function"
    },
    {
      "inputs": [
        {
          "internalType": "uint256",
          "name": "",
          "type": "uint256"
        }
      ],
      "name": "redemptionNonceRequester",
      "outputs": [
        {
          "internalType": "address",
          "name": "",
          "type": "address"
        }
      ],
      "stateMutability": "view",
      "type": "function"
    },
    {
      "inputs": [
        {
          "internalType": "uint256",
          "name": "",
          "type": "uint256"
        }
      ],
      "name": "redemptionNonceTotalValue",
      "outputs": [
        {
          "internalType": "uint256",
          "name": "",
          "type": "uint256"
        }
      ],
      "stateMutability": "view",
      "type": "function"
    },
    {
      "inputs": [
        {
          "internalType": "uint256",
          "name": "",
          "type": "uint256"
        }
      ],
      "name": "redemptionOutputToken",
      "outputs": [
        {
          "internalType": "address",
          "name": "",
          "type": "address"
        }
      ],
      "stateMutability": "view",
      "type": "function"
    },
    {
      "inputs": [],
      "name": "renounceOwnership",
      "outputs": [],
      "stateMutability": "nonpayable",
      "type": "function"
    },
    {
      "inputs": [
        {
          "internalType": "uint64",
          "name": "destinationChainSelector",
          "type": "uint64"
        },
        {
          "internalType": "address",
          "name": "receiver",
          "type": "address"
        },
        {
          "internalType": "bytes",
          "name": "_data",
          "type": "bytes"
        },
        {
          "internalType": "enum IndexFactory.PayFeesIn",
          "name": "payFeesIn",
          "type": "uint8"
        }
      ],
      "name": "sendMessage",
      "outputs": [
        {
          "internalType": "bytes32",
          "name": "",
          "type": "bytes32"
        }
      ],
      "stateMutability": "nonpayable",
      "type": "function"
    },
    {
      "inputs": [
        {
          "internalType": "uint8",
          "name": "_newFee",
          "type": "uint8"
        }
      ],
      "name": "setFeeRate",
      "outputs": [],
      "stateMutability": "nonpayable",
      "type": "function"
    },
    {
      "inputs": [
        {
          "internalType": "address",
          "name": "_indexFactoryStorage",
          "type": "address"
        }
      ],
      "name": "setIndexFactoryStorage",
      "outputs": [],
      "stateMutability": "nonpayable",
      "type": "function"
    },
    {
      "inputs": [
        {
          "internalType": "bytes4",
          "name": "interfaceId",
          "type": "bytes4"
        }
      ],
      "name": "supportsInterface",
      "outputs": [
        {
          "internalType": "bool",
          "name": "",
          "type": "bool"
        }
      ],
      "stateMutability": "pure",
      "type": "function"
    },
    {
      "inputs": [
        {
          "internalType": "address",
          "name": "tokenIn",
          "type": "address"
        },
        {
          "internalType": "address",
          "name": "tokenOut",
          "type": "address"
        },
        {
          "internalType": "uint256",
          "name": "amountIn",
          "type": "uint256"
        },
        {
          "internalType": "address",
          "name": "_recipient",
          "type": "address"
        },
        {
          "internalType": "uint256",
          "name": "_swapVersion",
          "type": "uint256"
        }
      ],
      "name": "swap",
      "outputs": [
        {
          "internalType": "uint256",
          "name": "",
          "type": "uint256"
        }
      ],
      "stateMutability": "nonpayable",
      "type": "function"
    },
    {
      "inputs": [
        {
          "internalType": "uint256",
          "name": "",
          "type": "uint256"
        },
        {
          "internalType": "address",
          "name": "",
          "type": "address"
        }
      ],
      "name": "tokenValueByNonce",
      "outputs": [
        {
          "internalType": "uint256",
          "name": "",
          "type": "uint256"
        }
      ],
      "stateMutability": "view",
      "type": "function"
    },
    {
      "inputs": [
        {
          "internalType": "address",
          "name": "newOwner",
          "type": "address"
        }
      ],
      "name": "transferOwnership",
      "outputs": [],
      "stateMutability": "nonpayable",
      "type": "function"
    },
    {
      "inputs": [],
      "name": "updatePortfolioNonce",
      "outputs": [
        {
          "internalType": "uint256",
          "name": "",
          "type": "uint256"
        }
      ],
      "stateMutability": "view",
      "type": "function"
    },
    {
      "inputs": [
        {
          "internalType": "uint256",
          "name": "",
          "type": "uint256"
        }
      ],
      "name": "updatedTokensValueCount",
      "outputs": [
        {
          "internalType": "uint256",
          "name": "",
          "type": "uint256"
        }
      ],
      "stateMutability": "view",
      "type": "function"
    },
    {
      "inputs": [],
      "name": "weth",
      "outputs": [
        {
          "internalType": "contract IWETH",
          "name": "",
          "type": "address"
        }
      ],
      "stateMutability": "view",
      "type": "function"
    },
    {
      "stateMutability": "payable",
      "type": "receive"
    }
  ],
  "bytecode": {
    "object": "0x608060405234801561001057600080fd5b506156b780620000216000396000f3fe6080604052600436106103025760003560e01c806384d77bb111610190578063b5ed298a116100dc578063cc8659ae11610095578063d1f7a9911161006f578063d1f7a99114610a53578063e7d015f214610a73578063f07bb85514610a93578063f2fde38b14610ac057600080fd5b8063cc8659ae146109e6578063cf9ee31914610a06578063d153b60c14610a3357600080fd5b8063b5ed298a14610903578063bcab90b314610923578063bf938db814610943578063c070a09714610963578063c086381e14610990578063c3a755b4146109b057600080fd5b80639ad1c35611610149578063a3d0ac7811610123578063a3d0ac781461085c578063a8509fd814610892578063b0f479a1146108a7578063b316e7fd146108cb57600080fd5b80639ad1c356146108065780639cf54521146108195780639dbb9c9e1461084657600080fd5b806384d77bb11461072557806385572ffb1461073b5780638da5cb5b1461075b5780639121c7171461077957806394037369146107a6578063978bbdb9146107d357600080fd5b80633d54cb6f1161024f5780635177942a1161020857806372bc260c116101e257806372bc260c146106575780637d253aff146106845780637d3546f7146106a457806381b15279146106d157600080fd5b80635177942a146105ed5780635b6a03511461060d578063715018a61461064257600080fd5b80633d54cb6f146104e25780633fc8cef31461051a5780633fef75451461054157806341d1181714610577578063487843031461058a5780634c776de7146105b757600080fd5b806316b487ff116102bc578063306b3a2811610296578063306b3a2814610460578063326f6fb21461048d578063340fbc74146104ad5780633c8da588146104cd57600080fd5b806316b487ff146103fe57806317d88f461461042057806319da7e2a1461044057600080fd5b80623cf4021461030e578063011ced5f1461033757806301ffc9a71461034d5780630603fb051461037d57806309445ad4146103cb57806313cb1f83146103de57600080fd5b3661030957005b600080fd5b34801561031a57600080fd5b50610324609f5481565b6040519081526020015b60405180910390f35b34801561034357600080fd5b50610324609b5481565b34801561035957600080fd5b5061036d610368366004614dc6565b610ae0565b604051901515815260200161032e565b34801561038957600080fd5b506103b3610398366004614e2a565b60ab602052600090815260409020546001600160a01b031681565b6040516001600160a01b03909116815260200161032e565b6103246103d9366004614f53565b610b17565b3480156103ea57600080fd5b506103246103f9366004614c9a565b610fd2565b34801561040a57600080fd5b5061041e610419366004614fcc565b611067565b005b34801561042c57600080fd5b5061032461043b366004614c3f565b6112a4565b34801561044c57600080fd5b506103b361045b366004614f92565b6113d8565b34801561046c57600080fd5b5061032461047b366004614e2a565b60aa6020526000908152604090205481565b34801561049957600080fd5b506103246104a8366004614f92565b61145e565b3480156104b957600080fd5b506103b36104c8366004614f92565b6114ff565b3480156104d957600080fd5b50610324611539565b3480156104ee57600080fd5b50609c54610502906001600160401b031681565b6040516001600160401b03909116815260200161032e565b34801561052657600080fd5b50609c546103b390600160401b90046001600160a01b031681565b34801561054d57600080fd5b506103b361055c366004614e2a565b60a5602052600090815260409020546001600160a01b031681565b61041e610585366004614f31565b6115bb565b34801561059657600080fd5b506103246105a5366004614e2a565b60a46020526000908152604090205481565b3480156105c357600080fd5b506103b36105d2366004614e2a565b60ae602052600090815260409020546001600160a01b031681565b3480156105f957600080fd5b5061041e6106083660046150aa565b6117c6565b34801561061957600080fd5b5060995461062f90600160a01b900461ffff1681565b60405161ffff909116815260200161032e565b34801561064e57600080fd5b5061041e611910565b34801561066357600080fd5b50610324610672366004614e2a565b60ac6020526000908152604090205481565b34801561069057600080fd5b506099546103b3906001600160a01b031681565b3480156106b057600080fd5b506103246106bf366004614e2a565b60a66020526000908152604090205481565b3480156106dd57600080fd5b506107106106ec366004614e43565b60a06020908152600092835260408084209091529082529020805460019091015482565b6040805192835260208301919091520161032e565b34801561073157600080fd5b50610324609e5481565b34801561074757600080fd5b5061041e610756366004614df0565b611924565b34801561076757600080fd5b506033546001600160a01b03166103b3565b34801561078557600080fd5b50610324610794366004614e2a565b60a96020526000908152604090205481565b3480156107b257600080fd5b506103246107c1366004614e2a565b60a16020526000908152604090205481565b3480156107df57600080fd5b50609a546107f490600160a01b900460ff1681565b60405160ff909116815260200161032e565b61041e610814366004614ce0565b61196b565b34801561082557600080fd5b50610324610834366004614e2a565b60af6020526000908152604090205481565b34801561085257600080fd5b50610324609d5481565b34801561086857600080fd5b506103b3610877366004614e2a565b60a2602052600090815260409020546001600160a01b031681565b34801561089e57600080fd5b50610324611b87565b3480156108b357600080fd5b506000546201000090046001600160a01b03166103b3565b3480156108d757600080fd5b506103246108e6366004614e43565b60a860209081526000928352604080842090915290825290205481565b34801561090f57600080fd5b5061041e61091e366004614b94565b611fa0565b34801561092f57600080fd5b5061032461093e36600461503d565b611ff0565b34801561094f57600080fd5b5061032461095e366004614bce565b6122da565b34801561096f57600080fd5b5061032461097e366004614e2a565b60a76020526000908152604090205481565b34801561099c57600080fd5b506103246109ab366004614e2a565b61237b565b3480156109bc57600080fd5b506103b36109cb366004614e2a565b60b0602052600090815260409020546001600160a01b031681565b3480156109f257600080fd5b5061041e610a01366004614b94565b6123a2565b348015610a1257600080fd5b50610324610a21366004614e2a565b60ad6020526000908152604090205481565b348015610a3f57600080fd5b506065546103b3906001600160a01b031681565b348015610a5f57600080fd5b506098546103b3906001600160a01b031681565b348015610a7f57600080fd5b50609a546103b3906001600160a01b031681565b348015610a9f57600080fd5b50610324610aae366004614e2a565b60a36020526000908152604090205481565b348015610acc57600080fd5b5061041e610adb366004614b94565b6123cc565b60006001600160e01b031982166385572ffb60e01b1480610b1157506001600160e01b031982166301ffc9a760e01b145b92915050565b600083341015610b6e5760405162461bcd60e51b815260206004820152601a60248201527f6c6f776572207468616e20726571756972656420616d6f756e7400000000000060448201526064015b60405180910390fd5b609a54604080516318160ddd60e01b815290516000926001600160a01b0316916318160ddd916004808301926020929190829003018186803b158015610bb357600080fd5b505afa158015610bc7573d6000803e3d6000fd5b505050506040513d601f19601f82011682018060405250810190610beb9190614dad565b610bfd87670de0b6b3a7640000615502565b610c0791906154e0565b90506001609e6000828254610c1c91906154c8565b9091555050609e8054600090815260a5602090815260408083208054336001600160a01b031991821681179092558554855260ab8452828520805482166001600160a01b038c81169182179092558754875260ac86528487208b90558754875260af86528487208e90559654865260b0909452938290208054909416909417909255609a549151632770a7eb60e21b81526004810193909352602483018990521690639dc29fac90604401600060405180830381600087803b158015610ce157600080fd5b505af1158015610cf5573d6000803e3d6000fd5b505050506000609860009054906101000a90046001600160a01b03166001600160a01b03166369487b1c6040518163ffffffff1660e01b815260040160206040518083038186803b158015610d4957600080fd5b505afa158015610d5d573d6000803e3d6000fd5b505050506040513d601f19601f82011682018060405250810190610d819190614dad565b90506000609860009054906101000a90046001600160a01b03166001600160a01b031663b90b8a2a6040518163ffffffff1660e01b815260040160206040518083038186803b158015610dd357600080fd5b505afa158015610de7573d6000803e3d6000fd5b505050506040513d601f19601f82011682018060405250810190610e0b9190614dad565b905060005b82811015610f7457609854604051636dab0c9160e11b815260048101849052602481018390526000916001600160a01b03169063db5619229060440160206040518083038186803b158015610e6457600080fd5b505afa158015610e78573d6000803e3d6000fd5b505050506040513d601f19601f82011682018060405250810190610e9c9190614faf565b609854604051637e34c5a560e11b81526001600160401b03831660048201529192506000916001600160a01b039091169063fc698b4a9060240160206040518083038186803b158015610eee57600080fd5b505afa158015610f02573d6000803e3d6000fd5b505050506040513d601f19601f82011682018060405250810190610f269190614dad565b609c549091506001600160401b0383811691161415610f5157610f4c86609e54836124f1565b610f5f565b610f5f86609e54838561283a565b50508080610f6c906155e4565b915050610e10565b50609e54600081815260aa60205260408082205490513393927f4f9e9bfb3670784096375593cb821e86bd88b1fcb08efc38330012d8c33c3e3691610fbf918c918f919042906151b7565b60405180910390a4505050949350505050565b6098546040516313cb1f8360e01b815260009182916001600160a01b03909116906313cb1f839061100d90899089908990899060040161518e565b60206040518083038186803b15801561102557600080fd5b505afa158015611039573d6000803e3d6000fd5b505050506040513d601f19601f8201168201806040525081019061105d9190614dad565b9695505050505050565b600054610100900460ff16158080156110875750600054600160ff909116105b806110a15750303b1580156110a1575060005460ff166001145b6111045760405162461bcd60e51b815260206004820152602e60248201527f496e697469616c697a61626c653a20636f6e747261637420697320616c72656160448201526d191e481a5b9a5d1a585b1a5e995960921b6064820152608401610b65565b6000805460ff191660011790558015611127576000805461ff0019166101001790555b61113083612aab565b611138612b26565b609c805467ffffffffffffffff19166001600160401b038816179055609a80546001600160a01b0319166001600160a01b0387811691909117909155609980548683166001600160b01b03199091168117600560a01b1790915560005460405163095ea7b360e01b815262010000909104909216600483015260001960248301529063095ea7b390604401602060405180830381600087803b1580156111dd57600080fd5b505af11580156111f1573d6000803e3d6000fd5b505050506040513d601f19601f820116820180604052508101906112159190614d8b565b50609c805468010000000000000000600160e01b031916600160401b6001600160a01b03851602179055609a805460ff60a01b1916600560a11b17905542609b55801561129c576000805461ff0019169055604051600181527f7f26b83ff96e1f2b6a682f133852f6798a09c465da95921460cefb38474024989060200160405180910390a15b505050505050565b60985460405163a9059cbb60e01b81526001600160a01b0391821660048201526024810185905260009187169063a9059cbb90604401602060405180830381600087803b1580156112f457600080fd5b505af1158015611308573d6000803e3d6000fd5b505050506040513d601f19601f8201168201806040525081019061132c9190614d8b565b50609854604051630bec47a360e11b81526001600160a01b03888116600483015287811660248301526044820187905285811660648301526084820185905260009216906317d88f469060a401602060405180830381600087803b15801561139357600080fd5b505af11580156113a7573d6000803e3d6000fd5b505050506040513d601f19601f820116820180604052508101906113cb9190614dad565b9150505b95945050505050565b609854604051630ced3f1560e11b81526001600160401b03831660048201526000916001600160a01b0316906319da7e2a906024015b60206040518083038186803b15801561142657600080fd5b505afa15801561143a573d6000803e3d6000fd5b505050506040513d601f19601f82011682018060405250810190610b119190614bb1565b60008061146a836113d8565b609854604051630174cbe560e41b81526001600160401b03861660048201526001600160a01b03808416602483015292935091169063174cbe509060440160206040518083038186803b1580156114c057600080fd5b505afa1580156114d4573d6000803e3d6000fd5b505050506040513d601f19601f820116820180604052508101906114f89190614dad565b9392505050565b609854604051630d03ef1d60e21b81526001600160401b03831660048201526000916001600160a01b03169063340fbc749060240161140e565b60985460408051630791b4b160e31b815290516000926001600160a01b031691633c8da588916004808301926020929190829003018186803b15801561157e57600080fd5b505afa158015611592573d6000803e3d6000fd5b505050506040513d601f19601f820116820180604052508101906115b69190614dad565b905090565b609a54600090612710906115d990600160a01b900460ff1685615502565b6115e391906154e0565b90506000826115f283866154c8565b6115fc91906154c8565b90508034101561164e5760405162461bcd60e51b815260206004820152601a60248201527f6c6f776572207468616e20726571756972656420616d6f756e740000000000006044820152606401610b65565b60006116626033546001600160a01b031690565b6001600160a01b03168360405160006040518083038185875af1925050503d80600081146116ac576040519150601f19603f3d011682016040523d82523d6000602084013e6116b1565b606091505b50509050806116d25760405162461bcd60e51b8152600401610b6590615273565b609c54600160401b90046001600160a01b031663d0e30db06116f486886154c8565b6040518263ffffffff1660e01b81526004016000604051808303818588803b15801561171f57600080fd5b505af1158015611733573d6000803e3d6000fd5b5050609d8054935091506000905061174a836155e4565b9091555050609d8054600090815260a2602090815260408083208054336001600160a01b0319918216179091558454845260ad83528184208a9055609c80549554855260ae909352922080546001600160a01b03600160401b95869004811691909416179055546117bf929004168686612b55565b5050505050565b6117ce612ef4565b6000609b54426117de9190615521565b9050600c603c6117ee81846154e0565b6117f891906154e0565b1161186b5760405162461bcd60e51b815260206004820152603960248201527f596f752073686f756c642077616974206174206c6561737420313220686f757260448201527f7320616674657220746865206c617465737420757064617465000000000000006064820152608401610b65565b60648260ff1611158015611883575060018260ff1610155b6118eb5760405162461bcd60e51b815260206004820152603360248201527f546865206e65774665652073686f756c64206265206265747765656e203120616044820152726e64203130302028302e303125202d2031252960681b6064820152608401610b65565b50609a805460ff909216600160a01b0260ff60a01b1990921691909117905542609b55565b611918612ef4565b6119226000612f4e565b565b6000546201000090046001600160a01b03163314611957576040516335fdcccd60e21b8152336004820152602401610b65565b61196861196382615538565b612fa0565b50565b609a546000906127109061198990600160a01b900460ff1686615502565b61199391906154e0565b90506000836119a283876154c8565b6119ac91906154c8565b609a546040516323b872dd60e01b81523360048201526001600160a01b039182166024820152604481018890529192508716906323b872dd90606401602060405180830381600087803b158015611a0257600080fd5b505af1158015611a16573d6000803e3d6000fd5b505050506040513d601f19601f82011682018060405250810190611a3a9190614d8b565b50856001600160a01b03166323b872dd33611a5d6033546001600160a01b031690565b6040516001600160e01b031960e085901b1681526001600160a01b0392831660048201529116602482015260448101859052606401602060405180830381600087803b158015611aac57600080fd5b505af1158015611ac0573d6000803e3d6000fd5b505050506040513d601f19601f82011682018060405250810190611ae49190614d8b565b506000611b0987609c60089054906101000a90046001600160a01b03168830886130bd565b609d80549192506000611b1b836155e4565b9091555050609d8054600090815260a2602090815260408083208054336001600160a01b0319918216179091558454845260ad83528184208b90559354835260ae909152902080549091166001600160a01b038916179055611b7e878287612b55565b50505050505050565b6000806000609860009054906101000a90046001600160a01b03166001600160a01b03166353fd43326040518163ffffffff1660e01b815260040160206040518083038186803b158015611bda57600080fd5b505afa158015611bee573d6000803e3d6000fd5b505050506040513d601f19601f82011682018060405250810190611c129190614dad565b905060005b81811015611f985760985460405163264cae9360e21b8152600481018390526000916001600160a01b031690639932ba4c9060240160206040518083038186803b158015611c6457600080fd5b505afa158015611c78573d6000803e3d6000fd5b505050506040513d601f19601f82011682018060405250810190611c9c9190614bb1565b609854604051633aa3b3c160e21b81526001600160a01b0380841660048301529293506000929091169063ea8ecf049060240160206040518083038186803b158015611ce757600080fd5b505afa158015611cfb573d6000803e3d6000fd5b505050506040513d601f19601f82011682018060405250810190611d1f9190614faf565b60985460405163d90bc21160e01b81526001600160a01b0385811660048301529293506000929091169063d90bc2119060240160206040518083038186803b158015611d6a57600080fd5b505afa158015611d7e573d6000803e3d6000fd5b505050506040513d601f19601f82011682018060405250810190611da29190614dad565b609c549091506001600160401b0383811691161415611f8257609c546001600160a01b03848116600160401b909204161415611e6657609a546040516370a0823160e01b81526001600160a01b039182166004820152908416906370a082319060240160206040518083038186803b158015611e1d57600080fd5b505afa158015611e31573d6000803e3d6000fd5b505050506040513d601f19601f82011682018060405250810190611e559190614dad565b611e5f90876154c8565b9550611f82565b609854609c54609a546040516370a0823160e01b81526001600160a01b0391821660048201526000938216926313cb1f83928892600160401b909204811691908316906370a082319060240160206040518083038186803b158015611eca57600080fd5b505afa158015611ede573d6000803e3d6000fd5b505050506040513d601f19601f82011682018060405250810190611f029190614dad565b866040518563ffffffff1660e01b8152600401611f22949392919061518e565b60206040518083038186803b158015611f3a57600080fd5b505afa158015611f4e573d6000803e3d6000fd5b505050506040513d601f19601f82011682018060405250810190611f729190614dad565b9050611f7e81886154c8565b9650505b5050508080611f90906155e4565b915050611c17565b509092915050565b611fa8612ef4565b6001600160a01b038116611fce5760405162461bcd60e51b8152600401610b65906152b7565b606580546001600160a01b0319166001600160a01b0392909216919091179055565b6040805160a081019091526001600160a01b03841660c082015260009081908060e0810160408051808303601f19018152918152908252602080830188905281516000808252918101835292909101919061206d565b60408051808201909152600080825260208201528152602001906001900390816120465790505b508152602001600185600181111561208757612087615615565b146120935760006120a0565b6099546001600160a01b03165b6001600160a01b031681526020016120d16040518060400160405280620dbba081526020016000151581525061320c565b9052600080546040516320487ded60e01b81529293509091620100009091046001600160a01b0316906320487ded90612110908a908690600401615352565b60206040518083038186803b15801561212857600080fd5b505afa15801561213c573d6000803e3d6000fd5b505050506040513d601f19601f820116820180604052508101906121609190614dad565b90506000600185600181111561217857612178615615565b141561220e576000546040516396f4e9f960e01b8152620100009091046001600160a01b0316906396f4e9f9906121b5908b908790600401615352565b602060405180830381600087803b1580156121cf57600080fd5b505af11580156121e3573d6000803e3d6000fd5b505050506040513d601f19601f820116820180604052508101906122079190614dad565b905061229c565b6000546040516396f4e9f960e01b8152620100009091046001600160a01b0316906396f4e9f9908490612247908c908890600401615352565b6020604051808303818588803b15801561226057600080fd5b505af1158015612274573d6000803e3d6000fd5b50505050506040513d601f19601f820116820180604052508101906122999190614dad565b90505b6040518181527f54791b38f3859327992a1ca0590ad3c0f08feba98d1a4f56ab0dca74d203392a9060200160405180910390a1979650505050505050565b6098546040516317f271b760e31b81526001600160a01b03868116600483015285811660248301526001600160801b038516604483015263ffffffff84166064830152600092169063bf938db89060840160206040518083038186803b15801561234357600080fd5b505afa158015612357573d6000803e3d6000fd5b505050506040513d601f19601f820116820180604052508101906113cf9190614dad565b6000670de0b6b3a764000061238e611539565b6123989084615502565b610b1191906154e0565b6123aa612ef4565b609880546001600160a01b0319166001600160a01b0392909216919091179055565b6001600160a01b0381166123f25760405162461bcd60e51b8152600401610b65906152b7565b6065546001600160a01b0382811691161461246a5760405162461bcd60e51b815260206004820152603260248201527f50726f706f7361626c654f776e61626c653a206e6577206f776e6572206973206044820152713737ba10383937b837b9b2b21037bbb732b960711b6064820152608401610b65565b6001600160a01b03811633146124e85760405162461bcd60e51b815260206004820152603a60248201527f50726f706f7361626c654f776e61626c653a20746869732063616c6c206d757360448201527f74206265206d61646520627920746865206e6577206f776e65720000000000006064820152608401610b65565b61196881612f4e565b60005b818110156128345760985460405163264cae9360e21b8152600481018390526000916001600160a01b031690639932ba4c9060240160206040518083038186803b15801561254157600080fd5b505afa158015612555573d6000803e3d6000fd5b505050506040513d601f19601f820116820180604052508101906125799190614bb1565b60985460405163d90bc21160e01b81526001600160a01b0380841660048301529293506000929091169063d90bc2119060240160206040518083038186803b1580156125c457600080fd5b505afa1580156125d8573d6000803e3d6000fd5b505050506040513d601f19601f820116820180604052508101906125fc9190614dad565b609854604051630be5271360e01b81526001600160a01b03858116600483015292935060009290911690630be527139060240160206040518083038186803b15801561264757600080fd5b505afa15801561265b573d6000803e3d6000fd5b505050506040513d601f19601f8201168201806040525081019061267f9190614dad565b609a546040516370a0823160e01b81526001600160a01b039182166004820152919250600091670de0b6b3a7640000918616906370a082319060240160206040518083038186803b1580156126d357600080fd5b505afa1580156126e7573d6000803e3d6000fd5b505050506040513d601f19601f8201168201806040525081019061270b9190614dad565b612715908a615502565b61271f91906154e0565b609c549091506000906001600160a01b03868116600160401b9092041614156127af57609a546040516377524af960e01b81526001600160a01b039091166004820181905260248201849052906377524af990604401600060405180830381600087803b15801561278f57600080fd5b505af11580156127a3573d6000803e3d6000fd5b505050508190506127d3565b609c546127d0908690600160401b90046001600160a01b03168430886130bd565b90505b600088815260a36020526040812080548392906127f19084906154c8565b9091555050600088815260a4602052604081208054600192906128159084906154c8565b925050819055505050505050808061282c906155e4565b9150506124f4565b50505050565b6000612845826114ff565b60985460405163d1c68aa360e01b81526001600160401b03851660048201529192506000916001600160a01b039091169063d1c68aa39060240160006040518083038186803b15801561289757600080fd5b505afa1580156128ab573d6000803e3d6000fd5b505050506040513d6000823e601f3d908101601f191682016040526128d39190810190614d1b565b60985460405163221f337160e01b81526001600160401b03861660048201529192506000916001600160a01b039091169063221f33719060240160006040518083038186803b15801561292557600080fd5b505afa158015612939573d6000803e3d6000fd5b505050506040513d6000823e601f3d908101601f191682016040526129619190810190614d57565b609854604051632bda5acd60e21b81526001600160401b03871660048201529192506000916001600160a01b039091169063af696b349060240160006040518083038186803b1580156129b357600080fd5b505afa1580156129c7573d6000803e3d6000fd5b505050506040513d6000823e601f3d908101601f191682016040526129ef9190810190614d57565b6040805160008082526020808301828152600184860181815260808601909652959650929492939192906060860190803683370190505090508a81600081518110612a3c57612a3c61562b565b60200260200101818152505060006001878588868f8a88604051602001612a6a9897969594939291906151dd565b60405160208183030381529060405290506000612a8a8a8a846001611ff0565b60009c8d5260aa6020526040909c209b909b55505050505050505050505050565b600054610100900460ff16612ad25760405162461bcd60e51b8152600401610b6590615307565b6001600160a01b038116612afc576040516335fdcccd60e21b815260006004820152602401610b65565b600080546001600160a01b03909216620100000262010000600160b01b0319909216919091179055565b600054610100900460ff16612b4d5760405162461bcd60e51b8152600401610b6590615307565b611922613256565b609c54609a5460405163a9059cbb60e01b81526001600160a01b03918216600482015260248101859052600160401b909204169063a9059cbb90604401602060405180830381600087803b158015612bac57600080fd5b505af1158015612bc0573d6000803e3d6000fd5b505050506040513d601f19601f82011682018060405250810190612be49190614d8b565b508015612c1857609c54609954600091612c15916001600160a01b03600160401b90920482169116843060036112a4565b50505b60985460408051631a521ec760e21b8152905184926000926001600160a01b03909116916369487b1c91600480820192602092909190829003018186803b158015612c6257600080fd5b505afa158015612c76573d6000803e3d6000fd5b505050506040513d601f19601f82011682018060405250810190612c9a9190614dad565b90506000609860009054906101000a90046001600160a01b03166001600160a01b031663b90b8a2a6040518163ffffffff1660e01b815260040160206040518083038186803b158015612cec57600080fd5b505afa158015612d00573d6000803e3d6000fd5b505050506040513d601f19601f82011682018060405250810190612d249190614dad565b905060005b82811015612e9057609854604051636dab0c9160e11b815260048101849052602481018390526000916001600160a01b03169063db5619229060440160206040518083038186803b158015612d7d57600080fd5b505afa158015612d91573d6000803e3d6000fd5b505050506040513d601f19601f82011682018060405250810190612db59190614faf565b609854604051637e34c5a560e11b81526001600160401b03831660048201529192506000916001600160a01b039091169063fc698b4a9060240160206040518083038186803b158015612e0757600080fd5b505afa158015612e1b573d6000803e3d6000fd5b505050506040513d601f19601f82011682018060405250810190612e3f9190614dad565b609c549091506001600160401b0383811691161415612e6c57612e6786609d54838588613286565b612e7b565b612e7b86609d548385886136cd565b50508080612e88906155e4565b915050612d29565b50609d54600081815260a9602090815260408083205460ad9092528083205490513394937f497983feda2f53898206317c0b392bffd918715fad18aaedf4ac296f7ec6bf3d92612ee4928d929042906151b7565b60405180910390a4505050505050565b6033546001600160a01b031633146119225760405162461bcd60e51b815260206004820181905260248201527f4f776e61626c653a2063616c6c6572206973206e6f7420746865206f776e65726044820152606401610b65565b603380546001600160a01b038381166001600160a01b0319831681179093556040519116919082907f8be0079c531659141344cd1fd0a4f28419497f9722a3daafe3b4186f6b6457e090600090a35050565b8051602080830151604084015180519192600092612fc49290810182019101614bb1565b90506000609860009054906101000a90046001600160a01b03166001600160a01b03166353fd43326040518163ffffffff1660e01b815260040160206040518083038186803b15801561301657600080fd5b505afa15801561302a573d6000803e3d6000fd5b505050506040513d601f19601f8201168201806040525081019061304e9190614dad565b90506000806000806000808a606001518060200190518101906130719190614e73565b955095509550955095509550856000141561309957613094838684848b8f613b27565b6130b0565b85600114156130b0576130b0838c878a8d8f613c7f565b5050505050505050505050565b6098546040516313cb1f8360e01b815260009182916001600160a01b03909116906313cb1f83906130f8908a908a908a90899060040161518e565b60206040518083038186803b15801561311057600080fd5b505afa158015613124573d6000803e3d6000fd5b505050506040513d601f19601f820116820180604052508101906131489190614dad565b9050600081156131f257609a546040516305f370ed60e41b81526001600160a01b038a8116600483015289811660248301526044820189905287811660648301526084820187905290911690635f370ed09060a401602060405180830381600087803b1580156131b757600080fd5b505af11580156131cb573d6000803e3d6000fd5b505050506040513d601f19601f820116820180604052508101906131ef9190614dad565b90505b83600314156132045791506113cf9050565b5090506113cf565b6040805182516024820152602092830151151560448083019190915282518083039091018152606490910190915290810180516001600160e01b03166397a657c960e01b17905290565b600054610100900460ff1661327d5760405162461bcd60e51b8152600401610b6590615307565b61192233612f4e565b60005b8381101561129c576098546040516309c6d7f360e21b8152600481018490526001600160401b0385166024820152604481018390526000916001600160a01b03169063271b5fcc9060640160206040518083038186803b1580156132ec57600080fd5b505afa158015613300573d6000803e3d6000fd5b505050506040513d601f19601f820116820180604052508101906133249190614bb1565b60985460405163d90bc21160e01b81526001600160a01b0380841660048301529293506000929091169063d90bc2119060240160206040518083038186803b15801561336f57600080fd5b505afa158015613383573d6000803e3d6000fd5b505050506040513d601f19601f820116820180604052508101906133a79190614dad565b609854604051630be5271360e01b81526001600160a01b03858116600483015292935060009290911690630be527139060240160206040518083038186803b1580156133f257600080fd5b505afa158015613406573d6000803e3d6000fd5b505050506040513d601f19601f8201168201806040525081019061342a9190614dad565b609c549091506001600160a01b03848116600160401b9092041614156134f257609a546040516370a0823160e01b81526001600160a01b0391821660048201526134ca918516906370a082319060240160206040518083038186803b15801561349257600080fd5b505afa1580156134a6573d6000803e3d6000fd5b505050506040513d601f19601f820116820180604052508101906109ab9190614dad565b600089815260a0602090815260408083206001600160a01b03881684529091529020556135b1565b609c54609a546040516370a0823160e01b81526001600160a01b03918216600482015261358d926109ab928792600160401b909204811691908316906370a082319060240160206040518083038186803b15801561354f57600080fd5b505afa158015613563573d6000803e3d6000fd5b505050506040513d601f19601f820116820180604052508101906135879190614dad565b86610fd2565b600089815260a0602090815260408083206001600160a01b03881684529091529020555b609c546001600160a01b03848116600160401b9092041614156135d35761361d565b609c5461361b90600160401b90046001600160a01b03168468056bc75e2d631000006135ff858e615502565b61360991906154e0565b609a546001600160a01b0316866130bd565b505b61363e68056bc75e2d63100000613634838c615502565b6109ab91906154e0565b600089815260a0602090815260408083206001600160a01b038816845290915290205461366b91906154c8565b600089815260a0602090815260408083206001600160a01b038816845282528083206001908101949094558b835260a1909152812080549091906136b09084906154c8565b9250508190555050505080806136c5906155e4565b915050613289565b6136ff6040518060a0016040528060608152602001606081526020016060815260200160608152602001606081525090565b60408051600180825281830190925260009160208083019080368337019050506098546040516344fd376f60e01b8152600481018690526001600160401b03871660248201529192506001600160a01b0316906344fd376f9060440160206040518083038186803b15801561377357600080fd5b505afa158015613787573d6000803e3d6000fd5b505050506040513d601f19601f820116820180604052508101906137ab9190614dad565b816000815181106137be576137be61562b565b6020908102919091010152609c5460009061383590600160401b90046001600160a01b03166137ec876113d8565b68056bc75e2d63100000856000815181106138095761380961562b565b60200260200101518c61381c9190615502565b61382691906154e0565b306138308a61145e565b6130bd565b90506000613842866114ff565b60985460405163d1c68aa360e01b81526001600160401b03891660048201529192506001600160a01b03169063d1c68aa39060240160006040518083038186803b15801561388f57600080fd5b505afa1580156138a3573d6000803e3d6000fd5b505050506040513d6000823e601f3d908101601f191682016040526138cb9190810190614d1b565b845260985460405163221f337160e01b81526001600160401b03881660048201526001600160a01b039091169063221f33719060240160006040518083038186803b15801561391957600080fd5b505afa15801561392d573d6000803e3d6000fd5b505050506040513d6000823e601f3d908101601f191682016040526139559190810190614d57565b6020850152609854604051632bda5acd60e21b81526001600160401b03881660048201526001600160a01b039091169063af696b349060240160006040518083038186803b1580156139a657600080fd5b505afa1580156139ba573d6000803e3d6000fd5b505050506040513d6000823e601f3d908101601f191682016040526139e29190810190614d57565b60408581019190915280516000808252602080830184526060880192909252825181815280830184526080880152825160018082528185019094529092909182015b6040805180820190915260008082526020820152815260200190600190039081613a24579050509050613a56876113d8565b81600081518110613a6957613a6961562b565b6020026020010151600001906001600160a01b031690816001600160a01b0316815250508281600081518110613aa157613aa161562b565b6020026020010151602001818152505060008086600001518760600151886020015189608001518e8b604001518b604051602001613ae69897969594939291906151dd565b60405160208183030381529060405290506000613b07898386866001613d61565b60009b8c5260a96020526040909b209a909a555050505050505050505050565b8560005b8651811015613c5e576000868281518110613b4857613b4861562b565b602002602001015190506000868381518110613b6657613b6661562b565b602002602001015190508160a0600086815260200190815260200160002060008b8681518110613b9857613b9861562b565b60200260200101516001600160a01b03166001600160a01b03168152602001908152602001600020600001819055508060a0600086815260200190815260200160002060008b8681518110613bef57613bef61562b565b60200260200101516001600160a01b03166001600160a01b0316815260200190815260200160002060010181905550600160a160008681526020019081526020016000206000828254613c4291906154c8565b9250508190555050508080613c56906155e4565b915050613b2b565b50600081815260a16020526040902054831415611b7e57611b7e81836141cd565b6080850151805187919060009082908290613c9c57613c9c61562b565b6020026020010151600001519050600082600081518110613cbf57613cbf61562b565b60200260200101516020015190506000613cf283609c60089054906101000a90046001600160a01b0316843060036112a4565b90508060a360008781526020019081526020016000206000828254613d1791906154c8565b90915550508851600086815260a4602052604081208054909190613d3c9084906154c8565b9091555050600085815260a460205260409020548814156130b0576130b0858761460b565b815160995460009190600160a01b900461ffff16811115613dea5760405162461bcd60e51b815260206004820152603760248201527f4d6178696d756d203520646966666572656e7420746f6b656e732063616e206260448201527f652073656e74207065722043434950204d6573736167650000000000000000006064820152608401610b65565b60005b81811015613f1f5760995485516001600160a01b0390911690869083908110613e1857613e1861562b565b6020026020010151600001516001600160a01b031614613f1757848181518110613e4457613e4461562b565b6020026020010151600001516001600160a01b031663095ea7b3600060029054906101000a90046001600160a01b0316878481518110613e8657613e8661562b565b6020026020010151602001516040518363ffffffff1660e01b8152600401613ec39291906001600160a01b03929092168252602082015260400190565b602060405180830381600087803b158015613edd57600080fd5b505af1158015613ef1573d6000803e3d6000fd5b505050506040513d601f19601f82011682018060405250810190613f159190614d8b565b505b600101613ded565b506040805160a081019091526001600160a01b03861660c08201526000908060e0810160408051601f19818403018152918152908252602082018a905281018790526060016001866001811115613f7857613f78615615565b14613f84576000613f91565b6099546001600160a01b03165b6001600160a01b03168152602001613fc26040518060400160405280620dbba081526020016000151581525061320c565b9052600080546040516320487ded60e01b81529293509091620100009091046001600160a01b0316906320487ded90614001908c908690600401615352565b60206040518083038186803b15801561401957600080fd5b505afa15801561402d573d6000803e3d6000fd5b505050506040513d601f19601f820116820180604052508101906140519190614dad565b90506000600186600181111561406957614069615615565b14156140ff576000546040516396f4e9f960e01b8152620100009091046001600160a01b0316906396f4e9f9906140a6908d908790600401615352565b602060405180830381600087803b1580156140c057600080fd5b505af11580156140d4573d6000803e3d6000fd5b505050506040513d601f19601f820116820180604052508101906140f89190614dad565b905061418d565b6000546040516396f4e9f960e01b8152620100009091046001600160a01b0316906396f4e9f9908490614138908e908890600401615352565b6020604051808303818588803b15801561415157600080fd5b505af1158015614165573d6000803e3d6000fd5b50505050506040513d601f19601f8201168201806040525081019061418a9190614dad565b90505b6040518181527f54791b38f3859327992a1ca0590ad3c0f08feba98d1a4f56ab0dca74d203392a9060200160405180910390a19998505050505050505050565b6000806000609860009054906101000a90046001600160a01b03166001600160a01b03166353fd43326040518163ffffffff1660e01b815260040160206040518083038186803b15801561422057600080fd5b505afa158015614234573d6000803e3d6000fd5b505050506040513d601f19601f820116820180604052508101906142589190614dad565b905060005b8181101561435b5760985460405163264cae9360e21b8152600481018390526000916001600160a01b031690639932ba4c9060240160206040518083038186803b1580156142aa57600080fd5b505afa1580156142be573d6000803e3d6000fd5b505050506040513d601f19601f820116820180604052508101906142e29190614bb1565b600088815260a0602090815260408083206001600160a01b038516845290915290205490915061431290866154c8565b600088815260a0602090815260408083206001600160a01b038616845290915290206001015490955061434590856154c8565b9350508080614353906155e4565b91505061425d565b50600080609a60009054906101000a90046001600160a01b03166001600160a01b03166318160ddd6040518163ffffffff1660e01b815260040160206040518083038186803b1580156143ad57600080fd5b505afa1580156143c1573d6000803e3d6000fd5b505050506040513d601f19601f820116820180604052508101906143e59190614dad565b111561451e57609a60009054906101000a90046001600160a01b03166001600160a01b03166318160ddd6040518163ffffffff1660e01b815260040160206040518083038186803b15801561443957600080fd5b505afa15801561444d573d6000803e3d6000fd5b505050506040513d601f19601f820116820180604052508101906144719190614dad565b8484609a60009054906101000a90046001600160a01b03166001600160a01b03166318160ddd6040518163ffffffff1660e01b815260040160206040518083038186803b1580156144c157600080fd5b505afa1580156144d5573d6000803e3d6000fd5b505050506040513d601f19601f820116820180604052508101906144f99190614dad565b6145039190615502565b61450d91906154e0565b6145179190615521565b905061452c565b6145296064846154e0565b90505b609a54600087815260a26020526040908190205490516340c10f1960e01b81526001600160a01b039182166004820152602481018490529116906340c10f1990604401600060405180830381600087803b15801561458957600080fd5b505af115801561459d573d6000803e3d6000fd5b505050600087815260a2602090815260408083205460ae83528184205460ad909352928190205490516001600160a01b0393841694508a938a937f4d3128af979c46a863cd489a3d0959d5d22181cdbdb1949b40cadfcdac0a1d3893612ee4939290911691889042906151b7565b600082815260a3602090815260408083205460a583528184205460ab84528285205460ac90945291842054609a5491946001600160a01b0393841694909316929091612710906146669060ff600160a01b9091041687615502565b61467091906154e0565b609c54604051632e1a7d4d60e01b815260048101839052919250600160401b90046001600160a01b031690632e1a7d4d90602401600060405180830381600087803b1580156146be57600080fd5b505af11580156146d2573d6000803e3d6000fd5b5050505060006146ea6033546001600160a01b031690565b6001600160a01b03168260405160006040518083038185875af1925050503d8060008114614734576040519150601f19603f3d011682016040523d82523d6000602084013e614739565b606091505b505090508061475a5760405162461bcd60e51b8152600401610b6590615273565b609c546001600160a01b03858116600160401b90920416141561490a57609c54600160401b90046001600160a01b0316632e1a7d4d6147998489615521565b6040518263ffffffff1660e01b81526004016147b791815260200190565b600060405180830381600087803b1580156147d157600080fd5b505af11580156147e5573d6000803e3d6000fd5b505050506000856001600160a01b031683886148019190615521565b604051600081818185875af1925050503d806000811461483d576040519150601f19603f3d011682016040523d82523d6000602084013e614842565b606091505b505090508061489f5760405162461bcd60e51b8152602060048201526024808201527f7472616e736665722065746820746f20746865207265717565737465722066616044820152631a5b195960e21b6064820152608401610b65565b600089815260af60205260409020546001600160a01b038716908a908a907f476778ca38557db6dc935a57ece5bd93fbaca20183fadf86d7a1d2b85df65e019089906148eb898e615521565b426040516148fc94939291906151b7565b60405180910390a450614996565b609c5460009061493690600160401b90046001600160a01b03168661492f868b615521565b89886112a4565b9050856001600160a01b031689897f476778ca38557db6dc935a57ece5bd93fbaca20183fadf86d7a1d2b85df65e018860af60008f815260200190815260200160002054864260405161498c94939291906151b7565b60405180910390a4505b5050505050505050565b600082601f8301126149b157600080fd5b815160206149c66149c1836154a5565b615475565b80838252828201915082860187848660051b89010111156149e657600080fd5b60005b85811015614a0e5781516149fc81615657565b845292840192908401906001016149e9565b5090979650505050505050565b600082601f830112614a2c57600080fd5b81356020614a3c6149c1836154a5565b80838252828201915082860187848660061b8901011115614a5c57600080fd5b6000805b86811015614aa757604080848c031215614a78578283fd5b614a8061542b565b8435614a8b81615657565b8152848801358882015286529486019490920191600101614a60565b509198975050505050505050565b600082601f830112614ac657600080fd5b81516020614ad66149c1836154a5565b80838252828201915082860187848660051b8901011115614af657600080fd5b60005b85811015614a0e57815184529284019290840190600101614af9565b600082601f830112614b2657600080fd5b81356001600160401b03811115614b3f57614b3f615641565b614b52601f8201601f1916602001615475565b818152846020838601011115614b6757600080fd5b816020850160208301376000918101602001919091529392505050565b8035614b8f8161566c565b919050565b600060208284031215614ba657600080fd5b81356114f881615657565b600060208284031215614bc357600080fd5b81516114f881615657565b60008060008060808587031215614be457600080fd5b8435614bef81615657565b93506020850135614bff81615657565b925060408501356001600160801b0381168114614c1b57600080fd5b9150606085013563ffffffff81168114614c3457600080fd5b939692955090935050565b600080600080600060a08688031215614c5757600080fd5b8535614c6281615657565b94506020860135614c7281615657565b9350604086013592506060860135614c8981615657565b949793965091946080013592915050565b60008060008060808587031215614cb057600080fd5b8435614cbb81615657565b93506020850135614ccb81615657565b93969395505050506040820135916060013590565b60008060008060808587031215614cf657600080fd5b8435614d0181615657565b966020860135965060408601359560600135945092505050565b600060208284031215614d2d57600080fd5b81516001600160401b03811115614d4357600080fd5b614d4f848285016149a0565b949350505050565b600060208284031215614d6957600080fd5b81516001600160401b03811115614d7f57600080fd5b614d4f84828501614ab5565b600060208284031215614d9d57600080fd5b815180151581146114f857600080fd5b600060208284031215614dbf57600080fd5b5051919050565b600060208284031215614dd857600080fd5b81356001600160e01b0319811681146114f857600080fd5b600060208284031215614e0257600080fd5b81356001600160401b03811115614e1857600080fd5b820160a081850312156114f857600080fd5b600060208284031215614e3c57600080fd5b5035919050565b60008060408385031215614e5657600080fd5b823591506020830135614e6881615657565b809150509250929050565b60008060008060008060c08789031215614e8c57600080fd5b8651955060208701516001600160401b0380821115614eaa57600080fd5b614eb68a838b016149a0565b96506040890151915080821115614ecc57600080fd5b614ed88a838b016149a0565b9550606089015194506080890151915080821115614ef557600080fd5b614f018a838b01614ab5565b935060a0890151915080821115614f1757600080fd5b50614f2489828a01614ab5565b9150509295509295509295565b60008060408385031215614f4457600080fd5b50508035926020909101359150565b60008060008060808587031215614f6957600080fd5b84359350602085013592506040850135614f8281615657565b9396929550929360600135925050565b600060208284031215614fa457600080fd5b81356114f88161566c565b600060208284031215614fc157600080fd5b81516114f88161566c565b600080600080600060a08688031215614fe457600080fd5b8535614fef8161566c565b94506020860135614fff81615657565b9350604086013561500f81615657565b9250606086013561501f81615657565b9150608086013561502f81615657565b809150509295509295909350565b6000806000806080858703121561505357600080fd5b843561505e8161566c565b9350602085013561506e81615657565b925060408501356001600160401b0381111561508957600080fd5b61509587828801614b15565b925050606085013560028110614c3457600080fd5b6000602082840312156150bc57600080fd5b813560ff811681146114f857600080fd5b600081518084526020808501945080840160005b838110156151065781516001600160a01b0316875295820195908201906001016150e1565b509495945050505050565b600081518084526020808501945080840160005b8381101561510657815187529582019590820190600101615125565b6000815180845260005b818110156151675760208185018101518683018201520161514b565b81811115615179576000602083870101525b50601f01601f19169290920160200192915050565b6001600160a01b0394851681529290931660208301526040820152606081019190915260800190565b6001600160a01b0394909416845260208401929092526040830152606082015260800190565b600061010060ff8b1683528060208401526151fa8184018b6150cd565b9050828103604084015261520e818a6150cd565b905082810360608401526152228189615111565b905082810360808401526152368188615111565b90508560a084015282810360c08401526152508186615111565b905082810360e08401526152648185615111565b9b9a5050505050505050505050565b60208082526024908201527f7472616e73666572206574682066656520746f20746865206f776e65722066616040820152631a5b195960e21b606082015260800190565b60208082526030908201527f50726f706f7361626c654f776e61626c653a206e6577206f776e65722069732060408201526f746865207a65726f206164647265737360801b606082015260800190565b6020808252602b908201527f496e697469616c697a61626c653a20636f6e7472616374206973206e6f74206960408201526a6e697469616c697a696e6760a81b606082015260800190565b600060406001600160401b038516835260208181850152845160a08386015261537e60e0860182615141565b905081860151603f198087840301606088015261539b8383615141565b88860151888203830160808a01528051808352908601945060009350908501905b808410156153ee57845180516001600160a01b03168352860151868301529385019360019390930192908601906153bc565b5060608901516001600160a01b031660a08901526080890151888203830160c08a0152955061541d8187615141565b9a9950505050505050505050565b604080519081016001600160401b038111828210171561544d5761544d615641565b60405290565b60405160a081016001600160401b038111828210171561544d5761544d615641565b604051601f8201601f191681016001600160401b038111828210171561549d5761549d615641565b604052919050565b60006001600160401b038211156154be576154be615641565b5060051b60200190565b600082198211156154db576154db6155ff565b500190565b6000826154fd57634e487b7160e01b600052601260045260246000fd5b500490565b600081600019048311821515161561551c5761551c6155ff565b500290565b600082821015615533576155336155ff565b500390565b600060a0823603121561554a57600080fd5b615552615453565b8235815261556260208401614b84565b602082015260408301356001600160401b038082111561558157600080fd5b61558d36838701614b15565b604084015260608501359150808211156155a657600080fd5b6155b236838701614b15565b606084015260808501359150808211156155cb57600080fd5b506155d836828601614a1b565b60808301525092915050565b60006000198214156155f8576155f86155ff565b5060010190565b634e487b7160e01b600052601160045260246000fd5b634e487b7160e01b600052602160045260246000fd5b634e487b7160e01b600052603260045260246000fd5b634e487b7160e01b600052604160045260246000fd5b6001600160a01b038116811461196857600080fd5b6001600160401b038116811461196857600080fdfea26469706673582212209f88de4f225cc1f07b74b7284f558a300089b26b15094f768a3cbeb66807ec4264736f6c63430008070033",
    "linkReferences": {}
  },
  "methodIdentifiers": {
    "ccipReceive((bytes32,uint64,bytes,bytes,(address,uint256)[]))": "85572ffb",
    "convertEthToUsd(uint256)": "c086381e",
    "crossChainFactoryBySelector(uint64)": "340fbc74",
    "crossChainToken(uint64)": "19da7e2a",
    "crossChainTokenSwapVersion(uint64)": "326f6fb2",
    "currentChainSelector()": "3d54cb6f",
    "estimateAmountOut(address,address,uint128,uint32)": "bf938db8",
    "feeRate()": "978bbdb9",
    "getAmountOut(address,address,uint256,uint256)": "13cb1f83",
    "getPortfolioBalance()": "a8509fd8",
    "getRouter()": "b0f479a1",
    "i_link()": "7d253aff",
    "i_maxTokensLength()": "5b6a0351",
    "indexFactoryStorage()": "d1f7a991",
    "indexToken()": "e7d015f2",
    "initialize(uint64,address,address,address,address)": "16b487ff",
    "issuanceCompletedTokensCount(uint256)": "94037369",
    "issuanceIndexTokens(address,uint256,uint256,uint256)": "9ad1c356",
    "issuanceIndexTokensWithEth(uint256,uint256)": "41d11817",
    "issuanceInputAmount(uint256)": "cf9ee319",
    "issuanceInputToken(uint256)": "4c776de7",
    "issuanceMessageIdByNonce(uint256)": "9121c717",
    "issuanceNonce()": "9dbb9c9e",
    "issuanceNonceRequester(uint256)": "a3d0ac78",
    "issuanceTokenOldAndNewValues(uint256,address)": "81b15279",
    "latestFeeUpdate()": "011ced5f",
    "owner()": "8da5cb5b",
    "portfolioTotalValueByNonce(uint256)": "7d3546f7",
    "priceInWei()": "3c8da588",
    "proposeOwner(address)": "b5ed298a",
    "proposedOwner()": "d153b60c",
    "redemption(uint256,uint256,address,uint256)": "09445ad4",
    "redemptionCompletedTokensCount(uint256)": "48784303",
    "redemptionInputAmount(uint256)": "9cf54521",
    "redemptionMessageIdByNonce(uint256)": "306b3a28",
    "redemptionNonce()": "84d77bb1",
    "redemptionNonceOutputToken(uint256)": "0603fb05",
    "redemptionNonceOutputTokenSwapVersion(uint256)": "72bc260c",
    "redemptionNonceRequester(uint256)": "3fef7545",
    "redemptionNonceTotalValue(uint256)": "f07bb855",
    "redemptionOutputToken(uint256)": "c3a755b4",
    "renounceOwnership()": "715018a6",
    "sendMessage(uint64,address,bytes,uint8)": "bcab90b3",
    "setFeeRate(uint8)": "5177942a",
    "setIndexFactoryStorage(address)": "cc8659ae",
    "supportsInterface(bytes4)": "01ffc9a7",
    "swap(address,address,uint256,address,uint256)": "17d88f46",
    "tokenValueByNonce(uint256,address)": "b316e7fd",
    "transferOwnership(address)": "f2fde38b",
    "updatePortfolioNonce()": "003cf402",
    "updatedTokensValueCount(uint256)": "c070a097",
    "weth()": "3fc8cef3"
  },
  "id": 3
}