{"abi":[{"type":"receive","stateMutability":"payable"},{"type":"function","name":"MAX_FEE_RATE","inputs":[],"outputs":[{"name":"","type":"uint8","internalType":"uint8"}],"stateMutability":"view"},{"type":"function","name":"MAX_TOKENS_LENGTH","inputs":[],"outputs":[{"name":"","type":"uint16","internalType":"uint16"}],"stateMutability":"view"},{"type":"function","name":"MIN_FEE_RATE","inputs":[],"outputs":[{"name":"","type":"uint8","internalType":"uint8"}],"stateMutability":"view"},{"type":"function","name":"MIN_FEE_UPDATE_INTERVAL","inputs":[],"outputs":[{"name":"","type":"uint256","internalType":"uint256"}],"stateMutability":"view"},{"type":"function","name":"ccipReceive","inputs":[{"name":"message","type":"tuple","internalType":"struct Client.Any2EVMMessage","components":[{"name":"messageId","type":"bytes32","internalType":"bytes32"},{"name":"sourceChainSelector","type":"uint64","internalType":"uint64"},{"name":"sender","type":"bytes","internalType":"bytes"},{"name":"data","type":"bytes","internalType":"bytes"},{"name":"destTokenAmounts","type":"tuple[]","internalType":"struct Client.EVMTokenAmount[]","components":[{"name":"token","type":"address","internalType":"address"},{"name":"amount","type":"uint256","internalType":"uint256"}]}]}],"outputs":[],"stateMutability":"nonpayable"},{"type":"function","name":"convertEthToUsd","inputs":[{"name":"_ethAmount","type":"uint256","internalType":"uint256"}],"outputs":[{"name":"","type":"uint256","internalType":"uint256"}],"stateMutability":"view"},{"type":"function","name":"crossChainFactoryBySelector","inputs":[{"name":"_chainSelector","type":"uint64","internalType":"uint64"}],"outputs":[{"name":"","type":"address","internalType":"address"}],"stateMutability":"view"},{"type":"function","name":"crossChainToken","inputs":[{"name":"_chainSelector","type":"uint64","internalType":"uint64"}],"outputs":[{"name":"","type":"address","internalType":"address"}],"stateMutability":"view"},{"type":"function","name":"crossChainTokenSwapFee","inputs":[{"name":"_chainSelector","type":"uint64","internalType":"uint64"}],"outputs":[{"name":"","type":"uint24","internalType":"uint24"}],"stateMutability":"view"},{"type":"function","name":"currentChainSelector","inputs":[],"outputs":[{"name":"","type":"uint64","internalType":"uint64"}],"stateMutability":"view"},{"type":"function","name":"estimateAmountOut","inputs":[{"name":"tokenIn","type":"address","internalType":"address"},{"name":"tokenOut","type":"address","internalType":"address"},{"name":"amountIn","type":"uint128","internalType":"uint128"}],"outputs":[{"name":"amountOut","type":"uint256","internalType":"uint256"}],"stateMutability":"view"},{"type":"function","name":"factoryStorage","inputs":[],"outputs":[{"name":"","type":"address","internalType":"contract IndexFactoryStorage"}],"stateMutability":"view"},{"type":"function","name":"feeRate","inputs":[],"outputs":[{"name":"","type":"uint8","internalType":"uint8"}],"stateMutability":"view"},{"type":"function","name":"feeReceiver","inputs":[],"outputs":[{"name":"","type":"address","internalType":"address"}],"stateMutability":"view"},{"type":"function","name":"getAmountOut","inputs":[{"name":"tokenIn","type":"address","internalType":"address"},{"name":"tokenOut","type":"address","internalType":"address"},{"name":"amountIn","type":"uint256","internalType":"uint256"},{"name":"_swapFee","type":"uint24","internalType":"uint24"}],"outputs":[{"name":"finalAmountOut","type":"uint256","internalType":"uint256"}],"stateMutability":"view"},{"type":"function","name":"getPortfolioBalance","inputs":[],"outputs":[{"name":"","type":"uint256","internalType":"uint256"}],"stateMutability":"view"},{"type":"function","name":"getRouter","inputs":[],"outputs":[{"name":"","type":"address","internalType":"address"}],"stateMutability":"view"},{"type":"function","name":"getRouterAddress","inputs":[],"outputs":[{"name":"","type":"address","internalType":"address"}],"stateMutability":"view"},{"type":"function","name":"i_link","inputs":[],"outputs":[{"name":"","type":"address","internalType":"address"}],"stateMutability":"view"},{"type":"function","name":"indexToken","inputs":[],"outputs":[{"name":"","type":"address","internalType":"contract IndexToken"}],"stateMutability":"view"},{"type":"function","name":"initialize","inputs":[{"name":"_currentChainSelector","type":"uint64","internalType":"uint64"},{"name":"_token","type":"address","internalType":"address payable"},{"name":"_chainlinkToken","type":"address","internalType":"address"},{"name":"_router","type":"address","internalType":"address"},{"name":"_weth","type":"address","internalType":"address"}],"outputs":[],"stateMutability":"nonpayable"},{"type":"function","name":"issuanceData","inputs":[{"name":"","type":"uint256","internalType":"uint256"}],"outputs":[{"name":"completedTokensCount","type":"uint256","internalType":"uint256"},{"name":"requester","type":"address","internalType":"address"},{"name":"inputAmount","type":"uint256","internalType":"uint256"},{"name":"inputToken","type":"address","internalType":"address"},{"name":"messageId","type":"bytes32","internalType":"bytes32"}],"stateMutability":"view"},{"type":"function","name":"issuanceIndexTokens","inputs":[{"name":"_tokenIn","type":"address","internalType":"address"},{"name":"_inputAmount","type":"uint256","internalType":"uint256"},{"name":"_crossChainFee","type":"uint256","internalType":"uint256"},{"name":"_tokenInSwapFee","type":"uint24","internalType":"uint24"}],"outputs":[],"stateMutability":"nonpayable"},{"type":"function","name":"issuanceIndexTokensWithEth","inputs":[{"name":"_inputAmount","type":"uint256","internalType":"uint256"},{"name":"_crossChainFee","type":"uint256","internalType":"uint256"}],"outputs":[],"stateMutability":"payable"},{"type":"function","name":"issuanceNonce","inputs":[],"outputs":[{"name":"","type":"uint256","internalType":"uint256"}],"stateMutability":"view"},{"type":"function","name":"latestFeeUpdate","inputs":[],"outputs":[{"name":"","type":"uint256","internalType":"uint256"}],"stateMutability":"view"},{"type":"function","name":"owner","inputs":[],"outputs":[{"name":"","type":"address","internalType":"address"}],"stateMutability":"view"},{"type":"function","name":"priceInWei","inputs":[],"outputs":[{"name":"","type":"uint256","internalType":"uint256"}],"stateMutability":"view"},{"type":"function","name":"proposeOwner","inputs":[{"name":"_proposedOwner","type":"address","internalType":"address"}],"outputs":[],"stateMutability":"nonpayable"},{"type":"function","name":"proposedOwner","inputs":[],"outputs":[{"name":"","type":"address","internalType":"address"}],"stateMutability":"view"},{"type":"function","name":"redemption","inputs":[{"name":"amountIn","type":"uint256","internalType":"uint256"},{"name":"_crossChainFee","type":"uint256","internalType":"uint256"},{"name":"_tokenOut","type":"address","internalType":"address"},{"name":"_tokenOutSwapFee","type":"uint24","internalType":"uint24"}],"outputs":[],"stateMutability":"nonpayable"},{"type":"function","name":"redemptionData","inputs":[{"name":"","type":"uint256","internalType":"uint256"}],"outputs":[{"name":"totalValue","type":"uint256","internalType":"uint256"},{"name":"completedTokensCount","type":"uint256","internalType":"uint256"},{"name":"requester","type":"address","internalType":"address"},{"name":"outputToken","type":"address","internalType":"address"},{"name":"outputTokenSwapFee","type":"uint24","internalType":"uint24"},{"name":"inputAmount","type":"uint256","internalType":"uint256"},{"name":"messageId","type":"bytes32","internalType":"bytes32"}],"stateMutability":"view"},{"type":"function","name":"redemptionNonce","inputs":[],"outputs":[{"name":"","type":"uint256","internalType":"uint256"}],"stateMutability":"view"},{"type":"function","name":"renounceOwnership","inputs":[],"outputs":[],"stateMutability":"nonpayable"},{"type":"function","name":"sendMessage","inputs":[{"name":"destinationChainSelector","type":"uint64","internalType":"uint64"},{"name":"receiver","type":"address","internalType":"address"},{"name":"_data","type":"bytes","internalType":"bytes"},{"name":"payFeesIn","type":"uint8","internalType":"enum IndexFactory.PayFeesIn"}],"outputs":[{"name":"","type":"bytes32","internalType":"bytes32"}],"stateMutability":"nonpayable"},{"type":"function","name":"setFeeRate","inputs":[{"name":"_newFee","type":"uint8","internalType":"uint8"}],"outputs":[],"stateMutability":"nonpayable"},{"type":"function","name":"setFeeReceiver","inputs":[{"name":"_feeReceiver","type":"address","internalType":"address"}],"outputs":[],"stateMutability":"nonpayable"},{"type":"function","name":"setIndexFactoryStorage","inputs":[{"name":"_factoryStorage","type":"address","internalType":"address"}],"outputs":[],"stateMutability":"nonpayable"},{"type":"function","name":"supportsInterface","inputs":[{"name":"interfaceId","type":"bytes4","internalType":"bytes4"}],"outputs":[{"name":"","type":"bool","internalType":"bool"}],"stateMutability":"pure"},{"type":"function","name":"transferOwnership","inputs":[{"name":"newOwner","type":"address","internalType":"address"}],"outputs":[],"stateMutability":"nonpayable"},{"type":"function","name":"weth","inputs":[],"outputs":[{"name":"","type":"address","internalType":"contract IWETH"}],"stateMutability":"view"},{"type":"event","name":"Initialized","inputs":[{"name":"version","type":"uint8","indexed":false,"internalType":"uint8"}],"anonymous":false},{"type":"event","name":"Issuanced","inputs":[{"name":"messageId","type":"bytes32","indexed":true,"internalType":"bytes32"},{"name":"nonce","type":"uint256","indexed":true,"internalType":"uint256"},{"name":"user","type":"address","indexed":true,"internalType":"address"},{"name":"inputToken","type":"address","indexed":false,"internalType":"address"},{"name":"inputAmount","type":"uint256","indexed":false,"internalType":"uint256"},{"name":"outputAmount","type":"uint256","indexed":false,"internalType":"uint256"},{"name":"time","type":"uint256","indexed":false,"internalType":"uint256"}],"anonymous":false},{"type":"event","name":"MessageSent","inputs":[{"name":"messageId","type":"bytes32","indexed":false,"internalType":"bytes32"}],"anonymous":false},{"type":"event","name":"OwnershipTransferred","inputs":[{"name":"previousOwner","type":"address","indexed":true,"internalType":"address"},{"name":"newOwner","type":"address","indexed":true,"internalType":"address"}],"anonymous":false},{"type":"event","name":"Redemption","inputs":[{"name":"messageId","type":"bytes32","indexed":true,"internalType":"bytes32"},{"name":"nonce","type":"uint256","indexed":true,"internalType":"uint256"},{"name":"user","type":"address","indexed":true,"internalType":"address"},{"name":"outputToken","type":"address","indexed":false,"internalType":"address"},{"name":"inputAmount","type":"uint256","indexed":false,"internalType":"uint256"},{"name":"outputAmount","type":"uint256","indexed":false,"internalType":"uint256"},{"name":"time","type":"uint256","indexed":false,"internalType":"uint256"}],"anonymous":false},{"type":"event","name":"RequestIssuance","inputs":[{"name":"messageId","type":"bytes32","indexed":true,"internalType":"bytes32"},{"name":"nonce","type":"uint256","indexed":true,"internalType":"uint256"},{"name":"user","type":"address","indexed":true,"internalType":"address"},{"name":"inputToken","type":"address","indexed":false,"internalType":"address"},{"name":"inputAmount","type":"uint256","indexed":false,"internalType":"uint256"},{"name":"outputAmount","type":"uint256","indexed":false,"internalType":"uint256"},{"name":"time","type":"uint256","indexed":false,"internalType":"uint256"}],"anonymous":false},{"type":"event","name":"RequestRedemption","inputs":[{"name":"messageId","type":"bytes32","indexed":true,"internalType":"bytes32"},{"name":"nonce","type":"uint256","indexed":true,"internalType":"uint256"},{"name":"user","type":"address","indexed":true,"internalType":"address"},{"name":"outputToken","type":"address","indexed":false,"internalType":"address"},{"name":"inputAmount","type":"uint256","indexed":false,"internalType":"uint256"},{"name":"outputAmount","type":"uint256","indexed":false,"internalType":"uint256"},{"name":"time","type":"uint256","indexed":false,"internalType":"uint256"}],"anonymous":false},{"type":"error","name":"InvalidRouter","inputs":[{"name":"router","type":"address","internalType":"address"}]}],"bytecode":{"object":"0x6080604052348015600e575f80fd5b506155e18061001c5f395ff3fe608060405260043610610241575f3560e01c80639dbb9c9e11610134578063c9172ef7116100b3578063d54f7d5e11610078578063d54f7d5e1461064d578063dd811ac9146107a3578063e7d015f2146107c2578063efdcd974146107e1578063f2fde38b14610800578063fd4851011461081f575f80fd5b8063c9172ef71461070a578063cc8659ae1461071f578063d0586d711461073e578063d153b60c1461075d578063d28c00fc1461077c575f80fd5b8063b3f00674116100f9578063b3f006741461066f578063b5ed298a1461068e578063bcab90b3146106ad578063c06e1ae2146106cc578063c086381e146106eb575f80fd5b80639dbb9c9e146105425780639ff73f4514610557578063a8509fd81461058a578063aa4379c01461059e578063b0f479a11461064d575f80fd5b806341d11817116101c057806384d77bb11161018557806384d77bb1146104bd57806385572ffb146104d25780638da5cb5b146104f157806392f6576e1461050e578063978bbdb914610522575f80fd5b806341d11817146104325780635177942a1461044557806358c0f10d14610464578063715018a61461048a5780637d253aff1461049e575f80fd5b80632d6fc6b3116102065780632d6fc6b31461031a578063340fbc74146103a25780633c8da588146103c15780633d54cb6f146103d55780633fc8cef31461040c575f80fd5b8063011ced5f1461024c57806301ffc9a7146102745780630456f9c8146102a357806316b487ff146102c257806319da7e2a146102e3575f80fd5b3661024857005b5f80fd5b348015610257575f80fd5b5061026160cd5481565b6040519081526020015b60405180910390f35b34801561027f575f80fd5b5061029361028e3660046147d7565b61083e565b604051901515815260200161026b565b3480156102ae575f80fd5b506102616102bd366004614812565b610874565b3480156102cd575f80fd5b506102e16102dc366004614889565b6108fe565b005b3480156102ee575f80fd5b506103026102fd3660046148f6565b610b3b565b6040516001600160a01b03909116815260200161026b565b348015610325575f80fd5b50610370610334366004614911565b60d26020525f90815260409020600181015460028201546003830154600484015460059094015492936001600160a01b03928316939192169085565b604080519586526001600160a01b0394851660208701528501929092529091166060830152608082015260a00161026b565b3480156103ad575f80fd5b506103026103bc3660046148f6565b610baf565b3480156103cc575f80fd5b50610261610be8565b3480156103e0575f80fd5b5060ce546103f4906001600160401b031681565b6040516001600160401b03909116815260200161026b565b348015610417575f80fd5b5060ce5461030290600160401b90046001600160a01b031681565b6102e1610440366004614928565b610c58565b348015610450575f80fd5b506102e161045f366004614948565b610e48565b34801561046f575f80fd5b50610478600181565b60405160ff909116815260200161026b565b348015610495575f80fd5b506102e1610f79565b3480156104a9575f80fd5b5060cb54610302906001600160a01b031681565b3480156104c8575f80fd5b5061026160d05481565b3480156104dd575f80fd5b506102e16104ec366004614968565b610f8c565b3480156104fc575f80fd5b506033546001600160a01b0316610302565b348015610519575f80fd5b50610478606481565b34801561052d575f80fd5b5060cc5461047890600160a01b900460ff1681565b34801561054d575f80fd5b5061026160cf5481565b348015610562575f80fd5b506105766105713660046148f6565b610fd2565b60405162ffffff909116815260200161026b565b348015610595575f80fd5b50610261611061565b3480156105a9575f80fd5b506106076105b8366004614911565b60d36020525f9081526040902080546001820154600283015460038401546004850154600590950154939492936001600160a01b039283169392821692600160a01b90920462ffffff16919087565b6040805197885260208801969096526001600160a01b039485169587019590955292909116606085015262ffffff16608084015260a083015260c082015260e00161026b565b348015610658575f80fd5b505f546201000090046001600160a01b0316610302565b34801561067a575f80fd5b5060d154610302906001600160a01b031681565b348015610699575f80fd5b506102e16106a836600461499e565b611410565b3480156106b8575f80fd5b506102616106c7366004614ab2565b611460565b3480156106d7575f80fd5b5060ca54610302906001600160a01b031681565b3480156106f6575f80fd5b50610261610705366004614911565b61148f565b348015610715575f80fd5b5061026161a8c081565b34801561072a575f80fd5b506102e161073936600461499e565b6114b5565b348015610749575f80fd5b506102e1610758366004614b35565b6114df565b348015610768575f80fd5b50606554610302906001600160a01b031681565b348015610787575f80fd5b50610790600581565b60405161ffff909116815260200161026b565b3480156107ae575f80fd5b506102616107bd366004614b71565b6118f6565b3480156107cd575f80fd5b5060cc54610302906001600160a01b031681565b3480156107ec575f80fd5b506102e16107fb36600461499e565b61197c565b34801561080b575f80fd5b506102e161081a36600461499e565b6119a6565b34801561082a575f80fd5b506102e1610839366004614bb6565b611acb565b5f6001600160e01b031982166385572ffb60e01b148061086e57506001600160e01b031982166301ffc9a760e01b145b92915050565b60ca54604051628adf3960e31b81526001600160a01b03858116600483015284811660248301526001600160801b03841660448301525f921690630456f9c890606401602060405180830381865afa1580156108d2573d5f803e3d5ffd5b505050506040513d601f19601f820116820180604052508101906108f69190614bf2565b949350505050565b5f54610100900460ff161580801561091c57505f54600160ff909116105b806109355750303b15801561093557505f5460ff166001145b61099d5760405162461bcd60e51b815260206004820152602e60248201527f496e697469616c697a61626c653a20636f6e747261637420697320616c72656160448201526d191e481a5b9a5d1a585b1a5e995960921b60648201526084015b60405180910390fd5b5f805460ff1916600117905580156109be575f805461ff0019166101001790555b6109c783611dde565b6109cf611e56565b6109d7611e84565b6109df611eae565b60ce80546001600160401b03881667ffffffffffffffff1990911617905560cc80546001600160a01b038088166001600160a01b03199283161790925560cb80548784169216821790555f5460405163095ea7b360e01b8152919263095ea7b392610a5992620100009004909116905f1990600401614c09565b6020604051808303815f875af1158015610a75573d5f803e3d5ffd5b505050506040513d601f19601f82011682018060405250810190610a999190614c22565b5060ce805468010000000000000000600160e01b031916600160401b6001600160a01b0385160217905560cc805460ff60a01b1916600560a11b1790554260cd5560d18054336001600160a01b03199091161790558015610b33575f805461ff0019169055604051600181527f7f26b83ff96e1f2b6a682f133852f6798a09c465da95921460cefb38474024989060200160405180910390a15b505050505050565b60ca54604051630ced3f1560e11b81526001600160401b03831660048201525f916001600160a01b0316906319da7e2a906024015b602060405180830381865afa158015610b8b573d5f803e3d5ffd5b505050506040513d601f19601f8201168201806040525081019061086e9190614c41565b60ca54604051630d03ef1d60e21b81526001600160401b03831660048201525f916001600160a01b03169063340fbc7490602401610b70565b60ca5460408051630791b4b160e31b815290515f926001600160a01b031691633c8da5889160048083019260209291908290030181865afa158015610c2f573d5f803e3d5ffd5b505050506040513d601f19601f82011682018060405250810190610c539190614bf2565b905090565b5f610c728360cc60149054906101000a900460ff16611edb565b90505f82610c808386614c70565b610c8a9190614c70565b905080341015610cdc5760405162461bcd60e51b815260206004820152601a60248201527f6c6f776572207468616e20726571756972656420616d6f756e740000000000006044820152606401610994565b60ce60089054906101000a90046001600160a01b03166001600160a01b031663d0e30db0826040518263ffffffff1660e01b81526004015f604051808303818588803b158015610d2a575f80fd5b505af1158015610d3c573d5f803e3d5ffd5b505060ce5460d15460405163a9059cbb60e01b81526001600160a01b03600160401b9093048316955063a9059cbb9450610d7e93509116908690600401614c09565b6020604051808303815f875af1158015610d9a573d5f803e3d5ffd5b505050506040513d601f19601f82011682018060405250810190610dbe9190614c22565b5060cf8054905f610dce83614c83565b909155505060cf80545f90815260d260205260408082206002018054336001600160a01b0319918216179091558354835281832060030188905560ce8054945484529190922060040180546001600160a01b03600160401b9586900481169190941617905554610e42929004168585611ef6565b50505050565b610e5061219f565b61a8c060cd5442610e619190614c9b565b1015610ed55760405162461bcd60e51b815260206004820152603960248201527f596f752073686f756c642077616974206174206c6561737420313220686f757260448201527f7320616674657220746865206c617465737420757064617465000000000000006064820152608401610994565b606460ff821611801590610eed5750600160ff821610155b610f555760405162461bcd60e51b815260206004820152603360248201527f546865206e65774665652073686f756c64206265206265747765656e203120616044820152726e64203130302028302e303125202d2031252960681b6064820152608401610994565b60cc805460ff909216600160a01b0260ff60a01b199092169190911790554260cd55565b610f8161219f565b610f8a5f6121f9565b565b5f546201000090046001600160a01b03163314610fbe576040516335fdcccd60e21b8152336004820152602401610994565b610fcf610fca82614d68565b61224a565b50565b5f80610fdd83610b3b565b60ca54604051633291aa5760e11b81526001600160401b03861660048201526001600160a01b03808416602483015292935091169063652354ae90604401602060405180830381865afa158015611036573d5f803e3d5ffd5b505050506040513d601f19601f8201168201806040525081019061105a9190614e19565b9392505050565b5f805f60ca5f9054906101000a90046001600160a01b03166001600160a01b03166353fd43326040518163ffffffff1660e01b8152600401602060405180830381865afa1580156110b4573d5f803e3d5ffd5b505050506040513d601f19601f820116820180604052508101906110d89190614bf2565b90505f5b818110156114085760ca5460405163264cae9360e21b8152600481018390525f916001600160a01b031690639932ba4c90602401602060405180830381865afa15801561112b573d5f803e3d5ffd5b505050506040513d601f19601f8201168201806040525081019061114f9190614c41565b60ca54604051633aa3b3c160e21b81526001600160a01b0380841660048301529293505f929091169063ea8ecf0490602401602060405180830381865afa15801561119c573d5f803e3d5ffd5b505050506040513d601f19601f820116820180604052508101906111c09190614e34565b60ca54604051633259966560e01b81526001600160a01b0385811660048301529293505f9290911690633259966590602401602060405180830381865afa15801561120d573d5f803e3d5ffd5b505050506040513d601f19601f820116820180604052508101906112319190614e19565b60ce549091506001600160401b03908116908316036113fd5760ce546001600160a01b03600160401b9091048116908416036112e45760cc546040516370a0823160e01b81526001600160a01b039182166004820152908416906370a0823190602401602060405180830381865afa1580156112af573d5f803e3d5ffd5b505050506040513d601f19601f820116820180604052508101906112d39190614bf2565b6112dd9087614c70565b95506113fd565b60ca5460ce5460cc546040516370a0823160e01b81526001600160a01b0391821660048201525f9382169263dd811ac9928892600160401b909204811691908316906370a0823190602401602060405180830381865afa15801561134a573d5f803e3d5ffd5b505050506040513d601f19601f8201168201806040525081019061136e9190614bf2565b6040516001600160e01b031960e086901b1681526001600160a01b039384166004820152929091166024830152604482015262ffffff85166064820152608401602060405180830381865afa1580156113c9573d5f803e3d5ffd5b505050506040513d601f19601f820116820180604052508101906113ed9190614bf2565b90506113f98188614c70565b9650505b5050506001016110dc565b509092915050565b61141861219f565b6001600160a01b03811661143e5760405162461bcd60e51b815260040161099490614e4f565b606580546001600160a01b0319166001600160a01b0392909216919091179055565b5f805460cb54611486916001600160a01b0362010000909104811691168787878761231a565b95945050505050565b5f670de0b6b3a76400006114a1610be8565b6114ab9084614e9f565b61086e9190614eb6565b6114bd61219f565b60ca80546001600160a01b0319166001600160a01b0392909216919091179055565b60cc54604080516318160ddd60e01b815290515f926001600160a01b0316916318160ddd9160048083019260209291908290030181865afa158015611526573d5f803e3d5ffd5b505050506040513d601f19601f8201168201806040525081019061154a9190614bf2565b61155c86670de0b6b3a7640000614e9f565b6115669190614eb6565b9050600160d05f82825461157a9190614c70565b909155505060d080545f90815260d3602052604080822060020180546001600160a01b03199081163390811790925584548452828420600390810180546001600160a01b038b8116919094161790558554855283852001805462ffffff8916600160a01b0262ffffff60a01b199091161790559354835291819020600490810189905560cc549151632770a7eb60e21b81529190931692639dc29fac926116259290918a9101614c09565b5f604051808303815f87803b15801561163c575f80fd5b505af115801561164e573d5f803e3d5ffd5b505050505f60ca5f9054906101000a90046001600160a01b03166001600160a01b03166369487b1c6040518163ffffffff1660e01b8152600401602060405180830381865afa1580156116a3573d5f803e3d5ffd5b505050506040513d601f19601f820116820180604052508101906116c79190614bf2565b90505f60ca5f9054906101000a90046001600160a01b03166001600160a01b031663b90b8a2a6040518163ffffffff1660e01b8152600401602060405180830381865afa15801561171a573d5f803e3d5ffd5b505050506040513d601f19601f8201168201806040525081019061173e9190614bf2565b60ca546040516369fbf93360e11b8152600481018390529192505f916001600160a01b039091169063d3f7f266906024015f60405180830381865afa158015611789573d5f803e3d5ffd5b505050506040513d5f823e601f3d908101601f191682016040526117b09190810190614ff8565b93505050505f5b83811015611897575f8282815181106117d2576117d261510f565b602090810291909101015160ca5460405163b6ad185b60e01b81526001600160401b03831660048201529192505f916001600160a01b039091169063b6ad185b90602401602060405180830381865afa158015611831573d5f803e3d5ffd5b505050506040513d601f19601f820116820180604052508101906118559190614bf2565b60ce549091506001600160401b03908116908316036118805761187b8760d05483612569565b61188d565b61188d8760d0548461291d565b50506001016117b7565b5060d0545f81815260d360205260408082206005015490513393927f4f9e9bfb3670784096375593cb821e86bd88b1fcb08efc38330012d8c33c3e36916118e4918c918f91904290615123565b60405180910390a45050505050505050565b60ca5460405163dd811ac960e01b81526001600160a01b03868116600483015285811660248301526044820185905262ffffff841660648301525f92169063dd811ac990608401602060405180830381865afa158015611958573d5f803e3d5ffd5b505050506040513d601f19601f820116820180604052508101906114869190614bf2565b61198461219f565b60d180546001600160a01b0319166001600160a01b0392909216919091179055565b6001600160a01b0381166119cc5760405162461bcd60e51b815260040161099490614e4f565b6065546001600160a01b03828116911614611a445760405162461bcd60e51b815260206004820152603260248201527f50726f706f7361626c654f776e61626c653a206e6577206f776e6572206973206044820152713737ba10383937b837b9b2b21037bbb732b960711b6064820152608401610994565b6001600160a01b0381163314611ac25760405162461bcd60e51b815260206004820152603a60248201527f50726f706f7361626c654f776e61626c653a20746869732063616c6c206d757360448201527f74206265206d61646520627920746865206e6577206f776e65720000000000006064820152608401610994565b610fcf816121f9565b60ca5460408051633fc8cef360e01b815290515f926001600160a01b031691633fc8cef39160048083019260209291908290030181865afa158015611b12573d5f803e3d5ffd5b505050506040513d601f19601f82011682018060405250810190611b369190614c41565b90505f60ca5f9054906101000a90046001600160a01b03166001600160a01b031663fbfa77cf6040518163ffffffff1660e01b8152600401602060405180830381865afa158015611b89573d5f803e3d5ffd5b505050506040513d601f19601f82011682018060405250810190611bad9190614c41565b90505f611bc98660cc60149054906101000a900460ff16611edb565b90506001600160a01b0387166323b872dd3330611be6858b614c70565b6040516001600160e01b031960e086901b1681526001600160a01b03938416600482015292909116602483015260448201526064016020604051808303815f875af1158015611c37573d5f803e3d5ffd5b505050506040513d601f19601f82011682018060405250810190611c5b9190614c22565b611c9f5760405162461bcd60e51b8152602060048201526015602482015274151bdad95b881d1c985b9cd9995c8819985a5b1959605a1b6044820152606401610994565b5f611cb68885611caf858b614c70565b3089612b4e565b60cc549091505f9061271090611cd690600160a01b900460ff1684614e9f565b611ce09190614eb6565b90505f611ced8284614c9b565b60d15460405163a9059cbb60e01b81529192506001600160a01b038089169263a9059cbb92611d229216908690600401614c09565b6020604051808303815f875af1158015611d3e573d5f803e3d5ffd5b505050506040513d601f19601f82011682018060405250810190611d629190614c22565b5060cf8054905f611d7283614c83565b909155505060cf80545f90815260d260205260408082206002018054336001600160a01b031991821617909155835483528183206003018d905592548252902060040180549091166001600160a01b038c16179055611dd28a828a611ef6565b50505050505050505050565b5f54610100900460ff16611e045760405162461bcd60e51b815260040161099490615149565b6001600160a01b038116611e2d576040516335fdcccd60e21b81525f6004820152602401610994565b5f80546001600160a01b03909216620100000262010000600160b01b0319909216919091179055565b5f54610100900460ff16611e7c5760405162461bcd60e51b815260040161099490615149565b610f8a612c58565b5f54610100900460ff16611eaa5760405162461bcd60e51b815260040161099490615149565b610f8a5b5f54610100900460ff16611ed45760405162461bcd60e51b815260040161099490615149565b6001609855565b5f612710611eec60ff841685614e9f565b61105a9190614eb6565b60ca5460408051631a521ec760e21b8152905184925f926001600160a01b03909116916369487b1c916004808201926020929091908290030181865afa158015611f42573d5f803e3d5ffd5b505050506040513d601f19601f82011682018060405250810190611f669190614bf2565b90505f60ca5f9054906101000a90046001600160a01b03166001600160a01b031663b90b8a2a6040518163ffffffff1660e01b8152600401602060405180830381865afa158015611fb9573d5f803e3d5ffd5b505050506040513d601f19601f82011682018060405250810190611fdd9190614bf2565b60ca546040516369fbf93360e11b8152600481018390529192505f916001600160a01b039091169063d3f7f266906024015f60405180830381865afa158015612028573d5f803e3d5ffd5b505050506040513d5f823e601f3d908101601f1916820160405261204f9190810190614ff8565b93505050505f5b83811015612139575f8282815181106120715761207161510f565b602090810291909101015160ca5460405163b6ad185b60e01b81526001600160401b03831660048201529192505f916001600160a01b039091169063b6ad185b90602401602060405180830381865afa1580156120d0573d5f803e3d5ffd5b505050506040513d601f19601f820116820180604052508101906120f49190614bf2565b60ce549091506001600160401b03908116908316036121215761211c8760cf54838589612c87565b61212f565b61212f8760cf54848861328f565b5050600101612056565b5060cf545f81815260d260205260408082206005810154600390910154915133949391927f497983feda2f53898206317c0b392bffd918715fad18aaedf4ac296f7ec6bf3d9261218e928e9291904290615123565b60405180910390a450505050505050565b6033546001600160a01b03163314610f8a5760405162461bcd60e51b815260206004820181905260248201527f4f776e61626c653a2063616c6c6572206973206e6f7420746865206f776e65726044820152606401610994565b603380546001600160a01b038381166001600160a01b0319831681179093556040519116919082907f8be0079c531659141344cd1fd0a4f28419497f9722a3daafe3b4186f6b6457e0905f90a35050565b805160208083015160ca54604080516329fea19960e11b8152905192935f936001600160a01b03909316926353fd43329260048082019392918290030181865afa15801561229a573d5f803e3d5ffd5b505050506040513d601f19601f820116820180604052508101906122be9190614bf2565b90505f805f805f8089606001518060200190518101906122de9190615194565b955095509550955095509550855f03612304576122ff838684848b8e6136d4565b611dd2565b85600103611dd257611dd2838b878a8c8e61381d565b6040805160a081019091526001600160a01b03841660c08201525f9081908060e0810160408051808303601f19018152918152908252602080830188905281515f8082529181018352929091019190612394565b604080518082019091525f808252602082015281526020019060019003908161236e5790505b50815260200160018560018111156123ae576123ae61525d565b146123b9575f6123bb565b885b6001600160a01b031681526020016123e36040518060200160405280622dc6c0815250613908565b90526040516320487ded60e01b81529091505f906001600160a01b038a16906320487ded90612418908a90869060040161529f565b602060405180830381865afa158015612433573d5f803e3d5ffd5b505050506040513d601f19601f820116820180604052508101906124579190614bf2565b90505f600185600181111561246e5761246e61525d565b036124e8576040516396f4e9f960e01b81526001600160a01b038b16906396f4e9f9906124a1908b90879060040161529f565b6020604051808303815f875af11580156124bd573d5f803e3d5ffd5b505050506040513d601f19601f820116820180604052508101906124e19190614bf2565b905061255c565b6040516396f4e9f960e01b81526001600160a01b038b16906396f4e9f9908490612518908c90889060040161529f565b60206040518083038185885af1158015612534573d5f803e3d5ffd5b50505050506040513d601f19601f820116820180604052508101906125599190614bf2565b90505b9998505050505050505050565b60ca5460ce5460405163d1c68aa360e01b81526001600160401b0390911660048201525f916001600160a01b03169063d1c68aa3906024015f60405180830381865afa1580156125bb573d5f803e3d5ffd5b505050506040513d5f823e601f3d908101601f191682016040526125e29190810190615372565b90505f60ca5f9054906101000a90046001600160a01b03166001600160a01b031663fbfa77cf6040518163ffffffff1660e01b8152600401602060405180830381865afa158015612635573d5f803e3d5ffd5b505050506040513d601f19601f820116820180604052508101906126599190614c41565b90505f5b83811015610b33575f8382815181106126785761267861510f565b602090810291909101015160ca54604051633259966560e01b81526001600160a01b0380841660048301529293505f9290911690633259966590602401602060405180830381865afa1580156126d0573d5f803e3d5ffd5b505050506040513d601f19601f820116820180604052508101906126f49190614e19565b90505f670de0b6b3a7640000836001600160a01b03166370a0823160ca5f9054906101000a90046001600160a01b03166001600160a01b031663fbfa77cf6040518163ffffffff1660e01b8152600401602060405180830381865afa15801561275f573d5f803e3d5ffd5b505050506040513d601f19601f820116820180604052508101906127839190614c41565b6040516001600160e01b031960e084901b1681526001600160a01b039091166004820152602401602060405180830381865afa1580156127c5573d5f803e3d5ffd5b505050506040513d601f19601f820116820180604052508101906127e99190614bf2565b6127f3908b614e9f565b6127fd9190614eb6565b604051631c20fadd60e01b81526001600160a01b0385811660048301523060248301526044820183905291925090861690631c20fadd906064016020604051808303815f875af1158015612853573d5f803e3d5ffd5b505050506040513d601f19601f820116820180604052508101906128779190614c22565b5060ce545f906001600160a01b03858116600160401b90920416146128bc5760ce546128b7908590600160401b90046001600160a01b0316843087612b4e565b6128be565b815b5f8a815260d360205260408120805492935083929091906128e0908490614c70565b90915550505f89815260d3602052604081206001908101805491929091612908908490614c70565b90915550506001909401935061265d92505050565b5f61292782610baf565b60ca5460405163d1c68aa360e01b81526001600160401b03851660048201529192505f916001600160a01b039091169063d1c68aa3906024015f60405180830381865afa15801561297a573d5f803e3d5ffd5b505050506040513d5f823e601f3d908101601f191682016040526129a19190810190615372565b60ca5460405163221f337160e01b81526001600160401b03861660048201529192505f916001600160a01b039091169063221f3371906024015f60405180830381865afa1580156129f4573d5f803e3d5ffd5b505050506040513d5f823e601f3d908101601f19168201604052612a1b91908101906153a3565b60ca54604051632bda5acd60e21b81526001600160401b03871660048201529192505f916001600160a01b039091169063af696b34906024015f60405180830381865afa158015612a6e573d5f803e3d5ffd5b505050506040513d5f823e601f3d908101601f19168201604052612a9591908101906153a3565b604080515f80825260208083018281526001848601818152608086019096529596509294929391929060608601908036833701905050905089815f81518110612ae057612ae061510f565b6020026020010181815250505f6001878588868e8a88604051602001612b0d989796959493929190615447565b60405160208183030381529060405290505f612b2c8a8a846001611460565b5f9b8c5260d36020526040909b206005019a909a555050505050505050505050565b5f8060ca5f9054906101000a90046001600160a01b03166001600160a01b031663b631e80b6040518163ffffffff1660e01b8152600401602060405180830381865afa158015612ba0573d5f803e3d5ffd5b505050506040513d601f19601f82011682018060405250810190612bc49190614c41565b90505f60ca5f9054906101000a90046001600160a01b03166001600160a01b031663744fbc7a6040518163ffffffff1660e01b8152600401602060405180830381865afa158015612c17573d5f803e3d5ffd5b505050506040513d601f19601f82011682018060405250810190612c3b9190614c41565b9050612c4c8282868b8b8b8b613945565b98975050505050505050565b5f54610100900460ff16612c7e5760405162461bcd60e51b815260040161099490615149565b610f8a336121f9565b60ca5460405163d1c68aa360e01b81526001600160401b03841660048201525f916001600160a01b03169063d1c68aa3906024015f60405180830381865afa158015612cd5573d5f803e3d5ffd5b505050506040513d5f823e601f3d908101601f19168201604052612cfc9190810190615372565b90505f5b84811015613286575f828281518110612d1b57612d1b61510f565b602090810291909101015160ca54604051633259966560e01b81526001600160a01b0380841660048301529293505f9290911690633259966590602401602060405180830381865afa158015612d73573d5f803e3d5ffd5b505050506040513d601f19601f82011682018060405250810190612d979190614e19565b60ca54604051630be5271360e01b81526001600160a01b0385811660048301529293505f9290911690630be5271390602401602060405180830381865afa158015612de4573d5f803e3d5ffd5b505050506040513d601f19601f82011682018060405250810190612e089190614bf2565b60ce549091505f906001600160a01b03858116600160401b9092041614612f3a57612f356107058560ce60089054906101000a90046001600160a01b0316876001600160a01b03166370a0823160ca5f9054906101000a90046001600160a01b03166001600160a01b031663fbfa77cf6040518163ffffffff1660e01b8152600401602060405180830381865afa158015612ea5573d5f803e3d5ffd5b505050506040513d601f19601f82011682018060405250810190612ec99190614c41565b6040516001600160e01b031960e084901b1681526001600160a01b039091166004820152602401602060405180830381865afa158015612f0b573d5f803e3d5ffd5b505050506040513d601f19601f82011682018060405250810190612f2f9190614bf2565b876118f6565b613026565b613026846001600160a01b03166370a0823160ca5f9054906101000a90046001600160a01b03166001600160a01b031663fbfa77cf6040518163ffffffff1660e01b8152600401602060405180830381865afa158015612f9c573d5f803e3d5ffd5b505050506040513d601f19601f82011682018060405250810190612fc09190614c41565b6040516001600160e01b031960e084901b1681526001600160a01b039091166004820152602401602060405180830381865afa158015613002573d5f803e3d5ffd5b505050506040513d601f19601f820116820180604052508101906107059190614bf2565b5f8b815260d2602090815260408083206001600160a01b0389168452909152812082905590915068056bc75e2d63100000613061848e614e9f565b61306b9190614eb6565b60ce549091506001600160a01b03868116600160401b90920416146131255761311f60ce60089054906101000a90046001600160a01b0316868360ca5f9054906101000a90046001600160a01b03166001600160a01b031663fbfa77cf6040518163ffffffff1660e01b8152600401602060405180830381865afa1580156130f5573d5f803e3d5ffd5b505050506040513d601f19601f820116820180604052508101906131199190614c41565b88612b4e565b50613202565b60ce5460ca546040805163fbfa77cf60e01b815290516001600160a01b03600160401b90940484169363a9059cbb93169163fbfa77cf9160048083019260209291908290030181865afa15801561317e573d5f803e3d5ffd5b505050506040513d601f19601f820116820180604052508101906131a29190614c41565b836040518363ffffffff1660e01b81526004016131c0929190614c09565b6020604051808303815f875af11580156131dc573d5f803e3d5ffd5b505050506040513d601f19601f820116820180604052508101906132009190614c22565b505b61322368056bc75e2d63100000613219858f614e9f565b6107059190614eb6565b61322d9083614c70565b5f8c815260d2602081815260408084206001600160a01b038b1685528083529084206001908101959095558f845291905282018054909190613270908490614c70565b909155505060019095019450612d009350505050565b50505050505050565b6132c16040518060a0016040528060608152602001606081526020016060815260200160608152602001606081525090565b60ca54604051632a3ff8ad60e01b8152600481018490526001600160401b03851660248201525f916001600160a01b031690632a3ff8ad90604401602060405180830381865afa158015613317573d5f803e3d5ffd5b505050506040513d601f19601f8201168201806040525081019061333b9190614bf2565b6040805160018082528183019092529192505f91906020808301908036833701905050905081815f815181106133735761337361510f565b602090810291909101015260ce545f906133e890600160401b90046001600160a01b03166133a088610b3b565b68056bc75e2d63100000855f815181106133bc576133bc61510f565b60200260200101518c6133cf9190614e9f565b6133d99190614eb6565b306133e38b610fd2565b612b4e565b90505f6133f487610baf565b60ca5460405163d1c68aa360e01b81526001600160401b038a1660048201529192506001600160a01b03169063d1c68aa3906024015f60405180830381865afa158015613443573d5f803e3d5ffd5b505050506040513d5f823e601f3d908101601f1916820160405261346a9190810190615372565b855260ca5460405163221f337160e01b81526001600160401b03891660048201526001600160a01b039091169063221f3371906024015f60405180830381865afa1580156134ba573d5f803e3d5ffd5b505050506040513d5f823e601f3d908101601f191682016040526134e191908101906153a3565b602086015260ca54604051632bda5acd60e21b81526001600160401b03891660048201526001600160a01b039091169063af696b34906024015f60405180830381865afa158015613534573d5f803e3d5ffd5b505050506040513d5f823e601f3d908101601f1916820160405261355b91908101906153a3565b60408681019190915280515f808252602080830184526060890192909252825181815280830184526080890152825160018082528185019094529092909182015b604080518082019091525f808252602082015281526020019060019003908161359c5790505090506135cd88610b3b565b815f815181106135df576135df61510f565b60200260200101515f01906001600160a01b031690816001600160a01b03168152505082815f815181106136155761361561510f565b602002602001015160200181815250505f80875f0151886060015189602001518a608001518e8c604001518b604051602001613658989796959493929190615447565b60405160208183030381529060405290505f6136788a8386866001613981565b90507f54791b38f3859327992a1ca0590ad3c0f08feba98d1a4f56ab0dca74d203392a816040516136ab91815260200190565b60405180910390a160cf545f90815260d260205260409020600501555050505050505050505050565b855f5b86518110156137fa575f8682815181106136f3576136f361510f565b602002602001015190505f8683815181106137105761371061510f565b602002602001015190508160d25f8681526020019081526020015f205f015f8b86815181106137415761374161510f565b60200260200101516001600160a01b03166001600160a01b031681526020019081526020015f205f01819055508060d25f8681526020019081526020015f205f015f8b86815181106137955761379561510f565b60200260200101516001600160a01b03166001600160a01b031681526020019081526020015f2060010181905550600160d25f8681526020019081526020015f206001015f8282546137e79190614c70565b9091555050600190920191506136d79050565b505f81815260d260205260409020600101548390036132865761328681836139fa565b608085015180518791905f90829082906138395761383961510f565b60200260200101515f015190505f825f815181106138595761385961510f565b60200260200101516020015190505f61388b8360ce60089054906101000a90046001600160a01b031684306003612b4e565b5f86815260d360205260408120805492935083929091906138ad908490614c70565b909155505088515f86815260d36020526040812060010180549091906138d4908490614c70565b90915550505f85815260d360205260409020600101548890036138fb576138fb8587613dd4565b5050505050505050505050565b60408051915160248084019190915281518084039091018152604490920190526020810180516001600160e01b03166397a657c960e01b17905290565b5f62ffffff8616156139665761395f8887878787876140cc565b9050613976565b6139738786868686614215565b90505b979650505050505050565b5f61398a6143fa565b5f805460cb546139b3916001600160a01b03620100009091048116911660058a8a8a8a8a614453565b90507f54791b38f3859327992a1ca0590ad3c0f08feba98d1a4f56ab0dca74d203392a816040516139e691815260200190565b60405180910390a190506114866001609855565b5f805f60ca5f9054906101000a90046001600160a01b03166001600160a01b03166353fd43326040518163ffffffff1660e01b8152600401602060405180830381865afa158015613a4d573d5f803e3d5ffd5b505050506040513d601f19601f82011682018060405250810190613a719190614bf2565b90505f5b81811015613b545760ca5460405163264cae9360e21b8152600481018390525f916001600160a01b031690639932ba4c90602401602060405180830381865afa158015613ac4573d5f803e3d5ffd5b505050506040513d601f19601f82011682018060405250810190613ae89190614c41565b5f88815260d2602090815260408083206001600160a01b0385168452909152902054909150613b179086614c70565b5f88815260d2602090815260408083206001600160a01b0386168452909152902060010154909550613b499085614c70565b935050600101613a75565b505f8060cc5f9054906101000a90046001600160a01b03166001600160a01b03166318160ddd6040518163ffffffff1660e01b8152600401602060405180830381865afa158015613ba7573d5f803e3d5ffd5b505050506040513d601f19601f82011682018060405250810190613bcb9190614bf2565b1115613ce05760cc5f9054906101000a90046001600160a01b03166001600160a01b03166318160ddd6040518163ffffffff1660e01b8152600401602060405180830381865afa158015613c21573d5f803e3d5ffd5b505050506040513d601f19601f82011682018060405250810190613c459190614bf2565b848460cc5f9054906101000a90046001600160a01b03166001600160a01b03166318160ddd6040518163ffffffff1660e01b8152600401602060405180830381865afa158015613c97573d5f803e3d5ffd5b505050506040513d601f19601f82011682018060405250810190613cbb9190614bf2565b613cc59190614e9f565b613ccf9190614eb6565b613cd99190614c9b565b9050613cee565b613ceb836064614e9f565b90505b60cc545f87815260d26020526040908190206002015490516340c10f1960e01b81526001600160a01b03928316926340c10f1992613d33929116908590600401614c09565b5f604051808303815f87803b158015613d4a575f80fd5b505af1158015613d5c573d5f803e3d5ffd5b5050505f87815260d26020526040908190206002810154600482015460039092015492516001600160a01b0391821694508a938a937f4d3128af979c46a863cd489a3d0959d5d22181cdbdb1949b40cadfcdac0a1d3893613dc4939116919088904290615123565b60405180910390a4505050505050565b5f82815260d3602052604081208054600282015460039092015460cc5491936001600160a01b039384169382169262ffffff600160a01b938490041692613e2191879160ff910416611edb565b60ce5460d15460405163a9059cbb60e01b81529293506001600160a01b03600160401b90920482169263a9059cbb92613e609216908590600401614c09565b6020604051808303815f875af1158015613e7c573d5f803e3d5ffd5b505050506040513d601f19601f82011682018060405250810190613ea09190614c22565b5060ce546001600160a01b03600160401b90910481169084160361404a5760ce54600160401b90046001600160a01b0316632e1a7d4d613ee08388614c9b565b6040518263ffffffff1660e01b8152600401613efe91815260200190565b5f604051808303815f87803b158015613f15575f80fd5b505af1158015613f27573d5f803e3d5ffd5b505050505f846001600160a01b03168287613f429190614c9b565b6040515f81818185875af1925050503d805f8114613f7b576040519150601f19603f3d011682016040523d82523d5f602084013e613f80565b606091505b5050905080613fdd5760405162461bcd60e51b8152602060048201526024808201527f7472616e736665722065746820746f20746865207265717565737465722066616044820152631a5b195960e21b6064820152608401610994565b5f88815260d360205260409020600401546001600160a01b03861690899089907f476778ca38557db6dc935a57ece5bd93fbaca20183fadf86d7a1d2b85df65e0190889061402b888d614c9b565b4260405161403c9493929190615123565b60405180910390a450613286565b60ce545f9061407590600160401b90046001600160a01b03168561406e858a614c9b565b8887612b4e565b9050846001600160a01b031688887f476778ca38557db6dc935a57ece5bd93fbaca20183fadf86d7a1d2b85df65e018760d35f8e81526020019081526020015f206004015486426040516118e49493929190615123565b60405163095ea7b360e01b81525f906001600160a01b0386169063095ea7b3906140fc908a908790600401614c09565b6020604051808303815f875af1158015614118573d5f803e3d5ffd5b505050506040513d601f19601f8201168201806040525081019061413c9190614c22565b505f604051806101000160405280876001600160a01b03168152602001866001600160a01b031681526020018862ffffff168152602001846001600160a01b031681526020014261012c6141909190614c70565b8152602081018690525f60408083018290526060909201525163414bf38960e01b81529091506001600160a01b0389169063414bf389906141d59084906004016154db565b6020604051808303815f875af11580156141f1573d5f803e3d5ffd5b505050506040513d601f19601f82011682018060405250810190612c4c9190614bf2565b6040805160028082526060820183525f928392919060208301908036833701905050905085815f8151811061424c5761424c61510f565b60200260200101906001600160a01b031690816001600160a01b03168152505084816001815181106142805761428061510f565b6001600160a01b03928316602091820292909201015260405163d06ca61f60e01b81525f9189169063d06ca61f906142be9088908690600401615558565b5f60405180830381865afa1580156142d8573d5f803e3d5ffd5b505050506040513d5f823e601f3d908101601f191682016040526142ff91908101906153a3565b60405163095ea7b360e01b81529091506001600160a01b0388169063095ea7b390614330908b908990600401614c09565b6020604051808303815f875af115801561434c573d5f803e3d5ffd5b505050506040513d601f19601f820116820180604052508101906143709190614c22565b50604051635c11d79560e01b81526001600160a01b03891690635c11d795906143a59088905f9087908a904290600401615570565b5f604051808303815f87803b1580156143bc575f80fd5b505af11580156143ce573d5f803e3d5ffd5b50505050806001815181106143e5576143e561510f565b60200260200101519250505095945050505050565b60026098540361444c5760405162461bcd60e51b815260206004820152601f60248201527f5265656e7472616e637947756172643a207265656e7472616e742063616c6c006044820152606401610994565b6002609855565b81515f9061ffff88168111156144d15760405162461bcd60e51b815260206004820152603760248201527f4d6178696d756d203520646966666572656e7420746f6b656e732063616e206260448201527f652073656e74207065722043434950204d6573736167650000000000000000006064820152608401610994565b5f5b818110156145c157896001600160a01b03168582815181106144f7576144f761510f565b60200260200101515f01516001600160a01b0316146145b9578481815181106145225761452261510f565b60200260200101515f01516001600160a01b031663095ea7b38c87848151811061454e5761454e61510f565b6020026020010151602001516040518363ffffffff1660e01b8152600401614577929190614c09565b6020604051808303815f875af1158015614593573d5f803e3d5ffd5b505050506040513d601f19601f820116820180604052508101906145b79190614c22565b505b6001016144d3565b506040805160a081019091526001600160a01b03861660c08201525f908060e0810160408051601f19818403018152918152908252602082018a9052810187905260600160018660018111156146195761461961525d565b14614624575f614626565b8b5b6001600160a01b0316815260200161464e6040518060200160405280622dc6c0815250613908565b90526040516320487ded60e01b81529091505f906001600160a01b038d16906320487ded90614683908c90869060040161529f565b602060405180830381865afa15801561469e573d5f803e3d5ffd5b505050506040513d601f19601f820116820180604052508101906146c29190614bf2565b90505f60018660018111156146d9576146d961525d565b03614753576040516396f4e9f960e01b81526001600160a01b038e16906396f4e9f99061470c908d90879060040161529f565b6020604051808303815f875af1158015614728573d5f803e3d5ffd5b505050506040513d601f19601f8201168201806040525081019061474c9190614bf2565b90506147c7565b6040516396f4e9f960e01b81526001600160a01b038e16906396f4e9f9908490614783908e90889060040161529f565b60206040518083038185885af115801561479f573d5f803e3d5ffd5b50505050506040513d601f19601f820116820180604052508101906147c49190614bf2565b90505b9c9b505050505050505050505050565b5f602082840312156147e7575f80fd5b81356001600160e01b03198116811461105a575f80fd5b6001600160a01b0381168114610fcf575f80fd5b5f805f60608486031215614824575f80fd5b833561482f816147fe565b9250602084013561483f816147fe565b915060408401356001600160801b038116811461485a575f80fd5b809150509250925092565b6001600160401b0381168114610fcf575f80fd5b803561488481614865565b919050565b5f805f805f60a0868803121561489d575f80fd5b85356148a881614865565b945060208601356148b8816147fe565b935060408601356148c8816147fe565b925060608601356148d8816147fe565b915060808601356148e8816147fe565b809150509295509295909350565b5f60208284031215614906575f80fd5b813561105a81614865565b5f60208284031215614921575f80fd5b5035919050565b5f8060408385031215614939575f80fd5b50508035926020909101359150565b5f60208284031215614958575f80fd5b813560ff8116811461105a575f80fd5b5f60208284031215614978575f80fd5b81356001600160401b0381111561498d575f80fd5b820160a0818503121561105a575f80fd5b5f602082840312156149ae575f80fd5b813561105a816147fe565b634e487b7160e01b5f52604160045260245ffd5b604080519081016001600160401b03811182821017156149ef576149ef6149b9565b60405290565b60405160a081016001600160401b03811182821017156149ef576149ef6149b9565b604051601f8201601f191681016001600160401b0381118282101715614a3f57614a3f6149b9565b604052919050565b5f82601f830112614a56575f80fd5b81356001600160401b03811115614a6f57614a6f6149b9565b614a82601f8201601f1916602001614a17565b818152846020838601011115614a96575f80fd5b816020850160208301375f918101602001919091529392505050565b5f805f8060808587031215614ac5575f80fd5b8435614ad081614865565b93506020850135614ae0816147fe565b925060408501356001600160401b03811115614afa575f80fd5b614b0687828801614a47565b925050606085013560028110614b1a575f80fd5b939692955090935050565b62ffffff81168114610fcf575f80fd5b5f805f8060808587031215614b48575f80fd5b84359350602085013592506040850135614b61816147fe565b91506060850135614b1a81614b25565b5f805f8060808587031215614b84575f80fd5b8435614b8f816147fe565b93506020850135614b9f816147fe565b9250604085013591506060850135614b1a81614b25565b5f805f8060808587031215614bc9575f80fd5b8435614bd4816147fe565b935060208501359250604085013591506060850135614b1a81614b25565b5f60208284031215614c02575f80fd5b5051919050565b6001600160a01b03929092168252602082015260400190565b5f60208284031215614c32575f80fd5b8151801515811461105a575f80fd5b5f60208284031215614c51575f80fd5b815161105a816147fe565b634e487b7160e01b5f52601160045260245ffd5b8082018082111561086e5761086e614c5c565b5f60018201614c9457614c94614c5c565b5060010190565b8181038181111561086e5761086e614c5c565b5f6001600160401b03821115614cc657614cc66149b9565b5060051b60200190565b5f82601f830112614cdf575f80fd5b8135614cf2614ced82614cae565b614a17565b8082825260208201915060208360061b860101925085831115614d13575f80fd5b602085015b83811015614d5e5760408188031215614d2f575f80fd5b614d376149cd565b8135614d42816147fe565b8152602082810135818301529084529290920191604001614d18565b5095945050505050565b5f60a08236031215614d78575f80fd5b614d806149f5565b82358152614d9060208401614879565b602082015260408301356001600160401b03811115614dad575f80fd5b614db936828601614a47565b60408301525060608301356001600160401b03811115614dd7575f80fd5b614de336828601614a47565b60608301525060808301356001600160401b03811115614e01575f80fd5b614e0d36828601614cd0565b60808301525092915050565b5f60208284031215614e29575f80fd5b815161105a81614b25565b5f60208284031215614e44575f80fd5b815161105a81614865565b60208082526030908201527f50726f706f7361626c654f776e61626c653a206e6577206f776e65722069732060408201526f746865207a65726f206164647265737360801b606082015260800190565b808202811582820484141761086e5761086e614c5c565b5f82614ed057634e487b7160e01b5f52601260045260245ffd5b500490565b5f82601f830112614ee4575f80fd5b8151614ef2614ced82614cae565b8082825260208201915060208360051b860101925085831115614f13575f80fd5b602085015b83811015614d5e578051614f2b816147fe565b835260209283019201614f18565b5f82601f830112614f48575f80fd5b8151614f56614ced82614cae565b8082825260208201915060208360051b860101925085831115614f77575f80fd5b602085015b83811015614d5e578051835260209283019201614f7c565b5f82601f830112614fa3575f80fd5b8151614fb1614ced82614cae565b8082825260208201915060208360051b860101925085831115614fd2575f80fd5b602085015b83811015614d5e578051614fea81614865565b835260209283019201614fd7565b5f805f806080858703121561500b575f80fd5b84516001600160401b03811115615020575f80fd5b61502c87828801614ed5565b94505060208501516001600160401b03811115615047575f80fd5b61505387828801614f39565b93505060408501516001600160401b0381111561506e575f80fd5b8501601f8101871361507e575f80fd5b805161508c614ced82614cae565b8082825260208201915060208360051b8501019250898311156150ad575f80fd5b6020840193505b828410156150d85783516150c781614b25565b8252602093840193909101906150b4565b8095505050505060608501516001600160401b038111156150f7575f80fd5b61510387828801614f94565b91505092959194509250565b634e487b7160e01b5f52603260045260245ffd5b6001600160a01b0394909416845260208401929092526040830152606082015260800190565b6020808252602b908201527f496e697469616c697a61626c653a20636f6e7472616374206973206e6f74206960408201526a6e697469616c697a696e6760a81b606082015260800190565b5f805f805f8060c087890312156151a9575f80fd5b865160208801519096506001600160401b038111156151c6575f80fd5b6151d289828a01614ed5565b95505060408701516001600160401b038111156151ed575f80fd5b6151f989828a01614ed5565b606089015160808a0151919650945090506001600160401b0381111561521d575f80fd5b61522989828a01614f39565b92505060a08701516001600160401b03811115615244575f80fd5b61525089828a01614f39565b9150509295509295509295565b634e487b7160e01b5f52602160045260245ffd5b5f81518084528060208401602086015e5f602082860101526020601f19601f83011685010191505092915050565b6001600160401b0383168152604060208201525f825160a060408401526152c960e0840182615271565b90506020840151603f198483030160608501526152e68282615271565b6040860151858203603f190160808701528051808352602091820194505f93509101905b8083101561534157835180516001600160a01b0316835260209081015181840152909301926001929092019160409091019061530a565b5060608601516001600160a01b031660a08601526080860151858203603f190160c087015292506139768184615271565b5f60208284031215615382575f80fd5b81516001600160401b03811115615397575f80fd5b6108f684828501614ed5565b5f602082840312156153b3575f80fd5b81516001600160401b038111156153c8575f80fd5b6108f684828501614f39565b5f8151808452602084019350602083015f5b8281101561540d5781516001600160a01b03168652602095860195909101906001016153e6565b5093949350505050565b5f8151808452602084019350602083015f5b8281101561540d578151865260209586019590910190600101615429565b60ff8916815261010060208201525f61546461010083018a6153d4565b8281036040840152615476818a6153d4565b9050828103606084015261548a8189615417565b9050828103608084015261549e8188615417565b90508560a084015282810360c08401526154b88186615417565b905082810360e08401526154cc8185615417565b9b9a5050505050505050505050565b81516001600160a01b03908116825260208084015182169083015260408084015162ffffff169083015260608084015191821690830152610100820190506080830151608083015260a083015160a083015260c083015160c083015260e083015161555160e08401826001600160a01b03169052565b5092915050565b828152604060208201525f6108f660408301846153d4565b85815284602082015260a060408201525f61558e60a08301866153d4565b6001600160a01b039490941660608301525060800152939250505056fea2646970667358221220cb142fb07ecf299c7bed42e25e943e73df2fb24a072ede29c735f0d8c2017f6864736f6c634300081a0033","linkReferences":{}},"methodIdentifiers":{"MAX_FEE_RATE()":"92f6576e","MAX_TOKENS_LENGTH()":"d28c00fc","MIN_FEE_RATE()":"58c0f10d","MIN_FEE_UPDATE_INTERVAL()":"c9172ef7","ccipReceive((bytes32,uint64,bytes,bytes,(address,uint256)[]))":"85572ffb","convertEthToUsd(uint256)":"c086381e","crossChainFactoryBySelector(uint64)":"340fbc74","crossChainToken(uint64)":"19da7e2a","crossChainTokenSwapFee(uint64)":"9ff73f45","currentChainSelector()":"3d54cb6f","estimateAmountOut(address,address,uint128)":"0456f9c8","factoryStorage()":"c06e1ae2","feeRate()":"978bbdb9","feeReceiver()":"b3f00674","getAmountOut(address,address,uint256,uint24)":"dd811ac9","getPortfolioBalance()":"a8509fd8","getRouter()":"b0f479a1","getRouterAddress()":"d54f7d5e","i_link()":"7d253aff","indexToken()":"e7d015f2","initialize(uint64,address,address,address,address)":"16b487ff","issuanceData(uint256)":"2d6fc6b3","issuanceIndexTokens(address,uint256,uint256,uint24)":"fd485101","issuanceIndexTokensWithEth(uint256,uint256)":"41d11817","issuanceNonce()":"9dbb9c9e","latestFeeUpdate()":"011ced5f","owner()":"8da5cb5b","priceInWei()":"3c8da588","proposeOwner(address)":"b5ed298a","proposedOwner()":"d153b60c","redemption(uint256,uint256,address,uint24)":"d0586d71","redemptionData(uint256)":"aa4379c0","redemptionNonce()":"84d77bb1","renounceOwnership()":"715018a6","sendMessage(uint64,address,bytes,uint8)":"bcab90b3","setFeeRate(uint8)":"5177942a","setFeeReceiver(address)":"efdcd974","setIndexFactoryStorage(address)":"cc8659ae","supportsInterface(bytes4)":"01ffc9a7","transferOwnership(address)":"f2fde38b","weth()":"3fc8cef3"},"id":3}