{"abi":[{"type":"receive","stateMutability":"payable"},{"type":"function","name":"MAX_FEE_RATE","inputs":[],"outputs":[{"name":"","type":"uint8","internalType":"uint8"}],"stateMutability":"view"},{"type":"function","name":"MAX_TOKENS_LENGTH","inputs":[],"outputs":[{"name":"","type":"uint16","internalType":"uint16"}],"stateMutability":"view"},{"type":"function","name":"MIN_FEE_RATE","inputs":[],"outputs":[{"name":"","type":"uint8","internalType":"uint8"}],"stateMutability":"view"},{"type":"function","name":"MIN_FEE_UPDATE_INTERVAL","inputs":[],"outputs":[{"name":"","type":"uint256","internalType":"uint256"}],"stateMutability":"view"},{"type":"function","name":"ccipReceive","inputs":[{"name":"message","type":"tuple","internalType":"struct Client.Any2EVMMessage","components":[{"name":"messageId","type":"bytes32","internalType":"bytes32"},{"name":"sourceChainSelector","type":"uint64","internalType":"uint64"},{"name":"sender","type":"bytes","internalType":"bytes"},{"name":"data","type":"bytes","internalType":"bytes"},{"name":"destTokenAmounts","type":"tuple[]","internalType":"struct Client.EVMTokenAmount[]","components":[{"name":"token","type":"address","internalType":"address"},{"name":"amount","type":"uint256","internalType":"uint256"}]}]}],"outputs":[],"stateMutability":"nonpayable"},{"type":"function","name":"convertEthToUsd","inputs":[{"name":"_ethAmount","type":"uint256","internalType":"uint256"}],"outputs":[{"name":"","type":"uint256","internalType":"uint256"}],"stateMutability":"view"},{"type":"function","name":"crossChainFactoryBySelector","inputs":[{"name":"_chainSelector","type":"uint64","internalType":"uint64"}],"outputs":[{"name":"","type":"address","internalType":"address"}],"stateMutability":"view"},{"type":"function","name":"crossChainToken","inputs":[{"name":"_chainSelector","type":"uint64","internalType":"uint64"}],"outputs":[{"name":"","type":"address","internalType":"address"}],"stateMutability":"view"},{"type":"function","name":"crossChainTokenSwapFee","inputs":[{"name":"_chainSelector","type":"uint64","internalType":"uint64"}],"outputs":[{"name":"","type":"uint24","internalType":"uint24"}],"stateMutability":"view"},{"type":"function","name":"currentChainSelector","inputs":[],"outputs":[{"name":"","type":"uint64","internalType":"uint64"}],"stateMutability":"view"},{"type":"function","name":"factoryStorage","inputs":[],"outputs":[{"name":"","type":"address","internalType":"contract IndexFactoryStorage"}],"stateMutability":"view"},{"type":"function","name":"feeRate","inputs":[],"outputs":[{"name":"","type":"uint8","internalType":"uint8"}],"stateMutability":"view"},{"type":"function","name":"feeReceiver","inputs":[],"outputs":[{"name":"","type":"address","internalType":"address"}],"stateMutability":"view"},{"type":"function","name":"getAmountOut","inputs":[{"name":"path","type":"address[]","internalType":"address[]"},{"name":"fees","type":"uint24[]","internalType":"uint24[]"},{"name":"amountIn","type":"uint256","internalType":"uint256"}],"outputs":[{"name":"finalAmountOut","type":"uint256","internalType":"uint256"}],"stateMutability":"view"},{"type":"function","name":"getPortfolioBalance","inputs":[],"outputs":[{"name":"","type":"uint256","internalType":"uint256"}],"stateMutability":"view"},{"type":"function","name":"getRouter","inputs":[],"outputs":[{"name":"","type":"address","internalType":"address"}],"stateMutability":"view"},{"type":"function","name":"i_link","inputs":[],"outputs":[{"name":"","type":"address","internalType":"address"}],"stateMutability":"view"},{"type":"function","name":"indexToken","inputs":[],"outputs":[{"name":"","type":"address","internalType":"contract IndexToken"}],"stateMutability":"view"},{"type":"function","name":"initialize","inputs":[{"name":"_currentChainSelector","type":"uint64","internalType":"uint64"},{"name":"_token","type":"address","internalType":"address payable"},{"name":"_chainlinkToken","type":"address","internalType":"address"},{"name":"_router","type":"address","internalType":"address"},{"name":"_weth","type":"address","internalType":"address"}],"outputs":[],"stateMutability":"nonpayable"},{"type":"function","name":"issuanceData","inputs":[{"name":"","type":"uint256","internalType":"uint256"}],"outputs":[{"name":"completedTokensCount","type":"uint256","internalType":"uint256"},{"name":"requester","type":"address","internalType":"address"},{"name":"inputAmount","type":"uint256","internalType":"uint256"},{"name":"inputToken","type":"address","internalType":"address"},{"name":"messageId","type":"bytes32","internalType":"bytes32"}],"stateMutability":"view"},{"type":"function","name":"issuanceIndexTokens","inputs":[{"name":"_tokenIn","type":"address","internalType":"address"},{"name":"_tokenInPath","type":"address[]","internalType":"address[]"},{"name":"_tokenInFees","type":"uint24[]","internalType":"uint24[]"},{"name":"_inputAmount","type":"uint256","internalType":"uint256"},{"name":"_crossChainFee","type":"uint256","internalType":"uint256"}],"outputs":[],"stateMutability":"nonpayable"},{"type":"function","name":"issuanceIndexTokensWithEth","inputs":[{"name":"_inputAmount","type":"uint256","internalType":"uint256"},{"name":"_crossChainFee","type":"uint256","internalType":"uint256"}],"outputs":[],"stateMutability":"payable"},{"type":"function","name":"issuanceNonce","inputs":[],"outputs":[{"name":"","type":"uint256","internalType":"uint256"}],"stateMutability":"view"},{"type":"function","name":"latestFeeUpdate","inputs":[],"outputs":[{"name":"","type":"uint256","internalType":"uint256"}],"stateMutability":"view"},{"type":"function","name":"owner","inputs":[],"outputs":[{"name":"","type":"address","internalType":"address"}],"stateMutability":"view"},{"type":"function","name":"priceInWei","inputs":[],"outputs":[{"name":"","type":"uint256","internalType":"uint256"}],"stateMutability":"view"},{"type":"function","name":"proposeOwner","inputs":[{"name":"_proposedOwner","type":"address","internalType":"address"}],"outputs":[],"stateMutability":"nonpayable"},{"type":"function","name":"proposedOwner","inputs":[],"outputs":[{"name":"","type":"address","internalType":"address"}],"stateMutability":"view"},{"type":"function","name":"redemption","inputs":[{"name":"amountIn","type":"uint256","internalType":"uint256"},{"name":"_crossChainFee","type":"uint256","internalType":"uint256"},{"name":"_tokenOut","type":"address","internalType":"address"},{"name":"_tokenOutPath","type":"address[]","internalType":"address[]"},{"name":"_tokenOutFees","type":"uint24[]","internalType":"uint24[]"}],"outputs":[],"stateMutability":"nonpayable"},{"type":"function","name":"redemptionData","inputs":[{"name":"","type":"uint256","internalType":"uint256"}],"outputs":[{"name":"totalValue","type":"uint256","internalType":"uint256"},{"name":"completedTokensCount","type":"uint256","internalType":"uint256"},{"name":"requester","type":"address","internalType":"address"},{"name":"outputToken","type":"address","internalType":"address"},{"name":"inputAmount","type":"uint256","internalType":"uint256"},{"name":"messageId","type":"bytes32","internalType":"bytes32"}],"stateMutability":"view"},{"type":"function","name":"redemptionNonce","inputs":[],"outputs":[{"name":"","type":"uint256","internalType":"uint256"}],"stateMutability":"view"},{"type":"function","name":"renounceOwnership","inputs":[],"outputs":[],"stateMutability":"nonpayable"},{"type":"function","name":"sendMessage","inputs":[{"name":"destinationChainSelector","type":"uint64","internalType":"uint64"},{"name":"receiver","type":"address","internalType":"address"},{"name":"_data","type":"bytes","internalType":"bytes"},{"name":"payFeesIn","type":"uint8","internalType":"enum MessageSender.PayFeesIn"}],"outputs":[{"name":"","type":"bytes32","internalType":"bytes32"}],"stateMutability":"nonpayable"},{"type":"function","name":"setFeeRate","inputs":[{"name":"_newFee","type":"uint8","internalType":"uint8"}],"outputs":[],"stateMutability":"nonpayable"},{"type":"function","name":"setFeeReceiver","inputs":[{"name":"_feeReceiver","type":"address","internalType":"address"}],"outputs":[],"stateMutability":"nonpayable"},{"type":"function","name":"setIndexFactoryStorage","inputs":[{"name":"_factoryStorage","type":"address","internalType":"address"}],"outputs":[],"stateMutability":"nonpayable"},{"type":"function","name":"supportsInterface","inputs":[{"name":"interfaceId","type":"bytes4","internalType":"bytes4"}],"outputs":[{"name":"","type":"bool","internalType":"bool"}],"stateMutability":"pure"},{"type":"function","name":"transferOwnership","inputs":[{"name":"newOwner","type":"address","internalType":"address"}],"outputs":[],"stateMutability":"nonpayable"},{"type":"function","name":"weth","inputs":[],"outputs":[{"name":"","type":"address","internalType":"contract IWETH"}],"stateMutability":"view"},{"type":"event","name":"Initialized","inputs":[{"name":"version","type":"uint8","indexed":false,"internalType":"uint8"}],"anonymous":false},{"type":"event","name":"Issuanced","inputs":[{"name":"messageId","type":"bytes32","indexed":true,"internalType":"bytes32"},{"name":"nonce","type":"uint256","indexed":true,"internalType":"uint256"},{"name":"user","type":"address","indexed":true,"internalType":"address"},{"name":"inputToken","type":"address","indexed":false,"internalType":"address"},{"name":"inputAmount","type":"uint256","indexed":false,"internalType":"uint256"},{"name":"outputAmount","type":"uint256","indexed":false,"internalType":"uint256"},{"name":"time","type":"uint256","indexed":false,"internalType":"uint256"}],"anonymous":false},{"type":"event","name":"MessageSent","inputs":[{"name":"messageId","type":"bytes32","indexed":false,"internalType":"bytes32"}],"anonymous":false},{"type":"event","name":"OwnershipTransferred","inputs":[{"name":"previousOwner","type":"address","indexed":true,"internalType":"address"},{"name":"newOwner","type":"address","indexed":true,"internalType":"address"}],"anonymous":false},{"type":"event","name":"Redemption","inputs":[{"name":"messageId","type":"bytes32","indexed":true,"internalType":"bytes32"},{"name":"nonce","type":"uint256","indexed":true,"internalType":"uint256"},{"name":"user","type":"address","indexed":true,"internalType":"address"},{"name":"outputToken","type":"address","indexed":false,"internalType":"address"},{"name":"inputAmount","type":"uint256","indexed":false,"internalType":"uint256"},{"name":"outputAmount","type":"uint256","indexed":false,"internalType":"uint256"},{"name":"time","type":"uint256","indexed":false,"internalType":"uint256"}],"anonymous":false},{"type":"event","name":"RequestIssuance","inputs":[{"name":"messageId","type":"bytes32","indexed":true,"internalType":"bytes32"},{"name":"nonce","type":"uint256","indexed":true,"internalType":"uint256"},{"name":"user","type":"address","indexed":true,"internalType":"address"},{"name":"inputToken","type":"address","indexed":false,"internalType":"address"},{"name":"inputAmount","type":"uint256","indexed":false,"internalType":"uint256"},{"name":"outputAmount","type":"uint256","indexed":false,"internalType":"uint256"},{"name":"time","type":"uint256","indexed":false,"internalType":"uint256"}],"anonymous":false},{"type":"event","name":"RequestRedemption","inputs":[{"name":"messageId","type":"bytes32","indexed":true,"internalType":"bytes32"},{"name":"nonce","type":"uint256","indexed":true,"internalType":"uint256"},{"name":"user","type":"address","indexed":true,"internalType":"address"},{"name":"outputToken","type":"address","indexed":false,"internalType":"address"},{"name":"inputAmount","type":"uint256","indexed":false,"internalType":"uint256"},{"name":"outputAmount","type":"uint256","indexed":false,"internalType":"uint256"},{"name":"time","type":"uint256","indexed":false,"internalType":"uint256"}],"anonymous":false},{"type":"error","name":"InvalidRouter","inputs":[{"name":"router","type":"address","internalType":"address"}]}],"bytecode":{"object":"0x6080604052348015600e575f80fd5b506163118061001c5f395ff3fe60806040526004361061021c575f3560e01c8063978bbdb911610129578063c086381e116100a8578063d28c00fc1161006d578063d28c00fc14610732578063dfbd389714610759578063e7d015f214610778578063efdcd97414610797578063f2fde38b146107b6575f80fd5b8063c086381e146106a1578063c9172ef7146106c0578063cc8659ae146106d5578063ce4793e1146106f4578063d153b60c14610713575f80fd5b8063b0f479a1116100ee578063b0f479a114610603578063b3f0067414610625578063b5ed298a14610644578063bcab90b314610663578063c06e1ae214610682575f80fd5b8063978bbdb9146104f25780639dbb9c9e146105125780639ff73f4514610527578063a8509fd81461055a578063aa4379c01461056e575f80fd5b806341d11817116101b55780637d253aff1161017a5780637d253aff1461046e57806384d77bb11461048d57806385572ffb146104a25780638da5cb5b146104c157806392f6576e146104de575f80fd5b806341d11817146103e35780635177942a146103f657806358c0f10d14610415578063633777331461043b578063715018a61461045a575f80fd5b8063011ced5f1461022757806301ffc9a71461024f57806316b487ff1461027e57806319da7e2a1461029f5780632d6fc6b3146102cb578063340fbc74146103535780633c8da588146103725780633d54cb6f146103865780633fc8cef3146103bd575f80fd5b3661022357005b5f80fd5b348015610232575f80fd5b5061023c60cd5481565b6040519081526020015b60405180910390f35b34801561025a575f80fd5b5061026e610269366004615021565b6107d5565b6040519015158152602001610246565b348015610289575f80fd5b5061029d610298366004615080565b61080b565b005b3480156102aa575f80fd5b506102be6102b93660046150ed565b610bd4565b6040516102469190615108565b3480156102d6575f80fd5b506103216102e536600461511c565b60d26020525f90815260409020600181015460028201546003830154600484015460059094015492936001600160a01b03928316939192169085565b604080519586526001600160a01b0394851660208701528501929092529091166060830152608082015260a001610246565b34801561035e575f80fd5b506102be61036d3660046150ed565b610c48565b34801561037d575f80fd5b5061023c610c81565b348015610391575f80fd5b5060ce546103a5906001600160401b031681565b6040516001600160401b039091168152602001610246565b3480156103c8575f80fd5b5060ce546102be90600160401b90046001600160a01b031681565b61029d6103f1366004615133565b610cf1565b348015610401575f80fd5b5061029d610410366004615153565b610f63565b348015610420575f80fd5b50610429600181565b60405160ff9091168152602001610246565b348015610446575f80fd5b5061029d61045536600461530a565b611090565b348015610465575f80fd5b5061029d61154c565b348015610479575f80fd5b5060cb546102be906001600160a01b031681565b348015610498575f80fd5b5061023c60d05481565b3480156104ad575f80fd5b5061029d6104bc366004615391565b61155f565b3480156104cc575f80fd5b506033546001600160a01b03166102be565b3480156104e9575f80fd5b50610429606481565b3480156104fd575f80fd5b5060cc5461042990600160a01b900460ff1681565b34801561051d575f80fd5b5061023c60cf5481565b348015610532575f80fd5b506105466105413660046150ed565b6115a5565b60405162ffffff9091168152602001610246565b348015610565575f80fd5b5061023c611634565b348015610579575f80fd5b506105c961058836600461511c565b60d36020525f9081526040902080546001820154600283015460038401546006850154600790950154939492936001600160a01b0392831693919092169186565b6040805196875260208701959095526001600160a01b039384169486019490945291166060840152608083015260a082015260c001610246565b34801561060e575f80fd5b505f546201000090046001600160a01b03166102be565b348015610630575f80fd5b5060d1546102be906001600160a01b031681565b34801561064f575f80fd5b5061029d61065e3660046153c7565b611a3b565b34801561066e575f80fd5b5061023c61067d366004615455565b611a8b565b34801561068d575f80fd5b5060ca546102be906001600160a01b031681565b3480156106ac575f80fd5b5061023c6106bb36600461511c565b611b8a565b3480156106cb575f80fd5b5061023c61a8c081565b3480156106e0575f80fd5b5061029d6106ef3660046153c7565b611bb0565b3480156106ff575f80fd5b5061029d61070e3660046154c8565b611bda565b34801561071e575f80fd5b506065546102be906001600160a01b031681565b34801561073d575f80fd5b50610746600581565b60405161ffff9091168152602001610246565b348015610764575f80fd5b5061023c61077336600461554d565b611f5e565b348015610783575f80fd5b5060cc546102be906001600160a01b031681565b3480156107a2575f80fd5b5061029d6107b13660046153c7565b611fd9565b3480156107c1575f80fd5b5061029d6107d03660046153c7565b612003565b5f6001600160e01b031982166385572ffb60e01b148061080557506001600160e01b031982166301ffc9a760e01b145b92915050565b5f54610100900460ff161580801561082957505f54600160ff909116105b806108425750303b15801561084257505f5460ff166001145b6108aa5760405162461bcd60e51b815260206004820152602e60248201527f496e697469616c697a61626c653a20636f6e747261637420697320616c72656160448201526d191e481a5b9a5d1a585b1a5e995960921b60648201526084015b60405180910390fd5b5f805460ff1916600117905580156108cb575f805461ff0019166101001790555b5f866001600160401b03161161091c5760405162461bcd60e51b815260206004820152601660248201527524b73b30b634b21031b430b4b71039b2b632b1ba37b960511b60448201526064016108a1565b6001600160a01b03851661096a5760405162461bcd60e51b8152602060048201526015602482015274496e76616c696420746f6b656e206164647265737360581b60448201526064016108a1565b6001600160a01b0384166109c05760405162461bcd60e51b815260206004820152601f60248201527f496e76616c696420436861696e6c696e6b20746f6b656e20616464726573730060448201526064016108a1565b6001600160a01b038316610a0f5760405162461bcd60e51b8152602060048201526016602482015275496e76616c696420726f75746572206164647265737360501b60448201526064016108a1565b6001600160a01b038216610a5c5760405162461bcd60e51b8152602060048201526014602482015273496e76616c69642057455448206164647265737360601b60448201526064016108a1565b610a6583612128565b610a6d6121a0565b610a756121ce565b610a7d6121f8565b60ce80546001600160401b03881667ffffffffffffffff1990911617905560cc80546001600160a01b038088166001600160a01b03199283161790925560cb80548784169216821790555f5460405163095ea7b360e01b8152919263095ea7b392610af792620100009004909116905f19906004016155b9565b6020604051808303815f875af1158015610b13573d5f803e3d5ffd5b505050506040513d601f19601f82011682018060405250810190610b3791906155d2565b5060ce8054600160401b600160e01b031916600160401b6001600160a01b0385160217905560cc805460ff60a01b1916600560a11b1790554260cd5560d18054336001600160a01b03199091161790558015610bcc575f805461ff0019169055604051600181527f7f26b83ff96e1f2b6a682f133852f6798a09c465da95921460cefb38474024989060200160405180910390a15b505050505050565b60ca54604051630ced3f1560e11b81526001600160401b03831660048201525f916001600160a01b0316906319da7e2a906024015b602060405180830381865afa158015610c24573d5f803e3d5ffd5b505050506040513d601f19601f8201168201806040525081019061080591906155f1565b60ca54604051630d03ef1d60e21b81526001600160401b03831660048201525f916001600160a01b03169063340fbc7490602401610c09565b60ca5460408051630791b4b160e31b815290515f926001600160a01b031691633c8da5889160048083019260209291908290030181865afa158015610cc8573d5f803e3d5ffd5b505050506040513d601f19601f82011682018060405250810190610cec919061560c565b905090565b5f8211610d105760405162461bcd60e51b81526004016108a190615623565b81341015610d585760405162461bcd60e51b8152602060048201526015602482015274125b9cdd59999a58da595b9d08115512081cd95b9d605a1b60448201526064016108a1565b5f610d728360cc60149054906101000a900460ff16612225565b90505f82610d80838661567d565b610d8a919061567d565b905080341015610ddc5760405162461bcd60e51b815260206004820152601a60248201527f6c6f776572207468616e20726571756972656420616d6f756e7400000000000060448201526064016108a1565b60ce60089054906101000a90046001600160a01b03166001600160a01b031663d0e30db0826040518263ffffffff1660e01b81526004015f604051808303818588803b158015610e2a575f80fd5b505af1158015610e3c573d5f803e3d5ffd5b505060ce5460d15460405163a9059cbb60e01b81526001600160a01b03600160401b9093048316955063a9059cbb9450610e7e935091169086906004016155b9565b6020604051808303815f875af1158015610e9a573d5f803e3d5ffd5b505050506040513d601f19601f82011682018060405250810190610ebe91906155d2565b610eda5760405162461bcd60e51b81526004016108a190615690565b60cf8054905f610ee9836156bd565b909155505060cf80545f90815260d260205260408082206002018054336001600160a01b0319918216179091558354835281832060030188905560ce8054945484529190922060040180546001600160a01b03600160401b9586900481169190941617905554610f5d929004168585612240565b50505050565b610f6b6124e8565b61a8c060cd5442610f7c91906156d5565b1015610fec5760405162461bcd60e51b815260206004820152603960248201527f596f752073686f756c642077616974206174206c6561737420313220686f75726044820152787320616674657220746865206c61746573742075706461746560381b60648201526084016108a1565b606460ff8216118015906110045750600160ff821610155b61106c5760405162461bcd60e51b815260206004820152603360248201527f546865206e65774665652073686f756c64206265206265747765656e203120616044820152726e64203130302028302e303125202d2031252960681b60648201526084016108a1565b60cc805460ff909216600160a01b0260ff60a01b199092169190911790554260cd55565b5f85116110af5760405162461bcd60e51b81526004016108a1906156e8565b6001600160a01b0383166111055760405162461bcd60e51b815260206004820152601c60248201527f496e76616c6964206f757470757420746f6b656e20616464726573730000000060448201526064016108a1565b60cc54604080516318160ddd60e01b815290515f926001600160a01b0316916318160ddd9160048083019260209291908290030181865afa15801561114c573d5f803e3d5ffd5b505050506040513d601f19601f82011682018060405250810190611170919061560c565b61118287670de0b6b3a764000061571d565b61118c9190615734565b9050600160d05f8282546111a0919061567d565b909155505060d080545f90815260d3602090815260408083206002018054336001600160a01b0319918216179091558454845281842060030180549091166001600160a01b038a16179055835483528083206006018a905592548252919020845161121392600490920191860190614f0a565b5060d0545f90815260d360209081526040909120835161123b92600590920191850190614f6d565b5060cc54604051632770a7eb60e21b81526001600160a01b0390911690639dc29fac9061126e9033908a906004016155b9565b5f604051808303815f87803b158015611285575f80fd5b505af1158015611297573d5f803e3d5ffd5b505050505f60ca5f9054906101000a90046001600160a01b03166001600160a01b03166369487b1c6040518163ffffffff1660e01b8152600401602060405180830381865afa1580156112ec573d5f803e3d5ffd5b505050506040513d601f19601f82011682018060405250810190611310919061560c565b90505f60ca5f9054906101000a90046001600160a01b03166001600160a01b031663b90b8a2a6040518163ffffffff1660e01b8152600401602060405180830381865afa158015611363573d5f803e3d5ffd5b505050506040513d601f19601f82011682018060405250810190611387919061560c565b60ca546040516369fbf93360e11b8152600481018390529192505f916001600160a01b039091169063d3f7f266906024015f60405180830381865afa1580156113d2573d5f803e3d5ffd5b505050506040513d5f823e601f3d908101601f191682016040526113f99190810190615812565b925050505f5b838110156114df575f82828151811061141a5761141a6158ff565b602090810291909101015160ca5460405163b6ad185b60e01b81526001600160401b03831660048201529192505f916001600160a01b039091169063b6ad185b90602401602060405180830381865afa158015611479573d5f803e3d5ffd5b505050506040513d601f19601f8201168201806040525081019061149d919061560c565b60ce549091506001600160401b03908116908316036114c8576114c38760d05483612542565b6114d5565b6114d58760d054846128d7565b50506001016113ff565b50336001600160a01b031660d05460d35f60d05481526020019081526020015f20600701547f4f9e9bfb3670784096375593cb821e86bd88b1fcb08efc38330012d8c33c3e368a8d5f426040516115399493929190615913565b60405180910390a4505050505050505050565b6115546124e8565b61155d5f612ac8565b565b5f546201000090046001600160a01b0316331461159157336040516335fdcccd60e21b81526004016108a19190615108565b6115a261159d826159c2565b612b19565b50565b5f806115b083610bd4565b60ca54604051633291aa5760e11b81526001600160401b03861660048201526001600160a01b03808416602483015292935091169063652354ae90604401602060405180830381865afa158015611609573d5f803e3d5ffd5b505050506040513d601f19601f8201168201806040525081019061162d9190615a73565b9392505050565b5f805f60ca5f9054906101000a90046001600160a01b03166001600160a01b03166353fd43326040518163ffffffff1660e01b8152600401602060405180830381865afa158015611687573d5f803e3d5ffd5b505050506040513d601f19601f820116820180604052508101906116ab919061560c565b90505f60ca5f9054906101000a90046001600160a01b03166001600160a01b031663fbfa77cf6040518163ffffffff1660e01b8152600401602060405180830381865afa1580156116fe573d5f803e3d5ffd5b505050506040513d601f19601f8201168201806040525081019061172291906155f1565b90505f5b82811015611a325760ca5460405163264cae9360e21b8152600481018390525f916001600160a01b031690639932ba4c90602401602060405180830381865afa158015611775573d5f803e3d5ffd5b505050506040513d601f19601f8201168201806040525081019061179991906155f1565b60ca54604051633aa3b3c160e21b81529192505f916001600160a01b039091169063ea8ecf04906117ce908590600401615108565b602060405180830381865afa1580156117e9573d5f803e3d5ffd5b505050506040513d601f19601f8201168201806040525081019061180d9190615a8e565b60ca5460405163e6096a5f60e01b81529192505f9182916001600160a01b03169063e6096a5f90611842908790600401615108565b5f60405180830381865afa15801561185c573d5f803e3d5ffd5b505050506040513d5f823e601f3d908101601f191682016040526118839190810190615aa9565b60ce5491935091506001600160401b0390811690841603611a225760ce546001600160a01b03600160401b909104811690851603611937576040516370a0823160e01b81526001600160a01b038516906370a08231906118e7908990600401615108565b602060405180830381865afa158015611902573d5f803e3d5ffd5b505050506040513d601f19601f82011682018060405250810190611926919061560c565b611930908961567d565b9750611a22565b60ca546040516370a0823160e01b81525f916001600160a01b039081169163dfbd389791869186918a16906370a0823190611976908e90600401615108565b602060405180830381865afa158015611991573d5f803e3d5ffd5b505050506040513d601f19601f820116820180604052508101906119b5919061560c565b6040518463ffffffff1660e01b81526004016119d393929190615bb1565b602060405180830381865afa1580156119ee573d5f803e3d5ffd5b505050506040513d601f19601f82011682018060405250810190611a12919061560c565b9050611a1e818a61567d565b9850505b5050600190920191506117269050565b50919392505050565b611a436124e8565b6001600160a01b038116611a695760405162461bcd60e51b81526004016108a190615c16565b606580546001600160a01b0319166001600160a01b0392909216919091179055565b5f80856001600160401b031611611aef5760405162461bcd60e51b815260206004820152602260248201527f496e76616c69642064657374696e6174696f6e20636861696e2073656c65637460448201526137b960f11b60648201526084016108a1565b6001600160a01b038416611b155760405162461bcd60e51b81526004016108a190615c66565b5f835111611b5c5760405162461bcd60e51b8152602060048201526014602482015273446174612063616e6e6f7420626520656d70747960601b60448201526064016108a1565b5f5460cb54611b81916001600160a01b03620100009091048116911687878787612bf4565b95945050505050565b5f670de0b6b3a7640000611b9c610c81565b611ba6908461571d565b6108059190615734565b611bb86124e8565b60ca80546001600160a01b0319166001600160a01b0392909216919091179055565b6001600160a01b038516611c305760405162461bcd60e51b815260206004820152601b60248201527f496e76616c696420696e70757420746f6b656e2061646472657373000000000060448201526064016108a1565b5f8211611c4f5760405162461bcd60e51b81526004016108a190615623565b60ca5460408051633fc8cef360e01b815290515f926001600160a01b031691633fc8cef39160048083019260209291908290030181865afa158015611c96573d5f803e3d5ffd5b505050506040513d601f19601f82011682018060405250810190611cba91906155f1565b90505f60ca5f9054906101000a90046001600160a01b03166001600160a01b031663fbfa77cf6040518163ffffffff1660e01b8152600401602060405180830381865afa158015611d0d573d5f803e3d5ffd5b505050506040513d601f19601f82011682018060405250810190611d3191906155f1565b90505f611d4d8560cc60149054906101000a900460ff16612225565b60cf80549192505f611d5e836156bd565b909155505060cf80545f90815260d2602052604080822060020180546001600160a01b031990811633908117909255845484528284206003018a905593548352912060040180546001600160a01b038c169316831790556323b872dd9030611dc6858a61567d565b6040518463ffffffff1660e01b8152600401611de493929190615c98565b6020604051808303815f875af1158015611e00573d5f803e3d5ffd5b505050506040513d601f19601f82011682018060405250810190611e2491906155d2565b611e685760405162461bcd60e51b8152602060048201526015602482015274151bdad95b881d1c985b9cd9995c8819985a5b1959605a1b60448201526064016108a1565b5f611e7e8888611e78858a61567d565b30612f9d565b60cc549091505f9061271090611e9e90600160a01b900460ff168461571d565b611ea89190615734565b90505f611eb582846156d5565b60d15460405163a9059cbb60e01b81529192506001600160a01b038089169263a9059cbb92611eea92169086906004016155b9565b6020604051808303815f875af1158015611f06573d5f803e3d5ffd5b505050506040513d601f19601f82011682018060405250810190611f2a91906155d2565b611f465760405162461bcd60e51b81526004016108a190615690565b611f518b8289612240565b5050505050505050505050565b60ca5460405163dfbd389760e01b81525f916001600160a01b03169063dfbd389790611f9290879087908790600401615bb1565b602060405180830381865afa158015611fad573d5f803e3d5ffd5b505050506040513d601f19601f82011682018060405250810190611fd1919061560c565b949350505050565b611fe16124e8565b60d180546001600160a01b0319166001600160a01b0392909216919091179055565b6001600160a01b0381166120295760405162461bcd60e51b81526004016108a190615c16565b6065546001600160a01b038281169116146120a15760405162461bcd60e51b815260206004820152603260248201527f50726f706f7361626c654f776e61626c653a206e6577206f776e6572206973206044820152713737ba10383937b837b9b2b21037bbb732b960711b60648201526084016108a1565b6001600160a01b038116331461211f5760405162461bcd60e51b815260206004820152603a60248201527f50726f706f7361626c654f776e61626c653a20746869732063616c6c206d757360448201527f74206265206d61646520627920746865206e6577206f776e657200000000000060648201526084016108a1565b6115a281612ac8565b5f54610100900460ff1661214e5760405162461bcd60e51b81526004016108a190615cbc565b6001600160a01b038116612177575f6040516335fdcccd60e21b81526004016108a19190615108565b5f80546001600160a01b03909216620100000262010000600160b01b0319909216919091179055565b5f54610100900460ff166121c65760405162461bcd60e51b81526004016108a190615cbc565b61155d6130a5565b5f54610100900460ff166121f45760405162461bcd60e51b81526004016108a190615cbc565b61155d5b5f54610100900460ff1661221e5760405162461bcd60e51b81526004016108a190615cbc565b6001609855565b5f61271061223660ff84168561571d565b61162d9190615734565b60ca5460408051631a521ec760e21b8152905184925f926001600160a01b03909116916369487b1c916004808201926020929091908290030181865afa15801561228c573d5f803e3d5ffd5b505050506040513d601f19601f820116820180604052508101906122b0919061560c565b90505f60ca5f9054906101000a90046001600160a01b03166001600160a01b031663b90b8a2a6040518163ffffffff1660e01b8152600401602060405180830381865afa158015612303573d5f803e3d5ffd5b505050506040513d601f19601f82011682018060405250810190612327919061560c565b60ca546040516369fbf93360e11b8152600481018390529192505f916001600160a01b039091169063d3f7f266906024015f60405180830381865afa158015612372573d5f803e3d5ffd5b505050506040513d5f823e601f3d908101601f191682016040526123999190810190615812565b925050505f5b83811015612482575f8282815181106123ba576123ba6158ff565b602090810291909101015160ca5460405163b6ad185b60e01b81526001600160401b03831660048201529192505f916001600160a01b039091169063b6ad185b90602401602060405180830381865afa158015612419573d5f803e3d5ffd5b505050506040513d601f19601f8201168201806040525081019061243d919061560c565b60ce549091506001600160401b039081169083160361246a576124658760cf548385896130d4565b612478565b6124788760cf5484886134d3565b505060010161239f565b5060cf545f81815260d260205260408082206005810154600390910154915133949391927f497983feda2f53898206317c0b392bffd918715fad18aaedf4ac296f7ec6bf3d926124d7928e9291904290615913565b60405180910390a450505050505050565b6033546001600160a01b0316331461155d5760405162461bcd60e51b815260206004820181905260248201527f4f776e61626c653a2063616c6c6572206973206e6f7420746865206f776e657260448201526064016108a1565b60ca5460ce5460405163d1c68aa360e01b81526001600160401b0390911660048201525f916001600160a01b03169063d1c68aa3906024015f60405180830381865afa158015612594573d5f803e3d5ffd5b505050506040513d5f823e601f3d908101601f191682016040526125bb9190810190615d07565b90505f60ca5f9054906101000a90046001600160a01b03166001600160a01b031663fbfa77cf6040518163ffffffff1660e01b8152600401602060405180830381865afa15801561260e573d5f803e3d5ffd5b505050506040513d601f19601f8201168201806040525081019061263291906155f1565b90505f5b83811015610bcc575f838281518110612651576126516158ff565b602090810291909101015160ca5460405163e6096a5f60e01b81529192505f9182916001600160a01b03169063e6096a5f90612691908690600401615108565b5f60405180830381865afa1580156126ab573d5f803e3d5ffd5b505050506040513d5f823e601f3d908101601f191682016040526126d29190810190615aa9565b915091505f670de0b6b3a7640000846001600160a01b03166370a0823160ca5f9054906101000a90046001600160a01b03166001600160a01b031663fbfa77cf6040518163ffffffff1660e01b8152600401602060405180830381865afa15801561273f573d5f803e3d5ffd5b505050506040513d601f19601f8201168201806040525081019061276391906155f1565b6040518263ffffffff1660e01b815260040161277f9190615108565b602060405180830381865afa15801561279a573d5f803e3d5ffd5b505050506040513d601f19601f820116820180604052508101906127be919061560c565b6127c8908c61571d565b6127d29190615734565b604051631c20fadd60e01b81529091506001600160a01b03871690631c20fadd9061280590879030908690600401615c98565b6020604051808303815f875af1158015612821573d5f803e3d5ffd5b505050506040513d601f19601f8201168201806040525081019061284591906155d2565b5060ce545f906001600160a01b03868116600160401b90920416146128755761287084848430612f9d565b612877565b815b5f8b815260d3602052604081208054929350839290919061289990849061567d565b90915550505f8a815260d36020526040812060019081018054919290916128c190849061567d565b9091555050600190950194506126369350505050565b5f6128e182610c48565b60ca5460405163d1c68aa360e01b81526001600160401b03851660048201529192505f916001600160a01b039091169063d1c68aa3906024015f60405180830381865afa158015612934573d5f803e3d5ffd5b505050506040513d5f823e601f3d908101601f1916820160405261295b9190810190615d07565b6040805160018082528183019092529192505f91906020808301908036833701905050905085815f81518110612993576129936158ff565b60209081029190910101525f600183826040519080825280602002602001820160405280156129cc578160200160208202803683370190505b5060ca546040516307fb214560e41b81526001600160a01b0390911690637fb21450906129fd908990600401615d38565b5f60405180830381865afa158015612a17573d5f803e3d5ffd5b505050506040513d5f823e601f3d908101601f19168201604052612a3e9190810190615e08565b604080515f8082526020820190925290612a68565b6060815260200190600190039081612a535790505b50604080515f8152602081018252612a8b9695949392918d91908a908201615ef1565b60405160208183030381529060405290505f612aaa8686846001611a8b565b5f97885260d360205260409097206007019690965550505050505050565b603380546001600160a01b038381166001600160a01b0319831681179093556040519116919082907f8be0079c531659141344cd1fd0a4f28419497f9722a3daafe3b4186f6b6457e0905f90a35050565b805160208083015160ca54604080516329fea19960e11b8152905192935f936001600160a01b03909316926353fd43329260048082019392918290030181865afa158015612b69573d5f803e3d5ffd5b505050506040513d601f19601f82011682018060405250810190612b8d919061560c565b90505f805f805f8860600151806020019051810190612bac9190615f85565b97509750975050505094509450845f03612bd357612bce838584848a8d61370a565b612be9565b84600103612be957612be9838a86898b8d613853565b505050505050505050565b5f6001600160a01b038716612c465760405162461bcd60e51b8152602060048201526018602482015277496e76616c696420695f726f75746572206164647265737360401b60448201526064016108a1565b6001600160a01b038616612c955760405162461bcd60e51b8152602060048201526016602482015275496e76616c696420695f6c696e6b206164647265737360501b60448201526064016108a1565b846001600160401b03165f03612ced5760405162461bcd60e51b815260206004820181905260248201527f496e76616c69642064657374696e6174696f6e436861696e53656c6563746f7260448201526064016108a1565b6001600160a01b038416612d135760405162461bcd60e51b81526004016108a190615c66565b5f835111612d525760405162461bcd60e51b815260206004820152600c60248201526b496e76616c6964206461746160a01b60448201526064016108a1565b5f6040518060a0016040528086604051602001612d6f9190615108565b60408051808303601f19018152918152908252602080830188905281515f8082529181018352929091019190612dc6565b604080518082019091525f8082526020820152815260200190600190039081612da05790505b5081526020016001856001811115612de057612de06160a2565b14612deb575f612ded565b885b6001600160a01b03168152602001612e156040518060200160405280622dc6c08152506139a3565b90526040516320487ded60e01b81529091505f906001600160a01b038a16906320487ded90612e4a908a9086906004016160b6565b602060405180830381865afa158015612e65573d5f803e3d5ffd5b505050506040513d601f19601f82011682018060405250810190612e89919061560c565b90505f6001856001811115612ea057612ea06160a2565b03612f1a576040516396f4e9f960e01b81526001600160a01b038b16906396f4e9f990612ed3908b9087906004016160b6565b6020604051808303815f875af1158015612eef573d5f803e3d5ffd5b505050506040513d601f19601f82011682018060405250810190612f13919061560c565b9050612f8e565b6040516396f4e9f960e01b81526001600160a01b038b16906396f4e9f9908490612f4a908c9088906004016160b6565b60206040518083038185885af1158015612f66573d5f803e3d5ffd5b50505050506040513d601f19601f82011682018060405250810190612f8b919061560c565b90505b925050505b9695505050505050565b5f8060ca5f9054906101000a90046001600160a01b03166001600160a01b031663b631e80b6040518163ffffffff1660e01b8152600401602060405180830381865afa158015612fef573d5f803e3d5ffd5b505050506040513d601f19601f8201168201806040525081019061301391906155f1565b90505f60ca5f9054906101000a90046001600160a01b03166001600160a01b031663744fbc7a6040518163ffffffff1660e01b8152600401602060405180830381865afa158015613066573d5f803e3d5ffd5b505050506040513d601f19601f8201168201806040525081019061308a91906155f1565b905061309a8282898989896139e0565b979650505050505050565b5f54610100900460ff166130cb5760405162461bcd60e51b81526004016108a190615cbc565b61155d33612ac8565b60ca5460405163d1c68aa360e01b81526001600160401b03841660048201525f916001600160a01b03169063d1c68aa3906024015f60405180830381865afa158015613122573d5f803e3d5ffd5b505050506040513d5f823e601f3d908101601f191682016040526131499190810190615d07565b90505f5b848110156134ca575f828281518110613168576131686158ff565b602090810291909101015160ca5460405163241321e560e21b81529192505f9182916001600160a01b03169063904c8794906131a8908690600401615108565b5f60405180830381865afa1580156131c2573d5f803e3d5ffd5b505050506040513d5f823e601f3d908101601f191682016040526131e99190810190615aa9565b915091506131f683613a27565b5f8a815260d2602090815260408083206001600160a01b03808916855292528083209390935560ca549251630be5271360e01b815291921690630be5271390613243908790600401615108565b602060405180830381865afa15801561325e573d5f803e3d5ffd5b505050506040513d601f19601f82011682018060405250810190613282919061560c565b90505f68056bc75e2d63100000613299838e61571d565b6132a39190615734565b60ce549091506001600160a01b03868116600160401b90920416146133475761334184848360ca5f9054906101000a90046001600160a01b03166001600160a01b031663fbfa77cf6040518163ffffffff1660e01b8152600401602060405180830381865afa158015613318573d5f803e3d5ffd5b505050506040513d601f19601f8201168201806040525081019061333c91906155f1565b612f9d565b50613424565b60ce5460ca546040805163fbfa77cf60e01b815290516001600160a01b03600160401b90940484169363a9059cbb93169163fbfa77cf9160048083019260209291908290030181865afa1580156133a0573d5f803e3d5ffd5b505050506040513d601f19601f820116820180604052508101906133c491906155f1565b836040518363ffffffff1660e01b81526004016133e29291906155b9565b6020604051808303815f875af11580156133fe573d5f803e3d5ffd5b505050506040513d601f19601f8201168201806040525081019061342291906155d2565b505b61344568056bc75e2d6310000061343b848f61571d565b6106bb9190615734565b5f8c815260d2602090815260408083206001600160a01b038a168452909152902054613471919061567d565b5f8c815260d2602081815260408084206001600160a01b038b1685528083529084206001908101959095558f8452919052820180549091906134b490849061567d565b90915550506001909501945061314d9350505050565b50505050505050565b60ca54604051632a3ff8ad60e01b8152600481018390526001600160401b03841660248201525f916001600160a01b031690632a3ff8ad90604401602060405180830381865afa158015613529573d5f803e3d5ffd5b505050506040513d601f19601f8201168201806040525081019061354d919061560c565b6040805160018082528183019092529192505f91906020808301908036833701905050905081815f81518110613585576135856158ff565b6020026020010181815250505f61359d878685613c8b565b60ca5460405163d1c68aa360e01b81526001600160401b03881660048201529192505f916001600160a01b039091169063d1c68aa3906024015f60405180830381865afa1580156135f0573d5f803e3d5ffd5b505050506040513d5f823e601f3d908101601f191682016040526136179190810190615d07565b60ca54604051632bda5acd60e21b81526001600160401b03891660048201529192505f916001600160a01b039091169063af696b34906024015f60405180830381865afa15801561366a573d5f803e3d5ffd5b505050506040513d5f823e601f3d908101601f191682016040526136919190810190616189565b90505f61369d88610c48565b90505f6136af8a8a87858a8989613d31565b90507f54791b38f3859327992a1ca0590ad3c0f08feba98d1a4f56ab0dca74d203392a816040516136e291815260200190565b60405180910390a15f998a5260d2602052604090992060050198909855505050505050505050565b855f5b8651811015613830575f868281518110613729576137296158ff565b602002602001015190505f868381518110613746576137466158ff565b602002602001015190508160d25f8681526020019081526020015f205f015f8b8681518110613777576137776158ff565b60200260200101516001600160a01b03166001600160a01b031681526020019081526020015f205f01819055508060d25f8681526020019081526020015f205f015f8b86815181106137cb576137cb6158ff565b60200260200101516001600160a01b03166001600160a01b031681526020019081526020015f2060010181905550600160d25f8681526020019081526020015f206001015f82825461381d919061567d565b90915550506001909201915061370d9050565b505f81815260d260205260409020600101548390036134ca576134ca8183613dfe565b608085015180518791905f908290829061386f5761386f6158ff565b60200260200101515f015190505f825f8151811061388f5761388f6158ff565b602090810291909101810151015160ca5460405163e6096a5f60e01b81529192505f9182916001600160a01b03169063e6096a5f906138d2908790600401615108565b5f60405180830381865afa1580156138ec573d5f803e3d5ffd5b505050506040513d5f823e601f3d908101601f191682016040526139139190810190615aa9565b915091505f61392483838630612f9d565b5f88815260d3602052604081208054929350839290919061394690849061567d565b90915550508a515f88815260d360205260408120600101805490919061396d90849061567d565b90915550505f87815260d360205260409020600101548a90036139945761399487896141d8565b50505050505050505050505050565b60408051915160248084019190915281518084039091018152604490920190526020810180516001600160e01b03166397a657c960e01b17905290565b5f808311613a005760405162461bcd60e51b81526004016108a1906156e8565b835115613a1b57613a1487868686866145b0565b9050612f93565b61309a868685856146ec565b60ca5460405163e6096a5f60e01b81525f91829182916001600160a01b03169063e6096a5f90613a5b908790600401615108565b5f60405180830381865afa158015613a75573d5f803e3d5ffd5b505050506040513d5f823e601f3d908101601f19168201604052613a9c9190810190615aa9565b60ce5491935091505f906001600160a01b03868116600160401b9092041614613baa57613ba56106bb8484886001600160a01b03166370a0823160ca5f9054906101000a90046001600160a01b03166001600160a01b031663fbfa77cf6040518163ffffffff1660e01b8152600401602060405180830381865afa158015613b26573d5f803e3d5ffd5b505050506040513d601f19601f82011682018060405250810190613b4a91906155f1565b6040518263ffffffff1660e01b8152600401613b669190615108565b602060405180830381865afa158015613b81573d5f803e3d5ffd5b505050506040513d601f19601f82011682018060405250810190610773919061560c565b611b81565b611b81856001600160a01b03166370a0823160ca5f9054906101000a90046001600160a01b03166001600160a01b031663fbfa77cf6040518163ffffffff1660e01b8152600401602060405180830381865afa158015613c0c573d5f803e3d5ffd5b505050506040513d601f19601f82011682018060405250810190613c3091906155f1565b6040518263ffffffff1660e01b8152600401613c4c9190615108565b602060405180830381865afa158015613c67573d5f803e3d5ffd5b505050506040513d601f19601f820116820180604052508101906106bb919061560c565b60ca545f90819081906001600160a01b031663904c8794613cab87610bd4565b6040518263ffffffff1660e01b8152600401613cc79190615108565b5f60405180830381865afa158015613ce1573d5f803e3d5ffd5b505050506040513d5f823e601f3d908101601f19168201604052613d089190810190615aa9565b90925090505f61309a838368056bc75e2d63100000613d27898c61571d565b611e789190615734565b6040805160018082528183019092525f91829190816020015b604080518082019091525f8082526020820152815260200190600190039081613d4a579050509050613d7b88610bd4565b815f81518110613d8d57613d8d6158ff565b60200260200101515f01906001600160a01b031690816001600160a01b03168152505086815f81518110613dc357613dc36158ff565b602002602001015160200181815250505f613de08a87878761487a565b9050613df08982898560016149ab565b9a9950505050505050505050565b5f805f60ca5f9054906101000a90046001600160a01b03166001600160a01b03166353fd43326040518163ffffffff1660e01b8152600401602060405180830381865afa158015613e51573d5f803e3d5ffd5b505050506040513d601f19601f82011682018060405250810190613e75919061560c565b90505f5b81811015613f585760ca5460405163264cae9360e21b8152600481018390525f916001600160a01b031690639932ba4c90602401602060405180830381865afa158015613ec8573d5f803e3d5ffd5b505050506040513d601f19601f82011682018060405250810190613eec91906155f1565b5f88815260d2602090815260408083206001600160a01b0385168452909152902054909150613f1b908661567d565b5f88815260d2602090815260408083206001600160a01b0386168452909152902060010154909550613f4d908561567d565b935050600101613e79565b505f8060cc5f9054906101000a90046001600160a01b03166001600160a01b03166318160ddd6040518163ffffffff1660e01b8152600401602060405180830381865afa158015613fab573d5f803e3d5ffd5b505050506040513d601f19601f82011682018060405250810190613fcf919061560c565b11156140e45760cc5f9054906101000a90046001600160a01b03166001600160a01b03166318160ddd6040518163ffffffff1660e01b8152600401602060405180830381865afa158015614025573d5f803e3d5ffd5b505050506040513d601f19601f82011682018060405250810190614049919061560c565b848460cc5f9054906101000a90046001600160a01b03166001600160a01b03166318160ddd6040518163ffffffff1660e01b8152600401602060405180830381865afa15801561409b573d5f803e3d5ffd5b505050506040513d601f19601f820116820180604052508101906140bf919061560c565b6140c9919061571d565b6140d39190615734565b6140dd91906156d5565b90506140f2565b6140ef83606461571d565b90505b60cc545f87815260d26020526040908190206002015490516340c10f1960e01b81526001600160a01b03928316926340c10f19926141379291169085906004016155b9565b5f604051808303815f87803b15801561414e575f80fd5b505af1158015614160573d5f803e3d5ffd5b5050505f87815260d26020526040908190206002810154600482015460039092015492516001600160a01b0391821694508a938a937f4d3128af979c46a863cd489a3d0959d5d22181cdbdb1949b40cadfcdac0a1d38936141c8939116919088904290615913565b60405180910390a4505050505050565b5f82815260d3602052604081208054600282015460039092015460cc5491936001600160a01b03938416939091169161421c908590600160a01b900460ff16612225565b60ce5460d15460405163a9059cbb60e01b81529293506001600160a01b03600160401b90920482169263a9059cbb9261425b92169085906004016155b9565b6020604051808303815f875af1158015614277573d5f803e3d5ffd5b505050506040513d601f19601f8201168201806040525081019061429b91906155d2565b6142b75760405162461bcd60e51b81526004016108a190615690565b60ce546001600160a01b03600160401b9091048116908316036144605760ce54600160401b90046001600160a01b0316632e1a7d4d6142f683876156d5565b6040518263ffffffff1660e01b815260040161431491815260200190565b5f604051808303815f87803b15801561432b575f80fd5b505af115801561433d573d5f803e3d5ffd5b505050505f836001600160a01b0316828661435891906156d5565b6040515f81818185875af1925050503d805f8114614391576040519150601f19603f3d011682016040523d82523d5f602084013e614396565b606091505b50509050806143f35760405162461bcd60e51b8152602060048201526024808201527f7472616e736665722065746820746f20746865207265717565737465722066616044820152631a5b195960e21b60648201526084016108a1565b5f87815260d360205260409020600601546001600160a01b03851690889088907f476778ca38557db6dc935a57ece5bd93fbaca20183fadf86d7a1d2b85df65e01908790614441888c6156d5565b426040516144529493929190615913565b60405180910390a450610bcc565b5f86815260d3602090815260408083206004018054825181850281018501909352808352614559938301828280156144bf57602002820191905f5260205f20905b81546001600160a01b031681526001909101906020018083116144a1575b5050505f8b815260d360209081526040918290206005018054835181840281018401909452808452929450925083018282801561454257602002820191905f5260205f20905f905b82829054906101000a900462ffffff1662ffffff16815260200190600301906020826002010492830192600103820291508084116145075790505b5050505050848861455391906156d5565b87612f9d565b9050836001600160a01b031687877f476778ca38557db6dc935a57ece5bd93fbaca20183fadf86d7a1d2b85df65e018660d35f8d81526020019081526020015f206006015486426040516124d79493929190615913565b5f845f815181106145c3576145c36158ff565b60200260200101516001600160a01b031663095ea7b387856040518363ffffffff1660e01b81526004016145f89291906155b9565b6020604051808303815f875af1158015614614573d5f803e3d5ffd5b505050506040513d601f19601f8201168201806040525081019061463891906155d2565b505f6040518060a0016040528061464f8888614a24565b81526001600160a01b038516602082015260400161466f4261012c61567d565b8152602081018690525f6040918201525163c04b8d5960e01b81529091506001600160a01b0388169063c04b8d59906146ac9084906004016161ba565b6020604051808303815f875af11580156146c8573d5f803e3d5ffd5b505050506040513d601f19601f8201168201806040525081019061309a919061560c565b5f80856001600160a01b031663d06ca61f85876040518363ffffffff1660e01b815260040161471c929190616211565b5f60405180830381865afa158015614736573d5f803e3d5ffd5b505050506040513d5f823e601f3d908101601f1916820160405261475d9190810190616189565b9050845f81518110614771576147716158ff565b60200260200101516001600160a01b031663095ea7b387866040518363ffffffff1660e01b81526004016147a69291906155b9565b6020604051808303815f875af11580156147c2573d5f803e3d5ffd5b505050506040513d601f19601f820116820180604052508101906147e691906155d2565b50604051635c11d79560e01b81526001600160a01b03871690635c11d7959061481b9087905f908a9089904290600401616229565b5f604051808303815f87803b158015614832575f80fd5b505af1158015614844573d5f803e3d5ffd5b50505050806001825161485791906156d5565b81518110614867576148676158ff565b6020026020010151915050949350505050565b604080515f808252602082019283905260ca546307fb214560e41b909352606092909185916001600160a01b0316637fb214506148ba8460248501615d38565b5f60405180830381865afa1580156148d4573d5f803e3d5ffd5b505050506040513d5f823e601f3d908101601f191682016040526148fb9190810190615e08565b60ca54604080515f815260208101918290526307fb214560e41b9091526001600160a01b0390911690637fb21450906149379060248101615d38565b5f60405180830381865afa158015614951573d5f803e3d5ffd5b505050506040513d5f823e601f3d908101601f191682016040526149789190810190615e08565b89878a604051602001614992989796959493929190615ef1565b6040516020818303038152906040529050949350505050565b5f6149b4614b37565b5f805460cb546149dd916001600160a01b03620100009091048116911660058a8a8a8a8a614b90565b90507f54791b38f3859327992a1ca0590ad3c0f08feba98d1a4f56ab0dca74d203392a81604051614a1091815260200190565b60405180910390a19050611b816001609855565b606081516001614a34919061567d565b835114614a7a5760405162461bcd60e51b8152602060048201526014602482015273496e76616c696420696e7075742061727261797360601b60448201526064016108a1565b5f5b8251811015614ae65781848281518110614a9857614a986158ff565b6020026020010151848381518110614ab257614ab26158ff565b6020026020010151604051602001614acc9392919061627b565b60408051601f198184030181529190529150600101614a7c565b50808360018551614af791906156d5565b81518110614b0757614b076158ff565b6020026020010151604051602001614b209291906162b4565b604051602081830303815290604052905092915050565b600260985403614b895760405162461bcd60e51b815260206004820152601f60248201527f5265656e7472616e637947756172643a207265656e7472616e742063616c6c0060448201526064016108a1565b6002609855565b81515f9061ffff8816811115614c085760405162461bcd60e51b815260206004820152603760248201527f4d6178696d756d203520646966666572656e7420746f6b656e732063616e2062604482015276652073656e74207065722043434950204d65737361676560481b60648201526084016108a1565b5f5b81811015614cf857896001600160a01b0316858281518110614c2e57614c2e6158ff565b60200260200101515f01516001600160a01b031614614cf057848181518110614c5957614c596158ff565b60200260200101515f01516001600160a01b031663095ea7b38c878481518110614c8557614c856158ff565b6020026020010151602001516040518363ffffffff1660e01b8152600401614cae9291906155b9565b6020604051808303815f875af1158015614cca573d5f803e3d5ffd5b505050506040513d601f19601f82011682018060405250810190614cee91906155d2565b505b600101614c0a565b505f6040518060a0016040528087604051602001614d169190615108565b60408051601f19818403018152918152908252602082018a905281018790526060016001866001811115614d4c57614d4c6160a2565b14614d57575f614d59565b8b5b6001600160a01b03168152602001614d816040518060200160405280622dc6c08152506139a3565b90526040516320487ded60e01b81529091505f906001600160a01b038d16906320487ded90614db6908c9086906004016160b6565b602060405180830381865afa158015614dd1573d5f803e3d5ffd5b505050506040513d601f19601f82011682018060405250810190614df5919061560c565b90505f6001866001811115614e0c57614e0c6160a2565b03614e86576040516396f4e9f960e01b81526001600160a01b038e16906396f4e9f990614e3f908d9087906004016160b6565b6020604051808303815f875af1158015614e5b573d5f803e3d5ffd5b505050506040513d601f19601f82011682018060405250810190614e7f919061560c565b9050614efa565b6040516396f4e9f960e01b81526001600160a01b038e16906396f4e9f9908490614eb6908e9088906004016160b6565b60206040518083038185885af1158015614ed2573d5f803e3d5ffd5b50505050506040513d601f19601f82011682018060405250810190614ef7919061560c565b90505b9c9b505050505050505050505050565b828054828255905f5260205f20908101928215614f5d579160200282015b82811115614f5d57825182546001600160a01b0319166001600160a01b03909116178255602090920191600190910190614f28565b50614f6992915061500d565b5090565b828054828255905f5260205f2090600901600a90048101928215614f5d579160200282015f5b83821115614fd557835183826101000a81548162ffffff021916908362ffffff1602179055509260200192600301602081600201049283019260010302614f93565b80156150045782816101000a81549062ffffff0219169055600301602081600201049283019260010302614fd5565b5050614f699291505b5b80821115614f69575f815560010161500e565b5f60208284031215615031575f80fd5b81356001600160e01b03198116811461162d575f80fd5b6001600160401b03811681146115a2575f80fd5b803561506781615048565b919050565b6001600160a01b03811681146115a2575f80fd5b5f805f805f60a08688031215615094575f80fd5b853561509f81615048565b945060208601356150af8161506c565b935060408601356150bf8161506c565b925060608601356150cf8161506c565b915060808601356150df8161506c565b809150509295509295909350565b5f602082840312156150fd575f80fd5b813561162d81615048565b6001600160a01b0391909116815260200190565b5f6020828403121561512c575f80fd5b5035919050565b5f8060408385031215615144575f80fd5b50508035926020909101359150565b5f60208284031215615163575f80fd5b813560ff8116811461162d575f80fd5b634e487b7160e01b5f52604160045260245ffd5b604080519081016001600160401b03811182821017156151a9576151a9615173565b60405290565b60405160a081016001600160401b03811182821017156151a9576151a9615173565b604051601f8201601f191681016001600160401b03811182821017156151f9576151f9615173565b604052919050565b5f6001600160401b0382111561521957615219615173565b5060051b60200190565b5f82601f830112615232575f80fd5b813561524561524082615201565b6151d1565b8082825260208201915060208360051b860101925085831115615266575f80fd5b602085015b8381101561528c57803561527e8161506c565b83526020928301920161526b565b5095945050505050565b62ffffff811681146115a2575f80fd5b5f82601f8301126152b5575f80fd5b81356152c361524082615201565b8082825260208201915060208360051b8601019250858311156152e4575f80fd5b602085015b8381101561528c5780356152fc81615296565b8352602092830192016152e9565b5f805f805f60a0868803121561531e575f80fd5b853594506020860135935060408601356153378161506c565b925060608601356001600160401b03811115615351575f80fd5b61535d88828901615223565b92505060808601356001600160401b03811115615378575f80fd5b615384888289016152a6565b9150509295509295909350565b5f602082840312156153a1575f80fd5b81356001600160401b038111156153b6575f80fd5b820160a0818503121561162d575f80fd5b5f602082840312156153d7575f80fd5b813561162d8161506c565b5f6001600160401b038211156153fa576153fa615173565b50601f01601f191660200190565b5f82601f830112615417575f80fd5b8135615425615240826153e2565b818152846020838601011115615439575f80fd5b816020850160208301375f918101602001919091529392505050565b5f805f8060808587031215615468575f80fd5b843561547381615048565b935060208501356154838161506c565b925060408501356001600160401b0381111561549d575f80fd5b6154a987828801615408565b9250506060850135600281106154bd575f80fd5b939692955090935050565b5f805f805f60a086880312156154dc575f80fd5b85356154e78161506c565b945060208601356001600160401b03811115615501575f80fd5b61550d88828901615223565b94505060408601356001600160401b03811115615528575f80fd5b615534888289016152a6565b9598949750949560608101359550608001359392505050565b5f805f6060848603121561555f575f80fd5b83356001600160401b03811115615574575f80fd5b61558086828701615223565b93505060208401356001600160401b0381111561559b575f80fd5b6155a7868287016152a6565b93969395505050506040919091013590565b6001600160a01b03929092168252602082015260400190565b5f602082840312156155e2575f80fd5b8151801515811461162d575f80fd5b5f60208284031215615601575f80fd5b815161162d8161506c565b5f6020828403121561561c575f80fd5b5051919050565b60208082526026908201527f496e70757420616d6f756e74206d7573742062652067726561746572207468616040820152656e207a65726f60d01b606082015260800190565b634e487b7160e01b5f52601160045260245ffd5b8082018082111561080557610805615669565b602080825260139082015272119959481d1c985b9cd9995c8819985a5b1959606a1b604082015260600190565b5f600182016156ce576156ce615669565b5060010190565b8181038181111561080557610805615669565b6020808252818101527f416d6f756e74206d7573742062652067726561746572207468616e207a65726f604082015260600190565b808202811582820484141761080557610805615669565b5f8261574e57634e487b7160e01b5f52601260045260245ffd5b500490565b5f82601f830112615762575f80fd5b815161577061524082615201565b8082825260208201915060208360051b860101925085831115615791575f80fd5b602085015b8381101561528c5780516157a98161506c565b835260209283019201615796565b5f82601f8301126157c6575f80fd5b81516157d461524082615201565b8082825260208201915060208360051b8601019250858311156157f5575f80fd5b602085015b8381101561528c5780518352602092830192016157fa565b5f805f60608486031215615824575f80fd5b83516001600160401b03811115615839575f80fd5b61584586828701615753565b93505060208401516001600160401b03811115615860575f80fd5b61586c868287016157b7565b92505060408401516001600160401b03811115615887575f80fd5b8401601f81018613615897575f80fd5b80516158a561524082615201565b8082825260208201915060208360051b8501019250888311156158c6575f80fd5b6020840193505b828410156158f15783516158e081615048565b8252602093840193909101906158cd565b809450505050509250925092565b634e487b7160e01b5f52603260045260245ffd5b6001600160a01b0394909416845260208401929092526040830152606082015260800190565b5f82601f830112615948575f80fd5b813561595661524082615201565b8082825260208201915060208360061b860101925085831115615977575f80fd5b602085015b8381101561528c5760408188031215615993575f80fd5b61599b615187565b81356159a68161506c565b815260208281013581830152908452929092019160400161597c565b5f60a082360312156159d2575f80fd5b6159da6151af565b823581526159ea6020840161505c565b602082015260408301356001600160401b03811115615a07575f80fd5b615a1336828601615408565b60408301525060608301356001600160401b03811115615a31575f80fd5b615a3d36828601615408565b60608301525060808301356001600160401b03811115615a5b575f80fd5b615a6736828601615939565b60808301525092915050565b5f60208284031215615a83575f80fd5b815161162d81615296565b5f60208284031215615a9e575f80fd5b815161162d81615048565b5f8060408385031215615aba575f80fd5b82516001600160401b03811115615acf575f80fd5b615adb85828601615753565b92505060208301516001600160401b03811115615af6575f80fd5b8301601f81018513615b06575f80fd5b8051615b1461524082615201565b8082825260208201915060208360051b850101925087831115615b35575f80fd5b6020840193505b82841015615b60578351615b4f81615296565b825260209384019390910190615b3c565b809450505050509250929050565b5f8151808452602084019350602083015f5b82811015615ba75781516001600160a01b0316865260209586019590910190600101615b80565b5093949350505050565b606081525f615bc36060830186615b6e565b82810360208401528085518083526020830191506020870192505f5b81811015615c0257835162ffffff16835260209384019390920191600101615bdf565b505060409390930193909352509392505050565b60208082526030908201527f50726f706f7361626c654f776e61626c653a206e6577206f776e65722069732060408201526f746865207a65726f206164647265737360801b606082015260800190565b602080825260189082015277496e76616c6964207265636569766572206164647265737360401b604082015260600190565b6001600160a01b039384168152919092166020820152604081019190915260600190565b6020808252602b908201527f496e697469616c697a61626c653a20636f6e7472616374206973206e6f74206960408201526a6e697469616c697a696e6760a81b606082015260800190565b5f60208284031215615d17575f80fd5b81516001600160401b03811115615d2c575f80fd5b611fd184828501615753565b602081525f61162d6020830184615b6e565b5f82601f830112615d59575f80fd5b8151615d6761524082615201565b8082825260208201915060208360051b860101925085831115615d88575f80fd5b602085015b8381101561528c5780516001600160401b03811115615daa575f80fd5b8601603f81018813615dba575f80fd5b6020810151615dcb615240826153e2565b8181526040838301018a1015615ddf575f80fd5b8160408401602083015e5f60208383010152808652505050602083019250602081019050615d8d565b5f60208284031215615e18575f80fd5b81516001600160401b03811115615e2d575f80fd5b611fd184828501615d4a565b5f81518084528060208401602086015e5f602082860101526020601f19601f83011685010191505092915050565b5f82825180855260208501945060208160051b830101602085015f5b83811015615eb557601f19858403018852615e9f838351615e39565b6020988901989093509190910190600101615e83565b50909695505050505050565b5f8151808452602084019350602083015f5b82811015615ba7578151865260209586019590910190600101615ed3565b60ff8916815261010060208201525f615f0e61010083018a615b6e565b8281036040840152615f20818a615b6e565b90508281036060840152615f348189615e67565b90508281036080840152615f488188615e67565b90508560a084015282810360c0840152615f628186615ec1565b905082810360e0840152615f768185615ec1565b9b9a5050505050505050505050565b5f805f805f805f80610100898b031215615f9d575f80fd5b885160208a01519098506001600160401b03811115615fba575f80fd5b615fc68b828c01615753565b97505060408901516001600160401b03811115615fe1575f80fd5b615fed8b828c01615753565b96505060608901516001600160401b03811115616008575f80fd5b6160148b828c01615d4a565b95505060808901516001600160401b0381111561602f575f80fd5b61603b8b828c01615d4a565b60a08b015160c08c0151919650945090506001600160401b0381111561605f575f80fd5b61606b8b828c016157b7565b92505060e08901516001600160401b03811115616086575f80fd5b6160928b828c016157b7565b9150509295985092959890939650565b634e487b7160e01b5f52602160045260245ffd5b6001600160401b0383168152604060208201525f825160a060408401526160e060e0840182615e39565b90506020840151603f198483030160608501526160fd8282615e39565b6040860151858203603f190160808701528051808352602091820194505f93509101905b8083101561615857835180516001600160a01b03168352602090810151818401529093019260019290920191604090910190616121565b5060608601516001600160a01b031660a08601526080860151858203603f190160c0870152925061309a8184615e39565b5f60208284031215616199575f80fd5b81516001600160401b038111156161ae575f80fd5b611fd1848285016157b7565b602081525f825160a060208401526161d560c0840182615e39565b905060018060a01b0360208501511660408401526040840151606084015260608401516080840152608084015160a08401528091505092915050565b828152604060208201525f611fd16040830184615b6e565b85815284602082015260a060408201525f61624760a0830186615b6e565b6001600160a01b0394909416606083015250608001529392505050565b5f81518060208401855e5f93019283525090919050565b5f6162868286616264565b60609490941b6001600160601b0319168452505060e81b6001600160e81b0319166014820152601701919050565b5f6162bf8285616264565b60609390931b6001600160601b0319168352505060140191905056fea264697066735822122059812c6e5a0b0709f808dea4bc58849225a55adee9e7059b21310932c05cc73064736f6c634300081a0033","linkReferences":{}},"methodIdentifiers":{"MAX_FEE_RATE()":"92f6576e","MAX_TOKENS_LENGTH()":"d28c00fc","MIN_FEE_RATE()":"58c0f10d","MIN_FEE_UPDATE_INTERVAL()":"c9172ef7","ccipReceive((bytes32,uint64,bytes,bytes,(address,uint256)[]))":"85572ffb","convertEthToUsd(uint256)":"c086381e","crossChainFactoryBySelector(uint64)":"340fbc74","crossChainToken(uint64)":"19da7e2a","crossChainTokenSwapFee(uint64)":"9ff73f45","currentChainSelector()":"3d54cb6f","factoryStorage()":"c06e1ae2","feeRate()":"978bbdb9","feeReceiver()":"b3f00674","getAmountOut(address[],uint24[],uint256)":"dfbd3897","getPortfolioBalance()":"a8509fd8","getRouter()":"b0f479a1","i_link()":"7d253aff","indexToken()":"e7d015f2","initialize(uint64,address,address,address,address)":"16b487ff","issuanceData(uint256)":"2d6fc6b3","issuanceIndexTokens(address,address[],uint24[],uint256,uint256)":"ce4793e1","issuanceIndexTokensWithEth(uint256,uint256)":"41d11817","issuanceNonce()":"9dbb9c9e","latestFeeUpdate()":"011ced5f","owner()":"8da5cb5b","priceInWei()":"3c8da588","proposeOwner(address)":"b5ed298a","proposedOwner()":"d153b60c","redemption(uint256,uint256,address,address[],uint24[])":"63377733","redemptionData(uint256)":"aa4379c0","redemptionNonce()":"84d77bb1","renounceOwnership()":"715018a6","sendMessage(uint64,address,bytes,uint8)":"bcab90b3","setFeeRate(uint8)":"5177942a","setFeeReceiver(address)":"efdcd974","setIndexFactoryStorage(address)":"cc8659ae","supportsInterface(bytes4)":"01ffc9a7","transferOwnership(address)":"f2fde38b","weth()":"3fc8cef3"},"id":5}