{"abi":[{"type":"receive","stateMutability":"payable"},{"type":"function","name":"MAX_FEE_RATE","inputs":[],"outputs":[{"name":"","type":"uint8","internalType":"uint8"}],"stateMutability":"view"},{"type":"function","name":"MAX_TOKENS_LENGTH","inputs":[],"outputs":[{"name":"","type":"uint16","internalType":"uint16"}],"stateMutability":"view"},{"type":"function","name":"MIN_FEE_RATE","inputs":[],"outputs":[{"name":"","type":"uint8","internalType":"uint8"}],"stateMutability":"view"},{"type":"function","name":"MIN_FEE_UPDATE_INTERVAL","inputs":[],"outputs":[{"name":"","type":"uint256","internalType":"uint256"}],"stateMutability":"view"},{"type":"function","name":"ccipReceive","inputs":[{"name":"message","type":"tuple","internalType":"struct Client.Any2EVMMessage","components":[{"name":"messageId","type":"bytes32","internalType":"bytes32"},{"name":"sourceChainSelector","type":"uint64","internalType":"uint64"},{"name":"sender","type":"bytes","internalType":"bytes"},{"name":"data","type":"bytes","internalType":"bytes"},{"name":"destTokenAmounts","type":"tuple[]","internalType":"struct Client.EVMTokenAmount[]","components":[{"name":"token","type":"address","internalType":"address"},{"name":"amount","type":"uint256","internalType":"uint256"}]}]}],"outputs":[],"stateMutability":"nonpayable"},{"type":"function","name":"convertEthToUsd","inputs":[{"name":"_ethAmount","type":"uint256","internalType":"uint256"}],"outputs":[{"name":"","type":"uint256","internalType":"uint256"}],"stateMutability":"view"},{"type":"function","name":"crossChainFactoryBySelector","inputs":[{"name":"_chainSelector","type":"uint64","internalType":"uint64"}],"outputs":[{"name":"","type":"address","internalType":"address"}],"stateMutability":"view"},{"type":"function","name":"crossChainToken","inputs":[{"name":"_chainSelector","type":"uint64","internalType":"uint64"}],"outputs":[{"name":"","type":"address","internalType":"address"}],"stateMutability":"view"},{"type":"function","name":"crossChainTokenSwapFee","inputs":[{"name":"_chainSelector","type":"uint64","internalType":"uint64"}],"outputs":[{"name":"","type":"uint24","internalType":"uint24"}],"stateMutability":"view"},{"type":"function","name":"currentChainSelector","inputs":[],"outputs":[{"name":"","type":"uint64","internalType":"uint64"}],"stateMutability":"view"},{"type":"function","name":"estimateAmountOut","inputs":[{"name":"tokenIn","type":"address","internalType":"address"},{"name":"tokenOut","type":"address","internalType":"address"},{"name":"amountIn","type":"uint128","internalType":"uint128"}],"outputs":[{"name":"amountOut","type":"uint256","internalType":"uint256"}],"stateMutability":"view"},{"type":"function","name":"factoryStorage","inputs":[],"outputs":[{"name":"","type":"address","internalType":"contract IndexFactoryStorage"}],"stateMutability":"view"},{"type":"function","name":"feeRate","inputs":[],"outputs":[{"name":"","type":"uint8","internalType":"uint8"}],"stateMutability":"view"},{"type":"function","name":"feeReceiver","inputs":[],"outputs":[{"name":"","type":"address","internalType":"address"}],"stateMutability":"view"},{"type":"function","name":"getAmountOut","inputs":[{"name":"tokenIn","type":"address","internalType":"address"},{"name":"tokenOut","type":"address","internalType":"address"},{"name":"amountIn","type":"uint256","internalType":"uint256"},{"name":"_swapFee","type":"uint24","internalType":"uint24"}],"outputs":[{"name":"finalAmountOut","type":"uint256","internalType":"uint256"}],"stateMutability":"view"},{"type":"function","name":"getPortfolioBalance","inputs":[],"outputs":[{"name":"","type":"uint256","internalType":"uint256"}],"stateMutability":"view"},{"type":"function","name":"getRouter","inputs":[],"outputs":[{"name":"","type":"address","internalType":"address"}],"stateMutability":"view"},{"type":"function","name":"i_link","inputs":[],"outputs":[{"name":"","type":"address","internalType":"address"}],"stateMutability":"view"},{"type":"function","name":"indexToken","inputs":[],"outputs":[{"name":"","type":"address","internalType":"contract IndexToken"}],"stateMutability":"view"},{"type":"function","name":"initialize","inputs":[{"name":"_currentChainSelector","type":"uint64","internalType":"uint64"},{"name":"_token","type":"address","internalType":"address payable"},{"name":"_chainlinkToken","type":"address","internalType":"address"},{"name":"_router","type":"address","internalType":"address"},{"name":"_weth","type":"address","internalType":"address"}],"outputs":[],"stateMutability":"nonpayable"},{"type":"function","name":"issuanceData","inputs":[{"name":"","type":"uint256","internalType":"uint256"}],"outputs":[{"name":"completedTokensCount","type":"uint256","internalType":"uint256"},{"name":"requester","type":"address","internalType":"address"},{"name":"inputAmount","type":"uint256","internalType":"uint256"},{"name":"inputToken","type":"address","internalType":"address"},{"name":"messageId","type":"bytes32","internalType":"bytes32"}],"stateMutability":"view"},{"type":"function","name":"issuanceIndexTokens","inputs":[{"name":"_tokenIn","type":"address","internalType":"address"},{"name":"_inputAmount","type":"uint256","internalType":"uint256"},{"name":"_crossChainFee","type":"uint256","internalType":"uint256"},{"name":"_tokenInSwapFee","type":"uint24","internalType":"uint24"}],"outputs":[],"stateMutability":"nonpayable"},{"type":"function","name":"issuanceIndexTokensWithEth","inputs":[{"name":"_inputAmount","type":"uint256","internalType":"uint256"},{"name":"_crossChainFee","type":"uint256","internalType":"uint256"}],"outputs":[],"stateMutability":"payable"},{"type":"function","name":"issuanceNonce","inputs":[],"outputs":[{"name":"","type":"uint256","internalType":"uint256"}],"stateMutability":"view"},{"type":"function","name":"latestFeeUpdate","inputs":[],"outputs":[{"name":"","type":"uint256","internalType":"uint256"}],"stateMutability":"view"},{"type":"function","name":"owner","inputs":[],"outputs":[{"name":"","type":"address","internalType":"address"}],"stateMutability":"view"},{"type":"function","name":"priceInWei","inputs":[],"outputs":[{"name":"","type":"uint256","internalType":"uint256"}],"stateMutability":"view"},{"type":"function","name":"proposeOwner","inputs":[{"name":"_proposedOwner","type":"address","internalType":"address"}],"outputs":[],"stateMutability":"nonpayable"},{"type":"function","name":"proposedOwner","inputs":[],"outputs":[{"name":"","type":"address","internalType":"address"}],"stateMutability":"view"},{"type":"function","name":"redemption","inputs":[{"name":"amountIn","type":"uint256","internalType":"uint256"},{"name":"_crossChainFee","type":"uint256","internalType":"uint256"},{"name":"_tokenOut","type":"address","internalType":"address"},{"name":"_tokenOutSwapFee","type":"uint24","internalType":"uint24"}],"outputs":[],"stateMutability":"nonpayable"},{"type":"function","name":"redemptionData","inputs":[{"name":"","type":"uint256","internalType":"uint256"}],"outputs":[{"name":"totalValue","type":"uint256","internalType":"uint256"},{"name":"completedTokensCount","type":"uint256","internalType":"uint256"},{"name":"requester","type":"address","internalType":"address"},{"name":"outputToken","type":"address","internalType":"address"},{"name":"outputTokenSwapFee","type":"uint24","internalType":"uint24"},{"name":"inputAmount","type":"uint256","internalType":"uint256"},{"name":"messageId","type":"bytes32","internalType":"bytes32"}],"stateMutability":"view"},{"type":"function","name":"redemptionNonce","inputs":[],"outputs":[{"name":"","type":"uint256","internalType":"uint256"}],"stateMutability":"view"},{"type":"function","name":"renounceOwnership","inputs":[],"outputs":[],"stateMutability":"nonpayable"},{"type":"function","name":"sendMessage","inputs":[{"name":"destinationChainSelector","type":"uint64","internalType":"uint64"},{"name":"receiver","type":"address","internalType":"address"},{"name":"_data","type":"bytes","internalType":"bytes"},{"name":"payFeesIn","type":"uint8","internalType":"enum IndexFactory.PayFeesIn"}],"outputs":[{"name":"","type":"bytes32","internalType":"bytes32"}],"stateMutability":"nonpayable"},{"type":"function","name":"setFeeRate","inputs":[{"name":"_newFee","type":"uint8","internalType":"uint8"}],"outputs":[],"stateMutability":"nonpayable"},{"type":"function","name":"setFeeReceiver","inputs":[{"name":"_feeReceiver","type":"address","internalType":"address"}],"outputs":[],"stateMutability":"nonpayable"},{"type":"function","name":"setIndexFactoryStorage","inputs":[{"name":"_factoryStorage","type":"address","internalType":"address"}],"outputs":[],"stateMutability":"nonpayable"},{"type":"function","name":"supportsInterface","inputs":[{"name":"interfaceId","type":"bytes4","internalType":"bytes4"}],"outputs":[{"name":"","type":"bool","internalType":"bool"}],"stateMutability":"pure"},{"type":"function","name":"transferOwnership","inputs":[{"name":"newOwner","type":"address","internalType":"address"}],"outputs":[],"stateMutability":"nonpayable"},{"type":"function","name":"weth","inputs":[],"outputs":[{"name":"","type":"address","internalType":"contract IWETH"}],"stateMutability":"view"},{"type":"event","name":"Initialized","inputs":[{"name":"version","type":"uint8","indexed":false,"internalType":"uint8"}],"anonymous":false},{"type":"event","name":"Issuanced","inputs":[{"name":"messageId","type":"bytes32","indexed":true,"internalType":"bytes32"},{"name":"nonce","type":"uint256","indexed":true,"internalType":"uint256"},{"name":"user","type":"address","indexed":true,"internalType":"address"},{"name":"inputToken","type":"address","indexed":false,"internalType":"address"},{"name":"inputAmount","type":"uint256","indexed":false,"internalType":"uint256"},{"name":"outputAmount","type":"uint256","indexed":false,"internalType":"uint256"},{"name":"time","type":"uint256","indexed":false,"internalType":"uint256"}],"anonymous":false},{"type":"event","name":"MessageSent","inputs":[{"name":"messageId","type":"bytes32","indexed":false,"internalType":"bytes32"}],"anonymous":false},{"type":"event","name":"OwnershipTransferred","inputs":[{"name":"previousOwner","type":"address","indexed":true,"internalType":"address"},{"name":"newOwner","type":"address","indexed":true,"internalType":"address"}],"anonymous":false},{"type":"event","name":"Redemption","inputs":[{"name":"messageId","type":"bytes32","indexed":true,"internalType":"bytes32"},{"name":"nonce","type":"uint256","indexed":true,"internalType":"uint256"},{"name":"user","type":"address","indexed":true,"internalType":"address"},{"name":"outputToken","type":"address","indexed":false,"internalType":"address"},{"name":"inputAmount","type":"uint256","indexed":false,"internalType":"uint256"},{"name":"outputAmount","type":"uint256","indexed":false,"internalType":"uint256"},{"name":"time","type":"uint256","indexed":false,"internalType":"uint256"}],"anonymous":false},{"type":"event","name":"RequestIssuance","inputs":[{"name":"messageId","type":"bytes32","indexed":true,"internalType":"bytes32"},{"name":"nonce","type":"uint256","indexed":true,"internalType":"uint256"},{"name":"user","type":"address","indexed":true,"internalType":"address"},{"name":"inputToken","type":"address","indexed":false,"internalType":"address"},{"name":"inputAmount","type":"uint256","indexed":false,"internalType":"uint256"},{"name":"outputAmount","type":"uint256","indexed":false,"internalType":"uint256"},{"name":"time","type":"uint256","indexed":false,"internalType":"uint256"}],"anonymous":false},{"type":"event","name":"RequestRedemption","inputs":[{"name":"messageId","type":"bytes32","indexed":true,"internalType":"bytes32"},{"name":"nonce","type":"uint256","indexed":true,"internalType":"uint256"},{"name":"user","type":"address","indexed":true,"internalType":"address"},{"name":"outputToken","type":"address","indexed":false,"internalType":"address"},{"name":"inputAmount","type":"uint256","indexed":false,"internalType":"uint256"},{"name":"outputAmount","type":"uint256","indexed":false,"internalType":"uint256"},{"name":"time","type":"uint256","indexed":false,"internalType":"uint256"}],"anonymous":false},{"type":"error","name":"InvalidRouter","inputs":[{"name":"router","type":"address","internalType":"address"}]}],"bytecode":{"object":"0x608060405234801561001057600080fd5b50615c6880620000216000396000f3fe60806040526004361061023f5760003560e01c80639dbb9c9e1161012e578063c9172ef7116100ab578063dd811ac91161006f578063dd811ac9146107c7578063e7d015f2146107e7578063efdcd97414610807578063f2fde38b14610827578063fd4851011461084757600080fd5b8063c9172ef714610729578063cc8659ae1461073f578063d0586d711461075f578063d153b60c1461077f578063d28c00fc1461079f57600080fd5b8063b3f00674116100f2578063b3f0067414610689578063b5ed298a146106a9578063bcab90b3146106c9578063c06e1ae2146106e9578063c086381e1461070957600080fd5b80639dbb9c9e146105555780639ff73f451461056b578063a8509fd81461059f578063aa4379c0146105b4578063b0f479a11461066557600080fd5b806341d11817116101bc57806384d77bb11161018057806384d77bb1146104cb57806385572ffb146104e15780638da5cb5b1461050157806392f6576e1461051f578063978bbdb91461053457600080fd5b806341d118171461043c5780635177942a1461044f57806358c0f10d1461046f578063715018a6146104965780637d253aff146104ab57600080fd5b80632d6fc6b3116102035780632d6fc6b31461031e578063340fbc74146103a85780633c8da588146103c85780633d54cb6f146103dd5780633fc8cef31461041557600080fd5b8063011ced5f1461024b57806301ffc9a7146102745780630456f9c8146102a457806316b487ff146102c457806319da7e2a146102e657600080fd5b3661024657005b600080fd5b34801561025757600080fd5b5061026160cd5481565b6040519081526020015b60405180910390f35b34801561028057600080fd5b5061029461028f366004615378565b610867565b604051901515815260200161026b565b3480156102b057600080fd5b506102616102bf3660046150dc565b61089e565b3480156102d057600080fd5b506102e46102df36600461556b565b61093a565b005b3480156102f257600080fd5b50610306610301366004615531565b610b91565b6040516001600160a01b03909116815260200161026b565b34801561032a57600080fd5b506103766103393660046153f9565b60d2602052600090815260409020600181015460028201546003830154600484015460059094015492936001600160a01b03928316939192169085565b604080519586526001600160a01b0394851660208701528501929092529091166060830152608082015260a00161026b565b3480156103b457600080fd5b506103066103c3366004615531565b610c17565b3480156103d457600080fd5b50610261610c51565b3480156103e957600080fd5b5060ce546103fd906001600160401b031681565b6040516001600160401b03909116815260200161026b565b34801561042157600080fd5b5060ce5461030690600160401b90046001600160a01b031681565b6102e461044a3660046154d0565b610cd3565b34801561045b57600080fd5b506102e461046a366004615649565b610edd565b34801561047b57600080fd5b50610484600181565b60405160ff909116815260200161026b565b3480156104a257600080fd5b506102e461100e565b3480156104b757600080fd5b5060cb54610306906001600160a01b031681565b3480156104d757600080fd5b5061026160d05481565b3480156104ed57600080fd5b506102e46104fc3660046153a2565b611022565b34801561050d57600080fd5b506033546001600160a01b0316610306565b34801561052b57600080fd5b50610484606481565b34801561054057600080fd5b5060cc5461048490600160a01b900460ff1681565b34801561056157600080fd5b5061026160cf5481565b34801561057757600080fd5b5061058b610586366004615531565b611069565b60405162ffffff909116815260200161026b565b3480156105ab57600080fd5b5061026161110a565b3480156105c057600080fd5b5061061f6105cf3660046153f9565b60d360205260009081526040902080546001820154600283015460038401546004850154600590950154939492936001600160a01b039283169392821692600160a01b90920462ffffff16919087565b6040805197885260208801969096526001600160a01b039485169587019590955292909116606085015262ffffff16608084015260a083015260c082015260e00161026b565b34801561067157600080fd5b506000546201000090046001600160a01b0316610306565b34801561069557600080fd5b5060d154610306906001600160a01b031681565b3480156106b557600080fd5b506102e46106c43660046150a2565b611543565b3480156106d557600080fd5b506102616106e43660046155dc565b611593565b3480156106f557600080fd5b5060ca54610306906001600160a01b031681565b34801561071557600080fd5b506102616107243660046153f9565b6115c3565b34801561073557600080fd5b5061026161a8c081565b34801561074b57600080fd5b506102e461075a3660046150a2565b6115ea565b34801561076b57600080fd5b506102e461077a3660046154f2565b611614565b34801561078b57600080fd5b50606554610306906001600160a01b031681565b3480156107ab57600080fd5b506107b4600581565b60405161ffff909116815260200161026b565b3480156107d357600080fd5b506102616107e2366004615133565b611a9e565b3480156107f357600080fd5b5060cc54610306906001600160a01b031681565b34801561081357600080fd5b506102e46108223660046150a2565b611b36565b34801561083357600080fd5b506102e46108423660046150a2565b611b60565b34801561085357600080fd5b506102e4610862366004615186565b611c85565b60006001600160e01b031982166385572ffb60e01b148061089857506001600160e01b031982166301ffc9a760e01b145b92915050565b60ca54604051628adf3960e31b81526001600160a01b03858116600483015284811660248301526001600160801b03841660448301526000921690630456f9c89060640160206040518083038186803b1580156108fa57600080fd5b505afa15801561090e573d6000803e3d6000fd5b505050506040513d601f19601f82011682018060405250810190610932919061535f565b949350505050565b600054610100900460ff161580801561095a5750600054600160ff909116105b806109745750303b158015610974575060005460ff166001145b6109dc5760405162461bcd60e51b815260206004820152602e60248201527f496e697469616c697a61626c653a20636f6e747261637420697320616c72656160448201526d191e481a5b9a5d1a585b1a5e995960921b60648201526084015b60405180910390fd5b6000805460ff1916600117905580156109ff576000805461ff0019166101001790555b610a0883611fe7565b610a10612062565b610a18612091565b610a206120bc565b60ce80546001600160401b03881667ffffffffffffffff1990911617905560cc80546001600160a01b038088166001600160a01b03199283161790925560cb805487841692168217905560005460405163095ea7b360e01b8152919263095ea7b392610a9c92620100009004909116906000199060040161572d565b602060405180830381600087803b158015610ab657600080fd5b505af1158015610aca573d6000803e3d6000fd5b505050506040513d601f19601f82011682018060405250810190610aee919061533d565b5060ce805468010000000000000000600160e01b031916600160401b6001600160a01b0385160217905560cc805460ff60a01b1916600560a11b1790554260cd5560d18054336001600160a01b03199091161790558015610b89576000805461ff0019169055604051600181527f7f26b83ff96e1f2b6a682f133852f6798a09c465da95921460cefb38474024989060200160405180910390a15b505050505050565b60ca54604051630ced3f1560e11b81526001600160401b03831660048201526000916001600160a01b0316906319da7e2a906024015b60206040518083038186803b158015610bdf57600080fd5b505afa158015610bf3573d6000803e3d6000fd5b505050506040513d601f19601f8201168201806040525081019061089891906150bf565b60ca54604051630d03ef1d60e21b81526001600160401b03831660048201526000916001600160a01b03169063340fbc7490602401610bc7565b60ca5460408051630791b4b160e31b815290516000926001600160a01b031691633c8da588916004808301926020929190829003018186803b158015610c9657600080fd5b505afa158015610caa573d6000803e3d6000fd5b505050506040513d601f19601f82011682018060405250810190610cce919061535f565b905090565b6000610cee8360cc60149054906101000a900460ff166120ea565b9050600082610cfd8386615a68565b610d079190615a68565b905080341015610d595760405162461bcd60e51b815260206004820152601a60248201527f6c6f776572207468616e20726571756972656420616d6f756e7400000000000060448201526064016109d3565b60ce60089054906101000a90046001600160a01b03166001600160a01b031663d0e30db0826040518263ffffffff1660e01b81526004016000604051808303818588803b158015610da957600080fd5b505af1158015610dbd573d6000803e3d6000fd5b505060ce5460d15460405163a9059cbb60e01b81526001600160a01b03600160401b9093048316955063a9059cbb9450610dff9350911690869060040161572d565b602060405180830381600087803b158015610e1957600080fd5b505af1158015610e2d573d6000803e3d6000fd5b505050506040513d601f19601f82011682018060405250810190610e51919061533d565b5060cf8054906000610e6283615b84565b909155505060cf8054600090815260d260205260408082206002018054336001600160a01b0319918216179091558354835281832060030188905560ce8054945484529190922060040180546001600160a01b03600160401b9586900481169190941617905554610ed7929004168585612106565b50505050565b610ee5612408565b61a8c060cd5442610ef69190615ac1565b1015610f6a5760405162461bcd60e51b815260206004820152603960248201527f596f752073686f756c642077616974206174206c6561737420313220686f757260448201527f7320616674657220746865206c6174657374207570646174650000000000000060648201526084016109d3565b606460ff821611801590610f825750600160ff821610155b610fea5760405162461bcd60e51b815260206004820152603360248201527f546865206e65774665652073686f756c64206265206265747765656e203120616044820152726e64203130302028302e303125202d2031252960681b60648201526084016109d3565b60cc805460ff909216600160a01b0260ff60a01b199092169190911790554260cd55565b611016612408565b6110206000612462565b565b6000546201000090046001600160a01b03163314611055576040516335fdcccd60e21b81523360048201526024016109d3565b61106661106182615ad8565b6124b4565b50565b60008061107583610b91565b60ca54604051633291aa5760e11b81526001600160401b03861660048201526001600160a01b03808416602483015292935091169063652354ae9060440160206040518083038186803b1580156110cb57600080fd5b505afa1580156110df573d6000803e3d6000fd5b505050506040513d601f19601f8201168201806040525081019061110391906153dc565b9392505050565b600080600060ca60009054906101000a90046001600160a01b03166001600160a01b03166353fd43326040518163ffffffff1660e01b815260040160206040518083038186803b15801561115d57600080fd5b505afa158015611171573d6000803e3d6000fd5b505050506040513d601f19601f82011682018060405250810190611195919061535f565b905060005b8181101561153b5760ca5460405163264cae9360e21b8152600481018390526000916001600160a01b031690639932ba4c9060240160206040518083038186803b1580156111e757600080fd5b505afa1580156111fb573d6000803e3d6000fd5b505050506040513d601f19601f8201168201806040525081019061121f91906150bf565b60ca54604051633aa3b3c160e21b81526001600160a01b0380841660048301529293506000929091169063ea8ecf049060240160206040518083038186803b15801561126a57600080fd5b505afa15801561127e573d6000803e3d6000fd5b505050506040513d601f19601f820116820180604052508101906112a2919061554e565b60ca54604051633259966560e01b81526001600160a01b0385811660048301529293506000929091169063325996659060240160206040518083038186803b1580156112ed57600080fd5b505afa158015611301573d6000803e3d6000fd5b505050506040513d601f19601f8201168201806040525081019061132591906153dc565b60ce549091506001600160401b03838116911614156115255760ce546001600160a01b03848116600160401b9092041614156113e95760cc546040516370a0823160e01b81526001600160a01b039182166004820152908416906370a082319060240160206040518083038186803b1580156113a057600080fd5b505afa1580156113b4573d6000803e3d6000fd5b505050506040513d601f19601f820116820180604052508101906113d8919061535f565b6113e29087615a68565b9550611525565b60ca5460ce5460cc546040516370a0823160e01b81526001600160a01b03918216600482015260009382169263dd811ac9928892600160401b909204811691908316906370a082319060240160206040518083038186803b15801561144d57600080fd5b505afa158015611461573d6000803e3d6000fd5b505050506040513d601f19601f82011682018060405250810190611485919061535f565b6040516001600160e01b031960e086901b1681526001600160a01b039384166004820152929091166024830152604482015262ffffff8516606482015260840160206040518083038186803b1580156114dd57600080fd5b505afa1580156114f1573d6000803e3d6000fd5b505050506040513d601f19601f82011682018060405250810190611515919061535f565b90506115218188615a68565b9650505b505050808061153390615b84565b91505061119a565b509092915050565b61154b612408565b6001600160a01b0381166115715760405162461bcd60e51b81526004016109d390615802565b606580546001600160a01b0319166001600160a01b0392909216919091179055565b6000805460cb546115ba916001600160a01b0362010000909104811691168787878761259c565b95945050505050565b6000670de0b6b3a76400006115d6610c51565b6115e09084615aa2565b6108989190615a80565b6115f2612408565b60ca80546001600160a01b0319166001600160a01b0392909216919091179055565b60cc54604080516318160ddd60e01b815290516000926001600160a01b0316916318160ddd916004808301926020929190829003018186803b15801561165957600080fd5b505afa15801561166d573d6000803e3d6000fd5b505050506040513d601f19601f82011682018060405250810190611691919061535f565b6116a386670de0b6b3a7640000615aa2565b6116ad9190615a80565b9050600160d060008282546116c29190615a68565b909155505060d08054600090815260d3602052604080822060020180546001600160a01b03199081163390811790925584548452828420600390810180546001600160a01b038b8116919094161790558554855283852001805462ffffff8916600160a01b0262ffffff60a01b199091161790559354835291819020600490810189905560cc549151632770a7eb60e21b81529190931692639dc29fac9261176e9290918a910161572d565b600060405180830381600087803b15801561178857600080fd5b505af115801561179c573d6000803e3d6000fd5b50505050600060ca60009054906101000a90046001600160a01b03166001600160a01b03166369487b1c6040518163ffffffff1660e01b815260040160206040518083038186803b1580156117f057600080fd5b505afa158015611804573d6000803e3d6000fd5b505050506040513d601f19601f82011682018060405250810190611828919061535f565b9050600060ca60009054906101000a90046001600160a01b03166001600160a01b031663b90b8a2a6040518163ffffffff1660e01b815260040160206040518083038186803b15801561187a57600080fd5b505afa15801561188e573d6000803e3d6000fd5b505050506040513d601f19601f820116820180604052508101906118b2919061535f565b60ca546040516369fbf93360e11b8152600481018390529192506000916001600160a01b039091169063d3f7f2669060240160006040518083038186803b1580156118fc57600080fd5b505afa158015611910573d6000803e3d6000fd5b505050506040513d6000823e601f3d908101601f1916820160405261193891908101906151f9565b935050505060005b83811015611a3e57600082828151811061195c5761195c615bcb565b602090810291909101015160ca5460405163b6ad185b60e01b81526001600160401b03831660048201529192506000916001600160a01b039091169063b6ad185b9060240160206040518083038186803b1580156119b957600080fd5b505afa1580156119cd573d6000803e3d6000fd5b505050506040513d601f19601f820116820180604052508101906119f1919061535f565b60ce549091506001600160401b0383811691161415611a1c57611a178760d05483612826565b611a29565b611a298760d05484612c57565b50508080611a3690615b84565b915050611940565b5060d054600081815260d360205260408082206005015490513393927f4f9e9bfb3670784096375593cb821e86bd88b1fcb08efc38330012d8c33c3e3691611a8c918c918f91904290615746565b60405180910390a45050505050505050565b60ca5460405163dd811ac960e01b81526001600160a01b03868116600483015285811660248301526044820185905262ffffff84166064830152600092169063dd811ac99060840160206040518083038186803b158015611afe57600080fd5b505afa158015611b12573d6000803e3d6000fd5b505050506040513d601f19601f820116820180604052508101906115ba919061535f565b611b3e612408565b60d180546001600160a01b0319166001600160a01b0392909216919091179055565b6001600160a01b038116611b865760405162461bcd60e51b81526004016109d390615802565b6065546001600160a01b03828116911614611bfe5760405162461bcd60e51b815260206004820152603260248201527f50726f706f7361626c654f776e61626c653a206e6577206f776e6572206973206044820152713737ba10383937b837b9b2b21037bbb732b960711b60648201526084016109d3565b6001600160a01b0381163314611c7c5760405162461bcd60e51b815260206004820152603a60248201527f50726f706f7361626c654f776e61626c653a20746869732063616c6c206d757360448201527f74206265206d61646520627920746865206e6577206f776e657200000000000060648201526084016109d3565b61106681612462565b60ca5460408051633fc8cef360e01b815290516000926001600160a01b031691633fc8cef3916004808301926020929190829003018186803b158015611cca57600080fd5b505afa158015611cde573d6000803e3d6000fd5b505050506040513d601f19601f82011682018060405250810190611d0291906150bf565b9050600060ca60009054906101000a90046001600160a01b03166001600160a01b031663fbfa77cf6040518163ffffffff1660e01b815260040160206040518083038186803b158015611d5457600080fd5b505afa158015611d68573d6000803e3d6000fd5b505050506040513d601f19601f82011682018060405250810190611d8c91906150bf565b90506000611da98660cc60149054906101000a900460ff166120ea565b90506001600160a01b0387166323b872dd3330611dc6858b615a68565b6040516001600160e01b031960e086901b1681526001600160a01b0393841660048201529290911660248301526044820152606401602060405180830381600087803b158015611e1557600080fd5b505af1158015611e29573d6000803e3d6000fd5b505050506040513d601f19601f82011682018060405250810190611e4d919061533d565b611e915760405162461bcd60e51b8152602060048201526015602482015274151bdad95b881d1c985b9cd9995c8819985a5b1959605a1b60448201526064016109d3565b6000611ea98885611ea2858b615a68565b3089612eca565b60cc5490915060009061271090611eca90600160a01b900460ff1684615aa2565b611ed49190615a80565b90506000611ee28284615ac1565b60d15460405163a9059cbb60e01b81529192506001600160a01b038089169263a9059cbb92611f17921690869060040161572d565b602060405180830381600087803b158015611f3157600080fd5b505af1158015611f45573d6000803e3d6000fd5b505050506040513d601f19601f82011682018060405250810190611f69919061533d565b5060cf8054906000611f7a83615b84565b909155505060cf8054600090815260d260205260408082206002018054336001600160a01b031991821617909155835483528183206003018d905592548252902060040180549091166001600160a01b038c16179055611fdb8a828a612106565b50505050505050505050565b600054610100900460ff1661200e5760405162461bcd60e51b81526004016109d390615852565b6001600160a01b038116612038576040516335fdcccd60e21b8152600060048201526024016109d3565b600080546001600160a01b03909216620100000262010000600160b01b0319909216919091179055565b600054610100900460ff166120895760405162461bcd60e51b81526004016109d390615852565b611020612ffa565b600054610100900460ff166120b85760405162461bcd60e51b81526004016109d390615852565b6110205b600054610100900460ff166120e35760405162461bcd60e51b81526004016109d390615852565b6001609855565b60006127106120fc60ff841685615aa2565b6111039190615a80565b60ca5460408051631a521ec760e21b8152905184926000926001600160a01b03909116916369487b1c91600480820192602092909190829003018186803b15801561215057600080fd5b505afa158015612164573d6000803e3d6000fd5b505050506040513d601f19601f82011682018060405250810190612188919061535f565b9050600060ca60009054906101000a90046001600160a01b03166001600160a01b031663b90b8a2a6040518163ffffffff1660e01b815260040160206040518083038186803b1580156121da57600080fd5b505afa1580156121ee573d6000803e3d6000fd5b505050506040513d601f19601f82011682018060405250810190612212919061535f565b60ca546040516369fbf93360e11b8152600481018390529192506000916001600160a01b039091169063d3f7f2669060240160006040518083038186803b15801561225c57600080fd5b505afa158015612270573d6000803e3d6000fd5b505050506040513d6000823e601f3d908101601f1916820160405261229891908101906151f9565b935050505060005b838110156123a15760008282815181106122bc576122bc615bcb565b602090810291909101015160ca5460405163b6ad185b60e01b81526001600160401b03831660048201529192506000916001600160a01b039091169063b6ad185b9060240160206040518083038186803b15801561231957600080fd5b505afa15801561232d573d6000803e3d6000fd5b505050506040513d601f19601f82011682018060405250810190612351919061535f565b60ce549091506001600160401b038381169116141561237e576123798760cf5483858961302a565b61238c565b61238c8760cf5484886136f3565b5050808061239990615b84565b9150506122a0565b5060cf54600081815260d260205260408082206005810154600390910154915133949391927f497983feda2f53898206317c0b392bffd918715fad18aaedf4ac296f7ec6bf3d926123f7928e9291904290615746565b60405180910390a450505050505050565b6033546001600160a01b031633146110205760405162461bcd60e51b815260206004820181905260248201527f4f776e61626c653a2063616c6c6572206973206e6f7420746865206f776e657260448201526064016109d3565b603380546001600160a01b038381166001600160a01b0319831681179093556040519116919082907f8be0079c531659141344cd1fd0a4f28419497f9722a3daafe3b4186f6b6457e090600090a35050565b805160208083015160ca54604080516329fea19960e11b8152905192936000936001600160a01b03909316926353fd4332926004808201939291829003018186803b15801561250257600080fd5b505afa158015612516573d6000803e3d6000fd5b505050506040513d601f19601f8201168201806040525081019061253a919061535f565b9050600080600080600080896060015180602001905181019061255d9190615412565b955095509550955095509550856000141561258557612580838684848b8e613b91565b611fdb565b8560011415611fdb57611fdb838b878a8c8e613cf5565b6040805160a081019091526001600160a01b03841660c082015260009081908060e0810160408051808303601f190181529181529082526020808301889052815160008082529181018352929091019190612619565b60408051808201909152600080825260208201528152602001906001900390816125f25790505b508152602001600185600181111561263357612633615bb5565b1461263f576000612641565b885b6001600160a01b031681526020016126696040518060200160405280622dc6c0815250613de8565b90526040516320487ded60e01b81529091506000906001600160a01b038a16906320487ded9061269f908a9086906004016158f2565b60206040518083038186803b1580156126b757600080fd5b505afa1580156126cb573d6000803e3d6000fd5b505050506040513d601f19601f820116820180604052508101906126ef919061535f565b90506000600185600181111561270757612707615bb5565b1415612794576040516396f4e9f960e01b81526001600160a01b038b16906396f4e9f99061273b908b9087906004016158f2565b602060405180830381600087803b15801561275557600080fd5b505af1158015612769573d6000803e3d6000fd5b505050506040513d601f19601f8201168201806040525081019061278d919061535f565b9050612819565b6040516396f4e9f960e01b81526001600160a01b038b16906396f4e9f99084906127c4908c9088906004016158f2565b6020604051808303818588803b1580156127dd57600080fd5b505af11580156127f1573d6000803e3d6000fd5b50505050506040513d601f19601f82011682018060405250810190612816919061535f565b90505b9998505050505050505050565b60ca5460ce5460405163d1c68aa360e01b81526001600160401b0390911660048201526000916001600160a01b03169063d1c68aa39060240160006040518083038186803b15801561287757600080fd5b505afa15801561288b573d6000803e3d6000fd5b505050506040513d6000823e601f3d908101601f191682016040526128b391908101906151c5565b9050600060ca60009054906101000a90046001600160a01b03166001600160a01b031663fbfa77cf6040518163ffffffff1660e01b815260040160206040518083038186803b15801561290557600080fd5b505afa158015612919573d6000803e3d6000fd5b505050506040513d601f19601f8201168201806040525081019061293d91906150bf565b905060005b83811015610b8957600083828151811061295e5761295e615bcb565b602090810291909101015160ca54604051633259966560e01b81526001600160a01b0380841660048301529293506000929091169063325996659060240160206040518083038186803b1580156129b457600080fd5b505afa1580156129c8573d6000803e3d6000fd5b505050506040513d601f19601f820116820180604052508101906129ec91906153dc565b90506000670de0b6b3a7640000836001600160a01b03166370a0823160ca60009054906101000a90046001600160a01b03166001600160a01b031663fbfa77cf6040518163ffffffff1660e01b815260040160206040518083038186803b158015612a5657600080fd5b505afa158015612a6a573d6000803e3d6000fd5b505050506040513d601f19601f82011682018060405250810190612a8e91906150bf565b6040516001600160e01b031960e084901b1681526001600160a01b03909116600482015260240160206040518083038186803b158015612acd57600080fd5b505afa158015612ae1573d6000803e3d6000fd5b505050506040513d601f19601f82011682018060405250810190612b05919061535f565b612b0f908b615aa2565b612b199190615a80565b604051631c20fadd60e01b81526001600160a01b0385811660048301523060248301526044820183905291925090861690631c20fadd90606401602060405180830381600087803b158015612b6d57600080fd5b505af1158015612b81573d6000803e3d6000fd5b505050506040513d601f19601f82011682018060405250810190612ba5919061533d565b5060ce546000906001600160a01b03858116600160401b9092041614612beb5760ce54612be6908590600160401b90046001600160a01b0316843087612eca565b612bed565b815b60008a815260d36020526040812080549293508392909190612c10908490615a68565b9091555050600089815260d3602052604081206001908101805491929091612c39908490615a68565b92505081905550505050508080612c4f90615b84565b915050612942565b6000612c6282610c17565b60ca5460405163d1c68aa360e01b81526001600160401b03851660048201529192506000916001600160a01b039091169063d1c68aa39060240160006040518083038186803b158015612cb457600080fd5b505afa158015612cc8573d6000803e3d6000fd5b505050506040513d6000823e601f3d908101601f19168201604052612cf091908101906151c5565b60ca5460405163221f337160e01b81526001600160401b03861660048201529192506000916001600160a01b039091169063221f33719060240160006040518083038186803b158015612d4257600080fd5b505afa158015612d56573d6000803e3d6000fd5b505050506040513d6000823e601f3d908101601f19168201604052612d7e9190810190615309565b60ca54604051632bda5acd60e21b81526001600160401b03871660048201529192506000916001600160a01b039091169063af696b349060240160006040518083038186803b158015612dd057600080fd5b505afa158015612de4573d6000803e3d6000fd5b505050506040513d6000823e601f3d908101601f19168201604052612e0c9190810190615309565b6040805160008082526020808301828152600184860181815260808601909652959650929492939192906060860190803683370190505090508981600081518110612e5957612e59615bcb565b60200260200101818152505060006001878588868e8a88604051602001612e8798979695949392919061576c565b60405160208183030381529060405290506000612ea78a8a846001611593565b60009b8c5260d36020526040909b206005019a909a555050505050505050505050565b60008060ca60009054906101000a90046001600160a01b03166001600160a01b031663b631e80b6040518163ffffffff1660e01b815260040160206040518083038186803b158015612f1b57600080fd5b505afa158015612f2f573d6000803e3d6000fd5b505050506040513d601f19601f82011682018060405250810190612f5391906150bf565b9050600060ca60009054906101000a90046001600160a01b03166001600160a01b031663744fbc7a6040518163ffffffff1660e01b815260040160206040518083038186803b158015612fa557600080fd5b505afa158015612fb9573d6000803e3d6000fd5b505050506040513d601f19601f82011682018060405250810190612fdd91906150bf565b9050612fee8282868b8b8b8b613e25565b98975050505050505050565b600054610100900460ff166130215760405162461bcd60e51b81526004016109d390615852565b61102033612462565b60ca5460405163d1c68aa360e01b81526001600160401b03841660048201526000916001600160a01b03169063d1c68aa39060240160006040518083038186803b15801561307757600080fd5b505afa15801561308b573d6000803e3d6000fd5b505050506040513d6000823e601f3d908101601f191682016040526130b391908101906151c5565b905060005b848110156136ea5760008282815181106130d4576130d4615bcb565b602090810291909101015160ca54604051633259966560e01b81526001600160a01b0380841660048301529293506000929091169063325996659060240160206040518083038186803b15801561312a57600080fd5b505afa15801561313e573d6000803e3d6000fd5b505050506040513d601f19601f8201168201806040525081019061316291906153dc565b60ca54604051630be5271360e01b81526001600160a01b03858116600483015292935060009290911690630be527139060240160206040518083038186803b1580156131ad57600080fd5b505afa1580156131c1573d6000803e3d6000fd5b505050506040513d601f19601f820116820180604052508101906131e5919061535f565b60ce549091506000906001600160a01b03858116600160401b909204161461333b576133366107248560ce60089054906101000a90046001600160a01b0316876001600160a01b03166370a0823160ca60009054906101000a90046001600160a01b03166001600160a01b031663fbfa77cf6040518163ffffffff1660e01b815260040160206040518083038186803b15801561328157600080fd5b505afa158015613295573d6000803e3d6000fd5b505050506040513d601f19601f820116820180604052508101906132b991906150bf565b6040516001600160e01b031960e084901b1681526001600160a01b03909116600482015260240160206040518083038186803b1580156132f857600080fd5b505afa15801561330c573d6000803e3d6000fd5b505050506040513d601f19601f82011682018060405250810190613330919061535f565b87611a9e565b61344a565b61344a846001600160a01b03166370a0823160ca60009054906101000a90046001600160a01b03166001600160a01b031663fbfa77cf6040518163ffffffff1660e01b815260040160206040518083038186803b15801561339b57600080fd5b505afa1580156133af573d6000803e3d6000fd5b505050506040513d601f19601f820116820180604052508101906133d391906150bf565b6040516001600160e01b031960e084901b1681526001600160a01b03909116600482015260240160206040518083038186803b15801561341257600080fd5b505afa158015613426573d6000803e3d6000fd5b505050506040513d601f19601f82011682018060405250810190610724919061535f565b60008b815260d2602090815260408083206001600160a01b0389168452909152812082905590915068056bc75e2d63100000613486848e615aa2565b6134909190615a80565b60ce549091506001600160a01b03868116600160401b909204161461355c5761355660ce60089054906101000a90046001600160a01b0316868360ca60009054906101000a90046001600160a01b03166001600160a01b031663fbfa77cf6040518163ffffffff1660e01b815260040160206040518083038186803b15801561351857600080fd5b505afa15801561352c573d6000803e3d6000fd5b505050506040513d601f19601f8201168201806040525081019061355091906150bf565b88612eca565b5061365c565b60ce5460ca546040805163fbfa77cf60e01b815290516001600160a01b03600160401b90940484169363a9059cbb93169163fbfa77cf916004808301926020929190829003018186803b1580156135b257600080fd5b505afa1580156135c6573d6000803e3d6000fd5b505050506040513d601f19601f820116820180604052508101906135ea91906150bf565b836040518363ffffffff1660e01b815260040161360892919061572d565b602060405180830381600087803b15801561362257600080fd5b505af1158015613636573d6000803e3d6000fd5b505050506040513d601f19601f8201168201806040525081019061365a919061533d565b505b61367d68056bc75e2d63100000613673858f615aa2565b6107249190615a80565b6136879083615a68565b60008c815260d2602081815260408084206001600160a01b038b1685528083529084206001908101959095558f8452919052820180549091906136cb908490615a68565b92505081905550505050505080806136e290615b84565b9150506130b8565b50505050505050565b6137256040518060a0016040528060608152602001606081526020016060815260200160608152602001606081525090565b60ca54604051632a3ff8ad60e01b8152600481018490526001600160401b03851660248201526000916001600160a01b031690632a3ff8ad9060440160206040518083038186803b15801561377957600080fd5b505afa15801561378d573d6000803e3d6000fd5b505050506040513d601f19601f820116820180604052508101906137b1919061535f565b604080516001808252818301909252919250600091906020808301908036833701905050905081816000815181106137eb576137eb615bcb565b602090810291909101015260ce5460009061386290600160401b90046001600160a01b031661381988610b91565b68056bc75e2d631000008560008151811061383657613836615bcb565b60200260200101518c6138499190615aa2565b6138539190615a80565b3061385d8b611069565b612eca565b9050600061386f87610c17565b60ca5460405163d1c68aa360e01b81526001600160401b038a1660048201529192506001600160a01b03169063d1c68aa39060240160006040518083038186803b1580156138bc57600080fd5b505afa1580156138d0573d6000803e3d6000fd5b505050506040513d6000823e601f3d908101601f191682016040526138f891908101906151c5565b855260ca5460405163221f337160e01b81526001600160401b03891660048201526001600160a01b039091169063221f33719060240160006040518083038186803b15801561394657600080fd5b505afa15801561395a573d6000803e3d6000fd5b505050506040513d6000823e601f3d908101601f191682016040526139829190810190615309565b602086015260ca54604051632bda5acd60e21b81526001600160401b03891660048201526001600160a01b039091169063af696b349060240160006040518083038186803b1580156139d357600080fd5b505afa1580156139e7573d6000803e3d6000fd5b505050506040513d6000823e601f3d908101601f19168201604052613a0f9190810190615309565b60408681019190915280516000808252602080830184526060890192909252825181815280830184526080890152825160018082528185019094529092909182015b6040805180820190915260008082526020820152815260200190600190039081613a51579050509050613a8388610b91565b81600081518110613a9657613a96615bcb565b6020026020010151600001906001600160a01b031690816001600160a01b0316815250508281600081518110613ace57613ace615bcb565b602002602001015160200181815250506000808760000151886060015189602001518a608001518e8c604001518b604051602001613b1398979695949392919061576c565b60405160208183030381529060405290506000613b348a8386866001613e62565b90507f54791b38f3859327992a1ca0590ad3c0f08feba98d1a4f56ab0dca74d203392a81604051613b6791815260200190565b60405180910390a160cf54600090815260d260205260409020600501555050505050505050505050565b8560005b8651811015613cd1576000868281518110613bb257613bb2615bcb565b602002602001015190506000868381518110613bd057613bd0615bcb565b602002602001015190508160d2600086815260200190815260200160002060000160008b8681518110613c0557613c05615bcb565b60200260200101516001600160a01b03166001600160a01b03168152602001908152602001600020600001819055508060d2600086815260200190815260200160002060000160008b8681518110613c5f57613c5f615bcb565b60200260200101516001600160a01b03166001600160a01b0316815260200190815260200160002060010181905550600160d260008681526020019081526020016000206001016000828254613cb59190615a68565b9250508190555050508080613cc990615b84565b915050613b95565b50600081815260d260205260409020600101548314156136ea576136ea8183613edd565b6080850151805187919060009082908290613d1257613d12615bcb565b6020026020010151600001519050600082600081518110613d3557613d35615bcb565b60200260200101516020015190506000613d688360ce60089054906101000a90046001600160a01b031684306003612eca565b600086815260d36020526040812080549293508392909190613d8b908490615a68565b90915550508851600086815260d3602052604081206001018054909190613db3908490615a68565b9091555050600085815260d36020526040902060010154881415613ddb57613ddb8587614329565b5050505050505050505050565b60408051915160248084019190915281518084039091018152604490920190526020810180516001600160e01b03166397a657c960e01b17905290565b600062ffffff861615613e4757613e40888787878787614641565b9050613e57565b613e548786868686614805565b90505b979650505050505050565b6000613e6c614a18565b6000805460cb54613e96916001600160a01b03620100009091048116911660058a8a8a8a8a614a72565b90507f54791b38f3859327992a1ca0590ad3c0f08feba98d1a4f56ab0dca74d203392a81604051613ec991815260200190565b60405180910390a190506115ba6001609855565b600080600060ca60009054906101000a90046001600160a01b03166001600160a01b03166353fd43326040518163ffffffff1660e01b815260040160206040518083038186803b158015613f3057600080fd5b505afa158015613f44573d6000803e3d6000fd5b505050506040513d601f19601f82011682018060405250810190613f68919061535f565b905060005b8181101561406b5760ca5460405163264cae9360e21b8152600481018390526000916001600160a01b031690639932ba4c9060240160206040518083038186803b158015613fba57600080fd5b505afa158015613fce573d6000803e3d6000fd5b505050506040513d601f19601f82011682018060405250810190613ff291906150bf565b600088815260d2602090815260408083206001600160a01b03851684529091529020549091506140229086615a68565b600088815260d2602090815260408083206001600160a01b03861684529091529020600101549095506140559085615a68565b935050808061406390615b84565b915050613f6d565b5060008060cc60009054906101000a90046001600160a01b03166001600160a01b03166318160ddd6040518163ffffffff1660e01b815260040160206040518083038186803b1580156140bd57600080fd5b505afa1580156140d1573d6000803e3d6000fd5b505050506040513d601f19601f820116820180604052508101906140f5919061535f565b111561422e5760cc60009054906101000a90046001600160a01b03166001600160a01b03166318160ddd6040518163ffffffff1660e01b815260040160206040518083038186803b15801561414957600080fd5b505afa15801561415d573d6000803e3d6000fd5b505050506040513d601f19601f82011682018060405250810190614181919061535f565b848460cc60009054906101000a90046001600160a01b03166001600160a01b03166318160ddd6040518163ffffffff1660e01b815260040160206040518083038186803b1580156141d157600080fd5b505afa1580156141e5573d6000803e3d6000fd5b505050506040513d601f19601f82011682018060405250810190614209919061535f565b6142139190615aa2565b61421d9190615a80565b6142279190615ac1565b905061423c565b614239836064615aa2565b90505b60cc54600087815260d26020526040908190206002015490516340c10f1960e01b81526001600160a01b03928316926340c10f199261428292911690859060040161572d565b600060405180830381600087803b15801561429c57600080fd5b505af11580156142b0573d6000803e3d6000fd5b505050600087815260d26020526040908190206002810154600482015460039092015492516001600160a01b0391821694508a938a937f4d3128af979c46a863cd489a3d0959d5d22181cdbdb1949b40cadfcdac0a1d3893614319939116919088904290615746565b60405180910390a4505050505050565b600082815260d3602052604081208054600282015460039092015460cc5491936001600160a01b039384169382169262ffffff600160a01b93849004169261437791879160ff9104166120ea565b60ce5460d15460405163a9059cbb60e01b81529293506001600160a01b03600160401b90920482169263a9059cbb926143b6921690859060040161572d565b602060405180830381600087803b1580156143d057600080fd5b505af11580156143e4573d6000803e3d6000fd5b505050506040513d601f19601f82011682018060405250810190614408919061533d565b5060ce546001600160a01b03848116600160401b9092041614156145bc5760ce54600160401b90046001600160a01b0316632e1a7d4d6144488388615ac1565b6040518263ffffffff1660e01b815260040161446691815260200190565b600060405180830381600087803b15801561448057600080fd5b505af1158015614494573d6000803e3d6000fd5b505050506000846001600160a01b031682876144b09190615ac1565b604051600081818185875af1925050503d80600081146144ec576040519150601f19603f3d011682016040523d82523d6000602084013e6144f1565b606091505b505090508061454e5760405162461bcd60e51b8152602060048201526024808201527f7472616e736665722065746820746f20746865207265717565737465722066616044820152631a5b195960e21b60648201526084016109d3565b600088815260d360205260409020600401546001600160a01b03861690899089907f476778ca38557db6dc935a57ece5bd93fbaca20183fadf86d7a1d2b85df65e0190889061459d888d615ac1565b426040516145ae9493929190615746565b60405180910390a4506136ea565b60ce546000906145e890600160401b90046001600160a01b0316856145e1858a615ac1565b8887612eca565b9050846001600160a01b031688887f476778ca38557db6dc935a57ece5bd93fbaca20183fadf86d7a1d2b85df65e018760d360008e8152602001908152602001600020600401548642604051611a8c9493929190615746565b60405163095ea7b360e01b81526000906001600160a01b0386169063095ea7b390614672908a90879060040161572d565b602060405180830381600087803b15801561468c57600080fd5b505af11580156146a0573d6000803e3d6000fd5b505050506040513d601f19601f820116820180604052508101906146c4919061533d565b506000604051806101000160405280876001600160a01b03168152602001866001600160a01b031681526020018862ffffff168152602001846001600160a01b031681526020014261012c6147199190615a68565b8152602080820187905260006040808401829052606093840191909152805163414bf38960e01b815284516001600160a01b03908116600483015292850151831660248201529084015162ffffff16604482015291830151811660648301526080830151608483015260a083015160a483015260c083015160c483015260e0830151811660e48301529192509089169063414bf3899061010401602060405180830381600087803b1580156147cd57600080fd5b505af11580156147e1573d6000803e3d6000fd5b505050506040513d601f19601f82011682018060405250810190612fee919061535f565b60408051600280825260608201835260009283929190602083019080368337019050509050858160008151811061483e5761483e615bcb565b60200260200101906001600160a01b031690816001600160a01b031681525050848160018151811061487257614872615bcb565b6001600160a01b03928316602091820292909201015260405163d06ca61f60e01b815260009189169063d06ca61f906148b1908890869060040161589d565b60006040518083038186803b1580156148c957600080fd5b505afa1580156148dd573d6000803e3d6000fd5b505050506040513d6000823e601f3d908101601f191682016040526149059190810190615309565b60405163095ea7b360e01b81529091506001600160a01b0388169063095ea7b390614936908b90899060040161572d565b602060405180830381600087803b15801561495057600080fd5b505af1158015614964573d6000803e3d6000fd5b505050506040513d601f19601f82011682018060405250810190614988919061533d565b50604051635c11d79560e01b81526001600160a01b03891690635c11d795906149be90889060009087908a9042906004016158b6565b600060405180830381600087803b1580156149d857600080fd5b505af11580156149ec573d6000803e3d6000fd5b5050505080600181518110614a0357614a03615bcb565b60200260200101519250505095945050505050565b60026098541415614a6b5760405162461bcd60e51b815260206004820152601f60248201527f5265656e7472616e637947756172643a207265656e7472616e742063616c6c0060448201526064016109d3565b6002609855565b815160009061ffff8816811115614af15760405162461bcd60e51b815260206004820152603760248201527f4d6178696d756d203520646966666572656e7420746f6b656e732063616e206260448201527f652073656e74207065722043434950204d65737361676500000000000000000060648201526084016109d3565b60005b81811015614bf657896001600160a01b0316858281518110614b1857614b18615bcb565b6020026020010151600001516001600160a01b031614614bee57848181518110614b4457614b44615bcb565b6020026020010151600001516001600160a01b031663095ea7b38c878481518110614b7157614b71615bcb565b6020026020010151602001516040518363ffffffff1660e01b8152600401614b9a92919061572d565b602060405180830381600087803b158015614bb457600080fd5b505af1158015614bc8573d6000803e3d6000fd5b505050506040513d601f19601f82011682018060405250810190614bec919061533d565b505b600101614af4565b506040805160a081019091526001600160a01b03861660c08201526000908060e0810160408051601f19818403018152918152908252602082018a905281018790526060016001866001811115614c4f57614c4f615bb5565b14614c5b576000614c5d565b8b5b6001600160a01b03168152602001614c856040518060200160405280622dc6c0815250613de8565b90526040516320487ded60e01b81529091506000906001600160a01b038d16906320487ded90614cbb908c9086906004016158f2565b60206040518083038186803b158015614cd357600080fd5b505afa158015614ce7573d6000803e3d6000fd5b505050506040513d601f19601f82011682018060405250810190614d0b919061535f565b905060006001866001811115614d2357614d23615bb5565b1415614db0576040516396f4e9f960e01b81526001600160a01b038e16906396f4e9f990614d57908d9087906004016158f2565b602060405180830381600087803b158015614d7157600080fd5b505af1158015614d85573d6000803e3d6000fd5b505050506040513d601f19601f82011682018060405250810190614da9919061535f565b9050614e35565b6040516396f4e9f960e01b81526001600160a01b038e16906396f4e9f9908490614de0908e9088906004016158f2565b6020604051808303818588803b158015614df957600080fd5b505af1158015614e0d573d6000803e3d6000fd5b50505050506040513d601f19601f82011682018060405250810190614e32919061535f565b90505b9c9b505050505050505050505050565b600082601f830112614e5657600080fd5b81516020614e6b614e6683615a45565b615a15565b80838252828201915082860187848660051b8901011115614e8b57600080fd5b60005b85811015614eb3578151614ea181615bf7565b84529284019290840190600101614e8e565b5090979650505050505050565b600082601f830112614ed157600080fd5b81356020614ee1614e6683615a45565b80838252828201915082860187848660061b8901011115614f0157600080fd5b6000805b86811015614f4c57604080848c031215614f1d578283fd5b614f256159cb565b8435614f3081615bf7565b8152848801358882015286529486019490920191600101614f05565b509198975050505050505050565b600082601f830112614f6b57600080fd5b81516020614f7b614e6683615a45565b80838252828201915082860187848660051b8901011115614f9b57600080fd5b60005b85811015614eb357815184529284019290840190600101614f9e565b600082601f830112614fcb57600080fd5b81516020614fdb614e6683615a45565b80838252828201915082860187848660051b8901011115614ffb57600080fd5b60005b85811015614eb357815161501181615c1d565b84529284019290840190600101614ffe565b600082601f83011261503457600080fd5b81356001600160401b0381111561504d5761504d615be1565b615060601f8201601f1916602001615a15565b81815284602083860101111561507557600080fd5b816020850160208301376000918101602001919091529392505050565b803561509d81615c1d565b919050565b6000602082840312156150b457600080fd5b813561110381615bf7565b6000602082840312156150d157600080fd5b815161110381615bf7565b6000806000606084860312156150f157600080fd5b83356150fc81615bf7565b9250602084013561510c81615bf7565b915060408401356001600160801b038116811461512857600080fd5b809150509250925092565b6000806000806080858703121561514957600080fd5b843561515481615bf7565b9350602085013561516481615bf7565b925060408501359150606085013561517b81615c0c565b939692955090935050565b6000806000806080858703121561519c57600080fd5b84356151a781615bf7565b93506020850135925060408501359150606085013561517b81615c0c565b6000602082840312156151d757600080fd5b81516001600160401b038111156151ed57600080fd5b61093284828501614e45565b6000806000806080858703121561520f57600080fd5b84516001600160401b038082111561522657600080fd5b61523288838901614e45565b955060209150818701518181111561524957600080fd5b61525589828a01614f5a565b95505060408701518181111561526a57600080fd5b8701601f8101891361527b57600080fd5b8051615289614e6682615a45565b8082825285820191508584018c878560051b87010111156152a957600080fd5b600094505b838510156152d55780516152c181615c0c565b8352600194909401939186019186016152ae565b5060608b01519097509450505050808211156152f057600080fd5b506152fd87828801614fba565b91505092959194509250565b60006020828403121561531b57600080fd5b81516001600160401b0381111561533157600080fd5b61093284828501614f5a565b60006020828403121561534f57600080fd5b8151801515811461110357600080fd5b60006020828403121561537157600080fd5b5051919050565b60006020828403121561538a57600080fd5b81356001600160e01b03198116811461110357600080fd5b6000602082840312156153b457600080fd5b81356001600160401b038111156153ca57600080fd5b820160a0818503121561110357600080fd5b6000602082840312156153ee57600080fd5b815161110381615c0c565b60006020828403121561540b57600080fd5b5035919050565b60008060008060008060c0878903121561542b57600080fd5b8651955060208701516001600160401b038082111561544957600080fd5b6154558a838b01614e45565b9650604089015191508082111561546b57600080fd5b6154778a838b01614e45565b955060608901519450608089015191508082111561549457600080fd5b6154a08a838b01614f5a565b935060a08901519150808211156154b657600080fd5b506154c389828a01614f5a565b9150509295509295509295565b600080604083850312156154e357600080fd5b50508035926020909101359150565b6000806000806080858703121561550857600080fd5b8435935060208501359250604085013561552181615bf7565b9150606085013561517b81615c0c565b60006020828403121561554357600080fd5b813561110381615c1d565b60006020828403121561556057600080fd5b815161110381615c1d565b600080600080600060a0868803121561558357600080fd5b853561558e81615c1d565b9450602086013561559e81615bf7565b935060408601356155ae81615bf7565b925060608601356155be81615bf7565b915060808601356155ce81615bf7565b809150509295509295909350565b600080600080608085870312156155f257600080fd5b84356155fd81615c1d565b9350602085013561560d81615bf7565b925060408501356001600160401b0381111561562857600080fd5b61563487828801615023565b92505060608501356002811061517b57600080fd5b60006020828403121561565b57600080fd5b813560ff8116811461110357600080fd5b600081518084526020808501945080840160005b838110156156a55781516001600160a01b031687529582019590820190600101615680565b509495945050505050565b600081518084526020808501945080840160005b838110156156a5578151875295820195908201906001016156c4565b6000815180845260005b81811015615706576020818501810151868301820152016156ea565b81811115615718576000602083870101525b50601f01601f19169290920160200192915050565b6001600160a01b03929092168252602082015260400190565b6001600160a01b0394909416845260208401929092526040830152606082015260800190565b600061010060ff8b1683528060208401526157898184018b61566c565b9050828103604084015261579d818a61566c565b905082810360608401526157b181896156b0565b905082810360808401526157c581886156b0565b90508560a084015282810360c08401526157df81866156b0565b905082810360e08401526157f381856156b0565b9b9a5050505050505050505050565b60208082526030908201527f50726f706f7361626c654f776e61626c653a206e6577206f776e65722069732060408201526f746865207a65726f206164647265737360801b606082015260800190565b6020808252602b908201527f496e697469616c697a61626c653a20636f6e7472616374206973206e6f74206960408201526a6e697469616c697a696e6760a81b606082015260800190565b828152604060208201526000610932604083018461566c565b85815284602082015260a0604082015260006158d560a083018661566c565b6001600160a01b0394909416606083015250608001529392505050565b600060406001600160401b038516835260208181850152845160a08386015261591e60e08601826156e0565b905081860151603f198087840301606088015261593b83836156e0565b88860151888203830160808a01528051808352908601945060009350908501905b8084101561598e57845180516001600160a01b031683528601518683015293850193600193909301929086019061595c565b5060608901516001600160a01b031660a08901526080890151888203830160c08a015295506159bd81876156e0565b9a9950505050505050505050565b604080519081016001600160401b03811182821017156159ed576159ed615be1565b60405290565b60405160a081016001600160401b03811182821017156159ed576159ed615be1565b604051601f8201601f191681016001600160401b0381118282101715615a3d57615a3d615be1565b604052919050565b60006001600160401b03821115615a5e57615a5e615be1565b5060051b60200190565b60008219821115615a7b57615a7b615b9f565b500190565b600082615a9d57634e487b7160e01b600052601260045260246000fd5b500490565b6000816000190483118215151615615abc57615abc615b9f565b500290565b600082821015615ad357615ad3615b9f565b500390565b600060a08236031215615aea57600080fd5b615af26159f3565b82358152615b0260208401615092565b602082015260408301356001600160401b0380821115615b2157600080fd5b615b2d36838701615023565b60408401526060850135915080821115615b4657600080fd5b615b5236838701615023565b60608401526080850135915080821115615b6b57600080fd5b50615b7836828601614ec0565b60808301525092915050565b6000600019821415615b9857615b98615b9f565b5060010190565b634e487b7160e01b600052601160045260246000fd5b634e487b7160e01b600052602160045260246000fd5b634e487b7160e01b600052603260045260246000fd5b634e487b7160e01b600052604160045260246000fd5b6001600160a01b038116811461106657600080fd5b62ffffff8116811461106657600080fd5b6001600160401b038116811461106657600080fdfea2646970667358221220ef052b596ea0bf6efc35be7be1838bad65084939885405c2c969f5c9185edbe964736f6c63430008070033","linkReferences":{}},"methodIdentifiers":{"MAX_FEE_RATE()":"92f6576e","MAX_TOKENS_LENGTH()":"d28c00fc","MIN_FEE_RATE()":"58c0f10d","MIN_FEE_UPDATE_INTERVAL()":"c9172ef7","ccipReceive((bytes32,uint64,bytes,bytes,(address,uint256)[]))":"85572ffb","convertEthToUsd(uint256)":"c086381e","crossChainFactoryBySelector(uint64)":"340fbc74","crossChainToken(uint64)":"19da7e2a","crossChainTokenSwapFee(uint64)":"9ff73f45","currentChainSelector()":"3d54cb6f","estimateAmountOut(address,address,uint128)":"0456f9c8","factoryStorage()":"c06e1ae2","feeRate()":"978bbdb9","feeReceiver()":"b3f00674","getAmountOut(address,address,uint256,uint24)":"dd811ac9","getPortfolioBalance()":"a8509fd8","getRouter()":"b0f479a1","i_link()":"7d253aff","indexToken()":"e7d015f2","initialize(uint64,address,address,address,address)":"16b487ff","issuanceData(uint256)":"2d6fc6b3","issuanceIndexTokens(address,uint256,uint256,uint24)":"fd485101","issuanceIndexTokensWithEth(uint256,uint256)":"41d11817","issuanceNonce()":"9dbb9c9e","latestFeeUpdate()":"011ced5f","owner()":"8da5cb5b","priceInWei()":"3c8da588","proposeOwner(address)":"b5ed298a","proposedOwner()":"d153b60c","redemption(uint256,uint256,address,uint24)":"d0586d71","redemptionData(uint256)":"aa4379c0","redemptionNonce()":"84d77bb1","renounceOwnership()":"715018a6","sendMessage(uint64,address,bytes,uint8)":"bcab90b3","setFeeRate(uint8)":"5177942a","setFeeReceiver(address)":"efdcd974","setIndexFactoryStorage(address)":"cc8659ae","supportsInterface(bytes4)":"01ffc9a7","transferOwnership(address)":"f2fde38b","weth()":"3fc8cef3"},"id":3}