{"abi":[{"type":"receive","stateMutability":"payable"},{"type":"function","name":"ccipReceive","inputs":[{"name":"message","type":"tuple","internalType":"struct Client.Any2EVMMessage","components":[{"name":"messageId","type":"bytes32","internalType":"bytes32"},{"name":"sourceChainSelector","type":"uint64","internalType":"uint64"},{"name":"sender","type":"bytes","internalType":"bytes"},{"name":"data","type":"bytes","internalType":"bytes"},{"name":"destTokenAmounts","type":"tuple[]","internalType":"struct Client.EVMTokenAmount[]","components":[{"name":"token","type":"address","internalType":"address"},{"name":"amount","type":"uint256","internalType":"uint256"}]}]}],"outputs":[],"stateMutability":"nonpayable"},{"type":"function","name":"convertEthToUsd","inputs":[{"name":"_ethAmount","type":"uint256","internalType":"uint256"}],"outputs":[{"name":"","type":"uint256","internalType":"uint256"}],"stateMutability":"view"},{"type":"function","name":"crossChainFactoryBySelector","inputs":[{"name":"_chainSelector","type":"uint64","internalType":"uint64"}],"outputs":[{"name":"","type":"address","internalType":"address"}],"stateMutability":"view"},{"type":"function","name":"crossChainToken","inputs":[{"name":"_chainSelector","type":"uint64","internalType":"uint64"}],"outputs":[{"name":"","type":"address","internalType":"address"}],"stateMutability":"view"},{"type":"function","name":"crossChainTokenSwapVersion","inputs":[{"name":"_chainSelector","type":"uint64","internalType":"uint64"}],"outputs":[{"name":"","type":"uint256","internalType":"uint256"}],"stateMutability":"view"},{"type":"function","name":"currentChainSelector","inputs":[],"outputs":[{"name":"","type":"uint64","internalType":"uint64"}],"stateMutability":"view"},{"type":"function","name":"estimateAmountOut","inputs":[{"name":"tokenIn","type":"address","internalType":"address"},{"name":"tokenOut","type":"address","internalType":"address"},{"name":"amountIn","type":"uint128","internalType":"uint128"}],"outputs":[{"name":"amountOut","type":"uint256","internalType":"uint256"}],"stateMutability":"view"},{"type":"function","name":"feeRate","inputs":[],"outputs":[{"name":"","type":"uint8","internalType":"uint8"}],"stateMutability":"view"},{"type":"function","name":"feeReceiver","inputs":[],"outputs":[{"name":"","type":"address","internalType":"address"}],"stateMutability":"view"},{"type":"function","name":"getAmountOut","inputs":[{"name":"tokenIn","type":"address","internalType":"address"},{"name":"tokenOut","type":"address","internalType":"address"},{"name":"amountIn","type":"uint256","internalType":"uint256"},{"name":"_swapVersion","type":"uint256","internalType":"uint256"}],"outputs":[{"name":"finalAmountOut","type":"uint256","internalType":"uint256"}],"stateMutability":"view"},{"type":"function","name":"getPortfolioBalance","inputs":[],"outputs":[{"name":"","type":"uint256","internalType":"uint256"}],"stateMutability":"view"},{"type":"function","name":"getRouter","inputs":[],"outputs":[{"name":"","type":"address","internalType":"address"}],"stateMutability":"view"},{"type":"function","name":"i_link","inputs":[],"outputs":[{"name":"","type":"address","internalType":"address"}],"stateMutability":"view"},{"type":"function","name":"i_maxTokensLength","inputs":[],"outputs":[{"name":"","type":"uint16","internalType":"uint16"}],"stateMutability":"view"},{"type":"function","name":"indexFactoryStorage","inputs":[],"outputs":[{"name":"","type":"address","internalType":"contract IndexFactoryStorage"}],"stateMutability":"view"},{"type":"function","name":"indexToken","inputs":[],"outputs":[{"name":"","type":"address","internalType":"contract IndexToken"}],"stateMutability":"view"},{"type":"function","name":"initialize","inputs":[{"name":"_currentChainSelector","type":"uint64","internalType":"uint64"},{"name":"_token","type":"address","internalType":"address payable"},{"name":"_chainlinkToken","type":"address","internalType":"address"},{"name":"_router","type":"address","internalType":"address"},{"name":"_weth","type":"address","internalType":"address"}],"outputs":[],"stateMutability":"nonpayable"},{"type":"function","name":"issuanceCompletedTokensCount","inputs":[{"name":"","type":"uint256","internalType":"uint256"}],"outputs":[{"name":"","type":"uint256","internalType":"uint256"}],"stateMutability":"view"},{"type":"function","name":"issuanceIndexTokens","inputs":[{"name":"_tokenIn","type":"address","internalType":"address"},{"name":"_inputAmount","type":"uint256","internalType":"uint256"},{"name":"_crossChainFee","type":"uint256","internalType":"uint256"},{"name":"_tokenInSwapVersion","type":"uint256","internalType":"uint256"}],"outputs":[],"stateMutability":"nonpayable"},{"type":"function","name":"issuanceIndexTokensWithEth","inputs":[{"name":"_inputAmount","type":"uint256","internalType":"uint256"},{"name":"_crossChainFee","type":"uint256","internalType":"uint256"}],"outputs":[],"stateMutability":"payable"},{"type":"function","name":"issuanceInputAmount","inputs":[{"name":"","type":"uint256","internalType":"uint256"}],"outputs":[{"name":"","type":"uint256","internalType":"uint256"}],"stateMutability":"view"},{"type":"function","name":"issuanceInputToken","inputs":[{"name":"","type":"uint256","internalType":"uint256"}],"outputs":[{"name":"","type":"address","internalType":"address"}],"stateMutability":"view"},{"type":"function","name":"issuanceMessageIdByNonce","inputs":[{"name":"","type":"uint256","internalType":"uint256"}],"outputs":[{"name":"","type":"bytes32","internalType":"bytes32"}],"stateMutability":"view"},{"type":"function","name":"issuanceNonce","inputs":[],"outputs":[{"name":"","type":"uint256","internalType":"uint256"}],"stateMutability":"view"},{"type":"function","name":"issuanceNonceRequester","inputs":[{"name":"","type":"uint256","internalType":"uint256"}],"outputs":[{"name":"","type":"address","internalType":"address"}],"stateMutability":"view"},{"type":"function","name":"issuanceTokenOldAndNewValues","inputs":[{"name":"","type":"uint256","internalType":"uint256"},{"name":"","type":"address","internalType":"address"}],"outputs":[{"name":"oldTokenValue","type":"uint256","internalType":"uint256"},{"name":"newTokenValue","type":"uint256","internalType":"uint256"}],"stateMutability":"view"},{"type":"function","name":"latestFeeUpdate","inputs":[],"outputs":[{"name":"","type":"uint256","internalType":"uint256"}],"stateMutability":"view"},{"type":"function","name":"owner","inputs":[],"outputs":[{"name":"","type":"address","internalType":"address"}],"stateMutability":"view"},{"type":"function","name":"portfolioTotalValueByNonce","inputs":[{"name":"","type":"uint256","internalType":"uint256"}],"outputs":[{"name":"","type":"uint256","internalType":"uint256"}],"stateMutability":"view"},{"type":"function","name":"priceInWei","inputs":[],"outputs":[{"name":"","type":"uint256","internalType":"uint256"}],"stateMutability":"view"},{"type":"function","name":"proposeOwner","inputs":[{"name":"_proposedOwner","type":"address","internalType":"address"}],"outputs":[],"stateMutability":"nonpayable"},{"type":"function","name":"proposedOwner","inputs":[],"outputs":[{"name":"","type":"address","internalType":"address"}],"stateMutability":"view"},{"type":"function","name":"redemption","inputs":[{"name":"amountIn","type":"uint256","internalType":"uint256"},{"name":"_crossChainFee","type":"uint256","internalType":"uint256"},{"name":"_tokenOut","type":"address","internalType":"address"},{"name":"_tokenOutSwapVersion","type":"uint256","internalType":"uint256"}],"outputs":[],"stateMutability":"nonpayable"},{"type":"function","name":"redemptionCompletedTokensCount","inputs":[{"name":"","type":"uint256","internalType":"uint256"}],"outputs":[{"name":"","type":"uint256","internalType":"uint256"}],"stateMutability":"view"},{"type":"function","name":"redemptionInputAmount","inputs":[{"name":"","type":"uint256","internalType":"uint256"}],"outputs":[{"name":"","type":"uint256","internalType":"uint256"}],"stateMutability":"view"},{"type":"function","name":"redemptionMessageIdByNonce","inputs":[{"name":"","type":"uint256","internalType":"uint256"}],"outputs":[{"name":"","type":"bytes32","internalType":"bytes32"}],"stateMutability":"view"},{"type":"function","name":"redemptionNonce","inputs":[],"outputs":[{"name":"","type":"uint256","internalType":"uint256"}],"stateMutability":"view"},{"type":"function","name":"redemptionNonceOutputToken","inputs":[{"name":"","type":"uint256","internalType":"uint256"}],"outputs":[{"name":"","type":"address","internalType":"address"}],"stateMutability":"view"},{"type":"function","name":"redemptionNonceOutputTokenSwapVersion","inputs":[{"name":"","type":"uint256","internalType":"uint256"}],"outputs":[{"name":"","type":"uint256","internalType":"uint256"}],"stateMutability":"view"},{"type":"function","name":"redemptionNonceRequester","inputs":[{"name":"","type":"uint256","internalType":"uint256"}],"outputs":[{"name":"","type":"address","internalType":"address"}],"stateMutability":"view"},{"type":"function","name":"redemptionNonceTotalValue","inputs":[{"name":"","type":"uint256","internalType":"uint256"}],"outputs":[{"name":"","type":"uint256","internalType":"uint256"}],"stateMutability":"view"},{"type":"function","name":"redemptionOutputToken","inputs":[{"name":"","type":"uint256","internalType":"uint256"}],"outputs":[{"name":"","type":"address","internalType":"address"}],"stateMutability":"view"},{"type":"function","name":"renounceOwnership","inputs":[],"outputs":[],"stateMutability":"nonpayable"},{"type":"function","name":"sendMessage","inputs":[{"name":"destinationChainSelector","type":"uint64","internalType":"uint64"},{"name":"receiver","type":"address","internalType":"address"},{"name":"_data","type":"bytes","internalType":"bytes"},{"name":"payFeesIn","type":"uint8","internalType":"enum IndexFactory.PayFeesIn"}],"outputs":[{"name":"","type":"bytes32","internalType":"bytes32"}],"stateMutability":"nonpayable"},{"type":"function","name":"setFeeRate","inputs":[{"name":"_newFee","type":"uint8","internalType":"uint8"}],"outputs":[],"stateMutability":"nonpayable"},{"type":"function","name":"setFeeReceiver","inputs":[{"name":"_feeReceiver","type":"address","internalType":"address"}],"outputs":[],"stateMutability":"nonpayable"},{"type":"function","name":"setIndexFactoryStorage","inputs":[{"name":"_indexFactoryStorage","type":"address","internalType":"address"}],"outputs":[],"stateMutability":"nonpayable"},{"type":"function","name":"supportsInterface","inputs":[{"name":"interfaceId","type":"bytes4","internalType":"bytes4"}],"outputs":[{"name":"","type":"bool","internalType":"bool"}],"stateMutability":"pure"},{"type":"function","name":"tokenValueByNonce","inputs":[{"name":"","type":"uint256","internalType":"uint256"},{"name":"","type":"address","internalType":"address"}],"outputs":[{"name":"","type":"uint256","internalType":"uint256"}],"stateMutability":"view"},{"type":"function","name":"transferOwnership","inputs":[{"name":"newOwner","type":"address","internalType":"address"}],"outputs":[],"stateMutability":"nonpayable"},{"type":"function","name":"updatePortfolioNonce","inputs":[],"outputs":[{"name":"","type":"uint256","internalType":"uint256"}],"stateMutability":"view"},{"type":"function","name":"updatedTokensValueCount","inputs":[{"name":"","type":"uint256","internalType":"uint256"}],"outputs":[{"name":"","type":"uint256","internalType":"uint256"}],"stateMutability":"view"},{"type":"function","name":"weth","inputs":[],"outputs":[{"name":"","type":"address","internalType":"contract IWETH"}],"stateMutability":"view"},{"type":"event","name":"Initialized","inputs":[{"name":"version","type":"uint8","indexed":false,"internalType":"uint8"}],"anonymous":false},{"type":"event","name":"Issuanced","inputs":[{"name":"messageId","type":"bytes32","indexed":true,"internalType":"bytes32"},{"name":"nonce","type":"uint256","indexed":true,"internalType":"uint256"},{"name":"user","type":"address","indexed":true,"internalType":"address"},{"name":"inputToken","type":"address","indexed":false,"internalType":"address"},{"name":"inputAmount","type":"uint256","indexed":false,"internalType":"uint256"},{"name":"outputAmount","type":"uint256","indexed":false,"internalType":"uint256"},{"name":"time","type":"uint256","indexed":false,"internalType":"uint256"}],"anonymous":false},{"type":"event","name":"MessageSent","inputs":[{"name":"messageId","type":"bytes32","indexed":false,"internalType":"bytes32"}],"anonymous":false},{"type":"event","name":"OwnershipTransferred","inputs":[{"name":"previousOwner","type":"address","indexed":true,"internalType":"address"},{"name":"newOwner","type":"address","indexed":true,"internalType":"address"}],"anonymous":false},{"type":"event","name":"Redemption","inputs":[{"name":"messageId","type":"bytes32","indexed":true,"internalType":"bytes32"},{"name":"nonce","type":"uint256","indexed":true,"internalType":"uint256"},{"name":"user","type":"address","indexed":true,"internalType":"address"},{"name":"outputToken","type":"address","indexed":false,"internalType":"address"},{"name":"inputAmount","type":"uint256","indexed":false,"internalType":"uint256"},{"name":"outputAmount","type":"uint256","indexed":false,"internalType":"uint256"},{"name":"time","type":"uint256","indexed":false,"internalType":"uint256"}],"anonymous":false},{"type":"event","name":"RequestIssuance","inputs":[{"name":"messageId","type":"bytes32","indexed":true,"internalType":"bytes32"},{"name":"nonce","type":"uint256","indexed":true,"internalType":"uint256"},{"name":"user","type":"address","indexed":true,"internalType":"address"},{"name":"inputToken","type":"address","indexed":false,"internalType":"address"},{"name":"inputAmount","type":"uint256","indexed":false,"internalType":"uint256"},{"name":"outputAmount","type":"uint256","indexed":false,"internalType":"uint256"},{"name":"time","type":"uint256","indexed":false,"internalType":"uint256"}],"anonymous":false},{"type":"event","name":"RequestRedemption","inputs":[{"name":"messageId","type":"bytes32","indexed":true,"internalType":"bytes32"},{"name":"nonce","type":"uint256","indexed":true,"internalType":"uint256"},{"name":"user","type":"address","indexed":true,"internalType":"address"},{"name":"outputToken","type":"address","indexed":false,"internalType":"address"},{"name":"inputAmount","type":"uint256","indexed":false,"internalType":"uint256"},{"name":"outputAmount","type":"uint256","indexed":false,"internalType":"uint256"},{"name":"time","type":"uint256","indexed":false,"internalType":"uint256"}],"anonymous":false},{"type":"error","name":"InvalidRouter","inputs":[{"name":"router","type":"address","internalType":"address"}]}],"bytecode":{"object":"0x608060405234801561001057600080fd5b506155f180620000216000396000f3fe60806040526004361061031d5760003560e01c806384d77bb1116101ab578063b3f00674116100f7578063cf9ee31911610095578063e7d015f21161006f578063e7d015f214610aa8578063efdcd97414610ac8578063f07bb85514610ae8578063f2fde38b14610b1557600080fd5b8063cf9ee31914610a3b578063d153b60c14610a68578063d1f7a99114610a8857600080fd5b8063c070a097116100d1578063c070a09714610998578063c086381e146109c5578063c3a755b4146109e5578063cc8659ae14610a1b57600080fd5b8063b3f0067414610938578063b5ed298a14610958578063bcab90b31461097857600080fd5b80639ad1c35611610164578063a3d0ac781161013e578063a3d0ac7814610891578063a8509fd8146108c7578063b0f479a1146108dc578063b316e7fd1461090057600080fd5b80639ad1c3561461082e5780639cf545211461084e5780639dbb9c9e1461087b57600080fd5b806384d77bb11461074d57806385572ffb146107635780638da5cb5b146107835780639121c717146107a157806394037369146107ce578063978bbdb9146107fb57600080fd5b80633d54cb6f1161026a5780635177942a1161022357806372bc260c116101fd57806372bc260c1461067f5780637d253aff146106ac5780637d3546f7146106cc57806381b15279146106f957600080fd5b80635177942a146106155780635b6a035114610635578063715018a61461066a57600080fd5b80633d54cb6f1461050a5780633fc8cef3146105425780633fef75451461056957806341d118171461059f57806348784303146105b25780634c776de7146105df57600080fd5b806313cb1f83116102d7578063306b3a28116102b1578063306b3a2814610488578063326f6fb2146104b5578063340fbc74146104d55780633c8da588146104f557600080fd5b806313cb1f831461042857806316b487ff1461044857806319da7e2a1461046857600080fd5b80623cf40214610329578063011ced5f1461035257806301ffc9a7146103685780630456f9c8146103985780630603fb05146103b857806309445ad41461040657600080fd5b3661032457005b600080fd5b34801561033557600080fd5b5061033f60d15481565b6040519081526020015b60405180910390f35b34801561035e57600080fd5b5061033f60cd5481565b34801561037457600080fd5b50610388610383366004614d20565b610b35565b6040519015158152602001610349565b3480156103a457600080fd5b5061033f6103b3366004614ba5565b610b6c565b3480156103c457600080fd5b506103ee6103d3366004614d84565b60de602052600090815260409020546001600160a01b031681565b6040516001600160a01b039091168152602001610349565b34801561041257600080fd5b50610426610421366004614ead565b610c08565b005b34801561043457600080fd5b5061033f610443366004614bfc565b611067565b34801561045457600080fd5b50610426610463366004614f26565b6110f7565b34801561047457600080fd5b506103ee610483366004614eec565b61135e565b34801561049457600080fd5b5061033f6104a3366004614d84565b60dd6020526000908152604090205481565b3480156104c157600080fd5b5061033f6104d0366004614eec565b6113e4565b3480156104e157600080fd5b506103ee6104f0366004614eec565b611485565b34801561050157600080fd5b5061033f6114bf565b34801561051657600080fd5b5060ce5461052a906001600160401b031681565b6040516001600160401b039091168152602001610349565b34801561054e57600080fd5b5060ce546103ee90600160401b90046001600160a01b031681565b34801561057557600080fd5b506103ee610584366004614d84565b60d8602052600090815260409020546001600160a01b031681565b6104266105ad366004614e8b565b611541565b3480156105be57600080fd5b5061033f6105cd366004614d84565b60d76020526000908152604090205481565b3480156105eb57600080fd5b506103ee6105fa366004614d84565b60e1602052600090815260409020546001600160a01b031681565b34801561062157600080fd5b5061042661063036600461500f565b611758565b34801561064157600080fd5b5060cb5461065790600160a01b900461ffff1681565b60405161ffff9091168152602001610349565b34801561067657600080fd5b506104266118a2565b34801561068b57600080fd5b5061033f61069a366004614d84565b60df6020526000908152604090205481565b3480156106b857600080fd5b5060cb546103ee906001600160a01b031681565b3480156106d857600080fd5b5061033f6106e7366004614d84565b60d96020526000908152604090205481565b34801561070557600080fd5b50610738610714366004614d9d565b60d36020908152600092835260408084209091529082529020805460019091015482565b60408051928352602083019190915201610349565b34801561075957600080fd5b5061033f60d05481565b34801561076f57600080fd5b5061042661077e366004614d4a565b6118b6565b34801561078f57600080fd5b506033546001600160a01b03166103ee565b3480156107ad57600080fd5b5061033f6107bc366004614d84565b60dc6020526000908152604090205481565b3480156107da57600080fd5b5061033f6107e9366004614d84565b60d46020526000908152604090205481565b34801561080757600080fd5b5060cc5461081c90600160a01b900460ff1681565b60405160ff9091168152602001610349565b34801561083a57600080fd5b50610426610849366004614c42565b6118fd565b34801561085a57600080fd5b5061033f610869366004614d84565b60e26020526000908152604090205481565b34801561088757600080fd5b5061033f60cf5481565b34801561089d57600080fd5b506103ee6108ac366004614d84565b60d5602052600090815260409020546001600160a01b031681565b3480156108d357600080fd5b5061033f611b47565b3480156108e857600080fd5b506000546201000090046001600160a01b03166103ee565b34801561090c57600080fd5b5061033f61091b366004614d9d565b60db60209081526000928352604080842090915290825290205481565b34801561094457600080fd5b5060d2546103ee906001600160a01b031681565b34801561096457600080fd5b50610426610973366004614b6b565b611f60565b34801561098457600080fd5b5061033f610993366004614f97565b611fb0565b3480156109a457600080fd5b5061033f6109b3366004614d84565b60da6020526000908152604090205481565b3480156109d157600080fd5b5061033f6109e0366004614d84565b612291565b3480156109f157600080fd5b506103ee610a00366004614d84565b60e3602052600090815260409020546001600160a01b031681565b348015610a2757600080fd5b50610426610a36366004614b6b565b6122b8565b348015610a4757600080fd5b5061033f610a56366004614d84565b60e06020526000908152604090205481565b348015610a7457600080fd5b506065546103ee906001600160a01b031681565b348015610a9457600080fd5b5060ca546103ee906001600160a01b031681565b348015610ab457600080fd5b5060cc546103ee906001600160a01b031681565b348015610ad457600080fd5b50610426610ae3366004614b6b565b6122e2565b348015610af457600080fd5b5061033f610b03366004614d84565b60d66020526000908152604090205481565b348015610b2157600080fd5b50610426610b30366004614b6b565b61230c565b60006001600160e01b031982166385572ffb60e01b1480610b6657506001600160e01b031982166301ffc9a760e01b145b92915050565b60ca54604051628adf3960e31b81526001600160a01b03858116600483015284811660248301526001600160801b03841660448301526000921690630456f9c89060640160206040518083038186803b158015610bc857600080fd5b505afa158015610bdc573d6000803e3d6000fd5b505050506040513d601f19601f82011682018060405250810190610c009190614d07565b949350505050565b60cc54604080516318160ddd60e01b815290516000926001600160a01b0316916318160ddd916004808301926020929190829003018186803b158015610c4d57600080fd5b505afa158015610c61573d6000803e3d6000fd5b505050506040513d601f19601f82011682018060405250810190610c859190614d07565b610c9786670de0b6b3a764000061543c565b610ca1919061541a565b9050600160d06000828254610cb69190615402565b909155505060d08054600090815260d8602090815260408083208054336001600160a01b031991821681179092558554855260de8452828520805482166001600160a01b038b81169182179092558754875260df86528487208a90558754875260e286528487208d90559654865260e390945293829020805490941690941790925560cc549151632770a7eb60e21b8152911691639dc29fac91610d5f9190899060040161511c565b600060405180830381600087803b158015610d7957600080fd5b505af1158015610d8d573d6000803e3d6000fd5b50505050600060ca60009054906101000a90046001600160a01b03166001600160a01b03166369487b1c6040518163ffffffff1660e01b815260040160206040518083038186803b158015610de157600080fd5b505afa158015610df5573d6000803e3d6000fd5b505050506040513d601f19601f82011682018060405250810190610e199190614d07565b9050600060ca60009054906101000a90046001600160a01b03166001600160a01b031663b90b8a2a6040518163ffffffff1660e01b815260040160206040518083038186803b158015610e6b57600080fd5b505afa158015610e7f573d6000803e3d6000fd5b505050506040513d601f19601f82011682018060405250810190610ea39190614d07565b905060005b8281101561100b5760ca54604051636dab0c9160e11b815260048101849052602481018390526000916001600160a01b03169063db5619229060440160206040518083038186803b158015610efc57600080fd5b505afa158015610f10573d6000803e3d6000fd5b505050506040513d601f19601f82011682018060405250810190610f349190614f09565b60ca54604051637e34c5a560e11b81526001600160401b03831660048201529192506000916001600160a01b039091169063fc698b4a9060240160206040518083038186803b158015610f8657600080fd5b505afa158015610f9a573d6000803e3d6000fd5b505050506040513d601f19601f82011682018060405250810190610fbe9190614d07565b60ce549091506001600160401b0383811691161415610fe957610fe48660d05483612431565b610ff6565b610ff68660d054846126ef565b505080806110039061551e565b915050610ea8565b5060d054600081815260dd60205260408082205490513393927f4f9e9bfb3670784096375593cb821e86bd88b1fcb08efc38330012d8c33c3e3691611056918b918e91904290615135565b60405180910390a450505050505050565b60ca546040516313cb1f8360e01b81526000916001600160a01b0316906313cb1f839061109e9088908890889088906004016150f3565b60206040518083038186803b1580156110b657600080fd5b505afa1580156110ca573d6000803e3d6000fd5b505050506040513d601f19601f820116820180604052508101906110ee9190614d07565b95945050505050565b600054610100900460ff16158080156111175750600054600160ff909116105b806111315750303b158015611131575060005460ff166001145b6111995760405162461bcd60e51b815260206004820152602e60248201527f496e697469616c697a61626c653a20636f6e747261637420697320616c72656160448201526d191e481a5b9a5d1a585b1a5e995960921b60648201526084015b60405180910390fd5b6000805460ff1916600117905580156111bc576000805461ff0019166101001790555b6111c58361295f565b6111cd6129da565b6111d5612a09565b6111dd612a34565b60ce805467ffffffffffffffff19166001600160401b03881617905560cc80546001600160a01b0319166001600160a01b038781169190911790915560cb80548683166001600160b01b03199091168117600560a01b1790915560005460405163095ea7b360e01b8152919263095ea7b39261126992620100009004909116906000199060040161511c565b602060405180830381600087803b15801561128357600080fd5b505af1158015611297573d6000803e3d6000fd5b505050506040513d601f19601f820116820180604052508101906112bb9190614ce5565b5060ce805468010000000000000000600160e01b031916600160401b6001600160a01b0385160217905560cc805460ff60a01b1916600560a11b1790554260cd5560d28054336001600160a01b03199091161790558015611356576000805461ff0019169055604051600181527f7f26b83ff96e1f2b6a682f133852f6798a09c465da95921460cefb38474024989060200160405180910390a15b505050505050565b60ca54604051630ced3f1560e11b81526001600160401b03831660048201526000916001600160a01b0316906319da7e2a906024015b60206040518083038186803b1580156113ac57600080fd5b505afa1580156113c0573d6000803e3d6000fd5b505050506040513d601f19601f82011682018060405250810190610b669190614b88565b6000806113f08361135e565b60ca54604051630174cbe560e41b81526001600160401b03861660048201526001600160a01b03808416602483015292935091169063174cbe509060440160206040518083038186803b15801561144657600080fd5b505afa15801561145a573d6000803e3d6000fd5b505050506040513d601f19601f8201168201806040525081019061147e9190614d07565b9392505050565b60ca54604051630d03ef1d60e21b81526001600160401b03831660048201526000916001600160a01b03169063340fbc7490602401611394565b60ca5460408051630791b4b160e31b815290516000926001600160a01b031691633c8da588916004808301926020929190829003018186803b15801561150457600080fd5b505afa158015611518573d6000803e3d6000fd5b505050506040513d601f19601f8201168201806040525081019061153c9190614d07565b905090565b60cc546000906127109061155f90600160a01b900460ff168561543c565b611569919061541a565b90506000826115788386615402565b6115829190615402565b9050803410156115d45760405162461bcd60e51b815260206004820152601a60248201527f6c6f776572207468616e20726571756972656420616d6f756e740000000000006044820152606401611190565b60ce60089054906101000a90046001600160a01b03166001600160a01b031663d0e30db0826040518263ffffffff1660e01b81526004016000604051808303818588803b15801561162457600080fd5b505af1158015611638573d6000803e3d6000fd5b505060ce5460d25460405163a9059cbb60e01b81526001600160a01b03600160401b9093048316955063a9059cbb945061167a9350911690869060040161511c565b602060405180830381600087803b15801561169457600080fd5b505af11580156116a8573d6000803e3d6000fd5b505050506040513d601f19601f820116820180604052508101906116cc9190614ce5565b5060cf80549060006116dd8361551e565b909155505060cf8054600090815260d5602090815260408083208054336001600160a01b0319918216179091558454845260e0835281842089905560ce80549554855260e1909352922080546001600160a01b03600160401b9586900481169190941617905554611752929004168585612a62565b50505050565b611760612dcd565b600060cd5442611770919061545b565b9050600c603c611780818461541a565b61178a919061541a565b116117fd5760405162461bcd60e51b815260206004820152603960248201527f596f752073686f756c642077616974206174206c6561737420313220686f757260448201527f7320616674657220746865206c617465737420757064617465000000000000006064820152608401611190565b60648260ff1611158015611815575060018260ff1610155b61187d5760405162461bcd60e51b815260206004820152603360248201527f546865206e65774665652073686f756c64206265206265747765656e203120616044820152726e64203130302028302e303125202d2031252960681b6064820152608401611190565b5060cc805460ff909216600160a01b0260ff60a01b199092169190911790554260cd55565b6118aa612dcd565b6118b46000612e27565b565b6000546201000090046001600160a01b031633146118e9576040516335fdcccd60e21b8152336004820152602401611190565b6118fa6118f582615472565b612e79565b50565b60cc546000906127109061191b90600160a01b900460ff168661543c565b611925919061541a565b60cc549091506001600160a01b03808716916323b872dd9133911661194a8589615402565b6040516001600160e01b031960e086901b1681526001600160a01b0393841660048201529290911660248301526044820152606401602060405180830381600087803b15801561199957600080fd5b505af11580156119ad573d6000803e3d6000fd5b505050506040513d601f19601f820116820180604052508101906119d19190614ce5565b5060ce546000906119ff908790600160401b90046001600160a01b03166119f88589615402565b3087612f6d565b60cc5490915060009061271090611a2090600160a01b900460ff168461543c565b611a2a919061541a565b90506000611a38828461545b565b60ce5460d25460405163a9059cbb60e01b81529293506001600160a01b03600160401b90920482169263a9059cbb92611a77921690869060040161511c565b602060405180830381600087803b158015611a9157600080fd5b505af1158015611aa5573d6000803e3d6000fd5b505050506040513d601f19601f82011682018060405250810190611ac99190614ce5565b5060cf8054906000611ada8361551e565b909155505060cf8054600090815260d5602090815260408083208054336001600160a01b0319918216179091558454845260e083528184208c90559354835260e1909152902080549091166001600160a01b038a16179055611b3d888288612a62565b5050505050505050565b600080600060ca60009054906101000a90046001600160a01b03166001600160a01b03166353fd43326040518163ffffffff1660e01b815260040160206040518083038186803b158015611b9a57600080fd5b505afa158015611bae573d6000803e3d6000fd5b505050506040513d601f19601f82011682018060405250810190611bd29190614d07565b905060005b81811015611f585760ca5460405163264cae9360e21b8152600481018390526000916001600160a01b031690639932ba4c9060240160206040518083038186803b158015611c2457600080fd5b505afa158015611c38573d6000803e3d6000fd5b505050506040513d601f19601f82011682018060405250810190611c5c9190614b88565b60ca54604051633aa3b3c160e21b81526001600160a01b0380841660048301529293506000929091169063ea8ecf049060240160206040518083038186803b158015611ca757600080fd5b505afa158015611cbb573d6000803e3d6000fd5b505050506040513d601f19601f82011682018060405250810190611cdf9190614f09565b60ca5460405163d90bc21160e01b81526001600160a01b0385811660048301529293506000929091169063d90bc2119060240160206040518083038186803b158015611d2a57600080fd5b505afa158015611d3e573d6000803e3d6000fd5b505050506040513d601f19601f82011682018060405250810190611d629190614d07565b60ce549091506001600160401b0383811691161415611f425760ce546001600160a01b03848116600160401b909204161415611e265760cc546040516370a0823160e01b81526001600160a01b039182166004820152908416906370a082319060240160206040518083038186803b158015611ddd57600080fd5b505afa158015611df1573d6000803e3d6000fd5b505050506040513d601f19601f82011682018060405250810190611e159190614d07565b611e1f9087615402565b9550611f42565b60ca5460ce5460cc546040516370a0823160e01b81526001600160a01b0391821660048201526000938216926313cb1f83928892600160401b909204811691908316906370a082319060240160206040518083038186803b158015611e8a57600080fd5b505afa158015611e9e573d6000803e3d6000fd5b505050506040513d601f19601f82011682018060405250810190611ec29190614d07565b866040518563ffffffff1660e01b8152600401611ee294939291906150f3565b60206040518083038186803b158015611efa57600080fd5b505afa158015611f0e573d6000803e3d6000fd5b505050506040513d601f19601f82011682018060405250810190611f329190614d07565b9050611f3e8188615402565b9650505b5050508080611f509061551e565b915050611bd7565b509092915050565b611f68612dcd565b6001600160a01b038116611f8e5760405162461bcd60e51b8152600401611190906151f1565b606580546001600160a01b0319166001600160a01b0392909216919091179055565b6040805160a081019091526001600160a01b03841660c082015260009081908060e0810160408051808303601f19018152918152908252602080830188905281516000808252918101835292909101919061202d565b60408051808201909152600080825260208201528152602001906001900390816120065790505b50815260200160018560018111156120475761204761554f565b14612053576000612060565b60cb546001600160a01b03165b6001600160a01b031681526020016120886040518060200160405280622dc6c08152506130bf565b9052600080546040516320487ded60e01b81529293509091620100009091046001600160a01b0316906320487ded906120c7908a90869060040161528c565b60206040518083038186803b1580156120df57600080fd5b505afa1580156120f3573d6000803e3d6000fd5b505050506040513d601f19601f820116820180604052508101906121179190614d07565b90506000600185600181111561212f5761212f61554f565b14156121c5576000546040516396f4e9f960e01b8152620100009091046001600160a01b0316906396f4e9f99061216c908b90879060040161528c565b602060405180830381600087803b15801561218657600080fd5b505af115801561219a573d6000803e3d6000fd5b505050506040513d601f19601f820116820180604052508101906121be9190614d07565b9050612253565b6000546040516396f4e9f960e01b8152620100009091046001600160a01b0316906396f4e9f99084906121fe908c90889060040161528c565b6020604051808303818588803b15801561221757600080fd5b505af115801561222b573d6000803e3d6000fd5b50505050506040513d601f19601f820116820180604052508101906122509190614d07565b90505b6040518181527f54791b38f3859327992a1ca0590ad3c0f08feba98d1a4f56ab0dca74d203392a9060200160405180910390a1979650505050505050565b6000670de0b6b3a76400006122a46114bf565b6122ae908461543c565b610b66919061541a565b6122c0612dcd565b60ca80546001600160a01b0319166001600160a01b0392909216919091179055565b6122ea612dcd565b60d280546001600160a01b0319166001600160a01b0392909216919091179055565b6001600160a01b0381166123325760405162461bcd60e51b8152600401611190906151f1565b6065546001600160a01b038281169116146123aa5760405162461bcd60e51b815260206004820152603260248201527f50726f706f7361626c654f776e61626c653a206e6577206f776e6572206973206044820152713737ba10383937b837b9b2b21037bbb732b960711b6064820152608401611190565b6001600160a01b03811633146124285760405162461bcd60e51b815260206004820152603a60248201527f50726f706f7361626c654f776e61626c653a20746869732063616c6c206d757360448201527f74206265206d61646520627920746865206e6577206f776e65720000000000006064820152608401611190565b6118fa81612e27565b60005b818110156117525760ca5460405163264cae9360e21b8152600481018390526000916001600160a01b031690639932ba4c9060240160206040518083038186803b15801561248157600080fd5b505afa158015612495573d6000803e3d6000fd5b505050506040513d601f19601f820116820180604052508101906124b99190614b88565b60ca5460405163d90bc21160e01b81526001600160a01b0380841660048301529293506000929091169063d90bc2119060240160206040518083038186803b15801561250457600080fd5b505afa158015612518573d6000803e3d6000fd5b505050506040513d601f19601f8201168201806040525081019061253c9190614d07565b60cc546040516370a0823160e01b81526001600160a01b039182166004820152919250600091670de0b6b3a7640000918516906370a082319060240160206040518083038186803b15801561259057600080fd5b505afa1580156125a4573d6000803e3d6000fd5b505050506040513d601f19601f820116820180604052508101906125c89190614d07565b6125d2908961543c565b6125dc919061541a565b60ce549091506000906001600160a01b03858116600160401b90920416141561266b5760cc546040516377524af960e01b81526001600160a01b03909116906377524af990612631908390869060040161511c565b600060405180830381600087803b15801561264b57600080fd5b505af115801561265f573d6000803e3d6000fd5b5050505081905061268f565b60ce5461268c908590600160401b90046001600160a01b0316843087612f6d565b90505b600087815260d66020526040812080548392906126ad908490615402565b9091555050600087815260d7602052604081208054600192906126d1908490615402565b925050819055505050505080806126e79061551e565b915050612434565b60006126fa82611485565b60ca5460405163d1c68aa360e01b81526001600160401b03851660048201529192506000916001600160a01b039091169063d1c68aa39060240160006040518083038186803b15801561274c57600080fd5b505afa158015612760573d6000803e3d6000fd5b505050506040513d6000823e601f3d908101601f191682016040526127889190810190614c7d565b60ca5460405163221f337160e01b81526001600160401b03861660048201529192506000916001600160a01b039091169063221f33719060240160006040518083038186803b1580156127da57600080fd5b505afa1580156127ee573d6000803e3d6000fd5b505050506040513d6000823e601f3d908101601f191682016040526128169190810190614cb1565b60ca54604051632bda5acd60e21b81526001600160401b03871660048201529192506000916001600160a01b039091169063af696b349060240160006040518083038186803b15801561286857600080fd5b505afa15801561287c573d6000803e3d6000fd5b505050506040513d6000823e601f3d908101601f191682016040526128a49190810190614cb1565b60408051600080825260208083018281526001848601818152608086019096529596509294929391929060608601908036833701905050905089816000815181106128f1576128f1615565565b60200260200101818152505060006001878588868e8a8860405160200161291f98979695949392919061515b565b6040516020818303038152906040529050600061293f8a8a846001611fb0565b60009b8c5260dd6020526040909b209a909a555050505050505050505050565b600054610100900460ff166129865760405162461bcd60e51b815260040161119090615241565b6001600160a01b0381166129b0576040516335fdcccd60e21b815260006004820152602401611190565b600080546001600160a01b03909216620100000262010000600160b01b0319909216919091179055565b600054610100900460ff16612a015760405162461bcd60e51b815260040161119090615241565b6118b46130fc565b600054610100900460ff16612a305760405162461bcd60e51b815260040161119090615241565b6118b45b600054610100900460ff16612a5b5760405162461bcd60e51b815260040161119090615241565b6001609855565b60ce5460cc5460405163a9059cbb60e01b81526001600160a01b03600160401b90930483169263a9059cbb92612a9f92911690869060040161511c565b602060405180830381600087803b158015612ab957600080fd5b505af1158015612acd573d6000803e3d6000fd5b505050506040513d601f19601f82011682018060405250810190612af19190614ce5565b5060ca5460408051631a521ec760e21b8152905184926000926001600160a01b03909116916369487b1c91600480820192602092909190829003018186803b158015612b3c57600080fd5b505afa158015612b50573d6000803e3d6000fd5b505050506040513d601f19601f82011682018060405250810190612b749190614d07565b9050600060ca60009054906101000a90046001600160a01b03166001600160a01b031663b90b8a2a6040518163ffffffff1660e01b815260040160206040518083038186803b158015612bc657600080fd5b505afa158015612bda573d6000803e3d6000fd5b505050506040513d601f19601f82011682018060405250810190612bfe9190614d07565b905060005b82811015612d695760ca54604051636dab0c9160e11b815260048101849052602481018390526000916001600160a01b03169063db5619229060440160206040518083038186803b158015612c5757600080fd5b505afa158015612c6b573d6000803e3d6000fd5b505050506040513d601f19601f82011682018060405250810190612c8f9190614f09565b60ca54604051637e34c5a560e11b81526001600160401b03831660048201529192506000916001600160a01b039091169063fc698b4a9060240160206040518083038186803b158015612ce157600080fd5b505afa158015612cf5573d6000803e3d6000fd5b505050506040513d601f19601f82011682018060405250810190612d199190614d07565b60ce549091506001600160401b0383811691161415612d4657612d418660cf5483858861312c565b612d54565b612d548660cf548487613573565b50508080612d619061551e565b915050612c03565b5060cf54600081815260dc602090815260408083205460e09092528083205490513394937f497983feda2f53898206317c0b392bffd918715fad18aaedf4ac296f7ec6bf3d92612dbd928d92904290615135565b60405180910390a4505050505050565b6033546001600160a01b031633146118b45760405162461bcd60e51b815260206004820181905260248201527f4f776e61626c653a2063616c6c6572206973206e6f7420746865206f776e65726044820152606401611190565b603380546001600160a01b038381166001600160a01b0319831681179093556040519116919082907f8be0079c531659141344cd1fd0a4f28419497f9722a3daafe3b4186f6b6457e090600090a35050565b805160208083015160ca54604080516329fea19960e11b8152905192936000936001600160a01b03909316926353fd4332926004808201939291829003018186803b158015612ec757600080fd5b505afa158015612edb573d6000803e3d6000fd5b505050506040513d601f19601f82011682018060405250810190612eff9190614d07565b90506000806000806000808960600151806020019051810190612f229190614dcd565b9550955095509550955095508560001415612f4a57612f45838684848b8e6139cc565b612f61565b8560011415612f6157612f61838b878a8c8e613b2d565b50505050505050505050565b60ca546040516313cb1f8360e01b815260009182916001600160a01b03909116906313cb1f8390612fa8908a908a908a9089906004016150f3565b60206040518083038186803b158015612fc057600080fd5b505afa158015612fd4573d6000803e3d6000fd5b505050506040513d601f19601f82011682018060405250810190612ff89190614d07565b9050600081156130a25760cc546040516305f370ed60e41b81526001600160a01b038a8116600483015289811660248301526044820189905287811660648301526084820187905290911690635f370ed09060a401602060405180830381600087803b15801561306757600080fd5b505af115801561307b573d6000803e3d6000fd5b505050506040513d601f19601f8201168201806040525081019061309f9190614d07565b90505b83600314156130b45791506110ee9050565b509695505050505050565b60408051915160248084019190915281518084039091018152604490920190526020810180516001600160e01b03166397a657c960e01b17905290565b600054610100900460ff166131235760405162461bcd60e51b815260040161119090615241565b6118b433612e27565b60005b838110156113565760ca546040516309c6d7f360e21b8152600481018490526001600160401b0385166024820152604481018390526000916001600160a01b03169063271b5fcc9060640160206040518083038186803b15801561319257600080fd5b505afa1580156131a6573d6000803e3d6000fd5b505050506040513d601f19601f820116820180604052508101906131ca9190614b88565b60ca5460405163d90bc21160e01b81526001600160a01b0380841660048301529293506000929091169063d90bc2119060240160206040518083038186803b15801561321557600080fd5b505afa158015613229573d6000803e3d6000fd5b505050506040513d601f19601f8201168201806040525081019061324d9190614d07565b60ca54604051630be5271360e01b81526001600160a01b03858116600483015292935060009290911690630be527139060240160206040518083038186803b15801561329857600080fd5b505afa1580156132ac573d6000803e3d6000fd5b505050506040513d601f19601f820116820180604052508101906132d09190614d07565b60ce549091506001600160a01b03848116600160401b9092041614156133985760cc546040516370a0823160e01b81526001600160a01b039182166004820152613370918516906370a082319060240160206040518083038186803b15801561333857600080fd5b505afa15801561334c573d6000803e3d6000fd5b505050506040513d601f19601f820116820180604052508101906109e09190614d07565b600089815260d3602090815260408083206001600160a01b0388168452909152902055613457565b60ce5460cc546040516370a0823160e01b81526001600160a01b039182166004820152613433926109e0928792600160401b909204811691908316906370a082319060240160206040518083038186803b1580156133f557600080fd5b505afa158015613409573d6000803e3d6000fd5b505050506040513d601f19601f8201168201806040525081019061342d9190614d07565b86611067565b600089815260d3602090815260408083206001600160a01b03881684529091529020555b60ce546001600160a01b03848116600160401b909204161415613479576134c3565b60ce546134c190600160401b90046001600160a01b03168468056bc75e2d631000006134a5858e61543c565b6134af919061541a565b60cc546001600160a01b031686612f6d565b505b6134e468056bc75e2d631000006134da838c61543c565b6109e0919061541a565b600089815260d3602090815260408083206001600160a01b03881684529091529020546135119190615402565b600089815260d3602090815260408083206001600160a01b038816845282528083206001908101949094558b835260d490915281208054909190613556908490615402565b92505081905550505050808061356b9061551e565b91505061312f565b6135a56040518060a0016040528060608152602001606081526020016060815260200160608152602001606081525090565b604080516001808252818301909252600091602080830190803683370190505060ca546040516344fd376f60e01b8152600481018690526001600160401b03871660248201529192506001600160a01b0316906344fd376f9060440160206040518083038186803b15801561361957600080fd5b505afa15801561362d573d6000803e3d6000fd5b505050506040513d601f19601f820116820180604052508101906136519190614d07565b8160008151811061366457613664615565565b602090810291909101015260ce546000906136db90600160401b90046001600160a01b03166136928761135e565b68056bc75e2d63100000856000815181106136af576136af615565565b60200260200101518b6136c2919061543c565b6136cc919061541a565b306136d68a6113e4565b612f6d565b905060006136e886611485565b60ca5460405163d1c68aa360e01b81526001600160401b03891660048201529192506001600160a01b03169063d1c68aa39060240160006040518083038186803b15801561373557600080fd5b505afa158015613749573d6000803e3d6000fd5b505050506040513d6000823e601f3d908101601f191682016040526137719190810190614c7d565b845260ca5460405163221f337160e01b81526001600160401b03881660048201526001600160a01b039091169063221f33719060240160006040518083038186803b1580156137bf57600080fd5b505afa1580156137d3573d6000803e3d6000fd5b505050506040513d6000823e601f3d908101601f191682016040526137fb9190810190614cb1565b602085015260ca54604051632bda5acd60e21b81526001600160401b03881660048201526001600160a01b039091169063af696b349060240160006040518083038186803b15801561384c57600080fd5b505afa158015613860573d6000803e3d6000fd5b505050506040513d6000823e601f3d908101601f191682016040526138889190810190614cb1565b60408581019190915280516000808252602080830184526060880192909252825181815280830184526080880152825160018082528185019094529092909182015b60408051808201909152600080825260208201528152602001906001900390816138ca5790505090506138fc8761135e565b8160008151811061390f5761390f615565565b6020026020010151600001906001600160a01b031690816001600160a01b031681525050828160008151811061394757613947615565565b6020026020010151602001818152505060008086600001518760600151886020015189608001518d8b604001518b60405160200161398c98979695949392919061515b565b604051602081830303815290604052905060006139ad898386866001613c1c565b60cf54600090815260dc60205260409020555050505050505050505050565b8560005b8651811015613b035760008682815181106139ed576139ed615565565b602002602001015190506000868381518110613a0b57613a0b615565565b602002602001015190508160d3600086815260200190815260200160002060008b8681518110613a3d57613a3d615565565b60200260200101516001600160a01b03166001600160a01b03168152602001908152602001600020600001819055508060d3600086815260200190815260200160002060008b8681518110613a9457613a94615565565b60200260200101516001600160a01b03166001600160a01b0316815260200190815260200160002060010181905550600160d460008681526020019081526020016000206000828254613ae79190615402565b9250508190555050508080613afb9061551e565b9150506139d0565b50600081815260d46020526040902054831415613b2457613b248183614073565b50505050505050565b6080850151805187919060009082908290613b4a57613b4a615565565b6020026020010151600001519050600082600081518110613b6d57613b6d615565565b60200260200101516020015190506000613ba08360ce60089054906101000a90046001600160a01b0316843060036144b1565b90508060d660008781526020019081526020016000206000828254613bc59190615402565b90915550508851600086815260d7602052604081208054909190613bea908490615402565b9091555050600085815260d76020526040902054881415613c0f57613c0f85876145e2565b5050505050505050505050565b6000613c2661491d565b825160cb54600160a01b900461ffff16811115613cab5760405162461bcd60e51b815260206004820152603760248201527f4d6178696d756d203520646966666572656e7420746f6b656e732063616e206260448201527f652073656e74207065722043434950204d6573736167650000000000000000006064820152608401611190565b60005b81811015613dcc5760cb5485516001600160a01b0390911690869083908110613cd957613cd9615565565b6020026020010151600001516001600160a01b031614613dc457848181518110613d0557613d05615565565b6020026020010151600001516001600160a01b031663095ea7b3600060029054906101000a90046001600160a01b0316878481518110613d4757613d47615565565b6020026020010151602001516040518363ffffffff1660e01b8152600401613d7092919061511c565b602060405180830381600087803b158015613d8a57600080fd5b505af1158015613d9e573d6000803e3d6000fd5b505050506040513d601f19601f82011682018060405250810190613dc29190614ce5565b505b600101613cae565b506040805160a081019091526001600160a01b03861660c08201526000908060e0810160408051601f19818403018152918152908252602082018a905281018790526060016001866001811115613e2557613e2561554f565b14613e31576000613e3e565b60cb546001600160a01b03165b6001600160a01b03168152602001613e666040518060200160405280622dc6c08152506130bf565b9052600080546040516320487ded60e01b81529293509091620100009091046001600160a01b0316906320487ded90613ea5908c90869060040161528c565b60206040518083038186803b158015613ebd57600080fd5b505afa158015613ed1573d6000803e3d6000fd5b505050506040513d601f19601f82011682018060405250810190613ef59190614d07565b905060006001866001811115613f0d57613f0d61554f565b1415613fa3576000546040516396f4e9f960e01b8152620100009091046001600160a01b0316906396f4e9f990613f4a908d90879060040161528c565b602060405180830381600087803b158015613f6457600080fd5b505af1158015613f78573d6000803e3d6000fd5b505050506040513d601f19601f82011682018060405250810190613f9c9190614d07565b9050614031565b6000546040516396f4e9f960e01b8152620100009091046001600160a01b0316906396f4e9f9908490613fdc908e90889060040161528c565b6020604051808303818588803b158015613ff557600080fd5b505af1158015614009573d6000803e3d6000fd5b50505050506040513d601f19601f8201168201806040525081019061402e9190614d07565b90505b6040518181527f54791b38f3859327992a1ca0590ad3c0f08feba98d1a4f56ab0dca74d203392a9060200160405180910390a193505050506110ee6001609855565b600080600060ca60009054906101000a90046001600160a01b03166001600160a01b03166353fd43326040518163ffffffff1660e01b815260040160206040518083038186803b1580156140c657600080fd5b505afa1580156140da573d6000803e3d6000fd5b505050506040513d601f19601f820116820180604052508101906140fe9190614d07565b905060005b818110156142015760ca5460405163264cae9360e21b8152600481018390526000916001600160a01b031690639932ba4c9060240160206040518083038186803b15801561415057600080fd5b505afa158015614164573d6000803e3d6000fd5b505050506040513d601f19601f820116820180604052508101906141889190614b88565b600088815260d3602090815260408083206001600160a01b03851684529091529020549091506141b89086615402565b600088815260d3602090815260408083206001600160a01b03861684529091529020600101549095506141eb9085615402565b93505080806141f99061551e565b915050614103565b5060008060cc60009054906101000a90046001600160a01b03166001600160a01b03166318160ddd6040518163ffffffff1660e01b815260040160206040518083038186803b15801561425357600080fd5b505afa158015614267573d6000803e3d6000fd5b505050506040513d601f19601f8201168201806040525081019061428b9190614d07565b11156143c45760cc60009054906101000a90046001600160a01b03166001600160a01b03166318160ddd6040518163ffffffff1660e01b815260040160206040518083038186803b1580156142df57600080fd5b505afa1580156142f3573d6000803e3d6000fd5b505050506040513d601f19601f820116820180604052508101906143179190614d07565b848460cc60009054906101000a90046001600160a01b03166001600160a01b03166318160ddd6040518163ffffffff1660e01b815260040160206040518083038186803b15801561436757600080fd5b505afa15801561437b573d6000803e3d6000fd5b505050506040513d601f19601f8201168201806040525081019061439f9190614d07565b6143a9919061543c565b6143b3919061541a565b6143bd919061545b565b90506143d2565b6143cf83606461543c565b90505b60cc54600087815260d56020526040908190205490516340c10f1960e01b81526001600160a01b03928316926340c10f199261441592911690859060040161511c565b600060405180830381600087803b15801561442f57600080fd5b505af1158015614443573d6000803e3d6000fd5b505050600087815260d5602090815260408083205460e183528184205460e0909352928190205490516001600160a01b0393841694508a938a937f4d3128af979c46a863cd489a3d0959d5d22181cdbdb1949b40cadfcdac0a1d3893612dbd93929091169188904290615135565b60ca5460405163a9059cbb60e01b81526000916001600160a01b038089169263a9059cbb926144e6921690889060040161511c565b602060405180830381600087803b15801561450057600080fd5b505af1158015614514573d6000803e3d6000fd5b505050506040513d601f19601f820116820180604052508101906145389190614ce5565b5060ca54604051630bec47a360e11b81526001600160a01b03888116600483015287811660248301526044820187905285811660648301526084820185905260009216906317d88f469060a401602060405180830381600087803b15801561459f57600080fd5b505af11580156145b3573d6000803e3d6000fd5b505050506040513d601f19601f820116820180604052508101906145d79190614d07565b979650505050505050565b600082815260d6602090815260408083205460d883528184205460de84528285205460df9094529184205460cc5491946001600160a01b03938416949093169290916127109061463d9060ff600160a01b909104168761543c565b614647919061541a565b60ce5460d25460405163a9059cbb60e01b81529293506001600160a01b03600160401b90920482169263a9059cbb92614686921690859060040161511c565b602060405180830381600087803b1580156146a057600080fd5b505af11580156146b4573d6000803e3d6000fd5b505050506040513d601f19601f820116820180604052508101906146d89190614ce5565b5060ce546001600160a01b03848116600160401b9092041614156148895760ce54600160401b90046001600160a01b0316632e1a7d4d614718838861545b565b6040518263ffffffff1660e01b815260040161473691815260200190565b600060405180830381600087803b15801561475057600080fd5b505af1158015614764573d6000803e3d6000fd5b505050506000846001600160a01b03168287614780919061545b565b604051600081818185875af1925050503d80600081146147bc576040519150601f19603f3d011682016040523d82523d6000602084013e6147c1565b606091505b505090508061481e5760405162461bcd60e51b8152602060048201526024808201527f7472616e736665722065746820746f20746865207265717565737465722066616044820152631a5b195960e21b6064820152608401611190565b600088815260e260205260409020546001600160a01b03861690899089907f476778ca38557db6dc935a57ece5bd93fbaca20183fadf86d7a1d2b85df65e0190889061486a888d61545b565b4260405161487b9493929190615135565b60405180910390a450613b24565b60ce546000906148b590600160401b90046001600160a01b0316856148ae858a61545b565b88876144b1565b9050846001600160a01b031688887f476778ca38557db6dc935a57ece5bd93fbaca20183fadf86d7a1d2b85df65e018760e260008e815260200190815260200160002054864260405161490b9493929190615135565b60405180910390a45050505050505050565b600260985414156149705760405162461bcd60e51b815260206004820152601f60248201527f5265656e7472616e637947756172643a207265656e7472616e742063616c6c006044820152606401611190565b6002609855565b600082601f83011261498857600080fd5b8151602061499d614998836153df565b6153af565b80838252828201915082860187848660051b89010111156149bd57600080fd5b60005b858110156149e55781516149d381615591565b845292840192908401906001016149c0565b5090979650505050505050565b600082601f830112614a0357600080fd5b81356020614a13614998836153df565b80838252828201915082860187848660061b8901011115614a3357600080fd5b6000805b86811015614a7e57604080848c031215614a4f578283fd5b614a57615365565b8435614a6281615591565b8152848801358882015286529486019490920191600101614a37565b509198975050505050505050565b600082601f830112614a9d57600080fd5b81516020614aad614998836153df565b80838252828201915082860187848660051b8901011115614acd57600080fd5b60005b858110156149e557815184529284019290840190600101614ad0565b600082601f830112614afd57600080fd5b81356001600160401b03811115614b1657614b1661557b565b614b29601f8201601f19166020016153af565b818152846020838601011115614b3e57600080fd5b816020850160208301376000918101602001919091529392505050565b8035614b66816155a6565b919050565b600060208284031215614b7d57600080fd5b813561147e81615591565b600060208284031215614b9a57600080fd5b815161147e81615591565b600080600060608486031215614bba57600080fd5b8335614bc581615591565b92506020840135614bd581615591565b915060408401356001600160801b0381168114614bf157600080fd5b809150509250925092565b60008060008060808587031215614c1257600080fd5b8435614c1d81615591565b93506020850135614c2d81615591565b93969395505050506040820135916060013590565b60008060008060808587031215614c5857600080fd5b8435614c6381615591565b966020860135965060408601359560600135945092505050565b600060208284031215614c8f57600080fd5b81516001600160401b03811115614ca557600080fd5b610c0084828501614977565b600060208284031215614cc357600080fd5b81516001600160401b03811115614cd957600080fd5b610c0084828501614a8c565b600060208284031215614cf757600080fd5b8151801515811461147e57600080fd5b600060208284031215614d1957600080fd5b5051919050565b600060208284031215614d3257600080fd5b81356001600160e01b03198116811461147e57600080fd5b600060208284031215614d5c57600080fd5b81356001600160401b03811115614d7257600080fd5b820160a0818503121561147e57600080fd5b600060208284031215614d9657600080fd5b5035919050565b60008060408385031215614db057600080fd5b823591506020830135614dc281615591565b809150509250929050565b60008060008060008060c08789031215614de657600080fd5b8651955060208701516001600160401b0380821115614e0457600080fd5b614e108a838b01614977565b96506040890151915080821115614e2657600080fd5b614e328a838b01614977565b9550606089015194506080890151915080821115614e4f57600080fd5b614e5b8a838b01614a8c565b935060a0890151915080821115614e7157600080fd5b50614e7e89828a01614a8c565b9150509295509295509295565b60008060408385031215614e9e57600080fd5b50508035926020909101359150565b60008060008060808587031215614ec357600080fd5b84359350602085013592506040850135614edc81615591565b9396929550929360600135925050565b600060208284031215614efe57600080fd5b813561147e816155a6565b600060208284031215614f1b57600080fd5b815161147e816155a6565b600080600080600060a08688031215614f3e57600080fd5b8535614f49816155a6565b94506020860135614f5981615591565b93506040860135614f6981615591565b92506060860135614f7981615591565b91506080860135614f8981615591565b809150509295509295909350565b60008060008060808587031215614fad57600080fd5b8435614fb8816155a6565b93506020850135614fc881615591565b925060408501356001600160401b03811115614fe357600080fd5b614fef87828801614aec565b92505060608501356002811061500457600080fd5b939692955090935050565b60006020828403121561502157600080fd5b813560ff8116811461147e57600080fd5b600081518084526020808501945080840160005b8381101561506b5781516001600160a01b031687529582019590820190600101615046565b509495945050505050565b600081518084526020808501945080840160005b8381101561506b5781518752958201959082019060010161508a565b6000815180845260005b818110156150cc576020818501810151868301820152016150b0565b818111156150de576000602083870101525b50601f01601f19169290920160200192915050565b6001600160a01b0394851681529290931660208301526040820152606081019190915260800190565b6001600160a01b03929092168252602082015260400190565b6001600160a01b0394909416845260208401929092526040830152606082015260800190565b600061010060ff8b1683528060208401526151788184018b615032565b9050828103604084015261518c818a615032565b905082810360608401526151a08189615076565b905082810360808401526151b48188615076565b90508560a084015282810360c08401526151ce8186615076565b905082810360e08401526151e28185615076565b9b9a5050505050505050505050565b60208082526030908201527f50726f706f7361626c654f776e61626c653a206e6577206f776e65722069732060408201526f746865207a65726f206164647265737360801b606082015260800190565b6020808252602b908201527f496e697469616c697a61626c653a20636f6e7472616374206973206e6f74206960408201526a6e697469616c697a696e6760a81b606082015260800190565b600060406001600160401b038516835260208181850152845160a0838601526152b860e08601826150a6565b905081860151603f19808784030160608801526152d583836150a6565b88860151888203830160808a01528051808352908601945060009350908501905b8084101561532857845180516001600160a01b03168352860151868301529385019360019390930192908601906152f6565b5060608901516001600160a01b031660a08901526080890151888203830160c08a0152955061535781876150a6565b9a9950505050505050505050565b604080519081016001600160401b03811182821017156153875761538761557b565b60405290565b60405160a081016001600160401b03811182821017156153875761538761557b565b604051601f8201601f191681016001600160401b03811182821017156153d7576153d761557b565b604052919050565b60006001600160401b038211156153f8576153f861557b565b5060051b60200190565b6000821982111561541557615415615539565b500190565b60008261543757634e487b7160e01b600052601260045260246000fd5b500490565b600081600019048311821515161561545657615456615539565b500290565b60008282101561546d5761546d615539565b500390565b600060a0823603121561548457600080fd5b61548c61538d565b8235815261549c60208401614b5b565b602082015260408301356001600160401b03808211156154bb57600080fd5b6154c736838701614aec565b604084015260608501359150808211156154e057600080fd5b6154ec36838701614aec565b6060840152608085013591508082111561550557600080fd5b50615512368286016149f2565b60808301525092915050565b600060001982141561553257615532615539565b5060010190565b634e487b7160e01b600052601160045260246000fd5b634e487b7160e01b600052602160045260246000fd5b634e487b7160e01b600052603260045260246000fd5b634e487b7160e01b600052604160045260246000fd5b6001600160a01b03811681146118fa57600080fd5b6001600160401b03811681146118fa57600080fdfea2646970667358221220022fd89c22bbc39d9e5ea97d48734172faebc67b8e8d259ea1926f1f19eb25b064736f6c63430008070033","linkReferences":{}},"methodIdentifiers":{"ccipReceive((bytes32,uint64,bytes,bytes,(address,uint256)[]))":"85572ffb","convertEthToUsd(uint256)":"c086381e","crossChainFactoryBySelector(uint64)":"340fbc74","crossChainToken(uint64)":"19da7e2a","crossChainTokenSwapVersion(uint64)":"326f6fb2","currentChainSelector()":"3d54cb6f","estimateAmountOut(address,address,uint128)":"0456f9c8","feeRate()":"978bbdb9","feeReceiver()":"b3f00674","getAmountOut(address,address,uint256,uint256)":"13cb1f83","getPortfolioBalance()":"a8509fd8","getRouter()":"b0f479a1","i_link()":"7d253aff","i_maxTokensLength()":"5b6a0351","indexFactoryStorage()":"d1f7a991","indexToken()":"e7d015f2","initialize(uint64,address,address,address,address)":"16b487ff","issuanceCompletedTokensCount(uint256)":"94037369","issuanceIndexTokens(address,uint256,uint256,uint256)":"9ad1c356","issuanceIndexTokensWithEth(uint256,uint256)":"41d11817","issuanceInputAmount(uint256)":"cf9ee319","issuanceInputToken(uint256)":"4c776de7","issuanceMessageIdByNonce(uint256)":"9121c717","issuanceNonce()":"9dbb9c9e","issuanceNonceRequester(uint256)":"a3d0ac78","issuanceTokenOldAndNewValues(uint256,address)":"81b15279","latestFeeUpdate()":"011ced5f","owner()":"8da5cb5b","portfolioTotalValueByNonce(uint256)":"7d3546f7","priceInWei()":"3c8da588","proposeOwner(address)":"b5ed298a","proposedOwner()":"d153b60c","redemption(uint256,uint256,address,uint256)":"09445ad4","redemptionCompletedTokensCount(uint256)":"48784303","redemptionInputAmount(uint256)":"9cf54521","redemptionMessageIdByNonce(uint256)":"306b3a28","redemptionNonce()":"84d77bb1","redemptionNonceOutputToken(uint256)":"0603fb05","redemptionNonceOutputTokenSwapVersion(uint256)":"72bc260c","redemptionNonceRequester(uint256)":"3fef7545","redemptionNonceTotalValue(uint256)":"f07bb855","redemptionOutputToken(uint256)":"c3a755b4","renounceOwnership()":"715018a6","sendMessage(uint64,address,bytes,uint8)":"bcab90b3","setFeeRate(uint8)":"5177942a","setFeeReceiver(address)":"efdcd974","setIndexFactoryStorage(address)":"cc8659ae","supportsInterface(bytes4)":"01ffc9a7","tokenValueByNonce(uint256,address)":"b316e7fd","transferOwnership(address)":"f2fde38b","updatePortfolioNonce()":"003cf402","updatedTokensValueCount(uint256)":"c070a097","weth()":"3fc8cef3"},"id":3}