{
  "abi": [
    {
      "inputs": [
        {
          "internalType": "address",
          "name": "router",
          "type": "address"
        }
      ],
      "name": "InvalidRouter",
      "type": "error"
    },
    {
      "anonymous": false,
      "inputs": [
        {
          "indexed": false,
          "internalType": "uint8",
          "name": "version",
          "type": "uint8"
        }
      ],
      "name": "Initialized",
      "type": "event"
    },
    {
      "anonymous": false,
      "inputs": [
        {
          "indexed": true,
          "internalType": "bytes32",
          "name": "messageId",
          "type": "bytes32"
        },
        {
          "indexed": true,
          "internalType": "uint256",
          "name": "nonce",
          "type": "uint256"
        },
        {
          "indexed": true,
          "internalType": "address",
          "name": "user",
          "type": "address"
        },
        {
          "indexed": false,
          "internalType": "address",
          "name": "inputToken",
          "type": "address"
        },
        {
          "indexed": false,
          "internalType": "uint256",
          "name": "inputAmount",
          "type": "uint256"
        },
        {
          "indexed": false,
          "internalType": "uint256",
          "name": "outputAmount",
          "type": "uint256"
        },
        {
          "indexed": false,
          "internalType": "uint256",
          "name": "time",
          "type": "uint256"
        }
      ],
      "name": "Issuanced",
      "type": "event"
    },
    {
      "anonymous": false,
      "inputs": [
        {
          "indexed": false,
          "internalType": "bytes32",
          "name": "messageId",
          "type": "bytes32"
        }
      ],
      "name": "MessageSent",
      "type": "event"
    },
    {
      "anonymous": false,
      "inputs": [
        {
          "indexed": true,
          "internalType": "address",
          "name": "previousOwner",
          "type": "address"
        },
        {
          "indexed": true,
          "internalType": "address",
          "name": "newOwner",
          "type": "address"
        }
      ],
      "name": "OwnershipTransferred",
      "type": "event"
    },
    {
      "anonymous": false,
      "inputs": [
        {
          "indexed": true,
          "internalType": "bytes32",
          "name": "messageId",
          "type": "bytes32"
        },
        {
          "indexed": true,
          "internalType": "uint256",
          "name": "nonce",
          "type": "uint256"
        },
        {
          "indexed": true,
          "internalType": "address",
          "name": "user",
          "type": "address"
        },
        {
          "indexed": false,
          "internalType": "address",
          "name": "outputToken",
          "type": "address"
        },
        {
          "indexed": false,
          "internalType": "uint256",
          "name": "inputAmount",
          "type": "uint256"
        },
        {
          "indexed": false,
          "internalType": "uint256",
          "name": "outputAmount",
          "type": "uint256"
        },
        {
          "indexed": false,
          "internalType": "uint256",
          "name": "time",
          "type": "uint256"
        }
      ],
      "name": "Redemption",
      "type": "event"
    },
    {
      "anonymous": false,
      "inputs": [
        {
          "indexed": true,
          "internalType": "bytes32",
          "name": "messageId",
          "type": "bytes32"
        },
        {
          "indexed": true,
          "internalType": "uint256",
          "name": "nonce",
          "type": "uint256"
        },
        {
          "indexed": true,
          "internalType": "address",
          "name": "user",
          "type": "address"
        },
        {
          "indexed": false,
          "internalType": "address",
          "name": "inputToken",
          "type": "address"
        },
        {
          "indexed": false,
          "internalType": "uint256",
          "name": "inputAmount",
          "type": "uint256"
        },
        {
          "indexed": false,
          "internalType": "uint256",
          "name": "outputAmount",
          "type": "uint256"
        },
        {
          "indexed": false,
          "internalType": "uint256",
          "name": "time",
          "type": "uint256"
        }
      ],
      "name": "RequestIssuance",
      "type": "event"
    },
    {
      "anonymous": false,
      "inputs": [
        {
          "indexed": true,
          "internalType": "bytes32",
          "name": "messageId",
          "type": "bytes32"
        },
        {
          "indexed": true,
          "internalType": "uint256",
          "name": "nonce",
          "type": "uint256"
        },
        {
          "indexed": true,
          "internalType": "address",
          "name": "user",
          "type": "address"
        },
        {
          "indexed": false,
          "internalType": "address",
          "name": "outputToken",
          "type": "address"
        },
        {
          "indexed": false,
          "internalType": "uint256",
          "name": "inputAmount",
          "type": "uint256"
        },
        {
          "indexed": false,
          "internalType": "uint256",
          "name": "outputAmount",
          "type": "uint256"
        },
        {
          "indexed": false,
          "internalType": "uint256",
          "name": "time",
          "type": "uint256"
        }
      ],
      "name": "RequestRedemption",
      "type": "event"
    },
    {
      "inputs": [
        {
          "components": [
            {
              "internalType": "bytes32",
              "name": "messageId",
              "type": "bytes32"
            },
            {
              "internalType": "uint64",
              "name": "sourceChainSelector",
              "type": "uint64"
            },
            {
              "internalType": "bytes",
              "name": "sender",
              "type": "bytes"
            },
            {
              "internalType": "bytes",
              "name": "data",
              "type": "bytes"
            },
            {
              "components": [
                {
                  "internalType": "address",
                  "name": "token",
                  "type": "address"
                },
                {
                  "internalType": "uint256",
                  "name": "amount",
                  "type": "uint256"
                }
              ],
              "internalType": "struct Client.EVMTokenAmount[]",
              "name": "destTokenAmounts",
              "type": "tuple[]"
            }
          ],
          "internalType": "struct Client.Any2EVMMessage",
          "name": "message",
          "type": "tuple"
        }
      ],
      "name": "ccipReceive",
      "outputs": [],
      "stateMutability": "nonpayable",
      "type": "function"
    },
    {
      "inputs": [
        {
          "internalType": "uint256",
          "name": "_ethAmount",
          "type": "uint256"
        }
      ],
      "name": "convertEthToUsd",
      "outputs": [
        {
          "internalType": "uint256",
          "name": "",
          "type": "uint256"
        }
      ],
      "stateMutability": "view",
      "type": "function"
    },
    {
      "inputs": [
        {
          "internalType": "uint64",
          "name": "_chainSelector",
          "type": "uint64"
        }
      ],
      "name": "crossChainFactoryBySelector",
      "outputs": [
        {
          "internalType": "address",
          "name": "",
          "type": "address"
        }
      ],
      "stateMutability": "view",
      "type": "function"
    },
    {
      "inputs": [
        {
          "internalType": "uint64",
          "name": "_chainSelector",
          "type": "uint64"
        }
      ],
      "name": "crossChainToken",
      "outputs": [
        {
          "internalType": "address",
          "name": "",
          "type": "address"
        }
      ],
      "stateMutability": "view",
      "type": "function"
    },
    {
      "inputs": [
        {
          "internalType": "uint64",
          "name": "_chainSelector",
          "type": "uint64"
        }
      ],
      "name": "crossChainTokenSwapVersion",
      "outputs": [
        {
          "internalType": "uint256",
          "name": "",
          "type": "uint256"
        }
      ],
      "stateMutability": "view",
      "type": "function"
    },
    {
      "inputs": [],
      "name": "currentChainSelector",
      "outputs": [
        {
          "internalType": "uint64",
          "name": "",
          "type": "uint64"
        }
      ],
      "stateMutability": "view",
      "type": "function"
    },
    {
      "inputs": [
        {
          "internalType": "address",
          "name": "tokenIn",
          "type": "address"
        },
        {
          "internalType": "address",
          "name": "tokenOut",
          "type": "address"
        },
        {
          "internalType": "uint128",
          "name": "amountIn",
          "type": "uint128"
        },
        {
          "internalType": "uint32",
          "name": "secondsAgo",
          "type": "uint32"
        }
      ],
      "name": "estimateAmountOut",
      "outputs": [
        {
          "internalType": "uint256",
          "name": "amountOut",
          "type": "uint256"
        }
      ],
      "stateMutability": "view",
      "type": "function"
    },
    {
      "inputs": [],
      "name": "feeRate",
      "outputs": [
        {
          "internalType": "uint8",
          "name": "",
          "type": "uint8"
        }
      ],
      "stateMutability": "view",
      "type": "function"
    },
    {
      "inputs": [
        {
          "internalType": "address",
          "name": "tokenIn",
          "type": "address"
        },
        {
          "internalType": "address",
          "name": "tokenOut",
          "type": "address"
        },
        {
          "internalType": "uint256",
          "name": "amountIn",
          "type": "uint256"
        },
        {
          "internalType": "uint256",
          "name": "_swapVersion",
          "type": "uint256"
        }
      ],
      "name": "getAmountOut",
      "outputs": [
        {
          "internalType": "uint256",
          "name": "finalAmountOut",
          "type": "uint256"
        }
      ],
      "stateMutability": "view",
      "type": "function"
    },
    {
      "inputs": [],
      "name": "getPortfolioBalance",
      "outputs": [
        {
          "internalType": "uint256",
          "name": "",
          "type": "uint256"
        }
      ],
      "stateMutability": "view",
      "type": "function"
    },
    {
      "inputs": [],
      "name": "getRouter",
      "outputs": [
        {
          "internalType": "address",
          "name": "",
          "type": "address"
        }
      ],
      "stateMutability": "view",
      "type": "function"
    },
    {
      "inputs": [],
      "name": "i_link",
      "outputs": [
        {
          "internalType": "address",
          "name": "",
          "type": "address"
        }
      ],
      "stateMutability": "view",
      "type": "function"
    },
    {
      "inputs": [],
      "name": "i_maxTokensLength",
      "outputs": [
        {
          "internalType": "uint16",
          "name": "",
          "type": "uint16"
        }
      ],
      "stateMutability": "view",
      "type": "function"
    },
    {
      "inputs": [],
      "name": "indexFactoryStorage",
      "outputs": [
        {
          "internalType": "contract IndexFactoryStorage",
          "name": "",
          "type": "address"
        }
      ],
      "stateMutability": "view",
      "type": "function"
    },
    {
      "inputs": [],
      "name": "indexToken",
      "outputs": [
        {
          "internalType": "contract IndexToken",
          "name": "",
          "type": "address"
        }
      ],
      "stateMutability": "view",
      "type": "function"
    },
    {
      "inputs": [
        {
          "internalType": "uint64",
          "name": "_currentChainSelector",
          "type": "uint64"
        },
        {
          "internalType": "address payable",
          "name": "_token",
          "type": "address"
        },
        {
          "internalType": "address",
          "name": "_chainlinkToken",
          "type": "address"
        },
        {
          "internalType": "address",
          "name": "_router",
          "type": "address"
        },
        {
          "internalType": "address",
          "name": "_weth",
          "type": "address"
        }
      ],
      "name": "initialize",
      "outputs": [],
      "stateMutability": "nonpayable",
      "type": "function"
    },
    {
      "inputs": [
        {
          "internalType": "uint256",
          "name": "",
          "type": "uint256"
        }
      ],
      "name": "issuanceCompletedTokensCount",
      "outputs": [
        {
          "internalType": "uint256",
          "name": "",
          "type": "uint256"
        }
      ],
      "stateMutability": "view",
      "type": "function"
    },
    {
      "inputs": [
        {
          "internalType": "address",
          "name": "_tokenIn",
          "type": "address"
        },
        {
          "internalType": "uint256",
          "name": "_inputAmount",
          "type": "uint256"
        },
        {
          "internalType": "uint256",
          "name": "_crossChainFee",
          "type": "uint256"
        },
        {
          "internalType": "uint256",
          "name": "_tokenInSwapVersion",
          "type": "uint256"
        }
      ],
      "name": "issuanceIndexTokens",
      "outputs": [],
      "stateMutability": "nonpayable",
      "type": "function"
    },
    {
      "inputs": [
        {
          "internalType": "uint256",
          "name": "_inputAmount",
          "type": "uint256"
        },
        {
          "internalType": "uint256",
          "name": "_crossChainFee",
          "type": "uint256"
        }
      ],
      "name": "issuanceIndexTokensWithEth",
      "outputs": [],
      "stateMutability": "payable",
      "type": "function"
    },
    {
      "inputs": [
        {
          "internalType": "uint256",
          "name": "",
          "type": "uint256"
        }
      ],
      "name": "issuanceInputAmount",
      "outputs": [
        {
          "internalType": "uint256",
          "name": "",
          "type": "uint256"
        }
      ],
      "stateMutability": "view",
      "type": "function"
    },
    {
      "inputs": [
        {
          "internalType": "uint256",
          "name": "",
          "type": "uint256"
        }
      ],
      "name": "issuanceInputToken",
      "outputs": [
        {
          "internalType": "address",
          "name": "",
          "type": "address"
        }
      ],
      "stateMutability": "view",
      "type": "function"
    },
    {
      "inputs": [
        {
          "internalType": "uint256",
          "name": "",
          "type": "uint256"
        }
      ],
      "name": "issuanceMessageIdByNonce",
      "outputs": [
        {
          "internalType": "bytes32",
          "name": "",
          "type": "bytes32"
        }
      ],
      "stateMutability": "view",
      "type": "function"
    },
    {
      "inputs": [],
      "name": "issuanceNonce",
      "outputs": [
        {
          "internalType": "uint256",
          "name": "",
          "type": "uint256"
        }
      ],
      "stateMutability": "view",
      "type": "function"
    },
    {
      "inputs": [
        {
          "internalType": "uint256",
          "name": "",
          "type": "uint256"
        }
      ],
      "name": "issuanceNonceRequester",
      "outputs": [
        {
          "internalType": "address",
          "name": "",
          "type": "address"
        }
      ],
      "stateMutability": "view",
      "type": "function"
    },
    {
      "inputs": [
        {
          "internalType": "uint256",
          "name": "",
          "type": "uint256"
        },
        {
          "internalType": "address",
          "name": "",
          "type": "address"
        }
      ],
      "name": "issuanceTokenOldAndNewValues",
      "outputs": [
        {
          "internalType": "uint256",
          "name": "oldTokenValue",
          "type": "uint256"
        },
        {
          "internalType": "uint256",
          "name": "newTokenValue",
          "type": "uint256"
        }
      ],
      "stateMutability": "view",
      "type": "function"
    },
    {
      "inputs": [],
      "name": "latestFeeUpdate",
      "outputs": [
        {
          "internalType": "uint256",
          "name": "",
          "type": "uint256"
        }
      ],
      "stateMutability": "view",
      "type": "function"
    },
    {
      "inputs": [],
      "name": "owner",
      "outputs": [
        {
          "internalType": "address",
          "name": "",
          "type": "address"
        }
      ],
      "stateMutability": "view",
      "type": "function"
    },
    {
      "inputs": [
        {
          "internalType": "uint256",
          "name": "",
          "type": "uint256"
        }
      ],
      "name": "portfolioTotalValueByNonce",
      "outputs": [
        {
          "internalType": "uint256",
          "name": "",
          "type": "uint256"
        }
      ],
      "stateMutability": "view",
      "type": "function"
    },
    {
      "inputs": [],
      "name": "priceInWei",
      "outputs": [
        {
          "internalType": "uint256",
          "name": "",
          "type": "uint256"
        }
      ],
      "stateMutability": "view",
      "type": "function"
    },
    {
      "inputs": [
        {
          "internalType": "address",
          "name": "_proposedOwner",
          "type": "address"
        }
      ],
      "name": "proposeOwner",
      "outputs": [],
      "stateMutability": "nonpayable",
      "type": "function"
    },
    {
      "inputs": [],
      "name": "proposedOwner",
      "outputs": [
        {
          "internalType": "address",
          "name": "",
          "type": "address"
        }
      ],
      "stateMutability": "view",
      "type": "function"
    },
    {
      "inputs": [
        {
          "internalType": "uint256",
          "name": "amountIn",
          "type": "uint256"
        },
        {
          "internalType": "uint256",
          "name": "_crossChainFee",
          "type": "uint256"
        },
        {
          "internalType": "address",
          "name": "_tokenOut",
          "type": "address"
        },
        {
          "internalType": "uint256",
          "name": "_tokenOutSwapVersion",
          "type": "uint256"
        }
      ],
      "name": "redemption",
      "outputs": [
        {
          "internalType": "uint256",
          "name": "",
          "type": "uint256"
        }
      ],
      "stateMutability": "nonpayable",
      "type": "function"
    },
    {
      "inputs": [
        {
          "internalType": "uint256",
          "name": "",
          "type": "uint256"
        }
      ],
      "name": "redemptionCompletedTokensCount",
      "outputs": [
        {
          "internalType": "uint256",
          "name": "",
          "type": "uint256"
        }
      ],
      "stateMutability": "view",
      "type": "function"
    },
    {
      "inputs": [
        {
          "internalType": "uint256",
          "name": "",
          "type": "uint256"
        }
      ],
      "name": "redemptionInputAmount",
      "outputs": [
        {
          "internalType": "uint256",
          "name": "",
          "type": "uint256"
        }
      ],
      "stateMutability": "view",
      "type": "function"
    },
    {
      "inputs": [
        {
          "internalType": "uint256",
          "name": "",
          "type": "uint256"
        }
      ],
      "name": "redemptionMessageIdByNonce",
      "outputs": [
        {
          "internalType": "bytes32",
          "name": "",
          "type": "bytes32"
        }
      ],
      "stateMutability": "view",
      "type": "function"
    },
    {
      "inputs": [],
      "name": "redemptionNonce",
      "outputs": [
        {
          "internalType": "uint256",
          "name": "",
          "type": "uint256"
        }
      ],
      "stateMutability": "view",
      "type": "function"
    },
    {
      "inputs": [
        {
          "internalType": "uint256",
          "name": "",
          "type": "uint256"
        }
      ],
      "name": "redemptionNonceOutputToken",
      "outputs": [
        {
          "internalType": "address",
          "name": "",
          "type": "address"
        }
      ],
      "stateMutability": "view",
      "type": "function"
    },
    {
      "inputs": [
        {
          "internalType": "uint256",
          "name": "",
          "type": "uint256"
        }
      ],
      "name": "redemptionNonceOutputTokenSwapVersion",
      "outputs": [
        {
          "internalType": "uint256",
          "name": "",
          "type": "uint256"
        }
      ],
      "stateMutability": "view",
      "type": "function"
    },
    {
      "inputs": [
        {
          "internalType": "uint256",
          "name": "",
          "type": "uint256"
        }
      ],
      "name": "redemptionNonceRequester",
      "outputs": [
        {
          "internalType": "address",
          "name": "",
          "type": "address"
        }
      ],
      "stateMutability": "view",
      "type": "function"
    },
    {
      "inputs": [
        {
          "internalType": "uint256",
          "name": "",
          "type": "uint256"
        }
      ],
      "name": "redemptionNonceTotalValue",
      "outputs": [
        {
          "internalType": "uint256",
          "name": "",
          "type": "uint256"
        }
      ],
      "stateMutability": "view",
      "type": "function"
    },
    {
      "inputs": [
        {
          "internalType": "uint256",
          "name": "",
          "type": "uint256"
        }
      ],
      "name": "redemptionOutputToken",
      "outputs": [
        {
          "internalType": "address",
          "name": "",
          "type": "address"
        }
      ],
      "stateMutability": "view",
      "type": "function"
    },
    {
      "inputs": [],
      "name": "renounceOwnership",
      "outputs": [],
      "stateMutability": "nonpayable",
      "type": "function"
    },
    {
      "inputs": [
        {
          "internalType": "uint64",
          "name": "destinationChainSelector",
          "type": "uint64"
        },
        {
          "internalType": "address",
          "name": "receiver",
          "type": "address"
        },
        {
          "internalType": "bytes",
          "name": "_data",
          "type": "bytes"
        },
        {
          "internalType": "enum IndexFactory.PayFeesIn",
          "name": "payFeesIn",
          "type": "uint8"
        }
      ],
      "name": "sendMessage",
      "outputs": [
        {
          "internalType": "bytes32",
          "name": "",
          "type": "bytes32"
        }
      ],
      "stateMutability": "nonpayable",
      "type": "function"
    },
    {
      "inputs": [
        {
          "internalType": "uint8",
          "name": "_newFee",
          "type": "uint8"
        }
      ],
      "name": "setFeeRate",
      "outputs": [],
      "stateMutability": "nonpayable",
      "type": "function"
    },
    {
      "inputs": [
        {
          "internalType": "address",
          "name": "_indexFactoryStorage",
          "type": "address"
        }
      ],
      "name": "setIndexFactoryStorage",
      "outputs": [],
      "stateMutability": "nonpayable",
      "type": "function"
    },
    {
      "inputs": [
        {
          "internalType": "bytes4",
          "name": "interfaceId",
          "type": "bytes4"
        }
      ],
      "name": "supportsInterface",
      "outputs": [
        {
          "internalType": "bool",
          "name": "",
          "type": "bool"
        }
      ],
      "stateMutability": "pure",
      "type": "function"
    },
    {
      "inputs": [
        {
          "internalType": "uint256",
          "name": "",
          "type": "uint256"
        },
        {
          "internalType": "address",
          "name": "",
          "type": "address"
        }
      ],
      "name": "tokenValueByNonce",
      "outputs": [
        {
          "internalType": "uint256",
          "name": "",
          "type": "uint256"
        }
      ],
      "stateMutability": "view",
      "type": "function"
    },
    {
      "inputs": [
        {
          "internalType": "address",
          "name": "newOwner",
          "type": "address"
        }
      ],
      "name": "transferOwnership",
      "outputs": [],
      "stateMutability": "nonpayable",
      "type": "function"
    },
    {
      "inputs": [],
      "name": "updatePortfolioNonce",
      "outputs": [
        {
          "internalType": "uint256",
          "name": "",
          "type": "uint256"
        }
      ],
      "stateMutability": "view",
      "type": "function"
    },
    {
      "inputs": [
        {
          "internalType": "uint256",
          "name": "",
          "type": "uint256"
        }
      ],
      "name": "updatedTokensValueCount",
      "outputs": [
        {
          "internalType": "uint256",
          "name": "",
          "type": "uint256"
        }
      ],
      "stateMutability": "view",
      "type": "function"
    },
    {
      "inputs": [],
      "name": "weth",
      "outputs": [
        {
          "internalType": "contract IWETH",
          "name": "",
          "type": "address"
        }
      ],
      "stateMutability": "view",
      "type": "function"
    },
    {
      "stateMutability": "payable",
      "type": "receive"
    }
  ],
  "bytecode": {
    "object": "0x608060405234801561001057600080fd5b506155cc80620000216000396000f3fe6080604052600436106102e75760003560e01c806384d77bb111610190578063b5ed298a116100dc578063cc8659ae11610095578063d1f7a9911161006f578063d1f7a99114610a32578063e7d015f214610a52578063f07bb85514610a72578063f2fde38b14610a9f57600080fd5b8063cc8659ae146109c5578063cf9ee319146109e5578063d153b60c14610a1257600080fd5b8063b5ed298a146108e2578063bcab90b314610902578063bf938db814610922578063c070a09714610942578063c086381e1461096f578063c3a755b41461098f57600080fd5b80639ad1c35611610149578063a3d0ac7811610123578063a3d0ac781461083b578063a8509fd814610871578063b0f479a114610886578063b316e7fd146108aa57600080fd5b80639ad1c356146107d85780639cf54521146107f85780639dbb9c9e1461082557600080fd5b806384d77bb1146106f757806385572ffb1461070d5780638da5cb5b1461072d5780639121c7171461074b5780639403736914610778578063978bbdb9146107a557600080fd5b80633d54cb6f1161024f5780635177942a1161020857806372bc260c116101e257806372bc260c146106295780637d253aff146106565780637d3546f71461067657806381b15279146106a357600080fd5b80635177942a146105bf5780635b6a0351146105df578063715018a61461061457600080fd5b80633d54cb6f146104b45780633fc8cef3146104ec5780633fef75451461051357806341d1181714610549578063487843031461055c5780634c776de71461058957600080fd5b806316b487ff116102a157806316b487ff146103f057806319da7e2a14610412578063306b3a2814610432578063326f6fb21461045f578063340fbc741461047f5780633c8da5881461049f57600080fd5b80623cf402146102f3578063011ced5f1461031c57806301ffc9a7146103325780630603fb051461036257806309445ad4146103b057806313cb1f83146103d057600080fd5b366102ee57005b600080fd5b3480156102ff57600080fd5b50610309609f5481565b6040519081526020015b60405180910390f35b34801561032857600080fd5b50610309609b5481565b34801561033e57600080fd5b5061035261034d366004614cdb565b610abf565b6040519015158152602001610313565b34801561036e57600080fd5b5061039861037d366004614d3f565b60ab602052600090815260409020546001600160a01b031681565b6040516001600160a01b039091168152602001610313565b3480156103bc57600080fd5b506103096103cb366004614e68565b610af6565b3480156103dc57600080fd5b506103096103eb366004614baf565b610f66565b3480156103fc57600080fd5b5061041061040b366004614ee1565b610ffb565b005b34801561041e57600080fd5b5061039861042d366004614ea7565b61123d565b34801561043e57600080fd5b5061030961044d366004614d3f565b60aa6020526000908152604090205481565b34801561046b57600080fd5b5061030961047a366004614ea7565b6112c3565b34801561048b57600080fd5b5061039861049a366004614ea7565b611364565b3480156104ab57600080fd5b5061030961139e565b3480156104c057600080fd5b50609c546104d4906001600160401b031681565b6040516001600160401b039091168152602001610313565b3480156104f857600080fd5b50609c5461039890600160401b90046001600160a01b031681565b34801561051f57600080fd5b5061039861052e366004614d3f565b60a5602052600090815260409020546001600160a01b031681565b610410610557366004614e46565b611420565b34801561056857600080fd5b50610309610577366004614d3f565b60a46020526000908152604090205481565b34801561059557600080fd5b506103986105a4366004614d3f565b60ae602052600090815260409020546001600160a01b031681565b3480156105cb57600080fd5b506104106105da366004614fbf565b61162b565b3480156105eb57600080fd5b5060995461060190600160a01b900461ffff1681565b60405161ffff9091168152602001610313565b34801561062057600080fd5b50610410611775565b34801561063557600080fd5b50610309610644366004614d3f565b60ac6020526000908152604090205481565b34801561066257600080fd5b50609954610398906001600160a01b031681565b34801561068257600080fd5b50610309610691366004614d3f565b60a66020526000908152604090205481565b3480156106af57600080fd5b506106e26106be366004614d58565b60a06020908152600092835260408084209091529082529020805460019091015482565b60408051928352602083019190915201610313565b34801561070357600080fd5b50610309609e5481565b34801561071957600080fd5b50610410610728366004614d05565b611789565b34801561073957600080fd5b506033546001600160a01b0316610398565b34801561075757600080fd5b50610309610766366004614d3f565b60a96020526000908152604090205481565b34801561078457600080fd5b50610309610793366004614d3f565b60a16020526000908152604090205481565b3480156107b157600080fd5b50609a546107c690600160a01b900460ff1681565b60405160ff9091168152602001610313565b3480156107e457600080fd5b506104106107f3366004614bf5565b6117d0565b34801561080457600080fd5b50610309610813366004614d3f565b60af6020526000908152604090205481565b34801561083157600080fd5b50610309609d5481565b34801561084757600080fd5b50610398610856366004614d3f565b60a2602052600090815260409020546001600160a01b031681565b34801561087d57600080fd5b506103096119ec565b34801561089257600080fd5b506000546201000090046001600160a01b0316610398565b3480156108b657600080fd5b506103096108c5366004614d58565b60a860209081526000928352604080842090915290825290205481565b3480156108ee57600080fd5b506104106108fd366004614b04565b611e05565b34801561090e57600080fd5b5061030961091d366004614f52565b611e55565b34801561092e57600080fd5b5061030961093d366004614b3e565b61213f565b34801561094e57600080fd5b5061030961095d366004614d3f565b60a76020526000908152604090205481565b34801561097b57600080fd5b5061030961098a366004614d3f565b6121e9565b34801561099b57600080fd5b506103986109aa366004614d3f565b60b0602052600090815260409020546001600160a01b031681565b3480156109d157600080fd5b506104106109e0366004614b04565b612210565b3480156109f157600080fd5b50610309610a00366004614d3f565b60ad6020526000908152604090205481565b348015610a1e57600080fd5b50606554610398906001600160a01b031681565b348015610a3e57600080fd5b50609854610398906001600160a01b031681565b348015610a5e57600080fd5b50609a54610398906001600160a01b031681565b348015610a7e57600080fd5b50610309610a8d366004614d3f565b60a36020526000908152604090205481565b348015610aab57600080fd5b50610410610aba366004614b04565b61223a565b60006001600160e01b031982166385572ffb60e01b1480610af057506001600160e01b031982166301ffc9a760e01b145b92915050565b600080609a60009054906101000a90046001600160a01b03166001600160a01b03166318160ddd6040518163ffffffff1660e01b815260040160206040518083038186803b158015610b4757600080fd5b505afa158015610b5b573d6000803e3d6000fd5b505050506040513d601f19601f82011682018060405250810190610b7f9190614cc2565b610b9187670de0b6b3a7640000615417565b610b9b91906153f5565b90506001609e6000828254610bb091906153dd565b9091555050609e8054600090815260a5602090815260408083208054336001600160a01b031991821681179092558554855260ab8452828520805482166001600160a01b038c81169182179092558754875260ac86528487208b90558754875260af86528487208e90559654865260b0909452938290208054909416909417909255609a549151632770a7eb60e21b81526004810193909352602483018990521690639dc29fac90604401600060405180830381600087803b158015610c7557600080fd5b505af1158015610c89573d6000803e3d6000fd5b505050506000609860009054906101000a90046001600160a01b03166001600160a01b03166369487b1c6040518163ffffffff1660e01b815260040160206040518083038186803b158015610cdd57600080fd5b505afa158015610cf1573d6000803e3d6000fd5b505050506040513d601f19601f82011682018060405250810190610d159190614cc2565b90506000609860009054906101000a90046001600160a01b03166001600160a01b031663b90b8a2a6040518163ffffffff1660e01b815260040160206040518083038186803b158015610d6757600080fd5b505afa158015610d7b573d6000803e3d6000fd5b505050506040513d601f19601f82011682018060405250810190610d9f9190614cc2565b905060005b82811015610f0857609854604051636dab0c9160e11b815260048101849052602481018390526000916001600160a01b03169063db5619229060440160206040518083038186803b158015610df857600080fd5b505afa158015610e0c573d6000803e3d6000fd5b505050506040513d601f19601f82011682018060405250810190610e309190614ec4565b609854604051637e34c5a560e11b81526001600160401b03831660048201529192506000916001600160a01b039091169063fc698b4a9060240160206040518083038186803b158015610e8257600080fd5b505afa158015610e96573d6000803e3d6000fd5b505050506040513d601f19601f82011682018060405250810190610eba9190614cc2565b609c549091506001600160401b0383811691161415610ee557610ee086609e548361235f565b610ef3565b610ef386609e5483856126a8565b50508080610f00906154f9565b915050610da4565b50609e54600081815260aa60205260408082205490513393927f4f9e9bfb3670784096375593cb821e86bd88b1fcb08efc38330012d8c33c3e3691610f53918c918f919042906150cc565b60405180910390a4505050949350505050565b6098546040516313cb1f8360e01b815260009182916001600160a01b03909116906313cb1f8390610fa19089908990899089906004016150a3565b60206040518083038186803b158015610fb957600080fd5b505afa158015610fcd573d6000803e3d6000fd5b505050506040513d601f19601f82011682018060405250810190610ff19190614cc2565b9695505050505050565b600054610100900460ff161580801561101b5750600054600160ff909116105b806110355750303b158015611035575060005460ff166001145b61109d5760405162461bcd60e51b815260206004820152602e60248201527f496e697469616c697a61626c653a20636f6e747261637420697320616c72656160448201526d191e481a5b9a5d1a585b1a5e995960921b60648201526084015b60405180910390fd5b6000805460ff1916600117905580156110c0576000805461ff0019166101001790555b6110c983612919565b6110d1612994565b609c805467ffffffffffffffff19166001600160401b038816179055609a80546001600160a01b0319166001600160a01b0387811691909117909155609980548683166001600160b01b03199091168117600560a01b1790915560005460405163095ea7b360e01b815262010000909104909216600483015260001960248301529063095ea7b390604401602060405180830381600087803b15801561117657600080fd5b505af115801561118a573d6000803e3d6000fd5b505050506040513d601f19601f820116820180604052508101906111ae9190614ca0565b50609c805468010000000000000000600160e01b031916600160401b6001600160a01b03851602179055609a805460ff60a01b1916600560a11b17905542609b558015611235576000805461ff0019169055604051600181527f7f26b83ff96e1f2b6a682f133852f6798a09c465da95921460cefb38474024989060200160405180910390a15b505050505050565b609854604051630ced3f1560e11b81526001600160401b03831660048201526000916001600160a01b0316906319da7e2a906024015b60206040518083038186803b15801561128b57600080fd5b505afa15801561129f573d6000803e3d6000fd5b505050506040513d601f19601f82011682018060405250810190610af09190614b21565b6000806112cf8361123d565b609854604051630174cbe560e41b81526001600160401b03861660048201526001600160a01b03808416602483015292935091169063174cbe509060440160206040518083038186803b15801561132557600080fd5b505afa158015611339573d6000803e3d6000fd5b505050506040513d601f19601f8201168201806040525081019061135d9190614cc2565b9392505050565b609854604051630d03ef1d60e21b81526001600160401b03831660048201526000916001600160a01b03169063340fbc7490602401611273565b60985460408051630791b4b160e31b815290516000926001600160a01b031691633c8da588916004808301926020929190829003018186803b1580156113e357600080fd5b505afa1580156113f7573d6000803e3d6000fd5b505050506040513d601f19601f8201168201806040525081019061141b9190614cc2565b905090565b609a546000906127109061143e90600160a01b900460ff1685615417565b61144891906153f5565b905060008261145783866153dd565b61146191906153dd565b9050803410156114b35760405162461bcd60e51b815260206004820152601a60248201527f6c6f776572207468616e20726571756972656420616d6f756e740000000000006044820152606401611094565b60006114c76033546001600160a01b031690565b6001600160a01b03168360405160006040518083038185875af1925050503d8060008114611511576040519150601f19603f3d011682016040523d82523d6000602084013e611516565b606091505b50509050806115375760405162461bcd60e51b815260040161109490615188565b609c54600160401b90046001600160a01b031663d0e30db061155986886153dd565b6040518263ffffffff1660e01b81526004016000604051808303818588803b15801561158457600080fd5b505af1158015611598573d6000803e3d6000fd5b5050609d805493509150600090506115af836154f9565b9091555050609d8054600090815260a2602090815260408083208054336001600160a01b0319918216179091558454845260ad83528184208a9055609c80549554855260ae909352922080546001600160a01b03600160401b95869004811691909416179055546116249290041686866129c3565b5050505050565b611633612d2f565b6000609b54426116439190615436565b9050600c603c61165381846153f5565b61165d91906153f5565b116116d05760405162461bcd60e51b815260206004820152603960248201527f596f752073686f756c642077616974206174206c6561737420313220686f757260448201527f7320616674657220746865206c617465737420757064617465000000000000006064820152608401611094565b60648260ff16111580156116e8575060018260ff1610155b6117505760405162461bcd60e51b815260206004820152603360248201527f546865206e65774665652073686f756c64206265206265747765656e203120616044820152726e64203130302028302e303125202d2031252960681b6064820152608401611094565b50609a805460ff909216600160a01b0260ff60a01b1990921691909117905542609b55565b61177d612d2f565b6117876000612d89565b565b6000546201000090046001600160a01b031633146117bc576040516335fdcccd60e21b8152336004820152602401611094565b6117cd6117c88261544d565b612ddb565b50565b609a54600090612710906117ee90600160a01b900460ff1686615417565b6117f891906153f5565b905060008361180783876153dd565b61181191906153dd565b609a546040516323b872dd60e01b81523360048201526001600160a01b039182166024820152604481018890529192508716906323b872dd90606401602060405180830381600087803b15801561186757600080fd5b505af115801561187b573d6000803e3d6000fd5b505050506040513d601f19601f8201168201806040525081019061189f9190614ca0565b50856001600160a01b03166323b872dd336118c26033546001600160a01b031690565b6040516001600160e01b031960e085901b1681526001600160a01b0392831660048201529116602482015260448101859052606401602060405180830381600087803b15801561191157600080fd5b505af1158015611925573d6000803e3d6000fd5b505050506040513d601f19601f820116820180604052508101906119499190614ca0565b50600061196e87609c60089054906101000a90046001600160a01b0316883088612ef8565b609d80549192506000611980836154f9565b9091555050609d8054600090815260a2602090815260408083208054336001600160a01b0319918216179091558454845260ad83528184208b90559354835260ae909152902080549091166001600160a01b0389161790556119e38782876129c3565b50505050505050565b6000806000609860009054906101000a90046001600160a01b03166001600160a01b03166353fd43326040518163ffffffff1660e01b815260040160206040518083038186803b158015611a3f57600080fd5b505afa158015611a53573d6000803e3d6000fd5b505050506040513d601f19601f82011682018060405250810190611a779190614cc2565b905060005b81811015611dfd5760985460405163264cae9360e21b8152600481018390526000916001600160a01b031690639932ba4c9060240160206040518083038186803b158015611ac957600080fd5b505afa158015611add573d6000803e3d6000fd5b505050506040513d601f19601f82011682018060405250810190611b019190614b21565b609854604051633aa3b3c160e21b81526001600160a01b0380841660048301529293506000929091169063ea8ecf049060240160206040518083038186803b158015611b4c57600080fd5b505afa158015611b60573d6000803e3d6000fd5b505050506040513d601f19601f82011682018060405250810190611b849190614ec4565b60985460405163d90bc21160e01b81526001600160a01b0385811660048301529293506000929091169063d90bc2119060240160206040518083038186803b158015611bcf57600080fd5b505afa158015611be3573d6000803e3d6000fd5b505050506040513d601f19601f82011682018060405250810190611c079190614cc2565b609c549091506001600160401b0383811691161415611de757609c546001600160a01b03848116600160401b909204161415611ccb57609a546040516370a0823160e01b81526001600160a01b039182166004820152908416906370a082319060240160206040518083038186803b158015611c8257600080fd5b505afa158015611c96573d6000803e3d6000fd5b505050506040513d601f19601f82011682018060405250810190611cba9190614cc2565b611cc490876153dd565b9550611de7565b609854609c54609a546040516370a0823160e01b81526001600160a01b0391821660048201526000938216926313cb1f83928892600160401b909204811691908316906370a082319060240160206040518083038186803b158015611d2f57600080fd5b505afa158015611d43573d6000803e3d6000fd5b505050506040513d601f19601f82011682018060405250810190611d679190614cc2565b866040518563ffffffff1660e01b8152600401611d8794939291906150a3565b60206040518083038186803b158015611d9f57600080fd5b505afa158015611db3573d6000803e3d6000fd5b505050506040513d601f19601f82011682018060405250810190611dd79190614cc2565b9050611de381886153dd565b9650505b5050508080611df5906154f9565b915050611a7c565b509092915050565b611e0d612d2f565b6001600160a01b038116611e335760405162461bcd60e51b8152600401611094906151cc565b606580546001600160a01b0319166001600160a01b0392909216919091179055565b6040805160a081019091526001600160a01b03841660c082015260009081908060e0810160408051808303601f190181529181529082526020808301889052815160008082529181018352929091019190611ed2565b6040805180820190915260008082526020820152815260200190600190039081611eab5790505b5081526020016001856001811115611eec57611eec61552a565b14611ef8576000611f05565b6099546001600160a01b03165b6001600160a01b03168152602001611f366040518060400160405280620dbba081526020016000151581525061304a565b9052600080546040516320487ded60e01b81529293509091620100009091046001600160a01b0316906320487ded90611f75908a908690600401615267565b60206040518083038186803b158015611f8d57600080fd5b505afa158015611fa1573d6000803e3d6000fd5b505050506040513d601f19601f82011682018060405250810190611fc59190614cc2565b905060006001856001811115611fdd57611fdd61552a565b1415612073576000546040516396f4e9f960e01b8152620100009091046001600160a01b0316906396f4e9f99061201a908b908790600401615267565b602060405180830381600087803b15801561203457600080fd5b505af1158015612048573d6000803e3d6000fd5b505050506040513d601f19601f8201168201806040525081019061206c9190614cc2565b9050612101565b6000546040516396f4e9f960e01b8152620100009091046001600160a01b0316906396f4e9f99084906120ac908c908890600401615267565b6020604051808303818588803b1580156120c557600080fd5b505af11580156120d9573d6000803e3d6000fd5b50505050506040513d601f19601f820116820180604052508101906120fe9190614cc2565b90505b6040518181527f54791b38f3859327992a1ca0590ad3c0f08feba98d1a4f56ab0dca74d203392a9060200160405180910390a1979650505050505050565b6098546040516317f271b760e31b81526001600160a01b03868116600483015285811660248301526001600160801b038516604483015263ffffffff84166064830152600092169063bf938db89060840160206040518083038186803b1580156121a857600080fd5b505afa1580156121bc573d6000803e3d6000fd5b505050506040513d601f19601f820116820180604052508101906121e09190614cc2565b95945050505050565b6000670de0b6b3a76400006121fc61139e565b6122069084615417565b610af091906153f5565b612218612d2f565b609880546001600160a01b0319166001600160a01b0392909216919091179055565b6001600160a01b0381166122605760405162461bcd60e51b8152600401611094906151cc565b6065546001600160a01b038281169116146122d85760405162461bcd60e51b815260206004820152603260248201527f50726f706f7361626c654f776e61626c653a206e6577206f776e6572206973206044820152713737ba10383937b837b9b2b21037bbb732b960711b6064820152608401611094565b6001600160a01b03811633146123565760405162461bcd60e51b815260206004820152603a60248201527f50726f706f7361626c654f776e61626c653a20746869732063616c6c206d757360448201527f74206265206d61646520627920746865206e6577206f776e65720000000000006064820152608401611094565b6117cd81612d89565b60005b818110156126a25760985460405163264cae9360e21b8152600481018390526000916001600160a01b031690639932ba4c9060240160206040518083038186803b1580156123af57600080fd5b505afa1580156123c3573d6000803e3d6000fd5b505050506040513d601f19601f820116820180604052508101906123e79190614b21565b60985460405163d90bc21160e01b81526001600160a01b0380841660048301529293506000929091169063d90bc2119060240160206040518083038186803b15801561243257600080fd5b505afa158015612446573d6000803e3d6000fd5b505050506040513d601f19601f8201168201806040525081019061246a9190614cc2565b609854604051630be5271360e01b81526001600160a01b03858116600483015292935060009290911690630be527139060240160206040518083038186803b1580156124b557600080fd5b505afa1580156124c9573d6000803e3d6000fd5b505050506040513d601f19601f820116820180604052508101906124ed9190614cc2565b609a546040516370a0823160e01b81526001600160a01b039182166004820152919250600091670de0b6b3a7640000918616906370a082319060240160206040518083038186803b15801561254157600080fd5b505afa158015612555573d6000803e3d6000fd5b505050506040513d601f19601f820116820180604052508101906125799190614cc2565b612583908a615417565b61258d91906153f5565b609c549091506000906001600160a01b03868116600160401b90920416141561261d57609a546040516377524af960e01b81526001600160a01b039091166004820181905260248201849052906377524af990604401600060405180830381600087803b1580156125fd57600080fd5b505af1158015612611573d6000803e3d6000fd5b50505050819050612641565b609c5461263e908690600160401b90046001600160a01b0316843088612ef8565b90505b600088815260a360205260408120805483929061265f9084906153dd565b9091555050600088815260a4602052604081208054600192906126839084906153dd565b925050819055505050505050808061269a906154f9565b915050612362565b50505050565b60006126b382611364565b60985460405163d1c68aa360e01b81526001600160401b03851660048201529192506000916001600160a01b039091169063d1c68aa39060240160006040518083038186803b15801561270557600080fd5b505afa158015612719573d6000803e3d6000fd5b505050506040513d6000823e601f3d908101601f191682016040526127419190810190614c30565b60985460405163221f337160e01b81526001600160401b03861660048201529192506000916001600160a01b039091169063221f33719060240160006040518083038186803b15801561279357600080fd5b505afa1580156127a7573d6000803e3d6000fd5b505050506040513d6000823e601f3d908101601f191682016040526127cf9190810190614c6c565b609854604051632bda5acd60e21b81526001600160401b03871660048201529192506000916001600160a01b039091169063af696b349060240160006040518083038186803b15801561282157600080fd5b505afa158015612835573d6000803e3d6000fd5b505050506040513d6000823e601f3d908101601f1916820160405261285d9190810190614c6c565b6040805160008082526020808301828152600184860181815260808601909652959650929492939192906060860190803683370190505090508a816000815181106128aa576128aa615540565b60200260200101818152505060006001878588868f8a886040516020016128d89897969594939291906150f2565b604051602081830303815290604052905060006128f88a8a846001611e55565b60009c8d5260aa6020526040909c209b909b55505050505050505050505050565b600054610100900460ff166129405760405162461bcd60e51b81526004016110949061521c565b6001600160a01b03811661296a576040516335fdcccd60e21b815260006004820152602401611094565b600080546001600160a01b03909216620100000262010000600160b01b0319909216919091179055565b600054610100900460ff166129bb5760405162461bcd60e51b81526004016110949061521c565b611787613094565b609c54609a5460405163a9059cbb60e01b81526001600160a01b03918216600482015260248101859052600160401b909204169063a9059cbb90604401602060405180830381600087803b158015612a1a57600080fd5b505af1158015612a2e573d6000803e3d6000fd5b505050506040513d601f19601f82011682018060405250810190612a529190614ca0565b5060985460408051631a521ec760e21b8152905184926000926001600160a01b03909116916369487b1c91600480820192602092909190829003018186803b158015612a9d57600080fd5b505afa158015612ab1573d6000803e3d6000fd5b505050506040513d601f19601f82011682018060405250810190612ad59190614cc2565b90506000609860009054906101000a90046001600160a01b03166001600160a01b031663b90b8a2a6040518163ffffffff1660e01b815260040160206040518083038186803b158015612b2757600080fd5b505afa158015612b3b573d6000803e3d6000fd5b505050506040513d601f19601f82011682018060405250810190612b5f9190614cc2565b905060005b82811015612ccb57609854604051636dab0c9160e11b815260048101849052602481018390526000916001600160a01b03169063db5619229060440160206040518083038186803b158015612bb857600080fd5b505afa158015612bcc573d6000803e3d6000fd5b505050506040513d601f19601f82011682018060405250810190612bf09190614ec4565b609854604051637e34c5a560e11b81526001600160401b03831660048201529192506000916001600160a01b039091169063fc698b4a9060240160206040518083038186803b158015612c4257600080fd5b505afa158015612c56573d6000803e3d6000fd5b505050506040513d601f19601f82011682018060405250810190612c7a9190614cc2565b609c549091506001600160401b0383811691161415612ca757612ca286609d548385886130c4565b612cb6565b612cb686609d5483858861350b565b50508080612cc3906154f9565b915050612b64565b50609d54600081815260a9602090815260408083205460ad9092528083205490513394937f497983feda2f53898206317c0b392bffd918715fad18aaedf4ac296f7ec6bf3d92612d1f928d929042906150cc565b60405180910390a4505050505050565b6033546001600160a01b031633146117875760405162461bcd60e51b815260206004820181905260248201527f4f776e61626c653a2063616c6c6572206973206e6f7420746865206f776e65726044820152606401611094565b603380546001600160a01b038381166001600160a01b0319831681179093556040519116919082907f8be0079c531659141344cd1fd0a4f28419497f9722a3daafe3b4186f6b6457e090600090a35050565b8051602080830151604084015180519192600092612dff9290810182019101614b21565b90506000609860009054906101000a90046001600160a01b03166001600160a01b03166353fd43326040518163ffffffff1660e01b815260040160206040518083038186803b158015612e5157600080fd5b505afa158015612e65573d6000803e3d6000fd5b505050506040513d601f19601f82011682018060405250810190612e899190614cc2565b90506000806000806000808a60600151806020019051810190612eac9190614d88565b9550955095509550955095508560001415612ed457612ecf838684848b8f613965565b612eeb565b8560011415612eeb57612eeb838c878a8d8f613abd565b5050505050505050505050565b6098546040516313cb1f8360e01b815260009182916001600160a01b03909116906313cb1f8390612f33908a908a908a9089906004016150a3565b60206040518083038186803b158015612f4b57600080fd5b505afa158015612f5f573d6000803e3d6000fd5b505050506040513d601f19601f82011682018060405250810190612f839190614cc2565b90506000811561302d57609a546040516305f370ed60e41b81526001600160a01b038a8116600483015289811660248301526044820189905287811660648301526084820187905290911690635f370ed09060a401602060405180830381600087803b158015612ff257600080fd5b505af1158015613006573d6000803e3d6000fd5b505050506040513d601f19601f8201168201806040525081019061302a9190614cc2565b90505b836003141561303f5791506121e09050565b509695505050505050565b6040805182516024820152602092830151151560448083019190915282518083039091018152606490910190915290810180516001600160e01b03166397a657c960e01b17905290565b600054610100900460ff166130bb5760405162461bcd60e51b81526004016110949061521c565b61178733612d89565b60005b83811015611235576098546040516309c6d7f360e21b8152600481018490526001600160401b0385166024820152604481018390526000916001600160a01b03169063271b5fcc9060640160206040518083038186803b15801561312a57600080fd5b505afa15801561313e573d6000803e3d6000fd5b505050506040513d601f19601f820116820180604052508101906131629190614b21565b60985460405163d90bc21160e01b81526001600160a01b0380841660048301529293506000929091169063d90bc2119060240160206040518083038186803b1580156131ad57600080fd5b505afa1580156131c1573d6000803e3d6000fd5b505050506040513d601f19601f820116820180604052508101906131e59190614cc2565b609854604051630be5271360e01b81526001600160a01b03858116600483015292935060009290911690630be527139060240160206040518083038186803b15801561323057600080fd5b505afa158015613244573d6000803e3d6000fd5b505050506040513d601f19601f820116820180604052508101906132689190614cc2565b609c549091506001600160a01b03848116600160401b90920416141561333057609a546040516370a0823160e01b81526001600160a01b039182166004820152613308918516906370a082319060240160206040518083038186803b1580156132d057600080fd5b505afa1580156132e4573d6000803e3d6000fd5b505050506040513d601f19601f8201168201806040525081019061098a9190614cc2565b600089815260a0602090815260408083206001600160a01b03881684529091529020556133ef565b609c54609a546040516370a0823160e01b81526001600160a01b0391821660048201526133cb9261098a928792600160401b909204811691908316906370a082319060240160206040518083038186803b15801561338d57600080fd5b505afa1580156133a1573d6000803e3d6000fd5b505050506040513d601f19601f820116820180604052508101906133c59190614cc2565b86610f66565b600089815260a0602090815260408083206001600160a01b03881684529091529020555b609c546001600160a01b03848116600160401b9092041614156134115761345b565b609c5461345990600160401b90046001600160a01b03168468056bc75e2d6310000061343d858e615417565b61344791906153f5565b609a546001600160a01b031686612ef8565b505b61347c68056bc75e2d63100000613472838c615417565b61098a91906153f5565b600089815260a0602090815260408083206001600160a01b03881684529091529020546134a991906153dd565b600089815260a0602090815260408083206001600160a01b038816845282528083206001908101949094558b835260a1909152812080549091906134ee9084906153dd565b925050819055505050508080613503906154f9565b9150506130c7565b61353d6040518060a0016040528060608152602001606081526020016060815260200160608152602001606081525090565b60408051600180825281830190925260009160208083019080368337019050506098546040516344fd376f60e01b8152600481018690526001600160401b03871660248201529192506001600160a01b0316906344fd376f9060440160206040518083038186803b1580156135b157600080fd5b505afa1580156135c5573d6000803e3d6000fd5b505050506040513d601f19601f820116820180604052508101906135e99190614cc2565b816000815181106135fc576135fc615540565b6020908102919091010152609c5460009061367390600160401b90046001600160a01b031661362a8761123d565b68056bc75e2d631000008560008151811061364757613647615540565b60200260200101518c61365a9190615417565b61366491906153f5565b3061366e8a6112c3565b612ef8565b9050600061368086611364565b60985460405163d1c68aa360e01b81526001600160401b03891660048201529192506001600160a01b03169063d1c68aa39060240160006040518083038186803b1580156136cd57600080fd5b505afa1580156136e1573d6000803e3d6000fd5b505050506040513d6000823e601f3d908101601f191682016040526137099190810190614c30565b845260985460405163221f337160e01b81526001600160401b03881660048201526001600160a01b039091169063221f33719060240160006040518083038186803b15801561375757600080fd5b505afa15801561376b573d6000803e3d6000fd5b505050506040513d6000823e601f3d908101601f191682016040526137939190810190614c6c565b6020850152609854604051632bda5acd60e21b81526001600160401b03881660048201526001600160a01b039091169063af696b349060240160006040518083038186803b1580156137e457600080fd5b505afa1580156137f8573d6000803e3d6000fd5b505050506040513d6000823e601f3d908101601f191682016040526138209190810190614c6c565b60408581019190915280516000808252602080830184526060880192909252825181815280830184526080880152825160018082528185019094529092909182015b60408051808201909152600080825260208201528152602001906001900390816138625790505090506138948761123d565b816000815181106138a7576138a7615540565b6020026020010151600001906001600160a01b031690816001600160a01b03168152505082816000815181106138df576138df615540565b6020026020010151602001818152505060008086600001518760600151886020015189608001518e8b604001518b6040516020016139249897969594939291906150f2565b60405160208183030381529060405290506000613945898386866001613b9f565b60009b8c5260a96020526040909b209a909a555050505050505050505050565b8560005b8651811015613a9c57600086828151811061398657613986615540565b6020026020010151905060008683815181106139a4576139a4615540565b602002602001015190508160a0600086815260200190815260200160002060008b86815181106139d6576139d6615540565b60200260200101516001600160a01b03166001600160a01b03168152602001908152602001600020600001819055508060a0600086815260200190815260200160002060008b8681518110613a2d57613a2d615540565b60200260200101516001600160a01b03166001600160a01b0316815260200190815260200160002060010181905550600160a160008681526020019081526020016000206000828254613a8091906153dd565b9250508190555050508080613a94906154f9565b915050613969565b50600081815260a160205260409020548314156119e3576119e3818361400b565b6080850151805187919060009082908290613ada57613ada615540565b6020026020010151600001519050600082600081518110613afd57613afd615540565b60200260200101516020015190506000613b3083609c60089054906101000a90046001600160a01b031684306003614449565b90508060a360008781526020019081526020016000206000828254613b5591906153dd565b90915550508851600086815260a4602052604081208054909190613b7a9084906153dd565b9091555050600085815260a46020526040902054881415612eeb57612eeb858761457b565b815160995460009190600160a01b900461ffff16811115613c285760405162461bcd60e51b815260206004820152603760248201527f4d6178696d756d203520646966666572656e7420746f6b656e732063616e206260448201527f652073656e74207065722043434950204d6573736167650000000000000000006064820152608401611094565b60005b81811015613d5d5760995485516001600160a01b0390911690869083908110613c5657613c56615540565b6020026020010151600001516001600160a01b031614613d5557848181518110613c8257613c82615540565b6020026020010151600001516001600160a01b031663095ea7b3600060029054906101000a90046001600160a01b0316878481518110613cc457613cc4615540565b6020026020010151602001516040518363ffffffff1660e01b8152600401613d019291906001600160a01b03929092168252602082015260400190565b602060405180830381600087803b158015613d1b57600080fd5b505af1158015613d2f573d6000803e3d6000fd5b505050506040513d601f19601f82011682018060405250810190613d539190614ca0565b505b600101613c2b565b506040805160a081019091526001600160a01b03861660c08201526000908060e0810160408051601f19818403018152918152908252602082018a905281018790526060016001866001811115613db657613db661552a565b14613dc2576000613dcf565b6099546001600160a01b03165b6001600160a01b03168152602001613e006040518060400160405280620dbba081526020016000151581525061304a565b9052600080546040516320487ded60e01b81529293509091620100009091046001600160a01b0316906320487ded90613e3f908c908690600401615267565b60206040518083038186803b158015613e5757600080fd5b505afa158015613e6b573d6000803e3d6000fd5b505050506040513d601f19601f82011682018060405250810190613e8f9190614cc2565b905060006001866001811115613ea757613ea761552a565b1415613f3d576000546040516396f4e9f960e01b8152620100009091046001600160a01b0316906396f4e9f990613ee4908d908790600401615267565b602060405180830381600087803b158015613efe57600080fd5b505af1158015613f12573d6000803e3d6000fd5b505050506040513d601f19601f82011682018060405250810190613f369190614cc2565b9050613fcb565b6000546040516396f4e9f960e01b8152620100009091046001600160a01b0316906396f4e9f9908490613f76908e908890600401615267565b6020604051808303818588803b158015613f8f57600080fd5b505af1158015613fa3573d6000803e3d6000fd5b50505050506040513d601f19601f82011682018060405250810190613fc89190614cc2565b90505b6040518181527f54791b38f3859327992a1ca0590ad3c0f08feba98d1a4f56ab0dca74d203392a9060200160405180910390a19998505050505050505050565b6000806000609860009054906101000a90046001600160a01b03166001600160a01b03166353fd43326040518163ffffffff1660e01b815260040160206040518083038186803b15801561405e57600080fd5b505afa158015614072573d6000803e3d6000fd5b505050506040513d601f19601f820116820180604052508101906140969190614cc2565b905060005b818110156141995760985460405163264cae9360e21b8152600481018390526000916001600160a01b031690639932ba4c9060240160206040518083038186803b1580156140e857600080fd5b505afa1580156140fc573d6000803e3d6000fd5b505050506040513d601f19601f820116820180604052508101906141209190614b21565b600088815260a0602090815260408083206001600160a01b038516845290915290205490915061415090866153dd565b600088815260a0602090815260408083206001600160a01b038616845290915290206001015490955061418390856153dd565b9350508080614191906154f9565b91505061409b565b50600080609a60009054906101000a90046001600160a01b03166001600160a01b03166318160ddd6040518163ffffffff1660e01b815260040160206040518083038186803b1580156141eb57600080fd5b505afa1580156141ff573d6000803e3d6000fd5b505050506040513d601f19601f820116820180604052508101906142239190614cc2565b111561435c57609a60009054906101000a90046001600160a01b03166001600160a01b03166318160ddd6040518163ffffffff1660e01b815260040160206040518083038186803b15801561427757600080fd5b505afa15801561428b573d6000803e3d6000fd5b505050506040513d601f19601f820116820180604052508101906142af9190614cc2565b8484609a60009054906101000a90046001600160a01b03166001600160a01b03166318160ddd6040518163ffffffff1660e01b815260040160206040518083038186803b1580156142ff57600080fd5b505afa158015614313573d6000803e3d6000fd5b505050506040513d601f19601f820116820180604052508101906143379190614cc2565b6143419190615417565b61434b91906153f5565b6143559190615436565b905061436a565b614367836064615417565b90505b609a54600087815260a26020526040908190205490516340c10f1960e01b81526001600160a01b039182166004820152602481018490529116906340c10f1990604401600060405180830381600087803b1580156143c757600080fd5b505af11580156143db573d6000803e3d6000fd5b505050600087815260a2602090815260408083205460ae83528184205460ad909352928190205490516001600160a01b0393841694508a938a937f4d3128af979c46a863cd489a3d0959d5d22181cdbdb1949b40cadfcdac0a1d3893612d1f939290911691889042906150cc565b60985460405163a9059cbb60e01b81526001600160a01b0391821660048201526024810185905260009187169063a9059cbb90604401602060405180830381600087803b15801561449957600080fd5b505af11580156144ad573d6000803e3d6000fd5b505050506040513d601f19601f820116820180604052508101906144d19190614ca0565b50609854604051630bec47a360e11b81526001600160a01b03888116600483015287811660248301526044820187905285811660648301526084820185905260009216906317d88f469060a401602060405180830381600087803b15801561453857600080fd5b505af115801561454c573d6000803e3d6000fd5b505050506040513d601f19601f820116820180604052508101906145709190614cc2565b979650505050505050565b600082815260a3602090815260408083205460a583528184205460ab84528285205460ac90945291842054609a5491946001600160a01b0393841694909316929091612710906145d69060ff600160a01b9091041687615417565b6145e091906153f5565b609c54604051632e1a7d4d60e01b815260048101839052919250600160401b90046001600160a01b031690632e1a7d4d90602401600060405180830381600087803b15801561462e57600080fd5b505af1158015614642573d6000803e3d6000fd5b50505050600061465a6033546001600160a01b031690565b6001600160a01b03168260405160006040518083038185875af1925050503d80600081146146a4576040519150601f19603f3d011682016040523d82523d6000602084013e6146a9565b606091505b50509050806146ca5760405162461bcd60e51b815260040161109490615188565b609c546001600160a01b03858116600160401b90920416141561487a57609c54600160401b90046001600160a01b0316632e1a7d4d6147098489615436565b6040518263ffffffff1660e01b815260040161472791815260200190565b600060405180830381600087803b15801561474157600080fd5b505af1158015614755573d6000803e3d6000fd5b505050506000856001600160a01b031683886147719190615436565b604051600081818185875af1925050503d80600081146147ad576040519150601f19603f3d011682016040523d82523d6000602084013e6147b2565b606091505b505090508061480f5760405162461bcd60e51b8152602060048201526024808201527f7472616e736665722065746820746f20746865207265717565737465722066616044820152631a5b195960e21b6064820152608401611094565b600089815260af60205260409020546001600160a01b038716908a908a907f476778ca38557db6dc935a57ece5bd93fbaca20183fadf86d7a1d2b85df65e0190899061485b898e615436565b4260405161486c94939291906150cc565b60405180910390a450614906565b609c546000906148a690600160401b90046001600160a01b03168661489f868b615436565b8988614449565b9050856001600160a01b031689897f476778ca38557db6dc935a57ece5bd93fbaca20183fadf86d7a1d2b85df65e018860af60008f81526020019081526020016000205486426040516148fc94939291906150cc565b60405180910390a4505b5050505050505050565b600082601f83011261492157600080fd5b81516020614936614931836153ba565b61538a565b80838252828201915082860187848660051b890101111561495657600080fd5b60005b8581101561497e57815161496c8161556c565b84529284019290840190600101614959565b5090979650505050505050565b600082601f83011261499c57600080fd5b813560206149ac614931836153ba565b80838252828201915082860187848660061b89010111156149cc57600080fd5b6000805b86811015614a1757604080848c0312156149e8578283fd5b6149f0615340565b84356149fb8161556c565b81528488013588820152865294860194909201916001016149d0565b509198975050505050505050565b600082601f830112614a3657600080fd5b81516020614a46614931836153ba565b80838252828201915082860187848660051b8901011115614a6657600080fd5b60005b8581101561497e57815184529284019290840190600101614a69565b600082601f830112614a9657600080fd5b81356001600160401b03811115614aaf57614aaf615556565b614ac2601f8201601f191660200161538a565b818152846020838601011115614ad757600080fd5b816020850160208301376000918101602001919091529392505050565b8035614aff81615581565b919050565b600060208284031215614b1657600080fd5b813561135d8161556c565b600060208284031215614b3357600080fd5b815161135d8161556c565b60008060008060808587031215614b5457600080fd5b8435614b5f8161556c565b93506020850135614b6f8161556c565b925060408501356001600160801b0381168114614b8b57600080fd5b9150606085013563ffffffff81168114614ba457600080fd5b939692955090935050565b60008060008060808587031215614bc557600080fd5b8435614bd08161556c565b93506020850135614be08161556c565b93969395505050506040820135916060013590565b60008060008060808587031215614c0b57600080fd5b8435614c168161556c565b966020860135965060408601359560600135945092505050565b600060208284031215614c4257600080fd5b81516001600160401b03811115614c5857600080fd5b614c6484828501614910565b949350505050565b600060208284031215614c7e57600080fd5b81516001600160401b03811115614c9457600080fd5b614c6484828501614a25565b600060208284031215614cb257600080fd5b8151801515811461135d57600080fd5b600060208284031215614cd457600080fd5b5051919050565b600060208284031215614ced57600080fd5b81356001600160e01b03198116811461135d57600080fd5b600060208284031215614d1757600080fd5b81356001600160401b03811115614d2d57600080fd5b820160a0818503121561135d57600080fd5b600060208284031215614d5157600080fd5b5035919050565b60008060408385031215614d6b57600080fd5b823591506020830135614d7d8161556c565b809150509250929050565b60008060008060008060c08789031215614da157600080fd5b8651955060208701516001600160401b0380821115614dbf57600080fd5b614dcb8a838b01614910565b96506040890151915080821115614de157600080fd5b614ded8a838b01614910565b9550606089015194506080890151915080821115614e0a57600080fd5b614e168a838b01614a25565b935060a0890151915080821115614e2c57600080fd5b50614e3989828a01614a25565b9150509295509295509295565b60008060408385031215614e5957600080fd5b50508035926020909101359150565b60008060008060808587031215614e7e57600080fd5b84359350602085013592506040850135614e978161556c565b9396929550929360600135925050565b600060208284031215614eb957600080fd5b813561135d81615581565b600060208284031215614ed657600080fd5b815161135d81615581565b600080600080600060a08688031215614ef957600080fd5b8535614f0481615581565b94506020860135614f148161556c565b93506040860135614f248161556c565b92506060860135614f348161556c565b91506080860135614f448161556c565b809150509295509295909350565b60008060008060808587031215614f6857600080fd5b8435614f7381615581565b93506020850135614f838161556c565b925060408501356001600160401b03811115614f9e57600080fd5b614faa87828801614a85565b925050606085013560028110614ba457600080fd5b600060208284031215614fd157600080fd5b813560ff8116811461135d57600080fd5b600081518084526020808501945080840160005b8381101561501b5781516001600160a01b031687529582019590820190600101614ff6565b509495945050505050565b600081518084526020808501945080840160005b8381101561501b5781518752958201959082019060010161503a565b6000815180845260005b8181101561507c57602081850181015186830182015201615060565b8181111561508e576000602083870101525b50601f01601f19169290920160200192915050565b6001600160a01b0394851681529290931660208301526040820152606081019190915260800190565b6001600160a01b0394909416845260208401929092526040830152606082015260800190565b600061010060ff8b16835280602084015261510f8184018b614fe2565b90508281036040840152615123818a614fe2565b905082810360608401526151378189615026565b9050828103608084015261514b8188615026565b90508560a084015282810360c08401526151658186615026565b905082810360e08401526151798185615026565b9b9a5050505050505050505050565b60208082526024908201527f7472616e73666572206574682066656520746f20746865206f776e65722066616040820152631a5b195960e21b606082015260800190565b60208082526030908201527f50726f706f7361626c654f776e61626c653a206e6577206f776e65722069732060408201526f746865207a65726f206164647265737360801b606082015260800190565b6020808252602b908201527f496e697469616c697a61626c653a20636f6e7472616374206973206e6f74206960408201526a6e697469616c697a696e6760a81b606082015260800190565b600060406001600160401b038516835260208181850152845160a08386015261529360e0860182615056565b905081860151603f19808784030160608801526152b08383615056565b88860151888203830160808a01528051808352908601945060009350908501905b8084101561530357845180516001600160a01b03168352860151868301529385019360019390930192908601906152d1565b5060608901516001600160a01b031660a08901526080890151888203830160c08a015295506153328187615056565b9a9950505050505050505050565b604080519081016001600160401b038111828210171561536257615362615556565b60405290565b60405160a081016001600160401b038111828210171561536257615362615556565b604051601f8201601f191681016001600160401b03811182821017156153b2576153b2615556565b604052919050565b60006001600160401b038211156153d3576153d3615556565b5060051b60200190565b600082198211156153f0576153f0615514565b500190565b60008261541257634e487b7160e01b600052601260045260246000fd5b500490565b600081600019048311821515161561543157615431615514565b500290565b60008282101561544857615448615514565b500390565b600060a0823603121561545f57600080fd5b615467615368565b8235815261547760208401614af4565b602082015260408301356001600160401b038082111561549657600080fd5b6154a236838701614a85565b604084015260608501359150808211156154bb57600080fd5b6154c736838701614a85565b606084015260808501359150808211156154e057600080fd5b506154ed3682860161498b565b60808301525092915050565b600060001982141561550d5761550d615514565b5060010190565b634e487b7160e01b600052601160045260246000fd5b634e487b7160e01b600052602160045260246000fd5b634e487b7160e01b600052603260045260246000fd5b634e487b7160e01b600052604160045260246000fd5b6001600160a01b03811681146117cd57600080fd5b6001600160401b03811681146117cd57600080fdfea2646970667358221220161c32666df3c6e2bb38f35aad4134427c75a7f30c22b650c6514aa1aa07af5964736f6c63430008070033",
    "linkReferences": {}
  },
  "methodIdentifiers": {
    "ccipReceive((bytes32,uint64,bytes,bytes,(address,uint256)[]))": "85572ffb",
    "convertEthToUsd(uint256)": "c086381e",
    "crossChainFactoryBySelector(uint64)": "340fbc74",
    "crossChainToken(uint64)": "19da7e2a",
    "crossChainTokenSwapVersion(uint64)": "326f6fb2",
    "currentChainSelector()": "3d54cb6f",
    "estimateAmountOut(address,address,uint128,uint32)": "bf938db8",
    "feeRate()": "978bbdb9",
    "getAmountOut(address,address,uint256,uint256)": "13cb1f83",
    "getPortfolioBalance()": "a8509fd8",
    "getRouter()": "b0f479a1",
    "i_link()": "7d253aff",
    "i_maxTokensLength()": "5b6a0351",
    "indexFactoryStorage()": "d1f7a991",
    "indexToken()": "e7d015f2",
    "initialize(uint64,address,address,address,address)": "16b487ff",
    "issuanceCompletedTokensCount(uint256)": "94037369",
    "issuanceIndexTokens(address,uint256,uint256,uint256)": "9ad1c356",
    "issuanceIndexTokensWithEth(uint256,uint256)": "41d11817",
    "issuanceInputAmount(uint256)": "cf9ee319",
    "issuanceInputToken(uint256)": "4c776de7",
    "issuanceMessageIdByNonce(uint256)": "9121c717",
    "issuanceNonce()": "9dbb9c9e",
    "issuanceNonceRequester(uint256)": "a3d0ac78",
    "issuanceTokenOldAndNewValues(uint256,address)": "81b15279",
    "latestFeeUpdate()": "011ced5f",
    "owner()": "8da5cb5b",
    "portfolioTotalValueByNonce(uint256)": "7d3546f7",
    "priceInWei()": "3c8da588",
    "proposeOwner(address)": "b5ed298a",
    "proposedOwner()": "d153b60c",
    "redemption(uint256,uint256,address,uint256)": "09445ad4",
    "redemptionCompletedTokensCount(uint256)": "48784303",
    "redemptionInputAmount(uint256)": "9cf54521",
    "redemptionMessageIdByNonce(uint256)": "306b3a28",
    "redemptionNonce()": "84d77bb1",
    "redemptionNonceOutputToken(uint256)": "0603fb05",
    "redemptionNonceOutputTokenSwapVersion(uint256)": "72bc260c",
    "redemptionNonceRequester(uint256)": "3fef7545",
    "redemptionNonceTotalValue(uint256)": "f07bb855",
    "redemptionOutputToken(uint256)": "c3a755b4",
    "renounceOwnership()": "715018a6",
    "sendMessage(uint64,address,bytes,uint8)": "bcab90b3",
    "setFeeRate(uint8)": "5177942a",
    "setIndexFactoryStorage(address)": "cc8659ae",
    "supportsInterface(bytes4)": "01ffc9a7",
    "tokenValueByNonce(uint256,address)": "b316e7fd",
    "transferOwnership(address)": "f2fde38b",
    "updatePortfolioNonce()": "003cf402",
    "updatedTokensValueCount(uint256)": "c070a097",
    "weth()": "3fc8cef3"
  },
  "id": 3
}