{"abi":[{"type":"receive","stateMutability":"payable"},{"type":"function","name":"MAX_FEE_RATE","inputs":[],"outputs":[{"name":"","type":"uint8","internalType":"uint8"}],"stateMutability":"view"},{"type":"function","name":"MAX_TOKENS_LENGTH","inputs":[],"outputs":[{"name":"","type":"uint16","internalType":"uint16"}],"stateMutability":"view"},{"type":"function","name":"MIN_FEE_RATE","inputs":[],"outputs":[{"name":"","type":"uint8","internalType":"uint8"}],"stateMutability":"view"},{"type":"function","name":"MIN_FEE_UPDATE_INTERVAL","inputs":[],"outputs":[{"name":"","type":"uint256","internalType":"uint256"}],"stateMutability":"view"},{"type":"function","name":"ccipReceive","inputs":[{"name":"message","type":"tuple","internalType":"struct Client.Any2EVMMessage","components":[{"name":"messageId","type":"bytes32","internalType":"bytes32"},{"name":"sourceChainSelector","type":"uint64","internalType":"uint64"},{"name":"sender","type":"bytes","internalType":"bytes"},{"name":"data","type":"bytes","internalType":"bytes"},{"name":"destTokenAmounts","type":"tuple[]","internalType":"struct Client.EVMTokenAmount[]","components":[{"name":"token","type":"address","internalType":"address"},{"name":"amount","type":"uint256","internalType":"uint256"}]}]}],"outputs":[],"stateMutability":"nonpayable"},{"type":"function","name":"convertEthToUsd","inputs":[{"name":"_ethAmount","type":"uint256","internalType":"uint256"}],"outputs":[{"name":"","type":"uint256","internalType":"uint256"}],"stateMutability":"view"},{"type":"function","name":"crossChainFactoryBySelector","inputs":[{"name":"_chainSelector","type":"uint64","internalType":"uint64"}],"outputs":[{"name":"","type":"address","internalType":"address"}],"stateMutability":"view"},{"type":"function","name":"crossChainToken","inputs":[{"name":"_chainSelector","type":"uint64","internalType":"uint64"}],"outputs":[{"name":"","type":"address","internalType":"address"}],"stateMutability":"view"},{"type":"function","name":"crossChainTokenSwapFee","inputs":[{"name":"_chainSelector","type":"uint64","internalType":"uint64"}],"outputs":[{"name":"","type":"uint24","internalType":"uint24"}],"stateMutability":"view"},{"type":"function","name":"currentChainSelector","inputs":[],"outputs":[{"name":"","type":"uint64","internalType":"uint64"}],"stateMutability":"view"},{"type":"function","name":"factoryStorage","inputs":[],"outputs":[{"name":"","type":"address","internalType":"contract IndexFactoryStorage"}],"stateMutability":"view"},{"type":"function","name":"feeRate","inputs":[],"outputs":[{"name":"","type":"uint8","internalType":"uint8"}],"stateMutability":"view"},{"type":"function","name":"feeReceiver","inputs":[],"outputs":[{"name":"","type":"address","internalType":"address"}],"stateMutability":"view"},{"type":"function","name":"getAmountOut","inputs":[{"name":"path","type":"address[]","internalType":"address[]"},{"name":"fees","type":"uint24[]","internalType":"uint24[]"},{"name":"amountIn","type":"uint256","internalType":"uint256"}],"outputs":[{"name":"finalAmountOut","type":"uint256","internalType":"uint256"}],"stateMutability":"view"},{"type":"function","name":"getPortfolioBalance","inputs":[],"outputs":[{"name":"","type":"uint256","internalType":"uint256"}],"stateMutability":"view"},{"type":"function","name":"getRouter","inputs":[],"outputs":[{"name":"","type":"address","internalType":"address"}],"stateMutability":"view"},{"type":"function","name":"i_link","inputs":[],"outputs":[{"name":"","type":"address","internalType":"address"}],"stateMutability":"view"},{"type":"function","name":"indexToken","inputs":[],"outputs":[{"name":"","type":"address","internalType":"contract IndexToken"}],"stateMutability":"view"},{"type":"function","name":"initialize","inputs":[{"name":"_currentChainSelector","type":"uint64","internalType":"uint64"},{"name":"_token","type":"address","internalType":"address payable"},{"name":"_chainlinkToken","type":"address","internalType":"address"},{"name":"_router","type":"address","internalType":"address"},{"name":"_weth","type":"address","internalType":"address"}],"outputs":[],"stateMutability":"nonpayable"},{"type":"function","name":"issuanceData","inputs":[{"name":"","type":"uint256","internalType":"uint256"}],"outputs":[{"name":"completedTokensCount","type":"uint256","internalType":"uint256"},{"name":"requester","type":"address","internalType":"address"},{"name":"inputAmount","type":"uint256","internalType":"uint256"},{"name":"inputToken","type":"address","internalType":"address"},{"name":"messageId","type":"bytes32","internalType":"bytes32"}],"stateMutability":"view"},{"type":"function","name":"issuanceIndexTokens","inputs":[{"name":"_tokenIn","type":"address","internalType":"address"},{"name":"_tokenInPath","type":"address[]","internalType":"address[]"},{"name":"_tokenInFees","type":"uint24[]","internalType":"uint24[]"},{"name":"_inputAmount","type":"uint256","internalType":"uint256"},{"name":"_crossChainFee","type":"uint256","internalType":"uint256"}],"outputs":[],"stateMutability":"nonpayable"},{"type":"function","name":"issuanceIndexTokensWithEth","inputs":[{"name":"_inputAmount","type":"uint256","internalType":"uint256"},{"name":"_crossChainFee","type":"uint256","internalType":"uint256"}],"outputs":[],"stateMutability":"payable"},{"type":"function","name":"issuanceNonce","inputs":[],"outputs":[{"name":"","type":"uint256","internalType":"uint256"}],"stateMutability":"view"},{"type":"function","name":"latestFeeUpdate","inputs":[],"outputs":[{"name":"","type":"uint256","internalType":"uint256"}],"stateMutability":"view"},{"type":"function","name":"owner","inputs":[],"outputs":[{"name":"","type":"address","internalType":"address"}],"stateMutability":"view"},{"type":"function","name":"priceInWei","inputs":[],"outputs":[{"name":"","type":"uint256","internalType":"uint256"}],"stateMutability":"view"},{"type":"function","name":"proposeOwner","inputs":[{"name":"_proposedOwner","type":"address","internalType":"address"}],"outputs":[],"stateMutability":"nonpayable"},{"type":"function","name":"proposedOwner","inputs":[],"outputs":[{"name":"","type":"address","internalType":"address"}],"stateMutability":"view"},{"type":"function","name":"redemption","inputs":[{"name":"amountIn","type":"uint256","internalType":"uint256"},{"name":"_crossChainFee","type":"uint256","internalType":"uint256"},{"name":"_tokenOut","type":"address","internalType":"address"},{"name":"_tokenOutPath","type":"address[]","internalType":"address[]"},{"name":"_tokenOutFees","type":"uint24[]","internalType":"uint24[]"}],"outputs":[],"stateMutability":"nonpayable"},{"type":"function","name":"redemptionData","inputs":[{"name":"","type":"uint256","internalType":"uint256"}],"outputs":[{"name":"totalValue","type":"uint256","internalType":"uint256"},{"name":"completedTokensCount","type":"uint256","internalType":"uint256"},{"name":"requester","type":"address","internalType":"address"},{"name":"outputToken","type":"address","internalType":"address"},{"name":"inputAmount","type":"uint256","internalType":"uint256"},{"name":"messageId","type":"bytes32","internalType":"bytes32"}],"stateMutability":"view"},{"type":"function","name":"redemptionNonce","inputs":[],"outputs":[{"name":"","type":"uint256","internalType":"uint256"}],"stateMutability":"view"},{"type":"function","name":"renounceOwnership","inputs":[],"outputs":[],"stateMutability":"nonpayable"},{"type":"function","name":"sendMessage","inputs":[{"name":"destinationChainSelector","type":"uint64","internalType":"uint64"},{"name":"receiver","type":"address","internalType":"address"},{"name":"_data","type":"bytes","internalType":"bytes"},{"name":"payFeesIn","type":"uint8","internalType":"enum MessageSender.PayFeesIn"}],"outputs":[{"name":"","type":"bytes32","internalType":"bytes32"}],"stateMutability":"nonpayable"},{"type":"function","name":"setFeeRate","inputs":[{"name":"_newFee","type":"uint8","internalType":"uint8"}],"outputs":[],"stateMutability":"nonpayable"},{"type":"function","name":"setFeeReceiver","inputs":[{"name":"_feeReceiver","type":"address","internalType":"address"}],"outputs":[],"stateMutability":"nonpayable"},{"type":"function","name":"setIndexFactoryStorage","inputs":[{"name":"_factoryStorage","type":"address","internalType":"address"}],"outputs":[],"stateMutability":"nonpayable"},{"type":"function","name":"supportsInterface","inputs":[{"name":"interfaceId","type":"bytes4","internalType":"bytes4"}],"outputs":[{"name":"","type":"bool","internalType":"bool"}],"stateMutability":"pure"},{"type":"function","name":"transferOwnership","inputs":[{"name":"newOwner","type":"address","internalType":"address"}],"outputs":[],"stateMutability":"nonpayable"},{"type":"function","name":"weth","inputs":[],"outputs":[{"name":"","type":"address","internalType":"contract IWETH"}],"stateMutability":"view"},{"type":"event","name":"Initialized","inputs":[{"name":"version","type":"uint8","indexed":false,"internalType":"uint8"}],"anonymous":false},{"type":"event","name":"Issuanced","inputs":[{"name":"messageId","type":"bytes32","indexed":true,"internalType":"bytes32"},{"name":"nonce","type":"uint256","indexed":true,"internalType":"uint256"},{"name":"user","type":"address","indexed":true,"internalType":"address"},{"name":"inputToken","type":"address","indexed":false,"internalType":"address"},{"name":"inputAmount","type":"uint256","indexed":false,"internalType":"uint256"},{"name":"outputAmount","type":"uint256","indexed":false,"internalType":"uint256"},{"name":"time","type":"uint256","indexed":false,"internalType":"uint256"}],"anonymous":false},{"type":"event","name":"MessageSent","inputs":[{"name":"messageId","type":"bytes32","indexed":false,"internalType":"bytes32"}],"anonymous":false},{"type":"event","name":"OwnershipTransferred","inputs":[{"name":"previousOwner","type":"address","indexed":true,"internalType":"address"},{"name":"newOwner","type":"address","indexed":true,"internalType":"address"}],"anonymous":false},{"type":"event","name":"Redemption","inputs":[{"name":"messageId","type":"bytes32","indexed":true,"internalType":"bytes32"},{"name":"nonce","type":"uint256","indexed":true,"internalType":"uint256"},{"name":"user","type":"address","indexed":true,"internalType":"address"},{"name":"outputToken","type":"address","indexed":false,"internalType":"address"},{"name":"inputAmount","type":"uint256","indexed":false,"internalType":"uint256"},{"name":"outputAmount","type":"uint256","indexed":false,"internalType":"uint256"},{"name":"time","type":"uint256","indexed":false,"internalType":"uint256"}],"anonymous":false},{"type":"event","name":"RequestIssuance","inputs":[{"name":"messageId","type":"bytes32","indexed":true,"internalType":"bytes32"},{"name":"nonce","type":"uint256","indexed":true,"internalType":"uint256"},{"name":"user","type":"address","indexed":true,"internalType":"address"},{"name":"inputToken","type":"address","indexed":false,"internalType":"address"},{"name":"inputAmount","type":"uint256","indexed":false,"internalType":"uint256"},{"name":"outputAmount","type":"uint256","indexed":false,"internalType":"uint256"},{"name":"time","type":"uint256","indexed":false,"internalType":"uint256"}],"anonymous":false},{"type":"event","name":"RequestRedemption","inputs":[{"name":"messageId","type":"bytes32","indexed":true,"internalType":"bytes32"},{"name":"nonce","type":"uint256","indexed":true,"internalType":"uint256"},{"name":"user","type":"address","indexed":true,"internalType":"address"},{"name":"outputToken","type":"address","indexed":false,"internalType":"address"},{"name":"inputAmount","type":"uint256","indexed":false,"internalType":"uint256"},{"name":"outputAmount","type":"uint256","indexed":false,"internalType":"uint256"},{"name":"time","type":"uint256","indexed":false,"internalType":"uint256"}],"anonymous":false},{"type":"error","name":"InvalidRouter","inputs":[{"name":"router","type":"address","internalType":"address"}]}],"bytecode":{"object":"0x6080604052348015600e575f80fd5b506162cd8061001c5f395ff3fe60806040526004361061021c575f3560e01c8063978bbdb911610129578063c086381e116100a8578063d28c00fc1161006d578063d28c00fc14610732578063dfbd389714610759578063e7d015f214610778578063efdcd97414610797578063f2fde38b146107b6575f80fd5b8063c086381e146106a1578063c9172ef7146106c0578063cc8659ae146106d5578063ce4793e1146106f4578063d153b60c14610713575f80fd5b8063b0f479a1116100ee578063b0f479a114610603578063b3f0067414610625578063b5ed298a14610644578063bcab90b314610663578063c06e1ae214610682575f80fd5b8063978bbdb9146104f25780639dbb9c9e146105125780639ff73f4514610527578063a8509fd81461055a578063aa4379c01461056e575f80fd5b806341d11817116101b55780637d253aff1161017a5780637d253aff1461046e57806384d77bb11461048d57806385572ffb146104a25780638da5cb5b146104c157806392f6576e146104de575f80fd5b806341d11817146103e35780635177942a146103f657806358c0f10d14610415578063633777331461043b578063715018a61461045a575f80fd5b8063011ced5f1461022757806301ffc9a71461024f57806316b487ff1461027e57806319da7e2a1461029f5780632d6fc6b3146102cb578063340fbc74146103535780633c8da588146103725780633d54cb6f146103865780633fc8cef3146103bd575f80fd5b3661022357005b5f80fd5b348015610232575f80fd5b5061023c60cd5481565b6040519081526020015b60405180910390f35b34801561025a575f80fd5b5061026e610269366004614fdd565b6107d5565b6040519015158152602001610246565b348015610289575f80fd5b5061029d61029836600461503c565b61080b565b005b3480156102aa575f80fd5b506102be6102b93660046150a9565b610bd4565b60405161024691906150c4565b3480156102d6575f80fd5b506103216102e53660046150d8565b60d26020525f90815260409020600181015460028201546003830154600484015460059094015492936001600160a01b03928316939192169085565b604080519586526001600160a01b0394851660208701528501929092529091166060830152608082015260a001610246565b34801561035e575f80fd5b506102be61036d3660046150a9565b610c48565b34801561037d575f80fd5b5061023c610c81565b348015610391575f80fd5b5060ce546103a5906001600160401b031681565b6040516001600160401b039091168152602001610246565b3480156103c8575f80fd5b5060ce546102be90600160401b90046001600160a01b031681565b61029d6103f13660046150ef565b610cf1565b348015610401575f80fd5b5061029d61041036600461510f565b610f63565b348015610420575f80fd5b50610429600181565b60405160ff9091168152602001610246565b348015610446575f80fd5b5061029d6104553660046152c6565b611090565b348015610465575f80fd5b5061029d61154c565b348015610479575f80fd5b5060cb546102be906001600160a01b031681565b348015610498575f80fd5b5061023c60d05481565b3480156104ad575f80fd5b5061029d6104bc36600461534d565b61155f565b3480156104cc575f80fd5b506033546001600160a01b03166102be565b3480156104e9575f80fd5b50610429606481565b3480156104fd575f80fd5b5060cc5461042990600160a01b900460ff1681565b34801561051d575f80fd5b5061023c60cf5481565b348015610532575f80fd5b506105466105413660046150a9565b6115a5565b60405162ffffff9091168152602001610246565b348015610565575f80fd5b5061023c611634565b348015610579575f80fd5b506105c96105883660046150d8565b60d36020525f9081526040902080546001820154600283015460038401546006850154600790950154939492936001600160a01b0392831693919092169186565b6040805196875260208701959095526001600160a01b039384169486019490945291166060840152608083015260a082015260c001610246565b34801561060e575f80fd5b505f546201000090046001600160a01b03166102be565b348015610630575f80fd5b5060d1546102be906001600160a01b031681565b34801561064f575f80fd5b5061029d61065e366004615383565b611a3b565b34801561066e575f80fd5b5061023c61067d366004615411565b611a8b565b34801561068d575f80fd5b5060ca546102be906001600160a01b031681565b3480156106ac575f80fd5b5061023c6106bb3660046150d8565b611b8a565b3480156106cb575f80fd5b5061023c61a8c081565b3480156106e0575f80fd5b5061029d6106ef366004615383565b611bb0565b3480156106ff575f80fd5b5061029d61070e366004615484565b611bda565b34801561071e575f80fd5b506065546102be906001600160a01b031681565b34801561073d575f80fd5b50610746600581565b60405161ffff9091168152602001610246565b348015610764575f80fd5b5061023c610773366004615509565b611f5e565b348015610783575f80fd5b5060cc546102be906001600160a01b031681565b3480156107a2575f80fd5b5061029d6107b1366004615383565b611fd9565b3480156107c1575f80fd5b5061029d6107d0366004615383565b612003565b5f6001600160e01b031982166385572ffb60e01b148061080557506001600160e01b031982166301ffc9a760e01b145b92915050565b5f54610100900460ff161580801561082957505f54600160ff909116105b806108425750303b15801561084257505f5460ff166001145b6108aa5760405162461bcd60e51b815260206004820152602e60248201527f496e697469616c697a61626c653a20636f6e747261637420697320616c72656160448201526d191e481a5b9a5d1a585b1a5e995960921b60648201526084015b60405180910390fd5b5f805460ff1916600117905580156108cb575f805461ff0019166101001790555b5f866001600160401b03161161091c5760405162461bcd60e51b815260206004820152601660248201527524b73b30b634b21031b430b4b71039b2b632b1ba37b960511b60448201526064016108a1565b6001600160a01b03851661096a5760405162461bcd60e51b8152602060048201526015602482015274496e76616c696420746f6b656e206164647265737360581b60448201526064016108a1565b6001600160a01b0384166109c05760405162461bcd60e51b815260206004820152601f60248201527f496e76616c696420436861696e6c696e6b20746f6b656e20616464726573730060448201526064016108a1565b6001600160a01b038316610a0f5760405162461bcd60e51b8152602060048201526016602482015275496e76616c696420726f75746572206164647265737360501b60448201526064016108a1565b6001600160a01b038216610a5c5760405162461bcd60e51b8152602060048201526014602482015273496e76616c69642057455448206164647265737360601b60448201526064016108a1565b610a6583612128565b610a6d6121a0565b610a756121ce565b610a7d6121f8565b60ce80546001600160401b03881667ffffffffffffffff1990911617905560cc80546001600160a01b038088166001600160a01b03199283161790925560cb80548784169216821790555f5460405163095ea7b360e01b8152919263095ea7b392610af792620100009004909116905f1990600401615575565b6020604051808303815f875af1158015610b13573d5f803e3d5ffd5b505050506040513d601f19601f82011682018060405250810190610b37919061558e565b5060ce8054600160401b600160e01b031916600160401b6001600160a01b0385160217905560cc805460ff60a01b1916600560a11b1790554260cd5560d18054336001600160a01b03199091161790558015610bcc575f805461ff0019169055604051600181527f7f26b83ff96e1f2b6a682f133852f6798a09c465da95921460cefb38474024989060200160405180910390a15b505050505050565b60ca54604051630ced3f1560e11b81526001600160401b03831660048201525f916001600160a01b0316906319da7e2a906024015b602060405180830381865afa158015610c24573d5f803e3d5ffd5b505050506040513d601f19601f8201168201806040525081019061080591906155ad565b60ca54604051630d03ef1d60e21b81526001600160401b03831660048201525f916001600160a01b03169063340fbc7490602401610c09565b60ca5460408051630791b4b160e31b815290515f926001600160a01b031691633c8da5889160048083019260209291908290030181865afa158015610cc8573d5f803e3d5ffd5b505050506040513d601f19601f82011682018060405250810190610cec91906155c8565b905090565b5f8211610d105760405162461bcd60e51b81526004016108a1906155df565b81341015610d585760405162461bcd60e51b8152602060048201526015602482015274125b9cdd59999a58da595b9d08115512081cd95b9d605a1b60448201526064016108a1565b5f610d728360cc60149054906101000a900460ff16612225565b90505f82610d808386615639565b610d8a9190615639565b905080341015610ddc5760405162461bcd60e51b815260206004820152601a60248201527f6c6f776572207468616e20726571756972656420616d6f756e7400000000000060448201526064016108a1565b60ce60089054906101000a90046001600160a01b03166001600160a01b031663d0e30db0826040518263ffffffff1660e01b81526004015f604051808303818588803b158015610e2a575f80fd5b505af1158015610e3c573d5f803e3d5ffd5b505060ce5460d15460405163a9059cbb60e01b81526001600160a01b03600160401b9093048316955063a9059cbb9450610e7e93509116908690600401615575565b6020604051808303815f875af1158015610e9a573d5f803e3d5ffd5b505050506040513d601f19601f82011682018060405250810190610ebe919061558e565b610eda5760405162461bcd60e51b81526004016108a19061564c565b60cf8054905f610ee983615679565b909155505060cf80545f90815260d260205260408082206002018054336001600160a01b0319918216179091558354835281832060030188905560ce8054945484529190922060040180546001600160a01b03600160401b9586900481169190941617905554610f5d929004168585612240565b50505050565b610f6b6124e8565b61a8c060cd5442610f7c9190615691565b1015610fec5760405162461bcd60e51b815260206004820152603960248201527f596f752073686f756c642077616974206174206c6561737420313220686f75726044820152787320616674657220746865206c61746573742075706461746560381b60648201526084016108a1565b606460ff8216118015906110045750600160ff821610155b61106c5760405162461bcd60e51b815260206004820152603360248201527f546865206e65774665652073686f756c64206265206265747765656e203120616044820152726e64203130302028302e303125202d2031252960681b60648201526084016108a1565b60cc805460ff909216600160a01b0260ff60a01b199092169190911790554260cd55565b5f85116110af5760405162461bcd60e51b81526004016108a1906156a4565b6001600160a01b0383166111055760405162461bcd60e51b815260206004820152601c60248201527f496e76616c6964206f757470757420746f6b656e20616464726573730000000060448201526064016108a1565b60cc54604080516318160ddd60e01b815290515f926001600160a01b0316916318160ddd9160048083019260209291908290030181865afa15801561114c573d5f803e3d5ffd5b505050506040513d601f19601f8201168201806040525081019061117091906155c8565b61118287670de0b6b3a76400006156d9565b61118c91906156f0565b9050600160d05f8282546111a09190615639565b909155505060d080545f90815260d3602090815260408083206002018054336001600160a01b0319918216179091558454845281842060030180549091166001600160a01b038a16179055835483528083206006018a905592548252919020845161121392600490920191860190614ec6565b5060d0545f90815260d360209081526040909120835161123b92600590920191850190614f29565b5060cc54604051632770a7eb60e21b81526001600160a01b0390911690639dc29fac9061126e9033908a90600401615575565b5f604051808303815f87803b158015611285575f80fd5b505af1158015611297573d5f803e3d5ffd5b505050505f60ca5f9054906101000a90046001600160a01b03166001600160a01b03166369487b1c6040518163ffffffff1660e01b8152600401602060405180830381865afa1580156112ec573d5f803e3d5ffd5b505050506040513d601f19601f8201168201806040525081019061131091906155c8565b90505f60ca5f9054906101000a90046001600160a01b03166001600160a01b031663b90b8a2a6040518163ffffffff1660e01b8152600401602060405180830381865afa158015611363573d5f803e3d5ffd5b505050506040513d601f19601f8201168201806040525081019061138791906155c8565b60ca546040516369fbf93360e11b8152600481018390529192505f916001600160a01b039091169063d3f7f266906024015f60405180830381865afa1580156113d2573d5f803e3d5ffd5b505050506040513d5f823e601f3d908101601f191682016040526113f991908101906157ce565b925050505f5b838110156114df575f82828151811061141a5761141a6158bb565b602090810291909101015160ca5460405163b6ad185b60e01b81526001600160401b03831660048201529192505f916001600160a01b039091169063b6ad185b90602401602060405180830381865afa158015611479573d5f803e3d5ffd5b505050506040513d601f19601f8201168201806040525081019061149d91906155c8565b60ce549091506001600160401b03908116908316036114c8576114c38760d05483612542565b6114d5565b6114d58760d054846128d7565b50506001016113ff565b50336001600160a01b031660d05460d35f60d05481526020019081526020015f20600701547f4f9e9bfb3670784096375593cb821e86bd88b1fcb08efc38330012d8c33c3e368a8d5f4260405161153994939291906158cf565b60405180910390a4505050505050505050565b6115546124e8565b61155d5f612ac8565b565b5f546201000090046001600160a01b0316331461159157336040516335fdcccd60e21b81526004016108a191906150c4565b6115a261159d8261597e565b612b19565b50565b5f806115b083610bd4565b60ca54604051633291aa5760e11b81526001600160401b03861660048201526001600160a01b03808416602483015292935091169063652354ae90604401602060405180830381865afa158015611609573d5f803e3d5ffd5b505050506040513d601f19601f8201168201806040525081019061162d9190615a2f565b9392505050565b5f805f60ca5f9054906101000a90046001600160a01b03166001600160a01b03166353fd43326040518163ffffffff1660e01b8152600401602060405180830381865afa158015611687573d5f803e3d5ffd5b505050506040513d601f19601f820116820180604052508101906116ab91906155c8565b90505f60ca5f9054906101000a90046001600160a01b03166001600160a01b031663fbfa77cf6040518163ffffffff1660e01b8152600401602060405180830381865afa1580156116fe573d5f803e3d5ffd5b505050506040513d601f19601f8201168201806040525081019061172291906155ad565b90505f5b82811015611a325760ca5460405163264cae9360e21b8152600481018390525f916001600160a01b031690639932ba4c90602401602060405180830381865afa158015611775573d5f803e3d5ffd5b505050506040513d601f19601f8201168201806040525081019061179991906155ad565b60ca54604051633aa3b3c160e21b81529192505f916001600160a01b039091169063ea8ecf04906117ce9085906004016150c4565b602060405180830381865afa1580156117e9573d5f803e3d5ffd5b505050506040513d601f19601f8201168201806040525081019061180d9190615a4a565b60ca5460405163e6096a5f60e01b81529192505f9182916001600160a01b03169063e6096a5f906118429087906004016150c4565b5f60405180830381865afa15801561185c573d5f803e3d5ffd5b505050506040513d5f823e601f3d908101601f191682016040526118839190810190615a65565b60ce5491935091506001600160401b0390811690841603611a225760ce546001600160a01b03600160401b909104811690851603611937576040516370a0823160e01b81526001600160a01b038516906370a08231906118e79089906004016150c4565b602060405180830381865afa158015611902573d5f803e3d5ffd5b505050506040513d601f19601f8201168201806040525081019061192691906155c8565b6119309089615639565b9750611a22565b60ca546040516370a0823160e01b81525f916001600160a01b039081169163dfbd389791869186918a16906370a0823190611976908e906004016150c4565b602060405180830381865afa158015611991573d5f803e3d5ffd5b505050506040513d601f19601f820116820180604052508101906119b591906155c8565b6040518463ffffffff1660e01b81526004016119d393929190615b6d565b602060405180830381865afa1580156119ee573d5f803e3d5ffd5b505050506040513d601f19601f82011682018060405250810190611a1291906155c8565b9050611a1e818a615639565b9850505b5050600190920191506117269050565b50919392505050565b611a436124e8565b6001600160a01b038116611a695760405162461bcd60e51b81526004016108a190615bd2565b606580546001600160a01b0319166001600160a01b0392909216919091179055565b5f80856001600160401b031611611aef5760405162461bcd60e51b815260206004820152602260248201527f496e76616c69642064657374696e6174696f6e20636861696e2073656c65637460448201526137b960f11b60648201526084016108a1565b6001600160a01b038416611b155760405162461bcd60e51b81526004016108a190615c22565b5f835111611b5c5760405162461bcd60e51b8152602060048201526014602482015273446174612063616e6e6f7420626520656d70747960601b60448201526064016108a1565b5f5460cb54611b81916001600160a01b03620100009091048116911687878787612bf4565b95945050505050565b5f670de0b6b3a7640000611b9c610c81565b611ba690846156d9565b61080591906156f0565b611bb86124e8565b60ca80546001600160a01b0319166001600160a01b0392909216919091179055565b6001600160a01b038516611c305760405162461bcd60e51b815260206004820152601b60248201527f496e76616c696420696e70757420746f6b656e2061646472657373000000000060448201526064016108a1565b5f8211611c4f5760405162461bcd60e51b81526004016108a1906155df565b60ca5460408051633fc8cef360e01b815290515f926001600160a01b031691633fc8cef39160048083019260209291908290030181865afa158015611c96573d5f803e3d5ffd5b505050506040513d601f19601f82011682018060405250810190611cba91906155ad565b90505f60ca5f9054906101000a90046001600160a01b03166001600160a01b031663fbfa77cf6040518163ffffffff1660e01b8152600401602060405180830381865afa158015611d0d573d5f803e3d5ffd5b505050506040513d601f19601f82011682018060405250810190611d3191906155ad565b90505f611d4d8560cc60149054906101000a900460ff16612225565b60cf80549192505f611d5e83615679565b909155505060cf80545f90815260d2602052604080822060020180546001600160a01b031990811633908117909255845484528284206003018a905593548352912060040180546001600160a01b038c169316831790556323b872dd9030611dc6858a615639565b6040518463ffffffff1660e01b8152600401611de493929190615c54565b6020604051808303815f875af1158015611e00573d5f803e3d5ffd5b505050506040513d601f19601f82011682018060405250810190611e24919061558e565b611e685760405162461bcd60e51b8152602060048201526015602482015274151bdad95b881d1c985b9cd9995c8819985a5b1959605a1b60448201526064016108a1565b5f611e7e8888611e78858a615639565b30612f9d565b60cc549091505f9061271090611e9e90600160a01b900460ff16846156d9565b611ea891906156f0565b90505f611eb58284615691565b60d15460405163a9059cbb60e01b81529192506001600160a01b038089169263a9059cbb92611eea9216908690600401615575565b6020604051808303815f875af1158015611f06573d5f803e3d5ffd5b505050506040513d601f19601f82011682018060405250810190611f2a919061558e565b611f465760405162461bcd60e51b81526004016108a19061564c565b611f518b8289612240565b5050505050505050505050565b60ca5460405163dfbd389760e01b81525f916001600160a01b03169063dfbd389790611f9290879087908790600401615b6d565b602060405180830381865afa158015611fad573d5f803e3d5ffd5b505050506040513d601f19601f82011682018060405250810190611fd191906155c8565b949350505050565b611fe16124e8565b60d180546001600160a01b0319166001600160a01b0392909216919091179055565b6001600160a01b0381166120295760405162461bcd60e51b81526004016108a190615bd2565b6065546001600160a01b038281169116146120a15760405162461bcd60e51b815260206004820152603260248201527f50726f706f7361626c654f776e61626c653a206e6577206f776e6572206973206044820152713737ba10383937b837b9b2b21037bbb732b960711b60648201526084016108a1565b6001600160a01b038116331461211f5760405162461bcd60e51b815260206004820152603a60248201527f50726f706f7361626c654f776e61626c653a20746869732063616c6c206d757360448201527f74206265206d61646520627920746865206e6577206f776e657200000000000060648201526084016108a1565b6115a281612ac8565b5f54610100900460ff1661214e5760405162461bcd60e51b81526004016108a190615c78565b6001600160a01b038116612177575f6040516335fdcccd60e21b81526004016108a191906150c4565b5f80546001600160a01b03909216620100000262010000600160b01b0319909216919091179055565b5f54610100900460ff166121c65760405162461bcd60e51b81526004016108a190615c78565b61155d6130a5565b5f54610100900460ff166121f45760405162461bcd60e51b81526004016108a190615c78565b61155d5b5f54610100900460ff1661221e5760405162461bcd60e51b81526004016108a190615c78565b6001609855565b5f61271061223660ff8416856156d9565b61162d91906156f0565b60ca5460408051631a521ec760e21b8152905184925f926001600160a01b03909116916369487b1c916004808201926020929091908290030181865afa15801561228c573d5f803e3d5ffd5b505050506040513d601f19601f820116820180604052508101906122b091906155c8565b90505f60ca5f9054906101000a90046001600160a01b03166001600160a01b031663b90b8a2a6040518163ffffffff1660e01b8152600401602060405180830381865afa158015612303573d5f803e3d5ffd5b505050506040513d601f19601f8201168201806040525081019061232791906155c8565b60ca546040516369fbf93360e11b8152600481018390529192505f916001600160a01b039091169063d3f7f266906024015f60405180830381865afa158015612372573d5f803e3d5ffd5b505050506040513d5f823e601f3d908101601f1916820160405261239991908101906157ce565b925050505f5b83811015612482575f8282815181106123ba576123ba6158bb565b602090810291909101015160ca5460405163b6ad185b60e01b81526001600160401b03831660048201529192505f916001600160a01b039091169063b6ad185b90602401602060405180830381865afa158015612419573d5f803e3d5ffd5b505050506040513d601f19601f8201168201806040525081019061243d91906155c8565b60ce549091506001600160401b039081169083160361246a576124658760cf548385896130d4565b612478565b6124788760cf54848861348f565b505060010161239f565b5060cf545f81815260d260205260408082206005810154600390910154915133949391927f497983feda2f53898206317c0b392bffd918715fad18aaedf4ac296f7ec6bf3d926124d7928e92919042906158cf565b60405180910390a450505050505050565b6033546001600160a01b0316331461155d5760405162461bcd60e51b815260206004820181905260248201527f4f776e61626c653a2063616c6c6572206973206e6f7420746865206f776e657260448201526064016108a1565b60ca5460ce5460405163d1c68aa360e01b81526001600160401b0390911660048201525f916001600160a01b03169063d1c68aa3906024015f60405180830381865afa158015612594573d5f803e3d5ffd5b505050506040513d5f823e601f3d908101601f191682016040526125bb9190810190615cc3565b90505f60ca5f9054906101000a90046001600160a01b03166001600160a01b031663fbfa77cf6040518163ffffffff1660e01b8152600401602060405180830381865afa15801561260e573d5f803e3d5ffd5b505050506040513d601f19601f8201168201806040525081019061263291906155ad565b90505f5b83811015610bcc575f838281518110612651576126516158bb565b602090810291909101015160ca5460405163e6096a5f60e01b81529192505f9182916001600160a01b03169063e6096a5f906126919086906004016150c4565b5f60405180830381865afa1580156126ab573d5f803e3d5ffd5b505050506040513d5f823e601f3d908101601f191682016040526126d29190810190615a65565b915091505f670de0b6b3a7640000846001600160a01b03166370a0823160ca5f9054906101000a90046001600160a01b03166001600160a01b031663fbfa77cf6040518163ffffffff1660e01b8152600401602060405180830381865afa15801561273f573d5f803e3d5ffd5b505050506040513d601f19601f8201168201806040525081019061276391906155ad565b6040518263ffffffff1660e01b815260040161277f91906150c4565b602060405180830381865afa15801561279a573d5f803e3d5ffd5b505050506040513d601f19601f820116820180604052508101906127be91906155c8565b6127c8908c6156d9565b6127d291906156f0565b604051631c20fadd60e01b81529091506001600160a01b03871690631c20fadd9061280590879030908690600401615c54565b6020604051808303815f875af1158015612821573d5f803e3d5ffd5b505050506040513d601f19601f82011682018060405250810190612845919061558e565b5060ce545f906001600160a01b03868116600160401b90920416146128755761287084848430612f9d565b612877565b815b5f8b815260d36020526040812080549293508392909190612899908490615639565b90915550505f8a815260d36020526040812060019081018054919290916128c1908490615639565b9091555050600190950194506126369350505050565b5f6128e182610c48565b60ca5460405163d1c68aa360e01b81526001600160401b03851660048201529192505f916001600160a01b039091169063d1c68aa3906024015f60405180830381865afa158015612934573d5f803e3d5ffd5b505050506040513d5f823e601f3d908101601f1916820160405261295b9190810190615cc3565b6040805160018082528183019092529192505f91906020808301908036833701905050905085815f81518110612993576129936158bb565b60209081029190910101525f600183826040519080825280602002602001820160405280156129cc578160200160208202803683370190505b5060ca546040516307fb214560e41b81526001600160a01b0390911690637fb21450906129fd908990600401615cf4565b5f60405180830381865afa158015612a17573d5f803e3d5ffd5b505050506040513d5f823e601f3d908101601f19168201604052612a3e9190810190615dc4565b604080515f8082526020820190925290612a68565b6060815260200190600190039081612a535790505b50604080515f8152602081018252612a8b9695949392918d91908a908201615ead565b60405160208183030381529060405290505f612aaa8686846001611a8b565b5f97885260d360205260409097206007019690965550505050505050565b603380546001600160a01b038381166001600160a01b0319831681179093556040519116919082907f8be0079c531659141344cd1fd0a4f28419497f9722a3daafe3b4186f6b6457e0905f90a35050565b805160208083015160ca54604080516329fea19960e11b8152905192935f936001600160a01b03909316926353fd43329260048082019392918290030181865afa158015612b69573d5f803e3d5ffd5b505050506040513d601f19601f82011682018060405250810190612b8d91906155c8565b90505f805f805f8860600151806020019051810190612bac9190615f41565b97509750975050505094509450845f03612bd357612bce838584848a8d6136c6565b612be9565b84600103612be957612be9838a86898b8d61380f565b505050505050505050565b5f6001600160a01b038716612c465760405162461bcd60e51b8152602060048201526018602482015277496e76616c696420695f726f75746572206164647265737360401b60448201526064016108a1565b6001600160a01b038616612c955760405162461bcd60e51b8152602060048201526016602482015275496e76616c696420695f6c696e6b206164647265737360501b60448201526064016108a1565b846001600160401b03165f03612ced5760405162461bcd60e51b815260206004820181905260248201527f496e76616c69642064657374696e6174696f6e436861696e53656c6563746f7260448201526064016108a1565b6001600160a01b038416612d135760405162461bcd60e51b81526004016108a190615c22565b5f835111612d525760405162461bcd60e51b815260206004820152600c60248201526b496e76616c6964206461746160a01b60448201526064016108a1565b5f6040518060a0016040528086604051602001612d6f91906150c4565b60408051808303601f19018152918152908252602080830188905281515f8082529181018352929091019190612dc6565b604080518082019091525f8082526020820152815260200190600190039081612da05790505b5081526020016001856001811115612de057612de061605e565b14612deb575f612ded565b885b6001600160a01b03168152602001612e156040518060200160405280622dc6c081525061395f565b90526040516320487ded60e01b81529091505f906001600160a01b038a16906320487ded90612e4a908a908690600401616072565b602060405180830381865afa158015612e65573d5f803e3d5ffd5b505050506040513d601f19601f82011682018060405250810190612e8991906155c8565b90505f6001856001811115612ea057612ea061605e565b03612f1a576040516396f4e9f960e01b81526001600160a01b038b16906396f4e9f990612ed3908b908790600401616072565b6020604051808303815f875af1158015612eef573d5f803e3d5ffd5b505050506040513d601f19601f82011682018060405250810190612f1391906155c8565b9050612f8e565b6040516396f4e9f960e01b81526001600160a01b038b16906396f4e9f9908490612f4a908c908890600401616072565b60206040518083038185885af1158015612f66573d5f803e3d5ffd5b50505050506040513d601f19601f82011682018060405250810190612f8b91906155c8565b90505b925050505b9695505050505050565b5f8060ca5f9054906101000a90046001600160a01b03166001600160a01b031663b631e80b6040518163ffffffff1660e01b8152600401602060405180830381865afa158015612fef573d5f803e3d5ffd5b505050506040513d601f19601f8201168201806040525081019061301391906155ad565b90505f60ca5f9054906101000a90046001600160a01b03166001600160a01b031663744fbc7a6040518163ffffffff1660e01b8152600401602060405180830381865afa158015613066573d5f803e3d5ffd5b505050506040513d601f19601f8201168201806040525081019061308a91906155ad565b905061309a82828989898961399c565b979650505050505050565b5f54610100900460ff166130cb5760405162461bcd60e51b81526004016108a190615c78565b61155d33612ac8565b60ca5460405163d1c68aa360e01b81526001600160401b03841660048201525f916001600160a01b03169063d1c68aa3906024015f60405180830381865afa158015613122573d5f803e3d5ffd5b505050506040513d5f823e601f3d908101601f191682016040526131499190810190615cc3565b90505f5b84811015613486575f828281518110613168576131686158bb565b602090810291909101015160ca5460405163241321e560e21b81529192505f9182916001600160a01b03169063904c8794906131a89086906004016150c4565b5f60405180830381865afa1580156131c2573d5f803e3d5ffd5b505050506040513d5f823e601f3d908101601f191682016040526131e99190810190615a65565b915091506131f6836139e3565b5f8a815260d2602090815260408083206001600160a01b03808916855292528083209390935560ca549251630be5271360e01b815291921690630be52713906132439087906004016150c4565b602060405180830381865afa15801561325e573d5f803e3d5ffd5b505050506040513d601f19601f8201168201806040525081019061328291906155c8565b90505f68056bc75e2d63100000613299838e6156d9565b6132a391906156f0565b60ce549091506001600160a01b03868116600160401b90920416146133475761334184848360ca5f9054906101000a90046001600160a01b03166001600160a01b031663fbfa77cf6040518163ffffffff1660e01b8152600401602060405180830381865afa158015613318573d5f803e3d5ffd5b505050506040513d601f19601f8201168201806040525081019061333c91906155ad565b612f9d565b50613424565b60ce5460ca546040805163fbfa77cf60e01b815290516001600160a01b03600160401b90940484169363a9059cbb93169163fbfa77cf9160048083019260209291908290030181865afa1580156133a0573d5f803e3d5ffd5b505050506040513d601f19601f820116820180604052508101906133c491906155ad565b836040518363ffffffff1660e01b81526004016133e2929190615575565b6020604051808303815f875af11580156133fe573d5f803e3d5ffd5b505050506040513d601f19601f82011682018060405250810190613422919061558e565b505b61342d856139e3565b5f8c815260d2602081815260408084206001600160a01b038b1685528083529084206001908101959095558f845291905282018054909190613470908490615639565b90915550506001909501945061314d9350505050565b50505050505050565b60ca54604051632a3ff8ad60e01b8152600481018390526001600160401b03841660248201525f916001600160a01b031690632a3ff8ad90604401602060405180830381865afa1580156134e5573d5f803e3d5ffd5b505050506040513d601f19601f8201168201806040525081019061350991906155c8565b6040805160018082528183019092529192505f91906020808301908036833701905050905081815f81518110613541576135416158bb565b6020026020010181815250505f613559878685613c47565b60ca5460405163d1c68aa360e01b81526001600160401b03881660048201529192505f916001600160a01b039091169063d1c68aa3906024015f60405180830381865afa1580156135ac573d5f803e3d5ffd5b505050506040513d5f823e601f3d908101601f191682016040526135d39190810190615cc3565b60ca54604051632bda5acd60e21b81526001600160401b03891660048201529192505f916001600160a01b039091169063af696b34906024015f60405180830381865afa158015613626573d5f803e3d5ffd5b505050506040513d5f823e601f3d908101601f1916820160405261364d9190810190616145565b90505f61365988610c48565b90505f61366b8a8a87858a8989613ced565b90507f54791b38f3859327992a1ca0590ad3c0f08feba98d1a4f56ab0dca74d203392a8160405161369e91815260200190565b60405180910390a15f998a5260d2602052604090992060050198909855505050505050505050565b855f5b86518110156137ec575f8682815181106136e5576136e56158bb565b602002602001015190505f868381518110613702576137026158bb565b602002602001015190508160d25f8681526020019081526020015f205f015f8b8681518110613733576137336158bb565b60200260200101516001600160a01b03166001600160a01b031681526020019081526020015f205f01819055508060d25f8681526020019081526020015f205f015f8b8681518110613787576137876158bb565b60200260200101516001600160a01b03166001600160a01b031681526020019081526020015f2060010181905550600160d25f8681526020019081526020015f206001015f8282546137d99190615639565b9091555050600190920191506136c99050565b505f81815260d26020526040902060010154839003613486576134868183613dba565b608085015180518791905f908290829061382b5761382b6158bb565b60200260200101515f015190505f825f8151811061384b5761384b6158bb565b602090810291909101810151015160ca5460405163e6096a5f60e01b81529192505f9182916001600160a01b03169063e6096a5f9061388e9087906004016150c4565b5f60405180830381865afa1580156138a8573d5f803e3d5ffd5b505050506040513d5f823e601f3d908101601f191682016040526138cf9190810190615a65565b915091505f6138e083838630612f9d565b5f88815260d36020526040812080549293508392909190613902908490615639565b90915550508a515f88815260d3602052604081206001018054909190613929908490615639565b90915550505f87815260d360205260409020600101548a9003613950576139508789614194565b50505050505050505050505050565b60408051915160248084019190915281518084039091018152604490920190526020810180516001600160e01b03166397a657c960e01b17905290565b5f8083116139bc5760405162461bcd60e51b81526004016108a1906156a4565b8351156139d7576139d0878686868661456c565b9050612f93565b61309a868685856146a8565b60ca5460405163e6096a5f60e01b81525f91829182916001600160a01b03169063e6096a5f90613a179087906004016150c4565b5f60405180830381865afa158015613a31573d5f803e3d5ffd5b505050506040513d5f823e601f3d908101601f19168201604052613a589190810190615a65565b60ce5491935091505f906001600160a01b03868116600160401b9092041614613b6657613b616106bb8484886001600160a01b03166370a0823160ca5f9054906101000a90046001600160a01b03166001600160a01b031663fbfa77cf6040518163ffffffff1660e01b8152600401602060405180830381865afa158015613ae2573d5f803e3d5ffd5b505050506040513d601f19601f82011682018060405250810190613b0691906155ad565b6040518263ffffffff1660e01b8152600401613b2291906150c4565b602060405180830381865afa158015613b3d573d5f803e3d5ffd5b505050506040513d601f19601f8201168201806040525081019061077391906155c8565b611b81565b611b81856001600160a01b03166370a0823160ca5f9054906101000a90046001600160a01b03166001600160a01b031663fbfa77cf6040518163ffffffff1660e01b8152600401602060405180830381865afa158015613bc8573d5f803e3d5ffd5b505050506040513d601f19601f82011682018060405250810190613bec91906155ad565b6040518263ffffffff1660e01b8152600401613c0891906150c4565b602060405180830381865afa158015613c23573d5f803e3d5ffd5b505050506040513d601f19601f820116820180604052508101906106bb91906155c8565b60ca545f90819081906001600160a01b031663904c8794613c6787610bd4565b6040518263ffffffff1660e01b8152600401613c8391906150c4565b5f60405180830381865afa158015613c9d573d5f803e3d5ffd5b505050506040513d5f823e601f3d908101601f19168201604052613cc49190810190615a65565b90925090505f61309a838368056bc75e2d63100000613ce3898c6156d9565b611e7891906156f0565b6040805160018082528183019092525f91829190816020015b604080518082019091525f8082526020820152815260200190600190039081613d06579050509050613d3788610bd4565b815f81518110613d4957613d496158bb565b60200260200101515f01906001600160a01b031690816001600160a01b03168152505086815f81518110613d7f57613d7f6158bb565b602002602001015160200181815250505f613d9c8a878787614836565b9050613dac898289856001614967565b9a9950505050505050505050565b5f805f60ca5f9054906101000a90046001600160a01b03166001600160a01b03166353fd43326040518163ffffffff1660e01b8152600401602060405180830381865afa158015613e0d573d5f803e3d5ffd5b505050506040513d601f19601f82011682018060405250810190613e3191906155c8565b90505f5b81811015613f145760ca5460405163264cae9360e21b8152600481018390525f916001600160a01b031690639932ba4c90602401602060405180830381865afa158015613e84573d5f803e3d5ffd5b505050506040513d601f19601f82011682018060405250810190613ea891906155ad565b5f88815260d2602090815260408083206001600160a01b0385168452909152902054909150613ed79086615639565b5f88815260d2602090815260408083206001600160a01b0386168452909152902060010154909550613f099085615639565b935050600101613e35565b505f8060cc5f9054906101000a90046001600160a01b03166001600160a01b03166318160ddd6040518163ffffffff1660e01b8152600401602060405180830381865afa158015613f67573d5f803e3d5ffd5b505050506040513d601f19601f82011682018060405250810190613f8b91906155c8565b11156140a05760cc5f9054906101000a90046001600160a01b03166001600160a01b03166318160ddd6040518163ffffffff1660e01b8152600401602060405180830381865afa158015613fe1573d5f803e3d5ffd5b505050506040513d601f19601f8201168201806040525081019061400591906155c8565b848460cc5f9054906101000a90046001600160a01b03166001600160a01b03166318160ddd6040518163ffffffff1660e01b8152600401602060405180830381865afa158015614057573d5f803e3d5ffd5b505050506040513d601f19601f8201168201806040525081019061407b91906155c8565b61408591906156d9565b61408f91906156f0565b6140999190615691565b90506140ae565b6140ab8360646156d9565b90505b60cc545f87815260d26020526040908190206002015490516340c10f1960e01b81526001600160a01b03928316926340c10f19926140f3929116908590600401615575565b5f604051808303815f87803b15801561410a575f80fd5b505af115801561411c573d5f803e3d5ffd5b5050505f87815260d26020526040908190206002810154600482015460039092015492516001600160a01b0391821694508a938a937f4d3128af979c46a863cd489a3d0959d5d22181cdbdb1949b40cadfcdac0a1d38936141849391169190889042906158cf565b60405180910390a4505050505050565b5f82815260d3602052604081208054600282015460039092015460cc5491936001600160a01b0393841693909116916141d8908590600160a01b900460ff16612225565b60ce5460d15460405163a9059cbb60e01b81529293506001600160a01b03600160401b90920482169263a9059cbb926142179216908590600401615575565b6020604051808303815f875af1158015614233573d5f803e3d5ffd5b505050506040513d601f19601f82011682018060405250810190614257919061558e565b6142735760405162461bcd60e51b81526004016108a19061564c565b60ce546001600160a01b03600160401b90910481169083160361441c5760ce54600160401b90046001600160a01b0316632e1a7d4d6142b28387615691565b6040518263ffffffff1660e01b81526004016142d091815260200190565b5f604051808303815f87803b1580156142e7575f80fd5b505af11580156142f9573d5f803e3d5ffd5b505050505f836001600160a01b031682866143149190615691565b6040515f81818185875af1925050503d805f811461434d576040519150601f19603f3d011682016040523d82523d5f602084013e614352565b606091505b50509050806143af5760405162461bcd60e51b8152602060048201526024808201527f7472616e736665722065746820746f20746865207265717565737465722066616044820152631a5b195960e21b60648201526084016108a1565b5f87815260d360205260409020600601546001600160a01b03851690889088907f476778ca38557db6dc935a57ece5bd93fbaca20183fadf86d7a1d2b85df65e019087906143fd888c615691565b4260405161440e94939291906158cf565b60405180910390a450610bcc565b5f86815260d36020908152604080832060040180548251818502810185019093528083526145159383018282801561447b57602002820191905f5260205f20905b81546001600160a01b0316815260019091019060200180831161445d575b5050505f8b815260d36020908152604091829020600501805483518184028101840190945280845292945092508301828280156144fe57602002820191905f5260205f20905f905b82829054906101000a900462ffffff1662ffffff16815260200190600301906020826002010492830192600103820291508084116144c35790505b5050505050848861450f9190615691565b87612f9d565b9050836001600160a01b031687877f476778ca38557db6dc935a57ece5bd93fbaca20183fadf86d7a1d2b85df65e018660d35f8d81526020019081526020015f206006015486426040516124d794939291906158cf565b5f845f8151811061457f5761457f6158bb565b60200260200101516001600160a01b031663095ea7b387856040518363ffffffff1660e01b81526004016145b4929190615575565b6020604051808303815f875af11580156145d0573d5f803e3d5ffd5b505050506040513d601f19601f820116820180604052508101906145f4919061558e565b505f6040518060a0016040528061460b88886149e0565b81526001600160a01b038516602082015260400161462b4261012c615639565b8152602081018690525f6040918201525163c04b8d5960e01b81529091506001600160a01b0388169063c04b8d5990614668908490600401616176565b6020604051808303815f875af1158015614684573d5f803e3d5ffd5b505050506040513d601f19601f8201168201806040525081019061309a91906155c8565b5f80856001600160a01b031663d06ca61f85876040518363ffffffff1660e01b81526004016146d89291906161cd565b5f60405180830381865afa1580156146f2573d5f803e3d5ffd5b505050506040513d5f823e601f3d908101601f191682016040526147199190810190616145565b9050845f8151811061472d5761472d6158bb565b60200260200101516001600160a01b031663095ea7b387866040518363ffffffff1660e01b8152600401614762929190615575565b6020604051808303815f875af115801561477e573d5f803e3d5ffd5b505050506040513d601f19601f820116820180604052508101906147a2919061558e565b50604051635c11d79560e01b81526001600160a01b03871690635c11d795906147d79087905f908a90899042906004016161e5565b5f604051808303815f87803b1580156147ee575f80fd5b505af1158015614800573d5f803e3d5ffd5b5050505080600182516148139190615691565b81518110614823576148236158bb565b6020026020010151915050949350505050565b604080515f808252602082019283905260ca546307fb214560e41b909352606092909185916001600160a01b0316637fb214506148768460248501615cf4565b5f60405180830381865afa158015614890573d5f803e3d5ffd5b505050506040513d5f823e601f3d908101601f191682016040526148b79190810190615dc4565b60ca54604080515f815260208101918290526307fb214560e41b9091526001600160a01b0390911690637fb21450906148f39060248101615cf4565b5f60405180830381865afa15801561490d573d5f803e3d5ffd5b505050506040513d5f823e601f3d908101601f191682016040526149349190810190615dc4565b89878a60405160200161494e989796959493929190615ead565b6040516020818303038152906040529050949350505050565b5f614970614af3565b5f805460cb54614999916001600160a01b03620100009091048116911660058a8a8a8a8a614b4c565b90507f54791b38f3859327992a1ca0590ad3c0f08feba98d1a4f56ab0dca74d203392a816040516149cc91815260200190565b60405180910390a19050611b816001609855565b6060815160016149f09190615639565b835114614a365760405162461bcd60e51b8152602060048201526014602482015273496e76616c696420696e7075742061727261797360601b60448201526064016108a1565b5f5b8251811015614aa25781848281518110614a5457614a546158bb565b6020026020010151848381518110614a6e57614a6e6158bb565b6020026020010151604051602001614a8893929190616237565b60408051601f198184030181529190529150600101614a38565b50808360018551614ab39190615691565b81518110614ac357614ac36158bb565b6020026020010151604051602001614adc929190616270565b604051602081830303815290604052905092915050565b600260985403614b455760405162461bcd60e51b815260206004820152601f60248201527f5265656e7472616e637947756172643a207265656e7472616e742063616c6c0060448201526064016108a1565b6002609855565b81515f9061ffff8816811115614bc45760405162461bcd60e51b815260206004820152603760248201527f4d6178696d756d203520646966666572656e7420746f6b656e732063616e2062604482015276652073656e74207065722043434950204d65737361676560481b60648201526084016108a1565b5f5b81811015614cb457896001600160a01b0316858281518110614bea57614bea6158bb565b60200260200101515f01516001600160a01b031614614cac57848181518110614c1557614c156158bb565b60200260200101515f01516001600160a01b031663095ea7b38c878481518110614c4157614c416158bb565b6020026020010151602001516040518363ffffffff1660e01b8152600401614c6a929190615575565b6020604051808303815f875af1158015614c86573d5f803e3d5ffd5b505050506040513d601f19601f82011682018060405250810190614caa919061558e565b505b600101614bc6565b505f6040518060a0016040528087604051602001614cd291906150c4565b60408051601f19818403018152918152908252602082018a905281018790526060016001866001811115614d0857614d0861605e565b14614d13575f614d15565b8b5b6001600160a01b03168152602001614d3d6040518060200160405280622dc6c081525061395f565b90526040516320487ded60e01b81529091505f906001600160a01b038d16906320487ded90614d72908c908690600401616072565b602060405180830381865afa158015614d8d573d5f803e3d5ffd5b505050506040513d601f19601f82011682018060405250810190614db191906155c8565b90505f6001866001811115614dc857614dc861605e565b03614e42576040516396f4e9f960e01b81526001600160a01b038e16906396f4e9f990614dfb908d908790600401616072565b6020604051808303815f875af1158015614e17573d5f803e3d5ffd5b505050506040513d601f19601f82011682018060405250810190614e3b91906155c8565b9050614eb6565b6040516396f4e9f960e01b81526001600160a01b038e16906396f4e9f9908490614e72908e908890600401616072565b60206040518083038185885af1158015614e8e573d5f803e3d5ffd5b50505050506040513d601f19601f82011682018060405250810190614eb391906155c8565b90505b9c9b505050505050505050505050565b828054828255905f5260205f20908101928215614f19579160200282015b82811115614f1957825182546001600160a01b0319166001600160a01b03909116178255602090920191600190910190614ee4565b50614f25929150614fc9565b5090565b828054828255905f5260205f2090600901600a90048101928215614f19579160200282015f5b83821115614f9157835183826101000a81548162ffffff021916908362ffffff1602179055509260200192600301602081600201049283019260010302614f4f565b8015614fc05782816101000a81549062ffffff0219169055600301602081600201049283019260010302614f91565b5050614f259291505b5b80821115614f25575f8155600101614fca565b5f60208284031215614fed575f80fd5b81356001600160e01b03198116811461162d575f80fd5b6001600160401b03811681146115a2575f80fd5b803561502381615004565b919050565b6001600160a01b03811681146115a2575f80fd5b5f805f805f60a08688031215615050575f80fd5b853561505b81615004565b9450602086013561506b81615028565b9350604086013561507b81615028565b9250606086013561508b81615028565b9150608086013561509b81615028565b809150509295509295909350565b5f602082840312156150b9575f80fd5b813561162d81615004565b6001600160a01b0391909116815260200190565b5f602082840312156150e8575f80fd5b5035919050565b5f8060408385031215615100575f80fd5b50508035926020909101359150565b5f6020828403121561511f575f80fd5b813560ff8116811461162d575f80fd5b634e487b7160e01b5f52604160045260245ffd5b604080519081016001600160401b03811182821017156151655761516561512f565b60405290565b60405160a081016001600160401b03811182821017156151655761516561512f565b604051601f8201601f191681016001600160401b03811182821017156151b5576151b561512f565b604052919050565b5f6001600160401b038211156151d5576151d561512f565b5060051b60200190565b5f82601f8301126151ee575f80fd5b81356152016151fc826151bd565b61518d565b8082825260208201915060208360051b860101925085831115615222575f80fd5b602085015b8381101561524857803561523a81615028565b835260209283019201615227565b5095945050505050565b62ffffff811681146115a2575f80fd5b5f82601f830112615271575f80fd5b813561527f6151fc826151bd565b8082825260208201915060208360051b8601019250858311156152a0575f80fd5b602085015b838110156152485780356152b881615252565b8352602092830192016152a5565b5f805f805f60a086880312156152da575f80fd5b853594506020860135935060408601356152f381615028565b925060608601356001600160401b0381111561530d575f80fd5b615319888289016151df565b92505060808601356001600160401b03811115615334575f80fd5b61534088828901615262565b9150509295509295909350565b5f6020828403121561535d575f80fd5b81356001600160401b03811115615372575f80fd5b820160a0818503121561162d575f80fd5b5f60208284031215615393575f80fd5b813561162d81615028565b5f6001600160401b038211156153b6576153b661512f565b50601f01601f191660200190565b5f82601f8301126153d3575f80fd5b81356153e16151fc8261539e565b8181528460208386010111156153f5575f80fd5b816020850160208301375f918101602001919091529392505050565b5f805f8060808587031215615424575f80fd5b843561542f81615004565b9350602085013561543f81615028565b925060408501356001600160401b03811115615459575f80fd5b615465878288016153c4565b925050606085013560028110615479575f80fd5b939692955090935050565b5f805f805f60a08688031215615498575f80fd5b85356154a381615028565b945060208601356001600160401b038111156154bd575f80fd5b6154c9888289016151df565b94505060408601356001600160401b038111156154e4575f80fd5b6154f088828901615262565b9598949750949560608101359550608001359392505050565b5f805f6060848603121561551b575f80fd5b83356001600160401b03811115615530575f80fd5b61553c868287016151df565b93505060208401356001600160401b03811115615557575f80fd5b61556386828701615262565b93969395505050506040919091013590565b6001600160a01b03929092168252602082015260400190565b5f6020828403121561559e575f80fd5b8151801515811461162d575f80fd5b5f602082840312156155bd575f80fd5b815161162d81615028565b5f602082840312156155d8575f80fd5b5051919050565b60208082526026908201527f496e70757420616d6f756e74206d7573742062652067726561746572207468616040820152656e207a65726f60d01b606082015260800190565b634e487b7160e01b5f52601160045260245ffd5b8082018082111561080557610805615625565b602080825260139082015272119959481d1c985b9cd9995c8819985a5b1959606a1b604082015260600190565b5f6001820161568a5761568a615625565b5060010190565b8181038181111561080557610805615625565b6020808252818101527f416d6f756e74206d7573742062652067726561746572207468616e207a65726f604082015260600190565b808202811582820484141761080557610805615625565b5f8261570a57634e487b7160e01b5f52601260045260245ffd5b500490565b5f82601f83011261571e575f80fd5b815161572c6151fc826151bd565b8082825260208201915060208360051b86010192508583111561574d575f80fd5b602085015b8381101561524857805161576581615028565b835260209283019201615752565b5f82601f830112615782575f80fd5b81516157906151fc826151bd565b8082825260208201915060208360051b8601019250858311156157b1575f80fd5b602085015b838110156152485780518352602092830192016157b6565b5f805f606084860312156157e0575f80fd5b83516001600160401b038111156157f5575f80fd5b6158018682870161570f565b93505060208401516001600160401b0381111561581c575f80fd5b61582886828701615773565b92505060408401516001600160401b03811115615843575f80fd5b8401601f81018613615853575f80fd5b80516158616151fc826151bd565b8082825260208201915060208360051b850101925088831115615882575f80fd5b6020840193505b828410156158ad57835161589c81615004565b825260209384019390910190615889565b809450505050509250925092565b634e487b7160e01b5f52603260045260245ffd5b6001600160a01b0394909416845260208401929092526040830152606082015260800190565b5f82601f830112615904575f80fd5b81356159126151fc826151bd565b8082825260208201915060208360061b860101925085831115615933575f80fd5b602085015b83811015615248576040818803121561594f575f80fd5b615957615143565b813561596281615028565b8152602082810135818301529084529290920191604001615938565b5f60a0823603121561598e575f80fd5b61599661516b565b823581526159a660208401615018565b602082015260408301356001600160401b038111156159c3575f80fd5b6159cf368286016153c4565b60408301525060608301356001600160401b038111156159ed575f80fd5b6159f9368286016153c4565b60608301525060808301356001600160401b03811115615a17575f80fd5b615a23368286016158f5565b60808301525092915050565b5f60208284031215615a3f575f80fd5b815161162d81615252565b5f60208284031215615a5a575f80fd5b815161162d81615004565b5f8060408385031215615a76575f80fd5b82516001600160401b03811115615a8b575f80fd5b615a978582860161570f565b92505060208301516001600160401b03811115615ab2575f80fd5b8301601f81018513615ac2575f80fd5b8051615ad06151fc826151bd565b8082825260208201915060208360051b850101925087831115615af1575f80fd5b6020840193505b82841015615b1c578351615b0b81615252565b825260209384019390910190615af8565b809450505050509250929050565b5f8151808452602084019350602083015f5b82811015615b635781516001600160a01b0316865260209586019590910190600101615b3c565b5093949350505050565b606081525f615b7f6060830186615b2a565b82810360208401528085518083526020830191506020870192505f5b81811015615bbe57835162ffffff16835260209384019390920191600101615b9b565b505060409390930193909352509392505050565b60208082526030908201527f50726f706f7361626c654f776e61626c653a206e6577206f776e65722069732060408201526f746865207a65726f206164647265737360801b606082015260800190565b602080825260189082015277496e76616c6964207265636569766572206164647265737360401b604082015260600190565b6001600160a01b039384168152919092166020820152604081019190915260600190565b6020808252602b908201527f496e697469616c697a61626c653a20636f6e7472616374206973206e6f74206960408201526a6e697469616c697a696e6760a81b606082015260800190565b5f60208284031215615cd3575f80fd5b81516001600160401b03811115615ce8575f80fd5b611fd18482850161570f565b602081525f61162d6020830184615b2a565b5f82601f830112615d15575f80fd5b8151615d236151fc826151bd565b8082825260208201915060208360051b860101925085831115615d44575f80fd5b602085015b838110156152485780516001600160401b03811115615d66575f80fd5b8601603f81018813615d76575f80fd5b6020810151615d876151fc8261539e565b8181526040838301018a1015615d9b575f80fd5b8160408401602083015e5f60208383010152808652505050602083019250602081019050615d49565b5f60208284031215615dd4575f80fd5b81516001600160401b03811115615de9575f80fd5b611fd184828501615d06565b5f81518084528060208401602086015e5f602082860101526020601f19601f83011685010191505092915050565b5f82825180855260208501945060208160051b830101602085015f5b83811015615e7157601f19858403018852615e5b838351615df5565b6020988901989093509190910190600101615e3f565b50909695505050505050565b5f8151808452602084019350602083015f5b82811015615b63578151865260209586019590910190600101615e8f565b60ff8916815261010060208201525f615eca61010083018a615b2a565b8281036040840152615edc818a615b2a565b90508281036060840152615ef08189615e23565b90508281036080840152615f048188615e23565b90508560a084015282810360c0840152615f1e8186615e7d565b905082810360e0840152615f328185615e7d565b9b9a5050505050505050505050565b5f805f805f805f80610100898b031215615f59575f80fd5b885160208a01519098506001600160401b03811115615f76575f80fd5b615f828b828c0161570f565b97505060408901516001600160401b03811115615f9d575f80fd5b615fa98b828c0161570f565b96505060608901516001600160401b03811115615fc4575f80fd5b615fd08b828c01615d06565b95505060808901516001600160401b03811115615feb575f80fd5b615ff78b828c01615d06565b60a08b015160c08c0151919650945090506001600160401b0381111561601b575f80fd5b6160278b828c01615773565b92505060e08901516001600160401b03811115616042575f80fd5b61604e8b828c01615773565b9150509295985092959890939650565b634e487b7160e01b5f52602160045260245ffd5b6001600160401b0383168152604060208201525f825160a0604084015261609c60e0840182615df5565b90506020840151603f198483030160608501526160b98282615df5565b6040860151858203603f190160808701528051808352602091820194505f93509101905b8083101561611457835180516001600160a01b031683526020908101518184015290930192600192909201916040909101906160dd565b5060608601516001600160a01b031660a08601526080860151858203603f190160c0870152925061309a8184615df5565b5f60208284031215616155575f80fd5b81516001600160401b0381111561616a575f80fd5b611fd184828501615773565b602081525f825160a0602084015261619160c0840182615df5565b905060018060a01b0360208501511660408401526040840151606084015260608401516080840152608084015160a08401528091505092915050565b828152604060208201525f611fd16040830184615b2a565b85815284602082015260a060408201525f61620360a0830186615b2a565b6001600160a01b0394909416606083015250608001529392505050565b5f81518060208401855e5f93019283525090919050565b5f6162428286616220565b60609490941b6001600160601b0319168452505060e81b6001600160e81b0319166014820152601701919050565b5f61627b8285616220565b60609390931b6001600160601b0319168352505060140191905056fea2646970667358221220ab3697a99132b273298ae6a82de6644025699d4bb26be352faad77939a6d0d9264736f6c634300081a0033","linkReferences":{}},"methodIdentifiers":{"MAX_FEE_RATE()":"92f6576e","MAX_TOKENS_LENGTH()":"d28c00fc","MIN_FEE_RATE()":"58c0f10d","MIN_FEE_UPDATE_INTERVAL()":"c9172ef7","ccipReceive((bytes32,uint64,bytes,bytes,(address,uint256)[]))":"85572ffb","convertEthToUsd(uint256)":"c086381e","crossChainFactoryBySelector(uint64)":"340fbc74","crossChainToken(uint64)":"19da7e2a","crossChainTokenSwapFee(uint64)":"9ff73f45","currentChainSelector()":"3d54cb6f","factoryStorage()":"c06e1ae2","feeRate()":"978bbdb9","feeReceiver()":"b3f00674","getAmountOut(address[],uint24[],uint256)":"dfbd3897","getPortfolioBalance()":"a8509fd8","getRouter()":"b0f479a1","i_link()":"7d253aff","indexToken()":"e7d015f2","initialize(uint64,address,address,address,address)":"16b487ff","issuanceData(uint256)":"2d6fc6b3","issuanceIndexTokens(address,address[],uint24[],uint256,uint256)":"ce4793e1","issuanceIndexTokensWithEth(uint256,uint256)":"41d11817","issuanceNonce()":"9dbb9c9e","latestFeeUpdate()":"011ced5f","owner()":"8da5cb5b","priceInWei()":"3c8da588","proposeOwner(address)":"b5ed298a","proposedOwner()":"d153b60c","redemption(uint256,uint256,address,address[],uint24[])":"63377733","redemptionData(uint256)":"aa4379c0","redemptionNonce()":"84d77bb1","renounceOwnership()":"715018a6","sendMessage(uint64,address,bytes,uint8)":"bcab90b3","setFeeRate(uint8)":"5177942a","setFeeReceiver(address)":"efdcd974","setIndexFactoryStorage(address)":"cc8659ae","supportsInterface(bytes4)":"01ffc9a7","transferOwnership(address)":"f2fde38b","weth()":"3fc8cef3"},"id":5}