{"abi":[{"type":"receive","stateMutability":"payable"},{"type":"function","name":"MAX_FEE_RATE","inputs":[],"outputs":[{"name":"","type":"uint8","internalType":"uint8"}],"stateMutability":"view"},{"type":"function","name":"MAX_TOKENS_LENGTH","inputs":[],"outputs":[{"name":"","type":"uint16","internalType":"uint16"}],"stateMutability":"view"},{"type":"function","name":"MIN_FEE_RATE","inputs":[],"outputs":[{"name":"","type":"uint8","internalType":"uint8"}],"stateMutability":"view"},{"type":"function","name":"MIN_FEE_UPDATE_INTERVAL","inputs":[],"outputs":[{"name":"","type":"uint256","internalType":"uint256"}],"stateMutability":"view"},{"type":"function","name":"ccipReceive","inputs":[{"name":"message","type":"tuple","internalType":"struct Client.Any2EVMMessage","components":[{"name":"messageId","type":"bytes32","internalType":"bytes32"},{"name":"sourceChainSelector","type":"uint64","internalType":"uint64"},{"name":"sender","type":"bytes","internalType":"bytes"},{"name":"data","type":"bytes","internalType":"bytes"},{"name":"destTokenAmounts","type":"tuple[]","internalType":"struct Client.EVMTokenAmount[]","components":[{"name":"token","type":"address","internalType":"address"},{"name":"amount","type":"uint256","internalType":"uint256"}]}]}],"outputs":[],"stateMutability":"nonpayable"},{"type":"function","name":"convertEthToUsd","inputs":[{"name":"_ethAmount","type":"uint256","internalType":"uint256"}],"outputs":[{"name":"","type":"uint256","internalType":"uint256"}],"stateMutability":"view"},{"type":"function","name":"crossChainFactoryBySelector","inputs":[{"name":"_chainSelector","type":"uint64","internalType":"uint64"}],"outputs":[{"name":"","type":"address","internalType":"address"}],"stateMutability":"view"},{"type":"function","name":"crossChainToken","inputs":[{"name":"_chainSelector","type":"uint64","internalType":"uint64"}],"outputs":[{"name":"","type":"address","internalType":"address"}],"stateMutability":"view"},{"type":"function","name":"crossChainTokenSwapVersion","inputs":[{"name":"_chainSelector","type":"uint64","internalType":"uint64"}],"outputs":[{"name":"","type":"uint256","internalType":"uint256"}],"stateMutability":"view"},{"type":"function","name":"currentChainSelector","inputs":[],"outputs":[{"name":"","type":"uint64","internalType":"uint64"}],"stateMutability":"view"},{"type":"function","name":"estimateAmountOut","inputs":[{"name":"tokenIn","type":"address","internalType":"address"},{"name":"tokenOut","type":"address","internalType":"address"},{"name":"amountIn","type":"uint128","internalType":"uint128"}],"outputs":[{"name":"amountOut","type":"uint256","internalType":"uint256"}],"stateMutability":"view"},{"type":"function","name":"feeRate","inputs":[],"outputs":[{"name":"","type":"uint8","internalType":"uint8"}],"stateMutability":"view"},{"type":"function","name":"feeReceiver","inputs":[],"outputs":[{"name":"","type":"address","internalType":"address"}],"stateMutability":"view"},{"type":"function","name":"getAmountOut","inputs":[{"name":"tokenIn","type":"address","internalType":"address"},{"name":"tokenOut","type":"address","internalType":"address"},{"name":"amountIn","type":"uint256","internalType":"uint256"},{"name":"_swapVersion","type":"uint256","internalType":"uint256"}],"outputs":[{"name":"finalAmountOut","type":"uint256","internalType":"uint256"}],"stateMutability":"view"},{"type":"function","name":"getPortfolioBalance","inputs":[],"outputs":[{"name":"","type":"uint256","internalType":"uint256"}],"stateMutability":"view"},{"type":"function","name":"getRouter","inputs":[],"outputs":[{"name":"","type":"address","internalType":"address"}],"stateMutability":"view"},{"type":"function","name":"i_link","inputs":[],"outputs":[{"name":"","type":"address","internalType":"address"}],"stateMutability":"view"},{"type":"function","name":"indexFactoryStorage","inputs":[],"outputs":[{"name":"","type":"address","internalType":"contract IndexFactoryStorage"}],"stateMutability":"view"},{"type":"function","name":"indexToken","inputs":[],"outputs":[{"name":"","type":"address","internalType":"contract IndexToken"}],"stateMutability":"view"},{"type":"function","name":"initialize","inputs":[{"name":"_currentChainSelector","type":"uint64","internalType":"uint64"},{"name":"_token","type":"address","internalType":"address payable"},{"name":"_chainlinkToken","type":"address","internalType":"address"},{"name":"_router","type":"address","internalType":"address"},{"name":"_weth","type":"address","internalType":"address"}],"outputs":[],"stateMutability":"nonpayable"},{"type":"function","name":"issuanceData","inputs":[{"name":"","type":"uint256","internalType":"uint256"}],"outputs":[{"name":"completedTokensCount","type":"uint256","internalType":"uint256"},{"name":"requester","type":"address","internalType":"address"},{"name":"inputAmount","type":"uint256","internalType":"uint256"},{"name":"inputToken","type":"address","internalType":"address"},{"name":"messageId","type":"bytes32","internalType":"bytes32"}],"stateMutability":"view"},{"type":"function","name":"issuanceIndexTokens","inputs":[{"name":"_tokenIn","type":"address","internalType":"address"},{"name":"_inputAmount","type":"uint256","internalType":"uint256"},{"name":"_crossChainFee","type":"uint256","internalType":"uint256"},{"name":"_tokenInSwapVersion","type":"uint256","internalType":"uint256"}],"outputs":[],"stateMutability":"nonpayable"},{"type":"function","name":"issuanceIndexTokensWithEth","inputs":[{"name":"_inputAmount","type":"uint256","internalType":"uint256"},{"name":"_crossChainFee","type":"uint256","internalType":"uint256"}],"outputs":[],"stateMutability":"payable"},{"type":"function","name":"issuanceNonce","inputs":[],"outputs":[{"name":"","type":"uint256","internalType":"uint256"}],"stateMutability":"view"},{"type":"function","name":"latestFeeUpdate","inputs":[],"outputs":[{"name":"","type":"uint256","internalType":"uint256"}],"stateMutability":"view"},{"type":"function","name":"owner","inputs":[],"outputs":[{"name":"","type":"address","internalType":"address"}],"stateMutability":"view"},{"type":"function","name":"priceInWei","inputs":[],"outputs":[{"name":"","type":"uint256","internalType":"uint256"}],"stateMutability":"view"},{"type":"function","name":"proposeOwner","inputs":[{"name":"_proposedOwner","type":"address","internalType":"address"}],"outputs":[],"stateMutability":"nonpayable"},{"type":"function","name":"proposedOwner","inputs":[],"outputs":[{"name":"","type":"address","internalType":"address"}],"stateMutability":"view"},{"type":"function","name":"redemption","inputs":[{"name":"amountIn","type":"uint256","internalType":"uint256"},{"name":"_crossChainFee","type":"uint256","internalType":"uint256"},{"name":"_tokenOut","type":"address","internalType":"address"},{"name":"_tokenOutSwapVersion","type":"uint256","internalType":"uint256"}],"outputs":[],"stateMutability":"nonpayable"},{"type":"function","name":"redemptionData","inputs":[{"name":"","type":"uint256","internalType":"uint256"}],"outputs":[{"name":"totalValue","type":"uint256","internalType":"uint256"},{"name":"completedTokensCount","type":"uint256","internalType":"uint256"},{"name":"requester","type":"address","internalType":"address"},{"name":"outputToken","type":"address","internalType":"address"},{"name":"outputTokenSwapVersion","type":"uint256","internalType":"uint256"},{"name":"inputAmount","type":"uint256","internalType":"uint256"},{"name":"messageId","type":"bytes32","internalType":"bytes32"}],"stateMutability":"view"},{"type":"function","name":"redemptionNonce","inputs":[],"outputs":[{"name":"","type":"uint256","internalType":"uint256"}],"stateMutability":"view"},{"type":"function","name":"renounceOwnership","inputs":[],"outputs":[],"stateMutability":"nonpayable"},{"type":"function","name":"sendMessage","inputs":[{"name":"destinationChainSelector","type":"uint64","internalType":"uint64"},{"name":"receiver","type":"address","internalType":"address"},{"name":"_data","type":"bytes","internalType":"bytes"},{"name":"payFeesIn","type":"uint8","internalType":"enum IndexFactory.PayFeesIn"}],"outputs":[{"name":"","type":"bytes32","internalType":"bytes32"}],"stateMutability":"nonpayable"},{"type":"function","name":"setFeeRate","inputs":[{"name":"_newFee","type":"uint8","internalType":"uint8"}],"outputs":[],"stateMutability":"nonpayable"},{"type":"function","name":"setFeeReceiver","inputs":[{"name":"_feeReceiver","type":"address","internalType":"address"}],"outputs":[],"stateMutability":"nonpayable"},{"type":"function","name":"setIndexFactoryStorage","inputs":[{"name":"_indexFactoryStorage","type":"address","internalType":"address"}],"outputs":[],"stateMutability":"nonpayable"},{"type":"function","name":"supportsInterface","inputs":[{"name":"interfaceId","type":"bytes4","internalType":"bytes4"}],"outputs":[{"name":"","type":"bool","internalType":"bool"}],"stateMutability":"pure"},{"type":"function","name":"transferOwnership","inputs":[{"name":"newOwner","type":"address","internalType":"address"}],"outputs":[],"stateMutability":"nonpayable"},{"type":"function","name":"weth","inputs":[],"outputs":[{"name":"","type":"address","internalType":"contract IWETH"}],"stateMutability":"view"},{"type":"event","name":"Initialized","inputs":[{"name":"version","type":"uint8","indexed":false,"internalType":"uint8"}],"anonymous":false},{"type":"event","name":"Issuanced","inputs":[{"name":"messageId","type":"bytes32","indexed":true,"internalType":"bytes32"},{"name":"nonce","type":"uint256","indexed":true,"internalType":"uint256"},{"name":"user","type":"address","indexed":true,"internalType":"address"},{"name":"inputToken","type":"address","indexed":false,"internalType":"address"},{"name":"inputAmount","type":"uint256","indexed":false,"internalType":"uint256"},{"name":"outputAmount","type":"uint256","indexed":false,"internalType":"uint256"},{"name":"time","type":"uint256","indexed":false,"internalType":"uint256"}],"anonymous":false},{"type":"event","name":"MessageSent","inputs":[{"name":"messageId","type":"bytes32","indexed":false,"internalType":"bytes32"}],"anonymous":false},{"type":"event","name":"OwnershipTransferred","inputs":[{"name":"previousOwner","type":"address","indexed":true,"internalType":"address"},{"name":"newOwner","type":"address","indexed":true,"internalType":"address"}],"anonymous":false},{"type":"event","name":"Redemption","inputs":[{"name":"messageId","type":"bytes32","indexed":true,"internalType":"bytes32"},{"name":"nonce","type":"uint256","indexed":true,"internalType":"uint256"},{"name":"user","type":"address","indexed":true,"internalType":"address"},{"name":"outputToken","type":"address","indexed":false,"internalType":"address"},{"name":"inputAmount","type":"uint256","indexed":false,"internalType":"uint256"},{"name":"outputAmount","type":"uint256","indexed":false,"internalType":"uint256"},{"name":"time","type":"uint256","indexed":false,"internalType":"uint256"}],"anonymous":false},{"type":"event","name":"RequestIssuance","inputs":[{"name":"messageId","type":"bytes32","indexed":true,"internalType":"bytes32"},{"name":"nonce","type":"uint256","indexed":true,"internalType":"uint256"},{"name":"user","type":"address","indexed":true,"internalType":"address"},{"name":"inputToken","type":"address","indexed":false,"internalType":"address"},{"name":"inputAmount","type":"uint256","indexed":false,"internalType":"uint256"},{"name":"outputAmount","type":"uint256","indexed":false,"internalType":"uint256"},{"name":"time","type":"uint256","indexed":false,"internalType":"uint256"}],"anonymous":false},{"type":"event","name":"RequestRedemption","inputs":[{"name":"messageId","type":"bytes32","indexed":true,"internalType":"bytes32"},{"name":"nonce","type":"uint256","indexed":true,"internalType":"uint256"},{"name":"user","type":"address","indexed":true,"internalType":"address"},{"name":"outputToken","type":"address","indexed":false,"internalType":"address"},{"name":"inputAmount","type":"uint256","indexed":false,"internalType":"uint256"},{"name":"outputAmount","type":"uint256","indexed":false,"internalType":"uint256"},{"name":"time","type":"uint256","indexed":false,"internalType":"uint256"}],"anonymous":false},{"type":"error","name":"InvalidRouter","inputs":[{"name":"router","type":"address","internalType":"address"}]}],"bytecode":{"object":"0x608060405234801561001057600080fd5b506151ed806100206000396000f3fe60806040526004361061023f5760003560e01c80638da5cb5b1161012e578063bcab90b3116100ab578063d1f7a9911161006f578063d1f7a9911461079f578063d28c00fc146107bf578063e7d015f2146107e7578063efdcd97414610807578063f2fde38b1461082757600080fd5b8063bcab90b314610709578063c086381e14610729578063c9172ef714610749578063cc8659ae1461075f578063d153b60c1461077f57600080fd5b8063a8509fd8116100f2578063a8509fd8146105eb578063aa4379c014610600578063b0f479a1146106a5578063b3f00674146106c9578063b5ed298a146106e957600080fd5b80638da5cb5b1461056157806392f6576e1461057f578063978bbdb9146105945780639ad1c356146105b55780639dbb9c9e146105d557600080fd5b80633c8da588116101bc57806358c0f10d1161018057806358c0f10d146104cf578063715018a6146104f65780637d253aff1461050b57806384d77bb11461052b57806385572ffb1461054157600080fd5b80633c8da588146104285780633d54cb6f1461043d5780633fc8cef31461047557806341d118171461049c5780635177942a146104af57600080fd5b806316b487ff1161020357806316b487ff1461030657806319da7e2a146103265780632d6fc6b31461035e578063326f6fb2146103e8578063340fbc741461040857600080fd5b8063011ced5f1461024b57806301ffc9a7146102745780630456f9c8146102a457806309445ad4146102c457806313cb1f83146102e657600080fd5b3661024657005b600080fd5b34801561025757600080fd5b5061026160cd5481565b6040519081526020015b60405180910390f35b34801561028057600080fd5b5061029461028f366004614965565b610847565b604051901515815260200161026b565b3480156102b057600080fd5b506102616102bf3660046147ea565b61087e565b3480156102d057600080fd5b506102e46102df366004614ac2565b61091a565b005b3480156102f257600080fd5b50610261610301366004614841565b610d63565b34801561031257600080fd5b506102e4610321366004614b3b565b610df3565b34801561033257600080fd5b50610346610341366004614b01565b611049565b6040516001600160a01b03909116815260200161026b565b34801561036a57600080fd5b506103b66103793660046149c9565b60d2602052600090815260409020600181015460028201546003830154600484015460059094015492936001600160a01b03928316939192169085565b604080519586526001600160a01b0394851660208701528501929092529091166060830152608082015260a00161026b565b3480156103f457600080fd5b50610261610403366004614b01565b6110cf565b34801561041457600080fd5b50610346610423366004614b01565b611170565b34801561043457600080fd5b506102616111aa565b34801561044957600080fd5b5060ce5461045d906001600160401b031681565b6040516001600160401b03909116815260200161026b565b34801561048157600080fd5b5060ce5461034690600160401b90046001600160a01b031681565b6102e46104aa366004614aa0565b61122c565b3480156104bb57600080fd5b506102e46104ca366004614c24565b611437565b3480156104db57600080fd5b506104e4600181565b60405160ff909116815260200161026b565b34801561050257600080fd5b506102e4611568565b34801561051757600080fd5b5060cb54610346906001600160a01b031681565b34801561053757600080fd5b5061026160d05481565b34801561054d57600080fd5b506102e461055c36600461498f565b61157c565b34801561056d57600080fd5b506033546001600160a01b0316610346565b34801561058b57600080fd5b506104e4606481565b3480156105a057600080fd5b5060cc546104e490600160a01b900460ff1681565b3480156105c157600080fd5b506102e46105d0366004614887565b6115c3565b3480156105e157600080fd5b5061026160cf5481565b3480156105f757600080fd5b506102616117ff565b34801561060c57600080fd5b5061066461061b3660046149c9565b60d3602052600090815260409020805460018201546002830154600384015460048501546005860154600690960154949593946001600160a01b03938416949390921692909187565b6040805197885260208801969096526001600160a01b0394851695870195909552929091166060850152608084015260a083015260c082015260e00161026b565b3480156106b157600080fd5b506000546201000090046001600160a01b0316610346565b3480156106d557600080fd5b5060d154610346906001600160a01b031681565b3480156106f557600080fd5b506102e46107043660046147b0565b611c18565b34801561071557600080fd5b50610261610724366004614bac565b611c68565b34801561073557600080fd5b506102616107443660046149c9565b611c8f565b34801561075557600080fd5b5061026161a8c081565b34801561076b57600080fd5b506102e461077a3660046147b0565b611cb6565b34801561078b57600080fd5b50606554610346906001600160a01b031681565b3480156107ab57600080fd5b5060ca54610346906001600160a01b031681565b3480156107cb57600080fd5b506107d4600581565b60405161ffff909116815260200161026b565b3480156107f357600080fd5b5060cc54610346906001600160a01b031681565b34801561081357600080fd5b506102e46108223660046147b0565b611ce0565b34801561083357600080fd5b506102e46108423660046147b0565b611d0a565b60006001600160e01b031982166385572ffb60e01b148061087857506001600160e01b031982166301ffc9a760e01b145b92915050565b60ca54604051628adf3960e31b81526001600160a01b03858116600483015284811660248301526001600160801b03841660448301526000921690630456f9c89060640160206040518083038186803b1580156108da57600080fd5b505afa1580156108ee573d6000803e3d6000fd5b505050506040513d601f19601f82011682018060405250810190610912919061494c565b949350505050565b60cc54604080516318160ddd60e01b815290516000926001600160a01b0316916318160ddd916004808301926020929190829003018186803b15801561095f57600080fd5b505afa158015610973573d6000803e3d6000fd5b505050506040513d601f19601f82011682018060405250810190610997919061494c565b6109a986670de0b6b3a7640000615038565b6109b39190615016565b9050600160d060008282546109c89190614ffe565b909155505060d08054600090815260d3602052604080822060020180546001600160a01b0319908116339081179092558454845282842060030180546001600160a01b038a811691909316179055845484528284206004908101889055945484529282902060050189905560cc549151632770a7eb60e21b815293840152602483018890521690639dc29fac90604401600060405180830381600087803b158015610a7257600080fd5b505af1158015610a86573d6000803e3d6000fd5b50505050600060ca60009054906101000a90046001600160a01b03166001600160a01b03166369487b1c6040518163ffffffff1660e01b815260040160206040518083038186803b158015610ada57600080fd5b505afa158015610aee573d6000803e3d6000fd5b505050506040513d601f19601f82011682018060405250810190610b12919061494c565b9050600060ca60009054906101000a90046001600160a01b03166001600160a01b031663b90b8a2a6040518163ffffffff1660e01b815260040160206040518083038186803b158015610b6457600080fd5b505afa158015610b78573d6000803e3d6000fd5b505050506040513d601f19601f82011682018060405250810190610b9c919061494c565b905060005b82811015610d045760ca54604051636dab0c9160e11b815260048101849052602481018390526000916001600160a01b03169063db5619229060440160206040518083038186803b158015610bf557600080fd5b505afa158015610c09573d6000803e3d6000fd5b505050506040513d601f19601f82011682018060405250810190610c2d9190614b1e565b60ca54604051637e34c5a560e11b81526001600160401b03831660048201529192506000916001600160a01b039091169063fc698b4a9060240160206040518083038186803b158015610c7f57600080fd5b505afa158015610c93573d6000803e3d6000fd5b505050506040513d601f19601f82011682018060405250810190610cb7919061494c565b60ce549091506001600160401b0383811691161415610ce257610cdd8660d05483611e2f565b610cef565b610cef8660d0548461208e565b50508080610cfc9061511a565b915050610ba1565b5060d054600081815260d360205260408082206006015490513393927f4f9e9bfb3670784096375593cb821e86bd88b1fcb08efc38330012d8c33c3e3691610d52918b918e91904290614d31565b60405180910390a450505050505050565b60ca546040516313cb1f8360e01b81526000916001600160a01b0316906313cb1f8390610d9a908890889088908890600401614d08565b60206040518083038186803b158015610db257600080fd5b505afa158015610dc6573d6000803e3d6000fd5b505050506040513d601f19601f82011682018060405250810190610dea919061494c565b95945050505050565b600054610100900460ff1615808015610e135750600054600160ff909116105b80610e2d5750303b158015610e2d575060005460ff166001145b610e955760405162461bcd60e51b815260206004820152602e60248201527f496e697469616c697a61626c653a20636f6e747261637420697320616c72656160448201526d191e481a5b9a5d1a585b1a5e995960921b60648201526084015b60405180910390fd5b6000805460ff191660011790558015610eb8576000805461ff0019166101001790555b610ec183612301565b610ec961237c565b610ed16123ab565b610ed96123d6565b60ce80546001600160401b03881667ffffffffffffffff1990911617905560cc80546001600160a01b038781166001600160a01b03199283161790925560cb805487841692168217905560005460405163095ea7b360e01b815262010000909104909216600483015260001960248301529063095ea7b390604401602060405180830381600087803b158015610f6e57600080fd5b505af1158015610f82573d6000803e3d6000fd5b505050506040513d601f19601f82011682018060405250810190610fa6919061492a565b5060ce805468010000000000000000600160e01b031916600160401b6001600160a01b0385160217905560cc805460ff60a01b1916600560a11b1790554260cd5560d18054336001600160a01b03199091161790558015611041576000805461ff0019169055604051600181527f7f26b83ff96e1f2b6a682f133852f6798a09c465da95921460cefb38474024989060200160405180910390a15b505050505050565b60ca54604051630ced3f1560e11b81526001600160401b03831660048201526000916001600160a01b0316906319da7e2a906024015b60206040518083038186803b15801561109757600080fd5b505afa1580156110ab573d6000803e3d6000fd5b505050506040513d601f19601f8201168201806040525081019061087891906147cd565b6000806110db83611049565b60ca54604051630174cbe560e41b81526001600160401b03861660048201526001600160a01b03808416602483015292935091169063174cbe509060440160206040518083038186803b15801561113157600080fd5b505afa158015611145573d6000803e3d6000fd5b505050506040513d601f19601f82011682018060405250810190611169919061494c565b9392505050565b60ca54604051630d03ef1d60e21b81526001600160401b03831660048201526000916001600160a01b03169063340fbc749060240161107f565b60ca5460408051630791b4b160e31b815290516000926001600160a01b031691633c8da588916004808301926020929190829003018186803b1580156111ef57600080fd5b505afa158015611203573d6000803e3d6000fd5b505050506040513d601f19601f82011682018060405250810190611227919061494c565b905090565b60006112478360cc60149054906101000a900460ff16612404565b90506000826112568386614ffe565b6112609190614ffe565b9050803410156112b25760405162461bcd60e51b815260206004820152601a60248201527f6c6f776572207468616e20726571756972656420616d6f756e740000000000006044820152606401610e8c565b60ce60089054906101000a90046001600160a01b03166001600160a01b031663d0e30db0826040518263ffffffff1660e01b81526004016000604051808303818588803b15801561130257600080fd5b505af1158015611316573d6000803e3d6000fd5b505060ce5460d15460405163a9059cbb60e01b81526001600160a01b03918216600482015260248101889052600160401b90920416935063a9059cbb92506044019050602060405180830381600087803b15801561137357600080fd5b505af1158015611387573d6000803e3d6000fd5b505050506040513d601f19601f820116820180604052508101906113ab919061492a565b5060cf80549060006113bc8361511a565b909155505060cf8054600090815260d260205260408082206002018054336001600160a01b0319918216179091558354835281832060030188905560ce8054945484529190922060040180546001600160a01b03600160401b9586900481169190941617905554611431929004168585612420565b50505050565b61143f61278d565b61a8c060cd54426114509190615057565b10156114c45760405162461bcd60e51b815260206004820152603960248201527f596f752073686f756c642077616974206174206c6561737420313220686f757260448201527f7320616674657220746865206c617465737420757064617465000000000000006064820152608401610e8c565b606460ff8216118015906114dc5750600160ff821610155b6115445760405162461bcd60e51b815260206004820152603360248201527f546865206e65774665652073686f756c64206265206265747765656e203120616044820152726e64203130302028302e303125202d2031252960681b6064820152608401610e8c565b60cc805460ff909216600160a01b0260ff60a01b199092169190911790554260cd55565b61157061278d565b61157a60006127e7565b565b6000546201000090046001600160a01b031633146115af576040516335fdcccd60e21b8152336004820152602401610e8c565b6115c06115bb8261506e565b612839565b50565b60006115de8460cc60149054906101000a900460ff16612404565b60cc549091506001600160a01b03808716916323b872dd913391166116038589614ffe565b6040516001600160e01b031960e086901b1681526001600160a01b0393841660048201529290911660248301526044820152606401602060405180830381600087803b15801561165257600080fd5b505af1158015611666573d6000803e3d6000fd5b505050506040513d601f19601f8201168201806040525081019061168a919061492a565b5060ce546000906116b8908790600160401b90046001600160a01b03166116b18589614ffe565b308761292d565b60cc54909150600090612710906116d990600160a01b900460ff1684615038565b6116e39190615016565b905060006116f18284615057565b60ce5460d15460405163a9059cbb60e01b81526001600160a01b03918216600482015260248101869052929350600160401b909104169063a9059cbb90604401602060405180830381600087803b15801561174b57600080fd5b505af115801561175f573d6000803e3d6000fd5b505050506040513d601f19601f82011682018060405250810190611783919061492a565b5060cf80549060006117948361511a565b909155505060cf8054600090815260d260205260408082206002018054336001600160a01b031991821617909155835483528183206003018b905592548252902060040180549091166001600160a01b038a161790556117f5888288612420565b5050505050505050565b600080600060ca60009054906101000a90046001600160a01b03166001600160a01b03166353fd43326040518163ffffffff1660e01b815260040160206040518083038186803b15801561185257600080fd5b505afa158015611866573d6000803e3d6000fd5b505050506040513d601f19601f8201168201806040525081019061188a919061494c565b905060005b81811015611c105760ca5460405163264cae9360e21b8152600481018390526000916001600160a01b031690639932ba4c9060240160206040518083038186803b1580156118dc57600080fd5b505afa1580156118f0573d6000803e3d6000fd5b505050506040513d601f19601f8201168201806040525081019061191491906147cd565b60ca54604051633aa3b3c160e21b81526001600160a01b0380841660048301529293506000929091169063ea8ecf049060240160206040518083038186803b15801561195f57600080fd5b505afa158015611973573d6000803e3d6000fd5b505050506040513d601f19601f820116820180604052508101906119979190614b1e565b60ca5460405163d90bc21160e01b81526001600160a01b0385811660048301529293506000929091169063d90bc2119060240160206040518083038186803b1580156119e257600080fd5b505afa1580156119f6573d6000803e3d6000fd5b505050506040513d601f19601f82011682018060405250810190611a1a919061494c565b60ce549091506001600160401b0383811691161415611bfa5760ce546001600160a01b03848116600160401b909204161415611ade5760cc546040516370a0823160e01b81526001600160a01b039182166004820152908416906370a082319060240160206040518083038186803b158015611a9557600080fd5b505afa158015611aa9573d6000803e3d6000fd5b505050506040513d601f19601f82011682018060405250810190611acd919061494c565b611ad79087614ffe565b9550611bfa565b60ca5460ce5460cc546040516370a0823160e01b81526001600160a01b0391821660048201526000938216926313cb1f83928892600160401b909204811691908316906370a082319060240160206040518083038186803b158015611b4257600080fd5b505afa158015611b56573d6000803e3d6000fd5b505050506040513d601f19601f82011682018060405250810190611b7a919061494c565b866040518563ffffffff1660e01b8152600401611b9a9493929190614d08565b60206040518083038186803b158015611bb257600080fd5b505afa158015611bc6573d6000803e3d6000fd5b505050506040513d601f19601f82011682018060405250810190611bea919061494c565b9050611bf68188614ffe565b9650505b5050508080611c089061511a565b91505061188f565b509092915050565b611c2061278d565b6001600160a01b038116611c465760405162461bcd60e51b8152600401610e8c90614ded565b606580546001600160a01b0319166001600160a01b0392909216919091179055565b6000805460cb54610dea916001600160a01b03620100009091048116911687878787612a7f565b6000670de0b6b3a7640000611ca26111aa565b611cac9084615038565b6108789190615016565b611cbe61278d565b60ca80546001600160a01b0319166001600160a01b0392909216919091179055565b611ce861278d565b60d180546001600160a01b0319166001600160a01b0392909216919091179055565b6001600160a01b038116611d305760405162461bcd60e51b8152600401610e8c90614ded565b6065546001600160a01b03828116911614611da85760405162461bcd60e51b815260206004820152603260248201527f50726f706f7361626c654f776e61626c653a206e6577206f776e6572206973206044820152713737ba10383937b837b9b2b21037bbb732b960711b6064820152608401610e8c565b6001600160a01b0381163314611e265760405162461bcd60e51b815260206004820152603a60248201527f50726f706f7361626c654f776e61626c653a20746869732063616c6c206d757360448201527f74206265206d61646520627920746865206e6577206f776e65720000000000006064820152608401610e8c565b6115c0816127e7565b60005b818110156114315760ca5460405163264cae9360e21b8152600481018390526000916001600160a01b031690639932ba4c9060240160206040518083038186803b158015611e7f57600080fd5b505afa158015611e93573d6000803e3d6000fd5b505050506040513d601f19601f82011682018060405250810190611eb791906147cd565b60ca5460405163d90bc21160e01b81526001600160a01b0380841660048301529293506000929091169063d90bc2119060240160206040518083038186803b158015611f0257600080fd5b505afa158015611f16573d6000803e3d6000fd5b505050506040513d601f19601f82011682018060405250810190611f3a919061494c565b60cc546040516370a0823160e01b81526001600160a01b039182166004820152919250600091670de0b6b3a7640000918516906370a082319060240160206040518083038186803b158015611f8e57600080fd5b505afa158015611fa2573d6000803e3d6000fd5b505050506040513d601f19601f82011682018060405250810190611fc6919061494c565b611fd09089615038565b611fda9190615016565b60ce549091506000906001600160a01b03858116600160401b90920416146120225760ce5461201d908590600160401b90046001600160a01b031684308761292d565b612024565b815b600088815260d36020526040812080549293508392909190612047908490614ffe565b9091555050600087815260d3602052604081206001908101805491929091612070908490614ffe565b925050819055505050505080806120869061511a565b915050611e32565b600061209982611170565b60ca5460405163d1c68aa360e01b81526001600160401b03851660048201529192506000916001600160a01b039091169063d1c68aa39060240160006040518083038186803b1580156120eb57600080fd5b505afa1580156120ff573d6000803e3d6000fd5b505050506040513d6000823e601f3d908101601f1916820160405261212791908101906148c2565b60ca5460405163221f337160e01b81526001600160401b03861660048201529192506000916001600160a01b039091169063221f33719060240160006040518083038186803b15801561217957600080fd5b505afa15801561218d573d6000803e3d6000fd5b505050506040513d6000823e601f3d908101601f191682016040526121b591908101906148f6565b60ca54604051632bda5acd60e21b81526001600160401b03871660048201529192506000916001600160a01b039091169063af696b349060240160006040518083038186803b15801561220757600080fd5b505afa15801561221b573d6000803e3d6000fd5b505050506040513d6000823e601f3d908101601f1916820160405261224391908101906148f6565b604080516000808252602080830182815260018486018181526080860190965295965092949293919290606086019080368337019050509050898160008151811061229057612290615161565b60200260200101818152505060006001878588868e8a886040516020016122be989796959493929190614d57565b604051602081830303815290604052905060006122de8a8a846001611c68565b60009b8c5260d36020526040909b206006019a909a555050505050505050505050565b600054610100900460ff166123285760405162461bcd60e51b8152600401610e8c90614e3d565b6001600160a01b038116612352576040516335fdcccd60e21b815260006004820152602401610e8c565b600080546001600160a01b03909216620100000262010000600160b01b0319909216919091179055565b600054610100900460ff166123a35760405162461bcd60e51b8152600401610e8c90614e3d565b61157a612d09565b600054610100900460ff166123d25760405162461bcd60e51b8152600401610e8c90614e3d565b61157a5b600054610100900460ff166123fd5760405162461bcd60e51b8152600401610e8c90614e3d565b6001609855565b600061271061241660ff841685615038565b6111699190615016565b60ce5460cc5460405163a9059cbb60e01b81526001600160a01b03918216600482015260248101859052600160401b909204169063a9059cbb90604401602060405180830381600087803b15801561247757600080fd5b505af115801561248b573d6000803e3d6000fd5b505050506040513d601f19601f820116820180604052508101906124af919061492a565b5060ca5460408051631a521ec760e21b8152905184926000926001600160a01b03909116916369487b1c91600480820192602092909190829003018186803b1580156124fa57600080fd5b505afa15801561250e573d6000803e3d6000fd5b505050506040513d601f19601f82011682018060405250810190612532919061494c565b9050600060ca60009054906101000a90046001600160a01b03166001600160a01b031663b90b8a2a6040518163ffffffff1660e01b815260040160206040518083038186803b15801561258457600080fd5b505afa158015612598573d6000803e3d6000fd5b505050506040513d601f19601f820116820180604052508101906125bc919061494c565b905060005b828110156127275760ca54604051636dab0c9160e11b815260048101849052602481018390526000916001600160a01b03169063db5619229060440160206040518083038186803b15801561261557600080fd5b505afa158015612629573d6000803e3d6000fd5b505050506040513d601f19601f8201168201806040525081019061264d9190614b1e565b60ca54604051637e34c5a560e11b81526001600160401b03831660048201529192506000916001600160a01b039091169063fc698b4a9060240160206040518083038186803b15801561269f57600080fd5b505afa1580156126b3573d6000803e3d6000fd5b505050506040513d601f19601f820116820180604052508101906126d7919061494c565b60ce549091506001600160401b0383811691161415612704576126ff8660cf54838588612d39565b612712565b6127128660cf548487613134565b5050808061271f9061511a565b9150506125c1565b5060cf54600081815260d260205260408082206005810154600390910154915133949391927f497983feda2f53898206317c0b392bffd918715fad18aaedf4ac296f7ec6bf3d9261277d928d9291904290614d31565b60405180910390a4505050505050565b6033546001600160a01b0316331461157a5760405162461bcd60e51b815260206004820181905260248201527f4f776e61626c653a2063616c6c6572206973206e6f7420746865206f776e65726044820152606401610e8c565b603380546001600160a01b038381166001600160a01b0319831681179093556040519116919082907f8be0079c531659141344cd1fd0a4f28419497f9722a3daafe3b4186f6b6457e090600090a35050565b805160208083015160ca54604080516329fea19960e11b8152905192936000936001600160a01b03909316926353fd4332926004808201939291829003018186803b15801561288757600080fd5b505afa15801561289b573d6000803e3d6000fd5b505050506040513d601f19601f820116820180604052508101906128bf919061494c565b905060008060008060008089606001518060200190518101906128e291906149e2565b955095509550955095509550856000141561290a57612905838684848b8e6135ca565b612921565b856001141561292157612921838b878a8c8e613737565b50505050505050505050565b60ca546040516313cb1f8360e01b815260009182916001600160a01b03909116906313cb1f8390612968908a908a908a908990600401614d08565b60206040518083038186803b15801561298057600080fd5b505afa158015612994573d6000803e3d6000fd5b505050506040513d601f19601f820116820180604052508101906129b8919061494c565b905060008115612a625760cc546040516305f370ed60e41b81526001600160a01b038a8116600483015289811660248301526044820189905287811660648301526084820187905290911690635f370ed09060a401602060405180830381600087803b158015612a2757600080fd5b505af1158015612a3b573d6000803e3d6000fd5b505050506040513d601f19601f82011682018060405250810190612a5f919061494c565b90505b8360031415612a74579150610dea9050565b509695505050505050565b6040805160a081019091526001600160a01b03841660c082015260009081908060e0810160408051808303601f190181529181529082526020808301889052815160008082529181018352929091019190612afc565b6040805180820190915260008082526020820152815260200190600190039081612ad55790505b5081526020016001856001811115612b1657612b1661514b565b14612b22576000612b24565b885b6001600160a01b03168152602001612b4c6040518060200160405280622dc6c081525061382a565b90526040516320487ded60e01b81529091506000906001600160a01b038a16906320487ded90612b82908a908690600401614e88565b60206040518083038186803b158015612b9a57600080fd5b505afa158015612bae573d6000803e3d6000fd5b505050506040513d601f19601f82011682018060405250810190612bd2919061494c565b905060006001856001811115612bea57612bea61514b565b1415612c77576040516396f4e9f960e01b81526001600160a01b038b16906396f4e9f990612c1e908b908790600401614e88565b602060405180830381600087803b158015612c3857600080fd5b505af1158015612c4c573d6000803e3d6000fd5b505050506040513d601f19601f82011682018060405250810190612c70919061494c565b9050612cfc565b6040516396f4e9f960e01b81526001600160a01b038b16906396f4e9f9908490612ca7908c908890600401614e88565b6020604051808303818588803b158015612cc057600080fd5b505af1158015612cd4573d6000803e3d6000fd5b50505050506040513d601f19601f82011682018060405250810190612cf9919061494c565b90505b9998505050505050505050565b600054610100900460ff16612d305760405162461bcd60e51b8152600401610e8c90614e3d565b61157a336127e7565b60005b838110156110415760ca546040516309c6d7f360e21b8152600481018490526001600160401b0385166024820152604481018390526000916001600160a01b03169063271b5fcc9060640160206040518083038186803b158015612d9f57600080fd5b505afa158015612db3573d6000803e3d6000fd5b505050506040513d601f19601f82011682018060405250810190612dd791906147cd565b60ca5460405163d90bc21160e01b81526001600160a01b0380841660048301529293506000929091169063d90bc2119060240160206040518083038186803b158015612e2257600080fd5b505afa158015612e36573d6000803e3d6000fd5b505050506040513d601f19601f82011682018060405250810190612e5a919061494c565b60ca54604051630be5271360e01b81526001600160a01b03858116600483015292935060009290911690630be527139060240160206040518083038186803b158015612ea557600080fd5b505afa158015612eb9573d6000803e3d6000fd5b505050506040513d601f19601f82011682018060405250810190612edd919061494c565b60ce549091506000906001600160a01b03858116600160401b9092041614612f9f5760ce5460cc546040516370a0823160e01b81526001600160a01b039182166004820152612f9a92610744928892600160401b909204811691908316906370a082319060240160206040518083038186803b158015612f5c57600080fd5b505afa158015612f70573d6000803e3d6000fd5b505050506040513d601f19601f82011682018060405250810190612f94919061494c565b87610d63565b61301f565b60cc546040516370a0823160e01b81526001600160a01b03918216600482015261301f918616906370a082319060240160206040518083038186803b158015612fe757600080fd5b505afa158015612ffb573d6000803e3d6000fd5b505050506040513d601f19601f82011682018060405250810190610744919061494c565b60008a815260d2602090815260408083206001600160a01b03808a1680865291909352922083905560ce54929350600160401b909204909116146130a75760ce546130a590600160401b90046001600160a01b03168568056bc75e2d63100000613089868f615038565b6130939190615016565b60cc546001600160a01b03168761292d565b505b6130c868056bc75e2d631000006130be848d615038565b6107449190615016565b6130d29082614ffe565b60008a815260d2602081815260408084206001600160a01b038a1685528083529084206001908101959095558d845291905282018054909190613116908490614ffe565b9250508190555050505050808061312c9061511a565b915050612d3c565b6131666040518060a0016040528060608152602001606081526020016060815260200160608152602001606081525090565b604080516001808252818301909252600091602080830190803683370190505060ca546040516344fd376f60e01b8152600481018690526001600160401b03871660248201529192506001600160a01b0316906344fd376f9060440160206040518083038186803b1580156131da57600080fd5b505afa1580156131ee573d6000803e3d6000fd5b505050506040513d601f19601f82011682018060405250810190613212919061494c565b8160008151811061322557613225615161565b602090810291909101015260ce5460009061329c90600160401b90046001600160a01b031661325387611049565b68056bc75e2d631000008560008151811061327057613270615161565b60200260200101518b6132839190615038565b61328d9190615016565b306132978a6110cf565b61292d565b905060006132a986611170565b60ca5460405163d1c68aa360e01b81526001600160401b03891660048201529192506001600160a01b03169063d1c68aa39060240160006040518083038186803b1580156132f657600080fd5b505afa15801561330a573d6000803e3d6000fd5b505050506040513d6000823e601f3d908101601f1916820160405261333291908101906148c2565b845260ca5460405163221f337160e01b81526001600160401b03881660048201526001600160a01b039091169063221f33719060240160006040518083038186803b15801561338057600080fd5b505afa158015613394573d6000803e3d6000fd5b505050506040513d6000823e601f3d908101601f191682016040526133bc91908101906148f6565b602085015260ca54604051632bda5acd60e21b81526001600160401b03881660048201526001600160a01b039091169063af696b349060240160006040518083038186803b15801561340d57600080fd5b505afa158015613421573d6000803e3d6000fd5b505050506040513d6000823e601f3d908101601f1916820160405261344991908101906148f6565b60408581019190915280516000808252602080830184526060880192909252825181815280830184526080880152825160018082528185019094529092909182015b604080518082019091526000808252602082015281526020019060019003908161348b5790505090506134bd87611049565b816000815181106134d0576134d0615161565b6020026020010151600001906001600160a01b031690816001600160a01b031681525050828160008151811061350857613508615161565b6020026020010151602001818152505060008086600001518760600151886020015189608001518d8b604001518b60405160200161354d989796959493929190614d57565b6040516020818303038152906040529050600061356e898386866001613867565b90507f54791b38f3859327992a1ca0590ad3c0f08feba98d1a4f56ab0dca74d203392a816040516135a191815260200190565b60405180910390a160cf54600090815260d2602052604090206005015550505050505050505050565b8560005b865181101561370a5760008682815181106135eb576135eb615161565b60200260200101519050600086838151811061360957613609615161565b602002602001015190508160d2600086815260200190815260200160002060000160008b868151811061363e5761363e615161565b60200260200101516001600160a01b03166001600160a01b03168152602001908152602001600020600001819055508060d2600086815260200190815260200160002060000160008b868151811061369857613698615161565b60200260200101516001600160a01b03166001600160a01b0316815260200190815260200160002060010181905550600160d2600086815260200190815260200160002060010160008282546136ee9190614ffe565b92505081905550505080806137029061511a565b9150506135ce565b50600081815260d2602052604090206001015483141561372e5761372e81836138e2565b50505050505050565b608085015180518791906000908290829061375457613754615161565b602002602001015160000151905060008260008151811061377757613777615161565b602002602001015160200151905060006137aa8360ce60089054906101000a90046001600160a01b031684306003613d1e565b600086815260d360205260408120805492935083929091906137cd908490614ffe565b90915550508851600086815260d36020526040812060010180549091906137f5908490614ffe565b9091555050600085815260d3602052604090206001015488141561381d5761381d8587613e50565b5050505050505050505050565b60408051915160248084019190915281518084039091018152604490920190526020810180516001600160e01b03166397a657c960e01b17905290565b600061387161417b565b6000805460cb5461389b916001600160a01b03620100009091048116911660058a8a8a8a8a6141d5565b90507f54791b38f3859327992a1ca0590ad3c0f08feba98d1a4f56ab0dca74d203392a816040516138ce91815260200190565b60405180910390a19050610dea6001609855565b600080600060ca60009054906101000a90046001600160a01b03166001600160a01b03166353fd43326040518163ffffffff1660e01b815260040160206040518083038186803b15801561393557600080fd5b505afa158015613949573d6000803e3d6000fd5b505050506040513d601f19601f8201168201806040525081019061396d919061494c565b905060005b81811015613a705760ca5460405163264cae9360e21b8152600481018390526000916001600160a01b031690639932ba4c9060240160206040518083038186803b1580156139bf57600080fd5b505afa1580156139d3573d6000803e3d6000fd5b505050506040513d601f19601f820116820180604052508101906139f791906147cd565b600088815260d2602090815260408083206001600160a01b0385168452909152902054909150613a279086614ffe565b600088815260d2602090815260408083206001600160a01b0386168452909152902060010154909550613a5a9085614ffe565b9350508080613a689061511a565b915050613972565b5060008060cc60009054906101000a90046001600160a01b03166001600160a01b03166318160ddd6040518163ffffffff1660e01b815260040160206040518083038186803b158015613ac257600080fd5b505afa158015613ad6573d6000803e3d6000fd5b505050506040513d601f19601f82011682018060405250810190613afa919061494c565b1115613c335760cc60009054906101000a90046001600160a01b03166001600160a01b03166318160ddd6040518163ffffffff1660e01b815260040160206040518083038186803b158015613b4e57600080fd5b505afa158015613b62573d6000803e3d6000fd5b505050506040513d601f19601f82011682018060405250810190613b86919061494c565b848460cc60009054906101000a90046001600160a01b03166001600160a01b03166318160ddd6040518163ffffffff1660e01b815260040160206040518083038186803b158015613bd657600080fd5b505afa158015613bea573d6000803e3d6000fd5b505050506040513d601f19601f82011682018060405250810190613c0e919061494c565b613c189190615038565b613c229190615016565b613c2c9190615057565b9050613c41565b613c3e836064615038565b90505b60cc54600087815260d26020526040908190206002015490516340c10f1960e01b81526001600160a01b039182166004820152602481018490529116906340c10f1990604401600060405180830381600087803b158015613ca157600080fd5b505af1158015613cb5573d6000803e3d6000fd5b505050600087815260d26020526040908190206002810154600482015460039092015492516001600160a01b0391821694508a938a937f4d3128af979c46a863cd489a3d0959d5d22181cdbdb1949b40cadfcdac0a1d389361277d939116919088904290614d31565b60ca5460405163a9059cbb60e01b81526001600160a01b0391821660048201526024810185905260009187169063a9059cbb90604401602060405180830381600087803b158015613d6e57600080fd5b505af1158015613d82573d6000803e3d6000fd5b505050506040513d601f19601f82011682018060405250810190613da6919061492a565b5060ca54604051630bec47a360e11b81526001600160a01b03888116600483015287811660248301526044820187905285811660648301526084820185905260009216906317d88f469060a401602060405180830381600087803b158015613e0d57600080fd5b505af1158015613e21573d6000803e3d6000fd5b505050506040513d601f19601f82011682018060405250810190613e45919061494c565b979650505050505050565b600082815260d36020526040812080546002820154600383015460049093015460cc5492946001600160a01b039283169490921692909190613e9e90869060ff600160a01b90910416612404565b60ce5460d15460405163a9059cbb60e01b81526001600160a01b03918216600482015260248101849052929350600160401b909104169063a9059cbb90604401602060405180830381600087803b158015613ef857600080fd5b505af1158015613f0c573d6000803e3d6000fd5b505050506040513d601f19601f82011682018060405250810190613f30919061492a565b5060ce546001600160a01b03848116600160401b9092041614156140e45760ce54600160401b90046001600160a01b0316632e1a7d4d613f708388615057565b6040518263ffffffff1660e01b8152600401613f8e91815260200190565b600060405180830381600087803b158015613fa857600080fd5b505af1158015613fbc573d6000803e3d6000fd5b505050506000846001600160a01b03168287613fd89190615057565b604051600081818185875af1925050503d8060008114614014576040519150601f19603f3d011682016040523d82523d6000602084013e614019565b606091505b50509050806140765760405162461bcd60e51b8152602060048201526024808201527f7472616e736665722065746820746f20746865207265717565737465722066616044820152631a5b195960e21b6064820152608401610e8c565b600088815260d360205260409020600501546001600160a01b03861690899089907f476778ca38557db6dc935a57ece5bd93fbaca20183fadf86d7a1d2b85df65e019088906140c5888d615057565b426040516140d69493929190614d31565b60405180910390a45061372e565b60ce5460009061411090600160401b90046001600160a01b031685614109858a615057565b8887613d1e565b9050846001600160a01b031688887f476778ca38557db6dc935a57ece5bd93fbaca20183fadf86d7a1d2b85df65e018760d360008e81526020019081526020016000206005015486426040516141699493929190614d31565b60405180910390a45050505050505050565b600260985414156141ce5760405162461bcd60e51b815260206004820152601f60248201527f5265656e7472616e637947756172643a207265656e7472616e742063616c6c006044820152606401610e8c565b6002609855565b815160009061ffff88168111156142545760405162461bcd60e51b815260206004820152603760248201527f4d6178696d756d203520646966666572656e7420746f6b656e732063616e206260448201527f652073656e74207065722043434950204d6573736167650000000000000000006064820152608401610e8c565b60005b8181101561436d57896001600160a01b031685828151811061427b5761427b615161565b6020026020010151600001516001600160a01b031614614365578481815181106142a7576142a7615161565b6020026020010151600001516001600160a01b031663095ea7b38c8784815181106142d4576142d4615161565b6020026020010151602001516040518363ffffffff1660e01b81526004016143119291906001600160a01b03929092168252602082015260400190565b602060405180830381600087803b15801561432b57600080fd5b505af115801561433f573d6000803e3d6000fd5b505050506040513d601f19601f82011682018060405250810190614363919061492a565b505b600101614257565b506040805160a081019091526001600160a01b03861660c08201526000908060e0810160408051601f19818403018152918152908252602082018a9052810187905260600160018660018111156143c6576143c661514b565b146143d25760006143d4565b8b5b6001600160a01b031681526020016143fc6040518060200160405280622dc6c081525061382a565b90526040516320487ded60e01b81529091506000906001600160a01b038d16906320487ded90614432908c908690600401614e88565b60206040518083038186803b15801561444a57600080fd5b505afa15801561445e573d6000803e3d6000fd5b505050506040513d601f19601f82011682018060405250810190614482919061494c565b90506000600186600181111561449a5761449a61514b565b1415614527576040516396f4e9f960e01b81526001600160a01b038e16906396f4e9f9906144ce908d908790600401614e88565b602060405180830381600087803b1580156144e857600080fd5b505af11580156144fc573d6000803e3d6000fd5b505050506040513d601f19601f82011682018060405250810190614520919061494c565b90506145ac565b6040516396f4e9f960e01b81526001600160a01b038e16906396f4e9f9908490614557908e908890600401614e88565b6020604051808303818588803b15801561457057600080fd5b505af1158015614584573d6000803e3d6000fd5b50505050506040513d601f19601f820116820180604052508101906145a9919061494c565b90505b9c9b505050505050505050505050565b600082601f8301126145cd57600080fd5b815160206145e26145dd83614fdb565b614fab565b80838252828201915082860187848660051b890101111561460257600080fd5b60005b8581101561462a5781516146188161518d565b84529284019290840190600101614605565b5090979650505050505050565b600082601f83011261464857600080fd5b813560206146586145dd83614fdb565b80838252828201915082860187848660061b890101111561467857600080fd5b6000805b868110156146c357604080848c031215614694578283fd5b61469c614f61565b84356146a78161518d565b815284880135888201528652948601949092019160010161467c565b509198975050505050505050565b600082601f8301126146e257600080fd5b815160206146f26145dd83614fdb565b80838252828201915082860187848660051b890101111561471257600080fd5b60005b8581101561462a57815184529284019290840190600101614715565b600082601f83011261474257600080fd5b81356001600160401b0381111561475b5761475b615177565b61476e601f8201601f1916602001614fab565b81815284602083860101111561478357600080fd5b816020850160208301376000918101602001919091529392505050565b80356147ab816151a2565b919050565b6000602082840312156147c257600080fd5b81356111698161518d565b6000602082840312156147df57600080fd5b81516111698161518d565b6000806000606084860312156147ff57600080fd5b833561480a8161518d565b9250602084013561481a8161518d565b915060408401356001600160801b038116811461483657600080fd5b809150509250925092565b6000806000806080858703121561485757600080fd5b84356148628161518d565b935060208501356148728161518d565b93969395505050506040820135916060013590565b6000806000806080858703121561489d57600080fd5b84356148a88161518d565b966020860135965060408601359560600135945092505050565b6000602082840312156148d457600080fd5b81516001600160401b038111156148ea57600080fd5b610912848285016145bc565b60006020828403121561490857600080fd5b81516001600160401b0381111561491e57600080fd5b610912848285016146d1565b60006020828403121561493c57600080fd5b8151801515811461116957600080fd5b60006020828403121561495e57600080fd5b5051919050565b60006020828403121561497757600080fd5b81356001600160e01b03198116811461116957600080fd5b6000602082840312156149a157600080fd5b81356001600160401b038111156149b757600080fd5b820160a0818503121561116957600080fd5b6000602082840312156149db57600080fd5b5035919050565b60008060008060008060c087890312156149fb57600080fd5b8651955060208701516001600160401b0380821115614a1957600080fd5b614a258a838b016145bc565b96506040890151915080821115614a3b57600080fd5b614a478a838b016145bc565b9550606089015194506080890151915080821115614a6457600080fd5b614a708a838b016146d1565b935060a0890151915080821115614a8657600080fd5b50614a9389828a016146d1565b9150509295509295509295565b60008060408385031215614ab357600080fd5b50508035926020909101359150565b60008060008060808587031215614ad857600080fd5b84359350602085013592506040850135614af18161518d565b9396929550929360600135925050565b600060208284031215614b1357600080fd5b8135611169816151a2565b600060208284031215614b3057600080fd5b8151611169816151a2565b600080600080600060a08688031215614b5357600080fd5b8535614b5e816151a2565b94506020860135614b6e8161518d565b93506040860135614b7e8161518d565b92506060860135614b8e8161518d565b91506080860135614b9e8161518d565b809150509295509295909350565b60008060008060808587031215614bc257600080fd5b8435614bcd816151a2565b93506020850135614bdd8161518d565b925060408501356001600160401b03811115614bf857600080fd5b614c0487828801614731565b925050606085013560028110614c1957600080fd5b939692955090935050565b600060208284031215614c3657600080fd5b813560ff8116811461116957600080fd5b600081518084526020808501945080840160005b83811015614c805781516001600160a01b031687529582019590820190600101614c5b565b509495945050505050565b600081518084526020808501945080840160005b83811015614c8057815187529582019590820190600101614c9f565b6000815180845260005b81811015614ce157602081850181015186830182015201614cc5565b81811115614cf3576000602083870101525b50601f01601f19169290920160200192915050565b6001600160a01b0394851681529290931660208301526040820152606081019190915260800190565b6001600160a01b0394909416845260208401929092526040830152606082015260800190565b600061010060ff8b168352806020840152614d748184018b614c47565b90508281036040840152614d88818a614c47565b90508281036060840152614d9c8189614c8b565b90508281036080840152614db08188614c8b565b90508560a084015282810360c0840152614dca8186614c8b565b905082810360e0840152614dde8185614c8b565b9b9a5050505050505050505050565b60208082526030908201527f50726f706f7361626c654f776e61626c653a206e6577206f776e65722069732060408201526f746865207a65726f206164647265737360801b606082015260800190565b6020808252602b908201527f496e697469616c697a61626c653a20636f6e7472616374206973206e6f74206960408201526a6e697469616c697a696e6760a81b606082015260800190565b600060406001600160401b038516835260208181850152845160a083860152614eb460e0860182614cbb565b905081860151603f1980878403016060880152614ed18383614cbb565b88860151888203830160808a01528051808352908601945060009350908501905b80841015614f2457845180516001600160a01b0316835286015186830152938501936001939093019290860190614ef2565b5060608901516001600160a01b031660a08901526080890151888203830160c08a01529550614f538187614cbb565b9a9950505050505050505050565b604080519081016001600160401b0381118282101715614f8357614f83615177565b60405290565b60405160a081016001600160401b0381118282101715614f8357614f83615177565b604051601f8201601f191681016001600160401b0381118282101715614fd357614fd3615177565b604052919050565b60006001600160401b03821115614ff457614ff4615177565b5060051b60200190565b6000821982111561501157615011615135565b500190565b60008261503357634e487b7160e01b600052601260045260246000fd5b500490565b600081600019048311821515161561505257615052615135565b500290565b60008282101561506957615069615135565b500390565b600060a0823603121561508057600080fd5b615088614f89565b82358152615098602084016147a0565b602082015260408301356001600160401b03808211156150b757600080fd5b6150c336838701614731565b604084015260608501359150808211156150dc57600080fd5b6150e836838701614731565b6060840152608085013591508082111561510157600080fd5b5061510e36828601614637565b60808301525092915050565b600060001982141561512e5761512e615135565b5060010190565b634e487b7160e01b600052601160045260246000fd5b634e487b7160e01b600052602160045260246000fd5b634e487b7160e01b600052603260045260246000fd5b634e487b7160e01b600052604160045260246000fd5b6001600160a01b03811681146115c057600080fd5b6001600160401b03811681146115c057600080fdfea2646970667358221220867d6e43130e3a7ac87aaf3140c073eca985740cdf3d3c0c336e421fb7da38b564736f6c63430008070033","linkReferences":{}},"methodIdentifiers":{"MAX_FEE_RATE()":"92f6576e","MAX_TOKENS_LENGTH()":"d28c00fc","MIN_FEE_RATE()":"58c0f10d","MIN_FEE_UPDATE_INTERVAL()":"c9172ef7","ccipReceive((bytes32,uint64,bytes,bytes,(address,uint256)[]))":"85572ffb","convertEthToUsd(uint256)":"c086381e","crossChainFactoryBySelector(uint64)":"340fbc74","crossChainToken(uint64)":"19da7e2a","crossChainTokenSwapVersion(uint64)":"326f6fb2","currentChainSelector()":"3d54cb6f","estimateAmountOut(address,address,uint128)":"0456f9c8","feeRate()":"978bbdb9","feeReceiver()":"b3f00674","getAmountOut(address,address,uint256,uint256)":"13cb1f83","getPortfolioBalance()":"a8509fd8","getRouter()":"b0f479a1","i_link()":"7d253aff","indexFactoryStorage()":"d1f7a991","indexToken()":"e7d015f2","initialize(uint64,address,address,address,address)":"16b487ff","issuanceData(uint256)":"2d6fc6b3","issuanceIndexTokens(address,uint256,uint256,uint256)":"9ad1c356","issuanceIndexTokensWithEth(uint256,uint256)":"41d11817","issuanceNonce()":"9dbb9c9e","latestFeeUpdate()":"011ced5f","owner()":"8da5cb5b","priceInWei()":"3c8da588","proposeOwner(address)":"b5ed298a","proposedOwner()":"d153b60c","redemption(uint256,uint256,address,uint256)":"09445ad4","redemptionData(uint256)":"aa4379c0","redemptionNonce()":"84d77bb1","renounceOwnership()":"715018a6","sendMessage(uint64,address,bytes,uint8)":"bcab90b3","setFeeRate(uint8)":"5177942a","setFeeReceiver(address)":"efdcd974","setIndexFactoryStorage(address)":"cc8659ae","supportsInterface(bytes4)":"01ffc9a7","transferOwnership(address)":"f2fde38b","weth()":"3fc8cef3"},"id":3}