{"abi":[{"type":"receive","stateMutability":"payable"},{"type":"function","name":"MAX_FEE_RATE","inputs":[],"outputs":[{"name":"","type":"uint8","internalType":"uint8"}],"stateMutability":"view"},{"type":"function","name":"MAX_TOKENS_LENGTH","inputs":[],"outputs":[{"name":"","type":"uint16","internalType":"uint16"}],"stateMutability":"view"},{"type":"function","name":"MIN_FEE_RATE","inputs":[],"outputs":[{"name":"","type":"uint8","internalType":"uint8"}],"stateMutability":"view"},{"type":"function","name":"MIN_FEE_UPDATE_INTERVAL","inputs":[],"outputs":[{"name":"","type":"uint256","internalType":"uint256"}],"stateMutability":"view"},{"type":"function","name":"ccipReceive","inputs":[{"name":"message","type":"tuple","internalType":"struct Client.Any2EVMMessage","components":[{"name":"messageId","type":"bytes32","internalType":"bytes32"},{"name":"sourceChainSelector","type":"uint64","internalType":"uint64"},{"name":"sender","type":"bytes","internalType":"bytes"},{"name":"data","type":"bytes","internalType":"bytes"},{"name":"destTokenAmounts","type":"tuple[]","internalType":"struct Client.EVMTokenAmount[]","components":[{"name":"token","type":"address","internalType":"address"},{"name":"amount","type":"uint256","internalType":"uint256"}]}]}],"outputs":[],"stateMutability":"nonpayable"},{"type":"function","name":"convertEthToUsd","inputs":[{"name":"_ethAmount","type":"uint256","internalType":"uint256"}],"outputs":[{"name":"","type":"uint256","internalType":"uint256"}],"stateMutability":"view"},{"type":"function","name":"crossChainFactoryBySelector","inputs":[{"name":"_chainSelector","type":"uint64","internalType":"uint64"}],"outputs":[{"name":"","type":"address","internalType":"address"}],"stateMutability":"view"},{"type":"function","name":"crossChainToken","inputs":[{"name":"_chainSelector","type":"uint64","internalType":"uint64"}],"outputs":[{"name":"","type":"address","internalType":"address"}],"stateMutability":"view"},{"type":"function","name":"crossChainTokenSwapFee","inputs":[{"name":"_chainSelector","type":"uint64","internalType":"uint64"}],"outputs":[{"name":"","type":"uint24","internalType":"uint24"}],"stateMutability":"view"},{"type":"function","name":"currentChainSelector","inputs":[],"outputs":[{"name":"","type":"uint64","internalType":"uint64"}],"stateMutability":"view"},{"type":"function","name":"estimateAmountOut","inputs":[{"name":"tokenIn","type":"address","internalType":"address"},{"name":"tokenOut","type":"address","internalType":"address"},{"name":"amountIn","type":"uint128","internalType":"uint128"},{"name":"fee","type":"uint24","internalType":"uint24"}],"outputs":[{"name":"amountOut","type":"uint256","internalType":"uint256"}],"stateMutability":"view"},{"type":"function","name":"factoryStorage","inputs":[],"outputs":[{"name":"","type":"address","internalType":"contract IndexFactoryStorage"}],"stateMutability":"view"},{"type":"function","name":"feeRate","inputs":[],"outputs":[{"name":"","type":"uint8","internalType":"uint8"}],"stateMutability":"view"},{"type":"function","name":"feeReceiver","inputs":[],"outputs":[{"name":"","type":"address","internalType":"address"}],"stateMutability":"view"},{"type":"function","name":"getAmountOut","inputs":[{"name":"tokenIn","type":"address","internalType":"address"},{"name":"tokenOut","type":"address","internalType":"address"},{"name":"amountIn","type":"uint256","internalType":"uint256"},{"name":"_swapFee","type":"uint24","internalType":"uint24"}],"outputs":[{"name":"finalAmountOut","type":"uint256","internalType":"uint256"}],"stateMutability":"view"},{"type":"function","name":"getPortfolioBalance","inputs":[],"outputs":[{"name":"","type":"uint256","internalType":"uint256"}],"stateMutability":"view"},{"type":"function","name":"getRouter","inputs":[],"outputs":[{"name":"","type":"address","internalType":"address"}],"stateMutability":"view"},{"type":"function","name":"getRouterAddress","inputs":[],"outputs":[{"name":"","type":"address","internalType":"address"}],"stateMutability":"view"},{"type":"function","name":"i_link","inputs":[],"outputs":[{"name":"","type":"address","internalType":"address"}],"stateMutability":"view"},{"type":"function","name":"indexToken","inputs":[],"outputs":[{"name":"","type":"address","internalType":"contract IndexToken"}],"stateMutability":"view"},{"type":"function","name":"initialize","inputs":[{"name":"_currentChainSelector","type":"uint64","internalType":"uint64"},{"name":"_token","type":"address","internalType":"address payable"},{"name":"_chainlinkToken","type":"address","internalType":"address"},{"name":"_router","type":"address","internalType":"address"},{"name":"_weth","type":"address","internalType":"address"}],"outputs":[],"stateMutability":"nonpayable"},{"type":"function","name":"issuanceData","inputs":[{"name":"","type":"uint256","internalType":"uint256"}],"outputs":[{"name":"completedTokensCount","type":"uint256","internalType":"uint256"},{"name":"requester","type":"address","internalType":"address"},{"name":"inputAmount","type":"uint256","internalType":"uint256"},{"name":"inputToken","type":"address","internalType":"address"},{"name":"messageId","type":"bytes32","internalType":"bytes32"}],"stateMutability":"view"},{"type":"function","name":"issuanceIndexTokens","inputs":[{"name":"_tokenIn","type":"address","internalType":"address"},{"name":"_inputAmount","type":"uint256","internalType":"uint256"},{"name":"_crossChainFee","type":"uint256","internalType":"uint256"},{"name":"_tokenInSwapFee","type":"uint24","internalType":"uint24"}],"outputs":[],"stateMutability":"nonpayable"},{"type":"function","name":"issuanceIndexTokensWithEth","inputs":[{"name":"_inputAmount","type":"uint256","internalType":"uint256"},{"name":"_crossChainFee","type":"uint256","internalType":"uint256"}],"outputs":[],"stateMutability":"payable"},{"type":"function","name":"issuanceNonce","inputs":[],"outputs":[{"name":"","type":"uint256","internalType":"uint256"}],"stateMutability":"view"},{"type":"function","name":"latestFeeUpdate","inputs":[],"outputs":[{"name":"","type":"uint256","internalType":"uint256"}],"stateMutability":"view"},{"type":"function","name":"owner","inputs":[],"outputs":[{"name":"","type":"address","internalType":"address"}],"stateMutability":"view"},{"type":"function","name":"priceInWei","inputs":[],"outputs":[{"name":"","type":"uint256","internalType":"uint256"}],"stateMutability":"view"},{"type":"function","name":"proposeOwner","inputs":[{"name":"_proposedOwner","type":"address","internalType":"address"}],"outputs":[],"stateMutability":"nonpayable"},{"type":"function","name":"proposedOwner","inputs":[],"outputs":[{"name":"","type":"address","internalType":"address"}],"stateMutability":"view"},{"type":"function","name":"redemption","inputs":[{"name":"amountIn","type":"uint256","internalType":"uint256"},{"name":"_crossChainFee","type":"uint256","internalType":"uint256"},{"name":"_tokenOut","type":"address","internalType":"address"},{"name":"_tokenOutSwapFee","type":"uint24","internalType":"uint24"}],"outputs":[],"stateMutability":"nonpayable"},{"type":"function","name":"redemptionData","inputs":[{"name":"","type":"uint256","internalType":"uint256"}],"outputs":[{"name":"totalValue","type":"uint256","internalType":"uint256"},{"name":"completedTokensCount","type":"uint256","internalType":"uint256"},{"name":"requester","type":"address","internalType":"address"},{"name":"outputToken","type":"address","internalType":"address"},{"name":"outputTokenSwapFee","type":"uint24","internalType":"uint24"},{"name":"inputAmount","type":"uint256","internalType":"uint256"},{"name":"messageId","type":"bytes32","internalType":"bytes32"}],"stateMutability":"view"},{"type":"function","name":"redemptionNonce","inputs":[],"outputs":[{"name":"","type":"uint256","internalType":"uint256"}],"stateMutability":"view"},{"type":"function","name":"renounceOwnership","inputs":[],"outputs":[],"stateMutability":"nonpayable"},{"type":"function","name":"sendMessage","inputs":[{"name":"destinationChainSelector","type":"uint64","internalType":"uint64"},{"name":"receiver","type":"address","internalType":"address"},{"name":"_data","type":"bytes","internalType":"bytes"},{"name":"payFeesIn","type":"uint8","internalType":"enum IndexFactory.PayFeesIn"}],"outputs":[{"name":"","type":"bytes32","internalType":"bytes32"}],"stateMutability":"nonpayable"},{"type":"function","name":"setFeeRate","inputs":[{"name":"_newFee","type":"uint8","internalType":"uint8"}],"outputs":[],"stateMutability":"nonpayable"},{"type":"function","name":"setFeeReceiver","inputs":[{"name":"_feeReceiver","type":"address","internalType":"address"}],"outputs":[],"stateMutability":"nonpayable"},{"type":"function","name":"setIndexFactoryStorage","inputs":[{"name":"_factoryStorage","type":"address","internalType":"address"}],"outputs":[],"stateMutability":"nonpayable"},{"type":"function","name":"supportsInterface","inputs":[{"name":"interfaceId","type":"bytes4","internalType":"bytes4"}],"outputs":[{"name":"","type":"bool","internalType":"bool"}],"stateMutability":"pure"},{"type":"function","name":"transferOwnership","inputs":[{"name":"newOwner","type":"address","internalType":"address"}],"outputs":[],"stateMutability":"nonpayable"},{"type":"function","name":"weth","inputs":[],"outputs":[{"name":"","type":"address","internalType":"contract IWETH"}],"stateMutability":"view"},{"type":"event","name":"Initialized","inputs":[{"name":"version","type":"uint8","indexed":false,"internalType":"uint8"}],"anonymous":false},{"type":"event","name":"Issuanced","inputs":[{"name":"messageId","type":"bytes32","indexed":true,"internalType":"bytes32"},{"name":"nonce","type":"uint256","indexed":true,"internalType":"uint256"},{"name":"user","type":"address","indexed":true,"internalType":"address"},{"name":"inputToken","type":"address","indexed":false,"internalType":"address"},{"name":"inputAmount","type":"uint256","indexed":false,"internalType":"uint256"},{"name":"outputAmount","type":"uint256","indexed":false,"internalType":"uint256"},{"name":"time","type":"uint256","indexed":false,"internalType":"uint256"}],"anonymous":false},{"type":"event","name":"MessageSent","inputs":[{"name":"messageId","type":"bytes32","indexed":false,"internalType":"bytes32"}],"anonymous":false},{"type":"event","name":"OwnershipTransferred","inputs":[{"name":"previousOwner","type":"address","indexed":true,"internalType":"address"},{"name":"newOwner","type":"address","indexed":true,"internalType":"address"}],"anonymous":false},{"type":"event","name":"Redemption","inputs":[{"name":"messageId","type":"bytes32","indexed":true,"internalType":"bytes32"},{"name":"nonce","type":"uint256","indexed":true,"internalType":"uint256"},{"name":"user","type":"address","indexed":true,"internalType":"address"},{"name":"outputToken","type":"address","indexed":false,"internalType":"address"},{"name":"inputAmount","type":"uint256","indexed":false,"internalType":"uint256"},{"name":"outputAmount","type":"uint256","indexed":false,"internalType":"uint256"},{"name":"time","type":"uint256","indexed":false,"internalType":"uint256"}],"anonymous":false},{"type":"event","name":"RequestIssuance","inputs":[{"name":"messageId","type":"bytes32","indexed":true,"internalType":"bytes32"},{"name":"nonce","type":"uint256","indexed":true,"internalType":"uint256"},{"name":"user","type":"address","indexed":true,"internalType":"address"},{"name":"inputToken","type":"address","indexed":false,"internalType":"address"},{"name":"inputAmount","type":"uint256","indexed":false,"internalType":"uint256"},{"name":"outputAmount","type":"uint256","indexed":false,"internalType":"uint256"},{"name":"time","type":"uint256","indexed":false,"internalType":"uint256"}],"anonymous":false},{"type":"event","name":"RequestRedemption","inputs":[{"name":"messageId","type":"bytes32","indexed":true,"internalType":"bytes32"},{"name":"nonce","type":"uint256","indexed":true,"internalType":"uint256"},{"name":"user","type":"address","indexed":true,"internalType":"address"},{"name":"outputToken","type":"address","indexed":false,"internalType":"address"},{"name":"inputAmount","type":"uint256","indexed":false,"internalType":"uint256"},{"name":"outputAmount","type":"uint256","indexed":false,"internalType":"uint256"},{"name":"time","type":"uint256","indexed":false,"internalType":"uint256"}],"anonymous":false},{"type":"error","name":"InvalidRouter","inputs":[{"name":"router","type":"address","internalType":"address"}]}],"bytecode":{"object":"0x6080604052348015600e575f80fd5b50618a1a8061001c5f395ff3fe608060405260043610610249575f3560e01c80639ff73f4511610138578063cc8659ae116100b5578063dd811ac911610079578063dd811ac91461087e578063e7d015f2146108ba578063ee7bd3e2146108e4578063efdcd97414610920578063f2fde38b14610948578063fd4851011461097057610250565b8063cc8659ae146107b0578063d0586d71146107d8578063d153b60c14610800578063d28c00fc1461082a578063d54f7d5e1461085457610250565b8063b5ed298a116100fc578063b5ed298a146106bc578063bcab90b3146106e4578063c06e1ae214610720578063c086381e1461074a578063c9172ef71461078657610250565b80639ff73f45146105c0578063a8509fd8146105fc578063aa4379c014610626578063b0f479a114610668578063b3f006741461069257610250565b80635177942a116101c657806385572ffb1161018a57806385572ffb146104f05780638da5cb5b1461051857806392f6576e14610542578063978bbdb91461056c5780639dbb9c9e1461059657610250565b80635177942a1461043457806358c0f10d1461045c578063715018a6146104865780637d253aff1461049c57806384d77bb1146104c657610250565b8063340fbc741161020d578063340fbc741461035e5780633c8da5881461039a5780633d54cb6f146103c45780633fc8cef3146103ee57806341d118171461041857610250565b8063011ced5f1461025457806301ffc9a71461027e57806316b487ff146102ba57806319da7e2a146102e25780632d6fc6b31461031e57610250565b3661025057005b5f80fd5b34801561025f575f80fd5b50610268610998565b6040516102759190616338565b60405180910390f35b348015610289575f80fd5b506102a4600480360381019061029f91906163b7565b61099e565b6040516102b191906163fc565b60405180910390f35b3480156102c5575f80fd5b506102e060048036038101906102db91906164e7565b610a6f565b005b3480156102ed575f80fd5b506103086004803603810190610303919061655e565b610dce565b6040516103159190616598565b60405180910390f35b348015610329575f80fd5b50610344600480360381019061033f91906165db565b610e6f565b60405161035595949392919061661e565b60405180910390f35b348015610369575f80fd5b50610384600480360381019061037f919061655e565b610ee0565b6040516103919190616598565b60405180910390f35b3480156103a5575f80fd5b506103ae610f81565b6040516103bb9190616338565b60405180910390f35b3480156103cf575f80fd5b506103d8611015565b6040516103e5919061667e565b60405180910390f35b3480156103f9575f80fd5b5061040261102e565b60405161040f91906166f2565b60405180910390f35b610432600480360381019061042d919061670b565b611054565b005b34801561043f575f80fd5b5061045a6004803603810190610455919061677f565b61133a565b005b348015610467575f80fd5b50610470611416565b60405161047d91906167b9565b60405180910390f35b348015610491575f80fd5b5061049a61141b565b005b3480156104a7575f80fd5b506104b061142e565b6040516104bd9190616598565b60405180910390f35b3480156104d1575f80fd5b506104da611453565b6040516104e79190616338565b60405180910390f35b3480156104fb575f80fd5b50610516600480360381019061051191906167f4565b611459565b005b348015610523575f80fd5b5061052c6114ff565b6040516105399190616598565b60405180910390f35b34801561054d575f80fd5b50610556611527565b60405161056391906167b9565b60405180910390f35b348015610577575f80fd5b5061058061152c565b60405161058d91906167b9565b60405180910390f35b3480156105a1575f80fd5b506105aa61153f565b6040516105b79190616338565b60405180910390f35b3480156105cb575f80fd5b506105e660048036038101906105e1919061655e565b611545565b6040516105f39190616858565b60405180910390f35b348015610607575f80fd5b506106106115f5565b60405161061d9190616338565b60405180910390f35b348015610631575f80fd5b5061064c600480360381019061064791906165db565b611b1c565b60405161065f9796959493929190616871565b60405180910390f35b348015610673575f80fd5b5061067c611ba7565b6040516106899190616598565b60405180910390f35b34801561069d575f80fd5b506106a6611bcf565b6040516106b39190616598565b60405180910390f35b3480156106c7575f80fd5b506106e260048036038101906106dd91906168de565b611bf4565b005b3480156106ef575f80fd5b5061070a60048036038101906107059190616a68565b611cad565b6040516107179190616ae8565b60405180910390f35b34801561072b575f80fd5b50610734611d08565b6040516107419190616b21565b60405180910390f35b348015610755575f80fd5b50610770600480360381019061076b91906165db565b611d2d565b60405161077d9190616338565b60405180910390f35b348015610791575f80fd5b5061079a611d5b565b6040516107a79190616338565b60405180910390f35b3480156107bb575f80fd5b506107d660048036038101906107d191906168de565b611d61565b005b3480156107e3575f80fd5b506107fe60048036038101906107f99190616b64565b611dac565b005b34801561080b575f80fd5b50610814612353565b6040516108219190616598565b60405180910390f35b348015610835575f80fd5b5061083e612378565b60405161084b9190616be4565b60405180910390f35b34801561085f575f80fd5b5061086861237d565b6040516108759190616598565b60405180910390f35b348015610889575f80fd5b506108a4600480360381019061089f9190616bfd565b6123a5565b6040516108b19190616338565b60405180910390f35b3480156108c5575f80fd5b506108ce61244f565b6040516108db9190616c92565b60405180910390f35b3480156108ef575f80fd5b5061090a60048036038101906109059190616cf0565b612474565b6040516109179190616338565b60405180910390f35b34801561092b575f80fd5b50610946600480360381019061094191906168de565b61251e565b005b348015610953575f80fd5b5061096e600480360381019061096991906168de565b612569565b005b34801561097b575f80fd5b5061099660048036038101906109919190616d54565b6126e0565b005b60cd5481565b5f7f85572ffb000000000000000000000000000000000000000000000000000000007bffffffffffffffffffffffffffffffffffffffffffffffffffffffff1916827bffffffffffffffffffffffffffffffffffffffffffffffffffffffff19161480610a6857507f01ffc9a7000000000000000000000000000000000000000000000000000000007bffffffffffffffffffffffffffffffffffffffffffffffffffffffff1916827bffffffffffffffffffffffffffffffffffffffffffffffffffffffff1916145b9050919050565b5f8060019054906101000a900460ff16159050808015610a9e575060015f8054906101000a900460ff1660ff16105b80610aca5750610aad30612acb565b158015610ac9575060015f8054906101000a900460ff1660ff16145b5b610b09576040517f08c379a0000000000000000000000000000000000000000000000000000000008152600401610b0090616e38565b60405180910390fd5b60015f806101000a81548160ff021916908360ff1602179055508015610b445760015f60016101000a81548160ff0219169083151502179055505b610b4d83612aed565b610b55612bee565b610b5d612c46565b610b65612c9e565b8560ce5f6101000a81548167ffffffffffffffff021916908367ffffffffffffffff1602179055508460cc5f6101000a81548173ffffffffffffffffffffffffffffffffffffffff021916908373ffffffffffffffffffffffffffffffffffffffff1602179055508360cb5f6101000a81548173ffffffffffffffffffffffffffffffffffffffff021916908373ffffffffffffffffffffffffffffffffffffffff1602179055508373ffffffffffffffffffffffffffffffffffffffff1663095ea7b35f60029054906101000a900473ffffffffffffffffffffffffffffffffffffffff167fffffffffffffffffffffffffffffffffffffffffffffffffffffffffffffffff6040518363ffffffff1660e01b8152600401610c89929190616e56565b6020604051808303815f875af1158015610ca5573d5f803e3d5ffd5b505050506040513d601f19601f82011682018060405250810190610cc99190616ea7565b508160ce60086101000a81548173ffffffffffffffffffffffffffffffffffffffff021916908373ffffffffffffffffffffffffffffffffffffffff160217905550600a60cc60146101000a81548160ff021916908360ff1602179055504260cd819055503360d15f6101000a81548173ffffffffffffffffffffffffffffffffffffffff021916908373ffffffffffffffffffffffffffffffffffffffff1602179055508015610dc6575f8060016101000a81548160ff0219169083151502179055507f7f26b83ff96e1f2b6a682f133852f6798a09c465da95921460cefb38474024986001604051610dbd9190616f0b565b60405180910390a15b505050505050565b5f60ca5f9054906101000a900473ffffffffffffffffffffffffffffffffffffffff1673ffffffffffffffffffffffffffffffffffffffff166319da7e2a836040518263ffffffff1660e01b8152600401610e29919061667e565b602060405180830381865afa158015610e44573d5f803e3d5ffd5b505050506040513d601f19601f82011682018060405250810190610e689190616f38565b9050919050565b60d2602052805f5260405f205f91509050806001015490806002015f9054906101000a900473ffffffffffffffffffffffffffffffffffffffff1690806003015490806004015f9054906101000a900473ffffffffffffffffffffffffffffffffffffffff16908060050154905085565b5f60ca5f9054906101000a900473ffffffffffffffffffffffffffffffffffffffff1673ffffffffffffffffffffffffffffffffffffffff1663340fbc74836040518263ffffffff1660e01b8152600401610f3b919061667e565b602060405180830381865afa158015610f56573d5f803e3d5ffd5b505050506040513d601f19601f82011682018060405250810190610f7a9190616f38565b9050919050565b5f60ca5f9054906101000a900473ffffffffffffffffffffffffffffffffffffffff1673ffffffffffffffffffffffffffffffffffffffff16633c8da5886040518163ffffffff1660e01b8152600401602060405180830381865afa158015610fec573d5f803e3d5ffd5b505050506040513d601f19601f820116820180604052508101906110109190616f77565b905090565b60ce5f9054906101000a900467ffffffffffffffff1681565b60ce60089054906101000a900473ffffffffffffffffffffffffffffffffffffffff1681565b5f61106e8360cc60149054906101000a900460ff16612cf6565b90505f82828561107e9190616fcf565b6110889190616fcf565b9050803410156110cd576040517f08c379a00000000000000000000000000000000000000000000000000000000081526004016110c49061704c565b60405180910390fd5b60ce60089054906101000a900473ffffffffffffffffffffffffffffffffffffffff1673ffffffffffffffffffffffffffffffffffffffff1663d0e30db0826040518263ffffffff1660e01b81526004015f604051808303818588803b158015611135575f80fd5b505af1158015611147573d5f803e3d5ffd5b505050505060ce60089054906101000a900473ffffffffffffffffffffffffffffffffffffffff1673ffffffffffffffffffffffffffffffffffffffff1663a9059cbb60d15f9054906101000a900473ffffffffffffffffffffffffffffffffffffffff16846040518363ffffffff1660e01b81526004016111ca929190616e56565b6020604051808303815f875af11580156111e6573d5f803e3d5ffd5b505050506040513d601f19601f8201168201806040525081019061120a9190616ea7565b5060cf5f81548092919061121d9061706a565b91905055503360d25f60cf5481526020019081526020015f206002015f6101000a81548173ffffffffffffffffffffffffffffffffffffffff021916908373ffffffffffffffffffffffffffffffffffffffff1602179055508360d25f60cf5481526020019081526020015f206003018190555060ce60089054906101000a900473ffffffffffffffffffffffffffffffffffffffff1660d25f60cf5481526020019081526020015f206004015f6101000a81548173ffffffffffffffffffffffffffffffffffffffff021916908373ffffffffffffffffffffffffffffffffffffffff16021790555061133460ce60089054906101000a900473ffffffffffffffffffffffffffffffffffffffff168585612d1b565b50505050565b611342613013565b61a8c060cd544261135391906170b1565b1015611394576040517f08c379a000000000000000000000000000000000000000000000000000000000815260040161138b90617154565b60405180910390fd5b606460ff168160ff16111580156113b25750600160ff168160ff1610155b6113f1576040517f08c379a00000000000000000000000000000000000000000000000000000000081526004016113e8906171e2565b60405180910390fd5b8060cc60146101000a81548160ff021916908360ff1602179055504260cd8190555050565b600181565b611423613013565b61142c5f613091565b565b60cb5f9054906101000a900473ffffffffffffffffffffffffffffffffffffffff1681565b60d05481565b5f60029054906101000a900473ffffffffffffffffffffffffffffffffffffffff1673ffffffffffffffffffffffffffffffffffffffff163373ffffffffffffffffffffffffffffffffffffffff16146114ea57336040517fd7f733340000000000000000000000000000000000000000000000000000000081526004016114e19190616598565b60405180910390fd5b6114fc816114f790617420565b613154565b50565b5f60335f9054906101000a900473ffffffffffffffffffffffffffffffffffffffff16905090565b606481565b60cc60149054906101000a900460ff1681565b60cf5481565b5f8061155083610dce565b905060ca5f9054906101000a900473ffffffffffffffffffffffffffffffffffffffff1673ffffffffffffffffffffffffffffffffffffffff1663652354ae84836040518363ffffffff1660e01b81526004016115ae929190617432565b602060405180830381865afa1580156115c9573d5f803e3d5ffd5b505050506040513d601f19601f820116820180604052508101906115ed919061746d565b915050919050565b5f805f60ca5f9054906101000a900473ffffffffffffffffffffffffffffffffffffffff1673ffffffffffffffffffffffffffffffffffffffff166353fd43326040518163ffffffff1660e01b8152600401602060405180830381865afa158015611662573d5f803e3d5ffd5b505050506040513d601f19601f820116820180604052508101906116869190616f77565b90505f5b81811015611b13575f60ca5f9054906101000a900473ffffffffffffffffffffffffffffffffffffffff1673ffffffffffffffffffffffffffffffffffffffff16639932ba4c836040518263ffffffff1660e01b81526004016116ed9190616338565b602060405180830381865afa158015611708573d5f803e3d5ffd5b505050506040513d601f19601f8201168201806040525081019061172c9190616f38565b90505f60ca5f9054906101000a900473ffffffffffffffffffffffffffffffffffffffff1673ffffffffffffffffffffffffffffffffffffffff1663ea8ecf04836040518263ffffffff1660e01b81526004016117899190616598565b602060405180830381865afa1580156117a4573d5f803e3d5ffd5b505050506040513d601f19601f820116820180604052508101906117c891906174ac565b90505f60ca5f9054906101000a900473ffffffffffffffffffffffffffffffffffffffff1673ffffffffffffffffffffffffffffffffffffffff166332599665846040518263ffffffff1660e01b81526004016118259190616598565b602060405180830381865afa158015611840573d5f803e3d5ffd5b505050506040513d601f19601f82011682018060405250810190611864919061746d565b905060ce5f9054906101000a900467ffffffffffffffff1667ffffffffffffffff168267ffffffffffffffff1603611b035760ce60089054906101000a900473ffffffffffffffffffffffffffffffffffffffff1673ffffffffffffffffffffffffffffffffffffffff168373ffffffffffffffffffffffffffffffffffffffff1603611996578273ffffffffffffffffffffffffffffffffffffffff166370a0823160cc5f9054906101000a900473ffffffffffffffffffffffffffffffffffffffff166040518263ffffffff1660e01b81526004016119459190616598565b602060405180830381865afa158015611960573d5f803e3d5ffd5b505050506040513d601f19601f820116820180604052508101906119849190616f77565b8661198f9190616fcf565b9550611b02565b5f60ca5f9054906101000a900473ffffffffffffffffffffffffffffffffffffffff1673ffffffffffffffffffffffffffffffffffffffff1663dd811ac98560ce60089054906101000a900473ffffffffffffffffffffffffffffffffffffffff168773ffffffffffffffffffffffffffffffffffffffff166370a0823160cc5f9054906101000a900473ffffffffffffffffffffffffffffffffffffffff166040518263ffffffff1660e01b8152600401611a529190616598565b602060405180830381865afa158015611a6d573d5f803e3d5ffd5b505050506040513d601f19601f82011682018060405250810190611a919190616f77565b866040518563ffffffff1660e01b8152600401611ab194939291906174d7565b602060405180830381865afa158015611acc573d5f803e3d5ffd5b505050506040513d601f19601f82011682018060405250810190611af09190616f77565b90508087611afe9190616fcf565b9650505b5b505050808060010191505061168a565b50819250505090565b60d3602052805f5260405f205f91509050805f015490806001015490806002015f9054906101000a900473ffffffffffffffffffffffffffffffffffffffff1690806003015f9054906101000a900473ffffffffffffffffffffffffffffffffffffffff16908060030160149054906101000a900462ffffff16908060040154908060050154905087565b5f8060029054906101000a900473ffffffffffffffffffffffffffffffffffffffff16905090565b60d15f9054906101000a900473ffffffffffffffffffffffffffffffffffffffff1681565b611bfc613013565b5f73ffffffffffffffffffffffffffffffffffffffff168173ffffffffffffffffffffffffffffffffffffffff1603611c6a576040517f08c379a0000000000000000000000000000000000000000000000000000000008152600401611c619061758a565b60405180910390fd5b8060655f6101000a81548173ffffffffffffffffffffffffffffffffffffffff021916908373ffffffffffffffffffffffffffffffffffffffff16021790555050565b5f611cfe5f60029054906101000a900473ffffffffffffffffffffffffffffffffffffffff1660cb5f9054906101000a900473ffffffffffffffffffffffffffffffffffffffff168787878761325c565b9050949350505050565b60ca5f9054906101000a900473ffffffffffffffffffffffffffffffffffffffff1681565b5f670de0b6b3a7640000611d3f610f81565b83611d4a91906175a8565b611d549190617616565b9050919050565b61a8c081565b611d69613013565b8060ca5f6101000a81548173ffffffffffffffffffffffffffffffffffffffff021916908373ffffffffffffffffffffffffffffffffffffffff16021790555050565b5f60cc5f9054906101000a900473ffffffffffffffffffffffffffffffffffffffff1673ffffffffffffffffffffffffffffffffffffffff166318160ddd6040518163ffffffff1660e01b8152600401602060405180830381865afa158015611e17573d5f803e3d5ffd5b505050506040513d601f19601f82011682018060405250810190611e3b9190616f77565b670de0b6b3a764000086611e4f91906175a8565b611e599190617616565b9050600160d05f828254611e6d9190616fcf565b925050819055503360d35f60d05481526020019081526020015f206002015f6101000a81548173ffffffffffffffffffffffffffffffffffffffff021916908373ffffffffffffffffffffffffffffffffffffffff1602179055508260d35f60d05481526020019081526020015f206003015f6101000a81548173ffffffffffffffffffffffffffffffffffffffff021916908373ffffffffffffffffffffffffffffffffffffffff1602179055508160d35f60d05481526020019081526020015f2060030160146101000a81548162ffffff021916908362ffffff1602179055508460d35f60d05481526020019081526020015f206004018190555060cc5f9054906101000a900473ffffffffffffffffffffffffffffffffffffffff1673ffffffffffffffffffffffffffffffffffffffff16639dc29fac33876040518363ffffffff1660e01b8152600401611fc6929190616e56565b5f604051808303815f87803b158015611fdd575f80fd5b505af1158015611fef573d5f803e3d5ffd5b505050505f60ca5f9054906101000a900473ffffffffffffffffffffffffffffffffffffffff1673ffffffffffffffffffffffffffffffffffffffff166369487b1c6040518163ffffffff1660e01b8152600401602060405180830381865afa15801561205e573d5f803e3d5ffd5b505050506040513d601f19601f820116820180604052508101906120829190616f77565b90505f60ca5f9054906101000a900473ffffffffffffffffffffffffffffffffffffffff1673ffffffffffffffffffffffffffffffffffffffff1663b90b8a2a6040518163ffffffff1660e01b8152600401602060405180830381865afa1580156120ef573d5f803e3d5ffd5b505050506040513d601f19601f820116820180604052508101906121139190616f77565b90505f60ca5f9054906101000a900473ffffffffffffffffffffffffffffffffffffffff1673ffffffffffffffffffffffffffffffffffffffff1663d3f7f266836040518263ffffffff1660e01b81526004016121709190616338565b5f60405180830381865afa15801561218a573d5f803e3d5ffd5b505050506040513d5f823e3d601f19601f820116820180604052508101906121b29190617946565b93505050505f5b838110156122da575f8282815181106121d5576121d4617a1a565b5b602002602001015190505f60ca5f9054906101000a900473ffffffffffffffffffffffffffffffffffffffff1673ffffffffffffffffffffffffffffffffffffffff1663b6ad185b836040518263ffffffff1660e01b815260040161223a919061667e565b602060405180830381865afa158015612255573d5f803e3d5ffd5b505050506040513d601f19601f820116820180604052508101906122799190616f77565b905060ce5f9054906101000a900467ffffffffffffffff1667ffffffffffffffff168267ffffffffffffffff16036122bd576122b88760d05483613515565b6122cb565b6122ca8760d054846139bd565b5b505080806001019150506121b9565b503373ffffffffffffffffffffffffffffffffffffffff1660d05460d35f60d05481526020019081526020015f20600501547f4f9e9bfb3670784096375593cb821e86bd88b1fcb08efc38330012d8c33c3e36898c5f426040516123419493929190617a80565b60405180910390a45050505050505050565b60655f9054906101000a900473ffffffffffffffffffffffffffffffffffffffff1681565b600581565b5f8060029054906101000a900473ffffffffffffffffffffffffffffffffffffffff16905090565b5f60ca5f9054906101000a900473ffffffffffffffffffffffffffffffffffffffff1673ffffffffffffffffffffffffffffffffffffffff1663dd811ac9868686866040518563ffffffff1660e01b815260040161240694939291906174d7565b602060405180830381865afa158015612421573d5f803e3d5ffd5b505050506040513d601f19601f820116820180604052508101906124459190616f77565b9050949350505050565b60cc5f9054906101000a900473ffffffffffffffffffffffffffffffffffffffff1681565b5f60ca5f9054906101000a900473ffffffffffffffffffffffffffffffffffffffff1673ffffffffffffffffffffffffffffffffffffffff1663ee7bd3e2868686866040518563ffffffff1660e01b81526004016124d59493929190617ad2565b602060405180830381865afa1580156124f0573d5f803e3d5ffd5b505050506040513d601f19601f820116820180604052508101906125149190616f77565b9050949350505050565b612526613013565b8060d15f6101000a81548173ffffffffffffffffffffffffffffffffffffffff021916908373ffffffffffffffffffffffffffffffffffffffff16021790555050565b5f73ffffffffffffffffffffffffffffffffffffffff168173ffffffffffffffffffffffffffffffffffffffff16036125d7576040517f08c379a00000000000000000000000000000000000000000000000000000000081526004016125ce9061758a565b60405180910390fd5b60655f9054906101000a900473ffffffffffffffffffffffffffffffffffffffff1673ffffffffffffffffffffffffffffffffffffffff168173ffffffffffffffffffffffffffffffffffffffff1614612666576040517f08c379a000000000000000000000000000000000000000000000000000000000815260040161265d90617b85565b60405180910390fd5b3373ffffffffffffffffffffffffffffffffffffffff168173ffffffffffffffffffffffffffffffffffffffff16146126d4576040517f08c379a00000000000000000000000000000000000000000000000000000000081526004016126cb90617c13565b60405180910390fd5b6126dd81613091565b50565b5f60ca5f9054906101000a900473ffffffffffffffffffffffffffffffffffffffff1673ffffffffffffffffffffffffffffffffffffffff16633fc8cef36040518163ffffffff1660e01b8152600401602060405180830381865afa15801561274b573d5f803e3d5ffd5b505050506040513d601f19601f8201168201806040525081019061276f9190617c6c565b90505f60ca5f9054906101000a900473ffffffffffffffffffffffffffffffffffffffff1673ffffffffffffffffffffffffffffffffffffffff1663fbfa77cf6040518163ffffffff1660e01b8152600401602060405180830381865afa1580156127dc573d5f803e3d5ffd5b505050506040513d601f19601f820116820180604052508101906128009190617cd2565b90505f61281c8660cc60149054906101000a900460ff16612cf6565b90508673ffffffffffffffffffffffffffffffffffffffff166323b872dd3330848a6128489190616fcf565b6040518463ffffffff1660e01b815260040161286693929190617cfd565b6020604051808303815f875af1158015612882573d5f803e3d5ffd5b505050506040513d601f19601f820116820180604052508101906128a69190616ea7565b6128e5576040517f08c379a00000000000000000000000000000000000000000000000000000000081526004016128dc90617d7c565b60405180910390fd5b5f6128fe8885848a6128f79190616fcf565b3089613d14565b90505f61271060cc60149054906101000a900460ff1660ff168361292291906175a8565b61292c9190617616565b90505f818361293b91906170b1565b90508573ffffffffffffffffffffffffffffffffffffffff1663a9059cbb60d15f9054906101000a900473ffffffffffffffffffffffffffffffffffffffff16846040518363ffffffff1660e01b8152600401612999929190616e56565b6020604051808303815f875af11580156129b5573d5f803e3d5ffd5b505050506040513d601f19601f820116820180604052508101906129d99190616ea7565b5060cf5f8154809291906129ec9061706a565b91905055503360d25f60cf5481526020019081526020015f206002015f6101000a81548173ffffffffffffffffffffffffffffffffffffffff021916908373ffffffffffffffffffffffffffffffffffffffff1602179055508860d25f60cf5481526020019081526020015f20600301819055508960d25f60cf5481526020019081526020015f206004015f6101000a81548173ffffffffffffffffffffffffffffffffffffffff021916908373ffffffffffffffffffffffffffffffffffffffff160217905550612abf8a828a612d1b565b50505050505050505050565b5f808273ffffffffffffffffffffffffffffffffffffffff163b119050919050565b5f60019054906101000a900460ff16612b3b576040517f08c379a0000000000000000000000000000000000000000000000000000000008152600401612b3290617e0a565b60405180910390fd5b5f73ffffffffffffffffffffffffffffffffffffffff168173ffffffffffffffffffffffffffffffffffffffff1603612bab575f6040517fd7f73334000000000000000000000000000000000000000000000000000000008152600401612ba29190616598565b60405180910390fd5b805f60026101000a81548173ffffffffffffffffffffffffffffffffffffffff021916908373ffffffffffffffffffffffffffffffffffffffff16021790555050565b5f60019054906101000a900460ff16612c3c576040517f08c379a0000000000000000000000000000000000000000000000000000000008152600401612c3390617e0a565b60405180910390fd5b612c44613e53565b565b5f60019054906101000a900460ff16612c94576040517f08c379a0000000000000000000000000000000000000000000000000000000008152600401612c8b90617e0a565b60405180910390fd5b612c9c612c9e565b565b5f60019054906101000a900460ff16612cec576040517f08c379a0000000000000000000000000000000000000000000000000000000008152600401612ce390617e0a565b60405180910390fd5b6001609881905550565b5f6127108260ff1684612d0991906175a8565b612d139190617616565b905092915050565b5f8290505f60ca5f9054906101000a900473ffffffffffffffffffffffffffffffffffffffff1673ffffffffffffffffffffffffffffffffffffffff166369487b1c6040518163ffffffff1660e01b8152600401602060405180830381865afa158015612d8a573d5f803e3d5ffd5b505050506040513d601f19601f82011682018060405250810190612dae9190616f77565b90505f60ca5f9054906101000a900473ffffffffffffffffffffffffffffffffffffffff1673ffffffffffffffffffffffffffffffffffffffff1663b90b8a2a6040518163ffffffff1660e01b8152600401602060405180830381865afa158015612e1b573d5f803e3d5ffd5b505050506040513d601f19601f82011682018060405250810190612e3f9190616f77565b90505f60ca5f9054906101000a900473ffffffffffffffffffffffffffffffffffffffff1673ffffffffffffffffffffffffffffffffffffffff1663d3f7f266836040518263ffffffff1660e01b8152600401612e9c9190616338565b5f60405180830381865afa158015612eb6573d5f803e3d5ffd5b505050506040513d5f823e3d601f19601f82011682018060405250810190612ede9190617946565b93505050505f5b83811015613009575f828281518110612f0157612f00617a1a565b5b602002602001015190505f60ca5f9054906101000a900473ffffffffffffffffffffffffffffffffffffffff1673ffffffffffffffffffffffffffffffffffffffff1663b6ad185b836040518263ffffffff1660e01b8152600401612f66919061667e565b602060405180830381865afa158015612f81573d5f803e3d5ffd5b505050506040513d601f19601f82011682018060405250810190612fa59190616f77565b905060ce5f9054906101000a900467ffffffffffffffff1667ffffffffffffffff168267ffffffffffffffff1603612feb57612fe68760cf54838589613eb3565b612ffa565b612ff98760cf5484886146e0565b5b50508080600101915050612ee5565b5050505050505050565b61301b614c91565b73ffffffffffffffffffffffffffffffffffffffff166130396114ff565b73ffffffffffffffffffffffffffffffffffffffff161461308f576040517f08c379a000000000000000000000000000000000000000000000000000000000815260040161308690617e72565b60405180910390fd5b565b5f60335f9054906101000a900473ffffffffffffffffffffffffffffffffffffffff1690508160335f6101000a81548173ffffffffffffffffffffffffffffffffffffffff021916908373ffffffffffffffffffffffffffffffffffffffff1602179055508173ffffffffffffffffffffffffffffffffffffffff168173ffffffffffffffffffffffffffffffffffffffff167f8be0079c531659141344cd1fd0a4f28419497f9722a3daafe3b4186f6b6457e060405160405180910390a35050565b5f815f015190505f826020015190505f60ca5f9054906101000a900473ffffffffffffffffffffffffffffffffffffffff1673ffffffffffffffffffffffffffffffffffffffff166353fd43326040518163ffffffff1660e01b8152600401602060405180830381865afa1580156131ce573d5f803e3d5ffd5b505050506040513d601f19601f820116820180604052508101906131f29190616f77565b90505f805f805f8089606001518060200190518101906132129190617e90565b9550955095509550955095505f860361323857613233838684848b8e614c98565b613250565b6001860361324f5761324e838b878a8c8e614e2c565b5b5b50505050505050505050565b5f806040518060a001604052808660405160200161327a9190616598565b60405160208183030381529060405281526020018581526020015f67ffffffffffffffff8111156132ae576132ad616921565b5b6040519080825280602002602001820160405280156132e757816020015b6132d46162c3565b8152602001906001900390816132cc5790505b508152602001600180811115613300576132ff617f89565b5b85600181111561331357613312617f89565b5b1461331e575f613320565b885b73ffffffffffffffffffffffffffffffffffffffff1681526020016133556040518060200160405280622dc6c0815250614f36565b81525090505f8873ffffffffffffffffffffffffffffffffffffffff166320487ded88846040518363ffffffff1660e01b8152600401613396929190618191565b602060405180830381865afa1580156133b1573d5f803e3d5ffd5b505050506040513d601f19601f820116820180604052508101906133d59190616f77565b90505f6001808111156133eb576133ea617f89565b5b8560018111156133fe576133fd617f89565b5b03613485578973ffffffffffffffffffffffffffffffffffffffff166396f4e9f989856040518363ffffffff1660e01b815260040161343e929190618191565b6020604051808303815f875af115801561345a573d5f803e3d5ffd5b505050506040513d601f19601f8201168201806040525081019061347e91906181d3565b9050613505565b8973ffffffffffffffffffffffffffffffffffffffff166396f4e9f9838a866040518463ffffffff1660e01b81526004016134c1929190618191565b60206040518083038185885af11580156134dd573d5f803e3d5ffd5b50505050506040513d601f19601f8201168201806040525081019061350291906181d3565b90505b8093505050509695505050505050565b5f60ca5f9054906101000a900473ffffffffffffffffffffffffffffffffffffffff1673ffffffffffffffffffffffffffffffffffffffff1663d1c68aa360ce5f9054906101000a900467ffffffffffffffff166040518263ffffffff1660e01b8152600401613585919061667e565b5f60405180830381865afa15801561359f573d5f803e3d5ffd5b505050506040513d5f823e3d601f19601f820116820180604052508101906135c791906181fe565b90505f60ca5f9054906101000a900473ffffffffffffffffffffffffffffffffffffffff1673ffffffffffffffffffffffffffffffffffffffff1663fbfa77cf6040518163ffffffff1660e01b8152600401602060405180830381865afa158015613634573d5f803e3d5ffd5b505050506040513d601f19601f820116820180604052508101906136589190617cd2565b90505f5b838110156139b5575f83828151811061367857613677617a1a565b5b602002602001015190505f60ca5f9054906101000a900473ffffffffffffffffffffffffffffffffffffffff1673ffffffffffffffffffffffffffffffffffffffff166332599665836040518263ffffffff1660e01b81526004016136dd9190616598565b602060405180830381865afa1580156136f8573d5f803e3d5ffd5b505050506040513d601f19601f8201168201806040525081019061371c919061746d565b90505f670de0b6b3a76400008373ffffffffffffffffffffffffffffffffffffffff166370a0823160ca5f9054906101000a900473ffffffffffffffffffffffffffffffffffffffff1673ffffffffffffffffffffffffffffffffffffffff1663fbfa77cf6040518163ffffffff1660e01b8152600401602060405180830381865afa1580156137ae573d5f803e3d5ffd5b505050506040513d601f19601f820116820180604052508101906137d29190617cd2565b6040518263ffffffff1660e01b81526004016137ee9190616598565b602060405180830381865afa158015613809573d5f803e3d5ffd5b505050506040513d601f19601f8201168201806040525081019061382d9190616f77565b8a61383891906175a8565b6138429190617616565b90508473ffffffffffffffffffffffffffffffffffffffff16631c20fadd8430846040518463ffffffff1660e01b815260040161388193929190617cfd565b6020604051808303815f875af115801561389d573d5f803e3d5ffd5b505050506040513d601f19601f820116820180604052508101906138c19190616ea7565b505f60ce60089054906101000a900473ffffffffffffffffffffffffffffffffffffffff1673ffffffffffffffffffffffffffffffffffffffff168473ffffffffffffffffffffffffffffffffffffffff161461394c576139478460ce60089054906101000a900473ffffffffffffffffffffffffffffffffffffffff16843087613d14565b61394e565b815b90508060d35f8b81526020019081526020015f205f015f8282546139729190616fcf565b92505081905550600160d35f8b81526020019081526020015f206001015f82825461399d9190616fcf565b9250508190555050505050808060010191505061365c565b505050505050565b5f6139c782610ee0565b90505f60ca5f9054906101000a900473ffffffffffffffffffffffffffffffffffffffff1673ffffffffffffffffffffffffffffffffffffffff1663d1c68aa3846040518263ffffffff1660e01b8152600401613a24919061667e565b5f60405180830381865afa158015613a3e573d5f803e3d5ffd5b505050506040513d5f823e3d601f19601f82011682018060405250810190613a6691906181fe565b90505f60ca5f9054906101000a900473ffffffffffffffffffffffffffffffffffffffff1673ffffffffffffffffffffffffffffffffffffffff1663221f3371856040518263ffffffff1660e01b8152600401613ac3919061667e565b5f60405180830381865afa158015613add573d5f803e3d5ffd5b505050506040513d5f823e3d601f19601f82011682018060405250810190613b059190618245565b90505f60ca5f9054906101000a900473ffffffffffffffffffffffffffffffffffffffff1673ffffffffffffffffffffffffffffffffffffffff1663af696b34866040518263ffffffff1660e01b8152600401613b62919061667e565b5f60405180830381865afa158015613b7c573d5f803e3d5ffd5b505050506040513d5f823e3d601f19601f82011682018060405250810190613ba49190618245565b90505f8067ffffffffffffffff811115613bc157613bc0616921565b5b604051908082528060200260200182016040528015613bef5781602001602082028036833780820191505090505b5090505f8067ffffffffffffffff811115613c0d57613c0c616921565b5b604051908082528060200260200182016040528015613c3b5781602001602082028036833780820191505090505b5090505f600167ffffffffffffffff811115613c5a57613c59616921565b5b604051908082528060200260200182016040528015613c885781602001602082028036833780820191505090505b50905089815f81518110613c9f57613c9e617a1a565b5b6020026020010181815250505f6001878588868e8a88604051602001613ccc9897969594939291906183dc565b60405160208183030381529060405290505f613ceb8a8a846001611cad565b90508060d35f8d81526020019081526020015f2060050181905550505050505050505050505050565b5f8060ca5f9054906101000a900473ffffffffffffffffffffffffffffffffffffffff1673ffffffffffffffffffffffffffffffffffffffff1663b631e80b6040518163ffffffff1660e01b8152600401602060405180830381865afa158015613d80573d5f803e3d5ffd5b505050506040513d601f19601f82011682018060405250810190613da491906184bd565b90505f60ca5f9054906101000a900473ffffffffffffffffffffffffffffffffffffffff1673ffffffffffffffffffffffffffffffffffffffff1663744fbc7a6040518163ffffffff1660e01b8152600401602060405180830381865afa158015613e11573d5f803e3d5ffd5b505050506040513d601f19601f82011682018060405250810190613e359190618523565b9050613e468282868b8b8b8b614fb5565b9250505095945050505050565b5f60019054906101000a900460ff16613ea1576040517f08c379a0000000000000000000000000000000000000000000000000000000008152600401613e9890617e0a565b60405180910390fd5b613eb1613eac614c91565b613091565b565b5f60ca5f9054906101000a900473ffffffffffffffffffffffffffffffffffffffff1673ffffffffffffffffffffffffffffffffffffffff1663d1c68aa3846040518263ffffffff1660e01b8152600401613f0e919061667e565b5f60405180830381865afa158015613f28573d5f803e3d5ffd5b505050506040513d5f823e3d601f19601f82011682018060405250810190613f5091906181fe565b90505f5b848110156146d7575f828281518110613f7057613f6f617a1a565b5b602002602001015190505f60ca5f9054906101000a900473ffffffffffffffffffffffffffffffffffffffff1673ffffffffffffffffffffffffffffffffffffffff166332599665836040518263ffffffff1660e01b8152600401613fd59190616598565b602060405180830381865afa158015613ff0573d5f803e3d5ffd5b505050506040513d601f19601f82011682018060405250810190614014919061746d565b90505f60ca5f9054906101000a900473ffffffffffffffffffffffffffffffffffffffff1673ffffffffffffffffffffffffffffffffffffffff16630be52713846040518263ffffffff1660e01b81526004016140719190616598565b602060405180830381865afa15801561408c573d5f803e3d5ffd5b505050506040513d601f19601f820116820180604052508101906140b09190616f77565b90505f60ce60089054906101000a900473ffffffffffffffffffffffffffffffffffffffff1673ffffffffffffffffffffffffffffffffffffffff168473ffffffffffffffffffffffffffffffffffffffff16146142475761424261423d8560ce60089054906101000a900473ffffffffffffffffffffffffffffffffffffffff168773ffffffffffffffffffffffffffffffffffffffff166370a0823160ca5f9054906101000a900473ffffffffffffffffffffffffffffffffffffffff1673ffffffffffffffffffffffffffffffffffffffff1663fbfa77cf6040518163ffffffff1660e01b8152600401602060405180830381865afa1580156141b8573d5f803e3d5ffd5b505050506040513d601f19601f820116820180604052508101906141dc9190617cd2565b6040518263ffffffff1660e01b81526004016141f89190616598565b602060405180830381865afa158015614213573d5f803e3d5ffd5b505050506040513d601f19601f820116820180604052508101906142379190616f77565b876123a5565b611d2d565b614355565b6143548473ffffffffffffffffffffffffffffffffffffffff166370a0823160ca5f9054906101000a900473ffffffffffffffffffffffffffffffffffffffff1673ffffffffffffffffffffffffffffffffffffffff1663fbfa77cf6040518163ffffffff1660e01b8152600401602060405180830381865afa1580156142d0573d5f803e3d5ffd5b505050506040513d601f19601f820116820180604052508101906142f49190617cd2565b6040518263ffffffff1660e01b81526004016143109190616598565b602060405180830381865afa15801561432b573d5f803e3d5ffd5b505050506040513d601f19601f8201168201806040525081019061434f9190616f77565b611d2d565b5b90508060d25f8c81526020019081526020015f205f015f8673ffffffffffffffffffffffffffffffffffffffff1673ffffffffffffffffffffffffffffffffffffffff1681526020019081526020015f205f01819055505f68056bc75e2d63100000838d6143c391906175a8565b6143cd9190617616565b905060ce60089054906101000a900473ffffffffffffffffffffffffffffffffffffffff1673ffffffffffffffffffffffffffffffffffffffff168573ffffffffffffffffffffffffffffffffffffffff16146144e6576144e060ce60089054906101000a900473ffffffffffffffffffffffffffffffffffffffff16868360ca5f9054906101000a900473ffffffffffffffffffffffffffffffffffffffff1673ffffffffffffffffffffffffffffffffffffffff1663fbfa77cf6040518163ffffffff1660e01b8152600401602060405180830381865afa1580156144b6573d5f803e3d5ffd5b505050506040513d601f19601f820116820180604052508101906144da9190617cd2565b88613d14565b50614612565b60ce60089054906101000a900473ffffffffffffffffffffffffffffffffffffffff1673ffffffffffffffffffffffffffffffffffffffff1663a9059cbb60ca5f9054906101000a900473ffffffffffffffffffffffffffffffffffffffff1673ffffffffffffffffffffffffffffffffffffffff1663fbfa77cf6040518163ffffffff1660e01b8152600401602060405180830381865afa15801561458e573d5f803e3d5ffd5b505050506040513d601f19601f820116820180604052508101906145b29190617cd2565b836040518363ffffffff1660e01b81526004016145d0929190616e56565b6020604051808303815f875af11580156145ec573d5f803e3d5ffd5b505050506040513d601f19601f820116820180604052508101906146109190616ea7565b505b61463a68056bc75e2d63100000848e61462b91906175a8565b6146359190617616565b611d2d565b826146459190616fcf565b60d25f8d81526020019081526020015f205f015f8773ffffffffffffffffffffffffffffffffffffffff1673ffffffffffffffffffffffffffffffffffffffff1681526020019081526020015f2060010181905550600160d25f8d81526020019081526020015f206001015f8282546146be9190616fcf565b9250508190555050505050508080600101915050613f54565b50505050505050565b6146e86162f1565b5f60ca5f9054906101000a900473ffffffffffffffffffffffffffffffffffffffff1673ffffffffffffffffffffffffffffffffffffffff16632a3ff8ad84866040518363ffffffff1660e01b815260040161474592919061854e565b602060405180830381865afa158015614760573d5f803e3d5ffd5b505050506040513d601f19601f820116820180604052508101906147849190616f77565b90505f600167ffffffffffffffff8111156147a2576147a1616921565b5b6040519080825280602002602001820160405280156147d05781602001602082028036833780820191505090505b50905081815f815181106147e7576147e6617a1a565b5b6020026020010181815250505f61486c60ce60089054906101000a900473ffffffffffffffffffffffffffffffffffffffff1661482388610dce565b68056bc75e2d63100000855f815181106148405761483f617a1a565b5b60200260200101518c61485391906175a8565b61485d9190617616565b306148678b611545565b613d14565b90505f61487887610ee0565b905060ca5f9054906101000a900473ffffffffffffffffffffffffffffffffffffffff1673ffffffffffffffffffffffffffffffffffffffff1663d1c68aa3886040518263ffffffff1660e01b81526004016148d4919061667e565b5f60405180830381865afa1580156148ee573d5f803e3d5ffd5b505050506040513d5f823e3d601f19601f8201168201806040525081019061491691906181fe565b855f018190525060ca5f9054906101000a900473ffffffffffffffffffffffffffffffffffffffff1673ffffffffffffffffffffffffffffffffffffffff1663221f3371886040518263ffffffff1660e01b8152600401614977919061667e565b5f60405180830381865afa158015614991573d5f803e3d5ffd5b505050506040513d5f823e3d601f19601f820116820180604052508101906149b99190618245565b856020018190525060ca5f9054906101000a900473ffffffffffffffffffffffffffffffffffffffff1673ffffffffffffffffffffffffffffffffffffffff1663af696b34886040518263ffffffff1660e01b8152600401614a1b919061667e565b5f60405180830381865afa158015614a35573d5f803e3d5ffd5b505050506040513d5f823e3d601f19601f82011682018060405250810190614a5d9190618245565b85604001819052505f67ffffffffffffffff811115614a7f57614a7e616921565b5b604051908082528060200260200182016040528015614aad5781602001602082028036833780820191505090505b5085606001819052505f67ffffffffffffffff811115614ad057614acf616921565b5b604051908082528060200260200182016040528015614afe5781602001602082028036833780820191505090505b5085608001819052505f600167ffffffffffffffff811115614b2357614b22616921565b5b604051908082528060200260200182016040528015614b5c57816020015b614b496162c3565b815260200190600190039081614b415790505b509050614b6888610dce565b815f81518110614b7b57614b7a617a1a565b5b60200260200101515f019073ffffffffffffffffffffffffffffffffffffffff16908173ffffffffffffffffffffffffffffffffffffffff168152505082815f81518110614bcc57614bcb617a1a565b5b602002602001015160200181815250505f80875f0151886060015189602001518a608001518e8c604001518b604051602001614c0f9897969594939291906185a5565b60405160208183030381529060405290505f614c2f8a8386866001614ff3565b90507f54791b38f3859327992a1ca0590ad3c0f08feba98d1a4f56ab0dca74d203392a81604051614c609190616ae8565b60405180910390a18060d25f60cf5481526020019081526020015f2060050181905550505050505050505050505050565b5f33905090565b5f8690505f5b8651811015614dfc575f868281518110614cbb57614cba617a1a565b5b602002602001015190505f868381518110614cd957614cd8617a1a565b5b602002602001015190508160d25f8681526020019081526020015f205f015f8b8681518110614d0b57614d0a617a1a565b5b602002602001015173ffffffffffffffffffffffffffffffffffffffff1673ffffffffffffffffffffffffffffffffffffffff1681526020019081526020015f205f01819055508060d25f8681526020019081526020015f205f015f8b8681518110614d7a57614d79617a1a565b5b602002602001015173ffffffffffffffffffffffffffffffffffffffff1673ffffffffffffffffffffffffffffffffffffffff1681526020019081526020015f2060010181905550600160d25f8681526020019081526020015f206001015f828254614de69190616fcf565b9250508190555050508080600101915050614c9e565b508260d25f8381526020019081526020015f206001015403614e2357614e22818361509e565b5b50505050505050565b5f8690505f866080015190505f815f81518110614e4c57614e4b617a1a565b5b60200260200101515f015190505f825f81518110614e6d57614e6c617a1a565b5b60200260200101516020015190505f614ead8360ce60089054906101000a900473ffffffffffffffffffffffffffffffffffffffff168430610bb8613d14565b90508060d35f8781526020019081526020015f205f015f828254614ed19190616fcf565b92505081905550885160d35f8781526020019081526020015f206001015f828254614efc9190616fcf565b925050819055508760d35f8781526020019081526020015f206001015403614f2957614f288587615620565b5b5050505050505050505050565b60606397a657c960e01b82604051602401614f519190618665565b604051602081830303815290604052907bffffffffffffffffffffffffffffffffffffffffffffffffffffffff19166020820180517bffffffffffffffffffffffffffffffffffffffffffffffffffffffff83818316178352505050509050919050565b5f808662ffffff161115614fd857614fd1888787878787615a6f565b9050614fe8565b614fe58786868686615c19565b90505b979650505050505050565b5f614ffc615e97565b5f6150505f60029054906101000a900473ffffffffffffffffffffffffffffffffffffffff1660cb5f9054906101000a900473ffffffffffffffffffffffffffffffffffffffff1660058a8a8a8a8a615ee6565b90507f54791b38f3859327992a1ca0590ad3c0f08feba98d1a4f56ab0dca74d203392a816040516150819190616ae8565b60405180910390a1809150506150956162b9565b95945050505050565b5f805f60ca5f9054906101000a900473ffffffffffffffffffffffffffffffffffffffff1673ffffffffffffffffffffffffffffffffffffffff166353fd43326040518163ffffffff1660e01b8152600401602060405180830381865afa15801561510b573d5f803e3d5ffd5b505050506040513d601f19601f8201168201806040525081019061512f9190616f77565b90505f5b818110156152a2575f60ca5f9054906101000a900473ffffffffffffffffffffffffffffffffffffffff1673ffffffffffffffffffffffffffffffffffffffff16639932ba4c836040518263ffffffff1660e01b81526004016151969190616338565b602060405180830381865afa1580156151b1573d5f803e3d5ffd5b505050506040513d601f19601f820116820180604052508101906151d59190616f38565b905060d25f8881526020019081526020015f205f015f8273ffffffffffffffffffffffffffffffffffffffff1673ffffffffffffffffffffffffffffffffffffffff1681526020019081526020015f205f0154856152339190616fcf565b945060d25f8881526020019081526020015f205f015f8273ffffffffffffffffffffffffffffffffffffffff1673ffffffffffffffffffffffffffffffffffffffff1681526020019081526020015f2060010154846152929190616fcf565b9350508080600101915050615133565b505f8060cc5f9054906101000a900473ffffffffffffffffffffffffffffffffffffffff1673ffffffffffffffffffffffffffffffffffffffff166318160ddd6040518163ffffffff1660e01b8152600401602060405180830381865afa15801561530f573d5f803e3d5ffd5b505050506040513d601f19601f820116820180604052508101906153339190616f77565b111561547c5760cc5f9054906101000a900473ffffffffffffffffffffffffffffffffffffffff1673ffffffffffffffffffffffffffffffffffffffff166318160ddd6040518163ffffffff1660e01b8152600401602060405180830381865afa1580156153a3573d5f803e3d5ffd5b505050506040513d601f19601f820116820180604052508101906153c79190616f77565b848460cc5f9054906101000a900473ffffffffffffffffffffffffffffffffffffffff1673ffffffffffffffffffffffffffffffffffffffff166318160ddd6040518163ffffffff1660e01b8152600401602060405180830381865afa158015615433573d5f803e3d5ffd5b505050506040513d601f19601f820116820180604052508101906154579190616f77565b61546191906175a8565b61546b9190617616565b61547591906170b1565b905061548c565b60648361548991906175a8565b90505b60cc5f9054906101000a900473ffffffffffffffffffffffffffffffffffffffff1673ffffffffffffffffffffffffffffffffffffffff166340c10f1960d25f8981526020019081526020015f206002015f9054906101000a900473ffffffffffffffffffffffffffffffffffffffff16836040518363ffffffff1660e01b815260040161551b929190616e56565b5f604051808303815f87803b158015615532575f80fd5b505af1158015615544573d5f803e3d5ffd5b5050505060d25f8781526020019081526020015f206002015f9054906101000a900473ffffffffffffffffffffffffffffffffffffffff1673ffffffffffffffffffffffffffffffffffffffff1686867f4d3128af979c46a863cd489a3d0959d5d22181cdbdb1949b40cadfcdac0a1d3860d25f8b81526020019081526020015f206004015f9054906101000a900473ffffffffffffffffffffffffffffffffffffffff1660d25f8c81526020019081526020015f20600301548642604051615610949392919061867e565b60405180910390a4505050505050565b5f60d35f8481526020019081526020015f205f015490505f60d35f8581526020019081526020015f206002015f9054906101000a900473ffffffffffffffffffffffffffffffffffffffff1690505f60d35f8681526020019081526020015f206003015f9054906101000a900473ffffffffffffffffffffffffffffffffffffffff1690505f60d35f8781526020019081526020015f2060030160149054906101000a900462ffffff1690505f6156e68560cc60149054906101000a900460ff16612cf6565b905060ce60089054906101000a900473ffffffffffffffffffffffffffffffffffffffff1673ffffffffffffffffffffffffffffffffffffffff1663a9059cbb60d15f9054906101000a900473ffffffffffffffffffffffffffffffffffffffff16836040518363ffffffff1660e01b8152600401615766929190616e56565b6020604051808303815f875af1158015615782573d5f803e3d5ffd5b505050506040513d601f19601f820116820180604052508101906157a69190616ea7565b5060ce60089054906101000a900473ffffffffffffffffffffffffffffffffffffffff1673ffffffffffffffffffffffffffffffffffffffff168373ffffffffffffffffffffffffffffffffffffffff16036159bd5760ce60089054906101000a900473ffffffffffffffffffffffffffffffffffffffff1673ffffffffffffffffffffffffffffffffffffffff16632e1a7d4d828761584691906170b1565b6040518263ffffffff1660e01b81526004016158629190616338565b5f604051808303815f87803b158015615879575f80fd5b505af115801561588b573d5f803e3d5ffd5b505050505f8473ffffffffffffffffffffffffffffffffffffffff1682876158b391906170b1565b6040516158bf906186ee565b5f6040518083038185875af1925050503d805f81146158f9576040519150601f19603f3d011682016040523d82523d5f602084013e6158fe565b606091505b5050905080615942576040517f08c379a000000000000000000000000000000000000000000000000000000000815260040161593990618772565b60405180910390fd5b8473ffffffffffffffffffffffffffffffffffffffff1688887f476778ca38557db6dc935a57ece5bd93fbaca20183fadf86d7a1d2b85df65e018760d35f8e81526020019081526020015f2060040154878c61599e91906170b1565b426040516159af949392919061867e565b60405180910390a450615a66565b5f6159f860ce60089054906101000a900473ffffffffffffffffffffffffffffffffffffffff168584896159f191906170b1565b8887613d14565b90508473ffffffffffffffffffffffffffffffffffffffff1688887f476778ca38557db6dc935a57ece5bd93fbaca20183fadf86d7a1d2b85df65e018760d35f8e81526020019081526020015f20600401548642604051615a5c949392919061867e565b60405180910390a4505b50505050505050565b5f8473ffffffffffffffffffffffffffffffffffffffff1663095ea7b388856040518363ffffffff1660e01b8152600401615aab929190616e56565b6020604051808303815f875af1158015615ac7573d5f803e3d5ffd5b505050506040513d601f19601f82011682018060405250810190615aeb9190616ea7565b505f6040518061010001604052808773ffffffffffffffffffffffffffffffffffffffff1681526020018673ffffffffffffffffffffffffffffffffffffffff1681526020018862ffffff1681526020018473ffffffffffffffffffffffffffffffffffffffff16815260200161012c42615b669190616fcf565b81526020018581526020015f81526020015f73ffffffffffffffffffffffffffffffffffffffff1681525090508773ffffffffffffffffffffffffffffffffffffffff1663414bf389826040518263ffffffff1660e01b8152600401615bcc919061884e565b6020604051808303815f875af1158015615be8573d5f803e3d5ffd5b505050506040513d601f19601f82011682018060405250810190615c0c9190616f77565b9150509695505050505050565b5f80600267ffffffffffffffff811115615c3657615c35616921565b5b604051908082528060200260200182016040528015615c645781602001602082028036833780820191505090505b50905085815f81518110615c7b57615c7a617a1a565b5b602002602001019073ffffffffffffffffffffffffffffffffffffffff16908173ffffffffffffffffffffffffffffffffffffffff16815250508481600181518110615cca57615cc9617a1a565b5b602002602001019073ffffffffffffffffffffffffffffffffffffffff16908173ffffffffffffffffffffffffffffffffffffffff16815250505f8773ffffffffffffffffffffffffffffffffffffffff1663d06ca61f86846040518363ffffffff1660e01b8152600401615d40929190618868565b5f60405180830381865afa158015615d5a573d5f803e3d5ffd5b505050506040513d5f823e3d601f19601f82011682018060405250810190615d829190618245565b90508673ffffffffffffffffffffffffffffffffffffffff1663095ea7b389876040518363ffffffff1660e01b8152600401615dbf929190616e56565b6020604051808303815f875af1158015615ddb573d5f803e3d5ffd5b505050506040513d601f19601f82011682018060405250810190615dff9190616ea7565b508773ffffffffffffffffffffffffffffffffffffffff16635c11d795865f8588426040518663ffffffff1660e01b8152600401615e41959493929190618896565b5f604051808303815f87803b158015615e58575f80fd5b505af1158015615e6a573d5f803e3d5ffd5b5050505080600181518110615e8257615e81617a1a565b5b60200260200101519250505095945050505050565b600260985403615edc576040517f08c379a0000000000000000000000000000000000000000000000000000000008152600401615ed390618938565b60405180910390fd5b6002609881905550565b5f80835190508761ffff16811115615f33576040517f08c379a0000000000000000000000000000000000000000000000000000000008152600401615f2a906189c6565b60405180910390fd5b5f5b81811015616050578973ffffffffffffffffffffffffffffffffffffffff16858281518110615f6757615f66617a1a565b5b60200260200101515f015173ffffffffffffffffffffffffffffffffffffffff161461604557848181518110615fa057615f9f617a1a565b5b60200260200101515f015173ffffffffffffffffffffffffffffffffffffffff1663095ea7b38c878481518110615fda57615fd9617a1a565b5b6020026020010151602001516040518363ffffffff1660e01b8152600401616003929190616e56565b6020604051808303815f875af115801561601f573d5f803e3d5ffd5b505050506040513d601f19601f820116820180604052508101906160439190616ea7565b505b806001019050615f35565b505f6040518060a001604052808760405160200161606e9190616598565b60405160208183030381529060405281526020018881526020018681526020016001808111156160a1576160a0617f89565b5b8660018111156160b4576160b3617f89565b5b146160bf575f6160c1565b8b5b73ffffffffffffffffffffffffffffffffffffffff1681526020016160f66040518060200160405280622dc6c0815250614f36565b81525090505f8b73ffffffffffffffffffffffffffffffffffffffff166320487ded8a846040518363ffffffff1660e01b8152600401616137929190618191565b602060405180830381865afa158015616152573d5f803e3d5ffd5b505050506040513d601f19601f820116820180604052508101906161769190616f77565b90505f60018081111561618c5761618b617f89565b5b86600181111561619f5761619e617f89565b5b03616226578c73ffffffffffffffffffffffffffffffffffffffff166396f4e9f98b856040518363ffffffff1660e01b81526004016161df929190618191565b6020604051808303815f875af11580156161fb573d5f803e3d5ffd5b505050506040513d601f19601f8201168201806040525081019061621f91906181d3565b90506162a6565b8c73ffffffffffffffffffffffffffffffffffffffff166396f4e9f9838c866040518463ffffffff1660e01b8152600401616262929190618191565b60206040518083038185885af115801561627e573d5f803e3d5ffd5b50505050506040513d601f19601f820116820180604052508101906162a391906181d3565b90505b8094505050505098975050505050505050565b6001609881905550565b60405180604001604052805f73ffffffffffffffffffffffffffffffffffffffff1681526020015f81525090565b6040518060a0016040528060608152602001606081526020016060815260200160608152602001606081525090565b5f819050919050565b61633281616320565b82525050565b5f60208201905061634b5f830184616329565b92915050565b5f604051905090565b5f80fd5b5f80fd5b5f7fffffffff0000000000000000000000000000000000000000000000000000000082169050919050565b61639681616362565b81146163a0575f80fd5b50565b5f813590506163b18161638d565b92915050565b5f602082840312156163cc576163cb61635a565b5b5f6163d9848285016163a3565b91505092915050565b5f8115159050919050565b6163f6816163e2565b82525050565b5f60208201905061640f5f8301846163ed565b92915050565b5f67ffffffffffffffff82169050919050565b61643181616415565b811461643b575f80fd5b50565b5f8135905061644c81616428565b92915050565b5f73ffffffffffffffffffffffffffffffffffffffff82169050919050565b5f61647b82616452565b9050919050565b61648b81616471565b8114616495575f80fd5b50565b5f813590506164a681616482565b92915050565b5f6164b682616452565b9050919050565b6164c6816164ac565b81146164d0575f80fd5b50565b5f813590506164e1816164bd565b92915050565b5f805f805f60a08688031215616500576164ff61635a565b5b5f61650d8882890161643e565b955050602061651e88828901616498565b945050604061652f888289016164d3565b9350506060616540888289016164d3565b9250506080616551888289016164d3565b9150509295509295909350565b5f602082840312156165735761657261635a565b5b5f6165808482850161643e565b91505092915050565b616592816164ac565b82525050565b5f6020820190506165ab5f830184616589565b92915050565b6165ba81616320565b81146165c4575f80fd5b50565b5f813590506165d5816165b1565b92915050565b5f602082840312156165f0576165ef61635a565b5b5f6165fd848285016165c7565b91505092915050565b5f819050919050565b61661881616606565b82525050565b5f60a0820190506166315f830188616329565b61663e6020830187616589565b61664b6040830186616329565b6166586060830185616589565b616665608083018461660f565b9695505050505050565b61667881616415565b82525050565b5f6020820190506166915f83018461666f565b92915050565b5f819050919050565b5f6166ba6166b56166b084616452565b616697565b616452565b9050919050565b5f6166cb826166a0565b9050919050565b5f6166dc826166c1565b9050919050565b6166ec816166d2565b82525050565b5f6020820190506167055f8301846166e3565b92915050565b5f80604083850312156167215761672061635a565b5b5f61672e858286016165c7565b925050602061673f858286016165c7565b9150509250929050565b5f60ff82169050919050565b61675e81616749565b8114616768575f80fd5b50565b5f8135905061677981616755565b92915050565b5f602082840312156167945761679361635a565b5b5f6167a18482850161676b565b91505092915050565b6167b381616749565b82525050565b5f6020820190506167cc5f8301846167aa565b92915050565b5f80fd5b5f60a082840312156167eb576167ea6167d2565b5b81905092915050565b5f602082840312156168095761680861635a565b5b5f82013567ffffffffffffffff8111156168265761682561635e565b5b616832848285016167d6565b91505092915050565b5f62ffffff82169050919050565b6168528161683b565b82525050565b5f60208201905061686b5f830184616849565b92915050565b5f60e0820190506168845f83018a616329565b6168916020830189616329565b61689e6040830188616589565b6168ab6060830187616589565b6168b86080830186616849565b6168c560a0830185616329565b6168d260c083018461660f565b98975050505050505050565b5f602082840312156168f3576168f261635a565b5b5f616900848285016164d3565b91505092915050565b5f80fd5b5f80fd5b5f601f19601f8301169050919050565b7f4e487b71000000000000000000000000000000000000000000000000000000005f52604160045260245ffd5b61695782616911565b810181811067ffffffffffffffff8211171561697657616975616921565b5b80604052505050565b5f616988616351565b9050616994828261694e565b919050565b5f67ffffffffffffffff8211156169b3576169b2616921565b5b6169bc82616911565b9050602081019050919050565b828183375f83830152505050565b5f6169e96169e484616999565b61697f565b905082815260208101848484011115616a0557616a0461690d565b5b616a108482856169c9565b509392505050565b5f82601f830112616a2c57616a2b616909565b5b8135616a3c8482602086016169d7565b91505092915050565b60028110616a51575f80fd5b50565b5f81359050616a6281616a45565b92915050565b5f805f8060808587031215616a8057616a7f61635a565b5b5f616a8d8782880161643e565b9450506020616a9e878288016164d3565b935050604085013567ffffffffffffffff811115616abf57616abe61635e565b5b616acb87828801616a18565b9250506060616adc87828801616a54565b91505092959194509250565b5f602082019050616afb5f83018461660f565b92915050565b5f616b0b826166c1565b9050919050565b616b1b81616b01565b82525050565b5f602082019050616b345f830184616b12565b92915050565b616b438161683b565b8114616b4d575f80fd5b50565b5f81359050616b5e81616b3a565b92915050565b5f805f8060808587031215616b7c57616b7b61635a565b5b5f616b89878288016165c7565b9450506020616b9a878288016165c7565b9350506040616bab878288016164d3565b9250506060616bbc87828801616b50565b91505092959194509250565b5f61ffff82169050919050565b616bde81616bc8565b82525050565b5f602082019050616bf75f830184616bd5565b92915050565b5f805f8060808587031215616c1557616c1461635a565b5b5f616c22878288016164d3565b9450506020616c33878288016164d3565b9350506040616c44878288016165c7565b9250506060616c5587828801616b50565b91505092959194509250565b5f616c6b826166a0565b9050919050565b5f616c7c82616c61565b9050919050565b616c8c81616c72565b82525050565b5f602082019050616ca55f830184616c83565b92915050565b5f6fffffffffffffffffffffffffffffffff82169050919050565b616ccf81616cab565b8114616cd9575f80fd5b50565b5f81359050616cea81616cc6565b92915050565b5f805f8060808587031215616d0857616d0761635a565b5b5f616d15878288016164d3565b9450506020616d26878288016164d3565b9350506040616d3787828801616cdc565b9250506060616d4887828801616b50565b91505092959194509250565b5f805f8060808587031215616d6c57616d6b61635a565b5b5f616d79878288016164d3565b9450506020616d8a878288016165c7565b9350506040616d9b878288016165c7565b9250506060616dac87828801616b50565b91505092959194509250565b5f82825260208201905092915050565b7f496e697469616c697a61626c653a20636f6e747261637420697320616c7265615f8201527f647920696e697469616c697a6564000000000000000000000000000000000000602082015250565b5f616e22602e83616db8565b9150616e2d82616dc8565b604082019050919050565b5f6020820190508181035f830152616e4f81616e16565b9050919050565b5f604082019050616e695f830185616589565b616e766020830184616329565b9392505050565b616e86816163e2565b8114616e90575f80fd5b50565b5f81519050616ea181616e7d565b92915050565b5f60208284031215616ebc57616ebb61635a565b5b5f616ec984828501616e93565b91505092915050565b5f819050919050565b5f616ef5616ef0616eeb84616ed2565b616697565b616749565b9050919050565b616f0581616edb565b82525050565b5f602082019050616f1e5f830184616efc565b92915050565b5f81519050616f32816164bd565b92915050565b5f60208284031215616f4d57616f4c61635a565b5b5f616f5a84828501616f24565b91505092915050565b5f81519050616f71816165b1565b92915050565b5f60208284031215616f8c57616f8b61635a565b5b5f616f9984828501616f63565b91505092915050565b7f4e487b71000000000000000000000000000000000000000000000000000000005f52601160045260245ffd5b5f616fd982616320565b9150616fe483616320565b9250828201905080821115616ffc57616ffb616fa2565b5b92915050565b7f6c6f776572207468616e20726571756972656420616d6f756e740000000000005f82015250565b5f617036601a83616db8565b915061704182617002565b602082019050919050565b5f6020820190508181035f8301526170638161702a565b9050919050565b5f61707482616320565b91507fffffffffffffffffffffffffffffffffffffffffffffffffffffffffffffffff82036170a6576170a5616fa2565b5b600182019050919050565b5f6170bb82616320565b91506170c683616320565b92508282039050818111156170de576170dd616fa2565b5b92915050565b7f596f752073686f756c642077616974206174206c6561737420313220686f75725f8201527f7320616674657220746865206c61746573742075706461746500000000000000602082015250565b5f61713e603983616db8565b9150617149826170e4565b604082019050919050565b5f6020820190508181035f83015261716b81617132565b9050919050565b7f546865206e65774665652073686f756c64206265206265747765656e203120615f8201527f6e64203130302028302e303125202d2031252900000000000000000000000000602082015250565b5f6171cc603383616db8565b91506171d782617172565b604082019050919050565b5f6020820190508181035f8301526171f9816171c0565b9050919050565b5f80fd5b5f80fd5b61721181616606565b811461721b575f80fd5b50565b5f8135905061722c81617208565b92915050565b5f67ffffffffffffffff82111561724c5761724b616921565b5b602082029050602081019050919050565b5f80fd5b5f6040828403121561727657617275617200565b5b617280604061697f565b90505f61728f848285016164d3565b5f8301525060206172a2848285016165c7565b60208301525092915050565b5f6172c06172bb84617232565b61697f565b905080838252602082019050604084028301858111156172e3576172e261725d565b5b835b8181101561730c57806172f88882617261565b8452602084019350506040810190506172e5565b5050509392505050565b5f82601f83011261732a57617329616909565b5b813561733a8482602086016172ae565b91505092915050565b5f60a0828403121561735857617357617200565b5b61736260a061697f565b90505f6173718482850161721e565b5f8301525060206173848482850161643e565b602083015250604082013567ffffffffffffffff8111156173a8576173a7617204565b5b6173b484828501616a18565b604083015250606082013567ffffffffffffffff8111156173d8576173d7617204565b5b6173e484828501616a18565b606083015250608082013567ffffffffffffffff81111561740857617407617204565b5b61741484828501617316565b60808301525092915050565b5f61742b3683617343565b9050919050565b5f6040820190506174455f83018561666f565b6174526020830184616589565b9392505050565b5f8151905061746781616b3a565b92915050565b5f602082840312156174825761748161635a565b5b5f61748f84828501617459565b91505092915050565b5f815190506174a681616428565b92915050565b5f602082840312156174c1576174c061635a565b5b5f6174ce84828501617498565b91505092915050565b5f6080820190506174ea5f830187616589565b6174f76020830186616589565b6175046040830185616329565b6175116060830184616849565b95945050505050565b7f50726f706f7361626c654f776e61626c653a206e6577206f776e6572206973205f8201527f746865207a65726f206164647265737300000000000000000000000000000000602082015250565b5f617574603083616db8565b915061757f8261751a565b604082019050919050565b5f6020820190508181035f8301526175a181617568565b9050919050565b5f6175b282616320565b91506175bd83616320565b92508282026175cb81616320565b915082820484148315176175e2576175e1616fa2565b5b5092915050565b7f4e487b71000000000000000000000000000000000000000000000000000000005f52601260045260245ffd5b5f61762082616320565b915061762b83616320565b92508261763b5761763a6175e9565b5b828204905092915050565b5f67ffffffffffffffff8211156176605761765f616921565b5b602082029050602081019050919050565b5f61768361767e84617646565b61697f565b905080838252602082019050602084028301858111156176a6576176a561725d565b5b835b818110156176cf57806176bb8882616f24565b8452602084019350506020810190506176a8565b5050509392505050565b5f82601f8301126176ed576176ec616909565b5b81516176fd848260208601617671565b91505092915050565b5f67ffffffffffffffff8211156177205761771f616921565b5b602082029050602081019050919050565b5f61774361773e84617706565b61697f565b905080838252602082019050602084028301858111156177665761776561725d565b5b835b8181101561778f578061777b8882616f63565b845260208401935050602081019050617768565b5050509392505050565b5f82601f8301126177ad576177ac616909565b5b81516177bd848260208601617731565b91505092915050565b5f67ffffffffffffffff8211156177e0576177df616921565b5b602082029050602081019050919050565b5f6178036177fe846177c6565b61697f565b905080838252602082019050602084028301858111156178265761782561725d565b5b835b8181101561784f578061783b8882617459565b845260208401935050602081019050617828565b5050509392505050565b5f82601f83011261786d5761786c616909565b5b815161787d8482602086016177f1565b91505092915050565b5f67ffffffffffffffff8211156178a05761789f616921565b5b602082029050602081019050919050565b5f6178c36178be84617886565b61697f565b905080838252602082019050602084028301858111156178e6576178e561725d565b5b835b8181101561790f57806178fb8882617498565b8452602084019350506020810190506178e8565b5050509392505050565b5f82601f83011261792d5761792c616909565b5b815161793d8482602086016178b1565b91505092915050565b5f805f806080858703121561795e5761795d61635a565b5b5f85015167ffffffffffffffff81111561797b5761797a61635e565b5b617987878288016176d9565b945050602085015167ffffffffffffffff8111156179a8576179a761635e565b5b6179b487828801617799565b935050604085015167ffffffffffffffff8111156179d5576179d461635e565b5b6179e187828801617859565b925050606085015167ffffffffffffffff811115617a0257617a0161635e565b5b617a0e87828801617919565b91505092959194509250565b7f4e487b71000000000000000000000000000000000000000000000000000000005f52603260045260245ffd5b5f819050919050565b5f617a6a617a65617a6084617a47565b616697565b616320565b9050919050565b617a7a81617a50565b82525050565b5f608082019050617a935f830187616589565b617aa06020830186616329565b617aad6040830185617a71565b617aba6060830184616329565b95945050505050565b617acc81616cab565b82525050565b5f608082019050617ae55f830187616589565b617af26020830186616589565b617aff6040830185617ac3565b617b0c6060830184616849565b95945050505050565b7f50726f706f7361626c654f776e61626c653a206e6577206f776e6572206973205f8201527f6e6f742070726f706f736564206f776e65720000000000000000000000000000602082015250565b5f617b6f603283616db8565b9150617b7a82617b15565b604082019050919050565b5f6020820190508181035f830152617b9c81617b63565b9050919050565b7f50726f706f7361626c654f776e61626c653a20746869732063616c6c206d75735f8201527f74206265206d61646520627920746865206e6577206f776e6572000000000000602082015250565b5f617bfd603a83616db8565b9150617c0882617ba3565b604082019050919050565b5f6020820190508181035f830152617c2a81617bf1565b9050919050565b5f617c3b826164ac565b9050919050565b617c4b81617c31565b8114617c55575f80fd5b50565b5f81519050617c6681617c42565b92915050565b5f60208284031215617c8157617c8061635a565b5b5f617c8e84828501617c58565b91505092915050565b5f617ca1826164ac565b9050919050565b617cb181617c97565b8114617cbb575f80fd5b50565b5f81519050617ccc81617ca8565b92915050565b5f60208284031215617ce757617ce661635a565b5b5f617cf484828501617cbe565b91505092915050565b5f606082019050617d105f830186616589565b617d1d6020830185616589565b617d2a6040830184616329565b949350505050565b7f546f6b656e207472616e73666572206661696c656400000000000000000000005f82015250565b5f617d66601583616db8565b9150617d7182617d32565b602082019050919050565b5f6020820190508181035f830152617d9381617d5a565b9050919050565b7f496e697469616c697a61626c653a20636f6e7472616374206973206e6f7420695f8201527f6e697469616c697a696e67000000000000000000000000000000000000000000602082015250565b5f617df4602b83616db8565b9150617dff82617d9a565b604082019050919050565b5f6020820190508181035f830152617e2181617de8565b9050919050565b7f4f776e61626c653a2063616c6c6572206973206e6f7420746865206f776e65725f82015250565b5f617e5c602083616db8565b9150617e6782617e28565b602082019050919050565b5f6020820190508181035f830152617e8981617e50565b9050919050565b5f805f805f8060c08789031215617eaa57617ea961635a565b5b5f617eb789828a01616f63565b965050602087015167ffffffffffffffff811115617ed857617ed761635e565b5b617ee489828a016176d9565b955050604087015167ffffffffffffffff811115617f0557617f0461635e565b5b617f1189828a016176d9565b9450506060617f2289828a01616f63565b935050608087015167ffffffffffffffff811115617f4357617f4261635e565b5b617f4f89828a01617799565b92505060a087015167ffffffffffffffff811115617f7057617f6f61635e565b5b617f7c89828a01617799565b9150509295509295509295565b7f4e487b71000000000000000000000000000000000000000000000000000000005f52602160045260245ffd5b5f81519050919050565b5f82825260208201905092915050565b8281835e5f83830152505050565b5f617fe882617fb6565b617ff28185617fc0565b9350618002818560208601617fd0565b61800b81616911565b840191505092915050565b5f81519050919050565b5f82825260208201905092915050565b5f819050602082019050919050565b618048816164ac565b82525050565b61805781616320565b82525050565b604082015f8201516180715f85018261803f565b506020820151618084602085018261804e565b50505050565b5f618095838361805d565b60408301905092915050565b5f602082019050919050565b5f6180b782618016565b6180c18185618020565b93506180cc83618030565b805f5b838110156180fc5781516180e3888261808a565b97506180ee836180a1565b9250506001810190506180cf565b5085935050505092915050565b5f60a083015f8301518482035f8601526181238282617fde565b9150506020830151848203602086015261813d8282617fde565b9150506040830151848203604086015261815782826180ad565b915050606083015161816c606086018261803f565b50608083015184820360808601526181848282617fde565b9150508091505092915050565b5f6040820190506181a45f83018561666f565b81810360208301526181b68184618109565b90509392505050565b5f815190506181cd81617208565b92915050565b5f602082840312156181e8576181e761635a565b5b5f6181f5848285016181bf565b91505092915050565b5f602082840312156182135761821261635a565b5b5f82015167ffffffffffffffff8111156182305761822f61635e565b5b61823c848285016176d9565b91505092915050565b5f6020828403121561825a5761825961635a565b5b5f82015167ffffffffffffffff8111156182775761827661635e565b5b61828384828501617799565b91505092915050565b5f81519050919050565b5f82825260208201905092915050565b5f819050602082019050919050565b5f6182c0838361803f565b60208301905092915050565b5f602082019050919050565b5f6182e28261828c565b6182ec8185618296565b93506182f7836182a6565b805f5b8381101561832757815161830e88826182b5565b9750618319836182cc565b9250506001810190506182fa565b5085935050505092915050565b5f81519050919050565b5f82825260208201905092915050565b5f819050602082019050919050565b5f618368838361804e565b60208301905092915050565b5f602082019050919050565b5f61838a82618334565b618394818561833e565b935061839f8361834e565b805f5b838110156183cf5781516183b6888261835d565b97506183c183618374565b9250506001810190506183a2565b5085935050505092915050565b5f610100820190506183f05f83018b616efc565b8181036020830152618402818a6182d8565b9050818103604083015261841681896182d8565b9050818103606083015261842a8188618380565b9050818103608083015261843e8187618380565b905061844d60a0830186616329565b81810360c083015261845f8185618380565b905081810360e08301526184738184618380565b90509998505050505050505050565b5f61848c826164ac565b9050919050565b61849c81618482565b81146184a6575f80fd5b50565b5f815190506184b781618493565b92915050565b5f602082840312156184d2576184d161635a565b5b5f6184df848285016184a9565b91505092915050565b5f6184f2826164ac565b9050919050565b618502816184e8565b811461850c575f80fd5b50565b5f8151905061851d816184f9565b92915050565b5f602082840312156185385761853761635a565b5b5f6185458482850161850f565b91505092915050565b5f6040820190506185615f830185616329565b61856e602083018461666f565b9392505050565b5f61858f61858a61858584617a47565b616697565b616749565b9050919050565b61859f81618575565b82525050565b5f610100820190506185b95f83018b618596565b81810360208301526185cb818a6182d8565b905081810360408301526185df81896182d8565b905081810360608301526185f38188618380565b905081810360808301526186078187618380565b905061861660a0830186616329565b81810360c08301526186288185618380565b905081810360e083015261863c8184618380565b90509998505050505050505050565b602082015f82015161865f5f85018261804e565b50505050565b5f6020820190506186785f83018461864b565b92915050565b5f6080820190506186915f830187616589565b61869e6020830186616329565b6186ab6040830185616329565b6186b86060830184616329565b95945050505050565b5f81905092915050565b50565b5f6186d95f836186c1565b91506186e4826186cb565b5f82019050919050565b5f6186f8826186ce565b9150819050919050565b7f7472616e736665722065746820746f20746865207265717565737465722066615f8201527f696c656400000000000000000000000000000000000000000000000000000000602082015250565b5f61875c602483616db8565b915061876782618702565b604082019050919050565b5f6020820190508181035f83015261878981618750565b9050919050565b6187998161683b565b82525050565b6187a881616452565b82525050565b61010082015f8201516187c35f85018261803f565b5060208201516187d6602085018261803f565b5060408201516187e96040850182618790565b5060608201516187fc606085018261803f565b50608082015161880f608085018261804e565b5060a082015161882260a085018261804e565b5060c082015161883560c085018261804e565b5060e082015161884860e085018261879f565b50505050565b5f610100820190506188625f8301846187ae565b92915050565b5f60408201905061887b5f830185616329565b818103602083015261888d81846182d8565b90509392505050565b5f60a0820190506188a95f830188616329565b6188b66020830187617a71565b81810360408301526188c881866182d8565b90506188d76060830185616589565b6188e46080830184616329565b9695505050505050565b7f5265656e7472616e637947756172643a207265656e7472616e742063616c6c005f82015250565b5f618922601f83616db8565b915061892d826188ee565b602082019050919050565b5f6020820190508181035f83015261894f81618916565b9050919050565b7f4d6178696d756d203520646966666572656e7420746f6b656e732063616e20625f8201527f652073656e74207065722043434950204d657373616765000000000000000000602082015250565b5f6189b0603783616db8565b91506189bb82618956565b604082019050919050565b5f6020820190508181035f8301526189dd816189a4565b905091905056fea264697066735822122088dbaa1971ee7cdb772355ea5ec578c1bf10bc795d153b0d75ed07cff469fc8864736f6c634300081a0033","linkReferences":{}},"methodIdentifiers":{"MAX_FEE_RATE()":"92f6576e","MAX_TOKENS_LENGTH()":"d28c00fc","MIN_FEE_RATE()":"58c0f10d","MIN_FEE_UPDATE_INTERVAL()":"c9172ef7","ccipReceive((bytes32,uint64,bytes,bytes,(address,uint256)[]))":"85572ffb","convertEthToUsd(uint256)":"c086381e","crossChainFactoryBySelector(uint64)":"340fbc74","crossChainToken(uint64)":"19da7e2a","crossChainTokenSwapFee(uint64)":"9ff73f45","currentChainSelector()":"3d54cb6f","estimateAmountOut(address,address,uint128,uint24)":"ee7bd3e2","factoryStorage()":"c06e1ae2","feeRate()":"978bbdb9","feeReceiver()":"b3f00674","getAmountOut(address,address,uint256,uint24)":"dd811ac9","getPortfolioBalance()":"a8509fd8","getRouter()":"b0f479a1","getRouterAddress()":"d54f7d5e","i_link()":"7d253aff","indexToken()":"e7d015f2","initialize(uint64,address,address,address,address)":"16b487ff","issuanceData(uint256)":"2d6fc6b3","issuanceIndexTokens(address,uint256,uint256,uint24)":"fd485101","issuanceIndexTokensWithEth(uint256,uint256)":"41d11817","issuanceNonce()":"9dbb9c9e","latestFeeUpdate()":"011ced5f","owner()":"8da5cb5b","priceInWei()":"3c8da588","proposeOwner(address)":"b5ed298a","proposedOwner()":"d153b60c","redemption(uint256,uint256,address,uint24)":"d0586d71","redemptionData(uint256)":"aa4379c0","redemptionNonce()":"84d77bb1","renounceOwnership()":"715018a6","sendMessage(uint64,address,bytes,uint8)":"bcab90b3","setFeeRate(uint8)":"5177942a","setFeeReceiver(address)":"efdcd974","setIndexFactoryStorage(address)":"cc8659ae","supportsInterface(bytes4)":"01ffc9a7","transferOwnership(address)":"f2fde38b","weth()":"3fc8cef3"},"id":3}