{"abi":[{"type":"receive","stateMutability":"payable"},{"type":"function","name":"ccipReceive","inputs":[{"name":"message","type":"tuple","internalType":"struct Client.Any2EVMMessage","components":[{"name":"messageId","type":"bytes32","internalType":"bytes32"},{"name":"sourceChainSelector","type":"uint64","internalType":"uint64"},{"name":"sender","type":"bytes","internalType":"bytes"},{"name":"data","type":"bytes","internalType":"bytes"},{"name":"destTokenAmounts","type":"tuple[]","internalType":"struct Client.EVMTokenAmount[]","components":[{"name":"token","type":"address","internalType":"address"},{"name":"amount","type":"uint256","internalType":"uint256"}]}]}],"outputs":[],"stateMutability":"nonpayable"},{"type":"function","name":"convertEthToUsd","inputs":[{"name":"_ethAmount","type":"uint256","internalType":"uint256"}],"outputs":[{"name":"","type":"uint256","internalType":"uint256"}],"stateMutability":"view"},{"type":"function","name":"crossChainFactoryBySelector","inputs":[{"name":"_chainSelector","type":"uint64","internalType":"uint64"}],"outputs":[{"name":"","type":"address","internalType":"address"}],"stateMutability":"view"},{"type":"function","name":"crossChainToken","inputs":[{"name":"_chainSelector","type":"uint64","internalType":"uint64"}],"outputs":[{"name":"","type":"address","internalType":"address"}],"stateMutability":"view"},{"type":"function","name":"crossChainTokenSwapVersion","inputs":[{"name":"_chainSelector","type":"uint64","internalType":"uint64"}],"outputs":[{"name":"","type":"uint256","internalType":"uint256"}],"stateMutability":"view"},{"type":"function","name":"currentChainSelector","inputs":[],"outputs":[{"name":"","type":"uint64","internalType":"uint64"}],"stateMutability":"view"},{"type":"function","name":"estimateAmountOut","inputs":[{"name":"tokenIn","type":"address","internalType":"address"},{"name":"tokenOut","type":"address","internalType":"address"},{"name":"amountIn","type":"uint128","internalType":"uint128"}],"outputs":[{"name":"amountOut","type":"uint256","internalType":"uint256"}],"stateMutability":"view"},{"type":"function","name":"feeRate","inputs":[],"outputs":[{"name":"","type":"uint8","internalType":"uint8"}],"stateMutability":"view"},{"type":"function","name":"feeReceiver","inputs":[],"outputs":[{"name":"","type":"address","internalType":"address"}],"stateMutability":"view"},{"type":"function","name":"getAmountOut","inputs":[{"name":"tokenIn","type":"address","internalType":"address"},{"name":"tokenOut","type":"address","internalType":"address"},{"name":"amountIn","type":"uint256","internalType":"uint256"},{"name":"_swapVersion","type":"uint256","internalType":"uint256"}],"outputs":[{"name":"finalAmountOut","type":"uint256","internalType":"uint256"}],"stateMutability":"view"},{"type":"function","name":"getPortfolioBalance","inputs":[],"outputs":[{"name":"","type":"uint256","internalType":"uint256"}],"stateMutability":"view"},{"type":"function","name":"getRouter","inputs":[],"outputs":[{"name":"","type":"address","internalType":"address"}],"stateMutability":"view"},{"type":"function","name":"i_link","inputs":[],"outputs":[{"name":"","type":"address","internalType":"address"}],"stateMutability":"view"},{"type":"function","name":"i_maxTokensLength","inputs":[],"outputs":[{"name":"","type":"uint16","internalType":"uint16"}],"stateMutability":"view"},{"type":"function","name":"indexFactoryStorage","inputs":[],"outputs":[{"name":"","type":"address","internalType":"contract IndexFactoryStorage"}],"stateMutability":"view"},{"type":"function","name":"indexToken","inputs":[],"outputs":[{"name":"","type":"address","internalType":"contract IndexToken"}],"stateMutability":"view"},{"type":"function","name":"initialize","inputs":[{"name":"_currentChainSelector","type":"uint64","internalType":"uint64"},{"name":"_token","type":"address","internalType":"address payable"},{"name":"_chainlinkToken","type":"address","internalType":"address"},{"name":"_router","type":"address","internalType":"address"},{"name":"_weth","type":"address","internalType":"address"}],"outputs":[],"stateMutability":"nonpayable"},{"type":"function","name":"issuanceCompletedTokensCount","inputs":[{"name":"","type":"uint256","internalType":"uint256"}],"outputs":[{"name":"","type":"uint256","internalType":"uint256"}],"stateMutability":"view"},{"type":"function","name":"issuanceIndexTokens","inputs":[{"name":"_tokenIn","type":"address","internalType":"address"},{"name":"_inputAmount","type":"uint256","internalType":"uint256"},{"name":"_crossChainFee","type":"uint256","internalType":"uint256"},{"name":"_tokenInSwapVersion","type":"uint256","internalType":"uint256"}],"outputs":[],"stateMutability":"nonpayable"},{"type":"function","name":"issuanceIndexTokensWithEth","inputs":[{"name":"_inputAmount","type":"uint256","internalType":"uint256"},{"name":"_crossChainFee","type":"uint256","internalType":"uint256"}],"outputs":[],"stateMutability":"payable"},{"type":"function","name":"issuanceInputAmount","inputs":[{"name":"","type":"uint256","internalType":"uint256"}],"outputs":[{"name":"","type":"uint256","internalType":"uint256"}],"stateMutability":"view"},{"type":"function","name":"issuanceInputToken","inputs":[{"name":"","type":"uint256","internalType":"uint256"}],"outputs":[{"name":"","type":"address","internalType":"address"}],"stateMutability":"view"},{"type":"function","name":"issuanceMessageIdByNonce","inputs":[{"name":"","type":"uint256","internalType":"uint256"}],"outputs":[{"name":"","type":"bytes32","internalType":"bytes32"}],"stateMutability":"view"},{"type":"function","name":"issuanceNonce","inputs":[],"outputs":[{"name":"","type":"uint256","internalType":"uint256"}],"stateMutability":"view"},{"type":"function","name":"issuanceNonceRequester","inputs":[{"name":"","type":"uint256","internalType":"uint256"}],"outputs":[{"name":"","type":"address","internalType":"address"}],"stateMutability":"view"},{"type":"function","name":"issuanceTokenOldAndNewValues","inputs":[{"name":"","type":"uint256","internalType":"uint256"},{"name":"","type":"address","internalType":"address"}],"outputs":[{"name":"oldTokenValue","type":"uint256","internalType":"uint256"},{"name":"newTokenValue","type":"uint256","internalType":"uint256"}],"stateMutability":"view"},{"type":"function","name":"latestFeeUpdate","inputs":[],"outputs":[{"name":"","type":"uint256","internalType":"uint256"}],"stateMutability":"view"},{"type":"function","name":"owner","inputs":[],"outputs":[{"name":"","type":"address","internalType":"address"}],"stateMutability":"view"},{"type":"function","name":"portfolioTotalValueByNonce","inputs":[{"name":"","type":"uint256","internalType":"uint256"}],"outputs":[{"name":"","type":"uint256","internalType":"uint256"}],"stateMutability":"view"},{"type":"function","name":"priceInWei","inputs":[],"outputs":[{"name":"","type":"uint256","internalType":"uint256"}],"stateMutability":"view"},{"type":"function","name":"proposeOwner","inputs":[{"name":"_proposedOwner","type":"address","internalType":"address"}],"outputs":[],"stateMutability":"nonpayable"},{"type":"function","name":"proposedOwner","inputs":[],"outputs":[{"name":"","type":"address","internalType":"address"}],"stateMutability":"view"},{"type":"function","name":"redemption","inputs":[{"name":"amountIn","type":"uint256","internalType":"uint256"},{"name":"_crossChainFee","type":"uint256","internalType":"uint256"},{"name":"_tokenOut","type":"address","internalType":"address"},{"name":"_tokenOutSwapVersion","type":"uint256","internalType":"uint256"}],"outputs":[],"stateMutability":"nonpayable"},{"type":"function","name":"redemptionCompletedTokensCount","inputs":[{"name":"","type":"uint256","internalType":"uint256"}],"outputs":[{"name":"","type":"uint256","internalType":"uint256"}],"stateMutability":"view"},{"type":"function","name":"redemptionInputAmount","inputs":[{"name":"","type":"uint256","internalType":"uint256"}],"outputs":[{"name":"","type":"uint256","internalType":"uint256"}],"stateMutability":"view"},{"type":"function","name":"redemptionMessageIdByNonce","inputs":[{"name":"","type":"uint256","internalType":"uint256"}],"outputs":[{"name":"","type":"bytes32","internalType":"bytes32"}],"stateMutability":"view"},{"type":"function","name":"redemptionNonce","inputs":[],"outputs":[{"name":"","type":"uint256","internalType":"uint256"}],"stateMutability":"view"},{"type":"function","name":"redemptionNonceOutputToken","inputs":[{"name":"","type":"uint256","internalType":"uint256"}],"outputs":[{"name":"","type":"address","internalType":"address"}],"stateMutability":"view"},{"type":"function","name":"redemptionNonceOutputTokenSwapVersion","inputs":[{"name":"","type":"uint256","internalType":"uint256"}],"outputs":[{"name":"","type":"uint256","internalType":"uint256"}],"stateMutability":"view"},{"type":"function","name":"redemptionNonceRequester","inputs":[{"name":"","type":"uint256","internalType":"uint256"}],"outputs":[{"name":"","type":"address","internalType":"address"}],"stateMutability":"view"},{"type":"function","name":"redemptionNonceTotalValue","inputs":[{"name":"","type":"uint256","internalType":"uint256"}],"outputs":[{"name":"","type":"uint256","internalType":"uint256"}],"stateMutability":"view"},{"type":"function","name":"redemptionOutputToken","inputs":[{"name":"","type":"uint256","internalType":"uint256"}],"outputs":[{"name":"","type":"address","internalType":"address"}],"stateMutability":"view"},{"type":"function","name":"renounceOwnership","inputs":[],"outputs":[],"stateMutability":"nonpayable"},{"type":"function","name":"sendMessage","inputs":[{"name":"destinationChainSelector","type":"uint64","internalType":"uint64"},{"name":"receiver","type":"address","internalType":"address"},{"name":"_data","type":"bytes","internalType":"bytes"},{"name":"payFeesIn","type":"uint8","internalType":"enum IndexFactory.PayFeesIn"}],"outputs":[{"name":"","type":"bytes32","internalType":"bytes32"}],"stateMutability":"nonpayable"},{"type":"function","name":"setFeeRate","inputs":[{"name":"_newFee","type":"uint8","internalType":"uint8"}],"outputs":[],"stateMutability":"nonpayable"},{"type":"function","name":"setFeeReceiver","inputs":[{"name":"_feeReceiver","type":"address","internalType":"address"}],"outputs":[],"stateMutability":"nonpayable"},{"type":"function","name":"setIndexFactoryStorage","inputs":[{"name":"_indexFactoryStorage","type":"address","internalType":"address"}],"outputs":[],"stateMutability":"nonpayable"},{"type":"function","name":"supportsInterface","inputs":[{"name":"interfaceId","type":"bytes4","internalType":"bytes4"}],"outputs":[{"name":"","type":"bool","internalType":"bool"}],"stateMutability":"pure"},{"type":"function","name":"tokenValueByNonce","inputs":[{"name":"","type":"uint256","internalType":"uint256"},{"name":"","type":"address","internalType":"address"}],"outputs":[{"name":"","type":"uint256","internalType":"uint256"}],"stateMutability":"view"},{"type":"function","name":"transferOwnership","inputs":[{"name":"newOwner","type":"address","internalType":"address"}],"outputs":[],"stateMutability":"nonpayable"},{"type":"function","name":"updatePortfolioNonce","inputs":[],"outputs":[{"name":"","type":"uint256","internalType":"uint256"}],"stateMutability":"view"},{"type":"function","name":"updatedTokensValueCount","inputs":[{"name":"","type":"uint256","internalType":"uint256"}],"outputs":[{"name":"","type":"uint256","internalType":"uint256"}],"stateMutability":"view"},{"type":"function","name":"weth","inputs":[],"outputs":[{"name":"","type":"address","internalType":"contract IWETH"}],"stateMutability":"view"},{"type":"event","name":"Initialized","inputs":[{"name":"version","type":"uint8","indexed":false,"internalType":"uint8"}],"anonymous":false},{"type":"event","name":"Issuanced","inputs":[{"name":"messageId","type":"bytes32","indexed":true,"internalType":"bytes32"},{"name":"nonce","type":"uint256","indexed":true,"internalType":"uint256"},{"name":"user","type":"address","indexed":true,"internalType":"address"},{"name":"inputToken","type":"address","indexed":false,"internalType":"address"},{"name":"inputAmount","type":"uint256","indexed":false,"internalType":"uint256"},{"name":"outputAmount","type":"uint256","indexed":false,"internalType":"uint256"},{"name":"time","type":"uint256","indexed":false,"internalType":"uint256"}],"anonymous":false},{"type":"event","name":"MessageSent","inputs":[{"name":"messageId","type":"bytes32","indexed":false,"internalType":"bytes32"}],"anonymous":false},{"type":"event","name":"OwnershipTransferred","inputs":[{"name":"previousOwner","type":"address","indexed":true,"internalType":"address"},{"name":"newOwner","type":"address","indexed":true,"internalType":"address"}],"anonymous":false},{"type":"event","name":"Redemption","inputs":[{"name":"messageId","type":"bytes32","indexed":true,"internalType":"bytes32"},{"name":"nonce","type":"uint256","indexed":true,"internalType":"uint256"},{"name":"user","type":"address","indexed":true,"internalType":"address"},{"name":"outputToken","type":"address","indexed":false,"internalType":"address"},{"name":"inputAmount","type":"uint256","indexed":false,"internalType":"uint256"},{"name":"outputAmount","type":"uint256","indexed":false,"internalType":"uint256"},{"name":"time","type":"uint256","indexed":false,"internalType":"uint256"}],"anonymous":false},{"type":"event","name":"RequestIssuance","inputs":[{"name":"messageId","type":"bytes32","indexed":true,"internalType":"bytes32"},{"name":"nonce","type":"uint256","indexed":true,"internalType":"uint256"},{"name":"user","type":"address","indexed":true,"internalType":"address"},{"name":"inputToken","type":"address","indexed":false,"internalType":"address"},{"name":"inputAmount","type":"uint256","indexed":false,"internalType":"uint256"},{"name":"outputAmount","type":"uint256","indexed":false,"internalType":"uint256"},{"name":"time","type":"uint256","indexed":false,"internalType":"uint256"}],"anonymous":false},{"type":"event","name":"RequestRedemption","inputs":[{"name":"messageId","type":"bytes32","indexed":true,"internalType":"bytes32"},{"name":"nonce","type":"uint256","indexed":true,"internalType":"uint256"},{"name":"user","type":"address","indexed":true,"internalType":"address"},{"name":"outputToken","type":"address","indexed":false,"internalType":"address"},{"name":"inputAmount","type":"uint256","indexed":false,"internalType":"uint256"},{"name":"outputAmount","type":"uint256","indexed":false,"internalType":"uint256"},{"name":"time","type":"uint256","indexed":false,"internalType":"uint256"}],"anonymous":false},{"type":"error","name":"InvalidRouter","inputs":[{"name":"router","type":"address","internalType":"address"}]}],"bytecode":{"object":"0x60806040523480156200001157600080fd5b50618ae580620000226000396000f3fe60806040526004361061031d5760003560e01c806384d77bb1116101ab578063b3f00674116100f7578063cf9ee31911610095578063e7d015f21161006f578063e7d015f214610ce4578063efdcd97414610d0f578063f07bb85514610d38578063f2fde38b14610d7557610324565b8063cf9ee31914610c51578063d153b60c14610c8e578063d1f7a99114610cb957610324565b8063c070a097116100d1578063c070a09714610b71578063c086381e14610bae578063c3a755b414610beb578063cc8659ae14610c2857610324565b8063b3f0067414610ae0578063b5ed298a14610b0b578063bcab90b314610b3457610324565b80639ad1c35611610164578063a3d0ac781161013e578063a3d0ac7814610a10578063a8509fd814610a4d578063b0f479a114610a78578063b316e7fd14610aa357610324565b80639ad1c3561461097f5780639cf54521146109a85780639dbb9c9e146109e557610324565b806384d77bb11461085b57806385572ffb146108865780638da5cb5b146108af5780639121c717146108da5780639403736914610917578063978bbdb91461095457610324565b80633d54cb6f1161026a5780635177942a1161022357806372bc260c116101fd57806372bc260c146107785780637d253aff146107b55780637d3546f7146107e057806381b152791461081d57610324565b80635177942a1461070d5780635b6a035114610736578063715018a61461076157610324565b80633d54cb6f146105e45780633fc8cef31461060f5780633fef75451461063a57806341d118171461067757806348784303146106935780634c776de7146106d057610324565b806313cb1f83116102d7578063306b3a28116102b1578063306b3a2814610502578063326f6fb21461053f578063340fbc741461057c5780633c8da588146105b957610324565b806313cb1f831461045f57806316b487ff1461049c57806319da7e2a146104c557610324565b80623cf40214610329578063011ced5f1461035457806301ffc9a71461037f5780630456f9c8146103bc5780630603fb05146103f957806309445ad41461043657610324565b3661032457005b600080fd5b34801561033557600080fd5b5061033e610d9e565b60405161034b9190617f16565b60405180910390f35b34801561036057600080fd5b50610369610da4565b6040516103769190617f16565b60405180910390f35b34801561038b57600080fd5b506103a660048036038101906103a19190617002565b610daa565b6040516103b39190617b6e565b60405180910390f35b3480156103c857600080fd5b506103e360048036038101906103de9190616df5565b610e7c565b6040516103f09190617f16565b60405180910390f35b34801561040557600080fd5b50610420600480360381019061041b9190617078565b610f36565b60405161042d919061799a565b60405180910390f35b34801561044257600080fd5b5061045d6004803603810190610458919061724f565b610f69565b005b34801561046b57600080fd5b5061048660048036038101906104819190616e48565b611596565b6040516104939190617f16565b60405180910390f35b3480156104a857600080fd5b506104c360048036038101906104be9190617310565b611653565b005b3480156104d157600080fd5b506104ec60048036038101906104e791906172b6565b6119ed565b6040516104f9919061799a565b60405180910390f35b34801561050e57600080fd5b5061052960048036038101906105249190617078565b611aa1565b6040516105369190617b89565b60405180910390f35b34801561054b57600080fd5b50610566600480360381019061056191906172b6565b611ab9565b6040516105739190617f16565b60405180910390f35b34801561058857600080fd5b506105a3600480360381019061059e91906172b6565b611b7c565b6040516105b0919061799a565b60405180910390f35b3480156105c557600080fd5b506105ce611c30565b6040516105db9190617f16565b60405180910390f35b3480156105f057600080fd5b506105f9611cd7565b6040516106069190617fba565b60405180910390f35b34801561061b57600080fd5b50610624611cf1565b6040516106319190617ba4565b60405180910390f35b34801561064657600080fd5b50610661600480360381019061065c9190617078565b611d17565b60405161066e919061799a565b60405180910390f35b610691600480360381019061068c919061720f565b611d4a565b005b34801561069f57600080fd5b506106ba60048036038101906106b59190617078565b61205b565b6040516106c79190617f16565b60405180910390f35b3480156106dc57600080fd5b506106f760048036038101906106f29190617078565b612073565b604051610704919061799a565b60405180910390f35b34801561071957600080fd5b50610734600480360381019061072f919061740e565b6120a6565b005b34801561074257600080fd5b5061074b612197565b6040516107589190617efb565b60405180910390f35b34801561076d57600080fd5b506107766121ab565b005b34801561078457600080fd5b5061079f600480360381019061079a9190617078565b6121bf565b6040516107ac9190617f16565b60405180910390f35b3480156107c157600080fd5b506107ca6121d7565b6040516107d7919061799a565b60405180910390f35b3480156107ec57600080fd5b5061080760048036038101906108029190617078565b6121fd565b6040516108149190617f16565b60405180910390f35b34801561082957600080fd5b50610844600480360381019061083f91906170d2565b612215565b604051610852929190617f31565b60405180910390f35b34801561086757600080fd5b50610870612246565b60405161087d9190617f16565b60405180910390f35b34801561089257600080fd5b506108ad60048036038101906108a8919061702f565b61224c565b005b3480156108bb57600080fd5b506108c46122f3565b6040516108d1919061799a565b60405180910390f35b3480156108e657600080fd5b5061090160048036038101906108fc9190617078565b61231d565b60405161090e9190617b89565b60405180910390f35b34801561092357600080fd5b5061093e60048036038101906109399190617078565b612335565b60405161094b9190617f16565b60405180910390f35b34801561096057600080fd5b5061096961234d565b604051610976919061802e565b60405180910390f35b34801561098b57600080fd5b506109a660048036038101906109a19190616eaf565b612360565b005b3480156109b457600080fd5b506109cf60048036038101906109ca9190617078565b61268a565b6040516109dc9190617f16565b60405180910390f35b3480156109f157600080fd5b506109fa6126a2565b604051610a079190617f16565b60405180910390f35b348015610a1c57600080fd5b50610a376004803603810190610a329190617078565b6126a8565b604051610a44919061799a565b60405180910390f35b348015610a5957600080fd5b50610a626126db565b604051610a6f9190617f16565b60405180910390f35b348015610a8457600080fd5b50610a8d612c90565b604051610a9a919061799a565b60405180910390f35b348015610aaf57600080fd5b50610aca6004803603810190610ac591906170d2565b612cb9565b604051610ad79190617f16565b60405180910390f35b348015610aec57600080fd5b50610af5612cde565b604051610b02919061799a565b60405180910390f35b348015610b1757600080fd5b50610b326004803603810190610b2d9190616d9b565b612d04565b005b348015610b4057600080fd5b50610b5b6004803603810190610b56919061738b565b612dc0565b604051610b689190617b89565b60405180910390f35b348015610b7d57600080fd5b50610b986004803603810190610b939190617078565b613178565b604051610ba59190617f16565b60405180910390f35b348015610bba57600080fd5b50610bd56004803603810190610bd09190617078565b613190565b604051610be29190617f16565b60405180910390f35b348015610bf757600080fd5b50610c126004803603810190610c0d9190617078565b6131bf565b604051610c1f919061799a565b60405180910390f35b348015610c3457600080fd5b50610c4f6004803603810190610c4a9190616d9b565b6131f2565b005b348015610c5d57600080fd5b50610c786004803603810190610c739190617078565b61323e565b604051610c859190617f16565b60405180910390f35b348015610c9a57600080fd5b50610ca3613256565b604051610cb0919061799a565b60405180910390f35b348015610cc557600080fd5b50610cce61327c565b604051610cdb9190617bbf565b60405180910390f35b348015610cf057600080fd5b50610cf96132a2565b604051610d069190617bda565b60405180910390f35b348015610d1b57600080fd5b50610d366004803603810190610d319190616d9b565b6132c8565b005b348015610d4457600080fd5b50610d5f6004803603810190610d5a9190617078565b613314565b604051610d6c9190617f16565b60405180910390f35b348015610d8157600080fd5b50610d9c6004803603810190610d979190616d9b565b61332c565b005b60d15481565b60cd5481565b60007f85572ffb000000000000000000000000000000000000000000000000000000007bffffffffffffffffffffffffffffffffffffffffffffffffffffffff1916827bffffffffffffffffffffffffffffffffffffffffffffffffffffffff19161480610e7557507f01ffc9a7000000000000000000000000000000000000000000000000000000007bffffffffffffffffffffffffffffffffffffffffffffffffffffffff1916827bffffffffffffffffffffffffffffffffffffffffffffffffffffffff1916145b9050919050565b600060ca60009054906101000a900473ffffffffffffffffffffffffffffffffffffffff1673ffffffffffffffffffffffffffffffffffffffff16630456f9c88585856040518463ffffffff1660e01b8152600401610edd939291906179b5565b60206040518083038186803b158015610ef557600080fd5b505afa158015610f09573d6000803e3d6000fd5b505050506040513d601f19601f82011682018060405250810190610f2d91906170a5565b90509392505050565b60de6020528060005260406000206000915054906101000a900473ffffffffffffffffffffffffffffffffffffffff1681565b600060cc60009054906101000a900473ffffffffffffffffffffffffffffffffffffffff1673ffffffffffffffffffffffffffffffffffffffff166318160ddd6040518163ffffffff1660e01b815260040160206040518083038186803b158015610fd357600080fd5b505afa158015610fe7573d6000803e3d6000fd5b505050506040513d601f19601f8201168201806040525081019061100b91906170a5565b670de0b6b3a76400008661101f919061828d565b611029919061825c565b9050600160d0600082825461103e9190618206565b925050819055503360d8600060d054815260200190815260200160002060006101000a81548173ffffffffffffffffffffffffffffffffffffffff021916908373ffffffffffffffffffffffffffffffffffffffff1602179055508260de600060d054815260200190815260200160002060006101000a81548173ffffffffffffffffffffffffffffffffffffffff021916908373ffffffffffffffffffffffffffffffffffffffff1602179055508160df600060d0548152602001908152602001600020819055508460e2600060d0548152602001908152602001600020819055508260e3600060d054815260200190815260200160002060006101000a81548173ffffffffffffffffffffffffffffffffffffffff021916908373ffffffffffffffffffffffffffffffffffffffff16021790555060cc60009054906101000a900473ffffffffffffffffffffffffffffffffffffffff1673ffffffffffffffffffffffffffffffffffffffff16639dc29fac33876040518363ffffffff1660e01b81526004016111d2929190617abb565b600060405180830381600087803b1580156111ec57600080fd5b505af1158015611200573d6000803e3d6000fd5b50505050600060ca60009054906101000a900473ffffffffffffffffffffffffffffffffffffffff1673ffffffffffffffffffffffffffffffffffffffff166369487b1c6040518163ffffffff1660e01b815260040160206040518083038186803b15801561126e57600080fd5b505afa158015611282573d6000803e3d6000fd5b505050506040513d601f19601f820116820180604052508101906112a691906170a5565b9050600060ca60009054906101000a900473ffffffffffffffffffffffffffffffffffffffff1673ffffffffffffffffffffffffffffffffffffffff1663b90b8a2a6040518163ffffffff1660e01b815260040160206040518083038186803b15801561131257600080fd5b505afa158015611326573d6000803e3d6000fd5b505050506040513d601f19601f8201168201806040525081019061134a91906170a5565b905060005b8281101561151e57600060ca60009054906101000a900473ffffffffffffffffffffffffffffffffffffffff1673ffffffffffffffffffffffffffffffffffffffff1663db56192284846040518363ffffffff1660e01b81526004016113b6929190617f31565b60206040518083038186803b1580156113ce57600080fd5b505afa1580156113e2573d6000803e3d6000fd5b505050506040513d601f19601f8201168201806040525081019061140691906172e3565b9050600060ca60009054906101000a900473ffffffffffffffffffffffffffffffffffffffff1673ffffffffffffffffffffffffffffffffffffffff1663fc698b4a836040518263ffffffff1660e01b81526004016114659190617fba565b60206040518083038186803b15801561147d57600080fd5b505afa158015611491573d6000803e3d6000fd5b505050506040513d601f19601f820116820180604052508101906114b591906170a5565b905060ce60009054906101000a900467ffffffffffffffff1667ffffffffffffffff168267ffffffffffffffff1614156114fb576114f68660d054836134a6565b611509565b6115088660d05484613891565b5b505080806115169061851e565b91505061134f565b503373ffffffffffffffffffffffffffffffffffffffff1660d05460dd600060d0548152602001908152602001600020547f4f9e9bfb3670784096375593cb821e86bd88b1fcb08efc38330012d8c33c3e36888b6000426040516115859493929190617ae4565b60405180910390a450505050505050565b600060ca60009054906101000a900473ffffffffffffffffffffffffffffffffffffffff1673ffffffffffffffffffffffffffffffffffffffff166313cb1f83868686866040518563ffffffff1660e01b81526004016115f99493929190617a76565b60206040518083038186803b15801561161157600080fd5b505afa158015611625573d6000803e3d6000fd5b505050506040513d601f19601f8201168201806040525081019061164991906170a5565b9050949350505050565b60008060019054906101000a900460ff161590508080156116845750600160008054906101000a900460ff1660ff16105b806116b1575061169330613c2d565b1580156116b05750600160008054906101000a900460ff1660ff16145b5b6116f0576040517f08c379a00000000000000000000000000000000000000000000000000000000081526004016116e790617de0565b60405180910390fd5b60016000806101000a81548160ff021916908360ff160217905550801561172d576001600060016101000a81548160ff0219169083151502179055505b61173683613c50565b61173e613d56565b611746613daf565b61174e613e08565b8560ce60006101000a81548167ffffffffffffffff021916908367ffffffffffffffff1602179055508460cc60006101000a81548173ffffffffffffffffffffffffffffffffffffffff021916908373ffffffffffffffffffffffffffffffffffffffff1602179055508360cb60006101000a81548173ffffffffffffffffffffffffffffffffffffffff021916908373ffffffffffffffffffffffffffffffffffffffff160217905550600560cb60146101000a81548161ffff021916908361ffff1602179055508373ffffffffffffffffffffffffffffffffffffffff1663095ea7b3600060029054906101000a900473ffffffffffffffffffffffffffffffffffffffff167fffffffffffffffffffffffffffffffffffffffffffffffffffffffffffffffff6040518363ffffffff1660e01b8152600401611894929190617abb565b602060405180830381600087803b1580156118ae57600080fd5b505af11580156118c2573d6000803e3d6000fd5b505050506040513d601f19601f820116820180604052508101906118e69190616fa8565b508160ce60086101000a81548173ffffffffffffffffffffffffffffffffffffffff021916908373ffffffffffffffffffffffffffffffffffffffff160217905550600a60cc60146101000a81548160ff021916908360ff1602179055504260cd819055503360d260006101000a81548173ffffffffffffffffffffffffffffffffffffffff021916908373ffffffffffffffffffffffffffffffffffffffff16021790555080156119e55760008060016101000a81548160ff0219169083151502179055507f7f26b83ff96e1f2b6a682f133852f6798a09c465da95921460cefb384740249860016040516119dc9190617c9d565b60405180910390a15b505050505050565b600060ca60009054906101000a900473ffffffffffffffffffffffffffffffffffffffff1673ffffffffffffffffffffffffffffffffffffffff166319da7e2a836040518263ffffffff1660e01b8152600401611a4a9190617fba565b60206040518083038186803b158015611a6257600080fd5b505afa158015611a76573d6000803e3d6000fd5b505050506040513d601f19601f82011682018060405250810190611a9a9190616dc8565b9050919050565b60dd6020528060005260406000206000915090505481565b600080611ac5836119ed565b905060ca60009054906101000a900473ffffffffffffffffffffffffffffffffffffffff1673ffffffffffffffffffffffffffffffffffffffff1663174cbe5084836040518363ffffffff1660e01b8152600401611b24929190617fd5565b60206040518083038186803b158015611b3c57600080fd5b505afa158015611b50573d6000803e3d6000fd5b505050506040513d601f19601f82011682018060405250810190611b7491906170a5565b915050919050565b600060ca60009054906101000a900473ffffffffffffffffffffffffffffffffffffffff1673ffffffffffffffffffffffffffffffffffffffff1663340fbc74836040518263ffffffff1660e01b8152600401611bd99190617fba565b60206040518083038186803b158015611bf157600080fd5b505afa158015611c05573d6000803e3d6000fd5b505050506040513d601f19601f82011682018060405250810190611c299190616dc8565b9050919050565b600060ca60009054906101000a900473ffffffffffffffffffffffffffffffffffffffff1673ffffffffffffffffffffffffffffffffffffffff16633c8da5886040518163ffffffff1660e01b815260040160206040518083038186803b158015611c9a57600080fd5b505afa158015611cae573d6000803e3d6000fd5b505050506040513d601f19601f82011682018060405250810190611cd291906170a5565b905090565b60ce60009054906101000a900467ffffffffffffffff1681565b60ce60089054906101000a900473ffffffffffffffffffffffffffffffffffffffff1681565b60d86020528060005260406000206000915054906101000a900473ffffffffffffffffffffffffffffffffffffffff1681565b600061271060cc60149054906101000a900460ff1660ff1684611d6d919061828d565b611d77919061825c565b90506000828285611d889190618206565b611d929190618206565b905080341015611dd7576040517f08c379a0000000000000000000000000000000000000000000000000000000008152600401611dce90617e60565b60405180910390fd5b60ce60089054906101000a900473ffffffffffffffffffffffffffffffffffffffff1673ffffffffffffffffffffffffffffffffffffffff1663d0e30db0826040518263ffffffff1660e01b81526004016000604051808303818588803b158015611e4157600080fd5b505af1158015611e55573d6000803e3d6000fd5b505050505060ce60089054906101000a900473ffffffffffffffffffffffffffffffffffffffff1673ffffffffffffffffffffffffffffffffffffffff1663a9059cbb60d260009054906101000a900473ffffffffffffffffffffffffffffffffffffffff16846040518363ffffffff1660e01b8152600401611ed9929190617abb565b602060405180830381600087803b158015611ef357600080fd5b505af1158015611f07573d6000803e3d6000fd5b505050506040513d601f19601f82011682018060405250810190611f2b9190616fa8565b5060cf6000815480929190611f3f9061851e565b91905055503360d5600060cf54815260200190815260200160002060006101000a81548173ffffffffffffffffffffffffffffffffffffffff021916908373ffffffffffffffffffffffffffffffffffffffff1602179055508360e0600060cf5481526020019081526020016000208190555060ce60089054906101000a900473ffffffffffffffffffffffffffffffffffffffff1660e1600060cf54815260200190815260200160002060006101000a81548173ffffffffffffffffffffffffffffffffffffffff021916908373ffffffffffffffffffffffffffffffffffffffff16021790555061205560ce60089054906101000a900473ffffffffffffffffffffffffffffffffffffffff168585613e61565b50505050565b60d76020528060005260406000206000915090505481565b60e16020528060005260406000206000915054906101000a900473ffffffffffffffffffffffffffffffffffffffff1681565b6120ae6142e1565b600060cd54426120be91906182e7565b9050600c603c80836120d0919061825c565b6120da919061825c565b1161211a576040517f08c379a000000000000000000000000000000000000000000000000000000000815260040161211190617ec0565b60405180910390fd5b60648260ff1611158015612132575060018260ff1610155b612171576040517f08c379a000000000000000000000000000000000000000000000000000000000815260040161216890617d60565b60405180910390fd5b8160cc60146101000a81548160ff021916908360ff1602179055504260cd819055505050565b60cb60149054906101000a900461ffff1681565b6121b36142e1565b6121bd600061435f565b565b60df6020528060005260406000206000915090505481565b60cb60009054906101000a900473ffffffffffffffffffffffffffffffffffffffff1681565b60d96020528060005260406000206000915090505481565b60d3602052816000526040600020602052806000526040600020600091509150508060000154908060010154905082565b60d05481565b600060029054906101000a900473ffffffffffffffffffffffffffffffffffffffff1673ffffffffffffffffffffffffffffffffffffffff163373ffffffffffffffffffffffffffffffffffffffff16146122de57336040517fd7f733340000000000000000000000000000000000000000000000000000000081526004016122d5919061799a565b60405180910390fd5b6122f0816122eb90618462565b614425565b50565b6000603360009054906101000a900473ffffffffffffffffffffffffffffffffffffffff16905090565b60dc6020528060005260406000206000915090505481565b60d46020528060005260406000206000915090505481565b60cc60149054906101000a900460ff1681565b600061271060cc60149054906101000a900460ff1660ff1685612383919061828d565b61238d919061825c565b90508473ffffffffffffffffffffffffffffffffffffffff166323b872dd3360cc60009054906101000a900473ffffffffffffffffffffffffffffffffffffffff1684886123db9190618206565b6040518463ffffffff1660e01b81526004016123f9939291906179ec565b602060405180830381600087803b15801561241357600080fd5b505af1158015612427573d6000803e3d6000fd5b505050506040513d601f19601f8201168201806040525081019061244b9190616fa8565b5060006124888660ce60089054906101000a900473ffffffffffffffffffffffffffffffffffffffff1684886124819190618206565b3087614549565b9050600061271060cc60149054906101000a900460ff1660ff16836124ad919061828d565b6124b7919061825c565b9050600081836124c791906182e7565b905060ce60089054906101000a900473ffffffffffffffffffffffffffffffffffffffff1673ffffffffffffffffffffffffffffffffffffffff1663a9059cbb60d260009054906101000a900473ffffffffffffffffffffffffffffffffffffffff16846040518363ffffffff1660e01b8152600401612548929190617abb565b602060405180830381600087803b15801561256257600080fd5b505af1158015612576573d6000803e3d6000fd5b505050506040513d601f19601f8201168201806040525081019061259a9190616fa8565b5060cf60008154809291906125ae9061851e565b91905055503360d5600060cf54815260200190815260200160002060006101000a81548173ffffffffffffffffffffffffffffffffffffffff021916908373ffffffffffffffffffffffffffffffffffffffff1602179055508660e0600060cf548152602001908152602001600020819055508760e1600060cf54815260200190815260200160002060006101000a81548173ffffffffffffffffffffffffffffffffffffffff021916908373ffffffffffffffffffffffffffffffffffffffff160217905550612680888288613e61565b5050505050505050565b60e26020528060005260406000206000915090505481565b60cf5481565b60d56020528060005260406000206000915054906101000a900473ffffffffffffffffffffffffffffffffffffffff1681565b600080600060ca60009054906101000a900473ffffffffffffffffffffffffffffffffffffffff1673ffffffffffffffffffffffffffffffffffffffff166353fd43326040518163ffffffff1660e01b815260040160206040518083038186803b15801561274857600080fd5b505afa15801561275c573d6000803e3d6000fd5b505050506040513d601f19601f8201168201806040525081019061278091906170a5565b905060005b81811015612c8757600060ca60009054906101000a900473ffffffffffffffffffffffffffffffffffffffff1673ffffffffffffffffffffffffffffffffffffffff16639932ba4c836040518263ffffffff1660e01b81526004016127ea9190617f16565b60206040518083038186803b15801561280257600080fd5b505afa158015612816573d6000803e3d6000fd5b505050506040513d601f19601f8201168201806040525081019061283a9190616dc8565b9050600060ca60009054906101000a900473ffffffffffffffffffffffffffffffffffffffff1673ffffffffffffffffffffffffffffffffffffffff1663ea8ecf04836040518263ffffffff1660e01b8152600401612899919061799a565b60206040518083038186803b1580156128b157600080fd5b505afa1580156128c5573d6000803e3d6000fd5b505050506040513d601f19601f820116820180604052508101906128e991906172e3565b9050600060ca60009054906101000a900473ffffffffffffffffffffffffffffffffffffffff1673ffffffffffffffffffffffffffffffffffffffff1663d90bc211846040518263ffffffff1660e01b8152600401612948919061799a565b60206040518083038186803b15801561296057600080fd5b505afa158015612974573d6000803e3d6000fd5b505050506040513d601f19601f8201168201806040525081019061299891906170a5565b905060ce60009054906101000a900467ffffffffffffffff1667ffffffffffffffff168267ffffffffffffffff161415612c715760ce60089054906101000a900473ffffffffffffffffffffffffffffffffffffffff1673ffffffffffffffffffffffffffffffffffffffff168373ffffffffffffffffffffffffffffffffffffffff161415612adf578273ffffffffffffffffffffffffffffffffffffffff166370a0823160cc60009054906101000a900473ffffffffffffffffffffffffffffffffffffffff166040518263ffffffff1660e01b8152600401612a7d919061799a565b60206040518083038186803b158015612a9557600080fd5b505afa158015612aa9573d6000803e3d6000fd5b505050506040513d601f19601f82011682018060405250810190612acd91906170a5565b86612ad89190618206565b9550612c70565b600060ca60009054906101000a900473ffffffffffffffffffffffffffffffffffffffff1673ffffffffffffffffffffffffffffffffffffffff166313cb1f838560ce60089054906101000a900473ffffffffffffffffffffffffffffffffffffffff168773ffffffffffffffffffffffffffffffffffffffff166370a0823160cc60009054906101000a900473ffffffffffffffffffffffffffffffffffffffff166040518263ffffffff1660e01b8152600401612b9e919061799a565b60206040518083038186803b158015612bb657600080fd5b505afa158015612bca573d6000803e3d6000fd5b505050506040513d601f19601f82011682018060405250810190612bee91906170a5565b866040518563ffffffff1660e01b8152600401612c0e9493929190617a76565b60206040518083038186803b158015612c2657600080fd5b505afa158015612c3a573d6000803e3d6000fd5b505050506040513d601f19601f82011682018060405250810190612c5e91906170a5565b90508087612c6c9190618206565b9650505b5b5050508080612c7f9061851e565b915050612785565b50819250505090565b60008060029054906101000a900473ffffffffffffffffffffffffffffffffffffffff16905090565b60db602052816000526040600020602052806000526040600020600091509150505481565b60d260009054906101000a900473ffffffffffffffffffffffffffffffffffffffff1681565b612d0c6142e1565b600073ffffffffffffffffffffffffffffffffffffffff168173ffffffffffffffffffffffffffffffffffffffff161415612d7c576040517f08c379a0000000000000000000000000000000000000000000000000000000008152600401612d7390617e20565b60405180910390fd5b80606560006101000a81548173ffffffffffffffffffffffffffffffffffffffff021916908373ffffffffffffffffffffffffffffffffffffffff16021790555050565b6000806040518060a0016040528086604051602001612ddf919061799a565b6040516020818303038152906040528152602001858152602001600067ffffffffffffffff811115612e1457612e13618623565b5b604051908082528060200260200182016040528015612e4d57816020015b612e3a61687d565b815260200190600190039081612e325790505b508152602001600180811115612e6657612e656185c5565b5b856001811115612e7957612e786185c5565b5b14612e85576000612ea9565b60cb60009054906101000a900473ffffffffffffffffffffffffffffffffffffffff165b73ffffffffffffffffffffffffffffffffffffffff168152602001612ee76040518060400160405280620dbba08152602001600015158152506146e3565b815250905060008060029054906101000a900473ffffffffffffffffffffffffffffffffffffffff1673ffffffffffffffffffffffffffffffffffffffff166320487ded88846040518363ffffffff1660e01b8152600401612f4a929190617ffe565b60206040518083038186803b158015612f6257600080fd5b505afa158015612f76573d6000803e3d6000fd5b505050506040513d601f19601f82011682018060405250810190612f9a91906170a5565b90506000600180811115612fb157612fb06185c5565b5b856001811115612fc457612fc36185c5565b5b141561308057600060029054906101000a900473ffffffffffffffffffffffffffffffffffffffff1673ffffffffffffffffffffffffffffffffffffffff166396f4e9f989856040518363ffffffff1660e01b8152600401613027929190617ffe565b602060405180830381600087803b15801561304157600080fd5b505af1158015613055573d6000803e3d6000fd5b505050506040513d601f19601f820116820180604052508101906130799190616fd5565b9050613133565b600060029054906101000a900473ffffffffffffffffffffffffffffffffffffffff1673ffffffffffffffffffffffffffffffffffffffff166396f4e9f9838a866040518463ffffffff1660e01b81526004016130de929190617ffe565b6020604051808303818588803b1580156130f757600080fd5b505af115801561310b573d6000803e3d6000fd5b50505050506040513d601f19601f820116820180604052508101906131309190616fd5565b90505b7f54791b38f3859327992a1ca0590ad3c0f08feba98d1a4f56ab0dca74d203392a816040516131629190617b89565b60405180910390a1809350505050949350505050565b60da6020528060005260406000206000915090505481565b6000670de0b6b3a76400006131a3611c30565b836131ae919061828d565b6131b8919061825c565b9050919050565b60e36020528060005260406000206000915054906101000a900473ffffffffffffffffffffffffffffffffffffffff1681565b6131fa6142e1565b8060ca60006101000a81548173ffffffffffffffffffffffffffffffffffffffff021916908373ffffffffffffffffffffffffffffffffffffffff16021790555050565b60e06020528060005260406000206000915090505481565b606560009054906101000a900473ffffffffffffffffffffffffffffffffffffffff1681565b60ca60009054906101000a900473ffffffffffffffffffffffffffffffffffffffff1681565b60cc60009054906101000a900473ffffffffffffffffffffffffffffffffffffffff1681565b6132d06142e1565b8060d260006101000a81548173ffffffffffffffffffffffffffffffffffffffff021916908373ffffffffffffffffffffffffffffffffffffffff16021790555050565b60d66020528060005260406000206000915090505481565b600073ffffffffffffffffffffffffffffffffffffffff168173ffffffffffffffffffffffffffffffffffffffff16141561339c576040517f08c379a000000000000000000000000000000000000000000000000000000000815260040161339390617e20565b60405180910390fd5b606560009054906101000a900473ffffffffffffffffffffffffffffffffffffffff1673ffffffffffffffffffffffffffffffffffffffff168173ffffffffffffffffffffffffffffffffffffffff161461342c576040517f08c379a000000000000000000000000000000000000000000000000000000000815260040161342390617d80565b60405180910390fd5b3373ffffffffffffffffffffffffffffffffffffffff168173ffffffffffffffffffffffffffffffffffffffff161461349a576040517f08c379a000000000000000000000000000000000000000000000000000000000815260040161349190617dc0565b60405180910390fd5b6134a38161435f565b50565b60005b8181101561388b57600060ca60009054906101000a900473ffffffffffffffffffffffffffffffffffffffff1673ffffffffffffffffffffffffffffffffffffffff16639932ba4c836040518263ffffffff1660e01b815260040161350e9190617f16565b60206040518083038186803b15801561352657600080fd5b505afa15801561353a573d6000803e3d6000fd5b505050506040513d601f19601f8201168201806040525081019061355e9190616dc8565b9050600060ca60009054906101000a900473ffffffffffffffffffffffffffffffffffffffff1673ffffffffffffffffffffffffffffffffffffffff1663d90bc211836040518263ffffffff1660e01b81526004016135bd919061799a565b60206040518083038186803b1580156135d557600080fd5b505afa1580156135e9573d6000803e3d6000fd5b505050506040513d601f19601f8201168201806040525081019061360d91906170a5565b90506000670de0b6b3a76400008373ffffffffffffffffffffffffffffffffffffffff166370a0823160cc60009054906101000a900473ffffffffffffffffffffffffffffffffffffffff166040518263ffffffff1660e01b8152600401613675919061799a565b60206040518083038186803b15801561368d57600080fd5b505afa1580156136a1573d6000803e3d6000fd5b505050506040513d601f19601f820116820180604052508101906136c591906170a5565b886136d0919061828d565b6136da919061825c565b9050600060ce60089054906101000a900473ffffffffffffffffffffffffffffffffffffffff1673ffffffffffffffffffffffffffffffffffffffff168473ffffffffffffffffffffffffffffffffffffffff1614156137ed5760cc60009054906101000a900473ffffffffffffffffffffffffffffffffffffffff1673ffffffffffffffffffffffffffffffffffffffff166377524af960cc60009054906101000a900473ffffffffffffffffffffffffffffffffffffffff16846040518363ffffffff1660e01b81526004016137b3929190617abb565b600060405180830381600087803b1580156137cd57600080fd5b505af11580156137e1573d6000803e3d6000fd5b5050505081905061381f565b61381c8460ce60089054906101000a900473ffffffffffffffffffffffffffffffffffffffff16843087614549565b90505b8060d6600089815260200190815260200160002060008282546138429190618206565b92505081905550600160d76000898152602001908152602001600020600082825461386d9190618206565b925050819055505050505080806138839061851e565b9150506134a9565b50505050565b600061389c82611b7c565b9050600060ca60009054906101000a900473ffffffffffffffffffffffffffffffffffffffff1673ffffffffffffffffffffffffffffffffffffffff1663d1c68aa3846040518263ffffffff1660e01b81526004016138fb9190617fba565b60006040518083038186803b15801561391357600080fd5b505afa158015613927573d6000803e3d6000fd5b505050506040513d6000823e3d601f19601f820116820180604052508101906139509190616f16565b9050600060ca60009054906101000a900473ffffffffffffffffffffffffffffffffffffffff1673ffffffffffffffffffffffffffffffffffffffff1663221f3371856040518263ffffffff1660e01b81526004016139af9190617fba565b60006040518083038186803b1580156139c757600080fd5b505afa1580156139db573d6000803e3d6000fd5b505050506040513d6000823e3d601f19601f82011682018060405250810190613a049190616f5f565b9050600060ca60009054906101000a900473ffffffffffffffffffffffffffffffffffffffff1673ffffffffffffffffffffffffffffffffffffffff1663af696b34866040518263ffffffff1660e01b8152600401613a639190617fba565b60006040518083038186803b158015613a7b57600080fd5b505afa158015613a8f573d6000803e3d6000fd5b505050506040513d6000823e3d601f19601f82011682018060405250810190613ab89190616f5f565b905060008067ffffffffffffffff811115613ad657613ad5618623565b5b604051908082528060200260200182016040528015613b045781602001602082028036833780820191505090505b50905060008067ffffffffffffffff811115613b2357613b22618623565b5b604051908082528060200260200182016040528015613b515781602001602082028036833780820191505090505b5090506000600167ffffffffffffffff811115613b7157613b70618623565b5b604051908082528060200260200182016040528015613b9f5781602001602082028036833780820191505090505b5090508981600081518110613bb757613bb66185f4565b5b60200260200101818152505060006001878588868e8a88604051602001613be5989796959493929190617cb8565b60405160208183030381529060405290506000613c058a8a846001612dc0565b90508060dd60008d815260200190815260200160002081905550505050505050505050505050565b6000808273ffffffffffffffffffffffffffffffffffffffff163b119050919050565b600060019054906101000a900460ff16613c9f576040517f08c379a0000000000000000000000000000000000000000000000000000000008152600401613c9690617e80565b60405180910390fd5b600073ffffffffffffffffffffffffffffffffffffffff168173ffffffffffffffffffffffffffffffffffffffff161415613d125760006040517fd7f73334000000000000000000000000000000000000000000000000000000008152600401613d09919061799a565b60405180910390fd5b80600060026101000a81548173ffffffffffffffffffffffffffffffffffffffff021916908373ffffffffffffffffffffffffffffffffffffffff16021790555050565b600060019054906101000a900460ff16613da5576040517f08c379a0000000000000000000000000000000000000000000000000000000008152600401613d9c90617e80565b60405180910390fd5b613dad614762565b565b600060019054906101000a900460ff16613dfe576040517f08c379a0000000000000000000000000000000000000000000000000000000008152600401613df590617e80565b60405180910390fd5b613e06613e08565b565b600060019054906101000a900460ff16613e57576040517f08c379a0000000000000000000000000000000000000000000000000000000008152600401613e4e90617e80565b60405180910390fd5b6001609881905550565b60ce60089054906101000a900473ffffffffffffffffffffffffffffffffffffffff1673ffffffffffffffffffffffffffffffffffffffff1663a9059cbb60cc60009054906101000a900473ffffffffffffffffffffffffffffffffffffffff16846040518363ffffffff1660e01b8152600401613ee0929190617abb565b602060405180830381600087803b158015613efa57600080fd5b505af1158015613f0e573d6000803e3d6000fd5b505050506040513d601f19601f82011682018060405250810190613f329190616fa8565b506000829050600060ca60009054906101000a900473ffffffffffffffffffffffffffffffffffffffff1673ffffffffffffffffffffffffffffffffffffffff166369487b1c6040518163ffffffff1660e01b815260040160206040518083038186803b158015613fa257600080fd5b505afa158015613fb6573d6000803e3d6000fd5b505050506040513d601f19601f82011682018060405250810190613fda91906170a5565b9050600060ca60009054906101000a900473ffffffffffffffffffffffffffffffffffffffff1673ffffffffffffffffffffffffffffffffffffffff1663b90b8a2a6040518163ffffffff1660e01b815260040160206040518083038186803b15801561404657600080fd5b505afa15801561405a573d6000803e3d6000fd5b505050506040513d601f19601f8201168201806040525081019061407e91906170a5565b905060005b8281101561425557600060ca60009054906101000a900473ffffffffffffffffffffffffffffffffffffffff1673ffffffffffffffffffffffffffffffffffffffff1663db56192284846040518363ffffffff1660e01b81526004016140ea929190617f31565b60206040518083038186803b15801561410257600080fd5b505afa158015614116573d6000803e3d6000fd5b505050506040513d601f19601f8201168201806040525081019061413a91906172e3565b9050600060ca60009054906101000a900473ffffffffffffffffffffffffffffffffffffffff1673ffffffffffffffffffffffffffffffffffffffff1663fc698b4a836040518263ffffffff1660e01b81526004016141999190617fba565b60206040518083038186803b1580156141b157600080fd5b505afa1580156141c5573d6000803e3d6000fd5b505050506040513d601f19601f820116820180604052508101906141e991906170a5565b905060ce60009054906101000a900467ffffffffffffffff1667ffffffffffffffff168267ffffffffffffffff1614156142315761422c8660cf548385886147c3565b614240565b61423f8660cf548487614e6f565b5b5050808061424d9061851e565b915050614083565b503373ffffffffffffffffffffffffffffffffffffffff1660cf5460dc600060cf548152602001908152602001600020547f497983feda2f53898206317c0b392bffd918715fad18aaedf4ac296f7ec6bf3d8960e0600060cf548152602001908152602001600020546000426040516142d19493929190617ae4565b60405180910390a4505050505050565b6142e9615440565b73ffffffffffffffffffffffffffffffffffffffff166143076122f3565b73ffffffffffffffffffffffffffffffffffffffff161461435d576040517f08c379a000000000000000000000000000000000000000000000000000000000815260040161435490617e00565b60405180910390fd5b565b6000603360009054906101000a900473ffffffffffffffffffffffffffffffffffffffff16905081603360006101000a81548173ffffffffffffffffffffffffffffffffffffffff021916908373ffffffffffffffffffffffffffffffffffffffff1602179055508173ffffffffffffffffffffffffffffffffffffffff168173ffffffffffffffffffffffffffffffffffffffff167f8be0079c531659141344cd1fd0a4f28419497f9722a3daafe3b4186f6b6457e060405160405180910390a35050565b600081600001519050600082602001519050600060ca60009054906101000a900473ffffffffffffffffffffffffffffffffffffffff1673ffffffffffffffffffffffffffffffffffffffff166353fd43326040518163ffffffff1660e01b815260040160206040518083038186803b1580156144a157600080fd5b505afa1580156144b5573d6000803e3d6000fd5b505050506040513d601f19601f820116820180604052508101906144d991906170a5565b905060008060008060008089606001518060200190518101906144fc9190617112565b95509550955095509550955060008614156145245761451f838684848b8e615448565b61453d565b600186141561453c5761453b838b878a8c8e6155eb565b5b5b50505050505050505050565b60008060ca60009054906101000a900473ffffffffffffffffffffffffffffffffffffffff1673ffffffffffffffffffffffffffffffffffffffff166313cb1f83888888876040518563ffffffff1660e01b81526004016145ad9493929190617a76565b60206040518083038186803b1580156145c557600080fd5b505afa1580156145d9573d6000803e3d6000fd5b505050506040513d601f19601f820116820180604052508101906145fd91906170a5565b90506000808211156146c15760cc60009054906101000a900473ffffffffffffffffffffffffffffffffffffffff1673ffffffffffffffffffffffffffffffffffffffff16635f370ed089898989896040518663ffffffff1660e01b815260040161466c959493929190617a23565b602060405180830381600087803b15801561468657600080fd5b505af115801561469a573d6000803e3d6000fd5b505050506040513d601f19601f820116820180604052508101906146be91906170a5565b90505b60038414156146d45780925050506146da565b81925050505b95945050505050565b60606397a657c960e01b826040516024016146fe9190617ee0565b604051602081830303815290604052907bffffffffffffffffffffffffffffffffffffffffffffffffffffffff19166020820180517bffffffffffffffffffffffffffffffffffffffffffffffffffffffff83818316178352505050509050919050565b600060019054906101000a900460ff166147b1576040517f08c379a00000000000000000000000000000000000000000000000000000000081526004016147a890617e80565b60405180910390fd5b6147c16147bc615440565b61435f565b565b60005b83811015614e6757600060ca60009054906101000a900473ffffffffffffffffffffffffffffffffffffffff1673ffffffffffffffffffffffffffffffffffffffff1663271b5fcc8486856040518463ffffffff1660e01b815260040161482f93929190617f83565b60206040518083038186803b15801561484757600080fd5b505afa15801561485b573d6000803e3d6000fd5b505050506040513d601f19601f8201168201806040525081019061487f9190616dc8565b9050600060ca60009054906101000a900473ffffffffffffffffffffffffffffffffffffffff1673ffffffffffffffffffffffffffffffffffffffff1663d90bc211836040518263ffffffff1660e01b81526004016148de919061799a565b60206040518083038186803b1580156148f657600080fd5b505afa15801561490a573d6000803e3d6000fd5b505050506040513d601f19601f8201168201806040525081019061492e91906170a5565b9050600060ca60009054906101000a900473ffffffffffffffffffffffffffffffffffffffff1673ffffffffffffffffffffffffffffffffffffffff16630be52713846040518263ffffffff1660e01b815260040161498d919061799a565b60206040518083038186803b1580156149a557600080fd5b505afa1580156149b9573d6000803e3d6000fd5b505050506040513d601f19601f820116820180604052508101906149dd91906170a5565b905060ce60089054906101000a900473ffffffffffffffffffffffffffffffffffffffff1673ffffffffffffffffffffffffffffffffffffffff168373ffffffffffffffffffffffffffffffffffffffff161415614b4457614ae88373ffffffffffffffffffffffffffffffffffffffff166370a0823160cc60009054906101000a900473ffffffffffffffffffffffffffffffffffffffff166040518263ffffffff1660e01b8152600401614a93919061799a565b60206040518083038186803b158015614aab57600080fd5b505afa158015614abf573d6000803e3d6000fd5b505050506040513d601f19601f82011682018060405250810190614ae391906170a5565b613190565b60d360008a815260200190815260200160002060008573ffffffffffffffffffffffffffffffffffffffff1673ffffffffffffffffffffffffffffffffffffffff16815260200190815260200160002060000181905550614c7c565b614c24614c1f8460ce60089054906101000a900473ffffffffffffffffffffffffffffffffffffffff168673ffffffffffffffffffffffffffffffffffffffff166370a0823160cc60009054906101000a900473ffffffffffffffffffffffffffffffffffffffff166040518263ffffffff1660e01b8152600401614bc9919061799a565b60206040518083038186803b158015614be157600080fd5b505afa158015614bf5573d6000803e3d6000fd5b505050506040513d601f19601f82011682018060405250810190614c1991906170a5565b86611596565b613190565b60d360008a815260200190815260200160002060008573ffffffffffffffffffffffffffffffffffffffff1673ffffffffffffffffffffffffffffffffffffffff168152602001908152602001600020600001819055505b60ce60089054906101000a900473ffffffffffffffffffffffffffffffffffffffff1673ffffffffffffffffffffffffffffffffffffffff168373ffffffffffffffffffffffffffffffffffffffff161415614cd757614d49565b614d4760ce60089054906101000a900473ffffffffffffffffffffffffffffffffffffffff168468056bc75e2d63100000848d614d14919061828d565b614d1e919061825c565b60cc60009054906101000a900473ffffffffffffffffffffffffffffffffffffffff1686614549565b505b614d7168056bc75e2d63100000828b614d62919061828d565b614d6c919061825c565b613190565b60d360008a815260200190815260200160002060008573ffffffffffffffffffffffffffffffffffffffff1673ffffffffffffffffffffffffffffffffffffffff16815260200190815260200160002060000154614dcf9190618206565b60d360008a815260200190815260200160002060008573ffffffffffffffffffffffffffffffffffffffff1673ffffffffffffffffffffffffffffffffffffffff16815260200190815260200160002060010181905550600160d460008a81526020019081526020016000206000828254614e4a9190618206565b925050819055505050508080614e5f9061851e565b9150506147c6565b505050505050565b614e776168ad565b6000600167ffffffffffffffff811115614e9457614e93618623565b5b604051908082528060200260200182016040528015614ec25781602001602082028036833780820191505090505b50905060ca60009054906101000a900473ffffffffffffffffffffffffffffffffffffffff1673ffffffffffffffffffffffffffffffffffffffff166344fd376f84866040518363ffffffff1660e01b8152600401614f22929190617f5a565b60206040518083038186803b158015614f3a57600080fd5b505afa158015614f4e573d6000803e3d6000fd5b505050506040513d601f19601f82011682018060405250810190614f7291906170a5565b81600081518110614f8657614f856185f4565b5b602002602001018181525050600061500d60ce60089054906101000a900473ffffffffffffffffffffffffffffffffffffffff16614fc3876119ed565b68056bc75e2d6310000085600081518110614fe157614fe06185f4565b5b60200260200101518b614ff4919061828d565b614ffe919061825c565b306150088a611ab9565b614549565b9050600061501a86611b7c565b905060ca60009054906101000a900473ffffffffffffffffffffffffffffffffffffffff1673ffffffffffffffffffffffffffffffffffffffff1663d1c68aa3876040518263ffffffff1660e01b81526004016150779190617fba565b60006040518083038186803b15801561508f57600080fd5b505afa1580156150a3573d6000803e3d6000fd5b505050506040513d6000823e3d601f19601f820116820180604052508101906150cc9190616f16565b846000018190525060ca60009054906101000a900473ffffffffffffffffffffffffffffffffffffffff1673ffffffffffffffffffffffffffffffffffffffff1663221f3371876040518263ffffffff1660e01b815260040161512f9190617fba565b60006040518083038186803b15801561514757600080fd5b505afa15801561515b573d6000803e3d6000fd5b505050506040513d6000823e3d601f19601f820116820180604052508101906151849190616f5f565b846020018190525060ca60009054906101000a900473ffffffffffffffffffffffffffffffffffffffff1673ffffffffffffffffffffffffffffffffffffffff1663af696b34876040518263ffffffff1660e01b81526004016151e79190617fba565b60006040518083038186803b1580156151ff57600080fd5b505afa158015615213573d6000803e3d6000fd5b505050506040513d6000823e3d601f19601f8201168201806040525081019061523c9190616f5f565b8460400181905250600067ffffffffffffffff81111561525f5761525e618623565b5b60405190808252806020026020018201604052801561528d5781602001602082028036833780820191505090505b508460600181905250600067ffffffffffffffff8111156152b1576152b0618623565b5b6040519080825280602002602001820160405280156152df5781602001602082028036833780820191505090505b5084608001819052506000600167ffffffffffffffff81111561530557615304618623565b5b60405190808252806020026020018201604052801561533e57816020015b61532b61687d565b8152602001906001900390816153235790505b50905061534a876119ed565b8160008151811061535e5761535d6185f4565b5b60200260200101516000019073ffffffffffffffffffffffffffffffffffffffff16908173ffffffffffffffffffffffffffffffffffffffff168152505082816000815181106153b1576153b06185f4565b5b6020026020010151602001818152505060008086600001518760600151886020015189608001518d8b604001518b6040516020016153f6989796959493929190617bf5565b604051602081830303815290604052905060006154178983868660016156fd565b90508060dc600060cf548152602001908152602001600020819055505050505050505050505050565b600033905090565b600086905060005b86518110156155bb57600086828151811061546e5761546d6185f4565b5b60200260200101519050600086838151811061548d5761548c6185f4565b5b602002602001015190508160d3600086815260200190815260200160002060008b86815181106154c0576154bf6185f4565b5b602002602001015173ffffffffffffffffffffffffffffffffffffffff1673ffffffffffffffffffffffffffffffffffffffff168152602001908152602001600020600001819055508060d3600086815260200190815260200160002060008b8681518110615532576155316185f4565b5b602002602001015173ffffffffffffffffffffffffffffffffffffffff1673ffffffffffffffffffffffffffffffffffffffff16815260200190815260200160002060010181905550600160d46000868152602001908152602001600020600082825461559f9190618206565b92505081905550505080806155b39061851e565b915050615450565b508260d460008381526020019081526020016000205414156155e2576155e18183615c48565b5b50505050505050565b600086905060008660800151905060008160008151811061560f5761560e6185f4565b5b6020026020010151600001519050600082600081518110615633576156326185f4565b5b602002602001015160200151905060006156738360ce60089054906101000a900473ffffffffffffffffffffffffffffffffffffffff1684306003616239565b90508060d6600087815260200190815260200160002060008282546156989190618206565b92505081905550885160d7600087815260200190815260200160002060008282546156c39190618206565b925050819055508760d760008781526020019081526020016000205414156156f0576156ef85876163b1565b5b5050505050505050505050565b6000615707616823565b60008351905060cb60149054906101000a900461ffff1661ffff16811115615764576040517f08c379a000000000000000000000000000000000000000000000000000000000815260040161575b90617da0565b60405180910390fd5b60005b818110156158da5760cb60009054906101000a900473ffffffffffffffffffffffffffffffffffffffff1673ffffffffffffffffffffffffffffffffffffffff168582815181106157bb576157ba6185f4565b5b60200260200101516000015173ffffffffffffffffffffffffffffffffffffffff16146158cf578481815181106157f5576157f46185f4565b5b60200260200101516000015173ffffffffffffffffffffffffffffffffffffffff1663095ea7b3600060029054906101000a900473ffffffffffffffffffffffffffffffffffffffff16878481518110615852576158516185f4565b5b6020026020010151602001516040518363ffffffff1660e01b815260040161587b929190617abb565b602060405180830381600087803b15801561589557600080fd5b505af11580156158a9573d6000803e3d6000fd5b505050506040513d601f19601f820116820180604052508101906158cd9190616fa8565b505b806001019050615767565b5060006040518060a00160405280876040516020016158f9919061799a565b604051602081830303815290604052815260200188815260200186815260200160018081111561592c5761592b6185c5565b5b86600181111561593f5761593e6185c5565b5b1461594b57600061596f565b60cb60009054906101000a900473ffffffffffffffffffffffffffffffffffffffff165b73ffffffffffffffffffffffffffffffffffffffff1681526020016159ad6040518060400160405280620dbba08152602001600015158152506146e3565b815250905060008060029054906101000a900473ffffffffffffffffffffffffffffffffffffffff1673ffffffffffffffffffffffffffffffffffffffff166320487ded8a846040518363ffffffff1660e01b8152600401615a10929190617ffe565b60206040518083038186803b158015615a2857600080fd5b505afa158015615a3c573d6000803e3d6000fd5b505050506040513d601f19601f82011682018060405250810190615a6091906170a5565b90506000600180811115615a7757615a766185c5565b5b866001811115615a8a57615a896185c5565b5b1415615b4657600060029054906101000a900473ffffffffffffffffffffffffffffffffffffffff1673ffffffffffffffffffffffffffffffffffffffff166396f4e9f98b856040518363ffffffff1660e01b8152600401615aed929190617ffe565b602060405180830381600087803b158015615b0757600080fd5b505af1158015615b1b573d6000803e3d6000fd5b505050506040513d601f19601f82011682018060405250810190615b3f9190616fd5565b9050615bf9565b600060029054906101000a900473ffffffffffffffffffffffffffffffffffffffff1673ffffffffffffffffffffffffffffffffffffffff166396f4e9f9838c866040518463ffffffff1660e01b8152600401615ba4929190617ffe565b6020604051808303818588803b158015615bbd57600080fd5b505af1158015615bd1573d6000803e3d6000fd5b50505050506040513d601f19601f82011682018060405250810190615bf69190616fd5565b90505b7f54791b38f3859327992a1ca0590ad3c0f08feba98d1a4f56ab0dca74d203392a81604051615c289190617b89565b60405180910390a180945050505050615c3f616873565b95945050505050565b600080600060ca60009054906101000a900473ffffffffffffffffffffffffffffffffffffffff1673ffffffffffffffffffffffffffffffffffffffff166353fd43326040518163ffffffff1660e01b815260040160206040518083038186803b158015615cb557600080fd5b505afa158015615cc9573d6000803e3d6000fd5b505050506040513d601f19601f82011682018060405250810190615ced91906170a5565b905060005b81811015615e7f57600060ca60009054906101000a900473ffffffffffffffffffffffffffffffffffffffff1673ffffffffffffffffffffffffffffffffffffffff16639932ba4c836040518263ffffffff1660e01b8152600401615d579190617f16565b60206040518083038186803b158015615d6f57600080fd5b505afa158015615d83573d6000803e3d6000fd5b505050506040513d601f19601f82011682018060405250810190615da79190616dc8565b905060d3600088815260200190815260200160002060008273ffffffffffffffffffffffffffffffffffffffff1673ffffffffffffffffffffffffffffffffffffffff1681526020019081526020016000206000015485615e089190618206565b945060d3600088815260200190815260200160002060008273ffffffffffffffffffffffffffffffffffffffff1673ffffffffffffffffffffffffffffffffffffffff1681526020019081526020016000206001015484615e699190618206565b9350508080615e779061851e565b915050615cf2565b5060008060cc60009054906101000a900473ffffffffffffffffffffffffffffffffffffffff1673ffffffffffffffffffffffffffffffffffffffff166318160ddd6040518163ffffffff1660e01b815260040160206040518083038186803b158015615eeb57600080fd5b505afa158015615eff573d6000803e3d6000fd5b505050506040513d601f19601f82011682018060405250810190615f2391906170a5565b11156160905760cc60009054906101000a900473ffffffffffffffffffffffffffffffffffffffff1673ffffffffffffffffffffffffffffffffffffffff166318160ddd6040518163ffffffff1660e01b815260040160206040518083038186803b158015615f9157600080fd5b505afa158015615fa5573d6000803e3d6000fd5b505050506040513d601f19601f82011682018060405250810190615fc991906170a5565b848460cc60009054906101000a900473ffffffffffffffffffffffffffffffffffffffff1673ffffffffffffffffffffffffffffffffffffffff166318160ddd6040518163ffffffff1660e01b815260040160206040518083038186803b15801561603357600080fd5b505afa158015616047573d6000803e3d6000fd5b505050506040513d601f19601f8201168201806040525081019061606b91906170a5565b616075919061828d565b61607f919061825c565b61608991906182e7565b90506160a0565b60648361609d919061828d565b90505b60cc60009054906101000a900473ffffffffffffffffffffffffffffffffffffffff1673ffffffffffffffffffffffffffffffffffffffff166340c10f1960d5600089815260200190815260200160002060009054906101000a900473ffffffffffffffffffffffffffffffffffffffff16836040518363ffffffff1660e01b8152600401616130929190617abb565b600060405180830381600087803b15801561614a57600080fd5b505af115801561615e573d6000803e3d6000fd5b5050505060d5600087815260200190815260200160002060009054906101000a900473ffffffffffffffffffffffffffffffffffffffff1673ffffffffffffffffffffffffffffffffffffffff1686867f4d3128af979c46a863cd489a3d0959d5d22181cdbdb1949b40cadfcdac0a1d3860e160008b815260200190815260200160002060009054906101000a900473ffffffffffffffffffffffffffffffffffffffff1660e060008c81526020019081526020016000205486426040516162299493929190617b29565b60405180910390a4505050505050565b60008573ffffffffffffffffffffffffffffffffffffffff1663a9059cbb60ca60009054906101000a900473ffffffffffffffffffffffffffffffffffffffff16866040518363ffffffff1660e01b8152600401616298929190617abb565b602060405180830381600087803b1580156162b257600080fd5b505af11580156162c6573d6000803e3d6000fd5b505050506040513d601f19601f820116820180604052508101906162ea9190616fa8565b50600060ca60009054906101000a900473ffffffffffffffffffffffffffffffffffffffff1673ffffffffffffffffffffffffffffffffffffffff166317d88f4688888888886040518663ffffffff1660e01b8152600401616350959493929190617a23565b602060405180830381600087803b15801561636a57600080fd5b505af115801561637e573d6000803e3d6000fd5b505050506040513d601f19601f820116820180604052508101906163a291906170a5565b90508091505095945050505050565b600060d66000848152602001908152602001600020549050600060d8600085815260200190815260200160002060009054906101000a900473ffffffffffffffffffffffffffffffffffffffff169050600060de600086815260200190815260200160002060009054906101000a900473ffffffffffffffffffffffffffffffffffffffff169050600060df6000878152602001908152602001600020549050600061271060cc60149054906101000a900460ff1660ff1686616474919061828d565b61647e919061825c565b905060ce60089054906101000a900473ffffffffffffffffffffffffffffffffffffffff1673ffffffffffffffffffffffffffffffffffffffff1663a9059cbb60d260009054906101000a900473ffffffffffffffffffffffffffffffffffffffff16836040518363ffffffff1660e01b81526004016164ff929190617abb565b602060405180830381600087803b15801561651957600080fd5b505af115801561652d573d6000803e3d6000fd5b505050506040513d601f19601f820116820180604052508101906165519190616fa8565b5060ce60089054906101000a900473ffffffffffffffffffffffffffffffffffffffff1673ffffffffffffffffffffffffffffffffffffffff168373ffffffffffffffffffffffffffffffffffffffff1614156167715760ce60089054906101000a900473ffffffffffffffffffffffffffffffffffffffff1673ffffffffffffffffffffffffffffffffffffffff16632e1a7d4d82876165f291906182e7565b6040518263ffffffff1660e01b815260040161660e9190617f16565b600060405180830381600087803b15801561662857600080fd5b505af115801561663c573d6000803e3d6000fd5b5050505060008473ffffffffffffffffffffffffffffffffffffffff16828761666591906182e7565b60405161667190617985565b60006040518083038185875af1925050503d80600081146166ae576040519150601f19603f3d011682016040523d82523d6000602084013e6166b3565b606091505b50509050806166f7576040517f08c379a00000000000000000000000000000000000000000000000000000000081526004016166ee90617e40565b60405180910390fd5b8473ffffffffffffffffffffffffffffffffffffffff1688887f476778ca38557db6dc935a57ece5bd93fbaca20183fadf86d7a1d2b85df65e018760e260008e815260200190815260200160002054878c61675291906182e7565b426040516167639493929190617b29565b60405180910390a45061681a565b60006167ad60ce60089054906101000a900473ffffffffffffffffffffffffffffffffffffffff168584896167a691906182e7565b8887616239565b90508473ffffffffffffffffffffffffffffffffffffffff1688887f476778ca38557db6dc935a57ece5bd93fbaca20183fadf86d7a1d2b85df65e018760e260008e81526020019081526020016000205486426040516168109493929190617b29565b60405180910390a4505b50505050505050565b60026098541415616869576040517f08c379a000000000000000000000000000000000000000000000000000000000815260040161686090617ea0565b60405180910390fd5b6002609881905550565b6001609881905550565b6040518060400160405280600073ffffffffffffffffffffffffffffffffffffffff168152602001600081525090565b6040518060a0016040528060608152602001606081526020016060815260200160608152602001606081525090565b60006168ef6168ea8461806e565b618049565b9050808382526020820190508285602086028201111561691257616911618666565b5b60005b8581101561694257816169288882616a83565b845260208401935060208301925050600181019050616915565b5050509392505050565b600061695f61695a8461809a565b618049565b9050808382526020820190508285604086028201111561698257616981618666565b5b60005b858110156169b257816169988882616ccd565b845260208401935060408301925050600181019050616985565b5050509392505050565b60006169cf6169ca846180c6565b618049565b905080838252602082019050828560208602820111156169f2576169f1618666565b5b60005b85811015616a225781616a088882616d47565b8452602084019350602083019250506001810190506169f5565b5050509392505050565b6000616a3f616a3a846180f2565b618049565b905082815260208101848484011115616a5b57616a5a61866b565b5b616a668482856184ab565b509392505050565b600081359050616a7d816189d0565b92915050565b600081519050616a92816189d0565b92915050565b600081359050616aa7816189e7565b92915050565b600082601f830112616ac257616ac1618652565b5b8151616ad28482602086016168dc565b91505092915050565b600082601f830112616af057616aef618652565b5b8135616b0084826020860161694c565b91505092915050565b600082601f830112616b1e57616b1d618652565b5b8151616b2e8482602086016169bc565b91505092915050565b600081519050616b46816189fe565b92915050565b600081359050616b5b81618a15565b92915050565b600081519050616b7081618a15565b92915050565b600081359050616b8581618a2c565b92915050565b600082601f830112616ba057616b9f618652565b5b8135616bb0848260208601616a2c565b91505092915050565b600081359050616bc881618a43565b92915050565b600060a08284031215616be457616be3618657565b5b81905092915050565b600060a08284031215616c0357616c0261865c565b5b616c0d60a0618049565b90506000616c1d84828501616b4c565b6000830152506020616c3184828501616d5c565b602083015250604082013567ffffffffffffffff811115616c5557616c54618661565b5b616c6184828501616b8b565b604083015250606082013567ffffffffffffffff811115616c8557616c84618661565b5b616c9184828501616b8b565b606083015250608082013567ffffffffffffffff811115616cb557616cb4618661565b5b616cc184828501616adb565b60808301525092915050565b600060408284031215616ce357616ce261865c565b5b616ced6040618049565b90506000616cfd84828501616a6e565b6000830152506020616d1184828501616d32565b60208301525092915050565b600081359050616d2c81618a53565b92915050565b600081359050616d4181618a6a565b92915050565b600081519050616d5681618a6a565b92915050565b600081359050616d6b81618a81565b92915050565b600081519050616d8081618a81565b92915050565b600081359050616d9581618a98565b92915050565b600060208284031215616db157616db0618675565b5b6000616dbf84828501616a6e565b91505092915050565b600060208284031215616dde57616ddd618675565b5b6000616dec84828501616a83565b91505092915050565b600080600060608486031215616e0e57616e0d618675565b5b6000616e1c86828701616a6e565b9350506020616e2d86828701616a6e565b9250506040616e3e86828701616d1d565b9150509250925092565b60008060008060808587031215616e6257616e61618675565b5b6000616e7087828801616a6e565b9450506020616e8187828801616a6e565b9350506040616e9287828801616d32565b9250506060616ea387828801616d32565b91505092959194509250565b60008060008060808587031215616ec957616ec8618675565b5b6000616ed787828801616a6e565b9450506020616ee887828801616d32565b9350506040616ef987828801616d32565b9250506060616f0a87828801616d32565b91505092959194509250565b600060208284031215616f2c57616f2b618675565b5b600082015167ffffffffffffffff811115616f4a57616f49618670565b5b616f5684828501616aad565b91505092915050565b600060208284031215616f7557616f74618675565b5b600082015167ffffffffffffffff811115616f9357616f92618670565b5b616f9f84828501616b09565b91505092915050565b600060208284031215616fbe57616fbd618675565b5b6000616fcc84828501616b37565b91505092915050565b600060208284031215616feb57616fea618675565b5b6000616ff984828501616b61565b91505092915050565b60006020828403121561701857617017618675565b5b600061702684828501616b76565b91505092915050565b60006020828403121561704557617044618675565b5b600082013567ffffffffffffffff81111561706357617062618670565b5b61706f84828501616bce565b91505092915050565b60006020828403121561708e5761708d618675565b5b600061709c84828501616d32565b91505092915050565b6000602082840312156170bb576170ba618675565b5b60006170c984828501616d47565b91505092915050565b600080604083850312156170e9576170e8618675565b5b60006170f785828601616d32565b925050602061710885828601616a6e565b9150509250929050565b60008060008060008060c0878903121561712f5761712e618675565b5b600061713d89828a01616d47565b965050602087015167ffffffffffffffff81111561715e5761715d618670565b5b61716a89828a01616aad565b955050604087015167ffffffffffffffff81111561718b5761718a618670565b5b61719789828a01616aad565b94505060606171a889828a01616d47565b935050608087015167ffffffffffffffff8111156171c9576171c8618670565b5b6171d589828a01616b09565b92505060a087015167ffffffffffffffff8111156171f6576171f5618670565b5b61720289828a01616b09565b9150509295509295509295565b6000806040838503121561722657617225618675565b5b600061723485828601616d32565b925050602061724585828601616d32565b9150509250929050565b6000806000806080858703121561726957617268618675565b5b600061727787828801616d32565b945050602061728887828801616d32565b935050604061729987828801616a6e565b92505060606172aa87828801616d32565b91505092959194509250565b6000602082840312156172cc576172cb618675565b5b60006172da84828501616d5c565b91505092915050565b6000602082840312156172f9576172f8618675565b5b600061730784828501616d71565b91505092915050565b600080600080600060a0868803121561732c5761732b618675565b5b600061733a88828901616d5c565b955050602061734b88828901616a98565b945050604061735c88828901616a6e565b935050606061736d88828901616a6e565b925050608061737e88828901616a6e565b9150509295509295909350565b600080600080608085870312156173a5576173a4618675565b5b60006173b387828801616d5c565b94505060206173c487828801616a6e565b935050604085013567ffffffffffffffff8111156173e5576173e4618670565b5b6173f187828801616b8b565b925050606061740287828801616bb9565b91505092959194509250565b60006020828403121561742457617423618675565b5b600061743284828501616d86565b91505092915050565b60006174478383617483565b60208301905092915050565b600061745f83836178fc565b60408301905092915050565b60006174778383617949565b60208301905092915050565b61748c8161831b565b82525050565b61749b8161831b565b82525050565b60006174ac82618153565b6174b681856181a6565b93506174c183618123565b8060005b838110156174f25781516174d9888261743b565b97506174e48361817f565b9250506001810190506174c5565b5085935050505092915050565b600061750a8261815e565b61751481856181b7565b935061751f83618133565b8060005b838110156175505781516175378882617453565b97506175428361818c565b925050600181019050617523565b5085935050505092915050565b600061756882618169565b61757281856181c8565b935061757d83618143565b8060005b838110156175ae578151617595888261746b565b97506175a083618199565b925050600181019050617581565b5085935050505092915050565b6175c48161833f565b82525050565b6175d38161833f565b82525050565b6175e28161834b565b82525050565b60006175f382618174565b6175fd81856181d9565b935061760d8185602086016184ba565b6176168161867a565b840191505092915050565b61762a816183f6565b82525050565b61763981618408565b82525050565b6176488161841a565b82525050565b6176578161842c565b82525050565b6176668161843e565b82525050565b61767581618450565b82525050565b60006176886033836181f5565b91506176938261868b565b604082019050919050565b60006176ab6032836181f5565b91506176b6826186da565b604082019050919050565b60006176ce6037836181f5565b91506176d982618729565b604082019050919050565b60006176f1603a836181f5565b91506176fc82618778565b604082019050919050565b6000617714602e836181f5565b915061771f826187c7565b604082019050919050565b60006177376020836181f5565b915061774282618816565b602082019050919050565b600061775a6030836181f5565b91506177658261883f565b604082019050919050565b600061777d6024836181f5565b91506177888261888e565b604082019050919050565b60006177a06000836181ea565b91506177ab826188dd565b600082019050919050565b60006177c3601a836181f5565b91506177ce826188e0565b602082019050919050565b60006177e6602b836181f5565b91506177f182618909565b604082019050919050565b6000617809601f836181f5565b915061781482618958565b602082019050919050565b600061782c6039836181f5565b915061783782618981565b604082019050919050565b600060a083016000830151848203600086015261785f82826175e8565b9150506020830151848203602086015261787982826175e8565b9150506040830151848203604086015261789382826174ff565b91505060608301516178a86060860182617483565b50608083015184820360808601526178c082826175e8565b9150508091505092915050565b6040820160008201516178e36000850182617949565b5060208201516178f660208501826175bb565b50505050565b6040820160008201516179126000850182617483565b5060208201516179256020850182617949565b50505050565b61793481618381565b82525050565b6179438161839d565b82525050565b617952816183cb565b82525050565b617961816183cb565b82525050565b617970816183d5565b82525050565b61797f816183e9565b82525050565b600061799082617793565b9150819050919050565b60006020820190506179af6000830184617492565b92915050565b60006060820190506179ca6000830186617492565b6179d76020830185617492565b6179e4604083018461792b565b949350505050565b6000606082019050617a016000830186617492565b617a0e6020830185617492565b617a1b6040830184617958565b949350505050565b600060a082019050617a386000830188617492565b617a456020830187617492565b617a526040830186617958565b617a5f6060830185617492565b617a6c6080830184617958565b9695505050505050565b6000608082019050617a8b6000830187617492565b617a986020830186617492565b617aa56040830185617958565b617ab26060830184617958565b95945050505050565b6000604082019050617ad06000830185617492565b617add6020830184617958565b9392505050565b6000608082019050617af96000830187617492565b617b066020830186617958565b617b13604083018561764e565b617b206060830184617958565b95945050505050565b6000608082019050617b3e6000830187617492565b617b4b6020830186617958565b617b586040830185617958565b617b656060830184617958565b95945050505050565b6000602082019050617b8360008301846175ca565b92915050565b6000602082019050617b9e60008301846175d9565b92915050565b6000602082019050617bb96000830184617621565b92915050565b6000602082019050617bd46000830184617630565b92915050565b6000602082019050617bef600083018461763f565b92915050565b600061010082019050617c0b600083018b61765d565b8181036020830152617c1d818a6174a1565b90508181036040830152617c3181896174a1565b90508181036060830152617c45818861755d565b90508181036080830152617c59818761755d565b9050617c6860a0830186617958565b81810360c0830152617c7a818561755d565b905081810360e0830152617c8e818461755d565b90509998505050505050505050565b6000602082019050617cb2600083018461766c565b92915050565b600061010082019050617cce600083018b61766c565b8181036020830152617ce0818a6174a1565b90508181036040830152617cf481896174a1565b90508181036060830152617d08818861755d565b90508181036080830152617d1c818761755d565b9050617d2b60a0830186617958565b81810360c0830152617d3d818561755d565b905081810360e0830152617d51818461755d565b90509998505050505050505050565b60006020820190508181036000830152617d798161767b565b9050919050565b60006020820190508181036000830152617d998161769e565b9050919050565b60006020820190508181036000830152617db9816176c1565b9050919050565b60006020820190508181036000830152617dd9816176e4565b9050919050565b60006020820190508181036000830152617df981617707565b9050919050565b60006020820190508181036000830152617e198161772a565b9050919050565b60006020820190508181036000830152617e398161774d565b9050919050565b60006020820190508181036000830152617e5981617770565b9050919050565b60006020820190508181036000830152617e79816177b6565b9050919050565b60006020820190508181036000830152617e99816177d9565b9050919050565b60006020820190508181036000830152617eb9816177fc565b9050919050565b60006020820190508181036000830152617ed98161781f565b9050919050565b6000604082019050617ef560008301846178cd565b92915050565b6000602082019050617f10600083018461793a565b92915050565b6000602082019050617f2b6000830184617958565b92915050565b6000604082019050617f466000830185617958565b617f536020830184617958565b9392505050565b6000604082019050617f6f6000830185617958565b617f7c6020830184617967565b9392505050565b6000606082019050617f986000830186617958565b617fa56020830185617967565b617fb26040830184617958565b949350505050565b6000602082019050617fcf6000830184617967565b92915050565b6000604082019050617fea6000830185617967565b617ff76020830184617492565b9392505050565b60006040820190506180136000830185617967565b81810360208301526180258184617842565b90509392505050565b60006020820190506180436000830184617976565b92915050565b6000618053618064565b905061805f82826184ed565b919050565b6000604051905090565b600067ffffffffffffffff82111561808957618088618623565b5b602082029050602081019050919050565b600067ffffffffffffffff8211156180b5576180b4618623565b5b602082029050602081019050919050565b600067ffffffffffffffff8211156180e1576180e0618623565b5b602082029050602081019050919050565b600067ffffffffffffffff82111561810d5761810c618623565b5b6181168261867a565b9050602081019050919050565b6000819050602082019050919050565b6000819050602082019050919050565b6000819050602082019050919050565b600081519050919050565b600081519050919050565b600081519050919050565b600081519050919050565b6000602082019050919050565b6000602082019050919050565b6000602082019050919050565b600082825260208201905092915050565b600082825260208201905092915050565b600082825260208201905092915050565b600082825260208201905092915050565b600081905092915050565b600082825260208201905092915050565b6000618211826183cb565b915061821c836183cb565b9250827fffffffffffffffffffffffffffffffffffffffffffffffffffffffffffffffff0382111561825157618250618567565b5b828201905092915050565b6000618267826183cb565b9150618272836183cb565b92508261828257618281618596565b5b828204905092915050565b6000618298826183cb565b91506182a3836183cb565b9250817fffffffffffffffffffffffffffffffffffffffffffffffffffffffffffffffff04831182151516156182dc576182db618567565b5b828202905092915050565b60006182f2826183cb565b91506182fd836183cb565b9250828210156183105761830f618567565b5b828203905092915050565b6000618326826183ab565b9050919050565b6000618338826183ab565b9050919050565b60008115159050919050565b6000819050919050565b60007fffffffff0000000000000000000000000000000000000000000000000000000082169050919050565b60006fffffffffffffffffffffffffffffffff82169050919050565b600061ffff82169050919050565b600073ffffffffffffffffffffffffffffffffffffffff82169050919050565b6000819050919050565b600067ffffffffffffffff82169050919050565b600060ff82169050919050565b600061840182618475565b9050919050565b600061841382618475565b9050919050565b600061842582618487565b9050919050565b6000618437826183cb565b9050919050565b6000618449826183e9565b9050919050565b600061845b826183e9565b9050919050565b600061846e3683616bed565b9050919050565b600061848082618499565b9050919050565b600061849282618499565b9050919050565b60006184a4826183ab565b9050919050565b82818337600083830152505050565b60005b838110156184d85780820151818401526020810190506184bd565b838111156184e7576000848401525b50505050565b6184f68261867a565b810181811067ffffffffffffffff8211171561851557618514618623565b5b80604052505050565b6000618529826183cb565b91507fffffffffffffffffffffffffffffffffffffffffffffffffffffffffffffffff82141561855c5761855b618567565b5b600182019050919050565b7f4e487b7100000000000000000000000000000000000000000000000000000000600052601160045260246000fd5b7f4e487b7100000000000000000000000000000000000000000000000000000000600052601260045260246000fd5b7f4e487b7100000000000000000000000000000000000000000000000000000000600052602160045260246000fd5b7f4e487b7100000000000000000000000000000000000000000000000000000000600052603260045260246000fd5b7f4e487b7100000000000000000000000000000000000000000000000000000000600052604160045260246000fd5b600080fd5b600080fd5b600080fd5b600080fd5b600080fd5b600080fd5b600080fd5b600080fd5b6000601f19601f8301169050919050565b7f546865206e65774665652073686f756c64206265206265747765656e2031206160008201527f6e64203130302028302e303125202d2031252900000000000000000000000000602082015250565b7f50726f706f7361626c654f776e61626c653a206e6577206f776e65722069732060008201527f6e6f742070726f706f736564206f776e65720000000000000000000000000000602082015250565b7f4d6178696d756d203520646966666572656e7420746f6b656e732063616e206260008201527f652073656e74207065722043434950204d657373616765000000000000000000602082015250565b7f50726f706f7361626c654f776e61626c653a20746869732063616c6c206d757360008201527f74206265206d61646520627920746865206e6577206f776e6572000000000000602082015250565b7f496e697469616c697a61626c653a20636f6e747261637420697320616c72656160008201527f647920696e697469616c697a6564000000000000000000000000000000000000602082015250565b7f4f776e61626c653a2063616c6c6572206973206e6f7420746865206f776e6572600082015250565b7f50726f706f7361626c654f776e61626c653a206e6577206f776e65722069732060008201527f746865207a65726f206164647265737300000000000000000000000000000000602082015250565b7f7472616e736665722065746820746f207468652072657175657374657220666160008201527f696c656400000000000000000000000000000000000000000000000000000000602082015250565b50565b7f6c6f776572207468616e20726571756972656420616d6f756e74000000000000600082015250565b7f496e697469616c697a61626c653a20636f6e7472616374206973206e6f74206960008201527f6e697469616c697a696e67000000000000000000000000000000000000000000602082015250565b7f5265656e7472616e637947756172643a207265656e7472616e742063616c6c00600082015250565b7f596f752073686f756c642077616974206174206c6561737420313220686f757260008201527f7320616674657220746865206c61746573742075706461746500000000000000602082015250565b6189d98161831b565b81146189e457600080fd5b50565b6189f08161832d565b81146189fb57600080fd5b50565b618a078161833f565b8114618a1257600080fd5b50565b618a1e8161834b565b8114618a2957600080fd5b50565b618a3581618355565b8114618a4057600080fd5b50565b60028110618a5057600080fd5b50565b618a5c81618381565b8114618a6757600080fd5b50565b618a73816183cb565b8114618a7e57600080fd5b50565b618a8a816183d5565b8114618a9557600080fd5b50565b618aa1816183e9565b8114618aac57600080fd5b5056fea26469706673582212201f7707969e61efc77777f81b0056eb5333132f6a0aa742a25dd645843b2ea30f64736f6c63430008070033","linkReferences":{}},"methodIdentifiers":{"ccipReceive((bytes32,uint64,bytes,bytes,(address,uint256)[]))":"85572ffb","convertEthToUsd(uint256)":"c086381e","crossChainFactoryBySelector(uint64)":"340fbc74","crossChainToken(uint64)":"19da7e2a","crossChainTokenSwapVersion(uint64)":"326f6fb2","currentChainSelector()":"3d54cb6f","estimateAmountOut(address,address,uint128)":"0456f9c8","feeRate()":"978bbdb9","feeReceiver()":"b3f00674","getAmountOut(address,address,uint256,uint256)":"13cb1f83","getPortfolioBalance()":"a8509fd8","getRouter()":"b0f479a1","i_link()":"7d253aff","i_maxTokensLength()":"5b6a0351","indexFactoryStorage()":"d1f7a991","indexToken()":"e7d015f2","initialize(uint64,address,address,address,address)":"16b487ff","issuanceCompletedTokensCount(uint256)":"94037369","issuanceIndexTokens(address,uint256,uint256,uint256)":"9ad1c356","issuanceIndexTokensWithEth(uint256,uint256)":"41d11817","issuanceInputAmount(uint256)":"cf9ee319","issuanceInputToken(uint256)":"4c776de7","issuanceMessageIdByNonce(uint256)":"9121c717","issuanceNonce()":"9dbb9c9e","issuanceNonceRequester(uint256)":"a3d0ac78","issuanceTokenOldAndNewValues(uint256,address)":"81b15279","latestFeeUpdate()":"011ced5f","owner()":"8da5cb5b","portfolioTotalValueByNonce(uint256)":"7d3546f7","priceInWei()":"3c8da588","proposeOwner(address)":"b5ed298a","proposedOwner()":"d153b60c","redemption(uint256,uint256,address,uint256)":"09445ad4","redemptionCompletedTokensCount(uint256)":"48784303","redemptionInputAmount(uint256)":"9cf54521","redemptionMessageIdByNonce(uint256)":"306b3a28","redemptionNonce()":"84d77bb1","redemptionNonceOutputToken(uint256)":"0603fb05","redemptionNonceOutputTokenSwapVersion(uint256)":"72bc260c","redemptionNonceRequester(uint256)":"3fef7545","redemptionNonceTotalValue(uint256)":"f07bb855","redemptionOutputToken(uint256)":"c3a755b4","renounceOwnership()":"715018a6","sendMessage(uint64,address,bytes,uint8)":"bcab90b3","setFeeRate(uint8)":"5177942a","setFeeReceiver(address)":"efdcd974","setIndexFactoryStorage(address)":"cc8659ae","supportsInterface(bytes4)":"01ffc9a7","tokenValueByNonce(uint256,address)":"b316e7fd","transferOwnership(address)":"f2fde38b","updatePortfolioNonce()":"003cf402","updatedTokensValueCount(uint256)":"c070a097","weth()":"3fc8cef3"},"id":3}