{"abi":[{"type":"constructor","inputs":[],"stateMutability":"nonpayable"},{"type":"function","name":"configuration","inputs":[],"outputs":[{"name":"chainSelector_","type":"uint64","internalType":"uint64"},{"name":"sourceRouter_","type":"address","internalType":"contract IRouterClient"},{"name":"destinationRouter_","type":"address","internalType":"contract IRouterClient"},{"name":"wrappedNative_","type":"address","internalType":"contract WETH9"},{"name":"linkToken_","type":"address","internalType":"contract LinkToken"},{"name":"ccipBnM_","type":"address","internalType":"contract BurnMintERC677Helper"},{"name":"ccipLnM_","type":"address","internalType":"contract BurnMintERC677Helper"}],"stateMutability":"view"},{"type":"function","name":"getSupportedTokens","inputs":[{"name":"chainSelector","type":"uint64","internalType":"uint64"}],"outputs":[{"name":"tokens","type":"address[]","internalType":"address[]"}],"stateMutability":"view"},{"type":"function","name":"isChainSupported","inputs":[{"name":"chainSelector","type":"uint64","internalType":"uint64"}],"outputs":[{"name":"supported","type":"bool","internalType":"bool"}],"stateMutability":"pure"},{"type":"function","name":"requestLinkFromFaucet","inputs":[{"name":"to","type":"address","internalType":"address"},{"name":"amount","type":"uint256","internalType":"uint256"}],"outputs":[{"name":"success","type":"bool","internalType":"bool"}],"stateMutability":"nonpayable"},{"type":"function","name":"supportNewTokenViaGetCCIPAdmin","inputs":[{"name":"tokenAddress","type":"address","internalType":"address"}],"outputs":[],"stateMutability":"nonpayable"},{"type":"function","name":"supportNewTokenViaOwner","inputs":[{"name":"tokenAddress","type":"address","internalType":"address"}],"outputs":[],"stateMutability":"nonpayable"},{"type":"error","name":"CCIPLocalSimulator__MsgSenderIsNotTokenOwner","inputs":[]}],"bytecode":{"object":"0x61012060405234801561001157600080fd5b5060405161001e906102c0565b604051809103906000f08015801561003a573d6000803e3d6000fd5b5073ffffffffffffffffffffffffffffffffffffffff1660808173ffffffffffffffffffffffffffffffffffffffff168152505060405161007a906102cd565b604051809103906000f080158015610096573d6000803e3d6000fd5b5073ffffffffffffffffffffffffffffffffffffffff1660a08173ffffffffffffffffffffffffffffffffffffffff16815250506040516100d6906102da565b6100df90610351565b604051809103906000f0801580156100fb573d6000803e3d6000fd5b5073ffffffffffffffffffffffffffffffffffffffff1660c08173ffffffffffffffffffffffffffffffffffffffff168152505060405161013b906102da565b610144906103d0565b604051809103906000f080158015610160573d6000803e3d6000fd5b5073ffffffffffffffffffffffffffffffffffffffff1660e08173ffffffffffffffffffffffffffffffffffffffff16815250506040516101a0906102e7565b604051809103906000f0801580156101bc573d6000803e3d6000fd5b5073ffffffffffffffffffffffffffffffffffffffff166101008173ffffffffffffffffffffffffffffffffffffffff1681525050600060c0519080600181540180825580915050600190039060005260206000200160009091909190916101000a81548173ffffffffffffffffffffffffffffffffffffffff021916908373ffffffffffffffffffffffffffffffffffffffff160217905550600060e0519080600181540180825580915050600190039060005260206000200160009091909190916101000a81548173ffffffffffffffffffffffffffffffffffffffff021916908373ffffffffffffffffffffffffffffffffffffffff160217905550610403565b6112a880610fec83390190565b611c798061229483390190565b6137fa80613f0d83390190565b6126918061770783390190565b600082825260208201905092915050565b7f434349502d426e4d000000000000000000000000000000000000000000000000600082015250565b600061033b6008836102f4565b915061034682610305565b602082019050919050565b6000604082019050818103600083015261036a8161032e565b9050818103602083015261037d8161032e565b9050919050565b7f434349502d4c6e4d000000000000000000000000000000000000000000000000600082015250565b60006103ba6008836102f4565b91506103c582610384565b602082019050919050565b600060408201905081810360008301526103e9816103ad565b905081810360208301526103fc816103ad565b9050919050565b60805160a05160c05160e05161010051610b976104556000396000818161034a015261036b015260006103ef015260006103ce01526000818161029001526103ad0152600061038c0152610b976000f3fe608060405234801561001057600080fd5b50600436106100625760003560e01c80633eaa885914610067578063657b9a4e146100835780636c70bee9146100b3578063a48a9058146100d7578063c250b5f314610107578063fbca3b7414610123575b600080fd5b610081600480360381019061007c91906106d8565b610153565b005b61009d6004803603810190610098919061073b565b61028c565b6040516100aa9190610796565b60405180910390f35b6100bb610334565b6040516100ce97969594939291906108a8565b60405180910390f35b6100f160048036038101906100ec9190610943565b610425565b6040516100fe9190610796565b60405180910390f35b610121600480360381019061011c91906106d8565b61044d565b005b61013d60048036038101906101389190610943565b610586565b60405161014a9190610a2e565b60405180910390f35b8073ffffffffffffffffffffffffffffffffffffffff16638da5cb5b6040518163ffffffff1660e01b8152600401602060405180830381865afa15801561019e573d6000803e3d6000fd5b505050506040513d601f19601f820116820180604052508101906101c29190610a65565b73ffffffffffffffffffffffffffffffffffffffff163373ffffffffffffffffffffffffffffffffffffffff1614610226576040517f92c4665e00000000000000000000000000000000000000000000000000000000815260040160405180910390fd5b6000819080600181540180825580915050600190039060005260206000200160009091909190916101000a81548173ffffffffffffffffffffffffffffffffffffffff021916908373ffffffffffffffffffffffffffffffffffffffff16021790555050565b60007f000000000000000000000000000000000000000000000000000000000000000073ffffffffffffffffffffffffffffffffffffffff1663a9059cbb84846040518363ffffffff1660e01b81526004016102e9929190610ab0565b6020604051808303816000875af1158015610308573d6000803e3d6000fd5b505050506040513d601f19601f8201168201806040525081019061032c9190610b05565b905092915050565b600080600080600080600067de41ba4fc9d91ad97f00000000000000000000000000000000000000000000000000000000000000007f00000000000000000000000000000000000000000000000000000000000000007f00000000000000000000000000000000000000000000000000000000000000007f00000000000000000000000000000000000000000000000000000000000000007f00000000000000000000000000000000000000000000000000000000000000007f0000000000000000000000000000000000000000000000000000000000000000965096509650965096509650965090919293949596565b600067de41ba4fc9d91ad967ffffffffffffffff168267ffffffffffffffff16149050919050565b8073ffffffffffffffffffffffffffffffffffffffff16638fd6a6ac6040518163ffffffff1660e01b8152600401602060405180830381865afa158015610498573d6000803e3d6000fd5b505050506040513d601f19601f820116820180604052508101906104bc9190610a65565b73ffffffffffffffffffffffffffffffffffffffff163373ffffffffffffffffffffffffffffffffffffffff1614610520576040517f92c4665e00000000000000000000000000000000000000000000000000000000815260040160405180910390fd5b6000819080600181540180825580915050600190039060005260206000200160009091909190916101000a81548173ffffffffffffffffffffffffffffffffffffffff021916908373ffffffffffffffffffffffffffffffffffffffff16021790555050565b606061059182610425565b6105e657600067ffffffffffffffff8111156105b0576105af610b32565b5b6040519080825280602002602001820160405280156105de5781602001602082028036833780820191505090505b509050610670565b600080548060200260200160405190810160405280929190818152602001828054801561066857602002820191906000526020600020905b8160009054906101000a900473ffffffffffffffffffffffffffffffffffffffff1673ffffffffffffffffffffffffffffffffffffffff168152602001906001019080831161061e575b505050505090505b919050565b600080fd5b600073ffffffffffffffffffffffffffffffffffffffff82169050919050565b60006106a58261067a565b9050919050565b6106b58161069a565b81146106c057600080fd5b50565b6000813590506106d2816106ac565b92915050565b6000602082840312156106ee576106ed610675565b5b60006106fc848285016106c3565b91505092915050565b6000819050919050565b61071881610705565b811461072357600080fd5b50565b6000813590506107358161070f565b92915050565b6000806040838503121561075257610751610675565b5b6000610760858286016106c3565b925050602061077185828601610726565b9150509250929050565b60008115159050919050565b6107908161077b565b82525050565b60006020820190506107ab6000830184610787565b92915050565b600067ffffffffffffffff82169050919050565b6107ce816107b1565b82525050565b6000819050919050565b60006107f96107f46107ef8461067a565b6107d4565b61067a565b9050919050565b600061080b826107de565b9050919050565b600061081d82610800565b9050919050565b61082d81610812565b82525050565b600061083e826107de565b9050919050565b600061085082610833565b9050919050565b61086081610845565b82525050565b600061087182610800565b9050919050565b61088181610866565b82525050565b600061089282610800565b9050919050565b6108a281610887565b82525050565b600060e0820190506108bd600083018a6107c5565b6108ca6020830189610824565b6108d76040830188610824565b6108e46060830187610857565b6108f16080830186610878565b6108fe60a0830185610899565b61090b60c0830184610899565b98975050505050505050565b610920816107b1565b811461092b57600080fd5b50565b60008135905061093d81610917565b92915050565b60006020828403121561095957610958610675565b5b60006109678482850161092e565b91505092915050565b600081519050919050565b600082825260208201905092915050565b6000819050602082019050919050565b6109a58161069a565b82525050565b60006109b7838361099c565b60208301905092915050565b6000602082019050919050565b60006109db82610970565b6109e5818561097b565b93506109f08361098c565b8060005b83811015610a21578151610a0888826109ab565b9750610a13836109c3565b9250506001810190506109f4565b5085935050505092915050565b60006020820190508181036000830152610a4881846109d0565b905092915050565b600081519050610a5f816106ac565b92915050565b600060208284031215610a7b57610a7a610675565b5b6000610a8984828501610a50565b91505092915050565b610a9b8161069a565b82525050565b610aaa81610705565b82525050565b6000604082019050610ac56000830185610a92565b610ad26020830184610aa1565b9392505050565b610ae28161077b565b8114610aed57600080fd5b50565b600081519050610aff81610ad9565b92915050565b600060208284031215610b1b57610b1a610675565b5b6000610b2984828501610af0565b91505092915050565b7f4e487b7100000000000000000000000000000000000000000000000000000000600052604160045260246000fdfea264697066735822122061c8ee1c07cf78db72a58e55f6d8a2a8abbb1c1e50874be01e2d4869ad1a314c64736f6c634300081a003360806040526040518060400160405280600d81526020017f577261707065642045746865720000000000000000000000000000000000000081525060009081610048919061030c565b506040518060400160405280600481526020017f57455448000000000000000000000000000000000000000000000000000000008152506001908161008d919061030c565b506012600260006101000a81548160ff021916908360ff1602179055503480156100b657600080fd5b506103de565b600081519050919050565b7f4e487b7100000000000000000000000000000000000000000000000000000000600052604160045260246000fd5b7f4e487b7100000000000000000000000000000000000000000000000000000000600052602260045260246000fd5b6000600282049050600182168061013d57607f821691505b6020821081036101505761014f6100f6565b5b50919050565b60008190508160005260206000209050919050565b60006020601f8301049050919050565b600082821b905092915050565b6000600883026101b87fffffffffffffffffffffffffffffffffffffffffffffffffffffffffffffffff8261017b565b6101c2868361017b565b95508019841693508086168417925050509392505050565b6000819050919050565b6000819050919050565b60006102096102046101ff846101da565b6101e4565b6101da565b9050919050565b6000819050919050565b610223836101ee565b61023761022f82610210565b848454610188565b825550505050565b600090565b61024c61023f565b61025781848461021a565b505050565b5b8181101561027b57610270600082610244565b60018101905061025d565b5050565b601f8211156102c05761029181610156565b61029a8461016b565b810160208510156102a9578190505b6102bd6102b58561016b565b83018261025c565b50505b505050565b600082821c905092915050565b60006102e3600019846008026102c5565b1980831691505092915050565b60006102fc83836102d2565b9150826002028217905092915050565b610315826100bc565b67ffffffffffffffff81111561032e5761032d6100c7565b5b6103388254610125565b61034382828561027f565b600060209050601f8311600181146103765760008415610364578287015190505b61036e85826102f0565b8655506103d6565b601f19841661038486610156565b60005b828110156103ac57848901518255600182019150602085019450602081019050610387565b868310156103c957848901516103c5601f8916826102d2565b8355505b6001600288020188555050505b505050505050565b610ebb806103ed6000396000f3fe6080604052600436106100a05760003560e01c8063313ce56711610064578063313ce567146101ad57806370a08231146101d857806395d89b4114610215578063a9059cbb14610240578063d0e30db01461027d578063dd62ed3e14610287576100af565b806306fdde03146100b4578063095ea7b3146100df57806318160ddd1461011c57806323b872dd146101475780632e1a7d4d14610184576100af565b366100af576100ad6102c4565b005b600080fd5b3480156100c057600080fd5b506100c961036a565b6040516100d69190610b0f565b60405180910390f35b3480156100eb57600080fd5b5061010660048036038101906101019190610bca565b6103f8565b6040516101139190610c25565b60405180910390f35b34801561012857600080fd5b506101316104ea565b60405161013e9190610c4f565b60405180910390f35b34801561015357600080fd5b5061016e60048036038101906101699190610c6a565b6104f2565b60405161017b9190610c25565b60405180910390f35b34801561019057600080fd5b506101ab60048036038101906101a69190610cbd565b610848565b005b3480156101b957600080fd5b506101c2610982565b6040516101cf9190610d06565b60405180910390f35b3480156101e457600080fd5b506101ff60048036038101906101fa9190610d21565b610995565b60405161020c9190610c4f565b60405180910390f35b34801561022157600080fd5b5061022a6109ad565b6040516102379190610b0f565b60405180910390f35b34801561024c57600080fd5b5061026760048036038101906102629190610bca565b610a3b565b6040516102749190610c25565b60405180910390f35b610285610a50565b005b34801561029357600080fd5b506102ae60048036038101906102a99190610d4e565b610a5a565b6040516102bb9190610c4f565b60405180910390f35b34600360003373ffffffffffffffffffffffffffffffffffffffff1673ffffffffffffffffffffffffffffffffffffffff16815260200190815260200160002060008282546103139190610dbd565b925050819055503373ffffffffffffffffffffffffffffffffffffffff167fe1fffcc4923d04b559f4d29a8bfc6cda04eb5b0d3c460751c2402c5c5cc9109c346040516103609190610c4f565b60405180910390a2565b6000805461037790610e20565b80601f01602080910402602001604051908101604052809291908181526020018280546103a390610e20565b80156103f05780601f106103c5576101008083540402835291602001916103f0565b820191906000526020600020905b8154815290600101906020018083116103d357829003601f168201915b505050505081565b600081600460003373ffffffffffffffffffffffffffffffffffffffff1673ffffffffffffffffffffffffffffffffffffffff16815260200190815260200160002060008573ffffffffffffffffffffffffffffffffffffffff1673ffffffffffffffffffffffffffffffffffffffff168152602001908152602001600020819055508273ffffffffffffffffffffffffffffffffffffffff163373ffffffffffffffffffffffffffffffffffffffff167f8c5be1e5ebec7d5bd14f71427d1e84f3dd0314c0f7b2291e5b200ac8c7c3b925846040516104d89190610c4f565b60405180910390a36001905092915050565b600047905090565b600081600360008673ffffffffffffffffffffffffffffffffffffffff1673ffffffffffffffffffffffffffffffffffffffff16815260200190815260200160002054101561054057600080fd5b3373ffffffffffffffffffffffffffffffffffffffff168473ffffffffffffffffffffffffffffffffffffffff161415801561060a57506fffffffffffffffffffffffffffffffff8016600460008673ffffffffffffffffffffffffffffffffffffffff1673ffffffffffffffffffffffffffffffffffffffff16815260200190815260200160002060003373ffffffffffffffffffffffffffffffffffffffff1673ffffffffffffffffffffffffffffffffffffffff1681526020019081526020016000205414155b1561072c5781600460008673ffffffffffffffffffffffffffffffffffffffff1673ffffffffffffffffffffffffffffffffffffffff16815260200190815260200160002060003373ffffffffffffffffffffffffffffffffffffffff1673ffffffffffffffffffffffffffffffffffffffff16815260200190815260200160002054101561069857600080fd5b81600460008673ffffffffffffffffffffffffffffffffffffffff1673ffffffffffffffffffffffffffffffffffffffff16815260200190815260200160002060003373ffffffffffffffffffffffffffffffffffffffff1673ffffffffffffffffffffffffffffffffffffffff16815260200190815260200160002060008282546107249190610e51565b925050819055505b81600360008673ffffffffffffffffffffffffffffffffffffffff1673ffffffffffffffffffffffffffffffffffffffff168152602001908152602001600020600082825461077b9190610e51565b9250508190555081600360008573ffffffffffffffffffffffffffffffffffffffff1673ffffffffffffffffffffffffffffffffffffffff16815260200190815260200160002060008282546107d19190610dbd565b925050819055508273ffffffffffffffffffffffffffffffffffffffff168473ffffffffffffffffffffffffffffffffffffffff167fddf252ad1be2c89b69c2b068fc378daa952ba7f163c4a11628f55a4df523b3ef846040516108359190610c4f565b60405180910390a3600190509392505050565b80600360003373ffffffffffffffffffffffffffffffffffffffff1673ffffffffffffffffffffffffffffffffffffffff16815260200190815260200160002054101561089457600080fd5b80600360003373ffffffffffffffffffffffffffffffffffffffff1673ffffffffffffffffffffffffffffffffffffffff16815260200190815260200160002060008282546108e39190610e51565b925050819055503373ffffffffffffffffffffffffffffffffffffffff166108fc829081150290604051600060405180830381858888f19350505050158015610930573d6000803e3d6000fd5b503373ffffffffffffffffffffffffffffffffffffffff167f7fcf532c15f0a6db0bd6d0e038bea71d30d808c7d98cb3bf7268a95bf5081b65826040516109779190610c4f565b60405180910390a250565b600260009054906101000a900460ff1681565b60036020528060005260406000206000915090505481565b600180546109ba90610e20565b80601f01602080910402602001604051908101604052809291908181526020018280546109e690610e20565b8015610a335780601f10610a0857610100808354040283529160200191610a33565b820191906000526020600020905b815481529060010190602001808311610a1657829003601f168201915b505050505081565b6000610a483384846104f2565b905092915050565b610a586102c4565b565b6004602052816000526040600020602052806000526040600020600091509150505481565b600081519050919050565b600082825260208201905092915050565b60005b83811015610ab9578082015181840152602081019050610a9e565b60008484015250505050565b6000601f19601f8301169050919050565b6000610ae182610a7f565b610aeb8185610a8a565b9350610afb818560208601610a9b565b610b0481610ac5565b840191505092915050565b60006020820190508181036000830152610b298184610ad6565b905092915050565b600080fd5b600073ffffffffffffffffffffffffffffffffffffffff82169050919050565b6000610b6182610b36565b9050919050565b610b7181610b56565b8114610b7c57600080fd5b50565b600081359050610b8e81610b68565b92915050565b6000819050919050565b610ba781610b94565b8114610bb257600080fd5b50565b600081359050610bc481610b9e565b92915050565b60008060408385031215610be157610be0610b31565b5b6000610bef85828601610b7f565b9250506020610c0085828601610bb5565b9150509250929050565b60008115159050919050565b610c1f81610c0a565b82525050565b6000602082019050610c3a6000830184610c16565b92915050565b610c4981610b94565b82525050565b6000602082019050610c646000830184610c40565b92915050565b600080600060608486031215610c8357610c82610b31565b5b6000610c9186828701610b7f565b9350506020610ca286828701610b7f565b9250506040610cb386828701610bb5565b9150509250925092565b600060208284031215610cd357610cd2610b31565b5b6000610ce184828501610bb5565b91505092915050565b600060ff82169050919050565b610d0081610cea565b82525050565b6000602082019050610d1b6000830184610cf7565b92915050565b600060208284031215610d3757610d36610b31565b5b6000610d4584828501610b7f565b91505092915050565b60008060408385031215610d6557610d64610b31565b5b6000610d7385828601610b7f565b9250506020610d8485828601610b7f565b9150509250929050565b7f4e487b7100000000000000000000000000000000000000000000000000000000600052601160045260246000fd5b6000610dc882610b94565b9150610dd383610b94565b9250828201905080821115610deb57610dea610d8e565b5b92915050565b7f4e487b7100000000000000000000000000000000000000000000000000000000600052602260045260246000fd5b60006002820490506001821680610e3857607f821691505b602082108103610e4b57610e4a610df1565b5b50919050565b6000610e5c82610b94565b9150610e6783610b94565b9250828203905081811115610e7f57610e7e610d8e565b5b9291505056fea2646970667358221220445fea5d4f0ec9b385ccf5316e2ef0ac9fffc968b0b7b8113f24ead6c425d13b64736f6c634300081a0033608060405234801561001057600080fd5b506040518060400160405280600f81526020017f436861696e4c696e6b20546f6b656e00000000000000000000000000000000008152506040518060400160405280600481526020017f4c494e4b000000000000000000000000000000000000000000000000000000008152508181816003908161008e9190610490565b50806004908161009e9190610490565b50505050506100b16100b660201b60201c565b61066c565b6100d2336b033b2e3c9fd0803ce80000006100d460201b60201c565b565b600073ffffffffffffffffffffffffffffffffffffffff168273ffffffffffffffffffffffffffffffffffffffff1603610143576040517f08c379a000000000000000000000000000000000000000000000000000000000815260040161013a906105bf565b60405180910390fd5b6101556000838361023660201b60201c565b8060026000828254610167919061060e565b92505081905550806000808473ffffffffffffffffffffffffffffffffffffffff1673ffffffffffffffffffffffffffffffffffffffff168152602001908152602001600020600082825401925050819055508173ffffffffffffffffffffffffffffffffffffffff16600073ffffffffffffffffffffffffffffffffffffffff167fddf252ad1be2c89b69c2b068fc378daa952ba7f163c4a11628f55a4df523b3ef836040516102189190610651565b60405180910390a36102326000838361023b60201b60201c565b5050565b505050565b505050565b600081519050919050565b7f4e487b7100000000000000000000000000000000000000000000000000000000600052604160045260246000fd5b7f4e487b7100000000000000000000000000000000000000000000000000000000600052602260045260246000fd5b600060028204905060018216806102c157607f821691505b6020821081036102d4576102d361027a565b5b50919050565b60008190508160005260206000209050919050565b60006020601f8301049050919050565b600082821b905092915050565b60006008830261033c7fffffffffffffffffffffffffffffffffffffffffffffffffffffffffffffffff826102ff565b61034686836102ff565b95508019841693508086168417925050509392505050565b6000819050919050565b6000819050919050565b600061038d6103886103838461035e565b610368565b61035e565b9050919050565b6000819050919050565b6103a783610372565b6103bb6103b382610394565b84845461030c565b825550505050565b600090565b6103d06103c3565b6103db81848461039e565b505050565b5b818110156103ff576103f46000826103c8565b6001810190506103e1565b5050565b601f82111561044457610415816102da565b61041e846102ef565b8101602085101561042d578190505b610441610439856102ef565b8301826103e0565b50505b505050565b600082821c905092915050565b600061046760001984600802610449565b1980831691505092915050565b60006104808383610456565b9150826002028217905092915050565b61049982610240565b67ffffffffffffffff8111156104b2576104b161024b565b5b6104bc82546102a9565b6104c7828285610403565b600060209050601f8311600181146104fa57600084156104e8578287015190505b6104f28582610474565b86555061055a565b601f198416610508866102da565b60005b828110156105305784890151825560018201915060208501945060208101905061050b565b8683101561054d5784890151610549601f891682610456565b8355505b6001600288020188555050505b505050505050565b600082825260208201905092915050565b7f45524332303a206d696e7420746f20746865207a65726f206164647265737300600082015250565b60006105a9601f83610562565b91506105b482610573565b602082019050919050565b600060208201905081810360008301526105d88161059c565b9050919050565b7f4e487b7100000000000000000000000000000000000000000000000000000000600052601160045260246000fd5b60006106198261035e565b91506106248361035e565b925082820190508082111561063c5761063b6105df565b5b92915050565b61064b8161035e565b82525050565b60006020820190506106666000830184610642565b92915050565b6115fe8061067b6000396000f3fe608060405234801561001057600080fd5b50600436106100b45760003560e01c80634000aea0116100715780634000aea0146101a357806370a08231146101d357806395d89b4114610203578063a457c2d714610221578063a9059cbb14610251578063dd62ed3e14610281576100b4565b806306fdde03146100b9578063095ea7b3146100d757806318160ddd1461010757806323b872dd14610125578063313ce567146101555780633950935114610173575b600080fd5b6100c16102b1565b6040516100ce9190610c56565b60405180910390f35b6100f160048036038101906100ec9190610d20565b610343565b6040516100fe9190610d7b565b60405180910390f35b61010f610366565b60405161011c9190610da5565b60405180910390f35b61013f600480360381019061013a9190610dc0565b610370565b60405161014c9190610d7b565b60405180910390f35b61015d61039f565b60405161016a9190610e2f565b60405180910390f35b61018d60048036038101906101889190610d20565b6103a8565b60405161019a9190610d7b565b60405180910390f35b6101bd60048036038101906101b89190610f7f565b6103df565b6040516101ca9190610d7b565b60405180910390f35b6101ed60048036038101906101e89190610fee565b6104ee565b6040516101fa9190610da5565b60405180910390f35b61020b610536565b6040516102189190610c56565b60405180910390f35b61023b60048036038101906102369190610d20565b6105c8565b6040516102489190610d7b565b60405180910390f35b61026b60048036038101906102669190610d20565b61063f565b6040516102789190610d7b565b60405180910390f35b61029b6004803603810190610296919061101b565b610662565b6040516102a89190610da5565b60405180910390f35b6060600380546102c09061108a565b80601f01602080910402602001604051908101604052809291908181526020018280546102ec9061108a565b80156103395780601f1061030e57610100808354040283529160200191610339565b820191906000526020600020905b81548152906001019060200180831161031c57829003601f168201915b5050505050905090565b60008061034e6106e9565b905061035b8185856106f1565b600191505092915050565b6000600254905090565b60008061037b6106e9565b90506103888582856108ba565b610393858585610946565b60019150509392505050565b60006012905090565b6000806103b36106e9565b90506103d48185856103c58589610662565b6103cf91906110ea565b6106f1565b600191505092915050565b60006103eb848461063f565b508373ffffffffffffffffffffffffffffffffffffffff163373ffffffffffffffffffffffffffffffffffffffff167fe19260aff97b920c7df27010903aeb9c8d2be5d310a2c67824cf3f15396e4c16858560405161044b929190611173565b60405180910390a360008473ffffffffffffffffffffffffffffffffffffffff163b11156104e3578373ffffffffffffffffffffffffffffffffffffffff1663a4c0ed363385856040518463ffffffff1660e01b81526004016104b0939291906111b2565b600060405180830381600087803b1580156104ca57600080fd5b505af11580156104de573d6000803e3d6000fd5b505050505b600190509392505050565b60008060008373ffffffffffffffffffffffffffffffffffffffff1673ffffffffffffffffffffffffffffffffffffffff168152602001908152602001600020549050919050565b6060600480546105459061108a565b80601f01602080910402602001604051908101604052809291908181526020018280546105719061108a565b80156105be5780601f10610593576101008083540402835291602001916105be565b820191906000526020600020905b8154815290600101906020018083116105a157829003601f168201915b5050505050905090565b6000806105d36106e9565b905060006105e18286610662565b905083811015610626576040517f08c379a000000000000000000000000000000000000000000000000000000000815260040161061d90611262565b60405180910390fd5b61063382868684036106f1565b60019250505092915050565b60008061064a6106e9565b9050610657818585610946565b600191505092915050565b6000600160008473ffffffffffffffffffffffffffffffffffffffff1673ffffffffffffffffffffffffffffffffffffffff16815260200190815260200160002060008373ffffffffffffffffffffffffffffffffffffffff1673ffffffffffffffffffffffffffffffffffffffff16815260200190815260200160002054905092915050565b600033905090565b600073ffffffffffffffffffffffffffffffffffffffff168373ffffffffffffffffffffffffffffffffffffffff1603610760576040517f08c379a0000000000000000000000000000000000000000000000000000000008152600401610757906112f4565b60405180910390fd5b600073ffffffffffffffffffffffffffffffffffffffff168273ffffffffffffffffffffffffffffffffffffffff16036107cf576040517f08c379a00000000000000000000000000000000000000000000000000000000081526004016107c690611386565b60405180910390fd5b80600160008573ffffffffffffffffffffffffffffffffffffffff1673ffffffffffffffffffffffffffffffffffffffff16815260200190815260200160002060008473ffffffffffffffffffffffffffffffffffffffff1673ffffffffffffffffffffffffffffffffffffffff168152602001908152602001600020819055508173ffffffffffffffffffffffffffffffffffffffff168373ffffffffffffffffffffffffffffffffffffffff167f8c5be1e5ebec7d5bd14f71427d1e84f3dd0314c0f7b2291e5b200ac8c7c3b925836040516108ad9190610da5565b60405180910390a3505050565b60006108c68484610662565b90507fffffffffffffffffffffffffffffffffffffffffffffffffffffffffffffffff81146109405781811015610932576040517f08c379a0000000000000000000000000000000000000000000000000000000008152600401610929906113f2565b60405180910390fd5b61093f84848484036106f1565b5b50505050565b600073ffffffffffffffffffffffffffffffffffffffff168373ffffffffffffffffffffffffffffffffffffffff16036109b5576040517f08c379a00000000000000000000000000000000000000000000000000000000081526004016109ac90611484565b60405180910390fd5b600073ffffffffffffffffffffffffffffffffffffffff168273ffffffffffffffffffffffffffffffffffffffff1603610a24576040517f08c379a0000000000000000000000000000000000000000000000000000000008152600401610a1b90611516565b60405180910390fd5b610a2f838383610bbc565b60008060008573ffffffffffffffffffffffffffffffffffffffff1673ffffffffffffffffffffffffffffffffffffffff16815260200190815260200160002054905081811015610ab5576040517f08c379a0000000000000000000000000000000000000000000000000000000008152600401610aac906115a8565b60405180910390fd5b8181036000808673ffffffffffffffffffffffffffffffffffffffff1673ffffffffffffffffffffffffffffffffffffffff16815260200190815260200160002081905550816000808573ffffffffffffffffffffffffffffffffffffffff1673ffffffffffffffffffffffffffffffffffffffff168152602001908152602001600020600082825401925050819055508273ffffffffffffffffffffffffffffffffffffffff168473ffffffffffffffffffffffffffffffffffffffff167fddf252ad1be2c89b69c2b068fc378daa952ba7f163c4a11628f55a4df523b3ef84604051610ba39190610da5565b60405180910390a3610bb6848484610bc1565b50505050565b505050565b505050565b600081519050919050565b600082825260208201905092915050565b60005b83811015610c00578082015181840152602081019050610be5565b60008484015250505050565b6000601f19601f8301169050919050565b6000610c2882610bc6565b610c328185610bd1565b9350610c42818560208601610be2565b610c4b81610c0c565b840191505092915050565b60006020820190508181036000830152610c708184610c1d565b905092915050565b6000604051905090565b600080fd5b600080fd5b600073ffffffffffffffffffffffffffffffffffffffff82169050919050565b6000610cb782610c8c565b9050919050565b610cc781610cac565b8114610cd257600080fd5b50565b600081359050610ce481610cbe565b92915050565b6000819050919050565b610cfd81610cea565b8114610d0857600080fd5b50565b600081359050610d1a81610cf4565b92915050565b60008060408385031215610d3757610d36610c82565b5b6000610d4585828601610cd5565b9250506020610d5685828601610d0b565b9150509250929050565b60008115159050919050565b610d7581610d60565b82525050565b6000602082019050610d906000830184610d6c565b92915050565b610d9f81610cea565b82525050565b6000602082019050610dba6000830184610d96565b92915050565b600080600060608486031215610dd957610dd8610c82565b5b6000610de786828701610cd5565b9350506020610df886828701610cd5565b9250506040610e0986828701610d0b565b9150509250925092565b600060ff82169050919050565b610e2981610e13565b82525050565b6000602082019050610e446000830184610e20565b92915050565b600080fd5b600080fd5b7f4e487b7100000000000000000000000000000000000000000000000000000000600052604160045260246000fd5b610e8c82610c0c565b810181811067ffffffffffffffff82111715610eab57610eaa610e54565b5b80604052505050565b6000610ebe610c78565b9050610eca8282610e83565b919050565b600067ffffffffffffffff821115610eea57610ee9610e54565b5b610ef382610c0c565b9050602081019050919050565b82818337600083830152505050565b6000610f22610f1d84610ecf565b610eb4565b905082815260208101848484011115610f3e57610f3d610e4f565b5b610f49848285610f00565b509392505050565b600082601f830112610f6657610f65610e4a565b5b8135610f76848260208601610f0f565b91505092915050565b600080600060608486031215610f9857610f97610c82565b5b6000610fa686828701610cd5565b9350506020610fb786828701610d0b565b925050604084013567ffffffffffffffff811115610fd857610fd7610c87565b5b610fe486828701610f51565b9150509250925092565b60006020828403121561100457611003610c82565b5b600061101284828501610cd5565b91505092915050565b6000806040838503121561103257611031610c82565b5b600061104085828601610cd5565b925050602061105185828601610cd5565b9150509250929050565b7f4e487b7100000000000000000000000000000000000000000000000000000000600052602260045260246000fd5b600060028204905060018216806110a257607f821691505b6020821081036110b5576110b461105b565b5b50919050565b7f4e487b7100000000000000000000000000000000000000000000000000000000600052601160045260246000fd5b60006110f582610cea565b915061110083610cea565b9250828201905080821115611118576111176110bb565b5b92915050565b600081519050919050565b600082825260208201905092915050565b60006111458261111e565b61114f8185611129565b935061115f818560208601610be2565b61116881610c0c565b840191505092915050565b60006040820190506111886000830185610d96565b818103602083015261119a818461113a565b90509392505050565b6111ac81610cac565b82525050565b60006060820190506111c760008301866111a3565b6111d46020830185610d96565b81810360408301526111e6818461113a565b9050949350505050565b7f45524332303a2064656372656173656420616c6c6f77616e63652062656c6f7760008201527f207a65726f000000000000000000000000000000000000000000000000000000602082015250565b600061124c602583610bd1565b9150611257826111f0565b604082019050919050565b6000602082019050818103600083015261127b8161123f565b9050919050565b7f45524332303a20617070726f76652066726f6d20746865207a65726f2061646460008201527f7265737300000000000000000000000000000000000000000000000000000000602082015250565b60006112de602483610bd1565b91506112e982611282565b604082019050919050565b6000602082019050818103600083015261130d816112d1565b9050919050565b7f45524332303a20617070726f766520746f20746865207a65726f20616464726560008201527f7373000000000000000000000000000000000000000000000000000000000000602082015250565b6000611370602283610bd1565b915061137b82611314565b604082019050919050565b6000602082019050818103600083015261139f81611363565b9050919050565b7f45524332303a20696e73756666696369656e7420616c6c6f77616e6365000000600082015250565b60006113dc601d83610bd1565b91506113e7826113a6565b602082019050919050565b6000602082019050818103600083015261140b816113cf565b9050919050565b7f45524332303a207472616e736665722066726f6d20746865207a65726f20616460008201527f6472657373000000000000000000000000000000000000000000000000000000602082015250565b600061146e602583610bd1565b915061147982611412565b604082019050919050565b6000602082019050818103600083015261149d81611461565b9050919050565b7f45524332303a207472616e7366657220746f20746865207a65726f206164647260008201527f6573730000000000000000000000000000000000000000000000000000000000602082015250565b6000611500602383610bd1565b915061150b826114a4565b604082019050919050565b6000602082019050818103600083015261152f816114f3565b9050919050565b7f45524332303a207472616e7366657220616d6f756e742065786365656473206260008201527f616c616e63650000000000000000000000000000000000000000000000000000602082015250565b6000611592602683610bd1565b915061159d82611536565b604082019050919050565b600060208201905081810360008301526115c181611585565b905091905056fea2646970667358221220281882c7b525bd619d265355f860536f6bd44b078d3ec94c8cc33415c66708e164736f6c634300081a003360c060405234801561001057600080fd5b506040516137fa3803806137fa8339818101604052810190610032919061041f565b8181601260003380600086868181816003908161004f91906106b8565b50806004908161005f91906106b8565b5050505050600073ffffffffffffffffffffffffffffffffffffffff168273ffffffffffffffffffffffffffffffffffffffff16036100d3576040517f08c379a00000000000000000000000000000000000000000000000000000000081526004016100ca906107e7565b60405180910390fd5b81600560006101000a81548173ffffffffffffffffffffffffffffffffffffffff021916908373ffffffffffffffffffffffffffffffffffffffff160217905550600073ffffffffffffffffffffffffffffffffffffffff168173ffffffffffffffffffffffffffffffffffffffff1614610158576101578161017c60201b60201c565b5b5050508160ff1660808160ff16815250508060a08181525050505050505050610873565b3373ffffffffffffffffffffffffffffffffffffffff168173ffffffffffffffffffffffffffffffffffffffff16036101ea576040517f08c379a00000000000000000000000000000000000000000000000000000000081526004016101e190610853565b60405180910390fd5b80600660006101000a81548173ffffffffffffffffffffffffffffffffffffffff021916908373ffffffffffffffffffffffffffffffffffffffff1602179055508073ffffffffffffffffffffffffffffffffffffffff16600560009054906101000a900473ffffffffffffffffffffffffffffffffffffffff1673ffffffffffffffffffffffffffffffffffffffff167fed8889f560326eb138920d842192f0eb3dd22b4f139c87a2c57538e05bae127860405160405180910390a350565b6000604051905090565b600080fd5b600080fd5b600080fd5b600080fd5b6000601f19601f8301169050919050565b7f4e487b7100000000000000000000000000000000000000000000000000000000600052604160045260246000fd5b610311826102c8565b810181811067ffffffffffffffff821117156103305761032f6102d9565b5b80604052505050565b60006103436102aa565b905061034f8282610308565b919050565b600067ffffffffffffffff82111561036f5761036e6102d9565b5b610378826102c8565b9050602081019050919050565b60005b838110156103a3578082015181840152602081019050610388565b60008484015250505050565b60006103c26103bd84610354565b610339565b9050828152602081018484840111156103de576103dd6102c3565b5b6103e9848285610385565b509392505050565b600082601f830112610406576104056102be565b5b81516104168482602086016103af565b91505092915050565b60008060408385031215610436576104356102b4565b5b600083015167ffffffffffffffff811115610454576104536102b9565b5b610460858286016103f1565b925050602083015167ffffffffffffffff811115610481576104806102b9565b5b61048d858286016103f1565b9150509250929050565b600081519050919050565b7f4e487b7100000000000000000000000000000000000000000000000000000000600052602260045260246000fd5b600060028204905060018216806104e957607f821691505b6020821081036104fc576104fb6104a2565b5b50919050565b60008190508160005260206000209050919050565b60006020601f8301049050919050565b600082821b905092915050565b6000600883026105647fffffffffffffffffffffffffffffffffffffffffffffffffffffffffffffffff82610527565b61056e8683610527565b95508019841693508086168417925050509392505050565b6000819050919050565b6000819050919050565b60006105b56105b06105ab84610586565b610590565b610586565b9050919050565b6000819050919050565b6105cf8361059a565b6105e36105db826105bc565b848454610534565b825550505050565b600090565b6105f86105eb565b6106038184846105c6565b505050565b5b818110156106275761061c6000826105f0565b600181019050610609565b5050565b601f82111561066c5761063d81610502565b61064684610517565b81016020851015610655578190505b61066961066185610517565b830182610608565b50505b505050565b600082821c905092915050565b600061068f60001984600802610671565b1980831691505092915050565b60006106a8838361067e565b9150826002028217905092915050565b6106c182610497565b67ffffffffffffffff8111156106da576106d96102d9565b5b6106e482546104d1565b6106ef82828561062b565b600060209050601f8311600181146107225760008415610710578287015190505b61071a858261069c565b865550610782565b601f19841661073086610502565b60005b8281101561075857848901518255600182019150602085019450602081019050610733565b868310156107755784890151610771601f89168261067e565b8355505b6001600288020188555050505b505050505050565b600082825260208201905092915050565b7f43616e6e6f7420736574206f776e657220746f207a65726f0000000000000000600082015250565b60006107d160188361078a565b91506107dc8261079b565b602082019050919050565b60006020820190508181036000830152610800816107c4565b9050919050565b7f43616e6e6f74207472616e7366657220746f2073656c66000000000000000000600082015250565b600061083d60178361078a565b915061084882610807565b602082019050919050565b6000602082019050818103600083015261086c81610830565b9050919050565b60805160a051612f546108a660003960008181610b0f01528181610b3901526111970152600061091e0152612f546000f3fe608060405234801561001057600080fd5b50600436106101fb5760003560e01c806379ba50971161011a578063aa271e1a116100ad578063d5abeb011161007c578063d5abeb01146105e8578063d73dd62314610606578063dd62ed3e14610622578063f2fde38b14610652578063f81094f31461066e576101fb565b8063aa271e1a14610564578063c2e3273d14610594578063c630948d146105b0578063c64d0ebc146105cc576101fb565b806395d89b41116100e957806395d89b41146104ca5780639dc29fac146104e8578063a457c2d714610504578063a9059cbb14610534576101fb565b806379ba50971461046857806379cc67901461047257806386fe8b431461048e5780638da5cb5b146104ac576101fb565b806340c10f1911610192578063661884631161016157806366188463146103ce57806367a5cd06146103fe5780636b32810b1461041a57806370a0823114610438576101fb565b806340c10f191461034a57806342966c68146103665780634334614a146103825780634f5632f8146103b2576101fb565b806323b872dd116101ce57806323b872dd1461029c578063313ce567146102cc57806339509351146102ea5780634000aea01461031a576101fb565b806301ffc9a71461020057806306fdde0314610230578063095ea7b31461024e57806318160ddd1461027e575b600080fd5b61021a60048036038101906102159190612075565b61068a565b60405161022791906120bd565b60405180910390f35b61023861082c565b6040516102459190612168565b60405180910390f35b6102686004803603810190610263919061221e565b6108be565b60405161027591906120bd565b60405180910390f35b6102866108e1565b604051610293919061226d565b60405180910390f35b6102b660048036038101906102b19190612288565b6108eb565b6040516102c391906120bd565b60405180910390f35b6102d461091a565b6040516102e191906122f7565b60405180910390f35b61030460048036038101906102ff919061221e565b610942565b60405161031191906120bd565b60405180910390f35b610334600480360381019061032f9190612447565b610979565b60405161034191906120bd565b60405180910390f35b610364600480360381019061035f919061221e565b610a88565b005b610380600480360381019061037b91906124b6565b610bd0565b005b61039c600480360381019061039791906124e3565b610c26565b6040516103a991906120bd565b60405180910390f35b6103cc60048036038101906103c791906124e3565b610c43565b005b6103e860048036038101906103e3919061221e565b610cab565b6040516103f591906120bd565b60405180910390f35b610418600480360381019061041391906124e3565b610cbf565b005b610422610cd4565b60405161042f91906125ce565b60405180910390f35b610452600480360381019061044d91906124e3565b610ce5565b60405161045f919061226d565b60405180910390f35b610470610d2d565b005b61048c6004803603810190610487919061221e565b610ec4565b005b610496610f1c565b6040516104a391906125ce565b60405180910390f35b6104b4610f2d565b6040516104c191906125ff565b60405180910390f35b6104d2610f57565b6040516104df9190612168565b60405180910390f35b61050260048036038101906104fd919061221e565b610fe9565b005b61051e6004803603810190610519919061221e565b610ff7565b60405161052b91906120bd565b60405180910390f35b61054e6004803603810190610549919061221e565b61106e565b60405161055b91906120bd565b60405180910390f35b61057e600480360381019061057991906124e3565b611091565b60405161058b91906120bd565b60405180910390f35b6105ae60048036038101906105a991906124e3565b6110ae565b005b6105ca60048036038101906105c591906124e3565b611116565b005b6105e660048036038101906105e191906124e3565b61112b565b005b6105f0611193565b6040516105fd919061226d565b60405180910390f35b610620600480360381019061061b919061221e565b6111bb565b005b61063c6004803603810190610637919061261a565b6111ca565b604051610649919061226d565b60405180910390f35b61066c600480360381019061066791906124e3565b611251565b005b610688600480360381019061068391906124e3565b611265565b005b60007f36372b07000000000000000000000000000000000000000000000000000000007bffffffffffffffffffffffffffffffffffffffffffffffffffffffff1916827bffffffffffffffffffffffffffffffffffffffffffffffffffffffff1916148061075557507f4000aea0000000000000000000000000000000000000000000000000000000007bffffffffffffffffffffffffffffffffffffffffffffffffffffffff1916827bffffffffffffffffffffffffffffffffffffffffffffffffffffffff1916145b806107bd57507fe6599b4d000000000000000000000000000000000000000000000000000000007bffffffffffffffffffffffffffffffffffffffffffffffffffffffff1916827bffffffffffffffffffffffffffffffffffffffffffffffffffffffff1916145b8061082557507f01ffc9a7000000000000000000000000000000000000000000000000000000007bffffffffffffffffffffffffffffffffffffffffffffffffffffffff1916827bffffffffffffffffffffffffffffffffffffffffffffffffffffffff1916145b9050919050565b60606003805461083b90612689565b80601f016020809104026020016040519081016040528092919081815260200182805461086790612689565b80156108b45780601f10610889576101008083540402835291602001916108b4565b820191906000526020600020905b81548152906001019060200180831161089757829003601f168201915b5050505050905090565b6000806108c96112cd565b90506108d68185856112d5565b600191505092915050565b6000600254905090565b6000806108f66112cd565b905061090385828561131f565b61090e8585856113ab565b60019150509392505050565b60007f0000000000000000000000000000000000000000000000000000000000000000905090565b60008061094d6112cd565b905061096e81858561095f85896111ca565b61096991906126e9565b6112d5565b600191505092915050565b6000610985848461106e565b508373ffffffffffffffffffffffffffffffffffffffff163373ffffffffffffffffffffffffffffffffffffffff167fe19260aff97b920c7df27010903aeb9c8d2be5d310a2c67824cf3f15396e4c1685856040516109e5929190612772565b60405180910390a360008473ffffffffffffffffffffffffffffffffffffffff163b1115610a7d578373ffffffffffffffffffffffffffffffffffffffff1663a4c0ed363385856040518463ffffffff1660e01b8152600401610a4a939291906127a2565b600060405180830381600087803b158015610a6457600080fd5b505af1158015610a78573d6000803e3d6000fd5b505050505b600190509392505050565b610a9133611091565b610ad257336040517fe2c8c9d5000000000000000000000000000000000000000000000000000000008152600401610ac991906125ff565b60405180910390fd5b813073ffffffffffffffffffffffffffffffffffffffff168173ffffffffffffffffffffffffffffffffffffffff1603610b0b57600080fd5b60007f000000000000000000000000000000000000000000000000000000000000000014158015610b6d57507f000000000000000000000000000000000000000000000000000000000000000082610b616108e1565b610b6b91906126e9565b115b15610bc15781610b7b6108e1565b610b8591906126e9565b6040517fcbbf1113000000000000000000000000000000000000000000000000000000008152600401610bb8919061226d565b60405180910390fd5b610bcb83836113f5565b505050565b610bd933610c26565b610c1a57336040517fc820b10b000000000000000000000000000000000000000000000000000000008152600401610c1191906125ff565b60405180910390fd5b610c238161154b565b50565b6000610c3c82600961155f90919063ffffffff16565b9050919050565b610c4b61158f565b610c5f81600961162190919063ffffffff16565b15610ca8578073ffffffffffffffffffffffffffffffffffffffff167f0a675452746933cefe3d74182e78db7afe57ba60eaa4234b5d85e9aa41b0610c60405160405180910390a25b50565b6000610cb78383610ff7565b905092915050565b610cd181670de0b6b3a76400006113f5565b50565b6060610ce06007611651565b905090565b60008060008373ffffffffffffffffffffffffffffffffffffffff1673ffffffffffffffffffffffffffffffffffffffff168152602001908152602001600020549050919050565b600660009054906101000a900473ffffffffffffffffffffffffffffffffffffffff1673ffffffffffffffffffffffffffffffffffffffff163373ffffffffffffffffffffffffffffffffffffffff1614610dbd576040517f08c379a0000000000000000000000000000000000000000000000000000000008152600401610db49061282c565b60405180910390fd5b6000600560009054906101000a900473ffffffffffffffffffffffffffffffffffffffff16905033600560006101000a81548173ffffffffffffffffffffffffffffffffffffffff021916908373ffffffffffffffffffffffffffffffffffffffff1602179055506000600660006101000a81548173ffffffffffffffffffffffffffffffffffffffff021916908373ffffffffffffffffffffffffffffffffffffffff1602179055503373ffffffffffffffffffffffffffffffffffffffff168173ffffffffffffffffffffffffffffffffffffffff167f8be0079c531659141344cd1fd0a4f28419497f9722a3daafe3b4186f6b6457e060405160405180910390a350565b610ecd33610c26565b610f0e57336040517fc820b10b000000000000000000000000000000000000000000000000000000008152600401610f0591906125ff565b60405180910390fd5b610f188282611672565b5050565b6060610f286009611651565b905090565b6000600560009054906101000a900473ffffffffffffffffffffffffffffffffffffffff16905090565b606060048054610f6690612689565b80601f0160208091040260200160405190810160405280929190818152602001828054610f9290612689565b8015610fdf5780601f10610fb457610100808354040283529160200191610fdf565b820191906000526020600020905b815481529060010190602001808311610fc257829003601f168201915b5050505050905090565b610ff38282610ec4565b5050565b6000806110026112cd565b9050600061101082866111ca565b905083811015611055576040517f08c379a000000000000000000000000000000000000000000000000000000000815260040161104c906128be565b60405180910390fd5b61106282868684036112d5565b60019250505092915050565b6000806110796112cd565b90506110868185856113ab565b600191505092915050565b60006110a782600761155f90919063ffffffff16565b9050919050565b6110b661158f565b6110ca81600761169290919063ffffffff16565b15611113578073ffffffffffffffffffffffffffffffffffffffff167fe46fef8bbff1389d9010703cf8ebb363fb3daf5bf56edc27080b67bc8d9251ea60405160405180910390a25b50565b61111f816110ae565b6111288161112b565b50565b61113361158f565b61114781600961169290919063ffffffff16565b15611190578073ffffffffffffffffffffffffffffffffffffffff167f92308bb7573b2a3d17ddb868b39d8ebec433f3194421abc22d084f89658c9bad60405160405180910390a25b50565b60007f0000000000000000000000000000000000000000000000000000000000000000905090565b6111c58282610942565b505050565b6000600160008473ffffffffffffffffffffffffffffffffffffffff1673ffffffffffffffffffffffffffffffffffffffff16815260200190815260200160002060008373ffffffffffffffffffffffffffffffffffffffff1673ffffffffffffffffffffffffffffffffffffffff16815260200190815260200160002054905092915050565b61125961158f565b611262816116c2565b50565b61126d61158f565b61128181600761162190919063ffffffff16565b156112ca578073ffffffffffffffffffffffffffffffffffffffff167fed998b960f6340d045f620c119730f7aa7995e7425c2401d3a5b64ff998a59e960405160405180910390a25b50565b600033905090565b813073ffffffffffffffffffffffffffffffffffffffff168173ffffffffffffffffffffffffffffffffffffffff160361130e57600080fd5b6113198484846117f0565b50505050565b600061132b84846111ca565b90507fffffffffffffffffffffffffffffffffffffffffffffffffffffffffffffffff81146113a55781811015611397576040517f08c379a000000000000000000000000000000000000000000000000000000000815260040161138e9061292a565b60405180910390fd5b6113a484848484036112d5565b5b50505050565b813073ffffffffffffffffffffffffffffffffffffffff168173ffffffffffffffffffffffffffffffffffffffff16036113e457600080fd5b6113ef8484846119b9565b50505050565b600073ffffffffffffffffffffffffffffffffffffffff168273ffffffffffffffffffffffffffffffffffffffff1603611464576040517f08c379a000000000000000000000000000000000000000000000000000000000815260040161145b90612996565b60405180910390fd5b61147060008383611c2f565b806002600082825461148291906126e9565b92505081905550806000808473ffffffffffffffffffffffffffffffffffffffff1673ffffffffffffffffffffffffffffffffffffffff168152602001908152602001600020600082825401925050819055508173ffffffffffffffffffffffffffffffffffffffff16600073ffffffffffffffffffffffffffffffffffffffff167fddf252ad1be2c89b69c2b068fc378daa952ba7f163c4a11628f55a4df523b3ef83604051611533919061226d565b60405180910390a361154760008383611c34565b5050565b61155c6115566112cd565b82611c39565b50565b6000611587836000018373ffffffffffffffffffffffffffffffffffffffff1660001b611e06565b905092915050565b600560009054906101000a900473ffffffffffffffffffffffffffffffffffffffff1673ffffffffffffffffffffffffffffffffffffffff163373ffffffffffffffffffffffffffffffffffffffff161461161f576040517f08c379a000000000000000000000000000000000000000000000000000000000815260040161161690612a02565b60405180910390fd5b565b6000611649836000018373ffffffffffffffffffffffffffffffffffffffff1660001b611e29565b905092915050565b6060600061166183600001611f3d565b905060608190508092505050919050565b6116848261167e6112cd565b8361131f565b61168e8282611c39565b5050565b60006116ba836000018373ffffffffffffffffffffffffffffffffffffffff1660001b611f99565b905092915050565b3373ffffffffffffffffffffffffffffffffffffffff168173ffffffffffffffffffffffffffffffffffffffff1603611730576040517f08c379a000000000000000000000000000000000000000000000000000000000815260040161172790612a6e565b60405180910390fd5b80600660006101000a81548173ffffffffffffffffffffffffffffffffffffffff021916908373ffffffffffffffffffffffffffffffffffffffff1602179055508073ffffffffffffffffffffffffffffffffffffffff16600560009054906101000a900473ffffffffffffffffffffffffffffffffffffffff1673ffffffffffffffffffffffffffffffffffffffff167fed8889f560326eb138920d842192f0eb3dd22b4f139c87a2c57538e05bae127860405160405180910390a350565b600073ffffffffffffffffffffffffffffffffffffffff168373ffffffffffffffffffffffffffffffffffffffff160361185f576040517f08c379a000000000000000000000000000000000000000000000000000000000815260040161185690612b00565b60405180910390fd5b600073ffffffffffffffffffffffffffffffffffffffff168273ffffffffffffffffffffffffffffffffffffffff16036118ce576040517f08c379a00000000000000000000000000000000000000000000000000000000081526004016118c590612b92565b60405180910390fd5b80600160008573ffffffffffffffffffffffffffffffffffffffff1673ffffffffffffffffffffffffffffffffffffffff16815260200190815260200160002060008473ffffffffffffffffffffffffffffffffffffffff1673ffffffffffffffffffffffffffffffffffffffff168152602001908152602001600020819055508173ffffffffffffffffffffffffffffffffffffffff168373ffffffffffffffffffffffffffffffffffffffff167f8c5be1e5ebec7d5bd14f71427d1e84f3dd0314c0f7b2291e5b200ac8c7c3b925836040516119ac919061226d565b60405180910390a3505050565b600073ffffffffffffffffffffffffffffffffffffffff168373ffffffffffffffffffffffffffffffffffffffff1603611a28576040517f08c379a0000000000000000000000000000000000000000000000000000000008152600401611a1f90612c24565b60405180910390fd5b600073ffffffffffffffffffffffffffffffffffffffff168273ffffffffffffffffffffffffffffffffffffffff1603611a97576040517f08c379a0000000000000000000000000000000000000000000000000000000008152600401611a8e90612cb6565b60405180910390fd5b611aa2838383611c2f565b60008060008573ffffffffffffffffffffffffffffffffffffffff1673ffffffffffffffffffffffffffffffffffffffff16815260200190815260200160002054905081811015611b28576040517f08c379a0000000000000000000000000000000000000000000000000000000008152600401611b1f90612d48565b60405180910390fd5b8181036000808673ffffffffffffffffffffffffffffffffffffffff1673ffffffffffffffffffffffffffffffffffffffff16815260200190815260200160002081905550816000808573ffffffffffffffffffffffffffffffffffffffff1673ffffffffffffffffffffffffffffffffffffffff168152602001908152602001600020600082825401925050819055508273ffffffffffffffffffffffffffffffffffffffff168473ffffffffffffffffffffffffffffffffffffffff167fddf252ad1be2c89b69c2b068fc378daa952ba7f163c4a11628f55a4df523b3ef84604051611c16919061226d565b60405180910390a3611c29848484611c34565b50505050565b505050565b505050565b600073ffffffffffffffffffffffffffffffffffffffff168273ffffffffffffffffffffffffffffffffffffffff1603611ca8576040517f08c379a0000000000000000000000000000000000000000000000000000000008152600401611c9f90612dda565b60405180910390fd5b611cb482600083611c2f565b60008060008473ffffffffffffffffffffffffffffffffffffffff1673ffffffffffffffffffffffffffffffffffffffff16815260200190815260200160002054905081811015611d3a576040517f08c379a0000000000000000000000000000000000000000000000000000000008152600401611d3190612e6c565b60405180910390fd5b8181036000808573ffffffffffffffffffffffffffffffffffffffff1673ffffffffffffffffffffffffffffffffffffffff1681526020019081526020016000208190555081600260008282540392505081905550600073ffffffffffffffffffffffffffffffffffffffff168373ffffffffffffffffffffffffffffffffffffffff167fddf252ad1be2c89b69c2b068fc378daa952ba7f163c4a11628f55a4df523b3ef84604051611ded919061226d565b60405180910390a3611e0183600084611c34565b505050565b600080836001016000848152602001908152602001600020541415905092915050565b60008083600101600084815260200190815260200160002054905060008114611f31576000600182611e5b9190612e8c565b9050600060018660000180549050611e739190612e8c565b9050818114611ee2576000866000018281548110611e9457611e93612ec0565b5b9060005260206000200154905080876000018481548110611eb857611eb7612ec0565b5b90600052602060002001819055508387600101600083815260200190815260200160002081905550505b85600001805480611ef657611ef5612eef565b5b600190038181906000526020600020016000905590558560010160008681526020019081526020016000206000905560019350505050611f37565b60009150505b92915050565b606081600001805480602002602001604051908101604052809291908181526020018280548015611f8d57602002820191906000526020600020905b815481526020019060010190808311611f79575b50505050509050919050565b6000611fa58383611e06565b611ffe578260000182908060018154018082558091505060019003906000526020600020016000909190919091505582600001805490508360010160008481526020019081526020016000208190555060019050612003565b600090505b92915050565b6000604051905090565b600080fd5b600080fd5b60007fffffffff0000000000000000000000000000000000000000000000000000000082169050919050565b6120528161201d565b811461205d57600080fd5b50565b60008135905061206f81612049565b92915050565b60006020828403121561208b5761208a612013565b5b600061209984828501612060565b91505092915050565b60008115159050919050565b6120b7816120a2565b82525050565b60006020820190506120d260008301846120ae565b92915050565b600081519050919050565b600082825260208201905092915050565b60005b838110156121125780820151818401526020810190506120f7565b60008484015250505050565b6000601f19601f8301169050919050565b600061213a826120d8565b61214481856120e3565b93506121548185602086016120f4565b61215d8161211e565b840191505092915050565b60006020820190508181036000830152612182818461212f565b905092915050565b600073ffffffffffffffffffffffffffffffffffffffff82169050919050565b60006121b58261218a565b9050919050565b6121c5816121aa565b81146121d057600080fd5b50565b6000813590506121e2816121bc565b92915050565b6000819050919050565b6121fb816121e8565b811461220657600080fd5b50565b600081359050612218816121f2565b92915050565b6000806040838503121561223557612234612013565b5b6000612243858286016121d3565b925050602061225485828601612209565b9150509250929050565b612267816121e8565b82525050565b6000602082019050612282600083018461225e565b92915050565b6000806000606084860312156122a1576122a0612013565b5b60006122af868287016121d3565b93505060206122c0868287016121d3565b92505060406122d186828701612209565b9150509250925092565b600060ff82169050919050565b6122f1816122db565b82525050565b600060208201905061230c60008301846122e8565b92915050565b600080fd5b600080fd5b7f4e487b7100000000000000000000000000000000000000000000000000000000600052604160045260246000fd5b6123548261211e565b810181811067ffffffffffffffff821117156123735761237261231c565b5b80604052505050565b6000612386612009565b9050612392828261234b565b919050565b600067ffffffffffffffff8211156123b2576123b161231c565b5b6123bb8261211e565b9050602081019050919050565b82818337600083830152505050565b60006123ea6123e584612397565b61237c565b90508281526020810184848401111561240657612405612317565b5b6124118482856123c8565b509392505050565b600082601f83011261242e5761242d612312565b5b813561243e8482602086016123d7565b91505092915050565b6000806000606084860312156124605761245f612013565b5b600061246e868287016121d3565b935050602061247f86828701612209565b925050604084013567ffffffffffffffff8111156124a05761249f612018565b5b6124ac86828701612419565b9150509250925092565b6000602082840312156124cc576124cb612013565b5b60006124da84828501612209565b91505092915050565b6000602082840312156124f9576124f8612013565b5b6000612507848285016121d3565b91505092915050565b600081519050919050565b600082825260208201905092915050565b6000819050602082019050919050565b612545816121aa565b82525050565b6000612557838361253c565b60208301905092915050565b6000602082019050919050565b600061257b82612510565b612585818561251b565b93506125908361252c565b8060005b838110156125c15781516125a8888261254b565b97506125b383612563565b925050600181019050612594565b5085935050505092915050565b600060208201905081810360008301526125e88184612570565b905092915050565b6125f9816121aa565b82525050565b600060208201905061261460008301846125f0565b92915050565b6000806040838503121561263157612630612013565b5b600061263f858286016121d3565b9250506020612650858286016121d3565b9150509250929050565b7f4e487b7100000000000000000000000000000000000000000000000000000000600052602260045260246000fd5b600060028204905060018216806126a157607f821691505b6020821081036126b4576126b361265a565b5b50919050565b7f4e487b7100000000000000000000000000000000000000000000000000000000600052601160045260246000fd5b60006126f4826121e8565b91506126ff836121e8565b9250828201905080821115612717576127166126ba565b5b92915050565b600081519050919050565b600082825260208201905092915050565b60006127448261271d565b61274e8185612728565b935061275e8185602086016120f4565b6127678161211e565b840191505092915050565b6000604082019050612787600083018561225e565b81810360208301526127998184612739565b90509392505050565b60006060820190506127b760008301866125f0565b6127c4602083018561225e565b81810360408301526127d68184612739565b9050949350505050565b7f4d7573742062652070726f706f736564206f776e657200000000000000000000600082015250565b60006128166016836120e3565b9150612821826127e0565b602082019050919050565b6000602082019050818103600083015261284581612809565b9050919050565b7f45524332303a2064656372656173656420616c6c6f77616e63652062656c6f7760008201527f207a65726f000000000000000000000000000000000000000000000000000000602082015250565b60006128a86025836120e3565b91506128b38261284c565b604082019050919050565b600060208201905081810360008301526128d78161289b565b9050919050565b7f45524332303a20696e73756666696369656e7420616c6c6f77616e6365000000600082015250565b6000612914601d836120e3565b915061291f826128de565b602082019050919050565b6000602082019050818103600083015261294381612907565b9050919050565b7f45524332303a206d696e7420746f20746865207a65726f206164647265737300600082015250565b6000612980601f836120e3565b915061298b8261294a565b602082019050919050565b600060208201905081810360008301526129af81612973565b9050919050565b7f4f6e6c792063616c6c61626c65206279206f776e657200000000000000000000600082015250565b60006129ec6016836120e3565b91506129f7826129b6565b602082019050919050565b60006020820190508181036000830152612a1b816129df565b9050919050565b7f43616e6e6f74207472616e7366657220746f2073656c66000000000000000000600082015250565b6000612a586017836120e3565b9150612a6382612a22565b602082019050919050565b60006020820190508181036000830152612a8781612a4b565b9050919050565b7f45524332303a20617070726f76652066726f6d20746865207a65726f2061646460008201527f7265737300000000000000000000000000000000000000000000000000000000602082015250565b6000612aea6024836120e3565b9150612af582612a8e565b604082019050919050565b60006020820190508181036000830152612b1981612add565b9050919050565b7f45524332303a20617070726f766520746f20746865207a65726f20616464726560008201527f7373000000000000000000000000000000000000000000000000000000000000602082015250565b6000612b7c6022836120e3565b9150612b8782612b20565b604082019050919050565b60006020820190508181036000830152612bab81612b6f565b9050919050565b7f45524332303a207472616e736665722066726f6d20746865207a65726f20616460008201527f6472657373000000000000000000000000000000000000000000000000000000602082015250565b6000612c0e6025836120e3565b9150612c1982612bb2565b604082019050919050565b60006020820190508181036000830152612c3d81612c01565b9050919050565b7f45524332303a207472616e7366657220746f20746865207a65726f206164647260008201527f6573730000000000000000000000000000000000000000000000000000000000602082015250565b6000612ca06023836120e3565b9150612cab82612c44565b604082019050919050565b60006020820190508181036000830152612ccf81612c93565b9050919050565b7f45524332303a207472616e7366657220616d6f756e742065786365656473206260008201527f616c616e63650000000000000000000000000000000000000000000000000000602082015250565b6000612d326026836120e3565b9150612d3d82612cd6565b604082019050919050565b60006020820190508181036000830152612d6181612d25565b9050919050565b7f45524332303a206275726e2066726f6d20746865207a65726f2061646472657360008201527f7300000000000000000000000000000000000000000000000000000000000000602082015250565b6000612dc46021836120e3565b9150612dcf82612d68565b604082019050919050565b60006020820190508181036000830152612df381612db7565b9050919050565b7f45524332303a206275726e20616d6f756e7420657863656564732062616c616e60008201527f6365000000000000000000000000000000000000000000000000000000000000602082015250565b6000612e566022836120e3565b9150612e6182612dfa565b604082019050919050565b60006020820190508181036000830152612e8581612e49565b9050919050565b6000612e97826121e8565b9150612ea2836121e8565b9250828203905081811115612eba57612eb96126ba565b5b92915050565b7f4e487b7100000000000000000000000000000000000000000000000000000000600052603260045260246000fd5b7f4e487b7100000000000000000000000000000000000000000000000000000000600052603160045260246000fdfea2646970667358221220534126f12d80c9efb4256f63529e84ce59eebfd74d42c6678060d58b074b44de64736f6c634300081a00336080604052348015600f57600080fd5b506126728061001f6000396000f3fe6080604052600436106100915760003560e01c8063a48a905811610059578063a48a9058146101a8578063a8d87a3b146101e5578063d6be695a14610222578063ee18e0d31461024d578063fbca3b741461027857610091565b806320487ded146100965780633cf97983146100d357806369fe0e2d1461011257806383826b2b1461013b57806396f4e9f914610178575b600080fd5b3480156100a257600080fd5b506100bd60048036038101906100b89190611491565b6102b5565b6040516100ca91906114fc565b60405180910390f35b3480156100df57600080fd5b506100fa60048036038101906100f59190611575565b6102c1565b60405161010993929190611692565b60405180910390f35b34801561011e57600080fd5b50610139600480360381019061013491906116d0565b6102ec565b005b34801561014757600080fd5b50610162600480360381019061015d91906116fd565b6102f6565b60405161016f919061173d565b60405180910390f35b610192600480360381019061018d9190611777565b610302565b60405161019f91906117ec565b60405180910390f35b3480156101b457600080fd5b506101cf60048036038101906101ca9190611807565b61079a565b6040516101dc919061173d565b60405180910390f35b3480156101f157600080fd5b5061020c60048036038101906102079190611807565b6107a5565b6040516102199190611843565b60405180910390f35b34801561022e57600080fd5b506102376107b3565b604051610244919061187d565b60405180910390f35b34801561025957600080fd5b506102626107ba565b60405161026f91906118a7565b60405180910390f35b34801561028457600080fd5b5061029f600480360381019061029a9190611807565b6107c0565b6040516102ac9190611980565b60405180910390f35b60008054905092915050565b6000606060006102dc876102d490611aae565b878787610813565b9250925092509450945094915050565b8060008190555050565b60006001905092915050565b600060208280600001906103169190611ad0565b90501461036a5781806000019061032d9190611ad0565b6040517f370d875f000000000000000000000000000000000000000000000000000000008152600401610361929190611b60565b60405180910390fd5b600082806000019061037c9190611ad0565b81019061038991906116d0565b905073ffffffffffffffffffffffffffffffffffffffff80168111806103af5750600a81105b15610401578280600001906103c49190611ad0565b6040517f370d875f0000000000000000000000000000000000000000000000000000000081526004016103f8929190611b60565b60405180910390fd5b6000610416858561041190611b84565b6102b5565b9050600073ffffffffffffffffffffffffffffffffffffffff168460600160208101906104439190611b97565b73ffffffffffffffffffffffffffffffffffffffff160361049d5780341015610498576040517f07da6ee600000000000000000000000000000000000000000000000000000000815260040160405180910390fd5b610518565b60003411156104d8576040517f1841b4e100000000000000000000000000000000000000000000000000000000815260040160405180910390fd5b6105173330838760600160208101906104f19190611b97565b73ffffffffffffffffffffffffffffffffffffffff166109ec909392919063ffffffff16565b5b600082905060006105378680608001906105329190611ad0565b610a75565b6000015190506000866040516020016105509190611eb6565b60405160208183030381529060405280519060200120905060006040518060a0016040528083815260200167de41ba4fc9d91ad967ffffffffffffffff168152602001336040516020016105a49190611843565b60405160208183030381529060405281526020018980602001906105c89190611ad0565b8080601f016020809104026020016040519081016040528093929190818152602001838380828437600081840152601f19601f8201169050808301925050505050505081526020018980604001906106209190611ed8565b808060200260200160405190810160405280939291908181526020016000905b82821015610670578484839050604002018036038101906106619190611f3b565b81526020019060010190610640565b5050505050815250905060005b88806040019061068d9190611ed8565b90508110156107305761072533868b80604001906106ab9190611ed8565b858181106106bc576106bb611f68565b5b905060400201602001358c80604001906106d69190611ed8565b868181106106e7576106e6611f68565b5b90506040020160000160208101906106ff9190611b97565b73ffffffffffffffffffffffffffffffffffffffff166109ec909392919063ffffffff16565b80600101905061067d565b50600080610742836113888789610813565b50915091508161078957806040517f0a8d6e8c0000000000000000000000000000000000000000000000000000000081526004016107809190611f97565b60405180910390fd5b839850505050505050505092915050565b600060019050919050565b600063499602d29050919050565b62030d4081565b61138881565b6060600067ffffffffffffffff8111156107dd576107dc6110af565b5b60405190808252806020026020018201604052801561080b5781602001602082028036833780820191505090505b509050919050565b6000606060008087606001515114801561082d5750600085145b8061084f575060008473ffffffffffffffffffffffffffffffffffffffff163b145b806108a0575061089e7f85572ffb000000000000000000000000000000000000000000000000000000008573ffffffffffffffffffffffffffffffffffffffff16610b5a90919063ffffffff16565b155b156108c5576001600060405180602001604052806000815250909250925092506109e2565b60006385572ffb60e01b886040516024016108e09190612161565b604051602081830303815290604052907bffffffffffffffffffffffffffffffffffffffffffffffffffffffff19166020820180517bffffffffffffffffffffffffffffffffffffffffffffffffffffffff8381831617835250505050905061094d8186888a6084610b7f565b8094508195508296505050507fa8b0355886b5b7a28bb97e4f0a24feb172618407402721c4012d8b7c6433102f84848460405161098c93929190611692565b60405180910390a17f9b877de93ea9895756e337442c657f95a34fc68e7eb988bdfa693d5be83016b6886000015189602001513384805190602001206040516109d89493929190612192565b60405180910390a1505b9450945094915050565b610a6f846323b872dd60e01b858585604051602401610a0d939291906121d7565b604051602081830303815290604052907bffffffffffffffffffffffffffffffffffffffffffffffffffffffff19166020820180517bffffffffffffffffffffffffffffffffffffffffffffffffffffffff8381831617835250505050610cb2565b50505050565b610a7d611032565b60008383905003610aa757604051806020016040528062030d4063ffffffff168152509050610b54565b6397a657c960e01b7bffffffffffffffffffffffffffffffffffffffffffffffffffffffff1916838390610adb9190612252565b7bffffffffffffffffffffffffffffffffffffffffffffffffffffffff191614610b31576040517f5247fdce00000000000000000000000000000000000000000000000000000000815260040160405180910390fd5b82826004908092610b44939291906122bb565b810190610b519190612332565b90505b92915050565b6000610b6583610d79565b8015610b775750610b768383610dc6565b5b905092915050565b6000606060008361ffff1667ffffffffffffffff811115610ba357610ba26110af565b5b6040519080825280601f01601f191660200182016040528015610bd55781602001600182028036833780820191505090505b509150863b610c08577f0c3b563c0000000000000000000000000000000000000000000000000000000060005260046000fd5b5a85811015610c3b577fafa32a2c0000000000000000000000000000000000000000000000000000000060005260046000fd5b85810390508660408204820311610c76577f37c3be290000000000000000000000000000000000000000000000000000000060005260046000fd5b5a6000808b5160208d0160008d8df194505a810392503d86811115610c99578690505b808552806000602087013e505050955095509592505050565b6000610d14826040518060400160405280602081526020017f5361666545524332303a206c6f772d6c6576656c2063616c6c206661696c65648152508573ffffffffffffffffffffffffffffffffffffffff16610e659092919063ffffffff16565b9050600081511115610d745780806020019051810190610d34919061238b565b610d73576040517f08c379a0000000000000000000000000000000000000000000000000000000008152600401610d6a9061243b565b60405180910390fd5b5b505050565b6000610da5827f01ffc9a700000000000000000000000000000000000000000000000000000000610dc6565b8015610dbf5750610dbd8263ffffffff60e01b610dc6565b155b9050919050565b60008082604051602401610dda919061246a565b6040516020818303038152906040526301ffc9a760e01b6020820180517bffffffffffffffffffffffffffffffffffffffffffffffffffffffff838183161783525050505090506000806000602060008551602087018a617530fa92503d91506000519050828015610e4d575060208210155b8015610e595750600081115b94505050505092915050565b6060610e748484600085610e7d565b90509392505050565b606082471015610ec2576040517f08c379a0000000000000000000000000000000000000000000000000000000008152600401610eb9906124f7565b60405180910390fd5b6000808673ffffffffffffffffffffffffffffffffffffffff168587604051610eeb9190612553565b60006040518083038185875af1925050503d8060008114610f28576040519150601f19603f3d011682016040523d82523d6000602084013e610f2d565b606091505b5091509150610f3e87838387610f4a565b92505050949350505050565b60608315610fac576000835103610fa457610f6485610fbf565b610fa3576040517f08c379a0000000000000000000000000000000000000000000000000000000008152600401610f9a906125b6565b60405180910390fd5b5b829050610fb7565b610fb68383610fe2565b5b949350505050565b6000808273ffffffffffffffffffffffffffffffffffffffff163b119050919050565b600082511115610ff55781518083602001fd5b806040517f08c379a0000000000000000000000000000000000000000000000000000000008152600401611029919061261a565b60405180910390fd5b6040518060200160405280600081525090565b6000604051905090565b600080fd5b600080fd5b600067ffffffffffffffff82169050919050565b61107681611059565b811461108157600080fd5b50565b6000813590506110938161106d565b92915050565b600080fd5b6000601f19601f8301169050919050565b7f4e487b7100000000000000000000000000000000000000000000000000000000600052604160045260246000fd5b6110e78261109e565b810181811067ffffffffffffffff82111715611106576111056110af565b5b80604052505050565b6000611119611045565b905061112582826110de565b919050565b600080fd5b600080fd5b600080fd5b600067ffffffffffffffff821115611154576111536110af565b5b61115d8261109e565b9050602081019050919050565b82818337600083830152505050565b600061118c61118784611139565b61110f565b9050828152602081018484840111156111a8576111a7611134565b5b6111b384828561116a565b509392505050565b600082601f8301126111d0576111cf61112f565b5b81356111e0848260208601611179565b91505092915050565b600067ffffffffffffffff821115611204576112036110af565b5b602082029050602081019050919050565b600080fd5b600073ffffffffffffffffffffffffffffffffffffffff82169050919050565b60006112458261121a565b9050919050565b6112558161123a565b811461126057600080fd5b50565b6000813590506112728161124c565b92915050565b6000819050919050565b61128b81611278565b811461129657600080fd5b50565b6000813590506112a881611282565b92915050565b6000604082840312156112c4576112c3611099565b5b6112ce604061110f565b905060006112de84828501611263565b60008301525060206112f284828501611299565b60208301525092915050565b600061131161130c846111e9565b61110f565b9050808382526020820190506040840283018581111561133457611333611215565b5b835b8181101561135d578061134988826112ae565b845260208401935050604081019050611336565b5050509392505050565b600082601f83011261137c5761137b61112f565b5b813561138c8482602086016112fe565b91505092915050565b600060a082840312156113ab576113aa611099565b5b6113b560a061110f565b9050600082013567ffffffffffffffff8111156113d5576113d461112a565b5b6113e1848285016111bb565b600083015250602082013567ffffffffffffffff8111156114055761140461112a565b5b611411848285016111bb565b602083015250604082013567ffffffffffffffff8111156114355761143461112a565b5b61144184828501611367565b604083015250606061145584828501611263565b606083015250608082013567ffffffffffffffff8111156114795761147861112a565b5b611485848285016111bb565b60808301525092915050565b600080604083850312156114a8576114a761104f565b5b60006114b685828601611084565b925050602083013567ffffffffffffffff8111156114d7576114d6611054565b5b6114e385828601611395565b9150509250929050565b6114f681611278565b82525050565b600060208201905061151160008301846114ed565b92915050565b600080fd5b600060a0828403121561153257611531611517565b5b81905092915050565b600061ffff82169050919050565b6115528161153b565b811461155d57600080fd5b50565b60008135905061156f81611549565b92915050565b6000806000806080858703121561158f5761158e61104f565b5b600085013567ffffffffffffffff8111156115ad576115ac611054565b5b6115b98782880161151c565b94505060206115ca87828801611560565b93505060406115db87828801611299565b92505060606115ec87828801611263565b91505092959194509250565b60008115159050919050565b61160d816115f8565b82525050565b600081519050919050565b600082825260208201905092915050565b60005b8381101561164d578082015181840152602081019050611632565b60008484015250505050565b600061166482611613565b61166e818561161e565b935061167e81856020860161162f565b6116878161109e565b840191505092915050565b60006060820190506116a76000830186611604565b81810360208301526116b98185611659565b90506116c860408301846114ed565b949350505050565b6000602082840312156116e6576116e561104f565b5b60006116f484828501611299565b91505092915050565b600080604083850312156117145761171361104f565b5b600061172285828601611084565b925050602061173385828601611263565b9150509250929050565b60006020820190506117526000830184611604565b92915050565b600060a0828403121561176e5761176d611517565b5b81905092915050565b6000806040838503121561178e5761178d61104f565b5b600061179c85828601611084565b925050602083013567ffffffffffffffff8111156117bd576117bc611054565b5b6117c985828601611758565b9150509250929050565b6000819050919050565b6117e6816117d3565b82525050565b600060208201905061180160008301846117dd565b92915050565b60006020828403121561181d5761181c61104f565b5b600061182b84828501611084565b91505092915050565b61183d8161123a565b82525050565b60006020820190506118586000830184611834565b92915050565b600063ffffffff82169050919050565b6118778161185e565b82525050565b6000602082019050611892600083018461186e565b92915050565b6118a18161153b565b82525050565b60006020820190506118bc6000830184611898565b92915050565b600081519050919050565b600082825260208201905092915050565b6000819050602082019050919050565b6118f78161123a565b82525050565b600061190983836118ee565b60208301905092915050565b6000602082019050919050565b600061192d826118c2565b61193781856118cd565b9350611942836118de565b8060005b8381101561197357815161195a88826118fd565b975061196583611915565b925050600181019050611946565b5085935050505092915050565b6000602082019050818103600083015261199a8184611922565b905092915050565b6119ab816117d3565b81146119b657600080fd5b50565b6000813590506119c8816119a2565b92915050565b600060a082840312156119e4576119e3611099565b5b6119ee60a061110f565b905060006119fe848285016119b9565b6000830152506020611a1284828501611084565b602083015250604082013567ffffffffffffffff811115611a3657611a3561112a565b5b611a42848285016111bb565b604083015250606082013567ffffffffffffffff811115611a6657611a6561112a565b5b611a72848285016111bb565b606083015250608082013567ffffffffffffffff811115611a9657611a9561112a565b5b611aa284828501611367565b60808301525092915050565b6000611aba36836119ce565b9050919050565b600080fd5b600080fd5b600080fd5b60008083356001602003843603038112611aed57611aec611ac1565b5b80840192508235915067ffffffffffffffff821115611b0f57611b0e611ac6565b5b602083019250600182023603831315611b2b57611b2a611acb565b5b509250929050565b6000611b3f838561161e565b9350611b4c83858461116a565b611b558361109e565b840190509392505050565b60006020820190508181036000830152611b7b818486611b33565b90509392505050565b6000611b903683611395565b9050919050565b600060208284031215611bad57611bac61104f565b5b6000611bbb84828501611263565b91505092915050565b600080fd5b600080fd5b600080fd5b60008083356001602003843603038112611bf057611bef611bce565b5b83810192508235915060208301925067ffffffffffffffff821115611c1857611c17611bc4565b5b600182023603831315611c2e57611c2d611bc9565b5b509250929050565b600082825260208201905092915050565b6000611c538385611c36565b9350611c6083858461116a565b611c698361109e565b840190509392505050565b60008083356001602003843603038112611c9157611c90611bce565b5b83810192508235915060208301925067ffffffffffffffff821115611cb957611cb8611bc4565b5b604082023603831315611ccf57611cce611bc9565b5b509250929050565b600082825260208201905092915050565b6000819050919050565b6000611d016020840184611263565b905092915050565b6000611d186020840184611299565b905092915050565b611d2981611278565b82525050565b60408201611d406000830183611cf2565b611d4d60008501826118ee565b50611d5b6020830183611d09565b611d686020850182611d20565b50505050565b6000611d7a8383611d2f565b60408301905092915050565b600082905092915050565b6000604082019050919050565b6000611daa8385611cd7565b9350611db582611ce8565b8060005b85811015611dee57611dcb8284611d86565b611dd58882611d6e565b9750611de083611d91565b925050600181019050611db9565b5085925050509392505050565b600060a08301611e0e6000840184611bd3565b8583036000870152611e21838284611c47565b92505050611e326020840184611bd3565b8583036020870152611e45838284611c47565b92505050611e566040840184611c74565b8583036040870152611e69838284611d9e565b92505050611e7a6060840184611cf2565b611e8760608601826118ee565b50611e956080840184611bd3565b8583036080870152611ea8838284611c47565b925050508091505092915050565b60006020820190508181036000830152611ed08184611dfb565b905092915050565b60008083356001602003843603038112611ef557611ef4611ac1565b5b80840192508235915067ffffffffffffffff821115611f1757611f16611ac6565b5b602083019250604082023603831315611f3357611f32611acb565b5b509250929050565b600060408284031215611f5157611f5061104f565b5b6000611f5f848285016112ae565b91505092915050565b7f4e487b7100000000000000000000000000000000000000000000000000000000600052603260045260246000fd5b60006020820190508181036000830152611fb18184611659565b905092915050565b611fc2816117d3565b82525050565b611fd181611059565b82525050565b6000611fe282611613565b611fec8185611c36565b9350611ffc81856020860161162f565b6120058161109e565b840191505092915050565b600081519050919050565b6000819050602082019050919050565b60408201600082015161204160008501826118ee565b5060208201516120546020850182611d20565b50505050565b6000612066838361202b565b60408301905092915050565b6000602082019050919050565b600061208a82612010565b6120948185611cd7565b935061209f8361201b565b8060005b838110156120d05781516120b7888261205a565b97506120c283612072565b9250506001810190506120a3565b5085935050505092915050565b600060a0830160008301516120f56000860182611fb9565b5060208301516121086020860182611fc8565b50604083015184820360408601526121208282611fd7565b9150506060830151848203606086015261213a8282611fd7565b91505060808301518482036080860152612154828261207f565b9150508091505092915050565b6000602082019050818103600083015261217b81846120dd565b905092915050565b61218c81611059565b82525050565b60006080820190506121a760008301876117dd565b6121b46020830186612183565b6121c16040830185611834565b6121ce60608301846117dd565b95945050505050565b60006060820190506121ec6000830186611834565b6121f96020830185611834565b61220660408301846114ed565b949350505050565b600082905092915050565b60007fffffffff0000000000000000000000000000000000000000000000000000000082169050919050565b600082821b905092915050565b600061225e838361220e565b826122698135612219565b925060048210156122a9576122a47fffffffff0000000000000000000000000000000000000000000000000000000083600403600802612245565b831692505b505092915050565b600080fd5b600080fd5b600080858511156122cf576122ce6122b1565b5b838611156122e0576122df6122b6565b5b6001850283019150848603905094509492505050565b60006020828403121561230c5761230b611099565b5b612316602061110f565b9050600061232684828501611299565b60008301525092915050565b6000602082840312156123485761234761104f565b5b6000612356848285016122f6565b91505092915050565b612368816115f8565b811461237357600080fd5b50565b6000815190506123858161235f565b92915050565b6000602082840312156123a1576123a061104f565b5b60006123af84828501612376565b91505092915050565b600082825260208201905092915050565b7f5361666545524332303a204552433230206f7065726174696f6e20646964206e60008201527f6f74207375636365656400000000000000000000000000000000000000000000602082015250565b6000612425602a836123b8565b9150612430826123c9565b604082019050919050565b6000602082019050818103600083015261245481612418565b9050919050565b61246481612219565b82525050565b600060208201905061247f600083018461245b565b92915050565b7f416464726573733a20696e73756666696369656e742062616c616e636520666f60008201527f722063616c6c0000000000000000000000000000000000000000000000000000602082015250565b60006124e16026836123b8565b91506124ec82612485565b604082019050919050565b60006020820190508181036000830152612510816124d4565b9050919050565b600081905092915050565b600061252d82611613565b6125378185612517565b935061254781856020860161162f565b80840191505092915050565b600061255f8284612522565b915081905092915050565b7f416464726573733a2063616c6c20746f206e6f6e2d636f6e7472616374000000600082015250565b60006125a0601d836123b8565b91506125ab8261256a565b602082019050919050565b600060208201905081810360008301526125cf81612593565b9050919050565b600081519050919050565b60006125ec826125d6565b6125f681856123b8565b935061260681856020860161162f565b61260f8161109e565b840191505092915050565b6000602082019050818103600083015261263481846125e1565b90509291505056fea2646970667358221220c5710464294b7c2fe40b796cefa5e959a0e90a880f508863d11557629bd0919264736f6c634300081a0033","linkReferences":{}},"methodIdentifiers":{"configuration()":"6c70bee9","getSupportedTokens(uint64)":"fbca3b74","isChainSupported(uint64)":"a48a9058","requestLinkFromFaucet(address,uint256)":"657b9a4e","supportNewTokenViaGetCCIPAdmin(address)":"c250b5f3","supportNewTokenViaOwner(address)":"3eaa8859"},"id":108}