{"abi":[{"type":"constructor","inputs":[],"stateMutability":"nonpayable"},{"type":"function","name":"configuration","inputs":[],"outputs":[{"name":"chainSelector_","type":"uint64","internalType":"uint64"},{"name":"sourceRouter_","type":"address","internalType":"contract IRouterClient"},{"name":"destinationRouter_","type":"address","internalType":"contract IRouterClient"},{"name":"wrappedNative_","type":"address","internalType":"contract WETH9"},{"name":"linkToken_","type":"address","internalType":"contract LinkToken"},{"name":"ccipBnM_","type":"address","internalType":"contract BurnMintERC677Helper"},{"name":"ccipLnM_","type":"address","internalType":"contract BurnMintERC677Helper"}],"stateMutability":"view"},{"type":"function","name":"getSupportedTokens","inputs":[{"name":"chainSelector","type":"uint64","internalType":"uint64"}],"outputs":[{"name":"tokens","type":"address[]","internalType":"address[]"}],"stateMutability":"view"},{"type":"function","name":"isChainSupported","inputs":[{"name":"chainSelector","type":"uint64","internalType":"uint64"}],"outputs":[{"name":"supported","type":"bool","internalType":"bool"}],"stateMutability":"pure"},{"type":"function","name":"requestLinkFromFaucet","inputs":[{"name":"to","type":"address","internalType":"address"},{"name":"amount","type":"uint256","internalType":"uint256"}],"outputs":[{"name":"success","type":"bool","internalType":"bool"}],"stateMutability":"nonpayable"},{"type":"function","name":"supportNewTokenViaGetCCIPAdmin","inputs":[{"name":"tokenAddress","type":"address","internalType":"address"}],"outputs":[],"stateMutability":"nonpayable"},{"type":"function","name":"supportNewTokenViaOwner","inputs":[{"name":"tokenAddress","type":"address","internalType":"address"}],"outputs":[],"stateMutability":"nonpayable"},{"type":"error","name":"CCIPLocalSimulator__MsgSenderIsNotTokenOwner","inputs":[]}],"bytecode":{"object":"0x610120604052348015610010575f80fd5b5060405161001d906102a8565b604051809103905ff080158015610036573d5f803e3d5ffd5b5073ffffffffffffffffffffffffffffffffffffffff1660808173ffffffffffffffffffffffffffffffffffffffff1681525050604051610076906102b5565b604051809103905ff08015801561008f573d5f803e3d5ffd5b5073ffffffffffffffffffffffffffffffffffffffff1660a08173ffffffffffffffffffffffffffffffffffffffff16815250506040516100cf906102c2565b6100d890610336565b604051809103905ff0801580156100f1573d5f803e3d5ffd5b5073ffffffffffffffffffffffffffffffffffffffff1660c08173ffffffffffffffffffffffffffffffffffffffff1681525050604051610131906102c2565b61013a906103b1565b604051809103905ff080158015610153573d5f803e3d5ffd5b5073ffffffffffffffffffffffffffffffffffffffff1660e08173ffffffffffffffffffffffffffffffffffffffff1681525050604051610193906102cf565b604051809103905ff0801580156101ac573d5f803e3d5ffd5b5073ffffffffffffffffffffffffffffffffffffffff166101008173ffffffffffffffffffffffffffffffffffffffff16815250505f60c051908060018154018082558091505060019003905f5260205f20015f9091909190916101000a81548173ffffffffffffffffffffffffffffffffffffffff021916908373ffffffffffffffffffffffffffffffffffffffff1602179055505f60e051908060018154018082558091505060019003905f5260205f20015f9091909190916101000a81548173ffffffffffffffffffffffffffffffffffffffff021916908373ffffffffffffffffffffffffffffffffffffffff1602179055506103e2565b61120180610f7583390190565b611ba98061217683390190565b61367b80613d1f83390190565b61256c8061739a83390190565b5f82825260208201905092915050565b7f434349502d426e4d0000000000000000000000000000000000000000000000005f82015250565b5f6103206008836102dc565b915061032b826102ec565b602082019050919050565b5f6040820190508181035f83015261034d81610314565b9050818103602083015261036081610314565b9050919050565b7f434349502d4c6e4d0000000000000000000000000000000000000000000000005f82015250565b5f61039b6008836102dc565b91506103a682610367565b602082019050919050565b5f6040820190508181035f8301526103c88161038f565b905081810360208301526103db8161038f565b9050919050565b60805160a05160c05160e05161010051610b4861042d5f395f8181610339015261035a01525f6103de01525f6103bd01525f8181610286015261039c01525f61037b0152610b485ff3fe608060405234801561000f575f80fd5b5060043610610060575f3560e01c80633eaa885914610064578063657b9a4e146100805780636c70bee9146100b0578063a48a9058146100d4578063c250b5f314610104578063fbca3b7414610120575b5f80fd5b61007e600480360381019061007991906106b6565b610150565b005b61009a60048036038101906100959190610714565b610283565b6040516100a7919061076c565b60405180910390f35b6100b8610327565b6040516100cb9796959493929190610873565b60405180910390f35b6100ee60048036038101906100e9919061090a565b610414565b6040516100fb919061076c565b60405180910390f35b61011e600480360381019061011991906106b6565b61043b565b005b61013a6004803603810190610135919061090a565b61056e565b60405161014791906109ec565b60405180910390f35b8073ffffffffffffffffffffffffffffffffffffffff16638da5cb5b6040518163ffffffff1660e01b8152600401602060405180830381865afa158015610199573d5f803e3d5ffd5b505050506040513d601f19601f820116820180604052508101906101bd9190610a20565b73ffffffffffffffffffffffffffffffffffffffff163373ffffffffffffffffffffffffffffffffffffffff1614610221576040517f92c4665e00000000000000000000000000000000000000000000000000000000815260040160405180910390fd5b5f81908060018154018082558091505060019003905f5260205f20015f9091909190916101000a81548173ffffffffffffffffffffffffffffffffffffffff021916908373ffffffffffffffffffffffffffffffffffffffff16021790555050565b5f7f000000000000000000000000000000000000000000000000000000000000000073ffffffffffffffffffffffffffffffffffffffff1663a9059cbb84846040518363ffffffff1660e01b81526004016102df929190610a69565b6020604051808303815f875af11580156102fb573d5f803e3d5ffd5b505050506040513d601f19601f8201168201806040525081019061031f9190610aba565b905092915050565b5f805f805f805f67de41ba4fc9d91ad97f00000000000000000000000000000000000000000000000000000000000000007f00000000000000000000000000000000000000000000000000000000000000007f00000000000000000000000000000000000000000000000000000000000000007f00000000000000000000000000000000000000000000000000000000000000007f00000000000000000000000000000000000000000000000000000000000000007f0000000000000000000000000000000000000000000000000000000000000000965096509650965096509650965090919293949596565b5f67de41ba4fc9d91ad967ffffffffffffffff168267ffffffffffffffff16149050919050565b8073ffffffffffffffffffffffffffffffffffffffff16638fd6a6ac6040518163ffffffff1660e01b8152600401602060405180830381865afa158015610484573d5f803e3d5ffd5b505050506040513d601f19601f820116820180604052508101906104a89190610a20565b73ffffffffffffffffffffffffffffffffffffffff163373ffffffffffffffffffffffffffffffffffffffff161461050c576040517f92c4665e00000000000000000000000000000000000000000000000000000000815260040160405180910390fd5b5f81908060018154018082558091505060019003905f5260205f20015f9091909190916101000a81548173ffffffffffffffffffffffffffffffffffffffff021916908373ffffffffffffffffffffffffffffffffffffffff16021790555050565b606061057982610414565b6105cd575f67ffffffffffffffff81111561059757610596610ae5565b5b6040519080825280602002602001820160405280156105c55781602001602082028036833780820191505090505b509050610653565b5f80548060200260200160405190810160405280929190818152602001828054801561064b57602002820191905f5260205f20905b815f9054906101000a900473ffffffffffffffffffffffffffffffffffffffff1673ffffffffffffffffffffffffffffffffffffffff1681526020019060010190808311610602575b505050505090505b919050565b5f80fd5b5f73ffffffffffffffffffffffffffffffffffffffff82169050919050565b5f6106858261065c565b9050919050565b6106958161067b565b811461069f575f80fd5b50565b5f813590506106b08161068c565b92915050565b5f602082840312156106cb576106ca610658565b5b5f6106d8848285016106a2565b91505092915050565b5f819050919050565b6106f3816106e1565b81146106fd575f80fd5b50565b5f8135905061070e816106ea565b92915050565b5f806040838503121561072a57610729610658565b5b5f610737858286016106a2565b925050602061074885828601610700565b9150509250929050565b5f8115159050919050565b61076681610752565b82525050565b5f60208201905061077f5f83018461075d565b92915050565b5f67ffffffffffffffff82169050919050565b6107a181610785565b82525050565b5f819050919050565b5f6107ca6107c56107c08461065c565b6107a7565b61065c565b9050919050565b5f6107db826107b0565b9050919050565b5f6107ec826107d1565b9050919050565b6107fc816107e2565b82525050565b5f61080c826107b0565b9050919050565b5f61081d82610802565b9050919050565b61082d81610813565b82525050565b5f61083d826107d1565b9050919050565b61084d81610833565b82525050565b5f61085d826107d1565b9050919050565b61086d81610853565b82525050565b5f60e0820190506108865f83018a610798565b61089360208301896107f3565b6108a060408301886107f3565b6108ad6060830187610824565b6108ba6080830186610844565b6108c760a0830185610864565b6108d460c0830184610864565b98975050505050505050565b6108e981610785565b81146108f3575f80fd5b50565b5f81359050610904816108e0565b92915050565b5f6020828403121561091f5761091e610658565b5b5f61092c848285016108f6565b91505092915050565b5f81519050919050565b5f82825260208201905092915050565b5f819050602082019050919050565b6109678161067b565b82525050565b5f610978838361095e565b60208301905092915050565b5f602082019050919050565b5f61099a82610935565b6109a4818561093f565b93506109af8361094f565b805f5b838110156109df5781516109c6888261096d565b97506109d183610984565b9250506001810190506109b2565b5085935050505092915050565b5f6020820190508181035f830152610a048184610990565b905092915050565b5f81519050610a1a8161068c565b92915050565b5f60208284031215610a3557610a34610658565b5b5f610a4284828501610a0c565b91505092915050565b610a548161067b565b82525050565b610a63816106e1565b82525050565b5f604082019050610a7c5f830185610a4b565b610a896020830184610a5a565b9392505050565b610a9981610752565b8114610aa3575f80fd5b50565b5f81519050610ab481610a90565b92915050565b5f60208284031215610acf57610ace610658565b5b5f610adc84828501610aa6565b91505092915050565b7f4e487b71000000000000000000000000000000000000000000000000000000005f52604160045260245ffdfea264697066735822122078018d941c14f9250158162e966e057e7cd4034d6202ce0baab6ce05bb2778b164736f6c634300081a003360806040526040518060400160405280600d81526020017f57726170706564204574686572000000000000000000000000000000000000008152505f908161004791906102f3565b506040518060400160405280600481526020017f57455448000000000000000000000000000000000000000000000000000000008152506001908161008c91906102f3565b50601260025f6101000a81548160ff021916908360ff1602179055503480156100b3575f80fd5b506103c2565b5f81519050919050565b7f4e487b71000000000000000000000000000000000000000000000000000000005f52604160045260245ffd5b7f4e487b71000000000000000000000000000000000000000000000000000000005f52602260045260245ffd5b5f600282049050600182168061013457607f821691505b602082108103610147576101466100f0565b5b50919050565b5f819050815f5260205f209050919050565b5f6020601f8301049050919050565b5f82821b905092915050565b5f600883026101a97fffffffffffffffffffffffffffffffffffffffffffffffffffffffffffffffff8261016e565b6101b3868361016e565b95508019841693508086168417925050509392505050565b5f819050919050565b5f819050919050565b5f6101f76101f26101ed846101cb565b6101d4565b6101cb565b9050919050565b5f819050919050565b610210836101dd565b61022461021c826101fe565b84845461017a565b825550505050565b5f90565b61023861022c565b610243818484610207565b505050565b5b818110156102665761025b5f82610230565b600181019050610249565b5050565b601f8211156102ab5761027c8161014d565b6102858461015f565b81016020851015610294578190505b6102a86102a08561015f565b830182610248565b50505b505050565b5f82821c905092915050565b5f6102cb5f19846008026102b0565b1980831691505092915050565b5f6102e383836102bc565b9150826002028217905092915050565b6102fc826100b9565b67ffffffffffffffff811115610315576103146100c3565b5b61031f825461011d565b61032a82828561026a565b5f60209050601f83116001811461035b575f8415610349578287015190505b61035385826102d8565b8655506103ba565b601f1984166103698661014d565b5f5b828110156103905784890151825560018201915060208501945060208101905061036b565b868310156103ad57848901516103a9601f8916826102bc565b8355505b6001600288020188555050505b505050505050565b610e32806103cf5f395ff3fe60806040526004361061009f575f3560e01c8063313ce56711610063578063313ce567146101a657806370a08231146101d057806395d89b411461020c578063a9059cbb14610236578063d0e30db014610272578063dd62ed3e1461027c576100ae565b806306fdde03146100b2578063095ea7b3146100dc57806318160ddd1461011857806323b872dd146101425780632e1a7d4d1461017e576100ae565b366100ae576100ac6102b8565b005b5f80fd5b3480156100bd575f80fd5b506100c661035b565b6040516100d39190610aaa565b60405180910390f35b3480156100e7575f80fd5b5061010260048036038101906100fd9190610b5b565b6103e6565b60405161010f9190610bb3565b60405180910390f35b348015610123575f80fd5b5061012c6104d3565b6040516101399190610bdb565b60405180910390f35b34801561014d575f80fd5b5061016860048036038101906101639190610bf4565b6104da565b6040516101759190610bb3565b60405180910390f35b348015610189575f80fd5b506101a4600480360381019061019f9190610c44565b610818565b005b3480156101b1575f80fd5b506101ba610949565b6040516101c79190610c8a565b60405180910390f35b3480156101db575f80fd5b506101f660048036038101906101f19190610ca3565b61095b565b6040516102039190610bdb565b60405180910390f35b348015610217575f80fd5b50610220610970565b60405161022d9190610aaa565b60405180910390f35b348015610241575f80fd5b5061025c60048036038101906102579190610b5b565b6109fc565b6040516102699190610bb3565b60405180910390f35b61027a610a10565b005b348015610287575f80fd5b506102a2600480360381019061029d9190610cce565b610a1a565b6040516102af9190610bdb565b60405180910390f35b3460035f3373ffffffffffffffffffffffffffffffffffffffff1673ffffffffffffffffffffffffffffffffffffffff1681526020019081526020015f205f8282546103049190610d39565b925050819055503373ffffffffffffffffffffffffffffffffffffffff167fe1fffcc4923d04b559f4d29a8bfc6cda04eb5b0d3c460751c2402c5c5cc9109c346040516103519190610bdb565b60405180910390a2565b5f805461036790610d99565b80601f016020809104026020016040519081016040528092919081815260200182805461039390610d99565b80156103de5780601f106103b5576101008083540402835291602001916103de565b820191905f5260205f20905b8154815290600101906020018083116103c157829003601f168201915b505050505081565b5f8160045f3373ffffffffffffffffffffffffffffffffffffffff1673ffffffffffffffffffffffffffffffffffffffff1681526020019081526020015f205f8573ffffffffffffffffffffffffffffffffffffffff1673ffffffffffffffffffffffffffffffffffffffff1681526020019081526020015f20819055508273ffffffffffffffffffffffffffffffffffffffff163373ffffffffffffffffffffffffffffffffffffffff167f8c5be1e5ebec7d5bd14f71427d1e84f3dd0314c0f7b2291e5b200ac8c7c3b925846040516104c19190610bdb565b60405180910390a36001905092915050565b5f47905090565b5f8160035f8673ffffffffffffffffffffffffffffffffffffffff1673ffffffffffffffffffffffffffffffffffffffff1681526020019081526020015f20541015610524575f80fd5b3373ffffffffffffffffffffffffffffffffffffffff168473ffffffffffffffffffffffffffffffffffffffff16141580156105ea57506fffffffffffffffffffffffffffffffff801660045f8673ffffffffffffffffffffffffffffffffffffffff1673ffffffffffffffffffffffffffffffffffffffff1681526020019081526020015f205f3373ffffffffffffffffffffffffffffffffffffffff1673ffffffffffffffffffffffffffffffffffffffff1681526020019081526020015f205414155b15610702578160045f8673ffffffffffffffffffffffffffffffffffffffff1673ffffffffffffffffffffffffffffffffffffffff1681526020019081526020015f205f3373ffffffffffffffffffffffffffffffffffffffff1673ffffffffffffffffffffffffffffffffffffffff1681526020019081526020015f20541015610673575f80fd5b8160045f8673ffffffffffffffffffffffffffffffffffffffff1673ffffffffffffffffffffffffffffffffffffffff1681526020019081526020015f205f3373ffffffffffffffffffffffffffffffffffffffff1673ffffffffffffffffffffffffffffffffffffffff1681526020019081526020015f205f8282546106fa9190610dc9565b925050819055505b8160035f8673ffffffffffffffffffffffffffffffffffffffff1673ffffffffffffffffffffffffffffffffffffffff1681526020019081526020015f205f82825461074e9190610dc9565b925050819055508160035f8573ffffffffffffffffffffffffffffffffffffffff1673ffffffffffffffffffffffffffffffffffffffff1681526020019081526020015f205f8282546107a19190610d39565b925050819055508273ffffffffffffffffffffffffffffffffffffffff168473ffffffffffffffffffffffffffffffffffffffff167fddf252ad1be2c89b69c2b068fc378daa952ba7f163c4a11628f55a4df523b3ef846040516108059190610bdb565b60405180910390a3600190509392505050565b8060035f3373ffffffffffffffffffffffffffffffffffffffff1673ffffffffffffffffffffffffffffffffffffffff1681526020019081526020015f20541015610861575f80fd5b8060035f3373ffffffffffffffffffffffffffffffffffffffff1673ffffffffffffffffffffffffffffffffffffffff1681526020019081526020015f205f8282546108ad9190610dc9565b925050819055503373ffffffffffffffffffffffffffffffffffffffff166108fc8290811502906040515f60405180830381858888f193505050501580156108f7573d5f803e3d5ffd5b503373ffffffffffffffffffffffffffffffffffffffff167f7fcf532c15f0a6db0bd6d0e038bea71d30d808c7d98cb3bf7268a95bf5081b658260405161093e9190610bdb565b60405180910390a250565b60025f9054906101000a900460ff1681565b6003602052805f5260405f205f915090505481565b6001805461097d90610d99565b80601f01602080910402602001604051908101604052809291908181526020018280546109a990610d99565b80156109f45780601f106109cb576101008083540402835291602001916109f4565b820191905f5260205f20905b8154815290600101906020018083116109d757829003601f168201915b505050505081565b5f610a083384846104da565b905092915050565b610a186102b8565b565b6004602052815f5260405f20602052805f5260405f205f91509150505481565b5f81519050919050565b5f82825260208201905092915050565b8281835e5f83830152505050565b5f601f19601f8301169050919050565b5f610a7c82610a3a565b610a868185610a44565b9350610a96818560208601610a54565b610a9f81610a62565b840191505092915050565b5f6020820190508181035f830152610ac28184610a72565b905092915050565b5f80fd5b5f73ffffffffffffffffffffffffffffffffffffffff82169050919050565b5f610af782610ace565b9050919050565b610b0781610aed565b8114610b11575f80fd5b50565b5f81359050610b2281610afe565b92915050565b5f819050919050565b610b3a81610b28565b8114610b44575f80fd5b50565b5f81359050610b5581610b31565b92915050565b5f8060408385031215610b7157610b70610aca565b5b5f610b7e85828601610b14565b9250506020610b8f85828601610b47565b9150509250929050565b5f8115159050919050565b610bad81610b99565b82525050565b5f602082019050610bc65f830184610ba4565b92915050565b610bd581610b28565b82525050565b5f602082019050610bee5f830184610bcc565b92915050565b5f805f60608486031215610c0b57610c0a610aca565b5b5f610c1886828701610b14565b9350506020610c2986828701610b14565b9250506040610c3a86828701610b47565b9150509250925092565b5f60208284031215610c5957610c58610aca565b5b5f610c6684828501610b47565b91505092915050565b5f60ff82169050919050565b610c8481610c6f565b82525050565b5f602082019050610c9d5f830184610c7b565b92915050565b5f60208284031215610cb857610cb7610aca565b5b5f610cc584828501610b14565b91505092915050565b5f8060408385031215610ce457610ce3610aca565b5b5f610cf185828601610b14565b9250506020610d0285828601610b14565b9150509250929050565b7f4e487b71000000000000000000000000000000000000000000000000000000005f52601160045260245ffd5b5f610d4382610b28565b9150610d4e83610b28565b9250828201905080821115610d6657610d65610d0c565b5b92915050565b7f4e487b71000000000000000000000000000000000000000000000000000000005f52602260045260245ffd5b5f6002820490506001821680610db057607f821691505b602082108103610dc357610dc2610d6c565b5b50919050565b5f610dd382610b28565b9150610dde83610b28565b9250828203905081811115610df657610df5610d0c565b5b9291505056fea264697066735822122079e28b1a86ca3aef99dca782f0067df26f9314e4a93c3aff26590968e3d024ea64736f6c634300081a0033608060405234801561000f575f80fd5b506040518060400160405280600f81526020017f436861696e4c696e6b20546f6b656e00000000000000000000000000000000008152506040518060400160405280600481526020017f4c494e4b000000000000000000000000000000000000000000000000000000008152508181816003908161008d9190610471565b50806004908161009d9190610471565b50505050506100b06100b560201b60201c565b610640565b6100d1336b033b2e3c9fd0803ce80000006100d360201b60201c565b565b5f73ffffffffffffffffffffffffffffffffffffffff168273ffffffffffffffffffffffffffffffffffffffff1603610141576040517f08c379a00000000000000000000000000000000000000000000000000000000081526004016101389061059a565b60405180910390fd5b6101525f838361022d60201b60201c565b8060025f82825461016391906105e5565b92505081905550805f808473ffffffffffffffffffffffffffffffffffffffff1673ffffffffffffffffffffffffffffffffffffffff1681526020019081526020015f205f82825401925050819055508173ffffffffffffffffffffffffffffffffffffffff165f73ffffffffffffffffffffffffffffffffffffffff167fddf252ad1be2c89b69c2b068fc378daa952ba7f163c4a11628f55a4df523b3ef836040516102109190610627565b60405180910390a36102295f838361023260201b60201c565b5050565b505050565b505050565b5f81519050919050565b7f4e487b71000000000000000000000000000000000000000000000000000000005f52604160045260245ffd5b7f4e487b71000000000000000000000000000000000000000000000000000000005f52602260045260245ffd5b5f60028204905060018216806102b257607f821691505b6020821081036102c5576102c461026e565b5b50919050565b5f819050815f5260205f209050919050565b5f6020601f8301049050919050565b5f82821b905092915050565b5f600883026103277fffffffffffffffffffffffffffffffffffffffffffffffffffffffffffffffff826102ec565b61033186836102ec565b95508019841693508086168417925050509392505050565b5f819050919050565b5f819050919050565b5f61037561037061036b84610349565b610352565b610349565b9050919050565b5f819050919050565b61038e8361035b565b6103a261039a8261037c565b8484546102f8565b825550505050565b5f90565b6103b66103aa565b6103c1818484610385565b505050565b5b818110156103e4576103d95f826103ae565b6001810190506103c7565b5050565b601f821115610429576103fa816102cb565b610403846102dd565b81016020851015610412578190505b61042661041e856102dd565b8301826103c6565b50505b505050565b5f82821c905092915050565b5f6104495f198460080261042e565b1980831691505092915050565b5f610461838361043a565b9150826002028217905092915050565b61047a82610237565b67ffffffffffffffff81111561049357610492610241565b5b61049d825461029b565b6104a88282856103e8565b5f60209050601f8311600181146104d9575f84156104c7578287015190505b6104d18582610456565b865550610538565b601f1984166104e7866102cb565b5f5b8281101561050e578489015182556001820191506020850194506020810190506104e9565b8683101561052b5784890151610527601f89168261043a565b8355505b6001600288020188555050505b505050505050565b5f82825260208201905092915050565b7f45524332303a206d696e7420746f20746865207a65726f2061646472657373005f82015250565b5f610584601f83610540565b915061058f82610550565b602082019050919050565b5f6020820190508181035f8301526105b181610578565b9050919050565b7f4e487b71000000000000000000000000000000000000000000000000000000005f52601160045260245ffd5b5f6105ef82610349565b91506105fa83610349565b9250828201905080821115610612576106116105b8565b5b92915050565b61062181610349565b82525050565b5f60208201905061063a5f830184610618565b92915050565b61155c8061064d5f395ff3fe608060405234801561000f575f80fd5b50600436106100b2575f3560e01c80634000aea01161006f5780634000aea0146101a057806370a08231146101d057806395d89b4114610200578063a457c2d71461021e578063a9059cbb1461024e578063dd62ed3e1461027e576100b2565b806306fdde03146100b6578063095ea7b3146100d457806318160ddd1461010457806323b872dd14610122578063313ce567146101525780633950935114610170575b5f80fd5b6100be6102ae565b6040516100cb9190610c06565b60405180910390f35b6100ee60048036038101906100e99190610cc4565b61033e565b6040516100fb9190610d1c565b60405180910390f35b61010c610360565b6040516101199190610d44565b60405180910390f35b61013c60048036038101906101379190610d5d565b610369565b6040516101499190610d1c565b60405180910390f35b61015a610397565b6040516101679190610dc8565b60405180910390f35b61018a60048036038101906101859190610cc4565b61039f565b6040516101979190610d1c565b60405180910390f35b6101ba60048036038101906101b59190610f0d565b6103d5565b6040516101c79190610d1c565b60405180910390f35b6101ea60048036038101906101e59190610f79565b6104dd565b6040516101f79190610d44565b60405180910390f35b610208610522565b6040516102159190610c06565b60405180910390f35b61023860048036038101906102339190610cc4565b6105b2565b6040516102459190610d1c565b60405180910390f35b61026860048036038101906102639190610cc4565b610627565b6040516102759190610d1c565b60405180910390f35b61029860048036038101906102939190610fa4565b610649565b6040516102a59190610d44565b60405180910390f35b6060600380546102bd9061100f565b80601f01602080910402602001604051908101604052809291908181526020018280546102e99061100f565b80156103345780601f1061030b57610100808354040283529160200191610334565b820191905f5260205f20905b81548152906001019060200180831161031757829003601f168201915b5050505050905090565b5f806103486106cb565b90506103558185856106d2565b600191505092915050565b5f600254905090565b5f806103736106cb565b9050610380858285610895565b61038b858585610920565b60019150509392505050565b5f6012905090565b5f806103a96106cb565b90506103ca8185856103bb8589610649565b6103c5919061106c565b6106d2565b600191505092915050565b5f6103e08484610627565b508373ffffffffffffffffffffffffffffffffffffffff163373ffffffffffffffffffffffffffffffffffffffff167fe19260aff97b920c7df27010903aeb9c8d2be5d310a2c67824cf3f15396e4c1685856040516104409291906110f1565b60405180910390a35f8473ffffffffffffffffffffffffffffffffffffffff163b11156104d2578373ffffffffffffffffffffffffffffffffffffffff1663a4c0ed363385856040518463ffffffff1660e01b81526004016104a49392919061112e565b5f604051808303815f87803b1580156104bb575f80fd5b505af11580156104cd573d5f803e3d5ffd5b505050505b600190509392505050565b5f805f8373ffffffffffffffffffffffffffffffffffffffff1673ffffffffffffffffffffffffffffffffffffffff1681526020019081526020015f20549050919050565b6060600480546105319061100f565b80601f016020809104026020016040519081016040528092919081815260200182805461055d9061100f565b80156105a85780601f1061057f576101008083540402835291602001916105a8565b820191905f5260205f20905b81548152906001019060200180831161058b57829003601f168201915b5050505050905090565b5f806105bc6106cb565b90505f6105c98286610649565b90508381101561060e576040517f08c379a0000000000000000000000000000000000000000000000000000000008152600401610605906111da565b60405180910390fd5b61061b82868684036106d2565b60019250505092915050565b5f806106316106cb565b905061063e818585610920565b600191505092915050565b5f60015f8473ffffffffffffffffffffffffffffffffffffffff1673ffffffffffffffffffffffffffffffffffffffff1681526020019081526020015f205f8373ffffffffffffffffffffffffffffffffffffffff1673ffffffffffffffffffffffffffffffffffffffff1681526020019081526020015f2054905092915050565b5f33905090565b5f73ffffffffffffffffffffffffffffffffffffffff168373ffffffffffffffffffffffffffffffffffffffff1603610740576040517f08c379a000000000000000000000000000000000000000000000000000000000815260040161073790611268565b60405180910390fd5b5f73ffffffffffffffffffffffffffffffffffffffff168273ffffffffffffffffffffffffffffffffffffffff16036107ae576040517f08c379a00000000000000000000000000000000000000000000000000000000081526004016107a5906112f6565b60405180910390fd5b8060015f8573ffffffffffffffffffffffffffffffffffffffff1673ffffffffffffffffffffffffffffffffffffffff1681526020019081526020015f205f8473ffffffffffffffffffffffffffffffffffffffff1673ffffffffffffffffffffffffffffffffffffffff1681526020019081526020015f20819055508173ffffffffffffffffffffffffffffffffffffffff168373ffffffffffffffffffffffffffffffffffffffff167f8c5be1e5ebec7d5bd14f71427d1e84f3dd0314c0f7b2291e5b200ac8c7c3b925836040516108889190610d44565b60405180910390a3505050565b5f6108a08484610649565b90507fffffffffffffffffffffffffffffffffffffffffffffffffffffffffffffffff811461091a578181101561090c576040517f08c379a00000000000000000000000000000000000000000000000000000000081526004016109039061135e565b60405180910390fd5b61091984848484036106d2565b5b50505050565b5f73ffffffffffffffffffffffffffffffffffffffff168373ffffffffffffffffffffffffffffffffffffffff160361098e576040517f08c379a0000000000000000000000000000000000000000000000000000000008152600401610985906113ec565b60405180910390fd5b5f73ffffffffffffffffffffffffffffffffffffffff168273ffffffffffffffffffffffffffffffffffffffff16036109fc576040517f08c379a00000000000000000000000000000000000000000000000000000000081526004016109f39061147a565b60405180910390fd5b610a07838383610b8c565b5f805f8573ffffffffffffffffffffffffffffffffffffffff1673ffffffffffffffffffffffffffffffffffffffff1681526020019081526020015f2054905081811015610a8a576040517f08c379a0000000000000000000000000000000000000000000000000000000008152600401610a8190611508565b60405180910390fd5b8181035f808673ffffffffffffffffffffffffffffffffffffffff1673ffffffffffffffffffffffffffffffffffffffff1681526020019081526020015f2081905550815f808573ffffffffffffffffffffffffffffffffffffffff1673ffffffffffffffffffffffffffffffffffffffff1681526020019081526020015f205f82825401925050819055508273ffffffffffffffffffffffffffffffffffffffff168473ffffffffffffffffffffffffffffffffffffffff167fddf252ad1be2c89b69c2b068fc378daa952ba7f163c4a11628f55a4df523b3ef84604051610b739190610d44565b60405180910390a3610b86848484610b91565b50505050565b505050565b505050565b5f81519050919050565b5f82825260208201905092915050565b8281835e5f83830152505050565b5f601f19601f8301169050919050565b5f610bd882610b96565b610be28185610ba0565b9350610bf2818560208601610bb0565b610bfb81610bbe565b840191505092915050565b5f6020820190508181035f830152610c1e8184610bce565b905092915050565b5f604051905090565b5f80fd5b5f80fd5b5f73ffffffffffffffffffffffffffffffffffffffff82169050919050565b5f610c6082610c37565b9050919050565b610c7081610c56565b8114610c7a575f80fd5b50565b5f81359050610c8b81610c67565b92915050565b5f819050919050565b610ca381610c91565b8114610cad575f80fd5b50565b5f81359050610cbe81610c9a565b92915050565b5f8060408385031215610cda57610cd9610c2f565b5b5f610ce785828601610c7d565b9250506020610cf885828601610cb0565b9150509250929050565b5f8115159050919050565b610d1681610d02565b82525050565b5f602082019050610d2f5f830184610d0d565b92915050565b610d3e81610c91565b82525050565b5f602082019050610d575f830184610d35565b92915050565b5f805f60608486031215610d7457610d73610c2f565b5b5f610d8186828701610c7d565b9350506020610d9286828701610c7d565b9250506040610da386828701610cb0565b9150509250925092565b5f60ff82169050919050565b610dc281610dad565b82525050565b5f602082019050610ddb5f830184610db9565b92915050565b5f80fd5b5f80fd5b7f4e487b71000000000000000000000000000000000000000000000000000000005f52604160045260245ffd5b610e1f82610bbe565b810181811067ffffffffffffffff82111715610e3e57610e3d610de9565b5b80604052505050565b5f610e50610c26565b9050610e5c8282610e16565b919050565b5f67ffffffffffffffff821115610e7b57610e7a610de9565b5b610e8482610bbe565b9050602081019050919050565b828183375f83830152505050565b5f610eb1610eac84610e61565b610e47565b905082815260208101848484011115610ecd57610ecc610de5565b5b610ed8848285610e91565b509392505050565b5f82601f830112610ef457610ef3610de1565b5b8135610f04848260208601610e9f565b91505092915050565b5f805f60608486031215610f2457610f23610c2f565b5b5f610f3186828701610c7d565b9350506020610f4286828701610cb0565b925050604084013567ffffffffffffffff811115610f6357610f62610c33565b5b610f6f86828701610ee0565b9150509250925092565b5f60208284031215610f8e57610f8d610c2f565b5b5f610f9b84828501610c7d565b91505092915050565b5f8060408385031215610fba57610fb9610c2f565b5b5f610fc785828601610c7d565b9250506020610fd885828601610c7d565b9150509250929050565b7f4e487b71000000000000000000000000000000000000000000000000000000005f52602260045260245ffd5b5f600282049050600182168061102657607f821691505b60208210810361103957611038610fe2565b5b50919050565b7f4e487b71000000000000000000000000000000000000000000000000000000005f52601160045260245ffd5b5f61107682610c91565b915061108183610c91565b92508282019050808211156110995761109861103f565b5b92915050565b5f81519050919050565b5f82825260208201905092915050565b5f6110c38261109f565b6110cd81856110a9565b93506110dd818560208601610bb0565b6110e681610bbe565b840191505092915050565b5f6040820190506111045f830185610d35565b818103602083015261111681846110b9565b90509392505050565b61112881610c56565b82525050565b5f6060820190506111415f83018661111f565b61114e6020830185610d35565b818103604083015261116081846110b9565b9050949350505050565b7f45524332303a2064656372656173656420616c6c6f77616e63652062656c6f775f8201527f207a65726f000000000000000000000000000000000000000000000000000000602082015250565b5f6111c4602583610ba0565b91506111cf8261116a565b604082019050919050565b5f6020820190508181035f8301526111f1816111b8565b9050919050565b7f45524332303a20617070726f76652066726f6d20746865207a65726f206164645f8201527f7265737300000000000000000000000000000000000000000000000000000000602082015250565b5f611252602483610ba0565b915061125d826111f8565b604082019050919050565b5f6020820190508181035f83015261127f81611246565b9050919050565b7f45524332303a20617070726f766520746f20746865207a65726f2061646472655f8201527f7373000000000000000000000000000000000000000000000000000000000000602082015250565b5f6112e0602283610ba0565b91506112eb82611286565b604082019050919050565b5f6020820190508181035f83015261130d816112d4565b9050919050565b7f45524332303a20696e73756666696369656e7420616c6c6f77616e63650000005f82015250565b5f611348601d83610ba0565b915061135382611314565b602082019050919050565b5f6020820190508181035f8301526113758161133c565b9050919050565b7f45524332303a207472616e736665722066726f6d20746865207a65726f2061645f8201527f6472657373000000000000000000000000000000000000000000000000000000602082015250565b5f6113d6602583610ba0565b91506113e18261137c565b604082019050919050565b5f6020820190508181035f830152611403816113ca565b9050919050565b7f45524332303a207472616e7366657220746f20746865207a65726f20616464725f8201527f6573730000000000000000000000000000000000000000000000000000000000602082015250565b5f611464602383610ba0565b915061146f8261140a565b604082019050919050565b5f6020820190508181035f83015261149181611458565b9050919050565b7f45524332303a207472616e7366657220616d6f756e74206578636565647320625f8201527f616c616e63650000000000000000000000000000000000000000000000000000602082015250565b5f6114f2602683610ba0565b91506114fd82611498565b604082019050919050565b5f6020820190508181035f83015261151f816114e6565b905091905056fea2646970667358221220ebdd94408bebac981faeba74c835dd2501a1a0fb54eaef860910f6d9281558c964736f6c634300081a003360c060405234801561000f575f80fd5b5060405161367b38038061367b833981810160405281019061003191906103ef565b818160125f33805f86868181816003908161004c9190610672565b50806004908161005c9190610672565b50505050505f73ffffffffffffffffffffffffffffffffffffffff168273ffffffffffffffffffffffffffffffffffffffff16036100cf576040517f08c379a00000000000000000000000000000000000000000000000000000000081526004016100c69061079b565b60405180910390fd5b8160055f6101000a81548173ffffffffffffffffffffffffffffffffffffffff021916908373ffffffffffffffffffffffffffffffffffffffff1602179055505f73ffffffffffffffffffffffffffffffffffffffff168173ffffffffffffffffffffffffffffffffffffffff1614610152576101518161017660201b60201c565b5b5050508160ff1660808160ff16815250508060a08181525050505050505050610821565b3373ffffffffffffffffffffffffffffffffffffffff168173ffffffffffffffffffffffffffffffffffffffff16036101e4576040517f08c379a00000000000000000000000000000000000000000000000000000000081526004016101db90610803565b60405180910390fd5b8060065f6101000a81548173ffffffffffffffffffffffffffffffffffffffff021916908373ffffffffffffffffffffffffffffffffffffffff1602179055508073ffffffffffffffffffffffffffffffffffffffff1660055f9054906101000a900473ffffffffffffffffffffffffffffffffffffffff1673ffffffffffffffffffffffffffffffffffffffff167fed8889f560326eb138920d842192f0eb3dd22b4f139c87a2c57538e05bae127860405160405180910390a350565b5f604051905090565b5f80fd5b5f80fd5b5f80fd5b5f80fd5b5f601f19601f8301169050919050565b7f4e487b71000000000000000000000000000000000000000000000000000000005f52604160045260245ffd5b610301826102bb565b810181811067ffffffffffffffff821117156103205761031f6102cb565b5b80604052505050565b5f6103326102a2565b905061033e82826102f8565b919050565b5f67ffffffffffffffff82111561035d5761035c6102cb565b5b610366826102bb565b9050602081019050919050565b8281835e5f83830152505050565b5f61039361038e84610343565b610329565b9050828152602081018484840111156103af576103ae6102b7565b5b6103ba848285610373565b509392505050565b5f82601f8301126103d6576103d56102b3565b5b81516103e6848260208601610381565b91505092915050565b5f8060408385031215610405576104046102ab565b5b5f83015167ffffffffffffffff811115610422576104216102af565b5b61042e858286016103c2565b925050602083015167ffffffffffffffff81111561044f5761044e6102af565b5b61045b858286016103c2565b9150509250929050565b5f81519050919050565b7f4e487b71000000000000000000000000000000000000000000000000000000005f52602260045260245ffd5b5f60028204905060018216806104b357607f821691505b6020821081036104c6576104c561046f565b5b50919050565b5f819050815f5260205f209050919050565b5f6020601f8301049050919050565b5f82821b905092915050565b5f600883026105287fffffffffffffffffffffffffffffffffffffffffffffffffffffffffffffffff826104ed565b61053286836104ed565b95508019841693508086168417925050509392505050565b5f819050919050565b5f819050919050565b5f61057661057161056c8461054a565b610553565b61054a565b9050919050565b5f819050919050565b61058f8361055c565b6105a361059b8261057d565b8484546104f9565b825550505050565b5f90565b6105b76105ab565b6105c2818484610586565b505050565b5b818110156105e5576105da5f826105af565b6001810190506105c8565b5050565b601f82111561062a576105fb816104cc565b610604846104de565b81016020851015610613578190505b61062761061f856104de565b8301826105c7565b50505b505050565b5f82821c905092915050565b5f61064a5f198460080261062f565b1980831691505092915050565b5f610662838361063b565b9150826002028217905092915050565b61067b82610465565b67ffffffffffffffff811115610694576106936102cb565b5b61069e825461049c565b6106a98282856105e9565b5f60209050601f8311600181146106da575f84156106c8578287015190505b6106d28582610657565b865550610739565b601f1984166106e8866104cc565b5f5b8281101561070f578489015182556001820191506020850194506020810190506106ea565b8683101561072c5784890151610728601f89168261063b565b8355505b6001600288020188555050505b505050505050565b5f82825260208201905092915050565b7f43616e6e6f7420736574206f776e657220746f207a65726f00000000000000005f82015250565b5f610785601883610741565b915061079082610751565b602082019050919050565b5f6020820190508181035f8301526107b281610779565b9050919050565b7f43616e6e6f74207472616e7366657220746f2073656c660000000000000000005f82015250565b5f6107ed601783610741565b91506107f8826107b9565b602082019050919050565b5f6020820190508181035f83015261081a816107e1565b9050919050565b60805160a051612e2b6108505f395f8181610afb01528181610b25015261116f01525f6109140152612e2b5ff3fe608060405234801561000f575f80fd5b50600436106101f9575f3560e01c806379ba509711610118578063aa271e1a116100ab578063d5abeb011161007a578063d5abeb01146105e5578063d73dd62314610603578063dd62ed3e1461061f578063f2fde38b1461064f578063f81094f31461066b576101f9565b8063aa271e1a14610561578063c2e3273d14610591578063c630948d146105ad578063c64d0ebc146105c9576101f9565b806395d89b41116100e757806395d89b41146104c75780639dc29fac146104e5578063a457c2d714610501578063a9059cbb14610531576101f9565b806379ba50971461046557806379cc67901461046f57806386fe8b431461048b5780638da5cb5b146104a9576101f9565b806340c10f1911610190578063661884631161015f57806366188463146103cb57806367a5cd06146103fb5780636b32810b1461041757806370a0823114610435576101f9565b806340c10f191461034757806342966c68146103635780634334614a1461037f5780634f5632f8146103af576101f9565b806323b872dd116101cc57806323b872dd14610299578063313ce567146102c957806339509351146102e75780634000aea014610317576101f9565b806301ffc9a7146101fd57806306fdde031461022d578063095ea7b31461024b57806318160ddd1461027b575b5f80fd5b61021760048036038101906102129190611fe7565b610687565b604051610224919061202c565b60405180910390f35b610235610828565b60405161024291906120b5565b60405180910390f35b61026560048036038101906102609190612162565b6108b8565b604051610272919061202c565b60405180910390f35b6102836108da565b60405161029091906121af565b60405180910390f35b6102b360048036038101906102ae91906121c8565b6108e3565b6040516102c0919061202c565b60405180910390f35b6102d1610911565b6040516102de9190612233565b60405180910390f35b61030160048036038101906102fc9190612162565b610938565b60405161030e919061202c565b60405180910390f35b610331600480360381019061032c9190612378565b61096e565b60405161033e919061202c565b60405180910390f35b610361600480360381019061035c9190612162565b610a76565b005b61037d600480360381019061037891906123e4565b610bbc565b005b6103996004803603810190610394919061240f565b610c12565b6040516103a6919061202c565b60405180910390f35b6103c960048036038101906103c4919061240f565b610c2e565b005b6103e560048036038101906103e09190612162565b610c96565b6040516103f2919061202c565b60405180910390f35b6104156004803603810190610410919061240f565b610ca9565b005b61041f610cbe565b60405161042c91906124f1565b60405180910390f35b61044f600480360381019061044a919061240f565b610ccf565b60405161045c91906121af565b60405180910390f35b61046d610d14565b005b61048960048036038101906104849190612162565b610ea5565b005b610493610efd565b6040516104a091906124f1565b60405180910390f35b6104b1610f0e565b6040516104be9190612520565b60405180910390f35b6104cf610f36565b6040516104dc91906120b5565b60405180910390f35b6104ff60048036038101906104fa9190612162565b610fc6565b005b61051b60048036038101906105169190612162565b610fd4565b604051610528919061202c565b60405180910390f35b61054b60048036038101906105469190612162565b611049565b604051610558919061202c565b60405180910390f35b61057b6004803603810190610576919061240f565b61106b565b604051610588919061202c565b60405180910390f35b6105ab60048036038101906105a6919061240f565b611087565b005b6105c760048036038101906105c2919061240f565b6110ef565b005b6105e360048036038101906105de919061240f565b611104565b005b6105ed61116c565b6040516105fa91906121af565b60405180910390f35b61061d60048036038101906106189190612162565b611193565b005b61063960048036038101906106349190612539565b6111a2565b60405161064691906121af565b60405180910390f35b6106696004803603810190610664919061240f565b611224565b005b6106856004803603810190610680919061240f565b611238565b005b5f7f36372b07000000000000000000000000000000000000000000000000000000007bffffffffffffffffffffffffffffffffffffffffffffffffffffffff1916827bffffffffffffffffffffffffffffffffffffffffffffffffffffffff1916148061075157507f4000aea0000000000000000000000000000000000000000000000000000000007bffffffffffffffffffffffffffffffffffffffffffffffffffffffff1916827bffffffffffffffffffffffffffffffffffffffffffffffffffffffff1916145b806107b957507fe6599b4d000000000000000000000000000000000000000000000000000000007bffffffffffffffffffffffffffffffffffffffffffffffffffffffff1916827bffffffffffffffffffffffffffffffffffffffffffffffffffffffff1916145b8061082157507f01ffc9a7000000000000000000000000000000000000000000000000000000007bffffffffffffffffffffffffffffffffffffffffffffffffffffffff1916827bffffffffffffffffffffffffffffffffffffffffffffffffffffffff1916145b9050919050565b606060038054610837906125a4565b80601f0160208091040260200160405190810160405280929190818152602001828054610863906125a4565b80156108ae5780601f10610885576101008083540402835291602001916108ae565b820191905f5260205f20905b81548152906001019060200180831161089157829003601f168201915b5050505050905090565b5f806108c26112a0565b90506108cf8185856112a7565b600191505092915050565b5f600254905090565b5f806108ed6112a0565b90506108fa8582856112f0565b61090585858561137b565b60019150509392505050565b5f7f0000000000000000000000000000000000000000000000000000000000000000905090565b5f806109426112a0565b905061096381858561095485896111a2565b61095e9190612601565b6112a7565b600191505092915050565b5f6109798484611049565b508373ffffffffffffffffffffffffffffffffffffffff163373ffffffffffffffffffffffffffffffffffffffff167fe19260aff97b920c7df27010903aeb9c8d2be5d310a2c67824cf3f15396e4c1685856040516109d9929190612686565b60405180910390a35f8473ffffffffffffffffffffffffffffffffffffffff163b1115610a6b578373ffffffffffffffffffffffffffffffffffffffff1663a4c0ed363385856040518463ffffffff1660e01b8152600401610a3d939291906126b4565b5f604051808303815f87803b158015610a54575f80fd5b505af1158015610a66573d5f803e3d5ffd5b505050505b600190509392505050565b610a7f3361106b565b610ac057336040517fe2c8c9d5000000000000000000000000000000000000000000000000000000008152600401610ab79190612520565b60405180910390fd5b813073ffffffffffffffffffffffffffffffffffffffff168173ffffffffffffffffffffffffffffffffffffffff1603610af8575f80fd5b5f7f000000000000000000000000000000000000000000000000000000000000000014158015610b5957507f000000000000000000000000000000000000000000000000000000000000000082610b4d6108da565b610b579190612601565b115b15610bad5781610b676108da565b610b719190612601565b6040517fcbbf1113000000000000000000000000000000000000000000000000000000008152600401610ba491906121af565b60405180910390fd5b610bb783836113c4565b505050565b610bc533610c12565b610c0657336040517fc820b10b000000000000000000000000000000000000000000000000000000008152600401610bfd9190612520565b60405180910390fd5b610c0f81611512565b50565b5f610c2782600961152690919063ffffffff16565b9050919050565b610c36611553565b610c4a8160096115e490919063ffffffff16565b15610c93578073ffffffffffffffffffffffffffffffffffffffff167f0a675452746933cefe3d74182e78db7afe57ba60eaa4234b5d85e9aa41b0610c60405160405180910390a25b50565b5f610ca18383610fd4565b905092915050565b610cbb81670de0b6b3a76400006113c4565b50565b6060610cca6007611611565b905090565b5f805f8373ffffffffffffffffffffffffffffffffffffffff1673ffffffffffffffffffffffffffffffffffffffff1681526020019081526020015f20549050919050565b60065f9054906101000a900473ffffffffffffffffffffffffffffffffffffffff1673ffffffffffffffffffffffffffffffffffffffff163373ffffffffffffffffffffffffffffffffffffffff1614610da3576040517f08c379a0000000000000000000000000000000000000000000000000000000008152600401610d9a9061273a565b60405180910390fd5b5f60055f9054906101000a900473ffffffffffffffffffffffffffffffffffffffff1690503360055f6101000a81548173ffffffffffffffffffffffffffffffffffffffff021916908373ffffffffffffffffffffffffffffffffffffffff1602179055505f60065f6101000a81548173ffffffffffffffffffffffffffffffffffffffff021916908373ffffffffffffffffffffffffffffffffffffffff1602179055503373ffffffffffffffffffffffffffffffffffffffff168173ffffffffffffffffffffffffffffffffffffffff167f8be0079c531659141344cd1fd0a4f28419497f9722a3daafe3b4186f6b6457e060405160405180910390a350565b610eae33610c12565b610eef57336040517fc820b10b000000000000000000000000000000000000000000000000000000008152600401610ee69190612520565b60405180910390fd5b610ef98282611630565b5050565b6060610f096009611611565b905090565b5f60055f9054906101000a900473ffffffffffffffffffffffffffffffffffffffff16905090565b606060048054610f45906125a4565b80601f0160208091040260200160405190810160405280929190818152602001828054610f71906125a4565b8015610fbc5780601f10610f9357610100808354040283529160200191610fbc565b820191905f5260205f20905b815481529060010190602001808311610f9f57829003601f168201915b5050505050905090565b610fd08282610ea5565b5050565b5f80610fde6112a0565b90505f610feb82866111a2565b905083811015611030576040517f08c379a0000000000000000000000000000000000000000000000000000000008152600401611027906127c8565b60405180910390fd5b61103d82868684036112a7565b60019250505092915050565b5f806110536112a0565b905061106081858561137b565b600191505092915050565b5f61108082600761152690919063ffffffff16565b9050919050565b61108f611553565b6110a381600761165090919063ffffffff16565b156110ec578073ffffffffffffffffffffffffffffffffffffffff167fe46fef8bbff1389d9010703cf8ebb363fb3daf5bf56edc27080b67bc8d9251ea60405160405180910390a25b50565b6110f881611087565b61110181611104565b50565b61110c611553565b61112081600961165090919063ffffffff16565b15611169578073ffffffffffffffffffffffffffffffffffffffff167f92308bb7573b2a3d17ddb868b39d8ebec433f3194421abc22d084f89658c9bad60405160405180910390a25b50565b5f7f0000000000000000000000000000000000000000000000000000000000000000905090565b61119d8282610938565b505050565b5f60015f8473ffffffffffffffffffffffffffffffffffffffff1673ffffffffffffffffffffffffffffffffffffffff1681526020019081526020015f205f8373ffffffffffffffffffffffffffffffffffffffff1673ffffffffffffffffffffffffffffffffffffffff1681526020019081526020015f2054905092915050565b61122c611553565b6112358161167d565b50565b611240611553565b6112548160076115e490919063ffffffff16565b1561129d578073ffffffffffffffffffffffffffffffffffffffff167fed998b960f6340d045f620c119730f7aa7995e7425c2401d3a5b64ff998a59e960405160405180910390a25b50565b5f33905090565b813073ffffffffffffffffffffffffffffffffffffffff168173ffffffffffffffffffffffffffffffffffffffff16036112df575f80fd5b6112ea8484846117a9565b50505050565b5f6112fb84846111a2565b90507fffffffffffffffffffffffffffffffffffffffffffffffffffffffffffffffff81146113755781811015611367576040517f08c379a000000000000000000000000000000000000000000000000000000000815260040161135e90612830565b60405180910390fd5b61137484848484036112a7565b5b50505050565b813073ffffffffffffffffffffffffffffffffffffffff168173ffffffffffffffffffffffffffffffffffffffff16036113b3575f80fd5b6113be84848461196c565b50505050565b5f73ffffffffffffffffffffffffffffffffffffffff168273ffffffffffffffffffffffffffffffffffffffff1603611432576040517f08c379a000000000000000000000000000000000000000000000000000000000815260040161142990612898565b60405180910390fd5b61143d5f8383611bd8565b8060025f82825461144e9190612601565b92505081905550805f808473ffffffffffffffffffffffffffffffffffffffff1673ffffffffffffffffffffffffffffffffffffffff1681526020019081526020015f205f82825401925050819055508173ffffffffffffffffffffffffffffffffffffffff165f73ffffffffffffffffffffffffffffffffffffffff167fddf252ad1be2c89b69c2b068fc378daa952ba7f163c4a11628f55a4df523b3ef836040516114fb91906121af565b60405180910390a361150e5f8383611bdd565b5050565b61152361151d6112a0565b82611be2565b50565b5f61154b835f018373ffffffffffffffffffffffffffffffffffffffff165f1b611da5565b905092915050565b60055f9054906101000a900473ffffffffffffffffffffffffffffffffffffffff1673ffffffffffffffffffffffffffffffffffffffff163373ffffffffffffffffffffffffffffffffffffffff16146115e2576040517f08c379a00000000000000000000000000000000000000000000000000000000081526004016115d990612900565b60405180910390fd5b565b5f611609835f018373ffffffffffffffffffffffffffffffffffffffff165f1b611dc5565b905092915050565b60605f61161f835f01611ec1565b905060608190508092505050919050565b6116428261163c6112a0565b836112f0565b61164c8282611be2565b5050565b5f611675835f018373ffffffffffffffffffffffffffffffffffffffff165f1b611f1a565b905092915050565b3373ffffffffffffffffffffffffffffffffffffffff168173ffffffffffffffffffffffffffffffffffffffff16036116eb576040517f08c379a00000000000000000000000000000000000000000000000000000000081526004016116e290612968565b60405180910390fd5b8060065f6101000a81548173ffffffffffffffffffffffffffffffffffffffff021916908373ffffffffffffffffffffffffffffffffffffffff1602179055508073ffffffffffffffffffffffffffffffffffffffff1660055f9054906101000a900473ffffffffffffffffffffffffffffffffffffffff1673ffffffffffffffffffffffffffffffffffffffff167fed8889f560326eb138920d842192f0eb3dd22b4f139c87a2c57538e05bae127860405160405180910390a350565b5f73ffffffffffffffffffffffffffffffffffffffff168373ffffffffffffffffffffffffffffffffffffffff1603611817576040517f08c379a000000000000000000000000000000000000000000000000000000000815260040161180e906129f6565b60405180910390fd5b5f73ffffffffffffffffffffffffffffffffffffffff168273ffffffffffffffffffffffffffffffffffffffff1603611885576040517f08c379a000000000000000000000000000000000000000000000000000000000815260040161187c90612a84565b60405180910390fd5b8060015f8573ffffffffffffffffffffffffffffffffffffffff1673ffffffffffffffffffffffffffffffffffffffff1681526020019081526020015f205f8473ffffffffffffffffffffffffffffffffffffffff1673ffffffffffffffffffffffffffffffffffffffff1681526020019081526020015f20819055508173ffffffffffffffffffffffffffffffffffffffff168373ffffffffffffffffffffffffffffffffffffffff167f8c5be1e5ebec7d5bd14f71427d1e84f3dd0314c0f7b2291e5b200ac8c7c3b9258360405161195f91906121af565b60405180910390a3505050565b5f73ffffffffffffffffffffffffffffffffffffffff168373ffffffffffffffffffffffffffffffffffffffff16036119da576040517f08c379a00000000000000000000000000000000000000000000000000000000081526004016119d190612b12565b60405180910390fd5b5f73ffffffffffffffffffffffffffffffffffffffff168273ffffffffffffffffffffffffffffffffffffffff1603611a48576040517f08c379a0000000000000000000000000000000000000000000000000000000008152600401611a3f90612ba0565b60405180910390fd5b611a53838383611bd8565b5f805f8573ffffffffffffffffffffffffffffffffffffffff1673ffffffffffffffffffffffffffffffffffffffff1681526020019081526020015f2054905081811015611ad6576040517f08c379a0000000000000000000000000000000000000000000000000000000008152600401611acd90612c2e565b60405180910390fd5b8181035f808673ffffffffffffffffffffffffffffffffffffffff1673ffffffffffffffffffffffffffffffffffffffff1681526020019081526020015f2081905550815f808573ffffffffffffffffffffffffffffffffffffffff1673ffffffffffffffffffffffffffffffffffffffff1681526020019081526020015f205f82825401925050819055508273ffffffffffffffffffffffffffffffffffffffff168473ffffffffffffffffffffffffffffffffffffffff167fddf252ad1be2c89b69c2b068fc378daa952ba7f163c4a11628f55a4df523b3ef84604051611bbf91906121af565b60405180910390a3611bd2848484611bdd565b50505050565b505050565b505050565b5f73ffffffffffffffffffffffffffffffffffffffff168273ffffffffffffffffffffffffffffffffffffffff1603611c50576040517f08c379a0000000000000000000000000000000000000000000000000000000008152600401611c4790612cbc565b60405180910390fd5b611c5b825f83611bd8565b5f805f8473ffffffffffffffffffffffffffffffffffffffff1673ffffffffffffffffffffffffffffffffffffffff1681526020019081526020015f2054905081811015611cde576040517f08c379a0000000000000000000000000000000000000000000000000000000008152600401611cd590612d4a565b60405180910390fd5b8181035f808573ffffffffffffffffffffffffffffffffffffffff1673ffffffffffffffffffffffffffffffffffffffff1681526020019081526020015f20819055508160025f82825403925050819055505f73ffffffffffffffffffffffffffffffffffffffff168373ffffffffffffffffffffffffffffffffffffffff167fddf252ad1be2c89b69c2b068fc378daa952ba7f163c4a11628f55a4df523b3ef84604051611d8d91906121af565b60405180910390a3611da0835f84611bdd565b505050565b5f80836001015f8481526020019081526020015f20541415905092915050565b5f80836001015f8481526020019081526020015f205490505f8114611eb6575f600182611df29190612d68565b90505f6001865f0180549050611e089190612d68565b9050818114611e6e575f865f018281548110611e2757611e26612d9b565b5b905f5260205f200154905080875f018481548110611e4857611e47612d9b565b5b905f5260205f20018190555083876001015f8381526020019081526020015f2081905550505b855f01805480611e8157611e80612dc8565b5b600190038181905f5260205f20015f90559055856001015f8681526020019081526020015f205f905560019350505050611ebb565b5f9150505b92915050565b6060815f01805480602002602001604051908101604052809291908181526020018280548015611f0e57602002820191905f5260205f20905b815481526020019060010190808311611efa575b50505050509050919050565b5f611f258383611da5565b611f7757825f0182908060018154018082558091505060019003905f5260205f20015f9091909190915055825f0180549050836001015f8481526020019081526020015f208190555060019050611f7b565b5f90505b92915050565b5f604051905090565b5f80fd5b5f80fd5b5f7fffffffff0000000000000000000000000000000000000000000000000000000082169050919050565b611fc681611f92565b8114611fd0575f80fd5b50565b5f81359050611fe181611fbd565b92915050565b5f60208284031215611ffc57611ffb611f8a565b5b5f61200984828501611fd3565b91505092915050565b5f8115159050919050565b61202681612012565b82525050565b5f60208201905061203f5f83018461201d565b92915050565b5f81519050919050565b5f82825260208201905092915050565b8281835e5f83830152505050565b5f601f19601f8301169050919050565b5f61208782612045565b612091818561204f565b93506120a181856020860161205f565b6120aa8161206d565b840191505092915050565b5f6020820190508181035f8301526120cd818461207d565b905092915050565b5f73ffffffffffffffffffffffffffffffffffffffff82169050919050565b5f6120fe826120d5565b9050919050565b61210e816120f4565b8114612118575f80fd5b50565b5f8135905061212981612105565b92915050565b5f819050919050565b6121418161212f565b811461214b575f80fd5b50565b5f8135905061215c81612138565b92915050565b5f806040838503121561217857612177611f8a565b5b5f6121858582860161211b565b92505060206121968582860161214e565b9150509250929050565b6121a98161212f565b82525050565b5f6020820190506121c25f8301846121a0565b92915050565b5f805f606084860312156121df576121de611f8a565b5b5f6121ec8682870161211b565b93505060206121fd8682870161211b565b925050604061220e8682870161214e565b9150509250925092565b5f60ff82169050919050565b61222d81612218565b82525050565b5f6020820190506122465f830184612224565b92915050565b5f80fd5b5f80fd5b7f4e487b71000000000000000000000000000000000000000000000000000000005f52604160045260245ffd5b61228a8261206d565b810181811067ffffffffffffffff821117156122a9576122a8612254565b5b80604052505050565b5f6122bb611f81565b90506122c78282612281565b919050565b5f67ffffffffffffffff8211156122e6576122e5612254565b5b6122ef8261206d565b9050602081019050919050565b828183375f83830152505050565b5f61231c612317846122cc565b6122b2565b90508281526020810184848401111561233857612337612250565b5b6123438482856122fc565b509392505050565b5f82601f83011261235f5761235e61224c565b5b813561236f84826020860161230a565b91505092915050565b5f805f6060848603121561238f5761238e611f8a565b5b5f61239c8682870161211b565b93505060206123ad8682870161214e565b925050604084013567ffffffffffffffff8111156123ce576123cd611f8e565b5b6123da8682870161234b565b9150509250925092565b5f602082840312156123f9576123f8611f8a565b5b5f6124068482850161214e565b91505092915050565b5f6020828403121561242457612423611f8a565b5b5f6124318482850161211b565b91505092915050565b5f81519050919050565b5f82825260208201905092915050565b5f819050602082019050919050565b61246c816120f4565b82525050565b5f61247d8383612463565b60208301905092915050565b5f602082019050919050565b5f61249f8261243a565b6124a98185612444565b93506124b483612454565b805f5b838110156124e45781516124cb8882612472565b97506124d683612489565b9250506001810190506124b7565b5085935050505092915050565b5f6020820190508181035f8301526125098184612495565b905092915050565b61251a816120f4565b82525050565b5f6020820190506125335f830184612511565b92915050565b5f806040838503121561254f5761254e611f8a565b5b5f61255c8582860161211b565b925050602061256d8582860161211b565b9150509250929050565b7f4e487b71000000000000000000000000000000000000000000000000000000005f52602260045260245ffd5b5f60028204905060018216806125bb57607f821691505b6020821081036125ce576125cd612577565b5b50919050565b7f4e487b71000000000000000000000000000000000000000000000000000000005f52601160045260245ffd5b5f61260b8261212f565b91506126168361212f565b925082820190508082111561262e5761262d6125d4565b5b92915050565b5f81519050919050565b5f82825260208201905092915050565b5f61265882612634565b612662818561263e565b935061267281856020860161205f565b61267b8161206d565b840191505092915050565b5f6040820190506126995f8301856121a0565b81810360208301526126ab818461264e565b90509392505050565b5f6060820190506126c75f830186612511565b6126d460208301856121a0565b81810360408301526126e6818461264e565b9050949350505050565b7f4d7573742062652070726f706f736564206f776e6572000000000000000000005f82015250565b5f61272460168361204f565b915061272f826126f0565b602082019050919050565b5f6020820190508181035f83015261275181612718565b9050919050565b7f45524332303a2064656372656173656420616c6c6f77616e63652062656c6f775f8201527f207a65726f000000000000000000000000000000000000000000000000000000602082015250565b5f6127b260258361204f565b91506127bd82612758565b604082019050919050565b5f6020820190508181035f8301526127df816127a6565b9050919050565b7f45524332303a20696e73756666696369656e7420616c6c6f77616e63650000005f82015250565b5f61281a601d8361204f565b9150612825826127e6565b602082019050919050565b5f6020820190508181035f8301526128478161280e565b9050919050565b7f45524332303a206d696e7420746f20746865207a65726f2061646472657373005f82015250565b5f612882601f8361204f565b915061288d8261284e565b602082019050919050565b5f6020820190508181035f8301526128af81612876565b9050919050565b7f4f6e6c792063616c6c61626c65206279206f776e6572000000000000000000005f82015250565b5f6128ea60168361204f565b91506128f5826128b6565b602082019050919050565b5f6020820190508181035f830152612917816128de565b9050919050565b7f43616e6e6f74207472616e7366657220746f2073656c660000000000000000005f82015250565b5f61295260178361204f565b915061295d8261291e565b602082019050919050565b5f6020820190508181035f83015261297f81612946565b9050919050565b7f45524332303a20617070726f76652066726f6d20746865207a65726f206164645f8201527f7265737300000000000000000000000000000000000000000000000000000000602082015250565b5f6129e060248361204f565b91506129eb82612986565b604082019050919050565b5f6020820190508181035f830152612a0d816129d4565b9050919050565b7f45524332303a20617070726f766520746f20746865207a65726f2061646472655f8201527f7373000000000000000000000000000000000000000000000000000000000000602082015250565b5f612a6e60228361204f565b9150612a7982612a14565b604082019050919050565b5f6020820190508181035f830152612a9b81612a62565b9050919050565b7f45524332303a207472616e736665722066726f6d20746865207a65726f2061645f8201527f6472657373000000000000000000000000000000000000000000000000000000602082015250565b5f612afc60258361204f565b9150612b0782612aa2565b604082019050919050565b5f6020820190508181035f830152612b2981612af0565b9050919050565b7f45524332303a207472616e7366657220746f20746865207a65726f20616464725f8201527f6573730000000000000000000000000000000000000000000000000000000000602082015250565b5f612b8a60238361204f565b9150612b9582612b30565b604082019050919050565b5f6020820190508181035f830152612bb781612b7e565b9050919050565b7f45524332303a207472616e7366657220616d6f756e74206578636565647320625f8201527f616c616e63650000000000000000000000000000000000000000000000000000602082015250565b5f612c1860268361204f565b9150612c2382612bbe565b604082019050919050565b5f6020820190508181035f830152612c4581612c0c565b9050919050565b7f45524332303a206275726e2066726f6d20746865207a65726f206164647265735f8201527f7300000000000000000000000000000000000000000000000000000000000000602082015250565b5f612ca660218361204f565b9150612cb182612c4c565b604082019050919050565b5f6020820190508181035f830152612cd381612c9a565b9050919050565b7f45524332303a206275726e20616d6f756e7420657863656564732062616c616e5f8201527f6365000000000000000000000000000000000000000000000000000000000000602082015250565b5f612d3460228361204f565b9150612d3f82612cda565b604082019050919050565b5f6020820190508181035f830152612d6181612d28565b9050919050565b5f612d728261212f565b9150612d7d8361212f565b9250828203905081811115612d9557612d946125d4565b5b92915050565b7f4e487b71000000000000000000000000000000000000000000000000000000005f52603260045260245ffd5b7f4e487b71000000000000000000000000000000000000000000000000000000005f52603160045260245ffdfea2646970667358221220f4fa3297e83ef25e1da109e4054f3dd0e1d9adfcda9e21c1191f5235b73a19ec64736f6c634300081a00336080604052348015600e575f80fd5b506125508061001c5f395ff3fe608060405260043610610090575f3560e01c8063a48a905811610058578063a48a9058146101a2578063a8d87a3b146101de578063d6be695a1461021a578063ee18e0d314610244578063fbca3b741461026e57610090565b806320487ded146100945780633cf97983146100d057806369fe0e2d1461010e57806383826b2b1461013657806396f4e9f914610172575b5f80fd5b34801561009f575f80fd5b506100ba60048036038101906100b59190611421565b6102aa565b6040516100c7919061148a565b60405180910390f35b3480156100db575f80fd5b506100f660048036038101906100f191906114fc565b6102b5565b604051610105939291906115f6565b60405180910390f35b348015610119575f80fd5b50610134600480360381019061012f9190611632565b6102de565b005b348015610141575f80fd5b5061015c6004803603810190610157919061165d565b6102e7565b604051610169919061169b565b60405180910390f35b61018c600480360381019061018791906116d2565b6102f2565b6040516101999190611744565b60405180910390f35b3480156101ad575f80fd5b506101c860048036038101906101c3919061175d565b610777565b6040516101d5919061169b565b60405180910390f35b3480156101e9575f80fd5b5061020460048036038101906101ff919061175d565b610781565b6040516102119190611797565b60405180910390f35b348015610225575f80fd5b5061022e61078e565b60405161023b91906117ce565b60405180910390f35b34801561024f575f80fd5b50610258610795565b60405161026591906117f6565b60405180910390f35b348015610279575f80fd5b50610294600480360381019061028f919061175d565b61079b565b6040516102a191906118c6565b60405180910390f35b5f8054905092915050565b5f60605f6102ce876102c6906119ed565b8787876107ed565b9250925092509450945094915050565b805f8190555050565b5f6001905092915050565b5f602082805f01906103049190611a0b565b9050146103575781805f019061031a9190611a0b565b6040517f370d875f00000000000000000000000000000000000000000000000000000000815260040161034e929190611a99565b60405180910390fd5b5f82805f01906103679190611a0b565b8101906103749190611632565b905073ffffffffffffffffffffffffffffffffffffffff801681118061039a5750600a81105b156103eb5782805f01906103ae9190611a0b565b6040517f370d875f0000000000000000000000000000000000000000000000000000000081526004016103e2929190611a99565b60405180910390fd5b5f6103ff85856103fa90611abb565b6102aa565b90505f73ffffffffffffffffffffffffffffffffffffffff1684606001602081019061042b9190611acd565b73ffffffffffffffffffffffffffffffffffffffff16036104855780341015610480576040517f07da6ee600000000000000000000000000000000000000000000000000000000815260040160405180910390fd5b6104ff565b5f3411156104bf576040517f1841b4e100000000000000000000000000000000000000000000000000000000815260040160405180910390fd5b6104fe3330838760600160208101906104d89190611acd565b73ffffffffffffffffffffffffffffffffffffffff166109be909392919063ffffffff16565b5b5f8290505f61051c8680608001906105179190611a0b565b610a47565b5f015190505f866040516020016105339190611dd5565b6040516020818303038152906040528051906020012090505f6040518060a0016040528083815260200167de41ba4fc9d91ad967ffffffffffffffff168152602001336040516020016105869190611797565b60405160208183030381529060405281526020018980602001906105aa9190611a0b565b8080601f0160208091040260200160405190810160405280939291908181526020018383808284375f81840152601f19601f8201169050808301925050505050505081526020018980604001906106019190611df5565b808060200260200160405190810160405280939291908181526020015f905b82821015610650578484839050604002018036038101906106419190611e57565b81526020019060010190610620565b505050505081525090505f5b88806040019061066c9190611df5565b905081101561070e5761070333868b806040019061068a9190611df5565b8581811061069b5761069a611e82565b5b905060400201602001358c80604001906106b59190611df5565b868181106106c6576106c5611e82565b5b9050604002015f0160208101906106dd9190611acd565b73ffffffffffffffffffffffffffffffffffffffff166109be909392919063ffffffff16565b80600101905061065c565b505f8061071f8361138887896107ed565b50915091508161076657806040517f0a8d6e8c00000000000000000000000000000000000000000000000000000000815260040161075d9190611eaf565b60405180910390fd5b839850505050505050505092915050565b5f60019050919050565b5f63499602d29050919050565b62030d4081565b61138881565b60605f67ffffffffffffffff8111156107b7576107b661105a565b5b6040519080825280602002602001820160405280156107e55781602001602082028036833780820191505090505b509050919050565b5f60605f8087606001515114801561080457505f85145b8061082557505f8473ffffffffffffffffffffffffffffffffffffffff163b145b8061087657506108747f85572ffb000000000000000000000000000000000000000000000000000000008573ffffffffffffffffffffffffffffffffffffffff16610b2b90919063ffffffff16565b155b156108995760015f60405180602001604052805f815250909250925092506109b4565b5f6385572ffb60e01b886040516024016108b3919061206b565b604051602081830303815290604052907bffffffffffffffffffffffffffffffffffffffffffffffffffffffff19166020820180517bffffffffffffffffffffffffffffffffffffffffffffffffffffffff838183161783525050505090506109208186888a6084610b4f565b8094508195508296505050507fa8b0355886b5b7a28bb97e4f0a24feb172618407402721c4012d8b7c6433102f84848460405161095f939291906115f6565b60405180910390a17f9b877de93ea9895756e337442c657f95a34fc68e7eb988bdfa693d5be83016b6885f015189602001513384805190602001206040516109aa949392919061209a565b60405180910390a1505b9450945094915050565b610a41846323b872dd60e01b8585856040516024016109df939291906120dd565b604051602081830303815290604052907bffffffffffffffffffffffffffffffffffffffffffffffffffffffff19166020820180517bffffffffffffffffffffffffffffffffffffffffffffffffffffffff8381831617835250505050610c77565b50505050565b610a4f610fe6565b5f8383905003610a7857604051806020016040528062030d4063ffffffff168152509050610b25565b6397a657c960e01b7bffffffffffffffffffffffffffffffffffffffffffffffffffffffff1916838390610aac9190612153565b7bffffffffffffffffffffffffffffffffffffffffffffffffffffffff191614610b02576040517f5247fdce00000000000000000000000000000000000000000000000000000000815260040160405180910390fd5b82826004908092610b15939291906121b9565b810190610b22919061222c565b90505b92915050565b5f610b3583610d3c565b8015610b475750610b468383610d88565b5b905092915050565b5f60605f8361ffff1667ffffffffffffffff811115610b7157610b7061105a565b5b6040519080825280601f01601f191660200182016040528015610ba35781602001600182028036833780820191505090505b509150863b610bd4577f0c3b563c000000000000000000000000000000000000000000000000000000005f5260045ffd5b5a85811015610c05577fafa32a2c000000000000000000000000000000000000000000000000000000005f5260045ffd5b85810390508660408204820311610c3e577f37c3be29000000000000000000000000000000000000000000000000000000005f5260045ffd5b5a5f808b5160208d015f8d8df194505a810392503d86811115610c5f578690505b808552805f602087013e505050955095509592505050565b5f610cd8826040518060400160405280602081526020017f5361666545524332303a206c6f772d6c6576656c2063616c6c206661696c65648152508573ffffffffffffffffffffffffffffffffffffffff16610e219092919063ffffffff16565b90505f81511115610d375780806020019051810190610cf79190612281565b610d36576040517f08c379a0000000000000000000000000000000000000000000000000000000008152600401610d2d9061232c565b60405180910390fd5b5b505050565b5f610d67827f01ffc9a700000000000000000000000000000000000000000000000000000000610d88565b8015610d815750610d7f8263ffffffff60e01b610d88565b155b9050919050565b5f8082604051602401610d9b9190612359565b6040516020818303038152906040526301ffc9a760e01b6020820180517bffffffffffffffffffffffffffffffffffffffffffffffffffffffff838183161783525050505090505f805f60205f8551602087018a617530fa92503d91505f519050828015610e0a575060208210155b8015610e1557505f81115b94505050505092915050565b6060610e2f84845f85610e38565b90509392505050565b606082471015610e7d576040517f08c379a0000000000000000000000000000000000000000000000000000000008152600401610e74906123e2565b60405180910390fd5b5f808673ffffffffffffffffffffffffffffffffffffffff168587604051610ea5919061243a565b5f6040518083038185875af1925050503d805f8114610edf576040519150601f19603f3d011682016040523d82523d5f602084013e610ee4565b606091505b5091509150610ef587838387610f01565b92505050949350505050565b60608315610f62575f835103610f5a57610f1a85610f75565b610f59576040517f08c379a0000000000000000000000000000000000000000000000000000000008152600401610f509061249a565b60405180910390fd5b5b829050610f6d565b610f6c8383610f97565b5b949350505050565b5f808273ffffffffffffffffffffffffffffffffffffffff163b119050919050565b5f82511115610fa95781518083602001fd5b806040517f08c379a0000000000000000000000000000000000000000000000000000000008152600401610fdd91906124fa565b60405180910390fd5b60405180602001604052805f81525090565b5f604051905090565b5f80fd5b5f80fd5b5f67ffffffffffffffff82169050919050565b61102581611009565b811461102f575f80fd5b50565b5f813590506110408161101c565b92915050565b5f80fd5b5f601f19601f8301169050919050565b7f4e487b71000000000000000000000000000000000000000000000000000000005f52604160045260245ffd5b6110908261104a565b810181811067ffffffffffffffff821117156110af576110ae61105a565b5b80604052505050565b5f6110c1610ff8565b90506110cd8282611087565b919050565b5f80fd5b5f80fd5b5f80fd5b5f67ffffffffffffffff8211156110f8576110f761105a565b5b6111018261104a565b9050602081019050919050565b828183375f83830152505050565b5f61112e611129846110de565b6110b8565b90508281526020810184848401111561114a576111496110da565b5b61115584828561110e565b509392505050565b5f82601f830112611171576111706110d6565b5b813561118184826020860161111c565b91505092915050565b5f67ffffffffffffffff8211156111a4576111a361105a565b5b602082029050602081019050919050565b5f80fd5b5f73ffffffffffffffffffffffffffffffffffffffff82169050919050565b5f6111e2826111b9565b9050919050565b6111f2816111d8565b81146111fc575f80fd5b50565b5f8135905061120d816111e9565b92915050565b5f819050919050565b61122581611213565b811461122f575f80fd5b50565b5f813590506112408161121c565b92915050565b5f6040828403121561125b5761125a611046565b5b61126560406110b8565b90505f611274848285016111ff565b5f83015250602061128784828501611232565b60208301525092915050565b5f6112a56112a08461118a565b6110b8565b905080838252602082019050604084028301858111156112c8576112c76111b5565b5b835b818110156112f157806112dd8882611246565b8452602084019350506040810190506112ca565b5050509392505050565b5f82601f83011261130f5761130e6110d6565b5b813561131f848260208601611293565b91505092915050565b5f60a0828403121561133d5761133c611046565b5b61134760a06110b8565b90505f82013567ffffffffffffffff811115611366576113656110d2565b5b6113728482850161115d565b5f83015250602082013567ffffffffffffffff811115611395576113946110d2565b5b6113a18482850161115d565b602083015250604082013567ffffffffffffffff8111156113c5576113c46110d2565b5b6113d1848285016112fb565b60408301525060606113e5848285016111ff565b606083015250608082013567ffffffffffffffff811115611409576114086110d2565b5b6114158482850161115d565b60808301525092915050565b5f806040838503121561143757611436611001565b5b5f61144485828601611032565b925050602083013567ffffffffffffffff81111561146557611464611005565b5b61147185828601611328565b9150509250929050565b61148481611213565b82525050565b5f60208201905061149d5f83018461147b565b92915050565b5f80fd5b5f60a082840312156114bc576114bb6114a3565b5b81905092915050565b5f61ffff82169050919050565b6114db816114c5565b81146114e5575f80fd5b50565b5f813590506114f6816114d2565b92915050565b5f805f806080858703121561151457611513611001565b5b5f85013567ffffffffffffffff81111561153157611530611005565b5b61153d878288016114a7565b945050602061154e878288016114e8565b935050604061155f87828801611232565b9250506060611570878288016111ff565b91505092959194509250565b5f8115159050919050565b6115908161157c565b82525050565b5f81519050919050565b5f82825260208201905092915050565b8281835e5f83830152505050565b5f6115c882611596565b6115d281856115a0565b93506115e28185602086016115b0565b6115eb8161104a565b840191505092915050565b5f6060820190506116095f830186611587565b818103602083015261161b81856115be565b905061162a604083018461147b565b949350505050565b5f6020828403121561164757611646611001565b5b5f61165484828501611232565b91505092915050565b5f806040838503121561167357611672611001565b5b5f61168085828601611032565b9250506020611691858286016111ff565b9150509250929050565b5f6020820190506116ae5f830184611587565b92915050565b5f60a082840312156116c9576116c86114a3565b5b81905092915050565b5f80604083850312156116e8576116e7611001565b5b5f6116f585828601611032565b925050602083013567ffffffffffffffff81111561171657611715611005565b5b611722858286016116b4565b9150509250929050565b5f819050919050565b61173e8161172c565b82525050565b5f6020820190506117575f830184611735565b92915050565b5f6020828403121561177257611771611001565b5b5f61177f84828501611032565b91505092915050565b611791816111d8565b82525050565b5f6020820190506117aa5f830184611788565b92915050565b5f63ffffffff82169050919050565b6117c8816117b0565b82525050565b5f6020820190506117e15f8301846117bf565b92915050565b6117f0816114c5565b82525050565b5f6020820190506118095f8301846117e7565b92915050565b5f81519050919050565b5f82825260208201905092915050565b5f819050602082019050919050565b611841816111d8565b82525050565b5f6118528383611838565b60208301905092915050565b5f602082019050919050565b5f6118748261180f565b61187e8185611819565b935061188983611829565b805f5b838110156118b95781516118a08882611847565b97506118ab8361185e565b92505060018101905061188c565b5085935050505092915050565b5f6020820190508181035f8301526118de818461186a565b905092915050565b6118ef8161172c565b81146118f9575f80fd5b50565b5f8135905061190a816118e6565b92915050565b5f60a0828403121561192557611924611046565b5b61192f60a06110b8565b90505f61193e848285016118fc565b5f83015250602061195184828501611032565b602083015250604082013567ffffffffffffffff811115611975576119746110d2565b5b6119818482850161115d565b604083015250606082013567ffffffffffffffff8111156119a5576119a46110d2565b5b6119b18482850161115d565b606083015250608082013567ffffffffffffffff8111156119d5576119d46110d2565b5b6119e1848285016112fb565b60808301525092915050565b5f6119f83683611910565b9050919050565b5f80fd5b5f80fd5b5f80fd5b5f8083356001602003843603038112611a2757611a266119ff565b5b80840192508235915067ffffffffffffffff821115611a4957611a48611a03565b5b602083019250600182023603831315611a6557611a64611a07565b5b509250929050565b5f611a7883856115a0565b9350611a8583858461110e565b611a8e8361104a565b840190509392505050565b5f6020820190508181035f830152611ab2818486611a6d565b90509392505050565b5f611ac63683611328565b9050919050565b5f60208284031215611ae257611ae1611001565b5b5f611aef848285016111ff565b91505092915050565b5f80fd5b5f80fd5b5f80fd5b5f8083356001602003843603038112611b2057611b1f611b00565b5b83810192508235915060208301925067ffffffffffffffff821115611b4857611b47611af8565b5b600182023603831315611b5e57611b5d611afc565b5b509250929050565b5f82825260208201905092915050565b5f611b818385611b66565b9350611b8e83858461110e565b611b978361104a565b840190509392505050565b5f8083356001602003843603038112611bbe57611bbd611b00565b5b83810192508235915060208301925067ffffffffffffffff821115611be657611be5611af8565b5b604082023603831315611bfc57611bfb611afc565b5b509250929050565b5f82825260208201905092915050565b5f819050919050565b5f611c2b60208401846111ff565b905092915050565b5f611c416020840184611232565b905092915050565b611c5281611213565b82525050565b60408201611c685f830183611c1d565b611c745f850182611838565b50611c826020830183611c33565b611c8f6020850182611c49565b50505050565b5f611ca08383611c58565b60408301905092915050565b5f82905092915050565b5f604082019050919050565b5f611ccd8385611c04565b9350611cd882611c14565b805f5b85811015611d1057611ced8284611cac565b611cf78882611c95565b9750611d0283611cb6565b925050600181019050611cdb565b5085925050509392505050565b5f60a08301611d2e5f840184611b04565b8583035f870152611d40838284611b76565b92505050611d516020840184611b04565b8583036020870152611d64838284611b76565b92505050611d756040840184611ba2565b8583036040870152611d88838284611cc2565b92505050611d996060840184611c1d565b611da66060860182611838565b50611db46080840184611b04565b8583036080870152611dc7838284611b76565b925050508091505092915050565b5f6020820190508181035f830152611ded8184611d1d565b905092915050565b5f8083356001602003843603038112611e1157611e106119ff565b5b80840192508235915067ffffffffffffffff821115611e3357611e32611a03565b5b602083019250604082023603831315611e4f57611e4e611a07565b5b509250929050565b5f60408284031215611e6c57611e6b611001565b5b5f611e7984828501611246565b91505092915050565b7f4e487b71000000000000000000000000000000000000000000000000000000005f52603260045260245ffd5b5f6020820190508181035f830152611ec781846115be565b905092915050565b611ed88161172c565b82525050565b611ee781611009565b82525050565b5f611ef782611596565b611f018185611b66565b9350611f118185602086016115b0565b611f1a8161104a565b840191505092915050565b5f81519050919050565b5f819050602082019050919050565b604082015f820151611f525f850182611838565b506020820151611f656020850182611c49565b50505050565b5f611f768383611f3e565b60408301905092915050565b5f602082019050919050565b5f611f9882611f25565b611fa28185611c04565b9350611fad83611f2f565b805f5b83811015611fdd578151611fc48882611f6b565b9750611fcf83611f82565b925050600181019050611fb0565b5085935050505092915050565b5f60a083015f830151611fff5f860182611ecf565b5060208301516120126020860182611ede565b506040830151848203604086015261202a8282611eed565b915050606083015184820360608601526120448282611eed565b9150506080830151848203608086015261205e8282611f8e565b9150508091505092915050565b5f6020820190508181035f8301526120838184611fea565b905092915050565b61209481611009565b82525050565b5f6080820190506120ad5f830187611735565b6120ba602083018661208b565b6120c76040830185611788565b6120d46060830184611735565b95945050505050565b5f6060820190506120f05f830186611788565b6120fd6020830185611788565b61210a604083018461147b565b949350505050565b5f82905092915050565b5f7fffffffff0000000000000000000000000000000000000000000000000000000082169050919050565b5f82821b905092915050565b5f61215e8383612112565b82612169813561211c565b925060048210156121a9576121a47fffffffff0000000000000000000000000000000000000000000000000000000083600403600802612147565b831692505b505092915050565b5f80fd5b5f80fd5b5f80858511156121cc576121cb6121b1565b5b838611156121dd576121dc6121b5565b5b6001850283019150848603905094509492505050565b5f6020828403121561220857612207611046565b5b61221260206110b8565b90505f61222184828501611232565b5f8301525092915050565b5f6020828403121561224157612240611001565b5b5f61224e848285016121f3565b91505092915050565b6122608161157c565b811461226a575f80fd5b50565b5f8151905061227b81612257565b92915050565b5f6020828403121561229657612295611001565b5b5f6122a38482850161226d565b91505092915050565b5f82825260208201905092915050565b7f5361666545524332303a204552433230206f7065726174696f6e20646964206e5f8201527f6f74207375636365656400000000000000000000000000000000000000000000602082015250565b5f612316602a836122ac565b9150612321826122bc565b604082019050919050565b5f6020820190508181035f8301526123438161230a565b9050919050565b6123538161211c565b82525050565b5f60208201905061236c5f83018461234a565b92915050565b7f416464726573733a20696e73756666696369656e742062616c616e636520666f5f8201527f722063616c6c0000000000000000000000000000000000000000000000000000602082015250565b5f6123cc6026836122ac565b91506123d782612372565b604082019050919050565b5f6020820190508181035f8301526123f9816123c0565b9050919050565b5f81905092915050565b5f61241482611596565b61241e8185612400565b935061242e8185602086016115b0565b80840191505092915050565b5f612445828461240a565b915081905092915050565b7f416464726573733a2063616c6c20746f206e6f6e2d636f6e74726163740000005f82015250565b5f612484601d836122ac565b915061248f82612450565b602082019050919050565b5f6020820190508181035f8301526124b181612478565b9050919050565b5f81519050919050565b5f6124cc826124b8565b6124d681856122ac565b93506124e68185602086016115b0565b6124ef8161104a565b840191505092915050565b5f6020820190508181035f83015261251281846124c2565b90509291505056fea2646970667358221220dfe9b00e3da9b7142142eafeba4cbaad6beef3310cb426db0e2f29e869c5d59d64736f6c634300081a0033","linkReferences":{}},"methodIdentifiers":{"configuration()":"6c70bee9","getSupportedTokens(uint64)":"fbca3b74","isChainSupported(uint64)":"a48a9058","requestLinkFromFaucet(address,uint256)":"657b9a4e","supportNewTokenViaGetCCIPAdmin(address)":"c250b5f3","supportNewTokenViaOwner(address)":"3eaa8859"},"id":116}