{"abi":[{"type":"function","name":"initialize","inputs":[],"outputs":[],"stateMutability":"nonpayable"},{"type":"function","name":"isOperator","inputs":[{"name":"","type":"address","internalType":"address"}],"outputs":[{"name":"","type":"bool","internalType":"bool"}],"stateMutability":"view"},{"type":"function","name":"owner","inputs":[],"outputs":[{"name":"","type":"address","internalType":"address"}],"stateMutability":"view"},{"type":"function","name":"renounceOwnership","inputs":[],"outputs":[],"stateMutability":"nonpayable"},{"type":"function","name":"setOperator","inputs":[{"name":"_operator","type":"address","internalType":"address"},{"name":"_status","type":"bool","internalType":"bool"}],"outputs":[],"stateMutability":"nonpayable"},{"type":"function","name":"transferOwnership","inputs":[{"name":"newOwner","type":"address","internalType":"address"}],"outputs":[],"stateMutability":"nonpayable"},{"type":"function","name":"withdrawFunds","inputs":[{"name":"_token","type":"address","internalType":"address"},{"name":"_to","type":"address","internalType":"address"},{"name":"_amount","type":"uint256","internalType":"uint256"}],"outputs":[{"name":"success","type":"bool","internalType":"bool"}],"stateMutability":"nonpayable"},{"type":"event","name":"FundsWithdrawn","inputs":[{"name":"token","type":"address","indexed":false,"internalType":"address"},{"name":"to","type":"address","indexed":false,"internalType":"address"},{"name":"amount","type":"uint256","indexed":false,"internalType":"uint256"}],"anonymous":false},{"type":"event","name":"Initialized","inputs":[{"name":"version","type":"uint8","indexed":false,"internalType":"uint8"}],"anonymous":false},{"type":"event","name":"OwnershipTransferred","inputs":[{"name":"previousOwner","type":"address","indexed":true,"internalType":"address"},{"name":"newOwner","type":"address","indexed":true,"internalType":"address"}],"anonymous":false}],"bytecode":{"object":"0x6080604052348015600e575f80fd5b506116e68061001c5f395ff3fe608060405234801561000f575f80fd5b506004361061007b575f3560e01c8063715018a611610059578063715018a6146100fb5780638129fc1c146101055780638da5cb5b1461010f578063f2fde38b1461012d5761007b565b80631c20fadd1461007f578063558a7297146100af5780636d70f7ae146100cb575b5f80fd5b61009960048036038101906100949190610cc0565b610149565b6040516100a69190610d2a565b60405180910390f35b6100c960048036038101906100c49190610d6d565b61041c565b005b6100e560048036038101906100e09190610dab565b6104ea565b6040516100f29190610d2a565b60405180910390f35b610103610507565b005b61010d61051a565b005b610117610652565b6040516101249190610de5565b60405180910390f35b61014760048036038101906101429190610dab565b61067a565b005b5f60655f3373ffffffffffffffffffffffffffffffffffffffff1673ffffffffffffffffffffffffffffffffffffffff1681526020019081526020015f205f9054906101000a900460ff166101d3576040517f08c379a00000000000000000000000000000000000000000000000000000000081526004016101ca90610e7e565b60405180910390fd5b5f73ffffffffffffffffffffffffffffffffffffffff168473ffffffffffffffffffffffffffffffffffffffff1603610241576040517f08c379a000000000000000000000000000000000000000000000000000000000815260040161023890610ee6565b60405180910390fd5b5f73ffffffffffffffffffffffffffffffffffffffff168373ffffffffffffffffffffffffffffffffffffffff16036102af576040517f08c379a00000000000000000000000000000000000000000000000000000000081526004016102a690610f74565b60405180910390fd5b5f82116102f1576040517f08c379a00000000000000000000000000000000000000000000000000000000081526004016102e890610fdc565b60405180910390fd5b7fa92ff919b850e4909ab2261d907ef955f11bc1716733a6cbece38d163a69af8a84848460405161032493929190611009565b60405180910390a161035783838673ffffffffffffffffffffffffffffffffffffffff166106fc9092919063ffffffff16565b818473ffffffffffffffffffffffffffffffffffffffff166370a08231856040518263ffffffff1660e01b81526004016103919190610de5565b602060405180830381865afa1580156103ac573d5f803e3d5ffd5b505050506040513d601f19601f820116820180604052508101906103d09190611052565b1015610411576040517f08c379a0000000000000000000000000000000000000000000000000000000008152600401610408906110c7565b60405180910390fd5b600190509392505050565b610424610782565b5f73ffffffffffffffffffffffffffffffffffffffff168273ffffffffffffffffffffffffffffffffffffffff1603610492576040517f08c379a000000000000000000000000000000000000000000000000000000000815260040161048990611155565b60405180910390fd5b8060655f8473ffffffffffffffffffffffffffffffffffffffff1673ffffffffffffffffffffffffffffffffffffffff1681526020019081526020015f205f6101000a81548160ff0219169083151502179055505050565b6065602052805f5260405f205f915054906101000a900460ff1681565b61050f610782565b6105185f610800565b565b5f8060019054906101000a900460ff16159050808015610549575060015f8054906101000a900460ff1660ff16105b806105755750610558306108c3565b158015610574575060015f8054906101000a900460ff1660ff16145b5b6105b4576040517f08c379a00000000000000000000000000000000000000000000000000000000081526004016105ab906111e3565b60405180910390fd5b60015f806101000a81548160ff021916908360ff16021790555080156105ef5760015f60016101000a81548160ff0219169083151502179055505b6105f76108e5565b801561064f575f8060016101000a81548160ff0219169083151502179055507f7f26b83ff96e1f2b6a682f133852f6798a09c465da95921460cefb38474024986001604051610646919061124f565b60405180910390a15b50565b5f60335f9054906101000a900473ffffffffffffffffffffffffffffffffffffffff16905090565b610682610782565b5f73ffffffffffffffffffffffffffffffffffffffff168173ffffffffffffffffffffffffffffffffffffffff16036106f0576040517f08c379a00000000000000000000000000000000000000000000000000000000081526004016106e7906112d8565b60405180910390fd5b6106f981610800565b50565b61077d8363a9059cbb60e01b848460405160240161071b9291906112f6565b604051602081830303815290604052907bffffffffffffffffffffffffffffffffffffffffffffffffffffffff19166020820180517bffffffffffffffffffffffffffffffffffffffffffffffffffffffff838183161783525050505061093d565b505050565b61078a610a03565b73ffffffffffffffffffffffffffffffffffffffff166107a8610652565b73ffffffffffffffffffffffffffffffffffffffff16146107fe576040517f08c379a00000000000000000000000000000000000000000000000000000000081526004016107f590611367565b60405180910390fd5b565b5f60335f9054906101000a900473ffffffffffffffffffffffffffffffffffffffff1690508160335f6101000a81548173ffffffffffffffffffffffffffffffffffffffff021916908373ffffffffffffffffffffffffffffffffffffffff1602179055508173ffffffffffffffffffffffffffffffffffffffff168173ffffffffffffffffffffffffffffffffffffffff167f8be0079c531659141344cd1fd0a4f28419497f9722a3daafe3b4186f6b6457e060405160405180910390a35050565b5f808273ffffffffffffffffffffffffffffffffffffffff163b119050919050565b5f60019054906101000a900460ff16610933576040517f08c379a000000000000000000000000000000000000000000000000000000000815260040161092a906113f5565b60405180910390fd5b61093b610a0a565b565b5f61099e826040518060400160405280602081526020017f5361666545524332303a206c6f772d6c6576656c2063616c6c206661696c65648152508573ffffffffffffffffffffffffffffffffffffffff16610a6a9092919063ffffffff16565b90505f815114806109bf5750808060200190518101906109be9190611427565b5b6109fe576040517f08c379a00000000000000000000000000000000000000000000000000000000081526004016109f5906114c2565b60405180910390fd5b505050565b5f33905090565b5f60019054906101000a900460ff16610a58576040517f08c379a0000000000000000000000000000000000000000000000000000000008152600401610a4f906113f5565b60405180910390fd5b610a68610a63610a03565b610800565b565b6060610a7884845f85610a81565b90509392505050565b606082471015610ac6576040517f08c379a0000000000000000000000000000000000000000000000000000000008152600401610abd90611550565b60405180910390fd5b5f808673ffffffffffffffffffffffffffffffffffffffff168587604051610aee91906115c0565b5f6040518083038185875af1925050503d805f8114610b28576040519150601f19603f3d011682016040523d82523d5f602084013e610b2d565b606091505b5091509150610b3e87838387610b4a565b92505050949350505050565b60608315610bab575f835103610ba357610b6385610bbe565b610ba2576040517f08c379a0000000000000000000000000000000000000000000000000000000008152600401610b9990611620565b60405180910390fd5b5b829050610bb6565b610bb58383610be0565b5b949350505050565b5f808273ffffffffffffffffffffffffffffffffffffffff163b119050919050565b5f82511115610bf25781518083602001fd5b806040517f08c379a0000000000000000000000000000000000000000000000000000000008152600401610c269190611690565b60405180910390fd5b5f80fd5b5f73ffffffffffffffffffffffffffffffffffffffff82169050919050565b5f610c5c82610c33565b9050919050565b610c6c81610c52565b8114610c76575f80fd5b50565b5f81359050610c8781610c63565b92915050565b5f819050919050565b610c9f81610c8d565b8114610ca9575f80fd5b50565b5f81359050610cba81610c96565b92915050565b5f805f60608486031215610cd757610cd6610c2f565b5b5f610ce486828701610c79565b9350506020610cf586828701610c79565b9250506040610d0686828701610cac565b9150509250925092565b5f8115159050919050565b610d2481610d10565b82525050565b5f602082019050610d3d5f830184610d1b565b92915050565b610d4c81610d10565b8114610d56575f80fd5b50565b5f81359050610d6781610d43565b92915050565b5f8060408385031215610d8357610d82610c2f565b5b5f610d9085828601610c79565b9250506020610da185828601610d59565b9150509250929050565b5f60208284031215610dc057610dbf610c2f565b5b5f610dcd84828501610c79565b91505092915050565b610ddf81610c52565b82525050565b5f602082019050610df85f830184610dd6565b92915050565b5f82825260208201905092915050565b7f4e65785661756c743a2063616c6c6572206973206e6f7420616e206f706572615f8201527f746f720000000000000000000000000000000000000000000000000000000000602082015250565b5f610e68602383610dfe565b9150610e7382610e0e565b604082019050919050565b5f6020820190508181035f830152610e9581610e5c565b9050919050565b7f4e65785661756c743a20746f6b656e2061646472657373206973207a65726f005f82015250565b5f610ed0601f83610dfe565b9150610edb82610e9c565b602082019050919050565b5f6020820190508181035f830152610efd81610ec4565b9050919050565b7f4e65785661756c743a20726563697069656e742061646472657373206973207a5f8201527f65726f0000000000000000000000000000000000000000000000000000000000602082015250565b5f610f5e602383610dfe565b9150610f6982610f04565b604082019050919050565b5f6020820190508181035f830152610f8b81610f52565b9050919050565b7f4e65785661756c743a20616d6f756e74206973207a65726f00000000000000005f82015250565b5f610fc6601883610dfe565b9150610fd182610f92565b602082019050919050565b5f6020820190508181035f830152610ff381610fba565b9050919050565b61100381610c8d565b82525050565b5f60608201905061101c5f830186610dd6565b6110296020830185610dd6565b6110366040830184610ffa565b949350505050565b5f8151905061104c81610c96565b92915050565b5f6020828403121561106757611066610c2f565b5b5f6110748482850161103e565b91505092915050565b7f5472616e73666572206661696c656400000000000000000000000000000000005f82015250565b5f6110b1600f83610dfe565b91506110bc8261107d565b602082019050919050565b5f6020820190508181035f8301526110de816110a5565b9050919050565b7f4e65785661756c743a206f70657261746f722061646472657373206973207a655f8201527f726f000000000000000000000000000000000000000000000000000000000000602082015250565b5f61113f602283610dfe565b915061114a826110e5565b604082019050919050565b5f6020820190508181035f83015261116c81611133565b9050919050565b7f496e697469616c697a61626c653a20636f6e747261637420697320616c7265615f8201527f647920696e697469616c697a6564000000000000000000000000000000000000602082015250565b5f6111cd602e83610dfe565b91506111d882611173565b604082019050919050565b5f6020820190508181035f8301526111fa816111c1565b9050919050565b5f819050919050565b5f60ff82169050919050565b5f819050919050565b5f61123961123461122f84611201565b611216565b61120a565b9050919050565b6112498161121f565b82525050565b5f6020820190506112625f830184611240565b92915050565b7f4f776e61626c653a206e6577206f776e657220697320746865207a65726f20615f8201527f6464726573730000000000000000000000000000000000000000000000000000602082015250565b5f6112c2602683610dfe565b91506112cd82611268565b604082019050919050565b5f6020820190508181035f8301526112ef816112b6565b9050919050565b5f6040820190506113095f830185610dd6565b6113166020830184610ffa565b9392505050565b7f4f776e61626c653a2063616c6c6572206973206e6f7420746865206f776e65725f82015250565b5f611351602083610dfe565b915061135c8261131d565b602082019050919050565b5f6020820190508181035f83015261137e81611345565b9050919050565b7f496e697469616c697a61626c653a20636f6e7472616374206973206e6f7420695f8201527f6e697469616c697a696e67000000000000000000000000000000000000000000602082015250565b5f6113df602b83610dfe565b91506113ea82611385565b604082019050919050565b5f6020820190508181035f83015261140c816113d3565b9050919050565b5f8151905061142181610d43565b92915050565b5f6020828403121561143c5761143b610c2f565b5b5f61144984828501611413565b91505092915050565b7f5361666545524332303a204552433230206f7065726174696f6e20646964206e5f8201527f6f74207375636365656400000000000000000000000000000000000000000000602082015250565b5f6114ac602a83610dfe565b91506114b782611452565b604082019050919050565b5f6020820190508181035f8301526114d9816114a0565b9050919050565b7f416464726573733a20696e73756666696369656e742062616c616e636520666f5f8201527f722063616c6c0000000000000000000000000000000000000000000000000000602082015250565b5f61153a602683610dfe565b9150611545826114e0565b604082019050919050565b5f6020820190508181035f8301526115678161152e565b9050919050565b5f81519050919050565b5f81905092915050565b8281835e5f83830152505050565b5f61159a8261156e565b6115a48185611578565b93506115b4818560208601611582565b80840191505092915050565b5f6115cb8284611590565b915081905092915050565b7f416464726573733a2063616c6c20746f206e6f6e2d636f6e74726163740000005f82015250565b5f61160a601d83610dfe565b9150611615826115d6565b602082019050919050565b5f6020820190508181035f830152611637816115fe565b9050919050565b5f81519050919050565b5f601f19601f8301169050919050565b5f6116628261163e565b61166c8185610dfe565b935061167c818560208601611582565b61168581611648565b840191505092915050565b5f6020820190508181035f8301526116a88184611658565b90509291505056fea2646970667358221220fa45ffba0e89dbffe5d9a39c9123845016e773975afac83378907736ac91b36164736f6c634300081a0033","linkReferences":{}},"methodIdentifiers":{"initialize()":"8129fc1c","isOperator(address)":"6d70f7ae","owner()":"8da5cb5b","renounceOwnership()":"715018a6","setOperator(address,bool)":"558a7297","transferOwnership(address)":"f2fde38b","withdrawFunds(address,address,uint256)":"1c20fadd"},"id":49}