{"abi":[{"type":"function","name":"initialize","inputs":[],"outputs":[],"stateMutability":"nonpayable"},{"type":"function","name":"isOperator","inputs":[{"name":"","type":"address","internalType":"address"}],"outputs":[{"name":"","type":"bool","internalType":"bool"}],"stateMutability":"view"},{"type":"function","name":"owner","inputs":[],"outputs":[{"name":"","type":"address","internalType":"address"}],"stateMutability":"view"},{"type":"function","name":"renounceOwnership","inputs":[],"outputs":[],"stateMutability":"nonpayable"},{"type":"function","name":"setOperator","inputs":[{"name":"_operator","type":"address","internalType":"address"},{"name":"_status","type":"bool","internalType":"bool"}],"outputs":[],"stateMutability":"nonpayable"},{"type":"function","name":"transferOwnership","inputs":[{"name":"newOwner","type":"address","internalType":"address"}],"outputs":[],"stateMutability":"nonpayable"},{"type":"function","name":"withdrawFunds","inputs":[{"name":"_token","type":"address","internalType":"address"},{"name":"_to","type":"address","internalType":"address"},{"name":"_amount","type":"uint256","internalType":"uint256"}],"outputs":[{"name":"success","type":"bool","internalType":"bool"}],"stateMutability":"nonpayable"},{"type":"event","name":"FundsWithdrawn","inputs":[{"name":"token","type":"address","indexed":false,"internalType":"address"},{"name":"to","type":"address","indexed":false,"internalType":"address"},{"name":"amount","type":"uint256","indexed":false,"internalType":"uint256"}],"anonymous":false},{"type":"event","name":"Initialized","inputs":[{"name":"version","type":"uint8","indexed":false,"internalType":"uint8"}],"anonymous":false},{"type":"event","name":"OwnershipTransferred","inputs":[{"name":"previousOwner","type":"address","indexed":true,"internalType":"address"},{"name":"newOwner","type":"address","indexed":true,"internalType":"address"}],"anonymous":false}],"bytecode":{"object":"0x6080604052348015600e575f80fd5b50610b288061001c5f395ff3fe608060405234801561000f575f80fd5b506004361061006b575f3560e01c80631c20fadd1461006f578063558a7297146100975780636d70f7ae146100ac578063715018a6146100ce5780638129fc1c146100d65780638da5cb5b146100de578063f2fde38b146100f9575b5f80fd5b61008261007d36600461098f565b61010c565b60405190151581526020015b60405180910390f35b6100aa6100a53660046109d5565b610391565b005b6100826100ba366004610a0a565b60656020525f908152604090205460ff1681565b6100aa610424565b6100aa610437565b6033546040516001600160a01b03909116815260200161008e565b6100aa610107366004610a0a565b610542565b335f9081526065602052604081205460ff1661017b5760405162461bcd60e51b815260206004820152602360248201527f4e65785661756c743a2063616c6c6572206973206e6f7420616e206f706572616044820152623a37b960e91b60648201526084015b60405180910390fd5b6001600160a01b0384166101d15760405162461bcd60e51b815260206004820152601f60248201527f4e65785661756c743a20746f6b656e2061646472657373206973207a65726f006044820152606401610172565b6001600160a01b0383166102335760405162461bcd60e51b815260206004820152602360248201527f4e65785661756c743a20726563697069656e742061646472657373206973207a60448201526265726f60e81b6064820152608401610172565b5f821161027d5760405162461bcd60e51b81526020600482015260186024820152774e65785661756c743a20616d6f756e74206973207a65726f60401b6044820152606401610172565b604080516001600160a01b038087168252851660208201529081018390527fa92ff919b850e4909ab2261d907ef955f11bc1716733a6cbece38d163a69af8a9060600160405180910390a16102dc6001600160a01b03851684846105b8565b6040516370a0823160e01b81526001600160a01b0384811660048301528391908616906370a0823190602401602060405180830381865afa158015610323573d5f803e3d5ffd5b505050506040513d601f19601f820116820180604052508101906103479190610a2a565b10156103875760405162461bcd60e51b815260206004820152600f60248201526e151c985b9cd9995c8819985a5b1959608a1b6044820152606401610172565b5060019392505050565b61039961060f565b6001600160a01b0382166103fa5760405162461bcd60e51b815260206004820152602260248201527f4e65785661756c743a206f70657261746f722061646472657373206973207a65604482015261726f60f01b6064820152608401610172565b6001600160a01b03919091165f908152606560205260409020805460ff1916911515919091179055565b61042c61060f565b6104355f610669565b565b5f54610100900460ff161580801561045557505f54600160ff909116105b8061046e5750303b15801561046e57505f5460ff166001145b6104d15760405162461bcd60e51b815260206004820152602e60248201527f496e697469616c697a61626c653a20636f6e747261637420697320616c72656160448201526d191e481a5b9a5d1a585b1a5e995960921b6064820152608401610172565b5f805460ff1916600117905580156104f2575f805461ff0019166101001790555b6104fa6106ba565b801561053f575f805461ff0019169055604051600181527f7f26b83ff96e1f2b6a682f133852f6798a09c465da95921460cefb38474024989060200160405180910390a15b50565b61054a61060f565b6001600160a01b0381166105af5760405162461bcd60e51b815260206004820152602660248201527f4f776e61626c653a206e6577206f776e657220697320746865207a65726f206160448201526564647265737360d01b6064820152608401610172565b61053f81610669565b604080516001600160a01b038416602482015260448082018490528251808303909101815260649091019091526020810180516001600160e01b031663a9059cbb60e01b17905261060a9084906106e8565b505050565b6033546001600160a01b031633146104355760405162461bcd60e51b815260206004820181905260248201527f4f776e61626c653a2063616c6c6572206973206e6f7420746865206f776e65726044820152606401610172565b603380546001600160a01b038381166001600160a01b0319831681179093556040519116919082907f8be0079c531659141344cd1fd0a4f28419497f9722a3daafe3b4186f6b6457e0905f90a35050565b5f54610100900460ff166106e05760405162461bcd60e51b815260040161017290610a41565b6104356107bb565b5f61073c826040518060400160405280602081526020017f5361666545524332303a206c6f772d6c6576656c2063616c6c206661696c6564815250856001600160a01b03166107ea9092919063ffffffff16565b905080515f148061075c57508080602001905181019061075c9190610a8c565b61060a5760405162461bcd60e51b815260206004820152602a60248201527f5361666545524332303a204552433230206f7065726174696f6e20646964206e6044820152691bdd081cdd58d8d9595960b21b6064820152608401610172565b5f54610100900460ff166107e15760405162461bcd60e51b815260040161017290610a41565b61043533610669565b60606107f884845f85610800565b949350505050565b6060824710156108615760405162461bcd60e51b815260206004820152602660248201527f416464726573733a20696e73756666696369656e742062616c616e636520666f6044820152651c8818d85b1b60d21b6064820152608401610172565b5f80866001600160a01b0316858760405161087c9190610aa7565b5f6040518083038185875af1925050503d805f81146108b6576040519150601f19603f3d011682016040523d82523d5f602084013e6108bb565b606091505b50915091506108cc878383876108d7565b979650505050505050565b606083156109455782515f0361093e576001600160a01b0385163b61093e5760405162461bcd60e51b815260206004820152601d60248201527f416464726573733a2063616c6c20746f206e6f6e2d636f6e74726163740000006044820152606401610172565b50816107f8565b6107f8838381511561095a5781518083602001fd5b8060405162461bcd60e51b81526004016101729190610abd565b80356001600160a01b038116811461098a575f80fd5b919050565b5f805f606084860312156109a1575f80fd5b6109aa84610974565b92506109b860208501610974565b9150604084013590509250925092565b801515811461053f575f80fd5b5f80604083850312156109e6575f80fd5b6109ef83610974565b915060208301356109ff816109c8565b809150509250929050565b5f60208284031215610a1a575f80fd5b610a2382610974565b9392505050565b5f60208284031215610a3a575f80fd5b5051919050565b6020808252602b908201527f496e697469616c697a61626c653a20636f6e7472616374206973206e6f74206960408201526a6e697469616c697a696e6760a81b606082015260800190565b5f60208284031215610a9c575f80fd5b8151610a23816109c8565b5f82518060208501845e5f920191825250919050565b602081525f82518060208401528060208501604085015e5f604082850101526040601f19601f8301168401019150509291505056fea2646970667358221220e818f0fbffd658a63989780ac3f561445dd0cbf1cb0611aa1afdbaa75e514adb64736f6c634300081a0033","linkReferences":{}},"methodIdentifiers":{"initialize()":"8129fc1c","isOperator(address)":"6d70f7ae","owner()":"8da5cb5b","renounceOwnership()":"715018a6","setOperator(address,bool)":"558a7297","transferOwnership(address)":"f2fde38b","withdrawFunds(address,address,uint256)":"1c20fadd"},"id":52}