{
  "abi": [
    {
      "inputs": [
        {
          "internalType": "address",
          "name": "router",
          "type": "address"
        },
        {
          "internalType": "address",
          "name": "link",
          "type": "address"
        }
      ],
      "stateMutability": "nonpayable",
      "type": "constructor"
    },
    {
      "inputs": [
        {
          "internalType": "address",
          "name": "owner",
          "type": "address"
        },
        {
          "internalType": "address",
          "name": "target",
          "type": "address"
        },
        {
          "internalType": "uint256",
          "name": "value",
          "type": "uint256"
        }
      ],
      "name": "FailedToWithdrawEth",
      "type": "error"
    },
    {
      "anonymous": false,
      "inputs": [
        {
          "indexed": false,
          "internalType": "bytes32",
          "name": "messageId",
          "type": "bytes32"
        }
      ],
      "name": "MessageSent",
      "type": "event"
    },
    {
      "anonymous": false,
      "inputs": [
        {
          "indexed": true,
          "internalType": "address",
          "name": "from",
          "type": "address"
        },
        {
          "indexed": true,
          "internalType": "address",
          "name": "to",
          "type": "address"
        }
      ],
      "name": "OwnershipTransferRequested",
      "type": "event"
    },
    {
      "anonymous": false,
      "inputs": [
        {
          "indexed": true,
          "internalType": "address",
          "name": "from",
          "type": "address"
        },
        {
          "indexed": true,
          "internalType": "address",
          "name": "to",
          "type": "address"
        }
      ],
      "name": "OwnershipTransferred",
      "type": "event"
    },
    {
      "inputs": [],
      "name": "acceptOwnership",
      "outputs": [],
      "stateMutability": "nonpayable",
      "type": "function"
    },
    {
      "inputs": [
        {
          "internalType": "uint64",
          "name": "destinationChainSelector",
          "type": "uint64"
        },
        {
          "internalType": "address",
          "name": "receiver",
          "type": "address"
        },
        {
          "internalType": "enum SourceMinter.PayFeesIn",
          "name": "payFeesIn",
          "type": "uint8"
        }
      ],
      "name": "mint",
      "outputs": [],
      "stateMutability": "nonpayable",
      "type": "function"
    },
    {
      "inputs": [],
      "name": "owner",
      "outputs": [
        {
          "internalType": "address",
          "name": "",
          "type": "address"
        }
      ],
      "stateMutability": "view",
      "type": "function"
    },
    {
      "inputs": [
        {
          "internalType": "address",
          "name": "to",
          "type": "address"
        }
      ],
      "name": "transferOwnership",
      "outputs": [],
      "stateMutability": "nonpayable",
      "type": "function"
    },
    {
      "inputs": [
        {
          "internalType": "address",
          "name": "beneficiary",
          "type": "address"
        }
      ],
      "name": "withdraw",
      "outputs": [],
      "stateMutability": "nonpayable",
      "type": "function"
    },
    {
      "inputs": [
        {
          "internalType": "address",
          "name": "beneficiary",
          "type": "address"
        },
        {
          "internalType": "address",
          "name": "token",
          "type": "address"
        }
      ],
      "name": "withdrawToken",
      "outputs": [],
      "stateMutability": "nonpayable",
      "type": "function"
    },
    {
      "stateMutability": "payable",
      "type": "receive"
    }
  ],
  "bytecode": {
    "object": "0x60c060405234801561001057600080fd5b50604051610cb7380380610cb783398101604081905261002f91610207565b33806000816100855760405162461bcd60e51b815260206004820152601860248201527f43616e6e6f7420736574206f776e657220746f207a65726f000000000000000060448201526064015b60405180910390fd5b600080546001600160a01b0319166001600160a01b03848116919091179091558116156100b5576100b581610142565b5050506001600160a01b03828116608081905290821660a081905260405163095ea7b360e01b8152600481019290925260001960248301529063095ea7b3906044016020604051808303816000875af1158015610116573d6000803e3d6000fd5b505050506040513d601f19601f8201168201806040525081019061013a919061023a565b505050610263565b336001600160a01b0382160361019a5760405162461bcd60e51b815260206004820152601760248201527f43616e6e6f74207472616e7366657220746f2073656c66000000000000000000604482015260640161007c565b600180546001600160a01b0319166001600160a01b0383811691821790925560008054604051929316917fed8889f560326eb138920d842192f0eb3dd22b4f139c87a2c57538e05bae12789190a350565b80516001600160a01b038116811461020257600080fd5b919050565b6000806040838503121561021a57600080fd5b610223836101eb565b9150610231602084016101eb565b90509250929050565b60006020828403121561024c57600080fd5b8151801515811461025c57600080fd5b9392505050565b60805160a051610a21610296600039600061044301526000818161048a0152818161054b01526105e30152610a216000f3fe6080604052600436106100595760003560e01c80633aeac4e11461006557806351cff8d91461008757806379ba5097146100a75780638da5cb5b146100bc578063ec99afa2146100e8578063f2fde38b1461010857600080fd5b3661006057005b600080fd5b34801561007157600080fd5b506100856100803660046107cb565b610128565b005b34801561009357600080fd5b506100856100a23660046107fe565b610218565b3480156100b357600080fd5b506100856102b6565b3480156100c857600080fd5b50600054604080516001600160a01b039092168252519081900360200190f35b3480156100f457600080fd5b50610085610103366004610820565b610360565b34801561011457600080fd5b506100856101233660046107fe565b61069d565b6101306106b1565b6040516370a0823160e01b81523060048201526000906001600160a01b038316906370a0823190602401602060405180830381865afa158015610177573d6000803e3d6000fd5b505050506040513d601f19601f8201168201806040525081019061019b919061087a565b60405163a9059cbb60e01b81526001600160a01b038581166004830152602482018390529192509083169063a9059cbb906044016020604051808303816000875af11580156101ee573d6000803e3d6000fd5b505050506040513d601f19601f820116820180604052508101906102129190610893565b50505050565b6102206106b1565b60405147906000906001600160a01b0384169083908381818185875af1925050503d806000811461026d576040519150601f19603f3d011682016040523d82523d6000602084013e610272565b606091505b50509050806102b157604051639d11f56360e01b81523360048201526001600160a01b0384166024820152604481018390526064015b60405180910390fd5b505050565b6001546001600160a01b031633146103095760405162461bcd60e51b815260206004820152601660248201527526bab9ba10313290383937b837b9b2b21037bbb732b960511b60448201526064016102a8565b60008054336001600160a01b0319808316821784556001805490911690556040516001600160a01b0390921692909183917f8be0079c531659141344cd1fd0a4f28419497f9722a3daafe3b4186f6b6457e091a350565b6040805160a081019091526001600160a01b03831660c08201526000908060e0810160408051808303601f190181529181529082525133602482015260209091019060440160408051601f19818403018152919052602080820180516001600160e01b03166335313c2160e11b17905290825201600060405190808252806020026020018201604052801561041b57816020015b60408051808201909152600080825260208201528152602001906001900390816103f45790505b5081526020016001846001811115610435576104356108b5565b14610441576000610463565b7f00000000000000000000000000000000000000000000000000000000000000005b6001600160a01b0316815260200160405180602001604052806000815250815250905060007f00000000000000000000000000000000000000000000000000000000000000006001600160a01b03166320487ded86846040518363ffffffff1660e01b81526004016104d6929190610911565b602060405180830381865afa1580156104f3573d6000803e3d6000fd5b505050506040513d601f19601f82011682018060405250810190610517919061087a565b90506000600184600181111561052f5761052f6108b5565b036105cc576040516396f4e9f960e01b81526001600160a01b037f000000000000000000000000000000000000000000000000000000000000000016906396f4e9f9906105829089908790600401610911565b6020604051808303816000875af11580156105a1573d6000803e3d6000fd5b505050506040513d601f19601f820116820180604052508101906105c5919061087a565b9050610662565b6040516396f4e9f960e01b81526001600160a01b037f000000000000000000000000000000000000000000000000000000000000000016906396f4e9f990849061061c908a908890600401610911565b60206040518083038185885af115801561063a573d6000803e3d6000fd5b50505050506040513d601f19601f8201168201806040525081019061065f919061087a565b90505b6040518181527f54791b38f3859327992a1ca0590ad3c0f08feba98d1a4f56ab0dca74d203392a9060200160405180910390a1505050505050565b6106a56106b1565b6106ae81610706565b50565b6000546001600160a01b031633146107045760405162461bcd60e51b815260206004820152601660248201527527b7363c9031b0b63630b1363290313c9037bbb732b960511b60448201526064016102a8565b565b336001600160a01b0382160361075e5760405162461bcd60e51b815260206004820152601760248201527f43616e6e6f74207472616e7366657220746f2073656c6600000000000000000060448201526064016102a8565b600180546001600160a01b0319166001600160a01b0383811691821790925560008054604051929316917fed8889f560326eb138920d842192f0eb3dd22b4f139c87a2c57538e05bae12789190a350565b80356001600160a01b03811681146107c657600080fd5b919050565b600080604083850312156107de57600080fd5b6107e7836107af565b91506107f5602084016107af565b90509250929050565b60006020828403121561081057600080fd5b610819826107af565b9392505050565b60008060006060848603121561083557600080fd5b833567ffffffffffffffff8116811461084d57600080fd5b925061085b602085016107af565b915060408401356002811061086f57600080fd5b809150509250925092565b60006020828403121561088c57600080fd5b5051919050565b6000602082840312156108a557600080fd5b8151801515811461081957600080fd5b634e487b7160e01b600052602160045260246000fd5b6000815180845260005b818110156108f1576020818501810151868301820152016108d5565b506000602082860101526020601f19601f83011685010191505092915050565b6000604067ffffffffffffffff8516835260208181850152845160a08386015261093e60e08601826108cb565b905081860151603f198087840301606088015261095b83836108cb565b88860151888203830160808a01528051808352908601945060009350908501905b808410156109ae57845180516001600160a01b031683528601518683015293850193600193909301929086019061097c565b5060608901516001600160a01b031660a08901526080890151888203830160c08a015295506109dd81876108cb565b9a995050505050505050505056fea264697066735822122080946ba4ac23e81956dfacc80d87e1023ad020480dd20b679b4cd3738c1ab2bf64736f6c63430008110033",
    "linkReferences": {}
  },
  "methodIdentifiers": {
    "acceptOwnership()": "79ba5097",
    "mint(uint64,address,uint8)": "ec99afa2",
    "owner()": "8da5cb5b",
    "transferOwnership(address)": "f2fde38b",
    "withdraw(address)": "51cff8d9",
    "withdrawToken(address,address)": "3aeac4e1"
  },
  "id": 10
}