{
  "abi": [
    {
      "inputs": [
        {
          "internalType": "address",
          "name": "router",
          "type": "address"
        },
        {
          "internalType": "address",
          "name": "link",
          "type": "address"
        }
      ],
      "stateMutability": "nonpayable",
      "type": "constructor"
    },
    {
      "inputs": [
        {
          "internalType": "address",
          "name": "owner",
          "type": "address"
        },
        {
          "internalType": "address",
          "name": "target",
          "type": "address"
        },
        {
          "internalType": "uint256",
          "name": "value",
          "type": "uint256"
        }
      ],
      "name": "FailedToWithdrawEth",
      "type": "error"
    },
    {
      "anonymous": false,
      "inputs": [
        {
          "indexed": false,
          "internalType": "bytes32",
          "name": "messageId",
          "type": "bytes32"
        }
      ],
      "name": "MessageSent",
      "type": "event"
    },
    {
      "anonymous": false,
      "inputs": [
        {
          "indexed": true,
          "internalType": "address",
          "name": "from",
          "type": "address"
        },
        {
          "indexed": true,
          "internalType": "address",
          "name": "to",
          "type": "address"
        }
      ],
      "name": "OwnershipTransferRequested",
      "type": "event"
    },
    {
      "anonymous": false,
      "inputs": [
        {
          "indexed": true,
          "internalType": "address",
          "name": "from",
          "type": "address"
        },
        {
          "indexed": true,
          "internalType": "address",
          "name": "to",
          "type": "address"
        }
      ],
      "name": "OwnershipTransferred",
      "type": "event"
    },
    {
      "inputs": [],
      "name": "acceptOwnership",
      "outputs": [],
      "stateMutability": "nonpayable",
      "type": "function"
    },
    {
      "inputs": [],
      "name": "owner",
      "outputs": [
        {
          "internalType": "address",
          "name": "",
          "type": "address"
        }
      ],
      "stateMutability": "view",
      "type": "function"
    },
    {
      "inputs": [
        {
          "internalType": "uint64",
          "name": "destinationChainSelector",
          "type": "uint64"
        },
        {
          "internalType": "address",
          "name": "receiver",
          "type": "address"
        },
        {
          "internalType": "string",
          "name": "messageText",
          "type": "string"
        },
        {
          "internalType": "enum BasicMessageSender.PayFeesIn",
          "name": "payFeesIn",
          "type": "uint8"
        }
      ],
      "name": "send",
      "outputs": [],
      "stateMutability": "nonpayable",
      "type": "function"
    },
    {
      "inputs": [
        {
          "internalType": "address",
          "name": "to",
          "type": "address"
        }
      ],
      "name": "transferOwnership",
      "outputs": [],
      "stateMutability": "nonpayable",
      "type": "function"
    },
    {
      "inputs": [
        {
          "internalType": "address",
          "name": "beneficiary",
          "type": "address"
        }
      ],
      "name": "withdraw",
      "outputs": [],
      "stateMutability": "nonpayable",
      "type": "function"
    },
    {
      "inputs": [
        {
          "internalType": "address",
          "name": "beneficiary",
          "type": "address"
        },
        {
          "internalType": "address",
          "name": "token",
          "type": "address"
        }
      ],
      "name": "withdrawToken",
      "outputs": [],
      "stateMutability": "nonpayable",
      "type": "function"
    },
    {
      "stateMutability": "payable",
      "type": "receive"
    }
  ],
  "bytecode": {
    "object": "0x60c060405234801561001057600080fd5b50604051610d6b380380610d6b83398101604081905261002f91610207565b33806000816100855760405162461bcd60e51b815260206004820152601860248201527f43616e6e6f7420736574206f776e657220746f207a65726f000000000000000060448201526064015b60405180910390fd5b600080546001600160a01b0319166001600160a01b03848116919091179091558116156100b5576100b581610142565b5050506001600160a01b03828116608081905290821660a081905260405163095ea7b360e01b8152600481019290925260001960248301529063095ea7b3906044016020604051808303816000875af1158015610116573d6000803e3d6000fd5b505050506040513d601f19601f8201168201806040525081019061013a919061023a565b505050610263565b336001600160a01b0382160361019a5760405162461bcd60e51b815260206004820152601760248201527f43616e6e6f74207472616e7366657220746f2073656c66000000000000000000604482015260640161007c565b600180546001600160a01b0319166001600160a01b0383811691821790925560008054604051929316917fed8889f560326eb138920d842192f0eb3dd22b4f139c87a2c57538e05bae12789190a350565b80516001600160a01b038116811461020257600080fd5b919050565b6000806040838503121561021a57600080fd5b610223836101eb565b9150610231602084016101eb565b90509250929050565b60006020828403121561024c57600080fd5b8151801515811461025c57600080fd5b9392505050565b60805160a051610ad561029660003960006101f301526000818161023a015281816102fb01526103930152610ad56000f3fe6080604052600436106100595760003560e01c80632c101b17146100655780633aeac4e11461008757806351cff8d9146100a757806379ba5097146100c75780638da5cb5b146100dc578063f2fde38b1461010857600080fd5b3661006057005b600080fd5b34801561007157600080fd5b506100856100803660046107d9565b610128565b005b34801561009357600080fd5b506100856100a23660046108c6565b61044e565b3480156100b357600080fd5b506100856100c23660046108f9565b61053e565b3480156100d357600080fd5b506100856105dc565b3480156100e857600080fd5b50600054604080516001600160a01b039092168252519081900360200190f35b34801561011457600080fd5b506100856101233660046108f9565b610686565b6040805160a081019091526001600160a01b03841660c08201526000908060e0810160405160208183030381529060405281526020018460405160200161016f9190610961565b60408051601f19818403018152919052815260200160006040519080825280602002602001820160405280156101cb57816020015b60408051808201909152600080825260208201528152602001906001900390816101a45790505b50815260200160018460018111156101e5576101e5610974565b146101f1576000610213565b7f00000000000000000000000000000000000000000000000000000000000000005b6001600160a01b0316815260200160405180602001604052806000815250815250905060007f00000000000000000000000000000000000000000000000000000000000000006001600160a01b03166320487ded87846040518363ffffffff1660e01b815260040161028692919061098a565b602060405180830381865afa1580156102a3573d6000803e3d6000fd5b505050506040513d601f19601f820116820180604052508101906102c79190610a64565b9050600060018460018111156102df576102df610974565b0361037c576040516396f4e9f960e01b81526001600160a01b037f000000000000000000000000000000000000000000000000000000000000000016906396f4e9f990610332908a90879060040161098a565b6020604051808303816000875af1158015610351573d6000803e3d6000fd5b505050506040513d601f19601f820116820180604052508101906103759190610a64565b9050610412565b6040516396f4e9f960e01b81526001600160a01b037f000000000000000000000000000000000000000000000000000000000000000016906396f4e9f99084906103cc908b90889060040161098a565b60206040518083038185885af11580156103ea573d6000803e3d6000fd5b50505050506040513d601f19601f8201168201806040525081019061040f9190610a64565b90505b6040518181527f54791b38f3859327992a1ca0590ad3c0f08feba98d1a4f56ab0dca74d203392a9060200160405180910390a150505050505050565b61045661069a565b6040516370a0823160e01b81523060048201526000906001600160a01b038316906370a0823190602401602060405180830381865afa15801561049d573d6000803e3d6000fd5b505050506040513d601f19601f820116820180604052508101906104c19190610a64565b60405163a9059cbb60e01b81526001600160a01b038581166004830152602482018390529192509083169063a9059cbb906044016020604051808303816000875af1158015610514573d6000803e3d6000fd5b505050506040513d601f19601f820116820180604052508101906105389190610a7d565b50505050565b61054661069a565b60405147906000906001600160a01b0384169083908381818185875af1925050503d8060008114610593576040519150601f19603f3d011682016040523d82523d6000602084013e610598565b606091505b50509050806105d757604051639d11f56360e01b81523360048201526001600160a01b0384166024820152604481018390526064015b60405180910390fd5b505050565b6001546001600160a01b0316331461062f5760405162461bcd60e51b815260206004820152601660248201527526bab9ba10313290383937b837b9b2b21037bbb732b960511b60448201526064016105ce565b60008054336001600160a01b0319808316821784556001805490911690556040516001600160a01b0390921692909183917f8be0079c531659141344cd1fd0a4f28419497f9722a3daafe3b4186f6b6457e091a350565b61068e61069a565b610697816106ef565b50565b6000546001600160a01b031633146106ed5760405162461bcd60e51b815260206004820152601660248201527527b7363c9031b0b63630b1363290313c9037bbb732b960511b60448201526064016105ce565b565b336001600160a01b038216036107475760405162461bcd60e51b815260206004820152601760248201527f43616e6e6f74207472616e7366657220746f2073656c6600000000000000000060448201526064016105ce565b600180546001600160a01b0319166001600160a01b0383811691821790925560008054604051929316917fed8889f560326eb138920d842192f0eb3dd22b4f139c87a2c57538e05bae12789190a350565b80356001600160a01b03811681146107af57600080fd5b919050565b634e487b7160e01b600052604160045260246000fd5b8035600281106107af57600080fd5b600080600080608085870312156107ef57600080fd5b843567ffffffffffffffff808216821461080857600080fd5b81955061081760208801610798565b9450604087013591508082111561082d57600080fd5b818701915087601f83011261084157600080fd5b813581811115610853576108536107b4565b604051601f8201601f19908116603f0116810190838211818310171561087b5761087b6107b4565b816040528281528a602084870101111561089457600080fd5b8260208601602083013760006020848301015280965050505050506108bb606086016107ca565b905092959194509250565b600080604083850312156108d957600080fd5b6108e283610798565b91506108f060208401610798565b90509250929050565b60006020828403121561090b57600080fd5b61091482610798565b9392505050565b6000815180845260005b8181101561094157602081850181015186830182015201610925565b506000602082860101526020601f19601f83011685010191505092915050565b602081526000610914602083018461091b565b634e487b7160e01b600052602160045260246000fd5b6000604067ffffffffffffffff8516835260208181850152845160a0838601526109b760e086018261091b565b905081860151603f19808784030160608801526109d4838361091b565b88860151888203830160808a01528051808352908601945060009350908501905b80841015610a2757845180516001600160a01b03168352860151868301529385019360019390930192908601906109f5565b5060608901516001600160a01b031660a08901526080890151888203830160c08a01529550610a56818761091b565b9a9950505050505050505050565b600060208284031215610a7657600080fd5b5051919050565b600060208284031215610a8f57600080fd5b8151801515811461091457600080fdfea26469706673582212208db85a0675cb1576fde9aa1f125ef6c9730fee4de4ab558f43d4325ecd63900464736f6c63430008110033",
    "linkReferences": {}
  },
  "methodIdentifiers": {
    "acceptOwnership()": "79ba5097",
    "owner()": "8da5cb5b",
    "send(uint64,address,string,uint8)": "2c101b17",
    "transferOwnership(address)": "f2fde38b",
    "withdraw(address)": "51cff8d9",
    "withdrawToken(address,address)": "3aeac4e1"
  },
  "id": 3
}