{"abi":[{"type":"function","name":"allCurrentChainSelectorTokenShares","inputs":[{"name":"_chainSelector","type":"uint64","internalType":"uint64"}],"outputs":[{"name":"","type":"uint256[]","internalType":"uint256[]"}],"stateMutability":"view"},{"type":"function","name":"allCurrentChainSelectorTokens","inputs":[{"name":"_chainSelector","type":"uint64","internalType":"uint64"}],"outputs":[{"name":"tokens","type":"address[]","internalType":"address[]"}],"stateMutability":"view"},{"type":"function","name":"allCurrentChainSelectorVersions","inputs":[{"name":"_chainSelector","type":"uint64","internalType":"uint64"}],"outputs":[{"name":"versions","type":"uint256[]","internalType":"uint256[]"}],"stateMutability":"view"},{"type":"function","name":"allOracleChainSelectorTokenShares","inputs":[{"name":"_chainSelector","type":"uint64","internalType":"uint64"}],"outputs":[{"name":"","type":"uint256[]","internalType":"uint256[]"}],"stateMutability":"view"},{"type":"function","name":"allOracleChainSelectorTokens","inputs":[{"name":"_chainSelector","type":"uint64","internalType":"uint64"}],"outputs":[{"name":"tokens","type":"address[]","internalType":"address[]"}],"stateMutability":"view"},{"type":"function","name":"allOracleChainSelectorVersions","inputs":[{"name":"_chainSelector","type":"uint64","internalType":"uint64"}],"outputs":[{"name":"versions","type":"uint256[]","internalType":"uint256[]"}],"stateMutability":"view"},{"type":"function","name":"concatenation","inputs":[{"name":"a","type":"string","internalType":"string"},{"name":"b","type":"string","internalType":"string"}],"outputs":[{"name":"","type":"string","internalType":"string"}],"stateMutability":"pure"},{"type":"function","name":"crossChainFactoryBySelector","inputs":[{"name":"","type":"uint64","internalType":"uint64"}],"outputs":[{"name":"","type":"address","internalType":"address"}],"stateMutability":"view"},{"type":"function","name":"crossChainToken","inputs":[{"name":"","type":"uint64","internalType":"uint64"}],"outputs":[{"name":"","type":"address","internalType":"address"}],"stateMutability":"view"},{"type":"function","name":"crossChainTokenSwapFee","inputs":[{"name":"","type":"uint64","internalType":"uint64"},{"name":"","type":"address","internalType":"address"}],"outputs":[{"name":"","type":"uint24","internalType":"uint24"}],"stateMutability":"view"},{"type":"function","name":"currentChainSelector","inputs":[],"outputs":[{"name":"","type":"uint64","internalType":"uint64"}],"stateMutability":"view"},{"type":"function","name":"currentChainSelectorTokensCount","inputs":[{"name":"_chainSelector","type":"uint64","internalType":"uint64"}],"outputs":[{"name":"","type":"uint256","internalType":"uint256"}],"stateMutability":"view"},{"type":"function","name":"currentChainSelectorsCount","inputs":[],"outputs":[{"name":"","type":"uint256","internalType":"uint256"}],"stateMutability":"view"},{"type":"function","name":"currentFilledCount","inputs":[],"outputs":[{"name":"","type":"uint256","internalType":"uint256"}],"stateMutability":"view"},{"type":"function","name":"currentList","inputs":[{"name":"","type":"uint256","internalType":"uint256"}],"outputs":[{"name":"","type":"address","internalType":"address"}],"stateMutability":"view"},{"type":"function","name":"estimateAmountOut","inputs":[{"name":"tokenIn","type":"address","internalType":"address"},{"name":"tokenOut","type":"address","internalType":"address"},{"name":"amountIn","type":"uint128","internalType":"uint128"}],"outputs":[{"name":"amountOut","type":"uint256","internalType":"uint256"}],"stateMutability":"view"},{"type":"function","name":"externalJobId","inputs":[],"outputs":[{"name":"","type":"bytes32","internalType":"bytes32"}],"stateMutability":"view"},{"type":"function","name":"factoryV2","inputs":[],"outputs":[{"name":"","type":"address","internalType":"contract IUniswapV2Factory"}],"stateMutability":"view"},{"type":"function","name":"factoryV3","inputs":[],"outputs":[{"name":"","type":"address","internalType":"contract IUniswapV3Factory"}],"stateMutability":"view"},{"type":"function","name":"feeRate","inputs":[],"outputs":[{"name":"","type":"uint8","internalType":"uint8"}],"stateMutability":"view"},{"type":"function","name":"fulfillAssetsData","inputs":[{"name":"requestId","type":"bytes32","internalType":"bytes32"},{"name":"_tokens","type":"address[]","internalType":"address[]"},{"name":"_marketShares","type":"uint256[]","internalType":"uint256[]"},{"name":"_swapFees","type":"uint24[]","internalType":"uint24[]"},{"name":"_chainSelectors","type":"uint64[]","internalType":"uint64[]"}],"outputs":[],"stateMutability":"nonpayable"},{"type":"function","name":"getAmountOut","inputs":[{"name":"tokenIn","type":"address","internalType":"address"},{"name":"tokenOut","type":"address","internalType":"address"},{"name":"amountIn","type":"uint256","internalType":"uint256"},{"name":"_swapFee","type":"uint24","internalType":"uint24"}],"outputs":[{"name":"finalAmountOutValue","type":"uint256","internalType":"uint256"}],"stateMutability":"view"},{"type":"function","name":"getCurrentChainSelectorTotalShares","inputs":[{"name":"index","type":"uint256","internalType":"uint256"},{"name":"chainSelector","type":"uint64","internalType":"uint64"}],"outputs":[{"name":"","type":"uint256","internalType":"uint256"}],"stateMutability":"view"},{"type":"function","name":"getCurrentData","inputs":[{"name":"index","type":"uint256","internalType":"uint256"}],"outputs":[{"name":"tokens","type":"address[]","internalType":"address[]"},{"name":"marketShares","type":"uint256[]","internalType":"uint256[]"},{"name":"swapFees","type":"uint24[]","internalType":"uint24[]"},{"name":"chainSelectors","type":"uint64[]","internalType":"uint64[]"}],"stateMutability":"view"},{"type":"function","name":"getOracleData","inputs":[{"name":"index","type":"uint256","internalType":"uint256"}],"outputs":[{"name":"tokens","type":"address[]","internalType":"address[]"},{"name":"marketShares","type":"uint256[]","internalType":"uint256[]"},{"name":"swapFees","type":"uint256[]","internalType":"uint256[]"},{"name":"chainSelectors","type":"uint64[]","internalType":"uint64[]"}],"stateMutability":"view"},{"type":"function","name":"getPortfolioBalance","inputs":[],"outputs":[{"name":"","type":"uint256","internalType":"uint256"}],"stateMutability":"view"},{"type":"function","name":"indexFactory","inputs":[],"outputs":[{"name":"","type":"address","internalType":"address"}],"stateMutability":"view"},{"type":"function","name":"indexFactoryBalancer","inputs":[],"outputs":[{"name":"","type":"address","internalType":"address"}],"stateMutability":"view"},{"type":"function","name":"indexToken","inputs":[],"outputs":[{"name":"","type":"address","internalType":"contract IndexToken"}],"stateMutability":"view"},{"type":"function","name":"initialize","inputs":[{"name":"_currentChainSelector","type":"uint64","internalType":"uint64"},{"name":"_token","type":"address","internalType":"address payable"},{"name":"_chainlinkToken","type":"address","internalType":"address"},{"name":"_oracleAddress","type":"address","internalType":"address"},{"name":"_externalJobId","type":"bytes32","internalType":"bytes32"},{"name":"_toUsdPriceFeed","type":"address","internalType":"address"},{"name":"_weth","type":"address","internalType":"address"},{"name":"_swapRouterV3","type":"address","internalType":"address"},{"name":"_factoryV3","type":"address","internalType":"address"},{"name":"_swapRouterV2","type":"address","internalType":"address"},{"name":"_factoryV2","type":"address","internalType":"address"}],"outputs":[],"stateMutability":"nonpayable"},{"type":"function","name":"lastUpdateTime","inputs":[],"outputs":[{"name":"","type":"uint256","internalType":"uint256"}],"stateMutability":"view"},{"type":"function","name":"latestFeeUpdate","inputs":[],"outputs":[{"name":"","type":"uint256","internalType":"uint256"}],"stateMutability":"view"},{"type":"function","name":"mockFillAssetsList","inputs":[{"name":"_tokens","type":"address[]","internalType":"address[]"},{"name":"_marketShares","type":"uint256[]","internalType":"uint256[]"},{"name":"_swapFees","type":"uint24[]","internalType":"uint24[]"},{"name":"_chainSelectors","type":"uint64[]","internalType":"uint64[]"}],"outputs":[],"stateMutability":"nonpayable"},{"type":"function","name":"mockUpdateCurrentList","inputs":[],"outputs":[],"stateMutability":"nonpayable"},{"type":"function","name":"oracleChainSelectorTokensCount","inputs":[{"name":"_chainSelector","type":"uint64","internalType":"uint64"}],"outputs":[{"name":"","type":"uint256","internalType":"uint256"}],"stateMutability":"view"},{"type":"function","name":"oracleChainSelectorsCount","inputs":[],"outputs":[{"name":"","type":"uint256","internalType":"uint256"}],"stateMutability":"view"},{"type":"function","name":"oracleFilledCount","inputs":[],"outputs":[{"name":"","type":"uint256","internalType":"uint256"}],"stateMutability":"view"},{"type":"function","name":"oracleList","inputs":[{"name":"","type":"uint256","internalType":"uint256"}],"outputs":[{"name":"","type":"address","internalType":"address"}],"stateMutability":"view"},{"type":"function","name":"oraclePayment","inputs":[],"outputs":[{"name":"","type":"uint256","internalType":"uint256"}],"stateMutability":"view"},{"type":"function","name":"owner","inputs":[],"outputs":[{"name":"","type":"address","internalType":"address"}],"stateMutability":"view"},{"type":"function","name":"priceInWei","inputs":[],"outputs":[{"name":"","type":"uint256","internalType":"uint256"}],"stateMutability":"view"},{"type":"function","name":"priceOracle","inputs":[],"outputs":[{"name":"","type":"address","internalType":"address"}],"stateMutability":"view"},{"type":"function","name":"proposeOwner","inputs":[{"name":"_proposedOwner","type":"address","internalType":"address"}],"outputs":[],"stateMutability":"nonpayable"},{"type":"function","name":"proposedOwner","inputs":[],"outputs":[{"name":"","type":"address","internalType":"address"}],"stateMutability":"view"},{"type":"function","name":"quoter","inputs":[],"outputs":[{"name":"","type":"address","internalType":"contract IQuoter"}],"stateMutability":"view"},{"type":"function","name":"renounceOwnership","inputs":[],"outputs":[],"stateMutability":"nonpayable"},{"type":"function","name":"requestAssetsData","inputs":[],"outputs":[{"name":"","type":"bytes32","internalType":"bytes32"}],"stateMutability":"nonpayable"},{"type":"function","name":"setCrossChainFactory","inputs":[{"name":"_crossChainFactoryAddress","type":"address","internalType":"address"},{"name":"_chainSelector","type":"uint64","internalType":"uint64"}],"outputs":[],"stateMutability":"nonpayable"},{"type":"function","name":"setCrossChainToken","inputs":[{"name":"_chainSelector","type":"uint64","internalType":"uint64"},{"name":"_crossChainToken","type":"address","internalType":"address"},{"name":"_swapFee","type":"uint24","internalType":"uint24"}],"outputs":[],"stateMutability":"nonpayable"},{"type":"function","name":"setIndexFactory","inputs":[{"name":"_indexFactory","type":"address","internalType":"address"}],"outputs":[],"stateMutability":"nonpayable"},{"type":"function","name":"setIndexFactoryBalancer","inputs":[{"name":"_indexFactoryBalancer","type":"address","internalType":"address"}],"outputs":[],"stateMutability":"nonpayable"},{"type":"function","name":"setPriceFeed","inputs":[{"name":"_toUsdPricefeed","type":"address","internalType":"address"}],"outputs":[],"stateMutability":"nonpayable"},{"type":"function","name":"setPriceOracle","inputs":[{"name":"_priceOracle","type":"address","internalType":"address"}],"outputs":[],"stateMutability":"nonpayable"},{"type":"function","name":"setUrl","inputs":[{"name":"_beforeAddress","type":"string","internalType":"string"},{"name":"_afterAddress","type":"string","internalType":"string"}],"outputs":[],"stateMutability":"nonpayable"},{"type":"function","name":"setVault","inputs":[{"name":"_vaultAddress","type":"address","internalType":"address"}],"outputs":[],"stateMutability":"nonpayable"},{"type":"function","name":"swapRouterV2","inputs":[],"outputs":[{"name":"","type":"address","internalType":"contract IUniswapV2Router02"}],"stateMutability":"view"},{"type":"function","name":"swapRouterV3","inputs":[],"outputs":[{"name":"","type":"address","internalType":"contract ISwapRouter"}],"stateMutability":"view"},{"type":"function","name":"toUsdPriceFeed","inputs":[],"outputs":[{"name":"","type":"address","internalType":"contract AggregatorV3Interface"}],"stateMutability":"view"},{"type":"function","name":"tokenChainSelector","inputs":[{"name":"","type":"address","internalType":"address"}],"outputs":[{"name":"","type":"uint64","internalType":"uint64"}],"stateMutability":"view"},{"type":"function","name":"tokenCurrentListIndex","inputs":[{"name":"","type":"address","internalType":"address"}],"outputs":[{"name":"","type":"uint256","internalType":"uint256"}],"stateMutability":"view"},{"type":"function","name":"tokenCurrentMarketShare","inputs":[{"name":"","type":"address","internalType":"address"}],"outputs":[{"name":"","type":"uint256","internalType":"uint256"}],"stateMutability":"view"},{"type":"function","name":"tokenOracleListIndex","inputs":[{"name":"","type":"address","internalType":"address"}],"outputs":[{"name":"","type":"uint256","internalType":"uint256"}],"stateMutability":"view"},{"type":"function","name":"tokenOracleMarketShare","inputs":[{"name":"","type":"address","internalType":"address"}],"outputs":[{"name":"","type":"uint256","internalType":"uint256"}],"stateMutability":"view"},{"type":"function","name":"tokenSwapFee","inputs":[{"name":"","type":"address","internalType":"address"}],"outputs":[{"name":"","type":"uint24","internalType":"uint24"}],"stateMutability":"view"},{"type":"function","name":"totalCurrentChainSelectors","inputs":[],"outputs":[{"name":"","type":"uint256","internalType":"uint256"}],"stateMutability":"view"},{"type":"function","name":"totalCurrentList","inputs":[],"outputs":[{"name":"","type":"uint256","internalType":"uint256"}],"stateMutability":"view"},{"type":"function","name":"totalOracleChainSelectors","inputs":[],"outputs":[{"name":"","type":"uint256","internalType":"uint256"}],"stateMutability":"view"},{"type":"function","name":"totalOracleList","inputs":[],"outputs":[{"name":"","type":"uint256","internalType":"uint256"}],"stateMutability":"view"},{"type":"function","name":"transferOwnership","inputs":[{"name":"newOwner","type":"address","internalType":"address"}],"outputs":[],"stateMutability":"nonpayable"},{"type":"function","name":"updateCurrentList","inputs":[],"outputs":[],"stateMutability":"nonpayable"},{"type":"function","name":"vault","inputs":[],"outputs":[{"name":"","type":"address","internalType":"contract Vault"}],"stateMutability":"view"},{"type":"function","name":"weth","inputs":[],"outputs":[{"name":"","type":"address","internalType":"contract IWETH"}],"stateMutability":"view"},{"type":"event","name":"ChainlinkCancelled","inputs":[{"name":"id","type":"bytes32","indexed":true,"internalType":"bytes32"}],"anonymous":false},{"type":"event","name":"ChainlinkFulfilled","inputs":[{"name":"id","type":"bytes32","indexed":true,"internalType":"bytes32"}],"anonymous":false},{"type":"event","name":"ChainlinkRequested","inputs":[{"name":"id","type":"bytes32","indexed":true,"internalType":"bytes32"}],"anonymous":false},{"type":"event","name":"Initialized","inputs":[{"name":"version","type":"uint8","indexed":false,"internalType":"uint8"}],"anonymous":false},{"type":"event","name":"OwnershipTransferred","inputs":[{"name":"previousOwner","type":"address","indexed":true,"internalType":"address"},{"name":"newOwner","type":"address","indexed":true,"internalType":"address"}],"anonymous":false}],"bytecode":{"object":"0x608060405234801561001057600080fd5b5061779780620000216000396000f3fe608060405234801561001057600080fd5b50600436106104285760003560e01c80638da5cb5b1161022b578063bf0d49c011610130578063dd811ac9116100b8578063f0cd5b7211610087578063f0cd5b7214610d6b578063f158178714610d87578063f2fde38b14610da5578063fbfa77cf14610dc1578063fc698b4a14610ddf57610428565b8063dd811ac914610ccf578063e3fd0af214610cff578063e7d015f214610d1d578063ea8ecf0414610d3b57610428565b8063d047937f116100ff578063d047937f14610c02578063d050ca7c14610c1e578063d153b60c14610c4e578063d1c68aa314610c6c578063d3f7f26614610c9c57610428565b8063bf0d49c014610b78578063c6bbd5a714610ba8578063c8599ded14610bc6578063c8f33c9114610be457610428565b8063a8509fd8116101b3578063b2c44b3f11610182578063b2c44b3f14610ad4578063b5ed298a14610af0578063b631e80b14610b0c578063b6ad185b14610b2a578063b90b8a2a14610b5a57610428565b8063a8509fd814610a4c578063a8b54bd414610a6a578063ae214f3914610a88578063af696b3414610aa457610428565b8063978bbdb9116101fa578063978bbdb9146109965780639932ba4c146109b45780639ebe560e146109e4578063a1adff8814610a00578063a73e1cbf14610a3057610428565b80638da5cb5b1461090c5780638e9d7c181461092a578063914f0cc61461094857806392e410ce1461097857610428565b80634b3e0b801161033157806369487b1c116102b95780637ca58c55116102885780637ca58c551461087a57806380acffa3146108985780638baa6bf1146108b65780638bb8f1bb146108c05780638c88c10c146108dc57610428565b806369487b1c14610818578063715018a614610836578063724e78da14610840578063744fbc7a1461085c57610428565b806353fd43321161030057806353fd43321461077257806363973fda14610790578063652354ae146107ae5780636817031b146107de57806368e0d4e1146107fa57610428565b80634b3e0b80146106e95780634f9641b914610719578063530e784f14610723578063536e3f6a1461073f57610428565b80632630c12f116103b45780633259966511610383578063325996651461062f578063340fbc741461065f5780633c8da5881461068f5780633d54cb6f146106ad5780633fc8cef3146106cb57610428565b80632630c12f146105a7578063271040df146105c557806329d75de9146105e15780632a3ff8ad146105ff57610428565b80630e329357116103fb5780630e329357146104c957806319da7e2a146104f95780631d5f45f514610529578063221f337114610547578063239aad0d1461057757610428565b8063011ced5f1461042d5780630456f9c81461044b5780630be527131461047b5780630c02e130146104ab575b600080fd5b610435610e0f565b604051610442919061678f565b60405180910390f35b6104656004803603810190610460919061563c565b610e15565b604051610472919061678f565b60405180910390f35b6104956004803603810190610490919061560f565b610ef3565b6040516104a2919061678f565b60405180910390f35b6104b3610f0b565b6040516104c0919061678f565b60405180910390f35b6104e360048036038101906104de919061596e565b610f11565b6040516104f091906165f2565b60405180910390f35b610513600480360381019061050e9190615a80565b610f3d565b60405161052091906162a0565b60405180910390f35b610531610f70565b60405161053e919061656b565b60405180910390f35b610561600480360381019061055c9190615a80565b610f96565b60405161056e91906164a7565b60405180910390f35b610591600480360381019061058c91906159e6565b61102b565b60405161059e91906162a0565b60405180910390f35b6105af61105e565b6040516105bc91906162a0565b60405180910390f35b6105df60048036038101906105da91906156f6565b611084565b005b6105e96110f6565b6040516105f691906162a0565b60405180910390f35b61061960048036038101906106149190615a40565b61111c565b604051610626919061678f565b60405180910390f35b6106496004803603810190610644919061560f565b611162565b6040516106569190616774565b60405180910390f35b61067960048036038101906106749190615a80565b611184565b60405161068691906162a0565b60405180910390f35b6106976111b7565b6040516106a4919061678f565b60405180910390f35b6106b561131a565b6040516106c291906167da565b60405180910390f35b6106d3611334565b6040516106e09190616586565b60405180910390f35b61070360048036038101906106fe919061560f565b61135a565b604051610710919061678f565b60405180910390f35b610721611372565b005b61073d6004803603810190610738919061560f565b611384565b005b610759600480360381019061075491906159e6565b611440565b6040516107699493929190616446565b60405180910390f35b61077a61162f565b604051610787919061678f565b60405180910390f35b610798611635565b6040516107a591906164e4565b60405180910390f35b6107c860048036038101906107c39190615aad565b61165b565b6040516107d59190616774565b60405180910390f35b6107f860048036038101906107f3919061560f565b61168c565b005b6108026116d8565b60405161080f9190616535565b60405180910390f35b6108206116fe565b60405161082d919061678f565b60405180910390f35b61083e611721565b005b61085a6004803603810190610855919061560f565b611735565b005b6108646117f1565b6040516108719190616550565b60405180910390f35b610882611817565b60405161088f91906164c9565b60405180910390f35b6108a0611bb3565b6040516108ad919061678f565b60405180910390f35b6108be611bb9565b005b6108da60048036038101906108d59190615736565b611c53565b005b6108f660048036038101906108f1919061560f565b611c6d565b604051610903919061678f565b60405180910390f35b610914611c85565b60405161092191906162a0565b60405180910390f35b610932611caf565b60405161093f919061678f565b60405180910390f35b610962600480360381019061095d919061560f565b611cd2565b60405161096f919061678f565b60405180910390f35b610980611cea565b60405161098d919061678f565b60405180910390f35b61099e611cf0565b6040516109ab91906167f5565b60405180910390f35b6109ce60048036038101906109c991906159e6565b611d03565b6040516109db91906162a0565b60405180910390f35b6109fe60048036038101906109f99190615aed565b611d36565b005b610a1a6004803603810190610a159190615a80565b61210d565b604051610a2791906164a7565b60405180910390f35b610a4a6004803603810190610a45919061596e565b6121a2565b005b610a546121dc565b604051610a61919061678f565b60405180910390f35b610a726123d9565b604051610a7f91906164c9565b60405180910390f35b610aa26004803603810190610a9d919061560f565b6123df565b005b610abe6004803603810190610ab99190615a80565b61242b565b604051610acb91906164a7565b60405180910390f35b610aee6004803603810190610ae99190615883565b6124c0565b005b610b0a6004803603810190610b05919061560f565b6125d9565b005b610b14612695565b604051610b21919061651a565b60405180910390f35b610b446004803603810190610b3f9190615a80565b6126bb565b604051610b51919061678f565b60405180910390f35b610b62612705565b604051610b6f919061678f565b60405180910390f35b610b926004803603810190610b8d9190615a80565b61270b565b604051610b9f91906164a7565b60405180910390f35b610bb06127a0565b604051610bbd91906164ff565b60405180910390f35b610bce6127c6565b604051610bdb919061678f565b60405180910390f35b610bec6127cc565b604051610bf9919061678f565b60405180910390f35b610c1c6004803603810190610c17919061560f565b6127d2565b005b610c386004803603810190610c339190615a80565b61281e565b604051610c4591906163c3565b60405180910390f35b610c566128e9565b604051610c6391906162a0565b60405180910390f35b610c866004803603810190610c819190615a80565b61290f565b604051610c9391906163c3565b60405180910390f35b610cb66004803603810190610cb191906159e6565b6129da565b604051610cc694939291906163e5565b60405180910390f35b610ce96004803603810190610ce4919061568f565b612bf3565b604051610cf6919061678f565b60405180910390f35b610d07612def565b604051610d1491906162a0565b60405180910390f35b610d25612e15565b604051610d3291906165a1565b60405180910390f35b610d556004803603810190610d50919061560f565b612e3b565b604051610d6291906167da565b60405180910390f35b610d856004803603810190610d809190615be1565b612e62565b005b610d8f612f56565b604051610d9c919061678f565b60405180910390f35b610dbf6004803603810190610dba919061560f565b612f5c565b005b610dc96130d6565b604051610dd691906165bc565b60405180910390f35b610df96004803603810190610df49190615a80565b6130fc565b604051610e06919061678f565b60405180910390f35b60a45481565b600060a560089054906101000a900473ffffffffffffffffffffffffffffffffffffffff1673ffffffffffffffffffffffffffffffffffffffff16639421712060bd60009054906101000a900473ffffffffffffffffffffffffffffffffffffffff168686866040518563ffffffff1660e01b8152600401610e9a94939291906162bb565b60206040518083038186803b158015610eb257600080fd5b505afa158015610ec6573d6000803e3d6000fd5b505050506040513d601f19601f82011682018060405250810190610eea9190615a13565b90509392505050565b60b46020528060005260406000206000915090505481565b60a95481565b60608282604051602001610f26929190616250565b604051602081830303815290604052905092915050565b60a06020528060005260406000206000915054906101000a900473ffffffffffffffffffffffffffffffffffffffff1681565b60bd60009054906101000a900473ffffffffffffffffffffffffffffffffffffffff1681565b606060bb600060b954815260200190815260200160002060060160008367ffffffffffffffff1667ffffffffffffffff16815260200190815260200160002080548060200260200160405190810160405280929190818152602001828054801561101f57602002820191906000526020600020905b81548152602001906001019080831161100b575b50505050509050919050565b60b06020528060005260406000206000915054906101000a900473ffffffffffffffffffffffffffffffffffffffff1681565b60a560089054906101000a900473ffffffffffffffffffffffffffffffffffffffff1681565b61108c613146565b8160a260008367ffffffffffffffff1667ffffffffffffffff16815260200190815260200160002060006101000a81548173ffffffffffffffffffffffffffffffffffffffff021916908373ffffffffffffffffffffffffffffffffffffffff1602179055505050565b609f60009054906101000a900473ffffffffffffffffffffffffffffffffffffffff1681565b600060bb600084815260200190815260200160002060080160008367ffffffffffffffff1667ffffffffffffffff16815260200190815260200160002054905092915050565b60b66020528060005260406000206000915054906101000a900462ffffff1681565b60a26020528060005260406000206000915054906101000a900473ffffffffffffffffffffffffffffffffffffffff1681565b60008060aa60009054906101000a900473ffffffffffffffffffffffffffffffffffffffff1673ffffffffffffffffffffffffffffffffffffffff1663feaf968c6040518163ffffffff1660e01b815260040160a06040518083038186803b15801561122257600080fd5b505afa158015611236573d6000803e3d6000fd5b505050506040513d601f19601f8201168201806040525081019061125a9190615c34565b505050915050600060aa60009054906101000a900473ffffffffffffffffffffffffffffffffffffffff1673ffffffffffffffffffffffffffffffffffffffff1663313ce5676040518163ffffffff1660e01b815260040160206040518083038186803b1580156112ca57600080fd5b505afa1580156112de573d6000803e3d6000fd5b505050506040513d601f19601f820116820180604052508101906113029190615caf565b9050611310828260126131c4565b9150819250505090565b60a560009054906101000a900467ffffffffffffffff1681565b60c060009054906101000a900473ffffffffffffffffffffffffffffffffffffffff1681565b60b56020528060005260406000206000915090505481565b61137a613146565b61138261322b565b565b61138c613146565b600073ffffffffffffffffffffffffffffffffffffffff168173ffffffffffffffffffffffffffffffffffffffff1614156113fc576040517f08c379a00000000000000000000000000000000000000000000000000000000081526004016113f390616714565b60405180910390fd5b8060a560086101000a81548173ffffffffffffffffffffffffffffffffffffffff021916908373ffffffffffffffffffffffffffffffffffffffff16021790555050565b606080606080600060ba6000878152602001908152602001600020905080600001816001018260020183600301838054806020026020016040519081016040528092919081815260200182805480156114ee57602002820191906000526020600020905b8160009054906101000a900473ffffffffffffffffffffffffffffffffffffffff1673ffffffffffffffffffffffffffffffffffffffff16815260200190600101908083116114a4575b505050505093508280548060200260200160405190810160405280929190818152602001828054801561154057602002820191906000526020600020905b81548152602001906001019080831161152c575b505050505092508180548060200260200160405190810160405280929190818152602001828054801561159257602002820191906000526020600020905b81548152602001906001019080831161157e575b505050505091508080548060200260200160405190810160405280929190818152602001828054801561161857602002820191906000526020600020906000905b82829054906101000a900467ffffffffffffffff1667ffffffffffffffff16815260200190600801906020826007010492830192600103820291508084116115d35790505b505050505090509450945094509450509193509193565b60ad5481565b60aa60009054906101000a900473ffffffffffffffffffffffffffffffffffffffff1681565b60a16020528160005260406000206020528060005260406000206000915091509054906101000a900462ffffff1681565b611694613146565b8060c260006101000a81548173ffffffffffffffffffffffffffffffffffffffff021916908373ffffffffffffffffffffffffffffffffffffffff16021790555050565b60bf60009054906101000a900473ffffffffffffffffffffffffffffffffffffffff1681565b600060bb600060b954815260200190815260200160002060030180549050905090565b611729613146565b61173360006139bd565b565b61173d613146565b600073ffffffffffffffffffffffffffffffffffffffff168173ffffffffffffffffffffffffffffffffffffffff1614156117ad576040517f08c379a00000000000000000000000000000000000000000000000000000000081526004016117a4906166f4565b60405180910390fd5b8060aa60006101000a81548173ffffffffffffffffffffffffffffffffffffffff021916908373ffffffffffffffffffffffffffffffffffffffff16021790555050565b60be60009054906101000a900473ffffffffffffffffffffffffffffffffffffffff1681565b60008061193860a6805461182a90617093565b80601f016020809104026020016040519081016040528092919081815260200182805461185690617093565b80156118a35780601f10611878576101008083540402835291602001916118a3565b820191906000526020600020905b81548152906001019060200180831161188657829003601f168201915b505050505060a780546118b590617093565b80601f01602080910402602001604051908101604052809291908181526020018280546118e190617093565b801561192e5780601f106119035761010080835404028352916020019161192e565b820191906000526020600020905b81548152906001019060200180831161191157829003601f168201915b5050505050610f11565b9050600061195060a8543063b2c44b3f60e01b613a83565b905061199c6040518060400160405280600381526020017f67657400000000000000000000000000000000000000000000000000000000008152508383613ab49092919063ffffffff16565b611a1b6040518060400160405280600581526020017f70617468310000000000000000000000000000000000000000000000000000008152506040518060400160405280600e81526020017f726573756c74732c746f6b656e7300000000000000000000000000000000000081525083613ab49092919063ffffffff16565b611a9a6040518060400160405280600581526020017f70617468320000000000000000000000000000000000000000000000000000008152506040518060400160405280601481526020017f726573756c74732c6d61726b657453686172657300000000000000000000000081525083613ab49092919063ffffffff16565b611b196040518060400160405280600581526020017f70617468330000000000000000000000000000000000000000000000000000008152506040518060400160405280601081526020017f726573756c74732c73776170466565730000000000000000000000000000000081525083613ab49092919063ffffffff16565b611b986040518060400160405280600581526020017f70617468340000000000000000000000000000000000000000000000000000008152506040518060400160405280601581526020017f726573756c74732c636861696e53656c6563746f72000000000000000000000081525083613ab49092919063ffffffff16565b611bac611ba3613ae7565b8260a954613b11565b9250505090565b60ae5481565b609f60009054906101000a900473ffffffffffffffffffffffffffffffffffffffff1673ffffffffffffffffffffffffffffffffffffffff163373ffffffffffffffffffffffffffffffffffffffff1614611c49576040517f08c379a0000000000000000000000000000000000000000000000000000000008152600401611c4090616694565b60405180910390fd5b611c5161322b565b565b611c5b613146565b611c6784848484613bdd565b50505050565b60b26020528060005260406000206000915090505481565b6000603860009054906101000a900473ffffffffffffffffffffffffffffffffffffffff16905090565b600060ba600060b854815260200190815260200160002060030180549050905090565b60b36020528060005260406000206000915090505481565b60af5481565b60a360009054906101000a900460ff1681565b60b16020528060005260406000206000915054906101000a900473ffffffffffffffffffffffffffffffffffffffff1681565b60008060019054906101000a900460ff16159050808015611d675750600160008054906101000a900460ff1660ff16105b80611d945750611d7630614816565b158015611d935750600160008054906101000a900460ff1660ff16145b5b611dd3576040517f08c379a0000000000000000000000000000000000000000000000000000000008152600401611dca90616674565b60405180910390fd5b60016000806101000a81548160ff021916908360ff1602179055508015611e10576001600060016101000a81548160ff0219169083151502179055505b611e18614839565b8b60a560006101000a81548167ffffffffffffffff021916908367ffffffffffffffff1602179055508a609d60006101000a81548173ffffffffffffffffffffffffffffffffffffffff021916908373ffffffffffffffffffffffffffffffffffffffff160217905550611e8b8a614892565b611e94896148d6565b8760a881905550600a670de0b6b3a76400006001611eb29190616d97565b611ebc9190616a93565b60a9819055508660aa60006101000a81548173ffffffffffffffffffffffffffffffffffffffff021916908373ffffffffffffffffffffffffffffffffffffffff1602179055508560c060006101000a81548173ffffffffffffffffffffffffffffffffffffffff021916908373ffffffffffffffffffffffffffffffffffffffff1602179055508460bc60006101000a81548173ffffffffffffffffffffffffffffffffffffffff021916908373ffffffffffffffffffffffffffffffffffffffff1602179055508360bd60006101000a81548173ffffffffffffffffffffffffffffffffffffffff021916908373ffffffffffffffffffffffffffffffffffffffff1602179055508260be60006101000a81548173ffffffffffffffffffffffffffffffffffffffff021916908373ffffffffffffffffffffffffffffffffffffffff1602179055508160bf60006101000a81548173ffffffffffffffffffffffffffffffffffffffff021916908373ffffffffffffffffffffffffffffffffffffffff1602179055506040518060600160405280602a815260200161770a602a913960a69080519060200190612076929190615063565b506040518060600160405280602e8152602001617734602e913960a790805190602001906120a5929190615063565b5080156120ff5760008060016101000a81548160ff0219169083151502179055507f7f26b83ff96e1f2b6a682f133852f6798a09c465da95921460cefb384740249860016040516120f691906165d7565b60405180910390a15b505050505050505050505050565b606060ba600060b854815260200190815260200160002060060160008367ffffffffffffffff1667ffffffffffffffff16815260200190815260200160002080548060200260200160405190810160405280929190818152602001828054801561219657602002820191906000526020600020905b815481526020019060010190808311612182575b50505050509050919050565b6121aa613146565b8160a690805190602001906121c0929190615063565b508060a790805190602001906121d7929190615063565b505050565b60008060005b60ad548110156123d15760006123ad60b1600084815260200190815260200160002060009054906101000a900473ffffffffffffffffffffffffffffffffffffffff1660c060009054906101000a900473ffffffffffffffffffffffffffffffffffffffff1660b1600086815260200190815260200160002060009054906101000a900473ffffffffffffffffffffffffffffffffffffffff1673ffffffffffffffffffffffffffffffffffffffff166370a08231609d60009054906101000a900473ffffffffffffffffffffffffffffffffffffffff166040518263ffffffff1660e01b81526004016122d691906162a0565b60206040518083038186803b1580156122ee57600080fd5b505afa158015612302573d6000803e3d6000fd5b505050506040513d601f19601f820116820180604052508101906123269190615a13565b60b6600060b1600089815260200190815260200160002060009054906101000a900473ffffffffffffffffffffffffffffffffffffffff1673ffffffffffffffffffffffffffffffffffffffff1673ffffffffffffffffffffffffffffffffffffffff16815260200190815260200160002060009054906101000a900462ffffff16612bf3565b905080836123bb9190616a3d565b92505080806123c9906170f6565b9150506121e2565b508091505090565b60a85481565b6123e7613146565b80609f60006101000a81548173ffffffffffffffffffffffffffffffffffffffff021916908373ffffffffffffffffffffffffffffffffffffffff16021790555050565b606060bb600060b954815260200190815260200160002060070160008367ffffffffffffffff1667ffffffffffffffff1681526020019081526020016000208054806020026020016040519081016040528092919081815260200182805480156124b457602002820191906000526020600020905b8154815260200190600101908083116124a0575b50505050509050919050565b846005600082815260200190815260200160002060009054906101000a900473ffffffffffffffffffffffffffffffffffffffff1673ffffffffffffffffffffffffffffffffffffffff163373ffffffffffffffffffffffffffffffffffffffff1614612562576040517f08c379a000000000000000000000000000000000000000000000000000000000815260040161255990616734565b60405180910390fd5b6005600082815260200190815260200160002060006101000a81549073ffffffffffffffffffffffffffffffffffffffff0219169055807f7cc135e0cebb02c3480ae5d74d377283180a2601f8f644edf7987b009316c63a60405160405180910390a26125d185858585613bdd565b505050505050565b6125e1613146565b600073ffffffffffffffffffffffffffffffffffffffff168173ffffffffffffffffffffffffffffffffffffffff161415612651576040517f08c379a0000000000000000000000000000000000000000000000000000000008152600401612648906166d4565b60405180910390fd5b80606a60006101000a81548173ffffffffffffffffffffffffffffffffffffffff021916908373ffffffffffffffffffffffffffffffffffffffff16021790555050565b60bc60009054906101000a900473ffffffffffffffffffffffffffffffffffffffff1681565b600060bb600060b954815260200190815260200160002060050160008367ffffffffffffffff1667ffffffffffffffff168152602001908152602001600020805490509050919050565b60b95481565b606060ba600060b854815260200190815260200160002060070160008367ffffffffffffffff1667ffffffffffffffff16815260200190815260200160002080548060200260200160405190810160405280929190818152602001828054801561279457602002820191906000526020600020905b815481526020019060010190808311612780575b50505050509050919050565b60c160009054906101000a900473ffffffffffffffffffffffffffffffffffffffff1681565b60ac5481565b60ab5481565b6127da613146565b80609e60006101000a81548173ffffffffffffffffffffffffffffffffffffffff021916908373ffffffffffffffffffffffffffffffffffffffff16021790555050565b606060ba600060b854815260200190815260200160002060050160008367ffffffffffffffff1667ffffffffffffffff1681526020019081526020016000208054806020026020016040519081016040528092919081815260200182805480156128dd57602002820191906000526020600020905b8160009054906101000a900473ffffffffffffffffffffffffffffffffffffffff1673ffffffffffffffffffffffffffffffffffffffff1681526020019060010190808311612893575b50505050509050919050565b606a60009054906101000a900473ffffffffffffffffffffffffffffffffffffffff1681565b606060bb600060b954815260200190815260200160002060050160008367ffffffffffffffff1667ffffffffffffffff1681526020019081526020016000208054806020026020016040519081016040528092919081815260200182805480156129ce57602002820191906000526020600020905b8160009054906101000a900473ffffffffffffffffffffffffffffffffffffffff1673ffffffffffffffffffffffffffffffffffffffff1681526020019060010190808311612984575b50505050509050919050565b606080606080600060bb600087815260200190815260200160002090508060000181600101826002018360030183805480602002602001604051908101604052809291908181526020018280548015612a8857602002820191906000526020600020905b8160009054906101000a900473ffffffffffffffffffffffffffffffffffffffff1673ffffffffffffffffffffffffffffffffffffffff1681526020019060010190808311612a3e575b5050505050935082805480602002602001604051908101604052809291908181526020018280548015612ada57602002820191906000526020600020905b815481526020019060010190808311612ac6575b5050505050925081805480602002602001604051908101604052809291908181526020018280548015612b5657602002820191906000526020600020906000905b82829054906101000a900462ffffff1662ffffff1681526020019060030190602082600201049283019260010382029150808411612b1b5790505b5050505050915080805480602002602001604051908101604052809291908181526020018280548015612bdc57602002820191906000526020600020906000905b82829054906101000a900467ffffffffffffffff1667ffffffffffffffff1681526020019060080190602082600701049283019260010382029150808411612b975790505b505050505090509450945094509450509193509193565b6000806000841115612de35760038362ffffff161415612c1f57612c18868686610e15565b9050612de2565b6000600267ffffffffffffffff811115612c3c57612c3b61725a565b5b604051908082528060200260200182016040528015612c6a5781602001602082028036833780820191505090505b5090508681600081518110612c8257612c8161722b565b5b602002602001019073ffffffffffffffffffffffffffffffffffffffff16908173ffffffffffffffffffffffffffffffffffffffff16815250508581600181518110612cd157612cd061722b565b5b602002602001019073ffffffffffffffffffffffffffffffffffffffff16908173ffffffffffffffffffffffffffffffffffffffff1681525050600060be60009054906101000a900473ffffffffffffffffffffffffffffffffffffffff1673ffffffffffffffffffffffffffffffffffffffff1663d06ca61f87846040518363ffffffff1660e01b8152600401612d6a9291906167aa565b60006040518083038186803b158015612d8257600080fd5b505afa158015612d96573d6000803e3d6000fd5b505050506040513d6000823e3d601f19601f82011682018060405250810190612dbf919061580d565b905080600181518110612dd557612dd461722b565b5b6020026020010151925050505b5b80915050949350505050565b609e60009054906101000a900473ffffffffffffffffffffffffffffffffffffffff1681565b609d60009054906101000a900473ffffffffffffffffffffffffffffffffffffffff1681565b60b76020528060005260406000206000915054906101000a900467ffffffffffffffff1681565b612e6a613146565b8160a060008567ffffffffffffffff1667ffffffffffffffff16815260200190815260200160002060006101000a81548173ffffffffffffffffffffffffffffffffffffffff021916908373ffffffffffffffffffffffffffffffffffffffff1602179055508060a160008567ffffffffffffffff1667ffffffffffffffff16815260200190815260200160002060008473ffffffffffffffffffffffffffffffffffffffff1673ffffffffffffffffffffffffffffffffffffffff16815260200190815260200160002060006101000a81548162ffffff021916908362ffffff160217905550505050565b60b85481565b600073ffffffffffffffffffffffffffffffffffffffff168173ffffffffffffffffffffffffffffffffffffffff161415612fcc576040517f08c379a0000000000000000000000000000000000000000000000000000000008152600401612fc3906166d4565b60405180910390fd5b606a60009054906101000a900473ffffffffffffffffffffffffffffffffffffffff1673ffffffffffffffffffffffffffffffffffffffff168173ffffffffffffffffffffffffffffffffffffffff161461305c576040517f08c379a000000000000000000000000000000000000000000000000000000000815260040161305390616634565b60405180910390fd5b3373ffffffffffffffffffffffffffffffffffffffff168173ffffffffffffffffffffffffffffffffffffffff16146130ca576040517f08c379a00000000000000000000000000000000000000000000000000000000081526004016130c190616654565b60405180910390fd5b6130d3816139bd565b50565b60c260009054906101000a900473ffffffffffffffffffffffffffffffffffffffff1681565b600060ba600060b854815260200190815260200160002060050160008367ffffffffffffffff1667ffffffffffffffff168152602001908152602001600020805490509050919050565b61314e61491a565b73ffffffffffffffffffffffffffffffffffffffff1661316c611c85565b73ffffffffffffffffffffffffffffffffffffffff16146131c2576040517f08c379a00000000000000000000000000000000000000000000000000000000081526004016131b9906166b4565b60405180910390fd5b565b60008260ff168260ff1611156131fe5782826131e09190616e25565b600a6131ec9190616b62565b846131f79190616c80565b9050613224565b818361320a9190616e25565b600a6132169190616b62565b846132219190616c80565b90505b9392505050565b600160b9600082825461323e9190616a3d565b9250508190555060005b60ac548110156139b15760b0600082815260200190815260200160002060009054906101000a900473ffffffffffffffffffffffffffffffffffffffff1660b1600083815260200190815260200160002060006101000a81548173ffffffffffffffffffffffffffffffffffffffff021916908373ffffffffffffffffffffffffffffffffffffffff16021790555060b5600060b0600084815260200190815260200160002060009054906101000a900473ffffffffffffffffffffffffffffffffffffffff1673ffffffffffffffffffffffffffffffffffffffff1673ffffffffffffffffffffffffffffffffffffffff1681526020019081526020016000205460b4600060b1600085815260200190815260200160002060009054906101000a900473ffffffffffffffffffffffffffffffffffffffff1673ffffffffffffffffffffffffffffffffffffffff1673ffffffffffffffffffffffffffffffffffffffff1681526020019081526020016000208190555060b2600060b0600084815260200190815260200160002060009054906101000a900473ffffffffffffffffffffffffffffffffffffffff1673ffffffffffffffffffffffffffffffffffffffff1673ffffffffffffffffffffffffffffffffffffffff1681526020019081526020016000205460b3600060b1600085815260200190815260200160002060009054906101000a900473ffffffffffffffffffffffffffffffffffffffff1673ffffffffffffffffffffffffffffffffffffffff1673ffffffffffffffffffffffffffffffffffffffff16815260200190815260200160002081905550600060b7600060b0600085815260200190815260200160002060009054906101000a900473ffffffffffffffffffffffffffffffffffffffff1673ffffffffffffffffffffffffffffffffffffffff1673ffffffffffffffffffffffffffffffffffffffff16815260200190815260200160002060009054906101000a900467ffffffffffffffff16905060bb600060b954815260200190815260200160002060040160008267ffffffffffffffff1667ffffffffffffffff16815260200190815260200160002060009054906101000a900460ff1661364657600160bb600060b954815260200190815260200160002060040160008367ffffffffffffffff1667ffffffffffffffff16815260200190815260200160002060006101000a81548160ff02191690831515021790555060bb600060b95481526020019081526020016000206003018190806001815401808255809150506001900390600052602060002090600491828204019190066008029091909190916101000a81548167ffffffffffffffff021916908367ffffffffffffffff1602179055505b60bb600060b954815260200190815260200160002060050160008267ffffffffffffffff1667ffffffffffffffff16815260200190815260200160002060b0600084815260200190815260200160002060009054906101000a900473ffffffffffffffffffffffffffffffffffffffff169080600181540180825580915050600190039060005260206000200160009091909190916101000a81548173ffffffffffffffffffffffffffffffffffffffff021916908373ffffffffffffffffffffffffffffffffffffffff16021790555060bb600060b954815260200190815260200160002060060160008267ffffffffffffffff1667ffffffffffffffff16815260200190815260200160002060b6600060b0600086815260200190815260200160002060009054906101000a900473ffffffffffffffffffffffffffffffffffffffff1673ffffffffffffffffffffffffffffffffffffffff1673ffffffffffffffffffffffffffffffffffffffff16815260200190815260200160002060009054906101000a900462ffffff16908060018154018082558091505060019003906000526020600020016000909162ffffff1690919091505560b5600060b0600085815260200190815260200160002060009054906101000a900473ffffffffffffffffffffffffffffffffffffffff1673ffffffffffffffffffffffffffffffffffffffff1673ffffffffffffffffffffffffffffffffffffffff1681526020019081526020016000205460bb600060b954815260200190815260200160002060080160008367ffffffffffffffff1667ffffffffffffffff16815260200190815260200160002060008282546138c09190616a3d565b9250508190555060bb600060b954815260200190815260200160002060070160008267ffffffffffffffff1667ffffffffffffffff16815260200190815260200160002060b5600060b0600086815260200190815260200160002060009054906101000a900473ffffffffffffffffffffffffffffffffffffffff1673ffffffffffffffffffffffffffffffffffffffff1673ffffffffffffffffffffffffffffffffffffffff1681526020019081526020016000205490806001815401808255809150506001900390600052602060002001600090919091909150555080806139a9906170f6565b915050613248565b5060ac5460ad81905550565b6000603860009054906101000a900473ffffffffffffffffffffffffffffffffffffffff16905081603860006101000a81548173ffffffffffffffffffffffffffffffffffffffff021916908373ffffffffffffffffffffffffffffffffffffffff1602179055508173ffffffffffffffffffffffffffffffffffffffff168173ffffffffffffffffffffffffffffffffffffffff167f8be0079c531659141344cd1fd0a4f28419497f9722a3daafe3b4186f6b6457e060405160405180910390a35050565b613a8b6150e9565b613a936150e9565b613aaa85858584614922909392919063ffffffff16565b9150509392505050565b613acb8284608001516149d290919063ffffffff16565b613ae28184608001516149d290919063ffffffff16565b505050565b6000600360009054906101000a900473ffffffffffffffffffffffffffffffffffffffff16905090565b6000806004549050600181613b269190616a3d565b6004819055506000634042994660e01b60008087600001513089604001518760018c6080015160000151604051602401613b67989796959493929190616300565b604051602081830303815290604052907bffffffffffffffffffffffffffffffffffffffffffffffffffffffff19166020820180517bffffffffffffffffffffffffffffffffffffffffffffffffffffffff83818316178352505050509050613bd2868386846149f7565b925050509392505050565b6000849050600084905060008490506000849050600160b86000828254613c049190616a3d565b92505081905550600060ad541415613c3157600160b96000828254613c299190616a3d565b925050819055505b60005b84518110156147e857848181518110613c5057613c4f61722b565b5b602002602001015160b0600083815260200190815260200160002060006101000a81548173ffffffffffffffffffffffffffffffffffffffff021916908373ffffffffffffffffffffffffffffffffffffffff1602179055508060b26000878481518110613cc157613cc061722b565b5b602002602001015173ffffffffffffffffffffffffffffffffffffffff1673ffffffffffffffffffffffffffffffffffffffff16815260200190815260200160002081905550838181518110613d1a57613d1961722b565b5b602002602001015160b56000878481518110613d3957613d3861722b565b5b602002602001015173ffffffffffffffffffffffffffffffffffffffff1673ffffffffffffffffffffffffffffffffffffffff16815260200190815260200160002081905550828181518110613d9257613d9161722b565b5b602002602001015160b66000878481518110613db157613db061722b565b5b602002602001015173ffffffffffffffffffffffffffffffffffffffff1673ffffffffffffffffffffffffffffffffffffffff16815260200190815260200160002060006101000a81548162ffffff021916908362ffffff160217905550818181518110613e2257613e2161722b565b5b602002602001015160b76000878481518110613e4157613e4061722b565b5b602002602001015173ffffffffffffffffffffffffffffffffffffffff1673ffffffffffffffffffffffffffffffffffffffff16815260200190815260200160002060006101000a81548167ffffffffffffffff021916908367ffffffffffffffff16021790555060ba600060b85481526020019081526020016000206004016000838381518110613ed657613ed561722b565b5b602002602001015167ffffffffffffffff1667ffffffffffffffff16815260200190815260200160002060009054906101000a900460ff166140095760ba600060b8548152602001908152602001600020600301828281518110613f3d57613f3c61722b565b5b602002602001015190806001815401808255809150506001900390600052602060002090600491828204019190066008029091909190916101000a81548167ffffffffffffffff021916908367ffffffffffffffff160217905550600160ba600060b85481526020019081526020016000206004016000848481518110613fc757613fc661722b565b5b602002602001015167ffffffffffffffff1667ffffffffffffffff16815260200190815260200160002060006101000a81548160ff0219169083151502179055505b60ba600060b854815260200190815260200160002060050160008383815181106140365761403561722b565b5b602002602001015167ffffffffffffffff1667ffffffffffffffff1681526020019081526020016000208582815181106140735761407261722b565b5b60200260200101519080600181540180825580915050600190039060005260206000200160009091909190916101000a81548173ffffffffffffffffffffffffffffffffffffffff021916908373ffffffffffffffffffffffffffffffffffffffff16021790555060ba600060b854815260200190815260200160002060060160008383815181106141085761410761722b565b5b602002602001015167ffffffffffffffff1667ffffffffffffffff1681526020019081526020016000208382815181106141455761414461722b565b5b6020026020010151908060018154018082558091505060019003906000526020600020016000909162ffffff1690919091505583818151811061418b5761418a61722b565b5b602002602001015160ba600060b854815260200190815260200160002060080160008484815181106141c0576141bf61722b565b5b602002602001015167ffffffffffffffff1667ffffffffffffffff16815260200190815260200160002060008282546141f99190616a3d565b9250508190555060ba600060b8548152602001908152602001600020600701600083838151811061422d5761422c61722b565b5b602002602001015167ffffffffffffffff1667ffffffffffffffff16815260200190815260200160002084828151811061426a5761426961722b565b5b60200260200101519080600181540180825580915050600190039060005260206000200160009091909190915055600060ad5414156147d5578481815181106142b6576142b561722b565b5b602002602001015160b1600083815260200190815260200160002060006101000a81548173ffffffffffffffffffffffffffffffffffffffff021916908373ffffffffffffffffffffffffffffffffffffffff1602179055508381815181106143225761432161722b565b5b602002602001015160b460008784815181106143415761434061722b565b5b602002602001015173ffffffffffffffffffffffffffffffffffffffff1673ffffffffffffffffffffffffffffffffffffffff168152602001908152602001600020819055508060b3600087848151811061439f5761439e61722b565b5b602002602001015173ffffffffffffffffffffffffffffffffffffffff1673ffffffffffffffffffffffffffffffffffffffff1681526020019081526020016000208190555060bb600060b954815260200190815260200160002060040160008383815181106144125761441161722b565b5b602002602001015167ffffffffffffffff1667ffffffffffffffff16815260200190815260200160002060009054906101000a900460ff1661454557600160bb600060b9548152602001908152602001600020600401600084848151811061447d5761447c61722b565b5b602002602001015167ffffffffffffffff1667ffffffffffffffff16815260200190815260200160002060006101000a81548160ff02191690831515021790555060bb600060b95481526020019081526020016000206003018282815181106144e9576144e861722b565b5b602002602001015190806001815401808255809150506001900390600052602060002090600491828204019190066008029091909190916101000a81548167ffffffffffffffff021916908367ffffffffffffffff1602179055505b60bb600060b954815260200190815260200160002060050160008383815181106145725761457161722b565b5b602002602001015167ffffffffffffffff1667ffffffffffffffff1681526020019081526020016000208582815181106145af576145ae61722b565b5b60200260200101519080600181540180825580915050600190039060005260206000200160009091909190916101000a81548173ffffffffffffffffffffffffffffffffffffffff021916908373ffffffffffffffffffffffffffffffffffffffff16021790555060bb600060b954815260200190815260200160002060060160008383815181106146445761464361722b565b5b602002602001015167ffffffffffffffff1667ffffffffffffffff1681526020019081526020016000208382815181106146815761468061722b565b5b6020026020010151908060018154018082558091505060019003906000526020600020016000909162ffffff169091909150558381815181106146c7576146c661722b565b5b602002602001015160bb600060b954815260200190815260200160002060080160008484815181106146fc576146fb61722b565b5b602002602001015167ffffffffffffffff1667ffffffffffffffff16815260200190815260200160002060008282546147359190616a3d565b9250508190555060bb600060b954815260200190815260200160002060070160008383815181106147695761476861722b565b5b602002602001015167ffffffffffffffff1667ffffffffffffffff1681526020019081526020016000208482815181106147a6576147a561722b565b5b602002602001015190806001815401808255809150506001900390600052602060002001600090919091909150555b80806147e0906170f6565b915050613c34565b50835160ac81905550600060ad54141561480557835160ad819055505b4260ab819055505050505050505050565b6000808273ffffffffffffffffffffffffffffffffffffffff163b119050919050565b600060019054906101000a900460ff16614888576040517f08c379a000000000000000000000000000000000000000000000000000000000815260040161487f90616754565b60405180910390fd5b614890614b9b565b565b80600260006101000a81548173ffffffffffffffffffffffffffffffffffffffff021916908373ffffffffffffffffffffffffffffffffffffffff16021790555050565b80600360006101000a81548173ffffffffffffffffffffffffffffffffffffffff021916908373ffffffffffffffffffffffffffffffffffffffff16021790555050565b600033905090565b61492a6150e9565b61493a8560800151610100614bfc565b508385600001818152505082856020019073ffffffffffffffffffffffffffffffffffffffff16908173ffffffffffffffffffffffffffffffffffffffff16815250508185604001907bffffffffffffffffffffffffffffffffffffffffffffffffffffffff191690817bffffffffffffffffffffffffffffffffffffffffffffffffffffffff191681525050849050949350505050565b6149df8260038351614c66565b6149f28183614deb90919063ffffffff16565b505050565b60003084604051602001614a0c929190616274565b604051602081830303815290604052805190602001209050846005600083815260200190815260200160002060006101000a81548173ffffffffffffffffffffffffffffffffffffffff021916908373ffffffffffffffffffffffffffffffffffffffff160217905550807fb5e6e01e79f91267dc17b4e6314d5d4d03593d2ceee0fbb452b750bd70ea5af960405160405180910390a2600260009054906101000a900473ffffffffffffffffffffffffffffffffffffffff1673ffffffffffffffffffffffffffffffffffffffff16634000aea08685856040518463ffffffff1660e01b8152600401614b0293929190616385565b602060405180830381600087803b158015614b1c57600080fd5b505af1158015614b30573d6000803e3d6000fd5b505050506040513d601f19601f82011682018060405250810190614b549190615856565b614b93576040517f08c379a0000000000000000000000000000000000000000000000000000000008152600401614b8a90616614565b60405180910390fd5b949350505050565b600060019054906101000a900460ff16614bea576040517f08c379a0000000000000000000000000000000000000000000000000000000008152600401614be190616754565b60405180910390fd5b614bfa614bf561491a565b6139bd565b565b614c04615156565b6000602083614c13919061716d565b14614c3f57602082614c25919061716d565b6020614c319190616df1565b82614c3c9190616a3d565b91505b81836020018181525050604051808452600081528281016020016040525082905092915050565b60178167ffffffffffffffff1611614c9d57614c978160058460ff16901b60ff161784614e0d90919063ffffffff16565b50614de6565b60ff8167ffffffffffffffff1611614cf357614ccc601860058460ff16901b1784614e0d90919063ffffffff16565b50614ced8167ffffffffffffffff16600185614e2d9092919063ffffffff16565b50614de5565b61ffff8167ffffffffffffffff1611614d4a57614d23601960058460ff16901b1784614e0d90919063ffffffff16565b50614d448167ffffffffffffffff16600285614e2d9092919063ffffffff16565b50614de4565b63ffffffff8167ffffffffffffffff1611614da357614d7c601a60058460ff16901b1784614e0d90919063ffffffff16565b50614d9d8167ffffffffffffffff16600485614e2d9092919063ffffffff16565b50614de3565b614dc0601b60058460ff16901b1784614e0d90919063ffffffff16565b50614de18167ffffffffffffffff16600885614e2d9092919063ffffffff16565b505b5b5b5b505050565b614df3615156565b614e0583846000015151848551614e4f565b905092915050565b614e15615156565b614e258384600001515184614f3e565b905092915050565b614e35615156565b614e46848560000151518585614f95565b90509392505050565b614e57615156565b8251821115614e6557600080fd5b84602001518285614e769190616a3d565b1115614eab57614eaa856002614e9b88602001518887614e969190616a3d565b615023565b614ea59190616d97565b61503f565b5b600080865180518760208301019350808887011115614eca5787860182525b60208701925050505b60208410614f115780518252602082614eec9190616a3d565b9150602081614efb9190616a3d565b9050602084614f0a9190616df1565b9350614ed3565b60006001856020036101000a03905080198251168184511681811785525050508692505050949350505050565b614f46615156565b83602001518310614f6c57614f6b8460028660200151614f669190616d97565b61503f565b5b8351805160208583010184815381861415614f88576001820183525b5050508390509392505050565b614f9d615156565b84602001518483614fae9190616a3d565b1115614fd657614fd58560028685614fc69190616a3d565b614fd09190616d97565b61503f565b5b6000600183610100614fe89190616b17565b614ff29190616df1565b905085518386820101858319825116178152815185880111156150155784870182525b505085915050949350505050565b60008183111561503557829050615039565b8190505b92915050565b6000826000015190506150528383614bfc565b5061505d8382614deb565b50505050565b82805461506f90617093565b90600052602060002090601f01602090048101928261509157600085556150d8565b82601f106150aa57805160ff19168380011785556150d8565b828001600101855582156150d8579182015b828111156150d75782518255916020019190600101906150bc565b5b5090506150e59190615170565b5090565b6040518060a0016040528060008019168152602001600073ffffffffffffffffffffffffffffffffffffffff16815260200160007bffffffffffffffffffffffffffffffffffffffffffffffffffffffff1916815260200160008152602001615150615156565b81525090565b604051806040016040528060608152602001600081525090565b5b80821115615189576000816000905550600101615171565b5090565b60006151a061519b84616835565b616810565b905080838252602082019050828560208602820111156151c3576151c261728e565b5b60005b858110156151f357816151d988826153ff565b8452602084019350602083019250506001810190506151c6565b5050509392505050565b600061521061520b84616861565b616810565b905080838252602082019050828560208602820111156152335761523261728e565b5b60005b8581101561526357816152498882615591565b845260208401935060208301925050600181019050615236565b5050509392505050565b600061528061527b8461688d565b616810565b905080838252602082019050828560208602820111156152a3576152a261728e565b5b60005b858110156152d357816152b988826155a6565b8452602084019350602083019250506001810190506152a6565b5050509392505050565b60006152f06152eb8461688d565b616810565b905080838252602082019050828560208602820111156153135761531261728e565b5b60005b85811015615343578161532988826155bb565b845260208401935060208301925050600181019050615316565b5050509392505050565b600061536061535b846168b9565b616810565b905080838252602082019050828560208602820111156153835761538261728e565b5b60005b858110156153b3578161539988826155d0565b845260208401935060208301925050600181019050615386565b5050509392505050565b60006153d06153cb846168e5565b616810565b9050828152602081018484840111156153ec576153eb617293565b5b6153f7848285617051565b509392505050565b60008135905061540e8161760c565b92915050565b60008135905061542381617623565b92915050565b600082601f83011261543e5761543d617289565b5b813561544e84826020860161518d565b91505092915050565b600082601f83011261546c5761546b617289565b5b813561547c8482602086016151fd565b91505092915050565b600082601f83011261549a57615499617289565b5b81356154aa84826020860161526d565b91505092915050565b600082601f8301126154c8576154c7617289565b5b81516154d88482602086016152dd565b91505092915050565b600082601f8301126154f6576154f5617289565b5b813561550684826020860161534d565b91505092915050565b60008151905061551e8161763a565b92915050565b60008135905061553381617651565b92915050565b60008151905061554881617668565b92915050565b600082601f83011261556357615562617289565b5b81356155738482602086016153bd565b91505092915050565b60008135905061558b8161767f565b92915050565b6000813590506155a081617696565b92915050565b6000813590506155b5816176ad565b92915050565b6000815190506155ca816176ad565b92915050565b6000813590506155df816176c4565b92915050565b6000815190506155f4816176f2565b92915050565b600081519050615609816176db565b92915050565b6000602082840312156156255761562461729d565b5b6000615633848285016153ff565b91505092915050565b6000806000606084860312156156555761565461729d565b5b6000615663868287016153ff565b9350506020615674868287016153ff565b92505060406156858682870161557c565b9150509250925092565b600080600080608085870312156156a9576156a861729d565b5b60006156b7878288016153ff565b94505060206156c8878288016153ff565b93505060406156d9878288016155a6565b92505060606156ea87828801615591565b91505092959194509250565b6000806040838503121561570d5761570c61729d565b5b600061571b858286016153ff565b925050602061572c858286016155d0565b9150509250929050565b600080600080608085870312156157505761574f61729d565b5b600085013567ffffffffffffffff81111561576e5761576d617298565b5b61577a87828801615429565b945050602085013567ffffffffffffffff81111561579b5761579a617298565b5b6157a787828801615485565b935050604085013567ffffffffffffffff8111156157c8576157c7617298565b5b6157d487828801615457565b925050606085013567ffffffffffffffff8111156157f5576157f4617298565b5b615801878288016154e1565b91505092959194509250565b6000602082840312156158235761582261729d565b5b600082015167ffffffffffffffff81111561584157615840617298565b5b61584d848285016154b3565b91505092915050565b60006020828403121561586c5761586b61729d565b5b600061587a8482850161550f565b91505092915050565b600080600080600060a0868803121561589f5761589e61729d565b5b60006158ad88828901615524565b955050602086013567ffffffffffffffff8111156158ce576158cd617298565b5b6158da88828901615429565b945050604086013567ffffffffffffffff8111156158fb576158fa617298565b5b61590788828901615485565b935050606086013567ffffffffffffffff81111561592857615927617298565b5b61593488828901615457565b925050608086013567ffffffffffffffff81111561595557615954617298565b5b615961888289016154e1565b9150509295509295909350565b600080604083850312156159855761598461729d565b5b600083013567ffffffffffffffff8111156159a3576159a2617298565b5b6159af8582860161554e565b925050602083013567ffffffffffffffff8111156159d0576159cf617298565b5b6159dc8582860161554e565b9150509250929050565b6000602082840312156159fc576159fb61729d565b5b6000615a0a848285016155a6565b91505092915050565b600060208284031215615a2957615a2861729d565b5b6000615a37848285016155bb565b91505092915050565b60008060408385031215615a5757615a5661729d565b5b6000615a65858286016155a6565b9250506020615a76858286016155d0565b9150509250929050565b600060208284031215615a9657615a9561729d565b5b6000615aa4848285016155d0565b91505092915050565b60008060408385031215615ac457615ac361729d565b5b6000615ad2858286016155d0565b9250506020615ae3858286016153ff565b9150509250929050565b60008060008060008060008060008060006101608c8e031215615b1357615b1261729d565b5b6000615b218e828f016155d0565b9b50506020615b328e828f01615414565b9a50506040615b438e828f016153ff565b9950506060615b548e828f016153ff565b9850506080615b658e828f01615524565b97505060a0615b768e828f016153ff565b96505060c0615b878e828f016153ff565b95505060e0615b988e828f016153ff565b945050610100615baa8e828f016153ff565b935050610120615bbc8e828f016153ff565b925050610140615bce8e828f016153ff565b9150509295989b509295989b9093969950565b600080600060608486031215615bfa57615bf961729d565b5b6000615c08868287016155d0565b9350506020615c19868287016153ff565b9250506040615c2a86828701615591565b9150509250925092565b600080600080600060a08688031215615c5057615c4f61729d565b5b6000615c5e888289016155e5565b9550506020615c6f88828901615539565b9450506040615c80888289016155bb565b9350506060615c91888289016155bb565b9250506080615ca2888289016155e5565b9150509295509295909350565b600060208284031215615cc557615cc461729d565b5b6000615cd3848285016155fa565b91505092915050565b6000615ce88383615d3c565b60208301905092915050565b6000615d0083836161d0565b60208301905092915050565b6000615d1883836161ee565b60208301905092915050565b6000615d308383616223565b60208301905092915050565b615d4581616e59565b82525050565b615d5481616e59565b82525050565b6000615d6582616956565b615d6f81856169cc565b9350615d7a83616916565b8060005b83811015615dab578151615d928882615cdc565b9750615d9d83616998565b925050600181019050615d7e565b5085935050505092915050565b6000615dc382616961565b615dcd81856169dd565b9350615dd883616926565b8060005b83811015615e09578151615df08882615cf4565b9750615dfb836169a5565b925050600181019050615ddc565b5085935050505092915050565b6000615e218261696c565b615e2b81856169ee565b9350615e3683616936565b8060005b83811015615e67578151615e4e8882615d0c565b9750615e59836169b2565b925050600181019050615e3a565b5085935050505092915050565b6000615e7f82616977565b615e8981856169ff565b9350615e9483616946565b8060005b83811015615ec5578151615eac8882615d24565b9750615eb7836169bf565b925050600181019050615e98565b5085935050505092915050565b615edb81616e89565b82525050565b615eea81616e93565b82525050565b6000615efb82616982565b615f058185616a10565b9350615f15818560208601617060565b615f1e816172a2565b840191505092915050565b6000615f3482616982565b615f3e8185616a21565b9350615f4e818560208601617060565b80840191505092915050565b615f6381616f55565b82525050565b615f7a615f7582616f67565b61713f565b82525050565b615f8981616f79565b82525050565b615f9881616f8b565b82525050565b615fa781616f9d565b82525050565b615fb681616faf565b82525050565b615fc581616fc1565b82525050565b615fd481616fd3565b82525050565b615fe381616fe5565b82525050565b615ff281616ff7565b82525050565b61600181617009565b82525050565b60006160128261698d565b61601c8185616a2c565b935061602c818560208601617060565b616035816172a2565b840191505092915050565b600061604d602383616a2c565b9150616058826172cd565b604082019050919050565b6000616070603283616a2c565b915061607b8261731c565b604082019050919050565b6000616093603a83616a2c565b915061609e8261736b565b604082019050919050565b60006160b6602e83616a2c565b91506160c1826173ba565b604082019050919050565b60006160d9602e83616a2c565b91506160e482617409565b604082019050919050565b60006160fc602083616a2c565b915061610782617458565b602082019050919050565b600061611f603083616a2c565b915061612a82617481565b604082019050919050565b6000616142602e83616a2c565b915061614d826174d0565b604082019050919050565b6000616165602b83616a2c565b91506161708261751f565b604082019050919050565b6000616188602883616a2c565b91506161938261756e565b604082019050919050565b60006161ab602b83616a2c565b91506161b6826175bd565b604082019050919050565b6161ca81616ec9565b82525050565b6161d981616f05565b82525050565b6161e881616f05565b82525050565b6161f781616f14565b82525050565b61620681616f14565b82525050565b61621d61621882616f14565b617163565b82525050565b61622c81616f1e565b82525050565b61623b81616f1e565b82525050565b61624a81616f32565b82525050565b600061625c8285615f29565b91506162688284615f29565b91508190509392505050565b60006162808285615f69565b601482019150616290828461620c565b6020820191508190509392505050565b60006020820190506162b56000830184615d4b565b92915050565b60006080820190506162d06000830187615d4b565b6162dd6020830186615d4b565b6162ea6040830185615d4b565b6162f760608301846161c1565b95945050505050565b600061010082019050616316600083018b615d4b565b616323602083018a6161fd565b6163306040830189615ed2565b61633d6060830188615d4b565b61634a6080830187615ee1565b61635760a08301866161fd565b61636460c08301856161fd565b81810360e08301526163768184615ef0565b90509998505050505050505050565b600060608201905061639a6000830186615d4b565b6163a760208301856161fd565b81810360408301526163b98184615ef0565b9050949350505050565b600060208201905081810360008301526163dd8184615d5a565b905092915050565b600060808201905081810360008301526163ff8187615d5a565b905081810360208301526164138186615e16565b905081810360408301526164278185615db8565b9050818103606083015261643b8184615e74565b905095945050505050565b600060808201905081810360008301526164608187615d5a565b905081810360208301526164748186615e16565b905081810360408301526164888185615e16565b9050818103606083015261649c8184615e74565b905095945050505050565b600060208201905081810360008301526164c18184615e16565b905092915050565b60006020820190506164de6000830184615ed2565b92915050565b60006020820190506164f96000830184615f5a565b92915050565b60006020820190506165146000830184615f80565b92915050565b600060208201905061652f6000830184615f8f565b92915050565b600060208201905061654a6000830184615f9e565b92915050565b60006020820190506165656000830184615fad565b92915050565b60006020820190506165806000830184615fbc565b92915050565b600060208201905061659b6000830184615fcb565b92915050565b60006020820190506165b66000830184615fda565b92915050565b60006020820190506165d16000830184615fe9565b92915050565b60006020820190506165ec6000830184615ff8565b92915050565b6000602082019050818103600083015261660c8184616007565b905092915050565b6000602082019050818103600083015261662d81616040565b9050919050565b6000602082019050818103600083015261664d81616063565b9050919050565b6000602082019050818103600083015261666d81616086565b9050919050565b6000602082019050818103600083015261668d816160a9565b9050919050565b600060208201905081810360008301526166ad816160cc565b9050919050565b600060208201905081810360008301526166cd816160ef565b9050919050565b600060208201905081810360008301526166ed81616112565b9050919050565b6000602082019050818103600083015261670d81616135565b9050919050565b6000602082019050818103600083015261672d81616158565b9050919050565b6000602082019050818103600083015261674d8161617b565b9050919050565b6000602082019050818103600083015261676d8161619e565b9050919050565b600060208201905061678960008301846161df565b92915050565b60006020820190506167a460008301846161fd565b92915050565b60006040820190506167bf60008301856161fd565b81810360208301526167d18184615d5a565b90509392505050565b60006020820190506167ef6000830184616232565b92915050565b600060208201905061680a6000830184616241565b92915050565b600061681a61682b565b905061682682826170c5565b919050565b6000604051905090565b600067ffffffffffffffff8211156168505761684f61725a565b5b602082029050602081019050919050565b600067ffffffffffffffff82111561687c5761687b61725a565b5b602082029050602081019050919050565b600067ffffffffffffffff8211156168a8576168a761725a565b5b602082029050602081019050919050565b600067ffffffffffffffff8211156168d4576168d361725a565b5b602082029050602081019050919050565b600067ffffffffffffffff821115616900576168ff61725a565b5b616909826172a2565b9050602081019050919050565b6000819050602082019050919050565b6000819050602082019050919050565b6000819050602082019050919050565b6000819050602082019050919050565b600081519050919050565b600081519050919050565b600081519050919050565b600081519050919050565b600081519050919050565b600081519050919050565b6000602082019050919050565b6000602082019050919050565b6000602082019050919050565b6000602082019050919050565b600082825260208201905092915050565b600082825260208201905092915050565b600082825260208201905092915050565b600082825260208201905092915050565b600082825260208201905092915050565b600081905092915050565b600082825260208201905092915050565b6000616a4882616f14565b9150616a5383616f14565b9250827fffffffffffffffffffffffffffffffffffffffffffffffffffffffffffffffff03821115616a8857616a8761719e565b5b828201905092915050565b6000616a9e82616f14565b9150616aa983616f14565b925082616ab957616ab86171cd565b5b828204905092915050565b6000808291508390505b6001851115616b0e57808604811115616aea57616ae961719e565b5b6001851615616af95780820291505b8081029050616b07856172c0565b9450616ace565b94509492505050565b6000616b2282616f14565b9150616b2d83616f14565b9250616b5a7fffffffffffffffffffffffffffffffffffffffffffffffffffffffffffffffff8484616bad565b905092915050565b6000616b6d82616f14565b9150616b7883616f32565b9250616ba57fffffffffffffffffffffffffffffffffffffffffffffffffffffffffffffffff8484616bad565b905092915050565b600082616bbd5760019050616c79565b81616bcb5760009050616c79565b8160018114616be15760028114616beb57616c1a565b6001915050616c79565b60ff841115616bfd57616bfc61719e565b5b8360020a915084821115616c1457616c1361719e565b5b50616c79565b5060208310610133831016604e8410600b8410161715616c4f5782820a905083811115616c4a57616c4961719e565b5b616c79565b616c5c8484846001616ac4565b92509050818404811115616c7357616c7261719e565b5b81810290505b9392505050565b6000616c8b82616ebf565b9150616c9683616ebf565b9250827f7fffffffffffffffffffffffffffffffffffffffffffffffffffffffffffffff0482116000841360008413161615616cd557616cd461719e565b5b817f80000000000000000000000000000000000000000000000000000000000000000583126000841260008413161615616d1257616d1161719e565b5b827f80000000000000000000000000000000000000000000000000000000000000000582126000841360008412161615616d4f57616d4e61719e565b5b827f7fffffffffffffffffffffffffffffffffffffffffffffffffffffffffffffff0582126000841260008412161615616d8c57616d8b61719e565b5b828202905092915050565b6000616da282616f14565b9150616dad83616f14565b9250817fffffffffffffffffffffffffffffffffffffffffffffffffffffffffffffffff0483118215151615616de657616de561719e565b5b828202905092915050565b6000616dfc82616f14565b9150616e0783616f14565b925082821015616e1a57616e1961719e565b5b828203905092915050565b6000616e3082616f32565b9150616e3b83616f32565b925082821015616e4e57616e4d61719e565b5b828203905092915050565b6000616e6482616ee5565b9050919050565b6000616e7682616ee5565b9050919050565b60008115159050919050565b6000819050919050565b60007fffffffff0000000000000000000000000000000000000000000000000000000082169050919050565b6000819050919050565b60006fffffffffffffffffffffffffffffffff82169050919050565b600073ffffffffffffffffffffffffffffffffffffffff82169050919050565b600062ffffff82169050919050565b6000819050919050565b600067ffffffffffffffff82169050919050565b600060ff82169050919050565b600069ffffffffffffffffffff82169050919050565b6000616f608261701b565b9050919050565b6000616f728261701b565b9050919050565b6000616f848261701b565b9050919050565b6000616f968261701b565b9050919050565b6000616fa88261701b565b9050919050565b6000616fba8261701b565b9050919050565b6000616fcc8261701b565b9050919050565b6000616fde8261701b565b9050919050565b6000616ff08261702d565b9050919050565b60006170028261701b565b9050919050565b600061701482616f32565b9050919050565b60006170268261703f565b9050919050565b60006170388261703f565b9050919050565b600061704a82616ee5565b9050919050565b82818337600083830152505050565b60005b8381101561707e578082015181840152602081019050617063565b8381111561708d576000848401525b50505050565b600060028204905060018216806170ab57607f821691505b602082108114156170bf576170be6171fc565b5b50919050565b6170ce826172a2565b810181811067ffffffffffffffff821117156170ed576170ec61725a565b5b80604052505050565b600061710182616f14565b91507fffffffffffffffffffffffffffffffffffffffffffffffffffffffffffffffff8214156171345761713361719e565b5b600182019050919050565b600061714a82617151565b9050919050565b600061715c826172b3565b9050919050565b6000819050919050565b600061717882616f14565b915061718383616f14565b925082617193576171926171cd565b5b828206905092915050565b7f4e487b7100000000000000000000000000000000000000000000000000000000600052601160045260246000fd5b7f4e487b7100000000000000000000000000000000000000000000000000000000600052601260045260246000fd5b7f4e487b7100000000000000000000000000000000000000000000000000000000600052602260045260246000fd5b7f4e487b7100000000000000000000000000000000000000000000000000000000600052603260045260246000fd5b7f4e487b7100000000000000000000000000000000000000000000000000000000600052604160045260246000fd5b600080fd5b600080fd5b600080fd5b600080fd5b600080fd5b6000601f19601f8301169050919050565b60008160601b9050919050565b60008160011c9050919050565b7f756e61626c6520746f207472616e73666572416e6443616c6c20746f206f726160008201527f636c650000000000000000000000000000000000000000000000000000000000602082015250565b7f50726f706f7361626c654f776e61626c653a206e6577206f776e65722069732060008201527f6e6f742070726f706f736564206f776e65720000000000000000000000000000602082015250565b7f50726f706f7361626c654f776e61626c653a20746869732063616c6c206d757360008201527f74206265206d61646520627920746865206e6577206f776e6572000000000000602082015250565b7f496e697469616c697a61626c653a20636f6e747261637420697320616c72656160008201527f647920696e697469616c697a6564000000000000000000000000000000000000602082015250565b7f43616c6c6572206973206e6f7420696e64657820666163746f72792062616c6160008201527f6e63657220636f6e74726163742e000000000000000000000000000000000000602082015250565b7f4f776e61626c653a2063616c6c6572206973206e6f7420746865206f776e6572600082015250565b7f50726f706f7361626c654f776e61626c653a206e6577206f776e65722069732060008201527f746865207a65726f206164647265737300000000000000000000000000000000602082015250565b7f49434f3a205072696365206665656420616464726573732063616e6e6f74206260008201527f65207a65726f2061646472657373000000000000000000000000000000000000602082015250565b7f5072696365206f7261636c6520616464726573732063616e6e6f74206265207a60008201527f65726f2061646472657373000000000000000000000000000000000000000000602082015250565b7f536f75726365206d75737420626520746865206f7261636c65206f662074686560008201527f2072657175657374000000000000000000000000000000000000000000000000602082015250565b7f496e697469616c697a61626c653a20636f6e7472616374206973206e6f74206960008201527f6e697469616c697a696e67000000000000000000000000000000000000000000602082015250565b61761581616e59565b811461762057600080fd5b50565b61762c81616e6b565b811461763757600080fd5b50565b61764381616e7d565b811461764e57600080fd5b50565b61765a81616e89565b811461766557600080fd5b50565b61767181616ebf565b811461767c57600080fd5b50565b61768881616ec9565b811461769357600080fd5b50565b61769f81616f05565b81146176aa57600080fd5b50565b6176b681616f14565b81146176c157600080fd5b50565b6176cd81616f1e565b81146176d857600080fd5b50565b6176e481616f32565b81146176ef57600080fd5b50565b6176fb81616f3f565b811461770657600080fd5b5056fe68747470733a2f2f6170702e6e65786c6162732e696f2f6170692f616c6c46756e64696e6752617465733f6d756c7469706c7946756e633d31382674696d65734e656746756e643d74727565266172726179733d74727565a2646970667358221220658e94b908873a41a700ace5d1b76e02b95dc8d8b100fd8a9cae5be2c55c7e2f64736f6c63430008070033","linkReferences":{}},"methodIdentifiers":{"allCurrentChainSelectorTokenShares(uint64)":"af696b34","allCurrentChainSelectorTokens(uint64)":"d1c68aa3","allCurrentChainSelectorVersions(uint64)":"221f3371","allOracleChainSelectorTokenShares(uint64)":"bf0d49c0","allOracleChainSelectorTokens(uint64)":"d050ca7c","allOracleChainSelectorVersions(uint64)":"a1adff88","concatenation(string,string)":"0e329357","crossChainFactoryBySelector(uint64)":"340fbc74","crossChainToken(uint64)":"19da7e2a","crossChainTokenSwapFee(uint64,address)":"652354ae","currentChainSelector()":"3d54cb6f","currentChainSelectorTokensCount(uint64)":"b6ad185b","currentChainSelectorsCount()":"69487b1c","currentFilledCount()":"b90b8a2a","currentList(uint256)":"9932ba4c","estimateAmountOut(address,address,uint128)":"0456f9c8","externalJobId()":"a8b54bd4","factoryV2()":"68e0d4e1","factoryV3()":"1d5f45f5","feeRate()":"978bbdb9","fulfillAssetsData(bytes32,address[],uint256[],uint24[],uint64[])":"b2c44b3f","getAmountOut(address,address,uint256,uint24)":"dd811ac9","getCurrentChainSelectorTotalShares(uint256,uint64)":"2a3ff8ad","getCurrentData(uint256)":"d3f7f266","getOracleData(uint256)":"536e3f6a","getPortfolioBalance()":"a8509fd8","indexFactory()":"e3fd0af2","indexFactoryBalancer()":"29d75de9","indexToken()":"e7d015f2","initialize(uint64,address,address,address,bytes32,address,address,address,address,address,address)":"9ebe560e","lastUpdateTime()":"c8f33c91","latestFeeUpdate()":"011ced5f","mockFillAssetsList(address[],uint256[],uint24[],uint64[])":"8bb8f1bb","mockUpdateCurrentList()":"4f9641b9","oracleChainSelectorTokensCount(uint64)":"fc698b4a","oracleChainSelectorsCount()":"8e9d7c18","oracleFilledCount()":"f1581787","oracleList(uint256)":"239aad0d","oraclePayment()":"0c02e130","owner()":"8da5cb5b","priceInWei()":"3c8da588","priceOracle()":"2630c12f","proposeOwner(address)":"b5ed298a","proposedOwner()":"d153b60c","quoter()":"c6bbd5a7","renounceOwnership()":"715018a6","requestAssetsData()":"7ca58c55","setCrossChainFactory(address,uint64)":"271040df","setCrossChainToken(uint64,address,uint24)":"f0cd5b72","setIndexFactory(address)":"d047937f","setIndexFactoryBalancer(address)":"ae214f39","setPriceFeed(address)":"724e78da","setPriceOracle(address)":"530e784f","setUrl(string,string)":"a73e1cbf","setVault(address)":"6817031b","swapRouterV2()":"744fbc7a","swapRouterV3()":"b631e80b","toUsdPriceFeed()":"63973fda","tokenChainSelector(address)":"ea8ecf04","tokenCurrentListIndex(address)":"914f0cc6","tokenCurrentMarketShare(address)":"0be52713","tokenOracleListIndex(address)":"8c88c10c","tokenOracleMarketShare(address)":"4b3e0b80","tokenSwapFee(address)":"32599665","totalCurrentChainSelectors()":"92e410ce","totalCurrentList()":"53fd4332","totalOracleChainSelectors()":"80acffa3","totalOracleList()":"c8599ded","transferOwnership(address)":"f2fde38b","updateCurrentList()":"8baa6bf1","vault()":"fbfa77cf","weth()":"3fc8cef3"},"id":5}