{"abi":[{"type":"function","name":"allCurrentChainSelectorTokenShares","inputs":[{"name":"_chainSelector","type":"uint64","internalType":"uint64"}],"outputs":[{"name":"","type":"uint256[]","internalType":"uint256[]"}],"stateMutability":"view"},{"type":"function","name":"allCurrentChainSelectorTokens","inputs":[{"name":"_chainSelector","type":"uint64","internalType":"uint64"}],"outputs":[{"name":"tokens","type":"address[]","internalType":"address[]"}],"stateMutability":"view"},{"type":"function","name":"allCurrentChainSelectorVersions","inputs":[{"name":"_chainSelector","type":"uint64","internalType":"uint64"}],"outputs":[{"name":"versions","type":"uint256[]","internalType":"uint256[]"}],"stateMutability":"view"},{"type":"function","name":"allOracleChainSelectorTokenShares","inputs":[{"name":"_chainSelector","type":"uint64","internalType":"uint64"}],"outputs":[{"name":"","type":"uint256[]","internalType":"uint256[]"}],"stateMutability":"view"},{"type":"function","name":"allOracleChainSelectorTokens","inputs":[{"name":"_chainSelector","type":"uint64","internalType":"uint64"}],"outputs":[{"name":"tokens","type":"address[]","internalType":"address[]"}],"stateMutability":"view"},{"type":"function","name":"allOracleChainSelectorVersions","inputs":[{"name":"_chainSelector","type":"uint64","internalType":"uint64"}],"outputs":[{"name":"versions","type":"uint256[]","internalType":"uint256[]"}],"stateMutability":"view"},{"type":"function","name":"concatenation","inputs":[{"name":"a","type":"string","internalType":"string"},{"name":"b","type":"string","internalType":"string"}],"outputs":[{"name":"","type":"string","internalType":"string"}],"stateMutability":"pure"},{"type":"function","name":"crossChainFactoryBySelector","inputs":[{"name":"","type":"uint64","internalType":"uint64"}],"outputs":[{"name":"","type":"address","internalType":"address"}],"stateMutability":"view"},{"type":"function","name":"crossChainToken","inputs":[{"name":"","type":"uint64","internalType":"uint64"}],"outputs":[{"name":"","type":"address","internalType":"address"}],"stateMutability":"view"},{"type":"function","name":"crossChainTokenSwapFee","inputs":[{"name":"","type":"uint64","internalType":"uint64"},{"name":"","type":"address","internalType":"address"}],"outputs":[{"name":"","type":"uint24","internalType":"uint24"}],"stateMutability":"view"},{"type":"function","name":"currentChainSelector","inputs":[],"outputs":[{"name":"","type":"uint64","internalType":"uint64"}],"stateMutability":"view"},{"type":"function","name":"currentChainSelectorTokensCount","inputs":[{"name":"_chainSelector","type":"uint64","internalType":"uint64"}],"outputs":[{"name":"","type":"uint256","internalType":"uint256"}],"stateMutability":"view"},{"type":"function","name":"currentChainSelectorsCount","inputs":[],"outputs":[{"name":"","type":"uint256","internalType":"uint256"}],"stateMutability":"view"},{"type":"function","name":"currentFilledCount","inputs":[],"outputs":[{"name":"","type":"uint256","internalType":"uint256"}],"stateMutability":"view"},{"type":"function","name":"currentList","inputs":[{"name":"","type":"uint256","internalType":"uint256"}],"outputs":[{"name":"","type":"address","internalType":"address"}],"stateMutability":"view"},{"type":"function","name":"estimateAmountOut","inputs":[{"name":"tokenIn","type":"address","internalType":"address"},{"name":"tokenOut","type":"address","internalType":"address"},{"name":"amountIn","type":"uint128","internalType":"uint128"},{"name":"fee","type":"uint24","internalType":"uint24"}],"outputs":[{"name":"amountOut","type":"uint256","internalType":"uint256"}],"stateMutability":"view"},{"type":"function","name":"externalJobId","inputs":[],"outputs":[{"name":"","type":"bytes32","internalType":"bytes32"}],"stateMutability":"view"},{"type":"function","name":"factoryV2","inputs":[],"outputs":[{"name":"","type":"address","internalType":"contract IUniswapV2Factory"}],"stateMutability":"view"},{"type":"function","name":"factoryV3","inputs":[],"outputs":[{"name":"","type":"address","internalType":"contract IUniswapV3Factory"}],"stateMutability":"view"},{"type":"function","name":"feeRate","inputs":[],"outputs":[{"name":"","type":"uint8","internalType":"uint8"}],"stateMutability":"view"},{"type":"function","name":"fulfillAssetsData","inputs":[{"name":"requestId","type":"bytes32","internalType":"bytes32"},{"name":"_tokens","type":"address[]","internalType":"address[]"},{"name":"_marketShares","type":"uint256[]","internalType":"uint256[]"},{"name":"_swapFees","type":"uint24[]","internalType":"uint24[]"},{"name":"_chainSelectors","type":"uint64[]","internalType":"uint64[]"}],"outputs":[],"stateMutability":"nonpayable"},{"type":"function","name":"getAmountOut","inputs":[{"name":"tokenIn","type":"address","internalType":"address"},{"name":"tokenOut","type":"address","internalType":"address"},{"name":"amountIn","type":"uint256","internalType":"uint256"},{"name":"_swapFee","type":"uint24","internalType":"uint24"}],"outputs":[{"name":"finalAmountOutValue","type":"uint256","internalType":"uint256"}],"stateMutability":"view"},{"type":"function","name":"getCurrentChainSelectorTotalShares","inputs":[{"name":"index","type":"uint256","internalType":"uint256"},{"name":"chainSelector","type":"uint64","internalType":"uint64"}],"outputs":[{"name":"","type":"uint256","internalType":"uint256"}],"stateMutability":"view"},{"type":"function","name":"getCurrentData","inputs":[{"name":"index","type":"uint256","internalType":"uint256"}],"outputs":[{"name":"tokens","type":"address[]","internalType":"address[]"},{"name":"marketShares","type":"uint256[]","internalType":"uint256[]"},{"name":"swapFees","type":"uint24[]","internalType":"uint24[]"},{"name":"chainSelectors","type":"uint64[]","internalType":"uint64[]"}],"stateMutability":"view"},{"type":"function","name":"getOracleChainSelectorTotalShares","inputs":[{"name":"index","type":"uint256","internalType":"uint256"},{"name":"chainSelector","type":"uint64","internalType":"uint64"}],"outputs":[{"name":"","type":"uint256","internalType":"uint256"}],"stateMutability":"view"},{"type":"function","name":"getOracleData","inputs":[{"name":"index","type":"uint256","internalType":"uint256"}],"outputs":[{"name":"tokens","type":"address[]","internalType":"address[]"},{"name":"marketShares","type":"uint256[]","internalType":"uint256[]"},{"name":"swapFees","type":"uint256[]","internalType":"uint256[]"},{"name":"chainSelectors","type":"uint64[]","internalType":"uint64[]"}],"stateMutability":"view"},{"type":"function","name":"getPortfolioBalance","inputs":[],"outputs":[{"name":"","type":"uint256","internalType":"uint256"}],"stateMutability":"view"},{"type":"function","name":"indexFactory","inputs":[],"outputs":[{"name":"","type":"address","internalType":"address"}],"stateMutability":"view"},{"type":"function","name":"indexFactoryBalancer","inputs":[],"outputs":[{"name":"","type":"address","internalType":"address"}],"stateMutability":"view"},{"type":"function","name":"indexToken","inputs":[],"outputs":[{"name":"","type":"address","internalType":"contract IndexToken"}],"stateMutability":"view"},{"type":"function","name":"initialize","inputs":[{"name":"_currentChainSelector","type":"uint64","internalType":"uint64"},{"name":"_token","type":"address","internalType":"address payable"},{"name":"_chainlinkToken","type":"address","internalType":"address"},{"name":"_oracleAddress","type":"address","internalType":"address"},{"name":"_externalJobId","type":"bytes32","internalType":"bytes32"},{"name":"_toUsdPriceFeed","type":"address","internalType":"address"},{"name":"_weth","type":"address","internalType":"address"},{"name":"_swapRouterV3","type":"address","internalType":"address"},{"name":"_factoryV3","type":"address","internalType":"address"},{"name":"_swapRouterV2","type":"address","internalType":"address"},{"name":"_factoryV2","type":"address","internalType":"address"}],"outputs":[],"stateMutability":"nonpayable"},{"type":"function","name":"lastUpdateTime","inputs":[],"outputs":[{"name":"","type":"uint256","internalType":"uint256"}],"stateMutability":"view"},{"type":"function","name":"latestFeeUpdate","inputs":[],"outputs":[{"name":"","type":"uint256","internalType":"uint256"}],"stateMutability":"view"},{"type":"function","name":"mockFillAssetsList","inputs":[{"name":"_tokens","type":"address[]","internalType":"address[]"},{"name":"_marketShares","type":"uint256[]","internalType":"uint256[]"},{"name":"_swapFees","type":"uint24[]","internalType":"uint24[]"},{"name":"_chainSelectors","type":"uint64[]","internalType":"uint64[]"}],"outputs":[],"stateMutability":"nonpayable"},{"type":"function","name":"mockUpdateCurrentList","inputs":[],"outputs":[],"stateMutability":"nonpayable"},{"type":"function","name":"oracleChainSelectorTokensCount","inputs":[{"name":"_chainSelector","type":"uint64","internalType":"uint64"}],"outputs":[{"name":"","type":"uint256","internalType":"uint256"}],"stateMutability":"view"},{"type":"function","name":"oracleChainSelectorsCount","inputs":[],"outputs":[{"name":"","type":"uint256","internalType":"uint256"}],"stateMutability":"view"},{"type":"function","name":"oracleFilledCount","inputs":[],"outputs":[{"name":"","type":"uint256","internalType":"uint256"}],"stateMutability":"view"},{"type":"function","name":"oracleList","inputs":[{"name":"","type":"uint256","internalType":"uint256"}],"outputs":[{"name":"","type":"address","internalType":"address"}],"stateMutability":"view"},{"type":"function","name":"oraclePayment","inputs":[],"outputs":[{"name":"","type":"uint256","internalType":"uint256"}],"stateMutability":"view"},{"type":"function","name":"owner","inputs":[],"outputs":[{"name":"","type":"address","internalType":"address"}],"stateMutability":"view"},{"type":"function","name":"priceInWei","inputs":[],"outputs":[{"name":"","type":"uint256","internalType":"uint256"}],"stateMutability":"view"},{"type":"function","name":"priceOracle","inputs":[],"outputs":[{"name":"","type":"address","internalType":"address"}],"stateMutability":"view"},{"type":"function","name":"proposeOwner","inputs":[{"name":"_proposedOwner","type":"address","internalType":"address"}],"outputs":[],"stateMutability":"nonpayable"},{"type":"function","name":"proposedOwner","inputs":[],"outputs":[{"name":"","type":"address","internalType":"address"}],"stateMutability":"view"},{"type":"function","name":"quoter","inputs":[],"outputs":[{"name":"","type":"address","internalType":"contract IQuoter"}],"stateMutability":"view"},{"type":"function","name":"renounceOwnership","inputs":[],"outputs":[],"stateMutability":"nonpayable"},{"type":"function","name":"requestAssetsData","inputs":[],"outputs":[{"name":"","type":"bytes32","internalType":"bytes32"}],"stateMutability":"nonpayable"},{"type":"function","name":"setCrossChainFactory","inputs":[{"name":"_crossChainFactoryAddress","type":"address","internalType":"address"},{"name":"_chainSelector","type":"uint64","internalType":"uint64"}],"outputs":[],"stateMutability":"nonpayable"},{"type":"function","name":"setCrossChainToken","inputs":[{"name":"_chainSelector","type":"uint64","internalType":"uint64"},{"name":"_crossChainToken","type":"address","internalType":"address"},{"name":"_swapFee","type":"uint24","internalType":"uint24"}],"outputs":[],"stateMutability":"nonpayable"},{"type":"function","name":"setIndexFactory","inputs":[{"name":"_indexFactory","type":"address","internalType":"address"}],"outputs":[],"stateMutability":"nonpayable"},{"type":"function","name":"setIndexFactoryBalancer","inputs":[{"name":"_indexFactoryBalancer","type":"address","internalType":"address"}],"outputs":[],"stateMutability":"nonpayable"},{"type":"function","name":"setPriceFeed","inputs":[{"name":"_toUsdPricefeed","type":"address","internalType":"address"}],"outputs":[],"stateMutability":"nonpayable"},{"type":"function","name":"setPriceOracle","inputs":[{"name":"_priceOracle","type":"address","internalType":"address"}],"outputs":[],"stateMutability":"nonpayable"},{"type":"function","name":"setUrl","inputs":[{"name":"_beforeAddress","type":"string","internalType":"string"},{"name":"_afterAddress","type":"string","internalType":"string"}],"outputs":[],"stateMutability":"nonpayable"},{"type":"function","name":"setVault","inputs":[{"name":"_vaultAddress","type":"address","internalType":"address"}],"outputs":[],"stateMutability":"nonpayable"},{"type":"function","name":"swapRouterV2","inputs":[],"outputs":[{"name":"","type":"address","internalType":"contract IUniswapV2Router02"}],"stateMutability":"view"},{"type":"function","name":"swapRouterV3","inputs":[],"outputs":[{"name":"","type":"address","internalType":"contract ISwapRouter"}],"stateMutability":"view"},{"type":"function","name":"toUsdPriceFeed","inputs":[],"outputs":[{"name":"","type":"address","internalType":"contract AggregatorV3Interface"}],"stateMutability":"view"},{"type":"function","name":"tokenChainSelector","inputs":[{"name":"","type":"address","internalType":"address"}],"outputs":[{"name":"","type":"uint64","internalType":"uint64"}],"stateMutability":"view"},{"type":"function","name":"tokenCurrentListIndex","inputs":[{"name":"","type":"address","internalType":"address"}],"outputs":[{"name":"","type":"uint256","internalType":"uint256"}],"stateMutability":"view"},{"type":"function","name":"tokenCurrentMarketShare","inputs":[{"name":"","type":"address","internalType":"address"}],"outputs":[{"name":"","type":"uint256","internalType":"uint256"}],"stateMutability":"view"},{"type":"function","name":"tokenOracleListIndex","inputs":[{"name":"","type":"address","internalType":"address"}],"outputs":[{"name":"","type":"uint256","internalType":"uint256"}],"stateMutability":"view"},{"type":"function","name":"tokenOracleMarketShare","inputs":[{"name":"","type":"address","internalType":"address"}],"outputs":[{"name":"","type":"uint256","internalType":"uint256"}],"stateMutability":"view"},{"type":"function","name":"tokenSwapFee","inputs":[{"name":"","type":"address","internalType":"address"}],"outputs":[{"name":"","type":"uint24","internalType":"uint24"}],"stateMutability":"view"},{"type":"function","name":"totalCurrentChainSelectors","inputs":[],"outputs":[{"name":"","type":"uint256","internalType":"uint256"}],"stateMutability":"view"},{"type":"function","name":"totalCurrentList","inputs":[],"outputs":[{"name":"","type":"uint256","internalType":"uint256"}],"stateMutability":"view"},{"type":"function","name":"totalOracleChainSelectors","inputs":[],"outputs":[{"name":"","type":"uint256","internalType":"uint256"}],"stateMutability":"view"},{"type":"function","name":"totalOracleList","inputs":[],"outputs":[{"name":"","type":"uint256","internalType":"uint256"}],"stateMutability":"view"},{"type":"function","name":"transferOwnership","inputs":[{"name":"newOwner","type":"address","internalType":"address"}],"outputs":[],"stateMutability":"nonpayable"},{"type":"function","name":"updateCurrentList","inputs":[],"outputs":[],"stateMutability":"nonpayable"},{"type":"function","name":"vault","inputs":[],"outputs":[{"name":"","type":"address","internalType":"contract Vault"}],"stateMutability":"view"},{"type":"function","name":"weth","inputs":[],"outputs":[{"name":"","type":"address","internalType":"contract IWETH"}],"stateMutability":"view"},{"type":"event","name":"ChainlinkCancelled","inputs":[{"name":"id","type":"bytes32","indexed":true,"internalType":"bytes32"}],"anonymous":false},{"type":"event","name":"ChainlinkFulfilled","inputs":[{"name":"id","type":"bytes32","indexed":true,"internalType":"bytes32"}],"anonymous":false},{"type":"event","name":"ChainlinkRequested","inputs":[{"name":"id","type":"bytes32","indexed":true,"internalType":"bytes32"}],"anonymous":false},{"type":"event","name":"Initialized","inputs":[{"name":"version","type":"uint8","indexed":false,"internalType":"uint8"}],"anonymous":false},{"type":"event","name":"OwnershipTransferred","inputs":[{"name":"previousOwner","type":"address","indexed":true,"internalType":"address"},{"name":"newOwner","type":"address","indexed":true,"internalType":"address"}],"anonymous":false}],"bytecode":{"object":"0x6080604052348015600f57600080fd5b5061450e8061001f6000396000f3fe608060405234801561001057600080fd5b50600436106104335760003560e01c80638da5cb5b11610236578063bf0d49c01161013b578063dd811ac9116100c3578063f0cd5b7211610087578063f0cd5b7214610aae578063f158178714610ac1578063f2fde38b14610aca578063fbfa77cf14610add578063fc698b4a14610af057600080fd5b8063dd811ac914610a39578063e3fd0af214610a4c578063e7d015f214610a5f578063ea8ecf0414610a72578063ee7bd3e214610a9b57600080fd5b8063d047937f1161010a578063d047937f146109bd578063d050ca7c146109d0578063d153b60c146109f0578063d1c68aa314610a03578063d3f7f26614610a1657600080fd5b8063bf0d49c014610985578063c6bbd5a714610998578063c8599ded146109ab578063c8f33c91146109b457600080fd5b8063a8509fd8116101be578063b2c44b3f1161018d578063b2c44b3f14610908578063b5ed298a1461091b578063b631e80b1461092e578063b6ad185b14610941578063b90b8a2a1461097c57600080fd5b8063a8509fd8146108d1578063a8b54bd4146108d9578063ae214f39146108e2578063af696b34146108f557600080fd5b8063978bbdb911610205578063978bbdb9146108505780639932ba4c1461086f5780639ebe560e14610898578063a1adff88146108ab578063a73e1cbf146108be57600080fd5b80638da5cb5b146107fc5780638e9d7c181461080d578063914f0cc61461082757806392e410ce1461084757600080fd5b80634b3e0b801161033c57806369487b1c116102c45780637ca58c55116102935780637ca58c55146107b057806380acffa3146107b85780638baa6bf1146107c15780638bb8f1bb146107c95780638c88c10c146107dc57600080fd5b806369487b1c14610768578063715018a614610782578063724e78da1461078a578063744fbc7a1461079d57600080fd5b806353fd43321161030b57806353fd4332146106f657806363973fda146106ff578063652354ae146107125780636817031b1461074257806368e0d4e11461075557600080fd5b80634b3e0b80146106985780634f9641b9146106b8578063530e784f146106c0578063536e3f6a146106d357600080fd5b80632630c12f116103bf578063325996651161038e57806332599665146105f0578063340fbc74146106295780633c8da588146106525780633d54cb6f1461065a5780633fc8cef31461068557600080fd5b80632630c12f14610574578063271040df1461058e57806329d75de9146105a35780632a3ff8ad146105b657600080fd5b806319da7e2a1161040657806319da7e2a1461049d5780631d5f45f5146104de5780631dce3de8146104f1578063221f33711461052b578063239aad0d1461054b57600080fd5b8063011ced5f146104385780630be52713146104545780630c02e130146104745780630e3293571461047d575b600080fd5b61044160a45481565b6040519081526020015b60405180910390f35b61044161046236600461354f565b60b46020526000908152604090205481565b61044160a95481565b61049061048b366004613621565b610b2b565b60405161044b91906136d8565b6104c66104ab366004613702565b60a0602052600090815260409020546001600160a01b031681565b6040516001600160a01b03909116815260200161044b565b60bd546104c6906001600160a01b031681565b6104416104ff36600461371d565b600082815260ba602090815260408083206001600160401b038516845260080190915290205492915050565b61053e610539366004613702565b610b58565b60405161044b919061377b565b6104c661055936600461378e565b60b0602052600090815260409020546001600160a01b031681565b60a5546104c690600160401b90046001600160a01b031681565b6105a161059c3660046137a7565b610bd1565b005b609f546104c6906001600160a01b031681565b6104416105c436600461371d565b600082815260bb602090815260408083206001600160401b038516845260080190915290205492915050565b6106156105fe36600461354f565b60b66020526000908152604090205462ffffff1681565b60405162ffffff909116815260200161044b565b6104c6610637366004613702565b60a2602052600090815260409020546001600160a01b031681565b610441610c10565b60a55461066d906001600160401b031681565b6040516001600160401b03909116815260200161044b565b60c0546104c6906001600160a01b031681565b6104416106a636600461354f565b60b56020526000908152604090205481565b6105a1610d1e565b6105a16106ce36600461354f565b610d30565b6106e66106e136600461378e565b610dd8565b60405161044b9493929190613849565b61044160ad5481565b60aa546104c6906001600160a01b031681565b6106156107203660046138a1565b60a160209081526000928352604080842090915290825290205462ffffff1681565b6105a161075036600461354f565b610f99565b60bf546104c6906001600160a01b031681565b60b954600090815260bb6020526040902060030154610441565b6105a1610fc3565b6105a161079836600461354f565b610fd5565b60be546104c6906001600160a01b031681565b61044161106c565b61044160ae5481565b6105a1611362565b6105a16107d7366004613aac565b6113d3565b6104416107ea36600461354f565b60b26020526000908152604090205481565b6038546001600160a01b03166104c6565b60b854600090815260ba6020526040902060030154610441565b61044161083536600461354f565b60b36020526000908152604090205481565b61044160af5481565b60a35461085d9060ff1681565b60405160ff909116815260200161044b565b6104c661087d36600461378e565b60b1602052600090815260409020546001600160a01b031681565b6105a16108a6366004613b68565b6113ed565b61053e6108b9366004613702565b61165c565b6105a16108cc366004613621565b6116d3565b6104416116f9565b61044160a85481565b6105a16108f036600461354f565b6117df565b61053e610903366004613702565b611809565b6105a1610916366004613c3b565b611880565b6105a161092936600461354f565b611950565b60bc546104c6906001600160a01b031681565b61044161094f366004613702565b60b954600090815260bb602090815260408083206001600160401b03909416835260059093019052205490565b61044160b95481565b61053e610993366004613702565b6119a0565b60c1546104c6906001600160a01b031681565b61044160ac5481565b61044160ab5481565b6105a16109cb36600461354f565b611a17565b6109e36109de366004613702565b611a41565b60405161044b9190613d01565b606a546104c6906001600160a01b031681565b6109e3610a11366004613702565b611ac3565b610a29610a2436600461378e565b611b44565b60405161044b9493929190613d14565b610441610a47366004613d97565b611d04565b609e546104c6906001600160a01b031681565b609d546104c6906001600160a01b031681565b61066d610a8036600461354f565b60b7602052600090815260409020546001600160401b031681565b610441610aa9366004613de8565b611e48565b6105a1610abc366004613e43565b611eed565b61044160b85481565b6105a1610ad836600461354f565b611f54565b60c2546104c6906001600160a01b031681565b610441610afe366004613702565b60b854600090815260ba602090815260408083206001600160401b03909416835260059093019052205490565b60608282604051602001610b40929190613e88565b60405160208183030381529060405290505b92915050565b60b954600090815260bb602090815260408083206001600160401b0385168452600601825291829020805483518184028101840190945280845260609392830182828015610bc557602002820191906000526020600020905b815481526020019060010190808311610bb1575b50505050509050919050565b610bd961207c565b6001600160401b0316600090815260a26020526040902080546001600160a01b0319166001600160a01b0392909216919091179055565b60008060aa60009054906101000a90046001600160a01b03166001600160a01b031663feaf968c6040518163ffffffff1660e01b815260040160a060405180830381865afa158015610c66573d6000803e3d6000fd5b505050506040513d601f19601f82011682018060405250810190610c8a9190613ed1565b505050915050600060aa60009054906101000a90046001600160a01b03166001600160a01b031663313ce5676040518163ffffffff1660e01b8152600401602060405180830381865afa158015610ce5573d6000803e3d6000fd5b505050506040513d601f19601f82011682018060405250810190610d099190613f23565b9050610d17828260126120d6565b9392505050565b610d2661207c565b610d2e612116565b565b610d3861207c565b6001600160a01b038116610da75760405162461bcd60e51b815260206004820152602b60248201527f5072696365206f7261636c6520616464726573732063616e6e6f74206265207a60448201526a65726f206164647265737360a81b60648201526084015b60405180910390fd5b60a580546001600160a01b03909216600160401b0268010000000000000000600160e01b0319909216919091179055565b606080606080600060ba600087815260200190815260200160002090508060000181600101826002018360030183805480602002602001604051908101604052809291908181526020018280548015610e5a57602002820191906000526020600020905b81546001600160a01b03168152600190910190602001808311610e3c575b5050505050935082805480602002602001604051908101604052809291908181526020018280548015610eac57602002820191906000526020600020905b815481526020019060010190808311610e98575b5050505050925081805480602002602001604051908101604052809291908181526020018280548015610efe57602002820191906000526020600020905b815481526020019060010190808311610eea575b5050505050915080805480602002602001604051908101604052809291908181526020018280548015610f8257602002820191906000526020600020906000905b82829054906101000a90046001600160401b03166001600160401b031681526020019060080190602082600701049283019260010382029150808411610f3f5790505b505050505090509450945094509450509193509193565b610fa161207c565b60c280546001600160a01b0319166001600160a01b0392909216919091179055565b610fcb61207c565b610d2e6000612399565b610fdd61207c565b6001600160a01b03811661104a5760405162461bcd60e51b815260206004820152602e60248201527f49434f3a205072696365206665656420616464726573732063616e6e6f74206260448201526d65207a65726f206164647265737360901b6064820152608401610d9e565b60aa80546001600160a01b0319166001600160a01b0392909216919091179055565b60008061118d60a6805461107f90613f46565b80601f01602080910402602001604051908101604052809291908181526020018280546110ab90613f46565b80156110f85780601f106110cd576101008083540402835291602001916110f8565b820191906000526020600020905b8154815290600101906020018083116110db57829003601f168201915b505050505060a7805461110a90613f46565b80601f016020809104026020016040519081016040528092919081815260200182805461113690613f46565b80156111835780601f1061115857610100808354040283529160200191611183565b820191906000526020600020905b81548152906001019060200180831161116657829003601f168201915b5050505050610b2b565b905060006111a560a8543063b2c44b3f60e01b6123eb565b60408051808201909152600381526219d95d60ea1b60208201529091506111ce90829084612407565b61122660405180604001604052806005815260200164706174683160d81b8152506040518060400160405280600e81526020016d726573756c74732c746f6b656e7360901b815250836124079092919063ffffffff16565b611284604051806040016040528060058152602001643830ba341960d91b81525060405180604001604052806014815260200173726573756c74732c6d61726b657453686172657360601b815250836124079092919063ffffffff16565b6112de60405180604001604052806005815260200164706174683360d81b8152506040518060400160405280601081526020016f726573756c74732c737761704665657360801b815250836124079092919063ffffffff16565b61133d604051806040016040528060058152602001641c185d1a0d60da1b815250604051806040016040528060158152602001743932b9bab63a399631b430b4b729b2b632b1ba37b960591b815250836124079092919063ffffffff16565b61135b6113526003546001600160a01b031690565b8260a954612425565b9250505090565b609f546001600160a01b03163314610d265760405162461bcd60e51b815260206004820152602e60248201527f43616c6c6572206973206e6f7420696e64657820666163746f72792062616c6160448201526d3731b2b91031b7b73a3930b1ba1760911b6064820152608401610d9e565b6113db61207c565b6113e7848484846124b8565b50505050565b600054610100900460ff161580801561140d5750600054600160ff909116105b806114275750303b158015611427575060005460ff166001145b61148a5760405162461bcd60e51b815260206004820152602e60248201527f496e697469616c697a61626c653a20636f6e747261637420697320616c72656160448201526d191e481a5b9a5d1a585b1a5e995960921b6064820152608401610d9e565b6000805460ff1916600117905580156114ad576000805461ff0019166101001790555b6114b5612f09565b60a580546001600160401b038e1667ffffffffffffffff19909116179055609d80546001600160a01b038d166001600160a01b03199091161790556115178a600280546001600160a01b039092166001600160a01b0319909216919091179055565b600380546001600160a01b0319166001600160a01b038b1617905560a8889055600a61154c670de0b6b3a76400006001613f90565b6115569190613fbd565b60a95560aa80546001600160a01b03199081166001600160a01b038a81169190911790925560c08054821689841617905560bc8054821688841617905560bd8054821687841617905560be8054821686841617905560bf80549091169184169190911790556040805160608101909152602a808252614481602083013960a6906115e0908261401f565b506040518060600160405280602e81526020016144ab602e913960a790611607908261401f565b50801561164e576000805461ff0019169055604051600181527f7f26b83ff96e1f2b6a682f133852f6798a09c465da95921460cefb38474024989060200160405180910390a15b505050505050505050505050565b60b854600090815260ba602090815260408083206001600160401b0385168452600601825291829020805483518184028101840190945280845260609392830182828015610bc55760200282019190600052602060002090815481526020019060010190808311610bb15750505050509050919050565b6116db61207c565b60a66116e7838261401f565b5060a76116f4828261401f565b505050565b60008060005b60ad548110156117d957600081815260b160205260408082205460c05460c25492516370a0823160e01b81526001600160a01b0393841660048201526117c293928316929091169082906370a0823190602401602060405180830381865afa15801561176f573d6000803e3d6000fd5b505050506040513d601f19601f8201168201806040525081019061179391906140dd565b600086815260b160209081526040808320546001600160a01b0316835260b690915290205462ffffff16611d04565b90506117ce81846140f6565b9250506001016116ff565b50919050565b6117e761207c565b609f80546001600160a01b0319166001600160a01b0392909216919091179055565b60b954600090815260bb602090815260408083206001600160401b0385168452600701825291829020805483518184028101840190945280845260609392830182828015610bc55760200282019190600052602060002090815481526020019060010190808311610bb15750505050509050919050565b60008581526005602052604090205485906001600160a01b031633146118f95760405162461bcd60e51b815260206004820152602860248201527f536f75726365206d75737420626520746865206f7261636c65206f6620746865604482015267081c995c5d595cdd60c21b6064820152608401610d9e565b60008181526005602052604080822080546001600160a01b03191690555182917f7cc135e0cebb02c3480ae5d74d377283180a2601f8f644edf7987b009316c63a91a2611948858585856124b8565b505050505050565b61195861207c565b6001600160a01b03811661197e5760405162461bcd60e51b8152600401610d9e90614109565b606a80546001600160a01b0319166001600160a01b0392909216919091179055565b60b854600090815260ba602090815260408083206001600160401b0385168452600701825291829020805483518184028101840190945280845260609392830182828015610bc55760200282019190600052602060002090815481526020019060010190808311610bb15750505050509050919050565b611a1f61207c565b609e80546001600160a01b0319166001600160a01b0392909216919091179055565b60b854600090815260ba602090815260408083206001600160401b0385168452600501825291829020805483518184028101840190945280845260609392830182828015610bc557602002820191906000526020600020905b81546001600160a01b03168152600190910190602001808311611a9a5750505050509050919050565b60b954600090815260bb602090815260408083206001600160401b0385168452600501825291829020805483518184028101840190945280845260609392830182828015610bc5576020028201919060005260206000209081546001600160a01b03168152600190910190602001808311611a9a5750505050509050919050565b606080606080600060bb600087815260200190815260200160002090508060000181600101826002018360030183805480602002602001604051908101604052809291908181526020018280548015611bc657602002820191906000526020600020905b81546001600160a01b03168152600190910190602001808311611ba8575b5050505050935082805480602002602001604051908101604052809291908181526020018280548015611c1857602002820191906000526020600020905b815481526020019060010190808311611c04575b5050505050925081805480602002602001604051908101604052809291908181526020018280548015610efe57602002820191906000526020600020906000905b82829054906101000a900462ffffff1662ffffff1681526020019060030190602082600201049283019260010382029150808411611c595790505050505050915080805480602002602001604051908101604052809291908181526020018280548015610f8257600091825260209182902080546001600160401b03168452908202830192909160089101808411610f3f579050505050505090509450945094509450509193509193565b6000808315611e3f5762ffffff831615611d2b57611d2486868686611e48565b9050611e3f565b6040805160028082526060820183526000926020830190803683370190505090508681600081518110611d6057611d60614159565b60200260200101906001600160a01b031690816001600160a01b0316815250508581600181518110611d9457611d94614159565b6001600160a01b03928316602091820292909201015260be5460405163d06ca61f60e01b8152600092919091169063d06ca61f90611dd8908990869060040161416f565b600060405180830381865afa158015611df5573d6000803e3d6000fd5b505050506040513d6000823e601f3d908101601f19168201604052611e1d9190810190614188565b905080600181518110611e3257611e32614159565b6020026020010151925050505b95945050505050565b60a55460bd5460405163bb5705b360e01b81526001600160a01b039182166004820152868216602482015285821660448201526001600160801b038516606482015262ffffff84166084820152600092600160401b90049091169063bb5705b39060a401602060405180830381865afa158015611ec9573d6000803e3d6000fd5b505050506040513d601f19601f82011682018060405250810190611e3f91906140dd565b611ef561207c565b6001600160401b0392909216600090815260a06020908152604080832080546001600160a01b0319166001600160a01b0395909516948517905560a1825280832093835292905220805462ffffff191662ffffff909216919091179055565b6001600160a01b038116611f7a5760405162461bcd60e51b8152600401610d9e90614109565b606a546001600160a01b03828116911614611ff25760405162461bcd60e51b815260206004820152603260248201527f50726f706f7361626c654f776e61626c653a206e6577206f776e6572206973206044820152713737ba10383937b837b9b2b21037bbb732b960711b6064820152608401610d9e565b6001600160a01b03811633146120705760405162461bcd60e51b815260206004820152603a60248201527f50726f706f7361626c654f776e61626c653a20746869732063616c6c206d757360448201527f74206265206d61646520627920746865206e6577206f776e65720000000000006064820152608401610d9e565b61207981612399565b50565b6038546001600160a01b03163314610d2e5760405162461bcd60e51b815260206004820181905260248201527f4f776e61626c653a2063616c6c6572206973206e6f7420746865206f776e65726044820152606401610d9e565b60008260ff168260ff16111561210c576120f08383614213565b6120fb90600a614313565b6121059085614322565b9050610d17565b6120f08284614213565b600160b9600082825461212991906140f6565b90915550600090505b60ac5481101561239057600081815260b060209081526040808320805460b1845282852080546001600160a01b0319166001600160a01b03928316908117825583548316875260b586528487205490875260b486528487205582548216865260b285528386205490548216865260b3855283862055905416835260b782528083205460b954845260bb83528184206001600160401b0390911680855260049091019092529091205460ff166122595760b98054600090815260bb602081815260408084206001600160401b03878116808752600492830185528387208054600160ff199091168117909155975487529484529185206003908101805497880181558652929094209385049093018054949091166008026101000a9283021990931691021790555b60b98054600090815260bb602081815260408084206001600160401b0387168086526005909101835281852088865260b0845282862080548254600181810185559389528689200180546001600160a01b0319166001600160a01b0392831617905588548852868652848820848952600601865284882082548216895260b68752858920548154948501825590895286892062ffffff9091169301929092555416855260b583528185205495548552928252808420928452600890920190528120805490919061232a9084906140f6565b909155505060b954600090815260bb602090815260408083206001600160401b0390941683526007909301815282822084835260b08252838320546001600160a01b0316835260b582529282205483546001818101865594845291909220015501612132565b5060ac5460ad55565b603880546001600160a01b038381166001600160a01b0319831681179093556040519116919082907f8be0079c531659141344cd1fd0a4f28419497f9722a3daafe3b4186f6b6457e090600090a35050565b6123f36134ef565b6123fb6134ef565b611e3f81868686612f38565b60808301516124169083612f7e565b60808301516116f49082612f7e565b6004546000906124368160016140f6565b600455835160408086015160808701515191516000936320214ca360e11b9361246e9386938493923092918a91600191602401614352565b60408051601f198184030181529190526020810180516001600160e01b03166001600160e01b03199093169290921790915290506124ae86838684612f95565b9695505050505050565b60b880548591859185918591600191906000906124d69084906140f6565b909155505060ad546000036124fe57600160b960008282546124f891906140f6565b90915550505b60005b8451811015612ee55784818151811061251c5761251c614159565b602002602001015160b0600083815260200190815260200160002060006101000a8154816001600160a01b0302191690836001600160a01b031602179055508060b2600087848151811061257257612572614159565b60200260200101516001600160a01b03166001600160a01b03168152602001908152602001600020819055508381815181106125b0576125b0614159565b602002602001015160b560008784815181106125ce576125ce614159565b60200260200101516001600160a01b03166001600160a01b031681526020019081526020016000208190555082818151811061260c5761260c614159565b602002602001015160b6600087848151811061262a5761262a614159565b60200260200101516001600160a01b03166001600160a01b0316815260200190815260200160002060006101000a81548162ffffff021916908362ffffff16021790555081818151811061268057612680614159565b602002602001015160b7600087848151811061269e5761269e614159565b60200260200101516001600160a01b03166001600160a01b0316815260200190815260200160002060006101000a8154816001600160401b0302191690836001600160401b0316021790555060ba600060b8548152602001908152602001600020600401600083838151811061271657612716614159565b6020908102919091018101516001600160401b031682528101919091526040016000205460ff166128325760ba600060b854815260200190815260200160002060030182828151811061276b5761276b614159565b602002602001015190806001815401808255809150506001900390600052602060002090600491828204019190066008029091909190916101000a8154816001600160401b0302191690836001600160401b03160217905550600160ba600060b854815260200190815260200160002060040160008484815181106127f2576127f2614159565b60200260200101516001600160401b03166001600160401b0316815260200190815260200160002060006101000a81548160ff0219169083151502179055505b60ba600060b8548152602001908152602001600020600501600083838151811061285e5761285e614159565b60200260200101516001600160401b03166001600160401b0316815260200190815260200160002085828151811061289857612898614159565b602090810291909101810151825460018101845560009384528284200180546001600160a01b0319166001600160a01b0390921691909117905560b854825260ba9052604081208351600690910191908490849081106128fa576128fa614159565b60200260200101516001600160401b03166001600160401b0316815260200190815260200160002083828151811061293457612934614159565b602090810291909101810151825460018101845560009384529190922062ffffff909216910155835184908290811061296f5761296f614159565b602002602001015160ba600060b854815260200190815260200160002060080160008484815181106129a3576129a3614159565b60200260200101516001600160401b03166001600160401b0316815260200190815260200160002060008282546129da91906140f6565b9250508190555060ba600060b85481526020019081526020016000206007016000838381518110612a0d57612a0d614159565b60200260200101516001600160401b03166001600160401b03168152602001908152602001600020848281518110612a4757612a47614159565b602090810291909101810151825460018101845560009384529183209091015560ad549003612edd57848181518110612a8257612a82614159565b602002602001015160b1600083815260200190815260200160002060006101000a8154816001600160a01b0302191690836001600160a01b03160217905550838181518110612ad357612ad3614159565b602002602001015160b46000878481518110612af157612af1614159565b60200260200101516001600160a01b03166001600160a01b03168152602001908152602001600020819055508060b36000878481518110612b3457612b34614159565b60200260200101516001600160a01b03166001600160a01b031681526020019081526020016000208190555060bb600060b95481526020019081526020016000206004016000838381518110612b8c57612b8c614159565b6020908102919091018101516001600160401b031682528101919091526040016000205460ff16612ca857600160bb600060b95481526020019081526020016000206004016000848481518110612be557612be5614159565b60200260200101516001600160401b03166001600160401b0316815260200190815260200160002060006101000a81548160ff02191690831515021790555060bb600060b9548152602001908152602001600020600301828281518110612c4e57612c4e614159565b602002602001015190806001815401808255809150506001900390600052602060002090600491828204019190066008029091909190916101000a8154816001600160401b0302191690836001600160401b031602179055505b60bb600060b95481526020019081526020016000206005016000838381518110612cd457612cd4614159565b60200260200101516001600160401b03166001600160401b03168152602001908152602001600020858281518110612d0e57612d0e614159565b602090810291909101810151825460018101845560009384528284200180546001600160a01b0319166001600160a01b0390921691909117905560b954825260bb905260408120835160069091019190849084908110612d7057612d70614159565b60200260200101516001600160401b03166001600160401b03168152602001908152602001600020838281518110612daa57612daa614159565b602090810291909101810151825460018101845560009384529190922062ffffff9092169101558351849082908110612de557612de5614159565b602002602001015160bb600060b95481526020019081526020016000206008016000848481518110612e1957612e19614159565b60200260200101516001600160401b03166001600160401b031681526020019081526020016000206000828254612e5091906140f6565b9250508190555060bb600060b95481526020019081526020016000206007016000838381518110612e8357612e83614159565b60200260200101516001600160401b03166001600160401b03168152602001908152602001600020848281518110612ebd57612ebd614159565b602090810291909101810151825460018101845560009384529190922001555b600101612501565b50835160ac5560ad54600003612efb57835160ad555b50504260ab55505050505050565b600054610100900460ff16612f305760405162461bcd60e51b8152600401610d9e906143b9565b610d2e6130f3565b612f406134ef565b612f508560800151610100613123565b50508284526001600160a01b03821660208501526001600160e01b031981166040850152835b949350505050565b612f8b8260038351613188565b6116f4828261328f565b6040516bffffffffffffffffffffffff193060601b1660208201526034810184905260009060540160408051808303601f1901815282825280516020918201206000818152600590925291812080546001600160a01b0319166001600160a01b038a1617905590925082917fb5e6e01e79f91267dc17b4e6314d5d4d03593d2ceee0fbb452b750bd70ea5af99190a2600254604051630200057560e51b81526001600160a01b0390911690634000aea09061305890889087908790600401614404565b6020604051808303816000875af1158015613077573d6000803e3d6000fd5b505050506040513d601f19601f8201168201806040525081019061309b919061442b565b612f765760405162461bcd60e51b815260206004820152602360248201527f756e61626c6520746f207472616e73666572416e6443616c6c20746f206f7261604482015262636c6560e81b6064820152608401610d9e565b600054610100900460ff1661311a5760405162461bcd60e51b8152600401610d9e906143b9565b610d2e33612399565b60408051808201909152606081526000602082015261314360208361444d565b1561316b5761315360208361444d565b61315e906020614461565b61316890836140f6565b91505b506020828101829052604080518085526000815290920101905290565b6017816001600160401b0316116131ac576113e78360e0600585901b1683176132b6565b60ff816001600160401b0316116131e8576131d2836018611fe0600586901b16176132b6565b506113e7836001600160401b03831660016132db565b61ffff816001600160401b0316116132255761320f836019611fe0600586901b16176132b6565b506113e7836001600160401b03831660026132db565b63ffffffff816001600160401b0316116132645761324e83601a611fe0600586901b16176132b6565b506113e7836001600160401b03831660046132db565b61327983601b611fe0600586901b16176132b6565b506113e7836001600160401b03831660086132db565b604080518082019091526060815260006020820152610d1783846000015151848551613301565b604080518082019091526060815260006020820152610d1783846000015151846133eb565b604080518082019091526060815260006020820152612f76848560000151518585613446565b604080518082019091526060815260006020820152825182111561332457600080fd5b602085015161333383866140f6565b111561336657613366856133568760200151878661335191906140f6565b6134c7565b613361906002613f90565b6134d8565b6000808651805187602083010193508088870111156133855787860182525b505050602084015b602084106133c557805182526133a46020836140f6565b91506133b16020826140f6565b90506133be602085614461565b935061338d565b51815160001960208690036101000a019081169019919091161790525083949350505050565b604080518082019091526060815260006020820152836020015183106134205761342084856020015160026133619190613f90565b835180516020858301018481535080850361343c576001810182525b5093949350505050565b604080518082019091526060815260006020820152602085015161346a85846140f6565b111561347e5761347e8561335686856140f6565b6000600161348e84610100614474565b6134989190614461565b90508551838682010185831982511617815250805184870111156134bc5783860181525b509495945050505050565b6000818311156117d9575081610b52565b81516134e48383613123565b506113e7838261328f565b6040805160a0810182526000808252602080830182905282840182905260608084018390528451808601909552845283015290608082015290565b6001600160a01b038116811461207957600080fd5b803561354a8161352a565b919050565b60006020828403121561356157600080fd5b8135610d178161352a565b634e487b7160e01b600052604160045260246000fd5b604051601f8201601f191681016001600160401b03811182821017156135aa576135aa61356c565b604052919050565b600082601f8301126135c357600080fd5b81356001600160401b038111156135dc576135dc61356c565b6135ef601f8201601f1916602001613582565b81815284602083860101111561360457600080fd5b816020850160208301376000918101602001919091529392505050565b6000806040838503121561363457600080fd5b82356001600160401b0381111561364a57600080fd5b613656858286016135b2565b92505060208301356001600160401b0381111561367257600080fd5b61367e858286016135b2565b9150509250929050565b60005b838110156136a357818101518382015260200161368b565b50506000910152565b600081518084526136c4816020860160208601613688565b601f01601f19169290920160200192915050565b602081526000610d1760208301846136ac565b80356001600160401b038116811461354a57600080fd5b60006020828403121561371457600080fd5b610d17826136eb565b6000806040838503121561373057600080fd5b82359150613740602084016136eb565b90509250929050565b600081518084526020840193506020830160005b8281101561343c57815186526020958601959091019060010161375d565b602081526000610d176020830184613749565b6000602082840312156137a057600080fd5b5035919050565b600080604083850312156137ba57600080fd5b82356137c58161352a565b9150613740602084016136eb565b600081518084526020840193506020830160005b8281101561343c5781516001600160a01b03168652602095860195909101906001016137e7565b600081518084526020840193506020830160005b8281101561343c5781516001600160401b0316865260209586019590910190600101613822565b60808152600061385c60808301876137d3565b828103602084015261386e8187613749565b905082810360408401526138828186613749565b90508281036060840152613896818561380e565b979650505050505050565b600080604083850312156138b457600080fd5b6138bd836136eb565b915060208301356138cd8161352a565b809150509250929050565b60006001600160401b038211156138f1576138f161356c565b5060051b60200190565b600082601f83011261390c57600080fd5b813561391f61391a826138d8565b613582565b8082825260208201915060208360051b86010192508583111561394157600080fd5b602085015b838110156139675780356139598161352a565b835260209283019201613946565b5095945050505050565b600082601f83011261398257600080fd5b813561399061391a826138d8565b8082825260208201915060208360051b8601019250858311156139b257600080fd5b602085015b838110156139675780358352602092830192016139b7565b803562ffffff8116811461354a57600080fd5b600082601f8301126139f357600080fd5b8135613a0161391a826138d8565b8082825260208201915060208360051b860101925085831115613a2357600080fd5b602085015b8381101561396757613a39816139cf565b835260209283019201613a28565b600082601f830112613a5857600080fd5b8135613a6661391a826138d8565b8082825260208201915060208360051b860101925085831115613a8857600080fd5b602085015b8381101561396757613a9e816136eb565b835260209283019201613a8d565b60008060008060808587031215613ac257600080fd5b84356001600160401b03811115613ad857600080fd5b613ae4878288016138fb565b94505060208501356001600160401b03811115613b0057600080fd5b613b0c87828801613971565b93505060408501356001600160401b03811115613b2857600080fd5b613b34878288016139e2565b92505060608501356001600160401b03811115613b5057600080fd5b613b5c87828801613a47565b91505092959194509250565b60008060008060008060008060008060006101608c8e031215613b8a57600080fd5b613b938c6136eb565b9a5060208c0135613ba38161352a565b995060408c0135613bb38161352a565b985060608c0135613bc38161352a565b975060808c0135965060a08c0135613bda8161352a565b955060c08c0135613bea8161352a565b945060e08c0135613bfa8161352a565b93506101008c0135613c0b8161352a565b9250613c1a6101208d0161353f565b9150613c296101408d0161353f565b90509295989b509295989b9093969950565b600080600080600060a08688031215613c5357600080fd5b8535945060208601356001600160401b03811115613c7057600080fd5b613c7c888289016138fb565b94505060408601356001600160401b03811115613c9857600080fd5b613ca488828901613971565b93505060608601356001600160401b03811115613cc057600080fd5b613ccc888289016139e2565b92505060808601356001600160401b03811115613ce857600080fd5b613cf488828901613a47565b9150509295509295909350565b602081526000610d1760208301846137d3565b608081526000613d2760808301876137d3565b8281036020840152613d398187613749565b83810360408501528551808252602080880193509091019060005b81811015613d7757835162ffffff16835260209384019390920191600101613d54565b50508381036060850152613d8b818661380e565b98975050505050505050565b60008060008060808587031215613dad57600080fd5b8435613db88161352a565b93506020850135613dc88161352a565b925060408501359150613ddd606086016139cf565b905092959194509250565b60008060008060808587031215613dfe57600080fd5b8435613e098161352a565b93506020850135613e198161352a565b925060408501356001600160801b0381168114613e3557600080fd5b9150613ddd606086016139cf565b600080600060608486031215613e5857600080fd5b613e61846136eb565b92506020840135613e718161352a565b9150613e7f604085016139cf565b90509250925092565b60008351613e9a818460208801613688565b835190830190613eae818360208801613688565b01949350505050565b805169ffffffffffffffffffff8116811461354a57600080fd5b600080600080600060a08688031215613ee957600080fd5b613ef286613eb7565b60208701516040880151606089015192975090955093509150613f1760808701613eb7565b90509295509295909350565b600060208284031215613f3557600080fd5b815160ff81168114610d1757600080fd5b600181811c90821680613f5a57607f821691505b6020821081036117d957634e487b7160e01b600052602260045260246000fd5b634e487b7160e01b600052601160045260246000fd5b8082028115828204841417610b5257610b52613f7a565b634e487b7160e01b600052601260045260246000fd5b600082613fcc57613fcc613fa7565b500490565b601f8211156116f457806000526020600020601f840160051c81016020851015613ff85750805b601f840160051c820191505b818110156140185760008155600101614004565b5050505050565b81516001600160401b038111156140385761403861356c565b61404c816140468454613f46565b84613fd1565b6020601f82116001811461408057600083156140685750848201515b600019600385901b1c1916600184901b178455614018565b600084815260208120601f198516915b828110156140b05787850151825560209485019460019092019101614090565b50848210156140ce5786840151600019600387901b60f8161c191681555b50505050600190811b01905550565b6000602082840312156140ef57600080fd5b5051919050565b80820180821115610b5257610b52613f7a565b60208082526030908201527f50726f706f7361626c654f776e61626c653a206e6577206f776e65722069732060408201526f746865207a65726f206164647265737360801b606082015260800190565b634e487b7160e01b600052603260045260246000fd5b828152604060208201526000612f7660408301846137d3565b60006020828403121561419a57600080fd5b81516001600160401b038111156141b057600080fd5b8201601f810184136141c157600080fd5b80516141cf61391a826138d8565b8082825260208201915060208360051b8501019250868311156141f157600080fd5b6020840193505b828410156124ae5783518252602093840193909101906141f8565b60ff8281168282160390811115610b5257610b52613f7a565b6001815b60018411156142675780850481111561424b5761424b613f7a565b600184161561425957908102905b60019390931c928002614230565b935093915050565b60008261427e57506001610b52565b8161428b57506000610b52565b81600181146142a157600281146142ab576142c7565b6001915050610b52565b60ff8411156142bc576142bc613f7a565b50506001821b610b52565b5060208310610133831016604e8410600b84101617156142ea575081810a610b52565b6142f7600019848461422c565b806000190482111561430b5761430b613f7a565b029392505050565b6000610d1760ff84168361426f565b80820260008212600160ff1b8414161561433e5761433e613f7a565b8181058314821517610b5257610b52613f7a565b6001600160a01b0389811682526020820189905260408201889052861660608201526001600160e01b03198516608082015260a0810184905260c0810183905261010060e082018190526000906143ab908301846136ac565b9a9950505050505050505050565b6020808252602b908201527f496e697469616c697a61626c653a20636f6e7472616374206973206e6f74206960408201526a6e697469616c697a696e6760a81b606082015260800190565b60018060a01b0384168152826020820152606060408201526000611e3f60608301846136ac565b60006020828403121561443d57600080fd5b81518015158114610d1757600080fd5b60008261445c5761445c613fa7565b500690565b81810381811115610b5257610b52613f7a565b6000610d17838361426f56fe68747470733a2f2f6170702e6e65786c6162732e696f2f6170692f616c6c46756e64696e6752617465733f6d756c7469706c7946756e633d31382674696d65734e656746756e643d74727565266172726179733d74727565a2646970667358221220475a011c856ad0a2632e4d041dbea4398370dccf3d327110b53023f31ec9c99164736f6c634300081a0033","linkReferences":{}},"methodIdentifiers":{"allCurrentChainSelectorTokenShares(uint64)":"af696b34","allCurrentChainSelectorTokens(uint64)":"d1c68aa3","allCurrentChainSelectorVersions(uint64)":"221f3371","allOracleChainSelectorTokenShares(uint64)":"bf0d49c0","allOracleChainSelectorTokens(uint64)":"d050ca7c","allOracleChainSelectorVersions(uint64)":"a1adff88","concatenation(string,string)":"0e329357","crossChainFactoryBySelector(uint64)":"340fbc74","crossChainToken(uint64)":"19da7e2a","crossChainTokenSwapFee(uint64,address)":"652354ae","currentChainSelector()":"3d54cb6f","currentChainSelectorTokensCount(uint64)":"b6ad185b","currentChainSelectorsCount()":"69487b1c","currentFilledCount()":"b90b8a2a","currentList(uint256)":"9932ba4c","estimateAmountOut(address,address,uint128,uint24)":"ee7bd3e2","externalJobId()":"a8b54bd4","factoryV2()":"68e0d4e1","factoryV3()":"1d5f45f5","feeRate()":"978bbdb9","fulfillAssetsData(bytes32,address[],uint256[],uint24[],uint64[])":"b2c44b3f","getAmountOut(address,address,uint256,uint24)":"dd811ac9","getCurrentChainSelectorTotalShares(uint256,uint64)":"2a3ff8ad","getCurrentData(uint256)":"d3f7f266","getOracleChainSelectorTotalShares(uint256,uint64)":"1dce3de8","getOracleData(uint256)":"536e3f6a","getPortfolioBalance()":"a8509fd8","indexFactory()":"e3fd0af2","indexFactoryBalancer()":"29d75de9","indexToken()":"e7d015f2","initialize(uint64,address,address,address,bytes32,address,address,address,address,address,address)":"9ebe560e","lastUpdateTime()":"c8f33c91","latestFeeUpdate()":"011ced5f","mockFillAssetsList(address[],uint256[],uint24[],uint64[])":"8bb8f1bb","mockUpdateCurrentList()":"4f9641b9","oracleChainSelectorTokensCount(uint64)":"fc698b4a","oracleChainSelectorsCount()":"8e9d7c18","oracleFilledCount()":"f1581787","oracleList(uint256)":"239aad0d","oraclePayment()":"0c02e130","owner()":"8da5cb5b","priceInWei()":"3c8da588","priceOracle()":"2630c12f","proposeOwner(address)":"b5ed298a","proposedOwner()":"d153b60c","quoter()":"c6bbd5a7","renounceOwnership()":"715018a6","requestAssetsData()":"7ca58c55","setCrossChainFactory(address,uint64)":"271040df","setCrossChainToken(uint64,address,uint24)":"f0cd5b72","setIndexFactory(address)":"d047937f","setIndexFactoryBalancer(address)":"ae214f39","setPriceFeed(address)":"724e78da","setPriceOracle(address)":"530e784f","setUrl(string,string)":"a73e1cbf","setVault(address)":"6817031b","swapRouterV2()":"744fbc7a","swapRouterV3()":"b631e80b","toUsdPriceFeed()":"63973fda","tokenChainSelector(address)":"ea8ecf04","tokenCurrentListIndex(address)":"914f0cc6","tokenCurrentMarketShare(address)":"0be52713","tokenOracleListIndex(address)":"8c88c10c","tokenOracleMarketShare(address)":"4b3e0b80","tokenSwapFee(address)":"32599665","totalCurrentChainSelectors()":"92e410ce","totalCurrentList()":"53fd4332","totalOracleChainSelectors()":"80acffa3","totalOracleList()":"c8599ded","transferOwnership(address)":"f2fde38b","updateCurrentList()":"8baa6bf1","vault()":"fbfa77cf","weth()":"3fc8cef3"},"id":5}