{"abi":[{"type":"function","name":"allCurrentChainSelectorTokenShares","inputs":[{"name":"_chainSelector","type":"uint64","internalType":"uint64"}],"outputs":[{"name":"","type":"uint256[]","internalType":"uint256[]"}],"stateMutability":"view"},{"type":"function","name":"allCurrentChainSelectorTokens","inputs":[{"name":"_chainSelector","type":"uint64","internalType":"uint64"}],"outputs":[{"name":"tokens","type":"address[]","internalType":"address[]"}],"stateMutability":"view"},{"type":"function","name":"allCurrentChainSelectorVersions","inputs":[{"name":"_chainSelector","type":"uint64","internalType":"uint64"}],"outputs":[{"name":"versions","type":"uint256[]","internalType":"uint256[]"}],"stateMutability":"view"},{"type":"function","name":"allOracleChainSelectorTokenShares","inputs":[{"name":"_chainSelector","type":"uint64","internalType":"uint64"}],"outputs":[{"name":"","type":"uint256[]","internalType":"uint256[]"}],"stateMutability":"view"},{"type":"function","name":"allOracleChainSelectorTokens","inputs":[{"name":"_chainSelector","type":"uint64","internalType":"uint64"}],"outputs":[{"name":"tokens","type":"address[]","internalType":"address[]"}],"stateMutability":"view"},{"type":"function","name":"allOracleChainSelectorVersions","inputs":[{"name":"_chainSelector","type":"uint64","internalType":"uint64"}],"outputs":[{"name":"versions","type":"uint256[]","internalType":"uint256[]"}],"stateMutability":"view"},{"type":"function","name":"concatenation","inputs":[{"name":"a","type":"string","internalType":"string"},{"name":"b","type":"string","internalType":"string"}],"outputs":[{"name":"","type":"string","internalType":"string"}],"stateMutability":"pure"},{"type":"function","name":"crossChainFactoryBySelector","inputs":[{"name":"","type":"uint64","internalType":"uint64"}],"outputs":[{"name":"","type":"address","internalType":"address"}],"stateMutability":"view"},{"type":"function","name":"crossChainToken","inputs":[{"name":"","type":"uint64","internalType":"uint64"}],"outputs":[{"name":"","type":"address","internalType":"address"}],"stateMutability":"view"},{"type":"function","name":"crossChainTokenSwapFee","inputs":[{"name":"","type":"uint64","internalType":"uint64"},{"name":"","type":"address","internalType":"address"}],"outputs":[{"name":"","type":"uint24","internalType":"uint24"}],"stateMutability":"view"},{"type":"function","name":"currentChainSelector","inputs":[],"outputs":[{"name":"","type":"uint64","internalType":"uint64"}],"stateMutability":"view"},{"type":"function","name":"currentChainSelectorTokensCount","inputs":[{"name":"_chainSelector","type":"uint64","internalType":"uint64"}],"outputs":[{"name":"","type":"uint256","internalType":"uint256"}],"stateMutability":"view"},{"type":"function","name":"currentChainSelectorsCount","inputs":[],"outputs":[{"name":"","type":"uint256","internalType":"uint256"}],"stateMutability":"view"},{"type":"function","name":"currentFilledCount","inputs":[],"outputs":[{"name":"","type":"uint256","internalType":"uint256"}],"stateMutability":"view"},{"type":"function","name":"currentList","inputs":[{"name":"","type":"uint256","internalType":"uint256"}],"outputs":[{"name":"","type":"address","internalType":"address"}],"stateMutability":"view"},{"type":"function","name":"estimateAmountOut","inputs":[{"name":"tokenIn","type":"address","internalType":"address"},{"name":"tokenOut","type":"address","internalType":"address"},{"name":"amountIn","type":"uint128","internalType":"uint128"},{"name":"fee","type":"uint24","internalType":"uint24"}],"outputs":[{"name":"amountOut","type":"uint256","internalType":"uint256"}],"stateMutability":"view"},{"type":"function","name":"externalJobId","inputs":[],"outputs":[{"name":"","type":"bytes32","internalType":"bytes32"}],"stateMutability":"view"},{"type":"function","name":"factoryV2","inputs":[],"outputs":[{"name":"","type":"address","internalType":"contract IUniswapV2Factory"}],"stateMutability":"view"},{"type":"function","name":"factoryV3","inputs":[],"outputs":[{"name":"","type":"address","internalType":"contract IUniswapV3Factory"}],"stateMutability":"view"},{"type":"function","name":"feeRate","inputs":[],"outputs":[{"name":"","type":"uint8","internalType":"uint8"}],"stateMutability":"view"},{"type":"function","name":"fulfillAssetsData","inputs":[{"name":"requestId","type":"bytes32","internalType":"bytes32"},{"name":"_tokens","type":"address[]","internalType":"address[]"},{"name":"_marketShares","type":"uint256[]","internalType":"uint256[]"},{"name":"_swapFees","type":"uint24[]","internalType":"uint24[]"},{"name":"_chainSelectors","type":"uint64[]","internalType":"uint64[]"}],"outputs":[],"stateMutability":"nonpayable"},{"type":"function","name":"getAmountOut","inputs":[{"name":"tokenIn","type":"address","internalType":"address"},{"name":"tokenOut","type":"address","internalType":"address"},{"name":"amountIn","type":"uint256","internalType":"uint256"},{"name":"_swapFee","type":"uint24","internalType":"uint24"}],"outputs":[{"name":"finalAmountOutValue","type":"uint256","internalType":"uint256"}],"stateMutability":"view"},{"type":"function","name":"getCurrentChainSelectorTotalShares","inputs":[{"name":"index","type":"uint256","internalType":"uint256"},{"name":"chainSelector","type":"uint64","internalType":"uint64"}],"outputs":[{"name":"","type":"uint256","internalType":"uint256"}],"stateMutability":"view"},{"type":"function","name":"getCurrentData","inputs":[{"name":"index","type":"uint256","internalType":"uint256"}],"outputs":[{"name":"tokens","type":"address[]","internalType":"address[]"},{"name":"marketShares","type":"uint256[]","internalType":"uint256[]"},{"name":"swapFees","type":"uint24[]","internalType":"uint24[]"},{"name":"chainSelectors","type":"uint64[]","internalType":"uint64[]"}],"stateMutability":"view"},{"type":"function","name":"getOracleChainSelectorTotalShares","inputs":[{"name":"index","type":"uint256","internalType":"uint256"},{"name":"chainSelector","type":"uint64","internalType":"uint64"}],"outputs":[{"name":"","type":"uint256","internalType":"uint256"}],"stateMutability":"view"},{"type":"function","name":"getOracleData","inputs":[{"name":"index","type":"uint256","internalType":"uint256"}],"outputs":[{"name":"tokens","type":"address[]","internalType":"address[]"},{"name":"marketShares","type":"uint256[]","internalType":"uint256[]"},{"name":"swapFees","type":"uint256[]","internalType":"uint256[]"},{"name":"chainSelectors","type":"uint64[]","internalType":"uint64[]"}],"stateMutability":"view"},{"type":"function","name":"getPortfolioBalance","inputs":[],"outputs":[{"name":"","type":"uint256","internalType":"uint256"}],"stateMutability":"view"},{"type":"function","name":"indexFactory","inputs":[],"outputs":[{"name":"","type":"address","internalType":"address"}],"stateMutability":"view"},{"type":"function","name":"indexFactoryBalancer","inputs":[],"outputs":[{"name":"","type":"address","internalType":"address"}],"stateMutability":"view"},{"type":"function","name":"indexToken","inputs":[],"outputs":[{"name":"","type":"address","internalType":"contract IndexToken"}],"stateMutability":"view"},{"type":"function","name":"initialize","inputs":[{"name":"_currentChainSelector","type":"uint64","internalType":"uint64"},{"name":"_token","type":"address","internalType":"address payable"},{"name":"_chainlinkToken","type":"address","internalType":"address"},{"name":"_oracleAddress","type":"address","internalType":"address"},{"name":"_externalJobId","type":"bytes32","internalType":"bytes32"},{"name":"_toUsdPriceFeed","type":"address","internalType":"address"},{"name":"_weth","type":"address","internalType":"address"},{"name":"_swapRouterV3","type":"address","internalType":"address"},{"name":"_factoryV3","type":"address","internalType":"address"},{"name":"_swapRouterV2","type":"address","internalType":"address"},{"name":"_factoryV2","type":"address","internalType":"address"}],"outputs":[],"stateMutability":"nonpayable"},{"type":"function","name":"lastUpdateTime","inputs":[],"outputs":[{"name":"","type":"uint256","internalType":"uint256"}],"stateMutability":"view"},{"type":"function","name":"latestFeeUpdate","inputs":[],"outputs":[{"name":"","type":"uint256","internalType":"uint256"}],"stateMutability":"view"},{"type":"function","name":"mockFillAssetsList","inputs":[{"name":"_tokens","type":"address[]","internalType":"address[]"},{"name":"_marketShares","type":"uint256[]","internalType":"uint256[]"},{"name":"_swapFees","type":"uint24[]","internalType":"uint24[]"},{"name":"_chainSelectors","type":"uint64[]","internalType":"uint64[]"}],"outputs":[],"stateMutability":"nonpayable"},{"type":"function","name":"mockUpdateCurrentList","inputs":[],"outputs":[],"stateMutability":"nonpayable"},{"type":"function","name":"oracleChainSelectorTokensCount","inputs":[{"name":"_chainSelector","type":"uint64","internalType":"uint64"}],"outputs":[{"name":"","type":"uint256","internalType":"uint256"}],"stateMutability":"view"},{"type":"function","name":"oracleChainSelectorsCount","inputs":[],"outputs":[{"name":"","type":"uint256","internalType":"uint256"}],"stateMutability":"view"},{"type":"function","name":"oracleFilledCount","inputs":[],"outputs":[{"name":"","type":"uint256","internalType":"uint256"}],"stateMutability":"view"},{"type":"function","name":"oracleList","inputs":[{"name":"","type":"uint256","internalType":"uint256"}],"outputs":[{"name":"","type":"address","internalType":"address"}],"stateMutability":"view"},{"type":"function","name":"oraclePayment","inputs":[],"outputs":[{"name":"","type":"uint256","internalType":"uint256"}],"stateMutability":"view"},{"type":"function","name":"owner","inputs":[],"outputs":[{"name":"","type":"address","internalType":"address"}],"stateMutability":"view"},{"type":"function","name":"priceInWei","inputs":[],"outputs":[{"name":"","type":"uint256","internalType":"uint256"}],"stateMutability":"view"},{"type":"function","name":"priceOracle","inputs":[],"outputs":[{"name":"","type":"address","internalType":"address"}],"stateMutability":"view"},{"type":"function","name":"proposeOwner","inputs":[{"name":"_proposedOwner","type":"address","internalType":"address"}],"outputs":[],"stateMutability":"nonpayable"},{"type":"function","name":"proposedOwner","inputs":[],"outputs":[{"name":"","type":"address","internalType":"address"}],"stateMutability":"view"},{"type":"function","name":"quoter","inputs":[],"outputs":[{"name":"","type":"address","internalType":"contract IQuoter"}],"stateMutability":"view"},{"type":"function","name":"renounceOwnership","inputs":[],"outputs":[],"stateMutability":"nonpayable"},{"type":"function","name":"requestAssetsData","inputs":[],"outputs":[{"name":"","type":"bytes32","internalType":"bytes32"}],"stateMutability":"nonpayable"},{"type":"function","name":"setCrossChainFactory","inputs":[{"name":"_crossChainFactoryAddress","type":"address","internalType":"address"},{"name":"_chainSelector","type":"uint64","internalType":"uint64"}],"outputs":[],"stateMutability":"nonpayable"},{"type":"function","name":"setCrossChainToken","inputs":[{"name":"_chainSelector","type":"uint64","internalType":"uint64"},{"name":"_crossChainToken","type":"address","internalType":"address"},{"name":"_swapFee","type":"uint24","internalType":"uint24"}],"outputs":[],"stateMutability":"nonpayable"},{"type":"function","name":"setIndexFactory","inputs":[{"name":"_indexFactory","type":"address","internalType":"address"}],"outputs":[],"stateMutability":"nonpayable"},{"type":"function","name":"setIndexFactoryBalancer","inputs":[{"name":"_indexFactoryBalancer","type":"address","internalType":"address"}],"outputs":[],"stateMutability":"nonpayable"},{"type":"function","name":"setPriceFeed","inputs":[{"name":"_toUsdPricefeed","type":"address","internalType":"address"}],"outputs":[],"stateMutability":"nonpayable"},{"type":"function","name":"setPriceOracle","inputs":[{"name":"_priceOracle","type":"address","internalType":"address"}],"outputs":[],"stateMutability":"nonpayable"},{"type":"function","name":"setUrl","inputs":[{"name":"_beforeAddress","type":"string","internalType":"string"},{"name":"_afterAddress","type":"string","internalType":"string"}],"outputs":[],"stateMutability":"nonpayable"},{"type":"function","name":"setVault","inputs":[{"name":"_vaultAddress","type":"address","internalType":"address"}],"outputs":[],"stateMutability":"nonpayable"},{"type":"function","name":"swapRouterV2","inputs":[],"outputs":[{"name":"","type":"address","internalType":"contract IUniswapV2Router02"}],"stateMutability":"view"},{"type":"function","name":"swapRouterV3","inputs":[],"outputs":[{"name":"","type":"address","internalType":"contract ISwapRouter"}],"stateMutability":"view"},{"type":"function","name":"toUsdPriceFeed","inputs":[],"outputs":[{"name":"","type":"address","internalType":"contract AggregatorV3Interface"}],"stateMutability":"view"},{"type":"function","name":"tokenChainSelector","inputs":[{"name":"","type":"address","internalType":"address"}],"outputs":[{"name":"","type":"uint64","internalType":"uint64"}],"stateMutability":"view"},{"type":"function","name":"tokenCurrentListIndex","inputs":[{"name":"","type":"address","internalType":"address"}],"outputs":[{"name":"","type":"uint256","internalType":"uint256"}],"stateMutability":"view"},{"type":"function","name":"tokenCurrentMarketShare","inputs":[{"name":"","type":"address","internalType":"address"}],"outputs":[{"name":"","type":"uint256","internalType":"uint256"}],"stateMutability":"view"},{"type":"function","name":"tokenOracleListIndex","inputs":[{"name":"","type":"address","internalType":"address"}],"outputs":[{"name":"","type":"uint256","internalType":"uint256"}],"stateMutability":"view"},{"type":"function","name":"tokenOracleMarketShare","inputs":[{"name":"","type":"address","internalType":"address"}],"outputs":[{"name":"","type":"uint256","internalType":"uint256"}],"stateMutability":"view"},{"type":"function","name":"tokenSwapFee","inputs":[{"name":"","type":"address","internalType":"address"}],"outputs":[{"name":"","type":"uint24","internalType":"uint24"}],"stateMutability":"view"},{"type":"function","name":"totalCurrentChainSelectors","inputs":[],"outputs":[{"name":"","type":"uint256","internalType":"uint256"}],"stateMutability":"view"},{"type":"function","name":"totalCurrentList","inputs":[],"outputs":[{"name":"","type":"uint256","internalType":"uint256"}],"stateMutability":"view"},{"type":"function","name":"totalOracleChainSelectors","inputs":[],"outputs":[{"name":"","type":"uint256","internalType":"uint256"}],"stateMutability":"view"},{"type":"function","name":"totalOracleList","inputs":[],"outputs":[{"name":"","type":"uint256","internalType":"uint256"}],"stateMutability":"view"},{"type":"function","name":"transferOwnership","inputs":[{"name":"newOwner","type":"address","internalType":"address"}],"outputs":[],"stateMutability":"nonpayable"},{"type":"function","name":"updateCurrentList","inputs":[],"outputs":[],"stateMutability":"nonpayable"},{"type":"function","name":"vault","inputs":[],"outputs":[{"name":"","type":"address","internalType":"contract Vault"}],"stateMutability":"view"},{"type":"function","name":"weth","inputs":[],"outputs":[{"name":"","type":"address","internalType":"contract IWETH"}],"stateMutability":"view"},{"type":"event","name":"ChainlinkCancelled","inputs":[{"name":"id","type":"bytes32","indexed":true,"internalType":"bytes32"}],"anonymous":false},{"type":"event","name":"ChainlinkFulfilled","inputs":[{"name":"id","type":"bytes32","indexed":true,"internalType":"bytes32"}],"anonymous":false},{"type":"event","name":"ChainlinkRequested","inputs":[{"name":"id","type":"bytes32","indexed":true,"internalType":"bytes32"}],"anonymous":false},{"type":"event","name":"Initialized","inputs":[{"name":"version","type":"uint8","indexed":false,"internalType":"uint8"}],"anonymous":false},{"type":"event","name":"OwnershipTransferred","inputs":[{"name":"previousOwner","type":"address","indexed":true,"internalType":"address"},{"name":"newOwner","type":"address","indexed":true,"internalType":"address"}],"anonymous":false}],"bytecode":{"object":"0x6080604052348015600f57600080fd5b50617e068061001f6000396000f3fe608060405234801561001057600080fd5b50600436106104335760003560e01c80638da5cb5b11610236578063bf0d49c01161013b578063dd811ac9116100c3578063f0cd5b7211610087578063f0cd5b7214610da6578063f158178714610dc2578063f2fde38b14610de0578063fbfa77cf14610dfc578063fc698b4a14610e1a57610433565b8063dd811ac914610cda578063e3fd0af214610d0a578063e7d015f214610d28578063ea8ecf0414610d46578063ee7bd3e214610d7657610433565b8063d047937f1161010a578063d047937f14610c0d578063d050ca7c14610c29578063d153b60c14610c59578063d1c68aa314610c77578063d3f7f26614610ca757610433565b8063bf0d49c014610b83578063c6bbd5a714610bb3578063c8599ded14610bd1578063c8f33c9114610bef57610433565b8063a8509fd8116101be578063b2c44b3f1161018d578063b2c44b3f14610adf578063b5ed298a14610afb578063b631e80b14610b17578063b6ad185b14610b35578063b90b8a2a14610b6557610433565b8063a8509fd814610a57578063a8b54bd414610a75578063ae214f3914610a93578063af696b3414610aaf57610433565b8063978bbdb911610205578063978bbdb9146109a15780639932ba4c146109bf5780639ebe560e146109ef578063a1adff8814610a0b578063a73e1cbf14610a3b57610433565b80638da5cb5b146109175780638e9d7c1814610935578063914f0cc61461095357806392e410ce1461098357610433565b80634b3e0b801161033c57806369487b1c116102c45780637ca58c55116102935780637ca58c551461088557806380acffa3146108a35780638baa6bf1146108c15780638bb8f1bb146108cb5780638c88c10c146108e757610433565b806369487b1c14610823578063715018a614610841578063724e78da1461084b578063744fbc7a1461086757610433565b806353fd43321161030b57806353fd43321461077d57806363973fda1461079b578063652354ae146107b95780636817031b146107e957806368e0d4e11461080557610433565b80634b3e0b80146106f45780634f9641b914610724578063530e784f1461072e578063536e3f6a1461074a57610433565b80632630c12f116103bf578063325996651161038e578063325996651461063a578063340fbc741461066a5780633c8da5881461069a5780633d54cb6f146106b85780633fc8cef3146106d657610433565b80632630c12f146105b2578063271040df146105d057806329d75de9146105ec5780632a3ff8ad1461060a57610433565b806319da7e2a1161040657806319da7e2a146104d45780631d5f45f5146105045780631dce3de814610522578063221f337114610552578063239aad0d1461058257610433565b8063011ced5f146104385780630be52713146104565780630c02e130146104865780630e329357146104a4575b600080fd5b610440610e4a565b60405161044d9190615333565b60405180910390f35b610470600480360381019061046b91906153c0565b610e50565b60405161047d9190615333565b60405180910390f35b61048e610e68565b60405161049b9190615333565b60405180910390f35b6104be60048036038101906104b99190615533565b610e6e565b6040516104cb919061562a565b60405180910390f35b6104ee60048036038101906104e9919061568c565b610e9a565b6040516104fb91906156c8565b60405180910390f35b61050c610ecd565b6040516105199190615742565b60405180910390f35b61053c60048036038101906105379190615789565b610ef3565b6040516105499190615333565b60405180910390f35b61056c6004803603810190610567919061568c565b610f39565b6040516105799190615887565b60405180910390f35b61059c600480360381019061059791906158a9565b610fce565b6040516105a991906156c8565b60405180910390f35b6105ba611001565b6040516105c791906156c8565b60405180910390f35b6105ea60048036038101906105e591906158d6565b611027565b005b6105f4611099565b60405161060191906156c8565b60405180910390f35b610624600480360381019061061f9190615789565b6110bf565b6040516106319190615333565b60405180910390f35b610654600480360381019061064f91906153c0565b611105565b6040516106619190615934565b60405180910390f35b610684600480360381019061067f919061568c565b611127565b60405161069191906156c8565b60405180910390f35b6106a261115a565b6040516106af9190615333565b60405180910390f35b6106c061129f565b6040516106cd919061595e565b60405180910390f35b6106de6112b9565b6040516106eb919061599a565b60405180910390f35b61070e600480360381019061070991906153c0565b6112df565b60405161071b9190615333565b60405180910390f35b61072c6112f7565b005b610748600480360381019061074391906153c0565b611309565b005b610764600480360381019061075f91906158a9565b6113c4565b6040516107749493929190615b31565b60405180910390f35b6107856115b3565b6040516107929190615333565b60405180910390f35b6107a36115b9565b6040516107b09190615bb3565b60405180910390f35b6107d360048036038101906107ce9190615bce565b6115df565b6040516107e09190615934565b60405180910390f35b61080360048036038101906107fe91906153c0565b611610565b005b61080d61165c565b60405161081a9190615c2f565b60405180910390f35b61082b611682565b6040516108389190615333565b60405180910390f35b6108496116a5565b005b610865600480360381019061086091906153c0565b6116b9565b005b61086f611774565b60405161087c9190615c6b565b60405180910390f35b61088d61179a565b60405161089a9190615c9f565b60405180910390f35b6108ab611b36565b6040516108b89190615333565b60405180910390f35b6108c9611b3c565b005b6108e560048036038101906108e09190615ff7565b611bd6565b005b61090160048036038101906108fc91906153c0565b611bf0565b60405161090e9190615333565b60405180910390f35b61091f611c08565b60405161092c91906156c8565b60405180910390f35b61093d611c32565b60405161094a9190615333565b60405180910390f35b61096d600480360381019061096891906153c0565b611c55565b60405161097a9190615333565b60405180910390f35b61098b611c6d565b6040516109989190615333565b60405180910390f35b6109a9611c73565b6040516109b691906160ea565b60405180910390f35b6109d960048036038101906109d491906158a9565b611c86565b6040516109e691906156c8565b60405180910390f35b610a096004803603810190610a04919061616f565b611cb9565b005b610a256004803603810190610a20919061568c565b6121ad565b604051610a329190615887565b60405180910390f35b610a556004803603810190610a509190615533565b612242565b005b610a5f61226e565b604051610a6c9190615333565b60405180910390f35b610a7d612456565b604051610a8a9190615c9f565b60405180910390f35b610aad6004803603810190610aa891906153c0565b61245c565b005b610ac96004803603810190610ac4919061568c565b6124a8565b604051610ad69190615887565b60405180910390f35b610af96004803603810190610af49190616263565b61253d565b005b610b156004803603810190610b1091906153c0565b612766565b005b610b1f612821565b604051610b2c919061636f565b60405180910390f35b610b4f6004803603810190610b4a919061568c565b612847565b604051610b5c9190615333565b60405180910390f35b610b6d612891565b604051610b7a9190615333565b60405180910390f35b610b9d6004803603810190610b98919061568c565b612897565b604051610baa9190615887565b60405180910390f35b610bbb61292c565b604051610bc891906163ab565b60405180910390f35b610bd9612952565b604051610be69190615333565b60405180910390f35b610bf7612958565b604051610c049190615333565b60405180910390f35b610c276004803603810190610c2291906153c0565b61295e565b005b610c436004803603810190610c3e919061568c565b6129aa565b604051610c5091906163c6565b60405180910390f35b610c61612a75565b604051610c6e91906156c8565b60405180910390f35b610c916004803603810190610c8c919061568c565b612a9b565b604051610c9e91906163c6565b60405180910390f35b610cc16004803603810190610cbc91906158a9565b612b66565b604051610cd194939291906164a6565b60405180910390f35b610cf46004803603810190610cef9190616507565b612d7f565b604051610d019190615333565b60405180910390f35b610d12612f6d565b604051610d1f91906156c8565b60405180910390f35b610d30612f93565b604051610d3d91906165a1565b60405180910390f35b610d606004803603810190610d5b91906153c0565b612fb9565b604051610d6d919061595e565b60405180910390f35b610d906004803603810190610d8b9190616604565b612fe0565b604051610d9d9190615333565b60405180910390f35b610dc06004803603810190610dbb919061666b565b6130b2565b005b610dca6131a6565b604051610dd79190615333565b60405180910390f35b610dfa6004803603810190610df591906153c0565b6131ac565b005b610e04613325565b604051610e1191906166df565b60405180910390f35b610e346004803603810190610e2f919061568c565b61334b565b604051610e419190615333565b60405180910390f35b60a45481565b60b46020528060005260406000206000915090505481565b60a95481565b60608282604051602001610e83929190616741565b604051602081830303815290604052905092915050565b60a06020528060005260406000206000915054906101000a900473ffffffffffffffffffffffffffffffffffffffff1681565b60bd60009054906101000a900473ffffffffffffffffffffffffffffffffffffffff1681565b600060ba600084815260200190815260200160002060080160008367ffffffffffffffff1667ffffffffffffffff16815260200190815260200160002054905092915050565b606060bb600060b954815260200190815260200160002060060160008367ffffffffffffffff1667ffffffffffffffff168152602001908152602001600020805480602002602001604051908101604052809291908181526020018280548015610fc257602002820191906000526020600020905b815481526020019060010190808311610fae575b50505050509050919050565b60b06020528060005260406000206000915054906101000a900473ffffffffffffffffffffffffffffffffffffffff1681565b60a560089054906101000a900473ffffffffffffffffffffffffffffffffffffffff1681565b61102f613395565b8160a260008367ffffffffffffffff1667ffffffffffffffff16815260200190815260200160002060006101000a81548173ffffffffffffffffffffffffffffffffffffffff021916908373ffffffffffffffffffffffffffffffffffffffff1602179055505050565b609f60009054906101000a900473ffffffffffffffffffffffffffffffffffffffff1681565b600060bb600084815260200190815260200160002060080160008367ffffffffffffffff1667ffffffffffffffff16815260200190815260200160002054905092915050565b60b66020528060005260406000206000915054906101000a900462ffffff1681565b60a26020528060005260406000206000915054906101000a900473ffffffffffffffffffffffffffffffffffffffff1681565b60008060aa60009054906101000a900473ffffffffffffffffffffffffffffffffffffffff1673ffffffffffffffffffffffffffffffffffffffff1663feaf968c6040518163ffffffff1660e01b815260040160a060405180830381865afa1580156111ca573d6000803e3d6000fd5b505050506040513d601f19601f820116820180604052508101906111ee91906167f2565b505050915050600060aa60009054906101000a900473ffffffffffffffffffffffffffffffffffffffff1673ffffffffffffffffffffffffffffffffffffffff1663313ce5676040518163ffffffff1660e01b8152600401602060405180830381865afa158015611263573d6000803e3d6000fd5b505050506040513d601f19601f820116820180604052508101906112879190616899565b905061129582826012613413565b9150819250505090565b60a560009054906101000a900467ffffffffffffffff1681565b60c060009054906101000a900473ffffffffffffffffffffffffffffffffffffffff1681565b60b56020528060005260406000206000915090505481565b6112ff613395565b61130761347a565b565b611311613395565b600073ffffffffffffffffffffffffffffffffffffffff168173ffffffffffffffffffffffffffffffffffffffff1603611380576040517f08c379a000000000000000000000000000000000000000000000000000000000815260040161137790616938565b60405180910390fd5b8060a560086101000a81548173ffffffffffffffffffffffffffffffffffffffff021916908373ffffffffffffffffffffffffffffffffffffffff16021790555050565b606080606080600060ba60008781526020019081526020016000209050806000018160010182600201836003018380548060200260200160405190810160405280929190818152602001828054801561147257602002820191906000526020600020905b8160009054906101000a900473ffffffffffffffffffffffffffffffffffffffff1673ffffffffffffffffffffffffffffffffffffffff1681526020019060010190808311611428575b50505050509350828054806020026020016040519081016040528092919081815260200182805480156114c457602002820191906000526020600020905b8154815260200190600101908083116114b0575b505050505092508180548060200260200160405190810160405280929190818152602001828054801561151657602002820191906000526020600020905b815481526020019060010190808311611502575b505050505091508080548060200260200160405190810160405280929190818152602001828054801561159c57602002820191906000526020600020906000905b82829054906101000a900467ffffffffffffffff1667ffffffffffffffff16815260200190600801906020826007010492830192600103820291508084116115575790505b505050505090509450945094509450509193509193565b60ad5481565b60aa60009054906101000a900473ffffffffffffffffffffffffffffffffffffffff1681565b60a16020528160005260406000206020528060005260406000206000915091509054906101000a900462ffffff1681565b611618613395565b8060c260006101000a81548173ffffffffffffffffffffffffffffffffffffffff021916908373ffffffffffffffffffffffffffffffffffffffff16021790555050565b60bf60009054906101000a900473ffffffffffffffffffffffffffffffffffffffff1681565b600060bb600060b954815260200190815260200160002060030180549050905090565b6116ad613395565b6116b76000613c06565b565b6116c1613395565b600073ffffffffffffffffffffffffffffffffffffffff168173ffffffffffffffffffffffffffffffffffffffff1603611730576040517f08c379a0000000000000000000000000000000000000000000000000000000008152600401611727906169ca565b60405180910390fd5b8060aa60006101000a81548173ffffffffffffffffffffffffffffffffffffffff021916908373ffffffffffffffffffffffffffffffffffffffff16021790555050565b60be60009054906101000a900473ffffffffffffffffffffffffffffffffffffffff1681565b6000806118bb60a680546117ad90616a19565b80601f01602080910402602001604051908101604052809291908181526020018280546117d990616a19565b80156118265780601f106117fb57610100808354040283529160200191611826565b820191906000526020600020905b81548152906001019060200180831161180957829003601f168201915b505050505060a7805461183890616a19565b80601f016020809104026020016040519081016040528092919081815260200182805461186490616a19565b80156118b15780601f10611886576101008083540402835291602001916118b1565b820191906000526020600020905b81548152906001019060200180831161189457829003601f168201915b5050505050610e6e565b905060006118d360a8543063b2c44b3f60e01b613ccc565b905061191f6040518060400160405280600381526020017f67657400000000000000000000000000000000000000000000000000000000008152508383613cfd9092919063ffffffff16565b61199e6040518060400160405280600581526020017f70617468310000000000000000000000000000000000000000000000000000008152506040518060400160405280600e81526020017f726573756c74732c746f6b656e7300000000000000000000000000000000000081525083613cfd9092919063ffffffff16565b611a1d6040518060400160405280600581526020017f70617468320000000000000000000000000000000000000000000000000000008152506040518060400160405280601481526020017f726573756c74732c6d61726b657453686172657300000000000000000000000081525083613cfd9092919063ffffffff16565b611a9c6040518060400160405280600581526020017f70617468330000000000000000000000000000000000000000000000000000008152506040518060400160405280601081526020017f726573756c74732c73776170466565730000000000000000000000000000000081525083613cfd9092919063ffffffff16565b611b1b6040518060400160405280600581526020017f70617468340000000000000000000000000000000000000000000000000000008152506040518060400160405280601581526020017f726573756c74732c636861696e53656c6563746f72000000000000000000000081525083613cfd9092919063ffffffff16565b611b2f611b26613d30565b8260a954613d5a565b9250505090565b60ae5481565b609f60009054906101000a900473ffffffffffffffffffffffffffffffffffffffff1673ffffffffffffffffffffffffffffffffffffffff163373ffffffffffffffffffffffffffffffffffffffff1614611bcc576040517f08c379a0000000000000000000000000000000000000000000000000000000008152600401611bc390616abc565b60405180910390fd5b611bd461347a565b565b611bde613395565b611bea84848484613e26565b50505050565b60b26020528060005260406000206000915090505481565b6000603860009054906101000a900473ffffffffffffffffffffffffffffffffffffffff16905090565b600060ba600060b854815260200190815260200160002060030180549050905090565b60b36020528060005260406000206000915090505481565b60af5481565b60a360009054906101000a900460ff1681565b60b16020528060005260406000206000915054906101000a900473ffffffffffffffffffffffffffffffffffffffff1681565b60008060019054906101000a900460ff16159050808015611cea5750600160008054906101000a900460ff1660ff16105b80611d175750611cf930614a56565b158015611d165750600160008054906101000a900460ff1660ff16145b5b611d56576040517f08c379a0000000000000000000000000000000000000000000000000000000008152600401611d4d90616b4e565b60405180910390fd5b60016000806101000a81548160ff021916908360ff1602179055508015611d93576001600060016101000a81548160ff0219169083151502179055505b60008c67ffffffffffffffff1611611de0576040517f08c379a0000000000000000000000000000000000000000000000000000000008152600401611dd790616bba565b60405180910390fd5b600073ffffffffffffffffffffffffffffffffffffffff168b73ffffffffffffffffffffffffffffffffffffffff1603611e4f576040517f08c379a0000000000000000000000000000000000000000000000000000000008152600401611e4690616c26565b60405180910390fd5b600073ffffffffffffffffffffffffffffffffffffffff168a73ffffffffffffffffffffffffffffffffffffffff1603611ebe576040517f08c379a0000000000000000000000000000000000000000000000000000000008152600401611eb590616c92565b60405180910390fd5b611ec6614a79565b8b60a560006101000a81548167ffffffffffffffff021916908367ffffffffffffffff1602179055508a609d60006101000a81548173ffffffffffffffffffffffffffffffffffffffff021916908373ffffffffffffffffffffffffffffffffffffffff160217905550611f398a614ad2565b611f4289614b16565b8760a881905550600a670de0b6b3a76400006001611f609190616ce1565b611f6a9190616d52565b60a9819055508660aa60006101000a81548173ffffffffffffffffffffffffffffffffffffffff021916908373ffffffffffffffffffffffffffffffffffffffff1602179055508560c060006101000a81548173ffffffffffffffffffffffffffffffffffffffff021916908373ffffffffffffffffffffffffffffffffffffffff1602179055508460bc60006101000a81548173ffffffffffffffffffffffffffffffffffffffff021916908373ffffffffffffffffffffffffffffffffffffffff1602179055508360bd60006101000a81548173ffffffffffffffffffffffffffffffffffffffff021916908373ffffffffffffffffffffffffffffffffffffffff1602179055508260be60006101000a81548173ffffffffffffffffffffffffffffffffffffffff021916908373ffffffffffffffffffffffffffffffffffffffff1602179055508160bf60006101000a81548173ffffffffffffffffffffffffffffffffffffffff021916908373ffffffffffffffffffffffffffffffffffffffff1602179055506040518060600160405280602a8152602001617d79602a913960a6908161211d9190616f25565b506040518060600160405280602e8152602001617da3602e913960a790816121459190616f25565b50801561219f5760008060016101000a81548160ff0219169083151502179055507f7f26b83ff96e1f2b6a682f133852f6798a09c465da95921460cefb384740249860016040516121969190617032565b60405180910390a15b505050505050505050505050565b606060ba600060b854815260200190815260200160002060060160008367ffffffffffffffff1667ffffffffffffffff16815260200190815260200160002080548060200260200160405190810160405280929190818152602001828054801561223657602002820191906000526020600020905b815481526020019060010190808311612222575b50505050509050919050565b61224a613395565b8160a690816122599190616f25565b508060a790816122699190616f25565b505050565b60008060005b60ad5481101561244e57600061243060b1600084815260200190815260200160002060009054906101000a900473ffffffffffffffffffffffffffffffffffffffff1660c060009054906101000a900473ffffffffffffffffffffffffffffffffffffffff1660b1600086815260200190815260200160002060009054906101000a900473ffffffffffffffffffffffffffffffffffffffff1673ffffffffffffffffffffffffffffffffffffffff166370a0823160c260009054906101000a900473ffffffffffffffffffffffffffffffffffffffff166040518263ffffffff1660e01b815260040161236891906156c8565b602060405180830381865afa158015612385573d6000803e3d6000fd5b505050506040513d601f19601f820116820180604052508101906123a9919061704d565b60b6600060b1600089815260200190815260200160002060009054906101000a900473ffffffffffffffffffffffffffffffffffffffff1673ffffffffffffffffffffffffffffffffffffffff1673ffffffffffffffffffffffffffffffffffffffff16815260200190815260200160002060009054906101000a900462ffffff16612d7f565b9050808361243e919061707a565b9250508080600101915050612274565b508091505090565b60a85481565b612464613395565b80609f60006101000a81548173ffffffffffffffffffffffffffffffffffffffff021916908373ffffffffffffffffffffffffffffffffffffffff16021790555050565b606060bb600060b954815260200190815260200160002060070160008367ffffffffffffffff1667ffffffffffffffff16815260200190815260200160002080548060200260200160405190810160405280929190818152602001828054801561253157602002820191906000526020600020905b81548152602001906001019080831161251d575b50505050509050919050565b846005600082815260200190815260200160002060009054906101000a900473ffffffffffffffffffffffffffffffffffffffff1673ffffffffffffffffffffffffffffffffffffffff163373ffffffffffffffffffffffffffffffffffffffff16146125df576040517f08c379a00000000000000000000000000000000000000000000000000000000081526004016125d690617120565b60405180910390fd5b6005600082815260200190815260200160002060006101000a81549073ffffffffffffffffffffffffffffffffffffffff0219169055807f7cc135e0cebb02c3480ae5d74d377283180a2601f8f644edf7987b009316c63a60405160405180910390a26000855111612686576040517f08c379a000000000000000000000000000000000000000000000000000000000815260040161267d9061718c565b60405180910390fd5b84518451146126ca576040517f08c379a00000000000000000000000000000000000000000000000000000000081526004016126c19061721e565b60405180910390fd5b845183511461270e576040517f08c379a0000000000000000000000000000000000000000000000000000000008152600401612705906172b0565b60405180910390fd5b8451825114612752576040517f08c379a000000000000000000000000000000000000000000000000000000000815260040161274990617342565b60405180910390fd5b61275e85858585613e26565b505050505050565b61276e613395565b600073ffffffffffffffffffffffffffffffffffffffff168173ffffffffffffffffffffffffffffffffffffffff16036127dd576040517f08c379a00000000000000000000000000000000000000000000000000000000081526004016127d4906173d4565b60405180910390fd5b80606a60006101000a81548173ffffffffffffffffffffffffffffffffffffffff021916908373ffffffffffffffffffffffffffffffffffffffff16021790555050565b60bc60009054906101000a900473ffffffffffffffffffffffffffffffffffffffff1681565b600060bb600060b954815260200190815260200160002060050160008367ffffffffffffffff1667ffffffffffffffff168152602001908152602001600020805490509050919050565b60b95481565b606060ba600060b854815260200190815260200160002060070160008367ffffffffffffffff1667ffffffffffffffff16815260200190815260200160002080548060200260200160405190810160405280929190818152602001828054801561292057602002820191906000526020600020905b81548152602001906001019080831161290c575b50505050509050919050565b60c160009054906101000a900473ffffffffffffffffffffffffffffffffffffffff1681565b60ac5481565b60ab5481565b612966613395565b80609e60006101000a81548173ffffffffffffffffffffffffffffffffffffffff021916908373ffffffffffffffffffffffffffffffffffffffff16021790555050565b606060ba600060b854815260200190815260200160002060050160008367ffffffffffffffff1667ffffffffffffffff168152602001908152602001600020805480602002602001604051908101604052809291908181526020018280548015612a6957602002820191906000526020600020905b8160009054906101000a900473ffffffffffffffffffffffffffffffffffffffff1673ffffffffffffffffffffffffffffffffffffffff1681526020019060010190808311612a1f575b50505050509050919050565b606a60009054906101000a900473ffffffffffffffffffffffffffffffffffffffff1681565b606060bb600060b954815260200190815260200160002060050160008367ffffffffffffffff1667ffffffffffffffff168152602001908152602001600020805480602002602001604051908101604052809291908181526020018280548015612b5a57602002820191906000526020600020905b8160009054906101000a900473ffffffffffffffffffffffffffffffffffffffff1673ffffffffffffffffffffffffffffffffffffffff1681526020019060010190808311612b10575b50505050509050919050565b606080606080600060bb600087815260200190815260200160002090508060000181600101826002018360030183805480602002602001604051908101604052809291908181526020018280548015612c1457602002820191906000526020600020905b8160009054906101000a900473ffffffffffffffffffffffffffffffffffffffff1673ffffffffffffffffffffffffffffffffffffffff1681526020019060010190808311612bca575b5050505050935082805480602002602001604051908101604052809291908181526020018280548015612c6657602002820191906000526020600020905b815481526020019060010190808311612c52575b5050505050925081805480602002602001604051908101604052809291908181526020018280548015612ce257602002820191906000526020600020906000905b82829054906101000a900462ffffff1662ffffff1681526020019060030190602082600201049283019260010382029150808411612ca75790505b5050505050915080805480602002602001604051908101604052809291908181526020018280548015612d6857602002820191906000526020600020906000905b82829054906101000a900467ffffffffffffffff1667ffffffffffffffff1681526020019060080190602082600701049283019260010382029150808411612d235790505b505050505090509450945094509450509193509193565b6000806000841115612f615760008362ffffff161115612dac57612da586868686612fe0565b9050612f60565b6000600267ffffffffffffffff811115612dc957612dc8615408565b5b604051908082528060200260200182016040528015612df75781602001602082028036833780820191505090505b5090508681600081518110612e0f57612e0e6173f4565b5b602002602001019073ffffffffffffffffffffffffffffffffffffffff16908173ffffffffffffffffffffffffffffffffffffffff16815250508581600181518110612e5e57612e5d6173f4565b5b602002602001019073ffffffffffffffffffffffffffffffffffffffff16908173ffffffffffffffffffffffffffffffffffffffff1681525050600060be60009054906101000a900473ffffffffffffffffffffffffffffffffffffffff1673ffffffffffffffffffffffffffffffffffffffff1663d06ca61f87846040518363ffffffff1660e01b8152600401612ef7929190617423565b600060405180830381865afa158015612f14573d6000803e3d6000fd5b505050506040513d6000823e3d601f19601f82011682018060405250810190612f3d91906174ea565b905080600181518110612f5357612f526173f4565b5b6020026020010151925050505b5b80915050949350505050565b609e60009054906101000a900473ffffffffffffffffffffffffffffffffffffffff1681565b609d60009054906101000a900473ffffffffffffffffffffffffffffffffffffffff1681565b60b76020528060005260406000206000915054906101000a900467ffffffffffffffff1681565b600060a560089054906101000a900473ffffffffffffffffffffffffffffffffffffffff1673ffffffffffffffffffffffffffffffffffffffff1663bb5705b360bd60009054906101000a900473ffffffffffffffffffffffffffffffffffffffff16878787876040518663ffffffff1660e01b8152600401613067959493929190617542565b602060405180830381865afa158015613084573d6000803e3d6000fd5b505050506040513d601f19601f820116820180604052508101906130a8919061704d565b9050949350505050565b6130ba613395565b8160a060008567ffffffffffffffff1667ffffffffffffffff16815260200190815260200160002060006101000a81548173ffffffffffffffffffffffffffffffffffffffff021916908373ffffffffffffffffffffffffffffffffffffffff1602179055508060a160008567ffffffffffffffff1667ffffffffffffffff16815260200190815260200160002060008473ffffffffffffffffffffffffffffffffffffffff1673ffffffffffffffffffffffffffffffffffffffff16815260200190815260200160002060006101000a81548162ffffff021916908362ffffff160217905550505050565b60b85481565b600073ffffffffffffffffffffffffffffffffffffffff168173ffffffffffffffffffffffffffffffffffffffff160361321b576040517f08c379a0000000000000000000000000000000000000000000000000000000008152600401613212906173d4565b60405180910390fd5b606a60009054906101000a900473ffffffffffffffffffffffffffffffffffffffff1673ffffffffffffffffffffffffffffffffffffffff168173ffffffffffffffffffffffffffffffffffffffff16146132ab576040517f08c379a00000000000000000000000000000000000000000000000000000000081526004016132a290617607565b60405180910390fd5b3373ffffffffffffffffffffffffffffffffffffffff168173ffffffffffffffffffffffffffffffffffffffff1614613319576040517f08c379a000000000000000000000000000000000000000000000000000000000815260040161331090617699565b60405180910390fd5b61332281613c06565b50565b60c260009054906101000a900473ffffffffffffffffffffffffffffffffffffffff1681565b600060ba600060b854815260200190815260200160002060050160008367ffffffffffffffff1667ffffffffffffffff168152602001908152602001600020805490509050919050565b61339d614b5a565b73ffffffffffffffffffffffffffffffffffffffff166133bb611c08565b73ffffffffffffffffffffffffffffffffffffffff1614613411576040517f08c379a000000000000000000000000000000000000000000000000000000000815260040161340890617705565b60405180910390fd5b565b60008260ff168260ff16111561344d57828261342f9190617725565b600a61343b919061788d565b8461344691906178d8565b9050613473565b81836134599190617725565b600a613465919061788d565b8461347091906178d8565b90505b9392505050565b600160b9600082825461348d919061707a565b9250508190555060005b60ac54811015613bfa5760b0600082815260200190815260200160002060009054906101000a900473ffffffffffffffffffffffffffffffffffffffff1660b1600083815260200190815260200160002060006101000a81548173ffffffffffffffffffffffffffffffffffffffff021916908373ffffffffffffffffffffffffffffffffffffffff16021790555060b5600060b0600084815260200190815260200160002060009054906101000a900473ffffffffffffffffffffffffffffffffffffffff1673ffffffffffffffffffffffffffffffffffffffff1673ffffffffffffffffffffffffffffffffffffffff1681526020019081526020016000205460b4600060b1600085815260200190815260200160002060009054906101000a900473ffffffffffffffffffffffffffffffffffffffff1673ffffffffffffffffffffffffffffffffffffffff1673ffffffffffffffffffffffffffffffffffffffff1681526020019081526020016000208190555060b2600060b0600084815260200190815260200160002060009054906101000a900473ffffffffffffffffffffffffffffffffffffffff1673ffffffffffffffffffffffffffffffffffffffff1673ffffffffffffffffffffffffffffffffffffffff1681526020019081526020016000205460b3600060b1600085815260200190815260200160002060009054906101000a900473ffffffffffffffffffffffffffffffffffffffff1673ffffffffffffffffffffffffffffffffffffffff1673ffffffffffffffffffffffffffffffffffffffff16815260200190815260200160002081905550600060b7600060b0600085815260200190815260200160002060009054906101000a900473ffffffffffffffffffffffffffffffffffffffff1673ffffffffffffffffffffffffffffffffffffffff1673ffffffffffffffffffffffffffffffffffffffff16815260200190815260200160002060009054906101000a900467ffffffffffffffff16905060bb600060b954815260200190815260200160002060040160008267ffffffffffffffff1667ffffffffffffffff16815260200190815260200160002060009054906101000a900460ff1661389557600160bb600060b954815260200190815260200160002060040160008367ffffffffffffffff1667ffffffffffffffff16815260200190815260200160002060006101000a81548160ff02191690831515021790555060bb600060b95481526020019081526020016000206003018190806001815401808255809150506001900390600052602060002090600491828204019190066008029091909190916101000a81548167ffffffffffffffff021916908367ffffffffffffffff1602179055505b60bb600060b954815260200190815260200160002060050160008267ffffffffffffffff1667ffffffffffffffff16815260200190815260200160002060b0600084815260200190815260200160002060009054906101000a900473ffffffffffffffffffffffffffffffffffffffff169080600181540180825580915050600190039060005260206000200160009091909190916101000a81548173ffffffffffffffffffffffffffffffffffffffff021916908373ffffffffffffffffffffffffffffffffffffffff16021790555060bb600060b954815260200190815260200160002060060160008267ffffffffffffffff1667ffffffffffffffff16815260200190815260200160002060b6600060b0600086815260200190815260200160002060009054906101000a900473ffffffffffffffffffffffffffffffffffffffff1673ffffffffffffffffffffffffffffffffffffffff1673ffffffffffffffffffffffffffffffffffffffff16815260200190815260200160002060009054906101000a900462ffffff16908060018154018082558091505060019003906000526020600020016000909162ffffff1690919091505560b5600060b0600085815260200190815260200160002060009054906101000a900473ffffffffffffffffffffffffffffffffffffffff1673ffffffffffffffffffffffffffffffffffffffff1673ffffffffffffffffffffffffffffffffffffffff1681526020019081526020016000205460bb600060b954815260200190815260200160002060080160008367ffffffffffffffff1667ffffffffffffffff1681526020019081526020016000206000828254613b0f919061707a565b9250508190555060bb600060b954815260200190815260200160002060070160008267ffffffffffffffff1667ffffffffffffffff16815260200190815260200160002060b5600060b0600086815260200190815260200160002060009054906101000a900473ffffffffffffffffffffffffffffffffffffffff1673ffffffffffffffffffffffffffffffffffffffff1673ffffffffffffffffffffffffffffffffffffffff168152602001908152602001600020549080600181540180825580915050600190039060005260206000200160009091909190915055508080600101915050613497565b5060ac5460ad81905550565b6000603860009054906101000a900473ffffffffffffffffffffffffffffffffffffffff16905081603860006101000a81548173ffffffffffffffffffffffffffffffffffffffff021916908373ffffffffffffffffffffffffffffffffffffffff1602179055508173ffffffffffffffffffffffffffffffffffffffff168173ffffffffffffffffffffffffffffffffffffffff167f8be0079c531659141344cd1fd0a4f28419497f9722a3daafe3b4186f6b6457e060405160405180910390a35050565b613cd4615293565b613cdc615293565b613cf385858584614b62909392919063ffffffff16565b9150509392505050565b613d14828460800151614c1290919063ffffffff16565b613d2b818460800151614c1290919063ffffffff16565b505050565b6000600360009054906101000a900473ffffffffffffffffffffffffffffffffffffffff16905090565b6000806004549050600181613d6f919061707a565b6004819055506000634042994660e01b60008087600001513089604001518760018c6080015160000151604051602401613db09897969594939291906179d5565b604051602081830303815290604052907bffffffffffffffffffffffffffffffffffffffffffffffffffffffff19166020820180517bffffffffffffffffffffffffffffffffffffffffffffffffffffffff83818316178352505050509050613e1b86838684614c37565b925050509392505050565b6000849050600084905060008490506000849050600160b86000828254613e4d919061707a565b92505081905550600060ad5403613e7957600160b96000828254613e71919061707a565b925050819055505b60005b8451811015614a2957848181518110613e9857613e976173f4565b5b602002602001015160b0600083815260200190815260200160002060006101000a81548173ffffffffffffffffffffffffffffffffffffffff021916908373ffffffffffffffffffffffffffffffffffffffff1602179055508060b26000878481518110613f0957613f086173f4565b5b602002602001015173ffffffffffffffffffffffffffffffffffffffff1673ffffffffffffffffffffffffffffffffffffffff16815260200190815260200160002081905550838181518110613f6257613f616173f4565b5b602002602001015160b56000878481518110613f8157613f806173f4565b5b602002602001015173ffffffffffffffffffffffffffffffffffffffff1673ffffffffffffffffffffffffffffffffffffffff16815260200190815260200160002081905550828181518110613fda57613fd96173f4565b5b602002602001015160b66000878481518110613ff957613ff86173f4565b5b602002602001015173ffffffffffffffffffffffffffffffffffffffff1673ffffffffffffffffffffffffffffffffffffffff16815260200190815260200160002060006101000a81548162ffffff021916908362ffffff16021790555081818151811061406a576140696173f4565b5b602002602001015160b76000878481518110614089576140886173f4565b5b602002602001015173ffffffffffffffffffffffffffffffffffffffff1673ffffffffffffffffffffffffffffffffffffffff16815260200190815260200160002060006101000a81548167ffffffffffffffff021916908367ffffffffffffffff16021790555060ba600060b8548152602001908152602001600020600401600083838151811061411e5761411d6173f4565b5b602002602001015167ffffffffffffffff1667ffffffffffffffff16815260200190815260200160002060009054906101000a900460ff166142515760ba600060b8548152602001908152602001600020600301828281518110614185576141846173f4565b5b602002602001015190806001815401808255809150506001900390600052602060002090600491828204019190066008029091909190916101000a81548167ffffffffffffffff021916908367ffffffffffffffff160217905550600160ba600060b8548152602001908152602001600020600401600084848151811061420f5761420e6173f4565b5b602002602001015167ffffffffffffffff1667ffffffffffffffff16815260200190815260200160002060006101000a81548160ff0219169083151502179055505b60ba600060b8548152602001908152602001600020600501600083838151811061427e5761427d6173f4565b5b602002602001015167ffffffffffffffff1667ffffffffffffffff1681526020019081526020016000208582815181106142bb576142ba6173f4565b5b60200260200101519080600181540180825580915050600190039060005260206000200160009091909190916101000a81548173ffffffffffffffffffffffffffffffffffffffff021916908373ffffffffffffffffffffffffffffffffffffffff16021790555060ba600060b854815260200190815260200160002060060160008383815181106143505761434f6173f4565b5b602002602001015167ffffffffffffffff1667ffffffffffffffff16815260200190815260200160002083828151811061438d5761438c6173f4565b5b6020026020010151908060018154018082558091505060019003906000526020600020016000909162ffffff169091909150558381815181106143d3576143d26173f4565b5b602002602001015160ba600060b85481526020019081526020016000206008016000848481518110614408576144076173f4565b5b602002602001015167ffffffffffffffff1667ffffffffffffffff1681526020019081526020016000206000828254614441919061707a565b9250508190555060ba600060b85481526020019081526020016000206007016000838381518110614475576144746173f4565b5b602002602001015167ffffffffffffffff1667ffffffffffffffff1681526020019081526020016000208482815181106144b2576144b16173f4565b5b60200260200101519080600181540180825580915050600190039060005260206000200160009091909190915055600060ad5403614a1c578481815181106144fd576144fc6173f4565b5b602002602001015160b1600083815260200190815260200160002060006101000a81548173ffffffffffffffffffffffffffffffffffffffff021916908373ffffffffffffffffffffffffffffffffffffffff160217905550838181518110614569576145686173f4565b5b602002602001015160b46000878481518110614588576145876173f4565b5b602002602001015173ffffffffffffffffffffffffffffffffffffffff1673ffffffffffffffffffffffffffffffffffffffff168152602001908152602001600020819055508060b360008784815181106145e6576145e56173f4565b5b602002602001015173ffffffffffffffffffffffffffffffffffffffff1673ffffffffffffffffffffffffffffffffffffffff1681526020019081526020016000208190555060bb600060b95481526020019081526020016000206004016000838381518110614659576146586173f4565b5b602002602001015167ffffffffffffffff1667ffffffffffffffff16815260200190815260200160002060009054906101000a900460ff1661478c57600160bb600060b954815260200190815260200160002060040160008484815181106146c4576146c36173f4565b5b602002602001015167ffffffffffffffff1667ffffffffffffffff16815260200190815260200160002060006101000a81548160ff02191690831515021790555060bb600060b95481526020019081526020016000206003018282815181106147305761472f6173f4565b5b602002602001015190806001815401808255809150506001900390600052602060002090600491828204019190066008029091909190916101000a81548167ffffffffffffffff021916908367ffffffffffffffff1602179055505b60bb600060b954815260200190815260200160002060050160008383815181106147b9576147b86173f4565b5b602002602001015167ffffffffffffffff1667ffffffffffffffff1681526020019081526020016000208582815181106147f6576147f56173f4565b5b60200260200101519080600181540180825580915050600190039060005260206000200160009091909190916101000a81548173ffffffffffffffffffffffffffffffffffffffff021916908373ffffffffffffffffffffffffffffffffffffffff16021790555060bb600060b9548152602001908152602001600020600601600083838151811061488b5761488a6173f4565b5b602002602001015167ffffffffffffffff1667ffffffffffffffff1681526020019081526020016000208382815181106148c8576148c76173f4565b5b6020026020010151908060018154018082558091505060019003906000526020600020016000909162ffffff1690919091505583818151811061490e5761490d6173f4565b5b602002602001015160bb600060b95481526020019081526020016000206008016000848481518110614943576149426173f4565b5b602002602001015167ffffffffffffffff1667ffffffffffffffff168152602001908152602001600020600082825461497c919061707a565b9250508190555060bb600060b954815260200190815260200160002060070160008383815181106149b0576149af6173f4565b5b602002602001015167ffffffffffffffff1667ffffffffffffffff1681526020019081526020016000208482815181106149ed576149ec6173f4565b5b602002602001015190806001815401808255809150506001900390600052602060002001600090919091909150555b8080600101915050613e7c565b50835160ac81905550600060ad5403614a4557835160ad819055505b4260ab819055505050505050505050565b6000808273ffffffffffffffffffffffffffffffffffffffff163b119050919050565b600060019054906101000a900460ff16614ac8576040517f08c379a0000000000000000000000000000000000000000000000000000000008152600401614abf90617acc565b60405180910390fd5b614ad0614dcc565b565b80600260006101000a81548173ffffffffffffffffffffffffffffffffffffffff021916908373ffffffffffffffffffffffffffffffffffffffff16021790555050565b80600360006101000a81548173ffffffffffffffffffffffffffffffffffffffff021916908373ffffffffffffffffffffffffffffffffffffffff16021790555050565b600033905090565b614b6a615293565b614b7a8560800151610100614e2d565b508385600001818152505082856020019073ffffffffffffffffffffffffffffffffffffffff16908173ffffffffffffffffffffffffffffffffffffffff16815250508185604001907bffffffffffffffffffffffffffffffffffffffffffffffffffffffff191690817bffffffffffffffffffffffffffffffffffffffffffffffffffffffff191681525050849050949350505050565b614c1f8260038351614e97565b614c32818361501c90919063ffffffff16565b505050565b60003084604051602001614c4c929190617b67565b604051602081830303815290604052805190602001209050846005600083815260200190815260200160002060006101000a81548173ffffffffffffffffffffffffffffffffffffffff021916908373ffffffffffffffffffffffffffffffffffffffff160217905550807fb5e6e01e79f91267dc17b4e6314d5d4d03593d2ceee0fbb452b750bd70ea5af960405160405180910390a2600260009054906101000a900473ffffffffffffffffffffffffffffffffffffffff1673ffffffffffffffffffffffffffffffffffffffff16634000aea08685856040518463ffffffff1660e01b8152600401614d4293929190617b93565b6020604051808303816000875af1158015614d61573d6000803e3d6000fd5b505050506040513d601f19601f82011682018060405250810190614d859190617c09565b614dc4576040517f08c379a0000000000000000000000000000000000000000000000000000000008152600401614dbb90617ca8565b60405180910390fd5b949350505050565b600060019054906101000a900460ff16614e1b576040517f08c379a0000000000000000000000000000000000000000000000000000000008152600401614e1290617acc565b60405180910390fd5b614e2b614e26614b5a565b613c06565b565b614e35615300565b6000602083614e449190617cc8565b14614e7057602082614e569190617cc8565b6020614e629190617cf9565b82614e6d919061707a565b91505b81836020018181525050604051808452600081528281016020016040525082905092915050565b60178167ffffffffffffffff1611614ece57614ec88160058460ff16901b60ff16178461503e90919063ffffffff16565b50615017565b60ff8167ffffffffffffffff1611614f2457614efd601860058460ff16901b178461503e90919063ffffffff16565b50614f1e8167ffffffffffffffff1660018561505e9092919063ffffffff16565b50615016565b61ffff8167ffffffffffffffff1611614f7b57614f54601960058460ff16901b178461503e90919063ffffffff16565b50614f758167ffffffffffffffff1660028561505e9092919063ffffffff16565b50615015565b63ffffffff8167ffffffffffffffff1611614fd457614fad601a60058460ff16901b178461503e90919063ffffffff16565b50614fce8167ffffffffffffffff1660048561505e9092919063ffffffff16565b50615014565b614ff1601b60058460ff16901b178461503e90919063ffffffff16565b506150128167ffffffffffffffff1660088561505e9092919063ffffffff16565b505b5b5b5b505050565b615024615300565b61503683846000015151848551615080565b905092915050565b615046615300565b615056838460000151518461516f565b905092915050565b615066615300565b6150778485600001515185856151c5565b90509392505050565b615088615300565b825182111561509657600080fd5b846020015182856150a7919061707a565b11156150dc576150db8560026150cc886020015188876150c7919061707a565b615253565b6150d69190616ce1565b61526f565b5b6000808651805187602083010193508088870111156150fb5787860182525b60208701925050505b60208410615142578051825260208261511d919061707a565b915060208161512c919061707a565b905060208461513b9190617cf9565b9350615104565b60006001856020036101000a03905080198251168184511681811785525050508692505050949350505050565b615177615300565b8360200151831061519d5761519c84600286602001516151979190616ce1565b61526f565b5b835180516020858301018481538186036151b8576001820183525b5050508390509392505050565b6151cd615300565b846020015184836151de919061707a565b11156152065761520585600286856151f6919061707a565b6152009190616ce1565b61526f565b5b60006001836101006152189190617d2d565b6152229190617cf9565b905085518386820101858319825116178152815185880111156152455784870182525b505085915050949350505050565b60008183111561526557829050615269565b8190505b92915050565b6000826000015190506152828383614e2d565b5061528d838261501c565b50505050565b6040518060a0016040528060008019168152602001600073ffffffffffffffffffffffffffffffffffffffff16815260200160007bffffffffffffffffffffffffffffffffffffffffffffffffffffffff19168152602001600081526020016152fa615300565b81525090565b604051806040016040528060608152602001600081525090565b6000819050919050565b61532d8161531a565b82525050565b60006020820190506153486000830184615324565b92915050565b6000604051905090565b600080fd5b600080fd5b600073ffffffffffffffffffffffffffffffffffffffff82169050919050565b600061538d82615362565b9050919050565b61539d81615382565b81146153a857600080fd5b50565b6000813590506153ba81615394565b92915050565b6000602082840312156153d6576153d5615358565b5b60006153e4848285016153ab565b91505092915050565b600080fd5b600080fd5b6000601f19601f8301169050919050565b7f4e487b7100000000000000000000000000000000000000000000000000000000600052604160045260246000fd5b615440826153f7565b810181811067ffffffffffffffff8211171561545f5761545e615408565b5b80604052505050565b600061547261534e565b905061547e8282615437565b919050565b600067ffffffffffffffff82111561549e5761549d615408565b5b6154a7826153f7565b9050602081019050919050565b82818337600083830152505050565b60006154d66154d184615483565b615468565b9050828152602081018484840111156154f2576154f16153f2565b5b6154fd8482856154b4565b509392505050565b600082601f83011261551a576155196153ed565b5b813561552a8482602086016154c3565b91505092915050565b6000806040838503121561554a57615549615358565b5b600083013567ffffffffffffffff8111156155685761556761535d565b5b61557485828601615505565b925050602083013567ffffffffffffffff8111156155955761559461535d565b5b6155a185828601615505565b9150509250929050565b600081519050919050565b600082825260208201905092915050565b60005b838110156155e55780820151818401526020810190506155ca565b60008484015250505050565b60006155fc826155ab565b61560681856155b6565b93506156168185602086016155c7565b61561f816153f7565b840191505092915050565b6000602082019050818103600083015261564481846155f1565b905092915050565b600067ffffffffffffffff82169050919050565b6156698161564c565b811461567457600080fd5b50565b60008135905061568681615660565b92915050565b6000602082840312156156a2576156a1615358565b5b60006156b084828501615677565b91505092915050565b6156c281615382565b82525050565b60006020820190506156dd60008301846156b9565b92915050565b6000819050919050565b60006157086157036156fe84615362565b6156e3565b615362565b9050919050565b600061571a826156ed565b9050919050565b600061572c8261570f565b9050919050565b61573c81615721565b82525050565b60006020820190506157576000830184615733565b92915050565b6157668161531a565b811461577157600080fd5b50565b6000813590506157838161575d565b92915050565b600080604083850312156157a05761579f615358565b5b60006157ae85828601615774565b92505060206157bf85828601615677565b9150509250929050565b600081519050919050565b600082825260208201905092915050565b6000819050602082019050919050565b6157fe8161531a565b82525050565b600061581083836157f5565b60208301905092915050565b6000602082019050919050565b6000615834826157c9565b61583e81856157d4565b9350615849836157e5565b8060005b8381101561587a5781516158618882615804565b975061586c8361581c565b92505060018101905061584d565b5085935050505092915050565b600060208201905081810360008301526158a18184615829565b905092915050565b6000602082840312156158bf576158be615358565b5b60006158cd84828501615774565b91505092915050565b600080604083850312156158ed576158ec615358565b5b60006158fb858286016153ab565b925050602061590c85828601615677565b9150509250929050565b600062ffffff82169050919050565b61592e81615916565b82525050565b60006020820190506159496000830184615925565b92915050565b6159588161564c565b82525050565b6000602082019050615973600083018461594f565b92915050565b60006159848261570f565b9050919050565b61599481615979565b82525050565b60006020820190506159af600083018461598b565b92915050565b600081519050919050565b600082825260208201905092915050565b6000819050602082019050919050565b6159ea81615382565b82525050565b60006159fc83836159e1565b60208301905092915050565b6000602082019050919050565b6000615a20826159b5565b615a2a81856159c0565b9350615a35836159d1565b8060005b83811015615a66578151615a4d88826159f0565b9750615a5883615a08565b925050600181019050615a39565b5085935050505092915050565b600081519050919050565b600082825260208201905092915050565b6000819050602082019050919050565b615aa88161564c565b82525050565b6000615aba8383615a9f565b60208301905092915050565b6000602082019050919050565b6000615ade82615a73565b615ae88185615a7e565b9350615af383615a8f565b8060005b83811015615b24578151615b0b8882615aae565b9750615b1683615ac6565b925050600181019050615af7565b5085935050505092915050565b60006080820190508181036000830152615b4b8187615a15565b90508181036020830152615b5f8186615829565b90508181036040830152615b738185615829565b90508181036060830152615b878184615ad3565b905095945050505050565b6000615b9d8261570f565b9050919050565b615bad81615b92565b82525050565b6000602082019050615bc86000830184615ba4565b92915050565b60008060408385031215615be557615be4615358565b5b6000615bf385828601615677565b9250506020615c04858286016153ab565b9150509250929050565b6000615c198261570f565b9050919050565b615c2981615c0e565b82525050565b6000602082019050615c446000830184615c20565b92915050565b6000615c558261570f565b9050919050565b615c6581615c4a565b82525050565b6000602082019050615c806000830184615c5c565b92915050565b6000819050919050565b615c9981615c86565b82525050565b6000602082019050615cb46000830184615c90565b92915050565b600067ffffffffffffffff821115615cd557615cd4615408565b5b602082029050602081019050919050565b600080fd5b6000615cfe615cf984615cba565b615468565b90508083825260208201905060208402830185811115615d2157615d20615ce6565b5b835b81811015615d4a5780615d3688826153ab565b845260208401935050602081019050615d23565b5050509392505050565b600082601f830112615d6957615d686153ed565b5b8135615d79848260208601615ceb565b91505092915050565b600067ffffffffffffffff821115615d9d57615d9c615408565b5b602082029050602081019050919050565b6000615dc1615dbc84615d82565b615468565b90508083825260208201905060208402830185811115615de457615de3615ce6565b5b835b81811015615e0d5780615df98882615774565b845260208401935050602081019050615de6565b5050509392505050565b600082601f830112615e2c57615e2b6153ed565b5b8135615e3c848260208601615dae565b91505092915050565b600067ffffffffffffffff821115615e6057615e5f615408565b5b602082029050602081019050919050565b615e7a81615916565b8114615e8557600080fd5b50565b600081359050615e9781615e71565b92915050565b6000615eb0615eab84615e45565b615468565b90508083825260208201905060208402830185811115615ed357615ed2615ce6565b5b835b81811015615efc5780615ee88882615e88565b845260208401935050602081019050615ed5565b5050509392505050565b600082601f830112615f1b57615f1a6153ed565b5b8135615f2b848260208601615e9d565b91505092915050565b600067ffffffffffffffff821115615f4f57615f4e615408565b5b602082029050602081019050919050565b6000615f73615f6e84615f34565b615468565b90508083825260208201905060208402830185811115615f9657615f95615ce6565b5b835b81811015615fbf5780615fab8882615677565b845260208401935050602081019050615f98565b5050509392505050565b600082601f830112615fde57615fdd6153ed565b5b8135615fee848260208601615f60565b91505092915050565b6000806000806080858703121561601157616010615358565b5b600085013567ffffffffffffffff81111561602f5761602e61535d565b5b61603b87828801615d54565b945050602085013567ffffffffffffffff81111561605c5761605b61535d565b5b61606887828801615e17565b935050604085013567ffffffffffffffff8111156160895761608861535d565b5b61609587828801615f06565b925050606085013567ffffffffffffffff8111156160b6576160b561535d565b5b6160c287828801615fc9565b91505092959194509250565b600060ff82169050919050565b6160e4816160ce565b82525050565b60006020820190506160ff60008301846160db565b92915050565b600061611082615362565b9050919050565b61612081616105565b811461612b57600080fd5b50565b60008135905061613d81616117565b92915050565b61614c81615c86565b811461615757600080fd5b50565b60008135905061616981616143565b92915050565b60008060008060008060008060008060006101608c8e03121561619557616194615358565b5b60006161a38e828f01615677565b9b505060206161b48e828f0161612e565b9a505060406161c58e828f016153ab565b99505060606161d68e828f016153ab565b98505060806161e78e828f0161615a565b97505060a06161f88e828f016153ab565b96505060c06162098e828f016153ab565b95505060e061621a8e828f016153ab565b94505061010061622c8e828f016153ab565b93505061012061623e8e828f016153ab565b9250506101406162508e828f016153ab565b9150509295989b509295989b9093969950565b600080600080600060a0868803121561627f5761627e615358565b5b600061628d8882890161615a565b955050602086013567ffffffffffffffff8111156162ae576162ad61535d565b5b6162ba88828901615d54565b945050604086013567ffffffffffffffff8111156162db576162da61535d565b5b6162e788828901615e17565b935050606086013567ffffffffffffffff8111156163085761630761535d565b5b61631488828901615f06565b925050608086013567ffffffffffffffff8111156163355761633461535d565b5b61634188828901615fc9565b9150509295509295909350565b60006163598261570f565b9050919050565b6163698161634e565b82525050565b60006020820190506163846000830184616360565b92915050565b60006163958261570f565b9050919050565b6163a58161638a565b82525050565b60006020820190506163c0600083018461639c565b92915050565b600060208201905081810360008301526163e08184615a15565b905092915050565b600081519050919050565b600082825260208201905092915050565b6000819050602082019050919050565b61641d81615916565b82525050565b600061642f8383616414565b60208301905092915050565b6000602082019050919050565b6000616453826163e8565b61645d81856163f3565b935061646883616404565b8060005b838110156164995781516164808882616423565b975061648b8361643b565b92505060018101905061646c565b5085935050505092915050565b600060808201905081810360008301526164c08187615a15565b905081810360208301526164d48186615829565b905081810360408301526164e88185616448565b905081810360608301526164fc8184615ad3565b905095945050505050565b6000806000806080858703121561652157616520615358565b5b600061652f878288016153ab565b9450506020616540878288016153ab565b935050604061655187828801615774565b925050606061656287828801615e88565b91505092959194509250565b6000616579826156ed565b9050919050565b600061658b8261656e565b9050919050565b61659b81616580565b82525050565b60006020820190506165b66000830184616592565b92915050565b60006fffffffffffffffffffffffffffffffff82169050919050565b6165e1816165bc565b81146165ec57600080fd5b50565b6000813590506165fe816165d8565b92915050565b6000806000806080858703121561661e5761661d615358565b5b600061662c878288016153ab565b945050602061663d878288016153ab565b935050604061664e878288016165ef565b925050606061665f87828801615e88565b91505092959194509250565b60008060006060848603121561668457616683615358565b5b600061669286828701615677565b93505060206166a3868287016153ab565b92505060406166b486828701615e88565b9150509250925092565b60006166c98261570f565b9050919050565b6166d9816166be565b82525050565b60006020820190506166f460008301846166d0565b92915050565b600081519050919050565b600081905092915050565b600061671b826166fa565b6167258185616705565b93506167358185602086016155c7565b80840191505092915050565b600061674d8285616710565b91506167598284616710565b91508190509392505050565b600069ffffffffffffffffffff82169050919050565b61678481616765565b811461678f57600080fd5b50565b6000815190506167a18161677b565b92915050565b6000819050919050565b6167ba816167a7565b81146167c557600080fd5b50565b6000815190506167d7816167b1565b92915050565b6000815190506167ec8161575d565b92915050565b600080600080600060a0868803121561680e5761680d615358565b5b600061681c88828901616792565b955050602061682d888289016167c8565b945050604061683e888289016167dd565b935050606061684f888289016167dd565b925050608061686088828901616792565b9150509295509295909350565b616876816160ce565b811461688157600080fd5b50565b6000815190506168938161686d565b92915050565b6000602082840312156168af576168ae615358565b5b60006168bd84828501616884565b91505092915050565b7f5072696365206f7261636c6520616464726573732063616e6e6f74206265207a60008201527f65726f2061646472657373000000000000000000000000000000000000000000602082015250565b6000616922602b836155b6565b915061692d826168c6565b604082019050919050565b6000602082019050818103600083015261695181616915565b9050919050565b7f49434f3a205072696365206665656420616464726573732063616e6e6f74206260008201527f65207a65726f2061646472657373000000000000000000000000000000000000602082015250565b60006169b4602e836155b6565b91506169bf82616958565b604082019050919050565b600060208201905081810360008301526169e3816169a7565b9050919050565b7f4e487b7100000000000000000000000000000000000000000000000000000000600052602260045260246000fd5b60006002820490506001821680616a3157607f821691505b602082108103616a4457616a436169ea565b5b50919050565b7f43616c6c6572206973206e6f7420696e64657820666163746f72792062616c6160008201527f6e63657220636f6e74726163742e000000000000000000000000000000000000602082015250565b6000616aa6602e836155b6565b9150616ab182616a4a565b604082019050919050565b60006020820190508181036000830152616ad581616a99565b9050919050565b7f496e697469616c697a61626c653a20636f6e747261637420697320616c72656160008201527f647920696e697469616c697a6564000000000000000000000000000000000000602082015250565b6000616b38602e836155b6565b9150616b4382616adc565b604082019050919050565b60006020820190508181036000830152616b6781616b2b565b9050919050565b7f496e76616c696420636861696e2073656c6563746f7200000000000000000000600082015250565b6000616ba46016836155b6565b9150616baf82616b6e565b602082019050919050565b60006020820190508181036000830152616bd381616b97565b9050919050565b7f496e76616c696420746f6b656e20616464726573730000000000000000000000600082015250565b6000616c106015836155b6565b9150616c1b82616bda565b602082019050919050565b60006020820190508181036000830152616c3f81616c03565b9050919050565b7f496e76616c696420436861696e6c696e6b20746f6b656e206164647265737300600082015250565b6000616c7c601f836155b6565b9150616c8782616c46565b602082019050919050565b60006020820190508181036000830152616cab81616c6f565b9050919050565b7f4e487b7100000000000000000000000000000000000000000000000000000000600052601160045260246000fd5b6000616cec8261531a565b9150616cf78361531a565b9250828202616d058161531a565b91508282048414831517616d1c57616d1b616cb2565b5b5092915050565b7f4e487b7100000000000000000000000000000000000000000000000000000000600052601260045260246000fd5b6000616d5d8261531a565b9150616d688361531a565b925082616d7857616d77616d23565b5b828204905092915050565b60008190508160005260206000209050919050565b60006020601f8301049050919050565b600082821b905092915050565b600060088302616de57fffffffffffffffffffffffffffffffffffffffffffffffffffffffffffffffff82616da8565b616def8683616da8565b95508019841693508086168417925050509392505050565b6000616e22616e1d616e188461531a565b6156e3565b61531a565b9050919050565b6000819050919050565b616e3c83616e07565b616e50616e4882616e29565b848454616db5565b825550505050565b600090565b616e65616e58565b616e70818484616e33565b505050565b5b81811015616e9457616e89600082616e5d565b600181019050616e76565b5050565b601f821115616ed957616eaa81616d83565b616eb384616d98565b81016020851015616ec2578190505b616ed6616ece85616d98565b830182616e75565b50505b505050565b600082821c905092915050565b6000616efc60001984600802616ede565b1980831691505092915050565b6000616f158383616eeb565b9150826002028217905092915050565b616f2e826155ab565b67ffffffffffffffff811115616f4757616f46615408565b5b616f518254616a19565b616f5c828285616e98565b600060209050601f831160018114616f8f5760008415616f7d578287015190505b616f878582616f09565b865550616fef565b601f198416616f9d86616d83565b60005b82811015616fc557848901518255600182019150602085019450602081019050616fa0565b86831015616fe25784890151616fde601f891682616eeb565b8355505b6001600288020188555050505b505050505050565b6000819050919050565b600061701c61701761701284616ff7565b6156e3565b6160ce565b9050919050565b61702c81617001565b82525050565b60006020820190506170476000830184617023565b92915050565b60006020828403121561706357617062615358565b5b6000617071848285016167dd565b91505092915050565b60006170858261531a565b91506170908361531a565b92508282019050808211156170a8576170a7616cb2565b5b92915050565b7f536f75726365206d75737420626520746865206f7261636c65206f662074686560008201527f2072657175657374000000000000000000000000000000000000000000000000602082015250565b600061710a6028836155b6565b9150617115826170ae565b604082019050919050565b60006020820190508181036000830152617139816170fd565b9050919050565b7f546f6b656e732061727261792063616e6e6f7420626520656d70747900000000600082015250565b6000617176601c836155b6565b915061718182617140565b602082019050919050565b600060208201905081810360008301526171a581617169565b9050919050565b7f4d61726b657420736861726573206172726179206c656e677468206d7573742060008201527f6d6174636820746f6b656e73206172726179206c656e67746800000000000000602082015250565b60006172086039836155b6565b9150617213826171ac565b604082019050919050565b60006020820190508181036000830152617237816171fb565b9050919050565b7f537761702066656573206172726179206c656e677468206d757374206d61746360008201527f6820746f6b656e73206172726179206c656e6774680000000000000000000000602082015250565b600061729a6035836155b6565b91506172a58261723e565b604082019050919050565b600060208201905081810360008301526172c98161728d565b9050919050565b7f436861696e2073656c6563746f7273206172726179206c656e677468206d757360008201527f74206d6174636820746f6b656e73206172726179206c656e6774680000000000602082015250565b600061732c603b836155b6565b9150617337826172d0565b604082019050919050565b6000602082019050818103600083015261735b8161731f565b9050919050565b7f50726f706f7361626c654f776e61626c653a206e6577206f776e65722069732060008201527f746865207a65726f206164647265737300000000000000000000000000000000602082015250565b60006173be6030836155b6565b91506173c982617362565b604082019050919050565b600060208201905081810360008301526173ed816173b1565b9050919050565b7f4e487b7100000000000000000000000000000000000000000000000000000000600052603260045260246000fd5b60006040820190506174386000830185615324565b818103602083015261744a8184615a15565b90509392505050565b600061746661746184615d82565b615468565b9050808382526020820190506020840283018581111561748957617488615ce6565b5b835b818110156174b2578061749e88826167dd565b84526020840193505060208101905061748b565b5050509392505050565b600082601f8301126174d1576174d06153ed565b5b81516174e1848260208601617453565b91505092915050565b600060208284031215617500576174ff615358565b5b600082015167ffffffffffffffff81111561751e5761751d61535d565b5b61752a848285016174bc565b91505092915050565b61753c816165bc565b82525050565b600060a08201905061755760008301886156b9565b61756460208301876156b9565b61757160408301866156b9565b61757e6060830185617533565b61758b6080830184615925565b9695505050505050565b7f50726f706f7361626c654f776e61626c653a206e6577206f776e65722069732060008201527f6e6f742070726f706f736564206f776e65720000000000000000000000000000602082015250565b60006175f16032836155b6565b91506175fc82617595565b604082019050919050565b60006020820190508181036000830152617620816175e4565b9050919050565b7f50726f706f7361626c654f776e61626c653a20746869732063616c6c206d757360008201527f74206265206d61646520627920746865206e6577206f776e6572000000000000602082015250565b6000617683603a836155b6565b915061768e82617627565b604082019050919050565b600060208201905081810360008301526176b281617676565b9050919050565b7f4f776e61626c653a2063616c6c6572206973206e6f7420746865206f776e6572600082015250565b60006176ef6020836155b6565b91506176fa826176b9565b602082019050919050565b6000602082019050818103600083015261771e816176e2565b9050919050565b6000617730826160ce565b915061773b836160ce565b9250828203905060ff81111561775457617753616cb2565b5b92915050565b60008160011c9050919050565b6000808291508390505b60018511156177b15780860481111561778d5761778c616cb2565b5b600185161561779c5780820291505b80810290506177aa8561775a565b9450617771565b94509492505050565b6000826177ca5760019050617886565b816177d85760009050617886565b81600181146177ee57600281146177f857617827565b6001915050617886565b60ff84111561780a57617809616cb2565b5b8360020a91508482111561782157617820616cb2565b5b50617886565b5060208310610133831016604e8410600b841016171561785c5782820a90508381111561785757617856616cb2565b5b617886565b6178698484846001617767565b925090508184048111156178805761787f616cb2565b5b81810290505b9392505050565b60006178988261531a565b91506178a3836160ce565b92506178d07fffffffffffffffffffffffffffffffffffffffffffffffffffffffffffffffff84846177ba565b905092915050565b60006178e3826167a7565b91506178ee836167a7565b92508282026178fc816167a7565b91507f8000000000000000000000000000000000000000000000000000000000000000841460008412161561793457617933616cb2565b5b828205841483151761794957617948616cb2565b5b5092915050565b60007fffffffff0000000000000000000000000000000000000000000000000000000082169050919050565b61798581617950565b82525050565b600082825260208201905092915050565b60006179a7826166fa565b6179b1818561798b565b93506179c18185602086016155c7565b6179ca816153f7565b840191505092915050565b6000610100820190506179eb600083018b6156b9565b6179f8602083018a615324565b617a056040830189615c90565b617a1260608301886156b9565b617a1f608083018761797c565b617a2c60a0830186615324565b617a3960c0830185615324565b81810360e0830152617a4b818461799c565b90509998505050505050505050565b7f496e697469616c697a61626c653a20636f6e7472616374206973206e6f74206960008201527f6e697469616c697a696e67000000000000000000000000000000000000000000602082015250565b6000617ab6602b836155b6565b9150617ac182617a5a565b604082019050919050565b60006020820190508181036000830152617ae581617aa9565b9050919050565b6000617af78261570f565b9050919050565b60008160601b9050919050565b6000617b1682617afe565b9050919050565b6000617b2882617b0b565b9050919050565b617b40617b3b82617aec565b617b1d565b82525050565b6000819050919050565b617b61617b5c8261531a565b617b46565b82525050565b6000617b738285617b2f565b601482019150617b838284617b50565b6020820191508190509392505050565b6000606082019050617ba860008301866156b9565b617bb56020830185615324565b8181036040830152617bc7818461799c565b9050949350505050565b60008115159050919050565b617be681617bd1565b8114617bf157600080fd5b50565b600081519050617c0381617bdd565b92915050565b600060208284031215617c1f57617c1e615358565b5b6000617c2d84828501617bf4565b91505092915050565b7f756e61626c6520746f207472616e73666572416e6443616c6c20746f206f726160008201527f636c650000000000000000000000000000000000000000000000000000000000602082015250565b6000617c926023836155b6565b9150617c9d82617c36565b604082019050919050565b60006020820190508181036000830152617cc181617c85565b9050919050565b6000617cd38261531a565b9150617cde8361531a565b925082617cee57617ced616d23565b5b828206905092915050565b6000617d048261531a565b9150617d0f8361531a565b9250828203905081811115617d2757617d26616cb2565b5b92915050565b6000617d388261531a565b9150617d438361531a565b9250617d707fffffffffffffffffffffffffffffffffffffffffffffffffffffffffffffffff84846177ba565b90509291505056fe68747470733a2f2f6170702e6e65786c6162732e696f2f6170692f616c6c46756e64696e6752617465733f6d756c7469706c7946756e633d31382674696d65734e656746756e643d74727565266172726179733d74727565a2646970667358221220a7e382a8eac5fcf5af351e2d54a80d1f2aa0264c54c68a3a66b7d6651c5c494d64736f6c634300081a0033","linkReferences":{}},"methodIdentifiers":{"allCurrentChainSelectorTokenShares(uint64)":"af696b34","allCurrentChainSelectorTokens(uint64)":"d1c68aa3","allCurrentChainSelectorVersions(uint64)":"221f3371","allOracleChainSelectorTokenShares(uint64)":"bf0d49c0","allOracleChainSelectorTokens(uint64)":"d050ca7c","allOracleChainSelectorVersions(uint64)":"a1adff88","concatenation(string,string)":"0e329357","crossChainFactoryBySelector(uint64)":"340fbc74","crossChainToken(uint64)":"19da7e2a","crossChainTokenSwapFee(uint64,address)":"652354ae","currentChainSelector()":"3d54cb6f","currentChainSelectorTokensCount(uint64)":"b6ad185b","currentChainSelectorsCount()":"69487b1c","currentFilledCount()":"b90b8a2a","currentList(uint256)":"9932ba4c","estimateAmountOut(address,address,uint128,uint24)":"ee7bd3e2","externalJobId()":"a8b54bd4","factoryV2()":"68e0d4e1","factoryV3()":"1d5f45f5","feeRate()":"978bbdb9","fulfillAssetsData(bytes32,address[],uint256[],uint24[],uint64[])":"b2c44b3f","getAmountOut(address,address,uint256,uint24)":"dd811ac9","getCurrentChainSelectorTotalShares(uint256,uint64)":"2a3ff8ad","getCurrentData(uint256)":"d3f7f266","getOracleChainSelectorTotalShares(uint256,uint64)":"1dce3de8","getOracleData(uint256)":"536e3f6a","getPortfolioBalance()":"a8509fd8","indexFactory()":"e3fd0af2","indexFactoryBalancer()":"29d75de9","indexToken()":"e7d015f2","initialize(uint64,address,address,address,bytes32,address,address,address,address,address,address)":"9ebe560e","lastUpdateTime()":"c8f33c91","latestFeeUpdate()":"011ced5f","mockFillAssetsList(address[],uint256[],uint24[],uint64[])":"8bb8f1bb","mockUpdateCurrentList()":"4f9641b9","oracleChainSelectorTokensCount(uint64)":"fc698b4a","oracleChainSelectorsCount()":"8e9d7c18","oracleFilledCount()":"f1581787","oracleList(uint256)":"239aad0d","oraclePayment()":"0c02e130","owner()":"8da5cb5b","priceInWei()":"3c8da588","priceOracle()":"2630c12f","proposeOwner(address)":"b5ed298a","proposedOwner()":"d153b60c","quoter()":"c6bbd5a7","renounceOwnership()":"715018a6","requestAssetsData()":"7ca58c55","setCrossChainFactory(address,uint64)":"271040df","setCrossChainToken(uint64,address,uint24)":"f0cd5b72","setIndexFactory(address)":"d047937f","setIndexFactoryBalancer(address)":"ae214f39","setPriceFeed(address)":"724e78da","setPriceOracle(address)":"530e784f","setUrl(string,string)":"a73e1cbf","setVault(address)":"6817031b","swapRouterV2()":"744fbc7a","swapRouterV3()":"b631e80b","toUsdPriceFeed()":"63973fda","tokenChainSelector(address)":"ea8ecf04","tokenCurrentListIndex(address)":"914f0cc6","tokenCurrentMarketShare(address)":"0be52713","tokenOracleListIndex(address)":"8c88c10c","tokenOracleMarketShare(address)":"4b3e0b80","tokenSwapFee(address)":"32599665","totalCurrentChainSelectors()":"92e410ce","totalCurrentList()":"53fd4332","totalOracleChainSelectors()":"80acffa3","totalOracleList()":"c8599ded","transferOwnership(address)":"f2fde38b","updateCurrentList()":"8baa6bf1","vault()":"fbfa77cf","weth()":"3fc8cef3"},"id":5}