{"abi":[{"type":"function","name":"allCurrentChainSelectorTokenShares","inputs":[{"name":"_chainSelector","type":"uint64","internalType":"uint64"}],"outputs":[{"name":"","type":"uint256[]","internalType":"uint256[]"}],"stateMutability":"view"},{"type":"function","name":"allCurrentChainSelectorTokens","inputs":[{"name":"_chainSelector","type":"uint64","internalType":"uint64"}],"outputs":[{"name":"tokens","type":"address[]","internalType":"address[]"}],"stateMutability":"view"},{"type":"function","name":"allCurrentChainSelectorVersions","inputs":[{"name":"_chainSelector","type":"uint64","internalType":"uint64"}],"outputs":[{"name":"versions","type":"uint256[]","internalType":"uint256[]"}],"stateMutability":"view"},{"type":"function","name":"allOracleChainSelectorTokenShares","inputs":[{"name":"_chainSelector","type":"uint64","internalType":"uint64"}],"outputs":[{"name":"","type":"uint256[]","internalType":"uint256[]"}],"stateMutability":"view"},{"type":"function","name":"allOracleChainSelectorTokens","inputs":[{"name":"_chainSelector","type":"uint64","internalType":"uint64"}],"outputs":[{"name":"tokens","type":"address[]","internalType":"address[]"}],"stateMutability":"view"},{"type":"function","name":"allOracleChainSelectorVersions","inputs":[{"name":"_chainSelector","type":"uint64","internalType":"uint64"}],"outputs":[{"name":"versions","type":"uint256[]","internalType":"uint256[]"}],"stateMutability":"view"},{"type":"function","name":"concatenation","inputs":[{"name":"a","type":"string","internalType":"string"},{"name":"b","type":"string","internalType":"string"}],"outputs":[{"name":"","type":"string","internalType":"string"}],"stateMutability":"pure"},{"type":"function","name":"crossChainFactoryBySelector","inputs":[{"name":"","type":"uint64","internalType":"uint64"}],"outputs":[{"name":"","type":"address","internalType":"address"}],"stateMutability":"view"},{"type":"function","name":"crossChainToken","inputs":[{"name":"","type":"uint64","internalType":"uint64"}],"outputs":[{"name":"","type":"address","internalType":"address"}],"stateMutability":"view"},{"type":"function","name":"crossChainTokenSwapFee","inputs":[{"name":"","type":"uint64","internalType":"uint64"},{"name":"","type":"address","internalType":"address"}],"outputs":[{"name":"","type":"uint24","internalType":"uint24"}],"stateMutability":"view"},{"type":"function","name":"currentChainSelector","inputs":[],"outputs":[{"name":"","type":"uint64","internalType":"uint64"}],"stateMutability":"view"},{"type":"function","name":"currentChainSelectorTokensCount","inputs":[{"name":"_chainSelector","type":"uint64","internalType":"uint64"}],"outputs":[{"name":"","type":"uint256","internalType":"uint256"}],"stateMutability":"view"},{"type":"function","name":"currentChainSelectorsCount","inputs":[],"outputs":[{"name":"","type":"uint256","internalType":"uint256"}],"stateMutability":"view"},{"type":"function","name":"currentFilledCount","inputs":[],"outputs":[{"name":"","type":"uint256","internalType":"uint256"}],"stateMutability":"view"},{"type":"function","name":"currentList","inputs":[{"name":"","type":"uint256","internalType":"uint256"}],"outputs":[{"name":"","type":"address","internalType":"address"}],"stateMutability":"view"},{"type":"function","name":"estimateAmountOut","inputs":[{"name":"tokenIn","type":"address","internalType":"address"},{"name":"tokenOut","type":"address","internalType":"address"},{"name":"amountIn","type":"uint128","internalType":"uint128"},{"name":"fee","type":"uint24","internalType":"uint24"}],"outputs":[{"name":"amountOut","type":"uint256","internalType":"uint256"}],"stateMutability":"view"},{"type":"function","name":"externalJobId","inputs":[],"outputs":[{"name":"","type":"bytes32","internalType":"bytes32"}],"stateMutability":"view"},{"type":"function","name":"factoryV2","inputs":[],"outputs":[{"name":"","type":"address","internalType":"contract IUniswapV2Factory"}],"stateMutability":"view"},{"type":"function","name":"factoryV3","inputs":[],"outputs":[{"name":"","type":"address","internalType":"contract IUniswapV3Factory"}],"stateMutability":"view"},{"type":"function","name":"feeRate","inputs":[],"outputs":[{"name":"","type":"uint8","internalType":"uint8"}],"stateMutability":"view"},{"type":"function","name":"fulfillAssetsData","inputs":[{"name":"requestId","type":"bytes32","internalType":"bytes32"},{"name":"_tokens","type":"address[]","internalType":"address[]"},{"name":"_marketShares","type":"uint256[]","internalType":"uint256[]"},{"name":"_swapFees","type":"uint24[]","internalType":"uint24[]"},{"name":"_chainSelectors","type":"uint64[]","internalType":"uint64[]"}],"outputs":[],"stateMutability":"nonpayable"},{"type":"function","name":"getAmountOut","inputs":[{"name":"tokenIn","type":"address","internalType":"address"},{"name":"tokenOut","type":"address","internalType":"address"},{"name":"amountIn","type":"uint256","internalType":"uint256"},{"name":"_swapFee","type":"uint24","internalType":"uint24"}],"outputs":[{"name":"finalAmountOutValue","type":"uint256","internalType":"uint256"}],"stateMutability":"view"},{"type":"function","name":"getCurrentChainSelectorTotalShares","inputs":[{"name":"index","type":"uint256","internalType":"uint256"},{"name":"chainSelector","type":"uint64","internalType":"uint64"}],"outputs":[{"name":"","type":"uint256","internalType":"uint256"}],"stateMutability":"view"},{"type":"function","name":"getCurrentData","inputs":[{"name":"index","type":"uint256","internalType":"uint256"}],"outputs":[{"name":"tokens","type":"address[]","internalType":"address[]"},{"name":"marketShares","type":"uint256[]","internalType":"uint256[]"},{"name":"swapFees","type":"uint24[]","internalType":"uint24[]"},{"name":"chainSelectors","type":"uint64[]","internalType":"uint64[]"}],"stateMutability":"view"},{"type":"function","name":"getOracleData","inputs":[{"name":"index","type":"uint256","internalType":"uint256"}],"outputs":[{"name":"tokens","type":"address[]","internalType":"address[]"},{"name":"marketShares","type":"uint256[]","internalType":"uint256[]"},{"name":"swapFees","type":"uint256[]","internalType":"uint256[]"},{"name":"chainSelectors","type":"uint64[]","internalType":"uint64[]"}],"stateMutability":"view"},{"type":"function","name":"getPendingRequest","inputs":[{"name":"requestId","type":"bytes32","internalType":"bytes32"}],"outputs":[{"name":"","type":"address","internalType":"address"}],"stateMutability":"view"},{"type":"function","name":"getPortfolioBalance","inputs":[],"outputs":[{"name":"","type":"uint256","internalType":"uint256"}],"stateMutability":"view"},{"type":"function","name":"indexFactory","inputs":[],"outputs":[{"name":"","type":"address","internalType":"address"}],"stateMutability":"view"},{"type":"function","name":"indexFactoryBalancer","inputs":[],"outputs":[{"name":"","type":"address","internalType":"address"}],"stateMutability":"view"},{"type":"function","name":"indexToken","inputs":[],"outputs":[{"name":"","type":"address","internalType":"contract IndexToken"}],"stateMutability":"view"},{"type":"function","name":"initialize","inputs":[{"name":"_currentChainSelector","type":"uint64","internalType":"uint64"},{"name":"_token","type":"address","internalType":"address payable"},{"name":"_chainlinkToken","type":"address","internalType":"address"},{"name":"_oracleAddress","type":"address","internalType":"address"},{"name":"_externalJobId","type":"bytes32","internalType":"bytes32"},{"name":"_toUsdPriceFeed","type":"address","internalType":"address"},{"name":"_weth","type":"address","internalType":"address"},{"name":"_swapRouterV3","type":"address","internalType":"address"},{"name":"_factoryV3","type":"address","internalType":"address"},{"name":"_swapRouterV2","type":"address","internalType":"address"},{"name":"_factoryV2","type":"address","internalType":"address"}],"outputs":[],"stateMutability":"nonpayable"},{"type":"function","name":"lastUpdateTime","inputs":[],"outputs":[{"name":"","type":"uint256","internalType":"uint256"}],"stateMutability":"view"},{"type":"function","name":"latestFeeUpdate","inputs":[],"outputs":[{"name":"","type":"uint256","internalType":"uint256"}],"stateMutability":"view"},{"type":"function","name":"mockFillAssetsList","inputs":[{"name":"_tokens","type":"address[]","internalType":"address[]"},{"name":"_marketShares","type":"uint256[]","internalType":"uint256[]"},{"name":"_swapFees","type":"uint24[]","internalType":"uint24[]"},{"name":"_chainSelectors","type":"uint64[]","internalType":"uint64[]"}],"outputs":[],"stateMutability":"nonpayable"},{"type":"function","name":"mockUpdateCurrentList","inputs":[],"outputs":[],"stateMutability":"nonpayable"},{"type":"function","name":"oracleChainSelectorTokensCount","inputs":[{"name":"_chainSelector","type":"uint64","internalType":"uint64"}],"outputs":[{"name":"","type":"uint256","internalType":"uint256"}],"stateMutability":"view"},{"type":"function","name":"oracleChainSelectorsCount","inputs":[],"outputs":[{"name":"","type":"uint256","internalType":"uint256"}],"stateMutability":"view"},{"type":"function","name":"oracleFilledCount","inputs":[],"outputs":[{"name":"","type":"uint256","internalType":"uint256"}],"stateMutability":"view"},{"type":"function","name":"oracleList","inputs":[{"name":"","type":"uint256","internalType":"uint256"}],"outputs":[{"name":"","type":"address","internalType":"address"}],"stateMutability":"view"},{"type":"function","name":"oraclePayment","inputs":[],"outputs":[{"name":"","type":"uint256","internalType":"uint256"}],"stateMutability":"view"},{"type":"function","name":"owner","inputs":[],"outputs":[{"name":"","type":"address","internalType":"address"}],"stateMutability":"view"},{"type":"function","name":"priceInWei","inputs":[],"outputs":[{"name":"","type":"uint256","internalType":"uint256"}],"stateMutability":"view"},{"type":"function","name":"priceOracle","inputs":[],"outputs":[{"name":"","type":"address","internalType":"address"}],"stateMutability":"view"},{"type":"function","name":"proposeOwner","inputs":[{"name":"_proposedOwner","type":"address","internalType":"address"}],"outputs":[],"stateMutability":"nonpayable"},{"type":"function","name":"proposedOwner","inputs":[],"outputs":[{"name":"","type":"address","internalType":"address"}],"stateMutability":"view"},{"type":"function","name":"quoter","inputs":[],"outputs":[{"name":"","type":"address","internalType":"contract IQuoter"}],"stateMutability":"view"},{"type":"function","name":"renounceOwnership","inputs":[],"outputs":[],"stateMutability":"nonpayable"},{"type":"function","name":"requestAssetsData","inputs":[],"outputs":[{"name":"","type":"bytes32","internalType":"bytes32"}],"stateMutability":"nonpayable"},{"type":"function","name":"setCrossChainFactory","inputs":[{"name":"_crossChainFactoryAddress","type":"address","internalType":"address"},{"name":"_chainSelector","type":"uint64","internalType":"uint64"}],"outputs":[],"stateMutability":"nonpayable"},{"type":"function","name":"setCrossChainToken","inputs":[{"name":"_chainSelector","type":"uint64","internalType":"uint64"},{"name":"_crossChainToken","type":"address","internalType":"address"},{"name":"_swapFee","type":"uint24","internalType":"uint24"}],"outputs":[],"stateMutability":"nonpayable"},{"type":"function","name":"setIndexFactory","inputs":[{"name":"_indexFactory","type":"address","internalType":"address"}],"outputs":[],"stateMutability":"nonpayable"},{"type":"function","name":"setIndexFactoryBalancer","inputs":[{"name":"_indexFactoryBalancer","type":"address","internalType":"address"}],"outputs":[],"stateMutability":"nonpayable"},{"type":"function","name":"setPriceFeed","inputs":[{"name":"_toUsdPricefeed","type":"address","internalType":"address"}],"outputs":[],"stateMutability":"nonpayable"},{"type":"function","name":"setPriceOracle","inputs":[{"name":"_priceOracle","type":"address","internalType":"address"}],"outputs":[],"stateMutability":"nonpayable"},{"type":"function","name":"setUrl","inputs":[{"name":"_beforeAddress","type":"string","internalType":"string"},{"name":"_afterAddress","type":"string","internalType":"string"}],"outputs":[],"stateMutability":"nonpayable"},{"type":"function","name":"setVault","inputs":[{"name":"_vaultAddress","type":"address","internalType":"address"}],"outputs":[],"stateMutability":"nonpayable"},{"type":"function","name":"swapRouterV2","inputs":[],"outputs":[{"name":"","type":"address","internalType":"contract IUniswapV2Router02"}],"stateMutability":"view"},{"type":"function","name":"swapRouterV3","inputs":[],"outputs":[{"name":"","type":"address","internalType":"contract ISwapRouter"}],"stateMutability":"view"},{"type":"function","name":"toUsdPriceFeed","inputs":[],"outputs":[{"name":"","type":"address","internalType":"contract AggregatorV3Interface"}],"stateMutability":"view"},{"type":"function","name":"tokenChainSelector","inputs":[{"name":"","type":"address","internalType":"address"}],"outputs":[{"name":"","type":"uint64","internalType":"uint64"}],"stateMutability":"view"},{"type":"function","name":"tokenCurrentListIndex","inputs":[{"name":"","type":"address","internalType":"address"}],"outputs":[{"name":"","type":"uint256","internalType":"uint256"}],"stateMutability":"view"},{"type":"function","name":"tokenCurrentMarketShare","inputs":[{"name":"","type":"address","internalType":"address"}],"outputs":[{"name":"","type":"uint256","internalType":"uint256"}],"stateMutability":"view"},{"type":"function","name":"tokenOracleListIndex","inputs":[{"name":"","type":"address","internalType":"address"}],"outputs":[{"name":"","type":"uint256","internalType":"uint256"}],"stateMutability":"view"},{"type":"function","name":"tokenOracleMarketShare","inputs":[{"name":"","type":"address","internalType":"address"}],"outputs":[{"name":"","type":"uint256","internalType":"uint256"}],"stateMutability":"view"},{"type":"function","name":"tokenSwapFee","inputs":[{"name":"","type":"address","internalType":"address"}],"outputs":[{"name":"","type":"uint24","internalType":"uint24"}],"stateMutability":"view"},{"type":"function","name":"totalCurrentChainSelectors","inputs":[],"outputs":[{"name":"","type":"uint256","internalType":"uint256"}],"stateMutability":"view"},{"type":"function","name":"totalCurrentList","inputs":[],"outputs":[{"name":"","type":"uint256","internalType":"uint256"}],"stateMutability":"view"},{"type":"function","name":"totalOracleChainSelectors","inputs":[],"outputs":[{"name":"","type":"uint256","internalType":"uint256"}],"stateMutability":"view"},{"type":"function","name":"totalOracleList","inputs":[],"outputs":[{"name":"","type":"uint256","internalType":"uint256"}],"stateMutability":"view"},{"type":"function","name":"transferOwnership","inputs":[{"name":"newOwner","type":"address","internalType":"address"}],"outputs":[],"stateMutability":"nonpayable"},{"type":"function","name":"updateCurrentList","inputs":[],"outputs":[],"stateMutability":"nonpayable"},{"type":"function","name":"vault","inputs":[],"outputs":[{"name":"","type":"address","internalType":"contract Vault"}],"stateMutability":"view"},{"type":"function","name":"weth","inputs":[],"outputs":[{"name":"","type":"address","internalType":"contract IWETH"}],"stateMutability":"view"},{"type":"event","name":"ChainlinkCancelled","inputs":[{"name":"id","type":"bytes32","indexed":true,"internalType":"bytes32"}],"anonymous":false},{"type":"event","name":"ChainlinkFulfilled","inputs":[{"name":"id","type":"bytes32","indexed":true,"internalType":"bytes32"}],"anonymous":false},{"type":"event","name":"ChainlinkRequested","inputs":[{"name":"id","type":"bytes32","indexed":true,"internalType":"bytes32"}],"anonymous":false},{"type":"event","name":"Initialized","inputs":[{"name":"version","type":"uint8","indexed":false,"internalType":"uint8"}],"anonymous":false},{"type":"event","name":"OwnershipTransferred","inputs":[{"name":"previousOwner","type":"address","indexed":true,"internalType":"address"},{"name":"newOwner","type":"address","indexed":true,"internalType":"address"}],"anonymous":false}],"bytecode":{"object":"0x6080604052348015600e575f80fd5b506143698061001c5f395ff3fe608060405234801561000f575f80fd5b5060043610610422575f3560e01c80638da5cb5b1161022c578063bf0d49c011610135578063dd811ac9116100bf578063f0cd5b7211610084578063f0cd5b7214610a7b578063f158178714610a8e578063f2fde38b14610a97578063fbfa77cf14610aaa578063fc698b4a14610abd575f80fd5b8063dd811ac914610a07578063e3fd0af214610a1a578063e7d015f214610a2d578063ea8ecf0414610a40578063ee7bd3e214610a68575f80fd5b8063d047937f11610105578063d047937f1461098b578063d050ca7c1461099e578063d153b60c146109be578063d1c68aa3146109d1578063d3f7f266146109e4575f80fd5b8063bf0d49c014610953578063c6bbd5a714610966578063c8599ded14610979578063c8f33c9114610982575f80fd5b8063a8509fd8116101b6578063b2c44b3f11610186578063b2c44b3f146108d7578063b5ed298a146108ea578063b631e80b146108fd578063b6ad185b14610910578063b90b8a2a1461094a575f80fd5b8063a8509fd8146108a0578063a8b54bd4146108a8578063ae214f39146108b1578063af696b34146108c4575f80fd5b8063978bbdb9116101fc578063978bbdb9146108205780639932ba4c1461083f5780639ebe560e14610867578063a1adff881461087a578063a73e1cbf1461088d575f80fd5b80638da5cb5b146107ce5780638e9d7c18146107df578063914f0cc6146107f857806392e410ce14610817575f80fd5b80634f9641b91161032e578063715018a6116102b857806380acffa31161028857806380acffa31461076357806388b12d551461076c5780638baa6bf1146107945780638bb8f1bb1461079c5780638c88c10c146107af575f80fd5b8063715018a61461072d578063724e78da14610735578063744fbc7a146107485780637ca58c551461075b575f80fd5b806363973fda116102fe57806363973fda146106ac578063652354ae146106bf5780636817031b146106ee57806368e0d4e11461070157806369487b1c14610714575f80fd5b80634f9641b914610665578063530e784f1461066d578063536e3f6a1461068057806353fd4332146106a3575f80fd5b8063271040df116103af578063340fbc741161037f578063340fbc74146105d85780633c8da588146106005780633d54cb6f146106085780633fc8cef3146106335780634b3e0b8014610646575f80fd5b8063271040df1461053f57806329d75de9146105545780632a3ff8ad1461056757806332599665146105a0575f80fd5b806319da7e2a116103f557806319da7e2a1461048a5780631d5f45f5146104ca578063221f3371146104dd578063239aad0d146104fd5780632630c12f14610525575f80fd5b8063011ced5f146104265780630be52713146104425780630c02e130146104615780630e3293571461046a575b5f80fd5b61042f60a45481565b6040519081526020015b60405180910390f35b61042f61045036600461344e565b60b46020525f908152604090205481565b61042f60a95481565b61047d610478366004613518565b610af7565b60405161043991906135a9565b6104b26104983660046135d1565b60a06020525f90815260409020546001600160a01b031681565b6040516001600160a01b039091168152602001610439565b60bd546104b2906001600160a01b031681565b6104f06104eb3660046135d1565b610b24565b604051610439919061361a565b6104b261050b36600461362c565b60b06020525f90815260409020546001600160a01b031681565b60a5546104b290600160401b90046001600160a01b031681565b61055261054d366004613643565b610b9a565b005b609f546104b2906001600160a01b031681565b61042f610575366004613676565b5f82815260bb602090815260408083206001600160401b038516845260080190915290205492915050565b6105c46105ae36600461344e565b60b66020525f908152604090205462ffffff1681565b60405162ffffff9091168152602001610439565b6104b26105e63660046135d1565b60a26020525f90815260409020546001600160a01b031681565b61042f610bd8565b60a55461061b906001600160401b031681565b6040516001600160401b039091168152602001610439565b60c0546104b2906001600160a01b031681565b61042f61065436600461344e565b60b56020525f908152604090205481565b610552610cde565b61055261067b36600461344e565b610cf0565b61069361068e36600461362c565b610d98565b6040516104399493929190613709565b61042f60ad5481565b60aa546104b2906001600160a01b031681565b6105c46106cd366004613760565b60a160209081525f928352604080842090915290825290205462ffffff1681565b6105526106fc36600461344e565b610f4c565b60bf546104b2906001600160a01b031681565b60b9545f90815260bb602052604090206003015461042f565b610552610f76565b61055261074336600461344e565b610f87565b60be546104b2906001600160a01b031681565b61042f61101e565b61042f60ae5481565b6104b261077a36600461362c565b5f908152600560205260409020546001600160a01b031690565b61055261130e565b6105526107aa36600461395b565b61137f565b61042f6107bd36600461344e565b60b26020525f908152604090205481565b6038546001600160a01b03166104b2565b60b8545f90815260ba602052604090206003015461042f565b61042f61080636600461344e565b60b36020525f908152604090205481565b61042f60af5481565b60a35461082d9060ff1681565b60405160ff9091168152602001610439565b6104b261084d36600461362c565b60b16020525f90815260409020546001600160a01b031681565b610552610875366004613a10565b611399565b6104f06108883660046135d1565b611602565b61055261089b366004613518565b611676565b61042f61169c565b61042f60a85481565b6105526108bf36600461344e565b61177c565b6104f06108d23660046135d1565b6117a6565b6105526108e5366004613adc565b61181a565b6105526108f836600461344e565b6118e8565b60bc546104b2906001600160a01b031681565b61042f61091e3660046135d1565b60b9545f90815260bb602090815260408083206001600160401b03909416835260059093019052205490565b61042f60b95481565b6104f06109613660046135d1565b611938565b60c1546104b2906001600160a01b031681565b61042f60ac5481565b61042f60ab5481565b61055261099936600461344e565b6119ac565b6109b16109ac3660046135d1565b6119d6565b6040516104399190613b9a565b606a546104b2906001600160a01b031681565b6109b16109df3660046135d1565b611a55565b6109f76109f236600461362c565b611ad3565b6040516104399493929190613bac565b61042f610a15366004613c2d565b611c87565b609e546104b2906001600160a01b031681565b609d546104b2906001600160a01b031681565b61061b610a4e36600461344e565b60b76020525f90815260409020546001600160401b031681565b61042f610a76366004613c7b565b611dc3565b610552610a89366004613cd2565b611e65565b61042f60b85481565b610552610aa536600461344e565b611ecb565b60c2546104b2906001600160a01b031681565b61042f610acb3660046135d1565b60b8545f90815260ba602090815260408083206001600160401b03909416835260059093019052205490565b60608282604051602001610b0c929190613d2b565b60405160208183030381529060405290505b92915050565b60b9545f90815260bb602090815260408083206001600160401b0385168452600601825291829020805483518184028101840190945280845260609392830182828015610b8e57602002820191905f5260205f20905b815481526020019060010190808311610b7a575b50505050509050919050565b610ba2611ff3565b6001600160401b03165f90815260a26020526040902080546001600160a01b0319166001600160a01b0392909216919091179055565b5f8060aa5f9054906101000a90046001600160a01b03166001600160a01b031663feaf968c6040518163ffffffff1660e01b815260040160a060405180830381865afa158015610c2a573d5f803e3d5ffd5b505050506040513d601f19601f82011682018060405250810190610c4e9190613d58565b5050509150505f60aa5f9054906101000a90046001600160a01b03166001600160a01b031663313ce5676040518163ffffffff1660e01b8152600401602060405180830381865afa158015610ca5573d5f803e3d5ffd5b505050506040513d601f19601f82011682018060405250810190610cc99190613da6565b9050610cd78282601261204d565b9392505050565b610ce6611ff3565b610cee61208c565b565b610cf8611ff3565b6001600160a01b038116610d675760405162461bcd60e51b815260206004820152602b60248201527f5072696365206f7261636c6520616464726573732063616e6e6f74206265207a60448201526a65726f206164647265737360a81b60648201526084015b60405180910390fd5b60a580546001600160a01b03909216600160401b0268010000000000000000600160e01b0319909216919091179055565b6060806060805f60ba5f8781526020019081526020015f209050805f0181600101826002018360030183805480602002602001604051908101604052809291908181526020018280548015610e1457602002820191905f5260205f20905b81546001600160a01b03168152600190910190602001808311610df6575b5050505050935082805480602002602001604051908101604052809291908181526020018280548015610e6457602002820191905f5260205f20905b815481526020019060010190808311610e50575b5050505050925081805480602002602001604051908101604052809291908181526020018280548015610eb457602002820191905f5260205f20905b815481526020019060010190808311610ea0575b5050505050915080805480602002602001604051908101604052809291908181526020018280548015610f3557602002820191905f5260205f20905f905b82829054906101000a90046001600160401b03166001600160401b031681526020019060080190602082600701049283019260010382029150808411610ef25790505b505050505090509450945094509450509193509193565b610f54611ff3565b60c280546001600160a01b0319166001600160a01b0392909216919091179055565b610f7e611ff3565b610cee5f612309565b610f8f611ff3565b6001600160a01b038116610ffc5760405162461bcd60e51b815260206004820152602e60248201527f49434f3a205072696365206665656420616464726573732063616e6e6f74206260448201526d65207a65726f206164647265737360901b6064820152608401610d5e565b60aa80546001600160a01b0319166001600160a01b0392909216919091179055565b5f8061113a60a6805461103090613dc6565b80601f016020809104026020016040519081016040528092919081815260200182805461105c90613dc6565b80156110a75780601f1061107e576101008083540402835291602001916110a7565b820191905f5260205f20905b81548152906001019060200180831161108a57829003601f168201915b505050505060a780546110b990613dc6565b80601f01602080910402602001604051908101604052809291908181526020018280546110e590613dc6565b80156111305780601f1061110757610100808354040283529160200191611130565b820191905f5260205f20905b81548152906001019060200180831161111357829003601f168201915b5050505050610af7565b90505f61115160a8543063b2c44b3f60e01b61235a565b60408051808201909152600381526219d95d60ea1b602082015290915061117a90829084612376565b6111d260405180604001604052806005815260200164706174683160d81b8152506040518060400160405280600e81526020016d726573756c74732c746f6b656e7360901b815250836123769092919063ffffffff16565b611230604051806040016040528060058152602001643830ba341960d91b81525060405180604001604052806014815260200173726573756c74732c6d61726b657453686172657360601b815250836123769092919063ffffffff16565b61128a60405180604001604052806005815260200164706174683360d81b8152506040518060400160405280601081526020016f726573756c74732c737761704665657360801b815250836123769092919063ffffffff16565b6112e9604051806040016040528060058152602001641c185d1a0d60da1b815250604051806040016040528060158152602001743932b9bab63a399631b430b4b729b2b632b1ba37b960591b815250836123769092919063ffffffff16565b6113076112fe6003546001600160a01b031690565b8260a954612394565b9250505090565b609f546001600160a01b03163314610ce65760405162461bcd60e51b815260206004820152602e60248201527f43616c6c6572206973206e6f7420696e64657820666163746f72792062616c6160448201526d3731b2b91031b7b73a3930b1ba1760911b6064820152608401610d5e565b611387611ff3565b61139384848484612425565b50505050565b5f54610100900460ff16158080156113b757505f54600160ff909116105b806113d05750303b1580156113d057505f5460ff166001145b6114335760405162461bcd60e51b815260206004820152602e60248201527f496e697469616c697a61626c653a20636f6e747261637420697320616c72656160448201526d191e481a5b9a5d1a585b1a5e995960921b6064820152608401610d5e565b5f805460ff191660011790558015611454575f805461ff0019166101001790555b61145c612e21565b60a580546001600160401b038e1667ffffffffffffffff19909116179055609d80546001600160a01b038d166001600160a01b03199091161790556114be8a600280546001600160a01b039092166001600160a01b0319909216919091179055565b600380546001600160a01b0319166001600160a01b038b1617905560a8889055600a6114f3670de0b6b3a76400006001613e0c565b6114fd9190613e37565b60a95560aa80546001600160a01b03199081166001600160a01b038a81169190911790925560c08054821689841617905560bc8054821688841617905560bd8054821687841617905560be8054821686841617905560bf80549091169184169190911790556040805160608101909152602a8082526142dc602083013960a6906115879082613e95565b506040518060600160405280602e8152602001614306602e913960a7906115ae9082613e95565b5080156115f4575f805461ff0019169055604051600181527f7f26b83ff96e1f2b6a682f133852f6798a09c465da95921460cefb38474024989060200160405180910390a15b505050505050505050505050565b60b8545f90815260ba602090815260408083206001600160401b0385168452600601825291829020805483518184028101840190945280845260609392830182828015610b8e57602002820191905f5260205f2090815481526020019060010190808311610b7a5750505050509050919050565b61167e611ff3565b60a661168a8382613e95565b5060a76116978282613e95565b505050565b5f805f5b60ad54811015611776575f81815260b160205260408082205460c05460c25492516370a0823160e01b81526001600160a01b03938416600482015261175f93928316929091169082906370a0823190602401602060405180830381865afa15801561170d573d5f803e3d5ffd5b505050506040513d601f19601f820116820180604052508101906117319190613f4f565b5f86815260b160209081526040808320546001600160a01b0316835260b690915290205462ffffff16611c87565b905061176b8184613f66565b9250506001016116a0565b50919050565b611784611ff3565b609f80546001600160a01b0319166001600160a01b0392909216919091179055565b60b9545f90815260bb602090815260408083206001600160401b0385168452600701825291829020805483518184028101840190945280845260609392830182828015610b8e57602002820191905f5260205f2090815481526020019060010190808311610b7a5750505050509050919050565b5f8581526005602052604090205485906001600160a01b031633146118925760405162461bcd60e51b815260206004820152602860248201527f536f75726365206d75737420626520746865206f7261636c65206f6620746865604482015267081c995c5d595cdd60c21b6064820152608401610d5e565b5f8181526005602052604080822080546001600160a01b03191690555182917f7cc135e0cebb02c3480ae5d74d377283180a2601f8f644edf7987b009316c63a91a26118e085858585612425565b505050505050565b6118f0611ff3565b6001600160a01b0381166119165760405162461bcd60e51b8152600401610d5e90613f79565b606a80546001600160a01b0319166001600160a01b0392909216919091179055565b60b8545f90815260ba602090815260408083206001600160401b0385168452600701825291829020805483518184028101840190945280845260609392830182828015610b8e57602002820191905f5260205f2090815481526020019060010190808311610b7a5750505050509050919050565b6119b4611ff3565b609e80546001600160a01b0319166001600160a01b0392909216919091179055565b60b8545f90815260ba602090815260408083206001600160401b0385168452600501825291829020805483518184028101840190945280845260609392830182828015610b8e57602002820191905f5260205f20905b81546001600160a01b03168152600190910190602001808311611a2c5750505050509050919050565b60b9545f90815260bb602090815260408083206001600160401b0385168452600501825291829020805483518184028101840190945280845260609392830182828015610b8e57602002820191905f5260205f209081546001600160a01b03168152600190910190602001808311611a2c5750505050509050919050565b6060806060805f60bb5f8781526020019081526020015f209050805f0181600101826002018360030183805480602002602001604051908101604052809291908181526020018280548015611b4f57602002820191905f5260205f20905b81546001600160a01b03168152600190910190602001808311611b31575b5050505050935082805480602002602001604051908101604052809291908181526020018280548015611b9f57602002820191905f5260205f20905b815481526020019060010190808311611b8b575b5050505050925081805480602002602001604051908101604052809291908181526020018280548015610eb457602002820191905f5260205f20905f905b82829054906101000a900462ffffff1662ffffff1681526020019060030190602082600201049283019260010382029150808411611bdd5790505050505050915080805480602002602001604051908101604052809291908181526020018280548015610f35575f91825260209182902080546001600160401b03168452908202830192909160089101808411610ef2579050505050505090509450945094509450509193509193565b5f808315611dba5762ffffff831615611cad57611ca686868686611dc3565b9050611dba565b6040805160028082526060820183525f9260208301908036833701905050905086815f81518110611ce057611ce0613fc9565b60200260200101906001600160a01b031690816001600160a01b0316815250508581600181518110611d1457611d14613fc9565b6001600160a01b03928316602091820292909201015260be5460405163d06ca61f60e01b81525f92919091169063d06ca61f90611d579089908690600401613fdd565b5f60405180830381865afa158015611d71573d5f803e3d5ffd5b505050506040513d5f823e601f3d908101601f19168201604052611d989190810190613ff5565b905080600181518110611dad57611dad613fc9565b6020026020010151925050505b95945050505050565b60a55460bd5460405163bb5705b360e01b81526001600160a01b039182166004820152868216602482015285821660448201526001600160801b038516606482015262ffffff841660848201525f92600160401b90049091169063bb5705b39060a401602060405180830381865afa158015611e41573d5f803e3d5ffd5b505050506040513d601f19601f82011682018060405250810190611dba9190613f4f565b611e6d611ff3565b6001600160401b03929092165f90815260a06020908152604080832080546001600160a01b0319166001600160a01b0395909516948517905560a1825280832093835292905220805462ffffff191662ffffff909216919091179055565b6001600160a01b038116611ef15760405162461bcd60e51b8152600401610d5e90613f79565b606a546001600160a01b03828116911614611f695760405162461bcd60e51b815260206004820152603260248201527f50726f706f7361626c654f776e61626c653a206e6577206f776e6572206973206044820152713737ba10383937b837b9b2b21037bbb732b960711b6064820152608401610d5e565b6001600160a01b0381163314611fe75760405162461bcd60e51b815260206004820152603a60248201527f50726f706f7361626c654f776e61626c653a20746869732063616c6c206d757360448201527f74206265206d61646520627920746865206e6577206f776e65720000000000006064820152608401610d5e565b611ff081612309565b50565b6038546001600160a01b03163314610cee5760405162461bcd60e51b815260206004820181905260248201527f4f776e61626c653a2063616c6c6572206973206e6f7420746865206f776e65726044820152606401610d5e565b5f8260ff168260ff16111561208257612066838361407b565b61207190600a614177565b61207b9085614185565b9050610cd7565b612066828461407b565b600160b95f82825461209e9190613f66565b909155505f90505b60ac54811015612300575f81815260b060209081526040808320805460b1845282852080546001600160a01b0319166001600160a01b03928316908117825583548316875260b586528487205490875260b486528487205582548216865260b285528386205490548216865260b3855283862055905416835260b782528083205460b954845260bb83528184206001600160401b0390911680855260049091019092529091205460ff166121cb5760b980545f90815260bb602081815260408084206001600160401b03878116808752600492830185528387208054600160ff199091168117909155975487529484529185206003908101805497880181558652929094209385049093018054949091166008026101000a9283021990931691021790555b60b980545f90815260bb602081815260408084206001600160401b0387168086526005909101835281852088865260b0845282862080548254600181810185559389528689200180546001600160a01b0319166001600160a01b0392831617905588548852868652848820848952600601865284882082548216895260b68752858920548154948501825590895286892062ffffff9091169301929092555416855260b583528185205495548552928252808420928452600890920190528120805490919061229b908490613f66565b909155505060b9545f90815260bb602090815260408083206001600160401b0390941683526007909301815282822084835260b08252838320546001600160a01b0316835260b5825292822054835460018181018655948452919092200155016120a6565b5060ac5460ad55565b603880546001600160a01b038381166001600160a01b0319831681179093556040519116919082907f8be0079c531659141344cd1fd0a4f28419497f9722a3daafe3b4186f6b6457e0905f90a35050565b6123626133f0565b61236a6133f0565b611dba81868686612e4f565b60808301516123859083612e95565b60808301516116979082612e95565b6004545f906123a4816001613f66565b600455835160408086015160808701515191515f936320214ca360e11b936123db9386938493923092918a916001916024016141b4565b60408051601f198184030181529190526020810180516001600160e01b03166001600160e01b031990931692909217909152905061241b86838684612eac565b9695505050505050565b60b880548591859185918591600191905f90612442908490613f66565b909155505060ad545f0361246857600160b95f8282546124629190613f66565b90915550505b5f5b8451811015612dfe5784818151811061248557612485613fc9565b602002602001015160b05f8381526020019081526020015f205f6101000a8154816001600160a01b0302191690836001600160a01b031602179055508060b25f8784815181106124d7576124d7613fc9565b60200260200101516001600160a01b03166001600160a01b031681526020019081526020015f208190555083818151811061251457612514613fc9565b602002602001015160b55f87848151811061253157612531613fc9565b60200260200101516001600160a01b03166001600160a01b031681526020019081526020015f208190555082818151811061256e5761256e613fc9565b602002602001015160b65f87848151811061258b5761258b613fc9565b60200260200101516001600160a01b03166001600160a01b031681526020019081526020015f205f6101000a81548162ffffff021916908362ffffff1602179055508181815181106125df576125df613fc9565b602002602001015160b75f8784815181106125fc576125fc613fc9565b60200260200101516001600160a01b03166001600160a01b031681526020019081526020015f205f6101000a8154816001600160401b0302191690836001600160401b0316021790555060ba5f60b85481526020019081526020015f206004015f83838151811061266f5761266f613fc9565b6020908102919091018101516001600160401b031682528101919091526040015f205460ff166127815760ba5f60b85481526020019081526020015f206003018282815181106126c1576126c1613fc9565b6020026020010151908060018154018082558091505060019003905f5260205f2090600491828204019190066008029091909190916101000a8154816001600160401b0302191690836001600160401b03160217905550600160ba5f60b85481526020019081526020015f206004015f84848151811061274357612743613fc9565b60200260200101516001600160401b03166001600160401b031681526020019081526020015f205f6101000a81548160ff0219169083151502179055505b60ba5f60b85481526020019081526020015f206005015f8383815181106127aa576127aa613fc9565b60200260200101516001600160401b03166001600160401b031681526020019081526020015f208582815181106127e3576127e3613fc9565b60209081029190910181015182546001810184555f9384528284200180546001600160a01b0319166001600160a01b0390921691909117905560b854825260ba90526040812083516006909101919084908490811061284457612844613fc9565b60200260200101516001600160401b03166001600160401b031681526020019081526020015f2083828151811061287d5761287d613fc9565b60209081029190910181015182546001810184555f9384529190922062ffffff90921691015583518490829081106128b7576128b7613fc9565b602002602001015160ba5f60b85481526020019081526020015f206008015f8484815181106128e8576128e8613fc9565b60200260200101516001600160401b03166001600160401b031681526020019081526020015f205f82825461291d9190613f66565b9250508190555060ba5f60b85481526020019081526020015f206007015f83838151811061294d5761294d613fc9565b60200260200101516001600160401b03166001600160401b031681526020019081526020015f2084828151811061298657612986613fc9565b60209081029190910181015182546001810184555f9384529183209091015560ad549003612df6578481815181106129c0576129c0613fc9565b602002602001015160b15f8381526020019081526020015f205f6101000a8154816001600160a01b0302191690836001600160a01b03160217905550838181518110612a0e57612a0e613fc9565b602002602001015160b45f878481518110612a2b57612a2b613fc9565b60200260200101516001600160a01b03166001600160a01b031681526020019081526020015f20819055508060b35f878481518110612a6c57612a6c613fc9565b60200260200101516001600160a01b03166001600160a01b031681526020019081526020015f208190555060bb5f60b95481526020019081526020015f206004015f838381518110612ac057612ac0613fc9565b6020908102919091018101516001600160401b031682528101919091526040015f205460ff16612bd257600160bb5f60b95481526020019081526020015f206004015f848481518110612b1557612b15613fc9565b60200260200101516001600160401b03166001600160401b031681526020019081526020015f205f6101000a81548160ff02191690831515021790555060bb5f60b95481526020019081526020015f20600301828281518110612b7a57612b7a613fc9565b6020026020010151908060018154018082558091505060019003905f5260205f2090600491828204019190066008029091909190916101000a8154816001600160401b0302191690836001600160401b031602179055505b60bb5f60b95481526020019081526020015f206005015f838381518110612bfb57612bfb613fc9565b60200260200101516001600160401b03166001600160401b031681526020019081526020015f20858281518110612c3457612c34613fc9565b60209081029190910181015182546001810184555f9384528284200180546001600160a01b0319166001600160a01b0390921691909117905560b954825260bb905260408120835160069091019190849084908110612c9557612c95613fc9565b60200260200101516001600160401b03166001600160401b031681526020019081526020015f20838281518110612cce57612cce613fc9565b60209081029190910181015182546001810184555f9384529190922062ffffff9092169101558351849082908110612d0857612d08613fc9565b602002602001015160bb5f60b95481526020019081526020015f206008015f848481518110612d3957612d39613fc9565b60200260200101516001600160401b03166001600160401b031681526020019081526020015f205f828254612d6e9190613f66565b9250508190555060bb5f60b95481526020019081526020015f206007015f838381518110612d9e57612d9e613fc9565b60200260200101516001600160401b03166001600160401b031681526020019081526020015f20848281518110612dd757612dd7613fc9565b60209081029190910181015182546001810184555f9384529190922001555b60010161246a565b50835160ac5560ad545f03612e1357835160ad555b50504260ab55505050505050565b5f54610100900460ff16612e475760405162461bcd60e51b8152600401610d5e9061421a565b610cee613005565b612e576133f0565b612e678560800151610100613034565b50508284526001600160a01b03821660208501526001600160e01b031981166040850152835b949350505050565b612ea28260038351613097565b611697828261319e565b6040516bffffffffffffffffffffffff193060601b166020820152603481018490525f9060540160408051808303601f1901815282825280516020918201205f818152600590925291812080546001600160a01b0319166001600160a01b038a1617905590925082917fb5e6e01e79f91267dc17b4e6314d5d4d03593d2ceee0fbb452b750bd70ea5af99190a2600254604051630200057560e51b81526001600160a01b0390911690634000aea090612f6d90889087908790600401614265565b6020604051808303815f875af1158015612f89573d5f803e3d5ffd5b505050506040513d601f19601f82011682018060405250810190612fad919061428b565b612e8d5760405162461bcd60e51b815260206004820152602360248201527f756e61626c6520746f207472616e73666572416e6443616c6c20746f206f7261604482015262636c6560e81b6064820152608401610d5e565b5f54610100900460ff1661302b5760405162461bcd60e51b8152600401610d5e9061421a565b610cee33612309565b60408051808201909152606081525f60208201526130536020836142aa565b1561307b576130636020836142aa565b61306e9060206142bd565b6130789083613f66565b91505b506020828101829052604080518085525f815290920101905290565b6017816001600160401b0316116130bb576113938360e0600585901b1683176131c3565b60ff816001600160401b0316116130f7576130e1836018611fe0600586901b16176131c3565b50611393836001600160401b03831660016131e6565b61ffff816001600160401b0316116131345761311e836019611fe0600586901b16176131c3565b50611393836001600160401b03831660026131e6565b63ffffffff816001600160401b0316116131735761315d83601a611fe0600586901b16176131c3565b50611393836001600160401b03831660046131e6565b61318883601b611fe0600586901b16176131c3565b50611393836001600160401b03831660086131e6565b60408051808201909152606081525f6020820152610cd783845f01515184855161320a565b60408051808201909152606081525f6020820152610cd783845f015151846132f0565b60408051808201909152606081525f6020820152612e8d84855f015151858561334a565b60408051808201909152606081525f6020820152825182111561322b575f80fd5b602085015161323a8386613f66565b111561326d5761326d8561325d876020015187866132589190613f66565b6133c9565b613268906002613e0c565b6133d9565b5f8086518051876020830101935080888701111561328b5787860182525b505050602084015b602084106132cb57805182526132aa602083613f66565b91506132b7602082613f66565b90506132c46020856142bd565b9350613293565b5181515f1960208690036101000a019081169019919091161790525083949350505050565b60408051808201909152606081525f6020820152836020015183106133245761332484856020015160026132689190613e0c565b8351805160208583010184815350808503613340576001810182525b5093949350505050565b60408051808201909152606081525f6020820152602085015161336d8584613f66565b1115613381576133818561325d8685613f66565b5f6001613390846101006142d0565b61339a91906142bd565b90508551838682010185831982511617815250805184870111156133be5783860181525b509495945050505050565b5f81831115611776575081610b1e565b81516133e58383613034565b50611393838261319e565b6040805160a0810182525f808252602080830182905282840182905260608084018390528451808601909552845283015290608082015290565b6001600160a01b0381168114611ff0575f80fd5b80356134498161342a565b919050565b5f6020828403121561345e575f80fd5b8135610cd78161342a565b634e487b7160e01b5f52604160045260245ffd5b604051601f8201601f191681016001600160401b03811182821017156134a5576134a5613469565b604052919050565b5f82601f8301126134bc575f80fd5b81356001600160401b038111156134d5576134d5613469565b6134e8601f8201601f191660200161347d565b8181528460208386010111156134fc575f80fd5b816020850160208301375f918101602001919091529392505050565b5f8060408385031215613529575f80fd5b82356001600160401b0381111561353e575f80fd5b61354a858286016134ad565b92505060208301356001600160401b03811115613565575f80fd5b613571858286016134ad565b9150509250929050565b5f81518084528060208401602086015e5f602082860101526020601f19601f83011685010191505092915050565b602081525f610cd7602083018461357b565b80356001600160401b0381168114613449575f80fd5b5f602082840312156135e1575f80fd5b610cd7826135bb565b5f8151808452602084019350602083015f5b828110156133405781518652602095860195909101906001016135fc565b602081525f610cd760208301846135ea565b5f6020828403121561363c575f80fd5b5035919050565b5f8060408385031215613654575f80fd5b823561365f8161342a565b915061366d602084016135bb565b90509250929050565b5f8060408385031215613687575f80fd5b8235915061366d602084016135bb565b5f8151808452602084019350602083015f5b828110156133405781516001600160a01b03168652602095860195909101906001016136a9565b5f8151808452602084019350602083015f5b828110156133405781516001600160401b03168652602095860195909101906001016136e2565b608081525f61371b6080830187613697565b828103602084015261372d81876135ea565b9050828103604084015261374181866135ea565b9050828103606084015261375581856136d0565b979650505050505050565b5f8060408385031215613771575f80fd5b61377a836135bb565b9150602083013561378a8161342a565b809150509250929050565b5f6001600160401b038211156137ad576137ad613469565b5060051b60200190565b5f82601f8301126137c6575f80fd5b81356137d96137d482613795565b61347d565b8082825260208201915060208360051b8601019250858311156137fa575f80fd5b602085015b838110156138205780356138128161342a565b8352602092830192016137ff565b5095945050505050565b5f82601f830112613839575f80fd5b81356138476137d482613795565b8082825260208201915060208360051b860101925085831115613868575f80fd5b602085015b8381101561382057803583526020928301920161386d565b803562ffffff81168114613449575f80fd5b5f82601f8301126138a6575f80fd5b81356138b46137d482613795565b8082825260208201915060208360051b8601019250858311156138d5575f80fd5b602085015b83811015613820576138eb81613885565b8352602092830192016138da565b5f82601f830112613908575f80fd5b81356139166137d482613795565b8082825260208201915060208360051b860101925085831115613937575f80fd5b602085015b838110156138205761394d816135bb565b83526020928301920161393c565b5f805f806080858703121561396e575f80fd5b84356001600160401b03811115613983575f80fd5b61398f878288016137b7565b94505060208501356001600160401b038111156139aa575f80fd5b6139b68782880161382a565b93505060408501356001600160401b038111156139d1575f80fd5b6139dd87828801613897565b92505060608501356001600160401b038111156139f8575f80fd5b613a04878288016138f9565b91505092959194509250565b5f805f805f805f805f805f6101608c8e031215613a2b575f80fd5b613a348c6135bb565b9a5060208c0135613a448161342a565b995060408c0135613a548161342a565b985060608c0135613a648161342a565b975060808c0135965060a08c0135613a7b8161342a565b955060c08c0135613a8b8161342a565b945060e08c0135613a9b8161342a565b93506101008c0135613aac8161342a565b9250613abb6101208d0161343e565b9150613aca6101408d0161343e565b90509295989b509295989b9093969950565b5f805f805f60a08688031215613af0575f80fd5b8535945060208601356001600160401b03811115613b0c575f80fd5b613b18888289016137b7565b94505060408601356001600160401b03811115613b33575f80fd5b613b3f8882890161382a565b93505060608601356001600160401b03811115613b5a575f80fd5b613b6688828901613897565b92505060808601356001600160401b03811115613b81575f80fd5b613b8d888289016138f9565b9150509295509295909350565b602081525f610cd76020830184613697565b608081525f613bbe6080830187613697565b8281036020840152613bd081876135ea565b8381036040850152855180825260208088019350909101905f5b81811015613c0d57835162ffffff16835260209384019390920191600101613bea565b50508381036060850152613c2181866136d0565b98975050505050505050565b5f805f8060808587031215613c40575f80fd5b8435613c4b8161342a565b93506020850135613c5b8161342a565b925060408501359150613c7060608601613885565b905092959194509250565b5f805f8060808587031215613c8e575f80fd5b8435613c998161342a565b93506020850135613ca98161342a565b925060408501356001600160801b0381168114613cc4575f80fd5b9150613c7060608601613885565b5f805f60608486031215613ce4575f80fd5b613ced846135bb565b92506020840135613cfd8161342a565b9150613d0b60408501613885565b90509250925092565b5f81518060208401855e5f93019283525090919050565b5f612e8d613d398386613d14565b84613d14565b805169ffffffffffffffffffff81168114613449575f80fd5b5f805f805f60a08688031215613d6c575f80fd5b613d7586613d3f565b60208701516040880151606089015192975090955093509150613d9a60808701613d3f565b90509295509295909350565b5f60208284031215613db6575f80fd5b815160ff81168114610cd7575f80fd5b600181811c90821680613dda57607f821691505b60208210810361177657634e487b7160e01b5f52602260045260245ffd5b634e487b7160e01b5f52601160045260245ffd5b8082028115828204841417610b1e57610b1e613df8565b634e487b7160e01b5f52601260045260245ffd5b5f82613e4557613e45613e23565b500490565b601f82111561169757805f5260205f20601f840160051c81016020851015613e6f5750805b601f840160051c820191505b81811015613e8e575f8155600101613e7b565b5050505050565b81516001600160401b03811115613eae57613eae613469565b613ec281613ebc8454613dc6565b84613e4a565b6020601f821160018114613ef4575f8315613edd5750848201515b5f19600385901b1c1916600184901b178455613e8e565b5f84815260208120601f198516915b82811015613f235787850151825560209485019460019092019101613f03565b5084821015613f4057868401515f19600387901b60f8161c191681555b50505050600190811b01905550565b5f60208284031215613f5f575f80fd5b5051919050565b80820180821115610b1e57610b1e613df8565b60208082526030908201527f50726f706f7361626c654f776e61626c653a206e6577206f776e65722069732060408201526f746865207a65726f206164647265737360801b606082015260800190565b634e487b7160e01b5f52603260045260245ffd5b828152604060208201525f612e8d6040830184613697565b5f60208284031215614005575f80fd5b81516001600160401b0381111561401a575f80fd5b8201601f8101841361402a575f80fd5b80516140386137d482613795565b8082825260208201915060208360051b850101925086831115614059575f80fd5b6020840193505b8284101561241b578351825260209384019390910190614060565b60ff8281168282160390811115610b1e57610b1e613df8565b6001815b60018411156140cf578085048111156140b3576140b3613df8565b60018416156140c157908102905b60019390931c928002614098565b935093915050565b5f826140e557506001610b1e565b816140f157505f610b1e565b816001811461410757600281146141115761412d565b6001915050610b1e565b60ff84111561412257614122613df8565b50506001821b610b1e565b5060208310610133831016604e8410600b8410161715614150575081810a610b1e565b61415c5f198484614094565b805f190482111561416f5761416f613df8565b029392505050565b5f610cd760ff8416836140d7565b8082025f8212600160ff1b841416156141a0576141a0613df8565b8181058314821517610b1e57610b1e613df8565b6001600160a01b0389811682526020820189905260408201889052861660608201526001600160e01b03198516608082015260a0810184905260c0810183905261010060e082018190525f9061420c9083018461357b565b9a9950505050505050505050565b6020808252602b908201527f496e697469616c697a61626c653a20636f6e7472616374206973206e6f74206960408201526a6e697469616c697a696e6760a81b606082015260800190565b60018060a01b0384168152826020820152606060408201525f611dba606083018461357b565b5f6020828403121561429b575f80fd5b81518015158114610cd7575f80fd5b5f826142b8576142b8613e23565b500690565b81810381811115610b1e57610b1e613df8565b5f610cd783836140d756fe68747470733a2f2f6170702e6e65786c6162732e696f2f6170692f616c6c46756e64696e6752617465733f6d756c7469706c7946756e633d31382674696d65734e656746756e643d74727565266172726179733d74727565a2646970667358221220f40e9a7a606f7b2ec50a36ea04edafc2e8e7ae6958cc8a5edf94d450b833b0f064736f6c634300081a0033","linkReferences":{}},"methodIdentifiers":{"allCurrentChainSelectorTokenShares(uint64)":"af696b34","allCurrentChainSelectorTokens(uint64)":"d1c68aa3","allCurrentChainSelectorVersions(uint64)":"221f3371","allOracleChainSelectorTokenShares(uint64)":"bf0d49c0","allOracleChainSelectorTokens(uint64)":"d050ca7c","allOracleChainSelectorVersions(uint64)":"a1adff88","concatenation(string,string)":"0e329357","crossChainFactoryBySelector(uint64)":"340fbc74","crossChainToken(uint64)":"19da7e2a","crossChainTokenSwapFee(uint64,address)":"652354ae","currentChainSelector()":"3d54cb6f","currentChainSelectorTokensCount(uint64)":"b6ad185b","currentChainSelectorsCount()":"69487b1c","currentFilledCount()":"b90b8a2a","currentList(uint256)":"9932ba4c","estimateAmountOut(address,address,uint128,uint24)":"ee7bd3e2","externalJobId()":"a8b54bd4","factoryV2()":"68e0d4e1","factoryV3()":"1d5f45f5","feeRate()":"978bbdb9","fulfillAssetsData(bytes32,address[],uint256[],uint24[],uint64[])":"b2c44b3f","getAmountOut(address,address,uint256,uint24)":"dd811ac9","getCurrentChainSelectorTotalShares(uint256,uint64)":"2a3ff8ad","getCurrentData(uint256)":"d3f7f266","getOracleData(uint256)":"536e3f6a","getPendingRequest(bytes32)":"88b12d55","getPortfolioBalance()":"a8509fd8","indexFactory()":"e3fd0af2","indexFactoryBalancer()":"29d75de9","indexToken()":"e7d015f2","initialize(uint64,address,address,address,bytes32,address,address,address,address,address,address)":"9ebe560e","lastUpdateTime()":"c8f33c91","latestFeeUpdate()":"011ced5f","mockFillAssetsList(address[],uint256[],uint24[],uint64[])":"8bb8f1bb","mockUpdateCurrentList()":"4f9641b9","oracleChainSelectorTokensCount(uint64)":"fc698b4a","oracleChainSelectorsCount()":"8e9d7c18","oracleFilledCount()":"f1581787","oracleList(uint256)":"239aad0d","oraclePayment()":"0c02e130","owner()":"8da5cb5b","priceInWei()":"3c8da588","priceOracle()":"2630c12f","proposeOwner(address)":"b5ed298a","proposedOwner()":"d153b60c","quoter()":"c6bbd5a7","renounceOwnership()":"715018a6","requestAssetsData()":"7ca58c55","setCrossChainFactory(address,uint64)":"271040df","setCrossChainToken(uint64,address,uint24)":"f0cd5b72","setIndexFactory(address)":"d047937f","setIndexFactoryBalancer(address)":"ae214f39","setPriceFeed(address)":"724e78da","setPriceOracle(address)":"530e784f","setUrl(string,string)":"a73e1cbf","setVault(address)":"6817031b","swapRouterV2()":"744fbc7a","swapRouterV3()":"b631e80b","toUsdPriceFeed()":"63973fda","tokenChainSelector(address)":"ea8ecf04","tokenCurrentListIndex(address)":"914f0cc6","tokenCurrentMarketShare(address)":"0be52713","tokenOracleListIndex(address)":"8c88c10c","tokenOracleMarketShare(address)":"4b3e0b80","tokenSwapFee(address)":"32599665","totalCurrentChainSelectors()":"92e410ce","totalCurrentList()":"53fd4332","totalOracleChainSelectors()":"80acffa3","totalOracleList()":"c8599ded","transferOwnership(address)":"f2fde38b","updateCurrentList()":"8baa6bf1","vault()":"fbfa77cf","weth()":"3fc8cef3"},"id":5}