{"abi":[{"type":"function","name":"allCurrentChainSelectorTokenShares","inputs":[{"name":"_chainSelector","type":"uint64","internalType":"uint64"}],"outputs":[{"name":"","type":"uint256[]","internalType":"uint256[]"}],"stateMutability":"view"},{"type":"function","name":"allCurrentChainSelectorTokens","inputs":[{"name":"_chainSelector","type":"uint64","internalType":"uint64"}],"outputs":[{"name":"tokens","type":"address[]","internalType":"address[]"}],"stateMutability":"view"},{"type":"function","name":"allCurrentChainSelectorVersions","inputs":[{"name":"_chainSelector","type":"uint64","internalType":"uint64"}],"outputs":[{"name":"versions","type":"uint256[]","internalType":"uint256[]"}],"stateMutability":"view"},{"type":"function","name":"allOracleChainSelectorTokenShares","inputs":[{"name":"_chainSelector","type":"uint64","internalType":"uint64"}],"outputs":[{"name":"","type":"uint256[]","internalType":"uint256[]"}],"stateMutability":"view"},{"type":"function","name":"allOracleChainSelectorTokens","inputs":[{"name":"_chainSelector","type":"uint64","internalType":"uint64"}],"outputs":[{"name":"tokens","type":"address[]","internalType":"address[]"}],"stateMutability":"view"},{"type":"function","name":"allOracleChainSelectorVersions","inputs":[{"name":"_chainSelector","type":"uint64","internalType":"uint64"}],"outputs":[{"name":"versions","type":"uint256[]","internalType":"uint256[]"}],"stateMutability":"view"},{"type":"function","name":"concatenation","inputs":[{"name":"a","type":"string","internalType":"string"},{"name":"b","type":"string","internalType":"string"}],"outputs":[{"name":"","type":"string","internalType":"string"}],"stateMutability":"pure"},{"type":"function","name":"crossChainFactoryBySelector","inputs":[{"name":"","type":"uint64","internalType":"uint64"}],"outputs":[{"name":"","type":"address","internalType":"address"}],"stateMutability":"view"},{"type":"function","name":"crossChainToken","inputs":[{"name":"","type":"uint64","internalType":"uint64"}],"outputs":[{"name":"","type":"address","internalType":"address"}],"stateMutability":"view"},{"type":"function","name":"crossChainTokenSwapFee","inputs":[{"name":"","type":"uint64","internalType":"uint64"},{"name":"","type":"address","internalType":"address"}],"outputs":[{"name":"","type":"uint24","internalType":"uint24"}],"stateMutability":"view"},{"type":"function","name":"currentChainSelector","inputs":[],"outputs":[{"name":"","type":"uint64","internalType":"uint64"}],"stateMutability":"view"},{"type":"function","name":"currentChainSelectorTokensCount","inputs":[{"name":"_chainSelector","type":"uint64","internalType":"uint64"}],"outputs":[{"name":"","type":"uint256","internalType":"uint256"}],"stateMutability":"view"},{"type":"function","name":"currentChainSelectorsCount","inputs":[],"outputs":[{"name":"","type":"uint256","internalType":"uint256"}],"stateMutability":"view"},{"type":"function","name":"currentFilledCount","inputs":[],"outputs":[{"name":"","type":"uint256","internalType":"uint256"}],"stateMutability":"view"},{"type":"function","name":"currentList","inputs":[{"name":"","type":"uint256","internalType":"uint256"}],"outputs":[{"name":"","type":"address","internalType":"address"}],"stateMutability":"view"},{"type":"function","name":"estimateAmountOut","inputs":[{"name":"tokenIn","type":"address","internalType":"address"},{"name":"tokenOut","type":"address","internalType":"address"},{"name":"amountIn","type":"uint128","internalType":"uint128"}],"outputs":[{"name":"amountOut","type":"uint256","internalType":"uint256"}],"stateMutability":"view"},{"type":"function","name":"externalJobId","inputs":[],"outputs":[{"name":"","type":"bytes32","internalType":"bytes32"}],"stateMutability":"view"},{"type":"function","name":"factoryV2","inputs":[],"outputs":[{"name":"","type":"address","internalType":"contract IUniswapV2Factory"}],"stateMutability":"view"},{"type":"function","name":"factoryV3","inputs":[],"outputs":[{"name":"","type":"address","internalType":"contract IUniswapV3Factory"}],"stateMutability":"view"},{"type":"function","name":"feeRate","inputs":[],"outputs":[{"name":"","type":"uint8","internalType":"uint8"}],"stateMutability":"view"},{"type":"function","name":"fulfillAssetsData","inputs":[{"name":"requestId","type":"bytes32","internalType":"bytes32"},{"name":"_tokens","type":"address[]","internalType":"address[]"},{"name":"_marketShares","type":"uint256[]","internalType":"uint256[]"},{"name":"_swapFees","type":"uint24[]","internalType":"uint24[]"},{"name":"_chainSelectors","type":"uint64[]","internalType":"uint64[]"}],"outputs":[],"stateMutability":"nonpayable"},{"type":"function","name":"getAmountOut","inputs":[{"name":"tokenIn","type":"address","internalType":"address"},{"name":"tokenOut","type":"address","internalType":"address"},{"name":"amountIn","type":"uint256","internalType":"uint256"},{"name":"_swapFee","type":"uint24","internalType":"uint24"}],"outputs":[{"name":"finalAmountOutValue","type":"uint256","internalType":"uint256"}],"stateMutability":"view"},{"type":"function","name":"getCurrentChainSelectorTotalShares","inputs":[{"name":"index","type":"uint256","internalType":"uint256"},{"name":"chainSelector","type":"uint64","internalType":"uint64"}],"outputs":[{"name":"","type":"uint256","internalType":"uint256"}],"stateMutability":"view"},{"type":"function","name":"getCurrentData","inputs":[{"name":"index","type":"uint256","internalType":"uint256"}],"outputs":[{"name":"tokens","type":"address[]","internalType":"address[]"},{"name":"marketShares","type":"uint256[]","internalType":"uint256[]"},{"name":"swapFees","type":"uint24[]","internalType":"uint24[]"},{"name":"chainSelectors","type":"uint64[]","internalType":"uint64[]"}],"stateMutability":"view"},{"type":"function","name":"getOracleData","inputs":[{"name":"index","type":"uint256","internalType":"uint256"}],"outputs":[{"name":"tokens","type":"address[]","internalType":"address[]"},{"name":"marketShares","type":"uint256[]","internalType":"uint256[]"},{"name":"swapFees","type":"uint256[]","internalType":"uint256[]"},{"name":"chainSelectors","type":"uint64[]","internalType":"uint64[]"}],"stateMutability":"view"},{"type":"function","name":"getPortfolioBalance","inputs":[],"outputs":[{"name":"","type":"uint256","internalType":"uint256"}],"stateMutability":"view"},{"type":"function","name":"indexFactory","inputs":[],"outputs":[{"name":"","type":"address","internalType":"address"}],"stateMutability":"view"},{"type":"function","name":"indexFactoryBalancer","inputs":[],"outputs":[{"name":"","type":"address","internalType":"address"}],"stateMutability":"view"},{"type":"function","name":"indexToken","inputs":[],"outputs":[{"name":"","type":"address","internalType":"contract IndexToken"}],"stateMutability":"view"},{"type":"function","name":"initialize","inputs":[{"name":"_currentChainSelector","type":"uint64","internalType":"uint64"},{"name":"_token","type":"address","internalType":"address payable"},{"name":"_chainlinkToken","type":"address","internalType":"address"},{"name":"_oracleAddress","type":"address","internalType":"address"},{"name":"_externalJobId","type":"bytes32","internalType":"bytes32"},{"name":"_toUsdPriceFeed","type":"address","internalType":"address"},{"name":"_weth","type":"address","internalType":"address"},{"name":"_swapRouterV3","type":"address","internalType":"address"},{"name":"_factoryV3","type":"address","internalType":"address"},{"name":"_swapRouterV2","type":"address","internalType":"address"},{"name":"_factoryV2","type":"address","internalType":"address"}],"outputs":[],"stateMutability":"nonpayable"},{"type":"function","name":"lastUpdateTime","inputs":[],"outputs":[{"name":"","type":"uint256","internalType":"uint256"}],"stateMutability":"view"},{"type":"function","name":"latestFeeUpdate","inputs":[],"outputs":[{"name":"","type":"uint256","internalType":"uint256"}],"stateMutability":"view"},{"type":"function","name":"mockFillAssetsList","inputs":[{"name":"_tokens","type":"address[]","internalType":"address[]"},{"name":"_marketShares","type":"uint256[]","internalType":"uint256[]"},{"name":"_swapFees","type":"uint24[]","internalType":"uint24[]"},{"name":"_chainSelectors","type":"uint64[]","internalType":"uint64[]"}],"outputs":[],"stateMutability":"nonpayable"},{"type":"function","name":"mockUpdateCurrentList","inputs":[],"outputs":[],"stateMutability":"nonpayable"},{"type":"function","name":"oracleChainSelectorTokensCount","inputs":[{"name":"_chainSelector","type":"uint64","internalType":"uint64"}],"outputs":[{"name":"","type":"uint256","internalType":"uint256"}],"stateMutability":"view"},{"type":"function","name":"oracleChainSelectorsCount","inputs":[],"outputs":[{"name":"","type":"uint256","internalType":"uint256"}],"stateMutability":"view"},{"type":"function","name":"oracleFilledCount","inputs":[],"outputs":[{"name":"","type":"uint256","internalType":"uint256"}],"stateMutability":"view"},{"type":"function","name":"oracleList","inputs":[{"name":"","type":"uint256","internalType":"uint256"}],"outputs":[{"name":"","type":"address","internalType":"address"}],"stateMutability":"view"},{"type":"function","name":"oraclePayment","inputs":[],"outputs":[{"name":"","type":"uint256","internalType":"uint256"}],"stateMutability":"view"},{"type":"function","name":"owner","inputs":[],"outputs":[{"name":"","type":"address","internalType":"address"}],"stateMutability":"view"},{"type":"function","name":"priceInWei","inputs":[],"outputs":[{"name":"","type":"uint256","internalType":"uint256"}],"stateMutability":"view"},{"type":"function","name":"priceOracle","inputs":[],"outputs":[{"name":"","type":"address","internalType":"address"}],"stateMutability":"view"},{"type":"function","name":"proposeOwner","inputs":[{"name":"_proposedOwner","type":"address","internalType":"address"}],"outputs":[],"stateMutability":"nonpayable"},{"type":"function","name":"proposedOwner","inputs":[],"outputs":[{"name":"","type":"address","internalType":"address"}],"stateMutability":"view"},{"type":"function","name":"quoter","inputs":[],"outputs":[{"name":"","type":"address","internalType":"contract IQuoter"}],"stateMutability":"view"},{"type":"function","name":"renounceOwnership","inputs":[],"outputs":[],"stateMutability":"nonpayable"},{"type":"function","name":"requestAssetsData","inputs":[],"outputs":[{"name":"","type":"bytes32","internalType":"bytes32"}],"stateMutability":"nonpayable"},{"type":"function","name":"setCrossChainFactory","inputs":[{"name":"_crossChainFactoryAddress","type":"address","internalType":"address"},{"name":"_chainSelector","type":"uint64","internalType":"uint64"}],"outputs":[],"stateMutability":"nonpayable"},{"type":"function","name":"setCrossChainToken","inputs":[{"name":"_chainSelector","type":"uint64","internalType":"uint64"},{"name":"_crossChainToken","type":"address","internalType":"address"},{"name":"_swapFee","type":"uint24","internalType":"uint24"}],"outputs":[],"stateMutability":"nonpayable"},{"type":"function","name":"setIndexFactory","inputs":[{"name":"_indexFactory","type":"address","internalType":"address"}],"outputs":[],"stateMutability":"nonpayable"},{"type":"function","name":"setIndexFactoryBalancer","inputs":[{"name":"_indexFactoryBalancer","type":"address","internalType":"address"}],"outputs":[],"stateMutability":"nonpayable"},{"type":"function","name":"setPriceFeed","inputs":[{"name":"_toUsdPricefeed","type":"address","internalType":"address"}],"outputs":[],"stateMutability":"nonpayable"},{"type":"function","name":"setPriceOracle","inputs":[{"name":"_priceOracle","type":"address","internalType":"address"}],"outputs":[],"stateMutability":"nonpayable"},{"type":"function","name":"setUrl","inputs":[{"name":"_beforeAddress","type":"string","internalType":"string"},{"name":"_afterAddress","type":"string","internalType":"string"}],"outputs":[],"stateMutability":"nonpayable"},{"type":"function","name":"setVault","inputs":[{"name":"_vaultAddress","type":"address","internalType":"address"}],"outputs":[],"stateMutability":"nonpayable"},{"type":"function","name":"swap","inputs":[{"name":"tokenIn","type":"address","internalType":"address"},{"name":"tokenOut","type":"address","internalType":"address"},{"name":"amountIn","type":"uint256","internalType":"uint256"},{"name":"_recipient","type":"address","internalType":"address"},{"name":"_swapFee","type":"uint24","internalType":"uint24"}],"outputs":[{"name":"","type":"uint256","internalType":"uint256"}],"stateMutability":"nonpayable"},{"type":"function","name":"swapRouterV2","inputs":[],"outputs":[{"name":"","type":"address","internalType":"contract IUniswapV2Router02"}],"stateMutability":"view"},{"type":"function","name":"swapRouterV3","inputs":[],"outputs":[{"name":"","type":"address","internalType":"contract ISwapRouter"}],"stateMutability":"view"},{"type":"function","name":"toUsdPriceFeed","inputs":[],"outputs":[{"name":"","type":"address","internalType":"contract AggregatorV3Interface"}],"stateMutability":"view"},{"type":"function","name":"tokenChainSelector","inputs":[{"name":"","type":"address","internalType":"address"}],"outputs":[{"name":"","type":"uint64","internalType":"uint64"}],"stateMutability":"view"},{"type":"function","name":"tokenCurrentListIndex","inputs":[{"name":"","type":"address","internalType":"address"}],"outputs":[{"name":"","type":"uint256","internalType":"uint256"}],"stateMutability":"view"},{"type":"function","name":"tokenCurrentMarketShare","inputs":[{"name":"","type":"address","internalType":"address"}],"outputs":[{"name":"","type":"uint256","internalType":"uint256"}],"stateMutability":"view"},{"type":"function","name":"tokenOracleListIndex","inputs":[{"name":"","type":"address","internalType":"address"}],"outputs":[{"name":"","type":"uint256","internalType":"uint256"}],"stateMutability":"view"},{"type":"function","name":"tokenOracleMarketShare","inputs":[{"name":"","type":"address","internalType":"address"}],"outputs":[{"name":"","type":"uint256","internalType":"uint256"}],"stateMutability":"view"},{"type":"function","name":"tokenSwapFee","inputs":[{"name":"","type":"address","internalType":"address"}],"outputs":[{"name":"","type":"uint24","internalType":"uint24"}],"stateMutability":"view"},{"type":"function","name":"totalCurrentChainSelectors","inputs":[],"outputs":[{"name":"","type":"uint256","internalType":"uint256"}],"stateMutability":"view"},{"type":"function","name":"totalCurrentList","inputs":[],"outputs":[{"name":"","type":"uint256","internalType":"uint256"}],"stateMutability":"view"},{"type":"function","name":"totalOracleChainSelectors","inputs":[],"outputs":[{"name":"","type":"uint256","internalType":"uint256"}],"stateMutability":"view"},{"type":"function","name":"totalOracleList","inputs":[],"outputs":[{"name":"","type":"uint256","internalType":"uint256"}],"stateMutability":"view"},{"type":"function","name":"transferOwnership","inputs":[{"name":"newOwner","type":"address","internalType":"address"}],"outputs":[],"stateMutability":"nonpayable"},{"type":"function","name":"updateCurrentList","inputs":[],"outputs":[],"stateMutability":"nonpayable"},{"type":"function","name":"vault","inputs":[],"outputs":[{"name":"","type":"address","internalType":"contract Vault"}],"stateMutability":"view"},{"type":"function","name":"weth","inputs":[],"outputs":[{"name":"","type":"address","internalType":"contract IWETH"}],"stateMutability":"view"},{"type":"event","name":"ChainlinkCancelled","inputs":[{"name":"id","type":"bytes32","indexed":true,"internalType":"bytes32"}],"anonymous":false},{"type":"event","name":"ChainlinkFulfilled","inputs":[{"name":"id","type":"bytes32","indexed":true,"internalType":"bytes32"}],"anonymous":false},{"type":"event","name":"ChainlinkRequested","inputs":[{"name":"id","type":"bytes32","indexed":true,"internalType":"bytes32"}],"anonymous":false},{"type":"event","name":"Initialized","inputs":[{"name":"version","type":"uint8","indexed":false,"internalType":"uint8"}],"anonymous":false},{"type":"event","name":"OwnershipTransferred","inputs":[{"name":"previousOwner","type":"address","indexed":true,"internalType":"address"},{"name":"newOwner","type":"address","indexed":true,"internalType":"address"}],"anonymous":false}],"bytecode":{"object":"0x608060405234801561001057600080fd5b5061491b806100206000396000f3fe608060405234801561001057600080fd5b50600436106104335760003560e01c80638c88c10c11610236578063b90b8a2a1161013b578063d3f7f266116100c3578063f0cd5b7211610087578063f0cd5b7214610a87578063f158178714610a9a578063f2fde38b14610aa3578063fbfa77cf14610ab6578063fc698b4a14610ac957600080fd5b8063d3f7f26614610a02578063dd811ac914610a25578063e3fd0af214610a38578063e7d015f214610a4b578063ea8ecf0414610a5e57600080fd5b8063c8f33c911161010a578063c8f33c91146109a0578063d047937f146109a9578063d050ca7c146109bc578063d153b60c146109dc578063d1c68aa3146109ef57600080fd5b8063b90b8a2a14610968578063bf0d49c014610971578063c6bbd5a714610984578063c8599ded1461099757600080fd5b8063a73e1cbf116101be578063af696b341161018d578063af696b34146108e1578063b2c44b3f146108f4578063b5ed298a14610907578063b631e80b1461091a578063b6ad185b1461092d57600080fd5b8063a73e1cbf146108aa578063a8509fd8146108bd578063a8b54bd4146108c5578063ae214f39146108ce57600080fd5b806392e410ce1161020557806392e410ce14610833578063978bbdb91461083c5780639932ba4c1461085b5780639ebe560e14610884578063a1adff881461089757600080fd5b80638c88c10c146107c85780638da5cb5b146107e85780638e9d7c18146107f9578063914f0cc61461081357600080fd5b80634b3e0b801161033c57806369487b1c116102c45780637ca58c55116102935780637ca58c55146107895780637e79f5121461079157806380acffa3146107a45780638baa6bf1146107ad5780638bb8f1bb146107b557600080fd5b806369487b1c14610741578063715018a61461075b578063724e78da14610763578063744fbc7a1461077657600080fd5b806353fd43321161030b57806353fd4332146106cf57806363973fda146106d8578063652354ae146106eb5780636817031b1461071b57806368e0d4e11461072e57600080fd5b80634b3e0b80146106715780634f9641b914610691578063530e784f14610699578063536e3f6a146106ac57600080fd5b80632630c12f116103bf578063325996651161038e57806332599665146105c9578063340fbc74146106025780633c8da5881461062b5780633d54cb6f146106335780633fc8cef31461065e57600080fd5b80632630c12f1461054d578063271040df1461056757806329d75de91461057c5780632a3ff8ad1461058f57600080fd5b80630e329357116104065780630e3293571461049057806319da7e2a146104b05780631d5f45f5146104f1578063221f337114610504578063239aad0d1461052457600080fd5b8063011ced5f146104385780630456f9c8146104545780630be52713146104675780630c02e13014610487575b600080fd5b61044160a45481565b6040519081526020015b60405180910390f35b610441610462366004613bbf565b610b04565b610441610475366004613ba2565b60b46020526000908152604090205481565b61044160a95481565b6104a361049e366004613f1b565b610bb5565b60405161044b9190614435565b6104d96104be366004613fd3565b60a0602052600090815260409020546001600160a01b031681565b6040516001600160a01b03909116815260200161044b565b60bd546104d9906001600160a01b031681565b610517610512366004613fd3565b610be2565b60405161044b9190614422565b6104d9610532366004613f7e565b60b0602052600090815260409020546001600160a01b031681565b60a5546104d990600160401b90046001600160a01b031681565b61057a610575366004613ccb565b610c5b565b005b609f546104d9906001600160a01b031681565b61044161059d366004613fb0565b600082815260bb602090815260408083206001600160401b038516845260080190915290205492915050565b6105ee6105d7366004613ba2565b60b66020526000908152604090205462ffffff1681565b60405162ffffff909116815260200161044b565b6104d9610610366004613fd3565b60a2602052600090815260409020546001600160a01b031681565b610441610c9a565b60a554610646906001600160401b031681565b6040516001600160401b03909116815260200161044b565b60c0546104d9906001600160a01b031681565b61044161067f366004613ba2565b60b56020526000908152604090205481565b61057a610dc6565b61057a6106a7366004613ba2565b610dd8565b6106bf6106ba366004613f7e565b610e80565b60405161044b94939291906143ca565b61044160ad5481565b60aa546104d9906001600160a01b031681565b6105ee6106f9366004613fee565b60a160209081526000928352604080842090915290825290205462ffffff1681565b61057a610729366004613ba2565b611041565b60bf546104d9906001600160a01b031681565b60b954600090815260bb6020526040902060030154610441565b61057a61106b565b61057a610771366004613ba2565b61107d565b60be546104d9906001600160a01b031681565b610441611114565b61044161079f366004613c16565b61140a565b61044160ae5481565b61057a61172c565b61057a6107c3366004613d00565b61179d565b6104416107d6366004613ba2565b60b26020526000908152604090205481565b6038546001600160a01b03166104d9565b60b854600090815260ba6020526040902060030154610441565b610441610821366004613ba2565b60b36020526000908152604090205481565b61044160af5481565b60a3546108499060ff1681565b60405160ff909116815260200161044b565b6104d9610869366004613f7e565b60b1602052600090815260409020546001600160a01b031681565b61057a610892366004614025565b6117b7565b6105176108a5366004613fd3565b611a34565b61057a6108b8366004613f1b565b611aab565b610441611adf565b61044160a85481565b61057a6108dc366004613ba2565b611bdf565b6105176108ef366004613fd3565b611c09565b61057a610902366004613e65565b611c80565b61057a610915366004613ba2565b611d50565b60bc546104d9906001600160a01b031681565b61044161093b366004613fd3565b60b954600090815260bb602090815260408083206001600160401b03909416835260059093019052205490565b61044160b95481565b61051761097f366004613fd3565b611da0565b60c1546104d9906001600160a01b031681565b61044160ac5481565b61044160ab5481565b61057a6109b7366004613ba2565b611e17565b6109cf6109ca366004613fd3565b611e41565b60405161044b9190614336565b606a546104d9906001600160a01b031681565b6109cf6109fd366004613fd3565b611ec3565b610a15610a10366004613f7e565b611f44565b60405161044b9493929190614349565b610441610a33366004613c7a565b612104565b609e546104d9906001600160a01b031681565b609d546104d9906001600160a01b031681565b610646610a6c366004613ba2565b60b7602052600090815260409020546001600160401b031681565b61057a610a953660046140fe565b612258565b61044160b85481565b61057a610ab1366004613ba2565b6122bf565b60c2546104d9906001600160a01b031681565b610441610ad7366004613fd3565b60b854600090815260ba602090815260408083206001600160401b03909416835260059093019052205490565b60a55460bd546040516304a10b8960e51b81526001600160a01b039182166004820152858216602482015284821660448201526001600160801b0384166064820152600092600160401b90049091169063942171209060840160206040518083038186803b158015610b7557600080fd5b505afa158015610b89573d6000803e3d6000fd5b505050506040513d601f19601f82011682018060405250810190610bad9190613f97565b949350505050565b60608282604051602001610bca929190614278565b60405160208183030381529060405290505b92915050565b60b954600090815260bb602090815260408083206001600160401b0385168452600601825291829020805483518184028101840190945280845260609392830182828015610c4f57602002820191906000526020600020905b815481526020019060010190808311610c3b575b50505050509050919050565b610c636123e7565b6001600160401b0316600090815260a26020526040902080546001600160a01b0319166001600160a01b0392909216919091179055565b60008060aa60009054906101000a90046001600160a01b03166001600160a01b031663feaf968c6040518163ffffffff1660e01b815260040160a06040518083038186803b158015610ceb57600080fd5b505afa158015610cff573d6000803e3d6000fd5b505050506040513d601f19601f82011682018060405250810190610d239190614143565b505050915050600060aa60009054906101000a90046001600160a01b03166001600160a01b031663313ce5676040518163ffffffff1660e01b815260040160206040518083038186803b158015610d7957600080fd5b505afa158015610d8d573d6000803e3d6000fd5b505050506040513d601f19601f82011682018060405250810190610db19190614187565b9050610dbf82826012612441565b9392505050565b610dce6123e7565b610dd6612481565b565b610de06123e7565b6001600160a01b038116610e4f5760405162461bcd60e51b815260206004820152602b60248201527f5072696365206f7261636c6520616464726573732063616e6e6f74206265207a60448201526a65726f206164647265737360a81b60648201526084015b60405180910390fd5b60a580546001600160a01b03909216600160401b0268010000000000000000600160e01b0319909216919091179055565b606080606080600060ba600087815260200190815260200160002090508060000181600101826002018360030183805480602002602001604051908101604052809291908181526020018280548015610f0257602002820191906000526020600020905b81546001600160a01b03168152600190910190602001808311610ee4575b5050505050935082805480602002602001604051908101604052809291908181526020018280548015610f5457602002820191906000526020600020905b815481526020019060010190808311610f40575b5050505050925081805480602002602001604051908101604052809291908181526020018280548015610fa657602002820191906000526020600020905b815481526020019060010190808311610f92575b505050505091508080548060200260200160405190810160405280929190818152602001828054801561102a57602002820191906000526020600020906000905b82829054906101000a90046001600160401b03166001600160401b031681526020019060080190602082600701049283019260010382029150808411610fe75790505b505050505090509450945094509450509193509193565b6110496123e7565b60c280546001600160a01b0319166001600160a01b0392909216919091179055565b6110736123e7565b610dd6600061270f565b6110856123e7565b6001600160a01b0381166110f25760405162461bcd60e51b815260206004820152602e60248201527f49434f3a205072696365206665656420616464726573732063616e6e6f74206260448201526d65207a65726f206164647265737360901b6064820152608401610e46565b60aa80546001600160a01b0319166001600160a01b0392909216919091179055565b60008061123560a68054611127906147bc565b80601f0160208091040260200160405190810160405280929190818152602001828054611153906147bc565b80156111a05780601f10611175576101008083540402835291602001916111a0565b820191906000526020600020905b81548152906001019060200180831161118357829003601f168201915b505050505060a780546111b2906147bc565b80601f01602080910402602001604051908101604052809291908181526020018280546111de906147bc565b801561122b5780601f106112005761010080835404028352916020019161122b565b820191906000526020600020905b81548152906001019060200180831161120e57829003601f168201915b5050505050610bb5565b9050600061124d60a8543063b2c44b3f60e01b612761565b60408051808201909152600381526219d95d60ea1b60208201529091506112769082908461277d565b6112ce60405180604001604052806005815260200164706174683160d81b8152506040518060400160405280600e81526020016d726573756c74732c746f6b656e7360901b8152508361277d9092919063ffffffff16565b61132c604051806040016040528060058152602001643830ba341960d91b81525060405180604001604052806014815260200173726573756c74732c6d61726b657453686172657360601b8152508361277d9092919063ffffffff16565b61138660405180604001604052806005815260200164706174683360d81b8152506040518060400160405280601081526020016f726573756c74732c737761704665657360801b8152508361277d9092919063ffffffff16565b6113e5604051806040016040528060058152602001641c185d1a0d60da1b815250604051806040016040528060158152602001743932b9bab63a399631b430b4b729b2b632b1ba37b960591b8152508361277d9092919063ffffffff16565b6114036113fa6003546001600160a01b031690565b8260a95461279b565b9250505090565b60008162ffffff16600314156115b45760bc5460405163095ea7b360e01b81526001600160a01b039182166004820152602481018690529087169063095ea7b390604401602060405180830381600087803b15801561146857600080fd5b505af115801561147c573d6000803e3d6000fd5b505050506040513d601f19601f820116820180604052508101906114a09190613e43565b5060408051610100810182526001600160a01b03888116825287811660208301908152610bb883850190815287831660608501908152426080860190815260a086018b8152600060c0880181815260e0890182815260bc549a5163414bf38960e01b81528a518a166004820152975189166024890152955162ffffff166044880152935187166064870152915160848601525160a4850152905160c48401529051831660e483015292939091169063414bf3899061010401602060405180830381600087803b15801561157257600080fd5b505af1158015611586573d6000803e3d6000fd5b505050506040513d601f19601f820116820180604052508101906115aa9190613f97565b9250611723915050565b60408051600280825260608201835260009260208301908036833701905050905086816000815181106115e9576115e961484c565b60200260200101906001600160a01b031690816001600160a01b031681525050858160018151811061161d5761161d61484c565b6001600160a01b03928316602091820292909201015260be5460405163095ea7b360e01b81529082166004820152602481018790529088169063095ea7b390604401602060405180830381600087803b15801561167957600080fd5b505af115801561168d573d6000803e3d6000fd5b505050506040513d601f19601f820116820180604052508101906116b19190613e43565b5060be54604051635c11d79560e01b81526001600160a01b0390911690635c11d795906116eb90889060009086908a9042906004016144fc565b600060405180830381600087803b15801561170557600080fd5b505af1158015611719573d6000803e3d6000fd5b5050505060009150505b95945050505050565b609f546001600160a01b03163314610dce5760405162461bcd60e51b815260206004820152602e60248201527f43616c6c6572206973206e6f7420696e64657820666163746f72792062616c6160448201526d3731b2b91031b7b73a3930b1ba1760911b6064820152608401610e46565b6117a56123e7565b6117b18484848461282e565b50505050565b600054610100900460ff16158080156117d75750600054600160ff909116105b806117f15750303b1580156117f1575060005460ff166001145b6118545760405162461bcd60e51b815260206004820152602e60248201527f496e697469616c697a61626c653a20636f6e747261637420697320616c72656160448201526d191e481a5b9a5d1a585b1a5e995960921b6064820152608401610e46565b6000805460ff191660011790558015611877576000805461ff0019166101001790555b61187f613280565b60a580546001600160401b038e1667ffffffffffffffff19909116179055609d80546001600160a01b038d166001600160a01b03199091161790556118e18a600280546001600160a01b039092166001600160a01b0319909216919091179055565b600380546001600160a01b0319166001600160a01b038b1617905560a8889055600a611916670de0b6b3a76400006001614737565b61192091906145a3565b60a95560aa80546001600160a01b03199081166001600160a01b038a81169190911790925560c08054821689841617905560bc8054821688841617905560bd8054821687841617905560be8054821686841617905560bf80549091169184169190911790556040805160608101909152602a80825261488e602083013980516119b19160a69160209091019061386d565b506040518060600160405280602e81526020016148b8602e913980516119df9160a79160209091019061386d565b508015611a26576000805461ff0019169055604051600181527f7f26b83ff96e1f2b6a682f133852f6798a09c465da95921460cefb38474024989060200160405180910390a15b505050505050505050505050565b60b854600090815260ba602090815260408083206001600160401b0385168452600601825291829020805483518184028101840190945280845260609392830182828015610c4f5760200282019190600052602060002090815481526020019060010190808311610c3b5750505050509050919050565b611ab36123e7565b8151611ac69060a690602085019061386d565b508051611ada9060a790602084019061386d565b505050565b60008060005b60ad54811015611bd957600081815260b160205260408082205460c054609d5492516370a0823160e01b81526001600160a01b039384166004820152611bb793928316929091169082906370a082319060240160206040518083038186803b158015611b5057600080fd5b505afa158015611b64573d6000803e3d6000fd5b505050506040513d601f19601f82011682018060405250810190611b889190613f97565b600086815260b160209081526040808320546001600160a01b0316835260b690915290205462ffffff16612104565b9050611bc3818461458b565b9250508080611bd1906147f1565b915050611ae5565b50919050565b611be76123e7565b609f80546001600160a01b0319166001600160a01b0392909216919091179055565b60b954600090815260bb602090815260408083206001600160401b0385168452600701825291829020805483518184028101840190945280845260609392830182828015610c4f5760200282019190600052602060002090815481526020019060010190808311610c3b5750505050509050919050565b60008581526005602052604090205485906001600160a01b03163314611cf95760405162461bcd60e51b815260206004820152602860248201527f536f75726365206d75737420626520746865206f7261636c65206f6620746865604482015267081c995c5d595cdd60c21b6064820152608401610e46565b60008181526005602052604080822080546001600160a01b03191690555182917f7cc135e0cebb02c3480ae5d74d377283180a2601f8f644edf7987b009316c63a91a2611d488585858561282e565b505050505050565b611d586123e7565b6001600160a01b038116611d7e5760405162461bcd60e51b8152600401610e4690614448565b606a80546001600160a01b0319166001600160a01b0392909216919091179055565b60b854600090815260ba602090815260408083206001600160401b0385168452600701825291829020805483518184028101840190945280845260609392830182828015610c4f5760200282019190600052602060002090815481526020019060010190808311610c3b5750505050509050919050565b611e1f6123e7565b609e80546001600160a01b0319166001600160a01b0392909216919091179055565b60b854600090815260ba602090815260408083206001600160401b0385168452600501825291829020805483518184028101840190945280845260609392830182828015610c4f57602002820191906000526020600020905b81546001600160a01b03168152600190910190602001808311611e9a5750505050509050919050565b60b954600090815260bb602090815260408083206001600160401b0385168452600501825291829020805483518184028101840190945280845260609392830182828015610c4f576020028201919060005260206000209081546001600160a01b03168152600190910190602001808311611e9a5750505050509050919050565b606080606080600060bb600087815260200190815260200160002090508060000181600101826002018360030183805480602002602001604051908101604052809291908181526020018280548015611fc657602002820191906000526020600020905b81546001600160a01b03168152600190910190602001808311611fa8575b505050505093508280548060200260200160405190810160405280929190818152602001828054801561201857602002820191906000526020600020905b815481526020019060010190808311612004575b5050505050925081805480602002602001604051908101604052809291908181526020018280548015610fa657602002820191906000526020600020906000905b82829054906101000a900462ffffff1662ffffff1681526020019060030190602082600201049283019260010382029150808411612059579050505050505091508080548060200260200160405190810160405280929190818152602001828054801561102a57600091825260209182902080546001600160401b03168452908202830192909160089101808411610fe7579050505050505090509450945094509450509193509193565b6000808315611723578262ffffff166003141561212d57612126868686610b04565b9050611723565b60408051600280825260608201835260009260208301908036833701905050905086816000815181106121625761216261484c565b60200260200101906001600160a01b031690816001600160a01b03168152505085816001815181106121965761219661484c565b6001600160a01b03928316602091820292909201015260be5460405163d06ca61f60e01b8152600092919091169063d06ca61f906121da90899086906004016144e3565b60006040518083038186803b1580156121f257600080fd5b505afa158015612206573d6000803e3d6000fd5b505050506040513d6000823e601f3d908101601f1916820160405261222e9190810190613dac565b9050806001815181106122435761224361484c565b60200260200101519250505095945050505050565b6122606123e7565b6001600160401b0392909216600090815260a06020908152604080832080546001600160a01b0319166001600160a01b0395909516948517905560a1825280832093835292905220805462ffffff191662ffffff909216919091179055565b6001600160a01b0381166122e55760405162461bcd60e51b8152600401610e4690614448565b606a546001600160a01b0382811691161461235d5760405162461bcd60e51b815260206004820152603260248201527f50726f706f7361626c654f776e61626c653a206e6577206f776e6572206973206044820152713737ba10383937b837b9b2b21037bbb732b960711b6064820152608401610e46565b6001600160a01b03811633146123db5760405162461bcd60e51b815260206004820152603a60248201527f50726f706f7361626c654f776e61626c653a20746869732063616c6c206d757360448201527f74206265206d61646520627920746865206e6577206f776e65720000000000006064820152608401610e46565b6123e48161270f565b50565b6038546001600160a01b03163314610dd65760405162461bcd60e51b815260206004820181905260248201527f4f776e61626c653a2063616c6c6572206973206e6f7420746865206f776e65726044820152606401610e46565b60008260ff168260ff1611156124775761245b838361476d565b61246690600a614606565b61247090856146b2565b9050610dbf565b61245b828461476d565b600160b96000828254612494919061458b565b90915550600090505b60ac5481101561270657600081815260b060209081526040808320805460b1845282852080546001600160a01b0319166001600160a01b03928316908117825583548316875260b586528487205490875260b486528487205582548216865260b285528386205490548216865260b3855283862055905416835260b782528083205460b954845260bb83528184206001600160401b0390911680855260049091019092529091205460ff166125c45760b98054600090815260bb602081815260408084206001600160401b03878116808752600492830185528387208054600160ff199091168117909155975487529484529185206003908101805497880181558652929094209385049093018054949091166008026101000a9283021990931691021790555b60b98054600090815260bb602081815260408084206001600160401b0387168086526005909101835281852088865260b0845282862080548254600181810185559389528689200180546001600160a01b0319166001600160a01b0392831617905588548852868652848820848952600601865284882082548216895260b68752858920548154948501825590895286892062ffffff9091169301929092555416855260b583528185205495548552928252808420928452600890920190528120805490919061269590849061458b565b909155505060b954600090815260bb602090815260408083206001600160401b0390941683526007909301815282822084835260b08252838320546001600160a01b0316835260b58252928220548354600181018555938352912090910155806126fe816147f1565b91505061249d565b5060ac5460ad55565b603880546001600160a01b038381166001600160a01b0319831681179093556040519116919082907f8be0079c531659141344cd1fd0a4f28419497f9722a3daafe3b4186f6b6457e090600090a35050565b6127696138f1565b6127716138f1565b611723818686866132af565b608083015161278c90836132ec565b6080830151611ada90826132ec565b6004546000906127ac81600161458b565b600455835160408086015160808701515191516000936320214ca360e11b936127e49386938493923092918a916001916024016142a7565b60408051601f198184030181529190526020810180516001600160e01b03166001600160e01b031990931692909217909152905061282486838684613303565b9695505050505050565b60b8805485918591859185916001919060009061284c90849061458b565b909155505060ad5461287157600160b9600082825461286b919061458b565b90915550505b60005b845181101561325f5784818151811061288f5761288f61484c565b602002602001015160b0600083815260200190815260200160002060006101000a8154816001600160a01b0302191690836001600160a01b031602179055508060b260008784815181106128e5576128e561484c565b60200260200101516001600160a01b03166001600160a01b03168152602001908152602001600020819055508381815181106129235761292361484c565b602002602001015160b560008784815181106129415761294161484c565b60200260200101516001600160a01b03166001600160a01b031681526020019081526020016000208190555082818151811061297f5761297f61484c565b602002602001015160b6600087848151811061299d5761299d61484c565b60200260200101516001600160a01b03166001600160a01b0316815260200190815260200160002060006101000a81548162ffffff021916908362ffffff1602179055508181815181106129f3576129f361484c565b602002602001015160b76000878481518110612a1157612a1161484c565b60200260200101516001600160a01b03166001600160a01b0316815260200190815260200160002060006101000a8154816001600160401b0302191690836001600160401b0316021790555060ba600060b85481526020019081526020016000206004016000838381518110612a8957612a8961484c565b6020908102919091018101516001600160401b031682528101919091526040016000205460ff16612ba55760ba600060b8548152602001908152602001600020600301828281518110612ade57612ade61484c565b602002602001015190806001815401808255809150506001900390600052602060002090600491828204019190066008029091909190916101000a8154816001600160401b0302191690836001600160401b03160217905550600160ba600060b85481526020019081526020016000206004016000848481518110612b6557612b6561484c565b60200260200101516001600160401b03166001600160401b0316815260200190815260200160002060006101000a81548160ff0219169083151502179055505b60ba600060b85481526020019081526020016000206005016000838381518110612bd157612bd161484c565b60200260200101516001600160401b03166001600160401b03168152602001908152602001600020858281518110612c0b57612c0b61484c565b602090810291909101810151825460018101845560009384528284200180546001600160a01b0319166001600160a01b0390921691909117905560b854825260ba905260408120835160069091019190849084908110612c6d57612c6d61484c565b60200260200101516001600160401b03166001600160401b03168152602001908152602001600020838281518110612ca757612ca761484c565b602090810291909101810151825460018101845560009384529190922062ffffff9092169101558351849082908110612ce257612ce261484c565b602002602001015160ba600060b85481526020019081526020016000206008016000848481518110612d1657612d1661484c565b60200260200101516001600160401b03166001600160401b031681526020019081526020016000206000828254612d4d919061458b565b9250508190555060ba600060b85481526020019081526020016000206007016000838381518110612d8057612d8061484c565b60200260200101516001600160401b03166001600160401b03168152602001908152602001600020848281518110612dba57612dba61484c565b6020908102919091018101518254600181018455600093845291909220015560ad5461324d57848181518110612df257612df261484c565b602002602001015160b1600083815260200190815260200160002060006101000a8154816001600160a01b0302191690836001600160a01b03160217905550838181518110612e4357612e4361484c565b602002602001015160b46000878481518110612e6157612e6161484c565b60200260200101516001600160a01b03166001600160a01b03168152602001908152602001600020819055508060b36000878481518110612ea457612ea461484c565b60200260200101516001600160a01b03166001600160a01b031681526020019081526020016000208190555060bb600060b95481526020019081526020016000206004016000838381518110612efc57612efc61484c565b6020908102919091018101516001600160401b031682528101919091526040016000205460ff1661301857600160bb600060b95481526020019081526020016000206004016000848481518110612f5557612f5561484c565b60200260200101516001600160401b03166001600160401b0316815260200190815260200160002060006101000a81548160ff02191690831515021790555060bb600060b9548152602001908152602001600020600301828281518110612fbe57612fbe61484c565b602002602001015190806001815401808255809150506001900390600052602060002090600491828204019190066008029091909190916101000a8154816001600160401b0302191690836001600160401b031602179055505b60bb600060b954815260200190815260200160002060050160008383815181106130445761304461484c565b60200260200101516001600160401b03166001600160401b0316815260200190815260200160002085828151811061307e5761307e61484c565b602090810291909101810151825460018101845560009384528284200180546001600160a01b0319166001600160a01b0390921691909117905560b954825260bb9052604081208351600690910191908490849081106130e0576130e061484c565b60200260200101516001600160401b03166001600160401b0316815260200190815260200160002083828151811061311a5761311a61484c565b602090810291909101810151825460018101845560009384529190922062ffffff90921691015583518490829081106131555761315561484c565b602002602001015160bb600060b954815260200190815260200160002060080160008484815181106131895761318961484c565b60200260200101516001600160401b03166001600160401b0316815260200190815260200160002060008282546131c0919061458b565b9250508190555060bb600060b954815260200190815260200160002060070160008383815181106131f3576131f361484c565b60200260200101516001600160401b03166001600160401b0316815260200190815260200160002084828151811061322d5761322d61484c565b602090810291909101810151825460018101845560009384529190922001555b80613257816147f1565b915050612874565b50835160ac5560ad5461327257835160ad555b50504260ab55505050505050565b600054610100900460ff166132a75760405162461bcd60e51b8152600401610e4690614498565b610dd6613470565b6132b76138f1565b6132c785608001516101006134a0565b50509183526001600160a01b031660208301526001600160e01b031916604082015290565b6132f98260038351613505565b611ada828261360c565b6040516bffffffffffffffffffffffff193060601b1660208201526034810184905260009060540160408051808303601f1901815282825280516020918201206000818152600590925291812080546001600160a01b0319166001600160a01b038a1617905590925082917fb5e6e01e79f91267dc17b4e6314d5d4d03593d2ceee0fbb452b750bd70ea5af99190a2600254604051630200057560e51b81526001600160a01b0390911690634000aea0906133c69088908790879060040161430f565b602060405180830381600087803b1580156133e057600080fd5b505af11580156133f4573d6000803e3d6000fd5b505050506040513d601f19601f820116820180604052508101906134189190613e43565b610bad5760405162461bcd60e51b815260206004820152602360248201527f756e61626c6520746f207472616e73666572416e6443616c6c20746f206f7261604482015262636c6560e81b6064820152608401610e46565b600054610100900460ff166134975760405162461bcd60e51b8152600401610e4690614498565b610dd63361270f565b6040805180820190915260608152600060208201526134c060208361480c565b156134e8576134d060208361480c565b6134db906020614756565b6134e5908361458b565b91505b506020828101829052604080518085526000815290920101905290565b6017816001600160401b031611613529576117b18360e0600585901b168317613633565b60ff816001600160401b0316116135655761354f836018611fe0600586901b1617613633565b506117b1836001600160401b0383166001613658565b61ffff816001600160401b0316116135a25761358c836019611fe0600586901b1617613633565b506117b1836001600160401b0383166002613658565b63ffffffff816001600160401b0316116135e1576135cb83601a611fe0600586901b1617613633565b506117b1836001600160401b0383166004613658565b6135f683601b611fe0600586901b1617613633565b506117b1836001600160401b0383166008613658565b604080518082019091526060815260006020820152610dbf8384600001515184855161367e565b604080518082019091526060815260006020820152610dbf8384600001515184613768565b604080518082019091526060815260006020820152610bad8485600001515185856137c4565b60408051808201909152606081526000602082015282518211156136a157600080fd5b60208501516136b0838661458b565b11156136e3576136e3856136d3876020015187866136ce919061458b565b613845565b6136de906002614737565b613856565b6000808651805187602083010193508088870111156137025787860182525b505050602084015b60208410613742578051825261372160208361458b565b915061372e60208261458b565b905061373b602085614756565b935061370a565b51815160001960208690036101000a019081169019919091161790525083949350505050565b6040805180820190915260608152600060208201528360200151831061379d5761379d84856020015160026136de9190614737565b8351805160208583010184815350808514156137ba576001810182525b5093949350505050565b60408051808201909152606081526000602082015260208501516137e8858461458b565b11156137fc576137fc856136d3868561458b565b6000600161380c846101006145fa565b6138169190614756565b905085518386820101858319825116178152508051848701111561383a5783860181525b509495945050505050565b600081831115611bd9575081610bdc565b815161386283836134a0565b506117b1838261360c565b828054613879906147bc565b90600052602060002090601f01602090048101928261389b57600085556138e1565b82601f106138b457805160ff19168380011785556138e1565b828001600101855582156138e1579182015b828111156138e15782518255916020019190600101906138c6565b506138ed92915061392c565b5090565b6040805160a0810182526000808252602080830182905282840182905260608084018390528451808601909552845283015290608082015290565b5b808211156138ed576000815560010161392d565b600082601f83011261395257600080fd5b8135602061396761396283614568565b614538565b80838252828201915082860187848660051b890101111561398757600080fd5b60005b858110156139af57813561399d81614878565b8452928401929084019060010161398a565b5090979650505050505050565b600082601f8301126139cd57600080fd5b813560206139dd61396283614568565b80838252828201915082860187848660051b89010111156139fd57600080fd5b60005b858110156139af57613a1182613b59565b84529284019290840190600101613a00565b600082601f830112613a3457600080fd5b81356020613a4461396283614568565b80838252828201915082860187848660051b8901011115613a6457600080fd5b60005b858110156139af57813584529284019290840190600101613a67565b600082601f830112613a9457600080fd5b81356020613aa461396283614568565b80838252828201915082860187848660051b8901011115613ac457600080fd5b60005b858110156139af57613ad882613b71565b84529284019290840190600101613ac7565b600082601f830112613afb57600080fd5b81356001600160401b03811115613b1457613b14614862565b613b27601f8201601f1916602001614538565b818152846020838601011115613b3c57600080fd5b816020850160208301376000918101602001919091529392505050565b803562ffffff81168114613b6c57600080fd5b919050565b80356001600160401b0381168114613b6c57600080fd5b805169ffffffffffffffffffff81168114613b6c57600080fd5b600060208284031215613bb457600080fd5b8135610dbf81614878565b600080600060608486031215613bd457600080fd5b8335613bdf81614878565b92506020840135613bef81614878565b915060408401356001600160801b0381168114613c0b57600080fd5b809150509250925092565b600080600080600060a08688031215613c2e57600080fd5b8535613c3981614878565b94506020860135613c4981614878565b9350604086013592506060860135613c6081614878565b9150613c6e60808701613b59565b90509295509295909350565b60008060008060808587031215613c9057600080fd5b8435613c9b81614878565b93506020850135613cab81614878565b925060408501359150613cc060608601613b59565b905092959194509250565b60008060408385031215613cde57600080fd5b8235613ce981614878565b9150613cf760208401613b71565b90509250929050565b60008060008060808587031215613d1657600080fd5b84356001600160401b0380821115613d2d57600080fd5b613d3988838901613941565b95506020870135915080821115613d4f57600080fd5b613d5b88838901613a23565b94506040870135915080821115613d7157600080fd5b613d7d888389016139bc565b93506060870135915080821115613d9357600080fd5b50613da087828801613a83565b91505092959194509250565b60006020808385031215613dbf57600080fd5b82516001600160401b03811115613dd557600080fd5b8301601f81018513613de657600080fd5b8051613df461396282614568565b80828252848201915084840188868560051b8701011115613e1457600080fd5b600094505b83851015613e37578051835260019490940193918501918501613e19565b50979650505050505050565b600060208284031215613e5557600080fd5b81518015158114610dbf57600080fd5b600080600080600060a08688031215613e7d57600080fd5b8535945060208601356001600160401b0380821115613e9b57600080fd5b613ea789838a01613941565b95506040880135915080821115613ebd57600080fd5b613ec989838a01613a23565b94506060880135915080821115613edf57600080fd5b613eeb89838a016139bc565b93506080880135915080821115613f0157600080fd5b50613f0e88828901613a83565b9150509295509295909350565b60008060408385031215613f2e57600080fd5b82356001600160401b0380821115613f4557600080fd5b613f5186838701613aea565b93506020850135915080821115613f6757600080fd5b50613f7485828601613aea565b9150509250929050565b600060208284031215613f9057600080fd5b5035919050565b600060208284031215613fa957600080fd5b5051919050565b60008060408385031215613fc357600080fd5b82359150613cf760208401613b71565b600060208284031215613fe557600080fd5b610dbf82613b71565b6000806040838503121561400157600080fd5b61400a83613b71565b9150602083013561401a81614878565b809150509250929050565b60008060008060008060008060008060006101608c8e03121561404757600080fd5b6140508c613b71565b9a5060208c013561406081614878565b995060408c013561407081614878565b985060608c013561408081614878565b975060808c0135965060a08c013561409781614878565b955060c08c01356140a781614878565b945060e08c01356140b781614878565b93506101008c01356140c881614878565b92506101208c01356140d981614878565b91506101408c01356140ea81614878565b809150509295989b509295989b9093969950565b60008060006060848603121561411357600080fd5b61411c84613b71565b9250602084013561412c81614878565b915061413a60408501613b59565b90509250925092565b600080600080600060a0868803121561415b57600080fd5b61416486613b88565b9450602086015193506040860151925060608601519150613c6e60808701613b88565b60006020828403121561419957600080fd5b815160ff81168114610dbf57600080fd5b600081518084526020808501945080840160005b8381101561383a5781516001600160a01b0316875295820195908201906001016141be565b600081518084526020808501945080840160005b8381101561383a578151875295820195908201906001016141f7565b600081518084526020808501945080840160005b8381101561383a5781516001600160401b031687529582019590820190600101614227565b60008151808452614264816020860160208601614790565b601f01601f19169290920160200192915050565b6000835161428a818460208801614790565b83519083019061429e818360208801614790565b01949350505050565b6001600160a01b0389811682526020820189905260408201889052861660608201526001600160e01b03198516608082015260a0810184905260c0810183905261010060e082018190526000906143008382018561424c565b9b9a5050505050505050505050565b60018060a01b0384168152826020820152606060408201526000611723606083018461424c565b602081526000610dbf60208301846141aa565b60808152600061435c60808301876141aa565b60208382038185015261436f82886141e3565b8481036040860152865180825282880193509082019060005b818110156143a957845162ffffff1683529383019391830191600101614388565b505084810360608601526143bd8187614213565b9998505050505050505050565b6080815260006143dd60808301876141aa565b82810360208401526143ef81876141e3565b9050828103604084015261440381866141e3565b905082810360608401526144178185614213565b979650505050505050565b602081526000610dbf60208301846141e3565b602081526000610dbf602083018461424c565b60208082526030908201527f50726f706f7361626c654f776e61626c653a206e6577206f776e65722069732060408201526f746865207a65726f206164647265737360801b606082015260800190565b6020808252602b908201527f496e697469616c697a61626c653a20636f6e7472616374206973206e6f74206960408201526a6e697469616c697a696e6760a81b606082015260800190565b828152604060208201526000610bad60408301846141aa565b85815284602082015260a06040820152600061451b60a08301866141aa565b6001600160a01b0394909416606083015250608001529392505050565b604051601f8201601f191681016001600160401b038111828210171561456057614560614862565b604052919050565b60006001600160401b0382111561458157614581614862565b5060051b60200190565b6000821982111561459e5761459e614820565b500190565b6000826145b2576145b2614836565b500490565b600181815b808511156145f25781600019048211156145d8576145d8614820565b808516156145e557918102915b93841c93908002906145bc565b509250929050565b6000610dbf8383614611565b6000610dbf60ff8416835b60008261462057506001610bdc565b8161462d57506000610bdc565b8160018114614643576002811461464d57614669565b6001915050610bdc565b60ff84111561465e5761465e614820565b50506001821b610bdc565b5060208310610133831016604e8410600b841016171561468c575081810a610bdc565b61469683836145b7565b80600019048211156146aa576146aa614820565b029392505050565b60006001600160ff1b03818413828413808216868404861116156146d8576146d8614820565b600160ff1b60008712828116878305891216156146f7576146f7614820565b6000871292508782058712848416161561471357614713614820565b8785058712818416161561472957614729614820565b505050929093029392505050565b600081600019048311821515161561475157614751614820565b500290565b60008282101561476857614768614820565b500390565b600060ff821660ff84168082101561478757614787614820565b90039392505050565b60005b838110156147ab578181015183820152602001614793565b838111156117b15750506000910152565b600181811c908216806147d057607f821691505b60208210811415611bd957634e487b7160e01b600052602260045260246000fd5b600060001982141561480557614805614820565b5060010190565b60008261481b5761481b614836565b500690565b634e487b7160e01b600052601160045260246000fd5b634e487b7160e01b600052601260045260246000fd5b634e487b7160e01b600052603260045260246000fd5b634e487b7160e01b600052604160045260246000fd5b6001600160a01b03811681146123e457600080fdfe68747470733a2f2f6170702e6e65786c6162732e696f2f6170692f616c6c46756e64696e6752617465733f6d756c7469706c7946756e633d31382674696d65734e656746756e643d74727565266172726179733d74727565a2646970667358221220c97f63c13461e309896638a6c1d637b7fa0cc3b9d798c3df78e921bd4e86a43f64736f6c63430008070033","linkReferences":{}},"methodIdentifiers":{"allCurrentChainSelectorTokenShares(uint64)":"af696b34","allCurrentChainSelectorTokens(uint64)":"d1c68aa3","allCurrentChainSelectorVersions(uint64)":"221f3371","allOracleChainSelectorTokenShares(uint64)":"bf0d49c0","allOracleChainSelectorTokens(uint64)":"d050ca7c","allOracleChainSelectorVersions(uint64)":"a1adff88","concatenation(string,string)":"0e329357","crossChainFactoryBySelector(uint64)":"340fbc74","crossChainToken(uint64)":"19da7e2a","crossChainTokenSwapFee(uint64,address)":"652354ae","currentChainSelector()":"3d54cb6f","currentChainSelectorTokensCount(uint64)":"b6ad185b","currentChainSelectorsCount()":"69487b1c","currentFilledCount()":"b90b8a2a","currentList(uint256)":"9932ba4c","estimateAmountOut(address,address,uint128)":"0456f9c8","externalJobId()":"a8b54bd4","factoryV2()":"68e0d4e1","factoryV3()":"1d5f45f5","feeRate()":"978bbdb9","fulfillAssetsData(bytes32,address[],uint256[],uint24[],uint64[])":"b2c44b3f","getAmountOut(address,address,uint256,uint24)":"dd811ac9","getCurrentChainSelectorTotalShares(uint256,uint64)":"2a3ff8ad","getCurrentData(uint256)":"d3f7f266","getOracleData(uint256)":"536e3f6a","getPortfolioBalance()":"a8509fd8","indexFactory()":"e3fd0af2","indexFactoryBalancer()":"29d75de9","indexToken()":"e7d015f2","initialize(uint64,address,address,address,bytes32,address,address,address,address,address,address)":"9ebe560e","lastUpdateTime()":"c8f33c91","latestFeeUpdate()":"011ced5f","mockFillAssetsList(address[],uint256[],uint24[],uint64[])":"8bb8f1bb","mockUpdateCurrentList()":"4f9641b9","oracleChainSelectorTokensCount(uint64)":"fc698b4a","oracleChainSelectorsCount()":"8e9d7c18","oracleFilledCount()":"f1581787","oracleList(uint256)":"239aad0d","oraclePayment()":"0c02e130","owner()":"8da5cb5b","priceInWei()":"3c8da588","priceOracle()":"2630c12f","proposeOwner(address)":"b5ed298a","proposedOwner()":"d153b60c","quoter()":"c6bbd5a7","renounceOwnership()":"715018a6","requestAssetsData()":"7ca58c55","setCrossChainFactory(address,uint64)":"271040df","setCrossChainToken(uint64,address,uint24)":"f0cd5b72","setIndexFactory(address)":"d047937f","setIndexFactoryBalancer(address)":"ae214f39","setPriceFeed(address)":"724e78da","setPriceOracle(address)":"530e784f","setUrl(string,string)":"a73e1cbf","setVault(address)":"6817031b","swap(address,address,uint256,address,uint24)":"7e79f512","swapRouterV2()":"744fbc7a","swapRouterV3()":"b631e80b","toUsdPriceFeed()":"63973fda","tokenChainSelector(address)":"ea8ecf04","tokenCurrentListIndex(address)":"914f0cc6","tokenCurrentMarketShare(address)":"0be52713","tokenOracleListIndex(address)":"8c88c10c","tokenOracleMarketShare(address)":"4b3e0b80","tokenSwapFee(address)":"32599665","totalCurrentChainSelectors()":"92e410ce","totalCurrentList()":"53fd4332","totalOracleChainSelectors()":"80acffa3","totalOracleList()":"c8599ded","transferOwnership(address)":"f2fde38b","updateCurrentList()":"8baa6bf1","vault()":"fbfa77cf","weth()":"3fc8cef3"},"id":5}