{"abi":[{"type":"function","name":"allCurrentChainSelectorTokenShares","inputs":[{"name":"_chainSelector","type":"uint64","internalType":"uint64"}],"outputs":[{"name":"","type":"uint256[]","internalType":"uint256[]"}],"stateMutability":"view"},{"type":"function","name":"allCurrentChainSelectorTokens","inputs":[{"name":"_chainSelector","type":"uint64","internalType":"uint64"}],"outputs":[{"name":"tokens","type":"address[]","internalType":"address[]"}],"stateMutability":"view"},{"type":"function","name":"allCurrentChainSelectorVersions","inputs":[{"name":"_chainSelector","type":"uint64","internalType":"uint64"}],"outputs":[{"name":"versions","type":"uint256[]","internalType":"uint256[]"}],"stateMutability":"view"},{"type":"function","name":"allOracleChainSelectorTokenShares","inputs":[{"name":"_chainSelector","type":"uint64","internalType":"uint64"}],"outputs":[{"name":"","type":"uint256[]","internalType":"uint256[]"}],"stateMutability":"view"},{"type":"function","name":"allOracleChainSelectorTokens","inputs":[{"name":"_chainSelector","type":"uint64","internalType":"uint64"}],"outputs":[{"name":"tokens","type":"address[]","internalType":"address[]"}],"stateMutability":"view"},{"type":"function","name":"allOracleChainSelectorVersions","inputs":[{"name":"_chainSelector","type":"uint64","internalType":"uint64"}],"outputs":[{"name":"versions","type":"uint256[]","internalType":"uint256[]"}],"stateMutability":"view"},{"type":"function","name":"concatenation","inputs":[{"name":"a","type":"string","internalType":"string"},{"name":"b","type":"string","internalType":"string"}],"outputs":[{"name":"","type":"string","internalType":"string"}],"stateMutability":"pure"},{"type":"function","name":"crossChainFactoryBySelector","inputs":[{"name":"","type":"uint64","internalType":"uint64"}],"outputs":[{"name":"","type":"address","internalType":"address"}],"stateMutability":"view"},{"type":"function","name":"crossChainToken","inputs":[{"name":"","type":"uint64","internalType":"uint64"}],"outputs":[{"name":"","type":"address","internalType":"address"}],"stateMutability":"view"},{"type":"function","name":"crossChainTokenSwapVersion","inputs":[{"name":"","type":"uint64","internalType":"uint64"},{"name":"","type":"address","internalType":"address"}],"outputs":[{"name":"","type":"uint256","internalType":"uint256"}],"stateMutability":"view"},{"type":"function","name":"currentChainSelector","inputs":[],"outputs":[{"name":"","type":"uint64","internalType":"uint64"}],"stateMutability":"view"},{"type":"function","name":"currentChainSelectorTokenShares","inputs":[{"name":"","type":"uint256","internalType":"uint256"},{"name":"","type":"uint64","internalType":"uint64"},{"name":"","type":"uint256","internalType":"uint256"}],"outputs":[{"name":"","type":"uint256","internalType":"uint256"}],"stateMutability":"view"},{"type":"function","name":"currentChainSelectorTokens","inputs":[{"name":"","type":"uint256","internalType":"uint256"},{"name":"","type":"uint64","internalType":"uint64"},{"name":"","type":"uint256","internalType":"uint256"}],"outputs":[{"name":"","type":"address","internalType":"address"}],"stateMutability":"view"},{"type":"function","name":"currentChainSelectorTokensCount","inputs":[{"name":"_chainSelector","type":"uint64","internalType":"uint64"}],"outputs":[{"name":"","type":"uint256","internalType":"uint256"}],"stateMutability":"view"},{"type":"function","name":"currentChainSelectorTotalShares","inputs":[{"name":"","type":"uint256","internalType":"uint256"},{"name":"","type":"uint64","internalType":"uint64"}],"outputs":[{"name":"","type":"uint256","internalType":"uint256"}],"stateMutability":"view"},{"type":"function","name":"currentChainSelectorVersions","inputs":[{"name":"","type":"uint256","internalType":"uint256"},{"name":"","type":"uint64","internalType":"uint64"},{"name":"","type":"uint256","internalType":"uint256"}],"outputs":[{"name":"","type":"uint256","internalType":"uint256"}],"stateMutability":"view"},{"type":"function","name":"currentChainSelectors","inputs":[{"name":"","type":"uint256","internalType":"uint256"},{"name":"","type":"uint256","internalType":"uint256"}],"outputs":[{"name":"","type":"uint64","internalType":"uint64"}],"stateMutability":"view"},{"type":"function","name":"currentChainSelectorsCount","inputs":[],"outputs":[{"name":"","type":"uint256","internalType":"uint256"}],"stateMutability":"view"},{"type":"function","name":"currentFilledCount","inputs":[],"outputs":[{"name":"","type":"uint256","internalType":"uint256"}],"stateMutability":"view"},{"type":"function","name":"currentList","inputs":[{"name":"","type":"uint256","internalType":"uint256"}],"outputs":[{"name":"","type":"address","internalType":"address"}],"stateMutability":"view"},{"type":"function","name":"estimateAmountOut","inputs":[{"name":"tokenIn","type":"address","internalType":"address"},{"name":"tokenOut","type":"address","internalType":"address"},{"name":"amountIn","type":"uint128","internalType":"uint128"}],"outputs":[{"name":"amountOut","type":"uint256","internalType":"uint256"}],"stateMutability":"view"},{"type":"function","name":"externalJobId","inputs":[],"outputs":[{"name":"","type":"bytes32","internalType":"bytes32"}],"stateMutability":"view"},{"type":"function","name":"factoryV2","inputs":[],"outputs":[{"name":"","type":"address","internalType":"contract IUniswapV2Factory"}],"stateMutability":"view"},{"type":"function","name":"factoryV3","inputs":[],"outputs":[{"name":"","type":"address","internalType":"contract IUniswapV3Factory"}],"stateMutability":"view"},{"type":"function","name":"feeRate","inputs":[],"outputs":[{"name":"","type":"uint8","internalType":"uint8"}],"stateMutability":"view"},{"type":"function","name":"fulfillAssetsData","inputs":[{"name":"requestId","type":"bytes32","internalType":"bytes32"},{"name":"_tokens","type":"address[]","internalType":"address[]"},{"name":"_marketShares","type":"uint256[]","internalType":"uint256[]"},{"name":"_swapVersions","type":"uint256[]","internalType":"uint256[]"},{"name":"_chainSelectors","type":"uint64[]","internalType":"uint64[]"}],"outputs":[],"stateMutability":"nonpayable"},{"type":"function","name":"getAmountOut","inputs":[{"name":"tokenIn","type":"address","internalType":"address"},{"name":"tokenOut","type":"address","internalType":"address"},{"name":"amountIn","type":"uint256","internalType":"uint256"},{"name":"_swapVersion","type":"uint256","internalType":"uint256"}],"outputs":[{"name":"finalAmountOutValue","type":"uint256","internalType":"uint256"}],"stateMutability":"view"},{"type":"function","name":"getPortfolioBalance","inputs":[],"outputs":[{"name":"","type":"uint256","internalType":"uint256"}],"stateMutability":"view"},{"type":"function","name":"indexFactory","inputs":[],"outputs":[{"name":"","type":"address","internalType":"address"}],"stateMutability":"view"},{"type":"function","name":"indexFactoryBalancer","inputs":[],"outputs":[{"name":"","type":"address","internalType":"address"}],"stateMutability":"view"},{"type":"function","name":"indexToken","inputs":[],"outputs":[{"name":"","type":"address","internalType":"contract IndexToken"}],"stateMutability":"view"},{"type":"function","name":"initialize","inputs":[{"name":"_currentChainSelector","type":"uint64","internalType":"uint64"},{"name":"_token","type":"address","internalType":"address payable"},{"name":"_chainlinkToken","type":"address","internalType":"address"},{"name":"_oracleAddress","type":"address","internalType":"address"},{"name":"_externalJobId","type":"bytes32","internalType":"bytes32"},{"name":"_toUsdPriceFeed","type":"address","internalType":"address"},{"name":"_weth","type":"address","internalType":"address"},{"name":"_swapRouterV3","type":"address","internalType":"address"},{"name":"_factoryV3","type":"address","internalType":"address"},{"name":"_swapRouterV2","type":"address","internalType":"address"},{"name":"_factoryV2","type":"address","internalType":"address"}],"outputs":[],"stateMutability":"nonpayable"},{"type":"function","name":"isCurrentChainSelectorStored","inputs":[{"name":"","type":"uint256","internalType":"uint256"},{"name":"","type":"uint64","internalType":"uint64"}],"outputs":[{"name":"","type":"bool","internalType":"bool"}],"stateMutability":"view"},{"type":"function","name":"isOracleChainSelectorStored","inputs":[{"name":"","type":"uint256","internalType":"uint256"},{"name":"","type":"uint64","internalType":"uint64"}],"outputs":[{"name":"","type":"bool","internalType":"bool"}],"stateMutability":"view"},{"type":"function","name":"lastUpdateTime","inputs":[],"outputs":[{"name":"","type":"uint256","internalType":"uint256"}],"stateMutability":"view"},{"type":"function","name":"latestFeeUpdate","inputs":[],"outputs":[{"name":"","type":"uint256","internalType":"uint256"}],"stateMutability":"view"},{"type":"function","name":"mockFillAssetsList","inputs":[{"name":"_tokens","type":"address[]","internalType":"address[]"},{"name":"_marketShares","type":"uint256[]","internalType":"uint256[]"},{"name":"_swapVersions","type":"uint256[]","internalType":"uint256[]"},{"name":"_chainSelectors","type":"uint64[]","internalType":"uint64[]"}],"outputs":[],"stateMutability":"nonpayable"},{"type":"function","name":"mockUpdateCurrentList","inputs":[],"outputs":[],"stateMutability":"nonpayable"},{"type":"function","name":"oracleChainSelectorTokenShares","inputs":[{"name":"","type":"uint256","internalType":"uint256"},{"name":"","type":"uint64","internalType":"uint64"},{"name":"","type":"uint256","internalType":"uint256"}],"outputs":[{"name":"","type":"uint256","internalType":"uint256"}],"stateMutability":"view"},{"type":"function","name":"oracleChainSelectorTokens","inputs":[{"name":"","type":"uint256","internalType":"uint256"},{"name":"","type":"uint64","internalType":"uint64"},{"name":"","type":"uint256","internalType":"uint256"}],"outputs":[{"name":"","type":"address","internalType":"address"}],"stateMutability":"view"},{"type":"function","name":"oracleChainSelectorTokensCount","inputs":[{"name":"_chainSelector","type":"uint64","internalType":"uint64"}],"outputs":[{"name":"","type":"uint256","internalType":"uint256"}],"stateMutability":"view"},{"type":"function","name":"oracleChainSelectorTotalShares","inputs":[{"name":"","type":"uint256","internalType":"uint256"},{"name":"","type":"uint64","internalType":"uint64"}],"outputs":[{"name":"","type":"uint256","internalType":"uint256"}],"stateMutability":"view"},{"type":"function","name":"oracleChainSelectorVersions","inputs":[{"name":"","type":"uint256","internalType":"uint256"},{"name":"","type":"uint64","internalType":"uint64"},{"name":"","type":"uint256","internalType":"uint256"}],"outputs":[{"name":"","type":"uint256","internalType":"uint256"}],"stateMutability":"view"},{"type":"function","name":"oracleChainSelectors","inputs":[{"name":"","type":"uint256","internalType":"uint256"},{"name":"","type":"uint256","internalType":"uint256"}],"outputs":[{"name":"","type":"uint64","internalType":"uint64"}],"stateMutability":"view"},{"type":"function","name":"oracleChainSelectorsCount","inputs":[],"outputs":[{"name":"","type":"uint256","internalType":"uint256"}],"stateMutability":"view"},{"type":"function","name":"oracleFilledCount","inputs":[],"outputs":[{"name":"","type":"uint256","internalType":"uint256"}],"stateMutability":"view"},{"type":"function","name":"oracleList","inputs":[{"name":"","type":"uint256","internalType":"uint256"}],"outputs":[{"name":"","type":"address","internalType":"address"}],"stateMutability":"view"},{"type":"function","name":"oraclePayment","inputs":[],"outputs":[{"name":"","type":"uint256","internalType":"uint256"}],"stateMutability":"view"},{"type":"function","name":"owner","inputs":[],"outputs":[{"name":"","type":"address","internalType":"address"}],"stateMutability":"view"},{"type":"function","name":"priceInWei","inputs":[],"outputs":[{"name":"","type":"uint256","internalType":"uint256"}],"stateMutability":"view"},{"type":"function","name":"proposeOwner","inputs":[{"name":"_proposedOwner","type":"address","internalType":"address"}],"outputs":[],"stateMutability":"nonpayable"},{"type":"function","name":"proposedOwner","inputs":[],"outputs":[{"name":"","type":"address","internalType":"address"}],"stateMutability":"view"},{"type":"function","name":"quoter","inputs":[],"outputs":[{"name":"","type":"address","internalType":"contract IQuoter"}],"stateMutability":"view"},{"type":"function","name":"renounceOwnership","inputs":[],"outputs":[],"stateMutability":"nonpayable"},{"type":"function","name":"requestAssetsData","inputs":[],"outputs":[{"name":"","type":"bytes32","internalType":"bytes32"}],"stateMutability":"nonpayable"},{"type":"function","name":"setCrossChainFactory","inputs":[{"name":"_crossChainFactoryAddress","type":"address","internalType":"address"},{"name":"_chainSelector","type":"uint64","internalType":"uint64"}],"outputs":[],"stateMutability":"nonpayable"},{"type":"function","name":"setCrossChainToken","inputs":[{"name":"_chainSelector","type":"uint64","internalType":"uint64"},{"name":"_crossChainToken","type":"address","internalType":"address"},{"name":"_swapVersion","type":"uint256","internalType":"uint256"}],"outputs":[],"stateMutability":"nonpayable"},{"type":"function","name":"setIndexFactory","inputs":[{"name":"_indexFactory","type":"address","internalType":"address"}],"outputs":[],"stateMutability":"nonpayable"},{"type":"function","name":"setIndexFactoryBalancer","inputs":[{"name":"_indexFactoryBalancer","type":"address","internalType":"address"}],"outputs":[],"stateMutability":"nonpayable"},{"type":"function","name":"setPriceFeed","inputs":[{"name":"_toUsdPricefeed","type":"address","internalType":"address"}],"outputs":[],"stateMutability":"nonpayable"},{"type":"function","name":"setUrl","inputs":[{"name":"_beforeAddress","type":"string","internalType":"string"},{"name":"_afterAddress","type":"string","internalType":"string"}],"outputs":[],"stateMutability":"nonpayable"},{"type":"function","name":"swap","inputs":[{"name":"tokenIn","type":"address","internalType":"address"},{"name":"tokenOut","type":"address","internalType":"address"},{"name":"amountIn","type":"uint256","internalType":"uint256"},{"name":"_recipient","type":"address","internalType":"address"},{"name":"_swapVersion","type":"uint256","internalType":"uint256"}],"outputs":[{"name":"","type":"uint256","internalType":"uint256"}],"stateMutability":"nonpayable"},{"type":"function","name":"swapRouterV2","inputs":[],"outputs":[{"name":"","type":"address","internalType":"contract IUniswapV2Router02"}],"stateMutability":"view"},{"type":"function","name":"swapRouterV3","inputs":[],"outputs":[{"name":"","type":"address","internalType":"contract ISwapRouter"}],"stateMutability":"view"},{"type":"function","name":"toUsdPriceFeed","inputs":[],"outputs":[{"name":"","type":"address","internalType":"contract AggregatorV3Interface"}],"stateMutability":"view"},{"type":"function","name":"tokenChainSelector","inputs":[{"name":"","type":"address","internalType":"address"}],"outputs":[{"name":"","type":"uint64","internalType":"uint64"}],"stateMutability":"view"},{"type":"function","name":"tokenCurrentListIndex","inputs":[{"name":"","type":"address","internalType":"address"}],"outputs":[{"name":"","type":"uint256","internalType":"uint256"}],"stateMutability":"view"},{"type":"function","name":"tokenCurrentMarketShare","inputs":[{"name":"","type":"address","internalType":"address"}],"outputs":[{"name":"","type":"uint256","internalType":"uint256"}],"stateMutability":"view"},{"type":"function","name":"tokenOracleListIndex","inputs":[{"name":"","type":"address","internalType":"address"}],"outputs":[{"name":"","type":"uint256","internalType":"uint256"}],"stateMutability":"view"},{"type":"function","name":"tokenOracleMarketShare","inputs":[{"name":"","type":"address","internalType":"address"}],"outputs":[{"name":"","type":"uint256","internalType":"uint256"}],"stateMutability":"view"},{"type":"function","name":"tokenSwapVersion","inputs":[{"name":"","type":"address","internalType":"address"}],"outputs":[{"name":"","type":"uint256","internalType":"uint256"}],"stateMutability":"view"},{"type":"function","name":"totalCurrentChainSelectors","inputs":[],"outputs":[{"name":"","type":"uint256","internalType":"uint256"}],"stateMutability":"view"},{"type":"function","name":"totalCurrentList","inputs":[],"outputs":[{"name":"","type":"uint256","internalType":"uint256"}],"stateMutability":"view"},{"type":"function","name":"totalOracleChainSelectors","inputs":[],"outputs":[{"name":"","type":"uint256","internalType":"uint256"}],"stateMutability":"view"},{"type":"function","name":"totalOracleList","inputs":[],"outputs":[{"name":"","type":"uint256","internalType":"uint256"}],"stateMutability":"view"},{"type":"function","name":"transferOwnership","inputs":[{"name":"newOwner","type":"address","internalType":"address"}],"outputs":[],"stateMutability":"nonpayable"},{"type":"function","name":"updateCurrentList","inputs":[],"outputs":[],"stateMutability":"nonpayable"},{"type":"function","name":"weth","inputs":[],"outputs":[{"name":"","type":"address","internalType":"contract IWETH"}],"stateMutability":"view"},{"type":"event","name":"ChainlinkCancelled","inputs":[{"name":"id","type":"bytes32","indexed":true,"internalType":"bytes32"}],"anonymous":false},{"type":"event","name":"ChainlinkFulfilled","inputs":[{"name":"id","type":"bytes32","indexed":true,"internalType":"bytes32"}],"anonymous":false},{"type":"event","name":"ChainlinkRequested","inputs":[{"name":"id","type":"bytes32","indexed":true,"internalType":"bytes32"}],"anonymous":false},{"type":"event","name":"Initialized","inputs":[{"name":"version","type":"uint8","indexed":false,"internalType":"uint8"}],"anonymous":false},{"type":"event","name":"OwnershipTransferred","inputs":[{"name":"previousOwner","type":"address","indexed":true,"internalType":"address"},{"name":"newOwner","type":"address","indexed":true,"internalType":"address"}],"anonymous":false},{"type":"error","name":"T","inputs":[]}],"bytecode":{"object":"0x60806040523480156200001157600080fd5b506181a280620000226000396000f3fe608060405234801561001057600080fd5b506004361061046a5760003560e01c8063914f0cc61161024c578063bd96993c11610146578063d1db5984116100c3578063e7d015f211610087578063e7d015f214610eff578063ea8ecf0414610f1d578063f158178714610f4d578063f2fde38b14610f6b578063fc698b4a14610f875761046a565b8063d1db598414610e49578063d7eefdaa14610e65578063d90bc21114610e81578063db56192214610eb1578063e3fd0af214610ee15761046a565b8063cf0952391161010a578063cf09523914610d7f578063d047937f14610daf578063d050ca7c14610dcb578063d153b60c14610dfb578063d1c68aa314610e195761046a565b8063bd96993c14610cc5578063bf0d49c014610cf5578063c6bbd5a714610d25578063c8599ded14610d43578063c8f33c9114610d615761046a565b8063a73e1cbf116101d4578063b5ed298a11610198578063b5ed298a14610c0d578063b631e80b14610c29578063b6ad185b14610c47578063b90b8a2a14610c77578063bb0ed51314610c955761046a565b8063a73e1cbf14610b69578063a8509fd814610b85578063a8b54bd414610ba3578063ae214f3914610bc1578063af696b3414610bdd5761046a565b80639932ba4c1161021b5780639932ba4c14610a8d5780639c8bbe8f14610abd5780639ebe560e14610aed5780639f91affc14610b09578063a1adff8814610b395761046a565b8063914f0cc6146109f157806392e410ce14610a2157806395a7e2b314610a3f578063978bbdb914610a6f5761046a565b80633d54cb6f11610368578063715018a6116102e557806380acffa3116102a957806380acffa31461095d5780638baa6bf11461097b5780638c88c10c146109855780638da5cb5b146109b55780638e9d7c18146109d35761046a565b8063715018a6146108cb578063724e78da146108d5578063744fbc7a146108f157806377b2688f1461090f5780637ca58c551461093f5761046a565b80634f9641b91161032c5780634f9641b91461084957806353fd43321461085357806363973fda1461087157806368e0d4e11461088f57806369487b1c146108ad5761046a565b80633d54cb6f1461077d5780633fc8cef31461079b5780633ff34ef4146107b957806344fd376f146107e95780634b3e0b80146108195761046a565b806319da7e2a116103f6578063271040df116103ba578063271040df146106c5578063271b5fcc146106e157806329d75de914610711578063340fbc741461072f5780633c8da5881461075f5761046a565b806319da7e2a146105e75780631d5f45f514610617578063221f337114610635578063239aad0d146106655780632585dd26146106955761046a565b80630e3293571161043d5780630e3293571461050b57806313cb1f831461053b578063174cbe501461056b57806317d88f461461059b578063195c4913146105cb5761046a565b8063011ced5f1461046f5780630456f9c81461048d5780630be52713146104bd5780630c02e130146104ed575b600080fd5b610477610fb7565b60405161048491906171d2565b60405180910390f35b6104a760048036038101906104a29190616002565b610fbd565b6040516104b491906171d2565b60405180910390f35b6104d760048036038101906104d29190615fa8565b611097565b6040516104e491906171d2565b60405180910390f35b6104f56110af565b60405161050291906171d2565b60405180910390f35b610525600480360381019061052091906163af565b6110b5565b6040516105329190617054565b60405180910390f35b610555600480360381019061055091906160d0565b6110e1565b60405161056291906171d2565b60405180910390f35b61058560048036038101906105809190616623565b6112d8565b60405161059291906171d2565b60405180910390f35b6105b560048036038101906105b09190616055565b6112fd565b6040516105c291906171d2565b60405180910390f35b6105e560048036038101906105e09190616757565b611753565b005b61060160048036038101906105fc91906165f6565b61182f565b60405161060e9190616da9565b60405180910390f35b61061f611862565b60405161062c9190616fe8565b60405180910390f35b61064f600480360381019061064a91906165f6565b611888565b60405161065c9190616f09565b60405180910390f35b61067f600480360381019061067a91906164c9565b61191a565b60405161068c9190616da9565b60405180910390f35b6106af60048036038101906106aa9190616563565b61194d565b6040516106bc9190616f2b565b60405180910390f35b6106df60048036038101906106da9190616137565b61197c565b005b6106fb60048036038101906106f691906165a3565b6119ee565b6040516107089190616da9565b60405180910390f35b610719611a49565b6040516107269190616da9565b60405180910390f35b610749600480360381019061074491906165f6565b611a6f565b6040516107569190616da9565b60405180910390f35b610767611aa2565b60405161077491906171d2565b60405180910390f35b610785611c05565b6040516107929190617277565b60405180910390f35b6107a3611c1f565b6040516107b09190617003565b60405180910390f35b6107d360048036038101906107ce9190616563565b611c45565b6040516107e09190616f2b565b60405180910390f35b61080360048036038101906107fe9190616563565b611c74565b60405161081091906171d2565b60405180910390f35b610833600480360381019061082e9190615fa8565b611c99565b60405161084091906171d2565b60405180910390f35b610851611cb1565b005b61085b611cc3565b60405161086891906171d2565b60405180910390f35b610879611cc9565b6040516108869190616f61565b60405180910390f35b610897611cef565b6040516108a49190616fb2565b60405180910390f35b6108b5611d15565b6040516108c291906171d2565b60405180910390f35b6108d3611d35565b005b6108ef60048036038101906108ea9190615fa8565b611d49565b005b6108f9611e05565b6040516109069190616fcd565b60405180910390f35b61092960048036038101906109249190616563565b611e2b565b60405161093691906171d2565b60405180910390f35b610947611e50565b6040516109549190616f46565b60405180910390f35b6109656121ec565b60405161097291906171d2565b60405180910390f35b6109836121f2565b005b61099f600480360381019061099a9190615fa8565b61228c565b6040516109ac91906171d2565b60405180910390f35b6109bd6122a4565b6040516109ca9190616da9565b60405180910390f35b6109db6122ce565b6040516109e891906171d2565b60405180910390f35b610a0b6004803603810190610a069190615fa8565b6122ee565b604051610a1891906171d2565b60405180910390f35b610a29612306565b604051610a3691906171d2565b60405180910390f35b610a596004803603810190610a549190616523565b61230c565b604051610a669190617277565b60405180910390f35b610a77612359565b604051610a849190617292565b60405180910390f35b610aa76004803603810190610aa291906164c9565b61236c565b604051610ab49190616da9565b60405180910390f35b610ad76004803603810190610ad291906165a3565b61239f565b604051610ae491906171d2565b60405180910390f35b610b076004803603810190610b029190616663565b6123dd565b005b610b236004803603810190610b1e91906165a3565b6127b4565b604051610b3091906171d2565b60405180910390f35b610b536004803603810190610b4e91906165f6565b6127f2565b604051610b609190616f09565b60405180910390f35b610b836004803603810190610b7e91906163af565b612884565b005b610b8d6128be565b604051610b9a91906171d2565b60405180910390f35b610bab612aac565b604051610bb89190616f46565b60405180910390f35b610bdb6004803603810190610bd69190615fa8565b612ab2565b005b610bf76004803603810190610bf291906165f6565b612afe565b604051610c049190616f09565b60405180910390f35b610c276004803603810190610c229190615fa8565b612b90565b005b610c31612c4c565b604051610c3e9190616f97565b60405180910390f35b610c616004803603810190610c5c91906165f6565b612c72565b604051610c6e91906171d2565b60405180910390f35b610c7f612cb9565b604051610c8c91906171d2565b60405180910390f35b610caf6004803603810190610caa91906165a3565b612cbf565b604051610cbc91906171d2565b60405180910390f35b610cdf6004803603810190610cda91906165a3565b612cfd565b604051610cec9190616da9565b60405180910390f35b610d0f6004803603810190610d0a91906165f6565b612d58565b604051610d1c9190616f09565b60405180910390f35b610d2d612dea565b604051610d3a9190616f7c565b60405180910390f35b610d4b612e10565b604051610d5891906171d2565b60405180910390f35b610d69612e16565b604051610d7691906171d2565b60405180910390f35b610d996004803603810190610d9491906165a3565b612e1c565b604051610da691906171d2565b60405180910390f35b610dc96004803603810190610dc49190615fa8565b612e5a565b005b610de56004803603810190610de091906165f6565b612ea6565b604051610df29190616ee7565b60405180910390f35b610e03612f6e565b604051610e109190616da9565b60405180910390f35b610e336004803603810190610e2e91906165f6565b612f94565b604051610e409190616ee7565b60405180910390f35b610e636004803603810190610e5e91906162c4565b61305c565b005b610e7f6004803603810190610e7a9190616177565b613175565b005b610e9b6004803603810190610e969190615fa8565b61318f565b604051610ea891906171d2565b60405180910390f35b610ecb6004803603810190610ec69190616523565b6131a7565b604051610ed89190617277565b60405180910390f35b610ee96131f4565b604051610ef69190616da9565b60405180910390f35b610f0761321a565b604051610f14919061701e565b60405180910390f35b610f376004803603810190610f329190615fa8565b613240565b604051610f449190617277565b60405180910390f35b610f55613267565b604051610f6291906171d2565b60405180910390f35b610f856004803603810190610f809190615fa8565b61326d565b005b610fa16004803603810190610f9c91906165f6565b6133e7565b604051610fae91906171d2565b60405180910390f35b60a45481565b60008060c760009054906101000a900473ffffffffffffffffffffffffffffffffffffffff1673ffffffffffffffffffffffffffffffffffffffff16631698ee828686610bb86040518463ffffffff1660e01b815260040161102193929190616dc4565b60206040518083038186803b15801561103957600080fd5b505afa15801561104d573d6000803e3d6000fd5b505050506040513d601f19601f820116820180604052508101906110719190615fd5565b9050600061107e8261342e565b905061108c818588886134c0565b925050509392505050565b60b46020528060005260406000206000915090505481565b60a95481565b606082826040516020016110ca929190616d59565b604051602081830303815290604052905092915050565b60008060008411156112cc57600383141561110857611101868686610fbd565b90506112cb565b6000600267ffffffffffffffff81111561112557611124617c86565b5b6040519080825280602002602001820160405280156111535781602001602082028036833780820191505090505b509050868160008151811061116b5761116a617c57565b5b602002602001019073ffffffffffffffffffffffffffffffffffffffff16908173ffffffffffffffffffffffffffffffffffffffff168152505085816001815181106111ba576111b9617c57565b5b602002602001019073ffffffffffffffffffffffffffffffffffffffff16908173ffffffffffffffffffffffffffffffffffffffff1681525050600060c860009054906101000a900473ffffffffffffffffffffffffffffffffffffffff1673ffffffffffffffffffffffffffffffffffffffff1663d06ca61f87846040518363ffffffff1660e01b81526004016112539291906171ed565b60006040518083038186803b15801561126b57600080fd5b505afa15801561127f573d6000803e3d6000fd5b505050506040513d6000823e3d601f19601f820116820180604052508101906112a8919061624e565b9050806001815181106112be576112bd617c57565b5b6020026020010151925050505b5b80915050949350505050565b60a1602052816000526040600020602052806000526040600020600091509150505481565b60006003821415611512578573ffffffffffffffffffffffffffffffffffffffff1663095ea7b360c660009054906101000a900473ffffffffffffffffffffffffffffffffffffffff16866040518363ffffffff1660e01b8152600401611365929190616dfb565b602060405180830381600087803b15801561137f57600080fd5b505af1158015611393573d6000803e3d6000fd5b505050506040513d601f19601f820116820180604052508101906113b79190616297565b5060006040518061010001604052808873ffffffffffffffffffffffffffffffffffffffff1681526020018773ffffffffffffffffffffffffffffffffffffffff168152602001610bb862ffffff1681526020018573ffffffffffffffffffffffffffffffffffffffff16815260200142815260200186815260200160008152602001600073ffffffffffffffffffffffffffffffffffffffff168152509050600060c660009054906101000a900473ffffffffffffffffffffffffffffffffffffffff1673ffffffffffffffffffffffffffffffffffffffff1663414bf389836040518263ffffffff1660e01b81526004016114b491906171b6565b602060405180830381600087803b1580156114ce57600080fd5b505af11580156114e2573d6000803e3d6000fd5b505050506040513d601f19601f8201168201806040525081019061150691906164f6565b9050809250505061174a565b6000600267ffffffffffffffff81111561152f5761152e617c86565b5b60405190808252806020026020018201604052801561155d5781602001602082028036833780820191505090505b509050868160008151811061157557611574617c57565b5b602002602001019073ffffffffffffffffffffffffffffffffffffffff16908173ffffffffffffffffffffffffffffffffffffffff168152505085816001815181106115c4576115c3617c57565b5b602002602001019073ffffffffffffffffffffffffffffffffffffffff16908173ffffffffffffffffffffffffffffffffffffffff16815250508673ffffffffffffffffffffffffffffffffffffffff1663095ea7b360c860009054906101000a900473ffffffffffffffffffffffffffffffffffffffff16876040518363ffffffff1660e01b815260040161165b929190616dfb565b602060405180830381600087803b15801561167557600080fd5b505af1158015611689573d6000803e3d6000fd5b505050506040513d601f19601f820116820180604052508101906116ad9190616297565b5060c860009054906101000a900473ffffffffffffffffffffffffffffffffffffffff1673ffffffffffffffffffffffffffffffffffffffff16635c11d7958660008488426040518663ffffffff1660e01b815260040161171295949392919061721d565b600060405180830381600087803b15801561172c57600080fd5b505af1158015611740573d6000803e3d6000fd5b5050505060009150505b95945050505050565b61175b6136cc565b8160a060008567ffffffffffffffff1667ffffffffffffffff16815260200190815260200160002060006101000a81548173ffffffffffffffffffffffffffffffffffffffff021916908373ffffffffffffffffffffffffffffffffffffffff1602179055508060a160008567ffffffffffffffff1667ffffffffffffffff16815260200190815260200160002060008473ffffffffffffffffffffffffffffffffffffffff1673ffffffffffffffffffffffffffffffffffffffff16815260200190815260200160002081905550505050565b60a06020528060005260406000206000915054906101000a900473ffffffffffffffffffffffffffffffffffffffff1681565b60c760009054906101000a900473ffffffffffffffffffffffffffffffffffffffff1681565b606060c1600060b954815260200190815260200160002060008367ffffffffffffffff1667ffffffffffffffff16815260200190815260200160002080548060200260200160405190810160405280929190818152602001828054801561190e57602002820191906000526020600020905b8154815260200190600101908083116118fa575b50505050509050919050565b60b06020528060005260406000206000915054906101000a900473ffffffffffffffffffffffffffffffffffffffff1681565b60bd6020528160005260406000206020528060005260406000206000915091509054906101000a900460ff1681565b6119846136cc565b8160a260008367ffffffffffffffff1667ffffffffffffffff16815260200190815260200160002060006101000a81548173ffffffffffffffffffffffffffffffffffffffff021916908373ffffffffffffffffffffffffffffffffffffffff1602179055505050565b60bf6020528260005260406000206020528160005260406000208181548110611a1657600080fd5b90600052602060002001600092509250509054906101000a900473ffffffffffffffffffffffffffffffffffffffff1681565b609f60009054906101000a900473ffffffffffffffffffffffffffffffffffffffff1681565b60a26020528060005260406000206000915054906101000a900473ffffffffffffffffffffffffffffffffffffffff1681565b60008060aa60009054906101000a900473ffffffffffffffffffffffffffffffffffffffff1673ffffffffffffffffffffffffffffffffffffffff1663feaf968c6040518163ffffffff1660e01b815260040160a06040518083038186803b158015611b0d57600080fd5b505afa158015611b21573d6000803e3d6000fd5b505050506040513d601f19601f82011682018060405250810190611b4591906167aa565b505050915050600060aa60009054906101000a900473ffffffffffffffffffffffffffffffffffffffff1673ffffffffffffffffffffffffffffffffffffffff1663313ce5676040518163ffffffff1660e01b815260040160206040518083038186803b158015611bb557600080fd5b505afa158015611bc9573d6000803e3d6000fd5b505050506040513d601f19601f82011682018060405250810190611bed9190616825565b9050611bfb8282601261374a565b9150819250505090565b60a560009054906101000a900467ffffffffffffffff1681565b60ca60009054906101000a900473ffffffffffffffffffffffffffffffffffffffff1681565b60bc6020528160005260406000206020528060005260406000206000915091509054906101000a900460ff1681565b60c5602052816000526040600020602052806000526040600020600091509150505481565b60b56020528060005260406000206000915090505481565b611cb96136cc565b611cc16137b1565b565b60ad5481565b60aa60009054906101000a900473ffffffffffffffffffffffffffffffffffffffff1681565b60c960009054906101000a900473ffffffffffffffffffffffffffffffffffffffff1681565b600060bb600060b954815260200190815260200160002080549050905090565b611d3d6136cc565b611d476000613f1a565b565b611d516136cc565b600073ffffffffffffffffffffffffffffffffffffffff168173ffffffffffffffffffffffffffffffffffffffff161415611dc1576040517f08c379a0000000000000000000000000000000000000000000000000000000008152600401611db890617156565b60405180910390fd5b8060aa60006101000a81548173ffffffffffffffffffffffffffffffffffffffff021916908373ffffffffffffffffffffffffffffffffffffffff16021790555050565b60c860009054906101000a900473ffffffffffffffffffffffffffffffffffffffff1681565b60c4602052816000526040600020602052806000526040600020600091509150505481565b600080611f7160a68054611e6390617abf565b80601f0160208091040260200160405190810160405280929190818152602001828054611e8f90617abf565b8015611edc5780601f10611eb157610100808354040283529160200191611edc565b820191906000526020600020905b815481529060010190602001808311611ebf57829003601f168201915b505050505060a78054611eee90617abf565b80601f0160208091040260200160405190810160405280929190818152602001828054611f1a90617abf565b8015611f675780601f10611f3c57610100808354040283529160200191611f67565b820191906000526020600020905b815481529060010190602001808311611f4a57829003601f168201915b50505050506110b5565b90506000611f8960a8543063d1db598460e01b613fe0565b9050611fd56040518060400160405280600381526020017f676574000000000000000000000000000000000000000000000000000000000081525083836140119092919063ffffffff16565b6120546040518060400160405280600581526020017f70617468310000000000000000000000000000000000000000000000000000008152506040518060400160405280600e81526020017f726573756c74732c746f6b656e73000000000000000000000000000000000000815250836140119092919063ffffffff16565b6120d36040518060400160405280600581526020017f70617468320000000000000000000000000000000000000000000000000000008152506040518060400160405280601481526020017f726573756c74732c6d61726b6574536861726573000000000000000000000000815250836140119092919063ffffffff16565b6121526040518060400160405280600581526020017f70617468330000000000000000000000000000000000000000000000000000008152506040518060400160405280601481526020017f726573756c74732c7377617056657273696f6e73000000000000000000000000815250836140119092919063ffffffff16565b6121d16040518060400160405280600581526020017f70617468340000000000000000000000000000000000000000000000000000008152506040518060400160405280601581526020017f726573756c74732c636861696e53656c6563746f720000000000000000000000815250836140119092919063ffffffff16565b6121e56121dc614044565b8260a95461406e565b9250505090565b60ae5481565b609f60009054906101000a900473ffffffffffffffffffffffffffffffffffffffff1673ffffffffffffffffffffffffffffffffffffffff163373ffffffffffffffffffffffffffffffffffffffff1614612282576040517f08c379a0000000000000000000000000000000000000000000000000000000008152600401612279906170f6565b60405180910390fd5b61228a6137b1565b565b60b26020528060005260406000206000915090505481565b6000603860009054906101000a900473ffffffffffffffffffffffffffffffffffffffff16905090565b600060ba600060b854815260200190815260200160002080549050905090565b60b36020528060005260406000206000915090505481565b60af5481565b60ba602052816000526040600020818154811061232857600080fd5b9060005260206000209060049182820401919006600802915091509054906101000a900467ffffffffffffffff1681565b60a360009054906101000a900460ff1681565b60b16020528060005260406000206000915054906101000a900473ffffffffffffffffffffffffffffffffffffffff1681565b60c260205282600052604060002060205281600052604060002081815481106123c757600080fd5b9060005260206000200160009250925050505481565b60008060019054906101000a900460ff1615905080801561240e5750600160008054906101000a900460ff1660ff16105b8061243b575061241d3061413a565b15801561243a5750600160008054906101000a900460ff1660ff16145b5b61247a576040517f08c379a0000000000000000000000000000000000000000000000000000000008152600401612471906170d6565b60405180910390fd5b60016000806101000a81548160ff021916908360ff16021790555080156124b7576001600060016101000a81548160ff0219169083151502179055505b6124bf61415d565b8b60a560006101000a81548167ffffffffffffffff021916908367ffffffffffffffff1602179055508a609d60006101000a81548173ffffffffffffffffffffffffffffffffffffffff021916908373ffffffffffffffffffffffffffffffffffffffff1602179055506125328a6141b6565b61253b896141fa565b8760a881905550600a670de0b6b3a764000060016125599190617796565b6125639190617492565b60a9819055508660aa60006101000a81548173ffffffffffffffffffffffffffffffffffffffff021916908373ffffffffffffffffffffffffffffffffffffffff1602179055508560ca60006101000a81548173ffffffffffffffffffffffffffffffffffffffff021916908373ffffffffffffffffffffffffffffffffffffffff1602179055508460c660006101000a81548173ffffffffffffffffffffffffffffffffffffffff021916908373ffffffffffffffffffffffffffffffffffffffff1602179055508360c760006101000a81548173ffffffffffffffffffffffffffffffffffffffff021916908373ffffffffffffffffffffffffffffffffffffffff1602179055508260c860006101000a81548173ffffffffffffffffffffffffffffffffffffffff021916908373ffffffffffffffffffffffffffffffffffffffff1602179055508160c960006101000a81548173ffffffffffffffffffffffffffffffffffffffff021916908373ffffffffffffffffffffffffffffffffffffffff1602179055506040518060600160405280602a8152602001618115602a913960a6908051906020019061271d929190615a5b565b506040518060600160405280602e815260200161813f602e913960a7908051906020019061274c929190615a5b565b5080156127a65760008060016101000a81548160ff0219169083151502179055507f7f26b83ff96e1f2b6a682f133852f6798a09c465da95921460cefb3847402498600160405161279d9190617039565b60405180910390a15b505050505050505050505050565b60c360205282600052604060002060205281600052604060002081815481106127dc57600080fd5b9060005260206000200160009250925050505481565b606060c0600060b854815260200190815260200160002060008367ffffffffffffffff1667ffffffffffffffff16815260200190815260200160002080548060200260200160405190810160405280929190818152602001828054801561287857602002820191906000526020600020905b815481526020019060010190808311612864575b50505050509050919050565b61288c6136cc565b8160a690805190602001906128a2929190615a5b565b508060a790805190602001906128b9929190615a5b565b505050565b60008060005b60ad54811015612aa4576000612a8060b1600084815260200190815260200160002060009054906101000a900473ffffffffffffffffffffffffffffffffffffffff1660ca60009054906101000a900473ffffffffffffffffffffffffffffffffffffffff1660b1600086815260200190815260200160002060009054906101000a900473ffffffffffffffffffffffffffffffffffffffff1673ffffffffffffffffffffffffffffffffffffffff166370a08231609d60009054906101000a900473ffffffffffffffffffffffffffffffffffffffff166040518263ffffffff1660e01b81526004016129b89190616da9565b60206040518083038186803b1580156129d057600080fd5b505afa1580156129e4573d6000803e3d6000fd5b505050506040513d601f19601f82011682018060405250810190612a0891906164f6565b60b6600060b1600089815260200190815260200160002060009054906101000a900473ffffffffffffffffffffffffffffffffffffffff1673ffffffffffffffffffffffffffffffffffffffff1673ffffffffffffffffffffffffffffffffffffffff168152602001908152602001600020546110e1565b90508083612a8e919061743c565b9250508080612a9c90617b22565b9150506128c4565b508091505090565b60a85481565b612aba6136cc565b80609f60006101000a81548173ffffffffffffffffffffffffffffffffffffffff021916908373ffffffffffffffffffffffffffffffffffffffff16021790555050565b606060c3600060b954815260200190815260200160002060008367ffffffffffffffff1667ffffffffffffffff168152602001908152602001600020805480602002602001604051908101604052809291908181526020018280548015612b8457602002820191906000526020600020905b815481526020019060010190808311612b70575b50505050509050919050565b612b986136cc565b600073ffffffffffffffffffffffffffffffffffffffff168173ffffffffffffffffffffffffffffffffffffffff161415612c08576040517f08c379a0000000000000000000000000000000000000000000000000000000008152600401612bff90617136565b60405180910390fd5b80606a60006101000a81548173ffffffffffffffffffffffffffffffffffffffff021916908373ffffffffffffffffffffffffffffffffffffffff16021790555050565b60c660009054906101000a900473ffffffffffffffffffffffffffffffffffffffff1681565b600060bf600060b954815260200190815260200160002060008367ffffffffffffffff1667ffffffffffffffff168152602001908152602001600020805490509050919050565b60b95481565b60c16020528260005260406000206020528160005260406000208181548110612ce757600080fd5b9060005260206000200160009250925050505481565b60be6020528260005260406000206020528160005260406000208181548110612d2557600080fd5b90600052602060002001600092509250509054906101000a900473ffffffffffffffffffffffffffffffffffffffff1681565b606060c2600060b854815260200190815260200160002060008367ffffffffffffffff1667ffffffffffffffff168152602001908152602001600020805480602002602001604051908101604052809291908181526020018280548015612dde57602002820191906000526020600020905b815481526020019060010190808311612dca575b50505050509050919050565b60cb60009054906101000a900473ffffffffffffffffffffffffffffffffffffffff1681565b60ac5481565b60ab5481565b60c06020528260005260406000206020528160005260406000208181548110612e4457600080fd5b9060005260206000200160009250925050505481565b612e626136cc565b80609e60006101000a81548173ffffffffffffffffffffffffffffffffffffffff021916908373ffffffffffffffffffffffffffffffffffffffff16021790555050565b606060be600060b854815260200190815260200160002060008367ffffffffffffffff1667ffffffffffffffff168152602001908152602001600020805480602002602001604051908101604052809291908181526020018280548015612f6257602002820191906000526020600020905b8160009054906101000a900473ffffffffffffffffffffffffffffffffffffffff1673ffffffffffffffffffffffffffffffffffffffff1681526020019060010190808311612f18575b50505050509050919050565b606a60009054906101000a900473ffffffffffffffffffffffffffffffffffffffff1681565b606060bf600060b954815260200190815260200160002060008367ffffffffffffffff1667ffffffffffffffff16815260200190815260200160002080548060200260200160405190810160405280929190818152602001828054801561305057602002820191906000526020600020905b8160009054906101000a900473ffffffffffffffffffffffffffffffffffffffff1673ffffffffffffffffffffffffffffffffffffffff1681526020019060010190808311613006575b50505050509050919050565b846005600082815260200190815260200160002060009054906101000a900473ffffffffffffffffffffffffffffffffffffffff1673ffffffffffffffffffffffffffffffffffffffff163373ffffffffffffffffffffffffffffffffffffffff16146130fe576040517f08c379a00000000000000000000000000000000000000000000000000000000081526004016130f590617176565b60405180910390fd5b6005600082815260200190815260200160002060006101000a81549073ffffffffffffffffffffffffffffffffffffffff0219169055807f7cc135e0cebb02c3480ae5d74d377283180a2601f8f644edf7987b009316c63a60405160405180910390a261316d8585858561423e565b505050505050565b61317d6136cc565b6131898484848461423e565b50505050565b60b66020528060005260406000206000915090505481565b60bb60205281600052604060002081815481106131c357600080fd5b9060005260206000209060049182820401919006600802915091509054906101000a900467ffffffffffffffff1681565b609e60009054906101000a900473ffffffffffffffffffffffffffffffffffffffff1681565b609d60009054906101000a900473ffffffffffffffffffffffffffffffffffffffff1681565b60b76020528060005260406000206000915054906101000a900467ffffffffffffffff1681565b60b85481565b600073ffffffffffffffffffffffffffffffffffffffff168173ffffffffffffffffffffffffffffffffffffffff1614156132dd576040517f08c379a00000000000000000000000000000000000000000000000000000000081526004016132d490617136565b60405180910390fd5b606a60009054906101000a900473ffffffffffffffffffffffffffffffffffffffff1673ffffffffffffffffffffffffffffffffffffffff168173ffffffffffffffffffffffffffffffffffffffff161461336d576040517f08c379a000000000000000000000000000000000000000000000000000000000815260040161336490617096565b60405180910390fd5b3373ffffffffffffffffffffffffffffffffffffffff168173ffffffffffffffffffffffffffffffffffffffff16146133db576040517f08c379a00000000000000000000000000000000000000000000000000000000081526004016133d2906170b6565b60405180910390fd5b6133e481613f1a565b50565b600060be600060b854815260200190815260200160002060008367ffffffffffffffff1667ffffffffffffffff168152602001908152602001600020805490509050919050565b6000808273ffffffffffffffffffffffffffffffffffffffff16633850c7bd6040518163ffffffff1660e01b815260040160e06040518083038186803b15801561347757600080fd5b505afa15801561348b573d6000803e3d6000fd5b505050506040513d601f19601f820116820180604052508101906134af9190616427565b505050505091505080915050919050565b6000806134cc86614e2b565b90506fffffffffffffffffffffffffffffffff80168173ffffffffffffffffffffffffffffffffffffffff16116135e65760008173ffffffffffffffffffffffffffffffffffffffff168273ffffffffffffffffffffffffffffffffffffffff166135379190617796565b90508373ffffffffffffffffffffffffffffffffffffffff168573ffffffffffffffffffffffffffffffffffffffff16106135a7576135a27801000000000000000000000000000000000000000000000000876fffffffffffffffffffffffffffffffff1683615238565b6135de565b6135dd81876fffffffffffffffffffffffffffffffff167801000000000000000000000000000000000000000000000000615238565b5b9250506136c3565b60006136288273ffffffffffffffffffffffffffffffffffffffff168373ffffffffffffffffffffffffffffffffffffffff1668010000000000000000615238565b90508373ffffffffffffffffffffffffffffffffffffffff168573ffffffffffffffffffffffffffffffffffffffff16106136905761368b700100000000000000000000000000000000876fffffffffffffffffffffffffffffffff1683615238565b6136bf565b6136be81876fffffffffffffffffffffffffffffffff16700100000000000000000000000000000000615238565b5b9250505b50949350505050565b6136d4615312565b73ffffffffffffffffffffffffffffffffffffffff166136f26122a4565b73ffffffffffffffffffffffffffffffffffffffff1614613748576040517f08c379a000000000000000000000000000000000000000000000000000000000815260040161373f90617116565b60405180910390fd5b565b60008260ff168260ff1611156137845782826137669190617824565b600a6137729190617561565b8461377d919061767f565b90506137aa565b81836137909190617824565b600a61379c9190617561565b846137a7919061767f565b90505b9392505050565b600160b960008282546137c4919061743c565b9250508190555060005b60ac54811015613f0e5760b0600082815260200190815260200160002060009054906101000a900473ffffffffffffffffffffffffffffffffffffffff1660b1600083815260200190815260200160002060006101000a81548173ffffffffffffffffffffffffffffffffffffffff021916908373ffffffffffffffffffffffffffffffffffffffff16021790555060b5600060b0600084815260200190815260200160002060009054906101000a900473ffffffffffffffffffffffffffffffffffffffff1673ffffffffffffffffffffffffffffffffffffffff1673ffffffffffffffffffffffffffffffffffffffff1681526020019081526020016000205460b4600060b1600085815260200190815260200160002060009054906101000a900473ffffffffffffffffffffffffffffffffffffffff1673ffffffffffffffffffffffffffffffffffffffff1673ffffffffffffffffffffffffffffffffffffffff1681526020019081526020016000208190555060b2600060b0600084815260200190815260200160002060009054906101000a900473ffffffffffffffffffffffffffffffffffffffff1673ffffffffffffffffffffffffffffffffffffffff1673ffffffffffffffffffffffffffffffffffffffff1681526020019081526020016000205460b3600060b1600085815260200190815260200160002060009054906101000a900473ffffffffffffffffffffffffffffffffffffffff1673ffffffffffffffffffffffffffffffffffffffff1673ffffffffffffffffffffffffffffffffffffffff16815260200190815260200160002081905550600060b7600060b0600085815260200190815260200160002060009054906101000a900473ffffffffffffffffffffffffffffffffffffffff1673ffffffffffffffffffffffffffffffffffffffff1673ffffffffffffffffffffffffffffffffffffffff16815260200190815260200160002060009054906101000a900467ffffffffffffffff16905060bd600060b954815260200190815260200160002060008267ffffffffffffffff1667ffffffffffffffff16815260200190815260200160002060009054906101000a900460ff16613bc357600160bd600060b954815260200190815260200160002060008367ffffffffffffffff1667ffffffffffffffff16815260200190815260200160002060006101000a81548160ff02191690831515021790555060bb600060b95481526020019081526020016000208190806001815401808255809150506001900390600052602060002090600491828204019190066008029091909190916101000a81548167ffffffffffffffff021916908367ffffffffffffffff1602179055505b60bf600060b954815260200190815260200160002060008267ffffffffffffffff1667ffffffffffffffff16815260200190815260200160002060b0600084815260200190815260200160002060009054906101000a900473ffffffffffffffffffffffffffffffffffffffff169080600181540180825580915050600190039060005260206000200160009091909190916101000a81548173ffffffffffffffffffffffffffffffffffffffff021916908373ffffffffffffffffffffffffffffffffffffffff16021790555060c1600060b954815260200190815260200160002060008267ffffffffffffffff1667ffffffffffffffff16815260200190815260200160002060b6600060b0600086815260200190815260200160002060009054906101000a900473ffffffffffffffffffffffffffffffffffffffff1673ffffffffffffffffffffffffffffffffffffffff1673ffffffffffffffffffffffffffffffffffffffff16815260200190815260200160002054908060018154018082558091505060019003906000526020600020016000909190919091505560b5600060b0600085815260200190815260200160002060009054906101000a900473ffffffffffffffffffffffffffffffffffffffff1673ffffffffffffffffffffffffffffffffffffffff1673ffffffffffffffffffffffffffffffffffffffff1681526020019081526020016000205460c5600060b954815260200190815260200160002060008367ffffffffffffffff1667ffffffffffffffff1681526020019081526020016000206000828254613e20919061743c565b9250508190555060c3600060b954815260200190815260200160002060008267ffffffffffffffff1667ffffffffffffffff16815260200190815260200160002060b5600060b0600086815260200190815260200160002060009054906101000a900473ffffffffffffffffffffffffffffffffffffffff1673ffffffffffffffffffffffffffffffffffffffff1673ffffffffffffffffffffffffffffffffffffffff168152602001908152602001600020549080600181540180825580915050600190039060005260206000200160009091909190915055508080613f0690617b22565b9150506137ce565b5060ac5460ad81905550565b6000603860009054906101000a900473ffffffffffffffffffffffffffffffffffffffff16905081603860006101000a81548173ffffffffffffffffffffffffffffffffffffffff021916908373ffffffffffffffffffffffffffffffffffffffff1602179055508173ffffffffffffffffffffffffffffffffffffffff168173ffffffffffffffffffffffffffffffffffffffff167f8be0079c531659141344cd1fd0a4f28419497f9722a3daafe3b4186f6b6457e060405160405180910390a35050565b613fe8615ae1565b613ff0615ae1565b6140078585858461531a909392919063ffffffff16565b9150509392505050565b6140288284608001516153ca90919063ffffffff16565b61403f8184608001516153ca90919063ffffffff16565b505050565b6000600360009054906101000a900473ffffffffffffffffffffffffffffffffffffffff16905090565b6000806004549050600181614083919061743c565b6004819055506000634042994660e01b60008087600001513089604001518760018c60800151600001516040516024016140c4989796959493929190616e24565b604051602081830303815290604052907bffffffffffffffffffffffffffffffffffffffffffffffffffffffff19166020820180517bffffffffffffffffffffffffffffffffffffffffffffffffffffffff8381831617835250505050905061412f868386846153ef565b925050509392505050565b6000808273ffffffffffffffffffffffffffffffffffffffff163b119050919050565b600060019054906101000a900460ff166141ac576040517f08c379a00000000000000000000000000000000000000000000000000000000081526004016141a390617196565b60405180910390fd5b6141b4615593565b565b80600260006101000a81548173ffffffffffffffffffffffffffffffffffffffff021916908373ffffffffffffffffffffffffffffffffffffffff16021790555050565b80600360006101000a81548173ffffffffffffffffffffffffffffffffffffffff021916908373ffffffffffffffffffffffffffffffffffffffff16021790555050565b6000849050600084905060008490506000849050600160b86000828254614265919061743c565b92505081905550600060ad54141561429257600160b9600082825461428a919061743c565b925050819055505b60005b8451811015614dfd578481815181106142b1576142b0617c57565b5b602002602001015160b0600083815260200190815260200160002060006101000a81548173ffffffffffffffffffffffffffffffffffffffff021916908373ffffffffffffffffffffffffffffffffffffffff1602179055508060b2600087848151811061432257614321617c57565b5b602002602001015173ffffffffffffffffffffffffffffffffffffffff1673ffffffffffffffffffffffffffffffffffffffff1681526020019081526020016000208190555083818151811061437b5761437a617c57565b5b602002602001015160b5600087848151811061439a57614399617c57565b5b602002602001015173ffffffffffffffffffffffffffffffffffffffff1673ffffffffffffffffffffffffffffffffffffffff168152602001908152602001600020819055508281815181106143f3576143f2617c57565b5b602002602001015160b6600087848151811061441257614411617c57565b5b602002602001015173ffffffffffffffffffffffffffffffffffffffff1673ffffffffffffffffffffffffffffffffffffffff1681526020019081526020016000208190555081818151811061446b5761446a617c57565b5b602002602001015160b7600087848151811061448a57614489617c57565b5b602002602001015173ffffffffffffffffffffffffffffffffffffffff1673ffffffffffffffffffffffffffffffffffffffff16815260200190815260200160002060006101000a81548167ffffffffffffffff021916908367ffffffffffffffff16021790555060bc600060b8548152602001908152602001600020600083838151811061451c5761451b617c57565b5b602002602001015167ffffffffffffffff1667ffffffffffffffff16815260200190815260200160002060009054906101000a900460ff166146495760ba600060b85481526020019081526020016000208282815181106145805761457f617c57565b5b602002602001015190806001815401808255809150506001900390600052602060002090600491828204019190066008029091909190916101000a81548167ffffffffffffffff021916908367ffffffffffffffff160217905550600160bc600060b8548152602001908152602001600020600084848151811061460757614606617c57565b5b602002602001015167ffffffffffffffff1667ffffffffffffffff16815260200190815260200160002060006101000a81548160ff0219169083151502179055505b60be600060b8548152602001908152602001600020600083838151811061467357614672617c57565b5b602002602001015167ffffffffffffffff1667ffffffffffffffff1681526020019081526020016000208582815181106146b0576146af617c57565b5b60200260200101519080600181540180825580915050600190039060005260206000200160009091909190916101000a81548173ffffffffffffffffffffffffffffffffffffffff021916908373ffffffffffffffffffffffffffffffffffffffff16021790555060c0600060b8548152602001908152602001600020600083838151811061474257614741617c57565b5b602002602001015167ffffffffffffffff1667ffffffffffffffff16815260200190815260200160002083828151811061477f5761477e617c57565b5b602002602001015190806001815401808255809150506001900390600052602060002001600090919091909150558381815181106147c0576147bf617c57565b5b602002602001015160c4600060b854815260200190815260200160002060008484815181106147f2576147f1617c57565b5b602002602001015167ffffffffffffffff1667ffffffffffffffff168152602001908152602001600020600082825461482b919061743c565b9250508190555060c2600060b8548152602001908152602001600020600083838151811061485c5761485b617c57565b5b602002602001015167ffffffffffffffff1667ffffffffffffffff16815260200190815260200160002084828151811061489957614898617c57565b5b60200260200101519080600181540180825580915050600190039060005260206000200160009091909190915055600060ad541415614dea578481815181106148e5576148e4617c57565b5b602002602001015160b1600083815260200190815260200160002060006101000a81548173ffffffffffffffffffffffffffffffffffffffff021916908373ffffffffffffffffffffffffffffffffffffffff16021790555083818151811061495157614950617c57565b5b602002602001015160b460008784815181106149705761496f617c57565b5b602002602001015173ffffffffffffffffffffffffffffffffffffffff1673ffffffffffffffffffffffffffffffffffffffff168152602001908152602001600020819055508060b360008784815181106149ce576149cd617c57565b5b602002602001015173ffffffffffffffffffffffffffffffffffffffff1673ffffffffffffffffffffffffffffffffffffffff1681526020019081526020016000208190555060bd600060b95481526020019081526020016000206000838381518110614a3e57614a3d617c57565b5b602002602001015167ffffffffffffffff1667ffffffffffffffff16815260200190815260200160002060009054906101000a900460ff16614b6b57600160bd600060b95481526020019081526020016000206000848481518110614aa657614aa5617c57565b5b602002602001015167ffffffffffffffff1667ffffffffffffffff16815260200190815260200160002060006101000a81548160ff02191690831515021790555060bb600060b9548152602001908152602001600020828281518110614b0f57614b0e617c57565b5b602002602001015190806001815401808255809150506001900390600052602060002090600491828204019190066008029091909190916101000a81548167ffffffffffffffff021916908367ffffffffffffffff1602179055505b60bf600060b95481526020019081526020016000206000838381518110614b9557614b94617c57565b5b602002602001015167ffffffffffffffff1667ffffffffffffffff168152602001908152602001600020858281518110614bd257614bd1617c57565b5b60200260200101519080600181540180825580915050600190039060005260206000200160009091909190916101000a81548173ffffffffffffffffffffffffffffffffffffffff021916908373ffffffffffffffffffffffffffffffffffffffff16021790555060c1600060b95481526020019081526020016000206000838381518110614c6457614c63617c57565b5b602002602001015167ffffffffffffffff1667ffffffffffffffff168152602001908152602001600020838281518110614ca157614ca0617c57565b5b60200260200101519080600181540180825580915050600190039060005260206000200160009091909190915055838181518110614ce257614ce1617c57565b5b602002602001015160c5600060b95481526020019081526020016000206000848481518110614d1457614d13617c57565b5b602002602001015167ffffffffffffffff1667ffffffffffffffff1681526020019081526020016000206000828254614d4d919061743c565b9250508190555060c3600060b95481526020019081526020016000206000838381518110614d7e57614d7d617c57565b5b602002602001015167ffffffffffffffff1667ffffffffffffffff168152602001908152602001600020848281518110614dbb57614dba617c57565b5b602002602001015190806001815401808255809150506001900390600052602060002001600090919091909150555b8080614df590617b22565b915050614295565b50835160ac81905550600060ad541415614e1a57835160ad819055505b4260ab819055505050505050505050565b60008060008360020b12614e42578260020b614e4a565b8260020b6000035b90507ffffffffffffffffffffffffffffffffffffffffffffffffffffffffffff2761860000360020b811115614eac576040517f2bc80f3a00000000000000000000000000000000000000000000000000000000815260040160405180910390fd5b600080600183161415614ed057700100000000000000000000000000000000614ee2565b6ffffcb933bd6fad37aa2d162d1a5940015b70ffffffffffffffffffffffffffffffffff16905060006002831614614f1c5760806ffff97272373d413259a46990580e213a8202901c90505b60006004831614614f415760806ffff2e50f5f656932ef12357cf3c7fdcc8202901c90505b60006008831614614f665760806fffe5caca7e10e4e61c3624eaa0941cd08202901c90505b60006010831614614f8b5760806fffcb9843d60f6159c9db58835c9266448202901c90505b60006020831614614fb05760806fff973b41fa98c081472e6896dfb254c08202901c90505b60006040831614614fd55760806fff2ea16466c96a3843ec78b326b528618202901c90505b60006080831614614ffa5760806ffe5dee046a99a2a811c461f1969c30538202901c90505b60006101008316146150205760806ffcbe86c7900a88aedcffc83b479aa3a48202901c90505b60006102008316146150465760806ff987a7253ac413176f2b074cf7815e548202901c90505b600061040083161461506c5760806ff3392b0822b70005940c7a398e4b70f38202901c90505b60006108008316146150925760806fe7159475a2c29b7443b29c7fa6e889d98202901c90505b60006110008316146150b85760806fd097f3bdfd2022b8845ad8f792aa58258202901c90505b60006120008316146150de5760806fa9f746462d870fdf8a65dc1f90e061e58202901c90505b60006140008316146151045760806f70d869a156d2a1b890bb3df62baf32f78202901c90505b600061800083161461512a5760806f31be135f97d08fd981231505542fcfa68202901c90505b6000620100008316146151515760806f09aa508b5b7a84e1c677de54f3e99bc98202901c90505b6000620200008316146151775760806e5d6af8dedb81196699c329225ee6048202901c90505b60006204000083161461519c5760806d2216e584f5fa1ea926041bedfe988202901c90505b6000620800008316146151bf5760806b048a170391f7dc42444e8fa28202901c90505b60008460020b13156151ff57807fffffffffffffffffffffffffffffffffffffffffffffffffffffffffffffffff816151fb576151fa617bf9565b5b0490505b6000640100000000828161521657615215617bf9565b5b0614615223576001615226565b60005b60ff16602082901c0192505050919050565b600080600080198587098587029250828110838203039150506000811415615273576000841161526757600080fd5b8382049250505061530b565b80841161527f57600080fd5b600084868809905082811182039150808303925060008586600003169050808604955080840493506001818260000304019050808302841793506000600287600302189050808702600203810290508087026002038102905080870260020381029050808702600203810290508087026002038102905080870260020381029050808502955050505050505b9392505050565b600033905090565b615322615ae1565b61533285608001516101006155f4565b508385600001818152505082856020019073ffffffffffffffffffffffffffffffffffffffff16908173ffffffffffffffffffffffffffffffffffffffff16815250508185604001907bffffffffffffffffffffffffffffffffffffffffffffffffffffffff191690817bffffffffffffffffffffffffffffffffffffffffffffffffffffffff191681525050849050949350505050565b6153d7826003835161565e565b6153ea81836157e390919063ffffffff16565b505050565b60003084604051602001615404929190616d7d565b604051602081830303815290604052805190602001209050846005600083815260200190815260200160002060006101000a81548173ffffffffffffffffffffffffffffffffffffffff021916908373ffffffffffffffffffffffffffffffffffffffff160217905550807fb5e6e01e79f91267dc17b4e6314d5d4d03593d2ceee0fbb452b750bd70ea5af960405160405180910390a2600260009054906101000a900473ffffffffffffffffffffffffffffffffffffffff1673ffffffffffffffffffffffffffffffffffffffff16634000aea08685856040518463ffffffff1660e01b81526004016154fa93929190616ea9565b602060405180830381600087803b15801561551457600080fd5b505af1158015615528573d6000803e3d6000fd5b505050506040513d601f19601f8201168201806040525081019061554c9190616297565b61558b576040517f08c379a000000000000000000000000000000000000000000000000000000000815260040161558290617076565b60405180910390fd5b949350505050565b600060019054906101000a900460ff166155e2576040517f08c379a00000000000000000000000000000000000000000000000000000000081526004016155d990617196565b60405180910390fd5b6155f26155ed615312565b613f1a565b565b6155fc615b4e565b600060208361560b9190617b99565b146156375760208261561d9190617b99565b602061562991906177f0565b82615634919061743c565b91505b81836020018181525050604051808452600081528281016020016040525082905092915050565b60178167ffffffffffffffff16116156955761568f8160058460ff16901b60ff16178461580590919063ffffffff16565b506157de565b60ff8167ffffffffffffffff16116156eb576156c4601860058460ff16901b178461580590919063ffffffff16565b506156e58167ffffffffffffffff166001856158259092919063ffffffff16565b506157dd565b61ffff8167ffffffffffffffff16116157425761571b601960058460ff16901b178461580590919063ffffffff16565b5061573c8167ffffffffffffffff166002856158259092919063ffffffff16565b506157dc565b63ffffffff8167ffffffffffffffff161161579b57615774601a60058460ff16901b178461580590919063ffffffff16565b506157958167ffffffffffffffff166004856158259092919063ffffffff16565b506157db565b6157b8601b60058460ff16901b178461580590919063ffffffff16565b506157d98167ffffffffffffffff166008856158259092919063ffffffff16565b505b5b5b5b505050565b6157eb615b4e565b6157fd83846000015151848551615847565b905092915050565b61580d615b4e565b61581d8384600001515184615936565b905092915050565b61582d615b4e565b61583e84856000015151858561598d565b90509392505050565b61584f615b4e565b825182111561585d57600080fd5b8460200151828561586e919061743c565b11156158a3576158a28560026158938860200151888761588e919061743c565b615a1b565b61589d9190617796565b615a37565b5b6000808651805187602083010193508088870111156158c25787860182525b60208701925050505b6020841061590957805182526020826158e4919061743c565b91506020816158f3919061743c565b905060208461590291906177f0565b93506158cb565b60006001856020036101000a03905080198251168184511681811785525050508692505050949350505050565b61593e615b4e565b8360200151831061596457615963846002866020015161595e9190617796565b615a37565b5b8351805160208583010184815381861415615980576001820183525b5050508390509392505050565b615995615b4e565b846020015184836159a6919061743c565b11156159ce576159cd85600286856159be919061743c565b6159c89190617796565b615a37565b5b60006001836101006159e09190617516565b6159ea91906177f0565b90508551838682010185831982511617815281518588011115615a0d5784870182525b505085915050949350505050565b600081831115615a2d57829050615a31565b8190505b92915050565b600082600001519050615a4a83836155f4565b50615a5583826157e3565b50505050565b828054615a6790617abf565b90600052602060002090601f016020900481019282615a895760008555615ad0565b82601f10615aa257805160ff1916838001178555615ad0565b82800160010185558215615ad0579182015b82811115615acf578251825591602001919060010190615ab4565b5b509050615add9190615b68565b5090565b6040518060a0016040528060008019168152602001600073ffffffffffffffffffffffffffffffffffffffff16815260200160007bffffffffffffffffffffffffffffffffffffffffffffffffffffffff1916815260200160008152602001615b48615b4e565b81525090565b604051806040016040528060608152602001600081525090565b5b80821115615b81576000816000905550600101615b69565b5090565b6000615b98615b93846172d2565b6172ad565b90508083825260208201905082856020860282011115615bbb57615bba617cba565b5b60005b85811015615beb5781615bd18882615d87565b845260208401935060208301925050600181019050615bbe565b5050509392505050565b6000615c08615c03846172fe565b6172ad565b90508083825260208201905082856020860282011115615c2b57615c2a617cba565b5b60005b85811015615c5b5781615c418882615f3f565b845260208401935060208301925050600181019050615c2e565b5050509392505050565b6000615c78615c73846172fe565b6172ad565b90508083825260208201905082856020860282011115615c9b57615c9a617cba565b5b60005b85811015615ccb5781615cb18882615f54565b845260208401935060208301925050600181019050615c9e565b5050509392505050565b6000615ce8615ce38461732a565b6172ad565b90508083825260208201905082856020860282011115615d0b57615d0a617cba565b5b60005b85811015615d3b5781615d218882615f69565b845260208401935060208301925050600181019050615d0e565b5050509392505050565b6000615d58615d5384617356565b6172ad565b905082815260208101848484011115615d7457615d73617cbf565b5b615d7f848285617a7d565b509392505050565b600081359050615d9681617fe9565b92915050565b600081519050615dab81617fe9565b92915050565b600081359050615dc081618000565b92915050565b600082601f830112615ddb57615dda617cb5565b5b8135615deb848260208601615b85565b91505092915050565b600082601f830112615e0957615e08617cb5565b5b8135615e19848260208601615bf5565b91505092915050565b600082601f830112615e3757615e36617cb5565b5b8151615e47848260208601615c65565b91505092915050565b600082601f830112615e6557615e64617cb5565b5b8135615e75848260208601615cd5565b91505092915050565b600081519050615e8d81618017565b92915050565b600081359050615ea28161802e565b92915050565b600081519050615eb781618045565b92915050565b600081519050615ecc8161805c565b92915050565b600082601f830112615ee757615ee6617cb5565b5b8135615ef7848260208601615d45565b91505092915050565b600081359050615f0f81618073565b92915050565b600081519050615f24816180a1565b92915050565b600081519050615f398161808a565b92915050565b600081359050615f4e816180b8565b92915050565b600081519050615f63816180b8565b92915050565b600081359050615f78816180cf565b92915050565b600081519050615f8d816180fd565b92915050565b600081519050615fa2816180e6565b92915050565b600060208284031215615fbe57615fbd617cc9565b5b6000615fcc84828501615d87565b91505092915050565b600060208284031215615feb57615fea617cc9565b5b6000615ff984828501615d9c565b91505092915050565b60008060006060848603121561601b5761601a617cc9565b5b600061602986828701615d87565b935050602061603a86828701615d87565b925050604061604b86828701615f00565b9150509250925092565b600080600080600060a0868803121561607157616070617cc9565b5b600061607f88828901615d87565b955050602061609088828901615d87565b94505060406160a188828901615f3f565b93505060606160b288828901615d87565b92505060806160c388828901615f3f565b9150509295509295909350565b600080600080608085870312156160ea576160e9617cc9565b5b60006160f887828801615d87565b945050602061610987828801615d87565b935050604061611a87828801615f3f565b925050606061612b87828801615f3f565b91505092959194509250565b6000806040838503121561614e5761614d617cc9565b5b600061615c85828601615d87565b925050602061616d85828601615f69565b9150509250929050565b6000806000806080858703121561619157616190617cc9565b5b600085013567ffffffffffffffff8111156161af576161ae617cc4565b5b6161bb87828801615dc6565b945050602085013567ffffffffffffffff8111156161dc576161db617cc4565b5b6161e887828801615df4565b935050604085013567ffffffffffffffff81111561620957616208617cc4565b5b61621587828801615df4565b925050606085013567ffffffffffffffff81111561623657616235617cc4565b5b61624287828801615e50565b91505092959194509250565b60006020828403121561626457616263617cc9565b5b600082015167ffffffffffffffff81111561628257616281617cc4565b5b61628e84828501615e22565b91505092915050565b6000602082840312156162ad576162ac617cc9565b5b60006162bb84828501615e7e565b91505092915050565b600080600080600060a086880312156162e0576162df617cc9565b5b60006162ee88828901615e93565b955050602086013567ffffffffffffffff81111561630f5761630e617cc4565b5b61631b88828901615dc6565b945050604086013567ffffffffffffffff81111561633c5761633b617cc4565b5b61634888828901615df4565b935050606086013567ffffffffffffffff81111561636957616368617cc4565b5b61637588828901615df4565b925050608086013567ffffffffffffffff81111561639657616395617cc4565b5b6163a288828901615e50565b9150509295509295909350565b600080604083850312156163c6576163c5617cc9565b5b600083013567ffffffffffffffff8111156163e4576163e3617cc4565b5b6163f085828601615ed2565b925050602083013567ffffffffffffffff81111561641157616410617cc4565b5b61641d85828601615ed2565b9150509250929050565b600080600080600080600060e0888a03121561644657616445617cc9565b5b60006164548a828b01615f15565b97505060206164658a828b01615ea8565b96505060406164768a828b01615f2a565b95505060606164878a828b01615f2a565b94505060806164988a828b01615f2a565b93505060a06164a98a828b01615f93565b92505060c06164ba8a828b01615e7e565b91505092959891949750929550565b6000602082840312156164df576164de617cc9565b5b60006164ed84828501615f3f565b91505092915050565b60006020828403121561650c5761650b617cc9565b5b600061651a84828501615f54565b91505092915050565b6000806040838503121561653a57616539617cc9565b5b600061654885828601615f3f565b925050602061655985828601615f3f565b9150509250929050565b6000806040838503121561657a57616579617cc9565b5b600061658885828601615f3f565b925050602061659985828601615f69565b9150509250929050565b6000806000606084860312156165bc576165bb617cc9565b5b60006165ca86828701615f3f565b93505060206165db86828701615f69565b92505060406165ec86828701615f3f565b9150509250925092565b60006020828403121561660c5761660b617cc9565b5b600061661a84828501615f69565b91505092915050565b6000806040838503121561663a57616639617cc9565b5b600061664885828601615f69565b925050602061665985828601615d87565b9150509250929050565b60008060008060008060008060008060006101608c8e03121561668957616688617cc9565b5b60006166978e828f01615f69565b9b505060206166a88e828f01615db1565b9a505060406166b98e828f01615d87565b99505060606166ca8e828f01615d87565b98505060806166db8e828f01615e93565b97505060a06166ec8e828f01615d87565b96505060c06166fd8e828f01615d87565b95505060e061670e8e828f01615d87565b9450506101006167208e828f01615d87565b9350506101206167328e828f01615d87565b9250506101406167448e828f01615d87565b9150509295989b509295989b9093969950565b6000806000606084860312156167705761676f617cc9565b5b600061677e86828701615f69565b935050602061678f86828701615d87565b92505060406167a086828701615f3f565b9150509250925092565b600080600080600060a086880312156167c6576167c5617cc9565b5b60006167d488828901615f7e565b95505060206167e588828901615ebd565b94505060406167f688828901615f54565b935050606061680788828901615f54565b925050608061681888828901615f7e565b9150509295509295909350565b60006020828403121561683b5761683a617cc9565b5b600061684984828501615f93565b91505092915050565b600061685e8383616882565b60208301905092915050565b60006168768383616d06565b60208301905092915050565b61688b81617858565b82525050565b61689a81617858565b82525050565b60006168ab826173a7565b6168b581856173ed565b93506168c083617387565b8060005b838110156168f15781516168d88882616852565b97506168e3836173d3565b9250506001810190506168c4565b5085935050505092915050565b6000616909826173b2565b61691381856173fe565b935061691e83617397565b8060005b8381101561694f578151616936888261686a565b9750616941836173e0565b925050600181019050616922565b5085935050505092915050565b6169658161787c565b82525050565b61697481617888565b82525050565b61698381617892565b82525050565b6000616994826173bd565b61699e818561740f565b93506169ae818560208601617a8c565b6169b781617cce565b840191505092915050565b60006169cd826173bd565b6169d78185617420565b93506169e7818560208601617a8c565b80840191505092915050565b6169fc8161796f565b82525050565b616a13616a0e82617981565b617b6b565b82525050565b616a2281617993565b82525050565b616a31816179a5565b82525050565b616a40816179b7565b82525050565b616a4f816179c9565b82525050565b616a5e816179db565b82525050565b616a6d816179ed565b82525050565b616a7c816179ff565b82525050565b616a8b81617a11565b82525050565b616a9a81617a23565b82525050565b616aa981617a35565b82525050565b6000616aba826173c8565b616ac4818561742b565b9350616ad4818560208601617a8c565b616add81617cce565b840191505092915050565b6000616af560238361742b565b9150616b0082617cf9565b604082019050919050565b6000616b1860328361742b565b9150616b2382617d48565b604082019050919050565b6000616b3b603a8361742b565b9150616b4682617d97565b604082019050919050565b6000616b5e602e8361742b565b9150616b6982617de6565b604082019050919050565b6000616b81602e8361742b565b9150616b8c82617e35565b604082019050919050565b6000616ba460208361742b565b9150616baf82617e84565b602082019050919050565b6000616bc760308361742b565b9150616bd282617ead565b604082019050919050565b6000616bea602e8361742b565b9150616bf582617efc565b604082019050919050565b6000616c0d60288361742b565b9150616c1882617f4b565b604082019050919050565b6000616c30602b8361742b565b9150616c3b82617f9a565b604082019050919050565b61010082016000820151616c5d6000850182616882565b506020820151616c706020850182616882565b506040820151616c836040850182616cf7565b506060820151616c966060850182616882565b506080820151616ca96080850182616d06565b5060a0820151616cbc60a0850182616d06565b5060c0820151616ccf60c0850182616d06565b5060e0820151616ce260e0850182616ce8565b50505050565b616cf1816178ff565b82525050565b616d008161791f565b82525050565b616d0f8161792e565b82525050565b616d1e8161792e565b82525050565b616d35616d308261792e565b617b8f565b82525050565b616d4481617938565b82525050565b616d538161794c565b82525050565b6000616d6582856169c2565b9150616d7182846169c2565b91508190509392505050565b6000616d898285616a02565b601482019150616d998284616d24565b6020820191508190509392505050565b6000602082019050616dbe6000830184616891565b92915050565b6000606082019050616dd96000830186616891565b616de66020830185616891565b616df36040830184616aa0565b949350505050565b6000604082019050616e106000830185616891565b616e1d6020830184616d15565b9392505050565b600061010082019050616e3a600083018b616891565b616e47602083018a616d15565b616e54604083018961696b565b616e616060830188616891565b616e6e608083018761697a565b616e7b60a0830186616d15565b616e8860c0830185616d15565b81810360e0830152616e9a8184616989565b90509998505050505050505050565b6000606082019050616ebe6000830186616891565b616ecb6020830185616d15565b8181036040830152616edd8184616989565b9050949350505050565b60006020820190508181036000830152616f0181846168a0565b905092915050565b60006020820190508181036000830152616f2381846168fe565b905092915050565b6000602082019050616f40600083018461695c565b92915050565b6000602082019050616f5b600083018461696b565b92915050565b6000602082019050616f7660008301846169f3565b92915050565b6000602082019050616f916000830184616a19565b92915050565b6000602082019050616fac6000830184616a28565b92915050565b6000602082019050616fc76000830184616a37565b92915050565b6000602082019050616fe26000830184616a46565b92915050565b6000602082019050616ffd6000830184616a55565b92915050565b60006020820190506170186000830184616a64565b92915050565b60006020820190506170336000830184616a73565b92915050565b600060208201905061704e6000830184616a91565b92915050565b6000602082019050818103600083015261706e8184616aaf565b905092915050565b6000602082019050818103600083015261708f81616ae8565b9050919050565b600060208201905081810360008301526170af81616b0b565b9050919050565b600060208201905081810360008301526170cf81616b2e565b9050919050565b600060208201905081810360008301526170ef81616b51565b9050919050565b6000602082019050818103600083015261710f81616b74565b9050919050565b6000602082019050818103600083015261712f81616b97565b9050919050565b6000602082019050818103600083015261714f81616bba565b9050919050565b6000602082019050818103600083015261716f81616bdd565b9050919050565b6000602082019050818103600083015261718f81616c00565b9050919050565b600060208201905081810360008301526171af81616c23565b9050919050565b6000610100820190506171cc6000830184616c46565b92915050565b60006020820190506171e76000830184616d15565b92915050565b60006040820190506172026000830185616d15565b818103602083015261721481846168a0565b90509392505050565b600060a0820190506172326000830188616d15565b61723f6020830187616a82565b818103604083015261725181866168a0565b90506172606060830185616891565b61726d6080830184616d15565b9695505050505050565b600060208201905061728c6000830184616d3b565b92915050565b60006020820190506172a76000830184616d4a565b92915050565b60006172b76172c8565b90506172c38282617af1565b919050565b6000604051905090565b600067ffffffffffffffff8211156172ed576172ec617c86565b5b602082029050602081019050919050565b600067ffffffffffffffff82111561731957617318617c86565b5b602082029050602081019050919050565b600067ffffffffffffffff82111561734557617344617c86565b5b602082029050602081019050919050565b600067ffffffffffffffff82111561737157617370617c86565b5b61737a82617cce565b9050602081019050919050565b6000819050602082019050919050565b6000819050602082019050919050565b600081519050919050565b600081519050919050565b600081519050919050565b600081519050919050565b6000602082019050919050565b6000602082019050919050565b600082825260208201905092915050565b600082825260208201905092915050565b600082825260208201905092915050565b600081905092915050565b600082825260208201905092915050565b60006174478261792e565b91506174528361792e565b9250827fffffffffffffffffffffffffffffffffffffffffffffffffffffffffffffffff0382111561748757617486617bca565b5b828201905092915050565b600061749d8261792e565b91506174a88361792e565b9250826174b8576174b7617bf9565b5b828204905092915050565b6000808291508390505b600185111561750d578086048111156174e9576174e8617bca565b5b60018516156174f85780820291505b808102905061750685617cec565b94506174cd565b94509492505050565b60006175218261792e565b915061752c8361792e565b92506175597fffffffffffffffffffffffffffffffffffffffffffffffffffffffffffffffff84846175ac565b905092915050565b600061756c8261792e565b91506175778361794c565b92506175a47fffffffffffffffffffffffffffffffffffffffffffffffffffffffffffffffff84846175ac565b905092915050565b6000826175bc5760019050617678565b816175ca5760009050617678565b81600181146175e057600281146175ea57617619565b6001915050617678565b60ff8411156175fc576175fb617bca565b5b8360020a91508482111561761357617612617bca565b5b50617678565b5060208310610133831016604e8410600b841016171561764e5782820a90508381111561764957617648617bca565b5b617678565b61765b84848460016174c3565b9250905081840481111561767257617671617bca565b5b81810290505b9392505050565b600061768a826178cb565b9150617695836178cb565b9250827f7fffffffffffffffffffffffffffffffffffffffffffffffffffffffffffffff04821160008413600084131616156176d4576176d3617bca565b5b817f8000000000000000000000000000000000000000000000000000000000000000058312600084126000841316161561771157617710617bca565b5b827f8000000000000000000000000000000000000000000000000000000000000000058212600084136000841216161561774e5761774d617bca565b5b827f7fffffffffffffffffffffffffffffffffffffffffffffffffffffffffffffff058212600084126000841216161561778b5761778a617bca565b5b828202905092915050565b60006177a18261792e565b91506177ac8361792e565b9250817fffffffffffffffffffffffffffffffffffffffffffffffffffffffffffffffff04831182151516156177e5576177e4617bca565b5b828202905092915050565b60006177fb8261792e565b91506178068361792e565b92508282101561781957617818617bca565b5b828203905092915050565b600061782f8261794c565b915061783a8361794c565b92508282101561784d5761784c617bca565b5b828203905092915050565b6000617863826178ff565b9050919050565b6000617875826178ff565b9050919050565b60008115159050919050565b6000819050919050565b60007fffffffff0000000000000000000000000000000000000000000000000000000082169050919050565b60008160020b9050919050565b6000819050919050565b60006fffffffffffffffffffffffffffffffff82169050919050565b600061ffff82169050919050565b600073ffffffffffffffffffffffffffffffffffffffff82169050919050565b600062ffffff82169050919050565b6000819050919050565b600067ffffffffffffffff82169050919050565b600060ff82169050919050565b600069ffffffffffffffffffff82169050919050565b600061797a82617a47565b9050919050565b600061798c82617a47565b9050919050565b600061799e82617a47565b9050919050565b60006179b082617a47565b9050919050565b60006179c282617a47565b9050919050565b60006179d482617a47565b9050919050565b60006179e682617a47565b9050919050565b60006179f882617a47565b9050919050565b6000617a0a82617a59565b9050919050565b6000617a1c8261792e565b9050919050565b6000617a2e8261794c565b9050919050565b6000617a408261791f565b9050919050565b6000617a5282617a6b565b9050919050565b6000617a6482617a6b565b9050919050565b6000617a76826178ff565b9050919050565b82818337600083830152505050565b60005b83811015617aaa578082015181840152602081019050617a8f565b83811115617ab9576000848401525b50505050565b60006002820490506001821680617ad757607f821691505b60208210811415617aeb57617aea617c28565b5b50919050565b617afa82617cce565b810181811067ffffffffffffffff82111715617b1957617b18617c86565b5b80604052505050565b6000617b2d8261792e565b91507fffffffffffffffffffffffffffffffffffffffffffffffffffffffffffffffff821415617b6057617b5f617bca565b5b600182019050919050565b6000617b7682617b7d565b9050919050565b6000617b8882617cdf565b9050919050565b6000819050919050565b6000617ba48261792e565b9150617baf8361792e565b925082617bbf57617bbe617bf9565b5b828206905092915050565b7f4e487b7100000000000000000000000000000000000000000000000000000000600052601160045260246000fd5b7f4e487b7100000000000000000000000000000000000000000000000000000000600052601260045260246000fd5b7f4e487b7100000000000000000000000000000000000000000000000000000000600052602260045260246000fd5b7f4e487b7100000000000000000000000000000000000000000000000000000000600052603260045260246000fd5b7f4e487b7100000000000000000000000000000000000000000000000000000000600052604160045260246000fd5b600080fd5b600080fd5b600080fd5b600080fd5b600080fd5b6000601f19601f8301169050919050565b60008160601b9050919050565b60008160011c9050919050565b7f756e61626c6520746f207472616e73666572416e6443616c6c20746f206f726160008201527f636c650000000000000000000000000000000000000000000000000000000000602082015250565b7f50726f706f7361626c654f776e61626c653a206e6577206f776e65722069732060008201527f6e6f742070726f706f736564206f776e65720000000000000000000000000000602082015250565b7f50726f706f7361626c654f776e61626c653a20746869732063616c6c206d757360008201527f74206265206d61646520627920746865206e6577206f776e6572000000000000602082015250565b7f496e697469616c697a61626c653a20636f6e747261637420697320616c72656160008201527f647920696e697469616c697a6564000000000000000000000000000000000000602082015250565b7f43616c6c6572206973206e6f7420696e64657820666163746f72792062616c6160008201527f6e63657220636f6e74726163742e000000000000000000000000000000000000602082015250565b7f4f776e61626c653a2063616c6c6572206973206e6f7420746865206f776e6572600082015250565b7f50726f706f7361626c654f776e61626c653a206e6577206f776e65722069732060008201527f746865207a65726f206164647265737300000000000000000000000000000000602082015250565b7f49434f3a205072696365206665656420616464726573732063616e6e6f74206260008201527f65207a65726f2061646472657373000000000000000000000000000000000000602082015250565b7f536f75726365206d75737420626520746865206f7261636c65206f662074686560008201527f2072657175657374000000000000000000000000000000000000000000000000602082015250565b7f496e697469616c697a61626c653a20636f6e7472616374206973206e6f74206960008201527f6e697469616c697a696e67000000000000000000000000000000000000000000602082015250565b617ff281617858565b8114617ffd57600080fd5b50565b6180098161786a565b811461801457600080fd5b50565b6180208161787c565b811461802b57600080fd5b50565b61803781617888565b811461804257600080fd5b50565b61804e816178be565b811461805957600080fd5b50565b618065816178cb565b811461807057600080fd5b50565b61807c816178d5565b811461808757600080fd5b50565b618093816178f1565b811461809e57600080fd5b50565b6180aa816178ff565b81146180b557600080fd5b50565b6180c18161792e565b81146180cc57600080fd5b50565b6180d881617938565b81146180e357600080fd5b50565b6180ef8161794c565b81146180fa57600080fd5b50565b61810681617959565b811461811157600080fd5b5056fe68747470733a2f2f6170702e6e65786c6162732e696f2f6170692f616c6c46756e64696e6752617465733f6d756c7469706c7946756e633d31382674696d65734e656746756e643d74727565266172726179733d74727565a26469706673582212201a377854a081e8cf97705b6310ce7d3cb0833220d528c82301f6790c5b62c79f64736f6c63430008070033","linkReferences":{}},"methodIdentifiers":{"allCurrentChainSelectorTokenShares(uint64)":"af696b34","allCurrentChainSelectorTokens(uint64)":"d1c68aa3","allCurrentChainSelectorVersions(uint64)":"221f3371","allOracleChainSelectorTokenShares(uint64)":"bf0d49c0","allOracleChainSelectorTokens(uint64)":"d050ca7c","allOracleChainSelectorVersions(uint64)":"a1adff88","concatenation(string,string)":"0e329357","crossChainFactoryBySelector(uint64)":"340fbc74","crossChainToken(uint64)":"19da7e2a","crossChainTokenSwapVersion(uint64,address)":"174cbe50","currentChainSelector()":"3d54cb6f","currentChainSelectorTokenShares(uint256,uint64,uint256)":"9f91affc","currentChainSelectorTokens(uint256,uint64,uint256)":"271b5fcc","currentChainSelectorTokensCount(uint64)":"b6ad185b","currentChainSelectorTotalShares(uint256,uint64)":"44fd376f","currentChainSelectorVersions(uint256,uint64,uint256)":"bb0ed513","currentChainSelectors(uint256,uint256)":"db561922","currentChainSelectorsCount()":"69487b1c","currentFilledCount()":"b90b8a2a","currentList(uint256)":"9932ba4c","estimateAmountOut(address,address,uint128)":"0456f9c8","externalJobId()":"a8b54bd4","factoryV2()":"68e0d4e1","factoryV3()":"1d5f45f5","feeRate()":"978bbdb9","fulfillAssetsData(bytes32,address[],uint256[],uint256[],uint64[])":"d1db5984","getAmountOut(address,address,uint256,uint256)":"13cb1f83","getPortfolioBalance()":"a8509fd8","indexFactory()":"e3fd0af2","indexFactoryBalancer()":"29d75de9","indexToken()":"e7d015f2","initialize(uint64,address,address,address,bytes32,address,address,address,address,address,address)":"9ebe560e","isCurrentChainSelectorStored(uint256,uint64)":"2585dd26","isOracleChainSelectorStored(uint256,uint64)":"3ff34ef4","lastUpdateTime()":"c8f33c91","latestFeeUpdate()":"011ced5f","mockFillAssetsList(address[],uint256[],uint256[],uint64[])":"d7eefdaa","mockUpdateCurrentList()":"4f9641b9","oracleChainSelectorTokenShares(uint256,uint64,uint256)":"9c8bbe8f","oracleChainSelectorTokens(uint256,uint64,uint256)":"bd96993c","oracleChainSelectorTokensCount(uint64)":"fc698b4a","oracleChainSelectorTotalShares(uint256,uint64)":"77b2688f","oracleChainSelectorVersions(uint256,uint64,uint256)":"cf095239","oracleChainSelectors(uint256,uint256)":"95a7e2b3","oracleChainSelectorsCount()":"8e9d7c18","oracleFilledCount()":"f1581787","oracleList(uint256)":"239aad0d","oraclePayment()":"0c02e130","owner()":"8da5cb5b","priceInWei()":"3c8da588","proposeOwner(address)":"b5ed298a","proposedOwner()":"d153b60c","quoter()":"c6bbd5a7","renounceOwnership()":"715018a6","requestAssetsData()":"7ca58c55","setCrossChainFactory(address,uint64)":"271040df","setCrossChainToken(uint64,address,uint256)":"195c4913","setIndexFactory(address)":"d047937f","setIndexFactoryBalancer(address)":"ae214f39","setPriceFeed(address)":"724e78da","setUrl(string,string)":"a73e1cbf","swap(address,address,uint256,address,uint256)":"17d88f46","swapRouterV2()":"744fbc7a","swapRouterV3()":"b631e80b","toUsdPriceFeed()":"63973fda","tokenChainSelector(address)":"ea8ecf04","tokenCurrentListIndex(address)":"914f0cc6","tokenCurrentMarketShare(address)":"0be52713","tokenOracleListIndex(address)":"8c88c10c","tokenOracleMarketShare(address)":"4b3e0b80","tokenSwapVersion(address)":"d90bc211","totalCurrentChainSelectors()":"92e410ce","totalCurrentList()":"53fd4332","totalOracleChainSelectors()":"80acffa3","totalOracleList()":"c8599ded","transferOwnership(address)":"f2fde38b","updateCurrentList()":"8baa6bf1","weth()":"3fc8cef3"},"id":5}