{"abi":[{"type":"function","name":"acceptOwnership","inputs":[],"outputs":[],"stateMutability":"nonpayable"},{"type":"function","name":"allCurrentChainSelectorTokenShares","inputs":[{"name":"_chainSelector","type":"uint64","internalType":"uint64"}],"outputs":[{"name":"","type":"uint256[]","internalType":"uint256[]"}],"stateMutability":"view"},{"type":"function","name":"allCurrentChainSelectorTokens","inputs":[{"name":"_chainSelector","type":"uint64","internalType":"uint64"}],"outputs":[{"name":"tokens","type":"address[]","internalType":"address[]"}],"stateMutability":"view"},{"type":"function","name":"allCurrentChainSelectorVersions","inputs":[{"name":"_chainSelector","type":"uint64","internalType":"uint64"}],"outputs":[{"name":"versions","type":"uint256[]","internalType":"uint256[]"}],"stateMutability":"view"},{"type":"function","name":"allOracleChainSelectorTokenShares","inputs":[{"name":"_chainSelector","type":"uint64","internalType":"uint64"}],"outputs":[{"name":"","type":"uint256[]","internalType":"uint256[]"}],"stateMutability":"view"},{"type":"function","name":"allOracleChainSelectorTokens","inputs":[{"name":"_chainSelector","type":"uint64","internalType":"uint64"}],"outputs":[{"name":"tokens","type":"address[]","internalType":"address[]"}],"stateMutability":"view"},{"type":"function","name":"allOracleChainSelectorVersions","inputs":[{"name":"_chainSelector","type":"uint64","internalType":"uint64"}],"outputs":[{"name":"versions","type":"uint256[]","internalType":"uint256[]"}],"stateMutability":"view"},{"type":"function","name":"concatenation","inputs":[{"name":"a","type":"string","internalType":"string"},{"name":"b","type":"string","internalType":"string"}],"outputs":[{"name":"","type":"string","internalType":"string"}],"stateMutability":"pure"},{"type":"function","name":"crossChainFactoryBySelector","inputs":[{"name":"","type":"uint64","internalType":"uint64"}],"outputs":[{"name":"","type":"address","internalType":"address"}],"stateMutability":"view"},{"type":"function","name":"crossChainToken","inputs":[{"name":"","type":"uint64","internalType":"uint64"}],"outputs":[{"name":"","type":"address","internalType":"address"}],"stateMutability":"view"},{"type":"function","name":"crossChainTokenSwapFee","inputs":[{"name":"","type":"uint64","internalType":"uint64"},{"name":"","type":"address","internalType":"address"}],"outputs":[{"name":"","type":"uint24","internalType":"uint24"}],"stateMutability":"view"},{"type":"function","name":"currentChainSelector","inputs":[],"outputs":[{"name":"","type":"uint64","internalType":"uint64"}],"stateMutability":"view"},{"type":"function","name":"currentChainSelectorTokensCount","inputs":[{"name":"_chainSelector","type":"uint64","internalType":"uint64"}],"outputs":[{"name":"","type":"uint256","internalType":"uint256"}],"stateMutability":"view"},{"type":"function","name":"currentChainSelectorsCount","inputs":[],"outputs":[{"name":"","type":"uint256","internalType":"uint256"}],"stateMutability":"view"},{"type":"function","name":"currentFilledCount","inputs":[],"outputs":[{"name":"","type":"uint256","internalType":"uint256"}],"stateMutability":"view"},{"type":"function","name":"currentList","inputs":[{"name":"","type":"uint256","internalType":"uint256"}],"outputs":[{"name":"","type":"address","internalType":"address"}],"stateMutability":"view"},{"type":"function","name":"donId","inputs":[],"outputs":[{"name":"","type":"bytes32","internalType":"bytes32"}],"stateMutability":"view"},{"type":"function","name":"estimateAmountOut","inputs":[{"name":"tokenIn","type":"address","internalType":"address"},{"name":"tokenOut","type":"address","internalType":"address"},{"name":"amountIn","type":"uint128","internalType":"uint128"},{"name":"fee","type":"uint24","internalType":"uint24"}],"outputs":[{"name":"amountOut","type":"uint256","internalType":"uint256"}],"stateMutability":"view"},{"type":"function","name":"estimateAmountOutWithPath","inputs":[{"name":"path","type":"address[]","internalType":"address[]"},{"name":"fees","type":"uint24[]","internalType":"uint24[]"},{"name":"amountIn","type":"uint256","internalType":"uint256"}],"outputs":[{"name":"amountOut","type":"uint256","internalType":"uint256"}],"stateMutability":"view"},{"type":"function","name":"factoryV2","inputs":[],"outputs":[{"name":"","type":"address","internalType":"contract IUniswapV2Factory"}],"stateMutability":"view"},{"type":"function","name":"factoryV3","inputs":[],"outputs":[{"name":"","type":"address","internalType":"contract IUniswapV3Factory"}],"stateMutability":"view"},{"type":"function","name":"feeRate","inputs":[],"outputs":[{"name":"","type":"uint8","internalType":"uint8"}],"stateMutability":"view"},{"type":"function","name":"fromETHFees","inputs":[{"name":"","type":"address","internalType":"address"},{"name":"","type":"uint256","internalType":"uint256"}],"outputs":[{"name":"","type":"uint24","internalType":"uint24"}],"stateMutability":"view"},{"type":"function","name":"fromETHPath","inputs":[{"name":"","type":"address","internalType":"address"},{"name":"","type":"uint256","internalType":"uint256"}],"outputs":[{"name":"","type":"address","internalType":"address"}],"stateMutability":"view"},{"type":"function","name":"functionsRouterAddress","inputs":[],"outputs":[{"name":"","type":"address","internalType":"address"}],"stateMutability":"view"},{"type":"function","name":"getAmountOut","inputs":[{"name":"path","type":"address[]","internalType":"address[]"},{"name":"fees","type":"uint24[]","internalType":"uint24[]"},{"name":"amountIn","type":"uint256","internalType":"uint256"}],"outputs":[{"name":"finalAmountOutValue","type":"uint256","internalType":"uint256"}],"stateMutability":"view"},{"type":"function","name":"getCurrentChainSelectorTotalShares","inputs":[{"name":"index","type":"uint256","internalType":"uint256"},{"name":"chainSelector","type":"uint64","internalType":"uint64"}],"outputs":[{"name":"","type":"uint256","internalType":"uint256"}],"stateMutability":"view"},{"type":"function","name":"getCurrentData","inputs":[{"name":"index","type":"uint256","internalType":"uint256"}],"outputs":[{"name":"tokens","type":"address[]","internalType":"address[]"},{"name":"marketShares","type":"uint256[]","internalType":"uint256[]"},{"name":"chainSelectors","type":"uint64[]","internalType":"uint64[]"}],"stateMutability":"view"},{"type":"function","name":"getFromETHPathBytesForTokens","inputs":[{"name":"_tokens","type":"address[]","internalType":"address[]"}],"outputs":[{"name":"","type":"bytes[]","internalType":"bytes[]"}],"stateMutability":"view"},{"type":"function","name":"getFromETHPathData","inputs":[{"name":"_tokenAddress","type":"address","internalType":"address"}],"outputs":[{"name":"","type":"address[]","internalType":"address[]"},{"name":"","type":"uint24[]","internalType":"uint24[]"}],"stateMutability":"view"},{"type":"function","name":"getOracleChainSelectorTotalShares","inputs":[{"name":"index","type":"uint256","internalType":"uint256"},{"name":"chainSelector","type":"uint64","internalType":"uint64"}],"outputs":[{"name":"","type":"uint256","internalType":"uint256"}],"stateMutability":"view"},{"type":"function","name":"getOracleData","inputs":[{"name":"index","type":"uint256","internalType":"uint256"}],"outputs":[{"name":"tokens","type":"address[]","internalType":"address[]"},{"name":"marketShares","type":"uint256[]","internalType":"uint256[]"},{"name":"chainSelectors","type":"uint64[]","internalType":"uint64[]"}],"stateMutability":"view"},{"type":"function","name":"getPortfolioBalance","inputs":[],"outputs":[{"name":"","type":"uint256","internalType":"uint256"}],"stateMutability":"view"},{"type":"function","name":"getToETHPathData","inputs":[{"name":"_tokenAddress","type":"address","internalType":"address"}],"outputs":[{"name":"","type":"address[]","internalType":"address[]"},{"name":"","type":"uint24[]","internalType":"uint24[]"}],"stateMutability":"view"},{"type":"function","name":"handleOracleFulfillment","inputs":[{"name":"requestId","type":"bytes32","internalType":"bytes32"},{"name":"response","type":"bytes","internalType":"bytes"},{"name":"err","type":"bytes","internalType":"bytes"}],"outputs":[],"stateMutability":"nonpayable"},{"type":"function","name":"indexFactory","inputs":[],"outputs":[{"name":"","type":"address","internalType":"address"}],"stateMutability":"view"},{"type":"function","name":"indexFactoryBalancer","inputs":[],"outputs":[{"name":"","type":"address","internalType":"address"}],"stateMutability":"view"},{"type":"function","name":"indexToken","inputs":[],"outputs":[{"name":"","type":"address","internalType":"contract IndexToken"}],"stateMutability":"view"},{"type":"function","name":"initialize","inputs":[{"name":"_currentChainSelector","type":"uint64","internalType":"uint64"},{"name":"_token","type":"address","internalType":"address payable"},{"name":"_chainlinkToken","type":"address","internalType":"address"},{"name":"_functionsRouterAddress","type":"address","internalType":"address"},{"name":"_newDonId","type":"bytes32","internalType":"bytes32"},{"name":"_toUsdPriceFeed","type":"address","internalType":"address"},{"name":"_weth","type":"address","internalType":"address"},{"name":"_swapRouterV3","type":"address","internalType":"address"},{"name":"_factoryV3","type":"address","internalType":"address"},{"name":"_swapRouterV2","type":"address","internalType":"address"},{"name":"_factoryV2","type":"address","internalType":"address"}],"outputs":[],"stateMutability":"nonpayable"},{"type":"function","name":"lastUpdateTime","inputs":[],"outputs":[{"name":"","type":"uint256","internalType":"uint256"}],"stateMutability":"view"},{"type":"function","name":"latestFeeUpdate","inputs":[],"outputs":[{"name":"","type":"uint256","internalType":"uint256"}],"stateMutability":"view"},{"type":"function","name":"mockFillAssetsList","inputs":[{"name":"_tokens","type":"address[]","internalType":"address[]"},{"name":"_pathBytes","type":"bytes[]","internalType":"bytes[]"},{"name":"_marketShares","type":"uint256[]","internalType":"uint256[]"},{"name":"_chainSelectors","type":"uint64[]","internalType":"uint64[]"}],"outputs":[],"stateMutability":"nonpayable"},{"type":"function","name":"mockUpdateCurrentList","inputs":[],"outputs":[],"stateMutability":"nonpayable"},{"type":"function","name":"oracleChainSelectorTokensCount","inputs":[{"name":"_chainSelector","type":"uint64","internalType":"uint64"}],"outputs":[{"name":"","type":"uint256","internalType":"uint256"}],"stateMutability":"view"},{"type":"function","name":"oracleChainSelectorsCount","inputs":[],"outputs":[{"name":"","type":"uint256","internalType":"uint256"}],"stateMutability":"view"},{"type":"function","name":"oracleFilledCount","inputs":[],"outputs":[{"name":"","type":"uint256","internalType":"uint256"}],"stateMutability":"view"},{"type":"function","name":"oracleList","inputs":[{"name":"","type":"uint256","internalType":"uint256"}],"outputs":[{"name":"","type":"address","internalType":"address"}],"stateMutability":"view"},{"type":"function","name":"owner","inputs":[],"outputs":[{"name":"","type":"address","internalType":"address"}],"stateMutability":"view"},{"type":"function","name":"priceInWei","inputs":[],"outputs":[{"name":"","type":"uint256","internalType":"uint256"}],"stateMutability":"view"},{"type":"function","name":"priceOracle","inputs":[],"outputs":[{"name":"","type":"address","internalType":"address"}],"stateMutability":"view"},{"type":"function","name":"quoter","inputs":[],"outputs":[{"name":"","type":"address","internalType":"contract IQuoter"}],"stateMutability":"view"},{"type":"function","name":"requestAssetsData","inputs":[{"name":"source","type":"string","internalType":"string"},{"name":"encryptedSecretsReference","type":"bytes","internalType":"bytes"},{"name":"args","type":"string[]","internalType":"string[]"},{"name":"bytesArgs","type":"bytes[]","internalType":"bytes[]"},{"name":"subscriptionId","type":"uint64","internalType":"uint64"},{"name":"callbackGasLimit","type":"uint32","internalType":"uint32"}],"outputs":[{"name":"","type":"bytes32","internalType":"bytes32"}],"stateMutability":"nonpayable"},{"type":"function","name":"setCrossChainFactory","inputs":[{"name":"_crossChainFactoryAddress","type":"address","internalType":"address"},{"name":"_chainSelector","type":"uint64","internalType":"uint64"}],"outputs":[],"stateMutability":"nonpayable"},{"type":"function","name":"setCrossChainToken","inputs":[{"name":"_chainSelector","type":"uint64","internalType":"uint64"},{"name":"_crossChainToken","type":"address","internalType":"address"},{"name":"_fromETHPath","type":"address[]","internalType":"address[]"},{"name":"_fromETHFees","type":"uint24[]","internalType":"uint24[]"}],"outputs":[],"stateMutability":"nonpayable"},{"type":"function","name":"setDonId","inputs":[{"name":"newDonId","type":"bytes32","internalType":"bytes32"}],"outputs":[],"stateMutability":"nonpayable"},{"type":"function","name":"setIndexFactory","inputs":[{"name":"_indexFactory","type":"address","internalType":"address"}],"outputs":[],"stateMutability":"nonpayable"},{"type":"function","name":"setIndexFactoryBalancer","inputs":[{"name":"_indexFactoryBalancer","type":"address","internalType":"address"}],"outputs":[],"stateMutability":"nonpayable"},{"type":"function","name":"setPriceFeed","inputs":[{"name":"_toUsdPricefeed","type":"address","internalType":"address"}],"outputs":[],"stateMutability":"nonpayable"},{"type":"function","name":"setPriceOracle","inputs":[{"name":"_priceOracle","type":"address","internalType":"address"}],"outputs":[],"stateMutability":"nonpayable"},{"type":"function","name":"setUrl","inputs":[{"name":"_beforeAddress","type":"string","internalType":"string"},{"name":"_afterAddress","type":"string","internalType":"string"}],"outputs":[],"stateMutability":"nonpayable"},{"type":"function","name":"setVault","inputs":[{"name":"_vaultAddress","type":"address","internalType":"address"}],"outputs":[],"stateMutability":"nonpayable"},{"type":"function","name":"swapRouterV2","inputs":[],"outputs":[{"name":"","type":"address","internalType":"contract IUniswapV2Router02"}],"stateMutability":"view"},{"type":"function","name":"swapRouterV3","inputs":[],"outputs":[{"name":"","type":"address","internalType":"contract ISwapRouter"}],"stateMutability":"view"},{"type":"function","name":"toETHFees","inputs":[{"name":"","type":"address","internalType":"address"},{"name":"","type":"uint256","internalType":"uint256"}],"outputs":[{"name":"","type":"uint24","internalType":"uint24"}],"stateMutability":"view"},{"type":"function","name":"toETHPath","inputs":[{"name":"","type":"address","internalType":"address"},{"name":"","type":"uint256","internalType":"uint256"}],"outputs":[{"name":"","type":"address","internalType":"address"}],"stateMutability":"view"},{"type":"function","name":"toUsdPriceFeed","inputs":[],"outputs":[{"name":"","type":"address","internalType":"contract AggregatorV3Interface"}],"stateMutability":"view"},{"type":"function","name":"tokenChainSelector","inputs":[{"name":"","type":"address","internalType":"address"}],"outputs":[{"name":"","type":"uint64","internalType":"uint64"}],"stateMutability":"view"},{"type":"function","name":"tokenCurrentListIndex","inputs":[{"name":"","type":"address","internalType":"address"}],"outputs":[{"name":"","type":"uint256","internalType":"uint256"}],"stateMutability":"view"},{"type":"function","name":"tokenCurrentMarketShare","inputs":[{"name":"","type":"address","internalType":"address"}],"outputs":[{"name":"","type":"uint256","internalType":"uint256"}],"stateMutability":"view"},{"type":"function","name":"tokenOracleListIndex","inputs":[{"name":"","type":"address","internalType":"address"}],"outputs":[{"name":"","type":"uint256","internalType":"uint256"}],"stateMutability":"view"},{"type":"function","name":"tokenOracleMarketShare","inputs":[{"name":"","type":"address","internalType":"address"}],"outputs":[{"name":"","type":"uint256","internalType":"uint256"}],"stateMutability":"view"},{"type":"function","name":"totalCurrentChainSelectors","inputs":[],"outputs":[{"name":"","type":"uint256","internalType":"uint256"}],"stateMutability":"view"},{"type":"function","name":"totalCurrentList","inputs":[],"outputs":[{"name":"","type":"uint256","internalType":"uint256"}],"stateMutability":"view"},{"type":"function","name":"totalOracleChainSelectors","inputs":[],"outputs":[{"name":"","type":"uint256","internalType":"uint256"}],"stateMutability":"view"},{"type":"function","name":"totalOracleList","inputs":[],"outputs":[{"name":"","type":"uint256","internalType":"uint256"}],"stateMutability":"view"},{"type":"function","name":"transferOwnership","inputs":[{"name":"to","type":"address","internalType":"address"}],"outputs":[],"stateMutability":"nonpayable"},{"type":"function","name":"updateCurrentList","inputs":[],"outputs":[],"stateMutability":"nonpayable"},{"type":"function","name":"vault","inputs":[],"outputs":[{"name":"","type":"address","internalType":"contract Vault"}],"stateMutability":"view"},{"type":"function","name":"weth","inputs":[],"outputs":[{"name":"","type":"address","internalType":"contract IWETH"}],"stateMutability":"view"},{"type":"event","name":"Initialized","inputs":[{"name":"version","type":"uint8","indexed":false,"internalType":"uint8"}],"anonymous":false},{"type":"event","name":"OwnershipTransferRequested","inputs":[{"name":"from","type":"address","indexed":true,"internalType":"address"},{"name":"to","type":"address","indexed":true,"internalType":"address"}],"anonymous":false},{"type":"event","name":"OwnershipTransferred","inputs":[{"name":"from","type":"address","indexed":true,"internalType":"address"},{"name":"to","type":"address","indexed":true,"internalType":"address"}],"anonymous":false},{"type":"event","name":"RequestFulfilled","inputs":[{"name":"id","type":"bytes32","indexed":true,"internalType":"bytes32"}],"anonymous":false},{"type":"event","name":"RequestSent","inputs":[{"name":"id","type":"bytes32","indexed":true,"internalType":"bytes32"}],"anonymous":false},{"type":"error","name":"EmptyArgs","inputs":[]},{"type":"error","name":"EmptySource","inputs":[]},{"type":"error","name":"NoInlineSecrets","inputs":[]},{"type":"error","name":"OnlyRouterCanFulfill","inputs":[]}],"bytecode":{"object":"0x6080604052348015600e575f80fd5b5061598d8061001c5f395ff3fe608060405234801561000f575f80fd5b5060043610610455575f3560e01c80638c88c10c1161024d578063b90b8a2a11610140578063e3c91043116100bf578063ee7bd3e211610084578063ee7bd3e214610b34578063f158178714610b47578063f2fde38b14610b50578063fbfa77cf14610b63578063fc698b4a14610b76575f80fd5b8063e3c9104314610ac0578063e3fd0af214610ad3578063e6096a5f14610ae6578063e7d015f214610af9578063ea8ecf0414610b0c575f80fd5b8063d047937f11610105578063d047937f14610a54578063d050ca7c14610a67578063d1c68aa314610a87578063d3f7f26614610a9a578063dfbd389714610aad575f80fd5b8063b90b8a2a14610a13578063bf0d49c014610a1c578063c6bbd5a714610a2f578063c8599ded14610a42578063c8f33c9114610a4b575f80fd5b8063978bbdb9116101cc578063a8509fd811610191578063a8509fd814610998578063ae214f39146109a0578063af696b34146109b3578063b631e80b146109c6578063b6ad185b146109d9575f80fd5b8063978bbdb9146109185780639932ba4c146109375780639ebe560e1461095f578063a1adff8814610972578063a73e1cbf14610985575f80fd5b8063904c879411610212578063904c8794146108a9578063914f0cc6146108ca57806391b31b5b146108e957806392e410ce146108fc57806396096c9414610905575f80fd5b80638c88c10c146108445780638da5cb5b146108635780638dbe7b9d146108745780638e08b9451461087d5780638e9d7c1814610890575f80fd5b80634b3e0b8011610365578063709a04f2116102e45780637edbc2ff116102a95780637edbc2ff146107ed5780637fb214501461080057806380acffa3146108205780638baa6bf1146108295780638c03c55a14610831575f80fd5b8063709a04f214610799578063724e78da146107ac578063744fbc7a146107bf57806378ca5de7146107d257806379ba5097146107e5575f80fd5b806363973fda1161032a57806363973fda14610704578063652354ae146107175780636817031b1461075a57806368e0d4e11461076d57806369487b1c14610780575f80fd5b80634b3e0b801461069f5780634f9641b9146106be578063530e784f146106c6578063536e3f6a146106d957806353fd4332146106fb575f80fd5b8063221f3371116103f15780632a3ff8ad116103b65780632a3ff8ad146105f8578063340fbc74146106315780633c8da588146106595780633d54cb6f146106615780633fc8cef31461068c575f80fd5b8063221f337114610570578063239aad0d146105905780632630c12f146105b8578063271040df146105d257806329d75de9146105e5575f80fd5b8063011ced5f146104595780630be52713146104755780630ca76175146104945780630e329357146104a95780630ecdc1c6146104c957806316d9f6bd146104dc57806319da7e2a146104ef5780631d5f45f5146105245780631dce3de814610537575b5f80fd5b610462600a5481565b6040519081526020015b60405180910390f35b6104626104833660046141ac565b601a6020525f908152604090205481565b6104a76104a2366004614285565b610bb0565b005b6104bc6104b73660046142f0565b610c1a565b60405161046c9190614381565b6104a76104d73660046144b6565b610c47565b6104626104ea36600461453d565b610e14565b6105176104fd3660046145a9565b60066020525f90815260409020546001600160a01b031681565b60405161046c91906145c4565b602654610517906001600160a01b031681565b6104626105453660046145d8565b5f8281526023602090815260408083206001600160401b038516845260070190915290205492915050565b61058361057e3660046145a9565b610f1d565b60405161046c9190614636565b61051761059e366004614648565b60166020525f90815260409020546001600160a01b031681565b600b5461051790600160401b90046001600160a01b031681565b6104a76105e036600461465f565b610f93565b600554610517906001600160a01b031681565b6104626106063660046145d8565b5f8281526024602090815260408083206001600160401b038516845260070190915290205492915050565b61051761063f3660046145a9565b60086020525f90815260409020546001600160a01b031681565b610462610fd1565b600b54610674906001600160401b031681565b6040516001600160401b03909116815260200161046c565b602954610517906001600160a01b031681565b6104626106ad3660046141ac565b601b6020525f908152604090205481565b6104a76110d7565b6104a76106d43660046141ac565b6110e9565b6106ec6106e7366004614648565b61118c565b60405161046c939291906146c4565b61046260135481565b601054610517906001600160a01b031681565b610746610725366004614736565b600760209081525f928352604080842090915290825290205462ffffff1681565b60405162ffffff909116815260200161046c565b6104a76107683660046141ac565b6112e1565b602854610517906001600160a01b031681565b6022545f90815260246020526040902060020154610462565b6105176107a7366004614762565b61130b565b6104a76107ba3660046141ac565b61133f565b602754610517906001600160a01b031681565b6104a76107e0366004614648565b6113d6565b6104a76113e3565b6107466107fb366004614762565b611490565b61081361080e36600461478c565b6114d2565b60405161046c91906147bd565b61046260145481565b6104a761164b565b61046261083f3660046148b7565b6116bc565b6104626108523660046141ac565b60186020525f908152604090205481565b6001546001600160a01b0316610517565b610462600e5481565b61074661088b366004614762565b6117df565b6021545f90815260236020526040902060020154610462565b6108bc6108b73660046141ac565b6117f8565b60405161046c9291906149a1565b6104626108d83660046141ac565b60196020525f908152604090205481565b6105176108f7366004614762565b6118f5565b61046260155481565b6104a7610913366004614b2a565b61190e565b6009546109259060ff1681565b60405160ff909116815260200161046c565b610517610945366004614648565b60176020525f90815260409020546001600160a01b031681565b6104a761096d366004614be6565b611928565b6105836109803660046145a9565b611f0b565b6104a76109933660046142f0565b611f7f565b610462611fa5565b6104a76109ae3660046141ac565b6121dc565b6105836109c13660046145a9565b612206565b602554610517906001600160a01b031681565b6104626109e73660046145a9565b6022545f9081526024602090815260408083206001600160401b03909416835260049093019052205490565b61046260225481565b610583610a2a3660046145a9565b61227a565b602a54610517906001600160a01b031681565b61046260125481565b61046260115481565b6104a7610a623660046141ac565b6122ee565b610a7a610a753660046145a9565b612318565b60405161046c9190614cb2565b610a7a610a953660046145a9565b612397565b6106ec610aa8366004614648565b612415565b610462610abb36600461453d565b61253d565b600f54610517906001600160a01b031681565b600454610517906001600160a01b031681565b6108bc610af43660046141ac565b612606565b600354610517906001600160a01b031681565b610674610b1a3660046141ac565b601c6020525f90815260409020546001600160401b031681565b610462610b42366004614cc4565b6126dc565b61046260215481565b6104a7610b5e3660046141ac565b61276a565b602b54610517906001600160a01b031681565b610462610b843660046145a9565b6021545f9081526023602090815260408083206001600160401b03909416835260049093019052205490565b5f546201000090046001600160a01b03163314610be05760405163c6829f8360e01b815260040160405180910390fd5b610beb83838361277e565b60405183907f85e1543bf2f84fe80c6badbce3648c8539ad1df4d2b3d822938ca0538be727e6905f90a2505050565b60608282604051602001610c2f929190614d3f565b60405160208183030381529060405290505b92915050565b610c4f6128ed565b6001600160401b0384165f90815260066020908152604080832080546001600160a01b0319166001600160a01b0388169081179091558352601d82529091208351610c9c9285019061403a565b506001600160a01b0383165f908152601f602090815260409091208251610cc59284019061409d565b506040516336dfb51f60e01b815273__$4c5f58e1f74d2276ee49bfc89b0138653d$__906336dfb51f90610cfd908590600401614d53565b5f60405180830381865af4158015610d17573d5f803e3d5ffd5b505050506040513d5f823e601f3d908101601f19168201604052610d3e9190810190614e02565b6001600160a01b0384165f908152601e602090815260409091208251610d6a939192919091019061403a565b5060405163013d59ed60e21b815273__$4c5f58e1f74d2276ee49bfc89b0138653d$__906304f567b490610da2908490600401614e33565b5f60405180830381865af4158015610dbc573d5f803e3d5ffd5b505050506040513d5f823e601f3d908101601f19168201604052610de39190810190614ed3565b6001600160a01b0384165f908152602080805260409091208251610e0d939192919091019061409d565b5050505050565b5f81815b60018651610e269190614f18565b811015610f1457600b5460265487516001600160a01b03600160401b90930483169263bb5705b3921690899085908110610e6257610e62614f2b565b602002602001015189856001610e789190614f3f565b81518110610e8857610e88614f2b565b6020026020010151868a8781518110610ea357610ea3614f2b565b60200260200101516040518663ffffffff1660e01b8152600401610ecb959493929190614f52565b602060405180830381865afa158015610ee6573d5f803e3d5ffd5b505050506040513d601f19601f82011682018060405250810190610f0a9190614f92565b9150600101610e18565b50949350505050565b6022545f9081526024602090815260408083206001600160401b0385168452600501825291829020805483518184028101840190945280845260609392830182828015610f8757602002820191905f5260205f20905b815481526020019060010190808311610f73575b50505050509050919050565b610f9b6128ed565b6001600160401b03165f90815260086020526040902080546001600160a01b0319166001600160a01b0392909216919091179055565b5f8060105f9054906101000a90046001600160a01b03166001600160a01b031663feaf968c6040518163ffffffff1660e01b815260040160a060405180830381865afa158015611023573d5f803e3d5ffd5b505050506040513d601f19601f820116820180604052508101906110479190614fc2565b5050509150505f60105f9054906101000a90046001600160a01b03166001600160a01b031663313ce5676040518163ffffffff1660e01b8152600401602060405180830381865afa15801561109e573d5f803e3d5ffd5b505050506040513d601f19601f820116820180604052508101906110c29190615010565b90506110d082826012612940565b9392505050565b6110df6128ed565b6110e761297f565b565b6110f16128ed565b6001600160a01b0381166111605760405162461bcd60e51b815260206004820152602b60248201527f5072696365206f7261636c6520616464726573732063616e6e6f74206265207a60448201526a65726f206164647265737360a81b60648201526084015b60405180910390fd5b600b80546001600160a01b03909216600160401b02600160401b600160e01b0319909216919091179055565b5f818152602360209081526040918290208054835181840281018401909452808452606093849384939283926001840192600285019285918301828280156111fb57602002820191905f5260205f20905b81546001600160a01b031681526001909101906020018083116111dd575b505050505092508180548060200260200160405190810160405280929190818152602001828054801561124b57602002820191905f5260205f20905b815481526020019060010190808311611237575b50505050509150808054806020026020016040519081016040528092919081815260200182805480156112cc57602002820191905f5260205f20905f905b82829054906101000a90046001600160401b03166001600160401b0316815260200190600801906020826007010492830192600103820291508084116112895790505b50505050509050935093509350509193909250565b6112e96128ed565b602b80546001600160a01b0319166001600160a01b0392909216919091179055565b601d602052815f5260405f208181548110611324575f80fd5b5f918252602090912001546001600160a01b03169150829050565b6113476128ed565b6001600160a01b0381166113b45760405162461bcd60e51b815260206004820152602e60248201527f49434f3a205072696365206665656420616464726573732063616e6e6f74206260448201526d65207a65726f206164647265737360901b6064820152608401611157565b601080546001600160a01b0319166001600160a01b0392909216919091179055565b6113de6128ed565b600e55565b6002546001600160a01b031633146114365760405162461bcd60e51b815260206004820152601660248201527526bab9ba10313290383937b837b9b2b21037bbb732b960511b6044820152606401611157565b600180546001600160a01b0319808216339081179093556002805490911690556040516001600160a01b03909116919082907f8be0079c531659141344cd1fd0a4f28419497f9722a3daafe3b4186f6b6457e0905f90a350565b60208052815f5260405f2081815481106114a8575f80fd5b905f5260205f2090600a9182820401919006600302915091509054906101000a900462ffffff1681565b60605f82516001600160401b038111156114ee576114ee6141c7565b60405190808252806020026020018201604052801561152157816020015b606081526020019060019003908161150c5790505b5090505f5b83518110156116445773__$4c5f58e1f74d2276ee49bfc89b0138653d$__6380d35218601d5f87858151811061155e5761155e614f2b565b60200260200101516001600160a01b03166001600160a01b031681526020019081526020015f20601f5f88868151811061159a5761159a614f2b565b60200260200101516001600160a01b03166001600160a01b031681526020019081526020015f206040518363ffffffff1660e01b81526004016115de929190615030565b5f60405180830381865af41580156115f8573d5f803e3d5ffd5b505050506040513d5f823e601f3d908101601f1916820160405261161f91908101906152d8565b82828151811061163157611631614f2b565b6020908102919091010152600101611526565b5092915050565b6005546001600160a01b031633146110df5760405162461bcd60e51b815260206004820152602e60248201527f43616c6c6572206973206e6f7420696e64657820666163746f72792062616c6160448201526d3731b2b91031b7b73a3930b1ba1760911b6064820152608401611157565b5f6116fb6040805160e08101909152805f81526020015f81526020015f8152602001606081526020016060815260200160608152602001606081525090565b6117405f808e8e8080601f0160208091040260200160405190810160405280939291908181526020018383808284375f9201919091525087959493925050612bbd9050565b600160208201818152505089898080601f0160208091040260200160405190810160405280939291908181526020018383808284375f920191909152505050506080820152861561179f5761179f611798888a61531d565b8290612c3a565b84156117b9576117b96117b2868861537f565b8290612c63565b6117cf6117c582612c8c565b8585600e54612f50565b9c9b505050505050505050505050565b601f602052815f5260405f2081815481106114a8575f80fd5b6001600160a01b0381165f908152601d60209081526040808320601f83529281902083548251818502810185019093528083526060948594909391849183018282801561186c57602002820191905f5260205f20905b81546001600160a01b0316815260019091019060200180831161184e575b50505050509150808054806020026020016040519081016040528092919081815260200182805480156118e557602002820191905f5260205f20905f905b82829054906101000a900462ffffff1662ffffff16815260200190600301906020826002010492830192600103820291508084116118aa5790505b5050505050905091509150915091565b601e602052815f5260405f208181548110611324575f80fd5b6119166128ed565b61192284848484613005565b50505050565b5f54610100900460ff161580801561194657505f54600160ff909116105b8061195f5750303b15801561195f57505f5460ff166001145b6119c25760405162461bcd60e51b815260206004820152602e60248201527f496e697469616c697a61626c653a20636f6e747261637420697320616c72656160448201526d191e481a5b9a5d1a585b1a5e995960921b6064820152608401611157565b5f805460ff1916600117905580156119e3575f805461ff0019166101001790555b5f8c6001600160401b031611611a345760405162461bcd60e51b815260206004820152601660248201527524b73b30b634b21031b430b4b71039b2b632b1ba37b960511b6044820152606401611157565b6001600160a01b038b16611a825760405162461bcd60e51b8152602060048201526015602482015274496e76616c696420746f6b656e206164647265737360581b6044820152606401611157565b6001600160a01b038a16611ad85760405162461bcd60e51b815260206004820152601f60248201527f496e76616c696420436861696e6c696e6b20746f6b656e2061646472657373006044820152606401611157565b6001600160a01b038916611b2e5760405162461bcd60e51b815260206004820181905260248201527f496e76616c69642066756e6374696f6e7320726f7574657220616464726573736044820152606401611157565b875f03611b775760405162461bcd60e51b8152602060048201526017602482015276125b9d985b1a5908195e1d195c9b985b08191bdb881251604a1b6044820152606401611157565b6001600160a01b038716611bcd5760405162461bcd60e51b815260206004820152601a60248201527f496e76616c6964207072696365206665656420616464726573730000000000006044820152606401611157565b6001600160a01b038616611c1a5760405162461bcd60e51b8152602060048201526014602482015273496e76616c69642057455448206164647265737360601b6044820152606401611157565b6001600160a01b038516611c7f5760405162461bcd60e51b815260206004820152602660248201527f496e76616c696420556e6973776170205633207377617020726f75746572206160448201526564647265737360d01b6064820152608401611157565b6001600160a01b038416611ce05760405162461bcd60e51b815260206004820152602260248201527f496e76616c696420556e697377617020563320666163746f7279206164647265604482015261737360f01b6064820152608401611157565b6001600160a01b038316611d455760405162461bcd60e51b815260206004820152602660248201527f496e76616c696420556e6973776170205632207377617020726f75746572206160448201526564647265737360d01b6064820152608401611157565b6001600160a01b038216611da65760405162461bcd60e51b815260206004820152602260248201527f496e76616c696420556e697377617020563220666163746f7279206164647265604482015261737360f01b6064820152608401611157565b5f805462010000600160b01b031916620100006001600160a01b038c1602179055611dd0336138ae565b600b805467ffffffffffffffff19166001600160401b038e16179055600380546001600160a01b03199081166001600160a01b038e811691909117909255600e8a9055600f805482168c84161790556010805482168a8416179055602980548216898416179055602580548216888416179055602680548216878416179055602780548216868416179055602880549091169184169190911790556040805160608101909152602a8082526159006020830139600c90611e909082615401565b506040518060600160405280602e815260200161592a602e9139600d90611eb79082615401565b508015611efd575f805461ff0019169055604051600181527f7f26b83ff96e1f2b6a682f133852f6798a09c465da95921460cefb38474024989060200160405180910390a15b505050505050505050505050565b6021545f9081526023602090815260408083206001600160401b0385168452600501825291829020805483518184028101840190945280845260609392830182828015610f8757602002820191905f5260205f2090815481526020019060010190808311610f735750505050509050919050565b611f876128ed565b600c611f938382615401565b50600d611fa08282615401565b505050565b5f805f5b6013548110156121d6575f818152601760205260409020546029546001600160a01b039182169116810361205957602b546040516370a0823160e01b81526001600160a01b03838116926370a082319261200992909116906004016145c4565b602060405180830381865afa158015612024573d5f803e3d5ffd5b505050506040513d601f19601f820116820180604052508101906120489190614f92565b6120529084614f3f565b92506121cd565b6001600160a01b0381165f908152601e6020908152604080832080548251818502810185019093528083526121bd938301828280156120bf57602002820191905f5260205f20905b81546001600160a01b031681526001909101906020018083116120a1575b5050506001600160a01b0386165f90815260208080526040918290208054835181840281018401909452808452929450925083018282801561214757602002820191905f5260205f20905f905b82829054906101000a900462ffffff1662ffffff168152602001906003019060208260020104928301926001038202915080841161210c5790505b5050602b546040516370a0823160e01b81526001600160a01b038a811695506370a08231945061217e9350909116906004016145c4565b602060405180830381865afa158015612199573d5f803e3d5ffd5b505050506040513d601f19601f82011682018060405250810190610abb9190614f92565b90506121c98185614f3f565b9350505b50600101611fa9565b50919050565b6121e46128ed565b600580546001600160a01b0319166001600160a01b0392909216919091179055565b6022545f9081526024602090815260408083206001600160401b0385168452600601825291829020805483518184028101840190945280845260609392830182828015610f8757602002820191905f5260205f2090815481526020019060010190808311610f735750505050509050919050565b6021545f9081526023602090815260408083206001600160401b0385168452600601825291829020805483518184028101840190945280845260609392830182828015610f8757602002820191905f5260205f2090815481526020019060010190808311610f735750505050509050919050565b6122f66128ed565b600480546001600160a01b0319166001600160a01b0392909216919091179055565b6021545f9081526023602090815260408083206001600160401b0385168452600401825291829020805483518184028101840190945280845260609392830182828015610f8757602002820191905f5260205f20905b81546001600160a01b0316815260019091019060200180831161236e5750505050509050919050565b6022545f9081526024602090815260408083206001600160401b0385168452600401825291829020805483518184028101840190945280845260609392830182828015610f8757602002820191905f5260205f209081546001600160a01b0316815260019091019060200180831161236e5750505050509050919050565b5f818152602460209081526040918290208054835181840281018401909452808452606093849384939283926001840192600285019285918301828280156111fb57602002820191905f5260205f209081546001600160a01b031681526001909101906020018083116111dd57505050505092508180548060200260200160405190810160405280929190818152602001828054801561124b57602002820191905f5260205f20908154815260200190600101908083116112375750505050509150808054806020026020016040519081016040528092919081815260200182805480156112cc575f91825260209182902080546001600160401b031684529082028301929091600891018084116112895750979d969c50939a509498505050505050505050565b5f8082156125fe5783511561255e57612557858585610e14565b90506125fe565b60275460405163d06ca61f60e01b81525f916001600160a01b03169063d06ca61f906125909087908a906004016154bb565b5f60405180830381865afa1580156125aa573d5f803e3d5ffd5b505050506040513d5f823e601f3d908101601f191682016040526125d1919081019061552e565b905080600182516125e29190614f18565b815181106125f2576125f2614f2b565b60200260200101519150505b949350505050565b6001600160a01b0381165f908152601e602090815260408083208280529281902083548251818502810185019093528083526060948594909391849183018282801561186c57602002820191905f5260205f209081546001600160a01b0316815260019091019060200180831161184e5750505050509150808054806020026020016040519081016040528092919081815260200182805480156118e5575f918252602091829020805462ffffff1684529082028301929091600391018084116118aa5790505050505050905091509150915091565b600b5460265460405163bb5705b360e01b81525f92600160401b90046001600160a01b039081169263bb5705b39261272292909116908990899089908990600401614f52565b602060405180830381865afa15801561273d573d5f803e3d5ffd5b505050506040513d601f19601f820116820180604052508101906127619190614f92565b95945050505050565b6127726128ed565b61277b816138b8565b50565b5f805f808580602001905181019061279691906155c3565b93509350935093505f8451116127ee5760405162461bcd60e51b815260206004820152601c60248201527f546f6b656e732061727261792063616e6e6f7420626520656d707479000000006044820152606401611157565b83518251146128615760405162461bcd60e51b815260206004820152603960248201527f4d61726b657420736861726573206172726179206c656e677468206d757374206044820152780dac2e8c6d040e8ded6cadce640c2e4e4c2f240d8cadccee8d603b1b6064820152608401611157565b83518151146128d85760405162461bcd60e51b815260206004820152603b60248201527f436861696e2073656c6563746f7273206172726179206c656e677468206d757360448201527f74206d6174636820746f6b656e73206172726179206c656e67746800000000006064820152608401611157565b6128e484848484613005565b50505050505050565b6001546001600160a01b031633146110e75760405162461bcd60e51b815260206004820152601660248201527527b7363c9031b0b63630b1363290313c9037bbb732b960511b6044820152606401611157565b5f8260ff168260ff1611156129755761295983836156e4565b61296490600a6157e0565b61296e90856157ee565b90506110d0565b61295982846156e4565b600160225f8282546129919190614f3f565b909155505f90505b601254811015612bb4575f81815260166020908152604080832080546017845282852080546001600160a01b0319166001600160a01b039283169081178255835483168752601b865284872054908752601a865284872055825482168652601885528386205490548216865260198552838620559054168352601c8252808320546022548452602483528184206001600160401b0390911680855260039091019092529091205460ff16612abb57602280545f9081526024602081815260408084206001600160401b03878116808752600392830185528387208054600160ff199091168117909155975487529484529185206002018054968701815585529190932060048504018054949091166008026101000a9283021990931691021790555b602280545f9081526024602081815260408084206001600160401b03871680865260049091018352818520888652601684528286208054825460018101845592885285882090920180546001600160a01b0319166001600160a01b0393841617905554168552601b835281852054955485529282528084209284526007909201905281208054909190612b4f908490614f3f565b90915550506022545f9081526024602090815260408083206001600160401b0390941683526006909301815282822084835260168252838320546001600160a01b03168352601b82529282205483546001818101865594845291909220015501612999565b50601254601355565b80515f03612bde576040516322ce3edd60e01b815260040160405180910390fd5b83836002811115612bf157612bf1615309565b90816002811115612c0457612c04615309565b90525060408401828015612c1a57612c1a615309565b90818015612c2a57612c2a615309565b9052506060909301929092525050565b80515f03612c5b5760405163fe936cb760e01b815260040160405180910390fd5b60a090910152565b80515f03612c845760405163fe936cb760e01b815260040160405180910390fd5b60c090910152565b60605f612c9a61010061395b565b9050612cd36040518060400160405280600c81526020016b31b7b232a637b1b0ba34b7b760a11b8152508261397b90919063ffffffff16565b8251612cf1906002811115612cea57612cea615309565b8290613994565b6040805180820190915260088152676c616e677561676560c01b6020820152612d1b90829061397b565b6040830151612d32908015612cea57612cea615309565b604080518082019091526006815265736f7572636560d01b6020820152612d5a90829061397b565b6060830151612d6a90829061397b565b60a08301515115612df5576040805180820190915260048152636172677360e01b6020820152612d9b90829061397b565b612da4816139d1565b5f5b8360a0015151811015612deb57612de38460a001518281518110612dcc57612dcc614f2b565b60200260200101518361397b90919063ffffffff16565b600101612da6565b50612df5816139f5565b60808301515115612eb8575f83602001516002811115612e1757612e17615309565b03612e355760405163a80d31f760e01b815260040160405180910390fd5b60408051808201909152600f81526e39b2b1b932ba39a637b1b0ba34b7b760891b6020820152612e6690829061397b565b612e7f83602001516002811115612cea57612cea615309565b6040805180820190915260078152667365637265747360c81b6020820152612ea890829061397b565b6080830151612eb8908290613a13565b60c08301515115612f485760408051808201909152600981526862797465734172677360b81b6020820152612eee90829061397b565b612ef7816139d1565b5f5b8360c0015151811015612f3e57612f368460c001518281518110612f1f57612f1f614f2b565b602002602001015183613a1390919063ffffffff16565b600101612ef9565b50612f48816139f5565b515192915050565b5f805460405163230e93b160e11b815282916201000090046001600160a01b03169063461d276290612f8f9088908a906001908a908a9060040161581d565b6020604051808303815f875af1158015612fab573d5f803e3d5ffd5b505050506040513d601f19601f82011682018060405250810190612fcf9190614f92565b60405190915081907f1131472297a800fee664d1d89cfa8f7676ff07189ecc53f80bbb5f4969099db8905f90a295945050505050565b602180548591859185918591600191905f90613022908490614f3f565b90915550506013545f0361304857600160225f8282546130429190614f3f565b90915550505b5f5b845181101561388b5761308f85828151811061306857613068614f2b565b602002602001015185838151811061308257613082614f2b565b6020026020010151613a20565b8481815181106130a1576130a1614f2b565b602002602001015160165f8381526020019081526020015f205f6101000a8154816001600160a01b0302191690836001600160a01b031602179055508060185f8784815181106130f3576130f3614f2b565b60200260200101516001600160a01b03166001600160a01b031681526020019081526020015f208190555082818151811061313057613130614f2b565b6020026020010151601b5f87848151811061314d5761314d614f2b565b60200260200101516001600160a01b03166001600160a01b031681526020019081526020015f208190555081818151811061318a5761318a614f2b565b6020026020010151601c5f8784815181106131a7576131a7614f2b565b60200260200101516001600160a01b03166001600160a01b031681526020019081526020015f205f6101000a8154816001600160401b0302191690836001600160401b0316021790555060235f60215481526020019081526020015f206003015f83838151811061321a5761321a614f2b565b6020908102919091018101516001600160401b031682528101919091526040015f205460ff1661331a5760235f60215481526020019081526020015f2060020182828151811061326c5761326c614f2b565b6020908102919091018101518254600181810185555f948552838520600483040180546001600160401b0394851660086003958616026101000a9081029502191693909317909255602154845260239092526040832085519193920191908590859081106132dc576132dc614f2b565b60200260200101516001600160401b03166001600160401b031681526020019081526020015f205f6101000a81548160ff0219169083151502179055505b60235f60215481526020019081526020015f206004015f83838151811061334357613343614f2b565b60200260200101516001600160401b03166001600160401b031681526020019081526020015f2085828151811061337c5761337c614f2b565b60209081029190910181015182546001810184555f938452919092200180546001600160a01b0319166001600160a01b0390921691909117905582518390829081106133ca576133ca614f2b565b602002602001015160235f60215481526020019081526020015f206007015f8484815181106133fb576133fb614f2b565b60200260200101516001600160401b03166001600160401b031681526020019081526020015f205f8282546134309190614f3f565b9250508190555060235f60215481526020019081526020015f206006015f83838151811061346057613460614f2b565b60200260200101516001600160401b03166001600160401b031681526020019081526020015f2083828151811061349957613499614f2b565b60209081029190910181015182546001810184555f938452918320909101556013549003613883578481815181106134d3576134d3614f2b565b602002602001015160175f8381526020019081526020015f205f6101000a8154816001600160a01b0302191690836001600160a01b0316021790555082818151811061352157613521614f2b565b6020026020010151601a5f87848151811061353e5761353e614f2b565b60200260200101516001600160a01b03166001600160a01b031681526020019081526020015f20819055508060195f87848151811061357f5761357f614f2b565b60200260200101516001600160a01b03166001600160a01b031681526020019081526020015f208190555060245f60225481526020019081526020015f206003015f8383815181106135d3576135d3614f2b565b6020908102919091018101516001600160401b031682528101919091526040015f205460ff166136e557600160245f60225481526020019081526020015f206003015f84848151811061362857613628614f2b565b60200260200101516001600160401b03166001600160401b031681526020019081526020015f205f6101000a81548160ff02191690831515021790555060245f60225481526020019081526020015f2060020182828151811061368d5761368d614f2b565b6020026020010151908060018154018082558091505060019003905f5260205f2090600491828204019190066008029091909190916101000a8154816001600160401b0302191690836001600160401b031602179055505b60245f60225481526020019081526020015f206004015f83838151811061370e5761370e614f2b565b60200260200101516001600160401b03166001600160401b031681526020019081526020015f2085828151811061374757613747614f2b565b60209081029190910181015182546001810184555f938452919092200180546001600160a01b0319166001600160a01b03909216919091179055825183908290811061379557613795614f2b565b602002602001015160245f60225481526020019081526020015f206007015f8484815181106137c6576137c6614f2b565b60200260200101516001600160401b03166001600160401b031681526020019081526020015f205f8282546137fb9190614f3f565b9250508190555060245f60225481526020019081526020015f206006015f83838151811061382b5761382b614f2b565b60200260200101516001600160401b03166001600160401b031681526020019081526020015f2083828151811061386457613864614f2b565b60209081029190910181015182546001810184555f9384529190922001555b60010161304a565b5083516012556013545f036138a05783516013555b505042601155505050505050565b61277b815f613c29565b336001600160a01b0382160361390a5760405162461bcd60e51b815260206004820152601760248201527621b0b73737ba103a3930b739b332b9103a379039b2b63360491b6044820152606401611157565b600280546001600160a01b0319166001600160a01b03838116918217909255600154604051919216907fed8889f560326eb138920d842192f0eb3dd22b4f139c87a2c57538e05bae1278905f90a350565b613963614141565b805161396f9083613caa565b505f6020820152919050565b6139888260038351613d1e565b8151611fa09082613e37565b81516139a19060c2613e57565b506139cd82826040516020016139b991815260200190565b604051602081830303815290604052613a13565b5050565b6139dc816004613ebe565b6001816020018181516139ef9190614f3f565b90525050565b613a00816007613ebe565b6001816020018181516139ef9190614f18565b6139888260028351613d1e565b5f8082806020019051810190613a369190615865565b9150915080516001613a489190614f3f565b825114613a8e5760405162461bcd60e51b8152602060048201526014602482015273496e76616c696420696e7075742061727261797360601b6044820152606401611157565b6001600160a01b0384165f908152601d602090815260409091208351613ab69285019061403a565b506001600160a01b0384165f908152601f602090815260409091208251613adf9284019061409d565b506040516336dfb51f60e01b81525f9073__$4c5f58e1f74d2276ee49bfc89b0138653d$__906336dfb51f90613b19908690600401614d53565b5f60405180830381865af4158015613b33573d5f803e3d5ffd5b505050506040513d5f823e601f3d908101601f19168201604052613b5a9190810190614e02565b90505f73__$4c5f58e1f74d2276ee49bfc89b0138653d$__6304f567b4846040518263ffffffff1660e01b8152600401613b949190614e33565b5f60405180830381865af4158015613bae573d5f803e3d5ffd5b505050506040513d5f823e601f3d908101601f19168201604052613bd59190810190614ed3565b6001600160a01b0387165f908152601e602090815260409091208451929350613c0292909185019061403a565b506001600160a01b0386165f9081526020808052604090912082516128e49284019061409d565b6001600160a01b038216613c7a5760405162461bcd60e51b815260206004820152601860248201527743616e6e6f7420736574206f776e657220746f207a65726f60401b6044820152606401611157565b600180546001600160a01b0319166001600160a01b03848116919091179091558116156139cd576139cd816138b8565b60408051808201909152606081525f6020820152613cc96020836158be565b15613cf157613cd96020836158be565b613ce4906020614f18565b613cee9083614f3f565b91505b60208084018390526040518085525f8152908184010181811015613d13575f80fd5b604052509192915050565b6017816001600160401b031611613d445782516119229060e0600585901b168317613e57565b60ff816001600160401b031611613d84578251613d6c906018611fe0600586901b1617613e57565b508251611922906001600160401b0383166001613ed5565b61ffff816001600160401b031611613dc5578251613dad906019611fe0600586901b1617613e57565b508251611922906001600160401b0383166002613ed5565b63ffffffff816001600160401b031611613e08578251613df090601a611fe0600586901b1617613e57565b508251611922906001600160401b0383166004613ed5565b8251613e1f90601b611fe0600586901b1617613e57565b508251611922906001600160401b0383166008613ed5565b60408051808201909152606081525f60208201526110d083838451613f57565b60408051808201909152606081525f60208201528251515f613e7a826001614f3f565b905084602001518210613e9b57613e9b85613e968360026158dd565b614023565b8451602083820101858153508051821115613eb4578181525b5093949350505050565b8151611fa090601f611fe0600585901b1617613e57565b60408051808201909152606081525f60208201528351515f613ef78285614f3f565b90508560200151811115613f1457613f1486613e968360026158dd565b5f6001613f23866101006158f4565b613f2d9190614f18565b90508651828101878319825116178152508051831115613f4b578281525b50959695505050505050565b60408051808201909152606081525f60208201528251821115613f78575f80fd5b8351515f613f868483614f3f565b90508560200151811115613fa357613fa386613e968360026158dd565b85518051838201602001915f9180851115613fbc578482525b505050602086015b60208610613ffc5780518252613fdb602083614f3f565b9150613fe8602082614f3f565b9050613ff5602087614f18565b9550613fc4565b5181515f1960208890036101000a0190811690199190911617905250849150509392505050565b815161402f8383613caa565b506119228382613e37565b828054828255905f5260205f2090810192821561408d579160200282015b8281111561408d57825182546001600160a01b0319166001600160a01b03909116178255602090920191600190910190614058565b50614099929150614174565b5090565b828054828255905f5260205f2090600901600a9004810192821561408d579160200282015f5b8382111561410557835183826101000a81548162ffffff021916908362ffffff16021790555092602001926003016020816002010492830192600103026140c3565b80156141345782816101000a81549062ffffff0219169055600301602081600201049283019260010302614105565b5050614099929150614174565b60405180604001604052806141686040518060400160405280606081526020015f81525090565b81526020015f81525090565b5b80821115614099575f8155600101614175565b6001600160a01b038116811461277b575f80fd5b80356141a781614188565b919050565b5f602082840312156141bc575f80fd5b81356110d081614188565b634e487b7160e01b5f52604160045260245ffd5b604051601f8201601f191681016001600160401b0381118282101715614203576142036141c7565b604052919050565b5f6001600160401b03821115614223576142236141c7565b50601f01601f191660200190565b5f82601f830112614240575f80fd5b8135602083015f6142586142538461420b565b6141db565b905082815285838301111561426b575f80fd5b828260208301375f92810160200192909252509392505050565b5f805f60608486031215614297575f80fd5b8335925060208401356001600160401b038111156142b3575f80fd5b6142bf86828701614231565b92505060408401356001600160401b038111156142da575f80fd5b6142e686828701614231565b9150509250925092565b5f8060408385031215614301575f80fd5b82356001600160401b03811115614316575f80fd5b61432285828601614231565b92505060208301356001600160401b0381111561433d575f80fd5b61434985828601614231565b9150509250929050565b5f81518084528060208401602086015e5f602082860101526020601f19601f83011685010191505092915050565b602081525f6110d06020830184614353565b6001600160401b038116811461277b575f80fd5b80356141a781614393565b5f6001600160401b038211156143ca576143ca6141c7565b5060051b60200190565b5f82601f8301126143e3575f80fd5b81356143f1614253826143b2565b8082825260208201915060208360051b860101925085831115614412575f80fd5b602085015b8381101561443857803561442a81614188565b835260209283019201614417565b5095945050505050565b62ffffff8116811461277b575f80fd5b5f82601f830112614461575f80fd5b813561446f614253826143b2565b8082825260208201915060208360051b860101925085831115614490575f80fd5b602085015b838110156144385780356144a881614442565b835260209283019201614495565b5f805f80608085870312156144c9575f80fd5b84356144d481614393565b935060208501356144e481614188565b925060408501356001600160401b038111156144fe575f80fd5b61450a878288016143d4565b92505060608501356001600160401b03811115614525575f80fd5b61453187828801614452565b91505092959194509250565b5f805f6060848603121561454f575f80fd5b83356001600160401b03811115614564575f80fd5b614570868287016143d4565b93505060208401356001600160401b0381111561458b575f80fd5b61459786828701614452565b93969395505050506040919091013590565b5f602082840312156145b9575f80fd5b81356110d081614393565b6001600160a01b0391909116815260200190565b5f80604083850312156145e9575f80fd5b8235915060208301356145fb81614393565b809150509250929050565b5f8151808452602084019350602083015f5b82811015613eb4578151865260209586019590910190600101614618565b602081525f6110d06020830184614606565b5f60208284031215614658575f80fd5b5035919050565b5f8060408385031215614670575f80fd5b823561467b81614188565b915060208301356145fb81614393565b5f8151808452602084019350602083015f5b82811015613eb45781516001600160a01b031686526020958601959091019060010161469d565b606081525f6146d6606083018661468b565b82810360208401526146e88186614606565b8381036040850152845180825260208087019350909101905f5b818110156147295783516001600160401b0316835260209384019390920191600101614702565b5090979650505050505050565b5f8060408385031215614747575f80fd5b823561475281614393565b915060208301356145fb81614188565b5f8060408385031215614773575f80fd5b823561477e81614188565b946020939093013593505050565b5f6020828403121561479c575f80fd5b81356001600160401b038111156147b1575f80fd5b6125fe848285016143d4565b5f602082016020835280845180835260408501915060408160051b8601019250602086015f5b8281101561481457603f198786030184526147ff858351614353565b945060209384019391909101906001016147e3565b50929695505050505050565b5f8083601f840112614830575f80fd5b5081356001600160401b03811115614846575f80fd5b60208301915083602082850101111561485d575f80fd5b9250929050565b5f8083601f840112614874575f80fd5b5081356001600160401b0381111561488a575f80fd5b6020830191508360208260051b850101111561485d575f80fd5b803563ffffffff811681146141a7575f80fd5b5f805f805f805f805f8060c08b8d0312156148d0575f80fd5b8a356001600160401b038111156148e5575f80fd5b6148f18d828e01614820565b909b5099505060208b01356001600160401b0381111561490f575f80fd5b61491b8d828e01614820565b90995097505060408b01356001600160401b03811115614939575f80fd5b6149458d828e01614864565b90975095505060608b01356001600160401b03811115614963575f80fd5b61496f8d828e01614864565b9095509350614982905060808c016143a7565b915061499060a08c016148a4565b90509295989b9194979a5092959850565b604081525f6149b3604083018561468b565b82810360208401528084518083526020830191506020860192505f5b818110156149f257835162ffffff168352602093840193909201916001016149cf565b50909695505050505050565b5f614a0b614253846143b2565b838152905060208101600584901b830185811115614a27575f80fd5b835b81811015614a615780356001600160401b03811115614a46575f80fd5b614a5288828801614231565b84525060209283019201614a29565b5050509392505050565b5f82601f830112614a7a575f80fd5b8135614a88614253826143b2565b8082825260208201915060208360051b860101925085831115614aa9575f80fd5b602085015b83811015614438578035835260209283019201614aae565b5f82601f830112614ad5575f80fd5b8135614ae3614253826143b2565b8082825260208201915060208360051b860101925085831115614b04575f80fd5b602085015b83811015614438578035614b1c81614393565b835260209283019201614b09565b5f805f8060808587031215614b3d575f80fd5b84356001600160401b03811115614b52575f80fd5b614b5e878288016143d4565b94505060208501356001600160401b03811115614b79575f80fd5b8501601f81018713614b89575f80fd5b614b98878235602084016149fe565b93505060408501356001600160401b03811115614bb3575f80fd5b614bbf87828801614a6b565b92505060608501356001600160401b03811115614bda575f80fd5b61453187828801614ac6565b5f805f805f805f805f805f6101608c8e031215614c01575f80fd5b8b35614c0c81614393565b9a5060208c0135614c1c81614188565b995060408c0135614c2c81614188565b985060608c0135614c3c81614188565b975060808c0135965060a08c0135614c5381614188565b955060c08c0135614c6381614188565b945060e08c0135614c7381614188565b9350614c826101008d0161419c565b9250614c916101208d0161419c565b9150614ca06101408d0161419c565b90509295989b509295989b9093969950565b602081525f6110d0602083018461468b565b5f805f8060808587031215614cd7575f80fd5b8435614ce281614188565b93506020850135614cf281614188565b925060408501356001600160801b0381168114614d0d575f80fd5b91506060850135614d1d81614442565b939692955090935050565b5f81518060208401855e5f93019283525090919050565b5f6125fe614d4d8386614d28565b84614d28565b602080825282518282018190525f918401906040840190835b81811015614d935783516001600160a01b0316835260209384019390920191600101614d6c565b509095945050505050565b5f82601f830112614dad575f80fd5b8151614dbb614253826143b2565b8082825260208201915060208360051b860101925085831115614ddc575f80fd5b602085015b83811015614438578051614df481614188565b835260209283019201614de1565b5f60208284031215614e12575f80fd5b81516001600160401b03811115614e27575f80fd5b6125fe84828501614d9e565b602080825282518282018190525f918401906040840190835b81811015614d9357835162ffffff16835260209384019390920191600101614e4c565b5f82601f830112614e7e575f80fd5b8151614e8c614253826143b2565b8082825260208201915060208360051b860101925085831115614ead575f80fd5b602085015b83811015614438578051614ec581614442565b835260209283019201614eb2565b5f60208284031215614ee3575f80fd5b81516001600160401b03811115614ef8575f80fd5b6125fe84828501614e6f565b634e487b7160e01b5f52601160045260245ffd5b81810381811115610c4157610c41614f04565b634e487b7160e01b5f52603260045260245ffd5b80820180821115610c4157610c41614f04565b6001600160a01b03958616815293851660208501529190931660408301526001600160801b03909216606082015262ffffff909116608082015260a00190565b5f60208284031215614fa2575f80fd5b5051919050565b805169ffffffffffffffffffff811681146141a7575f80fd5b5f805f805f60a08688031215614fd6575f80fd5b614fdf86614fa9565b6020870151604088015160608901519297509095509350915061500460808701614fa9565b90509295509295909350565b5f60208284031215615020575f80fd5b815160ff811681146110d0575f80fd5b604080825283549082018190525f8481526020812090916060840190835b818110156150755783546001600160a01b031683526001938401936020909301920161504e565b505083810360208501528091508454615092818390815260200190565b5f8781526020902090935091505f5b8160098201101561515757825462ffffff81168552601881901c62ffffff166020860152603081901c62ffffff166040860152604881901c62ffffff166060860152606081901c62ffffff166080860152607881901c62ffffff1660a0860152609081901c62ffffff1660c086015260a881901c62ffffff1660e086015260c081901c62ffffff1661010086015260d881901c62ffffff1661012086015250610140939093019260019290920191600a016150a1565b915491818110156151745762ffffff831684526020909301926001015b818110156151925762ffffff601884901c1684526020909301926001015b818110156151b05762ffffff603084901c1684526020909301926001015b818110156151ce5762ffffff604884901c1684526020909301926001015b818110156151ec5762ffffff606084901c1684526020909301926001015b8181101561520a5762ffffff607884901c1684526020909301926001015b818110156152285762ffffff609084901c1684526020909301926001015b818110156152465762ffffff60a884901c1684526020909301926001015b818110156152645762ffffff60c084901c1684526020909301926001015b8181101561527f5760d883901c62ffffff1684526020840193505b50919695505050505050565b5f82601f83011261529a575f80fd5b81516152a86142538261420b565b8181528460208386010111156152bc575f80fd5b8160208501602083015e5f918101602001919091529392505050565b5f602082840312156152e8575f80fd5b81516001600160401b038111156152fd575f80fd5b6125fe8482850161528b565b634e487b7160e01b5f52602160045260245ffd5b5f61532a614253846143b2565b8381526020810190600585901b840136811115615345575f80fd5b845b81811015614d935780356001600160401b03811115615364575f80fd5b61537036828901614231565b85525060209384019301615347565b5f6110d03684846149fe565b600181811c9082168061539f57607f821691505b6020821081036121d657634e487b7160e01b5f52602260045260245ffd5b601f821115611fa057805f5260205f20601f840160051c810160208510156153e25750805b601f840160051c820191505b81811015610e0d575f81556001016153ee565b81516001600160401b0381111561541a5761541a6141c7565b61542e81615428845461538b565b846153bd565b6020601f821160018114615460575f83156154495750848201515b5f19600385901b1c1916600184901b178455610e0d565b5f84815260208120601f198516915b8281101561548f578785015182556020948501946001909201910161546f565b50848210156154ac57868401515f19600387901b60f8161c191681555b50505050600190811b01905550565b828152604060208201525f6125fe604083018461468b565b5f82601f8301126154e2575f80fd5b81516154f0614253826143b2565b8082825260208201915060208360051b860101925085831115615511575f80fd5b602085015b83811015614438578051835260209283019201615516565b5f6020828403121561553e575f80fd5b81516001600160401b03811115615553575f80fd5b6125fe848285016154d3565b5f82601f83011261556e575f80fd5b815161557c614253826143b2565b8082825260208201915060208360051b86010192508583111561559d575f80fd5b602085015b838110156144385780516155b581614393565b8352602092830192016155a2565b5f805f80608085870312156155d6575f80fd5b84516001600160401b038111156155eb575f80fd5b6155f787828801614d9e565b94505060208501516001600160401b03811115615612575f80fd5b8501601f81018713615622575f80fd5b8051615630614253826143b2565b8082825260208201915060208360051b850101925089831115615651575f80fd5b602084015b838110156156915780516001600160401b03811115615673575f80fd5b6156828c60208389010161528b565b84525060209283019201615656565b508096505050505060408501516001600160401b038111156156b1575f80fd5b6156bd878288016154d3565b92505060608501516001600160401b038111156156d8575f80fd5b6145318782880161555f565b60ff8281168282160390811115610c4157610c41614f04565b6001815b60018411156157385780850481111561571c5761571c614f04565b600184161561572a57908102905b60019390931c928002615701565b935093915050565b5f8261574e57506001610c41565b8161575a57505f610c41565b8160018114615770576002811461577a57615796565b6001915050610c41565b60ff84111561578b5761578b614f04565b50506001821b610c41565b5060208310610133831016604e8410600b84101617156157b9575081810a610c41565b6157c55f1984846156fd565b805f19048211156157d8576157d8614f04565b029392505050565b5f6110d060ff841683615740565b8082025f8212600160ff1b8414161561580957615809614f04565b8181058314821517610c4157610c41614f04565b6001600160401b038616815260a060208201525f61583e60a0830187614353565b61ffff9590951660408301525063ffffffff92909216606083015260809091015292915050565b5f8060408385031215615876575f80fd5b82516001600160401b0381111561588b575f80fd5b61589785828601614d9e565b92505060208301516001600160401b038111156158b2575f80fd5b61434985828601614e6f565b5f826158d857634e487b7160e01b5f52601260045260245ffd5b500690565b8082028115828204841417610c4157610c41614f04565b5f6110d0838361574056fe68747470733a2f2f6170702e6e65786c6162732e696f2f6170692f616c6c46756e64696e6752617465733f6d756c7469706c7946756e633d31382674696d65734e656746756e643d74727565266172726179733d74727565a264697066735822122044d33c181d464a7888bbf29e8b00168ac19c43658a55ecf2eae249e35ae5ade964736f6c634300081a0033","linkReferences":{"contracts/libraries/PathHelpers.sol":{"PathHelpers":[{"start":3313,"length":20},{"start":3478,"length":20},{"start":5453,"length":20},{"start":15117,"length":20},{"start":15227,"length":20}]}}},"methodIdentifiers":{"acceptOwnership()":"79ba5097","allCurrentChainSelectorTokenShares(uint64)":"af696b34","allCurrentChainSelectorTokens(uint64)":"d1c68aa3","allCurrentChainSelectorVersions(uint64)":"221f3371","allOracleChainSelectorTokenShares(uint64)":"bf0d49c0","allOracleChainSelectorTokens(uint64)":"d050ca7c","allOracleChainSelectorVersions(uint64)":"a1adff88","concatenation(string,string)":"0e329357","crossChainFactoryBySelector(uint64)":"340fbc74","crossChainToken(uint64)":"19da7e2a","crossChainTokenSwapFee(uint64,address)":"652354ae","currentChainSelector()":"3d54cb6f","currentChainSelectorTokensCount(uint64)":"b6ad185b","currentChainSelectorsCount()":"69487b1c","currentFilledCount()":"b90b8a2a","currentList(uint256)":"9932ba4c","donId()":"8dbe7b9d","estimateAmountOut(address,address,uint128,uint24)":"ee7bd3e2","estimateAmountOutWithPath(address[],uint24[],uint256)":"16d9f6bd","factoryV2()":"68e0d4e1","factoryV3()":"1d5f45f5","feeRate()":"978bbdb9","fromETHFees(address,uint256)":"8e08b945","fromETHPath(address,uint256)":"709a04f2","functionsRouterAddress()":"e3c91043","getAmountOut(address[],uint24[],uint256)":"dfbd3897","getCurrentChainSelectorTotalShares(uint256,uint64)":"2a3ff8ad","getCurrentData(uint256)":"d3f7f266","getFromETHPathBytesForTokens(address[])":"7fb21450","getFromETHPathData(address)":"904c8794","getOracleChainSelectorTotalShares(uint256,uint64)":"1dce3de8","getOracleData(uint256)":"536e3f6a","getPortfolioBalance()":"a8509fd8","getToETHPathData(address)":"e6096a5f","handleOracleFulfillment(bytes32,bytes,bytes)":"0ca76175","indexFactory()":"e3fd0af2","indexFactoryBalancer()":"29d75de9","indexToken()":"e7d015f2","initialize(uint64,address,address,address,bytes32,address,address,address,address,address,address)":"9ebe560e","lastUpdateTime()":"c8f33c91","latestFeeUpdate()":"011ced5f","mockFillAssetsList(address[],bytes[],uint256[],uint64[])":"96096c94","mockUpdateCurrentList()":"4f9641b9","oracleChainSelectorTokensCount(uint64)":"fc698b4a","oracleChainSelectorsCount()":"8e9d7c18","oracleFilledCount()":"f1581787","oracleList(uint256)":"239aad0d","owner()":"8da5cb5b","priceInWei()":"3c8da588","priceOracle()":"2630c12f","quoter()":"c6bbd5a7","requestAssetsData(string,bytes,string[],bytes[],uint64,uint32)":"8c03c55a","setCrossChainFactory(address,uint64)":"271040df","setCrossChainToken(uint64,address,address[],uint24[])":"0ecdc1c6","setDonId(bytes32)":"78ca5de7","setIndexFactory(address)":"d047937f","setIndexFactoryBalancer(address)":"ae214f39","setPriceFeed(address)":"724e78da","setPriceOracle(address)":"530e784f","setUrl(string,string)":"a73e1cbf","setVault(address)":"6817031b","swapRouterV2()":"744fbc7a","swapRouterV3()":"b631e80b","toETHFees(address,uint256)":"7edbc2ff","toETHPath(address,uint256)":"91b31b5b","toUsdPriceFeed()":"63973fda","tokenChainSelector(address)":"ea8ecf04","tokenCurrentListIndex(address)":"914f0cc6","tokenCurrentMarketShare(address)":"0be52713","tokenOracleListIndex(address)":"8c88c10c","tokenOracleMarketShare(address)":"4b3e0b80","totalCurrentChainSelectors()":"92e410ce","totalCurrentList()":"53fd4332","totalOracleChainSelectors()":"80acffa3","totalOracleList()":"c8599ded","transferOwnership(address)":"f2fde38b","updateCurrentList()":"8baa6bf1","vault()":"fbfa77cf","weth()":"3fc8cef3"},"id":7}