{"abi":[{"type":"function","name":"allCurrentChainSelectorTokenShares","inputs":[{"name":"_chainSelector","type":"uint64","internalType":"uint64"}],"outputs":[{"name":"","type":"uint256[]","internalType":"uint256[]"}],"stateMutability":"view"},{"type":"function","name":"allCurrentChainSelectorTokens","inputs":[{"name":"_chainSelector","type":"uint64","internalType":"uint64"}],"outputs":[{"name":"tokens","type":"address[]","internalType":"address[]"}],"stateMutability":"view"},{"type":"function","name":"allCurrentChainSelectorVersions","inputs":[{"name":"_chainSelector","type":"uint64","internalType":"uint64"}],"outputs":[{"name":"versions","type":"uint256[]","internalType":"uint256[]"}],"stateMutability":"view"},{"type":"function","name":"allOracleChainSelectorTokenShares","inputs":[{"name":"_chainSelector","type":"uint64","internalType":"uint64"}],"outputs":[{"name":"","type":"uint256[]","internalType":"uint256[]"}],"stateMutability":"view"},{"type":"function","name":"allOracleChainSelectorTokens","inputs":[{"name":"_chainSelector","type":"uint64","internalType":"uint64"}],"outputs":[{"name":"tokens","type":"address[]","internalType":"address[]"}],"stateMutability":"view"},{"type":"function","name":"allOracleChainSelectorVersions","inputs":[{"name":"_chainSelector","type":"uint64","internalType":"uint64"}],"outputs":[{"name":"versions","type":"uint256[]","internalType":"uint256[]"}],"stateMutability":"view"},{"type":"function","name":"concatenation","inputs":[{"name":"a","type":"string","internalType":"string"},{"name":"b","type":"string","internalType":"string"}],"outputs":[{"name":"","type":"string","internalType":"string"}],"stateMutability":"pure"},{"type":"function","name":"crossChainFactoryBySelector","inputs":[{"name":"","type":"uint64","internalType":"uint64"}],"outputs":[{"name":"","type":"address","internalType":"address"}],"stateMutability":"view"},{"type":"function","name":"crossChainToken","inputs":[{"name":"","type":"uint64","internalType":"uint64"}],"outputs":[{"name":"","type":"address","internalType":"address"}],"stateMutability":"view"},{"type":"function","name":"crossChainTokenSwapFee","inputs":[{"name":"","type":"uint64","internalType":"uint64"},{"name":"","type":"address","internalType":"address"}],"outputs":[{"name":"","type":"uint24","internalType":"uint24"}],"stateMutability":"view"},{"type":"function","name":"currentChainSelector","inputs":[],"outputs":[{"name":"","type":"uint64","internalType":"uint64"}],"stateMutability":"view"},{"type":"function","name":"currentChainSelectorTokensCount","inputs":[{"name":"_chainSelector","type":"uint64","internalType":"uint64"}],"outputs":[{"name":"","type":"uint256","internalType":"uint256"}],"stateMutability":"view"},{"type":"function","name":"currentChainSelectorsCount","inputs":[],"outputs":[{"name":"","type":"uint256","internalType":"uint256"}],"stateMutability":"view"},{"type":"function","name":"currentFilledCount","inputs":[],"outputs":[{"name":"","type":"uint256","internalType":"uint256"}],"stateMutability":"view"},{"type":"function","name":"currentList","inputs":[{"name":"","type":"uint256","internalType":"uint256"}],"outputs":[{"name":"","type":"address","internalType":"address"}],"stateMutability":"view"},{"type":"function","name":"estimateAmountOut","inputs":[{"name":"tokenIn","type":"address","internalType":"address"},{"name":"tokenOut","type":"address","internalType":"address"},{"name":"amountIn","type":"uint128","internalType":"uint128"},{"name":"fee","type":"uint24","internalType":"uint24"}],"outputs":[{"name":"amountOut","type":"uint256","internalType":"uint256"}],"stateMutability":"view"},{"type":"function","name":"externalJobId","inputs":[],"outputs":[{"name":"","type":"bytes32","internalType":"bytes32"}],"stateMutability":"view"},{"type":"function","name":"factoryV2","inputs":[],"outputs":[{"name":"","type":"address","internalType":"contract IUniswapV2Factory"}],"stateMutability":"view"},{"type":"function","name":"factoryV3","inputs":[],"outputs":[{"name":"","type":"address","internalType":"contract IUniswapV3Factory"}],"stateMutability":"view"},{"type":"function","name":"feeRate","inputs":[],"outputs":[{"name":"","type":"uint8","internalType":"uint8"}],"stateMutability":"view"},{"type":"function","name":"fulfillAssetsData","inputs":[{"name":"requestId","type":"bytes32","internalType":"bytes32"},{"name":"_tokens","type":"address[]","internalType":"address[]"},{"name":"_marketShares","type":"uint256[]","internalType":"uint256[]"},{"name":"_swapFees","type":"uint24[]","internalType":"uint24[]"},{"name":"_chainSelectors","type":"uint64[]","internalType":"uint64[]"}],"outputs":[],"stateMutability":"nonpayable"},{"type":"function","name":"getAmountOut","inputs":[{"name":"tokenIn","type":"address","internalType":"address"},{"name":"tokenOut","type":"address","internalType":"address"},{"name":"amountIn","type":"uint256","internalType":"uint256"},{"name":"_swapFee","type":"uint24","internalType":"uint24"}],"outputs":[{"name":"finalAmountOutValue","type":"uint256","internalType":"uint256"}],"stateMutability":"view"},{"type":"function","name":"getCurrentChainSelectorTotalShares","inputs":[{"name":"index","type":"uint256","internalType":"uint256"},{"name":"chainSelector","type":"uint64","internalType":"uint64"}],"outputs":[{"name":"","type":"uint256","internalType":"uint256"}],"stateMutability":"view"},{"type":"function","name":"getCurrentData","inputs":[{"name":"index","type":"uint256","internalType":"uint256"}],"outputs":[{"name":"tokens","type":"address[]","internalType":"address[]"},{"name":"marketShares","type":"uint256[]","internalType":"uint256[]"},{"name":"swapFees","type":"uint24[]","internalType":"uint24[]"},{"name":"chainSelectors","type":"uint64[]","internalType":"uint64[]"}],"stateMutability":"view"},{"type":"function","name":"getOracleData","inputs":[{"name":"index","type":"uint256","internalType":"uint256"}],"outputs":[{"name":"tokens","type":"address[]","internalType":"address[]"},{"name":"marketShares","type":"uint256[]","internalType":"uint256[]"},{"name":"swapFees","type":"uint256[]","internalType":"uint256[]"},{"name":"chainSelectors","type":"uint64[]","internalType":"uint64[]"}],"stateMutability":"view"},{"type":"function","name":"getPortfolioBalance","inputs":[],"outputs":[{"name":"","type":"uint256","internalType":"uint256"}],"stateMutability":"view"},{"type":"function","name":"indexFactory","inputs":[],"outputs":[{"name":"","type":"address","internalType":"address"}],"stateMutability":"view"},{"type":"function","name":"indexFactoryBalancer","inputs":[],"outputs":[{"name":"","type":"address","internalType":"address"}],"stateMutability":"view"},{"type":"function","name":"indexToken","inputs":[],"outputs":[{"name":"","type":"address","internalType":"contract IndexToken"}],"stateMutability":"view"},{"type":"function","name":"initialize","inputs":[{"name":"_currentChainSelector","type":"uint64","internalType":"uint64"},{"name":"_token","type":"address","internalType":"address payable"},{"name":"_chainlinkToken","type":"address","internalType":"address"},{"name":"_oracleAddress","type":"address","internalType":"address"},{"name":"_externalJobId","type":"bytes32","internalType":"bytes32"},{"name":"_toUsdPriceFeed","type":"address","internalType":"address"},{"name":"_weth","type":"address","internalType":"address"},{"name":"_swapRouterV3","type":"address","internalType":"address"},{"name":"_factoryV3","type":"address","internalType":"address"},{"name":"_swapRouterV2","type":"address","internalType":"address"},{"name":"_factoryV2","type":"address","internalType":"address"}],"outputs":[],"stateMutability":"nonpayable"},{"type":"function","name":"lastUpdateTime","inputs":[],"outputs":[{"name":"","type":"uint256","internalType":"uint256"}],"stateMutability":"view"},{"type":"function","name":"latestFeeUpdate","inputs":[],"outputs":[{"name":"","type":"uint256","internalType":"uint256"}],"stateMutability":"view"},{"type":"function","name":"mockFillAssetsList","inputs":[{"name":"_tokens","type":"address[]","internalType":"address[]"},{"name":"_marketShares","type":"uint256[]","internalType":"uint256[]"},{"name":"_swapFees","type":"uint24[]","internalType":"uint24[]"},{"name":"_chainSelectors","type":"uint64[]","internalType":"uint64[]"}],"outputs":[],"stateMutability":"nonpayable"},{"type":"function","name":"mockUpdateCurrentList","inputs":[],"outputs":[],"stateMutability":"nonpayable"},{"type":"function","name":"oracleChainSelectorTokensCount","inputs":[{"name":"_chainSelector","type":"uint64","internalType":"uint64"}],"outputs":[{"name":"","type":"uint256","internalType":"uint256"}],"stateMutability":"view"},{"type":"function","name":"oracleChainSelectorsCount","inputs":[],"outputs":[{"name":"","type":"uint256","internalType":"uint256"}],"stateMutability":"view"},{"type":"function","name":"oracleFilledCount","inputs":[],"outputs":[{"name":"","type":"uint256","internalType":"uint256"}],"stateMutability":"view"},{"type":"function","name":"oracleList","inputs":[{"name":"","type":"uint256","internalType":"uint256"}],"outputs":[{"name":"","type":"address","internalType":"address"}],"stateMutability":"view"},{"type":"function","name":"oraclePayment","inputs":[],"outputs":[{"name":"","type":"uint256","internalType":"uint256"}],"stateMutability":"view"},{"type":"function","name":"owner","inputs":[],"outputs":[{"name":"","type":"address","internalType":"address"}],"stateMutability":"view"},{"type":"function","name":"priceInWei","inputs":[],"outputs":[{"name":"","type":"uint256","internalType":"uint256"}],"stateMutability":"view"},{"type":"function","name":"priceOracle","inputs":[],"outputs":[{"name":"","type":"address","internalType":"address"}],"stateMutability":"view"},{"type":"function","name":"proposeOwner","inputs":[{"name":"_proposedOwner","type":"address","internalType":"address"}],"outputs":[],"stateMutability":"nonpayable"},{"type":"function","name":"proposedOwner","inputs":[],"outputs":[{"name":"","type":"address","internalType":"address"}],"stateMutability":"view"},{"type":"function","name":"quoter","inputs":[],"outputs":[{"name":"","type":"address","internalType":"contract IQuoter"}],"stateMutability":"view"},{"type":"function","name":"renounceOwnership","inputs":[],"outputs":[],"stateMutability":"nonpayable"},{"type":"function","name":"requestAssetsData","inputs":[],"outputs":[{"name":"","type":"bytes32","internalType":"bytes32"}],"stateMutability":"nonpayable"},{"type":"function","name":"setCrossChainFactory","inputs":[{"name":"_crossChainFactoryAddress","type":"address","internalType":"address"},{"name":"_chainSelector","type":"uint64","internalType":"uint64"}],"outputs":[],"stateMutability":"nonpayable"},{"type":"function","name":"setCrossChainToken","inputs":[{"name":"_chainSelector","type":"uint64","internalType":"uint64"},{"name":"_crossChainToken","type":"address","internalType":"address"},{"name":"_swapFee","type":"uint24","internalType":"uint24"}],"outputs":[],"stateMutability":"nonpayable"},{"type":"function","name":"setIndexFactory","inputs":[{"name":"_indexFactory","type":"address","internalType":"address"}],"outputs":[],"stateMutability":"nonpayable"},{"type":"function","name":"setIndexFactoryBalancer","inputs":[{"name":"_indexFactoryBalancer","type":"address","internalType":"address"}],"outputs":[],"stateMutability":"nonpayable"},{"type":"function","name":"setPriceFeed","inputs":[{"name":"_toUsdPricefeed","type":"address","internalType":"address"}],"outputs":[],"stateMutability":"nonpayable"},{"type":"function","name":"setPriceOracle","inputs":[{"name":"_priceOracle","type":"address","internalType":"address"}],"outputs":[],"stateMutability":"nonpayable"},{"type":"function","name":"setUrl","inputs":[{"name":"_beforeAddress","type":"string","internalType":"string"},{"name":"_afterAddress","type":"string","internalType":"string"}],"outputs":[],"stateMutability":"nonpayable"},{"type":"function","name":"setVault","inputs":[{"name":"_vaultAddress","type":"address","internalType":"address"}],"outputs":[],"stateMutability":"nonpayable"},{"type":"function","name":"swapRouterV2","inputs":[],"outputs":[{"name":"","type":"address","internalType":"contract IUniswapV2Router02"}],"stateMutability":"view"},{"type":"function","name":"swapRouterV3","inputs":[],"outputs":[{"name":"","type":"address","internalType":"contract ISwapRouter"}],"stateMutability":"view"},{"type":"function","name":"toUsdPriceFeed","inputs":[],"outputs":[{"name":"","type":"address","internalType":"contract AggregatorV3Interface"}],"stateMutability":"view"},{"type":"function","name":"tokenChainSelector","inputs":[{"name":"","type":"address","internalType":"address"}],"outputs":[{"name":"","type":"uint64","internalType":"uint64"}],"stateMutability":"view"},{"type":"function","name":"tokenCurrentListIndex","inputs":[{"name":"","type":"address","internalType":"address"}],"outputs":[{"name":"","type":"uint256","internalType":"uint256"}],"stateMutability":"view"},{"type":"function","name":"tokenCurrentMarketShare","inputs":[{"name":"","type":"address","internalType":"address"}],"outputs":[{"name":"","type":"uint256","internalType":"uint256"}],"stateMutability":"view"},{"type":"function","name":"tokenOracleListIndex","inputs":[{"name":"","type":"address","internalType":"address"}],"outputs":[{"name":"","type":"uint256","internalType":"uint256"}],"stateMutability":"view"},{"type":"function","name":"tokenOracleMarketShare","inputs":[{"name":"","type":"address","internalType":"address"}],"outputs":[{"name":"","type":"uint256","internalType":"uint256"}],"stateMutability":"view"},{"type":"function","name":"tokenSwapFee","inputs":[{"name":"","type":"address","internalType":"address"}],"outputs":[{"name":"","type":"uint24","internalType":"uint24"}],"stateMutability":"view"},{"type":"function","name":"totalCurrentChainSelectors","inputs":[],"outputs":[{"name":"","type":"uint256","internalType":"uint256"}],"stateMutability":"view"},{"type":"function","name":"totalCurrentList","inputs":[],"outputs":[{"name":"","type":"uint256","internalType":"uint256"}],"stateMutability":"view"},{"type":"function","name":"totalOracleChainSelectors","inputs":[],"outputs":[{"name":"","type":"uint256","internalType":"uint256"}],"stateMutability":"view"},{"type":"function","name":"totalOracleList","inputs":[],"outputs":[{"name":"","type":"uint256","internalType":"uint256"}],"stateMutability":"view"},{"type":"function","name":"transferOwnership","inputs":[{"name":"newOwner","type":"address","internalType":"address"}],"outputs":[],"stateMutability":"nonpayable"},{"type":"function","name":"updateCurrentList","inputs":[],"outputs":[],"stateMutability":"nonpayable"},{"type":"function","name":"vault","inputs":[],"outputs":[{"name":"","type":"address","internalType":"contract Vault"}],"stateMutability":"view"},{"type":"function","name":"weth","inputs":[],"outputs":[{"name":"","type":"address","internalType":"contract IWETH"}],"stateMutability":"view"},{"type":"event","name":"ChainlinkCancelled","inputs":[{"name":"id","type":"bytes32","indexed":true,"internalType":"bytes32"}],"anonymous":false},{"type":"event","name":"ChainlinkFulfilled","inputs":[{"name":"id","type":"bytes32","indexed":true,"internalType":"bytes32"}],"anonymous":false},{"type":"event","name":"ChainlinkRequested","inputs":[{"name":"id","type":"bytes32","indexed":true,"internalType":"bytes32"}],"anonymous":false},{"type":"event","name":"Initialized","inputs":[{"name":"version","type":"uint8","indexed":false,"internalType":"uint8"}],"anonymous":false},{"type":"event","name":"OwnershipTransferred","inputs":[{"name":"previousOwner","type":"address","indexed":true,"internalType":"address"},{"name":"newOwner","type":"address","indexed":true,"internalType":"address"}],"anonymous":false}],"bytecode":{"object":"0x6080604052348015600f57600080fd5b506144c98061001f6000396000f3fe608060405234801561001057600080fd5b50600436106104285760003560e01c80638e9d7c181161022b578063c6bbd5a711610130578063e3fd0af2116100b8578063f0cd5b7211610087578063f0cd5b7214610a69578063f158178714610a7c578063f2fde38b14610a85578063fbfa77cf14610a98578063fc698b4a14610aab57600080fd5b8063e3fd0af214610a07578063e7d015f214610a1a578063ea8ecf0414610a2d578063ee7bd3e214610a5657600080fd5b8063d050ca7c116100ff578063d050ca7c1461098b578063d153b60c146109ab578063d1c68aa3146109be578063d3f7f266146109d1578063dd811ac9146109f457600080fd5b8063c6bbd5a714610953578063c8599ded14610966578063c8f33c911461096f578063d047937f1461097857600080fd5b8063a8b54bd4116101b3578063b5ed298a11610182578063b5ed298a146108d6578063b631e80b146108e9578063b6ad185b146108fc578063b90b8a2a14610937578063bf0d49c01461094057600080fd5b8063a8b54bd414610894578063ae214f391461089d578063af696b34146108b0578063b2c44b3f146108c357600080fd5b80639932ba4c116101fa5780639932ba4c1461082a5780639ebe560e14610853578063a1adff8814610866578063a73e1cbf14610879578063a8509fd81461088c57600080fd5b80638e9d7c18146107c8578063914f0cc6146107e257806392e410ce14610802578063978bbdb91461080b57600080fd5b80634f9641b911610331578063715018a6116102b957806380acffa31161028857806380acffa3146107735780638baa6bf11461077c5780638bb8f1bb146107845780638c88c10c146107975780638da5cb5b146107b757600080fd5b8063715018a61461073d578063724e78da14610745578063744fbc7a146107585780637ca58c551461076b57600080fd5b806363973fda1161030057806363973fda146106ba578063652354ae146106cd5780636817031b146106fd57806368e0d4e11461071057806369487b1c1461072357600080fd5b80634f9641b914610673578063530e784f1461067b578063536e3f6a1461068e57806353fd4332146106b157600080fd5b8063271040df116103b4578063340fbc7411610383578063340fbc74146105e45780633c8da5881461060d5780633d54cb6f146106155780633fc8cef3146106405780634b3e0b801461065357600080fd5b8063271040df1461054957806329d75de91461055e5780632a3ff8ad1461057157806332599665146105ab57600080fd5b806319da7e2a116103fb57806319da7e2a146104925780631d5f45f5146104d3578063221f3371146104e6578063239aad0d146105065780632630c12f1461052f57600080fd5b8063011ced5f1461042d5780630be52713146104495780630c02e130146104695780630e32935714610472575b600080fd5b61043660a45481565b6040519081526020015b60405180910390f35b61043661045736600461350a565b60b46020526000908152604090205481565b61043660a95481565b6104856104803660046135dc565b610ae6565b6040516104409190613693565b6104bb6104a03660046136bd565b60a0602052600090815260409020546001600160a01b031681565b6040516001600160a01b039091168152602001610440565b60bd546104bb906001600160a01b031681565b6104f96104f43660046136bd565b610b13565b604051610440919061370a565b6104bb61051436600461371d565b60b0602052600090815260409020546001600160a01b031681565b60a5546104bb90600160401b90046001600160a01b031681565b61055c610557366004613736565b610b8c565b005b609f546104bb906001600160a01b031681565b61043661057f36600461376b565b600082815260bb602090815260408083206001600160401b038516845260080190915290205492915050565b6105d06105b936600461350a565b60b66020526000908152604090205462ffffff1681565b60405162ffffff9091168152602001610440565b6104bb6105f23660046136bd565b60a2602052600090815260409020546001600160a01b031681565b610436610bcb565b60a554610628906001600160401b031681565b6040516001600160401b039091168152602001610440565b60c0546104bb906001600160a01b031681565b61043661066136600461350a565b60b56020526000908152604090205481565b61055c610cd9565b61055c61068936600461350a565b610ceb565b6106a161069c36600461371d565b610d93565b6040516104409493929190613804565b61043660ad5481565b60aa546104bb906001600160a01b031681565b6105d06106db36600461385c565b60a160209081526000928352604080842090915290825290205462ffffff1681565b61055c61070b36600461350a565b610f54565b60bf546104bb906001600160a01b031681565b60b954600090815260bb6020526040902060030154610436565b61055c610f7e565b61055c61075336600461350a565b610f90565b60be546104bb906001600160a01b031681565b610436611027565b61043660ae5481565b61055c61131d565b61055c610792366004613a67565b61138e565b6104366107a536600461350a565b60b26020526000908152604090205481565b6038546001600160a01b03166104bb565b60b854600090815260ba6020526040902060030154610436565b6104366107f036600461350a565b60b36020526000908152604090205481565b61043660af5481565b60a3546108189060ff1681565b60405160ff9091168152602001610440565b6104bb61083836600461371d565b60b1602052600090815260409020546001600160a01b031681565b61055c610861366004613b23565b6113a8565b6104f96108743660046136bd565b611617565b61055c6108873660046135dc565b61168e565b6104366116b4565b61043660a85481565b61055c6108ab36600461350a565b61179a565b6104f96108be3660046136bd565b6117c4565b61055c6108d1366004613bf6565b61183b565b61055c6108e436600461350a565b61190b565b60bc546104bb906001600160a01b031681565b61043661090a3660046136bd565b60b954600090815260bb602090815260408083206001600160401b03909416835260059093019052205490565b61043660b95481565b6104f961094e3660046136bd565b61195b565b60c1546104bb906001600160a01b031681565b61043660ac5481565b61043660ab5481565b61055c61098636600461350a565b6119d2565b61099e6109993660046136bd565b6119fc565b6040516104409190613cbc565b606a546104bb906001600160a01b031681565b61099e6109cc3660046136bd565b611a7e565b6109e46109df36600461371d565b611aff565b6040516104409493929190613ccf565b610436610a02366004613d52565b611cbf565b609e546104bb906001600160a01b031681565b609d546104bb906001600160a01b031681565b610628610a3b36600461350a565b60b7602052600090815260409020546001600160401b031681565b610436610a64366004613da3565b611e03565b61055c610a77366004613dfe565b611ea8565b61043660b85481565b61055c610a9336600461350a565b611f0f565b60c2546104bb906001600160a01b031681565b610436610ab93660046136bd565b60b854600090815260ba602090815260408083206001600160401b03909416835260059093019052205490565b60608282604051602001610afb929190613e43565b60405160208183030381529060405290505b92915050565b60b954600090815260bb602090815260408083206001600160401b0385168452600601825291829020805483518184028101840190945280845260609392830182828015610b8057602002820191906000526020600020905b815481526020019060010190808311610b6c575b50505050509050919050565b610b94612037565b6001600160401b0316600090815260a26020526040902080546001600160a01b0319166001600160a01b0392909216919091179055565b60008060aa60009054906101000a90046001600160a01b03166001600160a01b031663feaf968c6040518163ffffffff1660e01b815260040160a060405180830381865afa158015610c21573d6000803e3d6000fd5b505050506040513d601f19601f82011682018060405250810190610c459190613e8c565b505050915050600060aa60009054906101000a90046001600160a01b03166001600160a01b031663313ce5676040518163ffffffff1660e01b8152600401602060405180830381865afa158015610ca0573d6000803e3d6000fd5b505050506040513d601f19601f82011682018060405250810190610cc49190613ede565b9050610cd282826012612091565b9392505050565b610ce1612037565b610ce96120d1565b565b610cf3612037565b6001600160a01b038116610d625760405162461bcd60e51b815260206004820152602b60248201527f5072696365206f7261636c6520616464726573732063616e6e6f74206265207a60448201526a65726f206164647265737360a81b60648201526084015b60405180910390fd5b60a580546001600160a01b03909216600160401b0268010000000000000000600160e01b0319909216919091179055565b606080606080600060ba600087815260200190815260200160002090508060000181600101826002018360030183805480602002602001604051908101604052809291908181526020018280548015610e1557602002820191906000526020600020905b81546001600160a01b03168152600190910190602001808311610df7575b5050505050935082805480602002602001604051908101604052809291908181526020018280548015610e6757602002820191906000526020600020905b815481526020019060010190808311610e53575b5050505050925081805480602002602001604051908101604052809291908181526020018280548015610eb957602002820191906000526020600020905b815481526020019060010190808311610ea5575b5050505050915080805480602002602001604051908101604052809291908181526020018280548015610f3d57602002820191906000526020600020906000905b82829054906101000a90046001600160401b03166001600160401b031681526020019060080190602082600701049283019260010382029150808411610efa5790505b505050505090509450945094509450509193509193565b610f5c612037565b60c280546001600160a01b0319166001600160a01b0392909216919091179055565b610f86612037565b610ce96000612354565b610f98612037565b6001600160a01b0381166110055760405162461bcd60e51b815260206004820152602e60248201527f49434f3a205072696365206665656420616464726573732063616e6e6f74206260448201526d65207a65726f206164647265737360901b6064820152608401610d59565b60aa80546001600160a01b0319166001600160a01b0392909216919091179055565b60008061114860a6805461103a90613f01565b80601f016020809104026020016040519081016040528092919081815260200182805461106690613f01565b80156110b35780601f10611088576101008083540402835291602001916110b3565b820191906000526020600020905b81548152906001019060200180831161109657829003601f168201915b505050505060a780546110c590613f01565b80601f01602080910402602001604051908101604052809291908181526020018280546110f190613f01565b801561113e5780601f106111135761010080835404028352916020019161113e565b820191906000526020600020905b81548152906001019060200180831161112157829003601f168201915b5050505050610ae6565b9050600061116060a8543063b2c44b3f60e01b6123a6565b60408051808201909152600381526219d95d60ea1b6020820152909150611189908290846123c2565b6111e160405180604001604052806005815260200164706174683160d81b8152506040518060400160405280600e81526020016d726573756c74732c746f6b656e7360901b815250836123c29092919063ffffffff16565b61123f604051806040016040528060058152602001643830ba341960d91b81525060405180604001604052806014815260200173726573756c74732c6d61726b657453686172657360601b815250836123c29092919063ffffffff16565b61129960405180604001604052806005815260200164706174683360d81b8152506040518060400160405280601081526020016f726573756c74732c737761704665657360801b815250836123c29092919063ffffffff16565b6112f8604051806040016040528060058152602001641c185d1a0d60da1b815250604051806040016040528060158152602001743932b9bab63a399631b430b4b729b2b632b1ba37b960591b815250836123c29092919063ffffffff16565b61131661130d6003546001600160a01b031690565b8260a9546123e0565b9250505090565b609f546001600160a01b03163314610ce15760405162461bcd60e51b815260206004820152602e60248201527f43616c6c6572206973206e6f7420696e64657820666163746f72792062616c6160448201526d3731b2b91031b7b73a3930b1ba1760911b6064820152608401610d59565b611396612037565b6113a284848484612473565b50505050565b600054610100900460ff16158080156113c85750600054600160ff909116105b806113e25750303b1580156113e2575060005460ff166001145b6114455760405162461bcd60e51b815260206004820152602e60248201527f496e697469616c697a61626c653a20636f6e747261637420697320616c72656160448201526d191e481a5b9a5d1a585b1a5e995960921b6064820152608401610d59565b6000805460ff191660011790558015611468576000805461ff0019166101001790555b611470612ec4565b60a580546001600160401b038e1667ffffffffffffffff19909116179055609d80546001600160a01b038d166001600160a01b03199091161790556114d28a600280546001600160a01b039092166001600160a01b0319909216919091179055565b600380546001600160a01b0319166001600160a01b038b1617905560a8889055600a611507670de0b6b3a76400006001613f4b565b6115119190613f78565b60a95560aa80546001600160a01b03199081166001600160a01b038a81169190911790925560c08054821689841617905560bc8054821688841617905560bd8054821687841617905560be8054821686841617905560bf80549091169184169190911790556040805160608101909152602a80825261443c602083013960a69061159b9082613fda565b506040518060600160405280602e8152602001614466602e913960a7906115c29082613fda565b508015611609576000805461ff0019169055604051600181527f7f26b83ff96e1f2b6a682f133852f6798a09c465da95921460cefb38474024989060200160405180910390a15b505050505050505050505050565b60b854600090815260ba602090815260408083206001600160401b0385168452600601825291829020805483518184028101840190945280845260609392830182828015610b805760200282019190600052602060002090815481526020019060010190808311610b6c5750505050509050919050565b611696612037565b60a66116a28382613fda565b5060a76116af8282613fda565b505050565b60008060005b60ad5481101561179457600081815260b160205260408082205460c05460c25492516370a0823160e01b81526001600160a01b03938416600482015261177d93928316929091169082906370a0823190602401602060405180830381865afa15801561172a573d6000803e3d6000fd5b505050506040513d601f19601f8201168201806040525081019061174e9190614098565b600086815260b160209081526040808320546001600160a01b0316835260b690915290205462ffffff16611cbf565b905061178981846140b1565b9250506001016116ba565b50919050565b6117a2612037565b609f80546001600160a01b0319166001600160a01b0392909216919091179055565b60b954600090815260bb602090815260408083206001600160401b0385168452600701825291829020805483518184028101840190945280845260609392830182828015610b805760200282019190600052602060002090815481526020019060010190808311610b6c5750505050509050919050565b60008581526005602052604090205485906001600160a01b031633146118b45760405162461bcd60e51b815260206004820152602860248201527f536f75726365206d75737420626520746865206f7261636c65206f6620746865604482015267081c995c5d595cdd60c21b6064820152608401610d59565b60008181526005602052604080822080546001600160a01b03191690555182917f7cc135e0cebb02c3480ae5d74d377283180a2601f8f644edf7987b009316c63a91a261190385858585612473565b505050505050565b611913612037565b6001600160a01b0381166119395760405162461bcd60e51b8152600401610d59906140c4565b606a80546001600160a01b0319166001600160a01b0392909216919091179055565b60b854600090815260ba602090815260408083206001600160401b0385168452600701825291829020805483518184028101840190945280845260609392830182828015610b805760200282019190600052602060002090815481526020019060010190808311610b6c5750505050509050919050565b6119da612037565b609e80546001600160a01b0319166001600160a01b0392909216919091179055565b60b854600090815260ba602090815260408083206001600160401b0385168452600501825291829020805483518184028101840190945280845260609392830182828015610b8057602002820191906000526020600020905b81546001600160a01b03168152600190910190602001808311611a555750505050509050919050565b60b954600090815260bb602090815260408083206001600160401b0385168452600501825291829020805483518184028101840190945280845260609392830182828015610b80576020028201919060005260206000209081546001600160a01b03168152600190910190602001808311611a555750505050509050919050565b606080606080600060bb600087815260200190815260200160002090508060000181600101826002018360030183805480602002602001604051908101604052809291908181526020018280548015611b8157602002820191906000526020600020905b81546001600160a01b03168152600190910190602001808311611b63575b5050505050935082805480602002602001604051908101604052809291908181526020018280548015611bd357602002820191906000526020600020905b815481526020019060010190808311611bbf575b5050505050925081805480602002602001604051908101604052809291908181526020018280548015610eb957602002820191906000526020600020906000905b82829054906101000a900462ffffff1662ffffff1681526020019060030190602082600201049283019260010382029150808411611c145790505050505050915080805480602002602001604051908101604052809291908181526020018280548015610f3d57600091825260209182902080546001600160401b03168452908202830192909160089101808411610efa579050505050505090509450945094509450509193509193565b6000808315611dfa5762ffffff831615611ce657611cdf86868686611e03565b9050611dfa565b6040805160028082526060820183526000926020830190803683370190505090508681600081518110611d1b57611d1b614114565b60200260200101906001600160a01b031690816001600160a01b0316815250508581600181518110611d4f57611d4f614114565b6001600160a01b03928316602091820292909201015260be5460405163d06ca61f60e01b8152600092919091169063d06ca61f90611d93908990869060040161412a565b600060405180830381865afa158015611db0573d6000803e3d6000fd5b505050506040513d6000823e601f3d908101601f19168201604052611dd89190810190614143565b905080600181518110611ded57611ded614114565b6020026020010151925050505b95945050505050565b60a55460bd5460405163bb5705b360e01b81526001600160a01b039182166004820152868216602482015285821660448201526001600160801b038516606482015262ffffff84166084820152600092600160401b90049091169063bb5705b39060a401602060405180830381865afa158015611e84573d6000803e3d6000fd5b505050506040513d601f19601f82011682018060405250810190611dfa9190614098565b611eb0612037565b6001600160401b0392909216600090815260a06020908152604080832080546001600160a01b0319166001600160a01b0395909516948517905560a1825280832093835292905220805462ffffff191662ffffff909216919091179055565b6001600160a01b038116611f355760405162461bcd60e51b8152600401610d59906140c4565b606a546001600160a01b03828116911614611fad5760405162461bcd60e51b815260206004820152603260248201527f50726f706f7361626c654f776e61626c653a206e6577206f776e6572206973206044820152713737ba10383937b837b9b2b21037bbb732b960711b6064820152608401610d59565b6001600160a01b038116331461202b5760405162461bcd60e51b815260206004820152603a60248201527f50726f706f7361626c654f776e61626c653a20746869732063616c6c206d757360448201527f74206265206d61646520627920746865206e6577206f776e65720000000000006064820152608401610d59565b61203481612354565b50565b6038546001600160a01b03163314610ce95760405162461bcd60e51b815260206004820181905260248201527f4f776e61626c653a2063616c6c6572206973206e6f7420746865206f776e65726044820152606401610d59565b60008260ff168260ff1611156120c7576120ab83836141ce565b6120b690600a6142ce565b6120c090856142dd565b9050610cd2565b6120ab82846141ce565b600160b960008282546120e491906140b1565b90915550600090505b60ac5481101561234b57600081815260b060209081526040808320805460b1845282852080546001600160a01b0319166001600160a01b03928316908117825583548316875260b586528487205490875260b486528487205582548216865260b285528386205490548216865260b3855283862055905416835260b782528083205460b954845260bb83528184206001600160401b0390911680855260049091019092529091205460ff166122145760b98054600090815260bb602081815260408084206001600160401b03878116808752600492830185528387208054600160ff199091168117909155975487529484529185206003908101805497880181558652929094209385049093018054949091166008026101000a9283021990931691021790555b60b98054600090815260bb602081815260408084206001600160401b0387168086526005909101835281852088865260b0845282862080548254600181810185559389528689200180546001600160a01b0319166001600160a01b0392831617905588548852868652848820848952600601865284882082548216895260b68752858920548154948501825590895286892062ffffff9091169301929092555416855260b58352818520549554855292825280842092845260089092019052812080549091906122e59084906140b1565b909155505060b954600090815260bb602090815260408083206001600160401b0390941683526007909301815282822084835260b08252838320546001600160a01b0316835260b5825292822054835460018181018655948452919092200155016120ed565b5060ac5460ad55565b603880546001600160a01b038381166001600160a01b0319831681179093556040519116919082907f8be0079c531659141344cd1fd0a4f28419497f9722a3daafe3b4186f6b6457e090600090a35050565b6123ae6134aa565b6123b66134aa565b611dfa81868686612ef3565b60808301516123d19083612f39565b60808301516116af9082612f39565b6004546000906123f18160016140b1565b600455835160408086015160808701515191516000936320214ca360e11b936124299386938493923092918a9160019160240161430d565b60408051601f198184030181529190526020810180516001600160e01b03166001600160e01b031990931692909217909152905061246986838684612f50565b9695505050505050565b60b880548591859185918591600191906000906124919084906140b1565b909155505060ad546000036124b957600160b960008282546124b391906140b1565b90915550505b60005b8451811015612ea0578481815181106124d7576124d7614114565b602002602001015160b0600083815260200190815260200160002060006101000a8154816001600160a01b0302191690836001600160a01b031602179055508060b2600087848151811061252d5761252d614114565b60200260200101516001600160a01b03166001600160a01b031681526020019081526020016000208190555083818151811061256b5761256b614114565b602002602001015160b5600087848151811061258957612589614114565b60200260200101516001600160a01b03166001600160a01b03168152602001908152602001600020819055508281815181106125c7576125c7614114565b602002602001015160b660008784815181106125e5576125e5614114565b60200260200101516001600160a01b03166001600160a01b0316815260200190815260200160002060006101000a81548162ffffff021916908362ffffff16021790555081818151811061263b5761263b614114565b602002602001015160b7600087848151811061265957612659614114565b60200260200101516001600160a01b03166001600160a01b0316815260200190815260200160002060006101000a8154816001600160401b0302191690836001600160401b0316021790555060ba600060b854815260200190815260200160002060040160008383815181106126d1576126d1614114565b6020908102919091018101516001600160401b031682528101919091526040016000205460ff166127ed5760ba600060b854815260200190815260200160002060030182828151811061272657612726614114565b602002602001015190806001815401808255809150506001900390600052602060002090600491828204019190066008029091909190916101000a8154816001600160401b0302191690836001600160401b03160217905550600160ba600060b854815260200190815260200160002060040160008484815181106127ad576127ad614114565b60200260200101516001600160401b03166001600160401b0316815260200190815260200160002060006101000a81548160ff0219169083151502179055505b60ba600060b8548152602001908152602001600020600501600083838151811061281957612819614114565b60200260200101516001600160401b03166001600160401b0316815260200190815260200160002085828151811061285357612853614114565b602090810291909101810151825460018101845560009384528284200180546001600160a01b0319166001600160a01b0390921691909117905560b854825260ba9052604081208351600690910191908490849081106128b5576128b5614114565b60200260200101516001600160401b03166001600160401b031681526020019081526020016000208382815181106128ef576128ef614114565b602090810291909101810151825460018101845560009384529190922062ffffff909216910155835184908290811061292a5761292a614114565b602002602001015160ba600060b8548152602001908152602001600020600801600084848151811061295e5761295e614114565b60200260200101516001600160401b03166001600160401b03168152602001908152602001600020600082825461299591906140b1565b9250508190555060ba600060b854815260200190815260200160002060070160008383815181106129c8576129c8614114565b60200260200101516001600160401b03166001600160401b03168152602001908152602001600020848281518110612a0257612a02614114565b602090810291909101810151825460018101845560009384529183209091015560ad549003612e9857848181518110612a3d57612a3d614114565b602002602001015160b1600083815260200190815260200160002060006101000a8154816001600160a01b0302191690836001600160a01b03160217905550838181518110612a8e57612a8e614114565b602002602001015160b46000878481518110612aac57612aac614114565b60200260200101516001600160a01b03166001600160a01b03168152602001908152602001600020819055508060b36000878481518110612aef57612aef614114565b60200260200101516001600160a01b03166001600160a01b031681526020019081526020016000208190555060bb600060b95481526020019081526020016000206004016000838381518110612b4757612b47614114565b6020908102919091018101516001600160401b031682528101919091526040016000205460ff16612c6357600160bb600060b95481526020019081526020016000206004016000848481518110612ba057612ba0614114565b60200260200101516001600160401b03166001600160401b0316815260200190815260200160002060006101000a81548160ff02191690831515021790555060bb600060b9548152602001908152602001600020600301828281518110612c0957612c09614114565b602002602001015190806001815401808255809150506001900390600052602060002090600491828204019190066008029091909190916101000a8154816001600160401b0302191690836001600160401b031602179055505b60bb600060b95481526020019081526020016000206005016000838381518110612c8f57612c8f614114565b60200260200101516001600160401b03166001600160401b03168152602001908152602001600020858281518110612cc957612cc9614114565b602090810291909101810151825460018101845560009384528284200180546001600160a01b0319166001600160a01b0390921691909117905560b954825260bb905260408120835160069091019190849084908110612d2b57612d2b614114565b60200260200101516001600160401b03166001600160401b03168152602001908152602001600020838281518110612d6557612d65614114565b602090810291909101810151825460018101845560009384529190922062ffffff9092169101558351849082908110612da057612da0614114565b602002602001015160bb600060b95481526020019081526020016000206008016000848481518110612dd457612dd4614114565b60200260200101516001600160401b03166001600160401b031681526020019081526020016000206000828254612e0b91906140b1565b9250508190555060bb600060b95481526020019081526020016000206007016000838381518110612e3e57612e3e614114565b60200260200101516001600160401b03166001600160401b03168152602001908152602001600020848281518110612e7857612e78614114565b602090810291909101810151825460018101845560009384529190922001555b6001016124bc565b50835160ac5560ad54600003612eb657835160ad555b50504260ab55505050505050565b600054610100900460ff16612eeb5760405162461bcd60e51b8152600401610d5990614374565b610ce96130ae565b612efb6134aa565b612f0b85608001516101006130de565b50508284526001600160a01b03821660208501526001600160e01b031981166040850152835b949350505050565b612f468260038351613143565b6116af828261324a565b6040516bffffffffffffffffffffffff193060601b1660208201526034810184905260009060540160408051808303601f1901815282825280516020918201206000818152600590925291812080546001600160a01b0319166001600160a01b038a1617905590925082917fb5e6e01e79f91267dc17b4e6314d5d4d03593d2ceee0fbb452b750bd70ea5af99190a2600254604051630200057560e51b81526001600160a01b0390911690634000aea090613013908890879087906004016143bf565b6020604051808303816000875af1158015613032573d6000803e3d6000fd5b505050506040513d601f19601f8201168201806040525081019061305691906143e6565b612f315760405162461bcd60e51b815260206004820152602360248201527f756e61626c6520746f207472616e73666572416e6443616c6c20746f206f7261604482015262636c6560e81b6064820152608401610d59565b600054610100900460ff166130d55760405162461bcd60e51b8152600401610d5990614374565b610ce933612354565b6040805180820190915260608152600060208201526130fe602083614408565b156131265761310e602083614408565b61311990602061441c565b61312390836140b1565b91505b506020828101829052604080518085526000815290920101905290565b6017816001600160401b031611613167576113a28360e0600585901b168317613271565b60ff816001600160401b0316116131a35761318d836018611fe0600586901b1617613271565b506113a2836001600160401b0383166001613296565b61ffff816001600160401b0316116131e0576131ca836019611fe0600586901b1617613271565b506113a2836001600160401b0383166002613296565b63ffffffff816001600160401b03161161321f5761320983601a611fe0600586901b1617613271565b506113a2836001600160401b0383166004613296565b61323483601b611fe0600586901b1617613271565b506113a2836001600160401b0383166008613296565b604080518082019091526060815260006020820152610cd2838460000151518485516132bc565b604080518082019091526060815260006020820152610cd283846000015151846133a6565b604080518082019091526060815260006020820152612f31848560000151518585613401565b60408051808201909152606081526000602082015282518211156132df57600080fd5b60208501516132ee83866140b1565b111561332157613321856133118760200151878661330c91906140b1565b613482565b61331c906002613f4b565b613493565b6000808651805187602083010193508088870111156133405787860182525b505050602084015b60208410613380578051825261335f6020836140b1565b915061336c6020826140b1565b905061337960208561441c565b9350613348565b51815160001960208690036101000a019081169019919091161790525083949350505050565b604080518082019091526060815260006020820152836020015183106133db576133db848560200151600261331c9190613f4b565b83518051602085830101848153508085036133f7576001810182525b5093949350505050565b604080518082019091526060815260006020820152602085015161342585846140b1565b1115613439576134398561331186856140b1565b600060016134498461010061442f565b613453919061441c565b90508551838682010185831982511617815250805184870111156134775783860181525b509495945050505050565b600081831115611794575081610b0d565b815161349f83836130de565b506113a2838261324a565b6040805160a0810182526000808252602080830182905282840182905260608084018390528451808601909552845283015290608082015290565b6001600160a01b038116811461203457600080fd5b8035613505816134e5565b919050565b60006020828403121561351c57600080fd5b8135610cd2816134e5565b634e487b7160e01b600052604160045260246000fd5b604051601f8201601f191681016001600160401b038111828210171561356557613565613527565b604052919050565b600082601f83011261357e57600080fd5b81356001600160401b0381111561359757613597613527565b6135aa601f8201601f191660200161353d565b8181528460208386010111156135bf57600080fd5b816020850160208301376000918101602001919091529392505050565b600080604083850312156135ef57600080fd5b82356001600160401b0381111561360557600080fd5b6136118582860161356d565b92505060208301356001600160401b0381111561362d57600080fd5b6136398582860161356d565b9150509250929050565b60005b8381101561365e578181015183820152602001613646565b50506000910152565b6000815180845261367f816020860160208601613643565b601f01601f19169290920160200192915050565b602081526000610cd26020830184613667565b80356001600160401b038116811461350557600080fd5b6000602082840312156136cf57600080fd5b610cd2826136a6565b600081518084526020840193506020830160005b828110156133f75781518652602095860195909101906001016136ec565b602081526000610cd260208301846136d8565b60006020828403121561372f57600080fd5b5035919050565b6000806040838503121561374957600080fd5b8235613754816134e5565b9150613762602084016136a6565b90509250929050565b6000806040838503121561377e57600080fd5b82359150613762602084016136a6565b600081518084526020840193506020830160005b828110156133f75781516001600160a01b03168652602095860195909101906001016137a2565b600081518084526020840193506020830160005b828110156133f75781516001600160401b03168652602095860195909101906001016137dd565b608081526000613817608083018761378e565b828103602084015261382981876136d8565b9050828103604084015261383d81866136d8565b9050828103606084015261385181856137c9565b979650505050505050565b6000806040838503121561386f57600080fd5b613878836136a6565b91506020830135613888816134e5565b809150509250929050565b60006001600160401b038211156138ac576138ac613527565b5060051b60200190565b600082601f8301126138c757600080fd5b81356138da6138d582613893565b61353d565b8082825260208201915060208360051b8601019250858311156138fc57600080fd5b602085015b83811015613922578035613914816134e5565b835260209283019201613901565b5095945050505050565b600082601f83011261393d57600080fd5b813561394b6138d582613893565b8082825260208201915060208360051b86010192508583111561396d57600080fd5b602085015b83811015613922578035835260209283019201613972565b803562ffffff8116811461350557600080fd5b600082601f8301126139ae57600080fd5b81356139bc6138d582613893565b8082825260208201915060208360051b8601019250858311156139de57600080fd5b602085015b83811015613922576139f48161398a565b8352602092830192016139e3565b600082601f830112613a1357600080fd5b8135613a216138d582613893565b8082825260208201915060208360051b860101925085831115613a4357600080fd5b602085015b8381101561392257613a59816136a6565b835260209283019201613a48565b60008060008060808587031215613a7d57600080fd5b84356001600160401b03811115613a9357600080fd5b613a9f878288016138b6565b94505060208501356001600160401b03811115613abb57600080fd5b613ac78782880161392c565b93505060408501356001600160401b03811115613ae357600080fd5b613aef8782880161399d565b92505060608501356001600160401b03811115613b0b57600080fd5b613b1787828801613a02565b91505092959194509250565b60008060008060008060008060008060006101608c8e031215613b4557600080fd5b613b4e8c6136a6565b9a5060208c0135613b5e816134e5565b995060408c0135613b6e816134e5565b985060608c0135613b7e816134e5565b975060808c0135965060a08c0135613b95816134e5565b955060c08c0135613ba5816134e5565b945060e08c0135613bb5816134e5565b93506101008c0135613bc6816134e5565b9250613bd56101208d016134fa565b9150613be46101408d016134fa565b90509295989b509295989b9093969950565b600080600080600060a08688031215613c0e57600080fd5b8535945060208601356001600160401b03811115613c2b57600080fd5b613c37888289016138b6565b94505060408601356001600160401b03811115613c5357600080fd5b613c5f8882890161392c565b93505060608601356001600160401b03811115613c7b57600080fd5b613c878882890161399d565b92505060808601356001600160401b03811115613ca357600080fd5b613caf88828901613a02565b9150509295509295909350565b602081526000610cd2602083018461378e565b608081526000613ce2608083018761378e565b8281036020840152613cf481876136d8565b83810360408501528551808252602080880193509091019060005b81811015613d3257835162ffffff16835260209384019390920191600101613d0f565b50508381036060850152613d4681866137c9565b98975050505050505050565b60008060008060808587031215613d6857600080fd5b8435613d73816134e5565b93506020850135613d83816134e5565b925060408501359150613d986060860161398a565b905092959194509250565b60008060008060808587031215613db957600080fd5b8435613dc4816134e5565b93506020850135613dd4816134e5565b925060408501356001600160801b0381168114613df057600080fd5b9150613d986060860161398a565b600080600060608486031215613e1357600080fd5b613e1c846136a6565b92506020840135613e2c816134e5565b9150613e3a6040850161398a565b90509250925092565b60008351613e55818460208801613643565b835190830190613e69818360208801613643565b01949350505050565b805169ffffffffffffffffffff8116811461350557600080fd5b600080600080600060a08688031215613ea457600080fd5b613ead86613e72565b60208701516040880151606089015192975090955093509150613ed260808701613e72565b90509295509295909350565b600060208284031215613ef057600080fd5b815160ff81168114610cd257600080fd5b600181811c90821680613f1557607f821691505b60208210810361179457634e487b7160e01b600052602260045260246000fd5b634e487b7160e01b600052601160045260246000fd5b8082028115828204841417610b0d57610b0d613f35565b634e487b7160e01b600052601260045260246000fd5b600082613f8757613f87613f62565b500490565b601f8211156116af57806000526020600020601f840160051c81016020851015613fb35750805b601f840160051c820191505b81811015613fd35760008155600101613fbf565b5050505050565b81516001600160401b03811115613ff357613ff3613527565b614007816140018454613f01565b84613f8c565b6020601f82116001811461403b57600083156140235750848201515b600019600385901b1c1916600184901b178455613fd3565b600084815260208120601f198516915b8281101561406b578785015182556020948501946001909201910161404b565b50848210156140895786840151600019600387901b60f8161c191681555b50505050600190811b01905550565b6000602082840312156140aa57600080fd5b5051919050565b80820180821115610b0d57610b0d613f35565b60208082526030908201527f50726f706f7361626c654f776e61626c653a206e6577206f776e65722069732060408201526f746865207a65726f206164647265737360801b606082015260800190565b634e487b7160e01b600052603260045260246000fd5b828152604060208201526000612f31604083018461378e565b60006020828403121561415557600080fd5b81516001600160401b0381111561416b57600080fd5b8201601f8101841361417c57600080fd5b805161418a6138d582613893565b8082825260208201915060208360051b8501019250868311156141ac57600080fd5b6020840193505b828410156124695783518252602093840193909101906141b3565b60ff8281168282160390811115610b0d57610b0d613f35565b6001815b60018411156142225780850481111561420657614206613f35565b600184161561421457908102905b60019390931c9280026141eb565b935093915050565b60008261423957506001610b0d565b8161424657506000610b0d565b816001811461425c576002811461426657614282565b6001915050610b0d565b60ff84111561427757614277613f35565b50506001821b610b0d565b5060208310610133831016604e8410600b84101617156142a5575081810a610b0d565b6142b260001984846141e7565b80600019048211156142c6576142c6613f35565b029392505050565b6000610cd260ff84168361422a565b80820260008212600160ff1b841416156142f9576142f9613f35565b8181058314821517610b0d57610b0d613f35565b6001600160a01b0389811682526020820189905260408201889052861660608201526001600160e01b03198516608082015260a0810184905260c0810183905261010060e0820181905260009061436690830184613667565b9a9950505050505050505050565b6020808252602b908201527f496e697469616c697a61626c653a20636f6e7472616374206973206e6f74206960408201526a6e697469616c697a696e6760a81b606082015260800190565b60018060a01b0384168152826020820152606060408201526000611dfa6060830184613667565b6000602082840312156143f857600080fd5b81518015158114610cd257600080fd5b60008261441757614417613f62565b500690565b81810381811115610b0d57610b0d613f35565b6000610cd2838361422a56fe68747470733a2f2f6170702e6e65786c6162732e696f2f6170692f616c6c46756e64696e6752617465733f6d756c7469706c7946756e633d31382674696d65734e656746756e643d74727565266172726179733d74727565a2646970667358221220b6244624e3974f481970a0427a43984857a646bd1a4993da9be6c5bdc0faf05064736f6c634300081a0033","linkReferences":{}},"methodIdentifiers":{"allCurrentChainSelectorTokenShares(uint64)":"af696b34","allCurrentChainSelectorTokens(uint64)":"d1c68aa3","allCurrentChainSelectorVersions(uint64)":"221f3371","allOracleChainSelectorTokenShares(uint64)":"bf0d49c0","allOracleChainSelectorTokens(uint64)":"d050ca7c","allOracleChainSelectorVersions(uint64)":"a1adff88","concatenation(string,string)":"0e329357","crossChainFactoryBySelector(uint64)":"340fbc74","crossChainToken(uint64)":"19da7e2a","crossChainTokenSwapFee(uint64,address)":"652354ae","currentChainSelector()":"3d54cb6f","currentChainSelectorTokensCount(uint64)":"b6ad185b","currentChainSelectorsCount()":"69487b1c","currentFilledCount()":"b90b8a2a","currentList(uint256)":"9932ba4c","estimateAmountOut(address,address,uint128,uint24)":"ee7bd3e2","externalJobId()":"a8b54bd4","factoryV2()":"68e0d4e1","factoryV3()":"1d5f45f5","feeRate()":"978bbdb9","fulfillAssetsData(bytes32,address[],uint256[],uint24[],uint64[])":"b2c44b3f","getAmountOut(address,address,uint256,uint24)":"dd811ac9","getCurrentChainSelectorTotalShares(uint256,uint64)":"2a3ff8ad","getCurrentData(uint256)":"d3f7f266","getOracleData(uint256)":"536e3f6a","getPortfolioBalance()":"a8509fd8","indexFactory()":"e3fd0af2","indexFactoryBalancer()":"29d75de9","indexToken()":"e7d015f2","initialize(uint64,address,address,address,bytes32,address,address,address,address,address,address)":"9ebe560e","lastUpdateTime()":"c8f33c91","latestFeeUpdate()":"011ced5f","mockFillAssetsList(address[],uint256[],uint24[],uint64[])":"8bb8f1bb","mockUpdateCurrentList()":"4f9641b9","oracleChainSelectorTokensCount(uint64)":"fc698b4a","oracleChainSelectorsCount()":"8e9d7c18","oracleFilledCount()":"f1581787","oracleList(uint256)":"239aad0d","oraclePayment()":"0c02e130","owner()":"8da5cb5b","priceInWei()":"3c8da588","priceOracle()":"2630c12f","proposeOwner(address)":"b5ed298a","proposedOwner()":"d153b60c","quoter()":"c6bbd5a7","renounceOwnership()":"715018a6","requestAssetsData()":"7ca58c55","setCrossChainFactory(address,uint64)":"271040df","setCrossChainToken(uint64,address,uint24)":"f0cd5b72","setIndexFactory(address)":"d047937f","setIndexFactoryBalancer(address)":"ae214f39","setPriceFeed(address)":"724e78da","setPriceOracle(address)":"530e784f","setUrl(string,string)":"a73e1cbf","setVault(address)":"6817031b","swapRouterV2()":"744fbc7a","swapRouterV3()":"b631e80b","toUsdPriceFeed()":"63973fda","tokenChainSelector(address)":"ea8ecf04","tokenCurrentListIndex(address)":"914f0cc6","tokenCurrentMarketShare(address)":"0be52713","tokenOracleListIndex(address)":"8c88c10c","tokenOracleMarketShare(address)":"4b3e0b80","tokenSwapFee(address)":"32599665","totalCurrentChainSelectors()":"92e410ce","totalCurrentList()":"53fd4332","totalOracleChainSelectors()":"80acffa3","totalOracleList()":"c8599ded","transferOwnership(address)":"f2fde38b","updateCurrentList()":"8baa6bf1","vault()":"fbfa77cf","weth()":"3fc8cef3"},"id":5}