{"abi":[{"type":"function","name":"allCurrentChainSelectorTokenShares","inputs":[{"name":"_chainSelector","type":"uint64","internalType":"uint64"}],"outputs":[{"name":"","type":"uint256[]","internalType":"uint256[]"}],"stateMutability":"view"},{"type":"function","name":"allCurrentChainSelectorTokens","inputs":[{"name":"_chainSelector","type":"uint64","internalType":"uint64"}],"outputs":[{"name":"tokens","type":"address[]","internalType":"address[]"}],"stateMutability":"view"},{"type":"function","name":"allCurrentChainSelectorVersions","inputs":[{"name":"_chainSelector","type":"uint64","internalType":"uint64"}],"outputs":[{"name":"versions","type":"uint256[]","internalType":"uint256[]"}],"stateMutability":"view"},{"type":"function","name":"allOracleChainSelectorTokenShares","inputs":[{"name":"_chainSelector","type":"uint64","internalType":"uint64"}],"outputs":[{"name":"","type":"uint256[]","internalType":"uint256[]"}],"stateMutability":"view"},{"type":"function","name":"allOracleChainSelectorTokens","inputs":[{"name":"_chainSelector","type":"uint64","internalType":"uint64"}],"outputs":[{"name":"tokens","type":"address[]","internalType":"address[]"}],"stateMutability":"view"},{"type":"function","name":"allOracleChainSelectorVersions","inputs":[{"name":"_chainSelector","type":"uint64","internalType":"uint64"}],"outputs":[{"name":"versions","type":"uint256[]","internalType":"uint256[]"}],"stateMutability":"view"},{"type":"function","name":"concatenation","inputs":[{"name":"a","type":"string","internalType":"string"},{"name":"b","type":"string","internalType":"string"}],"outputs":[{"name":"","type":"string","internalType":"string"}],"stateMutability":"pure"},{"type":"function","name":"crossChainFactoryBySelector","inputs":[{"name":"","type":"uint64","internalType":"uint64"}],"outputs":[{"name":"","type":"address","internalType":"address"}],"stateMutability":"view"},{"type":"function","name":"crossChainToken","inputs":[{"name":"","type":"uint64","internalType":"uint64"}],"outputs":[{"name":"","type":"address","internalType":"address"}],"stateMutability":"view"},{"type":"function","name":"crossChainTokenSwapVersion","inputs":[{"name":"","type":"uint64","internalType":"uint64"},{"name":"","type":"address","internalType":"address"}],"outputs":[{"name":"","type":"uint256","internalType":"uint256"}],"stateMutability":"view"},{"type":"function","name":"currentChainSelector","inputs":[],"outputs":[{"name":"","type":"uint64","internalType":"uint64"}],"stateMutability":"view"},{"type":"function","name":"currentChainSelectorTokenShares","inputs":[{"name":"","type":"uint256","internalType":"uint256"},{"name":"","type":"uint64","internalType":"uint64"},{"name":"","type":"uint256","internalType":"uint256"}],"outputs":[{"name":"","type":"uint256","internalType":"uint256"}],"stateMutability":"view"},{"type":"function","name":"currentChainSelectorTokens","inputs":[{"name":"","type":"uint256","internalType":"uint256"},{"name":"","type":"uint64","internalType":"uint64"},{"name":"","type":"uint256","internalType":"uint256"}],"outputs":[{"name":"","type":"address","internalType":"address"}],"stateMutability":"view"},{"type":"function","name":"currentChainSelectorTokensCount","inputs":[{"name":"_chainSelector","type":"uint64","internalType":"uint64"}],"outputs":[{"name":"","type":"uint256","internalType":"uint256"}],"stateMutability":"view"},{"type":"function","name":"currentChainSelectorTotalShares","inputs":[{"name":"","type":"uint256","internalType":"uint256"},{"name":"","type":"uint64","internalType":"uint64"}],"outputs":[{"name":"","type":"uint256","internalType":"uint256"}],"stateMutability":"view"},{"type":"function","name":"currentChainSelectorVersions","inputs":[{"name":"","type":"uint256","internalType":"uint256"},{"name":"","type":"uint64","internalType":"uint64"},{"name":"","type":"uint256","internalType":"uint256"}],"outputs":[{"name":"","type":"uint256","internalType":"uint256"}],"stateMutability":"view"},{"type":"function","name":"currentChainSelectors","inputs":[{"name":"","type":"uint256","internalType":"uint256"},{"name":"","type":"uint256","internalType":"uint256"}],"outputs":[{"name":"","type":"uint64","internalType":"uint64"}],"stateMutability":"view"},{"type":"function","name":"currentChainSelectorsCount","inputs":[],"outputs":[{"name":"","type":"uint256","internalType":"uint256"}],"stateMutability":"view"},{"type":"function","name":"currentFilledCount","inputs":[],"outputs":[{"name":"","type":"uint256","internalType":"uint256"}],"stateMutability":"view"},{"type":"function","name":"currentList","inputs":[{"name":"","type":"uint256","internalType":"uint256"}],"outputs":[{"name":"","type":"address","internalType":"address"}],"stateMutability":"view"},{"type":"function","name":"estimateAmountOut","inputs":[{"name":"tokenIn","type":"address","internalType":"address"},{"name":"tokenOut","type":"address","internalType":"address"},{"name":"amountIn","type":"uint128","internalType":"uint128"}],"outputs":[{"name":"amountOut","type":"uint256","internalType":"uint256"}],"stateMutability":"view"},{"type":"function","name":"externalJobId","inputs":[],"outputs":[{"name":"","type":"bytes32","internalType":"bytes32"}],"stateMutability":"view"},{"type":"function","name":"factoryV2","inputs":[],"outputs":[{"name":"","type":"address","internalType":"contract IUniswapV2Factory"}],"stateMutability":"view"},{"type":"function","name":"factoryV3","inputs":[],"outputs":[{"name":"","type":"address","internalType":"contract IUniswapV3Factory"}],"stateMutability":"view"},{"type":"function","name":"feeRate","inputs":[],"outputs":[{"name":"","type":"uint8","internalType":"uint8"}],"stateMutability":"view"},{"type":"function","name":"fulfillAssetsData","inputs":[{"name":"requestId","type":"bytes32","internalType":"bytes32"},{"name":"_tokens","type":"address[]","internalType":"address[]"},{"name":"_marketShares","type":"uint256[]","internalType":"uint256[]"},{"name":"_swapVersions","type":"uint256[]","internalType":"uint256[]"},{"name":"_chainSelectors","type":"uint64[]","internalType":"uint64[]"}],"outputs":[],"stateMutability":"nonpayable"},{"type":"function","name":"getAmountOut","inputs":[{"name":"tokenIn","type":"address","internalType":"address"},{"name":"tokenOut","type":"address","internalType":"address"},{"name":"amountIn","type":"uint256","internalType":"uint256"},{"name":"_swapVersion","type":"uint256","internalType":"uint256"}],"outputs":[{"name":"finalAmountOutValue","type":"uint256","internalType":"uint256"}],"stateMutability":"view"},{"type":"function","name":"getPortfolioBalance","inputs":[],"outputs":[{"name":"","type":"uint256","internalType":"uint256"}],"stateMutability":"view"},{"type":"function","name":"indexFactory","inputs":[],"outputs":[{"name":"","type":"address","internalType":"address"}],"stateMutability":"view"},{"type":"function","name":"indexFactoryBalancer","inputs":[],"outputs":[{"name":"","type":"address","internalType":"address"}],"stateMutability":"view"},{"type":"function","name":"indexToken","inputs":[],"outputs":[{"name":"","type":"address","internalType":"contract IndexToken"}],"stateMutability":"view"},{"type":"function","name":"initialize","inputs":[{"name":"_currentChainSelector","type":"uint64","internalType":"uint64"},{"name":"_token","type":"address","internalType":"address payable"},{"name":"_chainlinkToken","type":"address","internalType":"address"},{"name":"_oracleAddress","type":"address","internalType":"address"},{"name":"_externalJobId","type":"bytes32","internalType":"bytes32"},{"name":"_toUsdPriceFeed","type":"address","internalType":"address"},{"name":"_weth","type":"address","internalType":"address"},{"name":"_swapRouterV3","type":"address","internalType":"address"},{"name":"_factoryV3","type":"address","internalType":"address"},{"name":"_swapRouterV2","type":"address","internalType":"address"},{"name":"_factoryV2","type":"address","internalType":"address"}],"outputs":[],"stateMutability":"nonpayable"},{"type":"function","name":"isCurrentChainSelectorStored","inputs":[{"name":"","type":"uint256","internalType":"uint256"},{"name":"","type":"uint64","internalType":"uint64"}],"outputs":[{"name":"","type":"bool","internalType":"bool"}],"stateMutability":"view"},{"type":"function","name":"isOracleChainSelectorStored","inputs":[{"name":"","type":"uint256","internalType":"uint256"},{"name":"","type":"uint64","internalType":"uint64"}],"outputs":[{"name":"","type":"bool","internalType":"bool"}],"stateMutability":"view"},{"type":"function","name":"lastUpdateTime","inputs":[],"outputs":[{"name":"","type":"uint256","internalType":"uint256"}],"stateMutability":"view"},{"type":"function","name":"latestFeeUpdate","inputs":[],"outputs":[{"name":"","type":"uint256","internalType":"uint256"}],"stateMutability":"view"},{"type":"function","name":"mockFillAssetsList","inputs":[{"name":"_tokens","type":"address[]","internalType":"address[]"},{"name":"_marketShares","type":"uint256[]","internalType":"uint256[]"},{"name":"_swapVersions","type":"uint256[]","internalType":"uint256[]"},{"name":"_chainSelectors","type":"uint64[]","internalType":"uint64[]"}],"outputs":[],"stateMutability":"nonpayable"},{"type":"function","name":"mockUpdateCurrentList","inputs":[],"outputs":[],"stateMutability":"nonpayable"},{"type":"function","name":"oracleChainSelectorTokenShares","inputs":[{"name":"","type":"uint256","internalType":"uint256"},{"name":"","type":"uint64","internalType":"uint64"},{"name":"","type":"uint256","internalType":"uint256"}],"outputs":[{"name":"","type":"uint256","internalType":"uint256"}],"stateMutability":"view"},{"type":"function","name":"oracleChainSelectorTokens","inputs":[{"name":"","type":"uint256","internalType":"uint256"},{"name":"","type":"uint64","internalType":"uint64"},{"name":"","type":"uint256","internalType":"uint256"}],"outputs":[{"name":"","type":"address","internalType":"address"}],"stateMutability":"view"},{"type":"function","name":"oracleChainSelectorTokensCount","inputs":[{"name":"_chainSelector","type":"uint64","internalType":"uint64"}],"outputs":[{"name":"","type":"uint256","internalType":"uint256"}],"stateMutability":"view"},{"type":"function","name":"oracleChainSelectorTotalShares","inputs":[{"name":"","type":"uint256","internalType":"uint256"},{"name":"","type":"uint64","internalType":"uint64"}],"outputs":[{"name":"","type":"uint256","internalType":"uint256"}],"stateMutability":"view"},{"type":"function","name":"oracleChainSelectorVersions","inputs":[{"name":"","type":"uint256","internalType":"uint256"},{"name":"","type":"uint64","internalType":"uint64"},{"name":"","type":"uint256","internalType":"uint256"}],"outputs":[{"name":"","type":"uint256","internalType":"uint256"}],"stateMutability":"view"},{"type":"function","name":"oracleChainSelectors","inputs":[{"name":"","type":"uint256","internalType":"uint256"},{"name":"","type":"uint256","internalType":"uint256"}],"outputs":[{"name":"","type":"uint64","internalType":"uint64"}],"stateMutability":"view"},{"type":"function","name":"oracleChainSelectorsCount","inputs":[],"outputs":[{"name":"","type":"uint256","internalType":"uint256"}],"stateMutability":"view"},{"type":"function","name":"oracleFilledCount","inputs":[],"outputs":[{"name":"","type":"uint256","internalType":"uint256"}],"stateMutability":"view"},{"type":"function","name":"oracleList","inputs":[{"name":"","type":"uint256","internalType":"uint256"}],"outputs":[{"name":"","type":"address","internalType":"address"}],"stateMutability":"view"},{"type":"function","name":"oraclePayment","inputs":[],"outputs":[{"name":"","type":"uint256","internalType":"uint256"}],"stateMutability":"view"},{"type":"function","name":"owner","inputs":[],"outputs":[{"name":"","type":"address","internalType":"address"}],"stateMutability":"view"},{"type":"function","name":"priceInWei","inputs":[],"outputs":[{"name":"","type":"uint256","internalType":"uint256"}],"stateMutability":"view"},{"type":"function","name":"proposeOwner","inputs":[{"name":"_proposedOwner","type":"address","internalType":"address"}],"outputs":[],"stateMutability":"nonpayable"},{"type":"function","name":"proposedOwner","inputs":[],"outputs":[{"name":"","type":"address","internalType":"address"}],"stateMutability":"view"},{"type":"function","name":"quoter","inputs":[],"outputs":[{"name":"","type":"address","internalType":"contract IQuoter"}],"stateMutability":"view"},{"type":"function","name":"renounceOwnership","inputs":[],"outputs":[],"stateMutability":"nonpayable"},{"type":"function","name":"requestAssetsData","inputs":[],"outputs":[{"name":"","type":"bytes32","internalType":"bytes32"}],"stateMutability":"nonpayable"},{"type":"function","name":"setCrossChainFactory","inputs":[{"name":"_crossChainFactoryAddress","type":"address","internalType":"address"},{"name":"_chainSelector","type":"uint64","internalType":"uint64"}],"outputs":[],"stateMutability":"nonpayable"},{"type":"function","name":"setCrossChainToken","inputs":[{"name":"_chainSelector","type":"uint64","internalType":"uint64"},{"name":"_crossChainToken","type":"address","internalType":"address"},{"name":"_swapVersion","type":"uint256","internalType":"uint256"}],"outputs":[],"stateMutability":"nonpayable"},{"type":"function","name":"setIndexFactory","inputs":[{"name":"_indexFactory","type":"address","internalType":"address"}],"outputs":[],"stateMutability":"nonpayable"},{"type":"function","name":"setIndexFactoryBalancer","inputs":[{"name":"_indexFactoryBalancer","type":"address","internalType":"address"}],"outputs":[],"stateMutability":"nonpayable"},{"type":"function","name":"setPriceFeed","inputs":[{"name":"_toUsdPricefeed","type":"address","internalType":"address"}],"outputs":[],"stateMutability":"nonpayable"},{"type":"function","name":"setUrl","inputs":[{"name":"_beforeAddress","type":"string","internalType":"string"},{"name":"_afterAddress","type":"string","internalType":"string"}],"outputs":[],"stateMutability":"nonpayable"},{"type":"function","name":"swap","inputs":[{"name":"tokenIn","type":"address","internalType":"address"},{"name":"tokenOut","type":"address","internalType":"address"},{"name":"amountIn","type":"uint256","internalType":"uint256"},{"name":"_recipient","type":"address","internalType":"address"},{"name":"_swapVersion","type":"uint256","internalType":"uint256"}],"outputs":[{"name":"","type":"uint256","internalType":"uint256"}],"stateMutability":"nonpayable"},{"type":"function","name":"swapRouterV2","inputs":[],"outputs":[{"name":"","type":"address","internalType":"contract IUniswapV2Router02"}],"stateMutability":"view"},{"type":"function","name":"swapRouterV3","inputs":[],"outputs":[{"name":"","type":"address","internalType":"contract ISwapRouter"}],"stateMutability":"view"},{"type":"function","name":"toUsdPriceFeed","inputs":[],"outputs":[{"name":"","type":"address","internalType":"contract AggregatorV3Interface"}],"stateMutability":"view"},{"type":"function","name":"tokenChainSelector","inputs":[{"name":"","type":"address","internalType":"address"}],"outputs":[{"name":"","type":"uint64","internalType":"uint64"}],"stateMutability":"view"},{"type":"function","name":"tokenCurrentListIndex","inputs":[{"name":"","type":"address","internalType":"address"}],"outputs":[{"name":"","type":"uint256","internalType":"uint256"}],"stateMutability":"view"},{"type":"function","name":"tokenCurrentMarketShare","inputs":[{"name":"","type":"address","internalType":"address"}],"outputs":[{"name":"","type":"uint256","internalType":"uint256"}],"stateMutability":"view"},{"type":"function","name":"tokenOracleListIndex","inputs":[{"name":"","type":"address","internalType":"address"}],"outputs":[{"name":"","type":"uint256","internalType":"uint256"}],"stateMutability":"view"},{"type":"function","name":"tokenOracleMarketShare","inputs":[{"name":"","type":"address","internalType":"address"}],"outputs":[{"name":"","type":"uint256","internalType":"uint256"}],"stateMutability":"view"},{"type":"function","name":"tokenSwapVersion","inputs":[{"name":"","type":"address","internalType":"address"}],"outputs":[{"name":"","type":"uint256","internalType":"uint256"}],"stateMutability":"view"},{"type":"function","name":"totalCurrentChainSelectors","inputs":[],"outputs":[{"name":"","type":"uint256","internalType":"uint256"}],"stateMutability":"view"},{"type":"function","name":"totalCurrentList","inputs":[],"outputs":[{"name":"","type":"uint256","internalType":"uint256"}],"stateMutability":"view"},{"type":"function","name":"totalOracleChainSelectors","inputs":[],"outputs":[{"name":"","type":"uint256","internalType":"uint256"}],"stateMutability":"view"},{"type":"function","name":"totalOracleList","inputs":[],"outputs":[{"name":"","type":"uint256","internalType":"uint256"}],"stateMutability":"view"},{"type":"function","name":"transferOwnership","inputs":[{"name":"newOwner","type":"address","internalType":"address"}],"outputs":[],"stateMutability":"nonpayable"},{"type":"function","name":"updateCurrentList","inputs":[],"outputs":[],"stateMutability":"nonpayable"},{"type":"function","name":"weth","inputs":[],"outputs":[{"name":"","type":"address","internalType":"contract IWETH"}],"stateMutability":"view"},{"type":"event","name":"ChainlinkCancelled","inputs":[{"name":"id","type":"bytes32","indexed":true,"internalType":"bytes32"}],"anonymous":false},{"type":"event","name":"ChainlinkFulfilled","inputs":[{"name":"id","type":"bytes32","indexed":true,"internalType":"bytes32"}],"anonymous":false},{"type":"event","name":"ChainlinkRequested","inputs":[{"name":"id","type":"bytes32","indexed":true,"internalType":"bytes32"}],"anonymous":false},{"type":"event","name":"Initialized","inputs":[{"name":"version","type":"uint8","indexed":false,"internalType":"uint8"}],"anonymous":false},{"type":"event","name":"OwnershipTransferred","inputs":[{"name":"previousOwner","type":"address","indexed":true,"internalType":"address"},{"name":"newOwner","type":"address","indexed":true,"internalType":"address"}],"anonymous":false},{"type":"error","name":"T","inputs":[]}],"bytecode":{"object":"0x608060405234801561001057600080fd5b50614b32806100206000396000f3fe608060405234801561001057600080fd5b506004361061046a5760003560e01c8063914f0cc61161024c578063bd96993c11610146578063d1db5984116100c3578063e7d015f211610087578063e7d015f214610b07578063ea8ecf0414610b1a578063f158178714610b43578063f2fde38b14610b4c578063fc698b4a14610b5f57600080fd5b8063d1db598414610a9b578063d7eefdaa14610aae578063d90bc21114610ac1578063db56192214610ae1578063e3fd0af214610af457600080fd5b8063cf0952391161010a578063cf09523914610a2f578063d047937f14610a42578063d050ca7c14610a55578063d153b60c14610a75578063d1c68aa314610a8857600080fd5b8063bd96993c146109e4578063bf0d49c0146109f7578063c6bbd5a714610a0a578063c8599ded14610a1d578063c8f33c9114610a2657600080fd5b8063a73e1cbf116101d4578063b5ed298a11610198578063b5ed298a1461096b578063b631e80b1461097e578063b6ad185b14610991578063b90b8a2a146109c8578063bb0ed513146109d157600080fd5b8063a73e1cbf14610921578063a8509fd814610934578063a8b54bd41461093c578063ae214f3914610945578063af696b341461095857600080fd5b80639932ba4c1161021b5780639932ba4c146108ac5780639c8bbe8f146108d55780639ebe560e146108e85780639f91affc146108fb578063a1adff881461090e57600080fd5b8063914f0cc61461085157806392e410ce1461087157806395a7e2b31461087a578063978bbdb91461088d57600080fd5b80633d54cb6f11610368578063715018a6116102e557806380acffa3116102a957806380acffa3146107f85780638baa6bf1146108015780638c88c10c146108095780638da5cb5b146108295780638e9d7c181461083a57600080fd5b8063715018a614610797578063724e78da1461079f578063744fbc7a146107b257806377b2688f146107c55780637ca58c55146107f057600080fd5b80634f9641b91161032c5780634f9641b91461074957806353fd43321461075157806363973fda1461075a57806368e0d4e11461076d57806369487b1c1461078057600080fd5b80633d54cb6f146106925780633fc8cef3146106bd5780633ff34ef4146106d057806344fd376f146106fe5780634b3e0b801461072957600080fd5b806319da7e2a116103f6578063271040df116103ba578063271040df14610628578063271b5fcc1461063b57806329d75de91461064e578063340fbc74146106615780633c8da5881461068a57600080fd5b806319da7e2a1461054d5780631d5f45f51461058e578063221f3371146105a1578063239aad0d146105c15780632585dd26146105ea57600080fd5b80630e3293571161043d5780630e329357146104c757806313cb1f83146104e7578063174cbe50146104fa57806317d88f4614610525578063195c49131461053857600080fd5b8063011ced5f1461046f5780630456f9c81461048b5780630be527131461049e5780630c02e130146104be575b600080fd5b61047860a45481565b6040519081526020015b60405180910390f35b610478610499366004613e1b565b610b96565b6104786104ac366004613de1565b60b46020526000908152604090205481565b61047860a95481565b6104da6104d536600461415c565b610c4c565b604051610482919061464c565b6104786104f5366004613ecd565b610c79565b610478610508366004614318565b60a160209081526000928352604080842090915290825290205481565b610478610533366004613e72565b610dc9565b61054b610546366004614428565b6110e4565b005b61057661055b3660046142fd565b60a0602052600090815260409020546001600160a01b031681565b6040516001600160a01b039091168152602001610482565b60c754610576906001600160a01b031681565b6105b46105af3660046142fd565b611136565b6040516104829190614608565b6105766105cf366004614251565b60b0602052600090815260409020546001600160a01b031681565b6106186105f83660046142a5565b60bd60209081526000928352604080842090915290825290205460ff1681565b6040519015158152602001610482565b61054b610636366004613f13565b6111ac565b6105766106493660046142c8565b6111eb565b609f54610576906001600160a01b031681565b61057661066f3660046142fd565b60a2602052600090815260409020546001600160a01b031681565b610478611230565b60a5546106a5906001600160401b031681565b6040516001600160401b039091168152602001610482565b60ca54610576906001600160a01b031681565b6106186106de3660046142a5565b60bc60209081526000928352604080842090915290825290205460ff1681565b61047861070c3660046142a5565b60c560209081526000928352604080842090915290825290205481565b610478610737366004613de1565b60b56020526000908152604090205481565b61054b61135c565b61047860ad5481565b60aa54610576906001600160a01b031681565b60c954610576906001600160a01b031681565b60b954600090815260bb6020526040902054610478565b61054b61136e565b61054b6107ad366004613de1565b611380565b60c854610576906001600160a01b031681565b6104786107d33660046142a5565b60c460209081526000928352604080842090915290825290205481565b61047861141c565b61047860ae5481565b61054b611716565b610478610817366004613de1565b60b26020526000908152604090205481565b6038546001600160a01b0316610576565b60b854600090815260ba6020526040902054610478565b61047861085f366004613de1565b60b36020526000908152604090205481565b61047860af5481565b6106a5610888366004614283565b611787565b60a35461089a9060ff1681565b60405160ff9091168152602001610482565b6105766108ba366004614251565b60b1602052600090815260409020546001600160a01b031681565b6104786108e33660046142c8565b6117d3565b61054b6108f636600461434f565b611811565b6104786109093660046142c8565b611a8e565b6105b461091c3660046142fd565b611ab6565b61054b61092f36600461415c565b611b2a565b610478611b5e565b61047860a85481565b61054b610953366004613de1565b611c59565b6105b46109663660046142fd565b611c83565b61054b610979366004613de1565b611cf7565b60c654610576906001600160a01b031681565b61047861099f3660046142fd565b60b954600090815260bf602090815260408083206001600160401b039094168352929052205490565b61047860b95481565b6104786109df3660046142c8565b611d47565b6105766109f23660046142c8565b611d6f565b6105b4610a053660046142fd565b611d97565b60cb54610576906001600160a01b031681565b61047860ac5481565b61047860ab5481565b610478610a3d3660046142c8565b611e0b565b61054b610a50366004613de1565b611e33565b610a68610a633660046142fd565b611e5d565b60405161048291906145f5565b606a54610576906001600160a01b031681565b610a68610a963660046142fd565b611edc565b61054b610aa93660046140a6565b611f5a565b61054b610abc366004613f48565b61202a565b610478610acf366004613de1565b60b66020526000908152604090205481565b6106a5610aef366004614283565b612044565b609e54610576906001600160a01b031681565b609d54610576906001600160a01b031681565b6106a5610b28366004613de1565b60b7602052600090815260409020546001600160401b031681565b61047860b85481565b61054b610b5a366004613de1565b612060565b610478610b6d3660046142fd565b60b854600090815260be602090815260408083206001600160401b039094168352929052205490565b60c754604051630b4c774160e11b81526001600160a01b0385811660048301528481166024830152610bb860448301526000928392911690631698ee829060640160206040518083038186803b158015610bef57600080fd5b505afa158015610c03573d6000803e3d6000fd5b505050506040513d601f19601f82011682018060405250810190610c279190613dfe565b90506000610c3482612188565b9050610c428185888861220a565b9695505050505050565b60608282604051602001610c61929190614537565b60405160208183030381529060405290505b92915050565b6000808315610dc0578260031415610c9d57610c96868686610b96565b9050610dc0565b6040805160028082526060820183526000926020830190803683370190505090508681600081518110610cd257610cd2614a63565b60200260200101906001600160a01b031690816001600160a01b0316815250508581600181518110610d0657610d06614a63565b6001600160a01b03928316602091820292909201015260c85460405163d06ca61f60e01b8152600092919091169063d06ca61f90610d4a90899086906004016146fa565b60006040518083038186803b158015610d6257600080fd5b505afa158015610d76573d6000803e3d6000fd5b505050506040513d6000823e601f3d908101601f19168201604052610d9e9190810190613ff4565b905080600181518110610db357610db3614a63565b6020026020010151925050505b95945050505050565b60008160031415610f6e5760c65460405163095ea7b360e01b81526001600160a01b039182166004820152602481018690529087169063095ea7b390604401602060405180830381600087803b158015610e2257600080fd5b505af1158015610e36573d6000803e3d6000fd5b505050506040513d601f19601f82011682018060405250810190610e5a919061408b565b5060408051610100810182526001600160a01b03888116825287811660208301908152610bb883850190815287831660608501908152426080860190815260a086018b8152600060c0880181815260e0890182815260c6549a5163414bf38960e01b81528a518a166004820152975189166024890152955162ffffff166044880152935187166064870152915160848601525160a4850152905160c48401529051831660e483015292939091169063414bf3899061010401602060405180830381600087803b158015610f2c57600080fd5b505af1158015610f40573d6000803e3d6000fd5b505050506040513d601f19601f82011682018060405250810190610f64919061426a565b9250610dc0915050565b6040805160028082526060820183526000926020830190803683370190505090508681600081518110610fa357610fa3614a63565b60200260200101906001600160a01b031690816001600160a01b0316815250508581600181518110610fd757610fd7614a63565b6001600160a01b03928316602091820292909201015260c85460405163095ea7b360e01b81529082166004820152602481018790529088169063095ea7b390604401602060405180830381600087803b15801561103357600080fd5b505af1158015611047573d6000803e3d6000fd5b505050506040513d601f19601f8201168201806040525081019061106b919061408b565b5060c854604051635c11d79560e01b81526001600160a01b0390911690635c11d795906110a590889060009086908a904290600401614713565b600060405180830381600087803b1580156110bf57600080fd5b505af11580156110d3573d6000803e3d6000fd5b5060009a9950505050505050505050565b6110ec612318565b6001600160401b03909216600090815260a06020908152604080832080546001600160a01b039095166001600160a01b03199095168517905560a182528083209383529290522055565b60b954600090815260c1602090815260408083206001600160401b03851684528252918290208054835181840281018401909452808452606093928301828280156111a057602002820191906000526020600020905b81548152602001906001019080831161118c575b50505050509050919050565b6111b4612318565b6001600160401b0316600090815260a26020526040902080546001600160a01b0319166001600160a01b0392909216919091179055565b60bf602052826000526040600020602052816000526040600020818154811061121357600080fd5b6000918252602090912001546001600160a01b0316925083915050565b60008060aa60009054906101000a90046001600160a01b03166001600160a01b031663feaf968c6040518163ffffffff1660e01b815260040160a06040518083038186803b15801561128157600080fd5b505afa158015611295573d6000803e3d6000fd5b505050506040513d601f19601f820116820180604052508101906112b99190614467565b505050915050600060aa60009054906101000a90046001600160a01b03166001600160a01b031663313ce5676040518163ffffffff1660e01b815260040160206040518083038186803b15801561130f57600080fd5b505afa158015611323573d6000803e3d6000fd5b505050506040513d601f19601f8201168201806040525081019061134791906144b7565b905061135582826012612372565b9392505050565b611364612318565b61136c6123b2565b565b611376612318565b61136c600061261f565b611388612318565b6001600160a01b0381166113fa5760405162461bcd60e51b815260206004820152602e60248201527f49434f3a205072696365206665656420616464726573732063616e6e6f74206260448201526d65207a65726f206164647265737360901b60648201526084015b60405180910390fd5b60aa80546001600160a01b0319166001600160a01b0392909216919091179055565b60008061153d60a6805461142f906149d3565b80601f016020809104026020016040519081016040528092919081815260200182805461145b906149d3565b80156114a85780601f1061147d576101008083540402835291602001916114a8565b820191906000526020600020905b81548152906001019060200180831161148b57829003601f168201915b505050505060a780546114ba906149d3565b80601f01602080910402602001604051908101604052809291908181526020018280546114e6906149d3565b80156115335780601f1061150857610100808354040283529160200191611533565b820191906000526020600020905b81548152906001019060200180831161151657829003601f168201915b5050505050610c4c565b9050600061155560a8543063d1db598460e01b612671565b60408051808201909152600381526219d95d60ea1b602082015290915061157e9082908461268d565b6115d660405180604001604052806005815260200164706174683160d81b8152506040518060400160405280600e81526020016d726573756c74732c746f6b656e7360901b8152508361268d9092919063ffffffff16565b611634604051806040016040528060058152602001643830ba341960d91b81525060405180604001604052806014815260200173726573756c74732c6d61726b657453686172657360601b8152508361268d9092919063ffffffff16565b61169260405180604001604052806005815260200164706174683360d81b81525060405180604001604052806014815260200173726573756c74732c7377617056657273696f6e7360601b8152508361268d9092919063ffffffff16565b6116f1604051806040016040528060058152602001641c185d1a0d60da1b815250604051806040016040528060158152602001743932b9bab63a399631b430b4b729b2b632b1ba37b960591b8152508361268d9092919063ffffffff16565b61170f6117066003546001600160a01b031690565b8260a9546126ab565b9250505090565b609f546001600160a01b031633146113645760405162461bcd60e51b815260206004820152602e60248201527f43616c6c6572206973206e6f7420696e64657820666163746f72792062616c6160448201526d3731b2b91031b7b73a3930b1ba1760911b60648201526084016113f1565b60ba60205281600052604060002081815481106117a357600080fd5b9060005260206000209060049182820401919006600802915091509054906101000a90046001600160401b031681565b60c260205282600052604060002060205281600052604060002081815481106117fb57600080fd5b9060005260206000200160009250925050505481565b600054610100900460ff16158080156118315750600054600160ff909116105b8061184b5750303b15801561184b575060005460ff166001145b6118ae5760405162461bcd60e51b815260206004820152602e60248201527f496e697469616c697a61626c653a20636f6e747261637420697320616c72656160448201526d191e481a5b9a5d1a585b1a5e995960921b60648201526084016113f1565b6000805460ff1916600117905580156118d1576000805461ff0019166101001790555b6118d9612734565b60a580546001600160401b038e1667ffffffffffffffff19909116179055609d80546001600160a01b038d166001600160a01b031990911617905561193b8a600280546001600160a01b039092166001600160a01b0319909216919091179055565b600380546001600160a01b0319166001600160a01b038b1617905560a8889055600a611970670de0b6b3a7640000600161494e565b61197a91906147ba565b60a95560aa80546001600160a01b03199081166001600160a01b038a81169190911790925560ca8054821689841617905560c68054821688841617905560c78054821687841617905560c88054821686841617905560c980549091169184169190911790556040805160608101909152602a808252614aa560208301398051611a0b9160a691602090910190613af3565b506040518060600160405280602e8152602001614acf602e91398051611a399160a791602090910190613af3565b508015611a80576000805461ff0019169055604051600181527f7f26b83ff96e1f2b6a682f133852f6798a09c465da95921460cefb38474024989060200160405180910390a15b505050505050505050505050565b60c360205282600052604060002060205281600052604060002081815481106117fb57600080fd5b60b854600090815260c0602090815260408083206001600160401b03851684528252918290208054835181840281018401909452808452606093928301828280156111a0576020028201919060005260206000209081548152602001906001019080831161118c5750505050509050919050565b611b32612318565b8151611b459060a6906020850190613af3565b508051611b599060a7906020840190613af3565b505050565b60008060005b60ad54811015611c5357600081815260b160205260408082205460ca54609d5492516370a0823160e01b81526001600160a01b039384166004820152611c3193928316929091169082906370a082319060240160206040518083038186803b158015611bcf57600080fd5b505afa158015611be3573d6000803e3d6000fd5b505050506040513d601f19601f82011682018060405250810190611c07919061426a565b600086815260b160209081526040808320546001600160a01b0316835260b6909152902054610c79565b9050611c3d81846147a2565b9250508080611c4b90614a08565b915050611b64565b50919050565b611c61612318565b609f80546001600160a01b0319166001600160a01b0392909216919091179055565b60b954600090815260c3602090815260408083206001600160401b03851684528252918290208054835181840281018401909452808452606093928301828280156111a0576020028201919060005260206000209081548152602001906001019080831161118c5750505050509050919050565b611cff612318565b6001600160a01b038116611d255760405162461bcd60e51b81526004016113f19061465f565b606a80546001600160a01b0319166001600160a01b0392909216919091179055565b60c160205282600052604060002060205281600052604060002081815481106117fb57600080fd5b60be602052826000526040600020602052816000526040600020818154811061121357600080fd5b60b854600090815260c2602090815260408083206001600160401b03851684528252918290208054835181840281018401909452808452606093928301828280156111a0576020028201919060005260206000209081548152602001906001019080831161118c5750505050509050919050565b60c060205282600052604060002060205281600052604060002081815481106117fb57600080fd5b611e3b612318565b609e80546001600160a01b0319166001600160a01b0392909216919091179055565b60b854600090815260be602090815260408083206001600160401b03851684528252918290208054835181840281018401909452808452606093928301828280156111a057602002820191906000526020600020905b81546001600160a01b03168152600190910190602001808311611eb35750505050509050919050565b60b954600090815260bf602090815260408083206001600160401b03851684528252918290208054835181840281018401909452808452606093928301828280156111a0576020028201919060005260206000209081546001600160a01b03168152600190910190602001808311611eb35750505050509050919050565b60008581526005602052604090205485906001600160a01b03163314611fd35760405162461bcd60e51b815260206004820152602860248201527f536f75726365206d75737420626520746865206f7261636c65206f6620746865604482015267081c995c5d595cdd60c21b60648201526084016113f1565b60008181526005602052604080822080546001600160a01b03191690555182917f7cc135e0cebb02c3480ae5d74d377283180a2601f8f644edf7987b009316c63a91a261202285858585612763565b505050505050565b612032612318565b61203e84848484612763565b50505050565b60bb60205281600052604060002081815481106117a357600080fd5b6001600160a01b0381166120865760405162461bcd60e51b81526004016113f19061465f565b606a546001600160a01b038281169116146120fe5760405162461bcd60e51b815260206004820152603260248201527f50726f706f7361626c654f776e61626c653a206e6577206f776e6572206973206044820152713737ba10383937b837b9b2b21037bbb732b960711b60648201526084016113f1565b6001600160a01b038116331461217c5760405162461bcd60e51b815260206004820152603a60248201527f50726f706f7361626c654f776e61626c653a20746869732063616c6c206d757360448201527f74206265206d61646520627920746865206e6577206f776e657200000000000060648201526084016113f1565b6121858161261f565b50565b600080826001600160a01b0316633850c7bd6040518163ffffffff1660e01b815260040160e06040518083038186803b1580156121c457600080fd5b505afa1580156121d8573d6000803e3d6000fd5b505050506040513d601f19601f820116820180604052508101906121fc91906141bf565b509398975050505050505050565b60008061221686613159565b90506001600160801b036001600160a01b0382161161229c5760006122446001600160a01b0383168061494e565b9050836001600160a01b0316856001600160a01b03161061227c57612277600160c01b876001600160801b031683613479565b612294565b61229481876001600160801b0316600160c01b613479565b92505061230f565b60006122bb6001600160a01b0383168068010000000000000000613479565b9050836001600160a01b0316856001600160a01b0316106122f3576122ee600160801b876001600160801b031683613479565b61230b565b61230b81876001600160801b0316600160801b613479565b9250505b50949350505050565b6038546001600160a01b0316331461136c5760405162461bcd60e51b815260206004820181905260248201527f4f776e61626c653a2063616c6c6572206973206e6f7420746865206f776e657260448201526064016113f1565b60008260ff168260ff1611156123a85761238c8383614984565b61239790600a61481d565b6123a190856148c9565b9050611355565b61238c8284614984565b600160b960008282546123c591906147a2565b90915550600090505b60ac5481101561261657600081815260b060209081526040808320805460b1845282852080546001600160a01b0319166001600160a01b03928316908117825583548316875260b586528487205490875260b486528487205582548216865260b285528386205490548216865260b3855283862055905416835260b782528083205460b954845260bd83528184206001600160401b0390911680855292529091205460ff166124e75760b98054600090815260bd602090815260408083206001600160401b038681168086529184528285208054600160ff1990911681179091559554855260bb8452918420805495860181558452919092206004840401805460039094166008026101000a9283021990931691021790555b60b98054600090815260bf602090815260408083206001600160401b03861680855290835281842087855260b0845282852080548254600181810185559388528688200180546001600160a01b0319166001600160a01b039283161790558754875260c18652848720848852865284872082548216885260b687528588205481549485018255908852868820909301929092555416845260b58352818420549454845260c58352818420908452909152812080549091906125a99084906147a2565b909155505060b954600090815260c3602090815260408083206001600160401b03909416835292815282822084835260b08252838320546001600160a01b0316835260b582529282205483546001810185559383529120909101558061260e81614a08565b9150506123ce565b5060ac5460ad55565b603880546001600160a01b038381166001600160a01b0319831681179093556040519116919082907f8be0079c531659141344cd1fd0a4f28419497f9722a3daafe3b4186f6b6457e090600090a35050565b612679613b77565b612681613b77565b610dc08186868661352c565b608083015161269c9083613572565b6080830151611b599082613572565b6004546000906126bc8160016147a2565b600455835160408086015160808701515191516000936320214ca360e11b936126f49386938493923092918a91600191602401614566565b60408051601f198184030181529190526020810180516001600160e01b03166001600160e01b0319909316929092179091529050610c4286838684613589565b600054610100900460ff1661275b5760405162461bcd60e51b81526004016113f1906146af565b61136c6136f6565b60b880548591859185918591600191906000906127819084906147a2565b909155505060ad546127a657600160b960008282546127a091906147a2565b90915550505b60005b8451811015613138578481815181106127c4576127c4614a63565b602002602001015160b0600083815260200190815260200160002060006101000a8154816001600160a01b0302191690836001600160a01b031602179055508060b2600087848151811061281a5761281a614a63565b60200260200101516001600160a01b03166001600160a01b031681526020019081526020016000208190555083818151811061285857612858614a63565b602002602001015160b5600087848151811061287657612876614a63565b60200260200101516001600160a01b03166001600160a01b03168152602001908152602001600020819055508281815181106128b4576128b4614a63565b602002602001015160b660008784815181106128d2576128d2614a63565b60200260200101516001600160a01b03166001600160a01b031681526020019081526020016000208190555081818151811061291057612910614a63565b602002602001015160b7600087848151811061292e5761292e614a63565b60200260200101516001600160a01b03166001600160a01b0316815260200190815260200160002060006101000a8154816001600160401b0302191690836001600160401b0316021790555060bc600060b854815260200190815260200160002060008383815181106129a3576129a3614a63565b6020908102919091018101516001600160401b031682528101919091526040016000205460ff16612ab75760b854600090815260ba6020526040902082518390839081106129f3576129f3614a63565b602002602001015190806001815401808255809150506001900390600052602060002090600491828204019190066008029091909190916101000a8154816001600160401b0302191690836001600160401b03160217905550600160bc600060b85481526020019081526020016000206000848481518110612a7757612a77614a63565b60200260200101516001600160401b03166001600160401b0316815260200190815260200160002060006101000a81548160ff0219169083151502179055505b60be600060b85481526020019081526020016000206000838381518110612ae057612ae0614a63565b60200260200101516001600160401b03166001600160401b03168152602001908152602001600020858281518110612b1a57612b1a614a63565b602090810291909101810151825460018101845560009384528284200180546001600160a01b0319166001600160a01b0390921691909117905560b854825260c09052604081208351909190849084908110612b7857612b78614a63565b60200260200101516001600160401b03166001600160401b03168152602001908152602001600020838281518110612bb257612bb2614a63565b602090810291909101810151825460018101845560009384529190922001558351849082908110612be557612be5614a63565b602002602001015160c4600060b85481526020019081526020016000206000848481518110612c1657612c16614a63565b60200260200101516001600160401b03166001600160401b031681526020019081526020016000206000828254612c4d91906147a2565b909155505060b854600090815260c2602052604081208351909190849084908110612c7a57612c7a614a63565b60200260200101516001600160401b03166001600160401b03168152602001908152602001600020848281518110612cb457612cb4614a63565b6020908102919091018101518254600181018455600093845291909220015560ad5461312657848181518110612cec57612cec614a63565b602002602001015160b1600083815260200190815260200160002060006101000a8154816001600160a01b0302191690836001600160a01b03160217905550838181518110612d3d57612d3d614a63565b602002602001015160b46000878481518110612d5b57612d5b614a63565b60200260200101516001600160a01b03166001600160a01b03168152602001908152602001600020819055508060b36000878481518110612d9e57612d9e614a63565b60200260200101516001600160a01b03166001600160a01b031681526020019081526020016000208190555060bd600060b95481526020019081526020016000206000838381518110612df357612df3614a63565b6020908102919091018101516001600160401b031682528101919091526040016000205460ff16612f0957600160bd600060b95481526020019081526020016000206000848481518110612e4957612e49614a63565b60200260200101516001600160401b03166001600160401b0316815260200190815260200160002060006101000a81548160ff02191690831515021790555060bb600060b9548152602001908152602001600020828281518110612eaf57612eaf614a63565b602002602001015190806001815401808255809150506001900390600052602060002090600491828204019190066008029091909190916101000a8154816001600160401b0302191690836001600160401b031602179055505b60bf600060b95481526020019081526020016000206000838381518110612f3257612f32614a63565b60200260200101516001600160401b03166001600160401b03168152602001908152602001600020858281518110612f6c57612f6c614a63565b602090810291909101810151825460018101845560009384528284200180546001600160a01b0319166001600160a01b0390921691909117905560b954825260c19052604081208351909190849084908110612fca57612fca614a63565b60200260200101516001600160401b03166001600160401b0316815260200190815260200160002083828151811061300457613004614a63565b60209081029190910181015182546001810184556000938452919092200155835184908290811061303757613037614a63565b602002602001015160c5600060b9548152602001908152602001600020600084848151811061306857613068614a63565b60200260200101516001600160401b03166001600160401b03168152602001908152602001600020600082825461309f91906147a2565b909155505060b954600090815260c36020526040812083519091908490849081106130cc576130cc614a63565b60200260200101516001600160401b03166001600160401b0316815260200190815260200160002084828151811061310657613106614a63565b602090810291909101810151825460018101845560009384529190922001555b8061313081614a08565b9150506127a9565b50835160ac5560ad5461314b57835160ad555b50504260ab55505050505050565b60008060008360020b12613170578260020b613178565b8260020b6000035b9050620d89e881111561319e576040516315e4079d60e11b815260040160405180910390fd5b6000600182166131b257600160801b6131c4565b6ffffcb933bd6fad37aa2d162d1a5940015b70ffffffffffffffffffffffffffffffffff16905060028216156131f8576ffff97272373d413259a46990580e213a0260801c5b6004821615613217576ffff2e50f5f656932ef12357cf3c7fdcc0260801c5b6008821615613236576fffe5caca7e10e4e61c3624eaa0941cd00260801c5b6010821615613255576fffcb9843d60f6159c9db58835c9266440260801c5b6020821615613274576fff973b41fa98c081472e6896dfb254c00260801c5b6040821615613293576fff2ea16466c96a3843ec78b326b528610260801c5b60808216156132b2576ffe5dee046a99a2a811c461f1969c30530260801c5b6101008216156132d2576ffcbe86c7900a88aedcffc83b479aa3a40260801c5b6102008216156132f2576ff987a7253ac413176f2b074cf7815e540260801c5b610400821615613312576ff3392b0822b70005940c7a398e4b70f30260801c5b610800821615613332576fe7159475a2c29b7443b29c7fa6e889d90260801c5b611000821615613352576fd097f3bdfd2022b8845ad8f792aa58250260801c5b612000821615613372576fa9f746462d870fdf8a65dc1f90e061e50260801c5b614000821615613392576f70d869a156d2a1b890bb3df62baf32f70260801c5b6180008216156133b2576f31be135f97d08fd981231505542fcfa60260801c5b620100008216156133d3576f09aa508b5b7a84e1c677de54f3e99bc90260801c5b620200008216156133f3576e5d6af8dedb81196699c329225ee6040260801c5b62040000821615613412576d2216e584f5fa1ea926041bedfe980260801c5b6208000082161561342f576b048a170391f7dc42444e8fa20260801c5b60008460020b131561345057806000198161344c5761344c614a4d565b0490505b640100000000810615613464576001613467565b60005b60ff16602082901c0192505050919050565b6000808060001985870985870292508281108382030391505080600014156134b357600084116134a857600080fd5b508290049050611355565b8084116134bf57600080fd5b6000848688096000868103871696879004966002600389028118808a02820302808a02820302808a02820302808a02820302808a02820302808a02909103029181900381900460010186841190950394909402919094039290920491909117919091029150509392505050565b613534613b77565b6135448560800151610100613726565b50508284526001600160a01b03821660208501526001600160e01b031981166040850152835b949350505050565b61357f826003835161378b565b611b598282613892565b6040516bffffffffffffffffffffffff193060601b1660208201526034810184905260009060540160408051808303601f1901815282825280516020918201206000818152600590925291812080546001600160a01b0319166001600160a01b038a1617905590925082917fb5e6e01e79f91267dc17b4e6314d5d4d03593d2ceee0fbb452b750bd70ea5af99190a2600254604051630200057560e51b81526001600160a01b0390911690634000aea09061364c908890879087906004016145ce565b602060405180830381600087803b15801561366657600080fd5b505af115801561367a573d6000803e3d6000fd5b505050506040513d601f19601f8201168201806040525081019061369e919061408b565b61356a5760405162461bcd60e51b815260206004820152602360248201527f756e61626c6520746f207472616e73666572416e6443616c6c20746f206f7261604482015262636c6560e81b60648201526084016113f1565b600054610100900460ff1661371d5760405162461bcd60e51b81526004016113f1906146af565b61136c3361261f565b604080518082019091526060815260006020820152613746602083614a23565b1561376e57613756602083614a23565b61376190602061496d565b61376b90836147a2565b91505b506020828101829052604080518085526000815290920101905290565b6017816001600160401b0316116137af5761203e8360e0600585901b1683176138b9565b60ff816001600160401b0316116137eb576137d5836018611fe0600586901b16176138b9565b5061203e836001600160401b03831660016138de565b61ffff816001600160401b03161161382857613812836019611fe0600586901b16176138b9565b5061203e836001600160401b03831660026138de565b63ffffffff816001600160401b0316116138675761385183601a611fe0600586901b16176138b9565b5061203e836001600160401b03831660046138de565b61387c83601b611fe0600586901b16176138b9565b5061203e836001600160401b03831660086138de565b60408051808201909152606081526000602082015261135583846000015151848551613904565b60408051808201909152606081526000602082015261135583846000015151846139ee565b60408051808201909152606081526000602082015261356a848560000151518585613a4a565b604080518082019091526060815260006020820152825182111561392757600080fd5b602085015161393683866147a2565b111561396957613969856139598760200151878661395491906147a2565b613acb565b61396490600261494e565b613adc565b6000808651805187602083010193508088870111156139885787860182525b505050602084015b602084106139c857805182526139a76020836147a2565b91506139b46020826147a2565b90506139c160208561496d565b9350613990565b51815160001960208690036101000a019081169019919091161790525083949350505050565b60408051808201909152606081526000602082015283602001518310613a2357613a238485602001516002613964919061494e565b835180516020858301018481535080851415613a40576001810182525b5093949350505050565b6040805180820190915260608152600060208201526020850151613a6e85846147a2565b1115613a8257613a828561395986856147a2565b60006001613a9284610100614811565b613a9c919061496d565b9050855183868201018583198251161781525080518487011115613ac05783860181525b509495945050505050565b600081831115611c53575081610c73565b8151613ae88383613726565b5061203e8382613892565b828054613aff906149d3565b90600052602060002090601f016020900481019282613b215760008555613b67565b82601f10613b3a57805160ff1916838001178555613b67565b82800160010185558215613b67579182015b82811115613b67578251825591602001919060010190613b4c565b50613b73929150613bb2565b5090565b6040805160a0810182526000808252602080830182905282840182905260608084018390528451808601909552845283015290608082015290565b5b80821115613b735760008155600101613bb3565b600082601f830112613bd857600080fd5b81356020613bed613be88361477f565b61474f565b80838252828201915082860187848660051b8901011115613c0d57600080fd5b60005b85811015613c35578135613c2381614a8f565b84529284019290840190600101613c10565b5090979650505050505050565b600082601f830112613c5357600080fd5b81356020613c63613be88361477f565b80838252828201915082860187848660051b8901011115613c8357600080fd5b60005b85811015613c3557813584529284019290840190600101613c86565b600082601f830112613cb357600080fd5b81356020613cc3613be88361477f565b80838252828201915082860187848660051b8901011115613ce357600080fd5b60005b85811015613c3557613cf782613d9f565b84529284019290840190600101613ce6565b80518015158114613d1957600080fd5b919050565b600082601f830112613d2f57600080fd5b81356001600160401b03811115613d4857613d48614a79565b613d5b601f8201601f191660200161474f565b818152846020838601011115613d7057600080fd5b816020850160208301376000918101602001919091529392505050565b805161ffff81168114613d1957600080fd5b80356001600160401b0381168114613d1957600080fd5b805169ffffffffffffffffffff81168114613d1957600080fd5b805160ff81168114613d1957600080fd5b600060208284031215613df357600080fd5b813561135581614a8f565b600060208284031215613e1057600080fd5b815161135581614a8f565b600080600060608486031215613e3057600080fd5b8335613e3b81614a8f565b92506020840135613e4b81614a8f565b915060408401356001600160801b0381168114613e6757600080fd5b809150509250925092565b600080600080600060a08688031215613e8a57600080fd5b8535613e9581614a8f565b94506020860135613ea581614a8f565b9350604086013592506060860135613ebc81614a8f565b949793965091946080013592915050565b60008060008060808587031215613ee357600080fd5b8435613eee81614a8f565b93506020850135613efe81614a8f565b93969395505050506040820135916060013590565b60008060408385031215613f2657600080fd5b8235613f3181614a8f565b9150613f3f60208401613d9f565b90509250929050565b60008060008060808587031215613f5e57600080fd5b84356001600160401b0380821115613f7557600080fd5b613f8188838901613bc7565b95506020870135915080821115613f9757600080fd5b613fa388838901613c42565b94506040870135915080821115613fb957600080fd5b613fc588838901613c42565b93506060870135915080821115613fdb57600080fd5b50613fe887828801613ca2565b91505092959194509250565b6000602080838503121561400757600080fd5b82516001600160401b0381111561401d57600080fd5b8301601f8101851361402e57600080fd5b805161403c613be88261477f565b80828252848201915084840188868560051b870101111561405c57600080fd5b600094505b8385101561407f578051835260019490940193918501918501614061565b50979650505050505050565b60006020828403121561409d57600080fd5b61135582613d09565b600080600080600060a086880312156140be57600080fd5b8535945060208601356001600160401b03808211156140dc57600080fd5b6140e889838a01613bc7565b955060408801359150808211156140fe57600080fd5b61410a89838a01613c42565b9450606088013591508082111561412057600080fd5b61412c89838a01613c42565b9350608088013591508082111561414257600080fd5b5061414f88828901613ca2565b9150509295509295909350565b6000806040838503121561416f57600080fd5b82356001600160401b038082111561418657600080fd5b61419286838701613d1e565b935060208501359150808211156141a857600080fd5b506141b585828601613d1e565b9150509250929050565b600080600080600080600060e0888a0312156141da57600080fd5b87516141e581614a8f565b8097505060208801518060020b81146141fd57600080fd5b955061420b60408901613d8d565b945061421960608901613d8d565b935061422760808901613d8d565b925061423560a08901613dd0565b915061424360c08901613d09565b905092959891949750929550565b60006020828403121561426357600080fd5b5035919050565b60006020828403121561427c57600080fd5b5051919050565b6000806040838503121561429657600080fd5b50508035926020909101359150565b600080604083850312156142b857600080fd5b82359150613f3f60208401613d9f565b6000806000606084860312156142dd57600080fd5b833592506142ed60208501613d9f565b9150604084013590509250925092565b60006020828403121561430f57600080fd5b61135582613d9f565b6000806040838503121561432b57600080fd5b61433483613d9f565b9150602083013561434481614a8f565b809150509250929050565b60008060008060008060008060008060006101608c8e03121561437157600080fd5b61437a8c613d9f565b9a5060208c013561438a81614a8f565b995060408c013561439a81614a8f565b985060608c01356143aa81614a8f565b975060808c0135965060a08c01356143c181614a8f565b955060c08c01356143d181614a8f565b945060e08c01356143e181614a8f565b93506101008c01356143f281614a8f565b92506101208c013561440381614a8f565b91506101408c013561441481614a8f565b809150509295989b509295989b9093969950565b60008060006060848603121561443d57600080fd5b61444684613d9f565b9250602084013561445681614a8f565b929592945050506040919091013590565b600080600080600060a0868803121561447f57600080fd5b61448886613db6565b94506020860151935060408601519250606086015191506144ab60808701613db6565b90509295509295909350565b6000602082840312156144c957600080fd5b61135582613dd0565b600081518084526020808501945080840160005b83811015613ac05781516001600160a01b0316875295820195908201906001016144e6565b600081518084526145238160208601602086016149a7565b601f01601f19169290920160200192915050565b600083516145498184602088016149a7565b83519083019061455d8183602088016149a7565b01949350505050565b6001600160a01b0389811682526020820189905260408201889052861660608201526001600160e01b03198516608082015260a0810184905260c0810183905261010060e082018190526000906145bf8382018561450b565b9b9a5050505050505050505050565b60018060a01b0384168152826020820152606060408201526000610dc0606083018461450b565b60208152600061135560208301846144d2565b6020808252825182820181905260009190848201906040850190845b8181101561464057835183529284019291840191600101614624565b50909695505050505050565b602081526000611355602083018461450b565b60208082526030908201527f50726f706f7361626c654f776e61626c653a206e6577206f776e65722069732060408201526f746865207a65726f206164647265737360801b606082015260800190565b6020808252602b908201527f496e697469616c697a61626c653a20636f6e7472616374206973206e6f74206960408201526a6e697469616c697a696e6760a81b606082015260800190565b82815260406020820152600061356a60408301846144d2565b85815284602082015260a06040820152600061473260a08301866144d2565b6001600160a01b0394909416606083015250608001529392505050565b604051601f8201601f191681016001600160401b038111828210171561477757614777614a79565b604052919050565b60006001600160401b0382111561479857614798614a79565b5060051b60200190565b600082198211156147b5576147b5614a37565b500190565b6000826147c9576147c9614a4d565b500490565b600181815b808511156148095781600019048211156147ef576147ef614a37565b808516156147fc57918102915b93841c93908002906147d3565b509250929050565b60006113558383614828565b600061135560ff8416835b60008261483757506001610c73565b8161484457506000610c73565b816001811461485a576002811461486457614880565b6001915050610c73565b60ff84111561487557614875614a37565b50506001821b610c73565b5060208310610133831016604e8410600b84101617156148a3575081810a610c73565b6148ad83836147ce565b80600019048211156148c1576148c1614a37565b029392505050565b60006001600160ff1b03818413828413808216868404861116156148ef576148ef614a37565b600160ff1b600087128281168783058912161561490e5761490e614a37565b6000871292508782058712848416161561492a5761492a614a37565b8785058712818416161561494057614940614a37565b505050929093029392505050565b600081600019048311821515161561496857614968614a37565b500290565b60008282101561497f5761497f614a37565b500390565b600060ff821660ff84168082101561499e5761499e614a37565b90039392505050565b60005b838110156149c25781810151838201526020016149aa565b8381111561203e5750506000910152565b600181811c908216806149e757607f821691505b60208210811415611c5357634e487b7160e01b600052602260045260246000fd5b6000600019821415614a1c57614a1c614a37565b5060010190565b600082614a3257614a32614a4d565b500690565b634e487b7160e01b600052601160045260246000fd5b634e487b7160e01b600052601260045260246000fd5b634e487b7160e01b600052603260045260246000fd5b634e487b7160e01b600052604160045260246000fd5b6001600160a01b038116811461218557600080fdfe68747470733a2f2f6170702e6e65786c6162732e696f2f6170692f616c6c46756e64696e6752617465733f6d756c7469706c7946756e633d31382674696d65734e656746756e643d74727565266172726179733d74727565a26469706673582212200486e149a5946abdc0a918ea5043418f529fbd99596d44bc47b9c315cc5fdf1e64736f6c63430008070033","linkReferences":{}},"methodIdentifiers":{"allCurrentChainSelectorTokenShares(uint64)":"af696b34","allCurrentChainSelectorTokens(uint64)":"d1c68aa3","allCurrentChainSelectorVersions(uint64)":"221f3371","allOracleChainSelectorTokenShares(uint64)":"bf0d49c0","allOracleChainSelectorTokens(uint64)":"d050ca7c","allOracleChainSelectorVersions(uint64)":"a1adff88","concatenation(string,string)":"0e329357","crossChainFactoryBySelector(uint64)":"340fbc74","crossChainToken(uint64)":"19da7e2a","crossChainTokenSwapVersion(uint64,address)":"174cbe50","currentChainSelector()":"3d54cb6f","currentChainSelectorTokenShares(uint256,uint64,uint256)":"9f91affc","currentChainSelectorTokens(uint256,uint64,uint256)":"271b5fcc","currentChainSelectorTokensCount(uint64)":"b6ad185b","currentChainSelectorTotalShares(uint256,uint64)":"44fd376f","currentChainSelectorVersions(uint256,uint64,uint256)":"bb0ed513","currentChainSelectors(uint256,uint256)":"db561922","currentChainSelectorsCount()":"69487b1c","currentFilledCount()":"b90b8a2a","currentList(uint256)":"9932ba4c","estimateAmountOut(address,address,uint128)":"0456f9c8","externalJobId()":"a8b54bd4","factoryV2()":"68e0d4e1","factoryV3()":"1d5f45f5","feeRate()":"978bbdb9","fulfillAssetsData(bytes32,address[],uint256[],uint256[],uint64[])":"d1db5984","getAmountOut(address,address,uint256,uint256)":"13cb1f83","getPortfolioBalance()":"a8509fd8","indexFactory()":"e3fd0af2","indexFactoryBalancer()":"29d75de9","indexToken()":"e7d015f2","initialize(uint64,address,address,address,bytes32,address,address,address,address,address,address)":"9ebe560e","isCurrentChainSelectorStored(uint256,uint64)":"2585dd26","isOracleChainSelectorStored(uint256,uint64)":"3ff34ef4","lastUpdateTime()":"c8f33c91","latestFeeUpdate()":"011ced5f","mockFillAssetsList(address[],uint256[],uint256[],uint64[])":"d7eefdaa","mockUpdateCurrentList()":"4f9641b9","oracleChainSelectorTokenShares(uint256,uint64,uint256)":"9c8bbe8f","oracleChainSelectorTokens(uint256,uint64,uint256)":"bd96993c","oracleChainSelectorTokensCount(uint64)":"fc698b4a","oracleChainSelectorTotalShares(uint256,uint64)":"77b2688f","oracleChainSelectorVersions(uint256,uint64,uint256)":"cf095239","oracleChainSelectors(uint256,uint256)":"95a7e2b3","oracleChainSelectorsCount()":"8e9d7c18","oracleFilledCount()":"f1581787","oracleList(uint256)":"239aad0d","oraclePayment()":"0c02e130","owner()":"8da5cb5b","priceInWei()":"3c8da588","proposeOwner(address)":"b5ed298a","proposedOwner()":"d153b60c","quoter()":"c6bbd5a7","renounceOwnership()":"715018a6","requestAssetsData()":"7ca58c55","setCrossChainFactory(address,uint64)":"271040df","setCrossChainToken(uint64,address,uint256)":"195c4913","setIndexFactory(address)":"d047937f","setIndexFactoryBalancer(address)":"ae214f39","setPriceFeed(address)":"724e78da","setUrl(string,string)":"a73e1cbf","swap(address,address,uint256,address,uint256)":"17d88f46","swapRouterV2()":"744fbc7a","swapRouterV3()":"b631e80b","toUsdPriceFeed()":"63973fda","tokenChainSelector(address)":"ea8ecf04","tokenCurrentListIndex(address)":"914f0cc6","tokenCurrentMarketShare(address)":"0be52713","tokenOracleListIndex(address)":"8c88c10c","tokenOracleMarketShare(address)":"4b3e0b80","tokenSwapVersion(address)":"d90bc211","totalCurrentChainSelectors()":"92e410ce","totalCurrentList()":"53fd4332","totalOracleChainSelectors()":"80acffa3","totalOracleList()":"c8599ded","transferOwnership(address)":"f2fde38b","updateCurrentList()":"8baa6bf1","weth()":"3fc8cef3"},"id":5}