{"abi":[{"type":"function","name":"acceptOwnership","inputs":[],"outputs":[],"stateMutability":"nonpayable"},{"type":"function","name":"allCurrentChainSelectorTokenShares","inputs":[{"name":"_chainSelector","type":"uint64","internalType":"uint64"}],"outputs":[{"name":"","type":"uint256[]","internalType":"uint256[]"}],"stateMutability":"view"},{"type":"function","name":"allCurrentChainSelectorTokens","inputs":[{"name":"_chainSelector","type":"uint64","internalType":"uint64"}],"outputs":[{"name":"tokens","type":"address[]","internalType":"address[]"}],"stateMutability":"view"},{"type":"function","name":"allCurrentChainSelectorVersions","inputs":[{"name":"_chainSelector","type":"uint64","internalType":"uint64"}],"outputs":[{"name":"versions","type":"uint256[]","internalType":"uint256[]"}],"stateMutability":"view"},{"type":"function","name":"allOracleChainSelectorTokenShares","inputs":[{"name":"_chainSelector","type":"uint64","internalType":"uint64"}],"outputs":[{"name":"","type":"uint256[]","internalType":"uint256[]"}],"stateMutability":"view"},{"type":"function","name":"allOracleChainSelectorTokens","inputs":[{"name":"_chainSelector","type":"uint64","internalType":"uint64"}],"outputs":[{"name":"tokens","type":"address[]","internalType":"address[]"}],"stateMutability":"view"},{"type":"function","name":"allOracleChainSelectorVersions","inputs":[{"name":"_chainSelector","type":"uint64","internalType":"uint64"}],"outputs":[{"name":"versions","type":"uint256[]","internalType":"uint256[]"}],"stateMutability":"view"},{"type":"function","name":"concatenation","inputs":[{"name":"a","type":"string","internalType":"string"},{"name":"b","type":"string","internalType":"string"}],"outputs":[{"name":"","type":"string","internalType":"string"}],"stateMutability":"pure"},{"type":"function","name":"crossChainFactoryBySelector","inputs":[{"name":"","type":"uint64","internalType":"uint64"}],"outputs":[{"name":"","type":"address","internalType":"address"}],"stateMutability":"view"},{"type":"function","name":"crossChainToken","inputs":[{"name":"","type":"uint64","internalType":"uint64"}],"outputs":[{"name":"","type":"address","internalType":"address"}],"stateMutability":"view"},{"type":"function","name":"crossChainTokenSwapFee","inputs":[{"name":"","type":"uint64","internalType":"uint64"},{"name":"","type":"address","internalType":"address"}],"outputs":[{"name":"","type":"uint24","internalType":"uint24"}],"stateMutability":"view"},{"type":"function","name":"currentChainSelector","inputs":[],"outputs":[{"name":"","type":"uint64","internalType":"uint64"}],"stateMutability":"view"},{"type":"function","name":"currentChainSelectorTokensCount","inputs":[{"name":"_chainSelector","type":"uint64","internalType":"uint64"}],"outputs":[{"name":"","type":"uint256","internalType":"uint256"}],"stateMutability":"view"},{"type":"function","name":"currentChainSelectorsCount","inputs":[],"outputs":[{"name":"","type":"uint256","internalType":"uint256"}],"stateMutability":"view"},{"type":"function","name":"currentFilledCount","inputs":[],"outputs":[{"name":"","type":"uint256","internalType":"uint256"}],"stateMutability":"view"},{"type":"function","name":"currentList","inputs":[{"name":"","type":"uint256","internalType":"uint256"}],"outputs":[{"name":"","type":"address","internalType":"address"}],"stateMutability":"view"},{"type":"function","name":"donId","inputs":[],"outputs":[{"name":"","type":"bytes32","internalType":"bytes32"}],"stateMutability":"view"},{"type":"function","name":"estimateAmountOut","inputs":[{"name":"tokenIn","type":"address","internalType":"address"},{"name":"tokenOut","type":"address","internalType":"address"},{"name":"amountIn","type":"uint128","internalType":"uint128"},{"name":"fee","type":"uint24","internalType":"uint24"}],"outputs":[{"name":"amountOut","type":"uint256","internalType":"uint256"}],"stateMutability":"view"},{"type":"function","name":"factoryV2","inputs":[],"outputs":[{"name":"","type":"address","internalType":"contract IUniswapV2Factory"}],"stateMutability":"view"},{"type":"function","name":"factoryV3","inputs":[],"outputs":[{"name":"","type":"address","internalType":"contract IUniswapV3Factory"}],"stateMutability":"view"},{"type":"function","name":"feeRate","inputs":[],"outputs":[{"name":"","type":"uint8","internalType":"uint8"}],"stateMutability":"view"},{"type":"function","name":"functionsRouterAddress","inputs":[],"outputs":[{"name":"","type":"address","internalType":"address"}],"stateMutability":"view"},{"type":"function","name":"getAmountOut","inputs":[{"name":"tokenIn","type":"address","internalType":"address"},{"name":"tokenOut","type":"address","internalType":"address"},{"name":"amountIn","type":"uint256","internalType":"uint256"},{"name":"_swapFee","type":"uint24","internalType":"uint24"}],"outputs":[{"name":"finalAmountOutValue","type":"uint256","internalType":"uint256"}],"stateMutability":"view"},{"type":"function","name":"getCurrentChainSelectorTotalShares","inputs":[{"name":"index","type":"uint256","internalType":"uint256"},{"name":"chainSelector","type":"uint64","internalType":"uint64"}],"outputs":[{"name":"","type":"uint256","internalType":"uint256"}],"stateMutability":"view"},{"type":"function","name":"getCurrentData","inputs":[{"name":"index","type":"uint256","internalType":"uint256"}],"outputs":[{"name":"tokens","type":"address[]","internalType":"address[]"},{"name":"marketShares","type":"uint256[]","internalType":"uint256[]"},{"name":"swapFees","type":"uint24[]","internalType":"uint24[]"},{"name":"chainSelectors","type":"uint64[]","internalType":"uint64[]"}],"stateMutability":"view"},{"type":"function","name":"getOracleChainSelectorTotalShares","inputs":[{"name":"index","type":"uint256","internalType":"uint256"},{"name":"chainSelector","type":"uint64","internalType":"uint64"}],"outputs":[{"name":"","type":"uint256","internalType":"uint256"}],"stateMutability":"view"},{"type":"function","name":"getOracleData","inputs":[{"name":"index","type":"uint256","internalType":"uint256"}],"outputs":[{"name":"tokens","type":"address[]","internalType":"address[]"},{"name":"marketShares","type":"uint256[]","internalType":"uint256[]"},{"name":"swapFees","type":"uint256[]","internalType":"uint256[]"},{"name":"chainSelectors","type":"uint64[]","internalType":"uint64[]"}],"stateMutability":"view"},{"type":"function","name":"getPortfolioBalance","inputs":[],"outputs":[{"name":"","type":"uint256","internalType":"uint256"}],"stateMutability":"view"},{"type":"function","name":"handleOracleFulfillment","inputs":[{"name":"requestId","type":"bytes32","internalType":"bytes32"},{"name":"response","type":"bytes","internalType":"bytes"},{"name":"err","type":"bytes","internalType":"bytes"}],"outputs":[],"stateMutability":"nonpayable"},{"type":"function","name":"indexFactory","inputs":[],"outputs":[{"name":"","type":"address","internalType":"address"}],"stateMutability":"view"},{"type":"function","name":"indexFactoryBalancer","inputs":[],"outputs":[{"name":"","type":"address","internalType":"address"}],"stateMutability":"view"},{"type":"function","name":"indexToken","inputs":[],"outputs":[{"name":"","type":"address","internalType":"contract IndexToken"}],"stateMutability":"view"},{"type":"function","name":"initialize","inputs":[{"name":"_currentChainSelector","type":"uint64","internalType":"uint64"},{"name":"_token","type":"address","internalType":"address payable"},{"name":"_chainlinkToken","type":"address","internalType":"address"},{"name":"_functionsRouterAddress","type":"address","internalType":"address"},{"name":"_newDonId","type":"bytes32","internalType":"bytes32"},{"name":"_toUsdPriceFeed","type":"address","internalType":"address"},{"name":"_weth","type":"address","internalType":"address"},{"name":"_swapRouterV3","type":"address","internalType":"address"},{"name":"_factoryV3","type":"address","internalType":"address"},{"name":"_swapRouterV2","type":"address","internalType":"address"},{"name":"_factoryV2","type":"address","internalType":"address"}],"outputs":[],"stateMutability":"nonpayable"},{"type":"function","name":"lastUpdateTime","inputs":[],"outputs":[{"name":"","type":"uint256","internalType":"uint256"}],"stateMutability":"view"},{"type":"function","name":"latestFeeUpdate","inputs":[],"outputs":[{"name":"","type":"uint256","internalType":"uint256"}],"stateMutability":"view"},{"type":"function","name":"mockFillAssetsList","inputs":[{"name":"_tokens","type":"address[]","internalType":"address[]"},{"name":"_marketShares","type":"uint256[]","internalType":"uint256[]"},{"name":"_swapFees","type":"uint24[]","internalType":"uint24[]"},{"name":"_chainSelectors","type":"uint64[]","internalType":"uint64[]"}],"outputs":[],"stateMutability":"nonpayable"},{"type":"function","name":"mockUpdateCurrentList","inputs":[],"outputs":[],"stateMutability":"nonpayable"},{"type":"function","name":"oracleChainSelectorTokensCount","inputs":[{"name":"_chainSelector","type":"uint64","internalType":"uint64"}],"outputs":[{"name":"","type":"uint256","internalType":"uint256"}],"stateMutability":"view"},{"type":"function","name":"oracleChainSelectorsCount","inputs":[],"outputs":[{"name":"","type":"uint256","internalType":"uint256"}],"stateMutability":"view"},{"type":"function","name":"oracleFilledCount","inputs":[],"outputs":[{"name":"","type":"uint256","internalType":"uint256"}],"stateMutability":"view"},{"type":"function","name":"oracleList","inputs":[{"name":"","type":"uint256","internalType":"uint256"}],"outputs":[{"name":"","type":"address","internalType":"address"}],"stateMutability":"view"},{"type":"function","name":"owner","inputs":[],"outputs":[{"name":"","type":"address","internalType":"address"}],"stateMutability":"view"},{"type":"function","name":"priceInWei","inputs":[],"outputs":[{"name":"","type":"uint256","internalType":"uint256"}],"stateMutability":"view"},{"type":"function","name":"priceOracle","inputs":[],"outputs":[{"name":"","type":"address","internalType":"address"}],"stateMutability":"view"},{"type":"function","name":"quoter","inputs":[],"outputs":[{"name":"","type":"address","internalType":"contract IQuoter"}],"stateMutability":"view"},{"type":"function","name":"requestAssetsData","inputs":[{"name":"source","type":"string","internalType":"string"},{"name":"encryptedSecretsReference","type":"bytes","internalType":"bytes"},{"name":"args","type":"string[]","internalType":"string[]"},{"name":"bytesArgs","type":"bytes[]","internalType":"bytes[]"},{"name":"subscriptionId","type":"uint64","internalType":"uint64"},{"name":"callbackGasLimit","type":"uint32","internalType":"uint32"}],"outputs":[{"name":"","type":"bytes32","internalType":"bytes32"}],"stateMutability":"nonpayable"},{"type":"function","name":"setCrossChainFactory","inputs":[{"name":"_crossChainFactoryAddress","type":"address","internalType":"address"},{"name":"_chainSelector","type":"uint64","internalType":"uint64"}],"outputs":[],"stateMutability":"nonpayable"},{"type":"function","name":"setCrossChainToken","inputs":[{"name":"_chainSelector","type":"uint64","internalType":"uint64"},{"name":"_crossChainToken","type":"address","internalType":"address"},{"name":"_swapFee","type":"uint24","internalType":"uint24"}],"outputs":[],"stateMutability":"nonpayable"},{"type":"function","name":"setDonId","inputs":[{"name":"newDonId","type":"bytes32","internalType":"bytes32"}],"outputs":[],"stateMutability":"nonpayable"},{"type":"function","name":"setIndexFactory","inputs":[{"name":"_indexFactory","type":"address","internalType":"address"}],"outputs":[],"stateMutability":"nonpayable"},{"type":"function","name":"setIndexFactoryBalancer","inputs":[{"name":"_indexFactoryBalancer","type":"address","internalType":"address"}],"outputs":[],"stateMutability":"nonpayable"},{"type":"function","name":"setPriceFeed","inputs":[{"name":"_toUsdPricefeed","type":"address","internalType":"address"}],"outputs":[],"stateMutability":"nonpayable"},{"type":"function","name":"setPriceOracle","inputs":[{"name":"_priceOracle","type":"address","internalType":"address"}],"outputs":[],"stateMutability":"nonpayable"},{"type":"function","name":"setUrl","inputs":[{"name":"_beforeAddress","type":"string","internalType":"string"},{"name":"_afterAddress","type":"string","internalType":"string"}],"outputs":[],"stateMutability":"nonpayable"},{"type":"function","name":"setVault","inputs":[{"name":"_vaultAddress","type":"address","internalType":"address"}],"outputs":[],"stateMutability":"nonpayable"},{"type":"function","name":"swapRouterV2","inputs":[],"outputs":[{"name":"","type":"address","internalType":"contract IUniswapV2Router02"}],"stateMutability":"view"},{"type":"function","name":"swapRouterV3","inputs":[],"outputs":[{"name":"","type":"address","internalType":"contract ISwapRouter"}],"stateMutability":"view"},{"type":"function","name":"toUsdPriceFeed","inputs":[],"outputs":[{"name":"","type":"address","internalType":"contract AggregatorV3Interface"}],"stateMutability":"view"},{"type":"function","name":"tokenChainSelector","inputs":[{"name":"","type":"address","internalType":"address"}],"outputs":[{"name":"","type":"uint64","internalType":"uint64"}],"stateMutability":"view"},{"type":"function","name":"tokenCurrentListIndex","inputs":[{"name":"","type":"address","internalType":"address"}],"outputs":[{"name":"","type":"uint256","internalType":"uint256"}],"stateMutability":"view"},{"type":"function","name":"tokenCurrentMarketShare","inputs":[{"name":"","type":"address","internalType":"address"}],"outputs":[{"name":"","type":"uint256","internalType":"uint256"}],"stateMutability":"view"},{"type":"function","name":"tokenOracleListIndex","inputs":[{"name":"","type":"address","internalType":"address"}],"outputs":[{"name":"","type":"uint256","internalType":"uint256"}],"stateMutability":"view"},{"type":"function","name":"tokenOracleMarketShare","inputs":[{"name":"","type":"address","internalType":"address"}],"outputs":[{"name":"","type":"uint256","internalType":"uint256"}],"stateMutability":"view"},{"type":"function","name":"tokenSwapFee","inputs":[{"name":"","type":"address","internalType":"address"}],"outputs":[{"name":"","type":"uint24","internalType":"uint24"}],"stateMutability":"view"},{"type":"function","name":"totalCurrentChainSelectors","inputs":[],"outputs":[{"name":"","type":"uint256","internalType":"uint256"}],"stateMutability":"view"},{"type":"function","name":"totalCurrentList","inputs":[],"outputs":[{"name":"","type":"uint256","internalType":"uint256"}],"stateMutability":"view"},{"type":"function","name":"totalOracleChainSelectors","inputs":[],"outputs":[{"name":"","type":"uint256","internalType":"uint256"}],"stateMutability":"view"},{"type":"function","name":"totalOracleList","inputs":[],"outputs":[{"name":"","type":"uint256","internalType":"uint256"}],"stateMutability":"view"},{"type":"function","name":"transferOwnership","inputs":[{"name":"to","type":"address","internalType":"address"}],"outputs":[],"stateMutability":"nonpayable"},{"type":"function","name":"updateCurrentList","inputs":[],"outputs":[],"stateMutability":"nonpayable"},{"type":"function","name":"vault","inputs":[],"outputs":[{"name":"","type":"address","internalType":"contract Vault"}],"stateMutability":"view"},{"type":"function","name":"weth","inputs":[],"outputs":[{"name":"","type":"address","internalType":"contract IWETH"}],"stateMutability":"view"},{"type":"event","name":"Initialized","inputs":[{"name":"version","type":"uint8","indexed":false,"internalType":"uint8"}],"anonymous":false},{"type":"event","name":"OwnershipTransferRequested","inputs":[{"name":"from","type":"address","indexed":true,"internalType":"address"},{"name":"to","type":"address","indexed":true,"internalType":"address"}],"anonymous":false},{"type":"event","name":"OwnershipTransferred","inputs":[{"name":"from","type":"address","indexed":true,"internalType":"address"},{"name":"to","type":"address","indexed":true,"internalType":"address"}],"anonymous":false},{"type":"event","name":"RequestFulfilled","inputs":[{"name":"id","type":"bytes32","indexed":true,"internalType":"bytes32"}],"anonymous":false},{"type":"event","name":"RequestSent","inputs":[{"name":"id","type":"bytes32","indexed":true,"internalType":"bytes32"}],"anonymous":false},{"type":"error","name":"EmptyArgs","inputs":[]},{"type":"error","name":"EmptySource","inputs":[]},{"type":"error","name":"NoInlineSecrets","inputs":[]},{"type":"error","name":"OnlyRouterCanFulfill","inputs":[]}],"bytecode":{"object":"0x6080604052348015600e575f80fd5b506186eb8061001c5f395ff3fe608060405234801561000f575f80fd5b5060043610610426575f3560e01c80638c88c10c11610229578063c6bbd5a71161012e578063e3fd0af2116100b6578063f0cd5b7211610085578063f0cd5b7214610d8c578063f158178714610da8578063f2fde38b14610dc6578063fbfa77cf14610de2578063fc698b4a14610e0057610426565b8063e3fd0af214610cf0578063e7d015f214610d0e578063ea8ecf0414610d2c578063ee7bd3e214610d5c57610426565b8063d050ca7c116100fd578063d050ca7c14610c0f578063d1c68aa314610c3f578063d3f7f26614610c6f578063dd811ac914610ca2578063e3c9104314610cd257610426565b8063c6bbd5a714610b99578063c8599ded14610bb7578063c8f33c9114610bd5578063d047937f14610bf357610426565b8063a1adff88116101b1578063af696b3411610180578063af696b3414610acd578063b631e80b14610afd578063b6ad185b14610b1b578063b90b8a2a14610b4b578063bf0d49c014610b6957610426565b8063a1adff8814610a47578063a73e1cbf14610a77578063a8509fd814610a93578063ae214f3914610ab157610426565b8063914f0cc6116101f8578063914f0cc61461098f57806392e410ce146109bf578063978bbdb9146109dd5780639932ba4c146109fb5780639ebe560e14610a2b57610426565b80638c88c10c146109055780638da5cb5b146109355780638dbe7b9d146109535780638e9d7c181461097157610426565b80634b3e0b801161032f57806369487b1c116102b757806379ba50971161028657806379ba50971461088757806380acffa3146108915780638baa6bf1146108af5780638bb8f1bb146108b95780638c03c55a146108d557610426565b806369487b1c14610813578063724e78da14610831578063744fbc7a1461084d57806378ca5de71461086b57610426565b806353fd4332116102fe57806353fd43321461076d57806363973fda1461078b578063652354ae146107a95780636817031b146107d957806368e0d4e1146107f557610426565b80634b3e0b80146106e45780634f9641b914610714578063530e784f1461071e578063536e3f6a1461073a57610426565b80632630c12f116103b25780633259966511610381578063325996651461062a578063340fbc741461065a5780633c8da5881461068a5780633d54cb6f146106a85780633fc8cef3146106c657610426565b80632630c12f146105a2578063271040df146105c057806329d75de9146105dc5780632a3ff8ad146105fa57610426565b806319da7e2a116103f957806319da7e2a146104c45780631d5f45f5146104f45780631dce3de814610512578063221f337114610542578063239aad0d1461057257610426565b8063011ced5f1461042a5780630be52713146104485780630ca76175146104785780630e32935714610494575b5f80fd5b610432610e30565b60405161043f91906155a1565b60405180910390f35b610462600480360381019061045d9190615625565b610e36565b60405161046f91906155a1565b60405180910390f35b610492600480360381019061048d91906157bf565b610e4b565b005b6104ae60048036038101906104a991906158e5565b610f0e565b6040516104bb91906159bb565b60405180910390f35b6104de60048036038101906104d99190615a18565b610f3a565b6040516104eb9190615a52565b60405180910390f35b6104fc610f6a565b6040516105099190615ac6565b60405180910390f35b61052c60048036038101906105279190615b09565b610f8f565b60405161053991906155a1565b60405180910390f35b61055c60048036038101906105579190615a18565b610fd0565b6040516105699190615bfe565b60405180910390f35b61058c60048036038101906105879190615c1e565b61105f565b6040516105999190615a52565b60405180910390f35b6105aa61108f565b6040516105b79190615a52565b60405180910390f35b6105da60048036038101906105d59190615c49565b6110b5565b005b6105e4611124565b6040516105f19190615a52565b60405180910390f35b610614600480360381019061060f9190615b09565b611149565b60405161062191906155a1565b60405180910390f35b610644600480360381019061063f9190615625565b61118a565b6040516106519190615ca4565b60405180910390f35b610674600480360381019061066f9190615a18565b6111a9565b6040516106819190615a52565b60405180910390f35b6106926111d9565b60405161069f91906155a1565b60405180910390f35b6106b0611316565b6040516106bd9190615ccc565b60405180910390f35b6106ce61132f565b6040516106db9190615d05565b60405180910390f35b6106fe60048036038101906106f99190615625565b611354565b60405161070b91906155a1565b60405180910390f35b61071c611369565b005b61073860048036038101906107339190615625565b61137b565b005b610754600480360381019061074f9190615c1e565b611435565b6040516107649493929190615e8c565b60405180910390f35b610775611616565b60405161078291906155a1565b60405180910390f35b61079361161c565b6040516107a09190615f0b565b60405180910390f35b6107c360048036038101906107be9190615f24565b611641565b6040516107d09190615ca4565b60405180910390f35b6107f360048036038101906107ee9190615625565b61166d565b005b6107fd6116b8565b60405161080a9190615f82565b60405180910390f35b61081b6116dd565b60405161082891906155a1565b60405180910390f35b61084b60048036038101906108469190615625565b6116fd565b005b6108556117b6565b6040516108629190615fbb565b60405180910390f35b61088560048036038101906108809190615fd4565b6117db565b005b61088f6117ed565b005b61089961197e565b6040516108a691906155a1565b60405180910390f35b6108b7611984565b005b6108d360048036038101906108ce919061632d565b611a1d565b005b6108ef60048036038101906108ea9190616592565b611a37565b6040516108fc91906166ab565b60405180910390f35b61091f600480360381019061091a9190615625565b611b94565b60405161092c91906155a1565b60405180910390f35b61093d611ba9565b60405161094a9190615a52565b60405180910390f35b61095b611bd1565b60405161096891906166ab565b60405180910390f35b610979611bd7565b60405161098691906155a1565b60405180910390f35b6109a960048036038101906109a49190615625565b611bf7565b6040516109b691906155a1565b60405180910390f35b6109c7611c0c565b6040516109d491906155a1565b60405180910390f35b6109e5611c12565b6040516109f291906166df565b60405180910390f35b610a156004803603810190610a109190615c1e565b611c24565b604051610a229190615a52565b60405180910390f35b610a456004803603810190610a409190616733565b611c54565b005b610a616004803603810190610a5c9190615a18565b61248c565b604051610a6e9190615bfe565b60405180910390f35b610a916004803603810190610a8c91906158e5565b61251b565b005b610a9b612547565b604051610aa891906155a1565b60405180910390f35b610acb6004803603810190610ac69190615625565b61271c565b005b610ae76004803603810190610ae29190615a18565b612767565b604051610af49190615bfe565b60405180910390f35b610b056127f6565b604051610b129190616840565b60405180910390f35b610b356004803603810190610b309190615a18565b61281b565b604051610b4291906155a1565b60405180910390f35b610b53612860565b604051610b6091906155a1565b60405180910390f35b610b836004803603810190610b7e9190615a18565b612866565b604051610b909190615bfe565b60405180910390f35b610ba16128f5565b604051610bae9190616879565b60405180910390f35b610bbf61291a565b604051610bcc91906155a1565b60405180910390f35b610bdd612920565b604051610bea91906155a1565b60405180910390f35b610c0d6004803603810190610c089190615625565b612926565b005b610c296004803603810190610c249190615a18565b612971565b604051610c369190616892565b60405180910390f35b610c596004803603810190610c549190615a18565b612a35565b604051610c669190616892565b60405180910390f35b610c896004803603810190610c849190615c1e565b612af9565b604051610c999493929190616969565b60405180910390f35b610cbc6004803603810190610cb791906169c8565b612d03565b604051610cc991906155a1565b60405180910390f35b610cda612ee6565b604051610ce79190615a52565b60405180910390f35b610cf8612f0b565b604051610d059190615a52565b60405180910390f35b610d16612f30565b604051610d239190616a5d565b60405180910390f35b610d466004803603810190610d419190615625565b612f55565b604051610d539190615ccc565b60405180910390f35b610d766004803603810190610d719190616abb565b612f79565b604051610d8391906155a1565b60405180910390f35b610da66004803603810190610da19190616b1f565b613047565b005b610db0613133565b604051610dbd91906155a1565b60405180910390f35b610de06004803603810190610ddb9190615625565b613139565b005b610dea61314d565b604051610df79190616b8f565b60405180910390f35b610e1a6004803603810190610e159190615a18565b613172565b604051610e2791906155a1565b60405180910390f35b600a5481565b601a602052805f5260405f205f915090505481565b5f60029054906101000a900473ffffffffffffffffffffffffffffffffffffffff1673ffffffffffffffffffffffffffffffffffffffff163373ffffffffffffffffffffffffffffffffffffffff1614610ed1576040517fc6829f8300000000000000000000000000000000000000000000000000000000815260040160405180910390fd5b610edc8383836131b7565b827f85e1543bf2f84fe80c6badbce3648c8539ad1df4d2b3d822938ca0538be727e660405160405180910390a2505050565b60608282604051602001610f23929190616bec565b604051602081830303815290604052905092915050565b6006602052805f5260405f205f915054906101000a900473ffffffffffffffffffffffffffffffffffffffff1681565b60235f9054906101000a900473ffffffffffffffffffffffffffffffffffffffff1681565b5f60205f8481526020019081526020015f206008015f8367ffffffffffffffff1667ffffffffffffffff1681526020019081526020015f2054905092915050565b606060215f601f5481526020019081526020015f206006015f8367ffffffffffffffff1667ffffffffffffffff1681526020019081526020015f2080548060200260200160405190810160405280929190818152602001828054801561105357602002820191905f5260205f20905b81548152602001906001019080831161103f575b50505050509050919050565b6016602052805f5260405f205f915054906101000a900473ffffffffffffffffffffffffffffffffffffffff1681565b600b60089054906101000a900473ffffffffffffffffffffffffffffffffffffffff1681565b6110bd6132fb565b8160085f8367ffffffffffffffff1667ffffffffffffffff1681526020019081526020015f205f6101000a81548173ffffffffffffffffffffffffffffffffffffffff021916908373ffffffffffffffffffffffffffffffffffffffff1602179055505050565b60055f9054906101000a900473ffffffffffffffffffffffffffffffffffffffff1681565b5f60215f8481526020019081526020015f206008015f8367ffffffffffffffff1667ffffffffffffffff1681526020019081526020015f2054905092915050565b601c602052805f5260405f205f915054906101000a900462ffffff1681565b6008602052805f5260405f205f915054906101000a900473ffffffffffffffffffffffffffffffffffffffff1681565b5f8060105f9054906101000a900473ffffffffffffffffffffffffffffffffffffffff1673ffffffffffffffffffffffffffffffffffffffff1663feaf968c6040518163ffffffff1660e01b815260040160a060405180830381865afa158015611245573d5f803e3d5ffd5b505050506040513d601f19601f820116820180604052508101906112699190616c95565b5050509150505f60105f9054906101000a900473ffffffffffffffffffffffffffffffffffffffff1673ffffffffffffffffffffffffffffffffffffffff1663313ce5676040518163ffffffff1660e01b8152600401602060405180830381865afa1580156112da573d5f803e3d5ffd5b505050506040513d601f19601f820116820180604052508101906112fe9190616d36565b905061130c8282601261338c565b9150819250505090565b600b5f9054906101000a900467ffffffffffffffff1681565b60265f9054906101000a900473ffffffffffffffffffffffffffffffffffffffff1681565b601b602052805f5260405f205f915090505481565b6113716132fb565b6113796133f2565b565b6113836132fb565b5f73ffffffffffffffffffffffffffffffffffffffff168173ffffffffffffffffffffffffffffffffffffffff16036113f1576040517f08c379a00000000000000000000000000000000000000000000000000000000081526004016113e890616dd1565b60405180910390fd5b80600b60086101000a81548173ffffffffffffffffffffffffffffffffffffffff021916908373ffffffffffffffffffffffffffffffffffffffff16021790555050565b6060806060805f60205f8781526020019081526020015f209050805f01816001018260020183600301838054806020026020016040519081016040528092919081815260200182805480156114dc57602002820191905f5260205f20905b815f9054906101000a900473ffffffffffffffffffffffffffffffffffffffff1673ffffffffffffffffffffffffffffffffffffffff1681526020019060010190808311611493575b505050505093508280548060200260200160405190810160405280929190818152602001828054801561152c57602002820191905f5260205f20905b815481526020019060010190808311611518575b505050505092508180548060200260200160405190810160405280929190818152602001828054801561157c57602002820191905f5260205f20905b815481526020019060010190808311611568575b50505050509150808054806020026020016040519081016040528092919081815260200182805480156115ff57602002820191905f5260205f20905f905b82829054906101000a900467ffffffffffffffff1667ffffffffffffffff16815260200190600801906020826007010492830192600103820291508084116115ba5790505b505050505090509450945094509450509193509193565b60135481565b60105f9054906101000a900473ffffffffffffffffffffffffffffffffffffffff1681565b6007602052815f5260405f20602052805f5260405f205f915091509054906101000a900462ffffff1681565b6116756132fb565b8060285f6101000a81548173ffffffffffffffffffffffffffffffffffffffff021916908373ffffffffffffffffffffffffffffffffffffffff16021790555050565b60255f9054906101000a900473ffffffffffffffffffffffffffffffffffffffff1681565b5f60215f601f5481526020019081526020015f2060030180549050905090565b6117056132fb565b5f73ffffffffffffffffffffffffffffffffffffffff168173ffffffffffffffffffffffffffffffffffffffff1603611773576040517f08c379a000000000000000000000000000000000000000000000000000000000815260040161176a90616e5f565b60405180910390fd5b8060105f6101000a81548173ffffffffffffffffffffffffffffffffffffffff021916908373ffffffffffffffffffffffffffffffffffffffff16021790555050565b60245f9054906101000a900473ffffffffffffffffffffffffffffffffffffffff1681565b6117e36132fb565b80600e8190555050565b60025f9054906101000a900473ffffffffffffffffffffffffffffffffffffffff1673ffffffffffffffffffffffffffffffffffffffff163373ffffffffffffffffffffffffffffffffffffffff161461187c576040517f08c379a000000000000000000000000000000000000000000000000000000000815260040161187390616ec7565b60405180910390fd5b5f60015f9054906101000a900473ffffffffffffffffffffffffffffffffffffffff1690503360015f6101000a81548173ffffffffffffffffffffffffffffffffffffffff021916908373ffffffffffffffffffffffffffffffffffffffff1602179055505f60025f6101000a81548173ffffffffffffffffffffffffffffffffffffffff021916908373ffffffffffffffffffffffffffffffffffffffff1602179055503373ffffffffffffffffffffffffffffffffffffffff168173ffffffffffffffffffffffffffffffffffffffff167f8be0079c531659141344cd1fd0a4f28419497f9722a3daafe3b4186f6b6457e060405160405180910390a350565b60145481565b60055f9054906101000a900473ffffffffffffffffffffffffffffffffffffffff1673ffffffffffffffffffffffffffffffffffffffff163373ffffffffffffffffffffffffffffffffffffffff1614611a13576040517f08c379a0000000000000000000000000000000000000000000000000000000008152600401611a0a90616f55565b60405180910390fd5b611a1b6133f2565b565b611a256132fb565b611a3184848484613b20565b50505050565b5f611a406154e2565b611a9a5f808e8e8080601f0160208091040260200160405190810160405280939291908181526020018383808284375f81840152601f19601f82011690508083019250505050505050846146e2909392919063ffffffff16565b600181602001906002811115611ab357611ab2616f73565b5b90816002811115611ac757611ac6616f73565b5b8152505089898080601f0160208091040260200160405190810160405280939291908181526020018383808284375f81840152601f19601f8201169050808301925050505050505081608001819052505f888890501115611b4257611b41888890611b329190617051565b8261478890919063ffffffff16565b5b5f868690501115611b6d57611b6c868690611b5d9190617116565b826147cf90919063ffffffff16565b5b611b83611b7982614816565b8585600e54614c1b565b9150509a9950505050505050505050565b6018602052805f5260405f205f915090505481565b5f60015f9054906101000a900473ffffffffffffffffffffffffffffffffffffffff16905090565b600e5481565b5f60205f601e5481526020019081526020015f2060030180549050905090565b6019602052805f5260405f205f915090505481565b60155481565b60095f9054906101000a900460ff1681565b6017602052805f5260405f205f915054906101000a900473ffffffffffffffffffffffffffffffffffffffff1681565b5f8060019054906101000a900460ff16159050808015611c83575060015f8054906101000a900460ff1660ff16105b80611caf5750611c9230614cfb565b158015611cae575060015f8054906101000a900460ff1660ff16145b5b611cee576040517f08c379a0000000000000000000000000000000000000000000000000000000008152600401611ce59061719a565b60405180910390fd5b60015f806101000a81548160ff021916908360ff1602179055508015611d295760015f60016101000a81548160ff0219169083151502179055505b5f8c67ffffffffffffffff1611611d75576040517f08c379a0000000000000000000000000000000000000000000000000000000008152600401611d6c90617202565b60405180910390fd5b5f73ffffffffffffffffffffffffffffffffffffffff168b73ffffffffffffffffffffffffffffffffffffffff1603611de3576040517f08c379a0000000000000000000000000000000000000000000000000000000008152600401611dda9061726a565b60405180910390fd5b5f73ffffffffffffffffffffffffffffffffffffffff168a73ffffffffffffffffffffffffffffffffffffffff1603611e51576040517f08c379a0000000000000000000000000000000000000000000000000000000008152600401611e48906172d2565b60405180910390fd5b5f73ffffffffffffffffffffffffffffffffffffffff168973ffffffffffffffffffffffffffffffffffffffff1603611ebf576040517f08c379a0000000000000000000000000000000000000000000000000000000008152600401611eb69061733a565b60405180910390fd5b5f8803611f01576040517f08c379a0000000000000000000000000000000000000000000000000000000008152600401611ef8906173a2565b60405180910390fd5b5f73ffffffffffffffffffffffffffffffffffffffff168773ffffffffffffffffffffffffffffffffffffffff1603611f6f576040517f08c379a0000000000000000000000000000000000000000000000000000000008152600401611f669061740a565b60405180910390fd5b5f73ffffffffffffffffffffffffffffffffffffffff168673ffffffffffffffffffffffffffffffffffffffff1603611fdd576040517f08c379a0000000000000000000000000000000000000000000000000000000008152600401611fd490617472565b60405180910390fd5b5f73ffffffffffffffffffffffffffffffffffffffff168573ffffffffffffffffffffffffffffffffffffffff160361204b576040517f08c379a000000000000000000000000000000000000000000000000000000000815260040161204290617500565b60405180910390fd5b5f73ffffffffffffffffffffffffffffffffffffffff168473ffffffffffffffffffffffffffffffffffffffff16036120b9576040517f08c379a00000000000000000000000000000000000000000000000000000000081526004016120b09061758e565b60405180910390fd5b5f73ffffffffffffffffffffffffffffffffffffffff168373ffffffffffffffffffffffffffffffffffffffff1603612127576040517f08c379a000000000000000000000000000000000000000000000000000000000815260040161211e9061761c565b60405180910390fd5b5f73ffffffffffffffffffffffffffffffffffffffff168273ffffffffffffffffffffffffffffffffffffffff1603612195576040517f08c379a000000000000000000000000000000000000000000000000000000000815260040161218c906176aa565b60405180910390fd5b61219e89614d1d565b6121a733614d60565b8b600b5f6101000a81548167ffffffffffffffff021916908367ffffffffffffffff1602179055508a60035f6101000a81548173ffffffffffffffffffffffffffffffffffffffff021916908373ffffffffffffffffffffffffffffffffffffffff16021790555087600e8190555088600f5f6101000a81548173ffffffffffffffffffffffffffffffffffffffff021916908373ffffffffffffffffffffffffffffffffffffffff1602179055508660105f6101000a81548173ffffffffffffffffffffffffffffffffffffffff021916908373ffffffffffffffffffffffffffffffffffffffff1602179055508560265f6101000a81548173ffffffffffffffffffffffffffffffffffffffff021916908373ffffffffffffffffffffffffffffffffffffffff1602179055508460225f6101000a81548173ffffffffffffffffffffffffffffffffffffffff021916908373ffffffffffffffffffffffffffffffffffffffff1602179055508360235f6101000a81548173ffffffffffffffffffffffffffffffffffffffff021916908373ffffffffffffffffffffffffffffffffffffffff1602179055508260245f6101000a81548173ffffffffffffffffffffffffffffffffffffffff021916908373ffffffffffffffffffffffffffffffffffffffff1602179055508160255f6101000a81548173ffffffffffffffffffffffffffffffffffffffff021916908373ffffffffffffffffffffffffffffffffffffffff1602179055506040518060600160405280602a815260200161865e602a9139600c90816123fd91906178b9565b506040518060600160405280602e8152602001618688602e9139600d908161242591906178b9565b50801561247e575f8060016101000a81548160ff0219169083151502179055507f7f26b83ff96e1f2b6a682f133852f6798a09c465da95921460cefb3847402498600160405161247591906179c1565b60405180910390a15b505050505050505050505050565b606060205f601e5481526020019081526020015f206006015f8367ffffffffffffffff1667ffffffffffffffff1681526020019081526020015f2080548060200260200160405190810160405280929190818152602001828054801561250f57602002820191905f5260205f20905b8154815260200190600101908083116124fb575b50505050509050919050565b6125236132fb565b81600c908161253291906178b9565b5080600d908161254291906178b9565b505050565b5f805f5b601354811015612714575f6126f660175f8481526020019081526020015f205f9054906101000a900473ffffffffffffffffffffffffffffffffffffffff1660265f9054906101000a900473ffffffffffffffffffffffffffffffffffffffff1660175f8681526020019081526020015f205f9054906101000a900473ffffffffffffffffffffffffffffffffffffffff1673ffffffffffffffffffffffffffffffffffffffff166370a0823160285f9054906101000a900473ffffffffffffffffffffffffffffffffffffffff166040518263ffffffff1660e01b81526004016126369190615a52565b602060405180830381865afa158015612651573d5f803e3d5ffd5b505050506040513d601f19601f8201168201806040525081019061267591906179da565b601c5f60175f8981526020019081526020015f205f9054906101000a900473ffffffffffffffffffffffffffffffffffffffff1673ffffffffffffffffffffffffffffffffffffffff1673ffffffffffffffffffffffffffffffffffffffff1681526020019081526020015f205f9054906101000a900462ffffff16612d03565b905080836127049190617a32565b925050808060010191505061254b565b508091505090565b6127246132fb565b8060055f6101000a81548173ffffffffffffffffffffffffffffffffffffffff021916908373ffffffffffffffffffffffffffffffffffffffff16021790555050565b606060215f601f5481526020019081526020015f206007015f8367ffffffffffffffff1667ffffffffffffffff1681526020019081526020015f208054806020026020016040519081016040528092919081815260200182805480156127ea57602002820191905f5260205f20905b8154815260200190600101908083116127d6575b50505050509050919050565b60225f9054906101000a900473ffffffffffffffffffffffffffffffffffffffff1681565b5f60215f601f5481526020019081526020015f206005015f8367ffffffffffffffff1667ffffffffffffffff1681526020019081526020015f20805490509050919050565b601f5481565b606060205f601e5481526020019081526020015f206007015f8367ffffffffffffffff1667ffffffffffffffff1681526020019081526020015f208054806020026020016040519081016040528092919081815260200182805480156128e957602002820191905f5260205f20905b8154815260200190600101908083116128d5575b50505050509050919050565b60275f9054906101000a900473ffffffffffffffffffffffffffffffffffffffff1681565b60125481565b60115481565b61292e6132fb565b8060045f6101000a81548173ffffffffffffffffffffffffffffffffffffffff021916908373ffffffffffffffffffffffffffffffffffffffff16021790555050565b606060205f601e5481526020019081526020015f206005015f8367ffffffffffffffff1667ffffffffffffffff1681526020019081526020015f20805480602002602001604051908101604052809291908181526020018280548015612a2957602002820191905f5260205f20905b815f9054906101000a900473ffffffffffffffffffffffffffffffffffffffff1673ffffffffffffffffffffffffffffffffffffffff16815260200190600101908083116129e0575b50505050509050919050565b606060215f601f5481526020019081526020015f206005015f8367ffffffffffffffff1667ffffffffffffffff1681526020019081526020015f20805480602002602001604051908101604052809291908181526020018280548015612aed57602002820191905f5260205f20905b815f9054906101000a900473ffffffffffffffffffffffffffffffffffffffff1673ffffffffffffffffffffffffffffffffffffffff1681526020019060010190808311612aa4575b50505050509050919050565b6060806060805f60215f8781526020019081526020015f209050805f0181600101826002018360030183805480602002602001604051908101604052809291908181526020018280548015612ba057602002820191905f5260205f20905b815f9054906101000a900473ffffffffffffffffffffffffffffffffffffffff1673ffffffffffffffffffffffffffffffffffffffff1681526020019060010190808311612b57575b5050505050935082805480602002602001604051908101604052809291908181526020018280548015612bf057602002820191905f5260205f20905b815481526020019060010190808311612bdc575b5050505050925081805480602002602001604051908101604052809291908181526020018280548015612c6957602002820191905f5260205f20905f905b82829054906101000a900462ffffff1662ffffff1681526020019060030190602082600201049283019260010382029150808411612c2e5790505b5050505050915080805480602002602001604051908101604052809291908181526020018280548015612cec57602002820191905f5260205f20905f905b82829054906101000a900467ffffffffffffffff1667ffffffffffffffff1681526020019060080190602082600701049283019260010382029150808411612ca75790505b505050505090509450945094509450509193509193565b5f805f841115612eda575f8362ffffff161115612d2d57612d2686868686612f79565b9050612ed9565b5f600267ffffffffffffffff811115612d4957612d4861569b565b5b604051908082528060200260200182016040528015612d775781602001602082028036833780820191505090505b50905086815f81518110612d8e57612d8d617a65565b5b602002602001019073ffffffffffffffffffffffffffffffffffffffff16908173ffffffffffffffffffffffffffffffffffffffff16815250508581600181518110612ddd57612ddc617a65565b5b602002602001019073ffffffffffffffffffffffffffffffffffffffff16908173ffffffffffffffffffffffffffffffffffffffff16815250505f60245f9054906101000a900473ffffffffffffffffffffffffffffffffffffffff1673ffffffffffffffffffffffffffffffffffffffff1663d06ca61f87846040518363ffffffff1660e01b8152600401612e74929190617a92565b5f60405180830381865afa158015612e8e573d5f803e3d5ffd5b505050506040513d5f823e3d601f19601f82011682018060405250810190612eb69190617b55565b905080600181518110612ecc57612ecb617a65565b5b6020026020010151925050505b5b80915050949350505050565b600f5f9054906101000a900473ffffffffffffffffffffffffffffffffffffffff1681565b60045f9054906101000a900473ffffffffffffffffffffffffffffffffffffffff1681565b60035f9054906101000a900473ffffffffffffffffffffffffffffffffffffffff1681565b601d602052805f5260405f205f915054906101000a900467ffffffffffffffff1681565b5f600b60089054906101000a900473ffffffffffffffffffffffffffffffffffffffff1673ffffffffffffffffffffffffffffffffffffffff1663bb5705b360235f9054906101000a900473ffffffffffffffffffffffffffffffffffffffff16878787876040518663ffffffff1660e01b8152600401612ffe959493929190617bab565b602060405180830381865afa158015613019573d5f803e3d5ffd5b505050506040513d601f19601f8201168201806040525081019061303d91906179da565b9050949350505050565b61304f6132fb565b8160065f8567ffffffffffffffff1667ffffffffffffffff1681526020019081526020015f205f6101000a81548173ffffffffffffffffffffffffffffffffffffffff021916908373ffffffffffffffffffffffffffffffffffffffff1602179055508060075f8567ffffffffffffffff1667ffffffffffffffff1681526020019081526020015f205f8473ffffffffffffffffffffffffffffffffffffffff1673ffffffffffffffffffffffffffffffffffffffff1681526020019081526020015f205f6101000a81548162ffffff021916908362ffffff160217905550505050565b601e5481565b6131416132fb565b61314a81614d6d565b50565b60285f9054906101000a900473ffffffffffffffffffffffffffffffffffffffff1681565b5f60205f601e5481526020019081526020015f206005015f8367ffffffffffffffff1667ffffffffffffffff1681526020019081526020015f20805490509050919050565b5f805f80858060200190518101906131cf9190617df7565b93509350935093505f84511161321a576040517f08c379a000000000000000000000000000000000000000000000000000000000815260040161321190617f15565b60405180910390fd5b835183511461325e576040517f08c379a000000000000000000000000000000000000000000000000000000000815260040161325590617fa3565b60405180910390fd5b83518251146132a2576040517f08c379a000000000000000000000000000000000000000000000000000000000815260040161329990618031565b60405180910390fd5b83518151146132e6576040517f08c379a00000000000000000000000000000000000000000000000000000000081526004016132dd906180bf565b60405180910390fd5b6132f284848484613b20565b50505050505050565b60015f9054906101000a900473ffffffffffffffffffffffffffffffffffffffff1673ffffffffffffffffffffffffffffffffffffffff163373ffffffffffffffffffffffffffffffffffffffff161461338a576040517f08c379a000000000000000000000000000000000000000000000000000000000815260040161338190618127565b60405180910390fd5b565b5f8260ff168260ff1611156133c55782826133a79190618145565b600a6133b391906182a8565b846133be91906182f2565b90506133eb565b81836133d19190618145565b600a6133dd91906182a8565b846133e891906182f2565b90505b9392505050565b6001601f5f8282546134049190617a32565b925050819055505f5b601254811015613b145760165f8281526020019081526020015f205f9054906101000a900473ffffffffffffffffffffffffffffffffffffffff1660175f8381526020019081526020015f205f6101000a81548173ffffffffffffffffffffffffffffffffffffffff021916908373ffffffffffffffffffffffffffffffffffffffff160217905550601b5f60165f8481526020019081526020015f205f9054906101000a900473ffffffffffffffffffffffffffffffffffffffff1673ffffffffffffffffffffffffffffffffffffffff1673ffffffffffffffffffffffffffffffffffffffff1681526020019081526020015f2054601a5f60175f8581526020019081526020015f205f9054906101000a900473ffffffffffffffffffffffffffffffffffffffff1673ffffffffffffffffffffffffffffffffffffffff1673ffffffffffffffffffffffffffffffffffffffff1681526020019081526020015f208190555060185f60165f8481526020019081526020015f205f9054906101000a900473ffffffffffffffffffffffffffffffffffffffff1673ffffffffffffffffffffffffffffffffffffffff1673ffffffffffffffffffffffffffffffffffffffff1681526020019081526020015f205460195f60175f8581526020019081526020015f205f9054906101000a900473ffffffffffffffffffffffffffffffffffffffff1673ffffffffffffffffffffffffffffffffffffffff1673ffffffffffffffffffffffffffffffffffffffff1681526020019081526020015f20819055505f601d5f60165f8581526020019081526020015f205f9054906101000a900473ffffffffffffffffffffffffffffffffffffffff1673ffffffffffffffffffffffffffffffffffffffff1673ffffffffffffffffffffffffffffffffffffffff1681526020019081526020015f205f9054906101000a900467ffffffffffffffff16905060215f601f5481526020019081526020015f206004015f8267ffffffffffffffff1667ffffffffffffffff1681526020019081526020015f205f9054906101000a900460ff166137dc57600160215f601f5481526020019081526020015f206004015f8367ffffffffffffffff1667ffffffffffffffff1681526020019081526020015f205f6101000a81548160ff02191690831515021790555060215f601f5481526020019081526020015f2060030181908060018154018082558091505060019003905f5260205f2090600491828204019190066008029091909190916101000a81548167ffffffffffffffff021916908367ffffffffffffffff1602179055505b60215f601f5481526020019081526020015f206005015f8267ffffffffffffffff1667ffffffffffffffff1681526020019081526020015f2060165f8481526020019081526020015f205f9054906101000a900473ffffffffffffffffffffffffffffffffffffffff16908060018154018082558091505060019003905f5260205f20015f9091909190916101000a81548173ffffffffffffffffffffffffffffffffffffffff021916908373ffffffffffffffffffffffffffffffffffffffff16021790555060215f601f5481526020019081526020015f206006015f8267ffffffffffffffff1667ffffffffffffffff1681526020019081526020015f20601c5f60165f8681526020019081526020015f205f9054906101000a900473ffffffffffffffffffffffffffffffffffffffff1673ffffffffffffffffffffffffffffffffffffffff1673ffffffffffffffffffffffffffffffffffffffff1681526020019081526020015f205f9054906101000a900462ffffff16908060018154018082558091505060019003905f5260205f20015f909162ffffff16909190915055601b5f60165f8581526020019081526020015f205f9054906101000a900473ffffffffffffffffffffffffffffffffffffffff1673ffffffffffffffffffffffffffffffffffffffff1673ffffffffffffffffffffffffffffffffffffffff1681526020019081526020015f205460215f601f5481526020019081526020015f206008015f8367ffffffffffffffff1667ffffffffffffffff1681526020019081526020015f205f828254613a359190617a32565b9250508190555060215f601f5481526020019081526020015f206007015f8267ffffffffffffffff1667ffffffffffffffff1681526020019081526020015f20601b5f60165f8681526020019081526020015f205f9054906101000a900473ffffffffffffffffffffffffffffffffffffffff1673ffffffffffffffffffffffffffffffffffffffff1673ffffffffffffffffffffffffffffffffffffffff1681526020019081526020015f2054908060018154018082558091505060019003905f5260205f20015f909190919091505550808060010191505061340d565b50601254601381905550565b5f8490505f8490505f8490505f8490506001601e5f828254613b429190617a32565b925050819055505f60135403613b6c576001601f5f828254613b649190617a32565b925050819055505b5f5b84518110156146b657848181518110613b8a57613b89617a65565b5b602002602001015160165f8381526020019081526020015f205f6101000a81548173ffffffffffffffffffffffffffffffffffffffff021916908373ffffffffffffffffffffffffffffffffffffffff1602179055508060185f878481518110613bf757613bf6617a65565b5b602002602001015173ffffffffffffffffffffffffffffffffffffffff1673ffffffffffffffffffffffffffffffffffffffff1681526020019081526020015f2081905550838181518110613c4f57613c4e617a65565b5b6020026020010151601b5f878481518110613c6d57613c6c617a65565b5b602002602001015173ffffffffffffffffffffffffffffffffffffffff1673ffffffffffffffffffffffffffffffffffffffff1681526020019081526020015f2081905550828181518110613cc557613cc4617a65565b5b6020026020010151601c5f878481518110613ce357613ce2617a65565b5b602002602001015173ffffffffffffffffffffffffffffffffffffffff1673ffffffffffffffffffffffffffffffffffffffff1681526020019081526020015f205f6101000a81548162ffffff021916908362ffffff160217905550818181518110613d5257613d51617a65565b5b6020026020010151601d5f878481518110613d7057613d6f617a65565b5b602002602001015173ffffffffffffffffffffffffffffffffffffffff1673ffffffffffffffffffffffffffffffffffffffff1681526020019081526020015f205f6101000a81548167ffffffffffffffff021916908367ffffffffffffffff16021790555060205f601e5481526020019081526020015f206004015f838381518110613e0057613dff617a65565b5b602002602001015167ffffffffffffffff1667ffffffffffffffff1681526020019081526020015f205f9054906101000a900460ff16613f285760205f601e5481526020019081526020015f20600301828281518110613e6357613e62617a65565b5b6020026020010151908060018154018082558091505060019003905f5260205f2090600491828204019190066008029091909190916101000a81548167ffffffffffffffff021916908367ffffffffffffffff160217905550600160205f601e5481526020019081526020015f206004015f848481518110613ee857613ee7617a65565b5b602002602001015167ffffffffffffffff1667ffffffffffffffff1681526020019081526020015f205f6101000a81548160ff0219169083151502179055505b60205f601e5481526020019081526020015f206005015f838381518110613f5257613f51617a65565b5b602002602001015167ffffffffffffffff1667ffffffffffffffff1681526020019081526020015f20858281518110613f8e57613f8d617a65565b5b6020026020010151908060018154018082558091505060019003905f5260205f20015f9091909190916101000a81548173ffffffffffffffffffffffffffffffffffffffff021916908373ffffffffffffffffffffffffffffffffffffffff16021790555060205f601e5481526020019081526020015f206006015f83838151811061401d5761401c617a65565b5b602002602001015167ffffffffffffffff1667ffffffffffffffff1681526020019081526020015f2083828151811061405957614058617a65565b5b6020026020010151908060018154018082558091505060019003905f5260205f20015f909162ffffff1690919091505583818151811061409c5761409b617a65565b5b602002602001015160205f601e5481526020019081526020015f206008015f8484815181106140ce576140cd617a65565b5b602002602001015167ffffffffffffffff1667ffffffffffffffff1681526020019081526020015f205f8282546141059190617a32565b9250508190555060205f601e5481526020019081526020015f206007015f83838151811061413657614135617a65565b5b602002602001015167ffffffffffffffff1667ffffffffffffffff1681526020019081526020015f2084828151811061417257614171617a65565b5b6020026020010151908060018154018082558091505060019003905f5260205f20015f90919091909150555f601354036146a9578481815181106141b9576141b8617a65565b5b602002602001015160175f8381526020019081526020015f205f6101000a81548173ffffffffffffffffffffffffffffffffffffffff021916908373ffffffffffffffffffffffffffffffffffffffff16021790555083818151811061422257614221617a65565b5b6020026020010151601a5f8784815181106142405761423f617a65565b5b602002602001015173ffffffffffffffffffffffffffffffffffffffff1673ffffffffffffffffffffffffffffffffffffffff1681526020019081526020015f20819055508060195f87848151811061429c5761429b617a65565b5b602002602001015173ffffffffffffffffffffffffffffffffffffffff1673ffffffffffffffffffffffffffffffffffffffff1681526020019081526020015f208190555060215f601f5481526020019081526020015f206004015f83838151811061430b5761430a617a65565b5b602002602001015167ffffffffffffffff1667ffffffffffffffff1681526020019081526020015f205f9054906101000a900460ff1661443357600160215f601f5481526020019081526020015f206004015f84848151811061437157614370617a65565b5b602002602001015167ffffffffffffffff1667ffffffffffffffff1681526020019081526020015f205f6101000a81548160ff02191690831515021790555060215f601f5481526020019081526020015f206003018282815181106143d9576143d8617a65565b5b6020026020010151908060018154018082558091505060019003905f5260205f2090600491828204019190066008029091909190916101000a81548167ffffffffffffffff021916908367ffffffffffffffff1602179055505b60215f601f5481526020019081526020015f206005015f83838151811061445d5761445c617a65565b5b602002602001015167ffffffffffffffff1667ffffffffffffffff1681526020019081526020015f2085828151811061449957614498617a65565b5b6020026020010151908060018154018082558091505060019003905f5260205f20015f9091909190916101000a81548173ffffffffffffffffffffffffffffffffffffffff021916908373ffffffffffffffffffffffffffffffffffffffff16021790555060215f601f5481526020019081526020015f206006015f83838151811061452857614527617a65565b5b602002602001015167ffffffffffffffff1667ffffffffffffffff1681526020019081526020015f2083828151811061456457614563617a65565b5b6020026020010151908060018154018082558091505060019003905f5260205f20015f909162ffffff169091909150558381815181106145a7576145a6617a65565b5b602002602001015160215f601f5481526020019081526020015f206008015f8484815181106145d9576145d8617a65565b5b602002602001015167ffffffffffffffff1667ffffffffffffffff1681526020019081526020015f205f8282546146109190617a32565b9250508190555060215f601f5481526020019081526020015f206007015f83838151811061464157614640617a65565b5b602002602001015167ffffffffffffffff1667ffffffffffffffff1681526020019081526020015f2084828151811061467d5761467c617a65565b5b6020026020010151908060018154018082558091505060019003905f5260205f20015f90919091909150555b8080600101915050613b6e565b5083516012819055505f601354036146d15783516013819055505b426011819055505050505050505050565b5f81510361471c576040517f22ce3edd00000000000000000000000000000000000000000000000000000000815260040160405180910390fd5b82845f0190600281111561473357614732616f73565b5b9081600281111561474757614746616f73565b5b815250508184604001905f81111561476257614761616f73565b5b90815f81111561477557614774616f73565b5b8152505080846060018190525050505050565b5f8151036147c2576040517ffe936cb700000000000000000000000000000000000000000000000000000000815260040160405180910390fd5b808260a001819052505050565b5f815103614809576040517ffe936cb700000000000000000000000000000000000000000000000000000000815260040160405180910390fd5b808260c001819052505050565b60605f614824610100614e99565b905061486e6040518060400160405280600c81526020017f636f64654c6f636174696f6e000000000000000000000000000000000000000081525082614ebe90919063ffffffff16565b614896835f0151600281111561488757614886616f73565b5b82614ee690919063ffffffff16565b6148de6040518060400160405280600881526020017f6c616e677561676500000000000000000000000000000000000000000000000081525082614ebe90919063ffffffff16565b61490683604001515f8111156148f7576148f6616f73565b5b82614ee690919063ffffffff16565b61494e6040518060400160405280600681526020017f736f75726365000000000000000000000000000000000000000000000000000081525082614ebe90919063ffffffff16565b614965836060015182614ebe90919063ffffffff16565b5f8360a00151511115614a19576149ba6040518060400160405280600481526020017f617267730000000000000000000000000000000000000000000000000000000081525082614ebe90919063ffffffff16565b6149c381614f35565b5f5b8360a0015151811015614a0e57614a038460a0015182815181106149ec576149eb617a65565b5b602002602001015183614ebe90919063ffffffff16565b8060010190506149c5565b50614a1881614f5d565b5b5f8360800151511115614b58575f6002811115614a3957614a38616f73565b5b83602001516002811115614a5057614a4f616f73565b5b03614a87576040517fa80d31f700000000000000000000000000000000000000000000000000000000815260040160405180910390fd5b614acf6040518060400160405280600f81526020017f736563726574734c6f636174696f6e000000000000000000000000000000000081525082614ebe90919063ffffffff16565b614af883602001516002811115614ae957614ae8616f73565b5b82614ee690919063ffffffff16565b614b406040518060400160405280600781526020017f736563726574730000000000000000000000000000000000000000000000000081525082614ebe90919063ffffffff16565b614b57836080015182614f8590919063ffffffff16565b5b5f8360c00151511115614c0c57614bad6040518060400160405280600981526020017f627974657341726773000000000000000000000000000000000000000000000081525082614ebe90919063ffffffff16565b614bb681614f35565b5f5b8360c0015151811015614c0157614bf68460c001518281518110614bdf57614bde617a65565b5b602002602001015183614f8590919063ffffffff16565b806001019050614bb8565b50614c0b81614f5d565b5b805f01515f0151915050919050565b5f805f60029054906101000a900473ffffffffffffffffffffffffffffffffffffffff1673ffffffffffffffffffffffffffffffffffffffff1663461d27628688600188886040518663ffffffff1660e01b8152600401614c809594939291906183db565b6020604051808303815f875af1158015614c9c573d5f803e3d5ffd5b505050506040513d601f19601f82011682018060405250810190614cc09190618447565b9050807f1131472297a800fee664d1d89cfa8f7676ff07189ecc53f80bbb5f4969099db860405160405180910390a280915050949350505050565b5f808273ffffffffffffffffffffffffffffffffffffffff163b119050919050565b805f60026101000a81548173ffffffffffffffffffffffffffffffffffffffff021916908373ffffffffffffffffffffffffffffffffffffffff16021790555050565b614d6a815f614fad565b50565b3373ffffffffffffffffffffffffffffffffffffffff168173ffffffffffffffffffffffffffffffffffffffff1603614ddb576040517f08c379a0000000000000000000000000000000000000000000000000000000008152600401614dd2906184bc565b60405180910390fd5b8060025f6101000a81548173ffffffffffffffffffffffffffffffffffffffff021916908373ffffffffffffffffffffffffffffffffffffffff1602179055508073ffffffffffffffffffffffffffffffffffffffff1660015f9054906101000a900473ffffffffffffffffffffffffffffffffffffffff1673ffffffffffffffffffffffffffffffffffffffff167fed8889f560326eb138920d842192f0eb3dd22b4f139c87a2c57538e05bae127860405160405180910390a350565b614ea1615551565b614eae815f01518361509c565b505f816020018181525050919050565b614ecb8260038351615112565b614ee181835f01516152b290919063ffffffff16565b505050565b614f0760026005600660ff16901b17835f01516152ce90919063ffffffff16565b50614f318282604051602001614f1d91906155a1565b604051602081830303815290604052614f85565b5050565b614f40816004615335565b600181602001818151614f539190617a32565b9150818152505050565b614f68816007615335565b600181602001818151614f7b91906184da565b9150818152505050565b614f928260028351615112565b614fa881835f01516152b290919063ffffffff16565b505050565b5f73ffffffffffffffffffffffffffffffffffffffff168273ffffffffffffffffffffffffffffffffffffffff160361501b576040517f08c379a000000000000000000000000000000000000000000000000000000000815260040161501290618557565b60405180910390fd5b8160015f6101000a81548173ffffffffffffffffffffffffffffffffffffffff021916908373ffffffffffffffffffffffffffffffffffffffff1602179055505f73ffffffffffffffffffffffffffffffffffffffff168173ffffffffffffffffffffffffffffffffffffffff16146150985761509781614d6d565b5b5050565b6150a4615570565b5f6020836150b291906185a2565b146150de576020826150c491906185a2565b60206150d091906184da565b826150db9190617a32565b91505b818360200181815250506040518084525f815282810160200181811015615103575f80fd5b80604052505082905092915050565b60178167ffffffffffffffff161161514c576151468160058460ff16901b60ff1617845f01516152ce90919063ffffffff16565b506152ad565b60ff8167ffffffffffffffff16116151a85761517e601860058460ff16901b17845f01516152ce90919063ffffffff16565b506151a28167ffffffffffffffff166001855f015161535a9092919063ffffffff16565b506152ac565b61ffff8167ffffffffffffffff1611615205576151db601960058460ff16901b17845f01516152ce90919063ffffffff16565b506151ff8167ffffffffffffffff166002855f015161535a9092919063ffffffff16565b506152ab565b63ffffffff8167ffffffffffffffff16116152645761523a601a60058460ff16901b17845f01516152ce90919063ffffffff16565b5061525e8167ffffffffffffffff166004855f015161535a9092919063ffffffff16565b506152aa565b615284601b60058460ff16901b17845f01516152ce90919063ffffffff16565b506152a88167ffffffffffffffff166008855f015161535a9092919063ffffffff16565b505b5b5b5b505050565b6152ba615570565b6152c6838384516153e3565b905092915050565b6152d6615570565b5f835f01515190505f6001826152ec9190617a32565b9050846020015182106153105761530f8560028361530a91906185d2565b6154c0565b5b84516020838201018581538151831115615328578282525b5050849250505092915050565b615355601f60058360ff16901b17835f01516152ce90919063ffffffff16565b505050565b615362615570565b5f845f01515190505f81846153779190617a32565b9050856020015181111561539c5761539b8660028361539691906185d2565b6154c0565b5b5f6001856101006153ad9190618613565b6153b791906184da565b9050865182810187831982511617815281518411156153d4578382525b50508693505050509392505050565b6153eb615570565b82518211156153f8575f80fd5b5f845f01515190505f838261540d9190617a32565b90508560200151811115615432576154318660028361542c91906185d2565b6154c0565b5b5f808751805185602083010193508085111561544c578482525b60208901925050505b60208610615493578051825260208261546e9190617a32565b915060208161547d9190617a32565b905060208661548c91906184da565b9550615455565b5f6001876020036101000a0390508019825116818451168181178552505050879450505050509392505050565b5f825f015190506154d1838361509c565b506154dc83826152b2565b50505050565b6040518060e001604052805f6002811115615500576154ff616f73565b5b81526020015f600281111561551857615517616f73565b5b81526020015f8081111561552f5761552e616f73565b5b8152602001606081526020016060815260200160608152602001606081525090565b6040518060400160405280615564615570565b81526020015f81525090565b6040518060400160405280606081526020015f81525090565b5f819050919050565b61559b81615589565b82525050565b5f6020820190506155b45f830184615592565b92915050565b5f604051905090565b5f80fd5b5f80fd5b5f73ffffffffffffffffffffffffffffffffffffffff82169050919050565b5f6155f4826155cb565b9050919050565b615604816155ea565b811461560e575f80fd5b50565b5f8135905061561f816155fb565b92915050565b5f6020828403121561563a576156396155c3565b5b5f61564784828501615611565b91505092915050565b5f819050919050565b61566281615650565b811461566c575f80fd5b50565b5f8135905061567d81615659565b92915050565b5f80fd5b5f80fd5b5f601f19601f8301169050919050565b7f4e487b71000000000000000000000000000000000000000000000000000000005f52604160045260245ffd5b6156d18261568b565b810181811067ffffffffffffffff821117156156f0576156ef61569b565b5b80604052505050565b5f6157026155ba565b905061570e82826156c8565b919050565b5f67ffffffffffffffff82111561572d5761572c61569b565b5b6157368261568b565b9050602081019050919050565b828183375f83830152505050565b5f61576361575e84615713565b6156f9565b90508281526020810184848401111561577f5761577e615687565b5b61578a848285615743565b509392505050565b5f82601f8301126157a6576157a5615683565b5b81356157b6848260208601615751565b91505092915050565b5f805f606084860312156157d6576157d56155c3565b5b5f6157e38682870161566f565b935050602084013567ffffffffffffffff811115615804576158036155c7565b5b61581086828701615792565b925050604084013567ffffffffffffffff811115615831576158306155c7565b5b61583d86828701615792565b9150509250925092565b5f67ffffffffffffffff8211156158615761586061569b565b5b61586a8261568b565b9050602081019050919050565b5f61588961588484615847565b6156f9565b9050828152602081018484840111156158a5576158a4615687565b5b6158b0848285615743565b509392505050565b5f82601f8301126158cc576158cb615683565b5b81356158dc848260208601615877565b91505092915050565b5f80604083850312156158fb576158fa6155c3565b5b5f83013567ffffffffffffffff811115615918576159176155c7565b5b615924858286016158b8565b925050602083013567ffffffffffffffff811115615945576159446155c7565b5b615951858286016158b8565b9150509250929050565b5f81519050919050565b5f82825260208201905092915050565b8281835e5f83830152505050565b5f61598d8261595b565b6159978185615965565b93506159a7818560208601615975565b6159b08161568b565b840191505092915050565b5f6020820190508181035f8301526159d38184615983565b905092915050565b5f67ffffffffffffffff82169050919050565b6159f7816159db565b8114615a01575f80fd5b50565b5f81359050615a12816159ee565b92915050565b5f60208284031215615a2d57615a2c6155c3565b5b5f615a3a84828501615a04565b91505092915050565b615a4c816155ea565b82525050565b5f602082019050615a655f830184615a43565b92915050565b5f819050919050565b5f615a8e615a89615a84846155cb565b615a6b565b6155cb565b9050919050565b5f615a9f82615a74565b9050919050565b5f615ab082615a95565b9050919050565b615ac081615aa6565b82525050565b5f602082019050615ad95f830184615ab7565b92915050565b615ae881615589565b8114615af2575f80fd5b50565b5f81359050615b0381615adf565b92915050565b5f8060408385031215615b1f57615b1e6155c3565b5b5f615b2c85828601615af5565b9250506020615b3d85828601615a04565b9150509250929050565b5f81519050919050565b5f82825260208201905092915050565b5f819050602082019050919050565b615b7981615589565b82525050565b5f615b8a8383615b70565b60208301905092915050565b5f602082019050919050565b5f615bac82615b47565b615bb68185615b51565b9350615bc183615b61565b805f5b83811015615bf1578151615bd88882615b7f565b9750615be383615b96565b925050600181019050615bc4565b5085935050505092915050565b5f6020820190508181035f830152615c168184615ba2565b905092915050565b5f60208284031215615c3357615c326155c3565b5b5f615c4084828501615af5565b91505092915050565b5f8060408385031215615c5f57615c5e6155c3565b5b5f615c6c85828601615611565b9250506020615c7d85828601615a04565b9150509250929050565b5f62ffffff82169050919050565b615c9e81615c87565b82525050565b5f602082019050615cb75f830184615c95565b92915050565b615cc6816159db565b82525050565b5f602082019050615cdf5f830184615cbd565b92915050565b5f615cef82615a95565b9050919050565b615cff81615ce5565b82525050565b5f602082019050615d185f830184615cf6565b92915050565b5f81519050919050565b5f82825260208201905092915050565b5f819050602082019050919050565b615d50816155ea565b82525050565b5f615d618383615d47565b60208301905092915050565b5f602082019050919050565b5f615d8382615d1e565b615d8d8185615d28565b9350615d9883615d38565b805f5b83811015615dc8578151615daf8882615d56565b9750615dba83615d6d565b925050600181019050615d9b565b5085935050505092915050565b5f81519050919050565b5f82825260208201905092915050565b5f819050602082019050919050565b615e07816159db565b82525050565b5f615e188383615dfe565b60208301905092915050565b5f602082019050919050565b5f615e3a82615dd5565b615e448185615ddf565b9350615e4f83615def565b805f5b83811015615e7f578151615e668882615e0d565b9750615e7183615e24565b925050600181019050615e52565b5085935050505092915050565b5f6080820190508181035f830152615ea48187615d79565b90508181036020830152615eb88186615ba2565b90508181036040830152615ecc8185615ba2565b90508181036060830152615ee08184615e30565b905095945050505050565b5f615ef582615a95565b9050919050565b615f0581615eeb565b82525050565b5f602082019050615f1e5f830184615efc565b92915050565b5f8060408385031215615f3a57615f396155c3565b5b5f615f4785828601615a04565b9250506020615f5885828601615611565b9150509250929050565b5f615f6c82615a95565b9050919050565b615f7c81615f62565b82525050565b5f602082019050615f955f830184615f73565b92915050565b5f615fa582615a95565b9050919050565b615fb581615f9b565b82525050565b5f602082019050615fce5f830184615fac565b92915050565b5f60208284031215615fe957615fe86155c3565b5b5f615ff68482850161566f565b91505092915050565b5f67ffffffffffffffff8211156160195761601861569b565b5b602082029050602081019050919050565b5f80fd5b5f61604061603b84615fff565b6156f9565b905080838252602082019050602084028301858111156160635761606261602a565b5b835b8181101561608c57806160788882615611565b845260208401935050602081019050616065565b5050509392505050565b5f82601f8301126160aa576160a9615683565b5b81356160ba84826020860161602e565b91505092915050565b5f67ffffffffffffffff8211156160dd576160dc61569b565b5b602082029050602081019050919050565b5f6161006160fb846160c3565b6156f9565b905080838252602082019050602084028301858111156161235761612261602a565b5b835b8181101561614c57806161388882615af5565b845260208401935050602081019050616125565b5050509392505050565b5f82601f83011261616a57616169615683565b5b813561617a8482602086016160ee565b91505092915050565b5f67ffffffffffffffff82111561619d5761619c61569b565b5b602082029050602081019050919050565b6161b781615c87565b81146161c1575f80fd5b50565b5f813590506161d2816161ae565b92915050565b5f6161ea6161e584616183565b6156f9565b9050808382526020820190506020840283018581111561620d5761620c61602a565b5b835b81811015616236578061622288826161c4565b84526020840193505060208101905061620f565b5050509392505050565b5f82601f83011261625457616253615683565b5b81356162648482602086016161d8565b91505092915050565b5f67ffffffffffffffff8211156162875761628661569b565b5b602082029050602081019050919050565b5f6162aa6162a58461626d565b6156f9565b905080838252602082019050602084028301858111156162cd576162cc61602a565b5b835b818110156162f657806162e28882615a04565b8452602084019350506020810190506162cf565b5050509392505050565b5f82601f83011261631457616313615683565b5b8135616324848260208601616298565b91505092915050565b5f805f8060808587031215616345576163446155c3565b5b5f85013567ffffffffffffffff811115616362576163616155c7565b5b61636e87828801616096565b945050602085013567ffffffffffffffff81111561638f5761638e6155c7565b5b61639b87828801616156565b935050604085013567ffffffffffffffff8111156163bc576163bb6155c7565b5b6163c887828801616240565b925050606085013567ffffffffffffffff8111156163e9576163e86155c7565b5b6163f587828801616300565b91505092959194509250565b5f80fd5b5f8083601f84011261641a57616419615683565b5b8235905067ffffffffffffffff81111561643757616436616401565b5b6020830191508360018202830111156164535761645261602a565b5b9250929050565b5f8083601f84011261646f5761646e615683565b5b8235905067ffffffffffffffff81111561648c5761648b616401565b5b6020830191508360018202830111156164a8576164a761602a565b5b9250929050565b5f8083601f8401126164c4576164c3615683565b5b8235905067ffffffffffffffff8111156164e1576164e0616401565b5b6020830191508360208202830111156164fd576164fc61602a565b5b9250929050565b5f8083601f84011261651957616518615683565b5b8235905067ffffffffffffffff81111561653657616535616401565b5b6020830191508360208202830111156165525761655161602a565b5b9250929050565b5f63ffffffff82169050919050565b61657181616559565b811461657b575f80fd5b50565b5f8135905061658c81616568565b92915050565b5f805f805f805f805f8060c08b8d0312156165b0576165af6155c3565b5b5f8b013567ffffffffffffffff8111156165cd576165cc6155c7565b5b6165d98d828e01616405565b9a509a505060208b013567ffffffffffffffff8111156165fc576165fb6155c7565b5b6166088d828e0161645a565b985098505060408b013567ffffffffffffffff81111561662b5761662a6155c7565b5b6166378d828e016164af565b965096505060608b013567ffffffffffffffff81111561665a576166596155c7565b5b6166668d828e01616504565b945094505060806166798d828e01615a04565b92505060a061668a8d828e0161657e565b9150509295989b9194979a5092959850565b6166a581615650565b82525050565b5f6020820190506166be5f83018461669c565b92915050565b5f60ff82169050919050565b6166d9816166c4565b82525050565b5f6020820190506166f25f8301846166d0565b92915050565b5f616702826155cb565b9050919050565b616712816166f8565b811461671c575f80fd5b50565b5f8135905061672d81616709565b92915050565b5f805f805f805f805f805f6101608c8e031215616753576167526155c3565b5b5f6167608e828f01615a04565b9b505060206167718e828f0161671f565b9a505060406167828e828f01615611565b99505060606167938e828f01615611565b98505060806167a48e828f0161566f565b97505060a06167b58e828f01615611565b96505060c06167c68e828f01615611565b95505060e06167d78e828f01615611565b9450506101006167e98e828f01615611565b9350506101206167fb8e828f01615611565b92505061014061680d8e828f01615611565b9150509295989b509295989b9093969950565b5f61682a82615a95565b9050919050565b61683a81616820565b82525050565b5f6020820190506168535f830184616831565b92915050565b5f61686382615a95565b9050919050565b61687381616859565b82525050565b5f60208201905061688c5f83018461686a565b92915050565b5f6020820190508181035f8301526168aa8184615d79565b905092915050565b5f81519050919050565b5f82825260208201905092915050565b5f819050602082019050919050565b6168e481615c87565b82525050565b5f6168f583836168db565b60208301905092915050565b5f602082019050919050565b5f616917826168b2565b61692181856168bc565b935061692c836168cc565b805f5b8381101561695c57815161694388826168ea565b975061694e83616901565b92505060018101905061692f565b5085935050505092915050565b5f6080820190508181035f8301526169818187615d79565b905081810360208301526169958186615ba2565b905081810360408301526169a9818561690d565b905081810360608301526169bd8184615e30565b905095945050505050565b5f805f80608085870312156169e0576169df6155c3565b5b5f6169ed87828801615611565b94505060206169fe87828801615611565b9350506040616a0f87828801615af5565b9250506060616a20878288016161c4565b91505092959194509250565b5f616a3682615a74565b9050919050565b5f616a4782616a2c565b9050919050565b616a5781616a3d565b82525050565b5f602082019050616a705f830184616a4e565b92915050565b5f6fffffffffffffffffffffffffffffffff82169050919050565b616a9a81616a76565b8114616aa4575f80fd5b50565b5f81359050616ab581616a91565b92915050565b5f805f8060808587031215616ad357616ad26155c3565b5b5f616ae087828801615611565b9450506020616af187828801615611565b9350506040616b0287828801616aa7565b9250506060616b13878288016161c4565b91505092959194509250565b5f805f60608486031215616b3657616b356155c3565b5b5f616b4386828701615a04565b9350506020616b5486828701615611565b9250506040616b65868287016161c4565b9150509250925092565b5f616b7982615a95565b9050919050565b616b8981616b6f565b82525050565b5f602082019050616ba25f830184616b80565b92915050565b5f81519050919050565b5f81905092915050565b5f616bc682616ba8565b616bd08185616bb2565b9350616be0818560208601615975565b80840191505092915050565b5f616bf78285616bbc565b9150616c038284616bbc565b91508190509392505050565b5f69ffffffffffffffffffff82169050919050565b616c2d81616c0f565b8114616c37575f80fd5b50565b5f81519050616c4881616c24565b92915050565b5f819050919050565b616c6081616c4e565b8114616c6a575f80fd5b50565b5f81519050616c7b81616c57565b92915050565b5f81519050616c8f81615adf565b92915050565b5f805f805f60a08688031215616cae57616cad6155c3565b5b5f616cbb88828901616c3a565b9550506020616ccc88828901616c6d565b9450506040616cdd88828901616c81565b9350506060616cee88828901616c81565b9250506080616cff88828901616c3a565b9150509295509295909350565b616d15816166c4565b8114616d1f575f80fd5b50565b5f81519050616d3081616d0c565b92915050565b5f60208284031215616d4b57616d4a6155c3565b5b5f616d5884828501616d22565b91505092915050565b7f5072696365206f7261636c6520616464726573732063616e6e6f74206265207a5f8201527f65726f2061646472657373000000000000000000000000000000000000000000602082015250565b5f616dbb602b83615965565b9150616dc682616d61565b604082019050919050565b5f6020820190508181035f830152616de881616daf565b9050919050565b7f49434f3a205072696365206665656420616464726573732063616e6e6f7420625f8201527f65207a65726f2061646472657373000000000000000000000000000000000000602082015250565b5f616e49602e83615965565b9150616e5482616def565b604082019050919050565b5f6020820190508181035f830152616e7681616e3d565b9050919050565b7f4d7573742062652070726f706f736564206f776e6572000000000000000000005f82015250565b5f616eb1601683615965565b9150616ebc82616e7d565b602082019050919050565b5f6020820190508181035f830152616ede81616ea5565b9050919050565b7f43616c6c6572206973206e6f7420696e64657820666163746f72792062616c615f8201527f6e63657220636f6e74726163742e000000000000000000000000000000000000602082015250565b5f616f3f602e83615965565b9150616f4a82616ee5565b604082019050919050565b5f6020820190508181035f830152616f6c81616f33565b9050919050565b7f4e487b71000000000000000000000000000000000000000000000000000000005f52602160045260245ffd5b5f67ffffffffffffffff821115616fba57616fb961569b565b5b602082029050602081019050919050565b5f616fdd616fd884616fa0565b6156f9565b9050808382526020820190506020840283018581111561700057616fff61602a565b5b835b8181101561704757803567ffffffffffffffff81111561702557617024615683565b5b80860161703289826158b8565b85526020850194505050602081019050617002565b5050509392505050565b5f61705d368484616fcb565b905092915050565b5f67ffffffffffffffff82111561707f5761707e61569b565b5b602082029050602081019050919050565b5f6170a261709d84617065565b6156f9565b905080838252602082019050602084028301858111156170c5576170c461602a565b5b835b8181101561710c57803567ffffffffffffffff8111156170ea576170e9615683565b5b8086016170f78982615792565b855260208501945050506020810190506170c7565b5050509392505050565b5f617122368484617090565b905092915050565b7f496e697469616c697a61626c653a20636f6e747261637420697320616c7265615f8201527f647920696e697469616c697a6564000000000000000000000000000000000000602082015250565b5f617184602e83615965565b915061718f8261712a565b604082019050919050565b5f6020820190508181035f8301526171b181617178565b9050919050565b7f496e76616c696420636861696e2073656c6563746f72000000000000000000005f82015250565b5f6171ec601683615965565b91506171f7826171b8565b602082019050919050565b5f6020820190508181035f830152617219816171e0565b9050919050565b7f496e76616c696420746f6b656e206164647265737300000000000000000000005f82015250565b5f617254601583615965565b915061725f82617220565b602082019050919050565b5f6020820190508181035f83015261728181617248565b9050919050565b7f496e76616c696420436861696e6c696e6b20746f6b656e2061646472657373005f82015250565b5f6172bc601f83615965565b91506172c782617288565b602082019050919050565b5f6020820190508181035f8301526172e9816172b0565b9050919050565b7f496e76616c69642066756e6374696f6e7320726f7574657220616464726573735f82015250565b5f617324602083615965565b915061732f826172f0565b602082019050919050565b5f6020820190508181035f83015261735181617318565b9050919050565b7f496e76616c69642065787465726e616c20646f6e2049440000000000000000005f82015250565b5f61738c601783615965565b915061739782617358565b602082019050919050565b5f6020820190508181035f8301526173b981617380565b9050919050565b7f496e76616c6964207072696365206665656420616464726573730000000000005f82015250565b5f6173f4601a83615965565b91506173ff826173c0565b602082019050919050565b5f6020820190508181035f830152617421816173e8565b9050919050565b7f496e76616c6964205745544820616464726573730000000000000000000000005f82015250565b5f61745c601483615965565b915061746782617428565b602082019050919050565b5f6020820190508181035f83015261748981617450565b9050919050565b7f496e76616c696420556e6973776170205633207377617020726f7574657220615f8201527f6464726573730000000000000000000000000000000000000000000000000000602082015250565b5f6174ea602683615965565b91506174f582617490565b604082019050919050565b5f6020820190508181035f830152617517816174de565b9050919050565b7f496e76616c696420556e697377617020563320666163746f72792061646472655f8201527f7373000000000000000000000000000000000000000000000000000000000000602082015250565b5f617578602283615965565b91506175838261751e565b604082019050919050565b5f6020820190508181035f8301526175a58161756c565b9050919050565b7f496e76616c696420556e6973776170205632207377617020726f7574657220615f8201527f6464726573730000000000000000000000000000000000000000000000000000602082015250565b5f617606602683615965565b9150617611826175ac565b604082019050919050565b5f6020820190508181035f830152617633816175fa565b9050919050565b7f496e76616c696420556e697377617020563220666163746f72792061646472655f8201527f7373000000000000000000000000000000000000000000000000000000000000602082015250565b5f617694602283615965565b915061769f8261763a565b604082019050919050565b5f6020820190508181035f8301526176c181617688565b9050919050565b7f4e487b71000000000000000000000000000000000000000000000000000000005f52602260045260245ffd5b5f600282049050600182168061770c57607f821691505b60208210810361771f5761771e6176c8565b5b50919050565b5f819050815f5260205f209050919050565b5f6020601f8301049050919050565b5f82821b905092915050565b5f600883026177817fffffffffffffffffffffffffffffffffffffffffffffffffffffffffffffffff82617746565b61778b8683617746565b95508019841693508086168417925050509392505050565b5f6177bd6177b86177b384615589565b615a6b565b615589565b9050919050565b5f819050919050565b6177d6836177a3565b6177ea6177e2826177c4565b848454617752565b825550505050565b5f90565b6177fe6177f2565b6178098184846177cd565b505050565b5b8181101561782c576178215f826177f6565b60018101905061780f565b5050565b601f8211156178715761784281617725565b61784b84617737565b8101602085101561785a578190505b61786e61786685617737565b83018261780e565b50505b505050565b5f82821c905092915050565b5f6178915f1984600802617876565b1980831691505092915050565b5f6178a98383617882565b9150826002028217905092915050565b6178c28261595b565b67ffffffffffffffff8111156178db576178da61569b565b5b6178e582546176f5565b6178f0828285617830565b5f60209050601f831160018114617921575f841561790f578287015190505b617919858261789e565b865550617980565b601f19841661792f86617725565b5f5b8281101561795657848901518255600182019150602085019450602081019050617931565b86831015617973578489015161796f601f891682617882565b8355505b6001600288020188555050505b505050505050565b5f819050919050565b5f6179ab6179a66179a184617988565b615a6b565b6166c4565b9050919050565b6179bb81617991565b82525050565b5f6020820190506179d45f8301846179b2565b92915050565b5f602082840312156179ef576179ee6155c3565b5b5f6179fc84828501616c81565b91505092915050565b7f4e487b71000000000000000000000000000000000000000000000000000000005f52601160045260245ffd5b5f617a3c82615589565b9150617a4783615589565b9250828201905080821115617a5f57617a5e617a05565b5b92915050565b7f4e487b71000000000000000000000000000000000000000000000000000000005f52603260045260245ffd5b5f604082019050617aa55f830185615592565b8181036020830152617ab78184615d79565b90509392505050565b5f617ad2617acd846160c3565b6156f9565b90508083825260208201905060208402830185811115617af557617af461602a565b5b835b81811015617b1e5780617b0a8882616c81565b845260208401935050602081019050617af7565b5050509392505050565b5f82601f830112617b3c57617b3b615683565b5b8151617b4c848260208601617ac0565b91505092915050565b5f60208284031215617b6a57617b696155c3565b5b5f82015167ffffffffffffffff811115617b8757617b866155c7565b5b617b9384828501617b28565b91505092915050565b617ba581616a76565b82525050565b5f60a082019050617bbe5f830188615a43565b617bcb6020830187615a43565b617bd86040830186615a43565b617be56060830185617b9c565b617bf26080830184615c95565b9695505050505050565b5f81519050617c0a816155fb565b92915050565b5f617c22617c1d84615fff565b6156f9565b90508083825260208201905060208402830185811115617c4557617c4461602a565b5b835b81811015617c6e5780617c5a8882617bfc565b845260208401935050602081019050617c47565b5050509392505050565b5f82601f830112617c8c57617c8b615683565b5b8151617c9c848260208601617c10565b91505092915050565b5f81519050617cb3816161ae565b92915050565b5f617ccb617cc684616183565b6156f9565b90508083825260208201905060208402830185811115617cee57617ced61602a565b5b835b81811015617d175780617d038882617ca5565b845260208401935050602081019050617cf0565b5050509392505050565b5f82601f830112617d3557617d34615683565b5b8151617d45848260208601617cb9565b91505092915050565b5f81519050617d5c816159ee565b92915050565b5f617d74617d6f8461626d565b6156f9565b90508083825260208201905060208402830185811115617d9757617d9661602a565b5b835b81811015617dc05780617dac8882617d4e565b845260208401935050602081019050617d99565b5050509392505050565b5f82601f830112617dde57617ddd615683565b5b8151617dee848260208601617d62565b91505092915050565b5f805f8060808587031215617e0f57617e0e6155c3565b5b5f85015167ffffffffffffffff811115617e2c57617e2b6155c7565b5b617e3887828801617c78565b945050602085015167ffffffffffffffff811115617e5957617e586155c7565b5b617e6587828801617b28565b935050604085015167ffffffffffffffff811115617e8657617e856155c7565b5b617e9287828801617d21565b925050606085015167ffffffffffffffff811115617eb357617eb26155c7565b5b617ebf87828801617dca565b91505092959194509250565b7f546f6b656e732061727261792063616e6e6f7420626520656d707479000000005f82015250565b5f617eff601c83615965565b9150617f0a82617ecb565b602082019050919050565b5f6020820190508181035f830152617f2c81617ef3565b9050919050565b7f4d61726b657420736861726573206172726179206c656e677468206d757374205f8201527f6d6174636820746f6b656e73206172726179206c656e67746800000000000000602082015250565b5f617f8d603983615965565b9150617f9882617f33565b604082019050919050565b5f6020820190508181035f830152617fba81617f81565b9050919050565b7f537761702066656573206172726179206c656e677468206d757374206d6174635f8201527f6820746f6b656e73206172726179206c656e6774680000000000000000000000602082015250565b5f61801b603583615965565b915061802682617fc1565b604082019050919050565b5f6020820190508181035f8301526180488161800f565b9050919050565b7f436861696e2073656c6563746f7273206172726179206c656e677468206d75735f8201527f74206d6174636820746f6b656e73206172726179206c656e6774680000000000602082015250565b5f6180a9603b83615965565b91506180b48261804f565b604082019050919050565b5f6020820190508181035f8301526180d68161809d565b9050919050565b7f4f6e6c792063616c6c61626c65206279206f776e6572000000000000000000005f82015250565b5f618111601683615965565b915061811c826180dd565b602082019050919050565b5f6020820190508181035f83015261813e81618105565b9050919050565b5f61814f826166c4565b915061815a836166c4565b9250828203905060ff81111561817357618172617a05565b5b92915050565b5f8160011c9050919050565b5f808291508390505b60018511156181ce578086048111156181aa576181a9617a05565b5b60018516156181b95780820291505b80810290506181c785618179565b945061818e565b94509492505050565b5f826181e657600190506182a1565b816181f3575f90506182a1565b8160018114618209576002811461821357618242565b60019150506182a1565b60ff84111561822557618224617a05565b5b8360020a91508482111561823c5761823b617a05565b5b506182a1565b5060208310610133831016604e8410600b84101617156182775782820a90508381111561827257618271617a05565b5b6182a1565b6182848484846001618185565b9250905081840481111561829b5761829a617a05565b5b81810290505b9392505050565b5f6182b282615589565b91506182bd836166c4565b92506182ea7fffffffffffffffffffffffffffffffffffffffffffffffffffffffffffffffff84846181d7565b905092915050565b5f6182fc82616c4e565b915061830783616c4e565b925082820261831581616c4e565b91507f800000000000000000000000000000000000000000000000000000000000000084145f8412161561834c5761834b617a05565b5b828205841483151761836157618360617a05565b5b5092915050565b5f82825260208201905092915050565b5f61838282616ba8565b61838c8185618368565b935061839c818560208601615975565b6183a58161568b565b840191505092915050565b5f61ffff82169050919050565b6183c6816183b0565b82525050565b6183d581616559565b82525050565b5f60a0820190506183ee5f830188615cbd565b81810360208301526184008187618378565b905061840f60408301866183bd565b61841c60608301856183cc565b618429608083018461669c565b9695505050505050565b5f8151905061844181615659565b92915050565b5f6020828403121561845c5761845b6155c3565b5b5f61846984828501618433565b91505092915050565b7f43616e6e6f74207472616e7366657220746f2073656c660000000000000000005f82015250565b5f6184a6601783615965565b91506184b182618472565b602082019050919050565b5f6020820190508181035f8301526184d38161849a565b9050919050565b5f6184e482615589565b91506184ef83615589565b925082820390508181111561850757618506617a05565b5b92915050565b7f43616e6e6f7420736574206f776e657220746f207a65726f00000000000000005f82015250565b5f618541601883615965565b915061854c8261850d565b602082019050919050565b5f6020820190508181035f83015261856e81618535565b9050919050565b7f4e487b71000000000000000000000000000000000000000000000000000000005f52601260045260245ffd5b5f6185ac82615589565b91506185b783615589565b9250826185c7576185c6618575565b5b828206905092915050565b5f6185dc82615589565b91506185e783615589565b92508282026185f581615589565b9150828204841483151761860c5761860b617a05565b5b5092915050565b5f61861d82615589565b915061862883615589565b92506186557fffffffffffffffffffffffffffffffffffffffffffffffffffffffffffffffff84846181d7565b90509291505056fe68747470733a2f2f6170702e6e65786c6162732e696f2f6170692f616c6c46756e64696e6752617465733f6d756c7469706c7946756e633d31382674696d65734e656746756e643d74727565266172726179733d74727565a264697066735822122042e68c7060d8a6968517370b0d1b025de37d57110567a9aaa00cf7609157465064736f6c634300081a0033","linkReferences":{}},"methodIdentifiers":{"acceptOwnership()":"79ba5097","allCurrentChainSelectorTokenShares(uint64)":"af696b34","allCurrentChainSelectorTokens(uint64)":"d1c68aa3","allCurrentChainSelectorVersions(uint64)":"221f3371","allOracleChainSelectorTokenShares(uint64)":"bf0d49c0","allOracleChainSelectorTokens(uint64)":"d050ca7c","allOracleChainSelectorVersions(uint64)":"a1adff88","concatenation(string,string)":"0e329357","crossChainFactoryBySelector(uint64)":"340fbc74","crossChainToken(uint64)":"19da7e2a","crossChainTokenSwapFee(uint64,address)":"652354ae","currentChainSelector()":"3d54cb6f","currentChainSelectorTokensCount(uint64)":"b6ad185b","currentChainSelectorsCount()":"69487b1c","currentFilledCount()":"b90b8a2a","currentList(uint256)":"9932ba4c","donId()":"8dbe7b9d","estimateAmountOut(address,address,uint128,uint24)":"ee7bd3e2","factoryV2()":"68e0d4e1","factoryV3()":"1d5f45f5","feeRate()":"978bbdb9","functionsRouterAddress()":"e3c91043","getAmountOut(address,address,uint256,uint24)":"dd811ac9","getCurrentChainSelectorTotalShares(uint256,uint64)":"2a3ff8ad","getCurrentData(uint256)":"d3f7f266","getOracleChainSelectorTotalShares(uint256,uint64)":"1dce3de8","getOracleData(uint256)":"536e3f6a","getPortfolioBalance()":"a8509fd8","handleOracleFulfillment(bytes32,bytes,bytes)":"0ca76175","indexFactory()":"e3fd0af2","indexFactoryBalancer()":"29d75de9","indexToken()":"e7d015f2","initialize(uint64,address,address,address,bytes32,address,address,address,address,address,address)":"9ebe560e","lastUpdateTime()":"c8f33c91","latestFeeUpdate()":"011ced5f","mockFillAssetsList(address[],uint256[],uint24[],uint64[])":"8bb8f1bb","mockUpdateCurrentList()":"4f9641b9","oracleChainSelectorTokensCount(uint64)":"fc698b4a","oracleChainSelectorsCount()":"8e9d7c18","oracleFilledCount()":"f1581787","oracleList(uint256)":"239aad0d","owner()":"8da5cb5b","priceInWei()":"3c8da588","priceOracle()":"2630c12f","quoter()":"c6bbd5a7","requestAssetsData(string,bytes,string[],bytes[],uint64,uint32)":"8c03c55a","setCrossChainFactory(address,uint64)":"271040df","setCrossChainToken(uint64,address,uint24)":"f0cd5b72","setDonId(bytes32)":"78ca5de7","setIndexFactory(address)":"d047937f","setIndexFactoryBalancer(address)":"ae214f39","setPriceFeed(address)":"724e78da","setPriceOracle(address)":"530e784f","setUrl(string,string)":"a73e1cbf","setVault(address)":"6817031b","swapRouterV2()":"744fbc7a","swapRouterV3()":"b631e80b","toUsdPriceFeed()":"63973fda","tokenChainSelector(address)":"ea8ecf04","tokenCurrentListIndex(address)":"914f0cc6","tokenCurrentMarketShare(address)":"0be52713","tokenOracleListIndex(address)":"8c88c10c","tokenOracleMarketShare(address)":"4b3e0b80","tokenSwapFee(address)":"32599665","totalCurrentChainSelectors()":"92e410ce","totalCurrentList()":"53fd4332","totalOracleChainSelectors()":"80acffa3","totalOracleList()":"c8599ded","transferOwnership(address)":"f2fde38b","updateCurrentList()":"8baa6bf1","vault()":"fbfa77cf","weth()":"3fc8cef3"},"id":7}