{"abi":[{"type":"function","name":"allCurrentChainSelectorTokenShares","inputs":[{"name":"_chainSelector","type":"uint64","internalType":"uint64"}],"outputs":[{"name":"","type":"uint256[]","internalType":"uint256[]"}],"stateMutability":"view"},{"type":"function","name":"allCurrentChainSelectorTokens","inputs":[{"name":"_chainSelector","type":"uint64","internalType":"uint64"}],"outputs":[{"name":"tokens","type":"address[]","internalType":"address[]"}],"stateMutability":"view"},{"type":"function","name":"allCurrentChainSelectorVersions","inputs":[{"name":"_chainSelector","type":"uint64","internalType":"uint64"}],"outputs":[{"name":"versions","type":"uint256[]","internalType":"uint256[]"}],"stateMutability":"view"},{"type":"function","name":"allOracleChainSelectorTokenShares","inputs":[{"name":"_chainSelector","type":"uint64","internalType":"uint64"}],"outputs":[{"name":"","type":"uint256[]","internalType":"uint256[]"}],"stateMutability":"view"},{"type":"function","name":"allOracleChainSelectorTokens","inputs":[{"name":"_chainSelector","type":"uint64","internalType":"uint64"}],"outputs":[{"name":"tokens","type":"address[]","internalType":"address[]"}],"stateMutability":"view"},{"type":"function","name":"allOracleChainSelectorVersions","inputs":[{"name":"_chainSelector","type":"uint64","internalType":"uint64"}],"outputs":[{"name":"versions","type":"uint256[]","internalType":"uint256[]"}],"stateMutability":"view"},{"type":"function","name":"concatenation","inputs":[{"name":"a","type":"string","internalType":"string"},{"name":"b","type":"string","internalType":"string"}],"outputs":[{"name":"","type":"string","internalType":"string"}],"stateMutability":"pure"},{"type":"function","name":"crossChainFactoryBySelector","inputs":[{"name":"","type":"uint64","internalType":"uint64"}],"outputs":[{"name":"","type":"address","internalType":"address"}],"stateMutability":"view"},{"type":"function","name":"crossChainToken","inputs":[{"name":"","type":"uint64","internalType":"uint64"}],"outputs":[{"name":"","type":"address","internalType":"address"}],"stateMutability":"view"},{"type":"function","name":"crossChainTokenSwapFee","inputs":[{"name":"","type":"uint64","internalType":"uint64"},{"name":"","type":"address","internalType":"address"}],"outputs":[{"name":"","type":"uint24","internalType":"uint24"}],"stateMutability":"view"},{"type":"function","name":"currentChainSelector","inputs":[],"outputs":[{"name":"","type":"uint64","internalType":"uint64"}],"stateMutability":"view"},{"type":"function","name":"currentChainSelectorTokensCount","inputs":[{"name":"_chainSelector","type":"uint64","internalType":"uint64"}],"outputs":[{"name":"","type":"uint256","internalType":"uint256"}],"stateMutability":"view"},{"type":"function","name":"currentChainSelectorsCount","inputs":[],"outputs":[{"name":"","type":"uint256","internalType":"uint256"}],"stateMutability":"view"},{"type":"function","name":"currentFilledCount","inputs":[],"outputs":[{"name":"","type":"uint256","internalType":"uint256"}],"stateMutability":"view"},{"type":"function","name":"currentList","inputs":[{"name":"","type":"uint256","internalType":"uint256"}],"outputs":[{"name":"","type":"address","internalType":"address"}],"stateMutability":"view"},{"type":"function","name":"estimateAmountOut","inputs":[{"name":"tokenIn","type":"address","internalType":"address"},{"name":"tokenOut","type":"address","internalType":"address"},{"name":"amountIn","type":"uint128","internalType":"uint128"}],"outputs":[{"name":"amountOut","type":"uint256","internalType":"uint256"}],"stateMutability":"view"},{"type":"function","name":"externalJobId","inputs":[],"outputs":[{"name":"","type":"bytes32","internalType":"bytes32"}],"stateMutability":"view"},{"type":"function","name":"factoryV2","inputs":[],"outputs":[{"name":"","type":"address","internalType":"contract IUniswapV2Factory"}],"stateMutability":"view"},{"type":"function","name":"factoryV3","inputs":[],"outputs":[{"name":"","type":"address","internalType":"contract IUniswapV3Factory"}],"stateMutability":"view"},{"type":"function","name":"feeRate","inputs":[],"outputs":[{"name":"","type":"uint8","internalType":"uint8"}],"stateMutability":"view"},{"type":"function","name":"fulfillAssetsData","inputs":[{"name":"requestId","type":"bytes32","internalType":"bytes32"},{"name":"_tokens","type":"address[]","internalType":"address[]"},{"name":"_marketShares","type":"uint256[]","internalType":"uint256[]"},{"name":"_swapFees","type":"uint24[]","internalType":"uint24[]"},{"name":"_chainSelectors","type":"uint64[]","internalType":"uint64[]"}],"outputs":[],"stateMutability":"nonpayable"},{"type":"function","name":"getAmountOut","inputs":[{"name":"tokenIn","type":"address","internalType":"address"},{"name":"tokenOut","type":"address","internalType":"address"},{"name":"amountIn","type":"uint256","internalType":"uint256"},{"name":"_swapFee","type":"uint24","internalType":"uint24"}],"outputs":[{"name":"finalAmountOutValue","type":"uint256","internalType":"uint256"}],"stateMutability":"view"},{"type":"function","name":"getCurrentChainSelectorTotalShares","inputs":[{"name":"index","type":"uint256","internalType":"uint256"},{"name":"chainSelector","type":"uint64","internalType":"uint64"}],"outputs":[{"name":"","type":"uint256","internalType":"uint256"}],"stateMutability":"view"},{"type":"function","name":"getCurrentData","inputs":[{"name":"index","type":"uint256","internalType":"uint256"}],"outputs":[{"name":"tokens","type":"address[]","internalType":"address[]"},{"name":"marketShares","type":"uint256[]","internalType":"uint256[]"},{"name":"swapFees","type":"uint24[]","internalType":"uint24[]"},{"name":"chainSelectors","type":"uint64[]","internalType":"uint64[]"}],"stateMutability":"view"},{"type":"function","name":"getOracleData","inputs":[{"name":"index","type":"uint256","internalType":"uint256"}],"outputs":[{"name":"tokens","type":"address[]","internalType":"address[]"},{"name":"marketShares","type":"uint256[]","internalType":"uint256[]"},{"name":"swapFees","type":"uint256[]","internalType":"uint256[]"},{"name":"chainSelectors","type":"uint64[]","internalType":"uint64[]"}],"stateMutability":"view"},{"type":"function","name":"getPortfolioBalance","inputs":[],"outputs":[{"name":"","type":"uint256","internalType":"uint256"}],"stateMutability":"view"},{"type":"function","name":"indexFactory","inputs":[],"outputs":[{"name":"","type":"address","internalType":"address"}],"stateMutability":"view"},{"type":"function","name":"indexFactoryBalancer","inputs":[],"outputs":[{"name":"","type":"address","internalType":"address"}],"stateMutability":"view"},{"type":"function","name":"indexToken","inputs":[],"outputs":[{"name":"","type":"address","internalType":"contract IndexToken"}],"stateMutability":"view"},{"type":"function","name":"initialize","inputs":[{"name":"_currentChainSelector","type":"uint64","internalType":"uint64"},{"name":"_token","type":"address","internalType":"address payable"},{"name":"_chainlinkToken","type":"address","internalType":"address"},{"name":"_oracleAddress","type":"address","internalType":"address"},{"name":"_externalJobId","type":"bytes32","internalType":"bytes32"},{"name":"_toUsdPriceFeed","type":"address","internalType":"address"},{"name":"_weth","type":"address","internalType":"address"},{"name":"_swapRouterV3","type":"address","internalType":"address"},{"name":"_factoryV3","type":"address","internalType":"address"},{"name":"_swapRouterV2","type":"address","internalType":"address"},{"name":"_factoryV2","type":"address","internalType":"address"}],"outputs":[],"stateMutability":"nonpayable"},{"type":"function","name":"lastUpdateTime","inputs":[],"outputs":[{"name":"","type":"uint256","internalType":"uint256"}],"stateMutability":"view"},{"type":"function","name":"latestFeeUpdate","inputs":[],"outputs":[{"name":"","type":"uint256","internalType":"uint256"}],"stateMutability":"view"},{"type":"function","name":"mockFillAssetsList","inputs":[{"name":"_tokens","type":"address[]","internalType":"address[]"},{"name":"_marketShares","type":"uint256[]","internalType":"uint256[]"},{"name":"_swapFees","type":"uint24[]","internalType":"uint24[]"},{"name":"_chainSelectors","type":"uint64[]","internalType":"uint64[]"}],"outputs":[],"stateMutability":"nonpayable"},{"type":"function","name":"mockUpdateCurrentList","inputs":[],"outputs":[],"stateMutability":"nonpayable"},{"type":"function","name":"oracleChainSelectorTokensCount","inputs":[{"name":"_chainSelector","type":"uint64","internalType":"uint64"}],"outputs":[{"name":"","type":"uint256","internalType":"uint256"}],"stateMutability":"view"},{"type":"function","name":"oracleChainSelectorsCount","inputs":[],"outputs":[{"name":"","type":"uint256","internalType":"uint256"}],"stateMutability":"view"},{"type":"function","name":"oracleFilledCount","inputs":[],"outputs":[{"name":"","type":"uint256","internalType":"uint256"}],"stateMutability":"view"},{"type":"function","name":"oracleList","inputs":[{"name":"","type":"uint256","internalType":"uint256"}],"outputs":[{"name":"","type":"address","internalType":"address"}],"stateMutability":"view"},{"type":"function","name":"oraclePayment","inputs":[],"outputs":[{"name":"","type":"uint256","internalType":"uint256"}],"stateMutability":"view"},{"type":"function","name":"owner","inputs":[],"outputs":[{"name":"","type":"address","internalType":"address"}],"stateMutability":"view"},{"type":"function","name":"priceInWei","inputs":[],"outputs":[{"name":"","type":"uint256","internalType":"uint256"}],"stateMutability":"view"},{"type":"function","name":"priceOracle","inputs":[],"outputs":[{"name":"","type":"address","internalType":"address"}],"stateMutability":"view"},{"type":"function","name":"proposeOwner","inputs":[{"name":"_proposedOwner","type":"address","internalType":"address"}],"outputs":[],"stateMutability":"nonpayable"},{"type":"function","name":"proposedOwner","inputs":[],"outputs":[{"name":"","type":"address","internalType":"address"}],"stateMutability":"view"},{"type":"function","name":"quoter","inputs":[],"outputs":[{"name":"","type":"address","internalType":"contract IQuoter"}],"stateMutability":"view"},{"type":"function","name":"renounceOwnership","inputs":[],"outputs":[],"stateMutability":"nonpayable"},{"type":"function","name":"requestAssetsData","inputs":[],"outputs":[{"name":"","type":"bytes32","internalType":"bytes32"}],"stateMutability":"nonpayable"},{"type":"function","name":"setCrossChainFactory","inputs":[{"name":"_crossChainFactoryAddress","type":"address","internalType":"address"},{"name":"_chainSelector","type":"uint64","internalType":"uint64"}],"outputs":[],"stateMutability":"nonpayable"},{"type":"function","name":"setCrossChainToken","inputs":[{"name":"_chainSelector","type":"uint64","internalType":"uint64"},{"name":"_crossChainToken","type":"address","internalType":"address"},{"name":"_swapFee","type":"uint24","internalType":"uint24"}],"outputs":[],"stateMutability":"nonpayable"},{"type":"function","name":"setIndexFactory","inputs":[{"name":"_indexFactory","type":"address","internalType":"address"}],"outputs":[],"stateMutability":"nonpayable"},{"type":"function","name":"setIndexFactoryBalancer","inputs":[{"name":"_indexFactoryBalancer","type":"address","internalType":"address"}],"outputs":[],"stateMutability":"nonpayable"},{"type":"function","name":"setPriceFeed","inputs":[{"name":"_toUsdPricefeed","type":"address","internalType":"address"}],"outputs":[],"stateMutability":"nonpayable"},{"type":"function","name":"setPriceOracle","inputs":[{"name":"_priceOracle","type":"address","internalType":"address"}],"outputs":[],"stateMutability":"nonpayable"},{"type":"function","name":"setUrl","inputs":[{"name":"_beforeAddress","type":"string","internalType":"string"},{"name":"_afterAddress","type":"string","internalType":"string"}],"outputs":[],"stateMutability":"nonpayable"},{"type":"function","name":"setVault","inputs":[{"name":"_vaultAddress","type":"address","internalType":"address"}],"outputs":[],"stateMutability":"nonpayable"},{"type":"function","name":"swapRouterV2","inputs":[],"outputs":[{"name":"","type":"address","internalType":"contract IUniswapV2Router02"}],"stateMutability":"view"},{"type":"function","name":"swapRouterV3","inputs":[],"outputs":[{"name":"","type":"address","internalType":"contract ISwapRouter"}],"stateMutability":"view"},{"type":"function","name":"toUsdPriceFeed","inputs":[],"outputs":[{"name":"","type":"address","internalType":"contract AggregatorV3Interface"}],"stateMutability":"view"},{"type":"function","name":"tokenChainSelector","inputs":[{"name":"","type":"address","internalType":"address"}],"outputs":[{"name":"","type":"uint64","internalType":"uint64"}],"stateMutability":"view"},{"type":"function","name":"tokenCurrentListIndex","inputs":[{"name":"","type":"address","internalType":"address"}],"outputs":[{"name":"","type":"uint256","internalType":"uint256"}],"stateMutability":"view"},{"type":"function","name":"tokenCurrentMarketShare","inputs":[{"name":"","type":"address","internalType":"address"}],"outputs":[{"name":"","type":"uint256","internalType":"uint256"}],"stateMutability":"view"},{"type":"function","name":"tokenOracleListIndex","inputs":[{"name":"","type":"address","internalType":"address"}],"outputs":[{"name":"","type":"uint256","internalType":"uint256"}],"stateMutability":"view"},{"type":"function","name":"tokenOracleMarketShare","inputs":[{"name":"","type":"address","internalType":"address"}],"outputs":[{"name":"","type":"uint256","internalType":"uint256"}],"stateMutability":"view"},{"type":"function","name":"tokenSwapFee","inputs":[{"name":"","type":"address","internalType":"address"}],"outputs":[{"name":"","type":"uint24","internalType":"uint24"}],"stateMutability":"view"},{"type":"function","name":"totalCurrentChainSelectors","inputs":[],"outputs":[{"name":"","type":"uint256","internalType":"uint256"}],"stateMutability":"view"},{"type":"function","name":"totalCurrentList","inputs":[],"outputs":[{"name":"","type":"uint256","internalType":"uint256"}],"stateMutability":"view"},{"type":"function","name":"totalOracleChainSelectors","inputs":[],"outputs":[{"name":"","type":"uint256","internalType":"uint256"}],"stateMutability":"view"},{"type":"function","name":"totalOracleList","inputs":[],"outputs":[{"name":"","type":"uint256","internalType":"uint256"}],"stateMutability":"view"},{"type":"function","name":"transferOwnership","inputs":[{"name":"newOwner","type":"address","internalType":"address"}],"outputs":[],"stateMutability":"nonpayable"},{"type":"function","name":"updateCurrentList","inputs":[],"outputs":[],"stateMutability":"nonpayable"},{"type":"function","name":"vault","inputs":[],"outputs":[{"name":"","type":"address","internalType":"contract Vault"}],"stateMutability":"view"},{"type":"function","name":"weth","inputs":[],"outputs":[{"name":"","type":"address","internalType":"contract IWETH"}],"stateMutability":"view"},{"type":"event","name":"ChainlinkCancelled","inputs":[{"name":"id","type":"bytes32","indexed":true,"internalType":"bytes32"}],"anonymous":false},{"type":"event","name":"ChainlinkFulfilled","inputs":[{"name":"id","type":"bytes32","indexed":true,"internalType":"bytes32"}],"anonymous":false},{"type":"event","name":"ChainlinkRequested","inputs":[{"name":"id","type":"bytes32","indexed":true,"internalType":"bytes32"}],"anonymous":false},{"type":"event","name":"Initialized","inputs":[{"name":"version","type":"uint8","indexed":false,"internalType":"uint8"}],"anonymous":false},{"type":"event","name":"OwnershipTransferred","inputs":[{"name":"previousOwner","type":"address","indexed":true,"internalType":"address"},{"name":"newOwner","type":"address","indexed":true,"internalType":"address"}],"anonymous":false}],"bytecode":{"object":"0x608060405234801561001057600080fd5b50614548806100206000396000f3fe608060405234801561001057600080fd5b50600436106104285760003560e01c80638da5cb5b1161022b578063bf0d49c011610130578063dd811ac9116100b8578063f0cd5b7211610087578063f0cd5b7214610a69578063f158178714610a7c578063f2fde38b14610a85578063fbfa77cf14610a98578063fc698b4a14610aab57600080fd5b8063dd811ac914610a07578063e3fd0af214610a1a578063e7d015f214610a2d578063ea8ecf0414610a4057600080fd5b8063d047937f116100ff578063d047937f1461098b578063d050ca7c1461099e578063d153b60c146109be578063d1c68aa3146109d1578063d3f7f266146109e457600080fd5b8063bf0d49c014610953578063c6bbd5a714610966578063c8599ded14610979578063c8f33c911461098257600080fd5b8063a8509fd8116101b3578063b2c44b3f11610182578063b2c44b3f146108d6578063b5ed298a146108e9578063b631e80b146108fc578063b6ad185b1461090f578063b90b8a2a1461094a57600080fd5b8063a8509fd81461089f578063a8b54bd4146108a7578063ae214f39146108b0578063af696b34146108c357600080fd5b8063978bbdb9116101fa578063978bbdb91461081e5780639932ba4c1461083d5780639ebe560e14610866578063a1adff8814610879578063a73e1cbf1461088c57600080fd5b80638da5cb5b146107ca5780638e9d7c18146107db578063914f0cc6146107f557806392e410ce1461081557600080fd5b80634b3e0b801161033157806369487b1c116102b95780637ca58c55116102885780637ca58c551461077e57806380acffa3146107865780638baa6bf11461078f5780638bb8f1bb146107975780638c88c10c146107aa57600080fd5b806369487b1c14610736578063715018a614610750578063724e78da14610758578063744fbc7a1461076b57600080fd5b806353fd43321161030057806353fd4332146106c457806363973fda146106cd578063652354ae146106e05780636817031b1461071057806368e0d4e11461072357600080fd5b80634b3e0b80146106665780634f9641b914610686578063530e784f1461068e578063536e3f6a146106a157600080fd5b80632630c12f116103b4578063325996651161038357806332599665146105be578063340fbc74146105f75780633c8da588146106205780633d54cb6f146106285780633fc8cef31461065357600080fd5b80632630c12f14610542578063271040df1461055c57806329d75de9146105715780632a3ff8ad1461058457600080fd5b80630e329357116103fb5780630e3293571461048557806319da7e2a146104a55780631d5f45f5146104e6578063221f3371146104f9578063239aad0d1461051957600080fd5b8063011ced5f1461042d5780630456f9c8146104495780630be527131461045c5780630c02e1301461047c575b600080fd5b61043660a45481565b6040519081526020015b60405180910390f35b610436610457366004613880565b610ae6565b61043661046a366004613863565b60b46020526000908152604090205481565b61043660a95481565b610498610493366004613b78565b610b97565b604051610440919061409e565b6104ce6104b3366004613c30565b60a0602052600090815260409020546001600160a01b031681565b6040516001600160a01b039091168152602001610440565b60bd546104ce906001600160a01b031681565b61050c610507366004613c30565b610bc4565b604051610440919061408b565b6104ce610527366004613bdb565b60b0602052600090815260409020546001600160a01b031681565b60a5546104ce90600160401b90046001600160a01b031681565b61056f61056a366004613928565b610c3d565b005b609f546104ce906001600160a01b031681565b610436610592366004613c0d565b600082815260bb602090815260408083206001600160401b038516845260080190915290205492915050565b6105e36105cc366004613863565b60b66020526000908152604090205462ffffff1681565b60405162ffffff9091168152602001610440565b6104ce610605366004613c30565b60a2602052600090815260409020546001600160a01b031681565b610436610c7c565b60a55461063b906001600160401b031681565b6040516001600160401b039091168152602001610440565b60c0546104ce906001600160a01b031681565b610436610674366004613863565b60b56020526000908152604090205481565b61056f610da8565b61056f61069c366004613863565b610dba565b6106b46106af366004613bdb565b610e62565b6040516104409493929190614033565b61043660ad5481565b60aa546104ce906001600160a01b031681565b6105e36106ee366004613c4b565b60a160209081526000928352604080842090915290825290205462ffffff1681565b61056f61071e366004613863565b611023565b60bf546104ce906001600160a01b031681565b60b954600090815260bb6020526040902060030154610436565b61056f61104d565b61056f610766366004613863565b61105f565b60be546104ce906001600160a01b031681565b6104366110f6565b61043660ae5481565b61056f6113ec565b61056f6107a536600461395d565b61145d565b6104366107b8366004613863565b60b26020526000908152604090205481565b6038546001600160a01b03166104ce565b60b854600090815260ba6020526040902060030154610436565b610436610803366004613863565b60b36020526000908152604090205481565b61043660af5481565b60a35461082b9060ff1681565b60405160ff9091168152602001610440565b6104ce61084b366004613bdb565b60b1602052600090815260409020546001600160a01b031681565b61056f610874366004613c82565b611477565b61050c610887366004613c30565b6116f4565b61056f61089a366004613b78565b61176b565b61043661179f565b61043660a85481565b61056f6108be366004613863565b61189f565b61050c6108d1366004613c30565b6118c9565b61056f6108e4366004613ac2565b611940565b61056f6108f7366004613863565b611a10565b60bc546104ce906001600160a01b031681565b61043661091d366004613c30565b60b954600090815260bb602090815260408083206001600160401b03909416835260059093019052205490565b61043660b95481565b61050c610961366004613c30565b611a60565b60c1546104ce906001600160a01b031681565b61043660ac5481565b61043660ab5481565b61056f610999366004613863565b611ad7565b6109b16109ac366004613c30565b611b01565b6040516104409190613f9f565b606a546104ce906001600160a01b031681565b6109b16109df366004613c30565b611b83565b6109f76109f2366004613bdb565b611c04565b6040516104409493929190613fb2565b610436610a153660046138d7565b611dc4565b609e546104ce906001600160a01b031681565b609d546104ce906001600160a01b031681565b61063b610a4e366004613863565b60b7602052600090815260409020546001600160401b031681565b61056f610a77366004613d5b565b611f19565b61043660b85481565b61056f610a93366004613863565b611f80565b60c2546104ce906001600160a01b031681565b610436610ab9366004613c30565b60b854600090815260ba602090815260408083206001600160401b03909416835260059093019052205490565b60a55460bd546040516304a10b8960e51b81526001600160a01b039182166004820152858216602482015284821660448201526001600160801b0384166064820152600092600160401b90049091169063942171209060840160206040518083038186803b158015610b5757600080fd5b505afa158015610b6b573d6000803e3d6000fd5b505050506040513d601f19601f82011682018060405250810190610b8f9190613bf4565b949350505050565b60608282604051602001610bac929190613ee1565b60405160208183030381529060405290505b92915050565b60b954600090815260bb602090815260408083206001600160401b0385168452600601825291829020805483518184028101840190945280845260609392830182828015610c3157602002820191906000526020600020905b815481526020019060010190808311610c1d575b50505050509050919050565b610c456120a8565b6001600160401b0316600090815260a26020526040902080546001600160a01b0319166001600160a01b0392909216919091179055565b60008060aa60009054906101000a90046001600160a01b03166001600160a01b031663feaf968c6040518163ffffffff1660e01b815260040160a06040518083038186803b158015610ccd57600080fd5b505afa158015610ce1573d6000803e3d6000fd5b505050506040513d601f19601f82011682018060405250810190610d059190613da0565b505050915050600060aa60009054906101000a90046001600160a01b03166001600160a01b031663313ce5676040518163ffffffff1660e01b815260040160206040518083038186803b158015610d5b57600080fd5b505afa158015610d6f573d6000803e3d6000fd5b505050506040513d601f19601f82011682018060405250810190610d939190613df0565b9050610da182826012612102565b9392505050565b610db06120a8565b610db8612142565b565b610dc26120a8565b6001600160a01b038116610e315760405162461bcd60e51b815260206004820152602b60248201527f5072696365206f7261636c6520616464726573732063616e6e6f74206265207a60448201526a65726f206164647265737360a81b60648201526084015b60405180910390fd5b60a580546001600160a01b03909216600160401b0268010000000000000000600160e01b0319909216919091179055565b606080606080600060ba600087815260200190815260200160002090508060000181600101826002018360030183805480602002602001604051908101604052809291908181526020018280548015610ee457602002820191906000526020600020905b81546001600160a01b03168152600190910190602001808311610ec6575b5050505050935082805480602002602001604051908101604052809291908181526020018280548015610f3657602002820191906000526020600020905b815481526020019060010190808311610f22575b5050505050925081805480602002602001604051908101604052809291908181526020018280548015610f8857602002820191906000526020600020905b815481526020019060010190808311610f74575b505050505091508080548060200260200160405190810160405280929190818152602001828054801561100c57602002820191906000526020600020906000905b82829054906101000a90046001600160401b03166001600160401b031681526020019060080190602082600701049283019260010382029150808411610fc95790505b505050505090509450945094509450509193509193565b61102b6120a8565b60c280546001600160a01b0319166001600160a01b0392909216919091179055565b6110556120a8565b610db860006123d0565b6110676120a8565b6001600160a01b0381166110d45760405162461bcd60e51b815260206004820152602e60248201527f49434f3a205072696365206665656420616464726573732063616e6e6f74206260448201526d65207a65726f206164647265737360901b6064820152608401610e28565b60aa80546001600160a01b0319166001600160a01b0392909216919091179055565b60008061121760a68054611109906143e9565b80601f0160208091040260200160405190810160405280929190818152602001828054611135906143e9565b80156111825780601f1061115757610100808354040283529160200191611182565b820191906000526020600020905b81548152906001019060200180831161116557829003601f168201915b505050505060a78054611194906143e9565b80601f01602080910402602001604051908101604052809291908181526020018280546111c0906143e9565b801561120d5780601f106111e25761010080835404028352916020019161120d565b820191906000526020600020905b8154815290600101906020018083116111f057829003601f168201915b5050505050610b97565b9050600061122f60a8543063b2c44b3f60e01b612422565b60408051808201909152600381526219d95d60ea1b60208201529091506112589082908461243e565b6112b060405180604001604052806005815260200164706174683160d81b8152506040518060400160405280600e81526020016d726573756c74732c746f6b656e7360901b8152508361243e9092919063ffffffff16565b61130e604051806040016040528060058152602001643830ba341960d91b81525060405180604001604052806014815260200173726573756c74732c6d61726b657453686172657360601b8152508361243e9092919063ffffffff16565b61136860405180604001604052806005815260200164706174683360d81b8152506040518060400160405280601081526020016f726573756c74732c737761704665657360801b8152508361243e9092919063ffffffff16565b6113c7604051806040016040528060058152602001641c185d1a0d60da1b815250604051806040016040528060158152602001743932b9bab63a399631b430b4b729b2b632b1ba37b960591b8152508361243e9092919063ffffffff16565b6113e56113dc6003546001600160a01b031690565b8260a95461245c565b9250505090565b609f546001600160a01b03163314610db05760405162461bcd60e51b815260206004820152602e60248201527f43616c6c6572206973206e6f7420696e64657820666163746f72792062616c6160448201526d3731b2b91031b7b73a3930b1ba1760911b6064820152608401610e28565b6114656120a8565b611471848484846124ef565b50505050565b600054610100900460ff16158080156114975750600054600160ff909116105b806114b15750303b1580156114b1575060005460ff166001145b6115145760405162461bcd60e51b815260206004820152602e60248201527f496e697469616c697a61626c653a20636f6e747261637420697320616c72656160448201526d191e481a5b9a5d1a585b1a5e995960921b6064820152608401610e28565b6000805460ff191660011790558015611537576000805461ff0019166101001790555b61153f612f41565b60a580546001600160401b038e1667ffffffffffffffff19909116179055609d80546001600160a01b038d166001600160a01b03199091161790556115a18a600280546001600160a01b039092166001600160a01b0319909216919091179055565b600380546001600160a01b0319166001600160a01b038b1617905560a8889055600a6115d6670de0b6b3a76400006001614364565b6115e091906141d0565b60a95560aa80546001600160a01b03199081166001600160a01b038a81169190911790925560c08054821689841617905560bc8054821688841617905560bd8054821687841617905560be8054821686841617905560bf80549091169184169190911790556040805160608101909152602a8082526144bb602083013980516116719160a69160209091019061352e565b506040518060600160405280602e81526020016144e5602e9139805161169f9160a79160209091019061352e565b5080156116e6576000805461ff0019169055604051600181527f7f26b83ff96e1f2b6a682f133852f6798a09c465da95921460cefb38474024989060200160405180910390a15b505050505050505050505050565b60b854600090815260ba602090815260408083206001600160401b0385168452600601825291829020805483518184028101840190945280845260609392830182828015610c315760200282019190600052602060002090815481526020019060010190808311610c1d5750505050509050919050565b6117736120a8565b81516117869060a690602085019061352e565b50805161179a9060a790602084019061352e565b505050565b60008060005b60ad5481101561189957600081815260b160205260408082205460c054609d5492516370a0823160e01b81526001600160a01b03938416600482015261187793928316929091169082906370a082319060240160206040518083038186803b15801561181057600080fd5b505afa158015611824573d6000803e3d6000fd5b505050506040513d601f19601f820116820180604052508101906118489190613bf4565b600086815260b160209081526040808320546001600160a01b0316835260b690915290205462ffffff16611dc4565b905061188381846141b8565b92505080806118919061441e565b9150506117a5565b50919050565b6118a76120a8565b609f80546001600160a01b0319166001600160a01b0392909216919091179055565b60b954600090815260bb602090815260408083206001600160401b0385168452600701825291829020805483518184028101840190945280845260609392830182828015610c315760200282019190600052602060002090815481526020019060010190808311610c1d5750505050509050919050565b60008581526005602052604090205485906001600160a01b031633146119b95760405162461bcd60e51b815260206004820152602860248201527f536f75726365206d75737420626520746865206f7261636c65206f6620746865604482015267081c995c5d595cdd60c21b6064820152608401610e28565b60008181526005602052604080822080546001600160a01b03191690555182917f7cc135e0cebb02c3480ae5d74d377283180a2601f8f644edf7987b009316c63a91a2611a08858585856124ef565b505050505050565b611a186120a8565b6001600160a01b038116611a3e5760405162461bcd60e51b8152600401610e28906140b1565b606a80546001600160a01b0319166001600160a01b0392909216919091179055565b60b854600090815260ba602090815260408083206001600160401b0385168452600701825291829020805483518184028101840190945280845260609392830182828015610c315760200282019190600052602060002090815481526020019060010190808311610c1d5750505050509050919050565b611adf6120a8565b609e80546001600160a01b0319166001600160a01b0392909216919091179055565b60b854600090815260ba602090815260408083206001600160401b0385168452600501825291829020805483518184028101840190945280845260609392830182828015610c3157602002820191906000526020600020905b81546001600160a01b03168152600190910190602001808311611b5a5750505050509050919050565b60b954600090815260bb602090815260408083206001600160401b0385168452600501825291829020805483518184028101840190945280845260609392830182828015610c31576020028201919060005260206000209081546001600160a01b03168152600190910190602001808311611b5a5750505050509050919050565b606080606080600060bb600087815260200190815260200160002090508060000181600101826002018360030183805480602002602001604051908101604052809291908181526020018280548015611c8657602002820191906000526020600020905b81546001600160a01b03168152600190910190602001808311611c68575b5050505050935082805480602002602001604051908101604052809291908181526020018280548015611cd857602002820191906000526020600020905b815481526020019060010190808311611cc4575b5050505050925081805480602002602001604051908101604052809291908181526020018280548015610f8857602002820191906000526020600020906000905b82829054906101000a900462ffffff1662ffffff1681526020019060030190602082600201049283019260010382029150808411611d19579050505050505091508080548060200260200160405190810160405280929190818152602001828054801561100c57600091825260209182902080546001600160401b03168452908202830192909160089101808411610fc9579050505050505090509450945094509450509193509193565b6000808315611f10578262ffffff1660031415611ded57611de6868686610ae6565b9050611f10565b6040805160028082526060820183526000926020830190803683370190505090508681600081518110611e2257611e22614479565b60200260200101906001600160a01b031690816001600160a01b0316815250508581600181518110611e5657611e56614479565b6001600160a01b03928316602091820292909201015260be5460405163d06ca61f60e01b8152600092919091169063d06ca61f90611e9a908990869060040161414c565b60006040518083038186803b158015611eb257600080fd5b505afa158015611ec6573d6000803e3d6000fd5b505050506040513d6000823e601f3d908101601f19168201604052611eee9190810190613a09565b905080600181518110611f0357611f03614479565b6020026020010151925050505b95945050505050565b611f216120a8565b6001600160401b0392909216600090815260a06020908152604080832080546001600160a01b0319166001600160a01b0395909516948517905560a1825280832093835292905220805462ffffff191662ffffff909216919091179055565b6001600160a01b038116611fa65760405162461bcd60e51b8152600401610e28906140b1565b606a546001600160a01b0382811691161461201e5760405162461bcd60e51b815260206004820152603260248201527f50726f706f7361626c654f776e61626c653a206e6577206f776e6572206973206044820152713737ba10383937b837b9b2b21037bbb732b960711b6064820152608401610e28565b6001600160a01b038116331461209c5760405162461bcd60e51b815260206004820152603a60248201527f50726f706f7361626c654f776e61626c653a20746869732063616c6c206d757360448201527f74206265206d61646520627920746865206e6577206f776e65720000000000006064820152608401610e28565b6120a5816123d0565b50565b6038546001600160a01b03163314610db85760405162461bcd60e51b815260206004820181905260248201527f4f776e61626c653a2063616c6c6572206973206e6f7420746865206f776e65726044820152606401610e28565b60008260ff168260ff1611156121385761211c838361439a565b61212790600a614233565b61213190856142df565b9050610da1565b61211c828461439a565b600160b9600082825461215591906141b8565b90915550600090505b60ac548110156123c757600081815260b060209081526040808320805460b1845282852080546001600160a01b0319166001600160a01b03928316908117825583548316875260b586528487205490875260b486528487205582548216865260b285528386205490548216865260b3855283862055905416835260b782528083205460b954845260bb83528184206001600160401b0390911680855260049091019092529091205460ff166122855760b98054600090815260bb602081815260408084206001600160401b03878116808752600492830185528387208054600160ff199091168117909155975487529484529185206003908101805497880181558652929094209385049093018054949091166008026101000a9283021990931691021790555b60b98054600090815260bb602081815260408084206001600160401b0387168086526005909101835281852088865260b0845282862080548254600181810185559389528689200180546001600160a01b0319166001600160a01b0392831617905588548852868652848820848952600601865284882082548216895260b68752858920548154948501825590895286892062ffffff9091169301929092555416855260b58352818520549554855292825280842092845260089092019052812080549091906123569084906141b8565b909155505060b954600090815260bb602090815260408083206001600160401b0390941683526007909301815282822084835260b08252838320546001600160a01b0316835260b58252928220548354600181018555938352912090910155806123bf8161441e565b91505061215e565b5060ac5460ad55565b603880546001600160a01b038381166001600160a01b0319831681179093556040519116919082907f8be0079c531659141344cd1fd0a4f28419497f9722a3daafe3b4186f6b6457e090600090a35050565b61242a6135b2565b6124326135b2565b611f1081868686612f70565b608083015161244d9083612fad565b608083015161179a9082612fad565b60045460009061246d8160016141b8565b600455835160408086015160808701515191516000936320214ca360e11b936124a59386938493923092918a91600191602401613f10565b60408051601f198184030181529190526020810180516001600160e01b03166001600160e01b03199093169290921790915290506124e586838684612fc4565b9695505050505050565b60b8805485918591859185916001919060009061250d9084906141b8565b909155505060ad5461253257600160b9600082825461252c91906141b8565b90915550505b60005b8451811015612f205784818151811061255057612550614479565b602002602001015160b0600083815260200190815260200160002060006101000a8154816001600160a01b0302191690836001600160a01b031602179055508060b260008784815181106125a6576125a6614479565b60200260200101516001600160a01b03166001600160a01b03168152602001908152602001600020819055508381815181106125e4576125e4614479565b602002602001015160b5600087848151811061260257612602614479565b60200260200101516001600160a01b03166001600160a01b031681526020019081526020016000208190555082818151811061264057612640614479565b602002602001015160b6600087848151811061265e5761265e614479565b60200260200101516001600160a01b03166001600160a01b0316815260200190815260200160002060006101000a81548162ffffff021916908362ffffff1602179055508181815181106126b4576126b4614479565b602002602001015160b760008784815181106126d2576126d2614479565b60200260200101516001600160a01b03166001600160a01b0316815260200190815260200160002060006101000a8154816001600160401b0302191690836001600160401b0316021790555060ba600060b8548152602001908152602001600020600401600083838151811061274a5761274a614479565b6020908102919091018101516001600160401b031682528101919091526040016000205460ff166128665760ba600060b854815260200190815260200160002060030182828151811061279f5761279f614479565b602002602001015190806001815401808255809150506001900390600052602060002090600491828204019190066008029091909190916101000a8154816001600160401b0302191690836001600160401b03160217905550600160ba600060b8548152602001908152602001600020600401600084848151811061282657612826614479565b60200260200101516001600160401b03166001600160401b0316815260200190815260200160002060006101000a81548160ff0219169083151502179055505b60ba600060b8548152602001908152602001600020600501600083838151811061289257612892614479565b60200260200101516001600160401b03166001600160401b031681526020019081526020016000208582815181106128cc576128cc614479565b602090810291909101810151825460018101845560009384528284200180546001600160a01b0319166001600160a01b0390921691909117905560b854825260ba90526040812083516006909101919084908490811061292e5761292e614479565b60200260200101516001600160401b03166001600160401b0316815260200190815260200160002083828151811061296857612968614479565b602090810291909101810151825460018101845560009384529190922062ffffff90921691015583518490829081106129a3576129a3614479565b602002602001015160ba600060b854815260200190815260200160002060080160008484815181106129d7576129d7614479565b60200260200101516001600160401b03166001600160401b031681526020019081526020016000206000828254612a0e91906141b8565b9250508190555060ba600060b85481526020019081526020016000206007016000838381518110612a4157612a41614479565b60200260200101516001600160401b03166001600160401b03168152602001908152602001600020848281518110612a7b57612a7b614479565b6020908102919091018101518254600181018455600093845291909220015560ad54612f0e57848181518110612ab357612ab3614479565b602002602001015160b1600083815260200190815260200160002060006101000a8154816001600160a01b0302191690836001600160a01b03160217905550838181518110612b0457612b04614479565b602002602001015160b46000878481518110612b2257612b22614479565b60200260200101516001600160a01b03166001600160a01b03168152602001908152602001600020819055508060b36000878481518110612b6557612b65614479565b60200260200101516001600160a01b03166001600160a01b031681526020019081526020016000208190555060bb600060b95481526020019081526020016000206004016000838381518110612bbd57612bbd614479565b6020908102919091018101516001600160401b031682528101919091526040016000205460ff16612cd957600160bb600060b95481526020019081526020016000206004016000848481518110612c1657612c16614479565b60200260200101516001600160401b03166001600160401b0316815260200190815260200160002060006101000a81548160ff02191690831515021790555060bb600060b9548152602001908152602001600020600301828281518110612c7f57612c7f614479565b602002602001015190806001815401808255809150506001900390600052602060002090600491828204019190066008029091909190916101000a8154816001600160401b0302191690836001600160401b031602179055505b60bb600060b95481526020019081526020016000206005016000838381518110612d0557612d05614479565b60200260200101516001600160401b03166001600160401b03168152602001908152602001600020858281518110612d3f57612d3f614479565b602090810291909101810151825460018101845560009384528284200180546001600160a01b0319166001600160a01b0390921691909117905560b954825260bb905260408120835160069091019190849084908110612da157612da1614479565b60200260200101516001600160401b03166001600160401b03168152602001908152602001600020838281518110612ddb57612ddb614479565b602090810291909101810151825460018101845560009384529190922062ffffff9092169101558351849082908110612e1657612e16614479565b602002602001015160bb600060b95481526020019081526020016000206008016000848481518110612e4a57612e4a614479565b60200260200101516001600160401b03166001600160401b031681526020019081526020016000206000828254612e8191906141b8565b9250508190555060bb600060b95481526020019081526020016000206007016000838381518110612eb457612eb4614479565b60200260200101516001600160401b03166001600160401b03168152602001908152602001600020848281518110612eee57612eee614479565b602090810291909101810151825460018101845560009384529190922001555b80612f188161441e565b915050612535565b50835160ac5560ad54612f3357835160ad555b50504260ab55505050505050565b600054610100900460ff16612f685760405162461bcd60e51b8152600401610e2890614101565b610db8613131565b612f786135b2565b612f888560800151610100613161565b50509183526001600160a01b031660208301526001600160e01b031916604082015290565b612fba82600383516131c6565b61179a82826132cd565b6040516bffffffffffffffffffffffff193060601b1660208201526034810184905260009060540160408051808303601f1901815282825280516020918201206000818152600590925291812080546001600160a01b0319166001600160a01b038a1617905590925082917fb5e6e01e79f91267dc17b4e6314d5d4d03593d2ceee0fbb452b750bd70ea5af99190a2600254604051630200057560e51b81526001600160a01b0390911690634000aea09061308790889087908790600401613f78565b602060405180830381600087803b1580156130a157600080fd5b505af11580156130b5573d6000803e3d6000fd5b505050506040513d601f19601f820116820180604052508101906130d99190613aa0565b610b8f5760405162461bcd60e51b815260206004820152602360248201527f756e61626c6520746f207472616e73666572416e6443616c6c20746f206f7261604482015262636c6560e81b6064820152608401610e28565b600054610100900460ff166131585760405162461bcd60e51b8152600401610e2890614101565b610db8336123d0565b604080518082019091526060815260006020820152613181602083614439565b156131a957613191602083614439565b61319c906020614383565b6131a690836141b8565b91505b506020828101829052604080518085526000815290920101905290565b6017816001600160401b0316116131ea576114718360e0600585901b1683176132f4565b60ff816001600160401b03161161322657613210836018611fe0600586901b16176132f4565b50611471836001600160401b0383166001613319565b61ffff816001600160401b0316116132635761324d836019611fe0600586901b16176132f4565b50611471836001600160401b0383166002613319565b63ffffffff816001600160401b0316116132a25761328c83601a611fe0600586901b16176132f4565b50611471836001600160401b0383166004613319565b6132b783601b611fe0600586901b16176132f4565b50611471836001600160401b0383166008613319565b604080518082019091526060815260006020820152610da18384600001515184855161333f565b604080518082019091526060815260006020820152610da18384600001515184613429565b604080518082019091526060815260006020820152610b8f848560000151518585613485565b604080518082019091526060815260006020820152825182111561336257600080fd5b602085015161337183866141b8565b11156133a4576133a4856133948760200151878661338f91906141b8565b613506565b61339f906002614364565b613517565b6000808651805187602083010193508088870111156133c35787860182525b505050602084015b6020841061340357805182526133e26020836141b8565b91506133ef6020826141b8565b90506133fc602085614383565b93506133cb565b51815160001960208690036101000a019081169019919091161790525083949350505050565b6040805180820190915260608152600060208201528360200151831061345e5761345e848560200151600261339f9190614364565b83518051602085830101848153508085141561347b576001810182525b5093949350505050565b60408051808201909152606081526000602082015260208501516134a985846141b8565b11156134bd576134bd8561339486856141b8565b600060016134cd84610100614227565b6134d79190614383565b90508551838682010185831982511617815250805184870111156134fb5783860181525b509495945050505050565b600081831115611899575081610bbe565b81516135238383613161565b5061147183826132cd565b82805461353a906143e9565b90600052602060002090601f01602090048101928261355c57600085556135a2565b82601f1061357557805160ff19168380011785556135a2565b828001600101855582156135a2579182015b828111156135a2578251825591602001919060010190613587565b506135ae9291506135ed565b5090565b6040805160a0810182526000808252602080830182905282840182905260608084018390528451808601909552845283015290608082015290565b5b808211156135ae57600081556001016135ee565b600082601f83011261361357600080fd5b8135602061362861362383614195565b614165565b80838252828201915082860187848660051b890101111561364857600080fd5b60005b8581101561367057813561365e816144a5565b8452928401929084019060010161364b565b5090979650505050505050565b600082601f83011261368e57600080fd5b8135602061369e61362383614195565b80838252828201915082860187848660051b89010111156136be57600080fd5b60005b85811015613670576136d28261381a565b845292840192908401906001016136c1565b600082601f8301126136f557600080fd5b8135602061370561362383614195565b80838252828201915082860187848660051b890101111561372557600080fd5b60005b8581101561367057813584529284019290840190600101613728565b600082601f83011261375557600080fd5b8135602061376561362383614195565b80838252828201915082860187848660051b890101111561378557600080fd5b60005b858110156136705761379982613832565b84529284019290840190600101613788565b600082601f8301126137bc57600080fd5b81356001600160401b038111156137d5576137d561448f565b6137e8601f8201601f1916602001614165565b8181528460208386010111156137fd57600080fd5b816020850160208301376000918101602001919091529392505050565b803562ffffff8116811461382d57600080fd5b919050565b80356001600160401b038116811461382d57600080fd5b805169ffffffffffffffffffff8116811461382d57600080fd5b60006020828403121561387557600080fd5b8135610da1816144a5565b60008060006060848603121561389557600080fd5b83356138a0816144a5565b925060208401356138b0816144a5565b915060408401356001600160801b03811681146138cc57600080fd5b809150509250925092565b600080600080608085870312156138ed57600080fd5b84356138f8816144a5565b93506020850135613908816144a5565b92506040850135915061391d6060860161381a565b905092959194509250565b6000806040838503121561393b57600080fd5b8235613946816144a5565b915061395460208401613832565b90509250929050565b6000806000806080858703121561397357600080fd5b84356001600160401b038082111561398a57600080fd5b61399688838901613602565b955060208701359150808211156139ac57600080fd5b6139b8888389016136e4565b945060408701359150808211156139ce57600080fd5b6139da8883890161367d565b935060608701359150808211156139f057600080fd5b506139fd87828801613744565b91505092959194509250565b60006020808385031215613a1c57600080fd5b82516001600160401b03811115613a3257600080fd5b8301601f81018513613a4357600080fd5b8051613a5161362382614195565b80828252848201915084840188868560051b8701011115613a7157600080fd5b600094505b83851015613a94578051835260019490940193918501918501613a76565b50979650505050505050565b600060208284031215613ab257600080fd5b81518015158114610da157600080fd5b600080600080600060a08688031215613ada57600080fd5b8535945060208601356001600160401b0380821115613af857600080fd5b613b0489838a01613602565b95506040880135915080821115613b1a57600080fd5b613b2689838a016136e4565b94506060880135915080821115613b3c57600080fd5b613b4889838a0161367d565b93506080880135915080821115613b5e57600080fd5b50613b6b88828901613744565b9150509295509295909350565b60008060408385031215613b8b57600080fd5b82356001600160401b0380821115613ba257600080fd5b613bae868387016137ab565b93506020850135915080821115613bc457600080fd5b50613bd1858286016137ab565b9150509250929050565b600060208284031215613bed57600080fd5b5035919050565b600060208284031215613c0657600080fd5b5051919050565b60008060408385031215613c2057600080fd5b8235915061395460208401613832565b600060208284031215613c4257600080fd5b610da182613832565b60008060408385031215613c5e57600080fd5b613c6783613832565b91506020830135613c77816144a5565b809150509250929050565b60008060008060008060008060008060006101608c8e031215613ca457600080fd5b613cad8c613832565b9a5060208c0135613cbd816144a5565b995060408c0135613ccd816144a5565b985060608c0135613cdd816144a5565b975060808c0135965060a08c0135613cf4816144a5565b955060c08c0135613d04816144a5565b945060e08c0135613d14816144a5565b93506101008c0135613d25816144a5565b92506101208c0135613d36816144a5565b91506101408c0135613d47816144a5565b809150509295989b509295989b9093969950565b600080600060608486031215613d7057600080fd5b613d7984613832565b92506020840135613d89816144a5565b9150613d976040850161381a565b90509250925092565b600080600080600060a08688031215613db857600080fd5b613dc186613849565b9450602086015193506040860151925060608601519150613de460808701613849565b90509295509295909350565b600060208284031215613e0257600080fd5b815160ff81168114610da157600080fd5b600081518084526020808501945080840160005b838110156134fb5781516001600160a01b031687529582019590820190600101613e27565b600081518084526020808501945080840160005b838110156134fb57815187529582019590820190600101613e60565b600081518084526020808501945080840160005b838110156134fb5781516001600160401b031687529582019590820190600101613e90565b60008151808452613ecd8160208601602086016143bd565b601f01601f19169290920160200192915050565b60008351613ef38184602088016143bd565b835190830190613f078183602088016143bd565b01949350505050565b6001600160a01b0389811682526020820189905260408201889052861660608201526001600160e01b03198516608082015260a0810184905260c0810183905261010060e08201819052600090613f6983820185613eb5565b9b9a5050505050505050505050565b60018060a01b0384168152826020820152606060408201526000611f106060830184613eb5565b602081526000610da16020830184613e13565b608081526000613fc56080830187613e13565b602083820381850152613fd88288613e4c565b8481036040860152865180825282880193509082019060005b8181101561401257845162ffffff1683529383019391830191600101613ff1565b505084810360608601526140268187613e7c565b9998505050505050505050565b6080815260006140466080830187613e13565b82810360208401526140588187613e4c565b9050828103604084015261406c8186613e4c565b905082810360608401526140808185613e7c565b979650505050505050565b602081526000610da16020830184613e4c565b602081526000610da16020830184613eb5565b60208082526030908201527f50726f706f7361626c654f776e61626c653a206e6577206f776e65722069732060408201526f746865207a65726f206164647265737360801b606082015260800190565b6020808252602b908201527f496e697469616c697a61626c653a20636f6e7472616374206973206e6f74206960408201526a6e697469616c697a696e6760a81b606082015260800190565b828152604060208201526000610b8f6040830184613e13565b604051601f8201601f191681016001600160401b038111828210171561418d5761418d61448f565b604052919050565b60006001600160401b038211156141ae576141ae61448f565b5060051b60200190565b600082198211156141cb576141cb61444d565b500190565b6000826141df576141df614463565b500490565b600181815b8085111561421f5781600019048211156142055761420561444d565b8085161561421257918102915b93841c93908002906141e9565b509250929050565b6000610da1838361423e565b6000610da160ff8416835b60008261424d57506001610bbe565b8161425a57506000610bbe565b8160018114614270576002811461427a57614296565b6001915050610bbe565b60ff84111561428b5761428b61444d565b50506001821b610bbe565b5060208310610133831016604e8410600b84101617156142b9575081810a610bbe565b6142c383836141e4565b80600019048211156142d7576142d761444d565b029392505050565b60006001600160ff1b03818413828413808216868404861116156143055761430561444d565b600160ff1b60008712828116878305891216156143245761432461444d565b600087129250878205871284841616156143405761434061444d565b878505871281841616156143565761435661444d565b505050929093029392505050565b600081600019048311821515161561437e5761437e61444d565b500290565b6000828210156143955761439561444d565b500390565b600060ff821660ff8416808210156143b4576143b461444d565b90039392505050565b60005b838110156143d85781810151838201526020016143c0565b838111156114715750506000910152565b600181811c908216806143fd57607f821691505b6020821081141561189957634e487b7160e01b600052602260045260246000fd5b60006000198214156144325761443261444d565b5060010190565b60008261444857614448614463565b500690565b634e487b7160e01b600052601160045260246000fd5b634e487b7160e01b600052601260045260246000fd5b634e487b7160e01b600052603260045260246000fd5b634e487b7160e01b600052604160045260246000fd5b6001600160a01b03811681146120a557600080fdfe68747470733a2f2f6170702e6e65786c6162732e696f2f6170692f616c6c46756e64696e6752617465733f6d756c7469706c7946756e633d31382674696d65734e656746756e643d74727565266172726179733d74727565a26469706673582212208d100bbd7d1a1d67699737605cb6cecb8f997e7480d181ff131a3dbafd36485f64736f6c63430008070033","linkReferences":{}},"methodIdentifiers":{"allCurrentChainSelectorTokenShares(uint64)":"af696b34","allCurrentChainSelectorTokens(uint64)":"d1c68aa3","allCurrentChainSelectorVersions(uint64)":"221f3371","allOracleChainSelectorTokenShares(uint64)":"bf0d49c0","allOracleChainSelectorTokens(uint64)":"d050ca7c","allOracleChainSelectorVersions(uint64)":"a1adff88","concatenation(string,string)":"0e329357","crossChainFactoryBySelector(uint64)":"340fbc74","crossChainToken(uint64)":"19da7e2a","crossChainTokenSwapFee(uint64,address)":"652354ae","currentChainSelector()":"3d54cb6f","currentChainSelectorTokensCount(uint64)":"b6ad185b","currentChainSelectorsCount()":"69487b1c","currentFilledCount()":"b90b8a2a","currentList(uint256)":"9932ba4c","estimateAmountOut(address,address,uint128)":"0456f9c8","externalJobId()":"a8b54bd4","factoryV2()":"68e0d4e1","factoryV3()":"1d5f45f5","feeRate()":"978bbdb9","fulfillAssetsData(bytes32,address[],uint256[],uint24[],uint64[])":"b2c44b3f","getAmountOut(address,address,uint256,uint24)":"dd811ac9","getCurrentChainSelectorTotalShares(uint256,uint64)":"2a3ff8ad","getCurrentData(uint256)":"d3f7f266","getOracleData(uint256)":"536e3f6a","getPortfolioBalance()":"a8509fd8","indexFactory()":"e3fd0af2","indexFactoryBalancer()":"29d75de9","indexToken()":"e7d015f2","initialize(uint64,address,address,address,bytes32,address,address,address,address,address,address)":"9ebe560e","lastUpdateTime()":"c8f33c91","latestFeeUpdate()":"011ced5f","mockFillAssetsList(address[],uint256[],uint24[],uint64[])":"8bb8f1bb","mockUpdateCurrentList()":"4f9641b9","oracleChainSelectorTokensCount(uint64)":"fc698b4a","oracleChainSelectorsCount()":"8e9d7c18","oracleFilledCount()":"f1581787","oracleList(uint256)":"239aad0d","oraclePayment()":"0c02e130","owner()":"8da5cb5b","priceInWei()":"3c8da588","priceOracle()":"2630c12f","proposeOwner(address)":"b5ed298a","proposedOwner()":"d153b60c","quoter()":"c6bbd5a7","renounceOwnership()":"715018a6","requestAssetsData()":"7ca58c55","setCrossChainFactory(address,uint64)":"271040df","setCrossChainToken(uint64,address,uint24)":"f0cd5b72","setIndexFactory(address)":"d047937f","setIndexFactoryBalancer(address)":"ae214f39","setPriceFeed(address)":"724e78da","setPriceOracle(address)":"530e784f","setUrl(string,string)":"a73e1cbf","setVault(address)":"6817031b","swapRouterV2()":"744fbc7a","swapRouterV3()":"b631e80b","toUsdPriceFeed()":"63973fda","tokenChainSelector(address)":"ea8ecf04","tokenCurrentListIndex(address)":"914f0cc6","tokenCurrentMarketShare(address)":"0be52713","tokenOracleListIndex(address)":"8c88c10c","tokenOracleMarketShare(address)":"4b3e0b80","tokenSwapFee(address)":"32599665","totalCurrentChainSelectors()":"92e410ce","totalCurrentList()":"53fd4332","totalOracleChainSelectors()":"80acffa3","totalOracleList()":"c8599ded","transferOwnership(address)":"f2fde38b","updateCurrentList()":"8baa6bf1","vault()":"fbfa77cf","weth()":"3fc8cef3"},"id":5}