{"abi":[{"type":"function","name":"allCurrentChainSelectorTokenShares","inputs":[{"name":"_chainSelector","type":"uint64","internalType":"uint64"}],"outputs":[{"name":"","type":"uint256[]","internalType":"uint256[]"}],"stateMutability":"view"},{"type":"function","name":"allCurrentChainSelectorTokens","inputs":[{"name":"_chainSelector","type":"uint64","internalType":"uint64"}],"outputs":[{"name":"tokens","type":"address[]","internalType":"address[]"}],"stateMutability":"view"},{"type":"function","name":"allCurrentChainSelectorVersions","inputs":[{"name":"_chainSelector","type":"uint64","internalType":"uint64"}],"outputs":[{"name":"versions","type":"uint256[]","internalType":"uint256[]"}],"stateMutability":"view"},{"type":"function","name":"allOracleChainSelectorTokenShares","inputs":[{"name":"_chainSelector","type":"uint64","internalType":"uint64"}],"outputs":[{"name":"","type":"uint256[]","internalType":"uint256[]"}],"stateMutability":"view"},{"type":"function","name":"allOracleChainSelectorTokens","inputs":[{"name":"_chainSelector","type":"uint64","internalType":"uint64"}],"outputs":[{"name":"tokens","type":"address[]","internalType":"address[]"}],"stateMutability":"view"},{"type":"function","name":"allOracleChainSelectorVersions","inputs":[{"name":"_chainSelector","type":"uint64","internalType":"uint64"}],"outputs":[{"name":"versions","type":"uint256[]","internalType":"uint256[]"}],"stateMutability":"view"},{"type":"function","name":"concatenation","inputs":[{"name":"a","type":"string","internalType":"string"},{"name":"b","type":"string","internalType":"string"}],"outputs":[{"name":"","type":"string","internalType":"string"}],"stateMutability":"pure"},{"type":"function","name":"crossChainFactoryBySelector","inputs":[{"name":"","type":"uint64","internalType":"uint64"}],"outputs":[{"name":"","type":"address","internalType":"address"}],"stateMutability":"view"},{"type":"function","name":"crossChainToken","inputs":[{"name":"","type":"uint64","internalType":"uint64"}],"outputs":[{"name":"","type":"address","internalType":"address"}],"stateMutability":"view"},{"type":"function","name":"crossChainTokenSwapFee","inputs":[{"name":"","type":"uint64","internalType":"uint64"},{"name":"","type":"address","internalType":"address"}],"outputs":[{"name":"","type":"uint24","internalType":"uint24"}],"stateMutability":"view"},{"type":"function","name":"currentChainSelector","inputs":[],"outputs":[{"name":"","type":"uint64","internalType":"uint64"}],"stateMutability":"view"},{"type":"function","name":"currentChainSelectorTokensCount","inputs":[{"name":"_chainSelector","type":"uint64","internalType":"uint64"}],"outputs":[{"name":"","type":"uint256","internalType":"uint256"}],"stateMutability":"view"},{"type":"function","name":"currentChainSelectorsCount","inputs":[],"outputs":[{"name":"","type":"uint256","internalType":"uint256"}],"stateMutability":"view"},{"type":"function","name":"currentFilledCount","inputs":[],"outputs":[{"name":"","type":"uint256","internalType":"uint256"}],"stateMutability":"view"},{"type":"function","name":"currentList","inputs":[{"name":"","type":"uint256","internalType":"uint256"}],"outputs":[{"name":"","type":"address","internalType":"address"}],"stateMutability":"view"},{"type":"function","name":"estimateAmountOut","inputs":[{"name":"tokenIn","type":"address","internalType":"address"},{"name":"tokenOut","type":"address","internalType":"address"},{"name":"amountIn","type":"uint128","internalType":"uint128"},{"name":"fee","type":"uint24","internalType":"uint24"}],"outputs":[{"name":"amountOut","type":"uint256","internalType":"uint256"}],"stateMutability":"view"},{"type":"function","name":"externalJobId","inputs":[],"outputs":[{"name":"","type":"bytes32","internalType":"bytes32"}],"stateMutability":"view"},{"type":"function","name":"factoryV2","inputs":[],"outputs":[{"name":"","type":"address","internalType":"contract IUniswapV2Factory"}],"stateMutability":"view"},{"type":"function","name":"factoryV3","inputs":[],"outputs":[{"name":"","type":"address","internalType":"contract IUniswapV3Factory"}],"stateMutability":"view"},{"type":"function","name":"feeRate","inputs":[],"outputs":[{"name":"","type":"uint8","internalType":"uint8"}],"stateMutability":"view"},{"type":"function","name":"fulfillAssetsData","inputs":[{"name":"requestId","type":"bytes32","internalType":"bytes32"},{"name":"_tokens","type":"address[]","internalType":"address[]"},{"name":"_marketShares","type":"uint256[]","internalType":"uint256[]"},{"name":"_swapFees","type":"uint24[]","internalType":"uint24[]"},{"name":"_chainSelectors","type":"uint64[]","internalType":"uint64[]"}],"outputs":[],"stateMutability":"nonpayable"},{"type":"function","name":"getAmountOut","inputs":[{"name":"tokenIn","type":"address","internalType":"address"},{"name":"tokenOut","type":"address","internalType":"address"},{"name":"amountIn","type":"uint256","internalType":"uint256"},{"name":"_swapFee","type":"uint24","internalType":"uint24"}],"outputs":[{"name":"finalAmountOutValue","type":"uint256","internalType":"uint256"}],"stateMutability":"view"},{"type":"function","name":"getCurrentChainSelectorTotalShares","inputs":[{"name":"index","type":"uint256","internalType":"uint256"},{"name":"chainSelector","type":"uint64","internalType":"uint64"}],"outputs":[{"name":"","type":"uint256","internalType":"uint256"}],"stateMutability":"view"},{"type":"function","name":"getCurrentData","inputs":[{"name":"index","type":"uint256","internalType":"uint256"}],"outputs":[{"name":"tokens","type":"address[]","internalType":"address[]"},{"name":"marketShares","type":"uint256[]","internalType":"uint256[]"},{"name":"swapFees","type":"uint24[]","internalType":"uint24[]"},{"name":"chainSelectors","type":"uint64[]","internalType":"uint64[]"}],"stateMutability":"view"},{"type":"function","name":"getOracleData","inputs":[{"name":"index","type":"uint256","internalType":"uint256"}],"outputs":[{"name":"tokens","type":"address[]","internalType":"address[]"},{"name":"marketShares","type":"uint256[]","internalType":"uint256[]"},{"name":"swapFees","type":"uint256[]","internalType":"uint256[]"},{"name":"chainSelectors","type":"uint64[]","internalType":"uint64[]"}],"stateMutability":"view"},{"type":"function","name":"getPendingRequest","inputs":[{"name":"requestId","type":"bytes32","internalType":"bytes32"}],"outputs":[{"name":"","type":"address","internalType":"address"}],"stateMutability":"view"},{"type":"function","name":"getPortfolioBalance","inputs":[],"outputs":[{"name":"","type":"uint256","internalType":"uint256"}],"stateMutability":"view"},{"type":"function","name":"indexFactory","inputs":[],"outputs":[{"name":"","type":"address","internalType":"address"}],"stateMutability":"view"},{"type":"function","name":"indexFactoryBalancer","inputs":[],"outputs":[{"name":"","type":"address","internalType":"address"}],"stateMutability":"view"},{"type":"function","name":"indexToken","inputs":[],"outputs":[{"name":"","type":"address","internalType":"contract IndexToken"}],"stateMutability":"view"},{"type":"function","name":"initialize","inputs":[{"name":"_currentChainSelector","type":"uint64","internalType":"uint64"},{"name":"_token","type":"address","internalType":"address payable"},{"name":"_chainlinkToken","type":"address","internalType":"address"},{"name":"_oracleAddress","type":"address","internalType":"address"},{"name":"_externalJobId","type":"bytes32","internalType":"bytes32"},{"name":"_toUsdPriceFeed","type":"address","internalType":"address"},{"name":"_weth","type":"address","internalType":"address"},{"name":"_swapRouterV3","type":"address","internalType":"address"},{"name":"_factoryV3","type":"address","internalType":"address"},{"name":"_swapRouterV2","type":"address","internalType":"address"},{"name":"_factoryV2","type":"address","internalType":"address"}],"outputs":[],"stateMutability":"nonpayable"},{"type":"function","name":"lastUpdateTime","inputs":[],"outputs":[{"name":"","type":"uint256","internalType":"uint256"}],"stateMutability":"view"},{"type":"function","name":"latestFeeUpdate","inputs":[],"outputs":[{"name":"","type":"uint256","internalType":"uint256"}],"stateMutability":"view"},{"type":"function","name":"mockFillAssetsList","inputs":[{"name":"_tokens","type":"address[]","internalType":"address[]"},{"name":"_marketShares","type":"uint256[]","internalType":"uint256[]"},{"name":"_swapFees","type":"uint24[]","internalType":"uint24[]"},{"name":"_chainSelectors","type":"uint64[]","internalType":"uint64[]"}],"outputs":[],"stateMutability":"nonpayable"},{"type":"function","name":"mockUpdateCurrentList","inputs":[],"outputs":[],"stateMutability":"nonpayable"},{"type":"function","name":"oracleChainSelectorTokensCount","inputs":[{"name":"_chainSelector","type":"uint64","internalType":"uint64"}],"outputs":[{"name":"","type":"uint256","internalType":"uint256"}],"stateMutability":"view"},{"type":"function","name":"oracleChainSelectorsCount","inputs":[],"outputs":[{"name":"","type":"uint256","internalType":"uint256"}],"stateMutability":"view"},{"type":"function","name":"oracleFilledCount","inputs":[],"outputs":[{"name":"","type":"uint256","internalType":"uint256"}],"stateMutability":"view"},{"type":"function","name":"oracleList","inputs":[{"name":"","type":"uint256","internalType":"uint256"}],"outputs":[{"name":"","type":"address","internalType":"address"}],"stateMutability":"view"},{"type":"function","name":"oraclePayment","inputs":[],"outputs":[{"name":"","type":"uint256","internalType":"uint256"}],"stateMutability":"view"},{"type":"function","name":"owner","inputs":[],"outputs":[{"name":"","type":"address","internalType":"address"}],"stateMutability":"view"},{"type":"function","name":"priceInWei","inputs":[],"outputs":[{"name":"","type":"uint256","internalType":"uint256"}],"stateMutability":"view"},{"type":"function","name":"priceOracle","inputs":[],"outputs":[{"name":"","type":"address","internalType":"address"}],"stateMutability":"view"},{"type":"function","name":"proposeOwner","inputs":[{"name":"_proposedOwner","type":"address","internalType":"address"}],"outputs":[],"stateMutability":"nonpayable"},{"type":"function","name":"proposedOwner","inputs":[],"outputs":[{"name":"","type":"address","internalType":"address"}],"stateMutability":"view"},{"type":"function","name":"quoter","inputs":[],"outputs":[{"name":"","type":"address","internalType":"contract IQuoter"}],"stateMutability":"view"},{"type":"function","name":"renounceOwnership","inputs":[],"outputs":[],"stateMutability":"nonpayable"},{"type":"function","name":"requestAssetsData","inputs":[],"outputs":[{"name":"","type":"bytes32","internalType":"bytes32"}],"stateMutability":"nonpayable"},{"type":"function","name":"setCrossChainFactory","inputs":[{"name":"_crossChainFactoryAddress","type":"address","internalType":"address"},{"name":"_chainSelector","type":"uint64","internalType":"uint64"}],"outputs":[],"stateMutability":"nonpayable"},{"type":"function","name":"setCrossChainToken","inputs":[{"name":"_chainSelector","type":"uint64","internalType":"uint64"},{"name":"_crossChainToken","type":"address","internalType":"address"},{"name":"_swapFee","type":"uint24","internalType":"uint24"}],"outputs":[],"stateMutability":"nonpayable"},{"type":"function","name":"setIndexFactory","inputs":[{"name":"_indexFactory","type":"address","internalType":"address"}],"outputs":[],"stateMutability":"nonpayable"},{"type":"function","name":"setIndexFactoryBalancer","inputs":[{"name":"_indexFactoryBalancer","type":"address","internalType":"address"}],"outputs":[],"stateMutability":"nonpayable"},{"type":"function","name":"setPriceFeed","inputs":[{"name":"_toUsdPricefeed","type":"address","internalType":"address"}],"outputs":[],"stateMutability":"nonpayable"},{"type":"function","name":"setPriceOracle","inputs":[{"name":"_priceOracle","type":"address","internalType":"address"}],"outputs":[],"stateMutability":"nonpayable"},{"type":"function","name":"setUrl","inputs":[{"name":"_beforeAddress","type":"string","internalType":"string"},{"name":"_afterAddress","type":"string","internalType":"string"}],"outputs":[],"stateMutability":"nonpayable"},{"type":"function","name":"setVault","inputs":[{"name":"_vaultAddress","type":"address","internalType":"address"}],"outputs":[],"stateMutability":"nonpayable"},{"type":"function","name":"swapRouterV2","inputs":[],"outputs":[{"name":"","type":"address","internalType":"contract IUniswapV2Router02"}],"stateMutability":"view"},{"type":"function","name":"swapRouterV3","inputs":[],"outputs":[{"name":"","type":"address","internalType":"contract ISwapRouter"}],"stateMutability":"view"},{"type":"function","name":"toUsdPriceFeed","inputs":[],"outputs":[{"name":"","type":"address","internalType":"contract AggregatorV3Interface"}],"stateMutability":"view"},{"type":"function","name":"tokenChainSelector","inputs":[{"name":"","type":"address","internalType":"address"}],"outputs":[{"name":"","type":"uint64","internalType":"uint64"}],"stateMutability":"view"},{"type":"function","name":"tokenCurrentListIndex","inputs":[{"name":"","type":"address","internalType":"address"}],"outputs":[{"name":"","type":"uint256","internalType":"uint256"}],"stateMutability":"view"},{"type":"function","name":"tokenCurrentMarketShare","inputs":[{"name":"","type":"address","internalType":"address"}],"outputs":[{"name":"","type":"uint256","internalType":"uint256"}],"stateMutability":"view"},{"type":"function","name":"tokenOracleListIndex","inputs":[{"name":"","type":"address","internalType":"address"}],"outputs":[{"name":"","type":"uint256","internalType":"uint256"}],"stateMutability":"view"},{"type":"function","name":"tokenOracleMarketShare","inputs":[{"name":"","type":"address","internalType":"address"}],"outputs":[{"name":"","type":"uint256","internalType":"uint256"}],"stateMutability":"view"},{"type":"function","name":"tokenSwapFee","inputs":[{"name":"","type":"address","internalType":"address"}],"outputs":[{"name":"","type":"uint24","internalType":"uint24"}],"stateMutability":"view"},{"type":"function","name":"totalCurrentChainSelectors","inputs":[],"outputs":[{"name":"","type":"uint256","internalType":"uint256"}],"stateMutability":"view"},{"type":"function","name":"totalCurrentList","inputs":[],"outputs":[{"name":"","type":"uint256","internalType":"uint256"}],"stateMutability":"view"},{"type":"function","name":"totalOracleChainSelectors","inputs":[],"outputs":[{"name":"","type":"uint256","internalType":"uint256"}],"stateMutability":"view"},{"type":"function","name":"totalOracleList","inputs":[],"outputs":[{"name":"","type":"uint256","internalType":"uint256"}],"stateMutability":"view"},{"type":"function","name":"transferOwnership","inputs":[{"name":"newOwner","type":"address","internalType":"address"}],"outputs":[],"stateMutability":"nonpayable"},{"type":"function","name":"updateCurrentList","inputs":[],"outputs":[],"stateMutability":"nonpayable"},{"type":"function","name":"vault","inputs":[],"outputs":[{"name":"","type":"address","internalType":"contract Vault"}],"stateMutability":"view"},{"type":"function","name":"weth","inputs":[],"outputs":[{"name":"","type":"address","internalType":"contract IWETH"}],"stateMutability":"view"},{"type":"event","name":"ChainlinkCancelled","inputs":[{"name":"id","type":"bytes32","indexed":true,"internalType":"bytes32"}],"anonymous":false},{"type":"event","name":"ChainlinkFulfilled","inputs":[{"name":"id","type":"bytes32","indexed":true,"internalType":"bytes32"}],"anonymous":false},{"type":"event","name":"ChainlinkRequested","inputs":[{"name":"id","type":"bytes32","indexed":true,"internalType":"bytes32"}],"anonymous":false},{"type":"event","name":"Initialized","inputs":[{"name":"version","type":"uint8","indexed":false,"internalType":"uint8"}],"anonymous":false},{"type":"event","name":"OwnershipTransferred","inputs":[{"name":"previousOwner","type":"address","indexed":true,"internalType":"address"},{"name":"newOwner","type":"address","indexed":true,"internalType":"address"}],"anonymous":false}],"bytecode":{"object":"0x6080604052348015600e575f80fd5b506175568061001c5f395ff3fe608060405234801561000f575f80fd5b5060043610610431575f3560e01c80638da5cb5b11610234578063bf0d49c011610139578063dd811ac9116100c1578063f0cd5b7211610085578063f0cd5b7214610da3578063f158178714610dbf578063f2fde38b14610ddd578063fbfa77cf14610df9578063fc698b4a14610e1757610431565b8063dd811ac914610cd7578063e3fd0af214610d07578063e7d015f214610d25578063ea8ecf0414610d43578063ee7bd3e214610d7357610431565b8063d047937f11610108578063d047937f14610c0a578063d050ca7c14610c26578063d153b60c14610c56578063d1c68aa314610c74578063d3f7f26614610ca457610431565b8063bf0d49c014610b80578063c6bbd5a714610bb0578063c8599ded14610bce578063c8f33c9114610bec57610431565b8063a8509fd8116101bc578063b2c44b3f1161018b578063b2c44b3f14610adc578063b5ed298a14610af8578063b631e80b14610b14578063b6ad185b14610b32578063b90b8a2a14610b6257610431565b8063a8509fd814610a54578063a8b54bd414610a72578063ae214f3914610a90578063af696b3414610aac57610431565b8063978bbdb911610203578063978bbdb91461099e5780639932ba4c146109bc5780639ebe560e146109ec578063a1adff8814610a08578063a73e1cbf14610a3857610431565b80638da5cb5b146109145780638e9d7c1814610932578063914f0cc61461095057806392e410ce1461098057610431565b80634f9641b91161033a578063715018a6116102c257806380acffa31161029157806380acffa31461087057806388b12d551461088e5780638baa6bf1146108be5780638bb8f1bb146108c85780638c88c10c146108e457610431565b8063715018a61461080e578063724e78da14610818578063744fbc7a146108345780637ca58c551461085257610431565b806363973fda1161030957806363973fda14610768578063652354ae146107865780636817031b146107b657806368e0d4e1146107d257806369487b1c146107f057610431565b80634f9641b9146106f1578063530e784f146106fb578063536e3f6a1461071757806353fd43321461074a57610431565b8063271040df116103bd578063340fbc741161038c578063340fbc74146106375780633c8da588146106675780633d54cb6f146106855780633fc8cef3146106a35780634b3e0b80146106c157610431565b8063271040df1461059d57806329d75de9146105b95780632a3ff8ad146105d7578063325996651461060757610431565b806319da7e2a1161040457806319da7e2a146104d15780631d5f45f514610501578063221f33711461051f578063239aad0d1461054f5780632630c12f1461057f57610431565b8063011ced5f146104355780630be52713146104535780630c02e130146104835780630e329357146104a1575b5f80fd5b61043d610e47565b60405161044a9190614f0a565b60405180910390f35b61046d60048036038101906104689190614f8e565b610e4d565b60405161047a9190614f0a565b60405180910390f35b61048b610e62565b6040516104989190614f0a565b60405180910390f35b6104bb60048036038101906104b691906150f5565b610e68565b6040516104c891906151cb565b60405180910390f35b6104eb60048036038101906104e69190615228565b610e94565b6040516104f89190615262565b60405180910390f35b610509610ec4565b60405161051691906152d6565b60405180910390f35b61053960048036038101906105349190615228565b610ee9565b60405161054691906153a6565b60405180910390f35b610569600480360381019061056491906153f0565b610f78565b6040516105769190615262565b60405180910390f35b610587610fa8565b6040516105949190615262565b60405180910390f35b6105b760048036038101906105b2919061541b565b610fce565b005b6105c161103d565b6040516105ce9190615262565b60405180910390f35b6105f160048036038101906105ec9190615459565b611062565b6040516105fe9190614f0a565b60405180910390f35b610621600480360381019061061c9190614f8e565b6110a3565b60405161062e91906154b4565b60405180910390f35b610651600480360381019061064c9190615228565b6110c2565b60405161065e9190615262565b60405180910390f35b61066f6110f2565b60405161067c9190614f0a565b60405180910390f35b61068d61122f565b60405161069a91906154dc565b60405180910390f35b6106ab611248565b6040516106b89190615515565b60405180910390f35b6106db60048036038101906106d69190614f8e565b61126d565b6040516106e89190614f0a565b60405180910390f35b6106f9611282565b005b61071560048036038101906107109190614f8e565b611294565b005b610731600480360381019061072c91906153f0565b61134e565b604051610741949392919061569c565b60405180910390f35b61075261152f565b60405161075f9190614f0a565b60405180910390f35b610770611535565b60405161077d919061571b565b60405180910390f35b6107a0600480360381019061079b9190615734565b61155a565b6040516107ad91906154b4565b60405180910390f35b6107d060048036038101906107cb9190614f8e565b611586565b005b6107da6115d1565b6040516107e79190615792565b60405180910390f35b6107f86115f6565b6040516108059190614f0a565b60405180910390f35b610816611616565b005b610832600480360381019061082d9190614f8e565b611629565b005b61083c6116e2565b60405161084991906157cb565b60405180910390f35b61085a611707565b60405161086791906157fc565b60405180910390f35b610878611a9d565b6040516108859190614f0a565b60405180910390f35b6108a860048036038101906108a3919061583f565b611aa3565b6040516108b59190615262565b60405180910390f35b6108c6611adc565b005b6108e260048036038101906108dd9190615b98565b611b75565b005b6108fe60048036038101906108f99190614f8e565b611b8f565b60405161090b9190614f0a565b60405180910390f35b61091c611ba4565b6040516109299190615262565b60405180910390f35b61093a611bcc565b6040516109479190614f0a565b60405180910390f35b61096a60048036038101906109659190614f8e565b611bec565b6040516109779190614f0a565b60405180910390f35b610988611c01565b6040516109959190614f0a565b60405180910390f35b6109a6611c07565b6040516109b39190615c87565b60405180910390f35b6109d660048036038101906109d191906153f0565b611c19565b6040516109e39190615262565b60405180910390f35b610a066004803603810190610a019190615cdb565b611c49565b005b610a226004803603810190610a1d9190615228565b612004565b604051610a2f91906153a6565b60405180910390f35b610a526004803603810190610a4d91906150f5565b612093565b005b610a5c6120bf565b604051610a699190614f0a565b60405180910390f35b610a7a612294565b604051610a8791906157fc565b60405180910390f35b610aaa6004803603810190610aa59190614f8e565b61229a565b005b610ac66004803603810190610ac19190615228565b6122e5565b604051610ad391906153a6565b60405180910390f35b610af66004803603810190610af19190615dc8565b612374565b005b610b126004803603810190610b0d9190614f8e565b612487565b005b610b1c612540565b604051610b299190615ecf565b60405180910390f35b610b4c6004803603810190610b479190615228565b612565565b604051610b599190614f0a565b60405180910390f35b610b6a6125aa565b604051610b779190614f0a565b60405180910390f35b610b9a6004803603810190610b959190615228565b6125b0565b604051610ba791906153a6565b60405180910390f35b610bb861263f565b604051610bc59190615f08565b60405180910390f35b610bd6612664565b604051610be39190614f0a565b60405180910390f35b610bf461266a565b604051610c019190614f0a565b60405180910390f35b610c246004803603810190610c1f9190614f8e565b612670565b005b610c406004803603810190610c3b9190615228565b6126bb565b604051610c4d9190615f21565b60405180910390f35b610c5e61277f565b604051610c6b9190615262565b60405180910390f35b610c8e6004803603810190610c899190615228565b6127a4565b604051610c9b9190615f21565b60405180910390f35b610cbe6004803603810190610cb991906153f0565b612868565b604051610cce9493929190615ff8565b60405180910390f35b610cf16004803603810190610cec9190616057565b612a72565b604051610cfe9190614f0a565b60405180910390f35b610d0f612c55565b604051610d1c9190615262565b60405180910390f35b610d2d612c7a565b604051610d3a91906160ec565b60405180910390f35b610d5d6004803603810190610d589190614f8e565b612c9f565b604051610d6a91906154dc565b60405180910390f35b610d8d6004803603810190610d88919061614a565b612cc3565b604051610d9a9190614f0a565b60405180910390f35b610dbd6004803603810190610db891906161ae565b612d91565b005b610dc7612e7d565b604051610dd49190614f0a565b60405180910390f35b610df76004803603810190610df29190614f8e565b612e83565b005b610e01612ffa565b604051610e0e919061621e565b60405180910390f35b610e316004803603810190610e2c9190615228565b61301f565b604051610e3e9190614f0a565b60405180910390f35b60a45481565b60b4602052805f5260405f205f915090505481565b60a95481565b60608282604051602001610e7d92919061627b565b604051602081830303815290604052905092915050565b60a0602052805f5260405f205f915054906101000a900473ffffffffffffffffffffffffffffffffffffffff1681565b60bd5f9054906101000a900473ffffffffffffffffffffffffffffffffffffffff1681565b606060bb5f60b95481526020019081526020015f206006015f8367ffffffffffffffff1667ffffffffffffffff1681526020019081526020015f20805480602002602001604051908101604052809291908181526020018280548015610f6c57602002820191905f5260205f20905b815481526020019060010190808311610f58575b50505050509050919050565b60b0602052805f5260405f205f915054906101000a900473ffffffffffffffffffffffffffffffffffffffff1681565b60a560089054906101000a900473ffffffffffffffffffffffffffffffffffffffff1681565b610fd6613064565b8160a25f8367ffffffffffffffff1667ffffffffffffffff1681526020019081526020015f205f6101000a81548173ffffffffffffffffffffffffffffffffffffffff021916908373ffffffffffffffffffffffffffffffffffffffff1602179055505050565b609f5f9054906101000a900473ffffffffffffffffffffffffffffffffffffffff1681565b5f60bb5f8481526020019081526020015f206008015f8367ffffffffffffffff1667ffffffffffffffff1681526020019081526020015f2054905092915050565b60b6602052805f5260405f205f915054906101000a900462ffffff1681565b60a2602052805f5260405f205f915054906101000a900473ffffffffffffffffffffffffffffffffffffffff1681565b5f8060aa5f9054906101000a900473ffffffffffffffffffffffffffffffffffffffff1673ffffffffffffffffffffffffffffffffffffffff1663feaf968c6040518163ffffffff1660e01b815260040160a060405180830381865afa15801561115e573d5f803e3d5ffd5b505050506040513d601f19601f820116820180604052508101906111829190616324565b5050509150505f60aa5f9054906101000a900473ffffffffffffffffffffffffffffffffffffffff1673ffffffffffffffffffffffffffffffffffffffff1663313ce5676040518163ffffffff1660e01b8152600401602060405180830381865afa1580156111f3573d5f803e3d5ffd5b505050506040513d601f19601f8201168201806040525081019061121791906163c5565b9050611225828260126130e2565b9150819250505090565b60a55f9054906101000a900467ffffffffffffffff1681565b60c05f9054906101000a900473ffffffffffffffffffffffffffffffffffffffff1681565b60b5602052805f5260405f205f915090505481565b61128a613064565b611292613148565b565b61129c613064565b5f73ffffffffffffffffffffffffffffffffffffffff168173ffffffffffffffffffffffffffffffffffffffff160361130a576040517f08c379a000000000000000000000000000000000000000000000000000000000815260040161130190616460565b60405180910390fd5b8060a560086101000a81548173ffffffffffffffffffffffffffffffffffffffff021916908373ffffffffffffffffffffffffffffffffffffffff16021790555050565b6060806060805f60ba5f8781526020019081526020015f209050805f01816001018260020183600301838054806020026020016040519081016040528092919081815260200182805480156113f557602002820191905f5260205f20905b815f9054906101000a900473ffffffffffffffffffffffffffffffffffffffff1673ffffffffffffffffffffffffffffffffffffffff16815260200190600101908083116113ac575b505050505093508280548060200260200160405190810160405280929190818152602001828054801561144557602002820191905f5260205f20905b815481526020019060010190808311611431575b505050505092508180548060200260200160405190810160405280929190818152602001828054801561149557602002820191905f5260205f20905b815481526020019060010190808311611481575b505050505091508080548060200260200160405190810160405280929190818152602001828054801561151857602002820191905f5260205f20905f905b82829054906101000a900467ffffffffffffffff1667ffffffffffffffff16815260200190600801906020826007010492830192600103820291508084116114d35790505b505050505090509450945094509450509193509193565b60ad5481565b60aa5f9054906101000a900473ffffffffffffffffffffffffffffffffffffffff1681565b60a1602052815f5260405f20602052805f5260405f205f915091509054906101000a900462ffffff1681565b61158e613064565b8060c25f6101000a81548173ffffffffffffffffffffffffffffffffffffffff021916908373ffffffffffffffffffffffffffffffffffffffff16021790555050565b60bf5f9054906101000a900473ffffffffffffffffffffffffffffffffffffffff1681565b5f60bb5f60b95481526020019081526020015f2060030180549050905090565b61161e613064565b6116275f613876565b565b611631613064565b5f73ffffffffffffffffffffffffffffffffffffffff168173ffffffffffffffffffffffffffffffffffffffff160361169f576040517f08c379a0000000000000000000000000000000000000000000000000000000008152600401611696906164ee565b60405180910390fd5b8060aa5f6101000a81548173ffffffffffffffffffffffffffffffffffffffff021916908373ffffffffffffffffffffffffffffffffffffffff16021790555050565b60be5f9054906101000a900473ffffffffffffffffffffffffffffffffffffffff1681565b5f8061182360a6805461171990616539565b80601f016020809104026020016040519081016040528092919081815260200182805461174590616539565b80156117905780601f1061176757610100808354040283529160200191611790565b820191905f5260205f20905b81548152906001019060200180831161177357829003601f168201915b505050505060a780546117a290616539565b80601f01602080910402602001604051908101604052809291908181526020018280546117ce90616539565b80156118195780601f106117f057610100808354040283529160200191611819565b820191905f5260205f20905b8154815290600101906020018083116117fc57829003601f168201915b5050505050610e68565b90505f61183a60a8543063b2c44b3f60e01b613939565b90506118866040518060400160405280600381526020017f6765740000000000000000000000000000000000000000000000000000000000815250838361396a9092919063ffffffff16565b6119056040518060400160405280600581526020017f70617468310000000000000000000000000000000000000000000000000000008152506040518060400160405280600e81526020017f726573756c74732c746f6b656e730000000000000000000000000000000000008152508361396a9092919063ffffffff16565b6119846040518060400160405280600581526020017f70617468320000000000000000000000000000000000000000000000000000008152506040518060400160405280601481526020017f726573756c74732c6d61726b65745368617265730000000000000000000000008152508361396a9092919063ffffffff16565b611a036040518060400160405280600581526020017f70617468330000000000000000000000000000000000000000000000000000008152506040518060400160405280601081526020017f726573756c74732c7377617046656573000000000000000000000000000000008152508361396a9092919063ffffffff16565b611a826040518060400160405280600581526020017f70617468340000000000000000000000000000000000000000000000000000008152506040518060400160405280601581526020017f726573756c74732c636861696e53656c6563746f7200000000000000000000008152508361396a9092919063ffffffff16565b611a96611a8d61399d565b8260a9546139c5565b9250505090565b60ae5481565b5f60055f8381526020019081526020015f205f9054906101000a900473ffffffffffffffffffffffffffffffffffffffff169050919050565b609f5f9054906101000a900473ffffffffffffffffffffffffffffffffffffffff1673ffffffffffffffffffffffffffffffffffffffff163373ffffffffffffffffffffffffffffffffffffffff1614611b6b576040517f08c379a0000000000000000000000000000000000000000000000000000000008152600401611b62906165d9565b60405180910390fd5b611b73613148565b565b611b7d613064565b611b8984848484613a8c565b50505050565b60b2602052805f5260405f205f915090505481565b5f60385f9054906101000a900473ffffffffffffffffffffffffffffffffffffffff16905090565b5f60ba5f60b85481526020019081526020015f2060030180549050905090565b60b3602052805f5260405f205f915090505481565b60af5481565b60a35f9054906101000a900460ff1681565b60b1602052805f5260405f205f915054906101000a900473ffffffffffffffffffffffffffffffffffffffff1681565b5f8060019054906101000a900460ff16159050808015611c78575060015f8054906101000a900460ff1660ff16105b80611ca45750611c873061464e565b158015611ca3575060015f8054906101000a900460ff1660ff16145b5b611ce3576040517f08c379a0000000000000000000000000000000000000000000000000000000008152600401611cda90616667565b60405180910390fd5b60015f806101000a81548160ff021916908360ff1602179055508015611d1e5760015f60016101000a81548160ff0219169083151502179055505b611d26614670565b8b60a55f6101000a81548167ffffffffffffffff021916908367ffffffffffffffff1602179055508a609d5f6101000a81548173ffffffffffffffffffffffffffffffffffffffff021916908373ffffffffffffffffffffffffffffffffffffffff160217905550611d978a6146c8565b611da08961470b565b8760a881905550600a670de0b6b3a76400006001611dbe91906166b2565b611dc89190616720565b60a9819055508660aa5f6101000a81548173ffffffffffffffffffffffffffffffffffffffff021916908373ffffffffffffffffffffffffffffffffffffffff1602179055508560c05f6101000a81548173ffffffffffffffffffffffffffffffffffffffff021916908373ffffffffffffffffffffffffffffffffffffffff1602179055508460bc5f6101000a81548173ffffffffffffffffffffffffffffffffffffffff021916908373ffffffffffffffffffffffffffffffffffffffff1602179055508360bd5f6101000a81548173ffffffffffffffffffffffffffffffffffffffff021916908373ffffffffffffffffffffffffffffffffffffffff1602179055508260be5f6101000a81548173ffffffffffffffffffffffffffffffffffffffff021916908373ffffffffffffffffffffffffffffffffffffffff1602179055508160bf5f6101000a81548173ffffffffffffffffffffffffffffffffffffffff021916908373ffffffffffffffffffffffffffffffffffffffff1602179055506040518060600160405280602a81526020016174c9602a913960a69081611f7591906168e4565b506040518060600160405280602e81526020016174f3602e913960a79081611f9d91906168e4565b508015611ff6575f8060016101000a81548160ff0219169083151502179055507f7f26b83ff96e1f2b6a682f133852f6798a09c465da95921460cefb38474024986001604051611fed91906169ec565b60405180910390a15b505050505050505050505050565b606060ba5f60b85481526020019081526020015f206006015f8367ffffffffffffffff1667ffffffffffffffff1681526020019081526020015f2080548060200260200160405190810160405280929190818152602001828054801561208757602002820191905f5260205f20905b815481526020019060010190808311612073575b50505050509050919050565b61209b613064565b8160a690816120aa91906168e4565b508060a790816120ba91906168e4565b505050565b5f805f5b60ad5481101561228c575f61226e60b15f8481526020019081526020015f205f9054906101000a900473ffffffffffffffffffffffffffffffffffffffff1660c05f9054906101000a900473ffffffffffffffffffffffffffffffffffffffff1660b15f8681526020019081526020015f205f9054906101000a900473ffffffffffffffffffffffffffffffffffffffff1673ffffffffffffffffffffffffffffffffffffffff166370a0823160c25f9054906101000a900473ffffffffffffffffffffffffffffffffffffffff166040518263ffffffff1660e01b81526004016121ae9190615262565b602060405180830381865afa1580156121c9573d5f803e3d5ffd5b505050506040513d601f19601f820116820180604052508101906121ed9190616a05565b60b65f60b15f8981526020019081526020015f205f9054906101000a900473ffffffffffffffffffffffffffffffffffffffff1673ffffffffffffffffffffffffffffffffffffffff1673ffffffffffffffffffffffffffffffffffffffff1681526020019081526020015f205f9054906101000a900462ffffff16612a72565b9050808361227c9190616a30565b92505080806001019150506120c3565b508091505090565b60a85481565b6122a2613064565b80609f5f6101000a81548173ffffffffffffffffffffffffffffffffffffffff021916908373ffffffffffffffffffffffffffffffffffffffff16021790555050565b606060bb5f60b95481526020019081526020015f206007015f8367ffffffffffffffff1667ffffffffffffffff1681526020019081526020015f2080548060200260200160405190810160405280929190818152602001828054801561236857602002820191905f5260205f20905b815481526020019060010190808311612354575b50505050509050919050565b8460055f8281526020019081526020015f205f9054906101000a900473ffffffffffffffffffffffffffffffffffffffff1673ffffffffffffffffffffffffffffffffffffffff163373ffffffffffffffffffffffffffffffffffffffff1614612413576040517f08c379a000000000000000000000000000000000000000000000000000000000815260040161240a90616ad3565b60405180910390fd5b60055f8281526020019081526020015f205f6101000a81549073ffffffffffffffffffffffffffffffffffffffff0219169055807f7cc135e0cebb02c3480ae5d74d377283180a2601f8f644edf7987b009316c63a60405160405180910390a261247f85858585613a8c565b505050505050565b61248f613064565b5f73ffffffffffffffffffffffffffffffffffffffff168173ffffffffffffffffffffffffffffffffffffffff16036124fd576040517f08c379a00000000000000000000000000000000000000000000000000000000081526004016124f490616b61565b60405180910390fd5b80606a5f6101000a81548173ffffffffffffffffffffffffffffffffffffffff021916908373ffffffffffffffffffffffffffffffffffffffff16021790555050565b60bc5f9054906101000a900473ffffffffffffffffffffffffffffffffffffffff1681565b5f60bb5f60b95481526020019081526020015f206005015f8367ffffffffffffffff1667ffffffffffffffff1681526020019081526020015f20805490509050919050565b60b95481565b606060ba5f60b85481526020019081526020015f206007015f8367ffffffffffffffff1667ffffffffffffffff1681526020019081526020015f2080548060200260200160405190810160405280929190818152602001828054801561263357602002820191905f5260205f20905b81548152602001906001019080831161261f575b50505050509050919050565b60c15f9054906101000a900473ffffffffffffffffffffffffffffffffffffffff1681565b60ac5481565b60ab5481565b612678613064565b80609e5f6101000a81548173ffffffffffffffffffffffffffffffffffffffff021916908373ffffffffffffffffffffffffffffffffffffffff16021790555050565b606060ba5f60b85481526020019081526020015f206005015f8367ffffffffffffffff1667ffffffffffffffff1681526020019081526020015f2080548060200260200160405190810160405280929190818152602001828054801561277357602002820191905f5260205f20905b815f9054906101000a900473ffffffffffffffffffffffffffffffffffffffff1673ffffffffffffffffffffffffffffffffffffffff168152602001906001019080831161272a575b50505050509050919050565b606a5f9054906101000a900473ffffffffffffffffffffffffffffffffffffffff1681565b606060bb5f60b95481526020019081526020015f206005015f8367ffffffffffffffff1667ffffffffffffffff1681526020019081526020015f2080548060200260200160405190810160405280929190818152602001828054801561285c57602002820191905f5260205f20905b815f9054906101000a900473ffffffffffffffffffffffffffffffffffffffff1673ffffffffffffffffffffffffffffffffffffffff1681526020019060010190808311612813575b50505050509050919050565b6060806060805f60bb5f8781526020019081526020015f209050805f018160010182600201836003018380548060200260200160405190810160405280929190818152602001828054801561290f57602002820191905f5260205f20905b815f9054906101000a900473ffffffffffffffffffffffffffffffffffffffff1673ffffffffffffffffffffffffffffffffffffffff16815260200190600101908083116128c6575b505050505093508280548060200260200160405190810160405280929190818152602001828054801561295f57602002820191905f5260205f20905b81548152602001906001019080831161294b575b50505050509250818054806020026020016040519081016040528092919081815260200182805480156129d857602002820191905f5260205f20905f905b82829054906101000a900462ffffff1662ffffff168152602001906003019060208260020104928301926001038202915080841161299d5790505b5050505050915080805480602002602001604051908101604052809291908181526020018280548015612a5b57602002820191905f5260205f20905f905b82829054906101000a900467ffffffffffffffff1667ffffffffffffffff1681526020019060080190602082600701049283019260010382029150808411612a165790505b505050505090509450945094509450509193509193565b5f805f841115612c49575f8362ffffff161115612a9c57612a9586868686612cc3565b9050612c48565b5f600267ffffffffffffffff811115612ab857612ab7614fd1565b5b604051908082528060200260200182016040528015612ae65781602001602082028036833780820191505090505b50905086815f81518110612afd57612afc616b7f565b5b602002602001019073ffffffffffffffffffffffffffffffffffffffff16908173ffffffffffffffffffffffffffffffffffffffff16815250508581600181518110612b4c57612b4b616b7f565b5b602002602001019073ffffffffffffffffffffffffffffffffffffffff16908173ffffffffffffffffffffffffffffffffffffffff16815250505f60be5f9054906101000a900473ffffffffffffffffffffffffffffffffffffffff1673ffffffffffffffffffffffffffffffffffffffff1663d06ca61f87846040518363ffffffff1660e01b8152600401612be3929190616bac565b5f60405180830381865afa158015612bfd573d5f803e3d5ffd5b505050506040513d5f823e3d601f19601f82011682018060405250810190612c259190616c6f565b905080600181518110612c3b57612c3a616b7f565b5b6020026020010151925050505b5b80915050949350505050565b609e5f9054906101000a900473ffffffffffffffffffffffffffffffffffffffff1681565b609d5f9054906101000a900473ffffffffffffffffffffffffffffffffffffffff1681565b60b7602052805f5260405f205f915054906101000a900467ffffffffffffffff1681565b5f60a560089054906101000a900473ffffffffffffffffffffffffffffffffffffffff1673ffffffffffffffffffffffffffffffffffffffff1663bb5705b360bd5f9054906101000a900473ffffffffffffffffffffffffffffffffffffffff16878787876040518663ffffffff1660e01b8152600401612d48959493929190616cc5565b602060405180830381865afa158015612d63573d5f803e3d5ffd5b505050506040513d601f19601f82011682018060405250810190612d879190616a05565b9050949350505050565b612d99613064565b8160a05f8567ffffffffffffffff1667ffffffffffffffff1681526020019081526020015f205f6101000a81548173ffffffffffffffffffffffffffffffffffffffff021916908373ffffffffffffffffffffffffffffffffffffffff1602179055508060a15f8567ffffffffffffffff1667ffffffffffffffff1681526020019081526020015f205f8473ffffffffffffffffffffffffffffffffffffffff1673ffffffffffffffffffffffffffffffffffffffff1681526020019081526020015f205f6101000a81548162ffffff021916908362ffffff160217905550505050565b60b85481565b5f73ffffffffffffffffffffffffffffffffffffffff168173ffffffffffffffffffffffffffffffffffffffff1603612ef1576040517f08c379a0000000000000000000000000000000000000000000000000000000008152600401612ee890616b61565b60405180910390fd5b606a5f9054906101000a900473ffffffffffffffffffffffffffffffffffffffff1673ffffffffffffffffffffffffffffffffffffffff168173ffffffffffffffffffffffffffffffffffffffff1614612f80576040517f08c379a0000000000000000000000000000000000000000000000000000000008152600401612f7790616d86565b60405180910390fd5b3373ffffffffffffffffffffffffffffffffffffffff168173ffffffffffffffffffffffffffffffffffffffff1614612fee576040517f08c379a0000000000000000000000000000000000000000000000000000000008152600401612fe590616e14565b60405180910390fd5b612ff781613876565b50565b60c25f9054906101000a900473ffffffffffffffffffffffffffffffffffffffff1681565b5f60ba5f60b85481526020019081526020015f206005015f8367ffffffffffffffff1667ffffffffffffffff1681526020019081526020015f20805490509050919050565b61306c61474e565b73ffffffffffffffffffffffffffffffffffffffff1661308a611ba4565b73ffffffffffffffffffffffffffffffffffffffff16146130e0576040517f08c379a00000000000000000000000000000000000000000000000000000000081526004016130d790616e7c565b60405180910390fd5b565b5f8260ff168260ff16111561311b5782826130fd9190616e9a565b600a6131099190616ffd565b846131149190617047565b9050613141565b81836131279190616e9a565b600a6131339190616ffd565b8461313e9190617047565b90505b9392505050565b600160b95f82825461315a9190616a30565b925050819055505f5b60ac5481101561386a5760b05f8281526020019081526020015f205f9054906101000a900473ffffffffffffffffffffffffffffffffffffffff1660b15f8381526020019081526020015f205f6101000a81548173ffffffffffffffffffffffffffffffffffffffff021916908373ffffffffffffffffffffffffffffffffffffffff16021790555060b55f60b05f8481526020019081526020015f205f9054906101000a900473ffffffffffffffffffffffffffffffffffffffff1673ffffffffffffffffffffffffffffffffffffffff1673ffffffffffffffffffffffffffffffffffffffff1681526020019081526020015f205460b45f60b15f8581526020019081526020015f205f9054906101000a900473ffffffffffffffffffffffffffffffffffffffff1673ffffffffffffffffffffffffffffffffffffffff1673ffffffffffffffffffffffffffffffffffffffff1681526020019081526020015f208190555060b25f60b05f8481526020019081526020015f205f9054906101000a900473ffffffffffffffffffffffffffffffffffffffff1673ffffffffffffffffffffffffffffffffffffffff1673ffffffffffffffffffffffffffffffffffffffff1681526020019081526020015f205460b35f60b15f8581526020019081526020015f205f9054906101000a900473ffffffffffffffffffffffffffffffffffffffff1673ffffffffffffffffffffffffffffffffffffffff1673ffffffffffffffffffffffffffffffffffffffff1681526020019081526020015f20819055505f60b75f60b05f8581526020019081526020015f205f9054906101000a900473ffffffffffffffffffffffffffffffffffffffff1673ffffffffffffffffffffffffffffffffffffffff1673ffffffffffffffffffffffffffffffffffffffff1681526020019081526020015f205f9054906101000a900467ffffffffffffffff16905060bb5f60b95481526020019081526020015f206004015f8267ffffffffffffffff1667ffffffffffffffff1681526020019081526020015f205f9054906101000a900460ff1661353257600160bb5f60b95481526020019081526020015f206004015f8367ffffffffffffffff1667ffffffffffffffff1681526020019081526020015f205f6101000a81548160ff02191690831515021790555060bb5f60b95481526020019081526020015f2060030181908060018154018082558091505060019003905f5260205f2090600491828204019190066008029091909190916101000a81548167ffffffffffffffff021916908367ffffffffffffffff1602179055505b60bb5f60b95481526020019081526020015f206005015f8267ffffffffffffffff1667ffffffffffffffff1681526020019081526020015f2060b05f8481526020019081526020015f205f9054906101000a900473ffffffffffffffffffffffffffffffffffffffff16908060018154018082558091505060019003905f5260205f20015f9091909190916101000a81548173ffffffffffffffffffffffffffffffffffffffff021916908373ffffffffffffffffffffffffffffffffffffffff16021790555060bb5f60b95481526020019081526020015f206006015f8267ffffffffffffffff1667ffffffffffffffff1681526020019081526020015f2060b65f60b05f8681526020019081526020015f205f9054906101000a900473ffffffffffffffffffffffffffffffffffffffff1673ffffffffffffffffffffffffffffffffffffffff1673ffffffffffffffffffffffffffffffffffffffff1681526020019081526020015f205f9054906101000a900462ffffff16908060018154018082558091505060019003905f5260205f20015f909162ffffff1690919091505560b55f60b05f8581526020019081526020015f205f9054906101000a900473ffffffffffffffffffffffffffffffffffffffff1673ffffffffffffffffffffffffffffffffffffffff1673ffffffffffffffffffffffffffffffffffffffff1681526020019081526020015f205460bb5f60b95481526020019081526020015f206008015f8367ffffffffffffffff1667ffffffffffffffff1681526020019081526020015f205f82825461378b9190616a30565b9250508190555060bb5f60b95481526020019081526020015f206007015f8267ffffffffffffffff1667ffffffffffffffff1681526020019081526020015f2060b55f60b05f8681526020019081526020015f205f9054906101000a900473ffffffffffffffffffffffffffffffffffffffff1673ffffffffffffffffffffffffffffffffffffffff1673ffffffffffffffffffffffffffffffffffffffff1681526020019081526020015f2054908060018154018082558091505060019003905f5260205f20015f9091909190915055508080600101915050613163565b5060ac5460ad81905550565b5f60385f9054906101000a900473ffffffffffffffffffffffffffffffffffffffff1690508160385f6101000a81548173ffffffffffffffffffffffffffffffffffffffff021916908373ffffffffffffffffffffffffffffffffffffffff1602179055508173ffffffffffffffffffffffffffffffffffffffff168173ffffffffffffffffffffffffffffffffffffffff167f8be0079c531659141344cd1fd0a4f28419497f9722a3daafe3b4186f6b6457e060405160405180910390a35050565b613941614e70565b613949614e70565b61396085858584614755909392919063ffffffff16565b9150509392505050565b61398182846080015161480490919063ffffffff16565b61399881846080015161480490919063ffffffff16565b505050565b5f60035f9054906101000a900473ffffffffffffffffffffffffffffffffffffffff16905090565b5f8060045490506001816139d99190616a30565b6004819055505f634042994660e01b5f80875f01513089604001518760018c608001515f0151604051602401613a1698979695949392919061713f565b604051602081830303815290604052907bffffffffffffffffffffffffffffffffffffffffffffffffffffffff19166020820180517bffffffffffffffffffffffffffffffffffffffffffffffffffffffff83818316178352505050509050613a8186838684614829565b925050509392505050565b5f8490505f8490505f8490505f849050600160b85f828254613aae9190616a30565b925050819055505f60ad5403613ad857600160b95f828254613ad09190616a30565b925050819055505b5f5b845181101561462257848181518110613af657613af5616b7f565b5b602002602001015160b05f8381526020019081526020015f205f6101000a81548173ffffffffffffffffffffffffffffffffffffffff021916908373ffffffffffffffffffffffffffffffffffffffff1602179055508060b25f878481518110613b6357613b62616b7f565b5b602002602001015173ffffffffffffffffffffffffffffffffffffffff1673ffffffffffffffffffffffffffffffffffffffff1681526020019081526020015f2081905550838181518110613bbb57613bba616b7f565b5b602002602001015160b55f878481518110613bd957613bd8616b7f565b5b602002602001015173ffffffffffffffffffffffffffffffffffffffff1673ffffffffffffffffffffffffffffffffffffffff1681526020019081526020015f2081905550828181518110613c3157613c30616b7f565b5b602002602001015160b65f878481518110613c4f57613c4e616b7f565b5b602002602001015173ffffffffffffffffffffffffffffffffffffffff1673ffffffffffffffffffffffffffffffffffffffff1681526020019081526020015f205f6101000a81548162ffffff021916908362ffffff160217905550818181518110613cbe57613cbd616b7f565b5b602002602001015160b75f878481518110613cdc57613cdb616b7f565b5b602002602001015173ffffffffffffffffffffffffffffffffffffffff1673ffffffffffffffffffffffffffffffffffffffff1681526020019081526020015f205f6101000a81548167ffffffffffffffff021916908367ffffffffffffffff16021790555060ba5f60b85481526020019081526020015f206004015f838381518110613d6c57613d6b616b7f565b5b602002602001015167ffffffffffffffff1667ffffffffffffffff1681526020019081526020015f205f9054906101000a900460ff16613e945760ba5f60b85481526020019081526020015f20600301828281518110613dcf57613dce616b7f565b5b6020026020010151908060018154018082558091505060019003905f5260205f2090600491828204019190066008029091909190916101000a81548167ffffffffffffffff021916908367ffffffffffffffff160217905550600160ba5f60b85481526020019081526020015f206004015f848481518110613e5457613e53616b7f565b5b602002602001015167ffffffffffffffff1667ffffffffffffffff1681526020019081526020015f205f6101000a81548160ff0219169083151502179055505b60ba5f60b85481526020019081526020015f206005015f838381518110613ebe57613ebd616b7f565b5b602002602001015167ffffffffffffffff1667ffffffffffffffff1681526020019081526020015f20858281518110613efa57613ef9616b7f565b5b6020026020010151908060018154018082558091505060019003905f5260205f20015f9091909190916101000a81548173ffffffffffffffffffffffffffffffffffffffff021916908373ffffffffffffffffffffffffffffffffffffffff16021790555060ba5f60b85481526020019081526020015f206006015f838381518110613f8957613f88616b7f565b5b602002602001015167ffffffffffffffff1667ffffffffffffffff1681526020019081526020015f20838281518110613fc557613fc4616b7f565b5b6020026020010151908060018154018082558091505060019003905f5260205f20015f909162ffffff1690919091505583818151811061400857614007616b7f565b5b602002602001015160ba5f60b85481526020019081526020015f206008015f84848151811061403a57614039616b7f565b5b602002602001015167ffffffffffffffff1667ffffffffffffffff1681526020019081526020015f205f8282546140719190616a30565b9250508190555060ba5f60b85481526020019081526020015f206007015f8383815181106140a2576140a1616b7f565b5b602002602001015167ffffffffffffffff1667ffffffffffffffff1681526020019081526020015f208482815181106140de576140dd616b7f565b5b6020026020010151908060018154018082558091505060019003905f5260205f20015f90919091909150555f60ad54036146155784818151811061412557614124616b7f565b5b602002602001015160b15f8381526020019081526020015f205f6101000a81548173ffffffffffffffffffffffffffffffffffffffff021916908373ffffffffffffffffffffffffffffffffffffffff16021790555083818151811061418e5761418d616b7f565b5b602002602001015160b45f8784815181106141ac576141ab616b7f565b5b602002602001015173ffffffffffffffffffffffffffffffffffffffff1673ffffffffffffffffffffffffffffffffffffffff1681526020019081526020015f20819055508060b35f87848151811061420857614207616b7f565b5b602002602001015173ffffffffffffffffffffffffffffffffffffffff1673ffffffffffffffffffffffffffffffffffffffff1681526020019081526020015f208190555060bb5f60b95481526020019081526020015f206004015f83838151811061427757614276616b7f565b5b602002602001015167ffffffffffffffff1667ffffffffffffffff1681526020019081526020015f205f9054906101000a900460ff1661439f57600160bb5f60b95481526020019081526020015f206004015f8484815181106142dd576142dc616b7f565b5b602002602001015167ffffffffffffffff1667ffffffffffffffff1681526020019081526020015f205f6101000a81548160ff02191690831515021790555060bb5f60b95481526020019081526020015f2060030182828151811061434557614344616b7f565b5b6020026020010151908060018154018082558091505060019003905f5260205f2090600491828204019190066008029091909190916101000a81548167ffffffffffffffff021916908367ffffffffffffffff1602179055505b60bb5f60b95481526020019081526020015f206005015f8383815181106143c9576143c8616b7f565b5b602002602001015167ffffffffffffffff1667ffffffffffffffff1681526020019081526020015f2085828151811061440557614404616b7f565b5b6020026020010151908060018154018082558091505060019003905f5260205f20015f9091909190916101000a81548173ffffffffffffffffffffffffffffffffffffffff021916908373ffffffffffffffffffffffffffffffffffffffff16021790555060bb5f60b95481526020019081526020015f206006015f83838151811061449457614493616b7f565b5b602002602001015167ffffffffffffffff1667ffffffffffffffff1681526020019081526020015f208382815181106144d0576144cf616b7f565b5b6020026020010151908060018154018082558091505060019003905f5260205f20015f909162ffffff1690919091505583818151811061451357614512616b7f565b5b602002602001015160bb5f60b95481526020019081526020015f206008015f84848151811061454557614544616b7f565b5b602002602001015167ffffffffffffffff1667ffffffffffffffff1681526020019081526020015f205f82825461457c9190616a30565b9250508190555060bb5f60b95481526020019081526020015f206007015f8383815181106145ad576145ac616b7f565b5b602002602001015167ffffffffffffffff1667ffffffffffffffff1681526020019081526020015f208482815181106145e9576145e8616b7f565b5b6020026020010151908060018154018082558091505060019003905f5260205f20015f90919091909150555b8080600101915050613ada565b50835160ac819055505f60ad540361463d57835160ad819055505b4260ab819055505050505050505050565b5f808273ffffffffffffffffffffffffffffffffffffffff163b119050919050565b5f60019054906101000a900460ff166146be576040517f08c379a00000000000000000000000000000000000000000000000000000000081526004016146b590617232565b60405180910390fd5b6146c66149b6565b565b8060025f6101000a81548173ffffffffffffffffffffffffffffffffffffffff021916908373ffffffffffffffffffffffffffffffffffffffff16021790555050565b8060035f6101000a81548173ffffffffffffffffffffffffffffffffffffffff021916908373ffffffffffffffffffffffffffffffffffffffff16021790555050565b5f33905090565b61475d614e70565b61476d8560800151610100614a16565b5083855f01818152505082856020019073ffffffffffffffffffffffffffffffffffffffff16908173ffffffffffffffffffffffffffffffffffffffff16815250508185604001907bffffffffffffffffffffffffffffffffffffffffffffffffffffffff191690817bffffffffffffffffffffffffffffffffffffffffffffffffffffffff191681525050849050949350505050565b6148118260038351614a7e565b6148248183614c0390919063ffffffff16565b505050565b5f308460405160200161483d9291906172c6565b6040516020818303038152906040528051906020012090508460055f8381526020019081526020015f205f6101000a81548173ffffffffffffffffffffffffffffffffffffffff021916908373ffffffffffffffffffffffffffffffffffffffff160217905550807fb5e6e01e79f91267dc17b4e6314d5d4d03593d2ceee0fbb452b750bd70ea5af960405160405180910390a260025f9054906101000a900473ffffffffffffffffffffffffffffffffffffffff1673ffffffffffffffffffffffffffffffffffffffff16634000aea08685856040518463ffffffff1660e01b815260040161492f939291906172f1565b6020604051808303815f875af115801561494b573d5f803e3d5ffd5b505050506040513d601f19601f8201168201806040525081019061496f9190617362565b6149ae576040517f08c379a00000000000000000000000000000000000000000000000000000000081526004016149a5906173fd565b60405180910390fd5b949350505050565b5f60019054906101000a900460ff16614a04576040517f08c379a00000000000000000000000000000000000000000000000000000000081526004016149fb90617232565b60405180910390fd5b614a14614a0f61474e565b613876565b565b614a1e614ed9565b5f602083614a2c919061741b565b14614a5857602082614a3e919061741b565b6020614a4a919061744b565b82614a559190616a30565b91505b818360200181815250506040518084525f81528281016020016040525082905092915050565b60178167ffffffffffffffff1611614ab557614aaf8160058460ff16901b60ff161784614c2490919063ffffffff16565b50614bfe565b60ff8167ffffffffffffffff1611614b0b57614ae4601860058460ff16901b1784614c2490919063ffffffff16565b50614b058167ffffffffffffffff16600185614c439092919063ffffffff16565b50614bfd565b61ffff8167ffffffffffffffff1611614b6257614b3b601960058460ff16901b1784614c2490919063ffffffff16565b50614b5c8167ffffffffffffffff16600285614c439092919063ffffffff16565b50614bfc565b63ffffffff8167ffffffffffffffff1611614bbb57614b94601a60058460ff16901b1784614c2490919063ffffffff16565b50614bb58167ffffffffffffffff16600485614c439092919063ffffffff16565b50614bfb565b614bd8601b60058460ff16901b1784614c2490919063ffffffff16565b50614bf98167ffffffffffffffff16600885614c439092919063ffffffff16565b505b5b5b5b505050565b614c0b614ed9565b614c1c83845f015151848551614c64565b905092915050565b614c2c614ed9565b614c3b83845f01515184614d50565b905092915050565b614c4b614ed9565b614c5b84855f0151518585614da6565b90509392505050565b614c6c614ed9565b8251821115614c79575f80fd5b84602001518285614c8a9190616a30565b1115614cbf57614cbe856002614caf88602001518887614caa9190616a30565b614e33565b614cb991906166b2565b614e4e565b5b5f80865180518760208301019350808887011115614cdd5787860182525b60208701925050505b60208410614d245780518252602082614cff9190616a30565b9150602081614d0e9190616a30565b9050602084614d1d919061744b565b9350614ce6565b5f6001856020036101000a03905080198251168184511681811785525050508692505050949350505050565b614d58614ed9565b83602001518310614d7e57614d7d8460028660200151614d7891906166b2565b614e4e565b5b83518051602085830101848153818603614d99576001820183525b5050508390509392505050565b614dae614ed9565b84602001518483614dbf9190616a30565b1115614de757614de68560028685614dd79190616a30565b614de191906166b2565b614e4e565b5b5f600183610100614df8919061747e565b614e02919061744b565b90508551838682010185831982511617815281518588011115614e255784870182525b505085915050949350505050565b5f81831115614e4457829050614e48565b8190505b92915050565b5f825f01519050614e5f8383614a16565b50614e6a8382614c03565b50505050565b6040518060a001604052805f80191681526020015f73ffffffffffffffffffffffffffffffffffffffff1681526020015f7bffffffffffffffffffffffffffffffffffffffffffffffffffffffff191681526020015f8152602001614ed3614ed9565b81525090565b6040518060400160405280606081526020015f81525090565b5f819050919050565b614f0481614ef2565b82525050565b5f602082019050614f1d5f830184614efb565b92915050565b5f604051905090565b5f80fd5b5f80fd5b5f73ffffffffffffffffffffffffffffffffffffffff82169050919050565b5f614f5d82614f34565b9050919050565b614f6d81614f53565b8114614f77575f80fd5b50565b5f81359050614f8881614f64565b92915050565b5f60208284031215614fa357614fa2614f2c565b5b5f614fb084828501614f7a565b91505092915050565b5f80fd5b5f80fd5b5f601f19601f8301169050919050565b7f4e487b71000000000000000000000000000000000000000000000000000000005f52604160045260245ffd5b61500782614fc1565b810181811067ffffffffffffffff8211171561502657615025614fd1565b5b80604052505050565b5f615038614f23565b90506150448282614ffe565b919050565b5f67ffffffffffffffff82111561506357615062614fd1565b5b61506c82614fc1565b9050602081019050919050565b828183375f83830152505050565b5f61509961509484615049565b61502f565b9050828152602081018484840111156150b5576150b4614fbd565b5b6150c0848285615079565b509392505050565b5f82601f8301126150dc576150db614fb9565b5b81356150ec848260208601615087565b91505092915050565b5f806040838503121561510b5761510a614f2c565b5b5f83013567ffffffffffffffff81111561512857615127614f30565b5b615134858286016150c8565b925050602083013567ffffffffffffffff81111561515557615154614f30565b5b615161858286016150c8565b9150509250929050565b5f81519050919050565b5f82825260208201905092915050565b8281835e5f83830152505050565b5f61519d8261516b565b6151a78185615175565b93506151b7818560208601615185565b6151c081614fc1565b840191505092915050565b5f6020820190508181035f8301526151e38184615193565b905092915050565b5f67ffffffffffffffff82169050919050565b615207816151eb565b8114615211575f80fd5b50565b5f81359050615222816151fe565b92915050565b5f6020828403121561523d5761523c614f2c565b5b5f61524a84828501615214565b91505092915050565b61525c81614f53565b82525050565b5f6020820190506152755f830184615253565b92915050565b5f819050919050565b5f61529e61529961529484614f34565b61527b565b614f34565b9050919050565b5f6152af82615284565b9050919050565b5f6152c0826152a5565b9050919050565b6152d0816152b6565b82525050565b5f6020820190506152e95f8301846152c7565b92915050565b5f81519050919050565b5f82825260208201905092915050565b5f819050602082019050919050565b61532181614ef2565b82525050565b5f6153328383615318565b60208301905092915050565b5f602082019050919050565b5f615354826152ef565b61535e81856152f9565b935061536983615309565b805f5b838110156153995781516153808882615327565b975061538b8361533e565b92505060018101905061536c565b5085935050505092915050565b5f6020820190508181035f8301526153be818461534a565b905092915050565b6153cf81614ef2565b81146153d9575f80fd5b50565b5f813590506153ea816153c6565b92915050565b5f6020828403121561540557615404614f2c565b5b5f615412848285016153dc565b91505092915050565b5f806040838503121561543157615430614f2c565b5b5f61543e85828601614f7a565b925050602061544f85828601615214565b9150509250929050565b5f806040838503121561546f5761546e614f2c565b5b5f61547c858286016153dc565b925050602061548d85828601615214565b9150509250929050565b5f62ffffff82169050919050565b6154ae81615497565b82525050565b5f6020820190506154c75f8301846154a5565b92915050565b6154d6816151eb565b82525050565b5f6020820190506154ef5f8301846154cd565b92915050565b5f6154ff826152a5565b9050919050565b61550f816154f5565b82525050565b5f6020820190506155285f830184615506565b92915050565b5f81519050919050565b5f82825260208201905092915050565b5f819050602082019050919050565b61556081614f53565b82525050565b5f6155718383615557565b60208301905092915050565b5f602082019050919050565b5f6155938261552e565b61559d8185615538565b93506155a883615548565b805f5b838110156155d85781516155bf8882615566565b97506155ca8361557d565b9250506001810190506155ab565b5085935050505092915050565b5f81519050919050565b5f82825260208201905092915050565b5f819050602082019050919050565b615617816151eb565b82525050565b5f615628838361560e565b60208301905092915050565b5f602082019050919050565b5f61564a826155e5565b61565481856155ef565b935061565f836155ff565b805f5b8381101561568f578151615676888261561d565b975061568183615634565b925050600181019050615662565b5085935050505092915050565b5f6080820190508181035f8301526156b48187615589565b905081810360208301526156c8818661534a565b905081810360408301526156dc818561534a565b905081810360608301526156f08184615640565b905095945050505050565b5f615705826152a5565b9050919050565b615715816156fb565b82525050565b5f60208201905061572e5f83018461570c565b92915050565b5f806040838503121561574a57615749614f2c565b5b5f61575785828601615214565b925050602061576885828601614f7a565b9150509250929050565b5f61577c826152a5565b9050919050565b61578c81615772565b82525050565b5f6020820190506157a55f830184615783565b92915050565b5f6157b5826152a5565b9050919050565b6157c5816157ab565b82525050565b5f6020820190506157de5f8301846157bc565b92915050565b5f819050919050565b6157f6816157e4565b82525050565b5f60208201905061580f5f8301846157ed565b92915050565b61581e816157e4565b8114615828575f80fd5b50565b5f8135905061583981615815565b92915050565b5f6020828403121561585457615853614f2c565b5b5f6158618482850161582b565b91505092915050565b5f67ffffffffffffffff82111561588457615883614fd1565b5b602082029050602081019050919050565b5f80fd5b5f6158ab6158a68461586a565b61502f565b905080838252602082019050602084028301858111156158ce576158cd615895565b5b835b818110156158f757806158e38882614f7a565b8452602084019350506020810190506158d0565b5050509392505050565b5f82601f83011261591557615914614fb9565b5b8135615925848260208601615899565b91505092915050565b5f67ffffffffffffffff82111561594857615947614fd1565b5b602082029050602081019050919050565b5f61596b6159668461592e565b61502f565b9050808382526020820190506020840283018581111561598e5761598d615895565b5b835b818110156159b757806159a388826153dc565b845260208401935050602081019050615990565b5050509392505050565b5f82601f8301126159d5576159d4614fb9565b5b81356159e5848260208601615959565b91505092915050565b5f67ffffffffffffffff821115615a0857615a07614fd1565b5b602082029050602081019050919050565b615a2281615497565b8114615a2c575f80fd5b50565b5f81359050615a3d81615a19565b92915050565b5f615a55615a50846159ee565b61502f565b90508083825260208201905060208402830185811115615a7857615a77615895565b5b835b81811015615aa15780615a8d8882615a2f565b845260208401935050602081019050615a7a565b5050509392505050565b5f82601f830112615abf57615abe614fb9565b5b8135615acf848260208601615a43565b91505092915050565b5f67ffffffffffffffff821115615af257615af1614fd1565b5b602082029050602081019050919050565b5f615b15615b1084615ad8565b61502f565b90508083825260208201905060208402830185811115615b3857615b37615895565b5b835b81811015615b615780615b4d8882615214565b845260208401935050602081019050615b3a565b5050509392505050565b5f82601f830112615b7f57615b7e614fb9565b5b8135615b8f848260208601615b03565b91505092915050565b5f805f8060808587031215615bb057615baf614f2c565b5b5f85013567ffffffffffffffff811115615bcd57615bcc614f30565b5b615bd987828801615901565b945050602085013567ffffffffffffffff811115615bfa57615bf9614f30565b5b615c06878288016159c1565b935050604085013567ffffffffffffffff811115615c2757615c26614f30565b5b615c3387828801615aab565b925050606085013567ffffffffffffffff811115615c5457615c53614f30565b5b615c6087828801615b6b565b91505092959194509250565b5f60ff82169050919050565b615c8181615c6c565b82525050565b5f602082019050615c9a5f830184615c78565b92915050565b5f615caa82614f34565b9050919050565b615cba81615ca0565b8114615cc4575f80fd5b50565b5f81359050615cd581615cb1565b92915050565b5f805f805f805f805f805f6101608c8e031215615cfb57615cfa614f2c565b5b5f615d088e828f01615214565b9b50506020615d198e828f01615cc7565b9a50506040615d2a8e828f01614f7a565b9950506060615d3b8e828f01614f7a565b9850506080615d4c8e828f0161582b565b97505060a0615d5d8e828f01614f7a565b96505060c0615d6e8e828f01614f7a565b95505060e0615d7f8e828f01614f7a565b945050610100615d918e828f01614f7a565b935050610120615da38e828f01614f7a565b925050610140615db58e828f01614f7a565b9150509295989b509295989b9093969950565b5f805f805f60a08688031215615de157615de0614f2c565b5b5f615dee8882890161582b565b955050602086013567ffffffffffffffff811115615e0f57615e0e614f30565b5b615e1b88828901615901565b945050604086013567ffffffffffffffff811115615e3c57615e3b614f30565b5b615e48888289016159c1565b935050606086013567ffffffffffffffff811115615e6957615e68614f30565b5b615e7588828901615aab565b925050608086013567ffffffffffffffff811115615e9657615e95614f30565b5b615ea288828901615b6b565b9150509295509295909350565b5f615eb9826152a5565b9050919050565b615ec981615eaf565b82525050565b5f602082019050615ee25f830184615ec0565b92915050565b5f615ef2826152a5565b9050919050565b615f0281615ee8565b82525050565b5f602082019050615f1b5f830184615ef9565b92915050565b5f6020820190508181035f830152615f398184615589565b905092915050565b5f81519050919050565b5f82825260208201905092915050565b5f819050602082019050919050565b615f7381615497565b82525050565b5f615f848383615f6a565b60208301905092915050565b5f602082019050919050565b5f615fa682615f41565b615fb08185615f4b565b9350615fbb83615f5b565b805f5b83811015615feb578151615fd28882615f79565b9750615fdd83615f90565b925050600181019050615fbe565b5085935050505092915050565b5f6080820190508181035f8301526160108187615589565b90508181036020830152616024818661534a565b905081810360408301526160388185615f9c565b9050818103606083015261604c8184615640565b905095945050505050565b5f805f806080858703121561606f5761606e614f2c565b5b5f61607c87828801614f7a565b945050602061608d87828801614f7a565b935050604061609e878288016153dc565b92505060606160af87828801615a2f565b91505092959194509250565b5f6160c582615284565b9050919050565b5f6160d6826160bb565b9050919050565b6160e6816160cc565b82525050565b5f6020820190506160ff5f8301846160dd565b92915050565b5f6fffffffffffffffffffffffffffffffff82169050919050565b61612981616105565b8114616133575f80fd5b50565b5f8135905061614481616120565b92915050565b5f805f806080858703121561616257616161614f2c565b5b5f61616f87828801614f7a565b945050602061618087828801614f7a565b935050604061619187828801616136565b92505060606161a287828801615a2f565b91505092959194509250565b5f805f606084860312156161c5576161c4614f2c565b5b5f6161d286828701615214565b93505060206161e386828701614f7a565b92505060406161f486828701615a2f565b9150509250925092565b5f616208826152a5565b9050919050565b616218816161fe565b82525050565b5f6020820190506162315f83018461620f565b92915050565b5f81519050919050565b5f81905092915050565b5f61625582616237565b61625f8185616241565b935061626f818560208601615185565b80840191505092915050565b5f616286828561624b565b9150616292828461624b565b91508190509392505050565b5f69ffffffffffffffffffff82169050919050565b6162bc8161629e565b81146162c6575f80fd5b50565b5f815190506162d7816162b3565b92915050565b5f819050919050565b6162ef816162dd565b81146162f9575f80fd5b50565b5f8151905061630a816162e6565b92915050565b5f8151905061631e816153c6565b92915050565b5f805f805f60a0868803121561633d5761633c614f2c565b5b5f61634a888289016162c9565b955050602061635b888289016162fc565b945050604061636c88828901616310565b935050606061637d88828901616310565b925050608061638e888289016162c9565b9150509295509295909350565b6163a481615c6c565b81146163ae575f80fd5b50565b5f815190506163bf8161639b565b92915050565b5f602082840312156163da576163d9614f2c565b5b5f6163e7848285016163b1565b91505092915050565b7f5072696365206f7261636c6520616464726573732063616e6e6f74206265207a5f8201527f65726f2061646472657373000000000000000000000000000000000000000000602082015250565b5f61644a602b83615175565b9150616455826163f0565b604082019050919050565b5f6020820190508181035f8301526164778161643e565b9050919050565b7f49434f3a205072696365206665656420616464726573732063616e6e6f7420625f8201527f65207a65726f2061646472657373000000000000000000000000000000000000602082015250565b5f6164d8602e83615175565b91506164e38261647e565b604082019050919050565b5f6020820190508181035f830152616505816164cc565b9050919050565b7f4e487b71000000000000000000000000000000000000000000000000000000005f52602260045260245ffd5b5f600282049050600182168061655057607f821691505b6020821081036165635761656261650c565b5b50919050565b7f43616c6c6572206973206e6f7420696e64657820666163746f72792062616c615f8201527f6e63657220636f6e74726163742e000000000000000000000000000000000000602082015250565b5f6165c3602e83615175565b91506165ce82616569565b604082019050919050565b5f6020820190508181035f8301526165f0816165b7565b9050919050565b7f496e697469616c697a61626c653a20636f6e747261637420697320616c7265615f8201527f647920696e697469616c697a6564000000000000000000000000000000000000602082015250565b5f616651602e83615175565b915061665c826165f7565b604082019050919050565b5f6020820190508181035f83015261667e81616645565b9050919050565b7f4e487b71000000000000000000000000000000000000000000000000000000005f52601160045260245ffd5b5f6166bc82614ef2565b91506166c783614ef2565b92508282026166d581614ef2565b915082820484148315176166ec576166eb616685565b5b5092915050565b7f4e487b71000000000000000000000000000000000000000000000000000000005f52601260045260245ffd5b5f61672a82614ef2565b915061673583614ef2565b925082616745576167446166f3565b5b828204905092915050565b5f819050815f5260205f209050919050565b5f6020601f8301049050919050565b5f82821b905092915050565b5f600883026167ac7fffffffffffffffffffffffffffffffffffffffffffffffffffffffffffffffff82616771565b6167b68683616771565b95508019841693508086168417925050509392505050565b5f6167e86167e36167de84614ef2565b61527b565b614ef2565b9050919050565b5f819050919050565b616801836167ce565b61681561680d826167ef565b84845461677d565b825550505050565b5f90565b61682961681d565b6168348184846167f8565b505050565b5b818110156168575761684c5f82616821565b60018101905061683a565b5050565b601f82111561689c5761686d81616750565b61687684616762565b81016020851015616885578190505b61689961689185616762565b830182616839565b50505b505050565b5f82821c905092915050565b5f6168bc5f19846008026168a1565b1980831691505092915050565b5f6168d483836168ad565b9150826002028217905092915050565b6168ed8261516b565b67ffffffffffffffff81111561690657616905614fd1565b5b6169108254616539565b61691b82828561685b565b5f60209050601f83116001811461694c575f841561693a578287015190505b61694485826168c9565b8655506169ab565b601f19841661695a86616750565b5f5b828110156169815784890151825560018201915060208501945060208101905061695c565b8683101561699e578489015161699a601f8916826168ad565b8355505b6001600288020188555050505b505050505050565b5f819050919050565b5f6169d66169d16169cc846169b3565b61527b565b615c6c565b9050919050565b6169e6816169bc565b82525050565b5f6020820190506169ff5f8301846169dd565b92915050565b5f60208284031215616a1a57616a19614f2c565b5b5f616a2784828501616310565b91505092915050565b5f616a3a82614ef2565b9150616a4583614ef2565b9250828201905080821115616a5d57616a5c616685565b5b92915050565b7f536f75726365206d75737420626520746865206f7261636c65206f66207468655f8201527f2072657175657374000000000000000000000000000000000000000000000000602082015250565b5f616abd602883615175565b9150616ac882616a63565b604082019050919050565b5f6020820190508181035f830152616aea81616ab1565b9050919050565b7f50726f706f7361626c654f776e61626c653a206e6577206f776e6572206973205f8201527f746865207a65726f206164647265737300000000000000000000000000000000602082015250565b5f616b4b603083615175565b9150616b5682616af1565b604082019050919050565b5f6020820190508181035f830152616b7881616b3f565b9050919050565b7f4e487b71000000000000000000000000000000000000000000000000000000005f52603260045260245ffd5b5f604082019050616bbf5f830185614efb565b8181036020830152616bd18184615589565b90509392505050565b5f616bec616be78461592e565b61502f565b90508083825260208201905060208402830185811115616c0f57616c0e615895565b5b835b81811015616c385780616c248882616310565b845260208401935050602081019050616c11565b5050509392505050565b5f82601f830112616c5657616c55614fb9565b5b8151616c66848260208601616bda565b91505092915050565b5f60208284031215616c8457616c83614f2c565b5b5f82015167ffffffffffffffff811115616ca157616ca0614f30565b5b616cad84828501616c42565b91505092915050565b616cbf81616105565b82525050565b5f60a082019050616cd85f830188615253565b616ce56020830187615253565b616cf26040830186615253565b616cff6060830185616cb6565b616d0c60808301846154a5565b9695505050505050565b7f50726f706f7361626c654f776e61626c653a206e6577206f776e6572206973205f8201527f6e6f742070726f706f736564206f776e65720000000000000000000000000000602082015250565b5f616d70603283615175565b9150616d7b82616d16565b604082019050919050565b5f6020820190508181035f830152616d9d81616d64565b9050919050565b7f50726f706f7361626c654f776e61626c653a20746869732063616c6c206d75735f8201527f74206265206d61646520627920746865206e6577206f776e6572000000000000602082015250565b5f616dfe603a83615175565b9150616e0982616da4565b604082019050919050565b5f6020820190508181035f830152616e2b81616df2565b9050919050565b7f4f776e61626c653a2063616c6c6572206973206e6f7420746865206f776e65725f82015250565b5f616e66602083615175565b9150616e7182616e32565b602082019050919050565b5f6020820190508181035f830152616e9381616e5a565b9050919050565b5f616ea482615c6c565b9150616eaf83615c6c565b9250828203905060ff811115616ec857616ec7616685565b5b92915050565b5f8160011c9050919050565b5f808291508390505b6001851115616f2357808604811115616eff57616efe616685565b5b6001851615616f0e5780820291505b8081029050616f1c85616ece565b9450616ee3565b94509492505050565b5f82616f3b5760019050616ff6565b81616f48575f9050616ff6565b8160018114616f5e5760028114616f6857616f97565b6001915050616ff6565b60ff841115616f7a57616f79616685565b5b8360020a915084821115616f9157616f90616685565b5b50616ff6565b5060208310610133831016604e8410600b8410161715616fcc5782820a905083811115616fc757616fc6616685565b5b616ff6565b616fd98484846001616eda565b92509050818404811115616ff057616fef616685565b5b81810290505b9392505050565b5f61700782614ef2565b915061701283615c6c565b925061703f7fffffffffffffffffffffffffffffffffffffffffffffffffffffffffffffffff8484616f2c565b905092915050565b5f617051826162dd565b915061705c836162dd565b925082820261706a816162dd565b91507f800000000000000000000000000000000000000000000000000000000000000084145f841216156170a1576170a0616685565b5b82820584148315176170b6576170b5616685565b5b5092915050565b5f7fffffffff0000000000000000000000000000000000000000000000000000000082169050919050565b6170f1816170bd565b82525050565b5f82825260208201905092915050565b5f61711182616237565b61711b81856170f7565b935061712b818560208601615185565b61713481614fc1565b840191505092915050565b5f610100820190506171535f83018b615253565b617160602083018a614efb565b61716d60408301896157ed565b61717a6060830188615253565b61718760808301876170e8565b61719460a0830186614efb565b6171a160c0830185614efb565b81810360e08301526171b38184617107565b90509998505050505050505050565b7f496e697469616c697a61626c653a20636f6e7472616374206973206e6f7420695f8201527f6e697469616c697a696e67000000000000000000000000000000000000000000602082015250565b5f61721c602b83615175565b9150617227826171c2565b604082019050919050565b5f6020820190508181035f83015261724981617210565b9050919050565b5f61725a826152a5565b9050919050565b5f8160601b9050919050565b5f61727782617261565b9050919050565b5f6172888261726d565b9050919050565b6172a061729b82617250565b61727e565b82525050565b5f819050919050565b6172c06172bb82614ef2565b6172a6565b82525050565b5f6172d1828561728f565b6014820191506172e182846172af565b6020820191508190509392505050565b5f6060820190506173045f830186615253565b6173116020830185614efb565b81810360408301526173238184617107565b9050949350505050565b5f8115159050919050565b6173418161732d565b811461734b575f80fd5b50565b5f8151905061735c81617338565b92915050565b5f6020828403121561737757617376614f2c565b5b5f6173848482850161734e565b91505092915050565b7f756e61626c6520746f207472616e73666572416e6443616c6c20746f206f72615f8201527f636c650000000000000000000000000000000000000000000000000000000000602082015250565b5f6173e7602383615175565b91506173f28261738d565b604082019050919050565b5f6020820190508181035f830152617414816173db565b9050919050565b5f61742582614ef2565b915061743083614ef2565b9250826174405761743f6166f3565b5b828206905092915050565b5f61745582614ef2565b915061746083614ef2565b925082820390508181111561747857617477616685565b5b92915050565b5f61748882614ef2565b915061749383614ef2565b92506174c07fffffffffffffffffffffffffffffffffffffffffffffffffffffffffffffffff8484616f2c565b90509291505056fe68747470733a2f2f6170702e6e65786c6162732e696f2f6170692f616c6c46756e64696e6752617465733f6d756c7469706c7946756e633d31382674696d65734e656746756e643d74727565266172726179733d74727565a264697066735822122035e2ee0b19f18a7abb85d5628c7294157cb37607935e88e42cd9c5de31c1de0a64736f6c634300081a0033","linkReferences":{}},"methodIdentifiers":{"allCurrentChainSelectorTokenShares(uint64)":"af696b34","allCurrentChainSelectorTokens(uint64)":"d1c68aa3","allCurrentChainSelectorVersions(uint64)":"221f3371","allOracleChainSelectorTokenShares(uint64)":"bf0d49c0","allOracleChainSelectorTokens(uint64)":"d050ca7c","allOracleChainSelectorVersions(uint64)":"a1adff88","concatenation(string,string)":"0e329357","crossChainFactoryBySelector(uint64)":"340fbc74","crossChainToken(uint64)":"19da7e2a","crossChainTokenSwapFee(uint64,address)":"652354ae","currentChainSelector()":"3d54cb6f","currentChainSelectorTokensCount(uint64)":"b6ad185b","currentChainSelectorsCount()":"69487b1c","currentFilledCount()":"b90b8a2a","currentList(uint256)":"9932ba4c","estimateAmountOut(address,address,uint128,uint24)":"ee7bd3e2","externalJobId()":"a8b54bd4","factoryV2()":"68e0d4e1","factoryV3()":"1d5f45f5","feeRate()":"978bbdb9","fulfillAssetsData(bytes32,address[],uint256[],uint24[],uint64[])":"b2c44b3f","getAmountOut(address,address,uint256,uint24)":"dd811ac9","getCurrentChainSelectorTotalShares(uint256,uint64)":"2a3ff8ad","getCurrentData(uint256)":"d3f7f266","getOracleData(uint256)":"536e3f6a","getPendingRequest(bytes32)":"88b12d55","getPortfolioBalance()":"a8509fd8","indexFactory()":"e3fd0af2","indexFactoryBalancer()":"29d75de9","indexToken()":"e7d015f2","initialize(uint64,address,address,address,bytes32,address,address,address,address,address,address)":"9ebe560e","lastUpdateTime()":"c8f33c91","latestFeeUpdate()":"011ced5f","mockFillAssetsList(address[],uint256[],uint24[],uint64[])":"8bb8f1bb","mockUpdateCurrentList()":"4f9641b9","oracleChainSelectorTokensCount(uint64)":"fc698b4a","oracleChainSelectorsCount()":"8e9d7c18","oracleFilledCount()":"f1581787","oracleList(uint256)":"239aad0d","oraclePayment()":"0c02e130","owner()":"8da5cb5b","priceInWei()":"3c8da588","priceOracle()":"2630c12f","proposeOwner(address)":"b5ed298a","proposedOwner()":"d153b60c","quoter()":"c6bbd5a7","renounceOwnership()":"715018a6","requestAssetsData()":"7ca58c55","setCrossChainFactory(address,uint64)":"271040df","setCrossChainToken(uint64,address,uint24)":"f0cd5b72","setIndexFactory(address)":"d047937f","setIndexFactoryBalancer(address)":"ae214f39","setPriceFeed(address)":"724e78da","setPriceOracle(address)":"530e784f","setUrl(string,string)":"a73e1cbf","setVault(address)":"6817031b","swapRouterV2()":"744fbc7a","swapRouterV3()":"b631e80b","toUsdPriceFeed()":"63973fda","tokenChainSelector(address)":"ea8ecf04","tokenCurrentListIndex(address)":"914f0cc6","tokenCurrentMarketShare(address)":"0be52713","tokenOracleListIndex(address)":"8c88c10c","tokenOracleMarketShare(address)":"4b3e0b80","tokenSwapFee(address)":"32599665","totalCurrentChainSelectors()":"92e410ce","totalCurrentList()":"53fd4332","totalOracleChainSelectors()":"80acffa3","totalOracleList()":"c8599ded","transferOwnership(address)":"f2fde38b","updateCurrentList()":"8baa6bf1","vault()":"fbfa77cf","weth()":"3fc8cef3"},"id":5}