{"abi":[{"type":"function","name":"allCurrentChainSelectorTokenShares","inputs":[{"name":"_chainSelector","type":"uint64","internalType":"uint64"}],"outputs":[{"name":"","type":"uint256[]","internalType":"uint256[]"}],"stateMutability":"view"},{"type":"function","name":"allCurrentChainSelectorTokens","inputs":[{"name":"_chainSelector","type":"uint64","internalType":"uint64"}],"outputs":[{"name":"tokens","type":"address[]","internalType":"address[]"}],"stateMutability":"view"},{"type":"function","name":"allCurrentChainSelectorVersions","inputs":[{"name":"_chainSelector","type":"uint64","internalType":"uint64"}],"outputs":[{"name":"versions","type":"uint256[]","internalType":"uint256[]"}],"stateMutability":"view"},{"type":"function","name":"allOracleChainSelectorTokenShares","inputs":[{"name":"_chainSelector","type":"uint64","internalType":"uint64"}],"outputs":[{"name":"","type":"uint256[]","internalType":"uint256[]"}],"stateMutability":"view"},{"type":"function","name":"allOracleChainSelectorTokens","inputs":[{"name":"_chainSelector","type":"uint64","internalType":"uint64"}],"outputs":[{"name":"tokens","type":"address[]","internalType":"address[]"}],"stateMutability":"view"},{"type":"function","name":"allOracleChainSelectorVersions","inputs":[{"name":"_chainSelector","type":"uint64","internalType":"uint64"}],"outputs":[{"name":"versions","type":"uint256[]","internalType":"uint256[]"}],"stateMutability":"view"},{"type":"function","name":"concatenation","inputs":[{"name":"a","type":"string","internalType":"string"},{"name":"b","type":"string","internalType":"string"}],"outputs":[{"name":"","type":"string","internalType":"string"}],"stateMutability":"pure"},{"type":"function","name":"crossChainFactoryBySelector","inputs":[{"name":"","type":"uint64","internalType":"uint64"}],"outputs":[{"name":"","type":"address","internalType":"address"}],"stateMutability":"view"},{"type":"function","name":"crossChainToken","inputs":[{"name":"","type":"uint64","internalType":"uint64"}],"outputs":[{"name":"","type":"address","internalType":"address"}],"stateMutability":"view"},{"type":"function","name":"crossChainTokenSwapFee","inputs":[{"name":"","type":"uint64","internalType":"uint64"},{"name":"","type":"address","internalType":"address"}],"outputs":[{"name":"","type":"uint24","internalType":"uint24"}],"stateMutability":"view"},{"type":"function","name":"currentChainSelector","inputs":[],"outputs":[{"name":"","type":"uint64","internalType":"uint64"}],"stateMutability":"view"},{"type":"function","name":"currentChainSelectorTokensCount","inputs":[{"name":"_chainSelector","type":"uint64","internalType":"uint64"}],"outputs":[{"name":"","type":"uint256","internalType":"uint256"}],"stateMutability":"view"},{"type":"function","name":"currentChainSelectorsCount","inputs":[],"outputs":[{"name":"","type":"uint256","internalType":"uint256"}],"stateMutability":"view"},{"type":"function","name":"currentFilledCount","inputs":[],"outputs":[{"name":"","type":"uint256","internalType":"uint256"}],"stateMutability":"view"},{"type":"function","name":"currentList","inputs":[{"name":"","type":"uint256","internalType":"uint256"}],"outputs":[{"name":"","type":"address","internalType":"address"}],"stateMutability":"view"},{"type":"function","name":"estimateAmountOut","inputs":[{"name":"tokenIn","type":"address","internalType":"address"},{"name":"tokenOut","type":"address","internalType":"address"},{"name":"amountIn","type":"uint128","internalType":"uint128"}],"outputs":[{"name":"amountOut","type":"uint256","internalType":"uint256"}],"stateMutability":"view"},{"type":"function","name":"externalJobId","inputs":[],"outputs":[{"name":"","type":"bytes32","internalType":"bytes32"}],"stateMutability":"view"},{"type":"function","name":"factoryV2","inputs":[],"outputs":[{"name":"","type":"address","internalType":"contract IUniswapV2Factory"}],"stateMutability":"view"},{"type":"function","name":"factoryV3","inputs":[],"outputs":[{"name":"","type":"address","internalType":"contract IUniswapV3Factory"}],"stateMutability":"view"},{"type":"function","name":"feeRate","inputs":[],"outputs":[{"name":"","type":"uint8","internalType":"uint8"}],"stateMutability":"view"},{"type":"function","name":"fulfillAssetsData","inputs":[{"name":"requestId","type":"bytes32","internalType":"bytes32"},{"name":"_tokens","type":"address[]","internalType":"address[]"},{"name":"_marketShares","type":"uint256[]","internalType":"uint256[]"},{"name":"_swapFees","type":"uint24[]","internalType":"uint24[]"},{"name":"_chainSelectors","type":"uint64[]","internalType":"uint64[]"}],"outputs":[],"stateMutability":"nonpayable"},{"type":"function","name":"getAmountOut","inputs":[{"name":"tokenIn","type":"address","internalType":"address"},{"name":"tokenOut","type":"address","internalType":"address"},{"name":"amountIn","type":"uint256","internalType":"uint256"},{"name":"_swapFee","type":"uint24","internalType":"uint24"}],"outputs":[{"name":"finalAmountOutValue","type":"uint256","internalType":"uint256"}],"stateMutability":"view"},{"type":"function","name":"getCurrentChainSelectorTotalShares","inputs":[{"name":"index","type":"uint256","internalType":"uint256"},{"name":"chainSelector","type":"uint64","internalType":"uint64"}],"outputs":[{"name":"","type":"uint256","internalType":"uint256"}],"stateMutability":"view"},{"type":"function","name":"getCurrentData","inputs":[{"name":"index","type":"uint256","internalType":"uint256"}],"outputs":[{"name":"tokens","type":"address[]","internalType":"address[]"},{"name":"marketShares","type":"uint256[]","internalType":"uint256[]"},{"name":"swapFees","type":"uint24[]","internalType":"uint24[]"},{"name":"chainSelectors","type":"uint64[]","internalType":"uint64[]"}],"stateMutability":"view"},{"type":"function","name":"getOracleData","inputs":[{"name":"index","type":"uint256","internalType":"uint256"}],"outputs":[{"name":"tokens","type":"address[]","internalType":"address[]"},{"name":"marketShares","type":"uint256[]","internalType":"uint256[]"},{"name":"swapFees","type":"uint256[]","internalType":"uint256[]"},{"name":"chainSelectors","type":"uint64[]","internalType":"uint64[]"}],"stateMutability":"view"},{"type":"function","name":"getPendingRequest","inputs":[{"name":"requestId","type":"bytes32","internalType":"bytes32"}],"outputs":[{"name":"","type":"address","internalType":"address"}],"stateMutability":"view"},{"type":"function","name":"getPortfolioBalance","inputs":[],"outputs":[{"name":"","type":"uint256","internalType":"uint256"}],"stateMutability":"view"},{"type":"function","name":"indexFactory","inputs":[],"outputs":[{"name":"","type":"address","internalType":"address"}],"stateMutability":"view"},{"type":"function","name":"indexFactoryBalancer","inputs":[],"outputs":[{"name":"","type":"address","internalType":"address"}],"stateMutability":"view"},{"type":"function","name":"indexToken","inputs":[],"outputs":[{"name":"","type":"address","internalType":"contract IndexToken"}],"stateMutability":"view"},{"type":"function","name":"initialize","inputs":[{"name":"_currentChainSelector","type":"uint64","internalType":"uint64"},{"name":"_token","type":"address","internalType":"address payable"},{"name":"_chainlinkToken","type":"address","internalType":"address"},{"name":"_oracleAddress","type":"address","internalType":"address"},{"name":"_externalJobId","type":"bytes32","internalType":"bytes32"},{"name":"_toUsdPriceFeed","type":"address","internalType":"address"},{"name":"_weth","type":"address","internalType":"address"},{"name":"_swapRouterV3","type":"address","internalType":"address"},{"name":"_factoryV3","type":"address","internalType":"address"},{"name":"_swapRouterV2","type":"address","internalType":"address"},{"name":"_factoryV2","type":"address","internalType":"address"}],"outputs":[],"stateMutability":"nonpayable"},{"type":"function","name":"lastUpdateTime","inputs":[],"outputs":[{"name":"","type":"uint256","internalType":"uint256"}],"stateMutability":"view"},{"type":"function","name":"latestFeeUpdate","inputs":[],"outputs":[{"name":"","type":"uint256","internalType":"uint256"}],"stateMutability":"view"},{"type":"function","name":"mockFillAssetsList","inputs":[{"name":"_tokens","type":"address[]","internalType":"address[]"},{"name":"_marketShares","type":"uint256[]","internalType":"uint256[]"},{"name":"_swapFees","type":"uint24[]","internalType":"uint24[]"},{"name":"_chainSelectors","type":"uint64[]","internalType":"uint64[]"}],"outputs":[],"stateMutability":"nonpayable"},{"type":"function","name":"mockUpdateCurrentList","inputs":[],"outputs":[],"stateMutability":"nonpayable"},{"type":"function","name":"oracleChainSelectorTokensCount","inputs":[{"name":"_chainSelector","type":"uint64","internalType":"uint64"}],"outputs":[{"name":"","type":"uint256","internalType":"uint256"}],"stateMutability":"view"},{"type":"function","name":"oracleChainSelectorsCount","inputs":[],"outputs":[{"name":"","type":"uint256","internalType":"uint256"}],"stateMutability":"view"},{"type":"function","name":"oracleFilledCount","inputs":[],"outputs":[{"name":"","type":"uint256","internalType":"uint256"}],"stateMutability":"view"},{"type":"function","name":"oracleList","inputs":[{"name":"","type":"uint256","internalType":"uint256"}],"outputs":[{"name":"","type":"address","internalType":"address"}],"stateMutability":"view"},{"type":"function","name":"oraclePayment","inputs":[],"outputs":[{"name":"","type":"uint256","internalType":"uint256"}],"stateMutability":"view"},{"type":"function","name":"owner","inputs":[],"outputs":[{"name":"","type":"address","internalType":"address"}],"stateMutability":"view"},{"type":"function","name":"priceInWei","inputs":[],"outputs":[{"name":"","type":"uint256","internalType":"uint256"}],"stateMutability":"view"},{"type":"function","name":"priceOracle","inputs":[],"outputs":[{"name":"","type":"address","internalType":"address"}],"stateMutability":"view"},{"type":"function","name":"proposeOwner","inputs":[{"name":"_proposedOwner","type":"address","internalType":"address"}],"outputs":[],"stateMutability":"nonpayable"},{"type":"function","name":"proposedOwner","inputs":[],"outputs":[{"name":"","type":"address","internalType":"address"}],"stateMutability":"view"},{"type":"function","name":"quoter","inputs":[],"outputs":[{"name":"","type":"address","internalType":"contract IQuoter"}],"stateMutability":"view"},{"type":"function","name":"renounceOwnership","inputs":[],"outputs":[],"stateMutability":"nonpayable"},{"type":"function","name":"requestAssetsData","inputs":[],"outputs":[{"name":"","type":"bytes32","internalType":"bytes32"}],"stateMutability":"nonpayable"},{"type":"function","name":"setCrossChainFactory","inputs":[{"name":"_crossChainFactoryAddress","type":"address","internalType":"address"},{"name":"_chainSelector","type":"uint64","internalType":"uint64"}],"outputs":[],"stateMutability":"nonpayable"},{"type":"function","name":"setCrossChainToken","inputs":[{"name":"_chainSelector","type":"uint64","internalType":"uint64"},{"name":"_crossChainToken","type":"address","internalType":"address"},{"name":"_swapFee","type":"uint24","internalType":"uint24"}],"outputs":[],"stateMutability":"nonpayable"},{"type":"function","name":"setIndexFactory","inputs":[{"name":"_indexFactory","type":"address","internalType":"address"}],"outputs":[],"stateMutability":"nonpayable"},{"type":"function","name":"setIndexFactoryBalancer","inputs":[{"name":"_indexFactoryBalancer","type":"address","internalType":"address"}],"outputs":[],"stateMutability":"nonpayable"},{"type":"function","name":"setPriceFeed","inputs":[{"name":"_toUsdPricefeed","type":"address","internalType":"address"}],"outputs":[],"stateMutability":"nonpayable"},{"type":"function","name":"setPriceOracle","inputs":[{"name":"_priceOracle","type":"address","internalType":"address"}],"outputs":[],"stateMutability":"nonpayable"},{"type":"function","name":"setUrl","inputs":[{"name":"_beforeAddress","type":"string","internalType":"string"},{"name":"_afterAddress","type":"string","internalType":"string"}],"outputs":[],"stateMutability":"nonpayable"},{"type":"function","name":"setVault","inputs":[{"name":"_vaultAddress","type":"address","internalType":"address"}],"outputs":[],"stateMutability":"nonpayable"},{"type":"function","name":"swapRouterV2","inputs":[],"outputs":[{"name":"","type":"address","internalType":"contract IUniswapV2Router02"}],"stateMutability":"view"},{"type":"function","name":"swapRouterV3","inputs":[],"outputs":[{"name":"","type":"address","internalType":"contract ISwapRouter"}],"stateMutability":"view"},{"type":"function","name":"toUsdPriceFeed","inputs":[],"outputs":[{"name":"","type":"address","internalType":"contract AggregatorV3Interface"}],"stateMutability":"view"},{"type":"function","name":"tokenChainSelector","inputs":[{"name":"","type":"address","internalType":"address"}],"outputs":[{"name":"","type":"uint64","internalType":"uint64"}],"stateMutability":"view"},{"type":"function","name":"tokenCurrentListIndex","inputs":[{"name":"","type":"address","internalType":"address"}],"outputs":[{"name":"","type":"uint256","internalType":"uint256"}],"stateMutability":"view"},{"type":"function","name":"tokenCurrentMarketShare","inputs":[{"name":"","type":"address","internalType":"address"}],"outputs":[{"name":"","type":"uint256","internalType":"uint256"}],"stateMutability":"view"},{"type":"function","name":"tokenOracleListIndex","inputs":[{"name":"","type":"address","internalType":"address"}],"outputs":[{"name":"","type":"uint256","internalType":"uint256"}],"stateMutability":"view"},{"type":"function","name":"tokenOracleMarketShare","inputs":[{"name":"","type":"address","internalType":"address"}],"outputs":[{"name":"","type":"uint256","internalType":"uint256"}],"stateMutability":"view"},{"type":"function","name":"tokenSwapFee","inputs":[{"name":"","type":"address","internalType":"address"}],"outputs":[{"name":"","type":"uint24","internalType":"uint24"}],"stateMutability":"view"},{"type":"function","name":"totalCurrentChainSelectors","inputs":[],"outputs":[{"name":"","type":"uint256","internalType":"uint256"}],"stateMutability":"view"},{"type":"function","name":"totalCurrentList","inputs":[],"outputs":[{"name":"","type":"uint256","internalType":"uint256"}],"stateMutability":"view"},{"type":"function","name":"totalOracleChainSelectors","inputs":[],"outputs":[{"name":"","type":"uint256","internalType":"uint256"}],"stateMutability":"view"},{"type":"function","name":"totalOracleList","inputs":[],"outputs":[{"name":"","type":"uint256","internalType":"uint256"}],"stateMutability":"view"},{"type":"function","name":"transferOwnership","inputs":[{"name":"newOwner","type":"address","internalType":"address"}],"outputs":[],"stateMutability":"nonpayable"},{"type":"function","name":"updateCurrentList","inputs":[],"outputs":[],"stateMutability":"nonpayable"},{"type":"function","name":"vault","inputs":[],"outputs":[{"name":"","type":"address","internalType":"contract Vault"}],"stateMutability":"view"},{"type":"function","name":"weth","inputs":[],"outputs":[{"name":"","type":"address","internalType":"contract IWETH"}],"stateMutability":"view"},{"type":"event","name":"ChainlinkCancelled","inputs":[{"name":"id","type":"bytes32","indexed":true,"internalType":"bytes32"}],"anonymous":false},{"type":"event","name":"ChainlinkFulfilled","inputs":[{"name":"id","type":"bytes32","indexed":true,"internalType":"bytes32"}],"anonymous":false},{"type":"event","name":"ChainlinkRequested","inputs":[{"name":"id","type":"bytes32","indexed":true,"internalType":"bytes32"}],"anonymous":false},{"type":"event","name":"Initialized","inputs":[{"name":"version","type":"uint8","indexed":false,"internalType":"uint8"}],"anonymous":false},{"type":"event","name":"OwnershipTransferred","inputs":[{"name":"previousOwner","type":"address","indexed":true,"internalType":"address"},{"name":"newOwner","type":"address","indexed":true,"internalType":"address"}],"anonymous":false}],"bytecode":{"object":"0x6080604052348015600e575f80fd5b5061435a8061001c5f395ff3fe608060405234801561000f575f80fd5b5060043610610422575f3560e01c80638c88c10c1161022c578063b90b8a2a11610135578063d3f7f266116100bf578063f0cd5b7211610084578063f0cd5b7214610a7b578063f158178714610a8e578063f2fde38b14610a97578063fbfa77cf14610aaa578063fc698b4a14610abd575f80fd5b8063d3f7f266146109f7578063dd811ac914610a1a578063e3fd0af214610a2d578063e7d015f214610a40578063ea8ecf0414610a53575f80fd5b8063c8f33c9111610105578063c8f33c9114610995578063d047937f1461099e578063d050ca7c146109b1578063d153b60c146109d1578063d1c68aa3146109e4575f80fd5b8063b90b8a2a1461095d578063bf0d49c014610966578063c6bbd5a714610979578063c8599ded1461098c575f80fd5b8063a73e1cbf116101b6578063af696b3411610186578063af696b34146108d7578063b2c44b3f146108ea578063b5ed298a146108fd578063b631e80b14610910578063b6ad185b14610923575f80fd5b8063a73e1cbf146108a0578063a8509fd8146108b3578063a8b54bd4146108bb578063ae214f39146108c4575f80fd5b806392e410ce116101fc57806392e410ce1461082a578063978bbdb9146108335780639932ba4c146108525780639ebe560e1461087a578063a1adff881461088d575f80fd5b80638c88c10c146107c25780638da5cb5b146107e15780638e9d7c18146107f2578063914f0cc61461080b575f80fd5b80634b3e0b801161032e57806369487b1c116102b85780637ca58c55116102885780637ca58c551461076e57806380acffa31461077657806388b12d551461077f5780638baa6bf1146107a75780638bb8f1bb146107af575f80fd5b806369487b1c14610727578063715018a614610740578063724e78da14610748578063744fbc7a1461075b575f80fd5b806353fd4332116102fe57806353fd4332146106b657806363973fda146106bf578063652354ae146106d25780636817031b1461070157806368e0d4e114610714575f80fd5b80634b3e0b80146106595780634f9641b914610678578063530e784f14610680578063536e3f6a14610693575f80fd5b80632630c12f116103af578063325996651161037f57806332599665146105b3578063340fbc74146105eb5780633c8da588146106135780633d54cb6f1461061b5780633fc8cef314610646575f80fd5b80632630c12f14610538578063271040df1461055257806329d75de9146105675780632a3ff8ad1461057a575f80fd5b80630e329357116103f55780630e3293571461047d57806319da7e2a1461049d5780631d5f45f5146104dd578063221f3371146104f0578063239aad0d14610510575f80fd5b8063011ced5f146104265780630456f9c8146104425780630be52713146104555780630c02e13014610474575b5f80fd5b61042f60a45481565b6040519081526020015b60405180910390f35b61042f610450366004613443565b610af7565b61042f610463366004613496565b60b46020525f908152604090205481565b61042f60a95481565b61049061048b366004613560565b610b96565b60405161043991906135f1565b6104c56104ab366004613619565b60a06020525f90815260409020546001600160a01b031681565b6040516001600160a01b039091168152602001610439565b60bd546104c5906001600160a01b031681565b6105036104fe366004613619565b610bc3565b6040516104399190613662565b6104c561051e366004613674565b60b06020525f90815260409020546001600160a01b031681565b60a5546104c590600160401b90046001600160a01b031681565b61056561056036600461368b565b610c39565b005b609f546104c5906001600160a01b031681565b61042f6105883660046136be565b5f82815260bb602090815260408083206001600160401b038516845260080190915290205492915050565b6105d76105c1366004613496565b60b66020525f908152604090205462ffffff1681565b60405162ffffff9091168152602001610439565b6104c56105f9366004613619565b60a26020525f90815260409020546001600160a01b031681565b61042f610c77565b60a55461062e906001600160401b031681565b6040516001600160401b039091168152602001610439565b60c0546104c5906001600160a01b031681565b61042f610667366004613496565b60b56020525f908152604090205481565b610565610d7d565b61056561068e366004613496565b610d8f565b6106a66106a1366004613674565b610e37565b6040516104399493929190613751565b61042f60ad5481565b60aa546104c5906001600160a01b031681565b6105d76106e03660046137a8565b60a160209081525f928352604080842090915290825290205462ffffff1681565b61056561070f366004613496565b610feb565b60bf546104c5906001600160a01b031681565b60b9545f90815260bb602052604090206003015461042f565b610565611015565b610565610756366004613496565b611026565b60be546104c5906001600160a01b031681565b61042f6110bd565b61042f60ae5481565b6104c561078d366004613674565b5f908152600560205260409020546001600160a01b031690565b6105656113ad565b6105656107bd3660046139a3565b61141e565b61042f6107d0366004613496565b60b26020525f908152604090205481565b6038546001600160a01b03166104c5565b60b8545f90815260ba602052604090206003015461042f565b61042f610819366004613496565b60b36020525f908152604090205481565b61042f60af5481565b60a3546108409060ff1681565b60405160ff9091168152602001610439565b6104c5610860366004613674565b60b16020525f90815260409020546001600160a01b031681565b610565610888366004613a58565b611438565b61050361089b366004613619565b6116a1565b6105656108ae366004613560565b611715565b61042f61173b565b61042f60a85481565b6105656108d2366004613496565b61181b565b6105036108e5366004613619565b611845565b6105656108f8366004613b24565b6118b9565b61056561090b366004613496565b611987565b60bc546104c5906001600160a01b031681565b61042f610931366004613619565b60b9545f90815260bb602090815260408083206001600160401b03909416835260059093019052205490565b61042f60b95481565b610503610974366004613619565b6119d7565b60c1546104c5906001600160a01b031681565b61042f60ac5481565b61042f60ab5481565b6105656109ac366004613496565b611a4b565b6109c46109bf366004613619565b611a75565b6040516104399190613be2565b606a546104c5906001600160a01b031681565b6109c46109f2366004613619565b611af4565b610a0a610a05366004613674565b611b72565b6040516104399493929190613bf4565b61042f610a28366004613c75565b611d26565b609e546104c5906001600160a01b031681565b609d546104c5906001600160a01b031681565b61062e610a61366004613496565b60b76020525f90815260409020546001600160401b031681565b610565610a89366004613cc3565b611e63565b61042f60b85481565b610565610aa5366004613496565b611ec9565b60c2546104c5906001600160a01b031681565b61042f610acb366004613619565b60b8545f90815260ba602090815260408083206001600160401b03909416835260059093019052205490565b60a55460bd546040516304a10b8960e51b81526001600160a01b039182166004820152858216602482015284821660448201526001600160801b03841660648201525f92600160401b900490911690639421712090608401602060405180830381865afa158015610b6a573d5f803e3d5ffd5b505050506040513d601f19601f82011682018060405250810190610b8e9190613d05565b949350505050565b60608282604051602001610bab929190613d33565b60405160208183030381529060405290505b92915050565b60b9545f90815260bb602090815260408083206001600160401b0385168452600601825291829020805483518184028101840190945280845260609392830182828015610c2d57602002820191905f5260205f20905b815481526020019060010190808311610c19575b50505050509050919050565b610c41611ff1565b6001600160401b03165f90815260a26020526040902080546001600160a01b0319166001600160a01b0392909216919091179055565b5f8060aa5f9054906101000a90046001600160a01b03166001600160a01b031663feaf968c6040518163ffffffff1660e01b815260040160a060405180830381865afa158015610cc9573d5f803e3d5ffd5b505050506040513d601f19601f82011682018060405250810190610ced9190613d60565b5050509150505f60aa5f9054906101000a90046001600160a01b03166001600160a01b031663313ce5676040518163ffffffff1660e01b8152600401602060405180830381865afa158015610d44573d5f803e3d5ffd5b505050506040513d601f19601f82011682018060405250810190610d689190613dae565b9050610d768282601261204b565b9392505050565b610d85611ff1565b610d8d61208a565b565b610d97611ff1565b6001600160a01b038116610e065760405162461bcd60e51b815260206004820152602b60248201527f5072696365206f7261636c6520616464726573732063616e6e6f74206265207a60448201526a65726f206164647265737360a81b60648201526084015b60405180910390fd5b60a580546001600160a01b03909216600160401b0268010000000000000000600160e01b0319909216919091179055565b6060806060805f60ba5f8781526020019081526020015f209050805f0181600101826002018360030183805480602002602001604051908101604052809291908181526020018280548015610eb357602002820191905f5260205f20905b81546001600160a01b03168152600190910190602001808311610e95575b5050505050935082805480602002602001604051908101604052809291908181526020018280548015610f0357602002820191905f5260205f20905b815481526020019060010190808311610eef575b5050505050925081805480602002602001604051908101604052809291908181526020018280548015610f5357602002820191905f5260205f20905b815481526020019060010190808311610f3f575b5050505050915080805480602002602001604051908101604052809291908181526020018280548015610fd457602002820191905f5260205f20905f905b82829054906101000a90046001600160401b03166001600160401b031681526020019060080190602082600701049283019260010382029150808411610f915790505b505050505090509450945094509450509193509193565b610ff3611ff1565b60c280546001600160a01b0319166001600160a01b0392909216919091179055565b61101d611ff1565b610d8d5f612307565b61102e611ff1565b6001600160a01b03811661109b5760405162461bcd60e51b815260206004820152602e60248201527f49434f3a205072696365206665656420616464726573732063616e6e6f74206260448201526d65207a65726f206164647265737360901b6064820152608401610dfd565b60aa80546001600160a01b0319166001600160a01b0392909216919091179055565b5f806111d960a680546110cf90613dce565b80601f01602080910402602001604051908101604052809291908181526020018280546110fb90613dce565b80156111465780601f1061111d57610100808354040283529160200191611146565b820191905f5260205f20905b81548152906001019060200180831161112957829003601f168201915b505050505060a7805461115890613dce565b80601f016020809104026020016040519081016040528092919081815260200182805461118490613dce565b80156111cf5780601f106111a6576101008083540402835291602001916111cf565b820191905f5260205f20905b8154815290600101906020018083116111b257829003601f168201915b5050505050610b96565b90505f6111f060a8543063b2c44b3f60e01b612358565b60408051808201909152600381526219d95d60ea1b602082015290915061121990829084612374565b61127160405180604001604052806005815260200164706174683160d81b8152506040518060400160405280600e81526020016d726573756c74732c746f6b656e7360901b815250836123749092919063ffffffff16565b6112cf604051806040016040528060058152602001643830ba341960d91b81525060405180604001604052806014815260200173726573756c74732c6d61726b657453686172657360601b815250836123749092919063ffffffff16565b61132960405180604001604052806005815260200164706174683360d81b8152506040518060400160405280601081526020016f726573756c74732c737761704665657360801b815250836123749092919063ffffffff16565b611388604051806040016040528060058152602001641c185d1a0d60da1b815250604051806040016040528060158152602001743932b9bab63a399631b430b4b729b2b632b1ba37b960591b815250836123749092919063ffffffff16565b6113a661139d6003546001600160a01b031690565b8260a954612392565b9250505090565b609f546001600160a01b03163314610d855760405162461bcd60e51b815260206004820152602e60248201527f43616c6c6572206973206e6f7420696e64657820666163746f72792062616c6160448201526d3731b2b91031b7b73a3930b1ba1760911b6064820152608401610dfd565b611426611ff1565b61143284848484612423565b50505050565b5f54610100900460ff161580801561145657505f54600160ff909116105b8061146f5750303b15801561146f57505f5460ff166001145b6114d25760405162461bcd60e51b815260206004820152602e60248201527f496e697469616c697a61626c653a20636f6e747261637420697320616c72656160448201526d191e481a5b9a5d1a585b1a5e995960921b6064820152608401610dfd565b5f805460ff1916600117905580156114f3575f805461ff0019166101001790555b6114fb612e1f565b60a580546001600160401b038e1667ffffffffffffffff19909116179055609d80546001600160a01b038d166001600160a01b031990911617905561155d8a600280546001600160a01b039092166001600160a01b0319909216919091179055565b600380546001600160a01b0319166001600160a01b038b1617905560a8889055600a611592670de0b6b3a76400006001613e14565b61159c9190613e3f565b60a95560aa80546001600160a01b03199081166001600160a01b038a81169190911790925560c08054821689841617905560bc8054821688841617905560bd8054821687841617905560be8054821686841617905560bf80549091169184169190911790556040805160608101909152602a8082526142cd602083013960a6906116269082613e9d565b506040518060600160405280602e81526020016142f7602e913960a79061164d9082613e9d565b508015611693575f805461ff0019169055604051600181527f7f26b83ff96e1f2b6a682f133852f6798a09c465da95921460cefb38474024989060200160405180910390a15b505050505050505050505050565b60b8545f90815260ba602090815260408083206001600160401b0385168452600601825291829020805483518184028101840190945280845260609392830182828015610c2d57602002820191905f5260205f2090815481526020019060010190808311610c195750505050509050919050565b61171d611ff1565b60a66117298382613e9d565b5060a76117368282613e9d565b505050565b5f805f5b60ad54811015611815575f81815260b160205260408082205460c054609d5492516370a0823160e01b81526001600160a01b0393841660048201526117fe93928316929091169082906370a0823190602401602060405180830381865afa1580156117ac573d5f803e3d5ffd5b505050506040513d601f19601f820116820180604052508101906117d09190613d05565b5f86815260b160209081526040808320546001600160a01b0316835260b690915290205462ffffff16611d26565b905061180a8184613f57565b92505060010161173f565b50919050565b611823611ff1565b609f80546001600160a01b0319166001600160a01b0392909216919091179055565b60b9545f90815260bb602090815260408083206001600160401b0385168452600701825291829020805483518184028101840190945280845260609392830182828015610c2d57602002820191905f5260205f2090815481526020019060010190808311610c195750505050509050919050565b5f8581526005602052604090205485906001600160a01b031633146119315760405162461bcd60e51b815260206004820152602860248201527f536f75726365206d75737420626520746865206f7261636c65206f6620746865604482015267081c995c5d595cdd60c21b6064820152608401610dfd565b5f8181526005602052604080822080546001600160a01b03191690555182917f7cc135e0cebb02c3480ae5d74d377283180a2601f8f644edf7987b009316c63a91a261197f85858585612423565b505050505050565b61198f611ff1565b6001600160a01b0381166119b55760405162461bcd60e51b8152600401610dfd90613f6a565b606a80546001600160a01b0319166001600160a01b0392909216919091179055565b60b8545f90815260ba602090815260408083206001600160401b0385168452600701825291829020805483518184028101840190945280845260609392830182828015610c2d57602002820191905f5260205f2090815481526020019060010190808311610c195750505050509050919050565b611a53611ff1565b609e80546001600160a01b0319166001600160a01b0392909216919091179055565b60b8545f90815260ba602090815260408083206001600160401b0385168452600501825291829020805483518184028101840190945280845260609392830182828015610c2d57602002820191905f5260205f20905b81546001600160a01b03168152600190910190602001808311611acb5750505050509050919050565b60b9545f90815260bb602090815260408083206001600160401b0385168452600501825291829020805483518184028101840190945280845260609392830182828015610c2d57602002820191905f5260205f209081546001600160a01b03168152600190910190602001808311611acb5750505050509050919050565b6060806060805f60bb5f8781526020019081526020015f209050805f0181600101826002018360030183805480602002602001604051908101604052809291908181526020018280548015611bee57602002820191905f5260205f20905b81546001600160a01b03168152600190910190602001808311611bd0575b5050505050935082805480602002602001604051908101604052809291908181526020018280548015611c3e57602002820191905f5260205f20905b815481526020019060010190808311611c2a575b5050505050925081805480602002602001604051908101604052809291908181526020018280548015610f5357602002820191905f5260205f20905f905b82829054906101000a900462ffffff1662ffffff1681526020019060030190602082600201049283019260010382029150808411611c7c5790505050505050915080805480602002602001604051908101604052809291908181526020018280548015610fd4575f91825260209182902080546001600160401b03168452908202830192909160089101808411610f91579050505050505090509450945094509450509193509193565b5f808315611e5a578262ffffff16600303611d4d57611d46868686610af7565b9050611e5a565b6040805160028082526060820183525f9260208301908036833701905050905086815f81518110611d8057611d80613fba565b60200260200101906001600160a01b031690816001600160a01b0316815250508581600181518110611db457611db4613fba565b6001600160a01b03928316602091820292909201015260be5460405163d06ca61f60e01b81525f92919091169063d06ca61f90611df79089908690600401613fce565b5f60405180830381865afa158015611e11573d5f803e3d5ffd5b505050506040513d5f823e601f3d908101601f19168201604052611e389190810190613fe6565b905080600181518110611e4d57611e4d613fba565b6020026020010151925050505b95945050505050565b611e6b611ff1565b6001600160401b03929092165f90815260a06020908152604080832080546001600160a01b0319166001600160a01b0395909516948517905560a1825280832093835292905220805462ffffff191662ffffff909216919091179055565b6001600160a01b038116611eef5760405162461bcd60e51b8152600401610dfd90613f6a565b606a546001600160a01b03828116911614611f675760405162461bcd60e51b815260206004820152603260248201527f50726f706f7361626c654f776e61626c653a206e6577206f776e6572206973206044820152713737ba10383937b837b9b2b21037bbb732b960711b6064820152608401610dfd565b6001600160a01b0381163314611fe55760405162461bcd60e51b815260206004820152603a60248201527f50726f706f7361626c654f776e61626c653a20746869732063616c6c206d757360448201527f74206265206d61646520627920746865206e6577206f776e65720000000000006064820152608401610dfd565b611fee81612307565b50565b6038546001600160a01b03163314610d8d5760405162461bcd60e51b815260206004820181905260248201527f4f776e61626c653a2063616c6c6572206973206e6f7420746865206f776e65726044820152606401610dfd565b5f8260ff168260ff16111561208057612064838361406c565b61206f90600a614168565b6120799085614176565b9050610d76565b612064828461406c565b600160b95f82825461209c9190613f57565b909155505f90505b60ac548110156122fe575f81815260b060209081526040808320805460b1845282852080546001600160a01b0319166001600160a01b03928316908117825583548316875260b586528487205490875260b486528487205582548216865260b285528386205490548216865260b3855283862055905416835260b782528083205460b954845260bb83528184206001600160401b0390911680855260049091019092529091205460ff166121c95760b980545f90815260bb602081815260408084206001600160401b03878116808752600492830185528387208054600160ff199091168117909155975487529484529185206003908101805497880181558652929094209385049093018054949091166008026101000a9283021990931691021790555b60b980545f90815260bb602081815260408084206001600160401b0387168086526005909101835281852088865260b0845282862080548254600181810185559389528689200180546001600160a01b0319166001600160a01b0392831617905588548852868652848820848952600601865284882082548216895260b68752858920548154948501825590895286892062ffffff9091169301929092555416855260b5835281852054955485529282528084209284526008909201905281208054909190612299908490613f57565b909155505060b9545f90815260bb602090815260408083206001600160401b0390941683526007909301815282822084835260b08252838320546001600160a01b0316835260b5825292822054835460018181018655948452919092200155016120a4565b5060ac5460ad55565b603880546001600160a01b038381166001600160a01b0319831681179093556040519116919082907f8be0079c531659141344cd1fd0a4f28419497f9722a3daafe3b4186f6b6457e0905f90a35050565b6123606133e5565b6123686133e5565b611e5a81868686612e4d565b60808301516123839083612e8a565b60808301516117369082612e8a565b6004545f906123a2816001613f57565b600455835160408086015160808701515191515f936320214ca360e11b936123d99386938493923092918a916001916024016141a5565b60408051601f198184030181529190526020810180516001600160e01b03166001600160e01b031990931692909217909152905061241986838684612ea1565b9695505050505050565b60b880548591859185918591600191905f90612440908490613f57565b909155505060ad545f0361246657600160b95f8282546124609190613f57565b90915550505b5f5b8451811015612dfc5784818151811061248357612483613fba565b602002602001015160b05f8381526020019081526020015f205f6101000a8154816001600160a01b0302191690836001600160a01b031602179055508060b25f8784815181106124d5576124d5613fba565b60200260200101516001600160a01b03166001600160a01b031681526020019081526020015f208190555083818151811061251257612512613fba565b602002602001015160b55f87848151811061252f5761252f613fba565b60200260200101516001600160a01b03166001600160a01b031681526020019081526020015f208190555082818151811061256c5761256c613fba565b602002602001015160b65f87848151811061258957612589613fba565b60200260200101516001600160a01b03166001600160a01b031681526020019081526020015f205f6101000a81548162ffffff021916908362ffffff1602179055508181815181106125dd576125dd613fba565b602002602001015160b75f8784815181106125fa576125fa613fba565b60200260200101516001600160a01b03166001600160a01b031681526020019081526020015f205f6101000a8154816001600160401b0302191690836001600160401b0316021790555060ba5f60b85481526020019081526020015f206004015f83838151811061266d5761266d613fba565b6020908102919091018101516001600160401b031682528101919091526040015f205460ff1661277f5760ba5f60b85481526020019081526020015f206003018282815181106126bf576126bf613fba565b6020026020010151908060018154018082558091505060019003905f5260205f2090600491828204019190066008029091909190916101000a8154816001600160401b0302191690836001600160401b03160217905550600160ba5f60b85481526020019081526020015f206004015f84848151811061274157612741613fba565b60200260200101516001600160401b03166001600160401b031681526020019081526020015f205f6101000a81548160ff0219169083151502179055505b60ba5f60b85481526020019081526020015f206005015f8383815181106127a8576127a8613fba565b60200260200101516001600160401b03166001600160401b031681526020019081526020015f208582815181106127e1576127e1613fba565b60209081029190910181015182546001810184555f9384528284200180546001600160a01b0319166001600160a01b0390921691909117905560b854825260ba90526040812083516006909101919084908490811061284257612842613fba565b60200260200101516001600160401b03166001600160401b031681526020019081526020015f2083828151811061287b5761287b613fba565b60209081029190910181015182546001810184555f9384529190922062ffffff90921691015583518490829081106128b5576128b5613fba565b602002602001015160ba5f60b85481526020019081526020015f206008015f8484815181106128e6576128e6613fba565b60200260200101516001600160401b03166001600160401b031681526020019081526020015f205f82825461291b9190613f57565b9250508190555060ba5f60b85481526020019081526020015f206007015f83838151811061294b5761294b613fba565b60200260200101516001600160401b03166001600160401b031681526020019081526020015f2084828151811061298457612984613fba565b60209081029190910181015182546001810184555f9384529183209091015560ad549003612df4578481815181106129be576129be613fba565b602002602001015160b15f8381526020019081526020015f205f6101000a8154816001600160a01b0302191690836001600160a01b03160217905550838181518110612a0c57612a0c613fba565b602002602001015160b45f878481518110612a2957612a29613fba565b60200260200101516001600160a01b03166001600160a01b031681526020019081526020015f20819055508060b35f878481518110612a6a57612a6a613fba565b60200260200101516001600160a01b03166001600160a01b031681526020019081526020015f208190555060bb5f60b95481526020019081526020015f206004015f838381518110612abe57612abe613fba565b6020908102919091018101516001600160401b031682528101919091526040015f205460ff16612bd057600160bb5f60b95481526020019081526020015f206004015f848481518110612b1357612b13613fba565b60200260200101516001600160401b03166001600160401b031681526020019081526020015f205f6101000a81548160ff02191690831515021790555060bb5f60b95481526020019081526020015f20600301828281518110612b7857612b78613fba565b6020026020010151908060018154018082558091505060019003905f5260205f2090600491828204019190066008029091909190916101000a8154816001600160401b0302191690836001600160401b031602179055505b60bb5f60b95481526020019081526020015f206005015f838381518110612bf957612bf9613fba565b60200260200101516001600160401b03166001600160401b031681526020019081526020015f20858281518110612c3257612c32613fba565b60209081029190910181015182546001810184555f9384528284200180546001600160a01b0319166001600160a01b0390921691909117905560b954825260bb905260408120835160069091019190849084908110612c9357612c93613fba565b60200260200101516001600160401b03166001600160401b031681526020019081526020015f20838281518110612ccc57612ccc613fba565b60209081029190910181015182546001810184555f9384529190922062ffffff9092169101558351849082908110612d0657612d06613fba565b602002602001015160bb5f60b95481526020019081526020015f206008015f848481518110612d3757612d37613fba565b60200260200101516001600160401b03166001600160401b031681526020019081526020015f205f828254612d6c9190613f57565b9250508190555060bb5f60b95481526020019081526020015f206007015f838381518110612d9c57612d9c613fba565b60200260200101516001600160401b03166001600160401b031681526020019081526020015f20848281518110612dd557612dd5613fba565b60209081029190910181015182546001810184555f9384529190922001555b600101612468565b50835160ac5560ad545f03612e1157835160ad555b50504260ab55505050505050565b5f54610100900460ff16612e455760405162461bcd60e51b8152600401610dfd9061420b565b610d8d612ffa565b612e556133e5565b612e658560800151610100613029565b50509183526001600160a01b031660208301526001600160e01b031916604082015290565b612e97826003835161308c565b6117368282613193565b6040516bffffffffffffffffffffffff193060601b166020820152603481018490525f9060540160408051808303601f1901815282825280516020918201205f818152600590925291812080546001600160a01b0319166001600160a01b038a1617905590925082917fb5e6e01e79f91267dc17b4e6314d5d4d03593d2ceee0fbb452b750bd70ea5af99190a2600254604051630200057560e51b81526001600160a01b0390911690634000aea090612f6290889087908790600401614256565b6020604051808303815f875af1158015612f7e573d5f803e3d5ffd5b505050506040513d601f19601f82011682018060405250810190612fa2919061427c565b610b8e5760405162461bcd60e51b815260206004820152602360248201527f756e61626c6520746f207472616e73666572416e6443616c6c20746f206f7261604482015262636c6560e81b6064820152608401610dfd565b5f54610100900460ff166130205760405162461bcd60e51b8152600401610dfd9061420b565b610d8d33612307565b60408051808201909152606081525f602082015261304860208361429b565b156130705761305860208361429b565b6130639060206142ae565b61306d9083613f57565b91505b506020828101829052604080518085525f815290920101905290565b6017816001600160401b0316116130b0576114328360e0600585901b1683176131b8565b60ff816001600160401b0316116130ec576130d6836018611fe0600586901b16176131b8565b50611432836001600160401b03831660016131db565b61ffff816001600160401b03161161312957613113836019611fe0600586901b16176131b8565b50611432836001600160401b03831660026131db565b63ffffffff816001600160401b0316116131685761315283601a611fe0600586901b16176131b8565b50611432836001600160401b03831660046131db565b61317d83601b611fe0600586901b16176131b8565b50611432836001600160401b03831660086131db565b60408051808201909152606081525f6020820152610d7683845f0151518485516131ff565b60408051808201909152606081525f6020820152610d7683845f015151846132e5565b60408051808201909152606081525f6020820152610b8e84855f015151858561333f565b60408051808201909152606081525f60208201528251821115613220575f80fd5b602085015161322f8386613f57565b111561326257613262856132528760200151878661324d9190613f57565b6133be565b61325d906002613e14565b6133ce565b5f808651805187602083010193508088870111156132805787860182525b505050602084015b602084106132c0578051825261329f602083613f57565b91506132ac602082613f57565b90506132b96020856142ae565b9350613288565b5181515f1960208690036101000a019081169019919091161790525083949350505050565b60408051808201909152606081525f60208201528360200151831061331957613319848560200151600261325d9190613e14565b8351805160208583010184815350808503613335576001810182525b5093949350505050565b60408051808201909152606081525f602082015260208501516133628584613f57565b111561337657613376856132528685613f57565b5f6001613385846101006142c1565b61338f91906142ae565b90508551838682010185831982511617815250805184870111156133b35783860181525b509495945050505050565b5f81831115611815575081610bbd565b81516133da8383613029565b506114328382613193565b6040805160a0810182525f808252602080830182905282840182905260608084018390528451808601909552845283015290608082015290565b6001600160a01b0381168114611fee575f80fd5b803561343e8161341f565b919050565b5f805f60608486031215613455575f80fd5b83356134608161341f565b925060208401356134708161341f565b915060408401356001600160801b038116811461348b575f80fd5b809150509250925092565b5f602082840312156134a6575f80fd5b8135610d768161341f565b634e487b7160e01b5f52604160045260245ffd5b604051601f8201601f191681016001600160401b03811182821017156134ed576134ed6134b1565b604052919050565b5f82601f830112613504575f80fd5b81356001600160401b0381111561351d5761351d6134b1565b613530601f8201601f19166020016134c5565b818152846020838601011115613544575f80fd5b816020850160208301375f918101602001919091529392505050565b5f8060408385031215613571575f80fd5b82356001600160401b03811115613586575f80fd5b613592858286016134f5565b92505060208301356001600160401b038111156135ad575f80fd5b6135b9858286016134f5565b9150509250929050565b5f81518084528060208401602086015e5f602082860101526020601f19601f83011685010191505092915050565b602081525f610d7660208301846135c3565b80356001600160401b038116811461343e575f80fd5b5f60208284031215613629575f80fd5b610d7682613603565b5f8151808452602084019350602083015f5b82811015613335578151865260209586019590910190600101613644565b602081525f610d766020830184613632565b5f60208284031215613684575f80fd5b5035919050565b5f806040838503121561369c575f80fd5b82356136a78161341f565b91506136b560208401613603565b90509250929050565b5f80604083850312156136cf575f80fd5b823591506136b560208401613603565b5f8151808452602084019350602083015f5b828110156133355781516001600160a01b03168652602095860195909101906001016136f1565b5f8151808452602084019350602083015f5b828110156133355781516001600160401b031686526020958601959091019060010161372a565b608081525f61376360808301876136df565b82810360208401526137758187613632565b905082810360408401526137898186613632565b9050828103606084015261379d8185613718565b979650505050505050565b5f80604083850312156137b9575f80fd5b6137c283613603565b915060208301356137d28161341f565b809150509250929050565b5f6001600160401b038211156137f5576137f56134b1565b5060051b60200190565b5f82601f83011261380e575f80fd5b813561382161381c826137dd565b6134c5565b8082825260208201915060208360051b860101925085831115613842575f80fd5b602085015b8381101561386857803561385a8161341f565b835260209283019201613847565b5095945050505050565b5f82601f830112613881575f80fd5b813561388f61381c826137dd565b8082825260208201915060208360051b8601019250858311156138b0575f80fd5b602085015b838110156138685780358352602092830192016138b5565b803562ffffff8116811461343e575f80fd5b5f82601f8301126138ee575f80fd5b81356138fc61381c826137dd565b8082825260208201915060208360051b86010192508583111561391d575f80fd5b602085015b8381101561386857613933816138cd565b835260209283019201613922565b5f82601f830112613950575f80fd5b813561395e61381c826137dd565b8082825260208201915060208360051b86010192508583111561397f575f80fd5b602085015b838110156138685761399581613603565b835260209283019201613984565b5f805f80608085870312156139b6575f80fd5b84356001600160401b038111156139cb575f80fd5b6139d7878288016137ff565b94505060208501356001600160401b038111156139f2575f80fd5b6139fe87828801613872565b93505060408501356001600160401b03811115613a19575f80fd5b613a25878288016138df565b92505060608501356001600160401b03811115613a40575f80fd5b613a4c87828801613941565b91505092959194509250565b5f805f805f805f805f805f6101608c8e031215613a73575f80fd5b613a7c8c613603565b9a5060208c0135613a8c8161341f565b995060408c0135613a9c8161341f565b985060608c0135613aac8161341f565b975060808c0135965060a08c0135613ac38161341f565b955060c08c0135613ad38161341f565b945060e08c0135613ae38161341f565b93506101008c0135613af48161341f565b9250613b036101208d01613433565b9150613b126101408d01613433565b90509295989b509295989b9093969950565b5f805f805f60a08688031215613b38575f80fd5b8535945060208601356001600160401b03811115613b54575f80fd5b613b60888289016137ff565b94505060408601356001600160401b03811115613b7b575f80fd5b613b8788828901613872565b93505060608601356001600160401b03811115613ba2575f80fd5b613bae888289016138df565b92505060808601356001600160401b03811115613bc9575f80fd5b613bd588828901613941565b9150509295509295909350565b602081525f610d7660208301846136df565b608081525f613c0660808301876136df565b8281036020840152613c188187613632565b8381036040850152855180825260208088019350909101905f5b81811015613c5557835162ffffff16835260209384019390920191600101613c32565b50508381036060850152613c698186613718565b98975050505050505050565b5f805f8060808587031215613c88575f80fd5b8435613c938161341f565b93506020850135613ca38161341f565b925060408501359150613cb8606086016138cd565b905092959194509250565b5f805f60608486031215613cd5575f80fd5b613cde84613603565b92506020840135613cee8161341f565b9150613cfc604085016138cd565b90509250925092565b5f60208284031215613d15575f80fd5b5051919050565b5f81518060208401855e5f93019283525090919050565b5f610b8e613d418386613d1c565b84613d1c565b805169ffffffffffffffffffff8116811461343e575f80fd5b5f805f805f60a08688031215613d74575f80fd5b613d7d86613d47565b60208701516040880151606089015192975090955093509150613da260808701613d47565b90509295509295909350565b5f60208284031215613dbe575f80fd5b815160ff81168114610d76575f80fd5b600181811c90821680613de257607f821691505b60208210810361181557634e487b7160e01b5f52602260045260245ffd5b634e487b7160e01b5f52601160045260245ffd5b8082028115828204841417610bbd57610bbd613e00565b634e487b7160e01b5f52601260045260245ffd5b5f82613e4d57613e4d613e2b565b500490565b601f82111561173657805f5260205f20601f840160051c81016020851015613e775750805b601f840160051c820191505b81811015613e96575f8155600101613e83565b5050505050565b81516001600160401b03811115613eb657613eb66134b1565b613eca81613ec48454613dce565b84613e52565b6020601f821160018114613efc575f8315613ee55750848201515b5f19600385901b1c1916600184901b178455613e96565b5f84815260208120601f198516915b82811015613f2b5787850151825560209485019460019092019101613f0b565b5084821015613f4857868401515f19600387901b60f8161c191681555b50505050600190811b01905550565b80820180821115610bbd57610bbd613e00565b60208082526030908201527f50726f706f7361626c654f776e61626c653a206e6577206f776e65722069732060408201526f746865207a65726f206164647265737360801b606082015260800190565b634e487b7160e01b5f52603260045260245ffd5b828152604060208201525f610b8e60408301846136df565b5f60208284031215613ff6575f80fd5b81516001600160401b0381111561400b575f80fd5b8201601f8101841361401b575f80fd5b805161402961381c826137dd565b8082825260208201915060208360051b85010192508683111561404a575f80fd5b6020840193505b82841015612419578351825260209384019390910190614051565b60ff8281168282160390811115610bbd57610bbd613e00565b6001815b60018411156140c0578085048111156140a4576140a4613e00565b60018416156140b257908102905b60019390931c928002614089565b935093915050565b5f826140d657506001610bbd565b816140e257505f610bbd565b81600181146140f857600281146141025761411e565b6001915050610bbd565b60ff84111561411357614113613e00565b50506001821b610bbd565b5060208310610133831016604e8410600b8410161715614141575081810a610bbd565b61414d5f198484614085565b805f190482111561416057614160613e00565b029392505050565b5f610d7660ff8416836140c8565b8082025f8212600160ff1b8414161561419157614191613e00565b8181058314821517610bbd57610bbd613e00565b6001600160a01b0389811682526020820189905260408201889052861660608201526001600160e01b03198516608082015260a0810184905260c0810183905261010060e082018190525f906141fd908301846135c3565b9a9950505050505050505050565b6020808252602b908201527f496e697469616c697a61626c653a20636f6e7472616374206973206e6f74206960408201526a6e697469616c697a696e6760a81b606082015260800190565b60018060a01b0384168152826020820152606060408201525f611e5a60608301846135c3565b5f6020828403121561428c575f80fd5b81518015158114610d76575f80fd5b5f826142a9576142a9613e2b565b500690565b81810381811115610bbd57610bbd613e00565b5f610d7683836140c856fe68747470733a2f2f6170702e6e65786c6162732e696f2f6170692f616c6c46756e64696e6752617465733f6d756c7469706c7946756e633d31382674696d65734e656746756e643d74727565266172726179733d74727565a26469706673582212202fd892a8f9518d9298bce4ee8bb0aceb40dda00c812f4b0179114f96ae3617d764736f6c634300081a0033","linkReferences":{}},"methodIdentifiers":{"allCurrentChainSelectorTokenShares(uint64)":"af696b34","allCurrentChainSelectorTokens(uint64)":"d1c68aa3","allCurrentChainSelectorVersions(uint64)":"221f3371","allOracleChainSelectorTokenShares(uint64)":"bf0d49c0","allOracleChainSelectorTokens(uint64)":"d050ca7c","allOracleChainSelectorVersions(uint64)":"a1adff88","concatenation(string,string)":"0e329357","crossChainFactoryBySelector(uint64)":"340fbc74","crossChainToken(uint64)":"19da7e2a","crossChainTokenSwapFee(uint64,address)":"652354ae","currentChainSelector()":"3d54cb6f","currentChainSelectorTokensCount(uint64)":"b6ad185b","currentChainSelectorsCount()":"69487b1c","currentFilledCount()":"b90b8a2a","currentList(uint256)":"9932ba4c","estimateAmountOut(address,address,uint128)":"0456f9c8","externalJobId()":"a8b54bd4","factoryV2()":"68e0d4e1","factoryV3()":"1d5f45f5","feeRate()":"978bbdb9","fulfillAssetsData(bytes32,address[],uint256[],uint24[],uint64[])":"b2c44b3f","getAmountOut(address,address,uint256,uint24)":"dd811ac9","getCurrentChainSelectorTotalShares(uint256,uint64)":"2a3ff8ad","getCurrentData(uint256)":"d3f7f266","getOracleData(uint256)":"536e3f6a","getPendingRequest(bytes32)":"88b12d55","getPortfolioBalance()":"a8509fd8","indexFactory()":"e3fd0af2","indexFactoryBalancer()":"29d75de9","indexToken()":"e7d015f2","initialize(uint64,address,address,address,bytes32,address,address,address,address,address,address)":"9ebe560e","lastUpdateTime()":"c8f33c91","latestFeeUpdate()":"011ced5f","mockFillAssetsList(address[],uint256[],uint24[],uint64[])":"8bb8f1bb","mockUpdateCurrentList()":"4f9641b9","oracleChainSelectorTokensCount(uint64)":"fc698b4a","oracleChainSelectorsCount()":"8e9d7c18","oracleFilledCount()":"f1581787","oracleList(uint256)":"239aad0d","oraclePayment()":"0c02e130","owner()":"8da5cb5b","priceInWei()":"3c8da588","priceOracle()":"2630c12f","proposeOwner(address)":"b5ed298a","proposedOwner()":"d153b60c","quoter()":"c6bbd5a7","renounceOwnership()":"715018a6","requestAssetsData()":"7ca58c55","setCrossChainFactory(address,uint64)":"271040df","setCrossChainToken(uint64,address,uint24)":"f0cd5b72","setIndexFactory(address)":"d047937f","setIndexFactoryBalancer(address)":"ae214f39","setPriceFeed(address)":"724e78da","setPriceOracle(address)":"530e784f","setUrl(string,string)":"a73e1cbf","setVault(address)":"6817031b","swapRouterV2()":"744fbc7a","swapRouterV3()":"b631e80b","toUsdPriceFeed()":"63973fda","tokenChainSelector(address)":"ea8ecf04","tokenCurrentListIndex(address)":"914f0cc6","tokenCurrentMarketShare(address)":"0be52713","tokenOracleListIndex(address)":"8c88c10c","tokenOracleMarketShare(address)":"4b3e0b80","tokenSwapFee(address)":"32599665","totalCurrentChainSelectors()":"92e410ce","totalCurrentList()":"53fd4332","totalOracleChainSelectors()":"80acffa3","totalOracleList()":"c8599ded","transferOwnership(address)":"f2fde38b","updateCurrentList()":"8baa6bf1","vault()":"fbfa77cf","weth()":"3fc8cef3"},"id":5}