{
  "abi": [
    {
      "inputs": [],
      "name": "T",
      "type": "error"
    },
    {
      "anonymous": false,
      "inputs": [
        {
          "indexed": true,
          "internalType": "bytes32",
          "name": "id",
          "type": "bytes32"
        }
      ],
      "name": "ChainlinkCancelled",
      "type": "event"
    },
    {
      "anonymous": false,
      "inputs": [
        {
          "indexed": true,
          "internalType": "bytes32",
          "name": "id",
          "type": "bytes32"
        }
      ],
      "name": "ChainlinkFulfilled",
      "type": "event"
    },
    {
      "anonymous": false,
      "inputs": [
        {
          "indexed": true,
          "internalType": "bytes32",
          "name": "id",
          "type": "bytes32"
        }
      ],
      "name": "ChainlinkRequested",
      "type": "event"
    },
    {
      "anonymous": false,
      "inputs": [
        {
          "indexed": false,
          "internalType": "uint8",
          "name": "version",
          "type": "uint8"
        }
      ],
      "name": "Initialized",
      "type": "event"
    },
    {
      "anonymous": false,
      "inputs": [
        {
          "indexed": true,
          "internalType": "address",
          "name": "previousOwner",
          "type": "address"
        },
        {
          "indexed": true,
          "internalType": "address",
          "name": "newOwner",
          "type": "address"
        }
      ],
      "name": "OwnershipTransferred",
      "type": "event"
    },
    {
      "inputs": [
        {
          "internalType": "uint64",
          "name": "_chainSelector",
          "type": "uint64"
        }
      ],
      "name": "allCurrentChainSelectorTokenShares",
      "outputs": [
        {
          "internalType": "uint256[]",
          "name": "",
          "type": "uint256[]"
        }
      ],
      "stateMutability": "view",
      "type": "function"
    },
    {
      "inputs": [
        {
          "internalType": "uint64",
          "name": "_chainSelector",
          "type": "uint64"
        }
      ],
      "name": "allCurrentChainSelectorTokens",
      "outputs": [
        {
          "internalType": "address[]",
          "name": "tokens",
          "type": "address[]"
        }
      ],
      "stateMutability": "view",
      "type": "function"
    },
    {
      "inputs": [
        {
          "internalType": "uint64",
          "name": "_chainSelector",
          "type": "uint64"
        }
      ],
      "name": "allCurrentChainSelectorVersions",
      "outputs": [
        {
          "internalType": "uint256[]",
          "name": "versions",
          "type": "uint256[]"
        }
      ],
      "stateMutability": "view",
      "type": "function"
    },
    {
      "inputs": [
        {
          "internalType": "uint64",
          "name": "_chainSelector",
          "type": "uint64"
        }
      ],
      "name": "allOracleChainSelectorTokenShares",
      "outputs": [
        {
          "internalType": "uint256[]",
          "name": "",
          "type": "uint256[]"
        }
      ],
      "stateMutability": "view",
      "type": "function"
    },
    {
      "inputs": [
        {
          "internalType": "uint64",
          "name": "_chainSelector",
          "type": "uint64"
        }
      ],
      "name": "allOracleChainSelectorTokens",
      "outputs": [
        {
          "internalType": "address[]",
          "name": "tokens",
          "type": "address[]"
        }
      ],
      "stateMutability": "view",
      "type": "function"
    },
    {
      "inputs": [
        {
          "internalType": "uint64",
          "name": "_chainSelector",
          "type": "uint64"
        }
      ],
      "name": "allOracleChainSelectorVersions",
      "outputs": [
        {
          "internalType": "uint256[]",
          "name": "versions",
          "type": "uint256[]"
        }
      ],
      "stateMutability": "view",
      "type": "function"
    },
    {
      "inputs": [
        {
          "internalType": "string",
          "name": "a",
          "type": "string"
        },
        {
          "internalType": "string",
          "name": "b",
          "type": "string"
        }
      ],
      "name": "concatenation",
      "outputs": [
        {
          "internalType": "string",
          "name": "",
          "type": "string"
        }
      ],
      "stateMutability": "pure",
      "type": "function"
    },
    {
      "inputs": [
        {
          "internalType": "uint64",
          "name": "",
          "type": "uint64"
        }
      ],
      "name": "crossChainFactoryBySelector",
      "outputs": [
        {
          "internalType": "address",
          "name": "",
          "type": "address"
        }
      ],
      "stateMutability": "view",
      "type": "function"
    },
    {
      "inputs": [
        {
          "internalType": "uint64",
          "name": "",
          "type": "uint64"
        }
      ],
      "name": "crossChainToken",
      "outputs": [
        {
          "internalType": "address",
          "name": "",
          "type": "address"
        }
      ],
      "stateMutability": "view",
      "type": "function"
    },
    {
      "inputs": [
        {
          "internalType": "uint64",
          "name": "",
          "type": "uint64"
        },
        {
          "internalType": "address",
          "name": "",
          "type": "address"
        }
      ],
      "name": "crossChainTokenSwapVersion",
      "outputs": [
        {
          "internalType": "uint256",
          "name": "",
          "type": "uint256"
        }
      ],
      "stateMutability": "view",
      "type": "function"
    },
    {
      "inputs": [],
      "name": "currentChainSelector",
      "outputs": [
        {
          "internalType": "uint64",
          "name": "",
          "type": "uint64"
        }
      ],
      "stateMutability": "view",
      "type": "function"
    },
    {
      "inputs": [
        {
          "internalType": "uint256",
          "name": "",
          "type": "uint256"
        },
        {
          "internalType": "uint64",
          "name": "",
          "type": "uint64"
        },
        {
          "internalType": "uint256",
          "name": "",
          "type": "uint256"
        }
      ],
      "name": "currentChainSelectorTokenShares",
      "outputs": [
        {
          "internalType": "uint256",
          "name": "",
          "type": "uint256"
        }
      ],
      "stateMutability": "view",
      "type": "function"
    },
    {
      "inputs": [
        {
          "internalType": "uint256",
          "name": "",
          "type": "uint256"
        },
        {
          "internalType": "uint64",
          "name": "",
          "type": "uint64"
        },
        {
          "internalType": "uint256",
          "name": "",
          "type": "uint256"
        }
      ],
      "name": "currentChainSelectorTokens",
      "outputs": [
        {
          "internalType": "address",
          "name": "",
          "type": "address"
        }
      ],
      "stateMutability": "view",
      "type": "function"
    },
    {
      "inputs": [
        {
          "internalType": "uint64",
          "name": "_chainSelector",
          "type": "uint64"
        }
      ],
      "name": "currentChainSelectorTokensCount",
      "outputs": [
        {
          "internalType": "uint256",
          "name": "",
          "type": "uint256"
        }
      ],
      "stateMutability": "view",
      "type": "function"
    },
    {
      "inputs": [
        {
          "internalType": "uint256",
          "name": "",
          "type": "uint256"
        },
        {
          "internalType": "uint64",
          "name": "",
          "type": "uint64"
        }
      ],
      "name": "currentChainSelectorTotalShares",
      "outputs": [
        {
          "internalType": "uint256",
          "name": "",
          "type": "uint256"
        }
      ],
      "stateMutability": "view",
      "type": "function"
    },
    {
      "inputs": [
        {
          "internalType": "uint256",
          "name": "",
          "type": "uint256"
        },
        {
          "internalType": "uint64",
          "name": "",
          "type": "uint64"
        },
        {
          "internalType": "uint256",
          "name": "",
          "type": "uint256"
        }
      ],
      "name": "currentChainSelectorVersions",
      "outputs": [
        {
          "internalType": "uint256",
          "name": "",
          "type": "uint256"
        }
      ],
      "stateMutability": "view",
      "type": "function"
    },
    {
      "inputs": [
        {
          "internalType": "uint256",
          "name": "",
          "type": "uint256"
        },
        {
          "internalType": "uint256",
          "name": "",
          "type": "uint256"
        }
      ],
      "name": "currentChainSelectors",
      "outputs": [
        {
          "internalType": "uint64",
          "name": "",
          "type": "uint64"
        }
      ],
      "stateMutability": "view",
      "type": "function"
    },
    {
      "inputs": [],
      "name": "currentChainSelectorsCount",
      "outputs": [
        {
          "internalType": "uint256",
          "name": "",
          "type": "uint256"
        }
      ],
      "stateMutability": "view",
      "type": "function"
    },
    {
      "inputs": [],
      "name": "currentFilledCount",
      "outputs": [
        {
          "internalType": "uint256",
          "name": "",
          "type": "uint256"
        }
      ],
      "stateMutability": "view",
      "type": "function"
    },
    {
      "inputs": [
        {
          "internalType": "uint256",
          "name": "",
          "type": "uint256"
        }
      ],
      "name": "currentList",
      "outputs": [
        {
          "internalType": "address",
          "name": "",
          "type": "address"
        }
      ],
      "stateMutability": "view",
      "type": "function"
    },
    {
      "inputs": [
        {
          "internalType": "address",
          "name": "tokenIn",
          "type": "address"
        },
        {
          "internalType": "address",
          "name": "tokenOut",
          "type": "address"
        },
        {
          "internalType": "uint128",
          "name": "amountIn",
          "type": "uint128"
        },
        {
          "internalType": "uint32",
          "name": "secondsAgo",
          "type": "uint32"
        }
      ],
      "name": "estimateAmountOut",
      "outputs": [
        {
          "internalType": "uint256",
          "name": "amountOut",
          "type": "uint256"
        }
      ],
      "stateMutability": "view",
      "type": "function"
    },
    {
      "inputs": [],
      "name": "externalJobId",
      "outputs": [
        {
          "internalType": "bytes32",
          "name": "",
          "type": "bytes32"
        }
      ],
      "stateMutability": "view",
      "type": "function"
    },
    {
      "inputs": [],
      "name": "factoryV2",
      "outputs": [
        {
          "internalType": "contract IUniswapV2Factory",
          "name": "",
          "type": "address"
        }
      ],
      "stateMutability": "view",
      "type": "function"
    },
    {
      "inputs": [],
      "name": "factoryV3",
      "outputs": [
        {
          "internalType": "contract IUniswapV3Factory",
          "name": "",
          "type": "address"
        }
      ],
      "stateMutability": "view",
      "type": "function"
    },
    {
      "inputs": [],
      "name": "feeRate",
      "outputs": [
        {
          "internalType": "uint8",
          "name": "",
          "type": "uint8"
        }
      ],
      "stateMutability": "view",
      "type": "function"
    },
    {
      "inputs": [
        {
          "internalType": "bytes32",
          "name": "requestId",
          "type": "bytes32"
        },
        {
          "internalType": "address[]",
          "name": "_tokens",
          "type": "address[]"
        },
        {
          "internalType": "uint256[]",
          "name": "_marketShares",
          "type": "uint256[]"
        },
        {
          "internalType": "uint256[]",
          "name": "_swapVersions",
          "type": "uint256[]"
        },
        {
          "internalType": "uint64[]",
          "name": "_chainSelectors",
          "type": "uint64[]"
        }
      ],
      "name": "fulfillAssetsData",
      "outputs": [],
      "stateMutability": "nonpayable",
      "type": "function"
    },
    {
      "inputs": [
        {
          "internalType": "address",
          "name": "tokenIn",
          "type": "address"
        },
        {
          "internalType": "address",
          "name": "tokenOut",
          "type": "address"
        },
        {
          "internalType": "uint256",
          "name": "amountIn",
          "type": "uint256"
        },
        {
          "internalType": "uint256",
          "name": "_swapVersion",
          "type": "uint256"
        }
      ],
      "name": "getAmountOut",
      "outputs": [
        {
          "internalType": "uint256",
          "name": "finalAmountOut",
          "type": "uint256"
        }
      ],
      "stateMutability": "view",
      "type": "function"
    },
    {
      "inputs": [],
      "name": "getPortfolioBalance",
      "outputs": [
        {
          "internalType": "uint256",
          "name": "",
          "type": "uint256"
        }
      ],
      "stateMutability": "view",
      "type": "function"
    },
    {
      "inputs": [],
      "name": "indexFactory",
      "outputs": [
        {
          "internalType": "address",
          "name": "",
          "type": "address"
        }
      ],
      "stateMutability": "view",
      "type": "function"
    },
    {
      "inputs": [],
      "name": "indexFactoryBalancer",
      "outputs": [
        {
          "internalType": "address",
          "name": "",
          "type": "address"
        }
      ],
      "stateMutability": "view",
      "type": "function"
    },
    {
      "inputs": [],
      "name": "indexToken",
      "outputs": [
        {
          "internalType": "contract IndexToken",
          "name": "",
          "type": "address"
        }
      ],
      "stateMutability": "view",
      "type": "function"
    },
    {
      "inputs": [
        {
          "internalType": "uint64",
          "name": "_currentChainSelector",
          "type": "uint64"
        },
        {
          "internalType": "address payable",
          "name": "_token",
          "type": "address"
        },
        {
          "internalType": "address",
          "name": "_chainlinkToken",
          "type": "address"
        },
        {
          "internalType": "address",
          "name": "_oracleAddress",
          "type": "address"
        },
        {
          "internalType": "bytes32",
          "name": "_externalJobId",
          "type": "bytes32"
        },
        {
          "internalType": "address",
          "name": "_toUsdPriceFeed",
          "type": "address"
        },
        {
          "internalType": "address",
          "name": "_weth",
          "type": "address"
        },
        {
          "internalType": "address",
          "name": "_swapRouterV3",
          "type": "address"
        },
        {
          "internalType": "address",
          "name": "_factoryV3",
          "type": "address"
        },
        {
          "internalType": "address",
          "name": "_swapRouterV2",
          "type": "address"
        },
        {
          "internalType": "address",
          "name": "_factoryV2",
          "type": "address"
        }
      ],
      "name": "initialize",
      "outputs": [],
      "stateMutability": "nonpayable",
      "type": "function"
    },
    {
      "inputs": [
        {
          "internalType": "uint256",
          "name": "",
          "type": "uint256"
        },
        {
          "internalType": "uint64",
          "name": "",
          "type": "uint64"
        }
      ],
      "name": "isCurrentChainSelectorStored",
      "outputs": [
        {
          "internalType": "bool",
          "name": "",
          "type": "bool"
        }
      ],
      "stateMutability": "view",
      "type": "function"
    },
    {
      "inputs": [
        {
          "internalType": "uint256",
          "name": "",
          "type": "uint256"
        },
        {
          "internalType": "uint64",
          "name": "",
          "type": "uint64"
        }
      ],
      "name": "isOracleChainSelectorStored",
      "outputs": [
        {
          "internalType": "bool",
          "name": "",
          "type": "bool"
        }
      ],
      "stateMutability": "view",
      "type": "function"
    },
    {
      "inputs": [],
      "name": "lastUpdateTime",
      "outputs": [
        {
          "internalType": "uint256",
          "name": "",
          "type": "uint256"
        }
      ],
      "stateMutability": "view",
      "type": "function"
    },
    {
      "inputs": [],
      "name": "latestFeeUpdate",
      "outputs": [
        {
          "internalType": "uint256",
          "name": "",
          "type": "uint256"
        }
      ],
      "stateMutability": "view",
      "type": "function"
    },
    {
      "inputs": [
        {
          "internalType": "address[]",
          "name": "_tokens",
          "type": "address[]"
        },
        {
          "internalType": "uint256[]",
          "name": "_marketShares",
          "type": "uint256[]"
        },
        {
          "internalType": "uint256[]",
          "name": "_swapVersions",
          "type": "uint256[]"
        },
        {
          "internalType": "uint64[]",
          "name": "_chainSelectors",
          "type": "uint64[]"
        }
      ],
      "name": "mockFillAssetsList",
      "outputs": [],
      "stateMutability": "nonpayable",
      "type": "function"
    },
    {
      "inputs": [],
      "name": "mockUpdateCurrentList",
      "outputs": [],
      "stateMutability": "nonpayable",
      "type": "function"
    },
    {
      "inputs": [
        {
          "internalType": "uint256",
          "name": "",
          "type": "uint256"
        },
        {
          "internalType": "uint64",
          "name": "",
          "type": "uint64"
        },
        {
          "internalType": "uint256",
          "name": "",
          "type": "uint256"
        }
      ],
      "name": "oracleChainSelectorTokenShares",
      "outputs": [
        {
          "internalType": "uint256",
          "name": "",
          "type": "uint256"
        }
      ],
      "stateMutability": "view",
      "type": "function"
    },
    {
      "inputs": [
        {
          "internalType": "uint256",
          "name": "",
          "type": "uint256"
        },
        {
          "internalType": "uint64",
          "name": "",
          "type": "uint64"
        },
        {
          "internalType": "uint256",
          "name": "",
          "type": "uint256"
        }
      ],
      "name": "oracleChainSelectorTokens",
      "outputs": [
        {
          "internalType": "address",
          "name": "",
          "type": "address"
        }
      ],
      "stateMutability": "view",
      "type": "function"
    },
    {
      "inputs": [
        {
          "internalType": "uint64",
          "name": "_chainSelector",
          "type": "uint64"
        }
      ],
      "name": "oracleChainSelectorTokensCount",
      "outputs": [
        {
          "internalType": "uint256",
          "name": "",
          "type": "uint256"
        }
      ],
      "stateMutability": "view",
      "type": "function"
    },
    {
      "inputs": [
        {
          "internalType": "uint256",
          "name": "",
          "type": "uint256"
        },
        {
          "internalType": "uint64",
          "name": "",
          "type": "uint64"
        }
      ],
      "name": "oracleChainSelectorTotalShares",
      "outputs": [
        {
          "internalType": "uint256",
          "name": "",
          "type": "uint256"
        }
      ],
      "stateMutability": "view",
      "type": "function"
    },
    {
      "inputs": [
        {
          "internalType": "uint256",
          "name": "",
          "type": "uint256"
        },
        {
          "internalType": "uint64",
          "name": "",
          "type": "uint64"
        },
        {
          "internalType": "uint256",
          "name": "",
          "type": "uint256"
        }
      ],
      "name": "oracleChainSelectorVersions",
      "outputs": [
        {
          "internalType": "uint256",
          "name": "",
          "type": "uint256"
        }
      ],
      "stateMutability": "view",
      "type": "function"
    },
    {
      "inputs": [
        {
          "internalType": "uint256",
          "name": "",
          "type": "uint256"
        },
        {
          "internalType": "uint256",
          "name": "",
          "type": "uint256"
        }
      ],
      "name": "oracleChainSelectors",
      "outputs": [
        {
          "internalType": "uint64",
          "name": "",
          "type": "uint64"
        }
      ],
      "stateMutability": "view",
      "type": "function"
    },
    {
      "inputs": [],
      "name": "oracleChainSelectorsCount",
      "outputs": [
        {
          "internalType": "uint256",
          "name": "",
          "type": "uint256"
        }
      ],
      "stateMutability": "view",
      "type": "function"
    },
    {
      "inputs": [],
      "name": "oracleFilledCount",
      "outputs": [
        {
          "internalType": "uint256",
          "name": "",
          "type": "uint256"
        }
      ],
      "stateMutability": "view",
      "type": "function"
    },
    {
      "inputs": [
        {
          "internalType": "uint256",
          "name": "",
          "type": "uint256"
        }
      ],
      "name": "oracleList",
      "outputs": [
        {
          "internalType": "address",
          "name": "",
          "type": "address"
        }
      ],
      "stateMutability": "view",
      "type": "function"
    },
    {
      "inputs": [],
      "name": "oraclePayment",
      "outputs": [
        {
          "internalType": "uint256",
          "name": "",
          "type": "uint256"
        }
      ],
      "stateMutability": "view",
      "type": "function"
    },
    {
      "inputs": [],
      "name": "owner",
      "outputs": [
        {
          "internalType": "address",
          "name": "",
          "type": "address"
        }
      ],
      "stateMutability": "view",
      "type": "function"
    },
    {
      "inputs": [],
      "name": "priceInWei",
      "outputs": [
        {
          "internalType": "uint256",
          "name": "",
          "type": "uint256"
        }
      ],
      "stateMutability": "view",
      "type": "function"
    },
    {
      "inputs": [
        {
          "internalType": "address",
          "name": "_proposedOwner",
          "type": "address"
        }
      ],
      "name": "proposeOwner",
      "outputs": [],
      "stateMutability": "nonpayable",
      "type": "function"
    },
    {
      "inputs": [],
      "name": "proposedOwner",
      "outputs": [
        {
          "internalType": "address",
          "name": "",
          "type": "address"
        }
      ],
      "stateMutability": "view",
      "type": "function"
    },
    {
      "inputs": [],
      "name": "quoter",
      "outputs": [
        {
          "internalType": "contract IQuoter",
          "name": "",
          "type": "address"
        }
      ],
      "stateMutability": "view",
      "type": "function"
    },
    {
      "inputs": [],
      "name": "renounceOwnership",
      "outputs": [],
      "stateMutability": "nonpayable",
      "type": "function"
    },
    {
      "inputs": [],
      "name": "requestAssetsData",
      "outputs": [
        {
          "internalType": "bytes32",
          "name": "",
          "type": "bytes32"
        }
      ],
      "stateMutability": "nonpayable",
      "type": "function"
    },
    {
      "inputs": [
        {
          "internalType": "address",
          "name": "_crossChainFactoryAddress",
          "type": "address"
        },
        {
          "internalType": "uint64",
          "name": "_chainSelector",
          "type": "uint64"
        }
      ],
      "name": "setCrossChainFactory",
      "outputs": [],
      "stateMutability": "nonpayable",
      "type": "function"
    },
    {
      "inputs": [
        {
          "internalType": "uint64",
          "name": "_chainSelector",
          "type": "uint64"
        },
        {
          "internalType": "address",
          "name": "_crossChainToken",
          "type": "address"
        },
        {
          "internalType": "uint256",
          "name": "_swapVersion",
          "type": "uint256"
        }
      ],
      "name": "setCrossChainToken",
      "outputs": [],
      "stateMutability": "nonpayable",
      "type": "function"
    },
    {
      "inputs": [
        {
          "internalType": "address",
          "name": "_indexFactory",
          "type": "address"
        }
      ],
      "name": "setIndexFactory",
      "outputs": [],
      "stateMutability": "nonpayable",
      "type": "function"
    },
    {
      "inputs": [
        {
          "internalType": "address",
          "name": "_indexFactoryBalancer",
          "type": "address"
        }
      ],
      "name": "setIndexFactoryBalancer",
      "outputs": [],
      "stateMutability": "nonpayable",
      "type": "function"
    },
    {
      "inputs": [
        {
          "internalType": "address",
          "name": "_toUsdPricefeed",
          "type": "address"
        }
      ],
      "name": "setPriceFeed",
      "outputs": [],
      "stateMutability": "nonpayable",
      "type": "function"
    },
    {
      "inputs": [
        {
          "internalType": "string",
          "name": "_beforeAddress",
          "type": "string"
        },
        {
          "internalType": "string",
          "name": "_afterAddress",
          "type": "string"
        }
      ],
      "name": "setUrl",
      "outputs": [],
      "stateMutability": "nonpayable",
      "type": "function"
    },
    {
      "inputs": [
        {
          "internalType": "address",
          "name": "tokenIn",
          "type": "address"
        },
        {
          "internalType": "address",
          "name": "tokenOut",
          "type": "address"
        },
        {
          "internalType": "uint256",
          "name": "amountIn",
          "type": "uint256"
        },
        {
          "internalType": "address",
          "name": "_recipient",
          "type": "address"
        },
        {
          "internalType": "uint256",
          "name": "_swapVersion",
          "type": "uint256"
        }
      ],
      "name": "swap",
      "outputs": [
        {
          "internalType": "uint256",
          "name": "",
          "type": "uint256"
        }
      ],
      "stateMutability": "nonpayable",
      "type": "function"
    },
    {
      "inputs": [],
      "name": "swapRouterV2",
      "outputs": [
        {
          "internalType": "contract IUniswapV2Router02",
          "name": "",
          "type": "address"
        }
      ],
      "stateMutability": "view",
      "type": "function"
    },
    {
      "inputs": [],
      "name": "swapRouterV3",
      "outputs": [
        {
          "internalType": "contract ISwapRouter",
          "name": "",
          "type": "address"
        }
      ],
      "stateMutability": "view",
      "type": "function"
    },
    {
      "inputs": [],
      "name": "toUsdPriceFeed",
      "outputs": [
        {
          "internalType": "contract AggregatorV3Interface",
          "name": "",
          "type": "address"
        }
      ],
      "stateMutability": "view",
      "type": "function"
    },
    {
      "inputs": [
        {
          "internalType": "address",
          "name": "",
          "type": "address"
        }
      ],
      "name": "tokenChainSelector",
      "outputs": [
        {
          "internalType": "uint64",
          "name": "",
          "type": "uint64"
        }
      ],
      "stateMutability": "view",
      "type": "function"
    },
    {
      "inputs": [
        {
          "internalType": "address",
          "name": "",
          "type": "address"
        }
      ],
      "name": "tokenCurrentListIndex",
      "outputs": [
        {
          "internalType": "uint256",
          "name": "",
          "type": "uint256"
        }
      ],
      "stateMutability": "view",
      "type": "function"
    },
    {
      "inputs": [
        {
          "internalType": "address",
          "name": "",
          "type": "address"
        }
      ],
      "name": "tokenCurrentMarketShare",
      "outputs": [
        {
          "internalType": "uint256",
          "name": "",
          "type": "uint256"
        }
      ],
      "stateMutability": "view",
      "type": "function"
    },
    {
      "inputs": [
        {
          "internalType": "address",
          "name": "",
          "type": "address"
        }
      ],
      "name": "tokenOracleListIndex",
      "outputs": [
        {
          "internalType": "uint256",
          "name": "",
          "type": "uint256"
        }
      ],
      "stateMutability": "view",
      "type": "function"
    },
    {
      "inputs": [
        {
          "internalType": "address",
          "name": "",
          "type": "address"
        }
      ],
      "name": "tokenOracleMarketShare",
      "outputs": [
        {
          "internalType": "uint256",
          "name": "",
          "type": "uint256"
        }
      ],
      "stateMutability": "view",
      "type": "function"
    },
    {
      "inputs": [
        {
          "internalType": "address",
          "name": "",
          "type": "address"
        }
      ],
      "name": "tokenSwapVersion",
      "outputs": [
        {
          "internalType": "uint256",
          "name": "",
          "type": "uint256"
        }
      ],
      "stateMutability": "view",
      "type": "function"
    },
    {
      "inputs": [],
      "name": "totalCurrentChainSelectors",
      "outputs": [
        {
          "internalType": "uint256",
          "name": "",
          "type": "uint256"
        }
      ],
      "stateMutability": "view",
      "type": "function"
    },
    {
      "inputs": [],
      "name": "totalCurrentList",
      "outputs": [
        {
          "internalType": "uint256",
          "name": "",
          "type": "uint256"
        }
      ],
      "stateMutability": "view",
      "type": "function"
    },
    {
      "inputs": [],
      "name": "totalOracleChainSelectors",
      "outputs": [
        {
          "internalType": "uint256",
          "name": "",
          "type": "uint256"
        }
      ],
      "stateMutability": "view",
      "type": "function"
    },
    {
      "inputs": [],
      "name": "totalOracleList",
      "outputs": [
        {
          "internalType": "uint256",
          "name": "",
          "type": "uint256"
        }
      ],
      "stateMutability": "view",
      "type": "function"
    },
    {
      "inputs": [
        {
          "internalType": "address",
          "name": "newOwner",
          "type": "address"
        }
      ],
      "name": "transferOwnership",
      "outputs": [],
      "stateMutability": "nonpayable",
      "type": "function"
    },
    {
      "inputs": [],
      "name": "updateCurrentList",
      "outputs": [],
      "stateMutability": "nonpayable",
      "type": "function"
    },
    {
      "inputs": [],
      "name": "weth",
      "outputs": [
        {
          "internalType": "contract IWETH",
          "name": "",
          "type": "address"
        }
      ],
      "stateMutability": "view",
      "type": "function"
    }
  ],
  "bytecode": {
    "object": "0x608060405234801561001057600080fd5b50614b50806100206000396000f3fe608060405234801561001057600080fd5b506004361061046a5760003560e01c806392e410ce1161024c578063bf0d49c011610146578063d1db5984116100c3578063e7d015f211610087578063e7d015f214610b07578063ea8ecf0414610b1a578063f158178714610b43578063f2fde38b14610b4c578063fc698b4a14610b5f57600080fd5b8063d1db598414610a9b578063d7eefdaa14610aae578063d90bc21114610ac1578063db56192214610ae1578063e3fd0af214610af457600080fd5b8063cf0952391161010a578063cf09523914610a2f578063d047937f14610a42578063d050ca7c14610a55578063d153b60c14610a75578063d1c68aa314610a8857600080fd5b8063bf0d49c0146109e4578063bf938db8146109f7578063c6bbd5a714610a0a578063c8599ded14610a1d578063c8f33c9114610a2657600080fd5b8063a8509fd8116101d4578063b631e80b11610198578063b631e80b1461096b578063b6ad185b1461097e578063b90b8a2a146109b5578063bb0ed513146109be578063bd96993c146109d157600080fd5b8063a8509fd814610921578063a8b54bd414610929578063ae214f3914610932578063af696b3414610945578063b5ed298a1461095857600080fd5b80639c8bbe8f1161021b5780639c8bbe8f146108c25780639ebe560e146108d55780639f91affc146108e8578063a1adff88146108fb578063a73e1cbf1461090e57600080fd5b806392e410ce1461085e57806395a7e2b314610867578063978bbdb91461087a5780639932ba4c1461089957600080fd5b80633fc8cef311610368578063724e78da116102e55780638baa6bf1116102a95780638baa6bf1146107ee5780638c88c10c146107f65780638da5cb5b146108165780638e9d7c1814610827578063914f0cc61461083e57600080fd5b8063724e78da1461078c578063744fbc7a1461079f57806377b2688f146107b25780637ca58c55146107dd57806380acffa3146107e557600080fd5b806353fd43321161032c57806353fd43321461073e57806363973fda1461074757806368e0d4e11461075a57806369487b1c1461076d578063715018a61461078457600080fd5b80633fc8cef3146106aa5780633ff34ef4146106bd57806344fd376f146106eb5780634b3e0b80146107165780634f9641b91461073657600080fd5b80631d5f45f5116103f6578063271b5fcc116103ba578063271b5fcc1461062857806329d75de91461063b578063340fbc741461064e5780633c8da588146106775780633d54cb6f1461067f57600080fd5b80631d5f45f51461057b578063221f33711461058e578063239aad0d146105ae5780632585dd26146105d7578063271040df1461061557600080fd5b806313cb1f831161043d57806313cb1f83146104d4578063174cbe50146104e757806317d88f4614610512578063195c49131461052557806319da7e2a1461053a57600080fd5b8063011ced5f1461046f5780630be527131461048b5780630c02e130146104ab5780630e329357146104b4575b600080fd5b61047860a45481565b6040519081526020015b60405180910390f35b610478610499366004613de5565b60b46020526000908152604090205481565b61047860a95481565b6104c76104c236600461417a565b610b96565b604051610482919061466a565b6104786104e2366004613eeb565b610bc3565b6104786104f5366004614336565b60a160209081526000928352604080842090915290825290205481565b610478610520366004613e90565b610d17565b610538610533366004614446565b611034565b005b61056361054836600461431b565b60a0602052600090815260409020546001600160a01b031681565b6040516001600160a01b039091168152602001610482565b60c754610563906001600160a01b031681565b6105a161059c36600461431b565b611086565b6040516104829190614626565b6105636105bc36600461426f565b60b0602052600090815260409020546001600160a01b031681565b6106056105e53660046142c3565b60bd60209081526000928352604080842090915290825290205460ff1681565b6040519015158152602001610482565b610538610623366004613f31565b6110fc565b6105636106363660046142e6565b61113b565b609f54610563906001600160a01b031681565b61056361065c36600461431b565b60a2602052600090815260409020546001600160a01b031681565b610478611180565b60a554610692906001600160401b031681565b6040516001600160401b039091168152602001610482565b60ca54610563906001600160a01b031681565b6106056106cb3660046142c3565b60bc60209081526000928352604080842090915290825290205460ff1681565b6104786106f93660046142c3565b60c560209081526000928352604080842090915290825290205481565b610478610724366004613de5565b60b56020526000908152604090205481565b6105386112ac565b61047860ad5481565b60aa54610563906001600160a01b031681565b60c954610563906001600160a01b031681565b60b954600090815260bb6020526040902054610478565b6105386112be565b61053861079a366004613de5565b6112d0565b60c854610563906001600160a01b031681565b6104786107c03660046142c3565b60c460209081526000928352604080842090915290825290205481565b61047861136c565b61047860ae5481565b610538611666565b610478610804366004613de5565b60b26020526000908152604090205481565b6038546001600160a01b0316610563565b60b854600090815260ba6020526040902054610478565b61047861084c366004613de5565b60b36020526000908152604090205481565b61047860af5481565b6106926108753660046142a1565b6116d7565b60a3546108879060ff1681565b60405160ff9091168152602001610482565b6105636108a736600461426f565b60b1602052600090815260409020546001600160a01b031681565b6104786108d03660046142e6565b611723565b6105386108e336600461436d565b611761565b6104786108f63660046142e6565b6119de565b6105a161090936600461431b565b611a06565b61053861091c36600461417a565b611a7a565b610478611aae565b61047860a85481565b610538610940366004613de5565b611ba9565b6105a161095336600461431b565b611bd3565b610538610966366004613de5565b611c47565b60c654610563906001600160a01b031681565b61047861098c36600461431b565b60b954600090815260bf602090815260408083206001600160401b039094168352929052205490565b61047860b95481565b6104786109cc3660046142e6565b611c97565b6105636109df3660046142e6565b611cbf565b6105a16109f236600461431b565b611ce7565b610478610a05366004613e1f565b611d5b565b60cb54610563906001600160a01b031681565b61047860ac5481565b61047860ab5481565b610478610a3d3660046142e6565b611e12565b610538610a50366004613de5565b611e3a565b610a68610a6336600461431b565b611e64565b6040516104829190614613565b606a54610563906001600160a01b031681565b610a68610a9636600461431b565b611ee3565b610538610aa93660046140c4565b611f61565b610538610abc366004613f66565b612031565b610478610acf366004613de5565b60b66020526000908152604090205481565b610692610aef3660046142a1565b61204b565b609e54610563906001600160a01b031681565b609d54610563906001600160a01b031681565b610692610b28366004613de5565b60b7602052600090815260409020546001600160401b031681565b61047860b85481565b610538610b5a366004613de5565b612067565b610478610b6d36600461431b565b60b854600090815260be602090815260408083206001600160401b039094168352929052205490565b60608282604051602001610bab929190614555565b60405160208183030381529060405290505b92915050565b6000808315610d0c578260031415610be957610be28686866001611d5b565b9050610d0c565b6040805160028082526060820183526000926020830190803683370190505090508681600081518110610c1e57610c1e614a81565b60200260200101906001600160a01b031690816001600160a01b0316815250508581600181518110610c5257610c52614a81565b6001600160a01b03928316602091820292909201015260c85460405163d06ca61f60e01b8152600092919091169063d06ca61f90610c969089908690600401614718565b60006040518083038186803b158015610cae57600080fd5b505afa158015610cc2573d6000803e3d6000fd5b505050506040513d6000823e601f3d908101601f19168201604052610cea9190810190614012565b905080600181518110610cff57610cff614a81565b6020026020010151925050505b90505b949350505050565b60008160031415610ebc5760c65460405163095ea7b360e01b81526001600160a01b039182166004820152602481018690529087169063095ea7b390604401602060405180830381600087803b158015610d7057600080fd5b505af1158015610d84573d6000803e3d6000fd5b505050506040513d601f19601f82011682018060405250810190610da891906140a9565b5060408051610100810182526001600160a01b03888116825287811660208301908152610bb883850190815287831660608501908152426080860190815260a086018b8152600060c0880181815260e0890182815260c6549a5163414bf38960e01b81528a518a166004820152975189166024890152955162ffffff166044880152935187166064870152915160848601525160a4850152905160c48401529051831660e483015292939091169063414bf3899061010401602060405180830381600087803b158015610e7a57600080fd5b505af1158015610e8e573d6000803e3d6000fd5b505050506040513d601f19601f82011682018060405250810190610eb29190614288565b925061102b915050565b6040805160028082526060820183526000926020830190803683370190505090508681600081518110610ef157610ef1614a81565b60200260200101906001600160a01b031690816001600160a01b0316815250508581600181518110610f2557610f25614a81565b6001600160a01b03928316602091820292909201015260c85460405163095ea7b360e01b81529082166004820152602481018790529088169063095ea7b390604401602060405180830381600087803b158015610f8157600080fd5b505af1158015610f95573d6000803e3d6000fd5b505050506040513d601f19601f82011682018060405250810190610fb991906140a9565b5060c854604051635c11d79560e01b81526001600160a01b0390911690635c11d79590610ff390889060009086908a904290600401614731565b600060405180830381600087803b15801561100d57600080fd5b505af1158015611021573d6000803e3d6000fd5b5050505060009150505b95945050505050565b61103c61218f565b6001600160401b03909216600090815260a06020908152604080832080546001600160a01b039095166001600160a01b03199095168517905560a182528083209383529290522055565b60b954600090815260c1602090815260408083206001600160401b03851684528252918290208054835181840281018401909452808452606093928301828280156110f057602002820191906000526020600020905b8154815260200190600101908083116110dc575b50505050509050919050565b61110461218f565b6001600160401b0316600090815260a26020526040902080546001600160a01b0319166001600160a01b0392909216919091179055565b60bf602052826000526040600020602052816000526040600020818154811061116357600080fd5b6000918252602090912001546001600160a01b0316925083915050565b60008060aa60009054906101000a90046001600160a01b03166001600160a01b031663feaf968c6040518163ffffffff1660e01b815260040160a06040518083038186803b1580156111d157600080fd5b505afa1580156111e5573d6000803e3d6000fd5b505050506040513d601f19601f820116820180604052508101906112099190614485565b505050915050600060aa60009054906101000a90046001600160a01b03166001600160a01b031663313ce5676040518163ffffffff1660e01b815260040160206040518083038186803b15801561125f57600080fd5b505afa158015611273573d6000803e3d6000fd5b505050506040513d601f19601f8201168201806040525081019061129791906144d5565b90506112a5828260126121e9565b9392505050565b6112b461218f565b6112bc612229565b565b6112c661218f565b6112bc6000612496565b6112d861218f565b6001600160a01b03811661134a5760405162461bcd60e51b815260206004820152602e60248201527f49434f3a205072696365206665656420616464726573732063616e6e6f74206260448201526d65207a65726f206164647265737360901b60648201526084015b60405180910390fd5b60aa80546001600160a01b0319166001600160a01b0392909216919091179055565b60008061148d60a6805461137f906149f1565b80601f01602080910402602001604051908101604052809291908181526020018280546113ab906149f1565b80156113f85780601f106113cd576101008083540402835291602001916113f8565b820191906000526020600020905b8154815290600101906020018083116113db57829003601f168201915b505050505060a7805461140a906149f1565b80601f0160208091040260200160405190810160405280929190818152602001828054611436906149f1565b80156114835780601f1061145857610100808354040283529160200191611483565b820191906000526020600020905b81548152906001019060200180831161146657829003601f168201915b5050505050610b96565b905060006114a560a8543063d1db598460e01b6124e8565b60408051808201909152600381526219d95d60ea1b60208201529091506114ce90829084612504565b61152660405180604001604052806005815260200164706174683160d81b8152506040518060400160405280600e81526020016d726573756c74732c746f6b656e7360901b815250836125049092919063ffffffff16565b611584604051806040016040528060058152602001643830ba341960d91b81525060405180604001604052806014815260200173726573756c74732c6d61726b657453686172657360601b815250836125049092919063ffffffff16565b6115e260405180604001604052806005815260200164706174683360d81b81525060405180604001604052806014815260200173726573756c74732c7377617056657273696f6e7360601b815250836125049092919063ffffffff16565b611641604051806040016040528060058152602001641c185d1a0d60da1b815250604051806040016040528060158152602001743932b9bab63a399631b430b4b729b2b632b1ba37b960591b815250836125049092919063ffffffff16565b61165f6116566003546001600160a01b031690565b8260a954612522565b9250505090565b609f546001600160a01b031633146112b45760405162461bcd60e51b815260206004820152602e60248201527f43616c6c6572206973206e6f7420696e64657820666163746f72792062616c6160448201526d3731b2b91031b7b73a3930b1ba1760911b6064820152608401611341565b60ba60205281600052604060002081815481106116f357600080fd5b9060005260206000209060049182820401919006600802915091509054906101000a90046001600160401b031681565b60c2602052826000526040600020602052816000526040600020818154811061174b57600080fd5b9060005260206000200160009250925050505481565b600054610100900460ff16158080156117815750600054600160ff909116105b8061179b5750303b15801561179b575060005460ff166001145b6117fe5760405162461bcd60e51b815260206004820152602e60248201527f496e697469616c697a61626c653a20636f6e747261637420697320616c72656160448201526d191e481a5b9a5d1a585b1a5e995960921b6064820152608401611341565b6000805460ff191660011790558015611821576000805461ff0019166101001790555b6118296125b5565b60a580546001600160401b038e1667ffffffffffffffff19909116179055609d80546001600160a01b038d166001600160a01b031990911617905561188b8a600280546001600160a01b039092166001600160a01b0319909216919091179055565b600380546001600160a01b0319166001600160a01b038b1617905560a8889055600a6118c0670de0b6b3a7640000600161496c565b6118ca91906147d8565b60a95560aa80546001600160a01b03199081166001600160a01b038a81169190911790925560ca8054821689841617905560c68054821688841617905560c78054821687841617905560c88054821686841617905560c980549091169184169190911790556040805160608101909152602a808252614ac36020830139805161195b9160a691602090910190613af7565b506040518060600160405280602e8152602001614aed602e913980516119899160a791602090910190613af7565b5080156119d0576000805461ff0019169055604051600181527f7f26b83ff96e1f2b6a682f133852f6798a09c465da95921460cefb38474024989060200160405180910390a15b505050505050505050505050565b60c3602052826000526040600020602052816000526040600020818154811061174b57600080fd5b60b854600090815260c0602090815260408083206001600160401b03851684528252918290208054835181840281018401909452808452606093928301828280156110f057602002820191906000526020600020908154815260200190600101908083116110dc5750505050509050919050565b611a8261218f565b8151611a959060a6906020850190613af7565b508051611aa99060a7906020840190613af7565b505050565b60008060005b60ad54811015611ba357600081815260b160205260408082205460ca54609d5492516370a0823160e01b81526001600160a01b039384166004820152611b8193928316929091169082906370a082319060240160206040518083038186803b158015611b1f57600080fd5b505afa158015611b33573d6000803e3d6000fd5b505050506040513d601f19601f82011682018060405250810190611b579190614288565b600086815260b160209081526040808320546001600160a01b0316835260b6909152902054610bc3565b9050611b8d81846147c0565b9250508080611b9b90614a26565b915050611ab4565b50919050565b611bb161218f565b609f80546001600160a01b0319166001600160a01b0392909216919091179055565b60b954600090815260c3602090815260408083206001600160401b03851684528252918290208054835181840281018401909452808452606093928301828280156110f057602002820191906000526020600020908154815260200190600101908083116110dc5750505050509050919050565b611c4f61218f565b6001600160a01b038116611c755760405162461bcd60e51b81526004016113419061467d565b606a80546001600160a01b0319166001600160a01b0392909216919091179055565b60c1602052826000526040600020602052816000526040600020818154811061174b57600080fd5b60be602052826000526040600020602052816000526040600020818154811061116357600080fd5b60b854600090815260c2602090815260408083206001600160401b03851684528252918290208054835181840281018401909452808452606093928301828280156110f057602002820191906000526020600020908154815260200190600101908083116110dc5750505050509050919050565b60c754604051630b4c774160e11b81526001600160a01b0386811660048301528581166024830152610bb860448301526000928392911690631698ee829060640160206040518083038186803b158015611db457600080fd5b505afa158015611dc8573d6000803e3d6000fd5b505050506040513d601f19601f82011682018060405250810190611dec9190613e02565b90506000611df9826125e4565b9050611e0781868989612666565b979650505050505050565b60c0602052826000526040600020602052816000526040600020818154811061174b57600080fd5b611e4261218f565b609e80546001600160a01b0319166001600160a01b0392909216919091179055565b60b854600090815260be602090815260408083206001600160401b03851684528252918290208054835181840281018401909452808452606093928301828280156110f057602002820191906000526020600020905b81546001600160a01b03168152600190910190602001808311611eba5750505050509050919050565b60b954600090815260bf602090815260408083206001600160401b03851684528252918290208054835181840281018401909452808452606093928301828280156110f0576020028201919060005260206000209081546001600160a01b03168152600190910190602001808311611eba5750505050509050919050565b60008581526005602052604090205485906001600160a01b03163314611fda5760405162461bcd60e51b815260206004820152602860248201527f536f75726365206d75737420626520746865206f7261636c65206f6620746865604482015267081c995c5d595cdd60c21b6064820152608401611341565b60008181526005602052604080822080546001600160a01b03191690555182917f7cc135e0cebb02c3480ae5d74d377283180a2601f8f644edf7987b009316c63a91a261202985858585612770565b505050505050565b61203961218f565b61204584848484612770565b50505050565b60bb60205281600052604060002081815481106116f357600080fd5b6001600160a01b03811661208d5760405162461bcd60e51b81526004016113419061467d565b606a546001600160a01b038281169116146121055760405162461bcd60e51b815260206004820152603260248201527f50726f706f7361626c654f776e61626c653a206e6577206f776e6572206973206044820152713737ba10383937b837b9b2b21037bbb732b960711b6064820152608401611341565b6001600160a01b03811633146121835760405162461bcd60e51b815260206004820152603a60248201527f50726f706f7361626c654f776e61626c653a20746869732063616c6c206d757360448201527f74206265206d61646520627920746865206e6577206f776e65720000000000006064820152608401611341565b61218c81612496565b50565b6038546001600160a01b031633146112bc5760405162461bcd60e51b815260206004820181905260248201527f4f776e61626c653a2063616c6c6572206973206e6f7420746865206f776e65726044820152606401611341565b60008260ff168260ff16111561221f5761220383836149a2565b61220e90600a61483b565b61221890856148e7565b90506112a5565b61220382846149a2565b600160b9600082825461223c91906147c0565b90915550600090505b60ac5481101561248d57600081815260b060209081526040808320805460b1845282852080546001600160a01b0319166001600160a01b03928316908117825583548316875260b586528487205490875260b486528487205582548216865260b285528386205490548216865260b3855283862055905416835260b782528083205460b954845260bd83528184206001600160401b0390911680855292529091205460ff1661235e5760b98054600090815260bd602090815260408083206001600160401b038681168086529184528285208054600160ff1990911681179091559554855260bb8452918420805495860181558452919092206004840401805460039094166008026101000a9283021990931691021790555b60b98054600090815260bf602090815260408083206001600160401b03861680855290835281842087855260b0845282852080548254600181810185559388528688200180546001600160a01b0319166001600160a01b039283161790558754875260c18652848720848852865284872082548216885260b687528588205481549485018255908852868820909301929092555416845260b58352818420549454845260c58352818420908452909152812080549091906124209084906147c0565b909155505060b954600090815260c3602090815260408083206001600160401b03909416835292815282822084835260b08252838320546001600160a01b0316835260b582529282205483546001810185559383529120909101558061248581614a26565b915050612245565b5060ac5460ad55565b603880546001600160a01b038381166001600160a01b0319831681179093556040519116919082907f8be0079c531659141344cd1fd0a4f28419497f9722a3daafe3b4186f6b6457e090600090a35050565b6124f0613b7b565b6124f8613b7b565b61102b81868686613166565b608083015161251390836131a3565b6080830151611aa990826131a3565b6004546000906125338160016147c0565b600455835160408086015160808701515191516000936320214ca360e11b9361256b9386938493923092918a91600191602401614584565b60408051601f198184030181529190526020810180516001600160e01b03166001600160e01b03199093169290921790915290506125ab868386846131ba565b9695505050505050565b600054610100900460ff166125dc5760405162461bcd60e51b8152600401611341906146cd565b6112bc613327565b600080826001600160a01b0316633850c7bd6040518163ffffffff1660e01b815260040160e06040518083038186803b15801561262057600080fd5b505afa158015612634573d6000803e3d6000fd5b505050506040513d601f19601f8201168201806040525081019061265891906141dd565b509398975050505050505050565b60008061267286613357565b90506001600160801b036001600160a01b038216116126f85760006126a06001600160a01b0383168061496c565b9050836001600160a01b0316856001600160a01b0316106126d8576126d3600160c01b876001600160801b031683613677565b6126f0565b6126f081876001600160801b0316600160c01b613677565b925050612767565b60006127176001600160a01b0383168068010000000000000000613677565b9050836001600160a01b0316856001600160a01b03161061274f5761274a600160801b876001600160801b031683613677565b611e07565b611e0781876001600160801b0316600160801b613677565b50949350505050565b60b8805485918591859185916001919060009061278e9084906147c0565b909155505060ad546127b357600160b960008282546127ad91906147c0565b90915550505b60005b8451811015613145578481815181106127d1576127d1614a81565b602002602001015160b0600083815260200190815260200160002060006101000a8154816001600160a01b0302191690836001600160a01b031602179055508060b2600087848151811061282757612827614a81565b60200260200101516001600160a01b03166001600160a01b031681526020019081526020016000208190555083818151811061286557612865614a81565b602002602001015160b5600087848151811061288357612883614a81565b60200260200101516001600160a01b03166001600160a01b03168152602001908152602001600020819055508281815181106128c1576128c1614a81565b602002602001015160b660008784815181106128df576128df614a81565b60200260200101516001600160a01b03166001600160a01b031681526020019081526020016000208190555081818151811061291d5761291d614a81565b602002602001015160b7600087848151811061293b5761293b614a81565b60200260200101516001600160a01b03166001600160a01b0316815260200190815260200160002060006101000a8154816001600160401b0302191690836001600160401b0316021790555060bc600060b854815260200190815260200160002060008383815181106129b0576129b0614a81565b6020908102919091018101516001600160401b031682528101919091526040016000205460ff16612ac45760b854600090815260ba602052604090208251839083908110612a0057612a00614a81565b602002602001015190806001815401808255809150506001900390600052602060002090600491828204019190066008029091909190916101000a8154816001600160401b0302191690836001600160401b03160217905550600160bc600060b85481526020019081526020016000206000848481518110612a8457612a84614a81565b60200260200101516001600160401b03166001600160401b0316815260200190815260200160002060006101000a81548160ff0219169083151502179055505b60be600060b85481526020019081526020016000206000838381518110612aed57612aed614a81565b60200260200101516001600160401b03166001600160401b03168152602001908152602001600020858281518110612b2757612b27614a81565b602090810291909101810151825460018101845560009384528284200180546001600160a01b0319166001600160a01b0390921691909117905560b854825260c09052604081208351909190849084908110612b8557612b85614a81565b60200260200101516001600160401b03166001600160401b03168152602001908152602001600020838281518110612bbf57612bbf614a81565b602090810291909101810151825460018101845560009384529190922001558351849082908110612bf257612bf2614a81565b602002602001015160c4600060b85481526020019081526020016000206000848481518110612c2357612c23614a81565b60200260200101516001600160401b03166001600160401b031681526020019081526020016000206000828254612c5a91906147c0565b909155505060b854600090815260c2602052604081208351909190849084908110612c8757612c87614a81565b60200260200101516001600160401b03166001600160401b03168152602001908152602001600020848281518110612cc157612cc1614a81565b6020908102919091018101518254600181018455600093845291909220015560ad5461313357848181518110612cf957612cf9614a81565b602002602001015160b1600083815260200190815260200160002060006101000a8154816001600160a01b0302191690836001600160a01b03160217905550838181518110612d4a57612d4a614a81565b602002602001015160b46000878481518110612d6857612d68614a81565b60200260200101516001600160a01b03166001600160a01b03168152602001908152602001600020819055508060b36000878481518110612dab57612dab614a81565b60200260200101516001600160a01b03166001600160a01b031681526020019081526020016000208190555060bd600060b95481526020019081526020016000206000838381518110612e0057612e00614a81565b6020908102919091018101516001600160401b031682528101919091526040016000205460ff16612f1657600160bd600060b95481526020019081526020016000206000848481518110612e5657612e56614a81565b60200260200101516001600160401b03166001600160401b0316815260200190815260200160002060006101000a81548160ff02191690831515021790555060bb600060b9548152602001908152602001600020828281518110612ebc57612ebc614a81565b602002602001015190806001815401808255809150506001900390600052602060002090600491828204019190066008029091909190916101000a8154816001600160401b0302191690836001600160401b031602179055505b60bf600060b95481526020019081526020016000206000838381518110612f3f57612f3f614a81565b60200260200101516001600160401b03166001600160401b03168152602001908152602001600020858281518110612f7957612f79614a81565b602090810291909101810151825460018101845560009384528284200180546001600160a01b0319166001600160a01b0390921691909117905560b954825260c19052604081208351909190849084908110612fd757612fd7614a81565b60200260200101516001600160401b03166001600160401b0316815260200190815260200160002083828151811061301157613011614a81565b60209081029190910181015182546001810184556000938452919092200155835184908290811061304457613044614a81565b602002602001015160c5600060b9548152602001908152602001600020600084848151811061307557613075614a81565b60200260200101516001600160401b03166001600160401b0316815260200190815260200160002060008282546130ac91906147c0565b909155505060b954600090815260c36020526040812083519091908490849081106130d9576130d9614a81565b60200260200101516001600160401b03166001600160401b0316815260200190815260200160002084828151811061311357613113614a81565b602090810291909101810151825460018101845560009384529190922001555b8061313d81614a26565b9150506127b6565b50835160ac5560ad5461315857835160ad555b50504260ab55505050505050565b61316e613b7b565b61317e856080015161010061372a565b50509183526001600160a01b031660208301526001600160e01b031916604082015290565b6131b0826003835161378f565b611aa98282613896565b6040516bffffffffffffffffffffffff193060601b1660208201526034810184905260009060540160408051808303601f1901815282825280516020918201206000818152600590925291812080546001600160a01b0319166001600160a01b038a1617905590925082917fb5e6e01e79f91267dc17b4e6314d5d4d03593d2ceee0fbb452b750bd70ea5af99190a2600254604051630200057560e51b81526001600160a01b0390911690634000aea09061327d908890879087906004016145ec565b602060405180830381600087803b15801561329757600080fd5b505af11580156132ab573d6000803e3d6000fd5b505050506040513d601f19601f820116820180604052508101906132cf91906140a9565b610d0f5760405162461bcd60e51b815260206004820152602360248201527f756e61626c6520746f207472616e73666572416e6443616c6c20746f206f7261604482015262636c6560e81b6064820152608401611341565b600054610100900460ff1661334e5760405162461bcd60e51b8152600401611341906146cd565b6112bc33612496565b60008060008360020b1261336e578260020b613376565b8260020b6000035b9050620d89e881111561339c576040516315e4079d60e11b815260040160405180910390fd5b6000600182166133b057600160801b6133c2565b6ffffcb933bd6fad37aa2d162d1a5940015b70ffffffffffffffffffffffffffffffffff16905060028216156133f6576ffff97272373d413259a46990580e213a0260801c5b6004821615613415576ffff2e50f5f656932ef12357cf3c7fdcc0260801c5b6008821615613434576fffe5caca7e10e4e61c3624eaa0941cd00260801c5b6010821615613453576fffcb9843d60f6159c9db58835c9266440260801c5b6020821615613472576fff973b41fa98c081472e6896dfb254c00260801c5b6040821615613491576fff2ea16466c96a3843ec78b326b528610260801c5b60808216156134b0576ffe5dee046a99a2a811c461f1969c30530260801c5b6101008216156134d0576ffcbe86c7900a88aedcffc83b479aa3a40260801c5b6102008216156134f0576ff987a7253ac413176f2b074cf7815e540260801c5b610400821615613510576ff3392b0822b70005940c7a398e4b70f30260801c5b610800821615613530576fe7159475a2c29b7443b29c7fa6e889d90260801c5b611000821615613550576fd097f3bdfd2022b8845ad8f792aa58250260801c5b612000821615613570576fa9f746462d870fdf8a65dc1f90e061e50260801c5b614000821615613590576f70d869a156d2a1b890bb3df62baf32f70260801c5b6180008216156135b0576f31be135f97d08fd981231505542fcfa60260801c5b620100008216156135d1576f09aa508b5b7a84e1c677de54f3e99bc90260801c5b620200008216156135f1576e5d6af8dedb81196699c329225ee6040260801c5b62040000821615613610576d2216e584f5fa1ea926041bedfe980260801c5b6208000082161561362d576b048a170391f7dc42444e8fa20260801c5b60008460020b131561364e57806000198161364a5761364a614a6b565b0490505b640100000000810615613662576001613665565b60005b60ff16602082901c0192505050919050565b6000808060001985870985870292508281108382030391505080600014156136b157600084116136a657600080fd5b5082900490506112a5565b8084116136bd57600080fd5b6000848688096000868103871696879004966002600389028118808a02820302808a02820302808a02820302808a02820302808a02820302808a02909103029181900381900460010186841190950394909402919094039290920491909117919091029150509392505050565b60408051808201909152606081526000602082015261374a602083614a41565b156137725761375a602083614a41565b61376590602061498b565b61376f90836147c0565b91505b506020828101829052604080518085526000815290920101905290565b6017816001600160401b0316116137b3576120458360e0600585901b1683176138bd565b60ff816001600160401b0316116137ef576137d9836018611fe0600586901b16176138bd565b50612045836001600160401b03831660016138e2565b61ffff816001600160401b03161161382c57613816836019611fe0600586901b16176138bd565b50612045836001600160401b03831660026138e2565b63ffffffff816001600160401b03161161386b5761385583601a611fe0600586901b16176138bd565b50612045836001600160401b03831660046138e2565b61388083601b611fe0600586901b16176138bd565b50612045836001600160401b03831660086138e2565b6040805180820190915260608152600060208201526112a583846000015151848551613908565b6040805180820190915260608152600060208201526112a583846000015151846139f2565b604080518082019091526060815260006020820152610d0f848560000151518585613a4e565b604080518082019091526060815260006020820152825182111561392b57600080fd5b602085015161393a83866147c0565b111561396d5761396d8561395d8760200151878661395891906147c0565b613acf565b61396890600261496c565b613ae0565b60008086518051876020830101935080888701111561398c5787860182525b505050602084015b602084106139cc57805182526139ab6020836147c0565b91506139b86020826147c0565b90506139c560208561498b565b9350613994565b51815160001960208690036101000a019081169019919091161790525083949350505050565b60408051808201909152606081526000602082015283602001518310613a2757613a278485602001516002613968919061496c565b835180516020858301018481535080851415613a44576001810182525b5093949350505050565b6040805180820190915260608152600060208201526020850151613a7285846147c0565b1115613a8657613a868561395d86856147c0565b60006001613a968461010061482f565b613aa0919061498b565b9050855183868201018583198251161781525080518487011115613ac45783860181525b509495945050505050565b600081831115611ba3575081610bbd565b8151613aec838361372a565b506120458382613896565b828054613b03906149f1565b90600052602060002090601f016020900481019282613b255760008555613b6b565b82601f10613b3e57805160ff1916838001178555613b6b565b82800160010185558215613b6b579182015b82811115613b6b578251825591602001919060010190613b50565b50613b77929150613bb6565b5090565b6040805160a0810182526000808252602080830182905282840182905260608084018390528451808601909552845283015290608082015290565b5b80821115613b775760008155600101613bb7565b600082601f830112613bdc57600080fd5b81356020613bf1613bec8361479d565b61476d565b80838252828201915082860187848660051b8901011115613c1157600080fd5b60005b85811015613c39578135613c2781614aad565b84529284019290840190600101613c14565b5090979650505050505050565b600082601f830112613c5757600080fd5b81356020613c67613bec8361479d565b80838252828201915082860187848660051b8901011115613c8757600080fd5b60005b85811015613c3957813584529284019290840190600101613c8a565b600082601f830112613cb757600080fd5b81356020613cc7613bec8361479d565b80838252828201915082860187848660051b8901011115613ce757600080fd5b60005b85811015613c3957613cfb82613da3565b84529284019290840190600101613cea565b80518015158114613d1d57600080fd5b919050565b600082601f830112613d3357600080fd5b81356001600160401b03811115613d4c57613d4c614a97565b613d5f601f8201601f191660200161476d565b818152846020838601011115613d7457600080fd5b816020850160208301376000918101602001919091529392505050565b805161ffff81168114613d1d57600080fd5b80356001600160401b0381168114613d1d57600080fd5b805169ffffffffffffffffffff81168114613d1d57600080fd5b805160ff81168114613d1d57600080fd5b600060208284031215613df757600080fd5b81356112a581614aad565b600060208284031215613e1457600080fd5b81516112a581614aad565b60008060008060808587031215613e3557600080fd5b8435613e4081614aad565b93506020850135613e5081614aad565b925060408501356001600160801b0381168114613e6c57600080fd5b9150606085013563ffffffff81168114613e8557600080fd5b939692955090935050565b600080600080600060a08688031215613ea857600080fd5b8535613eb381614aad565b94506020860135613ec381614aad565b9350604086013592506060860135613eda81614aad565b949793965091946080013592915050565b60008060008060808587031215613f0157600080fd5b8435613f0c81614aad565b93506020850135613f1c81614aad565b93969395505050506040820135916060013590565b60008060408385031215613f4457600080fd5b8235613f4f81614aad565b9150613f5d60208401613da3565b90509250929050565b60008060008060808587031215613f7c57600080fd5b84356001600160401b0380821115613f9357600080fd5b613f9f88838901613bcb565b95506020870135915080821115613fb557600080fd5b613fc188838901613c46565b94506040870135915080821115613fd757600080fd5b613fe388838901613c46565b93506060870135915080821115613ff957600080fd5b5061400687828801613ca6565b91505092959194509250565b6000602080838503121561402557600080fd5b82516001600160401b0381111561403b57600080fd5b8301601f8101851361404c57600080fd5b805161405a613bec8261479d565b80828252848201915084840188868560051b870101111561407a57600080fd5b600094505b8385101561409d57805183526001949094019391850191850161407f565b50979650505050505050565b6000602082840312156140bb57600080fd5b6112a582613d0d565b600080600080600060a086880312156140dc57600080fd5b8535945060208601356001600160401b03808211156140fa57600080fd5b61410689838a01613bcb565b9550604088013591508082111561411c57600080fd5b61412889838a01613c46565b9450606088013591508082111561413e57600080fd5b61414a89838a01613c46565b9350608088013591508082111561416057600080fd5b5061416d88828901613ca6565b9150509295509295909350565b6000806040838503121561418d57600080fd5b82356001600160401b03808211156141a457600080fd5b6141b086838701613d22565b935060208501359150808211156141c657600080fd5b506141d385828601613d22565b9150509250929050565b600080600080600080600060e0888a0312156141f857600080fd5b875161420381614aad565b8097505060208801518060020b811461421b57600080fd5b955061422960408901613d91565b945061423760608901613d91565b935061424560808901613d91565b925061425360a08901613dd4565b915061426160c08901613d0d565b905092959891949750929550565b60006020828403121561428157600080fd5b5035919050565b60006020828403121561429a57600080fd5b5051919050565b600080604083850312156142b457600080fd5b50508035926020909101359150565b600080604083850312156142d657600080fd5b82359150613f5d60208401613da3565b6000806000606084860312156142fb57600080fd5b8335925061430b60208501613da3565b9150604084013590509250925092565b60006020828403121561432d57600080fd5b6112a582613da3565b6000806040838503121561434957600080fd5b61435283613da3565b9150602083013561436281614aad565b809150509250929050565b60008060008060008060008060008060006101608c8e03121561438f57600080fd5b6143988c613da3565b9a5060208c01356143a881614aad565b995060408c01356143b881614aad565b985060608c01356143c881614aad565b975060808c0135965060a08c01356143df81614aad565b955060c08c01356143ef81614aad565b945060e08c01356143ff81614aad565b93506101008c013561441081614aad565b92506101208c013561442181614aad565b91506101408c013561443281614aad565b809150509295989b509295989b9093969950565b60008060006060848603121561445b57600080fd5b61446484613da3565b9250602084013561447481614aad565b929592945050506040919091013590565b600080600080600060a0868803121561449d57600080fd5b6144a686613dba565b94506020860151935060408601519250606086015191506144c960808701613dba565b90509295509295909350565b6000602082840312156144e757600080fd5b6112a582613dd4565b600081518084526020808501945080840160005b83811015613ac45781516001600160a01b031687529582019590820190600101614504565b600081518084526145418160208601602086016149c5565b601f01601f19169290920160200192915050565b600083516145678184602088016149c5565b83519083019061457b8183602088016149c5565b01949350505050565b6001600160a01b0389811682526020820189905260408201889052861660608201526001600160e01b03198516608082015260a0810184905260c0810183905261010060e082018190526000906145dd83820185614529565b9b9a5050505050505050505050565b60018060a01b038416815282602082015260606040820152600061102b6060830184614529565b6020815260006112a560208301846144f0565b6020808252825182820181905260009190848201906040850190845b8181101561465e57835183529284019291840191600101614642565b50909695505050505050565b6020815260006112a56020830184614529565b60208082526030908201527f50726f706f7361626c654f776e61626c653a206e6577206f776e65722069732060408201526f746865207a65726f206164647265737360801b606082015260800190565b6020808252602b908201527f496e697469616c697a61626c653a20636f6e7472616374206973206e6f74206960408201526a6e697469616c697a696e6760a81b606082015260800190565b828152604060208201526000610d0f60408301846144f0565b85815284602082015260a06040820152600061475060a08301866144f0565b6001600160a01b0394909416606083015250608001529392505050565b604051601f8201601f191681016001600160401b038111828210171561479557614795614a97565b604052919050565b60006001600160401b038211156147b6576147b6614a97565b5060051b60200190565b600082198211156147d3576147d3614a55565b500190565b6000826147e7576147e7614a6b565b500490565b600181815b8085111561482757816000190482111561480d5761480d614a55565b8085161561481a57918102915b93841c93908002906147f1565b509250929050565b60006112a58383614846565b60006112a560ff8416835b60008261485557506001610bbd565b8161486257506000610bbd565b816001811461487857600281146148825761489e565b6001915050610bbd565b60ff84111561489357614893614a55565b50506001821b610bbd565b5060208310610133831016604e8410600b84101617156148c1575081810a610bbd565b6148cb83836147ec565b80600019048211156148df576148df614a55565b029392505050565b60006001600160ff1b038184138284138082168684048611161561490d5761490d614a55565b600160ff1b600087128281168783058912161561492c5761492c614a55565b6000871292508782058712848416161561494857614948614a55565b8785058712818416161561495e5761495e614a55565b505050929093029392505050565b600081600019048311821515161561498657614986614a55565b500290565b60008282101561499d5761499d614a55565b500390565b600060ff821660ff8416808210156149bc576149bc614a55565b90039392505050565b60005b838110156149e05781810151838201526020016149c8565b838111156120455750506000910152565b600181811c90821680614a0557607f821691505b60208210811415611ba357634e487b7160e01b600052602260045260246000fd5b6000600019821415614a3a57614a3a614a55565b5060010190565b600082614a5057614a50614a6b565b500690565b634e487b7160e01b600052601160045260246000fd5b634e487b7160e01b600052601260045260246000fd5b634e487b7160e01b600052603260045260246000fd5b634e487b7160e01b600052604160045260246000fd5b6001600160a01b038116811461218c57600080fdfe68747470733a2f2f6170702e6e65786c6162732e696f2f6170692f616c6c46756e64696e6752617465733f6d756c7469706c7946756e633d31382674696d65734e656746756e643d74727565266172726179733d74727565a2646970667358221220bd67b00a859913ab92c6e0a4b1349f59de485ba878361b9329d53df51e10583464736f6c63430008070033",
    "linkReferences": {}
  },
  "methodIdentifiers": {
    "allCurrentChainSelectorTokenShares(uint64)": "af696b34",
    "allCurrentChainSelectorTokens(uint64)": "d1c68aa3",
    "allCurrentChainSelectorVersions(uint64)": "221f3371",
    "allOracleChainSelectorTokenShares(uint64)": "bf0d49c0",
    "allOracleChainSelectorTokens(uint64)": "d050ca7c",
    "allOracleChainSelectorVersions(uint64)": "a1adff88",
    "concatenation(string,string)": "0e329357",
    "crossChainFactoryBySelector(uint64)": "340fbc74",
    "crossChainToken(uint64)": "19da7e2a",
    "crossChainTokenSwapVersion(uint64,address)": "174cbe50",
    "currentChainSelector()": "3d54cb6f",
    "currentChainSelectorTokenShares(uint256,uint64,uint256)": "9f91affc",
    "currentChainSelectorTokens(uint256,uint64,uint256)": "271b5fcc",
    "currentChainSelectorTokensCount(uint64)": "b6ad185b",
    "currentChainSelectorTotalShares(uint256,uint64)": "44fd376f",
    "currentChainSelectorVersions(uint256,uint64,uint256)": "bb0ed513",
    "currentChainSelectors(uint256,uint256)": "db561922",
    "currentChainSelectorsCount()": "69487b1c",
    "currentFilledCount()": "b90b8a2a",
    "currentList(uint256)": "9932ba4c",
    "estimateAmountOut(address,address,uint128,uint32)": "bf938db8",
    "externalJobId()": "a8b54bd4",
    "factoryV2()": "68e0d4e1",
    "factoryV3()": "1d5f45f5",
    "feeRate()": "978bbdb9",
    "fulfillAssetsData(bytes32,address[],uint256[],uint256[],uint64[])": "d1db5984",
    "getAmountOut(address,address,uint256,uint256)": "13cb1f83",
    "getPortfolioBalance()": "a8509fd8",
    "indexFactory()": "e3fd0af2",
    "indexFactoryBalancer()": "29d75de9",
    "indexToken()": "e7d015f2",
    "initialize(uint64,address,address,address,bytes32,address,address,address,address,address,address)": "9ebe560e",
    "isCurrentChainSelectorStored(uint256,uint64)": "2585dd26",
    "isOracleChainSelectorStored(uint256,uint64)": "3ff34ef4",
    "lastUpdateTime()": "c8f33c91",
    "latestFeeUpdate()": "011ced5f",
    "mockFillAssetsList(address[],uint256[],uint256[],uint64[])": "d7eefdaa",
    "mockUpdateCurrentList()": "4f9641b9",
    "oracleChainSelectorTokenShares(uint256,uint64,uint256)": "9c8bbe8f",
    "oracleChainSelectorTokens(uint256,uint64,uint256)": "bd96993c",
    "oracleChainSelectorTokensCount(uint64)": "fc698b4a",
    "oracleChainSelectorTotalShares(uint256,uint64)": "77b2688f",
    "oracleChainSelectorVersions(uint256,uint64,uint256)": "cf095239",
    "oracleChainSelectors(uint256,uint256)": "95a7e2b3",
    "oracleChainSelectorsCount()": "8e9d7c18",
    "oracleFilledCount()": "f1581787",
    "oracleList(uint256)": "239aad0d",
    "oraclePayment()": "0c02e130",
    "owner()": "8da5cb5b",
    "priceInWei()": "3c8da588",
    "proposeOwner(address)": "b5ed298a",
    "proposedOwner()": "d153b60c",
    "quoter()": "c6bbd5a7",
    "renounceOwnership()": "715018a6",
    "requestAssetsData()": "7ca58c55",
    "setCrossChainFactory(address,uint64)": "271040df",
    "setCrossChainToken(uint64,address,uint256)": "195c4913",
    "setIndexFactory(address)": "d047937f",
    "setIndexFactoryBalancer(address)": "ae214f39",
    "setPriceFeed(address)": "724e78da",
    "setUrl(string,string)": "a73e1cbf",
    "swap(address,address,uint256,address,uint256)": "17d88f46",
    "swapRouterV2()": "744fbc7a",
    "swapRouterV3()": "b631e80b",
    "toUsdPriceFeed()": "63973fda",
    "tokenChainSelector(address)": "ea8ecf04",
    "tokenCurrentListIndex(address)": "914f0cc6",
    "tokenCurrentMarketShare(address)": "0be52713",
    "tokenOracleListIndex(address)": "8c88c10c",
    "tokenOracleMarketShare(address)": "4b3e0b80",
    "tokenSwapVersion(address)": "d90bc211",
    "totalCurrentChainSelectors()": "92e410ce",
    "totalCurrentList()": "53fd4332",
    "totalOracleChainSelectors()": "80acffa3",
    "totalOracleList()": "c8599ded",
    "transferOwnership(address)": "f2fde38b",
    "updateCurrentList()": "8baa6bf1",
    "weth()": "3fc8cef3"
  },
  "id": 5
}