{"abi":[{"type":"function","name":"allCurrentChainSelectorTokenShares","inputs":[{"name":"_chainSelector","type":"uint64","internalType":"uint64"}],"outputs":[{"name":"","type":"uint256[]","internalType":"uint256[]"}],"stateMutability":"view"},{"type":"function","name":"allCurrentChainSelectorTokens","inputs":[{"name":"_chainSelector","type":"uint64","internalType":"uint64"}],"outputs":[{"name":"tokens","type":"address[]","internalType":"address[]"}],"stateMutability":"view"},{"type":"function","name":"allCurrentChainSelectorVersions","inputs":[{"name":"_chainSelector","type":"uint64","internalType":"uint64"}],"outputs":[{"name":"versions","type":"uint256[]","internalType":"uint256[]"}],"stateMutability":"view"},{"type":"function","name":"allOracleChainSelectorTokenShares","inputs":[{"name":"_chainSelector","type":"uint64","internalType":"uint64"}],"outputs":[{"name":"","type":"uint256[]","internalType":"uint256[]"}],"stateMutability":"view"},{"type":"function","name":"allOracleChainSelectorTokens","inputs":[{"name":"_chainSelector","type":"uint64","internalType":"uint64"}],"outputs":[{"name":"tokens","type":"address[]","internalType":"address[]"}],"stateMutability":"view"},{"type":"function","name":"allOracleChainSelectorVersions","inputs":[{"name":"_chainSelector","type":"uint64","internalType":"uint64"}],"outputs":[{"name":"versions","type":"uint256[]","internalType":"uint256[]"}],"stateMutability":"view"},{"type":"function","name":"concatenation","inputs":[{"name":"a","type":"string","internalType":"string"},{"name":"b","type":"string","internalType":"string"}],"outputs":[{"name":"","type":"string","internalType":"string"}],"stateMutability":"pure"},{"type":"function","name":"crossChainFactoryBySelector","inputs":[{"name":"","type":"uint64","internalType":"uint64"}],"outputs":[{"name":"","type":"address","internalType":"address"}],"stateMutability":"view"},{"type":"function","name":"crossChainToken","inputs":[{"name":"","type":"uint64","internalType":"uint64"}],"outputs":[{"name":"","type":"address","internalType":"address"}],"stateMutability":"view"},{"type":"function","name":"crossChainTokenSwapVersion","inputs":[{"name":"","type":"uint64","internalType":"uint64"},{"name":"","type":"address","internalType":"address"}],"outputs":[{"name":"","type":"uint256","internalType":"uint256"}],"stateMutability":"view"},{"type":"function","name":"currentChainSelector","inputs":[],"outputs":[{"name":"","type":"uint64","internalType":"uint64"}],"stateMutability":"view"},{"type":"function","name":"currentChainSelectorTokenShares","inputs":[{"name":"","type":"uint256","internalType":"uint256"},{"name":"","type":"uint64","internalType":"uint64"},{"name":"","type":"uint256","internalType":"uint256"}],"outputs":[{"name":"","type":"uint256","internalType":"uint256"}],"stateMutability":"view"},{"type":"function","name":"currentChainSelectorTokens","inputs":[{"name":"","type":"uint256","internalType":"uint256"},{"name":"","type":"uint64","internalType":"uint64"},{"name":"","type":"uint256","internalType":"uint256"}],"outputs":[{"name":"","type":"address","internalType":"address"}],"stateMutability":"view"},{"type":"function","name":"currentChainSelectorTokensCount","inputs":[{"name":"_chainSelector","type":"uint64","internalType":"uint64"}],"outputs":[{"name":"","type":"uint256","internalType":"uint256"}],"stateMutability":"view"},{"type":"function","name":"currentChainSelectorTotalShares","inputs":[{"name":"","type":"uint256","internalType":"uint256"},{"name":"","type":"uint64","internalType":"uint64"}],"outputs":[{"name":"","type":"uint256","internalType":"uint256"}],"stateMutability":"view"},{"type":"function","name":"currentChainSelectorVersions","inputs":[{"name":"","type":"uint256","internalType":"uint256"},{"name":"","type":"uint64","internalType":"uint64"},{"name":"","type":"uint256","internalType":"uint256"}],"outputs":[{"name":"","type":"uint256","internalType":"uint256"}],"stateMutability":"view"},{"type":"function","name":"currentChainSelectors","inputs":[{"name":"","type":"uint256","internalType":"uint256"},{"name":"","type":"uint256","internalType":"uint256"}],"outputs":[{"name":"","type":"uint64","internalType":"uint64"}],"stateMutability":"view"},{"type":"function","name":"currentChainSelectorsCount","inputs":[],"outputs":[{"name":"","type":"uint256","internalType":"uint256"}],"stateMutability":"view"},{"type":"function","name":"currentFilledCount","inputs":[],"outputs":[{"name":"","type":"uint256","internalType":"uint256"}],"stateMutability":"view"},{"type":"function","name":"currentList","inputs":[{"name":"","type":"uint256","internalType":"uint256"}],"outputs":[{"name":"","type":"address","internalType":"address"}],"stateMutability":"view"},{"type":"function","name":"estimateAmountOut","inputs":[{"name":"tokenIn","type":"address","internalType":"address"},{"name":"tokenOut","type":"address","internalType":"address"},{"name":"amountIn","type":"uint128","internalType":"uint128"}],"outputs":[{"name":"amountOut","type":"uint256","internalType":"uint256"}],"stateMutability":"view"},{"type":"function","name":"externalJobId","inputs":[],"outputs":[{"name":"","type":"bytes32","internalType":"bytes32"}],"stateMutability":"view"},{"type":"function","name":"factoryV2","inputs":[],"outputs":[{"name":"","type":"address","internalType":"contract IUniswapV2Factory"}],"stateMutability":"view"},{"type":"function","name":"factoryV3","inputs":[],"outputs":[{"name":"","type":"address","internalType":"contract IUniswapV3Factory"}],"stateMutability":"view"},{"type":"function","name":"feeRate","inputs":[],"outputs":[{"name":"","type":"uint8","internalType":"uint8"}],"stateMutability":"view"},{"type":"function","name":"fulfillAssetsData","inputs":[{"name":"requestId","type":"bytes32","internalType":"bytes32"},{"name":"_tokens","type":"address[]","internalType":"address[]"},{"name":"_marketShares","type":"uint256[]","internalType":"uint256[]"},{"name":"_swapVersions","type":"uint256[]","internalType":"uint256[]"},{"name":"_chainSelectors","type":"uint64[]","internalType":"uint64[]"}],"outputs":[],"stateMutability":"nonpayable"},{"type":"function","name":"getAmountOut","inputs":[{"name":"tokenIn","type":"address","internalType":"address"},{"name":"tokenOut","type":"address","internalType":"address"},{"name":"amountIn","type":"uint256","internalType":"uint256"},{"name":"_swapVersion","type":"uint256","internalType":"uint256"}],"outputs":[{"name":"finalAmountOutValue","type":"uint256","internalType":"uint256"}],"stateMutability":"view"},{"type":"function","name":"getPortfolioBalance","inputs":[],"outputs":[{"name":"","type":"uint256","internalType":"uint256"}],"stateMutability":"view"},{"type":"function","name":"indexFactory","inputs":[],"outputs":[{"name":"","type":"address","internalType":"address"}],"stateMutability":"view"},{"type":"function","name":"indexFactoryBalancer","inputs":[],"outputs":[{"name":"","type":"address","internalType":"address"}],"stateMutability":"view"},{"type":"function","name":"indexToken","inputs":[],"outputs":[{"name":"","type":"address","internalType":"contract IndexToken"}],"stateMutability":"view"},{"type":"function","name":"initialize","inputs":[{"name":"_currentChainSelector","type":"uint64","internalType":"uint64"},{"name":"_token","type":"address","internalType":"address payable"},{"name":"_chainlinkToken","type":"address","internalType":"address"},{"name":"_oracleAddress","type":"address","internalType":"address"},{"name":"_externalJobId","type":"bytes32","internalType":"bytes32"},{"name":"_toUsdPriceFeed","type":"address","internalType":"address"},{"name":"_weth","type":"address","internalType":"address"},{"name":"_swapRouterV3","type":"address","internalType":"address"},{"name":"_factoryV3","type":"address","internalType":"address"},{"name":"_swapRouterV2","type":"address","internalType":"address"},{"name":"_factoryV2","type":"address","internalType":"address"}],"outputs":[],"stateMutability":"nonpayable"},{"type":"function","name":"isCurrentChainSelectorStored","inputs":[{"name":"","type":"uint256","internalType":"uint256"},{"name":"","type":"uint64","internalType":"uint64"}],"outputs":[{"name":"","type":"bool","internalType":"bool"}],"stateMutability":"view"},{"type":"function","name":"isOracleChainSelectorStored","inputs":[{"name":"","type":"uint256","internalType":"uint256"},{"name":"","type":"uint64","internalType":"uint64"}],"outputs":[{"name":"","type":"bool","internalType":"bool"}],"stateMutability":"view"},{"type":"function","name":"lastUpdateTime","inputs":[],"outputs":[{"name":"","type":"uint256","internalType":"uint256"}],"stateMutability":"view"},{"type":"function","name":"latestFeeUpdate","inputs":[],"outputs":[{"name":"","type":"uint256","internalType":"uint256"}],"stateMutability":"view"},{"type":"function","name":"mockFillAssetsList","inputs":[{"name":"_tokens","type":"address[]","internalType":"address[]"},{"name":"_marketShares","type":"uint256[]","internalType":"uint256[]"},{"name":"_swapVersions","type":"uint256[]","internalType":"uint256[]"},{"name":"_chainSelectors","type":"uint64[]","internalType":"uint64[]"}],"outputs":[],"stateMutability":"nonpayable"},{"type":"function","name":"mockUpdateCurrentList","inputs":[],"outputs":[],"stateMutability":"nonpayable"},{"type":"function","name":"oracleChainSelectorTokenShares","inputs":[{"name":"","type":"uint256","internalType":"uint256"},{"name":"","type":"uint64","internalType":"uint64"},{"name":"","type":"uint256","internalType":"uint256"}],"outputs":[{"name":"","type":"uint256","internalType":"uint256"}],"stateMutability":"view"},{"type":"function","name":"oracleChainSelectorTokens","inputs":[{"name":"","type":"uint256","internalType":"uint256"},{"name":"","type":"uint64","internalType":"uint64"},{"name":"","type":"uint256","internalType":"uint256"}],"outputs":[{"name":"","type":"address","internalType":"address"}],"stateMutability":"view"},{"type":"function","name":"oracleChainSelectorTokensCount","inputs":[{"name":"_chainSelector","type":"uint64","internalType":"uint64"}],"outputs":[{"name":"","type":"uint256","internalType":"uint256"}],"stateMutability":"view"},{"type":"function","name":"oracleChainSelectorTotalShares","inputs":[{"name":"","type":"uint256","internalType":"uint256"},{"name":"","type":"uint64","internalType":"uint64"}],"outputs":[{"name":"","type":"uint256","internalType":"uint256"}],"stateMutability":"view"},{"type":"function","name":"oracleChainSelectorVersions","inputs":[{"name":"","type":"uint256","internalType":"uint256"},{"name":"","type":"uint64","internalType":"uint64"},{"name":"","type":"uint256","internalType":"uint256"}],"outputs":[{"name":"","type":"uint256","internalType":"uint256"}],"stateMutability":"view"},{"type":"function","name":"oracleChainSelectors","inputs":[{"name":"","type":"uint256","internalType":"uint256"},{"name":"","type":"uint256","internalType":"uint256"}],"outputs":[{"name":"","type":"uint64","internalType":"uint64"}],"stateMutability":"view"},{"type":"function","name":"oracleChainSelectorsCount","inputs":[],"outputs":[{"name":"","type":"uint256","internalType":"uint256"}],"stateMutability":"view"},{"type":"function","name":"oracleFilledCount","inputs":[],"outputs":[{"name":"","type":"uint256","internalType":"uint256"}],"stateMutability":"view"},{"type":"function","name":"oracleList","inputs":[{"name":"","type":"uint256","internalType":"uint256"}],"outputs":[{"name":"","type":"address","internalType":"address"}],"stateMutability":"view"},{"type":"function","name":"oraclePayment","inputs":[],"outputs":[{"name":"","type":"uint256","internalType":"uint256"}],"stateMutability":"view"},{"type":"function","name":"owner","inputs":[],"outputs":[{"name":"","type":"address","internalType":"address"}],"stateMutability":"view"},{"type":"function","name":"priceInWei","inputs":[],"outputs":[{"name":"","type":"uint256","internalType":"uint256"}],"stateMutability":"view"},{"type":"function","name":"priceOracle","inputs":[],"outputs":[{"name":"","type":"address","internalType":"address"}],"stateMutability":"view"},{"type":"function","name":"proposeOwner","inputs":[{"name":"_proposedOwner","type":"address","internalType":"address"}],"outputs":[],"stateMutability":"nonpayable"},{"type":"function","name":"proposedOwner","inputs":[],"outputs":[{"name":"","type":"address","internalType":"address"}],"stateMutability":"view"},{"type":"function","name":"quoter","inputs":[],"outputs":[{"name":"","type":"address","internalType":"contract IQuoter"}],"stateMutability":"view"},{"type":"function","name":"renounceOwnership","inputs":[],"outputs":[],"stateMutability":"nonpayable"},{"type":"function","name":"requestAssetsData","inputs":[],"outputs":[{"name":"","type":"bytes32","internalType":"bytes32"}],"stateMutability":"nonpayable"},{"type":"function","name":"setCrossChainFactory","inputs":[{"name":"_crossChainFactoryAddress","type":"address","internalType":"address"},{"name":"_chainSelector","type":"uint64","internalType":"uint64"}],"outputs":[],"stateMutability":"nonpayable"},{"type":"function","name":"setCrossChainToken","inputs":[{"name":"_chainSelector","type":"uint64","internalType":"uint64"},{"name":"_crossChainToken","type":"address","internalType":"address"},{"name":"_swapVersion","type":"uint256","internalType":"uint256"}],"outputs":[],"stateMutability":"nonpayable"},{"type":"function","name":"setIndexFactory","inputs":[{"name":"_indexFactory","type":"address","internalType":"address"}],"outputs":[],"stateMutability":"nonpayable"},{"type":"function","name":"setIndexFactoryBalancer","inputs":[{"name":"_indexFactoryBalancer","type":"address","internalType":"address"}],"outputs":[],"stateMutability":"nonpayable"},{"type":"function","name":"setPriceFeed","inputs":[{"name":"_toUsdPricefeed","type":"address","internalType":"address"}],"outputs":[],"stateMutability":"nonpayable"},{"type":"function","name":"setPriceOracle","inputs":[{"name":"_priceOracle","type":"address","internalType":"address"}],"outputs":[],"stateMutability":"nonpayable"},{"type":"function","name":"setUrl","inputs":[{"name":"_beforeAddress","type":"string","internalType":"string"},{"name":"_afterAddress","type":"string","internalType":"string"}],"outputs":[],"stateMutability":"nonpayable"},{"type":"function","name":"swap","inputs":[{"name":"tokenIn","type":"address","internalType":"address"},{"name":"tokenOut","type":"address","internalType":"address"},{"name":"amountIn","type":"uint256","internalType":"uint256"},{"name":"_recipient","type":"address","internalType":"address"},{"name":"_swapVersion","type":"uint256","internalType":"uint256"}],"outputs":[{"name":"","type":"uint256","internalType":"uint256"}],"stateMutability":"nonpayable"},{"type":"function","name":"swapRouterV2","inputs":[],"outputs":[{"name":"","type":"address","internalType":"contract IUniswapV2Router02"}],"stateMutability":"view"},{"type":"function","name":"swapRouterV3","inputs":[],"outputs":[{"name":"","type":"address","internalType":"contract ISwapRouter"}],"stateMutability":"view"},{"type":"function","name":"toUsdPriceFeed","inputs":[],"outputs":[{"name":"","type":"address","internalType":"contract AggregatorV3Interface"}],"stateMutability":"view"},{"type":"function","name":"tokenChainSelector","inputs":[{"name":"","type":"address","internalType":"address"}],"outputs":[{"name":"","type":"uint64","internalType":"uint64"}],"stateMutability":"view"},{"type":"function","name":"tokenCurrentListIndex","inputs":[{"name":"","type":"address","internalType":"address"}],"outputs":[{"name":"","type":"uint256","internalType":"uint256"}],"stateMutability":"view"},{"type":"function","name":"tokenCurrentMarketShare","inputs":[{"name":"","type":"address","internalType":"address"}],"outputs":[{"name":"","type":"uint256","internalType":"uint256"}],"stateMutability":"view"},{"type":"function","name":"tokenOracleListIndex","inputs":[{"name":"","type":"address","internalType":"address"}],"outputs":[{"name":"","type":"uint256","internalType":"uint256"}],"stateMutability":"view"},{"type":"function","name":"tokenOracleMarketShare","inputs":[{"name":"","type":"address","internalType":"address"}],"outputs":[{"name":"","type":"uint256","internalType":"uint256"}],"stateMutability":"view"},{"type":"function","name":"tokenSwapVersion","inputs":[{"name":"","type":"address","internalType":"address"}],"outputs":[{"name":"","type":"uint256","internalType":"uint256"}],"stateMutability":"view"},{"type":"function","name":"totalCurrentChainSelectors","inputs":[],"outputs":[{"name":"","type":"uint256","internalType":"uint256"}],"stateMutability":"view"},{"type":"function","name":"totalCurrentList","inputs":[],"outputs":[{"name":"","type":"uint256","internalType":"uint256"}],"stateMutability":"view"},{"type":"function","name":"totalOracleChainSelectors","inputs":[],"outputs":[{"name":"","type":"uint256","internalType":"uint256"}],"stateMutability":"view"},{"type":"function","name":"totalOracleList","inputs":[],"outputs":[{"name":"","type":"uint256","internalType":"uint256"}],"stateMutability":"view"},{"type":"function","name":"transferOwnership","inputs":[{"name":"newOwner","type":"address","internalType":"address"}],"outputs":[],"stateMutability":"nonpayable"},{"type":"function","name":"updateCurrentList","inputs":[],"outputs":[],"stateMutability":"nonpayable"},{"type":"function","name":"weth","inputs":[],"outputs":[{"name":"","type":"address","internalType":"contract IWETH"}],"stateMutability":"view"},{"type":"event","name":"ChainlinkCancelled","inputs":[{"name":"id","type":"bytes32","indexed":true,"internalType":"bytes32"}],"anonymous":false},{"type":"event","name":"ChainlinkFulfilled","inputs":[{"name":"id","type":"bytes32","indexed":true,"internalType":"bytes32"}],"anonymous":false},{"type":"event","name":"ChainlinkRequested","inputs":[{"name":"id","type":"bytes32","indexed":true,"internalType":"bytes32"}],"anonymous":false},{"type":"event","name":"Initialized","inputs":[{"name":"version","type":"uint8","indexed":false,"internalType":"uint8"}],"anonymous":false},{"type":"event","name":"OwnershipTransferred","inputs":[{"name":"previousOwner","type":"address","indexed":true,"internalType":"address"},{"name":"newOwner","type":"address","indexed":true,"internalType":"address"}],"anonymous":false}],"bytecode":{"object":"0x608060405234801561001057600080fd5b506145de806100206000396000f3fe608060405234801561001057600080fd5b50600436106104805760003560e01c80638e9d7c1811610257578063bd96993c11610146578063d1db5984116100c3578063e7d015f211610087578063e7d015f214610b4a578063ea8ecf0414610b5d578063f158178714610b86578063f2fde38b14610b8f578063fc698b4a14610ba257600080fd5b8063d1db598414610ade578063d7eefdaa14610af1578063d90bc21114610b04578063db56192214610b24578063e3fd0af214610b3757600080fd5b8063cf0952391161010a578063cf09523914610a72578063d047937f14610a85578063d050ca7c14610a98578063d153b60c14610ab8578063d1c68aa314610acb57600080fd5b8063bd96993c14610a27578063bf0d49c014610a3a578063c6bbd5a714610a4d578063c8599ded14610a60578063c8f33c9114610a6957600080fd5b8063a73e1cbf116101d4578063b5ed298a11610198578063b5ed298a146109ae578063b631e80b146109c1578063b6ad185b146109d4578063b90b8a2a14610a0b578063bb0ed51314610a1457600080fd5b8063a73e1cbf14610964578063a8509fd814610977578063a8b54bd41461097f578063ae214f3914610988578063af696b341461099b57600080fd5b80639932ba4c1161021b5780639932ba4c146108ef5780639c8bbe8f146109185780639ebe560e1461092b5780639f91affc1461093e578063a1adff881461095157600080fd5b80638e9d7c181461087d578063914f0cc61461089457806392e410ce146108b457806395a7e2b3146108bd578063978bbdb9146108d057600080fd5b80633d54cb6f1161037357806369487b1c116102f05780637ca58c55116102b45780637ca58c551461083357806380acffa31461083b5780638baa6bf1146108445780638c88c10c1461084c5780638da5cb5b1461086c57600080fd5b806369487b1c146107c3578063715018a6146107da578063724e78da146107e2578063744fbc7a146107f557806377b2688f1461080857600080fd5b80634f9641b9116103375780634f9641b914610779578063530e784f1461078157806353fd43321461079457806363973fda1461079d57806368e0d4e1146107b057600080fd5b80633d54cb6f146106c25780633fc8cef3146106ed5780633ff34ef41461070057806344fd376f1461072e5780634b3e0b801461075957600080fd5b80631d5f45f511610401578063271040df116103c5578063271040df14610658578063271b5fcc1461066b57806329d75de91461067e578063340fbc74146106915780633c8da588146106ba57600080fd5b80631d5f45f5146105a4578063221f3371146105b7578063239aad0d146105d75780632585dd26146106005780632630c12f1461063e57600080fd5b806313cb1f831161044857806313cb1f83146104fd578063174cbe501461051057806317d88f461461053b578063195c49131461054e57806319da7e2a1461056357600080fd5b8063011ced5f146104855780630456f9c8146104a15780630be52713146104b45780630c02e130146104d45780630e329357146104dd575b600080fd5b61048e60a45481565b6040519081526020015b60405180910390f35b61048e6104af36600461394a565b610bd9565b61048e6104c236600461392d565b60b46020526000908152604090205481565b61048e60a95481565b6104f06104eb366004613c92565b610c8a565b60405161049891906140f8565b61048e61050b3660046139fc565b610cb7565b61048e61051e366004613dbc565b60a160209081526000928352604080842090915290825290205481565b61048e6105493660046139a1565b610e07565b61056161055c366004613ecc565b611122565b005b61058c610571366004613da1565b60a0602052600090815260409020546001600160a01b031681565b6040516001600160a01b039091168152602001610498565b60c75461058c906001600160a01b031681565b6105ca6105c5366004613da1565b611174565b60405161049891906140b4565b61058c6105e5366004613cf5565b60b0602052600090815260409020546001600160a01b031681565b61062e61060e366004613d49565b60bd60209081526000928352604080842090915290825290205460ff1681565b6040519015158152602001610498565b60a55461058c90600160401b90046001600160a01b031681565b610561610666366004613a42565b6111ea565b61058c610679366004613d6c565b611229565b609f5461058c906001600160a01b031681565b61058c61069f366004613da1565b60a2602052600090815260409020546001600160a01b031681565b61048e61126e565b60a5546106d5906001600160401b031681565b6040516001600160401b039091168152602001610498565b60ca5461058c906001600160a01b031681565b61062e61070e366004613d49565b60bc60209081526000928352604080842090915290825290205460ff1681565b61048e61073c366004613d49565b60c560209081526000928352604080842090915290825290205481565b61048e61076736600461392d565b60b56020526000908152604090205481565b61056161139a565b61056161078f36600461392d565b6113ac565b61048e60ad5481565b60aa5461058c906001600160a01b031681565b60c95461058c906001600160a01b031681565b60b954600090815260bb602052604090205461048e565b610561611454565b6105616107f036600461392d565b611466565b60c85461058c906001600160a01b031681565b61048e610816366004613d49565b60c460209081526000928352604080842090915290825290205481565b61048e6114fd565b61048e60ae5481565b6105616117f7565b61048e61085a36600461392d565b60b26020526000908152604090205481565b6038546001600160a01b031661058c565b60b854600090815260ba602052604090205461048e565b61048e6108a236600461392d565b60b36020526000908152604090205481565b61048e60af5481565b6106d56108cb366004613d27565b611868565b60a3546108dd9060ff1681565b60405160ff9091168152602001610498565b61058c6108fd366004613cf5565b60b1602052600090815260409020546001600160a01b031681565b61048e610926366004613d6c565b6118b4565b610561610939366004613df3565b6118f2565b61048e61094c366004613d6c565b611b6f565b6105ca61095f366004613da1565b611b97565b610561610972366004613c92565b611c0b565b61048e611c3f565b61048e60a85481565b61056161099636600461392d565b611d3a565b6105ca6109a9366004613da1565b611d64565b6105616109bc36600461392d565b611dd8565b60c65461058c906001600160a01b031681565b61048e6109e2366004613da1565b60b954600090815260bf602090815260408083206001600160401b039094168352929052205490565b61048e60b95481565b61048e610a22366004613d6c565b611e28565b61058c610a35366004613d6c565b611e50565b6105ca610a48366004613da1565b611e78565b60cb5461058c906001600160a01b031681565b61048e60ac5481565b61048e60ab5481565b61048e610a80366004613d6c565b611eec565b610561610a9336600461392d565b611f14565b610aab610aa6366004613da1565b611f3e565b60405161049891906140a1565b606a5461058c906001600160a01b031681565b610aab610ad9366004613da1565b611fbd565b610561610aec366004613bdc565b61203b565b610561610aff366004613a77565b61210b565b61048e610b1236600461392d565b60b66020526000908152604090205481565b6106d5610b32366004613d27565b612125565b609e5461058c906001600160a01b031681565b609d5461058c906001600160a01b031681565b6106d5610b6b36600461392d565b60b7602052600090815260409020546001600160401b031681565b61048e60b85481565b610561610b9d36600461392d565b612141565b61048e610bb0366004613da1565b60b854600090815260be602090815260408083206001600160401b039094168352929052205490565b60a55460c7546040516304a10b8960e51b81526001600160a01b039182166004820152858216602482015284821660448201526001600160801b0384166064820152600092600160401b90049091169063942171209060840160206040518083038186803b158015610c4a57600080fd5b505afa158015610c5e573d6000803e3d6000fd5b505050506040513d601f19601f82011682018060405250810190610c829190613d0e565b949350505050565b60608282604051602001610c9f929190613fe3565b60405160208183030381529060405290505b92915050565b6000808315610dfe578260031415610cdb57610cd4868686610bd9565b9050610dfe565b6040805160028082526060820183526000926020830190803683370190505090508681600081518110610d1057610d1061450f565b60200260200101906001600160a01b031690816001600160a01b0316815250508581600181518110610d4457610d4461450f565b6001600160a01b03928316602091820292909201015260c85460405163d06ca61f60e01b8152600092919091169063d06ca61f90610d8890899086906004016141a6565b60006040518083038186803b158015610da057600080fd5b505afa158015610db4573d6000803e3d6000fd5b505050506040513d6000823e601f3d908101601f19168201604052610ddc9190810190613b23565b905080600181518110610df157610df161450f565b6020026020010151925050505b95945050505050565b60008160031415610fac5760c65460405163095ea7b360e01b81526001600160a01b039182166004820152602481018690529087169063095ea7b390604401602060405180830381600087803b158015610e6057600080fd5b505af1158015610e74573d6000803e3d6000fd5b505050506040513d601f19601f82011682018060405250810190610e989190613bba565b5060408051610100810182526001600160a01b03888116825287811660208301908152610bb883850190815287831660608501908152426080860190815260a086018b8152600060c0880181815260e0890182815260c6549a5163414bf38960e01b81528a518a166004820152975189166024890152955162ffffff166044880152935187166064870152915160848601525160a4850152905160c48401529051831660e483015292939091169063414bf3899061010401602060405180830381600087803b158015610f6a57600080fd5b505af1158015610f7e573d6000803e3d6000fd5b505050506040513d601f19601f82011682018060405250810190610fa29190613d0e565b9250610dfe915050565b6040805160028082526060820183526000926020830190803683370190505090508681600081518110610fe157610fe161450f565b60200260200101906001600160a01b031690816001600160a01b03168152505085816001815181106110155761101561450f565b6001600160a01b03928316602091820292909201015260c85460405163095ea7b360e01b81529082166004820152602481018790529088169063095ea7b390604401602060405180830381600087803b15801561107157600080fd5b505af1158015611085573d6000803e3d6000fd5b505050506040513d601f19601f820116820180604052508101906110a99190613bba565b5060c854604051635c11d79560e01b81526001600160a01b0390911690635c11d795906110e390889060009086908a9042906004016141bf565b600060405180830381600087803b1580156110fd57600080fd5b505af1158015611111573d6000803e3d6000fd5b5060009a9950505050505050505050565b61112a612269565b6001600160401b03909216600090815260a06020908152604080832080546001600160a01b039095166001600160a01b03199095168517905560a182528083209383529290522055565b60b954600090815260c1602090815260408083206001600160401b03851684528252918290208054835181840281018401909452808452606093928301828280156111de57602002820191906000526020600020905b8154815260200190600101908083116111ca575b50505050509050919050565b6111f2612269565b6001600160401b0316600090815260a26020526040902080546001600160a01b0319166001600160a01b0392909216919091179055565b60bf602052826000526040600020602052816000526040600020818154811061125157600080fd5b6000918252602090912001546001600160a01b0316925083915050565b60008060aa60009054906101000a90046001600160a01b03166001600160a01b031663feaf968c6040518163ffffffff1660e01b815260040160a06040518083038186803b1580156112bf57600080fd5b505afa1580156112d3573d6000803e3d6000fd5b505050506040513d601f19601f820116820180604052508101906112f79190613f0b565b505050915050600060aa60009054906101000a90046001600160a01b03166001600160a01b031663313ce5676040518163ffffffff1660e01b815260040160206040518083038186803b15801561134d57600080fd5b505afa158015611361573d6000803e3d6000fd5b505050506040513d601f19601f820116820180604052508101906113859190613f5b565b9050611393828260126122c3565b9392505050565b6113a2612269565b6113aa612303565b565b6113b4612269565b6001600160a01b0381166114235760405162461bcd60e51b815260206004820152602b60248201527f5072696365206f7261636c6520616464726573732063616e6e6f74206265207a60448201526a65726f206164647265737360a81b60648201526084015b60405180910390fd5b60a580546001600160a01b03909216600160401b0268010000000000000000600160e01b0319909216919091179055565b61145c612269565b6113aa6000612570565b61146e612269565b6001600160a01b0381166114db5760405162461bcd60e51b815260206004820152602e60248201527f49434f3a205072696365206665656420616464726573732063616e6e6f74206260448201526d65207a65726f206164647265737360901b606482015260840161141a565b60aa80546001600160a01b0319166001600160a01b0392909216919091179055565b60008061161e60a680546115109061447f565b80601f016020809104026020016040519081016040528092919081815260200182805461153c9061447f565b80156115895780601f1061155e57610100808354040283529160200191611589565b820191906000526020600020905b81548152906001019060200180831161156c57829003601f168201915b505050505060a7805461159b9061447f565b80601f01602080910402602001604051908101604052809291908181526020018280546115c79061447f565b80156116145780601f106115e957610100808354040283529160200191611614565b820191906000526020600020905b8154815290600101906020018083116115f757829003601f168201915b5050505050610c8a565b9050600061163660a8543063d1db598460e01b6125c2565b60408051808201909152600381526219d95d60ea1b602082015290915061165f908290846125de565b6116b760405180604001604052806005815260200164706174683160d81b8152506040518060400160405280600e81526020016d726573756c74732c746f6b656e7360901b815250836125de9092919063ffffffff16565b611715604051806040016040528060058152602001643830ba341960d91b81525060405180604001604052806014815260200173726573756c74732c6d61726b657453686172657360601b815250836125de9092919063ffffffff16565b61177360405180604001604052806005815260200164706174683360d81b81525060405180604001604052806014815260200173726573756c74732c7377617056657273696f6e7360601b815250836125de9092919063ffffffff16565b6117d2604051806040016040528060058152602001641c185d1a0d60da1b815250604051806040016040528060158152602001743932b9bab63a399631b430b4b729b2b632b1ba37b960591b815250836125de9092919063ffffffff16565b6117f06117e76003546001600160a01b031690565b8260a9546125fc565b9250505090565b609f546001600160a01b031633146113a25760405162461bcd60e51b815260206004820152602e60248201527f43616c6c6572206973206e6f7420696e64657820666163746f72792062616c6160448201526d3731b2b91031b7b73a3930b1ba1760911b606482015260840161141a565b60ba602052816000526040600020818154811061188457600080fd5b9060005260206000209060049182820401919006600802915091509054906101000a90046001600160401b031681565b60c260205282600052604060002060205281600052604060002081815481106118dc57600080fd5b9060005260206000200160009250925050505481565b600054610100900460ff16158080156119125750600054600160ff909116105b8061192c5750303b15801561192c575060005460ff166001145b61198f5760405162461bcd60e51b815260206004820152602e60248201527f496e697469616c697a61626c653a20636f6e747261637420697320616c72656160448201526d191e481a5b9a5d1a585b1a5e995960921b606482015260840161141a565b6000805460ff1916600117905580156119b2576000805461ff0019166101001790555b6119ba61268f565b60a580546001600160401b038e1667ffffffffffffffff19909116179055609d80546001600160a01b038d166001600160a01b0319909116179055611a1c8a600280546001600160a01b039092166001600160a01b0319909216919091179055565b600380546001600160a01b0319166001600160a01b038b1617905560a8889055600a611a51670de0b6b3a764000060016143fa565b611a5b9190614266565b60a95560aa80546001600160a01b03199081166001600160a01b038a81169190911790925560ca8054821689841617905560c68054821688841617905560c78054821687841617905560c88054821686841617905560c980549091169184169190911790556040805160608101909152602a80825261455160208301398051611aec9160a691602090910190613672565b506040518060600160405280602e815260200161457b602e91398051611b1a9160a791602090910190613672565b508015611b61576000805461ff0019169055604051600181527f7f26b83ff96e1f2b6a682f133852f6798a09c465da95921460cefb38474024989060200160405180910390a15b505050505050505050505050565b60c360205282600052604060002060205281600052604060002081815481106118dc57600080fd5b60b854600090815260c0602090815260408083206001600160401b03851684528252918290208054835181840281018401909452808452606093928301828280156111de57602002820191906000526020600020908154815260200190600101908083116111ca5750505050509050919050565b611c13612269565b8151611c269060a6906020850190613672565b508051611c3a9060a7906020840190613672565b505050565b60008060005b60ad54811015611d3457600081815260b160205260408082205460ca54609d5492516370a0823160e01b81526001600160a01b039384166004820152611d1293928316929091169082906370a082319060240160206040518083038186803b158015611cb057600080fd5b505afa158015611cc4573d6000803e3d6000fd5b505050506040513d601f19601f82011682018060405250810190611ce89190613d0e565b600086815260b160209081526040808320546001600160a01b0316835260b6909152902054610cb7565b9050611d1e818461424e565b9250508080611d2c906144b4565b915050611c45565b50919050565b611d42612269565b609f80546001600160a01b0319166001600160a01b0392909216919091179055565b60b954600090815260c3602090815260408083206001600160401b03851684528252918290208054835181840281018401909452808452606093928301828280156111de57602002820191906000526020600020908154815260200190600101908083116111ca5750505050509050919050565b611de0612269565b6001600160a01b038116611e065760405162461bcd60e51b815260040161141a9061410b565b606a80546001600160a01b0319166001600160a01b0392909216919091179055565b60c160205282600052604060002060205281600052604060002081815481106118dc57600080fd5b60be602052826000526040600020602052816000526040600020818154811061125157600080fd5b60b854600090815260c2602090815260408083206001600160401b03851684528252918290208054835181840281018401909452808452606093928301828280156111de57602002820191906000526020600020908154815260200190600101908083116111ca5750505050509050919050565b60c060205282600052604060002060205281600052604060002081815481106118dc57600080fd5b611f1c612269565b609e80546001600160a01b0319166001600160a01b0392909216919091179055565b60b854600090815260be602090815260408083206001600160401b03851684528252918290208054835181840281018401909452808452606093928301828280156111de57602002820191906000526020600020905b81546001600160a01b03168152600190910190602001808311611f945750505050509050919050565b60b954600090815260bf602090815260408083206001600160401b03851684528252918290208054835181840281018401909452808452606093928301828280156111de576020028201919060005260206000209081546001600160a01b03168152600190910190602001808311611f945750505050509050919050565b60008581526005602052604090205485906001600160a01b031633146120b45760405162461bcd60e51b815260206004820152602860248201527f536f75726365206d75737420626520746865206f7261636c65206f6620746865604482015267081c995c5d595cdd60c21b606482015260840161141a565b60008181526005602052604080822080546001600160a01b03191690555182917f7cc135e0cebb02c3480ae5d74d377283180a2601f8f644edf7987b009316c63a91a2612103858585856126be565b505050505050565b612113612269565b61211f848484846126be565b50505050565b60bb602052816000526040600020818154811061188457600080fd5b6001600160a01b0381166121675760405162461bcd60e51b815260040161141a9061410b565b606a546001600160a01b038281169116146121df5760405162461bcd60e51b815260206004820152603260248201527f50726f706f7361626c654f776e61626c653a206e6577206f776e6572206973206044820152713737ba10383937b837b9b2b21037bbb732b960711b606482015260840161141a565b6001600160a01b038116331461225d5760405162461bcd60e51b815260206004820152603a60248201527f50726f706f7361626c654f776e61626c653a20746869732063616c6c206d757360448201527f74206265206d61646520627920746865206e6577206f776e6572000000000000606482015260840161141a565b61226681612570565b50565b6038546001600160a01b031633146113aa5760405162461bcd60e51b815260206004820181905260248201527f4f776e61626c653a2063616c6c6572206973206e6f7420746865206f776e6572604482015260640161141a565b60008260ff168260ff1611156122f9576122dd8383614430565b6122e890600a6142c9565b6122f29085614375565b9050611393565b6122dd8284614430565b600160b96000828254612316919061424e565b90915550600090505b60ac5481101561256757600081815260b060209081526040808320805460b1845282852080546001600160a01b0319166001600160a01b03928316908117825583548316875260b586528487205490875260b486528487205582548216865260b285528386205490548216865260b3855283862055905416835260b782528083205460b954845260bd83528184206001600160401b0390911680855292529091205460ff166124385760b98054600090815260bd602090815260408083206001600160401b038681168086529184528285208054600160ff1990911681179091559554855260bb8452918420805495860181558452919092206004840401805460039094166008026101000a9283021990931691021790555b60b98054600090815260bf602090815260408083206001600160401b03861680855290835281842087855260b0845282852080548254600181810185559388528688200180546001600160a01b0319166001600160a01b039283161790558754875260c18652848720848852865284872082548216885260b687528588205481549485018255908852868820909301929092555416845260b58352818420549454845260c58352818420908452909152812080549091906124fa90849061424e565b909155505060b954600090815260c3602090815260408083206001600160401b03909416835292815282822084835260b08252838320546001600160a01b0316835260b582529282205483546001810185559383529120909101558061255f816144b4565b91505061231f565b5060ac5460ad55565b603880546001600160a01b038381166001600160a01b0319831681179093556040519116919082907f8be0079c531659141344cd1fd0a4f28419497f9722a3daafe3b4186f6b6457e090600090a35050565b6125ca6136f6565b6125d26136f6565b610dfe818686866130b4565b60808301516125ed90836130f1565b6080830151611c3a90826130f1565b60045460009061260d81600161424e565b600455835160408086015160808701515191516000936320214ca360e11b936126459386938493923092918a91600191602401614012565b60408051601f198184030181529190526020810180516001600160e01b03166001600160e01b031990931692909217909152905061268586838684613108565b9695505050505050565b600054610100900460ff166126b65760405162461bcd60e51b815260040161141a9061415b565b6113aa613275565b60b880548591859185918591600191906000906126dc90849061424e565b909155505060ad5461270157600160b960008282546126fb919061424e565b90915550505b60005b84518110156130935784818151811061271f5761271f61450f565b602002602001015160b0600083815260200190815260200160002060006101000a8154816001600160a01b0302191690836001600160a01b031602179055508060b260008784815181106127755761277561450f565b60200260200101516001600160a01b03166001600160a01b03168152602001908152602001600020819055508381815181106127b3576127b361450f565b602002602001015160b560008784815181106127d1576127d161450f565b60200260200101516001600160a01b03166001600160a01b031681526020019081526020016000208190555082818151811061280f5761280f61450f565b602002602001015160b6600087848151811061282d5761282d61450f565b60200260200101516001600160a01b03166001600160a01b031681526020019081526020016000208190555081818151811061286b5761286b61450f565b602002602001015160b760008784815181106128895761288961450f565b60200260200101516001600160a01b03166001600160a01b0316815260200190815260200160002060006101000a8154816001600160401b0302191690836001600160401b0316021790555060bc600060b854815260200190815260200160002060008383815181106128fe576128fe61450f565b6020908102919091018101516001600160401b031682528101919091526040016000205460ff16612a125760b854600090815260ba60205260409020825183908390811061294e5761294e61450f565b602002602001015190806001815401808255809150506001900390600052602060002090600491828204019190066008029091909190916101000a8154816001600160401b0302191690836001600160401b03160217905550600160bc600060b854815260200190815260200160002060008484815181106129d2576129d261450f565b60200260200101516001600160401b03166001600160401b0316815260200190815260200160002060006101000a81548160ff0219169083151502179055505b60be600060b85481526020019081526020016000206000838381518110612a3b57612a3b61450f565b60200260200101516001600160401b03166001600160401b03168152602001908152602001600020858281518110612a7557612a7561450f565b602090810291909101810151825460018101845560009384528284200180546001600160a01b0319166001600160a01b0390921691909117905560b854825260c09052604081208351909190849084908110612ad357612ad361450f565b60200260200101516001600160401b03166001600160401b03168152602001908152602001600020838281518110612b0d57612b0d61450f565b602090810291909101810151825460018101845560009384529190922001558351849082908110612b4057612b4061450f565b602002602001015160c4600060b85481526020019081526020016000206000848481518110612b7157612b7161450f565b60200260200101516001600160401b03166001600160401b031681526020019081526020016000206000828254612ba8919061424e565b909155505060b854600090815260c2602052604081208351909190849084908110612bd557612bd561450f565b60200260200101516001600160401b03166001600160401b03168152602001908152602001600020848281518110612c0f57612c0f61450f565b6020908102919091018101518254600181018455600093845291909220015560ad5461308157848181518110612c4757612c4761450f565b602002602001015160b1600083815260200190815260200160002060006101000a8154816001600160a01b0302191690836001600160a01b03160217905550838181518110612c9857612c9861450f565b602002602001015160b46000878481518110612cb657612cb661450f565b60200260200101516001600160a01b03166001600160a01b03168152602001908152602001600020819055508060b36000878481518110612cf957612cf961450f565b60200260200101516001600160a01b03166001600160a01b031681526020019081526020016000208190555060bd600060b95481526020019081526020016000206000838381518110612d4e57612d4e61450f565b6020908102919091018101516001600160401b031682528101919091526040016000205460ff16612e6457600160bd600060b95481526020019081526020016000206000848481518110612da457612da461450f565b60200260200101516001600160401b03166001600160401b0316815260200190815260200160002060006101000a81548160ff02191690831515021790555060bb600060b9548152602001908152602001600020828281518110612e0a57612e0a61450f565b602002602001015190806001815401808255809150506001900390600052602060002090600491828204019190066008029091909190916101000a8154816001600160401b0302191690836001600160401b031602179055505b60bf600060b95481526020019081526020016000206000838381518110612e8d57612e8d61450f565b60200260200101516001600160401b03166001600160401b03168152602001908152602001600020858281518110612ec757612ec761450f565b602090810291909101810151825460018101845560009384528284200180546001600160a01b0319166001600160a01b0390921691909117905560b954825260c19052604081208351909190849084908110612f2557612f2561450f565b60200260200101516001600160401b03166001600160401b03168152602001908152602001600020838281518110612f5f57612f5f61450f565b602090810291909101810151825460018101845560009384529190922001558351849082908110612f9257612f9261450f565b602002602001015160c5600060b95481526020019081526020016000206000848481518110612fc357612fc361450f565b60200260200101516001600160401b03166001600160401b031681526020019081526020016000206000828254612ffa919061424e565b909155505060b954600090815260c36020526040812083519091908490849081106130275761302761450f565b60200260200101516001600160401b03166001600160401b031681526020019081526020016000208482815181106130615761306161450f565b602090810291909101810151825460018101845560009384529190922001555b8061308b816144b4565b915050612704565b50835160ac5560ad546130a657835160ad555b50504260ab55505050505050565b6130bc6136f6565b6130cc85608001516101006132a5565b50509183526001600160a01b031660208301526001600160e01b031916604082015290565b6130fe826003835161330a565b611c3a8282613411565b6040516bffffffffffffffffffffffff193060601b1660208201526034810184905260009060540160408051808303601f1901815282825280516020918201206000818152600590925291812080546001600160a01b0319166001600160a01b038a1617905590925082917fb5e6e01e79f91267dc17b4e6314d5d4d03593d2ceee0fbb452b750bd70ea5af99190a2600254604051630200057560e51b81526001600160a01b0390911690634000aea0906131cb9088908790879060040161407a565b602060405180830381600087803b1580156131e557600080fd5b505af11580156131f9573d6000803e3d6000fd5b505050506040513d601f19601f8201168201806040525081019061321d9190613bba565b610c825760405162461bcd60e51b815260206004820152602360248201527f756e61626c6520746f207472616e73666572416e6443616c6c20746f206f7261604482015262636c6560e81b606482015260840161141a565b600054610100900460ff1661329c5760405162461bcd60e51b815260040161141a9061415b565b6113aa33612570565b6040805180820190915260608152600060208201526132c56020836144cf565b156132ed576132d56020836144cf565b6132e0906020614419565b6132ea908361424e565b91505b506020828101829052604080518085526000815290920101905290565b6017816001600160401b03161161332e5761211f8360e0600585901b168317613438565b60ff816001600160401b03161161336a57613354836018611fe0600586901b1617613438565b5061211f836001600160401b038316600161345d565b61ffff816001600160401b0316116133a757613391836019611fe0600586901b1617613438565b5061211f836001600160401b038316600261345d565b63ffffffff816001600160401b0316116133e6576133d083601a611fe0600586901b1617613438565b5061211f836001600160401b038316600461345d565b6133fb83601b611fe0600586901b1617613438565b5061211f836001600160401b038316600861345d565b60408051808201909152606081526000602082015261139383846000015151848551613483565b604080518082019091526060815260006020820152611393838460000151518461356d565b604080518082019091526060815260006020820152610c828485600001515185856135c9565b60408051808201909152606081526000602082015282518211156134a657600080fd5b60208501516134b5838661424e565b11156134e8576134e8856134d8876020015187866134d3919061424e565b61364a565b6134e39060026143fa565b61365b565b6000808651805187602083010193508088870111156135075787860182525b505050602084015b60208410613547578051825261352660208361424e565b915061353360208261424e565b9050613540602085614419565b935061350f565b51815160001960208690036101000a019081169019919091161790525083949350505050565b604080518082019091526060815260006020820152836020015183106135a2576135a284856020015160026134e391906143fa565b8351805160208583010184815350808514156135bf576001810182525b5093949350505050565b60408051808201909152606081526000602082015260208501516135ed858461424e565b111561360157613601856134d8868561424e565b60006001613611846101006142bd565b61361b9190614419565b905085518386820101858319825116178152508051848701111561363f5783860181525b509495945050505050565b600081831115611d34575081610cb1565b815161366783836132a5565b5061211f8382613411565b82805461367e9061447f565b90600052602060002090601f0160209004810192826136a057600085556136e6565b82601f106136b957805160ff19168380011785556136e6565b828001600101855582156136e6579182015b828111156136e65782518255916020019190600101906136cb565b506136f2929150613731565b5090565b6040805160a0810182526000808252602080830182905282840182905260608084018390528451808601909552845283015290608082015290565b5b808211156136f25760008155600101613732565b600082601f83011261375757600080fd5b8135602061376c6137678361422b565b6141fb565b80838252828201915082860187848660051b890101111561378c57600080fd5b60005b858110156137b45781356137a28161453b565b8452928401929084019060010161378f565b5090979650505050505050565b600082601f8301126137d257600080fd5b813560206137e26137678361422b565b80838252828201915082860187848660051b890101111561380257600080fd5b60005b858110156137b457813584529284019290840190600101613805565b600082601f83011261383257600080fd5b813560206138426137678361422b565b80838252828201915082860187848660051b890101111561386257600080fd5b60005b858110156137b457613876826138f7565b84529284019290840190600101613865565b600082601f83011261389957600080fd5b81356001600160401b038111156138b2576138b2614525565b6138c5601f8201601f19166020016141fb565b8181528460208386010111156138da57600080fd5b816020850160208301376000918101602001919091529392505050565b80356001600160401b038116811461390e57600080fd5b919050565b805169ffffffffffffffffffff8116811461390e57600080fd5b60006020828403121561393f57600080fd5b81356113938161453b565b60008060006060848603121561395f57600080fd5b833561396a8161453b565b9250602084013561397a8161453b565b915060408401356001600160801b038116811461399657600080fd5b809150509250925092565b600080600080600060a086880312156139b957600080fd5b85356139c48161453b565b945060208601356139d48161453b565b93506040860135925060608601356139eb8161453b565b949793965091946080013592915050565b60008060008060808587031215613a1257600080fd5b8435613a1d8161453b565b93506020850135613a2d8161453b565b93969395505050506040820135916060013590565b60008060408385031215613a5557600080fd5b8235613a608161453b565b9150613a6e602084016138f7565b90509250929050565b60008060008060808587031215613a8d57600080fd5b84356001600160401b0380821115613aa457600080fd5b613ab088838901613746565b95506020870135915080821115613ac657600080fd5b613ad2888389016137c1565b94506040870135915080821115613ae857600080fd5b613af4888389016137c1565b93506060870135915080821115613b0a57600080fd5b50613b1787828801613821565b91505092959194509250565b60006020808385031215613b3657600080fd5b82516001600160401b03811115613b4c57600080fd5b8301601f81018513613b5d57600080fd5b8051613b6b6137678261422b565b80828252848201915084840188868560051b8701011115613b8b57600080fd5b600094505b83851015613bae578051835260019490940193918501918501613b90565b50979650505050505050565b600060208284031215613bcc57600080fd5b8151801515811461139357600080fd5b600080600080600060a08688031215613bf457600080fd5b8535945060208601356001600160401b0380821115613c1257600080fd5b613c1e89838a01613746565b95506040880135915080821115613c3457600080fd5b613c4089838a016137c1565b94506060880135915080821115613c5657600080fd5b613c6289838a016137c1565b93506080880135915080821115613c7857600080fd5b50613c8588828901613821565b9150509295509295909350565b60008060408385031215613ca557600080fd5b82356001600160401b0380821115613cbc57600080fd5b613cc886838701613888565b93506020850135915080821115613cde57600080fd5b50613ceb85828601613888565b9150509250929050565b600060208284031215613d0757600080fd5b5035919050565b600060208284031215613d2057600080fd5b5051919050565b60008060408385031215613d3a57600080fd5b50508035926020909101359150565b60008060408385031215613d5c57600080fd5b82359150613a6e602084016138f7565b600080600060608486031215613d8157600080fd5b83359250613d91602085016138f7565b9150604084013590509250925092565b600060208284031215613db357600080fd5b611393826138f7565b60008060408385031215613dcf57600080fd5b613dd8836138f7565b91506020830135613de88161453b565b809150509250929050565b60008060008060008060008060008060006101608c8e031215613e1557600080fd5b613e1e8c6138f7565b9a5060208c0135613e2e8161453b565b995060408c0135613e3e8161453b565b985060608c0135613e4e8161453b565b975060808c0135965060a08c0135613e658161453b565b955060c08c0135613e758161453b565b945060e08c0135613e858161453b565b93506101008c0135613e968161453b565b92506101208c0135613ea78161453b565b91506101408c0135613eb88161453b565b809150509295989b509295989b9093969950565b600080600060608486031215613ee157600080fd5b613eea846138f7565b92506020840135613efa8161453b565b929592945050506040919091013590565b600080600080600060a08688031215613f2357600080fd5b613f2c86613913565b9450602086015193506040860151925060608601519150613f4f60808701613913565b90509295509295909350565b600060208284031215613f6d57600080fd5b815160ff8116811461139357600080fd5b600081518084526020808501945080840160005b8381101561363f5781516001600160a01b031687529582019590820190600101613f92565b60008151808452613fcf816020860160208601614453565b601f01601f19169290920160200192915050565b60008351613ff5818460208801614453565b835190830190614009818360208801614453565b01949350505050565b6001600160a01b0389811682526020820189905260408201889052861660608201526001600160e01b03198516608082015260a0810184905260c0810183905261010060e0820181905260009061406b83820185613fb7565b9b9a5050505050505050505050565b60018060a01b0384168152826020820152606060408201526000610dfe6060830184613fb7565b6020815260006113936020830184613f7e565b6020808252825182820181905260009190848201906040850190845b818110156140ec578351835292840192918401916001016140d0565b50909695505050505050565b6020815260006113936020830184613fb7565b60208082526030908201527f50726f706f7361626c654f776e61626c653a206e6577206f776e65722069732060408201526f746865207a65726f206164647265737360801b606082015260800190565b6020808252602b908201527f496e697469616c697a61626c653a20636f6e7472616374206973206e6f74206960408201526a6e697469616c697a696e6760a81b606082015260800190565b828152604060208201526000610c826040830184613f7e565b85815284602082015260a0604082015260006141de60a0830186613f7e565b6001600160a01b0394909416606083015250608001529392505050565b604051601f8201601f191681016001600160401b038111828210171561422357614223614525565b604052919050565b60006001600160401b0382111561424457614244614525565b5060051b60200190565b60008219821115614261576142616144e3565b500190565b600082614275576142756144f9565b500490565b600181815b808511156142b557816000190482111561429b5761429b6144e3565b808516156142a857918102915b93841c939080029061427f565b509250929050565b600061139383836142d4565b600061139360ff8416835b6000826142e357506001610cb1565b816142f057506000610cb1565b816001811461430657600281146143105761432c565b6001915050610cb1565b60ff841115614321576143216144e3565b50506001821b610cb1565b5060208310610133831016604e8410600b841016171561434f575081810a610cb1565b614359838361427a565b806000190482111561436d5761436d6144e3565b029392505050565b60006001600160ff1b038184138284138082168684048611161561439b5761439b6144e3565b600160ff1b60008712828116878305891216156143ba576143ba6144e3565b600087129250878205871284841616156143d6576143d66144e3565b878505871281841616156143ec576143ec6144e3565b505050929093029392505050565b6000816000190483118215151615614414576144146144e3565b500290565b60008282101561442b5761442b6144e3565b500390565b600060ff821660ff84168082101561444a5761444a6144e3565b90039392505050565b60005b8381101561446e578181015183820152602001614456565b8381111561211f5750506000910152565b600181811c9082168061449357607f821691505b60208210811415611d3457634e487b7160e01b600052602260045260246000fd5b60006000198214156144c8576144c86144e3565b5060010190565b6000826144de576144de6144f9565b500690565b634e487b7160e01b600052601160045260246000fd5b634e487b7160e01b600052601260045260246000fd5b634e487b7160e01b600052603260045260246000fd5b634e487b7160e01b600052604160045260246000fd5b6001600160a01b038116811461226657600080fdfe68747470733a2f2f6170702e6e65786c6162732e696f2f6170692f616c6c46756e64696e6752617465733f6d756c7469706c7946756e633d31382674696d65734e656746756e643d74727565266172726179733d74727565a264697066735822122007a2862556fc186485d2c48cc4e400129e09df2c40928cce0f5ead8f71c336eb64736f6c63430008070033","linkReferences":{}},"methodIdentifiers":{"allCurrentChainSelectorTokenShares(uint64)":"af696b34","allCurrentChainSelectorTokens(uint64)":"d1c68aa3","allCurrentChainSelectorVersions(uint64)":"221f3371","allOracleChainSelectorTokenShares(uint64)":"bf0d49c0","allOracleChainSelectorTokens(uint64)":"d050ca7c","allOracleChainSelectorVersions(uint64)":"a1adff88","concatenation(string,string)":"0e329357","crossChainFactoryBySelector(uint64)":"340fbc74","crossChainToken(uint64)":"19da7e2a","crossChainTokenSwapVersion(uint64,address)":"174cbe50","currentChainSelector()":"3d54cb6f","currentChainSelectorTokenShares(uint256,uint64,uint256)":"9f91affc","currentChainSelectorTokens(uint256,uint64,uint256)":"271b5fcc","currentChainSelectorTokensCount(uint64)":"b6ad185b","currentChainSelectorTotalShares(uint256,uint64)":"44fd376f","currentChainSelectorVersions(uint256,uint64,uint256)":"bb0ed513","currentChainSelectors(uint256,uint256)":"db561922","currentChainSelectorsCount()":"69487b1c","currentFilledCount()":"b90b8a2a","currentList(uint256)":"9932ba4c","estimateAmountOut(address,address,uint128)":"0456f9c8","externalJobId()":"a8b54bd4","factoryV2()":"68e0d4e1","factoryV3()":"1d5f45f5","feeRate()":"978bbdb9","fulfillAssetsData(bytes32,address[],uint256[],uint256[],uint64[])":"d1db5984","getAmountOut(address,address,uint256,uint256)":"13cb1f83","getPortfolioBalance()":"a8509fd8","indexFactory()":"e3fd0af2","indexFactoryBalancer()":"29d75de9","indexToken()":"e7d015f2","initialize(uint64,address,address,address,bytes32,address,address,address,address,address,address)":"9ebe560e","isCurrentChainSelectorStored(uint256,uint64)":"2585dd26","isOracleChainSelectorStored(uint256,uint64)":"3ff34ef4","lastUpdateTime()":"c8f33c91","latestFeeUpdate()":"011ced5f","mockFillAssetsList(address[],uint256[],uint256[],uint64[])":"d7eefdaa","mockUpdateCurrentList()":"4f9641b9","oracleChainSelectorTokenShares(uint256,uint64,uint256)":"9c8bbe8f","oracleChainSelectorTokens(uint256,uint64,uint256)":"bd96993c","oracleChainSelectorTokensCount(uint64)":"fc698b4a","oracleChainSelectorTotalShares(uint256,uint64)":"77b2688f","oracleChainSelectorVersions(uint256,uint64,uint256)":"cf095239","oracleChainSelectors(uint256,uint256)":"95a7e2b3","oracleChainSelectorsCount()":"8e9d7c18","oracleFilledCount()":"f1581787","oracleList(uint256)":"239aad0d","oraclePayment()":"0c02e130","owner()":"8da5cb5b","priceInWei()":"3c8da588","priceOracle()":"2630c12f","proposeOwner(address)":"b5ed298a","proposedOwner()":"d153b60c","quoter()":"c6bbd5a7","renounceOwnership()":"715018a6","requestAssetsData()":"7ca58c55","setCrossChainFactory(address,uint64)":"271040df","setCrossChainToken(uint64,address,uint256)":"195c4913","setIndexFactory(address)":"d047937f","setIndexFactoryBalancer(address)":"ae214f39","setPriceFeed(address)":"724e78da","setPriceOracle(address)":"530e784f","setUrl(string,string)":"a73e1cbf","swap(address,address,uint256,address,uint256)":"17d88f46","swapRouterV2()":"744fbc7a","swapRouterV3()":"b631e80b","toUsdPriceFeed()":"63973fda","tokenChainSelector(address)":"ea8ecf04","tokenCurrentListIndex(address)":"914f0cc6","tokenCurrentMarketShare(address)":"0be52713","tokenOracleListIndex(address)":"8c88c10c","tokenOracleMarketShare(address)":"4b3e0b80","tokenSwapVersion(address)":"d90bc211","totalCurrentChainSelectors()":"92e410ce","totalCurrentList()":"53fd4332","totalOracleChainSelectors()":"80acffa3","totalOracleList()":"c8599ded","transferOwnership(address)":"f2fde38b","updateCurrentList()":"8baa6bf1","weth()":"3fc8cef3"},"id":5}