{"abi":[{"type":"receive","stateMutability":"payable"},{"type":"function","name":"DAI","inputs":[],"outputs":[{"name":"","type":"address","internalType":"address"}],"stateMutability":"view"},{"type":"function","name":"USDC","inputs":[],"outputs":[{"name":"","type":"address","internalType":"address"}],"stateMutability":"view"},{"type":"function","name":"WETH9","inputs":[],"outputs":[{"name":"","type":"address","internalType":"address"}],"stateMutability":"view"},{"type":"function","name":"dai","inputs":[],"outputs":[{"name":"","type":"address","internalType":"contract ERC20"}],"stateMutability":"view"},{"type":"function","name":"deposit","inputs":[{"name":"amount","type":"uint256","internalType":"uint256"}],"outputs":[],"stateMutability":"nonpayable"},{"type":"function","name":"swapRouter","inputs":[],"outputs":[{"name":"","type":"address","internalType":"contract ISwapRouter"}],"stateMutability":"view"},{"type":"function","name":"weth","inputs":[],"outputs":[{"name":"","type":"address","internalType":"contract IWETH"}],"stateMutability":"view"}],"bytecode":{"object":"0x6080604052736b175474e89094c44da98b954eedeac495271d0f6000806101000a81548173ffffffffffffffffffffffffffffffffffffffff021916908373ffffffffffffffffffffffffffffffffffffffff16021790555073c02aaa39b223fe8d0a0e5c4f27ead9083c756cc2600160006101000a81548173ffffffffffffffffffffffffffffffffffffffff021916908373ffffffffffffffffffffffffffffffffffffffff1602179055503480156100b957600080fd5b50610923806100c96000396000f3fe6080604052600436106100745760003560e01c8063b6b55f251161004e578063b6b55f2514610101578063c31c9c071461012a578063e0bab4c414610155578063f4b9fa75146101805761007b565b80633fc8cef3146100805780634aa4a4fc146100ab57806389a30271146100d65761007b565b3661007b57005b600080fd5b34801561008c57600080fd5b506100956101ab565b6040516100a291906107d2565b60405180910390f35b3480156100b757600080fd5b506100c06101d1565b6040516100cd9190610721565b60405180910390f35b3480156100e257600080fd5b506100eb6101e9565b6040516100f89190610721565b60405180910390f35b34801561010d57600080fd5b506101286004803603810190610123919061059e565b610201565b005b34801561013657600080fd5b5061013f6104de565b60405161014c91906107b7565b60405180910390f35b34801561016157600080fd5b5061016a6104f6565b6040516101779190610721565b60405180910390f35b34801561018c57600080fd5b5061019561050e565b6040516101a2919061079c565b60405180910390f35b600160009054906101000a900473ffffffffffffffffffffffffffffffffffffffff1681565b73c02aaa39b223fe8d0a0e5c4f27ead9083c756cc281565b73a0b86991c6218b36c1d19d4a2e9eb0ce3606eb4881565b60008054906101000a900473ffffffffffffffffffffffffffffffffffffffff1673ffffffffffffffffffffffffffffffffffffffff166323b872dd3330846040518463ffffffff1660e01b815260040161025e9392919061073c565b602060405180830381600087803b15801561027857600080fd5b505af115801561028c573d6000803e3d6000fd5b505050506040513d601f19601f820116820180604052508101906102b09190610571565b5060008054906101000a900473ffffffffffffffffffffffffffffffffffffffff1673ffffffffffffffffffffffffffffffffffffffff1663095ea7b373e592427a0aece92de3edee1f18e0157c05861564836040518363ffffffff1660e01b8152600401610320929190610773565b602060405180830381600087803b15801561033a57600080fd5b505af115801561034e573d6000803e3d6000fd5b505050506040513d601f19601f820116820180604052508101906103729190610571565b506000604051806101000160405280736b175474e89094c44da98b954eedeac495271d0f73ffffffffffffffffffffffffffffffffffffffff16815260200173c02aaa39b223fe8d0a0e5c4f27ead9083c756cc273ffffffffffffffffffffffffffffffffffffffff168152602001610bb862ffffff1681526020013073ffffffffffffffffffffffffffffffffffffffff16815260200142815260200183815260200160008152602001600073ffffffffffffffffffffffffffffffffffffffff16815250905073e592427a0aece92de3edee1f18e0157c0586156473ffffffffffffffffffffffffffffffffffffffff1663414bf389826040518263ffffffff1660e01b815260040161048791906107ed565b602060405180830381600087803b1580156104a157600080fd5b505af11580156104b5573d6000803e3d6000fd5b505050506040513d601f19601f820116820180604052508101906104d991906105cb565b505050565b73e592427a0aece92de3edee1f18e0157c0586156481565b736b175474e89094c44da98b954eedeac495271d0f81565b60008054906101000a900473ffffffffffffffffffffffffffffffffffffffff1681565b600081519050610541816108bf565b92915050565b600081359050610556816108d6565b92915050565b60008151905061056b816108d6565b92915050565b600060208284031215610587576105866108ba565b5b600061059584828501610532565b91505092915050565b6000602082840312156105b4576105b36108ba565b5b60006105c284828501610547565b91505092915050565b6000602082840312156105e1576105e06108ba565b5b60006105ef8482850161055c565b91505092915050565b61060181610809565b82525050565b61061081610809565b82525050565b61061f81610860565b82525050565b61062e81610872565b82525050565b61063d81610884565b82525050565b6101008201600082015161065a60008501826105f8565b50602082015161066d60208501826105f8565b50604082015161068060408501826106f4565b50606082015161069360608501826105f8565b5060808201516106a66080850182610703565b5060a08201516106b960a0850182610703565b5060c08201516106cc60c0850182610703565b5060e08201516106df60e08501826106e5565b50505050565b6106ee81610827565b82525050565b6106fd81610847565b82525050565b61070c81610856565b82525050565b61071b81610856565b82525050565b60006020820190506107366000830184610607565b92915050565b60006060820190506107516000830186610607565b61075e6020830185610607565b61076b6040830184610712565b949350505050565b60006040820190506107886000830185610607565b6107956020830184610712565b9392505050565b60006020820190506107b16000830184610616565b92915050565b60006020820190506107cc6000830184610625565b92915050565b60006020820190506107e76000830184610634565b92915050565b6000610100820190506108036000830184610643565b92915050565b600061081482610827565b9050919050565b60008115159050919050565b600073ffffffffffffffffffffffffffffffffffffffff82169050919050565b600062ffffff82169050919050565b6000819050919050565b600061086b82610896565b9050919050565b600061087d82610896565b9050919050565b600061088f82610896565b9050919050565b60006108a1826108a8565b9050919050565b60006108b382610827565b9050919050565b600080fd5b6108c88161081b565b81146108d357600080fd5b50565b6108df81610856565b81146108ea57600080fd5b5056fea2646970667358221220e6ae0bdde52b26dc27946deb9c865591e548efabd3619ee108827bd12091607364736f6c63430008070033","linkReferences":{}},"methodIdentifiers":{"DAI()":"e0bab4c4","USDC()":"89a30271","WETH9()":"4aa4a4fc","dai()":"f4b9fa75","deposit(uint256)":"b6b55f25","swapRouter()":"c31c9c07","weth()":"3fc8cef3"},"id":28}