{"abi":[{"type":"receive","stateMutability":"payable"},{"type":"function","name":"DAI","inputs":[],"outputs":[{"name":"","type":"address","internalType":"address"}],"stateMutability":"view"},{"type":"function","name":"USDC","inputs":[],"outputs":[{"name":"","type":"address","internalType":"address"}],"stateMutability":"view"},{"type":"function","name":"WETH9","inputs":[],"outputs":[{"name":"","type":"address","internalType":"address"}],"stateMutability":"view"},{"type":"function","name":"dai","inputs":[],"outputs":[{"name":"","type":"address","internalType":"contract ERC20"}],"stateMutability":"view"},{"type":"function","name":"deposit","inputs":[{"name":"amount","type":"uint256","internalType":"uint256"}],"outputs":[],"stateMutability":"nonpayable"},{"type":"function","name":"swapRouter","inputs":[],"outputs":[{"name":"","type":"address","internalType":"contract ISwapRouter"}],"stateMutability":"view"},{"type":"function","name":"weth","inputs":[],"outputs":[{"name":"","type":"address","internalType":"contract IWETH"}],"stateMutability":"view"}],"bytecode":{"object":"0x6080604052600080546001600160a01b0319908116736b175474e89094c44da98b954eedeac495271d0f179091556001805490911673c02aaa39b223fe8d0a0e5c4f27ead9083c756cc2179055348015605757600080fd5b50610494806100676000396000f3fe6080604052600436106100745760003560e01c8063b6b55f251161004e578063b6b55f251461010c578063c31c9c071461012e578063e0bab4c414610156578063f4b9fa751461017e57600080fd5b80633fc8cef3146100805780634aa4a4fc146100bc57806389a30271146100e457600080fd5b3661007b57005b600080fd5b34801561008c57600080fd5b506001546100a0906001600160a01b031681565b6040516001600160a01b03909116815260200160405180910390f35b3480156100c857600080fd5b506100a073c02aaa39b223fe8d0a0e5c4f27ead9083c756cc281565b3480156100f057600080fd5b506100a073a0b86991c6218b36c1d19d4a2e9eb0ce3606eb4881565b34801561011857600080fd5b5061012c610127366004610386565b61019e565b005b34801561013a57600080fd5b506100a073e592427a0aece92de3edee1f18e0157c0586156481565b34801561016257600080fd5b506100a0736b175474e89094c44da98b954eedeac495271d0f81565b34801561018a57600080fd5b506000546100a0906001600160a01b031681565b6000546040516323b872dd60e01b8152336004820152306024820152604481018390526001600160a01b03909116906323b872dd906064016020604051808303816000875af11580156101f5573d6000803e3d6000fd5b505050506040513d601f19601f82011682018060405250810190610219919061039f565b5060005460405163095ea7b360e01b815273e592427a0aece92de3edee1f18e0157c058615646004820152602481018390526001600160a01b039091169063095ea7b3906044016020604051808303816000875af115801561027f573d6000803e3d6000fd5b505050506040513d601f19601f820116820180604052508101906102a3919061039f565b506040805161010081018252736b175474e89094c44da98b954eedeac495271d0f815273c02aaa39b223fe8d0a0e5c4f27ead9083c756cc26020820152610bb88183015230606082015242608082015260a08101839052600060c0820181905260e0820152905163414bf38960e01b815273e592427a0aece92de3edee1f18e0157c058615649063414bf3899061033e9084906004016103c8565b6020604051808303816000875af115801561035d573d6000803e3d6000fd5b505050506040513d601f19601f820116820180604052508101906103819190610445565b505050565b60006020828403121561039857600080fd5b5035919050565b6000602082840312156103b157600080fd5b815180151581146103c157600080fd5b9392505050565b81516001600160a01b03908116825260208084015182169083015260408084015162ffffff169083015260608084015191821690830152610100820190506080830151608083015260a083015160a083015260c083015160c083015260e083015161043e60e08401826001600160a01b03169052565b5092915050565b60006020828403121561045757600080fd5b505191905056fea2646970667358221220f36ef0645536ead2088278d654a4f5215e68331b558ae57dbd445ee51a4c772864736f6c634300081a0033","linkReferences":{}},"methodIdentifiers":{"DAI()":"e0bab4c4","USDC()":"89a30271","WETH9()":"4aa4a4fc","dai()":"f4b9fa75","deposit(uint256)":"b6b55f25","swapRouter()":"c31c9c07","weth()":"3fc8cef3"},"id":29}