{"abi":[{"type":"function","name":"ANY_2_EVM_MESSAGE_FIXED_BYTES","inputs":[],"outputs":[{"name":"","type":"uint256","internalType":"uint256"}],"stateMutability":"view"},{"type":"function","name":"ANY_2_EVM_MESSAGE_FIXED_BYTES_PER_TOKEN","inputs":[],"outputs":[{"name":"","type":"uint256","internalType":"uint256"}],"stateMutability":"view"},{"type":"function","name":"CHAIN_FAMILY_SELECTOR_EVM","inputs":[],"outputs":[{"name":"","type":"bytes4","internalType":"bytes4"}],"stateMutability":"view"},{"type":"function","name":"GAS_PRICE_BITS","inputs":[],"outputs":[{"name":"","type":"uint8","internalType":"uint8"}],"stateMutability":"view"},{"type":"function","name":"MESSAGE_FIXED_BYTES","inputs":[],"outputs":[{"name":"","type":"uint256","internalType":"uint256"}],"stateMutability":"view"},{"type":"function","name":"MESSAGE_FIXED_BYTES_PER_TOKEN","inputs":[],"outputs":[{"name":"","type":"uint256","internalType":"uint256"}],"stateMutability":"view"},{"type":"function","name":"PRECOMPILE_SPACE","inputs":[],"outputs":[{"name":"","type":"uint256","internalType":"uint256"}],"stateMutability":"view"},{"type":"error","name":"InvalidEVMAddress","inputs":[{"name":"encodedAddress","type":"bytes","internalType":"bytes"}]}],"bytecode":{"object":"0x610120610034600b8282823980515f1a607314602857634e487b7160e01b5f525f60045260245ffd5b305f52607381538281f3fe7300000000000000000000000000000000000000003014608060405260043610606e575f3560e01c806318994e7a146072578063424fb7a714608d578063514abc101460955780637a4bb23214609d578063dc47c58b1460b5578063e5fb56521460bd578063fb633e9c1460c5575b5f80fd5b607a61022081565b6040519081526020015b60405180910390f35b607a61012081565b607a6101c081565b60a4607081565b60405160ff90911681526020016084565b607a61018081565b607a61040081565b60d2630a04b54b60e21b81565b6040516001600160e01b03199091168152602001608456fea2646970667358221220e5c9efb1ce1233efe663f835bda501468868e3286d9dc7d5d86a486d912865da64736f6c634300081a0033","linkReferences":{}},"methodIdentifiers":{"ANY_2_EVM_MESSAGE_FIXED_BYTES()":"514abc10","ANY_2_EVM_MESSAGE_FIXED_BYTES_PER_TOKEN()":"424fb7a7","CHAIN_FAMILY_SELECTOR_EVM()":"fb633e9c","GAS_PRICE_BITS()":"7a4bb232","MESSAGE_FIXED_BYTES()":"18994e7a","MESSAGE_FIXED_BYTES_PER_TOKEN()":"dc47c58b","PRECOMPILE_SPACE()":"e5fb5652"},"id":79}