{"abi":[{"type":"function","name":"ANY_2_EVM_MESSAGE_FIXED_BYTES","inputs":[],"outputs":[{"name":"","type":"uint256","internalType":"uint256"}],"stateMutability":"view"},{"type":"function","name":"ANY_2_EVM_MESSAGE_FIXED_BYTES_PER_TOKEN","inputs":[],"outputs":[{"name":"","type":"uint256","internalType":"uint256"}],"stateMutability":"view"},{"type":"function","name":"CHAIN_FAMILY_SELECTOR_EVM","inputs":[],"outputs":[{"name":"","type":"bytes4","internalType":"bytes4"}],"stateMutability":"view"},{"type":"function","name":"GAS_PRICE_BITS","inputs":[],"outputs":[{"name":"","type":"uint8","internalType":"uint8"}],"stateMutability":"view"},{"type":"function","name":"MESSAGE_FIXED_BYTES","inputs":[],"outputs":[{"name":"","type":"uint256","internalType":"uint256"}],"stateMutability":"view"},{"type":"function","name":"MESSAGE_FIXED_BYTES_PER_TOKEN","inputs":[],"outputs":[{"name":"","type":"uint256","internalType":"uint256"}],"stateMutability":"view"},{"type":"function","name":"PRECOMPILE_SPACE","inputs":[],"outputs":[{"name":"","type":"uint256","internalType":"uint256"}],"stateMutability":"view"},{"type":"error","name":"InvalidEVMAddress","inputs":[{"name":"encodedAddress","type":"bytes","internalType":"bytes"}]}],"bytecode":{"object":"0x610283610052600b82828239805160001a6073146045577f4e487b7100000000000000000000000000000000000000000000000000000000600052600060045260246000fd5b30600052607381538281f3fe73000000000000000000000000000000000000000030146080604052600436106100875760003560e01c80637a4bb232116100655780637a4bb232146100e6578063dc47c58b14610104578063e5fb565214610122578063fb633e9c1461014057610087565b806318994e7a1461008c578063424fb7a7146100aa578063514abc10146100c8575b600080fd5b61009461015e565b6040516100a191906101a5565b60405180910390f35b6100b2610164565b6040516100bf91906101a5565b60405180910390f35b6100d061016a565b6040516100dd91906101a5565b60405180910390f35b6100ee610170565b6040516100fb91906101dc565b60405180910390f35b61010c610175565b60405161011991906101a5565b60405180910390f35b61012a61017b565b60405161013791906101a5565b60405180910390f35b610148610181565b6040516101559190610232565b60405180910390f35b61022081565b61012081565b6101c081565b607081565b61018081565b61040081565b632812d52c60e01b81565b6000819050919050565b61019f8161018c565b82525050565b60006020820190506101ba6000830184610196565b92915050565b600060ff82169050919050565b6101d6816101c0565b82525050565b60006020820190506101f160008301846101cd565b92915050565b60007fffffffff0000000000000000000000000000000000000000000000000000000082169050919050565b61022c816101f7565b82525050565b60006020820190506102476000830184610223565b9291505056fea26469706673582212208f31b9be01efc763aacdd2f7febacf49b1830e5c9dcaf53bd9ceb28a3e1bf8e464736f6c634300081a0033","linkReferences":{}},"methodIdentifiers":{"ANY_2_EVM_MESSAGE_FIXED_BYTES()":"514abc10","ANY_2_EVM_MESSAGE_FIXED_BYTES_PER_TOKEN()":"424fb7a7","CHAIN_FAMILY_SELECTOR_EVM()":"fb633e9c","GAS_PRICE_BITS()":"7a4bb232","MESSAGE_FIXED_BYTES()":"18994e7a","MESSAGE_FIXED_BYTES_PER_TOKEN()":"dc47c58b","PRECOMPILE_SPACE()":"e5fb5652"},"id":76}