{"abi":[{"type":"receive","stateMutability":"payable"},{"type":"function","name":"ccipReceive","inputs":[{"name":"message","type":"tuple","internalType":"struct Client.Any2EVMMessage","components":[{"name":"messageId","type":"bytes32","internalType":"bytes32"},{"name":"sourceChainSelector","type":"uint64","internalType":"uint64"},{"name":"sender","type":"bytes","internalType":"bytes"},{"name":"data","type":"bytes","internalType":"bytes"},{"name":"destTokenAmounts","type":"tuple[]","internalType":"struct Client.EVMTokenAmount[]","components":[{"name":"token","type":"address","internalType":"address"},{"name":"amount","type":"uint256","internalType":"uint256"}]}]}],"outputs":[],"stateMutability":"nonpayable"},{"type":"function","name":"convertEthToUsd","inputs":[{"name":"_ethAmount","type":"uint256","internalType":"uint256"}],"outputs":[{"name":"","type":"uint256","internalType":"uint256"}],"stateMutability":"view"},{"type":"function","name":"crossChainToken","inputs":[{"name":"","type":"uint64","internalType":"uint64"}],"outputs":[{"name":"","type":"address","internalType":"address"}],"stateMutability":"view"},{"type":"function","name":"crossChainTokenSwapFee","inputs":[{"name":"","type":"uint64","internalType":"uint64"},{"name":"","type":"address","internalType":"address"}],"outputs":[{"name":"","type":"uint24","internalType":"uint24"}],"stateMutability":"view"},{"type":"function","name":"currentChainSelector","inputs":[],"outputs":[{"name":"","type":"uint64","internalType":"uint64"}],"stateMutability":"view"},{"type":"function","name":"estimateAmountOut","inputs":[{"name":"tokenIn","type":"address","internalType":"address"},{"name":"tokenOut","type":"address","internalType":"address"},{"name":"amountIn","type":"uint128","internalType":"uint128"},{"name":"secondsAgo","type":"uint32","internalType":"uint32"}],"outputs":[{"name":"amountOut","type":"uint256","internalType":"uint256"}],"stateMutability":"view"},{"type":"function","name":"factoryV3","inputs":[],"outputs":[{"name":"","type":"address","internalType":"contract IUniswapV3Factory"}],"stateMutability":"view"},{"type":"function","name":"fee","inputs":[],"outputs":[{"name":"","type":"uint256","internalType":"uint256"}],"stateMutability":"view"},{"type":"function","name":"feeRate","inputs":[],"outputs":[{"name":"","type":"uint8","internalType":"uint8"}],"stateMutability":"view"},{"type":"function","name":"feeRatePerDayScaled","inputs":[],"outputs":[{"name":"","type":"uint256","internalType":"uint256"}],"stateMutability":"view"},{"type":"function","name":"feeReceiver","inputs":[],"outputs":[{"name":"","type":"address","internalType":"address"}],"stateMutability":"view"},{"type":"function","name":"feeTimestamp","inputs":[],"outputs":[{"name":"","type":"uint256","internalType":"uint256"}],"stateMutability":"view"},{"type":"function","name":"getAmountOut","inputs":[{"name":"tokenIn","type":"address","internalType":"address"},{"name":"tokenOut","type":"address","internalType":"address"},{"name":"amountIn","type":"uint256","internalType":"uint256"},{"name":"_swapFee","type":"uint256","internalType":"uint256"}],"outputs":[{"name":"finalAmountOut","type":"uint256","internalType":"uint256"}],"stateMutability":"view"},{"type":"function","name":"getPendingRequest","inputs":[{"name":"requestId","type":"bytes32","internalType":"bytes32"}],"outputs":[{"name":"","type":"address","internalType":"address"}],"stateMutability":"view"},{"type":"function","name":"getRouter","inputs":[],"outputs":[{"name":"","type":"address","internalType":"address"}],"stateMutability":"view"},{"type":"function","name":"i_link","inputs":[],"outputs":[{"name":"","type":"address","internalType":"address"}],"stateMutability":"view"},{"type":"function","name":"i_maxTokensLength","inputs":[],"outputs":[{"name":"","type":"uint16","internalType":"uint16"}],"stateMutability":"view"},{"type":"function","name":"initialize","inputs":[{"name":"_currentChainSelector","type":"uint64","internalType":"uint64"},{"name":"_vault","type":"address","internalType":"address payable"},{"name":"_chainlinkToken","type":"address","internalType":"address"},{"name":"_router","type":"address","internalType":"address"},{"name":"_weth","type":"address","internalType":"address"},{"name":"_swapRouterV3","type":"address","internalType":"address"},{"name":"_factoryV3","type":"address","internalType":"address"},{"name":"_swapRouterV2","type":"address","internalType":"address"},{"name":"_toUsdPriceFeed","type":"address","internalType":"address"}],"outputs":[],"stateMutability":"nonpayable"},{"type":"function","name":"isRestricted","inputs":[{"name":"","type":"address","internalType":"address"}],"outputs":[{"name":"","type":"bool","internalType":"bool"}],"stateMutability":"view"},{"type":"function","name":"issuanceCompletedTokensCount","inputs":[{"name":"","type":"uint256","internalType":"uint256"}],"outputs":[{"name":"","type":"uint256","internalType":"uint256"}],"stateMutability":"view"},{"type":"function","name":"issuanceMessageIdByNonce","inputs":[{"name":"","type":"uint256","internalType":"uint256"}],"outputs":[{"name":"","type":"bytes32","internalType":"bytes32"}],"stateMutability":"view"},{"type":"function","name":"issuanceTokenOldAndNewValues","inputs":[{"name":"","type":"uint256","internalType":"uint256"},{"name":"","type":"address","internalType":"address"}],"outputs":[{"name":"oldTokenValue","type":"uint256","internalType":"uint256"},{"name":"newTokenValue","type":"uint256","internalType":"uint256"}],"stateMutability":"view"},{"type":"function","name":"latestFeeUpdate","inputs":[],"outputs":[{"name":"","type":"uint256","internalType":"uint256"}],"stateMutability":"view"},{"type":"function","name":"messageDetail","inputs":[{"name":"","type":"bytes32","internalType":"bytes32"}],"outputs":[{"name":"sourceChainSelector","type":"uint64","internalType":"uint64"},{"name":"sender","type":"address","internalType":"address"},{"name":"message","type":"string","internalType":"string"},{"name":"token","type":"address","internalType":"address"},{"name":"amount","type":"uint256","internalType":"uint256"}],"stateMutability":"view"},{"type":"function","name":"methodologist","inputs":[],"outputs":[{"name":"","type":"address","internalType":"address"}],"stateMutability":"view"},{"type":"function","name":"methodology","inputs":[],"outputs":[{"name":"","type":"string","internalType":"string"}],"stateMutability":"view"},{"type":"function","name":"minter","inputs":[],"outputs":[{"name":"","type":"address","internalType":"address"}],"stateMutability":"view"},{"type":"function","name":"oraclePayment","inputs":[],"outputs":[{"name":"","type":"uint256","internalType":"uint256"}],"stateMutability":"view"},{"type":"function","name":"owner","inputs":[],"outputs":[{"name":"","type":"address","internalType":"address"}],"stateMutability":"view"},{"type":"function","name":"pause","inputs":[],"outputs":[],"stateMutability":"nonpayable"},{"type":"function","name":"paused","inputs":[],"outputs":[{"name":"","type":"bool","internalType":"bool"}],"stateMutability":"view"},{"type":"function","name":"priceInWei","inputs":[],"outputs":[{"name":"","type":"uint256","internalType":"uint256"}],"stateMutability":"view"},{"type":"function","name":"priceOracle","inputs":[],"outputs":[{"name":"","type":"address","internalType":"address"}],"stateMutability":"view"},{"type":"function","name":"proposeOwner","inputs":[{"name":"_proposedOwner","type":"address","internalType":"address"}],"outputs":[],"stateMutability":"nonpayable"},{"type":"function","name":"proposedOwner","inputs":[],"outputs":[{"name":"","type":"address","internalType":"address"}],"stateMutability":"view"},{"type":"function","name":"quoter","inputs":[],"outputs":[{"name":"","type":"address","internalType":"contract IQuoter"}],"stateMutability":"view"},{"type":"function","name":"receivedMessages","inputs":[{"name":"","type":"uint256","internalType":"uint256"}],"outputs":[{"name":"","type":"bytes32","internalType":"bytes32"}],"stateMutability":"view"},{"type":"function","name":"redemptionMessageIdByNonce","inputs":[{"name":"","type":"uint256","internalType":"uint256"}],"outputs":[{"name":"","type":"bytes32","internalType":"bytes32"}],"stateMutability":"view"},{"type":"function","name":"renounceOwnership","inputs":[],"outputs":[],"stateMutability":"nonpayable"},{"type":"function","name":"sendMessage","inputs":[{"name":"destinationChainSelector","type":"uint64","internalType":"uint64"},{"name":"receiver","type":"address","internalType":"address"},{"name":"_data","type":"bytes","internalType":"bytes"},{"name":"payFeesIn","type":"uint8","internalType":"enum CrossChainIndexFactory.PayFeesIn"}],"outputs":[{"name":"","type":"bytes32","internalType":"bytes32"}],"stateMutability":"nonpayable"},{"type":"function","name":"setCcipRouter","inputs":[{"name":"_router","type":"address","internalType":"address"}],"outputs":[],"stateMutability":"nonpayable"},{"type":"function","name":"setCrossChainToken","inputs":[{"name":"_chainSelector","type":"uint64","internalType":"uint64"},{"name":"_crossChainToken","type":"address","internalType":"address"},{"name":"_swapFee","type":"uint24","internalType":"uint24"}],"outputs":[],"stateMutability":"nonpayable"},{"type":"function","name":"setPriceOracle","inputs":[{"name":"_priceOracle","type":"address","internalType":"address"}],"outputs":[],"stateMutability":"nonpayable"},{"type":"function","name":"setVault","inputs":[{"name":"_vault","type":"address","internalType":"address payable"}],"outputs":[],"stateMutability":"nonpayable"},{"type":"function","name":"sourceChainSelectorF","inputs":[],"outputs":[{"name":"","type":"uint64","internalType":"uint64"}],"stateMutability":"view"},{"type":"function","name":"supplyCeiling","inputs":[],"outputs":[{"name":"","type":"uint256","internalType":"uint256"}],"stateMutability":"view"},{"type":"function","name":"supportsInterface","inputs":[{"name":"interfaceId","type":"bytes4","internalType":"bytes4"}],"outputs":[{"name":"","type":"bool","internalType":"bool"}],"stateMutability":"pure"},{"type":"function","name":"swap","inputs":[{"name":"tokenIn","type":"address","internalType":"address"},{"name":"tokenOut","type":"address","internalType":"address"},{"name":"amountIn","type":"uint256","internalType":"uint256"},{"name":"_recipient","type":"address","internalType":"address"},{"name":"_swapFee","type":"uint24","internalType":"uint24"}],"outputs":[{"name":"outputAmount","type":"uint256","internalType":"uint256"}],"stateMutability":"nonpayable"},{"type":"function","name":"swapRouterV2","inputs":[],"outputs":[{"name":"","type":"address","internalType":"contract IUniswapV2Router02"}],"stateMutability":"view"},{"type":"function","name":"swapRouterV3","inputs":[],"outputs":[{"name":"","type":"address","internalType":"contract ISwapRouter"}],"stateMutability":"view"},{"type":"function","name":"toUsdPriceFeed","inputs":[],"outputs":[{"name":"","type":"address","internalType":"contract AggregatorV3Interface"}],"stateMutability":"view"},{"type":"function","name":"transferOwnership","inputs":[{"name":"newOwner","type":"address","internalType":"address"}],"outputs":[],"stateMutability":"nonpayable"},{"type":"function","name":"unpause","inputs":[],"outputs":[],"stateMutability":"nonpayable"},{"type":"function","name":"vault","inputs":[],"outputs":[{"name":"","type":"address","internalType":"contract Vault"}],"stateMutability":"view"},{"type":"function","name":"weth","inputs":[],"outputs":[{"name":"","type":"address","internalType":"contract IWETH"}],"stateMutability":"view"},{"type":"event","name":"ChainlinkCancelled","inputs":[{"name":"id","type":"bytes32","indexed":true,"internalType":"bytes32"}],"anonymous":false},{"type":"event","name":"ChainlinkFulfilled","inputs":[{"name":"id","type":"bytes32","indexed":true,"internalType":"bytes32"}],"anonymous":false},{"type":"event","name":"ChainlinkRequested","inputs":[{"name":"id","type":"bytes32","indexed":true,"internalType":"bytes32"}],"anonymous":false},{"type":"event","name":"Initialized","inputs":[{"name":"version","type":"uint8","indexed":false,"internalType":"uint8"}],"anonymous":false},{"type":"event","name":"Issuanced","inputs":[{"name":"messageId","type":"bytes32","indexed":true,"internalType":"bytes32"},{"name":"nonce","type":"uint256","indexed":true,"internalType":"uint256"},{"name":"time","type":"uint256","indexed":false,"internalType":"uint256"}],"anonymous":false},{"type":"event","name":"MessageSent","inputs":[{"name":"messageId","type":"bytes32","indexed":false,"internalType":"bytes32"}],"anonymous":false},{"type":"event","name":"OwnershipTransferred","inputs":[{"name":"previousOwner","type":"address","indexed":true,"internalType":"address"},{"name":"newOwner","type":"address","indexed":true,"internalType":"address"}],"anonymous":false},{"type":"event","name":"Paused","inputs":[{"name":"account","type":"address","indexed":false,"internalType":"address"}],"anonymous":false},{"type":"event","name":"Redemption","inputs":[{"name":"messageId","type":"bytes32","indexed":true,"internalType":"bytes32"},{"name":"nonce","type":"uint256","indexed":true,"internalType":"uint256"},{"name":"time","type":"uint256","indexed":false,"internalType":"uint256"}],"anonymous":false},{"type":"event","name":"Unpaused","inputs":[{"name":"account","type":"address","indexed":false,"internalType":"address"}],"anonymous":false},{"type":"error","name":"InvalidRouter","inputs":[{"name":"router","type":"address","internalType":"address"}]}],"bytecode":{"object":"0x6080604052348015600e575f80fd5b5061483d8061001c5f395ff3fe608060405260043610610344575f3560e01c80637e79f512116101bd578063b5ed298a116100f2578063d030366c11610092578063f0cd5b721161006d578063f0cd5b7214610a56578063f2fde38b14610a75578063fbfa77cf14610a94578063ff5474f014610ab3575f80fd5b8063d030366c14610a03578063d153b60c14610a22578063ddca3f4314610a41575f80fd5b8063bf938db8116100cd578063bf938db814610978578063c01bc98214610997578063c086381e146109c5578063c6bbd5a7146109e4575f80fd5b8063b5ed298a1461091b578063b631e80b1461093a578063bcab90b314610959575f80fd5b8063940373691161015d5780639eeb1d50116101385780639eeb1d501461089a5780639f8e67bf146108bb578063b0f479a1146108da578063b3f00674146108fc575f80fd5b80639403736914610814578063978bbdb91461083f5780639c3ddb2e1461086a575f80fd5b806385572ffb1161019857806385572ffb1461077957806388b12d55146107985780638da5cb5b146107cc5780639121c717146107e9575f80fd5b80637e79f512146106f457806381b15279146107135780638456cb5914610765575f80fd5b8063306b3a28116102935780635c975abb116102335780636817031b1161020e5780636817031b14610683578063715018a6146106a2578063744fbc7a146106b65780637d253aff146106d5575f80fd5b80635c975abb146105fe57806363973fda14610615578063652354ae14610634575f80fd5b80633f4ba83a1161026e5780633f4ba83a146105785780633fc8cef31461058c578063530e784f146105ab5780635b6a0351146105ca575f80fd5b8063306b3a28146105025780633c8da5881461052d5780633d54cb6f14610541575f80fd5b8063184a732f116102fe5780632630c12f116102d95780632630c12f1461049a57806327bf9b44146104b95780632b52684d146104d85780632fecd589146104ed575f80fd5b8063184a732f1461043257806319da7e2a146104475780631d5f45f51461047b575f80fd5b8063011ced5f1461034f57806301ffc9a71461037757806307546172146103a65780630c02e130146103dd57806313cb1f83146103f257806317c27b7614610411575f80fd5b3661034b57005b5f80fd5b34801561035a575f80fd5b5061036460d65481565b6040519081526020015b60405180910390f35b348015610382575f80fd5b5061039661039136600461398a565b610ad2565b604051901515815260200161036e565b3480156103b1575f80fd5b5060dd546103c5906001600160a01b031681565b6040516001600160a01b03909116815260200161036e565b3480156103e8575f80fd5b5061036460e15481565b3480156103fd575f80fd5b5061036461040c3660046139c5565b610b08565b34801561041c575f80fd5b5061043061042b366004613a23565b610c40565b005b34801561043d575f80fd5b5061036460d95481565b348015610452575f80fd5b506103c5610461366004613ad7565b60e86020525f90815260409020546001600160a01b031681565b348015610486575f80fd5b5060e4546103c5906001600160a01b031681565b3480156104a5575f80fd5b5060dc546103c5906001600160a01b031681565b3480156104c4575f80fd5b506104306104d3366004613af0565b610ec9565b3480156104e3575f80fd5b5061036460df5481565b3480156104f8575f80fd5b5061036460d85481565b34801561050d575f80fd5b5061036461051c366004613b0b565b60ee6020525f908152604090205481565b348015610538575f80fd5b50610364610efa565b34801561054c575f80fd5b5060d754610560906001600160401b031681565b6040516001600160401b03909116815260200161036e565b348015610583575f80fd5b50610430611000565b348015610597575f80fd5b5060e6546103c5906001600160a01b031681565b3480156105b6575f80fd5b506104306105c5366004613af0565b611012565b3480156105d5575f80fd5b5060d0546105eb90600160a01b900461ffff1681565b60405161ffff909116815260200161036e565b348015610609575f80fd5b50609e5460ff16610396565b348015610620575f80fd5b5060e2546103c5906001600160a01b031681565b34801561063f575f80fd5b5061066f61064e366004613b22565b60e960209081525f928352604080842090915290825290205462ffffff1681565b60405162ffffff909116815260200161036e565b34801561068e575f80fd5b5061043061069d366004613af0565b6110a6565b3480156106ad575f80fd5b506104306110d0565b3480156106c1575f80fd5b5060e5546103c5906001600160a01b031681565b3480156106e0575f80fd5b5060d0546103c5906001600160a01b031681565b3480156106ff575f80fd5b5061036461070e366004613b69565b6110e1565b34801561071e575f80fd5b5061075061072d366004613bc9565b60ec60209081525f92835260408084209091529082529020805460019091015482565b6040805192835260208301919091520161036e565b348015610770575f80fd5b5061043061110e565b348015610784575f80fd5b50610430610793366004613bec565b61111e565b3480156107a3575f80fd5b506103c56107b2366004613b0b565b5f908152600660205260409020546001600160a01b031690565b3480156107d7575f80fd5b506039546001600160a01b03166103c5565b3480156107f4575f80fd5b50610364610803366004613b0b565b60ef6020525f908152604090205481565b34801561081f575f80fd5b5061036461082e366004613b0b565b60ed6020525f908152604090205481565b34801561084a575f80fd5b5060d5546108589060ff1681565b60405160ff909116815260200161036e565b348015610875575f80fd5b50610889610884366004613b0b565b611164565b60405161036e959493929190613c50565b3480156108a5575f80fd5b506108ae61123d565b60405161036e9190613c9f565b3480156108c6575f80fd5b5060db546103c5906001600160a01b031681565b3480156108e5575f80fd5b505f546201000090046001600160a01b03166103c5565b348015610907575f80fd5b5060da546103c5906001600160a01b031681565b348015610926575f80fd5b50610430610935366004613af0565b6112c9565b348015610945575f80fd5b5060e3546103c5906001600160a01b031681565b348015610964575f80fd5b50610364610973366004613daa565b611319565b348015610983575f80fd5b50610364610992366004613e1b565b6115bd565b3480156109a2575f80fd5b506103966109b1366004613af0565b60e06020525f908152604090205460ff1681565b3480156109d0575f80fd5b506103646109df366004613b0b565b611657565b3480156109ef575f80fd5b5060e7546103c5906001600160a01b031681565b348015610a0e575f80fd5b50610364610a1d366004613b0b565b61167d565b348015610a2d575f80fd5b50606b546103c5906001600160a01b031681565b348015610a4c575f80fd5b5061036460d45481565b348015610a61575f80fd5b50610430610a70366004613e7c565b61169c565b348015610a80575f80fd5b50610430610a8f366004613af0565b611702565b348015610a9f575f80fd5b5060d3546103c5906001600160a01b031681565b348015610abe575f80fd5b5060eb54610560906001600160401b031681565b5f6001600160e01b031982166385572ffb60e01b1480610b0257506001600160e01b031982166301ffc9a760e01b145b92915050565b5f8215610c385781600303610b2b57610b2485858560016115bd565b9050610c38565b6040805160028082526060820183525f9260208301908036833701905050905085815f81518110610b5e57610b5e613ebe565b60200260200101906001600160a01b031690816001600160a01b0316815250508481600181518110610b9257610b92613ebe565b6001600160a01b03928316602091820292909201015260e55460405163d06ca61f60e01b81525f92919091169063d06ca61f90610bd59088908690600401613f15565b5f60405180830381865afa158015610bef573d5f803e3d5ffd5b505050506040513d5f823e601f3d908101601f19168201604052610c169190810190613fb9565b905080600181518110610c2b57610c2b613ebe565b6020026020010151925050505b949350505050565b5f54610100900460ff1615808015610c5e57505f54600160ff909116105b80610c775750303b158015610c7757505f5460ff166001145b610cdf5760405162461bcd60e51b815260206004820152602e60248201527f496e697469616c697a61626c653a20636f6e747261637420697320616c72656160448201526d191e481a5b9a5d1a585b1a5e995960921b60648201526084015b60405180910390fd5b5f805460ff191660011790558015610d00575f805461ff0019166101001790555b610d08611827565b610d10611855565b60d780546001600160401b038c1667ffffffffffffffff1990911617905560d380546001600160a01b038b166001600160a01b0319909116179055610d7288600380546001600160a01b039092166001600160a01b0319909216919091179055565b5f805462010000600160b01b031916620100006001600160a01b038a81168202929092179283905560d080548c84166001600160b01b03199091168117600560a01b1790915560405163095ea7b360e01b81529190930490911660048201525f19602482015263095ea7b3906044016020604051808303815f875af1158015610dfd573d5f803e3d5ffd5b505050506040513d601f19601f82011682018060405250810190610e219190613fea565b5060e680546001600160a01b03199081166001600160a01b038981169190911790925560e38054821688841617905560e48054821687841617905560e58054821686841617905560e280549091169184169190911790558015610ebd575f805461ff0019169055604051600181527f7f26b83ff96e1f2b6a682f133852f6798a09c465da95921460cefb38474024989060200160405180910390a15b50505050505050505050565b610ed1611883565b5f80546001600160a01b03909216620100000262010000600160b01b0319909216919091179055565b5f8060e25f9054906101000a90046001600160a01b03166001600160a01b031663feaf968c6040518163ffffffff1660e01b815260040160a060405180830381865afa158015610f4c573d5f803e3d5ffd5b505050506040513d601f19601f82011682018060405250810190610f709190614022565b5050509150505f60e25f9054906101000a90046001600160a01b03166001600160a01b031663313ce5676040518163ffffffff1660e01b8152600401602060405180830381865afa158015610fc7573d5f803e3d5ffd5b505050506040513d601f19601f82011682018060405250810190610feb9190614064565b9050610ff9828260126118dd565b9392505050565b611008611883565b61101061191c565b565b61101a611883565b6001600160a01b0381166110845760405162461bcd60e51b815260206004820152602b60248201527f5072696365206f7261636c6520616464726573732063616e6e6f74206265207a60448201526a65726f206164647265737360a81b6064820152608401610cd6565b60dc80546001600160a01b0319166001600160a01b0392909216919091179055565b6110ae611883565b60d380546001600160a01b0319166001600160a01b0392909216919091179055565b6110d8611883565b6110105f61196e565b60e35460e5545f91611104916001600160a01b03918216911684898989896119bf565b9695505050505050565b611116611883565b6110106119fb565b5f546201000090046001600160a01b03163314611150576040516335fdcccd60e21b8152336004820152602401610cd6565b61116161115c8261410d565b611a38565b50565b60d26020525f9081526040902080546001820180546001600160401b03831693680100000000000000009093046001600160a01b03169291906111a6906141be565b80601f01602080910402602001604051908101604052809291908181526020018280546111d2906141be565b801561121d5780601f106111f45761010080835404028352916020019161121d565b820191905f5260205f20905b81548152906001019060200180831161120057829003601f168201915b50505050600283015460039093015491926001600160a01b031691905085565b60de805461124a906141be565b80601f0160208091040260200160405190810160405280929190818152602001828054611276906141be565b80156112c15780601f10611298576101008083540402835291602001916112c1565b820191905f5260205f20905b8154815290600101906020018083116112a457829003601f168201915b505050505081565b6112d1611883565b6001600160a01b0381166112f75760405162461bcd60e51b8152600401610cd6906141f6565b606b80546001600160a01b0319166001600160a01b0392909216919091179055565b6040805160a081019091526001600160a01b03841660c08201525f9081908060e0810160408051808303601f19018152918152908252602080830188905281515f8082529181018352929091019190611393565b604080518082019091525f808252602082015281526020019060019003908161136d5790505b50815260200160018560018111156113ad576113ad614246565b146113b8575f6113c5565b60d0546001600160a01b03165b6001600160a01b031681526020016113ed6040518060200160405280620dbba0815250611c06565b90525f80546040516320487ded60e01b81529293509091620100009091046001600160a01b0316906320487ded9061142b908a90869060040161425a565b602060405180830381865afa158015611446573d5f803e3d5ffd5b505050506040513d601f19601f8201168201806040525081019061146a919061432d565b90505f600185600181111561148157611481614246565b03611503575f546040516396f4e9f960e01b8152620100009091046001600160a01b0316906396f4e9f9906114bc908b90879060040161425a565b6020604051808303815f875af11580156114d8573d5f803e3d5ffd5b505050506040513d601f19601f820116820180604052508101906114fc919061432d565b905061157f565b5f546040516396f4e9f960e01b8152620100009091046001600160a01b0316906396f4e9f990849061153b908c90889060040161425a565b60206040518083038185885af1158015611557573d5f803e3d5ffd5b50505050506040513d601f19601f8201168201806040525081019061157c919061432d565b90505b6040518181527f54791b38f3859327992a1ca0590ad3c0f08feba98d1a4f56ab0dca74d203392a9060200160405180910390a1979650505050505050565b60dc5460e4546040516304a10b8960e51b81526001600160a01b039182166004820152868216602482015285821660448201526001600160801b03851660648201525f929190911690639421712090608401602060405180830381865afa15801561162a573d5f803e3d5ffd5b505050506040513d601f19601f8201168201806040525081019061164e919061432d565b95945050505050565b5f670de0b6b3a7640000611669610efa565b6116739084614358565b610b02919061436f565b60d1818154811061168c575f80fd5b5f91825260209091200154905081565b6116a4611883565b6001600160401b03929092165f90815260e86020908152604080832080546001600160a01b0319166001600160a01b0395909516948517905560e9825280832093835292905220805462ffffff191662ffffff909216919091179055565b6001600160a01b0381166117285760405162461bcd60e51b8152600401610cd6906141f6565b606b546001600160a01b038281169116146117a05760405162461bcd60e51b815260206004820152603260248201527f50726f706f7361626c654f776e61626c653a206e6577206f776e6572206973206044820152713737ba10383937b837b9b2b21037bbb732b960711b6064820152608401610cd6565b6001600160a01b038116331461181e5760405162461bcd60e51b815260206004820152603a60248201527f50726f706f7361626c654f776e61626c653a20746869732063616c6c206d757360448201527f74206265206d61646520627920746865206e6577206f776e65720000000000006064820152608401610cd6565b6111618161196e565b5f54610100900460ff1661184d5760405162461bcd60e51b8152600401610cd69061438e565b611010611c43565b5f54610100900460ff1661187b5760405162461bcd60e51b8152600401610cd69061438e565b611010611c72565b6039546001600160a01b031633146110105760405162461bcd60e51b815260206004820181905260248201527f4f776e61626c653a2063616c6c6572206973206e6f7420746865206f776e65726044820152606401610cd6565b5f8260ff168260ff161115611912576118f683836143d9565b61190190600a6144d5565b61190b90856144e3565b9050610ff9565b6118f682846143d9565b611924611ca4565b609e805460ff191690557f5db9ee0a495bf2e6ff9c91a7834c1ba4fdd244a5e8aa4e537bd38aeae4b073aa335b6040516001600160a01b03909116815260200160405180910390a1565b603980546001600160a01b038381166001600160a01b0319831681179093556040519116919082907f8be0079c531659141344cd1fd0a4f28419497f9722a3daafe3b4186f6b6457e0905f90a35050565b5f62ffffff8616156119e0576119d9888787878787611ced565b90506119f0565b6119ed8786868686611e45565b90505b979650505050505050565b611a0361202d565b609e805460ff191660011790557f62e78cea01bee320cd4e420270b5ea74000d11b0c9f74754ebdbfc544b05a2586119513390565b5f816020015190505f8260400151806020019051810190611a599190614512565b90505f805f805f805f808a60600151806020019051810190611a7b9190614591565b97509750975097509750975097509750875f03611aad5760808b0151611aa7818988878f8f8989612073565b50611bf9565b87600103611ac857611ac38786858d8d866125cf565b611bf9565b87600203611add57611ac38786858d8d612978565b87600303611b3f57611ac36040518061012001604052808981526020018881526020018781526020018681526020018481526020018c6001600160401b031681526020018b6001600160a01b0316815260200185815260200183815250612c1e565b87600403611bf9575f8b608001519050611bf76040518061016001604052808a8152602001898152602001888152602001878152602001858152602001835f81518110611b8e57611b8e613ebe565b60200260200101515f01516001600160a01b03168152602001835f81518110611bb957611bb9613ebe565b60200260200101516020015181526020018d6001600160401b031681526020018c6001600160a01b0316815260200186815260200184815250612e87565b505b5050505050505050505050565b60408051915160248084019190915281518084039091018152604490920190526020810180516001600160e01b03166397a657c960e01b17905290565b5f54610100900460ff16611c695760405162461bcd60e51b8152600401610cd69061438e565b6110103361196e565b5f54610100900460ff16611c985760405162461bcd60e51b8152600401610cd69061438e565b609e805460ff19169055565b609e5460ff166110105760405162461bcd60e51b815260206004820152601460248201527314185d5cd8589b194e881b9bdd081c185d5cd95960621b6044820152606401610cd6565b60405163095ea7b360e01b81526001600160a01b038781166004830152602482018490525f919086169063095ea7b3906044016020604051808303815f875af1158015611d3c573d5f803e3d5ffd5b505050506040513d601f19601f82011682018060405250810190611d609190613fea565b505f604051806101000160405280876001600160a01b03168152602001866001600160a01b031681526020018862ffffff168152602001846001600160a01b031681526020014261012c611db491906146ae565b8152602081018690525f60408083018290526060909201525163414bf38960e01b81529091506001600160a01b0389169063414bf38990611df99084906004016146c1565b6020604051808303815f875af1158015611e15573d5f803e3d5ffd5b505050506040513d601f19601f82011682018060405250810190611e39919061432d565b98975050505050505050565b6040805160028082526060820183525f928392919060208301908036833701905050905085815f81518110611e7c57611e7c613ebe565b60200260200101906001600160a01b031690816001600160a01b0316815250508481600181518110611eb057611eb0613ebe565b6001600160a01b03928316602091820292909201015260405163d06ca61f60e01b81525f9189169063d06ca61f90611eee9088908690600401613f15565b5f60405180830381865afa158015611f08573d5f803e3d5ffd5b505050506040513d5f823e601f3d908101601f19168201604052611f2f9190810190613fb9565b60405163095ea7b360e01b81526001600160a01b038a81166004830152602482018890529192509088169063095ea7b3906044016020604051808303815f875af1158015611f7f573d5f803e3d5ffd5b505050506040513d601f19601f82011682018060405250810190611fa39190613fea565b50604051635c11d79560e01b81526001600160a01b03891690635c11d79590611fd89088905f9087908a90429060040161473e565b5f604051808303815f87803b158015611fef575f80fd5b505af1158015612001573d5f803e3d5ffd5b505050508060018151811061201857612018613ebe565b60200260200101519250505095945050505050565b609e5460ff16156110105760405162461bcd60e51b815260206004820152601060248201526f14185d5cd8589b194e881c185d5cd95960821b6044820152606401610cd6565b61209d60405180608001604052805f81526020016060815260200160608152602001606081525090565b612155895f815181106120b2576120b2613ebe565b60200260200101515f015160e65f9054906101000a90046001600160a01b03168b5f815181106120e4576120e4613ebe565b6020026020010151602001513060e95f8b6001600160401b03166001600160401b031681526020019081526020015f205f8f5f8151811061212757612127613ebe565b602090810291909101810151516001600160a01b031682528101919091526040015f205462ffffff166110e1565b815287516001600160401b0381111561217057612170613cb1565b604051908082528060200260200182016040528015612199578160200160208202803683370190505b50602082015287516001600160401b038111156121b8576121b8613cb1565b6040519080825280602002602001820160405280156121e1578160200160208202803683370190505b5060408201525f5b885181101561251d575f835f8151811061220557612205613ebe565b602002602001015185838151811061221f5761221f613ebe565b6020026020010151845f01516122359190614358565b61223f919061436f565b60e6548b519192505f916001600160a01b03909116908c908590811061226757612267613ebe565b60200260200101516001600160a01b031603612383578a838151811061228f5761228f613ebe565b602090810291909101015160d3546040516370a0823160e01b81526001600160a01b0391821660048201529116906370a0823190602401602060405180830381865afa1580156122e1573d5f803e3d5ffd5b505050506040513d601f19601f82011682018060405250810190612305919061432d565b60e65460d35460405163a9059cbb60e01b81526001600160a01b03918216600482015260248101869052929350169063a9059cbb906044016020604051808303815f875af1158015612359573d5f803e3d5ffd5b505050506040513d601f19601f8201168201806040525081019061237d9190613fea565b506124b0565b6124458b848151811061239857612398613ebe565b602002602001015160e65f9054906101000a90046001600160a01b03168d86815181106123c7576123c7613ebe565b602090810291909101015160d3546040516370a0823160e01b81526001600160a01b0391821660048201529116906370a0823190602401602060405180830381865afa158015612419573d5f803e3d5ffd5b505050506040513d601f19601f8201168201806040525081019061243d919061432d565b610bb8610b08565b90506124ae60e65f9054906101000a90046001600160a01b03168c858151811061247157612471613ebe565b60200260200101518460d35f9054906101000a90046001600160a01b03168e88815181106124a1576124a1613ebe565b60200260200101516110e1565b505b5f6124bb83836146ae565b90506124c682611657565b856020015185815181106124dc576124dc613ebe565b6020026020010181815250506124f181611657565b8560400151858151811061250757612507613ebe565b60209081029190910101525050506001016121e9565b50604080515f80825260208083018452840151848401516125499492938d9390928c929091840161478c565b60405160208183030381529060405281606001819052505f612572868684606001516001611319565b5f88815260ef60205260409081902082905551909150879082907f7513d57665f5bbb438203d2f2a896f1f0791e1e8cd0e2d76d7bc421bfb4f49aa906125bb9042815260200190565b60405180910390a350505050505050505050565b5f805b87518110156127bf575f670de0b6b3a76400008983815181106125f7576125f7613ebe565b602090810291909101015160d3546040516370a0823160e01b81526001600160a01b0391821660048201529116906370a0823190602401602060405180830381865afa158015612649573d5f803e3d5ffd5b505050506040513d601f19601f8201168201806040525081019061266d919061432d565b855f8151811061267f5761267f613ebe565b60200260200101516126919190614358565b61269b919061436f565b60e6548a519192506001600160a01b0316908a90849081106126bf576126bf613ebe565b60200260200101516001600160a01b0316036127635760d35460e654604051631c20fadd60e01b81526001600160a01b03918216600482015230602482015260448101849052911690631c20fadd906064016020604051808303815f875af115801561272d573d5f803e3d5ffd5b505050506040513d601f19601f820116820180604052508101906127519190613fea565b5061275c81846146ae565b92506127b6565b6127a989838151811061277857612778613ebe565b602002602001015160e65f9054906101000a90046001600160a01b031683308c87815181106124a1576124a1613ebe565b6127b390846146ae565b92505b506001016125d2565b5060e6546001600160401b0385165f90815260e8602090815260408083205460e983528184206001600160a01b03918216808652935290832054929361281193911691908590309062ffffff166110e1565b6040805160018082528183019092529192505f9190816020015b604080518082019091525f808252602082015281526020019060019003908161282b5750506001600160401b0387165f90815260e8602052604081205482519293506001600160a01b03169183919061288657612886613ebe565b60200260200101515f01906001600160a01b031690816001600160a01b03168152505081815f815181106128bc576128bc613ebe565b602090810291909101810151810191909152604080515f80825292810183815281830190925291906128f9906001908d908c86806060810161478c565b60405160208183030381529060405290505f61291989838a876001612f42565b5f8b815260ee602052604090819020829055519091508a9082907f2c80cd3884ced9a087f5eed6c8ddd78af4b449cdea210b92786f35bd496f5343906129629042815260200190565b60405180910390a3505050505050505050505050565b604080515f8082526020820190925290505f86516001600160401b038111156129a3576129a3613cb1565b6040519080825280602002602001820160405280156129cc578160200160208202803683370190505b5090505f5b8751811015612bce5760e65488516001600160a01b03909116908990839081106129fd576129fd613ebe565b60200260200101516001600160a01b031603612ac157612a9e888281518110612a2857612a28613ebe565b602090810291909101015160d3546040516370a0823160e01b81526001600160a01b0391821660048201529116906370a0823190602401602060405180830381865afa158015612a7a573d5f803e3d5ffd5b505050506040513d601f19601f820116820180604052508101906109df919061432d565b828281518110612ab057612ab0613ebe565b602002602001018181525050612bc6565b5f612b9b898381518110612ad757612ad7613ebe565b602002602001015160e65f9054906101000a90046001600160a01b03168b8581518110612b0657612b06613ebe565b602090810291909101015160d3546040516370a0823160e01b81526001600160a01b0391821660048201529116906370a0823190602401602060405180830381865afa158015612b58573d5f803e3d5ffd5b505050506040513d601f19601f82011682018060405250810190612b7c919061432d565b8b8681518110612b8e57612b8e613ebe565b6020026020010151610b08565b9050612ba681611657565b838381518110612bb857612bb8613ebe565b602002602001018181525050505b6001016129d1565b50604080515f80825260208201835291612bf5916002918b91908a9087908990840161478c565b6040516020818303038152906040529050612c138585836001611319565b505050505050505050565b612c4b6040518060a001604052805f81526020015f81526020015f81526020015f81526020015f81525090565b815151815261010082015180515f90612c6657612c66613ebe565b6020026020010151816020018181525050816101000151600181518110612c8f57612c8f613ebe565b6020026020010151816040018181525050816101000151600281518110612cb857612cb8613ebe565b60200260200101518160800181815250505f612cf582845f015185602001518660400151876060015188608001518960c001518a60e00151613353565b60e65460a0850180516001600160401b039081165f90815260e8602081815260408084205486518616855260e9835281852096519095168452918152818320546001600160a01b03908116845294905281205494955093612d6593831692909116908590309062ffffff166110e1565b6040805160018082528183019092529192505f9190816020015b604080518082019091525f8082526020820152815260200190600190039081612d7f57505060a08601516001600160401b03165f90815260e8602052604081205482519293506001600160a01b031691839190612dde57612dde613ebe565b60200260200101515f01906001600160a01b031690816001600160a01b03168152505081815f81518110612e1457612e14613ebe565b602090810291909101810151810191909152604080515f808252818401835288519389015160e08a015192949193612e5693600393929187908190810161478c565b6040516020818303038152906040529050612e7d8760a00151828960c00151866001612f42565b5050505050505050565b60a081015160e65460c083015160d3545f93612eb69390926001600160a01b0391821692909116610bb86110e1565b9050612edf825f01518360200151846040015185606001518660800151868861014001516136c5565b604080515f80825260208201818152828401909352610120850151919291612f13906004908490819087806060810161478c565b6040516020818303038152906040529050612f3a8560e00151866101000151836001611319565b505050505050565b815160d0545f9190600160a01b900461ffff16811115612fca5760405162461bcd60e51b815260206004820152603760248201527f4d6178696d756d203520646966666572656e7420746f6b656e732063616e206260448201527f652073656e74207065722043434950204d6573736167650000000000000000006064820152608401610cd6565b5f5b818110156130e95760d05485516001600160a01b0390911690869083908110612ff757612ff7613ebe565b60200260200101515f01516001600160a01b0316146130e15784818151811061302257613022613ebe565b60200260200101515f01516001600160a01b031663095ea7b35f60029054906101000a90046001600160a01b031687848151811061306257613062613ebe565b6020026020010151602001516040518363ffffffff1660e01b815260040161309f9291906001600160a01b03929092168252602082015260400190565b6020604051808303815f875af11580156130bb573d5f803e3d5ffd5b505050506040513d601f19601f820116820180604052508101906130df9190613fea565b505b600101612fcc565b506040805160a081019091526001600160a01b03861660c08201525f908060e0810160408051601f19818403018152918152908252602082018a90528101879052606001600186600181111561314157613141614246565b1461314c575f613159565b60d0546001600160a01b03165b6001600160a01b031681526020016131816040518060200160405280620dbba0815250611c06565b90525f80546040516320487ded60e01b81529293509091620100009091046001600160a01b0316906320487ded906131bf908c90869060040161425a565b602060405180830381865afa1580156131da573d5f803e3d5ffd5b505050506040513d601f19601f820116820180604052508101906131fe919061432d565b90505f600186600181111561321557613215614246565b03613297575f546040516396f4e9f960e01b8152620100009091046001600160a01b0316906396f4e9f990613250908d90879060040161425a565b6020604051808303815f875af115801561326c573d5f803e3d5ffd5b505050506040513d601f19601f82011682018060405250810190613290919061432d565b9050613313565b5f546040516396f4e9f960e01b8152620100009091046001600160a01b0316906396f4e9f99084906132cf908e90889060040161425a565b60206040518083038185885af11580156132eb573d5f803e3d5ffd5b50505050506040513d601f19601f82011682018060405250810190613310919061432d565b90505b6040518181527f54791b38f3859327992a1ca0590ad3c0f08feba98d1a4f56ab0dca74d203392a9060200160405180910390a19998505050505050505050565b5f6133a06040518061014001604052805f81526020015f81526020015f81526020015f81526020015f81526020015f81526020015f81526020015f81526020015f81526020015f81525090565b60e65460d3546040516370a0823160e01b81526001600160a01b0391821660048201529116906370a0823190602401602060405180830381865afa1580156133ea573d5f803e3d5ffd5b505050506040513d601f19601f8201168201806040525081019061340e919061432d565b60a08201525f5b81518110156135605760e6548a515f916001600160a01b0316908c908490811061344157613441613ebe565b60200260200101516001600160a01b031603613462575060a0820151613542565b61353f8b838151811061347757613477613ebe565b602002602001015160e65f9054906101000a90046001600160a01b03168d85815181106134a6576134a6613ebe565b602090810291909101015160d3546040516370a0823160e01b81526001600160a01b0391821660048201529116906370a0823190602401602060405180830381865afa1580156134f8573d5f803e3d5ffd5b505050506040513d601f19601f8201168201806040525081019061351c919061432d565b60d3548d516001600160a01b03909116908e90889081106124a1576124a1613ebe565b90505b808360600181815161355491906146ae565b90525050600101613415565b50875160c082015260208a015160808b01516135859068056bc75e2d63100000614358565b61358f919061436f565b60e08201819052604082015160608301516135aa9190614358565b6135b4919061436f565b610100820181905260608201516135cb91906147f4565b6101208201525f5b8160c001518110156136b25760e65489516001600160a01b03909116908a908390811061360257613602613ebe565b60200260200101516001600160a01b0316146136aa575f6136a760e65f9054906101000a90046001600160a01b03168b848151811061364357613643613ebe565b602002602001015185604001518a868151811061366257613662613ebe565b602002602001015187610100015161367a9190614358565b613684919061436f565b60d3548c516001600160a01b03909116908d90889081106124a1576124a1613ebe565b50505b6001016135d3565b5061012001519998505050505050505050565b6136f86040518060c001604052805f81526020015f81526020015f81526020015f81526020015f81526020015f81525090565b8160018151811061370b5761370b613ebe565b602090810291909101810151825288519082015260e65460d3546040516370a0823160e01b81526001600160a01b0391821660048201529116906370a0823190602401602060405180830381865afa158015613769573d5f803e3d5ffd5b505050506040513d601f19601f8201168201806040525081019061378d919061432d565b60408201525f606082018190525b81602001518110156138a9575f8982815181106137ba576137ba613ebe565b602090810291909101015160e6549091505f906001600160a01b03908116908316036137eb5750604083015161388a565b60e65460d3546040516370a0823160e01b81526001600160a01b03918216600482015261388792859290811691908316906370a0823190602401602060405180830381865afa158015613840573d5f803e3d5ffd5b505050506040513d601f19601f82011682018060405250810190613864919061432d565b60d3548d516001600160a01b03909116908e90899081106124a1576124a1613ebe565b90505b808460600181815161389c91906146ae565b905250505060010161379b565b5060608101516138b990846146ae565b6080820152865160a08201525f5b8160a00151811015612c13575f8882815181106138e6576138e6613ebe565b602002602001015190505f86838151811061390357613903613ebe565b602090810291909101015160e6549091506001600160a01b038381169116146139805760e654845160808601515f9261397d926001600160a01b0390911691869190613950908790614358565b61395a919061436f565b60d3548d516001600160a01b03909116908e908a9081106124a1576124a1613ebe565b50505b50506001016138c7565b5f6020828403121561399a575f80fd5b81356001600160e01b031981168114610ff9575f80fd5b6001600160a01b0381168114611161575f80fd5b5f805f80608085870312156139d8575f80fd5b84356139e3816139b1565b935060208501356139f3816139b1565b93969395505050506040820135916060013590565b80356001600160401b0381168114613a1e575f80fd5b919050565b5f805f805f805f805f6101208a8c031215613a3c575f80fd5b613a458a613a08565b985060208a0135613a55816139b1565b975060408a0135613a65816139b1565b965060608a0135613a75816139b1565b955060808a0135613a85816139b1565b945060a08a0135613a95816139b1565b935060c08a0135613aa5816139b1565b925060e08a0135613ab5816139b1565b91506101008a0135613ac6816139b1565b809150509295985092959850929598565b5f60208284031215613ae7575f80fd5b610ff982613a08565b5f60208284031215613b00575f80fd5b8135610ff9816139b1565b5f60208284031215613b1b575f80fd5b5035919050565b5f8060408385031215613b33575f80fd5b613b3c83613a08565b91506020830135613b4c816139b1565b809150509250929050565b803562ffffff81168114613a1e575f80fd5b5f805f805f60a08688031215613b7d575f80fd5b8535613b88816139b1565b94506020860135613b98816139b1565b9350604086013592506060860135613baf816139b1565b9150613bbd60808701613b57565b90509295509295909350565b5f8060408385031215613bda575f80fd5b823591506020830135613b4c816139b1565b5f60208284031215613bfc575f80fd5b81356001600160401b03811115613c11575f80fd5b820160a08185031215610ff9575f80fd5b5f81518084528060208401602086015e5f602082860101526020601f19601f83011685010191505092915050565b6001600160401b03861681526001600160a01b038516602082015260a0604082018190525f90613c8290830186613c22565b6001600160a01b0394909416606083015250608001529392505050565b602081525f610ff96020830184613c22565b634e487b7160e01b5f52604160045260245ffd5b604080519081016001600160401b0381118282101715613ce757613ce7613cb1565b60405290565b60405160a081016001600160401b0381118282101715613ce757613ce7613cb1565b604051601f8201601f191681016001600160401b0381118282101715613d3757613d37613cb1565b604052919050565b5f82601f830112613d4e575f80fd5b81356001600160401b03811115613d6757613d67613cb1565b613d7a601f8201601f1916602001613d0f565b818152846020838601011115613d8e575f80fd5b816020850160208301375f918101602001919091529392505050565b5f805f8060808587031215613dbd575f80fd5b613dc685613a08565b93506020850135613dd6816139b1565b925060408501356001600160401b03811115613df0575f80fd5b613dfc87828801613d3f565b925050606085013560028110613e10575f80fd5b939692955090935050565b5f805f8060808587031215613e2e575f80fd5b8435613e39816139b1565b93506020850135613e49816139b1565b925060408501356001600160801b0381168114613e64575f80fd5b9150606085013563ffffffff81168114613e10575f80fd5b5f805f60608486031215613e8e575f80fd5b613e9784613a08565b92506020840135613ea7816139b1565b9150613eb560408501613b57565b90509250925092565b634e487b7160e01b5f52603260045260245ffd5b5f8151808452602084019350602083015f5b82811015613f0b5781516001600160a01b0316865260209586019590910190600101613ee4565b5093949350505050565b828152604060208201525f610c386040830184613ed2565b5f6001600160401b03821115613f4557613f45613cb1565b5060051b60200190565b5f82601f830112613f5e575f80fd5b8151613f71613f6c82613f2d565b613d0f565b8082825260208201915060208360051b860101925085831115613f92575f80fd5b602085015b83811015613faf578051835260209283019201613f97565b5095945050505050565b5f60208284031215613fc9575f80fd5b81516001600160401b03811115613fde575f80fd5b610c3884828501613f4f565b5f60208284031215613ffa575f80fd5b81518015158114610ff9575f80fd5b805169ffffffffffffffffffff81168114613a1e575f80fd5b5f805f805f60a08688031215614036575f80fd5b61403f86614009565b60208701516040880151606089015192975090955093509150613bbd60808701614009565b5f60208284031215614074575f80fd5b815160ff81168114610ff9575f80fd5b5f82601f830112614093575f80fd5b81356140a1613f6c82613f2d565b8082825260208201915060208360061b8601019250858311156140c2575f80fd5b602085015b83811015613faf57604081880312156140de575f80fd5b6140e6613cc5565b81356140f1816139b1565b81526020828101358183015290845292909201916040016140c7565b5f60a0823603121561411d575f80fd5b614125613ced565b8235815261413560208401613a08565b602082015260408301356001600160401b03811115614152575f80fd5b61415e36828601613d3f565b60408301525060608301356001600160401b0381111561417c575f80fd5b61418836828601613d3f565b60608301525060808301356001600160401b038111156141a6575f80fd5b6141b236828601614084565b60808301525092915050565b600181811c908216806141d257607f821691505b6020821081036141f057634e487b7160e01b5f52602260045260245ffd5b50919050565b60208082526030908201527f50726f706f7361626c654f776e61626c653a206e6577206f776e65722069732060408201526f746865207a65726f206164647265737360801b606082015260800190565b634e487b7160e01b5f52602160045260245ffd5b6001600160401b0383168152604060208201525f825160a0604084015261428460e0840182613c22565b90506020840151603f198483030160608501526142a18282613c22565b6040860151858203603f190160808701528051808352602091820194505f93509101905b808310156142fc57835180516001600160a01b031683526020908101518184015290930192600192909201916040909101906142c5565b5060608601516001600160a01b031660a08601526080860151858203603f190160c087015292506119f08184613c22565b5f6020828403121561433d575f80fd5b5051919050565b634e487b7160e01b5f52601160045260245ffd5b8082028115828204841417610b0257610b02614344565b5f8261438957634e487b7160e01b5f52601260045260245ffd5b500490565b6020808252602b908201527f496e697469616c697a61626c653a20636f6e7472616374206973206e6f74206960408201526a6e697469616c697a696e6760a81b606082015260800190565b60ff8281168282160390811115610b0257610b02614344565b6001815b600184111561442d5780850481111561441157614411614344565b600184161561441f57908102905b60019390931c9280026143f6565b935093915050565b5f8261444357506001610b02565b8161444f57505f610b02565b8160018114614465576002811461446f5761448b565b6001915050610b02565b60ff84111561448057614480614344565b50506001821b610b02565b5060208310610133831016604e8410600b84101617156144ae575081810a610b02565b6144ba5f1984846143f2565b805f19048211156144cd576144cd614344565b029392505050565b5f610ff960ff841683614435565b8082025f8212600160ff1b841416156144fe576144fe614344565b8181058314821517610b0257610b02614344565b5f60208284031215614522575f80fd5b8151610ff9816139b1565b5f82601f83011261453c575f80fd5b815161454a613f6c82613f2d565b8082825260208201915060208360051b86010192508583111561456b575f80fd5b602085015b83811015613faf578051614583816139b1565b835260209283019201614570565b5f805f805f805f80610100898b0312156145a9575f80fd5b885160208a01519098506001600160401b038111156145c6575f80fd5b6145d28b828c0161452d565b97505060408901516001600160401b038111156145ed575f80fd5b6145f98b828c0161452d565b96505060608901516001600160401b03811115614614575f80fd5b6146208b828c01613f4f565b95505060808901516001600160401b0381111561463b575f80fd5b6146478b828c01613f4f565b60a08b015160c08c0151919650945090506001600160401b0381111561466b575f80fd5b6146778b828c01613f4f565b92505060e08901516001600160401b03811115614692575f80fd5b61469e8b828c01613f4f565b9150509295985092959890939650565b80820180821115610b0257610b02614344565b81516001600160a01b03908116825260208084015182169083015260408084015162ffffff169083015260608084015191821690830152610100820190506080830151608083015260a083015160a083015260c083015160c083015260e083015161473760e08401826001600160a01b03169052565b5092915050565b85815284602082015260a060408201525f613c8260a0830186613ed2565b5f8151808452602084019350602083015f5b82811015613f0b57815186526020958601959091019060010161476e565b60ff8716815260c060208201525f6147a760c0830188613ed2565b82810360408401526147b98188613ed2565b905085606084015282810360808401526147d3818661475c565b905082810360a08401526147e7818561475c565b9998505050505050505050565b81810381811115610b0257610b0261434456fea264697066735822122091d94dbb725c1b512ca50f8f0f90d5f7ac6051d03b0cfd3f1178a0b404674d5f64736f6c634300081a0033","linkReferences":{}},"methodIdentifiers":{"ccipReceive((bytes32,uint64,bytes,bytes,(address,uint256)[]))":"85572ffb","convertEthToUsd(uint256)":"c086381e","crossChainToken(uint64)":"19da7e2a","crossChainTokenSwapFee(uint64,address)":"652354ae","currentChainSelector()":"3d54cb6f","estimateAmountOut(address,address,uint128,uint32)":"bf938db8","factoryV3()":"1d5f45f5","fee()":"ddca3f43","feeRate()":"978bbdb9","feeRatePerDayScaled()":"2fecd589","feeReceiver()":"b3f00674","feeTimestamp()":"184a732f","getAmountOut(address,address,uint256,uint256)":"13cb1f83","getPendingRequest(bytes32)":"88b12d55","getRouter()":"b0f479a1","i_link()":"7d253aff","i_maxTokensLength()":"5b6a0351","initialize(uint64,address,address,address,address,address,address,address,address)":"17c27b76","isRestricted(address)":"c01bc982","issuanceCompletedTokensCount(uint256)":"94037369","issuanceMessageIdByNonce(uint256)":"9121c717","issuanceTokenOldAndNewValues(uint256,address)":"81b15279","latestFeeUpdate()":"011ced5f","messageDetail(bytes32)":"9c3ddb2e","methodologist()":"9f8e67bf","methodology()":"9eeb1d50","minter()":"07546172","oraclePayment()":"0c02e130","owner()":"8da5cb5b","pause()":"8456cb59","paused()":"5c975abb","priceInWei()":"3c8da588","priceOracle()":"2630c12f","proposeOwner(address)":"b5ed298a","proposedOwner()":"d153b60c","quoter()":"c6bbd5a7","receivedMessages(uint256)":"d030366c","redemptionMessageIdByNonce(uint256)":"306b3a28","renounceOwnership()":"715018a6","sendMessage(uint64,address,bytes,uint8)":"bcab90b3","setCcipRouter(address)":"27bf9b44","setCrossChainToken(uint64,address,uint24)":"f0cd5b72","setPriceOracle(address)":"530e784f","setVault(address)":"6817031b","sourceChainSelectorF()":"ff5474f0","supplyCeiling()":"2b52684d","supportsInterface(bytes4)":"01ffc9a7","swap(address,address,uint256,address,uint24)":"7e79f512","swapRouterV2()":"744fbc7a","swapRouterV3()":"b631e80b","toUsdPriceFeed()":"63973fda","transferOwnership(address)":"f2fde38b","unpause()":"3f4ba83a","vault()":"fbfa77cf","weth()":"3fc8cef3"},"id":48}