{"abi":[{"type":"receive","stateMutability":"payable"},{"type":"function","name":"ccipReceive","inputs":[{"name":"message","type":"tuple","internalType":"struct Client.Any2EVMMessage","components":[{"name":"messageId","type":"bytes32","internalType":"bytes32"},{"name":"sourceChainSelector","type":"uint64","internalType":"uint64"},{"name":"sender","type":"bytes","internalType":"bytes"},{"name":"data","type":"bytes","internalType":"bytes"},{"name":"destTokenAmounts","type":"tuple[]","internalType":"struct Client.EVMTokenAmount[]","components":[{"name":"token","type":"address","internalType":"address"},{"name":"amount","type":"uint256","internalType":"uint256"}]}]}],"outputs":[],"stateMutability":"nonpayable"},{"type":"function","name":"convertEthToUsd","inputs":[{"name":"_ethAmount","type":"uint256","internalType":"uint256"}],"outputs":[{"name":"","type":"uint256","internalType":"uint256"}],"stateMutability":"view"},{"type":"function","name":"crossChainToken","inputs":[{"name":"","type":"uint64","internalType":"uint64"}],"outputs":[{"name":"","type":"address","internalType":"address"}],"stateMutability":"view"},{"type":"function","name":"currentChainSelector","inputs":[],"outputs":[{"name":"","type":"uint64","internalType":"uint64"}],"stateMutability":"view"},{"type":"function","name":"estimateAmountOut","inputs":[{"name":"tokenIn","type":"address","internalType":"address"},{"name":"tokenOut","type":"address","internalType":"address"},{"name":"amountIn","type":"uint128","internalType":"uint128"},{"name":"fee","type":"uint24","internalType":"uint24"}],"outputs":[{"name":"amountOut","type":"uint256","internalType":"uint256"}],"stateMutability":"view"},{"type":"function","name":"estimateAmountOutWithPath","inputs":[{"name":"path","type":"address[]","internalType":"address[]"},{"name":"fees","type":"uint24[]","internalType":"uint24[]"},{"name":"amountIn","type":"uint256","internalType":"uint256"}],"outputs":[{"name":"amountOut","type":"uint256","internalType":"uint256"}],"stateMutability":"view"},{"type":"function","name":"factoryV3","inputs":[],"outputs":[{"name":"","type":"address","internalType":"contract IUniswapV3Factory"}],"stateMutability":"view"},{"type":"function","name":"fromETHFees","inputs":[{"name":"","type":"address","internalType":"address"},{"name":"","type":"uint256","internalType":"uint256"}],"outputs":[{"name":"","type":"uint24","internalType":"uint24"}],"stateMutability":"view"},{"type":"function","name":"fromETHPath","inputs":[{"name":"","type":"address","internalType":"address"},{"name":"","type":"uint256","internalType":"uint256"}],"outputs":[{"name":"","type":"address","internalType":"address"}],"stateMutability":"view"},{"type":"function","name":"getAmountOut","inputs":[{"name":"path","type":"address[]","internalType":"address[]"},{"name":"fees","type":"uint24[]","internalType":"uint24[]"},{"name":"amountIn","type":"uint256","internalType":"uint256"}],"outputs":[{"name":"finalAmountOut","type":"uint256","internalType":"uint256"}],"stateMutability":"view"},{"type":"function","name":"getRouter","inputs":[],"outputs":[{"name":"","type":"address","internalType":"address"}],"stateMutability":"view"},{"type":"function","name":"getTokenCurrentValue","inputs":[{"name":"_tokenAddress","type":"address","internalType":"address"},{"name":"_fromETHPath","type":"address[]","internalType":"address[]"},{"name":"_fromETHFees","type":"uint24[]","internalType":"uint24[]"}],"outputs":[{"name":"","type":"uint256","internalType":"uint256"}],"stateMutability":"view"},{"type":"function","name":"i_link","inputs":[],"outputs":[{"name":"","type":"address","internalType":"address"}],"stateMutability":"view"},{"type":"function","name":"i_maxTokensLength","inputs":[],"outputs":[{"name":"","type":"uint16","internalType":"uint16"}],"stateMutability":"view"},{"type":"function","name":"initialize","inputs":[{"name":"_currentChainSelector","type":"uint64","internalType":"uint64"},{"name":"_vault","type":"address","internalType":"address payable"},{"name":"_chainlinkToken","type":"address","internalType":"address"},{"name":"_router","type":"address","internalType":"address"},{"name":"_weth","type":"address","internalType":"address"},{"name":"_swapRouterV3","type":"address","internalType":"address"},{"name":"_factoryV3","type":"address","internalType":"address"},{"name":"_swapRouterV2","type":"address","internalType":"address"},{"name":"_toUsdPriceFeed","type":"address","internalType":"address"}],"outputs":[],"stateMutability":"nonpayable"},{"type":"function","name":"issuanceMessageIdByNonce","inputs":[{"name":"","type":"uint256","internalType":"uint256"}],"outputs":[{"name":"","type":"bytes32","internalType":"bytes32"}],"stateMutability":"view"},{"type":"function","name":"messageDetail","inputs":[{"name":"","type":"bytes32","internalType":"bytes32"}],"outputs":[{"name":"sourceChainSelector","type":"uint64","internalType":"uint64"},{"name":"sender","type":"address","internalType":"address"},{"name":"message","type":"string","internalType":"string"},{"name":"token","type":"address","internalType":"address"},{"name":"amount","type":"uint256","internalType":"uint256"}],"stateMutability":"view"},{"type":"function","name":"owner","inputs":[],"outputs":[{"name":"","type":"address","internalType":"address"}],"stateMutability":"view"},{"type":"function","name":"pause","inputs":[],"outputs":[],"stateMutability":"nonpayable"},{"type":"function","name":"paused","inputs":[],"outputs":[{"name":"","type":"bool","internalType":"bool"}],"stateMutability":"view"},{"type":"function","name":"priceInWei","inputs":[],"outputs":[{"name":"","type":"uint256","internalType":"uint256"}],"stateMutability":"view"},{"type":"function","name":"priceOracle","inputs":[],"outputs":[{"name":"","type":"address","internalType":"address"}],"stateMutability":"view"},{"type":"function","name":"proposeOwner","inputs":[{"name":"_proposedOwner","type":"address","internalType":"address"}],"outputs":[],"stateMutability":"nonpayable"},{"type":"function","name":"proposedOwner","inputs":[],"outputs":[{"name":"","type":"address","internalType":"address"}],"stateMutability":"view"},{"type":"function","name":"quoter","inputs":[],"outputs":[{"name":"","type":"address","internalType":"contract IQuoter"}],"stateMutability":"view"},{"type":"function","name":"redemptionMessageIdByNonce","inputs":[{"name":"","type":"uint256","internalType":"uint256"}],"outputs":[{"name":"","type":"bytes32","internalType":"bytes32"}],"stateMutability":"view"},{"type":"function","name":"renounceOwnership","inputs":[],"outputs":[],"stateMutability":"nonpayable"},{"type":"function","name":"sendMessage","inputs":[{"name":"destinationChainSelector","type":"uint64","internalType":"uint64"},{"name":"receiver","type":"address","internalType":"address"},{"name":"_data","type":"bytes","internalType":"bytes"},{"name":"payFeesIn","type":"uint8","internalType":"enum CrossChainIndexFactory.PayFeesIn"}],"outputs":[{"name":"","type":"bytes32","internalType":"bytes32"}],"stateMutability":"nonpayable"},{"type":"function","name":"setCcipRouter","inputs":[{"name":"_router","type":"address","internalType":"address"}],"outputs":[],"stateMutability":"nonpayable"},{"type":"function","name":"setCrossChainToken","inputs":[{"name":"_chainSelector","type":"uint64","internalType":"uint64"},{"name":"_crossChainToken","type":"address","internalType":"address"},{"name":"_fromETHPath","type":"address[]","internalType":"address[]"},{"name":"_fromETHFees","type":"uint24[]","internalType":"uint24[]"}],"outputs":[],"stateMutability":"nonpayable"},{"type":"function","name":"setPriceOracle","inputs":[{"name":"_priceOracle","type":"address","internalType":"address"}],"outputs":[],"stateMutability":"nonpayable"},{"type":"function","name":"setVault","inputs":[{"name":"_vault","type":"address","internalType":"address payable"}],"outputs":[],"stateMutability":"nonpayable"},{"type":"function","name":"supportsInterface","inputs":[{"name":"interfaceId","type":"bytes4","internalType":"bytes4"}],"outputs":[{"name":"","type":"bool","internalType":"bool"}],"stateMutability":"pure"},{"type":"function","name":"swap","inputs":[{"name":"path","type":"address[]","internalType":"address[]"},{"name":"fees","type":"uint24[]","internalType":"uint24[]"},{"name":"amountIn","type":"uint256","internalType":"uint256"},{"name":"_recipient","type":"address","internalType":"address"}],"outputs":[{"name":"outputAmount","type":"uint256","internalType":"uint256"}],"stateMutability":"nonpayable"},{"type":"function","name":"swapRouterV2","inputs":[],"outputs":[{"name":"","type":"address","internalType":"contract IUniswapV2Router02"}],"stateMutability":"view"},{"type":"function","name":"swapRouterV3","inputs":[],"outputs":[{"name":"","type":"address","internalType":"contract ISwapRouter"}],"stateMutability":"view"},{"type":"function","name":"toETHFees","inputs":[{"name":"","type":"address","internalType":"address"},{"name":"","type":"uint256","internalType":"uint256"}],"outputs":[{"name":"","type":"uint24","internalType":"uint24"}],"stateMutability":"view"},{"type":"function","name":"toETHPath","inputs":[{"name":"","type":"address","internalType":"address"},{"name":"","type":"uint256","internalType":"uint256"}],"outputs":[{"name":"","type":"address","internalType":"address"}],"stateMutability":"view"},{"type":"function","name":"toUsdPriceFeed","inputs":[],"outputs":[{"name":"","type":"address","internalType":"contract AggregatorV3Interface"}],"stateMutability":"view"},{"type":"function","name":"transferOwnership","inputs":[{"name":"newOwner","type":"address","internalType":"address"}],"outputs":[],"stateMutability":"nonpayable"},{"type":"function","name":"unpause","inputs":[],"outputs":[],"stateMutability":"nonpayable"},{"type":"function","name":"vault","inputs":[],"outputs":[{"name":"","type":"address","internalType":"contract Vault"}],"stateMutability":"view"},{"type":"function","name":"weth","inputs":[],"outputs":[{"name":"","type":"address","internalType":"contract IWETH"}],"stateMutability":"view"},{"type":"event","name":"Initialized","inputs":[{"name":"version","type":"uint8","indexed":false,"internalType":"uint8"}],"anonymous":false},{"type":"event","name":"Issuanced","inputs":[{"name":"messageId","type":"bytes32","indexed":true,"internalType":"bytes32"},{"name":"nonce","type":"uint256","indexed":true,"internalType":"uint256"},{"name":"time","type":"uint256","indexed":false,"internalType":"uint256"}],"anonymous":false},{"type":"event","name":"MessageSent","inputs":[{"name":"messageId","type":"bytes32","indexed":false,"internalType":"bytes32"}],"anonymous":false},{"type":"event","name":"OwnershipTransferred","inputs":[{"name":"previousOwner","type":"address","indexed":true,"internalType":"address"},{"name":"newOwner","type":"address","indexed":true,"internalType":"address"}],"anonymous":false},{"type":"event","name":"Paused","inputs":[{"name":"account","type":"address","indexed":false,"internalType":"address"}],"anonymous":false},{"type":"event","name":"Redemption","inputs":[{"name":"messageId","type":"bytes32","indexed":true,"internalType":"bytes32"},{"name":"nonce","type":"uint256","indexed":true,"internalType":"uint256"},{"name":"time","type":"uint256","indexed":false,"internalType":"uint256"}],"anonymous":false},{"type":"event","name":"Unpaused","inputs":[{"name":"account","type":"address","indexed":false,"internalType":"address"}],"anonymous":false},{"type":"error","name":"InvalidRouter","inputs":[{"name":"router","type":"address","internalType":"address"}]}],"bytecode":{"object":"0x6080604052348015600e575f80fd5b506162878061001c5f395ff3fe608060405260043610610257575f3560e01c8063744fbc7a1161013f578063b5ed298a116100b3578063ca29b6ba11610078578063ca29b6ba14610762578063d153b60c14610781578063dfbd3897146107a0578063ee7bd3e2146107bf578063f2fde38b146107de578063fbfa77cf146107fd575f80fd5b8063b5ed298a146106c7578063b631e80b146106e6578063bcab90b314610705578063c086381e14610724578063c6bbd5a714610743575f80fd5b80638da5cb5b116101045780638da5cb5b146105ef5780638e08b9451461060c5780639121c7171461062b57806391b31b5b146106565780639c3ddb2e14610675578063b0f479a1146106a5575f80fd5b8063744fbc7a1461054b5780637d253aff1461056a5780637edbc2ff146105895780638456cb59146105bc57806385572ffb146105d0575f80fd5b80633d54cb6f116101d65780635c1a094c1161019b5780635c1a094c146104a45780635c975abb146104c357806363973fda146104da5780636817031b146104f9578063709a04f214610518578063715018a614610537575f80fd5b80633d54cb6f146103e05780633f4ba83a1461041e5780633fc8cef314610432578063530e784f146104515780635b6a035114610470575f80fd5b80631d5f45f51161021c5780631d5f45f5146103445780632630c12f1461036357806327bf9b4414610382578063306b3a28146103a15780633c8da588146103cc575f80fd5b806301ffc9a7146102625780630ecdc1c61461029657806316d9f6bd146102b757806317c27b76146102e457806319da7e2a14610303575f80fd5b3661025e57005b5f80fd5b34801561026d575f80fd5b5061028161027c366004614e2a565b61081c565b60405190151581526020015b60405180910390f35b3480156102a1575f80fd5b506102b56102b0366004615017565b610852565b005b3480156102c2575f80fd5b506102d66102d136600461509c565b610a21565b60405190815260200161028d565b3480156102ef575f80fd5b506102b56102fe366004615108565b610b23565b34801561030e575f80fd5b5061033761031d3660046151bc565b60d46020525f90815260409020546001600160a01b031681565b60405161028d91906151d5565b34801561034f575f80fd5b5060d054610337906001600160a01b031681565b34801561036e575f80fd5b5060cd54610337906001600160a01b031681565b34801561038d575f80fd5b506102b561039c3660046151e9565b611065565b3480156103ac575f80fd5b506102d66103bb366004615204565b60d96020525f908152604090205481565b3480156103d7575f80fd5b506102d6611096565b3480156103eb575f80fd5b5060cc5461040690600160a01b90046001600160401b031681565b6040516001600160401b03909116815260200161028d565b348015610429575f80fd5b506102b561119c565b34801561043d575f80fd5b5060d254610337906001600160a01b031681565b34801561045c575f80fd5b506102b561046b3660046151e9565b6111ae565b34801561047b575f80fd5b5060ca5461049190600160a01b900461ffff1681565b60405161ffff909116815260200161028d565b3480156104af575f80fd5b506102d66104be36600461521b565b611242565b3480156104ce575f80fd5b5060985460ff16610281565b3480156104e5575f80fd5b5060ce54610337906001600160a01b031681565b348015610504575f80fd5b506102b56105133660046151e9565b6112dd565b348015610523575f80fd5b50610337610532366004615299565b611307565b348015610542575f80fd5b506102b561133b565b348015610556575f80fd5b5060d154610337906001600160a01b031681565b348015610575575f80fd5b5060ca54610337906001600160a01b031681565b348015610594575f80fd5b506105a86105a3366004615299565b61134c565b60405162ffffff909116815260200161028d565b3480156105c7575f80fd5b506102b561138f565b3480156105db575f80fd5b506102b56105ea3660046152c3565b61139f565b3480156105fa575f80fd5b506033546001600160a01b0316610337565b348015610617575f80fd5b506105a8610626366004615299565b6113e5565b348015610636575f80fd5b506102d6610645366004615204565b60da6020525f908152604090205481565b348015610661575f80fd5b50610337610670366004615299565b6113fe565b348015610680575f80fd5b5061069461068f366004615204565b611417565b60405161028d959493929190615327565b3480156106b0575f80fd5b505f546201000090046001600160a01b0316610337565b3480156106d2575f80fd5b506102b56106e13660046151e9565b6114eb565b3480156106f1575f80fd5b5060cf54610337906001600160a01b031681565b348015610710575f80fd5b506102d661071f3660046153e9565b61153b565b34801561072f575f80fd5b506102d661073e366004615204565b6118d5565b34801561074e575f80fd5b5060d354610337906001600160a01b031681565b34801561076d575f80fd5b506102d661077c36600461544f565b6118fb565b34801561078c575f80fd5b50606554610337906001600160a01b031681565b3480156107ab575f80fd5b506102d66107ba36600461509c565b611a61565b3480156107ca575f80fd5b506102d66107d93660046154c3565b611b27565b3480156107e9575f80fd5b506102b56107f83660046151e9565b611ba5565b348015610808575f80fd5b5060cc54610337906001600160a01b031681565b5f6001600160e01b031982166385572ffb60e01b148061084c57506001600160e01b031982166301ffc9a760e01b145b92915050565b61085a611cca565b6001600160401b0384165f90815260d46020908152604080832080546001600160a01b0319166001600160a01b038816908117909155835260d5825290912083516108a792850190614d13565b506001600160a01b0383165f90815260d76020908152604090912082516108d092840190614d76565b506040516336dfb51f60e01b815273__$4c5f58e1f74d2276ee49bfc89b0138653d$__906336dfb51f9061090890859060040161551c565b5f60405180830381865af4158015610922573d5f803e3d5ffd5b505050506040513d5f823e601f3d908101601f1916820160405261094991908101906155cb565b6001600160a01b0384165f90815260d66020908152604090912082516109759391929190910190614d13565b5060405163013d59ed60e21b815273__$4c5f58e1f74d2276ee49bfc89b0138653d$__906304f567b4906109ad908490600401615604565b5f60405180830381865af41580156109c7573d5f803e3d5ffd5b505050506040513d5f823e601f3d908101601f191682016040526109ee91908101906156a4565b6001600160a01b0384165f90815260d8602090815260409091208251610a1a9391929190910190614d76565b5050505050565b5f81815b60018651610a3391906156e9565b811015610b1a5760cd5460d05487516001600160a01b039283169263bb5705b3921690899085908110610a6857610a686156fc565b602002602001015189856001610a7e9190615710565b81518110610a8e57610a8e6156fc565b6020026020010151868a8781518110610aa957610aa96156fc565b60200260200101516040518663ffffffff1660e01b8152600401610ad1959493929190615723565b602060405180830381865afa158015610aec573d5f803e3d5ffd5b505050506040513d601f19601f82011682018060405250810190610b109190615763565b9150600101610a25565b50949350505050565b5f54610100900460ff1615808015610b4157505f54600160ff909116105b80610b5a5750303b158015610b5a57505f5460ff166001145b610bc25760405162461bcd60e51b815260206004820152602e60248201527f496e697469616c697a61626c653a20636f6e747261637420697320616c72656160448201526d191e481a5b9a5d1a585b1a5e995960921b60648201526084015b60405180910390fd5b5f805460ff191660011790558015610be3575f805461ff0019166101001790555b5f8a6001600160401b031611610c345760405162461bcd60e51b815260206004820152601660248201527524b73b30b634b21031b430b4b71039b2b632b1ba37b960511b6044820152606401610bb9565b6001600160a01b038916610c825760405162461bcd60e51b8152602060048201526015602482015274496e76616c6964207661756c74206164647265737360581b6044820152606401610bb9565b6001600160a01b038816610cd85760405162461bcd60e51b815260206004820152601f60248201527f496e76616c696420436861696e6c696e6b20746f6b656e2061646472657373006044820152606401610bb9565b6001600160a01b038716610d275760405162461bcd60e51b8152602060048201526016602482015275496e76616c696420726f75746572206164647265737360501b6044820152606401610bb9565b6001600160a01b038616610d745760405162461bcd60e51b8152602060048201526014602482015273496e76616c69642057455448206164647265737360601b6044820152606401610bb9565b6001600160a01b038516610dca5760405162461bcd60e51b815260206004820152601e60248201527f496e76616c6964207377617020726f75746572207633206164647265737300006044820152606401610bb9565b6001600160a01b038416610e205760405162461bcd60e51b815260206004820152601a60248201527f496e76616c696420666163746f727920763320616464726573730000000000006044820152606401610bb9565b6001600160a01b038316610e765760405162461bcd60e51b815260206004820152601e60248201527f496e76616c6964207377617020726f75746572207632206164647265737300006044820152606401610bb9565b6001600160a01b038216610ecc5760405162461bcd60e51b815260206004820152601a60248201527f496e76616c6964207072696365206665656420616464726573730000000000006044820152606401610bb9565b610ed4611d24565b610edc611d52565b60cc80546001600160e01b031916600160a01b6001600160401b038d16026001600160a01b031916176001600160a01b038b8116919091179091555f805462010000600160b01b031916620100008a84168102919091179182905560ca80548c85166001600160b01b03199091168117600560a01b1790915560405163095ea7b360e01b8152909363095ea7b393610f7d93900416905f199060040161577a565b6020604051808303815f875af1158015610f99573d5f803e3d5ffd5b505050506040513d601f19601f82011682018060405250810190610fbd9190615793565b5060d280546001600160a01b03199081166001600160a01b038981169190911790925560cf8054821688841617905560d08054821687841617905560d18054821686841617905560ce80549091169184169190911790558015611059575f805461ff0019169055604051600181527f7f26b83ff96e1f2b6a682f133852f6798a09c465da95921460cefb38474024989060200160405180910390a15b50505050505050505050565b61106d611cca565b5f80546001600160a01b03909216620100000262010000600160b01b0319909216919091179055565b5f8060ce5f9054906101000a90046001600160a01b03166001600160a01b031663feaf968c6040518163ffffffff1660e01b815260040160a060405180830381865afa1580156110e8573d5f803e3d5ffd5b505050506040513d601f19601f8201168201806040525081019061110c91906157cb565b5050509150505f60ce5f9054906101000a90046001600160a01b03166001600160a01b031663313ce5676040518163ffffffff1660e01b8152600401602060405180830381865afa158015611163573d5f803e3d5ffd5b505050506040513d601f19601f820116820180604052508101906111879190615819565b905061119582826012611d80565b9392505050565b6111a4611cca565b6111ac611db8565b565b6111b6611cca565b6001600160a01b0381166112205760405162461bcd60e51b815260206004820152602b60248201527f5072696365206f7261636c6520616464726573732063616e6e6f74206265207a60448201526a65726f206164647265737360a81b6064820152608401610bb9565b60cd80546001600160a01b0319166001600160a01b0392909216919091179055565b5f8083116112625760405162461bcd60e51b8152600401610bb990615839565b6001600160a01b0382166112b45760405162461bcd60e51b8152602060048201526019602482015278496e76616c696420726563697069656e74206164647265737360381b6044820152606401610bb9565b60cf5460d1546112d4916001600160a01b03908116911687878787611e04565b95945050505050565b6112e5611cca565b60cc80546001600160a01b0319166001600160a01b0392909216919091179055565b60d5602052815f5260405f208181548110611320575f80fd5b5f918252602090912001546001600160a01b03169150829050565b611343611cca565b6111ac5f611e58565b60d8602052815f5260405f208181548110611365575f80fd5b905f5260205f2090600a9182820401919006600302915091509054906101000a900462ffffff1681565b611397611cca565b6111ac611ea9565b5f546201000090046001600160a01b031633146113d157336040516335fdcccd60e21b8152600401610bb991906151d5565b6113e26113dd826158f7565b611ee6565b50565b60d7602052815f5260405f208181548110611365575f80fd5b60d6602052815f5260405f208181548110611320575f80fd5b60cb6020525f9081526040902080546001820180546001600160401b03831693600160401b9093046001600160a01b0316929190611454906159a8565b80601f0160208091040260200160405190810160405280929190818152602001828054611480906159a8565b80156114cb5780601f106114a2576101008083540402835291602001916114cb565b820191905f5260205f20905b8154815290600101906020018083116114ae57829003601f168201915b50505050600283015460039093015491926001600160a01b031691905085565b6114f3611cca565b6001600160a01b0381166115195760405162461bcd60e51b8152600401610bb9906159e0565b606580546001600160a01b0319166001600160a01b0392909216919091179055565b5f80856001600160401b03161161159f5760405162461bcd60e51b815260206004820152602260248201527f496e76616c69642064657374696e6174696f6e20636861696e2073656c65637460448201526137b960f11b6064820152608401610bb9565b6001600160a01b0384166115f05760405162461bcd60e51b8152602060048201526018602482015277496e76616c6964207265636569766572206164647265737360401b6044820152606401610bb9565b5f8351116116375760405162461bcd60e51b8152602060048201526014602482015273446174612063616e6e6f7420626520656d70747960601b6044820152606401610bb9565b5f6040518060a001604052808660405160200161165491906151d5565b60408051808303601f19018152918152908252602080830188905281515f80825291810183529290910191906116ab565b604080518082019091525f80825260208201528152602001906001900390816116855790505b50815260200160018560018111156116c5576116c5615a30565b146116d0575f6116dd565b60ca546001600160a01b03165b6001600160a01b031681526020016117056040518060200160405280620dbba08152506120b4565b90525f80546040516320487ded60e01b81529293509091620100009091046001600160a01b0316906320487ded90611743908a908690600401615a44565b602060405180830381865afa15801561175e573d5f803e3d5ffd5b505050506040513d601f19601f820116820180604052508101906117829190615763565b90505f600185600181111561179957611799615a30565b0361181b575f546040516396f4e9f960e01b8152620100009091046001600160a01b0316906396f4e9f9906117d4908b908790600401615a44565b6020604051808303815f875af11580156117f0573d5f803e3d5ffd5b505050506040513d601f19601f820116820180604052508101906118149190615763565b9050611897565b5f546040516396f4e9f960e01b8152620100009091046001600160a01b0316906396f4e9f9908490611853908c908890600401615a44565b60206040518083038185885af115801561186f573d5f803e3d5ffd5b50505050506040513d601f19601f820116820180604052508101906118949190615763565b90505b6040518181527f54791b38f3859327992a1ca0590ad3c0f08feba98d1a4f56ab0dca74d203392a9060200160405180910390a1979650505050505050565b5f670de0b6b3a76400006118e7611096565b6118f19084615b17565b61084c9190615b2e565b5f806112d473__$4c5f58e1f74d2276ee49bfc89b0138653d$__6336dfb51f866040518263ffffffff1660e01b8152600401611937919061551c565b5f60405180830381865af4158015611951573d5f803e3d5ffd5b505050506040513d5f823e601f3d908101601f1916820160405261197891908101906155cb565b60405163013d59ed60e21b815273__$4c5f58e1f74d2276ee49bfc89b0138653d$__906304f567b4906119af908890600401615604565b5f60405180830381865af41580156119c9573d5f803e3d5ffd5b505050506040513d5f823e601f3d908101601f191682016040526119f091908101906156a4565b60cc546040516370a0823160e01b81526001600160a01b038a8116926370a0823192611a2292909116906004016151d5565b602060405180830381865afa158015611a3d573d5f803e3d5ffd5b505050506040513d601f19601f820116820180604052508101906107ba9190615763565b5f811561119557825115611a8157611a7a848484610a21565b9050611195565b60d15460405163d06ca61f60e01b81525f916001600160a01b03169063d06ca61f90611ab39086908990600401615b90565b5f60405180830381865afa158015611acd573d5f803e3d5ffd5b505050506040513d5f823e601f3d908101601f19168201604052611af49190810190615c03565b90508060018251611b0591906156e9565b81518110611b1557611b156156fc565b60200260200101519150509392505050565b60cd5460d05460405163bb5705b360e01b81525f926001600160a01b039081169263bb5705b392611b6692909116908990899089908990600401615723565b602060405180830381865afa158015611b81573d5f803e3d5ffd5b505050506040513d601f19601f820116820180604052508101906112d49190615763565b6001600160a01b038116611bcb5760405162461bcd60e51b8152600401610bb9906159e0565b6065546001600160a01b03828116911614611c435760405162461bcd60e51b815260206004820152603260248201527f50726f706f7361626c654f776e61626c653a206e6577206f776e6572206973206044820152713737ba10383937b837b9b2b21037bbb732b960711b6064820152608401610bb9565b6001600160a01b0381163314611cc15760405162461bcd60e51b815260206004820152603a60248201527f50726f706f7361626c654f776e61626c653a20746869732063616c6c206d757360448201527f74206265206d61646520627920746865206e6577206f776e65720000000000006064820152608401610bb9565b6113e281611e58565b6033546001600160a01b031633146111ac5760405162461bcd60e51b815260206004820181905260248201527f4f776e61626c653a2063616c6c6572206973206e6f7420746865206f776e65726044820152606401610bb9565b5f54610100900460ff16611d4a5760405162461bcd60e51b8152600401610bb990615c34565b6111ac6120f1565b5f54610100900460ff16611d785760405162461bcd60e51b8152600401610bb990615c34565b6111ac612120565b5f8260ff168260ff161115611dae57611d998383615c7f565b611da490600a615d7b565b611a7a9085615d89565b611d998284615c7f565b611dc0612152565b6098805460ff191690557f5db9ee0a495bf2e6ff9c91a7834c1ba4fdd244a5e8aa4e537bd38aeae4b073aa335b604051611dfa91906151d5565b60405180910390a1565b5f808311611e245760405162461bcd60e51b8152600401610bb990615839565b835115611e3f57611e38878686868661219b565b9050611e4e565b611e4b868685856122e2565b90505b9695505050505050565b603380546001600160a01b038381166001600160a01b0319831681179093556040519116919082907f8be0079c531659141344cd1fd0a4f28419497f9722a3daafe3b4186f6b6457e0905f90a35050565b611eb1612470565b6098805460ff191660011790557f62e78cea01bee320cd4e420270b5ea74000d11b0c9f74754ebdbfc544b05a258611ded3390565b5f816020015190505f8260400151806020019051810190611f079190615db8565b90505f805f805f805f808a60600151806020019051810190611f299190615e91565b97509750975097509750975097509750875f03611f5b5760808b0151611f55818988878f8f89896124b6565b506120a7565b87600103611f7657611f718786858d8d86612af7565b6120a7565b87600203611f8b57611f718786858d8d613221565b87600303611fed57611f716040518061012001604052808981526020018881526020018781526020018681526020018481526020018c6001600160401b031681526020018b6001600160a01b0316815260200185815260200183815250613623565b876004036120a7575f8b6080015190506120a56040518061016001604052808a8152602001898152602001888152602001878152602001858152602001835f8151811061203c5761203c6156fc565b60200260200101515f01516001600160a01b03168152602001835f81518110612067576120676156fc565b60200260200101516020015181526020018d6001600160401b031681526020018c6001600160a01b03168152602001868152602001848152506139a6565b505b5050505050505050505050565b60408051915160248084019190915281518084039091018152604490920190526020810180516001600160e01b03166397a657c960e01b17905290565b5f54610100900460ff166121175760405162461bcd60e51b8152600401610bb990615c34565b6111ac33611e58565b5f54610100900460ff166121465760405162461bcd60e51b8152600401610bb990615c34565b6098805460ff19169055565b60985460ff166111ac5760405162461bcd60e51b815260206004820152601460248201527314185d5cd8589b194e881b9bdd081c185d5cd95960621b6044820152606401610bb9565b5f845f815181106121ae576121ae6156fc565b60200260200101516001600160a01b031663095ea7b387856040518363ffffffff1660e01b81526004016121e392919061577a565b6020604051808303815f875af11580156121ff573d5f803e3d5ffd5b505050506040513d601f19601f820116820180604052508101906122239190615793565b505f6040518060a0016040528061223a8888613bac565b81526001600160a01b038516602082015260400161225a4261012c615710565b8152602081018690525f6040918201525163c04b8d5960e01b81529091506001600160a01b0388169063c04b8d5990612297908490600401615fae565b6020604051808303815f875af11580156122b3573d5f803e3d5ffd5b505050506040513d601f19601f820116820180604052508101906122d79190615763565b979650505050505050565b5f80856001600160a01b031663d06ca61f85876040518363ffffffff1660e01b8152600401612312929190615b90565b5f60405180830381865afa15801561232c573d5f803e3d5ffd5b505050506040513d5f823e601f3d908101601f191682016040526123539190810190615c03565b9050845f81518110612367576123676156fc565b60200260200101516001600160a01b031663095ea7b387866040518363ffffffff1660e01b815260040161239c92919061577a565b6020604051808303815f875af11580156123b8573d5f803e3d5ffd5b505050506040513d601f19601f820116820180604052508101906123dc9190615793565b50604051635c11d79560e01b81526001600160a01b03871690635c11d795906124119087905f908a9089904290600401616005565b5f604051808303815f87803b158015612428575f80fd5b505af115801561243a573d5f803e3d5ffd5b50505050806001825161244d91906156e9565b8151811061245d5761245d6156fc565b6020026020010151915050949350505050565b60985460ff16156111ac5760405162461bcd60e51b815260206004820152601060248201526f14185d5cd8589b194e881c185d5cd95960821b6044820152606401610bb9565b6124e060405180608001604052805f81526020016060815260200160608152602001606081525090565b61265260d65f8b5f815181106124f8576124f86156fc565b60200260200101515f01516001600160a01b03166001600160a01b031681526020019081526020015f2080548060200260200160405190810160405280929190818152602001828054801561257457602002820191905f5260205f20905b81546001600160a01b03168152600190910190602001808311612556575b505050505060d85f8c5f8151811061258e5761258e6156fc565b60200260200101515f01516001600160a01b03166001600160a01b031681526020019081526020015f2080548060200260200160405190810160405280929190818152602001828054801561262957602002820191905f5260205f20905f905b82829054906101000a900462ffffff1662ffffff16815260200190600301906020826002010492830192600103820291508084116125ee5790505b50505050508b5f81518110612640576126406156fc565b60200260200101516020015130611242565b815287516001600160401b0381111561266d5761266d614e80565b604051908082528060200260200182016040528015612696578160200160208202803683370190505b50602082015287516001600160401b038111156126b5576126b5614e80565b6040519080825280602002602001820160405280156126de578160200160208202803683370190505b5060408201525f5b88518110156129ee575f835f81518110612702576127026156fc565b602002602001015185838151811061271c5761271c6156fc565b6020026020010151845f01516127329190615b17565b61273c9190615b2e565b90505f8073__$4c5f58e1f74d2276ee49bfc89b0138653d$__63e523140e8c868151811061276c5761276c6156fc565b60200260200101516040518263ffffffff1660e01b81526004016127909190616023565b5f60405180830381865af41580156127aa573d5f803e3d5ffd5b505050506040513d5f823e601f3d908101601f191682016040526127d19190810190616035565b60d2548e519294509092505f916001600160a01b03909116908e90879081106127fc576127fc6156fc565b60200260200101516001600160a01b03160361291d578c8581518110612824576128246156fc565b602090810291909101015160cc546040516370a0823160e01b81526001600160a01b03928316926370a0823192612860929116906004016151d5565b602060405180830381865afa15801561287b573d5f803e3d5ffd5b505050506040513d601f19601f8201168201806040525081019061289f9190615763565b60d25460cc5460405163a9059cbb60e01b81529293506001600160a01b039182169263a9059cbb926128d7921690889060040161577a565b6020604051808303815f875af11580156128f3573d5f803e3d5ffd5b505050506040513d601f19601f820116820180604052508101906129179190615793565b50612961565b6129418d8681518110612932576129326156fc565b602002602001015184846118fb565b60cc5490915061295f908490849087906001600160a01b0316611242565b505b5f6129868e8781518110612977576129776156fc565b602002602001015185856118fb565b9050612991826118d5565b876020015187815181106129a7576129a76156fc565b6020026020010181815250506129bc816118d5565b876040015187815181106129d2576129d26156fc565b60209081029190910101525050600190930192506126e6915050565b50604080515f80825260208201818152828401909352918a919083612a23565b6060815260200190600190039081612a0e5790505b50604080515f8082526020820190925290612a4e565b6060815260200190600190039081612a395790505b508a86602001518760400151604051602001612a71989796959493929190616122565b60405160208183030381529060405281606001819052505f612a9a86868460600151600161153b565b5f88815260da60205260409081902082905551909150879082907f7513d57665f5bbb438203d2f2a896f1f0791e1e8cd0e2d76d7bc421bfb4f49aa90612ae39042815260200190565b60405180910390a350505050505050505050565b6040805160018082528183019092525f91829190602080830190803683370190505090505f5b8851811015612f3d575f670de0b6b3a76400008a8381518110612b4257612b426156fc565b602090810291909101015160cc546040516370a0823160e01b81526001600160a01b03928316926370a0823192612b7e929116906004016151d5565b602060405180830381865afa158015612b99573d5f803e3d5ffd5b505050506040513d601f19601f82011682018060405250810190612bbd9190615763565b865f81518110612bcf57612bcf6156fc565b6020026020010151612be19190615b17565b612beb9190615b2e565b90505f8073__$4c5f58e1f74d2276ee49bfc89b0138653d$__63e523140e8c8681518110612c1b57612c1b6156fc565b60200260200101516040518263ffffffff1660e01b8152600401612c3f9190616023565b5f60405180830381865af4158015612c59573d5f803e3d5ffd5b505050506040513d5f823e601f3d908101601f19168201604052612c809190810190616035565b60d2548e519294509092506001600160a01b0316908d9086908110612ca757612ca76156fc565b60200260200101516001600160a01b031603612d475760cc5460d254604051631c20fadd60e01b81526001600160a01b0392831692631c20fadd92612cf592911690309088906004016161b6565b6020604051808303815f875af1158015612d11573d5f803e3d5ffd5b505050506040513d601f19601f82011682018060405250810190612d359190615793565b50612d408387615710565b9550612ee1565b60cc548c516001600160a01b0390911690631c20fadd908e9087908110612d7057612d706156fc565b602002602001015130866040518463ffffffff1660e01b8152600401612d98939291906161b6565b6020604051808303815f875af1158015612db4573d5f803e3d5ffd5b505050506040513d601f19601f82011682018060405250810190612dd89190615793565b506040516336dfb51f60e01b8152612ed49073__$4c5f58e1f74d2276ee49bfc89b0138653d$__906336dfb51f90612e1490869060040161551c565b5f60405180830381865af4158015612e2e573d5f803e3d5ffd5b505050506040513d5f823e601f3d908101601f19168201604052612e5591908101906155cb565b60405163013d59ed60e21b815273__$4c5f58e1f74d2276ee49bfc89b0138653d$__906304f567b490612e8c908690600401615604565b5f60405180830381865af4158015612ea6573d5f803e3d5ffd5b505050506040513d5f823e601f3d908101601f19168201604052612ecd91908101906156a4565b8530611242565b612ede9087615710565b95505b612f058c8581518110612ef657612ef66156fc565b602002602001015183836118fb565b855f81518110612f1757612f176156fc565b60200260200101818151612f2b9190615710565b9052505060019092019150612b1d9050565b506001600160401b0385165f90815260d460209081526040808320546001600160a01b0316835260d58252808320805482518185028101850190935280835261306093830182828015612fb757602002820191905f5260205f20905b81546001600160a01b03168152600190910190602001808311612f99575b5050506001600160401b038a165f90815260d460209081526040808320546001600160a01b0316835260d78252918290208054835181840281018401909452808452929450925083018282801561305457602002820191905f5260205f20905f905b82829054906101000a900462ffffff1662ffffff16815260200190600301906020826002010492830192600103820291508084116130195790505b50505050508530611242565b6040805160018082528183019092529192505f9190816020015b604080518082019091525f808252602082015281526020019060019003908161307a5750506001600160401b0388165f90815260d4602052604081205482519293506001600160a01b0316918391906130d5576130d56156fc565b60200260200101515f01906001600160a01b031690816001600160a01b03168152505081815f8151811061310b5761310b6156fc565b602090810291909101810151810191909152604080515f808252928101838152818301848152606083019093529092916001918e918461315b565b60608152602001906001900390816131465790505b50604080515f8082526020820190925290613186565b60608152602001906001900390816131715790505b508e8a886040516020016131a1989796959493929190616122565b60405160208183030381529060405290505f6131c18a838b876001613cbf565b5f8c815260d9602052604090819020829055519091508b9082907f2c80cd3884ced9a087f5eed6c8ddd78af4b449cdea210b92786f35bd496f53439061320a9042815260200190565b60405180910390a350505050505050505050505050565b604080515f8082526020820190925290505f86516001600160401b0381111561324c5761324c614e80565b604051908082528060200260200182016040528015613275578160200160208202803683370190505b5090505f5b875181101561357d575f8073__$4c5f58e1f74d2276ee49bfc89b0138653d$__63e523140e8a85815181106132b1576132b16156fc565b60200260200101516040518263ffffffff1660e01b81526004016132d59190616023565b5f60405180830381865af41580156132ef573d5f803e3d5ffd5b505050506040513d5f823e601f3d908101601f191682016040526133169190810190616035565b60d2548c519294509092506001600160a01b0316908b908590811061333d5761333d6156fc565b60200260200101516001600160a01b031603613406576133e38a8481518110613368576133686156fc565b602090810291909101015160cc546040516370a0823160e01b81526001600160a01b03928316926370a08231926133a4929116906004016151d5565b602060405180830381865afa1580156133bf573d5f803e3d5ffd5b505050506040513d601f19601f8201168201806040525081019061073e9190615763565b8484815181106133f5576133f56156fc565b602002602001018181525050613573565b5f61354873__$4c5f58e1f74d2276ee49bfc89b0138653d$__6336dfb51f856040518263ffffffff1660e01b8152600401613441919061551c565b5f60405180830381865af415801561345b573d5f803e3d5ffd5b505050506040513d5f823e601f3d908101601f1916820160405261348291908101906155cb565b60405163013d59ed60e21b815273__$4c5f58e1f74d2276ee49bfc89b0138653d$__906304f567b4906134b9908790600401615604565b5f60405180830381865af41580156134d3573d5f803e3d5ffd5b505050506040513d5f823e601f3d908101601f191682016040526134fa91908101906156a4565b8d878151811061350c5761350c6156fc565b602090810291909101015160cc546040516370a0823160e01b81526001600160a01b03928316926370a0823192611a22929116906004016151d5565b9050613553816118d5565b858581518110613565576135656156fc565b602002602001018181525050505b505060010161327a565b50604080515f80825260208201818152828401909352916002918a91846135b4565b606081526020019060019003908161359f5790505b50604080515f80825260208201909252906135df565b60608152602001906001900390816135ca5790505b508a87896040516020016135fa989796959493929190616122565b6040516020818303038152906040529050613618858583600161153b565b505050505050505050565b6136506040518060a001604052805f81526020015f81526020015f81526020015f81526020015f81525090565b815151815261010082015180515f9061366b5761366b6156fc565b6020026020010151816020018181525050816101000151600181518110613694576136946156fc565b60200260200101518160400181815250508161010001516002815181106136bd576136bd6156fc565b60200260200101518160800181815250505f6136fa82845f015185602001518660400151876060015188608001518960c001518a60e001516140b2565b60a08401516001600160401b03165f90815260d460209081526040808320546001600160a01b0316835260d582528083208054825181850281018501909352808352949550929361382b93919283018282801561377e57602002820191905f5260205f20905b81546001600160a01b03168152600190910190602001808311613760575b50505060a08801516001600160401b03165f90815260d460209081526040808320546001600160a01b0316835260d78252918290208054835181840281018401909452808452929450925083018282801561381f57602002820191905f5260205f20905f905b82829054906101000a900462ffffff1662ffffff16815260200190600301906020826002010492830192600103820291508084116137e45790505b50505050508430611242565b6040805160018082528183019092529192505f9190816020015b604080518082019091525f808252602082015281526020019060019003908161384557505060a08601516001600160401b03165f90815260d4602052604081205482519293506001600160a01b0316918391906138a4576138a46156fc565b60200260200101515f01906001600160a01b031690816001600160a01b03168152505081815f815181106138da576138da6156fc565b602090810291909101810151810191909152604080515f8082528184018084528951948a0151828252838501909452919390926003928461392b565b60608152602001906001900390816139165790505b50604080515f8082526020820190925290613956565b60608152602001906001900390816139415790505b508b60e001518788604051602001613975989796959493929190616122565b604051602081830303815290604052905061399c8760a00151828960c00151866001613cbf565b5050505050505050565b60a08101516001600160a01b03165f90815260d6602090815260408083208054825181850281018501909352808352613aae93830182828015613a1057602002820191905f5260205f20905b81546001600160a01b031681526001909101906020018083116139f2575b50505060a08601516001600160a01b03165f90815260d8602090815260409182902080548351818402810184019094528084529294509250830182828015613a9e57602002820191905f5260205f20905f905b82829054906101000a900462ffffff1662ffffff1681526020019060030190602082600201049283019260010382029150808411613a635790505b50505050508460c0015130611242565b9050613ad7825f015183602001518460400151856060015186608001518688610140015161423a565b6040805160018082528183019092525f916020808301908036833750506040805160018082528183019092529293505f929150602080830190803683375050604080515f8082526020820190925292935091600491508390819084613b4c565b6060815260200190600190039081613b375790505b50604080515f8082526020820190925290613b77565b6060815260200190600190039081613b625790505b508961012001518889604051602001613b97989796959493929190616122565b60408051601f19818403019052525050505050565b606081516001613bbc9190615710565b835114613c025760405162461bcd60e51b8152602060048201526014602482015273496e76616c696420696e7075742061727261797360601b6044820152606401610bb9565b5f5b8251811015613c6e5781848281518110613c2057613c206156fc565b6020026020010151848381518110613c3a57613c3a6156fc565b6020026020010151604051602001613c54939291906161f1565b60408051601f198184030181529190529150600101613c04565b50808360018551613c7f91906156e9565b81518110613c8f57613c8f6156fc565b6020026020010151604051602001613ca892919061622a565b604051602081830303815290604052905092915050565b815160ca545f9190600160a01b900461ffff16811115613d415760405162461bcd60e51b815260206004820152603760248201527f4d6178696d756d203520646966666572656e7420746f6b656e732063616e2062604482015276652073656e74207065722043434950204d65737361676560481b6064820152608401610bb9565b5f5b81811015613e4c5760ca5485516001600160a01b0390911690869083908110613d6e57613d6e6156fc565b60200260200101515f01516001600160a01b031614613e4457848181518110613d9957613d996156fc565b60200260200101515f01516001600160a01b031663095ea7b35f60029054906101000a90046001600160a01b0316878481518110613dd957613dd96156fc565b6020026020010151602001516040518363ffffffff1660e01b8152600401613e0292919061577a565b6020604051808303815f875af1158015613e1e573d5f803e3d5ffd5b505050506040513d601f19601f82011682018060405250810190613e429190615793565b505b600101613d43565b505f6040518060a0016040528087604051602001613e6a91906151d5565b60408051601f19818403018152918152908252602082018a905281018790526060016001866001811115613ea057613ea0615a30565b14613eab575f613eb8565b60ca546001600160a01b03165b6001600160a01b03168152602001613ee06040518060200160405280620dbba08152506120b4565b90525f80546040516320487ded60e01b81529293509091620100009091046001600160a01b0316906320487ded90613f1e908c908690600401615a44565b602060405180830381865afa158015613f39573d5f803e3d5ffd5b505050506040513d601f19601f82011682018060405250810190613f5d9190615763565b90505f6001866001811115613f7457613f74615a30565b03613ff6575f546040516396f4e9f960e01b8152620100009091046001600160a01b0316906396f4e9f990613faf908d908790600401615a44565b6020604051808303815f875af1158015613fcb573d5f803e3d5ffd5b505050506040513d601f19601f82011682018060405250810190613fef9190615763565b9050614072565b5f546040516396f4e9f960e01b8152620100009091046001600160a01b0316906396f4e9f990849061402e908e908890600401615a44565b60206040518083038185885af115801561404a573d5f803e3d5ffd5b50505050506040513d601f19601f8201168201806040525081019061406f9190615763565b90505b6040518181527f54791b38f3859327992a1ca0590ad3c0f08feba98d1a4f56ab0dca74d203392a9060200160405180910390a19998505050505050505050565b5f6140ff6040518061014001604052805f81526020015f81526020015f81526020015f81526020015f81526020015f81526020015f81526020015f81526020015f81526020015f81525090565b60d25460cc546040516370a0823160e01b81526001600160a01b03928316926370a0823192614133929116906004016151d5565b602060405180830381865afa15801561414e573d5f803e3d5ffd5b505050506040513d601f19601f820116820180604052508101906141729190615763565b60a0820181905260cc5461419391908b908a906001600160a01b031661486f565b606082015260208a015160808b01516141b59068056bc75e2d63100000615b17565b6141bf9190615b2e565b60e0820181905260408b015160608301516141da9190615b17565b6141e49190615b2e565b610100820181905260608201516141fb91906156e9565b61012082015261010081015160408b015160cc5461422892918b918a918a916001600160a01b0316614b39565b61012001519998505050505050505050565b61426d6040518060c001604052805f81526020015f81526020015f81526020015f81526020015f81526020015f81525090565b81600181518110614280576142806156fc565b602090810291909101810151825288519082015260d25460cc546040516370a0823160e01b81526001600160a01b03928316926370a08231926142c8929116906004016151d5565b602060405180830381865afa1580156142e3573d5f803e3d5ffd5b505050506040513d601f19601f820116820180604052508101906143079190615763565b60408201525f606082018190525b885181101561467e575f898281518110614331576143316156fc565b602002602001015190505f8073__$4c5f58e1f74d2276ee49bfc89b0138653d$__63e523140e8b8681518110614369576143696156fc565b60200260200101516040518263ffffffff1660e01b815260040161438d9190616023565b5f60405180830381865af41580156143a7573d5f803e3d5ffd5b505050506040513d5f823e601f3d908101601f191682016040526143ce9190810190616035565b60d25491935091505f906001600160a01b03908116908516036144735760cc5460d2546040808901519051631c20fadd60e01b81526001600160a01b0393841693631c20fadd93614427939116913091906004016161b6565b6020604051808303815f875af1158015614443573d5f803e3d5ffd5b505050506040513d601f19601f820116820180604052508101906144679190615793565b50506040850151614659565b60cc546040516370a0823160e01b81525f916001600160a01b03808816926370a08231926144a59216906004016151d5565b602060405180830381865afa1580156144c0573d5f803e3d5ffd5b505050506040513d601f19601f820116820180604052508101906144e49190615763565b60cc54604051631c20fadd60e01b81529192506001600160a01b031690631c20fadd90614519908890309086906004016161b6565b6020604051808303815f875af1158015614535573d5f803e3d5ffd5b505050506040513d601f19601f820116820180604052508101906145599190615793565b506040516336dfb51f60e01b81526146559073__$4c5f58e1f74d2276ee49bfc89b0138653d$__906336dfb51f9061459590889060040161551c565b5f60405180830381865af41580156145af573d5f803e3d5ffd5b505050506040513d5f823e601f3d908101601f191682016040526145d691908101906155cb565b60405163013d59ed60e21b815273__$4c5f58e1f74d2276ee49bfc89b0138653d$__906304f567b49061460d908890600401615604565b5f60405180830381865af4158015614627573d5f803e3d5ffd5b505050506040513d5f823e601f3d908101601f1916820160405261464e91908101906156a4565b8330611242565b9150505b808660600181815161466b9190615710565b9052505060019093019250614315915050565b50606081015161468e9084615710565b6080820152865160a08201525f5b8751811015613618575f8882815181106146b8576146b86156fc565b602002602001015190505f8683815181106146d5576146d56156fc565b602002602001015190505f8073__$4c5f58e1f74d2276ee49bfc89b0138653d$__63e523140e8b878151811061470d5761470d6156fc565b60200260200101516040518263ffffffff1660e01b81526004016147319190616023565b5f60405180830381865af415801561474b573d5f803e3d5ffd5b505050506040513d5f823e601f3d908101601f191682016040526147729190810190616035565b60d25491935091506001600160a01b03908116908516036148275760d25460cc54875160808901516001600160a01b039384169363a9059cbb931691906147ba908890615b17565b6147c49190615b2e565b6040518363ffffffff1660e01b81526004016147e192919061577a565b6020604051808303815f875af11580156147fd573d5f803e3d5ffd5b505050506040513d601f19601f820116820180604052508101906148219190615793565b5061485f565b5f61485c8383895f0151878b608001516148419190615b17565b61484b9190615b2e565b60cc546001600160a01b0316611242565b50505b50506001909201915061469c9050565b5f805b8451811015610b1a575f8073__$4c5f58e1f74d2276ee49bfc89b0138653d$__63e523140e8785815181106148a9576148a96156fc565b60200260200101516040518263ffffffff1660e01b81526004016148cd9190616023565b5f60405180830381865af41580156148e7573d5f803e3d5ffd5b505050506040513d5f823e601f3d908101601f1916820160405261490e9190810190616035565b60d25489519294509092505f916001600160a01b0390911690899086908110614939576149396156fc565b60200260200101516001600160a01b0316036149ce5760d254604051631c20fadd60e01b81526001600160a01b0388811692631c20fadd92614985929091169030908e906004016161b6565b6020604051808303815f875af11580156149a1573d5f803e3d5ffd5b505050506040513d601f19601f820116820180604052508101906149c59190615793565b50889050614b1e565b5f8885815181106149e1576149e16156fc565b60200260200101516001600160a01b03166370a08231886040518263ffffffff1660e01b8152600401614a1491906151d5565b602060405180830381865afa158015614a2f573d5f803e3d5ffd5b505050506040513d601f19601f82011682018060405250810190614a539190615763565b9050866001600160a01b0316631c20fadd8a8781518110614a7657614a766156fc565b602002602001015130846040518463ffffffff1660e01b8152600401614a9e939291906161b6565b6020604051808303815f875af1158015614aba573d5f803e3d5ffd5b505050506040513d601f19601f82011682018060405250810190614ade9190615793565b506040516336dfb51f60e01b8152614b1a9073__$4c5f58e1f74d2276ee49bfc89b0138653d$__906336dfb51f9061459590889060040161551c565b9150505b614b288186615710565b945050600190920191506148729050565b5f5b8551811015614d0a575f8073__$4c5f58e1f74d2276ee49bfc89b0138653d$__63e523140e888581518110614b7257614b726156fc565b60200260200101516040518263ffffffff1660e01b8152600401614b969190616023565b5f60405180830381865af4158015614bb0573d5f803e3d5ffd5b505050506040513d5f823e601f3d908101601f19168201604052614bd79190810190616035565b60d2548a519294509092506001600160a01b031690899085908110614bfe57614bfe6156fc565b60200260200101516001600160a01b031603614cc15760d25486516001600160a01b039091169063a9059cbb90869088908a9088908110614c4157614c416156fc565b60200260200101518d614c549190615b17565b614c5e9190615b2e565b6040518363ffffffff1660e01b8152600401614c7b92919061577a565b6020604051808303815f875af1158015614c97573d5f803e3d5ffd5b505050506040513d601f19601f82011682018060405250810190614cbb9190615793565b50614d00565b5f614cfd8383888a8881518110614cda57614cda6156fc565b60200260200101518e614ced9190615b17565b614cf79190615b2e565b88611242565b50505b5050600101614b3b565b50505050505050565b828054828255905f5260205f20908101928215614d66579160200282015b82811115614d6657825182546001600160a01b0319166001600160a01b03909116178255602090920191600190910190614d31565b50614d72929150614e16565b5090565b828054828255905f5260205f2090600901600a90048101928215614d66579160200282015f5b83821115614dde57835183826101000a81548162ffffff021916908362ffffff1602179055509260200192600301602081600201049283019260010302614d9c565b8015614e0d5782816101000a81549062ffffff0219169055600301602081600201049283019260010302614dde565b5050614d729291505b5b80821115614d72575f8155600101614e17565b5f60208284031215614e3a575f80fd5b81356001600160e01b031981168114611195575f80fd5b80356001600160401b0381168114614e67575f80fd5b919050565b6001600160a01b03811681146113e2575f80fd5b634e487b7160e01b5f52604160045260245ffd5b604080519081016001600160401b0381118282101715614eb657614eb6614e80565b60405290565b60405160a081016001600160401b0381118282101715614eb657614eb6614e80565b604051601f8201601f191681016001600160401b0381118282101715614f0657614f06614e80565b604052919050565b5f6001600160401b03821115614f2657614f26614e80565b5060051b60200190565b5f82601f830112614f3f575f80fd5b8135614f52614f4d82614f0e565b614ede565b8082825260208201915060208360051b860101925085831115614f73575f80fd5b602085015b83811015614f99578035614f8b81614e6c565b835260209283019201614f78565b5095945050505050565b62ffffff811681146113e2575f80fd5b5f82601f830112614fc2575f80fd5b8135614fd0614f4d82614f0e565b8082825260208201915060208360051b860101925085831115614ff1575f80fd5b602085015b83811015614f9957803561500981614fa3565b835260209283019201614ff6565b5f805f806080858703121561502a575f80fd5b61503385614e51565b9350602085013561504381614e6c565b925060408501356001600160401b0381111561505d575f80fd5b61506987828801614f30565b92505060608501356001600160401b03811115615084575f80fd5b61509087828801614fb3565b91505092959194509250565b5f805f606084860312156150ae575f80fd5b83356001600160401b038111156150c3575f80fd5b6150cf86828701614f30565b93505060208401356001600160401b038111156150ea575f80fd5b6150f686828701614fb3565b93969395505050506040919091013590565b5f805f805f805f805f6101208a8c031215615121575f80fd5b61512a8a614e51565b985060208a013561513a81614e6c565b975060408a013561514a81614e6c565b965060608a013561515a81614e6c565b955060808a013561516a81614e6c565b945060a08a013561517a81614e6c565b935060c08a013561518a81614e6c565b925060e08a013561519a81614e6c565b91506101008a01356151ab81614e6c565b809150509295985092959850929598565b5f602082840312156151cc575f80fd5b61119582614e51565b6001600160a01b0391909116815260200190565b5f602082840312156151f9575f80fd5b813561119581614e6c565b5f60208284031215615214575f80fd5b5035919050565b5f805f806080858703121561522e575f80fd5b84356001600160401b03811115615243575f80fd5b61524f87828801614f30565b94505060208501356001600160401b0381111561526a575f80fd5b61527687828801614fb3565b93505060408501359150606085013561528e81614e6c565b939692955090935050565b5f80604083850312156152aa575f80fd5b82356152b581614e6c565b946020939093013593505050565b5f602082840312156152d3575f80fd5b81356001600160401b038111156152e8575f80fd5b820160a08185031215611195575f80fd5b5f81518084528060208401602086015e5f602082860101526020601f19601f83011685010191505092915050565b6001600160401b03861681526001600160a01b038516602082015260a0604082018190525f90615359908301866152f9565b6001600160a01b0394909416606083015250608001529392505050565b5f6001600160401b0382111561538e5761538e614e80565b50601f01601f191660200190565b5f82601f8301126153ab575f80fd5b81356153b9614f4d82615376565b8181528460208386010111156153cd575f80fd5b816020850160208301375f918101602001919091529392505050565b5f805f80608085870312156153fc575f80fd5b61540585614e51565b9350602085013561541581614e6c565b925060408501356001600160401b0381111561542f575f80fd5b61543b8782880161539c565b92505060608501356002811061528e575f80fd5b5f805f60608486031215615461575f80fd5b833561546c81614e6c565b925060208401356001600160401b03811115615486575f80fd5b61549286828701614f30565b92505060408401356001600160401b038111156154ad575f80fd5b6154b986828701614fb3565b9150509250925092565b5f805f80608085870312156154d6575f80fd5b84356154e181614e6c565b935060208501356154f181614e6c565b925060408501356001600160801b038116811461550c575f80fd5b9150606085013561528e81614fa3565b602080825282518282018190525f918401906040840190835b8181101561555c5783516001600160a01b0316835260209384019390920191600101615535565b509095945050505050565b5f82601f830112615576575f80fd5b8151615584614f4d82614f0e565b8082825260208201915060208360051b8601019250858311156155a5575f80fd5b602085015b83811015614f995780516155bd81614e6c565b8352602092830192016155aa565b5f602082840312156155db575f80fd5b81516001600160401b038111156155f0575f80fd5b6155fc84828501615567565b949350505050565b602080825282518282018190525f918401906040840190835b8181101561555c57835162ffffff1683526020938401939092019160010161561d565b5f82601f83011261564f575f80fd5b815161565d614f4d82614f0e565b8082825260208201915060208360051b86010192508583111561567e575f80fd5b602085015b83811015614f9957805161569681614fa3565b835260209283019201615683565b5f602082840312156156b4575f80fd5b81516001600160401b038111156156c9575f80fd5b6155fc84828501615640565b634e487b7160e01b5f52601160045260245ffd5b8181038181111561084c5761084c6156d5565b634e487b7160e01b5f52603260045260245ffd5b8082018082111561084c5761084c6156d5565b6001600160a01b03958616815293851660208501529190931660408301526001600160801b03909216606082015262ffffff909116608082015260a00190565b5f60208284031215615773575f80fd5b5051919050565b6001600160a01b03929092168252602082015260400190565b5f602082840312156157a3575f80fd5b81518015158114611195575f80fd5b805169ffffffffffffffffffff81168114614e67575f80fd5b5f805f805f60a086880312156157df575f80fd5b6157e8866157b2565b6020870151604088015160608901519297509095509350915061580d608087016157b2565b90509295509295909350565b5f60208284031215615829575f80fd5b815160ff81168114611195575f80fd5b6020808252818101527f416d6f756e74206d7573742062652067726561746572207468616e207a65726f604082015260600190565b5f82601f83011261587d575f80fd5b813561588b614f4d82614f0e565b8082825260208201915060208360061b8601019250858311156158ac575f80fd5b602085015b83811015614f9957604081880312156158c8575f80fd5b6158d0614e94565b81356158db81614e6c565b81526020828101358183015290845292909201916040016158b1565b5f60a08236031215615907575f80fd5b61590f614ebc565b8235815261591f60208401614e51565b602082015260408301356001600160401b0381111561593c575f80fd5b6159483682860161539c565b60408301525060608301356001600160401b03811115615966575f80fd5b6159723682860161539c565b60608301525060808301356001600160401b03811115615990575f80fd5b61599c3682860161586e565b60808301525092915050565b600181811c908216806159bc57607f821691505b6020821081036159da57634e487b7160e01b5f52602260045260245ffd5b50919050565b60208082526030908201527f50726f706f7361626c654f776e61626c653a206e6577206f776e65722069732060408201526f746865207a65726f206164647265737360801b606082015260800190565b634e487b7160e01b5f52602160045260245ffd5b6001600160401b0383168152604060208201525f825160a06040840152615a6e60e08401826152f9565b90506020840151603f19848303016060850152615a8b82826152f9565b6040860151858203603f190160808701528051808352602091820194505f93509101905b80831015615ae657835180516001600160a01b03168352602090810151818401529093019260019290920191604090910190615aaf565b5060608601516001600160a01b031660a08601526080860151858203603f190160c087015292506122d781846152f9565b808202811582820484141761084c5761084c6156d5565b5f82615b4857634e487b7160e01b5f52601260045260245ffd5b500490565b5f8151808452602084019350602083015f5b82811015615b865781516001600160a01b0316865260209586019590910190600101615b5f565b5093949350505050565b828152604060208201525f6155fc6040830184615b4d565b5f82601f830112615bb7575f80fd5b8151615bc5614f4d82614f0e565b8082825260208201915060208360051b860101925085831115615be6575f80fd5b602085015b83811015614f99578051835260209283019201615beb565b5f60208284031215615c13575f80fd5b81516001600160401b03811115615c28575f80fd5b6155fc84828501615ba8565b6020808252602b908201527f496e697469616c697a61626c653a20636f6e7472616374206973206e6f74206960408201526a6e697469616c697a696e6760a81b606082015260800190565b60ff828116828216039081111561084c5761084c6156d5565b6001815b6001841115615cd357808504811115615cb757615cb76156d5565b6001841615615cc557908102905b60019390931c928002615c9c565b935093915050565b5f82615ce95750600161084c565b81615cf557505f61084c565b8160018114615d0b5760028114615d1557615d31565b600191505061084c565b60ff841115615d2657615d266156d5565b50506001821b61084c565b5060208310610133831016604e8410600b8410161715615d54575081810a61084c565b615d605f198484615c98565b805f1904821115615d7357615d736156d5565b029392505050565b5f61119560ff841683615cdb565b8082025f8212600160ff1b84141615615da457615da46156d5565b818105831482151761084c5761084c6156d5565b5f60208284031215615dc8575f80fd5b815161119581614e6c565b5f82601f830112615de2575f80fd5b8151615df0614f4d82614f0e565b8082825260208201915060208360051b860101925085831115615e11575f80fd5b602085015b83811015614f995780516001600160401b03811115615e33575f80fd5b8601603f81018813615e43575f80fd5b6020810151615e54614f4d82615376565b8181526040838301018a1015615e68575f80fd5b8160408401602083015e5f60208383010152808652505050602083019250602081019050615e16565b5f805f805f805f80610100898b031215615ea9575f80fd5b885160208a01519098506001600160401b03811115615ec6575f80fd5b615ed28b828c01615567565b97505060408901516001600160401b03811115615eed575f80fd5b615ef98b828c01615567565b96505060608901516001600160401b03811115615f14575f80fd5b615f208b828c01615dd3565b95505060808901516001600160401b03811115615f3b575f80fd5b615f478b828c01615dd3565b60a08b015160c08c0151919650945090506001600160401b03811115615f6b575f80fd5b615f778b828c01615ba8565b92505060e08901516001600160401b03811115615f92575f80fd5b615f9e8b828c01615ba8565b9150509295985092959890939650565b602081525f825160a06020840152615fc960c08401826152f9565b905060018060a01b0360208501511660408401526040840151606084015260608401516080840152608084015160a08401528091505092915050565b85815284602082015260a060408201525f61535960a0830186615b4d565b602081525f61119560208301846152f9565b5f8060408385031215616046575f80fd5b82516001600160401b0381111561605b575f80fd5b61606785828601615567565b92505060208301516001600160401b03811115616082575f80fd5b61608e85828601615640565b9150509250929050565b5f82825180855260208501945060208160051b830101602085015f5b838110156160e657601f198584030188526160d08383516152f9565b60209889019890935091909101906001016160b4565b50909695505050505050565b5f8151808452602084019350602083015f5b82811015615b86578151865260209586019590910190600101616104565b60ff8916815261010060208201525f61613f61010083018a615b4d565b8281036040840152616151818a615b4d565b905082810360608401526161658189616098565b905082810360808401526161798188616098565b90508560a084015282810360c084015261619381866160f2565b905082810360e08401526161a781856160f2565b9b9a5050505050505050505050565b6001600160a01b039384168152919092166020820152604081019190915260600190565b5f81518060208401855e5f93019283525090919050565b5f6161fc82866161da565b60609490941b6001600160601b0319168452505060e81b6001600160e81b0319166014820152601701919050565b5f61623582856161da565b60609390931b6001600160601b0319168352505060140191905056fea264697066735822122034191611216e6022879296c1753db65b0d3a8f89ad399a3b13d43199988be5eb64736f6c634300081a0033","linkReferences":{"contracts/libraries/PathHelpers.sol":{"PathHelpers":[{"start":2300,"length":20},{"start":2465,"length":20},{"start":6430,"length":20},{"start":6563,"length":20},{"start":10078,"length":20},{"start":11277,"length":20},{"start":11784,"length":20},{"start":11904,"length":20},{"start":12963,"length":20},{"start":13352,"length":20},{"start":13485,"length":20},{"start":17243,"length":20},{"start":17801,"length":20},{"start":17921,"length":20},{"start":18175,"length":20},{"start":18587,"length":20},{"start":19214,"length":20},{"start":19300,"length":20}]}}},"methodIdentifiers":{"ccipReceive((bytes32,uint64,bytes,bytes,(address,uint256)[]))":"85572ffb","convertEthToUsd(uint256)":"c086381e","crossChainToken(uint64)":"19da7e2a","currentChainSelector()":"3d54cb6f","estimateAmountOut(address,address,uint128,uint24)":"ee7bd3e2","estimateAmountOutWithPath(address[],uint24[],uint256)":"16d9f6bd","factoryV3()":"1d5f45f5","fromETHFees(address,uint256)":"8e08b945","fromETHPath(address,uint256)":"709a04f2","getAmountOut(address[],uint24[],uint256)":"dfbd3897","getRouter()":"b0f479a1","getTokenCurrentValue(address,address[],uint24[])":"ca29b6ba","i_link()":"7d253aff","i_maxTokensLength()":"5b6a0351","initialize(uint64,address,address,address,address,address,address,address,address)":"17c27b76","issuanceMessageIdByNonce(uint256)":"9121c717","messageDetail(bytes32)":"9c3ddb2e","owner()":"8da5cb5b","pause()":"8456cb59","paused()":"5c975abb","priceInWei()":"3c8da588","priceOracle()":"2630c12f","proposeOwner(address)":"b5ed298a","proposedOwner()":"d153b60c","quoter()":"c6bbd5a7","redemptionMessageIdByNonce(uint256)":"306b3a28","renounceOwnership()":"715018a6","sendMessage(uint64,address,bytes,uint8)":"bcab90b3","setCcipRouter(address)":"27bf9b44","setCrossChainToken(uint64,address,address[],uint24[])":"0ecdc1c6","setPriceOracle(address)":"530e784f","setVault(address)":"6817031b","supportsInterface(bytes4)":"01ffc9a7","swap(address[],uint24[],uint256,address)":"5c1a094c","swapRouterV2()":"744fbc7a","swapRouterV3()":"b631e80b","toETHFees(address,uint256)":"7edbc2ff","toETHPath(address,uint256)":"91b31b5b","toUsdPriceFeed()":"63973fda","transferOwnership(address)":"f2fde38b","unpause()":"3f4ba83a","vault()":"fbfa77cf","weth()":"3fc8cef3"},"id":32}