{"abi":[{"type":"receive","stateMutability":"payable"},{"type":"function","name":"ccipReceive","inputs":[{"name":"message","type":"tuple","internalType":"struct Client.Any2EVMMessage","components":[{"name":"messageId","type":"bytes32","internalType":"bytes32"},{"name":"sourceChainSelector","type":"uint64","internalType":"uint64"},{"name":"sender","type":"bytes","internalType":"bytes"},{"name":"data","type":"bytes","internalType":"bytes"},{"name":"destTokenAmounts","type":"tuple[]","internalType":"struct Client.EVMTokenAmount[]","components":[{"name":"token","type":"address","internalType":"address"},{"name":"amount","type":"uint256","internalType":"uint256"}]}]}],"outputs":[],"stateMutability":"nonpayable"},{"type":"function","name":"convertEthToUsd","inputs":[{"name":"_ethAmount","type":"uint256","internalType":"uint256"}],"outputs":[{"name":"","type":"uint256","internalType":"uint256"}],"stateMutability":"view"},{"type":"function","name":"crossChainToken","inputs":[{"name":"","type":"uint64","internalType":"uint64"}],"outputs":[{"name":"","type":"address","internalType":"address"}],"stateMutability":"view"},{"type":"function","name":"crossChainTokenSwapFee","inputs":[{"name":"","type":"uint64","internalType":"uint64"},{"name":"","type":"address","internalType":"address"}],"outputs":[{"name":"","type":"uint24","internalType":"uint24"}],"stateMutability":"view"},{"type":"function","name":"currentChainSelector","inputs":[],"outputs":[{"name":"","type":"uint64","internalType":"uint64"}],"stateMutability":"view"},{"type":"function","name":"estimateAmountOut","inputs":[{"name":"tokenIn","type":"address","internalType":"address"},{"name":"tokenOut","type":"address","internalType":"address"},{"name":"amountIn","type":"uint128","internalType":"uint128"},{"name":"fee","type":"uint24","internalType":"uint24"}],"outputs":[{"name":"amountOut","type":"uint256","internalType":"uint256"}],"stateMutability":"view"},{"type":"function","name":"factoryV3","inputs":[],"outputs":[{"name":"","type":"address","internalType":"contract IUniswapV3Factory"}],"stateMutability":"view"},{"type":"function","name":"fee","inputs":[],"outputs":[{"name":"","type":"uint256","internalType":"uint256"}],"stateMutability":"view"},{"type":"function","name":"feeRate","inputs":[],"outputs":[{"name":"","type":"uint8","internalType":"uint8"}],"stateMutability":"view"},{"type":"function","name":"feeRatePerDayScaled","inputs":[],"outputs":[{"name":"","type":"uint256","internalType":"uint256"}],"stateMutability":"view"},{"type":"function","name":"feeReceiver","inputs":[],"outputs":[{"name":"","type":"address","internalType":"address"}],"stateMutability":"view"},{"type":"function","name":"feeTimestamp","inputs":[],"outputs":[{"name":"","type":"uint256","internalType":"uint256"}],"stateMutability":"view"},{"type":"function","name":"getAmountOut","inputs":[{"name":"tokenIn","type":"address","internalType":"address"},{"name":"tokenOut","type":"address","internalType":"address"},{"name":"amountIn","type":"uint256","internalType":"uint256"},{"name":"_swapFee","type":"uint24","internalType":"uint24"}],"outputs":[{"name":"finalAmountOut","type":"uint256","internalType":"uint256"}],"stateMutability":"view"},{"type":"function","name":"getRouter","inputs":[],"outputs":[{"name":"","type":"address","internalType":"address"}],"stateMutability":"view"},{"type":"function","name":"i_link","inputs":[],"outputs":[{"name":"","type":"address","internalType":"address"}],"stateMutability":"view"},{"type":"function","name":"i_maxTokensLength","inputs":[],"outputs":[{"name":"","type":"uint16","internalType":"uint16"}],"stateMutability":"view"},{"type":"function","name":"initialize","inputs":[{"name":"_currentChainSelector","type":"uint64","internalType":"uint64"},{"name":"_vault","type":"address","internalType":"address payable"},{"name":"_chainlinkToken","type":"address","internalType":"address"},{"name":"_router","type":"address","internalType":"address"},{"name":"_weth","type":"address","internalType":"address"},{"name":"_swapRouterV3","type":"address","internalType":"address"},{"name":"_factoryV3","type":"address","internalType":"address"},{"name":"_swapRouterV2","type":"address","internalType":"address"},{"name":"_toUsdPriceFeed","type":"address","internalType":"address"}],"outputs":[],"stateMutability":"nonpayable"},{"type":"function","name":"isRestricted","inputs":[{"name":"","type":"address","internalType":"address"}],"outputs":[{"name":"","type":"bool","internalType":"bool"}],"stateMutability":"view"},{"type":"function","name":"issuanceCompletedTokensCount","inputs":[{"name":"","type":"uint256","internalType":"uint256"}],"outputs":[{"name":"","type":"uint256","internalType":"uint256"}],"stateMutability":"view"},{"type":"function","name":"issuanceMessageIdByNonce","inputs":[{"name":"","type":"uint256","internalType":"uint256"}],"outputs":[{"name":"","type":"bytes32","internalType":"bytes32"}],"stateMutability":"view"},{"type":"function","name":"issuanceTokenOldAndNewValues","inputs":[{"name":"","type":"uint256","internalType":"uint256"},{"name":"","type":"address","internalType":"address"}],"outputs":[{"name":"oldTokenValue","type":"uint256","internalType":"uint256"},{"name":"newTokenValue","type":"uint256","internalType":"uint256"}],"stateMutability":"view"},{"type":"function","name":"latestFeeUpdate","inputs":[],"outputs":[{"name":"","type":"uint256","internalType":"uint256"}],"stateMutability":"view"},{"type":"function","name":"messageDetail","inputs":[{"name":"","type":"bytes32","internalType":"bytes32"}],"outputs":[{"name":"sourceChainSelector","type":"uint64","internalType":"uint64"},{"name":"sender","type":"address","internalType":"address"},{"name":"message","type":"string","internalType":"string"},{"name":"token","type":"address","internalType":"address"},{"name":"amount","type":"uint256","internalType":"uint256"}],"stateMutability":"view"},{"type":"function","name":"methodologist","inputs":[],"outputs":[{"name":"","type":"address","internalType":"address"}],"stateMutability":"view"},{"type":"function","name":"methodology","inputs":[],"outputs":[{"name":"","type":"string","internalType":"string"}],"stateMutability":"view"},{"type":"function","name":"minter","inputs":[],"outputs":[{"name":"","type":"address","internalType":"address"}],"stateMutability":"view"},{"type":"function","name":"oraclePayment","inputs":[],"outputs":[{"name":"","type":"uint256","internalType":"uint256"}],"stateMutability":"view"},{"type":"function","name":"owner","inputs":[],"outputs":[{"name":"","type":"address","internalType":"address"}],"stateMutability":"view"},{"type":"function","name":"pause","inputs":[],"outputs":[],"stateMutability":"nonpayable"},{"type":"function","name":"paused","inputs":[],"outputs":[{"name":"","type":"bool","internalType":"bool"}],"stateMutability":"view"},{"type":"function","name":"priceInWei","inputs":[],"outputs":[{"name":"","type":"uint256","internalType":"uint256"}],"stateMutability":"view"},{"type":"function","name":"priceOracle","inputs":[],"outputs":[{"name":"","type":"address","internalType":"address"}],"stateMutability":"view"},{"type":"function","name":"proposeOwner","inputs":[{"name":"_proposedOwner","type":"address","internalType":"address"}],"outputs":[],"stateMutability":"nonpayable"},{"type":"function","name":"proposedOwner","inputs":[],"outputs":[{"name":"","type":"address","internalType":"address"}],"stateMutability":"view"},{"type":"function","name":"quoter","inputs":[],"outputs":[{"name":"","type":"address","internalType":"contract IQuoter"}],"stateMutability":"view"},{"type":"function","name":"receivedMessages","inputs":[{"name":"","type":"uint256","internalType":"uint256"}],"outputs":[{"name":"","type":"bytes32","internalType":"bytes32"}],"stateMutability":"view"},{"type":"function","name":"redemptionMessageIdByNonce","inputs":[{"name":"","type":"uint256","internalType":"uint256"}],"outputs":[{"name":"","type":"bytes32","internalType":"bytes32"}],"stateMutability":"view"},{"type":"function","name":"renounceOwnership","inputs":[],"outputs":[],"stateMutability":"nonpayable"},{"type":"function","name":"sendMessage","inputs":[{"name":"destinationChainSelector","type":"uint64","internalType":"uint64"},{"name":"receiver","type":"address","internalType":"address"},{"name":"_data","type":"bytes","internalType":"bytes"},{"name":"payFeesIn","type":"uint8","internalType":"enum CrossChainIndexFactory.PayFeesIn"}],"outputs":[{"name":"","type":"bytes32","internalType":"bytes32"}],"stateMutability":"nonpayable"},{"type":"function","name":"setCcipRouter","inputs":[{"name":"_router","type":"address","internalType":"address"}],"outputs":[],"stateMutability":"nonpayable"},{"type":"function","name":"setCrossChainToken","inputs":[{"name":"_chainSelector","type":"uint64","internalType":"uint64"},{"name":"_crossChainToken","type":"address","internalType":"address"},{"name":"_swapFee","type":"uint24","internalType":"uint24"}],"outputs":[],"stateMutability":"nonpayable"},{"type":"function","name":"setPriceOracle","inputs":[{"name":"_priceOracle","type":"address","internalType":"address"}],"outputs":[],"stateMutability":"nonpayable"},{"type":"function","name":"setVault","inputs":[{"name":"_vault","type":"address","internalType":"address payable"}],"outputs":[],"stateMutability":"nonpayable"},{"type":"function","name":"sourceChainSelectorF","inputs":[],"outputs":[{"name":"","type":"uint64","internalType":"uint64"}],"stateMutability":"view"},{"type":"function","name":"supplyCeiling","inputs":[],"outputs":[{"name":"","type":"uint256","internalType":"uint256"}],"stateMutability":"view"},{"type":"function","name":"supportsInterface","inputs":[{"name":"interfaceId","type":"bytes4","internalType":"bytes4"}],"outputs":[{"name":"","type":"bool","internalType":"bool"}],"stateMutability":"pure"},{"type":"function","name":"swap","inputs":[{"name":"tokenIn","type":"address","internalType":"address"},{"name":"tokenOut","type":"address","internalType":"address"},{"name":"amountIn","type":"uint256","internalType":"uint256"},{"name":"_recipient","type":"address","internalType":"address"},{"name":"_swapFee","type":"uint24","internalType":"uint24"}],"outputs":[{"name":"outputAmount","type":"uint256","internalType":"uint256"}],"stateMutability":"nonpayable"},{"type":"function","name":"swapRouterV2","inputs":[],"outputs":[{"name":"","type":"address","internalType":"contract IUniswapV2Router02"}],"stateMutability":"view"},{"type":"function","name":"swapRouterV3","inputs":[],"outputs":[{"name":"","type":"address","internalType":"contract ISwapRouter"}],"stateMutability":"view"},{"type":"function","name":"testData","inputs":[],"outputs":[{"name":"","type":"uint256","internalType":"uint256"}],"stateMutability":"view"},{"type":"function","name":"testData2","inputs":[],"outputs":[{"name":"","type":"uint256","internalType":"uint256"}],"stateMutability":"view"},{"type":"function","name":"testData3","inputs":[],"outputs":[{"name":"","type":"uint64","internalType":"uint64"}],"stateMutability":"view"},{"type":"function","name":"toUsdPriceFeed","inputs":[],"outputs":[{"name":"","type":"address","internalType":"contract AggregatorV3Interface"}],"stateMutability":"view"},{"type":"function","name":"transferOwnership","inputs":[{"name":"newOwner","type":"address","internalType":"address"}],"outputs":[],"stateMutability":"nonpayable"},{"type":"function","name":"unpause","inputs":[],"outputs":[],"stateMutability":"nonpayable"},{"type":"function","name":"vault","inputs":[],"outputs":[{"name":"","type":"address","internalType":"contract Vault"}],"stateMutability":"view"},{"type":"function","name":"weth","inputs":[],"outputs":[{"name":"","type":"address","internalType":"contract IWETH"}],"stateMutability":"view"},{"type":"event","name":"ChainlinkCancelled","inputs":[{"name":"id","type":"bytes32","indexed":true,"internalType":"bytes32"}],"anonymous":false},{"type":"event","name":"ChainlinkFulfilled","inputs":[{"name":"id","type":"bytes32","indexed":true,"internalType":"bytes32"}],"anonymous":false},{"type":"event","name":"ChainlinkRequested","inputs":[{"name":"id","type":"bytes32","indexed":true,"internalType":"bytes32"}],"anonymous":false},{"type":"event","name":"Initialized","inputs":[{"name":"version","type":"uint8","indexed":false,"internalType":"uint8"}],"anonymous":false},{"type":"event","name":"Issuanced","inputs":[{"name":"messageId","type":"bytes32","indexed":true,"internalType":"bytes32"},{"name":"nonce","type":"uint256","indexed":true,"internalType":"uint256"},{"name":"time","type":"uint256","indexed":false,"internalType":"uint256"}],"anonymous":false},{"type":"event","name":"MessageSent","inputs":[{"name":"messageId","type":"bytes32","indexed":false,"internalType":"bytes32"}],"anonymous":false},{"type":"event","name":"OwnershipTransferred","inputs":[{"name":"previousOwner","type":"address","indexed":true,"internalType":"address"},{"name":"newOwner","type":"address","indexed":true,"internalType":"address"}],"anonymous":false},{"type":"event","name":"Paused","inputs":[{"name":"account","type":"address","indexed":false,"internalType":"address"}],"anonymous":false},{"type":"event","name":"Redemption","inputs":[{"name":"messageId","type":"bytes32","indexed":true,"internalType":"bytes32"},{"name":"nonce","type":"uint256","indexed":true,"internalType":"uint256"},{"name":"time","type":"uint256","indexed":false,"internalType":"uint256"}],"anonymous":false},{"type":"event","name":"Unpaused","inputs":[{"name":"account","type":"address","indexed":false,"internalType":"address"}],"anonymous":false},{"type":"error","name":"InvalidRouter","inputs":[{"name":"router","type":"address","internalType":"address"}]}],"bytecode":{"object":"0x6080604052348015600f57600080fd5b50614a5f8061001f6000396000f3fe60806040526004361061037a5760003560e01c80637d253aff116101d1578063b5ed298a11610102578063d153b60c116100a0578063f0cd5b721161006f578063f0cd5b7214610adf578063f2fde38b14610aff578063fbfa77cf14610b1f578063ff5474f014610b3f57600080fd5b8063d153b60c14610a69578063dd811ac914610a89578063ddca3f4314610aa9578063ee7bd3e214610abf57600080fd5b8063c01bc982116100dc578063c01bc982146109d9578063c086381e14610a09578063c6bbd5a714610a29578063d030366c14610a4957600080fd5b8063b5ed298a14610979578063b631e80b14610999578063bcab90b3146109b957600080fd5b8063940373691161016f5780639eeb1d50116101495780639eeb1d50146108f35780639f8e67bf14610915578063b0f479a114610935578063b3f006741461095957600080fd5b80639403736914610869578063978bbdb9146108965780639c3ddb2e146108c257600080fd5b80638456cb59116101ab5780638456cb59146107e957806385572ffb146107fe5780638da5cb5b1461081e5780639121c7171461083c57600080fd5b80637d253aff146107555780637e79f5121461077557806381b152791461079557600080fd5b8063306b3a28116102ab5780635b6a035111610249578063652354ae11610223578063652354ae146106af5780636817031b14610700578063715018a614610720578063744fbc7a1461073557600080fd5b80635b6a0351146106425780635c975abb1461067757806363973fda1461068f57600080fd5b80633d54cb6f116102855780633d54cb6f146105cd5780633f4ba83a146105ed5780633fc8cef314610602578063530e784f1461062257600080fd5b8063306b3a28146105755780633421fa29146105a25780633c8da588146105b857600080fd5b806319da7e2a1161031857806327bf9b44116102f257806327bf9b44146104f15780632b0f9e0a146105115780632b52684d146105495780632fecd5891461055f57600080fd5b806319da7e2a1461047b5780631d5f45f5146104b15780632630c12f146104d157600080fd5b8063075461721161035457806307546172146103f55780630c02e1301461042d57806317c27b7614610443578063184a732f1461046557600080fd5b8063011ced5f14610386578063016cbd51146103af57806301ffc9a7146103c557600080fd5b3661038157005b600080fd5b34801561039257600080fd5b5061039c60d65481565b6040519081526020015b60405180910390f35b3480156103bb57600080fd5b5061039c60f15481565b3480156103d157600080fd5b506103e56103e0366004613af3565b610b5f565b60405190151581526020016103a6565b34801561040157600080fd5b5060dd54610415906001600160a01b031681565b6040516001600160a01b0390911681526020016103a6565b34801561043957600080fd5b5061039c60e15481565b34801561044f57600080fd5b5061046361045e366004613b4e565b610b96565b005b34801561047157600080fd5b5061039c60d95481565b34801561048757600080fd5b50610415610496366004613c08565b60e8602052600090815260409020546001600160a01b031681565b3480156104bd57600080fd5b5060e454610415906001600160a01b031681565b3480156104dd57600080fd5b5060dc54610415906001600160a01b031681565b3480156104fd57600080fd5b5061046361050c366004613c23565b610e2a565b34801561051d57600080fd5b5060f054610531906001600160401b031681565b6040516001600160401b0390911681526020016103a6565b34801561055557600080fd5b5061039c60df5481565b34801561056b57600080fd5b5061039c60d85481565b34801561058157600080fd5b5061039c610590366004613c40565b60ee6020526000908152604090205481565b3480156105ae57600080fd5b5061039c60f25481565b3480156105c457600080fd5b5061039c610e5c565b3480156105d957600080fd5b5060d754610531906001600160401b031681565b3480156105f957600080fd5b50610463610f6a565b34801561060e57600080fd5b5060e654610415906001600160a01b031681565b34801561062e57600080fd5b5061046361063d366004613c23565b610f7c565b34801561064e57600080fd5b5060d05461066490600160a01b900461ffff1681565b60405161ffff90911681526020016103a6565b34801561068357600080fd5b50609e5460ff166103e5565b34801561069b57600080fd5b5060e254610415906001600160a01b031681565b3480156106bb57600080fd5b506106ec6106ca366004613c59565b60e960209081526000928352604080842090915290825290205462ffffff1681565b60405162ffffff90911681526020016103a6565b34801561070c57600080fd5b5061046361071b366004613c23565b611010565b34801561072c57600080fd5b5061046361103a565b34801561074157600080fd5b5060e554610415906001600160a01b031681565b34801561076157600080fd5b5060d054610415906001600160a01b031681565b34801561078157600080fd5b5061039c610790366004613ca3565b61104c565b3480156107a157600080fd5b506107d46107b0366004613d07565b60ec6020908152600092835260408084209091529082529020805460019091015482565b604080519283526020830191909152016103a6565b3480156107f557600080fd5b5061046361107a565b34801561080a57600080fd5b50610463610819366004613d2c565b61108a565b34801561082a57600080fd5b506039546001600160a01b0316610415565b34801561084857600080fd5b5061039c610857366004613c40565b60ef6020526000908152604090205481565b34801561087557600080fd5b5061039c610884366004613c40565b60ed6020526000908152604090205481565b3480156108a257600080fd5b5060d5546108b09060ff1681565b60405160ff90911681526020016103a6565b3480156108ce57600080fd5b506108e26108dd366004613c40565b6110d1565b6040516103a6959493929190613dac565b3480156108ff57600080fd5b506109086111ad565b6040516103a69190613dfc565b34801561092157600080fd5b5060db54610415906001600160a01b031681565b34801561094157600080fd5b506000546201000090046001600160a01b0316610415565b34801561096557600080fd5b5060da54610415906001600160a01b031681565b34801561098557600080fd5b50610463610994366004613c23565b61123b565b3480156109a557600080fd5b5060e354610415906001600160a01b031681565b3480156109c557600080fd5b5061039c6109d4366004613f0e565b61128b565b3480156109e557600080fd5b506103e56109f4366004613c23565b60e06020526000908152604090205460ff1681565b348015610a1557600080fd5b5061039c610a24366004613c40565b611540565b348015610a3557600080fd5b5060e754610415906001600160a01b031681565b348015610a5557600080fd5b5061039c610a64366004613c40565b611567565b348015610a7557600080fd5b50606b54610415906001600160a01b031681565b348015610a9557600080fd5b5061039c610aa4366004613f84565b611588565b348015610ab557600080fd5b5061039c60d45481565b348015610acb57600080fd5b5061039c610ada366004613fd5565b6116c9565b348015610aeb57600080fd5b50610463610afa366004614030565b611771565b348015610b0b57600080fd5b50610463610b1a366004613c23565b6117d8565b348015610b2b57600080fd5b5060d354610415906001600160a01b031681565b348015610b4b57600080fd5b5060eb54610531906001600160401b031681565b60006001600160e01b031982166385572ffb60e01b1480610b9057506001600160e01b031982166301ffc9a760e01b145b92915050565b600054610100900460ff1615808015610bb65750600054600160ff909116105b80610bd05750303b158015610bd0575060005460ff166001145b610c385760405162461bcd60e51b815260206004820152602e60248201527f496e697469616c697a61626c653a20636f6e747261637420697320616c72656160448201526d191e481a5b9a5d1a585b1a5e995960921b60648201526084015b60405180910390fd5b6000805460ff191660011790558015610c5b576000805461ff0019166101001790555b610c636118fd565b610c6b61192c565b60d780546001600160401b038c1667ffffffffffffffff1990911617905560d380546001600160a01b038b166001600160a01b0319909116179055610ccd88600380546001600160a01b039092166001600160a01b0319909216919091179055565b6000805462010000600160b01b031916620100006001600160a01b038a81168202929092179283905560d080548c84166001600160b01b03199091168117600560a01b1790915560405163095ea7b360e01b8152919093049091166004820152600019602482015263095ea7b3906044016020604051808303816000875af1158015610d5d573d6000803e3d6000fd5b505050506040513d601f19601f82011682018060405250810190610d819190614075565b5060e680546001600160a01b03199081166001600160a01b038981169190911790925560e38054821688841617905560e48054821687841617905560e58054821686841617905560e280549091169184169190911790558015610e1e576000805461ff0019169055604051600181527f7f26b83ff96e1f2b6a682f133852f6798a09c465da95921460cefb38474024989060200160405180910390a15b50505050505050505050565b610e3261195b565b600080546001600160a01b03909216620100000262010000600160b01b0319909216919091179055565b60008060e260009054906101000a90046001600160a01b03166001600160a01b031663feaf968c6040518163ffffffff1660e01b815260040160a060405180830381865afa158015610eb2573d6000803e3d6000fd5b505050506040513d601f19601f82011682018060405250810190610ed691906140b1565b505050915050600060e260009054906101000a90046001600160a01b03166001600160a01b031663313ce5676040518163ffffffff1660e01b8152600401602060405180830381865afa158015610f31573d6000803e3d6000fd5b505050506040513d601f19601f82011682018060405250810190610f5591906140f7565b9050610f63828260126119b5565b9392505050565b610f7261195b565b610f7a6119f5565b565b610f8461195b565b6001600160a01b038116610fee5760405162461bcd60e51b815260206004820152602b60248201527f5072696365206f7261636c6520616464726573732063616e6e6f74206265207a60448201526a65726f206164647265737360a81b6064820152608401610c2f565b60dc80546001600160a01b0319166001600160a01b0392909216919091179055565b61101861195b565b60d380546001600160a01b0319166001600160a01b0392909216919091179055565b61104261195b565b610f7a6000611a47565b60e35460e554600091611070916001600160a01b0391821691168489898989611a99565b9695505050505050565b61108261195b565b610f7a611ad6565b6000546201000090046001600160a01b031633146110bd576040516335fdcccd60e21b8152336004820152602401610c2f565b6110ce6110c9826141d9565b611b13565b50565b60d260205260009081526040902080546001820180546001600160401b03831693680100000000000000009093046001600160a01b03169291906111149061428f565b80601f01602080910402602001604051908101604052809291908181526020018280546111409061428f565b801561118d5780601f106111625761010080835404028352916020019161118d565b820191906000526020600020905b81548152906001019060200180831161117057829003601f168201915b50505050600283015460039093015491926001600160a01b031691905085565b60de80546111ba9061428f565b80601f01602080910402602001604051908101604052809291908181526020018280546111e69061428f565b80156112335780601f1061120857610100808354040283529160200191611233565b820191906000526020600020905b81548152906001019060200180831161121657829003601f168201915b505050505081565b61124361195b565b6001600160a01b0381166112695760405162461bcd60e51b8152600401610c2f906142c9565b606b80546001600160a01b0319166001600160a01b0392909216919091179055565b6040805160a081019091526001600160a01b03841660c082015260009081908060e0810160408051808303601f190181529181529082526020808301889052815160008082529181018352929091019190611308565b60408051808201909152600080825260208201528152602001906001900390816112e15790505b508152602001600185600181111561132257611322614319565b1461132e57600061133b565b60d0546001600160a01b03165b6001600160a01b031681526020016113636040518060200160405280621e8480815250611cea565b9052600080546040516320487ded60e01b81529293509091620100009091046001600160a01b0316906320487ded906113a2908a90869060040161432f565b602060405180830381865afa1580156113bf573d6000803e3d6000fd5b505050506040513d601f19601f820116820180604052508101906113e39190614404565b9050600060018560018111156113fb576113fb614319565b03611481576000546040516396f4e9f960e01b8152620100009091046001600160a01b0316906396f4e9f990611437908b90879060040161432f565b6020604051808303816000875af1158015611456573d6000803e3d6000fd5b505050506040513d601f19601f8201168201806040525081019061147a9190614404565b9050611500565b6000546040516396f4e9f960e01b8152620100009091046001600160a01b0316906396f4e9f99084906114ba908c90889060040161432f565b60206040518083038185885af11580156114d8573d6000803e3d6000fd5b50505050506040513d601f19601f820116820180604052508101906114fd9190614404565b90505b6040518181527f54791b38f3859327992a1ca0590ad3c0f08feba98d1a4f56ab0dca74d203392a9060200160405180910390a1925050505b949350505050565b6000670de0b6b3a7640000611553610e5c565b61155d9084614433565b610b90919061444a565b60d1818154811061157757600080fd5b600091825260209091200154905081565b600082156115385762ffffff8216156115ae576115a7858585856116c9565b9050611538565b60408051600280825260608201835260009260208301908036833701905050905085816000815181106115e3576115e361446c565b60200260200101906001600160a01b031690816001600160a01b03168152505084816001815181106116175761161761446c565b6001600160a01b03928316602091820292909201015260e55460405163d06ca61f60e01b8152600092919091169063d06ca61f9061165b90889086906004016144c7565b600060405180830381865afa158015611678573d6000803e3d6000fd5b505050506040513d6000823e601f3d908101601f191682016040526116a0919081019061453e565b9050806001815181106116b5576116b561446c565b602002602001015192505050949350505050565b60dc5460e45460405163bb5705b360e01b81526001600160a01b039182166004820152868216602482015285821660448201526001600160801b038516606482015262ffffff84166084820152600092919091169063bb5705b39060a401602060405180830381865afa158015611744573d6000803e3d6000fd5b505050506040513d601f19601f820116820180604052508101906117689190614404565b95945050505050565b61177961195b565b6001600160401b0392909216600090815260e86020908152604080832080546001600160a01b0319166001600160a01b0395909516948517905560e9825280832093835292905220805462ffffff191662ffffff909216919091179055565b6001600160a01b0381166117fe5760405162461bcd60e51b8152600401610c2f906142c9565b606b546001600160a01b038281169116146118765760405162461bcd60e51b815260206004820152603260248201527f50726f706f7361626c654f776e61626c653a206e6577206f776e6572206973206044820152713737ba10383937b837b9b2b21037bbb732b960711b6064820152608401610c2f565b6001600160a01b03811633146118f45760405162461bcd60e51b815260206004820152603a60248201527f50726f706f7361626c654f776e61626c653a20746869732063616c6c206d757360448201527f74206265206d61646520627920746865206e6577206f776e65720000000000006064820152608401610c2f565b6110ce81611a47565b600054610100900460ff166119245760405162461bcd60e51b8152600401610c2f90614572565b610f7a611d27565b600054610100900460ff166119535760405162461bcd60e51b8152600401610c2f90614572565b610f7a611d57565b6039546001600160a01b03163314610f7a5760405162461bcd60e51b815260206004820181905260248201527f4f776e61626c653a2063616c6c6572206973206e6f7420746865206f776e65726044820152606401610c2f565b60008260ff168260ff1611156119eb576119cf83836145bd565b6119da90600a6146bd565b6119e490856146cc565b9050610f63565b6119cf82846145bd565b6119fd611d8a565b609e805460ff191690557f5db9ee0a495bf2e6ff9c91a7834c1ba4fdd244a5e8aa4e537bd38aeae4b073aa335b6040516001600160a01b03909116815260200160405180910390a1565b603980546001600160a01b038381166001600160a01b0319831681179093556040519116919082907f8be0079c531659141344cd1fd0a4f28419497f9722a3daafe3b4186f6b6457e090600090a35050565b600062ffffff861615611abb57611ab4888787878787611dd3565b9050611acb565b611ac88786868686611f34565b90505b979650505050505050565b611ade61212c565b609e805460ff191660011790557f62e78cea01bee320cd4e420270b5ea74000d11b0c9f74754ebdbfc544b05a258611a2a3390565b60008160200151905060008260400151806020019051810190611b3691906146fc565b90506000806000806000806000808a60600151806020019051810190611b5c9190614780565b9750975097509750975097509750975087600003611b8f5760808b0151611b89818988878f8f8989612172565b50611cdd565b87600103611baa57611ba58786858d8d866126eb565b611cdd565b87600203611bbf57611ba58786858d8d612b37565b87600303611c2157611ba56040518061012001604052808981526020018881526020018781526020018681526020018481526020018c6001600160401b031681526020018b6001600160a01b0316815260200185815260200183815250612de7565b87600403611cdd5760008b608001519050611cdb6040518061016001604052808a815260200189815260200188815260200187815260200185815260200183600081518110611c7257611c7261446c565b6020026020010151600001516001600160a01b0316815260200183600081518110611c9f57611c9f61446c565b60200260200101516020015181526020018d6001600160401b031681526020018c6001600160a01b031681526020018681526020018481525050565b505b5050505050505050505050565b60408051915160248084019190915281518084039091018152604490920190526020810180516001600160e01b03166397a657c960e01b17905290565b600054610100900460ff16611d4e5760405162461bcd60e51b8152600401610c2f90614572565b610f7a33611a47565b600054610100900460ff16611d7e5760405162461bcd60e51b8152600401610c2f90614572565b609e805460ff19169055565b609e5460ff16610f7a5760405162461bcd60e51b815260206004820152601460248201527314185d5cd8589b194e881b9bdd081c185d5cd95960621b6044820152606401610c2f565b60405163095ea7b360e01b81526001600160a01b038781166004830152602482018490526000919086169063095ea7b3906044016020604051808303816000875af1158015611e26573d6000803e3d6000fd5b505050506040513d601f19601f82011682018060405250810190611e4a9190614075565b506000604051806101000160405280876001600160a01b03168152602001866001600160a01b031681526020018862ffffff168152602001846001600160a01b031681526020014261012c611e9f91906148a8565b815260208101869052600060408083018290526060909201525163414bf38960e01b81529091506001600160a01b0389169063414bf38990611ee59084906004016148bb565b6020604051808303816000875af1158015611f04573d6000803e3d6000fd5b505050506040513d601f19601f82011682018060405250810190611f289190614404565b98975050505050505050565b604080516002808252606082018352600092839291906020830190803683370190505090508581600081518110611f6d57611f6d61446c565b60200260200101906001600160a01b031690816001600160a01b0316815250508481600181518110611fa157611fa161446c565b6001600160a01b03928316602091820292909201015260405163d06ca61f60e01b815260009189169063d06ca61f90611fe090889086906004016144c7565b600060405180830381865afa158015611ffd573d6000803e3d6000fd5b505050506040513d6000823e601f3d908101601f19168201604052612025919081019061453e565b60405163095ea7b360e01b81526001600160a01b038a81166004830152602482018890529192509088169063095ea7b3906044016020604051808303816000875af1158015612078573d6000803e3d6000fd5b505050506040513d601f19601f8201168201806040525081019061209c9190614075565b50604051635c11d79560e01b81526001600160a01b03891690635c11d795906120d290889060009087908a904290600401614938565b600060405180830381600087803b1580156120ec57600080fd5b505af1158015612100573d6000803e3d6000fd5b50505050806001815181106121175761211761446c565b60200260200101519250505095945050505050565b609e5460ff1615610f7a5760405162461bcd60e51b815260206004820152601060248201526f14185d5cd8589b194e881c185d5cd95960821b6044820152606401610c2f565b61219d6040518060800160405280600081526020016060815260200160608152602001606081525090565b61225e896000815181106121b3576121b361446c565b60200260200101516000015160e660009054906101000a90046001600160a01b03168b6000815181106121e8576121e861446c565b6020026020010151602001513060e960008b6001600160401b03166001600160401b0316815260200190815260200160002060008f60008151811061222f5761222f61446c565b602090810291909101810151516001600160a01b031682528101919091526040016000205462ffffff1661104c565b815287516001600160401b0381111561227957612279613e0f565b6040519080825280602002602001820160405280156122a2578160200160208202803683370190505b50602082015287516001600160401b038111156122c1576122c1613e0f565b6040519080825280602002602001820160405280156122ea578160200160208202803683370190505b50604082015260005b8851811015612636576000836000815181106123115761231161446c565b602002602001015185838151811061232b5761232b61446c565b602002602001015184600001516123429190614433565b61234c919061444a565b60e6548b519192506000916001600160a01b03909116908c90859081106123755761237561446c565b60200260200101516001600160a01b031603612496578a838151811061239d5761239d61446c565b602090810291909101015160d3546040516370a0823160e01b81526001600160a01b0391821660048201529116906370a0823190602401602060405180830381865afa1580156123f1573d6000803e3d6000fd5b505050506040513d601f19601f820116820180604052508101906124159190614404565b60e65460d35460405163a9059cbb60e01b81526001600160a01b03918216600482015260248101869052929350169063a9059cbb906044016020604051808303816000875af115801561246c573d6000803e3d6000fd5b505050506040513d601f19601f820116820180604052508101906124909190614075565b506125c8565b61255b8b84815181106124ab576124ab61446c565b602002602001015160e660009054906101000a90046001600160a01b03168d86815181106124db576124db61446c565b602090810291909101015160d3546040516370a0823160e01b81526001600160a01b0391821660048201529116906370a0823190602401602060405180830381865afa15801561252f573d6000803e3d6000fd5b505050506040513d601f19601f820116820180604052508101906125539190614404565b610bb8611588565b90506125c660e660009054906101000a90046001600160a01b03168c85815181106125885761258861446c565b60200260200101518460d360009054906101000a90046001600160a01b03168e88815181106125b9576125b961446c565b602002602001015161104c565b505b60006125d483836148a8565b90506125df82611540565b856020015185815181106125f5576125f561446c565b60200260200101818152505061260a81611540565b856040015185815181106126205761262061446c565b60209081029190910101525050506001016122f3565b5060408051600080825260208083018452840151848401516126639492938d9390928c9290918401614989565b6040516020818303038152906040528160600181905250600061268d86868460600151600161128b565b600088815260ef60205260409081902082905551909150879082907f7513d57665f5bbb438203d2f2a896f1f0791e1e8cd0e2d76d7bc421bfb4f49aa906126d79042815260200190565b60405180910390a350505050505050505050565b6000805b8751811015612975576000670de0b6b3a76400008983815181106127155761271561446c565b602090810291909101015160d3546040516370a0823160e01b81526001600160a01b0391821660048201529116906370a0823190602401602060405180830381865afa158015612769573d6000803e3d6000fd5b505050506040513d601f19601f8201168201806040525081019061278d9190614404565b856000815181106127a0576127a061446c565b60200260200101516127b29190614433565b6127bc919061444a565b60e6548a519192506001600160a01b0316908a90849081106127e0576127e061446c565b60200260200101516001600160a01b0316036128835760d35460e654604051631c20fadd60e01b81526001600160a01b0392831692631c20fadd9261282e92911690309086906004016149f2565b6020604051808303816000875af115801561284d573d6000803e3d6000fd5b505050506040513d601f19601f820116820180604052508101906128719190614075565b5061287c81846148a8565b925061296c565b60d35489516001600160a01b0390911690631c20fadd908b90859081106128ac576128ac61446c565b602002602001015130846040518463ffffffff1660e01b81526004016128d4939291906149f2565b6020604051808303816000875af11580156128f3573d6000803e3d6000fd5b505050506040513d601f19601f820116820180604052508101906129179190614075565b5061295f89838151811061292d5761292d61446c565b602002602001015160e660009054906101000a90046001600160a01b031683308c87815181106125b9576125b961446c565b61296990846148a8565b92505b506001016126ef565b5060e6546001600160401b038516600090815260e8602090815260408083205460e983528184206001600160a01b0391821680865293529083205492936129c893911691908590309062ffffff1661104c565b60408051600180825281830190925291925060009190816020015b60408051808201909152600080825260208201528152602001906001900390816129e35750506001600160401b038716600090815260e8602052604081205482519293506001600160a01b031691839190612a4057612a4061446c565b6020026020010151600001906001600160a01b031690816001600160a01b0316815250508181600081518110612a7857612a7861446c565b6020908102919091018101518101919091526040805160008082529281018381528183019092529190612ab6906001908d908c868060608101614989565b60405160208183030381529060405290506000612ad789838a87600161305f565b60008b815260ee602052604090819020829055519091508a9082907f2c80cd3884ced9a087f5eed6c8ddd78af4b449cdea210b92786f35bd496f534390612b219042815260200190565b60405180910390a3505050505050505050505050565b604080516000808252602082019092529050600086516001600160401b03811115612b6457612b64613e0f565b604051908082528060200260200182016040528015612b8d578160200160208202803683370190505b50905060005b8751811015612d965760e65488516001600160a01b0390911690899083908110612bbf57612bbf61446c565b60200260200101516001600160a01b031603612c8557612c62888281518110612bea57612bea61446c565b602090810291909101015160d3546040516370a0823160e01b81526001600160a01b0391821660048201529116906370a0823190602401602060405180830381865afa158015612c3e573d6000803e3d6000fd5b505050506040513d601f19601f82011682018060405250810190610a249190614404565b828281518110612c7457612c7461446c565b602002602001018181525050612d8e565b6000612d63898381518110612c9c57612c9c61446c565b602002602001015160e660009054906101000a90046001600160a01b03168b8581518110612ccc57612ccc61446c565b602090810291909101015160d3546040516370a0823160e01b81526001600160a01b0391821660048201529116906370a0823190602401602060405180830381865afa158015612d20573d6000803e3d6000fd5b505050506040513d601f19601f82011682018060405250810190612d449190614404565b8b8681518110612d5657612d5661446c565b6020026020010151611588565b9050612d6e81611540565b838381518110612d8057612d8061446c565b602002602001018181525050505b600101612b93565b5060408051600080825260208201835291612dbe916002918b91908a90879089908401614989565b6040516020818303038152906040529050612ddc858583600161128b565b505050505050505050565b612e196040518060a0016040528060008152602001600081526020016000815260200160008152602001600081525090565b81515181526101008201518051600090612e3557612e3561446c565b6020026020010151816020018181525050816101000151600181518110612e5e57612e5e61446c565b6020026020010151816040018181525050816101000151600281518110612e8757612e8761446c565b60200260200101518160800181815250506000612ec682846000015185602001518660400151876060015188608001518960c001518a60e00151613485565b60e65460a0850180516001600160401b03908116600090815260e8602081815260408084205486518616855260e9835281852096519095168452918152818320546001600160a01b03908116845294905281205494955093612f3793831692909116908590309062ffffff1661104c565b60408051600180825281830190925291925060009190816020015b6040805180820190915260008082526020820152815260200190600190039081612f5257505060a08601516001600160401b0316600090815260e8602052604081205482519293506001600160a01b031691839190612fb357612fb361446c565b6020026020010151600001906001600160a01b031690816001600160a01b0316815250508181600081518110612feb57612feb61446c565b602090810291909101810151810191909152604080516000808252818401835288519389015160e08a01519294919361302e936003939291879081908101614989565b60405160208183030381529060405290506130558760a00151828960c0015186600161305f565b5050505050505050565b815160d05460009190600160a01b900461ffff168111156130e85760405162461bcd60e51b815260206004820152603760248201527f4d6178696d756d203520646966666572656e7420746f6b656e732063616e206260448201527f652073656e74207065722043434950204d6573736167650000000000000000006064820152608401610c2f565b60005b8181101561320e5760d05485516001600160a01b03909116908690839081106131165761311661446c565b6020026020010151600001516001600160a01b031614613206578481815181106131425761314261446c565b6020026020010151600001516001600160a01b031663095ea7b3600060029054906101000a90046001600160a01b03168784815181106131845761318461446c565b6020026020010151602001516040518363ffffffff1660e01b81526004016131c19291906001600160a01b03929092168252602082015260400190565b6020604051808303816000875af11580156131e0573d6000803e3d6000fd5b505050506040513d601f19601f820116820180604052508101906132049190614075565b505b6001016130eb565b506040805160a081019091526001600160a01b03861660c08201526000908060e0810160408051601f19818403018152918152908252602082018a90528101879052606001600186600181111561326757613267614319565b14613273576000613280565b60d0546001600160a01b03165b6001600160a01b031681526020016132a86040518060200160405280620dbba0815250611cea565b9052600080546040516320487ded60e01b81529293509091620100009091046001600160a01b0316906320487ded906132e7908c90869060040161432f565b602060405180830381865afa158015613304573d6000803e3d6000fd5b505050506040513d601f19601f820116820180604052508101906133289190614404565b90506000600186600181111561334057613340614319565b036133c6576000546040516396f4e9f960e01b8152620100009091046001600160a01b0316906396f4e9f99061337c908d90879060040161432f565b6020604051808303816000875af115801561339b573d6000803e3d6000fd5b505050506040513d601f19601f820116820180604052508101906133bf9190614404565b9050613445565b6000546040516396f4e9f960e01b8152620100009091046001600160a01b0316906396f4e9f99084906133ff908e90889060040161432f565b60206040518083038185885af115801561341d573d6000803e3d6000fd5b50505050506040513d601f19601f820116820180604052508101906134429190614404565b90505b6040518181527f54791b38f3859327992a1ca0590ad3c0f08feba98d1a4f56ab0dca74d203392a9060200160405180910390a19998505050505050505050565b60006134dd604051806101400160405280600081526020016000815260200160008152602001600081526020016000815260200160008152602001600081526020016000815260200160008152602001600081525090565b60e65460d3546040516370a0823160e01b81526001600160a01b0391821660048201529116906370a0823190602401602060405180830381865afa158015613529573d6000803e3d6000fd5b505050506040513d601f19601f8201168201806040525081019061354d9190614404565b60a0820152875188906000906135655761356561446c565b602090810291909101015160d3546040516370a0823160e01b81526001600160a01b0391821660048201529116906370a0823190602401602060405180830381865afa1580156135b9573d6000803e3d6000fd5b505050506040513d601f19601f820116820180604052508101906135dd9190614404565b60f15560005b895181101561383c5760e6548a516000916001600160a01b0316908c90849081106136105761361061446c565b60200260200101516001600160a01b0316036136b15760d35460e65460a0850151604051631c20fadd60e01b81526001600160a01b0393841693631c20fadd93613662939116913091906004016149f2565b6020604051808303816000875af1158015613681573d6000803e3d6000fd5b505050506040513d601f19601f820116820180604052508101906136a59190614075565b505060a082015161381e565b60008b83815181106136c5576136c561446c565b602090810291909101015160d3546040516370a0823160e01b81526001600160a01b0391821660048201529116906370a0823190602401602060405180830381865afa158015613719573d6000803e3d6000fd5b505050506040513d601f19601f8201168201806040525081019061373d9190614404565b60d3548d519192506001600160a01b031690631c20fadd908e90869081106137675761376761446c565b602002602001015130846040518463ffffffff1660e01b815260040161378f939291906149f2565b6020604051808303816000875af11580156137ae573d6000803e3d6000fd5b505050506040513d601f19601f820116820180604052508101906137d29190614075565b5061381a8c84815181106137e8576137e861446c565b602002602001015160e660009054906101000a90046001600160a01b031683308e88815181106125b9576125b961446c565b9150505b808360600181815161383091906148a8565b905250506001016135e3565b5060208a015160808b015161385a9068056bc75e2d63100000614433565b613864919061444a565b60e0820181905260408b0151606083015161387f9190614433565b613889919061444a565b610100820181905260608201516138a09190614a16565b61012082015260005b8851811015613a525760e65489516001600160a01b03909116908a90839081106138d5576138d561446c565b60200260200101516001600160a01b0316036139b65760e65460d35460408d015188516001600160a01b039384169363a9059cbb931691908a908690811061391f5761391f61446c565b60200260200101518661010001516139379190614433565b613941919061444a565b6040516001600160e01b031960e085901b1681526001600160a01b03909216600483015260248201526044016020604051808303816000875af115801561398c573d6000803e3d6000fd5b505050506040513d601f19601f820116820180604052508101906139b09190614075565b50613a4a565b6000613a4760e660009054906101000a90046001600160a01b03168b84815181106139e3576139e361446c565b60200260200101518e604001518a8681518110613a0257613a0261446c565b6020026020010151876101000151613a1a9190614433565b613a24919061444a565b60d3548c516001600160a01b03909116908d90889081106125b9576125b961446c565b50505b6001016138a9565b5087600081518110613a6657613a6661446c565b602090810291909101015160d3546040516370a0823160e01b81526001600160a01b0391821660048201529116906370a0823190602401602060405180830381865afa158015613aba573d6000803e3d6000fd5b505050506040513d601f19601f82011682018060405250810190613ade9190614404565b60f25561012001519998505050505050505050565b600060208284031215613b0557600080fd5b81356001600160e01b031981168114610f6357600080fd5b80356001600160401b0381168114613b3457600080fd5b919050565b6001600160a01b03811681146110ce57600080fd5b60008060008060008060008060006101208a8c031215613b6d57600080fd5b613b768a613b1d565b985060208a0135613b8681613b39565b975060408a0135613b9681613b39565b965060608a0135613ba681613b39565b955060808a0135613bb681613b39565b945060a08a0135613bc681613b39565b935060c08a0135613bd681613b39565b925060e08a0135613be681613b39565b91506101008a0135613bf781613b39565b809150509295985092959850929598565b600060208284031215613c1a57600080fd5b610f6382613b1d565b600060208284031215613c3557600080fd5b8135610f6381613b39565b600060208284031215613c5257600080fd5b5035919050565b60008060408385031215613c6c57600080fd5b613c7583613b1d565b91506020830135613c8581613b39565b809150509250929050565b803562ffffff81168114613b3457600080fd5b600080600080600060a08688031215613cbb57600080fd5b8535613cc681613b39565b94506020860135613cd681613b39565b9350604086013592506060860135613ced81613b39565b9150613cfb60808701613c90565b90509295509295909350565b60008060408385031215613d1a57600080fd5b823591506020830135613c8581613b39565b600060208284031215613d3e57600080fd5b81356001600160401b03811115613d5457600080fd5b820160a08185031215610f6357600080fd5b6000815180845260005b81811015613d8c57602081850181015186830182015201613d70565b506000602082860101526020601f19601f83011685010191505092915050565b6001600160401b03861681526001600160a01b038516602082015260a060408201819052600090613ddf90830186613d66565b6001600160a01b0394909416606083015250608001529392505050565b602081526000610f636020830184613d66565b634e487b7160e01b600052604160045260246000fd5b604080519081016001600160401b0381118282101715613e4757613e47613e0f565b60405290565b60405160a081016001600160401b0381118282101715613e4757613e47613e0f565b604051601f8201601f191681016001600160401b0381118282101715613e9757613e97613e0f565b604052919050565b600082601f830112613eb057600080fd5b81356001600160401b03811115613ec957613ec9613e0f565b613edc601f8201601f1916602001613e6f565b818152846020838601011115613ef157600080fd5b816020850160208301376000918101602001919091529392505050565b60008060008060808587031215613f2457600080fd5b613f2d85613b1d565b93506020850135613f3d81613b39565b925060408501356001600160401b03811115613f5857600080fd5b613f6487828801613e9f565b925050606085013560028110613f7957600080fd5b939692955090935050565b60008060008060808587031215613f9a57600080fd5b8435613fa581613b39565b93506020850135613fb581613b39565b925060408501359150613fca60608601613c90565b905092959194509250565b60008060008060808587031215613feb57600080fd5b8435613ff681613b39565b9350602085013561400681613b39565b925060408501356001600160801b038116811461402257600080fd5b9150613fca60608601613c90565b60008060006060848603121561404557600080fd5b61404e84613b1d565b9250602084013561405e81613b39565b915061406c60408501613c90565b90509250925092565b60006020828403121561408757600080fd5b81518015158114610f6357600080fd5b805169ffffffffffffffffffff81168114613b3457600080fd5b600080600080600060a086880312156140c957600080fd5b6140d286614097565b60208701516040880151606089015192975090955093509150613cfb60808701614097565b60006020828403121561410957600080fd5b815160ff81168114610f6357600080fd5b60006001600160401b0382111561413357614133613e0f565b5060051b60200190565b600082601f83011261414e57600080fd5b813561416161415c8261411a565b613e6f565b8082825260208201915060208360061b86010192508583111561418357600080fd5b602085015b838110156141cf57604081880312156141a057600080fd5b6141a8613e25565b81356141b381613b39565b8152602082810135818301529084529290920191604001614188565b5095945050505050565b600060a082360312156141eb57600080fd5b6141f3613e4d565b8235815261420360208401613b1d565b602082015260408301356001600160401b0381111561422157600080fd5b61422d36828601613e9f565b60408301525060608301356001600160401b0381111561424c57600080fd5b61425836828601613e9f565b60608301525060808301356001600160401b0381111561427757600080fd5b6142833682860161413d565b60808301525092915050565b600181811c908216806142a357607f821691505b6020821081036142c357634e487b7160e01b600052602260045260246000fd5b50919050565b60208082526030908201527f50726f706f7361626c654f776e61626c653a206e6577206f776e65722069732060408201526f746865207a65726f206164647265737360801b606082015260800190565b634e487b7160e01b600052602160045260246000fd5b6001600160401b0383168152604060208201526000825160a0604084015261435a60e0840182613d66565b90506020840151603f198483030160608501526143778282613d66565b6040860151858203603f19016080870152805180835260209182019450600093509101905b808310156143d357835180516001600160a01b0316835260209081015181840152909301926001929092019160409091019061439c565b5060608601516001600160a01b031660a08601526080860151858203603f190160c08701529250611acb8184613d66565b60006020828403121561441657600080fd5b5051919050565b634e487b7160e01b600052601160045260246000fd5b8082028115828204841417610b9057610b9061441d565b60008261446757634e487b7160e01b600052601260045260246000fd5b500490565b634e487b7160e01b600052603260045260246000fd5b600081518084526020840193506020830160005b828110156144bd5781516001600160a01b0316865260209586019590910190600101614496565b5093949350505050565b8281526040602082015260006115386040830184614482565b600082601f8301126144f157600080fd5b81516144ff61415c8261411a565b8082825260208201915060208360051b86010192508583111561452157600080fd5b602085015b838110156141cf578051835260209283019201614526565b60006020828403121561455057600080fd5b81516001600160401b0381111561456657600080fd5b611538848285016144e0565b6020808252602b908201527f496e697469616c697a61626c653a20636f6e7472616374206973206e6f74206960408201526a6e697469616c697a696e6760a81b606082015260800190565b60ff8281168282160390811115610b9057610b9061441d565b6001815b6001841115614611578085048111156145f5576145f561441d565b600184161561460357908102905b60019390931c9280026145da565b935093915050565b60008261462857506001610b90565b8161463557506000610b90565b816001811461464b576002811461465557614671565b6001915050610b90565b60ff8411156146665761466661441d565b50506001821b610b90565b5060208310610133831016604e8410600b8410161715614694575081810a610b90565b6146a160001984846145d6565b80600019048211156146b5576146b561441d565b029392505050565b6000610f6360ff841683614619565b80820260008212600160ff1b841416156146e8576146e861441d565b8181058314821517610b9057610b9061441d565b60006020828403121561470e57600080fd5b8151610f6381613b39565b600082601f83011261472a57600080fd5b815161473861415c8261411a565b8082825260208201915060208360051b86010192508583111561475a57600080fd5b602085015b838110156141cf57805161477281613b39565b83526020928301920161475f565b600080600080600080600080610100898b03121561479d57600080fd5b885160208a01519098506001600160401b038111156147bb57600080fd5b6147c78b828c01614719565b97505060408901516001600160401b038111156147e357600080fd5b6147ef8b828c01614719565b96505060608901516001600160401b0381111561480b57600080fd5b6148178b828c016144e0565b95505060808901516001600160401b0381111561483357600080fd5b61483f8b828c016144e0565b60a08b015160c08c0151919650945090506001600160401b0381111561486457600080fd5b6148708b828c016144e0565b92505060e08901516001600160401b0381111561488c57600080fd5b6148988b828c016144e0565b9150509295985092959890939650565b80820180821115610b9057610b9061441d565b81516001600160a01b03908116825260208084015182169083015260408084015162ffffff169083015260608084015191821690830152610100820190506080830151608083015260a083015160a083015260c083015160c083015260e083015161493160e08401826001600160a01b03169052565b5092915050565b85815284602082015260a060408201526000613ddf60a0830186614482565b600081518084526020840193506020830160005b828110156144bd57815186526020958601959091019060010161496b565b60ff8716815260c0602082015260006149a560c0830188614482565b82810360408401526149b78188614482565b905085606084015282810360808401526149d18186614957565b905082810360a08401526149e58185614957565b9998505050505050505050565b6001600160a01b039384168152919092166020820152604081019190915260600190565b81810381811115610b9057610b9061441d56fea264697066735822122082c750175bf4e4e219b3a33716105dc6b20aad8934d214c83c505695fc81db0164736f6c634300081a0033","linkReferences":{}},"methodIdentifiers":{"ccipReceive((bytes32,uint64,bytes,bytes,(address,uint256)[]))":"85572ffb","convertEthToUsd(uint256)":"c086381e","crossChainToken(uint64)":"19da7e2a","crossChainTokenSwapFee(uint64,address)":"652354ae","currentChainSelector()":"3d54cb6f","estimateAmountOut(address,address,uint128,uint24)":"ee7bd3e2","factoryV3()":"1d5f45f5","fee()":"ddca3f43","feeRate()":"978bbdb9","feeRatePerDayScaled()":"2fecd589","feeReceiver()":"b3f00674","feeTimestamp()":"184a732f","getAmountOut(address,address,uint256,uint24)":"dd811ac9","getRouter()":"b0f479a1","i_link()":"7d253aff","i_maxTokensLength()":"5b6a0351","initialize(uint64,address,address,address,address,address,address,address,address)":"17c27b76","isRestricted(address)":"c01bc982","issuanceCompletedTokensCount(uint256)":"94037369","issuanceMessageIdByNonce(uint256)":"9121c717","issuanceTokenOldAndNewValues(uint256,address)":"81b15279","latestFeeUpdate()":"011ced5f","messageDetail(bytes32)":"9c3ddb2e","methodologist()":"9f8e67bf","methodology()":"9eeb1d50","minter()":"07546172","oraclePayment()":"0c02e130","owner()":"8da5cb5b","pause()":"8456cb59","paused()":"5c975abb","priceInWei()":"3c8da588","priceOracle()":"2630c12f","proposeOwner(address)":"b5ed298a","proposedOwner()":"d153b60c","quoter()":"c6bbd5a7","receivedMessages(uint256)":"d030366c","redemptionMessageIdByNonce(uint256)":"306b3a28","renounceOwnership()":"715018a6","sendMessage(uint64,address,bytes,uint8)":"bcab90b3","setCcipRouter(address)":"27bf9b44","setCrossChainToken(uint64,address,uint24)":"f0cd5b72","setPriceOracle(address)":"530e784f","setVault(address)":"6817031b","sourceChainSelectorF()":"ff5474f0","supplyCeiling()":"2b52684d","supportsInterface(bytes4)":"01ffc9a7","swap(address,address,uint256,address,uint24)":"7e79f512","swapRouterV2()":"744fbc7a","swapRouterV3()":"b631e80b","testData()":"016cbd51","testData2()":"3421fa29","testData3()":"2b0f9e0a","toUsdPriceFeed()":"63973fda","transferOwnership(address)":"f2fde38b","unpause()":"3f4ba83a","vault()":"fbfa77cf","weth()":"3fc8cef3"},"id":45}