{"abi":[{"type":"receive","stateMutability":"payable"},{"type":"function","name":"ccipReceive","inputs":[{"name":"message","type":"tuple","internalType":"struct Client.Any2EVMMessage","components":[{"name":"messageId","type":"bytes32","internalType":"bytes32"},{"name":"sourceChainSelector","type":"uint64","internalType":"uint64"},{"name":"sender","type":"bytes","internalType":"bytes"},{"name":"data","type":"bytes","internalType":"bytes"},{"name":"destTokenAmounts","type":"tuple[]","internalType":"struct Client.EVMTokenAmount[]","components":[{"name":"token","type":"address","internalType":"address"},{"name":"amount","type":"uint256","internalType":"uint256"}]}]}],"outputs":[],"stateMutability":"nonpayable"},{"type":"function","name":"convertEthToUsd","inputs":[{"name":"_ethAmount","type":"uint256","internalType":"uint256"}],"outputs":[{"name":"","type":"uint256","internalType":"uint256"}],"stateMutability":"view"},{"type":"function","name":"crossChainToken","inputs":[{"name":"","type":"uint64","internalType":"uint64"}],"outputs":[{"name":"","type":"address","internalType":"address"}],"stateMutability":"view"},{"type":"function","name":"crossChainTokenSwapFee","inputs":[{"name":"","type":"uint64","internalType":"uint64"},{"name":"","type":"address","internalType":"address"}],"outputs":[{"name":"","type":"uint24","internalType":"uint24"}],"stateMutability":"view"},{"type":"function","name":"currentChainSelector","inputs":[],"outputs":[{"name":"","type":"uint64","internalType":"uint64"}],"stateMutability":"view"},{"type":"function","name":"estimateAmountOut","inputs":[{"name":"tokenIn","type":"address","internalType":"address"},{"name":"tokenOut","type":"address","internalType":"address"},{"name":"amountIn","type":"uint128","internalType":"uint128"},{"name":"fee","type":"uint24","internalType":"uint24"}],"outputs":[{"name":"amountOut","type":"uint256","internalType":"uint256"}],"stateMutability":"view"},{"type":"function","name":"factoryV3","inputs":[],"outputs":[{"name":"","type":"address","internalType":"contract IUniswapV3Factory"}],"stateMutability":"view"},{"type":"function","name":"fee","inputs":[],"outputs":[{"name":"","type":"uint256","internalType":"uint256"}],"stateMutability":"view"},{"type":"function","name":"feeRate","inputs":[],"outputs":[{"name":"","type":"uint8","internalType":"uint8"}],"stateMutability":"view"},{"type":"function","name":"feeRatePerDayScaled","inputs":[],"outputs":[{"name":"","type":"uint256","internalType":"uint256"}],"stateMutability":"view"},{"type":"function","name":"feeReceiver","inputs":[],"outputs":[{"name":"","type":"address","internalType":"address"}],"stateMutability":"view"},{"type":"function","name":"feeTimestamp","inputs":[],"outputs":[{"name":"","type":"uint256","internalType":"uint256"}],"stateMutability":"view"},{"type":"function","name":"getAmountOut","inputs":[{"name":"tokenIn","type":"address","internalType":"address"},{"name":"tokenOut","type":"address","internalType":"address"},{"name":"amountIn","type":"uint256","internalType":"uint256"},{"name":"_swapFee","type":"uint24","internalType":"uint24"}],"outputs":[{"name":"finalAmountOut","type":"uint256","internalType":"uint256"}],"stateMutability":"view"},{"type":"function","name":"getRouter","inputs":[],"outputs":[{"name":"","type":"address","internalType":"address"}],"stateMutability":"view"},{"type":"function","name":"i_link","inputs":[],"outputs":[{"name":"","type":"address","internalType":"address"}],"stateMutability":"view"},{"type":"function","name":"i_maxTokensLength","inputs":[],"outputs":[{"name":"","type":"uint16","internalType":"uint16"}],"stateMutability":"view"},{"type":"function","name":"initialize","inputs":[{"name":"_currentChainSelector","type":"uint64","internalType":"uint64"},{"name":"_vault","type":"address","internalType":"address payable"},{"name":"_chainlinkToken","type":"address","internalType":"address"},{"name":"_router","type":"address","internalType":"address"},{"name":"_weth","type":"address","internalType":"address"},{"name":"_swapRouterV3","type":"address","internalType":"address"},{"name":"_factoryV3","type":"address","internalType":"address"},{"name":"_swapRouterV2","type":"address","internalType":"address"},{"name":"_toUsdPriceFeed","type":"address","internalType":"address"}],"outputs":[],"stateMutability":"nonpayable"},{"type":"function","name":"isRestricted","inputs":[{"name":"","type":"address","internalType":"address"}],"outputs":[{"name":"","type":"bool","internalType":"bool"}],"stateMutability":"view"},{"type":"function","name":"issuanceCompletedTokensCount","inputs":[{"name":"","type":"uint256","internalType":"uint256"}],"outputs":[{"name":"","type":"uint256","internalType":"uint256"}],"stateMutability":"view"},{"type":"function","name":"issuanceMessageIdByNonce","inputs":[{"name":"","type":"uint256","internalType":"uint256"}],"outputs":[{"name":"","type":"bytes32","internalType":"bytes32"}],"stateMutability":"view"},{"type":"function","name":"issuanceTokenOldAndNewValues","inputs":[{"name":"","type":"uint256","internalType":"uint256"},{"name":"","type":"address","internalType":"address"}],"outputs":[{"name":"oldTokenValue","type":"uint256","internalType":"uint256"},{"name":"newTokenValue","type":"uint256","internalType":"uint256"}],"stateMutability":"view"},{"type":"function","name":"latestFeeUpdate","inputs":[],"outputs":[{"name":"","type":"uint256","internalType":"uint256"}],"stateMutability":"view"},{"type":"function","name":"messageDetail","inputs":[{"name":"","type":"bytes32","internalType":"bytes32"}],"outputs":[{"name":"sourceChainSelector","type":"uint64","internalType":"uint64"},{"name":"sender","type":"address","internalType":"address"},{"name":"message","type":"string","internalType":"string"},{"name":"token","type":"address","internalType":"address"},{"name":"amount","type":"uint256","internalType":"uint256"}],"stateMutability":"view"},{"type":"function","name":"methodologist","inputs":[],"outputs":[{"name":"","type":"address","internalType":"address"}],"stateMutability":"view"},{"type":"function","name":"methodology","inputs":[],"outputs":[{"name":"","type":"string","internalType":"string"}],"stateMutability":"view"},{"type":"function","name":"minter","inputs":[],"outputs":[{"name":"","type":"address","internalType":"address"}],"stateMutability":"view"},{"type":"function","name":"oraclePayment","inputs":[],"outputs":[{"name":"","type":"uint256","internalType":"uint256"}],"stateMutability":"view"},{"type":"function","name":"owner","inputs":[],"outputs":[{"name":"","type":"address","internalType":"address"}],"stateMutability":"view"},{"type":"function","name":"pause","inputs":[],"outputs":[],"stateMutability":"nonpayable"},{"type":"function","name":"paused","inputs":[],"outputs":[{"name":"","type":"bool","internalType":"bool"}],"stateMutability":"view"},{"type":"function","name":"priceInWei","inputs":[],"outputs":[{"name":"","type":"uint256","internalType":"uint256"}],"stateMutability":"view"},{"type":"function","name":"priceOracle","inputs":[],"outputs":[{"name":"","type":"address","internalType":"address"}],"stateMutability":"view"},{"type":"function","name":"proposeOwner","inputs":[{"name":"_proposedOwner","type":"address","internalType":"address"}],"outputs":[],"stateMutability":"nonpayable"},{"type":"function","name":"proposedOwner","inputs":[],"outputs":[{"name":"","type":"address","internalType":"address"}],"stateMutability":"view"},{"type":"function","name":"quoter","inputs":[],"outputs":[{"name":"","type":"address","internalType":"contract IQuoter"}],"stateMutability":"view"},{"type":"function","name":"receivedMessages","inputs":[{"name":"","type":"uint256","internalType":"uint256"}],"outputs":[{"name":"","type":"bytes32","internalType":"bytes32"}],"stateMutability":"view"},{"type":"function","name":"redemptionMessageIdByNonce","inputs":[{"name":"","type":"uint256","internalType":"uint256"}],"outputs":[{"name":"","type":"bytes32","internalType":"bytes32"}],"stateMutability":"view"},{"type":"function","name":"renounceOwnership","inputs":[],"outputs":[],"stateMutability":"nonpayable"},{"type":"function","name":"sendMessage","inputs":[{"name":"destinationChainSelector","type":"uint64","internalType":"uint64"},{"name":"receiver","type":"address","internalType":"address"},{"name":"_data","type":"bytes","internalType":"bytes"},{"name":"payFeesIn","type":"uint8","internalType":"enum CrossChainIndexFactory.PayFeesIn"}],"outputs":[{"name":"","type":"bytes32","internalType":"bytes32"}],"stateMutability":"nonpayable"},{"type":"function","name":"setCcipRouter","inputs":[{"name":"_router","type":"address","internalType":"address"}],"outputs":[],"stateMutability":"nonpayable"},{"type":"function","name":"setCrossChainToken","inputs":[{"name":"_chainSelector","type":"uint64","internalType":"uint64"},{"name":"_crossChainToken","type":"address","internalType":"address"},{"name":"_swapFee","type":"uint24","internalType":"uint24"}],"outputs":[],"stateMutability":"nonpayable"},{"type":"function","name":"setPriceOracle","inputs":[{"name":"_priceOracle","type":"address","internalType":"address"}],"outputs":[],"stateMutability":"nonpayable"},{"type":"function","name":"setVault","inputs":[{"name":"_vault","type":"address","internalType":"address payable"}],"outputs":[],"stateMutability":"nonpayable"},{"type":"function","name":"sourceChainSelectorF","inputs":[],"outputs":[{"name":"","type":"uint64","internalType":"uint64"}],"stateMutability":"view"},{"type":"function","name":"supplyCeiling","inputs":[],"outputs":[{"name":"","type":"uint256","internalType":"uint256"}],"stateMutability":"view"},{"type":"function","name":"supportsInterface","inputs":[{"name":"interfaceId","type":"bytes4","internalType":"bytes4"}],"outputs":[{"name":"","type":"bool","internalType":"bool"}],"stateMutability":"pure"},{"type":"function","name":"swap","inputs":[{"name":"tokenIn","type":"address","internalType":"address"},{"name":"tokenOut","type":"address","internalType":"address"},{"name":"amountIn","type":"uint256","internalType":"uint256"},{"name":"_recipient","type":"address","internalType":"address"},{"name":"_swapFee","type":"uint24","internalType":"uint24"}],"outputs":[{"name":"outputAmount","type":"uint256","internalType":"uint256"}],"stateMutability":"nonpayable"},{"type":"function","name":"swapRouterV2","inputs":[],"outputs":[{"name":"","type":"address","internalType":"contract IUniswapV2Router02"}],"stateMutability":"view"},{"type":"function","name":"swapRouterV3","inputs":[],"outputs":[{"name":"","type":"address","internalType":"contract ISwapRouter"}],"stateMutability":"view"},{"type":"function","name":"toUsdPriceFeed","inputs":[],"outputs":[{"name":"","type":"address","internalType":"contract AggregatorV3Interface"}],"stateMutability":"view"},{"type":"function","name":"transferOwnership","inputs":[{"name":"newOwner","type":"address","internalType":"address"}],"outputs":[],"stateMutability":"nonpayable"},{"type":"function","name":"unpause","inputs":[],"outputs":[],"stateMutability":"nonpayable"},{"type":"function","name":"vault","inputs":[],"outputs":[{"name":"","type":"address","internalType":"contract Vault"}],"stateMutability":"view"},{"type":"function","name":"weth","inputs":[],"outputs":[{"name":"","type":"address","internalType":"contract IWETH"}],"stateMutability":"view"},{"type":"event","name":"ChainlinkCancelled","inputs":[{"name":"id","type":"bytes32","indexed":true,"internalType":"bytes32"}],"anonymous":false},{"type":"event","name":"ChainlinkFulfilled","inputs":[{"name":"id","type":"bytes32","indexed":true,"internalType":"bytes32"}],"anonymous":false},{"type":"event","name":"ChainlinkRequested","inputs":[{"name":"id","type":"bytes32","indexed":true,"internalType":"bytes32"}],"anonymous":false},{"type":"event","name":"Initialized","inputs":[{"name":"version","type":"uint8","indexed":false,"internalType":"uint8"}],"anonymous":false},{"type":"event","name":"Issuanced","inputs":[{"name":"messageId","type":"bytes32","indexed":true,"internalType":"bytes32"},{"name":"nonce","type":"uint256","indexed":true,"internalType":"uint256"},{"name":"time","type":"uint256","indexed":false,"internalType":"uint256"}],"anonymous":false},{"type":"event","name":"MessageSent","inputs":[{"name":"messageId","type":"bytes32","indexed":false,"internalType":"bytes32"}],"anonymous":false},{"type":"event","name":"OwnershipTransferred","inputs":[{"name":"previousOwner","type":"address","indexed":true,"internalType":"address"},{"name":"newOwner","type":"address","indexed":true,"internalType":"address"}],"anonymous":false},{"type":"event","name":"Paused","inputs":[{"name":"account","type":"address","indexed":false,"internalType":"address"}],"anonymous":false},{"type":"event","name":"Redemption","inputs":[{"name":"messageId","type":"bytes32","indexed":true,"internalType":"bytes32"},{"name":"nonce","type":"uint256","indexed":true,"internalType":"uint256"},{"name":"time","type":"uint256","indexed":false,"internalType":"uint256"}],"anonymous":false},{"type":"event","name":"Unpaused","inputs":[{"name":"account","type":"address","indexed":false,"internalType":"address"}],"anonymous":false},{"type":"error","name":"InvalidRouter","inputs":[{"name":"router","type":"address","internalType":"address"}]}],"bytecode":{"object":"0x6080604052348015600f57600080fd5b506153ed8061001f6000396000f3fe6080604052600436106103395760003560e01c806381b15279116101ab578063b631e80b116100f7578063dd811ac911610095578063f0cd5b721161006f578063f0cd5b7214610a52578063f2fde38b14610a72578063fbfa77cf14610a92578063ff5474f014610ab257600080fd5b8063dd811ac9146109fc578063ddca3f4314610a1c578063ee7bd3e214610a3257600080fd5b8063c086381e116100d1578063c086381e1461097c578063c6bbd5a71461099c578063d030366c146109bc578063d153b60c146109dc57600080fd5b8063b631e80b1461090c578063bcab90b31461092c578063c01bc9821461094c57600080fd5b8063978bbdb9116101645780639f8e67bf1161013e5780639f8e67bf14610888578063b0f479a1146108a8578063b3f00674146108cc578063b5ed298a146108ec57600080fd5b8063978bbdb9146108095780639c3ddb2e146108355780639eeb1d501461086657600080fd5b806381b15279146107085780638456cb591461075c57806385572ffb146107715780638da5cb5b146107915780639121c717146107af57806394037369146107dc57600080fd5b80633c8da5881161028557806363973fda11610223578063715018a6116101fd578063715018a614610693578063744fbc7a146106a85780637d253aff146106c85780637e79f512146106e857600080fd5b806363973fda14610602578063652354ae146106225780636817031b1461067357600080fd5b80633fc8cef31161025f5780633fc8cef314610575578063530e784f146105955780635b6a0351146105b55780635c975abb146105ea57600080fd5b80633c8da588146105135780633d54cb6f146105285780633f4ba83a1461056057600080fd5b806319da7e2a116102f257806327bf9b44116102cc57806327bf9b441461049a5780632b52684d146104ba5780632fecd589146104d0578063306b3a28146104e657600080fd5b806319da7e2a146104245780631d5f45f51461045a5780632630c12f1461047a57600080fd5b8063011ced5f1461034557806301ffc9a71461036e578063075461721461039e5780630c02e130146103d657806317c27b76146103ec578063184a732f1461040e57600080fd5b3661034057005b600080fd5b34801561035157600080fd5b5061035b60d65481565b6040519081526020015b60405180910390f35b34801561037a57600080fd5b5061038e610389366004614481565b610ad2565b6040519015158152602001610365565b3480156103aa57600080fd5b5060dd546103be906001600160a01b031681565b6040516001600160a01b039091168152602001610365565b3480156103e257600080fd5b5061035b60e15481565b3480156103f857600080fd5b5061040c6104073660046144dc565b610b09565b005b34801561041a57600080fd5b5061035b60d95481565b34801561043057600080fd5b506103be61043f366004614596565b60e8602052600090815260409020546001600160a01b031681565b34801561046657600080fd5b5060e4546103be906001600160a01b031681565b34801561048657600080fd5b5060dc546103be906001600160a01b031681565b3480156104a657600080fd5b5061040c6104b53660046145b1565b611087565b3480156104c657600080fd5b5061035b60df5481565b3480156104dc57600080fd5b5061035b60d85481565b3480156104f257600080fd5b5061035b6105013660046145ce565b60ee6020526000908152604090205481565b34801561051f57600080fd5b5061035b6110b9565b34801561053457600080fd5b5060d754610548906001600160401b031681565b6040516001600160401b039091168152602001610365565b34801561056c57600080fd5b5061040c6111c7565b34801561058157600080fd5b5060e6546103be906001600160a01b031681565b3480156105a157600080fd5b5061040c6105b03660046145b1565b6111d9565b3480156105c157600080fd5b5060d0546105d790600160a01b900461ffff1681565b60405161ffff9091168152602001610365565b3480156105f657600080fd5b50609e5460ff1661038e565b34801561060e57600080fd5b5060e2546103be906001600160a01b031681565b34801561062e57600080fd5b5061065f61063d3660046145e7565b60e960209081526000928352604080842090915290825290205462ffffff1681565b60405162ffffff9091168152602001610365565b34801561067f57600080fd5b5061040c61068e3660046145b1565b61126d565b34801561069f57600080fd5b5061040c611297565b3480156106b457600080fd5b5060e5546103be906001600160a01b031681565b3480156106d457600080fd5b5060d0546103be906001600160a01b031681565b3480156106f457600080fd5b5061035b610703366004614631565b6112a9565b34801561071457600080fd5b50610747610723366004614695565b60ec6020908152600092835260408084209091529082529020805460019091015482565b60408051928352602083019190915201610365565b34801561076857600080fd5b5061040c61141d565b34801561077d57600080fd5b5061040c61078c3660046146ba565b61142d565b34801561079d57600080fd5b506039546001600160a01b03166103be565b3480156107bb57600080fd5b5061035b6107ca3660046145ce565b60ef6020526000908152604090205481565b3480156107e857600080fd5b5061035b6107f73660046145ce565b60ed6020526000908152604090205481565b34801561081557600080fd5b5060d5546108239060ff1681565b60405160ff9091168152602001610365565b34801561084157600080fd5b506108556108503660046145ce565b611474565b60405161036595949392919061473a565b34801561087257600080fd5b5061087b611550565b604051610365919061478a565b34801561089457600080fd5b5060db546103be906001600160a01b031681565b3480156108b457600080fd5b506000546201000090046001600160a01b03166103be565b3480156108d857600080fd5b5060da546103be906001600160a01b031681565b3480156108f857600080fd5b5061040c6109073660046145b1565b6115de565b34801561091857600080fd5b5060e3546103be906001600160a01b031681565b34801561093857600080fd5b5061035b61094736600461489c565b61162e565b34801561095857600080fd5b5061038e6109673660046145b1565b60e06020526000908152604090205460ff1681565b34801561098857600080fd5b5061035b6109973660046145ce565b6119de565b3480156109a857600080fd5b5060e7546103be906001600160a01b031681565b3480156109c857600080fd5b5061035b6109d73660046145ce565b611a05565b3480156109e857600080fd5b50606b546103be906001600160a01b031681565b348015610a0857600080fd5b5061035b610a17366004614912565b611a26565b348015610a2857600080fd5b5061035b60d45481565b348015610a3e57600080fd5b5061035b610a4d366004614963565b611b67565b348015610a5e57600080fd5b5061040c610a6d3660046149be565b611c0f565b348015610a7e57600080fd5b5061040c610a8d3660046145b1565b611c76565b348015610a9e57600080fd5b5060d3546103be906001600160a01b031681565b348015610abe57600080fd5b5060eb54610548906001600160401b031681565b60006001600160e01b031982166385572ffb60e01b1480610b0357506001600160e01b031982166301ffc9a760e01b145b92915050565b600054610100900460ff1615808015610b295750600054600160ff909116105b80610b435750303b158015610b43575060005460ff166001145b610bab5760405162461bcd60e51b815260206004820152602e60248201527f496e697469616c697a61626c653a20636f6e747261637420697320616c72656160448201526d191e481a5b9a5d1a585b1a5e995960921b60648201526084015b60405180910390fd5b6000805460ff191660011790558015610bce576000805461ff0019166101001790555b60008a6001600160401b031611610c205760405162461bcd60e51b815260206004820152601660248201527524b73b30b634b21031b430b4b71039b2b632b1ba37b960511b6044820152606401610ba2565b6001600160a01b038916610c6e5760405162461bcd60e51b8152602060048201526015602482015274496e76616c6964207661756c74206164647265737360581b6044820152606401610ba2565b6001600160a01b038816610cc45760405162461bcd60e51b815260206004820152601f60248201527f496e76616c696420436861696e6c696e6b20746f6b656e2061646472657373006044820152606401610ba2565b6001600160a01b038716610d135760405162461bcd60e51b8152602060048201526016602482015275496e76616c696420726f75746572206164647265737360501b6044820152606401610ba2565b6001600160a01b038616610d605760405162461bcd60e51b8152602060048201526014602482015273496e76616c69642057455448206164647265737360601b6044820152606401610ba2565b6001600160a01b038516610db65760405162461bcd60e51b815260206004820152601e60248201527f496e76616c6964207377617020726f75746572207633206164647265737300006044820152606401610ba2565b6001600160a01b038416610e0c5760405162461bcd60e51b815260206004820152601a60248201527f496e76616c696420666163746f727920763320616464726573730000000000006044820152606401610ba2565b6001600160a01b038316610e625760405162461bcd60e51b815260206004820152601e60248201527f496e76616c6964207377617020726f75746572207632206164647265737300006044820152606401610ba2565b6001600160a01b038216610eb85760405162461bcd60e51b815260206004820152601a60248201527f496e76616c6964207072696365206665656420616464726573730000000000006044820152606401610ba2565b610ec0611d9b565b610ec8611dca565b60d780546001600160401b038c1667ffffffffffffffff1990911617905560d380546001600160a01b038b166001600160a01b0319909116179055610f2a88600380546001600160a01b039092166001600160a01b0319909216919091179055565b6000805462010000600160b01b031916620100006001600160a01b038a81168202929092179283905560d080548c84166001600160b01b03199091168117600560a01b1790915560405163095ea7b360e01b8152919093049091166004820152600019602482015263095ea7b3906044016020604051808303816000875af1158015610fba573d6000803e3d6000fd5b505050506040513d601f19601f82011682018060405250810190610fde9190614a03565b5060e680546001600160a01b03199081166001600160a01b038981169190911790925560e38054821688841617905560e48054821687841617905560e58054821686841617905560e28054909116918416919091179055801561107b576000805461ff0019169055604051600181527f7f26b83ff96e1f2b6a682f133852f6798a09c465da95921460cefb38474024989060200160405180910390a15b50505050505050505050565b61108f611df9565b600080546001600160a01b03909216620100000262010000600160b01b0319909216919091179055565b60008060e260009054906101000a90046001600160a01b03166001600160a01b031663feaf968c6040518163ffffffff1660e01b815260040160a060405180830381865afa15801561110f573d6000803e3d6000fd5b505050506040513d601f19601f820116820180604052508101906111339190614a3f565b505050915050600060e260009054906101000a90046001600160a01b03166001600160a01b031663313ce5676040518163ffffffff1660e01b8152600401602060405180830381865afa15801561118e573d6000803e3d6000fd5b505050506040513d601f19601f820116820180604052508101906111b29190614a85565b90506111c082826012611e53565b9392505050565b6111cf611df9565b6111d7611e93565b565b6111e1611df9565b6001600160a01b03811661124b5760405162461bcd60e51b815260206004820152602b60248201527f5072696365206f7261636c6520616464726573732063616e6e6f74206265207a60448201526a65726f206164647265737360a81b6064820152608401610ba2565b60dc80546001600160a01b0319166001600160a01b0392909216919091179055565b611275611df9565b60d380546001600160a01b0319166001600160a01b0392909216919091179055565b61129f611df9565b6111d76000611ee5565b60006001600160a01b0386166112fb5760405162461bcd60e51b8152602060048201526017602482015276496e76616c696420746f6b656e496e206164647265737360481b6044820152606401610ba2565b6001600160a01b03851661134c5760405162461bcd60e51b8152602060048201526018602482015277496e76616c696420746f6b656e4f7574206164647265737360401b6044820152606401610ba2565b6000841161139c5760405162461bcd60e51b815260206004820181905260248201527f416d6f756e74206d7573742062652067726561746572207468616e207a65726f6044820152606401610ba2565b6001600160a01b0383166113f25760405162461bcd60e51b815260206004820152601960248201527f496e76616c696420726563697069656e742061646472657373000000000000006044820152606401610ba2565b60e35460e554611413916001600160a01b0390811691168489898989611f37565b9695505050505050565b611425611df9565b6111d7612065565b6000546201000090046001600160a01b03163314611460576040516335fdcccd60e21b8152336004820152602401610ba2565b61147161146c82614b67565b6120a2565b50565b60d260205260009081526040902080546001820180546001600160401b03831693680100000000000000009093046001600160a01b03169291906114b790614c1d565b80601f01602080910402602001604051908101604052809291908181526020018280546114e390614c1d565b80156115305780601f1061150557610100808354040283529160200191611530565b820191906000526020600020905b81548152906001019060200180831161151357829003601f168201915b50505050600283015460039093015491926001600160a01b031691905085565b60de805461155d90614c1d565b80601f016020809104026020016040519081016040528092919081815260200182805461158990614c1d565b80156115d65780601f106115ab576101008083540402835291602001916115d6565b820191906000526020600020905b8154815290600101906020018083116115b957829003601f168201915b505050505081565b6115e6611df9565b6001600160a01b03811661160c5760405162461bcd60e51b8152600401610ba290614c57565b606b80546001600160a01b0319166001600160a01b0392909216919091179055565b600080856001600160401b0316116116935760405162461bcd60e51b815260206004820152602260248201527f496e76616c69642064657374696e6174696f6e20636861696e2073656c65637460448201526137b960f11b6064820152608401610ba2565b6001600160a01b0384166116e95760405162461bcd60e51b815260206004820152601860248201527f496e76616c6964207265636569766572206164647265737300000000000000006044820152606401610ba2565b60008351116117315760405162461bcd60e51b8152602060048201526014602482015273446174612063616e6e6f7420626520656d70747960601b6044820152606401610ba2565b6040805160a0810182526001600160a01b03861660c0808301919091528251808303909101815260e082018352815260208082018690528251600080825291810184529092820190836117a6565b604080518082019091526000808252602082015281526020019060019003908161177f5790505b50815260200160018560018111156117c0576117c0614ca7565b146117cc5760006117d9565b60d0546001600160a01b03165b6001600160a01b031681526020016118016040518060200160405280620dbba081525061227b565b9052600080546040516320487ded60e01b81529293509091620100009091046001600160a01b0316906320487ded90611840908a908690600401614cbd565b602060405180830381865afa15801561185d573d6000803e3d6000fd5b505050506040513d601f19601f820116820180604052508101906118819190614d92565b90506000600185600181111561189957611899614ca7565b0361191f576000546040516396f4e9f960e01b8152620100009091046001600160a01b0316906396f4e9f9906118d5908b908790600401614cbd565b6020604051808303816000875af11580156118f4573d6000803e3d6000fd5b505050506040513d601f19601f820116820180604052508101906119189190614d92565b905061199e565b6000546040516396f4e9f960e01b8152620100009091046001600160a01b0316906396f4e9f9908490611958908c908890600401614cbd565b60206040518083038185885af1158015611976573d6000803e3d6000fd5b50505050506040513d601f19601f8201168201806040525081019061199b9190614d92565b90505b6040518181527f54791b38f3859327992a1ca0590ad3c0f08feba98d1a4f56ab0dca74d203392a9060200160405180910390a1925050505b949350505050565b6000670de0b6b3a76400006119f16110b9565b6119fb9084614dc1565b610b039190614dd8565b60d18181548110611a1557600080fd5b600091825260209091200154905081565b600082156119d65762ffffff821615611a4c57611a4585858585611b67565b90506119d6565b6040805160028082526060820183526000926020830190803683370190505090508581600081518110611a8157611a81614dfa565b60200260200101906001600160a01b031690816001600160a01b0316815250508481600181518110611ab557611ab5614dfa565b6001600160a01b03928316602091820292909201015260e55460405163d06ca61f60e01b8152600092919091169063d06ca61f90611af99088908690600401614e55565b600060405180830381865afa158015611b16573d6000803e3d6000fd5b505050506040513d6000823e601f3d908101601f19168201604052611b3e9190810190614ecc565b905080600181518110611b5357611b53614dfa565b602002602001015192505050949350505050565b60dc5460e45460405163bb5705b360e01b81526001600160a01b039182166004820152868216602482015285821660448201526001600160801b038516606482015262ffffff84166084820152600092919091169063bb5705b39060a401602060405180830381865afa158015611be2573d6000803e3d6000fd5b505050506040513d601f19601f82011682018060405250810190611c069190614d92565b95945050505050565b611c17611df9565b6001600160401b0392909216600090815260e86020908152604080832080546001600160a01b0319166001600160a01b0395909516948517905560e9825280832093835292905220805462ffffff191662ffffff909216919091179055565b6001600160a01b038116611c9c5760405162461bcd60e51b8152600401610ba290614c57565b606b546001600160a01b03828116911614611d145760405162461bcd60e51b815260206004820152603260248201527f50726f706f7361626c654f776e61626c653a206e6577206f776e6572206973206044820152713737ba10383937b837b9b2b21037bbb732b960711b6064820152608401610ba2565b6001600160a01b0381163314611d925760405162461bcd60e51b815260206004820152603a60248201527f50726f706f7361626c654f776e61626c653a20746869732063616c6c206d757360448201527f74206265206d61646520627920746865206e6577206f776e65720000000000006064820152608401610ba2565b61147181611ee5565b600054610100900460ff16611dc25760405162461bcd60e51b8152600401610ba290614f00565b6111d76122b8565b600054610100900460ff16611df15760405162461bcd60e51b8152600401610ba290614f00565b6111d76122e8565b6039546001600160a01b031633146111d75760405162461bcd60e51b815260206004820181905260248201527f4f776e61626c653a2063616c6c6572206973206e6f7420746865206f776e65726044820152606401610ba2565b60008260ff168260ff161115611e8957611e6d8383614f4b565b611e7890600a61504b565b611e82908561505a565b90506111c0565b611e6d8284614f4b565b611e9b61231b565b609e805460ff191690557f5db9ee0a495bf2e6ff9c91a7834c1ba4fdd244a5e8aa4e537bd38aeae4b073aa335b6040516001600160a01b03909116815260200160405180910390a1565b603980546001600160a01b038381166001600160a01b0319831681179093556040519116919082907f8be0079c531659141344cd1fd0a4f28419497f9722a3daafe3b4186f6b6457e090600090a35050565b60006001600160a01b038516611f895760405162461bcd60e51b8152602060048201526017602482015276496e76616c696420746f6b656e496e206164647265737360481b6044820152606401610ba2565b6001600160a01b038416611fda5760405162461bcd60e51b8152602060048201526018602482015277496e76616c696420746f6b656e4f7574206164647265737360401b6044820152606401610ba2565b6000831161202a5760405162461bcd60e51b815260206004820181905260248201527f416d6f756e74206d7573742062652067726561746572207468616e207a65726f6044820152606401610ba2565b62ffffff86161561204a57612043888787878787612364565b905061205a565b61205787868686866124c5565b90505b979650505050505050565b61206d6126bd565b609e805460ff191660011790557f62e78cea01bee320cd4e420270b5ea74000d11b0c9f74754ebdbfc544b05a258611ec83390565b600081602001519050600082604001518060200190518101906120c5919061508a565b90506000806000806000806000808a606001518060200190518101906120eb919061510e565b975097509750975097509750975097508760000361211e5760808b0151612118818988878f8f8989612703565b5061226e565b87600103612139576121348786858d8d86612c7c565b61226e565b8760020361214e576121348786858d8d6130c8565b876003036121b0576121346040518061012001604052808981526020018881526020018781526020018681526020018481526020018c6001600160401b031681526020018b6001600160a01b0316815260200185815260200183815250613378565b8760040361226e5760008b60800151905061226c6040518061016001604052808a81526020018981526020018881526020018781526020018581526020018360008151811061220157612201614dfa565b6020026020010151600001516001600160a01b031681526020018360008151811061222e5761222e614dfa565b60200260200101516020015181526020018d6001600160401b031681526020018c6001600160a01b03168152602001868152602001848152506135f0565b505b5050505050505050505050565b60408051915160248084019190915281518084039091018152604490920190526020810180516001600160e01b03166397a657c960e01b17905290565b600054610100900460ff166122df5760405162461bcd60e51b8152600401610ba290614f00565b6111d733611ee5565b600054610100900460ff1661230f5760405162461bcd60e51b8152600401610ba290614f00565b609e805460ff19169055565b609e5460ff166111d75760405162461bcd60e51b815260206004820152601460248201527314185d5cd8589b194e881b9bdd081c185d5cd95960621b6044820152606401610ba2565b60405163095ea7b360e01b81526001600160a01b038781166004830152602482018490526000919086169063095ea7b3906044016020604051808303816000875af11580156123b7573d6000803e3d6000fd5b505050506040513d601f19601f820116820180604052508101906123db9190614a03565b506000604051806101000160405280876001600160a01b03168152602001866001600160a01b031681526020018862ffffff168152602001846001600160a01b031681526020014261012c6124309190615236565b815260208101869052600060408083018290526060909201525163414bf38960e01b81529091506001600160a01b0389169063414bf38990612476908490600401615249565b6020604051808303816000875af1158015612495573d6000803e3d6000fd5b505050506040513d601f19601f820116820180604052508101906124b99190614d92565b98975050505050505050565b6040805160028082526060820183526000928392919060208301908036833701905050905085816000815181106124fe576124fe614dfa565b60200260200101906001600160a01b031690816001600160a01b031681525050848160018151811061253257612532614dfa565b6001600160a01b03928316602091820292909201015260405163d06ca61f60e01b815260009189169063d06ca61f906125719088908690600401614e55565b600060405180830381865afa15801561258e573d6000803e3d6000fd5b505050506040513d6000823e601f3d908101601f191682016040526125b69190810190614ecc565b60405163095ea7b360e01b81526001600160a01b038a81166004830152602482018890529192509088169063095ea7b3906044016020604051808303816000875af1158015612609573d6000803e3d6000fd5b505050506040513d601f19601f8201168201806040525081019061262d9190614a03565b50604051635c11d79560e01b81526001600160a01b03891690635c11d7959061266390889060009087908a9042906004016152c6565b600060405180830381600087803b15801561267d57600080fd5b505af1158015612691573d6000803e3d6000fd5b50505050806001815181106126a8576126a8614dfa565b60200260200101519250505095945050505050565b609e5460ff16156111d75760405162461bcd60e51b815260206004820152601060248201526f14185d5cd8589b194e881c185d5cd95960821b6044820152606401610ba2565b61272e6040518060800160405280600081526020016060815260200160608152602001606081525090565b6127ef8960008151811061274457612744614dfa565b60200260200101516000015160e660009054906101000a90046001600160a01b03168b60008151811061277957612779614dfa565b6020026020010151602001513060e960008b6001600160401b03166001600160401b0316815260200190815260200160002060008f6000815181106127c0576127c0614dfa565b602090810291909101810151516001600160a01b031682528101919091526040016000205462ffffff166112a9565b815287516001600160401b0381111561280a5761280a61479d565b604051908082528060200260200182016040528015612833578160200160208202803683370190505b50602082015287516001600160401b038111156128525761285261479d565b60405190808252806020026020018201604052801561287b578160200160208202803683370190505b50604082015260005b8851811015612bc7576000836000815181106128a2576128a2614dfa565b60200260200101518583815181106128bc576128bc614dfa565b602002602001015184600001516128d39190614dc1565b6128dd9190614dd8565b60e6548b519192506000916001600160a01b03909116908c908590811061290657612906614dfa565b60200260200101516001600160a01b031603612a27578a838151811061292e5761292e614dfa565b602090810291909101015160d3546040516370a0823160e01b81526001600160a01b0391821660048201529116906370a0823190602401602060405180830381865afa158015612982573d6000803e3d6000fd5b505050506040513d601f19601f820116820180604052508101906129a69190614d92565b60e65460d35460405163a9059cbb60e01b81526001600160a01b03918216600482015260248101869052929350169063a9059cbb906044016020604051808303816000875af11580156129fd573d6000803e3d6000fd5b505050506040513d601f19601f82011682018060405250810190612a219190614a03565b50612b59565b612aec8b8481518110612a3c57612a3c614dfa565b602002602001015160e660009054906101000a90046001600160a01b03168d8681518110612a6c57612a6c614dfa565b602090810291909101015160d3546040516370a0823160e01b81526001600160a01b0391821660048201529116906370a0823190602401602060405180830381865afa158015612ac0573d6000803e3d6000fd5b505050506040513d601f19601f82011682018060405250810190612ae49190614d92565b610bb8611a26565b9050612b5760e660009054906101000a90046001600160a01b03168c8581518110612b1957612b19614dfa565b60200260200101518460d360009054906101000a90046001600160a01b03168e8881518110612b4a57612b4a614dfa565b60200260200101516112a9565b505b6000612b658383615236565b9050612b70826119de565b85602001518581518110612b8657612b86614dfa565b602002602001018181525050612b9b816119de565b85604001518581518110612bb157612bb1614dfa565b6020908102919091010152505050600101612884565b506040805160008082526020808301845284015184840151612bf49492938d9390928c9290918401615317565b60405160208183030381529060405281606001819052506000612c1e86868460600151600161162e565b600088815260ef60205260409081902082905551909150879082907f7513d57665f5bbb438203d2f2a896f1f0791e1e8cd0e2d76d7bc421bfb4f49aa90612c689042815260200190565b60405180910390a350505050505050505050565b6000805b8751811015612f06576000670de0b6b3a7640000898381518110612ca657612ca6614dfa565b602090810291909101015160d3546040516370a0823160e01b81526001600160a01b0391821660048201529116906370a0823190602401602060405180830381865afa158015612cfa573d6000803e3d6000fd5b505050506040513d601f19601f82011682018060405250810190612d1e9190614d92565b85600081518110612d3157612d31614dfa565b6020026020010151612d439190614dc1565b612d4d9190614dd8565b60e6548a519192506001600160a01b0316908a9084908110612d7157612d71614dfa565b60200260200101516001600160a01b031603612e145760d35460e654604051631c20fadd60e01b81526001600160a01b0392831692631c20fadd92612dbf9291169030908690600401615380565b6020604051808303816000875af1158015612dde573d6000803e3d6000fd5b505050506040513d601f19601f82011682018060405250810190612e029190614a03565b50612e0d8184615236565b9250612efd565b60d35489516001600160a01b0390911690631c20fadd908b9085908110612e3d57612e3d614dfa565b602002602001015130846040518463ffffffff1660e01b8152600401612e6593929190615380565b6020604051808303816000875af1158015612e84573d6000803e3d6000fd5b505050506040513d601f19601f82011682018060405250810190612ea89190614a03565b50612ef0898381518110612ebe57612ebe614dfa565b602002602001015160e660009054906101000a90046001600160a01b031683308c8781518110612b4a57612b4a614dfa565b612efa9084615236565b92505b50600101612c80565b5060e6546001600160401b038516600090815260e8602090815260408083205460e983528184206001600160a01b039182168086529352908320549293612f5993911691908590309062ffffff166112a9565b60408051600180825281830190925291925060009190816020015b6040805180820190915260008082526020820152815260200190600190039081612f745750506001600160401b038716600090815260e8602052604081205482519293506001600160a01b031691839190612fd157612fd1614dfa565b6020026020010151600001906001600160a01b031690816001600160a01b031681525050818160008151811061300957613009614dfa565b6020908102919091018101518101919091526040805160008082529281018381528183019092529190613047906001908d908c868060608101615317565b6040516020818303038152906040529050600061306889838a876001613692565b60008b815260ee602052604090819020829055519091508a9082907f2c80cd3884ced9a087f5eed6c8ddd78af4b449cdea210b92786f35bd496f5343906130b29042815260200190565b60405180910390a3505050505050505050505050565b604080516000808252602082019092529050600086516001600160401b038111156130f5576130f561479d565b60405190808252806020026020018201604052801561311e578160200160208202803683370190505b50905060005b87518110156133275760e65488516001600160a01b039091169089908390811061315057613150614dfa565b60200260200101516001600160a01b031603613216576131f388828151811061317b5761317b614dfa565b602090810291909101015160d3546040516370a0823160e01b81526001600160a01b0391821660048201529116906370a0823190602401602060405180830381865afa1580156131cf573d6000803e3d6000fd5b505050506040513d601f19601f820116820180604052508101906109979190614d92565b82828151811061320557613205614dfa565b60200260200101818152505061331f565b60006132f489838151811061322d5761322d614dfa565b602002602001015160e660009054906101000a90046001600160a01b03168b858151811061325d5761325d614dfa565b602090810291909101015160d3546040516370a0823160e01b81526001600160a01b0391821660048201529116906370a0823190602401602060405180830381865afa1580156132b1573d6000803e3d6000fd5b505050506040513d601f19601f820116820180604052508101906132d59190614d92565b8b86815181106132e7576132e7614dfa565b6020026020010151611a26565b90506132ff816119de565b83838151811061331157613311614dfa565b602002602001018181525050505b600101613124565b506040805160008082526020820183529161334f916002918b91908a90879089908401615317565b604051602081830303815290604052905061336d858583600161162e565b505050505050505050565b6133aa6040518060a0016040528060008152602001600081526020016000815260200160008152602001600081525090565b815151815261010082015180516000906133c6576133c6614dfa565b60200260200101518160200181815250508161010001516001815181106133ef576133ef614dfa565b602002602001015181604001818152505081610100015160028151811061341857613418614dfa565b6020026020010151816080018181525050600061345782846000015185602001518660400151876060015188608001518960c001518a60e00151613ab8565b60e65460a0850180516001600160401b03908116600090815260e8602081815260408084205486518616855260e9835281852096519095168452918152818320546001600160a01b039081168452949052812054949550936134c893831692909116908590309062ffffff166112a9565b60408051600180825281830190925291925060009190816020015b60408051808201909152600080825260208201528152602001906001900390816134e357505060a08601516001600160401b0316600090815260e8602052604081205482519293506001600160a01b03169183919061354457613544614dfa565b6020026020010151600001906001600160a01b031690816001600160a01b031681525050818160008151811061357c5761357c614dfa565b602090810291909101810151810191909152604080516000808252818401835288519389015160e08a0151929491936135bf936003939291879081908101615317565b60405160208183030381529060405290506135e68760a00151828960c00151866001613692565b5050505050505050565b600061361e8260a0015160e660009054906101000a90046001600160a01b03168460c0015130610bb86112a9565b9050613648826000015183602001518460400151856060015186608001518688610140015161400a565b6040805160008082526020820181815282840190935261012085015191929161367d9060049084908190878060608101615317565b60408051601f19818403019052525050505050565b815160d05460009190600160a01b900461ffff1681111561371b5760405162461bcd60e51b815260206004820152603760248201527f4d6178696d756d203520646966666572656e7420746f6b656e732063616e206260448201527f652073656e74207065722043434950204d6573736167650000000000000000006064820152608401610ba2565b60005b818110156138415760d05485516001600160a01b039091169086908390811061374957613749614dfa565b6020026020010151600001516001600160a01b0316146138395784818151811061377557613775614dfa565b6020026020010151600001516001600160a01b031663095ea7b3600060029054906101000a90046001600160a01b03168784815181106137b7576137b7614dfa565b6020026020010151602001516040518363ffffffff1660e01b81526004016137f49291906001600160a01b03929092168252602082015260400190565b6020604051808303816000875af1158015613813573d6000803e3d6000fd5b505050506040513d601f19601f820116820180604052508101906138379190614a03565b505b60010161371e565b506040805160a081019091526001600160a01b03861660c08201526000908060e0810160408051601f19818403018152918152908252602082018a90528101879052606001600186600181111561389a5761389a614ca7565b146138a65760006138b3565b60d0546001600160a01b03165b6001600160a01b031681526020016138db6040518060200160405280620dbba081525061227b565b9052600080546040516320487ded60e01b81529293509091620100009091046001600160a01b0316906320487ded9061391a908c908690600401614cbd565b602060405180830381865afa158015613937573d6000803e3d6000fd5b505050506040513d601f19601f8201168201806040525081019061395b9190614d92565b90506000600186600181111561397357613973614ca7565b036139f9576000546040516396f4e9f960e01b8152620100009091046001600160a01b0316906396f4e9f9906139af908d908790600401614cbd565b6020604051808303816000875af11580156139ce573d6000803e3d6000fd5b505050506040513d601f19601f820116820180604052508101906139f29190614d92565b9050613a78565b6000546040516396f4e9f960e01b8152620100009091046001600160a01b0316906396f4e9f9908490613a32908e908890600401614cbd565b60206040518083038185885af1158015613a50573d6000803e3d6000fd5b50505050506040513d601f19601f82011682018060405250810190613a759190614d92565b90505b6040518181527f54791b38f3859327992a1ca0590ad3c0f08feba98d1a4f56ab0dca74d203392a9060200160405180910390a19998505050505050505050565b6000613b10604051806101400160405280600081526020016000815260200160008152602001600081526020016000815260200160008152602001600081526020016000815260200160008152602001600081525090565b60e65460d3546040516370a0823160e01b81526001600160a01b0391821660048201529116906370a0823190602401602060405180830381865afa158015613b5c573d6000803e3d6000fd5b505050506040513d601f19601f82011682018060405250810190613b809190614d92565b60a082015260005b8951811015613de15760e6548a516000916001600160a01b0316908c9084908110613bb557613bb5614dfa565b60200260200101516001600160a01b031603613c565760d35460e65460a0850151604051631c20fadd60e01b81526001600160a01b0393841693631c20fadd93613c0793911691309190600401615380565b6020604051808303816000875af1158015613c26573d6000803e3d6000fd5b505050506040513d601f19601f82011682018060405250810190613c4a9190614a03565b505060a0820151613dc3565b60008b8381518110613c6a57613c6a614dfa565b602090810291909101015160d3546040516370a0823160e01b81526001600160a01b0391821660048201529116906370a0823190602401602060405180830381865afa158015613cbe573d6000803e3d6000fd5b505050506040513d601f19601f82011682018060405250810190613ce29190614d92565b60d3548d519192506001600160a01b031690631c20fadd908e9086908110613d0c57613d0c614dfa565b602002602001015130846040518463ffffffff1660e01b8152600401613d3493929190615380565b6020604051808303816000875af1158015613d53573d6000803e3d6000fd5b505050506040513d601f19601f82011682018060405250810190613d779190614a03565b50613dbf8c8481518110613d8d57613d8d614dfa565b602002602001015160e660009054906101000a90046001600160a01b031683308e8881518110612b4a57612b4a614dfa565b9150505b8083606001818151613dd59190615236565b90525050600101613b88565b5060208a015160808b0151613dff9068056bc75e2d63100000614dc1565b613e099190614dd8565b60e0820181905260408b01516060830151613e249190614dc1565b613e2e9190614dd8565b61010082018190526060820151613e4591906153a4565b61012082015260005b8851811015613ff75760e65489516001600160a01b03909116908a9083908110613e7a57613e7a614dfa565b60200260200101516001600160a01b031603613f5b5760e65460d35460408d015188516001600160a01b039384169363a9059cbb931691908a9086908110613ec457613ec4614dfa565b6020026020010151866101000151613edc9190614dc1565b613ee69190614dd8565b6040516001600160e01b031960e085901b1681526001600160a01b03909216600483015260248201526044016020604051808303816000875af1158015613f31573d6000803e3d6000fd5b505050506040513d601f19601f82011682018060405250810190613f559190614a03565b50613fef565b6000613fec60e660009054906101000a90046001600160a01b03168b8481518110613f8857613f88614dfa565b60200260200101518e604001518a8681518110613fa757613fa7614dfa565b6020026020010151876101000151613fbf9190614dc1565b613fc99190614dd8565b60d3548c516001600160a01b03909116908d9088908110612b4a57612b4a614dfa565b50505b600101613e4e565b5061012001519998505050505050505050565b6140436040518060c001604052806000815260200160008152602001600081526020016000815260200160008152602001600081525090565b8160018151811061405657614056614dfa565b602090810291909101810151825288519082015260e65460d3546040516370a0823160e01b81526001600160a01b0391821660048201529116906370a0823190602401602060405180830381865afa1580156140b6573d6000803e3d6000fd5b505050506040513d601f19601f820116820180604052508101906140da9190614d92565b60408201526000606082018190525b88518110156142f257600089828151811061410657614106614dfa565b602090810291909101015160e6549091506000906001600160a01b03908116908316036141b85760d35460e6546040808701519051631c20fadd60e01b81526001600160a01b0393841693631c20fadd9361416993911691309190600401615380565b6020604051808303816000875af1158015614188573d6000803e3d6000fd5b505050506040513d601f19601f820116820180604052508101906141ac9190614a03565b505060408301516142d3565b60d3546040516370a0823160e01b81526001600160a01b0391821660048201526000918416906370a0823190602401602060405180830381865afa158015614204573d6000803e3d6000fd5b505050506040513d601f19601f820116820180604052508101906142289190614d92565b60d354604051631c20fadd60e01b81529192506001600160a01b031690631c20fadd9061425d90869030908690600401615380565b6020604051808303816000875af115801561427c573d6000803e3d6000fd5b505050506040513d601f19601f820116820180604052508101906142a09190614a03565b506142cf8360e660009054906101000a90046001600160a01b031683308e8981518110612b4a57612b4a614dfa565b9150505b80846060018181516142e59190615236565b90525050506001016140e9565b5060608101516143029084615236565b6080820152865160a082015260005b875181101561336d57600088828151811061432e5761432e614dfa565b60200260200101519050600086838151811061434c5761434c614dfa565b602090810291909101015160e6549091506001600160a01b039081169083160361441c5760e65460d354855160808701516001600160a01b039384169363a9059cbb9316919061439d908690614dc1565b6143a79190614dd8565b6040516001600160e01b031960e085901b1681526001600160a01b03909216600483015260248201526044016020604051808303816000875af11580156143f2573d6000803e3d6000fd5b505050506040513d601f19601f820116820180604052508101906144169190614a03565b50614477565b60e65484516080860151600092614474926001600160a01b0390911691869190614447908790614dc1565b6144519190614dd8565b60d3548d516001600160a01b03909116908e908a908110612b4a57612b4a614dfa565b50505b5050600101614311565b60006020828403121561449357600080fd5b81356001600160e01b0319811681146111c057600080fd5b80356001600160401b03811681146144c257600080fd5b919050565b6001600160a01b038116811461147157600080fd5b60008060008060008060008060006101208a8c0312156144fb57600080fd5b6145048a6144ab565b985060208a0135614514816144c7565b975060408a0135614524816144c7565b965060608a0135614534816144c7565b955060808a0135614544816144c7565b945060a08a0135614554816144c7565b935060c08a0135614564816144c7565b925060e08a0135614574816144c7565b91506101008a0135614585816144c7565b809150509295985092959850929598565b6000602082840312156145a857600080fd5b6111c0826144ab565b6000602082840312156145c357600080fd5b81356111c0816144c7565b6000602082840312156145e057600080fd5b5035919050565b600080604083850312156145fa57600080fd5b614603836144ab565b91506020830135614613816144c7565b809150509250929050565b803562ffffff811681146144c257600080fd5b600080600080600060a0868803121561464957600080fd5b8535614654816144c7565b94506020860135614664816144c7565b935060408601359250606086013561467b816144c7565b91506146896080870161461e565b90509295509295909350565b600080604083850312156146a857600080fd5b823591506020830135614613816144c7565b6000602082840312156146cc57600080fd5b81356001600160401b038111156146e257600080fd5b820160a081850312156111c057600080fd5b6000815180845260005b8181101561471a576020818501810151868301820152016146fe565b506000602082860101526020601f19601f83011685010191505092915050565b6001600160401b03861681526001600160a01b038516602082015260a06040820181905260009061476d908301866146f4565b6001600160a01b0394909416606083015250608001529392505050565b6020815260006111c060208301846146f4565b634e487b7160e01b600052604160045260246000fd5b604080519081016001600160401b03811182821017156147d5576147d561479d565b60405290565b60405160a081016001600160401b03811182821017156147d5576147d561479d565b604051601f8201601f191681016001600160401b03811182821017156148255761482561479d565b604052919050565b600082601f83011261483e57600080fd5b81356001600160401b038111156148575761485761479d565b61486a601f8201601f19166020016147fd565b81815284602083860101111561487f57600080fd5b816020850160208301376000918101602001919091529392505050565b600080600080608085870312156148b257600080fd5b6148bb856144ab565b935060208501356148cb816144c7565b925060408501356001600160401b038111156148e657600080fd5b6148f28782880161482d565b92505060608501356002811061490757600080fd5b939692955090935050565b6000806000806080858703121561492857600080fd5b8435614933816144c7565b93506020850135614943816144c7565b9250604085013591506149586060860161461e565b905092959194509250565b6000806000806080858703121561497957600080fd5b8435614984816144c7565b93506020850135614994816144c7565b925060408501356001600160801b03811681146149b057600080fd5b91506149586060860161461e565b6000806000606084860312156149d357600080fd5b6149dc846144ab565b925060208401356149ec816144c7565b91506149fa6040850161461e565b90509250925092565b600060208284031215614a1557600080fd5b815180151581146111c057600080fd5b805169ffffffffffffffffffff811681146144c257600080fd5b600080600080600060a08688031215614a5757600080fd5b614a6086614a25565b6020870151604088015160608901519297509095509350915061468960808701614a25565b600060208284031215614a9757600080fd5b815160ff811681146111c057600080fd5b60006001600160401b03821115614ac157614ac161479d565b5060051b60200190565b600082601f830112614adc57600080fd5b8135614aef614aea82614aa8565b6147fd565b8082825260208201915060208360061b860101925085831115614b1157600080fd5b602085015b83811015614b5d5760408188031215614b2e57600080fd5b614b366147b3565b8135614b41816144c7565b8152602082810135818301529084529290920191604001614b16565b5095945050505050565b600060a08236031215614b7957600080fd5b614b816147db565b82358152614b91602084016144ab565b602082015260408301356001600160401b03811115614baf57600080fd5b614bbb3682860161482d565b60408301525060608301356001600160401b03811115614bda57600080fd5b614be63682860161482d565b60608301525060808301356001600160401b03811115614c0557600080fd5b614c1136828601614acb565b60808301525092915050565b600181811c90821680614c3157607f821691505b602082108103614c5157634e487b7160e01b600052602260045260246000fd5b50919050565b60208082526030908201527f50726f706f7361626c654f776e61626c653a206e6577206f776e65722069732060408201526f746865207a65726f206164647265737360801b606082015260800190565b634e487b7160e01b600052602160045260246000fd5b6001600160401b0383168152604060208201526000825160a06040840152614ce860e08401826146f4565b90506020840151603f19848303016060850152614d0582826146f4565b6040860151858203603f19016080870152805180835260209182019450600093509101905b80831015614d6157835180516001600160a01b03168352602090810151818401529093019260019290920191604090910190614d2a565b5060608601516001600160a01b031660a08601526080860151858203603f190160c0870152925061205a81846146f4565b600060208284031215614da457600080fd5b5051919050565b634e487b7160e01b600052601160045260246000fd5b8082028115828204841417610b0357610b03614dab565b600082614df557634e487b7160e01b600052601260045260246000fd5b500490565b634e487b7160e01b600052603260045260246000fd5b600081518084526020840193506020830160005b82811015614e4b5781516001600160a01b0316865260209586019590910190600101614e24565b5093949350505050565b8281526040602082015260006119d66040830184614e10565b600082601f830112614e7f57600080fd5b8151614e8d614aea82614aa8565b8082825260208201915060208360051b860101925085831115614eaf57600080fd5b602085015b83811015614b5d578051835260209283019201614eb4565b600060208284031215614ede57600080fd5b81516001600160401b03811115614ef457600080fd5b6119d684828501614e6e565b6020808252602b908201527f496e697469616c697a61626c653a20636f6e7472616374206973206e6f74206960408201526a6e697469616c697a696e6760a81b606082015260800190565b60ff8281168282160390811115610b0357610b03614dab565b6001815b6001841115614f9f57808504811115614f8357614f83614dab565b6001841615614f9157908102905b60019390931c928002614f68565b935093915050565b600082614fb657506001610b03565b81614fc357506000610b03565b8160018114614fd95760028114614fe357614fff565b6001915050610b03565b60ff841115614ff457614ff4614dab565b50506001821b610b03565b5060208310610133831016604e8410600b8410161715615022575081810a610b03565b61502f6000198484614f64565b806000190482111561504357615043614dab565b029392505050565b60006111c060ff841683614fa7565b80820260008212600160ff1b8414161561507657615076614dab565b8181058314821517610b0357610b03614dab565b60006020828403121561509c57600080fd5b81516111c0816144c7565b600082601f8301126150b857600080fd5b81516150c6614aea82614aa8565b8082825260208201915060208360051b8601019250858311156150e857600080fd5b602085015b83811015614b5d578051615100816144c7565b8352602092830192016150ed565b600080600080600080600080610100898b03121561512b57600080fd5b885160208a01519098506001600160401b0381111561514957600080fd5b6151558b828c016150a7565b97505060408901516001600160401b0381111561517157600080fd5b61517d8b828c016150a7565b96505060608901516001600160401b0381111561519957600080fd5b6151a58b828c01614e6e565b95505060808901516001600160401b038111156151c157600080fd5b6151cd8b828c01614e6e565b60a08b015160c08c0151919650945090506001600160401b038111156151f257600080fd5b6151fe8b828c01614e6e565b92505060e08901516001600160401b0381111561521a57600080fd5b6152268b828c01614e6e565b9150509295985092959890939650565b80820180821115610b0357610b03614dab565b81516001600160a01b03908116825260208084015182169083015260408084015162ffffff169083015260608084015191821690830152610100820190506080830151608083015260a083015160a083015260c083015160c083015260e08301516152bf60e08401826001600160a01b03169052565b5092915050565b85815284602082015260a06040820152600061476d60a0830186614e10565b600081518084526020840193506020830160005b82811015614e4b5781518652602095860195909101906001016152f9565b60ff8716815260c06020820152600061533360c0830188614e10565b82810360408401526153458188614e10565b9050856060840152828103608084015261535f81866152e5565b905082810360a084015261537381856152e5565b9998505050505050505050565b6001600160a01b039384168152919092166020820152604081019190915260600190565b81810381811115610b0357610b03614dab56fea2646970667358221220f73b40e06e77f96f7ce9f0e98d5638d395b6425beda721f861f2021995ed86f664736f6c634300081a0033","linkReferences":{}},"methodIdentifiers":{"ccipReceive((bytes32,uint64,bytes,bytes,(address,uint256)[]))":"85572ffb","convertEthToUsd(uint256)":"c086381e","crossChainToken(uint64)":"19da7e2a","crossChainTokenSwapFee(uint64,address)":"652354ae","currentChainSelector()":"3d54cb6f","estimateAmountOut(address,address,uint128,uint24)":"ee7bd3e2","factoryV3()":"1d5f45f5","fee()":"ddca3f43","feeRate()":"978bbdb9","feeRatePerDayScaled()":"2fecd589","feeReceiver()":"b3f00674","feeTimestamp()":"184a732f","getAmountOut(address,address,uint256,uint24)":"dd811ac9","getRouter()":"b0f479a1","i_link()":"7d253aff","i_maxTokensLength()":"5b6a0351","initialize(uint64,address,address,address,address,address,address,address,address)":"17c27b76","isRestricted(address)":"c01bc982","issuanceCompletedTokensCount(uint256)":"94037369","issuanceMessageIdByNonce(uint256)":"9121c717","issuanceTokenOldAndNewValues(uint256,address)":"81b15279","latestFeeUpdate()":"011ced5f","messageDetail(bytes32)":"9c3ddb2e","methodologist()":"9f8e67bf","methodology()":"9eeb1d50","minter()":"07546172","oraclePayment()":"0c02e130","owner()":"8da5cb5b","pause()":"8456cb59","paused()":"5c975abb","priceInWei()":"3c8da588","priceOracle()":"2630c12f","proposeOwner(address)":"b5ed298a","proposedOwner()":"d153b60c","quoter()":"c6bbd5a7","receivedMessages(uint256)":"d030366c","redemptionMessageIdByNonce(uint256)":"306b3a28","renounceOwnership()":"715018a6","sendMessage(uint64,address,bytes,uint8)":"bcab90b3","setCcipRouter(address)":"27bf9b44","setCrossChainToken(uint64,address,uint24)":"f0cd5b72","setPriceOracle(address)":"530e784f","setVault(address)":"6817031b","sourceChainSelectorF()":"ff5474f0","supplyCeiling()":"2b52684d","supportsInterface(bytes4)":"01ffc9a7","swap(address,address,uint256,address,uint24)":"7e79f512","swapRouterV2()":"744fbc7a","swapRouterV3()":"b631e80b","toUsdPriceFeed()":"63973fda","transferOwnership(address)":"f2fde38b","unpause()":"3f4ba83a","vault()":"fbfa77cf","weth()":"3fc8cef3"},"id":45}