{"abi":[{"type":"receive","stateMutability":"payable"},{"type":"function","name":"ccipReceive","inputs":[{"name":"message","type":"tuple","internalType":"struct Client.Any2EVMMessage","components":[{"name":"messageId","type":"bytes32","internalType":"bytes32"},{"name":"sourceChainSelector","type":"uint64","internalType":"uint64"},{"name":"sender","type":"bytes","internalType":"bytes"},{"name":"data","type":"bytes","internalType":"bytes"},{"name":"destTokenAmounts","type":"tuple[]","internalType":"struct Client.EVMTokenAmount[]","components":[{"name":"token","type":"address","internalType":"address"},{"name":"amount","type":"uint256","internalType":"uint256"}]}]}],"outputs":[],"stateMutability":"nonpayable"},{"type":"function","name":"convertEthToUsd","inputs":[{"name":"_ethAmount","type":"uint256","internalType":"uint256"}],"outputs":[{"name":"","type":"uint256","internalType":"uint256"}],"stateMutability":"view"},{"type":"function","name":"crossChainToken","inputs":[{"name":"","type":"uint64","internalType":"uint64"}],"outputs":[{"name":"","type":"address","internalType":"address"}],"stateMutability":"view"},{"type":"function","name":"currentChainSelector","inputs":[],"outputs":[{"name":"","type":"uint64","internalType":"uint64"}],"stateMutability":"view"},{"type":"function","name":"estimateAmountOut","inputs":[{"name":"tokenIn","type":"address","internalType":"address"},{"name":"tokenOut","type":"address","internalType":"address"},{"name":"amountIn","type":"uint128","internalType":"uint128"},{"name":"fee","type":"uint24","internalType":"uint24"}],"outputs":[{"name":"amountOut","type":"uint256","internalType":"uint256"}],"stateMutability":"view"},{"type":"function","name":"estimateAmountOutWithPath","inputs":[{"name":"path","type":"address[]","internalType":"address[]"},{"name":"fees","type":"uint24[]","internalType":"uint24[]"},{"name":"amountIn","type":"uint256","internalType":"uint256"}],"outputs":[{"name":"amountOut","type":"uint256","internalType":"uint256"}],"stateMutability":"view"},{"type":"function","name":"factoryV3","inputs":[],"outputs":[{"name":"","type":"address","internalType":"contract IUniswapV3Factory"}],"stateMutability":"view"},{"type":"function","name":"fromETHFees","inputs":[{"name":"","type":"address","internalType":"address"},{"name":"","type":"uint256","internalType":"uint256"}],"outputs":[{"name":"","type":"uint24","internalType":"uint24"}],"stateMutability":"view"},{"type":"function","name":"fromETHPath","inputs":[{"name":"","type":"address","internalType":"address"},{"name":"","type":"uint256","internalType":"uint256"}],"outputs":[{"name":"","type":"address","internalType":"address"}],"stateMutability":"view"},{"type":"function","name":"getAmountOut","inputs":[{"name":"path","type":"address[]","internalType":"address[]"},{"name":"fees","type":"uint24[]","internalType":"uint24[]"},{"name":"amountIn","type":"uint256","internalType":"uint256"}],"outputs":[{"name":"finalAmountOut","type":"uint256","internalType":"uint256"}],"stateMutability":"view"},{"type":"function","name":"getRouter","inputs":[],"outputs":[{"name":"","type":"address","internalType":"address"}],"stateMutability":"view"},{"type":"function","name":"i_link","inputs":[],"outputs":[{"name":"","type":"address","internalType":"address"}],"stateMutability":"view"},{"type":"function","name":"i_maxTokensLength","inputs":[],"outputs":[{"name":"","type":"uint16","internalType":"uint16"}],"stateMutability":"view"},{"type":"function","name":"initialize","inputs":[{"name":"_currentChainSelector","type":"uint64","internalType":"uint64"},{"name":"_vault","type":"address","internalType":"address payable"},{"name":"_chainlinkToken","type":"address","internalType":"address"},{"name":"_router","type":"address","internalType":"address"},{"name":"_weth","type":"address","internalType":"address"},{"name":"_swapRouterV3","type":"address","internalType":"address"},{"name":"_factoryV3","type":"address","internalType":"address"},{"name":"_swapRouterV2","type":"address","internalType":"address"},{"name":"_toUsdPriceFeed","type":"address","internalType":"address"}],"outputs":[],"stateMutability":"nonpayable"},{"type":"function","name":"issuanceMessageIdByNonce","inputs":[{"name":"","type":"uint256","internalType":"uint256"}],"outputs":[{"name":"","type":"bytes32","internalType":"bytes32"}],"stateMutability":"view"},{"type":"function","name":"messageDetail","inputs":[{"name":"","type":"bytes32","internalType":"bytes32"}],"outputs":[{"name":"sourceChainSelector","type":"uint64","internalType":"uint64"},{"name":"sender","type":"address","internalType":"address"},{"name":"message","type":"string","internalType":"string"},{"name":"token","type":"address","internalType":"address"},{"name":"amount","type":"uint256","internalType":"uint256"}],"stateMutability":"view"},{"type":"function","name":"owner","inputs":[],"outputs":[{"name":"","type":"address","internalType":"address"}],"stateMutability":"view"},{"type":"function","name":"pause","inputs":[],"outputs":[],"stateMutability":"nonpayable"},{"type":"function","name":"paused","inputs":[],"outputs":[{"name":"","type":"bool","internalType":"bool"}],"stateMutability":"view"},{"type":"function","name":"priceInWei","inputs":[],"outputs":[{"name":"","type":"uint256","internalType":"uint256"}],"stateMutability":"view"},{"type":"function","name":"priceOracle","inputs":[],"outputs":[{"name":"","type":"address","internalType":"address"}],"stateMutability":"view"},{"type":"function","name":"proposeOwner","inputs":[{"name":"_proposedOwner","type":"address","internalType":"address"}],"outputs":[],"stateMutability":"nonpayable"},{"type":"function","name":"proposedOwner","inputs":[],"outputs":[{"name":"","type":"address","internalType":"address"}],"stateMutability":"view"},{"type":"function","name":"quoter","inputs":[],"outputs":[{"name":"","type":"address","internalType":"contract IQuoter"}],"stateMutability":"view"},{"type":"function","name":"redemptionMessageIdByNonce","inputs":[{"name":"","type":"uint256","internalType":"uint256"}],"outputs":[{"name":"","type":"bytes32","internalType":"bytes32"}],"stateMutability":"view"},{"type":"function","name":"renounceOwnership","inputs":[],"outputs":[],"stateMutability":"nonpayable"},{"type":"function","name":"sendMessage","inputs":[{"name":"destinationChainSelector","type":"uint64","internalType":"uint64"},{"name":"receiver","type":"address","internalType":"address"},{"name":"_data","type":"bytes","internalType":"bytes"},{"name":"payFeesIn","type":"uint8","internalType":"enum CrossChainIndexFactory.PayFeesIn"}],"outputs":[{"name":"","type":"bytes32","internalType":"bytes32"}],"stateMutability":"nonpayable"},{"type":"function","name":"setCcipRouter","inputs":[{"name":"_router","type":"address","internalType":"address"}],"outputs":[],"stateMutability":"nonpayable"},{"type":"function","name":"setCrossChainToken","inputs":[{"name":"_chainSelector","type":"uint64","internalType":"uint64"},{"name":"_crossChainToken","type":"address","internalType":"address"},{"name":"_fromETHPath","type":"address[]","internalType":"address[]"},{"name":"_fromETHFees","type":"uint24[]","internalType":"uint24[]"}],"outputs":[],"stateMutability":"nonpayable"},{"type":"function","name":"setPriceOracle","inputs":[{"name":"_priceOracle","type":"address","internalType":"address"}],"outputs":[],"stateMutability":"nonpayable"},{"type":"function","name":"setVault","inputs":[{"name":"_vault","type":"address","internalType":"address payable"}],"outputs":[],"stateMutability":"nonpayable"},{"type":"function","name":"supportsInterface","inputs":[{"name":"interfaceId","type":"bytes4","internalType":"bytes4"}],"outputs":[{"name":"","type":"bool","internalType":"bool"}],"stateMutability":"pure"},{"type":"function","name":"swap","inputs":[{"name":"path","type":"address[]","internalType":"address[]"},{"name":"fees","type":"uint24[]","internalType":"uint24[]"},{"name":"amountIn","type":"uint256","internalType":"uint256"},{"name":"_recipient","type":"address","internalType":"address"}],"outputs":[{"name":"outputAmount","type":"uint256","internalType":"uint256"}],"stateMutability":"nonpayable"},{"type":"function","name":"swapRouterV2","inputs":[],"outputs":[{"name":"","type":"address","internalType":"contract IUniswapV2Router02"}],"stateMutability":"view"},{"type":"function","name":"swapRouterV3","inputs":[],"outputs":[{"name":"","type":"address","internalType":"contract ISwapRouter"}],"stateMutability":"view"},{"type":"function","name":"toETHFees","inputs":[{"name":"","type":"address","internalType":"address"},{"name":"","type":"uint256","internalType":"uint256"}],"outputs":[{"name":"","type":"uint24","internalType":"uint24"}],"stateMutability":"view"},{"type":"function","name":"toETHPath","inputs":[{"name":"","type":"address","internalType":"address"},{"name":"","type":"uint256","internalType":"uint256"}],"outputs":[{"name":"","type":"address","internalType":"address"}],"stateMutability":"view"},{"type":"function","name":"toUsdPriceFeed","inputs":[],"outputs":[{"name":"","type":"address","internalType":"contract AggregatorV3Interface"}],"stateMutability":"view"},{"type":"function","name":"transferOwnership","inputs":[{"name":"newOwner","type":"address","internalType":"address"}],"outputs":[],"stateMutability":"nonpayable"},{"type":"function","name":"unpause","inputs":[],"outputs":[],"stateMutability":"nonpayable"},{"type":"function","name":"vault","inputs":[],"outputs":[{"name":"","type":"address","internalType":"contract Vault"}],"stateMutability":"view"},{"type":"function","name":"weth","inputs":[],"outputs":[{"name":"","type":"address","internalType":"contract IWETH"}],"stateMutability":"view"},{"type":"event","name":"Initialized","inputs":[{"name":"version","type":"uint8","indexed":false,"internalType":"uint8"}],"anonymous":false},{"type":"event","name":"Issuanced","inputs":[{"name":"messageId","type":"bytes32","indexed":true,"internalType":"bytes32"},{"name":"nonce","type":"uint256","indexed":true,"internalType":"uint256"},{"name":"time","type":"uint256","indexed":false,"internalType":"uint256"}],"anonymous":false},{"type":"event","name":"MessageSent","inputs":[{"name":"messageId","type":"bytes32","indexed":false,"internalType":"bytes32"}],"anonymous":false},{"type":"event","name":"OwnershipTransferred","inputs":[{"name":"previousOwner","type":"address","indexed":true,"internalType":"address"},{"name":"newOwner","type":"address","indexed":true,"internalType":"address"}],"anonymous":false},{"type":"event","name":"Paused","inputs":[{"name":"account","type":"address","indexed":false,"internalType":"address"}],"anonymous":false},{"type":"event","name":"Redemption","inputs":[{"name":"messageId","type":"bytes32","indexed":true,"internalType":"bytes32"},{"name":"nonce","type":"uint256","indexed":true,"internalType":"uint256"},{"name":"time","type":"uint256","indexed":false,"internalType":"uint256"}],"anonymous":false},{"type":"event","name":"Unpaused","inputs":[{"name":"account","type":"address","indexed":false,"internalType":"address"}],"anonymous":false},{"type":"error","name":"InvalidRouter","inputs":[{"name":"router","type":"address","internalType":"address"}]}],"bytecode":{"object":"0x6080604052348015600e575f80fd5b506160f18061001c5f395ff3fe60806040526004361061024c575f3560e01c8063744fbc7a11610134578063b0f479a1116100b3578063c6bbd5a711610078578063c6bbd5a714610738578063d153b60c14610757578063dfbd389714610776578063ee7bd3e214610795578063f2fde38b146107b4578063fbfa77cf146107d3575f80fd5b8063b0f479a11461069a578063b5ed298a146106bc578063b631e80b146106db578063bcab90b3146106fa578063c086381e14610719575f80fd5b80638da5cb5b116100f95780638da5cb5b146105e45780638e08b945146106015780639121c7171461062057806391b31b5b1461064b5780639c3ddb2e1461066a575f80fd5b8063744fbc7a146105405780637d253aff1461055f5780637edbc2ff1461057e5780638456cb59146105b157806385572ffb146105c5575f80fd5b80633d54cb6f116101cb5780635c1a094c116101905780635c1a094c146104995780635c975abb146104b857806363973fda146104cf5780636817031b146104ee578063709a04f21461050d578063715018a61461052c575f80fd5b80633d54cb6f146103d55780633f4ba83a146104135780633fc8cef314610427578063530e784f146104465780635b6a035114610465575f80fd5b80631d5f45f5116102115780631d5f45f5146103395780632630c12f1461035857806327bf9b4414610377578063306b3a28146103965780633c8da588146103c1575f80fd5b806301ffc9a7146102575780630ecdc1c61461028b57806316d9f6bd146102ac57806317c27b76146102d957806319da7e2a146102f8575f80fd5b3661025357005b5f80fd5b348015610262575f80fd5b50610276610271366004614d08565b6107f2565b60405190151581526020015b60405180910390f35b348015610296575f80fd5b506102aa6102a5366004614ef5565b610828565b005b3480156102b7575f80fd5b506102cb6102c6366004614f7a565b6109f7565b604051908152602001610282565b3480156102e4575f80fd5b506102aa6102f3366004614fe6565b610af9565b348015610303575f80fd5b5061032c61031236600461509a565b60d46020525f90815260409020546001600160a01b031681565b60405161028291906150b3565b348015610344575f80fd5b5060d05461032c906001600160a01b031681565b348015610363575f80fd5b5060cd5461032c906001600160a01b031681565b348015610382575f80fd5b506102aa6103913660046150c7565b61103b565b3480156103a1575f80fd5b506102cb6103b03660046150e2565b60d96020525f908152604090205481565b3480156103cc575f80fd5b506102cb61106c565b3480156103e0575f80fd5b5060cc546103fb90600160a01b90046001600160401b031681565b6040516001600160401b039091168152602001610282565b34801561041e575f80fd5b506102aa611172565b348015610432575f80fd5b5060d25461032c906001600160a01b031681565b348015610451575f80fd5b506102aa6104603660046150c7565b611184565b348015610470575f80fd5b5060ca5461048690600160a01b900461ffff1681565b60405161ffff9091168152602001610282565b3480156104a4575f80fd5b506102cb6104b33660046150f9565b611218565b3480156104c3575f80fd5b5060985460ff16610276565b3480156104da575f80fd5b5060ce5461032c906001600160a01b031681565b3480156104f9575f80fd5b506102aa6105083660046150c7565b6112b3565b348015610518575f80fd5b5061032c610527366004615177565b6112dd565b348015610537575f80fd5b506102aa611311565b34801561054b575f80fd5b5060d15461032c906001600160a01b031681565b34801561056a575f80fd5b5060ca5461032c906001600160a01b031681565b348015610589575f80fd5b5061059d610598366004615177565b611322565b60405162ffffff9091168152602001610282565b3480156105bc575f80fd5b506102aa611365565b3480156105d0575f80fd5b506102aa6105df3660046151a1565b611375565b3480156105ef575f80fd5b506033546001600160a01b031661032c565b34801561060c575f80fd5b5061059d61061b366004615177565b6113bb565b34801561062b575f80fd5b506102cb61063a3660046150e2565b60da6020525f908152604090205481565b348015610656575f80fd5b5061032c610665366004615177565b6113d4565b348015610675575f80fd5b506106896106843660046150e2565b6113ed565b604051610282959493929190615205565b3480156106a5575f80fd5b505f546201000090046001600160a01b031661032c565b3480156106c7575f80fd5b506102aa6106d63660046150c7565b6114c1565b3480156106e6575f80fd5b5060cf5461032c906001600160a01b031681565b348015610705575f80fd5b506102cb6107143660046152c7565b611511565b348015610724575f80fd5b506102cb6107333660046150e2565b6118ab565b348015610743575f80fd5b5060d35461032c906001600160a01b031681565b348015610762575f80fd5b5060655461032c906001600160a01b031681565b348015610781575f80fd5b506102cb610790366004614f7a565b6118d1565b3480156107a0575f80fd5b506102cb6107af36600461532d565b611997565b3480156107bf575f80fd5b506102aa6107ce3660046150c7565b611a15565b3480156107de575f80fd5b5060cc5461032c906001600160a01b031681565b5f6001600160e01b031982166385572ffb60e01b148061082257506001600160e01b031982166301ffc9a760e01b145b92915050565b610830611b3a565b6001600160401b0384165f90815260d46020908152604080832080546001600160a01b0319166001600160a01b038816908117909155835260d58252909120835161087d92850190614bf1565b506001600160a01b0383165f90815260d76020908152604090912082516108a692840190614c54565b506040516336dfb51f60e01b815273__$4c5f58e1f74d2276ee49bfc89b0138653d$__906336dfb51f906108de908590600401615386565b5f60405180830381865af41580156108f8573d5f803e3d5ffd5b505050506040513d5f823e601f3d908101601f1916820160405261091f9190810190615435565b6001600160a01b0384165f90815260d660209081526040909120825161094b9391929190910190614bf1565b5060405163013d59ed60e21b815273__$4c5f58e1f74d2276ee49bfc89b0138653d$__906304f567b49061098390849060040161546e565b5f60405180830381865af415801561099d573d5f803e3d5ffd5b505050506040513d5f823e601f3d908101601f191682016040526109c4919081019061550e565b6001600160a01b0384165f90815260d86020908152604090912082516109f09391929190910190614c54565b5050505050565b5f81815b60018651610a099190615553565b811015610af05760cd5460d05487516001600160a01b039283169263bb5705b3921690899085908110610a3e57610a3e615566565b602002602001015189856001610a54919061557a565b81518110610a6457610a64615566565b6020026020010151868a8781518110610a7f57610a7f615566565b60200260200101516040518663ffffffff1660e01b8152600401610aa795949392919061558d565b602060405180830381865afa158015610ac2573d5f803e3d5ffd5b505050506040513d601f19601f82011682018060405250810190610ae691906155cd565b91506001016109fb565b50949350505050565b5f54610100900460ff1615808015610b1757505f54600160ff909116105b80610b305750303b158015610b3057505f5460ff166001145b610b985760405162461bcd60e51b815260206004820152602e60248201527f496e697469616c697a61626c653a20636f6e747261637420697320616c72656160448201526d191e481a5b9a5d1a585b1a5e995960921b60648201526084015b60405180910390fd5b5f805460ff191660011790558015610bb9575f805461ff0019166101001790555b5f8a6001600160401b031611610c0a5760405162461bcd60e51b815260206004820152601660248201527524b73b30b634b21031b430b4b71039b2b632b1ba37b960511b6044820152606401610b8f565b6001600160a01b038916610c585760405162461bcd60e51b8152602060048201526015602482015274496e76616c6964207661756c74206164647265737360581b6044820152606401610b8f565b6001600160a01b038816610cae5760405162461bcd60e51b815260206004820152601f60248201527f496e76616c696420436861696e6c696e6b20746f6b656e2061646472657373006044820152606401610b8f565b6001600160a01b038716610cfd5760405162461bcd60e51b8152602060048201526016602482015275496e76616c696420726f75746572206164647265737360501b6044820152606401610b8f565b6001600160a01b038616610d4a5760405162461bcd60e51b8152602060048201526014602482015273496e76616c69642057455448206164647265737360601b6044820152606401610b8f565b6001600160a01b038516610da05760405162461bcd60e51b815260206004820152601e60248201527f496e76616c6964207377617020726f75746572207633206164647265737300006044820152606401610b8f565b6001600160a01b038416610df65760405162461bcd60e51b815260206004820152601a60248201527f496e76616c696420666163746f727920763320616464726573730000000000006044820152606401610b8f565b6001600160a01b038316610e4c5760405162461bcd60e51b815260206004820152601e60248201527f496e76616c6964207377617020726f75746572207632206164647265737300006044820152606401610b8f565b6001600160a01b038216610ea25760405162461bcd60e51b815260206004820152601a60248201527f496e76616c6964207072696365206665656420616464726573730000000000006044820152606401610b8f565b610eaa611b94565b610eb2611bc2565b60cc80546001600160e01b031916600160a01b6001600160401b038d16026001600160a01b031916176001600160a01b038b8116919091179091555f805462010000600160b01b031916620100008a84168102919091179182905560ca80548c85166001600160b01b03199091168117600560a01b1790915560405163095ea7b360e01b8152909363095ea7b393610f5393900416905f19906004016155e4565b6020604051808303815f875af1158015610f6f573d5f803e3d5ffd5b505050506040513d601f19601f82011682018060405250810190610f9391906155fd565b5060d280546001600160a01b03199081166001600160a01b038981169190911790925560cf8054821688841617905560d08054821687841617905560d18054821686841617905560ce8054909116918416919091179055801561102f575f805461ff0019169055604051600181527f7f26b83ff96e1f2b6a682f133852f6798a09c465da95921460cefb38474024989060200160405180910390a15b50505050505050505050565b611043611b3a565b5f80546001600160a01b03909216620100000262010000600160b01b0319909216919091179055565b5f8060ce5f9054906101000a90046001600160a01b03166001600160a01b031663feaf968c6040518163ffffffff1660e01b815260040160a060405180830381865afa1580156110be573d5f803e3d5ffd5b505050506040513d601f19601f820116820180604052508101906110e29190615635565b5050509150505f60ce5f9054906101000a90046001600160a01b03166001600160a01b031663313ce5676040518163ffffffff1660e01b8152600401602060405180830381865afa158015611139573d5f803e3d5ffd5b505050506040513d601f19601f8201168201806040525081019061115d9190615683565b905061116b82826012611bf0565b9392505050565b61117a611b3a565b611182611c28565b565b61118c611b3a565b6001600160a01b0381166111f65760405162461bcd60e51b815260206004820152602b60248201527f5072696365206f7261636c6520616464726573732063616e6e6f74206265207a60448201526a65726f206164647265737360a81b6064820152608401610b8f565b60cd80546001600160a01b0319166001600160a01b0392909216919091179055565b5f8083116112385760405162461bcd60e51b8152600401610b8f906156a3565b6001600160a01b03821661128a5760405162461bcd60e51b8152602060048201526019602482015278496e76616c696420726563697069656e74206164647265737360381b6044820152606401610b8f565b60cf5460d1546112aa916001600160a01b03908116911687878787611c74565b95945050505050565b6112bb611b3a565b60cc80546001600160a01b0319166001600160a01b0392909216919091179055565b60d5602052815f5260405f2081815481106112f6575f80fd5b5f918252602090912001546001600160a01b03169150829050565b611319611b3a565b6111825f611cc8565b60d8602052815f5260405f20818154811061133b575f80fd5b905f5260205f2090600a9182820401919006600302915091509054906101000a900462ffffff1681565b61136d611b3a565b611182611d19565b5f546201000090046001600160a01b031633146113a757336040516335fdcccd60e21b8152600401610b8f91906150b3565b6113b86113b382615761565b611d56565b50565b60d7602052815f5260405f20818154811061133b575f80fd5b60d6602052815f5260405f2081815481106112f6575f80fd5b60cb6020525f9081526040902080546001820180546001600160401b03831693600160401b9093046001600160a01b031692919061142a90615812565b80601f016020809104026020016040519081016040528092919081815260200182805461145690615812565b80156114a15780601f10611478576101008083540402835291602001916114a1565b820191905f5260205f20905b81548152906001019060200180831161148457829003601f168201915b50505050600283015460039093015491926001600160a01b031691905085565b6114c9611b3a565b6001600160a01b0381166114ef5760405162461bcd60e51b8152600401610b8f9061584a565b606580546001600160a01b0319166001600160a01b0392909216919091179055565b5f80856001600160401b0316116115755760405162461bcd60e51b815260206004820152602260248201527f496e76616c69642064657374696e6174696f6e20636861696e2073656c65637460448201526137b960f11b6064820152608401610b8f565b6001600160a01b0384166115c65760405162461bcd60e51b8152602060048201526018602482015277496e76616c6964207265636569766572206164647265737360401b6044820152606401610b8f565b5f83511161160d5760405162461bcd60e51b8152602060048201526014602482015273446174612063616e6e6f7420626520656d70747960601b6044820152606401610b8f565b5f6040518060a001604052808660405160200161162a91906150b3565b60408051808303601f19018152918152908252602080830188905281515f8082529181018352929091019190611681565b604080518082019091525f808252602082015281526020019060019003908161165b5790505b508152602001600185600181111561169b5761169b61589a565b146116a6575f6116b3565b60ca546001600160a01b03165b6001600160a01b031681526020016116db6040518060200160405280620dbba0815250611f24565b90525f80546040516320487ded60e01b81529293509091620100009091046001600160a01b0316906320487ded90611719908a9086906004016158ae565b602060405180830381865afa158015611734573d5f803e3d5ffd5b505050506040513d601f19601f8201168201806040525081019061175891906155cd565b90505f600185600181111561176f5761176f61589a565b036117f1575f546040516396f4e9f960e01b8152620100009091046001600160a01b0316906396f4e9f9906117aa908b9087906004016158ae565b6020604051808303815f875af11580156117c6573d5f803e3d5ffd5b505050506040513d601f19601f820116820180604052508101906117ea91906155cd565b905061186d565b5f546040516396f4e9f960e01b8152620100009091046001600160a01b0316906396f4e9f9908490611829908c9088906004016158ae565b60206040518083038185885af1158015611845573d5f803e3d5ffd5b50505050506040513d601f19601f8201168201806040525081019061186a91906155cd565b90505b6040518181527f54791b38f3859327992a1ca0590ad3c0f08feba98d1a4f56ab0dca74d203392a9060200160405180910390a1979650505050505050565b5f670de0b6b3a76400006118bd61106c565b6118c79084615981565b6108229190615998565b5f811561116b578251156118f1576118ea8484846109f7565b905061116b565b60d15460405163d06ca61f60e01b81525f916001600160a01b03169063d06ca61f9061192390869089906004016159fa565b5f60405180830381865afa15801561193d573d5f803e3d5ffd5b505050506040513d5f823e601f3d908101601f191682016040526119649190810190615a6d565b905080600182516119759190615553565b8151811061198557611985615566565b60200260200101519150509392505050565b60cd5460d05460405163bb5705b360e01b81525f926001600160a01b039081169263bb5705b3926119d69290911690899089908990899060040161558d565b602060405180830381865afa1580156119f1573d5f803e3d5ffd5b505050506040513d601f19601f820116820180604052508101906112aa91906155cd565b6001600160a01b038116611a3b5760405162461bcd60e51b8152600401610b8f9061584a565b6065546001600160a01b03828116911614611ab35760405162461bcd60e51b815260206004820152603260248201527f50726f706f7361626c654f776e61626c653a206e6577206f776e6572206973206044820152713737ba10383937b837b9b2b21037bbb732b960711b6064820152608401610b8f565b6001600160a01b0381163314611b315760405162461bcd60e51b815260206004820152603a60248201527f50726f706f7361626c654f776e61626c653a20746869732063616c6c206d757360448201527f74206265206d61646520627920746865206e6577206f776e65720000000000006064820152608401610b8f565b6113b881611cc8565b6033546001600160a01b031633146111825760405162461bcd60e51b815260206004820181905260248201527f4f776e61626c653a2063616c6c6572206973206e6f7420746865206f776e65726044820152606401610b8f565b5f54610100900460ff16611bba5760405162461bcd60e51b8152600401610b8f90615a9e565b611182611f61565b5f54610100900460ff16611be85760405162461bcd60e51b8152600401610b8f90615a9e565b611182611f90565b5f8260ff168260ff161115611c1e57611c098383615ae9565b611c1490600a615be5565b6118ea9085615bf3565b611c098284615ae9565b611c30611fc2565b6098805460ff191690557f5db9ee0a495bf2e6ff9c91a7834c1ba4fdd244a5e8aa4e537bd38aeae4b073aa335b604051611c6a91906150b3565b60405180910390a1565b5f808311611c945760405162461bcd60e51b8152600401610b8f906156a3565b835115611caf57611ca8878686868661200b565b9050611cbe565b611cbb86868585612152565b90505b9695505050505050565b603380546001600160a01b038381166001600160a01b0319831681179093556040519116919082907f8be0079c531659141344cd1fd0a4f28419497f9722a3daafe3b4186f6b6457e0905f90a35050565b611d216122e0565b6098805460ff191660011790557f62e78cea01bee320cd4e420270b5ea74000d11b0c9f74754ebdbfc544b05a258611c5d3390565b5f816020015190505f8260400151806020019051810190611d779190615c22565b90505f805f805f805f808a60600151806020019051810190611d999190615cfb565b97509750975097509750975097509750875f03611dcb5760808b0151611dc5818988878f8f8989612326565b50611f17565b87600103611de657611de18786858d8d86612aaa565b611f17565b87600203611dfb57611de18786858d8d61315f565b87600303611e5d57611de16040518061012001604052808981526020018881526020018781526020018681526020018481526020018c6001600160401b031681526020018b6001600160a01b0316815260200185815260200183815250613525565b87600403611f17575f8b608001519050611f156040518061016001604052808a8152602001898152602001888152602001878152602001858152602001835f81518110611eac57611eac615566565b60200260200101515f01516001600160a01b03168152602001835f81518110611ed757611ed7615566565b60200260200101516020015181526020018d6001600160401b031681526020018c6001600160a01b0316815260200186815260200184815250613884565b505b5050505050505050505050565b60408051915160248084019190915281518084039091018152604490920190526020810180516001600160e01b03166397a657c960e01b17905290565b5f54610100900460ff16611f875760405162461bcd60e51b8152600401610b8f90615a9e565b61118233611cc8565b5f54610100900460ff16611fb65760405162461bcd60e51b8152600401610b8f90615a9e565b6098805460ff19169055565b60985460ff166111825760405162461bcd60e51b815260206004820152601460248201527314185d5cd8589b194e881b9bdd081c185d5cd95960621b6044820152606401610b8f565b5f845f8151811061201e5761201e615566565b60200260200101516001600160a01b031663095ea7b387856040518363ffffffff1660e01b81526004016120539291906155e4565b6020604051808303815f875af115801561206f573d5f803e3d5ffd5b505050506040513d601f19601f8201168201806040525081019061209391906155fd565b505f6040518060a001604052806120aa8888613a8a565b81526001600160a01b03851660208201526040016120ca4261012c61557a565b8152602081018690525f6040918201525163c04b8d5960e01b81529091506001600160a01b0388169063c04b8d5990612107908490600401615e18565b6020604051808303815f875af1158015612123573d5f803e3d5ffd5b505050506040513d601f19601f8201168201806040525081019061214791906155cd565b979650505050505050565b5f80856001600160a01b031663d06ca61f85876040518363ffffffff1660e01b81526004016121829291906159fa565b5f60405180830381865afa15801561219c573d5f803e3d5ffd5b505050506040513d5f823e601f3d908101601f191682016040526121c39190810190615a6d565b9050845f815181106121d7576121d7615566565b60200260200101516001600160a01b031663095ea7b387866040518363ffffffff1660e01b815260040161220c9291906155e4565b6020604051808303815f875af1158015612228573d5f803e3d5ffd5b505050506040513d601f19601f8201168201806040525081019061224c91906155fd565b50604051635c11d79560e01b81526001600160a01b03871690635c11d795906122819087905f908a9089904290600401615e6f565b5f604051808303815f87803b158015612298575f80fd5b505af11580156122aa573d5f803e3d5ffd5b5050505080600182516122bd9190615553565b815181106122cd576122cd615566565b6020026020010151915050949350505050565b60985460ff16156111825760405162461bcd60e51b815260206004820152601060248201526f14185d5cd8589b194e881c185d5cd95960821b6044820152606401610b8f565b61235060405180608001604052805f81526020016060815260200160608152602001606081525090565b6124c260d65f8b5f8151811061236857612368615566565b60200260200101515f01516001600160a01b03166001600160a01b031681526020019081526020015f208054806020026020016040519081016040528092919081815260200182805480156123e457602002820191905f5260205f20905b81546001600160a01b031681526001909101906020018083116123c6575b505050505060d85f8c5f815181106123fe576123fe615566565b60200260200101515f01516001600160a01b03166001600160a01b031681526020019081526020015f2080548060200260200160405190810160405280929190818152602001828054801561249957602002820191905f5260205f20905f905b82829054906101000a900462ffffff1662ffffff168152602001906003019060208260020104928301926001038202915080841161245e5790505b50505050508b5f815181106124b0576124b0615566565b60200260200101516020015130611218565b815287516001600160401b038111156124dd576124dd614d5e565b604051908082528060200260200182016040528015612506578160200160208202803683370190505b50602082015287516001600160401b0381111561252557612525614d5e565b60405190808252806020026020018201604052801561254e578160200160208202803683370190505b5060408201525f5b88518110156129a1575f835f8151811061257257612572615566565b602002602001015185838151811061258c5761258c615566565b6020026020010151845f01516125a29190615981565b6125ac9190615998565b90505f8073__$4c5f58e1f74d2276ee49bfc89b0138653d$__63e523140e8c86815181106125dc576125dc615566565b60200260200101516040518263ffffffff1660e01b81526004016126009190615e8d565b5f60405180830381865af415801561261a573d5f803e3d5ffd5b505050506040513d5f823e601f3d908101601f191682016040526126419190810190615e9f565b60d2548e519294509092505f916001600160a01b03909116908e908790811061266c5761266c615566565b60200260200101516001600160a01b03160361278d578c858151811061269457612694615566565b602090810291909101015160cc546040516370a0823160e01b81526001600160a01b03928316926370a08231926126d0929116906004016150b3565b602060405180830381865afa1580156126eb573d5f803e3d5ffd5b505050506040513d601f19601f8201168201806040525081019061270f91906155cd565b60d25460cc5460405163a9059cbb60e01b81529293506001600160a01b039182169263a9059cbb9261274792169088906004016155e4565b6020604051808303815f875af1158015612763573d5f803e3d5ffd5b505050506040513d601f19601f8201168201806040525081019061278791906155fd565b5061292e565b6040516336dfb51f60e01b815261290e9073__$4c5f58e1f74d2276ee49bfc89b0138653d$__906336dfb51f906127c8908790600401615386565b5f60405180830381865af41580156127e2573d5f803e3d5ffd5b505050506040513d5f823e601f3d908101601f191682016040526128099190810190615435565b60405163013d59ed60e21b815273__$4c5f58e1f74d2276ee49bfc89b0138653d$__906304f567b49061284090879060040161546e565b5f60405180830381865af415801561285a573d5f803e3d5ffd5b505050506040513d5f823e601f3d908101601f19168201604052612881919081019061550e565b8f888151811061289357612893615566565b602090810291909101015160cc546040516370a0823160e01b81526001600160a01b03928316926370a08231926128cf929116906004016150b3565b602060405180830381865afa1580156128ea573d5f803e3d5ffd5b505050506040513d601f19601f8201168201806040525081019061079091906155cd565b60cc5490915061292c908490849087906001600160a01b0316611218565b505b5f612939858361557a565b9050612944826118ab565b8760200151878151811061295a5761295a615566565b60200260200101818152505061296f816118ab565b8760400151878151811061298557612985615566565b6020908102919091010152505060019093019250612556915050565b50604080515f80825260208201818152828401909352918a9190836129d6565b60608152602001906001900390816129c15790505b50604080515f8082526020820190925290612a01565b60608152602001906001900390816129ec5790505b508a86602001518760400151604051602001612a24989796959493929190615f8c565b60405160208183030381529060405281606001819052505f612a4d868684606001516001611511565b5f88815260da60205260409081902082905551909150879082907f7513d57665f5bbb438203d2f2a896f1f0791e1e8cd0e2d76d7bc421bfb4f49aa90612a969042815260200190565b60405180910390a350505050505050505050565b5f805b8751811015612e7c575f670de0b6b3a7640000898381518110612ad257612ad2615566565b602090810291909101015160cc546040516370a0823160e01b81526001600160a01b03928316926370a0823192612b0e929116906004016150b3565b602060405180830381865afa158015612b29573d5f803e3d5ffd5b505050506040513d601f19601f82011682018060405250810190612b4d91906155cd565b855f81518110612b5f57612b5f615566565b6020026020010151612b719190615981565b612b7b9190615998565b90505f8073__$4c5f58e1f74d2276ee49bfc89b0138653d$__63e523140e8b8681518110612bab57612bab615566565b60200260200101516040518263ffffffff1660e01b8152600401612bcf9190615e8d565b5f60405180830381865af4158015612be9573d5f803e3d5ffd5b505050506040513d5f823e601f3d908101601f19168201604052612c109190810190615e9f565b60d2548d519294509092506001600160a01b0316908c9086908110612c3757612c37615566565b60200260200101516001600160a01b031603612cd75760cc5460d254604051631c20fadd60e01b81526001600160a01b0392831692631c20fadd92612c859291169030908890600401616020565b6020604051808303815f875af1158015612ca1573d5f803e3d5ffd5b505050506040513d601f19601f82011682018060405250810190612cc591906155fd565b50612cd0838661557a565b9450612e71565b60cc548b516001600160a01b0390911690631c20fadd908d9087908110612d0057612d00615566565b602002602001015130866040518463ffffffff1660e01b8152600401612d2893929190616020565b6020604051808303815f875af1158015612d44573d5f803e3d5ffd5b505050506040513d601f19601f82011682018060405250810190612d6891906155fd565b506040516336dfb51f60e01b8152612e649073__$4c5f58e1f74d2276ee49bfc89b0138653d$__906336dfb51f90612da4908690600401615386565b5f60405180830381865af4158015612dbe573d5f803e3d5ffd5b505050506040513d5f823e601f3d908101601f19168201604052612de59190810190615435565b60405163013d59ed60e21b815273__$4c5f58e1f74d2276ee49bfc89b0138653d$__906304f567b490612e1c90869060040161546e565b5f60405180830381865af4158015612e36573d5f803e3d5ffd5b505050506040513d5f823e601f3d908101601f19168201604052612e5d919081019061550e565b8530611218565b612e6e908661557a565b94505b505050600101612aad565b506001600160401b0384165f90815260d460209081526040808320546001600160a01b0316835260d582528083208054825181850281018501909352808352612f9f93830182828015612ef657602002820191905f5260205f20905b81546001600160a01b03168152600190910190602001808311612ed8575b5050506001600160401b0389165f90815260d460209081526040808320546001600160a01b0316835260d782529182902080548351818402810184019094528084529294509250830182828015612f9357602002820191905f5260205f20905f905b82829054906101000a900462ffffff1662ffffff1681526020019060030190602082600201049283019260010382029150808411612f585790505b50505050508430611218565b6040805160018082528183019092529192505f9190816020015b604080518082019091525f8082526020820152815260200190600190039081612fb95750506001600160401b0387165f90815260d4602052604081205482519293506001600160a01b03169183919061301457613014615566565b60200260200101515f01906001600160a01b031690816001600160a01b03168152505081815f8151811061304a5761304a615566565b602090810291909101810151810191909152604080515f808252928101838152818301848152606083019093529092916001918d918461309a565b60608152602001906001900390816130855790505b50604080515f80825260208201909252906130c5565b60608152602001906001900390816130b05790505b508d87886040516020016130e0989796959493929190615f8c565b60405160208183030381529060405290505f61310089838a876001613b9d565b5f8b815260d9602052604090819020829055519091508a9082907f2c80cd3884ced9a087f5eed6c8ddd78af4b449cdea210b92786f35bd496f5343906131499042815260200190565b60405180910390a3505050505050505050505050565b604080515f8082526020820190925290505f86516001600160401b0381111561318a5761318a614d5e565b6040519080825280602002602001820160405280156131b3578160200160208202803683370190505b5090505f5b875181101561347f575f8073__$4c5f58e1f74d2276ee49bfc89b0138653d$__63e523140e8a85815181106131ef576131ef615566565b60200260200101516040518263ffffffff1660e01b81526004016132139190615e8d565b5f60405180830381865af415801561322d573d5f803e3d5ffd5b505050506040513d5f823e601f3d908101601f191682016040526132549190810190615e9f565b60d2548c519294509092506001600160a01b0316908b908590811061327b5761327b615566565b60200260200101516001600160a01b031603613344576133218a84815181106132a6576132a6615566565b602090810291909101015160cc546040516370a0823160e01b81526001600160a01b03928316926370a08231926132e2929116906004016150b3565b602060405180830381865afa1580156132fd573d5f803e3d5ffd5b505050506040513d601f19601f8201168201806040525081019061073391906155cd565b84848151811061333357613333615566565b602002602001018181525050613475565b5f61344a73__$4c5f58e1f74d2276ee49bfc89b0138653d$__6336dfb51f856040518263ffffffff1660e01b815260040161337f9190615386565b5f60405180830381865af4158015613399573d5f803e3d5ffd5b505050506040513d5f823e601f3d908101601f191682016040526133c09190810190615435565b60405163013d59ed60e21b815273__$4c5f58e1f74d2276ee49bfc89b0138653d$__906304f567b4906133f790879060040161546e565b5f60405180830381865af4158015613411573d5f803e3d5ffd5b505050506040513d5f823e601f3d908101601f19168201604052613438919081019061550e565b8d878151811061289357612893615566565b9050613455816118ab565b85858151811061346757613467615566565b602002602001018181525050505b50506001016131b8565b50604080515f80825260208201818152828401909352916002918a91846134b6565b60608152602001906001900390816134a15790505b50604080515f80825260208201909252906134e1565b60608152602001906001900390816134cc5790505b508a87896040516020016134fc989796959493929190615f8c565b604051602081830303815290604052905061351a8585836001611511565b505050505050505050565b6135526040518060a001604052805f81526020015f81526020015f81526020015f81526020015f81525090565b815151815261010082015180515f9061356d5761356d615566565b602002602001015181602001818152505081610100015160018151811061359657613596615566565b60200260200101518160400181815250508161010001516002815181106135bf576135bf615566565b60200260200101518160800181815250505f6135fc82845f015185602001518660400151876060015188608001518960c001518a60e00151613f90565b60a08401516001600160401b03165f90815260d460209081526040808320546001600160a01b0316835260d582528083208054825181850281018501909352808352949550929361370993919283018282801561368057602002820191905f5260205f20905b81546001600160a01b03168152600190910190602001808311613662575b50505060a08801516001600160401b03165f90815260d460209081526040808320546001600160a01b0316835260d782529182902080548351818402810184019094528084529294509250830182828015612f93575f918252602091829020805462ffffff168452908202830192909160039101808411612f5857905050505050508430611218565b6040805160018082528183019092529192505f9190816020015b604080518082019091525f808252602082015281526020019060019003908161372357505060a08601516001600160401b03165f90815260d4602052604081205482519293506001600160a01b03169183919061378257613782615566565b60200260200101515f01906001600160a01b031690816001600160a01b03168152505081815f815181106137b8576137b8615566565b602090810291909101810151810191909152604080515f8082528184018084528951948a01518282528385019094529193909260039284613809565b60608152602001906001900390816137f45790505b50604080515f8082526020820190925290613834565b606081526020019060019003908161381f5790505b508b60e001518788604051602001613853989796959493929190615f8c565b604051602081830303815290604052905061387a8760a00151828960c00151866001613b9d565b5050505050505050565b60a08101516001600160a01b03165f90815260d660209081526040808320805482518185028101850190935280835261398c938301828280156138ee57602002820191905f5260205f20905b81546001600160a01b031681526001909101906020018083116138d0575b50505060a08601516001600160a01b03165f90815260d860209081526040918290208054835181840281018401909452808452929450925083018282801561397c57602002820191905f5260205f20905f905b82829054906101000a900462ffffff1662ffffff16815260200190600301906020826002010492830192600103820291508084116139415790505b50505050508460c0015130611218565b90506139b5825f0151836020015184604001518560600151866080015186886101400151614118565b6040805160018082528183019092525f916020808301908036833750506040805160018082528183019092529293505f929150602080830190803683375050604080515f8082526020820190925292935091600491508390819084613a2a565b6060815260200190600190039081613a155790505b50604080515f8082526020820190925290613a55565b6060815260200190600190039081613a405790505b508961012001518889604051602001613a75989796959493929190615f8c565b60408051601f19818403019052525050505050565b606081516001613a9a919061557a565b835114613ae05760405162461bcd60e51b8152602060048201526014602482015273496e76616c696420696e7075742061727261797360601b6044820152606401610b8f565b5f5b8251811015613b4c5781848281518110613afe57613afe615566565b6020026020010151848381518110613b1857613b18615566565b6020026020010151604051602001613b329392919061605b565b60408051601f198184030181529190529150600101613ae2565b50808360018551613b5d9190615553565b81518110613b6d57613b6d615566565b6020026020010151604051602001613b86929190616094565b604051602081830303815290604052905092915050565b815160ca545f9190600160a01b900461ffff16811115613c1f5760405162461bcd60e51b815260206004820152603760248201527f4d6178696d756d203520646966666572656e7420746f6b656e732063616e2062604482015276652073656e74207065722043434950204d65737361676560481b6064820152608401610b8f565b5f5b81811015613d2a5760ca5485516001600160a01b0390911690869083908110613c4c57613c4c615566565b60200260200101515f01516001600160a01b031614613d2257848181518110613c7757613c77615566565b60200260200101515f01516001600160a01b031663095ea7b35f60029054906101000a90046001600160a01b0316878481518110613cb757613cb7615566565b6020026020010151602001516040518363ffffffff1660e01b8152600401613ce09291906155e4565b6020604051808303815f875af1158015613cfc573d5f803e3d5ffd5b505050506040513d601f19601f82011682018060405250810190613d2091906155fd565b505b600101613c21565b505f6040518060a0016040528087604051602001613d4891906150b3565b60408051601f19818403018152918152908252602082018a905281018790526060016001866001811115613d7e57613d7e61589a565b14613d89575f613d96565b60ca546001600160a01b03165b6001600160a01b03168152602001613dbe6040518060200160405280620dbba0815250611f24565b90525f80546040516320487ded60e01b81529293509091620100009091046001600160a01b0316906320487ded90613dfc908c9086906004016158ae565b602060405180830381865afa158015613e17573d5f803e3d5ffd5b505050506040513d601f19601f82011682018060405250810190613e3b91906155cd565b90505f6001866001811115613e5257613e5261589a565b03613ed4575f546040516396f4e9f960e01b8152620100009091046001600160a01b0316906396f4e9f990613e8d908d9087906004016158ae565b6020604051808303815f875af1158015613ea9573d5f803e3d5ffd5b505050506040513d601f19601f82011682018060405250810190613ecd91906155cd565b9050613f50565b5f546040516396f4e9f960e01b8152620100009091046001600160a01b0316906396f4e9f9908490613f0c908e9088906004016158ae565b60206040518083038185885af1158015613f28573d5f803e3d5ffd5b50505050506040513d601f19601f82011682018060405250810190613f4d91906155cd565b90505b6040518181527f54791b38f3859327992a1ca0590ad3c0f08feba98d1a4f56ab0dca74d203392a9060200160405180910390a19998505050505050505050565b5f613fdd6040518061014001604052805f81526020015f81526020015f81526020015f81526020015f81526020015f81526020015f81526020015f81526020015f81526020015f81525090565b60d25460cc546040516370a0823160e01b81526001600160a01b03928316926370a0823192614011929116906004016150b3565b602060405180830381865afa15801561402c573d5f803e3d5ffd5b505050506040513d601f19601f8201168201806040525081019061405091906155cd565b60a0820181905260cc5461407191908b908a906001600160a01b031661474d565b606082015260208a015160808b01516140939068056bc75e2d63100000615981565b61409d9190615998565b60e0820181905260408b015160608301516140b89190615981565b6140c29190615998565b610100820181905260608201516140d99190615553565b61012082015261010081015160408b015160cc5461410692918b918a918a916001600160a01b0316614a17565b61012001519998505050505050505050565b61414b6040518060c001604052805f81526020015f81526020015f81526020015f81526020015f81526020015f81525090565b8160018151811061415e5761415e615566565b602090810291909101810151825288519082015260d25460cc546040516370a0823160e01b81526001600160a01b03928316926370a08231926141a6929116906004016150b3565b602060405180830381865afa1580156141c1573d5f803e3d5ffd5b505050506040513d601f19601f820116820180604052508101906141e591906155cd565b60408201525f606082018190525b885181101561455c575f89828151811061420f5761420f615566565b602002602001015190505f8073__$4c5f58e1f74d2276ee49bfc89b0138653d$__63e523140e8b868151811061424757614247615566565b60200260200101516040518263ffffffff1660e01b815260040161426b9190615e8d565b5f60405180830381865af4158015614285573d5f803e3d5ffd5b505050506040513d5f823e601f3d908101601f191682016040526142ac9190810190615e9f565b60d25491935091505f906001600160a01b03908116908516036143515760cc5460d2546040808901519051631c20fadd60e01b81526001600160a01b0393841693631c20fadd9361430593911691309190600401616020565b6020604051808303815f875af1158015614321573d5f803e3d5ffd5b505050506040513d601f19601f8201168201806040525081019061434591906155fd565b50506040850151614537565b60cc546040516370a0823160e01b81525f916001600160a01b03808816926370a08231926143839216906004016150b3565b602060405180830381865afa15801561439e573d5f803e3d5ffd5b505050506040513d601f19601f820116820180604052508101906143c291906155cd565b60cc54604051631c20fadd60e01b81529192506001600160a01b031690631c20fadd906143f790889030908690600401616020565b6020604051808303815f875af1158015614413573d5f803e3d5ffd5b505050506040513d601f19601f8201168201806040525081019061443791906155fd565b506040516336dfb51f60e01b81526145339073__$4c5f58e1f74d2276ee49bfc89b0138653d$__906336dfb51f90614473908890600401615386565b5f60405180830381865af415801561448d573d5f803e3d5ffd5b505050506040513d5f823e601f3d908101601f191682016040526144b49190810190615435565b60405163013d59ed60e21b815273__$4c5f58e1f74d2276ee49bfc89b0138653d$__906304f567b4906144eb90889060040161546e565b5f60405180830381865af4158015614505573d5f803e3d5ffd5b505050506040513d5f823e601f3d908101601f1916820160405261452c919081019061550e565b8330611218565b9150505b8086606001818151614549919061557a565b90525050600190930192506141f3915050565b50606081015161456c908461557a565b6080820152865160a08201525f5b875181101561351a575f88828151811061459657614596615566565b602002602001015190505f8683815181106145b3576145b3615566565b602002602001015190505f8073__$4c5f58e1f74d2276ee49bfc89b0138653d$__63e523140e8b87815181106145eb576145eb615566565b60200260200101516040518263ffffffff1660e01b815260040161460f9190615e8d565b5f60405180830381865af4158015614629573d5f803e3d5ffd5b505050506040513d5f823e601f3d908101601f191682016040526146509190810190615e9f565b60d25491935091506001600160a01b03908116908516036147055760d25460cc54875160808901516001600160a01b039384169363a9059cbb93169190614698908890615981565b6146a29190615998565b6040518363ffffffff1660e01b81526004016146bf9291906155e4565b6020604051808303815f875af11580156146db573d5f803e3d5ffd5b505050506040513d601f19601f820116820180604052508101906146ff91906155fd565b5061473d565b5f61473a8383895f0151878b6080015161471f9190615981565b6147299190615998565b60cc546001600160a01b0316611218565b50505b50506001909201915061457a9050565b5f805b8451811015610af0575f8073__$4c5f58e1f74d2276ee49bfc89b0138653d$__63e523140e87858151811061478757614787615566565b60200260200101516040518263ffffffff1660e01b81526004016147ab9190615e8d565b5f60405180830381865af41580156147c5573d5f803e3d5ffd5b505050506040513d5f823e601f3d908101601f191682016040526147ec9190810190615e9f565b60d25489519294509092505f916001600160a01b039091169089908690811061481757614817615566565b60200260200101516001600160a01b0316036148ac5760d254604051631c20fadd60e01b81526001600160a01b0388811692631c20fadd92614863929091169030908e90600401616020565b6020604051808303815f875af115801561487f573d5f803e3d5ffd5b505050506040513d601f19601f820116820180604052508101906148a391906155fd565b508890506149fc565b5f8885815181106148bf576148bf615566565b60200260200101516001600160a01b03166370a08231886040518263ffffffff1660e01b81526004016148f291906150b3565b602060405180830381865afa15801561490d573d5f803e3d5ffd5b505050506040513d601f19601f8201168201806040525081019061493191906155cd565b9050866001600160a01b0316631c20fadd8a878151811061495457614954615566565b602002602001015130846040518463ffffffff1660e01b815260040161497c93929190616020565b6020604051808303815f875af1158015614998573d5f803e3d5ffd5b505050506040513d601f19601f820116820180604052508101906149bc91906155fd565b506040516336dfb51f60e01b81526149f89073__$4c5f58e1f74d2276ee49bfc89b0138653d$__906336dfb51f90614473908890600401615386565b9150505b614a06818661557a565b945050600190920191506147509050565b5f5b8551811015614be8575f8073__$4c5f58e1f74d2276ee49bfc89b0138653d$__63e523140e888581518110614a5057614a50615566565b60200260200101516040518263ffffffff1660e01b8152600401614a749190615e8d565b5f60405180830381865af4158015614a8e573d5f803e3d5ffd5b505050506040513d5f823e601f3d908101601f19168201604052614ab59190810190615e9f565b60d2548a519294509092506001600160a01b031690899085908110614adc57614adc615566565b60200260200101516001600160a01b031603614b9f5760d25486516001600160a01b039091169063a9059cbb90869088908a9088908110614b1f57614b1f615566565b60200260200101518d614b329190615981565b614b3c9190615998565b6040518363ffffffff1660e01b8152600401614b599291906155e4565b6020604051808303815f875af1158015614b75573d5f803e3d5ffd5b505050506040513d601f19601f82011682018060405250810190614b9991906155fd565b50614bde565b5f614bdb8383888a8881518110614bb857614bb8615566565b60200260200101518e614bcb9190615981565b614bd59190615998565b88611218565b50505b5050600101614a19565b50505050505050565b828054828255905f5260205f20908101928215614c44579160200282015b82811115614c4457825182546001600160a01b0319166001600160a01b03909116178255602090920191600190910190614c0f565b50614c50929150614cf4565b5090565b828054828255905f5260205f2090600901600a90048101928215614c44579160200282015f5b83821115614cbc57835183826101000a81548162ffffff021916908362ffffff1602179055509260200192600301602081600201049283019260010302614c7a565b8015614ceb5782816101000a81549062ffffff0219169055600301602081600201049283019260010302614cbc565b5050614c509291505b5b80821115614c50575f8155600101614cf5565b5f60208284031215614d18575f80fd5b81356001600160e01b03198116811461116b575f80fd5b80356001600160401b0381168114614d45575f80fd5b919050565b6001600160a01b03811681146113b8575f80fd5b634e487b7160e01b5f52604160045260245ffd5b604080519081016001600160401b0381118282101715614d9457614d94614d5e565b60405290565b60405160a081016001600160401b0381118282101715614d9457614d94614d5e565b604051601f8201601f191681016001600160401b0381118282101715614de457614de4614d5e565b604052919050565b5f6001600160401b03821115614e0457614e04614d5e565b5060051b60200190565b5f82601f830112614e1d575f80fd5b8135614e30614e2b82614dec565b614dbc565b8082825260208201915060208360051b860101925085831115614e51575f80fd5b602085015b83811015614e77578035614e6981614d4a565b835260209283019201614e56565b5095945050505050565b62ffffff811681146113b8575f80fd5b5f82601f830112614ea0575f80fd5b8135614eae614e2b82614dec565b8082825260208201915060208360051b860101925085831115614ecf575f80fd5b602085015b83811015614e77578035614ee781614e81565b835260209283019201614ed4565b5f805f8060808587031215614f08575f80fd5b614f1185614d2f565b93506020850135614f2181614d4a565b925060408501356001600160401b03811115614f3b575f80fd5b614f4787828801614e0e565b92505060608501356001600160401b03811115614f62575f80fd5b614f6e87828801614e91565b91505092959194509250565b5f805f60608486031215614f8c575f80fd5b83356001600160401b03811115614fa1575f80fd5b614fad86828701614e0e565b93505060208401356001600160401b03811115614fc8575f80fd5b614fd486828701614e91565b93969395505050506040919091013590565b5f805f805f805f805f6101208a8c031215614fff575f80fd5b6150088a614d2f565b985060208a013561501881614d4a565b975060408a013561502881614d4a565b965060608a013561503881614d4a565b955060808a013561504881614d4a565b945060a08a013561505881614d4a565b935060c08a013561506881614d4a565b925060e08a013561507881614d4a565b91506101008a013561508981614d4a565b809150509295985092959850929598565b5f602082840312156150aa575f80fd5b61116b82614d2f565b6001600160a01b0391909116815260200190565b5f602082840312156150d7575f80fd5b813561116b81614d4a565b5f602082840312156150f2575f80fd5b5035919050565b5f805f806080858703121561510c575f80fd5b84356001600160401b03811115615121575f80fd5b61512d87828801614e0e565b94505060208501356001600160401b03811115615148575f80fd5b61515487828801614e91565b93505060408501359150606085013561516c81614d4a565b939692955090935050565b5f8060408385031215615188575f80fd5b823561519381614d4a565b946020939093013593505050565b5f602082840312156151b1575f80fd5b81356001600160401b038111156151c6575f80fd5b820160a0818503121561116b575f80fd5b5f81518084528060208401602086015e5f602082860101526020601f19601f83011685010191505092915050565b6001600160401b03861681526001600160a01b038516602082015260a0604082018190525f90615237908301866151d7565b6001600160a01b0394909416606083015250608001529392505050565b5f6001600160401b0382111561526c5761526c614d5e565b50601f01601f191660200190565b5f82601f830112615289575f80fd5b8135615297614e2b82615254565b8181528460208386010111156152ab575f80fd5b816020850160208301375f918101602001919091529392505050565b5f805f80608085870312156152da575f80fd5b6152e385614d2f565b935060208501356152f381614d4a565b925060408501356001600160401b0381111561530d575f80fd5b6153198782880161527a565b92505060608501356002811061516c575f80fd5b5f805f8060808587031215615340575f80fd5b843561534b81614d4a565b9350602085013561535b81614d4a565b925060408501356001600160801b0381168114615376575f80fd5b9150606085013561516c81614e81565b602080825282518282018190525f918401906040840190835b818110156153c65783516001600160a01b031683526020938401939092019160010161539f565b509095945050505050565b5f82601f8301126153e0575f80fd5b81516153ee614e2b82614dec565b8082825260208201915060208360051b86010192508583111561540f575f80fd5b602085015b83811015614e7757805161542781614d4a565b835260209283019201615414565b5f60208284031215615445575f80fd5b81516001600160401b0381111561545a575f80fd5b615466848285016153d1565b949350505050565b602080825282518282018190525f918401906040840190835b818110156153c657835162ffffff16835260209384019390920191600101615487565b5f82601f8301126154b9575f80fd5b81516154c7614e2b82614dec565b8082825260208201915060208360051b8601019250858311156154e8575f80fd5b602085015b83811015614e7757805161550081614e81565b8352602092830192016154ed565b5f6020828403121561551e575f80fd5b81516001600160401b03811115615533575f80fd5b615466848285016154aa565b634e487b7160e01b5f52601160045260245ffd5b818103818111156108225761082261553f565b634e487b7160e01b5f52603260045260245ffd5b808201808211156108225761082261553f565b6001600160a01b03958616815293851660208501529190931660408301526001600160801b03909216606082015262ffffff909116608082015260a00190565b5f602082840312156155dd575f80fd5b5051919050565b6001600160a01b03929092168252602082015260400190565b5f6020828403121561560d575f80fd5b8151801515811461116b575f80fd5b805169ffffffffffffffffffff81168114614d45575f80fd5b5f805f805f60a08688031215615649575f80fd5b6156528661561c565b602087015160408801516060890151929750909550935091506156776080870161561c565b90509295509295909350565b5f60208284031215615693575f80fd5b815160ff8116811461116b575f80fd5b6020808252818101527f416d6f756e74206d7573742062652067726561746572207468616e207a65726f604082015260600190565b5f82601f8301126156e7575f80fd5b81356156f5614e2b82614dec565b8082825260208201915060208360061b860101925085831115615716575f80fd5b602085015b83811015614e775760408188031215615732575f80fd5b61573a614d72565b813561574581614d4a565b815260208281013581830152908452929092019160400161571b565b5f60a08236031215615771575f80fd5b615779614d9a565b8235815261578960208401614d2f565b602082015260408301356001600160401b038111156157a6575f80fd5b6157b23682860161527a565b60408301525060608301356001600160401b038111156157d0575f80fd5b6157dc3682860161527a565b60608301525060808301356001600160401b038111156157fa575f80fd5b615806368286016156d8565b60808301525092915050565b600181811c9082168061582657607f821691505b60208210810361584457634e487b7160e01b5f52602260045260245ffd5b50919050565b60208082526030908201527f50726f706f7361626c654f776e61626c653a206e6577206f776e65722069732060408201526f746865207a65726f206164647265737360801b606082015260800190565b634e487b7160e01b5f52602160045260245ffd5b6001600160401b0383168152604060208201525f825160a060408401526158d860e08401826151d7565b90506020840151603f198483030160608501526158f582826151d7565b6040860151858203603f190160808701528051808352602091820194505f93509101905b8083101561595057835180516001600160a01b03168352602090810151818401529093019260019290920191604090910190615919565b5060608601516001600160a01b031660a08601526080860151858203603f190160c0870152925061214781846151d7565b80820281158282048414176108225761082261553f565b5f826159b257634e487b7160e01b5f52601260045260245ffd5b500490565b5f8151808452602084019350602083015f5b828110156159f05781516001600160a01b03168652602095860195909101906001016159c9565b5093949350505050565b828152604060208201525f61546660408301846159b7565b5f82601f830112615a21575f80fd5b8151615a2f614e2b82614dec565b8082825260208201915060208360051b860101925085831115615a50575f80fd5b602085015b83811015614e77578051835260209283019201615a55565b5f60208284031215615a7d575f80fd5b81516001600160401b03811115615a92575f80fd5b61546684828501615a12565b6020808252602b908201527f496e697469616c697a61626c653a20636f6e7472616374206973206e6f74206960408201526a6e697469616c697a696e6760a81b606082015260800190565b60ff82811682821603908111156108225761082261553f565b6001815b6001841115615b3d57808504811115615b2157615b2161553f565b6001841615615b2f57908102905b60019390931c928002615b06565b935093915050565b5f82615b5357506001610822565b81615b5f57505f610822565b8160018114615b755760028114615b7f57615b9b565b6001915050610822565b60ff841115615b9057615b9061553f565b50506001821b610822565b5060208310610133831016604e8410600b8410161715615bbe575081810a610822565b615bca5f198484615b02565b805f1904821115615bdd57615bdd61553f565b029392505050565b5f61116b60ff841683615b45565b8082025f8212600160ff1b84141615615c0e57615c0e61553f565b81810583148215176108225761082261553f565b5f60208284031215615c32575f80fd5b815161116b81614d4a565b5f82601f830112615c4c575f80fd5b8151615c5a614e2b82614dec565b8082825260208201915060208360051b860101925085831115615c7b575f80fd5b602085015b83811015614e775780516001600160401b03811115615c9d575f80fd5b8601603f81018813615cad575f80fd5b6020810151615cbe614e2b82615254565b8181526040838301018a1015615cd2575f80fd5b8160408401602083015e5f60208383010152808652505050602083019250602081019050615c80565b5f805f805f805f80610100898b031215615d13575f80fd5b885160208a01519098506001600160401b03811115615d30575f80fd5b615d3c8b828c016153d1565b97505060408901516001600160401b03811115615d57575f80fd5b615d638b828c016153d1565b96505060608901516001600160401b03811115615d7e575f80fd5b615d8a8b828c01615c3d565b95505060808901516001600160401b03811115615da5575f80fd5b615db18b828c01615c3d565b60a08b015160c08c0151919650945090506001600160401b03811115615dd5575f80fd5b615de18b828c01615a12565b92505060e08901516001600160401b03811115615dfc575f80fd5b615e088b828c01615a12565b9150509295985092959890939650565b602081525f825160a06020840152615e3360c08401826151d7565b905060018060a01b0360208501511660408401526040840151606084015260608401516080840152608084015160a08401528091505092915050565b85815284602082015260a060408201525f61523760a08301866159b7565b602081525f61116b60208301846151d7565b5f8060408385031215615eb0575f80fd5b82516001600160401b03811115615ec5575f80fd5b615ed1858286016153d1565b92505060208301516001600160401b03811115615eec575f80fd5b615ef8858286016154aa565b9150509250929050565b5f82825180855260208501945060208160051b830101602085015f5b83811015615f5057601f19858403018852615f3a8383516151d7565b6020988901989093509190910190600101615f1e565b50909695505050505050565b5f8151808452602084019350602083015f5b828110156159f0578151865260209586019590910190600101615f6e565b60ff8916815261010060208201525f615fa961010083018a6159b7565b8281036040840152615fbb818a6159b7565b90508281036060840152615fcf8189615f02565b90508281036080840152615fe38188615f02565b90508560a084015282810360c0840152615ffd8186615f5c565b905082810360e08401526160118185615f5c565b9b9a5050505050505050505050565b6001600160a01b039384168152919092166020820152604081019190915260600190565b5f81518060208401855e5f93019283525090919050565b5f6160668286616044565b60609490941b6001600160601b0319168452505060e81b6001600160e81b0319166014820152601701919050565b5f61609f8285616044565b60609390931b6001600160601b0319168352505060140191905056fea26469706673582212203048eb9be9e8e3a6c34d89ed78148fab479b989122ccd125274b653a377dd27264736f6c634300081a0033","linkReferences":{"contracts/libraries/PathHelpers.sol":{"PathHelpers":[{"start":2258,"length":20},{"start":2423,"length":20},{"start":9678,"length":20},{"start":10172,"length":20},{"start":10292,"length":20},{"start":11165,"length":20},{"start":11672,"length":20},{"start":11792,"length":20},{"start":12769,"length":20},{"start":13158,"length":20},{"start":13291,"length":20},{"start":16953,"length":20},{"start":17511,"length":20},{"start":17631,"length":20},{"start":17885,"length":20},{"start":18297,"length":20},{"start":18924,"length":20},{"start":19010,"length":20}]}}},"methodIdentifiers":{"ccipReceive((bytes32,uint64,bytes,bytes,(address,uint256)[]))":"85572ffb","convertEthToUsd(uint256)":"c086381e","crossChainToken(uint64)":"19da7e2a","currentChainSelector()":"3d54cb6f","estimateAmountOut(address,address,uint128,uint24)":"ee7bd3e2","estimateAmountOutWithPath(address[],uint24[],uint256)":"16d9f6bd","factoryV3()":"1d5f45f5","fromETHFees(address,uint256)":"8e08b945","fromETHPath(address,uint256)":"709a04f2","getAmountOut(address[],uint24[],uint256)":"dfbd3897","getRouter()":"b0f479a1","i_link()":"7d253aff","i_maxTokensLength()":"5b6a0351","initialize(uint64,address,address,address,address,address,address,address,address)":"17c27b76","issuanceMessageIdByNonce(uint256)":"9121c717","messageDetail(bytes32)":"9c3ddb2e","owner()":"8da5cb5b","pause()":"8456cb59","paused()":"5c975abb","priceInWei()":"3c8da588","priceOracle()":"2630c12f","proposeOwner(address)":"b5ed298a","proposedOwner()":"d153b60c","quoter()":"c6bbd5a7","redemptionMessageIdByNonce(uint256)":"306b3a28","renounceOwnership()":"715018a6","sendMessage(uint64,address,bytes,uint8)":"bcab90b3","setCcipRouter(address)":"27bf9b44","setCrossChainToken(uint64,address,address[],uint24[])":"0ecdc1c6","setPriceOracle(address)":"530e784f","setVault(address)":"6817031b","supportsInterface(bytes4)":"01ffc9a7","swap(address[],uint24[],uint256,address)":"5c1a094c","swapRouterV2()":"744fbc7a","swapRouterV3()":"b631e80b","toETHFees(address,uint256)":"7edbc2ff","toETHPath(address,uint256)":"91b31b5b","toUsdPriceFeed()":"63973fda","transferOwnership(address)":"f2fde38b","unpause()":"3f4ba83a","vault()":"fbfa77cf","weth()":"3fc8cef3"},"id":32}