{"abi":[{"type":"receive","stateMutability":"payable"},{"type":"function","name":"ccipReceive","inputs":[{"name":"message","type":"tuple","internalType":"struct Client.Any2EVMMessage","components":[{"name":"messageId","type":"bytes32","internalType":"bytes32"},{"name":"sourceChainSelector","type":"uint64","internalType":"uint64"},{"name":"sender","type":"bytes","internalType":"bytes"},{"name":"data","type":"bytes","internalType":"bytes"},{"name":"destTokenAmounts","type":"tuple[]","internalType":"struct Client.EVMTokenAmount[]","components":[{"name":"token","type":"address","internalType":"address"},{"name":"amount","type":"uint256","internalType":"uint256"}]}]}],"outputs":[],"stateMutability":"nonpayable"},{"type":"function","name":"convertEthToUsd","inputs":[{"name":"_ethAmount","type":"uint256","internalType":"uint256"}],"outputs":[{"name":"","type":"uint256","internalType":"uint256"}],"stateMutability":"view"},{"type":"function","name":"crossChainToken","inputs":[{"name":"","type":"uint64","internalType":"uint64"}],"outputs":[{"name":"","type":"address","internalType":"address"}],"stateMutability":"view"},{"type":"function","name":"crossChainTokenSwapFee","inputs":[{"name":"","type":"uint64","internalType":"uint64"},{"name":"","type":"address","internalType":"address"}],"outputs":[{"name":"","type":"uint24","internalType":"uint24"}],"stateMutability":"view"},{"type":"function","name":"currentChainSelector","inputs":[],"outputs":[{"name":"","type":"uint64","internalType":"uint64"}],"stateMutability":"view"},{"type":"function","name":"estimateAmountOut","inputs":[{"name":"tokenIn","type":"address","internalType":"address"},{"name":"tokenOut","type":"address","internalType":"address"},{"name":"amountIn","type":"uint128","internalType":"uint128"},{"name":"fee","type":"uint24","internalType":"uint24"}],"outputs":[{"name":"amountOut","type":"uint256","internalType":"uint256"}],"stateMutability":"view"},{"type":"function","name":"factoryV3","inputs":[],"outputs":[{"name":"","type":"address","internalType":"contract IUniswapV3Factory"}],"stateMutability":"view"},{"type":"function","name":"fee","inputs":[],"outputs":[{"name":"","type":"uint256","internalType":"uint256"}],"stateMutability":"view"},{"type":"function","name":"feeRate","inputs":[],"outputs":[{"name":"","type":"uint8","internalType":"uint8"}],"stateMutability":"view"},{"type":"function","name":"feeRatePerDayScaled","inputs":[],"outputs":[{"name":"","type":"uint256","internalType":"uint256"}],"stateMutability":"view"},{"type":"function","name":"feeReceiver","inputs":[],"outputs":[{"name":"","type":"address","internalType":"address"}],"stateMutability":"view"},{"type":"function","name":"feeTimestamp","inputs":[],"outputs":[{"name":"","type":"uint256","internalType":"uint256"}],"stateMutability":"view"},{"type":"function","name":"getAmountOut","inputs":[{"name":"tokenIn","type":"address","internalType":"address"},{"name":"tokenOut","type":"address","internalType":"address"},{"name":"amountIn","type":"uint256","internalType":"uint256"},{"name":"_swapFee","type":"uint24","internalType":"uint24"}],"outputs":[{"name":"finalAmountOut","type":"uint256","internalType":"uint256"}],"stateMutability":"view"},{"type":"function","name":"getPendingRequest","inputs":[{"name":"requestId","type":"bytes32","internalType":"bytes32"}],"outputs":[{"name":"","type":"address","internalType":"address"}],"stateMutability":"view"},{"type":"function","name":"getRouter","inputs":[],"outputs":[{"name":"","type":"address","internalType":"address"}],"stateMutability":"view"},{"type":"function","name":"i_link","inputs":[],"outputs":[{"name":"","type":"address","internalType":"address"}],"stateMutability":"view"},{"type":"function","name":"i_maxTokensLength","inputs":[],"outputs":[{"name":"","type":"uint16","internalType":"uint16"}],"stateMutability":"view"},{"type":"function","name":"initialize","inputs":[{"name":"_currentChainSelector","type":"uint64","internalType":"uint64"},{"name":"_vault","type":"address","internalType":"address payable"},{"name":"_chainlinkToken","type":"address","internalType":"address"},{"name":"_router","type":"address","internalType":"address"},{"name":"_weth","type":"address","internalType":"address"},{"name":"_swapRouterV3","type":"address","internalType":"address"},{"name":"_factoryV3","type":"address","internalType":"address"},{"name":"_swapRouterV2","type":"address","internalType":"address"},{"name":"_toUsdPriceFeed","type":"address","internalType":"address"}],"outputs":[],"stateMutability":"nonpayable"},{"type":"function","name":"isRestricted","inputs":[{"name":"","type":"address","internalType":"address"}],"outputs":[{"name":"","type":"bool","internalType":"bool"}],"stateMutability":"view"},{"type":"function","name":"issuanceCompletedTokensCount","inputs":[{"name":"","type":"uint256","internalType":"uint256"}],"outputs":[{"name":"","type":"uint256","internalType":"uint256"}],"stateMutability":"view"},{"type":"function","name":"issuanceMessageIdByNonce","inputs":[{"name":"","type":"uint256","internalType":"uint256"}],"outputs":[{"name":"","type":"bytes32","internalType":"bytes32"}],"stateMutability":"view"},{"type":"function","name":"issuanceTokenOldAndNewValues","inputs":[{"name":"","type":"uint256","internalType":"uint256"},{"name":"","type":"address","internalType":"address"}],"outputs":[{"name":"oldTokenValue","type":"uint256","internalType":"uint256"},{"name":"newTokenValue","type":"uint256","internalType":"uint256"}],"stateMutability":"view"},{"type":"function","name":"latestFeeUpdate","inputs":[],"outputs":[{"name":"","type":"uint256","internalType":"uint256"}],"stateMutability":"view"},{"type":"function","name":"messageDetail","inputs":[{"name":"","type":"bytes32","internalType":"bytes32"}],"outputs":[{"name":"sourceChainSelector","type":"uint64","internalType":"uint64"},{"name":"sender","type":"address","internalType":"address"},{"name":"message","type":"string","internalType":"string"},{"name":"token","type":"address","internalType":"address"},{"name":"amount","type":"uint256","internalType":"uint256"}],"stateMutability":"view"},{"type":"function","name":"methodologist","inputs":[],"outputs":[{"name":"","type":"address","internalType":"address"}],"stateMutability":"view"},{"type":"function","name":"methodology","inputs":[],"outputs":[{"name":"","type":"string","internalType":"string"}],"stateMutability":"view"},{"type":"function","name":"minter","inputs":[],"outputs":[{"name":"","type":"address","internalType":"address"}],"stateMutability":"view"},{"type":"function","name":"oraclePayment","inputs":[],"outputs":[{"name":"","type":"uint256","internalType":"uint256"}],"stateMutability":"view"},{"type":"function","name":"owner","inputs":[],"outputs":[{"name":"","type":"address","internalType":"address"}],"stateMutability":"view"},{"type":"function","name":"pause","inputs":[],"outputs":[],"stateMutability":"nonpayable"},{"type":"function","name":"paused","inputs":[],"outputs":[{"name":"","type":"bool","internalType":"bool"}],"stateMutability":"view"},{"type":"function","name":"priceInWei","inputs":[],"outputs":[{"name":"","type":"uint256","internalType":"uint256"}],"stateMutability":"view"},{"type":"function","name":"priceOracle","inputs":[],"outputs":[{"name":"","type":"address","internalType":"address"}],"stateMutability":"view"},{"type":"function","name":"proposeOwner","inputs":[{"name":"_proposedOwner","type":"address","internalType":"address"}],"outputs":[],"stateMutability":"nonpayable"},{"type":"function","name":"proposedOwner","inputs":[],"outputs":[{"name":"","type":"address","internalType":"address"}],"stateMutability":"view"},{"type":"function","name":"quoter","inputs":[],"outputs":[{"name":"","type":"address","internalType":"contract IQuoter"}],"stateMutability":"view"},{"type":"function","name":"receivedMessages","inputs":[{"name":"","type":"uint256","internalType":"uint256"}],"outputs":[{"name":"","type":"bytes32","internalType":"bytes32"}],"stateMutability":"view"},{"type":"function","name":"redemptionMessageIdByNonce","inputs":[{"name":"","type":"uint256","internalType":"uint256"}],"outputs":[{"name":"","type":"bytes32","internalType":"bytes32"}],"stateMutability":"view"},{"type":"function","name":"renounceOwnership","inputs":[],"outputs":[],"stateMutability":"nonpayable"},{"type":"function","name":"sendMessage","inputs":[{"name":"destinationChainSelector","type":"uint64","internalType":"uint64"},{"name":"receiver","type":"address","internalType":"address"},{"name":"_data","type":"bytes","internalType":"bytes"},{"name":"payFeesIn","type":"uint8","internalType":"enum CrossChainIndexFactory.PayFeesIn"}],"outputs":[{"name":"","type":"bytes32","internalType":"bytes32"}],"stateMutability":"nonpayable"},{"type":"function","name":"setCcipRouter","inputs":[{"name":"_router","type":"address","internalType":"address"}],"outputs":[],"stateMutability":"nonpayable"},{"type":"function","name":"setCrossChainToken","inputs":[{"name":"_chainSelector","type":"uint64","internalType":"uint64"},{"name":"_crossChainToken","type":"address","internalType":"address"},{"name":"_swapFee","type":"uint24","internalType":"uint24"}],"outputs":[],"stateMutability":"nonpayable"},{"type":"function","name":"setPriceOracle","inputs":[{"name":"_priceOracle","type":"address","internalType":"address"}],"outputs":[],"stateMutability":"nonpayable"},{"type":"function","name":"setVault","inputs":[{"name":"_vault","type":"address","internalType":"address payable"}],"outputs":[],"stateMutability":"nonpayable"},{"type":"function","name":"sourceChainSelectorF","inputs":[],"outputs":[{"name":"","type":"uint64","internalType":"uint64"}],"stateMutability":"view"},{"type":"function","name":"supplyCeiling","inputs":[],"outputs":[{"name":"","type":"uint256","internalType":"uint256"}],"stateMutability":"view"},{"type":"function","name":"supportsInterface","inputs":[{"name":"interfaceId","type":"bytes4","internalType":"bytes4"}],"outputs":[{"name":"","type":"bool","internalType":"bool"}],"stateMutability":"pure"},{"type":"function","name":"swap","inputs":[{"name":"tokenIn","type":"address","internalType":"address"},{"name":"tokenOut","type":"address","internalType":"address"},{"name":"amountIn","type":"uint256","internalType":"uint256"},{"name":"_recipient","type":"address","internalType":"address"},{"name":"_swapFee","type":"uint24","internalType":"uint24"}],"outputs":[{"name":"outputAmount","type":"uint256","internalType":"uint256"}],"stateMutability":"nonpayable"},{"type":"function","name":"swapRouterV2","inputs":[],"outputs":[{"name":"","type":"address","internalType":"contract IUniswapV2Router02"}],"stateMutability":"view"},{"type":"function","name":"swapRouterV3","inputs":[],"outputs":[{"name":"","type":"address","internalType":"contract ISwapRouter"}],"stateMutability":"view"},{"type":"function","name":"toUsdPriceFeed","inputs":[],"outputs":[{"name":"","type":"address","internalType":"contract AggregatorV3Interface"}],"stateMutability":"view"},{"type":"function","name":"transferOwnership","inputs":[{"name":"newOwner","type":"address","internalType":"address"}],"outputs":[],"stateMutability":"nonpayable"},{"type":"function","name":"unpause","inputs":[],"outputs":[],"stateMutability":"nonpayable"},{"type":"function","name":"vault","inputs":[],"outputs":[{"name":"","type":"address","internalType":"contract Vault"}],"stateMutability":"view"},{"type":"function","name":"weth","inputs":[],"outputs":[{"name":"","type":"address","internalType":"contract IWETH"}],"stateMutability":"view"},{"type":"event","name":"ChainlinkCancelled","inputs":[{"name":"id","type":"bytes32","indexed":true,"internalType":"bytes32"}],"anonymous":false},{"type":"event","name":"ChainlinkFulfilled","inputs":[{"name":"id","type":"bytes32","indexed":true,"internalType":"bytes32"}],"anonymous":false},{"type":"event","name":"ChainlinkRequested","inputs":[{"name":"id","type":"bytes32","indexed":true,"internalType":"bytes32"}],"anonymous":false},{"type":"event","name":"Initialized","inputs":[{"name":"version","type":"uint8","indexed":false,"internalType":"uint8"}],"anonymous":false},{"type":"event","name":"Issuanced","inputs":[{"name":"messageId","type":"bytes32","indexed":true,"internalType":"bytes32"},{"name":"nonce","type":"uint256","indexed":true,"internalType":"uint256"},{"name":"time","type":"uint256","indexed":false,"internalType":"uint256"}],"anonymous":false},{"type":"event","name":"MessageSent","inputs":[{"name":"messageId","type":"bytes32","indexed":false,"internalType":"bytes32"}],"anonymous":false},{"type":"event","name":"OwnershipTransferred","inputs":[{"name":"previousOwner","type":"address","indexed":true,"internalType":"address"},{"name":"newOwner","type":"address","indexed":true,"internalType":"address"}],"anonymous":false},{"type":"event","name":"Paused","inputs":[{"name":"account","type":"address","indexed":false,"internalType":"address"}],"anonymous":false},{"type":"event","name":"Redemption","inputs":[{"name":"messageId","type":"bytes32","indexed":true,"internalType":"bytes32"},{"name":"nonce","type":"uint256","indexed":true,"internalType":"uint256"},{"name":"time","type":"uint256","indexed":false,"internalType":"uint256"}],"anonymous":false},{"type":"event","name":"Unpaused","inputs":[{"name":"account","type":"address","indexed":false,"internalType":"address"}],"anonymous":false},{"type":"error","name":"InvalidRouter","inputs":[{"name":"router","type":"address","internalType":"address"}]}],"bytecode":{"object":"0x6080604052348015600e575f80fd5b506148f58061001c5f395ff3fe608060405260043610610344575f3560e01c806381b15279116101bd578063b631e80b116100f2578063dd811ac911610092578063f0cd5b721161006d578063f0cd5b7214610a56578063f2fde38b14610a75578063fbfa77cf14610a94578063ff5474f014610ab3575f80fd5b8063dd811ac914610a03578063ddca3f4314610a22578063ee7bd3e214610a37575f80fd5b8063c086381e116100cd578063c086381e14610987578063c6bbd5a7146109a6578063d030366c146109c5578063d153b60c146109e4575f80fd5b8063b631e80b1461091b578063bcab90b31461093a578063c01bc98214610959575f80fd5b8063978bbdb91161015d5780639f8e67bf116101385780639f8e67bf1461089c578063b0f479a1146108bb578063b3f00674146108dd578063b5ed298a146108fc575f80fd5b8063978bbdb9146108205780639c3ddb2e1461084b5780639eeb1d501461087b575f80fd5b806388b12d551161019857806388b12d55146107795780638da5cb5b146107ad5780639121c717146107ca57806394037369146107f5575f80fd5b806381b15279146106f45780638456cb591461074657806385572ffb1461075a575f80fd5b80633c8da5881161029357806363973fda11610233578063715018a61161020e578063715018a614610683578063744fbc7a146106975780637d253aff146106b65780637e79f512146106d5575f80fd5b806363973fda146105f6578063652354ae146106155780636817031b14610664575f80fd5b80633fc8cef31161026e5780633fc8cef31461056d578063530e784f1461058c5780635b6a0351146105ab5780635c975abb146105df575f80fd5b80633c8da5881461050e5780633d54cb6f146105225780633f4ba83a14610559575f80fd5b806319da7e2a116102fe57806327bf9b44116102d957806327bf9b441461049a5780632b52684d146104b95780632fecd589146104ce578063306b3a28146104e3575f80fd5b806319da7e2a146104285780631d5f45f51461045c5780632630c12f1461047b575f80fd5b8063011ced5f1461034f57806301ffc9a71461037757806307546172146103a65780630c02e130146103dd57806317c27b76146103f2578063184a732f14610413575f80fd5b3661034b57005b5f80fd5b34801561035a575f80fd5b5061036460d65481565b6040519081526020015b60405180910390f35b348015610382575f80fd5b50610396610391366004613a41565b610ad2565b604051901515815260200161036e565b3480156103b1575f80fd5b5060dd546103c5906001600160a01b031681565b6040516001600160a01b03909116815260200161036e565b3480156103e8575f80fd5b5061036460e15481565b3480156103fd575f80fd5b5061041161040c366004613a97565b610b08565b005b34801561041e575f80fd5b5061036460d95481565b348015610433575f80fd5b506103c5610442366004613b4b565b60e86020525f90815260409020546001600160a01b031681565b348015610467575f80fd5b5060e4546103c5906001600160a01b031681565b348015610486575f80fd5b5060dc546103c5906001600160a01b031681565b3480156104a5575f80fd5b506104116104b4366004613b64565b610d91565b3480156104c4575f80fd5b5061036460df5481565b3480156104d9575f80fd5b5061036460d85481565b3480156104ee575f80fd5b506103646104fd366004613b7f565b60ee6020525f908152604090205481565b348015610519575f80fd5b50610364610dc2565b34801561052d575f80fd5b5060d754610541906001600160401b031681565b6040516001600160401b03909116815260200161036e565b348015610564575f80fd5b50610411610ec8565b348015610578575f80fd5b5060e6546103c5906001600160a01b031681565b348015610597575f80fd5b506104116105a6366004613b64565b610eda565b3480156105b6575f80fd5b5060d0546105cc90600160a01b900461ffff1681565b60405161ffff909116815260200161036e565b3480156105ea575f80fd5b50609e5460ff16610396565b348015610601575f80fd5b5060e2546103c5906001600160a01b031681565b348015610620575f80fd5b5061065061062f366004613b96565b60e960209081525f928352604080842090915290825290205462ffffff1681565b60405162ffffff909116815260200161036e565b34801561066f575f80fd5b5061041161067e366004613b64565b610f6e565b34801561068e575f80fd5b50610411610f98565b3480156106a2575f80fd5b5060e5546103c5906001600160a01b031681565b3480156106c1575f80fd5b5060d0546103c5906001600160a01b031681565b3480156106e0575f80fd5b506103646106ef366004613bdd565b610fa9565b3480156106ff575f80fd5b5061073161070e366004613c3d565b60ec60209081525f92835260408084209091529082529020805460019091015482565b6040805192835260208301919091520161036e565b348015610751575f80fd5b50610411610fd6565b348015610765575f80fd5b50610411610774366004613c60565b610fe6565b348015610784575f80fd5b506103c5610793366004613b7f565b5f908152600660205260409020546001600160a01b031690565b3480156107b8575f80fd5b506039546001600160a01b03166103c5565b3480156107d5575f80fd5b506103646107e4366004613b7f565b60ef6020525f908152604090205481565b348015610800575f80fd5b5061036461080f366004613b7f565b60ed6020525f908152604090205481565b34801561082b575f80fd5b5060d5546108399060ff1681565b60405160ff909116815260200161036e565b348015610856575f80fd5b5061086a610865366004613b7f565b61102c565b60405161036e959493929190613cc4565b348015610886575f80fd5b5061088f611105565b60405161036e9190613d13565b3480156108a7575f80fd5b5060db546103c5906001600160a01b031681565b3480156108c6575f80fd5b505f546201000090046001600160a01b03166103c5565b3480156108e8575f80fd5b5060da546103c5906001600160a01b031681565b348015610907575f80fd5b50610411610916366004613b64565b611191565b348015610926575f80fd5b5060e3546103c5906001600160a01b031681565b348015610945575f80fd5b50610364610954366004613e1e565b6111e1565b348015610964575f80fd5b50610396610973366004613b64565b60e06020525f908152604090205460ff1681565b348015610992575f80fd5b506103646109a1366004613b7f565b611487565b3480156109b1575f80fd5b5060e7546103c5906001600160a01b031681565b3480156109d0575f80fd5b506103646109df366004613b7f565b6114ad565b3480156109ef575f80fd5b50606b546103c5906001600160a01b031681565b348015610a0e575f80fd5b50610364610a1d366004613e8f565b6114cc565b348015610a2d575f80fd5b5061036460d45481565b348015610a42575f80fd5b50610364610a51366004613edd565b611605565b348015610a61575f80fd5b50610411610a70366004613f34565b6116aa565b348015610a80575f80fd5b50610411610a8f366004613b64565b611710565b348015610a9f575f80fd5b5060d3546103c5906001600160a01b031681565b348015610abe575f80fd5b5060eb54610541906001600160401b031681565b5f6001600160e01b031982166385572ffb60e01b1480610b0257506001600160e01b031982166301ffc9a760e01b145b92915050565b5f54610100900460ff1615808015610b2657505f54600160ff909116105b80610b3f5750303b158015610b3f57505f5460ff166001145b610ba75760405162461bcd60e51b815260206004820152602e60248201527f496e697469616c697a61626c653a20636f6e747261637420697320616c72656160448201526d191e481a5b9a5d1a585b1a5e995960921b60648201526084015b60405180910390fd5b5f805460ff191660011790558015610bc8575f805461ff0019166101001790555b610bd0611835565b610bd8611863565b60d780546001600160401b038c1667ffffffffffffffff1990911617905560d380546001600160a01b038b166001600160a01b0319909116179055610c3a88600380546001600160a01b039092166001600160a01b0319909216919091179055565b5f805462010000600160b01b031916620100006001600160a01b038a81168202929092179283905560d080548c84166001600160b01b03199091168117600560a01b1790915560405163095ea7b360e01b81529190930490911660048201525f19602482015263095ea7b3906044016020604051808303815f875af1158015610cc5573d5f803e3d5ffd5b505050506040513d601f19601f82011682018060405250810190610ce99190613f76565b5060e680546001600160a01b03199081166001600160a01b038981169190911790925560e38054821688841617905560e48054821687841617905560e58054821686841617905560e280549091169184169190911790558015610d85575f805461ff0019169055604051600181527f7f26b83ff96e1f2b6a682f133852f6798a09c465da95921460cefb38474024989060200160405180910390a15b50505050505050505050565b610d99611891565b5f80546001600160a01b03909216620100000262010000600160b01b0319909216919091179055565b5f8060e25f9054906101000a90046001600160a01b03166001600160a01b031663feaf968c6040518163ffffffff1660e01b815260040160a060405180830381865afa158015610e14573d5f803e3d5ffd5b505050506040513d601f19601f82011682018060405250810190610e389190613fae565b5050509150505f60e25f9054906101000a90046001600160a01b03166001600160a01b031663313ce5676040518163ffffffff1660e01b8152600401602060405180830381865afa158015610e8f573d5f803e3d5ffd5b505050506040513d601f19601f82011682018060405250810190610eb39190613ff0565b9050610ec1828260126118eb565b9392505050565b610ed0611891565b610ed861192a565b565b610ee2611891565b6001600160a01b038116610f4c5760405162461bcd60e51b815260206004820152602b60248201527f5072696365206f7261636c6520616464726573732063616e6e6f74206265207a60448201526a65726f206164647265737360a81b6064820152608401610b9e565b60dc80546001600160a01b0319166001600160a01b0392909216919091179055565b610f76611891565b60d380546001600160a01b0319166001600160a01b0392909216919091179055565b610fa0611891565b610ed85f61197c565b60e35460e5545f91610fcc916001600160a01b03918216911684898989896119cd565b9695505050505050565b610fde611891565b610ed8611a09565b5f546201000090046001600160a01b03163314611018576040516335fdcccd60e21b8152336004820152602401610b9e565b611029611024826140ca565b611a46565b50565b60d26020525f9081526040902080546001820180546001600160401b03831693680100000000000000009093046001600160a01b031692919061106e9061417b565b80601f016020809104026020016040519081016040528092919081815260200182805461109a9061417b565b80156110e55780601f106110bc576101008083540402835291602001916110e5565b820191905f5260205f20905b8154815290600101906020018083116110c857829003601f168201915b50505050600283015460039093015491926001600160a01b031691905085565b60de80546111129061417b565b80601f016020809104026020016040519081016040528092919081815260200182805461113e9061417b565b80156111895780601f1061116057610100808354040283529160200191611189565b820191905f5260205f20905b81548152906001019060200180831161116c57829003601f168201915b505050505081565b611199611891565b6001600160a01b0381166111bf5760405162461bcd60e51b8152600401610b9e906141b3565b606b80546001600160a01b0319166001600160a01b0392909216919091179055565b6040805160a081019091526001600160a01b03841660c08201525f9081908060e0810160408051808303601f19018152918152908252602080830188905281515f808252918101835292909101919061125b565b604080518082019091525f80825260208201528152602001906001900390816112355790505b508152602001600185600181111561127557611275614203565b14611280575f61128d565b60d0546001600160a01b03165b6001600160a01b031681526020016112b56040518060200160405280620dbba0815250611c14565b90525f80546040516320487ded60e01b81529293509091620100009091046001600160a01b0316906320487ded906112f3908a908690600401614217565b602060405180830381865afa15801561130e573d5f803e3d5ffd5b505050506040513d601f19601f8201168201806040525081019061133291906142ea565b90505f600185600181111561134957611349614203565b036113cb575f546040516396f4e9f960e01b8152620100009091046001600160a01b0316906396f4e9f990611384908b908790600401614217565b6020604051808303815f875af11580156113a0573d5f803e3d5ffd5b505050506040513d601f19601f820116820180604052508101906113c491906142ea565b9050611447565b5f546040516396f4e9f960e01b8152620100009091046001600160a01b0316906396f4e9f9908490611403908c908890600401614217565b60206040518083038185885af115801561141f573d5f803e3d5ffd5b50505050506040513d601f19601f8201168201806040525081019061144491906142ea565b90505b6040518181527f54791b38f3859327992a1ca0590ad3c0f08feba98d1a4f56ab0dca74d203392a9060200160405180910390a1925050505b949350505050565b5f670de0b6b3a7640000611499610dc2565b6114a39084614315565b610b02919061432c565b60d181815481106114bc575f80fd5b5f91825260209091200154905081565b5f821561147f5762ffffff8216156114f1576114ea85858585611605565b905061147f565b6040805160028082526060820183525f9260208301908036833701905050905085815f815181106115245761152461434b565b60200260200101906001600160a01b031690816001600160a01b03168152505084816001815181106115585761155861434b565b6001600160a01b03928316602091820292909201015260e55460405163d06ca61f60e01b81525f92919091169063d06ca61f9061159b90889086906004016143a2565b5f60405180830381865afa1580156115b5573d5f803e3d5ffd5b505050506040513d5f823e601f3d908101601f191682016040526115dc9190810190614415565b9050806001815181106115f1576115f161434b565b602002602001015192505050949350505050565b60dc5460e45460405163bb5705b360e01b81526001600160a01b039182166004820152868216602482015285821660448201526001600160801b038516606482015262ffffff841660848201525f92919091169063bb5705b39060a401602060405180830381865afa15801561167d573d5f803e3d5ffd5b505050506040513d601f19601f820116820180604052508101906116a191906142ea565b95945050505050565b6116b2611891565b6001600160401b03929092165f90815260e86020908152604080832080546001600160a01b0319166001600160a01b0395909516948517905560e9825280832093835292905220805462ffffff191662ffffff909216919091179055565b6001600160a01b0381166117365760405162461bcd60e51b8152600401610b9e906141b3565b606b546001600160a01b038281169116146117ae5760405162461bcd60e51b815260206004820152603260248201527f50726f706f7361626c654f776e61626c653a206e6577206f776e6572206973206044820152713737ba10383937b837b9b2b21037bbb732b960711b6064820152608401610b9e565b6001600160a01b038116331461182c5760405162461bcd60e51b815260206004820152603a60248201527f50726f706f7361626c654f776e61626c653a20746869732063616c6c206d757360448201527f74206265206d61646520627920746865206e6577206f776e65720000000000006064820152608401610b9e565b6110298161197c565b5f54610100900460ff1661185b5760405162461bcd60e51b8152600401610b9e90614446565b610ed8611c51565b5f54610100900460ff166118895760405162461bcd60e51b8152600401610b9e90614446565b610ed8611c80565b6039546001600160a01b03163314610ed85760405162461bcd60e51b815260206004820181905260248201527f4f776e61626c653a2063616c6c6572206973206e6f7420746865206f776e65726044820152606401610b9e565b5f8260ff168260ff161115611920576119048383614491565b61190f90600a61458d565b611919908561459b565b9050610ec1565b6119048284614491565b611932611cb2565b609e805460ff191690557f5db9ee0a495bf2e6ff9c91a7834c1ba4fdd244a5e8aa4e537bd38aeae4b073aa335b6040516001600160a01b03909116815260200160405180910390a1565b603980546001600160a01b038381166001600160a01b0319831681179093556040519116919082907f8be0079c531659141344cd1fd0a4f28419497f9722a3daafe3b4186f6b6457e0905f90a35050565b5f62ffffff8616156119ee576119e7888787878787611cfb565b90506119fe565b6119fb8786868686611e53565b90505b979650505050505050565b611a1161203b565b609e805460ff191660011790557f62e78cea01bee320cd4e420270b5ea74000d11b0c9f74754ebdbfc544b05a25861195f3390565b5f816020015190505f8260400151806020019051810190611a6791906145ca565b90505f805f805f805f808a60600151806020019051810190611a899190614649565b97509750975097509750975097509750875f03611abb5760808b0151611ab5818988878f8f8989612081565b50611c07565b87600103611ad657611ad18786858d8d866125dd565b611c07565b87600203611aeb57611ad18786858d8d612a2f565b87600303611b4d57611ad16040518061012001604052808981526020018881526020018781526020018681526020018481526020018c6001600160401b031681526020018b6001600160a01b0316815260200185815260200183815250612cd5565b87600403611c07575f8b608001519050611c056040518061016001604052808a8152602001898152602001888152602001878152602001858152602001835f81518110611b9c57611b9c61434b565b60200260200101515f01516001600160a01b03168152602001835f81518110611bc757611bc761434b565b60200260200101516020015181526020018d6001600160401b031681526020018c6001600160a01b0316815260200186815260200184815250612f3e565b505b5050505050505050505050565b60408051915160248084019190915281518084039091018152604490920190526020810180516001600160e01b03166397a657c960e01b17905290565b5f54610100900460ff16611c775760405162461bcd60e51b8152600401610b9e90614446565b610ed83361197c565b5f54610100900460ff16611ca65760405162461bcd60e51b8152600401610b9e90614446565b609e805460ff19169055565b609e5460ff16610ed85760405162461bcd60e51b815260206004820152601460248201527314185d5cd8589b194e881b9bdd081c185d5cd95960621b6044820152606401610b9e565b60405163095ea7b360e01b81526001600160a01b038781166004830152602482018490525f919086169063095ea7b3906044016020604051808303815f875af1158015611d4a573d5f803e3d5ffd5b505050506040513d601f19601f82011682018060405250810190611d6e9190613f76565b505f604051806101000160405280876001600160a01b03168152602001866001600160a01b031681526020018862ffffff168152602001846001600160a01b031681526020014261012c611dc29190614766565b8152602081018690525f60408083018290526060909201525163414bf38960e01b81529091506001600160a01b0389169063414bf38990611e07908490600401614779565b6020604051808303815f875af1158015611e23573d5f803e3d5ffd5b505050506040513d601f19601f82011682018060405250810190611e4791906142ea565b98975050505050505050565b6040805160028082526060820183525f928392919060208301908036833701905050905085815f81518110611e8a57611e8a61434b565b60200260200101906001600160a01b031690816001600160a01b0316815250508481600181518110611ebe57611ebe61434b565b6001600160a01b03928316602091820292909201015260405163d06ca61f60e01b81525f9189169063d06ca61f90611efc90889086906004016143a2565b5f60405180830381865afa158015611f16573d5f803e3d5ffd5b505050506040513d5f823e601f3d908101601f19168201604052611f3d9190810190614415565b60405163095ea7b360e01b81526001600160a01b038a81166004830152602482018890529192509088169063095ea7b3906044016020604051808303815f875af1158015611f8d573d5f803e3d5ffd5b505050506040513d601f19601f82011682018060405250810190611fb19190613f76565b50604051635c11d79560e01b81526001600160a01b03891690635c11d79590611fe69088905f9087908a9042906004016147f6565b5f604051808303815f87803b158015611ffd575f80fd5b505af115801561200f573d5f803e3d5ffd5b50505050806001815181106120265761202661434b565b60200260200101519250505095945050505050565b609e5460ff1615610ed85760405162461bcd60e51b815260206004820152601060248201526f14185d5cd8589b194e881c185d5cd95960821b6044820152606401610b9e565b6120ab60405180608001604052805f81526020016060815260200160608152602001606081525090565b612163895f815181106120c0576120c061434b565b60200260200101515f015160e65f9054906101000a90046001600160a01b03168b5f815181106120f2576120f261434b565b6020026020010151602001513060e95f8b6001600160401b03166001600160401b031681526020019081526020015f205f8f5f815181106121355761213561434b565b602090810291909101810151516001600160a01b031682528101919091526040015f205462ffffff16610fa9565b815287516001600160401b0381111561217e5761217e613d25565b6040519080825280602002602001820160405280156121a7578160200160208202803683370190505b50602082015287516001600160401b038111156121c6576121c6613d25565b6040519080825280602002602001820160405280156121ef578160200160208202803683370190505b5060408201525f5b885181101561252b575f835f815181106122135761221361434b565b602002602001015185838151811061222d5761222d61434b565b6020026020010151845f01516122439190614315565b61224d919061432c565b60e6548b519192505f916001600160a01b03909116908c90859081106122755761227561434b565b60200260200101516001600160a01b031603612391578a838151811061229d5761229d61434b565b602090810291909101015160d3546040516370a0823160e01b81526001600160a01b0391821660048201529116906370a0823190602401602060405180830381865afa1580156122ef573d5f803e3d5ffd5b505050506040513d601f19601f8201168201806040525081019061231391906142ea565b60e65460d35460405163a9059cbb60e01b81526001600160a01b03918216600482015260248101869052929350169063a9059cbb906044016020604051808303815f875af1158015612367573d5f803e3d5ffd5b505050506040513d601f19601f8201168201806040525081019061238b9190613f76565b506124be565b6124538b84815181106123a6576123a661434b565b602002602001015160e65f9054906101000a90046001600160a01b03168d86815181106123d5576123d561434b565b602090810291909101015160d3546040516370a0823160e01b81526001600160a01b0391821660048201529116906370a0823190602401602060405180830381865afa158015612427573d5f803e3d5ffd5b505050506040513d601f19601f8201168201806040525081019061244b91906142ea565b610bb86114cc565b90506124bc60e65f9054906101000a90046001600160a01b03168c858151811061247f5761247f61434b565b60200260200101518460d35f9054906101000a90046001600160a01b03168e88815181106124af576124af61434b565b6020026020010151610fa9565b505b5f6124c98383614766565b90506124d482611487565b856020015185815181106124ea576124ea61434b565b6020026020010181815250506124ff81611487565b856040015185815181106125155761251561434b565b60209081029190910101525050506001016121f7565b50604080515f80825260208083018452840151848401516125579492938d9390928c9290918401614844565b60405160208183030381529060405281606001819052505f6125808686846060015160016111e1565b5f88815260ef60205260409081902082905551909150879082907f7513d57665f5bbb438203d2f2a896f1f0791e1e8cd0e2d76d7bc421bfb4f49aa906125c99042815260200190565b60405180910390a350505050505050505050565b5f805b8751811015612876575f670de0b6b3a76400008983815181106126055761260561434b565b602090810291909101015160d3546040516370a0823160e01b81526001600160a01b0391821660048201529116906370a0823190602401602060405180830381865afa158015612657573d5f803e3d5ffd5b505050506040513d601f19601f8201168201806040525081019061267b91906142ea565b855f8151811061268d5761268d61434b565b602002602001015161269f9190614315565b6126a9919061432c565b60e6548a519192506001600160a01b0316908a90849081106126cd576126cd61434b565b60200260200101516001600160a01b0316036127715760d35460e654604051631c20fadd60e01b81526001600160a01b03918216600482015230602482015260448101849052911690631c20fadd906064016020604051808303815f875af115801561273b573d5f803e3d5ffd5b505050506040513d601f19601f8201168201806040525081019061275f9190613f76565b5061276a8184614766565b925061286d565b60d35489516001600160a01b0390911690631c20fadd908b908590811061279a5761279a61434b565b60209081029190910101516040516001600160e01b031960e084901b1681526001600160a01b039091166004820152306024820152604481018490526064016020604051808303815f875af11580156127f5573d5f803e3d5ffd5b505050506040513d601f19601f820116820180604052508101906128199190613f76565b5061286089838151811061282f5761282f61434b565b602002602001015160e65f9054906101000a90046001600160a01b031683308c87815181106124af576124af61434b565b61286a9084614766565b92505b506001016125e0565b5060e6546001600160401b0385165f90815260e8602090815260408083205460e983528184206001600160a01b0391821680865293529083205492936128c893911691908590309062ffffff16610fa9565b6040805160018082528183019092529192505f9190816020015b604080518082019091525f80825260208201528152602001906001900390816128e25750506001600160401b0387165f90815260e8602052604081205482519293506001600160a01b03169183919061293d5761293d61434b565b60200260200101515f01906001600160a01b031690816001600160a01b03168152505081815f815181106129735761297361434b565b602090810291909101810151810191909152604080515f80825292810183815281830190925291906129b0906001908d908c868060608101614844565b60405160208183030381529060405290505f6129d089838a876001612ff9565b5f8b815260ee602052604090819020829055519091508a9082907f2c80cd3884ced9a087f5eed6c8ddd78af4b449cdea210b92786f35bd496f534390612a199042815260200190565b60405180910390a3505050505050505050505050565b604080515f8082526020820190925290505f86516001600160401b03811115612a5a57612a5a613d25565b604051908082528060200260200182016040528015612a83578160200160208202803683370190505b5090505f5b8751811015612c855760e65488516001600160a01b0390911690899083908110612ab457612ab461434b565b60200260200101516001600160a01b031603612b7857612b55888281518110612adf57612adf61434b565b602090810291909101015160d3546040516370a0823160e01b81526001600160a01b0391821660048201529116906370a0823190602401602060405180830381865afa158015612b31573d5f803e3d5ffd5b505050506040513d601f19601f820116820180604052508101906109a191906142ea565b828281518110612b6757612b6761434b565b602002602001018181525050612c7d565b5f612c52898381518110612b8e57612b8e61434b565b602002602001015160e65f9054906101000a90046001600160a01b03168b8581518110612bbd57612bbd61434b565b602090810291909101015160d3546040516370a0823160e01b81526001600160a01b0391821660048201529116906370a0823190602401602060405180830381865afa158015612c0f573d5f803e3d5ffd5b505050506040513d601f19601f82011682018060405250810190612c3391906142ea565b8b8681518110612c4557612c4561434b565b60200260200101516114cc565b9050612c5d81611487565b838381518110612c6f57612c6f61434b565b602002602001018181525050505b600101612a88565b50604080515f80825260208201835291612cac916002918b91908a90879089908401614844565b6040516020818303038152906040529050612cca85858360016111e1565b505050505050505050565b612d026040518060a001604052805f81526020015f81526020015f81526020015f81526020015f81525090565b815151815261010082015180515f90612d1d57612d1d61434b565b6020026020010151816020018181525050816101000151600181518110612d4657612d4661434b565b6020026020010151816040018181525050816101000151600281518110612d6f57612d6f61434b565b60200260200101518160800181815250505f612dac82845f015185602001518660400151876060015188608001518960c001518a60e0015161340a565b60e65460a0850180516001600160401b039081165f90815260e8602081815260408084205486518616855260e9835281852096519095168452918152818320546001600160a01b03908116845294905281205494955093612e1c93831692909116908590309062ffffff16610fa9565b6040805160018082528183019092529192505f9190816020015b604080518082019091525f8082526020820152815260200190600190039081612e3657505060a08601516001600160401b03165f90815260e8602052604081205482519293506001600160a01b031691839190612e9557612e9561434b565b60200260200101515f01906001600160a01b031690816001600160a01b03168152505081815f81518110612ecb57612ecb61434b565b602090810291909101810151810191909152604080515f808252818401835288519389015160e08a015192949193612f0d936003939291879081908101614844565b6040516020818303038152906040529050612f348760a00151828960c00151866001612ff9565b5050505050505050565b60a081015160e65460c083015160d3545f93612f6d9390926001600160a01b0391821692909116610bb8610fa9565b9050612f96825f015183602001518460400151856060015186608001518688610140015161377c565b604080515f80825260208201818152828401909352610120850151919291612fca9060049084908190878060608101614844565b6040516020818303038152906040529050612ff18560e001518661010001518360016111e1565b505050505050565b815160d0545f9190600160a01b900461ffff168111156130815760405162461bcd60e51b815260206004820152603760248201527f4d6178696d756d203520646966666572656e7420746f6b656e732063616e206260448201527f652073656e74207065722043434950204d6573736167650000000000000000006064820152608401610b9e565b5f5b818110156131a05760d05485516001600160a01b03909116908690839081106130ae576130ae61434b565b60200260200101515f01516001600160a01b031614613198578481815181106130d9576130d961434b565b60200260200101515f01516001600160a01b031663095ea7b35f60029054906101000a90046001600160a01b03168784815181106131195761311961434b565b6020026020010151602001516040518363ffffffff1660e01b81526004016131569291906001600160a01b03929092168252602082015260400190565b6020604051808303815f875af1158015613172573d5f803e3d5ffd5b505050506040513d601f19601f820116820180604052508101906131969190613f76565b505b600101613083565b506040805160a081019091526001600160a01b03861660c08201525f908060e0810160408051601f19818403018152918152908252602082018a9052810187905260600160018660018111156131f8576131f8614203565b14613203575f613210565b60d0546001600160a01b03165b6001600160a01b031681526020016132386040518060200160405280620dbba0815250611c14565b90525f80546040516320487ded60e01b81529293509091620100009091046001600160a01b0316906320487ded90613276908c908690600401614217565b602060405180830381865afa158015613291573d5f803e3d5ffd5b505050506040513d601f19601f820116820180604052508101906132b591906142ea565b90505f60018660018111156132cc576132cc614203565b0361334e575f546040516396f4e9f960e01b8152620100009091046001600160a01b0316906396f4e9f990613307908d908790600401614217565b6020604051808303815f875af1158015613323573d5f803e3d5ffd5b505050506040513d601f19601f8201168201806040525081019061334791906142ea565b90506133ca565b5f546040516396f4e9f960e01b8152620100009091046001600160a01b0316906396f4e9f9908490613386908e908890600401614217565b60206040518083038185885af11580156133a2573d5f803e3d5ffd5b50505050506040513d601f19601f820116820180604052508101906133c791906142ea565b90505b6040518181527f54791b38f3859327992a1ca0590ad3c0f08feba98d1a4f56ab0dca74d203392a9060200160405180910390a19998505050505050505050565b5f6134576040518061014001604052805f81526020015f81526020015f81526020015f81526020015f81526020015f81526020015f81526020015f81526020015f81526020015f81525090565b60e65460d3546040516370a0823160e01b81526001600160a01b0391821660048201529116906370a0823190602401602060405180830381865afa1580156134a1573d5f803e3d5ffd5b505050506040513d601f19601f820116820180604052508101906134c591906142ea565b60a08201525f5b81518110156136175760e6548a515f916001600160a01b0316908c90849081106134f8576134f861434b565b60200260200101516001600160a01b031603613519575060a08201516135f9565b6135f68b838151811061352e5761352e61434b565b602002602001015160e65f9054906101000a90046001600160a01b03168d858151811061355d5761355d61434b565b602090810291909101015160d3546040516370a0823160e01b81526001600160a01b0391821660048201529116906370a0823190602401602060405180830381865afa1580156135af573d5f803e3d5ffd5b505050506040513d601f19601f820116820180604052508101906135d391906142ea565b60d3548d516001600160a01b03909116908e90889081106124af576124af61434b565b90505b808360600181815161360b9190614766565b905250506001016134cc565b50875160c082015260208a015160808b015161363c9068056bc75e2d63100000614315565b613646919061432c565b60e08201819052604082015160608301516136619190614315565b61366b919061432c565b6101008201819052606082015161368291906148ac565b6101208201525f5b8160c001518110156137695760e65489516001600160a01b03909116908a90839081106136b9576136b961434b565b60200260200101516001600160a01b031614613761575f61375e60e65f9054906101000a90046001600160a01b03168b84815181106136fa576136fa61434b565b602002602001015185604001518a86815181106137195761371961434b565b60200260200101518761010001516137319190614315565b61373b919061432c565b60d3548c516001600160a01b03909116908d90889081106124af576124af61434b565b50505b60010161368a565b5061012001519998505050505050505050565b6137af6040518060c001604052805f81526020015f81526020015f81526020015f81526020015f81526020015f81525090565b816001815181106137c2576137c261434b565b602090810291909101810151825288519082015260e65460d3546040516370a0823160e01b81526001600160a01b0391821660048201529116906370a0823190602401602060405180830381865afa158015613820573d5f803e3d5ffd5b505050506040513d601f19601f8201168201806040525081019061384491906142ea565b60408201525f606082018190525b8160200151811015613960575f8982815181106138715761387161434b565b602090810291909101015160e6549091505f906001600160a01b03908116908316036138a257506040830151613941565b60e65460d3546040516370a0823160e01b81526001600160a01b03918216600482015261393e92859290811691908316906370a0823190602401602060405180830381865afa1580156138f7573d5f803e3d5ffd5b505050506040513d601f19601f8201168201806040525081019061391b91906142ea565b60d3548d516001600160a01b03909116908e90899081106124af576124af61434b565b90505b80846060018181516139539190614766565b9052505050600101613852565b5060608101516139709084614766565b6080820152865160a08201525f5b8160a00151811015612cca575f88828151811061399d5761399d61434b565b602002602001015190505f8683815181106139ba576139ba61434b565b602090810291909101015160e6549091506001600160a01b03838116911614613a375760e654845160808601515f92613a34926001600160a01b0390911691869190613a07908790614315565b613a11919061432c565b60d3548d516001600160a01b03909116908e908a9081106124af576124af61434b565b50505b505060010161397e565b5f60208284031215613a51575f80fd5b81356001600160e01b031981168114610ec1575f80fd5b80356001600160401b0381168114613a7e575f80fd5b919050565b6001600160a01b0381168114611029575f80fd5b5f805f805f805f805f6101208a8c031215613ab0575f80fd5b613ab98a613a68565b985060208a0135613ac981613a83565b975060408a0135613ad981613a83565b965060608a0135613ae981613a83565b955060808a0135613af981613a83565b945060a08a0135613b0981613a83565b935060c08a0135613b1981613a83565b925060e08a0135613b2981613a83565b91506101008a0135613b3a81613a83565b809150509295985092959850929598565b5f60208284031215613b5b575f80fd5b610ec182613a68565b5f60208284031215613b74575f80fd5b8135610ec181613a83565b5f60208284031215613b8f575f80fd5b5035919050565b5f8060408385031215613ba7575f80fd5b613bb083613a68565b91506020830135613bc081613a83565b809150509250929050565b803562ffffff81168114613a7e575f80fd5b5f805f805f60a08688031215613bf1575f80fd5b8535613bfc81613a83565b94506020860135613c0c81613a83565b9350604086013592506060860135613c2381613a83565b9150613c3160808701613bcb565b90509295509295909350565b5f8060408385031215613c4e575f80fd5b823591506020830135613bc081613a83565b5f60208284031215613c70575f80fd5b81356001600160401b03811115613c85575f80fd5b820160a08185031215610ec1575f80fd5b5f81518084528060208401602086015e5f602082860101526020601f19601f83011685010191505092915050565b6001600160401b03861681526001600160a01b038516602082015260a0604082018190525f90613cf690830186613c96565b6001600160a01b0394909416606083015250608001529392505050565b602081525f610ec16020830184613c96565b634e487b7160e01b5f52604160045260245ffd5b604080519081016001600160401b0381118282101715613d5b57613d5b613d25565b60405290565b60405160a081016001600160401b0381118282101715613d5b57613d5b613d25565b604051601f8201601f191681016001600160401b0381118282101715613dab57613dab613d25565b604052919050565b5f82601f830112613dc2575f80fd5b81356001600160401b03811115613ddb57613ddb613d25565b613dee601f8201601f1916602001613d83565b818152846020838601011115613e02575f80fd5b816020850160208301375f918101602001919091529392505050565b5f805f8060808587031215613e31575f80fd5b613e3a85613a68565b93506020850135613e4a81613a83565b925060408501356001600160401b03811115613e64575f80fd5b613e7087828801613db3565b925050606085013560028110613e84575f80fd5b939692955090935050565b5f805f8060808587031215613ea2575f80fd5b8435613ead81613a83565b93506020850135613ebd81613a83565b925060408501359150613ed260608601613bcb565b905092959194509250565b5f805f8060808587031215613ef0575f80fd5b8435613efb81613a83565b93506020850135613f0b81613a83565b925060408501356001600160801b0381168114613f26575f80fd5b9150613ed260608601613bcb565b5f805f60608486031215613f46575f80fd5b613f4f84613a68565b92506020840135613f5f81613a83565b9150613f6d60408501613bcb565b90509250925092565b5f60208284031215613f86575f80fd5b81518015158114610ec1575f80fd5b805169ffffffffffffffffffff81168114613a7e575f80fd5b5f805f805f60a08688031215613fc2575f80fd5b613fcb86613f95565b60208701516040880151606089015192975090955093509150613c3160808701613f95565b5f60208284031215614000575f80fd5b815160ff81168114610ec1575f80fd5b5f6001600160401b0382111561402857614028613d25565b5060051b60200190565b5f82601f830112614041575f80fd5b813561405461404f82614010565b613d83565b8082825260208201915060208360061b860101925085831115614075575f80fd5b602085015b838110156140c05760408188031215614091575f80fd5b614099613d39565b81356140a481613a83565b815260208281013581830152908452929092019160400161407a565b5095945050505050565b5f60a082360312156140da575f80fd5b6140e2613d61565b823581526140f260208401613a68565b602082015260408301356001600160401b0381111561410f575f80fd5b61411b36828601613db3565b60408301525060608301356001600160401b03811115614139575f80fd5b61414536828601613db3565b60608301525060808301356001600160401b03811115614163575f80fd5b61416f36828601614032565b60808301525092915050565b600181811c9082168061418f57607f821691505b6020821081036141ad57634e487b7160e01b5f52602260045260245ffd5b50919050565b60208082526030908201527f50726f706f7361626c654f776e61626c653a206e6577206f776e65722069732060408201526f746865207a65726f206164647265737360801b606082015260800190565b634e487b7160e01b5f52602160045260245ffd5b6001600160401b0383168152604060208201525f825160a0604084015261424160e0840182613c96565b90506020840151603f1984830301606085015261425e8282613c96565b6040860151858203603f190160808701528051808352602091820194505f93509101905b808310156142b957835180516001600160a01b03168352602090810151818401529093019260019290920191604090910190614282565b5060608601516001600160a01b031660a08601526080860151858203603f190160c087015292506119fe8184613c96565b5f602082840312156142fa575f80fd5b5051919050565b634e487b7160e01b5f52601160045260245ffd5b8082028115828204841417610b0257610b02614301565b5f8261434657634e487b7160e01b5f52601260045260245ffd5b500490565b634e487b7160e01b5f52603260045260245ffd5b5f8151808452602084019350602083015f5b828110156143985781516001600160a01b0316865260209586019590910190600101614371565b5093949350505050565b828152604060208201525f61147f604083018461435f565b5f82601f8301126143c9575f80fd5b81516143d761404f82614010565b8082825260208201915060208360051b8601019250858311156143f8575f80fd5b602085015b838110156140c05780518352602092830192016143fd565b5f60208284031215614425575f80fd5b81516001600160401b0381111561443a575f80fd5b61147f848285016143ba565b6020808252602b908201527f496e697469616c697a61626c653a20636f6e7472616374206973206e6f74206960408201526a6e697469616c697a696e6760a81b606082015260800190565b60ff8281168282160390811115610b0257610b02614301565b6001815b60018411156144e5578085048111156144c9576144c9614301565b60018416156144d757908102905b60019390931c9280026144ae565b935093915050565b5f826144fb57506001610b02565b8161450757505f610b02565b816001811461451d576002811461452757614543565b6001915050610b02565b60ff84111561453857614538614301565b50506001821b610b02565b5060208310610133831016604e8410600b8410161715614566575081810a610b02565b6145725f1984846144aa565b805f190482111561458557614585614301565b029392505050565b5f610ec160ff8416836144ed565b8082025f8212600160ff1b841416156145b6576145b6614301565b8181058314821517610b0257610b02614301565b5f602082840312156145da575f80fd5b8151610ec181613a83565b5f82601f8301126145f4575f80fd5b815161460261404f82614010565b8082825260208201915060208360051b860101925085831115614623575f80fd5b602085015b838110156140c057805161463b81613a83565b835260209283019201614628565b5f805f805f805f80610100898b031215614661575f80fd5b885160208a01519098506001600160401b0381111561467e575f80fd5b61468a8b828c016145e5565b97505060408901516001600160401b038111156146a5575f80fd5b6146b18b828c016145e5565b96505060608901516001600160401b038111156146cc575f80fd5b6146d88b828c016143ba565b95505060808901516001600160401b038111156146f3575f80fd5b6146ff8b828c016143ba565b60a08b015160c08c0151919650945090506001600160401b03811115614723575f80fd5b61472f8b828c016143ba565b92505060e08901516001600160401b0381111561474a575f80fd5b6147568b828c016143ba565b9150509295985092959890939650565b80820180821115610b0257610b02614301565b81516001600160a01b03908116825260208084015182169083015260408084015162ffffff169083015260608084015191821690830152610100820190506080830151608083015260a083015160a083015260c083015160c083015260e08301516147ef60e08401826001600160a01b03169052565b5092915050565b85815284602082015260a060408201525f613cf660a083018661435f565b5f8151808452602084019350602083015f5b82811015614398578151865260209586019590910190600101614826565b60ff8716815260c060208201525f61485f60c083018861435f565b8281036040840152614871818861435f565b9050856060840152828103608084015261488b8186614814565b905082810360a084015261489f8185614814565b9998505050505050505050565b81810381811115610b0257610b0261430156fea26469706673582212206682e22451da3380c90ba1564a346e70450dde2c8bf630e304e4235f5ffcf1c164736f6c634300081a0033","linkReferences":{}},"methodIdentifiers":{"ccipReceive((bytes32,uint64,bytes,bytes,(address,uint256)[]))":"85572ffb","convertEthToUsd(uint256)":"c086381e","crossChainToken(uint64)":"19da7e2a","crossChainTokenSwapFee(uint64,address)":"652354ae","currentChainSelector()":"3d54cb6f","estimateAmountOut(address,address,uint128,uint24)":"ee7bd3e2","factoryV3()":"1d5f45f5","fee()":"ddca3f43","feeRate()":"978bbdb9","feeRatePerDayScaled()":"2fecd589","feeReceiver()":"b3f00674","feeTimestamp()":"184a732f","getAmountOut(address,address,uint256,uint24)":"dd811ac9","getPendingRequest(bytes32)":"88b12d55","getRouter()":"b0f479a1","i_link()":"7d253aff","i_maxTokensLength()":"5b6a0351","initialize(uint64,address,address,address,address,address,address,address,address)":"17c27b76","isRestricted(address)":"c01bc982","issuanceCompletedTokensCount(uint256)":"94037369","issuanceMessageIdByNonce(uint256)":"9121c717","issuanceTokenOldAndNewValues(uint256,address)":"81b15279","latestFeeUpdate()":"011ced5f","messageDetail(bytes32)":"9c3ddb2e","methodologist()":"9f8e67bf","methodology()":"9eeb1d50","minter()":"07546172","oraclePayment()":"0c02e130","owner()":"8da5cb5b","pause()":"8456cb59","paused()":"5c975abb","priceInWei()":"3c8da588","priceOracle()":"2630c12f","proposeOwner(address)":"b5ed298a","proposedOwner()":"d153b60c","quoter()":"c6bbd5a7","receivedMessages(uint256)":"d030366c","redemptionMessageIdByNonce(uint256)":"306b3a28","renounceOwnership()":"715018a6","sendMessage(uint64,address,bytes,uint8)":"bcab90b3","setCcipRouter(address)":"27bf9b44","setCrossChainToken(uint64,address,uint24)":"f0cd5b72","setPriceOracle(address)":"530e784f","setVault(address)":"6817031b","sourceChainSelectorF()":"ff5474f0","supplyCeiling()":"2b52684d","supportsInterface(bytes4)":"01ffc9a7","swap(address,address,uint256,address,uint24)":"7e79f512","swapRouterV2()":"744fbc7a","swapRouterV3()":"b631e80b","toUsdPriceFeed()":"63973fda","transferOwnership(address)":"f2fde38b","unpause()":"3f4ba83a","vault()":"fbfa77cf","weth()":"3fc8cef3"},"id":48}