{"abi":[{"type":"receive","stateMutability":"payable"},{"type":"function","name":"ccipReceive","inputs":[{"name":"message","type":"tuple","internalType":"struct Client.Any2EVMMessage","components":[{"name":"messageId","type":"bytes32","internalType":"bytes32"},{"name":"sourceChainSelector","type":"uint64","internalType":"uint64"},{"name":"sender","type":"bytes","internalType":"bytes"},{"name":"data","type":"bytes","internalType":"bytes"},{"name":"destTokenAmounts","type":"tuple[]","internalType":"struct Client.EVMTokenAmount[]","components":[{"name":"token","type":"address","internalType":"address"},{"name":"amount","type":"uint256","internalType":"uint256"}]}]}],"outputs":[],"stateMutability":"nonpayable"},{"type":"function","name":"convertEthToUsd","inputs":[{"name":"_ethAmount","type":"uint256","internalType":"uint256"}],"outputs":[{"name":"","type":"uint256","internalType":"uint256"}],"stateMutability":"view"},{"type":"function","name":"crossChainToken","inputs":[{"name":"","type":"uint64","internalType":"uint64"}],"outputs":[{"name":"","type":"address","internalType":"address"}],"stateMutability":"view"},{"type":"function","name":"crossChainTokenSwapVersion","inputs":[{"name":"","type":"uint64","internalType":"uint64"},{"name":"","type":"address","internalType":"address"}],"outputs":[{"name":"","type":"uint256","internalType":"uint256"}],"stateMutability":"view"},{"type":"function","name":"crossChainVault","inputs":[],"outputs":[{"name":"","type":"address","internalType":"contract CrossChainVault"}],"stateMutability":"view"},{"type":"function","name":"currentChainSelector","inputs":[],"outputs":[{"name":"","type":"uint64","internalType":"uint64"}],"stateMutability":"view"},{"type":"function","name":"estimateAmountOut","inputs":[{"name":"tokenIn","type":"address","internalType":"address"},{"name":"tokenOut","type":"address","internalType":"address"},{"name":"amountIn","type":"uint128","internalType":"uint128"},{"name":"secondsAgo","type":"uint32","internalType":"uint32"}],"outputs":[{"name":"amountOut","type":"uint256","internalType":"uint256"}],"stateMutability":"view"},{"type":"function","name":"factoryV2","inputs":[],"outputs":[{"name":"","type":"address","internalType":"contract IUniswapV2Factory"}],"stateMutability":"view"},{"type":"function","name":"factoryV3","inputs":[],"outputs":[{"name":"","type":"address","internalType":"contract IUniswapV3Factory"}],"stateMutability":"view"},{"type":"function","name":"fee","inputs":[],"outputs":[{"name":"","type":"uint256","internalType":"uint256"}],"stateMutability":"view"},{"type":"function","name":"feeRate","inputs":[],"outputs":[{"name":"","type":"uint8","internalType":"uint8"}],"stateMutability":"view"},{"type":"function","name":"feeRatePerDayScaled","inputs":[],"outputs":[{"name":"","type":"uint256","internalType":"uint256"}],"stateMutability":"view"},{"type":"function","name":"feeReceiver","inputs":[],"outputs":[{"name":"","type":"address","internalType":"address"}],"stateMutability":"view"},{"type":"function","name":"feeTimestamp","inputs":[],"outputs":[{"name":"","type":"uint256","internalType":"uint256"}],"stateMutability":"view"},{"type":"function","name":"getAmountOut","inputs":[{"name":"tokenIn","type":"address","internalType":"address"},{"name":"tokenOut","type":"address","internalType":"address"},{"name":"amountIn","type":"uint256","internalType":"uint256"},{"name":"_swapVersion","type":"uint256","internalType":"uint256"}],"outputs":[{"name":"finalAmountOut","type":"uint256","internalType":"uint256"}],"stateMutability":"view"},{"type":"function","name":"getRouter","inputs":[],"outputs":[{"name":"","type":"address","internalType":"address"}],"stateMutability":"view"},{"type":"function","name":"i_link","inputs":[],"outputs":[{"name":"","type":"address","internalType":"address"}],"stateMutability":"view"},{"type":"function","name":"i_maxTokensLength","inputs":[],"outputs":[{"name":"","type":"uint16","internalType":"uint16"}],"stateMutability":"view"},{"type":"function","name":"initialize","inputs":[{"name":"_currentChainSelector","type":"uint64","internalType":"uint64"},{"name":"_crossChainVault","type":"address","internalType":"address payable"},{"name":"_chainlinkToken","type":"address","internalType":"address"},{"name":"_router","type":"address","internalType":"address"},{"name":"_weth","type":"address","internalType":"address"},{"name":"_swapRouterV3","type":"address","internalType":"address"},{"name":"_factoryV3","type":"address","internalType":"address"},{"name":"_swapRouterV2","type":"address","internalType":"address"},{"name":"_factoryV2","type":"address","internalType":"address"},{"name":"_toUsdPriceFeed","type":"address","internalType":"address"}],"outputs":[],"stateMutability":"nonpayable"},{"type":"function","name":"isRestricted","inputs":[{"name":"","type":"address","internalType":"address"}],"outputs":[{"name":"","type":"bool","internalType":"bool"}],"stateMutability":"view"},{"type":"function","name":"issuanceCompletedTokensCount","inputs":[{"name":"","type":"uint256","internalType":"uint256"}],"outputs":[{"name":"","type":"uint256","internalType":"uint256"}],"stateMutability":"view"},{"type":"function","name":"issuanceMessageIdByNonce","inputs":[{"name":"","type":"uint256","internalType":"uint256"}],"outputs":[{"name":"","type":"bytes32","internalType":"bytes32"}],"stateMutability":"view"},{"type":"function","name":"issuanceTokenOldAndNewValues","inputs":[{"name":"","type":"uint256","internalType":"uint256"},{"name":"","type":"address","internalType":"address"}],"outputs":[{"name":"oldTokenValue","type":"uint256","internalType":"uint256"},{"name":"newTokenValue","type":"uint256","internalType":"uint256"}],"stateMutability":"view"},{"type":"function","name":"latestFeeUpdate","inputs":[],"outputs":[{"name":"","type":"uint256","internalType":"uint256"}],"stateMutability":"view"},{"type":"function","name":"messageDetail","inputs":[{"name":"","type":"bytes32","internalType":"bytes32"}],"outputs":[{"name":"sourceChainSelector","type":"uint64","internalType":"uint64"},{"name":"sender","type":"address","internalType":"address"},{"name":"message","type":"string","internalType":"string"},{"name":"token","type":"address","internalType":"address"},{"name":"amount","type":"uint256","internalType":"uint256"}],"stateMutability":"view"},{"type":"function","name":"methodologist","inputs":[],"outputs":[{"name":"","type":"address","internalType":"address"}],"stateMutability":"view"},{"type":"function","name":"methodology","inputs":[],"outputs":[{"name":"","type":"string","internalType":"string"}],"stateMutability":"view"},{"type":"function","name":"minter","inputs":[],"outputs":[{"name":"","type":"address","internalType":"address"}],"stateMutability":"view"},{"type":"function","name":"oraclePayment","inputs":[],"outputs":[{"name":"","type":"uint256","internalType":"uint256"}],"stateMutability":"view"},{"type":"function","name":"owner","inputs":[],"outputs":[{"name":"","type":"address","internalType":"address"}],"stateMutability":"view"},{"type":"function","name":"pause","inputs":[],"outputs":[],"stateMutability":"nonpayable"},{"type":"function","name":"paused","inputs":[],"outputs":[{"name":"","type":"bool","internalType":"bool"}],"stateMutability":"view"},{"type":"function","name":"priceInWei","inputs":[],"outputs":[{"name":"","type":"uint256","internalType":"uint256"}],"stateMutability":"view"},{"type":"function","name":"proposeOwner","inputs":[{"name":"_proposedOwner","type":"address","internalType":"address"}],"outputs":[],"stateMutability":"nonpayable"},{"type":"function","name":"proposedOwner","inputs":[],"outputs":[{"name":"","type":"address","internalType":"address"}],"stateMutability":"view"},{"type":"function","name":"quoter","inputs":[],"outputs":[{"name":"","type":"address","internalType":"contract IQuoter"}],"stateMutability":"view"},{"type":"function","name":"receivedMessages","inputs":[{"name":"","type":"uint256","internalType":"uint256"}],"outputs":[{"name":"","type":"bytes32","internalType":"bytes32"}],"stateMutability":"view"},{"type":"function","name":"redemptionMessageIdByNonce","inputs":[{"name":"","type":"uint256","internalType":"uint256"}],"outputs":[{"name":"","type":"bytes32","internalType":"bytes32"}],"stateMutability":"view"},{"type":"function","name":"renounceOwnership","inputs":[],"outputs":[],"stateMutability":"nonpayable"},{"type":"function","name":"sendMessage","inputs":[{"name":"destinationChainSelector","type":"uint64","internalType":"uint64"},{"name":"receiver","type":"address","internalType":"address"},{"name":"_data","type":"bytes","internalType":"bytes"},{"name":"payFeesIn","type":"uint8","internalType":"enum CrossChainIndexFactory.PayFeesIn"}],"outputs":[{"name":"","type":"bytes32","internalType":"bytes32"}],"stateMutability":"nonpayable"},{"type":"function","name":"setCcipRouter","inputs":[{"name":"_router","type":"address","internalType":"address"}],"outputs":[],"stateMutability":"nonpayable"},{"type":"function","name":"setCrossChainToken","inputs":[{"name":"_chainSelector","type":"uint64","internalType":"uint64"},{"name":"_crossChainToken","type":"address","internalType":"address"},{"name":"_swapVersion","type":"uint256","internalType":"uint256"}],"outputs":[],"stateMutability":"nonpayable"},{"type":"function","name":"setCrossChainVault","inputs":[{"name":"_crossChainVault","type":"address","internalType":"address payable"}],"outputs":[],"stateMutability":"nonpayable"},{"type":"function","name":"sourceChainSelectorF","inputs":[],"outputs":[{"name":"","type":"uint64","internalType":"uint64"}],"stateMutability":"view"},{"type":"function","name":"supplyCeiling","inputs":[],"outputs":[{"name":"","type":"uint256","internalType":"uint256"}],"stateMutability":"view"},{"type":"function","name":"supportsInterface","inputs":[{"name":"interfaceId","type":"bytes4","internalType":"bytes4"}],"outputs":[{"name":"","type":"bool","internalType":"bool"}],"stateMutability":"pure"},{"type":"function","name":"swap","inputs":[{"name":"tokenIn","type":"address","internalType":"address"},{"name":"tokenOut","type":"address","internalType":"address"},{"name":"amountIn","type":"uint256","internalType":"uint256"},{"name":"_recipient","type":"address","internalType":"address"},{"name":"_swapVersion","type":"uint256","internalType":"uint256"}],"outputs":[{"name":"","type":"uint256","internalType":"uint256"}],"stateMutability":"nonpayable"},{"type":"function","name":"swapRouterV2","inputs":[],"outputs":[{"name":"","type":"address","internalType":"contract IUniswapV2Router02"}],"stateMutability":"view"},{"type":"function","name":"swapRouterV3","inputs":[],"outputs":[{"name":"","type":"address","internalType":"contract ISwapRouter"}],"stateMutability":"view"},{"type":"function","name":"toUsdPriceFeed","inputs":[],"outputs":[{"name":"","type":"address","internalType":"contract AggregatorV3Interface"}],"stateMutability":"view"},{"type":"function","name":"transferOwnership","inputs":[{"name":"newOwner","type":"address","internalType":"address"}],"outputs":[],"stateMutability":"nonpayable"},{"type":"function","name":"unpause","inputs":[],"outputs":[],"stateMutability":"nonpayable"},{"type":"function","name":"weth","inputs":[],"outputs":[{"name":"","type":"address","internalType":"contract IWETH"}],"stateMutability":"view"},{"type":"event","name":"ChainlinkCancelled","inputs":[{"name":"id","type":"bytes32","indexed":true,"internalType":"bytes32"}],"anonymous":false},{"type":"event","name":"ChainlinkFulfilled","inputs":[{"name":"id","type":"bytes32","indexed":true,"internalType":"bytes32"}],"anonymous":false},{"type":"event","name":"ChainlinkRequested","inputs":[{"name":"id","type":"bytes32","indexed":true,"internalType":"bytes32"}],"anonymous":false},{"type":"event","name":"Initialized","inputs":[{"name":"version","type":"uint8","indexed":false,"internalType":"uint8"}],"anonymous":false},{"type":"event","name":"Issuanced","inputs":[{"name":"messageId","type":"bytes32","indexed":true,"internalType":"bytes32"},{"name":"nonce","type":"uint256","indexed":true,"internalType":"uint256"},{"name":"time","type":"uint256","indexed":false,"internalType":"uint256"}],"anonymous":false},{"type":"event","name":"MessageSent","inputs":[{"name":"messageId","type":"bytes32","indexed":false,"internalType":"bytes32"}],"anonymous":false},{"type":"event","name":"OwnershipTransferred","inputs":[{"name":"previousOwner","type":"address","indexed":true,"internalType":"address"},{"name":"newOwner","type":"address","indexed":true,"internalType":"address"}],"anonymous":false},{"type":"event","name":"Paused","inputs":[{"name":"account","type":"address","indexed":false,"internalType":"address"}],"anonymous":false},{"type":"event","name":"Redemption","inputs":[{"name":"messageId","type":"bytes32","indexed":true,"internalType":"bytes32"},{"name":"nonce","type":"uint256","indexed":true,"internalType":"uint256"},{"name":"time","type":"uint256","indexed":false,"internalType":"uint256"}],"anonymous":false},{"type":"event","name":"Unpaused","inputs":[{"name":"account","type":"address","indexed":false,"internalType":"address"}],"anonymous":false},{"type":"error","name":"InvalidRouter","inputs":[{"name":"router","type":"address","internalType":"address"}]},{"type":"error","name":"T","inputs":[]}],"bytecode":{"object":"0x608060405234801561001057600080fd5b506154f1806100206000396000f3fe60806040526004361061031e5760003560e01c8063715018a6116101ab578063b0f479a1116100f7578063c086381e11610095578063d153b60c1161006f578063d153b60c14610a08578063ddca3f4314610a28578063f2fde38b14610a3e578063ff5474f014610a5e57600080fd5b8063c086381e146109a8578063c6bbd5a7146109c8578063d030366c146109e857600080fd5b8063b631e80b116100d1578063b631e80b14610918578063bcab90b314610938578063bf938db814610958578063c01bc9821461097857600080fd5b8063b0f479a1146108b4578063b3f00674146108d8578063b5ed298a146108f857600080fd5b80638da5cb5b11610164578063978bbdb91161013e578063978bbdb9146108155780639c3ddb2e146108415780639eeb1d50146108725780639f8e67bf1461089457600080fd5b80638da5cb5b1461079d5780639121c717146107bb57806394037369146107e857600080fd5b8063715018a6146106bf578063744fbc7a146106d45780637d253aff146106f457806381b15279146107145780638456cb591461076857806385572ffb1461077d57600080fd5b80632b52684d1161026a5780633f4ba83a116102235780635c975abb116101fd5780635c975abb146106475780635f206b661461065f57806363973fda1461067f57806368e0d4e11461069f57600080fd5b80633f4ba83a146105dd5780633fc8cef3146105f25780635b6a03511461061257600080fd5b80632b52684d146105175780632fecd5891461052d578063306b3a28146105435780633c8da588146105705780633d13272b146105855780633d54cb6f146105a557600080fd5b806317d88f46116102d757806319da7e2a116102b157806319da7e2a146104815780631d5f45f5146104b75780632651e662146104d757806327bf9b44146104f757600080fd5b806317d88f4614610429578063184a732f14610449578063195c49131461045f57600080fd5b8063011ced5f1461032a57806301ffc9a71461035357806307546172146103835780630c02e130146103bb57806313cb1f83146103d1578063174cbe50146103f157600080fd5b3661032557005b600080fd5b34801561033657600080fd5b5061034060d65481565b6040519081526020015b60405180910390f35b34801561035f57600080fd5b5061037361036e3660046147ed565b610a7e565b604051901515815260200161034a565b34801561038f57600080fd5b5060dc546103a3906001600160a01b031681565b6040516001600160a01b03909116815260200161034a565b3480156103c757600080fd5b5061034060e05481565b3480156103dd57600080fd5b506103406103ec36600461464e565b610ab5565b3480156103fd57600080fd5b5061034061040c3660046149a5565b60e960209081526000928352604080842090915290825290205481565b34801561043557600080fd5b506103406104443660046145f3565b610c05565b34801561045557600080fd5b5061034060d95481565b34801561046b57600080fd5b5061047f61047a366004614b0a565b610f22565b005b34801561048d57600080fd5b506103a361049c36600461498a565b60e8602052600090815260409020546001600160a01b031681565b3480156104c357600080fd5b5060e3546103a3906001600160a01b031681565b3480156104e357600080fd5b5061047f6104f23660046149d1565b610f74565b34801561050357600080fd5b5061047f610512366004614548565b611224565b34801561052357600080fd5b5061034060de5481565b34801561053957600080fd5b5061034060d85481565b34801561054f57600080fd5b5061034061055e3660046147bb565b60ee6020526000908152604090205481565b34801561057c57600080fd5b50610340611256565b34801561059157600080fd5b5060d3546103a3906001600160a01b031681565b3480156105b157600080fd5b5060d7546105c5906001600160401b031681565b6040516001600160401b03909116815260200161034a565b3480156105e957600080fd5b5061047f611382565b3480156105fe57600080fd5b5060e6546103a3906001600160a01b031681565b34801561061e57600080fd5b5060d05461063490600160a01b900461ffff1681565b60405161ffff909116815260200161034a565b34801561065357600080fd5b50609e5460ff16610373565b34801561066b57600080fd5b5061047f61067a366004614548565b611394565b34801561068b57600080fd5b5060e1546103a3906001600160a01b031681565b3480156106ab57600080fd5b5060e5546103a3906001600160a01b031681565b3480156106cb57600080fd5b5061047f6113be565b3480156106e057600080fd5b5060e4546103a3906001600160a01b031681565b34801561070057600080fd5b5060d0546103a3906001600160a01b031681565b34801561072057600080fd5b5061075361072f366004614851565b60ec6020908152600092835260408084209091529082529020805460019091015482565b6040805192835260208301919091520161034a565b34801561077457600080fd5b5061047f6113d0565b34801561078957600080fd5b5061047f610798366004614817565b6113e0565b3480156107a957600080fd5b506039546001600160a01b03166103a3565b3480156107c757600080fd5b506103406107d63660046147bb565b60ef6020526000908152604090205481565b3480156107f457600080fd5b506103406108033660046147bb565b60ed6020526000908152604090205481565b34801561082157600080fd5b5060d55461082f9060ff1681565b60405160ff909116815260200161034a565b34801561084d57600080fd5b5061086161085c3660046147bb565b611427565b60405161034a959493929190614e33565b34801561087e57600080fd5b506108876114fe565b60405161034a9190614d30565b3480156108a057600080fd5b5060db546103a3906001600160a01b031681565b3480156108c057600080fd5b506000546201000090046001600160a01b03166103a3565b3480156108e457600080fd5b5060da546103a3906001600160a01b031681565b34801561090457600080fd5b5061047f610913366004614548565b61158c565b34801561092457600080fd5b5060e2546103a3906001600160a01b031681565b34801561094457600080fd5b50610340610953366004614a9f565b6115dc565b34801561096457600080fd5b50610340610973366004614582565b6118c6565b34801561098457600080fd5b50610373610993366004614548565b60df6020526000908152604090205460ff1681565b3480156109b457600080fd5b506103406109c33660046147bb565b61197f565b3480156109d457600080fd5b5060e7546103a3906001600160a01b031681565b3480156109f457600080fd5b50610340610a033660046147bb565b6119a6565b348015610a1457600080fd5b50606b546103a3906001600160a01b031681565b348015610a3457600080fd5b5061034060d45481565b348015610a4a57600080fd5b5061047f610a59366004614548565b6119c7565b348015610a6a57600080fd5b5060eb546105c5906001600160401b031681565b60006001600160e01b031982166385572ffb60e01b1480610aaf57506001600160e01b031982166301ffc9a760e01b145b92915050565b60008215610bfd578160031415610ada57610ad385858560016118c6565b9050610bfd565b6040805160028082526060820183526000926020830190803683370190505090508581600081518110610b0f57610b0f61547a565b60200260200101906001600160a01b031690816001600160a01b0316815250508481600181518110610b4357610b4361547a565b6001600160a01b03928316602091820292909201015260e45460405163d06ca61f60e01b8152600092919091169063d06ca61f90610b879088908690600401614dde565b60006040518083038186803b158015610b9f57600080fd5b505afa158015610bb3573d6000803e3d6000fd5b505050506040513d6000823e601f3d908101601f19168201604052610bdb9190810190614765565b905080600181518110610bf057610bf061547a565b6020026020010151925050505b949350505050565b60008160031415610daa5760e25460405163095ea7b360e01b81526001600160a01b039182166004820152602481018690529087169063095ea7b390604401602060405180830381600087803b158015610c5e57600080fd5b505af1158015610c72573d6000803e3d6000fd5b505050506040513d601f19601f82011682018060405250810190610c969190614799565b5060408051610100810182526001600160a01b03888116825287811660208301908152610bb883850190815287831660608501908152426080860190815260a086018b8152600060c0880181815260e0890182815260e2549a5163414bf38960e01b81528a518a166004820152975189166024890152955162ffffff166044880152935187166064870152915160848601525160a4850152905160c48401529051831660e483015292939091169063414bf3899061010401602060405180830381600087803b158015610d6857600080fd5b505af1158015610d7c573d6000803e3d6000fd5b505050506040513d601f19601f82011682018060405250810190610da091906147d4565b9250610f19915050565b6040805160028082526060820183526000926020830190803683370190505090508681600081518110610ddf57610ddf61547a565b60200260200101906001600160a01b031690816001600160a01b0316815250508581600181518110610e1357610e1361547a565b6001600160a01b03928316602091820292909201015260e45460405163095ea7b360e01b81529082166004820152602481018790529088169063095ea7b390604401602060405180830381600087803b158015610e6f57600080fd5b505af1158015610e83573d6000803e3d6000fd5b505050506040513d601f19601f82011682018060405250810190610ea79190614799565b5060e454604051635c11d79560e01b81526001600160a01b0390911690635c11d79590610ee190889060009086908a904290600401614df7565b600060405180830381600087803b158015610efb57600080fd5b505af1158015610f0f573d6000803e3d6000fd5b5050505060009150505b95945050505050565b610f2a611aec565b6001600160401b03909216600090815260e86020908152604080832080546001600160a01b039095166001600160a01b03199095168517905560e982528083209383529290522055565b600054610100900460ff1615808015610f945750600054600160ff909116105b80610fae5750303b158015610fae575060005460ff166001145b6110165760405162461bcd60e51b815260206004820152602e60248201527f496e697469616c697a61626c653a20636f6e747261637420697320616c72656160448201526d191e481a5b9a5d1a585b1a5e995960921b60648201526084015b60405180910390fd5b6000805460ff191660011790558015611039576000805461ff0019166101001790555b611041611b46565b611049611b75565b60d780546001600160401b038d1667ffffffffffffffff1990911617905560d380546001600160a01b038c166001600160a01b03199091161790556110ab89600380546001600160a01b039092166001600160a01b0319909216919091179055565b6000805462010000600160b01b031916620100006001600160a01b038b81168202929092179283905560d080548d84166001600160b01b03199091168117600560a01b1790915560405163095ea7b360e01b8152919093049091166004820152600019602482015263095ea7b390604401602060405180830381600087803b15801561113657600080fd5b505af115801561114a573d6000803e3d6000fd5b505050506040513d601f19601f8201168201806040525081019061116e9190614799565b5060e680546001600160a01b03199081166001600160a01b038a81169190911790925560e28054821689841617905560e38054821688841617905560e48054821687841617905560e58054821686841617905560e180549091169184169190911790558015611217576000805461ff0019169055604051600181527f7f26b83ff96e1f2b6a682f133852f6798a09c465da95921460cefb38474024989060200160405180910390a15b5050505050505050505050565b61122c611aec565b600080546001600160a01b03909216620100000262010000600160b01b0319909216919091179055565b60008060e160009054906101000a90046001600160a01b03166001600160a01b031663feaf968c6040518163ffffffff1660e01b815260040160a06040518083038186803b1580156112a757600080fd5b505afa1580156112bb573d6000803e3d6000fd5b505050506040513d601f19601f820116820180604052508101906112df9190614b49565b505050915050600060e160009054906101000a90046001600160a01b03166001600160a01b031663313ce5676040518163ffffffff1660e01b815260040160206040518083038186803b15801561133557600080fd5b505afa158015611349573d6000803e3d6000fd5b505050506040513d601f19601f8201168201806040525081019061136d9190614b99565b905061137b82826012611ba4565b9392505050565b61138a611aec565b611392611be4565b565b61139c611aec565b60d380546001600160a01b0319166001600160a01b0392909216919091179055565b6113c6611aec565b6113926000611c36565b6113d8611aec565b611392611c88565b6000546201000090046001600160a01b03163314611413576040516335fdcccd60e21b815233600482015260240161100d565b61142461141f826152f0565b611cc5565b50565b60d260205260009081526040902080546001820180546001600160401b03831693600160401b9093046001600160a01b0316929190611465906153c0565b80601f0160208091040260200160405190810160405280929190818152602001828054611491906153c0565b80156114de5780601f106114b3576101008083540402835291602001916114de565b820191906000526020600020905b8154815290600101906020018083116114c157829003601f168201915b50505050600283015460039093015491926001600160a01b031691905085565b60dd805461150b906153c0565b80601f0160208091040260200160405190810160405280929190818152602001828054611537906153c0565b80156115845780601f1061155957610100808354040283529160200191611584565b820191906000526020600020905b81548152906001019060200180831161156757829003601f168201915b505050505081565b611594611aec565b6001600160a01b0381166115ba5760405162461bcd60e51b815260040161100d90614d43565b606b80546001600160a01b0319166001600160a01b0392909216919091179055565b6040805160a081019091526001600160a01b03841660c082015260009081908060e0810160408051808303601f190181529181529082526020808301889052815160008082529181018352929091019190611659565b60408051808201909152600080825260208201528152602001906001900390816116325790505b508152602001600185600181111561167357611673615464565b1461167f57600061168c565b60d0546001600160a01b03165b6001600160a01b031681526020016116bd6040518060400160405280620dbba0815260200160001515815250611ea2565b9052600080546040516320487ded60e01b81529293509091620100009091046001600160a01b0316906320487ded906116fc908a908690600401614e77565b60206040518083038186803b15801561171457600080fd5b505afa158015611728573d6000803e3d6000fd5b505050506040513d601f19601f8201168201806040525081019061174c91906147d4565b90506000600185600181111561176457611764615464565b14156117fa576000546040516396f4e9f960e01b8152620100009091046001600160a01b0316906396f4e9f9906117a1908b908790600401614e77565b602060405180830381600087803b1580156117bb57600080fd5b505af11580156117cf573d6000803e3d6000fd5b505050506040513d601f19601f820116820180604052508101906117f391906147d4565b9050611888565b6000546040516396f4e9f960e01b8152620100009091046001600160a01b0316906396f4e9f9908490611833908c908890600401614e77565b6020604051808303818588803b15801561184c57600080fd5b505af1158015611860573d6000803e3d6000fd5b50505050506040513d601f19601f8201168201806040525081019061188591906147d4565b90505b6040518181527f54791b38f3859327992a1ca0590ad3c0f08feba98d1a4f56ab0dca74d203392a9060200160405180910390a1979650505050505050565b60e354604051630b4c774160e11b81526001600160a01b0386811660048301528581166024830152610bb860448301526000928392911690631698ee829060640160206040518083038186803b15801561191f57600080fd5b505afa158015611933573d6000803e3d6000fd5b505050506040513d601f19601f820116820180604052508101906119579190614565565b905060006119658285611eec565b50905061197481868989612142565b979650505050505050565b6000670de0b6b3a7640000611992611256565b61199c908461521f565b610aaf9190615069565b60d181815481106119b657600080fd5b600091825260209091200154905081565b6001600160a01b0381166119ed5760405162461bcd60e51b815260040161100d90614d43565b606b546001600160a01b03828116911614611a655760405162461bcd60e51b815260206004820152603260248201527f50726f706f7361626c654f776e61626c653a206e6577206f776e6572206973206044820152713737ba10383937b837b9b2b21037bbb732b960711b606482015260840161100d565b6001600160a01b0381163314611ae35760405162461bcd60e51b815260206004820152603a60248201527f50726f706f7361626c654f776e61626c653a20746869732063616c6c206d757360448201527f74206265206d61646520627920746865206e6577206f776e6572000000000000606482015260840161100d565b61142481611c36565b6039546001600160a01b031633146113925760405162461bcd60e51b815260206004820181905260248201527f4f776e61626c653a2063616c6c6572206973206e6f7420746865206f776e6572604482015260640161100d565b600054610100900460ff16611b6d5760405162461bcd60e51b815260040161100d90614d93565b611392612247565b600054610100900460ff16611b9c5760405162461bcd60e51b815260040161100d90614d93565b611392612277565b60008260ff168260ff161115611bda57611bbe83836152cd565b611bc990600a6150c0565b611bd3908561516b565b905061137b565b611bbe82846152cd565b611bec6122aa565b609e805460ff191690557f5db9ee0a495bf2e6ff9c91a7834c1ba4fdd244a5e8aa4e537bd38aeae4b073aa335b6040516001600160a01b03909116815260200160405180910390a1565b603980546001600160a01b038381166001600160a01b0319831681179093556040519116919082907f8be0079c531659141344cd1fd0a4f28419497f9722a3daafe3b4186f6b6457e090600090a35050565b611c906122f3565b609e805460ff191660011790557f62e78cea01bee320cd4e420270b5ea74000d11b0c9f74754ebdbfc544b05a258611c193390565b60008160200151905060008260400151806020019051810190611ce89190614565565b90506000806000806000806000808a60600151806020019051810190611d0e9190614881565b975097509750975097509750975097508760001415611d425760808b0151611d3c818988878f8f8989612339565b50611217565b8760011415611d5e57611d598786858d8d86612903565b611217565b8760021415611d7457611d598786858d8d612cb9565b8760031415611dd757611d596040518061012001604052808981526020018881526020018781526020018681526020018481526020018c6001600160401b031681526020018b6001600160a01b0316815260200185815260200183815250612f92565b87600414156112175760008b608001519050611e946040518061016001604052808a815260200189815260200188815260200187815260200185815260200183600081518110611e2957611e2961547a565b6020026020010151600001516001600160a01b0316815260200183600081518110611e5657611e5661547a565b60200260200101516020015181526020018d6001600160401b031681526020018c6001600160a01b0316815260200186815260200184815250613205565b505050505050505050505050565b6040805182516024820152602092830151151560448083019190915282518083039091018152606490910190915290810180516001600160e01b03166397a657c960e01b17905290565b60008063ffffffff8316611f275760405162461bcd60e51b8152602060048201526002602482015261042560f41b604482015260640161100d565b6040805160028082526060820183526000926020830190803683370190505090508381600081518110611f5c57611f5c61547a565b602002602001019063ffffffff16908163ffffffff1681525050600081600181518110611f8b57611f8b61547a565b602002602001019063ffffffff16908163ffffffff1681525050600080866001600160a01b031663883bdbfd846040518263ffffffff1660e01b8152600401611fd49190614c7d565b60006040518083038186803b158015611fec57600080fd5b505afa158015612000573d6000803e3d6000fd5b505050506040513d6000823e601f3d908101601f191682016040526120289190810190614694565b915091506000826000815181106120415761204161547a565b60200260200101518360018151811061205c5761205c61547a565b602002602001015161206e919061523e565b90506000826000815181106120855761208561547a565b6020026020010151836001815181106120a0576120a061547a565b60200260200101516120b2919061528e565b90506120c463ffffffff891683615005565b965060008260060b1280156120ea57506120e463ffffffff891683615416565b60060b15155b156120fd57866120f98161539c565b9750505b60006121166001600160a01b0363ffffffff8b166151f0565b9050612133640100000000600160c01b03602084901b1682615043565b96505050505050509250929050565b60008061214e866132c2565b90506001600160801b036001600160a01b038216116121d457600061217c6001600160a01b0383168061521f565b9050836001600160a01b0316856001600160a01b0316106121b4576121af600160c01b876001600160801b0316836135e2565b6121cc565b6121cc81876001600160801b0316600160c01b6135e2565b92505061223e565b60006121ee6001600160a01b03831680600160401b6135e2565b9050836001600160a01b0316856001600160a01b03161061222657612221600160801b876001600160801b0316836135e2565b611974565b61197481876001600160801b0316600160801b6135e2565b50949350505050565b600054610100900460ff1661226e5760405162461bcd60e51b815260040161100d90614d93565b61139233611c36565b600054610100900460ff1661229e5760405162461bcd60e51b815260040161100d90614d93565b609e805460ff19169055565b609e5460ff166113925760405162461bcd60e51b815260206004820152601460248201527314185d5cd8589b194e881b9bdd081c185d5cd95960621b604482015260640161100d565b609e5460ff16156113925760405162461bcd60e51b815260206004820152601060248201526f14185d5cd8589b194e881c185d5cd95960821b604482015260640161100d565b6123646040518060800160405280600081526020016060815260200160608152602001606081525090565b61243d8960008151811061237a5761237a61547a565b60200260200101516000015160e660009054906101000a90046001600160a01b03168b6000815181106123af576123af61547a565b60200260200101516020015160d360009054906101000a90046001600160a01b031660e960008b6001600160401b03166001600160401b0316815260200190815260200160002060008f60008151811061240b5761240b61547a565b6020026020010151600001516001600160a01b03166001600160a01b0316815260200190815260200160002054610c05565b815287516001600160401b0381111561245857612458615490565b604051908082528060200260200182016040528015612481578160200160208202803683370190505b50602082015287516001600160401b038111156124a0576124a0615490565b6040519080825280602002602001820160405280156124c9578160200160208202803683370190505b50604082015260005b885181101561284e576000836000815181106124f0576124f061547a565b602002602001015185838151811061250a5761250a61547a565b60200260200101518460000151612521919061521f565b61252b9190615069565b60e6548b519192506000916001600160a01b03909116908c90859081106125545761255461547a565b60200260200101516001600160a01b03161415612694578a838151811061257d5761257d61547a565b602090810291909101015160d3546040516370a0823160e01b81526001600160a01b0391821660048201529116906370a082319060240160206040518083038186803b1580156125cc57600080fd5b505afa1580156125e0573d6000803e3d6000fd5b505050506040513d601f19601f8201168201806040525081019061260491906147d4565b60e65460d35460405163a9059cbb60e01b81526001600160a01b03918216600482015260248101869052929350169063a9059cbb90604401602060405180830381600087803b15801561265657600080fd5b505af115801561266a573d6000803e3d6000fd5b505050506040513d601f19601f8201168201806040525081019061268e9190614799565b506127d4565b6127678b84815181106126a9576126a961547a565b602002602001015160e660009054906101000a90046001600160a01b03168d86815181106126d9576126d961547a565b602090810291909101015160d3546040516370a0823160e01b81526001600160a01b0391821660048201529116906370a082319060240160206040518083038186803b15801561272857600080fd5b505afa15801561273c573d6000803e3d6000fd5b505050506040513d601f19601f8201168201806040525081019061276091906147d4565b6003610ab5565b90506127d260e660009054906101000a90046001600160a01b03168c85815181106127945761279461547a565b60200260200101518460d360009054906101000a90046001600160a01b03168e88815181106127c5576127c561547a565b6020026020010151613695565b505b60006127e08383614fed565b90506127eb8261197f565b856020015185815181106128015761280161547a565b6020026020010181815250506128168161197f565b8560400151858151811061282c5761282c61547a565b6020026020010181815250505050508080612846906153fb565b9150506124d2565b50604080516000808252602080830184528401518484015161287b9492938d9390928c9290918401614cc7565b604051602081830303815290604052816060018190525060006128a58686846060015160016115dc565b600088815260ef60205260409081902082905551909150879082907f7513d57665f5bbb438203d2f2a896f1f0791e1e8cd0e2d76d7bc421bfb4f49aa906128ef9042815260200190565b60405180910390a350505050505050505050565b6000805b8751811015612afc576000670de0b6b3a764000089838151811061292d5761292d61547a565b602090810291909101015160d3546040516370a0823160e01b81526001600160a01b0391821660048201529116906370a082319060240160206040518083038186803b15801561297c57600080fd5b505afa158015612990573d6000803e3d6000fd5b505050506040513d601f19601f820116820180604052508101906129b491906147d4565b856000815181106129c7576129c761547a565b60200260200101516129d9919061521f565b6129e39190615069565b60e6548a519192506001600160a01b0316908a9084908110612a0757612a0761547a565b60200260200101516001600160a01b03161415612a955760d3546040516377524af960e01b8152306004820152602481018390526001600160a01b03909116906377524af990604401600060405180830381600087803b158015612a6a57600080fd5b505af1158015612a7e573d6000803e3d6000fd5b505050508083612a8e9190614fed565b9250612ae9565b612adc898381518110612aaa57612aaa61547a565b602002602001015160e660009054906101000a90046001600160a01b031683308c87815181106127c5576127c561547a565b612ae69084614fed565b92505b5080612af4816153fb565b915050612907565b5060e6546001600160401b038516600090815260e8602090815260408083205460e983528184206001600160a01b039182168086529352908320549293612b4a939116919085903090610c05565b60408051600180825281830190925291925060009190816020015b6040805180820190915260008082526020820152815260200190600190039081612b655750506001600160401b038716600090815260e8602052604081205482519293506001600160a01b031691839190612bc257612bc261547a565b6020026020010151600001906001600160a01b031690816001600160a01b0316815250508181600081518110612bfa57612bfa61547a565b6020908102919091018101518101919091526040805160008082529281018381528183019092529190612c38906001908d908c868060608101614cc7565b60405160208183030381529060405290506000612c5989838a8760016137fc565b60008b815260ee602052604090819020829055519091508a9082907f2c80cd3884ced9a087f5eed6c8ddd78af4b449cdea210b92786f35bd496f534390612ca39042815260200190565b60405180910390a3505050505050505050505050565b604080516000808252602082019092529050600086516001600160401b03811115612ce657612ce6615490565b604051908082528060200260200182016040528015612d0f578160200160208202803683370190505b50905060005b8751811015612f415760e65488516001600160a01b0390911690899083908110612d4157612d4161547a565b60200260200101516001600160a01b03161415612e1757612df4888281518110612d6d57612d6d61547a565b602090810291909101015160d3546040516370a0823160e01b81526001600160a01b0391821660048201529116906370a082319060240160206040518083038186803b158015612dbc57600080fd5b505afa158015612dd0573d6000803e3d6000fd5b505050506040513d601f19601f820116820180604052508101906109c391906147d4565b828281518110612e0657612e0661547a565b602002602001018181525050612f2f565b6000612f04898381518110612e2e57612e2e61547a565b602002602001015160e660009054906101000a90046001600160a01b03168b8581518110612e5e57612e5e61547a565b602090810291909101015160d3546040516370a0823160e01b81526001600160a01b0391821660048201529116906370a082319060240160206040518083038186803b158015612ead57600080fd5b505afa158015612ec1573d6000803e3d6000fd5b505050506040513d601f19601f82011682018060405250810190612ee591906147d4565b8b8681518110612ef757612ef761547a565b6020026020010151610ab5565b9050612f0f8161197f565b838381518110612f2157612f2161547a565b602002602001018181525050505b80612f39816153fb565b915050612d15565b5060408051600080825260208201835291612f69916002918b91908a90879089908401614cc7565b6040516020818303038152906040529050612f8785858360016115dc565b505050505050505050565b612fc46040518060a0016040528060008152602001600081526020016000815260200160008152602001600081525090565b81515181526101008201518051600090612fe057612fe061547a565b60200260200101518160200181815250508161010001516001815181106130095761300961547a565b60200260200101518160400181815250508161010001516002815181106130325761303261547a565b6020026020010151816080018181525050600061307182846000015185602001518660400151876060015188608001518960c001518a60e00151613c68565b60e65460a0850180516001600160401b03908116600090815260e8602081815260408084205486518616855260e9835281852096519095168452918152818320546001600160a01b039081168452949052812054949550936130dd938316929091169085903090610c05565b60408051600180825281830190925291925060009190816020015b60408051808201909152600080825260208201528152602001906001900390816130f857505060a08601516001600160401b0316600090815260e8602052604081205482519293506001600160a01b0316918391906131595761315961547a565b6020026020010151600001906001600160a01b031690816001600160a01b03168152505081816000815181106131915761319161547a565b602090810291909101810151810191909152604080516000808252818401835288519389015160e08a0151929491936131d4936003939291879081908101614cc7565b60405160208183030381529060405290506131fb8760a00151828960c001518660016137fc565b5050505050505050565b60a081015160e65460c083015160d3546000936132349390926001600160a01b03918216929091166003610c05565b905061325e8260000151836020015184604001518560600151866080015186886101400151614023565b604080516000808252602082018181528284019093526101208501519192916132939060049084908190878060608101614cc7565b60405160208183030381529060405290506132ba8560e001518661010001518360016115dc565b505050505050565b60008060008360020b126132d9578260020b6132e1565b8260020b6000035b9050620d89e8811115613307576040516315e4079d60e11b815260040160405180910390fd5b60006001821661331b57600160801b61332d565b6ffffcb933bd6fad37aa2d162d1a5940015b70ffffffffffffffffffffffffffffffffff1690506002821615613361576ffff97272373d413259a46990580e213a0260801c5b6004821615613380576ffff2e50f5f656932ef12357cf3c7fdcc0260801c5b600882161561339f576fffe5caca7e10e4e61c3624eaa0941cd00260801c5b60108216156133be576fffcb9843d60f6159c9db58835c9266440260801c5b60208216156133dd576fff973b41fa98c081472e6896dfb254c00260801c5b60408216156133fc576fff2ea16466c96a3843ec78b326b528610260801c5b608082161561341b576ffe5dee046a99a2a811c461f1969c30530260801c5b61010082161561343b576ffcbe86c7900a88aedcffc83b479aa3a40260801c5b61020082161561345b576ff987a7253ac413176f2b074cf7815e540260801c5b61040082161561347b576ff3392b0822b70005940c7a398e4b70f30260801c5b61080082161561349b576fe7159475a2c29b7443b29c7fa6e889d90260801c5b6110008216156134bb576fd097f3bdfd2022b8845ad8f792aa58250260801c5b6120008216156134db576fa9f746462d870fdf8a65dc1f90e061e50260801c5b6140008216156134fb576f70d869a156d2a1b890bb3df62baf32f70260801c5b61800082161561351b576f31be135f97d08fd981231505542fcfa60260801c5b6201000082161561353c576f09aa508b5b7a84e1c677de54f3e99bc90260801c5b6202000082161561355c576e5d6af8dedb81196699c329225ee6040260801c5b6204000082161561357b576d2216e584f5fa1ea926041bedfe980260801c5b62080000821615613598576b048a170391f7dc42444e8fa20260801c5b60008460020b13156135b95780600019816135b5576135b561544e565b0490505b6401000000008106156135cd5760016135d0565b60005b60ff16602082901c0192505050919050565b60008080600019858709858702925082811083820303915050806000141561361c576000841161361157600080fd5b50829004905061137b565b80841161362857600080fd5b6000848688096000868103871696879004966002600389028118808a02820302808a02820302808a02820302808a02820302808a02820302808a02909103029181900381900460010186841190950394909402919094039290920491909117919091029150509392505050565b600081600314156137475760d3546040516305f370ed60e41b81526001600160a01b0388811660048301528781166024830152604482018790528581166064830152608482018590526000921690635f370ed09060a401602060405180830381600087803b15801561370657600080fd5b505af115801561371a573d6000803e3d6000fd5b505050506040513d601f19601f8201168201806040525081019061373e91906147d4565b9150610f199050565b600061375587878786610ab5565b60d3546040516305f370ed60e41b81526001600160a01b038a81166004830152898116602483015260448201899052878116606483015260848201879052929350911690635f370ed09060a401602060405180830381600087803b1580156137bc57600080fd5b505af11580156137d0573d6000803e3d6000fd5b505050506040513d601f19601f820116820180604052508101906137f491906147d4565b509050610f19565b815160d05460009190600160a01b900461ffff168111156138855760405162461bcd60e51b815260206004820152603760248201527f4d6178696d756d203520646966666572656e7420746f6b656e732063616e206260448201527f652073656e74207065722043434950204d657373616765000000000000000000606482015260840161100d565b60005b818110156139ba5760d05485516001600160a01b03909116908690839081106138b3576138b361547a565b6020026020010151600001516001600160a01b0316146139b2578481815181106138df576138df61547a565b6020026020010151600001516001600160a01b031663095ea7b3600060029054906101000a90046001600160a01b03168784815181106139215761392161547a565b6020026020010151602001516040518363ffffffff1660e01b815260040161395e9291906001600160a01b03929092168252602082015260400190565b602060405180830381600087803b15801561397857600080fd5b505af115801561398c573d6000803e3d6000fd5b505050506040513d601f19601f820116820180604052508101906139b09190614799565b505b600101613888565b506040805160a081019091526001600160a01b03861660c08201526000908060e0810160408051601f19818403018152918152908252602082018a905281018790526060016001866001811115613a1357613a13615464565b14613a1f576000613a2c565b60d0546001600160a01b03165b6001600160a01b03168152602001613a5d6040518060400160405280620dbba0815260200160001515815250611ea2565b9052600080546040516320487ded60e01b81529293509091620100009091046001600160a01b0316906320487ded90613a9c908c908690600401614e77565b60206040518083038186803b158015613ab457600080fd5b505afa158015613ac8573d6000803e3d6000fd5b505050506040513d601f19601f82011682018060405250810190613aec91906147d4565b905060006001866001811115613b0457613b04615464565b1415613b9a576000546040516396f4e9f960e01b8152620100009091046001600160a01b0316906396f4e9f990613b41908d908790600401614e77565b602060405180830381600087803b158015613b5b57600080fd5b505af1158015613b6f573d6000803e3d6000fd5b505050506040513d601f19601f82011682018060405250810190613b9391906147d4565b9050613c28565b6000546040516396f4e9f960e01b8152620100009091046001600160a01b0316906396f4e9f9908490613bd3908e908890600401614e77565b6020604051808303818588803b158015613bec57600080fd5b505af1158015613c00573d6000803e3d6000fd5b50505050506040513d601f19601f82011682018060405250810190613c2591906147d4565b90505b6040518181527f54791b38f3859327992a1ca0590ad3c0f08feba98d1a4f56ab0dca74d203392a9060200160405180910390a19998505050505050505050565b6000613cc0604051806101400160405280600081526020016000815260200160008152602001600081526020016000815260200160008152602001600081526020016000815260200160008152602001600081525090565b60e65460d3546040516370a0823160e01b81526001600160a01b0391821660048201529116906370a082319060240160206040518083038186803b158015613d0757600080fd5b505afa158015613d1b573d6000803e3d6000fd5b505050506040513d601f19601f82011682018060405250810190613d3f91906147d4565b60a082015260005b8151811015613eb15760e6548a516000916001600160a01b0316908c9084908110613d7457613d7461547a565b60200260200101516001600160a01b03161415613d96575060a0820151613e88565b613e858b8381518110613dab57613dab61547a565b602002602001015160e660009054906101000a90046001600160a01b03168d8581518110613ddb57613ddb61547a565b602090810291909101015160d3546040516370a0823160e01b81526001600160a01b0391821660048201529116906370a082319060240160206040518083038186803b158015613e2a57600080fd5b505afa158015613e3e573d6000803e3d6000fd5b505050506040513d601f19601f82011682018060405250810190613e6291906147d4565b60d3548d516001600160a01b03909116908e90889081106127c5576127c561547a565b90505b8083606001818151613e9a9190614fed565b905250819050613ea9816153fb565b915050613d47565b50875160c082015260208a015160808b0151613ed69068056bc75e2d6310000061521f565b613ee09190615069565b60e0820181905260408201516060830151613efb919061521f565b613f059190615069565b61010082018190526060820151613f1c91906152b6565b61012082015260005b8160c001518110156140105760e65489516001600160a01b03909116908a9083908110613f5457613f5461547a565b60200260200101516001600160a01b031614613ffe576000613ffb60e660009054906101000a90046001600160a01b03168b8481518110613f9757613f9761547a565b602002602001015185604001518a8681518110613fb657613fb661547a565b6020026020010151876101000151613fce919061521f565b613fd89190615069565b60d3548c516001600160a01b03909116908d90889081106127c5576127c561547a565b50505b80614008816153fb565b915050613f25565b5061012001519998505050505050505050565b61405c6040518060c001604052806000815260200160008152602001600081526020016000815260200160008152602001600081525090565b8160018151811061406f5761406f61547a565b602090810291909101810151825288519082015260e65460d3546040516370a0823160e01b81526001600160a01b0391821660048201529116906370a082319060240160206040518083038186803b1580156140ca57600080fd5b505afa1580156140de573d6000803e3d6000fd5b505050506040513d601f19601f8201168201806040525081019061410291906147d4565b60408201526000606082018190525b816020015181101561423e5760008982815181106141315761413161547a565b602090810291909101015160e6549091506000906001600160a01b038084169116141561416357506040830151614213565b60e65460d3546040516370a0823160e01b81526001600160a01b03918216600482015261421092859290811691908316906370a082319060240160206040518083038186803b1580156141b557600080fd5b505afa1580156141c9573d6000803e3d6000fd5b505050506040513d601f19601f820116820180604052508101906141ed91906147d4565b60d3548d516001600160a01b03909116908e90899081106127c5576127c561547a565b90505b80846060018181516142259190614fed565b9052508291506142369050816153fb565b915050614111565b50606081015161424e9084614fed565b6080820152865160a082015260005b8160a00151811015612f8757600088828151811061427d5761427d61547a565b60200260200101519050600086838151811061429b5761429b61547a565b602090810291909101015160e6549091506001600160a01b038381169116146143195760e65484516080860151600092614316926001600160a01b03909116918691906142e990879061521f565b6142f39190615069565b60d3548d516001600160a01b03909116908e908a9081106127c5576127c561547a565b50505b50508080614326906153fb565b91505061425d565b600082601f83011261433f57600080fd5b8151602061435461434f83614fca565b614f9a565b80838252828201915082860187848660051b890101111561437457600080fd5b60005b8581101561439c57815161438a816154a6565b84529284019290840190600101614377565b5090979650505050505050565b600082601f8301126143ba57600080fd5b813560206143ca61434f83614fca565b80838252828201915082860187848660061b89010111156143ea57600080fd5b6000805b8681101561443557604080848c031215614406578283fd5b61440e614f50565b8435614419816154a6565b81528488013588820152865294860194909201916001016143ee565b509198975050505050505050565b600082601f83011261445457600080fd5b8151602061446461434f83614fca565b80838252828201915082860187848660051b890101111561448457600080fd5b60005b8581101561439c57815184529284019290840190600101614487565b600082601f8301126144b457600080fd5b81356001600160401b038111156144cd576144cd615490565b6144e0601f8201601f1916602001614f9a565b8181528460208386010111156144f557600080fd5b816020850160208301376000918101602001919091529392505050565b80356001600160401b038116811461452957600080fd5b919050565b805169ffffffffffffffffffff8116811461452957600080fd5b60006020828403121561455a57600080fd5b813561137b816154a6565b60006020828403121561457757600080fd5b815161137b816154a6565b6000806000806080858703121561459857600080fd5b84356145a3816154a6565b935060208501356145b3816154a6565b925060408501356001600160801b03811681146145cf57600080fd5b9150606085013563ffffffff811681146145e857600080fd5b939692955090935050565b600080600080600060a0868803121561460b57600080fd5b8535614616816154a6565b94506020860135614626816154a6565b935060408601359250606086013561463d816154a6565b949793965091946080013592915050565b6000806000806080858703121561466457600080fd5b843561466f816154a6565b9350602085013561467f816154a6565b93969395505050506040820135916060013590565b600080604083850312156146a757600080fd5b82516001600160401b03808211156146be57600080fd5b818501915085601f8301126146d257600080fd5b815160206146e261434f83614fca565b8083825282820191508286018a848660051b890101111561470257600080fd5b600096505b848710156147345780518060060b811461472057600080fd5b835260019690960195918301918301614707565b509188015191965090935050508082111561474e57600080fd5b5061475b8582860161432e565b9150509250929050565b60006020828403121561477757600080fd5b81516001600160401b0381111561478d57600080fd5b610bfd84828501614443565b6000602082840312156147ab57600080fd5b8151801515811461137b57600080fd5b6000602082840312156147cd57600080fd5b5035919050565b6000602082840312156147e657600080fd5b5051919050565b6000602082840312156147ff57600080fd5b81356001600160e01b03198116811461137b57600080fd5b60006020828403121561482957600080fd5b81356001600160401b0381111561483f57600080fd5b820160a0818503121561137b57600080fd5b6000806040838503121561486457600080fd5b823591506020830135614876816154a6565b809150509250929050565b600080600080600080600080610100898b03121561489e57600080fd5b8851975060208901516001600160401b03808211156148bc57600080fd5b6148c88c838d0161432e565b985060408b01519150808211156148de57600080fd5b6148ea8c838d0161432e565b975060608b015191508082111561490057600080fd5b61490c8c838d01614443565b965060808b015191508082111561492257600080fd5b61492e8c838d01614443565b955060a08b0151945060c08b015191508082111561494b57600080fd5b6149578c838d01614443565b935060e08b015191508082111561496d57600080fd5b5061497a8b828c01614443565b9150509295985092959890939650565b60006020828403121561499c57600080fd5b61137b82614512565b600080604083850312156149b857600080fd5b6149c183614512565b91506020830135614876816154a6565b6000806000806000806000806000806101408b8d0312156149f157600080fd5b6149fa8b614512565b995060208b0135614a0a816154a6565b985060408b0135614a1a816154a6565b975060608b0135614a2a816154a6565b965060808b0135614a3a816154a6565b955060a08b0135614a4a816154a6565b945060c08b0135614a5a816154a6565b935060e08b0135614a6a816154a6565b92506101008b0135614a7b816154a6565b91506101208b0135614a8c816154a6565b809150509295989b9194979a5092959850565b60008060008060808587031215614ab557600080fd5b614abe85614512565b93506020850135614ace816154a6565b925060408501356001600160401b03811115614ae957600080fd5b614af5878288016144a3565b9250506060850135600281106145e857600080fd5b600080600060608486031215614b1f57600080fd5b614b2884614512565b92506020840135614b38816154a6565b929592945050506040919091013590565b600080600080600060a08688031215614b6157600080fd5b614b6a8661452e565b9450602086015193506040860151925060608601519150614b8d6080870161452e565b90509295509295909350565b600060208284031215614bab57600080fd5b815160ff8116811461137b57600080fd5b600081518084526020808501945080840160005b83811015614bf55781516001600160a01b031687529582019590820190600101614bd0565b509495945050505050565b600081518084526020808501945080840160005b83811015614bf557815187529582019590820190600101614c14565b6000815180845260005b81811015614c5657602081850181015186830182015201614c3a565b81811115614c68576000602083870101525b50601f01601f19169290920160200192915050565b6020808252825182820181905260009190848201906040850190845b81811015614cbb57835163ffffffff1683529284019291840191600101614c99565b50909695505050505050565b60ff8716815260c060208201526000614ce360c0830188614bbc565b8281036040840152614cf58188614bbc565b90508560608401528281036080840152614d0f8186614c00565b905082810360a0840152614d238185614c00565b9998505050505050505050565b60208152600061137b6020830184614c30565b60208082526030908201527f50726f706f7361626c654f776e61626c653a206e6577206f776e65722069732060408201526f746865207a65726f206164647265737360801b606082015260800190565b6020808252602b908201527f496e697469616c697a61626c653a20636f6e7472616374206973206e6f74206960408201526a6e697469616c697a696e6760a81b606082015260800190565b828152604060208201526000610bfd6040830184614bbc565b85815284602082015260a060408201526000614e1660a0830186614bbc565b6001600160a01b0394909416606083015250608001529392505050565b6001600160401b0386168152600060018060a01b03808716602084015260a06040840152614e6460a0840187614c30565b9416606083015250608001529392505050565b600060406001600160401b038516835260208181850152845160a083860152614ea360e0860182614c30565b905081860151603f1980878403016060880152614ec08383614c30565b88860151888203830160808a01528051808352908601945060009350908501905b80841015614f1357845180516001600160a01b0316835286015186830152938501936001939093019290860190614ee1565b5060608901516001600160a01b031660a08901526080890151888203830160c08a01529550614f428187614c30565b9a9950505050505050505050565b604080519081016001600160401b0381118282101715614f7257614f72615490565b60405290565b60405160a081016001600160401b0381118282101715614f7257614f72615490565b604051601f8201601f191681016001600160401b0381118282101715614fc257614fc2615490565b604052919050565b60006001600160401b03821115614fe357614fe3615490565b5060051b60200190565b6000821982111561500057615000615438565b500190565b60008160060b8360060b8061501c5761501c61544e565b667fffffffffffff1982146000198214161561503a5761503a615438565b90059392505050565b60006001600160c01b038381168061505d5761505d61544e565b92169190910492915050565b6000826150785761507861544e565b500490565b600181815b808511156150b857816000190482111561509e5761509e615438565b808516156150ab57918102915b93841c9390800290615082565b509250929050565b600061137b60ff8416836000826150d957506001610aaf565b816150e657506000610aaf565b81600181146150fc576002811461510657615122565b6001915050610aaf565b60ff84111561511757615117615438565b50506001821b610aaf565b5060208310610133831016604e8410600b8410161715615145575081810a610aaf565b61514f838361507d565b806000190482111561516357615163615438565b029392505050565b60006001600160ff1b038184138284138082168684048611161561519157615191615438565b600160ff1b60008712828116878305891216156151b0576151b0615438565b600087129250878205871284841616156151cc576151cc615438565b878505871281841616156151e2576151e2615438565b505050929093029392505050565b60006001600160c01b038281168482168115158284048211161561521657615216615438565b02949350505050565b600081600019048311821515161561523957615239615438565b500290565b60008160060b8360060b6000811281667fffffffffffff190183128115161561526957615269615438565b81667fffffffffffff01831381161561528457615284615438565b5090039392505050565b60006001600160a01b03838116908316818110156152ae576152ae615438565b039392505050565b6000828210156152c8576152c8615438565b500390565b600060ff821660ff8416808210156152e7576152e7615438565b90039392505050565b600060a0823603121561530257600080fd5b61530a614f78565b8235815261531a60208401614512565b602082015260408301356001600160401b038082111561533957600080fd5b615345368387016144a3565b6040840152606085013591508082111561535e57600080fd5b61536a368387016144a3565b6060840152608085013591508082111561538357600080fd5b50615390368286016143a9565b60808301525092915050565b60008160020b627fffff198114156153b6576153b6615438565b6000190192915050565b600181811c908216806153d457607f821691505b602082108114156153f557634e487b7160e01b600052602260045260246000fd5b50919050565b600060001982141561540f5761540f615438565b5060010190565b60008260060b806154295761542961544e565b808360060b0791505092915050565b634e487b7160e01b600052601160045260246000fd5b634e487b7160e01b600052601260045260246000fd5b634e487b7160e01b600052602160045260246000fd5b634e487b7160e01b600052603260045260246000fd5b634e487b7160e01b600052604160045260246000fd5b6001600160a01b038116811461142457600080fdfea264697066735822122003008a4c27fef26a6d2717b0bdc4c44a773977d97450ec6648445c0ff377a31764736f6c63430008070033","linkReferences":{}},"methodIdentifiers":{"ccipReceive((bytes32,uint64,bytes,bytes,(address,uint256)[]))":"85572ffb","convertEthToUsd(uint256)":"c086381e","crossChainToken(uint64)":"19da7e2a","crossChainTokenSwapVersion(uint64,address)":"174cbe50","crossChainVault()":"3d13272b","currentChainSelector()":"3d54cb6f","estimateAmountOut(address,address,uint128,uint32)":"bf938db8","factoryV2()":"68e0d4e1","factoryV3()":"1d5f45f5","fee()":"ddca3f43","feeRate()":"978bbdb9","feeRatePerDayScaled()":"2fecd589","feeReceiver()":"b3f00674","feeTimestamp()":"184a732f","getAmountOut(address,address,uint256,uint256)":"13cb1f83","getRouter()":"b0f479a1","i_link()":"7d253aff","i_maxTokensLength()":"5b6a0351","initialize(uint64,address,address,address,address,address,address,address,address,address)":"2651e662","isRestricted(address)":"c01bc982","issuanceCompletedTokensCount(uint256)":"94037369","issuanceMessageIdByNonce(uint256)":"9121c717","issuanceTokenOldAndNewValues(uint256,address)":"81b15279","latestFeeUpdate()":"011ced5f","messageDetail(bytes32)":"9c3ddb2e","methodologist()":"9f8e67bf","methodology()":"9eeb1d50","minter()":"07546172","oraclePayment()":"0c02e130","owner()":"8da5cb5b","pause()":"8456cb59","paused()":"5c975abb","priceInWei()":"3c8da588","proposeOwner(address)":"b5ed298a","proposedOwner()":"d153b60c","quoter()":"c6bbd5a7","receivedMessages(uint256)":"d030366c","redemptionMessageIdByNonce(uint256)":"306b3a28","renounceOwnership()":"715018a6","sendMessage(uint64,address,bytes,uint8)":"bcab90b3","setCcipRouter(address)":"27bf9b44","setCrossChainToken(uint64,address,uint256)":"195c4913","setCrossChainVault(address)":"5f206b66","sourceChainSelectorF()":"ff5474f0","supplyCeiling()":"2b52684d","supportsInterface(bytes4)":"01ffc9a7","swap(address,address,uint256,address,uint256)":"17d88f46","swapRouterV2()":"744fbc7a","swapRouterV3()":"b631e80b","toUsdPriceFeed()":"63973fda","transferOwnership(address)":"f2fde38b","unpause()":"3f4ba83a","weth()":"3fc8cef3"},"id":39}