{"abi":[{"type":"receive","stateMutability":"payable"},{"type":"function","name":"ccipReceive","inputs":[{"name":"message","type":"tuple","internalType":"struct Client.Any2EVMMessage","components":[{"name":"messageId","type":"bytes32","internalType":"bytes32"},{"name":"sourceChainSelector","type":"uint64","internalType":"uint64"},{"name":"sender","type":"bytes","internalType":"bytes"},{"name":"data","type":"bytes","internalType":"bytes"},{"name":"destTokenAmounts","type":"tuple[]","internalType":"struct Client.EVMTokenAmount[]","components":[{"name":"token","type":"address","internalType":"address"},{"name":"amount","type":"uint256","internalType":"uint256"}]}]}],"outputs":[],"stateMutability":"nonpayable"},{"type":"function","name":"convertEthToUsd","inputs":[{"name":"_ethAmount","type":"uint256","internalType":"uint256"}],"outputs":[{"name":"","type":"uint256","internalType":"uint256"}],"stateMutability":"view"},{"type":"function","name":"crossChainToken","inputs":[{"name":"","type":"uint64","internalType":"uint64"}],"outputs":[{"name":"","type":"address","internalType":"address"}],"stateMutability":"view"},{"type":"function","name":"crossChainTokenSwapFee","inputs":[{"name":"","type":"uint64","internalType":"uint64"},{"name":"","type":"address","internalType":"address"}],"outputs":[{"name":"","type":"uint24","internalType":"uint24"}],"stateMutability":"view"},{"type":"function","name":"currentChainSelector","inputs":[],"outputs":[{"name":"","type":"uint64","internalType":"uint64"}],"stateMutability":"view"},{"type":"function","name":"estimateAmountOut","inputs":[{"name":"tokenIn","type":"address","internalType":"address"},{"name":"tokenOut","type":"address","internalType":"address"},{"name":"amountIn","type":"uint128","internalType":"uint128"},{"name":"fee","type":"uint24","internalType":"uint24"}],"outputs":[{"name":"amountOut","type":"uint256","internalType":"uint256"}],"stateMutability":"view"},{"type":"function","name":"factoryV3","inputs":[],"outputs":[{"name":"","type":"address","internalType":"contract IUniswapV3Factory"}],"stateMutability":"view"},{"type":"function","name":"fee","inputs":[],"outputs":[{"name":"","type":"uint256","internalType":"uint256"}],"stateMutability":"view"},{"type":"function","name":"feeRate","inputs":[],"outputs":[{"name":"","type":"uint8","internalType":"uint8"}],"stateMutability":"view"},{"type":"function","name":"feeRatePerDayScaled","inputs":[],"outputs":[{"name":"","type":"uint256","internalType":"uint256"}],"stateMutability":"view"},{"type":"function","name":"feeReceiver","inputs":[],"outputs":[{"name":"","type":"address","internalType":"address"}],"stateMutability":"view"},{"type":"function","name":"feeTimestamp","inputs":[],"outputs":[{"name":"","type":"uint256","internalType":"uint256"}],"stateMutability":"view"},{"type":"function","name":"getAmountOut","inputs":[{"name":"tokenIn","type":"address","internalType":"address"},{"name":"tokenOut","type":"address","internalType":"address"},{"name":"amountIn","type":"uint256","internalType":"uint256"},{"name":"_swapFee","type":"uint24","internalType":"uint24"}],"outputs":[{"name":"finalAmountOut","type":"uint256","internalType":"uint256"}],"stateMutability":"view"},{"type":"function","name":"getRouter","inputs":[],"outputs":[{"name":"","type":"address","internalType":"address"}],"stateMutability":"view"},{"type":"function","name":"i_link","inputs":[],"outputs":[{"name":"","type":"address","internalType":"address"}],"stateMutability":"view"},{"type":"function","name":"i_maxTokensLength","inputs":[],"outputs":[{"name":"","type":"uint16","internalType":"uint16"}],"stateMutability":"view"},{"type":"function","name":"initialize","inputs":[{"name":"_currentChainSelector","type":"uint64","internalType":"uint64"},{"name":"_vault","type":"address","internalType":"address payable"},{"name":"_chainlinkToken","type":"address","internalType":"address"},{"name":"_router","type":"address","internalType":"address"},{"name":"_weth","type":"address","internalType":"address"},{"name":"_swapRouterV3","type":"address","internalType":"address"},{"name":"_factoryV3","type":"address","internalType":"address"},{"name":"_swapRouterV2","type":"address","internalType":"address"},{"name":"_toUsdPriceFeed","type":"address","internalType":"address"}],"outputs":[],"stateMutability":"nonpayable"},{"type":"function","name":"isRestricted","inputs":[{"name":"","type":"address","internalType":"address"}],"outputs":[{"name":"","type":"bool","internalType":"bool"}],"stateMutability":"view"},{"type":"function","name":"issuanceCompletedTokensCount","inputs":[{"name":"","type":"uint256","internalType":"uint256"}],"outputs":[{"name":"","type":"uint256","internalType":"uint256"}],"stateMutability":"view"},{"type":"function","name":"issuanceMessageIdByNonce","inputs":[{"name":"","type":"uint256","internalType":"uint256"}],"outputs":[{"name":"","type":"bytes32","internalType":"bytes32"}],"stateMutability":"view"},{"type":"function","name":"issuanceTokenOldAndNewValues","inputs":[{"name":"","type":"uint256","internalType":"uint256"},{"name":"","type":"address","internalType":"address"}],"outputs":[{"name":"oldTokenValue","type":"uint256","internalType":"uint256"},{"name":"newTokenValue","type":"uint256","internalType":"uint256"}],"stateMutability":"view"},{"type":"function","name":"latestFeeUpdate","inputs":[],"outputs":[{"name":"","type":"uint256","internalType":"uint256"}],"stateMutability":"view"},{"type":"function","name":"messageDetail","inputs":[{"name":"","type":"bytes32","internalType":"bytes32"}],"outputs":[{"name":"sourceChainSelector","type":"uint64","internalType":"uint64"},{"name":"sender","type":"address","internalType":"address"},{"name":"message","type":"string","internalType":"string"},{"name":"token","type":"address","internalType":"address"},{"name":"amount","type":"uint256","internalType":"uint256"}],"stateMutability":"view"},{"type":"function","name":"methodologist","inputs":[],"outputs":[{"name":"","type":"address","internalType":"address"}],"stateMutability":"view"},{"type":"function","name":"methodology","inputs":[],"outputs":[{"name":"","type":"string","internalType":"string"}],"stateMutability":"view"},{"type":"function","name":"minter","inputs":[],"outputs":[{"name":"","type":"address","internalType":"address"}],"stateMutability":"view"},{"type":"function","name":"oraclePayment","inputs":[],"outputs":[{"name":"","type":"uint256","internalType":"uint256"}],"stateMutability":"view"},{"type":"function","name":"owner","inputs":[],"outputs":[{"name":"","type":"address","internalType":"address"}],"stateMutability":"view"},{"type":"function","name":"pause","inputs":[],"outputs":[],"stateMutability":"nonpayable"},{"type":"function","name":"paused","inputs":[],"outputs":[{"name":"","type":"bool","internalType":"bool"}],"stateMutability":"view"},{"type":"function","name":"priceInWei","inputs":[],"outputs":[{"name":"","type":"uint256","internalType":"uint256"}],"stateMutability":"view"},{"type":"function","name":"priceOracle","inputs":[],"outputs":[{"name":"","type":"address","internalType":"address"}],"stateMutability":"view"},{"type":"function","name":"proposeOwner","inputs":[{"name":"_proposedOwner","type":"address","internalType":"address"}],"outputs":[],"stateMutability":"nonpayable"},{"type":"function","name":"proposedOwner","inputs":[],"outputs":[{"name":"","type":"address","internalType":"address"}],"stateMutability":"view"},{"type":"function","name":"quoter","inputs":[],"outputs":[{"name":"","type":"address","internalType":"contract IQuoter"}],"stateMutability":"view"},{"type":"function","name":"receivedMessages","inputs":[{"name":"","type":"uint256","internalType":"uint256"}],"outputs":[{"name":"","type":"bytes32","internalType":"bytes32"}],"stateMutability":"view"},{"type":"function","name":"redemptionMessageIdByNonce","inputs":[{"name":"","type":"uint256","internalType":"uint256"}],"outputs":[{"name":"","type":"bytes32","internalType":"bytes32"}],"stateMutability":"view"},{"type":"function","name":"renounceOwnership","inputs":[],"outputs":[],"stateMutability":"nonpayable"},{"type":"function","name":"sendMessage","inputs":[{"name":"destinationChainSelector","type":"uint64","internalType":"uint64"},{"name":"receiver","type":"address","internalType":"address"},{"name":"_data","type":"bytes","internalType":"bytes"},{"name":"payFeesIn","type":"uint8","internalType":"enum CrossChainIndexFactory.PayFeesIn"}],"outputs":[{"name":"","type":"bytes32","internalType":"bytes32"}],"stateMutability":"nonpayable"},{"type":"function","name":"setCcipRouter","inputs":[{"name":"_router","type":"address","internalType":"address"}],"outputs":[],"stateMutability":"nonpayable"},{"type":"function","name":"setCrossChainToken","inputs":[{"name":"_chainSelector","type":"uint64","internalType":"uint64"},{"name":"_crossChainToken","type":"address","internalType":"address"},{"name":"_swapFee","type":"uint24","internalType":"uint24"}],"outputs":[],"stateMutability":"nonpayable"},{"type":"function","name":"setPriceOracle","inputs":[{"name":"_priceOracle","type":"address","internalType":"address"}],"outputs":[],"stateMutability":"nonpayable"},{"type":"function","name":"setVault","inputs":[{"name":"_vault","type":"address","internalType":"address payable"}],"outputs":[],"stateMutability":"nonpayable"},{"type":"function","name":"sourceChainSelectorF","inputs":[],"outputs":[{"name":"","type":"uint64","internalType":"uint64"}],"stateMutability":"view"},{"type":"function","name":"supplyCeiling","inputs":[],"outputs":[{"name":"","type":"uint256","internalType":"uint256"}],"stateMutability":"view"},{"type":"function","name":"supportsInterface","inputs":[{"name":"interfaceId","type":"bytes4","internalType":"bytes4"}],"outputs":[{"name":"","type":"bool","internalType":"bool"}],"stateMutability":"pure"},{"type":"function","name":"swap","inputs":[{"name":"tokenIn","type":"address","internalType":"address"},{"name":"tokenOut","type":"address","internalType":"address"},{"name":"amountIn","type":"uint256","internalType":"uint256"},{"name":"_recipient","type":"address","internalType":"address"},{"name":"_swapFee","type":"uint24","internalType":"uint24"}],"outputs":[{"name":"outputAmount","type":"uint256","internalType":"uint256"}],"stateMutability":"nonpayable"},{"type":"function","name":"swapRouterV2","inputs":[],"outputs":[{"name":"","type":"address","internalType":"contract IUniswapV2Router02"}],"stateMutability":"view"},{"type":"function","name":"swapRouterV3","inputs":[],"outputs":[{"name":"","type":"address","internalType":"contract ISwapRouter"}],"stateMutability":"view"},{"type":"function","name":"toUsdPriceFeed","inputs":[],"outputs":[{"name":"","type":"address","internalType":"contract AggregatorV3Interface"}],"stateMutability":"view"},{"type":"function","name":"transferOwnership","inputs":[{"name":"newOwner","type":"address","internalType":"address"}],"outputs":[],"stateMutability":"nonpayable"},{"type":"function","name":"unpause","inputs":[],"outputs":[],"stateMutability":"nonpayable"},{"type":"function","name":"vault","inputs":[],"outputs":[{"name":"","type":"address","internalType":"contract Vault"}],"stateMutability":"view"},{"type":"function","name":"weth","inputs":[],"outputs":[{"name":"","type":"address","internalType":"contract IWETH"}],"stateMutability":"view"},{"type":"event","name":"ChainlinkCancelled","inputs":[{"name":"id","type":"bytes32","indexed":true,"internalType":"bytes32"}],"anonymous":false},{"type":"event","name":"ChainlinkFulfilled","inputs":[{"name":"id","type":"bytes32","indexed":true,"internalType":"bytes32"}],"anonymous":false},{"type":"event","name":"ChainlinkRequested","inputs":[{"name":"id","type":"bytes32","indexed":true,"internalType":"bytes32"}],"anonymous":false},{"type":"event","name":"Initialized","inputs":[{"name":"version","type":"uint8","indexed":false,"internalType":"uint8"}],"anonymous":false},{"type":"event","name":"Issuanced","inputs":[{"name":"messageId","type":"bytes32","indexed":true,"internalType":"bytes32"},{"name":"nonce","type":"uint256","indexed":true,"internalType":"uint256"},{"name":"time","type":"uint256","indexed":false,"internalType":"uint256"}],"anonymous":false},{"type":"event","name":"MessageSent","inputs":[{"name":"messageId","type":"bytes32","indexed":false,"internalType":"bytes32"}],"anonymous":false},{"type":"event","name":"OwnershipTransferred","inputs":[{"name":"previousOwner","type":"address","indexed":true,"internalType":"address"},{"name":"newOwner","type":"address","indexed":true,"internalType":"address"}],"anonymous":false},{"type":"event","name":"Paused","inputs":[{"name":"account","type":"address","indexed":false,"internalType":"address"}],"anonymous":false},{"type":"event","name":"Redemption","inputs":[{"name":"messageId","type":"bytes32","indexed":true,"internalType":"bytes32"},{"name":"nonce","type":"uint256","indexed":true,"internalType":"uint256"},{"name":"time","type":"uint256","indexed":false,"internalType":"uint256"}],"anonymous":false},{"type":"event","name":"Unpaused","inputs":[{"name":"account","type":"address","indexed":false,"internalType":"address"}],"anonymous":false},{"type":"error","name":"InvalidRouter","inputs":[{"name":"router","type":"address","internalType":"address"}]}],"bytecode":{"object":"0x6080604052348015600f57600080fd5b50614a788061001f6000396000f3fe6080604052600436106103395760003560e01c806381b15279116101ab578063b631e80b116100f7578063dd811ac911610095578063f0cd5b721161006f578063f0cd5b7214610a52578063f2fde38b14610a72578063fbfa77cf14610a92578063ff5474f014610ab257600080fd5b8063dd811ac9146109fc578063ddca3f4314610a1c578063ee7bd3e214610a3257600080fd5b8063c086381e116100d1578063c086381e1461097c578063c6bbd5a71461099c578063d030366c146109bc578063d153b60c146109dc57600080fd5b8063b631e80b1461090c578063bcab90b31461092c578063c01bc9821461094c57600080fd5b8063978bbdb9116101645780639f8e67bf1161013e5780639f8e67bf14610888578063b0f479a1146108a8578063b3f00674146108cc578063b5ed298a146108ec57600080fd5b8063978bbdb9146108095780639c3ddb2e146108355780639eeb1d501461086657600080fd5b806381b15279146107085780638456cb591461075c57806385572ffb146107715780638da5cb5b146107915780639121c717146107af57806394037369146107dc57600080fd5b80633c8da5881161028557806363973fda11610223578063715018a6116101fd578063715018a614610693578063744fbc7a146106a85780637d253aff146106c85780637e79f512146106e857600080fd5b806363973fda14610602578063652354ae146106225780636817031b1461067357600080fd5b80633fc8cef31161025f5780633fc8cef314610575578063530e784f146105955780635b6a0351146105b55780635c975abb146105ea57600080fd5b80633c8da588146105135780633d54cb6f146105285780633f4ba83a1461056057600080fd5b806319da7e2a116102f257806327bf9b44116102cc57806327bf9b441461049a5780632b52684d146104ba5780632fecd589146104d0578063306b3a28146104e657600080fd5b806319da7e2a146104245780631d5f45f51461045a5780632630c12f1461047a57600080fd5b8063011ced5f1461034557806301ffc9a71461036e578063075461721461039e5780630c02e130146103d657806317c27b76146103ec578063184a732f1461040e57600080fd5b3661034057005b600080fd5b34801561035157600080fd5b5061035b60d65481565b6040519081526020015b60405180910390f35b34801561037a57600080fd5b5061038e610389366004613b30565b610ad2565b6040519015158152602001610365565b3480156103aa57600080fd5b5060dd546103be906001600160a01b031681565b6040516001600160a01b039091168152602001610365565b3480156103e257600080fd5b5061035b60e15481565b3480156103f857600080fd5b5061040c610407366004613b8b565b610b09565b005b34801561041a57600080fd5b5061035b60d95481565b34801561043057600080fd5b506103be61043f366004613c45565b60e8602052600090815260409020546001600160a01b031681565b34801561046657600080fd5b5060e4546103be906001600160a01b031681565b34801561048657600080fd5b5060dc546103be906001600160a01b031681565b3480156104a657600080fd5b5061040c6104b5366004613c60565b610d9d565b3480156104c657600080fd5b5061035b60df5481565b3480156104dc57600080fd5b5061035b60d85481565b3480156104f257600080fd5b5061035b610501366004613c7d565b60ee6020526000908152604090205481565b34801561051f57600080fd5b5061035b610dcf565b34801561053457600080fd5b5060d754610548906001600160401b031681565b6040516001600160401b039091168152602001610365565b34801561056c57600080fd5b5061040c610edd565b34801561058157600080fd5b5060e6546103be906001600160a01b031681565b3480156105a157600080fd5b5061040c6105b0366004613c60565b610eef565b3480156105c157600080fd5b5060d0546105d790600160a01b900461ffff1681565b60405161ffff9091168152602001610365565b3480156105f657600080fd5b50609e5460ff1661038e565b34801561060e57600080fd5b5060e2546103be906001600160a01b031681565b34801561062e57600080fd5b5061065f61063d366004613c96565b60e960209081526000928352604080842090915290825290205462ffffff1681565b60405162ffffff9091168152602001610365565b34801561067f57600080fd5b5061040c61068e366004613c60565b610f83565b34801561069f57600080fd5b5061040c610fad565b3480156106b457600080fd5b5060e5546103be906001600160a01b031681565b3480156106d457600080fd5b5060d0546103be906001600160a01b031681565b3480156106f457600080fd5b5061035b610703366004613ce0565b610fbf565b34801561071457600080fd5b50610747610723366004613d44565b60ec6020908152600092835260408084209091529082529020805460019091015482565b60408051928352602083019190915201610365565b34801561076857600080fd5b5061040c610fed565b34801561077d57600080fd5b5061040c61078c366004613d69565b610ffd565b34801561079d57600080fd5b506039546001600160a01b03166103be565b3480156107bb57600080fd5b5061035b6107ca366004613c7d565b60ef6020526000908152604090205481565b3480156107e857600080fd5b5061035b6107f7366004613c7d565b60ed6020526000908152604090205481565b34801561081557600080fd5b5060d5546108239060ff1681565b60405160ff9091168152602001610365565b34801561084157600080fd5b50610855610850366004613c7d565b611044565b604051610365959493929190613de9565b34801561087257600080fd5b5061087b611120565b6040516103659190613e39565b34801561089457600080fd5b5060db546103be906001600160a01b031681565b3480156108b457600080fd5b506000546201000090046001600160a01b03166103be565b3480156108d857600080fd5b5060da546103be906001600160a01b031681565b3480156108f857600080fd5b5061040c610907366004613c60565b6111ae565b34801561091857600080fd5b5060e3546103be906001600160a01b031681565b34801561093857600080fd5b5061035b610947366004613f4b565b6111fe565b34801561095857600080fd5b5061038e610967366004613c60565b60e06020526000908152604090205460ff1681565b34801561098857600080fd5b5061035b610997366004613c7d565b6114b3565b3480156109a857600080fd5b5060e7546103be906001600160a01b031681565b3480156109c857600080fd5b5061035b6109d7366004613c7d565b6114da565b3480156109e857600080fd5b50606b546103be906001600160a01b031681565b348015610a0857600080fd5b5061035b610a17366004613fc1565b6114fb565b348015610a2857600080fd5b5061035b60d45481565b348015610a3e57600080fd5b5061035b610a4d366004614012565b61163c565b348015610a5e57600080fd5b5061040c610a6d36600461406d565b6116e4565b348015610a7e57600080fd5b5061040c610a8d366004613c60565b61174b565b348015610a9e57600080fd5b5060d3546103be906001600160a01b031681565b348015610abe57600080fd5b5060eb54610548906001600160401b031681565b60006001600160e01b031982166385572ffb60e01b1480610b0357506001600160e01b031982166301ffc9a760e01b145b92915050565b600054610100900460ff1615808015610b295750600054600160ff909116105b80610b435750303b158015610b43575060005460ff166001145b610bab5760405162461bcd60e51b815260206004820152602e60248201527f496e697469616c697a61626c653a20636f6e747261637420697320616c72656160448201526d191e481a5b9a5d1a585b1a5e995960921b60648201526084015b60405180910390fd5b6000805460ff191660011790558015610bce576000805461ff0019166101001790555b610bd6611870565b610bde61189f565b60d780546001600160401b038c1667ffffffffffffffff1990911617905560d380546001600160a01b038b166001600160a01b0319909116179055610c4088600380546001600160a01b039092166001600160a01b0319909216919091179055565b6000805462010000600160b01b031916620100006001600160a01b038a81168202929092179283905560d080548c84166001600160b01b03199091168117600560a01b1790915560405163095ea7b360e01b8152919093049091166004820152600019602482015263095ea7b3906044016020604051808303816000875af1158015610cd0573d6000803e3d6000fd5b505050506040513d601f19601f82011682018060405250810190610cf491906140b2565b5060e680546001600160a01b03199081166001600160a01b038981169190911790925560e38054821688841617905560e48054821687841617905560e58054821686841617905560e280549091169184169190911790558015610d91576000805461ff0019169055604051600181527f7f26b83ff96e1f2b6a682f133852f6798a09c465da95921460cefb38474024989060200160405180910390a15b50505050505050505050565b610da56118ce565b600080546001600160a01b03909216620100000262010000600160b01b0319909216919091179055565b60008060e260009054906101000a90046001600160a01b03166001600160a01b031663feaf968c6040518163ffffffff1660e01b815260040160a060405180830381865afa158015610e25573d6000803e3d6000fd5b505050506040513d601f19601f82011682018060405250810190610e4991906140ee565b505050915050600060e260009054906101000a90046001600160a01b03166001600160a01b031663313ce5676040518163ffffffff1660e01b8152600401602060405180830381865afa158015610ea4573d6000803e3d6000fd5b505050506040513d601f19601f82011682018060405250810190610ec89190614134565b9050610ed682826012611928565b9392505050565b610ee56118ce565b610eed611968565b565b610ef76118ce565b6001600160a01b038116610f615760405162461bcd60e51b815260206004820152602b60248201527f5072696365206f7261636c6520616464726573732063616e6e6f74206265207a60448201526a65726f206164647265737360a81b6064820152608401610ba2565b60dc80546001600160a01b0319166001600160a01b0392909216919091179055565b610f8b6118ce565b60d380546001600160a01b0319166001600160a01b0392909216919091179055565b610fb56118ce565b610eed60006119ba565b60e35460e554600091610fe3916001600160a01b0391821691168489898989611a0c565b9695505050505050565b610ff56118ce565b610eed611a49565b6000546201000090046001600160a01b03163314611030576040516335fdcccd60e21b8152336004820152602401610ba2565b61104161103c82614216565b611a86565b50565b60d260205260009081526040902080546001820180546001600160401b03831693680100000000000000009093046001600160a01b0316929190611087906142cc565b80601f01602080910402602001604051908101604052809291908181526020018280546110b3906142cc565b80156111005780601f106110d557610100808354040283529160200191611100565b820191906000526020600020905b8154815290600101906020018083116110e357829003601f168201915b50505050600283015460039093015491926001600160a01b031691905085565b60de805461112d906142cc565b80601f0160208091040260200160405190810160405280929190818152602001828054611159906142cc565b80156111a65780601f1061117b576101008083540402835291602001916111a6565b820191906000526020600020905b81548152906001019060200180831161118957829003601f168201915b505050505081565b6111b66118ce565b6001600160a01b0381166111dc5760405162461bcd60e51b8152600401610ba290614306565b606b80546001600160a01b0319166001600160a01b0392909216919091179055565b6040805160a081019091526001600160a01b03841660c082015260009081908060e0810160408051808303601f19018152918152908252602080830188905281516000808252918101835292909101919061127b565b60408051808201909152600080825260208201528152602001906001900390816112545790505b508152602001600185600181111561129557611295614356565b146112a15760006112ae565b60d0546001600160a01b03165b6001600160a01b031681526020016112d66040518060200160405280620dbba0815250611c5f565b9052600080546040516320487ded60e01b81529293509091620100009091046001600160a01b0316906320487ded90611315908a90869060040161436c565b602060405180830381865afa158015611332573d6000803e3d6000fd5b505050506040513d601f19601f820116820180604052508101906113569190614441565b90506000600185600181111561136e5761136e614356565b036113f4576000546040516396f4e9f960e01b8152620100009091046001600160a01b0316906396f4e9f9906113aa908b90879060040161436c565b6020604051808303816000875af11580156113c9573d6000803e3d6000fd5b505050506040513d601f19601f820116820180604052508101906113ed9190614441565b9050611473565b6000546040516396f4e9f960e01b8152620100009091046001600160a01b0316906396f4e9f990849061142d908c90889060040161436c565b60206040518083038185885af115801561144b573d6000803e3d6000fd5b50505050506040513d601f19601f820116820180604052508101906114709190614441565b90505b6040518181527f54791b38f3859327992a1ca0590ad3c0f08feba98d1a4f56ab0dca74d203392a9060200160405180910390a1925050505b949350505050565b6000670de0b6b3a76400006114c6610dcf565b6114d09084614470565b610b039190614487565b60d181815481106114ea57600080fd5b600091825260209091200154905081565b600082156114ab5762ffffff8216156115215761151a8585858561163c565b90506114ab565b6040805160028082526060820183526000926020830190803683370190505090508581600081518110611556576115566144a9565b60200260200101906001600160a01b031690816001600160a01b031681525050848160018151811061158a5761158a6144a9565b6001600160a01b03928316602091820292909201015260e55460405163d06ca61f60e01b8152600092919091169063d06ca61f906115ce9088908690600401614504565b600060405180830381865afa1580156115eb573d6000803e3d6000fd5b505050506040513d6000823e601f3d908101601f19168201604052611613919081019061457b565b905080600181518110611628576116286144a9565b602002602001015192505050949350505050565b60dc5460e45460405163bb5705b360e01b81526001600160a01b039182166004820152868216602482015285821660448201526001600160801b038516606482015262ffffff84166084820152600092919091169063bb5705b39060a401602060405180830381865afa1580156116b7573d6000803e3d6000fd5b505050506040513d601f19601f820116820180604052508101906116db9190614441565b95945050505050565b6116ec6118ce565b6001600160401b0392909216600090815260e86020908152604080832080546001600160a01b0319166001600160a01b0395909516948517905560e9825280832093835292905220805462ffffff191662ffffff909216919091179055565b6001600160a01b0381166117715760405162461bcd60e51b8152600401610ba290614306565b606b546001600160a01b038281169116146117e95760405162461bcd60e51b815260206004820152603260248201527f50726f706f7361626c654f776e61626c653a206e6577206f776e6572206973206044820152713737ba10383937b837b9b2b21037bbb732b960711b6064820152608401610ba2565b6001600160a01b03811633146118675760405162461bcd60e51b815260206004820152603a60248201527f50726f706f7361626c654f776e61626c653a20746869732063616c6c206d757360448201527f74206265206d61646520627920746865206e6577206f776e65720000000000006064820152608401610ba2565b611041816119ba565b600054610100900460ff166118975760405162461bcd60e51b8152600401610ba2906145af565b610eed611c9c565b600054610100900460ff166118c65760405162461bcd60e51b8152600401610ba2906145af565b610eed611ccc565b6039546001600160a01b03163314610eed5760405162461bcd60e51b815260206004820181905260248201527f4f776e61626c653a2063616c6c6572206973206e6f7420746865206f776e65726044820152606401610ba2565b60008260ff168260ff16111561195e5761194283836145fa565b61194d90600a6146fa565b6119579085614709565b9050610ed6565b61194282846145fa565b611970611cff565b609e805460ff191690557f5db9ee0a495bf2e6ff9c91a7834c1ba4fdd244a5e8aa4e537bd38aeae4b073aa335b6040516001600160a01b03909116815260200160405180910390a1565b603980546001600160a01b038381166001600160a01b0319831681179093556040519116919082907f8be0079c531659141344cd1fd0a4f28419497f9722a3daafe3b4186f6b6457e090600090a35050565b600062ffffff861615611a2e57611a27888787878787611d48565b9050611a3e565b611a3b8786868686611ea9565b90505b979650505050505050565b611a516120a1565b609e805460ff191660011790557f62e78cea01bee320cd4e420270b5ea74000d11b0c9f74754ebdbfc544b05a25861199d3390565b60008160200151905060008260400151806020019051810190611aa99190614739565b90506000806000806000806000808a60600151806020019051810190611acf91906147bd565b9750975097509750975097509750975087600003611b025760808b0151611afc818988878f8f89896120e7565b50611c52565b87600103611b1d57611b188786858d8d86612660565b611c52565b87600203611b3257611b188786858d8d612ac7565b87600303611b9457611b186040518061012001604052808981526020018881526020018781526020018681526020018481526020018c6001600160401b031681526020018b6001600160a01b0316815260200185815260200183815250612d77565b87600403611c525760008b608001519050611c506040518061016001604052808a815260200189815260200188815260200187815260200185815260200183600081518110611be557611be56144a9565b6020026020010151600001516001600160a01b0316815260200183600081518110611c1257611c126144a9565b60200260200101516020015181526020018d6001600160401b031681526020018c6001600160a01b0316815260200186815260200184815250612fef565b505b5050505050505050505050565b60408051915160248084019190915281518084039091018152604490920190526020810180516001600160e01b03166397a657c960e01b17905290565b600054610100900460ff16611cc35760405162461bcd60e51b8152600401610ba2906145af565b610eed336119ba565b600054610100900460ff16611cf35760405162461bcd60e51b8152600401610ba2906145af565b609e805460ff19169055565b609e5460ff16610eed5760405162461bcd60e51b815260206004820152601460248201527314185d5cd8589b194e881b9bdd081c185d5cd95960621b6044820152606401610ba2565b60405163095ea7b360e01b81526001600160a01b038781166004830152602482018490526000919086169063095ea7b3906044016020604051808303816000875af1158015611d9b573d6000803e3d6000fd5b505050506040513d601f19601f82011682018060405250810190611dbf91906140b2565b506000604051806101000160405280876001600160a01b03168152602001866001600160a01b031681526020018862ffffff168152602001846001600160a01b031681526020014261012c611e1491906148e5565b815260208101869052600060408083018290526060909201525163414bf38960e01b81529091506001600160a01b0389169063414bf38990611e5a9084906004016148f8565b6020604051808303816000875af1158015611e79573d6000803e3d6000fd5b505050506040513d601f19601f82011682018060405250810190611e9d9190614441565b98975050505050505050565b604080516002808252606082018352600092839291906020830190803683370190505090508581600081518110611ee257611ee26144a9565b60200260200101906001600160a01b031690816001600160a01b0316815250508481600181518110611f1657611f166144a9565b6001600160a01b03928316602091820292909201015260405163d06ca61f60e01b815260009189169063d06ca61f90611f559088908690600401614504565b600060405180830381865afa158015611f72573d6000803e3d6000fd5b505050506040513d6000823e601f3d908101601f19168201604052611f9a919081019061457b565b60405163095ea7b360e01b81526001600160a01b038a81166004830152602482018890529192509088169063095ea7b3906044016020604051808303816000875af1158015611fed573d6000803e3d6000fd5b505050506040513d601f19601f8201168201806040525081019061201191906140b2565b50604051635c11d79560e01b81526001600160a01b03891690635c11d7959061204790889060009087908a904290600401614975565b600060405180830381600087803b15801561206157600080fd5b505af1158015612075573d6000803e3d6000fd5b505050508060018151811061208c5761208c6144a9565b60200260200101519250505095945050505050565b609e5460ff1615610eed5760405162461bcd60e51b815260206004820152601060248201526f14185d5cd8589b194e881c185d5cd95960821b6044820152606401610ba2565b6121126040518060800160405280600081526020016060815260200160608152602001606081525090565b6121d389600081518110612128576121286144a9565b60200260200101516000015160e660009054906101000a90046001600160a01b03168b60008151811061215d5761215d6144a9565b6020026020010151602001513060e960008b6001600160401b03166001600160401b0316815260200190815260200160002060008f6000815181106121a4576121a46144a9565b602090810291909101810151516001600160a01b031682528101919091526040016000205462ffffff16610fbf565b815287516001600160401b038111156121ee576121ee613e4c565b604051908082528060200260200182016040528015612217578160200160208202803683370190505b50602082015287516001600160401b0381111561223657612236613e4c565b60405190808252806020026020018201604052801561225f578160200160208202803683370190505b50604082015260005b88518110156125ab57600083600081518110612286576122866144a9565b60200260200101518583815181106122a0576122a06144a9565b602002602001015184600001516122b79190614470565b6122c19190614487565b60e6548b519192506000916001600160a01b03909116908c90859081106122ea576122ea6144a9565b60200260200101516001600160a01b03160361240b578a8381518110612312576123126144a9565b602090810291909101015160d3546040516370a0823160e01b81526001600160a01b0391821660048201529116906370a0823190602401602060405180830381865afa158015612366573d6000803e3d6000fd5b505050506040513d601f19601f8201168201806040525081019061238a9190614441565b60e65460d35460405163a9059cbb60e01b81526001600160a01b03918216600482015260248101869052929350169063a9059cbb906044016020604051808303816000875af11580156123e1573d6000803e3d6000fd5b505050506040513d601f19601f8201168201806040525081019061240591906140b2565b5061253d565b6124d08b8481518110612420576124206144a9565b602002602001015160e660009054906101000a90046001600160a01b03168d8681518110612450576124506144a9565b602090810291909101015160d3546040516370a0823160e01b81526001600160a01b0391821660048201529116906370a0823190602401602060405180830381865afa1580156124a4573d6000803e3d6000fd5b505050506040513d601f19601f820116820180604052508101906124c89190614441565b610bb86114fb565b905061253b60e660009054906101000a90046001600160a01b03168c85815181106124fd576124fd6144a9565b60200260200101518460d360009054906101000a90046001600160a01b03168e888151811061252e5761252e6144a9565b6020026020010151610fbf565b505b600061254983836148e5565b9050612554826114b3565b8560200151858151811061256a5761256a6144a9565b60200260200101818152505061257f816114b3565b85604001518581518110612595576125956144a9565b6020908102919091010152505050600101612268565b5060408051600080825260208083018452840151848401516125d89492938d9390928c92909184016149c6565b604051602081830303815290604052816060018190525060006126028686846060015160016111fe565b600088815260ef60205260409081902082905551909150879082907f7513d57665f5bbb438203d2f2a896f1f0791e1e8cd0e2d76d7bc421bfb4f49aa9061264c9042815260200190565b60405180910390a350505050505050505050565b6000805b8751811015612905576000670de0b6b3a764000089838151811061268a5761268a6144a9565b602090810291909101015160d3546040516370a0823160e01b81526001600160a01b0391821660048201529116906370a0823190602401602060405180830381865afa1580156126de573d6000803e3d6000fd5b505050506040513d601f19601f820116820180604052508101906127029190614441565b85600081518110612715576127156144a9565b60200260200101516127279190614470565b6127319190614487565b60e6548a519192506001600160a01b0316908a9084908110612755576127556144a9565b60200260200101516001600160a01b0316036127fc5760d35460e654604051631c20fadd60e01b81526001600160a01b03918216600482015230602482015260448101849052911690631c20fadd906064016020604051808303816000875af11580156127c6573d6000803e3d6000fd5b505050506040513d601f19601f820116820180604052508101906127ea91906140b2565b506127f581846148e5565b92506128fc565b60d35489516001600160a01b0390911690631c20fadd908b9085908110612825576128256144a9565b60209081029190910101516040516001600160e01b031960e084901b1681526001600160a01b039091166004820152306024820152604481018490526064016020604051808303816000875af1158015612883573d6000803e3d6000fd5b505050506040513d601f19601f820116820180604052508101906128a791906140b2565b506128ef8983815181106128bd576128bd6144a9565b602002602001015160e660009054906101000a90046001600160a01b031683308c878151811061252e5761252e6144a9565b6128f990846148e5565b92505b50600101612664565b5060e6546001600160401b038516600090815260e8602090815260408083205460e983528184206001600160a01b03918216808652935290832054929361295893911691908590309062ffffff16610fbf565b60408051600180825281830190925291925060009190816020015b60408051808201909152600080825260208201528152602001906001900390816129735750506001600160401b038716600090815260e8602052604081205482519293506001600160a01b0316918391906129d0576129d06144a9565b6020026020010151600001906001600160a01b031690816001600160a01b0316815250508181600081518110612a0857612a086144a9565b6020908102919091018101518101919091526040805160008082529281018381528183019092529190612a46906001908d908c8680606081016149c6565b60405160208183030381529060405290506000612a6789838a8760016130ad565b60008b815260ee602052604090819020829055519091508a9082907f2c80cd3884ced9a087f5eed6c8ddd78af4b449cdea210b92786f35bd496f534390612ab19042815260200190565b60405180910390a3505050505050505050505050565b604080516000808252602082019092529050600086516001600160401b03811115612af457612af4613e4c565b604051908082528060200260200182016040528015612b1d578160200160208202803683370190505b50905060005b8751811015612d265760e65488516001600160a01b0390911690899083908110612b4f57612b4f6144a9565b60200260200101516001600160a01b031603612c1557612bf2888281518110612b7a57612b7a6144a9565b602090810291909101015160d3546040516370a0823160e01b81526001600160a01b0391821660048201529116906370a0823190602401602060405180830381865afa158015612bce573d6000803e3d6000fd5b505050506040513d601f19601f820116820180604052508101906109979190614441565b828281518110612c0457612c046144a9565b602002602001018181525050612d1e565b6000612cf3898381518110612c2c57612c2c6144a9565b602002602001015160e660009054906101000a90046001600160a01b03168b8581518110612c5c57612c5c6144a9565b602090810291909101015160d3546040516370a0823160e01b81526001600160a01b0391821660048201529116906370a0823190602401602060405180830381865afa158015612cb0573d6000803e3d6000fd5b505050506040513d601f19601f82011682018060405250810190612cd49190614441565b8b8681518110612ce657612ce66144a9565b60200260200101516114fb565b9050612cfe816114b3565b838381518110612d1057612d106144a9565b602002602001018181525050505b600101612b23565b5060408051600080825260208201835291612d4e916002918b91908a908790899084016149c6565b6040516020818303038152906040529050612d6c85858360016111fe565b505050505050505050565b612da96040518060a0016040528060008152602001600081526020016000815260200160008152602001600081525090565b81515181526101008201518051600090612dc557612dc56144a9565b6020026020010151816020018181525050816101000151600181518110612dee57612dee6144a9565b6020026020010151816040018181525050816101000151600281518110612e1757612e176144a9565b60200260200101518160800181815250506000612e5682846000015185602001518660400151876060015188608001518960c001518a60e001516134d3565b60e65460a0850180516001600160401b03908116600090815260e8602081815260408084205486518616855260e9835281852096519095168452918152818320546001600160a01b03908116845294905281205494955093612ec793831692909116908590309062ffffff16610fbf565b60408051600180825281830190925291925060009190816020015b6040805180820190915260008082526020820152815260200190600190039081612ee257505060a08601516001600160401b0316600090815260e8602052604081205482519293506001600160a01b031691839190612f4357612f436144a9565b6020026020010151600001906001600160a01b031690816001600160a01b0316815250508181600081518110612f7b57612f7b6144a9565b602090810291909101810151810191909152604080516000808252818401835288519389015160e08a015192949193612fbe9360039392918790819081016149c6565b6040516020818303038152906040529050612fe58760a00151828960c001518660016130ad565b5050505050505050565b60a081015160e65460c083015160d35460009361301f9390926001600160a01b0391821692909116610bb8610fbf565b9050613049826000015183602001518460400151856060015186608001518688610140015161385a565b6040805160008082526020820181815282840190935261012085015191929161307e90600490849081908780606081016149c6565b60405160208183030381529060405290506130a58560e001518661010001518360016111fe565b505050505050565b815160d05460009190600160a01b900461ffff168111156131365760405162461bcd60e51b815260206004820152603760248201527f4d6178696d756d203520646966666572656e7420746f6b656e732063616e206260448201527f652073656e74207065722043434950204d6573736167650000000000000000006064820152608401610ba2565b60005b8181101561325c5760d05485516001600160a01b0390911690869083908110613164576131646144a9565b6020026020010151600001516001600160a01b03161461325457848181518110613190576131906144a9565b6020026020010151600001516001600160a01b031663095ea7b3600060029054906101000a90046001600160a01b03168784815181106131d2576131d26144a9565b6020026020010151602001516040518363ffffffff1660e01b815260040161320f9291906001600160a01b03929092168252602082015260400190565b6020604051808303816000875af115801561322e573d6000803e3d6000fd5b505050506040513d601f19601f8201168201806040525081019061325291906140b2565b505b600101613139565b506040805160a081019091526001600160a01b03861660c08201526000908060e0810160408051601f19818403018152918152908252602082018a9052810187905260600160018660018111156132b5576132b5614356565b146132c15760006132ce565b60d0546001600160a01b03165b6001600160a01b031681526020016132f66040518060200160405280620dbba0815250611c5f565b9052600080546040516320487ded60e01b81529293509091620100009091046001600160a01b0316906320487ded90613335908c90869060040161436c565b602060405180830381865afa158015613352573d6000803e3d6000fd5b505050506040513d601f19601f820116820180604052508101906133769190614441565b90506000600186600181111561338e5761338e614356565b03613414576000546040516396f4e9f960e01b8152620100009091046001600160a01b0316906396f4e9f9906133ca908d90879060040161436c565b6020604051808303816000875af11580156133e9573d6000803e3d6000fd5b505050506040513d601f19601f8201168201806040525081019061340d9190614441565b9050613493565b6000546040516396f4e9f960e01b8152620100009091046001600160a01b0316906396f4e9f990849061344d908e90889060040161436c565b60206040518083038185885af115801561346b573d6000803e3d6000fd5b50505050506040513d601f19601f820116820180604052508101906134909190614441565b90505b6040518181527f54791b38f3859327992a1ca0590ad3c0f08feba98d1a4f56ab0dca74d203392a9060200160405180910390a19998505050505050505050565b600061352b604051806101400160405280600081526020016000815260200160008152602001600081526020016000815260200160008152602001600081526020016000815260200160008152602001600081525090565b60e65460d3546040516370a0823160e01b81526001600160a01b0391821660048201529116906370a0823190602401602060405180830381865afa158015613577573d6000803e3d6000fd5b505050506040513d601f19601f8201168201806040525081019061359b9190614441565b60a082015260005b81518110156136f25760e6548a516000916001600160a01b0316908c90849081106135d0576135d06144a9565b60200260200101516001600160a01b0316036135f1575060a08201516136d4565b6136d18b8381518110613606576136066144a9565b602002602001015160e660009054906101000a90046001600160a01b03168d8581518110613636576136366144a9565b602090810291909101015160d3546040516370a0823160e01b81526001600160a01b0391821660048201529116906370a0823190602401602060405180830381865afa15801561368a573d6000803e3d6000fd5b505050506040513d601f19601f820116820180604052508101906136ae9190614441565b60d3548d516001600160a01b03909116908e908890811061252e5761252e6144a9565b90505b80836060018181516136e691906148e5565b905250506001016135a3565b50875160c082015260208a015160808b01516137179068056bc75e2d63100000614470565b6137219190614487565b60e082018190526040820151606083015161373c9190614470565b6137469190614487565b6101008201819052606082015161375d9190614a2f565b61012082015260005b8160c001518110156138475760e65489516001600160a01b03909116908a9083908110613795576137956144a9565b60200260200101516001600160a01b03161461383f57600061383c60e660009054906101000a90046001600160a01b03168b84815181106137d8576137d86144a9565b602002602001015185604001518a86815181106137f7576137f76144a9565b602002602001015187610100015161380f9190614470565b6138199190614487565b60d3548c516001600160a01b03909116908d908890811061252e5761252e6144a9565b50505b600101613766565b5061012001519998505050505050505050565b6138936040518060c001604052806000815260200160008152602001600081526020016000815260200160008152602001600081525090565b816001815181106138a6576138a66144a9565b602090810291909101810151825288519082015260e65460d3546040516370a0823160e01b81526001600160a01b0391821660048201529116906370a0823190602401602060405180830381865afa158015613906573d6000803e3d6000fd5b505050506040513d601f19601f8201168201806040525081019061392a9190614441565b60408201526000606082018190525b8160200151811015613a4b576000898281518110613959576139596144a9565b602090810291909101015160e6549091506000906001600160a01b039081169083160361398b57506040830151613a2c565b60e65460d3546040516370a0823160e01b81526001600160a01b039182166004820152613a2992859290811691908316906370a0823190602401602060405180830381865afa1580156139e2573d6000803e3d6000fd5b505050506040513d601f19601f82011682018060405250810190613a069190614441565b60d3548d516001600160a01b03909116908e908990811061252e5761252e6144a9565b90505b8084606001818151613a3e91906148e5565b9052505050600101613939565b506060810151613a5b90846148e5565b6080820152865160a082015260005b8160a00151811015612d6c576000888281518110613a8a57613a8a6144a9565b602002602001015190506000868381518110613aa857613aa86144a9565b602090810291909101015160e6549091506001600160a01b03838116911614613b265760e65484516080860151600092613b23926001600160a01b0390911691869190613af6908790614470565b613b009190614487565b60d3548d516001600160a01b03909116908e908a90811061252e5761252e6144a9565b50505b5050600101613a6a565b600060208284031215613b4257600080fd5b81356001600160e01b031981168114610ed657600080fd5b80356001600160401b0381168114613b7157600080fd5b919050565b6001600160a01b038116811461104157600080fd5b60008060008060008060008060006101208a8c031215613baa57600080fd5b613bb38a613b5a565b985060208a0135613bc381613b76565b975060408a0135613bd381613b76565b965060608a0135613be381613b76565b955060808a0135613bf381613b76565b945060a08a0135613c0381613b76565b935060c08a0135613c1381613b76565b925060e08a0135613c2381613b76565b91506101008a0135613c3481613b76565b809150509295985092959850929598565b600060208284031215613c5757600080fd5b610ed682613b5a565b600060208284031215613c7257600080fd5b8135610ed681613b76565b600060208284031215613c8f57600080fd5b5035919050565b60008060408385031215613ca957600080fd5b613cb283613b5a565b91506020830135613cc281613b76565b809150509250929050565b803562ffffff81168114613b7157600080fd5b600080600080600060a08688031215613cf857600080fd5b8535613d0381613b76565b94506020860135613d1381613b76565b9350604086013592506060860135613d2a81613b76565b9150613d3860808701613ccd565b90509295509295909350565b60008060408385031215613d5757600080fd5b823591506020830135613cc281613b76565b600060208284031215613d7b57600080fd5b81356001600160401b03811115613d9157600080fd5b820160a08185031215610ed657600080fd5b6000815180845260005b81811015613dc957602081850181015186830182015201613dad565b506000602082860101526020601f19601f83011685010191505092915050565b6001600160401b03861681526001600160a01b038516602082015260a060408201819052600090613e1c90830186613da3565b6001600160a01b0394909416606083015250608001529392505050565b602081526000610ed66020830184613da3565b634e487b7160e01b600052604160045260246000fd5b604080519081016001600160401b0381118282101715613e8457613e84613e4c565b60405290565b60405160a081016001600160401b0381118282101715613e8457613e84613e4c565b604051601f8201601f191681016001600160401b0381118282101715613ed457613ed4613e4c565b604052919050565b600082601f830112613eed57600080fd5b81356001600160401b03811115613f0657613f06613e4c565b613f19601f8201601f1916602001613eac565b818152846020838601011115613f2e57600080fd5b816020850160208301376000918101602001919091529392505050565b60008060008060808587031215613f6157600080fd5b613f6a85613b5a565b93506020850135613f7a81613b76565b925060408501356001600160401b03811115613f9557600080fd5b613fa187828801613edc565b925050606085013560028110613fb657600080fd5b939692955090935050565b60008060008060808587031215613fd757600080fd5b8435613fe281613b76565b93506020850135613ff281613b76565b92506040850135915061400760608601613ccd565b905092959194509250565b6000806000806080858703121561402857600080fd5b843561403381613b76565b9350602085013561404381613b76565b925060408501356001600160801b038116811461405f57600080fd5b915061400760608601613ccd565b60008060006060848603121561408257600080fd5b61408b84613b5a565b9250602084013561409b81613b76565b91506140a960408501613ccd565b90509250925092565b6000602082840312156140c457600080fd5b81518015158114610ed657600080fd5b805169ffffffffffffffffffff81168114613b7157600080fd5b600080600080600060a0868803121561410657600080fd5b61410f866140d4565b60208701516040880151606089015192975090955093509150613d38608087016140d4565b60006020828403121561414657600080fd5b815160ff81168114610ed657600080fd5b60006001600160401b0382111561417057614170613e4c565b5060051b60200190565b600082601f83011261418b57600080fd5b813561419e61419982614157565b613eac565b8082825260208201915060208360061b8601019250858311156141c057600080fd5b602085015b8381101561420c57604081880312156141dd57600080fd5b6141e5613e62565b81356141f081613b76565b81526020828101358183015290845292909201916040016141c5565b5095945050505050565b600060a0823603121561422857600080fd5b614230613e8a565b8235815261424060208401613b5a565b602082015260408301356001600160401b0381111561425e57600080fd5b61426a36828601613edc565b60408301525060608301356001600160401b0381111561428957600080fd5b61429536828601613edc565b60608301525060808301356001600160401b038111156142b457600080fd5b6142c03682860161417a565b60808301525092915050565b600181811c908216806142e057607f821691505b60208210810361430057634e487b7160e01b600052602260045260246000fd5b50919050565b60208082526030908201527f50726f706f7361626c654f776e61626c653a206e6577206f776e65722069732060408201526f746865207a65726f206164647265737360801b606082015260800190565b634e487b7160e01b600052602160045260246000fd5b6001600160401b0383168152604060208201526000825160a0604084015261439760e0840182613da3565b90506020840151603f198483030160608501526143b48282613da3565b6040860151858203603f19016080870152805180835260209182019450600093509101905b8083101561441057835180516001600160a01b031683526020908101518184015290930192600192909201916040909101906143d9565b5060608601516001600160a01b031660a08601526080860151858203603f190160c08701529250611a3e8184613da3565b60006020828403121561445357600080fd5b5051919050565b634e487b7160e01b600052601160045260246000fd5b8082028115828204841417610b0357610b0361445a565b6000826144a457634e487b7160e01b600052601260045260246000fd5b500490565b634e487b7160e01b600052603260045260246000fd5b600081518084526020840193506020830160005b828110156144fa5781516001600160a01b03168652602095860195909101906001016144d3565b5093949350505050565b8281526040602082015260006114ab60408301846144bf565b600082601f83011261452e57600080fd5b815161453c61419982614157565b8082825260208201915060208360051b86010192508583111561455e57600080fd5b602085015b8381101561420c578051835260209283019201614563565b60006020828403121561458d57600080fd5b81516001600160401b038111156145a357600080fd5b6114ab8482850161451d565b6020808252602b908201527f496e697469616c697a61626c653a20636f6e7472616374206973206e6f74206960408201526a6e697469616c697a696e6760a81b606082015260800190565b60ff8281168282160390811115610b0357610b0361445a565b6001815b600184111561464e578085048111156146325761463261445a565b600184161561464057908102905b60019390931c928002614617565b935093915050565b60008261466557506001610b03565b8161467257506000610b03565b81600181146146885760028114614692576146ae565b6001915050610b03565b60ff8411156146a3576146a361445a565b50506001821b610b03565b5060208310610133831016604e8410600b84101617156146d1575081810a610b03565b6146de6000198484614613565b80600019048211156146f2576146f261445a565b029392505050565b6000610ed660ff841683614656565b80820260008212600160ff1b841416156147255761472561445a565b8181058314821517610b0357610b0361445a565b60006020828403121561474b57600080fd5b8151610ed681613b76565b600082601f83011261476757600080fd5b815161477561419982614157565b8082825260208201915060208360051b86010192508583111561479757600080fd5b602085015b8381101561420c5780516147af81613b76565b83526020928301920161479c565b600080600080600080600080610100898b0312156147da57600080fd5b885160208a01519098506001600160401b038111156147f857600080fd5b6148048b828c01614756565b97505060408901516001600160401b0381111561482057600080fd5b61482c8b828c01614756565b96505060608901516001600160401b0381111561484857600080fd5b6148548b828c0161451d565b95505060808901516001600160401b0381111561487057600080fd5b61487c8b828c0161451d565b60a08b015160c08c0151919650945090506001600160401b038111156148a157600080fd5b6148ad8b828c0161451d565b92505060e08901516001600160401b038111156148c957600080fd5b6148d58b828c0161451d565b9150509295985092959890939650565b80820180821115610b0357610b0361445a565b81516001600160a01b03908116825260208084015182169083015260408084015162ffffff169083015260608084015191821690830152610100820190506080830151608083015260a083015160a083015260c083015160c083015260e083015161496e60e08401826001600160a01b03169052565b5092915050565b85815284602082015260a060408201526000613e1c60a08301866144bf565b600081518084526020840193506020830160005b828110156144fa5781518652602095860195909101906001016149a8565b60ff8716815260c0602082015260006149e260c08301886144bf565b82810360408401526149f481886144bf565b90508560608401528281036080840152614a0e8186614994565b905082810360a0840152614a228185614994565b9998505050505050505050565b81810381811115610b0357610b0361445a56fea264697066735822122058c46b590f7890827d246c81a7fab79d407986714b411a2454f167540527a52f64736f6c634300081a0033","linkReferences":{}},"methodIdentifiers":{"ccipReceive((bytes32,uint64,bytes,bytes,(address,uint256)[]))":"85572ffb","convertEthToUsd(uint256)":"c086381e","crossChainToken(uint64)":"19da7e2a","crossChainTokenSwapFee(uint64,address)":"652354ae","currentChainSelector()":"3d54cb6f","estimateAmountOut(address,address,uint128,uint24)":"ee7bd3e2","factoryV3()":"1d5f45f5","fee()":"ddca3f43","feeRate()":"978bbdb9","feeRatePerDayScaled()":"2fecd589","feeReceiver()":"b3f00674","feeTimestamp()":"184a732f","getAmountOut(address,address,uint256,uint24)":"dd811ac9","getRouter()":"b0f479a1","i_link()":"7d253aff","i_maxTokensLength()":"5b6a0351","initialize(uint64,address,address,address,address,address,address,address,address)":"17c27b76","isRestricted(address)":"c01bc982","issuanceCompletedTokensCount(uint256)":"94037369","issuanceMessageIdByNonce(uint256)":"9121c717","issuanceTokenOldAndNewValues(uint256,address)":"81b15279","latestFeeUpdate()":"011ced5f","messageDetail(bytes32)":"9c3ddb2e","methodologist()":"9f8e67bf","methodology()":"9eeb1d50","minter()":"07546172","oraclePayment()":"0c02e130","owner()":"8da5cb5b","pause()":"8456cb59","paused()":"5c975abb","priceInWei()":"3c8da588","priceOracle()":"2630c12f","proposeOwner(address)":"b5ed298a","proposedOwner()":"d153b60c","quoter()":"c6bbd5a7","receivedMessages(uint256)":"d030366c","redemptionMessageIdByNonce(uint256)":"306b3a28","renounceOwnership()":"715018a6","sendMessage(uint64,address,bytes,uint8)":"bcab90b3","setCcipRouter(address)":"27bf9b44","setCrossChainToken(uint64,address,uint24)":"f0cd5b72","setPriceOracle(address)":"530e784f","setVault(address)":"6817031b","sourceChainSelectorF()":"ff5474f0","supplyCeiling()":"2b52684d","supportsInterface(bytes4)":"01ffc9a7","swap(address,address,uint256,address,uint24)":"7e79f512","swapRouterV2()":"744fbc7a","swapRouterV3()":"b631e80b","toUsdPriceFeed()":"63973fda","transferOwnership(address)":"f2fde38b","unpause()":"3f4ba83a","vault()":"fbfa77cf","weth()":"3fc8cef3"},"id":45}