{"abi":[{"type":"receive","stateMutability":"payable"},{"type":"function","name":"ccipReceive","inputs":[{"name":"message","type":"tuple","internalType":"struct Client.Any2EVMMessage","components":[{"name":"messageId","type":"bytes32","internalType":"bytes32"},{"name":"sourceChainSelector","type":"uint64","internalType":"uint64"},{"name":"sender","type":"bytes","internalType":"bytes"},{"name":"data","type":"bytes","internalType":"bytes"},{"name":"destTokenAmounts","type":"tuple[]","internalType":"struct Client.EVMTokenAmount[]","components":[{"name":"token","type":"address","internalType":"address"},{"name":"amount","type":"uint256","internalType":"uint256"}]}]}],"outputs":[],"stateMutability":"nonpayable"},{"type":"function","name":"convertEthToUsd","inputs":[{"name":"_ethAmount","type":"uint256","internalType":"uint256"}],"outputs":[{"name":"","type":"uint256","internalType":"uint256"}],"stateMutability":"view"},{"type":"function","name":"crossChainToken","inputs":[{"name":"","type":"uint64","internalType":"uint64"}],"outputs":[{"name":"","type":"address","internalType":"address"}],"stateMutability":"view"},{"type":"function","name":"crossChainTokenSwapFee","inputs":[{"name":"","type":"uint64","internalType":"uint64"},{"name":"","type":"address","internalType":"address"}],"outputs":[{"name":"","type":"uint24","internalType":"uint24"}],"stateMutability":"view"},{"type":"function","name":"currentChainSelector","inputs":[],"outputs":[{"name":"","type":"uint64","internalType":"uint64"}],"stateMutability":"view"},{"type":"function","name":"estimateAmountOut","inputs":[{"name":"tokenIn","type":"address","internalType":"address"},{"name":"tokenOut","type":"address","internalType":"address"},{"name":"amountIn","type":"uint128","internalType":"uint128"},{"name":"secondsAgo","type":"uint32","internalType":"uint32"}],"outputs":[{"name":"amountOut","type":"uint256","internalType":"uint256"}],"stateMutability":"view"},{"type":"function","name":"factoryV3","inputs":[],"outputs":[{"name":"","type":"address","internalType":"contract IUniswapV3Factory"}],"stateMutability":"view"},{"type":"function","name":"fee","inputs":[],"outputs":[{"name":"","type":"uint256","internalType":"uint256"}],"stateMutability":"view"},{"type":"function","name":"feeRate","inputs":[],"outputs":[{"name":"","type":"uint8","internalType":"uint8"}],"stateMutability":"view"},{"type":"function","name":"feeRatePerDayScaled","inputs":[],"outputs":[{"name":"","type":"uint256","internalType":"uint256"}],"stateMutability":"view"},{"type":"function","name":"feeReceiver","inputs":[],"outputs":[{"name":"","type":"address","internalType":"address"}],"stateMutability":"view"},{"type":"function","name":"feeTimestamp","inputs":[],"outputs":[{"name":"","type":"uint256","internalType":"uint256"}],"stateMutability":"view"},{"type":"function","name":"getAmountOut","inputs":[{"name":"tokenIn","type":"address","internalType":"address"},{"name":"tokenOut","type":"address","internalType":"address"},{"name":"amountIn","type":"uint256","internalType":"uint256"},{"name":"_swapFee","type":"uint256","internalType":"uint256"}],"outputs":[{"name":"finalAmountOut","type":"uint256","internalType":"uint256"}],"stateMutability":"view"},{"type":"function","name":"getRouter","inputs":[],"outputs":[{"name":"","type":"address","internalType":"address"}],"stateMutability":"view"},{"type":"function","name":"i_link","inputs":[],"outputs":[{"name":"","type":"address","internalType":"address"}],"stateMutability":"view"},{"type":"function","name":"i_maxTokensLength","inputs":[],"outputs":[{"name":"","type":"uint16","internalType":"uint16"}],"stateMutability":"view"},{"type":"function","name":"initialize","inputs":[{"name":"_currentChainSelector","type":"uint64","internalType":"uint64"},{"name":"_vault","type":"address","internalType":"address payable"},{"name":"_chainlinkToken","type":"address","internalType":"address"},{"name":"_router","type":"address","internalType":"address"},{"name":"_weth","type":"address","internalType":"address"},{"name":"_swapRouterV3","type":"address","internalType":"address"},{"name":"_factoryV3","type":"address","internalType":"address"},{"name":"_swapRouterV2","type":"address","internalType":"address"},{"name":"_toUsdPriceFeed","type":"address","internalType":"address"}],"outputs":[],"stateMutability":"nonpayable"},{"type":"function","name":"isRestricted","inputs":[{"name":"","type":"address","internalType":"address"}],"outputs":[{"name":"","type":"bool","internalType":"bool"}],"stateMutability":"view"},{"type":"function","name":"issuanceCompletedTokensCount","inputs":[{"name":"","type":"uint256","internalType":"uint256"}],"outputs":[{"name":"","type":"uint256","internalType":"uint256"}],"stateMutability":"view"},{"type":"function","name":"issuanceMessageIdByNonce","inputs":[{"name":"","type":"uint256","internalType":"uint256"}],"outputs":[{"name":"","type":"bytes32","internalType":"bytes32"}],"stateMutability":"view"},{"type":"function","name":"issuanceTokenOldAndNewValues","inputs":[{"name":"","type":"uint256","internalType":"uint256"},{"name":"","type":"address","internalType":"address"}],"outputs":[{"name":"oldTokenValue","type":"uint256","internalType":"uint256"},{"name":"newTokenValue","type":"uint256","internalType":"uint256"}],"stateMutability":"view"},{"type":"function","name":"latestFeeUpdate","inputs":[],"outputs":[{"name":"","type":"uint256","internalType":"uint256"}],"stateMutability":"view"},{"type":"function","name":"messageDetail","inputs":[{"name":"","type":"bytes32","internalType":"bytes32"}],"outputs":[{"name":"sourceChainSelector","type":"uint64","internalType":"uint64"},{"name":"sender","type":"address","internalType":"address"},{"name":"message","type":"string","internalType":"string"},{"name":"token","type":"address","internalType":"address"},{"name":"amount","type":"uint256","internalType":"uint256"}],"stateMutability":"view"},{"type":"function","name":"methodologist","inputs":[],"outputs":[{"name":"","type":"address","internalType":"address"}],"stateMutability":"view"},{"type":"function","name":"methodology","inputs":[],"outputs":[{"name":"","type":"string","internalType":"string"}],"stateMutability":"view"},{"type":"function","name":"minter","inputs":[],"outputs":[{"name":"","type":"address","internalType":"address"}],"stateMutability":"view"},{"type":"function","name":"oraclePayment","inputs":[],"outputs":[{"name":"","type":"uint256","internalType":"uint256"}],"stateMutability":"view"},{"type":"function","name":"owner","inputs":[],"outputs":[{"name":"","type":"address","internalType":"address"}],"stateMutability":"view"},{"type":"function","name":"pause","inputs":[],"outputs":[],"stateMutability":"nonpayable"},{"type":"function","name":"paused","inputs":[],"outputs":[{"name":"","type":"bool","internalType":"bool"}],"stateMutability":"view"},{"type":"function","name":"priceInWei","inputs":[],"outputs":[{"name":"","type":"uint256","internalType":"uint256"}],"stateMutability":"view"},{"type":"function","name":"priceOracle","inputs":[],"outputs":[{"name":"","type":"address","internalType":"address"}],"stateMutability":"view"},{"type":"function","name":"proposeOwner","inputs":[{"name":"_proposedOwner","type":"address","internalType":"address"}],"outputs":[],"stateMutability":"nonpayable"},{"type":"function","name":"proposedOwner","inputs":[],"outputs":[{"name":"","type":"address","internalType":"address"}],"stateMutability":"view"},{"type":"function","name":"quoter","inputs":[],"outputs":[{"name":"","type":"address","internalType":"contract IQuoter"}],"stateMutability":"view"},{"type":"function","name":"receivedMessages","inputs":[{"name":"","type":"uint256","internalType":"uint256"}],"outputs":[{"name":"","type":"bytes32","internalType":"bytes32"}],"stateMutability":"view"},{"type":"function","name":"redemptionMessageIdByNonce","inputs":[{"name":"","type":"uint256","internalType":"uint256"}],"outputs":[{"name":"","type":"bytes32","internalType":"bytes32"}],"stateMutability":"view"},{"type":"function","name":"renounceOwnership","inputs":[],"outputs":[],"stateMutability":"nonpayable"},{"type":"function","name":"sendMessage","inputs":[{"name":"destinationChainSelector","type":"uint64","internalType":"uint64"},{"name":"receiver","type":"address","internalType":"address"},{"name":"_data","type":"bytes","internalType":"bytes"},{"name":"payFeesIn","type":"uint8","internalType":"enum CrossChainIndexFactory.PayFeesIn"}],"outputs":[{"name":"","type":"bytes32","internalType":"bytes32"}],"stateMutability":"nonpayable"},{"type":"function","name":"setCcipRouter","inputs":[{"name":"_router","type":"address","internalType":"address"}],"outputs":[],"stateMutability":"nonpayable"},{"type":"function","name":"setCrossChainToken","inputs":[{"name":"_chainSelector","type":"uint64","internalType":"uint64"},{"name":"_crossChainToken","type":"address","internalType":"address"},{"name":"_swapFee","type":"uint24","internalType":"uint24"}],"outputs":[],"stateMutability":"nonpayable"},{"type":"function","name":"setPriceOracle","inputs":[{"name":"_priceOracle","type":"address","internalType":"address"}],"outputs":[],"stateMutability":"nonpayable"},{"type":"function","name":"setVault","inputs":[{"name":"_vault","type":"address","internalType":"address payable"}],"outputs":[],"stateMutability":"nonpayable"},{"type":"function","name":"sourceChainSelectorF","inputs":[],"outputs":[{"name":"","type":"uint64","internalType":"uint64"}],"stateMutability":"view"},{"type":"function","name":"supplyCeiling","inputs":[],"outputs":[{"name":"","type":"uint256","internalType":"uint256"}],"stateMutability":"view"},{"type":"function","name":"supportsInterface","inputs":[{"name":"interfaceId","type":"bytes4","internalType":"bytes4"}],"outputs":[{"name":"","type":"bool","internalType":"bool"}],"stateMutability":"pure"},{"type":"function","name":"swap","inputs":[{"name":"tokenIn","type":"address","internalType":"address"},{"name":"tokenOut","type":"address","internalType":"address"},{"name":"amountIn","type":"uint256","internalType":"uint256"},{"name":"_recipient","type":"address","internalType":"address"},{"name":"_swapFee","type":"uint24","internalType":"uint24"}],"outputs":[{"name":"outputAmount","type":"uint256","internalType":"uint256"}],"stateMutability":"nonpayable"},{"type":"function","name":"swapRouterV2","inputs":[],"outputs":[{"name":"","type":"address","internalType":"contract IUniswapV2Router02"}],"stateMutability":"view"},{"type":"function","name":"swapRouterV3","inputs":[],"outputs":[{"name":"","type":"address","internalType":"contract ISwapRouter"}],"stateMutability":"view"},{"type":"function","name":"toUsdPriceFeed","inputs":[],"outputs":[{"name":"","type":"address","internalType":"contract AggregatorV3Interface"}],"stateMutability":"view"},{"type":"function","name":"transferOwnership","inputs":[{"name":"newOwner","type":"address","internalType":"address"}],"outputs":[],"stateMutability":"nonpayable"},{"type":"function","name":"unpause","inputs":[],"outputs":[],"stateMutability":"nonpayable"},{"type":"function","name":"vault","inputs":[],"outputs":[{"name":"","type":"address","internalType":"contract Vault"}],"stateMutability":"view"},{"type":"function","name":"weth","inputs":[],"outputs":[{"name":"","type":"address","internalType":"contract IWETH"}],"stateMutability":"view"},{"type":"event","name":"ChainlinkCancelled","inputs":[{"name":"id","type":"bytes32","indexed":true,"internalType":"bytes32"}],"anonymous":false},{"type":"event","name":"ChainlinkFulfilled","inputs":[{"name":"id","type":"bytes32","indexed":true,"internalType":"bytes32"}],"anonymous":false},{"type":"event","name":"ChainlinkRequested","inputs":[{"name":"id","type":"bytes32","indexed":true,"internalType":"bytes32"}],"anonymous":false},{"type":"event","name":"Initialized","inputs":[{"name":"version","type":"uint8","indexed":false,"internalType":"uint8"}],"anonymous":false},{"type":"event","name":"Issuanced","inputs":[{"name":"messageId","type":"bytes32","indexed":true,"internalType":"bytes32"},{"name":"nonce","type":"uint256","indexed":true,"internalType":"uint256"},{"name":"time","type":"uint256","indexed":false,"internalType":"uint256"}],"anonymous":false},{"type":"event","name":"MessageSent","inputs":[{"name":"messageId","type":"bytes32","indexed":false,"internalType":"bytes32"}],"anonymous":false},{"type":"event","name":"OwnershipTransferred","inputs":[{"name":"previousOwner","type":"address","indexed":true,"internalType":"address"},{"name":"newOwner","type":"address","indexed":true,"internalType":"address"}],"anonymous":false},{"type":"event","name":"Paused","inputs":[{"name":"account","type":"address","indexed":false,"internalType":"address"}],"anonymous":false},{"type":"event","name":"Redemption","inputs":[{"name":"messageId","type":"bytes32","indexed":true,"internalType":"bytes32"},{"name":"nonce","type":"uint256","indexed":true,"internalType":"uint256"},{"name":"time","type":"uint256","indexed":false,"internalType":"uint256"}],"anonymous":false},{"type":"event","name":"Unpaused","inputs":[{"name":"account","type":"address","indexed":false,"internalType":"address"}],"anonymous":false},{"type":"error","name":"InvalidRouter","inputs":[{"name":"router","type":"address","internalType":"address"}]}],"bytecode":{"object":"0x608060405234801561001057600080fd5b50614c08806100206000396000f3fe6080604052600436106103395760003560e01c80637e79f512116101ab578063b5ed298a116100f7578063d030366c11610095578063f0cd5b721161006f578063f0cd5b7214610a52578063f2fde38b14610a72578063fbfa77cf14610a92578063ff5474f014610ab257600080fd5b8063d030366c146109fc578063d153b60c14610a1c578063ddca3f4314610a3c57600080fd5b8063bf938db8116100d1578063bf938db81461096c578063c01bc9821461098c578063c086381e146109bc578063c6bbd5a7146109dc57600080fd5b8063b5ed298a1461090c578063b631e80b1461092c578063bcab90b31461094c57600080fd5b806394037369116101645780639eeb1d501161013e5780639eeb1d50146108865780639f8e67bf146108a8578063b0f479a1146108c8578063b3f00674146108ec57600080fd5b806394037369146107fc578063978bbdb9146108295780639c3ddb2e1461085557600080fd5b80637e79f5121461070857806381b15279146107285780638456cb591461077c57806385572ffb146107915780638da5cb5b146107b15780639121c717146107cf57600080fd5b8063306b3a28116102855780635c975abb116102235780636817031b116101fd5780636817031b14610693578063715018a6146106b3578063744fbc7a146106c85780637d253aff146106e857600080fd5b80635c975abb1461060a57806363973fda14610622578063652354ae1461064257600080fd5b80633f4ba83a1161025f5780633f4ba83a146105805780633fc8cef314610595578063530e784f146105b55780635b6a0351146105d557600080fd5b8063306b3a28146105065780633c8da588146105335780633d54cb6f1461054857600080fd5b8063184a732f116102f25780632630c12f116102cc5780632630c12f1461049a57806327bf9b44146104ba5780632b52684d146104da5780632fecd589146104f057600080fd5b8063184a732f1461042e57806319da7e2a146104445780631d5f45f51461047a57600080fd5b8063011ced5f1461034557806301ffc9a71461036e578063075461721461039e5780630c02e130146103d657806313cb1f83146103ec57806317c27b761461040c57600080fd5b3661034057005b600080fd5b34801561035157600080fd5b5061035b60d65481565b6040519081526020015b60405180910390f35b34801561037a57600080fd5b5061038e6103893660046140c1565b610ad2565b6040519015158152602001610365565b3480156103aa57600080fd5b5060dd546103be906001600160a01b031681565b6040516001600160a01b039091168152602001610365565b3480156103e257600080fd5b5061035b60e15481565b3480156103f857600080fd5b5061035b610407366004613ff3565b610b09565b34801561041857600080fd5b5061042c6104273660046142a5565b610c59565b005b34801561043a57600080fd5b5061035b60d95481565b34801561045057600080fd5b506103be61045f36600461425e565b60e8602052600090815260409020546001600160a01b031681565b34801561048657600080fd5b5060e4546103be906001600160a01b031681565b3480156104a657600080fd5b5060dc546103be906001600160a01b031681565b3480156104c657600080fd5b5061042c6104d5366004613ee4565b610efc565b3480156104e657600080fd5b5061035b60df5481565b3480156104fc57600080fd5b5061035b60d85481565b34801561051257600080fd5b5061035b61052136600461408f565b60ee6020526000908152604090205481565b34801561053f57600080fd5b5061035b610f2e565b34801561055457600080fd5b5060d754610568906001600160401b031681565b6040516001600160401b039091168152602001610365565b34801561058c57600080fd5b5061042c61105a565b3480156105a157600080fd5b5060e6546103be906001600160a01b031681565b3480156105c157600080fd5b5061042c6105d0366004613ee4565b61106c565b3480156105e157600080fd5b5060d0546105f790600160a01b900461ffff1681565b60405161ffff9091168152602001610365565b34801561061657600080fd5b50609e5460ff1661038e565b34801561062e57600080fd5b5060e2546103be906001600160a01b031681565b34801561064e57600080fd5b5061067f61065d366004614279565b60e960209081526000928352604080842090915290825290205462ffffff1681565b60405162ffffff9091168152602001610365565b34801561069f57600080fd5b5061042c6106ae366004613ee4565b611100565b3480156106bf57600080fd5b5061042c61112a565b3480156106d457600080fd5b5060e5546103be906001600160a01b031681565b3480156106f457600080fd5b5060d0546103be906001600160a01b031681565b34801561071457600080fd5b5061035b610723366004613f8f565b61113c565b34801561073457600080fd5b50610767610743366004614125565b60ec6020908152600092835260408084209091529082529020805460019091015482565b60408051928352602083019190915201610365565b34801561078857600080fd5b5061042c61116a565b34801561079d57600080fd5b5061042c6107ac3660046140eb565b61117a565b3480156107bd57600080fd5b506039546001600160a01b03166103be565b3480156107db57600080fd5b5061035b6107ea36600461408f565b60ef6020526000908152604090205481565b34801561080857600080fd5b5061035b61081736600461408f565b60ed6020526000908152604090205481565b34801561083557600080fd5b5060d5546108439060ff1681565b60405160ff9091168152602001610365565b34801561086157600080fd5b5061087561087036600461408f565b6111c1565b6040516103659594939291906146a3565b34801561089257600080fd5b5061089b61129d565b60405161036591906145a0565b3480156108b457600080fd5b5060db546103be906001600160a01b031681565b3480156108d457600080fd5b506000546201000090046001600160a01b03166103be565b3480156108f857600080fd5b5060da546103be906001600160a01b031681565b34801561091857600080fd5b5061042c610927366004613ee4565b61132b565b34801561093857600080fd5b5060e3546103be906001600160a01b031681565b34801561095857600080fd5b5061035b61096736600461435f565b61137b565b34801561097857600080fd5b5061035b610987366004613f1e565b61165c565b34801561099857600080fd5b5061038e6109a7366004613ee4565b60e06020526000908152604090205460ff1681565b3480156109c857600080fd5b5061035b6109d736600461408f565b611708565b3480156109e857600080fd5b5060e7546103be906001600160a01b031681565b348015610a0857600080fd5b5061035b610a1736600461408f565b61172f565b348015610a2857600080fd5b50606b546103be906001600160a01b031681565b348015610a4857600080fd5b5061035b60d45481565b348015610a5e57600080fd5b5061042c610a6d3660046143ca565b611750565b348015610a7e57600080fd5b5061042c610a8d366004613ee4565b6117b7565b348015610a9e57600080fd5b5060d3546103be906001600160a01b031681565b348015610abe57600080fd5b5060eb54610568906001600160401b031681565b60006001600160e01b031982166385572ffb60e01b1480610b0357506001600160e01b031982166301ffc9a760e01b145b92915050565b60008215610c51578160031415610b2e57610b27858585600161165c565b9050610c51565b6040805160028082526060820183526000926020830190803683370190505090508581600081518110610b6357610b63614b91565b60200260200101906001600160a01b031690816001600160a01b0316815250508481600181518110610b9757610b97614b91565b6001600160a01b03928316602091820292909201015260e55460405163d06ca61f60e01b8152600092919091169063d06ca61f90610bdb908890869060040161464e565b60006040518083038186803b158015610bf357600080fd5b505afa158015610c07573d6000803e3d6000fd5b505050506040513d6000823e601f3d908101601f19168201604052610c2f9190810190614039565b905080600181518110610c4457610c44614b91565b6020026020010151925050505b949350505050565b600054610100900460ff1615808015610c795750600054600160ff909116105b80610c935750303b158015610c93575060005460ff166001145b610cfb5760405162461bcd60e51b815260206004820152602e60248201527f496e697469616c697a61626c653a20636f6e747261637420697320616c72656160448201526d191e481a5b9a5d1a585b1a5e995960921b60648201526084015b60405180910390fd5b6000805460ff191660011790558015610d1e576000805461ff0019166101001790555b610d266118dc565b610d2e61190b565b60d780546001600160401b038c1667ffffffffffffffff1990911617905560d380546001600160a01b038b166001600160a01b0319909116179055610d9088600380546001600160a01b039092166001600160a01b0319909216919091179055565b6000805462010000600160b01b031916620100006001600160a01b038a81168202929092179283905560d080548c84166001600160b01b03199091168117600560a01b1790915560405163095ea7b360e01b8152919093049091166004820152600019602482015263095ea7b390604401602060405180830381600087803b158015610e1b57600080fd5b505af1158015610e2f573d6000803e3d6000fd5b505050506040513d601f19601f82011682018060405250810190610e53919061406d565b5060e680546001600160a01b03199081166001600160a01b038981169190911790925560e38054821688841617905560e48054821687841617905560e58054821686841617905560e280549091169184169190911790558015610ef0576000805461ff0019169055604051600181527f7f26b83ff96e1f2b6a682f133852f6798a09c465da95921460cefb38474024989060200160405180910390a15b50505050505050505050565b610f0461193a565b600080546001600160a01b03909216620100000262010000600160b01b0319909216919091179055565b60008060e260009054906101000a90046001600160a01b03166001600160a01b031663feaf968c6040518163ffffffff1660e01b815260040160a06040518083038186803b158015610f7f57600080fd5b505afa158015610f93573d6000803e3d6000fd5b505050506040513d601f19601f82011682018060405250810190610fb7919061440f565b505050915050600060e260009054906101000a90046001600160a01b03166001600160a01b031663313ce5676040518163ffffffff1660e01b815260040160206040518083038186803b15801561100d57600080fd5b505afa158015611021573d6000803e3d6000fd5b505050506040513d601f19601f820116820180604052508101906110459190614453565b905061105382826012611994565b9392505050565b61106261193a565b61106a6119d4565b565b61107461193a565b6001600160a01b0381166110de5760405162461bcd60e51b815260206004820152602b60248201527f5072696365206f7261636c6520616464726573732063616e6e6f74206265207a60448201526a65726f206164647265737360a81b6064820152608401610cf2565b60dc80546001600160a01b0319166001600160a01b0392909216919091179055565b61110861193a565b60d380546001600160a01b0319166001600160a01b0392909216919091179055565b61113261193a565b61106a6000611a26565b60e35460e554600091611160916001600160a01b0391821691168489898989611a78565b9695505050505050565b61117261193a565b61106a611ab5565b6000546201000090046001600160a01b031633146111ad576040516335fdcccd60e21b8152336004820152602401610cf2565b6111be6111b982614a63565b611af2565b50565b60d260205260009081526040902080546001820180546001600160401b03831693680100000000000000009093046001600160a01b031692919061120490614b0f565b80601f016020809104026020016040519081016040528092919081815260200182805461123090614b0f565b801561127d5780601f106112525761010080835404028352916020019161127d565b820191906000526020600020905b81548152906001019060200180831161126057829003601f168201915b50505050600283015460039093015491926001600160a01b031691905085565b60de80546112aa90614b0f565b80601f01602080910402602001604051908101604052809291908181526020018280546112d690614b0f565b80156113235780601f106112f857610100808354040283529160200191611323565b820191906000526020600020905b81548152906001019060200180831161130657829003601f168201915b505050505081565b61133361193a565b6001600160a01b0381166113595760405162461bcd60e51b8152600401610cf2906145b3565b606b80546001600160a01b0319166001600160a01b0392909216919091179055565b6040805160a081019091526001600160a01b03841660c082015260009081908060e0810160408051808303601f1901815291815290825260208083018890528151600080825291810183529290910191906113f8565b60408051808201909152600080825260208201528152602001906001900390816113d15790505b508152602001600185600181111561141257611412614b7b565b1461141e57600061142b565b60d0546001600160a01b03165b6001600160a01b031681526020016114536040518060200160405280620dbba0815250611cd0565b9052600080546040516320487ded60e01b81529293509091620100009091046001600160a01b0316906320487ded90611492908a9086906004016146e7565b60206040518083038186803b1580156114aa57600080fd5b505afa1580156114be573d6000803e3d6000fd5b505050506040513d601f19601f820116820180604052508101906114e291906140a8565b9050600060018560018111156114fa576114fa614b7b565b1415611590576000546040516396f4e9f960e01b8152620100009091046001600160a01b0316906396f4e9f990611537908b9087906004016146e7565b602060405180830381600087803b15801561155157600080fd5b505af1158015611565573d6000803e3d6000fd5b505050506040513d601f19601f8201168201806040525081019061158991906140a8565b905061161e565b6000546040516396f4e9f960e01b8152620100009091046001600160a01b0316906396f4e9f99084906115c9908c9088906004016146e7565b6020604051808303818588803b1580156115e257600080fd5b505af11580156115f6573d6000803e3d6000fd5b50505050506040513d601f19601f8201168201806040525081019061161b91906140a8565b90505b6040518181527f54791b38f3859327992a1ca0590ad3c0f08feba98d1a4f56ab0dca74d203392a9060200160405180910390a1979650505050505050565b60dc5460e4546040516304a10b8960e51b81526001600160a01b039182166004820152868216602482015285821660448201526001600160801b0385166064820152600092919091169063942171209060840160206040518083038186803b1580156116c757600080fd5b505afa1580156116db573d6000803e3d6000fd5b505050506040513d601f19601f820116820180604052508101906116ff91906140a8565b95945050505050565b6000670de0b6b3a764000061171b610f2e565b6117259084614a0a565b610b039190614875565b60d1818154811061173f57600080fd5b600091825260209091200154905081565b61175861193a565b6001600160401b0392909216600090815260e86020908152604080832080546001600160a01b0319166001600160a01b0395909516948517905560e9825280832093835292905220805462ffffff191662ffffff909216919091179055565b6001600160a01b0381166117dd5760405162461bcd60e51b8152600401610cf2906145b3565b606b546001600160a01b038281169116146118555760405162461bcd60e51b815260206004820152603260248201527f50726f706f7361626c654f776e61626c653a206e6577206f776e6572206973206044820152713737ba10383937b837b9b2b21037bbb732b960711b6064820152608401610cf2565b6001600160a01b03811633146118d35760405162461bcd60e51b815260206004820152603a60248201527f50726f706f7361626c654f776e61626c653a20746869732063616c6c206d757360448201527f74206265206d61646520627920746865206e6577206f776e65720000000000006064820152608401610cf2565b6111be81611a26565b600054610100900460ff166119035760405162461bcd60e51b8152600401610cf290614603565b61106a611d0d565b600054610100900460ff166119325760405162461bcd60e51b8152600401610cf290614603565b61106a611d3d565b6039546001600160a01b0316331461106a5760405162461bcd60e51b815260206004820181905260248201527f4f776e61626c653a2063616c6c6572206973206e6f7420746865206f776e65726044820152606401610cf2565b60008260ff168260ff1611156119ca576119ae8383614a40565b6119b990600a6148da565b6119c39085614985565b9050611053565b6119ae8284614a40565b6119dc611d70565b609e805460ff191690557f5db9ee0a495bf2e6ff9c91a7834c1ba4fdd244a5e8aa4e537bd38aeae4b073aa335b6040516001600160a01b03909116815260200160405180910390a1565b603980546001600160a01b038381166001600160a01b0319831681179093556040519116919082907f8be0079c531659141344cd1fd0a4f28419497f9722a3daafe3b4186f6b6457e090600090a35050565b600062ffffff861615611a9a57611a93888787878787611db9565b9050611aaa565b611aa78786868686611f8c565b90505b979650505050505050565b611abd6121a2565b609e805460ff191660011790557f62e78cea01bee320cd4e420270b5ea74000d11b0c9f74754ebdbfc544b05a258611a093390565b60008160200151905060008260400151806020019051810190611b159190613f01565b90506000806000806000806000808a60600151806020019051810190611b3b9190614155565b975097509750975097509750975097508760001415611b6f5760808b0151611b69818988878f8f89896121e8565b50611cc3565b8760011415611b8b57611b868786858d8d8661279b565b611cc3565b8760021415611ba157611b868786858d8d612b7f565b8760031415611c0457611b866040518061012001604052808981526020018881526020018781526020018681526020018481526020018c6001600160401b031681526020018b6001600160a01b0316815260200185815260200183815250612e58565b8760041415611cc35760008b608001519050611cc16040518061016001604052808a815260200189815260200188815260200187815260200185815260200183600081518110611c5657611c56614b91565b6020026020010151600001516001600160a01b0316815260200183600081518110611c8357611c83614b91565b60200260200101516020015181526020018d6001600160401b031681526020018c6001600160a01b03168152602001868152602001848152506130d0565b505b5050505050505050505050565b60408051915160248084019190915281518084039091018152604490920190526020810180516001600160e01b03166397a657c960e01b17905290565b600054610100900460ff16611d345760405162461bcd60e51b8152600401610cf290614603565b61106a33611a26565b600054610100900460ff16611d645760405162461bcd60e51b8152600401610cf290614603565b609e805460ff19169055565b609e5460ff1661106a5760405162461bcd60e51b815260206004820152601460248201527314185d5cd8589b194e881b9bdd081c185d5cd95960621b6044820152606401610cf2565b60405163095ea7b360e01b81526001600160a01b038781166004830152602482018490526000919086169063095ea7b390604401602060405180830381600087803b158015611e0757600080fd5b505af1158015611e1b573d6000803e3d6000fd5b505050506040513d601f19601f82011682018060405250810190611e3f919061406d565b506000604051806101000160405280876001600160a01b03168152602001866001600160a01b031681526020018862ffffff168152602001846001600160a01b031681526020014261012c611e94919061485d565b8152602080820187905260006040808401829052606093840191909152805163414bf38960e01b815284516001600160a01b03908116600483015292850151831660248201529084015162ffffff16604482015291830151811660648301526080830151608483015260a083015160a483015260c083015160c483015260e0830151811660e48301529192509089169063414bf3899061010401602060405180830381600087803b158015611f4857600080fd5b505af1158015611f5c573d6000803e3d6000fd5b505050506040513d601f19601f82011682018060405250810190611f8091906140a8565b98975050505050505050565b604080516002808252606082018352600092839291906020830190803683370190505090508581600081518110611fc557611fc5614b91565b60200260200101906001600160a01b031690816001600160a01b0316815250508481600181518110611ff957611ff9614b91565b6001600160a01b03928316602091820292909201015260405163d06ca61f60e01b815260009189169063d06ca61f90612038908890869060040161464e565b60006040518083038186803b15801561205057600080fd5b505afa158015612064573d6000803e3d6000fd5b505050506040513d6000823e601f3d908101601f1916820160405261208c9190810190614039565b60405163095ea7b360e01b81526001600160a01b038a81166004830152602482018890529192509088169063095ea7b390604401602060405180830381600087803b1580156120da57600080fd5b505af11580156120ee573d6000803e3d6000fd5b505050506040513d601f19601f82011682018060405250810190612112919061406d565b50604051635c11d79560e01b81526001600160a01b03891690635c11d7959061214890889060009087908a904290600401614667565b600060405180830381600087803b15801561216257600080fd5b505af1158015612176573d6000803e3d6000fd5b505050508060018151811061218d5761218d614b91565b60200260200101519250505095945050505050565b609e5460ff161561106a5760405162461bcd60e51b815260206004820152601060248201526f14185d5cd8589b194e881c185d5cd95960821b6044820152606401610cf2565b6122136040518060800160405280600081526020016060815260200160608152602001606081525090565b6122d48960008151811061222957612229614b91565b60200260200101516000015160e660009054906101000a90046001600160a01b03168b60008151811061225e5761225e614b91565b6020026020010151602001513060e960008b6001600160401b03166001600160401b0316815260200190815260200160002060008f6000815181106122a5576122a5614b91565b602090810291909101810151516001600160a01b031682528101919091526040016000205462ffffff1661113c565b815287516001600160401b038111156122ef576122ef614ba7565b604051908082528060200260200182016040528015612318578160200160208202803683370190505b50602082015287516001600160401b0381111561233757612337614ba7565b604051908082528060200260200182016040528015612360578160200160208202803683370190505b50604082015260005b88518110156126e65760008360008151811061238757612387614b91565b60200260200101518583815181106123a1576123a1614b91565b602002602001015184600001516123b89190614a0a565b6123c29190614875565b60e6548b519192506000916001600160a01b03909116908c90859081106123eb576123eb614b91565b60200260200101516001600160a01b0316141561252b578a838151811061241457612414614b91565b602090810291909101015160d3546040516370a0823160e01b81526001600160a01b0391821660048201529116906370a082319060240160206040518083038186803b15801561246357600080fd5b505afa158015612477573d6000803e3d6000fd5b505050506040513d601f19601f8201168201806040525081019061249b91906140a8565b60e65460d35460405163a9059cbb60e01b81526001600160a01b03918216600482015260248101869052929350169063a9059cbb90604401602060405180830381600087803b1580156124ed57600080fd5b505af1158015612501573d6000803e3d6000fd5b505050506040513d601f19601f82011682018060405250810190612525919061406d565b5061266c565b6125ff8b848151811061254057612540614b91565b602002602001015160e660009054906101000a90046001600160a01b03168d868151811061257057612570614b91565b602090810291909101015160d3546040516370a0823160e01b81526001600160a01b0391821660048201529116906370a082319060240160206040518083038186803b1580156125bf57600080fd5b505afa1580156125d3573d6000803e3d6000fd5b505050506040513d601f19601f820116820180604052508101906125f791906140a8565b610bb8610b09565b905061266a60e660009054906101000a90046001600160a01b03168c858151811061262c5761262c614b91565b60200260200101518460d360009054906101000a90046001600160a01b03168e888151811061265d5761265d614b91565b602002602001015161113c565b505b6000612678838361485d565b905061268382611708565b8560200151858151811061269957612699614b91565b6020026020010181815250506126ae81611708565b856040015185815181106126c4576126c4614b91565b60200260200101818152505050505080806126de90614b4a565b915050612369565b5060408051600080825260208083018452840151848401516127139492938d9390928c9290918401614537565b6040516020818303038152906040528160600181905250600061273d86868460600151600161137b565b600088815260ef60205260409081902082905551909150879082907f7513d57665f5bbb438203d2f2a896f1f0791e1e8cd0e2d76d7bc421bfb4f49aa906127879042815260200190565b60405180910390a350505050505050505050565b6000805b87518110156129bd576000670de0b6b3a76400008983815181106127c5576127c5614b91565b602090810291909101015160d3546040516370a0823160e01b81526001600160a01b0391821660048201529116906370a082319060240160206040518083038186803b15801561281457600080fd5b505afa158015612828573d6000803e3d6000fd5b505050506040513d601f19601f8201168201806040525081019061284c91906140a8565b8560008151811061285f5761285f614b91565b60200260200101516128719190614a0a565b61287b9190614875565b60e6548a519192506001600160a01b0316908a908490811061289f5761289f614b91565b60200260200101516001600160a01b031614156129565760d35460e654604051631c20fadd60e01b81526001600160a01b03918216600482015230602482015260448101849052911690631c20fadd90606401602060405180830381600087803b15801561290c57600080fd5b505af1158015612920573d6000803e3d6000fd5b505050506040513d601f19601f82011682018060405250810190612944919061406d565b5061294f818461485d565b92506129aa565b61299d89838151811061296b5761296b614b91565b602002602001015160e660009054906101000a90046001600160a01b031683308c878151811061265d5761265d614b91565b6129a7908461485d565b92505b50806129b581614b4a565b91505061279f565b5060e6546001600160401b038516600090815260e8602090815260408083205460e983528184206001600160a01b039182168086529352908320549293612a1093911691908590309062ffffff1661113c565b60408051600180825281830190925291925060009190816020015b6040805180820190915260008082526020820152815260200190600190039081612a2b5750506001600160401b038716600090815260e8602052604081205482519293506001600160a01b031691839190612a8857612a88614b91565b6020026020010151600001906001600160a01b031690816001600160a01b0316815250508181600081518110612ac057612ac0614b91565b6020908102919091018101518101919091526040805160008082529281018381528183019092529190612afe906001908d908c868060608101614537565b60405160208183030381529060405290506000612b1f89838a87600161318e565b60008b815260ee602052604090819020829055519091508a9082907f2c80cd3884ced9a087f5eed6c8ddd78af4b449cdea210b92786f35bd496f534390612b699042815260200190565b60405180910390a3505050505050505050505050565b604080516000808252602082019092529050600086516001600160401b03811115612bac57612bac614ba7565b604051908082528060200260200182016040528015612bd5578160200160208202803683370190505b50905060005b8751811015612e075760e65488516001600160a01b0390911690899083908110612c0757612c07614b91565b60200260200101516001600160a01b03161415612cdd57612cba888281518110612c3357612c33614b91565b602090810291909101015160d3546040516370a0823160e01b81526001600160a01b0391821660048201529116906370a082319060240160206040518083038186803b158015612c8257600080fd5b505afa158015612c96573d6000803e3d6000fd5b505050506040513d601f19601f820116820180604052508101906109d791906140a8565b828281518110612ccc57612ccc614b91565b602002602001018181525050612df5565b6000612dca898381518110612cf457612cf4614b91565b602002602001015160e660009054906101000a90046001600160a01b03168b8581518110612d2457612d24614b91565b602090810291909101015160d3546040516370a0823160e01b81526001600160a01b0391821660048201529116906370a082319060240160206040518083038186803b158015612d7357600080fd5b505afa158015612d87573d6000803e3d6000fd5b505050506040513d601f19601f82011682018060405250810190612dab91906140a8565b8b8681518110612dbd57612dbd614b91565b6020026020010151610b09565b9050612dd581611708565b838381518110612de757612de7614b91565b602002602001018181525050505b80612dff81614b4a565b915050612bdb565b5060408051600080825260208201835291612e2f916002918b91908a90879089908401614537565b6040516020818303038152906040529050612e4d858583600161137b565b505050505050505050565b612e8a6040518060a0016040528060008152602001600081526020016000815260200160008152602001600081525090565b81515181526101008201518051600090612ea657612ea6614b91565b6020026020010151816020018181525050816101000151600181518110612ecf57612ecf614b91565b6020026020010151816040018181525050816101000151600281518110612ef857612ef8614b91565b60200260200101518160800181815250506000612f3782846000015185602001518660400151876060015188608001518960c001518a60e001516135f1565b60e65460a0850180516001600160401b03908116600090815260e8602081815260408084205486518616855260e9835281852096519095168452918152818320546001600160a01b03908116845294905281205494955093612fa893831692909116908590309062ffffff1661113c565b60408051600180825281830190925291925060009190816020015b6040805180820190915260008082526020820152815260200190600190039081612fc357505060a08601516001600160401b0316600090815260e8602052604081205482519293506001600160a01b03169183919061302457613024614b91565b6020026020010151600001906001600160a01b031690816001600160a01b031681525050818160008151811061305c5761305c614b91565b602090810291909101810151810191909152604080516000808252818401835288519389015160e08a01519294919361309f936003939291879081908101614537565b60405160208183030381529060405290506130c68760a00151828960c0015186600161318e565b5050505050505050565b60a081015160e65460c083015160d3546000936131009390926001600160a01b0391821692909116610bb861113c565b905061312a82600001518360200151846040015185606001518660800151868861014001516139ac565b6040805160008082526020820181815282840190935261012085015191929161315f9060049084908190878060608101614537565b60405160208183030381529060405290506131868560e0015186610100015183600161137b565b505050505050565b815160d05460009190600160a01b900461ffff168111156132175760405162461bcd60e51b815260206004820152603760248201527f4d6178696d756d203520646966666572656e7420746f6b656e732063616e206260448201527f652073656e74207065722043434950204d6573736167650000000000000000006064820152608401610cf2565b60005b8181101561334c5760d05485516001600160a01b039091169086908390811061324557613245614b91565b6020026020010151600001516001600160a01b0316146133445784818151811061327157613271614b91565b6020026020010151600001516001600160a01b031663095ea7b3600060029054906101000a90046001600160a01b03168784815181106132b3576132b3614b91565b6020026020010151602001516040518363ffffffff1660e01b81526004016132f09291906001600160a01b03929092168252602082015260400190565b602060405180830381600087803b15801561330a57600080fd5b505af115801561331e573d6000803e3d6000fd5b505050506040513d601f19601f82011682018060405250810190613342919061406d565b505b60010161321a565b506040805160a081019091526001600160a01b03861660c08201526000908060e0810160408051601f19818403018152918152908252602082018a9052810187905260600160018660018111156133a5576133a5614b7b565b146133b15760006133be565b60d0546001600160a01b03165b6001600160a01b031681526020016133e66040518060200160405280620dbba0815250611cd0565b9052600080546040516320487ded60e01b81529293509091620100009091046001600160a01b0316906320487ded90613425908c9086906004016146e7565b60206040518083038186803b15801561343d57600080fd5b505afa158015613451573d6000803e3d6000fd5b505050506040513d601f19601f8201168201806040525081019061347591906140a8565b90506000600186600181111561348d5761348d614b7b565b1415613523576000546040516396f4e9f960e01b8152620100009091046001600160a01b0316906396f4e9f9906134ca908d9087906004016146e7565b602060405180830381600087803b1580156134e457600080fd5b505af11580156134f8573d6000803e3d6000fd5b505050506040513d601f19601f8201168201806040525081019061351c91906140a8565b90506135b1565b6000546040516396f4e9f960e01b8152620100009091046001600160a01b0316906396f4e9f990849061355c908e9088906004016146e7565b6020604051808303818588803b15801561357557600080fd5b505af1158015613589573d6000803e3d6000fd5b50505050506040513d601f19601f820116820180604052508101906135ae91906140a8565b90505b6040518181527f54791b38f3859327992a1ca0590ad3c0f08feba98d1a4f56ab0dca74d203392a9060200160405180910390a19998505050505050505050565b6000613649604051806101400160405280600081526020016000815260200160008152602001600081526020016000815260200160008152602001600081526020016000815260200160008152602001600081525090565b60e65460d3546040516370a0823160e01b81526001600160a01b0391821660048201529116906370a082319060240160206040518083038186803b15801561369057600080fd5b505afa1580156136a4573d6000803e3d6000fd5b505050506040513d601f19601f820116820180604052508101906136c891906140a8565b60a082015260005b815181101561383a5760e6548a516000916001600160a01b0316908c90849081106136fd576136fd614b91565b60200260200101516001600160a01b0316141561371f575060a0820151613811565b61380e8b838151811061373457613734614b91565b602002602001015160e660009054906101000a90046001600160a01b03168d858151811061376457613764614b91565b602090810291909101015160d3546040516370a0823160e01b81526001600160a01b0391821660048201529116906370a082319060240160206040518083038186803b1580156137b357600080fd5b505afa1580156137c7573d6000803e3d6000fd5b505050506040513d601f19601f820116820180604052508101906137eb91906140a8565b60d3548d516001600160a01b03909116908e908890811061265d5761265d614b91565b90505b8083606001818151613823919061485d565b90525081905061383281614b4a565b9150506136d0565b50875160c082015260208a015160808b015161385f9068056bc75e2d63100000614a0a565b6138699190614875565b60e08201819052604082015160608301516138849190614a0a565b61388e9190614875565b610100820181905260608201516138a59190614a29565b61012082015260005b8160c001518110156139995760e65489516001600160a01b03909116908a90839081106138dd576138dd614b91565b60200260200101516001600160a01b03161461398757600061398460e660009054906101000a90046001600160a01b03168b848151811061392057613920614b91565b602002602001015185604001518a868151811061393f5761393f614b91565b60200260200101518761010001516139579190614a0a565b6139619190614875565b60d3548c516001600160a01b03909116908d908890811061265d5761265d614b91565b50505b8061399181614b4a565b9150506138ae565b5061012001519998505050505050505050565b6139e56040518060c001604052806000815260200160008152602001600081526020016000815260200160008152602001600081525090565b816001815181106139f8576139f8614b91565b602090810291909101810151825288519082015260e65460d3546040516370a0823160e01b81526001600160a01b0391821660048201529116906370a082319060240160206040518083038186803b158015613a5357600080fd5b505afa158015613a67573d6000803e3d6000fd5b505050506040513d601f19601f82011682018060405250810190613a8b91906140a8565b60408201526000606082018190525b8160200151811015613bc7576000898281518110613aba57613aba614b91565b602090810291909101015160e6549091506000906001600160a01b0380841691161415613aec57506040830151613b9c565b60e65460d3546040516370a0823160e01b81526001600160a01b039182166004820152613b9992859290811691908316906370a082319060240160206040518083038186803b158015613b3e57600080fd5b505afa158015613b52573d6000803e3d6000fd5b505050506040513d601f19601f82011682018060405250810190613b7691906140a8565b60d3548d516001600160a01b03909116908e908990811061265d5761265d614b91565b90505b8084606001818151613bae919061485d565b905250829150613bbf905081614b4a565b915050613a9a565b506060810151613bd7908461485d565b6080820152865160a082015260005b8160a00151811015612e4d576000888281518110613c0657613c06614b91565b602002602001015190506000868381518110613c2457613c24614b91565b602090810291909101015160e6549091506001600160a01b03838116911614613ca25760e65484516080860151600092613c9f926001600160a01b0390911691869190613c72908790614a0a565b613c7c9190614875565b60d3548d516001600160a01b03909116908e908a90811061265d5761265d614b91565b50505b50508080613caf90614b4a565b915050613be6565b600082601f830112613cc857600080fd5b81516020613cdd613cd88361483a565b61480a565b80838252828201915082860187848660051b8901011115613cfd57600080fd5b60005b85811015613d25578151613d1381614bbd565b84529284019290840190600101613d00565b5090979650505050505050565b600082601f830112613d4357600080fd5b81356020613d53613cd88361483a565b80838252828201915082860187848660061b8901011115613d7357600080fd5b6000805b86811015613dbe57604080848c031215613d8f578283fd5b613d976147c0565b8435613da281614bbd565b8152848801358882015286529486019490920191600101613d77565b509198975050505050505050565b600082601f830112613ddd57600080fd5b81516020613ded613cd88361483a565b80838252828201915082860187848660051b8901011115613e0d57600080fd5b60005b85811015613d2557815184529284019290840190600101613e10565b600082601f830112613e3d57600080fd5b81356001600160401b03811115613e5657613e56614ba7565b613e69601f8201601f191660200161480a565b818152846020838601011115613e7e57600080fd5b816020850160208301376000918101602001919091529392505050565b803562ffffff81168114613eae57600080fd5b919050565b80356001600160401b0381168114613eae57600080fd5b805169ffffffffffffffffffff81168114613eae57600080fd5b600060208284031215613ef657600080fd5b813561105381614bbd565b600060208284031215613f1357600080fd5b815161105381614bbd565b60008060008060808587031215613f3457600080fd5b8435613f3f81614bbd565b93506020850135613f4f81614bbd565b925060408501356001600160801b0381168114613f6b57600080fd5b9150606085013563ffffffff81168114613f8457600080fd5b939692955090935050565b600080600080600060a08688031215613fa757600080fd5b8535613fb281614bbd565b94506020860135613fc281614bbd565b9350604086013592506060860135613fd981614bbd565b9150613fe760808701613e9b565b90509295509295909350565b6000806000806080858703121561400957600080fd5b843561401481614bbd565b9350602085013561402481614bbd565b93969395505050506040820135916060013590565b60006020828403121561404b57600080fd5b81516001600160401b0381111561406157600080fd5b610c5184828501613dcc565b60006020828403121561407f57600080fd5b8151801515811461105357600080fd5b6000602082840312156140a157600080fd5b5035919050565b6000602082840312156140ba57600080fd5b5051919050565b6000602082840312156140d357600080fd5b81356001600160e01b03198116811461105357600080fd5b6000602082840312156140fd57600080fd5b81356001600160401b0381111561411357600080fd5b820160a0818503121561105357600080fd5b6000806040838503121561413857600080fd5b82359150602083013561414a81614bbd565b809150509250929050565b600080600080600080600080610100898b03121561417257600080fd5b8851975060208901516001600160401b038082111561419057600080fd5b61419c8c838d01613cb7565b985060408b01519150808211156141b257600080fd5b6141be8c838d01613cb7565b975060608b01519150808211156141d457600080fd5b6141e08c838d01613dcc565b965060808b01519150808211156141f657600080fd5b6142028c838d01613dcc565b955060a08b0151945060c08b015191508082111561421f57600080fd5b61422b8c838d01613dcc565b935060e08b015191508082111561424157600080fd5b5061424e8b828c01613dcc565b9150509295985092959890939650565b60006020828403121561427057600080fd5b61105382613eb3565b6000806040838503121561428c57600080fd5b61429583613eb3565b9150602083013561414a81614bbd565b60008060008060008060008060006101208a8c0312156142c457600080fd5b6142cd8a613eb3565b985060208a01356142dd81614bbd565b975060408a01356142ed81614bbd565b965060608a01356142fd81614bbd565b955060808a013561430d81614bbd565b945060a08a013561431d81614bbd565b935060c08a013561432d81614bbd565b925060e08a013561433d81614bbd565b91506101008a013561434e81614bbd565b809150509295985092959850929598565b6000806000806080858703121561437557600080fd5b61437e85613eb3565b9350602085013561438e81614bbd565b925060408501356001600160401b038111156143a957600080fd5b6143b587828801613e2c565b925050606085013560028110613f8457600080fd5b6000806000606084860312156143df57600080fd5b6143e884613eb3565b925060208401356143f881614bbd565b915061440660408501613e9b565b90509250925092565b600080600080600060a0868803121561442757600080fd5b61443086613eca565b9450602086015193506040860151925060608601519150613fe760808701613eca565b60006020828403121561446557600080fd5b815160ff8116811461105357600080fd5b600081518084526020808501945080840160005b838110156144af5781516001600160a01b03168752958201959082019060010161448a565b509495945050505050565b600081518084526020808501945080840160005b838110156144af578151875295820195908201906001016144ce565b6000815180845260005b81811015614510576020818501810151868301820152016144f4565b81811115614522576000602083870101525b50601f01601f19169290920160200192915050565b60ff8716815260c06020820152600061455360c0830188614476565b82810360408401526145658188614476565b9050856060840152828103608084015261457f81866144ba565b905082810360a084015261459381856144ba565b9998505050505050505050565b60208152600061105360208301846144ea565b60208082526030908201527f50726f706f7361626c654f776e61626c653a206e6577206f776e65722069732060408201526f746865207a65726f206164647265737360801b606082015260800190565b6020808252602b908201527f496e697469616c697a61626c653a20636f6e7472616374206973206e6f74206960408201526a6e697469616c697a696e6760a81b606082015260800190565b828152604060208201526000610c516040830184614476565b85815284602082015260a06040820152600061468660a0830186614476565b6001600160a01b0394909416606083015250608001529392505050565b6001600160401b0386168152600060018060a01b03808716602084015260a060408401526146d460a08401876144ea565b9416606083015250608001529392505050565b600060406001600160401b038516835260208181850152845160a08386015261471360e08601826144ea565b905081860151603f198087840301606088015261473083836144ea565b88860151888203830160808a01528051808352908601945060009350908501905b8084101561478357845180516001600160a01b0316835286015186830152938501936001939093019290860190614751565b5060608901516001600160a01b031660a08901526080890151888203830160c08a015295506147b281876144ea565b9a9950505050505050505050565b604080519081016001600160401b03811182821017156147e2576147e2614ba7565b60405290565b60405160a081016001600160401b03811182821017156147e2576147e2614ba7565b604051601f8201601f191681016001600160401b038111828210171561483257614832614ba7565b604052919050565b60006001600160401b0382111561485357614853614ba7565b5060051b60200190565b6000821982111561487057614870614b65565b500190565b60008261489257634e487b7160e01b600052601260045260246000fd5b500490565b600181815b808511156148d25781600019048211156148b8576148b8614b65565b808516156148c557918102915b93841c939080029061489c565b509250929050565b600061105360ff8416836000826148f357506001610b03565b8161490057506000610b03565b816001811461491657600281146149205761493c565b6001915050610b03565b60ff84111561493157614931614b65565b50506001821b610b03565b5060208310610133831016604e8410600b841016171561495f575081810a610b03565b6149698383614897565b806000190482111561497d5761497d614b65565b029392505050565b60006001600160ff1b03818413828413808216868404861116156149ab576149ab614b65565b600160ff1b60008712828116878305891216156149ca576149ca614b65565b600087129250878205871284841616156149e6576149e6614b65565b878505871281841616156149fc576149fc614b65565b505050929093029392505050565b6000816000190483118215151615614a2457614a24614b65565b500290565b600082821015614a3b57614a3b614b65565b500390565b600060ff821660ff841680821015614a5a57614a5a614b65565b90039392505050565b600060a08236031215614a7557600080fd5b614a7d6147e8565b82358152614a8d60208401613eb3565b602082015260408301356001600160401b0380821115614aac57600080fd5b614ab836838701613e2c565b60408401526060850135915080821115614ad157600080fd5b614add36838701613e2c565b60608401526080850135915080821115614af657600080fd5b50614b0336828601613d32565b60808301525092915050565b600181811c90821680614b2357607f821691505b60208210811415614b4457634e487b7160e01b600052602260045260246000fd5b50919050565b6000600019821415614b5e57614b5e614b65565b5060010190565b634e487b7160e01b600052601160045260246000fd5b634e487b7160e01b600052602160045260246000fd5b634e487b7160e01b600052603260045260246000fd5b634e487b7160e01b600052604160045260246000fd5b6001600160a01b03811681146111be57600080fdfea264697066735822122096b9f1d7ca0cb2fc464c12650ecd5957d861b78b5c58d8dc6c86e9bd8b00ade564736f6c63430008070033","linkReferences":{}},"methodIdentifiers":{"ccipReceive((bytes32,uint64,bytes,bytes,(address,uint256)[]))":"85572ffb","convertEthToUsd(uint256)":"c086381e","crossChainToken(uint64)":"19da7e2a","crossChainTokenSwapFee(uint64,address)":"652354ae","currentChainSelector()":"3d54cb6f","estimateAmountOut(address,address,uint128,uint32)":"bf938db8","factoryV3()":"1d5f45f5","fee()":"ddca3f43","feeRate()":"978bbdb9","feeRatePerDayScaled()":"2fecd589","feeReceiver()":"b3f00674","feeTimestamp()":"184a732f","getAmountOut(address,address,uint256,uint256)":"13cb1f83","getRouter()":"b0f479a1","i_link()":"7d253aff","i_maxTokensLength()":"5b6a0351","initialize(uint64,address,address,address,address,address,address,address,address)":"17c27b76","isRestricted(address)":"c01bc982","issuanceCompletedTokensCount(uint256)":"94037369","issuanceMessageIdByNonce(uint256)":"9121c717","issuanceTokenOldAndNewValues(uint256,address)":"81b15279","latestFeeUpdate()":"011ced5f","messageDetail(bytes32)":"9c3ddb2e","methodologist()":"9f8e67bf","methodology()":"9eeb1d50","minter()":"07546172","oraclePayment()":"0c02e130","owner()":"8da5cb5b","pause()":"8456cb59","paused()":"5c975abb","priceInWei()":"3c8da588","priceOracle()":"2630c12f","proposeOwner(address)":"b5ed298a","proposedOwner()":"d153b60c","quoter()":"c6bbd5a7","receivedMessages(uint256)":"d030366c","redemptionMessageIdByNonce(uint256)":"306b3a28","renounceOwnership()":"715018a6","sendMessage(uint64,address,bytes,uint8)":"bcab90b3","setCcipRouter(address)":"27bf9b44","setCrossChainToken(uint64,address,uint24)":"f0cd5b72","setPriceOracle(address)":"530e784f","setVault(address)":"6817031b","sourceChainSelectorF()":"ff5474f0","supplyCeiling()":"2b52684d","supportsInterface(bytes4)":"01ffc9a7","swap(address,address,uint256,address,uint24)":"7e79f512","swapRouterV2()":"744fbc7a","swapRouterV3()":"b631e80b","toUsdPriceFeed()":"63973fda","transferOwnership(address)":"f2fde38b","unpause()":"3f4ba83a","vault()":"fbfa77cf","weth()":"3fc8cef3"},"id":32}