{"abi":[{"type":"receive","stateMutability":"payable"},{"type":"function","name":"ccipReceive","inputs":[{"name":"message","type":"tuple","internalType":"struct Client.Any2EVMMessage","components":[{"name":"messageId","type":"bytes32","internalType":"bytes32"},{"name":"sourceChainSelector","type":"uint64","internalType":"uint64"},{"name":"sender","type":"bytes","internalType":"bytes"},{"name":"data","type":"bytes","internalType":"bytes"},{"name":"destTokenAmounts","type":"tuple[]","internalType":"struct Client.EVMTokenAmount[]","components":[{"name":"token","type":"address","internalType":"address"},{"name":"amount","type":"uint256","internalType":"uint256"}]}]}],"outputs":[],"stateMutability":"nonpayable"},{"type":"function","name":"convertEthToUsd","inputs":[{"name":"_ethAmount","type":"uint256","internalType":"uint256"}],"outputs":[{"name":"","type":"uint256","internalType":"uint256"}],"stateMutability":"view"},{"type":"function","name":"crossChainToken","inputs":[{"name":"","type":"uint64","internalType":"uint64"}],"outputs":[{"name":"","type":"address","internalType":"address"}],"stateMutability":"view"},{"type":"function","name":"crossChainTokenSwapFee","inputs":[{"name":"","type":"uint64","internalType":"uint64"},{"name":"","type":"address","internalType":"address"}],"outputs":[{"name":"","type":"uint24","internalType":"uint24"}],"stateMutability":"view"},{"type":"function","name":"currentChainSelector","inputs":[],"outputs":[{"name":"","type":"uint64","internalType":"uint64"}],"stateMutability":"view"},{"type":"function","name":"estimateAmountOut","inputs":[{"name":"tokenIn","type":"address","internalType":"address"},{"name":"tokenOut","type":"address","internalType":"address"},{"name":"amountIn","type":"uint128","internalType":"uint128"},{"name":"secondsAgo","type":"uint32","internalType":"uint32"}],"outputs":[{"name":"amountOut","type":"uint256","internalType":"uint256"}],"stateMutability":"view"},{"type":"function","name":"factoryV3","inputs":[],"outputs":[{"name":"","type":"address","internalType":"contract IUniswapV3Factory"}],"stateMutability":"view"},{"type":"function","name":"fee","inputs":[],"outputs":[{"name":"","type":"uint256","internalType":"uint256"}],"stateMutability":"view"},{"type":"function","name":"feeRate","inputs":[],"outputs":[{"name":"","type":"uint8","internalType":"uint8"}],"stateMutability":"view"},{"type":"function","name":"feeRatePerDayScaled","inputs":[],"outputs":[{"name":"","type":"uint256","internalType":"uint256"}],"stateMutability":"view"},{"type":"function","name":"feeReceiver","inputs":[],"outputs":[{"name":"","type":"address","internalType":"address"}],"stateMutability":"view"},{"type":"function","name":"feeTimestamp","inputs":[],"outputs":[{"name":"","type":"uint256","internalType":"uint256"}],"stateMutability":"view"},{"type":"function","name":"getAmountOut","inputs":[{"name":"tokenIn","type":"address","internalType":"address"},{"name":"tokenOut","type":"address","internalType":"address"},{"name":"amountIn","type":"uint256","internalType":"uint256"},{"name":"_swapFee","type":"uint256","internalType":"uint256"}],"outputs":[{"name":"finalAmountOut","type":"uint256","internalType":"uint256"}],"stateMutability":"view"},{"type":"function","name":"getRouter","inputs":[],"outputs":[{"name":"","type":"address","internalType":"address"}],"stateMutability":"view"},{"type":"function","name":"i_link","inputs":[],"outputs":[{"name":"","type":"address","internalType":"address"}],"stateMutability":"view"},{"type":"function","name":"i_maxTokensLength","inputs":[],"outputs":[{"name":"","type":"uint16","internalType":"uint16"}],"stateMutability":"view"},{"type":"function","name":"initialize","inputs":[{"name":"_currentChainSelector","type":"uint64","internalType":"uint64"},{"name":"_vault","type":"address","internalType":"address payable"},{"name":"_chainlinkToken","type":"address","internalType":"address"},{"name":"_router","type":"address","internalType":"address"},{"name":"_weth","type":"address","internalType":"address"},{"name":"_swapRouterV3","type":"address","internalType":"address"},{"name":"_factoryV3","type":"address","internalType":"address"},{"name":"_swapRouterV2","type":"address","internalType":"address"},{"name":"_toUsdPriceFeed","type":"address","internalType":"address"}],"outputs":[],"stateMutability":"nonpayable"},{"type":"function","name":"isRestricted","inputs":[{"name":"","type":"address","internalType":"address"}],"outputs":[{"name":"","type":"bool","internalType":"bool"}],"stateMutability":"view"},{"type":"function","name":"issuanceCompletedTokensCount","inputs":[{"name":"","type":"uint256","internalType":"uint256"}],"outputs":[{"name":"","type":"uint256","internalType":"uint256"}],"stateMutability":"view"},{"type":"function","name":"issuanceMessageIdByNonce","inputs":[{"name":"","type":"uint256","internalType":"uint256"}],"outputs":[{"name":"","type":"bytes32","internalType":"bytes32"}],"stateMutability":"view"},{"type":"function","name":"issuanceTokenOldAndNewValues","inputs":[{"name":"","type":"uint256","internalType":"uint256"},{"name":"","type":"address","internalType":"address"}],"outputs":[{"name":"oldTokenValue","type":"uint256","internalType":"uint256"},{"name":"newTokenValue","type":"uint256","internalType":"uint256"}],"stateMutability":"view"},{"type":"function","name":"latestFeeUpdate","inputs":[],"outputs":[{"name":"","type":"uint256","internalType":"uint256"}],"stateMutability":"view"},{"type":"function","name":"messageDetail","inputs":[{"name":"","type":"bytes32","internalType":"bytes32"}],"outputs":[{"name":"sourceChainSelector","type":"uint64","internalType":"uint64"},{"name":"sender","type":"address","internalType":"address"},{"name":"message","type":"string","internalType":"string"},{"name":"token","type":"address","internalType":"address"},{"name":"amount","type":"uint256","internalType":"uint256"}],"stateMutability":"view"},{"type":"function","name":"methodologist","inputs":[],"outputs":[{"name":"","type":"address","internalType":"address"}],"stateMutability":"view"},{"type":"function","name":"methodology","inputs":[],"outputs":[{"name":"","type":"string","internalType":"string"}],"stateMutability":"view"},{"type":"function","name":"minter","inputs":[],"outputs":[{"name":"","type":"address","internalType":"address"}],"stateMutability":"view"},{"type":"function","name":"oraclePayment","inputs":[],"outputs":[{"name":"","type":"uint256","internalType":"uint256"}],"stateMutability":"view"},{"type":"function","name":"owner","inputs":[],"outputs":[{"name":"","type":"address","internalType":"address"}],"stateMutability":"view"},{"type":"function","name":"pause","inputs":[],"outputs":[],"stateMutability":"nonpayable"},{"type":"function","name":"paused","inputs":[],"outputs":[{"name":"","type":"bool","internalType":"bool"}],"stateMutability":"view"},{"type":"function","name":"priceInWei","inputs":[],"outputs":[{"name":"","type":"uint256","internalType":"uint256"}],"stateMutability":"view"},{"type":"function","name":"priceOracle","inputs":[],"outputs":[{"name":"","type":"address","internalType":"address"}],"stateMutability":"view"},{"type":"function","name":"proposeOwner","inputs":[{"name":"_proposedOwner","type":"address","internalType":"address"}],"outputs":[],"stateMutability":"nonpayable"},{"type":"function","name":"proposedOwner","inputs":[],"outputs":[{"name":"","type":"address","internalType":"address"}],"stateMutability":"view"},{"type":"function","name":"quoter","inputs":[],"outputs":[{"name":"","type":"address","internalType":"contract IQuoter"}],"stateMutability":"view"},{"type":"function","name":"receivedMessages","inputs":[{"name":"","type":"uint256","internalType":"uint256"}],"outputs":[{"name":"","type":"bytes32","internalType":"bytes32"}],"stateMutability":"view"},{"type":"function","name":"redemptionMessageIdByNonce","inputs":[{"name":"","type":"uint256","internalType":"uint256"}],"outputs":[{"name":"","type":"bytes32","internalType":"bytes32"}],"stateMutability":"view"},{"type":"function","name":"renounceOwnership","inputs":[],"outputs":[],"stateMutability":"nonpayable"},{"type":"function","name":"sendMessage","inputs":[{"name":"destinationChainSelector","type":"uint64","internalType":"uint64"},{"name":"receiver","type":"address","internalType":"address"},{"name":"_data","type":"bytes","internalType":"bytes"},{"name":"payFeesIn","type":"uint8","internalType":"enum CrossChainIndexFactory.PayFeesIn"}],"outputs":[{"name":"","type":"bytes32","internalType":"bytes32"}],"stateMutability":"nonpayable"},{"type":"function","name":"setCcipRouter","inputs":[{"name":"_router","type":"address","internalType":"address"}],"outputs":[],"stateMutability":"nonpayable"},{"type":"function","name":"setCrossChainToken","inputs":[{"name":"_chainSelector","type":"uint64","internalType":"uint64"},{"name":"_crossChainToken","type":"address","internalType":"address"},{"name":"_swapFee","type":"uint24","internalType":"uint24"}],"outputs":[],"stateMutability":"nonpayable"},{"type":"function","name":"setPriceOracle","inputs":[{"name":"_priceOracle","type":"address","internalType":"address"}],"outputs":[],"stateMutability":"nonpayable"},{"type":"function","name":"setVault","inputs":[{"name":"_vault","type":"address","internalType":"address payable"}],"outputs":[],"stateMutability":"nonpayable"},{"type":"function","name":"sourceChainSelectorF","inputs":[],"outputs":[{"name":"","type":"uint64","internalType":"uint64"}],"stateMutability":"view"},{"type":"function","name":"supplyCeiling","inputs":[],"outputs":[{"name":"","type":"uint256","internalType":"uint256"}],"stateMutability":"view"},{"type":"function","name":"supportsInterface","inputs":[{"name":"interfaceId","type":"bytes4","internalType":"bytes4"}],"outputs":[{"name":"","type":"bool","internalType":"bool"}],"stateMutability":"pure"},{"type":"function","name":"swap","inputs":[{"name":"tokenIn","type":"address","internalType":"address"},{"name":"tokenOut","type":"address","internalType":"address"},{"name":"amountIn","type":"uint256","internalType":"uint256"},{"name":"_recipient","type":"address","internalType":"address"},{"name":"_swapFee","type":"uint24","internalType":"uint24"}],"outputs":[{"name":"outputAmount","type":"uint256","internalType":"uint256"}],"stateMutability":"nonpayable"},{"type":"function","name":"swapRouterV2","inputs":[],"outputs":[{"name":"","type":"address","internalType":"contract IUniswapV2Router02"}],"stateMutability":"view"},{"type":"function","name":"swapRouterV3","inputs":[],"outputs":[{"name":"","type":"address","internalType":"contract ISwapRouter"}],"stateMutability":"view"},{"type":"function","name":"toUsdPriceFeed","inputs":[],"outputs":[{"name":"","type":"address","internalType":"contract AggregatorV3Interface"}],"stateMutability":"view"},{"type":"function","name":"transferOwnership","inputs":[{"name":"newOwner","type":"address","internalType":"address"}],"outputs":[],"stateMutability":"nonpayable"},{"type":"function","name":"unpause","inputs":[],"outputs":[],"stateMutability":"nonpayable"},{"type":"function","name":"vault","inputs":[],"outputs":[{"name":"","type":"address","internalType":"contract Vault"}],"stateMutability":"view"},{"type":"function","name":"weth","inputs":[],"outputs":[{"name":"","type":"address","internalType":"contract IWETH"}],"stateMutability":"view"},{"type":"event","name":"ChainlinkCancelled","inputs":[{"name":"id","type":"bytes32","indexed":true,"internalType":"bytes32"}],"anonymous":false},{"type":"event","name":"ChainlinkFulfilled","inputs":[{"name":"id","type":"bytes32","indexed":true,"internalType":"bytes32"}],"anonymous":false},{"type":"event","name":"ChainlinkRequested","inputs":[{"name":"id","type":"bytes32","indexed":true,"internalType":"bytes32"}],"anonymous":false},{"type":"event","name":"Initialized","inputs":[{"name":"version","type":"uint8","indexed":false,"internalType":"uint8"}],"anonymous":false},{"type":"event","name":"Issuanced","inputs":[{"name":"messageId","type":"bytes32","indexed":true,"internalType":"bytes32"},{"name":"nonce","type":"uint256","indexed":true,"internalType":"uint256"},{"name":"time","type":"uint256","indexed":false,"internalType":"uint256"}],"anonymous":false},{"type":"event","name":"MessageSent","inputs":[{"name":"messageId","type":"bytes32","indexed":false,"internalType":"bytes32"}],"anonymous":false},{"type":"event","name":"OwnershipTransferred","inputs":[{"name":"previousOwner","type":"address","indexed":true,"internalType":"address"},{"name":"newOwner","type":"address","indexed":true,"internalType":"address"}],"anonymous":false},{"type":"event","name":"Paused","inputs":[{"name":"account","type":"address","indexed":false,"internalType":"address"}],"anonymous":false},{"type":"event","name":"Redemption","inputs":[{"name":"messageId","type":"bytes32","indexed":true,"internalType":"bytes32"},{"name":"nonce","type":"uint256","indexed":true,"internalType":"uint256"},{"name":"time","type":"uint256","indexed":false,"internalType":"uint256"}],"anonymous":false},{"type":"event","name":"Unpaused","inputs":[{"name":"account","type":"address","indexed":false,"internalType":"address"}],"anonymous":false},{"type":"error","name":"InvalidRouter","inputs":[{"name":"router","type":"address","internalType":"address"}]}],"bytecode":{"object":"0x6080604052348015600f57600080fd5b50614a6a8061001f6000396000f3fe6080604052600436106103395760003560e01c80637e79f512116101ab578063b5ed298a116100f7578063d030366c11610095578063f0cd5b721161006f578063f0cd5b7214610a52578063f2fde38b14610a72578063fbfa77cf14610a92578063ff5474f014610ab257600080fd5b8063d030366c146109fc578063d153b60c14610a1c578063ddca3f4314610a3c57600080fd5b8063bf938db8116100d1578063bf938db81461096c578063c01bc9821461098c578063c086381e146109bc578063c6bbd5a7146109dc57600080fd5b8063b5ed298a1461090c578063b631e80b1461092c578063bcab90b31461094c57600080fd5b806394037369116101645780639eeb1d501161013e5780639eeb1d50146108865780639f8e67bf146108a8578063b0f479a1146108c8578063b3f00674146108ec57600080fd5b806394037369146107fc578063978bbdb9146108295780639c3ddb2e1461085557600080fd5b80637e79f5121461070857806381b15279146107285780638456cb591461077c57806385572ffb146107915780638da5cb5b146107b15780639121c717146107cf57600080fd5b8063306b3a28116102855780635c975abb116102235780636817031b116101fd5780636817031b14610693578063715018a6146106b3578063744fbc7a146106c85780637d253aff146106e857600080fd5b80635c975abb1461060a57806363973fda14610622578063652354ae1461064257600080fd5b80633f4ba83a1161025f5780633f4ba83a146105805780633fc8cef314610595578063530e784f146105b55780635b6a0351146105d557600080fd5b8063306b3a28146105065780633c8da588146105335780633d54cb6f1461054857600080fd5b8063184a732f116102f25780632630c12f116102cc5780632630c12f1461049a57806327bf9b44146104ba5780632b52684d146104da5780632fecd589146104f057600080fd5b8063184a732f1461042e57806319da7e2a146104445780631d5f45f51461047a57600080fd5b8063011ced5f1461034557806301ffc9a71461036e578063075461721461039e5780630c02e130146103d657806313cb1f83146103ec57806317c27b761461040c57600080fd5b3661034057005b600080fd5b34801561035157600080fd5b5061035b60d65481565b6040519081526020015b60405180910390f35b34801561037a57600080fd5b5061038e610389366004613b22565b610ad2565b6040519015158152602001610365565b3480156103aa57600080fd5b5060dd546103be906001600160a01b031681565b6040516001600160a01b039091168152602001610365565b3480156103e257600080fd5b5061035b60e15481565b3480156103f857600080fd5b5061035b610407366004613b61565b610b09565b34801561041857600080fd5b5061042c610427366004613bc3565b610c49565b005b34801561043a57600080fd5b5061035b60d95481565b34801561045057600080fd5b506103be61045f366004613c7d565b60e8602052600090815260409020546001600160a01b031681565b34801561048657600080fd5b5060e4546103be906001600160a01b031681565b3480156104a657600080fd5b5060dc546103be906001600160a01b031681565b3480156104c657600080fd5b5061042c6104d5366004613c98565b610edd565b3480156104e657600080fd5b5061035b60df5481565b3480156104fc57600080fd5b5061035b60d85481565b34801561051257600080fd5b5061035b610521366004613cb5565b60ee6020526000908152604090205481565b34801561053f57600080fd5b5061035b610f0f565b34801561055457600080fd5b5060d754610568906001600160401b031681565b6040516001600160401b039091168152602001610365565b34801561058c57600080fd5b5061042c61101d565b3480156105a157600080fd5b5060e6546103be906001600160a01b031681565b3480156105c157600080fd5b5061042c6105d0366004613c98565b61102f565b3480156105e157600080fd5b5060d0546105f790600160a01b900461ffff1681565b60405161ffff9091168152602001610365565b34801561061657600080fd5b50609e5460ff1661038e565b34801561062e57600080fd5b5060e2546103be906001600160a01b031681565b34801561064e57600080fd5b5061067f61065d366004613cce565b60e960209081526000928352604080842090915290825290205462ffffff1681565b60405162ffffff9091168152602001610365565b34801561069f57600080fd5b5061042c6106ae366004613c98565b6110c3565b3480156106bf57600080fd5b5061042c6110ed565b3480156106d457600080fd5b5060e5546103be906001600160a01b031681565b3480156106f457600080fd5b5060d0546103be906001600160a01b031681565b34801561071457600080fd5b5061035b610723366004613d18565b6110ff565b34801561073457600080fd5b50610767610743366004613d7c565b60ec6020908152600092835260408084209091529082529020805460019091015482565b60408051928352602083019190915201610365565b34801561078857600080fd5b5061042c61112d565b34801561079d57600080fd5b5061042c6107ac366004613da1565b61113d565b3480156107bd57600080fd5b506039546001600160a01b03166103be565b3480156107db57600080fd5b5061035b6107ea366004613cb5565b60ef6020526000908152604090205481565b34801561080857600080fd5b5061035b610817366004613cb5565b60ed6020526000908152604090205481565b34801561083557600080fd5b5060d5546108439060ff1681565b60405160ff9091168152602001610365565b34801561086157600080fd5b50610875610870366004613cb5565b611184565b604051610365959493929190613e21565b34801561089257600080fd5b5061089b611260565b6040516103659190613e71565b3480156108b457600080fd5b5060db546103be906001600160a01b031681565b3480156108d457600080fd5b506000546201000090046001600160a01b03166103be565b3480156108f857600080fd5b5060da546103be906001600160a01b031681565b34801561091857600080fd5b5061042c610927366004613c98565b6112ee565b34801561093857600080fd5b5060e3546103be906001600160a01b031681565b34801561095857600080fd5b5061035b610967366004613f83565b61133e565b34801561097857600080fd5b5061035b610987366004613ff9565b6115f1565b34801561099857600080fd5b5061038e6109a7366004613c98565b60e06020526000908152604090205460ff1681565b3480156109c857600080fd5b5061035b6109d7366004613cb5565b61168e565b3480156109e857600080fd5b5060e7546103be906001600160a01b031681565b348015610a0857600080fd5b5061035b610a17366004613cb5565b6116b5565b348015610a2857600080fd5b50606b546103be906001600160a01b031681565b348015610a4857600080fd5b5061035b60d45481565b348015610a5e57600080fd5b5061042c610a6d36600461405f565b6116d6565b348015610a7e57600080fd5b5061042c610a8d366004613c98565b61173d565b348015610a9e57600080fd5b5060d3546103be906001600160a01b031681565b348015610abe57600080fd5b5060eb54610568906001600160401b031681565b60006001600160e01b031982166385572ffb60e01b1480610b0357506001600160e01b031982166301ffc9a760e01b145b92915050565b60008215610c415781600303610b2d57610b2685858560016115f1565b9050610c41565b6040805160028082526060820183526000926020830190803683370190505090508581600081518110610b6257610b626140a4565b60200260200101906001600160a01b031690816001600160a01b0316815250508481600181518110610b9657610b966140a4565b6001600160a01b03928316602091820292909201015260e55460405163d06ca61f60e01b8152600092919091169063d06ca61f90610bda90889086906004016140ff565b600060405180830381865afa158015610bf7573d6000803e3d6000fd5b505050506040513d6000823e601f3d908101601f19168201604052610c1f91908101906141a8565b905080600181518110610c3457610c346140a4565b6020026020010151925050505b949350505050565b600054610100900460ff1615808015610c695750600054600160ff909116105b80610c835750303b158015610c83575060005460ff166001145b610ceb5760405162461bcd60e51b815260206004820152602e60248201527f496e697469616c697a61626c653a20636f6e747261637420697320616c72656160448201526d191e481a5b9a5d1a585b1a5e995960921b60648201526084015b60405180910390fd5b6000805460ff191660011790558015610d0e576000805461ff0019166101001790555b610d16611862565b610d1e611891565b60d780546001600160401b038c1667ffffffffffffffff1990911617905560d380546001600160a01b038b166001600160a01b0319909116179055610d8088600380546001600160a01b039092166001600160a01b0319909216919091179055565b6000805462010000600160b01b031916620100006001600160a01b038a81168202929092179283905560d080548c84166001600160b01b03199091168117600560a01b1790915560405163095ea7b360e01b8152919093049091166004820152600019602482015263095ea7b3906044016020604051808303816000875af1158015610e10573d6000803e3d6000fd5b505050506040513d601f19601f82011682018060405250810190610e3491906141dc565b5060e680546001600160a01b03199081166001600160a01b038981169190911790925560e38054821688841617905560e48054821687841617905560e58054821686841617905560e280549091169184169190911790558015610ed1576000805461ff0019169055604051600181527f7f26b83ff96e1f2b6a682f133852f6798a09c465da95921460cefb38474024989060200160405180910390a15b50505050505050505050565b610ee56118c0565b600080546001600160a01b03909216620100000262010000600160b01b0319909216919091179055565b60008060e260009054906101000a90046001600160a01b03166001600160a01b031663feaf968c6040518163ffffffff1660e01b815260040160a060405180830381865afa158015610f65573d6000803e3d6000fd5b505050506040513d601f19601f82011682018060405250810190610f899190614218565b505050915050600060e260009054906101000a90046001600160a01b03166001600160a01b031663313ce5676040518163ffffffff1660e01b8152600401602060405180830381865afa158015610fe4573d6000803e3d6000fd5b505050506040513d601f19601f82011682018060405250810190611008919061425e565b90506110168282601261191a565b9392505050565b6110256118c0565b61102d61195a565b565b6110376118c0565b6001600160a01b0381166110a15760405162461bcd60e51b815260206004820152602b60248201527f5072696365206f7261636c6520616464726573732063616e6e6f74206265207a60448201526a65726f206164647265737360a81b6064820152608401610ce2565b60dc80546001600160a01b0319166001600160a01b0392909216919091179055565b6110cb6118c0565b60d380546001600160a01b0319166001600160a01b0392909216919091179055565b6110f56118c0565b61102d60006119ac565b60e35460e554600091611123916001600160a01b03918216911684898989896119fe565b9695505050505050565b6111356118c0565b61102d611a3b565b6000546201000090046001600160a01b03163314611170576040516335fdcccd60e21b8152336004820152602401610ce2565b61118161117c8261430e565b611a78565b50565b60d260205260009081526040902080546001820180546001600160401b03831693680100000000000000009093046001600160a01b03169291906111c7906143c4565b80601f01602080910402602001604051908101604052809291908181526020018280546111f3906143c4565b80156112405780601f1061121557610100808354040283529160200191611240565b820191906000526020600020905b81548152906001019060200180831161122357829003601f168201915b50505050600283015460039093015491926001600160a01b031691905085565b60de805461126d906143c4565b80601f0160208091040260200160405190810160405280929190818152602001828054611299906143c4565b80156112e65780601f106112bb576101008083540402835291602001916112e6565b820191906000526020600020905b8154815290600101906020018083116112c957829003601f168201915b505050505081565b6112f66118c0565b6001600160a01b03811661131c5760405162461bcd60e51b8152600401610ce2906143fe565b606b80546001600160a01b0319166001600160a01b0392909216919091179055565b6040805160a081019091526001600160a01b03841660c082015260009081908060e0810160408051808303601f1901815291815290825260208083018890528151600080825291810183529290910191906113bb565b60408051808201909152600080825260208201528152602001906001900390816113945790505b50815260200160018560018111156113d5576113d561444e565b146113e15760006113ee565b60d0546001600160a01b03165b6001600160a01b031681526020016114166040518060200160405280620dbba0815250611c51565b9052600080546040516320487ded60e01b81529293509091620100009091046001600160a01b0316906320487ded90611455908a908690600401614464565b602060405180830381865afa158015611472573d6000803e3d6000fd5b505050506040513d601f19601f820116820180604052508101906114969190614539565b9050600060018560018111156114ae576114ae61444e565b03611534576000546040516396f4e9f960e01b8152620100009091046001600160a01b0316906396f4e9f9906114ea908b908790600401614464565b6020604051808303816000875af1158015611509573d6000803e3d6000fd5b505050506040513d601f19601f8201168201806040525081019061152d9190614539565b90506115b3565b6000546040516396f4e9f960e01b8152620100009091046001600160a01b0316906396f4e9f990849061156d908c908890600401614464565b60206040518083038185885af115801561158b573d6000803e3d6000fd5b50505050506040513d601f19601f820116820180604052508101906115b09190614539565b90505b6040518181527f54791b38f3859327992a1ca0590ad3c0f08feba98d1a4f56ab0dca74d203392a9060200160405180910390a1979650505050505050565b60dc5460e4546040516304a10b8960e51b81526001600160a01b039182166004820152868216602482015285821660448201526001600160801b03851660648201526000929190911690639421712090608401602060405180830381865afa158015611661573d6000803e3d6000fd5b505050506040513d601f19601f820116820180604052508101906116859190614539565b95945050505050565b6000670de0b6b3a76400006116a1610f0f565b6116ab9084614568565b610b03919061457f565b60d181815481106116c557600080fd5b600091825260209091200154905081565b6116de6118c0565b6001600160401b0392909216600090815260e86020908152604080832080546001600160a01b0319166001600160a01b0395909516948517905560e9825280832093835292905220805462ffffff191662ffffff909216919091179055565b6001600160a01b0381166117635760405162461bcd60e51b8152600401610ce2906143fe565b606b546001600160a01b038281169116146117db5760405162461bcd60e51b815260206004820152603260248201527f50726f706f7361626c654f776e61626c653a206e6577206f776e6572206973206044820152713737ba10383937b837b9b2b21037bbb732b960711b6064820152608401610ce2565b6001600160a01b03811633146118595760405162461bcd60e51b815260206004820152603a60248201527f50726f706f7361626c654f776e61626c653a20746869732063616c6c206d757360448201527f74206265206d61646520627920746865206e6577206f776e65720000000000006064820152608401610ce2565b611181816119ac565b600054610100900460ff166118895760405162461bcd60e51b8152600401610ce2906145a1565b61102d611c8e565b600054610100900460ff166118b85760405162461bcd60e51b8152600401610ce2906145a1565b61102d611cbe565b6039546001600160a01b0316331461102d5760405162461bcd60e51b815260206004820181905260248201527f4f776e61626c653a2063616c6c6572206973206e6f7420746865206f776e65726044820152606401610ce2565b60008260ff168260ff1611156119505761193483836145ec565b61193f90600a6146ec565b61194990856146fb565b9050611016565b61193482846145ec565b611962611cf1565b609e805460ff191690557f5db9ee0a495bf2e6ff9c91a7834c1ba4fdd244a5e8aa4e537bd38aeae4b073aa335b6040516001600160a01b03909116815260200160405180910390a1565b603980546001600160a01b038381166001600160a01b0319831681179093556040519116919082907f8be0079c531659141344cd1fd0a4f28419497f9722a3daafe3b4186f6b6457e090600090a35050565b600062ffffff861615611a2057611a19888787878787611d3a565b9050611a30565b611a2d8786868686611e9b565b90505b979650505050505050565b611a43612093565b609e805460ff191660011790557f62e78cea01bee320cd4e420270b5ea74000d11b0c9f74754ebdbfc544b05a25861198f3390565b60008160200151905060008260400151806020019051810190611a9b919061472b565b90506000806000806000806000808a60600151806020019051810190611ac191906147af565b9750975097509750975097509750975087600003611af45760808b0151611aee818988878f8f89896120d9565b50611c44565b87600103611b0f57611b0a8786858d8d86612652565b611c44565b87600203611b2457611b0a8786858d8d612ab9565b87600303611b8657611b0a6040518061012001604052808981526020018881526020018781526020018681526020018481526020018c6001600160401b031681526020018b6001600160a01b0316815260200185815260200183815250612d69565b87600403611c445760008b608001519050611c426040518061016001604052808a815260200189815260200188815260200187815260200185815260200183600081518110611bd757611bd76140a4565b6020026020010151600001516001600160a01b0316815260200183600081518110611c0457611c046140a4565b60200260200101516020015181526020018d6001600160401b031681526020018c6001600160a01b0316815260200186815260200184815250612fe1565b505b5050505050505050505050565b60408051915160248084019190915281518084039091018152604490920190526020810180516001600160e01b03166397a657c960e01b17905290565b600054610100900460ff16611cb55760405162461bcd60e51b8152600401610ce2906145a1565b61102d336119ac565b600054610100900460ff16611ce55760405162461bcd60e51b8152600401610ce2906145a1565b609e805460ff19169055565b609e5460ff1661102d5760405162461bcd60e51b815260206004820152601460248201527314185d5cd8589b194e881b9bdd081c185d5cd95960621b6044820152606401610ce2565b60405163095ea7b360e01b81526001600160a01b038781166004830152602482018490526000919086169063095ea7b3906044016020604051808303816000875af1158015611d8d573d6000803e3d6000fd5b505050506040513d601f19601f82011682018060405250810190611db191906141dc565b506000604051806101000160405280876001600160a01b03168152602001866001600160a01b031681526020018862ffffff168152602001846001600160a01b031681526020014261012c611e0691906148d7565b815260208101869052600060408083018290526060909201525163414bf38960e01b81529091506001600160a01b0389169063414bf38990611e4c9084906004016148ea565b6020604051808303816000875af1158015611e6b573d6000803e3d6000fd5b505050506040513d601f19601f82011682018060405250810190611e8f9190614539565b98975050505050505050565b604080516002808252606082018352600092839291906020830190803683370190505090508581600081518110611ed457611ed46140a4565b60200260200101906001600160a01b031690816001600160a01b0316815250508481600181518110611f0857611f086140a4565b6001600160a01b03928316602091820292909201015260405163d06ca61f60e01b815260009189169063d06ca61f90611f4790889086906004016140ff565b600060405180830381865afa158015611f64573d6000803e3d6000fd5b505050506040513d6000823e601f3d908101601f19168201604052611f8c91908101906141a8565b60405163095ea7b360e01b81526001600160a01b038a81166004830152602482018890529192509088169063095ea7b3906044016020604051808303816000875af1158015611fdf573d6000803e3d6000fd5b505050506040513d601f19601f8201168201806040525081019061200391906141dc565b50604051635c11d79560e01b81526001600160a01b03891690635c11d7959061203990889060009087908a904290600401614967565b600060405180830381600087803b15801561205357600080fd5b505af1158015612067573d6000803e3d6000fd5b505050508060018151811061207e5761207e6140a4565b60200260200101519250505095945050505050565b609e5460ff161561102d5760405162461bcd60e51b815260206004820152601060248201526f14185d5cd8589b194e881c185d5cd95960821b6044820152606401610ce2565b6121046040518060800160405280600081526020016060815260200160608152602001606081525090565b6121c58960008151811061211a5761211a6140a4565b60200260200101516000015160e660009054906101000a90046001600160a01b03168b60008151811061214f5761214f6140a4565b6020026020010151602001513060e960008b6001600160401b03166001600160401b0316815260200190815260200160002060008f600081518110612196576121966140a4565b602090810291909101810151516001600160a01b031682528101919091526040016000205462ffffff166110ff565b815287516001600160401b038111156121e0576121e0613e84565b604051908082528060200260200182016040528015612209578160200160208202803683370190505b50602082015287516001600160401b0381111561222857612228613e84565b604051908082528060200260200182016040528015612251578160200160208202803683370190505b50604082015260005b885181101561259d57600083600081518110612278576122786140a4565b6020026020010151858381518110612292576122926140a4565b602002602001015184600001516122a99190614568565b6122b3919061457f565b60e6548b519192506000916001600160a01b03909116908c90859081106122dc576122dc6140a4565b60200260200101516001600160a01b0316036123fd578a8381518110612304576123046140a4565b602090810291909101015160d3546040516370a0823160e01b81526001600160a01b0391821660048201529116906370a0823190602401602060405180830381865afa158015612358573d6000803e3d6000fd5b505050506040513d601f19601f8201168201806040525081019061237c9190614539565b60e65460d35460405163a9059cbb60e01b81526001600160a01b03918216600482015260248101869052929350169063a9059cbb906044016020604051808303816000875af11580156123d3573d6000803e3d6000fd5b505050506040513d601f19601f820116820180604052508101906123f791906141dc565b5061252f565b6124c28b8481518110612412576124126140a4565b602002602001015160e660009054906101000a90046001600160a01b03168d8681518110612442576124426140a4565b602090810291909101015160d3546040516370a0823160e01b81526001600160a01b0391821660048201529116906370a0823190602401602060405180830381865afa158015612496573d6000803e3d6000fd5b505050506040513d601f19601f820116820180604052508101906124ba9190614539565b610bb8610b09565b905061252d60e660009054906101000a90046001600160a01b03168c85815181106124ef576124ef6140a4565b60200260200101518460d360009054906101000a90046001600160a01b03168e8881518110612520576125206140a4565b60200260200101516110ff565b505b600061253b83836148d7565b90506125468261168e565b8560200151858151811061255c5761255c6140a4565b6020026020010181815250506125718161168e565b85604001518581518110612587576125876140a4565b602090810291909101015250505060010161225a565b5060408051600080825260208083018452840151848401516125ca9492938d9390928c92909184016149b8565b604051602081830303815290604052816060018190525060006125f486868460600151600161133e565b600088815260ef60205260409081902082905551909150879082907f7513d57665f5bbb438203d2f2a896f1f0791e1e8cd0e2d76d7bc421bfb4f49aa9061263e9042815260200190565b60405180910390a350505050505050505050565b6000805b87518110156128f7576000670de0b6b3a764000089838151811061267c5761267c6140a4565b602090810291909101015160d3546040516370a0823160e01b81526001600160a01b0391821660048201529116906370a0823190602401602060405180830381865afa1580156126d0573d6000803e3d6000fd5b505050506040513d601f19601f820116820180604052508101906126f49190614539565b85600081518110612707576127076140a4565b60200260200101516127199190614568565b612723919061457f565b60e6548a519192506001600160a01b0316908a9084908110612747576127476140a4565b60200260200101516001600160a01b0316036127ee5760d35460e654604051631c20fadd60e01b81526001600160a01b03918216600482015230602482015260448101849052911690631c20fadd906064016020604051808303816000875af11580156127b8573d6000803e3d6000fd5b505050506040513d601f19601f820116820180604052508101906127dc91906141dc565b506127e781846148d7565b92506128ee565b60d35489516001600160a01b0390911690631c20fadd908b9085908110612817576128176140a4565b60209081029190910101516040516001600160e01b031960e084901b1681526001600160a01b039091166004820152306024820152604481018490526064016020604051808303816000875af1158015612875573d6000803e3d6000fd5b505050506040513d601f19601f8201168201806040525081019061289991906141dc565b506128e18983815181106128af576128af6140a4565b602002602001015160e660009054906101000a90046001600160a01b031683308c8781518110612520576125206140a4565b6128eb90846148d7565b92505b50600101612656565b5060e6546001600160401b038516600090815260e8602090815260408083205460e983528184206001600160a01b03918216808652935290832054929361294a93911691908590309062ffffff166110ff565b60408051600180825281830190925291925060009190816020015b60408051808201909152600080825260208201528152602001906001900390816129655750506001600160401b038716600090815260e8602052604081205482519293506001600160a01b0316918391906129c2576129c26140a4565b6020026020010151600001906001600160a01b031690816001600160a01b03168152505081816000815181106129fa576129fa6140a4565b6020908102919091018101518101919091526040805160008082529281018381528183019092529190612a38906001908d908c8680606081016149b8565b60405160208183030381529060405290506000612a5989838a87600161309f565b60008b815260ee602052604090819020829055519091508a9082907f2c80cd3884ced9a087f5eed6c8ddd78af4b449cdea210b92786f35bd496f534390612aa39042815260200190565b60405180910390a3505050505050505050505050565b604080516000808252602082019092529050600086516001600160401b03811115612ae657612ae6613e84565b604051908082528060200260200182016040528015612b0f578160200160208202803683370190505b50905060005b8751811015612d185760e65488516001600160a01b0390911690899083908110612b4157612b416140a4565b60200260200101516001600160a01b031603612c0757612be4888281518110612b6c57612b6c6140a4565b602090810291909101015160d3546040516370a0823160e01b81526001600160a01b0391821660048201529116906370a0823190602401602060405180830381865afa158015612bc0573d6000803e3d6000fd5b505050506040513d601f19601f820116820180604052508101906109d79190614539565b828281518110612bf657612bf66140a4565b602002602001018181525050612d10565b6000612ce5898381518110612c1e57612c1e6140a4565b602002602001015160e660009054906101000a90046001600160a01b03168b8581518110612c4e57612c4e6140a4565b602090810291909101015160d3546040516370a0823160e01b81526001600160a01b0391821660048201529116906370a0823190602401602060405180830381865afa158015612ca2573d6000803e3d6000fd5b505050506040513d601f19601f82011682018060405250810190612cc69190614539565b8b8681518110612cd857612cd86140a4565b6020026020010151610b09565b9050612cf08161168e565b838381518110612d0257612d026140a4565b602002602001018181525050505b600101612b15565b5060408051600080825260208201835291612d40916002918b91908a908790899084016149b8565b6040516020818303038152906040529050612d5e858583600161133e565b505050505050505050565b612d9b6040518060a0016040528060008152602001600081526020016000815260200160008152602001600081525090565b81515181526101008201518051600090612db757612db76140a4565b6020026020010151816020018181525050816101000151600181518110612de057612de06140a4565b6020026020010151816040018181525050816101000151600281518110612e0957612e096140a4565b60200260200101518160800181815250506000612e4882846000015185602001518660400151876060015188608001518960c001518a60e001516134c5565b60e65460a0850180516001600160401b03908116600090815260e8602081815260408084205486518616855260e9835281852096519095168452918152818320546001600160a01b03908116845294905281205494955093612eb993831692909116908590309062ffffff166110ff565b60408051600180825281830190925291925060009190816020015b6040805180820190915260008082526020820152815260200190600190039081612ed457505060a08601516001600160401b0316600090815260e8602052604081205482519293506001600160a01b031691839190612f3557612f356140a4565b6020026020010151600001906001600160a01b031690816001600160a01b0316815250508181600081518110612f6d57612f6d6140a4565b602090810291909101810151810191909152604080516000808252818401835288519389015160e08a015192949193612fb09360039392918790819081016149b8565b6040516020818303038152906040529050612fd78760a00151828960c0015186600161309f565b5050505050505050565b60a081015160e65460c083015160d3546000936130119390926001600160a01b0391821692909116610bb86110ff565b905061303b826000015183602001518460400151856060015186608001518688610140015161384c565b6040805160008082526020820181815282840190935261012085015191929161307090600490849081908780606081016149b8565b60405160208183030381529060405290506130978560e0015186610100015183600161133e565b505050505050565b815160d05460009190600160a01b900461ffff168111156131285760405162461bcd60e51b815260206004820152603760248201527f4d6178696d756d203520646966666572656e7420746f6b656e732063616e206260448201527f652073656e74207065722043434950204d6573736167650000000000000000006064820152608401610ce2565b60005b8181101561324e5760d05485516001600160a01b0390911690869083908110613156576131566140a4565b6020026020010151600001516001600160a01b03161461324657848181518110613182576131826140a4565b6020026020010151600001516001600160a01b031663095ea7b3600060029054906101000a90046001600160a01b03168784815181106131c4576131c46140a4565b6020026020010151602001516040518363ffffffff1660e01b81526004016132019291906001600160a01b03929092168252602082015260400190565b6020604051808303816000875af1158015613220573d6000803e3d6000fd5b505050506040513d601f19601f8201168201806040525081019061324491906141dc565b505b60010161312b565b506040805160a081019091526001600160a01b03861660c08201526000908060e0810160408051601f19818403018152918152908252602082018a9052810187905260600160018660018111156132a7576132a761444e565b146132b35760006132c0565b60d0546001600160a01b03165b6001600160a01b031681526020016132e86040518060200160405280620dbba0815250611c51565b9052600080546040516320487ded60e01b81529293509091620100009091046001600160a01b0316906320487ded90613327908c908690600401614464565b602060405180830381865afa158015613344573d6000803e3d6000fd5b505050506040513d601f19601f820116820180604052508101906133689190614539565b9050600060018660018111156133805761338061444e565b03613406576000546040516396f4e9f960e01b8152620100009091046001600160a01b0316906396f4e9f9906133bc908d908790600401614464565b6020604051808303816000875af11580156133db573d6000803e3d6000fd5b505050506040513d601f19601f820116820180604052508101906133ff9190614539565b9050613485565b6000546040516396f4e9f960e01b8152620100009091046001600160a01b0316906396f4e9f990849061343f908e908890600401614464565b60206040518083038185885af115801561345d573d6000803e3d6000fd5b50505050506040513d601f19601f820116820180604052508101906134829190614539565b90505b6040518181527f54791b38f3859327992a1ca0590ad3c0f08feba98d1a4f56ab0dca74d203392a9060200160405180910390a19998505050505050505050565b600061351d604051806101400160405280600081526020016000815260200160008152602001600081526020016000815260200160008152602001600081526020016000815260200160008152602001600081525090565b60e65460d3546040516370a0823160e01b81526001600160a01b0391821660048201529116906370a0823190602401602060405180830381865afa158015613569573d6000803e3d6000fd5b505050506040513d601f19601f8201168201806040525081019061358d9190614539565b60a082015260005b81518110156136e45760e6548a516000916001600160a01b0316908c90849081106135c2576135c26140a4565b60200260200101516001600160a01b0316036135e3575060a08201516136c6565b6136c38b83815181106135f8576135f86140a4565b602002602001015160e660009054906101000a90046001600160a01b03168d8581518110613628576136286140a4565b602090810291909101015160d3546040516370a0823160e01b81526001600160a01b0391821660048201529116906370a0823190602401602060405180830381865afa15801561367c573d6000803e3d6000fd5b505050506040513d601f19601f820116820180604052508101906136a09190614539565b60d3548d516001600160a01b03909116908e9088908110612520576125206140a4565b90505b80836060018181516136d891906148d7565b90525050600101613595565b50875160c082015260208a015160808b01516137099068056bc75e2d63100000614568565b613713919061457f565b60e082018190526040820151606083015161372e9190614568565b613738919061457f565b6101008201819052606082015161374f9190614a21565b61012082015260005b8160c001518110156138395760e65489516001600160a01b03909116908a9083908110613787576137876140a4565b60200260200101516001600160a01b03161461383157600061382e60e660009054906101000a90046001600160a01b03168b84815181106137ca576137ca6140a4565b602002602001015185604001518a86815181106137e9576137e96140a4565b60200260200101518761010001516138019190614568565b61380b919061457f565b60d3548c516001600160a01b03909116908d9088908110612520576125206140a4565b50505b600101613758565b5061012001519998505050505050505050565b6138856040518060c001604052806000815260200160008152602001600081526020016000815260200160008152602001600081525090565b81600181518110613898576138986140a4565b602090810291909101810151825288519082015260e65460d3546040516370a0823160e01b81526001600160a01b0391821660048201529116906370a0823190602401602060405180830381865afa1580156138f8573d6000803e3d6000fd5b505050506040513d601f19601f8201168201806040525081019061391c9190614539565b60408201526000606082018190525b8160200151811015613a3d57600089828151811061394b5761394b6140a4565b602090810291909101015160e6549091506000906001600160a01b039081169083160361397d57506040830151613a1e565b60e65460d3546040516370a0823160e01b81526001600160a01b039182166004820152613a1b92859290811691908316906370a0823190602401602060405180830381865afa1580156139d4573d6000803e3d6000fd5b505050506040513d601f19601f820116820180604052508101906139f89190614539565b60d3548d516001600160a01b03909116908e9089908110612520576125206140a4565b90505b8084606001818151613a3091906148d7565b905250505060010161392b565b506060810151613a4d90846148d7565b6080820152865160a082015260005b8160a00151811015612d5e576000888281518110613a7c57613a7c6140a4565b602002602001015190506000868381518110613a9a57613a9a6140a4565b602090810291909101015160e6549091506001600160a01b03838116911614613b185760e65484516080860151600092613b15926001600160a01b0390911691869190613ae8908790614568565b613af2919061457f565b60d3548d516001600160a01b03909116908e908a908110612520576125206140a4565b50505b5050600101613a5c565b600060208284031215613b3457600080fd5b81356001600160e01b03198116811461101657600080fd5b6001600160a01b038116811461118157600080fd5b60008060008060808587031215613b7757600080fd5b8435613b8281613b4c565b93506020850135613b9281613b4c565b93969395505050506040820135916060013590565b80356001600160401b0381168114613bbe57600080fd5b919050565b60008060008060008060008060006101208a8c031215613be257600080fd5b613beb8a613ba7565b985060208a0135613bfb81613b4c565b975060408a0135613c0b81613b4c565b965060608a0135613c1b81613b4c565b955060808a0135613c2b81613b4c565b945060a08a0135613c3b81613b4c565b935060c08a0135613c4b81613b4c565b925060e08a0135613c5b81613b4c565b91506101008a0135613c6c81613b4c565b809150509295985092959850929598565b600060208284031215613c8f57600080fd5b61101682613ba7565b600060208284031215613caa57600080fd5b813561101681613b4c565b600060208284031215613cc757600080fd5b5035919050565b60008060408385031215613ce157600080fd5b613cea83613ba7565b91506020830135613cfa81613b4c565b809150509250929050565b803562ffffff81168114613bbe57600080fd5b600080600080600060a08688031215613d3057600080fd5b8535613d3b81613b4c565b94506020860135613d4b81613b4c565b9350604086013592506060860135613d6281613b4c565b9150613d7060808701613d05565b90509295509295909350565b60008060408385031215613d8f57600080fd5b823591506020830135613cfa81613b4c565b600060208284031215613db357600080fd5b81356001600160401b03811115613dc957600080fd5b820160a0818503121561101657600080fd5b6000815180845260005b81811015613e0157602081850181015186830182015201613de5565b506000602082860101526020601f19601f83011685010191505092915050565b6001600160401b03861681526001600160a01b038516602082015260a060408201819052600090613e5490830186613ddb565b6001600160a01b0394909416606083015250608001529392505050565b6020815260006110166020830184613ddb565b634e487b7160e01b600052604160045260246000fd5b604080519081016001600160401b0381118282101715613ebc57613ebc613e84565b60405290565b60405160a081016001600160401b0381118282101715613ebc57613ebc613e84565b604051601f8201601f191681016001600160401b0381118282101715613f0c57613f0c613e84565b604052919050565b600082601f830112613f2557600080fd5b81356001600160401b03811115613f3e57613f3e613e84565b613f51601f8201601f1916602001613ee4565b818152846020838601011115613f6657600080fd5b816020850160208301376000918101602001919091529392505050565b60008060008060808587031215613f9957600080fd5b613fa285613ba7565b93506020850135613fb281613b4c565b925060408501356001600160401b03811115613fcd57600080fd5b613fd987828801613f14565b925050606085013560028110613fee57600080fd5b939692955090935050565b6000806000806080858703121561400f57600080fd5b843561401a81613b4c565b9350602085013561402a81613b4c565b925060408501356001600160801b038116811461404657600080fd5b9150606085013563ffffffff81168114613fee57600080fd5b60008060006060848603121561407457600080fd5b61407d84613ba7565b9250602084013561408d81613b4c565b915061409b60408501613d05565b90509250925092565b634e487b7160e01b600052603260045260246000fd5b600081518084526020840193506020830160005b828110156140f55781516001600160a01b03168652602095860195909101906001016140ce565b5093949350505050565b828152604060208201526000610c4160408301846140ba565b60006001600160401b0382111561413157614131613e84565b5060051b60200190565b600082601f83011261414c57600080fd5b815161415f61415a82614118565b613ee4565b8082825260208201915060208360051b86010192508583111561418157600080fd5b602085015b8381101561419e578051835260209283019201614186565b5095945050505050565b6000602082840312156141ba57600080fd5b81516001600160401b038111156141d057600080fd5b610c418482850161413b565b6000602082840312156141ee57600080fd5b8151801515811461101657600080fd5b805169ffffffffffffffffffff81168114613bbe57600080fd5b600080600080600060a0868803121561423057600080fd5b614239866141fe565b60208701516040880151606089015192975090955093509150613d70608087016141fe565b60006020828403121561427057600080fd5b815160ff8116811461101657600080fd5b600082601f83011261429257600080fd5b81356142a061415a82614118565b8082825260208201915060208360061b8601019250858311156142c257600080fd5b602085015b8381101561419e57604081880312156142df57600080fd5b6142e7613e9a565b81356142f281613b4c565b81526020828101358183015290845292909201916040016142c7565b600060a0823603121561432057600080fd5b614328613ec2565b8235815261433860208401613ba7565b602082015260408301356001600160401b0381111561435657600080fd5b61436236828601613f14565b60408301525060608301356001600160401b0381111561438157600080fd5b61438d36828601613f14565b60608301525060808301356001600160401b038111156143ac57600080fd5b6143b836828601614281565b60808301525092915050565b600181811c908216806143d857607f821691505b6020821081036143f857634e487b7160e01b600052602260045260246000fd5b50919050565b60208082526030908201527f50726f706f7361626c654f776e61626c653a206e6577206f776e65722069732060408201526f746865207a65726f206164647265737360801b606082015260800190565b634e487b7160e01b600052602160045260246000fd5b6001600160401b0383168152604060208201526000825160a0604084015261448f60e0840182613ddb565b90506020840151603f198483030160608501526144ac8282613ddb565b6040860151858203603f19016080870152805180835260209182019450600093509101905b8083101561450857835180516001600160a01b031683526020908101518184015290930192600192909201916040909101906144d1565b5060608601516001600160a01b031660a08601526080860151858203603f190160c08701529250611a308184613ddb565b60006020828403121561454b57600080fd5b5051919050565b634e487b7160e01b600052601160045260246000fd5b8082028115828204841417610b0357610b03614552565b60008261459c57634e487b7160e01b600052601260045260246000fd5b500490565b6020808252602b908201527f496e697469616c697a61626c653a20636f6e7472616374206973206e6f74206960408201526a6e697469616c697a696e6760a81b606082015260800190565b60ff8281168282160390811115610b0357610b03614552565b6001815b60018411156146405780850481111561462457614624614552565b600184161561463257908102905b60019390931c928002614609565b935093915050565b60008261465757506001610b03565b8161466457506000610b03565b816001811461467a5760028114614684576146a0565b6001915050610b03565b60ff84111561469557614695614552565b50506001821b610b03565b5060208310610133831016604e8410600b84101617156146c3575081810a610b03565b6146d06000198484614605565b80600019048211156146e4576146e4614552565b029392505050565b600061101660ff841683614648565b80820260008212600160ff1b8414161561471757614717614552565b8181058314821517610b0357610b03614552565b60006020828403121561473d57600080fd5b815161101681613b4c565b600082601f83011261475957600080fd5b815161476761415a82614118565b8082825260208201915060208360051b86010192508583111561478957600080fd5b602085015b8381101561419e5780516147a181613b4c565b83526020928301920161478e565b600080600080600080600080610100898b0312156147cc57600080fd5b885160208a01519098506001600160401b038111156147ea57600080fd5b6147f68b828c01614748565b97505060408901516001600160401b0381111561481257600080fd5b61481e8b828c01614748565b96505060608901516001600160401b0381111561483a57600080fd5b6148468b828c0161413b565b95505060808901516001600160401b0381111561486257600080fd5b61486e8b828c0161413b565b60a08b015160c08c0151919650945090506001600160401b0381111561489357600080fd5b61489f8b828c0161413b565b92505060e08901516001600160401b038111156148bb57600080fd5b6148c78b828c0161413b565b9150509295985092959890939650565b80820180821115610b0357610b03614552565b81516001600160a01b03908116825260208084015182169083015260408084015162ffffff169083015260608084015191821690830152610100820190506080830151608083015260a083015160a083015260c083015160c083015260e083015161496060e08401826001600160a01b03169052565b5092915050565b85815284602082015260a060408201526000613e5460a08301866140ba565b600081518084526020840193506020830160005b828110156140f557815186526020958601959091019060010161499a565b60ff8716815260c0602082015260006149d460c08301886140ba565b82810360408401526149e681886140ba565b90508560608401528281036080840152614a008186614986565b905082810360a0840152614a148185614986565b9998505050505050505050565b81810381811115610b0357610b0361455256fea2646970667358221220acddc73d9e6b80477664d3fe58158b3e999b7f95bd1179ba04d919585a09400f64736f6c634300081a0033","linkReferences":{}},"methodIdentifiers":{"ccipReceive((bytes32,uint64,bytes,bytes,(address,uint256)[]))":"85572ffb","convertEthToUsd(uint256)":"c086381e","crossChainToken(uint64)":"19da7e2a","crossChainTokenSwapFee(uint64,address)":"652354ae","currentChainSelector()":"3d54cb6f","estimateAmountOut(address,address,uint128,uint32)":"bf938db8","factoryV3()":"1d5f45f5","fee()":"ddca3f43","feeRate()":"978bbdb9","feeRatePerDayScaled()":"2fecd589","feeReceiver()":"b3f00674","feeTimestamp()":"184a732f","getAmountOut(address,address,uint256,uint256)":"13cb1f83","getRouter()":"b0f479a1","i_link()":"7d253aff","i_maxTokensLength()":"5b6a0351","initialize(uint64,address,address,address,address,address,address,address,address)":"17c27b76","isRestricted(address)":"c01bc982","issuanceCompletedTokensCount(uint256)":"94037369","issuanceMessageIdByNonce(uint256)":"9121c717","issuanceTokenOldAndNewValues(uint256,address)":"81b15279","latestFeeUpdate()":"011ced5f","messageDetail(bytes32)":"9c3ddb2e","methodologist()":"9f8e67bf","methodology()":"9eeb1d50","minter()":"07546172","oraclePayment()":"0c02e130","owner()":"8da5cb5b","pause()":"8456cb59","paused()":"5c975abb","priceInWei()":"3c8da588","priceOracle()":"2630c12f","proposeOwner(address)":"b5ed298a","proposedOwner()":"d153b60c","quoter()":"c6bbd5a7","receivedMessages(uint256)":"d030366c","redemptionMessageIdByNonce(uint256)":"306b3a28","renounceOwnership()":"715018a6","sendMessage(uint64,address,bytes,uint8)":"bcab90b3","setCcipRouter(address)":"27bf9b44","setCrossChainToken(uint64,address,uint24)":"f0cd5b72","setPriceOracle(address)":"530e784f","setVault(address)":"6817031b","sourceChainSelectorF()":"ff5474f0","supplyCeiling()":"2b52684d","supportsInterface(bytes4)":"01ffc9a7","swap(address,address,uint256,address,uint24)":"7e79f512","swapRouterV2()":"744fbc7a","swapRouterV3()":"b631e80b","toUsdPriceFeed()":"63973fda","transferOwnership(address)":"f2fde38b","unpause()":"3f4ba83a","vault()":"fbfa77cf","weth()":"3fc8cef3"},"id":45}