{"abi":[{"type":"receive","stateMutability":"payable"},{"type":"function","name":"ccipReceive","inputs":[{"name":"message","type":"tuple","internalType":"struct Client.Any2EVMMessage","components":[{"name":"messageId","type":"bytes32","internalType":"bytes32"},{"name":"sourceChainSelector","type":"uint64","internalType":"uint64"},{"name":"sender","type":"bytes","internalType":"bytes"},{"name":"data","type":"bytes","internalType":"bytes"},{"name":"destTokenAmounts","type":"tuple[]","internalType":"struct Client.EVMTokenAmount[]","components":[{"name":"token","type":"address","internalType":"address"},{"name":"amount","type":"uint256","internalType":"uint256"}]}]}],"outputs":[],"stateMutability":"nonpayable"},{"type":"function","name":"convertEthToUsd","inputs":[{"name":"_ethAmount","type":"uint256","internalType":"uint256"}],"outputs":[{"name":"","type":"uint256","internalType":"uint256"}],"stateMutability":"view"},{"type":"function","name":"crossChainToken","inputs":[{"name":"","type":"uint64","internalType":"uint64"}],"outputs":[{"name":"","type":"address","internalType":"address"}],"stateMutability":"view"},{"type":"function","name":"crossChainTokenSwapVersion","inputs":[{"name":"","type":"uint64","internalType":"uint64"},{"name":"","type":"address","internalType":"address"}],"outputs":[{"name":"","type":"uint256","internalType":"uint256"}],"stateMutability":"view"},{"type":"function","name":"crossChainVault","inputs":[],"outputs":[{"name":"","type":"address","internalType":"contract CrossChainVault"}],"stateMutability":"view"},{"type":"function","name":"currentChainSelector","inputs":[],"outputs":[{"name":"","type":"uint64","internalType":"uint64"}],"stateMutability":"view"},{"type":"function","name":"estimateAmountOut","inputs":[{"name":"tokenIn","type":"address","internalType":"address"},{"name":"tokenOut","type":"address","internalType":"address"},{"name":"amountIn","type":"uint128","internalType":"uint128"},{"name":"secondsAgo","type":"uint32","internalType":"uint32"}],"outputs":[{"name":"amountOut","type":"uint256","internalType":"uint256"}],"stateMutability":"view"},{"type":"function","name":"factoryV2","inputs":[],"outputs":[{"name":"","type":"address","internalType":"contract IUniswapV2Factory"}],"stateMutability":"view"},{"type":"function","name":"factoryV3","inputs":[],"outputs":[{"name":"","type":"address","internalType":"contract IUniswapV3Factory"}],"stateMutability":"view"},{"type":"function","name":"fee","inputs":[],"outputs":[{"name":"","type":"uint256","internalType":"uint256"}],"stateMutability":"view"},{"type":"function","name":"feeRate","inputs":[],"outputs":[{"name":"","type":"uint8","internalType":"uint8"}],"stateMutability":"view"},{"type":"function","name":"feeRatePerDayScaled","inputs":[],"outputs":[{"name":"","type":"uint256","internalType":"uint256"}],"stateMutability":"view"},{"type":"function","name":"feeReceiver","inputs":[],"outputs":[{"name":"","type":"address","internalType":"address"}],"stateMutability":"view"},{"type":"function","name":"feeTimestamp","inputs":[],"outputs":[{"name":"","type":"uint256","internalType":"uint256"}],"stateMutability":"view"},{"type":"function","name":"getAmountOut","inputs":[{"name":"tokenIn","type":"address","internalType":"address"},{"name":"tokenOut","type":"address","internalType":"address"},{"name":"amountIn","type":"uint256","internalType":"uint256"},{"name":"_swapVersion","type":"uint256","internalType":"uint256"}],"outputs":[{"name":"finalAmountOut","type":"uint256","internalType":"uint256"}],"stateMutability":"view"},{"type":"function","name":"getRouter","inputs":[],"outputs":[{"name":"","type":"address","internalType":"address"}],"stateMutability":"view"},{"type":"function","name":"i_link","inputs":[],"outputs":[{"name":"","type":"address","internalType":"address"}],"stateMutability":"view"},{"type":"function","name":"i_maxTokensLength","inputs":[],"outputs":[{"name":"","type":"uint16","internalType":"uint16"}],"stateMutability":"view"},{"type":"function","name":"initialize","inputs":[{"name":"_currentChainSelector","type":"uint64","internalType":"uint64"},{"name":"_crossChainVault","type":"address","internalType":"address payable"},{"name":"_chainlinkToken","type":"address","internalType":"address"},{"name":"_router","type":"address","internalType":"address"},{"name":"_weth","type":"address","internalType":"address"},{"name":"_swapRouterV3","type":"address","internalType":"address"},{"name":"_factoryV3","type":"address","internalType":"address"},{"name":"_swapRouterV2","type":"address","internalType":"address"},{"name":"_factoryV2","type":"address","internalType":"address"},{"name":"_toUsdPriceFeed","type":"address","internalType":"address"}],"outputs":[],"stateMutability":"nonpayable"},{"type":"function","name":"isRestricted","inputs":[{"name":"","type":"address","internalType":"address"}],"outputs":[{"name":"","type":"bool","internalType":"bool"}],"stateMutability":"view"},{"type":"function","name":"issuanceCompletedTokensCount","inputs":[{"name":"","type":"uint256","internalType":"uint256"}],"outputs":[{"name":"","type":"uint256","internalType":"uint256"}],"stateMutability":"view"},{"type":"function","name":"issuanceMessageIdByNonce","inputs":[{"name":"","type":"uint256","internalType":"uint256"}],"outputs":[{"name":"","type":"bytes32","internalType":"bytes32"}],"stateMutability":"view"},{"type":"function","name":"issuanceTokenOldAndNewValues","inputs":[{"name":"","type":"uint256","internalType":"uint256"},{"name":"","type":"address","internalType":"address"}],"outputs":[{"name":"oldTokenValue","type":"uint256","internalType":"uint256"},{"name":"newTokenValue","type":"uint256","internalType":"uint256"}],"stateMutability":"view"},{"type":"function","name":"latestFeeUpdate","inputs":[],"outputs":[{"name":"","type":"uint256","internalType":"uint256"}],"stateMutability":"view"},{"type":"function","name":"messageDetail","inputs":[{"name":"","type":"bytes32","internalType":"bytes32"}],"outputs":[{"name":"sourceChainSelector","type":"uint64","internalType":"uint64"},{"name":"sender","type":"address","internalType":"address"},{"name":"message","type":"string","internalType":"string"},{"name":"token","type":"address","internalType":"address"},{"name":"amount","type":"uint256","internalType":"uint256"}],"stateMutability":"view"},{"type":"function","name":"methodologist","inputs":[],"outputs":[{"name":"","type":"address","internalType":"address"}],"stateMutability":"view"},{"type":"function","name":"methodology","inputs":[],"outputs":[{"name":"","type":"string","internalType":"string"}],"stateMutability":"view"},{"type":"function","name":"minter","inputs":[],"outputs":[{"name":"","type":"address","internalType":"address"}],"stateMutability":"view"},{"type":"function","name":"oraclePayment","inputs":[],"outputs":[{"name":"","type":"uint256","internalType":"uint256"}],"stateMutability":"view"},{"type":"function","name":"owner","inputs":[],"outputs":[{"name":"","type":"address","internalType":"address"}],"stateMutability":"view"},{"type":"function","name":"pause","inputs":[],"outputs":[],"stateMutability":"nonpayable"},{"type":"function","name":"paused","inputs":[],"outputs":[{"name":"","type":"bool","internalType":"bool"}],"stateMutability":"view"},{"type":"function","name":"priceInWei","inputs":[],"outputs":[{"name":"","type":"uint256","internalType":"uint256"}],"stateMutability":"view"},{"type":"function","name":"proposeOwner","inputs":[{"name":"_proposedOwner","type":"address","internalType":"address"}],"outputs":[],"stateMutability":"nonpayable"},{"type":"function","name":"proposedOwner","inputs":[],"outputs":[{"name":"","type":"address","internalType":"address"}],"stateMutability":"view"},{"type":"function","name":"quoter","inputs":[],"outputs":[{"name":"","type":"address","internalType":"contract IQuoter"}],"stateMutability":"view"},{"type":"function","name":"receivedMessages","inputs":[{"name":"","type":"uint256","internalType":"uint256"}],"outputs":[{"name":"","type":"bytes32","internalType":"bytes32"}],"stateMutability":"view"},{"type":"function","name":"redemptionMessageIdByNonce","inputs":[{"name":"","type":"uint256","internalType":"uint256"}],"outputs":[{"name":"","type":"bytes32","internalType":"bytes32"}],"stateMutability":"view"},{"type":"function","name":"renounceOwnership","inputs":[],"outputs":[],"stateMutability":"nonpayable"},{"type":"function","name":"sendMessage","inputs":[{"name":"destinationChainSelector","type":"uint64","internalType":"uint64"},{"name":"receiver","type":"address","internalType":"address"},{"name":"_data","type":"bytes","internalType":"bytes"},{"name":"payFeesIn","type":"uint8","internalType":"enum CrossChainIndexFactory.PayFeesIn"}],"outputs":[{"name":"","type":"bytes32","internalType":"bytes32"}],"stateMutability":"nonpayable"},{"type":"function","name":"setCcipRouter","inputs":[{"name":"_router","type":"address","internalType":"address"}],"outputs":[],"stateMutability":"nonpayable"},{"type":"function","name":"setCrossChainToken","inputs":[{"name":"_chainSelector","type":"uint64","internalType":"uint64"},{"name":"_crossChainToken","type":"address","internalType":"address"},{"name":"_swapVersion","type":"uint256","internalType":"uint256"}],"outputs":[],"stateMutability":"nonpayable"},{"type":"function","name":"setCrossChainVault","inputs":[{"name":"_crossChainVault","type":"address","internalType":"address payable"}],"outputs":[],"stateMutability":"nonpayable"},{"type":"function","name":"sourceChainSelectorF","inputs":[],"outputs":[{"name":"","type":"uint64","internalType":"uint64"}],"stateMutability":"view"},{"type":"function","name":"supplyCeiling","inputs":[],"outputs":[{"name":"","type":"uint256","internalType":"uint256"}],"stateMutability":"view"},{"type":"function","name":"supportsInterface","inputs":[{"name":"interfaceId","type":"bytes4","internalType":"bytes4"}],"outputs":[{"name":"","type":"bool","internalType":"bool"}],"stateMutability":"pure"},{"type":"function","name":"swap","inputs":[{"name":"tokenIn","type":"address","internalType":"address"},{"name":"tokenOut","type":"address","internalType":"address"},{"name":"amountIn","type":"uint256","internalType":"uint256"},{"name":"_recipient","type":"address","internalType":"address"},{"name":"_swapVersion","type":"uint256","internalType":"uint256"}],"outputs":[{"name":"","type":"uint256","internalType":"uint256"}],"stateMutability":"nonpayable"},{"type":"function","name":"swapRouterV2","inputs":[],"outputs":[{"name":"","type":"address","internalType":"contract IUniswapV2Router02"}],"stateMutability":"view"},{"type":"function","name":"swapRouterV3","inputs":[],"outputs":[{"name":"","type":"address","internalType":"contract ISwapRouter"}],"stateMutability":"view"},{"type":"function","name":"toUsdPriceFeed","inputs":[],"outputs":[{"name":"","type":"address","internalType":"contract AggregatorV3Interface"}],"stateMutability":"view"},{"type":"function","name":"transferOwnership","inputs":[{"name":"newOwner","type":"address","internalType":"address"}],"outputs":[],"stateMutability":"nonpayable"},{"type":"function","name":"unpause","inputs":[],"outputs":[],"stateMutability":"nonpayable"},{"type":"function","name":"weth","inputs":[],"outputs":[{"name":"","type":"address","internalType":"contract IWETH"}],"stateMutability":"view"},{"type":"event","name":"ChainlinkCancelled","inputs":[{"name":"id","type":"bytes32","indexed":true,"internalType":"bytes32"}],"anonymous":false},{"type":"event","name":"ChainlinkFulfilled","inputs":[{"name":"id","type":"bytes32","indexed":true,"internalType":"bytes32"}],"anonymous":false},{"type":"event","name":"ChainlinkRequested","inputs":[{"name":"id","type":"bytes32","indexed":true,"internalType":"bytes32"}],"anonymous":false},{"type":"event","name":"Initialized","inputs":[{"name":"version","type":"uint8","indexed":false,"internalType":"uint8"}],"anonymous":false},{"type":"event","name":"Issuanced","inputs":[{"name":"messageId","type":"bytes32","indexed":true,"internalType":"bytes32"},{"name":"nonce","type":"uint256","indexed":true,"internalType":"uint256"},{"name":"time","type":"uint256","indexed":false,"internalType":"uint256"}],"anonymous":false},{"type":"event","name":"MessageSent","inputs":[{"name":"messageId","type":"bytes32","indexed":false,"internalType":"bytes32"}],"anonymous":false},{"type":"event","name":"OwnershipTransferred","inputs":[{"name":"previousOwner","type":"address","indexed":true,"internalType":"address"},{"name":"newOwner","type":"address","indexed":true,"internalType":"address"}],"anonymous":false},{"type":"event","name":"Paused","inputs":[{"name":"account","type":"address","indexed":false,"internalType":"address"}],"anonymous":false},{"type":"event","name":"Redemption","inputs":[{"name":"messageId","type":"bytes32","indexed":true,"internalType":"bytes32"},{"name":"nonce","type":"uint256","indexed":true,"internalType":"uint256"},{"name":"time","type":"uint256","indexed":false,"internalType":"uint256"}],"anonymous":false},{"type":"event","name":"Unpaused","inputs":[{"name":"account","type":"address","indexed":false,"internalType":"address"}],"anonymous":false},{"type":"error","name":"InvalidRouter","inputs":[{"name":"router","type":"address","internalType":"address"}]},{"type":"error","name":"T","inputs":[]}],"bytecode":{"object":"0x60806040523480156200001157600080fd5b506190c380620000226000396000f3fe60806040526004361061031e5760003560e01c8063715018a6116101ab578063b0f479a1116100f7578063c086381e11610095578063d153b60c1161006f578063d153b60c14610c30578063ddca3f4314610c5b578063f2fde38b14610c86578063ff5474f014610caf57610325565b8063c086381e14610b8b578063c6bbd5a714610bc8578063d030366c14610bf357610325565b8063b631e80b116100d1578063b631e80b14610aa9578063bcab90b314610ad4578063bf938db814610b11578063c01bc98214610b4e57610325565b8063b0f479a114610a2a578063b3f0067414610a55578063b5ed298a14610a8057610325565b80638da5cb5b11610164578063978bbdb91161013e578063978bbdb9146109685780639c3ddb2e146109935780639eeb1d50146109d45780639f8e67bf146109ff57610325565b80638da5cb5b146108c35780639121c717146108ee578063940373691461092b57610325565b8063715018a6146107d8578063744fbc7a146107ef5780637d253aff1461081a57806381b15279146108455780638456cb591461088357806385572ffb1461089a57610325565b80632b52684d1161026a5780633f4ba83a116102235780635c975abb116101fd5780635c975abb1461072e5780635f206b661461075957806363973fda1461078257806368e0d4e1146107ad57610325565b80633f4ba83a146106c15780633fc8cef3146106d85780635b6a03511461070357610325565b80632b52684d146105ad5780632fecd589146105d8578063306b3a28146106035780633c8da588146106405780633d13272b1461066b5780633d54cb6f1461069657610325565b806317d88f46116102d757806319da7e2a116102b157806319da7e2a146104f35780631d5f45f5146105305780632651e6621461055b57806327bf9b441461058457610325565b806317d88f4614610462578063184a732f1461049f578063195c4913146104ca57610325565b8063011ced5f1461032a57806301ffc9a71461035557806307546172146103925780630c02e130146103bd57806313cb1f83146103e8578063174cbe501461042557610325565b3661032557005b600080fd5b34801561033657600080fd5b5061033f610cda565b60405161034c9190617dfd565b60405180910390f35b34801561036157600080fd5b5061037c60048036038101906103779190616bb0565b610ce0565b60405161038991906178af565b60405180910390f35b34801561039e57600080fd5b506103a7610db2565b6040516103b491906177bf565b60405180910390f35b3480156103c957600080fd5b506103d2610dd8565b6040516103df9190617dfd565b60405180910390f35b3480156103f457600080fd5b5061040f600480360381019061040a9190616a01565b610dde565b60405161041c9190617dfd565b60405180910390f35b34801561043157600080fd5b5061044c60048036038101906104479190616e4b565b610fd1565b6040516104599190617dfd565b60405180910390f35b34801561046e57600080fd5b5061048960048036038101906104849190616986565b610ff6565b6040516104969190617dfd565b60405180910390f35b3480156104ab57600080fd5b506104b461144c565b6040516104c19190617dfd565b60405180910390f35b3480156104d657600080fd5b506104f160048036038101906104ec9190616fed565b611452565b005b3480156104ff57600080fd5b5061051a60048036038101906105159190616e1e565b61152e565b60405161052791906177bf565b60405180910390f35b34801561053c57600080fd5b50610545611561565b6040516105529190617987565b60405180910390f35b34801561056757600080fd5b50610582600480360381019061057d9190616e8b565b611587565b005b34801561059057600080fd5b506105ab60048036038101906105a6919061686b565b611a40565b005b3480156105b957600080fd5b506105c2611a8c565b6040516105cf9190617dfd565b60405180910390f35b3480156105e457600080fd5b506105ed611a92565b6040516105fa9190617dfd565b60405180910390f35b34801561060f57600080fd5b5061062a60048036038101906106259190616c26565b611a98565b60405161063791906178ca565b60405180910390f35b34801561064c57600080fd5b50610655611ab0565b6040516106629190617dfd565b60405180910390f35b34801561067757600080fd5b50610680611c13565b60405161068d9190617900565b60405180910390f35b3480156106a257600080fd5b506106ab611c39565b6040516106b89190617ecb565b60405180910390f35b3480156106cd57600080fd5b506106d6611c53565b005b3480156106e457600080fd5b506106ed611c65565b6040516106fa91906179a2565b60405180910390f35b34801561070f57600080fd5b50610718611c8b565b6040516107259190617de2565b60405180910390f35b34801561073a57600080fd5b50610743611c9f565b60405161075091906178af565b60405180910390f35b34801561076557600080fd5b50610780600480360381019061077b91906168c5565b611cb6565b005b34801561078e57600080fd5b50610797611d02565b6040516107a491906178e5565b60405180910390f35b3480156107b957600080fd5b506107c2611d28565b6040516107cf9190617951565b60405180910390f35b3480156107e457600080fd5b506107ed611d4e565b005b3480156107fb57600080fd5b50610804611d62565b604051610811919061796c565b60405180910390f35b34801561082657600080fd5b5061082f611d88565b60405161083c91906177bf565b60405180910390f35b34801561085157600080fd5b5061086c60048036038101906108679190616c80565b611dae565b60405161087a929190617ea2565b60405180910390f35b34801561088f57600080fd5b50610898611ddf565b005b3480156108a657600080fd5b506108c160048036038101906108bc9190616bdd565b611df1565b005b3480156108cf57600080fd5b506108d8611e98565b6040516108e591906177bf565b60405180910390f35b3480156108fa57600080fd5b5061091560048036038101906109109190616c26565b611ec2565b60405161092291906178ca565b60405180910390f35b34801561093757600080fd5b50610952600480360381019061094d9190616c26565b611eda565b60405161095f9190617dfd565b60405180910390f35b34801561097457600080fd5b5061097d611ef2565b60405161098a9190617f70565b60405180910390f35b34801561099f57600080fd5b506109ba60048036038101906109b59190616b56565b611f05565b6040516109cb959493929190617ee6565b60405180910390f35b3480156109e057600080fd5b506109e9612017565b6040516109f69190617c49565b60405180910390f35b348015610a0b57600080fd5b50610a146120a5565b604051610a2191906177bf565b60405180910390f35b348015610a3657600080fd5b50610a3f6120cb565b604051610a4c91906177bf565b60405180910390f35b348015610a6157600080fd5b50610a6a6120f4565b604051610a7791906177bf565b60405180910390f35b348015610a8c57600080fd5b50610aa76004803603810190610aa2919061686b565b61211a565b005b348015610ab557600080fd5b50610abe6121d6565b604051610acb9190617936565b60405180910390f35b348015610ae057600080fd5b50610afb6004803603810190610af69190616f6a565b6121fc565b604051610b0891906178ca565b60405180910390f35b348015610b1d57600080fd5b50610b386004803603810190610b33919061691f565b6125b4565b604051610b459190617dfd565b60405180910390f35b348015610b5a57600080fd5b50610b756004803603810190610b70919061686b565b612691565b604051610b8291906178af565b60405180910390f35b348015610b9757600080fd5b50610bb26004803603810190610bad9190616c26565b6126b1565b604051610bbf9190617dfd565b60405180910390f35b348015610bd457600080fd5b50610bdd6126e0565b604051610bea919061791b565b60405180910390f35b348015610bff57600080fd5b50610c1a6004803603810190610c159190616c26565b612706565b604051610c2791906178ca565b60405180910390f35b348015610c3c57600080fd5b50610c4561272a565b604051610c5291906177bf565b60405180910390f35b348015610c6757600080fd5b50610c70612750565b604051610c7d9190617dfd565b60405180910390f35b348015610c9257600080fd5b50610cad6004803603810190610ca8919061686b565b612756565b005b348015610cbb57600080fd5b50610cc46128d0565b604051610cd19190617ecb565b60405180910390f35b60d65481565b60007f85572ffb000000000000000000000000000000000000000000000000000000007bffffffffffffffffffffffffffffffffffffffffffffffffffffffff1916827bffffffffffffffffffffffffffffffffffffffffffffffffffffffff19161480610dab57507f01ffc9a7000000000000000000000000000000000000000000000000000000007bffffffffffffffffffffffffffffffffffffffffffffffffffffffff1916827bffffffffffffffffffffffffffffffffffffffffffffffffffffffff1916145b9050919050565b60dc60009054906101000a900473ffffffffffffffffffffffffffffffffffffffff1681565b60e05481565b600080831115610fc9576003821415610e0557610dfe85858560016125b4565b9050610fc8565b6000600267ffffffffffffffff811115610e2257610e21618c48565b5b604051908082528060200260200182016040528015610e505781602001602082028036833780820191505090505b5090508581600081518110610e6857610e67618c19565b5b602002602001019073ffffffffffffffffffffffffffffffffffffffff16908173ffffffffffffffffffffffffffffffffffffffff16815250508481600181518110610eb757610eb6618c19565b5b602002602001019073ffffffffffffffffffffffffffffffffffffffff16908173ffffffffffffffffffffffffffffffffffffffff1681525050600060e460009054906101000a900473ffffffffffffffffffffffffffffffffffffffff1673ffffffffffffffffffffffffffffffffffffffff1663d06ca61f86846040518363ffffffff1660e01b8152600401610f50929190617e18565b60006040518083038186803b158015610f6857600080fd5b505afa158015610f7c573d6000803e3d6000fd5b505050506040513d6000823e3d601f19601f82011682018060405250810190610fa59190616ae0565b905080600181518110610fbb57610fba618c19565b5b6020026020010151925050505b5b949350505050565b60e9602052816000526040600020602052806000526040600020600091509150505481565b6000600382141561120b578573ffffffffffffffffffffffffffffffffffffffff1663095ea7b360e260009054906101000a900473ffffffffffffffffffffffffffffffffffffffff16866040518363ffffffff1660e01b815260040161105e929190617864565b602060405180830381600087803b15801561107857600080fd5b505af115801561108c573d6000803e3d6000fd5b505050506040513d601f19601f820116820180604052508101906110b09190616b29565b5060006040518061010001604052808873ffffffffffffffffffffffffffffffffffffffff1681526020018773ffffffffffffffffffffffffffffffffffffffff168152602001610bb862ffffff1681526020018573ffffffffffffffffffffffffffffffffffffffff16815260200142815260200186815260200160008152602001600073ffffffffffffffffffffffffffffffffffffffff168152509050600060e260009054906101000a900473ffffffffffffffffffffffffffffffffffffffff1673ffffffffffffffffffffffffffffffffffffffff1663414bf389836040518263ffffffff1660e01b81526004016111ad9190617dc6565b602060405180830381600087803b1580156111c757600080fd5b505af11580156111db573d6000803e3d6000fd5b505050506040513d601f19601f820116820180604052508101906111ff9190616c53565b90508092505050611443565b6000600267ffffffffffffffff81111561122857611227618c48565b5b6040519080825280602002602001820160405280156112565781602001602082028036833780820191505090505b509050868160008151811061126e5761126d618c19565b5b602002602001019073ffffffffffffffffffffffffffffffffffffffff16908173ffffffffffffffffffffffffffffffffffffffff168152505085816001815181106112bd576112bc618c19565b5b602002602001019073ffffffffffffffffffffffffffffffffffffffff16908173ffffffffffffffffffffffffffffffffffffffff16815250508673ffffffffffffffffffffffffffffffffffffffff1663095ea7b360e460009054906101000a900473ffffffffffffffffffffffffffffffffffffffff16876040518363ffffffff1660e01b8152600401611354929190617864565b602060405180830381600087803b15801561136e57600080fd5b505af1158015611382573d6000803e3d6000fd5b505050506040513d601f19601f820116820180604052508101906113a69190616b29565b5060e460009054906101000a900473ffffffffffffffffffffffffffffffffffffffff1673ffffffffffffffffffffffffffffffffffffffff16635c11d7958660008488426040518663ffffffff1660e01b815260040161140b959493929190617e48565b600060405180830381600087803b15801561142557600080fd5b505af1158015611439573d6000803e3d6000fd5b5050505060009150505b95945050505050565b60d95481565b61145a6128ea565b8160e860008567ffffffffffffffff1667ffffffffffffffff16815260200190815260200160002060006101000a81548173ffffffffffffffffffffffffffffffffffffffff021916908373ffffffffffffffffffffffffffffffffffffffff1602179055508060e960008567ffffffffffffffff1667ffffffffffffffff16815260200190815260200160002060008473ffffffffffffffffffffffffffffffffffffffff1673ffffffffffffffffffffffffffffffffffffffff16815260200190815260200160002081905550505050565b60e86020528060005260406000206000915054906101000a900473ffffffffffffffffffffffffffffffffffffffff1681565b60e360009054906101000a900473ffffffffffffffffffffffffffffffffffffffff1681565b60008060019054906101000a900460ff161590508080156115b85750600160008054906101000a900460ff1660ff16105b806115e557506115c730612968565b1580156115e45750600160008054906101000a900460ff1660ff16145b5b611624576040517f08c379a000000000000000000000000000000000000000000000000000000000815260040161161b90617d2b565b60405180910390fd5b60016000806101000a81548160ff021916908360ff1602179055508015611661576001600060016101000a81548160ff0219169083151502179055505b61166961298b565b6116716129e4565b8a60d760006101000a81548167ffffffffffffffff021916908367ffffffffffffffff1602179055508960d360006101000a81548173ffffffffffffffffffffffffffffffffffffffff021916908373ffffffffffffffffffffffffffffffffffffffff1602179055506116e489612a3d565b87600060026101000a81548173ffffffffffffffffffffffffffffffffffffffff021916908373ffffffffffffffffffffffffffffffffffffffff1602179055508860d060006101000a81548173ffffffffffffffffffffffffffffffffffffffff021916908373ffffffffffffffffffffffffffffffffffffffff160217905550600560d060146101000a81548161ffff021916908361ffff1602179055508873ffffffffffffffffffffffffffffffffffffffff1663095ea7b3600060029054906101000a900473ffffffffffffffffffffffffffffffffffffffff167fffffffffffffffffffffffffffffffffffffffffffffffffffffffffffffffff6040518363ffffffff1660e01b8152600401611801929190617864565b602060405180830381600087803b15801561181b57600080fd5b505af115801561182f573d6000803e3d6000fd5b505050506040513d601f19601f820116820180604052508101906118539190616b29565b508660e660006101000a81548173ffffffffffffffffffffffffffffffffffffffff021916908373ffffffffffffffffffffffffffffffffffffffff1602179055508560e260006101000a81548173ffffffffffffffffffffffffffffffffffffffff021916908373ffffffffffffffffffffffffffffffffffffffff1602179055508460e360006101000a81548173ffffffffffffffffffffffffffffffffffffffff021916908373ffffffffffffffffffffffffffffffffffffffff1602179055508360e460006101000a81548173ffffffffffffffffffffffffffffffffffffffff021916908373ffffffffffffffffffffffffffffffffffffffff1602179055508260e560006101000a81548173ffffffffffffffffffffffffffffffffffffffff021916908373ffffffffffffffffffffffffffffffffffffffff1602179055508160e160006101000a81548173ffffffffffffffffffffffffffffffffffffffff021916908373ffffffffffffffffffffffffffffffffffffffff1602179055508015611a335760008060016101000a81548160ff0219169083151502179055507f7f26b83ff96e1f2b6a682f133852f6798a09c465da95921460cefb38474024986001604051611a2a9190617a3a565b60405180910390a15b5050505050505050505050565b611a486128ea565b80600060026101000a81548173ffffffffffffffffffffffffffffffffffffffff021916908373ffffffffffffffffffffffffffffffffffffffff16021790555050565b60de5481565b60d85481565b60ee6020528060005260406000206000915090505481565b60008060e160009054906101000a900473ffffffffffffffffffffffffffffffffffffffff1673ffffffffffffffffffffffffffffffffffffffff1663feaf968c6040518163ffffffff1660e01b815260040160a06040518083038186803b158015611b1b57600080fd5b505afa158015611b2f573d6000803e3d6000fd5b505050506040513d601f19601f82011682018060405250810190611b539190617040565b505050915050600060e160009054906101000a900473ffffffffffffffffffffffffffffffffffffffff1673ffffffffffffffffffffffffffffffffffffffff1663313ce5676040518163ffffffff1660e01b815260040160206040518083038186803b158015611bc357600080fd5b505afa158015611bd7573d6000803e3d6000fd5b505050506040513d601f19601f82011682018060405250810190611bfb91906170bb565b9050611c0982826012612a81565b9150819250505090565b60d360009054906101000a900473ffffffffffffffffffffffffffffffffffffffff1681565b60d760009054906101000a900467ffffffffffffffff1681565b611c5b6128ea565b611c63612ae8565b565b60e660009054906101000a900473ffffffffffffffffffffffffffffffffffffffff1681565b60d060149054906101000a900461ffff1681565b6000609e60009054906101000a900460ff16905090565b611cbe6128ea565b8060d360006101000a81548173ffffffffffffffffffffffffffffffffffffffff021916908373ffffffffffffffffffffffffffffffffffffffff16021790555050565b60e160009054906101000a900473ffffffffffffffffffffffffffffffffffffffff1681565b60e560009054906101000a900473ffffffffffffffffffffffffffffffffffffffff1681565b611d566128ea565b611d606000612b4b565b565b60e460009054906101000a900473ffffffffffffffffffffffffffffffffffffffff1681565b60d060009054906101000a900473ffffffffffffffffffffffffffffffffffffffff1681565b60ec602052816000526040600020602052806000526040600020600091509150508060000154908060010154905082565b611de76128ea565b611def612c11565b565b600060029054906101000a900473ffffffffffffffffffffffffffffffffffffffff1673ffffffffffffffffffffffffffffffffffffffff163373ffffffffffffffffffffffffffffffffffffffff1614611e8357336040517fd7f73334000000000000000000000000000000000000000000000000000000008152600401611e7a91906177bf565b60405180910390fd5b611e9581611e90906189ac565b612c74565b50565b6000603960009054906101000a900473ffffffffffffffffffffffffffffffffffffffff16905090565b60ef6020528060005260406000206000915090505481565b60ed6020528060005260406000206000915090505481565b60d560009054906101000a900460ff1681565b60d26020528060005260406000206000915090508060000160009054906101000a900467ffffffffffffffff16908060000160089054906101000a900473ffffffffffffffffffffffffffffffffffffffff1690806001018054611f6890618a80565b80601f0160208091040260200160405190810160405280929190818152602001828054611f9490618a80565b8015611fe15780601f10611fb657610100808354040283529160200191611fe1565b820191906000526020600020905b815481529060010190602001808311611fc457829003601f168201915b5050505050908060020160009054906101000a900473ffffffffffffffffffffffffffffffffffffffff16908060030154905085565b60dd805461202490618a80565b80601f016020809104026020016040519081016040528092919081815260200182805461205090618a80565b801561209d5780601f106120725761010080835404028352916020019161209d565b820191906000526020600020905b81548152906001019060200180831161208057829003601f168201915b505050505081565b60db60009054906101000a900473ffffffffffffffffffffffffffffffffffffffff1681565b60008060029054906101000a900473ffffffffffffffffffffffffffffffffffffffff16905090565b60da60009054906101000a900473ffffffffffffffffffffffffffffffffffffffff1681565b6121226128ea565b600073ffffffffffffffffffffffffffffffffffffffff168173ffffffffffffffffffffffffffffffffffffffff161415612192576040517f08c379a000000000000000000000000000000000000000000000000000000000815260040161218990617d6b565b60405180910390fd5b80606b60006101000a81548173ffffffffffffffffffffffffffffffffffffffff021916908373ffffffffffffffffffffffffffffffffffffffff16021790555050565b60e260009054906101000a900473ffffffffffffffffffffffffffffffffffffffff1681565b6000806040518060a001604052808660405160200161221b91906177bf565b6040516020818303038152906040528152602001858152602001600067ffffffffffffffff8111156122505761224f618c48565b5b60405190808252806020026020018201604052801561228957816020015b6122766160f7565b81526020019060019003908161226e5790505b5081526020016001808111156122a2576122a1618bbb565b5b8560018111156122b5576122b4618bbb565b5b146122c15760006122e5565b60d060009054906101000a900473ffffffffffffffffffffffffffffffffffffffff165b73ffffffffffffffffffffffffffffffffffffffff1681526020016123236040518060400160405280620dbba0815260200160001515815250612e8f565b815250905060008060029054906101000a900473ffffffffffffffffffffffffffffffffffffffff1673ffffffffffffffffffffffffffffffffffffffff166320487ded88846040518363ffffffff1660e01b8152600401612386929190617f40565b60206040518083038186803b15801561239e57600080fd5b505afa1580156123b2573d6000803e3d6000fd5b505050506040513d601f19601f820116820180604052508101906123d69190616c53565b905060006001808111156123ed576123ec618bbb565b5b856001811115612400576123ff618bbb565b5b14156124bc57600060029054906101000a900473ffffffffffffffffffffffffffffffffffffffff1673ffffffffffffffffffffffffffffffffffffffff166396f4e9f989856040518363ffffffff1660e01b8152600401612463929190617f40565b602060405180830381600087803b15801561247d57600080fd5b505af1158015612491573d6000803e3d6000fd5b505050506040513d601f19601f820116820180604052508101906124b59190616b83565b905061256f565b600060029054906101000a900473ffffffffffffffffffffffffffffffffffffffff1673ffffffffffffffffffffffffffffffffffffffff166396f4e9f9838a866040518463ffffffff1660e01b815260040161251a929190617f40565b6020604051808303818588803b15801561253357600080fd5b505af1158015612547573d6000803e3d6000fd5b50505050506040513d601f19601f8201168201806040525081019061256c9190616b83565b90505b7f54791b38f3859327992a1ca0590ad3c0f08feba98d1a4f56ab0dca74d203392a8160405161259e91906178ca565b60405180910390a1809350505050949350505050565b60008060e360009054906101000a900473ffffffffffffffffffffffffffffffffffffffff1673ffffffffffffffffffffffffffffffffffffffff16631698ee828787610bb86040518463ffffffff1660e01b8152600401612618939291906177da565b60206040518083038186803b15801561263057600080fd5b505afa158015612644573d6000803e3d6000fd5b505050506040513d601f19601f820116820180604052508101906126689190616898565b905060006126768285612f0e565b509050612685818689896131f4565b92505050949350505050565b60df6020528060005260406000206000915054906101000a900460ff1681565b6000670de0b6b3a76400006126c4611ab0565b836126cf91906185d5565b6126d991906182ca565b9050919050565b60e760009054906101000a900473ffffffffffffffffffffffffffffffffffffffff1681565b60d1818154811061271657600080fd5b906000526020600020016000915090505481565b606b60009054906101000a900473ffffffffffffffffffffffffffffffffffffffff1681565b60d45481565b600073ffffffffffffffffffffffffffffffffffffffff168173ffffffffffffffffffffffffffffffffffffffff1614156127c6576040517f08c379a00000000000000000000000000000000000000000000000000000000081526004016127bd90617d6b565b60405180910390fd5b606b60009054906101000a900473ffffffffffffffffffffffffffffffffffffffff1673ffffffffffffffffffffffffffffffffffffffff168173ffffffffffffffffffffffffffffffffffffffff1614612856576040517f08c379a000000000000000000000000000000000000000000000000000000000815260040161284d90617c8b565b60405180910390fd5b3373ffffffffffffffffffffffffffffffffffffffff168173ffffffffffffffffffffffffffffffffffffffff16146128c4576040517f08c379a00000000000000000000000000000000000000000000000000000000081526004016128bb90617d0b565b60405180910390fd5b6128cd81612b4b565b50565b60eb60009054906101000a900467ffffffffffffffff1681565b6128f2613400565b73ffffffffffffffffffffffffffffffffffffffff16612910611e98565b73ffffffffffffffffffffffffffffffffffffffff1614612966576040517f08c379a000000000000000000000000000000000000000000000000000000000815260040161295d90617d4b565b60405180910390fd5b565b6000808273ffffffffffffffffffffffffffffffffffffffff163b119050919050565b600060019054906101000a900460ff166129da576040517f08c379a00000000000000000000000000000000000000000000000000000000081526004016129d190617d8b565b60405180910390fd5b6129e2613408565b565b600060019054906101000a900460ff16612a33576040517f08c379a0000000000000000000000000000000000000000000000000000000008152600401612a2a90617d8b565b60405180910390fd5b612a3b613469565b565b80600360006101000a81548173ffffffffffffffffffffffffffffffffffffffff021916908373ffffffffffffffffffffffffffffffffffffffff16021790555050565b60008260ff168260ff161115612abb578282612a9d9190618712565b600a612aa9919061834e565b84612ab4919061846c565b9050612ae1565b8183612ac79190618712565b600a612ad3919061834e565b84612ade919061846c565b90505b9392505050565b612af06134d5565b6000609e60006101000a81548160ff0219169083151502179055507f5db9ee0a495bf2e6ff9c91a7834c1ba4fdd244a5e8aa4e537bd38aeae4b073aa612b34613400565b604051612b4191906177bf565b60405180910390a1565b6000603960009054906101000a900473ffffffffffffffffffffffffffffffffffffffff16905081603960006101000a81548173ffffffffffffffffffffffffffffffffffffffff021916908373ffffffffffffffffffffffffffffffffffffffff1602179055508173ffffffffffffffffffffffffffffffffffffffff168173ffffffffffffffffffffffffffffffffffffffff167f8be0079c531659141344cd1fd0a4f28419497f9722a3daafe3b4186f6b6457e060405160405180910390a35050565b612c1961351e565b6001609e60006101000a81548160ff0219169083151502179055507f62e78cea01bee320cd4e420270b5ea74000d11b0c9f74754ebdbfc544b05a258612c5d613400565b604051612c6a91906177bf565b60405180910390a1565b60008160200151905060008260400151806020019051810190612c9791906168f2565b90506000806000806000806000808a60600151806020019051810190612cbd9190616cc0565b975097509750975097509750975097506000881415612cf55760008b608001519050612cef818988878f8f8989613568565b50612e82565b6001881415612d1157612d0c8786858d8d86613caa565b612e81565b6002881415612d2c57612d278786858d8d6142c8565b612e80565b6003881415612da257612d9d6040518061012001604052808981526020018881526020018781526020018681526020018481526020018c67ffffffffffffffff1681526020018b73ffffffffffffffffffffffffffffffffffffffff168152602001858152602001838152506146c8565b612e7f565b6004881415612e7e5760008b608001519050612e7c6040518061016001604052808a815260200189815260200188815260200187815260200185815260200183600081518110612df557612df4618c19565b5b60200260200101516000015173ffffffffffffffffffffffffffffffffffffffff16815260200183600081518110612e3057612e2f618c19565b5b60200260200101516020015181526020018d67ffffffffffffffff1681526020018c73ffffffffffffffffffffffffffffffffffffffff16815260200186815260200184815250614a82565b505b5b5b5b5b5050505050505050505050565b60606397a657c960e01b82604051602401612eaa9190617dab565b604051602081830303815290604052907bffffffffffffffffffffffffffffffffffffffffffffffffffffffff19166020820180517bffffffffffffffffffffffffffffffffffffffffffffffffffffffff83818316178352505050509050919050565b60008060008363ffffffff161415612f5b576040517f08c379a0000000000000000000000000000000000000000000000000000000008152600401612f5290617ceb565b60405180910390fd5b6000600267ffffffffffffffff811115612f7857612f77618c48565b5b604051908082528060200260200182016040528015612fa65781602001602082028036833780820191505090505b5090508381600081518110612fbe57612fbd618c19565b5b602002602001019063ffffffff16908163ffffffff1681525050600081600181518110612fee57612fed618c19565b5b602002602001019063ffffffff16908163ffffffff16815250506000808673ffffffffffffffffffffffffffffffffffffffff1663883bdbfd846040518263ffffffff1660e01b8152600401613044919061788d565b60006040518083038186803b15801561305c57600080fd5b505afa158015613070573d6000803e3d6000fd5b505050506040513d6000823e3d601f19601f820116820180604052508101906130999190616a68565b915091506000826000815181106130b3576130b2618c19565b5b6020026020010151836001815181106130cf576130ce618c19565b5b60200260200101516130e1919061862f565b90506000826000815181106130f9576130f8618c19565b5b60200260200101518360018151811061311557613114618c19565b5b602002602001015161312791906186aa565b90508763ffffffff168261313b919061822f565b965060008260060b128015613165575060008863ffffffff168361315f9190618b2c565b60060b14155b1561317957868061317590618a37565b9750505b600073ffffffffffffffffffffffffffffffffffffffff80168963ffffffff166131a39190618583565b905060208273ffffffffffffffffffffffffffffffffffffffff1677ffffffffffffffffffffffffffffffffffffffffffffffff16901b816131e59190618299565b96505050505050509250929050565b60008061320086614bf4565b90506fffffffffffffffffffffffffffffffff80168173ffffffffffffffffffffffffffffffffffffffff161161331a5760008173ffffffffffffffffffffffffffffffffffffffff168273ffffffffffffffffffffffffffffffffffffffff1661326b91906185d5565b90508373ffffffffffffffffffffffffffffffffffffffff168573ffffffffffffffffffffffffffffffffffffffff16106132db576132d67801000000000000000000000000000000000000000000000000876fffffffffffffffffffffffffffffffff1683615001565b613312565b61331181876fffffffffffffffffffffffffffffffff167801000000000000000000000000000000000000000000000000615001565b5b9250506133f7565b600061335c8273ffffffffffffffffffffffffffffffffffffffff168373ffffffffffffffffffffffffffffffffffffffff1668010000000000000000615001565b90508373ffffffffffffffffffffffffffffffffffffffff168573ffffffffffffffffffffffffffffffffffffffff16106133c4576133bf700100000000000000000000000000000000876fffffffffffffffffffffffffffffffff1683615001565b6133f3565b6133f281876fffffffffffffffffffffffffffffffff16700100000000000000000000000000000000615001565b5b9250505b50949350505050565b600033905090565b600060019054906101000a900460ff16613457576040517f08c379a000000000000000000000000000000000000000000000000000000000815260040161344e90617d8b565b60405180910390fd5b613467613462613400565b612b4b565b565b600060019054906101000a900460ff166134b8576040517f08c379a00000000000000000000000000000000000000000000000000000000081526004016134af90617d8b565b60405180910390fd5b6000609e60006101000a81548160ff021916908315150217905550565b6134dd611c9f565b61351c576040517f08c379a000000000000000000000000000000000000000000000000000000000815260040161351390617c6b565b60405180910390fd5b565b613526611c9f565b15613566576040517f08c379a000000000000000000000000000000000000000000000000000000000815260040161355d90617ccb565b60405180910390fd5b565b613570616127565b6136828960008151811061358757613586618c19565b5b60200260200101516000015160e660009054906101000a900473ffffffffffffffffffffffffffffffffffffffff168b6000815181106135ca576135c9618c19565b5b60200260200101516020015160d360009054906101000a900473ffffffffffffffffffffffffffffffffffffffff1660e960008b67ffffffffffffffff1667ffffffffffffffff16815260200190815260200160002060008f60008151811061363657613635618c19565b5b60200260200101516000015173ffffffffffffffffffffffffffffffffffffffff1673ffffffffffffffffffffffffffffffffffffffff16815260200190815260200160002054610ff6565b816000018181525050875167ffffffffffffffff8111156136a6576136a5618c48565b5b6040519080825280602002602001820160405280156136d45781602001602082028036833780820191505090505b508160200181905250875167ffffffffffffffff8111156136f8576136f7618c48565b5b6040519080825280602002602001820160405280156137265781602001602082028036833780820191505090505b50816040018190525060005b8851811015613bb35760008360008151811061375157613750618c19565b5b602002602001015185838151811061376c5761376b618c19565b5b6020026020010151846000015161378391906185d5565b61378d91906182ca565b9050600060e660009054906101000a900473ffffffffffffffffffffffffffffffffffffffff1673ffffffffffffffffffffffffffffffffffffffff168b84815181106137dd576137dc618c19565b5b602002602001015173ffffffffffffffffffffffffffffffffffffffff16141561399f578a838151811061381457613813618c19565b5b602002602001015173ffffffffffffffffffffffffffffffffffffffff166370a0823160d360009054906101000a900473ffffffffffffffffffffffffffffffffffffffff166040518263ffffffff1660e01b815260040161387691906177bf565b60206040518083038186803b15801561388e57600080fd5b505afa1580156138a2573d6000803e3d6000fd5b505050506040513d601f19601f820116820180604052508101906138c69190616c53565b905060e660009054906101000a900473ffffffffffffffffffffffffffffffffffffffff1673ffffffffffffffffffffffffffffffffffffffff1663a9059cbb60d360009054906101000a900473ffffffffffffffffffffffffffffffffffffffff16846040518363ffffffff1660e01b8152600401613947929190617864565b602060405180830381600087803b15801561396157600080fd5b505af1158015613975573d6000803e3d6000fd5b505050506040513d601f19601f820116820180604052508101906139999190616b29565b50613b35565b613aac8b84815181106139b5576139b4618c19565b5b602002602001015160e660009054906101000a900473ffffffffffffffffffffffffffffffffffffffff168d86815181106139f3576139f2618c19565b5b602002602001015173ffffffffffffffffffffffffffffffffffffffff166370a0823160d360009054906101000a900473ffffffffffffffffffffffffffffffffffffffff166040518263ffffffff1660e01b8152600401613a5591906177bf565b60206040518083038186803b158015613a6d57600080fd5b505afa158015613a81573d6000803e3d6000fd5b505050506040513d601f19601f82011682018060405250810190613aa59190616c53565b6003610dde565b9050613b3360e660009054906101000a900473ffffffffffffffffffffffffffffffffffffffff168c8581518110613ae757613ae6618c19565b5b60200260200101518460d360009054906101000a900473ffffffffffffffffffffffffffffffffffffffff168e8881518110613b2657613b25618c19565b5b60200260200101516150db565b505b60008282613b4391906181d9565b9050613b4e826126b1565b85602001518581518110613b6557613b64618c19565b5b602002602001018181525050613b7a816126b1565b85604001518581518110613b9157613b90618c19565b5b6020026020010181815250505050508080613bab90618ae3565b915050613732565b50600088600067ffffffffffffffff811115613bd257613bd1618c48565b5b604051908082528060200260200182016040528015613c005781602001602082028036833780820191505090505b508884602001518560400151604051602001613c21969594939291906179bd565b60405160208183030381529060405281606001819052506000613c4b8686846060015160016121fc565b90508060ef60008981526020019081526020016000208190555086817f7513d57665f5bbb438203d2f2a896f1f0791e1e8cd0e2d76d7bc421bfb4f49aa42604051613c969190617dfd565b60405180910390a350505050505050505050565b600080600090505b8751811015613f54576000670de0b6b3a7640000898381518110613cd957613cd8618c19565b5b602002602001015173ffffffffffffffffffffffffffffffffffffffff166370a0823160d360009054906101000a900473ffffffffffffffffffffffffffffffffffffffff166040518263ffffffff1660e01b8152600401613d3b91906177bf565b60206040518083038186803b158015613d5357600080fd5b505afa158015613d67573d6000803e3d6000fd5b505050506040513d601f19601f82011682018060405250810190613d8b9190616c53565b85600081518110613d9f57613d9e618c19565b5b6020026020010151613db191906185d5565b613dbb91906182ca565b905060e660009054906101000a900473ffffffffffffffffffffffffffffffffffffffff1673ffffffffffffffffffffffffffffffffffffffff16898381518110613e0957613e08618c19565b5b602002602001015173ffffffffffffffffffffffffffffffffffffffff161415613ecf5760d360009054906101000a900473ffffffffffffffffffffffffffffffffffffffff1673ffffffffffffffffffffffffffffffffffffffff166377524af930836040518363ffffffff1660e01b8152600401613e8a929190617864565b600060405180830381600087803b158015613ea457600080fd5b505af1158015613eb8573d6000803e3d6000fd5b505050508083613ec891906181d9565b9250613f40565b613f32898381518110613ee557613ee4618c19565b5b602002602001015160e660009054906101000a900473ffffffffffffffffffffffffffffffffffffffff1683308c8781518110613f2557613f24618c19565b5b60200260200101516150db565b83613f3d91906181d9565b92505b508080613f4c90618ae3565b915050613cb2565b50600061407860e660009054906101000a900473ffffffffffffffffffffffffffffffffffffffff1660e860008867ffffffffffffffff1667ffffffffffffffff16815260200190815260200160002060009054906101000a900473ffffffffffffffffffffffffffffffffffffffff16843060e960008b67ffffffffffffffff1667ffffffffffffffff168152602001908152602001600020600060e860008d67ffffffffffffffff1667ffffffffffffffff16815260200190815260200160002060009054906101000a900473ffffffffffffffffffffffffffffffffffffffff1673ffffffffffffffffffffffffffffffffffffffff1673ffffffffffffffffffffffffffffffffffffffff16815260200190815260200160002054610ff6565b90506000600167ffffffffffffffff81111561409757614096618c48565b5b6040519080825280602002602001820160405280156140d057816020015b6140bd6160f7565b8152602001906001900390816140b55790505b50905060e860008767ffffffffffffffff1667ffffffffffffffff16815260200190815260200160002060009054906101000a900473ffffffffffffffffffffffffffffffffffffffff168160008151811061412f5761412e618c19565b5b60200260200101516000019073ffffffffffffffffffffffffffffffffffffffff16908173ffffffffffffffffffffffffffffffffffffffff1681525050818160008151811061418257614181618c19565b5b6020026020010151602001818152505060008067ffffffffffffffff8111156141ae576141ad618c48565b5b6040519080825280602002602001820160405280156141dc5781602001602082028036833780820191505090505b509050600060018b600067ffffffffffffffff8111156141ff576141fe618c48565b5b60405190808252806020026020018201604052801561422d5781602001602082028036833780820191505090505b508b858660405160200161424696959493929190617a55565b6040516020818303038152906040529050600061426789838a87600161527c565b90508060ee60008c81526020019081526020016000208190555089817f2c80cd3884ced9a087f5eed6c8ddd78af4b449cdea210b92786f35bd496f5343426040516142b29190617dfd565b60405180910390a3505050505050505050505050565b60008067ffffffffffffffff8111156142e4576142e3618c48565b5b6040519080825280602002602001820160405280156143125781602001602082028036833780820191505090505b5090506000865167ffffffffffffffff81111561433257614331618c48565b5b6040519080825280602002602001820160405280156143605781602001602082028036833780820191505090505b50905060005b87518110156146375760e660009054906101000a900473ffffffffffffffffffffffffffffffffffffffff1673ffffffffffffffffffffffffffffffffffffffff168882815181106143bb576143ba618c19565b5b602002602001015173ffffffffffffffffffffffffffffffffffffffff1614156144d0576144ac8882815181106143f5576143f4618c19565b5b602002602001015173ffffffffffffffffffffffffffffffffffffffff166370a0823160d360009054906101000a900473ffffffffffffffffffffffffffffffffffffffff166040518263ffffffff1660e01b815260040161445791906177bf565b60206040518083038186803b15801561446f57600080fd5b505afa158015614483573d6000803e3d6000fd5b505050506040513d601f19601f820116820180604052508101906144a79190616c53565b6126b1565b8282815181106144bf576144be618c19565b5b602002602001018181525050614624565b60006145f88983815181106144e8576144e7618c19565b5b602002602001015160e660009054906101000a900473ffffffffffffffffffffffffffffffffffffffff168b858151811061452657614525618c19565b5b602002602001015173ffffffffffffffffffffffffffffffffffffffff166370a0823160d360009054906101000a900473ffffffffffffffffffffffffffffffffffffffff166040518263ffffffff1660e01b815260040161458891906177bf565b60206040518083038186803b1580156145a057600080fd5b505afa1580156145b4573d6000803e3d6000fd5b505050506040513d601f19601f820116820180604052508101906145d89190616c53565b8b86815181106145eb576145ea618c19565b5b6020026020010151610dde565b9050614603816126b1565b83838151811061461657614615618c19565b5b602002602001018181525050505b808061462f90618ae3565b915050614366565b506000600288600067ffffffffffffffff81111561465857614657618c48565b5b6040519080825280602002602001820160405280156146865781602001602082028036833780820191505090505b5088858760405160200161469f96959493929190617ad2565b60405160208183030381529060405290506146bd85858360016121fc565b505050505050505050565b6146d061614f565b8160000151518160000181815250508161010001516000815181106146f8576146f7618c19565b5b602002602001015181602001818152505081610100015160018151811061472257614721618c19565b5b602002602001015181604001818152505081610100015160028151811061474c5761474b618c19565b5b6020026020010151816080018181525050600061478b82846000015185602001518660400151876060015188608001518960c001518a60e001516157b6565b905060006148bc60e660009054906101000a900473ffffffffffffffffffffffffffffffffffffffff1660e860008760a0015167ffffffffffffffff1667ffffffffffffffff16815260200190815260200160002060009054906101000a900473ffffffffffffffffffffffffffffffffffffffff16843060e960008a60a0015167ffffffffffffffff1667ffffffffffffffff168152602001908152602001600020600060e860008c60a0015167ffffffffffffffff1667ffffffffffffffff16815260200190815260200160002060009054906101000a900473ffffffffffffffffffffffffffffffffffffffff1673ffffffffffffffffffffffffffffffffffffffff1673ffffffffffffffffffffffffffffffffffffffff16815260200190815260200160002054610ff6565b90506000600167ffffffffffffffff8111156148db576148da618c48565b5b60405190808252806020026020018201604052801561491457816020015b6149016160f7565b8152602001906001900390816148f95790505b50905060e860008660a0015167ffffffffffffffff1667ffffffffffffffff16815260200190815260200160002060009054906101000a900473ffffffffffffffffffffffffffffffffffffffff168160008151811061497757614976618c19565b5b60200260200101516000019073ffffffffffffffffffffffffffffffffffffffff16908173ffffffffffffffffffffffffffffffffffffffff168152505081816000815181106149ca576149c9618c19565b5b6020026020010151602001818152505060008067ffffffffffffffff8111156149f6576149f5618c48565b5b604051908082528060200260200182016040528015614a245781602001602082028036833780820191505090505b50905060006003876000015188602001518960e001518586604051602001614a5196959493929190617b4f565b6040516020818303038152906040529050614a788760a00151828960c0015186600161527c565b5050505050505050565b6000614ade8260a0015160e660009054906101000a900473ffffffffffffffffffffffffffffffffffffffff168460c0015160d360009054906101000a900473ffffffffffffffffffffffffffffffffffffffff166003610ff6565b9050614b088260000151836020015184604001518560600151866080015186886101400151615c90565b60008067ffffffffffffffff811115614b2457614b23618c48565b5b604051908082528060200260200182016040528015614b525781602001602082028036833780820191505090505b50905060008067ffffffffffffffff811115614b7157614b70618c48565b5b604051908082528060200260200182016040528015614b9f5781602001602082028036833780820191505090505b5090506000600482838761012001518687604051602001614bc596959493929190617bcc565b6040516020818303038152906040529050614bec8560e001518661010001518360016121fc565b505050505050565b60008060008360020b12614c0b578260020b614c13565b8260020b6000035b90507ffffffffffffffffffffffffffffffffffffffffffffffffffffffffffff2761860000360020b811115614c75576040517f2bc80f3a00000000000000000000000000000000000000000000000000000000815260040160405180910390fd5b600080600183161415614c9957700100000000000000000000000000000000614cab565b6ffffcb933bd6fad37aa2d162d1a5940015b70ffffffffffffffffffffffffffffffffff16905060006002831614614ce55760806ffff97272373d413259a46990580e213a8202901c90505b60006004831614614d0a5760806ffff2e50f5f656932ef12357cf3c7fdcc8202901c90505b60006008831614614d2f5760806fffe5caca7e10e4e61c3624eaa0941cd08202901c90505b60006010831614614d545760806fffcb9843d60f6159c9db58835c9266448202901c90505b60006020831614614d795760806fff973b41fa98c081472e6896dfb254c08202901c90505b60006040831614614d9e5760806fff2ea16466c96a3843ec78b326b528618202901c90505b60006080831614614dc35760806ffe5dee046a99a2a811c461f1969c30538202901c90505b6000610100831614614de95760806ffcbe86c7900a88aedcffc83b479aa3a48202901c90505b6000610200831614614e0f5760806ff987a7253ac413176f2b074cf7815e548202901c90505b6000610400831614614e355760806ff3392b0822b70005940c7a398e4b70f38202901c90505b6000610800831614614e5b5760806fe7159475a2c29b7443b29c7fa6e889d98202901c90505b6000611000831614614e815760806fd097f3bdfd2022b8845ad8f792aa58258202901c90505b6000612000831614614ea75760806fa9f746462d870fdf8a65dc1f90e061e58202901c90505b6000614000831614614ecd5760806f70d869a156d2a1b890bb3df62baf32f78202901c90505b6000618000831614614ef35760806f31be135f97d08fd981231505542fcfa68202901c90505b600062010000831614614f1a5760806f09aa508b5b7a84e1c677de54f3e99bc98202901c90505b600062020000831614614f405760806e5d6af8dedb81196699c329225ee6048202901c90505b600062040000831614614f655760806d2216e584f5fa1ea926041bedfe988202901c90505b600062080000831614614f885760806b048a170391f7dc42444e8fa28202901c90505b60008460020b1315614fc857807fffffffffffffffffffffffffffffffffffffffffffffffffffffffffffffffff81614fc457614fc3618b8c565b5b0490505b60006401000000008281614fdf57614fde618b8c565b5b0614614fec576001614fef565b60005b60ff16602082901c0192505050919050565b60008060008019858709858702925082811083820303915050600081141561503c576000841161503057600080fd5b838204925050506150d4565b80841161504857600080fd5b600084868809905082811182039150808303925060008586600003169050808604955080840493506001818260000304019050808302841793506000600287600302189050808702600203810290508087026002038102905080870260020381029050808702600203810290508087026002038102905080870260020381029050808502955050505050505b9392505050565b600060038214156151a857600060d360009054906101000a900473ffffffffffffffffffffffffffffffffffffffff1673ffffffffffffffffffffffffffffffffffffffff16635f370ed088888888886040518663ffffffff1660e01b815260040161514b959493929190617811565b602060405180830381600087803b15801561516557600080fd5b505af1158015615179573d6000803e3d6000fd5b505050506040513d601f19601f8201168201806040525081019061519d9190616c53565b905080915050615273565b60006151b687878786610dde565b905060d360009054906101000a900473ffffffffffffffffffffffffffffffffffffffff1673ffffffffffffffffffffffffffffffffffffffff16635f370ed088888888886040518663ffffffff1660e01b815260040161521b959493929190617811565b602060405180830381600087803b15801561523557600080fd5b505af1158015615249573d6000803e3d6000fd5b505050506040513d601f19601f8201168201806040525081019061526d9190616c53565b50809150505b95945050505050565b6000808351905060d060149054906101000a900461ffff1661ffff168111156152da576040517f08c379a00000000000000000000000000000000000000000000000000000000081526004016152d190617cab565b60405180910390fd5b60005b818110156154505760d060009054906101000a900473ffffffffffffffffffffffffffffffffffffffff1673ffffffffffffffffffffffffffffffffffffffff1685828151811061533157615330618c19565b5b60200260200101516000015173ffffffffffffffffffffffffffffffffffffffff16146154455784818151811061536b5761536a618c19565b5b60200260200101516000015173ffffffffffffffffffffffffffffffffffffffff1663095ea7b3600060029054906101000a900473ffffffffffffffffffffffffffffffffffffffff168784815181106153c8576153c7618c19565b5b6020026020010151602001516040518363ffffffff1660e01b81526004016153f1929190617864565b602060405180830381600087803b15801561540b57600080fd5b505af115801561541f573d6000803e3d6000fd5b505050506040513d601f19601f820116820180604052508101906154439190616b29565b505b8060010190506152dd565b5060006040518060a001604052808760405160200161546f91906177bf565b60405160208183030381529060405281526020018881526020018681526020016001808111156154a2576154a1618bbb565b5b8660018111156154b5576154b4618bbb565b5b146154c15760006154e5565b60d060009054906101000a900473ffffffffffffffffffffffffffffffffffffffff165b73ffffffffffffffffffffffffffffffffffffffff1681526020016155236040518060400160405280620dbba0815260200160001515815250612e8f565b815250905060008060029054906101000a900473ffffffffffffffffffffffffffffffffffffffff1673ffffffffffffffffffffffffffffffffffffffff166320487ded8a846040518363ffffffff1660e01b8152600401615586929190617f40565b60206040518083038186803b15801561559e57600080fd5b505afa1580156155b2573d6000803e3d6000fd5b505050506040513d601f19601f820116820180604052508101906155d69190616c53565b905060006001808111156155ed576155ec618bbb565b5b866001811115615600576155ff618bbb565b5b14156156bc57600060029054906101000a900473ffffffffffffffffffffffffffffffffffffffff1673ffffffffffffffffffffffffffffffffffffffff166396f4e9f98b856040518363ffffffff1660e01b8152600401615663929190617f40565b602060405180830381600087803b15801561567d57600080fd5b505af1158015615691573d6000803e3d6000fd5b505050506040513d601f19601f820116820180604052508101906156b59190616b83565b905061576f565b600060029054906101000a900473ffffffffffffffffffffffffffffffffffffffff1673ffffffffffffffffffffffffffffffffffffffff166396f4e9f9838c866040518463ffffffff1660e01b815260040161571a929190617f40565b6020604051808303818588803b15801561573357600080fd5b505af1158015615747573d6000803e3d6000fd5b50505050506040513d601f19601f8201168201806040525081019061576c9190616b83565b90505b7f54791b38f3859327992a1ca0590ad3c0f08feba98d1a4f56ab0dca74d203392a8160405161579e91906178ca565b60405180910390a18094505050505095945050505050565b60006157c061617e565b60e660009054906101000a900473ffffffffffffffffffffffffffffffffffffffff1673ffffffffffffffffffffffffffffffffffffffff166370a0823160d360009054906101000a900473ffffffffffffffffffffffffffffffffffffffff166040518263ffffffff1660e01b815260040161583d91906177bf565b60206040518083038186803b15801561585557600080fd5b505afa158015615869573d6000803e3d6000fd5b505050506040513d601f19601f8201168201806040525081019061588d9190616c53565b8160a001818152505060005b8160000151811015615a9c57600060e660009054906101000a900473ffffffffffffffffffffffffffffffffffffffff1673ffffffffffffffffffffffffffffffffffffffff168b83815181106158f3576158f2618c19565b5b602002602001015173ffffffffffffffffffffffffffffffffffffffff161415615923578260a001519050615a6f565b615a6c8b838151811061593957615938618c19565b5b602002602001015160e660009054906101000a900473ffffffffffffffffffffffffffffffffffffffff168d858151811061597757615976618c19565b5b602002602001015173ffffffffffffffffffffffffffffffffffffffff166370a0823160d360009054906101000a900473ffffffffffffffffffffffffffffffffffffffff166040518263ffffffff1660e01b81526004016159d991906177bf565b60206040518083038186803b1580156159f157600080fd5b505afa158015615a05573d6000803e3d6000fd5b505050506040513d601f19601f82011682018060405250810190615a299190616c53565b60d360009054906101000a900473ffffffffffffffffffffffffffffffffffffffff168d8781518110615a5f57615a5e618c19565b5b60200260200101516150db565b90505b8083606001818151615a8191906181d9565b91508181525050508080615a9490618ae3565b915050615899565b5087518160c0018181525050896020015168056bc75e2d631000008b60800151615ac691906185d5565b615ad091906182ca565b8160e00181815250508060e0015181604001518260600151615af291906185d5565b615afc91906182ca565b816101000181815250508061010001518160600151615b1b91906186de565b8161012001818152505060005b8160c00151811015615c7a5760e660009054906101000a900473ffffffffffffffffffffffffffffffffffffffff1673ffffffffffffffffffffffffffffffffffffffff16898281518110615b8057615b7f618c19565b5b602002602001015173ffffffffffffffffffffffffffffffffffffffff1614615c67576000615c6360e660009054906101000a900473ffffffffffffffffffffffffffffffffffffffff168b8481518110615bde57615bdd618c19565b5b602002602001015185604001518a8681518110615bfe57615bfd618c19565b5b6020026020010151876101000151615c1691906185d5565b615c2091906182ca565b60d360009054906101000a900473ffffffffffffffffffffffffffffffffffffffff168c8781518110615c5657615c55618c19565b5b60200260200101516150db565b9050505b8080615c7290618ae3565b915050615b28565b5080610120015191505098975050505050505050565b615c986161d1565b81600181518110615cac57615cab618c19565b5b6020026020010151816000018181525050875181602001818152505060e660009054906101000a900473ffffffffffffffffffffffffffffffffffffffff1673ffffffffffffffffffffffffffffffffffffffff166370a0823160d360009054906101000a900473ffffffffffffffffffffffffffffffffffffffff166040518263ffffffff1660e01b8152600401615d4591906177bf565b60206040518083038186803b158015615d5d57600080fd5b505afa158015615d71573d6000803e3d6000fd5b505050506040513d601f19601f82011682018060405250810190615d959190616c53565b816040018181525050600081606001818152505060005b8160200151811015615f81576000898281518110615dcd57615dcc618c19565b5b60200260200101519050600060e660009054906101000a900473ffffffffffffffffffffffffffffffffffffffff1673ffffffffffffffffffffffffffffffffffffffff168273ffffffffffffffffffffffffffffffffffffffff161415615e3b5783604001519050615f53565b615f508260e660009054906101000a900473ffffffffffffffffffffffffffffffffffffffff168473ffffffffffffffffffffffffffffffffffffffff166370a0823160d360009054906101000a900473ffffffffffffffffffffffffffffffffffffffff166040518263ffffffff1660e01b8152600401615ebd91906177bf565b60206040518083038186803b158015615ed557600080fd5b505afa158015615ee9573d6000803e3d6000fd5b505050506040513d601f19601f82011682018060405250810190615f0d9190616c53565b60d360009054906101000a900473ffffffffffffffffffffffffffffffffffffffff168d8881518110615f4357615f42618c19565b5b60200260200101516150db565b90505b8084606001818151615f6591906181d9565b9150818152505050508080615f7990618ae3565b915050615dac565b50806060015183615f9291906181d9565b81608001818152505086518160a001818152505060005b8160a001518110156160ec576000888281518110615fca57615fc9618c19565b5b602002602001015190506000868381518110615fe957615fe8618c19565b5b6020026020010151905060e660009054906101000a900473ffffffffffffffffffffffffffffffffffffffff1673ffffffffffffffffffffffffffffffffffffffff168273ffffffffffffffffffffffffffffffffffffffff16146160d75760006160d360e660009054906101000a900473ffffffffffffffffffffffffffffffffffffffff1684876000015185896080015161608691906185d5565b61609091906182ca565b60d360009054906101000a900473ffffffffffffffffffffffffffffffffffffffff168d89815181106160c6576160c5618c19565b5b60200260200101516150db565b9050505b505080806160e490618ae3565b915050615fa9565b505050505050505050565b6040518060400160405280600073ffffffffffffffffffffffffffffffffffffffff168152602001600081525090565b6040518060800160405280600081526020016060815260200160608152602001606081525090565b6040518060a0016040528060008152602001600081526020016000815260200160008152602001600081525090565b604051806101400160405280600081526020016000815260200160008152602001600081526020016000815260200160008152602001600081526020016000815260200160008152602001600081525090565b6040518060c001604052806000815260200160008152602001600081526020016000815260200160008152602001600081525090565b600061621a61621584617fb0565b617f8b565b9050808382526020820190508285602086028201111561623d5761623c618c8b565b5b60005b8581101561626d5781616253888261648e565b845260208401935060208301925050600181019050616240565b5050509392505050565b600061628a61628584617fdc565b617f8b565b905080838252602082019050828560208602820111156162ad576162ac618c8b565b5b60005b858110156162dd57816162c3888261665f565b8452602084019350602083019250506001810190506162b0565b5050509392505050565b60006162fa6162f584618008565b617f8b565b9050808382526020820190508285604086028201111561631d5761631c618c8b565b5b60005b8581101561634d57816163338882616773565b845260208401935060408301925050600181019050616320565b5050509392505050565b600061636a61636584618034565b617f8b565b9050808382526020820190508285602086028201111561638d5761638c618c8b565b5b60005b858110156163bd57816163a388826167d8565b845260208401935060208301925050600181019050616390565b5050509392505050565b60006163da6163d584618060565b617f8b565b905080838252602082019050828560208602820111156163fd576163fc618c8b565b5b60005b8581101561642d57816164138882616802565b845260208401935060208301925050600181019050616400565b5050509392505050565b600061644a6164458461808c565b617f8b565b90508281526020810184848401111561646657616465618c90565b5b6164718482856189f5565b509392505050565b60008135905061648881618f3b565b92915050565b60008151905061649d81618f3b565b92915050565b6000813590506164b281618f52565b92915050565b6000815190506164c781618f52565b92915050565b600082601f8301126164e2576164e1618c77565b5b81516164f2848260208601616207565b91505092915050565b600082601f8301126165105761650f618c77565b5b8151616520848260208601616277565b91505092915050565b600082601f83011261653e5761653d618c77565b5b813561654e8482602086016162e7565b91505092915050565b600082601f83011261656c5761656b618c77565b5b815161657c848260208601616357565b91505092915050565b600082601f83011261659a57616599618c77565b5b81516165aa8482602086016163c7565b91505092915050565b6000815190506165c281618f69565b92915050565b6000813590506165d781618f80565b92915050565b6000815190506165ec81618f80565b92915050565b60008135905061660181618f97565b92915050565b600082601f83011261661c5761661b618c77565b5b813561662c848260208601616437565b91505092915050565b60008135905061664481618fae565b92915050565b60008151905061665981618fbe565b92915050565b60008151905061666e81618fd5565b92915050565b600060a0828403121561668a57616689618c7c565b5b81905092915050565b600060a082840312156166a9576166a8618c81565b5b6166b360a0617f8b565b905060006166c3848285016165c8565b60008301525060206166d78482850161682c565b602083015250604082013567ffffffffffffffff8111156166fb576166fa618c86565b5b61670784828501616607565b604083015250606082013567ffffffffffffffff81111561672b5761672a618c86565b5b61673784828501616607565b606083015250608082013567ffffffffffffffff81111561675b5761675a618c86565b5b61676784828501616529565b60808301525092915050565b60006040828403121561678957616788618c81565b5b6167936040617f8b565b905060006167a384828501616479565b60008301525060206167b7848285016167ed565b60208301525092915050565b6000813590506167d281618fec565b92915050565b6000815190506167e781619003565b92915050565b6000813590506167fc8161901a565b92915050565b6000815190506168118161901a565b92915050565b60008135905061682681619031565b92915050565b60008135905061683b81619048565b92915050565b60008151905061685081619076565b92915050565b6000815190506168658161905f565b92915050565b60006020828403121561688157616880618c9a565b5b600061688f84828501616479565b91505092915050565b6000602082840312156168ae576168ad618c9a565b5b60006168bc8482850161648e565b91505092915050565b6000602082840312156168db576168da618c9a565b5b60006168e9848285016164a3565b91505092915050565b60006020828403121561690857616907618c9a565b5b6000616916848285016164b8565b91505092915050565b6000806000806080858703121561693957616938618c9a565b5b600061694787828801616479565b945050602061695887828801616479565b9350506040616969878288016167c3565b925050606061697a87828801616817565b91505092959194509250565b600080600080600060a086880312156169a2576169a1618c9a565b5b60006169b088828901616479565b95505060206169c188828901616479565b94505060406169d2888289016167ed565b93505060606169e388828901616479565b92505060806169f4888289016167ed565b9150509295509295909350565b60008060008060808587031215616a1b57616a1a618c9a565b5b6000616a2987828801616479565b9450506020616a3a87828801616479565b9350506040616a4b878288016167ed565b9250506060616a5c878288016167ed565b91505092959194509250565b60008060408385031215616a7f57616a7e618c9a565b5b600083015167ffffffffffffffff811115616a9d57616a9c618c95565b5b616aa9858286016164fb565b925050602083015167ffffffffffffffff811115616aca57616ac9618c95565b5b616ad685828601616557565b9150509250929050565b600060208284031215616af657616af5618c9a565b5b600082015167ffffffffffffffff811115616b1457616b13618c95565b5b616b2084828501616585565b91505092915050565b600060208284031215616b3f57616b3e618c9a565b5b6000616b4d848285016165b3565b91505092915050565b600060208284031215616b6c57616b6b618c9a565b5b6000616b7a848285016165c8565b91505092915050565b600060208284031215616b9957616b98618c9a565b5b6000616ba7848285016165dd565b91505092915050565b600060208284031215616bc657616bc5618c9a565b5b6000616bd4848285016165f2565b91505092915050565b600060208284031215616bf357616bf2618c9a565b5b600082013567ffffffffffffffff811115616c1157616c10618c95565b5b616c1d84828501616674565b91505092915050565b600060208284031215616c3c57616c3b618c9a565b5b6000616c4a848285016167ed565b91505092915050565b600060208284031215616c6957616c68618c9a565b5b6000616c7784828501616802565b91505092915050565b60008060408385031215616c9757616c96618c9a565b5b6000616ca5858286016167ed565b9250506020616cb685828601616479565b9150509250929050565b600080600080600080600080610100898b031215616ce157616ce0618c9a565b5b6000616cef8b828c01616802565b985050602089015167ffffffffffffffff811115616d1057616d0f618c95565b5b616d1c8b828c016164cd565b975050604089015167ffffffffffffffff811115616d3d57616d3c618c95565b5b616d498b828c016164cd565b965050606089015167ffffffffffffffff811115616d6a57616d69618c95565b5b616d768b828c01616585565b955050608089015167ffffffffffffffff811115616d9757616d96618c95565b5b616da38b828c01616585565b94505060a0616db48b828c01616802565b93505060c089015167ffffffffffffffff811115616dd557616dd4618c95565b5b616de18b828c01616585565b92505060e089015167ffffffffffffffff811115616e0257616e01618c95565b5b616e0e8b828c01616585565b9150509295985092959890939650565b600060208284031215616e3457616e33618c9a565b5b6000616e428482850161682c565b91505092915050565b60008060408385031215616e6257616e61618c9a565b5b6000616e708582860161682c565b9250506020616e8185828601616479565b9150509250929050565b6000806000806000806000806000806101408b8d031215616eaf57616eae618c9a565b5b6000616ebd8d828e0161682c565b9a50506020616ece8d828e016164a3565b9950506040616edf8d828e01616479565b9850506060616ef08d828e01616479565b9750506080616f018d828e01616479565b96505060a0616f128d828e01616479565b95505060c0616f238d828e01616479565b94505060e0616f348d828e01616479565b935050610100616f468d828e01616479565b925050610120616f588d828e01616479565b9150509295989b9194979a5092959850565b60008060008060808587031215616f8457616f83618c9a565b5b6000616f928782880161682c565b9450506020616fa387828801616479565b935050604085013567ffffffffffffffff811115616fc457616fc3618c95565b5b616fd087828801616607565b9250506060616fe187828801616635565b91505092959194509250565b60008060006060848603121561700657617005618c9a565b5b60006170148682870161682c565b935050602061702586828701616479565b9250506040617036868287016167ed565b9150509250925092565b600080600080600060a0868803121561705c5761705b618c9a565b5b600061706a88828901616841565b955050602061707b8882890161664a565b945050604061708c88828901616802565b935050606061709d88828901616802565b92505060806170ae88828901616841565b9150509295509295909350565b6000602082840312156170d1576170d0618c9a565b5b60006170df84828501616856565b91505092915050565b60006170f48383617148565b60208301905092915050565b600061710c8383617676565b60408301905092915050565b60006171248383617774565b60208301905092915050565b600061713c8383617792565b60208301905092915050565b61715181618746565b82525050565b61716081618746565b82525050565b6000617171826180fd565b61717b8185618173565b9350617186836180bd565b8060005b838110156171b757815161719e88826170e8565b97506171a98361813f565b92505060018101905061718a565b5085935050505092915050565b60006171cf82618108565b6171d98185618184565b93506171e4836180cd565b8060005b838110156172155781516171fc8882617100565b97506172078361814c565b9250506001810190506171e8565b5085935050505092915050565b600061722d82618113565b6172378185618195565b9350617242836180dd565b8060005b8381101561727357815161725a8882617118565b975061726583618159565b925050600181019050617246565b5085935050505092915050565b600061728b8261811e565b61729581856181a6565b93506172a0836180ed565b8060005b838110156172d15781516172b88882617130565b97506172c383618166565b9250506001810190506172a4565b5085935050505092915050565b6172e78161876a565b82525050565b6172f68161876a565b82525050565b61730581618776565b82525050565b600061731682618129565b61732081856181b7565b9350617330818560208601618a04565b61733981618c9f565b840191505092915050565b61734d8161889e565b82525050565b61735c816188b0565b82525050565b61736b816188c2565b82525050565b61737a816188d4565b82525050565b617389816188e6565b82525050565b617398816188f8565b82525050565b6173a78161890a565b82525050565b6173b68161891c565b82525050565b6173c58161892e565b82525050565b6173d481618940565b82525050565b6173e381618952565b82525050565b6173f281618964565b82525050565b61740181618976565b82525050565b61741081618988565b82525050565b61741f8161899a565b82525050565b600061743082618134565b61743a81856181c8565b935061744a818560208601618a04565b61745381618c9f565b840191505092915050565b600061746b6014836181c8565b915061747682618cbd565b602082019050919050565b600061748e6032836181c8565b915061749982618ce6565b604082019050919050565b60006174b16037836181c8565b91506174bc82618d35565b604082019050919050565b60006174d46010836181c8565b91506174df82618d84565b602082019050919050565b60006174f76002836181c8565b915061750282618dad565b602082019050919050565b600061751a603a836181c8565b915061752582618dd6565b604082019050919050565b600061753d602e836181c8565b915061754882618e25565b604082019050919050565b60006175606020836181c8565b915061756b82618e74565b602082019050919050565b60006175836030836181c8565b915061758e82618e9d565b604082019050919050565b60006175a6602b836181c8565b91506175b182618eec565b604082019050919050565b600060a08301600083015184820360008601526175d9828261730b565b915050602083015184820360208601526175f3828261730b565b9150506040830151848203604086015261760d82826171c4565b91505060608301516176226060860182617148565b506080830151848203608086015261763a828261730b565b9150508091505092915050565b60408201600082015161765d6000850182617774565b50602082015161767060208501826172de565b50505050565b60408201600082015161768c6000850182617148565b50602082015161769f6020850182617774565b50505050565b610100820160008201516176bc6000850182617148565b5060208201516176cf6020850182617148565b5060408201516176e26040850182617765565b5060608201516176f56060850182617148565b5060808201516177086080850182617774565b5060a082015161771b60a0850182617774565b5060c082015161772e60c0850182617774565b5060e082015161774160e0850182617747565b50505050565b617750816187fa565b82525050565b61775f816187ec565b82525050565b61776e8161883e565b82525050565b61777d8161884d565b82525050565b61778c8161884d565b82525050565b61779b81618857565b82525050565b6177aa81618867565b82525050565b6177b98161887b565b82525050565b60006020820190506177d46000830184617157565b92915050565b60006060820190506177ef6000830186617157565b6177fc6020830185617157565b61780960408301846173f8565b949350505050565b600060a0820190506178266000830188617157565b6178336020830187617157565b6178406040830186617783565b61784d6060830185617157565b61785a6080830184617783565b9695505050505050565b60006040820190506178796000830185617157565b6178866020830184617783565b9392505050565b600060208201905081810360008301526178a78184617280565b905092915050565b60006020820190506178c460008301846172ed565b92915050565b60006020820190506178df60008301846172fc565b92915050565b60006020820190506178fa6000830184617344565b92915050565b60006020820190506179156000830184617353565b92915050565b60006020820190506179306000830184617362565b92915050565b600060208201905061794b6000830184617371565b92915050565b60006020820190506179666000830184617380565b92915050565b6000602082019050617981600083018461738f565b92915050565b600060208201905061799c600083018461739e565b92915050565b60006020820190506179b760008301846173ad565b92915050565b600060c0820190506179d260008301896173cb565b81810360208301526179e48188617166565b905081810360408301526179f88187617166565b9050617a076060830186617783565b8181036080830152617a198185617222565b905081810360a0830152617a2d8184617222565b9050979650505050505050565b6000602082019050617a4f60008301846173da565b92915050565b600060c082019050617a6a60008301896173da565b8181036020830152617a7c8188617166565b90508181036040830152617a908187617166565b9050617a9f6060830186617783565b8181036080830152617ab18185617222565b905081810360a0830152617ac58184617222565b9050979650505050505050565b600060c082019050617ae760008301896173e9565b8181036020830152617af98188617166565b90508181036040830152617b0d8187617166565b9050617b1c6060830186617783565b8181036080830152617b2e8185617222565b905081810360a0830152617b428184617222565b9050979650505050505050565b600060c082019050617b646000830189617407565b8181036020830152617b768188617166565b90508181036040830152617b8a8187617166565b9050617b996060830186617783565b8181036080830152617bab8185617222565b905081810360a0830152617bbf8184617222565b9050979650505050505050565b600060c082019050617be16000830189617416565b8181036020830152617bf38188617166565b90508181036040830152617c078187617166565b9050617c166060830186617783565b8181036080830152617c288185617222565b905081810360a0830152617c3c8184617222565b9050979650505050505050565b60006020820190508181036000830152617c638184617425565b905092915050565b60006020820190508181036000830152617c848161745e565b9050919050565b60006020820190508181036000830152617ca481617481565b9050919050565b60006020820190508181036000830152617cc4816174a4565b9050919050565b60006020820190508181036000830152617ce4816174c7565b9050919050565b60006020820190508181036000830152617d04816174ea565b9050919050565b60006020820190508181036000830152617d248161750d565b9050919050565b60006020820190508181036000830152617d4481617530565b9050919050565b60006020820190508181036000830152617d6481617553565b9050919050565b60006020820190508181036000830152617d8481617576565b9050919050565b60006020820190508181036000830152617da481617599565b9050919050565b6000604082019050617dc06000830184617647565b92915050565b600061010082019050617ddc60008301846176a5565b92915050565b6000602082019050617df76000830184617756565b92915050565b6000602082019050617e126000830184617783565b92915050565b6000604082019050617e2d6000830185617783565b8181036020830152617e3f8184617166565b90509392505050565b600060a082019050617e5d6000830188617783565b617e6a60208301876173bc565b8181036040830152617e7c8186617166565b9050617e8b6060830185617157565b617e986080830184617783565b9695505050505050565b6000604082019050617eb76000830185617783565b617ec46020830184617783565b9392505050565b6000602082019050617ee060008301846177a1565b92915050565b600060a082019050617efb60008301886177a1565b617f086020830187617157565b8181036040830152617f1a8186617425565b9050617f296060830185617157565b617f366080830184617783565b9695505050505050565b6000604082019050617f5560008301856177a1565b8181036020830152617f6781846175bc565b90509392505050565b6000602082019050617f8560008301846177b0565b92915050565b6000617f95617fa6565b9050617fa18282618ab2565b919050565b6000604051905090565b600067ffffffffffffffff821115617fcb57617fca618c48565b5b602082029050602081019050919050565b600067ffffffffffffffff821115617ff757617ff6618c48565b5b602082029050602081019050919050565b600067ffffffffffffffff82111561802357618022618c48565b5b602082029050602081019050919050565b600067ffffffffffffffff82111561804f5761804e618c48565b5b602082029050602081019050919050565b600067ffffffffffffffff82111561807b5761807a618c48565b5b602082029050602081019050919050565b600067ffffffffffffffff8211156180a7576180a6618c48565b5b6180b082618c9f565b9050602081019050919050565b6000819050602082019050919050565b6000819050602082019050919050565b6000819050602082019050919050565b6000819050602082019050919050565b600081519050919050565b600081519050919050565b600081519050919050565b600081519050919050565b600081519050919050565b600081519050919050565b6000602082019050919050565b6000602082019050919050565b6000602082019050919050565b6000602082019050919050565b600082825260208201905092915050565b600082825260208201905092915050565b600082825260208201905092915050565b600082825260208201905092915050565b600082825260208201905092915050565b600082825260208201905092915050565b60006181e48261884d565b91506181ef8361884d565b9250827fffffffffffffffffffffffffffffffffffffffffffffffffffffffffffffffff0382111561822457618223618b5d565b5b828201905092915050565b600061823a826187c3565b9150618245836187c3565b92508261825557618254618b8c565b5b600160000383147fffffffffffffffffffffffffffffffffffffffffffffffffff800000000000008314161561828e5761828d618b5d565b5b828205905092915050565b60006182a48261881a565b91506182af8361881a565b9250826182bf576182be618b8c565b5b828204905092915050565b60006182d58261884d565b91506182e08361884d565b9250826182f0576182ef618b8c565b5b828204905092915050565b6000808291508390505b60018511156183455780860481111561832157618320618b5d565b5b60018516156183305780820291505b808102905061833e85618cb0565b9450618305565b94509492505050565b60006183598261884d565b91506183648361887b565b92506183917fffffffffffffffffffffffffffffffffffffffffffffffffffffffffffffffff8484618399565b905092915050565b6000826183a95760019050618465565b816183b75760009050618465565b81600181146183cd57600281146183d757618406565b6001915050618465565b60ff8411156183e9576183e8618b5d565b5b8360020a915084821115618400576183ff618b5d565b5b50618465565b5060208310610133831016604e8410600b841016171561843b5782820a90508381111561843657618435618b5d565b5b618465565b61844884848460016182fb565b9250905081840481111561845f5761845e618b5d565b5b81810290505b9392505050565b6000618477826187b9565b9150618482836187b9565b9250827f7fffffffffffffffffffffffffffffffffffffffffffffffffffffffffffffff04821160008413600084131616156184c1576184c0618b5d565b5b817f800000000000000000000000000000000000000000000000000000000000000005831260008412600084131616156184fe576184fd618b5d565b5b827f8000000000000000000000000000000000000000000000000000000000000000058212600084136000841216161561853b5761853a618b5d565b5b827f7fffffffffffffffffffffffffffffffffffffffffffffffffffffffffffffff058212600084126000841216161561857857618577618b5d565b5b828202905092915050565b600061858e8261881a565b91506185998361881a565b92508177ffffffffffffffffffffffffffffffffffffffffffffffff04831182151516156185ca576185c9618b5d565b5b828202905092915050565b60006185e08261884d565b91506185eb8361884d565b9250817fffffffffffffffffffffffffffffffffffffffffffffffffffffffffffffffff048311821515161561862457618623618b5d565b5b828202905092915050565b600061863a826187c3565b9150618645836187c3565b9250827fffffffffffffffffffffffffffffffffffffffffffffffffff80000000000000018212600084121516156186805761867f618b5d565b5b82667fffffffffffff01821360008412161561869f5761869e618b5d565b5b828203905092915050565b60006186b5826187fa565b91506186c0836187fa565b9250828210156186d3576186d2618b5d565b5b828203905092915050565b60006186e98261884d565b91506186f48361884d565b92508282101561870757618706618b5d565b5b828203905092915050565b600061871d8261887b565b91506187288361887b565b92508282101561873b5761873a618b5d565b5b828203905092915050565b6000618751826187fa565b9050919050565b6000618763826187fa565b9050919050565b60008115159050919050565b6000819050919050565b60007fffffffff0000000000000000000000000000000000000000000000000000000082169050919050565b60008160020b9050919050565b6000819050919050565b60008160060b9050919050565b60006fffffffffffffffffffffffffffffffff82169050919050565b600061ffff82169050919050565b600073ffffffffffffffffffffffffffffffffffffffff82169050919050565b600077ffffffffffffffffffffffffffffffffffffffffffffffff82169050919050565b600062ffffff82169050919050565b6000819050919050565b600063ffffffff82169050919050565b600067ffffffffffffffff82169050919050565b600060ff82169050919050565b600069ffffffffffffffffffff82169050919050565b60006188a9826189bf565b9050919050565b60006188bb826189d1565b9050919050565b60006188cd826189bf565b9050919050565b60006188df826189bf565b9050919050565b60006188f1826189bf565b9050919050565b6000618903826189bf565b9050919050565b6000618915826189bf565b9050919050565b6000618927826189bf565b9050919050565b60006189398261884d565b9050919050565b600061894b8261887b565b9050919050565b600061895d8261887b565b9050919050565b600061896f8261887b565b9050919050565b60006189818261883e565b9050919050565b60006189938261887b565b9050919050565b60006189a58261887b565b9050919050565b60006189b83683616693565b9050919050565b60006189ca826189e3565b9050919050565b60006189dc826189e3565b9050919050565b60006189ee826187fa565b9050919050565b82818337600083830152505050565b60005b83811015618a22578082015181840152602081019050618a07565b83811115618a31576000848401525b50505050565b6000618a42826187ac565b91507fffffffffffffffffffffffffffffffffffffffffffffffffffffffffff800000821415618a7557618a74618b5d565b5b600182039050919050565b60006002820490506001821680618a9857607f821691505b60208210811415618aac57618aab618bea565b5b50919050565b618abb82618c9f565b810181811067ffffffffffffffff82111715618ada57618ad9618c48565b5b80604052505050565b6000618aee8261884d565b91507fffffffffffffffffffffffffffffffffffffffffffffffffffffffffffffffff821415618b2157618b20618b5d565b5b600182019050919050565b6000618b37826187c3565b9150618b42836187c3565b925082618b5257618b51618b8c565b5b828207905092915050565b7f4e487b7100000000000000000000000000000000000000000000000000000000600052601160045260246000fd5b7f4e487b7100000000000000000000000000000000000000000000000000000000600052601260045260246000fd5b7f4e487b7100000000000000000000000000000000000000000000000000000000600052602160045260246000fd5b7f4e487b7100000000000000000000000000000000000000000000000000000000600052602260045260246000fd5b7f4e487b7100000000000000000000000000000000000000000000000000000000600052603260045260246000fd5b7f4e487b7100000000000000000000000000000000000000000000000000000000600052604160045260246000fd5b600080fd5b600080fd5b600080fd5b600080fd5b600080fd5b600080fd5b600080fd5b600080fd5b6000601f19601f8301169050919050565b60008160011c9050919050565b7f5061757361626c653a206e6f7420706175736564000000000000000000000000600082015250565b7f50726f706f7361626c654f776e61626c653a206e6577206f776e65722069732060008201527f6e6f742070726f706f736564206f776e65720000000000000000000000000000602082015250565b7f4d6178696d756d203520646966666572656e7420746f6b656e732063616e206260008201527f652073656e74207065722043434950204d657373616765000000000000000000602082015250565b7f5061757361626c653a2070617573656400000000000000000000000000000000600082015250565b7f4250000000000000000000000000000000000000000000000000000000000000600082015250565b7f50726f706f7361626c654f776e61626c653a20746869732063616c6c206d757360008201527f74206265206d61646520627920746865206e6577206f776e6572000000000000602082015250565b7f496e697469616c697a61626c653a20636f6e747261637420697320616c72656160008201527f647920696e697469616c697a6564000000000000000000000000000000000000602082015250565b7f4f776e61626c653a2063616c6c6572206973206e6f7420746865206f776e6572600082015250565b7f50726f706f7361626c654f776e61626c653a206e6577206f776e65722069732060008201527f746865207a65726f206164647265737300000000000000000000000000000000602082015250565b7f496e697469616c697a61626c653a20636f6e7472616374206973206e6f74206960008201527f6e697469616c697a696e67000000000000000000000000000000000000000000602082015250565b618f4481618746565b8114618f4f57600080fd5b50565b618f5b81618758565b8114618f6657600080fd5b50565b618f728161876a565b8114618f7d57600080fd5b50565b618f8981618776565b8114618f9457600080fd5b50565b618fa081618780565b8114618fab57600080fd5b50565b60028110618fbb57600080fd5b50565b618fc7816187b9565b8114618fd257600080fd5b50565b618fde816187c3565b8114618fe957600080fd5b50565b618ff5816187d0565b811461900057600080fd5b50565b61900c816187fa565b811461901757600080fd5b50565b6190238161884d565b811461902e57600080fd5b50565b61903a81618857565b811461904557600080fd5b50565b61905181618867565b811461905c57600080fd5b50565b6190688161887b565b811461907357600080fd5b50565b61907f81618888565b811461908a57600080fd5b5056fea264697066735822122087f6b816c43ca624df288d68043636f9f751b8622846506ca492400476f708d564736f6c63430008070033","linkReferences":{}},"methodIdentifiers":{"ccipReceive((bytes32,uint64,bytes,bytes,(address,uint256)[]))":"85572ffb","convertEthToUsd(uint256)":"c086381e","crossChainToken(uint64)":"19da7e2a","crossChainTokenSwapVersion(uint64,address)":"174cbe50","crossChainVault()":"3d13272b","currentChainSelector()":"3d54cb6f","estimateAmountOut(address,address,uint128,uint32)":"bf938db8","factoryV2()":"68e0d4e1","factoryV3()":"1d5f45f5","fee()":"ddca3f43","feeRate()":"978bbdb9","feeRatePerDayScaled()":"2fecd589","feeReceiver()":"b3f00674","feeTimestamp()":"184a732f","getAmountOut(address,address,uint256,uint256)":"13cb1f83","getRouter()":"b0f479a1","i_link()":"7d253aff","i_maxTokensLength()":"5b6a0351","initialize(uint64,address,address,address,address,address,address,address,address,address)":"2651e662","isRestricted(address)":"c01bc982","issuanceCompletedTokensCount(uint256)":"94037369","issuanceMessageIdByNonce(uint256)":"9121c717","issuanceTokenOldAndNewValues(uint256,address)":"81b15279","latestFeeUpdate()":"011ced5f","messageDetail(bytes32)":"9c3ddb2e","methodologist()":"9f8e67bf","methodology()":"9eeb1d50","minter()":"07546172","oraclePayment()":"0c02e130","owner()":"8da5cb5b","pause()":"8456cb59","paused()":"5c975abb","priceInWei()":"3c8da588","proposeOwner(address)":"b5ed298a","proposedOwner()":"d153b60c","quoter()":"c6bbd5a7","receivedMessages(uint256)":"d030366c","redemptionMessageIdByNonce(uint256)":"306b3a28","renounceOwnership()":"715018a6","sendMessage(uint64,address,bytes,uint8)":"bcab90b3","setCcipRouter(address)":"27bf9b44","setCrossChainToken(uint64,address,uint256)":"195c4913","setCrossChainVault(address)":"5f206b66","sourceChainSelectorF()":"ff5474f0","supplyCeiling()":"2b52684d","supportsInterface(bytes4)":"01ffc9a7","swap(address,address,uint256,address,uint256)":"17d88f46","swapRouterV2()":"744fbc7a","swapRouterV3()":"b631e80b","toUsdPriceFeed()":"63973fda","transferOwnership(address)":"f2fde38b","unpause()":"3f4ba83a","weth()":"3fc8cef3"},"id":38}