{"abi":[{"type":"receive","stateMutability":"payable"},{"type":"function","name":"ccipReceive","inputs":[{"name":"message","type":"tuple","internalType":"struct Client.Any2EVMMessage","components":[{"name":"messageId","type":"bytes32","internalType":"bytes32"},{"name":"sourceChainSelector","type":"uint64","internalType":"uint64"},{"name":"sender","type":"bytes","internalType":"bytes"},{"name":"data","type":"bytes","internalType":"bytes"},{"name":"destTokenAmounts","type":"tuple[]","internalType":"struct Client.EVMTokenAmount[]","components":[{"name":"token","type":"address","internalType":"address"},{"name":"amount","type":"uint256","internalType":"uint256"}]}]}],"outputs":[],"stateMutability":"nonpayable"},{"type":"function","name":"convertEthToUsd","inputs":[{"name":"_ethAmount","type":"uint256","internalType":"uint256"}],"outputs":[{"name":"","type":"uint256","internalType":"uint256"}],"stateMutability":"view"},{"type":"function","name":"crossChainToken","inputs":[{"name":"","type":"uint64","internalType":"uint64"}],"outputs":[{"name":"","type":"address","internalType":"address"}],"stateMutability":"view"},{"type":"function","name":"crossChainTokenSwapFee","inputs":[{"name":"","type":"uint64","internalType":"uint64"},{"name":"","type":"address","internalType":"address"}],"outputs":[{"name":"","type":"uint24","internalType":"uint24"}],"stateMutability":"view"},{"type":"function","name":"currentChainSelector","inputs":[],"outputs":[{"name":"","type":"uint64","internalType":"uint64"}],"stateMutability":"view"},{"type":"function","name":"estimateAmountOut","inputs":[{"name":"tokenIn","type":"address","internalType":"address"},{"name":"tokenOut","type":"address","internalType":"address"},{"name":"amountIn","type":"uint128","internalType":"uint128"},{"name":"fee","type":"uint24","internalType":"uint24"}],"outputs":[{"name":"amountOut","type":"uint256","internalType":"uint256"}],"stateMutability":"view"},{"type":"function","name":"factoryV3","inputs":[],"outputs":[{"name":"","type":"address","internalType":"contract IUniswapV3Factory"}],"stateMutability":"view"},{"type":"function","name":"fee","inputs":[],"outputs":[{"name":"","type":"uint256","internalType":"uint256"}],"stateMutability":"view"},{"type":"function","name":"feeRate","inputs":[],"outputs":[{"name":"","type":"uint8","internalType":"uint8"}],"stateMutability":"view"},{"type":"function","name":"feeRatePerDayScaled","inputs":[],"outputs":[{"name":"","type":"uint256","internalType":"uint256"}],"stateMutability":"view"},{"type":"function","name":"feeReceiver","inputs":[],"outputs":[{"name":"","type":"address","internalType":"address"}],"stateMutability":"view"},{"type":"function","name":"feeTimestamp","inputs":[],"outputs":[{"name":"","type":"uint256","internalType":"uint256"}],"stateMutability":"view"},{"type":"function","name":"getAmountOut","inputs":[{"name":"tokenIn","type":"address","internalType":"address"},{"name":"tokenOut","type":"address","internalType":"address"},{"name":"amountIn","type":"uint256","internalType":"uint256"},{"name":"_swapFee","type":"uint24","internalType":"uint24"}],"outputs":[{"name":"finalAmountOut","type":"uint256","internalType":"uint256"}],"stateMutability":"view"},{"type":"function","name":"getRouter","inputs":[],"outputs":[{"name":"","type":"address","internalType":"address"}],"stateMutability":"view"},{"type":"function","name":"i_link","inputs":[],"outputs":[{"name":"","type":"address","internalType":"address"}],"stateMutability":"view"},{"type":"function","name":"i_maxTokensLength","inputs":[],"outputs":[{"name":"","type":"uint16","internalType":"uint16"}],"stateMutability":"view"},{"type":"function","name":"initialize","inputs":[{"name":"_currentChainSelector","type":"uint64","internalType":"uint64"},{"name":"_vault","type":"address","internalType":"address payable"},{"name":"_chainlinkToken","type":"address","internalType":"address"},{"name":"_router","type":"address","internalType":"address"},{"name":"_weth","type":"address","internalType":"address"},{"name":"_swapRouterV3","type":"address","internalType":"address"},{"name":"_factoryV3","type":"address","internalType":"address"},{"name":"_swapRouterV2","type":"address","internalType":"address"},{"name":"_toUsdPriceFeed","type":"address","internalType":"address"}],"outputs":[],"stateMutability":"nonpayable"},{"type":"function","name":"isRestricted","inputs":[{"name":"","type":"address","internalType":"address"}],"outputs":[{"name":"","type":"bool","internalType":"bool"}],"stateMutability":"view"},{"type":"function","name":"issuanceCompletedTokensCount","inputs":[{"name":"","type":"uint256","internalType":"uint256"}],"outputs":[{"name":"","type":"uint256","internalType":"uint256"}],"stateMutability":"view"},{"type":"function","name":"issuanceMessageIdByNonce","inputs":[{"name":"","type":"uint256","internalType":"uint256"}],"outputs":[{"name":"","type":"bytes32","internalType":"bytes32"}],"stateMutability":"view"},{"type":"function","name":"issuanceTokenOldAndNewValues","inputs":[{"name":"","type":"uint256","internalType":"uint256"},{"name":"","type":"address","internalType":"address"}],"outputs":[{"name":"oldTokenValue","type":"uint256","internalType":"uint256"},{"name":"newTokenValue","type":"uint256","internalType":"uint256"}],"stateMutability":"view"},{"type":"function","name":"latestFeeUpdate","inputs":[],"outputs":[{"name":"","type":"uint256","internalType":"uint256"}],"stateMutability":"view"},{"type":"function","name":"messageDetail","inputs":[{"name":"","type":"bytes32","internalType":"bytes32"}],"outputs":[{"name":"sourceChainSelector","type":"uint64","internalType":"uint64"},{"name":"sender","type":"address","internalType":"address"},{"name":"message","type":"string","internalType":"string"},{"name":"token","type":"address","internalType":"address"},{"name":"amount","type":"uint256","internalType":"uint256"}],"stateMutability":"view"},{"type":"function","name":"methodologist","inputs":[],"outputs":[{"name":"","type":"address","internalType":"address"}],"stateMutability":"view"},{"type":"function","name":"methodology","inputs":[],"outputs":[{"name":"","type":"string","internalType":"string"}],"stateMutability":"view"},{"type":"function","name":"minter","inputs":[],"outputs":[{"name":"","type":"address","internalType":"address"}],"stateMutability":"view"},{"type":"function","name":"oraclePayment","inputs":[],"outputs":[{"name":"","type":"uint256","internalType":"uint256"}],"stateMutability":"view"},{"type":"function","name":"owner","inputs":[],"outputs":[{"name":"","type":"address","internalType":"address"}],"stateMutability":"view"},{"type":"function","name":"pause","inputs":[],"outputs":[],"stateMutability":"nonpayable"},{"type":"function","name":"paused","inputs":[],"outputs":[{"name":"","type":"bool","internalType":"bool"}],"stateMutability":"view"},{"type":"function","name":"priceInWei","inputs":[],"outputs":[{"name":"","type":"uint256","internalType":"uint256"}],"stateMutability":"view"},{"type":"function","name":"priceOracle","inputs":[],"outputs":[{"name":"","type":"address","internalType":"address"}],"stateMutability":"view"},{"type":"function","name":"proposeOwner","inputs":[{"name":"_proposedOwner","type":"address","internalType":"address"}],"outputs":[],"stateMutability":"nonpayable"},{"type":"function","name":"proposedOwner","inputs":[],"outputs":[{"name":"","type":"address","internalType":"address"}],"stateMutability":"view"},{"type":"function","name":"quoter","inputs":[],"outputs":[{"name":"","type":"address","internalType":"contract IQuoter"}],"stateMutability":"view"},{"type":"function","name":"receivedMessages","inputs":[{"name":"","type":"uint256","internalType":"uint256"}],"outputs":[{"name":"","type":"bytes32","internalType":"bytes32"}],"stateMutability":"view"},{"type":"function","name":"redemptionMessageIdByNonce","inputs":[{"name":"","type":"uint256","internalType":"uint256"}],"outputs":[{"name":"","type":"bytes32","internalType":"bytes32"}],"stateMutability":"view"},{"type":"function","name":"renounceOwnership","inputs":[],"outputs":[],"stateMutability":"nonpayable"},{"type":"function","name":"sendMessage","inputs":[{"name":"destinationChainSelector","type":"uint64","internalType":"uint64"},{"name":"receiver","type":"address","internalType":"address"},{"name":"_data","type":"bytes","internalType":"bytes"},{"name":"payFeesIn","type":"uint8","internalType":"enum CrossChainIndexFactory.PayFeesIn"}],"outputs":[{"name":"","type":"bytes32","internalType":"bytes32"}],"stateMutability":"nonpayable"},{"type":"function","name":"setCcipRouter","inputs":[{"name":"_router","type":"address","internalType":"address"}],"outputs":[],"stateMutability":"nonpayable"},{"type":"function","name":"setCrossChainToken","inputs":[{"name":"_chainSelector","type":"uint64","internalType":"uint64"},{"name":"_crossChainToken","type":"address","internalType":"address"},{"name":"_swapFee","type":"uint24","internalType":"uint24"}],"outputs":[],"stateMutability":"nonpayable"},{"type":"function","name":"setPriceOracle","inputs":[{"name":"_priceOracle","type":"address","internalType":"address"}],"outputs":[],"stateMutability":"nonpayable"},{"type":"function","name":"setVault","inputs":[{"name":"_vault","type":"address","internalType":"address payable"}],"outputs":[],"stateMutability":"nonpayable"},{"type":"function","name":"sourceChainSelectorF","inputs":[],"outputs":[{"name":"","type":"uint64","internalType":"uint64"}],"stateMutability":"view"},{"type":"function","name":"supplyCeiling","inputs":[],"outputs":[{"name":"","type":"uint256","internalType":"uint256"}],"stateMutability":"view"},{"type":"function","name":"supportsInterface","inputs":[{"name":"interfaceId","type":"bytes4","internalType":"bytes4"}],"outputs":[{"name":"","type":"bool","internalType":"bool"}],"stateMutability":"pure"},{"type":"function","name":"swap","inputs":[{"name":"tokenIn","type":"address","internalType":"address"},{"name":"tokenOut","type":"address","internalType":"address"},{"name":"amountIn","type":"uint256","internalType":"uint256"},{"name":"_recipient","type":"address","internalType":"address"},{"name":"_swapFee","type":"uint24","internalType":"uint24"}],"outputs":[{"name":"outputAmount","type":"uint256","internalType":"uint256"}],"stateMutability":"nonpayable"},{"type":"function","name":"swapRouterV2","inputs":[],"outputs":[{"name":"","type":"address","internalType":"contract IUniswapV2Router02"}],"stateMutability":"view"},{"type":"function","name":"swapRouterV3","inputs":[],"outputs":[{"name":"","type":"address","internalType":"contract ISwapRouter"}],"stateMutability":"view"},{"type":"function","name":"testData","inputs":[],"outputs":[{"name":"","type":"uint256","internalType":"uint256"}],"stateMutability":"view"},{"type":"function","name":"testData2","inputs":[],"outputs":[{"name":"","type":"address","internalType":"address"}],"stateMutability":"view"},{"type":"function","name":"toUsdPriceFeed","inputs":[],"outputs":[{"name":"","type":"address","internalType":"contract AggregatorV3Interface"}],"stateMutability":"view"},{"type":"function","name":"transferOwnership","inputs":[{"name":"newOwner","type":"address","internalType":"address"}],"outputs":[],"stateMutability":"nonpayable"},{"type":"function","name":"unpause","inputs":[],"outputs":[],"stateMutability":"nonpayable"},{"type":"function","name":"vault","inputs":[],"outputs":[{"name":"","type":"address","internalType":"contract Vault"}],"stateMutability":"view"},{"type":"function","name":"weth","inputs":[],"outputs":[{"name":"","type":"address","internalType":"contract IWETH"}],"stateMutability":"view"},{"type":"event","name":"Initialized","inputs":[{"name":"version","type":"uint8","indexed":false,"internalType":"uint8"}],"anonymous":false},{"type":"event","name":"Issuanced","inputs":[{"name":"messageId","type":"bytes32","indexed":true,"internalType":"bytes32"},{"name":"nonce","type":"uint256","indexed":true,"internalType":"uint256"},{"name":"time","type":"uint256","indexed":false,"internalType":"uint256"}],"anonymous":false},{"type":"event","name":"MessageSent","inputs":[{"name":"messageId","type":"bytes32","indexed":false,"internalType":"bytes32"}],"anonymous":false},{"type":"event","name":"OwnershipTransferred","inputs":[{"name":"previousOwner","type":"address","indexed":true,"internalType":"address"},{"name":"newOwner","type":"address","indexed":true,"internalType":"address"}],"anonymous":false},{"type":"event","name":"Paused","inputs":[{"name":"account","type":"address","indexed":false,"internalType":"address"}],"anonymous":false},{"type":"event","name":"Redemption","inputs":[{"name":"messageId","type":"bytes32","indexed":true,"internalType":"bytes32"},{"name":"nonce","type":"uint256","indexed":true,"internalType":"uint256"},{"name":"time","type":"uint256","indexed":false,"internalType":"uint256"}],"anonymous":false},{"type":"event","name":"Unpaused","inputs":[{"name":"account","type":"address","indexed":false,"internalType":"address"}],"anonymous":false},{"type":"error","name":"InvalidRouter","inputs":[{"name":"router","type":"address","internalType":"address"}]}],"bytecode":{"object":"0x6080604052348015600e575f80fd5b50618f3c8061001c5f395ff3fe60806040526004361061036e575f3560e01c80637e79f512116101c5578063b631e80b116100f6578063dd811ac911610094578063f0cd5b721161006e578063f0cd5b7214610ccc578063f2fde38b14610cf4578063fbfa77cf14610d1c578063ff5474f014610d4657610375565b8063dd811ac914610c2a578063ddca3f4314610c66578063ee7bd3e214610c9057610375565b8063c086381e116100d0578063c086381e14610b5e578063c6bbd5a714610b9a578063d030366c14610bc4578063d153b60c14610c0057610375565b8063b631e80b14610abc578063bcab90b314610ae6578063c01bc98214610b2257610375565b8063978bbdb9116101635780639f8e67bf1161013d5780639f8e67bf14610a16578063b0f479a114610a40578063b3f0067414610a6a578063b5ed298a14610a9457610375565b8063978bbdb9146109825780639c3ddb2e146109ac5780639eeb1d50146109ec57610375565b806385572ffb1161019f57806385572ffb146108b85780638da5cb5b146108e05780639121c7171461090a578063940373691461094657610375565b80637e79f5121461082957806381b15279146108655780638456cb59146108a257610375565b80633421fa291161029f5780635c975abb1161023d5780636817031b116102175780636817031b14610797578063715018a6146107bf578063744fbc7a146107d55780637d253aff146107ff57610375565b80635c975abb1461070757806363973fda14610731578063652354ae1461075b57610375565b80633f4ba83a116102795780633f4ba83a146106755780633fc8cef31461068b578063530e784f146106b55780635b6a0351146106dd57610375565b80633421fa29146105f75780633c8da588146106215780633d54cb6f1461064b57610375565b806319da7e2a1161030c57806327bf9b44116102e657806327bf9b441461053f5780632b52684d146105675780632fecd58914610591578063306b3a28146105bb57610375565b806319da7e2a146104af5780631d5f45f5146104eb5780632630c12f1461051557610375565b8063075461721161034857806307546172146104095780630c02e1301461043357806317c27b761461045d578063184a732f1461048557610375565b8063011ced5f14610379578063016cbd51146103a357806301ffc9a7146103cd57610375565b3661037557005b5f80fd5b348015610384575f80fd5b5061038d610d70565b60405161039a9190616201565b60405180910390f35b3480156103ae575f80fd5b506103b7610d76565b6040516103c49190616201565b60405180910390f35b3480156103d8575f80fd5b506103f360048036038101906103ee9190616280565b610d7c565b60405161040091906162c5565b60405180910390f35b348015610414575f80fd5b5061041d610e4d565b60405161042a919061631d565b60405180910390f35b34801561043e575f80fd5b50610447610e72565b6040516104549190616201565b60405180910390f35b348015610468575f80fd5b50610483600480360381019061047e91906163d8565b610e78565b005b348015610490575f80fd5b50610499611680565b6040516104a69190616201565b60405180910390f35b3480156104ba575f80fd5b506104d560048036038101906104d0919061649c565b611686565b6040516104e2919061631d565b60405180910390f35b3480156104f6575f80fd5b506104ff6116b6565b60405161050c9190616522565b60405180910390f35b348015610520575f80fd5b506105296116db565b604051610536919061631d565b60405180910390f35b34801561054a575f80fd5b506105656004803603810190610560919061653b565b611700565b005b348015610572575f80fd5b5061057b61174b565b6040516105889190616201565b60405180910390f35b34801561059c575f80fd5b506105a5611751565b6040516105b29190616201565b60405180910390f35b3480156105c6575f80fd5b506105e160048036038101906105dc9190616590565b611757565b6040516105ee91906165d3565b60405180910390f35b348015610602575f80fd5b5061060b61176c565b604051610618919061631d565b60405180910390f35b34801561062c575f80fd5b50610635611791565b6040516106429190616201565b60405180910390f35b348015610656575f80fd5b5061065f6118ce565b60405161066c91906165fb565b60405180910390f35b348015610680575f80fd5b506106896118e7565b005b348015610696575f80fd5b5061069f6118f9565b6040516106ac9190616634565b60405180910390f35b3480156106c0575f80fd5b506106db60048036038101906106d6919061653b565b61191e565b005b3480156106e8575f80fd5b506106f16119d7565b6040516106fe9190616669565b60405180910390f35b348015610712575f80fd5b5061071b6119eb565b60405161072891906162c5565b60405180910390f35b34801561073c575f80fd5b50610745611a00565b60405161075291906166a2565b60405180910390f35b348015610766575f80fd5b50610781600480360381019061077c91906166bb565b611a25565b60405161078e9190616716565b60405180910390f35b3480156107a2575f80fd5b506107bd60048036038101906107b8919061672f565b611a51565b005b3480156107ca575f80fd5b506107d3611a9c565b005b3480156107e0575f80fd5b506107e9611aaf565b6040516107f6919061677a565b60405180910390f35b34801561080a575f80fd5b50610813611ad4565b604051610820919061631d565b60405180910390f35b348015610834575f80fd5b5061084f600480360381019061084a91906167bd565b611af9565b60405161085c9190616201565b60405180910390f35b348015610870575f80fd5b5061088b60048036038101906108869190616834565b611ce2565b604051610899929190616872565b60405180910390f35b3480156108ad575f80fd5b506108b6611d0d565b005b3480156108c3575f80fd5b506108de60048036038101906108d991906168bb565b611d1f565b005b3480156108eb575f80fd5b506108f4611dc5565b604051610901919061631d565b60405180910390f35b348015610915575f80fd5b50610930600480360381019061092b9190616590565b611ded565b60405161093d91906165d3565b60405180910390f35b348015610951575f80fd5b5061096c60048036038101906109679190616590565b611e02565b6040516109799190616201565b60405180910390f35b34801561098d575f80fd5b50610996611e17565b6040516109a3919061691d565b60405180910390f35b3480156109b7575f80fd5b506109d260048036038101906109cd9190616960565b611e29565b6040516109e39594939291906169fb565b60405180910390f35b3480156109f7575f80fd5b50610a00611f32565b604051610a0d9190616a53565b60405180910390f35b348015610a21575f80fd5b50610a2a611fbe565b604051610a37919061631d565b60405180910390f35b348015610a4b575f80fd5b50610a54611fe3565b604051610a61919061631d565b60405180910390f35b348015610a75575f80fd5b50610a7e61200b565b604051610a8b919061631d565b60405180910390f35b348015610a9f575f80fd5b50610aba6004803603810190610ab5919061653b565b612030565b005b348015610ac7575f80fd5b50610ad06120e9565b604051610add9190616a93565b60405180910390f35b348015610af1575f80fd5b50610b0c6004803603810190610b079190616bfb565b61210e565b604051610b1991906165d3565b60405180910390f35b348015610b2d575f80fd5b50610b486004803603810190610b43919061653b565b61257d565b604051610b5591906162c5565b60405180910390f35b348015610b69575f80fd5b50610b846004803603810190610b7f9190616590565b61259a565b604051610b919190616201565b60405180910390f35b348015610ba5575f80fd5b50610bae6125c8565b604051610bbb9190616c9b565b60405180910390f35b348015610bcf575f80fd5b50610bea6004803603810190610be59190616590565b6125ed565b604051610bf791906165d3565b60405180910390f35b348015610c0b575f80fd5b50610c1461260d565b604051610c21919061631d565b60405180910390f35b348015610c35575f80fd5b50610c506004803603810190610c4b9190616cb4565b612632565b604051610c5d9190616201565b60405180910390f35b348015610c71575f80fd5b50610c7a612810565b604051610c879190616201565b60405180910390f35b348015610c9b575f80fd5b50610cb66004803603810190610cb19190616d5d565b612816565b604051610cc39190616201565b60405180910390f35b348015610cd7575f80fd5b50610cf26004803603810190610ced9190616dc1565b6128e3565b005b348015610cff575f80fd5b50610d1a6004803603810190610d15919061653b565b6129cf565b005b348015610d27575f80fd5b50610d30612b46565b604051610d3d9190616e31565b60405180910390f35b348015610d51575f80fd5b50610d5a612b6b565b604051610d6791906165fb565b60405180910390f35b60d05481565b60ea5481565b5f7f85572ffb000000000000000000000000000000000000000000000000000000007bffffffffffffffffffffffffffffffffffffffffffffffffffffffff1916827bffffffffffffffffffffffffffffffffffffffffffffffffffffffff19161480610e4657507f01ffc9a7000000000000000000000000000000000000000000000000000000007bffffffffffffffffffffffffffffffffffffffffffffffffffffffff1916827bffffffffffffffffffffffffffffffffffffffffffffffffffffffff1916145b9050919050565b60d75f9054906101000a900473ffffffffffffffffffffffffffffffffffffffff1681565b60db5481565b5f8060019054906101000a900460ff16159050808015610ea7575060015f8054906101000a900460ff1660ff16105b80610ed35750610eb630612b84565b158015610ed2575060015f8054906101000a900460ff1660ff16145b5b610f12576040517f08c379a0000000000000000000000000000000000000000000000000000000008152600401610f0990616eba565b60405180910390fd5b60015f806101000a81548160ff021916908360ff1602179055508015610f4d5760015f60016101000a81548160ff0219169083151502179055505b5f8a67ffffffffffffffff1611610f99576040517f08c379a0000000000000000000000000000000000000000000000000000000008152600401610f9090616f22565b60405180910390fd5b5f73ffffffffffffffffffffffffffffffffffffffff168973ffffffffffffffffffffffffffffffffffffffff1603611007576040517f08c379a0000000000000000000000000000000000000000000000000000000008152600401610ffe90616f8a565b60405180910390fd5b5f73ffffffffffffffffffffffffffffffffffffffff168873ffffffffffffffffffffffffffffffffffffffff1603611075576040517f08c379a000000000000000000000000000000000000000000000000000000000815260040161106c90616ff2565b60405180910390fd5b5f73ffffffffffffffffffffffffffffffffffffffff168773ffffffffffffffffffffffffffffffffffffffff16036110e3576040517f08c379a00000000000000000000000000000000000000000000000000000000081526004016110da9061705a565b60405180910390fd5b5f73ffffffffffffffffffffffffffffffffffffffff168673ffffffffffffffffffffffffffffffffffffffff1603611151576040517f08c379a0000000000000000000000000000000000000000000000000000000008152600401611148906170c2565b60405180910390fd5b5f73ffffffffffffffffffffffffffffffffffffffff168573ffffffffffffffffffffffffffffffffffffffff16036111bf576040517f08c379a00000000000000000000000000000000000000000000000000000000081526004016111b69061712a565b60405180910390fd5b5f73ffffffffffffffffffffffffffffffffffffffff168473ffffffffffffffffffffffffffffffffffffffff160361122d576040517f08c379a000000000000000000000000000000000000000000000000000000000815260040161122490617192565b60405180910390fd5b5f73ffffffffffffffffffffffffffffffffffffffff168373ffffffffffffffffffffffffffffffffffffffff160361129b576040517f08c379a0000000000000000000000000000000000000000000000000000000008152600401611292906171fa565b60405180910390fd5b5f73ffffffffffffffffffffffffffffffffffffffff168273ffffffffffffffffffffffffffffffffffffffff1603611309576040517f08c379a000000000000000000000000000000000000000000000000000000000815260040161130090617262565b60405180910390fd5b611311612ba6565b611319612bfe565b8960d15f6101000a81548167ffffffffffffffff021916908367ffffffffffffffff1602179055508860cd5f6101000a81548173ffffffffffffffffffffffffffffffffffffffff021916908373ffffffffffffffffffffffffffffffffffffffff160217905550865f60026101000a81548173ffffffffffffffffffffffffffffffffffffffff021916908373ffffffffffffffffffffffffffffffffffffffff1602179055508760ca5f6101000a81548173ffffffffffffffffffffffffffffffffffffffff021916908373ffffffffffffffffffffffffffffffffffffffff160217905550600560ca60146101000a81548161ffff021916908361ffff1602179055508773ffffffffffffffffffffffffffffffffffffffff1663095ea7b35f60029054906101000a900473ffffffffffffffffffffffffffffffffffffffff167fffffffffffffffffffffffffffffffffffffffffffffffffffffffffffffffff6040518363ffffffff1660e01b815260040161149b929190617280565b6020604051808303815f875af11580156114b7573d5f803e3d5ffd5b505050506040513d601f19601f820116820180604052508101906114db91906172d1565b508560e05f6101000a81548173ffffffffffffffffffffffffffffffffffffffff021916908373ffffffffffffffffffffffffffffffffffffffff1602179055508460dd5f6101000a81548173ffffffffffffffffffffffffffffffffffffffff021916908373ffffffffffffffffffffffffffffffffffffffff1602179055508360de5f6101000a81548173ffffffffffffffffffffffffffffffffffffffff021916908373ffffffffffffffffffffffffffffffffffffffff1602179055508260df5f6101000a81548173ffffffffffffffffffffffffffffffffffffffff021916908373ffffffffffffffffffffffffffffffffffffffff1602179055508160dc5f6101000a81548173ffffffffffffffffffffffffffffffffffffffff021916908373ffffffffffffffffffffffffffffffffffffffff1602179055508015611674575f8060016101000a81548160ff0219169083151502179055507f7f26b83ff96e1f2b6a682f133852f6798a09c465da95921460cefb3847402498600160405161166b9190617335565b60405180910390a15b50505050505050505050565b60d35481565b60e2602052805f5260405f205f915054906101000a900473ffffffffffffffffffffffffffffffffffffffff1681565b60de5f9054906101000a900473ffffffffffffffffffffffffffffffffffffffff1681565b60d65f9054906101000a900473ffffffffffffffffffffffffffffffffffffffff1681565b611708612c56565b805f60026101000a81548173ffffffffffffffffffffffffffffffffffffffff021916908373ffffffffffffffffffffffffffffffffffffffff16021790555050565b60d95481565b60d25481565b60e8602052805f5260405f205f915090505481565b60eb5f9054906101000a900473ffffffffffffffffffffffffffffffffffffffff1681565b5f8060dc5f9054906101000a900473ffffffffffffffffffffffffffffffffffffffff1673ffffffffffffffffffffffffffffffffffffffff1663feaf968c6040518163ffffffff1660e01b815260040160a060405180830381865afa1580156117fd573d5f803e3d5ffd5b505050506040513d601f19601f8201168201806040525081019061182191906173d4565b5050509150505f60dc5f9054906101000a900473ffffffffffffffffffffffffffffffffffffffff1673ffffffffffffffffffffffffffffffffffffffff1663313ce5676040518163ffffffff1660e01b8152600401602060405180830381865afa158015611892573d5f803e3d5ffd5b505050506040513d601f19601f820116820180604052508101906118b69190617475565b90506118c482826012612cd4565b9150819250505090565b60d15f9054906101000a900467ffffffffffffffff1681565b6118ef612c56565b6118f7612d3a565b565b60e05f9054906101000a900473ffffffffffffffffffffffffffffffffffffffff1681565b611926612c56565b5f73ffffffffffffffffffffffffffffffffffffffff168173ffffffffffffffffffffffffffffffffffffffff1603611994576040517f08c379a000000000000000000000000000000000000000000000000000000000815260040161198b90617510565b60405180910390fd5b8060d65f6101000a81548173ffffffffffffffffffffffffffffffffffffffff021916908373ffffffffffffffffffffffffffffffffffffffff16021790555050565b60ca60149054906101000a900461ffff1681565b5f60985f9054906101000a900460ff16905090565b60dc5f9054906101000a900473ffffffffffffffffffffffffffffffffffffffff1681565b60e3602052815f5260405f20602052805f5260405f205f915091509054906101000a900462ffffff1681565b611a59612c56565b8060cd5f6101000a81548173ffffffffffffffffffffffffffffffffffffffff021916908373ffffffffffffffffffffffffffffffffffffffff16021790555050565b611aa4612c56565b611aad5f612d9b565b565b60df5f9054906101000a900473ffffffffffffffffffffffffffffffffffffffff1681565b60ca5f9054906101000a900473ffffffffffffffffffffffffffffffffffffffff1681565b5f8073ffffffffffffffffffffffffffffffffffffffff168673ffffffffffffffffffffffffffffffffffffffff1603611b68576040517f08c379a0000000000000000000000000000000000000000000000000000000008152600401611b5f90617578565b60405180910390fd5b5f73ffffffffffffffffffffffffffffffffffffffff168573ffffffffffffffffffffffffffffffffffffffff1603611bd6576040517f08c379a0000000000000000000000000000000000000000000000000000000008152600401611bcd906175e0565b60405180910390fd5b5f8411611c18576040517f08c379a0000000000000000000000000000000000000000000000000000000008152600401611c0f90617648565b60405180910390fd5b5f73ffffffffffffffffffffffffffffffffffffffff168373ffffffffffffffffffffffffffffffffffffffff1603611c86576040517f08c379a0000000000000000000000000000000000000000000000000000000008152600401611c7d906176b0565b60405180910390fd5b611cd760dd5f9054906101000a900473ffffffffffffffffffffffffffffffffffffffff1660df5f9054906101000a900473ffffffffffffffffffffffffffffffffffffffff168489898989612e5e565b905095945050505050565b60e6602052815f5260405f20602052805f5260405f205f9150915050805f0154908060010154905082565b611d15612c56565b611d1d612fba565b565b5f60029054906101000a900473ffffffffffffffffffffffffffffffffffffffff1673ffffffffffffffffffffffffffffffffffffffff163373ffffffffffffffffffffffffffffffffffffffff1614611db057336040517fd7f73334000000000000000000000000000000000000000000000000000000008152600401611da7919061631d565b60405180910390fd5b611dc281611dbd906178c4565b61301c565b50565b5f60335f9054906101000a900473ffffffffffffffffffffffffffffffffffffffff16905090565b60e9602052805f5260405f205f915090505481565b60e7602052805f5260405f205f915090505481565b60cf5f9054906101000a900460ff1681565b60cc602052805f5260405f205f91509050805f015f9054906101000a900467ffffffffffffffff1690805f0160089054906101000a900473ffffffffffffffffffffffffffffffffffffffff1690806001018054611e8690617903565b80601f0160208091040260200160405190810160405280929190818152602001828054611eb290617903565b8015611efd5780601f10611ed457610100808354040283529160200191611efd565b820191905f5260205f20905b815481529060010190602001808311611ee057829003601f168201915b505050505090806002015f9054906101000a900473ffffffffffffffffffffffffffffffffffffffff16908060030154905085565b60d88054611f3f90617903565b80601f0160208091040260200160405190810160405280929190818152602001828054611f6b90617903565b8015611fb65780601f10611f8d57610100808354040283529160200191611fb6565b820191905f5260205f20905b815481529060010190602001808311611f9957829003601f168201915b505050505081565b60d55f9054906101000a900473ffffffffffffffffffffffffffffffffffffffff1681565b5f8060029054906101000a900473ffffffffffffffffffffffffffffffffffffffff16905090565b60d45f9054906101000a900473ffffffffffffffffffffffffffffffffffffffff1681565b612038612c56565b5f73ffffffffffffffffffffffffffffffffffffffff168173ffffffffffffffffffffffffffffffffffffffff16036120a6576040517f08c379a000000000000000000000000000000000000000000000000000000000815260040161209d906179a3565b60405180910390fd5b8060655f6101000a81548173ffffffffffffffffffffffffffffffffffffffff021916908373ffffffffffffffffffffffffffffffffffffffff16021790555050565b60dd5f9054906101000a900473ffffffffffffffffffffffffffffffffffffffff1681565b5f808567ffffffffffffffff161161215b576040517f08c379a000000000000000000000000000000000000000000000000000000000815260040161215290617a31565b60405180910390fd5b5f73ffffffffffffffffffffffffffffffffffffffff168473ffffffffffffffffffffffffffffffffffffffff16036121c9576040517f08c379a00000000000000000000000000000000000000000000000000000000081526004016121c090617a99565b60405180910390fd5b5f83511161220c576040517f08c379a000000000000000000000000000000000000000000000000000000000815260040161220390617b01565b60405180910390fd5b5f6040518060a0016040528086604051602001612229919061631d565b60405160208183030381529060405281526020018581526020015f67ffffffffffffffff81111561225d5761225c616ab4565b5b60405190808252806020026020018201604052801561229657816020015b6122836160f1565b81526020019060019003908161227b5790505b5081526020016001808111156122af576122ae617b1f565b5b8560018111156122c2576122c1617b1f565b5b146122cd575f6122f0565b60ca5f9054906101000a900473ffffffffffffffffffffffffffffffffffffffff165b73ffffffffffffffffffffffffffffffffffffffff1681526020016123256040518060200160405280620dbba0815250613226565b81525090505f8060029054906101000a900473ffffffffffffffffffffffffffffffffffffffff1673ffffffffffffffffffffffffffffffffffffffff166320487ded88846040518363ffffffff1660e01b8152600401612387929190617d19565b602060405180830381865afa1580156123a2573d5f803e3d5ffd5b505050506040513d601f19601f820116820180604052508101906123c69190617d47565b90505f6001808111156123dc576123db617b1f565b5b8560018111156123ef576123ee617b1f565b5b03612497575f60029054906101000a900473ffffffffffffffffffffffffffffffffffffffff1673ffffffffffffffffffffffffffffffffffffffff166396f4e9f989856040518363ffffffff1660e01b8152600401612450929190617d19565b6020604051808303815f875af115801561246c573d5f803e3d5ffd5b505050506040513d601f19601f820116820180604052508101906124909190617d86565b9050612538565b5f60029054906101000a900473ffffffffffffffffffffffffffffffffffffffff1673ffffffffffffffffffffffffffffffffffffffff166396f4e9f9838a866040518463ffffffff1660e01b81526004016124f4929190617d19565b60206040518083038185885af1158015612510573d5f803e3d5ffd5b50505050506040513d601f19601f820116820180604052508101906125359190617d86565b90505b7f54791b38f3859327992a1ca0590ad3c0f08feba98d1a4f56ab0dca74d203392a8160405161256791906165d3565b60405180910390a1809350505050949350505050565b60da602052805f5260405f205f915054906101000a900460ff1681565b5f670de0b6b3a76400006125ac611791565b836125b79190617dde565b6125c19190617e4c565b9050919050565b60e15f9054906101000a900473ffffffffffffffffffffffffffffffffffffffff1681565b60cb81815481106125fc575f80fd5b905f5260205f20015f915090505481565b60655f9054906101000a900473ffffffffffffffffffffffffffffffffffffffff1681565b5f80831115612808575f8262ffffff16111561265b5761265485858585612816565b9050612807565b5f600267ffffffffffffffff81111561267757612676616ab4565b5b6040519080825280602002602001820160405280156126a55781602001602082028036833780820191505090505b50905085815f815181106126bc576126bb617e7c565b5b602002602001019073ffffffffffffffffffffffffffffffffffffffff16908173ffffffffffffffffffffffffffffffffffffffff1681525050848160018151811061270b5761270a617e7c565b5b602002602001019073ffffffffffffffffffffffffffffffffffffffff16908173ffffffffffffffffffffffffffffffffffffffff16815250505f60df5f9054906101000a900473ffffffffffffffffffffffffffffffffffffffff1673ffffffffffffffffffffffffffffffffffffffff1663d06ca61f86846040518363ffffffff1660e01b81526004016127a2929190617f51565b5f60405180830381865afa1580156127bc573d5f803e3d5ffd5b505050506040513d5f823e3d601f19601f820116820180604052508101906127e4919061803f565b9050806001815181106127fa576127f9617e7c565b5b6020026020010151925050505b5b949350505050565b60ce5481565b5f60d65f9054906101000a900473ffffffffffffffffffffffffffffffffffffffff1673ffffffffffffffffffffffffffffffffffffffff1663bb5705b360de5f9054906101000a900473ffffffffffffffffffffffffffffffffffffffff16878787876040518663ffffffff1660e01b815260040161289a959493929190618095565b602060405180830381865afa1580156128b5573d5f803e3d5ffd5b505050506040513d601f19601f820116820180604052508101906128d99190617d47565b9050949350505050565b6128eb612c56565b8160e25f8567ffffffffffffffff1667ffffffffffffffff1681526020019081526020015f205f6101000a81548173ffffffffffffffffffffffffffffffffffffffff021916908373ffffffffffffffffffffffffffffffffffffffff1602179055508060e35f8567ffffffffffffffff1667ffffffffffffffff1681526020019081526020015f205f8473ffffffffffffffffffffffffffffffffffffffff1673ffffffffffffffffffffffffffffffffffffffff1681526020019081526020015f205f6101000a81548162ffffff021916908362ffffff160217905550505050565b5f73ffffffffffffffffffffffffffffffffffffffff168173ffffffffffffffffffffffffffffffffffffffff1603612a3d576040517f08c379a0000000000000000000000000000000000000000000000000000000008152600401612a34906179a3565b60405180910390fd5b60655f9054906101000a900473ffffffffffffffffffffffffffffffffffffffff1673ffffffffffffffffffffffffffffffffffffffff168173ffffffffffffffffffffffffffffffffffffffff1614612acc576040517f08c379a0000000000000000000000000000000000000000000000000000000008152600401612ac390618156565b60405180910390fd5b3373ffffffffffffffffffffffffffffffffffffffff168173ffffffffffffffffffffffffffffffffffffffff1614612b3a576040517f08c379a0000000000000000000000000000000000000000000000000000000008152600401612b31906181e4565b60405180910390fd5b612b4381612d9b565b50565b60cd5f9054906101000a900473ffffffffffffffffffffffffffffffffffffffff1681565b60e55f9054906101000a900467ffffffffffffffff1681565b5f808273ffffffffffffffffffffffffffffffffffffffff163b119050919050565b5f60019054906101000a900460ff16612bf4576040517f08c379a0000000000000000000000000000000000000000000000000000000008152600401612beb90618272565b60405180910390fd5b612bfc6132a5565b565b5f60019054906101000a900460ff16612c4c576040517f08c379a0000000000000000000000000000000000000000000000000000000008152600401612c4390618272565b60405180910390fd5b612c54613305565b565b612c5e61336e565b73ffffffffffffffffffffffffffffffffffffffff16612c7c611dc5565b73ffffffffffffffffffffffffffffffffffffffff1614612cd2576040517f08c379a0000000000000000000000000000000000000000000000000000000008152600401612cc9906182da565b60405180910390fd5b565b5f8260ff168260ff161115612d0d578282612cef91906182f8565b600a612cfb919061845b565b84612d0691906184a5565b9050612d33565b8183612d1991906182f8565b600a612d25919061845b565b84612d3091906184a5565b90505b9392505050565b612d42613375565b5f60985f6101000a81548160ff0219169083151502179055507f5db9ee0a495bf2e6ff9c91a7834c1ba4fdd244a5e8aa4e537bd38aeae4b073aa612d8461336e565b604051612d91919061631d565b60405180910390a1565b5f60335f9054906101000a900473ffffffffffffffffffffffffffffffffffffffff1690508160335f6101000a81548173ffffffffffffffffffffffffffffffffffffffff021916908373ffffffffffffffffffffffffffffffffffffffff1602179055508173ffffffffffffffffffffffffffffffffffffffff168173ffffffffffffffffffffffffffffffffffffffff167f8be0079c531659141344cd1fd0a4f28419497f9722a3daafe3b4186f6b6457e060405160405180910390a35050565b5f8073ffffffffffffffffffffffffffffffffffffffff168573ffffffffffffffffffffffffffffffffffffffff1603612ecd576040517f08c379a0000000000000000000000000000000000000000000000000000000008152600401612ec490617578565b60405180910390fd5b5f73ffffffffffffffffffffffffffffffffffffffff168473ffffffffffffffffffffffffffffffffffffffff1603612f3b576040517f08c379a0000000000000000000000000000000000000000000000000000000008152600401612f32906175e0565b60405180910390fd5b5f8311612f7d576040517f08c379a0000000000000000000000000000000000000000000000000000000008152600401612f7490617648565b60405180910390fd5b5f8662ffffff161115612f9f57612f988887878787876133be565b9050612faf565b612fac8786868686613568565b90505b979650505050505050565b612fc26137e6565b600160985f6101000a81548160ff0219169083151502179055507f62e78cea01bee320cd4e420270b5ea74000d11b0c9f74754ebdbfc544b05a25861300561336e565b604051613012919061631d565b60405180910390a1565b5f816020015190505f826040015180602001905181019061303d919061852f565b90505f805f805f805f808a6060015180602001905181019061305f919061862e565b975097509750975097509750975097505f8803613094575f8b60800151905061308e818988878f8f8989613830565b50613219565b600188036130af576130aa8786858d8d86613f06565b613218565b600288036130c9576130c48786858d8d6145e4565b613217565b6003880361313e576131396040518061012001604052808981526020018881526020018781526020018681526020018481526020018c67ffffffffffffffff1681526020018b73ffffffffffffffffffffffffffffffffffffffff168152602001858152602001838152506149b1565b613216565b60048803613215575f8b6080015190506132136040518061016001604052808a8152602001898152602001888152602001878152602001858152602001835f8151811061318e5761318d617e7c565b5b60200260200101515f015173ffffffffffffffffffffffffffffffffffffffff168152602001835f815181106131c7576131c6617e7c565b5b60200260200101516020015181526020018d67ffffffffffffffff1681526020018c73ffffffffffffffffffffffffffffffffffffffff16815260200186815260200184815250614d5e565b505b5b5b5b5b5050505050505050505050565b60606397a657c960e01b8260405160240161324191906187a1565b604051602081830303815290604052907bffffffffffffffffffffffffffffffffffffffffffffffffffffffff19166020820180517bffffffffffffffffffffffffffffffffffffffffffffffffffffffff83818316178352505050509050919050565b5f60019054906101000a900460ff166132f3576040517f08c379a00000000000000000000000000000000000000000000000000000000081526004016132ea90618272565b60405180910390fd5b6133036132fe61336e565b612d9b565b565b5f60019054906101000a900460ff16613353576040517f08c379a000000000000000000000000000000000000000000000000000000000815260040161334a90618272565b60405180910390fd5b5f60985f6101000a81548160ff021916908315150217905550565b5f33905090565b61337d6119eb565b6133bc576040517f08c379a00000000000000000000000000000000000000000000000000000000081526004016133b390618804565b60405180910390fd5b565b5f8473ffffffffffffffffffffffffffffffffffffffff1663095ea7b388856040518363ffffffff1660e01b81526004016133fa929190617280565b6020604051808303815f875af1158015613416573d5f803e3d5ffd5b505050506040513d601f19601f8201168201806040525081019061343a91906172d1565b505f6040518061010001604052808773ffffffffffffffffffffffffffffffffffffffff1681526020018673ffffffffffffffffffffffffffffffffffffffff1681526020018862ffffff1681526020018473ffffffffffffffffffffffffffffffffffffffff16815260200161012c426134b59190618822565b81526020018581526020015f81526020015f73ffffffffffffffffffffffffffffffffffffffff1681525090508773ffffffffffffffffffffffffffffffffffffffff1663414bf389826040518263ffffffff1660e01b815260040161351b9190618913565b6020604051808303815f875af1158015613537573d5f803e3d5ffd5b505050506040513d601f19601f8201168201806040525081019061355b9190617d47565b9150509695505050505050565b5f80600267ffffffffffffffff81111561358557613584616ab4565b5b6040519080825280602002602001820160405280156135b35781602001602082028036833780820191505090505b50905085815f815181106135ca576135c9617e7c565b5b602002602001019073ffffffffffffffffffffffffffffffffffffffff16908173ffffffffffffffffffffffffffffffffffffffff1681525050848160018151811061361957613618617e7c565b5b602002602001019073ffffffffffffffffffffffffffffffffffffffff16908173ffffffffffffffffffffffffffffffffffffffff16815250505f8773ffffffffffffffffffffffffffffffffffffffff1663d06ca61f86846040518363ffffffff1660e01b815260040161368f929190617f51565b5f60405180830381865afa1580156136a9573d5f803e3d5ffd5b505050506040513d5f823e3d601f19601f820116820180604052508101906136d1919061803f565b90508673ffffffffffffffffffffffffffffffffffffffff1663095ea7b389876040518363ffffffff1660e01b815260040161370e929190617280565b6020604051808303815f875af115801561372a573d5f803e3d5ffd5b505050506040513d601f19601f8201168201806040525081019061374e91906172d1565b508773ffffffffffffffffffffffffffffffffffffffff16635c11d795865f8588426040518663ffffffff1660e01b8152600401613790959493929190618966565b5f604051808303815f87803b1580156137a7575f80fd5b505af11580156137b9573d5f803e3d5ffd5b50505050806001815181106137d1576137d0617e7c565b5b60200260200101519250505095945050505050565b6137ee6119eb565b1561382e576040517f08c379a000000000000000000000000000000000000000000000000000000000815260040161382590618a08565b60405180910390fd5b565b61383861611f565b61392c895f8151811061384e5761384d617e7c565b5b60200260200101515f015160e05f9054906101000a900473ffffffffffffffffffffffffffffffffffffffff168b5f8151811061388e5761388d617e7c565b5b6020026020010151602001513060e35f8b67ffffffffffffffff1667ffffffffffffffff1681526020019081526020015f205f8f5f815181106138d4576138d3617e7c565b5b60200260200101515f015173ffffffffffffffffffffffffffffffffffffffff1673ffffffffffffffffffffffffffffffffffffffff1681526020019081526020015f205f9054906101000a900462ffffff16611af9565b815f018181525050875167ffffffffffffffff81111561394f5761394e616ab4565b5b60405190808252806020026020018201604052801561397d5781602001602082028036833780820191505090505b508160200181905250875167ffffffffffffffff8111156139a1576139a0616ab4565b5b6040519080825280602002602001820160405280156139cf5781602001602082028036833780820191505090505b5081604001819052505f5b8851811015613e14575f835f815181106139f7576139f6617e7c565b5b6020026020010151858381518110613a1257613a11617e7c565b5b6020026020010151845f0151613a289190617dde565b613a329190617e4c565b90505f60e05f9054906101000a900473ffffffffffffffffffffffffffffffffffffffff1673ffffffffffffffffffffffffffffffffffffffff168b8481518110613a8057613a7f617e7c565b5b602002602001015173ffffffffffffffffffffffffffffffffffffffff1603613c1b578a8381518110613ab657613ab5617e7c565b5b602002602001015173ffffffffffffffffffffffffffffffffffffffff166370a0823160cd5f9054906101000a900473ffffffffffffffffffffffffffffffffffffffff166040518263ffffffff1660e01b8152600401613b17919061631d565b602060405180830381865afa158015613b32573d5f803e3d5ffd5b505050506040513d601f19601f82011682018060405250810190613b569190617d47565b905060e05f9054906101000a900473ffffffffffffffffffffffffffffffffffffffff1673ffffffffffffffffffffffffffffffffffffffff1663a9059cbb60cd5f9054906101000a900473ffffffffffffffffffffffffffffffffffffffff16846040518363ffffffff1660e01b8152600401613bd5929190617280565b6020604051808303815f875af1158015613bf1573d5f803e3d5ffd5b505050506040513d601f19601f82011682018060405250810190613c1591906172d1565b50613d9d565b613d168b8481518110613c3157613c30617e7c565b5b602002602001015160e05f9054906101000a900473ffffffffffffffffffffffffffffffffffffffff168d8681518110613c6e57613c6d617e7c565b5b602002602001015173ffffffffffffffffffffffffffffffffffffffff166370a0823160cd5f9054906101000a900473ffffffffffffffffffffffffffffffffffffffff166040518263ffffffff1660e01b8152600401613ccf919061631d565b602060405180830381865afa158015613cea573d5f803e3d5ffd5b505050506040513d601f19601f82011682018060405250810190613d0e9190617d47565b610bb8612632565b9050613d9b60e05f9054906101000a900473ffffffffffffffffffffffffffffffffffffffff168c8581518110613d5057613d4f617e7c565b5b60200260200101518460cd5f9054906101000a900473ffffffffffffffffffffffffffffffffffffffff168e8881518110613d8e57613d8d617e7c565b5b6020026020010151611af9565b505b5f8282613daa9190618822565b9050613db58261259a565b85602001518581518110613dcc57613dcb617e7c565b5b602002602001018181525050613de18161259a565b85604001518581518110613df857613df7617e7c565b5b60200260200101818152505050505080806001019150506139da565b505f885f67ffffffffffffffff811115613e3157613e30616ab4565b5b604051908082528060200260200182016040528015613e5f5781602001602082028036833780820191505090505b508884602001518560400151604051602001613e8096959493929190618afe565b60405160208183030381529060405281606001819052505f613ea986868460600151600161210e565b90508060e95f8981526020019081526020015f208190555086817f7513d57665f5bbb438203d2f2a896f1f0791e1e8cd0e2d76d7bc421bfb4f49aa42604051613ef29190616201565b60405180910390a350505050505050505050565b5f805f90505b875181101561427b575f670de0b6b3a7640000898381518110613f3257613f31617e7c565b5b602002602001015173ffffffffffffffffffffffffffffffffffffffff166370a0823160cd5f9054906101000a900473ffffffffffffffffffffffffffffffffffffffff166040518263ffffffff1660e01b8152600401613f93919061631d565b602060405180830381865afa158015613fae573d5f803e3d5ffd5b505050506040513d601f19601f82011682018060405250810190613fd29190617d47565b855f81518110613fe557613fe4617e7c565b5b6020026020010151613ff79190617dde565b6140019190617e4c565b905060e05f9054906101000a900473ffffffffffffffffffffffffffffffffffffffff1673ffffffffffffffffffffffffffffffffffffffff1689838151811061404e5761404d617e7c565b5b602002602001015173ffffffffffffffffffffffffffffffffffffffff16036141445760cd5f9054906101000a900473ffffffffffffffffffffffffffffffffffffffff1673ffffffffffffffffffffffffffffffffffffffff16631c20fadd60e05f9054906101000a900473ffffffffffffffffffffffffffffffffffffffff1630846040518463ffffffff1660e01b81526004016140f093929190618b79565b6020604051808303815f875af115801561410c573d5f803e3d5ffd5b505050506040513d601f19601f8201168201806040525081019061413091906172d1565b50808361413d9190618822565b925061426d565b60cd5f9054906101000a900473ffffffffffffffffffffffffffffffffffffffff1673ffffffffffffffffffffffffffffffffffffffff16631c20fadd8a848151811061419457614193617e7c565b5b602002602001015130846040518463ffffffff1660e01b81526004016141bc93929190618b79565b6020604051808303815f875af11580156141d8573d5f803e3d5ffd5b505050506040513d601f19601f820116820180604052508101906141fc91906172d1565b5061425f89838151811061421357614212617e7c565b5b602002602001015160e05f9054906101000a900473ffffffffffffffffffffffffffffffffffffffff1683308c878151811061425257614251617e7c565b5b6020026020010151611af9565b8361426a9190618822565b92505b508080600101915050613f0c565b505f6143a160e05f9054906101000a900473ffffffffffffffffffffffffffffffffffffffff1660e25f8867ffffffffffffffff1667ffffffffffffffff1681526020019081526020015f205f9054906101000a900473ffffffffffffffffffffffffffffffffffffffff16843060e35f8b67ffffffffffffffff1667ffffffffffffffff1681526020019081526020015f205f60e25f8d67ffffffffffffffff1667ffffffffffffffff1681526020019081526020015f205f9054906101000a900473ffffffffffffffffffffffffffffffffffffffff1673ffffffffffffffffffffffffffffffffffffffff1673ffffffffffffffffffffffffffffffffffffffff1681526020019081526020015f205f9054906101000a900462ffffff16611af9565b90505f600167ffffffffffffffff8111156143bf576143be616ab4565b5b6040519080825280602002602001820160405280156143f857816020015b6143e56160f1565b8152602001906001900390816143dd5790505b50905060e25f8767ffffffffffffffff1667ffffffffffffffff1681526020019081526020015f205f9054906101000a900473ffffffffffffffffffffffffffffffffffffffff16815f8151811061445357614452617e7c565b5b60200260200101515f019073ffffffffffffffffffffffffffffffffffffffff16908173ffffffffffffffffffffffffffffffffffffffff168152505081815f815181106144a4576144a3617e7c565b5b602002602001015160200181815250505f8067ffffffffffffffff8111156144cf576144ce616ab4565b5b6040519080825280602002602001820160405280156144fd5781602001602082028036833780820191505090505b5090505f60018b5f67ffffffffffffffff81111561451e5761451d616ab4565b5b60405190808252806020026020018201604052801561454c5781602001602082028036833780820191505090505b508b858660405160200161456596959493929190618bae565b60405160208183030381529060405290505f61458589838a876001614ee5565b90508060e85f8c81526020019081526020015f208190555089817f2c80cd3884ced9a087f5eed6c8ddd78af4b449cdea210b92786f35bd496f5343426040516145ce9190616201565b60405180910390a3505050505050505050505050565b5f8067ffffffffffffffff8111156145ff576145fe616ab4565b5b60405190808252806020026020018201604052801561462d5781602001602082028036833780820191505090505b5090505f865167ffffffffffffffff81111561464c5761464b616ab4565b5b60405190808252806020026020018201604052801561467a5781602001602082028036833780820191505090505b5090505f5b87518110156149225760e05f9054906101000a900473ffffffffffffffffffffffffffffffffffffffff1673ffffffffffffffffffffffffffffffffffffffff168882815181106146d3576146d2617e7c565b5b602002602001015173ffffffffffffffffffffffffffffffffffffffff16036147d5576147b188828151811061470c5761470b617e7c565b5b602002602001015173ffffffffffffffffffffffffffffffffffffffff166370a0823160cd5f9054906101000a900473ffffffffffffffffffffffffffffffffffffffff166040518263ffffffff1660e01b815260040161476d919061631d565b602060405180830381865afa158015614788573d5f803e3d5ffd5b505050506040513d601f19601f820116820180604052508101906147ac9190617d47565b61259a565b8282815181106147c4576147c3617e7c565b5b602002602001018181525050614915565b5f6148e98983815181106147ec576147eb617e7c565b5b602002602001015160e05f9054906101000a900473ffffffffffffffffffffffffffffffffffffffff168b858151811061482957614828617e7c565b5b602002602001015173ffffffffffffffffffffffffffffffffffffffff166370a0823160cd5f9054906101000a900473ffffffffffffffffffffffffffffffffffffffff166040518263ffffffff1660e01b815260040161488a919061631d565b602060405180830381865afa1580156148a5573d5f803e3d5ffd5b505050506040513d601f19601f820116820180604052508101906148c99190617d47565b8b86815181106148dc576148db617e7c565b5b6020026020010151612632565b90506148f48161259a565b83838151811061490757614906617e7c565b5b602002602001018181525050505b808060010191505061467f565b505f6002885f67ffffffffffffffff81111561494157614940616ab4565b5b60405190808252806020026020018201604052801561496f5781602001602082028036833780820191505090505b5088858760405160200161498896959493929190618c62565b60405160208183030381529060405290506149a6858583600161210e565b505050505050505050565b6149b9616146565b815f015151815f0181815250508161010001515f815181106149de576149dd617e7c565b5b6020026020010151816020018181525050816101000151600181518110614a0857614a07617e7c565b5b6020026020010151816040018181525050816101000151600281518110614a3257614a31617e7c565b5b60200260200101518160800181815250505f614a6f82845f015185602001518660400151876060015188608001518960c001518a60e001516153c2565b90505f614ba260e05f9054906101000a900473ffffffffffffffffffffffffffffffffffffffff1660e25f8760a0015167ffffffffffffffff1667ffffffffffffffff1681526020019081526020015f205f9054906101000a900473ffffffffffffffffffffffffffffffffffffffff16843060e35f8a60a0015167ffffffffffffffff1667ffffffffffffffff1681526020019081526020015f205f60e25f8c60a0015167ffffffffffffffff1667ffffffffffffffff1681526020019081526020015f205f9054906101000a900473ffffffffffffffffffffffffffffffffffffffff1673ffffffffffffffffffffffffffffffffffffffff1673ffffffffffffffffffffffffffffffffffffffff1681526020019081526020015f205f9054906101000a900462ffffff16611af9565b90505f600167ffffffffffffffff811115614bc057614bbf616ab4565b5b604051908082528060200260200182016040528015614bf957816020015b614be66160f1565b815260200190600190039081614bde5790505b50905060e25f8660a0015167ffffffffffffffff1667ffffffffffffffff1681526020019081526020015f205f9054906101000a900473ffffffffffffffffffffffffffffffffffffffff16815f81518110614c5857614c57617e7c565b5b60200260200101515f019073ffffffffffffffffffffffffffffffffffffffff16908173ffffffffffffffffffffffffffffffffffffffff168152505081815f81518110614ca957614ca8617e7c565b5b602002602001015160200181815250505f8067ffffffffffffffff811115614cd457614cd3616ab4565b5b604051908082528060200260200182016040528015614d025781602001602082028036833780820191505090505b5090505f6003875f015188602001518960e001518586604051602001614d2d96959493929190618d16565b6040516020818303038152906040529050614d548760a00151828960c00151866001614ee5565b5050505050505050565b5f614d978260a0015160e05f9054906101000a900473ffffffffffffffffffffffffffffffffffffffff168460c0015130610bb8611af9565b9050614dc0825f0151836020015184604001518560600151866080015186886101400151615aab565b5f600167ffffffffffffffff811115614ddc57614ddb616ab4565b5b604051908082528060200260200182016040528015614e0a5781602001602082028036833780820191505090505b5090505f600167ffffffffffffffff811115614e2957614e28616ab4565b5b604051908082528060200260200182016040528015614e575781602001602082028036833780820191505090505b5090505f600482838761012001518687604051602001614e7c96959493929190618dca565b604051602081830303815290604052905084610120015160ea8190555084610100015160eb5f6101000a81548173ffffffffffffffffffffffffffffffffffffffff021916908373ffffffffffffffffffffffffffffffffffffffff1602179055505050505050565b5f808351905060ca60149054906101000a900461ffff1661ffff16811115614f42576040517f08c379a0000000000000000000000000000000000000000000000000000000008152600401614f3990618eb5565b60405180910390fd5b5f5b818110156150a15760ca5f9054906101000a900473ffffffffffffffffffffffffffffffffffffffff1673ffffffffffffffffffffffffffffffffffffffff16858281518110614f9757614f96617e7c565b5b60200260200101515f015173ffffffffffffffffffffffffffffffffffffffff161461509657848181518110614fd057614fcf617e7c565b5b60200260200101515f015173ffffffffffffffffffffffffffffffffffffffff1663095ea7b35f60029054906101000a900473ffffffffffffffffffffffffffffffffffffffff1687848151811061502b5761502a617e7c565b5b6020026020010151602001516040518363ffffffff1660e01b8152600401615054929190617280565b6020604051808303815f875af1158015615070573d5f803e3d5ffd5b505050506040513d601f19601f8201168201806040525081019061509491906172d1565b505b806001019050614f44565b505f6040518060a00160405280876040516020016150bf919061631d565b60405160208183030381529060405281526020018881526020018681526020016001808111156150f2576150f1617b1f565b5b86600181111561510557615104617b1f565b5b14615110575f615133565b60ca5f9054906101000a900473ffffffffffffffffffffffffffffffffffffffff165b73ffffffffffffffffffffffffffffffffffffffff1681526020016151686040518060200160405280620dbba0815250613226565b81525090505f8060029054906101000a900473ffffffffffffffffffffffffffffffffffffffff1673ffffffffffffffffffffffffffffffffffffffff166320487ded8a846040518363ffffffff1660e01b81526004016151ca929190617d19565b602060405180830381865afa1580156151e5573d5f803e3d5ffd5b505050506040513d601f19601f820116820180604052508101906152099190617d47565b90505f60018081111561521f5761521e617b1f565b5b86600181111561523257615231617b1f565b5b036152da575f60029054906101000a900473ffffffffffffffffffffffffffffffffffffffff1673ffffffffffffffffffffffffffffffffffffffff166396f4e9f98b856040518363ffffffff1660e01b8152600401615293929190617d19565b6020604051808303815f875af11580156152af573d5f803e3d5ffd5b505050506040513d601f19601f820116820180604052508101906152d39190617d86565b905061537b565b5f60029054906101000a900473ffffffffffffffffffffffffffffffffffffffff1673ffffffffffffffffffffffffffffffffffffffff166396f4e9f9838c866040518463ffffffff1660e01b8152600401615337929190617d19565b60206040518083038185885af1158015615353573d5f803e3d5ffd5b50505050506040513d601f19601f820116820180604052508101906153789190617d86565b90505b7f54791b38f3859327992a1ca0590ad3c0f08feba98d1a4f56ab0dca74d203392a816040516153aa91906165d3565b60405180910390a18094505050505095945050505050565b5f6153cb616170565b60e05f9054906101000a900473ffffffffffffffffffffffffffffffffffffffff1673ffffffffffffffffffffffffffffffffffffffff166370a0823160cd5f9054906101000a900473ffffffffffffffffffffffffffffffffffffffff166040518263ffffffff1660e01b8152600401615446919061631d565b602060405180830381865afa158015615461573d5f803e3d5ffd5b505050506040513d601f19601f820116820180604052508101906154859190617d47565b8160a00181815250505f5b89518110156157d4575f60e05f9054906101000a900473ffffffffffffffffffffffffffffffffffffffff1673ffffffffffffffffffffffffffffffffffffffff168b83815181106154e5576154e4617e7c565b5b602002602001015173ffffffffffffffffffffffffffffffffffffffff16036155d85760cd5f9054906101000a900473ffffffffffffffffffffffffffffffffffffffff1673ffffffffffffffffffffffffffffffffffffffff16631c20fadd60e05f9054906101000a900473ffffffffffffffffffffffffffffffffffffffff16308660a001516040518463ffffffff1660e01b815260040161558b93929190618b79565b6020604051808303815f875af11580156155a7573d5f803e3d5ffd5b505050506040513d601f19601f820116820180604052508101906155cb91906172d1565b508260a0015190506157ad565b5f8b83815181106155ec576155eb617e7c565b5b602002602001015173ffffffffffffffffffffffffffffffffffffffff166370a0823160cd5f9054906101000a900473ffffffffffffffffffffffffffffffffffffffff166040518263ffffffff1660e01b815260040161564d919061631d565b602060405180830381865afa158015615668573d5f803e3d5ffd5b505050506040513d601f19601f8201168201806040525081019061568c9190617d47565b905060cd5f9054906101000a900473ffffffffffffffffffffffffffffffffffffffff1673ffffffffffffffffffffffffffffffffffffffff16631c20fadd8d85815181106156de576156dd617e7c565b5b602002602001015130846040518463ffffffff1660e01b815260040161570693929190618b79565b6020604051808303815f875af1158015615722573d5f803e3d5ffd5b505050506040513d601f19601f8201168201806040525081019061574691906172d1565b506157a98c848151811061575d5761575c617e7c565b5b602002602001015160e05f9054906101000a900473ffffffffffffffffffffffffffffffffffffffff1683308e888151811061579c5761579b617e7c565b5b6020026020010151611af9565b9150505b80836060018181516157bf9190618822565b91508181525050508080600101915050615490565b50896020015168056bc75e2d631000008b608001516157f39190617dde565b6157fd9190617e4c565b8160e00181815250508060e001518a60400151826060015161581f9190617dde565b6158299190617e4c565b8161010001818152505080610100015181606001516158489190618ed3565b816101200181815250505f5b8851811015615a955760e05f9054906101000a900473ffffffffffffffffffffffffffffffffffffffff1673ffffffffffffffffffffffffffffffffffffffff168982815181106158a8576158a7617e7c565b5b602002602001015173ffffffffffffffffffffffffffffffffffffffff16036159c75760e05f9054906101000a900473ffffffffffffffffffffffffffffffffffffffff1673ffffffffffffffffffffffffffffffffffffffff1663a9059cbb60cd5f9054906101000a900473ffffffffffffffffffffffffffffffffffffffff168d6040015189858151811061594257615941617e7c565b5b602002602001015186610100015161595a9190617dde565b6159649190617e4c565b6040518363ffffffff1660e01b8152600401615981929190617280565b6020604051808303815f875af115801561599d573d5f803e3d5ffd5b505050506040513d601f19601f820116820180604052508101906159c191906172d1565b50615a88565b5f615a8460e05f9054906101000a900473ffffffffffffffffffffffffffffffffffffffff168b8481518110615a00576159ff617e7c565b5b60200260200101518e604001518a8681518110615a2057615a1f617e7c565b5b6020026020010151876101000151615a389190617dde565b615a429190617e4c565b60cd5f9054906101000a900473ffffffffffffffffffffffffffffffffffffffff168c8781518110615a7757615a76617e7c565b5b6020026020010151611af9565b9050505b8080600101915050615854565b5080610120015191505098975050505050505050565b615ab36161b9565b81600181518110615ac757615ac6617e7c565b5b6020026020010151815f018181525050875181602001818152505060e05f9054906101000a900473ffffffffffffffffffffffffffffffffffffffff1673ffffffffffffffffffffffffffffffffffffffff166370a0823160cd5f9054906101000a900473ffffffffffffffffffffffffffffffffffffffff166040518263ffffffff1660e01b8152600401615b5d919061631d565b602060405180830381865afa158015615b78573d5f803e3d5ffd5b505050506040513d601f19601f82011682018060405250810190615b9c9190617d47565b8160400181815250505f8160600181815250505f5b8851811015615eac575f898281518110615bce57615bcd617e7c565b5b602002602001015190505f60e05f9054906101000a900473ffffffffffffffffffffffffffffffffffffffff1673ffffffffffffffffffffffffffffffffffffffff168273ffffffffffffffffffffffffffffffffffffffff1603615cfd5760cd5f9054906101000a900473ffffffffffffffffffffffffffffffffffffffff1673ffffffffffffffffffffffffffffffffffffffff16631c20fadd60e05f9054906101000a900473ffffffffffffffffffffffffffffffffffffffff163087604001516040518463ffffffff1660e01b8152600401615cb093929190618b79565b6020604051808303815f875af1158015615ccc573d5f803e3d5ffd5b505050506040513d601f19601f82011682018060405250810190615cf091906172d1565b5083604001519050615e84565b5f8273ffffffffffffffffffffffffffffffffffffffff166370a0823160cd5f9054906101000a900473ffffffffffffffffffffffffffffffffffffffff166040518263ffffffff1660e01b8152600401615d58919061631d565b602060405180830381865afa158015615d73573d5f803e3d5ffd5b505050506040513d601f19601f82011682018060405250810190615d979190617d47565b905060cd5f9054906101000a900473ffffffffffffffffffffffffffffffffffffffff1673ffffffffffffffffffffffffffffffffffffffff16631c20fadd8430846040518463ffffffff1660e01b8152600401615df793929190618b79565b6020604051808303815f875af1158015615e13573d5f803e3d5ffd5b505050506040513d601f19601f82011682018060405250810190615e3791906172d1565b50615e808360e05f9054906101000a900473ffffffffffffffffffffffffffffffffffffffff1683308e8981518110615e7357615e72617e7c565b5b6020026020010151611af9565b9150505b8084606001818151615e969190618822565b9150818152505050508080600101915050615bb1565b50806060015183615ebd9190618822565b81608001818152505086518160a00181815250505f5b87518110156160e6575f888281518110615ef057615eef617e7c565b5b602002602001015190505f868381518110615f0e57615f0d617e7c565b5b6020026020010151905060e05f9054906101000a900473ffffffffffffffffffffffffffffffffffffffff1673ffffffffffffffffffffffffffffffffffffffff168273ffffffffffffffffffffffffffffffffffffffff160361604c5760e05f9054906101000a900473ffffffffffffffffffffffffffffffffffffffff1673ffffffffffffffffffffffffffffffffffffffff1663a9059cbb60cd5f9054906101000a900473ffffffffffffffffffffffffffffffffffffffff16865f0151848860800151615fdf9190617dde565b615fe99190617e4c565b6040518363ffffffff1660e01b8152600401616006929190617280565b6020604051808303815f875af1158015616022573d5f803e3d5ffd5b505050506040513d601f19601f8201168201806040525081019061604691906172d1565b506160d7565b5f6160d360e05f9054906101000a900473ffffffffffffffffffffffffffffffffffffffff1684875f01518589608001516160879190617dde565b6160919190617e4c565b60cd5f9054906101000a900473ffffffffffffffffffffffffffffffffffffffff168d89815181106160c6576160c5617e7c565b5b6020026020010151611af9565b9050505b50508080600101915050615ed3565b505050505050505050565b60405180604001604052805f73ffffffffffffffffffffffffffffffffffffffff1681526020015f81525090565b60405180608001604052805f81526020016060815260200160608152602001606081525090565b6040518060a001604052805f81526020015f81526020015f81526020015f81526020015f81525090565b6040518061014001604052805f81526020015f81526020015f81526020015f81526020015f81526020015f81526020015f81526020015f81526020015f81526020015f81525090565b6040518060c001604052805f81526020015f81526020015f81526020015f81526020015f81526020015f81525090565b5f819050919050565b6161fb816161e9565b82525050565b5f6020820190506162145f8301846161f2565b92915050565b5f604051905090565b5f80fd5b5f80fd5b5f7fffffffff0000000000000000000000000000000000000000000000000000000082169050919050565b61625f8161622b565b8114616269575f80fd5b50565b5f8135905061627a81616256565b92915050565b5f6020828403121561629557616294616223565b5b5f6162a28482850161626c565b91505092915050565b5f8115159050919050565b6162bf816162ab565b82525050565b5f6020820190506162d85f8301846162b6565b92915050565b5f73ffffffffffffffffffffffffffffffffffffffff82169050919050565b5f616307826162de565b9050919050565b616317816162fd565b82525050565b5f6020820190506163305f83018461630e565b92915050565b5f67ffffffffffffffff82169050919050565b61635281616336565b811461635c575f80fd5b50565b5f8135905061636d81616349565b92915050565b5f61637d826162de565b9050919050565b61638d81616373565b8114616397575f80fd5b50565b5f813590506163a881616384565b92915050565b6163b7816162fd565b81146163c1575f80fd5b50565b5f813590506163d2816163ae565b92915050565b5f805f805f805f805f6101208a8c0312156163f6576163f5616223565b5b5f6164038c828d0161635f565b99505060206164148c828d0161639a565b98505060406164258c828d016163c4565b97505060606164368c828d016163c4565b96505060806164478c828d016163c4565b95505060a06164588c828d016163c4565b94505060c06164698c828d016163c4565b93505060e061647a8c828d016163c4565b92505061010061648c8c828d016163c4565b9150509295985092959850929598565b5f602082840312156164b1576164b0616223565b5b5f6164be8482850161635f565b91505092915050565b5f819050919050565b5f6164ea6164e56164e0846162de565b6164c7565b6162de565b9050919050565b5f6164fb826164d0565b9050919050565b5f61650c826164f1565b9050919050565b61651c81616502565b82525050565b5f6020820190506165355f830184616513565b92915050565b5f602082840312156165505761654f616223565b5b5f61655d848285016163c4565b91505092915050565b61656f816161e9565b8114616579575f80fd5b50565b5f8135905061658a81616566565b92915050565b5f602082840312156165a5576165a4616223565b5b5f6165b28482850161657c565b91505092915050565b5f819050919050565b6165cd816165bb565b82525050565b5f6020820190506165e65f8301846165c4565b92915050565b6165f581616336565b82525050565b5f60208201905061660e5f8301846165ec565b92915050565b5f61661e826164f1565b9050919050565b61662e81616614565b82525050565b5f6020820190506166475f830184616625565b92915050565b5f61ffff82169050919050565b6166638161664d565b82525050565b5f60208201905061667c5f83018461665a565b92915050565b5f61668c826164f1565b9050919050565b61669c81616682565b82525050565b5f6020820190506166b55f830184616693565b92915050565b5f80604083850312156166d1576166d0616223565b5b5f6166de8582860161635f565b92505060206166ef858286016163c4565b9150509250929050565b5f62ffffff82169050919050565b616710816166f9565b82525050565b5f6020820190506167295f830184616707565b92915050565b5f6020828403121561674457616743616223565b5b5f6167518482850161639a565b91505092915050565b5f616764826164f1565b9050919050565b6167748161675a565b82525050565b5f60208201905061678d5f83018461676b565b92915050565b61679c816166f9565b81146167a6575f80fd5b50565b5f813590506167b781616793565b92915050565b5f805f805f60a086880312156167d6576167d5616223565b5b5f6167e3888289016163c4565b95505060206167f4888289016163c4565b94505060406168058882890161657c565b9350506060616816888289016163c4565b9250506080616827888289016167a9565b9150509295509295909350565b5f806040838503121561684a57616849616223565b5b5f6168578582860161657c565b9250506020616868858286016163c4565b9150509250929050565b5f6040820190506168855f8301856161f2565b61689260208301846161f2565b9392505050565b5f80fd5b5f60a082840312156168b2576168b1616899565b5b81905092915050565b5f602082840312156168d0576168cf616223565b5b5f82013567ffffffffffffffff8111156168ed576168ec616227565b5b6168f98482850161689d565b91505092915050565b5f60ff82169050919050565b61691781616902565b82525050565b5f6020820190506169305f83018461690e565b92915050565b61693f816165bb565b8114616949575f80fd5b50565b5f8135905061695a81616936565b92915050565b5f6020828403121561697557616974616223565b5b5f6169828482850161694c565b91505092915050565b5f81519050919050565b5f82825260208201905092915050565b8281835e5f83830152505050565b5f601f19601f8301169050919050565b5f6169cd8261698b565b6169d78185616995565b93506169e78185602086016169a5565b6169f0816169b3565b840191505092915050565b5f60a082019050616a0e5f8301886165ec565b616a1b602083018761630e565b8181036040830152616a2d81866169c3565b9050616a3c606083018561630e565b616a4960808301846161f2565b9695505050505050565b5f6020820190508181035f830152616a6b81846169c3565b905092915050565b5f616a7d826164f1565b9050919050565b616a8d81616a73565b82525050565b5f602082019050616aa65f830184616a84565b92915050565b5f80fd5b5f80fd5b7f4e487b71000000000000000000000000000000000000000000000000000000005f52604160045260245ffd5b616aea826169b3565b810181811067ffffffffffffffff82111715616b0957616b08616ab4565b5b80604052505050565b5f616b1b61621a565b9050616b278282616ae1565b919050565b5f67ffffffffffffffff821115616b4657616b45616ab4565b5b616b4f826169b3565b9050602081019050919050565b828183375f83830152505050565b5f616b7c616b7784616b2c565b616b12565b905082815260208101848484011115616b9857616b97616ab0565b5b616ba3848285616b5c565b509392505050565b5f82601f830112616bbf57616bbe616aac565b5b8135616bcf848260208601616b6a565b91505092915050565b60028110616be4575f80fd5b50565b5f81359050616bf581616bd8565b92915050565b5f805f8060808587031215616c1357616c12616223565b5b5f616c208782880161635f565b9450506020616c31878288016163c4565b935050604085013567ffffffffffffffff811115616c5257616c51616227565b5b616c5e87828801616bab565b9250506060616c6f87828801616be7565b91505092959194509250565b5f616c85826164f1565b9050919050565b616c9581616c7b565b82525050565b5f602082019050616cae5f830184616c8c565b92915050565b5f805f8060808587031215616ccc57616ccb616223565b5b5f616cd9878288016163c4565b9450506020616cea878288016163c4565b9350506040616cfb8782880161657c565b9250506060616d0c878288016167a9565b91505092959194509250565b5f6fffffffffffffffffffffffffffffffff82169050919050565b616d3c81616d18565b8114616d46575f80fd5b50565b5f81359050616d5781616d33565b92915050565b5f805f8060808587031215616d7557616d74616223565b5b5f616d82878288016163c4565b9450506020616d93878288016163c4565b9350506040616da487828801616d49565b9250506060616db5878288016167a9565b91505092959194509250565b5f805f60608486031215616dd857616dd7616223565b5b5f616de58682870161635f565b9350506020616df6868287016163c4565b9250506040616e07868287016167a9565b9150509250925092565b5f616e1b826164f1565b9050919050565b616e2b81616e11565b82525050565b5f602082019050616e445f830184616e22565b92915050565b7f496e697469616c697a61626c653a20636f6e747261637420697320616c7265615f8201527f647920696e697469616c697a6564000000000000000000000000000000000000602082015250565b5f616ea4602e83616995565b9150616eaf82616e4a565b604082019050919050565b5f6020820190508181035f830152616ed181616e98565b9050919050565b7f496e76616c696420636861696e2073656c6563746f72000000000000000000005f82015250565b5f616f0c601683616995565b9150616f1782616ed8565b602082019050919050565b5f6020820190508181035f830152616f3981616f00565b9050919050565b7f496e76616c6964207661756c74206164647265737300000000000000000000005f82015250565b5f616f74601583616995565b9150616f7f82616f40565b602082019050919050565b5f6020820190508181035f830152616fa181616f68565b9050919050565b7f496e76616c696420436861696e6c696e6b20746f6b656e2061646472657373005f82015250565b5f616fdc601f83616995565b9150616fe782616fa8565b602082019050919050565b5f6020820190508181035f83015261700981616fd0565b9050919050565b7f496e76616c696420726f757465722061646472657373000000000000000000005f82015250565b5f617044601683616995565b915061704f82617010565b602082019050919050565b5f6020820190508181035f83015261707181617038565b9050919050565b7f496e76616c6964205745544820616464726573730000000000000000000000005f82015250565b5f6170ac601483616995565b91506170b782617078565b602082019050919050565b5f6020820190508181035f8301526170d9816170a0565b9050919050565b7f496e76616c6964207377617020726f75746572207633206164647265737300005f82015250565b5f617114601e83616995565b915061711f826170e0565b602082019050919050565b5f6020820190508181035f83015261714181617108565b9050919050565b7f496e76616c696420666163746f727920763320616464726573730000000000005f82015250565b5f61717c601a83616995565b915061718782617148565b602082019050919050565b5f6020820190508181035f8301526171a981617170565b9050919050565b7f496e76616c6964207377617020726f75746572207632206164647265737300005f82015250565b5f6171e4601e83616995565b91506171ef826171b0565b602082019050919050565b5f6020820190508181035f830152617211816171d8565b9050919050565b7f496e76616c6964207072696365206665656420616464726573730000000000005f82015250565b5f61724c601a83616995565b915061725782617218565b602082019050919050565b5f6020820190508181035f83015261727981617240565b9050919050565b5f6040820190506172935f83018561630e565b6172a060208301846161f2565b9392505050565b6172b0816162ab565b81146172ba575f80fd5b50565b5f815190506172cb816172a7565b92915050565b5f602082840312156172e6576172e5616223565b5b5f6172f3848285016172bd565b91505092915050565b5f819050919050565b5f61731f61731a617315846172fc565b6164c7565b616902565b9050919050565b61732f81617305565b82525050565b5f6020820190506173485f830184617326565b92915050565b5f69ffffffffffffffffffff82169050919050565b61736c8161734e565b8114617376575f80fd5b50565b5f8151905061738781617363565b92915050565b5f819050919050565b61739f8161738d565b81146173a9575f80fd5b50565b5f815190506173ba81617396565b92915050565b5f815190506173ce81616566565b92915050565b5f805f805f60a086880312156173ed576173ec616223565b5b5f6173fa88828901617379565b955050602061740b888289016173ac565b945050604061741c888289016173c0565b935050606061742d888289016173c0565b925050608061743e88828901617379565b9150509295509295909350565b61745481616902565b811461745e575f80fd5b50565b5f8151905061746f8161744b565b92915050565b5f6020828403121561748a57617489616223565b5b5f61749784828501617461565b91505092915050565b7f5072696365206f7261636c6520616464726573732063616e6e6f74206265207a5f8201527f65726f2061646472657373000000000000000000000000000000000000000000602082015250565b5f6174fa602b83616995565b9150617505826174a0565b604082019050919050565b5f6020820190508181035f830152617527816174ee565b9050919050565b7f496e76616c696420746f6b656e496e20616464726573730000000000000000005f82015250565b5f617562601783616995565b915061756d8261752e565b602082019050919050565b5f6020820190508181035f83015261758f81617556565b9050919050565b7f496e76616c696420746f6b656e4f7574206164647265737300000000000000005f82015250565b5f6175ca601883616995565b91506175d582617596565b602082019050919050565b5f6020820190508181035f8301526175f7816175be565b9050919050565b7f416d6f756e74206d7573742062652067726561746572207468616e207a65726f5f82015250565b5f617632602083616995565b915061763d826175fe565b602082019050919050565b5f6020820190508181035f83015261765f81617626565b9050919050565b7f496e76616c696420726563697069656e742061646472657373000000000000005f82015250565b5f61769a601983616995565b91506176a582617666565b602082019050919050565b5f6020820190508181035f8301526176c78161768e565b9050919050565b5f80fd5b5f80fd5b5f67ffffffffffffffff8211156176f0576176ef616ab4565b5b602082029050602081019050919050565b5f80fd5b5f6040828403121561771a576177196176ce565b5b6177246040616b12565b90505f617733848285016163c4565b5f8301525060206177468482850161657c565b60208301525092915050565b5f61776461775f846176d6565b616b12565b9050808382526020820190506040840283018581111561778757617786617701565b5b835b818110156177b0578061779c8882617705565b845260208401935050604081019050617789565b5050509392505050565b5f82601f8301126177ce576177cd616aac565b5b81356177de848260208601617752565b91505092915050565b5f60a082840312156177fc576177fb6176ce565b5b61780660a0616b12565b90505f6178158482850161694c565b5f8301525060206178288482850161635f565b602083015250604082013567ffffffffffffffff81111561784c5761784b6176d2565b5b61785884828501616bab565b604083015250606082013567ffffffffffffffff81111561787c5761787b6176d2565b5b61788884828501616bab565b606083015250608082013567ffffffffffffffff8111156178ac576178ab6176d2565b5b6178b8848285016177ba565b60808301525092915050565b5f6178cf36836177e7565b9050919050565b7f4e487b71000000000000000000000000000000000000000000000000000000005f52602260045260245ffd5b5f600282049050600182168061791a57607f821691505b60208210810361792d5761792c6178d6565b5b50919050565b7f50726f706f7361626c654f776e61626c653a206e6577206f776e6572206973205f8201527f746865207a65726f206164647265737300000000000000000000000000000000602082015250565b5f61798d603083616995565b915061799882617933565b604082019050919050565b5f6020820190508181035f8301526179ba81617981565b9050919050565b7f496e76616c69642064657374696e6174696f6e20636861696e2073656c6563745f8201527f6f72000000000000000000000000000000000000000000000000000000000000602082015250565b5f617a1b602283616995565b9150617a26826179c1565b604082019050919050565b5f6020820190508181035f830152617a4881617a0f565b9050919050565b7f496e76616c6964207265636569766572206164647265737300000000000000005f82015250565b5f617a83601883616995565b9150617a8e82617a4f565b602082019050919050565b5f6020820190508181035f830152617ab081617a77565b9050919050565b7f446174612063616e6e6f7420626520656d7074790000000000000000000000005f82015250565b5f617aeb601483616995565b9150617af682617ab7565b602082019050919050565b5f6020820190508181035f830152617b1881617adf565b9050919050565b7f4e487b71000000000000000000000000000000000000000000000000000000005f52602160045260245ffd5b5f81519050919050565b5f82825260208201905092915050565b5f617b7082617b4c565b617b7a8185617b56565b9350617b8a8185602086016169a5565b617b93816169b3565b840191505092915050565b5f81519050919050565b5f82825260208201905092915050565b5f819050602082019050919050565b617bd0816162fd565b82525050565b617bdf816161e9565b82525050565b604082015f820151617bf95f850182617bc7565b506020820151617c0c6020850182617bd6565b50505050565b5f617c1d8383617be5565b60408301905092915050565b5f602082019050919050565b5f617c3f82617b9e565b617c498185617ba8565b9350617c5483617bb8565b805f5b83811015617c84578151617c6b8882617c12565b9750617c7683617c29565b925050600181019050617c57565b5085935050505092915050565b5f60a083015f8301518482035f860152617cab8282617b66565b91505060208301518482036020860152617cc58282617b66565b91505060408301518482036040860152617cdf8282617c35565b9150506060830151617cf46060860182617bc7565b5060808301518482036080860152617d0c8282617b66565b9150508091505092915050565b5f604082019050617d2c5f8301856165ec565b8181036020830152617d3e8184617c91565b90509392505050565b5f60208284031215617d5c57617d5b616223565b5b5f617d69848285016173c0565b91505092915050565b5f81519050617d8081616936565b92915050565b5f60208284031215617d9b57617d9a616223565b5b5f617da884828501617d72565b91505092915050565b7f4e487b71000000000000000000000000000000000000000000000000000000005f52601160045260245ffd5b5f617de8826161e9565b9150617df3836161e9565b9250828202617e01816161e9565b91508282048414831517617e1857617e17617db1565b5b5092915050565b7f4e487b71000000000000000000000000000000000000000000000000000000005f52601260045260245ffd5b5f617e56826161e9565b9150617e61836161e9565b925082617e7157617e70617e1f565b5b828204905092915050565b7f4e487b71000000000000000000000000000000000000000000000000000000005f52603260045260245ffd5b5f81519050919050565b5f82825260208201905092915050565b5f819050602082019050919050565b5f617edd8383617bc7565b60208301905092915050565b5f602082019050919050565b5f617eff82617ea9565b617f098185617eb3565b9350617f1483617ec3565b805f5b83811015617f44578151617f2b8882617ed2565b9750617f3683617ee9565b925050600181019050617f17565b5085935050505092915050565b5f604082019050617f645f8301856161f2565b8181036020830152617f768184617ef5565b90509392505050565b5f67ffffffffffffffff821115617f9957617f98616ab4565b5b602082029050602081019050919050565b5f617fbc617fb784617f7f565b616b12565b90508083825260208201905060208402830185811115617fdf57617fde617701565b5b835b818110156180085780617ff488826173c0565b845260208401935050602081019050617fe1565b5050509392505050565b5f82601f83011261802657618025616aac565b5b8151618036848260208601617faa565b91505092915050565b5f6020828403121561805457618053616223565b5b5f82015167ffffffffffffffff81111561807157618070616227565b5b61807d84828501618012565b91505092915050565b61808f81616d18565b82525050565b5f60a0820190506180a85f83018861630e565b6180b5602083018761630e565b6180c2604083018661630e565b6180cf6060830185618086565b6180dc6080830184616707565b9695505050505050565b7f50726f706f7361626c654f776e61626c653a206e6577206f776e6572206973205f8201527f6e6f742070726f706f736564206f776e65720000000000000000000000000000602082015250565b5f618140603283616995565b915061814b826180e6565b604082019050919050565b5f6020820190508181035f83015261816d81618134565b9050919050565b7f50726f706f7361626c654f776e61626c653a20746869732063616c6c206d75735f8201527f74206265206d61646520627920746865206e6577206f776e6572000000000000602082015250565b5f6181ce603a83616995565b91506181d982618174565b604082019050919050565b5f6020820190508181035f8301526181fb816181c2565b9050919050565b7f496e697469616c697a61626c653a20636f6e7472616374206973206e6f7420695f8201527f6e697469616c697a696e67000000000000000000000000000000000000000000602082015250565b5f61825c602b83616995565b915061826782618202565b604082019050919050565b5f6020820190508181035f83015261828981618250565b9050919050565b7f4f776e61626c653a2063616c6c6572206973206e6f7420746865206f776e65725f82015250565b5f6182c4602083616995565b91506182cf82618290565b602082019050919050565b5f6020820190508181035f8301526182f1816182b8565b9050919050565b5f61830282616902565b915061830d83616902565b9250828203905060ff81111561832657618325617db1565b5b92915050565b5f8160011c9050919050565b5f808291508390505b60018511156183815780860481111561835d5761835c617db1565b5b600185161561836c5780820291505b808102905061837a8561832c565b9450618341565b94509492505050565b5f826183995760019050618454565b816183a6575f9050618454565b81600181146183bc57600281146183c6576183f5565b6001915050618454565b60ff8411156183d8576183d7617db1565b5b8360020a9150848211156183ef576183ee617db1565b5b50618454565b5060208310610133831016604e8410600b841016171561842a5782820a90508381111561842557618424617db1565b5b618454565b6184378484846001618338565b9250905081840481111561844e5761844d617db1565b5b81810290505b9392505050565b5f618465826161e9565b915061847083616902565b925061849d7fffffffffffffffffffffffffffffffffffffffffffffffffffffffffffffffff848461838a565b905092915050565b5f6184af8261738d565b91506184ba8361738d565b92508282026184c88161738d565b91507f800000000000000000000000000000000000000000000000000000000000000084145f841216156184ff576184fe617db1565b5b828205841483151761851457618513617db1565b5b5092915050565b5f8151905061852981616384565b92915050565b5f6020828403121561854457618543616223565b5b5f6185518482850161851b565b91505092915050565b5f67ffffffffffffffff82111561857457618573616ab4565b5b602082029050602081019050919050565b5f81519050618593816163ae565b92915050565b5f6185ab6185a68461855a565b616b12565b905080838252602082019050602084028301858111156185ce576185cd617701565b5b835b818110156185f757806185e38882618585565b8452602084019350506020810190506185d0565b5050509392505050565b5f82601f83011261861557618614616aac565b5b8151618625848260208601618599565b91505092915050565b5f805f805f805f80610100898b03121561864b5761864a616223565b5b5f6186588b828c016173c0565b985050602089015167ffffffffffffffff81111561867957618678616227565b5b6186858b828c01618601565b975050604089015167ffffffffffffffff8111156186a6576186a5616227565b5b6186b28b828c01618601565b965050606089015167ffffffffffffffff8111156186d3576186d2616227565b5b6186df8b828c01618012565b955050608089015167ffffffffffffffff811115618700576186ff616227565b5b61870c8b828c01618012565b94505060a061871d8b828c016173c0565b93505060c089015167ffffffffffffffff81111561873e5761873d616227565b5b61874a8b828c01618012565b92505060e089015167ffffffffffffffff81111561876b5761876a616227565b5b6187778b828c01618012565b9150509295985092959890939650565b602082015f82015161879b5f850182617bd6565b50505050565b5f6020820190506187b45f830184618787565b92915050565b7f5061757361626c653a206e6f74207061757365640000000000000000000000005f82015250565b5f6187ee601483616995565b91506187f9826187ba565b602082019050919050565b5f6020820190508181035f83015261881b816187e2565b9050919050565b5f61882c826161e9565b9150618837836161e9565b925082820190508082111561884f5761884e617db1565b5b92915050565b61885e816166f9565b82525050565b61886d816162de565b82525050565b61010082015f8201516188885f850182617bc7565b50602082015161889b6020850182617bc7565b5060408201516188ae6040850182618855565b5060608201516188c16060850182617bc7565b5060808201516188d46080850182617bd6565b5060a08201516188e760a0850182617bd6565b5060c08201516188fa60c0850182617bd6565b5060e082015161890d60e0850182618864565b50505050565b5f610100820190506189275f830184618873565b92915050565b5f819050919050565b5f61895061894b6189468461892d565b6164c7565b6161e9565b9050919050565b61896081618936565b82525050565b5f60a0820190506189795f8301886161f2565b6189866020830187618957565b81810360408301526189988186617ef5565b90506189a7606083018561630e565b6189b460808301846161f2565b9695505050505050565b7f5061757361626c653a20706175736564000000000000000000000000000000005f82015250565b5f6189f2601083616995565b91506189fd826189be565b602082019050919050565b5f6020820190508181035f830152618a1f816189e6565b9050919050565b5f618a40618a3b618a368461892d565b6164c7565b616902565b9050919050565b618a5081618a26565b82525050565b5f81519050919050565b5f82825260208201905092915050565b5f819050602082019050919050565b5f618a8a8383617bd6565b60208301905092915050565b5f602082019050919050565b5f618aac82618a56565b618ab68185618a60565b9350618ac183618a70565b805f5b83811015618af1578151618ad88882618a7f565b9750618ae383618a96565b925050600181019050618ac4565b5085935050505092915050565b5f60c082019050618b115f830189618a47565b8181036020830152618b238188617ef5565b90508181036040830152618b378187617ef5565b9050618b4660608301866161f2565b8181036080830152618b588185618aa2565b905081810360a0830152618b6c8184618aa2565b9050979650505050505050565b5f606082019050618b8c5f83018661630e565b618b99602083018561630e565b618ba660408301846161f2565b949350505050565b5f60c082019050618bc15f830189617326565b8181036020830152618bd38188617ef5565b90508181036040830152618be78187617ef5565b9050618bf660608301866161f2565b8181036080830152618c088185618aa2565b905081810360a0830152618c1c8184618aa2565b9050979650505050505050565b5f819050919050565b5f618c4c618c47618c4284618c29565b6164c7565b616902565b9050919050565b618c5c81618c32565b82525050565b5f60c082019050618c755f830189618c53565b8181036020830152618c878188617ef5565b90508181036040830152618c9b8187617ef5565b9050618caa60608301866161f2565b8181036080830152618cbc8185618aa2565b905081810360a0830152618cd08184618aa2565b9050979650505050505050565b5f819050919050565b5f618d00618cfb618cf684618cdd565b6164c7565b616902565b9050919050565b618d1081618ce6565b82525050565b5f60c082019050618d295f830189618d07565b8181036020830152618d3b8188617ef5565b90508181036040830152618d4f8187617ef5565b9050618d5e60608301866161f2565b8181036080830152618d708185618aa2565b905081810360a0830152618d848184618aa2565b9050979650505050505050565b5f819050919050565b5f618db4618daf618daa84618d91565b6164c7565b616902565b9050919050565b618dc481618d9a565b82525050565b5f60c082019050618ddd5f830189618dbb565b8181036020830152618def8188617ef5565b90508181036040830152618e038187617ef5565b9050618e1260608301866161f2565b8181036080830152618e248185618aa2565b905081810360a0830152618e388184618aa2565b9050979650505050505050565b7f4d6178696d756d203520646966666572656e7420746f6b656e732063616e20625f8201527f652073656e74207065722043434950204d657373616765000000000000000000602082015250565b5f618e9f603783616995565b9150618eaa82618e45565b604082019050919050565b5f6020820190508181035f830152618ecc81618e93565b9050919050565b5f618edd826161e9565b9150618ee8836161e9565b9250828203905081811115618f0057618eff617db1565b5b9291505056fea2646970667358221220adfd8fe710175df2a28bf5af783d2e108c6d7dcda9e959a027b345df0ac186ad64736f6c634300081a0033","linkReferences":{}},"methodIdentifiers":{"ccipReceive((bytes32,uint64,bytes,bytes,(address,uint256)[]))":"85572ffb","convertEthToUsd(uint256)":"c086381e","crossChainToken(uint64)":"19da7e2a","crossChainTokenSwapFee(uint64,address)":"652354ae","currentChainSelector()":"3d54cb6f","estimateAmountOut(address,address,uint128,uint24)":"ee7bd3e2","factoryV3()":"1d5f45f5","fee()":"ddca3f43","feeRate()":"978bbdb9","feeRatePerDayScaled()":"2fecd589","feeReceiver()":"b3f00674","feeTimestamp()":"184a732f","getAmountOut(address,address,uint256,uint24)":"dd811ac9","getRouter()":"b0f479a1","i_link()":"7d253aff","i_maxTokensLength()":"5b6a0351","initialize(uint64,address,address,address,address,address,address,address,address)":"17c27b76","isRestricted(address)":"c01bc982","issuanceCompletedTokensCount(uint256)":"94037369","issuanceMessageIdByNonce(uint256)":"9121c717","issuanceTokenOldAndNewValues(uint256,address)":"81b15279","latestFeeUpdate()":"011ced5f","messageDetail(bytes32)":"9c3ddb2e","methodologist()":"9f8e67bf","methodology()":"9eeb1d50","minter()":"07546172","oraclePayment()":"0c02e130","owner()":"8da5cb5b","pause()":"8456cb59","paused()":"5c975abb","priceInWei()":"3c8da588","priceOracle()":"2630c12f","proposeOwner(address)":"b5ed298a","proposedOwner()":"d153b60c","quoter()":"c6bbd5a7","receivedMessages(uint256)":"d030366c","redemptionMessageIdByNonce(uint256)":"306b3a28","renounceOwnership()":"715018a6","sendMessage(uint64,address,bytes,uint8)":"bcab90b3","setCcipRouter(address)":"27bf9b44","setCrossChainToken(uint64,address,uint24)":"f0cd5b72","setPriceOracle(address)":"530e784f","setVault(address)":"6817031b","sourceChainSelectorF()":"ff5474f0","supplyCeiling()":"2b52684d","supportsInterface(bytes4)":"01ffc9a7","swap(address,address,uint256,address,uint24)":"7e79f512","swapRouterV2()":"744fbc7a","swapRouterV3()":"b631e80b","testData()":"016cbd51","testData2()":"3421fa29","toUsdPriceFeed()":"63973fda","transferOwnership(address)":"f2fde38b","unpause()":"3f4ba83a","vault()":"fbfa77cf","weth()":"3fc8cef3"},"id":50}