{"abi":[{"type":"receive","stateMutability":"payable"},{"type":"function","name":"ccipReceive","inputs":[{"name":"message","type":"tuple","internalType":"struct Client.Any2EVMMessage","components":[{"name":"messageId","type":"bytes32","internalType":"bytes32"},{"name":"sourceChainSelector","type":"uint64","internalType":"uint64"},{"name":"sender","type":"bytes","internalType":"bytes"},{"name":"data","type":"bytes","internalType":"bytes"},{"name":"destTokenAmounts","type":"tuple[]","internalType":"struct Client.EVMTokenAmount[]","components":[{"name":"token","type":"address","internalType":"address"},{"name":"amount","type":"uint256","internalType":"uint256"}]}]}],"outputs":[],"stateMutability":"nonpayable"},{"type":"function","name":"convertEthToUsd","inputs":[{"name":"_ethAmount","type":"uint256","internalType":"uint256"}],"outputs":[{"name":"","type":"uint256","internalType":"uint256"}],"stateMutability":"view"},{"type":"function","name":"crossChainToken","inputs":[{"name":"","type":"uint64","internalType":"uint64"}],"outputs":[{"name":"","type":"address","internalType":"address"}],"stateMutability":"view"},{"type":"function","name":"crossChainTokenSwapFee","inputs":[{"name":"","type":"uint64","internalType":"uint64"},{"name":"","type":"address","internalType":"address"}],"outputs":[{"name":"","type":"uint24","internalType":"uint24"}],"stateMutability":"view"},{"type":"function","name":"currentChainSelector","inputs":[],"outputs":[{"name":"","type":"uint64","internalType":"uint64"}],"stateMutability":"view"},{"type":"function","name":"estimateAmountOut","inputs":[{"name":"tokenIn","type":"address","internalType":"address"},{"name":"tokenOut","type":"address","internalType":"address"},{"name":"amountIn","type":"uint128","internalType":"uint128"},{"name":"fee","type":"uint24","internalType":"uint24"}],"outputs":[{"name":"amountOut","type":"uint256","internalType":"uint256"}],"stateMutability":"view"},{"type":"function","name":"factoryV3","inputs":[],"outputs":[{"name":"","type":"address","internalType":"contract IUniswapV3Factory"}],"stateMutability":"view"},{"type":"function","name":"fee","inputs":[],"outputs":[{"name":"","type":"uint256","internalType":"uint256"}],"stateMutability":"view"},{"type":"function","name":"feeRate","inputs":[],"outputs":[{"name":"","type":"uint8","internalType":"uint8"}],"stateMutability":"view"},{"type":"function","name":"feeRatePerDayScaled","inputs":[],"outputs":[{"name":"","type":"uint256","internalType":"uint256"}],"stateMutability":"view"},{"type":"function","name":"feeReceiver","inputs":[],"outputs":[{"name":"","type":"address","internalType":"address"}],"stateMutability":"view"},{"type":"function","name":"feeTimestamp","inputs":[],"outputs":[{"name":"","type":"uint256","internalType":"uint256"}],"stateMutability":"view"},{"type":"function","name":"getAmountOut","inputs":[{"name":"tokenIn","type":"address","internalType":"address"},{"name":"tokenOut","type":"address","internalType":"address"},{"name":"amountIn","type":"uint256","internalType":"uint256"},{"name":"_swapFee","type":"uint24","internalType":"uint24"}],"outputs":[{"name":"finalAmountOut","type":"uint256","internalType":"uint256"}],"stateMutability":"view"},{"type":"function","name":"getRouter","inputs":[],"outputs":[{"name":"","type":"address","internalType":"address"}],"stateMutability":"view"},{"type":"function","name":"i_link","inputs":[],"outputs":[{"name":"","type":"address","internalType":"address"}],"stateMutability":"view"},{"type":"function","name":"i_maxTokensLength","inputs":[],"outputs":[{"name":"","type":"uint16","internalType":"uint16"}],"stateMutability":"view"},{"type":"function","name":"initialize","inputs":[{"name":"_currentChainSelector","type":"uint64","internalType":"uint64"},{"name":"_vault","type":"address","internalType":"address payable"},{"name":"_chainlinkToken","type":"address","internalType":"address"},{"name":"_router","type":"address","internalType":"address"},{"name":"_weth","type":"address","internalType":"address"},{"name":"_swapRouterV3","type":"address","internalType":"address"},{"name":"_factoryV3","type":"address","internalType":"address"},{"name":"_swapRouterV2","type":"address","internalType":"address"},{"name":"_toUsdPriceFeed","type":"address","internalType":"address"}],"outputs":[],"stateMutability":"nonpayable"},{"type":"function","name":"isRestricted","inputs":[{"name":"","type":"address","internalType":"address"}],"outputs":[{"name":"","type":"bool","internalType":"bool"}],"stateMutability":"view"},{"type":"function","name":"issuanceCompletedTokensCount","inputs":[{"name":"","type":"uint256","internalType":"uint256"}],"outputs":[{"name":"","type":"uint256","internalType":"uint256"}],"stateMutability":"view"},{"type":"function","name":"issuanceMessageIdByNonce","inputs":[{"name":"","type":"uint256","internalType":"uint256"}],"outputs":[{"name":"","type":"bytes32","internalType":"bytes32"}],"stateMutability":"view"},{"type":"function","name":"issuanceTokenOldAndNewValues","inputs":[{"name":"","type":"uint256","internalType":"uint256"},{"name":"","type":"address","internalType":"address"}],"outputs":[{"name":"oldTokenValue","type":"uint256","internalType":"uint256"},{"name":"newTokenValue","type":"uint256","internalType":"uint256"}],"stateMutability":"view"},{"type":"function","name":"latestFeeUpdate","inputs":[],"outputs":[{"name":"","type":"uint256","internalType":"uint256"}],"stateMutability":"view"},{"type":"function","name":"messageDetail","inputs":[{"name":"","type":"bytes32","internalType":"bytes32"}],"outputs":[{"name":"sourceChainSelector","type":"uint64","internalType":"uint64"},{"name":"sender","type":"address","internalType":"address"},{"name":"message","type":"string","internalType":"string"},{"name":"token","type":"address","internalType":"address"},{"name":"amount","type":"uint256","internalType":"uint256"}],"stateMutability":"view"},{"type":"function","name":"methodologist","inputs":[],"outputs":[{"name":"","type":"address","internalType":"address"}],"stateMutability":"view"},{"type":"function","name":"methodology","inputs":[],"outputs":[{"name":"","type":"string","internalType":"string"}],"stateMutability":"view"},{"type":"function","name":"minter","inputs":[],"outputs":[{"name":"","type":"address","internalType":"address"}],"stateMutability":"view"},{"type":"function","name":"oraclePayment","inputs":[],"outputs":[{"name":"","type":"uint256","internalType":"uint256"}],"stateMutability":"view"},{"type":"function","name":"owner","inputs":[],"outputs":[{"name":"","type":"address","internalType":"address"}],"stateMutability":"view"},{"type":"function","name":"pause","inputs":[],"outputs":[],"stateMutability":"nonpayable"},{"type":"function","name":"paused","inputs":[],"outputs":[{"name":"","type":"bool","internalType":"bool"}],"stateMutability":"view"},{"type":"function","name":"priceInWei","inputs":[],"outputs":[{"name":"","type":"uint256","internalType":"uint256"}],"stateMutability":"view"},{"type":"function","name":"priceOracle","inputs":[],"outputs":[{"name":"","type":"address","internalType":"address"}],"stateMutability":"view"},{"type":"function","name":"proposeOwner","inputs":[{"name":"_proposedOwner","type":"address","internalType":"address"}],"outputs":[],"stateMutability":"nonpayable"},{"type":"function","name":"proposedOwner","inputs":[],"outputs":[{"name":"","type":"address","internalType":"address"}],"stateMutability":"view"},{"type":"function","name":"quoter","inputs":[],"outputs":[{"name":"","type":"address","internalType":"contract IQuoter"}],"stateMutability":"view"},{"type":"function","name":"receivedMessages","inputs":[{"name":"","type":"uint256","internalType":"uint256"}],"outputs":[{"name":"","type":"bytes32","internalType":"bytes32"}],"stateMutability":"view"},{"type":"function","name":"redemptionMessageIdByNonce","inputs":[{"name":"","type":"uint256","internalType":"uint256"}],"outputs":[{"name":"","type":"bytes32","internalType":"bytes32"}],"stateMutability":"view"},{"type":"function","name":"renounceOwnership","inputs":[],"outputs":[],"stateMutability":"nonpayable"},{"type":"function","name":"sendMessage","inputs":[{"name":"destinationChainSelector","type":"uint64","internalType":"uint64"},{"name":"receiver","type":"address","internalType":"address"},{"name":"_data","type":"bytes","internalType":"bytes"},{"name":"payFeesIn","type":"uint8","internalType":"enum CrossChainIndexFactory.PayFeesIn"}],"outputs":[{"name":"","type":"bytes32","internalType":"bytes32"}],"stateMutability":"nonpayable"},{"type":"function","name":"setCcipRouter","inputs":[{"name":"_router","type":"address","internalType":"address"}],"outputs":[],"stateMutability":"nonpayable"},{"type":"function","name":"setCrossChainToken","inputs":[{"name":"_chainSelector","type":"uint64","internalType":"uint64"},{"name":"_crossChainToken","type":"address","internalType":"address"},{"name":"_swapFee","type":"uint24","internalType":"uint24"}],"outputs":[],"stateMutability":"nonpayable"},{"type":"function","name":"setPriceOracle","inputs":[{"name":"_priceOracle","type":"address","internalType":"address"}],"outputs":[],"stateMutability":"nonpayable"},{"type":"function","name":"setVault","inputs":[{"name":"_vault","type":"address","internalType":"address payable"}],"outputs":[],"stateMutability":"nonpayable"},{"type":"function","name":"sourceChainSelectorF","inputs":[],"outputs":[{"name":"","type":"uint64","internalType":"uint64"}],"stateMutability":"view"},{"type":"function","name":"supplyCeiling","inputs":[],"outputs":[{"name":"","type":"uint256","internalType":"uint256"}],"stateMutability":"view"},{"type":"function","name":"supportsInterface","inputs":[{"name":"interfaceId","type":"bytes4","internalType":"bytes4"}],"outputs":[{"name":"","type":"bool","internalType":"bool"}],"stateMutability":"pure"},{"type":"function","name":"swap","inputs":[{"name":"tokenIn","type":"address","internalType":"address"},{"name":"tokenOut","type":"address","internalType":"address"},{"name":"amountIn","type":"uint256","internalType":"uint256"},{"name":"_recipient","type":"address","internalType":"address"},{"name":"_swapFee","type":"uint24","internalType":"uint24"}],"outputs":[{"name":"outputAmount","type":"uint256","internalType":"uint256"}],"stateMutability":"nonpayable"},{"type":"function","name":"swapRouterV2","inputs":[],"outputs":[{"name":"","type":"address","internalType":"contract IUniswapV2Router02"}],"stateMutability":"view"},{"type":"function","name":"swapRouterV3","inputs":[],"outputs":[{"name":"","type":"address","internalType":"contract ISwapRouter"}],"stateMutability":"view"},{"type":"function","name":"testData","inputs":[],"outputs":[{"name":"","type":"uint256","internalType":"uint256"}],"stateMutability":"view"},{"type":"function","name":"testData2","inputs":[],"outputs":[{"name":"","type":"uint256","internalType":"uint256"}],"stateMutability":"view"},{"type":"function","name":"testData3","inputs":[],"outputs":[{"name":"","type":"uint64","internalType":"uint64"}],"stateMutability":"view"},{"type":"function","name":"toUsdPriceFeed","inputs":[],"outputs":[{"name":"","type":"address","internalType":"contract AggregatorV3Interface"}],"stateMutability":"view"},{"type":"function","name":"transferOwnership","inputs":[{"name":"newOwner","type":"address","internalType":"address"}],"outputs":[],"stateMutability":"nonpayable"},{"type":"function","name":"unpause","inputs":[],"outputs":[],"stateMutability":"nonpayable"},{"type":"function","name":"vault","inputs":[],"outputs":[{"name":"","type":"address","internalType":"contract Vault"}],"stateMutability":"view"},{"type":"function","name":"weth","inputs":[],"outputs":[{"name":"","type":"address","internalType":"contract IWETH"}],"stateMutability":"view"},{"type":"event","name":"ChainlinkCancelled","inputs":[{"name":"id","type":"bytes32","indexed":true,"internalType":"bytes32"}],"anonymous":false},{"type":"event","name":"ChainlinkFulfilled","inputs":[{"name":"id","type":"bytes32","indexed":true,"internalType":"bytes32"}],"anonymous":false},{"type":"event","name":"ChainlinkRequested","inputs":[{"name":"id","type":"bytes32","indexed":true,"internalType":"bytes32"}],"anonymous":false},{"type":"event","name":"Initialized","inputs":[{"name":"version","type":"uint8","indexed":false,"internalType":"uint8"}],"anonymous":false},{"type":"event","name":"Issuanced","inputs":[{"name":"messageId","type":"bytes32","indexed":true,"internalType":"bytes32"},{"name":"nonce","type":"uint256","indexed":true,"internalType":"uint256"},{"name":"time","type":"uint256","indexed":false,"internalType":"uint256"}],"anonymous":false},{"type":"event","name":"MessageSent","inputs":[{"name":"messageId","type":"bytes32","indexed":false,"internalType":"bytes32"}],"anonymous":false},{"type":"event","name":"OwnershipTransferred","inputs":[{"name":"previousOwner","type":"address","indexed":true,"internalType":"address"},{"name":"newOwner","type":"address","indexed":true,"internalType":"address"}],"anonymous":false},{"type":"event","name":"Paused","inputs":[{"name":"account","type":"address","indexed":false,"internalType":"address"}],"anonymous":false},{"type":"event","name":"Redemption","inputs":[{"name":"messageId","type":"bytes32","indexed":true,"internalType":"bytes32"},{"name":"nonce","type":"uint256","indexed":true,"internalType":"uint256"},{"name":"time","type":"uint256","indexed":false,"internalType":"uint256"}],"anonymous":false},{"type":"event","name":"Unpaused","inputs":[{"name":"account","type":"address","indexed":false,"internalType":"address"}],"anonymous":false},{"type":"error","name":"InvalidRouter","inputs":[{"name":"router","type":"address","internalType":"address"}]}],"bytecode":{"object":"0x6080604052348015600f57600080fd5b50614fa08061001f6000396000f3fe60806040526004361061037a5760003560e01c80637d253aff116101d1578063b5ed298a11610102578063d153b60c116100a0578063f0cd5b721161006f578063f0cd5b7214610adf578063f2fde38b14610aff578063fbfa77cf14610b1f578063ff5474f014610b3f57600080fd5b8063d153b60c14610a69578063dd811ac914610a89578063ddca3f4314610aa9578063ee7bd3e214610abf57600080fd5b8063c01bc982116100dc578063c01bc982146109d9578063c086381e14610a09578063c6bbd5a714610a29578063d030366c14610a4957600080fd5b8063b5ed298a14610979578063b631e80b14610999578063bcab90b3146109b957600080fd5b8063940373691161016f5780639eeb1d50116101495780639eeb1d50146108f35780639f8e67bf14610915578063b0f479a114610935578063b3f006741461095957600080fd5b80639403736914610869578063978bbdb9146108965780639c3ddb2e146108c257600080fd5b80638456cb59116101ab5780638456cb59146107e957806385572ffb146107fe5780638da5cb5b1461081e5780639121c7171461083c57600080fd5b80637d253aff146107555780637e79f5121461077557806381b152791461079557600080fd5b8063306b3a28116102ab5780635b6a035111610249578063652354ae11610223578063652354ae146106af5780636817031b14610700578063715018a614610720578063744fbc7a1461073557600080fd5b80635b6a0351146106425780635c975abb1461067757806363973fda1461068f57600080fd5b80633d54cb6f116102855780633d54cb6f146105cd5780633f4ba83a146105ed5780633fc8cef314610602578063530e784f1461062257600080fd5b8063306b3a28146105755780633421fa29146105a25780633c8da588146105b857600080fd5b806319da7e2a1161031857806327bf9b44116102f257806327bf9b44146104f15780632b0f9e0a146105115780632b52684d146105495780632fecd5891461055f57600080fd5b806319da7e2a1461047b5780631d5f45f5146104b15780632630c12f146104d157600080fd5b8063075461721161035457806307546172146103f55780630c02e1301461042d57806317c27b7614610443578063184a732f1461046557600080fd5b8063011ced5f14610386578063016cbd51146103af57806301ffc9a7146103c557600080fd5b3661038157005b600080fd5b34801561039257600080fd5b5061039c60d65481565b6040519081526020015b60405180910390f35b3480156103bb57600080fd5b5061039c60f15481565b3480156103d157600080fd5b506103e56103e0366004614034565b610b5f565b60405190151581526020016103a6565b34801561040157600080fd5b5060dd54610415906001600160a01b031681565b6040516001600160a01b0390911681526020016103a6565b34801561043957600080fd5b5061039c60e15481565b34801561044f57600080fd5b5061046361045e36600461408f565b610b96565b005b34801561047157600080fd5b5061039c60d95481565b34801561048757600080fd5b50610415610496366004614149565b60e8602052600090815260409020546001600160a01b031681565b3480156104bd57600080fd5b5060e454610415906001600160a01b031681565b3480156104dd57600080fd5b5060dc54610415906001600160a01b031681565b3480156104fd57600080fd5b5061046361050c366004614164565b610e2a565b34801561051d57600080fd5b5060f054610531906001600160401b031681565b6040516001600160401b0390911681526020016103a6565b34801561055557600080fd5b5061039c60df5481565b34801561056b57600080fd5b5061039c60d85481565b34801561058157600080fd5b5061039c610590366004614181565b60ee6020526000908152604090205481565b3480156105ae57600080fd5b5061039c60f25481565b3480156105c457600080fd5b5061039c610e5c565b3480156105d957600080fd5b5060d754610531906001600160401b031681565b3480156105f957600080fd5b50610463610f6a565b34801561060e57600080fd5b5060e654610415906001600160a01b031681565b34801561062e57600080fd5b5061046361063d366004614164565b610f7c565b34801561064e57600080fd5b5060d05461066490600160a01b900461ffff1681565b60405161ffff90911681526020016103a6565b34801561068357600080fd5b50609e5460ff166103e5565b34801561069b57600080fd5b5060e254610415906001600160a01b031681565b3480156106bb57600080fd5b506106ec6106ca36600461419a565b60e960209081526000928352604080842090915290825290205462ffffff1681565b60405162ffffff90911681526020016103a6565b34801561070c57600080fd5b5061046361071b366004614164565b611010565b34801561072c57600080fd5b5061046361103a565b34801561074157600080fd5b5060e554610415906001600160a01b031681565b34801561076157600080fd5b5060d054610415906001600160a01b031681565b34801561078157600080fd5b5061039c6107903660046141e4565b61104c565b3480156107a157600080fd5b506107d46107b0366004614248565b60ec6020908152600092835260408084209091529082529020805460019091015482565b604080519283526020830191909152016103a6565b3480156107f557600080fd5b5061046361107a565b34801561080a57600080fd5b5061046361081936600461426d565b61108a565b34801561082a57600080fd5b506039546001600160a01b0316610415565b34801561084857600080fd5b5061039c610857366004614181565b60ef6020526000908152604090205481565b34801561087557600080fd5b5061039c610884366004614181565b60ed6020526000908152604090205481565b3480156108a257600080fd5b5060d5546108b09060ff1681565b60405160ff90911681526020016103a6565b3480156108ce57600080fd5b506108e26108dd366004614181565b6110d1565b6040516103a69594939291906142ed565b3480156108ff57600080fd5b506109086111ad565b6040516103a6919061433d565b34801561092157600080fd5b5060db54610415906001600160a01b031681565b34801561094157600080fd5b506000546201000090046001600160a01b0316610415565b34801561096557600080fd5b5060da54610415906001600160a01b031681565b34801561098557600080fd5b50610463610994366004614164565b61123b565b3480156109a557600080fd5b5060e354610415906001600160a01b031681565b3480156109c557600080fd5b5061039c6109d436600461444f565b61128b565b3480156109e557600080fd5b506103e56109f4366004614164565b60e06020526000908152604090205460ff1681565b348015610a1557600080fd5b5061039c610a24366004614181565b611540565b348015610a3557600080fd5b5060e754610415906001600160a01b031681565b348015610a5557600080fd5b5061039c610a64366004614181565b611567565b348015610a7557600080fd5b50606b54610415906001600160a01b031681565b348015610a9557600080fd5b5061039c610aa43660046144c5565b611588565b348015610ab557600080fd5b5061039c60d45481565b348015610acb57600080fd5b5061039c610ada366004614516565b6116c9565b348015610aeb57600080fd5b50610463610afa366004614571565b611771565b348015610b0b57600080fd5b50610463610b1a366004614164565b6117d8565b348015610b2b57600080fd5b5060d354610415906001600160a01b031681565b348015610b4b57600080fd5b5060eb54610531906001600160401b031681565b60006001600160e01b031982166385572ffb60e01b1480610b9057506001600160e01b031982166301ffc9a760e01b145b92915050565b600054610100900460ff1615808015610bb65750600054600160ff909116105b80610bd05750303b158015610bd0575060005460ff166001145b610c385760405162461bcd60e51b815260206004820152602e60248201527f496e697469616c697a61626c653a20636f6e747261637420697320616c72656160448201526d191e481a5b9a5d1a585b1a5e995960921b60648201526084015b60405180910390fd5b6000805460ff191660011790558015610c5b576000805461ff0019166101001790555b610c636118fd565b610c6b61192c565b60d780546001600160401b038c1667ffffffffffffffff1990911617905560d380546001600160a01b038b166001600160a01b0319909116179055610ccd88600380546001600160a01b039092166001600160a01b0319909216919091179055565b6000805462010000600160b01b031916620100006001600160a01b038a81168202929092179283905560d080548c84166001600160b01b03199091168117600560a01b1790915560405163095ea7b360e01b8152919093049091166004820152600019602482015263095ea7b3906044016020604051808303816000875af1158015610d5d573d6000803e3d6000fd5b505050506040513d601f19601f82011682018060405250810190610d8191906145b6565b5060e680546001600160a01b03199081166001600160a01b038981169190911790925560e38054821688841617905560e48054821687841617905560e58054821686841617905560e280549091169184169190911790558015610e1e576000805461ff0019169055604051600181527f7f26b83ff96e1f2b6a682f133852f6798a09c465da95921460cefb38474024989060200160405180910390a15b50505050505050505050565b610e3261195b565b600080546001600160a01b03909216620100000262010000600160b01b0319909216919091179055565b60008060e260009054906101000a90046001600160a01b03166001600160a01b031663feaf968c6040518163ffffffff1660e01b815260040160a060405180830381865afa158015610eb2573d6000803e3d6000fd5b505050506040513d601f19601f82011682018060405250810190610ed691906145f2565b505050915050600060e260009054906101000a90046001600160a01b03166001600160a01b031663313ce5676040518163ffffffff1660e01b8152600401602060405180830381865afa158015610f31573d6000803e3d6000fd5b505050506040513d601f19601f82011682018060405250810190610f559190614638565b9050610f63828260126119b5565b9392505050565b610f7261195b565b610f7a6119f5565b565b610f8461195b565b6001600160a01b038116610fee5760405162461bcd60e51b815260206004820152602b60248201527f5072696365206f7261636c6520616464726573732063616e6e6f74206265207a60448201526a65726f206164647265737360a81b6064820152608401610c2f565b60dc80546001600160a01b0319166001600160a01b0392909216919091179055565b61101861195b565b60d380546001600160a01b0319166001600160a01b0392909216919091179055565b61104261195b565b610f7a6000611a47565b60e35460e554600091611070916001600160a01b0391821691168489898989611a99565b9695505050505050565b61108261195b565b610f7a611ad6565b6000546201000090046001600160a01b031633146110bd576040516335fdcccd60e21b8152336004820152602401610c2f565b6110ce6110c98261471a565b611b13565b50565b60d260205260009081526040902080546001820180546001600160401b03831693680100000000000000009093046001600160a01b0316929190611114906147d0565b80601f0160208091040260200160405190810160405280929190818152602001828054611140906147d0565b801561118d5780601f106111625761010080835404028352916020019161118d565b820191906000526020600020905b81548152906001019060200180831161117057829003601f168201915b50505050600283015460039093015491926001600160a01b031691905085565b60de80546111ba906147d0565b80601f01602080910402602001604051908101604052809291908181526020018280546111e6906147d0565b80156112335780601f1061120857610100808354040283529160200191611233565b820191906000526020600020905b81548152906001019060200180831161121657829003601f168201915b505050505081565b61124361195b565b6001600160a01b0381166112695760405162461bcd60e51b8152600401610c2f9061480a565b606b80546001600160a01b0319166001600160a01b0392909216919091179055565b6040805160a081019091526001600160a01b03841660c082015260009081908060e0810160408051808303601f190181529181529082526020808301889052815160008082529181018352929091019190611308565b60408051808201909152600080825260208201528152602001906001900390816112e15790505b50815260200160018560018111156113225761132261485a565b1461132e57600061133b565b60d0546001600160a01b03165b6001600160a01b031681526020016113636040518060200160405280620dbba0815250611cec565b9052600080546040516320487ded60e01b81529293509091620100009091046001600160a01b0316906320487ded906113a2908a908690600401614870565b602060405180830381865afa1580156113bf573d6000803e3d6000fd5b505050506040513d601f19601f820116820180604052508101906113e39190614945565b9050600060018560018111156113fb576113fb61485a565b03611481576000546040516396f4e9f960e01b8152620100009091046001600160a01b0316906396f4e9f990611437908b908790600401614870565b6020604051808303816000875af1158015611456573d6000803e3d6000fd5b505050506040513d601f19601f8201168201806040525081019061147a9190614945565b9050611500565b6000546040516396f4e9f960e01b8152620100009091046001600160a01b0316906396f4e9f99084906114ba908c908890600401614870565b60206040518083038185885af11580156114d8573d6000803e3d6000fd5b50505050506040513d601f19601f820116820180604052508101906114fd9190614945565b90505b6040518181527f54791b38f3859327992a1ca0590ad3c0f08feba98d1a4f56ab0dca74d203392a9060200160405180910390a1925050505b949350505050565b6000670de0b6b3a7640000611553610e5c565b61155d9084614974565b610b90919061498b565b60d1818154811061157757600080fd5b600091825260209091200154905081565b600082156115385762ffffff8216156115ae576115a7858585856116c9565b9050611538565b60408051600280825260608201835260009260208301908036833701905050905085816000815181106115e3576115e36149ad565b60200260200101906001600160a01b031690816001600160a01b0316815250508481600181518110611617576116176149ad565b6001600160a01b03928316602091820292909201015260e55460405163d06ca61f60e01b8152600092919091169063d06ca61f9061165b9088908690600401614a08565b600060405180830381865afa158015611678573d6000803e3d6000fd5b505050506040513d6000823e601f3d908101601f191682016040526116a09190810190614a7f565b9050806001815181106116b5576116b56149ad565b602002602001015192505050949350505050565b60dc5460e45460405163bb5705b360e01b81526001600160a01b039182166004820152868216602482015285821660448201526001600160801b038516606482015262ffffff84166084820152600092919091169063bb5705b39060a401602060405180830381865afa158015611744573d6000803e3d6000fd5b505050506040513d601f19601f820116820180604052508101906117689190614945565b95945050505050565b61177961195b565b6001600160401b0392909216600090815260e86020908152604080832080546001600160a01b0319166001600160a01b0395909516948517905560e9825280832093835292905220805462ffffff191662ffffff909216919091179055565b6001600160a01b0381166117fe5760405162461bcd60e51b8152600401610c2f9061480a565b606b546001600160a01b038281169116146118765760405162461bcd60e51b815260206004820152603260248201527f50726f706f7361626c654f776e61626c653a206e6577206f776e6572206973206044820152713737ba10383937b837b9b2b21037bbb732b960711b6064820152608401610c2f565b6001600160a01b03811633146118f45760405162461bcd60e51b815260206004820152603a60248201527f50726f706f7361626c654f776e61626c653a20746869732063616c6c206d757360448201527f74206265206d61646520627920746865206e6577206f776e65720000000000006064820152608401610c2f565b6110ce81611a47565b600054610100900460ff166119245760405162461bcd60e51b8152600401610c2f90614ab3565b610f7a611d29565b600054610100900460ff166119535760405162461bcd60e51b8152600401610c2f90614ab3565b610f7a611d59565b6039546001600160a01b03163314610f7a5760405162461bcd60e51b815260206004820181905260248201527f4f776e61626c653a2063616c6c6572206973206e6f7420746865206f776e65726044820152606401610c2f565b60008260ff168260ff1611156119eb576119cf8383614afe565b6119da90600a614bfe565b6119e49085614c0d565b9050610f63565b6119cf8284614afe565b6119fd611d8c565b609e805460ff191690557f5db9ee0a495bf2e6ff9c91a7834c1ba4fdd244a5e8aa4e537bd38aeae4b073aa335b6040516001600160a01b03909116815260200160405180910390a1565b603980546001600160a01b038381166001600160a01b0319831681179093556040519116919082907f8be0079c531659141344cd1fd0a4f28419497f9722a3daafe3b4186f6b6457e090600090a35050565b600062ffffff861615611abb57611ab4888787878787611dd5565b9050611acb565b611ac88786868686611f36565b90505b979650505050505050565b611ade61212e565b609e805460ff191660011790557f62e78cea01bee320cd4e420270b5ea74000d11b0c9f74754ebdbfc544b05a258611a2a3390565b60008160200151905060008260400151806020019051810190611b369190614c3d565b90506000806000806000806000808a60600151806020019051810190611b5c9190614cc1565b9750975097509750975097509750975087600003611b8f5760808b0151611b89818988878f8f8989612174565b50611cdf565b87600103611baa57611ba58786858d8d866126ed565b611cdf565b87600203611bbf57611ba58786858d8d612b39565b87600303611c2157611ba56040518061012001604052808981526020018881526020018781526020018681526020018481526020018c6001600160401b031681526020018b6001600160a01b0316815260200185815260200183815250612de9565b87600403611cdf5760008b608001519050611cdd6040518061016001604052808a815260200189815260200188815260200187815260200185815260200183600081518110611c7257611c726149ad565b6020026020010151600001516001600160a01b0316815260200183600081518110611c9f57611c9f6149ad565b60200260200101516020015181526020018d6001600160401b031681526020018c6001600160a01b0316815260200186815260200184815250613061565b505b5050505050505050505050565b60408051915160248084019190915281518084039091018152604490920190526020810180516001600160e01b03166397a657c960e01b17905290565b600054610100900460ff16611d505760405162461bcd60e51b8152600401610c2f90614ab3565b610f7a33611a47565b600054610100900460ff16611d805760405162461bcd60e51b8152600401610c2f90614ab3565b609e805460ff19169055565b609e5460ff16610f7a5760405162461bcd60e51b815260206004820152601460248201527314185d5cd8589b194e881b9bdd081c185d5cd95960621b6044820152606401610c2f565b60405163095ea7b360e01b81526001600160a01b038781166004830152602482018490526000919086169063095ea7b3906044016020604051808303816000875af1158015611e28573d6000803e3d6000fd5b505050506040513d601f19601f82011682018060405250810190611e4c91906145b6565b506000604051806101000160405280876001600160a01b03168152602001866001600160a01b031681526020018862ffffff168152602001846001600160a01b031681526020014261012c611ea19190614de9565b815260208101869052600060408083018290526060909201525163414bf38960e01b81529091506001600160a01b0389169063414bf38990611ee7908490600401614dfc565b6020604051808303816000875af1158015611f06573d6000803e3d6000fd5b505050506040513d601f19601f82011682018060405250810190611f2a9190614945565b98975050505050505050565b604080516002808252606082018352600092839291906020830190803683370190505090508581600081518110611f6f57611f6f6149ad565b60200260200101906001600160a01b031690816001600160a01b0316815250508481600181518110611fa357611fa36149ad565b6001600160a01b03928316602091820292909201015260405163d06ca61f60e01b815260009189169063d06ca61f90611fe29088908690600401614a08565b600060405180830381865afa158015611fff573d6000803e3d6000fd5b505050506040513d6000823e601f3d908101601f191682016040526120279190810190614a7f565b60405163095ea7b360e01b81526001600160a01b038a81166004830152602482018890529192509088169063095ea7b3906044016020604051808303816000875af115801561207a573d6000803e3d6000fd5b505050506040513d601f19601f8201168201806040525081019061209e91906145b6565b50604051635c11d79560e01b81526001600160a01b03891690635c11d795906120d490889060009087908a904290600401614e79565b600060405180830381600087803b1580156120ee57600080fd5b505af1158015612102573d6000803e3d6000fd5b5050505080600181518110612119576121196149ad565b60200260200101519250505095945050505050565b609e5460ff1615610f7a5760405162461bcd60e51b815260206004820152601060248201526f14185d5cd8589b194e881c185d5cd95960821b6044820152606401610c2f565b61219f6040518060800160405280600081526020016060815260200160608152602001606081525090565b612260896000815181106121b5576121b56149ad565b60200260200101516000015160e660009054906101000a90046001600160a01b03168b6000815181106121ea576121ea6149ad565b6020026020010151602001513060e960008b6001600160401b03166001600160401b0316815260200190815260200160002060008f600081518110612231576122316149ad565b602090810291909101810151516001600160a01b031682528101919091526040016000205462ffffff1661104c565b815287516001600160401b0381111561227b5761227b614350565b6040519080825280602002602001820160405280156122a4578160200160208202803683370190505b50602082015287516001600160401b038111156122c3576122c3614350565b6040519080825280602002602001820160405280156122ec578160200160208202803683370190505b50604082015260005b885181101561263857600083600081518110612313576123136149ad565b602002602001015185838151811061232d5761232d6149ad565b602002602001015184600001516123449190614974565b61234e919061498b565b60e6548b519192506000916001600160a01b03909116908c9085908110612377576123776149ad565b60200260200101516001600160a01b031603612498578a838151811061239f5761239f6149ad565b602090810291909101015160d3546040516370a0823160e01b81526001600160a01b0391821660048201529116906370a0823190602401602060405180830381865afa1580156123f3573d6000803e3d6000fd5b505050506040513d601f19601f820116820180604052508101906124179190614945565b60e65460d35460405163a9059cbb60e01b81526001600160a01b03918216600482015260248101869052929350169063a9059cbb906044016020604051808303816000875af115801561246e573d6000803e3d6000fd5b505050506040513d601f19601f8201168201806040525081019061249291906145b6565b506125ca565b61255d8b84815181106124ad576124ad6149ad565b602002602001015160e660009054906101000a90046001600160a01b03168d86815181106124dd576124dd6149ad565b602090810291909101015160d3546040516370a0823160e01b81526001600160a01b0391821660048201529116906370a0823190602401602060405180830381865afa158015612531573d6000803e3d6000fd5b505050506040513d601f19601f820116820180604052508101906125559190614945565b610bb8611588565b90506125c860e660009054906101000a90046001600160a01b03168c858151811061258a5761258a6149ad565b60200260200101518460d360009054906101000a90046001600160a01b03168e88815181106125bb576125bb6149ad565b602002602001015161104c565b505b60006125d68383614de9565b90506125e182611540565b856020015185815181106125f7576125f76149ad565b60200260200101818152505061260c81611540565b85604001518581518110612622576126226149ad565b60209081029190910101525050506001016122f5565b5060408051600080825260208083018452840151848401516126659492938d9390928c9290918401614eca565b6040516020818303038152906040528160600181905250600061268f86868460600151600161128b565b600088815260ef60205260409081902082905551909150879082907f7513d57665f5bbb438203d2f2a896f1f0791e1e8cd0e2d76d7bc421bfb4f49aa906126d99042815260200190565b60405180910390a350505050505050505050565b6000805b8751811015612977576000670de0b6b3a7640000898381518110612717576127176149ad565b602090810291909101015160d3546040516370a0823160e01b81526001600160a01b0391821660048201529116906370a0823190602401602060405180830381865afa15801561276b573d6000803e3d6000fd5b505050506040513d601f19601f8201168201806040525081019061278f9190614945565b856000815181106127a2576127a26149ad565b60200260200101516127b49190614974565b6127be919061498b565b60e6548a519192506001600160a01b0316908a90849081106127e2576127e26149ad565b60200260200101516001600160a01b0316036128855760d35460e654604051631c20fadd60e01b81526001600160a01b0392831692631c20fadd926128309291169030908690600401614f33565b6020604051808303816000875af115801561284f573d6000803e3d6000fd5b505050506040513d601f19601f8201168201806040525081019061287391906145b6565b5061287e8184614de9565b925061296e565b60d35489516001600160a01b0390911690631c20fadd908b90859081106128ae576128ae6149ad565b602002602001015130846040518463ffffffff1660e01b81526004016128d693929190614f33565b6020604051808303816000875af11580156128f5573d6000803e3d6000fd5b505050506040513d601f19601f8201168201806040525081019061291991906145b6565b5061296189838151811061292f5761292f6149ad565b602002602001015160e660009054906101000a90046001600160a01b031683308c87815181106125bb576125bb6149ad565b61296b9084614de9565b92505b506001016126f1565b5060e6546001600160401b038516600090815260e8602090815260408083205460e983528184206001600160a01b0391821680865293529083205492936129ca93911691908590309062ffffff1661104c565b60408051600180825281830190925291925060009190816020015b60408051808201909152600080825260208201528152602001906001900390816129e55750506001600160401b038716600090815260e8602052604081205482519293506001600160a01b031691839190612a4257612a426149ad565b6020026020010151600001906001600160a01b031690816001600160a01b0316815250508181600081518110612a7a57612a7a6149ad565b6020908102919091018101518101919091526040805160008082529281018381528183019092529190612ab8906001908d908c868060608101614eca565b60405160208183030381529060405290506000612ad989838a87600161311f565b60008b815260ee602052604090819020829055519091508a9082907f2c80cd3884ced9a087f5eed6c8ddd78af4b449cdea210b92786f35bd496f534390612b239042815260200190565b60405180910390a3505050505050505050505050565b604080516000808252602082019092529050600086516001600160401b03811115612b6657612b66614350565b604051908082528060200260200182016040528015612b8f578160200160208202803683370190505b50905060005b8751811015612d985760e65488516001600160a01b0390911690899083908110612bc157612bc16149ad565b60200260200101516001600160a01b031603612c8757612c64888281518110612bec57612bec6149ad565b602090810291909101015160d3546040516370a0823160e01b81526001600160a01b0391821660048201529116906370a0823190602401602060405180830381865afa158015612c40573d6000803e3d6000fd5b505050506040513d601f19601f82011682018060405250810190610a249190614945565b828281518110612c7657612c766149ad565b602002602001018181525050612d90565b6000612d65898381518110612c9e57612c9e6149ad565b602002602001015160e660009054906101000a90046001600160a01b03168b8581518110612cce57612cce6149ad565b602090810291909101015160d3546040516370a0823160e01b81526001600160a01b0391821660048201529116906370a0823190602401602060405180830381865afa158015612d22573d6000803e3d6000fd5b505050506040513d601f19601f82011682018060405250810190612d469190614945565b8b8681518110612d5857612d586149ad565b6020026020010151611588565b9050612d7081611540565b838381518110612d8257612d826149ad565b602002602001018181525050505b600101612b95565b5060408051600080825260208201835291612dc0916002918b91908a90879089908401614eca565b6040516020818303038152906040529050612dde858583600161128b565b505050505050505050565b612e1b6040518060a0016040528060008152602001600081526020016000815260200160008152602001600081525090565b81515181526101008201518051600090612e3757612e376149ad565b6020026020010151816020018181525050816101000151600181518110612e6057612e606149ad565b6020026020010151816040018181525050816101000151600281518110612e8957612e896149ad565b60200260200101518160800181815250506000612ec882846000015185602001518660400151876060015188608001518960c001518a60e00151613545565b60e65460a0850180516001600160401b03908116600090815260e8602081815260408084205486518616855260e9835281852096519095168452918152818320546001600160a01b03908116845294905281205494955093612f3993831692909116908590309062ffffff1661104c565b60408051600180825281830190925291925060009190816020015b6040805180820190915260008082526020820152815260200190600190039081612f5457505060a08601516001600160401b0316600090815260e8602052604081205482519293506001600160a01b031691839190612fb557612fb56149ad565b6020026020010151600001906001600160a01b031690816001600160a01b0316815250508181600081518110612fed57612fed6149ad565b602090810291909101810151810191909152604080516000808252818401835288519389015160e08a015192949193613030936003939291879081908101614eca565b60405160208183030381529060405290506130578760a00151828960c0015186600161311f565b5050505050505050565b60a081015160e65460c083015160d3546000936130919390926001600160a01b0391821692909116610bb861104c565b90506130bb8260000151836020015184604001518560600151866080015186886101400151613bb3565b604080516000808252602082018181528284019093526101208501519192916130f09060049084908190878060608101614eca565b60405160208183030381529060405290506131178560e0015186610100015183600161128b565b505050505050565b815160d05460009190600160a01b900461ffff168111156131a85760405162461bcd60e51b815260206004820152603760248201527f4d6178696d756d203520646966666572656e7420746f6b656e732063616e206260448201527f652073656e74207065722043434950204d6573736167650000000000000000006064820152608401610c2f565b60005b818110156132ce5760d05485516001600160a01b03909116908690839081106131d6576131d66149ad565b6020026020010151600001516001600160a01b0316146132c657848181518110613202576132026149ad565b6020026020010151600001516001600160a01b031663095ea7b3600060029054906101000a90046001600160a01b0316878481518110613244576132446149ad565b6020026020010151602001516040518363ffffffff1660e01b81526004016132819291906001600160a01b03929092168252602082015260400190565b6020604051808303816000875af11580156132a0573d6000803e3d6000fd5b505050506040513d601f19601f820116820180604052508101906132c491906145b6565b505b6001016131ab565b506040805160a081019091526001600160a01b03861660c08201526000908060e0810160408051601f19818403018152918152908252602082018a9052810187905260600160018660018111156133275761332761485a565b14613333576000613340565b60d0546001600160a01b03165b6001600160a01b031681526020016133686040518060200160405280620dbba0815250611cec565b9052600080546040516320487ded60e01b81529293509091620100009091046001600160a01b0316906320487ded906133a7908c908690600401614870565b602060405180830381865afa1580156133c4573d6000803e3d6000fd5b505050506040513d601f19601f820116820180604052508101906133e89190614945565b9050600060018660018111156134005761340061485a565b03613486576000546040516396f4e9f960e01b8152620100009091046001600160a01b0316906396f4e9f99061343c908d908790600401614870565b6020604051808303816000875af115801561345b573d6000803e3d6000fd5b505050506040513d601f19601f8201168201806040525081019061347f9190614945565b9050613505565b6000546040516396f4e9f960e01b8152620100009091046001600160a01b0316906396f4e9f99084906134bf908e908890600401614870565b60206040518083038185885af11580156134dd573d6000803e3d6000fd5b50505050506040513d601f19601f820116820180604052508101906135029190614945565b90505b6040518181527f54791b38f3859327992a1ca0590ad3c0f08feba98d1a4f56ab0dca74d203392a9060200160405180910390a19998505050505050505050565b600061359d604051806101400160405280600081526020016000815260200160008152602001600081526020016000815260200160008152602001600081526020016000815260200160008152602001600081525090565b60e65460d3546040516370a0823160e01b81526001600160a01b0391821660048201529116906370a0823190602401602060405180830381865afa1580156135e9573d6000803e3d6000fd5b505050506040513d601f19601f8201168201806040525081019061360d9190614945565b60a082015287518890600090613625576136256149ad565b602090810291909101015160d3546040516370a0823160e01b81526001600160a01b0391821660048201529116906370a0823190602401602060405180830381865afa158015613679573d6000803e3d6000fd5b505050506040513d601f19601f8201168201806040525081019061369d9190614945565b60f15560005b89518110156138fc5760e6548a516000916001600160a01b0316908c90849081106136d0576136d06149ad565b60200260200101516001600160a01b0316036137715760d35460e65460a0850151604051631c20fadd60e01b81526001600160a01b0393841693631c20fadd9361372293911691309190600401614f33565b6020604051808303816000875af1158015613741573d6000803e3d6000fd5b505050506040513d601f19601f8201168201806040525081019061376591906145b6565b505060a08201516138de565b60008b8381518110613785576137856149ad565b602090810291909101015160d3546040516370a0823160e01b81526001600160a01b0391821660048201529116906370a0823190602401602060405180830381865afa1580156137d9573d6000803e3d6000fd5b505050506040513d601f19601f820116820180604052508101906137fd9190614945565b60d3548d519192506001600160a01b031690631c20fadd908e9086908110613827576138276149ad565b602002602001015130846040518463ffffffff1660e01b815260040161384f93929190614f33565b6020604051808303816000875af115801561386e573d6000803e3d6000fd5b505050506040513d601f19601f8201168201806040525081019061389291906145b6565b506138da8c84815181106138a8576138a86149ad565b602002602001015160e660009054906101000a90046001600160a01b031683308e88815181106125bb576125bb6149ad565b9150505b80836060018181516138f09190614de9565b905250506001016136a3565b5060208a015160808b015161391a9068056bc75e2d63100000614974565b613924919061498b565b60e0820181905260408b0151606083015161393f9190614974565b613949919061498b565b610100820181905260608201516139609190614f57565b61012082015260005b8851811015613b125760e65489516001600160a01b03909116908a9083908110613995576139956149ad565b60200260200101516001600160a01b031603613a765760e65460d35460408d015188516001600160a01b039384169363a9059cbb931691908a90869081106139df576139df6149ad565b60200260200101518661010001516139f79190614974565b613a01919061498b565b6040516001600160e01b031960e085901b1681526001600160a01b03909216600483015260248201526044016020604051808303816000875af1158015613a4c573d6000803e3d6000fd5b505050506040513d601f19601f82011682018060405250810190613a7091906145b6565b50613b0a565b6000613b0760e660009054906101000a90046001600160a01b03168b8481518110613aa357613aa36149ad565b60200260200101518e604001518a8681518110613ac257613ac26149ad565b6020026020010151876101000151613ada9190614974565b613ae4919061498b565b60d3548c516001600160a01b03909116908d90889081106125bb576125bb6149ad565b50505b600101613969565b5087600081518110613b2657613b266149ad565b602090810291909101015160d3546040516370a0823160e01b81526001600160a01b0391821660048201529116906370a0823190602401602060405180830381865afa158015613b7a573d6000803e3d6000fd5b505050506040513d601f19601f82011682018060405250810190613b9e9190614945565b60f25561012001519998505050505050505050565b613bec6040518060c001604052806000815260200160008152602001600081526020016000815260200160008152602001600081525090565b81600181518110613bff57613bff6149ad565b602090810291909101810151825288519082015260e65460d3546040516370a0823160e01b81526001600160a01b0391821660048201529116906370a0823190602401602060405180830381865afa158015613c5f573d6000803e3d6000fd5b505050506040513d601f19601f82011682018060405250810190613c839190614945565b60408201526000606082018190525b8160200151811015613ea2576000898281518110613cb257613cb26149ad565b602090810291909101015160e6549091506000906001600160a01b0390811690831603613d645760d35460e6546040808701519051631c20fadd60e01b81526001600160a01b0393841693631c20fadd93613d1593911691309190600401614f33565b6020604051808303816000875af1158015613d34573d6000803e3d6000fd5b505050506040513d601f19601f82011682018060405250810190613d5891906145b6565b50506040830151613e83565b60d3546040516370a0823160e01b81526001600160a01b0391821660048201526000918416906370a0823190602401602060405180830381865afa158015613db0573d6000803e3d6000fd5b505050506040513d601f19601f82011682018060405250810190613dd49190614945565b60d354604051631c20fadd60e01b81529192506001600160a01b031690631c20fadd90613e0990869030908690600401614f33565b6020604051808303816000875af1158015613e28573d6000803e3d6000fd5b505050506040513d601f19601f82011682018060405250810190613e4c91906145b6565b5060e65460d3548b51613e7f9286926001600160a01b03918216928692909116908f908a9081106125bb576125bb6149ad565b9150505b8084606001818151613e959190614de9565b9052505050600101613c92565b506060810151613eb29084614de9565b6080820152865160a082015260005b8160a00151811015612dde576000888281518110613ee157613ee16149ad565b602002602001015190506000868381518110613eff57613eff6149ad565b602090810291909101015160e6549091506001600160a01b0390811690831603613fcf5760e65460d354855160808701516001600160a01b039384169363a9059cbb93169190613f50908690614974565b613f5a919061498b565b6040516001600160e01b031960e085901b1681526001600160a01b03909216600483015260248201526044016020604051808303816000875af1158015613fa5573d6000803e3d6000fd5b505050506040513d601f19601f82011682018060405250810190613fc991906145b6565b5061402a565b60e65484516080860151600092614027926001600160a01b0390911691869190613ffa908790614974565b614004919061498b565b60d3548d516001600160a01b03909116908e908a9081106125bb576125bb6149ad565b50505b5050600101613ec1565b60006020828403121561404657600080fd5b81356001600160e01b031981168114610f6357600080fd5b80356001600160401b038116811461407557600080fd5b919050565b6001600160a01b03811681146110ce57600080fd5b60008060008060008060008060006101208a8c0312156140ae57600080fd5b6140b78a61405e565b985060208a01356140c78161407a565b975060408a01356140d78161407a565b965060608a01356140e78161407a565b955060808a01356140f78161407a565b945060a08a01356141078161407a565b935060c08a01356141178161407a565b925060e08a01356141278161407a565b91506101008a01356141388161407a565b809150509295985092959850929598565b60006020828403121561415b57600080fd5b610f638261405e565b60006020828403121561417657600080fd5b8135610f638161407a565b60006020828403121561419357600080fd5b5035919050565b600080604083850312156141ad57600080fd5b6141b68361405e565b915060208301356141c68161407a565b809150509250929050565b803562ffffff8116811461407557600080fd5b600080600080600060a086880312156141fc57600080fd5b85356142078161407a565b945060208601356142178161407a565b935060408601359250606086013561422e8161407a565b915061423c608087016141d1565b90509295509295909350565b6000806040838503121561425b57600080fd5b8235915060208301356141c68161407a565b60006020828403121561427f57600080fd5b81356001600160401b0381111561429557600080fd5b820160a08185031215610f6357600080fd5b6000815180845260005b818110156142cd576020818501810151868301820152016142b1565b506000602082860101526020601f19601f83011685010191505092915050565b6001600160401b03861681526001600160a01b038516602082015260a060408201819052600090614320908301866142a7565b6001600160a01b0394909416606083015250608001529392505050565b602081526000610f6360208301846142a7565b634e487b7160e01b600052604160045260246000fd5b604080519081016001600160401b038111828210171561438857614388614350565b60405290565b60405160a081016001600160401b038111828210171561438857614388614350565b604051601f8201601f191681016001600160401b03811182821017156143d8576143d8614350565b604052919050565b600082601f8301126143f157600080fd5b81356001600160401b0381111561440a5761440a614350565b61441d601f8201601f19166020016143b0565b81815284602083860101111561443257600080fd5b816020850160208301376000918101602001919091529392505050565b6000806000806080858703121561446557600080fd5b61446e8561405e565b9350602085013561447e8161407a565b925060408501356001600160401b0381111561449957600080fd5b6144a5878288016143e0565b9250506060850135600281106144ba57600080fd5b939692955090935050565b600080600080608085870312156144db57600080fd5b84356144e68161407a565b935060208501356144f68161407a565b92506040850135915061450b606086016141d1565b905092959194509250565b6000806000806080858703121561452c57600080fd5b84356145378161407a565b935060208501356145478161407a565b925060408501356001600160801b038116811461456357600080fd5b915061450b606086016141d1565b60008060006060848603121561458657600080fd5b61458f8461405e565b9250602084013561459f8161407a565b91506145ad604085016141d1565b90509250925092565b6000602082840312156145c857600080fd5b81518015158114610f6357600080fd5b805169ffffffffffffffffffff8116811461407557600080fd5b600080600080600060a0868803121561460a57600080fd5b614613866145d8565b6020870151604088015160608901519297509095509350915061423c608087016145d8565b60006020828403121561464a57600080fd5b815160ff81168114610f6357600080fd5b60006001600160401b0382111561467457614674614350565b5060051b60200190565b600082601f83011261468f57600080fd5b81356146a261469d8261465b565b6143b0565b8082825260208201915060208360061b8601019250858311156146c457600080fd5b602085015b8381101561471057604081880312156146e157600080fd5b6146e9614366565b81356146f48161407a565b81526020828101358183015290845292909201916040016146c9565b5095945050505050565b600060a0823603121561472c57600080fd5b61473461438e565b823581526147446020840161405e565b602082015260408301356001600160401b0381111561476257600080fd5b61476e368286016143e0565b60408301525060608301356001600160401b0381111561478d57600080fd5b614799368286016143e0565b60608301525060808301356001600160401b038111156147b857600080fd5b6147c43682860161467e565b60808301525092915050565b600181811c908216806147e457607f821691505b60208210810361480457634e487b7160e01b600052602260045260246000fd5b50919050565b60208082526030908201527f50726f706f7361626c654f776e61626c653a206e6577206f776e65722069732060408201526f746865207a65726f206164647265737360801b606082015260800190565b634e487b7160e01b600052602160045260246000fd5b6001600160401b0383168152604060208201526000825160a0604084015261489b60e08401826142a7565b90506020840151603f198483030160608501526148b882826142a7565b6040860151858203603f19016080870152805180835260209182019450600093509101905b8083101561491457835180516001600160a01b031683526020908101518184015290930192600192909201916040909101906148dd565b5060608601516001600160a01b031660a08601526080860151858203603f190160c08701529250611acb81846142a7565b60006020828403121561495757600080fd5b5051919050565b634e487b7160e01b600052601160045260246000fd5b8082028115828204841417610b9057610b9061495e565b6000826149a857634e487b7160e01b600052601260045260246000fd5b500490565b634e487b7160e01b600052603260045260246000fd5b600081518084526020840193506020830160005b828110156149fe5781516001600160a01b03168652602095860195909101906001016149d7565b5093949350505050565b82815260406020820152600061153860408301846149c3565b600082601f830112614a3257600080fd5b8151614a4061469d8261465b565b8082825260208201915060208360051b860101925085831115614a6257600080fd5b602085015b83811015614710578051835260209283019201614a67565b600060208284031215614a9157600080fd5b81516001600160401b03811115614aa757600080fd5b61153884828501614a21565b6020808252602b908201527f496e697469616c697a61626c653a20636f6e7472616374206973206e6f74206960408201526a6e697469616c697a696e6760a81b606082015260800190565b60ff8281168282160390811115610b9057610b9061495e565b6001815b6001841115614b5257808504811115614b3657614b3661495e565b6001841615614b4457908102905b60019390931c928002614b1b565b935093915050565b600082614b6957506001610b90565b81614b7657506000610b90565b8160018114614b8c5760028114614b9657614bb2565b6001915050610b90565b60ff841115614ba757614ba761495e565b50506001821b610b90565b5060208310610133831016604e8410600b8410161715614bd5575081810a610b90565b614be26000198484614b17565b8060001904821115614bf657614bf661495e565b029392505050565b6000610f6360ff841683614b5a565b80820260008212600160ff1b84141615614c2957614c2961495e565b8181058314821517610b9057610b9061495e565b600060208284031215614c4f57600080fd5b8151610f638161407a565b600082601f830112614c6b57600080fd5b8151614c7961469d8261465b565b8082825260208201915060208360051b860101925085831115614c9b57600080fd5b602085015b83811015614710578051614cb38161407a565b835260209283019201614ca0565b600080600080600080600080610100898b031215614cde57600080fd5b885160208a01519098506001600160401b03811115614cfc57600080fd5b614d088b828c01614c5a565b97505060408901516001600160401b03811115614d2457600080fd5b614d308b828c01614c5a565b96505060608901516001600160401b03811115614d4c57600080fd5b614d588b828c01614a21565b95505060808901516001600160401b03811115614d7457600080fd5b614d808b828c01614a21565b60a08b015160c08c0151919650945090506001600160401b03811115614da557600080fd5b614db18b828c01614a21565b92505060e08901516001600160401b03811115614dcd57600080fd5b614dd98b828c01614a21565b9150509295985092959890939650565b80820180821115610b9057610b9061495e565b81516001600160a01b03908116825260208084015182169083015260408084015162ffffff169083015260608084015191821690830152610100820190506080830151608083015260a083015160a083015260c083015160c083015260e0830151614e7260e08401826001600160a01b03169052565b5092915050565b85815284602082015260a06040820152600061432060a08301866149c3565b600081518084526020840193506020830160005b828110156149fe578151865260209586019590910190600101614eac565b60ff8716815260c060208201526000614ee660c08301886149c3565b8281036040840152614ef881886149c3565b90508560608401528281036080840152614f128186614e98565b905082810360a0840152614f268185614e98565b9998505050505050505050565b6001600160a01b039384168152919092166020820152604081019190915260600190565b81810381811115610b9057610b9061495e56fea2646970667358221220303a25af7f5798cb3d3592ce3f0c5b8aa287087599367f16611254747255f79164736f6c634300081a0033","linkReferences":{}},"methodIdentifiers":{"ccipReceive((bytes32,uint64,bytes,bytes,(address,uint256)[]))":"85572ffb","convertEthToUsd(uint256)":"c086381e","crossChainToken(uint64)":"19da7e2a","crossChainTokenSwapFee(uint64,address)":"652354ae","currentChainSelector()":"3d54cb6f","estimateAmountOut(address,address,uint128,uint24)":"ee7bd3e2","factoryV3()":"1d5f45f5","fee()":"ddca3f43","feeRate()":"978bbdb9","feeRatePerDayScaled()":"2fecd589","feeReceiver()":"b3f00674","feeTimestamp()":"184a732f","getAmountOut(address,address,uint256,uint24)":"dd811ac9","getRouter()":"b0f479a1","i_link()":"7d253aff","i_maxTokensLength()":"5b6a0351","initialize(uint64,address,address,address,address,address,address,address,address)":"17c27b76","isRestricted(address)":"c01bc982","issuanceCompletedTokensCount(uint256)":"94037369","issuanceMessageIdByNonce(uint256)":"9121c717","issuanceTokenOldAndNewValues(uint256,address)":"81b15279","latestFeeUpdate()":"011ced5f","messageDetail(bytes32)":"9c3ddb2e","methodologist()":"9f8e67bf","methodology()":"9eeb1d50","minter()":"07546172","oraclePayment()":"0c02e130","owner()":"8da5cb5b","pause()":"8456cb59","paused()":"5c975abb","priceInWei()":"3c8da588","priceOracle()":"2630c12f","proposeOwner(address)":"b5ed298a","proposedOwner()":"d153b60c","quoter()":"c6bbd5a7","receivedMessages(uint256)":"d030366c","redemptionMessageIdByNonce(uint256)":"306b3a28","renounceOwnership()":"715018a6","sendMessage(uint64,address,bytes,uint8)":"bcab90b3","setCcipRouter(address)":"27bf9b44","setCrossChainToken(uint64,address,uint24)":"f0cd5b72","setPriceOracle(address)":"530e784f","setVault(address)":"6817031b","sourceChainSelectorF()":"ff5474f0","supplyCeiling()":"2b52684d","supportsInterface(bytes4)":"01ffc9a7","swap(address,address,uint256,address,uint24)":"7e79f512","swapRouterV2()":"744fbc7a","swapRouterV3()":"b631e80b","testData()":"016cbd51","testData2()":"3421fa29","testData3()":"2b0f9e0a","toUsdPriceFeed()":"63973fda","transferOwnership(address)":"f2fde38b","unpause()":"3f4ba83a","vault()":"fbfa77cf","weth()":"3fc8cef3"},"id":45}