{"abi":[{"type":"receive","stateMutability":"payable"},{"type":"function","name":"ccipReceive","inputs":[{"name":"message","type":"tuple","internalType":"struct Client.Any2EVMMessage","components":[{"name":"messageId","type":"bytes32","internalType":"bytes32"},{"name":"sourceChainSelector","type":"uint64","internalType":"uint64"},{"name":"sender","type":"bytes","internalType":"bytes"},{"name":"data","type":"bytes","internalType":"bytes"},{"name":"destTokenAmounts","type":"tuple[]","internalType":"struct Client.EVMTokenAmount[]","components":[{"name":"token","type":"address","internalType":"address"},{"name":"amount","type":"uint256","internalType":"uint256"}]}]}],"outputs":[],"stateMutability":"nonpayable"},{"type":"function","name":"convertEthToUsd","inputs":[{"name":"_ethAmount","type":"uint256","internalType":"uint256"}],"outputs":[{"name":"","type":"uint256","internalType":"uint256"}],"stateMutability":"view"},{"type":"function","name":"crossChainToken","inputs":[{"name":"","type":"uint64","internalType":"uint64"}],"outputs":[{"name":"","type":"address","internalType":"address"}],"stateMutability":"view"},{"type":"function","name":"crossChainTokenSwapFee","inputs":[{"name":"","type":"uint64","internalType":"uint64"},{"name":"","type":"address","internalType":"address"}],"outputs":[{"name":"","type":"uint24","internalType":"uint24"}],"stateMutability":"view"},{"type":"function","name":"currentChainSelector","inputs":[],"outputs":[{"name":"","type":"uint64","internalType":"uint64"}],"stateMutability":"view"},{"type":"function","name":"estimateAmountOut","inputs":[{"name":"tokenIn","type":"address","internalType":"address"},{"name":"tokenOut","type":"address","internalType":"address"},{"name":"amountIn","type":"uint128","internalType":"uint128"},{"name":"fee","type":"uint24","internalType":"uint24"}],"outputs":[{"name":"amountOut","type":"uint256","internalType":"uint256"}],"stateMutability":"view"},{"type":"function","name":"factoryV3","inputs":[],"outputs":[{"name":"","type":"address","internalType":"contract IUniswapV3Factory"}],"stateMutability":"view"},{"type":"function","name":"fee","inputs":[],"outputs":[{"name":"","type":"uint256","internalType":"uint256"}],"stateMutability":"view"},{"type":"function","name":"feeRate","inputs":[],"outputs":[{"name":"","type":"uint8","internalType":"uint8"}],"stateMutability":"view"},{"type":"function","name":"feeRatePerDayScaled","inputs":[],"outputs":[{"name":"","type":"uint256","internalType":"uint256"}],"stateMutability":"view"},{"type":"function","name":"feeReceiver","inputs":[],"outputs":[{"name":"","type":"address","internalType":"address"}],"stateMutability":"view"},{"type":"function","name":"feeTimestamp","inputs":[],"outputs":[{"name":"","type":"uint256","internalType":"uint256"}],"stateMutability":"view"},{"type":"function","name":"getAmountOut","inputs":[{"name":"tokenIn","type":"address","internalType":"address"},{"name":"tokenOut","type":"address","internalType":"address"},{"name":"amountIn","type":"uint256","internalType":"uint256"},{"name":"_swapFee","type":"uint24","internalType":"uint24"}],"outputs":[{"name":"finalAmountOut","type":"uint256","internalType":"uint256"}],"stateMutability":"view"},{"type":"function","name":"getPendingRequest","inputs":[{"name":"requestId","type":"bytes32","internalType":"bytes32"}],"outputs":[{"name":"","type":"address","internalType":"address"}],"stateMutability":"view"},{"type":"function","name":"getRouter","inputs":[],"outputs":[{"name":"","type":"address","internalType":"address"}],"stateMutability":"view"},{"type":"function","name":"i_link","inputs":[],"outputs":[{"name":"","type":"address","internalType":"address"}],"stateMutability":"view"},{"type":"function","name":"i_maxTokensLength","inputs":[],"outputs":[{"name":"","type":"uint16","internalType":"uint16"}],"stateMutability":"view"},{"type":"function","name":"initialize","inputs":[{"name":"_currentChainSelector","type":"uint64","internalType":"uint64"},{"name":"_vault","type":"address","internalType":"address payable"},{"name":"_chainlinkToken","type":"address","internalType":"address"},{"name":"_router","type":"address","internalType":"address"},{"name":"_weth","type":"address","internalType":"address"},{"name":"_swapRouterV3","type":"address","internalType":"address"},{"name":"_factoryV3","type":"address","internalType":"address"},{"name":"_swapRouterV2","type":"address","internalType":"address"},{"name":"_toUsdPriceFeed","type":"address","internalType":"address"}],"outputs":[],"stateMutability":"nonpayable"},{"type":"function","name":"isRestricted","inputs":[{"name":"","type":"address","internalType":"address"}],"outputs":[{"name":"","type":"bool","internalType":"bool"}],"stateMutability":"view"},{"type":"function","name":"issuanceCompletedTokensCount","inputs":[{"name":"","type":"uint256","internalType":"uint256"}],"outputs":[{"name":"","type":"uint256","internalType":"uint256"}],"stateMutability":"view"},{"type":"function","name":"issuanceMessageIdByNonce","inputs":[{"name":"","type":"uint256","internalType":"uint256"}],"outputs":[{"name":"","type":"bytes32","internalType":"bytes32"}],"stateMutability":"view"},{"type":"function","name":"issuanceTokenOldAndNewValues","inputs":[{"name":"","type":"uint256","internalType":"uint256"},{"name":"","type":"address","internalType":"address"}],"outputs":[{"name":"oldTokenValue","type":"uint256","internalType":"uint256"},{"name":"newTokenValue","type":"uint256","internalType":"uint256"}],"stateMutability":"view"},{"type":"function","name":"latestFeeUpdate","inputs":[],"outputs":[{"name":"","type":"uint256","internalType":"uint256"}],"stateMutability":"view"},{"type":"function","name":"messageDetail","inputs":[{"name":"","type":"bytes32","internalType":"bytes32"}],"outputs":[{"name":"sourceChainSelector","type":"uint64","internalType":"uint64"},{"name":"sender","type":"address","internalType":"address"},{"name":"message","type":"string","internalType":"string"},{"name":"token","type":"address","internalType":"address"},{"name":"amount","type":"uint256","internalType":"uint256"}],"stateMutability":"view"},{"type":"function","name":"methodologist","inputs":[],"outputs":[{"name":"","type":"address","internalType":"address"}],"stateMutability":"view"},{"type":"function","name":"methodology","inputs":[],"outputs":[{"name":"","type":"string","internalType":"string"}],"stateMutability":"view"},{"type":"function","name":"minter","inputs":[],"outputs":[{"name":"","type":"address","internalType":"address"}],"stateMutability":"view"},{"type":"function","name":"oraclePayment","inputs":[],"outputs":[{"name":"","type":"uint256","internalType":"uint256"}],"stateMutability":"view"},{"type":"function","name":"owner","inputs":[],"outputs":[{"name":"","type":"address","internalType":"address"}],"stateMutability":"view"},{"type":"function","name":"pause","inputs":[],"outputs":[],"stateMutability":"nonpayable"},{"type":"function","name":"paused","inputs":[],"outputs":[{"name":"","type":"bool","internalType":"bool"}],"stateMutability":"view"},{"type":"function","name":"priceInWei","inputs":[],"outputs":[{"name":"","type":"uint256","internalType":"uint256"}],"stateMutability":"view"},{"type":"function","name":"priceOracle","inputs":[],"outputs":[{"name":"","type":"address","internalType":"address"}],"stateMutability":"view"},{"type":"function","name":"proposeOwner","inputs":[{"name":"_proposedOwner","type":"address","internalType":"address"}],"outputs":[],"stateMutability":"nonpayable"},{"type":"function","name":"proposedOwner","inputs":[],"outputs":[{"name":"","type":"address","internalType":"address"}],"stateMutability":"view"},{"type":"function","name":"quoter","inputs":[],"outputs":[{"name":"","type":"address","internalType":"contract IQuoter"}],"stateMutability":"view"},{"type":"function","name":"receivedMessages","inputs":[{"name":"","type":"uint256","internalType":"uint256"}],"outputs":[{"name":"","type":"bytes32","internalType":"bytes32"}],"stateMutability":"view"},{"type":"function","name":"redemptionMessageIdByNonce","inputs":[{"name":"","type":"uint256","internalType":"uint256"}],"outputs":[{"name":"","type":"bytes32","internalType":"bytes32"}],"stateMutability":"view"},{"type":"function","name":"renounceOwnership","inputs":[],"outputs":[],"stateMutability":"nonpayable"},{"type":"function","name":"sendMessage","inputs":[{"name":"destinationChainSelector","type":"uint64","internalType":"uint64"},{"name":"receiver","type":"address","internalType":"address"},{"name":"_data","type":"bytes","internalType":"bytes"},{"name":"payFeesIn","type":"uint8","internalType":"enum CrossChainIndexFactory.PayFeesIn"}],"outputs":[{"name":"","type":"bytes32","internalType":"bytes32"}],"stateMutability":"nonpayable"},{"type":"function","name":"setCcipRouter","inputs":[{"name":"_router","type":"address","internalType":"address"}],"outputs":[],"stateMutability":"nonpayable"},{"type":"function","name":"setCrossChainToken","inputs":[{"name":"_chainSelector","type":"uint64","internalType":"uint64"},{"name":"_crossChainToken","type":"address","internalType":"address"},{"name":"_swapFee","type":"uint24","internalType":"uint24"}],"outputs":[],"stateMutability":"nonpayable"},{"type":"function","name":"setPriceOracle","inputs":[{"name":"_priceOracle","type":"address","internalType":"address"}],"outputs":[],"stateMutability":"nonpayable"},{"type":"function","name":"setVault","inputs":[{"name":"_vault","type":"address","internalType":"address payable"}],"outputs":[],"stateMutability":"nonpayable"},{"type":"function","name":"sourceChainSelectorF","inputs":[],"outputs":[{"name":"","type":"uint64","internalType":"uint64"}],"stateMutability":"view"},{"type":"function","name":"supplyCeiling","inputs":[],"outputs":[{"name":"","type":"uint256","internalType":"uint256"}],"stateMutability":"view"},{"type":"function","name":"supportsInterface","inputs":[{"name":"interfaceId","type":"bytes4","internalType":"bytes4"}],"outputs":[{"name":"","type":"bool","internalType":"bool"}],"stateMutability":"pure"},{"type":"function","name":"swap","inputs":[{"name":"tokenIn","type":"address","internalType":"address"},{"name":"tokenOut","type":"address","internalType":"address"},{"name":"amountIn","type":"uint256","internalType":"uint256"},{"name":"_recipient","type":"address","internalType":"address"},{"name":"_swapFee","type":"uint24","internalType":"uint24"}],"outputs":[{"name":"outputAmount","type":"uint256","internalType":"uint256"}],"stateMutability":"nonpayable"},{"type":"function","name":"swapRouterV2","inputs":[],"outputs":[{"name":"","type":"address","internalType":"contract IUniswapV2Router02"}],"stateMutability":"view"},{"type":"function","name":"swapRouterV3","inputs":[],"outputs":[{"name":"","type":"address","internalType":"contract ISwapRouter"}],"stateMutability":"view"},{"type":"function","name":"toUsdPriceFeed","inputs":[],"outputs":[{"name":"","type":"address","internalType":"contract AggregatorV3Interface"}],"stateMutability":"view"},{"type":"function","name":"transferOwnership","inputs":[{"name":"newOwner","type":"address","internalType":"address"}],"outputs":[],"stateMutability":"nonpayable"},{"type":"function","name":"unpause","inputs":[],"outputs":[],"stateMutability":"nonpayable"},{"type":"function","name":"vault","inputs":[],"outputs":[{"name":"","type":"address","internalType":"contract Vault"}],"stateMutability":"view"},{"type":"function","name":"weth","inputs":[],"outputs":[{"name":"","type":"address","internalType":"contract IWETH"}],"stateMutability":"view"},{"type":"event","name":"ChainlinkCancelled","inputs":[{"name":"id","type":"bytes32","indexed":true,"internalType":"bytes32"}],"anonymous":false},{"type":"event","name":"ChainlinkFulfilled","inputs":[{"name":"id","type":"bytes32","indexed":true,"internalType":"bytes32"}],"anonymous":false},{"type":"event","name":"ChainlinkRequested","inputs":[{"name":"id","type":"bytes32","indexed":true,"internalType":"bytes32"}],"anonymous":false},{"type":"event","name":"Initialized","inputs":[{"name":"version","type":"uint8","indexed":false,"internalType":"uint8"}],"anonymous":false},{"type":"event","name":"Issuanced","inputs":[{"name":"messageId","type":"bytes32","indexed":true,"internalType":"bytes32"},{"name":"nonce","type":"uint256","indexed":true,"internalType":"uint256"},{"name":"time","type":"uint256","indexed":false,"internalType":"uint256"}],"anonymous":false},{"type":"event","name":"MessageSent","inputs":[{"name":"messageId","type":"bytes32","indexed":false,"internalType":"bytes32"}],"anonymous":false},{"type":"event","name":"OwnershipTransferred","inputs":[{"name":"previousOwner","type":"address","indexed":true,"internalType":"address"},{"name":"newOwner","type":"address","indexed":true,"internalType":"address"}],"anonymous":false},{"type":"event","name":"Paused","inputs":[{"name":"account","type":"address","indexed":false,"internalType":"address"}],"anonymous":false},{"type":"event","name":"Redemption","inputs":[{"name":"messageId","type":"bytes32","indexed":true,"internalType":"bytes32"},{"name":"nonce","type":"uint256","indexed":true,"internalType":"uint256"},{"name":"time","type":"uint256","indexed":false,"internalType":"uint256"}],"anonymous":false},{"type":"event","name":"Unpaused","inputs":[{"name":"account","type":"address","indexed":false,"internalType":"address"}],"anonymous":false},{"type":"error","name":"InvalidRouter","inputs":[{"name":"router","type":"address","internalType":"address"}]}],"bytecode":{"object":"0x6080604052348015600e575f80fd5b50617cd18061001c5f395ff3fe608060405260043610610353575f3560e01c806381b15279116101c5578063b631e80b116100f6578063dd811ac911610094578063f0cd5b721161006e578063f0cd5b7214610c99578063f2fde38b14610cc1578063fbfa77cf14610ce9578063ff5474f014610d135761035a565b8063dd811ac914610bf7578063ddca3f4314610c33578063ee7bd3e214610c5d5761035a565b8063c086381e116100d0578063c086381e14610b2b578063c6bbd5a714610b67578063d030366c14610b91578063d153b60c14610bcd5761035a565b8063b631e80b14610a89578063bcab90b314610ab3578063c01bc98214610aef5761035a565b8063978bbdb9116101635780639f8e67bf1161013d5780639f8e67bf146109e3578063b0f479a114610a0d578063b3f0067414610a37578063b5ed298a14610a615761035a565b8063978bbdb91461094f5780639c3ddb2e146109795780639eeb1d50146109b95761035a565b806388b12d551161019f57806388b12d55146108715780638da5cb5b146108ad5780639121c717146108d757806394037369146109135761035a565b806381b15279146107f65780638456cb591461083357806385572ffb146108495761035a565b80633c8da5881161029f57806363973fda1161023d578063715018a611610217578063715018a614610750578063744fbc7a146107665780637d253aff146107905780637e79f512146107ba5761035a565b806363973fda146106c2578063652354ae146106ec5780636817031b146107285761035a565b80633fc8cef3116102795780633fc8cef31461061c578063530e784f146106465780635b6a03511461066e5780635c975abb146106985761035a565b80633c8da588146105b25780633d54cb6f146105dc5780633f4ba83a146106065761035a565b806319da7e2a1161030c57806327bf9b44116102e657806327bf9b44146104fa5780632b52684d146105225780632fecd5891461054c578063306b3a28146105765761035a565b806319da7e2a1461046a5780631d5f45f5146104a65780632630c12f146104d05761035a565b8063011ced5f1461035e57806301ffc9a71461038857806307546172146103c45780630c02e130146103ee57806317c27b7614610418578063184a732f146104405761035a565b3661035a57005b5f80fd5b348015610369575f80fd5b50610372610d3d565b60405161037f919061563c565b60405180910390f35b348015610393575f80fd5b506103ae60048036038101906103a991906156bb565b610d43565b6040516103bb9190615700565b60405180910390f35b3480156103cf575f80fd5b506103d8610e14565b6040516103e59190615758565b60405180910390f35b3480156103f9575f80fd5b50610402610e39565b60405161040f919061563c565b60405180910390f35b348015610423575f80fd5b5061043e60048036038101906104399190615813565b610e3f565b005b34801561044b575f80fd5b50610454611294565b604051610461919061563c565b60405180910390f35b348015610475575f80fd5b50610490600480360381019061048b91906158d7565b61129a565b60405161049d9190615758565b60405180910390f35b3480156104b1575f80fd5b506104ba6112ca565b6040516104c7919061595d565b60405180910390f35b3480156104db575f80fd5b506104e46112ef565b6040516104f19190615758565b60405180910390f35b348015610505575f80fd5b50610520600480360381019061051b9190615976565b611314565b005b34801561052d575f80fd5b5061053661135f565b604051610543919061563c565b60405180910390f35b348015610557575f80fd5b50610560611365565b60405161056d919061563c565b60405180910390f35b348015610581575f80fd5b5061059c600480360381019061059791906159cb565b61136b565b6040516105a99190615a0e565b60405180910390f35b3480156105bd575f80fd5b506105c6611380565b6040516105d3919061563c565b60405180910390f35b3480156105e7575f80fd5b506105f06114bd565b6040516105fd9190615a36565b60405180910390f35b348015610611575f80fd5b5061061a6114d6565b005b348015610627575f80fd5b506106306114e8565b60405161063d9190615a6f565b60405180910390f35b348015610651575f80fd5b5061066c60048036038101906106679190615976565b61150d565b005b348015610679575f80fd5b506106826115c6565b60405161068f9190615aa4565b60405180910390f35b3480156106a3575f80fd5b506106ac6115da565b6040516106b99190615700565b60405180910390f35b3480156106cd575f80fd5b506106d66115ef565b6040516106e39190615add565b60405180910390f35b3480156106f7575f80fd5b50610712600480360381019061070d9190615af6565b611614565b60405161071f9190615b51565b60405180910390f35b348015610733575f80fd5b5061074e60048036038101906107499190615b6a565b611640565b005b34801561075b575f80fd5b5061076461168b565b005b348015610771575f80fd5b5061077a61169e565b6040516107879190615bb5565b60405180910390f35b34801561079b575f80fd5b506107a46116c3565b6040516107b19190615758565b60405180910390f35b3480156107c5575f80fd5b506107e060048036038101906107db9190615bf8565b6116e8565b6040516107ed919061563c565b60405180910390f35b348015610801575f80fd5b5061081c60048036038101906108179190615c6f565b611745565b60405161082a929190615cad565b60405180910390f35b34801561083e575f80fd5b50610847611770565b005b348015610854575f80fd5b5061086f600480360381019061086a9190615cf6565b611782565b005b34801561087c575f80fd5b5061089760048036038101906108929190615d67565b611828565b6040516108a49190615758565b60405180910390f35b3480156108b8575f80fd5b506108c1611861565b6040516108ce9190615758565b60405180910390f35b3480156108e2575f80fd5b506108fd60048036038101906108f891906159cb565b611889565b60405161090a9190615a0e565b60405180910390f35b34801561091e575f80fd5b50610939600480360381019061093491906159cb565b61189e565b604051610946919061563c565b60405180910390f35b34801561095a575f80fd5b506109636118b3565b6040516109709190615dad565b60405180910390f35b348015610984575f80fd5b5061099f600480360381019061099a9190615d67565b6118c5565b6040516109b0959493929190615e36565b60405180910390f35b3480156109c4575f80fd5b506109cd6119ce565b6040516109da9190615e8e565b60405180910390f35b3480156109ee575f80fd5b506109f7611a5a565b604051610a049190615758565b60405180910390f35b348015610a18575f80fd5b50610a21611a7f565b604051610a2e9190615758565b60405180910390f35b348015610a42575f80fd5b50610a4b611aa7565b604051610a589190615758565b60405180910390f35b348015610a6c575f80fd5b50610a876004803603810190610a829190615976565b611acc565b005b348015610a94575f80fd5b50610a9d611b85565b604051610aaa9190615ece565b60405180910390f35b348015610abe575f80fd5b50610ad96004803603810190610ad49190616036565b611baa565b604051610ae69190615a0e565b60405180910390f35b348015610afa575f80fd5b50610b156004803603810190610b109190615976565b611f1c565b604051610b229190615700565b60405180910390f35b348015610b36575f80fd5b50610b516004803603810190610b4c91906159cb565b611f39565b604051610b5e919061563c565b60405180910390f35b348015610b72575f80fd5b50610b7b611f67565b604051610b8891906160d6565b60405180910390f35b348015610b9c575f80fd5b50610bb76004803603810190610bb291906159cb565b611f8c565b604051610bc49190615a0e565b60405180910390f35b348015610bd8575f80fd5b50610be1611fac565b604051610bee9190615758565b60405180910390f35b348015610c02575f80fd5b50610c1d6004803603810190610c1891906160ef565b611fd1565b604051610c2a919061563c565b60405180910390f35b348015610c3e575f80fd5b50610c476121af565b604051610c54919061563c565b60405180910390f35b348015610c68575f80fd5b50610c836004803603810190610c7e9190616198565b6121b5565b604051610c90919061563c565b60405180910390f35b348015610ca4575f80fd5b50610cbf6004803603810190610cba91906161fc565b612282565b005b348015610ccc575f80fd5b50610ce76004803603810190610ce29190615976565b61236e565b005b348015610cf4575f80fd5b50610cfd6124e5565b604051610d0a919061626c565b60405180910390f35b348015610d1e575f80fd5b50610d2761250a565b604051610d349190615a36565b60405180910390f35b60d65481565b5f7f85572ffb000000000000000000000000000000000000000000000000000000007bffffffffffffffffffffffffffffffffffffffffffffffffffffffff1916827bffffffffffffffffffffffffffffffffffffffffffffffffffffffff19161480610e0d57507f01ffc9a7000000000000000000000000000000000000000000000000000000007bffffffffffffffffffffffffffffffffffffffffffffffffffffffff1916827bffffffffffffffffffffffffffffffffffffffffffffffffffffffff1916145b9050919050565b60dd5f9054906101000a900473ffffffffffffffffffffffffffffffffffffffff1681565b60e15481565b5f8060019054906101000a900460ff16159050808015610e6e575060015f8054906101000a900460ff1660ff16105b80610e9a5750610e7d30612523565b158015610e99575060015f8054906101000a900460ff1660ff16145b5b610ed9576040517f08c379a0000000000000000000000000000000000000000000000000000000008152600401610ed0906162f5565b60405180910390fd5b60015f806101000a81548160ff021916908360ff1602179055508015610f145760015f60016101000a81548160ff0219169083151502179055505b610f1c612545565b610f2461259d565b8960d75f6101000a81548167ffffffffffffffff021916908367ffffffffffffffff1602179055508860d35f6101000a81548173ffffffffffffffffffffffffffffffffffffffff021916908373ffffffffffffffffffffffffffffffffffffffff160217905550610f95886125f5565b865f60026101000a81548173ffffffffffffffffffffffffffffffffffffffff021916908373ffffffffffffffffffffffffffffffffffffffff1602179055508760d05f6101000a81548173ffffffffffffffffffffffffffffffffffffffff021916908373ffffffffffffffffffffffffffffffffffffffff160217905550600560d060146101000a81548161ffff021916908361ffff1602179055508773ffffffffffffffffffffffffffffffffffffffff1663095ea7b35f60029054906101000a900473ffffffffffffffffffffffffffffffffffffffff167fffffffffffffffffffffffffffffffffffffffffffffffffffffffffffffffff6040518363ffffffff1660e01b81526004016110af929190616313565b6020604051808303815f875af11580156110cb573d5f803e3d5ffd5b505050506040513d601f19601f820116820180604052508101906110ef9190616364565b508560e65f6101000a81548173ffffffffffffffffffffffffffffffffffffffff021916908373ffffffffffffffffffffffffffffffffffffffff1602179055508460e35f6101000a81548173ffffffffffffffffffffffffffffffffffffffff021916908373ffffffffffffffffffffffffffffffffffffffff1602179055508360e45f6101000a81548173ffffffffffffffffffffffffffffffffffffffff021916908373ffffffffffffffffffffffffffffffffffffffff1602179055508260e55f6101000a81548173ffffffffffffffffffffffffffffffffffffffff021916908373ffffffffffffffffffffffffffffffffffffffff1602179055508160e25f6101000a81548173ffffffffffffffffffffffffffffffffffffffff021916908373ffffffffffffffffffffffffffffffffffffffff1602179055508015611288575f8060016101000a81548160ff0219169083151502179055507f7f26b83ff96e1f2b6a682f133852f6798a09c465da95921460cefb3847402498600160405161127f91906163c8565b60405180910390a15b50505050505050505050565b60d95481565b60e8602052805f5260405f205f915054906101000a900473ffffffffffffffffffffffffffffffffffffffff1681565b60e45f9054906101000a900473ffffffffffffffffffffffffffffffffffffffff1681565b60dc5f9054906101000a900473ffffffffffffffffffffffffffffffffffffffff1681565b61131c612638565b805f60026101000a81548173ffffffffffffffffffffffffffffffffffffffff021916908373ffffffffffffffffffffffffffffffffffffffff16021790555050565b60df5481565b60d85481565b60ee602052805f5260405f205f915090505481565b5f8060e25f9054906101000a900473ffffffffffffffffffffffffffffffffffffffff1673ffffffffffffffffffffffffffffffffffffffff1663feaf968c6040518163ffffffff1660e01b815260040160a060405180830381865afa1580156113ec573d5f803e3d5ffd5b505050506040513d601f19601f820116820180604052508101906114109190616467565b5050509150505f60e25f9054906101000a900473ffffffffffffffffffffffffffffffffffffffff1673ffffffffffffffffffffffffffffffffffffffff1663313ce5676040518163ffffffff1660e01b8152600401602060405180830381865afa158015611481573d5f803e3d5ffd5b505050506040513d601f19601f820116820180604052508101906114a59190616508565b90506114b3828260126126b6565b9150819250505090565b60d75f9054906101000a900467ffffffffffffffff1681565b6114de612638565b6114e661271c565b565b60e65f9054906101000a900473ffffffffffffffffffffffffffffffffffffffff1681565b611515612638565b5f73ffffffffffffffffffffffffffffffffffffffff168173ffffffffffffffffffffffffffffffffffffffff1603611583576040517f08c379a000000000000000000000000000000000000000000000000000000000815260040161157a906165a3565b60405180910390fd5b8060dc5f6101000a81548173ffffffffffffffffffffffffffffffffffffffff021916908373ffffffffffffffffffffffffffffffffffffffff16021790555050565b60d060149054906101000a900461ffff1681565b5f609e5f9054906101000a900460ff16905090565b60e25f9054906101000a900473ffffffffffffffffffffffffffffffffffffffff1681565b60e9602052815f5260405f20602052805f5260405f205f915091509054906101000a900462ffffff1681565b611648612638565b8060d35f6101000a81548173ffffffffffffffffffffffffffffffffffffffff021916908373ffffffffffffffffffffffffffffffffffffffff16021790555050565b611693612638565b61169c5f61277d565b565b60e55f9054906101000a900473ffffffffffffffffffffffffffffffffffffffff1681565b60d05f9054906101000a900473ffffffffffffffffffffffffffffffffffffffff1681565b5f61173a60e35f9054906101000a900473ffffffffffffffffffffffffffffffffffffffff1660e55f9054906101000a900473ffffffffffffffffffffffffffffffffffffffff168489898989612840565b905095945050505050565b60ec602052815f5260405f20602052805f5260405f205f9150915050805f0154908060010154905082565b611778612638565b61178061287e565b565b5f60029054906101000a900473ffffffffffffffffffffffffffffffffffffffff1673ffffffffffffffffffffffffffffffffffffffff163373ffffffffffffffffffffffffffffffffffffffff161461181357336040517fd7f7333400000000000000000000000000000000000000000000000000000000815260040161180a9190615758565b60405180910390fd5b61182581611820906167b7565b6128e0565b50565b5f60065f8381526020019081526020015f205f9054906101000a900473ffffffffffffffffffffffffffffffffffffffff169050919050565b5f60395f9054906101000a900473ffffffffffffffffffffffffffffffffffffffff16905090565b60ef602052805f5260405f205f915090505481565b60ed602052805f5260405f205f915090505481565b60d55f9054906101000a900460ff1681565b60d2602052805f5260405f205f91509050805f015f9054906101000a900467ffffffffffffffff1690805f0160089054906101000a900473ffffffffffffffffffffffffffffffffffffffff1690806001018054611922906167f6565b80601f016020809104026020016040519081016040528092919081815260200182805461194e906167f6565b80156119995780601f1061197057610100808354040283529160200191611999565b820191905f5260205f20905b81548152906001019060200180831161197c57829003601f168201915b505050505090806002015f9054906101000a900473ffffffffffffffffffffffffffffffffffffffff16908060030154905085565b60de80546119db906167f6565b80601f0160208091040260200160405190810160405280929190818152602001828054611a07906167f6565b8015611a525780601f10611a2957610100808354040283529160200191611a52565b820191905f5260205f20905b815481529060010190602001808311611a3557829003601f168201915b505050505081565b60db5f9054906101000a900473ffffffffffffffffffffffffffffffffffffffff1681565b5f8060029054906101000a900473ffffffffffffffffffffffffffffffffffffffff16905090565b60da5f9054906101000a900473ffffffffffffffffffffffffffffffffffffffff1681565b611ad4612638565b5f73ffffffffffffffffffffffffffffffffffffffff168173ffffffffffffffffffffffffffffffffffffffff1603611b42576040517f08c379a0000000000000000000000000000000000000000000000000000000008152600401611b3990616896565b60405180910390fd5b80606b5f6101000a81548173ffffffffffffffffffffffffffffffffffffffff021916908373ffffffffffffffffffffffffffffffffffffffff16021790555050565b60e35f9054906101000a900473ffffffffffffffffffffffffffffffffffffffff1681565b5f806040518060a0016040528086604051602001611bc89190615758565b60405160208183030381529060405281526020018581526020015f67ffffffffffffffff811115611bfc57611bfb615eef565b5b604051908082528060200260200182016040528015611c3557816020015b611c2261552c565b815260200190600190039081611c1a5790505b508152602001600180811115611c4e57611c4d6168b4565b5b856001811115611c6157611c606168b4565b5b14611c6c575f611c8f565b60d05f9054906101000a900473ffffffffffffffffffffffffffffffffffffffff165b73ffffffffffffffffffffffffffffffffffffffff168152602001611cc46040518060200160405280620dbba0815250612aea565b81525090505f8060029054906101000a900473ffffffffffffffffffffffffffffffffffffffff1673ffffffffffffffffffffffffffffffffffffffff166320487ded88846040518363ffffffff1660e01b8152600401611d26929190616aae565b602060405180830381865afa158015611d41573d5f803e3d5ffd5b505050506040513d601f19601f82011682018060405250810190611d659190616adc565b90505f600180811115611d7b57611d7a6168b4565b5b856001811115611d8e57611d8d6168b4565b5b03611e36575f60029054906101000a900473ffffffffffffffffffffffffffffffffffffffff1673ffffffffffffffffffffffffffffffffffffffff166396f4e9f989856040518363ffffffff1660e01b8152600401611def929190616aae565b6020604051808303815f875af1158015611e0b573d5f803e3d5ffd5b505050506040513d601f19601f82011682018060405250810190611e2f9190616b1b565b9050611ed7565b5f60029054906101000a900473ffffffffffffffffffffffffffffffffffffffff1673ffffffffffffffffffffffffffffffffffffffff166396f4e9f9838a866040518463ffffffff1660e01b8152600401611e93929190616aae565b60206040518083038185885af1158015611eaf573d5f803e3d5ffd5b50505050506040513d601f19601f82011682018060405250810190611ed49190616b1b565b90505b7f54791b38f3859327992a1ca0590ad3c0f08feba98d1a4f56ab0dca74d203392a81604051611f069190615a0e565b60405180910390a1809350505050949350505050565b60e0602052805f5260405f205f915054906101000a900460ff1681565b5f670de0b6b3a7640000611f4b611380565b83611f569190616b73565b611f609190616be1565b9050919050565b60e75f9054906101000a900473ffffffffffffffffffffffffffffffffffffffff1681565b60d18181548110611f9b575f80fd5b905f5260205f20015f915090505481565b606b5f9054906101000a900473ffffffffffffffffffffffffffffffffffffffff1681565b5f808311156121a7575f8262ffffff161115611ffa57611ff3858585856121b5565b90506121a6565b5f600267ffffffffffffffff81111561201657612015615eef565b5b6040519080825280602002602001820160405280156120445781602001602082028036833780820191505090505b50905085815f8151811061205b5761205a616c11565b5b602002602001019073ffffffffffffffffffffffffffffffffffffffff16908173ffffffffffffffffffffffffffffffffffffffff168152505084816001815181106120aa576120a9616c11565b5b602002602001019073ffffffffffffffffffffffffffffffffffffffff16908173ffffffffffffffffffffffffffffffffffffffff16815250505f60e55f9054906101000a900473ffffffffffffffffffffffffffffffffffffffff1673ffffffffffffffffffffffffffffffffffffffff1663d06ca61f86846040518363ffffffff1660e01b8152600401612141929190616ce6565b5f60405180830381865afa15801561215b573d5f803e3d5ffd5b505050506040513d5f823e3d601f19601f820116820180604052508101906121839190616dd4565b90508060018151811061219957612198616c11565b5b6020026020010151925050505b5b949350505050565b60d45481565b5f60dc5f9054906101000a900473ffffffffffffffffffffffffffffffffffffffff1673ffffffffffffffffffffffffffffffffffffffff1663bb5705b360e45f9054906101000a900473ffffffffffffffffffffffffffffffffffffffff16878787876040518663ffffffff1660e01b8152600401612239959493929190616e2a565b602060405180830381865afa158015612254573d5f803e3d5ffd5b505050506040513d601f19601f820116820180604052508101906122789190616adc565b9050949350505050565b61228a612638565b8160e85f8567ffffffffffffffff1667ffffffffffffffff1681526020019081526020015f205f6101000a81548173ffffffffffffffffffffffffffffffffffffffff021916908373ffffffffffffffffffffffffffffffffffffffff1602179055508060e95f8567ffffffffffffffff1667ffffffffffffffff1681526020019081526020015f205f8473ffffffffffffffffffffffffffffffffffffffff1673ffffffffffffffffffffffffffffffffffffffff1681526020019081526020015f205f6101000a81548162ffffff021916908362ffffff160217905550505050565b5f73ffffffffffffffffffffffffffffffffffffffff168173ffffffffffffffffffffffffffffffffffffffff16036123dc576040517f08c379a00000000000000000000000000000000000000000000000000000000081526004016123d390616896565b60405180910390fd5b606b5f9054906101000a900473ffffffffffffffffffffffffffffffffffffffff1673ffffffffffffffffffffffffffffffffffffffff168173ffffffffffffffffffffffffffffffffffffffff161461246b576040517f08c379a000000000000000000000000000000000000000000000000000000000815260040161246290616eeb565b60405180910390fd5b3373ffffffffffffffffffffffffffffffffffffffff168173ffffffffffffffffffffffffffffffffffffffff16146124d9576040517f08c379a00000000000000000000000000000000000000000000000000000000081526004016124d090616f79565b60405180910390fd5b6124e28161277d565b50565b60d35f9054906101000a900473ffffffffffffffffffffffffffffffffffffffff1681565b60eb5f9054906101000a900467ffffffffffffffff1681565b5f808273ffffffffffffffffffffffffffffffffffffffff163b119050919050565b5f60019054906101000a900460ff16612593576040517f08c379a000000000000000000000000000000000000000000000000000000000815260040161258a90617007565b60405180910390fd5b61259b612b69565b565b5f60019054906101000a900460ff166125eb576040517f08c379a00000000000000000000000000000000000000000000000000000000081526004016125e290617007565b60405180910390fd5b6125f3612bc9565b565b8060035f6101000a81548173ffffffffffffffffffffffffffffffffffffffff021916908373ffffffffffffffffffffffffffffffffffffffff16021790555050565b612640612c32565b73ffffffffffffffffffffffffffffffffffffffff1661265e611861565b73ffffffffffffffffffffffffffffffffffffffff16146126b4576040517f08c379a00000000000000000000000000000000000000000000000000000000081526004016126ab9061706f565b60405180910390fd5b565b5f8260ff168260ff1611156126ef5782826126d1919061708d565b600a6126dd91906171f0565b846126e8919061723a565b9050612715565b81836126fb919061708d565b600a61270791906171f0565b84612712919061723a565b90505b9392505050565b612724612c39565b5f609e5f6101000a81548160ff0219169083151502179055507f5db9ee0a495bf2e6ff9c91a7834c1ba4fdd244a5e8aa4e537bd38aeae4b073aa612766612c32565b6040516127739190615758565b60405180910390a1565b5f60395f9054906101000a900473ffffffffffffffffffffffffffffffffffffffff1690508160395f6101000a81548173ffffffffffffffffffffffffffffffffffffffff021916908373ffffffffffffffffffffffffffffffffffffffff1602179055508173ffffffffffffffffffffffffffffffffffffffff168173ffffffffffffffffffffffffffffffffffffffff167f8be0079c531659141344cd1fd0a4f28419497f9722a3daafe3b4186f6b6457e060405160405180910390a35050565b5f808662ffffff1611156128635761285c888787878787612c82565b9050612873565b6128708786868686612e2c565b90505b979650505050505050565b6128866130aa565b6001609e5f6101000a81548160ff0219169083151502179055507f62e78cea01bee320cd4e420270b5ea74000d11b0c9f74754ebdbfc544b05a2586128c9612c32565b6040516128d69190615758565b60405180910390a1565b5f816020015190505f826040015180602001905181019061290191906172c4565b90505f805f805f805f808a6060015180602001905181019061292391906173c3565b975097509750975097509750975097505f8803612958575f8b608001519050612952818988878f8f89896130f4565b50612add565b600188036129735761296e8786858d8d866137ca565b612adc565b6002880361298d576129888786858d8d613ea8565b612adb565b60038803612a02576129fd6040518061012001604052808981526020018881526020018781526020018681526020018481526020018c67ffffffffffffffff1681526020018b73ffffffffffffffffffffffffffffffffffffffff16815260200185815260200183815250614275565b612ada565b60048803612ad9575f8b608001519050612ad76040518061016001604052808a8152602001898152602001888152602001878152602001858152602001835f81518110612a5257612a51616c11565b5b60200260200101515f015173ffffffffffffffffffffffffffffffffffffffff168152602001835f81518110612a8b57612a8a616c11565b5b60200260200101516020015181526020018d67ffffffffffffffff1681526020018c73ffffffffffffffffffffffffffffffffffffffff16815260200186815260200184815250614622565b505b5b5b5b5b5050505050505050505050565b60606397a657c960e01b82604051602401612b059190617536565b604051602081830303815290604052907bffffffffffffffffffffffffffffffffffffffffffffffffffffffff19166020820180517bffffffffffffffffffffffffffffffffffffffffffffffffffffffff83818316178352505050509050919050565b5f60019054906101000a900460ff16612bb7576040517f08c379a0000000000000000000000000000000000000000000000000000000008152600401612bae90617007565b60405180910390fd5b612bc7612bc2612c32565b61277d565b565b5f60019054906101000a900460ff16612c17576040517f08c379a0000000000000000000000000000000000000000000000000000000008152600401612c0e90617007565b60405180910390fd5b5f609e5f6101000a81548160ff021916908315150217905550565b5f33905090565b612c416115da565b612c80576040517f08c379a0000000000000000000000000000000000000000000000000000000008152600401612c7790617599565b60405180910390fd5b565b5f8473ffffffffffffffffffffffffffffffffffffffff1663095ea7b388856040518363ffffffff1660e01b8152600401612cbe929190616313565b6020604051808303815f875af1158015612cda573d5f803e3d5ffd5b505050506040513d601f19601f82011682018060405250810190612cfe9190616364565b505f6040518061010001604052808773ffffffffffffffffffffffffffffffffffffffff1681526020018673ffffffffffffffffffffffffffffffffffffffff1681526020018862ffffff1681526020018473ffffffffffffffffffffffffffffffffffffffff16815260200161012c42612d7991906175b7565b81526020018581526020015f81526020015f73ffffffffffffffffffffffffffffffffffffffff1681525090508773ffffffffffffffffffffffffffffffffffffffff1663414bf389826040518263ffffffff1660e01b8152600401612ddf91906176a8565b6020604051808303815f875af1158015612dfb573d5f803e3d5ffd5b505050506040513d601f19601f82011682018060405250810190612e1f9190616adc565b9150509695505050505050565b5f80600267ffffffffffffffff811115612e4957612e48615eef565b5b604051908082528060200260200182016040528015612e775781602001602082028036833780820191505090505b50905085815f81518110612e8e57612e8d616c11565b5b602002602001019073ffffffffffffffffffffffffffffffffffffffff16908173ffffffffffffffffffffffffffffffffffffffff16815250508481600181518110612edd57612edc616c11565b5b602002602001019073ffffffffffffffffffffffffffffffffffffffff16908173ffffffffffffffffffffffffffffffffffffffff16815250505f8773ffffffffffffffffffffffffffffffffffffffff1663d06ca61f86846040518363ffffffff1660e01b8152600401612f53929190616ce6565b5f60405180830381865afa158015612f6d573d5f803e3d5ffd5b505050506040513d5f823e3d601f19601f82011682018060405250810190612f959190616dd4565b90508673ffffffffffffffffffffffffffffffffffffffff1663095ea7b389876040518363ffffffff1660e01b8152600401612fd2929190616313565b6020604051808303815f875af1158015612fee573d5f803e3d5ffd5b505050506040513d601f19601f820116820180604052508101906130129190616364565b508773ffffffffffffffffffffffffffffffffffffffff16635c11d795865f8588426040518663ffffffff1660e01b81526004016130549594939291906176fb565b5f604051808303815f87803b15801561306b575f80fd5b505af115801561307d573d5f803e3d5ffd5b505050508060018151811061309557613094616c11565b5b60200260200101519250505095945050505050565b6130b26115da565b156130f2576040517f08c379a00000000000000000000000000000000000000000000000000000000081526004016130e99061779d565b60405180910390fd5b565b6130fc61555a565b6131f0895f8151811061311257613111616c11565b5b60200260200101515f015160e65f9054906101000a900473ffffffffffffffffffffffffffffffffffffffff168b5f8151811061315257613151616c11565b5b6020026020010151602001513060e95f8b67ffffffffffffffff1667ffffffffffffffff1681526020019081526020015f205f8f5f8151811061319857613197616c11565b5b60200260200101515f015173ffffffffffffffffffffffffffffffffffffffff1673ffffffffffffffffffffffffffffffffffffffff1681526020019081526020015f205f9054906101000a900462ffffff166116e8565b815f018181525050875167ffffffffffffffff81111561321357613212615eef565b5b6040519080825280602002602001820160405280156132415781602001602082028036833780820191505090505b508160200181905250875167ffffffffffffffff81111561326557613264615eef565b5b6040519080825280602002602001820160405280156132935781602001602082028036833780820191505090505b5081604001819052505f5b88518110156136d8575f835f815181106132bb576132ba616c11565b5b60200260200101518583815181106132d6576132d5616c11565b5b6020026020010151845f01516132ec9190616b73565b6132f69190616be1565b90505f60e65f9054906101000a900473ffffffffffffffffffffffffffffffffffffffff1673ffffffffffffffffffffffffffffffffffffffff168b848151811061334457613343616c11565b5b602002602001015173ffffffffffffffffffffffffffffffffffffffff16036134df578a838151811061337a57613379616c11565b5b602002602001015173ffffffffffffffffffffffffffffffffffffffff166370a0823160d35f9054906101000a900473ffffffffffffffffffffffffffffffffffffffff166040518263ffffffff1660e01b81526004016133db9190615758565b602060405180830381865afa1580156133f6573d5f803e3d5ffd5b505050506040513d601f19601f8201168201806040525081019061341a9190616adc565b905060e65f9054906101000a900473ffffffffffffffffffffffffffffffffffffffff1673ffffffffffffffffffffffffffffffffffffffff1663a9059cbb60d35f9054906101000a900473ffffffffffffffffffffffffffffffffffffffff16846040518363ffffffff1660e01b8152600401613499929190616313565b6020604051808303815f875af11580156134b5573d5f803e3d5ffd5b505050506040513d601f19601f820116820180604052508101906134d99190616364565b50613661565b6135da8b84815181106134f5576134f4616c11565b5b602002602001015160e65f9054906101000a900473ffffffffffffffffffffffffffffffffffffffff168d868151811061353257613531616c11565b5b602002602001015173ffffffffffffffffffffffffffffffffffffffff166370a0823160d35f9054906101000a900473ffffffffffffffffffffffffffffffffffffffff166040518263ffffffff1660e01b81526004016135939190615758565b602060405180830381865afa1580156135ae573d5f803e3d5ffd5b505050506040513d601f19601f820116820180604052508101906135d29190616adc565b610bb8611fd1565b905061365f60e65f9054906101000a900473ffffffffffffffffffffffffffffffffffffffff168c858151811061361457613613616c11565b5b60200260200101518460d35f9054906101000a900473ffffffffffffffffffffffffffffffffffffffff168e888151811061365257613651616c11565b5b60200260200101516116e8565b505b5f828261366e91906175b7565b905061367982611f39565b856020015185815181106136905761368f616c11565b5b6020026020010181815250506136a581611f39565b856040015185815181106136bc576136bb616c11565b5b602002602001018181525050505050808060010191505061329e565b505f885f67ffffffffffffffff8111156136f5576136f4615eef565b5b6040519080825280602002602001820160405280156137235781602001602082028036833780820191505090505b50888460200151856040015160405160200161374496959493929190617893565b60405160208183030381529060405281606001819052505f61376d868684606001516001611baa565b90508060ef5f8981526020019081526020015f208190555086817f7513d57665f5bbb438203d2f2a896f1f0791e1e8cd0e2d76d7bc421bfb4f49aa426040516137b6919061563c565b60405180910390a350505050505050505050565b5f805f90505b8751811015613b3f575f670de0b6b3a76400008983815181106137f6576137f5616c11565b5b602002602001015173ffffffffffffffffffffffffffffffffffffffff166370a0823160d35f9054906101000a900473ffffffffffffffffffffffffffffffffffffffff166040518263ffffffff1660e01b81526004016138579190615758565b602060405180830381865afa158015613872573d5f803e3d5ffd5b505050506040513d601f19601f820116820180604052508101906138969190616adc565b855f815181106138a9576138a8616c11565b5b60200260200101516138bb9190616b73565b6138c59190616be1565b905060e65f9054906101000a900473ffffffffffffffffffffffffffffffffffffffff1673ffffffffffffffffffffffffffffffffffffffff1689838151811061391257613911616c11565b5b602002602001015173ffffffffffffffffffffffffffffffffffffffff1603613a085760d35f9054906101000a900473ffffffffffffffffffffffffffffffffffffffff1673ffffffffffffffffffffffffffffffffffffffff16631c20fadd60e65f9054906101000a900473ffffffffffffffffffffffffffffffffffffffff1630846040518463ffffffff1660e01b81526004016139b49392919061790e565b6020604051808303815f875af11580156139d0573d5f803e3d5ffd5b505050506040513d601f19601f820116820180604052508101906139f49190616364565b508083613a0191906175b7565b9250613b31565b60d35f9054906101000a900473ffffffffffffffffffffffffffffffffffffffff1673ffffffffffffffffffffffffffffffffffffffff16631c20fadd8a8481518110613a5857613a57616c11565b5b602002602001015130846040518463ffffffff1660e01b8152600401613a809392919061790e565b6020604051808303815f875af1158015613a9c573d5f803e3d5ffd5b505050506040513d601f19601f82011682018060405250810190613ac09190616364565b50613b23898381518110613ad757613ad6616c11565b5b602002602001015160e65f9054906101000a900473ffffffffffffffffffffffffffffffffffffffff1683308c8781518110613b1657613b15616c11565b5b60200260200101516116e8565b83613b2e91906175b7565b92505b5080806001019150506137d0565b505f613c6560e65f9054906101000a900473ffffffffffffffffffffffffffffffffffffffff1660e85f8867ffffffffffffffff1667ffffffffffffffff1681526020019081526020015f205f9054906101000a900473ffffffffffffffffffffffffffffffffffffffff16843060e95f8b67ffffffffffffffff1667ffffffffffffffff1681526020019081526020015f205f60e85f8d67ffffffffffffffff1667ffffffffffffffff1681526020019081526020015f205f9054906101000a900473ffffffffffffffffffffffffffffffffffffffff1673ffffffffffffffffffffffffffffffffffffffff1673ffffffffffffffffffffffffffffffffffffffff1681526020019081526020015f205f9054906101000a900462ffffff166116e8565b90505f600167ffffffffffffffff811115613c8357613c82615eef565b5b604051908082528060200260200182016040528015613cbc57816020015b613ca961552c565b815260200190600190039081613ca15790505b50905060e85f8767ffffffffffffffff1667ffffffffffffffff1681526020019081526020015f205f9054906101000a900473ffffffffffffffffffffffffffffffffffffffff16815f81518110613d1757613d16616c11565b5b60200260200101515f019073ffffffffffffffffffffffffffffffffffffffff16908173ffffffffffffffffffffffffffffffffffffffff168152505081815f81518110613d6857613d67616c11565b5b602002602001015160200181815250505f8067ffffffffffffffff811115613d9357613d92615eef565b5b604051908082528060200260200182016040528015613dc15781602001602082028036833780820191505090505b5090505f60018b5f67ffffffffffffffff811115613de257613de1615eef565b5b604051908082528060200260200182016040528015613e105781602001602082028036833780820191505090505b508b8586604051602001613e2996959493929190617943565b60405160208183030381529060405290505f613e4989838a87600161478e565b90508060ee5f8c81526020019081526020015f208190555089817f2c80cd3884ced9a087f5eed6c8ddd78af4b449cdea210b92786f35bd496f534342604051613e92919061563c565b60405180910390a3505050505050505050505050565b5f8067ffffffffffffffff811115613ec357613ec2615eef565b5b604051908082528060200260200182016040528015613ef15781602001602082028036833780820191505090505b5090505f865167ffffffffffffffff811115613f1057613f0f615eef565b5b604051908082528060200260200182016040528015613f3e5781602001602082028036833780820191505090505b5090505f5b87518110156141e65760e65f9054906101000a900473ffffffffffffffffffffffffffffffffffffffff1673ffffffffffffffffffffffffffffffffffffffff16888281518110613f9757613f96616c11565b5b602002602001015173ffffffffffffffffffffffffffffffffffffffff160361409957614075888281518110613fd057613fcf616c11565b5b602002602001015173ffffffffffffffffffffffffffffffffffffffff166370a0823160d35f9054906101000a900473ffffffffffffffffffffffffffffffffffffffff166040518263ffffffff1660e01b81526004016140319190615758565b602060405180830381865afa15801561404c573d5f803e3d5ffd5b505050506040513d601f19601f820116820180604052508101906140709190616adc565b611f39565b82828151811061408857614087616c11565b5b6020026020010181815250506141d9565b5f6141ad8983815181106140b0576140af616c11565b5b602002602001015160e65f9054906101000a900473ffffffffffffffffffffffffffffffffffffffff168b85815181106140ed576140ec616c11565b5b602002602001015173ffffffffffffffffffffffffffffffffffffffff166370a0823160d35f9054906101000a900473ffffffffffffffffffffffffffffffffffffffff166040518263ffffffff1660e01b815260040161414e9190615758565b602060405180830381865afa158015614169573d5f803e3d5ffd5b505050506040513d601f19601f8201168201806040525081019061418d9190616adc565b8b86815181106141a05761419f616c11565b5b6020026020010151611fd1565b90506141b881611f39565b8383815181106141cb576141ca616c11565b5b602002602001018181525050505b8080600101915050613f43565b505f6002885f67ffffffffffffffff81111561420557614204615eef565b5b6040519080825280602002602001820160405280156142335781602001602082028036833780820191505090505b5088858760405160200161424c969594939291906179f7565b604051602081830303815290604052905061426a8585836001611baa565b505050505050505050565b61427d615581565b815f015151815f0181815250508161010001515f815181106142a2576142a1616c11565b5b60200260200101518160200181815250508161010001516001815181106142cc576142cb616c11565b5b60200260200101518160400181815250508161010001516002815181106142f6576142f5616c11565b5b60200260200101518160800181815250505f61433382845f015185602001518660400151876060015188608001518960c001518a60e00151614c6b565b90505f61446660e65f9054906101000a900473ffffffffffffffffffffffffffffffffffffffff1660e85f8760a0015167ffffffffffffffff1667ffffffffffffffff1681526020019081526020015f205f9054906101000a900473ffffffffffffffffffffffffffffffffffffffff16843060e95f8a60a0015167ffffffffffffffff1667ffffffffffffffff1681526020019081526020015f205f60e85f8c60a0015167ffffffffffffffff1667ffffffffffffffff1681526020019081526020015f205f9054906101000a900473ffffffffffffffffffffffffffffffffffffffff1673ffffffffffffffffffffffffffffffffffffffff1673ffffffffffffffffffffffffffffffffffffffff1681526020019081526020015f205f9054906101000a900462ffffff166116e8565b90505f600167ffffffffffffffff81111561448457614483615eef565b5b6040519080825280602002602001820160405280156144bd57816020015b6144aa61552c565b8152602001906001900390816144a25790505b50905060e85f8660a0015167ffffffffffffffff1667ffffffffffffffff1681526020019081526020015f205f9054906101000a900473ffffffffffffffffffffffffffffffffffffffff16815f8151811061451c5761451b616c11565b5b60200260200101515f019073ffffffffffffffffffffffffffffffffffffffff16908173ffffffffffffffffffffffffffffffffffffffff168152505081815f8151811061456d5761456c616c11565b5b602002602001015160200181815250505f8067ffffffffffffffff81111561459857614597615eef565b5b6040519080825280602002602001820160405280156145c65781602001602082028036833780820191505090505b5090505f6003875f015188602001518960e0015185866040516020016145f196959493929190617aab565b60405160208183030381529060405290506146188760a00151828960c0015186600161478e565b5050505050505050565b5f61467c8260a0015160e65f9054906101000a900473ffffffffffffffffffffffffffffffffffffffff168460c0015160d35f9054906101000a900473ffffffffffffffffffffffffffffffffffffffff16610bb86116e8565b90506146a5825f0151836020015184604001518560600151866080015186886101400151615107565b5f8067ffffffffffffffff8111156146c0576146bf615eef565b5b6040519080825280602002602001820160405280156146ee5781602001602082028036833780820191505090505b5090505f8067ffffffffffffffff81111561470c5761470b615eef565b5b60405190808252806020026020018201604052801561473a5781602001602082028036833780820191505090505b5090505f60048283876101200151868760405160200161475f96959493929190617b5f565b60405160208183030381529060405290506147868560e00151866101000151836001611baa565b505050505050565b5f808351905060d060149054906101000a900461ffff1661ffff168111156147eb576040517f08c379a00000000000000000000000000000000000000000000000000000000081526004016147e290617c4a565b60405180910390fd5b5f5b8181101561494a5760d05f9054906101000a900473ffffffffffffffffffffffffffffffffffffffff1673ffffffffffffffffffffffffffffffffffffffff168582815181106148405761483f616c11565b5b60200260200101515f015173ffffffffffffffffffffffffffffffffffffffff161461493f5784818151811061487957614878616c11565b5b60200260200101515f015173ffffffffffffffffffffffffffffffffffffffff1663095ea7b35f60029054906101000a900473ffffffffffffffffffffffffffffffffffffffff168784815181106148d4576148d3616c11565b5b6020026020010151602001516040518363ffffffff1660e01b81526004016148fd929190616313565b6020604051808303815f875af1158015614919573d5f803e3d5ffd5b505050506040513d601f19601f8201168201806040525081019061493d9190616364565b505b8060010190506147ed565b505f6040518060a00160405280876040516020016149689190615758565b604051602081830303815290604052815260200188815260200186815260200160018081111561499b5761499a6168b4565b5b8660018111156149ae576149ad6168b4565b5b146149b9575f6149dc565b60d05f9054906101000a900473ffffffffffffffffffffffffffffffffffffffff165b73ffffffffffffffffffffffffffffffffffffffff168152602001614a116040518060200160405280620dbba0815250612aea565b81525090505f8060029054906101000a900473ffffffffffffffffffffffffffffffffffffffff1673ffffffffffffffffffffffffffffffffffffffff166320487ded8a846040518363ffffffff1660e01b8152600401614a73929190616aae565b602060405180830381865afa158015614a8e573d5f803e3d5ffd5b505050506040513d601f19601f82011682018060405250810190614ab29190616adc565b90505f600180811115614ac857614ac76168b4565b5b866001811115614adb57614ada6168b4565b5b03614b83575f60029054906101000a900473ffffffffffffffffffffffffffffffffffffffff1673ffffffffffffffffffffffffffffffffffffffff166396f4e9f98b856040518363ffffffff1660e01b8152600401614b3c929190616aae565b6020604051808303815f875af1158015614b58573d5f803e3d5ffd5b505050506040513d601f19601f82011682018060405250810190614b7c9190616b1b565b9050614c24565b5f60029054906101000a900473ffffffffffffffffffffffffffffffffffffffff1673ffffffffffffffffffffffffffffffffffffffff166396f4e9f9838c866040518463ffffffff1660e01b8152600401614be0929190616aae565b60206040518083038185885af1158015614bfc573d5f803e3d5ffd5b50505050506040513d601f19601f82011682018060405250810190614c219190616b1b565b90505b7f54791b38f3859327992a1ca0590ad3c0f08feba98d1a4f56ab0dca74d203392a81604051614c539190615a0e565b60405180910390a18094505050505095945050505050565b5f614c746155ab565b60e65f9054906101000a900473ffffffffffffffffffffffffffffffffffffffff1673ffffffffffffffffffffffffffffffffffffffff166370a0823160d35f9054906101000a900473ffffffffffffffffffffffffffffffffffffffff166040518263ffffffff1660e01b8152600401614cef9190615758565b602060405180830381865afa158015614d0a573d5f803e3d5ffd5b505050506040513d601f19601f82011682018060405250810190614d2e9190616adc565b8160a00181815250505f5b815f0151811015614f1e575f60e65f9054906101000a900473ffffffffffffffffffffffffffffffffffffffff1673ffffffffffffffffffffffffffffffffffffffff168b8381518110614d9057614d8f616c11565b5b602002602001015173ffffffffffffffffffffffffffffffffffffffff1603614dbf578260a001519050614ef7565b614ef48b8381518110614dd557614dd4616c11565b5b602002602001015160e65f9054906101000a900473ffffffffffffffffffffffffffffffffffffffff168d8581518110614e1257614e11616c11565b5b602002602001015173ffffffffffffffffffffffffffffffffffffffff166370a0823160d35f9054906101000a900473ffffffffffffffffffffffffffffffffffffffff166040518263ffffffff1660e01b8152600401614e739190615758565b602060405180830381865afa158015614e8e573d5f803e3d5ffd5b505050506040513d601f19601f82011682018060405250810190614eb29190616adc565b60d35f9054906101000a900473ffffffffffffffffffffffffffffffffffffffff168d8781518110614ee757614ee6616c11565b5b60200260200101516116e8565b90505b8083606001818151614f0991906175b7565b91508181525050508080600101915050614d39565b5087518160c0018181525050896020015168056bc75e2d631000008b60800151614f489190616b73565b614f529190616be1565b8160e00181815250508060e0015181604001518260600151614f749190616b73565b614f7e9190616be1565b816101000181815250508061010001518160600151614f9d9190617c68565b816101200181815250505f5b8160c001518110156150f15760e65f9054906101000a900473ffffffffffffffffffffffffffffffffffffffff1673ffffffffffffffffffffffffffffffffffffffff1689828151811061500057614fff616c11565b5b602002602001015173ffffffffffffffffffffffffffffffffffffffff16146150e4575f6150e060e65f9054906101000a900473ffffffffffffffffffffffffffffffffffffffff168b848151811061505c5761505b616c11565b5b602002602001015185604001518a868151811061507c5761507b616c11565b5b60200260200101518761010001516150949190616b73565b61509e9190616be1565b60d35f9054906101000a900473ffffffffffffffffffffffffffffffffffffffff168c87815181106150d3576150d2616c11565b5b60200260200101516116e8565b9050505b8080600101915050614fa9565b5080610120015191505098975050505050505050565b61510f6155f4565b8160018151811061512357615122616c11565b5b6020026020010151815f018181525050875181602001818152505060e65f9054906101000a900473ffffffffffffffffffffffffffffffffffffffff1673ffffffffffffffffffffffffffffffffffffffff166370a0823160d35f9054906101000a900473ffffffffffffffffffffffffffffffffffffffff166040518263ffffffff1660e01b81526004016151b99190615758565b602060405180830381865afa1580156151d4573d5f803e3d5ffd5b505050506040513d601f19601f820116820180604052508101906151f89190616adc565b8160400181815250505f8160600181815250505f5b81602001518110156153c4575f89828151811061522d5761522c616c11565b5b602002602001015190505f60e65f9054906101000a900473ffffffffffffffffffffffffffffffffffffffff1673ffffffffffffffffffffffffffffffffffffffff168273ffffffffffffffffffffffffffffffffffffffff1603615298578360400151905061539c565b6153998260e65f9054906101000a900473ffffffffffffffffffffffffffffffffffffffff168473ffffffffffffffffffffffffffffffffffffffff166370a0823160d35f9054906101000a900473ffffffffffffffffffffffffffffffffffffffff166040518263ffffffff1660e01b81526004016153189190615758565b602060405180830381865afa158015615333573d5f803e3d5ffd5b505050506040513d601f19601f820116820180604052508101906153579190616adc565b60d35f9054906101000a900473ffffffffffffffffffffffffffffffffffffffff168d888151811061538c5761538b616c11565b5b60200260200101516116e8565b90505b80846060018181516153ae91906175b7565b915081815250505050808060010191505061520d565b508060600151836153d591906175b7565b81608001818152505086518160a00181815250505f5b8160a00151811015615521575f88828151811061540b5761540a616c11565b5b602002602001015190505f86838151811061542957615428616c11565b5b6020026020010151905060e65f9054906101000a900473ffffffffffffffffffffffffffffffffffffffff1673ffffffffffffffffffffffffffffffffffffffff168273ffffffffffffffffffffffffffffffffffffffff1614615512575f61550e60e65f9054906101000a900473ffffffffffffffffffffffffffffffffffffffff1684875f01518589608001516154c29190616b73565b6154cc9190616be1565b60d35f9054906101000a900473ffffffffffffffffffffffffffffffffffffffff168d898151811061550157615500616c11565b5b60200260200101516116e8565b9050505b505080806001019150506153eb565b505050505050505050565b60405180604001604052805f73ffffffffffffffffffffffffffffffffffffffff1681526020015f81525090565b60405180608001604052805f81526020016060815260200160608152602001606081525090565b6040518060a001604052805f81526020015f81526020015f81526020015f81526020015f81525090565b6040518061014001604052805f81526020015f81526020015f81526020015f81526020015f81526020015f81526020015f81526020015f81526020015f81526020015f81525090565b6040518060c001604052805f81526020015f81526020015f81526020015f81526020015f81526020015f81525090565b5f819050919050565b61563681615624565b82525050565b5f60208201905061564f5f83018461562d565b92915050565b5f604051905090565b5f80fd5b5f80fd5b5f7fffffffff0000000000000000000000000000000000000000000000000000000082169050919050565b61569a81615666565b81146156a4575f80fd5b50565b5f813590506156b581615691565b92915050565b5f602082840312156156d0576156cf61565e565b5b5f6156dd848285016156a7565b91505092915050565b5f8115159050919050565b6156fa816156e6565b82525050565b5f6020820190506157135f8301846156f1565b92915050565b5f73ffffffffffffffffffffffffffffffffffffffff82169050919050565b5f61574282615719565b9050919050565b61575281615738565b82525050565b5f60208201905061576b5f830184615749565b92915050565b5f67ffffffffffffffff82169050919050565b61578d81615771565b8114615797575f80fd5b50565b5f813590506157a881615784565b92915050565b5f6157b882615719565b9050919050565b6157c8816157ae565b81146157d2575f80fd5b50565b5f813590506157e3816157bf565b92915050565b6157f281615738565b81146157fc575f80fd5b50565b5f8135905061580d816157e9565b92915050565b5f805f805f805f805f6101208a8c0312156158315761583061565e565b5b5f61583e8c828d0161579a565b995050602061584f8c828d016157d5565b98505060406158608c828d016157ff565b97505060606158718c828d016157ff565b96505060806158828c828d016157ff565b95505060a06158938c828d016157ff565b94505060c06158a48c828d016157ff565b93505060e06158b58c828d016157ff565b9250506101006158c78c828d016157ff565b9150509295985092959850929598565b5f602082840312156158ec576158eb61565e565b5b5f6158f98482850161579a565b91505092915050565b5f819050919050565b5f61592561592061591b84615719565b615902565b615719565b9050919050565b5f6159368261590b565b9050919050565b5f6159478261592c565b9050919050565b6159578161593d565b82525050565b5f6020820190506159705f83018461594e565b92915050565b5f6020828403121561598b5761598a61565e565b5b5f615998848285016157ff565b91505092915050565b6159aa81615624565b81146159b4575f80fd5b50565b5f813590506159c5816159a1565b92915050565b5f602082840312156159e0576159df61565e565b5b5f6159ed848285016159b7565b91505092915050565b5f819050919050565b615a08816159f6565b82525050565b5f602082019050615a215f8301846159ff565b92915050565b615a3081615771565b82525050565b5f602082019050615a495f830184615a27565b92915050565b5f615a598261592c565b9050919050565b615a6981615a4f565b82525050565b5f602082019050615a825f830184615a60565b92915050565b5f61ffff82169050919050565b615a9e81615a88565b82525050565b5f602082019050615ab75f830184615a95565b92915050565b5f615ac78261592c565b9050919050565b615ad781615abd565b82525050565b5f602082019050615af05f830184615ace565b92915050565b5f8060408385031215615b0c57615b0b61565e565b5b5f615b198582860161579a565b9250506020615b2a858286016157ff565b9150509250929050565b5f62ffffff82169050919050565b615b4b81615b34565b82525050565b5f602082019050615b645f830184615b42565b92915050565b5f60208284031215615b7f57615b7e61565e565b5b5f615b8c848285016157d5565b91505092915050565b5f615b9f8261592c565b9050919050565b615baf81615b95565b82525050565b5f602082019050615bc85f830184615ba6565b92915050565b615bd781615b34565b8114615be1575f80fd5b50565b5f81359050615bf281615bce565b92915050565b5f805f805f60a08688031215615c1157615c1061565e565b5b5f615c1e888289016157ff565b9550506020615c2f888289016157ff565b9450506040615c40888289016159b7565b9350506060615c51888289016157ff565b9250506080615c6288828901615be4565b9150509295509295909350565b5f8060408385031215615c8557615c8461565e565b5b5f615c92858286016159b7565b9250506020615ca3858286016157ff565b9150509250929050565b5f604082019050615cc05f83018561562d565b615ccd602083018461562d565b9392505050565b5f80fd5b5f60a08284031215615ced57615cec615cd4565b5b81905092915050565b5f60208284031215615d0b57615d0a61565e565b5b5f82013567ffffffffffffffff811115615d2857615d27615662565b5b615d3484828501615cd8565b91505092915050565b615d46816159f6565b8114615d50575f80fd5b50565b5f81359050615d6181615d3d565b92915050565b5f60208284031215615d7c57615d7b61565e565b5b5f615d8984828501615d53565b91505092915050565b5f60ff82169050919050565b615da781615d92565b82525050565b5f602082019050615dc05f830184615d9e565b92915050565b5f81519050919050565b5f82825260208201905092915050565b8281835e5f83830152505050565b5f601f19601f8301169050919050565b5f615e0882615dc6565b615e128185615dd0565b9350615e22818560208601615de0565b615e2b81615dee565b840191505092915050565b5f60a082019050615e495f830188615a27565b615e566020830187615749565b8181036040830152615e688186615dfe565b9050615e776060830185615749565b615e84608083018461562d565b9695505050505050565b5f6020820190508181035f830152615ea68184615dfe565b905092915050565b5f615eb88261592c565b9050919050565b615ec881615eae565b82525050565b5f602082019050615ee15f830184615ebf565b92915050565b5f80fd5b5f80fd5b7f4e487b71000000000000000000000000000000000000000000000000000000005f52604160045260245ffd5b615f2582615dee565b810181811067ffffffffffffffff82111715615f4457615f43615eef565b5b80604052505050565b5f615f56615655565b9050615f628282615f1c565b919050565b5f67ffffffffffffffff821115615f8157615f80615eef565b5b615f8a82615dee565b9050602081019050919050565b828183375f83830152505050565b5f615fb7615fb284615f67565b615f4d565b905082815260208101848484011115615fd357615fd2615eeb565b5b615fde848285615f97565b509392505050565b5f82601f830112615ffa57615ff9615ee7565b5b813561600a848260208601615fa5565b91505092915050565b6002811061601f575f80fd5b50565b5f8135905061603081616013565b92915050565b5f805f806080858703121561604e5761604d61565e565b5b5f61605b8782880161579a565b945050602061606c878288016157ff565b935050604085013567ffffffffffffffff81111561608d5761608c615662565b5b61609987828801615fe6565b92505060606160aa87828801616022565b91505092959194509250565b5f6160c08261592c565b9050919050565b6160d0816160b6565b82525050565b5f6020820190506160e95f8301846160c7565b92915050565b5f805f80608085870312156161075761610661565e565b5b5f616114878288016157ff565b9450506020616125878288016157ff565b9350506040616136878288016159b7565b925050606061614787828801615be4565b91505092959194509250565b5f6fffffffffffffffffffffffffffffffff82169050919050565b61617781616153565b8114616181575f80fd5b50565b5f813590506161928161616e565b92915050565b5f805f80608085870312156161b0576161af61565e565b5b5f6161bd878288016157ff565b94505060206161ce878288016157ff565b93505060406161df87828801616184565b92505060606161f087828801615be4565b91505092959194509250565b5f805f606084860312156162135761621261565e565b5b5f6162208682870161579a565b9350506020616231868287016157ff565b925050604061624286828701615be4565b9150509250925092565b5f6162568261592c565b9050919050565b6162668161624c565b82525050565b5f60208201905061627f5f83018461625d565b92915050565b7f496e697469616c697a61626c653a20636f6e747261637420697320616c7265615f8201527f647920696e697469616c697a6564000000000000000000000000000000000000602082015250565b5f6162df602e83615dd0565b91506162ea82616285565b604082019050919050565b5f6020820190508181035f83015261630c816162d3565b9050919050565b5f6040820190506163265f830185615749565b616333602083018461562d565b9392505050565b616343816156e6565b811461634d575f80fd5b50565b5f8151905061635e8161633a565b92915050565b5f602082840312156163795761637861565e565b5b5f61638684828501616350565b91505092915050565b5f819050919050565b5f6163b26163ad6163a88461638f565b615902565b615d92565b9050919050565b6163c281616398565b82525050565b5f6020820190506163db5f8301846163b9565b92915050565b5f69ffffffffffffffffffff82169050919050565b6163ff816163e1565b8114616409575f80fd5b50565b5f8151905061641a816163f6565b92915050565b5f819050919050565b61643281616420565b811461643c575f80fd5b50565b5f8151905061644d81616429565b92915050565b5f81519050616461816159a1565b92915050565b5f805f805f60a086880312156164805761647f61565e565b5b5f61648d8882890161640c565b955050602061649e8882890161643f565b94505060406164af88828901616453565b93505060606164c088828901616453565b92505060806164d18882890161640c565b9150509295509295909350565b6164e781615d92565b81146164f1575f80fd5b50565b5f81519050616502816164de565b92915050565b5f6020828403121561651d5761651c61565e565b5b5f61652a848285016164f4565b91505092915050565b7f5072696365206f7261636c6520616464726573732063616e6e6f74206265207a5f8201527f65726f2061646472657373000000000000000000000000000000000000000000602082015250565b5f61658d602b83615dd0565b915061659882616533565b604082019050919050565b5f6020820190508181035f8301526165ba81616581565b9050919050565b5f80fd5b5f80fd5b5f67ffffffffffffffff8211156165e3576165e2615eef565b5b602082029050602081019050919050565b5f80fd5b5f6040828403121561660d5761660c6165c1565b5b6166176040615f4d565b90505f616626848285016157ff565b5f830152506020616639848285016159b7565b60208301525092915050565b5f616657616652846165c9565b615f4d565b9050808382526020820190506040840283018581111561667a576166796165f4565b5b835b818110156166a3578061668f88826165f8565b84526020840193505060408101905061667c565b5050509392505050565b5f82601f8301126166c1576166c0615ee7565b5b81356166d1848260208601616645565b91505092915050565b5f60a082840312156166ef576166ee6165c1565b5b6166f960a0615f4d565b90505f61670884828501615d53565b5f83015250602061671b8482850161579a565b602083015250604082013567ffffffffffffffff81111561673f5761673e6165c5565b5b61674b84828501615fe6565b604083015250606082013567ffffffffffffffff81111561676f5761676e6165c5565b5b61677b84828501615fe6565b606083015250608082013567ffffffffffffffff81111561679f5761679e6165c5565b5b6167ab848285016166ad565b60808301525092915050565b5f6167c236836166da565b9050919050565b7f4e487b71000000000000000000000000000000000000000000000000000000005f52602260045260245ffd5b5f600282049050600182168061680d57607f821691505b6020821081036168205761681f6167c9565b5b50919050565b7f50726f706f7361626c654f776e61626c653a206e6577206f776e6572206973205f8201527f746865207a65726f206164647265737300000000000000000000000000000000602082015250565b5f616880603083615dd0565b915061688b82616826565b604082019050919050565b5f6020820190508181035f8301526168ad81616874565b9050919050565b7f4e487b71000000000000000000000000000000000000000000000000000000005f52602160045260245ffd5b5f81519050919050565b5f82825260208201905092915050565b5f616905826168e1565b61690f81856168eb565b935061691f818560208601615de0565b61692881615dee565b840191505092915050565b5f81519050919050565b5f82825260208201905092915050565b5f819050602082019050919050565b61696581615738565b82525050565b61697481615624565b82525050565b604082015f82015161698e5f85018261695c565b5060208201516169a1602085018261696b565b50505050565b5f6169b2838361697a565b60408301905092915050565b5f602082019050919050565b5f6169d482616933565b6169de818561693d565b93506169e98361694d565b805f5b83811015616a19578151616a0088826169a7565b9750616a0b836169be565b9250506001810190506169ec565b5085935050505092915050565b5f60a083015f8301518482035f860152616a4082826168fb565b91505060208301518482036020860152616a5a82826168fb565b91505060408301518482036040860152616a7482826169ca565b9150506060830151616a89606086018261695c565b5060808301518482036080860152616aa182826168fb565b9150508091505092915050565b5f604082019050616ac15f830185615a27565b8181036020830152616ad38184616a26565b90509392505050565b5f60208284031215616af157616af061565e565b5b5f616afe84828501616453565b91505092915050565b5f81519050616b1581615d3d565b92915050565b5f60208284031215616b3057616b2f61565e565b5b5f616b3d84828501616b07565b91505092915050565b7f4e487b71000000000000000000000000000000000000000000000000000000005f52601160045260245ffd5b5f616b7d82615624565b9150616b8883615624565b9250828202616b9681615624565b91508282048414831517616bad57616bac616b46565b5b5092915050565b7f4e487b71000000000000000000000000000000000000000000000000000000005f52601260045260245ffd5b5f616beb82615624565b9150616bf683615624565b925082616c0657616c05616bb4565b5b828204905092915050565b7f4e487b71000000000000000000000000000000000000000000000000000000005f52603260045260245ffd5b5f81519050919050565b5f82825260208201905092915050565b5f819050602082019050919050565b5f616c72838361695c565b60208301905092915050565b5f602082019050919050565b5f616c9482616c3e565b616c9e8185616c48565b9350616ca983616c58565b805f5b83811015616cd9578151616cc08882616c67565b9750616ccb83616c7e565b925050600181019050616cac565b5085935050505092915050565b5f604082019050616cf95f83018561562d565b8181036020830152616d0b8184616c8a565b90509392505050565b5f67ffffffffffffffff821115616d2e57616d2d615eef565b5b602082029050602081019050919050565b5f616d51616d4c84616d14565b615f4d565b90508083825260208201905060208402830185811115616d7457616d736165f4565b5b835b81811015616d9d5780616d898882616453565b845260208401935050602081019050616d76565b5050509392505050565b5f82601f830112616dbb57616dba615ee7565b5b8151616dcb848260208601616d3f565b91505092915050565b5f60208284031215616de957616de861565e565b5b5f82015167ffffffffffffffff811115616e0657616e05615662565b5b616e1284828501616da7565b91505092915050565b616e2481616153565b82525050565b5f60a082019050616e3d5f830188615749565b616e4a6020830187615749565b616e576040830186615749565b616e646060830185616e1b565b616e716080830184615b42565b9695505050505050565b7f50726f706f7361626c654f776e61626c653a206e6577206f776e6572206973205f8201527f6e6f742070726f706f736564206f776e65720000000000000000000000000000602082015250565b5f616ed5603283615dd0565b9150616ee082616e7b565b604082019050919050565b5f6020820190508181035f830152616f0281616ec9565b9050919050565b7f50726f706f7361626c654f776e61626c653a20746869732063616c6c206d75735f8201527f74206265206d61646520627920746865206e6577206f776e6572000000000000602082015250565b5f616f63603a83615dd0565b9150616f6e82616f09565b604082019050919050565b5f6020820190508181035f830152616f9081616f57565b9050919050565b7f496e697469616c697a61626c653a20636f6e7472616374206973206e6f7420695f8201527f6e697469616c697a696e67000000000000000000000000000000000000000000602082015250565b5f616ff1602b83615dd0565b9150616ffc82616f97565b604082019050919050565b5f6020820190508181035f83015261701e81616fe5565b9050919050565b7f4f776e61626c653a2063616c6c6572206973206e6f7420746865206f776e65725f82015250565b5f617059602083615dd0565b915061706482617025565b602082019050919050565b5f6020820190508181035f8301526170868161704d565b9050919050565b5f61709782615d92565b91506170a283615d92565b9250828203905060ff8111156170bb576170ba616b46565b5b92915050565b5f8160011c9050919050565b5f808291508390505b6001851115617116578086048111156170f2576170f1616b46565b5b60018516156171015780820291505b808102905061710f856170c1565b94506170d6565b94509492505050565b5f8261712e57600190506171e9565b8161713b575f90506171e9565b8160018114617151576002811461715b5761718a565b60019150506171e9565b60ff84111561716d5761716c616b46565b5b8360020a91508482111561718457617183616b46565b5b506171e9565b5060208310610133831016604e8410600b84101617156171bf5782820a9050838111156171ba576171b9616b46565b5b6171e9565b6171cc84848460016170cd565b925090508184048111156171e3576171e2616b46565b5b81810290505b9392505050565b5f6171fa82615624565b915061720583615d92565b92506172327fffffffffffffffffffffffffffffffffffffffffffffffffffffffffffffffff848461711f565b905092915050565b5f61724482616420565b915061724f83616420565b925082820261725d81616420565b91507f800000000000000000000000000000000000000000000000000000000000000084145f8412161561729457617293616b46565b5b82820584148315176172a9576172a8616b46565b5b5092915050565b5f815190506172be816157bf565b92915050565b5f602082840312156172d9576172d861565e565b5b5f6172e6848285016172b0565b91505092915050565b5f67ffffffffffffffff82111561730957617308615eef565b5b602082029050602081019050919050565b5f81519050617328816157e9565b92915050565b5f61734061733b846172ef565b615f4d565b90508083825260208201905060208402830185811115617363576173626165f4565b5b835b8181101561738c5780617378888261731a565b845260208401935050602081019050617365565b5050509392505050565b5f82601f8301126173aa576173a9615ee7565b5b81516173ba84826020860161732e565b91505092915050565b5f805f805f805f80610100898b0312156173e0576173df61565e565b5b5f6173ed8b828c01616453565b985050602089015167ffffffffffffffff81111561740e5761740d615662565b5b61741a8b828c01617396565b975050604089015167ffffffffffffffff81111561743b5761743a615662565b5b6174478b828c01617396565b965050606089015167ffffffffffffffff81111561746857617467615662565b5b6174748b828c01616da7565b955050608089015167ffffffffffffffff81111561749557617494615662565b5b6174a18b828c01616da7565b94505060a06174b28b828c01616453565b93505060c089015167ffffffffffffffff8111156174d3576174d2615662565b5b6174df8b828c01616da7565b92505060e089015167ffffffffffffffff811115617500576174ff615662565b5b61750c8b828c01616da7565b9150509295985092959890939650565b602082015f8201516175305f85018261696b565b50505050565b5f6020820190506175495f83018461751c565b92915050565b7f5061757361626c653a206e6f74207061757365640000000000000000000000005f82015250565b5f617583601483615dd0565b915061758e8261754f565b602082019050919050565b5f6020820190508181035f8301526175b081617577565b9050919050565b5f6175c182615624565b91506175cc83615624565b92508282019050808211156175e4576175e3616b46565b5b92915050565b6175f381615b34565b82525050565b61760281615719565b82525050565b61010082015f82015161761d5f85018261695c565b506020820151617630602085018261695c565b50604082015161764360408501826175ea565b506060820151617656606085018261695c565b506080820151617669608085018261696b565b5060a082015161767c60a085018261696b565b5060c082015161768f60c085018261696b565b5060e08201516176a260e08501826175f9565b50505050565b5f610100820190506176bc5f830184617608565b92915050565b5f819050919050565b5f6176e56176e06176db846176c2565b615902565b615624565b9050919050565b6176f5816176cb565b82525050565b5f60a08201905061770e5f83018861562d565b61771b60208301876176ec565b818103604083015261772d8186616c8a565b905061773c6060830185615749565b617749608083018461562d565b9695505050505050565b7f5061757361626c653a20706175736564000000000000000000000000000000005f82015250565b5f617787601083615dd0565b915061779282617753565b602082019050919050565b5f6020820190508181035f8301526177b48161777b565b9050919050565b5f6177d56177d06177cb846176c2565b615902565b615d92565b9050919050565b6177e5816177bb565b82525050565b5f81519050919050565b5f82825260208201905092915050565b5f819050602082019050919050565b5f61781f838361696b565b60208301905092915050565b5f602082019050919050565b5f617841826177eb565b61784b81856177f5565b935061785683617805565b805f5b8381101561788657815161786d8882617814565b97506178788361782b565b925050600181019050617859565b5085935050505092915050565b5f60c0820190506178a65f8301896177dc565b81810360208301526178b88188616c8a565b905081810360408301526178cc8187616c8a565b90506178db606083018661562d565b81810360808301526178ed8185617837565b905081810360a08301526179018184617837565b9050979650505050505050565b5f6060820190506179215f830186615749565b61792e6020830185615749565b61793b604083018461562d565b949350505050565b5f60c0820190506179565f8301896163b9565b81810360208301526179688188616c8a565b9050818103604083015261797c8187616c8a565b905061798b606083018661562d565b818103608083015261799d8185617837565b905081810360a08301526179b18184617837565b9050979650505050505050565b5f819050919050565b5f6179e16179dc6179d7846179be565b615902565b615d92565b9050919050565b6179f1816179c7565b82525050565b5f60c082019050617a0a5f8301896179e8565b8181036020830152617a1c8188616c8a565b90508181036040830152617a308187616c8a565b9050617a3f606083018661562d565b8181036080830152617a518185617837565b905081810360a0830152617a658184617837565b9050979650505050505050565b5f819050919050565b5f617a95617a90617a8b84617a72565b615902565b615d92565b9050919050565b617aa581617a7b565b82525050565b5f60c082019050617abe5f830189617a9c565b8181036020830152617ad08188616c8a565b90508181036040830152617ae48187616c8a565b9050617af3606083018661562d565b8181036080830152617b058185617837565b905081810360a0830152617b198184617837565b9050979650505050505050565b5f819050919050565b5f617b49617b44617b3f84617b26565b615902565b615d92565b9050919050565b617b5981617b2f565b82525050565b5f60c082019050617b725f830189617b50565b8181036020830152617b848188616c8a565b90508181036040830152617b988187616c8a565b9050617ba7606083018661562d565b8181036080830152617bb98185617837565b905081810360a0830152617bcd8184617837565b9050979650505050505050565b7f4d6178696d756d203520646966666572656e7420746f6b656e732063616e20625f8201527f652073656e74207065722043434950204d657373616765000000000000000000602082015250565b5f617c34603783615dd0565b9150617c3f82617bda565b604082019050919050565b5f6020820190508181035f830152617c6181617c28565b9050919050565b5f617c7282615624565b9150617c7d83615624565b9250828203905081811115617c9557617c94616b46565b5b9291505056fea2646970667358221220cd2231d05f3e51de6a3c7e60bf46408681bfea1289692f6fea24f8e0ee6eb9c464736f6c634300081a0033","linkReferences":{}},"methodIdentifiers":{"ccipReceive((bytes32,uint64,bytes,bytes,(address,uint256)[]))":"85572ffb","convertEthToUsd(uint256)":"c086381e","crossChainToken(uint64)":"19da7e2a","crossChainTokenSwapFee(uint64,address)":"652354ae","currentChainSelector()":"3d54cb6f","estimateAmountOut(address,address,uint128,uint24)":"ee7bd3e2","factoryV3()":"1d5f45f5","fee()":"ddca3f43","feeRate()":"978bbdb9","feeRatePerDayScaled()":"2fecd589","feeReceiver()":"b3f00674","feeTimestamp()":"184a732f","getAmountOut(address,address,uint256,uint24)":"dd811ac9","getPendingRequest(bytes32)":"88b12d55","getRouter()":"b0f479a1","i_link()":"7d253aff","i_maxTokensLength()":"5b6a0351","initialize(uint64,address,address,address,address,address,address,address,address)":"17c27b76","isRestricted(address)":"c01bc982","issuanceCompletedTokensCount(uint256)":"94037369","issuanceMessageIdByNonce(uint256)":"9121c717","issuanceTokenOldAndNewValues(uint256,address)":"81b15279","latestFeeUpdate()":"011ced5f","messageDetail(bytes32)":"9c3ddb2e","methodologist()":"9f8e67bf","methodology()":"9eeb1d50","minter()":"07546172","oraclePayment()":"0c02e130","owner()":"8da5cb5b","pause()":"8456cb59","paused()":"5c975abb","priceInWei()":"3c8da588","priceOracle()":"2630c12f","proposeOwner(address)":"b5ed298a","proposedOwner()":"d153b60c","quoter()":"c6bbd5a7","receivedMessages(uint256)":"d030366c","redemptionMessageIdByNonce(uint256)":"306b3a28","renounceOwnership()":"715018a6","sendMessage(uint64,address,bytes,uint8)":"bcab90b3","setCcipRouter(address)":"27bf9b44","setCrossChainToken(uint64,address,uint24)":"f0cd5b72","setPriceOracle(address)":"530e784f","setVault(address)":"6817031b","sourceChainSelectorF()":"ff5474f0","supplyCeiling()":"2b52684d","supportsInterface(bytes4)":"01ffc9a7","swap(address,address,uint256,address,uint24)":"7e79f512","swapRouterV2()":"744fbc7a","swapRouterV3()":"b631e80b","toUsdPriceFeed()":"63973fda","transferOwnership(address)":"f2fde38b","unpause()":"3f4ba83a","vault()":"fbfa77cf","weth()":"3fc8cef3"},"id":48}