{"abi":[{"type":"receive","stateMutability":"payable"},{"type":"function","name":"ccipReceive","inputs":[{"name":"message","type":"tuple","internalType":"struct Client.Any2EVMMessage","components":[{"name":"messageId","type":"bytes32","internalType":"bytes32"},{"name":"sourceChainSelector","type":"uint64","internalType":"uint64"},{"name":"sender","type":"bytes","internalType":"bytes"},{"name":"data","type":"bytes","internalType":"bytes"},{"name":"destTokenAmounts","type":"tuple[]","internalType":"struct Client.EVMTokenAmount[]","components":[{"name":"token","type":"address","internalType":"address"},{"name":"amount","type":"uint256","internalType":"uint256"}]}]}],"outputs":[],"stateMutability":"nonpayable"},{"type":"function","name":"convertEthToUsd","inputs":[{"name":"_ethAmount","type":"uint256","internalType":"uint256"}],"outputs":[{"name":"","type":"uint256","internalType":"uint256"}],"stateMutability":"view"},{"type":"function","name":"crossChainToken","inputs":[{"name":"","type":"uint64","internalType":"uint64"}],"outputs":[{"name":"","type":"address","internalType":"address"}],"stateMutability":"view"},{"type":"function","name":"crossChainTokenSwapVersion","inputs":[{"name":"","type":"uint64","internalType":"uint64"},{"name":"","type":"address","internalType":"address"}],"outputs":[{"name":"","type":"uint256","internalType":"uint256"}],"stateMutability":"view"},{"type":"function","name":"crossChainVault","inputs":[],"outputs":[{"name":"","type":"address","internalType":"contract CrossChainVault"}],"stateMutability":"view"},{"type":"function","name":"currentChainSelector","inputs":[],"outputs":[{"name":"","type":"uint64","internalType":"uint64"}],"stateMutability":"view"},{"type":"function","name":"estimateAmountOut","inputs":[{"name":"tokenIn","type":"address","internalType":"address"},{"name":"tokenOut","type":"address","internalType":"address"},{"name":"amountIn","type":"uint128","internalType":"uint128"},{"name":"secondsAgo","type":"uint32","internalType":"uint32"}],"outputs":[{"name":"amountOut","type":"uint256","internalType":"uint256"}],"stateMutability":"view"},{"type":"function","name":"factoryV2","inputs":[],"outputs":[{"name":"","type":"address","internalType":"contract IUniswapV2Factory"}],"stateMutability":"view"},{"type":"function","name":"factoryV3","inputs":[],"outputs":[{"name":"","type":"address","internalType":"contract IUniswapV3Factory"}],"stateMutability":"view"},{"type":"function","name":"fee","inputs":[],"outputs":[{"name":"","type":"uint256","internalType":"uint256"}],"stateMutability":"view"},{"type":"function","name":"feeRate","inputs":[],"outputs":[{"name":"","type":"uint8","internalType":"uint8"}],"stateMutability":"view"},{"type":"function","name":"feeRatePerDayScaled","inputs":[],"outputs":[{"name":"","type":"uint256","internalType":"uint256"}],"stateMutability":"view"},{"type":"function","name":"feeReceiver","inputs":[],"outputs":[{"name":"","type":"address","internalType":"address"}],"stateMutability":"view"},{"type":"function","name":"feeTimestamp","inputs":[],"outputs":[{"name":"","type":"uint256","internalType":"uint256"}],"stateMutability":"view"},{"type":"function","name":"getAmountOut","inputs":[{"name":"tokenIn","type":"address","internalType":"address"},{"name":"tokenOut","type":"address","internalType":"address"},{"name":"amountIn","type":"uint256","internalType":"uint256"},{"name":"_swapVersion","type":"uint256","internalType":"uint256"}],"outputs":[{"name":"finalAmountOut","type":"uint256","internalType":"uint256"}],"stateMutability":"view"},{"type":"function","name":"getRouter","inputs":[],"outputs":[{"name":"","type":"address","internalType":"address"}],"stateMutability":"view"},{"type":"function","name":"i_link","inputs":[],"outputs":[{"name":"","type":"address","internalType":"address"}],"stateMutability":"view"},{"type":"function","name":"i_maxTokensLength","inputs":[],"outputs":[{"name":"","type":"uint16","internalType":"uint16"}],"stateMutability":"view"},{"type":"function","name":"initialize","inputs":[{"name":"_currentChainSelector","type":"uint64","internalType":"uint64"},{"name":"_crossChainVault","type":"address","internalType":"address payable"},{"name":"_chainlinkToken","type":"address","internalType":"address"},{"name":"_router","type":"address","internalType":"address"},{"name":"_weth","type":"address","internalType":"address"},{"name":"_swapRouterV3","type":"address","internalType":"address"},{"name":"_factoryV3","type":"address","internalType":"address"},{"name":"_swapRouterV2","type":"address","internalType":"address"},{"name":"_factoryV2","type":"address","internalType":"address"},{"name":"_toUsdPriceFeed","type":"address","internalType":"address"}],"outputs":[],"stateMutability":"nonpayable"},{"type":"function","name":"isRestricted","inputs":[{"name":"","type":"address","internalType":"address"}],"outputs":[{"name":"","type":"bool","internalType":"bool"}],"stateMutability":"view"},{"type":"function","name":"issuanceCompletedTokensCount","inputs":[{"name":"","type":"uint256","internalType":"uint256"}],"outputs":[{"name":"","type":"uint256","internalType":"uint256"}],"stateMutability":"view"},{"type":"function","name":"issuanceMessageIdByNonce","inputs":[{"name":"","type":"uint256","internalType":"uint256"}],"outputs":[{"name":"","type":"bytes32","internalType":"bytes32"}],"stateMutability":"view"},{"type":"function","name":"issuanceTokenOldAndNewValues","inputs":[{"name":"","type":"uint256","internalType":"uint256"},{"name":"","type":"address","internalType":"address"}],"outputs":[{"name":"oldTokenValue","type":"uint256","internalType":"uint256"},{"name":"newTokenValue","type":"uint256","internalType":"uint256"}],"stateMutability":"view"},{"type":"function","name":"latestFeeUpdate","inputs":[],"outputs":[{"name":"","type":"uint256","internalType":"uint256"}],"stateMutability":"view"},{"type":"function","name":"messageDetail","inputs":[{"name":"","type":"bytes32","internalType":"bytes32"}],"outputs":[{"name":"sourceChainSelector","type":"uint64","internalType":"uint64"},{"name":"sender","type":"address","internalType":"address"},{"name":"message","type":"string","internalType":"string"},{"name":"token","type":"address","internalType":"address"},{"name":"amount","type":"uint256","internalType":"uint256"}],"stateMutability":"view"},{"type":"function","name":"methodologist","inputs":[],"outputs":[{"name":"","type":"address","internalType":"address"}],"stateMutability":"view"},{"type":"function","name":"methodology","inputs":[],"outputs":[{"name":"","type":"string","internalType":"string"}],"stateMutability":"view"},{"type":"function","name":"minter","inputs":[],"outputs":[{"name":"","type":"address","internalType":"address"}],"stateMutability":"view"},{"type":"function","name":"oraclePayment","inputs":[],"outputs":[{"name":"","type":"uint256","internalType":"uint256"}],"stateMutability":"view"},{"type":"function","name":"owner","inputs":[],"outputs":[{"name":"","type":"address","internalType":"address"}],"stateMutability":"view"},{"type":"function","name":"pause","inputs":[],"outputs":[],"stateMutability":"nonpayable"},{"type":"function","name":"paused","inputs":[],"outputs":[{"name":"","type":"bool","internalType":"bool"}],"stateMutability":"view"},{"type":"function","name":"priceInWei","inputs":[],"outputs":[{"name":"","type":"uint256","internalType":"uint256"}],"stateMutability":"view"},{"type":"function","name":"priceOracle","inputs":[],"outputs":[{"name":"","type":"address","internalType":"address"}],"stateMutability":"view"},{"type":"function","name":"proposeOwner","inputs":[{"name":"_proposedOwner","type":"address","internalType":"address"}],"outputs":[],"stateMutability":"nonpayable"},{"type":"function","name":"proposedOwner","inputs":[],"outputs":[{"name":"","type":"address","internalType":"address"}],"stateMutability":"view"},{"type":"function","name":"quoter","inputs":[],"outputs":[{"name":"","type":"address","internalType":"contract IQuoter"}],"stateMutability":"view"},{"type":"function","name":"receivedMessages","inputs":[{"name":"","type":"uint256","internalType":"uint256"}],"outputs":[{"name":"","type":"bytes32","internalType":"bytes32"}],"stateMutability":"view"},{"type":"function","name":"redemptionMessageIdByNonce","inputs":[{"name":"","type":"uint256","internalType":"uint256"}],"outputs":[{"name":"","type":"bytes32","internalType":"bytes32"}],"stateMutability":"view"},{"type":"function","name":"renounceOwnership","inputs":[],"outputs":[],"stateMutability":"nonpayable"},{"type":"function","name":"sendMessage","inputs":[{"name":"destinationChainSelector","type":"uint64","internalType":"uint64"},{"name":"receiver","type":"address","internalType":"address"},{"name":"_data","type":"bytes","internalType":"bytes"},{"name":"payFeesIn","type":"uint8","internalType":"enum CrossChainIndexFactory.PayFeesIn"}],"outputs":[{"name":"","type":"bytes32","internalType":"bytes32"}],"stateMutability":"nonpayable"},{"type":"function","name":"setCcipRouter","inputs":[{"name":"_router","type":"address","internalType":"address"}],"outputs":[],"stateMutability":"nonpayable"},{"type":"function","name":"setCrossChainToken","inputs":[{"name":"_chainSelector","type":"uint64","internalType":"uint64"},{"name":"_crossChainToken","type":"address","internalType":"address"},{"name":"_swapVersion","type":"uint256","internalType":"uint256"}],"outputs":[],"stateMutability":"nonpayable"},{"type":"function","name":"setCrossChainVault","inputs":[{"name":"_crossChainVault","type":"address","internalType":"address payable"}],"outputs":[],"stateMutability":"nonpayable"},{"type":"function","name":"setPriceOracle","inputs":[{"name":"_priceOracle","type":"address","internalType":"address"}],"outputs":[],"stateMutability":"nonpayable"},{"type":"function","name":"sourceChainSelectorF","inputs":[],"outputs":[{"name":"","type":"uint64","internalType":"uint64"}],"stateMutability":"view"},{"type":"function","name":"supplyCeiling","inputs":[],"outputs":[{"name":"","type":"uint256","internalType":"uint256"}],"stateMutability":"view"},{"type":"function","name":"supportsInterface","inputs":[{"name":"interfaceId","type":"bytes4","internalType":"bytes4"}],"outputs":[{"name":"","type":"bool","internalType":"bool"}],"stateMutability":"pure"},{"type":"function","name":"swap","inputs":[{"name":"tokenIn","type":"address","internalType":"address"},{"name":"tokenOut","type":"address","internalType":"address"},{"name":"amountIn","type":"uint256","internalType":"uint256"},{"name":"_recipient","type":"address","internalType":"address"},{"name":"_swapVersion","type":"uint256","internalType":"uint256"}],"outputs":[{"name":"","type":"uint256","internalType":"uint256"}],"stateMutability":"nonpayable"},{"type":"function","name":"swapRouterV2","inputs":[],"outputs":[{"name":"","type":"address","internalType":"contract IUniswapV2Router02"}],"stateMutability":"view"},{"type":"function","name":"swapRouterV3","inputs":[],"outputs":[{"name":"","type":"address","internalType":"contract ISwapRouter"}],"stateMutability":"view"},{"type":"function","name":"toUsdPriceFeed","inputs":[],"outputs":[{"name":"","type":"address","internalType":"contract AggregatorV3Interface"}],"stateMutability":"view"},{"type":"function","name":"transferOwnership","inputs":[{"name":"newOwner","type":"address","internalType":"address"}],"outputs":[],"stateMutability":"nonpayable"},{"type":"function","name":"unpause","inputs":[],"outputs":[],"stateMutability":"nonpayable"},{"type":"function","name":"weth","inputs":[],"outputs":[{"name":"","type":"address","internalType":"contract IWETH"}],"stateMutability":"view"},{"type":"event","name":"ChainlinkCancelled","inputs":[{"name":"id","type":"bytes32","indexed":true,"internalType":"bytes32"}],"anonymous":false},{"type":"event","name":"ChainlinkFulfilled","inputs":[{"name":"id","type":"bytes32","indexed":true,"internalType":"bytes32"}],"anonymous":false},{"type":"event","name":"ChainlinkRequested","inputs":[{"name":"id","type":"bytes32","indexed":true,"internalType":"bytes32"}],"anonymous":false},{"type":"event","name":"Initialized","inputs":[{"name":"version","type":"uint8","indexed":false,"internalType":"uint8"}],"anonymous":false},{"type":"event","name":"Issuanced","inputs":[{"name":"messageId","type":"bytes32","indexed":true,"internalType":"bytes32"},{"name":"nonce","type":"uint256","indexed":true,"internalType":"uint256"},{"name":"time","type":"uint256","indexed":false,"internalType":"uint256"}],"anonymous":false},{"type":"event","name":"MessageSent","inputs":[{"name":"messageId","type":"bytes32","indexed":false,"internalType":"bytes32"}],"anonymous":false},{"type":"event","name":"OwnershipTransferred","inputs":[{"name":"previousOwner","type":"address","indexed":true,"internalType":"address"},{"name":"newOwner","type":"address","indexed":true,"internalType":"address"}],"anonymous":false},{"type":"event","name":"Paused","inputs":[{"name":"account","type":"address","indexed":false,"internalType":"address"}],"anonymous":false},{"type":"event","name":"Redemption","inputs":[{"name":"messageId","type":"bytes32","indexed":true,"internalType":"bytes32"},{"name":"nonce","type":"uint256","indexed":true,"internalType":"uint256"},{"name":"time","type":"uint256","indexed":false,"internalType":"uint256"}],"anonymous":false},{"type":"event","name":"Unpaused","inputs":[{"name":"account","type":"address","indexed":false,"internalType":"address"}],"anonymous":false},{"type":"error","name":"InvalidRouter","inputs":[{"name":"router","type":"address","internalType":"address"}]}],"bytecode":{"object":"0x608060405234801561001057600080fd5b50614c29806100206000396000f3fe6080604052600436106103545760003560e01c806368e0d4e1116101c6578063b0f479a1116100f7578063c086381e11610095578063d153b60c1161006f578063d153b60c14610a7e578063ddca3f4314610a9e578063f2fde38b14610ab4578063ff5474f014610ad457600080fd5b8063c086381e14610a1e578063c6bbd5a714610a3e578063d030366c14610a5e57600080fd5b8063b631e80b116100d1578063b631e80b1461098e578063bcab90b3146109ae578063bf938db8146109ce578063c01bc982146109ee57600080fd5b8063b0f479a11461092a578063b3f006741461094e578063b5ed298a1461096e57600080fd5b80638da5cb5b11610164578063978bbdb91161013e578063978bbdb91461088b5780639c3ddb2e146108b75780639eeb1d50146108e85780639f8e67bf1461090a57600080fd5b80638da5cb5b146108135780639121c71714610831578063940373691461085e57600080fd5b80637d253aff116101a05780637d253aff1461076a57806381b152791461078a5780638456cb59146107de57806385572ffb146107f357600080fd5b806368e0d4e114610715578063715018a614610735578063744fbc7a1461074a57600080fd5b806327bf9b44116102a05780633f4ba83a1161023e5780635b6a0351116102185780635b6a0351146106885780635c975abb146106bd5780635f206b66146106d557806363973fda146106f557600080fd5b80633f4ba83a146106335780633fc8cef314610648578063530e784f1461066857600080fd5b8063306b3a281161027a578063306b3a28146105995780633c8da588146105c65780633d13272b146105db5780633d54cb6f146105fb57600080fd5b806327bf9b441461054d5780632b52684d1461056d5780632fecd5891461058357600080fd5b806317d88f461161030d57806319da7e2a116102e757806319da7e2a146104b75780631d5f45f5146104ed5780632630c12f1461050d5780632651e6621461052d57600080fd5b806317d88f461461045f578063184a732f1461047f578063195c49131461049557600080fd5b8063011ced5f1461036057806301ffc9a71461038957806307546172146103b95780630c02e130146103f157806313cb1f8314610407578063174cbe501461042757600080fd5b3661035b57005b600080fd5b34801561036c57600080fd5b5061037660d65481565b6040519081526020015b60405180910390f35b34801561039557600080fd5b506103a96103a43660046140c8565b610af4565b6040519015158152602001610380565b3480156103c557600080fd5b5060dd546103d9906001600160a01b031681565b6040516001600160a01b039091168152602001610380565b3480156103fd57600080fd5b5061037660e15481565b34801561041357600080fd5b50610376610422366004613ffa565b610b2b565b34801561043357600080fd5b50610376610442366004614280565b60ea60209081526000928352604080842090915290825290205481565b34801561046b57600080fd5b5061037661047a366004613f9f565b610c7b565b34801561048b57600080fd5b5061037660d95481565b3480156104a157600080fd5b506104b56104b03660046143e5565b610f98565b005b3480156104c357600080fd5b506103d96104d2366004614265565b60e9602052600090815260409020546001600160a01b031681565b3480156104f957600080fd5b5060e4546103d9906001600160a01b031681565b34801561051957600080fd5b5060dc546103d9906001600160a01b031681565b34801561053957600080fd5b506104b56105483660046142ac565b610fea565b34801561055957600080fd5b506104b5610568366004613ef4565b61129a565b34801561057957600080fd5b5061037660df5481565b34801561058f57600080fd5b5061037660d85481565b3480156105a557600080fd5b506103766105b4366004614096565b60ef6020526000908152604090205481565b3480156105d257600080fd5b506103766112cc565b3480156105e757600080fd5b5060d3546103d9906001600160a01b031681565b34801561060757600080fd5b5060d75461061b906001600160401b031681565b6040516001600160401b039091168152602001610380565b34801561063f57600080fd5b506104b56113f8565b34801561065457600080fd5b5060e7546103d9906001600160a01b031681565b34801561067457600080fd5b506104b5610683366004613ef4565b61140a565b34801561069457600080fd5b5060d0546106aa90600160a01b900461ffff1681565b60405161ffff9091168152602001610380565b3480156106c957600080fd5b50609e5460ff166103a9565b3480156106e157600080fd5b506104b56106f0366004613ef4565b61149e565b34801561070157600080fd5b5060e2546103d9906001600160a01b031681565b34801561072157600080fd5b5060e6546103d9906001600160a01b031681565b34801561074157600080fd5b506104b56114c8565b34801561075657600080fd5b5060e5546103d9906001600160a01b031681565b34801561077657600080fd5b5060d0546103d9906001600160a01b031681565b34801561079657600080fd5b506107c96107a536600461412c565b60ed6020908152600092835260408084209091529082529020805460019091015482565b60408051928352602083019190915201610380565b3480156107ea57600080fd5b506104b56114da565b3480156107ff57600080fd5b506104b561080e3660046140f2565b6114ea565b34801561081f57600080fd5b506039546001600160a01b03166103d9565b34801561083d57600080fd5b5061037661084c366004614096565b60f06020526000908152604090205481565b34801561086a57600080fd5b50610376610879366004614096565b60ee6020526000908152604090205481565b34801561089757600080fd5b5060d5546108a59060ff1681565b60405160ff9091168152602001610380565b3480156108c357600080fd5b506108d76108d2366004614096565b611531565b6040516103809594939291906146c4565b3480156108f457600080fd5b506108fd61160d565b60405161038091906145c1565b34801561091657600080fd5b5060db546103d9906001600160a01b031681565b34801561093657600080fd5b506000546201000090046001600160a01b03166103d9565b34801561095a57600080fd5b5060da546103d9906001600160a01b031681565b34801561097a57600080fd5b506104b5610989366004613ef4565b61169b565b34801561099a57600080fd5b5060e3546103d9906001600160a01b031681565b3480156109ba57600080fd5b506103766109c936600461437a565b6116eb565b3480156109da57600080fd5b506103766109e9366004613f2e565b6119cc565b3480156109fa57600080fd5b506103a9610a09366004613ef4565b60e06020526000908152604090205460ff1681565b348015610a2a57600080fd5b50610376610a39366004614096565b611a6f565b348015610a4a57600080fd5b5060e8546103d9906001600160a01b031681565b348015610a6a57600080fd5b50610376610a79366004614096565b611a96565b348015610a8a57600080fd5b50606b546103d9906001600160a01b031681565b348015610aaa57600080fd5b5061037660d45481565b348015610ac057600080fd5b506104b5610acf366004613ef4565b611ab7565b348015610ae057600080fd5b5060ec5461061b906001600160401b031681565b60006001600160e01b031982166385572ffb60e01b1480610b2557506001600160e01b031982166301ffc9a760e01b145b92915050565b60008215610c73578160031415610b5057610b4985858560016119cc565b9050610c73565b6040805160028082526060820183526000926020830190803683370190505090508581600081518110610b8557610b85614bb2565b60200260200101906001600160a01b031690816001600160a01b0316815250508481600181518110610bb957610bb9614bb2565b6001600160a01b03928316602091820292909201015260e55460405163d06ca61f60e01b8152600092919091169063d06ca61f90610bfd908890869060040161466f565b60006040518083038186803b158015610c1557600080fd5b505afa158015610c29573d6000803e3d6000fd5b505050506040513d6000823e601f3d908101601f19168201604052610c519190810190614040565b905080600181518110610c6657610c66614bb2565b6020026020010151925050505b949350505050565b60008160031415610e205760e35460405163095ea7b360e01b81526001600160a01b039182166004820152602481018690529087169063095ea7b390604401602060405180830381600087803b158015610cd457600080fd5b505af1158015610ce8573d6000803e3d6000fd5b505050506040513d601f19601f82011682018060405250810190610d0c9190614074565b5060408051610100810182526001600160a01b03888116825287811660208301908152610bb883850190815287831660608501908152426080860190815260a086018b8152600060c0880181815260e0890182815260e3549a5163414bf38960e01b81528a518a166004820152975189166024890152955162ffffff166044880152935187166064870152915160848601525160a4850152905160c48401529051831660e483015292939091169063414bf3899061010401602060405180830381600087803b158015610dde57600080fd5b505af1158015610df2573d6000803e3d6000fd5b505050506040513d601f19601f82011682018060405250810190610e1691906140af565b9250610f8f915050565b6040805160028082526060820183526000926020830190803683370190505090508681600081518110610e5557610e55614bb2565b60200260200101906001600160a01b031690816001600160a01b0316815250508581600181518110610e8957610e89614bb2565b6001600160a01b03928316602091820292909201015260e55460405163095ea7b360e01b81529082166004820152602481018790529088169063095ea7b390604401602060405180830381600087803b158015610ee557600080fd5b505af1158015610ef9573d6000803e3d6000fd5b505050506040513d601f19601f82011682018060405250810190610f1d9190614074565b5060e554604051635c11d79560e01b81526001600160a01b0390911690635c11d79590610f5790889060009086908a904290600401614688565b600060405180830381600087803b158015610f7157600080fd5b505af1158015610f85573d6000803e3d6000fd5b5050505060009150505b95945050505050565b610fa0611bdc565b6001600160401b03909216600090815260e96020908152604080832080546001600160a01b039095166001600160a01b03199095168517905560ea82528083209383529290522055565b600054610100900460ff161580801561100a5750600054600160ff909116105b806110245750303b158015611024575060005460ff166001145b61108c5760405162461bcd60e51b815260206004820152602e60248201527f496e697469616c697a61626c653a20636f6e747261637420697320616c72656160448201526d191e481a5b9a5d1a585b1a5e995960921b60648201526084015b60405180910390fd5b6000805460ff1916600117905580156110af576000805461ff0019166101001790555b6110b7611c36565b6110bf611c65565b60d780546001600160401b038d1667ffffffffffffffff1990911617905560d380546001600160a01b038c166001600160a01b031990911617905561112189600380546001600160a01b039092166001600160a01b0319909216919091179055565b6000805462010000600160b01b031916620100006001600160a01b038b81168202929092179283905560d080548d84166001600160b01b03199091168117600560a01b1790915560405163095ea7b360e01b8152919093049091166004820152600019602482015263095ea7b390604401602060405180830381600087803b1580156111ac57600080fd5b505af11580156111c0573d6000803e3d6000fd5b505050506040513d601f19601f820116820180604052508101906111e49190614074565b5060e780546001600160a01b03199081166001600160a01b038a81169190911790925560e38054821689841617905560e48054821688841617905560e58054821687841617905560e68054821686841617905560e28054909116918416919091179055801561128d576000805461ff0019169055604051600181527f7f26b83ff96e1f2b6a682f133852f6798a09c465da95921460cefb38474024989060200160405180910390a15b5050505050505050505050565b6112a2611bdc565b600080546001600160a01b03909216620100000262010000600160b01b0319909216919091179055565b60008060e260009054906101000a90046001600160a01b03166001600160a01b031663feaf968c6040518163ffffffff1660e01b815260040160a06040518083038186803b15801561131d57600080fd5b505afa158015611331573d6000803e3d6000fd5b505050506040513d601f19601f820116820180604052508101906113559190614424565b505050915050600060e260009054906101000a90046001600160a01b03166001600160a01b031663313ce5676040518163ffffffff1660e01b815260040160206040518083038186803b1580156113ab57600080fd5b505afa1580156113bf573d6000803e3d6000fd5b505050506040513d601f19601f820116820180604052508101906113e39190614474565b90506113f182826012611c94565b9392505050565b611400611bdc565b611408611cd4565b565b611412611bdc565b6001600160a01b03811661147c5760405162461bcd60e51b815260206004820152602b60248201527f5072696365206f7261636c6520616464726573732063616e6e6f74206265207a60448201526a65726f206164647265737360a81b6064820152608401611083565b60dc80546001600160a01b0319166001600160a01b0392909216919091179055565b6114a6611bdc565b60d380546001600160a01b0319166001600160a01b0392909216919091179055565b6114d0611bdc565b6114086000611d26565b6114e2611bdc565b611408611d78565b6000546201000090046001600160a01b0316331461151d576040516335fdcccd60e21b8152336004820152602401611083565b61152e61152982614a84565b611db5565b50565b60d260205260009081526040902080546001820180546001600160401b03831693680100000000000000009093046001600160a01b031692919061157490614b30565b80601f01602080910402602001604051908101604052809291908181526020018280546115a090614b30565b80156115ed5780601f106115c2576101008083540402835291602001916115ed565b820191906000526020600020905b8154815290600101906020018083116115d057829003601f168201915b50505050600283015460039093015491926001600160a01b031691905085565b60de805461161a90614b30565b80601f016020809104026020016040519081016040528092919081815260200182805461164690614b30565b80156116935780601f1061166857610100808354040283529160200191611693565b820191906000526020600020905b81548152906001019060200180831161167657829003601f168201915b505050505081565b6116a3611bdc565b6001600160a01b0381166116c95760405162461bcd60e51b8152600401611083906145d4565b606b80546001600160a01b0319166001600160a01b0392909216919091179055565b6040805160a081019091526001600160a01b03841660c082015260009081908060e0810160408051808303601f190181529181529082526020808301889052815160008082529181018352929091019190611768565b60408051808201909152600080825260208201528152602001906001900390816117415790505b508152602001600185600181111561178257611782614b9c565b1461178e57600061179b565b60d0546001600160a01b03165b6001600160a01b031681526020016117c36040518060200160405280620dbba0815250611f92565b9052600080546040516320487ded60e01b81529293509091620100009091046001600160a01b0316906320487ded90611802908a908690600401614708565b60206040518083038186803b15801561181a57600080fd5b505afa15801561182e573d6000803e3d6000fd5b505050506040513d601f19601f8201168201806040525081019061185291906140af565b90506000600185600181111561186a5761186a614b9c565b1415611900576000546040516396f4e9f960e01b8152620100009091046001600160a01b0316906396f4e9f9906118a7908b908790600401614708565b602060405180830381600087803b1580156118c157600080fd5b505af11580156118d5573d6000803e3d6000fd5b505050506040513d601f19601f820116820180604052508101906118f991906140af565b905061198e565b6000546040516396f4e9f960e01b8152620100009091046001600160a01b0316906396f4e9f9908490611939908c908890600401614708565b6020604051808303818588803b15801561195257600080fd5b505af1158015611966573d6000803e3d6000fd5b50505050506040513d601f19601f8201168201806040525081019061198b91906140af565b90505b6040518181527f54791b38f3859327992a1ca0590ad3c0f08feba98d1a4f56ab0dca74d203392a9060200160405180910390a1979650505050505050565b60dc5460e4546040516304a10b8960e51b81526001600160a01b039182166004820152868216602482015285821660448201526001600160801b0385166064820152600092919091169063942171209060840160206040518083038186803b158015611a3757600080fd5b505afa158015611a4b573d6000803e3d6000fd5b505050506040513d601f19601f82011682018060405250810190610f8f91906140af565b6000670de0b6b3a7640000611a826112cc565b611a8c9084614a2b565b610b259190614896565b60d18181548110611aa657600080fd5b600091825260209091200154905081565b6001600160a01b038116611add5760405162461bcd60e51b8152600401611083906145d4565b606b546001600160a01b03828116911614611b555760405162461bcd60e51b815260206004820152603260248201527f50726f706f7361626c654f776e61626c653a206e6577206f776e6572206973206044820152713737ba10383937b837b9b2b21037bbb732b960711b6064820152608401611083565b6001600160a01b0381163314611bd35760405162461bcd60e51b815260206004820152603a60248201527f50726f706f7361626c654f776e61626c653a20746869732063616c6c206d757360448201527f74206265206d61646520627920746865206e6577206f776e65720000000000006064820152608401611083565b61152e81611d26565b6039546001600160a01b031633146114085760405162461bcd60e51b815260206004820181905260248201527f4f776e61626c653a2063616c6c6572206973206e6f7420746865206f776e65726044820152606401611083565b600054610100900460ff16611c5d5760405162461bcd60e51b815260040161108390614624565b611408611fcf565b600054610100900460ff16611c8c5760405162461bcd60e51b815260040161108390614624565b611408611fff565b60008260ff168260ff161115611cca57611cae8383614a61565b611cb990600a6148fb565b611cc390856149a6565b90506113f1565b611cae8284614a61565b611cdc612032565b609e805460ff191690557f5db9ee0a495bf2e6ff9c91a7834c1ba4fdd244a5e8aa4e537bd38aeae4b073aa335b6040516001600160a01b03909116815260200160405180910390a1565b603980546001600160a01b038381166001600160a01b0319831681179093556040519116919082907f8be0079c531659141344cd1fd0a4f28419497f9722a3daafe3b4186f6b6457e090600090a35050565b611d8061207b565b609e805460ff191660011790557f62e78cea01bee320cd4e420270b5ea74000d11b0c9f74754ebdbfc544b05a258611d093390565b60008160200151905060008260400151806020019051810190611dd89190613f11565b90506000806000806000806000808a60600151806020019051810190611dfe919061415c565b975097509750975097509750975097508760001415611e325760808b0151611e2c818988878f8f89896120c1565b5061128d565b8760011415611e4e57611e498786858d8d8661268b565b61128d565b8760021415611e6457611e498786858d8d612a41565b8760031415611ec757611e496040518061012001604052808981526020018881526020018781526020018681526020018481526020018c6001600160401b031681526020018b6001600160a01b0316815260200185815260200183815250612d1a565b876004141561128d5760008b608001519050611f846040518061016001604052808a815260200189815260200188815260200187815260200185815260200183600081518110611f1957611f19614bb2565b6020026020010151600001516001600160a01b0316815260200183600081518110611f4657611f46614bb2565b60200260200101516020015181526020018d6001600160401b031681526020018c6001600160a01b0316815260200186815260200184815250612f8d565b505050505050505050505050565b60408051915160248084019190915281518084039091018152604490920190526020810180516001600160e01b03166397a657c960e01b17905290565b600054610100900460ff16611ff65760405162461bcd60e51b815260040161108390614624565b61140833611d26565b600054610100900460ff166120265760405162461bcd60e51b815260040161108390614624565b609e805460ff19169055565b609e5460ff166114085760405162461bcd60e51b815260206004820152601460248201527314185d5cd8589b194e881b9bdd081c185d5cd95960621b6044820152606401611083565b609e5460ff16156114085760405162461bcd60e51b815260206004820152601060248201526f14185d5cd8589b194e881c185d5cd95960821b6044820152606401611083565b6120ec6040518060800160405280600081526020016060815260200160608152602001606081525090565b6121c58960008151811061210257612102614bb2565b60200260200101516000015160e760009054906101000a90046001600160a01b03168b60008151811061213757612137614bb2565b60200260200101516020015160d360009054906101000a90046001600160a01b031660ea60008b6001600160401b03166001600160401b0316815260200190815260200160002060008f60008151811061219357612193614bb2565b6020026020010151600001516001600160a01b03166001600160a01b0316815260200190815260200160002054610c7b565b815287516001600160401b038111156121e0576121e0614bc8565b604051908082528060200260200182016040528015612209578160200160208202803683370190505b50602082015287516001600160401b0381111561222857612228614bc8565b604051908082528060200260200182016040528015612251578160200160208202803683370190505b50604082015260005b88518110156125d65760008360008151811061227857612278614bb2565b602002602001015185838151811061229257612292614bb2565b602002602001015184600001516122a99190614a2b565b6122b39190614896565b60e7548b519192506000916001600160a01b03909116908c90859081106122dc576122dc614bb2565b60200260200101516001600160a01b0316141561241c578a838151811061230557612305614bb2565b602090810291909101015160d3546040516370a0823160e01b81526001600160a01b0391821660048201529116906370a082319060240160206040518083038186803b15801561235457600080fd5b505afa158015612368573d6000803e3d6000fd5b505050506040513d601f19601f8201168201806040525081019061238c91906140af565b60e75460d35460405163a9059cbb60e01b81526001600160a01b03918216600482015260248101869052929350169063a9059cbb90604401602060405180830381600087803b1580156123de57600080fd5b505af11580156123f2573d6000803e3d6000fd5b505050506040513d601f19601f820116820180604052508101906124169190614074565b5061255c565b6124ef8b848151811061243157612431614bb2565b602002602001015160e760009054906101000a90046001600160a01b03168d868151811061246157612461614bb2565b602090810291909101015160d3546040516370a0823160e01b81526001600160a01b0391821660048201529116906370a082319060240160206040518083038186803b1580156124b057600080fd5b505afa1580156124c4573d6000803e3d6000fd5b505050506040513d601f19601f820116820180604052508101906124e891906140af565b6003610b2b565b905061255a60e760009054906101000a90046001600160a01b03168c858151811061251c5761251c614bb2565b60200260200101518460d360009054906101000a90046001600160a01b03168e888151811061254d5761254d614bb2565b602002602001015161304a565b505b6000612568838361487e565b905061257382611a6f565b8560200151858151811061258957612589614bb2565b60200260200101818152505061259e81611a6f565b856040015185815181106125b4576125b4614bb2565b60200260200101818152505050505080806125ce90614b6b565b91505061225a565b5060408051600080825260208083018452840151848401516126039492938d9390928c9290918401614558565b6040516020818303038152906040528160600181905250600061262d8686846060015160016116eb565b600088815260f060205260409081902082905551909150879082907f7513d57665f5bbb438203d2f2a896f1f0791e1e8cd0e2d76d7bc421bfb4f49aa906126779042815260200190565b60405180910390a350505050505050505050565b6000805b8751811015612884576000670de0b6b3a76400008983815181106126b5576126b5614bb2565b602090810291909101015160d3546040516370a0823160e01b81526001600160a01b0391821660048201529116906370a082319060240160206040518083038186803b15801561270457600080fd5b505afa158015612718573d6000803e3d6000fd5b505050506040513d601f19601f8201168201806040525081019061273c91906140af565b8560008151811061274f5761274f614bb2565b60200260200101516127619190614a2b565b61276b9190614896565b60e7548a519192506001600160a01b0316908a908490811061278f5761278f614bb2565b60200260200101516001600160a01b0316141561281d5760d3546040516377524af960e01b8152306004820152602481018390526001600160a01b03909116906377524af990604401600060405180830381600087803b1580156127f257600080fd5b505af1158015612806573d6000803e3d6000fd5b505050508083612816919061487e565b9250612871565b61286489838151811061283257612832614bb2565b602002602001015160e760009054906101000a90046001600160a01b031683308c878151811061254d5761254d614bb2565b61286e908461487e565b92505b508061287c81614b6b565b91505061268f565b5060e7546001600160401b038516600090815260e9602090815260408083205460ea83528184206001600160a01b0391821680865293529083205492936128d2939116919085903090610c7b565b60408051600180825281830190925291925060009190816020015b60408051808201909152600080825260208201528152602001906001900390816128ed5750506001600160401b038716600090815260e9602052604081205482519293506001600160a01b03169183919061294a5761294a614bb2565b6020026020010151600001906001600160a01b031690816001600160a01b031681525050818160008151811061298257612982614bb2565b60209081029190910181015181019190915260408051600080825292810183815281830190925291906129c0906001908d908c868060608101614558565b604051602081830303815290604052905060006129e189838a8760016131b1565b60008b815260ef602052604090819020829055519091508a9082907f2c80cd3884ced9a087f5eed6c8ddd78af4b449cdea210b92786f35bd496f534390612a2b9042815260200190565b60405180910390a3505050505050505050505050565b604080516000808252602082019092529050600086516001600160401b03811115612a6e57612a6e614bc8565b604051908082528060200260200182016040528015612a97578160200160208202803683370190505b50905060005b8751811015612cc95760e75488516001600160a01b0390911690899083908110612ac957612ac9614bb2565b60200260200101516001600160a01b03161415612b9f57612b7c888281518110612af557612af5614bb2565b602090810291909101015160d3546040516370a0823160e01b81526001600160a01b0391821660048201529116906370a082319060240160206040518083038186803b158015612b4457600080fd5b505afa158015612b58573d6000803e3d6000fd5b505050506040513d601f19601f82011682018060405250810190610a3991906140af565b828281518110612b8e57612b8e614bb2565b602002602001018181525050612cb7565b6000612c8c898381518110612bb657612bb6614bb2565b602002602001015160e760009054906101000a90046001600160a01b03168b8581518110612be657612be6614bb2565b602090810291909101015160d3546040516370a0823160e01b81526001600160a01b0391821660048201529116906370a082319060240160206040518083038186803b158015612c3557600080fd5b505afa158015612c49573d6000803e3d6000fd5b505050506040513d601f19601f82011682018060405250810190612c6d91906140af565b8b8681518110612c7f57612c7f614bb2565b6020026020010151610b2b565b9050612c9781611a6f565b838381518110612ca957612ca9614bb2565b602002602001018181525050505b80612cc181614b6b565b915050612a9d565b5060408051600080825260208201835291612cf1916002918b91908a90879089908401614558565b6040516020818303038152906040529050612d0f85858360016116eb565b505050505050505050565b612d4c6040518060a0016040528060008152602001600081526020016000815260200160008152602001600081525090565b81515181526101008201518051600090612d6857612d68614bb2565b6020026020010151816020018181525050816101000151600181518110612d9157612d91614bb2565b6020026020010151816040018181525050816101000151600281518110612dba57612dba614bb2565b60200260200101518160800181815250506000612df982846000015185602001518660400151876060015188608001518960c001518a60e00151613614565b60e75460a0850180516001600160401b03908116600090815260e9602081815260408084205486518616855260ea835281852096519095168452918152818320546001600160a01b03908116845294905281205494955093612e65938316929091169085903090610c7b565b60408051600180825281830190925291925060009190816020015b6040805180820190915260008082526020820152815260200190600190039081612e8057505060a08601516001600160401b0316600090815260e9602052604081205482519293506001600160a01b031691839190612ee157612ee1614bb2565b6020026020010151600001906001600160a01b031690816001600160a01b0316815250508181600081518110612f1957612f19614bb2565b602090810291909101810151810191909152604080516000808252818401835288519389015160e08a015192949193612f5c936003939291879081908101614558565b6040516020818303038152906040529050612f838760a00151828960c001518660016131b1565b5050505050505050565b60a081015160e75460c083015160d354600093612fbc9390926001600160a01b03918216929091166003610c7b565b9050612fe682600001518360200151846040015185606001518660800151868861014001516139cf565b6040805160008082526020820181815282840190935261012085015191929161301b9060049084908190878060608101614558565b60405160208183030381529060405290506130428560e001518661010001518360016116eb565b505050505050565b600081600314156130fc5760d3546040516305f370ed60e41b81526001600160a01b0388811660048301528781166024830152604482018790528581166064830152608482018590526000921690635f370ed09060a401602060405180830381600087803b1580156130bb57600080fd5b505af11580156130cf573d6000803e3d6000fd5b505050506040513d601f19601f820116820180604052508101906130f391906140af565b9150610f8f9050565b600061310a87878786610b2b565b60d3546040516305f370ed60e41b81526001600160a01b038a81166004830152898116602483015260448201899052878116606483015260848201879052929350911690635f370ed09060a401602060405180830381600087803b15801561317157600080fd5b505af1158015613185573d6000803e3d6000fd5b505050506040513d601f19601f820116820180604052508101906131a991906140af565b509050610f8f565b815160d05460009190600160a01b900461ffff1681111561323a5760405162461bcd60e51b815260206004820152603760248201527f4d6178696d756d203520646966666572656e7420746f6b656e732063616e206260448201527f652073656e74207065722043434950204d6573736167650000000000000000006064820152608401611083565b60005b8181101561336f5760d05485516001600160a01b039091169086908390811061326857613268614bb2565b6020026020010151600001516001600160a01b0316146133675784818151811061329457613294614bb2565b6020026020010151600001516001600160a01b031663095ea7b3600060029054906101000a90046001600160a01b03168784815181106132d6576132d6614bb2565b6020026020010151602001516040518363ffffffff1660e01b81526004016133139291906001600160a01b03929092168252602082015260400190565b602060405180830381600087803b15801561332d57600080fd5b505af1158015613341573d6000803e3d6000fd5b505050506040513d601f19601f820116820180604052508101906133659190614074565b505b60010161323d565b506040805160a081019091526001600160a01b03861660c08201526000908060e0810160408051601f19818403018152918152908252602082018a9052810187905260600160018660018111156133c8576133c8614b9c565b146133d45760006133e1565b60d0546001600160a01b03165b6001600160a01b031681526020016134096040518060200160405280620dbba0815250611f92565b9052600080546040516320487ded60e01b81529293509091620100009091046001600160a01b0316906320487ded90613448908c908690600401614708565b60206040518083038186803b15801561346057600080fd5b505afa158015613474573d6000803e3d6000fd5b505050506040513d601f19601f8201168201806040525081019061349891906140af565b9050600060018660018111156134b0576134b0614b9c565b1415613546576000546040516396f4e9f960e01b8152620100009091046001600160a01b0316906396f4e9f9906134ed908d908790600401614708565b602060405180830381600087803b15801561350757600080fd5b505af115801561351b573d6000803e3d6000fd5b505050506040513d601f19601f8201168201806040525081019061353f91906140af565b90506135d4565b6000546040516396f4e9f960e01b8152620100009091046001600160a01b0316906396f4e9f990849061357f908e908890600401614708565b6020604051808303818588803b15801561359857600080fd5b505af11580156135ac573d6000803e3d6000fd5b50505050506040513d601f19601f820116820180604052508101906135d191906140af565b90505b6040518181527f54791b38f3859327992a1ca0590ad3c0f08feba98d1a4f56ab0dca74d203392a9060200160405180910390a19998505050505050505050565b600061366c604051806101400160405280600081526020016000815260200160008152602001600081526020016000815260200160008152602001600081526020016000815260200160008152602001600081525090565b60e75460d3546040516370a0823160e01b81526001600160a01b0391821660048201529116906370a082319060240160206040518083038186803b1580156136b357600080fd5b505afa1580156136c7573d6000803e3d6000fd5b505050506040513d601f19601f820116820180604052508101906136eb91906140af565b60a082015260005b815181101561385d5760e7548a516000916001600160a01b0316908c908490811061372057613720614bb2565b60200260200101516001600160a01b03161415613742575060a0820151613834565b6138318b838151811061375757613757614bb2565b602002602001015160e760009054906101000a90046001600160a01b03168d858151811061378757613787614bb2565b602090810291909101015160d3546040516370a0823160e01b81526001600160a01b0391821660048201529116906370a082319060240160206040518083038186803b1580156137d657600080fd5b505afa1580156137ea573d6000803e3d6000fd5b505050506040513d601f19601f8201168201806040525081019061380e91906140af565b60d3548d516001600160a01b03909116908e908890811061254d5761254d614bb2565b90505b8083606001818151613846919061487e565b90525081905061385581614b6b565b9150506136f3565b50875160c082015260208a015160808b01516138829068056bc75e2d63100000614a2b565b61388c9190614896565b60e08201819052604082015160608301516138a79190614a2b565b6138b19190614896565b610100820181905260608201516138c89190614a4a565b61012082015260005b8160c001518110156139bc5760e75489516001600160a01b03909116908a908390811061390057613900614bb2565b60200260200101516001600160a01b0316146139aa5760006139a760e760009054906101000a90046001600160a01b03168b848151811061394357613943614bb2565b602002602001015185604001518a868151811061396257613962614bb2565b602002602001015187610100015161397a9190614a2b565b6139849190614896565b60d3548c516001600160a01b03909116908d908890811061254d5761254d614bb2565b50505b806139b481614b6b565b9150506138d1565b5061012001519998505050505050505050565b613a086040518060c001604052806000815260200160008152602001600081526020016000815260200160008152602001600081525090565b81600181518110613a1b57613a1b614bb2565b602090810291909101810151825288519082015260e75460d3546040516370a0823160e01b81526001600160a01b0391821660048201529116906370a082319060240160206040518083038186803b158015613a7657600080fd5b505afa158015613a8a573d6000803e3d6000fd5b505050506040513d601f19601f82011682018060405250810190613aae91906140af565b60408201526000606082018190525b8160200151811015613bea576000898281518110613add57613add614bb2565b602090810291909101015160e7549091506000906001600160a01b0380841691161415613b0f57506040830151613bbf565b60e75460d3546040516370a0823160e01b81526001600160a01b039182166004820152613bbc92859290811691908316906370a082319060240160206040518083038186803b158015613b6157600080fd5b505afa158015613b75573d6000803e3d6000fd5b505050506040513d601f19601f82011682018060405250810190613b9991906140af565b60d3548d516001600160a01b03909116908e908990811061254d5761254d614bb2565b90505b8084606001818151613bd1919061487e565b905250829150613be2905081614b6b565b915050613abd565b506060810151613bfa908461487e565b6080820152865160a082015260005b8160a00151811015612d0f576000888281518110613c2957613c29614bb2565b602002602001015190506000868381518110613c4757613c47614bb2565b602090810291909101015160e7549091506001600160a01b03838116911614613cc55760e75484516080860151600092613cc2926001600160a01b0390911691869190613c95908790614a2b565b613c9f9190614896565b60d3548d516001600160a01b03909116908e908a90811061254d5761254d614bb2565b50505b50508080613cd290614b6b565b915050613c09565b600082601f830112613ceb57600080fd5b81516020613d00613cfb8361485b565b61482b565b80838252828201915082860187848660051b8901011115613d2057600080fd5b60005b85811015613d48578151613d3681614bde565b84529284019290840190600101613d23565b5090979650505050505050565b600082601f830112613d6657600080fd5b81356020613d76613cfb8361485b565b80838252828201915082860187848660061b8901011115613d9657600080fd5b6000805b86811015613de157604080848c031215613db2578283fd5b613dba6147e1565b8435613dc581614bde565b8152848801358882015286529486019490920191600101613d9a565b509198975050505050505050565b600082601f830112613e0057600080fd5b81516020613e10613cfb8361485b565b80838252828201915082860187848660051b8901011115613e3057600080fd5b60005b85811015613d4857815184529284019290840190600101613e33565b600082601f830112613e6057600080fd5b81356001600160401b03811115613e7957613e79614bc8565b613e8c601f8201601f191660200161482b565b818152846020838601011115613ea157600080fd5b816020850160208301376000918101602001919091529392505050565b80356001600160401b0381168114613ed557600080fd5b919050565b805169ffffffffffffffffffff81168114613ed557600080fd5b600060208284031215613f0657600080fd5b81356113f181614bde565b600060208284031215613f2357600080fd5b81516113f181614bde565b60008060008060808587031215613f4457600080fd5b8435613f4f81614bde565b93506020850135613f5f81614bde565b925060408501356001600160801b0381168114613f7b57600080fd5b9150606085013563ffffffff81168114613f9457600080fd5b939692955090935050565b600080600080600060a08688031215613fb757600080fd5b8535613fc281614bde565b94506020860135613fd281614bde565b9350604086013592506060860135613fe981614bde565b949793965091946080013592915050565b6000806000806080858703121561401057600080fd5b843561401b81614bde565b9350602085013561402b81614bde565b93969395505050506040820135916060013590565b60006020828403121561405257600080fd5b81516001600160401b0381111561406857600080fd5b610c7384828501613def565b60006020828403121561408657600080fd5b815180151581146113f157600080fd5b6000602082840312156140a857600080fd5b5035919050565b6000602082840312156140c157600080fd5b5051919050565b6000602082840312156140da57600080fd5b81356001600160e01b0319811681146113f157600080fd5b60006020828403121561410457600080fd5b81356001600160401b0381111561411a57600080fd5b820160a081850312156113f157600080fd5b6000806040838503121561413f57600080fd5b82359150602083013561415181614bde565b809150509250929050565b600080600080600080600080610100898b03121561417957600080fd5b8851975060208901516001600160401b038082111561419757600080fd5b6141a38c838d01613cda565b985060408b01519150808211156141b957600080fd5b6141c58c838d01613cda565b975060608b01519150808211156141db57600080fd5b6141e78c838d01613def565b965060808b01519150808211156141fd57600080fd5b6142098c838d01613def565b955060a08b0151945060c08b015191508082111561422657600080fd5b6142328c838d01613def565b935060e08b015191508082111561424857600080fd5b506142558b828c01613def565b9150509295985092959890939650565b60006020828403121561427757600080fd5b6113f182613ebe565b6000806040838503121561429357600080fd5b61429c83613ebe565b9150602083013561415181614bde565b6000806000806000806000806000806101408b8d0312156142cc57600080fd5b6142d58b613ebe565b995060208b01356142e581614bde565b985060408b01356142f581614bde565b975060608b013561430581614bde565b965060808b013561431581614bde565b955060a08b013561432581614bde565b945060c08b013561433581614bde565b935060e08b013561434581614bde565b92506101008b013561435681614bde565b91506101208b013561436781614bde565b809150509295989b9194979a5092959850565b6000806000806080858703121561439057600080fd5b61439985613ebe565b935060208501356143a981614bde565b925060408501356001600160401b038111156143c457600080fd5b6143d087828801613e4f565b925050606085013560028110613f9457600080fd5b6000806000606084860312156143fa57600080fd5b61440384613ebe565b9250602084013561441381614bde565b929592945050506040919091013590565b600080600080600060a0868803121561443c57600080fd5b61444586613eda565b945060208601519350604086015192506060860151915061446860808701613eda565b90509295509295909350565b60006020828403121561448657600080fd5b815160ff811681146113f157600080fd5b600081518084526020808501945080840160005b838110156144d05781516001600160a01b0316875295820195908201906001016144ab565b509495945050505050565b600081518084526020808501945080840160005b838110156144d0578151875295820195908201906001016144ef565b6000815180845260005b8181101561453157602081850181015186830182015201614515565b81811115614543576000602083870101525b50601f01601f19169290920160200192915050565b60ff8716815260c06020820152600061457460c0830188614497565b82810360408401526145868188614497565b905085606084015282810360808401526145a081866144db565b905082810360a08401526145b481856144db565b9998505050505050505050565b6020815260006113f1602083018461450b565b60208082526030908201527f50726f706f7361626c654f776e61626c653a206e6577206f776e65722069732060408201526f746865207a65726f206164647265737360801b606082015260800190565b6020808252602b908201527f496e697469616c697a61626c653a20636f6e7472616374206973206e6f74206960408201526a6e697469616c697a696e6760a81b606082015260800190565b828152604060208201526000610c736040830184614497565b85815284602082015260a0604082015260006146a760a0830186614497565b6001600160a01b0394909416606083015250608001529392505050565b6001600160401b0386168152600060018060a01b03808716602084015260a060408401526146f560a084018761450b565b9416606083015250608001529392505050565b600060406001600160401b038516835260208181850152845160a08386015261473460e086018261450b565b905081860151603f1980878403016060880152614751838361450b565b88860151888203830160808a01528051808352908601945060009350908501905b808410156147a457845180516001600160a01b0316835286015186830152938501936001939093019290860190614772565b5060608901516001600160a01b031660a08901526080890151888203830160c08a015295506147d3818761450b565b9a9950505050505050505050565b604080519081016001600160401b038111828210171561480357614803614bc8565b60405290565b60405160a081016001600160401b038111828210171561480357614803614bc8565b604051601f8201601f191681016001600160401b038111828210171561485357614853614bc8565b604052919050565b60006001600160401b0382111561487457614874614bc8565b5060051b60200190565b6000821982111561489157614891614b86565b500190565b6000826148b357634e487b7160e01b600052601260045260246000fd5b500490565b600181815b808511156148f35781600019048211156148d9576148d9614b86565b808516156148e657918102915b93841c93908002906148bd565b509250929050565b60006113f160ff84168360008261491457506001610b25565b8161492157506000610b25565b816001811461493757600281146149415761495d565b6001915050610b25565b60ff84111561495257614952614b86565b50506001821b610b25565b5060208310610133831016604e8410600b8410161715614980575081810a610b25565b61498a83836148b8565b806000190482111561499e5761499e614b86565b029392505050565b60006001600160ff1b03818413828413808216868404861116156149cc576149cc614b86565b600160ff1b60008712828116878305891216156149eb576149eb614b86565b60008712925087820587128484161615614a0757614a07614b86565b87850587128184161615614a1d57614a1d614b86565b505050929093029392505050565b6000816000190483118215151615614a4557614a45614b86565b500290565b600082821015614a5c57614a5c614b86565b500390565b600060ff821660ff841680821015614a7b57614a7b614b86565b90039392505050565b600060a08236031215614a9657600080fd5b614a9e614809565b82358152614aae60208401613ebe565b602082015260408301356001600160401b0380821115614acd57600080fd5b614ad936838701613e4f565b60408401526060850135915080821115614af257600080fd5b614afe36838701613e4f565b60608401526080850135915080821115614b1757600080fd5b50614b2436828601613d55565b60808301525092915050565b600181811c90821680614b4457607f821691505b60208210811415614b6557634e487b7160e01b600052602260045260246000fd5b50919050565b6000600019821415614b7f57614b7f614b86565b5060010190565b634e487b7160e01b600052601160045260246000fd5b634e487b7160e01b600052602160045260246000fd5b634e487b7160e01b600052603260045260246000fd5b634e487b7160e01b600052604160045260246000fd5b6001600160a01b038116811461152e57600080fdfea26469706673582212207c2046d2c0e7c24b7603ea64e0632b182b054dc2ea8c691d35d6de24e9097f4164736f6c63430008070033","linkReferences":{}},"methodIdentifiers":{"ccipReceive((bytes32,uint64,bytes,bytes,(address,uint256)[]))":"85572ffb","convertEthToUsd(uint256)":"c086381e","crossChainToken(uint64)":"19da7e2a","crossChainTokenSwapVersion(uint64,address)":"174cbe50","crossChainVault()":"3d13272b","currentChainSelector()":"3d54cb6f","estimateAmountOut(address,address,uint128,uint32)":"bf938db8","factoryV2()":"68e0d4e1","factoryV3()":"1d5f45f5","fee()":"ddca3f43","feeRate()":"978bbdb9","feeRatePerDayScaled()":"2fecd589","feeReceiver()":"b3f00674","feeTimestamp()":"184a732f","getAmountOut(address,address,uint256,uint256)":"13cb1f83","getRouter()":"b0f479a1","i_link()":"7d253aff","i_maxTokensLength()":"5b6a0351","initialize(uint64,address,address,address,address,address,address,address,address,address)":"2651e662","isRestricted(address)":"c01bc982","issuanceCompletedTokensCount(uint256)":"94037369","issuanceMessageIdByNonce(uint256)":"9121c717","issuanceTokenOldAndNewValues(uint256,address)":"81b15279","latestFeeUpdate()":"011ced5f","messageDetail(bytes32)":"9c3ddb2e","methodologist()":"9f8e67bf","methodology()":"9eeb1d50","minter()":"07546172","oraclePayment()":"0c02e130","owner()":"8da5cb5b","pause()":"8456cb59","paused()":"5c975abb","priceInWei()":"3c8da588","priceOracle()":"2630c12f","proposeOwner(address)":"b5ed298a","proposedOwner()":"d153b60c","quoter()":"c6bbd5a7","receivedMessages(uint256)":"d030366c","redemptionMessageIdByNonce(uint256)":"306b3a28","renounceOwnership()":"715018a6","sendMessage(uint64,address,bytes,uint8)":"bcab90b3","setCcipRouter(address)":"27bf9b44","setCrossChainToken(uint64,address,uint256)":"195c4913","setCrossChainVault(address)":"5f206b66","setPriceOracle(address)":"530e784f","sourceChainSelectorF()":"ff5474f0","supplyCeiling()":"2b52684d","supportsInterface(bytes4)":"01ffc9a7","swap(address,address,uint256,address,uint256)":"17d88f46","swapRouterV2()":"744fbc7a","swapRouterV3()":"b631e80b","toUsdPriceFeed()":"63973fda","transferOwnership(address)":"f2fde38b","unpause()":"3f4ba83a","weth()":"3fc8cef3"},"id":35}