{"abi":[{"type":"function","name":"getToken","inputs":[{"name":"_token","type":"address","internalType":"address"}],"outputs":[],"stateMutability":"nonpayable"},{"type":"function","name":"owner","inputs":[],"outputs":[{"name":"","type":"address","internalType":"address"}],"stateMutability":"view"},{"type":"function","name":"renounceOwnership","inputs":[],"outputs":[],"stateMutability":"nonpayable"},{"type":"function","name":"transferOwnership","inputs":[{"name":"newOwner","type":"address","internalType":"address"}],"outputs":[],"stateMutability":"nonpayable"},{"type":"function","name":"withdrawToken","inputs":[{"name":"_token","type":"address","internalType":"address"},{"name":"_amount","type":"uint256","internalType":"uint256"}],"outputs":[],"stateMutability":"nonpayable"},{"type":"event","name":"OwnershipTransferred","inputs":[{"name":"previousOwner","type":"address","indexed":true,"internalType":"address"},{"name":"newOwner","type":"address","indexed":true,"internalType":"address"}],"anonymous":false}],"bytecode":{"object":"0x608060405234801561001057600080fd5b5061002d61002261003260201b60201c565b61003a60201b60201c565b6100fe565b600033905090565b60008060009054906101000a900473ffffffffffffffffffffffffffffffffffffffff169050816000806101000a81548173ffffffffffffffffffffffffffffffffffffffff021916908373ffffffffffffffffffffffffffffffffffffffff1602179055508173ffffffffffffffffffffffffffffffffffffffff168173ffffffffffffffffffffffffffffffffffffffff167f8be0079c531659141344cd1fd0a4f28419497f9722a3daafe3b4186f6b6457e060405160405180910390a35050565b6107788061010d6000396000f3fe608060405234801561001057600080fd5b50600436106100575760003560e01c8063597704381461005c578063715018a6146100785780638da5cb5b146100825780639e281a98146100a0578063f2fde38b146100bc575b600080fd5b6100766004803603810190610071919061045b565b6100d8565b005b610080610163565b005b61008a610177565b6040516100979190610497565b60405180910390f35b6100ba60048036038101906100b591906104e8565b6101a0565b005b6100d660048036038101906100d1919061045b565b61022b565b005b8073ffffffffffffffffffffffffffffffffffffffff1663a9059cbb33683635c9adc5dea000006040518363ffffffff1660e01b815260040161011c92919061056d565b6020604051808303816000875af115801561013b573d6000803e3d6000fd5b505050506040513d601f19601f8201168201806040525081019061015f91906105ce565b5050565b61016b6102ae565b610175600061032c565b565b60008060009054906101000a900473ffffffffffffffffffffffffffffffffffffffff16905090565b6101a86102ae565b8173ffffffffffffffffffffffffffffffffffffffff1663a9059cbb33836040518363ffffffff1660e01b81526004016101e392919061060a565b6020604051808303816000875af1158015610202573d6000803e3d6000fd5b505050506040513d601f19601f8201168201806040525081019061022691906105ce565b505050565b6102336102ae565b600073ffffffffffffffffffffffffffffffffffffffff168173ffffffffffffffffffffffffffffffffffffffff16036102a2576040517f08c379a0000000000000000000000000000000000000000000000000000000008152600401610299906106b6565b60405180910390fd5b6102ab8161032c565b50565b6102b66103f0565b73ffffffffffffffffffffffffffffffffffffffff166102d4610177565b73ffffffffffffffffffffffffffffffffffffffff161461032a576040517f08c379a000000000000000000000000000000000000000000000000000000000815260040161032190610722565b60405180910390fd5b565b60008060009054906101000a900473ffffffffffffffffffffffffffffffffffffffff169050816000806101000a81548173ffffffffffffffffffffffffffffffffffffffff021916908373ffffffffffffffffffffffffffffffffffffffff1602179055508173ffffffffffffffffffffffffffffffffffffffff168173ffffffffffffffffffffffffffffffffffffffff167f8be0079c531659141344cd1fd0a4f28419497f9722a3daafe3b4186f6b6457e060405160405180910390a35050565b600033905090565b600080fd5b600073ffffffffffffffffffffffffffffffffffffffff82169050919050565b6000610428826103fd565b9050919050565b6104388161041d565b811461044357600080fd5b50565b6000813590506104558161042f565b92915050565b600060208284031215610471576104706103f8565b5b600061047f84828501610446565b91505092915050565b6104918161041d565b82525050565b60006020820190506104ac6000830184610488565b92915050565b6000819050919050565b6104c5816104b2565b81146104d057600080fd5b50565b6000813590506104e2816104bc565b92915050565b600080604083850312156104ff576104fe6103f8565b5b600061050d85828601610446565b925050602061051e858286016104d3565b9150509250929050565b6000819050919050565b6000819050919050565b600061055761055261054d84610528565b610532565b6104b2565b9050919050565b6105678161053c565b82525050565b60006040820190506105826000830185610488565b61058f602083018461055e565b9392505050565b60008115159050919050565b6105ab81610596565b81146105b657600080fd5b50565b6000815190506105c8816105a2565b92915050565b6000602082840312156105e4576105e36103f8565b5b60006105f2848285016105b9565b91505092915050565b610604816104b2565b82525050565b600060408201905061061f6000830185610488565b61062c60208301846105fb565b9392505050565b600082825260208201905092915050565b7f4f776e61626c653a206e6577206f776e657220697320746865207a65726f206160008201527f6464726573730000000000000000000000000000000000000000000000000000602082015250565b60006106a0602683610633565b91506106ab82610644565b604082019050919050565b600060208201905081810360008301526106cf81610693565b9050919050565b7f4f776e61626c653a2063616c6c6572206973206e6f7420746865206f776e6572600082015250565b600061070c602083610633565b9150610717826106d6565b602082019050919050565b6000602082019050818103600083015261073b816106ff565b905091905056fea2646970667358221220b3322f1d706a7194567abdb6f918c09300cd70b93666275f4533331a3fca95db64736f6c634300081a0033","linkReferences":{}},"methodIdentifiers":{"getToken(address)":"59770438","owner()":"8da5cb5b","renounceOwnership()":"715018a6","transferOwnership(address)":"f2fde38b","withdrawToken(address,uint256)":"9e281a98"},"id":1}