{"abi":[{"type":"function","name":"getToken","inputs":[{"name":"_token","type":"address","internalType":"address"}],"outputs":[],"stateMutability":"nonpayable"},{"type":"function","name":"owner","inputs":[],"outputs":[{"name":"","type":"address","internalType":"address"}],"stateMutability":"view"},{"type":"function","name":"renounceOwnership","inputs":[],"outputs":[],"stateMutability":"nonpayable"},{"type":"function","name":"transferOwnership","inputs":[{"name":"newOwner","type":"address","internalType":"address"}],"outputs":[],"stateMutability":"nonpayable"},{"type":"function","name":"withdrawToken","inputs":[{"name":"_token","type":"address","internalType":"address"},{"name":"_amount","type":"uint256","internalType":"uint256"}],"outputs":[],"stateMutability":"nonpayable"},{"type":"event","name":"OwnershipTransferred","inputs":[{"name":"previousOwner","type":"address","indexed":true,"internalType":"address"},{"name":"newOwner","type":"address","indexed":true,"internalType":"address"}],"anonymous":false}],"bytecode":{"object":"0x6080604052348015600f57600080fd5b50601733601b565b606b565b600080546001600160a01b038381166001600160a01b0319831681178455604051919092169283917f8be0079c531659141344cd1fd0a4f28419497f9722a3daafe3b4186f6b6457e09190a35050565b6103b58061007a6000396000f3fe608060405234801561001057600080fd5b50600436106100575760003560e01c8063597704381461005c578063715018a6146100715780638da5cb5b146100795780639e281a9814610098578063f2fde38b146100ab575b600080fd5b61006f61006a366004610311565b6100be565b005b61006f61013b565b600054604080516001600160a01b039092168252519081900360200190f35b61006f6100a6366004610333565b61014f565b61006f6100b9366004610311565b6101cd565b60405163a9059cbb60e01b8152336004820152683635c9adc5dea0000060248201526001600160a01b0382169063a9059cbb906044016020604051808303816000875af1158015610113573d6000803e3d6000fd5b505050506040513d601f19601f82011682018060405250810190610137919061035d565b5050565b61014361024b565b61014d60006102a5565b565b61015761024b565b60405163a9059cbb60e01b8152336004820152602481018290526001600160a01b0383169063a9059cbb906044016020604051808303816000875af11580156101a4573d6000803e3d6000fd5b505050506040513d601f19601f820116820180604052508101906101c8919061035d565b505050565b6101d561024b565b6001600160a01b03811661023f5760405162461bcd60e51b815260206004820152602660248201527f4f776e61626c653a206e6577206f776e657220697320746865207a65726f206160448201526564647265737360d01b60648201526084015b60405180910390fd5b610248816102a5565b50565b6000546001600160a01b0316331461014d5760405162461bcd60e51b815260206004820181905260248201527f4f776e61626c653a2063616c6c6572206973206e6f7420746865206f776e65726044820152606401610236565b600080546001600160a01b038381166001600160a01b0319831681178455604051919092169283917f8be0079c531659141344cd1fd0a4f28419497f9722a3daafe3b4186f6b6457e09190a35050565b80356001600160a01b038116811461030c57600080fd5b919050565b60006020828403121561032357600080fd5b61032c826102f5565b9392505050565b6000806040838503121561034657600080fd5b61034f836102f5565b946020939093013593505050565b60006020828403121561036f57600080fd5b8151801515811461032c57600080fdfea2646970667358221220dd81072e7515d3bb92c9e063f16527abfdbc5228996336688a1d6f1ebda8647f64736f6c634300081a0033","linkReferences":{}},"methodIdentifiers":{"getToken(address)":"59770438","owner()":"8da5cb5b","renounceOwnership()":"715018a6","transferOwnership(address)":"f2fde38b","withdrawToken(address,uint256)":"9e281a98"},"id":1}