{"abi":[{"type":"constructor","inputs":[],"stateMutability":"nonpayable"},{"type":"function","name":"decimals","inputs":[],"outputs":[{"name":"","type":"uint8","internalType":"uint8"}],"stateMutability":"view"},{"type":"function","name":"description","inputs":[],"outputs":[{"name":"","type":"string","internalType":"string"}],"stateMutability":"pure"},{"type":"function","name":"getRoundData","inputs":[{"name":"","type":"uint80","internalType":"uint80"}],"outputs":[{"name":"roundId","type":"uint80","internalType":"uint80"},{"name":"answer","type":"int256","internalType":"int256"},{"name":"startedAt","type":"uint256","internalType":"uint256"},{"name":"updatedAt_","type":"uint256","internalType":"uint256"},{"name":"answeredInRound","type":"uint80","internalType":"uint80"}],"stateMutability":"view"},{"type":"function","name":"latestRoundData","inputs":[],"outputs":[{"name":"roundId","type":"uint80","internalType":"uint80"},{"name":"answer","type":"int256","internalType":"int256"},{"name":"startedAt","type":"uint256","internalType":"uint256"},{"name":"updatedAt_","type":"uint256","internalType":"uint256"},{"name":"answeredInRound","type":"uint80","internalType":"uint80"}],"stateMutability":"view"},{"type":"function","name":"setDecimals","inputs":[{"name":"_decimals","type":"uint8","internalType":"uint8"}],"outputs":[],"stateMutability":"nonpayable"},{"type":"function","name":"setPrice","inputs":[{"name":"_price","type":"int256","internalType":"int256"}],"outputs":[],"stateMutability":"nonpayable"},{"type":"function","name":"version","inputs":[],"outputs":[{"name":"","type":"uint256","internalType":"uint256"}],"stateMutability":"pure"}],"bytecode":{"object":"0x6080604052348015600e575f80fd5b50426002819055506104ef806100235f395ff3fe608060405234801561000f575f80fd5b506004361061007b575f3560e01c80637a1395aa116100595780637a1395aa146100d95780639a6fc8f5146100f5578063f7a3080614610129578063feaf968c146101455761007b565b8063313ce5671461007f57806354fd4d501461009d5780637284e416146100bb575b5f80fd5b610087610167565b604051610094919061024f565b60405180910390f35b6100a561017c565b6040516100b29190610280565b60405180910390f35b6100c3610184565b6040516100d09190610309565b60405180910390f35b6100f360048036038101906100ee9190610357565b6101c1565b005b61010f600480360381019061010a91906103c1565b6101de565b604051610120959493929190610413565b60405180910390f35b610143600480360381019061013e919061048e565b610202565b005b61014d610212565b60405161015e959493929190610413565b60405180910390f35b5f60015f9054906101000a900460ff16905090565b5f6001905090565b60606040518060400160405280600f81526020017f4d6f636b20507269636520466565640000000000000000000000000000000000815250905090565b8060015f6101000a81548160ff021916908360ff16021790555050565b5f805f805f6001642e90edd000424260019450945094509450945091939590929450565b805f819055504260028190555050565b5f805f805f60015f546002546002546001945094509450945094509091929394565b5f60ff82169050919050565b61024981610234565b82525050565b5f6020820190506102625f830184610240565b92915050565b5f819050919050565b61027a81610268565b82525050565b5f6020820190506102935f830184610271565b92915050565b5f81519050919050565b5f82825260208201905092915050565b8281835e5f83830152505050565b5f601f19601f8301169050919050565b5f6102db82610299565b6102e581856102a3565b93506102f58185602086016102b3565b6102fe816102c1565b840191505092915050565b5f6020820190508181035f83015261032181846102d1565b905092915050565b5f80fd5b61033681610234565b8114610340575f80fd5b50565b5f813590506103518161032d565b92915050565b5f6020828403121561036c5761036b610329565b5b5f61037984828501610343565b91505092915050565b5f69ffffffffffffffffffff82169050919050565b6103a081610382565b81146103aa575f80fd5b50565b5f813590506103bb81610397565b92915050565b5f602082840312156103d6576103d5610329565b5b5f6103e3848285016103ad565b91505092915050565b6103f581610382565b82525050565b5f819050919050565b61040d816103fb565b82525050565b5f60a0820190506104265f8301886103ec565b6104336020830187610404565b6104406040830186610271565b61044d6060830185610271565b61045a60808301846103ec565b9695505050505050565b61046d816103fb565b8114610477575f80fd5b50565b5f8135905061048881610464565b92915050565b5f602082840312156104a3576104a2610329565b5b5f6104b08482850161047a565b9150509291505056fea2646970667358221220156e77ed64362c64002fcf51cfbf78d1992b3ec2e03feb8ccb384f3ce998319164736f6c634300081a0033","linkReferences":{}},"methodIdentifiers":{"decimals()":"313ce567","description()":"7284e416","getRoundData(uint80)":"9a6fc8f5","latestRoundData()":"feaf968c","setDecimals(uint8)":"7a1395aa","setPrice(int256)":"f7a30806","version()":"54fd4d50"},"id":165}