{"abi":[{"type":"constructor","inputs":[{"name":"name","type":"string","internalType":"string"},{"name":"symbol","type":"string","internalType":"string"}],"stateMutability":"nonpayable"},{"type":"function","name":"allowance","inputs":[{"name":"owner","type":"address","internalType":"address"},{"name":"spender","type":"address","internalType":"address"}],"outputs":[{"name":"","type":"uint256","internalType":"uint256"}],"stateMutability":"view"},{"type":"function","name":"approve","inputs":[{"name":"spender","type":"address","internalType":"address"},{"name":"amount","type":"uint256","internalType":"uint256"}],"outputs":[{"name":"","type":"bool","internalType":"bool"}],"stateMutability":"nonpayable"},{"type":"function","name":"balanceOf","inputs":[{"name":"account","type":"address","internalType":"address"}],"outputs":[{"name":"","type":"uint256","internalType":"uint256"}],"stateMutability":"view"},{"type":"function","name":"decimals","inputs":[],"outputs":[{"name":"","type":"uint8","internalType":"uint8"}],"stateMutability":"view"},{"type":"function","name":"decreaseAllowance","inputs":[{"name":"spender","type":"address","internalType":"address"},{"name":"subtractedValue","type":"uint256","internalType":"uint256"}],"outputs":[{"name":"","type":"bool","internalType":"bool"}],"stateMutability":"nonpayable"},{"type":"function","name":"increaseAllowance","inputs":[{"name":"spender","type":"address","internalType":"address"},{"name":"addedValue","type":"uint256","internalType":"uint256"}],"outputs":[{"name":"","type":"bool","internalType":"bool"}],"stateMutability":"nonpayable"},{"type":"function","name":"name","inputs":[],"outputs":[{"name":"","type":"string","internalType":"string"}],"stateMutability":"view"},{"type":"function","name":"symbol","inputs":[],"outputs":[{"name":"","type":"string","internalType":"string"}],"stateMutability":"view"},{"type":"function","name":"totalSupply","inputs":[],"outputs":[{"name":"","type":"uint256","internalType":"uint256"}],"stateMutability":"view"},{"type":"function","name":"transfer","inputs":[{"name":"to","type":"address","internalType":"address"},{"name":"amount","type":"uint256","internalType":"uint256"}],"outputs":[{"name":"","type":"bool","internalType":"bool"}],"stateMutability":"nonpayable"},{"type":"function","name":"transferAndCall","inputs":[{"name":"to","type":"address","internalType":"address"},{"name":"amount","type":"uint256","internalType":"uint256"},{"name":"data","type":"bytes","internalType":"bytes"}],"outputs":[{"name":"success","type":"bool","internalType":"bool"}],"stateMutability":"nonpayable"},{"type":"function","name":"transferFrom","inputs":[{"name":"from","type":"address","internalType":"address"},{"name":"to","type":"address","internalType":"address"},{"name":"amount","type":"uint256","internalType":"uint256"}],"outputs":[{"name":"","type":"bool","internalType":"bool"}],"stateMutability":"nonpayable"},{"type":"event","name":"Approval","inputs":[{"name":"owner","type":"address","indexed":true,"internalType":"address"},{"name":"spender","type":"address","indexed":true,"internalType":"address"},{"name":"value","type":"uint256","indexed":false,"internalType":"uint256"}],"anonymous":false},{"type":"event","name":"Transfer","inputs":[{"name":"from","type":"address","indexed":true,"internalType":"address"},{"name":"to","type":"address","indexed":true,"internalType":"address"},{"name":"value","type":"uint256","indexed":false,"internalType":"uint256"},{"name":"data","type":"bytes","indexed":false,"internalType":"bytes"}],"anonymous":false},{"type":"event","name":"Transfer","inputs":[{"name":"from","type":"address","indexed":true,"internalType":"address"},{"name":"to","type":"address","indexed":true,"internalType":"address"},{"name":"value","type":"uint256","indexed":false,"internalType":"uint256"}],"anonymous":false}],"bytecode":{"object":"0x608060405234801561000f575f80fd5b50604051610ce3380380610ce383398101604081905261002e916100f0565b8181600361003c83826101d9565b50600461004982826101d9565b5050505050610293565b634e487b7160e01b5f52604160045260245ffd5b5f82601f830112610076575f80fd5b81516001600160401b0381111561008f5761008f610053565b604051601f8201601f19908116603f011681016001600160401b03811182821017156100bd576100bd610053565b6040528181528382016020018510156100d4575f80fd5b8160208501602083015e5f918101602001919091529392505050565b5f8060408385031215610101575f80fd5b82516001600160401b03811115610116575f80fd5b61012285828601610067565b602085015190935090506001600160401b0381111561013f575f80fd5b61014b85828601610067565b9150509250929050565b600181811c9082168061016957607f821691505b60208210810361018757634e487b7160e01b5f52602260045260245ffd5b50919050565b601f8211156101d457805f5260205f20601f840160051c810160208510156101b25750805b601f840160051c820191505b818110156101d1575f81556001016101be565b50505b505050565b81516001600160401b038111156101f2576101f2610053565b610206816102008454610155565b8461018d565b6020601f821160018114610238575f83156102215750848201515b5f19600385901b1c1916600184901b1784556101d1565b5f84815260208120601f198516915b828110156102675787850151825560209485019460019092019101610247565b508482101561028457868401515f19600387901b60f8161c191681555b50505050600190811b01905550565b610a43806102a05f395ff3fe608060405234801561000f575f80fd5b50600436106100b1575f3560e01c80634000aea01161006e5780634000aea01461013d57806370a082311461015057806395d89b4114610178578063a457c2d714610180578063a9059cbb14610193578063dd62ed3e146101a6575f80fd5b806306fdde03146100b5578063095ea7b3146100d357806318160ddd146100f657806323b872dd14610108578063313ce5671461011b578063395093511461012a575b5f80fd5b6100bd6101b9565b6040516100ca91906107a7565b60405180910390f35b6100e66100e13660046107db565b610249565b60405190151581526020016100ca565b6002545b6040519081526020016100ca565b6100e6610116366004610803565b610262565b604051601281526020016100ca565b6100e66101383660046107db565b610285565b6100e661014b366004610851565b6102a6565b6100fa61015e36600461091d565b6001600160a01b03165f9081526020819052604090205490565b6100bd610377565b6100e661018e3660046107db565b610386565b6100e66101a13660046107db565b610405565b6100fa6101b4366004610936565b610412565b6060600380546101c890610967565b80601f01602080910402602001604051908101604052809291908181526020018280546101f490610967565b801561023f5780601f106102165761010080835404028352916020019161023f565b820191905f5260205f20905b81548152906001019060200180831161022257829003601f168201915b5050505050905090565b5f3361025681858561043c565b60019150505b92915050565b5f3361026f85828561055f565b61027a8585856105d7565b506001949350505050565b5f336102568185856102978383610412565b6102a1919061099f565b61043c565b5f6102b18484610405565b50836001600160a01b0316336001600160a01b03167fe19260aff97b920c7df27010903aeb9c8d2be5d310a2c67824cf3f15396e4c1685856040516102f79291906109be565b60405180910390a36001600160a01b0384163b1561036d57604051635260769b60e11b81526001600160a01b0385169063a4c0ed369061033f903390879087906004016109de565b5f604051808303815f87803b158015610356575f80fd5b505af1158015610368573d5f803e3d5ffd5b505050505b5060019392505050565b6060600480546101c890610967565b5f33816103938286610412565b9050838110156103f85760405162461bcd60e51b815260206004820152602560248201527f45524332303a2064656372656173656420616c6c6f77616e63652062656c6f77604482015264207a65726f60d81b60648201526084015b60405180910390fd5b61027a828686840361043c565b5f336102568185856105d7565b6001600160a01b039182165f90815260016020908152604080832093909416825291909152205490565b6001600160a01b03831661049e5760405162461bcd60e51b8152602060048201526024808201527f45524332303a20617070726f76652066726f6d20746865207a65726f206164646044820152637265737360e01b60648201526084016103ef565b6001600160a01b0382166104ff5760405162461bcd60e51b815260206004820152602260248201527f45524332303a20617070726f766520746f20746865207a65726f206164647265604482015261737360f01b60648201526084016103ef565b6001600160a01b038381165f8181526001602090815260408083209487168084529482529182902085905590518481527f8c5be1e5ebec7d5bd14f71427d1e84f3dd0314c0f7b2291e5b200ac8c7c3b925910160405180910390a3505050565b5f61056a8484610412565b90505f1981146105d157818110156105c45760405162461bcd60e51b815260206004820152601d60248201527f45524332303a20696e73756666696369656e7420616c6c6f77616e636500000060448201526064016103ef565b6105d1848484840361043c565b50505050565b6001600160a01b03831661063b5760405162461bcd60e51b815260206004820152602560248201527f45524332303a207472616e736665722066726f6d20746865207a65726f206164604482015264647265737360d81b60648201526084016103ef565b6001600160a01b03821661069d5760405162461bcd60e51b815260206004820152602360248201527f45524332303a207472616e7366657220746f20746865207a65726f206164647260448201526265737360e81b60648201526084016103ef565b6001600160a01b0383165f90815260208190526040902054818110156107145760405162461bcd60e51b815260206004820152602660248201527f45524332303a207472616e7366657220616d6f756e7420657863656564732062604482015265616c616e636560d01b60648201526084016103ef565b6001600160a01b038481165f81815260208181526040808320878703905593871680835291849020805487019055925185815290927fddf252ad1be2c89b69c2b068fc378daa952ba7f163c4a11628f55a4df523b3ef910160405180910390a36105d1565b5f81518084528060208401602086015e5f602082860101526020601f19601f83011685010191505092915050565b602081525f6107b96020830184610779565b9392505050565b80356001600160a01b03811681146107d6575f80fd5b919050565b5f80604083850312156107ec575f80fd5b6107f5836107c0565b946020939093013593505050565b5f805f60608486031215610815575f80fd5b61081e846107c0565b925061082c602085016107c0565b929592945050506040919091013590565b634e487b7160e01b5f52604160045260245ffd5b5f805f60608486031215610863575f80fd5b61086c846107c0565b925060208401359150604084013567ffffffffffffffff81111561088e575f80fd5b8401601f8101861361089e575f80fd5b803567ffffffffffffffff8111156108b8576108b861083d565b604051601f8201601f19908116603f0116810167ffffffffffffffff811182821017156108e7576108e761083d565b6040528181528282016020018810156108fe575f80fd5b816020840160208301375f602083830101528093505050509250925092565b5f6020828403121561092d575f80fd5b6107b9826107c0565b5f8060408385031215610947575f80fd5b610950836107c0565b915061095e602084016107c0565b90509250929050565b600181811c9082168061097b57607f821691505b60208210810361099957634e487b7160e01b5f52602260045260245ffd5b50919050565b8082018082111561025c57634e487b7160e01b5f52601160045260245ffd5b828152604060208201525f6109d66040830184610779565b949350505050565b60018060a01b0384168152826020820152606060408201525f610a046060830184610779565b9594505050505056fea2646970667358221220ae4a16bb83649917c9be1c8f63145c739bdc715fa8dbe1c66b2b8f4209314ec664736f6c634300081a0033","linkReferences":{}},"methodIdentifiers":{"allowance(address,address)":"dd62ed3e","approve(address,uint256)":"095ea7b3","balanceOf(address)":"70a08231","decimals()":"313ce567","decreaseAllowance(address,uint256)":"a457c2d7","increaseAllowance(address,uint256)":"39509351","name()":"06fdde03","symbol()":"95d89b41","totalSupply()":"18160ddd","transfer(address,uint256)":"a9059cbb","transferAndCall(address,uint256,bytes)":"4000aea0","transferFrom(address,address,uint256)":"23b872dd"},"id":90}