{
  "abi": [
    {
      "anonymous": false,
      "inputs": [
        {
          "indexed": true,
          "internalType": "address",
          "name": "indexFactory",
          "type": "address"
        }
      ],
      "name": "IndexFactorySet",
      "type": "event"
    },
    {
      "anonymous": false,
      "inputs": [
        {
          "indexed": false,
          "internalType": "uint8",
          "name": "version",
          "type": "uint8"
        }
      ],
      "name": "Initialized",
      "type": "event"
    },
    {
      "anonymous": false,
      "inputs": [
        {
          "indexed": true,
          "internalType": "address",
          "name": "previousOwner",
          "type": "address"
        },
        {
          "indexed": true,
          "internalType": "address",
          "name": "newOwner",
          "type": "address"
        }
      ],
      "name": "OwnershipTransferred",
      "type": "event"
    },
    {
      "anonymous": false,
      "inputs": [
        {
          "indexed": false,
          "internalType": "address",
          "name": "account",
          "type": "address"
        }
      ],
      "name": "Paused",
      "type": "event"
    },
    {
      "anonymous": false,
      "inputs": [
        {
          "indexed": false,
          "internalType": "address",
          "name": "account",
          "type": "address"
        }
      ],
      "name": "Unpaused",
      "type": "event"
    },
    {
      "inputs": [
        {
          "internalType": "address",
          "name": "_token",
          "type": "address"
        },
        {
          "internalType": "address",
          "name": "_to",
          "type": "address"
        },
        {
          "internalType": "uint256",
          "name": "_amount",
          "type": "uint256"
        }
      ],
      "name": "approveSwapToken",
      "outputs": [],
      "stateMutability": "nonpayable",
      "type": "function"
    },
    {
      "inputs": [],
      "name": "factoryV2",
      "outputs": [
        {
          "internalType": "contract IUniswapV2Factory",
          "name": "",
          "type": "address"
        }
      ],
      "stateMutability": "view",
      "type": "function"
    },
    {
      "inputs": [],
      "name": "factoryV3",
      "outputs": [
        {
          "internalType": "contract IUniswapV3Factory",
          "name": "",
          "type": "address"
        }
      ],
      "stateMutability": "view",
      "type": "function"
    },
    {
      "inputs": [],
      "name": "indexFactory",
      "outputs": [
        {
          "internalType": "address",
          "name": "",
          "type": "address"
        }
      ],
      "stateMutability": "view",
      "type": "function"
    },
    {
      "inputs": [
        {
          "internalType": "address",
          "name": "_indexFactory",
          "type": "address"
        },
        {
          "internalType": "address",
          "name": "_weth",
          "type": "address"
        },
        {
          "internalType": "address",
          "name": "_quoter",
          "type": "address"
        },
        {
          "internalType": "address",
          "name": "_swapRouterV3",
          "type": "address"
        },
        {
          "internalType": "address",
          "name": "_factoryV3",
          "type": "address"
        },
        {
          "internalType": "address",
          "name": "_swapRouterV2",
          "type": "address"
        },
        {
          "internalType": "address",
          "name": "_factoryV2",
          "type": "address"
        }
      ],
      "name": "initialize",
      "outputs": [],
      "stateMutability": "nonpayable",
      "type": "function"
    },
    {
      "inputs": [],
      "name": "owner",
      "outputs": [
        {
          "internalType": "address",
          "name": "",
          "type": "address"
        }
      ],
      "stateMutability": "view",
      "type": "function"
    },
    {
      "inputs": [],
      "name": "pause",
      "outputs": [],
      "stateMutability": "nonpayable",
      "type": "function"
    },
    {
      "inputs": [],
      "name": "paused",
      "outputs": [
        {
          "internalType": "bool",
          "name": "",
          "type": "bool"
        }
      ],
      "stateMutability": "view",
      "type": "function"
    },
    {
      "inputs": [
        {
          "internalType": "address",
          "name": "_proposedOwner",
          "type": "address"
        }
      ],
      "name": "proposeOwner",
      "outputs": [],
      "stateMutability": "nonpayable",
      "type": "function"
    },
    {
      "inputs": [],
      "name": "proposedOwner",
      "outputs": [
        {
          "internalType": "address",
          "name": "",
          "type": "address"
        }
      ],
      "stateMutability": "view",
      "type": "function"
    },
    {
      "inputs": [],
      "name": "quoter",
      "outputs": [
        {
          "internalType": "contract IQuoter",
          "name": "",
          "type": "address"
        }
      ],
      "stateMutability": "view",
      "type": "function"
    },
    {
      "inputs": [],
      "name": "renounceOwnership",
      "outputs": [],
      "stateMutability": "nonpayable",
      "type": "function"
    },
    {
      "inputs": [
        {
          "internalType": "address",
          "name": "_factory",
          "type": "address"
        }
      ],
      "name": "setFactory",
      "outputs": [],
      "stateMutability": "nonpayable",
      "type": "function"
    },
    {
      "inputs": [],
      "name": "swapRouterV2",
      "outputs": [
        {
          "internalType": "contract IUniswapV2Router02",
          "name": "",
          "type": "address"
        }
      ],
      "stateMutability": "view",
      "type": "function"
    },
    {
      "inputs": [],
      "name": "swapRouterV3",
      "outputs": [
        {
          "internalType": "contract ISwapRouter",
          "name": "",
          "type": "address"
        }
      ],
      "stateMutability": "view",
      "type": "function"
    },
    {
      "inputs": [
        {
          "internalType": "address",
          "name": "tokenIn",
          "type": "address"
        },
        {
          "internalType": "address",
          "name": "tokenOut",
          "type": "address"
        },
        {
          "internalType": "uint256",
          "name": "amountIn",
          "type": "uint256"
        },
        {
          "internalType": "address",
          "name": "_recipient",
          "type": "address"
        },
        {
          "internalType": "uint256",
          "name": "_swapVersion",
          "type": "uint256"
        }
      ],
      "name": "swapSingle",
      "outputs": [
        {
          "internalType": "uint256",
          "name": "",
          "type": "uint256"
        }
      ],
      "stateMutability": "nonpayable",
      "type": "function"
    },
    {
      "inputs": [
        {
          "internalType": "address",
          "name": "",
          "type": "address"
        }
      ],
      "name": "tokenMarketShare",
      "outputs": [
        {
          "internalType": "uint256",
          "name": "",
          "type": "uint256"
        }
      ],
      "stateMutability": "view",
      "type": "function"
    },
    {
      "inputs": [
        {
          "internalType": "address",
          "name": "",
          "type": "address"
        }
      ],
      "name": "tokenSwapVersion",
      "outputs": [
        {
          "internalType": "uint256",
          "name": "",
          "type": "uint256"
        }
      ],
      "stateMutability": "view",
      "type": "function"
    },
    {
      "inputs": [
        {
          "internalType": "address",
          "name": "newOwner",
          "type": "address"
        }
      ],
      "name": "transferOwnership",
      "outputs": [],
      "stateMutability": "nonpayable",
      "type": "function"
    },
    {
      "inputs": [],
      "name": "unpause",
      "outputs": [],
      "stateMutability": "nonpayable",
      "type": "function"
    },
    {
      "inputs": [],
      "name": "weth",
      "outputs": [
        {
          "internalType": "contract IWETH",
          "name": "",
          "type": "address"
        }
      ],
      "stateMutability": "view",
      "type": "function"
    },
    {
      "inputs": [
        {
          "internalType": "address",
          "name": "to",
          "type": "address"
        },
        {
          "internalType": "uint256",
          "name": "amount",
          "type": "uint256"
        }
      ],
      "name": "wethTransfer",
      "outputs": [],
      "stateMutability": "nonpayable",
      "type": "function"
    },
    {
      "stateMutability": "payable",
      "type": "receive"
    }
  ],
  "bytecode": {
    "object": "0x608060405234801561001057600080fd5b5061126a806100206000396000f3fe6080604052600436106101395760003560e01c806379e34b4d116100ab578063c6bbd5a71161006f578063c6bbd5a714610352578063d153b60c14610372578063d90bc21114610392578063e3fd0af2146103bf578063f2fde38b146103df578063fcaae87b146103ff57600080fd5b806379e34b4d146102bf5780638456cb59146102df5780638da5cb5b146102f4578063b5ed298a14610312578063b631e80b1461033257600080fd5b80635c975abb116100fd5780635c975abb146101f95780635f370ed01461021c57806368e0d4e11461024a578063715018a61461026a578063744fbc7a1461027f57806377524af91461029f57600080fd5b80631d5f45f51461014557806335876476146101825780633f4ba83a146101a45780633fc8cef3146101b95780635bb47808146101d957600080fd5b3661014057005b600080fd5b34801561015157600080fd5b5060ce54610165906001600160a01b031681565b6040516001600160a01b0390911681526020015b60405180910390f35b34801561018e57600080fd5b506101a261019d366004610f48565b61042c565b005b3480156101b057600080fd5b506101a26105bf565b3480156101c557600080fd5b5060d154610165906001600160a01b031681565b3480156101e557600080fd5b506101a26101f4366004610f26565b6105d1565b34801561020557600080fd5b5060985460ff166040519015158152602001610179565b34801561022857600080fd5b5061023c61023736600461100a565b610636565b604051908152602001610179565b34801561025657600080fd5b5060d054610165906001600160a01b031681565b34801561027657600080fd5b506101a261097e565b34801561028b57600080fd5b5060cf54610165906001600160a01b031681565b3480156102ab57600080fd5b506101a26102ba36600461105f565b610990565b3480156102cb57600080fd5b506101a26102da366004610fce565b610a45565b3480156102eb57600080fd5b506101a2610af7565b34801561030057600080fd5b506033546001600160a01b0316610165565b34801561031e57600080fd5b506101a261032d366004610f26565b610b07565b34801561033e57600080fd5b5060cd54610165906001600160a01b031681565b34801561035e57600080fd5b5060d254610165906001600160a01b031681565b34801561037e57600080fd5b50606554610165906001600160a01b031681565b34801561039e57600080fd5b5061023c6103ad366004610f26565b60cc6020526000908152604090205481565b3480156103cb57600080fd5b5060ca54610165906001600160a01b031681565b3480156103eb57600080fd5b506101a26103fa366004610f26565b610b57565b34801561040b57600080fd5b5061023c61041a366004610f26565b60cb6020526000908152604090205481565b600054610100900460ff161580801561044c5750600054600160ff909116105b806104665750303b158015610466575060005460ff166001145b6104ce5760405162461bcd60e51b815260206004820152602e60248201527f496e697469616c697a61626c653a20636f6e747261637420697320616c72656160448201526d191e481a5b9a5d1a585b1a5e995960921b60648201526084015b60405180910390fd5b6000805460ff1916600117905580156104f1576000805461ff0019166101001790555b6104f9610c7f565b610501610cae565b60ca80546001600160a01b03199081166001600160a01b038b81169190911790925560d1805482168a841617905560d28054821689841617905560cd8054821688841617905560ce8054821687841617905560cf8054821686841617905560d0805490911691841691909117905580156105b5576000805461ff0019169055604051600181527f7f26b83ff96e1f2b6a682f133852f6798a09c465da95921460cefb38474024989060200160405180910390a15b5050505050505050565b6105c7610cdd565b6105cf610d37565b565b6105d9610cdd565b6001600160a01b0381166105ec57600080fd5b60ca80546001600160a01b0319166001600160a01b0383169081179091556040517fc3846718f18b0085154b9667b29b8a518d3b168c0618460d658fd1105e65f91890600090a250565b60ca546000906001600160a01b031633146106635760405162461bcd60e51b81526004016104c5906110c4565b81600314156108065760cd5460405163095ea7b360e01b81526001600160a01b039182166004820152602481018690529087169063095ea7b390604401602060405180830381600087803b1580156106ba57600080fd5b505af11580156106ce573d6000803e3d6000fd5b505050506040513d601f19601f820116820180604052508101906106f29190611089565b5060408051610100810182526001600160a01b03888116825287811660208301908152610bb883850190815287831660608501908152426080860190815260a086018b8152600060c0880181815260e0890182815260cd549a5163414bf38960e01b81528a518a166004820152975189166024890152955162ffffff166044880152935187166064870152915160848601525160a4850152905160c48401529051831660e483015292939091169063414bf3899061010401602060405180830381600087803b1580156107c457600080fd5b505af11580156107d8573d6000803e3d6000fd5b505050506040513d601f19601f820116820180604052508101906107fc91906110ab565b9250610975915050565b604080516002808252606082018352600092602083019080368337019050509050868160008151811061083b5761083b61121e565b60200260200101906001600160a01b031690816001600160a01b031681525050858160018151811061086f5761086f61121e565b6001600160a01b03928316602091820292909201015260cf5460405163095ea7b360e01b81529082166004820152602481018790529088169063095ea7b390604401602060405180830381600087803b1580156108cb57600080fd5b505af11580156108df573d6000803e3d6000fd5b505050506040513d601f19601f820116820180604052508101906109039190611089565b5060cf54604051635c11d79560e01b81526001600160a01b0390911690635c11d7959061093d90889060009086908a9042906004016111ad565b600060405180830381600087803b15801561095757600080fd5b505af115801561096b573d6000803e3d6000fd5b5050505060009150505b95945050505050565b610986610cdd565b6105cf6000610d89565b60ca546001600160a01b031633146109ba5760405162461bcd60e51b81526004016104c5906110c4565b60d15460405163a9059cbb60e01b81526001600160a01b038481166004830152602482018490529091169063a9059cbb90604401602060405180830381600087803b158015610a0857600080fd5b505af1158015610a1c573d6000803e3d6000fd5b505050506040513d601f19601f82011682018060405250810190610a409190611089565b505050565b60ca546001600160a01b03163314610a6f5760405162461bcd60e51b81526004016104c5906110c4565b60405163095ea7b360e01b81526001600160a01b0383811660048301526024820183905284169063095ea7b390604401602060405180830381600087803b158015610ab957600080fd5b505af1158015610acd573d6000803e3d6000fd5b505050506040513d601f19601f82011682018060405250810190610af19190611089565b50505050565b610aff610cdd565b6105cf610ddb565b610b0f610cdd565b6001600160a01b038116610b355760405162461bcd60e51b81526004016104c590611112565b606580546001600160a01b0319166001600160a01b0392909216919091179055565b6001600160a01b038116610b7d5760405162461bcd60e51b81526004016104c590611112565b6065546001600160a01b03828116911614610bf55760405162461bcd60e51b815260206004820152603260248201527f50726f706f7361626c654f776e61626c653a206e6577206f776e6572206973206044820152713737ba10383937b837b9b2b21037bbb732b960711b60648201526084016104c5565b6001600160a01b0381163314610c735760405162461bcd60e51b815260206004820152603a60248201527f50726f706f7361626c654f776e61626c653a20746869732063616c6c206d757360448201527f74206265206d61646520627920746865206e6577206f776e657200000000000060648201526084016104c5565b610c7c81610d89565b50565b600054610100900460ff16610ca65760405162461bcd60e51b81526004016104c590611162565b6105cf610e18565b600054610100900460ff16610cd55760405162461bcd60e51b81526004016104c590611162565b6105cf610e48565b6033546001600160a01b031633146105cf5760405162461bcd60e51b815260206004820181905260248201527f4f776e61626c653a2063616c6c6572206973206e6f7420746865206f776e657260448201526064016104c5565b610d3f610e7b565b6098805460ff191690557f5db9ee0a495bf2e6ff9c91a7834c1ba4fdd244a5e8aa4e537bd38aeae4b073aa335b6040516001600160a01b03909116815260200160405180910390a1565b603380546001600160a01b038381166001600160a01b0319831681179093556040519116919082907f8be0079c531659141344cd1fd0a4f28419497f9722a3daafe3b4186f6b6457e090600090a35050565b610de3610ec4565b6098805460ff191660011790557f62e78cea01bee320cd4e420270b5ea74000d11b0c9f74754ebdbfc544b05a258610d6c3390565b600054610100900460ff16610e3f5760405162461bcd60e51b81526004016104c590611162565b6105cf33610d89565b600054610100900460ff16610e6f5760405162461bcd60e51b81526004016104c590611162565b6098805460ff19169055565b60985460ff166105cf5760405162461bcd60e51b815260206004820152601460248201527314185d5cd8589b194e881b9bdd081c185d5cd95960621b60448201526064016104c5565b60985460ff16156105cf5760405162461bcd60e51b815260206004820152601060248201526f14185d5cd8589b194e881c185d5cd95960821b60448201526064016104c5565b80356001600160a01b0381168114610f2157600080fd5b919050565b600060208284031215610f3857600080fd5b610f4182610f0a565b9392505050565b600080600080600080600060e0888a031215610f6357600080fd5b610f6c88610f0a565b9650610f7a60208901610f0a565b9550610f8860408901610f0a565b9450610f9660608901610f0a565b9350610fa460808901610f0a565b9250610fb260a08901610f0a565b9150610fc060c08901610f0a565b905092959891949750929550565b600080600060608486031215610fe357600080fd5b610fec84610f0a565b9250610ffa60208501610f0a565b9150604084013590509250925092565b600080600080600060a0868803121561102257600080fd5b61102b86610f0a565b945061103960208701610f0a565b93506040860135925061104e60608701610f0a565b949793965091946080013592915050565b6000806040838503121561107257600080fd5b61107b83610f0a565b946020939093013593505050565b60006020828403121561109b57600080fd5b81518015158114610f4157600080fd5b6000602082840312156110bd57600080fd5b5051919050565b6020808252602e908201527f496e646578546f6b656e3a2063616c6c6572206973206e6f742074686520666160408201526d18dd1bdc9e4818dbdb9d1c9858dd60921b606082015260800190565b60208082526030908201527f50726f706f7361626c654f776e61626c653a206e6577206f776e65722069732060408201526f746865207a65726f206164647265737360801b606082015260800190565b6020808252602b908201527f496e697469616c697a61626c653a20636f6e7472616374206973206e6f74206960408201526a6e697469616c697a696e6760a81b606082015260800190565b600060a082018783526020878185015260a0604085015281875180845260c086019150828901935060005b818110156111fd5784516001600160a01b0316835293830193918301916001016111d8565b50506001600160a01b03969096166060850152505050608001529392505050565b634e487b7160e01b600052603260045260246000fdfea26469706673582212209dbf24644a10a491864d6411078e274cfeb3429dc84a0d0c625ea4f48b524d9164736f6c63430008070033",
    "linkReferences": {}
  },
  "methodIdentifiers": {
    "approveSwapToken(address,address,uint256)": "79e34b4d",
    "factoryV2()": "68e0d4e1",
    "factoryV3()": "1d5f45f5",
    "indexFactory()": "e3fd0af2",
    "initialize(address,address,address,address,address,address,address)": "35876476",
    "owner()": "8da5cb5b",
    "pause()": "8456cb59",
    "paused()": "5c975abb",
    "proposeOwner(address)": "b5ed298a",
    "proposedOwner()": "d153b60c",
    "quoter()": "c6bbd5a7",
    "renounceOwnership()": "715018a6",
    "setFactory(address)": "5bb47808",
    "swapRouterV2()": "744fbc7a",
    "swapRouterV3()": "b631e80b",
    "swapSingle(address,address,uint256,address,uint256)": "5f370ed0",
    "tokenMarketShare(address)": "fcaae87b",
    "tokenSwapVersion(address)": "d90bc211",
    "transferOwnership(address)": "f2fde38b",
    "unpause()": "3f4ba83a",
    "weth()": "3fc8cef3",
    "wethTransfer(address,uint256)": "77524af9"
  },
  "id": 40
}