{"abi":[{"type":"receive","stateMutability":"payable"},{"type":"function","name":"approveSwapToken","inputs":[{"name":"_token","type":"address","internalType":"address"},{"name":"_to","type":"address","internalType":"address"},{"name":"_amount","type":"uint256","internalType":"uint256"}],"outputs":[],"stateMutability":"nonpayable"},{"type":"function","name":"factoryV2","inputs":[],"outputs":[{"name":"","type":"address","internalType":"contract IUniswapV2Factory"}],"stateMutability":"view"},{"type":"function","name":"factoryV3","inputs":[],"outputs":[{"name":"","type":"address","internalType":"contract IUniswapV3Factory"}],"stateMutability":"view"},{"type":"function","name":"indexFactory","inputs":[],"outputs":[{"name":"","type":"address","internalType":"address"}],"stateMutability":"view"},{"type":"function","name":"initialize","inputs":[{"name":"_indexFactory","type":"address","internalType":"address"},{"name":"_weth","type":"address","internalType":"address"},{"name":"_quoter","type":"address","internalType":"address"},{"name":"_swapRouterV3","type":"address","internalType":"address"},{"name":"_factoryV3","type":"address","internalType":"address"},{"name":"_swapRouterV2","type":"address","internalType":"address"},{"name":"_factoryV2","type":"address","internalType":"address"}],"outputs":[],"stateMutability":"nonpayable"},{"type":"function","name":"owner","inputs":[],"outputs":[{"name":"","type":"address","internalType":"address"}],"stateMutability":"view"},{"type":"function","name":"pause","inputs":[],"outputs":[],"stateMutability":"nonpayable"},{"type":"function","name":"paused","inputs":[],"outputs":[{"name":"","type":"bool","internalType":"bool"}],"stateMutability":"view"},{"type":"function","name":"proposeOwner","inputs":[{"name":"_proposedOwner","type":"address","internalType":"address"}],"outputs":[],"stateMutability":"nonpayable"},{"type":"function","name":"proposedOwner","inputs":[],"outputs":[{"name":"","type":"address","internalType":"address"}],"stateMutability":"view"},{"type":"function","name":"quoter","inputs":[],"outputs":[{"name":"","type":"address","internalType":"contract IQuoter"}],"stateMutability":"view"},{"type":"function","name":"renounceOwnership","inputs":[],"outputs":[],"stateMutability":"nonpayable"},{"type":"function","name":"setFactory","inputs":[{"name":"_factory","type":"address","internalType":"address"}],"outputs":[],"stateMutability":"nonpayable"},{"type":"function","name":"swapRouterV2","inputs":[],"outputs":[{"name":"","type":"address","internalType":"contract IUniswapV2Router02"}],"stateMutability":"view"},{"type":"function","name":"swapRouterV3","inputs":[],"outputs":[{"name":"","type":"address","internalType":"contract ISwapRouter"}],"stateMutability":"view"},{"type":"function","name":"swapSingle","inputs":[{"name":"tokenIn","type":"address","internalType":"address"},{"name":"tokenOut","type":"address","internalType":"address"},{"name":"amountIn","type":"uint256","internalType":"uint256"},{"name":"_recipient","type":"address","internalType":"address"},{"name":"_swapVersion","type":"uint256","internalType":"uint256"}],"outputs":[{"name":"","type":"uint256","internalType":"uint256"}],"stateMutability":"nonpayable"},{"type":"function","name":"tokenMarketShare","inputs":[{"name":"","type":"address","internalType":"address"}],"outputs":[{"name":"","type":"uint256","internalType":"uint256"}],"stateMutability":"view"},{"type":"function","name":"tokenSwapVersion","inputs":[{"name":"","type":"address","internalType":"address"}],"outputs":[{"name":"","type":"uint256","internalType":"uint256"}],"stateMutability":"view"},{"type":"function","name":"transferOwnership","inputs":[{"name":"newOwner","type":"address","internalType":"address"}],"outputs":[],"stateMutability":"nonpayable"},{"type":"function","name":"unpause","inputs":[],"outputs":[],"stateMutability":"nonpayable"},{"type":"function","name":"weth","inputs":[],"outputs":[{"name":"","type":"address","internalType":"contract IWETH"}],"stateMutability":"view"},{"type":"function","name":"wethTransfer","inputs":[{"name":"to","type":"address","internalType":"address"},{"name":"amount","type":"uint256","internalType":"uint256"}],"outputs":[],"stateMutability":"nonpayable"},{"type":"event","name":"IndexFactorySet","inputs":[{"name":"indexFactory","type":"address","indexed":true,"internalType":"address"}],"anonymous":false},{"type":"event","name":"Initialized","inputs":[{"name":"version","type":"uint8","indexed":false,"internalType":"uint8"}],"anonymous":false},{"type":"event","name":"OwnershipTransferred","inputs":[{"name":"previousOwner","type":"address","indexed":true,"internalType":"address"},{"name":"newOwner","type":"address","indexed":true,"internalType":"address"}],"anonymous":false},{"type":"event","name":"Paused","inputs":[{"name":"account","type":"address","indexed":false,"internalType":"address"}],"anonymous":false},{"type":"event","name":"Unpaused","inputs":[{"name":"account","type":"address","indexed":false,"internalType":"address"}],"anonymous":false}],"bytecode":{"object":"0x608060405234801561001057600080fd5b50612586806100206000396000f3fe6080604052600436106101395760003560e01c806379e34b4d116100ab578063c6bbd5a71161006f578063c6bbd5a7146103c1578063d153b60c146103ec578063d90bc21114610417578063e3fd0af214610454578063f2fde38b1461047f578063fcaae87b146104a857610140565b806379e34b4d146103025780638456cb591461032b5780638da5cb5b14610342578063b5ed298a1461036d578063b631e80b1461039657610140565b80635c975abb116100fd5780635c975abb146102045780635f370ed01461022f57806368e0d4e11461026c578063715018a614610297578063744fbc7a146102ae57806377524af9146102d957610140565b80631d5f45f51461014557806335876476146101705780633f4ba83a146101995780633fc8cef3146101b05780635bb47808146101db57610140565b3661014057005b600080fd5b34801561015157600080fd5b5061015a6104e5565b6040516101679190611eef565b60405180910390f35b34801561017c57600080fd5b50610197600480360381019061019291906118e6565b61050b565b005b3480156101a557600080fd5b506101ae61081f565b005b3480156101bc57600080fd5b506101c5610831565b6040516101d29190611f0a565b60405180910390f35b3480156101e757600080fd5b5061020260048036038101906101fd91906118b9565b610857565b005b34801561021057600080fd5b50610219610920565b6040516102269190611e68565b60405180910390f35b34801561023b57600080fd5b50610256600480360381019061025191906119db565b610937565b604051610263919061207c565b60405180910390f35b34801561027857600080fd5b50610281610e1d565b60405161028e9190611eb9565b60405180910390f35b3480156102a357600080fd5b506102ac610e43565b005b3480156102ba57600080fd5b506102c3610e57565b6040516102d09190611ed4565b60405180910390f35b3480156102e557600080fd5b5061030060048036038101906102fb9190611a56565b610e7d565b005b34801561030e57600080fd5b5061032960048036038101906103249190611988565b610fc1565b005b34801561033757600080fd5b506103406110e4565b005b34801561034e57600080fd5b506103576110f6565b6040516103649190611e24565b60405180910390f35b34801561037957600080fd5b50610394600480360381019061038f91906118b9565b611120565b005b3480156103a257600080fd5b506103ab6111dc565b6040516103b89190611e9e565b60405180910390f35b3480156103cd57600080fd5b506103d6611202565b6040516103e39190611e83565b60405180910390f35b3480156103f857600080fd5b50610401611228565b60405161040e9190611e24565b60405180910390f35b34801561042357600080fd5b5061043e600480360381019061043991906118b9565b61124e565b60405161044b919061207c565b60405180910390f35b34801561046057600080fd5b50610469611266565b6040516104769190611e24565b60405180910390f35b34801561048b57600080fd5b506104a660048036038101906104a191906118b9565b61128c565b005b3480156104b457600080fd5b506104cf60048036038101906104ca91906118b9565b611406565b6040516104dc919061207c565b60405180910390f35b60ce60009054906101000a900473ffffffffffffffffffffffffffffffffffffffff1681565b60008060019054906101000a900460ff1615905080801561053c5750600160008054906101000a900460ff1660ff16105b80610569575061054b3061141e565b1580156105685750600160008054906101000a900460ff1660ff16145b5b6105a8576040517f08c379a000000000000000000000000000000000000000000000000000000000815260040161059f90611fe0565b60405180910390fd5b60016000806101000a81548160ff021916908360ff16021790555080156105e5576001600060016101000a81548160ff0219169083151502179055505b6105ed611441565b6105f561149a565b8760ca60006101000a81548173ffffffffffffffffffffffffffffffffffffffff021916908373ffffffffffffffffffffffffffffffffffffffff1602179055508660d160006101000a81548173ffffffffffffffffffffffffffffffffffffffff021916908373ffffffffffffffffffffffffffffffffffffffff1602179055508560d260006101000a81548173ffffffffffffffffffffffffffffffffffffffff021916908373ffffffffffffffffffffffffffffffffffffffff1602179055508460cd60006101000a81548173ffffffffffffffffffffffffffffffffffffffff021916908373ffffffffffffffffffffffffffffffffffffffff1602179055508360ce60006101000a81548173ffffffffffffffffffffffffffffffffffffffff021916908373ffffffffffffffffffffffffffffffffffffffff1602179055508260cf60006101000a81548173ffffffffffffffffffffffffffffffffffffffff021916908373ffffffffffffffffffffffffffffffffffffffff1602179055508160d060006101000a81548173ffffffffffffffffffffffffffffffffffffffff021916908373ffffffffffffffffffffffffffffffffffffffff16021790555080156108155760008060016101000a81548160ff0219169083151502179055507f7f26b83ff96e1f2b6a682f133852f6798a09c465da95921460cefb3847402498600160405161080c9190611f25565b60405180910390a15b5050505050505050565b6108276114f3565b61082f611571565b565b60d160009054906101000a900473ffffffffffffffffffffffffffffffffffffffff1681565b61085f6114f3565b600073ffffffffffffffffffffffffffffffffffffffff168173ffffffffffffffffffffffffffffffffffffffff16141561089957600080fd5b8060ca60006101000a81548173ffffffffffffffffffffffffffffffffffffffff021916908373ffffffffffffffffffffffffffffffffffffffff1602179055508073ffffffffffffffffffffffffffffffffffffffff167fc3846718f18b0085154b9667b29b8a518d3b168c0618460d658fd1105e65f91860405160405180910390a250565b6000609860009054906101000a900460ff16905090565b600060ca60009054906101000a900473ffffffffffffffffffffffffffffffffffffffff1673ffffffffffffffffffffffffffffffffffffffff163373ffffffffffffffffffffffffffffffffffffffff16146109c9576040517f08c379a00000000000000000000000000000000000000000000000000000000081526004016109c090611f60565b60405180910390fd5b6003821415610bdc578573ffffffffffffffffffffffffffffffffffffffff1663095ea7b360cd60009054906101000a900473ffffffffffffffffffffffffffffffffffffffff16866040518363ffffffff1660e01b8152600401610a2f929190611e3f565b602060405180830381600087803b158015610a4957600080fd5b505af1158015610a5d573d6000803e3d6000fd5b505050506040513d601f19601f82011682018060405250810190610a819190611a96565b5060006040518061010001604052808873ffffffffffffffffffffffffffffffffffffffff1681526020018773ffffffffffffffffffffffffffffffffffffffff168152602001610bb862ffffff1681526020018573ffffffffffffffffffffffffffffffffffffffff16815260200142815260200186815260200160008152602001600073ffffffffffffffffffffffffffffffffffffffff168152509050600060cd60009054906101000a900473ffffffffffffffffffffffffffffffffffffffff1673ffffffffffffffffffffffffffffffffffffffff1663414bf389836040518263ffffffff1660e01b8152600401610b7e9190612060565b602060405180830381600087803b158015610b9857600080fd5b505af1158015610bac573d6000803e3d6000fd5b505050506040513d601f19601f82011682018060405250810190610bd09190611ac3565b90508092505050610e14565b6000600267ffffffffffffffff811115610bf957610bf8612282565b5b604051908082528060200260200182016040528015610c275781602001602082028036833780820191505090505b5090508681600081518110610c3f57610c3e612253565b5b602002602001019073ffffffffffffffffffffffffffffffffffffffff16908173ffffffffffffffffffffffffffffffffffffffff16815250508581600181518110610c8e57610c8d612253565b5b602002602001019073ffffffffffffffffffffffffffffffffffffffff16908173ffffffffffffffffffffffffffffffffffffffff16815250508673ffffffffffffffffffffffffffffffffffffffff1663095ea7b360cf60009054906101000a900473ffffffffffffffffffffffffffffffffffffffff16876040518363ffffffff1660e01b8152600401610d25929190611e3f565b602060405180830381600087803b158015610d3f57600080fd5b505af1158015610d53573d6000803e3d6000fd5b505050506040513d601f19601f82011682018060405250810190610d779190611a96565b5060cf60009054906101000a900473ffffffffffffffffffffffffffffffffffffffff1673ffffffffffffffffffffffffffffffffffffffff16635c11d7958660008488426040518663ffffffff1660e01b8152600401610ddc959493929190612097565b600060405180830381600087803b158015610df657600080fd5b505af1158015610e0a573d6000803e3d6000fd5b5050505060009150505b95945050505050565b60d060009054906101000a900473ffffffffffffffffffffffffffffffffffffffff1681565b610e4b6114f3565b610e5560006115d4565b565b60cf60009054906101000a900473ffffffffffffffffffffffffffffffffffffffff1681565b60ca60009054906101000a900473ffffffffffffffffffffffffffffffffffffffff1673ffffffffffffffffffffffffffffffffffffffff163373ffffffffffffffffffffffffffffffffffffffff1614610f0d576040517f08c379a0000000000000000000000000000000000000000000000000000000008152600401610f0490611f60565b60405180910390fd5b60d160009054906101000a900473ffffffffffffffffffffffffffffffffffffffff1673ffffffffffffffffffffffffffffffffffffffff1663a9059cbb83836040518363ffffffff1660e01b8152600401610f6a929190611e3f565b602060405180830381600087803b158015610f8457600080fd5b505af1158015610f98573d6000803e3d6000fd5b505050506040513d601f19601f82011682018060405250810190610fbc9190611a96565b505050565b60ca60009054906101000a900473ffffffffffffffffffffffffffffffffffffffff1673ffffffffffffffffffffffffffffffffffffffff163373ffffffffffffffffffffffffffffffffffffffff1614611051576040517f08c379a000000000000000000000000000000000000000000000000000000000815260040161104890611f60565b60405180910390fd5b8273ffffffffffffffffffffffffffffffffffffffff1663095ea7b383836040518363ffffffff1660e01b815260040161108c929190611e3f565b602060405180830381600087803b1580156110a657600080fd5b505af11580156110ba573d6000803e3d6000fd5b505050506040513d601f19601f820116820180604052508101906110de9190611a96565b50505050565b6110ec6114f3565b6110f461169a565b565b6000603360009054906101000a900473ffffffffffffffffffffffffffffffffffffffff16905090565b6111286114f3565b600073ffffffffffffffffffffffffffffffffffffffff168173ffffffffffffffffffffffffffffffffffffffff161415611198576040517f08c379a000000000000000000000000000000000000000000000000000000000815260040161118f90612020565b60405180910390fd5b80606560006101000a81548173ffffffffffffffffffffffffffffffffffffffff021916908373ffffffffffffffffffffffffffffffffffffffff16021790555050565b60cd60009054906101000a900473ffffffffffffffffffffffffffffffffffffffff1681565b60d260009054906101000a900473ffffffffffffffffffffffffffffffffffffffff1681565b606560009054906101000a900473ffffffffffffffffffffffffffffffffffffffff1681565b60cc6020528060005260406000206000915090505481565b60ca60009054906101000a900473ffffffffffffffffffffffffffffffffffffffff1681565b600073ffffffffffffffffffffffffffffffffffffffff168173ffffffffffffffffffffffffffffffffffffffff1614156112fc576040517f08c379a00000000000000000000000000000000000000000000000000000000081526004016112f390612020565b60405180910390fd5b606560009054906101000a900473ffffffffffffffffffffffffffffffffffffffff1673ffffffffffffffffffffffffffffffffffffffff168173ffffffffffffffffffffffffffffffffffffffff161461138c576040517f08c379a000000000000000000000000000000000000000000000000000000000815260040161138390611f80565b60405180910390fd5b3373ffffffffffffffffffffffffffffffffffffffff168173ffffffffffffffffffffffffffffffffffffffff16146113fa576040517f08c379a00000000000000000000000000000000000000000000000000000000081526004016113f190611fc0565b60405180910390fd5b611403816115d4565b50565b60cb6020528060005260406000206000915090505481565b6000808273ffffffffffffffffffffffffffffffffffffffff163b119050919050565b600060019054906101000a900460ff16611490576040517f08c379a000000000000000000000000000000000000000000000000000000000815260040161148790612040565b60405180910390fd5b6114986116fd565b565b600060019054906101000a900460ff166114e9576040517f08c379a00000000000000000000000000000000000000000000000000000000081526004016114e090612040565b60405180910390fd5b6114f161175e565b565b6114fb6117ca565b73ffffffffffffffffffffffffffffffffffffffff166115196110f6565b73ffffffffffffffffffffffffffffffffffffffff161461156f576040517f08c379a000000000000000000000000000000000000000000000000000000000815260040161156690612000565b60405180910390fd5b565b6115796117d2565b6000609860006101000a81548160ff0219169083151502179055507f5db9ee0a495bf2e6ff9c91a7834c1ba4fdd244a5e8aa4e537bd38aeae4b073aa6115bd6117ca565b6040516115ca9190611e24565b60405180910390a1565b6000603360009054906101000a900473ffffffffffffffffffffffffffffffffffffffff16905081603360006101000a81548173ffffffffffffffffffffffffffffffffffffffff021916908373ffffffffffffffffffffffffffffffffffffffff1602179055508173ffffffffffffffffffffffffffffffffffffffff168173ffffffffffffffffffffffffffffffffffffffff167f8be0079c531659141344cd1fd0a4f28419497f9722a3daafe3b4186f6b6457e060405160405180910390a35050565b6116a261181b565b6001609860006101000a81548160ff0219169083151502179055507f62e78cea01bee320cd4e420270b5ea74000d11b0c9f74754ebdbfc544b05a2586116e66117ca565b6040516116f39190611e24565b60405180910390a1565b600060019054906101000a900460ff1661174c576040517f08c379a000000000000000000000000000000000000000000000000000000000815260040161174390612040565b60405180910390fd5b61175c6117576117ca565b6115d4565b565b600060019054906101000a900460ff166117ad576040517f08c379a00000000000000000000000000000000000000000000000000000000081526004016117a490612040565b60405180910390fd5b6000609860006101000a81548160ff021916908315150217905550565b600033905090565b6117da610920565b611819576040517f08c379a000000000000000000000000000000000000000000000000000000000815260040161181090611f40565b60405180910390fd5b565b611823610920565b15611863576040517f08c379a000000000000000000000000000000000000000000000000000000000815260040161185a90611fa0565b60405180910390fd5b565b6000813590506118748161250b565b92915050565b60008151905061188981612522565b92915050565b60008135905061189e81612539565b92915050565b6000815190506118b381612539565b92915050565b6000602082840312156118cf576118ce6122b1565b5b60006118dd84828501611865565b91505092915050565b600080600080600080600060e0888a031215611905576119046122b1565b5b60006119138a828b01611865565b97505060206119248a828b01611865565b96505060406119358a828b01611865565b95505060606119468a828b01611865565b94505060806119578a828b01611865565b93505060a06119688a828b01611865565b92505060c06119798a828b01611865565b91505092959891949750929550565b6000806000606084860312156119a1576119a06122b1565b5b60006119af86828701611865565b93505060206119c086828701611865565b92505060406119d18682870161188f565b9150509250925092565b600080600080600060a086880312156119f7576119f66122b1565b5b6000611a0588828901611865565b9550506020611a1688828901611865565b9450506040611a278882890161188f565b9350506060611a3888828901611865565b9250506080611a498882890161188f565b9150509295509295909350565b60008060408385031215611a6d57611a6c6122b1565b5b6000611a7b85828601611865565b9250506020611a8c8582860161188f565b9150509250929050565b600060208284031215611aac57611aab6122b1565b5b6000611aba8482850161187a565b91505092915050565b600060208284031215611ad957611ad86122b1565b5b6000611ae7848285016118a4565b91505092915050565b6000611afc8383611b08565b60208301905092915050565b611b118161213b565b82525050565b611b208161213b565b82525050565b6000611b3182612101565b611b3b8185612119565b9350611b46836120f1565b8060005b83811015611b77578151611b5e8882611af0565b9750611b698361210c565b925050600181019050611b4a565b5085935050505092915050565b611b8d8161214d565b82525050565b611b9c8161219f565b82525050565b611bab816121b1565b82525050565b611bba816121c3565b82525050565b611bc9816121d5565b82525050565b611bd8816121e7565b82525050565b611be7816121f9565b82525050565b611bf68161220b565b82525050565b611c058161221d565b82525050565b6000611c1860148361212a565b9150611c23826122b6565b602082019050919050565b6000611c3b602e8361212a565b9150611c46826122df565b604082019050919050565b6000611c5e60328361212a565b9150611c698261232e565b604082019050919050565b6000611c8160108361212a565b9150611c8c8261237d565b602082019050919050565b6000611ca4603a8361212a565b9150611caf826123a6565b604082019050919050565b6000611cc7602e8361212a565b9150611cd2826123f5565b604082019050919050565b6000611cea60208361212a565b9150611cf582612444565b602082019050919050565b6000611d0d60308361212a565b9150611d188261246d565b604082019050919050565b6000611d30602b8361212a565b9150611d3b826124bc565b604082019050919050565b61010082016000820151611d5d6000850182611b08565b506020820151611d706020850182611b08565b506040820151611d836040850182611df7565b506060820151611d966060850182611b08565b506080820151611da96080850182611e06565b5060a0820151611dbc60a0850182611e06565b5060c0820151611dcf60c0850182611e06565b5060e0820151611de260e0850182611de8565b50505050565b611df181612159565b82525050565b611e0081612179565b82525050565b611e0f81612188565b82525050565b611e1e81612188565b82525050565b6000602082019050611e396000830184611b17565b92915050565b6000604082019050611e546000830185611b17565b611e616020830184611e15565b9392505050565b6000602082019050611e7d6000830184611b84565b92915050565b6000602082019050611e986000830184611b93565b92915050565b6000602082019050611eb36000830184611ba2565b92915050565b6000602082019050611ece6000830184611bb1565b92915050565b6000602082019050611ee96000830184611bc0565b92915050565b6000602082019050611f046000830184611bcf565b92915050565b6000602082019050611f1f6000830184611bde565b92915050565b6000602082019050611f3a6000830184611bfc565b92915050565b60006020820190508181036000830152611f5981611c0b565b9050919050565b60006020820190508181036000830152611f7981611c2e565b9050919050565b60006020820190508181036000830152611f9981611c51565b9050919050565b60006020820190508181036000830152611fb981611c74565b9050919050565b60006020820190508181036000830152611fd981611c97565b9050919050565b60006020820190508181036000830152611ff981611cba565b9050919050565b6000602082019050818103600083015261201981611cdd565b9050919050565b6000602082019050818103600083015261203981611d00565b9050919050565b6000602082019050818103600083015261205981611d23565b9050919050565b6000610100820190506120766000830184611d46565b92915050565b60006020820190506120916000830184611e15565b92915050565b600060a0820190506120ac6000830188611e15565b6120b96020830187611bed565b81810360408301526120cb8186611b26565b90506120da6060830185611b17565b6120e76080830184611e15565b9695505050505050565b6000819050602082019050919050565b600081519050919050565b6000602082019050919050565b600082825260208201905092915050565b600082825260208201905092915050565b600061214682612159565b9050919050565b60008115159050919050565b600073ffffffffffffffffffffffffffffffffffffffff82169050919050565b600062ffffff82169050919050565b6000819050919050565b600060ff82169050919050565b60006121aa8261222f565b9050919050565b60006121bc8261222f565b9050919050565b60006121ce8261222f565b9050919050565b60006121e08261222f565b9050919050565b60006121f28261222f565b9050919050565b60006122048261222f565b9050919050565b600061221682612188565b9050919050565b600061222882612192565b9050919050565b600061223a82612241565b9050919050565b600061224c82612159565b9050919050565b7f4e487b7100000000000000000000000000000000000000000000000000000000600052603260045260246000fd5b7f4e487b7100000000000000000000000000000000000000000000000000000000600052604160045260246000fd5b600080fd5b7f5061757361626c653a206e6f7420706175736564000000000000000000000000600082015250565b7f496e646578546f6b656e3a2063616c6c6572206973206e6f742074686520666160008201527f63746f727920636f6e7472616374000000000000000000000000000000000000602082015250565b7f50726f706f7361626c654f776e61626c653a206e6577206f776e65722069732060008201527f6e6f742070726f706f736564206f776e65720000000000000000000000000000602082015250565b7f5061757361626c653a2070617573656400000000000000000000000000000000600082015250565b7f50726f706f7361626c654f776e61626c653a20746869732063616c6c206d757360008201527f74206265206d61646520627920746865206e6577206f776e6572000000000000602082015250565b7f496e697469616c697a61626c653a20636f6e747261637420697320616c72656160008201527f647920696e697469616c697a6564000000000000000000000000000000000000602082015250565b7f4f776e61626c653a2063616c6c6572206973206e6f7420746865206f776e6572600082015250565b7f50726f706f7361626c654f776e61626c653a206e6577206f776e65722069732060008201527f746865207a65726f206164647265737300000000000000000000000000000000602082015250565b7f496e697469616c697a61626c653a20636f6e7472616374206973206e6f74206960008201527f6e697469616c697a696e67000000000000000000000000000000000000000000602082015250565b6125148161213b565b811461251f57600080fd5b50565b61252b8161214d565b811461253657600080fd5b50565b61254281612188565b811461254d57600080fd5b5056fea2646970667358221220b4b311ad0441401877908c3e721c3cdcb3df7f4ba74f0c6ea4262b9578dcfe3864736f6c63430008070033","linkReferences":{}},"methodIdentifiers":{"approveSwapToken(address,address,uint256)":"79e34b4d","factoryV2()":"68e0d4e1","factoryV3()":"1d5f45f5","indexFactory()":"e3fd0af2","initialize(address,address,address,address,address,address,address)":"35876476","owner()":"8da5cb5b","pause()":"8456cb59","paused()":"5c975abb","proposeOwner(address)":"b5ed298a","proposedOwner()":"d153b60c","quoter()":"c6bbd5a7","renounceOwnership()":"715018a6","setFactory(address)":"5bb47808","swapRouterV2()":"744fbc7a","swapRouterV3()":"b631e80b","swapSingle(address,address,uint256,address,uint256)":"5f370ed0","tokenMarketShare(address)":"fcaae87b","tokenSwapVersion(address)":"d90bc211","transferOwnership(address)":"f2fde38b","unpause()":"3f4ba83a","weth()":"3fc8cef3","wethTransfer(address,uint256)":"77524af9"},"id":37}