{"abi":[{"type":"constructor","inputs":[],"stateMutability":"nonpayable"},{"type":"function","name":"allowance","inputs":[{"name":"owner","type":"address","internalType":"address"},{"name":"spender","type":"address","internalType":"address"}],"outputs":[{"name":"","type":"uint256","internalType":"uint256"}],"stateMutability":"view"},{"type":"function","name":"approve","inputs":[{"name":"spender","type":"address","internalType":"address"},{"name":"amount","type":"uint256","internalType":"uint256"}],"outputs":[{"name":"","type":"bool","internalType":"bool"}],"stateMutability":"nonpayable"},{"type":"function","name":"balanceOf","inputs":[{"name":"account","type":"address","internalType":"address"}],"outputs":[{"name":"","type":"uint256","internalType":"uint256"}],"stateMutability":"view"},{"type":"function","name":"decimals","inputs":[],"outputs":[{"name":"","type":"uint8","internalType":"uint8"}],"stateMutability":"view"},{"type":"function","name":"decreaseAllowance","inputs":[{"name":"spender","type":"address","internalType":"address"},{"name":"subtractedValue","type":"uint256","internalType":"uint256"}],"outputs":[{"name":"","type":"bool","internalType":"bool"}],"stateMutability":"nonpayable"},{"type":"function","name":"decreaseApproval","inputs":[{"name":"spender","type":"address","internalType":"address"},{"name":"subtractedValue","type":"uint256","internalType":"uint256"}],"outputs":[{"name":"","type":"bool","internalType":"bool"}],"stateMutability":"nonpayable"},{"type":"function","name":"increaseAllowance","inputs":[{"name":"spender","type":"address","internalType":"address"},{"name":"addedValue","type":"uint256","internalType":"uint256"}],"outputs":[{"name":"","type":"bool","internalType":"bool"}],"stateMutability":"nonpayable"},{"type":"function","name":"increaseApproval","inputs":[{"name":"spender","type":"address","internalType":"address"},{"name":"addedValue","type":"uint256","internalType":"uint256"}],"outputs":[{"name":"","type":"bool","internalType":"bool"}],"stateMutability":"nonpayable"},{"type":"function","name":"name","inputs":[],"outputs":[{"name":"","type":"string","internalType":"string"}],"stateMutability":"view"},{"type":"function","name":"symbol","inputs":[],"outputs":[{"name":"","type":"string","internalType":"string"}],"stateMutability":"view"},{"type":"function","name":"totalSupply","inputs":[],"outputs":[{"name":"","type":"uint256","internalType":"uint256"}],"stateMutability":"view"},{"type":"function","name":"transfer","inputs":[{"name":"to","type":"address","internalType":"address"},{"name":"amount","type":"uint256","internalType":"uint256"}],"outputs":[{"name":"","type":"bool","internalType":"bool"}],"stateMutability":"nonpayable"},{"type":"function","name":"transferAndCall","inputs":[{"name":"_to","type":"address","internalType":"address"},{"name":"_value","type":"uint256","internalType":"uint256"},{"name":"_data","type":"bytes","internalType":"bytes"}],"outputs":[{"name":"success","type":"bool","internalType":"bool"}],"stateMutability":"nonpayable"},{"type":"function","name":"transferFrom","inputs":[{"name":"from","type":"address","internalType":"address"},{"name":"to","type":"address","internalType":"address"},{"name":"amount","type":"uint256","internalType":"uint256"}],"outputs":[{"name":"","type":"bool","internalType":"bool"}],"stateMutability":"nonpayable"},{"type":"event","name":"Approval","inputs":[{"name":"owner","type":"address","indexed":true,"internalType":"address"},{"name":"spender","type":"address","indexed":true,"internalType":"address"},{"name":"value","type":"uint256","indexed":false,"internalType":"uint256"}],"anonymous":false},{"type":"event","name":"Transfer","inputs":[{"name":"from","type":"address","indexed":true,"internalType":"address"},{"name":"to","type":"address","indexed":true,"internalType":"address"},{"name":"value","type":"uint256","indexed":false,"internalType":"uint256"},{"name":"data","type":"bytes","indexed":false,"internalType":"bytes"}],"anonymous":false},{"type":"event","name":"Transfer","inputs":[{"name":"from","type":"address","indexed":true,"internalType":"address"},{"name":"to","type":"address","indexed":true,"internalType":"address"},{"name":"value","type":"uint256","indexed":false,"internalType":"uint256"}],"anonymous":false}],"bytecode":{"object":"0x608060405234801561000f575f80fd5b506040518060400160405280600f81526020016e21b430b4b72634b735902a37b5b2b760891b815250604051806040016040528060048152602001634c494e4b60e01b815250816003908161006491906101f7565b50600461007182826101f7565b5061007d915050610082565b6102d6565b610098336b033b2e3c9fd0803ce800000061009a565b565b6001600160a01b0382166100f45760405162461bcd60e51b815260206004820152601f60248201527f45524332303a206d696e7420746f20746865207a65726f206164647265737300604482015260640160405180910390fd5b8060025f82825461010591906102b1565b90915550506001600160a01b0382165f81815260208181526040808320805486019055518481527fddf252ad1be2c89b69c2b068fc378daa952ba7f163c4a11628f55a4df523b3ef910160405180910390a35050565b505050565b634e487b7160e01b5f52604160045260245ffd5b600181811c9082168061018857607f821691505b6020821081036101a657634e487b7160e01b5f52602260045260245ffd5b50919050565b601f82111561015b57805f5260205f20601f840160051c810160208510156101d15750805b601f840160051c820191505b818110156101f0575f81556001016101dd565b5050505050565b81516001600160401b0381111561021057610210610160565b6102248161021e8454610174565b846101ac565b6020601f821160018114610256575f831561023f5750848201515b5f19600385901b1c1916600184901b1784556101f0565b5f84815260208120601f198516915b828110156102855787850151825560209485019460019092019101610265565b50848210156102a257868401515f19600387901b60f8161c191681555b50505050600190811b01905550565b808201808211156102d057634e487b7160e01b5f52601160045260245ffd5b92915050565b610b5a806102e35f395ff3fe608060405234801561000f575f80fd5b50600436106100c7575f3560e01c80636618846311610079578063661884631461016657806370a082311461017957806395d89b41146101a1578063a457c2d7146101a9578063a9059cbb146101bc578063d73dd623146101cf578063dd62ed3e146101e2575f80fd5b806306fdde03146100cb578063095ea7b3146100e957806318160ddd1461010c57806323b872dd1461011e578063313ce5671461013157806339509351146101405780634000aea014610153575b5f80fd5b6100d36101f5565b6040516100e09190610871565b60405180910390f35b6100fc6100f736600461089e565b610285565b60405190151581526020016100e0565b6002545b6040519081526020016100e0565b6100fc61012c3660046108c6565b61029e565b604051601281526020016100e0565b6100fc61014e36600461089e565b6102c1565b6100fc610161366004610914565b6102e2565b6100fc61017436600461089e565b610357565b6101106101873660046109e0565b6001600160a01b03165f9081526020819052604090205490565b6100d3610369565b6100fc6101b736600461089e565b610378565b6100fc6101ca36600461089e565b6103f7565b6100fc6101dd36600461089e565b610404565b6101106101f03660046109f9565b61040f565b60606003805461020490610a2a565b80601f016020809104026020016040519081016040528092919081815260200182805461023090610a2a565b801561027b5780601f106102525761010080835404028352916020019161027b565b820191905f5260205f20905b81548152906001019060200180831161025e57829003601f168201915b5050505050905090565b5f33610292818585610439565b60019150505b92915050565b5f336102ab858285610473565b6102b68585856104e5565b506001949350505050565b5f336102928185856102d3838361040f565b6102dd9190610a62565b610439565b5f6102ed84846103f7565b50836001600160a01b0316336001600160a01b03167fe19260aff97b920c7df27010903aeb9c8d2be5d310a2c67824cf3f15396e4c168585604051610333929190610a81565b60405180910390a3833b1561034d5761034d848484610519565b5060019392505050565b5f6103628383610378565b9392505050565b60606004805461020490610a2a565b5f3381610385828661040f565b9050838110156103ea5760405162461bcd60e51b815260206004820152602560248201527f45524332303a2064656372656173656420616c6c6f77616e63652062656c6f77604482015264207a65726f60d81b60648201526084015b60405180910390fd5b6102b68286868403610439565b5f336102928185856104e5565b5f61036283836102c1565b6001600160a01b039182165f90815260016020908152604080832093909416825291909152205490565b81306001600160a01b038216036104625760405162461bcd60e51b81526004016103e190610aa1565b61046d84848461057e565b50505050565b5f61047e848461040f565b90505f19811461046d57818110156104d85760405162461bcd60e51b815260206004820152601d60248201527f45524332303a20696e73756666696369656e7420616c6c6f77616e636500000060448201526064016103e1565b61046d8484848403610439565b81306001600160a01b0382160361050e5760405162461bcd60e51b81526004016103e190610aa1565b61046d8484846106a1565b604051635260769b60e11b815283906001600160a01b0382169063a4c0ed369061054b90339087908790600401610af5565b5f604051808303815f87803b158015610562575f80fd5b505af1158015610574573d5f803e3d5ffd5b5050505050505050565b6001600160a01b0383166105e05760405162461bcd60e51b8152602060048201526024808201527f45524332303a20617070726f76652066726f6d20746865207a65726f206164646044820152637265737360e01b60648201526084016103e1565b6001600160a01b0382166106415760405162461bcd60e51b815260206004820152602260248201527f45524332303a20617070726f766520746f20746865207a65726f206164647265604482015261737360f01b60648201526084016103e1565b6001600160a01b038381165f8181526001602090815260408083209487168084529482529182902085905590518481527f8c5be1e5ebec7d5bd14f71427d1e84f3dd0314c0f7b2291e5b200ac8c7c3b925910160405180910390a3505050565b6001600160a01b0383166107055760405162461bcd60e51b815260206004820152602560248201527f45524332303a207472616e736665722066726f6d20746865207a65726f206164604482015264647265737360d81b60648201526084016103e1565b6001600160a01b0382166107675760405162461bcd60e51b815260206004820152602360248201527f45524332303a207472616e7366657220746f20746865207a65726f206164647260448201526265737360e81b60648201526084016103e1565b6001600160a01b0383165f90815260208190526040902054818110156107de5760405162461bcd60e51b815260206004820152602660248201527f45524332303a207472616e7366657220616d6f756e7420657863656564732062604482015265616c616e636560d01b60648201526084016103e1565b6001600160a01b038481165f81815260208181526040808320878703905593871680835291849020805487019055925185815290927fddf252ad1be2c89b69c2b068fc378daa952ba7f163c4a11628f55a4df523b3ef910160405180910390a361046d565b5f81518084528060208401602086015e5f602082860101526020601f19601f83011685010191505092915050565b602081525f6103626020830184610843565b80356001600160a01b0381168114610899575f80fd5b919050565b5f80604083850312156108af575f80fd5b6108b883610883565b946020939093013593505050565b5f805f606084860312156108d8575f80fd5b6108e184610883565b92506108ef60208501610883565b929592945050506040919091013590565b634e487b7160e01b5f52604160045260245ffd5b5f805f60608486031215610926575f80fd5b61092f84610883565b925060208401359150604084013567ffffffffffffffff811115610951575f80fd5b8401601f81018613610961575f80fd5b803567ffffffffffffffff81111561097b5761097b610900565b604051601f8201601f19908116603f0116810167ffffffffffffffff811182821017156109aa576109aa610900565b6040528181528282016020018810156109c1575f80fd5b816020840160208301375f602083830101528093505050509250925092565b5f602082840312156109f0575f80fd5b61036282610883565b5f8060408385031215610a0a575f80fd5b610a1383610883565b9150610a2160208401610883565b90509250929050565b600181811c90821680610a3e57607f821691505b602082108103610a5c57634e487b7160e01b5f52602260045260245ffd5b50919050565b8082018082111561029857634e487b7160e01b5f52601160045260245ffd5b828152604060208201525f610a996040830184610843565b949350505050565b60208082526034908201527f4c696e6b546f6b656e3a207472616e736665722f617070726f766520746f207460408201527368697320636f6e7472616374206164647265737360601b606082015260800190565b60018060a01b0384168152826020820152606060408201525f610b1b6060830184610843565b9594505050505056fea26469706673582212206f585f618abeb3ca0c8165877aa8805e9510b58055a2733f698ae501737adecb64736f6c634300081a0033","linkReferences":{}},"methodIdentifiers":{"allowance(address,address)":"dd62ed3e","approve(address,uint256)":"095ea7b3","balanceOf(address)":"70a08231","decimals()":"313ce567","decreaseAllowance(address,uint256)":"a457c2d7","decreaseApproval(address,uint256)":"66188463","increaseAllowance(address,uint256)":"39509351","increaseApproval(address,uint256)":"d73dd623","name()":"06fdde03","symbol()":"95d89b41","totalSupply()":"18160ddd","transfer(address,uint256)":"a9059cbb","transferAndCall(address,uint256,bytes)":"4000aea0","transferFrom(address,address,uint256)":"23b872dd"},"id":31}