{"abi":[{"type":"function","name":"estimateAmountOut","inputs":[{"name":"factoryAddress","type":"address","internalType":"address"},{"name":"tokenIn","type":"address","internalType":"address"},{"name":"tokenOut","type":"address","internalType":"address"},{"name":"amountIn","type":"uint128","internalType":"uint128"}],"outputs":[{"name":"amountOut","type":"uint256","internalType":"uint256"}],"stateMutability":"view"}],"bytecode":{"object":"0x608060405234801561001057600080fd5b506106b8806100206000396000f3fe608060405234801561001057600080fd5b506004361061002b5760003560e01c80639421712014610030575b600080fd5b6100766004803603608081101561004657600080fd5b5080356001600160a01b0390811691602081013582169160408201351690606001356001600160801b0316610088565b60408051918252519081900360200190f35b600080856001600160a01b0316631698ee828686610bb86040518463ffffffff1660e01b815260040180846001600160a01b03168152602001836001600160a01b03168152602001828152602001935050505060206040518083038186803b1580156100f357600080fd5b505afa158015610107573d6000803e3d6000fd5b505050506040513d602081101561011d57600080fd5b505160408051633850c7bd60e01b815290519192506000916001600160a01b03841691633850c7bd9160048083019260e0929190829003018186803b15801561016557600080fd5b505afa158015610179573d6000803e3d6000fd5b505050506040513d60e081101561018f57600080fd5b506020015190506101a2818588886101ad565b979650505050505050565b6000806101b9866102a0565b90506001600160801b036001600160a01b03821611610228576001600160a01b038082168002908481169086161061020857610203600160c01b876001600160801b0316836105d2565b610220565b61022081876001600160801b0316600160c01b6105d2565b925050610297565b60006102476001600160a01b03831680680100000000000000006105d2565b9050836001600160a01b0316856001600160a01b03161061027f5761027a600160801b876001600160801b0316836105d2565b6101a2565b6101a281876001600160801b0316600160801b6105d2565b50949350505050565b60008060008360020b126102b7578260020b6102bf565b8260020b6000035b9050620d89e88111156102fd576040805162461bcd60e51b81526020600482015260016024820152601560fa1b604482015290519081900360640190fd5b60006001821661031157600160801b610323565b6ffffcb933bd6fad37aa2d162d1a5940015b70ffffffffffffffffffffffffffffffffff1690506002821615610357576ffff97272373d413259a46990580e213a0260801c5b6004821615610376576ffff2e50f5f656932ef12357cf3c7fdcc0260801c5b6008821615610395576fffe5caca7e10e4e61c3624eaa0941cd00260801c5b60108216156103b4576fffcb9843d60f6159c9db58835c9266440260801c5b60208216156103d3576fff973b41fa98c081472e6896dfb254c00260801c5b60408216156103f2576fff2ea16466c96a3843ec78b326b528610260801c5b6080821615610411576ffe5dee046a99a2a811c461f1969c30530260801c5b610100821615610431576ffcbe86c7900a88aedcffc83b479aa3a40260801c5b610200821615610451576ff987a7253ac413176f2b074cf7815e540260801c5b610400821615610471576ff3392b0822b70005940c7a398e4b70f30260801c5b610800821615610491576fe7159475a2c29b7443b29c7fa6e889d90260801c5b6110008216156104b1576fd097f3bdfd2022b8845ad8f792aa58250260801c5b6120008216156104d1576fa9f746462d870fdf8a65dc1f90e061e50260801c5b6140008216156104f1576f70d869a156d2a1b890bb3df62baf32f70260801c5b618000821615610511576f31be135f97d08fd981231505542fcfa60260801c5b62010000821615610532576f09aa508b5b7a84e1c677de54f3e99bc90260801c5b62020000821615610552576e5d6af8dedb81196699c329225ee6040260801c5b62040000821615610571576d2216e584f5fa1ea926041bedfe980260801c5b6208000082161561058e576b048a170391f7dc42444e8fa20260801c5b60008460020b13156105a95780600019816105a557fe5b0490505b6401000000008106156105bd5760016105c0565b60005b60ff16602082901c0192505050919050565b600080806000198587098686029250828110908390030390508061060857600084116105fd57600080fd5b50829004905061067b565b80841161061457600080fd5b6000848688096000868103871696879004966002600389028118808a02820302808a02820302808a02820302808a02820302808a02820302808a02909103029181900381900460010186841190950394909402919094039290920491909117919091029150505b939250505056fea26469706673582212206fcb37961da6c0140f6164d64987d8d6026c9d2f3d9329a7153c2c028e0fead464736f6c63430007060033","linkReferences":{}},"methodIdentifiers":{"estimateAmountOut(address,address,address,uint128)":"94217120"},"id":0}