{"abi":[{"type":"function","name":"estimateAmountOut","inputs":[{"name":"factoryAddress","type":"address","internalType":"address"},{"name":"tokenIn","type":"address","internalType":"address"},{"name":"tokenOut","type":"address","internalType":"address"},{"name":"amountIn","type":"uint128","internalType":"uint128"},{"name":"fee","type":"uint24","internalType":"uint24"}],"outputs":[{"name":"amountOut","type":"uint256","internalType":"uint256"}],"stateMutability":"view"}],"bytecode":{"object":"0x60806040523480156100115760006000fd5b50610017565b610ac9806100266000396000f3fe60806040523480156100115760006000fd5b50600436106100305760003560e01c8063bb5705b31461003657610030565b60006000fd5b6100e4600480360360a081101561004d5760006000fd5b81019080803573ffffffffffffffffffffffffffffffffffffffff169060200190929190803573ffffffffffffffffffffffffffffffffffffffff169060200190929190803573ffffffffffffffffffffffffffffffffffffffff16906020019092919080356fffffffffffffffffffffffffffffffff169060200190929190803562ffffff1690602001909291905050506100fa565b6040518082815260200191505060405180910390f35b600060008673ffffffffffffffffffffffffffffffffffffffff16631698ee828787866040518463ffffffff1660e01b8152600401808473ffffffffffffffffffffffffffffffffffffffff1681526020018373ffffffffffffffffffffffffffffffffffffffff1681526020018262ffffff168152602001935050505060206040518083038186803b1580156101915760006000fd5b505afa1580156101a6573d600060003e3d6000fd5b505050506040513d60208110156101bd5760006000fd5b8101908080519060200190929190505050905060008173ffffffffffffffffffffffffffffffffffffffff16633850c7bd6040518163ffffffff1660e01b815260040160e06040518083038186803b1580156102195760006000fd5b505afa15801561022e573d600060003e3d6000fd5b505050506040513d60e08110156102455760006000fd5b810190808051906020019092919080519060200190929190805190602001909291908051906020019092919080519060200190929190805190602001909291908051906020019092919050505050505050509150506102ac818689896102bc63ffffffff16565b9250825050505b95945050505050565b600060006102cf866104fb63ffffffff16565b90506fffffffffffffffffffffffffffffffff6fffffffffffffffffffffffffffffffff168173ffffffffffffffffffffffffffffffffffffffff161115156104005760008173ffffffffffffffffffffffffffffffffffffffff168273ffffffffffffffffffffffffffffffffffffffff160290508373ffffffffffffffffffffffffffffffffffffffff168573ffffffffffffffffffffffffffffffffffffffff16106103b9576103b47801000000000000000000000000000000000000000000000000876fffffffffffffffffffffffffffffffff168361099263ffffffff16565b6103f6565b6103f581876fffffffffffffffffffffffffffffffff16780100000000000000000000000000000000000000000000000061099263ffffffff16565b5b92508250506104f1565b60006104488273ffffffffffffffffffffffffffffffffffffffff168373ffffffffffffffffffffffffffffffffffffffff166801000000000000000061099263ffffffff16565b90508373ffffffffffffffffffffffffffffffffffffffff168573ffffffffffffffffffffffffffffffffffffffff16106104b6576104b1700100000000000000000000000000000000876fffffffffffffffffffffffffffffffff168361099263ffffffff16565b6104eb565b6104ea81876fffffffffffffffffffffffffffffffff1670010000000000000000000000000000000061099263ffffffff16565b5b92508250505b505b949350505050565b6000600060008360020b12610513578260020b61051b565b8260020b6000035b90507ffffffffffffffffffffffffffffffffffffffffffffffffffffffffffff2761860000360020b81111515156105be576040517f08c379a00000000000000000000000000000000000000000000000000000000081526004018080602001828103825260018152602001807f540000000000000000000000000000000000000000000000000000000000000081526020015060200191505060405180910390fd5b600060006001831614156105e3577001000000000000000000000000000000006105f5565b6ffffcb933bd6fad37aa2d162d1a5940015b70ffffffffffffffffffffffffffffffffff1690506000600283161415156106335760806ffff97272373d413259a46990580e213a8202901c905080505b60006004831614151561065c5760806ffff2e50f5f656932ef12357cf3c7fdcc8202901c905080505b6000600883161415156106855760806fffe5caca7e10e4e61c3624eaa0941cd08202901c905080505b6000601083161415156106ae5760806fffcb9843d60f6159c9db58835c9266448202901c905080505b6000602083161415156106d75760806fff973b41fa98c081472e6896dfb254c08202901c905080505b6000604083161415156107005760806fff2ea16466c96a3843ec78b326b528618202901c905080505b6000608083161415156107295760806ffe5dee046a99a2a811c461f1969c30538202901c905080505b600061010083161415156107535760806ffcbe86c7900a88aedcffc83b479aa3a48202901c905080505b6000610200831614151561077d5760806ff987a7253ac413176f2b074cf7815e548202901c905080505b600061040083161415156107a75760806ff3392b0822b70005940c7a398e4b70f38202901c905080505b600061080083161415156107d15760806fe7159475a2c29b7443b29c7fa6e889d98202901c905080505b600061100083161415156107fb5760806fd097f3bdfd2022b8845ad8f792aa58258202901c905080505b600061200083161415156108255760806fa9f746462d870fdf8a65dc1f90e061e58202901c905080505b6000614000831614151561084f5760806f70d869a156d2a1b890bb3df62baf32f78202901c905080505b600061800083161415156108795760806f31be135f97d08fd981231505542fcfa68202901c905080505b60006201000083161415156108a45760806f09aa508b5b7a84e1c677de54f3e99bc98202901c905080505b60006202000083161415156108ce5760806e5d6af8dedb81196699c329225ee6048202901c905080505b60006204000083161415156108f75760806d2216e584f5fa1ea926041bedfe988202901c905080505b600062080000831614151561091e5760806b048a170391f7dc42444e8fa28202901c905080505b60008460020b131561095b57807fffffffffffffffffffffffffffffffffffffffffffffffffffffffffffffffff81151561095557fe5b04905080505b60006401000000008281151561096d57fe5b061461097a57600161097d565b60005b60ff16602082901c019250825050505b919050565b60006000600060001985870985870292508281108382030391505060008114156109d5576000841115156109c65760006000fd5b83820492508292505050610a8c565b80841115156109e45760006000fd5b6000848688099050828111820391508083039250600085866000031690508086049550808404935060018182600003040190508083028417935083506000600287600302189050808702600203810290508050808702600203810290508050808702600203810290508050808702600203810290508050808702600203810290508050808702600203810290508050808502955085508595505050505050610a8c5650505050505b939250505056fea2646970667358221220f355baf200ff72c6f6015632c3d05ac3fe1f76a1a2f27324bc9a31316060357064736f6c63430007060033","linkReferences":{}},"methodIdentifiers":{"estimateAmountOut(address,address,address,uint128,uint24)":"bb5705b3"},"id":0}