{"abi":[{"type":"function","name":"priceOracleByteCode","inputs":[],"outputs":[{"name":"","type":"bytes","internalType":"bytes"}],"stateMutability":"view"}],"bytecode":{"object":"0x608060405260405180610b000160405280610adc8152602001610389610adc913960009080519060200190610035929190610048565b5034801561004257600080fd5b5061014c565b828054610054906100eb565b90600052602060002090601f01602090048101928261007657600085556100bd565b82601f1061008f57805160ff19168380011785556100bd565b828001600101855582156100bd579182015b828111156100bc5782518255916020019190600101906100a1565b5b5090506100ca91906100ce565b5090565b5b808211156100e75760008160009055506001016100cf565b5090565b6000600282049050600182168061010357607f821691505b602082108114156101175761011661011d565b5b50919050565b7f4e487b7100000000000000000000000000000000000000000000000000000000600052602260045260246000fd5b61022e8061015b6000396000f3fe608060405234801561001057600080fd5b506004361061002b5760003560e01c8063e4ce6f6114610030575b600080fd5b61003861004e565b6040516100459190610115565b60405180910390f35b6000805461005b90610186565b80601f016020809104026020016040519081016040528092919081815260200182805461008790610186565b80156100d45780601f106100a9576101008083540402835291602001916100d4565b820191906000526020600020905b8154815290600101906020018083116100b757829003601f168201915b505050505081565b60006100e782610137565b6100f18185610142565b9350610101818560208601610153565b61010a816101e7565b840191505092915050565b6000602082019050818103600083015261012f81846100dc565b905092915050565b600081519050919050565b600082825260208201905092915050565b60005b83811015610171578082015181840152602081019050610156565b83811115610180576000848401525b50505050565b6000600282049050600182168061019e57607f821691505b602082108114156101b2576101b16101b8565b5b50919050565b7f4e487b7100000000000000000000000000000000000000000000000000000000600052602260045260246000fd5b6000601f19601f830116905091905056fea2646970667358221220aef4dda4207917017412482bd4404243a8f4375b8cd117c935ebf0197bdbbd2364736f6c6343000807003360806040523480156100115760006000fd5b50610017565b610ab6806100266000396000f3fe60806040523480156100115760006000fd5b50600436106100305760003560e01c8063942171201461003657610030565b60006000fd5b6100d56004803603608081101561004d5760006000fd5b81019080803573ffffffffffffffffffffffffffffffffffffffff169060200190929190803573ffffffffffffffffffffffffffffffffffffffff169060200190929190803573ffffffffffffffffffffffffffffffffffffffff16906020019092919080356fffffffffffffffffffffffffffffffff1690602001909291905050506100eb565b6040518082815260200191505060405180910390f35b600060008573ffffffffffffffffffffffffffffffffffffffff16631698ee828686610bb86040518463ffffffff1660e01b8152600401808473ffffffffffffffffffffffffffffffffffffffff1681526020018373ffffffffffffffffffffffffffffffffffffffff168152602001828152602001935050505060206040518083038186803b15801561017f5760006000fd5b505afa158015610194573d600060003e3d6000fd5b505050506040513d60208110156101ab5760006000fd5b8101908080519060200190929190505050905060008173ffffffffffffffffffffffffffffffffffffffff16633850c7bd6040518163ffffffff1660e01b815260040160e06040518083038186803b1580156102075760006000fd5b505afa15801561021c573d600060003e3d6000fd5b505050506040513d60e08110156102335760006000fd5b8101908080519060200190929190805190602001909291908051906020019092919080519060200190929190805190602001909291908051906020019092919080519060200190929190505050505050505091505061029a818588886102a963ffffffff16565b9250825050505b949350505050565b600060006102bc866104e863ffffffff16565b90506fffffffffffffffffffffffffffffffff6fffffffffffffffffffffffffffffffff168173ffffffffffffffffffffffffffffffffffffffff161115156103ed5760008173ffffffffffffffffffffffffffffffffffffffff168273ffffffffffffffffffffffffffffffffffffffff160290508373ffffffffffffffffffffffffffffffffffffffff168573ffffffffffffffffffffffffffffffffffffffff16106103a6576103a17801000000000000000000000000000000000000000000000000876fffffffffffffffffffffffffffffffff168361097f63ffffffff16565b6103e3565b6103e281876fffffffffffffffffffffffffffffffff16780100000000000000000000000000000000000000000000000061097f63ffffffff16565b5b92508250506104de565b60006104358273ffffffffffffffffffffffffffffffffffffffff168373ffffffffffffffffffffffffffffffffffffffff166801000000000000000061097f63ffffffff16565b90508373ffffffffffffffffffffffffffffffffffffffff168573ffffffffffffffffffffffffffffffffffffffff16106104a35761049e700100000000000000000000000000000000876fffffffffffffffffffffffffffffffff168361097f63ffffffff16565b6104d8565b6104d781876fffffffffffffffffffffffffffffffff1670010000000000000000000000000000000061097f63ffffffff16565b5b92508250505b505b949350505050565b6000600060008360020b12610500578260020b610508565b8260020b6000035b90507ffffffffffffffffffffffffffffffffffffffffffffffffffffffffffff2761860000360020b81111515156105ab576040517f08c379a00000000000000000000000000000000000000000000000000000000081526004018080602001828103825260018152602001807f540000000000000000000000000000000000000000000000000000000000000081526020015060200191505060405180910390fd5b600060006001831614156105d0577001000000000000000000000000000000006105e2565b6ffffcb933bd6fad37aa2d162d1a5940015b70ffffffffffffffffffffffffffffffffff1690506000600283161415156106205760806ffff97272373d413259a46990580e213a8202901c905080505b6000600483161415156106495760806ffff2e50f5f656932ef12357cf3c7fdcc8202901c905080505b6000600883161415156106725760806fffe5caca7e10e4e61c3624eaa0941cd08202901c905080505b60006010831614151561069b5760806fffcb9843d60f6159c9db58835c9266448202901c905080505b6000602083161415156106c45760806fff973b41fa98c081472e6896dfb254c08202901c905080505b6000604083161415156106ed5760806fff2ea16466c96a3843ec78b326b528618202901c905080505b6000608083161415156107165760806ffe5dee046a99a2a811c461f1969c30538202901c905080505b600061010083161415156107405760806ffcbe86c7900a88aedcffc83b479aa3a48202901c905080505b6000610200831614151561076a5760806ff987a7253ac413176f2b074cf7815e548202901c905080505b600061040083161415156107945760806ff3392b0822b70005940c7a398e4b70f38202901c905080505b600061080083161415156107be5760806fe7159475a2c29b7443b29c7fa6e889d98202901c905080505b600061100083161415156107e85760806fd097f3bdfd2022b8845ad8f792aa58258202901c905080505b600061200083161415156108125760806fa9f746462d870fdf8a65dc1f90e061e58202901c905080505b6000614000831614151561083c5760806f70d869a156d2a1b890bb3df62baf32f78202901c905080505b600061800083161415156108665760806f31be135f97d08fd981231505542fcfa68202901c905080505b60006201000083161415156108915760806f09aa508b5b7a84e1c677de54f3e99bc98202901c905080505b60006202000083161415156108bb5760806e5d6af8dedb81196699c329225ee6048202901c905080505b60006204000083161415156108e45760806d2216e584f5fa1ea926041bedfe988202901c905080505b600062080000831614151561090b5760806b048a170391f7dc42444e8fa28202901c905080505b60008460020b131561094857807fffffffffffffffffffffffffffffffffffffffffffffffffffffffffffffffff81151561094257fe5b04905080505b60006401000000008281151561095a57fe5b061461096757600161096a565b60005b60ff16602082901c019250825050505b919050565b60006000600060001985870985870292508281108382030391505060008114156109c2576000841115156109b35760006000fd5b83820492508292505050610a79565b80841115156109d15760006000fd5b6000848688099050828111820391508083039250600085866000031690508086049550808404935060018182600003040190508083028417935083506000600287600302189050808702600203810290508050808702600203810290508050808702600203810290508050808702600203810290508050808702600203810290508050808702600203810290508050808502955085508595505050505050610a795650505050505b939250505056fea264697066735822122009c2684a4b51f10a1c06a2f48dc556478e25e1dc6631b511376bb9c01efcce4564736f6c63430007060033","linkReferences":{}},"methodIdentifiers":{"priceOracleByteCode()":"e4ce6f61"},"id":21}