{"abi":[{"type":"function","name":"DEFAULT_GAS_LIMIT","inputs":[],"outputs":[{"name":"","type":"uint32","internalType":"uint32"}],"stateMutability":"view"},{"type":"function","name":"GAS_FOR_CALL_EXACT_CHECK","inputs":[],"outputs":[{"name":"","type":"uint16","internalType":"uint16"}],"stateMutability":"view"},{"type":"function","name":"ccipSend","inputs":[{"name":"destinationChainSelector","type":"uint64","internalType":"uint64"},{"name":"message","type":"tuple","internalType":"struct Client.EVM2AnyMessage","components":[{"name":"receiver","type":"bytes","internalType":"bytes"},{"name":"data","type":"bytes","internalType":"bytes"},{"name":"tokenAmounts","type":"tuple[]","internalType":"struct Client.EVMTokenAmount[]","components":[{"name":"token","type":"address","internalType":"address"},{"name":"amount","type":"uint256","internalType":"uint256"}]},{"name":"feeToken","type":"address","internalType":"address"},{"name":"extraArgs","type":"bytes","internalType":"bytes"}]}],"outputs":[{"name":"","type":"bytes32","internalType":"bytes32"}],"stateMutability":"payable"},{"type":"function","name":"factoryChainSelector","inputs":[{"name":"","type":"address","internalType":"address"}],"outputs":[{"name":"","type":"uint64","internalType":"uint64"}],"stateMutability":"view"},{"type":"function","name":"getFee","inputs":[{"name":"","type":"uint64","internalType":"uint64"},{"name":"","type":"tuple","internalType":"struct Client.EVM2AnyMessage","components":[{"name":"receiver","type":"bytes","internalType":"bytes"},{"name":"data","type":"bytes","internalType":"bytes"},{"name":"tokenAmounts","type":"tuple[]","internalType":"struct Client.EVMTokenAmount[]","components":[{"name":"token","type":"address","internalType":"address"},{"name":"amount","type":"uint256","internalType":"uint256"}]},{"name":"feeToken","type":"address","internalType":"address"},{"name":"extraArgs","type":"bytes","internalType":"bytes"}]}],"outputs":[{"name":"","type":"uint256","internalType":"uint256"}],"stateMutability":"view"},{"type":"function","name":"getOnRamp","inputs":[{"name":"","type":"uint64","internalType":"uint64"}],"outputs":[{"name":"onRampAddress","type":"address","internalType":"address"}],"stateMutability":"pure"},{"type":"function","name":"getSupportedTokens","inputs":[{"name":"","type":"uint64","internalType":"uint64"}],"outputs":[{"name":"tokens","type":"address[]","internalType":"address[]"}],"stateMutability":"pure"},{"type":"function","name":"isChainSupported","inputs":[{"name":"","type":"uint64","internalType":"uint64"}],"outputs":[{"name":"supported","type":"bool","internalType":"bool"}],"stateMutability":"pure"},{"type":"function","name":"isOffRamp","inputs":[{"name":"","type":"uint64","internalType":"uint64"},{"name":"","type":"address","internalType":"address"}],"outputs":[{"name":"","type":"bool","internalType":"bool"}],"stateMutability":"pure"},{"type":"function","name":"routeMessage","inputs":[{"name":"message","type":"tuple","internalType":"struct Client.Any2EVMMessage","components":[{"name":"messageId","type":"bytes32","internalType":"bytes32"},{"name":"sourceChainSelector","type":"uint64","internalType":"uint64"},{"name":"sender","type":"bytes","internalType":"bytes"},{"name":"data","type":"bytes","internalType":"bytes"},{"name":"destTokenAmounts","type":"tuple[]","internalType":"struct Client.EVMTokenAmount[]","components":[{"name":"token","type":"address","internalType":"address"},{"name":"amount","type":"uint256","internalType":"uint256"}]}]},{"name":"gasForCallExactCheck","type":"uint16","internalType":"uint16"},{"name":"gasLimit","type":"uint256","internalType":"uint256"},{"name":"receiver","type":"address","internalType":"address"}],"outputs":[{"name":"success","type":"bool","internalType":"bool"},{"name":"retData","type":"bytes","internalType":"bytes"},{"name":"gasUsed","type":"uint256","internalType":"uint256"}],"stateMutability":"nonpayable"},{"type":"function","name":"setFactoryChainSelector","inputs":[{"name":"_chainSelector","type":"uint64","internalType":"uint64"},{"name":"_factory","type":"address","internalType":"address"}],"outputs":[],"stateMutability":"nonpayable"},{"type":"function","name":"setFee","inputs":[{"name":"feeAmount","type":"uint256","internalType":"uint256"}],"outputs":[],"stateMutability":"nonpayable"},{"type":"event","name":"MessageExecuted","inputs":[{"name":"messageId","type":"bytes32","indexed":false,"internalType":"bytes32"},{"name":"sourceChainSelector","type":"uint64","indexed":false,"internalType":"uint64"},{"name":"offRamp","type":"address","indexed":false,"internalType":"address"},{"name":"calldataHash","type":"bytes32","indexed":false,"internalType":"bytes32"}],"anonymous":false},{"type":"event","name":"MsgExecuted","inputs":[{"name":"success","type":"bool","indexed":false,"internalType":"bool"},{"name":"retData","type":"bytes","indexed":false,"internalType":"bytes"},{"name":"gasUsed","type":"uint256","indexed":false,"internalType":"uint256"}],"anonymous":false},{"type":"error","name":"InsufficientFeeTokenAmount","inputs":[]},{"type":"error","name":"InvalidAddress","inputs":[{"name":"encodedAddress","type":"bytes","internalType":"bytes"}]},{"type":"error","name":"InvalidExtraArgsTag","inputs":[]},{"type":"error","name":"InvalidMsgValue","inputs":[]},{"type":"error","name":"OnlyOffRamp","inputs":[]},{"type":"error","name":"ReceiverError","inputs":[{"name":"err","type":"bytes","internalType":"bytes"}]},{"type":"error","name":"UnsupportedDestinationChain","inputs":[{"name":"destChainSelector","type":"uint64","internalType":"uint64"}]}],"bytecode":{"object":"0x608060405234801561001057600080fd5b50612897806100206000396000f3fe6080604052600436106100a75760003560e01c8063a48a905811610064578063a48a9058146101e7578063a8d87a3b14610224578063d6be695a14610261578063d91399741461028c578063ee18e0d3146102c9578063fbca3b74146102f4576100a7565b806320487ded146100ac5780633cf97983146100e957806369fe0e2d1461012857806383826b2b14610151578063844968c81461018e57806396f4e9f9146101b7575b600080fd5b3480156100b857600080fd5b506100d360048036038101906100ce9190611826565b610331565b6040516100e09190612069565b60405180910390f35b3480156100f557600080fd5b50610110600480360381019061010b9190611653565b61033d565b60405161011f93929190611e89565b60405180910390f35b34801561013457600080fd5b5061014f600480360381019061014a9190611730565b610368565b005b34801561015d57600080fd5b506101786004803603810190610173919061178a565b610372565b6040516101859190611e6e565b60405180910390f35b34801561019a57600080fd5b506101b560048036038101906101b0919061178a565b61037e565b005b6101d160048036038101906101cc91906117ca565b6103e8565b6040516101de9190611ec7565b60405180910390f35b3480156101f357600080fd5b5061020e6004803603810190610209919061175d565b6108d2565b60405161021b9190611e6e565b60405180910390f35b34801561023057600080fd5b5061024b6004803603810190610246919061175d565b6108dd565b6040516102589190611dfa565b60405180910390f35b34801561026d57600080fd5b506102766108eb565b6040516102839190612084565b60405180910390f35b34801561029857600080fd5b506102b360048036038101906102ae91906115f9565b6108f2565b6040516102c0919061209f565b60405180910390f35b3480156102d557600080fd5b506102de610919565b6040516102eb919061204e565b60405180910390f35b34801561030057600080fd5b5061031b6004803603810190610316919061175d565b61091f565b6040516103289190611e4c565b60405180910390f35b60008054905092915050565b6000606060006103588761035090612533565b878787610972565b9250925092509450945094915050565b8060008190555050565b60006001905092915050565b81600160008373ffffffffffffffffffffffffffffffffffffffff1673ffffffffffffffffffffffffffffffffffffffff16815260200190815260200160002060006101000a81548167ffffffffffffffff021916908367ffffffffffffffff1602179055505050565b600060208280600001906103fc919061211d565b90501461045057818060000190610413919061211d565b6040517f370d875f000000000000000000000000000000000000000000000000000000008152600401610447929190611f42565b60405180910390fd5b6000828060000190610462919061211d565b81019061046f9190611730565b905073ffffffffffffffffffffffffffffffffffffffff80168111806104955750600a81105b156104e7578280600001906104aa919061211d565b6040517f370d875f0000000000000000000000000000000000000000000000000000000081526004016104de929190611f42565b60405180910390fd5b60006104fc85856104f790612546565b610331565b9050600073ffffffffffffffffffffffffffffffffffffffff1684606001602081019061052991906115f9565b73ffffffffffffffffffffffffffffffffffffffff161415610584578034101561057f576040517f07da6ee600000000000000000000000000000000000000000000000000000000815260040160405180910390fd5b6105ff565b60003411156105bf576040517f1841b4e100000000000000000000000000000000000000000000000000000000815260040160405180910390fd5b6105fe3330838760600160208101906105d891906115f9565b73ffffffffffffffffffffffffffffffffffffffff16610b4b909392919063ffffffff16565b5b6000829050600061061e868060800190610619919061211d565b610bd4565b600001519050600086604051602001610637919061202c565b60405160208183030381529060405280519060200120905060006040518060a00160405280838152602001600160003373ffffffffffffffffffffffffffffffffffffffff1673ffffffffffffffffffffffffffffffffffffffff16815260200190815260200160002060009054906101000a900467ffffffffffffffff1667ffffffffffffffff168152602001336040516020016106d69190611dfa565b60405160208183030381529060405281526020018980602001906106fa919061211d565b8080601f016020809104026020016040519081016040528093929190818152602001838380828437600081840152601f19601f82011690508083019250505050505050815260200189806040019061075291906120ba565b808060200260200160405190810160405280939291908181526020016000905b828210156107a2578484839050604002018036038101906107939190611703565b81526020019060010190610772565b5050505050815250905060005b8880604001906107bf91906120ba565b90508110156108685761085733868b80604001906107dd91906120ba565b858181106107ee576107ed612644565b5b905060400201602001358c806040019061080891906120ba565b8681811061081957610818612644565b5b905060400201600001602081019061083191906115f9565b73ffffffffffffffffffffffffffffffffffffffff16610b4b909392919063ffffffff16565b80610861906125cc565b90506107af565b5060008061087a836113888789610972565b5091509150816108c157806040517f0a8d6e8c0000000000000000000000000000000000000000000000000000000081526004016108b89190611f66565b60405180910390fd5b839850505050505050505092915050565b600060019050919050565b600063499602d29050919050565b62030d4081565b60016020528060005260406000206000915054906101000a900467ffffffffffffffff1681565b61138881565b6060600067ffffffffffffffff81111561093c5761093b612673565b5b60405190808252806020026020018201604052801561096a5781602001602082028036833780820191505090505b509050919050565b6000606060008087606001515114801561098c5750600085145b806109ae575060008473ffffffffffffffffffffffffffffffffffffffff163b145b806109ff57506109fd7f85572ffb000000000000000000000000000000000000000000000000000000008573ffffffffffffffffffffffffffffffffffffffff16610cba90919063ffffffff16565b155b15610a2457600160006040518060200160405280600081525090925092509250610b41565b60006385572ffb60e01b88604051602401610a3f919061200a565b604051602081830303815290604052907bffffffffffffffffffffffffffffffffffffffffffffffffffffffff19166020820180517bffffffffffffffffffffffffffffffffffffffffffffffffffffffff83818316178352505050509050610aac8186888a6084610cdf565b8094508195508296505050507fa8b0355886b5b7a28bb97e4f0a24feb172618407402721c4012d8b7c6433102f848484604051610aeb93929190611e89565b60405180910390a17f9b877de93ea9895756e337442c657f95a34fc68e7eb988bdfa693d5be83016b688600001518960200151338480519060200120604051610b379493929190611ee2565b60405180910390a1505b9450945094915050565b610bce846323b872dd60e01b858585604051602401610b6c93929190611e15565b604051602081830303815290604052907bffffffffffffffffffffffffffffffffffffffffffffffffffffffff19166020820180517bffffffffffffffffffffffffffffffffffffffffffffffffffffffff8381831617835250505050610e12565b50505050565b610bdc6111b4565b6000838390501415610c0757604051806020016040528062030d4063ffffffff168152509050610cb4565b6397a657c960e01b7bffffffffffffffffffffffffffffffffffffffffffffffffffffffff1916838390610c3b91906124d4565b7bffffffffffffffffffffffffffffffffffffffffffffffffffffffff191614610c91576040517f5247fdce00000000000000000000000000000000000000000000000000000000815260040160405180910390fd5b82826004908092610ca4939291906123e9565b810190610cb191906116d6565b90505b92915050565b6000610cc583610eda565b8015610cd75750610cd68383610f27565b5b905092915050565b6000606060008361ffff1667ffffffffffffffff811115610d0357610d02612673565b5b6040519080825280601f01601f191660200182016040528015610d355781602001600182028036833780820191505090505b509150863b610d68577f0c3b563c0000000000000000000000000000000000000000000000000000000060005260046000fd5b5a85811015610d9b577fafa32a2c0000000000000000000000000000000000000000000000000000000060005260046000fd5b85810390508660408204820311610dd6577f37c3be290000000000000000000000000000000000000000000000000000000060005260046000fd5b5a6000808b5160208d0160008d8df194505a810392503d86811115610df9578690505b808552806000602087013e505050955095509592505050565b6000610e74826040518060400160405280602081526020017f5361666545524332303a206c6f772d6c6576656c2063616c6c206661696c65648152508573ffffffffffffffffffffffffffffffffffffffff16610fe69092919063ffffffff16565b9050600081511480610e96575080806020019051810190610e959190611626565b5b610ed5576040517f08c379a0000000000000000000000000000000000000000000000000000000008152600401610ecc90611fea565b60405180910390fd5b505050565b6000610f06827f01ffc9a700000000000000000000000000000000000000000000000000000000610f27565b8015610f205750610f1e8263ffffffff60e01b610f27565b155b9050919050565b6000806301ffc9a760e01b83604051602401610f439190611f27565b604051602081830303815290604052907bffffffffffffffffffffffffffffffffffffffffffffffffffffffff19166020820180517bffffffffffffffffffffffffffffffffffffffffffffffffffffffff838183161783525050505090506000806000602060008551602087018a617530fa92503d91506000519050828015610fce575060208210155b8015610fda5750600081115b94505050505092915050565b6060610ff58484600085610ffe565b90509392505050565b606082471015611043576040517f08c379a000000000000000000000000000000000000000000000000000000000815260040161103a90611faa565b60405180910390fd5b6000808673ffffffffffffffffffffffffffffffffffffffff16858760405161106c9190611de3565b60006040518083038185875af1925050503d80600081146110a9576040519150601f19603f3d011682016040523d82523d6000602084013e6110ae565b606091505b50915091506110bf878383876110cb565b92505050949350505050565b6060831561112e57600083511415611126576110e685611141565b611125576040517f08c379a000000000000000000000000000000000000000000000000000000000815260040161111c90611fca565b60405180910390fd5b5b829050611139565b6111388383611164565b5b949350505050565b6000808273ffffffffffffffffffffffffffffffffffffffff163b119050919050565b6000825111156111775781518083602001fd5b806040517f08c379a00000000000000000000000000000000000000000000000000000000081526004016111ab9190611f88565b60405180910390fd5b6040518060200160405280600081525090565b60006111da6111d5846121a5565b612180565b905080838252602082019050828560408602820111156111fd576111fc6126d4565b5b60005b8581101561122d5781611213888261156a565b845260208401935060408301925050600181019050611200565b5050509392505050565b600061124a611245846121d1565b612180565b905082815260208101848484011115611266576112656126de565b5b611271848285612559565b509392505050565b600081359050611288816127d7565b92915050565b600082601f8301126112a3576112a26126a7565b5b81356112b38482602086016111c7565b91505092915050565b6000815190506112cb816127ee565b92915050565b6000813590506112e081612805565b92915050565b600082601f8301126112fb576112fa6126a7565b5b813561130b848260208601611237565b91505092915050565b600060a0828403121561132a576113296126b1565b5b81905092915050565b600060a08284031215611349576113486126b6565b5b61135360a0612180565b90506000611363848285016112d1565b6000830152506020611377848285016115e4565b602083015250604082013567ffffffffffffffff81111561139b5761139a6126ca565b5b6113a7848285016112e6565b604083015250606082013567ffffffffffffffff8111156113cb576113ca6126ca565b5b6113d7848285016112e6565b606083015250608082013567ffffffffffffffff8111156113fb576113fa6126ca565b5b6114078482850161128e565b60808301525092915050565b600060a08284031215611429576114286126b1565b5b81905092915050565b600060a08284031215611448576114476126b6565b5b61145260a0612180565b9050600082013567ffffffffffffffff811115611472576114716126ca565b5b61147e848285016112e6565b600083015250602082013567ffffffffffffffff8111156114a2576114a16126ca565b5b6114ae848285016112e6565b602083015250604082013567ffffffffffffffff8111156114d2576114d16126ca565b5b6114de8482850161128e565b60408301525060606114f284828501611279565b606083015250608082013567ffffffffffffffff811115611516576115156126ca565b5b611522848285016112e6565b60808301525092915050565b600060208284031215611544576115436126b6565b5b61154e6020612180565b9050600061155e848285016115cf565b60008301525092915050565b6000604082840312156115805761157f6126b6565b5b61158a6040612180565b9050600061159a84828501611279565b60008301525060206115ae848285016115cf565b60208301525092915050565b6000813590506115c98161281c565b92915050565b6000813590506115de81612833565b92915050565b6000813590506115f38161284a565b92915050565b60006020828403121561160f5761160e6126ed565b5b600061161d84828501611279565b91505092915050565b60006020828403121561163c5761163b6126ed565b5b600061164a848285016112bc565b91505092915050565b6000806000806080858703121561166d5761166c6126ed565b5b600085013567ffffffffffffffff81111561168b5761168a6126e3565b5b61169787828801611314565b94505060206116a8878288016115ba565b93505060406116b9878288016115cf565b92505060606116ca87828801611279565b91505092959194509250565b6000602082840312156116ec576116eb6126ed565b5b60006116fa8482850161152e565b91505092915050565b600060408284031215611719576117186126ed565b5b60006117278482850161156a565b91505092915050565b600060208284031215611746576117456126ed565b5b6000611754848285016115cf565b91505092915050565b600060208284031215611773576117726126ed565b5b6000611781848285016115e4565b91505092915050565b600080604083850312156117a1576117a06126ed565b5b60006117af858286016115e4565b92505060206117c085828601611279565b9150509250929050565b600080604083850312156117e1576117e06126ed565b5b60006117ef858286016115e4565b925050602083013567ffffffffffffffff8111156118105761180f6126e3565b5b61181c85828601611413565b9150509250929050565b6000806040838503121561183d5761183c6126ed565b5b600061184b858286016115e4565b925050602083013567ffffffffffffffff81111561186c5761186b6126e3565b5b61187885828601611432565b9150509250929050565b600061188e83836118ca565b60208301905092915050565b60006118a68383611d1b565b60408301905092915050565b60006118be8383611d5a565b60408301905092915050565b6118d381612424565b82525050565b6118e281612424565b82525050565b60006118f38261222c565b6118fd818561228a565b935061190883612202565b8060005b838110156119395781516119208882611882565b975061192b83612263565b92505060018101905061190c565b5085935050505092915050565b6000611952838561229b565b935061195d82612212565b8060005b858110156119965761197382846123c7565b61197d888261189a565b975061198883612270565b925050600181019050611961565b5085925050509392505050565b60006119ae82612237565b6119b8818561229b565b93506119c38361221c565b8060005b838110156119f45781516119db88826118b2565b97506119e68361227d565b9250506001810190506119c7565b5085935050505092915050565b611a0a81612436565b82525050565b611a1981612442565b82525050565b611a2881612442565b82525050565b611a378161244c565b82525050565b6000611a4983856122ac565b9350611a56838584612559565b611a5f836126f2565b840190509392505050565b6000611a7683856122bd565b9350611a83838584612559565b611a8c836126f2565b840190509392505050565b6000611aa28261224d565b611aac81856122ac565b9350611abc818560208601612568565b611ac5816126f2565b840191505092915050565b6000611adb8261224d565b611ae581856122bd565b9350611af5818560208601612568565b611afe816126f2565b840191505092915050565b6000611b148261224d565b611b1e81856122ce565b9350611b2e818560208601612568565b80840191505092915050565b6000611b4582612258565b611b4f81856122d9565b9350611b5f818560208601612568565b611b68816126f2565b840191505092915050565b6000611b806026836122d9565b9150611b8b82612710565b604082019050919050565b6000611ba3601d836122d9565b9150611bae8261275f565b602082019050919050565b6000611bc6602a836122d9565b9150611bd182612788565b604082019050919050565b600060a083016000830151611bf46000860182611a10565b506020830151611c076020860182611dc5565b5060408301518482036040860152611c1f8282611a97565b91505060608301518482036060860152611c398282611a97565b91505060808301518482036080860152611c5382826119a3565b9150508091505092915050565b600060a08301611c736000840184612364565b8583036000870152611c86838284611a3d565b92505050611c976020840184612364565b8583036020870152611caa838284611a3d565b92505050611cbb6040840184612301565b8583036040870152611cce838284611946565b92505050611cdf60608401846122ea565b611cec60608601826118ca565b50611cfa6080840184612364565b8583036080870152611d0d838284611a3d565b925050508091505092915050565b60408201611d2c60008301836122ea565b611d3960008501826118ca565b50611d4760208301836123d2565b611d546020850182611d98565b50505050565b604082016000820151611d7060008501826118ca565b506020820151611d836020850182611d98565b50505050565b611d9281612478565b82525050565b611da1816124a6565b82525050565b611db0816124a6565b82525050565b611dbf816124b0565b82525050565b611dce816124c0565b82525050565b611ddd816124c0565b82525050565b6000611def8284611b09565b915081905092915050565b6000602082019050611e0f60008301846118d9565b92915050565b6000606082019050611e2a60008301866118d9565b611e3760208301856118d9565b611e446040830184611da7565b949350505050565b60006020820190508181036000830152611e6681846118e8565b905092915050565b6000602082019050611e836000830184611a01565b92915050565b6000606082019050611e9e6000830186611a01565b8181036020830152611eb08185611ad0565b9050611ebf6040830184611da7565b949350505050565b6000602082019050611edc6000830184611a1f565b92915050565b6000608082019050611ef76000830187611a1f565b611f046020830186611dd4565b611f1160408301856118d9565b611f1e6060830184611a1f565b95945050505050565b6000602082019050611f3c6000830184611a2e565b92915050565b60006020820190508181036000830152611f5d818486611a6a565b90509392505050565b60006020820190508181036000830152611f808184611ad0565b905092915050565b60006020820190508181036000830152611fa28184611b3a565b905092915050565b60006020820190508181036000830152611fc381611b73565b9050919050565b60006020820190508181036000830152611fe381611b96565b9050919050565b6000602082019050818103600083015261200381611bb9565b9050919050565b600060208201905081810360008301526120248184611bdc565b905092915050565b600060208201905081810360008301526120468184611c60565b905092915050565b60006020820190506120636000830184611d89565b92915050565b600060208201905061207e6000830184611da7565b92915050565b60006020820190506120996000830184611db6565b92915050565b60006020820190506120b46000830184611dd4565b92915050565b600080833560016020038436030381126120d7576120d66126bb565b5b80840192508235915067ffffffffffffffff8211156120f9576120f86126ac565b5b602083019250604082023603831315612115576121146126d9565b5b509250929050565b6000808335600160200384360303811261213a576121396126bb565b5b80840192508235915067ffffffffffffffff82111561215c5761215b6126ac565b5b602083019250600182023603831315612178576121776126d9565b5b509250929050565b600061218a61219b565b9050612196828261259b565b919050565b6000604051905090565b600067ffffffffffffffff8211156121c0576121bf612673565b5b602082029050602081019050919050565b600067ffffffffffffffff8211156121ec576121eb612673565b5b6121f5826126f2565b9050602081019050919050565b6000819050602082019050919050565b6000819050919050565b6000819050602082019050919050565b600081519050919050565b600081519050919050565b600082905092915050565b600081519050919050565b600081519050919050565b6000602082019050919050565b6000604082019050919050565b6000602082019050919050565b600082825260208201905092915050565b600082825260208201905092915050565b600082825260208201905092915050565b600082825260208201905092915050565b600081905092915050565b600082825260208201905092915050565b60006122f96020840184611279565b905092915050565b6000808335600160200384360303811261231e5761231d6126e8565b5b83810192508235915060208301925067ffffffffffffffff821115612346576123456126a2565b5b60408202360384131561235c5761235b6126c0565b5b509250929050565b60008083356001602003843603038112612381576123806126e8565b5b83810192508235915060208301925067ffffffffffffffff8211156123a9576123a86126a2565b5b6001820236038413156123bf576123be6126c0565b5b509250929050565b600082905092915050565b60006123e160208401846115cf565b905092915050565b600080858511156123fd576123fc6126cf565b5b8386111561240e5761240d6126c5565b5b6001850283019150848603905094509492505050565b600061242f82612486565b9050919050565b60008115159050919050565b6000819050919050565b60007fffffffff0000000000000000000000000000000000000000000000000000000082169050919050565b600061ffff82169050919050565b600073ffffffffffffffffffffffffffffffffffffffff82169050919050565b6000819050919050565b600063ffffffff82169050919050565b600067ffffffffffffffff82169050919050565b60006124e08383612242565b826124eb813561244c565b9250600482101561252b576125267fffffffff0000000000000000000000000000000000000000000000000000000083600403600802612703565b831692505b505092915050565b600061253f3683611333565b9050919050565b60006125523683611432565b9050919050565b82818337600083830152505050565b60005b8381101561258657808201518184015260208101905061256b565b83811115612595576000848401525b50505050565b6125a4826126f2565b810181811067ffffffffffffffff821117156125c3576125c2612673565b5b80604052505050565b60006125d7826124a6565b91507fffffffffffffffffffffffffffffffffffffffffffffffffffffffffffffffff82141561260a57612609612615565b5b600182019050919050565b7f4e487b7100000000000000000000000000000000000000000000000000000000600052601160045260246000fd5b7f4e487b7100000000000000000000000000000000000000000000000000000000600052603260045260246000fd5b7f4e487b7100000000000000000000000000000000000000000000000000000000600052604160045260246000fd5b600080fd5b600080fd5b600080fd5b600080fd5b600080fd5b600080fd5b600080fd5b600080fd5b600080fd5b600080fd5b600080fd5b600080fd5b600080fd5b600080fd5b600080fd5b600080fd5b6000601f19601f8301169050919050565b600082821b905092915050565b7f416464726573733a20696e73756666696369656e742062616c616e636520666f60008201527f722063616c6c0000000000000000000000000000000000000000000000000000602082015250565b7f416464726573733a2063616c6c20746f206e6f6e2d636f6e7472616374000000600082015250565b7f5361666545524332303a204552433230206f7065726174696f6e20646964206e60008201527f6f74207375636365656400000000000000000000000000000000000000000000602082015250565b6127e081612424565b81146127eb57600080fd5b50565b6127f781612436565b811461280257600080fd5b50565b61280e81612442565b811461281957600080fd5b50565b61282581612478565b811461283057600080fd5b50565b61283c816124a6565b811461284757600080fd5b50565b612853816124c0565b811461285e57600080fd5b5056fea26469706673582212204b61d389484874e7216b5506ed6a3902e3250efd51a1f93df220cb0f33815fb564736f6c63430008070033","linkReferences":{}},"methodIdentifiers":{"DEFAULT_GAS_LIMIT()":"d6be695a","GAS_FOR_CALL_EXACT_CHECK()":"ee18e0d3","ccipSend(uint64,(bytes,bytes,(address,uint256)[],address,bytes))":"96f4e9f9","factoryChainSelector(address)":"d9139974","getFee(uint64,(bytes,bytes,(address,uint256)[],address,bytes))":"20487ded","getOnRamp(uint64)":"a8d87a3b","getSupportedTokens(uint64)":"fbca3b74","isChainSupported(uint64)":"a48a9058","isOffRamp(uint64,address)":"83826b2b","routeMessage((bytes32,uint64,bytes,bytes,(address,uint256)[]),uint16,uint256,address)":"3cf97983","setFactoryChainSelector(uint64,address)":"844968c8","setFee(uint256)":"69fe0e2d"},"id":19}