{"abi":[{"type":"function","name":"DEFAULT_GAS_LIMIT","inputs":[],"outputs":[{"name":"","type":"uint32","internalType":"uint32"}],"stateMutability":"view"},{"type":"function","name":"GAS_FOR_CALL_EXACT_CHECK","inputs":[],"outputs":[{"name":"","type":"uint16","internalType":"uint16"}],"stateMutability":"view"},{"type":"function","name":"ccipSend","inputs":[{"name":"destinationChainSelector","type":"uint64","internalType":"uint64"},{"name":"message","type":"tuple","internalType":"struct Client.EVM2AnyMessage","components":[{"name":"receiver","type":"bytes","internalType":"bytes"},{"name":"data","type":"bytes","internalType":"bytes"},{"name":"tokenAmounts","type":"tuple[]","internalType":"struct Client.EVMTokenAmount[]","components":[{"name":"token","type":"address","internalType":"address"},{"name":"amount","type":"uint256","internalType":"uint256"}]},{"name":"feeToken","type":"address","internalType":"address"},{"name":"extraArgs","type":"bytes","internalType":"bytes"}]}],"outputs":[{"name":"","type":"bytes32","internalType":"bytes32"}],"stateMutability":"payable"},{"type":"function","name":"factoryChainSelector","inputs":[{"name":"","type":"address","internalType":"address"}],"outputs":[{"name":"","type":"uint64","internalType":"uint64"}],"stateMutability":"view"},{"type":"function","name":"getFee","inputs":[{"name":"","type":"uint64","internalType":"uint64"},{"name":"","type":"tuple","internalType":"struct Client.EVM2AnyMessage","components":[{"name":"receiver","type":"bytes","internalType":"bytes"},{"name":"data","type":"bytes","internalType":"bytes"},{"name":"tokenAmounts","type":"tuple[]","internalType":"struct Client.EVMTokenAmount[]","components":[{"name":"token","type":"address","internalType":"address"},{"name":"amount","type":"uint256","internalType":"uint256"}]},{"name":"feeToken","type":"address","internalType":"address"},{"name":"extraArgs","type":"bytes","internalType":"bytes"}]}],"outputs":[{"name":"","type":"uint256","internalType":"uint256"}],"stateMutability":"view"},{"type":"function","name":"getOnRamp","inputs":[{"name":"","type":"uint64","internalType":"uint64"}],"outputs":[{"name":"onRampAddress","type":"address","internalType":"address"}],"stateMutability":"pure"},{"type":"function","name":"getSupportedTokens","inputs":[{"name":"","type":"uint64","internalType":"uint64"}],"outputs":[{"name":"tokens","type":"address[]","internalType":"address[]"}],"stateMutability":"pure"},{"type":"function","name":"isChainSupported","inputs":[{"name":"","type":"uint64","internalType":"uint64"}],"outputs":[{"name":"supported","type":"bool","internalType":"bool"}],"stateMutability":"pure"},{"type":"function","name":"isOffRamp","inputs":[{"name":"","type":"uint64","internalType":"uint64"},{"name":"","type":"address","internalType":"address"}],"outputs":[{"name":"","type":"bool","internalType":"bool"}],"stateMutability":"pure"},{"type":"function","name":"routeMessage","inputs":[{"name":"message","type":"tuple","internalType":"struct Client.Any2EVMMessage","components":[{"name":"messageId","type":"bytes32","internalType":"bytes32"},{"name":"sourceChainSelector","type":"uint64","internalType":"uint64"},{"name":"sender","type":"bytes","internalType":"bytes"},{"name":"data","type":"bytes","internalType":"bytes"},{"name":"destTokenAmounts","type":"tuple[]","internalType":"struct Client.EVMTokenAmount[]","components":[{"name":"token","type":"address","internalType":"address"},{"name":"amount","type":"uint256","internalType":"uint256"}]}]},{"name":"gasForCallExactCheck","type":"uint16","internalType":"uint16"},{"name":"gasLimit","type":"uint256","internalType":"uint256"},{"name":"receiver","type":"address","internalType":"address"}],"outputs":[{"name":"success","type":"bool","internalType":"bool"},{"name":"retData","type":"bytes","internalType":"bytes"},{"name":"gasUsed","type":"uint256","internalType":"uint256"}],"stateMutability":"nonpayable"},{"type":"function","name":"setFactoryChainSelector","inputs":[{"name":"_chainSelector","type":"uint64","internalType":"uint64"},{"name":"_factory","type":"address","internalType":"address"}],"outputs":[],"stateMutability":"nonpayable"},{"type":"function","name":"setFee","inputs":[{"name":"feeAmount","type":"uint256","internalType":"uint256"}],"outputs":[],"stateMutability":"nonpayable"},{"type":"event","name":"MessageExecuted","inputs":[{"name":"messageId","type":"bytes32","indexed":false,"internalType":"bytes32"},{"name":"sourceChainSelector","type":"uint64","indexed":false,"internalType":"uint64"},{"name":"offRamp","type":"address","indexed":false,"internalType":"address"},{"name":"calldataHash","type":"bytes32","indexed":false,"internalType":"bytes32"}],"anonymous":false},{"type":"event","name":"MsgExecuted","inputs":[{"name":"success","type":"bool","indexed":false,"internalType":"bool"},{"name":"retData","type":"bytes","indexed":false,"internalType":"bytes"},{"name":"gasUsed","type":"uint256","indexed":false,"internalType":"uint256"}],"anonymous":false},{"type":"error","name":"InsufficientFeeTokenAmount","inputs":[]},{"type":"error","name":"InvalidAddress","inputs":[{"name":"encodedAddress","type":"bytes","internalType":"bytes"}]},{"type":"error","name":"InvalidExtraArgsTag","inputs":[]},{"type":"error","name":"InvalidMsgValue","inputs":[]},{"type":"error","name":"OnlyOffRamp","inputs":[]},{"type":"error","name":"ReceiverError","inputs":[{"name":"err","type":"bytes","internalType":"bytes"}]},{"type":"error","name":"UnsupportedDestinationChain","inputs":[{"name":"destChainSelector","type":"uint64","internalType":"uint64"}]}],"bytecode":{"object":"0x6080604052348015600e575f80fd5b506126d78061001c5f395ff3fe6080604052600436106100a6575f3560e01c8063a48a905811610063578063a48a9058146101e0578063a8d87a3b1461021c578063d6be695a14610258578063d913997414610282578063ee18e0d3146102be578063fbca3b74146102e8576100a6565b806320487ded146100aa5780633cf97983146100e657806369fe0e2d1461012457806383826b2b1461014c578063844968c81461018857806396f4e9f9146101b0575b5f80fd5b3480156100b5575f80fd5b506100d060048036038101906100cb919061158f565b610324565b6040516100dd91906115f8565b60405180910390f35b3480156100f1575f80fd5b5061010c6004803603810190610107919061166a565b61032f565b60405161011b93929190611764565b60405180910390f35b34801561012f575f80fd5b5061014a600480360381019061014591906117a0565b610358565b005b348015610157575f80fd5b50610172600480360381019061016d91906117cb565b610361565b60405161017f9190611809565b60405180910390f35b348015610193575f80fd5b506101ae60048036038101906101a991906117cb565b61036c565b005b6101ca60048036038101906101c59190611840565b6103d3565b6040516101d791906118b2565b60405180910390f35b3480156101eb575f80fd5b50610206600480360381019061020191906118cb565b6108a0565b6040516102139190611809565b60405180910390f35b348015610227575f80fd5b50610242600480360381019061023d91906118cb565b6108aa565b60405161024f9190611905565b60405180910390f35b348015610263575f80fd5b5061026c6108b7565b604051610279919061193c565b60405180910390f35b34801561028d575f80fd5b506102a860048036038101906102a39190611955565b6108be565b6040516102b5919061198f565b60405180910390f35b3480156102c9575f80fd5b506102d26108e2565b6040516102df91906119b7565b60405180910390f35b3480156102f3575f80fd5b5061030e600480360381019061030991906118cb565b6108e8565b60405161031b9190611a87565b60405180910390f35b5f8054905092915050565b5f60605f6103488761034090611bae565b87878761093a565b9250925092509450945094915050565b805f8190555050565b5f6001905092915050565b8160015f8373ffffffffffffffffffffffffffffffffffffffff1673ffffffffffffffffffffffffffffffffffffffff1681526020019081526020015f205f6101000a81548167ffffffffffffffff021916908367ffffffffffffffff1602179055505050565b5f602082805f01906103e59190611bcc565b9050146104385781805f01906103fb9190611bcc565b6040517f370d875f00000000000000000000000000000000000000000000000000000000815260040161042f929190611c5a565b60405180910390fd5b5f82805f01906104489190611bcc565b81019061045591906117a0565b905073ffffffffffffffffffffffffffffffffffffffff801681118061047b5750600a81105b156104cc5782805f019061048f9190611bcc565b6040517f370d875f0000000000000000000000000000000000000000000000000000000081526004016104c3929190611c5a565b60405180910390fd5b5f6104e085856104db90611c7c565b610324565b90505f73ffffffffffffffffffffffffffffffffffffffff1684606001602081019061050c9190611955565b73ffffffffffffffffffffffffffffffffffffffff16036105665780341015610561576040517f07da6ee600000000000000000000000000000000000000000000000000000000815260040160405180910390fd5b6105e0565b5f3411156105a0576040517f1841b4e100000000000000000000000000000000000000000000000000000000815260040160405180910390fd5b6105df3330838760600160208101906105b99190611955565b73ffffffffffffffffffffffffffffffffffffffff16610b0b909392919063ffffffff16565b5b5f8290505f6105fd8680608001906105f89190611bcc565b610b94565b5f015190505f866040516020016106149190611f6b565b6040516020818303038152906040528051906020012090505f6040518060a0016040528083815260200160015f3373ffffffffffffffffffffffffffffffffffffffff1673ffffffffffffffffffffffffffffffffffffffff1681526020019081526020015f205f9054906101000a900467ffffffffffffffff1667ffffffffffffffff168152602001336040516020016106af9190611905565b60405160208183030381529060405281526020018980602001906106d39190611bcc565b8080601f0160208091040260200160405190810160405280939291908181526020018383808284375f81840152601f19601f82011690508083019250505050505050815260200189806040019061072a9190611f8b565b808060200260200160405190810160405280939291908181526020015f905b828210156107795784848390506040020180360381019061076a9190611fed565b81526020019060010190610749565b505050505081525090505f5b8880604001906107959190611f8b565b90508110156108375761082c33868b80604001906107b39190611f8b565b858181106107c4576107c3612018565b5b905060400201602001358c80604001906107de9190611f8b565b868181106107ef576107ee612018565b5b9050604002015f0160208101906108069190611955565b73ffffffffffffffffffffffffffffffffffffffff16610b0b909392919063ffffffff16565b806001019050610785565b505f8061084883611388878961093a565b50915091508161088f57806040517f0a8d6e8c0000000000000000000000000000000000000000000000000000000081526004016108869190612045565b60405180910390fd5b839850505050505050505092915050565b5f60019050919050565b5f63499602d29050919050565b62030d4081565b6001602052805f5260405f205f915054906101000a900467ffffffffffffffff1681565b61138881565b60605f67ffffffffffffffff811115610904576109036111c8565b5b6040519080825280602002602001820160405280156109325781602001602082028036833780820191505090505b509050919050565b5f60605f8087606001515114801561095157505f85145b8061097257505f8473ffffffffffffffffffffffffffffffffffffffff163b145b806109c357506109c17f85572ffb000000000000000000000000000000000000000000000000000000008573ffffffffffffffffffffffffffffffffffffffff16610c7890919063ffffffff16565b155b156109e65760015f60405180602001604052805f81525090925092509250610b01565b5f6385572ffb60e01b88604051602401610a009190612201565b604051602081830303815290604052907bffffffffffffffffffffffffffffffffffffffffffffffffffffffff19166020820180517bffffffffffffffffffffffffffffffffffffffffffffffffffffffff83818316178352505050509050610a6d8186888a6084610c9c565b8094508195508296505050507fa8b0355886b5b7a28bb97e4f0a24feb172618407402721c4012d8b7c6433102f848484604051610aac93929190611764565b60405180910390a17f9b877de93ea9895756e337442c657f95a34fc68e7eb988bdfa693d5be83016b6885f01518960200151338480519060200120604051610af79493929190612221565b60405180910390a1505b9450945094915050565b610b8e846323b872dd60e01b858585604051602401610b2c93929190612264565b604051602081830303815290604052907bffffffffffffffffffffffffffffffffffffffffffffffffffffffff19166020820180517bffffffffffffffffffffffffffffffffffffffffffffffffffffffff8381831617835250505050610dc4565b50505050565b610b9c611154565b5f8383905003610bc557604051806020016040528062030d4063ffffffff168152509050610c72565b6397a657c960e01b7bffffffffffffffffffffffffffffffffffffffffffffffffffffffff1916838390610bf991906122da565b7bffffffffffffffffffffffffffffffffffffffffffffffffffffffff191614610c4f576040517f5247fdce00000000000000000000000000000000000000000000000000000000815260040160405180910390fd5b82826004908092610c6293929190612340565b810190610c6f91906123b3565b90505b92915050565b5f610c8283610e8a565b8015610c945750610c938383610ed6565b5b905092915050565b5f60605f8361ffff1667ffffffffffffffff811115610cbe57610cbd6111c8565b5b6040519080825280601f01601f191660200182016040528015610cf05781602001600182028036833780820191505090505b509150863b610d21577f0c3b563c000000000000000000000000000000000000000000000000000000005f5260045ffd5b5a85811015610d52577fafa32a2c000000000000000000000000000000000000000000000000000000005f5260045ffd5b85810390508660408204820311610d8b577f37c3be29000000000000000000000000000000000000000000000000000000005f5260045ffd5b5a5f808b5160208d015f8d8df194505a810392503d86811115610dac578690505b808552805f602087013e505050955095509592505050565b5f610e25826040518060400160405280602081526020017f5361666545524332303a206c6f772d6c6576656c2063616c6c206661696c65648152508573ffffffffffffffffffffffffffffffffffffffff16610f8f9092919063ffffffff16565b90505f81511480610e46575080806020019051810190610e459190612408565b5b610e85576040517f08c379a0000000000000000000000000000000000000000000000000000000008152600401610e7c906124b3565b60405180910390fd5b505050565b5f610eb5827f01ffc9a700000000000000000000000000000000000000000000000000000000610ed6565b8015610ecf5750610ecd8263ffffffff60e01b610ed6565b155b9050919050565b5f806301ffc9a760e01b83604051602401610ef191906124e0565b604051602081830303815290604052907bffffffffffffffffffffffffffffffffffffffffffffffffffffffff19166020820180517bffffffffffffffffffffffffffffffffffffffffffffffffffffffff838183161783525050505090505f805f60205f8551602087018a617530fa92503d91505f519050828015610f78575060208210155b8015610f8357505f81115b94505050505092915050565b6060610f9d84845f85610fa6565b90509392505050565b606082471015610feb576040517f08c379a0000000000000000000000000000000000000000000000000000000008152600401610fe290612569565b60405180910390fd5b5f808673ffffffffffffffffffffffffffffffffffffffff16858760405161101391906125c1565b5f6040518083038185875af1925050503d805f811461104d576040519150601f19603f3d011682016040523d82523d5f602084013e611052565b606091505b50915091506110638783838761106f565b92505050949350505050565b606083156110d0575f8351036110c857611088856110e3565b6110c7576040517f08c379a00000000000000000000000000000000000000000000000000000000081526004016110be90612621565b60405180910390fd5b5b8290506110db565b6110da8383611105565b5b949350505050565b5f808273ffffffffffffffffffffffffffffffffffffffff163b119050919050565b5f825111156111175781518083602001fd5b806040517f08c379a000000000000000000000000000000000000000000000000000000000815260040161114b9190612681565b60405180910390fd5b60405180602001604052805f81525090565b5f604051905090565b5f80fd5b5f80fd5b5f67ffffffffffffffff82169050919050565b61119381611177565b811461119d575f80fd5b50565b5f813590506111ae8161118a565b92915050565b5f80fd5b5f601f19601f8301169050919050565b7f4e487b71000000000000000000000000000000000000000000000000000000005f52604160045260245ffd5b6111fe826111b8565b810181811067ffffffffffffffff8211171561121d5761121c6111c8565b5b80604052505050565b5f61122f611166565b905061123b82826111f5565b919050565b5f80fd5b5f80fd5b5f80fd5b5f67ffffffffffffffff821115611266576112656111c8565b5b61126f826111b8565b9050602081019050919050565b828183375f83830152505050565b5f61129c6112978461124c565b611226565b9050828152602081018484840111156112b8576112b7611248565b5b6112c384828561127c565b509392505050565b5f82601f8301126112df576112de611244565b5b81356112ef84826020860161128a565b91505092915050565b5f67ffffffffffffffff821115611312576113116111c8565b5b602082029050602081019050919050565b5f80fd5b5f73ffffffffffffffffffffffffffffffffffffffff82169050919050565b5f61135082611327565b9050919050565b61136081611346565b811461136a575f80fd5b50565b5f8135905061137b81611357565b92915050565b5f819050919050565b61139381611381565b811461139d575f80fd5b50565b5f813590506113ae8161138a565b92915050565b5f604082840312156113c9576113c86111b4565b5b6113d36040611226565b90505f6113e28482850161136d565b5f8301525060206113f5848285016113a0565b60208301525092915050565b5f61141361140e846112f8565b611226565b9050808382526020820190506040840283018581111561143657611435611323565b5b835b8181101561145f578061144b88826113b4565b845260208401935050604081019050611438565b5050509392505050565b5f82601f83011261147d5761147c611244565b5b813561148d848260208601611401565b91505092915050565b5f60a082840312156114ab576114aa6111b4565b5b6114b560a0611226565b90505f82013567ffffffffffffffff8111156114d4576114d3611240565b5b6114e0848285016112cb565b5f83015250602082013567ffffffffffffffff81111561150357611502611240565b5b61150f848285016112cb565b602083015250604082013567ffffffffffffffff81111561153357611532611240565b5b61153f84828501611469565b60408301525060606115538482850161136d565b606083015250608082013567ffffffffffffffff81111561157757611576611240565b5b611583848285016112cb565b60808301525092915050565b5f80604083850312156115a5576115a461116f565b5b5f6115b2858286016111a0565b925050602083013567ffffffffffffffff8111156115d3576115d2611173565b5b6115df85828601611496565b9150509250929050565b6115f281611381565b82525050565b5f60208201905061160b5f8301846115e9565b92915050565b5f80fd5b5f60a0828403121561162a57611629611611565b5b81905092915050565b5f61ffff82169050919050565b61164981611633565b8114611653575f80fd5b50565b5f8135905061166481611640565b92915050565b5f805f80608085870312156116825761168161116f565b5b5f85013567ffffffffffffffff81111561169f5761169e611173565b5b6116ab87828801611615565b94505060206116bc87828801611656565b93505060406116cd878288016113a0565b92505060606116de8782880161136d565b91505092959194509250565b5f8115159050919050565b6116fe816116ea565b82525050565b5f81519050919050565b5f82825260208201905092915050565b8281835e5f83830152505050565b5f61173682611704565b611740818561170e565b935061175081856020860161171e565b611759816111b8565b840191505092915050565b5f6060820190506117775f8301866116f5565b8181036020830152611789818561172c565b905061179860408301846115e9565b949350505050565b5f602082840312156117b5576117b461116f565b5b5f6117c2848285016113a0565b91505092915050565b5f80604083850312156117e1576117e061116f565b5b5f6117ee858286016111a0565b92505060206117ff8582860161136d565b9150509250929050565b5f60208201905061181c5f8301846116f5565b92915050565b5f60a0828403121561183757611836611611565b5b81905092915050565b5f80604083850312156118565761185561116f565b5b5f611863858286016111a0565b925050602083013567ffffffffffffffff81111561188457611883611173565b5b61189085828601611822565b9150509250929050565b5f819050919050565b6118ac8161189a565b82525050565b5f6020820190506118c55f8301846118a3565b92915050565b5f602082840312156118e0576118df61116f565b5b5f6118ed848285016111a0565b91505092915050565b6118ff81611346565b82525050565b5f6020820190506119185f8301846118f6565b92915050565b5f63ffffffff82169050919050565b6119368161191e565b82525050565b5f60208201905061194f5f83018461192d565b92915050565b5f6020828403121561196a5761196961116f565b5b5f6119778482850161136d565b91505092915050565b61198981611177565b82525050565b5f6020820190506119a25f830184611980565b92915050565b6119b181611633565b82525050565b5f6020820190506119ca5f8301846119a8565b92915050565b5f81519050919050565b5f82825260208201905092915050565b5f819050602082019050919050565b611a0281611346565b82525050565b5f611a1383836119f9565b60208301905092915050565b5f602082019050919050565b5f611a35826119d0565b611a3f81856119da565b9350611a4a836119ea565b805f5b83811015611a7a578151611a618882611a08565b9750611a6c83611a1f565b925050600181019050611a4d565b5085935050505092915050565b5f6020820190508181035f830152611a9f8184611a2b565b905092915050565b611ab08161189a565b8114611aba575f80fd5b50565b5f81359050611acb81611aa7565b92915050565b5f60a08284031215611ae657611ae56111b4565b5b611af060a0611226565b90505f611aff84828501611abd565b5f830152506020611b12848285016111a0565b602083015250604082013567ffffffffffffffff811115611b3657611b35611240565b5b611b42848285016112cb565b604083015250606082013567ffffffffffffffff811115611b6657611b65611240565b5b611b72848285016112cb565b606083015250608082013567ffffffffffffffff811115611b9657611b95611240565b5b611ba284828501611469565b60808301525092915050565b5f611bb93683611ad1565b9050919050565b5f80fd5b5f80fd5b5f80fd5b5f8083356001602003843603038112611be857611be7611bc0565b5b80840192508235915067ffffffffffffffff821115611c0a57611c09611bc4565b5b602083019250600182023603831315611c2657611c25611bc8565b5b509250929050565b5f611c39838561170e565b9350611c4683858461127c565b611c4f836111b8565b840190509392505050565b5f6020820190508181035f830152611c73818486611c2e565b90509392505050565b5f611c873683611496565b9050919050565b5f80fd5b5f80fd5b5f80fd5b5f8083356001602003843603038112611cb657611cb5611c96565b5b83810192508235915060208301925067ffffffffffffffff821115611cde57611cdd611c8e565b5b600182023603831315611cf457611cf3611c92565b5b509250929050565b5f82825260208201905092915050565b5f611d178385611cfc565b9350611d2483858461127c565b611d2d836111b8565b840190509392505050565b5f8083356001602003843603038112611d5457611d53611c96565b5b83810192508235915060208301925067ffffffffffffffff821115611d7c57611d7b611c8e565b5b604082023603831315611d9257611d91611c92565b5b509250929050565b5f82825260208201905092915050565b5f819050919050565b5f611dc1602084018461136d565b905092915050565b5f611dd760208401846113a0565b905092915050565b611de881611381565b82525050565b60408201611dfe5f830183611db3565b611e0a5f8501826119f9565b50611e186020830183611dc9565b611e256020850182611ddf565b50505050565b5f611e368383611dee565b60408301905092915050565b5f82905092915050565b5f604082019050919050565b5f611e638385611d9a565b9350611e6e82611daa565b805f5b85811015611ea657611e838284611e42565b611e8d8882611e2b565b9750611e9883611e4c565b925050600181019050611e71565b5085925050509392505050565b5f60a08301611ec45f840184611c9a565b8583035f870152611ed6838284611d0c565b92505050611ee76020840184611c9a565b8583036020870152611efa838284611d0c565b92505050611f0b6040840184611d38565b8583036040870152611f1e838284611e58565b92505050611f2f6060840184611db3565b611f3c60608601826119f9565b50611f4a6080840184611c9a565b8583036080870152611f5d838284611d0c565b925050508091505092915050565b5f6020820190508181035f830152611f838184611eb3565b905092915050565b5f8083356001602003843603038112611fa757611fa6611bc0565b5b80840192508235915067ffffffffffffffff821115611fc957611fc8611bc4565b5b602083019250604082023603831315611fe557611fe4611bc8565b5b509250929050565b5f604082840312156120025761200161116f565b5b5f61200f848285016113b4565b91505092915050565b7f4e487b71000000000000000000000000000000000000000000000000000000005f52603260045260245ffd5b5f6020820190508181035f83015261205d818461172c565b905092915050565b61206e8161189a565b82525050565b61207d81611177565b82525050565b5f61208d82611704565b6120978185611cfc565b93506120a781856020860161171e565b6120b0816111b8565b840191505092915050565b5f81519050919050565b5f819050602082019050919050565b604082015f8201516120e85f8501826119f9565b5060208201516120fb6020850182611ddf565b50505050565b5f61210c83836120d4565b60408301905092915050565b5f602082019050919050565b5f61212e826120bb565b6121388185611d9a565b9350612143836120c5565b805f5b8381101561217357815161215a8882612101565b975061216583612118565b925050600181019050612146565b5085935050505092915050565b5f60a083015f8301516121955f860182612065565b5060208301516121a86020860182612074565b50604083015184820360408601526121c08282612083565b915050606083015184820360608601526121da8282612083565b915050608083015184820360808601526121f48282612124565b9150508091505092915050565b5f6020820190508181035f8301526122198184612180565b905092915050565b5f6080820190506122345f8301876118a3565b6122416020830186611980565b61224e60408301856118f6565b61225b60608301846118a3565b95945050505050565b5f6060820190506122775f8301866118f6565b61228460208301856118f6565b61229160408301846115e9565b949350505050565b5f82905092915050565b5f7fffffffff0000000000000000000000000000000000000000000000000000000082169050919050565b5f82821b905092915050565b5f6122e58383612299565b826122f081356122a3565b925060048210156123305761232b7fffffffff00000000000000000000000000000000000000000000000000000000836004036008026122ce565b831692505b505092915050565b5f80fd5b5f80fd5b5f808585111561235357612352612338565b5b838611156123645761236361233c565b5b6001850283019150848603905094509492505050565b5f6020828403121561238f5761238e6111b4565b5b6123996020611226565b90505f6123a8848285016113a0565b5f8301525092915050565b5f602082840312156123c8576123c761116f565b5b5f6123d58482850161237a565b91505092915050565b6123e7816116ea565b81146123f1575f80fd5b50565b5f81519050612402816123de565b92915050565b5f6020828403121561241d5761241c61116f565b5b5f61242a848285016123f4565b91505092915050565b5f82825260208201905092915050565b7f5361666545524332303a204552433230206f7065726174696f6e20646964206e5f8201527f6f74207375636365656400000000000000000000000000000000000000000000602082015250565b5f61249d602a83612433565b91506124a882612443565b604082019050919050565b5f6020820190508181035f8301526124ca81612491565b9050919050565b6124da816122a3565b82525050565b5f6020820190506124f35f8301846124d1565b92915050565b7f416464726573733a20696e73756666696369656e742062616c616e636520666f5f8201527f722063616c6c0000000000000000000000000000000000000000000000000000602082015250565b5f612553602683612433565b915061255e826124f9565b604082019050919050565b5f6020820190508181035f83015261258081612547565b9050919050565b5f81905092915050565b5f61259b82611704565b6125a58185612587565b93506125b581856020860161171e565b80840191505092915050565b5f6125cc8284612591565b915081905092915050565b7f416464726573733a2063616c6c20746f206e6f6e2d636f6e74726163740000005f82015250565b5f61260b601d83612433565b9150612616826125d7565b602082019050919050565b5f6020820190508181035f830152612638816125ff565b9050919050565b5f81519050919050565b5f6126538261263f565b61265d8185612433565b935061266d81856020860161171e565b612676816111b8565b840191505092915050565b5f6020820190508181035f8301526126998184612649565b90509291505056fea264697066735822122010b36a1dcb4a5a5773db0009c7c31aa332c98d74b42db0995a5fff35d13d51c864736f6c634300081a0033","linkReferences":{}},"methodIdentifiers":{"DEFAULT_GAS_LIMIT()":"d6be695a","GAS_FOR_CALL_EXACT_CHECK()":"ee18e0d3","ccipSend(uint64,(bytes,bytes,(address,uint256)[],address,bytes))":"96f4e9f9","factoryChainSelector(address)":"d9139974","getFee(uint64,(bytes,bytes,(address,uint256)[],address,bytes))":"20487ded","getOnRamp(uint64)":"a8d87a3b","getSupportedTokens(uint64)":"fbca3b74","isChainSupported(uint64)":"a48a9058","isOffRamp(uint64,address)":"83826b2b","routeMessage((bytes32,uint64,bytes,bytes,(address,uint256)[]),uint16,uint256,address)":"3cf97983","setFactoryChainSelector(uint64,address)":"844968c8","setFee(uint256)":"69fe0e2d"},"id":31}