{
  "abi": [
    {
      "inputs": [
        {
          "internalType": "address",
          "name": "to",
          "type": "address"
        },
        {
          "internalType": "uint256",
          "name": "amount",
          "type": "uint256"
        }
      ],
      "name": "receive",
      "outputs": [
        {
          "internalType": "address",
          "name": "",
          "type": "address"
        },
        {
          "internalType": "uint256",
          "name": "",
          "type": "uint256"
        }
      ],
      "stateMutability": "nonpayable",
      "type": "function"
    },
    {
      "inputs": [
        {
          "internalType": "address",
          "name": "from",
          "type": "address"
        },
        {
          "internalType": "uint256",
          "name": "amount",
          "type": "uint256"
        }
      ],
      "name": "send",
      "outputs": [
        {
          "internalType": "address",
          "name": "",
          "type": "address"
        },
        {
          "internalType": "uint256",
          "name": "",
          "type": "uint256"
        }
      ],
      "stateMutability": "nonpayable",
      "type": "function"
    }
  ],
  "bytecode": {
    "object": "0x608060405234801561001057600080fd5b5060d58061001f6000396000f3fe6080604052348015600f57600080fd5b506004361060325760003560e01c806310b8fadc146037578063d0679d34146037575b600080fd5b604660423660046069565b9091565b604080516001600160a01b03909316835260208301919091520160405180910390f35b60008060408385031215607b57600080fd5b82356001600160a01b0381168114609157600080fd5b94602093909301359350505056fea2646970667358221220a8ee751788acd3754bc831f2aecded488184cdb6f51cef2b1bba44113c40bcaa64736f6c63430008110033",
    "linkReferences": {}
  },
  "methodIdentifiers": {
    "receive(address,uint256)": "10b8fadc",
    "send(address,uint256)": "d0679d34"
  },
  "id": 35
}